01010010001001204000000000000000000000000000000          REGISTERED VOTERS - TOTAL                               REGISTERED VOTERS - TOTAL             1-Calvert                                              00 
01010010002001602000000000000000000000000000000          REGISTERED VOTERS - TOTAL                               REGISTERED VOTERS - TOTAL             2-Hearne                                               00 
01010010003000572000000000000000000000000000000          REGISTERED VOTERS - TOTAL                               REGISTERED VOTERS - TOTAL             3-Wheelock                                             00 
01010010004000496000000000000000000000000000000          REGISTERED VOTERS - TOTAL                               REGISTERED VOTERS - TOTAL             4-Bald Prairie                                         00 
01010010005001553000000000000000000000000000000          REGISTERED VOTERS - TOTAL                               REGISTERED VOTERS - TOTAL             5-Bremond                                              00 
01010010006001619000000000000000000000000000000          REGISTERED VOTERS - TOTAL                               REGISTERED VOTERS - TOTAL             6-Franklin                                             00 
01010010007000088000000000000000000000000000000          REGISTERED VOTERS - TOTAL                               REGISTERED VOTERS - TOTAL             7-Mumford                                              00 
01010010008000239000000000000000000000000000000          REGISTERED VOTERS - TOTAL                               REGISTERED VOTERS - TOTAL             8-Seale                                                00 
01010010009001124000000000000000000000000000000          REGISTERED VOTERS - TOTAL                               REGISTERED VOTERS - TOTAL             11-Benchley                                            00 
01010010010000191000000000000000000000000000000          REGISTERED VOTERS - TOTAL                               REGISTERED VOTERS - TOTAL             13-Elliott                                             00 
01010010011000160000000000000000000000000000000          REGISTERED VOTERS - TOTAL                               REGISTERED VOTERS - TOTAL             16-Easterly                                            00 
01010010012000101000000000000000000000000000000          REGISTERED VOTERS - TOTAL                               REGISTERED VOTERS - TOTAL             18-Ridge                                               00 
01010010013000531000000000000000000000000000000          REGISTERED VOTERS - TOTAL                               REGISTERED VOTERS - TOTAL             19-New Baden                                           00 
01010010014001358000000000000000000000000000000          REGISTERED VOTERS - TOTAL                               REGISTERED VOTERS - TOTAL             22-Teal Center                                         00 
01010010015000830000000000000000000000000000000          REGISTERED VOTERS - TOTAL                               REGISTERED VOTERS - TOTAL             23-Christian Faith Ctr.                                00 
01020010001000742000436000240000066000000000000          BALLOTS CAST - TOTAL                                    BALLOTS CAST - TOTAL                  1-Calvert                                              00 
01020010002000758000429000268000061000000000000          BALLOTS CAST - TOTAL                                    BALLOTS CAST - TOTAL                  2-Hearne                                               00 
01020010003000367000183000158000026000000000000          BALLOTS CAST - TOTAL                                    BALLOTS CAST - TOTAL                  3-Wheelock                                             00 
01020010004000313000230000059000024000000000000          BALLOTS CAST - TOTAL                                    BALLOTS CAST - TOTAL                  4-Bald Prairie                                         00 
01020010005000881000501000314000066000000000000          BALLOTS CAST - TOTAL                                    BALLOTS CAST - TOTAL                  5-Bremond                                              00 
01020010006000887000539000306000042000000000000          BALLOTS CAST - TOTAL                                    BALLOTS CAST - TOTAL                  6-Franklin                                             00 
01020010007000045000008000033000004000000000000          BALLOTS CAST - TOTAL                                    BALLOTS CAST - TOTAL                  7-Mumford                                              00 
01020010008000184000033000129000022000000000000          BALLOTS CAST - TOTAL                                    BALLOTS CAST - TOTAL                  8-Seale                                                00 
01020010009000639000284000301000054000000000000          BALLOTS CAST - TOTAL                                    BALLOTS CAST - TOTAL                  11-Benchley                                            00 
01020010010000137000099000031000007000000000000          BALLOTS CAST - TOTAL                                    BALLOTS CAST - TOTAL                  13-Elliott                                             00 
01020010011000099000047000046000006000000000000          BALLOTS CAST - TOTAL                                    BALLOTS CAST - TOTAL                  16-Easterly                                            00 
01020010012000056000027000026000003000000000000          BALLOTS CAST - TOTAL                                    BALLOTS CAST - TOTAL                  18-Ridge                                               00 
01020010013000355000236000092000027000000000000          BALLOTS CAST - TOTAL                                    BALLOTS CAST - TOTAL                  19-New Baden                                           00 
01020010014000555000278000214000063000000000000          BALLOTS CAST - TOTAL                                    BALLOTS CAST - TOTAL                  22-Teal Center                                         00 
01020010015000319000156000136000027000000000000          BALLOTS CAST - TOTAL                                    BALLOTS CAST - TOTAL                  23-Christian Faith Ctr.                                00 
01030010001000186000126000051000009000000000000REP       Straight Party                                          Republican Party                      1-Calvert                                              01 
01030010002000192000117000055000020000000000000REP       Straight Party                                          Republican Party                      2-Hearne                                               01 
01030010003000147000074000059000014000000000000REP       Straight Party                                          Republican Party                      3-Wheelock                                             01 
01030010004000131000092000025000014000000000000REP       Straight Party                                          Republican Party                      4-Bald Prairie                                         01 
01030010005000248000148000083000017000000000000REP       Straight Party                                          Republican Party                      5-Bremond                                              01 
01030010006000339000216000105000018000000000000REP       Straight Party                                          Republican Party                      6-Franklin                                             01 
01030010007000010000004000004000002000000000000REP       Straight Party                                          Republican Party                      7-Mumford                                              01 
01030010008000084000018000051000015000000000000REP       Straight Party                                          Republican Party                      8-Seale                                                01 
01030010009000237000112000105000020000000000000REP       Straight Party                                          Republican Party                      11-Benchley                                            01 
01030010010000056000043000011000002000000000000REP       Straight Party                                          Republican Party                      13-Elliott                                             01 
01030010011000033000018000013000002000000000000REP       Straight Party                                          Republican Party                      16-Easterly                                            01 
01030010012000024000010000011000003000000000000REP       Straight Party                                          Republican Party                      18-Ridge                                               01 
01030010013000179000112000048000019000000000000REP       Straight Party                                          Republican Party                      19-New Baden                                           01 
01030010014000050000027000019000004000000000000REP       Straight Party                                          Republican Party                      22-Teal Center                                         01 
01030010015000085000047000035000003000000000000REP       Straight Party                                          Republican Party                      23-Christian Faith Ctr.                                01 
01030020001000264000124000098000042000000000000DEM       Straight Party                                          Democratic Party                      1-Calvert                                              01 
01030020002000171000070000088000013000000000000DEM       Straight Party                                          Democratic Party                      2-Hearne                                               01 
01030020003000014000007000005000002000000000000DEM       Straight Party                                          Democratic Party                      3-Wheelock                                             01 
01030020004000009000007000001000001000000000000DEM       Straight Party                                          Democratic Party                      4-Bald Prairie                                         01 
01030020005000131000057000054000020000000000000DEM       Straight Party                                          Democratic Party                      5-Bremond                                              01 
01030020006000081000031000043000007000000000000DEM       Straight Party                                          Democratic Party                      6-Franklin                                             01 
01030020007000015000001000012000002000000000000DEM       Straight Party                                          Democratic Party                      7-Mumford                                              01 
01030020008000004000000000004000000000000000000DEM       Straight Party                                          Democratic Party                      8-Seale                                                01 
01030020009000078000027000036000015000000000000DEM       Straight Party                                          Democratic Party                      11-Benchley                                            01 
01030020010000009000003000005000001000000000000DEM       Straight Party                                          Democratic Party                      13-Elliott                                             01 
01030020011000008000005000001000002000000000000DEM       Straight Party                                          Democratic Party                      16-Easterly                                            01 
01030020012000001000000000001000000000000000000DEM       Straight Party                                          Democratic Party                      18-Ridge                                               01 
01030020013000009000006000003000000000000000000DEM       Straight Party                                          Democratic Party                      19-New Baden                                           01 
01030020014000358000166000141000051000000000000DEM       Straight Party                                          Democratic Party                      22-Teal Center                                         01 
01030020015000110000036000059000015000000000000DEM       Straight Party                                          Democratic Party                      23-Christian Faith Ctr.                                01 
01030030001000003000000000002000001000000000000LIB       Straight Party                                          Libertarian Party                     1-Calvert                                              01 
01030030002000002000001000001000000000000000000LIB       Straight Party                                          Libertarian Party                     2-Hearne                                               01 
01030030003000000000000000000000000000000000000LIB       Straight Party                                          Libertarian Party                     3-Wheelock                                             01 
01030030004000000000000000000000000000000000000LIB       Straight Party                                          Libertarian Party                     4-Bald Prairie                                         01 
01030030005000002000002000000000000000000000000LIB       Straight Party                                          Libertarian Party                     5-Bremond                                              01 
01030030006000000000000000000000000000000000000LIB       Straight Party                                          Libertarian Party                     6-Franklin                                             01 
01030030007000000000000000000000000000000000000LIB       Straight Party                                          Libertarian Party                     7-Mumford                                              01 
01030030008000000000000000000000000000000000000LIB       Straight Party                                          Libertarian Party                     8-Seale                                                01 
01030030009000001000000000001000000000000000000LIB       Straight Party                                          Libertarian Party                     11-Benchley                                            01 
01030030010000000000000000000000000000000000000LIB       Straight Party                                          Libertarian Party                     13-Elliott                                             01 
01030030011000001000000000001000000000000000000LIB       Straight Party                                          Libertarian Party                     16-Easterly                                            01 
01030030012000001000001000000000000000000000000LIB       Straight Party                                          Libertarian Party                     18-Ridge                                               01 
01030030013000001000001000000000000000000000000LIB       Straight Party                                          Libertarian Party                     19-New Baden                                           01 
01030030014000000000000000000000000000000000000LIB       Straight Party                                          Libertarian Party                     22-Teal Center                                         01 
01030030015000002000000000002000000000000000000LIB       Straight Party                                          Libertarian Party                     23-Christian Faith Ctr.                                01 
01030040001000004000004000000000000000000000000          Straight Party                                          OVER VOTES                            1-Calvert                                              01 
01030040002000001000001000000000000000000000000          Straight Party                                          OVER VOTES                            2-Hearne                                               01 
01030040003000001000001000000000000000000000000          Straight Party                                          OVER VOTES                            3-Wheelock                                             01 
01030040004000001000001000000000000000000000000          Straight Party                                          OVER VOTES                            4-Bald Prairie                                         01 
01030040005000000000000000000000000000000000000          Straight Party                                          OVER VOTES                            5-Bremond                                              01 
01030040006000003000003000000000000000000000000          Straight Party                                          OVER VOTES                            6-Franklin                                             01 
01030040007000000000000000000000000000000000000          Straight Party                                          OVER VOTES                            7-Mumford                                              01 
01030040008000000000000000000000000000000000000          Straight Party                                          OVER VOTES                            8-Seale                                                01 
01030040009000002000002000000000000000000000000          Straight Party                                          OVER VOTES                            11-Benchley                                            01 
01030040010000000000000000000000000000000000000          Straight Party                                          OVER VOTES                            13-Elliott                                             01 
01030040011000001000001000000000000000000000000          Straight Party                                          OVER VOTES                            16-Easterly                                            01 
01030040012000000000000000000000000000000000000          Straight Party                                          OVER VOTES                            18-Ridge                                               01 
01030040013000001000001000000000000000000000000          Straight Party                                          OVER VOTES                            19-New Baden                                           01 
01030040014000001000001000000000000000000000000          Straight Party                                          OVER VOTES                            22-Teal Center                                         01 
01030040015000002000002000000000000000000000000          Straight Party                                          OVER VOTES                            23-Christian Faith Ctr.                                01 
01030050001000285000182000089000014000000000000          Straight Party                                          UNDER VOTES                           1-Calvert                                              01 
01030050002000392000240000124000028000000000000          Straight Party                                          UNDER VOTES                           2-Hearne                                               01 
01030050003000205000101000094000010000000000000          Straight Party                                          UNDER VOTES                           3-Wheelock                                             01 
01030050004000172000130000033000009000000000000          Straight Party                                          UNDER VOTES                           4-Bald Prairie                                         01 
01030050005000500000294000177000029000000000000          Straight Party                                          UNDER VOTES                           5-Bremond                                              01 
01030050006000464000289000158000017000000000000          Straight Party                                          UNDER VOTES                           6-Franklin                                             01 
01030050007000020000003000017000000000000000000          Straight Party                                          UNDER VOTES                           7-Mumford                                              01 
01030050008000096000015000074000007000000000000          Straight Party                                          UNDER VOTES                           8-Seale                                                01 
01030050009000321000143000159000019000000000000          Straight Party                                          UNDER VOTES                           11-Benchley                                            01 
01030050010000072000053000015000004000000000000          Straight Party                                          UNDER VOTES                           13-Elliott                                             01 
01030050011000056000023000031000002000000000000          Straight Party                                          UNDER VOTES                           16-Easterly                                            01 
01030050012000030000016000014000000000000000000          Straight Party                                          UNDER VOTES                           18-Ridge                                               01 
01030050013000165000116000041000008000000000000          Straight Party                                          UNDER VOTES                           19-New Baden                                           01 
01030050014000146000084000054000008000000000000          Straight Party                                          UNDER VOTES                           22-Teal Center                                         01 
01030050015000120000071000040000009000000000000          Straight Party                                          UNDER VOTES                           23-Christian Faith Ctr.                                01 
01040010001000386000256000110000020000000000000REP       United States Senator                                   Ted Cruz                              1-Calvert                                              01 
01040010002000466000301000127000038000000000000REP       United States Senator                                   Ted Cruz                              2-Hearne                                               01 
01040010003000317000157000138000022000000000000REP       United States Senator                                   Ted Cruz                              3-Wheelock                                             01 
01040010004000275000206000053000016000000000000REP       United States Senator                                   Ted Cruz                              4-Bald Prairie                                         01 
01040010005000651000385000225000041000000000000REP       United States Senator                                   Ted Cruz                              5-Bremond                                              01 
01040010006000709000445000231000033000000000000REP       United States Senator                                   Ted Cruz                              6-Franklin                                             01 
01040010007000022000007000013000002000000000000REP       United States Senator                                   Ted Cruz                              7-Mumford                                              01 
01040010008000164000033000110000021000000000000REP       United States Senator                                   Ted Cruz                              8-Seale                                                01 
01040010009000482000223000226000033000000000000REP       United States Senator                                   Ted Cruz                              11-Benchley                                            01 
01040010010000123000093000024000006000000000000REP       United States Senator                                   Ted Cruz                              13-Elliott                                             01 
01040010011000084000042000040000002000000000000REP       United States Senator                                   Ted Cruz                              16-Easterly                                            01 
01040010012000048000025000020000003000000000000REP       United States Senator                                   Ted Cruz                              18-Ridge                                               01 
01040010013000312000210000079000023000000000000REP       United States Senator                                   Ted Cruz                              19-New Baden                                           01 
01040010014000100000062000033000005000000000000REP       United States Senator                                   Ted Cruz                              22-Teal Center                                         01 
01040010015000156000095000053000008000000000000REP       United States Senator                                   Ted Cruz                              23-Christian Faith Ctr.                                01 
01040020001000341000172000125000044000000000000DEM       United States Senator                                   Beto O'Rourke                         1-Calvert                                              01 
01040020002000286000125000138000023000000000000DEM       United States Senator                                   Beto O'Rourke                         2-Hearne                                               01 
01040020003000045000024000018000003000000000000DEM       United States Senator                                   Beto O'Rourke                         3-Wheelock                                             01 
01040020004000035000023000004000008000000000000DEM       United States Senator                                   Beto O'Rourke                         4-Bald Prairie                                         01 
01040020005000207000105000080000022000000000000DEM       United States Senator                                   Beto O'Rourke                         5-Bremond                                              01 
01040020006000167000087000071000009000000000000DEM       United States Senator                                   Beto O'Rourke                         6-Franklin                                             01 
01040020007000022000001000019000002000000000000DEM       United States Senator                                   Beto O'Rourke                         7-Mumford                                              01 
01040020008000017000000000016000001000000000000DEM       United States Senator                                   Beto O'Rourke                         8-Seale                                                01 
01040020009000146000058000068000020000000000000DEM       United States Senator                                   Beto O'Rourke                         11-Benchley                                            01 
01040020010000012000004000007000001000000000000DEM       United States Senator                                   Beto O'Rourke                         13-Elliott                                             01 
01040020011000013000005000004000004000000000000DEM       United States Senator                                   Beto O'Rourke                         16-Easterly                                            01 
01040020012000005000002000003000000000000000000DEM       United States Senator                                   Beto O'Rourke                         18-Ridge                                               01 
01040020013000038000023000011000004000000000000DEM       United States Senator                                   Beto O'Rourke                         19-New Baden                                           01 
01040020014000446000211000178000057000000000000DEM       United States Senator                                   Beto O'Rourke                         22-Teal Center                                         01 
01040020015000162000060000083000019000000000000DEM       United States Senator                                   Beto O'Rourke                         23-Christian Faith Ctr.                                01 
01040030001000002000001000001000000000000000000LIB       United States Senator                                   Neal M. Dikeman                       1-Calvert                                              01 
01040030002000002000000000002000000000000000000LIB       United States Senator                                   Neal M. Dikeman                       2-Hearne                                               01 
01040030003000003000002000001000000000000000000LIB       United States Senator                                   Neal M. Dikeman                       3-Wheelock                                             01 
01040030004000001000000000001000000000000000000LIB       United States Senator                                   Neal M. Dikeman                       4-Bald Prairie                                         01 
01040030005000008000004000003000001000000000000LIB       United States Senator                                   Neal M. Dikeman                       5-Bremond                                              01 
01040030006000003000002000001000000000000000000LIB       United States Senator                                   Neal M. Dikeman                       6-Franklin                                             01 
01040030007000001000000000001000000000000000000LIB       United States Senator                                   Neal M. Dikeman                       7-Mumford                                              01 
01040030008000002000000000002000000000000000000LIB       United States Senator                                   Neal M. Dikeman                       8-Seale                                                01 
01040030009000004000002000002000000000000000000LIB       United States Senator                                   Neal M. Dikeman                       11-Benchley                                            01 
01040030010000001000001000000000000000000000000LIB       United States Senator                                   Neal M. Dikeman                       13-Elliott                                             01 
01040030011000000000000000000000000000000000000LIB       United States Senator                                   Neal M. Dikeman                       16-Easterly                                            01 
01040030012000000000000000000000000000000000000LIB       United States Senator                                   Neal M. Dikeman                       18-Ridge                                               01 
01040030013000003000001000002000000000000000000LIB       United States Senator                                   Neal M. Dikeman                       19-New Baden                                           01 
01040030014000001000001000000000000000000000000LIB       United States Senator                                   Neal M. Dikeman                       22-Teal Center                                         01 
01040030015000000000000000000000000000000000000LIB       United States Senator                                   Neal M. Dikeman                       23-Christian Faith Ctr.                                01 
01040040001000000000000000000000000000000000000          United States Senator                                   OVER VOTES                            1-Calvert                                              01 
01040040002000000000000000000000000000000000000          United States Senator                                   OVER VOTES                            2-Hearne                                               01 
01040040003000000000000000000000000000000000000          United States Senator                                   OVER VOTES                            3-Wheelock                                             01 
01040040004000000000000000000000000000000000000          United States Senator                                   OVER VOTES                            4-Bald Prairie                                         01 
01040040005000000000000000000000000000000000000          United States Senator                                   OVER VOTES                            5-Bremond                                              01 
01040040006000000000000000000000000000000000000          United States Senator                                   OVER VOTES                            6-Franklin                                             01 
01040040007000000000000000000000000000000000000          United States Senator                                   OVER VOTES                            7-Mumford                                              01 
01040040008000000000000000000000000000000000000          United States Senator                                   OVER VOTES                            8-Seale                                                01 
01040040009000000000000000000000000000000000000          United States Senator                                   OVER VOTES                            11-Benchley                                            01 
01040040010000000000000000000000000000000000000          United States Senator                                   OVER VOTES                            13-Elliott                                             01 
01040040011000000000000000000000000000000000000          United States Senator                                   OVER VOTES                            16-Easterly                                            01 
01040040012000000000000000000000000000000000000          United States Senator                                   OVER VOTES                            18-Ridge                                               01 
01040040013000000000000000000000000000000000000          United States Senator                                   OVER VOTES                            19-New Baden                                           01 
01040040014000000000000000000000000000000000000          United States Senator                                   OVER VOTES                            22-Teal Center                                         01 
01040040015000000000000000000000000000000000000          United States Senator                                   OVER VOTES                            23-Christian Faith Ctr.                                01 
01040050001000013000007000004000002000000000000          United States Senator                                   UNDER VOTES                           1-Calvert                                              01 
01040050002000004000003000001000000000000000000          United States Senator                                   UNDER VOTES                           2-Hearne                                               01 
01040050003000002000000000001000001000000000000          United States Senator                                   UNDER VOTES                           3-Wheelock                                             01 
01040050004000002000001000001000000000000000000          United States Senator                                   UNDER VOTES                           4-Bald Prairie                                         01 
01040050005000015000007000006000002000000000000          United States Senator                                   UNDER VOTES                           5-Bremond                                              01 
01040050006000008000005000003000000000000000000          United States Senator                                   UNDER VOTES                           6-Franklin                                             01 
01040050007000000000000000000000000000000000000          United States Senator                                   UNDER VOTES                           7-Mumford                                              01 
01040050008000001000000000001000000000000000000          United States Senator                                   UNDER VOTES                           8-Seale                                                01 
01040050009000007000001000005000001000000000000          United States Senator                                   UNDER VOTES                           11-Benchley                                            01 
01040050010000001000001000000000000000000000000          United States Senator                                   UNDER VOTES                           13-Elliott                                             01 
01040050011000002000000000002000000000000000000          United States Senator                                   UNDER VOTES                           16-Easterly                                            01 
01040050012000003000000000003000000000000000000          United States Senator                                   UNDER VOTES                           18-Ridge                                               01 
01040050013000002000002000000000000000000000000          United States Senator                                   UNDER VOTES                           19-New Baden                                           01 
01040050014000008000004000003000001000000000000          United States Senator                                   UNDER VOTES                           22-Teal Center                                         01 
01040050015000001000001000000000000000000000000          United States Senator                                   UNDER VOTES                           23-Christian Faith Ctr.                                01 
01050010001000390000261000111000018000000000000REP       United States Representative, Dist 17                   Bill Flores                           1-Calvert                                              01 
01050010002000482000304000138000040000000000000REP       United States Representative, Dist 17                   Bill Flores                           2-Hearne                                               01 
01050010003000323000160000140000023000000000000REP       United States Representative, Dist 17                   Bill Flores                           3-Wheelock                                             01 
01050010004000274000206000052000016000000000000REP       United States Representative, Dist 17                   Bill Flores                           4-Bald Prairie                                         01 
01050010005000657000389000227000041000000000000REP       United States Representative, Dist 17                   Bill Flores                           5-Bremond                                              01 
01050010006000719000453000233000033000000000000REP       United States Representative, Dist 17                   Bill Flores                           6-Franklin                                             01 
01050010007000024000008000014000002000000000000REP       United States Representative, Dist 17                   Bill Flores                           7-Mumford                                              01 
01050010008000163000032000110000021000000000000REP       United States Representative, Dist 17                   Bill Flores                           8-Seale                                                01 
01050010009000482000223000227000032000000000000REP       United States Representative, Dist 17                   Bill Flores                           11-Benchley                                            01 
01050010010000123000095000022000006000000000000REP       United States Representative, Dist 17                   Bill Flores                           13-Elliott                                             01 
01050010011000082000040000039000003000000000000REP       United States Representative, Dist 17                   Bill Flores                           16-Easterly                                            01 
01050010012000048000025000020000003000000000000REP       United States Representative, Dist 17                   Bill Flores                           18-Ridge                                               01 
01050010013000317000212000082000023000000000000REP       United States Representative, Dist 17                   Bill Flores                           19-New Baden                                           01 
01050010014000097000059000032000006000000000000REP       United States Representative, Dist 17                   Bill Flores                           22-Teal Center                                         01 
01050010015000167000097000060000010000000000000REP       United States Representative, Dist 17                   Bill Flores                           23-Christian Faith Ctr.                                01 
01050020001000331000168000117000046000000000000DEM       United States Representative, Dist 17                   Rick Kennedy                          1-Calvert                                              01 
01050020002000263000119000123000021000000000000DEM       United States Representative, Dist 17                   Rick Kennedy                          2-Hearne                                               01 
01050020003000040000022000015000003000000000000DEM       United States Representative, Dist 17                   Rick Kennedy                          3-Wheelock                                             01 
01050020004000031000020000003000008000000000000DEM       United States Representative, Dist 17                   Rick Kennedy                          4-Bald Prairie                                         01 
01050020005000194000098000074000022000000000000DEM       United States Representative, Dist 17                   Rick Kennedy                          5-Bremond                                              01 
01050020006000150000077000064000009000000000000DEM       United States Representative, Dist 17                   Rick Kennedy                          6-Franklin                                             01 
01050020007000021000000000019000002000000000000DEM       United States Representative, Dist 17                   Rick Kennedy                          7-Mumford                                              01 
01050020008000018000000000017000001000000000000DEM       United States Representative, Dist 17                   Rick Kennedy                          8-Seale                                                01 
01050020009000134000052000061000021000000000000DEM       United States Representative, Dist 17                   Rick Kennedy                          11-Benchley                                            01 
01050020010000013000003000009000001000000000000DEM       United States Representative, Dist 17                   Rick Kennedy                          13-Elliott                                             01 
01050020011000012000006000003000003000000000000DEM       United States Representative, Dist 17                   Rick Kennedy                          16-Easterly                                            01 
01050020012000005000002000003000000000000000000DEM       United States Representative, Dist 17                   Rick Kennedy                          18-Ridge                                               01 
01050020013000032000020000008000004000000000000DEM       United States Representative, Dist 17                   Rick Kennedy                          19-New Baden                                           01 
01050020014000444000209000178000057000000000000DEM       United States Representative, Dist 17                   Rick Kennedy                          22-Teal Center                                         01 
01050020015000150000059000074000017000000000000DEM       United States Representative, Dist 17                   Rick Kennedy                          23-Christian Faith Ctr.                                01 
01050030001000004000000000004000000000000000000LIB       United States Representative, Dist 17                   Peter Churchman                       1-Calvert                                              01 
01050030002000007000003000004000000000000000000LIB       United States Representative, Dist 17                   Peter Churchman                       2-Hearne                                               01 
01050030003000003000001000002000000000000000000LIB       United States Representative, Dist 17                   Peter Churchman                       3-Wheelock                                             01 
01050030004000004000002000002000000000000000000LIB       United States Representative, Dist 17                   Peter Churchman                       4-Bald Prairie                                         01 
01050030005000011000007000003000001000000000000LIB       United States Representative, Dist 17                   Peter Churchman                       5-Bremond                                              01 
01050030006000005000003000002000000000000000000LIB       United States Representative, Dist 17                   Peter Churchman                       6-Franklin                                             01 
01050030007000000000000000000000000000000000000LIB       United States Representative, Dist 17                   Peter Churchman                       7-Mumford                                              01 
01050030008000000000000000000000000000000000000LIB       United States Representative, Dist 17                   Peter Churchman                       8-Seale                                                01 
01050030009000014000008000006000000000000000000LIB       United States Representative, Dist 17                   Peter Churchman                       11-Benchley                                            01 
01050030010000001000001000000000000000000000000LIB       United States Representative, Dist 17                   Peter Churchman                       13-Elliott                                             01 
01050030011000001000000000001000000000000000000LIB       United States Representative, Dist 17                   Peter Churchman                       16-Easterly                                            01 
01050030012000000000000000000000000000000000000LIB       United States Representative, Dist 17                   Peter Churchman                       18-Ridge                                               01 
01050030013000004000002000002000000000000000000LIB       United States Representative, Dist 17                   Peter Churchman                       19-New Baden                                           01 
01050030014000002000002000000000000000000000000LIB       United States Representative, Dist 17                   Peter Churchman                       22-Teal Center                                         01 
01050030015000001000000000001000000000000000000LIB       United States Representative, Dist 17                   Peter Churchman                       23-Christian Faith Ctr.                                01 
01050040001000000000000000000000000000000000000          United States Representative, Dist 17                   OVER VOTES                            1-Calvert                                              01 
01050040002000001000001000000000000000000000000          United States Representative, Dist 17                   OVER VOTES                            2-Hearne                                               01 
01050040003000000000000000000000000000000000000          United States Representative, Dist 17                   OVER VOTES                            3-Wheelock                                             01 
01050040004000000000000000000000000000000000000          United States Representative, Dist 17                   OVER VOTES                            4-Bald Prairie                                         01 
01050040005000000000000000000000000000000000000          United States Representative, Dist 17                   OVER VOTES                            5-Bremond                                              01 
01050040006000000000000000000000000000000000000          United States Representative, Dist 17                   OVER VOTES                            6-Franklin                                             01 
01050040007000000000000000000000000000000000000          United States Representative, Dist 17                   OVER VOTES                            7-Mumford                                              01 
01050040008000000000000000000000000000000000000          United States Representative, Dist 17                   OVER VOTES                            8-Seale                                                01 
01050040009000000000000000000000000000000000000          United States Representative, Dist 17                   OVER VOTES                            11-Benchley                                            01 
01050040010000000000000000000000000000000000000          United States Representative, Dist 17                   OVER VOTES                            13-Elliott                                             01 
01050040011000001000001000000000000000000000000          United States Representative, Dist 17                   OVER VOTES                            16-Easterly                                            01 
01050040012000000000000000000000000000000000000          United States Representative, Dist 17                   OVER VOTES                            18-Ridge                                               01 
01050040013000000000000000000000000000000000000          United States Representative, Dist 17                   OVER VOTES                            19-New Baden                                           01 
01050040014000001000001000000000000000000000000          United States Representative, Dist 17                   OVER VOTES                            22-Teal Center                                         01 
01050040015000000000000000000000000000000000000          United States Representative, Dist 17                   OVER VOTES                            23-Christian Faith Ctr.                                01 
01050050001000017000007000008000002000000000000          United States Representative, Dist 17                   UNDER VOTES                           1-Calvert                                              01 
01050050002000005000002000003000000000000000000          United States Representative, Dist 17                   UNDER VOTES                           2-Hearne                                               01 
01050050003000001000000000001000000000000000000          United States Representative, Dist 17                   UNDER VOTES                           3-Wheelock                                             01 
01050050004000004000002000002000000000000000000          United States Representative, Dist 17                   UNDER VOTES                           4-Bald Prairie                                         01 
01050050005000019000007000010000002000000000000          United States Representative, Dist 17                   UNDER VOTES                           5-Bremond                                              01 
01050050006000013000006000007000000000000000000          United States Representative, Dist 17                   UNDER VOTES                           6-Franklin                                             01 
01050050007000000000000000000000000000000000000          United States Representative, Dist 17                   UNDER VOTES                           7-Mumford                                              01 
01050050008000003000001000002000000000000000000          United States Representative, Dist 17                   UNDER VOTES                           8-Seale                                                01 
01050050009000009000001000007000001000000000000          United States Representative, Dist 17                   UNDER VOTES                           11-Benchley                                            01 
01050050010000000000000000000000000000000000000          United States Representative, Dist 17                   UNDER VOTES                           13-Elliott                                             01 
01050050011000003000000000003000000000000000000          United States Representative, Dist 17                   UNDER VOTES                           16-Easterly                                            01 
01050050012000003000000000003000000000000000000          United States Representative, Dist 17                   UNDER VOTES                           18-Ridge                                               01 
01050050013000002000002000000000000000000000000          United States Representative, Dist 17                   UNDER VOTES                           19-New Baden                                           01 
01050050014000011000007000004000000000000000000          United States Representative, Dist 17                   UNDER VOTES                           22-Teal Center                                         01 
01050050015000001000000000001000000000000000000          United States Representative, Dist 17                   UNDER VOTES                           23-Christian Faith Ctr.                                01 
01060010001000407000269000118000020000000000000REP       Governor                                                Greg Abbott                           1-Calvert                                              01 
01060010002000490000304000147000039000000000000REP       Governor                                                Greg Abbott                           2-Hearne                                               01 
01060010003000327000162000142000023000000000000REP       Governor                                                Greg Abbott                           3-Wheelock                                             01 
01060010004000285000212000056000017000000000000REP       Governor                                                Greg Abbott                           4-Bald Prairie                                         01 
01060010005000679000400000237000042000000000000REP       Governor                                                Greg Abbott                           5-Bremond                                              01 
01060010006000725000458000234000033000000000000REP       Governor                                                Greg Abbott                           6-Franklin                                             01 
01060010007000026000007000017000002000000000000REP       Governor                                                Greg Abbott                           7-Mumford                                              01 
01060010008000165000032000112000021000000000000REP       Governor                                                Greg Abbott                           8-Seale                                                01 
01060010009000496000228000234000034000000000000REP       Governor                                                Greg Abbott                           11-Benchley                                            01 
01060010010000124000094000024000006000000000000REP       Governor                                                Greg Abbott                           13-Elliott                                             01 
01060010011000085000042000040000003000000000000REP       Governor                                                Greg Abbott                           16-Easterly                                            01 
01060010012000049000026000020000003000000000000REP       Governor                                                Greg Abbott                           18-Ridge                                               01 
01060010013000319000212000084000023000000000000REP       Governor                                                Greg Abbott                           19-New Baden                                           01 
01060010014000106000064000036000006000000000000REP       Governor                                                Greg Abbott                           22-Teal Center                                         01 
01060010015000165000096000063000006000000000000REP       Governor                                                Greg Abbott                           23-Christian Faith Ctr.                                01 
01060020001000309000157000109000043000000000000DEM       Governor                                                Lupe Valdez                           1-Calvert                                              01 
01060020002000253000118000113000022000000000000DEM       Governor                                                Lupe Valdez                           2-Hearne                                               01 
01060020003000037000021000013000003000000000000DEM       Governor                                                Lupe Valdez                           3-Wheelock                                             01 
01060020004000024000015000002000007000000000000DEM       Governor                                                Lupe Valdez                           4-Bald Prairie                                         01 
01060020005000185000092000070000023000000000000DEM       Governor                                                Lupe Valdez                           5-Bremond                                              01 
01060020006000143000069000065000009000000000000DEM       Governor                                                Lupe Valdez                           6-Franklin                                             01 
01060020007000017000001000014000002000000000000DEM       Governor                                                Lupe Valdez                           7-Mumford                                              01 
01060020008000016000000000015000001000000000000DEM       Governor                                                Lupe Valdez                           8-Seale                                                01 
01060020009000127000052000056000019000000000000DEM       Governor                                                Lupe Valdez                           11-Benchley                                            01 
01060020010000011000003000007000001000000000000DEM       Governor                                                Lupe Valdez                           13-Elliott                                             01 
01060020011000011000005000003000003000000000000DEM       Governor                                                Lupe Valdez                           16-Easterly                                            01 
01060020012000004000001000003000000000000000000DEM       Governor                                                Lupe Valdez                           18-Ridge                                               01 
01060020013000032000021000007000004000000000000DEM       Governor                                                Lupe Valdez                           19-New Baden                                           01 
01060020014000434000205000173000056000000000000DEM       Governor                                                Lupe Valdez                           22-Teal Center                                         01 
01060020015000150000058000072000020000000000000DEM       Governor                                                Lupe Valdez                           23-Christian Faith Ctr.                                01 
01060030001000008000002000005000001000000000000LIB       Governor                                                Mark Jay Tippetts                     1-Calvert                                              01 
01060030002000011000006000005000000000000000000LIB       Governor                                                Mark Jay Tippetts                     2-Hearne                                               01 
01060030003000001000000000001000000000000000000LIB       Governor                                                Mark Jay Tippetts                     3-Wheelock                                             01 
01060030004000001000001000000000000000000000000LIB       Governor                                                Mark Jay Tippetts                     4-Bald Prairie                                         01 
01060030005000002000001000001000000000000000000LIB       Governor                                                Mark Jay Tippetts                     5-Bremond                                              01 
01060030006000007000006000001000000000000000000LIB       Governor                                                Mark Jay Tippetts                     6-Franklin                                             01 
01060030007000002000000000002000000000000000000LIB       Governor                                                Mark Jay Tippetts                     7-Mumford                                              01 
01060030008000000000000000000000000000000000000LIB       Governor                                                Mark Jay Tippetts                     8-Seale                                                01 
01060030009000009000003000006000000000000000000LIB       Governor                                                Mark Jay Tippetts                     11-Benchley                                            01 
01060030010000001000001000000000000000000000000LIB       Governor                                                Mark Jay Tippetts                     13-Elliott                                             01 
01060030011000001000000000001000000000000000000LIB       Governor                                                Mark Jay Tippetts                     16-Easterly                                            01 
01060030012000000000000000000000000000000000000LIB       Governor                                                Mark Jay Tippetts                     18-Ridge                                               01 
01060030013000002000001000001000000000000000000LIB       Governor                                                Mark Jay Tippetts                     19-New Baden                                           01 
01060030014000005000002000002000001000000000000LIB       Governor                                                Mark Jay Tippetts                     22-Teal Center                                         01 
01060030015000002000001000000000001000000000000LIB       Governor                                                Mark Jay Tippetts                     23-Christian Faith Ctr.                                01 
01060040001000001000000000001000000000000000000          Governor                                                OVER VOTES                            1-Calvert                                              01 
01060040002000000000000000000000000000000000000          Governor                                                OVER VOTES                            2-Hearne                                               01 
01060040003000000000000000000000000000000000000          Governor                                                OVER VOTES                            3-Wheelock                                             01 
01060040004000000000000000000000000000000000000          Governor                                                OVER VOTES                            4-Bald Prairie                                         01 
01060040005000000000000000000000000000000000000          Governor                                                OVER VOTES                            5-Bremond                                              01 
01060040006000000000000000000000000000000000000          Governor                                                OVER VOTES                            6-Franklin                                             01 
01060040007000000000000000000000000000000000000          Governor                                                OVER VOTES                            7-Mumford                                              01 
01060040008000000000000000000000000000000000000          Governor                                                OVER VOTES                            8-Seale                                                01 
01060040009000000000000000000000000000000000000          Governor                                                OVER VOTES                            11-Benchley                                            01 
01060040010000000000000000000000000000000000000          Governor                                                OVER VOTES                            13-Elliott                                             01 
01060040011000000000000000000000000000000000000          Governor                                                OVER VOTES                            16-Easterly                                            01 
01060040012000000000000000000000000000000000000          Governor                                                OVER VOTES                            18-Ridge                                               01 
01060040013000000000000000000000000000000000000          Governor                                                OVER VOTES                            19-New Baden                                           01 
01060040014000000000000000000000000000000000000          Governor                                                OVER VOTES                            22-Teal Center                                         01 
01060040015000000000000000000000000000000000000          Governor                                                OVER VOTES                            23-Christian Faith Ctr.                                01 
01060050001000017000008000007000002000000000000          Governor                                                UNDER VOTES                           1-Calvert                                              01 
01060050002000004000001000003000000000000000000          Governor                                                UNDER VOTES                           2-Hearne                                               01 
01060050003000002000000000002000000000000000000          Governor                                                UNDER VOTES                           3-Wheelock                                             01 
01060050004000003000002000001000000000000000000          Governor                                                UNDER VOTES                           4-Bald Prairie                                         01 
01060050005000015000008000006000001000000000000          Governor                                                UNDER VOTES                           5-Bremond                                              01 
01060050006000012000006000006000000000000000000          Governor                                                UNDER VOTES                           6-Franklin                                             01 
01060050007000000000000000000000000000000000000          Governor                                                UNDER VOTES                           7-Mumford                                              01 
01060050008000003000001000002000000000000000000          Governor                                                UNDER VOTES                           8-Seale                                                01 
01060050009000007000001000005000001000000000000          Governor                                                UNDER VOTES                           11-Benchley                                            01 
01060050010000001000001000000000000000000000000          Governor                                                UNDER VOTES                           13-Elliott                                             01 
01060050011000002000000000002000000000000000000          Governor                                                UNDER VOTES                           16-Easterly                                            01 
01060050012000003000000000003000000000000000000          Governor                                                UNDER VOTES                           18-Ridge                                               01 
01060050013000002000002000000000000000000000000          Governor                                                UNDER VOTES                           19-New Baden                                           01 
01060050014000010000007000003000000000000000000          Governor                                                UNDER VOTES                           22-Teal Center                                         01 
01060050015000002000001000001000000000000000000          Governor                                                UNDER VOTES                           23-Christian Faith Ctr.                                01 
01070010001000371000249000104000018000000000000REP       Lieutenant Governor                                     Dan Patrick                           1-Calvert                                              01 
01070010002000449000284000127000038000000000000REP       Lieutenant Governor                                     Dan Patrick                           2-Hearne                                               01 
01070010003000306000151000132000023000000000000REP       Lieutenant Governor                                     Dan Patrick                           3-Wheelock                                             01 
01070010004000267000198000053000016000000000000REP       Lieutenant Governor                                     Dan Patrick                           4-Bald Prairie                                         01 
01070010005000613000362000210000041000000000000REP       Lieutenant Governor                                     Dan Patrick                           5-Bremond                                              01 
01070010006000669000427000209000033000000000000REP       Lieutenant Governor                                     Dan Patrick                           6-Franklin                                             01 
01070010007000020000007000011000002000000000000REP       Lieutenant Governor                                     Dan Patrick                           7-Mumford                                              01 
01070010008000158000033000104000021000000000000REP       Lieutenant Governor                                     Dan Patrick                           8-Seale                                                01 
01070010009000480000220000226000034000000000000REP       Lieutenant Governor                                     Dan Patrick                           11-Benchley                                            01 
01070010010000118000091000022000005000000000000REP       Lieutenant Governor                                     Dan Patrick                           13-Elliott                                             01 
01070010011000076000041000032000003000000000000REP       Lieutenant Governor                                     Dan Patrick                           16-Easterly                                            01 
01070010012000047000026000018000003000000000000REP       Lieutenant Governor                                     Dan Patrick                           18-Ridge                                               01 
01070010013000305000202000080000023000000000000REP       Lieutenant Governor                                     Dan Patrick                           19-New Baden                                           01 
01070010014000098000058000035000005000000000000REP       Lieutenant Governor                                     Dan Patrick                           22-Teal Center                                         01 
01070010015000148000086000056000006000000000000REP       Lieutenant Governor                                     Dan Patrick                           23-Christian Faith Ctr.                                01 
01070020001000340000168000125000047000000000000DEM       Lieutenant Governor                                     Mike Collier                          1-Calvert                                              01 
01070020002000286000129000134000023000000000000DEM       Lieutenant Governor                                     Mike Collier                          2-Hearne                                               01 
01070020003000053000027000023000003000000000000DEM       Lieutenant Governor                                     Mike Collier                          3-Wheelock                                             01 
01070020004000039000027000004000008000000000000DEM       Lieutenant Governor                                     Mike Collier                          4-Bald Prairie                                         01 
01070020005000227000116000088000023000000000000DEM       Lieutenant Governor                                     Mike Collier                          5-Bremond                                              01 
01070020006000181000093000079000009000000000000DEM       Lieutenant Governor                                     Mike Collier                          6-Franklin                                             01 
01070020007000024000001000021000002000000000000DEM       Lieutenant Governor                                     Mike Collier                          7-Mumford                                              01 
01070020008000024000000000023000001000000000000DEM       Lieutenant Governor                                     Mike Collier                          8-Seale                                                01 
01070020009000143000060000064000019000000000000DEM       Lieutenant Governor                                     Mike Collier                          11-Benchley                                            01 
01070020010000014000004000009000001000000000000DEM       Lieutenant Governor                                     Mike Collier                          13-Elliott                                             01 
01070020011000016000006000007000003000000000000DEM       Lieutenant Governor                                     Mike Collier                          16-Easterly                                            01 
01070020012000005000001000004000000000000000000DEM       Lieutenant Governor                                     Mike Collier                          18-Ridge                                               01 
01070020013000044000029000011000004000000000000DEM       Lieutenant Governor                                     Mike Collier                          19-New Baden                                           01 
01070020014000445000213000174000058000000000000DEM       Lieutenant Governor                                     Mike Collier                          22-Teal Center                                         01 
01070020015000162000067000074000021000000000000DEM       Lieutenant Governor                                     Mike Collier                          23-Christian Faith Ctr.                                01 
01070030001000011000006000005000000000000000000LIB       Lieutenant Governor                                     Kerry Douglas McKennon                1-Calvert                                              01 
01070030002000014000011000003000000000000000000LIB       Lieutenant Governor                                     Kerry Douglas McKennon                2-Hearne                                               01 
01070030003000006000004000002000000000000000000LIB       Lieutenant Governor                                     Kerry Douglas McKennon                3-Wheelock                                             01 
01070030004000004000003000001000000000000000000LIB       Lieutenant Governor                                     Kerry Douglas McKennon                4-Bald Prairie                                         01 
01070030005000013000009000004000000000000000000LIB       Lieutenant Governor                                     Kerry Douglas McKennon                5-Bremond                                              01 
01070030006000017000010000007000000000000000000LIB       Lieutenant Governor                                     Kerry Douglas McKennon                6-Franklin                                             01 
01070030007000001000000000001000000000000000000LIB       Lieutenant Governor                                     Kerry Douglas McKennon                7-Mumford                                              01 
01070030008000001000000000001000000000000000000LIB       Lieutenant Governor                                     Kerry Douglas McKennon                8-Seale                                                01 
01070030009000010000003000007000000000000000000LIB       Lieutenant Governor                                     Kerry Douglas McKennon                11-Benchley                                            01 
01070030010000002000002000000000000000000000000LIB       Lieutenant Governor                                     Kerry Douglas McKennon                13-Elliott                                             01 
01070030011000002000000000002000000000000000000LIB       Lieutenant Governor                                     Kerry Douglas McKennon                16-Easterly                                            01 
01070030012000000000000000000000000000000000000LIB       Lieutenant Governor                                     Kerry Douglas McKennon                18-Ridge                                               01 
01070030013000004000003000001000000000000000000LIB       Lieutenant Governor                                     Kerry Douglas McKennon                19-New Baden                                           01 
01070030014000004000001000003000000000000000000LIB       Lieutenant Governor                                     Kerry Douglas McKennon                22-Teal Center                                         01 
01070030015000005000000000005000000000000000000LIB       Lieutenant Governor                                     Kerry Douglas McKennon                23-Christian Faith Ctr.                                01 
01070040001000000000000000000000000000000000000          Lieutenant Governor                                     OVER VOTES                            1-Calvert                                              01 
01070040002000000000000000000000000000000000000          Lieutenant Governor                                     OVER VOTES                            2-Hearne                                               01 
01070040003000000000000000000000000000000000000          Lieutenant Governor                                     OVER VOTES                            3-Wheelock                                             01 
01070040004000000000000000000000000000000000000          Lieutenant Governor                                     OVER VOTES                            4-Bald Prairie                                         01 
01070040005000000000000000000000000000000000000          Lieutenant Governor                                     OVER VOTES                            5-Bremond                                              01 
01070040006000000000000000000000000000000000000          Lieutenant Governor                                     OVER VOTES                            6-Franklin                                             01 
01070040007000000000000000000000000000000000000          Lieutenant Governor                                     OVER VOTES                            7-Mumford                                              01 
01070040008000000000000000000000000000000000000          Lieutenant Governor                                     OVER VOTES                            8-Seale                                                01 
01070040009000000000000000000000000000000000000          Lieutenant Governor                                     OVER VOTES                            11-Benchley                                            01 
01070040010000000000000000000000000000000000000          Lieutenant Governor                                     OVER VOTES                            13-Elliott                                             01 
01070040011000000000000000000000000000000000000          Lieutenant Governor                                     OVER VOTES                            16-Easterly                                            01 
01070040012000000000000000000000000000000000000          Lieutenant Governor                                     OVER VOTES                            18-Ridge                                               01 
01070040013000000000000000000000000000000000000          Lieutenant Governor                                     OVER VOTES                            19-New Baden                                           01 
01070040014000000000000000000000000000000000000          Lieutenant Governor                                     OVER VOTES                            22-Teal Center                                         01 
01070040015000000000000000000000000000000000000          Lieutenant Governor                                     OVER VOTES                            23-Christian Faith Ctr.                                01 
01070050001000020000013000006000001000000000000          Lieutenant Governor                                     UNDER VOTES                           1-Calvert                                              01 
01070050002000009000005000004000000000000000000          Lieutenant Governor                                     UNDER VOTES                           2-Hearne                                               01 
01070050003000002000001000001000000000000000000          Lieutenant Governor                                     UNDER VOTES                           3-Wheelock                                             01 
01070050004000003000002000001000000000000000000          Lieutenant Governor                                     UNDER VOTES                           4-Bald Prairie                                         01 
01070050005000028000014000012000002000000000000          Lieutenant Governor                                     UNDER VOTES                           5-Bremond                                              01 
01070050006000020000009000011000000000000000000          Lieutenant Governor                                     UNDER VOTES                           6-Franklin                                             01 
01070050007000000000000000000000000000000000000          Lieutenant Governor                                     UNDER VOTES                           7-Mumford                                              01 
01070050008000001000000000001000000000000000000          Lieutenant Governor                                     UNDER VOTES                           8-Seale                                                01 
01070050009000006000001000004000001000000000000          Lieutenant Governor                                     UNDER VOTES                           11-Benchley                                            01 
01070050010000003000002000000000001000000000000          Lieutenant Governor                                     UNDER VOTES                           13-Elliott                                             01 
01070050011000005000000000005000000000000000000          Lieutenant Governor                                     UNDER VOTES                           16-Easterly                                            01 
01070050012000004000000000004000000000000000000          Lieutenant Governor                                     UNDER VOTES                           18-Ridge                                               01 
01070050013000002000002000000000000000000000000          Lieutenant Governor                                     UNDER VOTES                           19-New Baden                                           01 
01070050014000008000006000002000000000000000000          Lieutenant Governor                                     UNDER VOTES                           22-Teal Center                                         01 
01070050015000004000003000001000000000000000000          Lieutenant Governor                                     UNDER VOTES                           23-Christian Faith Ctr.                                01 
01080010001000366000242000106000018000000000000REP       Attorney General                                        Ken Paxton                            1-Calvert                                              01 
01080010002000443000278000130000035000000000000REP       Attorney General                                        Ken Paxton                            2-Hearne                                               01 
01080010003000313000155000135000023000000000000REP       Attorney General                                        Ken Paxton                            3-Wheelock                                             01 
01080010004000264000198000050000016000000000000REP       Attorney General                                        Ken Paxton                            4-Bald Prairie                                         01 
01080010005000613000359000214000040000000000000REP       Attorney General                                        Ken Paxton                            5-Bremond                                              01 
01080010006000679000428000219000032000000000000REP       Attorney General                                        Ken Paxton                            6-Franklin                                             01 
01080010007000021000007000012000002000000000000REP       Attorney General                                        Ken Paxton                            7-Mumford                                              01 
01080010008000162000032000109000021000000000000REP       Attorney General                                        Ken Paxton                            8-Seale                                                01 
01080010009000470000213000224000033000000000000REP       Attorney General                                        Ken Paxton                            11-Benchley                                            01 
01080010010000117000089000022000006000000000000REP       Attorney General                                        Ken Paxton                            13-Elliott                                             01 
01080010011000080000042000035000003000000000000REP       Attorney General                                        Ken Paxton                            16-Easterly                                            01 
01080010012000045000024000018000003000000000000REP       Attorney General                                        Ken Paxton                            18-Ridge                                               01 
01080010013000299000199000078000022000000000000REP       Attorney General                                        Ken Paxton                            19-New Baden                                           01 
01080010014000092000054000033000005000000000000REP       Attorney General                                        Ken Paxton                            22-Teal Center                                         01 
01080010015000150000086000056000008000000000000REP       Attorney General                                        Ken Paxton                            23-Christian Faith Ctr.                                01 
01080020001000337000171000119000047000000000000DEM       Attorney General                                        Justin Nelson                         1-Calvert                                              01 
01080020002000284000132000127000025000000000000DEM       Attorney General                                        Justin Nelson                         2-Hearne                                               01 
01080020003000045000024000018000003000000000000DEM       Attorney General                                        Justin Nelson                         3-Wheelock                                             01 
01080020004000038000025000005000008000000000000DEM       Attorney General                                        Justin Nelson                         4-Bald Prairie                                         01 
01080020005000219000113000084000022000000000000DEM       Attorney General                                        Justin Nelson                         5-Bremond                                              01 
01080020006000173000093000070000010000000000000DEM       Attorney General                                        Justin Nelson                         6-Franklin                                             01 
01080020007000024000001000021000002000000000000DEM       Attorney General                                        Justin Nelson                         7-Mumford                                              01 
01080020008000020000001000018000001000000000000DEM       Attorney General                                        Justin Nelson                         8-Seale                                                01 
01080020009000139000060000060000019000000000000DEM       Attorney General                                        Justin Nelson                         11-Benchley                                            01 
01080020010000015000005000009000001000000000000DEM       Attorney General                                        Justin Nelson                         13-Elliott                                             01 
01080020011000014000005000006000003000000000000DEM       Attorney General                                        Justin Nelson                         16-Easterly                                            01 
01080020012000006000002000004000000000000000000DEM       Attorney General                                        Justin Nelson                         18-Ridge                                               01 
01080020013000045000029000012000004000000000000DEM       Attorney General                                        Justin Nelson                         19-New Baden                                           01 
01080020014000449000214000177000058000000000000DEM       Attorney General                                        Justin Nelson                         22-Teal Center                                         01 
01080020015000161000065000077000019000000000000DEM       Attorney General                                        Justin Nelson                         23-Christian Faith Ctr.                                01 
01080030001000013000007000006000000000000000000LIB       Attorney General                                        Michael Ray Harris                    1-Calvert                                              01 
01080030002000018000012000005000001000000000000LIB       Attorney General                                        Michael Ray Harris                    2-Hearne                                               01 
01080030003000004000001000003000000000000000000LIB       Attorney General                                        Michael Ray Harris                    3-Wheelock                                             01 
01080030004000008000004000004000000000000000000LIB       Attorney General                                        Michael Ray Harris                    4-Bald Prairie                                         01 
01080030005000013000008000004000001000000000000LIB       Attorney General                                        Michael Ray Harris                    5-Bremond                                              01 
01080030006000010000005000005000000000000000000LIB       Attorney General                                        Michael Ray Harris                    6-Franklin                                             01 
01080030007000000000000000000000000000000000000LIB       Attorney General                                        Michael Ray Harris                    7-Mumford                                              01 
01080030008000001000000000001000000000000000000LIB       Attorney General                                        Michael Ray Harris                    8-Seale                                                01 
01080030009000019000008000011000000000000000000LIB       Attorney General                                        Michael Ray Harris                    11-Benchley                                            01 
01080030010000001000001000000000000000000000000LIB       Attorney General                                        Michael Ray Harris                    13-Elliott                                             01 
01080030011000001000000000001000000000000000000LIB       Attorney General                                        Michael Ray Harris                    16-Easterly                                            01 
01080030012000001000001000000000000000000000000LIB       Attorney General                                        Michael Ray Harris                    18-Ridge                                               01 
01080030013000005000004000001000000000000000000LIB       Attorney General                                        Michael Ray Harris                    19-New Baden                                           01 
01080030014000004000002000002000000000000000000LIB       Attorney General                                        Michael Ray Harris                    22-Teal Center                                         01 
01080030015000004000003000001000000000000000000LIB       Attorney General                                        Michael Ray Harris                    23-Christian Faith Ctr.                                01 
01080040001000000000000000000000000000000000000          Attorney General                                        OVER VOTES                            1-Calvert                                              01 
01080040002000000000000000000000000000000000000          Attorney General                                        OVER VOTES                            2-Hearne                                               01 
01080040003000000000000000000000000000000000000          Attorney General                                        OVER VOTES                            3-Wheelock                                             01 
01080040004000001000001000000000000000000000000          Attorney General                                        OVER VOTES                            4-Bald Prairie                                         01 
01080040005000000000000000000000000000000000000          Attorney General                                        OVER VOTES                            5-Bremond                                              01 
01080040006000000000000000000000000000000000000          Attorney General                                        OVER VOTES                            6-Franklin                                             01 
01080040007000000000000000000000000000000000000          Attorney General                                        OVER VOTES                            7-Mumford                                              01 
01080040008000000000000000000000000000000000000          Attorney General                                        OVER VOTES                            8-Seale                                                01 
01080040009000000000000000000000000000000000000          Attorney General                                        OVER VOTES                            11-Benchley                                            01 
01080040010000000000000000000000000000000000000          Attorney General                                        OVER VOTES                            13-Elliott                                             01 
01080040011000000000000000000000000000000000000          Attorney General                                        OVER VOTES                            16-Easterly                                            01 
01080040012000000000000000000000000000000000000          Attorney General                                        OVER VOTES                            18-Ridge                                               01 
01080040013000000000000000000000000000000000000          Attorney General                                        OVER VOTES                            19-New Baden                                           01 
01080040014000000000000000000000000000000000000          Attorney General                                        OVER VOTES                            22-Teal Center                                         01 
01080040015000000000000000000000000000000000000          Attorney General                                        OVER VOTES                            23-Christian Faith Ctr.                                01 
01080050001000026000016000009000001000000000000          Attorney General                                        UNDER VOTES                           1-Calvert                                              01 
01080050002000013000007000006000000000000000000          Attorney General                                        UNDER VOTES                           2-Hearne                                               01 
01080050003000005000003000002000000000000000000          Attorney General                                        UNDER VOTES                           3-Wheelock                                             01 
01080050004000002000002000000000000000000000000          Attorney General                                        UNDER VOTES                           4-Bald Prairie                                         01 
01080050005000036000021000012000003000000000000          Attorney General                                        UNDER VOTES                           5-Bremond                                              01 
01080050006000025000013000012000000000000000000          Attorney General                                        UNDER VOTES                           6-Franklin                                             01 
01080050007000000000000000000000000000000000000          Attorney General                                        UNDER VOTES                           7-Mumford                                              01 
01080050008000001000000000001000000000000000000          Attorney General                                        UNDER VOTES                           8-Seale                                                01 
