00010010001000000000000000000000000000000000000000000000000000000000000000000000000000000000000000000          REGISTERED VOTERS - TOTAL                               REGISTERED VOTERS - TOTAL             PRECINCT 1                                             00 
00010010002000000000000000000000000000000000000000000000000000000000000000000000000000000000000000000          REGISTERED VOTERS - TOTAL                               REGISTERED VOTERS - TOTAL             PRECINCT 1A                                            00 
00010010003000000000000000000000000000000000000000000000000000000000000000000000000000000000000000000          REGISTERED VOTERS - TOTAL                               REGISTERED VOTERS - TOTAL             PRECINCT 1B                                            00 
00010010004000000000000000000000000000000000000000000000000000000000000000000000000000000000000000000          REGISTERED VOTERS - TOTAL                               REGISTERED VOTERS - TOTAL             PRECINCT 1C                                            00 
00010010005000000000000000000000000000000000000000000000000000000000000000000000000000000000000000000          REGISTERED VOTERS - TOTAL                               REGISTERED VOTERS - TOTAL             PRECINCT 2                                             00 
00010010006000000000000000000000000000000000000000000000000000000000000000000000000000000000000000000          REGISTERED VOTERS - TOTAL                               REGISTERED VOTERS - TOTAL             PRECINCT 2A                                            00 
00010010007000000000000000000000000000000000000000000000000000000000000000000000000000000000000000000          REGISTERED VOTERS - TOTAL                               REGISTERED VOTERS - TOTAL             PRECINCT 2B                                            00 
00010010008000000000000000000000000000000000000000000000000000000000000000000000000000000000000000000          REGISTERED VOTERS - TOTAL                               REGISTERED VOTERS - TOTAL             PRECINCT 2C                                            00 
00010010009000000000000000000000000000000000000000000000000000000000000000000000000000000000000000000          REGISTERED VOTERS - TOTAL                               REGISTERED VOTERS - TOTAL             PRECINCT 3                                             00 
00010010010000000000000000000000000000000000000000000000000000000000000000000000000000000000000000000          REGISTERED VOTERS - TOTAL                               REGISTERED VOTERS - TOTAL             PRECINCT 3A                                            00 
00010010011000000000000000000000000000000000000000000000000000000000000000000000000000000000000000000          REGISTERED VOTERS - TOTAL                               REGISTERED VOTERS - TOTAL             PRECINCT 3B                                            00 
00010010012000000000000000000000000000000000000000000000000000000000000000000000000000000000000000000          REGISTERED VOTERS - TOTAL                               REGISTERED VOTERS - TOTAL             PRECINCT 3C                                            00 
00010010013000000000000000000000000000000000000000000000000000000000000000000000000000000000000000000          REGISTERED VOTERS - TOTAL                               REGISTERED VOTERS - TOTAL             PRECINCT 3D                                            00 
00010010014000000000000000000000000000000000000000000000000000000000000000000000000000000000000000000          REGISTERED VOTERS - TOTAL                               REGISTERED VOTERS - TOTAL             PRECINCT 4                                             00 
00010010015000000000000000000000000000000000000000000000000000000000000000000000000000000000000000000          REGISTERED VOTERS - TOTAL                               REGISTERED VOTERS - TOTAL             PRECINCT 4A                                            00 
00010010016000000000000000000000000000000000000000000000000000000000000000000000000000000000000000000          REGISTERED VOTERS - TOTAL                               REGISTERED VOTERS - TOTAL             PRECINCT 4B                                            00 
00010010017000000000000000000000000000000000000000000000000000000000000000000000000000000000000000000          REGISTERED VOTERS - TOTAL                               REGISTERED VOTERS - TOTAL             PRECINCT 4C                                            00 
00020010001003341002515000649000177000000000000000000000000000000000000000000000000000000000000000000          BALLOTS CAST - TOTAL                                    BALLOTS CAST - TOTAL                  PRECINCT 1                                             00 
00020010002002144001503000521000120000000000000000000000000000000000000000000000000000000000000000000          BALLOTS CAST - TOTAL                                    BALLOTS CAST - TOTAL                  PRECINCT 1A                                            00 
00020010003003674002693000811000170000000000000000000000000000000000000000000000000000000000000000000          BALLOTS CAST - TOTAL                                    BALLOTS CAST - TOTAL                  PRECINCT 1B                                            00 
00020010004002123001469000549000105000000000000000000000000000000000000000000000000000000000000000000          BALLOTS CAST - TOTAL                                    BALLOTS CAST - TOTAL                  PRECINCT 1C                                            00 
00020010005002674002029000430000215000000000000000000000000000000000000000000000000000000000000000000          BALLOTS CAST - TOTAL                                    BALLOTS CAST - TOTAL                  PRECINCT 2                                             00 
00020010006002742001983000572000187000000000000000000000000000000000000000000000000000000000000000000          BALLOTS CAST - TOTAL                                    BALLOTS CAST - TOTAL                  PRECINCT 2A                                            00 
00020010007001182000839000278000065000000000000000000000000000000000000000000000000000000000000000000          BALLOTS CAST - TOTAL                                    BALLOTS CAST - TOTAL                  PRECINCT 2B                                            00 
00020010008003465002662000675000128000000000000000000000000000000000000000000000000000000000000000000          BALLOTS CAST - TOTAL                                    BALLOTS CAST - TOTAL                  PRECINCT 2C                                            00 
00020010009000280000179000066000035000000000000000000000000000000000000000000000000000000000000000000          BALLOTS CAST - TOTAL                                    BALLOTS CAST - TOTAL                  PRECINCT 3                                             00 
00020010010000749000443000262000044000000000000000000000000000000000000000000000000000000000000000000          BALLOTS CAST - TOTAL                                    BALLOTS CAST - TOTAL                  PRECINCT 3A                                            00 
00020010011001717001132000527000058000000000000000000000000000000000000000000000000000000000000000000          BALLOTS CAST - TOTAL                                    BALLOTS CAST - TOTAL                  PRECINCT 3B                                            00 
00020010012001857001422000347000088000000000000000000000000000000000000000000000000000000000000000000          BALLOTS CAST - TOTAL                                    BALLOTS CAST - TOTAL                  PRECINCT 3C                                            00 
00020010013004070003017000864000189000000000000000000000000000000000000000000000000000000000000000000          BALLOTS CAST - TOTAL                                    BALLOTS CAST - TOTAL                  PRECINCT 3D                                            00 
00020010014001546001140000300000106000000000000000000000000000000000000000000000000000000000000000000          BALLOTS CAST - TOTAL                                    BALLOTS CAST - TOTAL                  PRECINCT 4                                             00 
00020010015004548003308001032000208000000000000000000000000000000000000000000000000000000000000000000          BALLOTS CAST - TOTAL                                    BALLOTS CAST - TOTAL                  PRECINCT 4A                                            00 
00020010016000814000553000218000043000000000000000000000000000000000000000000000000000000000000000000          BALLOTS CAST - TOTAL                                    BALLOTS CAST - TOTAL                  PRECINCT 4B                                            00 
00020010017001790001185000535000070000000000000000000000000000000000000000000000000000000000000000000          BALLOTS CAST - TOTAL                                    BALLOTS CAST - TOTAL                  PRECINCT 4C                                            00 
00030010001000000000000000000000000000000000000000000000000000000000000000000000000000000000000000000          BALLOTS CAST - BLANK                                    BALLOTS CAST - BLANK                  PRECINCT 1                                             00 
00030010002000001000000000000000001000000000000000000000000000000000000000000000000000000000000000000          BALLOTS CAST - BLANK                                    BALLOTS CAST - BLANK                  PRECINCT 1A                                            00 
00030010003000000000000000000000000000000000000000000000000000000000000000000000000000000000000000000          BALLOTS CAST - BLANK                                    BALLOTS CAST - BLANK                  PRECINCT 1B                                            00 
00030010004000000000000000000000000000000000000000000000000000000000000000000000000000000000000000000          BALLOTS CAST - BLANK                                    BALLOTS CAST - BLANK                  PRECINCT 1C                                            00 
00030010005000001000000000000000001000000000000000000000000000000000000000000000000000000000000000000          BALLOTS CAST - BLANK                                    BALLOTS CAST - BLANK                  PRECINCT 2                                             00 
00030010006000000000000000000000000000000000000000000000000000000000000000000000000000000000000000000          BALLOTS CAST - BLANK                                    BALLOTS CAST - BLANK                  PRECINCT 2A                                            00 
00030010007000000000000000000000000000000000000000000000000000000000000000000000000000000000000000000          BALLOTS CAST - BLANK                                    BALLOTS CAST - BLANK                  PRECINCT 2B                                            00 
00030010008000000000000000000000000000000000000000000000000000000000000000000000000000000000000000000          BALLOTS CAST - BLANK                                    BALLOTS CAST - BLANK                  PRECINCT 2C                                            00 
00030010009000000000000000000000000000000000000000000000000000000000000000000000000000000000000000000          BALLOTS CAST - BLANK                                    BALLOTS CAST - BLANK                  PRECINCT 3                                             00 
00030010010000000000000000000000000000000000000000000000000000000000000000000000000000000000000000000          BALLOTS CAST - BLANK                                    BALLOTS CAST - BLANK                  PRECINCT 3A                                            00 
00030010011000000000000000000000000000000000000000000000000000000000000000000000000000000000000000000          BALLOTS CAST - BLANK                                    BALLOTS CAST - BLANK                  PRECINCT 3B                                            00 
00030010012000001000000000000000001000000000000000000000000000000000000000000000000000000000000000000          BALLOTS CAST - BLANK                                    BALLOTS CAST - BLANK                  PRECINCT 3C                                            00 
00030010013000000000000000000000000000000000000000000000000000000000000000000000000000000000000000000          BALLOTS CAST - BLANK                                    BALLOTS CAST - BLANK                  PRECINCT 3D                                            00 
00030010014000001000000000000000001000000000000000000000000000000000000000000000000000000000000000000          BALLOTS CAST - BLANK                                    BALLOTS CAST - BLANK                  PRECINCT 4                                             00 
00030010015000000000000000000000000000000000000000000000000000000000000000000000000000000000000000000          BALLOTS CAST - BLANK                                    BALLOTS CAST - BLANK                  PRECINCT 4A                                            00 
00030010016000000000000000000000000000000000000000000000000000000000000000000000000000000000000000000          BALLOTS CAST - BLANK                                    BALLOTS CAST - BLANK                  PRECINCT 4B                                            00 
00030010017000000000000000000000000000000000000000000000000000000000000000000000000000000000000000000          BALLOTS CAST - BLANK                                    BALLOTS CAST - BLANK                  PRECINCT 4C                                            00 
03010010001001747001356000316000075000000000000000000000000000000000000000000000000000000000000000000REP       Straight Party                                          Republican Party                      PRECINCT 1                                             01 
03010010002000967000716000209000042000000000000000000000000000000000000000000000000000000000000000000REP       Straight Party                                          Republican Party                      PRECINCT 1A                                            01 
03010010003002105001575000455000075000000000000000000000000000000000000000000000000000000000000000000REP       Straight Party                                          Republican Party                      PRECINCT 1B                                            01 
03010010004001194000837000316000041000000000000000000000000000000000000000000000000000000000000000000REP       Straight Party                                          Republican Party                      PRECINCT 1C                                            01 
03010010005001485001180000209000096000000000000000000000000000000000000000000000000000000000000000000REP       Straight Party                                          Republican Party                      PRECINCT 2                                             01 
03010010006001403001055000264000084000000000000000000000000000000000000000000000000000000000000000000REP       Straight Party                                          Republican Party                      PRECINCT 2A                                            01 
03010010007000591000436000127000028000000000000000000000000000000000000000000000000000000000000000000REP       Straight Party                                          Republican Party                      PRECINCT 2B                                            01 
03010010008002052001598000404000050000000000000000000000000000000000000000000000000000000000000000000REP       Straight Party                                          Republican Party                      PRECINCT 2C                                            01 
03010010009000106000076000019000011000000000000000000000000000000000000000000000000000000000000000000REP       Straight Party                                          Republican Party                      PRECINCT 3                                             01 
03010010010000260000155000089000016000000000000000000000000000000000000000000000000000000000000000000REP       Straight Party                                          Republican Party                      PRECINCT 3A                                            01 
03010010011000765000532000214000019000000000000000000000000000000000000000000000000000000000000000000REP       Straight Party                                          Republican Party                      PRECINCT 3B                                            01 
03010010012001141000893000201000047000000000000000000000000000000000000000000000000000000000000000000REP       Straight Party                                          Republican Party                      PRECINCT 3C                                            01 
03010010013002459001866000513000080000000000000000000000000000000000000000000000000000000000000000000REP       Straight Party                                          Republican Party                      PRECINCT 3D                                            01 
03010010014000933000731000159000043000000000000000000000000000000000000000000000000000000000000000000REP       Straight Party                                          Republican Party                      PRECINCT 4                                             01 
03010010015002305001692000533000080000000000000000000000000000000000000000000000000000000000000000000REP       Straight Party                                          Republican Party                      PRECINCT 4A                                            01 
03010010016000380000273000094000013000000000000000000000000000000000000000000000000000000000000000000REP       Straight Party                                          Republican Party                      PRECINCT 4B                                            01 
03010010017000982000653000307000022000000000000000000000000000000000000000000000000000000000000000000REP       Straight Party                                          Republican Party                      PRECINCT 4C                                            01 
03010020001000561000434000096000031000000000000000000000000000000000000000000000000000000000000000000DEM       Straight Party                                          Democratic Party                      PRECINCT 1                                             01 
03010020002000470000301000141000028000000000000000000000000000000000000000000000000000000000000000000DEM       Straight Party                                          Democratic Party                      PRECINCT 1A                                            01 
03010020003000542000394000126000022000000000000000000000000000000000000000000000000000000000000000000DEM       Straight Party                                          Democratic Party                      PRECINCT 1B                                            01 
03010020004000295000213000064000018000000000000000000000000000000000000000000000000000000000000000000DEM       Straight Party                                          Democratic Party                      PRECINCT 1C                                            01 
03010020005000428000309000092000027000000000000000000000000000000000000000000000000000000000000000000DEM       Straight Party                                          Democratic Party                      PRECINCT 2                                             01 
03010020006000561000411000108000042000000000000000000000000000000000000000000000000000000000000000000DEM       Straight Party                                          Democratic Party                      PRECINCT 2A                                            01 
03010020007000250000159000071000020000000000000000000000000000000000000000000000000000000000000000000DEM       Straight Party                                          Democratic Party                      PRECINCT 2B                                            01 
03010020008000405000312000072000021000000000000000000000000000000000000000000000000000000000000000000DEM       Straight Party                                          Democratic Party                      PRECINCT 2C                                            01 
03010020009000113000064000037000012000000000000000000000000000000000000000000000000000000000000000000DEM       Straight Party                                          Democratic Party                      PRECINCT 3                                             01 
03010020010000318000199000113000006000000000000000000000000000000000000000000000000000000000000000000DEM       Straight Party                                          Democratic Party                      PRECINCT 3A                                            01 
03010020011000523000343000162000018000000000000000000000000000000000000000000000000000000000000000000DEM       Straight Party                                          Democratic Party                      PRECINCT 3B                                            01 
03010020012000179000141000026000012000000000000000000000000000000000000000000000000000000000000000000DEM       Straight Party                                          Democratic Party                      PRECINCT 3C                                            01 
03010020013000572000423000127000022000000000000000000000000000000000000000000000000000000000000000000DEM       Straight Party                                          Democratic Party                      PRECINCT 3D                                            01 
03010020014000201000133000050000018000000000000000000000000000000000000000000000000000000000000000000DEM       Straight Party                                          Democratic Party                      PRECINCT 4                                             01 
03010020015001032000771000236000025000000000000000000000000000000000000000000000000000000000000000000DEM       Straight Party                                          Democratic Party                      PRECINCT 4A                                            01 
03010020016000158000102000050000006000000000000000000000000000000000000000000000000000000000000000000DEM       Straight Party                                          Democratic Party                      PRECINCT 4B                                            01 
03010020017000298000193000090000015000000000000000000000000000000000000000000000000000000000000000000DEM       Straight Party                                          Democratic Party                      PRECINCT 4C                                            01 
03010030001000017000010000006000001000000000000000000000000000000000000000000000000000000000000000000LIB       Straight Party                                          Libertarian Party                     PRECINCT 1                                             01 
03010030002000011000002000009000000000000000000000000000000000000000000000000000000000000000000000000LIB       Straight Party                                          Libertarian Party                     PRECINCT 1A                                            01 
03010030003000012000006000006000000000000000000000000000000000000000000000000000000000000000000000000LIB       Straight Party                                          Libertarian Party                     PRECINCT 1B                                            01 
03010030004000004000003000001000000000000000000000000000000000000000000000000000000000000000000000000LIB       Straight Party                                          Libertarian Party                     PRECINCT 1C                                            01 
03010030005000010000007000003000000000000000000000000000000000000000000000000000000000000000000000000LIB       Straight Party                                          Libertarian Party                     PRECINCT 2                                             01 
03010030006000011000006000005000000000000000000000000000000000000000000000000000000000000000000000000LIB       Straight Party                                          Libertarian Party                     PRECINCT 2A                                            01 
03010030007000004000001000003000000000000000000000000000000000000000000000000000000000000000000000000LIB       Straight Party                                          Libertarian Party                     PRECINCT 2B                                            01 
03010030008000013000007000006000000000000000000000000000000000000000000000000000000000000000000000000LIB       Straight Party                                          Libertarian Party                     PRECINCT 2C                                            01 
03010030009000001000001000000000000000000000000000000000000000000000000000000000000000000000000000000LIB       Straight Party                                          Libertarian Party                     PRECINCT 3                                             01 
03010030010000003000003000000000000000000000000000000000000000000000000000000000000000000000000000000LIB       Straight Party                                          Libertarian Party                     PRECINCT 3A                                            01 
03010030011000012000005000007000000000000000000000000000000000000000000000000000000000000000000000000LIB       Straight Party                                          Libertarian Party                     PRECINCT 3B                                            01 
03010030012000004000004000000000000000000000000000000000000000000000000000000000000000000000000000000LIB       Straight Party                                          Libertarian Party                     PRECINCT 3C                                            01 
03010030013000013000007000006000000000000000000000000000000000000000000000000000000000000000000000000LIB       Straight Party                                          Libertarian Party                     PRECINCT 3D                                            01 
03010030014000004000004000000000000000000000000000000000000000000000000000000000000000000000000000000LIB       Straight Party                                          Libertarian Party                     PRECINCT 4                                             01 
03010030015000032000011000021000000000000000000000000000000000000000000000000000000000000000000000000LIB       Straight Party                                          Libertarian Party                     PRECINCT 4A                                            01 
03010030016000002000001000001000000000000000000000000000000000000000000000000000000000000000000000000LIB       Straight Party                                          Libertarian Party                     PRECINCT 4B                                            01 
03010030017000007000003000004000000000000000000000000000000000000000000000000000000000000000000000000LIB       Straight Party                                          Libertarian Party                     PRECINCT 4C                                            01 
03010040001000000000000000000000000000000000000000000000000000000000000000000000000000000000000000000          Straight Party                                          OVER VOTES                            PRECINCT 1                                             01 
03010040002000000000000000000000000000000000000000000000000000000000000000000000000000000000000000000          Straight Party                                          OVER VOTES                            PRECINCT 1A                                            01 
03010040003000000000000000000000000000000000000000000000000000000000000000000000000000000000000000000          Straight Party                                          OVER VOTES                            PRECINCT 1B                                            01 
03010040004000000000000000000000000000000000000000000000000000000000000000000000000000000000000000000          Straight Party                                          OVER VOTES                            PRECINCT 1C                                            01 
03010040005000000000000000000000000000000000000000000000000000000000000000000000000000000000000000000          Straight Party                                          OVER VOTES                            PRECINCT 2                                             01 
03010040006000000000000000000000000000000000000000000000000000000000000000000000000000000000000000000          Straight Party                                          OVER VOTES                            PRECINCT 2A                                            01 
03010040007000000000000000000000000000000000000000000000000000000000000000000000000000000000000000000          Straight Party                                          OVER VOTES                            PRECINCT 2B                                            01 
03010040008000000000000000000000000000000000000000000000000000000000000000000000000000000000000000000          Straight Party                                          OVER VOTES                            PRECINCT 2C                                            01 
03010040009000000000000000000000000000000000000000000000000000000000000000000000000000000000000000000          Straight Party                                          OVER VOTES                            PRECINCT 3                                             01 
03010040010000000000000000000000000000000000000000000000000000000000000000000000000000000000000000000          Straight Party                                          OVER VOTES                            PRECINCT 3A                                            01 
03010040011000000000000000000000000000000000000000000000000000000000000000000000000000000000000000000          Straight Party                                          OVER VOTES                            PRECINCT 3B                                            01 
03010040012000000000000000000000000000000000000000000000000000000000000000000000000000000000000000000          Straight Party                                          OVER VOTES                            PRECINCT 3C                                            01 
03010040013000000000000000000000000000000000000000000000000000000000000000000000000000000000000000000          Straight Party                                          OVER VOTES                            PRECINCT 3D                                            01 
03010040014000000000000000000000000000000000000000000000000000000000000000000000000000000000000000000          Straight Party                                          OVER VOTES                            PRECINCT 4                                             01 
03010040015000000000000000000000000000000000000000000000000000000000000000000000000000000000000000000          Straight Party                                          OVER VOTES                            PRECINCT 4A                                            01 
03010040016000000000000000000000000000000000000000000000000000000000000000000000000000000000000000000          Straight Party                                          OVER VOTES                            PRECINCT 4B                                            01 
03010040017000000000000000000000000000000000000000000000000000000000000000000000000000000000000000000          Straight Party                                          OVER VOTES                            PRECINCT 4C                                            01 
03010050001001016000715000231000070000000000000000000000000000000000000000000000000000000000000000000          Straight Party                                          UNDER VOTES                           PRECINCT 1                                             01 
03010050002000696000484000162000050000000000000000000000000000000000000000000000000000000000000000000          Straight Party                                          UNDER VOTES                           PRECINCT 1A                                            01 
03010050003001015000718000224000073000000000000000000000000000000000000000000000000000000000000000000          Straight Party                                          UNDER VOTES                           PRECINCT 1B                                            01 
03010050004000630000416000168000046000000000000000000000000000000000000000000000000000000000000000000          Straight Party                                          UNDER VOTES                           PRECINCT 1C                                            01 
03010050005000751000533000126000092000000000000000000000000000000000000000000000000000000000000000000          Straight Party                                          UNDER VOTES                           PRECINCT 2                                             01 
03010050006000767000511000195000061000000000000000000000000000000000000000000000000000000000000000000          Straight Party                                          UNDER VOTES                           PRECINCT 2A                                            01 
03010050007000337000243000077000017000000000000000000000000000000000000000000000000000000000000000000          Straight Party                                          UNDER VOTES                           PRECINCT 2B                                            01 
03010050008000995000745000193000057000000000000000000000000000000000000000000000000000000000000000000          Straight Party                                          UNDER VOTES                           PRECINCT 2C                                            01 
03010050009000060000038000010000012000000000000000000000000000000000000000000000000000000000000000000          Straight Party                                          UNDER VOTES                           PRECINCT 3                                             01 
03010050010000168000086000060000022000000000000000000000000000000000000000000000000000000000000000000          Straight Party                                          UNDER VOTES                           PRECINCT 3A                                            01 
03010050011000417000252000144000021000000000000000000000000000000000000000000000000000000000000000000          Straight Party                                          UNDER VOTES                           PRECINCT 3B                                            01 
03010050012000533000384000120000029000000000000000000000000000000000000000000000000000000000000000000          Straight Party                                          UNDER VOTES                           PRECINCT 3C                                            01 
03010050013001026000721000218000087000000000000000000000000000000000000000000000000000000000000000000          Straight Party                                          UNDER VOTES                           PRECINCT 3D                                            01 
03010050014000408000272000091000045000000000000000000000000000000000000000000000000000000000000000000          Straight Party                                          UNDER VOTES                           PRECINCT 4                                             01 
03010050015001179000834000242000103000000000000000000000000000000000000000000000000000000000000000000          Straight Party                                          UNDER VOTES                           PRECINCT 4A                                            01 
03010050016000274000177000073000024000000000000000000000000000000000000000000000000000000000000000000          Straight Party                                          UNDER VOTES                           PRECINCT 4B                                            01 
03010050017000503000336000134000033000000000000000000000000000000000000000000000000000000000000000000          Straight Party                                          UNDER VOTES                           PRECINCT 4C                                            01 
03020010001002226001702000418000106000000000000000000000000000000000000000000000000000000000000000000REP       United States Senator                                   Ted Cruz                              PRECINCT 1                                             01 
03020010002001315000957000287000071000000000000000000000000000000000000000000000000000000000000000000REP       United States Senator                                   Ted Cruz                              PRECINCT 1A                                            01 
03020010003002680001961000593000126000000000000000000000000000000000000000000000000000000000000000000REP       United States Senator                                   Ted Cruz                              PRECINCT 1B                                            01 
03020010004001534001059000406000069000000000000000000000000000000000000000000000000000000000000000000REP       United States Senator                                   Ted Cruz                              PRECINCT 1C                                            01 
03020010005001865001439000281000145000000000000000000000000000000000000000000000000000000000000000000REP       United States Senator                                   Ted Cruz                              PRECINCT 2                                             01 
03020010006001781001311000352000118000000000000000000000000000000000000000000000000000000000000000000REP       United States Senator                                   Ted Cruz                              PRECINCT 2A                                            01 
03020010007000742000548000155000039000000000000000000000000000000000000000000000000000000000000000000REP       United States Senator                                   Ted Cruz                              PRECINCT 2B                                            01 
03020010008002636002051000500000085000000000000000000000000000000000000000000000000000000000000000000REP       United States Senator                                   Ted Cruz                              PRECINCT 2C                                            01 
03020010009000137000096000023000018000000000000000000000000000000000000000000000000000000000000000000REP       United States Senator                                   Ted Cruz                              PRECINCT 3                                             01 
03020010010000324000192000107000025000000000000000000000000000000000000000000000000000000000000000000REP       United States Senator                                   Ted Cruz                              PRECINCT 3A                                            01 
03020010011000945000636000285000024000000000000000000000000000000000000000000000000000000000000000000REP       United States Senator                                   Ted Cruz                              PRECINCT 3B                                            01 
03020010012001466001126000278000062000000000000000000000000000000000000000000000000000000000000000000REP       United States Senator                                   Ted Cruz                              PRECINCT 3C                                            01 
03020010013003091002303000653000135000000000000000000000000000000000000000000000000000000000000000000REP       United States Senator                                   Ted Cruz                              PRECINCT 3D                                            01 
03020010014001174000895000208000071000000000000000000000000000000000000000000000000000000000000000000REP       United States Senator                                   Ted Cruz                              PRECINCT 4                                             01 
03020010015002876002088000655000133000000000000000000000000000000000000000000000000000000000000000000REP       United States Senator                                   Ted Cruz                              PRECINCT 4A                                            01 
03020010016000528000371000128000029000000000000000000000000000000000000000000000000000000000000000000REP       United States Senator                                   Ted Cruz                              PRECINCT 4B                                            01 
03020010017001270000843000382000045000000000000000000000000000000000000000000000000000000000000000000REP       United States Senator                                   Ted Cruz                              PRECINCT 4C                                            01 
03020020001001075000791000217000067000000000000000000000000000000000000000000000000000000000000000000DEM       United States Senator                                   Beto O'Rourke                         PRECINCT 1                                             01 
03020020002000797000533000221000043000000000000000000000000000000000000000000000000000000000000000000DEM       United States Senator                                   Beto O'Rourke                         PRECINCT 1A                                            01 
03020020003000947000704000199000044000000000000000000000000000000000000000000000000000000000000000000DEM       United States Senator                                   Beto O'Rourke                         PRECINCT 1B                                            01 
03020020004000565000398000132000035000000000000000000000000000000000000000000000000000000000000000000DEM       United States Senator                                   Beto O'Rourke                         PRECINCT 1C                                            01 
03020020005000783000580000139000064000000000000000000000000000000000000000000000000000000000000000000DEM       United States Senator                                   Beto O'Rourke                         PRECINCT 2                                             01 
03020020006000939000662000210000067000000000000000000000000000000000000000000000000000000000000000000DEM       United States Senator                                   Beto O'Rourke                         PRECINCT 2A                                            01 
03020020007000430000287000118000025000000000000000000000000000000000000000000000000000000000000000000DEM       United States Senator                                   Beto O'Rourke                         PRECINCT 2B                                            01 
03020020008000791000587000163000041000000000000000000000000000000000000000000000000000000000000000000DEM       United States Senator                                   Beto O'Rourke                         PRECINCT 2C                                            01 
03020020009000137000079000043000015000000000000000000000000000000000000000000000000000000000000000000DEM       United States Senator                                   Beto O'Rourke                         PRECINCT 3                                             01 
03020020010000417000247000152000018000000000000000000000000000000000000000000000000000000000000000000DEM       United States Senator                                   Beto O'Rourke                         PRECINCT 3A                                            01 
03020020011000760000493000233000034000000000000000000000000000000000000000000000000000000000000000000DEM       United States Senator                                   Beto O'Rourke                         PRECINCT 3B                                            01 
03020020012000373000283000066000024000000000000000000000000000000000000000000000000000000000000000000DEM       United States Senator                                   Beto O'Rourke                         PRECINCT 3C                                            01 
03020020013000950000700000198000052000000000000000000000000000000000000000000000000000000000000000000DEM       United States Senator                                   Beto O'Rourke                         PRECINCT 3D                                            01 
03020020014000351000237000085000029000000000000000000000000000000000000000000000000000000000000000000DEM       United States Senator                                   Beto O'Rourke                         PRECINCT 4                                             01 
03020020015001621001196000354000071000000000000000000000000000000000000000000000000000000000000000000DEM       United States Senator                                   Beto O'Rourke                         PRECINCT 4A                                            01 
03020020016000281000180000087000014000000000000000000000000000000000000000000000000000000000000000000DEM       United States Senator                                   Beto O'Rourke                         PRECINCT 4B                                            01 
03020020017000496000335000139000022000000000000000000000000000000000000000000000000000000000000000000DEM       United States Senator                                   Beto O'Rourke                         PRECINCT 4C                                            01 
03020030001000034000019000013000002000000000000000000000000000000000000000000000000000000000000000000LIB       United States Senator                                   Neal M. Dikeman                       PRECINCT 1                                             01 
03020030002000027000013000013000001000000000000000000000000000000000000000000000000000000000000000000LIB       United States Senator                                   Neal M. Dikeman                       PRECINCT 1A                                            01 
03020030003000041000025000016000000000000000000000000000000000000000000000000000000000000000000000000LIB       United States Senator                                   Neal M. Dikeman                       PRECINCT 1B                                            01 
03020030004000021000011000010000000000000000000000000000000000000000000000000000000000000000000000000LIB       United States Senator                                   Neal M. Dikeman                       PRECINCT 1C                                            01 
03020030005000019000008000009000002000000000000000000000000000000000000000000000000000000000000000000LIB       United States Senator                                   Neal M. Dikeman                       PRECINCT 2                                             01 
03020030006000019000010000008000001000000000000000000000000000000000000000000000000000000000000000000LIB       United States Senator                                   Neal M. Dikeman                       PRECINCT 2A                                            01 
03020030007000009000003000005000001000000000000000000000000000000000000000000000000000000000000000000LIB       United States Senator                                   Neal M. Dikeman                       PRECINCT 2B                                            01 
03020030008000028000017000011000000000000000000000000000000000000000000000000000000000000000000000000LIB       United States Senator                                   Neal M. Dikeman                       PRECINCT 2C                                            01 
03020030009000001000001000000000000000000000000000000000000000000000000000000000000000000000000000000LIB       United States Senator                                   Neal M. Dikeman                       PRECINCT 3                                             01 
03020030010000004000002000002000000000000000000000000000000000000000000000000000000000000000000000000LIB       United States Senator                                   Neal M. Dikeman                       PRECINCT 3A                                            01 
03020030011000009000003000006000000000000000000000000000000000000000000000000000000000000000000000000LIB       United States Senator                                   Neal M. Dikeman                       PRECINCT 3B                                            01 
03020030012000010000009000001000000000000000000000000000000000000000000000000000000000000000000000000LIB       United States Senator                                   Neal M. Dikeman                       PRECINCT 3C                                            01 
03020030013000025000011000013000001000000000000000000000000000000000000000000000000000000000000000000LIB       United States Senator                                   Neal M. Dikeman                       PRECINCT 3D                                            01 
03020030014000015000006000006000003000000000000000000000000000000000000000000000000000000000000000000LIB       United States Senator                                   Neal M. Dikeman                       PRECINCT 4                                             01 
03020030015000043000019000023000001000000000000000000000000000000000000000000000000000000000000000000LIB       United States Senator                                   Neal M. Dikeman                       PRECINCT 4A                                            01 
03020030016000004000001000003000000000000000000000000000000000000000000000000000000000000000000000000LIB       United States Senator                                   Neal M. Dikeman                       PRECINCT 4B                                            01 
03020030017000020000006000013000001000000000000000000000000000000000000000000000000000000000000000000LIB       United States Senator                                   Neal M. Dikeman                       PRECINCT 4C                                            01 
03020040001000001000000000000000001000000000000000000000000000000000000000000000000000000000000000000          United States Senator                                   OVER VOTES                            PRECINCT 1                                             01 
03020040002000000000000000000000000000000000000000000000000000000000000000000000000000000000000000000          United States Senator                                   OVER VOTES                            PRECINCT 1A                                            01 
03020040003000000000000000000000000000000000000000000000000000000000000000000000000000000000000000000          United States Senator                                   OVER VOTES                            PRECINCT 1B                                            01 
03020040004000000000000000000000000000000000000000000000000000000000000000000000000000000000000000000          United States Senator                                   OVER VOTES                            PRECINCT 1C                                            01 
03020040005000000000000000000000000000000000000000000000000000000000000000000000000000000000000000000          United States Senator                                   OVER VOTES                            PRECINCT 2                                             01 
03020040006000000000000000000000000000000000000000000000000000000000000000000000000000000000000000000          United States Senator                                   OVER VOTES                            PRECINCT 2A                                            01 
03020040007000000000000000000000000000000000000000000000000000000000000000000000000000000000000000000          United States Senator                                   OVER VOTES                            PRECINCT 2B                                            01 
03020040008000000000000000000000000000000000000000000000000000000000000000000000000000000000000000000          United States Senator                                   OVER VOTES                            PRECINCT 2C                                            01 
03020040009000000000000000000000000000000000000000000000000000000000000000000000000000000000000000000          United States Senator                                   OVER VOTES                            PRECINCT 3                                             01 
03020040010000000000000000000000000000000000000000000000000000000000000000000000000000000000000000000          United States Senator                                   OVER VOTES                            PRECINCT 3A                                            01 
03020040011000000000000000000000000000000000000000000000000000000000000000000000000000000000000000000          United States Senator                                   OVER VOTES                            PRECINCT 3B                                            01 
03020040012000000000000000000000000000000000000000000000000000000000000000000000000000000000000000000          United States Senator                                   OVER VOTES                            PRECINCT 3C                                            01 
03020040013000000000000000000000000000000000000000000000000000000000000000000000000000000000000000000          United States Senator                                   OVER VOTES                            PRECINCT 3D                                            01 
03020040014000000000000000000000000000000000000000000000000000000000000000000000000000000000000000000          United States Senator                                   OVER VOTES                            PRECINCT 4                                             01 
03020040015000000000000000000000000000000000000000000000000000000000000000000000000000000000000000000          United States Senator                                   OVER VOTES                            PRECINCT 4A                                            01 
03020040016000000000000000000000000000000000000000000000000000000000000000000000000000000000000000000          United States Senator                                   OVER VOTES                            PRECINCT 4B                                            01 
03020040017000000000000000000000000000000000000000000000000000000000000000000000000000000000000000000          United States Senator                                   OVER VOTES                            PRECINCT 4C                                            01 
03020050001000005000003000001000001000000000000000000000000000000000000000000000000000000000000000000          United States Senator                                   UNDER VOTES                           PRECINCT 1                                             01 
03020050002000005000000000000000005000000000000000000000000000000000000000000000000000000000000000000          United States Senator                                   UNDER VOTES                           PRECINCT 1A                                            01 
03020050003000006000003000003000000000000000000000000000000000000000000000000000000000000000000000000          United States Senator                                   UNDER VOTES                           PRECINCT 1B                                            01 
03020050004000003000001000001000001000000000000000000000000000000000000000000000000000000000000000000          United States Senator                                   UNDER VOTES                           PRECINCT 1C                                            01 
03020050005000007000002000001000004000000000000000000000000000000000000000000000000000000000000000000          United States Senator                                   UNDER VOTES                           PRECINCT 2                                             01 
03020050006000003000000000002000001000000000000000000000000000000000000000000000000000000000000000000          United States Senator                                   UNDER VOTES                           PRECINCT 2A                                            01 
03020050007000001000001000000000000000000000000000000000000000000000000000000000000000000000000000000          United States Senator                                   UNDER VOTES                           PRECINCT 2B                                            01 
03020050008000010000007000001000002000000000000000000000000000000000000000000000000000000000000000000          United States Senator                                   UNDER VOTES                           PRECINCT 2C                                            01 
03020050009000005000003000000000002000000000000000000000000000000000000000000000000000000000000000000          United States Senator                                   UNDER VOTES                           PRECINCT 3                                             01 
03020050010000004000002000001000001000000000000000000000000000000000000000000000000000000000000000000          United States Senator                                   UNDER VOTES                           PRECINCT 3A                                            01 
03020050011000003000000000003000000000000000000000000000000000000000000000000000000000000000000000000          United States Senator                                   UNDER VOTES                           PRECINCT 3B                                            01 
03020050012000008000004000002000002000000000000000000000000000000000000000000000000000000000000000000          United States Senator                                   UNDER VOTES                           PRECINCT 3C                                            01 
03020050013000004000003000000000001000000000000000000000000000000000000000000000000000000000000000000          United States Senator                                   UNDER VOTES                           PRECINCT 3D                                            01 
03020050014000006000002000001000003000000000000000000000000000000000000000000000000000000000000000000          United States Senator                                   UNDER VOTES                           PRECINCT 4                                             01 
03020050015000008000005000000000003000000000000000000000000000000000000000000000000000000000000000000          United States Senator                                   UNDER VOTES                           PRECINCT 4A                                            01 
03020050016000001000001000000000000000000000000000000000000000000000000000000000000000000000000000000          United States Senator                                   UNDER VOTES                           PRECINCT 4B                                            01 
03020050017000004000001000001000002000000000000000000000000000000000000000000000000000000000000000000          United States Senator                                   UNDER VOTES                           PRECINCT 4C                                            01 
03030010001002327001776000449000102000000000000000000000000000000000000000000000000000000000000000000REP       US Representative, District 4                           John Ratcliffe                        PRECINCT 1                                             01 
03030010002001364000988000314000062000000000000000000000000000000000000000000000000000000000000000000REP       US Representative, District 4                           John Ratcliffe                        PRECINCT 1A                                            01 
03030010003002764002040000608000116000000000000000000000000000000000000000000000000000000000000000000REP       US Representative, District 4                           John Ratcliffe                        PRECINCT 1B                                            01 
03030010004001599001091000446000062000000000000000000000000000000000000000000000000000000000000000000REP       US Representative, District 4                           John Ratcliffe                        PRECINCT 1C                                            01 
03030010005001917001482000293000142000000000000000000000000000000000000000000000000000000000000000000REP       US Representative, District 4                           John Ratcliffe                        PRECINCT 2                                             01 
03030010006001860001368000376000116000000000000000000000000000000000000000000000000000000000000000000REP       US Representative, District 4                           John Ratcliffe                        PRECINCT 2A                                            01 
03030010007000753000559000158000036000000000000000000000000000000000000000000000000000000000000000000REP       US Representative, District 4                           John Ratcliffe                        PRECINCT 2B                                            01 
03030010008002772002150000546000076000000000000000000000000000000000000000000000000000000000000000000REP       US Representative, District 4                           John Ratcliffe                        PRECINCT 2C                                            01 
03030010009000136000095000023000018000000000000000000000000000000000000000000000000000000000000000000REP       US Representative, District 4                           John Ratcliffe                        PRECINCT 3                                             01 
03030010010000333000196000118000019000000000000000000000000000000000000000000000000000000000000000000REP       US Representative, District 4                           John Ratcliffe                        PRECINCT 3A                                            01 
03030010011000977000663000287000027000000000000000000000000000000000000000000000000000000000000000000REP       US Representative, District 4                           John Ratcliffe                        PRECINCT 3B                                            01 
03030010012001545001185000297000063000000000000000000000000000000000000000000000000000000000000000000REP       US Representative, District 4                           John Ratcliffe                        PRECINCT 3C                                            01 
03030010013003181002381000680000120000000000000000000000000000000000000000000000000000000000000000000REP       US Representative, District 4                           John Ratcliffe                        PRECINCT 3D                                            01 
03030010014001206000922000212000072000000000000000000000000000000000000000000000000000000000000000000REP       US Representative, District 4                           John Ratcliffe                        PRECINCT 4                                             01 
03030010015002968002172000687000109000000000000000000000000000000000000000000000000000000000000000000REP       US Representative, District 4                           John Ratcliffe                        PRECINCT 4A                                            01 
03030010016000545000381000134000030000000000000000000000000000000000000000000000000000000000000000000REP       US Representative, District 4                           John Ratcliffe                        PRECINCT 4B                                            01 
03030010017001303000861000402000040000000000000000000000000000000000000000000000000000000000000000000REP       US Representative, District 4                           John Ratcliffe                        PRECINCT 4C                                            01 
03030020001000927000695000172000060000000000000000000000000000000000000000000000000000000000000000000DEM       US Representative, District 4                           Catherine Krantz                      PRECINCT 1                                             01 
03030020002000718000484000191000043000000000000000000000000000000000000000000000000000000000000000000DEM       US Representative, District 4                           Catherine Krantz                      PRECINCT 1A                                            01 
03030020003000818000607000172000039000000000000000000000000000000000000000000000000000000000000000000DEM       US Representative, District 4                           Catherine Krantz                      PRECINCT 1B                                            01 
03030020004000469000353000088000028000000000000000000000000000000000000000000000000000000000000000000DEM       US Representative, District 4                           Catherine Krantz                      PRECINCT 1C                                            01 
03030020005000678000499000124000055000000000000000000000000000000000000000000000000000000000000000000DEM       US Representative, District 4                           Catherine Krantz                      PRECINCT 2                                             01 
03030020006000823000585000178000060000000000000000000000000000000000000000000000000000000000000000000DEM       US Representative, District 4                           Catherine Krantz                      PRECINCT 2A                                            01 
03030020007000394000264000104000026000000000000000000000000000000000000000000000000000000000000000000DEM       US Representative, District 4                           Catherine Krantz                      PRECINCT 2B                                            01 
03030020008000621000479000106000036000000000000000000000000000000000000000000000000000000000000000000DEM       US Representative, District 4                           Catherine Krantz                      PRECINCT 2C                                            01 
03030020009000136000077000043000016000000000000000000000000000000000000000000000000000000000000000000DEM       US Representative, District 4                           Catherine Krantz                      PRECINCT 3                                             01 
03030020010000390000239000137000014000000000000000000000000000000000000000000000000000000000000000000DEM       US Representative, District 4                           Catherine Krantz                      PRECINCT 3A                                            01 
03030020011000698000451000219000028000000000000000000000000000000000000000000000000000000000000000000DEM       US Representative, District 4                           Catherine Krantz                      PRECINCT 3B                                            01 
03030020012000281000218000045000018000000000000000000000000000000000000000000000000000000000000000000DEM       US Representative, District 4                           Catherine Krantz                      PRECINCT 3C                                            01 
03030020013000818000602000173000043000000000000000000000000000000000000000000000000000000000000000000DEM       US Representative, District 4                           Catherine Krantz                      PRECINCT 3D                                            01 
03030020014000300000198000077000025000000000000000000000000000000000000000000000000000000000000000000DEM       US Representative, District 4                           Catherine Krantz                      PRECINCT 4                                             01 
03030020015001436001074000306000056000000000000000000000000000000000000000000000000000000000000000000DEM       US Representative, District 4                           Catherine Krantz                      PRECINCT 4A                                            01 
03030020016000256000164000080000012000000000000000000000000000000000000000000000000000000000000000000DEM       US Representative, District 4                           Catherine Krantz                      PRECINCT 4B                                            01 
03030020017000447000306000123000018000000000000000000000000000000000000000000000000000000000000000000DEM       US Representative, District 4                           Catherine Krantz                      PRECINCT 4C                                            01 
03030030001000051000032000018000001000000000000000000000000000000000000000000000000000000000000000000LIB       US Representative, District 4                           Ken Ashby                             PRECINCT 1                                             01 
03030030002000039000025000014000000000000000000000000000000000000000000000000000000000000000000000000LIB       US Representative, District 4                           Ken Ashby                             PRECINCT 1A                                            01 
03030030003000055000035000020000000000000000000000000000000000000000000000000000000000000000000000000LIB       US Representative, District 4                           Ken Ashby                             PRECINCT 1B                                            01 
03030030004000028000017000011000000000000000000000000000000000000000000000000000000000000000000000000LIB       US Representative, District 4                           Ken Ashby                             PRECINCT 1C                                            01 
03030030005000036000026000010000000000000000000000000000000000000000000000000000000000000000000000000LIB       US Representative, District 4                           Ken Ashby                             PRECINCT 2                                             01 
03030030006000038000022000015000001000000000000000000000000000000000000000000000000000000000000000000LIB       US Representative, District 4                           Ken Ashby                             PRECINCT 2A                                            01 
03030030007000022000009000013000000000000000000000000000000000000000000000000000000000000000000000000LIB       US Representative, District 4                           Ken Ashby                             PRECINCT 2B                                            01 
03030030008000043000024000017000002000000000000000000000000000000000000000000000000000000000000000000LIB       US Representative, District 4                           Ken Ashby                             PRECINCT 2C                                            01 
03030030009000004000004000000000000000000000000000000000000000000000000000000000000000000000000000000LIB       US Representative, District 4                           Ken Ashby                             PRECINCT 3                                             01 
03030030010000007000003000004000000000000000000000000000000000000000000000000000000000000000000000000LIB       US Representative, District 4                           Ken Ashby                             PRECINCT 3A                                            01 
03030030011000025000011000014000000000000000000000000000000000000000000000000000000000000000000000000LIB       US Representative, District 4                           Ken Ashby                             PRECINCT 3B                                            01 
03030030012000016000012000004000000000000000000000000000000000000000000000000000000000000000000000000LIB       US Representative, District 4                           Ken Ashby                             PRECINCT 3C                                            01 
03030030013000041000027000011000003000000000000000000000000000000000000000000000000000000000000000000LIB       US Representative, District 4                           Ken Ashby                             PRECINCT 3D                                            01 
03030030014000022000011000009000002000000000000000000000000000000000000000000000000000000000000000000LIB       US Representative, District 4                           Ken Ashby                             PRECINCT 4                                             01 
03030030015000081000046000035000000000000000000000000000000000000000000000000000000000000000000000000LIB       US Representative, District 4                           Ken Ashby                             PRECINCT 4A                                            01 
03030030016000010000007000003000000000000000000000000000000000000000000000000000000000000000000000000LIB       US Representative, District 4                           Ken Ashby                             PRECINCT 4B                                            01 
03030030017000023000013000009000001000000000000000000000000000000000000000000000000000000000000000000LIB       US Representative, District 4                           Ken Ashby                             PRECINCT 4C                                            01 
03030040001000000000000000000000000000000000000000000000000000000000000000000000000000000000000000000          US Representative, District 4                           OVER VOTES                            PRECINCT 1                                             01 
03030040002000000000000000000000000000000000000000000000000000000000000000000000000000000000000000000          US Representative, District 4                           OVER VOTES                            PRECINCT 1A                                            01 
03030040003000000000000000000000000000000000000000000000000000000000000000000000000000000000000000000          US Representative, District 4                           OVER VOTES                            PRECINCT 1B                                            01 
03030040004000000000000000000000000000000000000000000000000000000000000000000000000000000000000000000          US Representative, District 4                           OVER VOTES                            PRECINCT 1C                                            01 
03030040005000000000000000000000000000000000000000000000000000000000000000000000000000000000000000000          US Representative, District 4                           OVER VOTES                            PRECINCT 2                                             01 
03030040006000000000000000000000000000000000000000000000000000000000000000000000000000000000000000000          US Representative, District 4                           OVER VOTES                            PRECINCT 2A                                            01 
03030040007000000000000000000000000000000000000000000000000000000000000000000000000000000000000000000          US Representative, District 4                           OVER VOTES                            PRECINCT 2B                                            01 
03030040008000000000000000000000000000000000000000000000000000000000000000000000000000000000000000000          US Representative, District 4                           OVER VOTES                            PRECINCT 2C                                            01 
03030040009000000000000000000000000000000000000000000000000000000000000000000000000000000000000000000          US Representative, District 4                           OVER VOTES                            PRECINCT 3                                             01 
03030040010000000000000000000000000000000000000000000000000000000000000000000000000000000000000000000          US Representative, District 4                           OVER VOTES                            PRECINCT 3A                                            01 
03030040011000000000000000000000000000000000000000000000000000000000000000000000000000000000000000000          US Representative, District 4                           OVER VOTES                            PRECINCT 3B                                            01 
03030040012000000000000000000000000000000000000000000000000000000000000000000000000000000000000000000          US Representative, District 4                           OVER VOTES                            PRECINCT 3C                                            01 
03030040013000000000000000000000000000000000000000000000000000000000000000000000000000000000000000000          US Representative, District 4                           OVER VOTES                            PRECINCT 3D                                            01 
03030040014000000000000000000000000000000000000000000000000000000000000000000000000000000000000000000          US Representative, District 4                           OVER VOTES                            PRECINCT 4                                             01 
03030040015000000000000000000000000000000000000000000000000000000000000000000000000000000000000000000          US Representative, District 4                           OVER VOTES                            PRECINCT 4A                                            01 
03030040016000000000000000000000000000000000000000000000000000000000000000000000000000000000000000000          US Representative, District 4                           OVER VOTES                            PRECINCT 4B                                            01 
03030040017000000000000000000000000000000000000000000000000000000000000000000000000000000000000000000          US Representative, District 4                           OVER VOTES                            PRECINCT 4C                                            01 
03030050001000036000012000010000014000000000000000000000000000000000000000000000000000000000000000000          US Representative, District 4                           UNDER VOTES                           PRECINCT 1                                             01 
03030050002000023000006000002000015000000000000000000000000000000000000000000000000000000000000000000          US Representative, District 4                           UNDER VOTES                           PRECINCT 1A                                            01 
03030050003000037000011000011000015000000000000000000000000000000000000000000000000000000000000000000          US Representative, District 4                           UNDER VOTES                           PRECINCT 1B                                            01 
03030050004000027000008000004000015000000000000000000000000000000000000000000000000000000000000000000          US Representative, District 4                           UNDER VOTES                           PRECINCT 1C                                            01 
03030050005000043000022000003000018000000000000000000000000000000000000000000000000000000000000000000          US Representative, District 4                           UNDER VOTES                           PRECINCT 2                                             01 
03030050006000021000008000003000010000000000000000000000000000000000000000000000000000000000000000000          US Representative, District 4                           UNDER VOTES                           PRECINCT 2A                                            01 
03030050007000013000007000003000003000000000000000000000000000000000000000000000000000000000000000000          US Representative, District 4                           UNDER VOTES                           PRECINCT 2B                                            01 
03030050008000029000009000006000014000000000000000000000000000000000000000000000000000000000000000000          US Representative, District 4                           UNDER VOTES                           PRECINCT 2C                                            01 
03030050009000004000003000000000001000000000000000000000000000000000000000000000000000000000000000000          US Representative, District 4                           UNDER VOTES                           PRECINCT 3                                             01 
03030050010000019000005000003000011000000000000000000000000000000000000000000000000000000000000000000          US Representative, District 4                           UNDER VOTES                           PRECINCT 3A                                            01 
03030050011000017000007000007000003000000000000000000000000000000000000000000000000000000000000000000          US Representative, District 4                           UNDER VOTES                           PRECINCT 3B                                            01 
03030050012000015000007000001000007000000000000000000000000000000000000000000000000000000000000000000          US Representative, District 4                           UNDER VOTES                           PRECINCT 3C                                            01 
03030050013000030000007000000000023000000000000000000000000000000000000000000000000000000000000000000          US Representative, District 4                           UNDER VOTES                           PRECINCT 3D                                            01 
03030050014000018000009000002000007000000000000000000000000000000000000000000000000000000000000000000          US Representative, District 4                           UNDER VOTES                           PRECINCT 4                                             01 
03030050015000063000016000004000043000000000000000000000000000000000000000000000000000000000000000000          US Representative, District 4                           UNDER VOTES                           PRECINCT 4A                                            01 
03030050016000003000001000001000001000000000000000000000000000000000000000000000000000000000000000000          US Representative, District 4                           UNDER VOTES                           PRECINCT 4B                                            01 
03030050017000017000005000001000011000000000000000000000000000000000000000000000000000000000000000000          US Representative, District 4                           UNDER VOTES                           PRECINCT 4C                                            01 
03040010001002443001858000472000113000000000000000000000000000000000000000000000000000000000000000000REP       Governor                                                Greg Abbott                           PRECINCT 1                                             01 
03040010002001436001036000324000076000000000000000000000000000000000000000000000000000000000000000000REP       Governor                                                Greg Abbott                           PRECINCT 1A                                            01 
03040010003002849002081000641000127000000000000000000000000000000000000000000000000000000000000000000REP       Governor                                                Greg Abbott                           PRECINCT 1B                                            01 
03040010004001679001139000467000073000000000000000000000000000000000000000000000000000000000000000000REP       Governor                                                Greg Abbott                           PRECINCT 1C                                            01 
03040010005002002001535000309000158000000000000000000000000000000000000000000000000000000000000000000REP       Governor                                                Greg Abbott                           PRECINCT 2                                             01 
03040010006001920001404000393000123000000000000000000000000000000000000000000000000000000000000000000REP       Governor                                                Greg Abbott                           PRECINCT 2A                                            01 
03040010007000788000581000167000040000000000000000000000000000000000000000000000000000000000000000000REP       Governor                                                Greg Abbott                           PRECINCT 2B                                            01 
03040010008002813002164000561000088000000000000000000000000000000000000000000000000000000000000000000REP       Governor                                                Greg Abbott                           PRECINCT 2C                                            01 
03040010009000146000101000024000021000000000000000000000000000000000000000000000000000000000000000000REP       Governor                                                Greg Abbott                           PRECINCT 3                                             01 
03040010010000353000206000123000024000000000000000000000000000000000000000000000000000000000000000000REP       Governor                                                Greg Abbott                           PRECINCT 3A                                            01 
03040010011001034000690000318000026000000000000000000000000000000000000000000000000000000000000000000REP       Governor                                                Greg Abbott                           PRECINCT 3B                                            01 
03040010012001563001195000301000067000000000000000000000000000000000000000000000000000000000000000000REP       Governor                                                Greg Abbott                           PRECINCT 3C                                            01 
03040010013003277002430000704000143000000000000000000000000000000000000000000000000000000000000000000REP       Governor                                                Greg Abbott                           PRECINCT 3D                                            01 
03040010014001247000944000222000081000000000000000000000000000000000000000000000000000000000000000000REP       Governor                                                Greg Abbott                           PRECINCT 4                                             01 
03040010015003110002256000710000144000000000000000000000000000000000000000000000000000000000000000000REP       Governor                                                Greg Abbott                           PRECINCT 4A                                            01 
03040010016000559000382000145000032000000000000000000000000000000000000000000000000000000000000000000REP       Governor                                                Greg Abbott                           PRECINCT 4B                                            01 
03040010017001337000884000405000048000000000000000000000000000000000000000000000000000000000000000000REP       Governor                                                Greg Abbott                           PRECINCT 4C                                            01 
03040020001000814000601000149000064000000000000000000000000000000000000000000000000000000000000000000DEM       Governor                                                Lupe Valdez                           PRECINCT 1                                             01 
03040020002000652000433000176000043000000000000000000000000000000000000000000000000000000000000000000DEM       Governor                                                Lupe Valdez                           PRECINCT 1A                                            01 
03040020003000752000557000154000041000000000000000000000000000000000000000000000000000000000000000000DEM       Governor                                                Lupe Valdez                           PRECINCT 1B                                            01 
03040020004000402000299000072000031000000000000000000000000000000000000000000000000000000000000000000DEM       Governor                                                Lupe Valdez                           PRECINCT 1C                                            01 
03040020005000598000448000103000047000000000000000000000000000000000000000000000000000000000000000000DEM       Governor                                                Lupe Valdez                           PRECINCT 2                                             01 
03040020006000757000543000155000059000000000000000000000000000000000000000000000000000000000000000000DEM       Governor                                                Lupe Valdez                           PRECINCT 2A                                            01 
03040020007000362000242000097000023000000000000000000000000000000000000000000000000000000000000000000DEM       Governor                                                Lupe Valdez                           PRECINCT 2B                                            01 
03040020008000591000458000095000038000000000000000000000000000000000000000000000000000000000000000000DEM       Governor                                                Lupe Valdez                           PRECINCT 2C                                            01 
03040020009000131000075000042000014000000000000000000000000000000000000000000000000000000000000000000DEM       Governor                                                Lupe Valdez                           PRECINCT 3                                             01 
03040020010000378000229000130000019000000000000000000000000000000000000000000000000000000000000000000DEM       Governor                                                Lupe Valdez                           PRECINCT 3A                                            01 
03040020011000646000420000194000032000000000000000000000000000000000000000000000000000000000000000000DEM       Governor                                                Lupe Valdez                           PRECINCT 3B                                            01 
03040020012000260000199000042000019000000000000000000000000000000000000000000000000000000000000000000DEM       Governor                                                Lupe Valdez                           PRECINCT 3C                                            01 
03040020013000741000548000150000043000000000000000000000000000000000000000000000000000000000000000000DEM       Governor                                                Lupe Valdez                           PRECINCT 3D                                            01 
03040020014000269000175000072000022000000000000000000000000000000000000000000000000000000000000000000DEM       Governor                                                Lupe Valdez                           PRECINCT 4                                             01 
03040020015001369001009000297000063000000000000000000000000000000000000000000000000000000000000000000DEM       Governor                                                Lupe Valdez                           PRECINCT 4A                                            01 
03040020016000241000159000071000011000000000000000000000000000000000000000000000000000000000000000000DEM       Governor                                                Lupe Valdez                           PRECINCT 4B                                            01 
03040020017000430000289000121000020000000000000000000000000000000000000000000000000000000000000000000DEM       Governor                                                Lupe Valdez                           PRECINCT 4C                                            01 
03040030001000070000047000023000000000000000000000000000000000000000000000000000000000000000000000000LIB       Governor                                                Mark Jay Tippetts                     PRECINCT 1                                             01 
03040030002000049000030000019000000000000000000000000000000000000000000000000000000000000000000000000LIB       Governor                                                Mark Jay Tippetts                     PRECINCT 1A                                            01 
03040030003000060000046000013000001000000000000000000000000000000000000000000000000000000000000000000LIB       Governor                                                Mark Jay Tippetts                     PRECINCT 1B                                            01 
03040030004000031000023000008000000000000000000000000000000000000000000000000000000000000000000000000LIB       Governor                                                Mark Jay Tippetts                     PRECINCT 1C                                            01 
03040030005000059000038000016000005000000000000000000000000000000000000000000000000000000000000000000LIB       Governor                                                Mark Jay Tippetts                     PRECINCT 2                                             01 
03040030006000057000032000022000003000000000000000000000000000000000000000000000000000000000000000000LIB       Governor                                                Mark Jay Tippetts                     PRECINCT 2A                                            01 
03040030007000026000013000013000000000000000000000000000000000000000000000000000000000000000000000000LIB       Governor                                                Mark Jay Tippetts                     PRECINCT 2B                                            01 
03040030008000053000035000016000002000000000000000000000000000000000000000000000000000000000000000000LIB       Governor                                                Mark Jay Tippetts                     PRECINCT 2C                                            01 
03040030009000000000000000000000000000000000000000000000000000000000000000000000000000000000000000000LIB       Governor                                                Mark Jay Tippetts                     PRECINCT 3                                             01 
03040030010000013000006000007000000000000000000000000000000000000000000000000000000000000000000000000LIB       Governor                                                Mark Jay Tippetts                     PRECINCT 3A                                            01 
03040030011000027000015000012000000000000000000000000000000000000000000000000000000000000000000000000LIB       Governor                                                Mark Jay Tippetts                     PRECINCT 3B                                            01 
03040030012000022000018000004000000000000000000000000000000000000000000000000000000000000000000000000LIB       Governor                                                Mark Jay Tippetts                     PRECINCT 3C                                            01 
03040030013000043000032000009000002000000000000000000000000000000000000000000000000000000000000000000LIB       Governor                                                Mark Jay Tippetts                     PRECINCT 3D                                            01 
03040030014000023000018000004000001000000000000000000000000000000000000000000000000000000000000000000LIB       Governor                                                Mark Jay Tippetts                     PRECINCT 4                                             01 
03040030015000058000033000024000001000000000000000000000000000000000000000000000000000000000000000000LIB       Governor                                                Mark Jay Tippetts                     PRECINCT 4A                                            01 
03040030016000012000010000002000000000000000000000000000000000000000000000000000000000000000000000000LIB       Governor                                                Mark Jay Tippetts                     PRECINCT 4B                                            01 
03040030017000019000009000009000001000000000000000000000000000000000000000000000000000000000000000000LIB       Governor                                                Mark Jay Tippetts                     PRECINCT 4C                                            01 
03040040001000000000000000000000000000000000000000000000000000000000000000000000000000000000000000000          Governor                                                OVER VOTES                            PRECINCT 1                                             01 
03040040002000000000000000000000000000000000000000000000000000000000000000000000000000000000000000000          Governor                                                OVER VOTES                            PRECINCT 1A                                            01 
03040040003000000000000000000000000000000000000000000000000000000000000000000000000000000000000000000          Governor                                                OVER VOTES                            PRECINCT 1B                                            01 
03040040004000000000000000000000000000000000000000000000000000000000000000000000000000000000000000000          Governor                                                OVER VOTES                            PRECINCT 1C                                            01 
03040040005000000000000000000000000000000000000000000000000000000000000000000000000000000000000000000          Governor                                                OVER VOTES                            PRECINCT 2                                             01 
03040040006000000000000000000000000000000000000000000000000000000000000000000000000000000000000000000          Governor                                                OVER VOTES                            PRECINCT 2A                                            01 
03040040007000000000000000000000000000000000000000000000000000000000000000000000000000000000000000000          Governor                                                OVER VOTES                            PRECINCT 2B                                            01 
03040040008000000000000000000000000000000000000000000000000000000000000000000000000000000000000000000          Governor                                                OVER VOTES                            PRECINCT 2C                                            01 
03040040009000000000000000000000000000000000000000000000000000000000000000000000000000000000000000000          Governor                                                OVER VOTES                            PRECINCT 3                                             01 
03040040010000000000000000000000000000000000000000000000000000000000000000000000000000000000000000000          Governor                                                OVER VOTES                            PRECINCT 3A                                            01 
03040040011000000000000000000000000000000000000000000000000000000000000000000000000000000000000000000          Governor                                                OVER VOTES                            PRECINCT 3B                                            01 
03040040012000000000000000000000000000000000000000000000000000000000000000000000000000000000000000000          Governor                                                OVER VOTES                            PRECINCT 3C                                            01 
03040040013000000000000000000000000000000000000000000000000000000000000000000000000000000000000000000          Governor                                                OVER VOTES                            PRECINCT 3D                                            01 
03040040014000000000000000000000000000000000000000000000000000000000000000000000000000000000000000000          Governor                                                OVER VOTES                            PRECINCT 4                                             01 
03040040015000000000000000000000000000000000000000000000000000000000000000000000000000000000000000000          Governor                                                OVER VOTES                            PRECINCT 4A                                            01 
03040040016000000000000000000000000000000000000000000000000000000000000000000000000000000000000000000          Governor                                                OVER VOTES                            PRECINCT 4B                                            01 
03040040017000000000000000000000000000000000000000000000000000000000000000000000000000000000000000000          Governor                                                OVER VOTES                            PRECINCT 4C                                            01 
03040050001000014000009000005000000000000000000000000000000000000000000000000000000000000000000000000          Governor                                                UNDER VOTES                           PRECINCT 1                                             01 
03040050002000007000004000002000001000000000000000000000000000000000000000000000000000000000000000000          Governor                                                UNDER VOTES                           PRECINCT 1A                                            01 
03040050003000013000009000003000001000000000000000000000000000000000000000000000000000000000000000000          Governor                                                UNDER VOTES                           PRECINCT 1B                                            01 
