02150013012000012NONBULL   City of San Antonio Camp Bullis, Proposition A          Option 1                                                                                     01Y
02150013055000022NONBULL   City of San Antonio Camp Bullis, Proposition A          Option 1                                                                                     01Y
02150013096000083NONBULL   City of San Antonio Camp Bullis, Proposition A          Option 1                                                                                     01Y
02150013126000000NONBULL   City of San Antonio Camp Bullis, Proposition A          Option 1                                                                                     01Y
02150013174000095NONBULL   City of San Antonio Camp Bullis, Proposition A          Option 1                                                                                     01Y
02150013184000011NONBULL   City of San Antonio Camp Bullis, Proposition A          Option 1                                                                                     01Y
02150013194000047NONBULL   City of San Antonio Camp Bullis, Proposition A          Option 1                                                                                     01Y
02150013202000018NONBULL   City of San Antonio Camp Bullis, Proposition A          Option 1                                                                                     01Y
02150013203000010NONBULL   City of San Antonio Camp Bullis, Proposition A          Option 1                                                                                     01Y
02150023012000350NONBULL   City of San Antonio Camp Bullis, Proposition A          Option 2                                                                                     01Y
02150023055001367NONBULL   City of San Antonio Camp Bullis, Proposition A          Option 2                                                                                     01Y
02150023096001524NONBULL   City of San Antonio Camp Bullis, Proposition A          Option 2                                                                                     01Y
02150023126000009NONBULL   City of San Antonio Camp Bullis, Proposition A          Option 2                                                                                     01Y
02150023174002003NONBULL   City of San Antonio Camp Bullis, Proposition A          Option 2                                                                                     01Y
02150023184000059NONBULL   City of San Antonio Camp Bullis, Proposition A          Option 2                                                                                     01Y
02150023194001538NONBULL   City of San Antonio Camp Bullis, Proposition A          Option 2                                                                                     01Y
02150023202000406NONBULL   City of San Antonio Camp Bullis, Proposition A          Option 2                                                                                     01Y
02150023203000217NONBULL   City of San Antonio Camp Bullis, Proposition A          Option 2                                                                                     01Y
02150033012000000   BULL   City of San Antonio Camp Bullis, Proposition A          OVER VOTES                                                                                   01Y
02150033055000000   BULL   City of San Antonio Camp Bullis, Proposition A          OVER VOTES                                                                                   01Y
02150033096000000   BULL   City of San Antonio Camp Bullis, Proposition A          OVER VOTES                                                                                   01Y
02150033126000000   BULL   City of San Antonio Camp Bullis, Proposition A          OVER VOTES                                                                                   01Y
02150033174000000   BULL   City of San Antonio Camp Bullis, Proposition A          OVER VOTES                                                                                   01Y
02150033184000000   BULL   City of San Antonio Camp Bullis, Proposition A          OVER VOTES                                                                                   01Y
02150033194000000   BULL   City of San Antonio Camp Bullis, Proposition A          OVER VOTES                                                                                   01Y
02150033202000000   BULL   City of San Antonio Camp Bullis, Proposition A          OVER VOTES                                                                                   01Y
02150033203000000   BULL   City of San Antonio Camp Bullis, Proposition A          OVER VOTES                                                                                   01Y
02150043012000004   BULL   City of San Antonio Camp Bullis, Proposition A          UNDER VOTES                                                                                  01Y
02150043055000020   BULL   City of San Antonio Camp Bullis, Proposition A          UNDER VOTES                                                                                  01Y
02150043096000047   BULL   City of San Antonio Camp Bullis, Proposition A          UNDER VOTES                                                                                  01Y
02150043126000002   BULL   City of San Antonio Camp Bullis, Proposition A          UNDER VOTES                                                                                  01Y
02150043174000029   BULL   City of San Antonio Camp Bullis, Proposition A          UNDER VOTES                                                                                  01Y
02150043184000005   BULL   City of San Antonio Camp Bullis, Proposition A          UNDER VOTES                                                                                  01Y
02150043194000034   BULL   City of San Antonio Camp Bullis, Proposition A          UNDER VOTES                                                                                  01Y
02150043202000008   BULL   City of San Antonio Camp Bullis, Proposition A          UNDER VOTES                                                                                  01Y
02150043203000005   BULL   City of San Antonio Camp Bullis, Proposition A          UNDER VOTES                                                                                  01Y
02160011009000103NONLACK   City of San Antonio Lackland, Proposition A             Option 1                                                                                     01Y
02160011027000016NONLACK   City of San Antonio Lackland, Proposition A             Option 1                                                                                     01Y
02160011067000018NONLACK   City of San Antonio Lackland, Proposition A             Option 1                                                                                     01Y
02160011068000000NONLACK   City of San Antonio Lackland, Proposition A             Option 1                                                                                     01Y
02160011073000014NONLACK   City of San Antonio Lackland, Proposition A             Option 1                                                                                     01Y
02160011082000288NONLACK   City of San Antonio Lackland, Proposition A             Option 1                                                                                     01Y
02160011108000142NONLACK   City of San Antonio Lackland, Proposition A             Option 1                                                                                     01Y
02160011110000181NONLACK   City of San Antonio Lackland, Proposition A             Option 1                                                                                     01Y
02160011112000242NONLACK   City of San Antonio Lackland, Proposition A             Option 1                                                                                     01Y
02160011128000055NONLACK   City of San Antonio Lackland, Proposition A             Option 1                                                                                     01Y
02160011140000059NONLACK   City of San Antonio Lackland, Proposition A             Option 1                                                                                     01Y
02160011141000069NONLACK   City of San Antonio Lackland, Proposition A             Option 1                                                                                     01Y
02160011142000080NONLACK   City of San Antonio Lackland, Proposition A             Option 1                                                                                     01Y
02160021009000419NONLACK   City of San Antonio Lackland, Proposition A             Option 2                                                                                     01Y
02160021027000061NONLACK   City of San Antonio Lackland, Proposition A             Option 2                                                                                     01Y
02160021067000120NONLACK   City of San Antonio Lackland, Proposition A             Option 2                                                                                     01Y
02160021068000000NONLACK   City of San Antonio Lackland, Proposition A             Option 2                                                                                     01Y
02160021073000074NONLACK   City of San Antonio Lackland, Proposition A             Option 2                                                                                     01Y
02160021082001131NONLACK   City of San Antonio Lackland, Proposition A             Option 2                                                                                     01Y
02160021108001174NONLACK   City of San Antonio Lackland, Proposition A             Option 2                                                                                     01Y
02160021110001190NONLACK   City of San Antonio Lackland, Proposition A             Option 2                                                                                     01Y
02160021112000893NONLACK   City of San Antonio Lackland, Proposition A             Option 2                                                                                     01Y
02160021128000284NONLACK   City of San Antonio Lackland, Proposition A             Option 2                                                                                     01Y
02160021140000320NONLACK   City of San Antonio Lackland, Proposition A             Option 2                                                                                     01Y
02160021141000418NONLACK   City of San Antonio Lackland, Proposition A             Option 2                                                                                     01Y
02160021142000443NONLACK   City of San Antonio Lackland, Proposition A             Option 2                                                                                     01Y
02160031009000000   LACK   City of San Antonio Lackland, Proposition A             OVER VOTES                                                                                   01Y
02160031027000000   LACK   City of San Antonio Lackland, Proposition A             OVER VOTES                                                                                   01Y
02160031067000000   LACK   City of San Antonio Lackland, Proposition A             OVER VOTES                                                                                   01Y
02160031068000000   LACK   City of San Antonio Lackland, Proposition A             OVER VOTES                                                                                   01Y
02160031073000000   LACK   City of San Antonio Lackland, Proposition A             OVER VOTES                                                                                   01Y
02160031082000000   LACK   City of San Antonio Lackland, Proposition A             OVER VOTES                                                                                   01Y
02160031108000001   LACK   City of San Antonio Lackland, Proposition A             OVER VOTES                                                                                   01Y
02160031110000000   LACK   City of San Antonio Lackland, Proposition A             OVER VOTES                                                                                   01Y
02160031112000000   LACK   City of San Antonio Lackland, Proposition A             OVER VOTES                                                                                   01Y
02160031128000000   LACK   City of San Antonio Lackland, Proposition A             OVER VOTES                                                                                   01Y
02160031140000000   LACK   City of San Antonio Lackland, Proposition A             OVER VOTES                                                                                   01Y
02160031141000000   LACK   City of San Antonio Lackland, Proposition A             OVER VOTES                                                                                   01Y
02160031142000000   LACK   City of San Antonio Lackland, Proposition A             OVER VOTES                                                                                   01Y
02160041009000039   LACK   City of San Antonio Lackland, Proposition A             UNDER VOTES                                                                                  01Y
02160041027000006   LACK   City of San Antonio Lackland, Proposition A             UNDER VOTES                                                                                  01Y
02160041067000006   LACK   City of San Antonio Lackland, Proposition A             UNDER VOTES                                                                                  01Y
02160041068000000   LACK   City of San Antonio Lackland, Proposition A             UNDER VOTES                                                                                  01Y
02160041073000003   LACK   City of San Antonio Lackland, Proposition A             UNDER VOTES                                                                                  01Y
02160041082000084   LACK   City of San Antonio Lackland, Proposition A             UNDER VOTES                                                                                  01Y
02160041108000077   LACK   City of San Antonio Lackland, Proposition A             UNDER VOTES                                                                                  01Y
02160041110000078   LACK   City of San Antonio Lackland, Proposition A             UNDER VOTES                                                                                  01Y
02160041112000087   LACK   City of San Antonio Lackland, Proposition A             UNDER VOTES                                                                                  01Y
02160041128000019   LACK   City of San Antonio Lackland, Proposition A             UNDER VOTES                                                                                  01Y
02160041140000023   LACK   City of San Antonio Lackland, Proposition A             UNDER VOTES                                                                                  01Y
02160041141000024   LACK   City of San Antonio Lackland, Proposition A             UNDER VOTES                                                                                  01Y
02160041142000034   LACK   City of San Antonio Lackland, Proposition A             UNDER VOTES                                                                                  01Y
