02150013012000015NONBULL   City of San Antonio Camp Bullis, Proposition A          Option 1                                                                                     01Y
02150013055000036NONBULL   City of San Antonio Camp Bullis, Proposition A          Option 1                                                                                     01Y
02150013096000110NONBULL   City of San Antonio Camp Bullis, Proposition A          Option 1                                                                                     01Y
02150013126000000NONBULL   City of San Antonio Camp Bullis, Proposition A          Option 1                                                                                     01Y
02150013174000124NONBULL   City of San Antonio Camp Bullis, Proposition A          Option 1                                                                                     01Y
02150013184000013NONBULL   City of San Antonio Camp Bullis, Proposition A          Option 1                                                                                     01Y
02150013194000068NONBULL   City of San Antonio Camp Bullis, Proposition A          Option 1                                                                                     01Y
02150013202000023NONBULL   City of San Antonio Camp Bullis, Proposition A          Option 1                                                                                     01Y
02150013203000011NONBULL   City of San Antonio Camp Bullis, Proposition A          Option 1                                                                                     01Y
02150023012000428NONBULL   City of San Antonio Camp Bullis, Proposition A          Option 2                                                                                     01Y
02150023055001727NONBULL   City of San Antonio Camp Bullis, Proposition A          Option 2                                                                                     01Y
02150023096001873NONBULL   City of San Antonio Camp Bullis, Proposition A          Option 2                                                                                     01Y
02150023126000010NONBULL   City of San Antonio Camp Bullis, Proposition A          Option 2                                                                                     01Y
02150023174002533NONBULL   City of San Antonio Camp Bullis, Proposition A          Option 2                                                                                     01Y
02150023184000086NONBULL   City of San Antonio Camp Bullis, Proposition A          Option 2                                                                                     01Y
02150023194002011NONBULL   City of San Antonio Camp Bullis, Proposition A          Option 2                                                                                     01Y
02150023202000553NONBULL   City of San Antonio Camp Bullis, Proposition A          Option 2                                                                                     01Y
02150023203000278NONBULL   City of San Antonio Camp Bullis, Proposition A          Option 2                                                                                     01Y
02150033012000000   BULL   City of San Antonio Camp Bullis, Proposition A          OVER VOTES                                                                                   01Y
02150033055000000   BULL   City of San Antonio Camp Bullis, Proposition A          OVER VOTES                                                                                   01Y
02150033096000000   BULL   City of San Antonio Camp Bullis, Proposition A          OVER VOTES                                                                                   01Y
02150033126000000   BULL   City of San Antonio Camp Bullis, Proposition A          OVER VOTES                                                                                   01Y
02150033174000000   BULL   City of San Antonio Camp Bullis, Proposition A          OVER VOTES                                                                                   01Y
02150033184000000   BULL   City of San Antonio Camp Bullis, Proposition A          OVER VOTES                                                                                   01Y
02150033194000000   BULL   City of San Antonio Camp Bullis, Proposition A          OVER VOTES                                                                                   01Y
02150033202000000   BULL   City of San Antonio Camp Bullis, Proposition A          OVER VOTES                                                                                   01Y
02150033203000000   BULL   City of San Antonio Camp Bullis, Proposition A          OVER VOTES                                                                                   01Y
02150043012000007   BULL   City of San Antonio Camp Bullis, Proposition A          UNDER VOTES                                                                                  01Y
02150043055000026   BULL   City of San Antonio Camp Bullis, Proposition A          UNDER VOTES                                                                                  01Y
02150043096000060   BULL   City of San Antonio Camp Bullis, Proposition A          UNDER VOTES                                                                                  01Y
02150043126000002   BULL   City of San Antonio Camp Bullis, Proposition A          UNDER VOTES                                                                                  01Y
02150043174000043   BULL   City of San Antonio Camp Bullis, Proposition A          UNDER VOTES                                                                                  01Y
02150043184000008   BULL   City of San Antonio Camp Bullis, Proposition A          UNDER VOTES                                                                                  01Y
02150043194000047   BULL   City of San Antonio Camp Bullis, Proposition A          UNDER VOTES                                                                                  01Y
02150043202000015   BULL   City of San Antonio Camp Bullis, Proposition A          UNDER VOTES                                                                                  01Y
02150043203000007   BULL   City of San Antonio Camp Bullis, Proposition A          UNDER VOTES                                                                                  01Y
02160011009000160NONLACK   City of San Antonio Lackland, Proposition A             Option 1                                                                                     01Y
02160011027000022NONLACK   City of San Antonio Lackland, Proposition A             Option 1                                                                                     01Y
02160011067000022NONLACK   City of San Antonio Lackland, Proposition A             Option 1                                                                                     01Y
02160011068000000NONLACK   City of San Antonio Lackland, Proposition A             Option 1                                                                                     01Y
02160011073000025NONLACK   City of San Antonio Lackland, Proposition A             Option 1                                                                                     01Y
02160011082000410NONLACK   City of San Antonio Lackland, Proposition A             Option 1                                                                                     01Y
02160011108000211NONLACK   City of San Antonio Lackland, Proposition A             Option 1                                                                                     01Y
02160011110000264NONLACK   City of San Antonio Lackland, Proposition A             Option 1                                                                                     01Y
02160011112000343NONLACK   City of San Antonio Lackland, Proposition A             Option 1                                                                                     01Y
02160011128000080NONLACK   City of San Antonio Lackland, Proposition A             Option 1                                                                                     01Y
02160011140000081NONLACK   City of San Antonio Lackland, Proposition A             Option 1                                                                                     01Y
02160011141000102NONLACK   City of San Antonio Lackland, Proposition A             Option 1                                                                                     01Y
02160011142000112NONLACK   City of San Antonio Lackland, Proposition A             Option 1                                                                                     01Y
02160021009000574NONLACK   City of San Antonio Lackland, Proposition A             Option 2                                                                                     01Y
02160021027000085NONLACK   City of San Antonio Lackland, Proposition A             Option 2                                                                                     01Y
02160021067000144NONLACK   City of San Antonio Lackland, Proposition A             Option 2                                                                                     01Y
02160021068000000NONLACK   City of San Antonio Lackland, Proposition A             Option 2                                                                                     01Y
02160021073000123NONLACK   City of San Antonio Lackland, Proposition A             Option 2                                                                                     01Y
02160021082001636NONLACK   City of San Antonio Lackland, Proposition A             Option 2                                                                                     01Y
02160021108001711NONLACK   City of San Antonio Lackland, Proposition A             Option 2                                                                                     01Y
02160021110001857NONLACK   City of San Antonio Lackland, Proposition A             Option 2                                                                                     01Y
02160021112001352NONLACK   City of San Antonio Lackland, Proposition A             Option 2                                                                                     01Y
02160021128000371NONLACK   City of San Antonio Lackland, Proposition A             Option 2                                                                                     01Y
02160021140000453NONLACK   City of San Antonio Lackland, Proposition A             Option 2                                                                                     01Y
02160021141000607NONLACK   City of San Antonio Lackland, Proposition A             Option 2                                                                                     01Y
02160021142000651NONLACK   City of San Antonio Lackland, Proposition A             Option 2                                                                                     01Y
02160031009000000   LACK   City of San Antonio Lackland, Proposition A             OVER VOTES                                                                                   01Y
02160031027000000   LACK   City of San Antonio Lackland, Proposition A             OVER VOTES                                                                                   01Y
02160031067000000   LACK   City of San Antonio Lackland, Proposition A             OVER VOTES                                                                                   01Y
02160031068000000   LACK   City of San Antonio Lackland, Proposition A             OVER VOTES                                                                                   01Y
02160031073000000   LACK   City of San Antonio Lackland, Proposition A             OVER VOTES                                                                                   01Y
02160031082000000   LACK   City of San Antonio Lackland, Proposition A             OVER VOTES                                                                                   01Y
02160031108000001   LACK   City of San Antonio Lackland, Proposition A             OVER VOTES                                                                                   01Y
02160031110000000   LACK   City of San Antonio Lackland, Proposition A             OVER VOTES                                                                                   01Y
02160031112000000   LACK   City of San Antonio Lackland, Proposition A             OVER VOTES                                                                                   01Y
02160031128000000   LACK   City of San Antonio Lackland, Proposition A             OVER VOTES                                                                                   01Y
02160031140000000   LACK   City of San Antonio Lackland, Proposition A             OVER VOTES                                                                                   01Y
02160031141000000   LACK   City of San Antonio Lackland, Proposition A             OVER VOTES                                                                                   01Y
02160031142000000   LACK   City of San Antonio Lackland, Proposition A             OVER VOTES                                                                                   01Y
02160041009000055   LACK   City of San Antonio Lackland, Proposition A             UNDER VOTES                                                                                  01Y
02160041027000011   LACK   City of San Antonio Lackland, Proposition A             UNDER VOTES                                                                                  01Y
02160041067000008   LACK   City of San Antonio Lackland, Proposition A             UNDER VOTES                                                                                  01Y
02160041068000000   LACK   City of San Antonio Lackland, Proposition A             UNDER VOTES                                                                                  01Y
02160041073000003   LACK   City of San Antonio Lackland, Proposition A             UNDER VOTES                                                                                  01Y
02160041082000118   LACK   City of San Antonio Lackland, Proposition A             UNDER VOTES                                                                                  01Y
02160041108000112   LACK   City of San Antonio Lackland, Proposition A             UNDER VOTES                                                                                  01Y
02160041110000107   LACK   City of San Antonio Lackland, Proposition A             UNDER VOTES                                                                                  01Y
02160041112000125   LACK   City of San Antonio Lackland, Proposition A             UNDER VOTES                                                                                  01Y
02160041128000021   LACK   City of San Antonio Lackland, Proposition A             UNDER VOTES                                                                                  01Y
02160041140000031   LACK   City of San Antonio Lackland, Proposition A             UNDER VOTES                                                                                  01Y
02160041141000035   LACK   City of San Antonio Lackland, Proposition A             UNDER VOTES                                                                                  01Y
02160041142000048   LACK   City of San Antonio Lackland, Proposition A             UNDER VOTES                                                                                  01Y
