00010010001001149000000000000000000000000000000000000000000000000000000000000000000000000000000000000          REGISTERED VOTERS - TOTAL                               REGISTERED VOTERS - TOTAL             PRECINCT NO. 10                                        00 
00010010002000542000000000000000000000000000000000000000000000000000000000000000000000000000000000000          REGISTERED VOTERS - TOTAL                               REGISTERED VOTERS - TOTAL             PRECINCT NO. 11                                        00 
00010010003001221000000000000000000000000000000000000000000000000000000000000000000000000000000000000          REGISTERED VOTERS - TOTAL                               REGISTERED VOTERS - TOTAL             PRECINCT NO. 12                                        00 
00010010004001757000000000000000000000000000000000000000000000000000000000000000000000000000000000000          REGISTERED VOTERS - TOTAL                               REGISTERED VOTERS - TOTAL             PRECINCT NO. 18                                        00 
00010010005001348000000000000000000000000000000000000000000000000000000000000000000000000000000000000          REGISTERED VOTERS - TOTAL                               REGISTERED VOTERS - TOTAL             PRECINCT NO. 19                                        00 
00010010006001283000000000000000000000000000000000000000000000000000000000000000000000000000000000000          REGISTERED VOTERS - TOTAL                               REGISTERED VOTERS - TOTAL             PRECINCT NO. 20                                        00 
00010010007001433000000000000000000000000000000000000000000000000000000000000000000000000000000000000          REGISTERED VOTERS - TOTAL                               REGISTERED VOTERS - TOTAL             PRECINCT NO. 21                                        00 
00010010008000533000000000000000000000000000000000000000000000000000000000000000000000000000000000000          REGISTERED VOTERS - TOTAL                               REGISTERED VOTERS - TOTAL             PRECINCT NO. 23                                        00 
00010010009000765000000000000000000000000000000000000000000000000000000000000000000000000000000000000          REGISTERED VOTERS - TOTAL                               REGISTERED VOTERS - TOTAL             PRECINCT NO. 24                                        00 
00010010010000742000000000000000000000000000000000000000000000000000000000000000000000000000000000000          REGISTERED VOTERS - TOTAL                               REGISTERED VOTERS - TOTAL             PRECINCT NO. 25                                        00 
00010010011000617000000000000000000000000000000000000000000000000000000000000000000000000000000000000          REGISTERED VOTERS - TOTAL                               REGISTERED VOTERS - TOTAL             PRECINCT NO. 30                                        00 
00010010012001197000000000000000000000000000000000000000000000000000000000000000000000000000000000000          REGISTERED VOTERS - TOTAL                               REGISTERED VOTERS - TOTAL             PRECINCT NO. 31                                        00 
00010010013001650000000000000000000000000000000000000000000000000000000000000000000000000000000000000          REGISTERED VOTERS - TOTAL                               REGISTERED VOTERS - TOTAL             PRECINCT NO. 32                                        00 
00010010014001032000000000000000000000000000000000000000000000000000000000000000000000000000000000000          REGISTERED VOTERS - TOTAL                               REGISTERED VOTERS - TOTAL             PRECINCT NO. 33                                        00 
00010010015001043000000000000000000000000000000000000000000000000000000000000000000000000000000000000          REGISTERED VOTERS - TOTAL                               REGISTERED VOTERS - TOTAL             PRECINCT NO. 34                                        00 
00010010016000211000000000000000000000000000000000000000000000000000000000000000000000000000000000000          REGISTERED VOTERS - TOTAL                               REGISTERED VOTERS - TOTAL             PRECINCT NO. 35                                        00 
00010010017000673000000000000000000000000000000000000000000000000000000000000000000000000000000000000          REGISTERED VOTERS - TOTAL                               REGISTERED VOTERS - TOTAL             PRECINCT NO. 41                                        00 
00010010018001839000000000000000000000000000000000000000000000000000000000000000000000000000000000000          REGISTERED VOTERS - TOTAL                               REGISTERED VOTERS - TOTAL             PRECINCT NO. 44                                        00 
00010010019001544000000000000000000000000000000000000000000000000000000000000000000000000000000000000          REGISTERED VOTERS - TOTAL                               REGISTERED VOTERS - TOTAL             PRECINCT NO. 45                                        00 
00010010020000797000000000000000000000000000000000000000000000000000000000000000000000000000000000000          REGISTERED VOTERS - TOTAL                               REGISTERED VOTERS - TOTAL             PRECINCT NO. 46                                        00 
00010010021001136000000000000000000000000000000000000000000000000000000000000000000000000000000000000          REGISTERED VOTERS - TOTAL                               REGISTERED VOTERS - TOTAL             PRECINCT NO. 47                                        00 
00020010001000556000085000286000185000000000000000000000000000000000000000000000000000000000000000000          BALLOTS CAST - TOTAL                                    BALLOTS CAST - TOTAL                  PRECINCT NO. 10                                        00 
00020010002000247000053000126000068000000000000000000000000000000000000000000000000000000000000000000          BALLOTS CAST - TOTAL                                    BALLOTS CAST - TOTAL                  PRECINCT NO. 11                                        00 
00020010003000760000051000513000196000000000000000000000000000000000000000000000000000000000000000000          BALLOTS CAST - TOTAL                                    BALLOTS CAST - TOTAL                  PRECINCT NO. 12                                        00 
00020010004001085000062000704000319000000000000000000000000000000000000000000000000000000000000000000          BALLOTS CAST - TOTAL                                    BALLOTS CAST - TOTAL                  PRECINCT NO. 18                                        00 
00020010005000755000037000516000202000000000000000000000000000000000000000000000000000000000000000000          BALLOTS CAST - TOTAL                                    BALLOTS CAST - TOTAL                  PRECINCT NO. 19                                        00 
00020010006000653000045000408000200000000000000000000000000000000000000000000000000000000000000000000          BALLOTS CAST - TOTAL                                    BALLOTS CAST - TOTAL                  PRECINCT NO. 20                                        00 
00020010007000709000021000406000282000000000000000000000000000000000000000000000000000000000000000000          BALLOTS CAST - TOTAL                                    BALLOTS CAST - TOTAL                  PRECINCT NO. 21                                        00 
00020010008000264000015000165000084000000000000000000000000000000000000000000000000000000000000000000          BALLOTS CAST - TOTAL                                    BALLOTS CAST - TOTAL                  PRECINCT NO. 23                                        00 
00020010009000502000042000365000095000000000000000000000000000000000000000000000000000000000000000000          BALLOTS CAST - TOTAL                                    BALLOTS CAST - TOTAL                  PRECINCT NO. 24                                        00 
00020010010000445000039000225000181000000000000000000000000000000000000000000000000000000000000000000          BALLOTS CAST - TOTAL                                    BALLOTS CAST - TOTAL                  PRECINCT NO. 25                                        00 
00020010011000398000034000204000160000000000000000000000000000000000000000000000000000000000000000000          BALLOTS CAST - TOTAL                                    BALLOTS CAST - TOTAL                  PRECINCT NO. 30                                        00 
00020010012000721000040000389000292000000000000000000000000000000000000000000000000000000000000000000          BALLOTS CAST - TOTAL                                    BALLOTS CAST - TOTAL                  PRECINCT NO. 31                                        00 
00020010013000851000044000553000254000000000000000000000000000000000000000000000000000000000000000000          BALLOTS CAST - TOTAL                                    BALLOTS CAST - TOTAL                  PRECINCT NO. 32                                        00 
00020010014000433000024000265000144000000000000000000000000000000000000000000000000000000000000000000          BALLOTS CAST - TOTAL                                    BALLOTS CAST - TOTAL                  PRECINCT NO. 33                                        00 
00020010015000700000035000380000285000000000000000000000000000000000000000000000000000000000000000000          BALLOTS CAST - TOTAL                                    BALLOTS CAST - TOTAL                  PRECINCT NO. 34                                        00 
00020010016000068000000000038000030000000000000000000000000000000000000000000000000000000000000000000          BALLOTS CAST - TOTAL                                    BALLOTS CAST - TOTAL                  PRECINCT NO. 35                                        00 
00020010017000447000031000256000160000000000000000000000000000000000000000000000000000000000000000000          BALLOTS CAST - TOTAL                                    BALLOTS CAST - TOTAL                  PRECINCT NO. 41                                        00 
00020010018001210000073000745000392000000000000000000000000000000000000000000000000000000000000000000          BALLOTS CAST - TOTAL                                    BALLOTS CAST - TOTAL                  PRECINCT NO. 44                                        00 
00020010019000866000048000523000295000000000000000000000000000000000000000000000000000000000000000000          BALLOTS CAST - TOTAL                                    BALLOTS CAST - TOTAL                  PRECINCT NO. 45                                        00 
00020010020000367000019000234000114000000000000000000000000000000000000000000000000000000000000000000          BALLOTS CAST - TOTAL                                    BALLOTS CAST - TOTAL                  PRECINCT NO. 46                                        00 
00020010021000607000039000378000190000000000000000000000000000000000000000000000000000000000000000000          BALLOTS CAST - TOTAL                                    BALLOTS CAST - TOTAL                  PRECINCT NO. 47                                        00 
00030010001000000000000000000000000000000000000000000000000000000000000000000000000000000000000000000          BALLOTS CAST - BLANK                                    BALLOTS CAST - BLANK                  PRECINCT NO. 10                                        00 
00030010002000000000000000000000000000000000000000000000000000000000000000000000000000000000000000000          BALLOTS CAST - BLANK                                    BALLOTS CAST - BLANK                  PRECINCT NO. 11                                        00 
00030010003000000000000000000000000000000000000000000000000000000000000000000000000000000000000000000          BALLOTS CAST - BLANK                                    BALLOTS CAST - BLANK                  PRECINCT NO. 12                                        00 
00030010004000000000000000000000000000000000000000000000000000000000000000000000000000000000000000000          BALLOTS CAST - BLANK                                    BALLOTS CAST - BLANK                  PRECINCT NO. 18                                        00 
00030010005000000000000000000000000000000000000000000000000000000000000000000000000000000000000000000          BALLOTS CAST - BLANK                                    BALLOTS CAST - BLANK                  PRECINCT NO. 19                                        00 
00030010006000000000000000000000000000000000000000000000000000000000000000000000000000000000000000000          BALLOTS CAST - BLANK                                    BALLOTS CAST - BLANK                  PRECINCT NO. 20                                        00 
00030010007000000000000000000000000000000000000000000000000000000000000000000000000000000000000000000          BALLOTS CAST - BLANK                                    BALLOTS CAST - BLANK                  PRECINCT NO. 21                                        00 
00030010008000000000000000000000000000000000000000000000000000000000000000000000000000000000000000000          BALLOTS CAST - BLANK                                    BALLOTS CAST - BLANK                  PRECINCT NO. 23                                        00 
00030010009000000000000000000000000000000000000000000000000000000000000000000000000000000000000000000          BALLOTS CAST - BLANK                                    BALLOTS CAST - BLANK                  PRECINCT NO. 24                                        00 
00030010010000000000000000000000000000000000000000000000000000000000000000000000000000000000000000000          BALLOTS CAST - BLANK                                    BALLOTS CAST - BLANK                  PRECINCT NO. 25                                        00 
00030010011000001000000000000000001000000000000000000000000000000000000000000000000000000000000000000          BALLOTS CAST - BLANK                                    BALLOTS CAST - BLANK                  PRECINCT NO. 30                                        00 
00030010012000000000000000000000000000000000000000000000000000000000000000000000000000000000000000000          BALLOTS CAST - BLANK                                    BALLOTS CAST - BLANK                  PRECINCT NO. 31                                        00 
00030010013000000000000000000000000000000000000000000000000000000000000000000000000000000000000000000          BALLOTS CAST - BLANK                                    BALLOTS CAST - BLANK                  PRECINCT NO. 32                                        00 
00030010014000000000000000000000000000000000000000000000000000000000000000000000000000000000000000000          BALLOTS CAST - BLANK                                    BALLOTS CAST - BLANK                  PRECINCT NO. 33                                        00 
00030010015000001000000000001000000000000000000000000000000000000000000000000000000000000000000000000          BALLOTS CAST - BLANK                                    BALLOTS CAST - BLANK                  PRECINCT NO. 34                                        00 
00030010016000000000000000000000000000000000000000000000000000000000000000000000000000000000000000000          BALLOTS CAST - BLANK                                    BALLOTS CAST - BLANK                  PRECINCT NO. 35                                        00 
00030010017000000000000000000000000000000000000000000000000000000000000000000000000000000000000000000          BALLOTS CAST - BLANK                                    BALLOTS CAST - BLANK                  PRECINCT NO. 41                                        00 
00030010018000000000000000000000000000000000000000000000000000000000000000000000000000000000000000000          BALLOTS CAST - BLANK                                    BALLOTS CAST - BLANK                  PRECINCT NO. 44                                        00 
00030010019000000000000000000000000000000000000000000000000000000000000000000000000000000000000000000          BALLOTS CAST - BLANK                                    BALLOTS CAST - BLANK                  PRECINCT NO. 45                                        00 
00030010020000000000000000000000000000000000000000000000000000000000000000000000000000000000000000000          BALLOTS CAST - BLANK                                    BALLOTS CAST - BLANK                  PRECINCT NO. 46                                        00 
00030010021000000000000000000000000000000000000000000000000000000000000000000000000000000000000000000          BALLOTS CAST - BLANK                                    BALLOTS CAST - BLANK                  PRECINCT NO. 47                                        00 
03010010001000256000014000154000088000000000000000000000000000000000000000000000000000000000000000000REP       Straight Party                                          Republican Party                      PRECINCT NO. 10                                        01 
03010010002000101000004000062000035000000000000000000000000000000000000000000000000000000000000000000REP       Straight Party                                          Republican Party                      PRECINCT NO. 11                                        01 
03010010003000413000025000281000107000000000000000000000000000000000000000000000000000000000000000000REP       Straight Party                                          Republican Party                      PRECINCT NO. 12                                        01 
03010010004000684000032000452000200000000000000000000000000000000000000000000000000000000000000000000REP       Straight Party                                          Republican Party                      PRECINCT NO. 18                                        01 
03010010005000453000019000307000127000000000000000000000000000000000000000000000000000000000000000000REP       Straight Party                                          Republican Party                      PRECINCT NO. 19                                        01 
03010010006000430000028000272000130000000000000000000000000000000000000000000000000000000000000000000REP       Straight Party                                          Republican Party                      PRECINCT NO. 20                                        01 
03010010007000424000012000250000162000000000000000000000000000000000000000000000000000000000000000000REP       Straight Party                                          Republican Party                      PRECINCT NO. 21                                        01 
03010010008000164000007000108000049000000000000000000000000000000000000000000000000000000000000000000REP       Straight Party                                          Republican Party                      PRECINCT NO. 23                                        01 
03010010009000289000029000203000057000000000000000000000000000000000000000000000000000000000000000000REP       Straight Party                                          Republican Party                      PRECINCT NO. 24                                        01 
03010010010000290000025000152000113000000000000000000000000000000000000000000000000000000000000000000REP       Straight Party                                          Republican Party                      PRECINCT NO. 25                                        01 
03010010011000260000018000131000111000000000000000000000000000000000000000000000000000000000000000000REP       Straight Party                                          Republican Party                      PRECINCT NO. 30                                        01 
03010010012000503000027000258000218000000000000000000000000000000000000000000000000000000000000000000REP       Straight Party                                          Republican Party                      PRECINCT NO. 31                                        01 
03010010013000512000022000343000147000000000000000000000000000000000000000000000000000000000000000000REP       Straight Party                                          Republican Party                      PRECINCT NO. 32                                        01 
03010010014000187000010000115000062000000000000000000000000000000000000000000000000000000000000000000REP       Straight Party                                          Republican Party                      PRECINCT NO. 33                                        01 
03010010015000479000021000256000202000000000000000000000000000000000000000000000000000000000000000000REP       Straight Party                                          Republican Party                      PRECINCT NO. 34                                        01 
03010010016000028000000000011000017000000000000000000000000000000000000000000000000000000000000000000REP       Straight Party                                          Republican Party                      PRECINCT NO. 35                                        01 
03010010017000321000023000190000108000000000000000000000000000000000000000000000000000000000000000000REP       Straight Party                                          Republican Party                      PRECINCT NO. 41                                        01 
03010010018000807000039000501000267000000000000000000000000000000000000000000000000000000000000000000REP       Straight Party                                          Republican Party                      PRECINCT NO. 44                                        01 
03010010019000431000026000258000147000000000000000000000000000000000000000000000000000000000000000000REP       Straight Party                                          Republican Party                      PRECINCT NO. 45                                        01 
03010010020000190000004000125000061000000000000000000000000000000000000000000000000000000000000000000REP       Straight Party                                          Republican Party                      PRECINCT NO. 46                                        01 
03010010021000336000023000203000110000000000000000000000000000000000000000000000000000000000000000000REP       Straight Party                                          Republican Party                      PRECINCT NO. 47                                        01 
03010020001000095000011000044000040000000000000000000000000000000000000000000000000000000000000000000DEM       Straight Party                                          Democratic Party                      PRECINCT NO. 10                                        01 
03010020002000043000001000022000020000000000000000000000000000000000000000000000000000000000000000000DEM       Straight Party                                          Democratic Party                      PRECINCT NO. 11                                        01 
03010020003000074000002000051000021000000000000000000000000000000000000000000000000000000000000000000DEM       Straight Party                                          Democratic Party                      PRECINCT NO. 12                                        01 
03010020004000080000004000051000025000000000000000000000000000000000000000000000000000000000000000000DEM       Straight Party                                          Democratic Party                      PRECINCT NO. 18                                        01 
03010020005000060000003000044000013000000000000000000000000000000000000000000000000000000000000000000DEM       Straight Party                                          Democratic Party                      PRECINCT NO. 19                                        01 
03010020006000083000007000051000025000000000000000000000000000000000000000000000000000000000000000000DEM       Straight Party                                          Democratic Party                      PRECINCT NO. 20                                        01 
03010020007000082000001000035000046000000000000000000000000000000000000000000000000000000000000000000DEM       Straight Party                                          Democratic Party                      PRECINCT NO. 21                                        01 
03010020008000038000002000018000018000000000000000000000000000000000000000000000000000000000000000000DEM       Straight Party                                          Democratic Party                      PRECINCT NO. 23                                        01 
03010020009000047000004000033000010000000000000000000000000000000000000000000000000000000000000000000DEM       Straight Party                                          Democratic Party                      PRECINCT NO. 24                                        01 
03010020010000028000003000012000013000000000000000000000000000000000000000000000000000000000000000000DEM       Straight Party                                          Democratic Party                      PRECINCT NO. 25                                        01 
03010020011000020000005000011000004000000000000000000000000000000000000000000000000000000000000000000DEM       Straight Party                                          Democratic Party                      PRECINCT NO. 30                                        01 
03010020012000050000000000037000013000000000000000000000000000000000000000000000000000000000000000000DEM       Straight Party                                          Democratic Party                      PRECINCT NO. 31                                        01 
03010020013000089000002000054000033000000000000000000000000000000000000000000000000000000000000000000DEM       Straight Party                                          Democratic Party                      PRECINCT NO. 32                                        01 
03010020014000089000004000052000033000000000000000000000000000000000000000000000000000000000000000000DEM       Straight Party                                          Democratic Party                      PRECINCT NO. 33                                        01 
03010020015000050000007000022000021000000000000000000000000000000000000000000000000000000000000000000DEM       Straight Party                                          Democratic Party                      PRECINCT NO. 34                                        01 
03010020016000029000000000019000010000000000000000000000000000000000000000000000000000000000000000000DEM       Straight Party                                          Democratic Party                      PRECINCT NO. 35                                        01 
03010020017000025000003000012000010000000000000000000000000000000000000000000000000000000000000000000DEM       Straight Party                                          Democratic Party                      PRECINCT NO. 41                                        01 
03010020018000087000005000056000026000000000000000000000000000000000000000000000000000000000000000000DEM       Straight Party                                          Democratic Party                      PRECINCT NO. 44                                        01 
03010020019000163000005000098000060000000000000000000000000000000000000000000000000000000000000000000DEM       Straight Party                                          Democratic Party                      PRECINCT NO. 45                                        01 
03010020020000066000002000042000022000000000000000000000000000000000000000000000000000000000000000000DEM       Straight Party                                          Democratic Party                      PRECINCT NO. 46                                        01 
03010020021000083000004000058000021000000000000000000000000000000000000000000000000000000000000000000DEM       Straight Party                                          Democratic Party                      PRECINCT NO. 47                                        01 
03010030001000006000000000004000002000000000000000000000000000000000000000000000000000000000000000000LIB       Straight Party                                          Libertarian Party                     PRECINCT NO. 10                                        01 
03010030002000001000000000001000000000000000000000000000000000000000000000000000000000000000000000000LIB       Straight Party                                          Libertarian Party                     PRECINCT NO. 11                                        01 
03010030003000003000000000001000002000000000000000000000000000000000000000000000000000000000000000000LIB       Straight Party                                          Libertarian Party                     PRECINCT NO. 12                                        01 
03010030004000007000000000003000004000000000000000000000000000000000000000000000000000000000000000000LIB       Straight Party                                          Libertarian Party                     PRECINCT NO. 18                                        01 
03010030005000002000000000002000000000000000000000000000000000000000000000000000000000000000000000000LIB       Straight Party                                          Libertarian Party                     PRECINCT NO. 19                                        01 
03010030006000001000000000001000000000000000000000000000000000000000000000000000000000000000000000000LIB       Straight Party                                          Libertarian Party                     PRECINCT NO. 20                                        01 
03010030007000004000000000000000004000000000000000000000000000000000000000000000000000000000000000000LIB       Straight Party                                          Libertarian Party                     PRECINCT NO. 21                                        01 
03010030008000000000000000000000000000000000000000000000000000000000000000000000000000000000000000000LIB       Straight Party                                          Libertarian Party                     PRECINCT NO. 23                                        01 
03010030009000001000000000001000000000000000000000000000000000000000000000000000000000000000000000000LIB       Straight Party                                          Libertarian Party                     PRECINCT NO. 24                                        01 
03010030010000002000000000000000002000000000000000000000000000000000000000000000000000000000000000000LIB       Straight Party                                          Libertarian Party                     PRECINCT NO. 25                                        01 
03010030011000000000000000000000000000000000000000000000000000000000000000000000000000000000000000000LIB       Straight Party                                          Libertarian Party                     PRECINCT NO. 30                                        01 
03010030012000000000000000000000000000000000000000000000000000000000000000000000000000000000000000000LIB       Straight Party                                          Libertarian Party                     PRECINCT NO. 31                                        01 
03010030013000007000001000003000003000000000000000000000000000000000000000000000000000000000000000000LIB       Straight Party                                          Libertarian Party                     PRECINCT NO. 32                                        01 
03010030014000007000000000006000001000000000000000000000000000000000000000000000000000000000000000000LIB       Straight Party                                          Libertarian Party                     PRECINCT NO. 33                                        01 
03010030015000000000000000000000000000000000000000000000000000000000000000000000000000000000000000000LIB       Straight Party                                          Libertarian Party                     PRECINCT NO. 34                                        01 
03010030016000000000000000000000000000000000000000000000000000000000000000000000000000000000000000000LIB       Straight Party                                          Libertarian Party                     PRECINCT NO. 35                                        01 
03010030017000002000000000001000001000000000000000000000000000000000000000000000000000000000000000000LIB       Straight Party                                          Libertarian Party                     PRECINCT NO. 41                                        01 
03010030018000008000000000002000006000000000000000000000000000000000000000000000000000000000000000000LIB       Straight Party                                          Libertarian Party                     PRECINCT NO. 44                                        01 
03010030019000008000000000002000006000000000000000000000000000000000000000000000000000000000000000000LIB       Straight Party                                          Libertarian Party                     PRECINCT NO. 45                                        01 
03010030020000003000000000002000001000000000000000000000000000000000000000000000000000000000000000000LIB       Straight Party                                          Libertarian Party                     PRECINCT NO. 46                                        01 
03010030021000002000000000001000001000000000000000000000000000000000000000000000000000000000000000000LIB       Straight Party                                          Libertarian Party                     PRECINCT NO. 47                                        01 
03020010001000384000058000205000121000000000000000000000000000000000000000000000000000000000000000000REP       United States Senator                                   Ted Cruz                              PRECINCT NO. 10                                        01 
03020010002000162000039000083000040000000000000000000000000000000000000000000000000000000000000000000REP       United States Senator                                   Ted Cruz                              PRECINCT NO. 11                                        01 
03020010003000593000037000405000151000000000000000000000000000000000000000000000000000000000000000000REP       United States Senator                                   Ted Cruz                              PRECINCT NO. 12                                        01 
03020010004000925000047000605000273000000000000000000000000000000000000000000000000000000000000000000REP       United States Senator                                   Ted Cruz                              PRECINCT NO. 18                                        01 
03020010005000622000032000426000164000000000000000000000000000000000000000000000000000000000000000000REP       United States Senator                                   Ted Cruz                              PRECINCT NO. 19                                        01 
03020010006000520000034000326000160000000000000000000000000000000000000000000000000000000000000000000REP       United States Senator                                   Ted Cruz                              PRECINCT NO. 20                                        01 
03020010007000573000020000335000218000000000000000000000000000000000000000000000000000000000000000000REP       United States Senator                                   Ted Cruz                              PRECINCT NO. 21                                        01 
03020010008000206000011000134000061000000000000000000000000000000000000000000000000000000000000000000REP       United States Senator                                   Ted Cruz                              PRECINCT NO. 23                                        01 
03020010009000401000036000291000074000000000000000000000000000000000000000000000000000000000000000000REP       United States Senator                                   Ted Cruz                              PRECINCT NO. 24                                        01 
03020010010000385000030000208000147000000000000000000000000000000000000000000000000000000000000000000REP       United States Senator                                   Ted Cruz                              PRECINCT NO. 25                                        01 
03020010011000346000024000173000149000000000000000000000000000000000000000000000000000000000000000000REP       United States Senator                                   Ted Cruz                              PRECINCT NO. 30                                        01 
03020010012000621000036000328000257000000000000000000000000000000000000000000000000000000000000000000REP       United States Senator                                   Ted Cruz                              PRECINCT NO. 31                                        01 
03020010013000688000035000453000200000000000000000000000000000000000000000000000000000000000000000000REP       United States Senator                                   Ted Cruz                              PRECINCT NO. 32                                        01 
03020010014000262000015000162000085000000000000000000000000000000000000000000000000000000000000000000REP       United States Senator                                   Ted Cruz                              PRECINCT NO. 33                                        01 
03020010015000608000025000335000248000000000000000000000000000000000000000000000000000000000000000000REP       United States Senator                                   Ted Cruz                              PRECINCT NO. 34                                        01 
03020010016000030000000000012000018000000000000000000000000000000000000000000000000000000000000000000REP       United States Senator                                   Ted Cruz                              PRECINCT NO. 35                                        01 
03020010017000393000026000229000138000000000000000000000000000000000000000000000000000000000000000000REP       United States Senator                                   Ted Cruz                              PRECINCT NO. 41                                        01 
03020010018001042000054000652000336000000000000000000000000000000000000000000000000000000000000000000REP       United States Senator                                   Ted Cruz                              PRECINCT NO. 44                                        01 
03020010019000570000032000348000190000000000000000000000000000000000000000000000000000000000000000000REP       United States Senator                                   Ted Cruz                              PRECINCT NO. 45                                        01 
03020010020000261000014000164000083000000000000000000000000000000000000000000000000000000000000000000REP       United States Senator                                   Ted Cruz                              PRECINCT NO. 46                                        01 
03020010021000463000031000281000151000000000000000000000000000000000000000000000000000000000000000000REP       United States Senator                                   Ted Cruz                              PRECINCT NO. 47                                        01 
03020020001000163000027000074000062000000000000000000000000000000000000000000000000000000000000000000DEM       United States Senator                                   Beto O'Rourke                         PRECINCT NO. 10                                        01 
03020020002000082000014000041000027000000000000000000000000000000000000000000000000000000000000000000DEM       United States Senator                                   Beto O'Rourke                         PRECINCT NO. 11                                        01 
03020020003000162000013000105000044000000000000000000000000000000000000000000000000000000000000000000DEM       United States Senator                                   Beto O'Rourke                         PRECINCT NO. 12                                        01 
03020020004000150000014000093000043000000000000000000000000000000000000000000000000000000000000000000DEM       United States Senator                                   Beto O'Rourke                         PRECINCT NO. 18                                        01 
03020020005000127000005000086000036000000000000000000000000000000000000000000000000000000000000000000DEM       United States Senator                                   Beto O'Rourke                         PRECINCT NO. 19                                        01 
03020020006000125000009000080000036000000000000000000000000000000000000000000000000000000000000000000DEM       United States Senator                                   Beto O'Rourke                         PRECINCT NO. 20                                        01 
03020020007000131000001000069000061000000000000000000000000000000000000000000000000000000000000000000DEM       United States Senator                                   Beto O'Rourke                         PRECINCT NO. 21                                        01 
03020020008000055000004000030000021000000000000000000000000000000000000000000000000000000000000000000DEM       United States Senator                                   Beto O'Rourke                         PRECINCT NO. 23                                        01 
03020020009000100000006000073000021000000000000000000000000000000000000000000000000000000000000000000DEM       United States Senator                                   Beto O'Rourke                         PRECINCT NO. 24                                        01 
03020020010000056000008000017000031000000000000000000000000000000000000000000000000000000000000000000DEM       United States Senator                                   Beto O'Rourke                         PRECINCT NO. 25                                        01 
03020020011000051000010000031000010000000000000000000000000000000000000000000000000000000000000000000DEM       United States Senator                                   Beto O'Rourke                         PRECINCT NO. 30                                        01 
03020020012000096000004000060000032000000000000000000000000000000000000000000000000000000000000000000DEM       United States Senator                                   Beto O'Rourke                         PRECINCT NO. 31                                        01 
03020020013000157000009000099000049000000000000000000000000000000000000000000000000000000000000000000DEM       United States Senator                                   Beto O'Rourke                         PRECINCT NO. 32                                        01 
03020020014000167000009000102000056000000000000000000000000000000000000000000000000000000000000000000DEM       United States Senator                                   Beto O'Rourke                         PRECINCT NO. 33                                        01 
03020020015000089000010000042000037000000000000000000000000000000000000000000000000000000000000000000DEM       United States Senator                                   Beto O'Rourke                         PRECINCT NO. 34                                        01 
03020020016000037000000000026000011000000000000000000000000000000000000000000000000000000000000000000DEM       United States Senator                                   Beto O'Rourke                         PRECINCT NO. 35                                        01 
03020020017000051000005000025000021000000000000000000000000000000000000000000000000000000000000000000DEM       United States Senator                                   Beto O'Rourke                         PRECINCT NO. 41                                        01 
03020020018000164000016000092000056000000000000000000000000000000000000000000000000000000000000000000DEM       United States Senator                                   Beto O'Rourke                         PRECINCT NO. 44                                        01 
03020020019000278000013000169000096000000000000000000000000000000000000000000000000000000000000000000DEM       United States Senator                                   Beto O'Rourke                         PRECINCT NO. 45                                        01 
03020020020000106000005000070000031000000000000000000000000000000000000000000000000000000000000000000DEM       United States Senator                                   Beto O'Rourke                         PRECINCT NO. 46                                        01 
03020020021000139000008000094000037000000000000000000000000000000000000000000000000000000000000000000DEM       United States Senator                                   Beto O'Rourke                         PRECINCT NO. 47                                        01 
03020030001000007000000000005000002000000000000000000000000000000000000000000000000000000000000000000LIB       United States Senator                                   Neal M. Dikeman                       PRECINCT NO. 10                                        01 
03020030002000003000000000002000001000000000000000000000000000000000000000000000000000000000000000000LIB       United States Senator                                   Neal M. Dikeman                       PRECINCT NO. 11                                        01 
03020030003000004000001000002000001000000000000000000000000000000000000000000000000000000000000000000LIB       United States Senator                                   Neal M. Dikeman                       PRECINCT NO. 12                                        01 
03020030004000008000000000005000003000000000000000000000000000000000000000000000000000000000000000000LIB       United States Senator                                   Neal M. Dikeman                       PRECINCT NO. 18                                        01 
03020030005000005000000000003000002000000000000000000000000000000000000000000000000000000000000000000LIB       United States Senator                                   Neal M. Dikeman                       PRECINCT NO. 19                                        01 
03020030006000008000002000002000004000000000000000000000000000000000000000000000000000000000000000000LIB       United States Senator                                   Neal M. Dikeman                       PRECINCT NO. 20                                        01 
03020030007000005000000000002000003000000000000000000000000000000000000000000000000000000000000000000LIB       United States Senator                                   Neal M. Dikeman                       PRECINCT NO. 21                                        01 
03020030008000003000000000001000002000000000000000000000000000000000000000000000000000000000000000000LIB       United States Senator                                   Neal M. Dikeman                       PRECINCT NO. 23                                        01 
03020030009000001000000000001000000000000000000000000000000000000000000000000000000000000000000000000LIB       United States Senator                                   Neal M. Dikeman                       PRECINCT NO. 24                                        01 
03020030010000003000000000000000003000000000000000000000000000000000000000000000000000000000000000000LIB       United States Senator                                   Neal M. Dikeman                       PRECINCT NO. 25                                        01 
03020030011000000000000000000000000000000000000000000000000000000000000000000000000000000000000000000LIB       United States Senator                                   Neal M. Dikeman                       PRECINCT NO. 30                                        01 
03020030012000001000000000000000001000000000000000000000000000000000000000000000000000000000000000000LIB       United States Senator                                   Neal M. Dikeman                       PRECINCT NO. 31                                        01 
03020030013000006000000000001000005000000000000000000000000000000000000000000000000000000000000000000LIB       United States Senator                                   Neal M. Dikeman                       PRECINCT NO. 32                                        01 
03020030014000004000000000001000003000000000000000000000000000000000000000000000000000000000000000000LIB       United States Senator                                   Neal M. Dikeman                       PRECINCT NO. 33                                        01 
03020030015000000000000000000000000000000000000000000000000000000000000000000000000000000000000000000LIB       United States Senator                                   Neal M. Dikeman                       PRECINCT NO. 34                                        01 
03020030016000001000000000000000001000000000000000000000000000000000000000000000000000000000000000000LIB       United States Senator                                   Neal M. Dikeman                       PRECINCT NO. 35                                        01 
03020030017000003000000000002000001000000000000000000000000000000000000000000000000000000000000000000LIB       United States Senator                                   Neal M. Dikeman                       PRECINCT NO. 41                                        01 
03020030018000003000002000001000000000000000000000000000000000000000000000000000000000000000000000000LIB       United States Senator                                   Neal M. Dikeman                       PRECINCT NO. 44                                        01 
03020030019000015000001000005000009000000000000000000000000000000000000000000000000000000000000000000LIB       United States Senator                                   Neal M. Dikeman                       PRECINCT NO. 45                                        01 
03020030020000000000000000000000000000000000000000000000000000000000000000000000000000000000000000000LIB       United States Senator                                   Neal M. Dikeman                       PRECINCT NO. 46                                        01 
03020030021000004000000000002000002000000000000000000000000000000000000000000000000000000000000000000LIB       United States Senator                                   Neal M. Dikeman                       PRECINCT NO. 47                                        01 
03030010002000142000018000082000042000000000000000000000000000000000000000000000000000000000000000000REPUSR0011US Representative District 11                           Mike Conaway                          PRECINCT NO. 11               District 11              01 
03030010006000534000036000331000167000000000000000000000000000000000000000000000000000000000000000000REPUSR0011US Representative District 11                           Mike Conaway                          PRECINCT NO. 20               District 11              01 
03030010007000581000019000338000224000000000000000000000000000000000000000000000000000000000000000000REPUSR0011US Representative District 11                           Mike Conaway                          PRECINCT NO. 21               District 11              01 
03030010008000204000011000132000061000000000000000000000000000000000000000000000000000000000000000000REPUSR0011US Representative District 11                           Mike Conaway                          PRECINCT NO. 23               District 11              01 
03030010010000385000031000207000147000000000000000000000000000000000000000000000000000000000000000000REPUSR0011US Representative District 11                           Mike Conaway                          PRECINCT NO. 25               District 11              01 
03030010011000352000027000176000149000000000000000000000000000000000000000000000000000000000000000000REPUSR0011US Representative District 11                           Mike Conaway                          PRECINCT NO. 30               District 11              01 
03030010013000690000034000458000198000000000000000000000000000000000000000000000000000000000000000000REPUSR0011US Representative District 11                           Mike Conaway                          PRECINCT NO. 32               District 11              01 
03030010014000274000016000170000088000000000000000000000000000000000000000000000000000000000000000000REPUSR0011US Representative District 11                           Mike Conaway                          PRECINCT NO. 33               District 11              01 
03030010015000610000025000335000250000000000000000000000000000000000000000000000000000000000000000000REPUSR0011US Representative District 11                           Mike Conaway                          PRECINCT NO. 34               District 11              01 
03030010017000396000026000231000139000000000000000000000000000000000000000000000000000000000000000000REPUSR0011US Representative District 11                           Mike Conaway                          PRECINCT NO. 41               District 11              01 
03030010018001057000061000654000342000000000000000000000000000000000000000000000000000000000000000000REPUSR0011US Representative District 11                           Mike Conaway                          PRECINCT NO. 44               District 11              01 
03030010020000259000013000165000081000000000000000000000000000000000000000000000000000000000000000000REPUSR0011US Representative District 11                           Mike Conaway                          PRECINCT NO. 46               District 11              01 
03030020002000066000003000039000024000000000000000000000000000000000000000000000000000000000000000000DEMUSR0011US Representative District 11                           Jennie Lou Leeder                     PRECINCT NO. 11               District 11              01 
03030020006000112000009000073000030000000000000000000000000000000000000000000000000000000000000000000DEMUSR0011US Representative District 11                           Jennie Lou Leeder                     PRECINCT NO. 20               District 11              01 
03030020007000114000001000062000051000000000000000000000000000000000000000000000000000000000000000000DEMUSR0011US Representative District 11                           Jennie Lou Leeder                     PRECINCT NO. 21               District 11              01 
03030020008000051000003000028000020000000000000000000000000000000000000000000000000000000000000000000DEMUSR0011US Representative District 11                           Jennie Lou Leeder                     PRECINCT NO. 23               District 11              01 
03030020010000049000007000017000025000000000000000000000000000000000000000000000000000000000000000000DEMUSR0011US Representative District 11                           Jennie Lou Leeder                     PRECINCT NO. 25               District 11              01 
03030020011000042000007000025000010000000000000000000000000000000000000000000000000000000000000000000DEMUSR0011US Representative District 11                           Jennie Lou Leeder                     PRECINCT NO. 30               District 11              01 
03030020013000139000009000085000045000000000000000000000000000000000000000000000000000000000000000000DEMUSR0011US Representative District 11                           Jennie Lou Leeder                     PRECINCT NO. 32               District 11              01 
03030020014000140000008000086000046000000000000000000000000000000000000000000000000000000000000000000DEMUSR0011US Representative District 11                           Jennie Lou Leeder                     PRECINCT NO. 33               District 11              01 
03030020015000079000010000040000029000000000000000000000000000000000000000000000000000000000000000000DEMUSR0011US Representative District 11                           Jennie Lou Leeder                     PRECINCT NO. 34               District 11              01 
03030020017000045000005000024000016000000000000000000000000000000000000000000000000000000000000000000DEMUSR0011US Representative District 11                           Jennie Lou Leeder                     PRECINCT NO. 41               District 11              01 
03030020018000135000011000081000043000000000000000000000000000000000000000000000000000000000000000000DEMUSR0011US Representative District 11                           Jennie Lou Leeder                     PRECINCT NO. 44               District 11              01 
03030020020000098000006000061000031000000000000000000000000000000000000000000000000000000000000000000DEMUSR0011US Representative District 11                           Jennie Lou Leeder                     PRECINCT NO. 46               District 11              01 
03030030002000004000000000002000002000000000000000000000000000000000000000000000000000000000000000000LIBUSR0011US Representative District 11                           Rhett Rosenquest Smith                PRECINCT NO. 11               District 11              01 
03030030006000007000000000004000003000000000000000000000000000000000000000000000000000000000000000000LIBUSR0011US Representative District 11                           Rhett Rosenquest Smith                PRECINCT NO. 20               District 11              01 
03030030007000007000000000002000005000000000000000000000000000000000000000000000000000000000000000000LIBUSR0011US Representative District 11                           Rhett Rosenquest Smith                PRECINCT NO. 21               District 11              01 
03030030008000004000000000001000003000000000000000000000000000000000000000000000000000000000000000000LIBUSR0011US Representative District 11                           Rhett Rosenquest Smith                PRECINCT NO. 23               District 11              01 
03030030010000006000000000000000006000000000000000000000000000000000000000000000000000000000000000000LIBUSR0011US Representative District 11                           Rhett Rosenquest Smith                PRECINCT NO. 25               District 11              01 
03030030011000002000000000002000000000000000000000000000000000000000000000000000000000000000000000000LIBUSR0011US Representative District 11                           Rhett Rosenquest Smith                PRECINCT NO. 30               District 11              01 
03030030013000018000000000007000011000000000000000000000000000000000000000000000000000000000000000000LIBUSR0011US Representative District 11                           Rhett Rosenquest Smith                PRECINCT NO. 32               District 11              01 
03030030014000016000000000008000008000000000000000000000000000000000000000000000000000000000000000000LIBUSR0011US Representative District 11                           Rhett Rosenquest Smith                PRECINCT NO. 33               District 11              01 
03030030015000007000000000003000004000000000000000000000000000000000000000000000000000000000000000000LIBUSR0011US Representative District 11                           Rhett Rosenquest Smith                PRECINCT NO. 34               District 11              01 
03030030017000003000000000000000003000000000000000000000000000000000000000000000000000000000000000000LIBUSR0011US Representative District 11                           Rhett Rosenquest Smith                PRECINCT NO. 41               District 11              01 
03030030018000009000000000005000004000000000000000000000000000000000000000000000000000000000000000000LIBUSR0011US Representative District 11                           Rhett Rosenquest Smith                PRECINCT NO. 44               District 11              01 
03030030020000005000000000004000001000000000000000000000000000000000000000000000000000000000000000000LIBUSR0011US Representative District 11                           Rhett Rosenquest Smith                PRECINCT NO. 46               District 11              01 
03040010001000359000034000206000119000000000000000000000000000000000000000000000000000000000000000000REPUSR0025US Representative District 25                           Roger Williams                        PRECINCT NO. 10               District 25              01 
03040010003000615000037000423000155000000000000000000000000000000000000000000000000000000000000000000REPUSR0025US Representative District 25                           Roger Williams                        PRECINCT NO. 12               District 25              01 
03040010004000921000046000609000266000000000000000000000000000000000000000000000000000000000000000000REPUSR0025US Representative District 25                           Roger Williams                        PRECINCT NO. 18               District 25              01 
03040010005000629000032000430000167000000000000000000000000000000000000000000000000000000000000000000REPUSR0025US Representative District 25                           Roger Williams                        PRECINCT NO. 19               District 25              01 
03040010009000407000036000295000076000000000000000000000000000000000000000000000000000000000000000000REPUSR0025US Representative District 25                           Roger Williams                        PRECINCT NO. 24               District 25              01 
03040010012000625000035000329000261000000000000000000000000000000000000000000000000000000000000000000REPUSR0025US Representative District 25                           Roger Williams                        PRECINCT NO. 31               District 25              01 
03040010016000030000000000012000018000000000000000000000000000000000000000000000000000000000000000000REPUSR0025US Representative District 25                           Roger Williams                        PRECINCT NO. 35               District 25              01 
03040010019000590000035000358000197000000000000000000000000000000000000000000000000000000000000000000REPUSR0025US Representative District 25                           Roger Williams                        PRECINCT NO. 45               District 25              01 
03040010021000466000031000284000151000000000000000000000000000000000000000000000000000000000000000000REPUSR0025US Representative District 25                           Roger Williams                        PRECINCT NO. 47               District 25              01 
03040020001000144000014000070000060000000000000000000000000000000000000000000000000000000000000000000DEMUSR0025US Representative District 25                           Julie Oliver                          PRECINCT NO. 10               District 25              01 
03040020003000132000012000083000037000000000000000000000000000000000000000000000000000000000000000000DEMUSR0025US Representative District 25                           Julie Oliver                          PRECINCT NO. 12               District 25              01 
03040020004000147000013000088000046000000000000000000000000000000000000000000000000000000000000000000DEMUSR0025US Representative District 25                           Julie Oliver                          PRECINCT NO. 18               District 25              01 
03040020005000111000005000076000030000000000000000000000000000000000000000000000000000000000000000000DEMUSR0025US Representative District 25                           Julie Oliver                          PRECINCT NO. 19               District 25              01 
03040020009000090000006000066000018000000000000000000000000000000000000000000000000000000000000000000DEMUSR0025US Representative District 25                           Julie Oliver                          PRECINCT NO. 24               District 25              01 
03040020012000090000004000060000026000000000000000000000000000000000000000000000000000000000000000000DEMUSR0025US Representative District 25                           Julie Oliver                          PRECINCT NO. 31               District 25              01 
03040020016000037000000000026000011000000000000000000000000000000000000000000000000000000000000000000DEMUSR0025US Representative District 25                           Julie Oliver                          PRECINCT NO. 35               District 25              01 
03040020019000249000011000154000084000000000000000000000000000000000000000000000000000000000000000000DEMUSR0025US Representative District 25                           Julie Oliver                          PRECINCT NO. 45               District 25              01 
03040020021000132000008000090000034000000000000000000000000000000000000000000000000000000000000000000DEMUSR0025US Representative District 25                           Julie Oliver                          PRECINCT NO. 47               District 25              01 
03040030001000012000000000007000005000000000000000000000000000000000000000000000000000000000000000000LIBUSR0025US Representative District 25                           Desarae Lindsey                       PRECINCT NO. 10               District 25              01 
03040030003000007000001000004000002000000000000000000000000000000000000000000000000000000000000000000LIBUSR0025US Representative District 25                           Desarae Lindsey                       PRECINCT NO. 12               District 25              01 
03040030004000013000002000004000007000000000000000000000000000000000000000000000000000000000000000000LIBUSR0025US Representative District 25                           Desarae Lindsey                       PRECINCT NO. 18               District 25              01 
03040030005000008000000000006000002000000000000000000000000000000000000000000000000000000000000000000LIBUSR0025US Representative District 25                           Desarae Lindsey                       PRECINCT NO. 19               District 25              01 
03040030009000002000000000002000000000000000000000000000000000000000000000000000000000000000000000000LIBUSR0025US Representative District 25                           Desarae Lindsey                       PRECINCT NO. 24               District 25              01 
03040030012000003000000000000000003000000000000000000000000000000000000000000000000000000000000000000LIBUSR0025US Representative District 25                           Desarae Lindsey                       PRECINCT NO. 31               District 25              01 
03040030016000001000000000000000001000000000000000000000000000000000000000000000000000000000000000000LIBUSR0025US Representative District 25                           Desarae Lindsey                       PRECINCT NO. 35               District 25              01 
03040030019000015000000000008000007000000000000000000000000000000000000000000000000000000000000000000LIBUSR0025US Representative District 25                           Desarae Lindsey                       PRECINCT NO. 45               District 25              01 
03040030021000007000000000003000004000000000000000000000000000000000000000000000000000000000000000000LIBUSR0025US Representative District 25                           Desarae Lindsey                       PRECINCT NO. 47               District 25              01 
03050010001000407000063000216000128000000000000000000000000000000000000000000000000000000000000000000REP       Governor                                                Greg Abbott                           PRECINCT NO. 10                                        01 
03050010002000168000041000084000043000000000000000000000000000000000000000000000000000000000000000000REP       Governor                                                Greg Abbott                           PRECINCT NO. 11                                        01 
03050010003000620000041000421000158000000000000000000000000000000000000000000000000000000000000000000REP       Governor                                                Greg Abbott                           PRECINCT NO. 12                                        01 
03050010004000949000049000625000275000000000000000000000000000000000000000000000000000000000000000000REP       Governor                                                Greg Abbott                           PRECINCT NO. 18                                        01 
03050010005000644000032000438000174000000000000000000000000000000000000000000000000000000000000000000REP       Governor                                                Greg Abbott                           PRECINCT NO. 19                                        01 
03050010006000542000038000336000168000000000000000000000000000000000000000000000000000000000000000000REP       Governor                                                Greg Abbott                           PRECINCT NO. 20                                        01 
03050010007000578000020000337000221000000000000000000000000000000000000000000000000000000000000000000REP       Governor                                                Greg Abbott                           PRECINCT NO. 21                                        01 
03050010008000212000013000135000064000000000000000000000000000000000000000000000000000000000000000000REP       Governor                                                Greg Abbott                           PRECINCT NO. 23                                        01 
03050010009000412000036000299000077000000000000000000000000000000000000000000000000000000000000000000REP       Governor                                                Greg Abbott                           PRECINCT NO. 24                                        01 
03050010010000394000032000209000153000000000000000000000000000000000000000000000000000000000000000000REP       Governor                                                Greg Abbott                           PRECINCT NO. 25                                        01 
03050010011000357000027000180000150000000000000000000000000000000000000000000000000000000000000000000REP       Governor                                                Greg Abbott                           PRECINCT NO. 30                                        01 
03050010012000634000037000332000265000000000000000000000000000000000000000000000000000000000000000000REP       Governor                                                Greg Abbott                           PRECINCT NO. 31                                        01 
03050010013000690000035000457000198000000000000000000000000000000000000000000000000000000000000000000REP       Governor                                                Greg Abbott                           PRECINCT NO. 32                                        01 
03050010014000282000017000175000090000000000000000000000000000000000000000000000000000000000000000000REP       Governor                                                Greg Abbott                           PRECINCT NO. 33                                        01 
03050010015000617000026000336000255000000000000000000000000000000000000000000000000000000000000000000REP       Governor                                                Greg Abbott                           PRECINCT NO. 34                                        01 
03050010016000031000000000012000019000000000000000000000000000000000000000000000000000000000000000000REP       Governor                                                Greg Abbott                           PRECINCT NO. 35                                        01 
03050010017000398000026000234000138000000000000000000000000000000000000000000000000000000000000000000REP       Governor                                                Greg Abbott                           PRECINCT NO. 41                                        01 
03050010018001066000061000659000346000000000000000000000000000000000000000000000000000000000000000000REP       Governor                                                Greg Abbott                           PRECINCT NO. 44                                        01 
03050010019000608000034000368000206000000000000000000000000000000000000000000000000000000000000000000REP       Governor                                                Greg Abbott                           PRECINCT NO. 45                                        01 
03050010020000267000013000171000083000000000000000000000000000000000000000000000000000000000000000000REP       Governor                                                Greg Abbott                           PRECINCT NO. 46                                        01 
03050010021000480000030000296000154000000000000000000000000000000000000000000000000000000000000000000REP       Governor                                                Greg Abbott                           PRECINCT NO. 47                                        01 
03050020001000136000021000066000049000000000000000000000000000000000000000000000000000000000000000000DEM       Governor                                                Lupe Valdez                           PRECINCT NO. 10                                        01 
03050020002000074000011000040000023000000000000000000000000000000000000000000000000000000000000000000DEM       Governor                                                Lupe Valdez                           PRECINCT NO. 11                                        01 
03050020003000125000010000082000033000000000000000000000000000000000000000000000000000000000000000000DEM       Governor                                                Lupe Valdez                           PRECINCT NO. 12                                        01 
03050020004000123000010000076000037000000000000000000000000000000000000000000000000000000000000000000DEM       Governor                                                Lupe Valdez                           PRECINCT NO. 18                                        01 
03050020005000092000003000065000024000000000000000000000000000000000000000000000000000000000000000000DEM       Governor                                                Lupe Valdez                           PRECINCT NO. 19                                        01 
03050020006000105000007000067000031000000000000000000000000000000000000000000000000000000000000000000DEM       Governor                                                Lupe Valdez                           PRECINCT NO. 20                                        01 
03050020007000119000001000064000054000000000000000000000000000000000000000000000000000000000000000000DEM       Governor                                                Lupe Valdez                           PRECINCT NO. 21                                        01 
03050020008000048000002000026000020000000000000000000000000000000000000000000000000000000000000000000DEM       Governor                                                Lupe Valdez                           PRECINCT NO. 23                                        01 
03050020009000083000006000059000018000000000000000000000000000000000000000000000000000000000000000000DEM       Governor                                                Lupe Valdez                           PRECINCT NO. 24                                        01 
03050020010000044000006000015000023000000000000000000000000000000000000000000000000000000000000000000DEM       Governor                                                Lupe Valdez                           PRECINCT NO. 25                                        01 
03050020011000037000007000021000009000000000000000000000000000000000000000000000000000000000000000000DEM       Governor                                                Lupe Valdez                           PRECINCT NO. 30                                        01 
03050020012000086000003000057000026000000000000000000000000000000000000000000000000000000000000000000DEM       Governor                                                Lupe Valdez                           PRECINCT NO. 31                                        01 
03050020013000143000007000088000048000000000000000000000000000000000000000000000000000000000000000000DEM       Governor                                                Lupe Valdez                           PRECINCT NO. 32                                        01 
03050020014000135000006000082000047000000000000000000000000000000000000000000000000000000000000000000DEM       Governor                                                Lupe Valdez                           PRECINCT NO. 33                                        01 
03050020015000077000009000039000029000000000000000000000000000000000000000000000000000000000000000000DEM       Governor                                                Lupe Valdez                           PRECINCT NO. 34                                        01 
03050020016000035000000000025000010000000000000000000000000000000000000000000000000000000000000000000DEM       Governor                                                Lupe Valdez                           PRECINCT NO. 35                                        01 
03050020017000047000005000022000020000000000000000000000000000000000000000000000000000000000000000000DEM       Governor                                                Lupe Valdez                           PRECINCT NO. 41                                        01 
03050020018000126000009000077000040000000000000000000000000000000000000000000000000000000000000000000DEM       Governor                                                Lupe Valdez                           PRECINCT NO. 44                                        01 
03050020019000231000012000143000076000000000000000000000000000000000000000000000000000000000000000000DEM       Governor                                                Lupe Valdez                           PRECINCT NO. 45                                        01 
03050020020000093000006000059000028000000000000000000000000000000000000000000000000000000000000000000DEM       Governor                                                Lupe Valdez                           PRECINCT NO. 46                                        01 
03050020021000114000009000075000030000000000000000000000000000000000000000000000000000000000000000000DEM       Governor                                                Lupe Valdez                           PRECINCT NO. 47                                        01 
03050030001000012000000000004000008000000000000000000000000000000000000000000000000000000000000000000LIB       Governor                                                Mark Jay Tippetts                     PRECINCT NO. 10                                        01 
03050030002000004000000000002000002000000000000000000000000000000000000000000000000000000000000000000LIB       Governor                                                Mark Jay Tippetts                     PRECINCT NO. 11                                        01 
03050030003000013000000000009000004000000000000000000000000000000000000000000000000000000000000000000LIB       Governor                                                Mark Jay Tippetts                     PRECINCT NO. 12                                        01 
03050030004000012000003000003000006000000000000000000000000000000000000000000000000000000000000000000LIB       Governor                                                Mark Jay Tippetts                     PRECINCT NO. 18                                        01 
03050030005000014000001000009000004000000000000000000000000000000000000000000000000000000000000000000LIB       Governor                                                Mark Jay Tippetts                     PRECINCT NO. 19                                        01 
03050030006000006000000000005000001000000000000000000000000000000000000000000000000000000000000000000LIB       Governor                                                Mark Jay Tippetts                     PRECINCT NO. 20                                        01 
03050030007000007000000000004000003000000000000000000000000000000000000000000000000000000000000000000LIB       Governor                                                Mark Jay Tippetts                     PRECINCT NO. 21                                        01 
03050030008000002000000000002000000000000000000000000000000000000000000000000000000000000000000000000LIB       Governor                                                Mark Jay Tippetts                     PRECINCT NO. 23                                        01 
03050030009000004000000000004000000000000000000000000000000000000000000000000000000000000000000000000LIB       Governor                                                Mark Jay Tippetts                     PRECINCT NO. 24                                        01 
03050030010000006000001000001000004000000000000000000000000000000000000000000000000000000000000000000LIB       Governor                                                Mark Jay Tippetts                     PRECINCT NO. 25                                        01 
03050030011000002000000000002000000000000000000000000000000000000000000000000000000000000000000000000LIB       Governor                                                Mark Jay Tippetts                     PRECINCT NO. 30                                        01 
03050030012000001000000000000000001000000000000000000000000000000000000000000000000000000000000000000LIB       Governor                                                Mark Jay Tippetts                     PRECINCT NO. 31                                        01 
03050030013000016000001000008000007000000000000000000000000000000000000000000000000000000000000000000LIB       Governor                                                Mark Jay Tippetts                     PRECINCT NO. 32                                        01 
03050030014000013000001000007000005000000000000000000000000000000000000000000000000000000000000000000LIB       Governor                                                Mark Jay Tippetts                     PRECINCT NO. 33                                        01 
03050030015000003000000000003000000000000000000000000000000000000000000000000000000000000000000000000LIB       Governor                                                Mark Jay Tippetts                     PRECINCT NO. 34                                        01 
03050030016000002000000000001000001000000000000000000000000000000000000000000000000000000000000000000LIB       Governor                                                Mark Jay Tippetts                     PRECINCT NO. 35                                        01 
03050030017000001000000000000000001000000000000000000000000000000000000000000000000000000000000000000LIB       Governor                                                Mark Jay Tippetts                     PRECINCT NO. 41                                        01 
03050030018000013000003000007000003000000000000000000000000000000000000000000000000000000000000000000LIB       Governor                                                Mark Jay Tippetts                     PRECINCT NO. 44                                        01 
03050030019000018000000000008000010000000000000000000000000000000000000000000000000000000000000000000LIB       Governor                                                Mark Jay Tippetts                     PRECINCT NO. 45                                        01 
03050030020000006000000000003000003000000000000000000000000000000000000000000000000000000000000000000LIB       Governor                                                Mark Jay Tippetts                     PRECINCT NO. 46                                        01 
03050030021000012000000000006000006000000000000000000000000000000000000000000000000000000000000000000LIB       Governor                                                Mark Jay Tippetts                     PRECINCT NO. 47                                        01 
03060010001000379000060000199000120000000000000000000000000000000000000000000000000000000000000000000REP       Lieutenant Governor                                     Dan Patrick                           PRECINCT NO. 10                                        01 
03060010002000156000036000080000040000000000000000000000000000000000000000000000000000000000000000000REP       Lieutenant Governor                                     Dan Patrick                           PRECINCT NO. 11                                        01 
03060010003000550000035000381000134000000000000000000000000000000000000000000000000000000000000000000REP       Lieutenant Governor                                     Dan Patrick                           PRECINCT NO. 12                                        01 
03060010004000888000045000586000257000000000000000000000000000000000000000000000000000000000000000000REP       Lieutenant Governor                                     Dan Patrick                           PRECINCT NO. 18                                        01 
03060010005000604000031000415000158000000000000000000000000000000000000000000000000000000000000000000REP       Lieutenant Governor                                     Dan Patrick                           PRECINCT NO. 19                                        01 
03060010006000517000037000322000158000000000000000000000000000000000000000000000000000000000000000000REP       Lieutenant Governor                                     Dan Patrick                           PRECINCT NO. 20                                        01 
03060010007000541000020000314000207000000000000000000000000000000000000000000000000000000000000000000REP       Lieutenant Governor                                     Dan Patrick                           PRECINCT NO. 21                                        01 
03060010008000207000013000133000061000000000000000000000000000000000000000000000000000000000000000000REP       Lieutenant Governor                                     Dan Patrick                           PRECINCT NO. 23                                        01 
03060010009000385000035000280000070000000000000000000000000000000000000000000000000000000000000000000REP       Lieutenant Governor                                     Dan Patrick                           PRECINCT NO. 24                                        01 
03060010010000371000031000206000134000000000000000000000000000000000000000000000000000000000000000000REP       Lieutenant Governor                                     Dan Patrick                           PRECINCT NO. 25                                        01 
03060010011000332000027000168000137000000000000000000000000000000000000000000000000000000000000000000REP       Lieutenant Governor                                     Dan Patrick                           PRECINCT NO. 30                                        01 
03060010012000611000036000317000258000000000000000000000000000000000000000000000000000000000000000000REP       Lieutenant Governor                                     Dan Patrick                           PRECINCT NO. 31                                        01 
03060010013000663000035000439000189000000000000000000000000000000000000000000000000000000000000000000REP       Lieutenant Governor                                     Dan Patrick                           PRECINCT NO. 32                                        01 
03060010014000259000015000159000085000000000000000000000000000000000000000000000000000000000000000000REP       Lieutenant Governor                                     Dan Patrick                           PRECINCT NO. 33                                        01 
03060010015000583000023000323000237000000000000000000000000000000000000000000000000000000000000000000REP       Lieutenant Governor                                     Dan Patrick                           PRECINCT NO. 34                                        01 
03060010016000031000000000012000019000000000000000000000000000000000000000000000000000000000000000000REP       Lieutenant Governor                                     Dan Patrick                           PRECINCT NO. 35                                        01 
03060010017000376000025000222000129000000000000000000000000000000000000000000000000000000000000000000REP       Lieutenant Governor                                     Dan Patrick                           PRECINCT NO. 41                                        01 
03060010018001019000059000631000329000000000000000000000000000000000000000000000000000000000000000000REP       Lieutenant Governor                                     Dan Patrick                           PRECINCT NO. 44                                        01 
03060010019000555000032000336000187000000000000000000000000000000000000000000000000000000000000000000REP       Lieutenant Governor                                     Dan Patrick                           PRECINCT NO. 45                                        01 
03060010020000250000013000159000078000000000000000000000000000000000000000000000000000000000000000000REP       Lieutenant Governor                                     Dan Patrick                           PRECINCT NO. 46                                        01 
03060010021000437000030000266000141000000000000000000000000000000000000000000000000000000000000000000REP       Lieutenant Governor                                     Dan Patrick                           PRECINCT NO. 47                                        01 
03060020001000148000020000072000056000000000000000000000000000000000000000000000000000000000000000000DEM       Lieutenant Governor                                     Mike Collier                          PRECINCT NO. 10                                        01 
03060020002000081000014000042000025000000000000000000000000000000000000000000000000000000000000000000DEM       Lieutenant Governor                                     Mike Collier                          PRECINCT NO. 11                                        01 
03060020003000180000013000114000053000000000000000000000000000000000000000000000000000000000000000000DEM       Lieutenant Governor                                     Mike Collier                          PRECINCT NO. 12                                        01 
03060020004000170000014000105000051000000000000000000000000000000000000000000000000000000000000000000DEM       Lieutenant Governor                                     Mike Collier                          PRECINCT NO. 18                                        01 
03060020005000130000005000086000039000000000000000000000000000000000000000000000000000000000000000000DEM       Lieutenant Governor                                     Mike Collier                          PRECINCT NO. 19                                        01 
03060020006000123000007000078000038000000000000000000000000000000000000000000000000000000000000000000DEM       Lieutenant Governor                                     Mike Collier                          PRECINCT NO. 20                                        01 
03060020007000148000001000085000062000000000000000000000000000000000000000000000000000000000000000000DEM       Lieutenant Governor                                     Mike Collier                          PRECINCT NO. 21                                        01 
03060020008000054000002000031000021000000000000000000000000000000000000000000000000000000000000000000DEM       Lieutenant Governor                                     Mike Collier                          PRECINCT NO. 23                                        01 
03060020009000111000007000083000021000000000000000000000000000000000000000000000000000000000000000000DEM       Lieutenant Governor                                     Mike Collier                          PRECINCT NO. 24                                        01 
03060020010000064000007000017000040000000000000000000000000000000000000000000000000000000000000000000DEM       Lieutenant Governor                                     Mike Collier                          PRECINCT NO. 25                                        01 
03060020011000061000007000034000020000000000000000000000000000000000000000000000000000000000000000000DEM       Lieutenant Governor                                     Mike Collier                          PRECINCT NO. 30                                        01 
03060020012000096000004000063000029000000000000000000000000000000000000000000000000000000000000000000DEM       Lieutenant Governor                                     Mike Collier                          PRECINCT NO. 31                                        01 
03060020013000164000007000105000052000000000000000000000000000000000000000000000000000000000000000000DEM       Lieutenant Governor                                     Mike Collier                          PRECINCT NO. 32                                        01 
03060020014000154000009000097000048000000000000000000000000000000000000000000000000000000000000000000DEM       Lieutenant Governor                                     Mike Collier                          PRECINCT NO. 33                                        01 
03060020015000098000011000048000039000000000000000000000000000000000000000000000000000000000000000000DEM       Lieutenant Governor                                     Mike Collier                          PRECINCT NO. 34                                        01 
03060020016000035000000000024000011000000000000000000000000000000000000000000000000000000000000000000DEM       Lieutenant Governor                                     Mike Collier                          PRECINCT NO. 35                                        01 
03060020017000066000005000032000029000000000000000000000000000000000000000000000000000000000000000000DEM       Lieutenant Governor                                     Mike Collier                          PRECINCT NO. 41                                        01 
03060020018000161000012000100000049000000000000000000000000000000000000000000000000000000000000000000DEM       Lieutenant Governor                                     Mike Collier                          PRECINCT NO. 44                                        01 
03060020019000271000012000168000091000000000000000000000000000000000000000000000000000000000000000000DEM       Lieutenant Governor                                     Mike Collier                          PRECINCT NO. 45                                        01 
03060020020000106000006000066000034000000000000000000000000000000000000000000000000000000000000000000DEM       Lieutenant Governor                                     Mike Collier                          PRECINCT NO. 46                                        01 
03060020021000151000009000101000041000000000000000000000000000000000000000000000000000000000000000000DEM       Lieutenant Governor                                     Mike Collier                          PRECINCT NO. 47                                        01 
03060030001000024000002000013000009000000000000000000000000000000000000000000000000000000000000000000LIB       Lieutenant Governor                                     Kerry Douglas McKennon                PRECINCT NO. 10                                        01 
03060030002000007000000000004000003000000000000000000000000000000000000000000000000000000000000000000LIB       Lieutenant Governor                                     Kerry Douglas McKennon                PRECINCT NO. 11                                        01 
03060030003000025000002000015000008000000000000000000000000000000000000000000000000000000000000000000LIB       Lieutenant Governor                                     Kerry Douglas McKennon                PRECINCT NO. 12                                        01 
03060030004000021000003000007000011000000000000000000000000000000000000000000000000000000000000000000LIB       Lieutenant Governor                                     Kerry Douglas McKennon                PRECINCT NO. 18                                        01 
03060030005000015000001000010000004000000000000000000000000000000000000000000000000000000000000000000LIB       Lieutenant Governor                                     Kerry Douglas McKennon                PRECINCT NO. 19                                        01 
03060030006000011000001000006000004000000000000000000000000000000000000000000000000000000000000000000LIB       Lieutenant Governor                                     Kerry Douglas McKennon                PRECINCT NO. 20                                        01 
03060030007000015000000000005000010000000000000000000000000000000000000000000000000000000000000000000LIB       Lieutenant Governor                                     Kerry Douglas McKennon                PRECINCT NO. 21                                        01 
03060030008000003000000000001000002000000000000000000000000000000000000000000000000000000000000000000LIB       Lieutenant Governor                                     Kerry Douglas McKennon                PRECINCT NO. 23                                        01 
03060030009000005000000000002000003000000000000000000000000000000000000000000000000000000000000000000LIB       Lieutenant Governor                                     Kerry Douglas McKennon                PRECINCT NO. 24                                        01 
03060030010000004000000000000000004000000000000000000000000000000000000000000000000000000000000000000LIB       Lieutenant Governor                                     Kerry Douglas McKennon                PRECINCT NO. 25                                        01 
03060030011000003000000000002000001000000000000000000000000000000000000000000000000000000000000000000LIB       Lieutenant Governor                                     Kerry Douglas McKennon                PRECINCT NO. 30                                        01 
03060030012000012000000000008000004000000000000000000000000000000000000000000000000000000000000000000LIB       Lieutenant Governor                                     Kerry Douglas McKennon                PRECINCT NO. 31                                        01 
03060030013000019000001000007000011000000000000000000000000000000000000000000000000000000000000000000LIB       Lieutenant Governor                                     Kerry Douglas McKennon                PRECINCT NO. 32                                        01 
03060030014000017000000000008000009000000000000000000000000000000000000000000000000000000000000000000LIB       Lieutenant Governor                                     Kerry Douglas McKennon                PRECINCT NO. 33                                        01 
03060030015000016000001000007000008000000000000000000000000000000000000000000000000000000000000000000LIB       Lieutenant Governor                                     Kerry Douglas McKennon                PRECINCT NO. 34                                        01 
03060030016000002000000000002000000000000000000000000000000000000000000000000000000000000000000000000LIB       Lieutenant Governor                                     Kerry Douglas McKennon                PRECINCT NO. 35                                        01 
03060030017000003000000000002000001000000000000000000000000000000000000000000000000000000000000000000LIB       Lieutenant Governor                                     Kerry Douglas McKennon                PRECINCT NO. 41                                        01 
03060030018000021000001000009000011000000000000000000000000000000000000000000000000000000000000000000LIB       Lieutenant Governor                                     Kerry Douglas McKennon                PRECINCT NO. 44                                        01 
03060030019000029000001000015000013000000000000000000000000000000000000000000000000000000000000000000LIB       Lieutenant Governor                                     Kerry Douglas McKennon                PRECINCT NO. 45                                        01 
03060030020000009000000000007000002000000000000000000000000000000000000000000000000000000000000000000LIB       Lieutenant Governor                                     Kerry Douglas McKennon                PRECINCT NO. 46                                        01 
