01010010001000098000000000000000000000000000000          REGISTERED VOTERS - TOTAL                               REGISTERED VOTERS - TOTAL             Precinct 5                                             00 
01010010002000269000000000000000000000000000000          REGISTERED VOTERS - TOTAL                               REGISTERED VOTERS - TOTAL             Precinct 6                                             00 
01010010003002163000000000000000000000000000000          REGISTERED VOTERS - TOTAL                               REGISTERED VOTERS - TOTAL             Precinct 7                                             00 
01010010004000944000000000000000000000000000000          REGISTERED VOTERS - TOTAL                               REGISTERED VOTERS - TOTAL             Precinct 8                                             00 
01010010005000479000000000000000000000000000000          REGISTERED VOTERS - TOTAL                               REGISTERED VOTERS - TOTAL             Precinct 9                                             00 
01010010006001189000000000000000000000000000000          REGISTERED VOTERS - TOTAL                               REGISTERED VOTERS - TOTAL             Precinct 10                                            00 
01010010007000137000000000000000000000000000000          REGISTERED VOTERS - TOTAL                               REGISTERED VOTERS - TOTAL             Precinct 11                                            00 
01010010008001530000000000000000000000000000000          REGISTERED VOTERS - TOTAL                               REGISTERED VOTERS - TOTAL             Precinct 12                                            00 
01010010009000474000000000000000000000000000000          REGISTERED VOTERS - TOTAL                               REGISTERED VOTERS - TOTAL             Precinct 13                                            00 
01010010010000125000000000000000000000000000000          REGISTERED VOTERS - TOTAL                               REGISTERED VOTERS - TOTAL             Precinct 14                                            00 
01010010011001983000000000000000000000000000000          REGISTERED VOTERS - TOTAL                               REGISTERED VOTERS - TOTAL             Precinct 15                                            00 
01020010001000064000000000031000033000000000000          BALLOTS CAST - TOTAL                                    BALLOTS CAST - TOTAL                  Precinct 5                                             00 
01020010002000158000012000088000058000000000000          BALLOTS CAST - TOTAL                                    BALLOTS CAST - TOTAL                  Precinct 6                                             00 
01020010003001125000068000746000311000000000000          BALLOTS CAST - TOTAL                                    BALLOTS CAST - TOTAL                  Precinct 7                                             00 
01020010004000420000014000276000130000000000000          BALLOTS CAST - TOTAL                                    BALLOTS CAST - TOTAL                  Precinct 8                                             00 
01020010005000279000011000127000141000000000000          BALLOTS CAST - TOTAL                                    BALLOTS CAST - TOTAL                  Precinct 9                                             00 
01020010006000721000049000463000209000000000000          BALLOTS CAST - TOTAL                                    BALLOTS CAST - TOTAL                  Precinct 10                                            00 
01020010007000079000007000026000046000000000000          BALLOTS CAST - TOTAL                                    BALLOTS CAST - TOTAL                  Precinct 11                                            00 
01020010008000631000029000372000229000001000000          BALLOTS CAST - TOTAL                                    BALLOTS CAST - TOTAL                  Precinct 12                                            00 
01020010009000272000012000121000139000000000000          BALLOTS CAST - TOTAL                                    BALLOTS CAST - TOTAL                  Precinct 13                                            00 
01020010010000080000008000044000028000000000000          BALLOTS CAST - TOTAL                                    BALLOTS CAST - TOTAL                  Precinct 14                                            00 
01020010011000562000034000313000215000000000000          BALLOTS CAST - TOTAL                                    BALLOTS CAST - TOTAL                  Precinct 15                                            00 
01030010001000027000000000013000014000000000000REP       Straight Party                                          Republican Party                      Precinct 5                                             01 
01030010002000091000009000052000030000000000000REP       Straight Party                                          Republican Party                      Precinct 6                                             01 
01030010003000639000049000420000170000000000000REP       Straight Party                                          Republican Party                      Precinct 7                                             01 
01030010004000246000012000162000072000000000000REP       Straight Party                                          Republican Party                      Precinct 8                                             01 
01030010005000140000007000066000067000000000000REP       Straight Party                                          Republican Party                      Precinct 9                                             01 
01030010006000433000035000294000104000000000000REP       Straight Party                                          Republican Party                      Precinct 10                                            01 
01030010007000039000003000016000020000000000000REP       Straight Party                                          Republican Party                      Precinct 11                                            01 
01030010008000359000018000208000132000001000000REP       Straight Party                                          Republican Party                      Precinct 12                                            01 
01030010009000131000007000057000067000000000000REP       Straight Party                                          Republican Party                      Precinct 13                                            01 
01030010010000046000004000025000017000000000000REP       Straight Party                                          Republican Party                      Precinct 14                                            01 
01030010011000303000021000177000105000000000000REP       Straight Party                                          Republican Party                      Precinct 15                                            01 
01030020001000003000000000001000002000000000000DEM       Straight Party                                          Democratic Party                      Precinct 5                                             01 
01030020002000009000001000006000002000000000000DEM       Straight Party                                          Democratic Party                      Precinct 6                                             01 
01030020003000091000006000057000028000000000000DEM       Straight Party                                          Democratic Party                      Precinct 7                                             01 
01030020004000025000001000018000006000000000000DEM       Straight Party                                          Democratic Party                      Precinct 8                                             01 
01030020005000006000000000002000004000000000000DEM       Straight Party                                          Democratic Party                      Precinct 9                                             01 
01030020006000039000006000021000012000000000000DEM       Straight Party                                          Democratic Party                      Precinct 10                                            01 
01030020007000005000000000000000005000000000000DEM       Straight Party                                          Democratic Party                      Precinct 11                                            01 
01030020008000079000008000037000034000000000000DEM       Straight Party                                          Democratic Party                      Precinct 12                                            01 
01030020009000014000002000003000009000000000000DEM       Straight Party                                          Democratic Party                      Precinct 13                                            01 
01030020010000004000000000003000001000000000000DEM       Straight Party                                          Democratic Party                      Precinct 14                                            01 
01030020011000113000007000056000050000000000000DEM       Straight Party                                          Democratic Party                      Precinct 15                                            01 
01030030001000000000000000000000000000000000000LIB       Straight Party                                          Libertarian Party                     Precinct 5                                             01 
01030030002000001000000000001000000000000000000LIB       Straight Party                                          Libertarian Party                     Precinct 6                                             01 
01030030003000006000000000003000003000000000000LIB       Straight Party                                          Libertarian Party                     Precinct 7                                             01 
01030030004000001000000000001000000000000000000LIB       Straight Party                                          Libertarian Party                     Precinct 8                                             01 
01030030005000001000000000000000001000000000000LIB       Straight Party                                          Libertarian Party                     Precinct 9                                             01 
01030030006000000000000000000000000000000000000LIB       Straight Party                                          Libertarian Party                     Precinct 10                                            01 
01030030007000001000000000001000000000000000000LIB       Straight Party                                          Libertarian Party                     Precinct 11                                            01 
01030030008000003000000000000000003000000000000LIB       Straight Party                                          Libertarian Party                     Precinct 12                                            01 
01030030009000001000000000000000001000000000000LIB       Straight Party                                          Libertarian Party                     Precinct 13                                            01 
01030030010000001000000000001000000000000000000LIB       Straight Party                                          Libertarian Party                     Precinct 14                                            01 
01030030011000006000000000003000003000000000000LIB       Straight Party                                          Libertarian Party                     Precinct 15                                            01 
01030040001000000000000000000000000000000000000          Straight Party                                          OVER VOTES                            Precinct 5                                             01 
01030040002000000000000000000000000000000000000          Straight Party                                          OVER VOTES                            Precinct 6                                             01 
01030040003000000000000000000000000000000000000          Straight Party                                          OVER VOTES                            Precinct 7                                             01 
01030040004000000000000000000000000000000000000          Straight Party                                          OVER VOTES                            Precinct 8                                             01 
01030040005000000000000000000000000000000000000          Straight Party                                          OVER VOTES                            Precinct 9                                             01 
01030040006000000000000000000000000000000000000          Straight Party                                          OVER VOTES                            Precinct 10                                            01 
01030040007000000000000000000000000000000000000          Straight Party                                          OVER VOTES                            Precinct 11                                            01 
01030040008000000000000000000000000000000000000          Straight Party                                          OVER VOTES                            Precinct 12                                            01 
01030040009000000000000000000000000000000000000          Straight Party                                          OVER VOTES                            Precinct 13                                            01 
01030040010000000000000000000000000000000000000          Straight Party                                          OVER VOTES                            Precinct 14                                            01 
01030040011000000000000000000000000000000000000          Straight Party                                          OVER VOTES                            Precinct 15                                            01 
01030050001000034000000000017000017000000000000          Straight Party                                          UNDER VOTES                           Precinct 5                                             01 
01030050002000057000002000029000026000000000000          Straight Party                                          UNDER VOTES                           Precinct 6                                             01 
01030050003000389000013000266000110000000000000          Straight Party                                          UNDER VOTES                           Precinct 7                                             01 
01030050004000148000001000095000052000000000000          Straight Party                                          UNDER VOTES                           Precinct 8                                             01 
01030050005000132000004000059000069000000000000          Straight Party                                          UNDER VOTES                           Precinct 9                                             01 
01030050006000249000008000148000093000000000000          Straight Party                                          UNDER VOTES                           Precinct 10                                            01 
01030050007000034000004000009000021000000000000          Straight Party                                          UNDER VOTES                           Precinct 11                                            01 
01030050008000190000003000127000060000000000000          Straight Party                                          UNDER VOTES                           Precinct 12                                            01 
01030050009000126000003000061000062000000000000          Straight Party                                          UNDER VOTES                           Precinct 13                                            01 
01030050010000029000004000015000010000000000000          Straight Party                                          UNDER VOTES                           Precinct 14                                            01 
01030050011000140000006000077000057000000000000          Straight Party                                          UNDER VOTES                           Precinct 15                                            01 
01040010001000056000000000029000027000000000000REP       United States Senator                                   Ted Cruz                              Precinct 5                                             01 
01040010002000134000011000076000047000000000000REP       United States Senator                                   Ted Cruz                              Precinct 6                                             01 
01040010003000968000053000651000264000000000000REP       United States Senator                                   Ted Cruz                              Precinct 7                                             01 
01040010004000364000014000234000116000000000000REP       United States Senator                                   Ted Cruz                              Precinct 8                                             01 
01040010005000257000011000119000127000000000000REP       United States Senator                                   Ted Cruz                              Precinct 9                                             01 
01040010006000644000039000425000180000000000000REP       United States Senator                                   Ted Cruz                              Precinct 10                                            01 
01040010007000072000006000026000040000000000000REP       United States Senator                                   Ted Cruz                              Precinct 11                                            01 
01040010008000503000019000311000173000000000000REP       United States Senator                                   Ted Cruz                              Precinct 12                                            01 
01040010009000229000009000108000112000000000000REP       United States Senator                                   Ted Cruz                              Precinct 13                                            01 
01040010010000067000006000037000024000000000000REP       United States Senator                                   Ted Cruz                              Precinct 14                                            01 
01040010011000411000026000238000147000000000000REP       United States Senator                                   Ted Cruz                              Precinct 15                                            01 
01040020001000008000000000002000006000000000000DEM       United States Senator                                   Beto O' Rourke                        Precinct 5                                             01 
01040020002000023000001000012000010000000000000DEM       United States Senator                                   Beto O' Rourke                        Precinct 6                                             01 
01040020003000148000015000090000043000000000000DEM       United States Senator                                   Beto O' Rourke                        Precinct 7                                             01 
01040020004000053000000000042000011000000000000DEM       United States Senator                                   Beto O' Rourke                        Precinct 8                                             01 
01040020005000020000000000008000012000000000000DEM       United States Senator                                   Beto O' Rourke                        Precinct 9                                             01 
01040020006000072000010000036000026000000000000DEM       United States Senator                                   Beto O' Rourke                        Precinct 10                                            01 
01040020007000005000000000000000005000000000000DEM       United States Senator                                   Beto O' Rourke                        Precinct 11                                            01 
01040020008000119000010000059000050000000000000DEM       United States Senator                                   Beto O' Rourke                        Precinct 12                                            01 
01040020009000039000003000012000024000000000000DEM       United States Senator                                   Beto O' Rourke                        Precinct 13                                            01 
01040020010000013000002000007000004000000000000DEM       United States Senator                                   Beto O' Rourke                        Precinct 14                                            01 
01040020011000142000008000069000065000000000000DEM       United States Senator                                   Beto O' Rourke                        Precinct 15                                            01 
01040030001000000000000000000000000000000000000LIB       United States Senator                                   Neal M. Dikeman                       Precinct 5                                             01 
01040030002000000000000000000000000000000000000LIB       United States Senator                                   Neal M. Dikeman                       Precinct 6                                             01 
01040030003000005000000000002000003000000000000LIB       United States Senator                                   Neal M. Dikeman                       Precinct 7                                             01 
01040030004000001000000000000000001000000000000LIB       United States Senator                                   Neal M. Dikeman                       Precinct 8                                             01 
01040030005000001000000000000000001000000000000LIB       United States Senator                                   Neal M. Dikeman                       Precinct 9                                             01 
01040030006000003000000000002000001000000000000LIB       United States Senator                                   Neal M. Dikeman                       Precinct 10                                            01 
01040030007000000000000000000000000000000000000LIB       United States Senator                                   Neal M. Dikeman                       Precinct 11                                            01 
01040030008000004000000000001000003000000000000LIB       United States Senator                                   Neal M. Dikeman                       Precinct 12                                            01 
01040030009000001000000000000000001000000000000LIB       United States Senator                                   Neal M. Dikeman                       Precinct 13                                            01 
01040030010000000000000000000000000000000000000LIB       United States Senator                                   Neal M. Dikeman                       Precinct 14                                            01 
01040030011000001000000000000000001000000000000LIB       United States Senator                                   Neal M. Dikeman                       Precinct 15                                            01 
01040040001000000000000000000000000000000000000          United States Senator                                   OVER VOTES                            Precinct 5                                             01 
01040040002000000000000000000000000000000000000          United States Senator                                   OVER VOTES                            Precinct 6                                             01 
01040040003000000000000000000000000000000000000          United States Senator                                   OVER VOTES                            Precinct 7                                             01 
01040040004000000000000000000000000000000000000          United States Senator                                   OVER VOTES                            Precinct 8                                             01 
01040040005000000000000000000000000000000000000          United States Senator                                   OVER VOTES                            Precinct 9                                             01 
01040040006000000000000000000000000000000000000          United States Senator                                   OVER VOTES                            Precinct 10                                            01 
01040040007000000000000000000000000000000000000          United States Senator                                   OVER VOTES                            Precinct 11                                            01 
01040040008000000000000000000000000000000000000          United States Senator                                   OVER VOTES                            Precinct 12                                            01 
01040040009000000000000000000000000000000000000          United States Senator                                   OVER VOTES                            Precinct 13                                            01 
01040040010000000000000000000000000000000000000          United States Senator                                   OVER VOTES                            Precinct 14                                            01 
01040040011000000000000000000000000000000000000          United States Senator                                   OVER VOTES                            Precinct 15                                            01 
01040050001000000000000000000000000000000000000          United States Senator                                   UNDER VOTES                           Precinct 5                                             01 
01040050002000001000000000000000001000000000000          United States Senator                                   UNDER VOTES                           Precinct 6                                             01 
01040050003000004000000000003000001000000000000          United States Senator                                   UNDER VOTES                           Precinct 7                                             01 
01040050004000002000000000000000002000000000000          United States Senator                                   UNDER VOTES                           Precinct 8                                             01 
01040050005000001000000000000000001000000000000          United States Senator                                   UNDER VOTES                           Precinct 9                                             01 
01040050006000002000000000000000002000000000000          United States Senator                                   UNDER VOTES                           Precinct 10                                            01 
01040050007000002000001000000000001000000000000          United States Senator                                   UNDER VOTES                           Precinct 11                                            01 
01040050008000005000000000001000003000001000000          United States Senator                                   UNDER VOTES                           Precinct 12                                            01 
01040050009000003000000000001000002000000000000          United States Senator                                   UNDER VOTES                           Precinct 13                                            01 
01040050010000000000000000000000000000000000000          United States Senator                                   UNDER VOTES                           Precinct 14                                            01 
01040050011000008000000000006000002000000000000          United States Senator                                   UNDER VOTES                           Precinct 15                                            01 
01050010001000059000000000029000030000000000000REP       United States Representative, Dist 19                   Jodey Arrington                       Precinct 5                                             01 
01050010002000138000011000075000052000000000000REP       United States Representative, Dist 19                   Jodey Arrington                       Precinct 6                                             01 
01050010003000978000054000658000266000000000000REP       United States Representative, Dist 19                   Jodey Arrington                       Precinct 7                                             01 
01050010004000368000014000239000115000000000000REP       United States Representative, Dist 19                   Jodey Arrington                       Precinct 8                                             01 
01050010005000257000011000120000126000000000000REP       United States Representative, Dist 19                   Jodey Arrington                       Precinct 9                                             01 
01050010006000648000038000423000187000000000000REP       United States Representative, Dist 19                   Jodey Arrington                       Precinct 10                                            01 
01050010007000072000007000026000039000000000000REP       United States Representative, Dist 19                   Jodey Arrington                       Precinct 11                                            01 
01050010008000511000019000316000176000000000000REP       United States Representative, Dist 19                   Jodey Arrington                       Precinct 12                                            01 
01050010009000236000009000108000119000000000000REP       United States Representative, Dist 19                   Jodey Arrington                       Precinct 13                                            01 
01050010010000073000008000037000028000000000000REP       United States Representative, Dist 19                   Jodey Arrington                       Precinct 14                                            01 
01050010011000420000025000242000153000000000000REP       United States Representative, Dist 19                   Jodey Arrington                       Precinct 15                                            01 
01050020001000005000000000002000003000000000000DEM       United States Representative, Dist 19                   Miguel Levario                        Precinct 5                                             01 
01050020002000016000001000010000005000000000000DEM       United States Representative, Dist 19                   Miguel Levario                        Precinct 6                                             01 
01050020003000135000013000083000039000000000000DEM       United States Representative, Dist 19                   Miguel Levario                        Precinct 7                                             01 
01050020004000049000000000036000013000000000000DEM       United States Representative, Dist 19                   Miguel Levario                        Precinct 8                                             01 
01050020005000016000000000007000009000000000000DEM       United States Representative, Dist 19                   Miguel Levario                        Precinct 9                                             01 
01050020006000066000010000035000021000000000000DEM       United States Representative, Dist 19                   Miguel Levario                        Precinct 10                                            01 
01050020007000005000000000000000005000000000000DEM       United States Representative, Dist 19                   Miguel Levario                        Precinct 11                                            01 
01050020008000114000010000055000049000000000000DEM       United States Representative, Dist 19                   Miguel Levario                        Precinct 12                                            01 
01050020009000032000003000012000017000000000000DEM       United States Representative, Dist 19                   Miguel Levario                        Precinct 13                                            01 
01050020010000007000000000007000000000000000000DEM       United States Representative, Dist 19                   Miguel Levario                        Precinct 14                                            01 
01050020011000133000008000065000060000000000000DEM       United States Representative, Dist 19                   Miguel Levario                        Precinct 15                                            01 
01050030001000000000000000000000000000000000000          United States Representative, Dist 19                   OVER VOTES                            Precinct 5                                             01 
01050030002000000000000000000000000000000000000          United States Representative, Dist 19                   OVER VOTES                            Precinct 6                                             01 
01050030003000000000000000000000000000000000000          United States Representative, Dist 19                   OVER VOTES                            Precinct 7                                             01 
01050030004000000000000000000000000000000000000          United States Representative, Dist 19                   OVER VOTES                            Precinct 8                                             01 
01050030005000000000000000000000000000000000000          United States Representative, Dist 19                   OVER VOTES                            Precinct 9                                             01 
01050030006000000000000000000000000000000000000          United States Representative, Dist 19                   OVER VOTES                            Precinct 10                                            01 
01050030007000000000000000000000000000000000000          United States Representative, Dist 19                   OVER VOTES                            Precinct 11                                            01 
01050030008000000000000000000000000000000000000          United States Representative, Dist 19                   OVER VOTES                            Precinct 12                                            01 
01050030009000000000000000000000000000000000000          United States Representative, Dist 19                   OVER VOTES                            Precinct 13                                            01 
01050030010000000000000000000000000000000000000          United States Representative, Dist 19                   OVER VOTES                            Precinct 14                                            01 
01050030011000000000000000000000000000000000000          United States Representative, Dist 19                   OVER VOTES                            Precinct 15                                            01 
01050040001000000000000000000000000000000000000          United States Representative, Dist 19                   UNDER VOTES                           Precinct 5                                             01 
01050040002000004000000000003000001000000000000          United States Representative, Dist 19                   UNDER VOTES                           Precinct 6                                             01 
01050040003000012000001000005000006000000000000          United States Representative, Dist 19                   UNDER VOTES                           Precinct 7                                             01 
01050040004000003000000000001000002000000000000          United States Representative, Dist 19                   UNDER VOTES                           Precinct 8                                             01 
01050040005000006000000000000000006000000000000          United States Representative, Dist 19                   UNDER VOTES                           Precinct 9                                             01 
01050040006000007000001000005000001000000000000          United States Representative, Dist 19                   UNDER VOTES                           Precinct 10                                            01 
01050040007000002000000000000000002000000000000          United States Representative, Dist 19                   UNDER VOTES                           Precinct 11                                            01 
01050040008000006000000000001000004000001000000          United States Representative, Dist 19                   UNDER VOTES                           Precinct 12                                            01 
01050040009000004000000000001000003000000000000          United States Representative, Dist 19                   UNDER VOTES                           Precinct 13                                            01 
01050040010000000000000000000000000000000000000          United States Representative, Dist 19                   UNDER VOTES                           Precinct 14                                            01 
01050040011000009000001000006000002000000000000          United States Representative, Dist 19                   UNDER VOTES                           Precinct 15                                            01 
01060010001000056000000000029000027000000000000REP       Governor                                                Greg Abbott                           Precinct 5                                             01 
01060010002000138000011000077000050000000000000REP       Governor                                                Greg Abbott                           Precinct 6                                             01 
01060010003000972000054000654000264000000000000REP       Governor                                                Greg Abbott                           Precinct 7                                             01 
01060010004000373000014000240000119000000000000REP       Governor                                                Greg Abbott                           Precinct 8                                             01 
01060010005000252000011000117000124000000000000REP       Governor                                                Greg Abbott                           Precinct 9                                             01 
01060010006000651000039000424000188000000000000REP       Governor                                                Greg Abbott                           Precinct 10                                            01 
01060010007000073000007000025000041000000000000REP       Governor                                                Greg Abbott                           Precinct 11                                            01 
01060010008000510000019000312000179000000000000REP       Governor                                                Greg Abbott                           Precinct 12                                            01 
01060010009000232000009000109000114000000000000REP       Governor                                                Greg Abbott                           Precinct 13                                            01 
01060010010000074000008000038000028000000000000REP       Governor                                                Greg Abbott                           Precinct 14                                            01 
01060010011000419000026000242000151000000000000REP       Governor                                                Greg Abbott                           Precinct 15                                            01 
01060020001000008000000000002000006000000000000DEM       Governor                                                Lupe Valdez                           Precinct 5                                             01 
01060020002000016000001000009000006000000000000DEM       Governor                                                Lupe Valdez                           Precinct 6                                             01 
01060020003000136000014000081000041000000000000DEM       Governor                                                Lupe Valdez                           Precinct 7                                             01 
01060020004000040000000000031000009000000000000DEM       Governor                                                Lupe Valdez                           Precinct 8                                             01 
01060020005000020000000000007000013000000000000DEM       Governor                                                Lupe Valdez                           Precinct 9                                             01 
01060020006000062000010000032000020000000000000DEM       Governor                                                Lupe Valdez                           Precinct 10                                            01 
01060020007000005000000000000000005000000000000DEM       Governor                                                Lupe Valdez                           Precinct 11                                            01 
01060020008000113000010000058000045000000000000DEM       Governor                                                Lupe Valdez                           Precinct 12                                            01 
01060020009000037000003000011000023000000000000DEM       Governor                                                Lupe Valdez                           Precinct 13                                            01 
01060020010000006000000000006000000000000000000DEM       Governor                                                Lupe Valdez                           Precinct 14                                            01 
01060020011000134000008000065000061000000000000DEM       Governor                                                Lupe Valdez                           Precinct 15                                            01 
01060030001000000000000000000000000000000000000LIB       Governor                                                Mark Jay Tippetts                     Precinct 5                                             01 
01060030002000001000000000001000000000000000000LIB       Governor                                                Mark Jay Tippetts                     Precinct 6                                             01 
01060030003000012000000000008000004000000000000LIB       Governor                                                Mark Jay Tippetts                     Precinct 7                                             01 
01060030004000004000000000004000000000000000000LIB       Governor                                                Mark Jay Tippetts                     Precinct 8                                             01 
01060030005000005000000000003000002000000000000LIB       Governor                                                Mark Jay Tippetts                     Precinct 9                                             01 
01060030006000005000000000004000001000000000000LIB       Governor                                                Mark Jay Tippetts                     Precinct 10                                            01 
01060030007000001000000000001000000000000000000LIB       Governor                                                Mark Jay Tippetts                     Precinct 11                                            01 
01060030008000005000000000002000003000000000000LIB       Governor                                                Mark Jay Tippetts                     Precinct 12                                            01 
01060030009000002000000000001000001000000000000LIB       Governor                                                Mark Jay Tippetts                     Precinct 13                                            01 
01060030010000000000000000000000000000000000000LIB       Governor                                                Mark Jay Tippetts                     Precinct 14                                            01 
01060030011000006000000000004000002000000000000LIB       Governor                                                Mark Jay Tippetts                     Precinct 15                                            01 
01060040001000000000000000000000000000000000000          Governor                                                OVER VOTES                            Precinct 5                                             01 
01060040002000000000000000000000000000000000000          Governor                                                OVER VOTES                            Precinct 6                                             01 
01060040003000000000000000000000000000000000000          Governor                                                OVER VOTES                            Precinct 7                                             01 
01060040004000000000000000000000000000000000000          Governor                                                OVER VOTES                            Precinct 8                                             01 
01060040005000000000000000000000000000000000000          Governor                                                OVER VOTES                            Precinct 9                                             01 
01060040006000000000000000000000000000000000000          Governor                                                OVER VOTES                            Precinct 10                                            01 
01060040007000000000000000000000000000000000000          Governor                                                OVER VOTES                            Precinct 11                                            01 
01060040008000000000000000000000000000000000000          Governor                                                OVER VOTES                            Precinct 12                                            01 
01060040009000000000000000000000000000000000000          Governor                                                OVER VOTES                            Precinct 13                                            01 
01060040010000000000000000000000000000000000000          Governor                                                OVER VOTES                            Precinct 14                                            01 
01060040011000000000000000000000000000000000000          Governor                                                OVER VOTES                            Precinct 15                                            01 
01060050001000000000000000000000000000000000000          Governor                                                UNDER VOTES                           Precinct 5                                             01 
01060050002000003000000000001000002000000000000          Governor                                                UNDER VOTES                           Precinct 6                                             01 
01060050003000005000000000003000002000000000000          Governor                                                UNDER VOTES                           Precinct 7                                             01 
01060050004000003000000000001000002000000000000          Governor                                                UNDER VOTES                           Precinct 8                                             01 
01060050005000002000000000000000002000000000000          Governor                                                UNDER VOTES                           Precinct 9                                             01 
01060050006000003000000000003000000000000000000          Governor                                                UNDER VOTES                           Precinct 10                                            01 
01060050007000000000000000000000000000000000000          Governor                                                UNDER VOTES                           Precinct 11                                            01 
01060050008000003000000000000000002000001000000          Governor                                                UNDER VOTES                           Precinct 12                                            01 
01060050009000001000000000000000001000000000000          Governor                                                UNDER VOTES                           Precinct 13                                            01 
01060050010000000000000000000000000000000000000          Governor                                                UNDER VOTES                           Precinct 14                                            01 
01060050011000003000000000002000001000000000000          Governor                                                UNDER VOTES                           Precinct 15                                            01 
01070010001000056000000000028000028000000000000REP       Lieutenant Governor                                     Dan Patrick                           Precinct 5                                             01 
01070010002000135000011000074000050000000000000REP       Lieutenant Governor                                     Dan Patrick                           Precinct 6                                             01 
01070010003000910000054000613000243000000000000REP       Lieutenant Governor                                     Dan Patrick                           Precinct 7                                             01 
01070010004000337000013000225000099000000000000REP       Lieutenant Governor                                     Dan Patrick                           Precinct 8                                             01 
01070010005000221000008000110000103000000000000REP       Lieutenant Governor                                     Dan Patrick                           Precinct 9                                             01 
01070010006000596000039000395000162000000000000REP       Lieutenant Governor                                     Dan Patrick                           Precinct 10                                            01 
01070010007000067000007000022000038000000000000REP       Lieutenant Governor                                     Dan Patrick                           Precinct 11                                            01 
01070010008000475000019000290000166000000000000REP       Lieutenant Governor                                     Dan Patrick                           Precinct 12                                            01 
01070010009000198000008000099000091000000000000REP       Lieutenant Governor                                     Dan Patrick                           Precinct 13                                            01 
01070010010000062000006000035000021000000000000REP       Lieutenant Governor                                     Dan Patrick                           Precinct 14                                            01 
01070010011000399000027000234000138000000000000REP       Lieutenant Governor                                     Dan Patrick                           Precinct 15                                            01 
01070020001000007000000000002000005000000000000DEM       Lieutenant Governor                                     Mike Collier                          Precinct 5                                             01 
01070020002000019000001000013000005000000000000DEM       Lieutenant Governor                                     Mike Collier                          Precinct 6                                             01 
01070020003000192000014000119000059000000000000DEM       Lieutenant Governor                                     Mike Collier                          Precinct 7                                             01 
01070020004000072000001000047000024000000000000DEM       Lieutenant Governor                                     Mike Collier                          Precinct 8                                             01 
01070020005000045000001000015000029000000000000DEM       Lieutenant Governor                                     Mike Collier                          Precinct 9                                             01 
01070020006000105000010000056000039000000000000DEM       Lieutenant Governor                                     Mike Collier                          Precinct 10                                            01 
01070020007000010000000000003000007000000000000DEM       Lieutenant Governor                                     Mike Collier                          Precinct 11                                            01 
01070020008000131000010000070000051000000000000DEM       Lieutenant Governor                                     Mike Collier                          Precinct 12                                            01 
01070020009000070000004000021000045000000000000DEM       Lieutenant Governor                                     Mike Collier                          Precinct 13                                            01 
01070020010000018000002000009000007000000000000DEM       Lieutenant Governor                                     Mike Collier                          Precinct 14                                            01 
01070020011000136000007000064000065000000000000DEM       Lieutenant Governor                                     Mike Collier                          Precinct 15                                            01 
01070030001000001000000000001000000000000000000LIB       Lieutenant Governor                                     Kerry Douglas McKennon                Precinct 5                                             01 
01070030002000002000000000001000001000000000000LIB       Lieutenant Governor                                     Kerry Douglas McKennon                Precinct 6                                             01 
01070030003000019000000000012000007000000000000LIB       Lieutenant Governor                                     Kerry Douglas McKennon                Precinct 7                                             01 
01070030004000004000000000003000001000000000000LIB       Lieutenant Governor                                     Kerry Douglas McKennon                Precinct 8                                             01 
01070030005000008000000000001000007000000000000LIB       Lieutenant Governor                                     Kerry Douglas McKennon                Precinct 9                                             01 
01070030006000012000000000008000004000000000000LIB       Lieutenant Governor                                     Kerry Douglas McKennon                Precinct 10                                            01 
01070030007000001000000000001000000000000000000LIB       Lieutenant Governor                                     Kerry Douglas McKennon                Precinct 11                                            01 
01070030008000018000000000010000008000000000000LIB       Lieutenant Governor                                     Kerry Douglas McKennon                Precinct 12                                            01 
01070030009000003000000000001000002000000000000LIB       Lieutenant Governor                                     Kerry Douglas McKennon                Precinct 13                                            01 
01070030010000000000000000000000000000000000000LIB       Lieutenant Governor                                     Kerry Douglas McKennon                Precinct 14                                            01 
01070030011000017000000000008000009000000000000LIB       Lieutenant Governor                                     Kerry Douglas McKennon                Precinct 15                                            01 
01070040001000000000000000000000000000000000000          Lieutenant Governor                                     OVER VOTES                            Precinct 5                                             01 
01070040002000000000000000000000000000000000000          Lieutenant Governor                                     OVER VOTES                            Precinct 6                                             01 
01070040003000000000000000000000000000000000000          Lieutenant Governor                                     OVER VOTES                            Precinct 7                                             01 
01070040004000000000000000000000000000000000000          Lieutenant Governor                                     OVER VOTES                            Precinct 8                                             01 
01070040005000000000000000000000000000000000000          Lieutenant Governor                                     OVER VOTES                            Precinct 9                                             01 
01070040006000000000000000000000000000000000000          Lieutenant Governor                                     OVER VOTES                            Precinct 10                                            01 
01070040007000000000000000000000000000000000000          Lieutenant Governor                                     OVER VOTES                            Precinct 11                                            01 
01070040008000000000000000000000000000000000000          Lieutenant Governor                                     OVER VOTES                            Precinct 12                                            01 
01070040009000000000000000000000000000000000000          Lieutenant Governor                                     OVER VOTES                            Precinct 13                                            01 
01070040010000000000000000000000000000000000000          Lieutenant Governor                                     OVER VOTES                            Precinct 14                                            01 
01070040011000000000000000000000000000000000000          Lieutenant Governor                                     OVER VOTES                            Precinct 15                                            01 
01070050001000000000000000000000000000000000000          Lieutenant Governor                                     UNDER VOTES                           Precinct 5                                             01 
01070050002000002000000000000000002000000000000          Lieutenant Governor                                     UNDER VOTES                           Precinct 6                                             01 
01070050003000004000000000002000002000000000000          Lieutenant Governor                                     UNDER VOTES                           Precinct 7                                             01 
01070050004000007000000000001000006000000000000          Lieutenant Governor                                     UNDER VOTES                           Precinct 8                                             01 
01070050005000005000002000001000002000000000000          Lieutenant Governor                                     UNDER VOTES                           Precinct 9                                             01 
01070050006000008000000000004000004000000000000          Lieutenant Governor                                     UNDER VOTES                           Precinct 10                                            01 
01070050007000001000000000000000001000000000000          Lieutenant Governor                                     UNDER VOTES                           Precinct 11                                            01 
01070050008000007000000000002000004000001000000          Lieutenant Governor                                     UNDER VOTES                           Precinct 12                                            01 
01070050009000001000000000000000001000000000000          Lieutenant Governor                                     UNDER VOTES                           Precinct 13                                            01 
01070050010000000000000000000000000000000000000          Lieutenant Governor                                     UNDER VOTES                           Precinct 14                                            01 
01070050011000010000000000007000003000000000000          Lieutenant Governor                                     UNDER VOTES                           Precinct 15                                            01 
01080010001000055000000000028000027000000000000REP       Attorney General                                        Ken Paxton                            Precinct 5                                             01 
01080010002000131000009000074000048000000000000REP       Attorney General                                        Ken Paxton                            Precinct 6                                             01 
01080010003000932000053000621000258000000000000REP       Attorney General                                        Ken Paxton                            Precinct 7                                             01 
01080010004000358000013000231000114000000000000REP       Attorney General                                        Ken Paxton                            Precinct 8                                             01 
01080010005000243000009000113000121000000000000REP       Attorney General                                        Ken Paxton                            Precinct 9                                             01 
01080010006000627000039000411000177000000000000REP       Attorney General                                        Ken Paxton                            Precinct 10                                            01 
01080010007000067000005000024000038000000000000REP       Attorney General                                        Ken Paxton                            Precinct 11                                            01 
01080010008000495000019000302000174000000000000REP       Attorney General                                        Ken Paxton                            Precinct 12                                            01 
01080010009000223000009000102000112000000000000REP       Attorney General                                        Ken Paxton                            Precinct 13                                            01 
01080010010000064000006000035000023000000000000REP       Attorney General                                        Ken Paxton                            Precinct 14                                            01 
01080010011000393000027000228000138000000000000REP       Attorney General                                        Ken Paxton                            Precinct 15                                            01 
01080020001000009000000000003000006000000000000DEM       Attorney General                                        Justin Nelson                         Precinct 5                                             01 
01080020002000020000001000012000007000000000000DEM       Attorney General                                        Justin Nelson                         Precinct 6                                             01 
01080020003000164000014000106000044000000000000DEM       Attorney General                                        Justin Nelson                         Precinct 7                                             01 
01080020004000049000001000038000010000000000000DEM       Attorney General                                        Justin Nelson                         Precinct 8                                             01 
01080020005000027000002000012000013000000000000DEM       Attorney General                                        Justin Nelson                         Precinct 9                                             01 
01080020006000085000009000044000032000000000000DEM       Attorney General                                        Justin Nelson                         Precinct 10                                            01 
01080020007000007000001000001000005000000000000DEM       Attorney General                                        Justin Nelson                         Precinct 11                                            01 
01080020008000118000010000062000046000000000000DEM       Attorney General                                        Justin Nelson                         Precinct 12                                            01 
01080020009000044000003000016000025000000000000DEM       Attorney General                                        Justin Nelson                         Precinct 13                                            01 
01080020010000016000002000009000005000000000000DEM       Attorney General                                        Justin Nelson                         Precinct 14                                            01 
01080020011000141000007000065000069000000000000DEM       Attorney General                                        Justin Nelson                         Precinct 15                                            01 
01080030001000000000000000000000000000000000000LIB       Attorney General                                        Michael Ray Harris                    Precinct 5                                             01 
01080030002000002000002000000000000000000000000LIB       Attorney General                                        Michael Ray Harris                    Precinct 6                                             01 
01080030003000017000001000011000005000000000000LIB       Attorney General                                        Michael Ray Harris                    Precinct 7                                             01 
01080030004000007000000000006000001000000000000LIB       Attorney General                                        Michael Ray Harris                    Precinct 8                                             01 
01080030005000004000000000001000003000000000000LIB       Attorney General                                        Michael Ray Harris                    Precinct 9                                             01 
01080030006000005000000000005000000000000000000LIB       Attorney General                                        Michael Ray Harris                    Precinct 10                                            01 
01080030007000002000000000001000001000000000000LIB       Attorney General                                        Michael Ray Harris                    Precinct 11                                            01 
01080030008000013000000000005000008000000000000LIB       Attorney General                                        Michael Ray Harris                    Precinct 12                                            01 
01080030009000003000000000002000001000000000000LIB       Attorney General                                        Michael Ray Harris                    Precinct 13                                            01 
01080030010000000000000000000000000000000000000LIB       Attorney General                                        Michael Ray Harris                    Precinct 14                                            01 
01080030011000016000000000009000007000000000000LIB       Attorney General                                        Michael Ray Harris                    Precinct 15                                            01 
01080040001000000000000000000000000000000000000          Attorney General                                        OVER VOTES                            Precinct 5                                             01 
01080040002000000000000000000000000000000000000          Attorney General                                        OVER VOTES                            Precinct 6                                             01 
01080040003000000000000000000000000000000000000          Attorney General                                        OVER VOTES                            Precinct 7                                             01 
01080040004000000000000000000000000000000000000          Attorney General                                        OVER VOTES                            Precinct 8                                             01 
01080040005000000000000000000000000000000000000          Attorney General                                        OVER VOTES                            Precinct 9                                             01 
01080040006000000000000000000000000000000000000          Attorney General                                        OVER VOTES                            Precinct 10                                            01 
01080040007000000000000000000000000000000000000          Attorney General                                        OVER VOTES                            Precinct 11                                            01 
01080040008000000000000000000000000000000000000          Attorney General                                        OVER VOTES                            Precinct 12                                            01 
01080040009000000000000000000000000000000000000          Attorney General                                        OVER VOTES                            Precinct 13                                            01 
01080040010000000000000000000000000000000000000          Attorney General                                        OVER VOTES                            Precinct 14                                            01 
01080040011000000000000000000000000000000000000          Attorney General                                        OVER VOTES                            Precinct 15                                            01 
01080050001000000000000000000000000000000000000          Attorney General                                        UNDER VOTES                           Precinct 5                                             01 
01080050002000005000000000002000003000000000000          Attorney General                                        UNDER VOTES                           Precinct 6                                             01 
01080050003000012000000000008000004000000000000          Attorney General                                        UNDER VOTES                           Precinct 7                                             01 
01080050004000006000000000001000005000000000000          Attorney General                                        UNDER VOTES                           Precinct 8                                             01 
01080050005000005000000000001000004000000000000          Attorney General                                        UNDER VOTES                           Precinct 9                                             01 
01080050006000004000001000003000000000000000000          Attorney General                                        UNDER VOTES                           Precinct 10                                            01 
01080050007000003000001000000000002000000000000          Attorney General                                        UNDER VOTES                           Precinct 11                                            01 
01080050008000005000000000003000001000001000000          Attorney General                                        UNDER VOTES                           Precinct 12                                            01 
01080050009000002000000000001000001000000000000          Attorney General                                        UNDER VOTES                           Precinct 13                                            01 
01080050010000000000000000000000000000000000000          Attorney General                                        UNDER VOTES                           Precinct 14                                            01 
01080050011000012000000000011000001000000000000          Attorney General                                        UNDER VOTES                           Precinct 15                                            01 
01090010001000053000000000029000024000000000000REP       Comptroller of Public Accounts                          Glenn Hegar                           Precinct 5                                             01 
01090010002000138000011000076000051000000000000REP       Comptroller of Public Accounts                          Glenn Hegar                           Precinct 6                                             01 
01090010003000952000056000637000259000000000000REP       Comptroller of Public Accounts                          Glenn Hegar                           Precinct 7                                             01 
01090010004000358000013000233000112000000000000REP       Comptroller of Public Accounts                          Glenn Hegar                           Precinct 8                                             01 
01090010005000252000009000118000125000000000000REP       Comptroller of Public Accounts                          Glenn Hegar                           Precinct 9                                             01 
01090010006000636000039000419000178000000000000REP       Comptroller of Public Accounts                          Glenn Hegar                           Precinct 10                                            01 
01090010007000067000006000024000037000000000000REP       Comptroller of Public Accounts                          Glenn Hegar                           Precinct 11                                            01 
01090010008000495000019000305000171000000000000REP       Comptroller of Public Accounts                          Glenn Hegar                           Precinct 12                                            01 
01090010009000221000009000100000112000000000000REP       Comptroller of Public Accounts                          Glenn Hegar                           Precinct 13                                            01 
01090010010000068000006000036000026000000000000REP       Comptroller of Public Accounts                          Glenn Hegar                           Precinct 14                                            01 
01090010011000399000026000230000143000000000000REP       Comptroller of Public Accounts                          Glenn Hegar                           Precinct 15                                            01 
01090020001000006000000000002000004000000000000DEM       Comptroller of Public Accounts                          Joi Chevalier                         Precinct 5                                             01 
01090020002000015000001000009000005000000000000DEM       Comptroller of Public Accounts                          Joi Chevalier                         Precinct 6                                             01 
01090020003000133000012000082000039000000000000DEM       Comptroller of Public Accounts                          Joi Chevalier                         Precinct 7                                             01 
01090020004000045000001000033000011000000000000DEM       Comptroller of Public Accounts                          Joi Chevalier                         Precinct 8                                             01 
01090020005000016000000000006000010000000000000DEM       Comptroller of Public Accounts                          Joi Chevalier                         Precinct 9                                             01 
01090020006000066000010000034000022000000000000DEM       Comptroller of Public Accounts                          Joi Chevalier                         Precinct 10                                            01 
01090020007000006000001000000000005000000000000DEM       Comptroller of Public Accounts                          Joi Chevalier                         Precinct 11                                            01 
01090020008000107000010000056000041000000000000DEM       Comptroller of Public Accounts                          Joi Chevalier                         Precinct 12                                            01 
01090020009000037000003000014000020000000000000DEM       Comptroller of Public Accounts                          Joi Chevalier                         Precinct 13                                            01 
01090020010000010000002000007000001000000000000DEM       Comptroller of Public Accounts                          Joi Chevalier                         Precinct 14                                            01 
01090020011000135000008000067000060000000000000DEM       Comptroller of Public Accounts                          Joi Chevalier                         Precinct 15                                            01 
01090030001000003000000000000000003000000000000LIB       Comptroller of Public Accounts                          Ben Sanders                           Precinct 5                                             01 
01090030002000001000000000001000000000000000000LIB       Comptroller of Public Accounts                          Ben Sanders                           Precinct 6                                             01 
01090030003000019000000000013000006000000000000LIB       Comptroller of Public Accounts                          Ben Sanders                           Precinct 7                                             01 
01090030004000008000000000005000003000000000000LIB       Comptroller of Public Accounts                          Ben Sanders                           Precinct 8                                             01 
01090030005000002000000000001000001000000000000LIB       Comptroller of Public Accounts                          Ben Sanders                           Precinct 9                                             01 
01090030006000008000000000004000004000000000000LIB       Comptroller of Public Accounts                          Ben Sanders                           Precinct 10                                            01 
01090030007000002000000000001000001000000000000LIB       Comptroller of Public Accounts                          Ben Sanders                           Precinct 11                                            01 
01090030008000017000000000006000011000000000000LIB       Comptroller of Public Accounts                          Ben Sanders                           Precinct 12                                            01 
01090030009000005000000000003000002000000000000LIB       Comptroller of Public Accounts                          Ben Sanders                           Precinct 13                                            01 
01090030010000002000000000001000001000000000000LIB       Comptroller of Public Accounts                          Ben Sanders                           Precinct 14                                            01 
01090030011000016000000000008000008000000000000LIB       Comptroller of Public Accounts                          Ben Sanders                           Precinct 15                                            01 
01090040001000000000000000000000000000000000000          Comptroller of Public Accounts                          OVER VOTES                            Precinct 5                                             01 
01090040002000000000000000000000000000000000000          Comptroller of Public Accounts                          OVER VOTES                            Precinct 6                                             01 
01090040003000000000000000000000000000000000000          Comptroller of Public Accounts                          OVER VOTES                            Precinct 7                                             01 
01090040004000000000000000000000000000000000000          Comptroller of Public Accounts                          OVER VOTES                            Precinct 8                                             01 
01090040005000000000000000000000000000000000000          Comptroller of Public Accounts                          OVER VOTES                            Precinct 9                                             01 
01090040006000000000000000000000000000000000000          Comptroller of Public Accounts                          OVER VOTES                            Precinct 10                                            01 
01090040007000000000000000000000000000000000000          Comptroller of Public Accounts                          OVER VOTES                            Precinct 11                                            01 
01090040008000000000000000000000000000000000000          Comptroller of Public Accounts                          OVER VOTES                            Precinct 12                                            01 
01090040009000000000000000000000000000000000000          Comptroller of Public Accounts                          OVER VOTES                            Precinct 13                                            01 
01090040010000000000000000000000000000000000000          Comptroller of Public Accounts                          OVER VOTES                            Precinct 14                                            01 
01090040011000000000000000000000000000000000000          Comptroller of Public Accounts                          OVER VOTES                            Precinct 15                                            01 
01090050001000002000000000000000002000000000000          Comptroller of Public Accounts                          UNDER VOTES                           Precinct 5                                             01 
01090050002000004000000000002000002000000000000          Comptroller of Public Accounts                          UNDER VOTES                           Precinct 6                                             01 
01090050003000021000000000014000007000000000000          Comptroller of Public Accounts                          UNDER VOTES                           Precinct 7                                             01 
01090050004000009000000000005000004000000000000          Comptroller of Public Accounts                          UNDER VOTES                           Precinct 8                                             01 
01090050005000009000002000002000005000000000000          Comptroller of Public Accounts                          UNDER VOTES                           Precinct 9                                             01 
01090050006000011000000000006000005000000000000          Comptroller of Public Accounts                          UNDER VOTES                           Precinct 10                                            01 
01090050007000004000000000001000003000000000000          Comptroller of Public Accounts                          UNDER VOTES                           Precinct 11                                            01 
01090050008000012000000000005000006000001000000          Comptroller of Public Accounts                          UNDER VOTES                           Precinct 12                                            01 
01090050009000009000000000004000005000000000000          Comptroller of Public Accounts                          UNDER VOTES                           Precinct 13                                            01 
01090050010000000000000000000000000000000000000          Comptroller of Public Accounts                          UNDER VOTES                           Precinct 14                                            01 
01090050011000012000000000008000004000000000000          Comptroller of Public Accounts                          UNDER VOTES                           Precinct 15                                            01 
01100010001000047000000000024000023000000000000REP       Commissioner of the General Land Office                 George P. Bush                        Precinct 5                                             01 
01100010002000140000011000078000051000000000000REP       Commissioner of the General Land Office                 George P. Bush                        Precinct 6                                             01 
01100010003000936000056000624000256000000000000REP       Commissioner of the General Land Office                 George P. Bush                        Precinct 7                                             01 
01100010004000351000014000225000112000000000000REP       Commissioner of the General Land Office                 George P. Bush                        Precinct 8                                             01 
01100010005000237000011000107000119000000000000REP       Commissioner of the General Land Office                 George P. Bush                        Precinct 9                                             01 
01100010006000627000040000406000181000000000000REP       Commissioner of the General Land Office                 George P. Bush                        Precinct 10                                            01 
01100010007000067000006000024000037000000000000REP       Commissioner of the General Land Office                 George P. Bush                        Precinct 11                                            01 
01100010008000485000019000299000167000000000000REP       Commissioner of the General Land Office                 George P. Bush                        Precinct 12                                            01 
01100010009000218000009000100000109000000000000REP       Commissioner of the General Land Office                 George P. Bush                        Precinct 13                                            01 
01100010010000062000008000029000025000000000000REP       Commissioner of the General Land Office                 George P. Bush                        Precinct 14                                            01 
01100010011000393000027000224000142000000000000REP       Commissioner of the General Land Office                 George P. Bush                        Precinct 15                                            01 
01100020001000006000000000002000004000000000000DEM       Commissioner of the General Land Office                 Miguel Suazo                          Precinct 5                                             01 
01100020002000015000001000008000006000000000000DEM       Commissioner of the General Land Office                 Miguel Suazo                          Precinct 6                                             01 
01100020003000139000012000087000040000000000000DEM       Commissioner of the General Land Office                 Miguel Suazo                          Precinct 7                                             01 
01100020004000047000000000035000012000000000000DEM       Commissioner of the General Land Office                 Miguel Suazo                          Precinct 8                                             01 
01100020005000025000000000013000012000000000000DEM       Commissioner of the General Land Office                 Miguel Suazo                          Precinct 9                                             01 
01100020006000068000009000039000020000000000000DEM       Commissioner of the General Land Office                 Miguel Suazo                          Precinct 10                                            01 
01100020007000007000000000000000007000000000000DEM       Commissioner of the General Land Office                 Miguel Suazo                          Precinct 11                                            01 
01100020008000109000010000056000043000000000000DEM       Commissioner of the General Land Office                 Miguel Suazo                          Precinct 12                                            01 
01100020009000040000003000014000023000000000000DEM       Commissioner of the General Land Office                 Miguel Suazo                          Precinct 13                                            01 
01100020010000011000000000009000002000000000000DEM       Commissioner of the General Land Office                 Miguel Suazo                          Precinct 14                                            01 
01100020011000133000007000063000063000000000000DEM       Commissioner of the General Land Office                 Miguel Suazo                          Precinct 15                                            01 
01100030001000006000000000002000004000000000000LIB       Commissioner of the General Land Office                 Matt Pina                             Precinct 5                                             01 
01100030002000001000000000001000000000000000000LIB       Commissioner of the General Land Office                 Matt Pina                             Precinct 6                                             01 
01100030003000029000000000022000007000000000000LIB       Commissioner of the General Land Office                 Matt Pina                             Precinct 7                                             01 
01100030004000013000000000011000002000000000000LIB       Commissioner of the General Land Office                 Matt Pina                             Precinct 8                                             01 
01100030005000010000000000005000005000000000000LIB       Commissioner of the General Land Office                 Matt Pina                             Precinct 9                                             01 
01100030006000016000000000012000004000000000000LIB       Commissioner of the General Land Office                 Matt Pina                             Precinct 10                                            01 
01100030007000002000001000001000000000000000000LIB       Commissioner of the General Land Office                 Matt Pina                             Precinct 11                                            01 
01100030008000023000000000010000013000000000000LIB       Commissioner of the General Land Office                 Matt Pina                             Precinct 12                                            01 
01100030009000008000000000004000004000000000000LIB       Commissioner of the General Land Office                 Matt Pina                             Precinct 13                                            01 
01100030010000005000000000004000001000000000000LIB       Commissioner of the General Land Office                 Matt Pina                             Precinct 14                                            01 
01100030011000021000000000012000009000000000000LIB       Commissioner of the General Land Office                 Matt Pina                             Precinct 15                                            01 
01100040001000000000000000000000000000000000000          Commissioner of the General Land Office                 OVER VOTES                            Precinct 5                                             01 
01100040002000000000000000000000000000000000000          Commissioner of the General Land Office                 OVER VOTES                            Precinct 6                                             01 
01100040003000000000000000000000000000000000000          Commissioner of the General Land Office                 OVER VOTES                            Precinct 7                                             01 
01100040004000000000000000000000000000000000000          Commissioner of the General Land Office                 OVER VOTES                            Precinct 8                                             01 
01100040005000000000000000000000000000000000000          Commissioner of the General Land Office                 OVER VOTES                            Precinct 9                                             01 
01100040006000000000000000000000000000000000000          Commissioner of the General Land Office                 OVER VOTES                            Precinct 10                                            01 
01100040007000000000000000000000000000000000000          Commissioner of the General Land Office                 OVER VOTES                            Precinct 11                                            01 
01100040008000000000000000000000000000000000000          Commissioner of the General Land Office                 OVER VOTES                            Precinct 12                                            01 
01100040009000000000000000000000000000000000000          Commissioner of the General Land Office                 OVER VOTES                            Precinct 13                                            01 
01100040010000000000000000000000000000000000000          Commissioner of the General Land Office                 OVER VOTES                            Precinct 14                                            01 
01100040011000000000000000000000000000000000000          Commissioner of the General Land Office                 OVER VOTES                            Precinct 15                                            01 
01100050001000005000000000003000002000000000000          Commissioner of the General Land Office                 UNDER VOTES                           Precinct 5                                             01 
01100050002000002000000000001000001000000000000          Commissioner of the General Land Office                 UNDER VOTES                           Precinct 6                                             01 
01100050003000021000000000013000008000000000000          Commissioner of the General Land Office                 UNDER VOTES                           Precinct 7                                             01 
01100050004000009000000000005000004000000000000          Commissioner of the General Land Office                 UNDER VOTES                           Precinct 8                                             01 
01100050005000007000000000002000005000000000000          Commissioner of the General Land Office                 UNDER VOTES                           Precinct 9                                             01 
01100050006000010000000000006000004000000000000          Commissioner of the General Land Office                 UNDER VOTES                           Precinct 10                                            01 
01100050007000003000000000001000002000000000000          Commissioner of the General Land Office                 UNDER VOTES                           Precinct 11                                            01 
01100050008000014000000000007000006000001000000          Commissioner of the General Land Office                 UNDER VOTES                           Precinct 12                                            01 
01100050009000006000000000003000003000000000000          Commissioner of the General Land Office                 UNDER VOTES                           Precinct 13                                            01 
01100050010000002000000000002000000000000000000          Commissioner of the General Land Office                 UNDER VOTES                           Precinct 14                                            01 
01100050011000015000000000014000001000000000000          Commissioner of the General Land Office                 UNDER VOTES                           Precinct 15                                            01 
01110010001000057000000000028000029000000000000REP       Commissioner of Agriculture                             Sid Miller                            Precinct 5                                             01 
01110010002000135000011000075000049000000000000REP       Commissioner of Agriculture                             Sid Miller                            Precinct 6                                             01 
01110010003000954000056000636000262000000000000REP       Commissioner of Agriculture                             Sid Miller                            Precinct 7                                             01 
01110010004000359000013000231000115000000000000REP       Commissioner of Agriculture                             Sid Miller                            Precinct 8                                             01 
01110010005000250000010000116000124000000000000REP       Commissioner of Agriculture                             Sid Miller                            Precinct 9                                             01 
01110010006000642000039000423000180000000000000REP       Commissioner of Agriculture                             Sid Miller                            Precinct 10                                            01 
01110010007000069000006000025000038000000000000REP       Commissioner of Agriculture                             Sid Miller                            Precinct 11                                            01 
01110010008000499000019000303000177000000000000REP       Commissioner of Agriculture                             Sid Miller                            Precinct 12                                            01 
01110010009000223000009000104000110000000000000REP       Commissioner of Agriculture                             Sid Miller                            Precinct 13                                            01 
01110010010000067000006000036000025000000000000REP       Commissioner of Agriculture                             Sid Miller                            Precinct 14                                            01 
01110010011000400000026000231000143000000000000REP       Commissioner of Agriculture                             Sid Miller                            Precinct 15                                            01 
01110020001000006000000000002000004000000000000DEM       Commissioner of Agriculture                             Kim Olson                             Precinct 5                                             01 
01110020002000018000001000010000007000000000000DEM       Commissioner of Agriculture                             Kim Olson                             Precinct 6                                             01 
01110020003000142000012000091000039000000000000DEM       Commissioner of Agriculture                             Kim Olson                             Precinct 7                                             01 
01110020004000052000001000039000012000000000000DEM       Commissioner of Agriculture                             Kim Olson                             Precinct 8                                             01 
01110020005000022000001000010000011000000000000DEM       Commissioner of Agriculture                             Kim Olson                             Precinct 9                                             01 
01110020006000067000010000033000024000000000000DEM       Commissioner of Agriculture                             Kim Olson                             Precinct 10                                            01 
01110020007000005000000000000000005000000000000DEM       Commissioner of Agriculture                             Kim Olson                             Precinct 11                                            01 
01110020008000108000010000057000041000000000000DEM       Commissioner of Agriculture                             Kim Olson                             Precinct 12                                            01 
01110020009000043000003000014000026000000000000DEM       Commissioner of Agriculture                             Kim Olson                             Precinct 13                                            01 
01110020010000013000002000008000003000000000000DEM       Commissioner of Agriculture                             Kim Olson                             Precinct 14                                            01 
01110020011000139000008000066000065000000000000DEM       Commissioner of Agriculture                             Kim Olson                             Precinct 15                                            01 
