01900011041000152NONSSAISD1South San Antonio ISD Single Member District 1          Angelina Osteguin                                                                            01 
01900011042000000NONSSAISD1South San Antonio ISD Single Member District 1          Angelina Osteguin                                                                            01 
01900011045000051NONSSAISD1South San Antonio ISD Single Member District 1          Angelina Osteguin                                                                            01 
01900011060000021NONSSAISD1South San Antonio ISD Single Member District 1          Angelina Osteguin                                                                            01 
01900021041000208NONSSAISD1South San Antonio ISD Single Member District 1          Mandy Martinez                                                                               01 
01900021042000000NONSSAISD1South San Antonio ISD Single Member District 1          Mandy Martinez                                                                               01 
01900021045000073NONSSAISD1South San Antonio ISD Single Member District 1          Mandy Martinez                                                                               01 
01900021060000024NONSSAISD1South San Antonio ISD Single Member District 1          Mandy Martinez                                                                               01 
01900031041000000   SSAISD1South San Antonio ISD Single Member District 1          OVER VOTES                                                                                   01 
01900031042000000   SSAISD1South San Antonio ISD Single Member District 1          OVER VOTES                                                                                   01 
01900031045000000   SSAISD1South San Antonio ISD Single Member District 1          OVER VOTES                                                                                   01 
01900031060000000   SSAISD1South San Antonio ISD Single Member District 1          OVER VOTES                                                                                   01 
01900041041000266   SSAISD1South San Antonio ISD Single Member District 1          UNDER VOTES                                                                                  01 
01900041042000000   SSAISD1South San Antonio ISD Single Member District 1          UNDER VOTES                                                                                  01 
01900041045000072   SSAISD1South San Antonio ISD Single Member District 1          UNDER VOTES                                                                                  01 
01900041060000028   SSAISD1South San Antonio ISD Single Member District 1          UNDER VOTES                                                                                  01 
01910011042000033NONSSAISD3South San Antonio ISD Single Member District 3          Edward Bono Mungia                                                                           01 
01910011044000091NONSSAISD3South San Antonio ISD Single Member District 3          Edward Bono Mungia                                                                           01 
01910011046000153NONSSAISD3South San Antonio ISD Single Member District 3          Edward Bono Mungia                                                                           01 
01910011060000086NONSSAISD3South San Antonio ISD Single Member District 3          Edward Bono Mungia                                                                           01 
01910021042000054NONSSAISD3South San Antonio ISD Single Member District 3          Homer Flores                                                                                 01 
01910021044000156NONSSAISD3South San Antonio ISD Single Member District 3          Homer Flores                                                                                 01 
01910021046000232NONSSAISD3South San Antonio ISD Single Member District 3          Homer Flores                                                                                 01 
01910021060000139NONSSAISD3South San Antonio ISD Single Member District 3          Homer Flores                                                                                 01 
01910031042000000   SSAISD3South San Antonio ISD Single Member District 3          OVER VOTES                                                                                   01 
01910031044000000   SSAISD3South San Antonio ISD Single Member District 3          OVER VOTES                                                                                   01 
01910031046000000   SSAISD3South San Antonio ISD Single Member District 3          OVER VOTES                                                                                   01 
01910031060000000   SSAISD3South San Antonio ISD Single Member District 3          OVER VOTES                                                                                   01 
01910041042000078   SSAISD3South San Antonio ISD Single Member District 3          UNDER VOTES                                                                                  01 
01910041044000080   SSAISD3South San Antonio ISD Single Member District 3          UNDER VOTES                                                                                  01 
01910041046000155   SSAISD3South San Antonio ISD Single Member District 3          UNDER VOTES                                                                                  01 
01910041060000162   SSAISD3South San Antonio ISD Single Member District 3          UNDER VOTES                                                                                  01 
01920011037000118NONSSAISD6South San Antonio ISD Single Member District 6          Luis M. Rodriguez                                                                            01 
01920011038000083NONSSAISD6South San Antonio ISD Single Member District 6          Luis M. Rodriguez                                                                            01 
01920011075000083NONSSAISD6South San Antonio ISD Single Member District 6          Luis M. Rodriguez                                                                            01 
01920021037000212NONSSAISD6South San Antonio ISD Single Member District 6          Gilbert F. Rodriguez                                                                         01 
01920021038000157NONSSAISD6South San Antonio ISD Single Member District 6          Gilbert F. Rodriguez                                                                         01 
01920021075000096NONSSAISD6South San Antonio ISD Single Member District 6          Gilbert F. Rodriguez                                                                         01 
01920031037000000   SSAISD6South San Antonio ISD Single Member District 6          OVER VOTES                                                                                   01 
01920031038000000   SSAISD6South San Antonio ISD Single Member District 6          OVER VOTES                                                                                   01 
01920031075000000   SSAISD6South San Antonio ISD Single Member District 6          OVER VOTES                                                                                   01 
01920041037000210   SSAISD6South San Antonio ISD Single Member District 6          UNDER VOTES                                                                                  01 
01920041038000237   SSAISD6South San Antonio ISD Single Member District 6          UNDER VOTES                                                                                  01 
01920041075000174   SSAISD6South San Antonio ISD Single Member District 6          UNDER VOTES                                                                                  01 
