01930011048000003NONISDSIDESouthside ISD Proposition A                             For                                                                                          01Y
01930011053000023NONISDSIDESouthside ISD Proposition A                             For                                                                                          01Y
01930011054000043NONISDSIDESouthside ISD Proposition A                             For                                                                                          01Y
01930011056000367NONISDSIDESouthside ISD Proposition A                             For                                                                                          01Y
01930011057000239NONISDSIDESouthside ISD Proposition A                             For                                                                                          01Y
01930011058000260NONISDSIDESouthside ISD Proposition A                             For                                                                                          01Y
01930011059000067NONISDSIDESouthside ISD Proposition A                             For                                                                                          01Y
01930011089000000NONISDSIDESouthside ISD Proposition A                             For                                                                                          01Y
01930011102000133NONISDSIDESouthside ISD Proposition A                             For                                                                                          01Y
01930011107000355NONISDSIDESouthside ISD Proposition A                             For                                                                                          01Y
01930011124000097NONISDSIDESouthside ISD Proposition A                             For                                                                                          01Y
01930021048000001NONISDSIDESouthside ISD Proposition A                             Against                                                                                      01Y
01930021053000010NONISDSIDESouthside ISD Proposition A                             Against                                                                                      01Y
01930021054000023NONISDSIDESouthside ISD Proposition A                             Against                                                                                      01Y
01930021056000393NONISDSIDESouthside ISD Proposition A                             Against                                                                                      01Y
01930021057000290NONISDSIDESouthside ISD Proposition A                             Against                                                                                      01Y
01930021058000398NONISDSIDESouthside ISD Proposition A                             Against                                                                                      01Y
01930021059000037NONISDSIDESouthside ISD Proposition A                             Against                                                                                      01Y
01930021089000000NONISDSIDESouthside ISD Proposition A                             Against                                                                                      01Y
01930021102000139NONISDSIDESouthside ISD Proposition A                             Against                                                                                      01Y
01930021107000432NONISDSIDESouthside ISD Proposition A                             Against                                                                                      01Y
01930021124000136NONISDSIDESouthside ISD Proposition A                             Against                                                                                      01Y
01930031048000000   ISDSIDESouthside ISD Proposition A                             OVER VOTES                                                                                   01Y
01930031053000000   ISDSIDESouthside ISD Proposition A                             OVER VOTES                                                                                   01Y
01930031054000000   ISDSIDESouthside ISD Proposition A                             OVER VOTES                                                                                   01Y
01930031056000000   ISDSIDESouthside ISD Proposition A                             OVER VOTES                                                                                   01Y
01930031057000000   ISDSIDESouthside ISD Proposition A                             OVER VOTES                                                                                   01Y
01930031058000000   ISDSIDESouthside ISD Proposition A                             OVER VOTES                                                                                   01Y
01930031059000000   ISDSIDESouthside ISD Proposition A                             OVER VOTES                                                                                   01Y
01930031089000000   ISDSIDESouthside ISD Proposition A                             OVER VOTES                                                                                   01Y
01930031102000000   ISDSIDESouthside ISD Proposition A                             OVER VOTES                                                                                   01Y
01930031107000000   ISDSIDESouthside ISD Proposition A                             OVER VOTES                                                                                   01Y
01930031124000000   ISDSIDESouthside ISD Proposition A                             OVER VOTES                                                                                   01Y
01930041048000000   ISDSIDESouthside ISD Proposition A                             UNDER VOTES                                                                                  01Y
01930041053000003   ISDSIDESouthside ISD Proposition A                             UNDER VOTES                                                                                  01Y
01930041054000005   ISDSIDESouthside ISD Proposition A                             UNDER VOTES                                                                                  01Y
01930041056000063   ISDSIDESouthside ISD Proposition A                             UNDER VOTES                                                                                  01Y
01930041057000089   ISDSIDESouthside ISD Proposition A                             UNDER VOTES                                                                                  01Y
01930041058000060   ISDSIDESouthside ISD Proposition A                             UNDER VOTES                                                                                  01Y
01930041059000013   ISDSIDESouthside ISD Proposition A                             UNDER VOTES                                                                                  01Y
01930041089000000   ISDSIDESouthside ISD Proposition A                             UNDER VOTES                                                                                  01Y
01930041102000035   ISDSIDESouthside ISD Proposition A                             UNDER VOTES                                                                                  01Y
01930041107000071   ISDSIDESouthside ISD Proposition A                             UNDER VOTES                                                                                  01Y
01930041124000018   ISDSIDESouthside ISD Proposition A                             UNDER VOTES                                                                                  01Y
