01930011048000003NONISDSIDESouthside ISD Proposition A                             For                                                                                          01Y
01930011053000029NONISDSIDESouthside ISD Proposition A                             For                                                                                          01Y
01930011054000052NONISDSIDESouthside ISD Proposition A                             For                                                                                          01Y
01930011056000484NONISDSIDESouthside ISD Proposition A                             For                                                                                          01Y
01930011057000353NONISDSIDESouthside ISD Proposition A                             For                                                                                          01Y
01930011058000341NONISDSIDESouthside ISD Proposition A                             For                                                                                          01Y
01930011059000078NONISDSIDESouthside ISD Proposition A                             For                                                                                          01Y
01930011089000000NONISDSIDESouthside ISD Proposition A                             For                                                                                          01Y
01930011102000177NONISDSIDESouthside ISD Proposition A                             For                                                                                          01Y
01930011107000486NONISDSIDESouthside ISD Proposition A                             For                                                                                          01Y
01930011124000118NONISDSIDESouthside ISD Proposition A                             For                                                                                          01Y
01930021048000001NONISDSIDESouthside ISD Proposition A                             Against                                                                                      01Y
01930021053000012NONISDSIDESouthside ISD Proposition A                             Against                                                                                      01Y
01930021054000029NONISDSIDESouthside ISD Proposition A                             Against                                                                                      01Y
01930021056000610NONISDSIDESouthside ISD Proposition A                             Against                                                                                      01Y
01930021057000401NONISDSIDESouthside ISD Proposition A                             Against                                                                                      01Y
01930021058000485NONISDSIDESouthside ISD Proposition A                             Against                                                                                      01Y
01930021059000046NONISDSIDESouthside ISD Proposition A                             Against                                                                                      01Y
01930021089000000NONISDSIDESouthside ISD Proposition A                             Against                                                                                      01Y
01930021102000208NONISDSIDESouthside ISD Proposition A                             Against                                                                                      01Y
01930021107000558NONISDSIDESouthside ISD Proposition A                             Against                                                                                      01Y
01930021124000159NONISDSIDESouthside ISD Proposition A                             Against                                                                                      01Y
01930031048000000   ISDSIDESouthside ISD Proposition A                             OVER VOTES                                                                                   01Y
01930031053000000   ISDSIDESouthside ISD Proposition A                             OVER VOTES                                                                                   01Y
01930031054000000   ISDSIDESouthside ISD Proposition A                             OVER VOTES                                                                                   01Y
01930031056000000   ISDSIDESouthside ISD Proposition A                             OVER VOTES                                                                                   01Y
01930031057000000   ISDSIDESouthside ISD Proposition A                             OVER VOTES                                                                                   01Y
01930031058000000   ISDSIDESouthside ISD Proposition A                             OVER VOTES                                                                                   01Y
01930031059000000   ISDSIDESouthside ISD Proposition A                             OVER VOTES                                                                                   01Y
01930031089000000   ISDSIDESouthside ISD Proposition A                             OVER VOTES                                                                                   01Y
01930031102000000   ISDSIDESouthside ISD Proposition A                             OVER VOTES                                                                                   01Y
01930031107000000   ISDSIDESouthside ISD Proposition A                             OVER VOTES                                                                                   01Y
01930031124000000   ISDSIDESouthside ISD Proposition A                             OVER VOTES                                                                                   01Y
01930041048000000   ISDSIDESouthside ISD Proposition A                             UNDER VOTES                                                                                  01Y
01930041053000003   ISDSIDESouthside ISD Proposition A                             UNDER VOTES                                                                                  01Y
01930041054000006   ISDSIDESouthside ISD Proposition A                             UNDER VOTES                                                                                  01Y
01930041056000092   ISDSIDESouthside ISD Proposition A                             UNDER VOTES                                                                                  01Y
01930041057000134   ISDSIDESouthside ISD Proposition A                             UNDER VOTES                                                                                  01Y
01930041058000082   ISDSIDESouthside ISD Proposition A                             UNDER VOTES                                                                                  01Y
01930041059000014   ISDSIDESouthside ISD Proposition A                             UNDER VOTES                                                                                  01Y
01930041089000000   ISDSIDESouthside ISD Proposition A                             UNDER VOTES                                                                                  01Y
01930041102000046   ISDSIDESouthside ISD Proposition A                             UNDER VOTES                                                                                  01Y
01930041107000086   ISDSIDESouthside ISD Proposition A                             UNDER VOTES                                                                                  01Y
01930041124000025   ISDSIDESouthside ISD Proposition A                             UNDER VOTES                                                                                  01Y
