01940011027000035NONISDWESTSouthwest ISD Proposition A                             For                                                                                          01Y
01940011033000040NONISDWESTSouthwest ISD Proposition A                             For                                                                                          01Y
01940011036000165NONISDWESTSouthwest ISD Proposition A                             For                                                                                          01Y
01940011038000138NONISDWESTSouthwest ISD Proposition A                             For                                                                                          01Y
01940011039000358NONISDWESTSouthwest ISD Proposition A                             For                                                                                          01Y
01940011044000000NONISDWESTSouthwest ISD Proposition A                             For                                                                                          01Y
01940011046000001NONISDWESTSouthwest ISD Proposition A                             For                                                                                          01Y
01940011059000000NONISDWESTSouthwest ISD Proposition A                             For                                                                                          01Y
01940011060000215NONISDWESTSouthwest ISD Proposition A                             For                                                                                          01Y
01940011061000376NONISDWESTSouthwest ISD Proposition A                             For                                                                                          01Y
01940011062000026NONISDWESTSouthwest ISD Proposition A                             For                                                                                          01Y
01940011064000209NONISDWESTSouthwest ISD Proposition A                             For                                                                                          01Y
01940011065000032NONISDWESTSouthwest ISD Proposition A                             For                                                                                          01Y
01940011066000122NONISDWESTSouthwest ISD Proposition A                             For                                                                                          01Y
01940011067000606NONISDWESTSouthwest ISD Proposition A                             For                                                                                          01Y
01940011075000119NONISDWESTSouthwest ISD Proposition A                             For                                                                                          01Y
01940011082000944NONISDWESTSouthwest ISD Proposition A                             For                                                                                          01Y
01940011092000115NONISDWESTSouthwest ISD Proposition A                             For                                                                                          01Y
01940011094000394NONISDWESTSouthwest ISD Proposition A                             For                                                                                          01Y
01940011105000113NONISDWESTSouthwest ISD Proposition A                             For                                                                                          01Y
01940011106000000NONISDWESTSouthwest ISD Proposition A                             For                                                                                          01Y
01940011114000000NONISDWESTSouthwest ISD Proposition A                             For                                                                                          01Y
01940011128000236NONISDWESTSouthwest ISD Proposition A                             For                                                                                          01Y
01940011133000000NONISDWESTSouthwest ISD Proposition A                             For                                                                                          01Y
01940011134000000NONISDWESTSouthwest ISD Proposition A                             For                                                                                          01Y
01940011135000000NONISDWESTSouthwest ISD Proposition A                             For                                                                                          01Y
01940011136000063NONISDWESTSouthwest ISD Proposition A                             For                                                                                          01Y
01940011140000263NONISDWESTSouthwest ISD Proposition A                             For                                                                                          01Y
01940011146000027NONISDWESTSouthwest ISD Proposition A                             For                                                                                          01Y
01940021027000037NONISDWESTSouthwest ISD Proposition A                             Against                                                                                      01Y
01940021033000010NONISDWESTSouthwest ISD Proposition A                             Against                                                                                      01Y
01940021036000061NONISDWESTSouthwest ISD Proposition A                             Against                                                                                      01Y
01940021038000061NONISDWESTSouthwest ISD Proposition A                             Against                                                                                      01Y
01940021039000120NONISDWESTSouthwest ISD Proposition A                             Against                                                                                      01Y
01940021044000000NONISDWESTSouthwest ISD Proposition A                             Against                                                                                      01Y
01940021046000001NONISDWESTSouthwest ISD Proposition A                             Against                                                                                      01Y
01940021059000000NONISDWESTSouthwest ISD Proposition A                             Against                                                                                      01Y
01940021060000102NONISDWESTSouthwest ISD Proposition A                             Against                                                                                      01Y
01940021061000127NONISDWESTSouthwest ISD Proposition A                             Against                                                                                      01Y
01940021062000017NONISDWESTSouthwest ISD Proposition A                             Against                                                                                      01Y
01940021064000120NONISDWESTSouthwest ISD Proposition A                             Against                                                                                      01Y
01940021065000012NONISDWESTSouthwest ISD Proposition A                             Against                                                                                      01Y
01940021066000065NONISDWESTSouthwest ISD Proposition A                             Against                                                                                      01Y
01940021067000375NONISDWESTSouthwest ISD Proposition A                             Against                                                                                      01Y
01940021075000036NONISDWESTSouthwest ISD Proposition A                             Against                                                                                      01Y
01940021082000490NONISDWESTSouthwest ISD Proposition A                             Against                                                                                      01Y
01940021092000068NONISDWESTSouthwest ISD Proposition A                             Against                                                                                      01Y
01940021094000155NONISDWESTSouthwest ISD Proposition A                             Against                                                                                      01Y
01940021105000055NONISDWESTSouthwest ISD Proposition A                             Against                                                                                      01Y
01940021106000000NONISDWESTSouthwest ISD Proposition A                             Against                                                                                      01Y
01940021114000000NONISDWESTSouthwest ISD Proposition A                             Against                                                                                      01Y
01940021128000164NONISDWESTSouthwest ISD Proposition A                             Against                                                                                      01Y
01940021133000000NONISDWESTSouthwest ISD Proposition A                             Against                                                                                      01Y
01940021134000000NONISDWESTSouthwest ISD Proposition A                             Against                                                                                      01Y
01940021135000000NONISDWESTSouthwest ISD Proposition A                             Against                                                                                      01Y
01940021136000024NONISDWESTSouthwest ISD Proposition A                             Against                                                                                      01Y
01940021140000121NONISDWESTSouthwest ISD Proposition A                             Against                                                                                      01Y
01940021146000025NONISDWESTSouthwest ISD Proposition A                             Against                                                                                      01Y
01940031027000000   ISDWESTSouthwest ISD Proposition A                             OVER VOTES                                                                                   01Y
01940031033000000   ISDWESTSouthwest ISD Proposition A                             OVER VOTES                                                                                   01Y
01940031036000000   ISDWESTSouthwest ISD Proposition A                             OVER VOTES                                                                                   01Y
01940031038000000   ISDWESTSouthwest ISD Proposition A                             OVER VOTES                                                                                   01Y
01940031039000000   ISDWESTSouthwest ISD Proposition A                             OVER VOTES                                                                                   01Y
01940031044000000   ISDWESTSouthwest ISD Proposition A                             OVER VOTES                                                                                   01Y
01940031046000000   ISDWESTSouthwest ISD Proposition A                             OVER VOTES                                                                                   01Y
01940031059000000   ISDWESTSouthwest ISD Proposition A                             OVER VOTES                                                                                   01Y
01940031060000000   ISDWESTSouthwest ISD Proposition A                             OVER VOTES                                                                                   01Y
01940031061000000   ISDWESTSouthwest ISD Proposition A                             OVER VOTES                                                                                   01Y
01940031062000000   ISDWESTSouthwest ISD Proposition A                             OVER VOTES                                                                                   01Y
01940031064000000   ISDWESTSouthwest ISD Proposition A                             OVER VOTES                                                                                   01Y
01940031065000000   ISDWESTSouthwest ISD Proposition A                             OVER VOTES                                                                                   01Y
01940031066000000   ISDWESTSouthwest ISD Proposition A                             OVER VOTES                                                                                   01Y
01940031067000000   ISDWESTSouthwest ISD Proposition A                             OVER VOTES                                                                                   01Y
01940031075000000   ISDWESTSouthwest ISD Proposition A                             OVER VOTES                                                                                   01Y
01940031082000000   ISDWESTSouthwest ISD Proposition A                             OVER VOTES                                                                                   01Y
01940031092000000   ISDWESTSouthwest ISD Proposition A                             OVER VOTES                                                                                   01Y
01940031094000000   ISDWESTSouthwest ISD Proposition A                             OVER VOTES                                                                                   01Y
01940031105000000   ISDWESTSouthwest ISD Proposition A                             OVER VOTES                                                                                   01Y
01940031106000000   ISDWESTSouthwest ISD Proposition A                             OVER VOTES                                                                                   01Y
01940031114000000   ISDWESTSouthwest ISD Proposition A                             OVER VOTES                                                                                   01Y
01940031128000000   ISDWESTSouthwest ISD Proposition A                             OVER VOTES                                                                                   01Y
01940031133000000   ISDWESTSouthwest ISD Proposition A                             OVER VOTES                                                                                   01Y
01940031134000000   ISDWESTSouthwest ISD Proposition A                             OVER VOTES                                                                                   01Y
01940031135000000   ISDWESTSouthwest ISD Proposition A                             OVER VOTES                                                                                   01Y
01940031136000000   ISDWESTSouthwest ISD Proposition A                             OVER VOTES                                                                                   01Y
01940031140000000   ISDWESTSouthwest ISD Proposition A                             OVER VOTES                                                                                   01Y
01940031146000000   ISDWESTSouthwest ISD Proposition A                             OVER VOTES                                                                                   01Y
01940041027000011   ISDWESTSouthwest ISD Proposition A                             UNDER VOTES                                                                                  01Y
01940041033000002   ISDWESTSouthwest ISD Proposition A                             UNDER VOTES                                                                                  01Y
01940041036000037   ISDWESTSouthwest ISD Proposition A                             UNDER VOTES                                                                                  01Y
01940041038000024   ISDWESTSouthwest ISD Proposition A                             UNDER VOTES                                                                                  01Y
01940041039000100   ISDWESTSouthwest ISD Proposition A                             UNDER VOTES                                                                                  01Y
01940041044000000   ISDWESTSouthwest ISD Proposition A                             UNDER VOTES                                                                                  01Y
01940041046000000   ISDWESTSouthwest ISD Proposition A                             UNDER VOTES                                                                                  01Y
01940041059000000   ISDWESTSouthwest ISD Proposition A                             UNDER VOTES                                                                                  01Y
01940041060000038   ISDWESTSouthwest ISD Proposition A                             UNDER VOTES                                                                                  01Y
01940041061000069   ISDWESTSouthwest ISD Proposition A                             UNDER VOTES                                                                                  01Y
01940041062000003   ISDWESTSouthwest ISD Proposition A                             UNDER VOTES                                                                                  01Y
01940041064000028   ISDWESTSouthwest ISD Proposition A                             UNDER VOTES                                                                                  01Y
01940041065000005   ISDWESTSouthwest ISD Proposition A                             UNDER VOTES                                                                                  01Y
01940041066000023   ISDWESTSouthwest ISD Proposition A                             UNDER VOTES                                                                                  01Y
01940041067000096   ISDWESTSouthwest ISD Proposition A                             UNDER VOTES                                                                                  01Y
01940041075000012   ISDWESTSouthwest ISD Proposition A                             UNDER VOTES                                                                                  01Y
01940041082000069   ISDWESTSouthwest ISD Proposition A                             UNDER VOTES                                                                                  01Y
01940041092000019   ISDWESTSouthwest ISD Proposition A                             UNDER VOTES                                                                                  01Y
01940041094000024   ISDWESTSouthwest ISD Proposition A                             UNDER VOTES                                                                                  01Y
01940041105000008   ISDWESTSouthwest ISD Proposition A                             UNDER VOTES                                                                                  01Y
01940041106000000   ISDWESTSouthwest ISD Proposition A                             UNDER VOTES                                                                                  01Y
01940041114000000   ISDWESTSouthwest ISD Proposition A                             UNDER VOTES                                                                                  01Y
01940041128000019   ISDWESTSouthwest ISD Proposition A                             UNDER VOTES                                                                                  01Y
01940041133000000   ISDWESTSouthwest ISD Proposition A                             UNDER VOTES                                                                                  01Y
01940041134000000   ISDWESTSouthwest ISD Proposition A                             UNDER VOTES                                                                                  01Y
01940041135000000   ISDWESTSouthwest ISD Proposition A                             UNDER VOTES                                                                                  01Y
01940041136000008   ISDWESTSouthwest ISD Proposition A                             UNDER VOTES                                                                                  01Y
01940041140000018   ISDWESTSouthwest ISD Proposition A                             UNDER VOTES                                                                                  01Y
01940041146000009   ISDWESTSouthwest ISD Proposition A                             UNDER VOTES                                                                                  01Y
