01900011041000105NONSSAISD1South San Antonio ISD Single Member District 1          Angelina Osteguin                                                                            01 
01900011042000000NONSSAISD1South San Antonio ISD Single Member District 1          Angelina Osteguin                                                                            01 
01900011045000032NONSSAISD1South San Antonio ISD Single Member District 1          Angelina Osteguin                                                                            01 
01900011060000015NONSSAISD1South San Antonio ISD Single Member District 1          Angelina Osteguin                                                                            01 
01900021041000154NONSSAISD1South San Antonio ISD Single Member District 1          Mandy Martinez                                                                               01 
01900021042000000NONSSAISD1South San Antonio ISD Single Member District 1          Mandy Martinez                                                                               01 
01900021045000050NONSSAISD1South San Antonio ISD Single Member District 1          Mandy Martinez                                                                               01 
01900021060000013NONSSAISD1South San Antonio ISD Single Member District 1          Mandy Martinez                                                                               01 
01900031041000000   SSAISD1South San Antonio ISD Single Member District 1          OVER VOTES                                                                                   01 
01900031042000000   SSAISD1South San Antonio ISD Single Member District 1          OVER VOTES                                                                                   01 
01900031045000000   SSAISD1South San Antonio ISD Single Member District 1          OVER VOTES                                                                                   01 
01900031060000000   SSAISD1South San Antonio ISD Single Member District 1          OVER VOTES                                                                                   01 
01900041041000202   SSAISD1South San Antonio ISD Single Member District 1          UNDER VOTES                                                                                  01 
01900041042000000   SSAISD1South San Antonio ISD Single Member District 1          UNDER VOTES                                                                                  01 
01900041045000048   SSAISD1South San Antonio ISD Single Member District 1          UNDER VOTES                                                                                  01 
01900041060000020   SSAISD1South San Antonio ISD Single Member District 1          UNDER VOTES                                                                                  01 
01910011042000027NONSSAISD3South San Antonio ISD Single Member District 3          Edward Bono Mungia                                                                           01 
01910011044000063NONSSAISD3South San Antonio ISD Single Member District 3          Edward Bono Mungia                                                                           01 
01910011046000105NONSSAISD3South San Antonio ISD Single Member District 3          Edward Bono Mungia                                                                           01 
01910011060000056NONSSAISD3South San Antonio ISD Single Member District 3          Edward Bono Mungia                                                                           01 
01910021042000033NONSSAISD3South San Antonio ISD Single Member District 3          Homer Flores                                                                                 01 
01910021044000106NONSSAISD3South San Antonio ISD Single Member District 3          Homer Flores                                                                                 01 
01910021046000185NONSSAISD3South San Antonio ISD Single Member District 3          Homer Flores                                                                                 01 
01910021060000093NONSSAISD3South San Antonio ISD Single Member District 3          Homer Flores                                                                                 01 
01910031042000000   SSAISD3South San Antonio ISD Single Member District 3          OVER VOTES                                                                                   01 
01910031044000000   SSAISD3South San Antonio ISD Single Member District 3          OVER VOTES                                                                                   01 
01910031046000000   SSAISD3South San Antonio ISD Single Member District 3          OVER VOTES                                                                                   01 
01910031060000000   SSAISD3South San Antonio ISD Single Member District 3          OVER VOTES                                                                                   01 
01910041042000049   SSAISD3South San Antonio ISD Single Member District 3          UNDER VOTES                                                                                  01 
01910041044000063   SSAISD3South San Antonio ISD Single Member District 3          UNDER VOTES                                                                                  01 
01910041046000128   SSAISD3South San Antonio ISD Single Member District 3          UNDER VOTES                                                                                  01 
01910041060000110   SSAISD3South San Antonio ISD Single Member District 3          UNDER VOTES                                                                                  01 
01920011037000087NONSSAISD6South San Antonio ISD Single Member District 6          Luis M. Rodriguez                                                                            01 
01920011038000069NONSSAISD6South San Antonio ISD Single Member District 6          Luis M. Rodriguez                                                                            01 
01920011075000056NONSSAISD6South San Antonio ISD Single Member District 6          Luis M. Rodriguez                                                                            01 
01920021037000148NONSSAISD6South San Antonio ISD Single Member District 6          Gilbert F. Rodriguez                                                                         01 
01920021038000111NONSSAISD6South San Antonio ISD Single Member District 6          Gilbert F. Rodriguez                                                                         01 
01920021075000066NONSSAISD6South San Antonio ISD Single Member District 6          Gilbert F. Rodriguez                                                                         01 
01920031037000000   SSAISD6South San Antonio ISD Single Member District 6          OVER VOTES                                                                                   01 
01920031038000000   SSAISD6South San Antonio ISD Single Member District 6          OVER VOTES                                                                                   01 
01920031075000000   SSAISD6South San Antonio ISD Single Member District 6          OVER VOTES                                                                                   01 
01920041037000142   SSAISD6South San Antonio ISD Single Member District 6          UNDER VOTES                                                                                  01 
01920041038000169   SSAISD6South San Antonio ISD Single Member District 6          UNDER VOTES                                                                                  01 
01920041075000119   SSAISD6South San Antonio ISD Single Member District 6          UNDER VOTES                                                                                  01 
