01940011027000055NONISDWESTSouthwest ISD Proposition A                             For                                                                                          01Y
01940011033000056NONISDWESTSouthwest ISD Proposition A                             For                                                                                          01Y
01940011036000223NONISDWESTSouthwest ISD Proposition A                             For                                                                                          01Y
01940011038000184NONISDWESTSouthwest ISD Proposition A                             For                                                                                          01Y
01940011039000536NONISDWESTSouthwest ISD Proposition A                             For                                                                                          01Y
01940011044000000NONISDWESTSouthwest ISD Proposition A                             For                                                                                          01Y
01940011046000001NONISDWESTSouthwest ISD Proposition A                             For                                                                                          01Y
01940011059000000NONISDWESTSouthwest ISD Proposition A                             For                                                                                          01Y
01940011060000335NONISDWESTSouthwest ISD Proposition A                             For                                                                                          01Y
01940011061000579NONISDWESTSouthwest ISD Proposition A                             For                                                                                          01Y
01940011062000037NONISDWESTSouthwest ISD Proposition A                             For                                                                                          01Y
01940011064000301NONISDWESTSouthwest ISD Proposition A                             For                                                                                          01Y
01940011065000043NONISDWESTSouthwest ISD Proposition A                             For                                                                                          01Y
01940011066000164NONISDWESTSouthwest ISD Proposition A                             For                                                                                          01Y
01940011067000771NONISDWESTSouthwest ISD Proposition A                             For                                                                                          01Y
01940011075000154NONISDWESTSouthwest ISD Proposition A                             For                                                                                          01Y
01940011082001379NONISDWESTSouthwest ISD Proposition A                             For                                                                                          01Y
01940011092000201NONISDWESTSouthwest ISD Proposition A                             For                                                                                          01Y
01940011094000526NONISDWESTSouthwest ISD Proposition A                             For                                                                                          01Y
01940011105000163NONISDWESTSouthwest ISD Proposition A                             For                                                                                          01Y
01940011106000000NONISDWESTSouthwest ISD Proposition A                             For                                                                                          01Y
01940011114000000NONISDWESTSouthwest ISD Proposition A                             For                                                                                          01Y
01940011128000331NONISDWESTSouthwest ISD Proposition A                             For                                                                                          01Y
01940011133000001NONISDWESTSouthwest ISD Proposition A                             For                                                                                          01Y
01940011134000000NONISDWESTSouthwest ISD Proposition A                             For                                                                                          01Y
01940011135000000NONISDWESTSouthwest ISD Proposition A                             For                                                                                          01Y
01940011136000093NONISDWESTSouthwest ISD Proposition A                             For                                                                                          01Y
01940011140000367NONISDWESTSouthwest ISD Proposition A                             For                                                                                          01Y
01940011146000036NONISDWESTSouthwest ISD Proposition A                             For                                                                                          01Y
01940021027000045NONISDWESTSouthwest ISD Proposition A                             Against                                                                                      01Y
01940021033000020NONISDWESTSouthwest ISD Proposition A                             Against                                                                                      01Y
01940021036000086NONISDWESTSouthwest ISD Proposition A                             Against                                                                                      01Y
01940021038000089NONISDWESTSouthwest ISD Proposition A                             Against                                                                                      01Y
01940021039000181NONISDWESTSouthwest ISD Proposition A                             Against                                                                                      01Y
01940021044000000NONISDWESTSouthwest ISD Proposition A                             Against                                                                                      01Y
01940021046000001NONISDWESTSouthwest ISD Proposition A                             Against                                                                                      01Y
01940021059000000NONISDWESTSouthwest ISD Proposition A                             Against                                                                                      01Y
01940021060000189NONISDWESTSouthwest ISD Proposition A                             Against                                                                                      01Y
01940021061000187NONISDWESTSouthwest ISD Proposition A                             Against                                                                                      01Y
01940021062000020NONISDWESTSouthwest ISD Proposition A                             Against                                                                                      01Y
01940021064000160NONISDWESTSouthwest ISD Proposition A                             Against                                                                                      01Y
01940021065000016NONISDWESTSouthwest ISD Proposition A                             Against                                                                                      01Y
01940021066000079NONISDWESTSouthwest ISD Proposition A                             Against                                                                                      01Y
01940021067000436NONISDWESTSouthwest ISD Proposition A                             Against                                                                                      01Y
01940021075000044NONISDWESTSouthwest ISD Proposition A                             Against                                                                                      01Y
01940021082000683NONISDWESTSouthwest ISD Proposition A                             Against                                                                                      01Y
01940021092000093NONISDWESTSouthwest ISD Proposition A                             Against                                                                                      01Y
01940021094000204NONISDWESTSouthwest ISD Proposition A                             Against                                                                                      01Y
01940021105000062NONISDWESTSouthwest ISD Proposition A                             Against                                                                                      01Y
01940021106000000NONISDWESTSouthwest ISD Proposition A                             Against                                                                                      01Y
01940021114000000NONISDWESTSouthwest ISD Proposition A                             Against                                                                                      01Y
01940021128000210NONISDWESTSouthwest ISD Proposition A                             Against                                                                                      01Y
01940021133000000NONISDWESTSouthwest ISD Proposition A                             Against                                                                                      01Y
01940021134000000NONISDWESTSouthwest ISD Proposition A                             Against                                                                                      01Y
01940021135000000NONISDWESTSouthwest ISD Proposition A                             Against                                                                                      01Y
01940021136000032NONISDWESTSouthwest ISD Proposition A                             Against                                                                                      01Y
01940021140000174NONISDWESTSouthwest ISD Proposition A                             Against                                                                                      01Y
01940021146000030NONISDWESTSouthwest ISD Proposition A                             Against                                                                                      01Y
01940031027000000   ISDWESTSouthwest ISD Proposition A                             OVER VOTES                                                                                   01Y
01940031033000000   ISDWESTSouthwest ISD Proposition A                             OVER VOTES                                                                                   01Y
01940031036000000   ISDWESTSouthwest ISD Proposition A                             OVER VOTES                                                                                   01Y
01940031038000000   ISDWESTSouthwest ISD Proposition A                             OVER VOTES                                                                                   01Y
01940031039000000   ISDWESTSouthwest ISD Proposition A                             OVER VOTES                                                                                   01Y
01940031044000000   ISDWESTSouthwest ISD Proposition A                             OVER VOTES                                                                                   01Y
01940031046000000   ISDWESTSouthwest ISD Proposition A                             OVER VOTES                                                                                   01Y
01940031059000000   ISDWESTSouthwest ISD Proposition A                             OVER VOTES                                                                                   01Y
01940031060000000   ISDWESTSouthwest ISD Proposition A                             OVER VOTES                                                                                   01Y
01940031061000000   ISDWESTSouthwest ISD Proposition A                             OVER VOTES                                                                                   01Y
01940031062000000   ISDWESTSouthwest ISD Proposition A                             OVER VOTES                                                                                   01Y
01940031064000000   ISDWESTSouthwest ISD Proposition A                             OVER VOTES                                                                                   01Y
01940031065000000   ISDWESTSouthwest ISD Proposition A                             OVER VOTES                                                                                   01Y
01940031066000000   ISDWESTSouthwest ISD Proposition A                             OVER VOTES                                                                                   01Y
01940031067000000   ISDWESTSouthwest ISD Proposition A                             OVER VOTES                                                                                   01Y
01940031075000000   ISDWESTSouthwest ISD Proposition A                             OVER VOTES                                                                                   01Y
01940031082000000   ISDWESTSouthwest ISD Proposition A                             OVER VOTES                                                                                   01Y
01940031092000000   ISDWESTSouthwest ISD Proposition A                             OVER VOTES                                                                                   01Y
01940031094000000   ISDWESTSouthwest ISD Proposition A                             OVER VOTES                                                                                   01Y
01940031105000000   ISDWESTSouthwest ISD Proposition A                             OVER VOTES                                                                                   01Y
01940031106000000   ISDWESTSouthwest ISD Proposition A                             OVER VOTES                                                                                   01Y
01940031114000000   ISDWESTSouthwest ISD Proposition A                             OVER VOTES                                                                                   01Y
01940031128000000   ISDWESTSouthwest ISD Proposition A                             OVER VOTES                                                                                   01Y
01940031133000000   ISDWESTSouthwest ISD Proposition A                             OVER VOTES                                                                                   01Y
01940031134000000   ISDWESTSouthwest ISD Proposition A                             OVER VOTES                                                                                   01Y
01940031135000000   ISDWESTSouthwest ISD Proposition A                             OVER VOTES                                                                                   01Y
01940031136000000   ISDWESTSouthwest ISD Proposition A                             OVER VOTES                                                                                   01Y
01940031140000000   ISDWESTSouthwest ISD Proposition A                             OVER VOTES                                                                                   01Y
01940031146000000   ISDWESTSouthwest ISD Proposition A                             OVER VOTES                                                                                   01Y
01940041027000018   ISDWESTSouthwest ISD Proposition A                             UNDER VOTES                                                                                  01Y
01940041033000003   ISDWESTSouthwest ISD Proposition A                             UNDER VOTES                                                                                  01Y
01940041036000041   ISDWESTSouthwest ISD Proposition A                             UNDER VOTES                                                                                  01Y
01940041038000029   ISDWESTSouthwest ISD Proposition A                             UNDER VOTES                                                                                  01Y
01940041039000137   ISDWESTSouthwest ISD Proposition A                             UNDER VOTES                                                                                  01Y
01940041044000000   ISDWESTSouthwest ISD Proposition A                             UNDER VOTES                                                                                  01Y
01940041046000000   ISDWESTSouthwest ISD Proposition A                             UNDER VOTES                                                                                  01Y
01940041059000000   ISDWESTSouthwest ISD Proposition A                             UNDER VOTES                                                                                  01Y
01940041060000061   ISDWESTSouthwest ISD Proposition A                             UNDER VOTES                                                                                  01Y
01940041061000108   ISDWESTSouthwest ISD Proposition A                             UNDER VOTES                                                                                  01Y
01940041062000006   ISDWESTSouthwest ISD Proposition A                             UNDER VOTES                                                                                  01Y
01940041064000040   ISDWESTSouthwest ISD Proposition A                             UNDER VOTES                                                                                  01Y
01940041065000010   ISDWESTSouthwest ISD Proposition A                             UNDER VOTES                                                                                  01Y
01940041066000035   ISDWESTSouthwest ISD Proposition A                             UNDER VOTES                                                                                  01Y
01940041067000133   ISDWESTSouthwest ISD Proposition A                             UNDER VOTES                                                                                  01Y
01940041075000017   ISDWESTSouthwest ISD Proposition A                             UNDER VOTES                                                                                  01Y
01940041082000102   ISDWESTSouthwest ISD Proposition A                             UNDER VOTES                                                                                  01Y
01940041092000028   ISDWESTSouthwest ISD Proposition A                             UNDER VOTES                                                                                  01Y
01940041094000043   ISDWESTSouthwest ISD Proposition A                             UNDER VOTES                                                                                  01Y
01940041105000008   ISDWESTSouthwest ISD Proposition A                             UNDER VOTES                                                                                  01Y
01940041106000000   ISDWESTSouthwest ISD Proposition A                             UNDER VOTES                                                                                  01Y
01940041114000000   ISDWESTSouthwest ISD Proposition A                             UNDER VOTES                                                                                  01Y
01940041128000026   ISDWESTSouthwest ISD Proposition A                             UNDER VOTES                                                                                  01Y
01940041133000000   ISDWESTSouthwest ISD Proposition A                             UNDER VOTES                                                                                  01Y
01940041134000000   ISDWESTSouthwest ISD Proposition A                             UNDER VOTES                                                                                  01Y
01940041135000000   ISDWESTSouthwest ISD Proposition A                             UNDER VOTES                                                                                  01Y
01940041136000011   ISDWESTSouthwest ISD Proposition A                             UNDER VOTES                                                                                  01Y
01940041140000024   ISDWESTSouthwest ISD Proposition A                             UNDER VOTES                                                                                  01Y
01940041146000011   ISDWESTSouthwest ISD Proposition A                             UNDER VOTES                                                                                  01Y
