02080014050000170NONCTYWINDCity of Windcrest Council, Place 1                      George Alva                                                                                  01 
02080014051000160NONCTYWINDCity of Windcrest Council, Place 1                      George Alva                                                                                  01 
02080014107000072NONCTYWINDCity of Windcrest Council, Place 1                      George Alva                                                                                  01 
02080014192000000NONCTYWINDCity of Windcrest Council, Place 1                      George Alva                                                                                  01 
02080014195000000NONCTYWINDCity of Windcrest Council, Place 1                      George Alva                                                                                  01 
02080024050000296NONCTYWINDCity of Windcrest Council, Place 1                      Sherillyn Flick                                                                              01 
02080024051000390NONCTYWINDCity of Windcrest Council, Place 1                      Sherillyn Flick                                                                              01 
02080024107000202NONCTYWINDCity of Windcrest Council, Place 1                      Sherillyn Flick                                                                              01 
02080024192000000NONCTYWINDCity of Windcrest Council, Place 1                      Sherillyn Flick                                                                              01 
02080024195000000NONCTYWINDCity of Windcrest Council, Place 1                      Sherillyn Flick                                                                              01 
02080034050000174NONCTYWINDCity of Windcrest Council, Place 1                      Bill Zulaica                                                                                 01 
02080034051000269NONCTYWINDCity of Windcrest Council, Place 1                      Bill Zulaica                                                                                 01 
02080034107000246NONCTYWINDCity of Windcrest Council, Place 1                      Bill Zulaica                                                                                 01 
02080034192000000NONCTYWINDCity of Windcrest Council, Place 1                      Bill Zulaica                                                                                 01 
02080034195000000NONCTYWINDCity of Windcrest Council, Place 1                      Bill Zulaica                                                                                 01 
02080044050000126NONCTYWINDCity of Windcrest Council, Place 1                      Wes Manning                                                                                  01 
02080044051000184NONCTYWINDCity of Windcrest Council, Place 1                      Wes Manning                                                                                  01 
02080044107000095NONCTYWINDCity of Windcrest Council, Place 1                      Wes Manning                                                                                  01 
02080044192000000NONCTYWINDCity of Windcrest Council, Place 1                      Wes Manning                                                                                  01 
02080044195000000NONCTYWINDCity of Windcrest Council, Place 1                      Wes Manning                                                                                  01 
02080054050000000   CTYWINDCity of Windcrest Council, Place 1                      OVER VOTES                                                                                   01 
02080054051000000   CTYWINDCity of Windcrest Council, Place 1                      OVER VOTES                                                                                   01 
02080054107000000   CTYWINDCity of Windcrest Council, Place 1                      OVER VOTES                                                                                   01 
02080054192000000   CTYWINDCity of Windcrest Council, Place 1                      OVER VOTES                                                                                   01 
02080054195000000   CTYWINDCity of Windcrest Council, Place 1                      OVER VOTES                                                                                   01 
02080064050000156   CTYWINDCity of Windcrest Council, Place 1                      UNDER VOTES                                                                                  01 
02080064051000155   CTYWINDCity of Windcrest Council, Place 1                      UNDER VOTES                                                                                  01 
02080064107000107   CTYWINDCity of Windcrest Council, Place 1                      UNDER VOTES                                                                                  01 
02080064192000000   CTYWINDCity of Windcrest Council, Place 1                      UNDER VOTES                                                                                  01 
02080064195000000   CTYWINDCity of Windcrest Council, Place 1                      UNDER VOTES                                                                                  01 
02090014050000502NONCTYWINDCity of Windcrest Council, Place 2                      Cindy Strzelecki                                                                             01 
02090014051000623NONCTYWINDCity of Windcrest Council, Place 2                      Cindy Strzelecki                                                                             01 
02090014107000288NONCTYWINDCity of Windcrest Council, Place 2                      Cindy Strzelecki                                                                             01 
02090014192000000NONCTYWINDCity of Windcrest Council, Place 2                      Cindy Strzelecki                                                                             01 
02090014195000000NONCTYWINDCity of Windcrest Council, Place 2                      Cindy Strzelecki                                                                             01 
02090024050000246NONCTYWINDCity of Windcrest Council, Place 2                      Lou Miller                                                                                   01 
02090024051000363NONCTYWINDCity of Windcrest Council, Place 2                      Lou Miller                                                                                   01 
02090024107000319NONCTYWINDCity of Windcrest Council, Place 2                      Lou Miller                                                                                   01 
02090024192000000NONCTYWINDCity of Windcrest Council, Place 2                      Lou Miller                                                                                   01 
02090024195000000NONCTYWINDCity of Windcrest Council, Place 2                      Lou Miller                                                                                   01 
02090034050000000   CTYWINDCity of Windcrest Council, Place 2                      OVER VOTES                                                                                   01 
02090034051000000   CTYWINDCity of Windcrest Council, Place 2                      OVER VOTES                                                                                   01 
02090034107000000   CTYWINDCity of Windcrest Council, Place 2                      OVER VOTES                                                                                   01 
02090034192000000   CTYWINDCity of Windcrest Council, Place 2                      OVER VOTES                                                                                   01 
02090034195000000   CTYWINDCity of Windcrest Council, Place 2                      OVER VOTES                                                                                   01 
02090044050000174   CTYWINDCity of Windcrest Council, Place 2                      UNDER VOTES                                                                                  01 
02090044051000172   CTYWINDCity of Windcrest Council, Place 2                      UNDER VOTES                                                                                  01 
02090044107000115   CTYWINDCity of Windcrest Council, Place 2                      UNDER VOTES                                                                                  01 
02090044192000000   CTYWINDCity of Windcrest Council, Place 2                      UNDER VOTES                                                                                  01 
02090044195000000   CTYWINDCity of Windcrest Council, Place 2                      UNDER VOTES                                                                                  01 
02100014050000403NONCTYWINDCity of Windcrest Council, Place 3                      Greg Turner                                                                                  01 
02100014051000502NONCTYWINDCity of Windcrest Council, Place 3                      Greg Turner                                                                                  01 
02100014107000395NONCTYWINDCity of Windcrest Council, Place 3                      Greg Turner                                                                                  01 
02100014192000000NONCTYWINDCity of Windcrest Council, Place 3                      Greg Turner                                                                                  01 
02100014195000000NONCTYWINDCity of Windcrest Council, Place 3                      Greg Turner                                                                                  01 
02100024050000274NONCTYWINDCity of Windcrest Council, Place 3                      WRITE-IN                                                                                     01 
02100024051000379NONCTYWINDCity of Windcrest Council, Place 3                      WRITE-IN                                                                                     01 
02100024107000166NONCTYWINDCity of Windcrest Council, Place 3                      WRITE-IN                                                                                     01 
02100024192000000NONCTYWINDCity of Windcrest Council, Place 3                      WRITE-IN                                                                                     01 
02100024195000000NONCTYWINDCity of Windcrest Council, Place 3                      WRITE-IN                                                                                     01 
02100034050000000   CTYWINDCity of Windcrest Council, Place 3                      OVER VOTES                                                                                   01 
02100034051000000   CTYWINDCity of Windcrest Council, Place 3                      OVER VOTES                                                                                   01 
02100034107000000   CTYWINDCity of Windcrest Council, Place 3                      OVER VOTES                                                                                   01 
02100034192000000   CTYWINDCity of Windcrest Council, Place 3                      OVER VOTES                                                                                   01 
02100034195000000   CTYWINDCity of Windcrest Council, Place 3                      OVER VOTES                                                                                   01 
02100044050000245   CTYWINDCity of Windcrest Council, Place 3                      UNDER VOTES                                                                                  01 
02100044051000277   CTYWINDCity of Windcrest Council, Place 3                      UNDER VOTES                                                                                  01 
02100044107000161   CTYWINDCity of Windcrest Council, Place 3                      UNDER VOTES                                                                                  01 
02100044192000000   CTYWINDCity of Windcrest Council, Place 3                      UNDER VOTES                                                                                  01 
02100044195000000   CTYWINDCity of Windcrest Council, Place 3                      UNDER VOTES                                                                                  01 
02110014050000447NONCTYWINDCity of Windcrest Proposition A                         For                                                                                          01Y
02110014051000603NONCTYWINDCity of Windcrest Proposition A                         For                                                                                          01Y
02110014107000419NONCTYWINDCity of Windcrest Proposition A                         For                                                                                          01Y
02110014192000000NONCTYWINDCity of Windcrest Proposition A                         For                                                                                          01Y
02110014195000000NONCTYWINDCity of Windcrest Proposition A                         For                                                                                          01Y
02110024050000417NONCTYWINDCity of Windcrest Proposition A                         Against                                                                                      01Y
02110024051000518NONCTYWINDCity of Windcrest Proposition A                         Against                                                                                      01Y
02110024107000275NONCTYWINDCity of Windcrest Proposition A                         Against                                                                                      01Y
02110024192000000NONCTYWINDCity of Windcrest Proposition A                         Against                                                                                      01Y
02110024195000000NONCTYWINDCity of Windcrest Proposition A                         Against                                                                                      01Y
02110034050000000   CTYWINDCity of Windcrest Proposition A                         OVER VOTES                                                                                   01Y
02110034051000000   CTYWINDCity of Windcrest Proposition A                         OVER VOTES                                                                                   01Y
02110034107000000   CTYWINDCity of Windcrest Proposition A                         OVER VOTES                                                                                   01Y
02110034192000000   CTYWINDCity of Windcrest Proposition A                         OVER VOTES                                                                                   01Y
02110034195000000   CTYWINDCity of Windcrest Proposition A                         OVER VOTES                                                                                   01Y
02110044050000058   CTYWINDCity of Windcrest Proposition A                         UNDER VOTES                                                                                  01Y
02110044051000037   CTYWINDCity of Windcrest Proposition A                         UNDER VOTES                                                                                  01Y
02110044107000028   CTYWINDCity of Windcrest Proposition A                         UNDER VOTES                                                                                  01Y
02110044192000000   CTYWINDCity of Windcrest Proposition A                         UNDER VOTES                                                                                  01Y
02110044195000000   CTYWINDCity of Windcrest Proposition A                         UNDER VOTES                                                                                  01Y
02120014050000458NONCTYWINDCity of Windcrest Proposition B                         For                                                                                          01Y
02120014051000641NONCTYWINDCity of Windcrest Proposition B                         For                                                                                          01Y
02120014107000414NONCTYWINDCity of Windcrest Proposition B                         For                                                                                          01Y
02120014192000000NONCTYWINDCity of Windcrest Proposition B                         For                                                                                          01Y
02120014195000000NONCTYWINDCity of Windcrest Proposition B                         For                                                                                          01Y
02120024050000405NONCTYWINDCity of Windcrest Proposition B                         Against                                                                                      01Y
02120024051000477NONCTYWINDCity of Windcrest Proposition B                         Against                                                                                      01Y
02120024107000278NONCTYWINDCity of Windcrest Proposition B                         Against                                                                                      01Y
02120024192000000NONCTYWINDCity of Windcrest Proposition B                         Against                                                                                      01Y
02120024195000000NONCTYWINDCity of Windcrest Proposition B                         Against                                                                                      01Y
02120034050000000   CTYWINDCity of Windcrest Proposition B                         OVER VOTES                                                                                   01Y
02120034051000000   CTYWINDCity of Windcrest Proposition B                         OVER VOTES                                                                                   01Y
02120034107000000   CTYWINDCity of Windcrest Proposition B                         OVER VOTES                                                                                   01Y
02120034192000000   CTYWINDCity of Windcrest Proposition B                         OVER VOTES                                                                                   01Y
02120034195000000   CTYWINDCity of Windcrest Proposition B                         OVER VOTES                                                                                   01Y
02120044050000059   CTYWINDCity of Windcrest Proposition B                         UNDER VOTES                                                                                  01Y
02120044051000040   CTYWINDCity of Windcrest Proposition B                         UNDER VOTES                                                                                  01Y
02120044107000030   CTYWINDCity of Windcrest Proposition B                         UNDER VOTES                                                                                  01Y
02120044192000000   CTYWINDCity of Windcrest Proposition B                         UNDER VOTES                                                                                  01Y
02120044195000000   CTYWINDCity of Windcrest Proposition B                         UNDER VOTES                                                                                  01Y
