02080014050000128NONCTYWINDCity of Windcrest Council, Place 1                      George Alva                                                                                  01 
02080014051000123NONCTYWINDCity of Windcrest Council, Place 1                      George Alva                                                                                  01 
02080014107000064NONCTYWINDCity of Windcrest Council, Place 1                      George Alva                                                                                  01 
02080014192000000NONCTYWINDCity of Windcrest Council, Place 1                      George Alva                                                                                  01 
02080014195000000NONCTYWINDCity of Windcrest Council, Place 1                      George Alva                                                                                  01 
02080024050000255NONCTYWINDCity of Windcrest Council, Place 1                      Sherillyn Flick                                                                              01 
02080024051000353NONCTYWINDCity of Windcrest Council, Place 1                      Sherillyn Flick                                                                              01 
02080024107000168NONCTYWINDCity of Windcrest Council, Place 1                      Sherillyn Flick                                                                              01 
02080024192000000NONCTYWINDCity of Windcrest Council, Place 1                      Sherillyn Flick                                                                              01 
02080024195000000NONCTYWINDCity of Windcrest Council, Place 1                      Sherillyn Flick                                                                              01 
02080034050000144NONCTYWINDCity of Windcrest Council, Place 1                      Bill Zulaica                                                                                 01 
02080034051000234NONCTYWINDCity of Windcrest Council, Place 1                      Bill Zulaica                                                                                 01 
02080034107000206NONCTYWINDCity of Windcrest Council, Place 1                      Bill Zulaica                                                                                 01 
02080034192000000NONCTYWINDCity of Windcrest Council, Place 1                      Bill Zulaica                                                                                 01 
02080034195000000NONCTYWINDCity of Windcrest Council, Place 1                      Bill Zulaica                                                                                 01 
02080044050000112NONCTYWINDCity of Windcrest Council, Place 1                      Wes Manning                                                                                  01 
02080044051000164NONCTYWINDCity of Windcrest Council, Place 1                      Wes Manning                                                                                  01 
02080044107000088NONCTYWINDCity of Windcrest Council, Place 1                      Wes Manning                                                                                  01 
02080044192000000NONCTYWINDCity of Windcrest Council, Place 1                      Wes Manning                                                                                  01 
02080044195000000NONCTYWINDCity of Windcrest Council, Place 1                      Wes Manning                                                                                  01 
02080054050000000   CTYWINDCity of Windcrest Council, Place 1                      OVER VOTES                                                                                   01 
02080054051000000   CTYWINDCity of Windcrest Council, Place 1                      OVER VOTES                                                                                   01 
02080054107000000   CTYWINDCity of Windcrest Council, Place 1                      OVER VOTES                                                                                   01 
02080054192000000   CTYWINDCity of Windcrest Council, Place 1                      OVER VOTES                                                                                   01 
02080054195000000   CTYWINDCity of Windcrest Council, Place 1                      OVER VOTES                                                                                   01 
02080064050000119   CTYWINDCity of Windcrest Council, Place 1                      UNDER VOTES                                                                                  01 
02080064051000127   CTYWINDCity of Windcrest Council, Place 1                      UNDER VOTES                                                                                  01 
02080064107000091   CTYWINDCity of Windcrest Council, Place 1                      UNDER VOTES                                                                                  01 
02080064192000000   CTYWINDCity of Windcrest Council, Place 1                      UNDER VOTES                                                                                  01 
02080064195000000   CTYWINDCity of Windcrest Council, Place 1                      UNDER VOTES                                                                                  01 
02090014050000427NONCTYWINDCity of Windcrest Council, Place 2                      Cindy Strzelecki                                                                             01 
02090014051000552NONCTYWINDCity of Windcrest Council, Place 2                      Cindy Strzelecki                                                                             01 
02090014107000243NONCTYWINDCity of Windcrest Council, Place 2                      Cindy Strzelecki                                                                             01 
02090014192000000NONCTYWINDCity of Windcrest Council, Place 2                      Cindy Strzelecki                                                                             01 
02090014195000000NONCTYWINDCity of Windcrest Council, Place 2                      Cindy Strzelecki                                                                             01 
02090024050000196NONCTYWINDCity of Windcrest Council, Place 2                      Lou Miller                                                                                   01 
02090024051000303NONCTYWINDCity of Windcrest Council, Place 2                      Lou Miller                                                                                   01 
02090024107000276NONCTYWINDCity of Windcrest Council, Place 2                      Lou Miller                                                                                   01 
02090024192000000NONCTYWINDCity of Windcrest Council, Place 2                      Lou Miller                                                                                   01 
02090024195000000NONCTYWINDCity of Windcrest Council, Place 2                      Lou Miller                                                                                   01 
02090034050000000   CTYWINDCity of Windcrest Council, Place 2                      OVER VOTES                                                                                   01 
02090034051000000   CTYWINDCity of Windcrest Council, Place 2                      OVER VOTES                                                                                   01 
02090034107000000   CTYWINDCity of Windcrest Council, Place 2                      OVER VOTES                                                                                   01 
02090034192000000   CTYWINDCity of Windcrest Council, Place 2                      OVER VOTES                                                                                   01 
02090034195000000   CTYWINDCity of Windcrest Council, Place 2                      OVER VOTES                                                                                   01 
02090044050000135   CTYWINDCity of Windcrest Council, Place 2                      UNDER VOTES                                                                                  01 
02090044051000146   CTYWINDCity of Windcrest Council, Place 2                      UNDER VOTES                                                                                  01 
02090044107000098   CTYWINDCity of Windcrest Council, Place 2                      UNDER VOTES                                                                                  01 
02090044192000000   CTYWINDCity of Windcrest Council, Place 2                      UNDER VOTES                                                                                  01 
02090044195000000   CTYWINDCity of Windcrest Council, Place 2                      UNDER VOTES                                                                                  01 
02100014050000319NONCTYWINDCity of Windcrest Council, Place 3                      Greg Turner                                                                                  01 
02100014051000412NONCTYWINDCity of Windcrest Council, Place 3                      Greg Turner                                                                                  01 
02100014107000329NONCTYWINDCity of Windcrest Council, Place 3                      Greg Turner                                                                                  01 
02100014192000000NONCTYWINDCity of Windcrest Council, Place 3                      Greg Turner                                                                                  01 
02100014195000000NONCTYWINDCity of Windcrest Council, Place 3                      Greg Turner                                                                                  01 
02100024050000244NONCTYWINDCity of Windcrest Council, Place 3                      WRITE-IN                                                                                     01 
02100024051000352NONCTYWINDCity of Windcrest Council, Place 3                      WRITE-IN                                                                                     01 
02100024107000148NONCTYWINDCity of Windcrest Council, Place 3                      WRITE-IN                                                                                     01 
02100024192000000NONCTYWINDCity of Windcrest Council, Place 3                      WRITE-IN                                                                                     01 
02100024195000000NONCTYWINDCity of Windcrest Council, Place 3                      WRITE-IN                                                                                     01 
02100034050000000   CTYWINDCity of Windcrest Council, Place 3                      OVER VOTES                                                                                   01 
02100034051000000   CTYWINDCity of Windcrest Council, Place 3                      OVER VOTES                                                                                   01 
02100034107000000   CTYWINDCity of Windcrest Council, Place 3                      OVER VOTES                                                                                   01 
02100034192000000   CTYWINDCity of Windcrest Council, Place 3                      OVER VOTES                                                                                   01 
02100034195000000   CTYWINDCity of Windcrest Council, Place 3                      OVER VOTES                                                                                   01 
02100044050000195   CTYWINDCity of Windcrest Council, Place 3                      UNDER VOTES                                                                                  01 
02100044051000237   CTYWINDCity of Windcrest Council, Place 3                      UNDER VOTES                                                                                  01 
02100044107000140   CTYWINDCity of Windcrest Council, Place 3                      UNDER VOTES                                                                                  01 
02100044192000000   CTYWINDCity of Windcrest Council, Place 3                      UNDER VOTES                                                                                  01 
02100044195000000   CTYWINDCity of Windcrest Council, Place 3                      UNDER VOTES                                                                                  01 
02110014050000363NONCTYWINDCity of Windcrest Proposition A                         For                                                                                          01Y
02110014051000524NONCTYWINDCity of Windcrest Proposition A                         For                                                                                          01Y
02110014107000366NONCTYWINDCity of Windcrest Proposition A                         For                                                                                          01Y
02110014192000000NONCTYWINDCity of Windcrest Proposition A                         For                                                                                          01Y
02110014195000000NONCTYWINDCity of Windcrest Proposition A                         For                                                                                          01Y
02110024050000351NONCTYWINDCity of Windcrest Proposition A                         Against                                                                                      01Y
02110024051000446NONCTYWINDCity of Windcrest Proposition A                         Against                                                                                      01Y
02110024107000225NONCTYWINDCity of Windcrest Proposition A                         Against                                                                                      01Y
02110024192000000NONCTYWINDCity of Windcrest Proposition A                         Against                                                                                      01Y
02110024195000000NONCTYWINDCity of Windcrest Proposition A                         Against                                                                                      01Y
02110034050000000   CTYWINDCity of Windcrest Proposition A                         OVER VOTES                                                                                   01Y
02110034051000000   CTYWINDCity of Windcrest Proposition A                         OVER VOTES                                                                                   01Y
02110034107000000   CTYWINDCity of Windcrest Proposition A                         OVER VOTES                                                                                   01Y
02110034192000000   CTYWINDCity of Windcrest Proposition A                         OVER VOTES                                                                                   01Y
02110034195000000   CTYWINDCity of Windcrest Proposition A                         OVER VOTES                                                                                   01Y
02110044050000044   CTYWINDCity of Windcrest Proposition A                         UNDER VOTES                                                                                  01Y
02110044051000031   CTYWINDCity of Windcrest Proposition A                         UNDER VOTES                                                                                  01Y
02110044107000026   CTYWINDCity of Windcrest Proposition A                         UNDER VOTES                                                                                  01Y
02110044192000000   CTYWINDCity of Windcrest Proposition A                         UNDER VOTES                                                                                  01Y
02110044195000000   CTYWINDCity of Windcrest Proposition A                         UNDER VOTES                                                                                  01Y
02120014050000372NONCTYWINDCity of Windcrest Proposition B                         For                                                                                          01Y
02120014051000553NONCTYWINDCity of Windcrest Proposition B                         For                                                                                          01Y
02120014107000362NONCTYWINDCity of Windcrest Proposition B                         For                                                                                          01Y
02120014192000000NONCTYWINDCity of Windcrest Proposition B                         For                                                                                          01Y
02120014195000000NONCTYWINDCity of Windcrest Proposition B                         For                                                                                          01Y
02120024050000342NONCTYWINDCity of Windcrest Proposition B                         Against                                                                                      01Y
02120024051000416NONCTYWINDCity of Windcrest Proposition B                         Against                                                                                      01Y
02120024107000228NONCTYWINDCity of Windcrest Proposition B                         Against                                                                                      01Y
02120024192000000NONCTYWINDCity of Windcrest Proposition B                         Against                                                                                      01Y
02120024195000000NONCTYWINDCity of Windcrest Proposition B                         Against                                                                                      01Y
02120034050000000   CTYWINDCity of Windcrest Proposition B                         OVER VOTES                                                                                   01Y
02120034051000000   CTYWINDCity of Windcrest Proposition B                         OVER VOTES                                                                                   01Y
02120034107000000   CTYWINDCity of Windcrest Proposition B                         OVER VOTES                                                                                   01Y
02120034192000000   CTYWINDCity of Windcrest Proposition B                         OVER VOTES                                                                                   01Y
02120034195000000   CTYWINDCity of Windcrest Proposition B                         OVER VOTES                                                                                   01Y
02120044050000044   CTYWINDCity of Windcrest Proposition B                         UNDER VOTES                                                                                  01Y
02120044051000032   CTYWINDCity of Windcrest Proposition B                         UNDER VOTES                                                                                  01Y
02120044107000027   CTYWINDCity of Windcrest Proposition B                         UNDER VOTES                                                                                  01Y
02120044192000000   CTYWINDCity of Windcrest Proposition B                         UNDER VOTES                                                                                  01Y
02120044195000000   CTYWINDCity of Windcrest Proposition B                         UNDER VOTES                                                                                  01Y
