00010010001000000          REGISTERED VOTERS - TOTAL                               REGISTERED VOTERS - TOTAL             PRECINCT 101                                           00 
00010010002000000          REGISTERED VOTERS - TOTAL                               REGISTERED VOTERS - TOTAL             PRECINCT 202                                           00 
00010010003000000          REGISTERED VOTERS - TOTAL                               REGISTERED VOTERS - TOTAL             PRECINCT 303                                           00 
00010010004000000          REGISTERED VOTERS - TOTAL                               REGISTERED VOTERS - TOTAL             PRECINCT 404                                           00 
00010010005000000          REGISTERED VOTERS - TOTAL                               REGISTERED VOTERS - TOTAL             PRECINCT 305                                           00 
00010010006000000          REGISTERED VOTERS - TOTAL                               REGISTERED VOTERS - TOTAL             PRECINCT 406                                           00 
00020010001000489          BALLOTS CAST - TOTAL                                    BALLOTS CAST - TOTAL                  PRECINCT 101                                           00 
00020010002000506          BALLOTS CAST - TOTAL                                    BALLOTS CAST - TOTAL                  PRECINCT 202                                           00 
00020010003000262          BALLOTS CAST - TOTAL                                    BALLOTS CAST - TOTAL                  PRECINCT 303                                           00 
00020010004000300          BALLOTS CAST - TOTAL                                    BALLOTS CAST - TOTAL                  PRECINCT 404                                           00 
00020010005000157          BALLOTS CAST - TOTAL                                    BALLOTS CAST - TOTAL                  PRECINCT 305                                           00 
00020010006000198          BALLOTS CAST - TOTAL                                    BALLOTS CAST - TOTAL                  PRECINCT 406                                           00 
00030010001000000          BALLOTS CAST - BLANK                                    BALLOTS CAST - BLANK                  PRECINCT 101                                           00 
00030010002000000          BALLOTS CAST - BLANK                                    BALLOTS CAST - BLANK                  PRECINCT 202                                           00 
00030010003000001          BALLOTS CAST - BLANK                                    BALLOTS CAST - BLANK                  PRECINCT 303                                           00 
00030010004000000          BALLOTS CAST - BLANK                                    BALLOTS CAST - BLANK                  PRECINCT 404                                           00 
00030010005000002          BALLOTS CAST - BLANK                                    BALLOTS CAST - BLANK                  PRECINCT 305                                           00 
00030010006000000          BALLOTS CAST - BLANK                                    BALLOTS CAST - BLANK                  PRECINCT 406                                           00 
01010010001000284REP       Straight Party                                          Republican Party                      PRECINCT 101                                           01 
01010010002000292REP       Straight Party                                          Republican Party                      PRECINCT 202                                           01 
01010010003000158REP       Straight Party                                          Republican Party                      PRECINCT 303                                           01 
01010010004000158REP       Straight Party                                          Republican Party                      PRECINCT 404                                           01 
01010010005000076REP       Straight Party                                          Republican Party                      PRECINCT 305                                           01 
01010010006000094REP       Straight Party                                          Republican Party                      PRECINCT 406                                           01 
01010020001000042DEM       Straight Party                                          Democratic Party                      PRECINCT 101                                           01 
01010020002000049DEM       Straight Party                                          Democratic Party                      PRECINCT 202                                           01 
01010020003000025DEM       Straight Party                                          Democratic Party                      PRECINCT 303                                           01 
01010020004000036DEM       Straight Party                                          Democratic Party                      PRECINCT 404                                           01 
01010020005000030DEM       Straight Party                                          Democratic Party                      PRECINCT 305                                           01 
01010020006000032DEM       Straight Party                                          Democratic Party                      PRECINCT 406                                           01 
01010030001000004LIB       Straight Party                                          Libertarian Party                     PRECINCT 101                                           01 
01010030002000001LIB       Straight Party                                          Libertarian Party                     PRECINCT 202                                           01 
01010030003000000LIB       Straight Party                                          Libertarian Party                     PRECINCT 303                                           01 
01010030004000003LIB       Straight Party                                          Libertarian Party                     PRECINCT 404                                           01 
01010030005000000LIB       Straight Party                                          Libertarian Party                     PRECINCT 305                                           01 
01010030006000001LIB       Straight Party                                          Libertarian Party                     PRECINCT 406                                           01 
01010040001000000          Straight Party                                          OVER VOTES                            PRECINCT 101                                           01 
01010040002000000          Straight Party                                          OVER VOTES                            PRECINCT 202                                           01 
01010040003000000          Straight Party                                          OVER VOTES                            PRECINCT 303                                           01 
01010040004000000          Straight Party                                          OVER VOTES                            PRECINCT 404                                           01 
01010040005000000          Straight Party                                          OVER VOTES                            PRECINCT 305                                           01 
01010040006000000          Straight Party                                          OVER VOTES                            PRECINCT 406                                           01 
01010050001000159          Straight Party                                          UNDER VOTES                           PRECINCT 101                                           01 
01010050002000164          Straight Party                                          UNDER VOTES                           PRECINCT 202                                           01 
01010050003000079          Straight Party                                          UNDER VOTES                           PRECINCT 303                                           01 
01010050004000103          Straight Party                                          UNDER VOTES                           PRECINCT 404                                           01 
01010050005000051          Straight Party                                          UNDER VOTES                           PRECINCT 305                                           01 
01010050006000071          Straight Party                                          UNDER VOTES                           PRECINCT 406                                           01 
01020010001000413REP       United States Senator                                   Ted Cruz                              PRECINCT 101                                           01 
01020010002000435REP       United States Senator                                   Ted Cruz                              PRECINCT 202                                           01 
01020010003000219REP       United States Senator                                   Ted Cruz                              PRECINCT 303                                           01 
01020010004000245REP       United States Senator                                   Ted Cruz                              PRECINCT 404                                           01 
01020010005000110REP       United States Senator                                   Ted Cruz                              PRECINCT 305                                           01 
01020010006000136REP       United States Senator                                   Ted Cruz                              PRECINCT 406                                           01 
01020020001000071DEM       United States Senator                                   Beto O'Rourke                         PRECINCT 101                                           01 
01020020002000069DEM       United States Senator                                   Beto O'Rourke                         PRECINCT 202                                           01 
01020020003000041DEM       United States Senator                                   Beto O'Rourke                         PRECINCT 303                                           01 
01020020004000051DEM       United States Senator                                   Beto O'Rourke                         PRECINCT 404                                           01 
01020020005000044DEM       United States Senator                                   Beto O'Rourke                         PRECINCT 305                                           01 
01020020006000059DEM       United States Senator                                   Beto O'Rourke                         PRECINCT 406                                           01 
01020030001000003LIB       United States Senator                                   Neal M. Dikeman                       PRECINCT 101                                           01 
01020030002000001LIB       United States Senator                                   Neal M. Dikeman                       PRECINCT 202                                           01 
01020030003000001LIB       United States Senator                                   Neal M. Dikeman                       PRECINCT 303                                           01 
01020030004000003LIB       United States Senator                                   Neal M. Dikeman                       PRECINCT 404                                           01 
01020030005000001LIB       United States Senator                                   Neal M. Dikeman                       PRECINCT 305                                           01 
01020030006000001LIB       United States Senator                                   Neal M. Dikeman                       PRECINCT 406                                           01 
01020040001000000          United States Senator                                   OVER VOTES                            PRECINCT 101                                           01 
01020040002000000          United States Senator                                   OVER VOTES                            PRECINCT 202                                           01 
01020040003000000          United States Senator                                   OVER VOTES                            PRECINCT 303                                           01 
01020040004000000          United States Senator                                   OVER VOTES                            PRECINCT 404                                           01 
01020040005000000          United States Senator                                   OVER VOTES                            PRECINCT 305                                           01 
01020040006000000          United States Senator                                   OVER VOTES                            PRECINCT 406                                           01 
01020050001000002          United States Senator                                   UNDER VOTES                           PRECINCT 101                                           01 
01020050002000001          United States Senator                                   UNDER VOTES                           PRECINCT 202                                           01 
01020050003000001          United States Senator                                   UNDER VOTES                           PRECINCT 303                                           01 
01020050004000001          United States Senator                                   UNDER VOTES                           PRECINCT 404                                           01 
01020050005000002          United States Senator                                   UNDER VOTES                           PRECINCT 305                                           01 
01020050006000002          United States Senator                                   UNDER VOTES                           PRECINCT 406                                           01 
01030010001000426REP       US Representative, District 19                          Jodey Arrington                       PRECINCT 101                                           01 
01030010002000434REP       US Representative, District 19                          Jodey Arrington                       PRECINCT 202                                           01 
01030010003000226REP       US Representative, District 19                          Jodey Arrington                       PRECINCT 303                                           01 
01030010004000253REP       US Representative, District 19                          Jodey Arrington                       PRECINCT 404                                           01 
01030010005000111REP       US Representative, District 19                          Jodey Arrington                       PRECINCT 305                                           01 
01030010006000142REP       US Representative, District 19                          Jodey Arrington                       PRECINCT 406                                           01 
01030020001000061DEM       US Representative, District 19                          Miguel Levario                        PRECINCT 101                                           01 
01030020002000069DEM       US Representative, District 19                          Miguel Levario                        PRECINCT 202                                           01 
01030020003000033DEM       US Representative, District 19                          Miguel Levario                        PRECINCT 303                                           01 
01030020004000045DEM       US Representative, District 19                          Miguel Levario                        PRECINCT 404                                           01 
01030020005000042DEM       US Representative, District 19                          Miguel Levario                        PRECINCT 305                                           01 
01030020006000055DEM       US Representative, District 19                          Miguel Levario                        PRECINCT 406                                           01 
01030030001000000          US Representative, District 19                          OVER VOTES                            PRECINCT 101                                           01 
01030030002000000          US Representative, District 19                          OVER VOTES                            PRECINCT 202                                           01 
01030030003000000          US Representative, District 19                          OVER VOTES                            PRECINCT 303                                           01 
01030030004000000          US Representative, District 19                          OVER VOTES                            PRECINCT 404                                           01 
01030030005000000          US Representative, District 19                          OVER VOTES                            PRECINCT 305                                           01 
01030030006000000          US Representative, District 19                          OVER VOTES                            PRECINCT 406                                           01 
01030040001000002          US Representative, District 19                          UNDER VOTES                           PRECINCT 101                                           01 
01030040002000003          US Representative, District 19                          UNDER VOTES                           PRECINCT 202                                           01 
01030040003000003          US Representative, District 19                          UNDER VOTES                           PRECINCT 303                                           01 
01030040004000002          US Representative, District 19                          UNDER VOTES                           PRECINCT 404                                           01 
01030040005000004          US Representative, District 19                          UNDER VOTES                           PRECINCT 305                                           01 
01030040006000001          US Representative, District 19                          UNDER VOTES                           PRECINCT 406                                           01 
01040010001000412REP       Governor                                                Greg Abbott                           PRECINCT 101                                           01 
01040010002000432REP       Governor                                                Greg Abbott                           PRECINCT 202                                           01 
01040010003000223REP       Governor                                                Greg Abbott                           PRECINCT 303                                           01 
01040010004000242REP       Governor                                                Greg Abbott                           PRECINCT 404                                           01 
01040010005000109REP       Governor                                                Greg Abbott                           PRECINCT 305                                           01 
01040010006000140REP       Governor                                                Greg Abbott                           PRECINCT 406                                           01 
01040020001000061DEM       Governor                                                Lupe Valdez                           PRECINCT 101                                           01 
01040020002000065DEM       Governor                                                Lupe Valdez                           PRECINCT 202                                           01 
01040020003000034DEM       Governor                                                Lupe Valdez                           PRECINCT 303                                           01 
01040020004000048DEM       Governor                                                Lupe Valdez                           PRECINCT 404                                           01 
01040020005000041DEM       Governor                                                Lupe Valdez                           PRECINCT 305                                           01 
01040020006000054DEM       Governor                                                Lupe Valdez                           PRECINCT 406                                           01 
01040030001000013LIB       Governor                                                Mark Jay Tippetts                     PRECINCT 101                                           01 
01040030002000002LIB       Governor                                                Mark Jay Tippetts                     PRECINCT 202                                           01 
01040030003000003LIB       Governor                                                Mark Jay Tippetts                     PRECINCT 303                                           01 
01040030004000008LIB       Governor                                                Mark Jay Tippetts                     PRECINCT 404                                           01 
01040030005000003LIB       Governor                                                Mark Jay Tippetts                     PRECINCT 305                                           01 
01040030006000003LIB       Governor                                                Mark Jay Tippetts                     PRECINCT 406                                           01 
01040040001000000          Governor                                                OVER VOTES                            PRECINCT 101                                           01 
01040040002000000          Governor                                                OVER VOTES                            PRECINCT 202                                           01 
01040040003000000          Governor                                                OVER VOTES                            PRECINCT 303                                           01 
01040040004000000          Governor                                                OVER VOTES                            PRECINCT 404                                           01 
01040040005000000          Governor                                                OVER VOTES                            PRECINCT 305                                           01 
01040040006000000          Governor                                                OVER VOTES                            PRECINCT 406                                           01 
01040050001000003          Governor                                                UNDER VOTES                           PRECINCT 101                                           01 
01040050002000007          Governor                                                UNDER VOTES                           PRECINCT 202                                           01 
01040050003000002          Governor                                                UNDER VOTES                           PRECINCT 303                                           01 
01040050004000002          Governor                                                UNDER VOTES                           PRECINCT 404                                           01 
01040050005000004          Governor                                                UNDER VOTES                           PRECINCT 305                                           01 
01040050006000001          Governor                                                UNDER VOTES                           PRECINCT 406                                           01 
01050010001000367REP       Lieutenant Governor                                     Dan Patrick                           PRECINCT 101                                           01 
01050010002000369REP       Lieutenant Governor                                     Dan Patrick                           PRECINCT 202                                           01 
01050010003000198REP       Lieutenant Governor                                     Dan Patrick                           PRECINCT 303                                           01 
01050010004000207REP       Lieutenant Governor                                     Dan Patrick                           PRECINCT 404                                           01 
01050010005000100REP       Lieutenant Governor                                     Dan Patrick                           PRECINCT 305                                           01 
01050010006000121REP       Lieutenant Governor                                     Dan Patrick                           PRECINCT 406                                           01 
01050020001000103DEM       Lieutenant Governor                                     Mike Collier                          PRECINCT 101                                           01 
01050020002000117DEM       Lieutenant Governor                                     Mike Collier                          PRECINCT 202                                           01 
01050020003000050DEM       Lieutenant Governor                                     Mike Collier                          PRECINCT 303                                           01 
01050020004000071DEM       Lieutenant Governor                                     Mike Collier                          PRECINCT 404                                           01 
01050020005000050DEM       Lieutenant Governor                                     Mike Collier                          PRECINCT 305                                           01 
01050020006000068DEM       Lieutenant Governor                                     Mike Collier                          PRECINCT 406                                           01 
01050030001000015LIB       Lieutenant Governor                                     Kerry Douglas McKennon                PRECINCT 101                                           01 
01050030002000013LIB       Lieutenant Governor                                     Kerry Douglas McKennon                PRECINCT 202                                           01 
01050030003000008LIB       Lieutenant Governor                                     Kerry Douglas McKennon                PRECINCT 303                                           01 
01050030004000016LIB       Lieutenant Governor                                     Kerry Douglas McKennon                PRECINCT 404                                           01 
01050030005000002LIB       Lieutenant Governor                                     Kerry Douglas McKennon                PRECINCT 305                                           01 
01050030006000006LIB       Lieutenant Governor                                     Kerry Douglas McKennon                PRECINCT 406                                           01 
01050040001000000          Lieutenant Governor                                     OVER VOTES                            PRECINCT 101                                           01 
01050040002000000          Lieutenant Governor                                     OVER VOTES                            PRECINCT 202                                           01 
01050040003000000          Lieutenant Governor                                     OVER VOTES                            PRECINCT 303                                           01 
01050040004000000          Lieutenant Governor                                     OVER VOTES                            PRECINCT 404                                           01 
01050040005000000          Lieutenant Governor                                     OVER VOTES                            PRECINCT 305                                           01 
01050040006000000          Lieutenant Governor                                     OVER VOTES                            PRECINCT 406                                           01 
01050050001000004          Lieutenant Governor                                     UNDER VOTES                           PRECINCT 101                                           01 
01050050002000007          Lieutenant Governor                                     UNDER VOTES                           PRECINCT 202                                           01 
01050050003000006          Lieutenant Governor                                     UNDER VOTES                           PRECINCT 303                                           01 
01050050004000006          Lieutenant Governor                                     UNDER VOTES                           PRECINCT 404                                           01 
01050050005000005          Lieutenant Governor                                     UNDER VOTES                           PRECINCT 305                                           01 
01050050006000003          Lieutenant Governor                                     UNDER VOTES                           PRECINCT 406                                           01 
01060010001000412REP       Attorney General                                        Ken Paxton                            PRECINCT 101                                           01 
01060010002000424REP       Attorney General                                        Ken Paxton                            PRECINCT 202                                           01 
01060010003000206REP       Attorney General                                        Ken Paxton                            PRECINCT 303                                           01 
01060010004000234REP       Attorney General                                        Ken Paxton                            PRECINCT 404                                           01 
01060010005000109REP       Attorney General                                        Ken Paxton                            PRECINCT 305                                           01 
01060010006000127REP       Attorney General                                        Ken Paxton                            PRECINCT 406                                           01 
01060020001000063DEM       Attorney General                                        Justin Nelson                         PRECINCT 101                                           01 
01060020002000071DEM       Attorney General                                        Justin Nelson                         PRECINCT 202                                           01 
01060020003000043DEM       Attorney General                                        Justin Nelson                         PRECINCT 303                                           01 
01060020004000055DEM       Attorney General                                        Justin Nelson                         PRECINCT 404                                           01 
01060020005000041DEM       Attorney General                                        Justin Nelson                         PRECINCT 305                                           01 
01060020006000061DEM       Attorney General                                        Justin Nelson                         PRECINCT 406                                           01 
01060030001000013LIB       Attorney General                                        Michael Ray Harris                    PRECINCT 101                                           01 
01060030002000004LIB       Attorney General                                        Michael Ray Harris                    PRECINCT 202                                           01 
01060030003000007LIB       Attorney General                                        Michael Ray Harris                    PRECINCT 303                                           01 
01060030004000007LIB       Attorney General                                        Michael Ray Harris                    PRECINCT 404                                           01 
01060030005000003LIB       Attorney General                                        Michael Ray Harris                    PRECINCT 305                                           01 
01060030006000005LIB       Attorney General                                        Michael Ray Harris                    PRECINCT 406                                           01 
01060040001000000          Attorney General                                        OVER VOTES                            PRECINCT 101                                           01 
01060040002000000          Attorney General                                        OVER VOTES                            PRECINCT 202                                           01 
01060040003000000          Attorney General                                        OVER VOTES                            PRECINCT 303                                           01 
01060040004000000          Attorney General                                        OVER VOTES                            PRECINCT 404                                           01 
01060040005000000          Attorney General                                        OVER VOTES                            PRECINCT 305                                           01 
01060040006000000          Attorney General                                        OVER VOTES                            PRECINCT 406                                           01 
01060050001000001          Attorney General                                        UNDER VOTES                           PRECINCT 101                                           01 
01060050002000007          Attorney General                                        UNDER VOTES                           PRECINCT 202                                           01 
01060050003000006          Attorney General                                        UNDER VOTES                           PRECINCT 303                                           01 
01060050004000004          Attorney General                                        UNDER VOTES                           PRECINCT 404                                           01 
01060050005000004          Attorney General                                        UNDER VOTES                           PRECINCT 305                                           01 
01060050006000005          Attorney General                                        UNDER VOTES                           PRECINCT 406                                           01 
01070010001000413REP       Comptroller of Public Accounts                          Glenn Hegar                           PRECINCT 101                                           01 
01070010002000422REP       Comptroller of Public Accounts                          Glenn Hegar                           PRECINCT 202                                           01 
01070010003000211REP       Comptroller of Public Accounts                          Glenn Hegar                           PRECINCT 303                                           01 
01070010004000234REP       Comptroller of Public Accounts                          Glenn Hegar                           PRECINCT 404                                           01 
01070010005000107REP       Comptroller of Public Accounts                          Glenn Hegar                           PRECINCT 305                                           01 
01070010006000140REP       Comptroller of Public Accounts                          Glenn Hegar                           PRECINCT 406                                           01 
01070020001000063DEM       Comptroller of Public Accounts                          Joi Chevalier                         PRECINCT 101                                           01 
01070020002000067DEM       Comptroller of Public Accounts                          Joi Chevalier                         PRECINCT 202                                           01 
01070020003000035DEM       Comptroller of Public Accounts                          Joi Chevalier                         PRECINCT 303                                           01 
01070020004000049DEM       Comptroller of Public Accounts                          Joi Chevalier                         PRECINCT 404                                           01 
01070020005000041DEM       Comptroller of Public Accounts                          Joi Chevalier                         PRECINCT 305                                           01 
01070020006000048DEM       Comptroller of Public Accounts                          Joi Chevalier                         PRECINCT 406                                           01 
01070030001000011LIB       Comptroller of Public Accounts                          Ben Sanders                           PRECINCT 101                                           01 
01070030002000008LIB       Comptroller of Public Accounts                          Ben Sanders                           PRECINCT 202                                           01 
01070030003000007LIB       Comptroller of Public Accounts                          Ben Sanders                           PRECINCT 303                                           01 
01070030004000006LIB       Comptroller of Public Accounts                          Ben Sanders                           PRECINCT 404                                           01 
01070030005000006LIB       Comptroller of Public Accounts                          Ben Sanders                           PRECINCT 305                                           01 
01070030006000006LIB       Comptroller of Public Accounts                          Ben Sanders                           PRECINCT 406                                           01 
01070040001000000          Comptroller of Public Accounts                          OVER VOTES                            PRECINCT 101                                           01 
01070040002000000          Comptroller of Public Accounts                          OVER VOTES                            PRECINCT 202                                           01 
01070040003000000          Comptroller of Public Accounts                          OVER VOTES                            PRECINCT 303                                           01 
01070040004000000          Comptroller of Public Accounts                          OVER VOTES                            PRECINCT 404                                           01 
01070040005000000          Comptroller of Public Accounts                          OVER VOTES                            PRECINCT 305                                           01 
01070040006000000          Comptroller of Public Accounts                          OVER VOTES                            PRECINCT 406                                           01 
01070050001000002          Comptroller of Public Accounts                          UNDER VOTES                           PRECINCT 101                                           01 
01070050002000009          Comptroller of Public Accounts                          UNDER VOTES                           PRECINCT 202                                           01 
01070050003000009          Comptroller of Public Accounts                          UNDER VOTES                           PRECINCT 303                                           01 
01070050004000011          Comptroller of Public Accounts                          UNDER VOTES                           PRECINCT 404                                           01 
01070050005000003          Comptroller of Public Accounts                          UNDER VOTES                           PRECINCT 305                                           01 
01070050006000004          Comptroller of Public Accounts                          UNDER VOTES                           PRECINCT 406                                           01 
01080010001000425REP       Comm of the General Land Office                         George P. Bush                        PRECINCT 101                                           01 
01080010002000425REP       Comm of the General Land Office                         George P. Bush                        PRECINCT 202                                           01 
01080010003000210REP       Comm of the General Land Office                         George P. Bush                        PRECINCT 303                                           01 
01080010004000243REP       Comm of the General Land Office                         George P. Bush                        PRECINCT 404                                           01 
01080010005000111REP       Comm of the General Land Office                         George P. Bush                        PRECINCT 305                                           01 
01080010006000140REP       Comm of the General Land Office                         George P. Bush                        PRECINCT 406                                           01 
01080020001000052DEM       Comm of the General Land Office                         Miguel Suazo                          PRECINCT 101                                           01 
01080020002000064DEM       Comm of the General Land Office                         Miguel Suazo                          PRECINCT 202                                           01 
01080020003000040DEM       Comm of the General Land Office                         Miguel Suazo                          PRECINCT 303                                           01 
01080020004000049DEM       Comm of the General Land Office                         Miguel Suazo                          PRECINCT 404                                           01 
01080020005000040DEM       Comm of the General Land Office                         Miguel Suazo                          PRECINCT 305                                           01 
01080020006000049DEM       Comm of the General Land Office                         Miguel Suazo                          PRECINCT 406                                           01 
01080030001000010LIB       Comm of the General Land Office                         Matt Pina                             PRECINCT 101                                           01 
01080030002000010LIB       Comm of the General Land Office                         Matt Pina                             PRECINCT 202                                           01 
01080030003000006LIB       Comm of the General Land Office                         Matt Pina                             PRECINCT 303                                           01 
01080030004000004LIB       Comm of the General Land Office                         Matt Pina                             PRECINCT 404                                           01 
01080030005000003LIB       Comm of the General Land Office                         Matt Pina                             PRECINCT 305                                           01 
01080030006000006LIB       Comm of the General Land Office                         Matt Pina                             PRECINCT 406                                           01 
01080040001000000          Comm of the General Land Office                         OVER VOTES                            PRECINCT 101                                           01 
01080040002000000          Comm of the General Land Office                         OVER VOTES                            PRECINCT 202                                           01 
01080040003000000          Comm of the General Land Office                         OVER VOTES                            PRECINCT 303                                           01 
01080040004000000          Comm of the General Land Office                         OVER VOTES                            PRECINCT 404                                           01 
01080040005000000          Comm of the General Land Office                         OVER VOTES                            PRECINCT 305                                           01 
01080040006000000          Comm of the General Land Office                         OVER VOTES                            PRECINCT 406                                           01 
01080050001000002          Comm of the General Land Office                         UNDER VOTES                           PRECINCT 101                                           01 
01080050002000007          Comm of the General Land Office                         UNDER VOTES                           PRECINCT 202                                           01 
01080050003000006          Comm of the General Land Office                         UNDER VOTES                           PRECINCT 303                                           01 
01080050004000004          Comm of the General Land Office                         UNDER VOTES                           PRECINCT 404                                           01 
01080050005000003          Comm of the General Land Office                         UNDER VOTES                           PRECINCT 305                                           01 
01080050006000003          Comm of the General Land Office                         UNDER VOTES                           PRECINCT 406                                           01 
01090010001000408REP       Commissioner of Agriculture                             Sid Miller                            PRECINCT 101                                           01 
01090010002000428REP       Commissioner of Agriculture                             Sid Miller                            PRECINCT 202                                           01 
01090010003000212REP       Commissioner of Agriculture                             Sid Miller                            PRECINCT 303                                           01 
01090010004000237REP       Commissioner of Agriculture                             Sid Miller                            PRECINCT 404                                           01 
01090010005000108REP       Commissioner of Agriculture                             Sid Miller                            PRECINCT 305                                           01 
01090010006000137REP       Commissioner of Agriculture                             Sid Miller                            PRECINCT 406                                           01 
01090020001000064DEM       Commissioner of Agriculture                             Kim Olson                             PRECINCT 101                                           01 
01090020002000068DEM       Commissioner of Agriculture                             Kim Olson                             PRECINCT 202                                           01 
01090020003000038DEM       Commissioner of Agriculture                             Kim Olson                             PRECINCT 303                                           01 
01090020004000045DEM       Commissioner of Agriculture                             Kim Olson                             PRECINCT 404                                           01 
01090020005000043DEM       Commissioner of Agriculture                             Kim Olson                             PRECINCT 305                                           01 
01090020006000051DEM       Commissioner of Agriculture                             Kim Olson                             PRECINCT 406                                           01 
01090030001000012LIB       Commissioner of Agriculture                             Richard Carpenter                     PRECINCT 101                                           01 
01090030002000005LIB       Commissioner of Agriculture                             Richard Carpenter                     PRECINCT 202                                           01 
01090030003000003LIB       Commissioner of Agriculture                             Richard Carpenter                     PRECINCT 303                                           01 
01090030004000006LIB       Commissioner of Agriculture                             Richard Carpenter                     PRECINCT 404                                           01 
01090030005000003LIB       Commissioner of Agriculture                             Richard Carpenter                     PRECINCT 305                                           01 
01090030006000004LIB       Commissioner of Agriculture                             Richard Carpenter                     PRECINCT 406                                           01 
01090040001000000          Commissioner of Agriculture                             OVER VOTES                            PRECINCT 101                                           01 
01090040002000000          Commissioner of Agriculture                             OVER VOTES                            PRECINCT 202                                           01 
01090040003000000          Commissioner of Agriculture                             OVER VOTES                            PRECINCT 303                                           01 
01090040004000000          Commissioner of Agriculture                             OVER VOTES                            PRECINCT 404                                           01 
01090040005000000          Commissioner of Agriculture                             OVER VOTES                            PRECINCT 305                                           01 
01090040006000000          Commissioner of Agriculture                             OVER VOTES                            PRECINCT 406                                           01 
01090050001000005          Commissioner of Agriculture                             UNDER VOTES                           PRECINCT 101                                           01 
01090050002000005          Commissioner of Agriculture                             UNDER VOTES                           PRECINCT 202                                           01 
01090050003000009          Commissioner of Agriculture                             UNDER VOTES                           PRECINCT 303                                           01 
01090050004000012          Commissioner of Agriculture                             UNDER VOTES                           PRECINCT 404                                           01 
01090050005000003          Commissioner of Agriculture                             UNDER VOTES                           PRECINCT 305                                           01 
01090050006000006          Commissioner of Agriculture                             UNDER VOTES                           PRECINCT 406                                           01 
01100010001000416REP       Railroad Commissioner                                   Christi Craddick                      PRECINCT 101                                           01 
01100010002000425REP       Railroad Commissioner                                   Christi Craddick                      PRECINCT 202                                           01 
01100010003000209REP       Railroad Commissioner                                   Christi Craddick                      PRECINCT 303                                           01 
01100010004000229REP       Railroad Commissioner                                   Christi Craddick                      PRECINCT 404                                           01 
01100010005000106REP       Railroad Commissioner                                   Christi Craddick                      PRECINCT 305                                           01 
01100010006000139REP       Railroad Commissioner                                   Christi Craddick                      PRECINCT 406                                           01 
01100020001000061DEM       Railroad Commissioner                                   Roman McAllen                         PRECINCT 101                                           01 
01100020002000066DEM       Railroad Commissioner                                   Roman McAllen                         PRECINCT 202                                           01 
01100020003000037DEM       Railroad Commissioner                                   Roman McAllen                         PRECINCT 303                                           01 
01100020004000046DEM       Railroad Commissioner                                   Roman McAllen                         PRECINCT 404                                           01 
01100020005000043DEM       Railroad Commissioner                                   Roman McAllen                         PRECINCT 305                                           01 
01100020006000048DEM       Railroad Commissioner                                   Roman McAllen                         PRECINCT 406                                           01 
01100030001000009LIB       Railroad Commissioner                                   Mike Wright                           PRECINCT 101                                           01 
01100030002000007LIB       Railroad Commissioner                                   Mike Wright                           PRECINCT 202                                           01 
01100030003000005LIB       Railroad Commissioner                                   Mike Wright                           PRECINCT 303                                           01 
01100030004000013LIB       Railroad Commissioner                                   Mike Wright                           PRECINCT 404                                           01 
01100030005000005LIB       Railroad Commissioner                                   Mike Wright                           PRECINCT 305                                           01 
01100030006000005LIB       Railroad Commissioner                                   Mike Wright                           PRECINCT 406                                           01 
01100040001000000          Railroad Commissioner                                   OVER VOTES                            PRECINCT 101                                           01 
01100040002000000          Railroad Commissioner                                   OVER VOTES                            PRECINCT 202                                           01 
01100040003000000          Railroad Commissioner                                   OVER VOTES                            PRECINCT 303                                           01 
01100040004000000          Railroad Commissioner                                   OVER VOTES                            PRECINCT 404                                           01 
01100040005000000          Railroad Commissioner                                   OVER VOTES                            PRECINCT 305                                           01 
01100040006000000          Railroad Commissioner                                   OVER VOTES                            PRECINCT 406                                           01 
01100050001000003          Railroad Commissioner                                   UNDER VOTES                           PRECINCT 101                                           01 
01100050002000008          Railroad Commissioner                                   UNDER VOTES                           PRECINCT 202                                           01 
01100050003000011          Railroad Commissioner                                   UNDER VOTES                           PRECINCT 303                                           01 
01100050004000012          Railroad Commissioner                                   UNDER VOTES                           PRECINCT 404                                           01 
01100050005000003          Railroad Commissioner                                   UNDER VOTES                           PRECINCT 305                                           01 
01100050006000006          Railroad Commissioner                                   UNDER VOTES                           PRECINCT 406                                           01 
01110010001000421REP       Justice, Supreme Court, Pl 2                            Jimmy Blacklock                       PRECINCT 101                                           01 
01110010002000429REP       Justice, Supreme Court, Pl 2                            Jimmy Blacklock                       PRECINCT 202                                           01 
01110010003000213REP       Justice, Supreme Court, Pl 2                            Jimmy Blacklock                       PRECINCT 303                                           01 
01110010004000237REP       Justice, Supreme Court, Pl 2                            Jimmy Blacklock                       PRECINCT 404                                           01 
01110010005000109REP       Justice, Supreme Court, Pl 2                            Jimmy Blacklock                       PRECINCT 305                                           01 
01110010006000139REP       Justice, Supreme Court, Pl 2                            Jimmy Blacklock                       PRECINCT 406                                           01 
01110020001000065DEM       Justice, Supreme Court, Pl 2                            Steven Kirkland                       PRECINCT 101                                           01 
01110020002000066DEM       Justice, Supreme Court, Pl 2                            Steven Kirkland                       PRECINCT 202                                           01 
01110020003000039DEM       Justice, Supreme Court, Pl 2                            Steven Kirkland                       PRECINCT 303                                           01 
01110020004000048DEM       Justice, Supreme Court, Pl 2                            Steven Kirkland                       PRECINCT 404                                           01 
01110020005000045DEM       Justice, Supreme Court, Pl 2                            Steven Kirkland                       PRECINCT 305                                           01 
01110020006000055DEM       Justice, Supreme Court, Pl 2                            Steven Kirkland                       PRECINCT 406                                           01 
01110030001000000          Justice, Supreme Court, Pl 2                            OVER VOTES                            PRECINCT 101                                           01 
01110030002000000          Justice, Supreme Court, Pl 2                            OVER VOTES                            PRECINCT 202                                           01 
01110030003000000          Justice, Supreme Court, Pl 2                            OVER VOTES                            PRECINCT 303                                           01 
01110030004000000          Justice, Supreme Court, Pl 2                            OVER VOTES                            PRECINCT 404                                           01 
01110030005000000          Justice, Supreme Court, Pl 2                            OVER VOTES                            PRECINCT 305                                           01 
01110030006000000          Justice, Supreme Court, Pl 2                            OVER VOTES                            PRECINCT 406                                           01 
01110040001000003          Justice, Supreme Court, Pl 2                            UNDER VOTES                           PRECINCT 101                                           01 
01110040002000011          Justice, Supreme Court, Pl 2                            UNDER VOTES                           PRECINCT 202                                           01 
01110040003000010          Justice, Supreme Court, Pl 2                            UNDER VOTES                           PRECINCT 303                                           01 
01110040004000015          Justice, Supreme Court, Pl 2                            UNDER VOTES                           PRECINCT 404                                           01 
01110040005000003          Justice, Supreme Court, Pl 2                            UNDER VOTES                           PRECINCT 305                                           01 
01110040006000004          Justice, Supreme Court, Pl 2                            UNDER VOTES                           PRECINCT 406                                           01 
01120010001000425REP       Justice, Supreme Court, Pl 4                            John Devine                           PRECINCT 101                                           01 
01120010002000432REP       Justice, Supreme Court, Pl 4                            John Devine                           PRECINCT 202                                           01 
01120010003000212REP       Justice, Supreme Court, Pl 4                            John Devine                           PRECINCT 303                                           01 
01120010004000236REP       Justice, Supreme Court, Pl 4                            John Devine                           PRECINCT 404                                           01 
01120010005000109REP       Justice, Supreme Court, Pl 4                            John Devine                           PRECINCT 305                                           01 
01120010006000141REP       Justice, Supreme Court, Pl 4                            John Devine                           PRECINCT 406                                           01 
01120020001000062DEM       Justice, Supreme Court, Pl 4                            R.K. Sandill                          PRECINCT 101                                           01 
01120020002000066DEM       Justice, Supreme Court, Pl 4                            R.K. Sandill                          PRECINCT 202                                           01 
01120020003000038DEM       Justice, Supreme Court, Pl 4                            R.K. Sandill                          PRECINCT 303                                           01 
01120020004000050DEM       Justice, Supreme Court, Pl 4                            R.K. Sandill                          PRECINCT 404                                           01 
01120020005000043DEM       Justice, Supreme Court, Pl 4                            R.K. Sandill                          PRECINCT 305                                           01 
01120020006000052DEM       Justice, Supreme Court, Pl 4                            R.K. Sandill                          PRECINCT 406                                           01 
01120030001000000          Justice, Supreme Court, Pl 4                            OVER VOTES                            PRECINCT 101                                           01 
01120030002000000          Justice, Supreme Court, Pl 4                            OVER VOTES                            PRECINCT 202                                           01 
01120030003000000          Justice, Supreme Court, Pl 4                            OVER VOTES                            PRECINCT 303                                           01 
01120030004000000          Justice, Supreme Court, Pl 4                            OVER VOTES                            PRECINCT 404                                           01 
01120030005000000          Justice, Supreme Court, Pl 4                            OVER VOTES                            PRECINCT 305                                           01 
01120030006000000          Justice, Supreme Court, Pl 4                            OVER VOTES                            PRECINCT 406                                           01 
01120040001000002          Justice, Supreme Court, Pl 4                            UNDER VOTES                           PRECINCT 101                                           01 
01120040002000008          Justice, Supreme Court, Pl 4                            UNDER VOTES                           PRECINCT 202                                           01 
01120040003000012          Justice, Supreme Court, Pl 4                            UNDER VOTES                           PRECINCT 303                                           01 
01120040004000014          Justice, Supreme Court, Pl 4                            UNDER VOTES                           PRECINCT 404                                           01 
01120040005000005          Justice, Supreme Court, Pl 4                            UNDER VOTES                           PRECINCT 305                                           01 
01120040006000005          Justice, Supreme Court, Pl 4                            UNDER VOTES                           PRECINCT 406                                           01 
01130010001000425REP       Justice, Supreme Court, Pl 6                            Jeff Brown                            PRECINCT 101                                           01 
01130010002000425REP       Justice, Supreme Court, Pl 6                            Jeff Brown                            PRECINCT 202                                           01 
01130010003000214REP       Justice, Supreme Court, Pl 6                            Jeff Brown                            PRECINCT 303                                           01 
01130010004000238REP       Justice, Supreme Court, Pl 6                            Jeff Brown                            PRECINCT 404                                           01 
01130010005000113REP       Justice, Supreme Court, Pl 6                            Jeff Brown                            PRECINCT 305                                           01 
01130010006000142REP       Justice, Supreme Court, Pl 6                            Jeff Brown                            PRECINCT 406                                           01 
01130020001000062DEM       Justice, Supreme Court, Pl 6                            Kathy Cheng                           PRECINCT 101                                           01 
01130020002000071DEM       Justice, Supreme Court, Pl 6                            Kathy Cheng                           PRECINCT 202                                           01 
01130020003000037DEM       Justice, Supreme Court, Pl 6                            Kathy Cheng                           PRECINCT 303                                           01 
01130020004000047DEM       Justice, Supreme Court, Pl 6                            Kathy Cheng                           PRECINCT 404                                           01 
01130020005000040DEM       Justice, Supreme Court, Pl 6                            Kathy Cheng                           PRECINCT 305                                           01 
01130020006000051DEM       Justice, Supreme Court, Pl 6                            Kathy Cheng                           PRECINCT 406                                           01 
01130030001000000          Justice, Supreme Court, Pl 6                            OVER VOTES                            PRECINCT 101                                           01 
01130030002000000          Justice, Supreme Court, Pl 6                            OVER VOTES                            PRECINCT 202                                           01 
01130030003000000          Justice, Supreme Court, Pl 6                            OVER VOTES                            PRECINCT 303                                           01 
01130030004000000          Justice, Supreme Court, Pl 6                            OVER VOTES                            PRECINCT 404                                           01 
01130030005000000          Justice, Supreme Court, Pl 6                            OVER VOTES                            PRECINCT 305                                           01 
01130030006000000          Justice, Supreme Court, Pl 6                            OVER VOTES                            PRECINCT 406                                           01 
01130040001000002          Justice, Supreme Court, Pl 6                            UNDER VOTES                           PRECINCT 101                                           01 
01130040002000010          Justice, Supreme Court, Pl 6                            UNDER VOTES                           PRECINCT 202                                           01 
01130040003000011          Justice, Supreme Court, Pl 6                            UNDER VOTES                           PRECINCT 303                                           01 
01130040004000015          Justice, Supreme Court, Pl 6                            UNDER VOTES                           PRECINCT 404                                           01 
01130040005000004          Justice, Supreme Court, Pl 6                            UNDER VOTES                           PRECINCT 305                                           01 
01130040006000005          Justice, Supreme Court, Pl 6                            UNDER VOTES                           PRECINCT 406                                           01 
01140010001000417REP       Presiding Judge, Ct of Crim App                         Sharon Keller                         PRECINCT 101                                           01 
01140010002000416REP       Presiding Judge, Ct of Crim App                         Sharon Keller                         PRECINCT 202                                           01 
01140010003000208REP       Presiding Judge, Ct of Crim App                         Sharon Keller                         PRECINCT 303                                           01 
01140010004000231REP       Presiding Judge, Ct of Crim App                         Sharon Keller                         PRECINCT 404                                           01 
01140010005000105REP       Presiding Judge, Ct of Crim App                         Sharon Keller                         PRECINCT 305                                           01 
01140010006000135REP       Presiding Judge, Ct of Crim App                         Sharon Keller                         PRECINCT 406                                           01 
01140020001000065DEM       Presiding Judge, Ct of Crim App                         Maria T. (Terri) Jackson              PRECINCT 101                                           01 
01140020002000073DEM       Presiding Judge, Ct of Crim App                         Maria T. (Terri) Jackson              PRECINCT 202                                           01 
01140020003000037DEM       Presiding Judge, Ct of Crim App                         Maria T. (Terri) Jackson              PRECINCT 303                                           01 
01140020004000049DEM       Presiding Judge, Ct of Crim App                         Maria T. (Terri) Jackson              PRECINCT 404                                           01 
01140020005000046DEM       Presiding Judge, Ct of Crim App                         Maria T. (Terri) Jackson              PRECINCT 305                                           01 
01140020006000051DEM       Presiding Judge, Ct of Crim App                         Maria T. (Terri) Jackson              PRECINCT 406                                           01 
01140030001000006LIB       Presiding Judge, Ct of Crim App                         William Bryan Strange III             PRECINCT 101                                           01 
01140030002000008LIB       Presiding Judge, Ct of Crim App                         William Bryan Strange III             PRECINCT 202                                           01 
01140030003000007LIB       Presiding Judge, Ct of Crim App                         William Bryan Strange III             PRECINCT 303                                           01 
01140030004000007LIB       Presiding Judge, Ct of Crim App                         William Bryan Strange III             PRECINCT 404                                           01 
01140030005000002LIB       Presiding Judge, Ct of Crim App                         William Bryan Strange III             PRECINCT 305                                           01 
01140030006000006LIB       Presiding Judge, Ct of Crim App                         William Bryan Strange III             PRECINCT 406                                           01 
01140040001000000          Presiding Judge, Ct of Crim App                         OVER VOTES                            PRECINCT 101                                           01 
01140040002000000          Presiding Judge, Ct of Crim App                         OVER VOTES                            PRECINCT 202                                           01 
01140040003000000          Presiding Judge, Ct of Crim App                         OVER VOTES                            PRECINCT 303                                           01 
01140040004000000          Presiding Judge, Ct of Crim App                         OVER VOTES                            PRECINCT 404                                           01 
01140040005000000          Presiding Judge, Ct of Crim App                         OVER VOTES                            PRECINCT 305                                           01 
01140040006000000          Presiding Judge, Ct of Crim App                         OVER VOTES                            PRECINCT 406                                           01 
01140050001000001          Presiding Judge, Ct of Crim App                         UNDER VOTES                           PRECINCT 101                                           01 
01140050002000009          Presiding Judge, Ct of Crim App                         UNDER VOTES                           PRECINCT 202                                           01 
01140050003000010          Presiding Judge, Ct of Crim App                         UNDER VOTES                           PRECINCT 303                                           01 
01140050004000013          Presiding Judge, Ct of Crim App                         UNDER VOTES                           PRECINCT 404                                           01 
01140050005000004          Presiding Judge, Ct of Crim App                         UNDER VOTES                           PRECINCT 305                                           01 
01140050006000006          Presiding Judge, Ct of Crim App                         UNDER VOTES                           PRECINCT 406                                           01 
01150010001000421REP       Judge, Ct of Crim Appeals, Pl 7                         Barbara Parker Hervey                 PRECINCT 101                                           01 
01150010002000428REP       Judge, Ct of Crim Appeals, Pl 7                         Barbara Parker Hervey                 PRECINCT 202                                           01 
01150010003000212REP       Judge, Ct of Crim Appeals, Pl 7                         Barbara Parker Hervey                 PRECINCT 303                                           01 
01150010004000242REP       Judge, Ct of Crim Appeals, Pl 7                         Barbara Parker Hervey                 PRECINCT 404                                           01 
01150010005000111REP       Judge, Ct of Crim Appeals, Pl 7                         Barbara Parker Hervey                 PRECINCT 305                                           01 
01150010006000141REP       Judge, Ct of Crim Appeals, Pl 7                         Barbara Parker Hervey                 PRECINCT 406                                           01 
01150020001000064DEM       Judge, Ct of Crim Appeals, Pl 7                         Ramona Franklin                       PRECINCT 101                                           01 
01150020002000067DEM       Judge, Ct of Crim Appeals, Pl 7                         Ramona Franklin                       PRECINCT 202                                           01 
01150020003000037DEM       Judge, Ct of Crim Appeals, Pl 7                         Ramona Franklin                       PRECINCT 303                                           01 
01150020004000045DEM       Judge, Ct of Crim Appeals, Pl 7                         Ramona Franklin                       PRECINCT 404                                           01 
01150020005000042DEM       Judge, Ct of Crim Appeals, Pl 7                         Ramona Franklin                       PRECINCT 305                                           01 
01150020006000052DEM       Judge, Ct of Crim Appeals, Pl 7                         Ramona Franklin                       PRECINCT 406                                           01 
01150030001000000          Judge, Ct of Crim Appeals, Pl 7                         OVER VOTES                            PRECINCT 101                                           01 
01150030002000000          Judge, Ct of Crim Appeals, Pl 7                         OVER VOTES                            PRECINCT 202                                           01 
01150030003000000          Judge, Ct of Crim Appeals, Pl 7                         OVER VOTES                            PRECINCT 303                                           01 
01150030004000000          Judge, Ct of Crim Appeals, Pl 7                         OVER VOTES                            PRECINCT 404                                           01 
01150030005000000          Judge, Ct of Crim Appeals, Pl 7                         OVER VOTES                            PRECINCT 305                                           01 
01150030006000000          Judge, Ct of Crim Appeals, Pl 7                         OVER VOTES                            PRECINCT 406                                           01 
01150040001000004          Judge, Ct of Crim Appeals, Pl 7                         UNDER VOTES                           PRECINCT 101                                           01 
01150040002000011          Judge, Ct of Crim Appeals, Pl 7                         UNDER VOTES                           PRECINCT 202                                           01 
01150040003000013          Judge, Ct of Crim Appeals, Pl 7                         UNDER VOTES                           PRECINCT 303                                           01 
01150040004000013          Judge, Ct of Crim Appeals, Pl 7                         UNDER VOTES                           PRECINCT 404                                           01 
01150040005000004          Judge, Ct of Crim Appeals, Pl 7                         UNDER VOTES                           PRECINCT 305                                           01 
01150040006000005          Judge, Ct of Crim Appeals, Pl 7                         UNDER VOTES                           PRECINCT 406                                           01 
01160010001000435REP       Judge, Ct of Crim Appeals, Pl 8                         Michelle Slaughter                    PRECINCT 101                                           01 
01160010002000447REP       Judge, Ct of Crim Appeals, Pl 8                         Michelle Slaughter                    PRECINCT 202                                           01 
01160010003000219REP       Judge, Ct of Crim Appeals, Pl 8                         Michelle Slaughter                    PRECINCT 303                                           01 
01160010004000243REP       Judge, Ct of Crim Appeals, Pl 8                         Michelle Slaughter                    PRECINCT 404                                           01 
01160010005000117REP       Judge, Ct of Crim Appeals, Pl 8                         Michelle Slaughter                    PRECINCT 305                                           01 
01160010006000148REP       Judge, Ct of Crim Appeals, Pl 8                         Michelle Slaughter                    PRECINCT 406                                           01 
01160020001000038LIB       Judge, Ct of Crim Appeals, Pl 8                         Mark Ash                              PRECINCT 101                                           01 
01160020002000029LIB       Judge, Ct of Crim Appeals, Pl 8                         Mark Ash                              PRECINCT 202                                           01 
01160020003000019LIB       Judge, Ct of Crim Appeals, Pl 8                         Mark Ash                              PRECINCT 303                                           01 
01160020004000024LIB       Judge, Ct of Crim Appeals, Pl 8                         Mark Ash                              PRECINCT 404                                           01 
01160020005000019LIB       Judge, Ct of Crim Appeals, Pl 8                         Mark Ash                              PRECINCT 305                                           01 
01160020006000027LIB       Judge, Ct of Crim Appeals, Pl 8                         Mark Ash                              PRECINCT 406                                           01 
01160030001000000          Judge, Ct of Crim Appeals, Pl 8                         OVER VOTES                            PRECINCT 101                                           01 
01160030002000000          Judge, Ct of Crim Appeals, Pl 8                         OVER VOTES                            PRECINCT 202                                           01 
01160030003000000          Judge, Ct of Crim Appeals, Pl 8                         OVER VOTES                            PRECINCT 303                                           01 
01160030004000000          Judge, Ct of Crim Appeals, Pl 8                         OVER VOTES                            PRECINCT 404                                           01 
01160030005000000          Judge, Ct of Crim Appeals, Pl 8                         OVER VOTES                            PRECINCT 305                                           01 
01160030006000000          Judge, Ct of Crim Appeals, Pl 8                         OVER VOTES                            PRECINCT 406                                           01 
01160040001000016          Judge, Ct of Crim Appeals, Pl 8                         UNDER VOTES                           PRECINCT 101                                           01 
01160040002000030          Judge, Ct of Crim Appeals, Pl 8                         UNDER VOTES                           PRECINCT 202                                           01 
01160040003000024          Judge, Ct of Crim Appeals, Pl 8                         UNDER VOTES                           PRECINCT 303                                           01 
01160040004000033          Judge, Ct of Crim Appeals, Pl 8                         UNDER VOTES                           PRECINCT 404                                           01 
01160040005000021          Judge, Ct of Crim Appeals, Pl 8                         UNDER VOTES                           PRECINCT 305                                           01 
01160040006000023          Judge, Ct of Crim Appeals, Pl 8                         UNDER VOTES                           PRECINCT 406                                           01 
01170010001000433REP       State Senator, District 31                              Kel Seliger                           PRECINCT 101                                           01 
01170010002000440REP       State Senator, District 31                              Kel Seliger                           PRECINCT 202                                           01 
01170010003000224REP       State Senator, District 31                              Kel Seliger                           PRECINCT 303                                           01 
01170010004000253REP       State Senator, District 31                              Kel Seliger                           PRECINCT 404                                           01 
01170010005000118REP       State Senator, District 31                              Kel Seliger                           PRECINCT 305                                           01 
01170010006000150REP       State Senator, District 31                              Kel Seliger                           PRECINCT 406                                           01 
01170020001000043LIB       State Senator, District 31                              Jack B. Westbrook                     PRECINCT 101                                           01 
01170020002000040LIB       State Senator, District 31                              Jack B. Westbrook                     PRECINCT 202                                           01 
01170020003000015LIB       State Senator, District 31                              Jack B. Westbrook                     PRECINCT 303                                           01 
01170020004000021LIB       State Senator, District 31                              Jack B. Westbrook                     PRECINCT 404                                           01 
01170020005000022LIB       State Senator, District 31                              Jack B. Westbrook                     PRECINCT 305                                           01 
01170020006000026LIB       State Senator, District 31                              Jack B. Westbrook                     PRECINCT 406                                           01 
01170030001000000          State Senator, District 31                              OVER VOTES                            PRECINCT 101                                           01 
01170030002000000          State Senator, District 31                              OVER VOTES                            PRECINCT 202                                           01 
01170030003000000          State Senator, District 31                              OVER VOTES                            PRECINCT 303                                           01 
01170030004000000          State Senator, District 31                              OVER VOTES                            PRECINCT 404                                           01 
01170030005000000          State Senator, District 31                              OVER VOTES                            PRECINCT 305                                           01 
01170030006000000          State Senator, District 31                              OVER VOTES                            PRECINCT 406                                           01 
01170040001000013          State Senator, District 31                              UNDER VOTES                           PRECINCT 101                                           01 
01170040002000026          State Senator, District 31                              UNDER VOTES                           PRECINCT 202                                           01 
01170040003000023          State Senator, District 31                              UNDER VOTES                           PRECINCT 303                                           01 
01170040004000026          State Senator, District 31                              UNDER VOTES                           PRECINCT 404                                           01 
01170040005000017          State Senator, District 31                              UNDER VOTES                           PRECINCT 305                                           01 
01170040006000022          State Senator, District 31                              UNDER VOTES                           PRECINCT 406                                           01 
01180010001000419REP       State Representative, District 88                       Ken King                              PRECINCT 101                                           01 
01180010002000430REP       State Representative, District 88                       Ken King                              PRECINCT 202                                           01 
01180010003000218REP       State Representative, District 88                       Ken King                              PRECINCT 303                                           01 
01180010004000249REP       State Representative, District 88                       Ken King                              PRECINCT 404                                           01 
01180010005000110REP       State Representative, District 88                       Ken King                              PRECINCT 305                                           01 
01180010006000143REP       State Representative, District 88                       Ken King                              PRECINCT 406                                           01 
01180020001000066DEM       State Representative, District 88                       Ezekiel Barron                        PRECINCT 101                                           01 
01180020002000070DEM       State Representative, District 88                       Ezekiel Barron                        PRECINCT 202                                           01 
01180020003000038DEM       State Representative, District 88                       Ezekiel Barron                        PRECINCT 303                                           01 
01180020004000043DEM       State Representative, District 88                       Ezekiel Barron                        PRECINCT 404                                           01 
01180020005000043DEM       State Representative, District 88                       Ezekiel Barron                        PRECINCT 305                                           01 
01180020006000051DEM       State Representative, District 88                       Ezekiel Barron                        PRECINCT 406                                           01 
01180030001000000          State Representative, District 88                       OVER VOTES                            PRECINCT 101                                           01 
01180030002000000          State Representative, District 88                       OVER VOTES                            PRECINCT 202                                           01 
01180030003000000          State Representative, District 88                       OVER VOTES                            PRECINCT 303                                           01 
01180030004000000          State Representative, District 88                       OVER VOTES                            PRECINCT 404                                           01 
01180030005000000          State Representative, District 88                       OVER VOTES                            PRECINCT 305                                           01 
01180030006000000          State Representative, District 88                       OVER VOTES                            PRECINCT 406                                           01 
01180040001000004          State Representative, District 88                       UNDER VOTES                           PRECINCT 101                                           01 
01180040002000006          State Representative, District 88                       UNDER VOTES                           PRECINCT 202                                           01 
01180040003000006          State Representative, District 88                       UNDER VOTES                           PRECINCT 303                                           01 
01180040004000008          State Representative, District 88                       UNDER VOTES                           PRECINCT 404                                           01 
01180040005000004          State Representative, District 88                       UNDER VOTES                           PRECINCT 305                                           01 
01180040006000004          State Representative, District 88                       UNDER VOTES                           PRECINCT 406                                           01 
01190010001000457REP       Justice, 7th Ct of App Dist, Pl 2                       Judy Parker                           PRECINCT 101                                           01 
01190010002000466REP       Justice, 7th Ct of App Dist, Pl 2                       Judy Parker                           PRECINCT 202                                           01 
01190010003000226REP       Justice, 7th Ct of App Dist, Pl 2                       Judy Parker                           PRECINCT 303                                           01 
01190010004000260REP       Justice, 7th Ct of App Dist, Pl 2                       Judy Parker                           PRECINCT 404                                           01 
01190010005000131REP       Justice, 7th Ct of App Dist, Pl 2                       Judy Parker                           PRECINCT 305                                           01 
01190010006000158REP       Justice, 7th Ct of App Dist, Pl 2                       Judy Parker                           PRECINCT 406                                           01 
01190020001000000          Justice, 7th Ct of App Dist, Pl 2                       OVER VOTES                            PRECINCT 101                                           01 
01190020002000000          Justice, 7th Ct of App Dist, Pl 2                       OVER VOTES                            PRECINCT 202                                           01 
01190020003000000          Justice, 7th Ct of App Dist, Pl 2                       OVER VOTES                            PRECINCT 303                                           01 
01190020004000000          Justice, 7th Ct of App Dist, Pl 2                       OVER VOTES                            PRECINCT 404                                           01 
01190020005000000          Justice, 7th Ct of App Dist, Pl 2                       OVER VOTES                            PRECINCT 305                                           01 
01190020006000000          Justice, 7th Ct of App Dist, Pl 2                       OVER VOTES                            PRECINCT 406                                           01 
01190030001000032          Justice, 7th Ct of App Dist, Pl 2                       UNDER VOTES                           PRECINCT 101                                           01 
01190030002000040          Justice, 7th Ct of App Dist, Pl 2                       UNDER VOTES                           PRECINCT 202                                           01 
01190030003000036          Justice, 7th Ct of App Dist, Pl 2                       UNDER VOTES                           PRECINCT 303                                           01 
01190030004000040          Justice, 7th Ct of App Dist, Pl 2                       UNDER VOTES                           PRECINCT 404                                           01 
01190030005000026          Justice, 7th Ct of App Dist, Pl 2                       UNDER VOTES                           PRECINCT 305                                           01 
01190030006000040          Justice, 7th Ct of App Dist, Pl 2                       UNDER VOTES                           PRECINCT 406                                           01 
01200010001000453REP       Justice, 7th Ct of App Dist, Pl 3                       Pat Pirtle                            PRECINCT 101                                           01 
01200010002000459REP       Justice, 7th Ct of App Dist, Pl 3                       Pat Pirtle                            PRECINCT 202                                           01 
01200010003000225REP       Justice, 7th Ct of App Dist, Pl 3                       Pat Pirtle                            PRECINCT 303                                           01 
01200010004000258REP       Justice, 7th Ct of App Dist, Pl 3                       Pat Pirtle                            PRECINCT 404                                           01 
01200010005000130REP       Justice, 7th Ct of App Dist, Pl 3                       Pat Pirtle                            PRECINCT 305                                           01 
01200010006000158REP       Justice, 7th Ct of App Dist, Pl 3                       Pat Pirtle                            PRECINCT 406                                           01 
01200020001000000          Justice, 7th Ct of App Dist, Pl 3                       OVER VOTES                            PRECINCT 101                                           01 
01200020002000000          Justice, 7th Ct of App Dist, Pl 3                       OVER VOTES                            PRECINCT 202                                           01 
01200020003000000          Justice, 7th Ct of App Dist, Pl 3                       OVER VOTES                            PRECINCT 303                                           01 
01200020004000000          Justice, 7th Ct of App Dist, Pl 3                       OVER VOTES                            PRECINCT 404                                           01 
01200020005000000          Justice, 7th Ct of App Dist, Pl 3                       OVER VOTES                            PRECINCT 305                                           01 
01200020006000000          Justice, 7th Ct of App Dist, Pl 3                       OVER VOTES                            PRECINCT 406                                           01 
01200030001000036          Justice, 7th Ct of App Dist, Pl 3                       UNDER VOTES                           PRECINCT 101                                           01 
01200030002000047          Justice, 7th Ct of App Dist, Pl 3                       UNDER VOTES                           PRECINCT 202                                           01 
01200030003000037          Justice, 7th Ct of App Dist, Pl 3                       UNDER VOTES                           PRECINCT 303                                           01 
01200030004000042          Justice, 7th Ct of App Dist, Pl 3                       UNDER VOTES                           PRECINCT 404                                           01 
01200030005000027          Justice, 7th Ct of App Dist, Pl 3                       UNDER VOTES                           PRECINCT 305                                           01 
01200030006000040          Justice, 7th Ct of App Dist, Pl 3                       UNDER VOTES                           PRECINCT 406                                           01 
01210010001000458REP       Criminal District Attorney                              Bill Helwig                           PRECINCT 101                                           01 
01210010002000462REP       Criminal District Attorney                              Bill Helwig                           PRECINCT 202                                           01 
01210010003000233REP       Criminal District Attorney                              Bill Helwig                           PRECINCT 303                                           01 
01210010004000261REP       Criminal District Attorney                              Bill Helwig                           PRECINCT 404                                           01 
01210010005000128REP       Criminal District Attorney                              Bill Helwig                           PRECINCT 305                                           01 
01210010006000165REP       Criminal District Attorney                              Bill Helwig                           PRECINCT 406                                           01 
