00010010001000000000000000000000000000000000000000000000000000000000000000000000000000000000000000000          REGISTERED VOTERS - TOTAL                               REGISTERED VOTERS - TOTAL             Precinct 1                                             00 
00010010002000000000000000000000000000000000000000000000000000000000000000000000000000000000000000000          REGISTERED VOTERS - TOTAL                               REGISTERED VOTERS - TOTAL             Precinct 2                                             00 
00010010003000000000000000000000000000000000000000000000000000000000000000000000000000000000000000000          REGISTERED VOTERS - TOTAL                               REGISTERED VOTERS - TOTAL             Precinct 3                                             00 
00010010004000000000000000000000000000000000000000000000000000000000000000000000000000000000000000000          REGISTERED VOTERS - TOTAL                               REGISTERED VOTERS - TOTAL             Precinct 4                                             00 
00020010001001452000029001130000293000000000000000000000000000000000000000000000000000000000000000000          BALLOTS CAST - TOTAL                                    BALLOTS CAST - TOTAL                  Precinct 1                                             00 
00020010002001926000064001586000276000000000000000000000000000000000000000000000000000000000000000000          BALLOTS CAST - TOTAL                                    BALLOTS CAST - TOTAL                  Precinct 2                                             00 
00020010003001378000046001059000273000000000000000000000000000000000000000000000000000000000000000000          BALLOTS CAST - TOTAL                                    BALLOTS CAST - TOTAL                  Precinct 3                                             00 
00020010004001111000032000840000239000000000000000000000000000000000000000000000000000000000000000000          BALLOTS CAST - TOTAL                                    BALLOTS CAST - TOTAL                  Precinct 4                                             00 
00030010001000000000000000000000000000000000000000000000000000000000000000000000000000000000000000000          BALLOTS CAST - BLANK                                    BALLOTS CAST - BLANK                  Precinct 1                                             00 
00030010002000000000000000000000000000000000000000000000000000000000000000000000000000000000000000000          BALLOTS CAST - BLANK                                    BALLOTS CAST - BLANK                  Precinct 2                                             00 
00030010003000000000000000000000000000000000000000000000000000000000000000000000000000000000000000000          BALLOTS CAST - BLANK                                    BALLOTS CAST - BLANK                  Precinct 3                                             00 
00030010004000000000000000000000000000000000000000000000000000000000000000000000000000000000000000000          BALLOTS CAST - BLANK                                    BALLOTS CAST - BLANK                  Precinct 4                                             00 
00040010001001242000016000978000248000000000000000000000000000000000000000000000000000000000000000000REP       President / Vice President                              REP Donald J. Trump / Michael R. PencePrecinct 1                                             01 
00040010002001661000038001382000241000000000000000000000000000000000000000000000000000000000000000000REP       President / Vice President                              REP Donald J. Trump / Michael R. PencePrecinct 2                                             01 
00040010003001141000031000885000225000000000000000000000000000000000000000000000000000000000000000000REP       President / Vice President                              REP Donald J. Trump / Michael R. PencePrecinct 3                                             01 
00040010004000893000017000678000198000000000000000000000000000000000000000000000000000000000000000000REP       President / Vice President                              REP Donald J. Trump / Michael R. PencePrecinct 4                                             01 
00040020001000196000013000142000041000000000000000000000000000000000000000000000000000000000000000000DEM       President / Vice President                              DEM Joseph R. Biden / Kamala D. HarrisPrecinct 1                                             01 
00040020002000233000024000182000027000000000000000000000000000000000000000000000000000000000000000000DEM       President / Vice President                              DEM Joseph R. Biden / Kamala D. HarrisPrecinct 2                                             01 
00040020003000218000014000163000041000000000000000000000000000000000000000000000000000000000000000000DEM       President / Vice President                              DEM Joseph R. Biden / Kamala D. HarrisPrecinct 3                                             01 
00040020004000202000014000148000040000000000000000000000000000000000000000000000000000000000000000000DEM       President / Vice President                              DEM Joseph R. Biden / Kamala D. HarrisPrecinct 4                                             01 
00040030001000013000000000010000003000000000000000000000000000000000000000000000000000000000000000000LIB       President / Vice President                              LIB Jo Jorgensen / Jeremy "Spike" CohePrecinct 1                                             01 
00040030002000028000002000019000007000000000000000000000000000000000000000000000000000000000000000000LIB       President / Vice President                              LIB Jo Jorgensen / Jeremy "Spike" CohePrecinct 2                                             01 
00040030003000012000001000006000005000000000000000000000000000000000000000000000000000000000000000000LIB       President / Vice President                              LIB Jo Jorgensen / Jeremy "Spike" CohePrecinct 3                                             01 
00040030004000007000001000006000000000000000000000000000000000000000000000000000000000000000000000000LIB       President / Vice President                              LIB Jo Jorgensen / Jeremy "Spike" CohePrecinct 4                                             01 
00040040001000001000000000000000001000000000000000000000000000000000000000000000000000000000000000000GRN       President / Vice President                              GRN Howie Hawkins / Angela Walker     Precinct 1                                             01 
00040040002000003000000000002000001000000000000000000000000000000000000000000000000000000000000000000GRN       President / Vice President                              GRN Howie Hawkins / Angela Walker     Precinct 2                                             01 
00040040003000003000000000002000001000000000000000000000000000000000000000000000000000000000000000000GRN       President / Vice President                              GRN Howie Hawkins / Angela Walker     Precinct 3                                             01 
00040040004000003000000000002000001000000000000000000000000000000000000000000000000000000000000000000GRN       President / Vice President                              GRN Howie Hawkins / Angela Walker     Precinct 4                                             01 
00050010001001215000017000959000239000000000000000000000000000000000000000000000000000000000000000000REP       US Senator                                              REP John Cornyn                       Precinct 1                                             01 
00050010002001658000040001382000236000000000000000000000000000000000000000000000000000000000000000000REP       US Senator                                              REP John Cornyn                       Precinct 2                                             01 
00050010003001138000031000890000217000000000000000000000000000000000000000000000000000000000000000000REP       US Senator                                              REP John Cornyn                       Precinct 3                                             01 
00050010004000877000017000669000191000000000000000000000000000000000000000000000000000000000000000000REP       US Senator                                              REP John Cornyn                       Precinct 4                                             01 
00050020001000184000011000139000034000000000000000000000000000000000000000000000000000000000000000000DEM       US Senator                                              DEM Mary "MJ" Hegar                   Precinct 1                                             01 
00050020002000214000022000163000029000000000000000000000000000000000000000000000000000000000000000000DEM       US Senator                                              DEM Mary "MJ" Hegar                   Precinct 2                                             01 
00050020003000193000014000139000040000000000000000000000000000000000000000000000000000000000000000000DEM       US Senator                                              DEM Mary "MJ" Hegar                   Precinct 3                                             01 
00050020004000188000015000139000034000000000000000000000000000000000000000000000000000000000000000000DEM       US Senator                                              DEM Mary "MJ" Hegar                   Precinct 4                                             01 
00050030001000028000001000017000010000000000000000000000000000000000000000000000000000000000000000000LIB       US Senator                                              LIB Kerry Douglas McKennon            Precinct 1                                             01 
00050030002000036000002000026000008000000000000000000000000000000000000000000000000000000000000000000LIB       US Senator                                              LIB Kerry Douglas McKennon            Precinct 2                                             01 
00050030003000030000000000019000011000000000000000000000000000000000000000000000000000000000000000000LIB       US Senator                                              LIB Kerry Douglas McKennon            Precinct 3                                             01 
00050030004000013000000000008000005000000000000000000000000000000000000000000000000000000000000000000LIB       US Senator                                              LIB Kerry Douglas McKennon            Precinct 4                                             01 
00050040001000007000000000003000004000000000000000000000000000000000000000000000000000000000000000000GRN       US Senator                                              GRN David B. Collins                  Precinct 1                                             01 
00050040002000005000000000005000000000000000000000000000000000000000000000000000000000000000000000000GRN       US Senator                                              GRN David B. Collins                  Precinct 2                                             01 
00050040003000003000000000003000000000000000000000000000000000000000000000000000000000000000000000000GRN       US Senator                                              GRN David B. Collins                  Precinct 3                                             01 
00050040004000005000000000003000002000000000000000000000000000000000000000000000000000000000000000000GRN       US Senator                                              GRN David B. Collins                  Precinct 4                                             01 
00060010001001213000017000956000240000000000000000000000000000000000000000000000000000000000000000000REP       US Representative, Dist 11                              REP August Pfluger                    Precinct 1                                             01 
00060010002001660000039001389000232000000000000000000000000000000000000000000000000000000000000000000REP       US Representative, Dist 11                              REP August Pfluger                    Precinct 2                                             01 
00060010003001137000030000888000219000000000000000000000000000000000000000000000000000000000000000000REP       US Representative, Dist 11                              REP August Pfluger                    Precinct 3                                             01 
00060010004000877000018000666000193000000000000000000000000000000000000000000000000000000000000000000REP       US Representative, Dist 11                              REP August Pfluger                    Precinct 4                                             01 
00060020001000191000011000139000041000000000000000000000000000000000000000000000000000000000000000000DEM       US Representative, Dist 11                              DEM Jon Mark Hogg                     Precinct 1                                             01 
00060020002000216000024000160000032000000000000000000000000000000000000000000000000000000000000000000DEM       US Representative, Dist 11                              DEM Jon Mark Hogg                     Precinct 2                                             01 
00060020003000200000014000146000040000000000000000000000000000000000000000000000000000000000000000000DEM       US Representative, Dist 11                              DEM Jon Mark Hogg                     Precinct 3                                             01 
00060020004000191000014000145000032000000000000000000000000000000000000000000000000000000000000000000DEM       US Representative, Dist 11                              DEM Jon Mark Hogg                     Precinct 4                                             01 
00060030001000030000001000021000008000000000000000000000000000000000000000000000000000000000000000000LIB       US Representative, Dist 11                              LIB Wacey Alpha Cody                  Precinct 1                                             01 
00060030002000038000000000029000009000000000000000000000000000000000000000000000000000000000000000000LIB       US Representative, Dist 11                              LIB Wacey Alpha Cody                  Precinct 2                                             01 
00060030003000025000001000016000008000000000000000000000000000000000000000000000000000000000000000000LIB       US Representative, Dist 11                              LIB Wacey Alpha Cody                  Precinct 3                                             01 
00060030004000016000000000011000005000000000000000000000000000000000000000000000000000000000000000000LIB       US Representative, Dist 11                              LIB Wacey Alpha Cody                  Precinct 4                                             01 
00070010001001205000016000956000233000000000000000000000000000000000000000000000000000000000000000000REP       Railroad Commissioner                                   REP James "Jim" Wright                Precinct 1                                             01 
00070010002001638000041001365000232000000000000000000000000000000000000000000000000000000000000000000REP       Railroad Commissioner                                   REP James "Jim" Wright                Precinct 2                                             01 
00070010003001125000028000880000217000000000000000000000000000000000000000000000000000000000000000000REP       Railroad Commissioner                                   REP James "Jim" Wright                Precinct 3                                             01 
00070010004000866000016000659000191000000000000000000000000000000000000000000000000000000000000000000REP       Railroad Commissioner                                   REP James "Jim" Wright                Precinct 4                                             01 
00070020001000193000011000142000040000000000000000000000000000000000000000000000000000000000000000000DEM       Railroad Commissioner                                   DEM Chrysta Castaneda                 Precinct 1                                             01 
00070020002000219000018000173000028000000000000000000000000000000000000000000000000000000000000000000DEM       Railroad Commissioner                                   DEM Chrysta Castaneda                 Precinct 2                                             01 
00070020003000205000015000150000040000000000000000000000000000000000000000000000000000000000000000000DEM       Railroad Commissioner                                   DEM Chrysta Castaneda                 Precinct 3                                             01 
00070020004000189000015000140000034000000000000000000000000000000000000000000000000000000000000000000DEM       Railroad Commissioner                                   DEM Chrysta Castaneda                 Precinct 4                                             01 
00070030001000026000000000016000010000000000000000000000000000000000000000000000000000000000000000000LIB       Railroad Commissioner                                   LIB Matt Sterett                      Precinct 1                                             01 
00070030002000037000001000025000011000000000000000000000000000000000000000000000000000000000000000000LIB       Railroad Commissioner                                   LIB Matt Sterett                      Precinct 2                                             01 
00070030003000021000000000013000008000000000000000000000000000000000000000000000000000000000000000000LIB       Railroad Commissioner                                   LIB Matt Sterett                      Precinct 3                                             01 
00070030004000013000000000008000005000000000000000000000000000000000000000000000000000000000000000000LIB       Railroad Commissioner                                   LIB Matt Sterett                      Precinct 4                                             01 
00070040001000006000001000001000004000000000000000000000000000000000000000000000000000000000000000000GRN       Railroad Commissioner                                   GRN Katija "Kat" Gruene               Precinct 1                                             01 
00070040002000012000000000010000002000000000000000000000000000000000000000000000000000000000000000000GRN       Railroad Commissioner                                   GRN Katija "Kat" Gruene               Precinct 2                                             01 
00070040003000003000000000001000002000000000000000000000000000000000000000000000000000000000000000000GRN       Railroad Commissioner                                   GRN Katija "Kat" Gruene               Precinct 3                                             01 
00070040004000012000000000009000003000000000000000000000000000000000000000000000000000000000000000000GRN       Railroad Commissioner                                   GRN Katija "Kat" Gruene               Precinct 4                                             01 
00080010001001196000016000945000235000000000000000000000000000000000000000000000000000000000000000000REP       Chief Justice, Supreme Court                            REP Nathan Hecht                      Precinct 1                                             01 
00080010002001627000040001359000228000000000000000000000000000000000000000000000000000000000000000000REP       Chief Justice, Supreme Court                            REP Nathan Hecht                      Precinct 2                                             01 
00080010003001111000027000871000213000000000000000000000000000000000000000000000000000000000000000000REP       Chief Justice, Supreme Court                            REP Nathan Hecht                      Precinct 3                                             01 
00080010004000862000015000661000186000000000000000000000000000000000000000000000000000000000000000000REP       Chief Justice, Supreme Court                            REP Nathan Hecht                      Precinct 4                                             01 
00080020001000204000011000152000041000000000000000000000000000000000000000000000000000000000000000000DEM       Chief Justice, Supreme Court                            DEM Amy Clark Meachum                 Precinct 1                                             01 
00080020002000229000020000176000033000000000000000000000000000000000000000000000000000000000000000000DEM       Chief Justice, Supreme Court                            DEM Amy Clark Meachum                 Precinct 2                                             01 
00080020003000208000016000152000040000000000000000000000000000000000000000000000000000000000000000000DEM       Chief Justice, Supreme Court                            DEM Amy Clark Meachum                 Precinct 3                                             01 
00080020004000187000014000138000035000000000000000000000000000000000000000000000000000000000000000000DEM       Chief Justice, Supreme Court                            DEM Amy Clark Meachum                 Precinct 4                                             01 
00080030001000034000001000020000013000000000000000000000000000000000000000000000000000000000000000000LIB       Chief Justice, Supreme Court                            LIB Mark Ash                          Precinct 1                                             01 
00080030002000046000000000035000011000000000000000000000000000000000000000000000000000000000000000000LIB       Chief Justice, Supreme Court                            LIB Mark Ash                          Precinct 2                                             01 
00080030003000032000001000018000013000000000000000000000000000000000000000000000000000000000000000000LIB       Chief Justice, Supreme Court                            LIB Mark Ash                          Precinct 3                                             01 
00080030004000028000001000019000008000000000000000000000000000000000000000000000000000000000000000000LIB       Chief Justice, Supreme Court                            LIB Mark Ash                          Precinct 4                                             01 
00090010001001238000016000979000243000000000000000000000000000000000000000000000000000000000000000000REP       Justice, Supreme Court, Pl 6                            REP Jane Bland                        Precinct 1                                             01 
00090010002001685000041001401000243000000000000000000000000000000000000000000000000000000000000000000REP       Justice, Supreme Court, Pl 6                            REP Jane Bland                        Precinct 2                                             01 
00090010003001142000029000891000222000000000000000000000000000000000000000000000000000000000000000000REP       Justice, Supreme Court, Pl 6                            REP Jane Bland                        Precinct 3                                             01 
00090010004000892000017000677000198000000000000000000000000000000000000000000000000000000000000000000REP       Justice, Supreme Court, Pl 6                            REP Jane Bland                        Precinct 4                                             01 
00090020001000194000012000136000046000000000000000000000000000000000000000000000000000000000000000000DEM       Justice, Supreme Court, Pl 6                            DEM Kathy Cheng                       Precinct 1                                             01 
00090020002000215000019000167000029000000000000000000000000000000000000000000000000000000000000000000DEM       Justice, Supreme Court, Pl 6                            DEM Kathy Cheng                       Precinct 2                                             01 
00090020003000209000015000151000043000000000000000000000000000000000000000000000000000000000000000000DEM       Justice, Supreme Court, Pl 6                            DEM Kathy Cheng                       Precinct 3                                             01 
00090020004000183000014000138000031000000000000000000000000000000000000000000000000000000000000000000DEM       Justice, Supreme Court, Pl 6                            DEM Kathy Cheng                       Precinct 4                                             01 
00100010001001204000016000953000235000000000000000000000000000000000000000000000000000000000000000000REP       Justice, Supreme Court, Pl 7                            REP Jeff Boyd                         Precinct 1                                             01 
00100010002001645000040001370000235000000000000000000000000000000000000000000000000000000000000000000REP       Justice, Supreme Court, Pl 7                            REP Jeff Boyd                         Precinct 2                                             01 
00100010003001125000028000882000215000000000000000000000000000000000000000000000000000000000000000000REP       Justice, Supreme Court, Pl 7                            REP Jeff Boyd                         Precinct 3                                             01 
00100010004000866000017000663000186000000000000000000000000000000000000000000000000000000000000000000REP       Justice, Supreme Court, Pl 7                            REP Jeff Boyd                         Precinct 4                                             01 
00100020001000196000011000140000045000000000000000000000000000000000000000000000000000000000000000000DEM       Justice, Supreme Court, Pl 7                            DEM Staci Williams                    Precinct 1                                             01 
00100020002000215000018000170000027000000000000000000000000000000000000000000000000000000000000000000DEM       Justice, Supreme Court, Pl 7                            DEM Staci Williams                    Precinct 2                                             01 
00100020003000204000016000151000037000000000000000000000000000000000000000000000000000000000000000000DEM       Justice, Supreme Court, Pl 7                            DEM Staci Williams                    Precinct 3                                             01 
00100020004000192000014000142000036000000000000000000000000000000000000000000000000000000000000000000DEM       Justice, Supreme Court, Pl 7                            DEM Staci Williams                    Precinct 4                                             01 
00100030001000030000000000022000008000000000000000000000000000000000000000000000000000000000000000000LIB       Justice, Supreme Court, Pl 7                            LIB William Bryan Strange III         Precinct 1                                             01 
00100030002000040000001000030000009000000000000000000000000000000000000000000000000000000000000000000LIB       Justice, Supreme Court, Pl 7                            LIB William Bryan Strange III         Precinct 2                                             01 
00100030003000022000000000010000012000000000000000000000000000000000000000000000000000000000000000000LIB       Justice, Supreme Court, Pl 7                            LIB William Bryan Strange III         Precinct 3                                             01 
00100030004000019000000000012000007000000000000000000000000000000000000000000000000000000000000000000LIB       Justice, Supreme Court, Pl 7                            LIB William Bryan Strange III         Precinct 4                                             01 
00110010001001191000016000940000235000000000000000000000000000000000000000000000000000000000000000000REP       Justice, Supreme Court, Pl 8                            REP Brett Busby                       Precinct 1                                             01 
00110010002001631000038001364000229000000000000000000000000000000000000000000000000000000000000000000REP       Justice, Supreme Court, Pl 8                            REP Brett Busby                       Precinct 2                                             01 
00110010003001114000029000876000209000000000000000000000000000000000000000000000000000000000000000000REP       Justice, Supreme Court, Pl 8                            REP Brett Busby                       Precinct 3                                             01 
00110010004000865000017000663000185000000000000000000000000000000000000000000000000000000000000000000REP       Justice, Supreme Court, Pl 8                            REP Brett Busby                       Precinct 4                                             01 
00110020001000203000011000148000044000000000000000000000000000000000000000000000000000000000000000000DEM       Justice, Supreme Court, Pl 8                            DEM Gisela D. Triana                  Precinct 1                                             01 
00110020002000222000019000174000029000000000000000000000000000000000000000000000000000000000000000000DEM       Justice, Supreme Court, Pl 8                            DEM Gisela D. Triana                  Precinct 2                                             01 
00110020003000206000015000149000042000000000000000000000000000000000000000000000000000000000000000000DEM       Justice, Supreme Court, Pl 8                            DEM Gisela D. Triana                  Precinct 3                                             01 
00110020004000196000014000143000039000000000000000000000000000000000000000000000000000000000000000000DEM       Justice, Supreme Court, Pl 8                            DEM Gisela D. Triana                  Precinct 4                                             01 
00110030001000034000000000026000008000000000000000000000000000000000000000000000000000000000000000000LIB       Justice, Supreme Court, Pl 8                            LIB Tom Oxford                        Precinct 1                                             01 
00110030002000045000001000032000012000000000000000000000000000000000000000000000000000000000000000000LIB       Justice, Supreme Court, Pl 8                            LIB Tom Oxford                        Precinct 2                                             01 
00110030003000030000000000017000013000000000000000000000000000000000000000000000000000000000000000000LIB       Justice, Supreme Court, Pl 8                            LIB Tom Oxford                        Precinct 3                                             01 
00110030004000018000000000011000007000000000000000000000000000000000000000000000000000000000000000000LIB       Justice, Supreme Court, Pl 8                            LIB Tom Oxford                        Precinct 4                                             01 
00120010001001216000016000959000241000000000000000000000000000000000000000000000000000000000000000000REP       Judge, Ct of Crim App, Pl 3                             REP Bert Richardson                   Precinct 1                                             01 
00120010002001661000040001385000236000000000000000000000000000000000000000000000000000000000000000000REP       Judge, Ct of Crim App, Pl 3                             REP Bert Richardson                   Precinct 2                                             01 
00120010003001138000027000890000221000000000000000000000000000000000000000000000000000000000000000000REP       Judge, Ct of Crim App, Pl 3                             REP Bert Richardson                   Precinct 3                                             01 
00120010004000878000017000670000191000000000000000000000000000000000000000000000000000000000000000000REP       Judge, Ct of Crim App, Pl 3                             REP Bert Richardson                   Precinct 4                                             01 
00120020001000209000011000152000046000000000000000000000000000000000000000000000000000000000000000000DEM       Judge, Ct of Crim App, Pl 3                             DEM Elizabeth Davis Frizell           Precinct 1                                             01 
00120020002000241000020000185000036000000000000000000000000000000000000000000000000000000000000000000DEM       Judge, Ct of Crim App, Pl 3                             DEM Elizabeth Davis Frizell           Precinct 2                                             01 
00120020003000214000017000153000044000000000000000000000000000000000000000000000000000000000000000000DEM       Judge, Ct of Crim App, Pl 3                             DEM Elizabeth Davis Frizell           Precinct 3                                             01 
00120020004000201000014000146000041000000000000000000000000000000000000000000000000000000000000000000DEM       Judge, Ct of Crim App, Pl 3                             DEM Elizabeth Davis Frizell           Precinct 4                                             01 
00130010001001224000015000965000244000000000000000000000000000000000000000000000000000000000000000000REP       Judge, Ct of Crim App, Pl 4                             REP Kevin Patrick Yeary               Precinct 1                                             01 
00130010002001670000040001390000240000000000000000000000000000000000000000000000000000000000000000000REP       Judge, Ct of Crim App, Pl 4                             REP Kevin Patrick Yeary               Precinct 2                                             01 
00130010003001133000028000884000221000000000000000000000000000000000000000000000000000000000000000000REP       Judge, Ct of Crim App, Pl 4                             REP Kevin Patrick Yeary               Precinct 3                                             01 
00130010004000881000016000671000194000000000000000000000000000000000000000000000000000000000000000000REP       Judge, Ct of Crim App, Pl 4                             REP Kevin Patrick Yeary               Precinct 4                                             01 
00130020001000197000011000144000042000000000000000000000000000000000000000000000000000000000000000000DEM       Judge, Ct of Crim App, Pl 4                             DEM Tina Clinton                      Precinct 1                                             01 
00130020002000227000020000175000032000000000000000000000000000000000000000000000000000000000000000000DEM       Judge, Ct of Crim App, Pl 4                             DEM Tina Clinton                      Precinct 2                                             01 
00130020003000212000014000154000044000000000000000000000000000000000000000000000000000000000000000000DEM       Judge, Ct of Crim App, Pl 4                             DEM Tina Clinton                      Precinct 3                                             01 
00130020004000192000014000142000036000000000000000000000000000000000000000000000000000000000000000000DEM       Judge, Ct of Crim App, Pl 4                             DEM Tina Clinton                      Precinct 4                                             01 
00140010001001226000016000966000244000000000000000000000000000000000000000000000000000000000000000000REP       Judge, Ct of Crim App, Pl 9                             REP David Newell                      Precinct 1                                             01 
00140010002001676000040001393000243000000000000000000000000000000000000000000000000000000000000000000REP       Judge, Ct of Crim App, Pl 9                             REP David Newell                      Precinct 2                                             01 
00140010003001136000028000885000223000000000000000000000000000000000000000000000000000000000000000000REP       Judge, Ct of Crim App, Pl 9                             REP David Newell                      Precinct 3                                             01 
00140010004000885000017000675000193000000000000000000000000000000000000000000000000000000000000000000REP       Judge, Ct of Crim App, Pl 9                             REP David Newell                      Precinct 4                                             01 
00140020001000197000011000143000043000000000000000000000000000000000000000000000000000000000000000000DEM       Judge, Ct of Crim App, Pl 9                             DEM Brandon Birmingham                Precinct 1                                             01 
00140020002000220000018000174000028000000000000000000000000000000000000000000000000000000000000000000DEM       Judge, Ct of Crim App, Pl 9                             DEM Brandon Birmingham                Precinct 2                                             01 
00140020003000215000015000159000041000000000000000000000000000000000000000000000000000000000000000000DEM       Judge, Ct of Crim App, Pl 9                             DEM Brandon Birmingham                Precinct 3                                             01 
00140020004000190000014000139000037000000000000000000000000000000000000000000000000000000000000000000DEM       Judge, Ct of Crim App, Pl 9                             DEM Brandon Birmingham                Precinct 4                                             01 
00150010001001235000016000970000249000000000000000000000000000000000000000000000000000000000000000000REP       Member, State BoE, Dist 15                              REP Jay Johnson                       Precinct 1                                             01 
00150010002001672000041001392000239000000000000000000000000000000000000000000000000000000000000000000REP       Member, State BoE, Dist 15                              REP Jay Johnson                       Precinct 2                                             01 
00150010003001136000029000888000219000000000000000000000000000000000000000000000000000000000000000000REP       Member, State BoE, Dist 15                              REP Jay Johnson                       Precinct 3                                             01 
00150010004000882000015000675000192000000000000000000000000000000000000000000000000000000000000000000REP       Member, State BoE, Dist 15                              REP Jay Johnson                       Precinct 4                                             01 
00150020001000194000012000144000038000000000000000000000000000000000000000000000000000000000000000000DEM       Member, State BoE, Dist 15                              DEM John Betancourt                   Precinct 1                                             01 
00150020002000226000019000174000033000000000000000000000000000000000000000000000000000000000000000000DEM       Member, State BoE, Dist 15                              DEM John Betancourt                   Precinct 2                                             01 
00150020003000215000015000156000044000000000000000000000000000000000000000000000000000000000000000000DEM       Member, State BoE, Dist 15                              DEM John Betancourt                   Precinct 3                                             01 
00150020004000191000015000138000038000000000000000000000000000000000000000000000000000000000000000000DEM       Member, State BoE, Dist 15                              DEM John Betancourt                   Precinct 4                                             01 
00160010001001364000021001068000275000000000000000000000000000000000000000000000000000000000000000000REP       State Representative, Dist 81                           REP Brooks Landgraf                   Precinct 1                                             01 
00160010002001846000052001532000262000000000000000000000000000000000000000000000000000000000000000000REP       State Representative, Dist 81                           REP Brooks Landgraf                   Precinct 2                                             01 
00160010003001292000032000999000261000000000000000000000000000000000000000000000000000000000000000000REP       State Representative, Dist 81                           REP Brooks Landgraf                   Precinct 3                                             01 
00160010004001031000023000781000227000000000000000000000000000000000000000000000000000000000000000000REP       State Representative, Dist 81                           REP Brooks Landgraf                   Precinct 4                                             01 
00170010001001205000016000956000233000000000000000000000000000000000000000000000000000000000000000000REP       Chief Justice, 8th Ct of App Dist                       REP Jeff Alley                        Precinct 1                                             01 
00170010002001651000040001380000231000000000000000000000000000000000000000000000000000000000000000000REP       Chief Justice, 8th Ct of App Dist                       REP Jeff Alley                        Precinct 2                                             01 
00170010003001104000028000862000214000000000000000000000000000000000000000000000000000000000000000000REP       Chief Justice, 8th Ct of App Dist                       REP Jeff Alley                        Precinct 3                                             01 
00170010004000860000018000653000189000000000000000000000000000000000000000000000000000000000000000000REP       Chief Justice, 8th Ct of App Dist                       REP Jeff Alley                        Precinct 4                                             01 
00170020001000218000011000153000054000000000000000000000000000000000000000000000000000000000000000000DEM       Chief Justice, 8th Ct of App Dist                       DEM Yvonne Rodriguez                  Precinct 1                                             01 
00170020002000241000020000183000038000000000000000000000000000000000000000000000000000000000000000000DEM       Chief Justice, 8th Ct of App Dist                       DEM Yvonne Rodriguez                  Precinct 2                                             01 
00170020003000243000014000178000051000000000000000000000000000000000000000000000000000000000000000000DEM       Chief Justice, 8th Ct of App Dist                       DEM Yvonne Rodriguez                  Precinct 3                                             01 
00170020004000210000013000156000041000000000000000000000000000000000000000000000000000000000000000000DEM       Chief Justice, 8th Ct of App Dist                       DEM Yvonne Rodriguez                  Precinct 4                                             01 
