00010010001003521000000000000000000000000000000000000000000000000000000000000000000000000000000000000          REGISTERED VOTERS - TOTAL                               REGISTERED VOTERS - TOTAL             Precinct 1001                                          00 
00010010002002625000000000000000000000000000000000000000000000000000000000000000000000000000000000000          REGISTERED VOTERS - TOTAL                               REGISTERED VOTERS - TOTAL             Precinct 1002                                          00 
00010010003003385000000000000000000000000000000000000000000000000000000000000000000000000000000000000          REGISTERED VOTERS - TOTAL                               REGISTERED VOTERS - TOTAL             Precinct 1003                                          00 
00010010004002886000000000000000000000000000000000000000000000000000000000000000000000000000000000000          REGISTERED VOTERS - TOTAL                               REGISTERED VOTERS - TOTAL             Precinct 1004                                          00 
00010010005003503000000000000000000000000000000000000000000000000000000000000000000000000000000000000          REGISTERED VOTERS - TOTAL                               REGISTERED VOTERS - TOTAL             Precinct 1022                                          00 
00010010006002839000000000000000000000000000000000000000000000000000000000000000000000000000000000000          REGISTERED VOTERS - TOTAL                               REGISTERED VOTERS - TOTAL             Precinct 2005                                          00 
00010010007001661000000000000000000000000000000000000000000000000000000000000000000000000000000000000          REGISTERED VOTERS - TOTAL                               REGISTERED VOTERS - TOTAL             Precinct 2006                                          00 
00010010008002263000000000000000000000000000000000000000000000000000000000000000000000000000000000000          REGISTERED VOTERS - TOTAL                               REGISTERED VOTERS - TOTAL             Precinct 2007                                          00 
00010010009001039000000000000000000000000000000000000000000000000000000000000000000000000000000000000          REGISTERED VOTERS - TOTAL                               REGISTERED VOTERS - TOTAL             Precinct 2008                                          00 
00010010010001479000000000000000000000000000000000000000000000000000000000000000000000000000000000000          REGISTERED VOTERS - TOTAL                               REGISTERED VOTERS - TOTAL             Precinct 2009                                          00 
00010010011001507000000000000000000000000000000000000000000000000000000000000000000000000000000000000          REGISTERED VOTERS - TOTAL                               REGISTERED VOTERS - TOTAL             Precinct 2010                                          00 
00010010012002654000000000000000000000000000000000000000000000000000000000000000000000000000000000000          REGISTERED VOTERS - TOTAL                               REGISTERED VOTERS - TOTAL             Precinct 2011                                          00 
00010010013001025000000000000000000000000000000000000000000000000000000000000000000000000000000000000          REGISTERED VOTERS - TOTAL                               REGISTERED VOTERS - TOTAL             Precinct 3012                                          00 
00010010014001571000000000000000000000000000000000000000000000000000000000000000000000000000000000000          REGISTERED VOTERS - TOTAL                               REGISTERED VOTERS - TOTAL             Precinct 3013                                          00 
00010010015002676000000000000000000000000000000000000000000000000000000000000000000000000000000000000          REGISTERED VOTERS - TOTAL                               REGISTERED VOTERS - TOTAL             Precinct 3014                                          00 
00010010016002928000000000000000000000000000000000000000000000000000000000000000000000000000000000000          REGISTERED VOTERS - TOTAL                               REGISTERED VOTERS - TOTAL             Precinct 3015                                          00 
00010010017002895000000000000000000000000000000000000000000000000000000000000000000000000000000000000          REGISTERED VOTERS - TOTAL                               REGISTERED VOTERS - TOTAL             Precinct 3016                                          00 
00010010018002983000000000000000000000000000000000000000000000000000000000000000000000000000000000000          REGISTERED VOTERS - TOTAL                               REGISTERED VOTERS - TOTAL             Precinct 4017                                          00 
00010010019000709000000000000000000000000000000000000000000000000000000000000000000000000000000000000          REGISTERED VOTERS - TOTAL                               REGISTERED VOTERS - TOTAL             Precinct 4018                                          00 
00010010020002615000000000000000000000000000000000000000000000000000000000000000000000000000000000000          REGISTERED VOTERS - TOTAL                               REGISTERED VOTERS - TOTAL             Precinct 4019                                          00 
00010010021004002000000000000000000000000000000000000000000000000000000000000000000000000000000000000          REGISTERED VOTERS - TOTAL                               REGISTERED VOTERS - TOTAL             Precinct 4020                                          00 
00010010022001437000000000000000000000000000000000000000000000000000000000000000000000000000000000000          REGISTERED VOTERS - TOTAL                               REGISTERED VOTERS - TOTAL             Precinct 4021                                          00 
00020010001002768000339002117000312000000000000000000000000000000000000000000000000000000000000000000          BALLOTS CAST - TOTAL                                    BALLOTS CAST - TOTAL                  Precinct 1001                                          00 
00020010002001767000298001279000190000000000000000000000000000000000000000000000000000000000000000000          BALLOTS CAST - TOTAL                                    BALLOTS CAST - TOTAL                  Precinct 1002                                          00 
00020010003002588000359001992000237000000000000000000000000000000000000000000000000000000000000000000          BALLOTS CAST - TOTAL                                    BALLOTS CAST - TOTAL                  Precinct 1003                                          00 
00020010004001683000173001189000321000000000000000000000000000000000000000000000000000000000000000000          BALLOTS CAST - TOTAL                                    BALLOTS CAST - TOTAL                  Precinct 1004                                          00 
00020010005002621000385002005000231000000000000000000000000000000000000000000000000000000000000000000          BALLOTS CAST - TOTAL                                    BALLOTS CAST - TOTAL                  Precinct 1022                                          00 
00020010006001966000269001441000256000000000000000000000000000000000000000000000000000000000000000000          BALLOTS CAST - TOTAL                                    BALLOTS CAST - TOTAL                  Precinct 2005                                          00 
00020010007001239000131000890000218000000000000000000000000000000000000000000000000000000000000000000          BALLOTS CAST - TOTAL                                    BALLOTS CAST - TOTAL                  Precinct 2006                                          00 
00020010008001755000182001197000376000000000000000000000000000000000000000000000000000000000000000000          BALLOTS CAST - TOTAL                                    BALLOTS CAST - TOTAL                  Precinct 2007                                          00 
00020010009000806000084000638000084000000000000000000000000000000000000000000000000000000000000000000          BALLOTS CAST - TOTAL                                    BALLOTS CAST - TOTAL                  Precinct 2008                                          00 
00020010010001032000128000766000138000000000000000000000000000000000000000000000000000000000000000000          BALLOTS CAST - TOTAL                                    BALLOTS CAST - TOTAL                  Precinct 2009                                          00 
00020010011001120000129000689000302000000000000000000000000000000000000000000000000000000000000000000          BALLOTS CAST - TOTAL                                    BALLOTS CAST - TOTAL                  Precinct 2010                                          00 
00020010012002008000284001425000299000000000000000000000000000000000000000000000000000000000000000000          BALLOTS CAST - TOTAL                                    BALLOTS CAST - TOTAL                  Precinct 2011                                          00 
00020010013000768000075000548000145000000000000000000000000000000000000000000000000000000000000000000          BALLOTS CAST - TOTAL                                    BALLOTS CAST - TOTAL                  Precinct 3012                                          00 
00020010014001184000147000699000338000000000000000000000000000000000000000000000000000000000000000000          BALLOTS CAST - TOTAL                                    BALLOTS CAST - TOTAL                  Precinct 3013                                          00 
00020010015001682000152001280000250000000000000000000000000000000000000000000000000000000000000000000          BALLOTS CAST - TOTAL                                    BALLOTS CAST - TOTAL                  Precinct 3014                                          00 
00020010016001770000162001348000260000000000000000000000000000000000000000000000000000000000000000000          BALLOTS CAST - TOTAL                                    BALLOTS CAST - TOTAL                  Precinct 3015                                          00 
00020010017001971000205001499000267000000000000000000000000000000000000000000000000000000000000000000          BALLOTS CAST - TOTAL                                    BALLOTS CAST - TOTAL                  Precinct 3016                                          00 
00020010018002112000239001649000224000000000000000000000000000000000000000000000000000000000000000000          BALLOTS CAST - TOTAL                                    BALLOTS CAST - TOTAL                  Precinct 4017                                          00 
00020010019000528000048000413000067000000000000000000000000000000000000000000000000000000000000000000          BALLOTS CAST - TOTAL                                    BALLOTS CAST - TOTAL                  Precinct 4018                                          00 
00020010020001862000211001374000277000000000000000000000000000000000000000000000000000000000000000000          BALLOTS CAST - TOTAL                                    BALLOTS CAST - TOTAL                  Precinct 4019                                          00 
00020010021002673000327002032000314000000000000000000000000000000000000000000000000000000000000000000          BALLOTS CAST - TOTAL                                    BALLOTS CAST - TOTAL                  Precinct 4020                                          00 
00020010022001044000133000604000307000000000000000000000000000000000000000000000000000000000000000000          BALLOTS CAST - TOTAL                                    BALLOTS CAST - TOTAL                  Precinct 4021                                          00 
00030010001000002000000000002000000000000000000000000000000000000000000000000000000000000000000000000          BALLOTS CAST - BLANK                                    BALLOTS CAST - BLANK                  Precinct 1001                                          00 
00030010002000002000000000002000000000000000000000000000000000000000000000000000000000000000000000000          BALLOTS CAST - BLANK                                    BALLOTS CAST - BLANK                  Precinct 1002                                          00 
00030010003000004000000000004000000000000000000000000000000000000000000000000000000000000000000000000          BALLOTS CAST - BLANK                                    BALLOTS CAST - BLANK                  Precinct 1003                                          00 
00030010004000000000000000000000000000000000000000000000000000000000000000000000000000000000000000000          BALLOTS CAST - BLANK                                    BALLOTS CAST - BLANK                  Precinct 1004                                          00 
00030010005000003000001000002000000000000000000000000000000000000000000000000000000000000000000000000          BALLOTS CAST - BLANK                                    BALLOTS CAST - BLANK                  Precinct 1022                                          00 
00030010006000005000003000002000000000000000000000000000000000000000000000000000000000000000000000000          BALLOTS CAST - BLANK                                    BALLOTS CAST - BLANK                  Precinct 2005                                          00 
00030010007000001000000000001000000000000000000000000000000000000000000000000000000000000000000000000          BALLOTS CAST - BLANK                                    BALLOTS CAST - BLANK                  Precinct 2006                                          00 
00030010008000001000000000001000000000000000000000000000000000000000000000000000000000000000000000000          BALLOTS CAST - BLANK                                    BALLOTS CAST - BLANK                  Precinct 2007                                          00 
00030010009000002000001000001000000000000000000000000000000000000000000000000000000000000000000000000          BALLOTS CAST - BLANK                                    BALLOTS CAST - BLANK                  Precinct 2008                                          00 
00030010010000002000000000002000000000000000000000000000000000000000000000000000000000000000000000000          BALLOTS CAST - BLANK                                    BALLOTS CAST - BLANK                  Precinct 2009                                          00 
00030010011000001000000000001000000000000000000000000000000000000000000000000000000000000000000000000          BALLOTS CAST - BLANK                                    BALLOTS CAST - BLANK                  Precinct 2010                                          00 
00030010012000002000001000001000000000000000000000000000000000000000000000000000000000000000000000000          BALLOTS CAST - BLANK                                    BALLOTS CAST - BLANK                  Precinct 2011                                          00 
00030010013000002000000000002000000000000000000000000000000000000000000000000000000000000000000000000          BALLOTS CAST - BLANK                                    BALLOTS CAST - BLANK                  Precinct 3012                                          00 
00030010014000002000000000002000000000000000000000000000000000000000000000000000000000000000000000000          BALLOTS CAST - BLANK                                    BALLOTS CAST - BLANK                  Precinct 3013                                          00 
00030010015000003000000000003000000000000000000000000000000000000000000000000000000000000000000000000          BALLOTS CAST - BLANK                                    BALLOTS CAST - BLANK                  Precinct 3014                                          00 
00030010016000002000000000002000000000000000000000000000000000000000000000000000000000000000000000000          BALLOTS CAST - BLANK                                    BALLOTS CAST - BLANK                  Precinct 3015                                          00 
00030010017000005000001000004000000000000000000000000000000000000000000000000000000000000000000000000          BALLOTS CAST - BLANK                                    BALLOTS CAST - BLANK                  Precinct 3016                                          00 
00030010018000004000000000004000000000000000000000000000000000000000000000000000000000000000000000000          BALLOTS CAST - BLANK                                    BALLOTS CAST - BLANK                  Precinct 4017                                          00 
00030010019000000000000000000000000000000000000000000000000000000000000000000000000000000000000000000          BALLOTS CAST - BLANK                                    BALLOTS CAST - BLANK                  Precinct 4018                                          00 
00030010020000001000000000001000000000000000000000000000000000000000000000000000000000000000000000000          BALLOTS CAST - BLANK                                    BALLOTS CAST - BLANK                  Precinct 4019                                          00 
00030010021000000000000000000000000000000000000000000000000000000000000000000000000000000000000000000          BALLOTS CAST - BLANK                                    BALLOTS CAST - BLANK                  Precinct 4020                                          00 
00030010022000001000000000000000001000000000000000000000000000000000000000000000000000000000000000000          BALLOTS CAST - BLANK                                    BALLOTS CAST - BLANK                  Precinct 4021                                          00 
00040010001001676000113001323000240000000000000000000000000000000000000000000000000000000000000000000REP       President / Vice-President                              REP Donald J. Trump / Michael R. PencePrecinct 1001                                          01 
00040010002000812000093000612000107000000000000000000000000000000000000000000000000000000000000000000REP       President / Vice-President                              REP Donald J. Trump / Michael R. PencePrecinct 1002                                          01 
00040010003001392000126001106000160000000000000000000000000000000000000000000000000000000000000000000REP       President / Vice-President                              REP Donald J. Trump / Michael R. PencePrecinct 1003                                          01 
00040010004000869000057000626000186000000000000000000000000000000000000000000000000000000000000000000REP       President / Vice-President                              REP Donald J. Trump / Michael R. PencePrecinct 1004                                          01 
00040010005001502000154001189000159000000000000000000000000000000000000000000000000000000000000000000REP       President / Vice-President                              REP Donald J. Trump / Michael R. PencePrecinct 1022                                          01 
00040010006001119000090000863000166000000000000000000000000000000000000000000000000000000000000000000REP       President / Vice-President                              REP Donald J. Trump / Michael R. PencePrecinct 2005                                          01 
00040010007000804000046000598000160000000000000000000000000000000000000000000000000000000000000000000REP       President / Vice-President                              REP Donald J. Trump / Michael R. PencePrecinct 2006                                          01 
00040010008001285000094000884000307000000000000000000000000000000000000000000000000000000000000000000REP       President / Vice-President                              REP Donald J. Trump / Michael R. PencePrecinct 2007                                          01 
00040010009000541000031000444000066000000000000000000000000000000000000000000000000000000000000000000REP       President / Vice-President                              REP Donald J. Trump / Michael R. PencePrecinct 2008                                          01 
00040010010000640000049000488000103000000000000000000000000000000000000000000000000000000000000000000REP       President / Vice-President                              REP Donald J. Trump / Michael R. PencePrecinct 2009                                          01 
00040010011000756000050000456000250000000000000000000000000000000000000000000000000000000000000000000REP       President / Vice-President                              REP Donald J. Trump / Michael R. PencePrecinct 2010                                          01 
00040010012001202000107000880000215000000000000000000000000000000000000000000000000000000000000000000REP       President / Vice-President                              REP Donald J. Trump / Michael R. PencePrecinct 2011                                          01 
00040010013000553000037000409000107000000000000000000000000000000000000000000000000000000000000000000REP       President / Vice-President                              REP Donald J. Trump / Michael R. PencePrecinct 3012                                          01 
00040010014000801000056000474000271000000000000000000000000000000000000000000000000000000000000000000REP       President / Vice-President                              REP Donald J. Trump / Michael R. PencePrecinct 3013                                          01 
00040010015000804000050000640000114000000000000000000000000000000000000000000000000000000000000000000REP       President / Vice-President                              REP Donald J. Trump / Michael R. PencePrecinct 3014                                          01 
00040010016000697000040000539000118000000000000000000000000000000000000000000000000000000000000000000REP       President / Vice-President                              REP Donald J. Trump / Michael R. PencePrecinct 3015                                          01 
00040010017001021000066000788000167000000000000000000000000000000000000000000000000000000000000000000REP       President / Vice-President                              REP Donald J. Trump / Michael R. PencePrecinct 3016                                          01 
00040010018000836000075000652000109000000000000000000000000000000000000000000000000000000000000000000REP       President / Vice-President                              REP Donald J. Trump / Michael R. PencePrecinct 4017                                          01 
00040010019000343000020000271000052000000000000000000000000000000000000000000000000000000000000000000REP       President / Vice-President                              REP Donald J. Trump / Michael R. PencePrecinct 4018                                          01 
00040010020001000000059000750000191000000000000000000000000000000000000000000000000000000000000000000REP       President / Vice-President                              REP Donald J. Trump / Michael R. PencePrecinct 4019                                          01 
00040010021001193000105000940000148000000000000000000000000000000000000000000000000000000000000000000REP       President / Vice-President                              REP Donald J. Trump / Michael R. PencePrecinct 4020                                          01 
00040010022000670000059000381000230000000000000000000000000000000000000000000000000000000000000000000REP       President / Vice-President                              REP Donald J. Trump / Michael R. PencePrecinct 4021                                          01 
00040020001001024000221000739000064000000000000000000000000000000000000000000000000000000000000000000DEM       President / Vice-President                              DEM Joseph R. Biden / Kamala D. HarrisPrecinct 1001                                          01 
00040020002000917000200000640000077000000000000000000000000000000000000000000000000000000000000000000DEM       President / Vice-President                              DEM Joseph R. Biden / Kamala D. HarrisPrecinct 1002                                          01 
00040020003001131000225000842000064000000000000000000000000000000000000000000000000000000000000000000DEM       President / Vice-President                              DEM Joseph R. Biden / Kamala D. HarrisPrecinct 1003                                          01 
00040020004000760000110000532000118000000000000000000000000000000000000000000000000000000000000000000DEM       President / Vice-President                              DEM Joseph R. Biden / Kamala D. HarrisPrecinct 1004                                          01 
00040020005001049000222000762000065000000000000000000000000000000000000000000000000000000000000000000DEM       President / Vice-President                              DEM Joseph R. Biden / Kamala D. HarrisPrecinct 1022                                          01 
00040020006000806000169000556000081000000000000000000000000000000000000000000000000000000000000000000DEM       President / Vice-President                              DEM Joseph R. Biden / Kamala D. HarrisPrecinct 2005                                          01 
00040020007000409000085000275000049000000000000000000000000000000000000000000000000000000000000000000DEM       President / Vice-President                              DEM Joseph R. Biden / Kamala D. HarrisPrecinct 2006                                          01 
00040020008000443000086000295000062000000000000000000000000000000000000000000000000000000000000000000DEM       President / Vice-President                              DEM Joseph R. Biden / Kamala D. HarrisPrecinct 2007                                          01 
00040020009000244000052000174000018000000000000000000000000000000000000000000000000000000000000000000DEM       President / Vice-President                              DEM Joseph R. Biden / Kamala D. HarrisPrecinct 2008                                          01 
00040020010000370000079000262000029000000000000000000000000000000000000000000000000000000000000000000DEM       President / Vice-President                              DEM Joseph R. Biden / Kamala D. HarrisPrecinct 2009                                          01 
00040020011000338000077000217000044000000000000000000000000000000000000000000000000000000000000000000DEM       President / Vice-President                              DEM Joseph R. Biden / Kamala D. HarrisPrecinct 2010                                          01 
00040020012000758000173000513000072000000000000000000000000000000000000000000000000000000000000000000DEM       President / Vice-President                              DEM Joseph R. Biden / Kamala D. HarrisPrecinct 2011                                          01 
00040020013000187000036000119000032000000000000000000000000000000000000000000000000000000000000000000DEM       President / Vice-President                              DEM Joseph R. Biden / Kamala D. HarrisPrecinct 3012                                          01 
00040020014000346000088000202000056000000000000000000000000000000000000000000000000000000000000000000DEM       President / Vice-President                              DEM Joseph R. Biden / Kamala D. HarrisPrecinct 3013                                          01 
00040020015000843000100000619000124000000000000000000000000000000000000000000000000000000000000000000DEM       President / Vice-President                              DEM Joseph R. Biden / Kamala D. HarrisPrecinct 3014                                          01 
00040020016001032000120000781000131000000000000000000000000000000000000000000000000000000000000000000DEM       President / Vice-President                              DEM Joseph R. Biden / Kamala D. HarrisPrecinct 3015                                          01 
00040020017000884000137000660000087000000000000000000000000000000000000000000000000000000000000000000DEM       President / Vice-President                              DEM Joseph R. Biden / Kamala D. HarrisPrecinct 3016                                          01 
00040020018001209000160000944000105000000000000000000000000000000000000000000000000000000000000000000DEM       President / Vice-President                              DEM Joseph R. Biden / Kamala D. HarrisPrecinct 4017                                          01 
00040020019000171000025000135000011000000000000000000000000000000000000000000000000000000000000000000DEM       President / Vice-President                              DEM Joseph R. Biden / Kamala D. HarrisPrecinct 4018                                          01 
00040020020000814000146000598000070000000000000000000000000000000000000000000000000000000000000000000DEM       President / Vice-President                              DEM Joseph R. Biden / Kamala D. HarrisPrecinct 4019                                          01 
00040020021001402000214001039000149000000000000000000000000000000000000000000000000000000000000000000DEM       President / Vice-President                              DEM Joseph R. Biden / Kamala D. HarrisPrecinct 4020                                          01 
00040020022000337000069000205000063000000000000000000000000000000000000000000000000000000000000000000DEM       President / Vice-President                              DEM Joseph R. Biden / Kamala D. HarrisPrecinct 4021                                          01 
00040030001000046000003000037000006000000000000000000000000000000000000000000000000000000000000000000LIB       President / Vice-President                              LIB Jo Jorgensen / Jeremy "Spike" CohePrecinct 1001                                          01 
00040030002000024000002000017000005000000000000000000000000000000000000000000000000000000000000000000LIB       President / Vice-President                              LIB Jo Jorgensen / Jeremy "Spike" CohePrecinct 1002                                          01 
00040030003000027000003000016000008000000000000000000000000000000000000000000000000000000000000000000LIB       President / Vice-President                              LIB Jo Jorgensen / Jeremy "Spike" CohePrecinct 1003                                          01 
00040030004000025000002000018000005000000000000000000000000000000000000000000000000000000000000000000LIB       President / Vice-President                              LIB Jo Jorgensen / Jeremy "Spike" CohePrecinct 1004                                          01 
00040030005000046000002000039000005000000000000000000000000000000000000000000000000000000000000000000LIB       President / Vice-President                              LIB Jo Jorgensen / Jeremy "Spike" CohePrecinct 1022                                          01 
00040030006000016000001000011000004000000000000000000000000000000000000000000000000000000000000000000LIB       President / Vice-President                              LIB Jo Jorgensen / Jeremy "Spike" CohePrecinct 2005                                          01 
00040030007000015000000000011000004000000000000000000000000000000000000000000000000000000000000000000LIB       President / Vice-President                              LIB Jo Jorgensen / Jeremy "Spike" CohePrecinct 2006                                          01 
00040030008000017000001000010000006000000000000000000000000000000000000000000000000000000000000000000LIB       President / Vice-President                              LIB Jo Jorgensen / Jeremy "Spike" CohePrecinct 2007                                          01 
00040030009000008000000000008000000000000000000000000000000000000000000000000000000000000000000000000LIB       President / Vice-President                              LIB Jo Jorgensen / Jeremy "Spike" CohePrecinct 2008                                          01 
00040030010000016000000000010000006000000000000000000000000000000000000000000000000000000000000000000LIB       President / Vice-President                              LIB Jo Jorgensen / Jeremy "Spike" CohePrecinct 2009                                          01 
00040030011000015000001000011000003000000000000000000000000000000000000000000000000000000000000000000LIB       President / Vice-President                              LIB Jo Jorgensen / Jeremy "Spike" CohePrecinct 2010                                          01 
00040030012000029000001000021000007000000000000000000000000000000000000000000000000000000000000000000LIB       President / Vice-President                              LIB Jo Jorgensen / Jeremy "Spike" CohePrecinct 2011                                          01 
00040030013000016000001000012000003000000000000000000000000000000000000000000000000000000000000000000LIB       President / Vice-President                              LIB Jo Jorgensen / Jeremy "Spike" CohePrecinct 3012                                          01 
00040030014000024000002000014000008000000000000000000000000000000000000000000000000000000000000000000LIB       President / Vice-President                              LIB Jo Jorgensen / Jeremy "Spike" CohePrecinct 3013                                          01 
00040030015000020000000000011000009000000000000000000000000000000000000000000000000000000000000000000LIB       President / Vice-President                              LIB Jo Jorgensen / Jeremy "Spike" CohePrecinct 3014                                          01 
00040030016000020000000000014000006000000000000000000000000000000000000000000000000000000000000000000LIB       President / Vice-President                              LIB Jo Jorgensen / Jeremy "Spike" CohePrecinct 3015                                          01 
00040030017000032000001000026000005000000000000000000000000000000000000000000000000000000000000000000LIB       President / Vice-President                              LIB Jo Jorgensen / Jeremy "Spike" CohePrecinct 3016                                          01 
00040030018000038000001000031000006000000000000000000000000000000000000000000000000000000000000000000LIB       President / Vice-President                              LIB Jo Jorgensen / Jeremy "Spike" CohePrecinct 4017                                          01 
00040030019000005000000000005000000000000000000000000000000000000000000000000000000000000000000000000LIB       President / Vice-President                              LIB Jo Jorgensen / Jeremy "Spike" CohePrecinct 4018                                          01 
00040030020000027000004000013000010000000000000000000000000000000000000000000000000000000000000000000LIB       President / Vice-President                              LIB Jo Jorgensen / Jeremy "Spike" CohePrecinct 4019                                          01 
00040030021000049000003000035000011000000000000000000000000000000000000000000000000000000000000000000LIB       President / Vice-President                              LIB Jo Jorgensen / Jeremy "Spike" CohePrecinct 4020                                          01 
00040030022000016000001000008000007000000000000000000000000000000000000000000000000000000000000000000LIB       President / Vice-President                              LIB Jo Jorgensen / Jeremy "Spike" CohePrecinct 4021                                          01 
00040040001000005000001000004000000000000000000000000000000000000000000000000000000000000000000000000GRN       President / Vice-President                              GRN Howie Hawkins / Angela Walker     Precinct 1001                                          01 
00040040002000004000000000003000001000000000000000000000000000000000000000000000000000000000000000000GRN       President / Vice-President                              GRN Howie Hawkins / Angela Walker     Precinct 1002                                          01 
00040040003000012000000000009000003000000000000000000000000000000000000000000000000000000000000000000GRN       President / Vice-President                              GRN Howie Hawkins / Angela Walker     Precinct 1003                                          01 
00040040004000009000000000007000002000000000000000000000000000000000000000000000000000000000000000000GRN       President / Vice-President                              GRN Howie Hawkins / Angela Walker     Precinct 1004                                          01 
00040040005000007000002000004000001000000000000000000000000000000000000000000000000000000000000000000GRN       President / Vice-President                              GRN Howie Hawkins / Angela Walker     Precinct 1022                                          01 
00040040006000007000002000004000001000000000000000000000000000000000000000000000000000000000000000000GRN       President / Vice-President                              GRN Howie Hawkins / Angela Walker     Precinct 2005                                          01 
00040040007000004000000000003000001000000000000000000000000000000000000000000000000000000000000000000GRN       President / Vice-President                              GRN Howie Hawkins / Angela Walker     Precinct 2006                                          01 
00040040008000006000001000005000000000000000000000000000000000000000000000000000000000000000000000000GRN       President / Vice-President                              GRN Howie Hawkins / Angela Walker     Precinct 2007                                          01 
00040040009000005000000000005000000000000000000000000000000000000000000000000000000000000000000000000GRN       President / Vice-President                              GRN Howie Hawkins / Angela Walker     Precinct 2008                                          01 
00040040010000003000000000003000000000000000000000000000000000000000000000000000000000000000000000000GRN       President / Vice-President                              GRN Howie Hawkins / Angela Walker     Precinct 2009                                          01 
00040040011000006000000000003000003000000000000000000000000000000000000000000000000000000000000000000GRN       President / Vice-President                              GRN Howie Hawkins / Angela Walker     Precinct 2010                                          01 
00040040012000005000001000002000002000000000000000000000000000000000000000000000000000000000000000000GRN       President / Vice-President                              GRN Howie Hawkins / Angela Walker     Precinct 2011                                          01 
00040040013000002000000000002000000000000000000000000000000000000000000000000000000000000000000000000GRN       President / Vice-President                              GRN Howie Hawkins / Angela Walker     Precinct 3012                                          01 
00040040014000004000001000003000000000000000000000000000000000000000000000000000000000000000000000000GRN       President / Vice-President                              GRN Howie Hawkins / Angela Walker     Precinct 3013                                          01 
00040040015000006000000000004000002000000000000000000000000000000000000000000000000000000000000000000GRN       President / Vice-President                              GRN Howie Hawkins / Angela Walker     Precinct 3014                                          01 
00040040016000006000000000005000001000000000000000000000000000000000000000000000000000000000000000000GRN       President / Vice-President                              GRN Howie Hawkins / Angela Walker     Precinct 3015                                          01 
00040040017000007000000000006000001000000000000000000000000000000000000000000000000000000000000000000GRN       President / Vice-President                              GRN Howie Hawkins / Angela Walker     Precinct 3016                                          01 
00040040018000008000001000006000001000000000000000000000000000000000000000000000000000000000000000000GRN       President / Vice-President                              GRN Howie Hawkins / Angela Walker     Precinct 4017                                          01 
00040040019000001000000000001000000000000000000000000000000000000000000000000000000000000000000000000GRN       President / Vice-President                              GRN Howie Hawkins / Angela Walker     Precinct 4018                                          01 
00040040020000010000001000007000002000000000000000000000000000000000000000000000000000000000000000000GRN       President / Vice-President                              GRN Howie Hawkins / Angela Walker     Precinct 4019                                          01 
00040040021000008000003000005000000000000000000000000000000000000000000000000000000000000000000000000GRN       President / Vice-President                              GRN Howie Hawkins / Angela Walker     Precinct 4020                                          01 
00040040022000003000000000003000000000000000000000000000000000000000000000000000000000000000000000000GRN       President / Vice-President                              GRN Howie Hawkins / Angela Walker     Precinct 4021                                          01 
00040060001000005000000000005000000000000000000000000000000000000000000000000000000000000000000000000NON       President / Vice-President                              Write-in                              Precinct 1001                                          01 
00040060002000003000001000002000000000000000000000000000000000000000000000000000000000000000000000000NON       President / Vice-President                              Write-in                              Precinct 1002                                          01 
00040060003000008000001000006000001000000000000000000000000000000000000000000000000000000000000000000NON       President / Vice-President                              Write-in                              Precinct 1003                                          01 
00040060004000005000000000004000001000000000000000000000000000000000000000000000000000000000000000000NON       President / Vice-President                              Write-in                              Precinct 1004                                          01 
00040060005000011000002000009000000000000000000000000000000000000000000000000000000000000000000000000NON       President / Vice-President                              Write-in                              Precinct 1022                                          01 
00040060006000002000000000001000001000000000000000000000000000000000000000000000000000000000000000000NON       President / Vice-President                              Write-in                              Precinct 2005                                          01 
00040060007000002000000000002000000000000000000000000000000000000000000000000000000000000000000000000NON       President / Vice-President                              Write-in                              Precinct 2006                                          01 
00040060008000001000000000001000000000000000000000000000000000000000000000000000000000000000000000000NON       President / Vice-President                              Write-in                              Precinct 2007                                          01 
00040060009000003000000000003000000000000000000000000000000000000000000000000000000000000000000000000NON       President / Vice-President                              Write-in                              Precinct 2008                                          01 
00040060010000001000000000001000000000000000000000000000000000000000000000000000000000000000000000000NON       President / Vice-President                              Write-in                              Precinct 2009                                          01 
00040060011000001000001000000000000000000000000000000000000000000000000000000000000000000000000000000NON       President / Vice-President                              Write-in                              Precinct 2010                                          01 
00040060012000008000000000007000001000000000000000000000000000000000000000000000000000000000000000000NON       President / Vice-President                              Write-in                              Precinct 2011                                          01 
00040060013000004000000000002000002000000000000000000000000000000000000000000000000000000000000000000NON       President / Vice-President                              Write-in                              Precinct 3012                                          01 
00040060014000005000000000003000002000000000000000000000000000000000000000000000000000000000000000000NON       President / Vice-President                              Write-in                              Precinct 3013                                          01 
00040060015000001000000000001000000000000000000000000000000000000000000000000000000000000000000000000NON       President / Vice-President                              Write-in                              Precinct 3014                                          01 
00040060016000006000000000005000001000000000000000000000000000000000000000000000000000000000000000000NON       President / Vice-President                              Write-in                              Precinct 3015                                          01 
00040060017000010000000000010000000000000000000000000000000000000000000000000000000000000000000000000NON       President / Vice-President                              Write-in                              Precinct 3016                                          01 
00040060018000010000001000007000002000000000000000000000000000000000000000000000000000000000000000000NON       President / Vice-President                              Write-in                              Precinct 4017                                          01 
00040060019000003000000000001000002000000000000000000000000000000000000000000000000000000000000000000NON       President / Vice-President                              Write-in                              Precinct 4018                                          01 
00040060020000006000000000004000002000000000000000000000000000000000000000000000000000000000000000000NON       President / Vice-President                              Write-in                              Precinct 4019                                          01 
00040060021000009000000000009000000000000000000000000000000000000000000000000000000000000000000000000NON       President / Vice-President                              Write-in                              Precinct 4020                                          01 
00040060022000009000000000006000003000000000000000000000000000000000000000000000000000000000000000000NON       President / Vice-President                              Write-in                              Precinct 4021                                          01 
00040070001000001000000000000000001000000000000000000000000000000000000000000000000000000000000000000          President / Vice-President                              OVER VOTES                            Precinct 1001                                          01 
00040070002000001000001000000000000000000000000000000000000000000000000000000000000000000000000000000          President / Vice-President                              OVER VOTES                            Precinct 1002                                          01 
00040070003000000000000000000000000000000000000000000000000000000000000000000000000000000000000000000          President / Vice-President                              OVER VOTES                            Precinct 1003                                          01 
00040070004000009000001000000000008000000000000000000000000000000000000000000000000000000000000000000          President / Vice-President                              OVER VOTES                            Precinct 1004                                          01 
00040070005000001000000000000000001000000000000000000000000000000000000000000000000000000000000000000          President / Vice-President                              OVER VOTES                            Precinct 1022                                          01 
00040070006000005000002000000000003000000000000000000000000000000000000000000000000000000000000000000          President / Vice-President                              OVER VOTES                            Precinct 2005                                          01 
00040070007000003000000000000000003000000000000000000000000000000000000000000000000000000000000000000          President / Vice-President                              OVER VOTES                            Precinct 2006                                          01 
00040070008000000000000000000000000000000000000000000000000000000000000000000000000000000000000000000          President / Vice-President                              OVER VOTES                            Precinct 2007                                          01 
00040070009000000000000000000000000000000000000000000000000000000000000000000000000000000000000000000          President / Vice-President                              OVER VOTES                            Precinct 2008                                          01 
00040070010000000000000000000000000000000000000000000000000000000000000000000000000000000000000000000          President / Vice-President                              OVER VOTES                            Precinct 2009                                          01 
00040070011000002000000000000000002000000000000000000000000000000000000000000000000000000000000000000          President / Vice-President                              OVER VOTES                            Precinct 2010                                          01 
00040070012000000000000000000000000000000000000000000000000000000000000000000000000000000000000000000          President / Vice-President                              OVER VOTES                            Precinct 2011                                          01 
00040070013000000000000000000000000000000000000000000000000000000000000000000000000000000000000000000          President / Vice-President                              OVER VOTES                            Precinct 3012                                          01 
00040070014000000000000000000000000000000000000000000000000000000000000000000000000000000000000000000          President / Vice-President                              OVER VOTES                            Precinct 3013                                          01 
00040070015000002000002000000000000000000000000000000000000000000000000000000000000000000000000000000          President / Vice-President                              OVER VOTES                            Precinct 3014                                          01 
00040070016000004000001000000000003000000000000000000000000000000000000000000000000000000000000000000          President / Vice-President                              OVER VOTES                            Precinct 3015                                          01 
00040070017000008000000000001000007000000000000000000000000000000000000000000000000000000000000000000          President / Vice-President                              OVER VOTES                            Precinct 3016                                          01 
00040070018000000000000000000000000000000000000000000000000000000000000000000000000000000000000000000          President / Vice-President                              OVER VOTES                            Precinct 4017                                          01 
00040070019000004000002000000000002000000000000000000000000000000000000000000000000000000000000000000          President / Vice-President                              OVER VOTES                            Precinct 4018                                          01 
00040070020000001000000000000000001000000000000000000000000000000000000000000000000000000000000000000          President / Vice-President                              OVER VOTES                            Precinct 4019                                          01 
00040070021000006000001000000000005000000000000000000000000000000000000000000000000000000000000000000          President / Vice-President                              OVER VOTES                            Precinct 4020                                          01 
00040070022000003000001000000000002000000000000000000000000000000000000000000000000000000000000000000          President / Vice-President                              OVER VOTES                            Precinct 4021                                          01 
00040080001000011000001000009000001000000000000000000000000000000000000000000000000000000000000000000          President / Vice-President                              UNDER VOTES                           Precinct 1001                                          01 
00040080002000006000001000005000000000000000000000000000000000000000000000000000000000000000000000000          President / Vice-President                              UNDER VOTES                           Precinct 1002                                          01 
00040080003000018000004000013000001000000000000000000000000000000000000000000000000000000000000000000          President / Vice-President                              UNDER VOTES                           Precinct 1003                                          01 
00040080004000006000003000002000001000000000000000000000000000000000000000000000000000000000000000000          President / Vice-President                              UNDER VOTES                           Precinct 1004                                          01 
00040080005000005000003000002000000000000000000000000000000000000000000000000000000000000000000000000          President / Vice-President                              UNDER VOTES                           Precinct 1022                                          01 
00040080006000011000005000006000000000000000000000000000000000000000000000000000000000000000000000000          President / Vice-President                              UNDER VOTES                           Precinct 2005                                          01 
00040080007000002000000000001000001000000000000000000000000000000000000000000000000000000000000000000          President / Vice-President                              UNDER VOTES                           Precinct 2006                                          01 
00040080008000003000000000002000001000000000000000000000000000000000000000000000000000000000000000000          President / Vice-President                              UNDER VOTES                           Precinct 2007                                          01 
00040080009000005000001000004000000000000000000000000000000000000000000000000000000000000000000000000          President / Vice-President                              UNDER VOTES                           Precinct 2008                                          01 
00040080010000002000000000002000000000000000000000000000000000000000000000000000000000000000000000000          President / Vice-President                              UNDER VOTES                           Precinct 2009                                          01 
00040080011000002000000000002000000000000000000000000000000000000000000000000000000000000000000000000          President / Vice-President                              UNDER VOTES                           Precinct 2010                                          01 
00040080012000006000002000002000002000000000000000000000000000000000000000000000000000000000000000000          President / Vice-President                              UNDER VOTES                           Precinct 2011                                          01 
00040080013000006000001000004000001000000000000000000000000000000000000000000000000000000000000000000          President / Vice-President                              UNDER VOTES                           Precinct 3012                                          01 
00040080014000004000000000003000001000000000000000000000000000000000000000000000000000000000000000000          President / Vice-President                              UNDER VOTES                           Precinct 3013                                          01 
00040080015000006000000000005000001000000000000000000000000000000000000000000000000000000000000000000          President / Vice-President                              UNDER VOTES                           Precinct 3014                                          01 
00040080016000005000001000004000000000000000000000000000000000000000000000000000000000000000000000000          President / Vice-President                              UNDER VOTES                           Precinct 3015                                          01 
00040080017000009000001000008000000000000000000000000000000000000000000000000000000000000000000000000          President / Vice-President                              UNDER VOTES                           Precinct 3016                                          01 
00040080018000011000001000009000001000000000000000000000000000000000000000000000000000000000000000000          President / Vice-President                              UNDER VOTES                           Precinct 4017                                          01 
00040080019000001000001000000000000000000000000000000000000000000000000000000000000000000000000000000          President / Vice-President                              UNDER VOTES                           Precinct 4018                                          01 
00040080020000004000001000002000001000000000000000000000000000000000000000000000000000000000000000000          President / Vice-President                              UNDER VOTES                           Precinct 4019                                          01 
00040080021000006000001000004000001000000000000000000000000000000000000000000000000000000000000000000          President / Vice-President                              UNDER VOTES                           Precinct 4020                                          01 
00040080022000006000003000001000002000000000000000000000000000000000000000000000000000000000000000000          President / Vice-President                              UNDER VOTES                           Precinct 4021                                          01 
00050010001001656000119001315000222000000000000000000000000000000000000000000000000000000000000000000REP       US Senator                                              REP John Cornyn                       Precinct 1001                                          01 
00050010002000812000097000612000103000000000000000000000000000000000000000000000000000000000000000000REP       US Senator                                              REP John Cornyn                       Precinct 1002                                          01 
00050010003001407000131001123000153000000000000000000000000000000000000000000000000000000000000000000REP       US Senator                                              REP John Cornyn                       Precinct 1003                                          01 
00050010004000856000060000621000175000000000000000000000000000000000000000000000000000000000000000000REP       US Senator                                              REP John Cornyn                       Precinct 1004                                          01 
00050010005001516000167001200000149000000000000000000000000000000000000000000000000000000000000000000REP       US Senator                                              REP John Cornyn                       Precinct 1022                                          01 
00050010006001124000095000867000162000000000000000000000000000000000000000000000000000000000000000000REP       US Senator                                              REP John Cornyn                       Precinct 2005                                          01 
00050010007000784000051000582000151000000000000000000000000000000000000000000000000000000000000000000REP       US Senator                                              REP John Cornyn                       Precinct 2006                                          01 
00050010008001273000101000876000296000000000000000000000000000000000000000000000000000000000000000000REP       US Senator                                              REP John Cornyn                       Precinct 2007                                          01 
00050010009000545000036000442000067000000000000000000000000000000000000000000000000000000000000000000REP       US Senator                                              REP John Cornyn                       Precinct 2008                                          01 
00050010010000629000049000483000097000000000000000000000000000000000000000000000000000000000000000000REP       US Senator                                              REP John Cornyn                       Precinct 2009                                          01 
00050010011000745000050000447000248000000000000000000000000000000000000000000000000000000000000000000REP       US Senator                                              REP John Cornyn                       Precinct 2010                                          01 
00050010012001190000114000865000211000000000000000000000000000000000000000000000000000000000000000000REP       US Senator                                              REP John Cornyn                       Precinct 2011                                          01 
00050010013000549000038000408000103000000000000000000000000000000000000000000000000000000000000000000REP       US Senator                                              REP John Cornyn                       Precinct 3012                                          01 
00050010014000789000059000467000263000000000000000000000000000000000000000000000000000000000000000000REP       US Senator                                              REP John Cornyn                       Precinct 3013                                          01 
00050010015000821000048000653000120000000000000000000000000000000000000000000000000000000000000000000REP       US Senator                                              REP John Cornyn                       Precinct 3014                                          01 
00050010016000690000043000533000114000000000000000000000000000000000000000000000000000000000000000000REP       US Senator                                              REP John Cornyn                       Precinct 3015                                          01 
00050010017001023000072000791000160000000000000000000000000000000000000000000000000000000000000000000REP       US Senator                                              REP John Cornyn                       Precinct 3016                                          01 
00050010018000852000081000671000100000000000000000000000000000000000000000000000000000000000000000000REP       US Senator                                              REP John Cornyn                       Precinct 4017                                          01 
00050010019000339000021000270000048000000000000000000000000000000000000000000000000000000000000000000REP       US Senator                                              REP John Cornyn                       Precinct 4018                                          01 
00050010020000995000065000750000180000000000000000000000000000000000000000000000000000000000000000000REP       US Senator                                              REP John Cornyn                       Precinct 4019                                          01 
00050010021001221000114000963000144000000000000000000000000000000000000000000000000000000000000000000REP       US Senator                                              REP John Cornyn                       Precinct 4020                                          01 
00050010022000652000063000370000219000000000000000000000000000000000000000000000000000000000000000000REP       US Senator                                              REP John Cornyn                       Precinct 4021                                          01 
00050020001001008000212000733000063000000000000000000000000000000000000000000000000000000000000000000DEM       US Senator                                              DEM Mary "MJ" Hegar                   Precinct 1001                                          01 
00050020002000883000195000613000075000000000000000000000000000000000000000000000000000000000000000000DEM       US Senator                                              DEM Mary "MJ" Hegar                   Precinct 1002                                          01 
00050020003001101000224000812000065000000000000000000000000000000000000000000000000000000000000000000DEM       US Senator                                              DEM Mary "MJ" Hegar                   Precinct 1003                                          01 
00050020004000732000104000517000111000000000000000000000000000000000000000000000000000000000000000000DEM       US Senator                                              DEM Mary "MJ" Hegar                   Precinct 1004                                          01 
00050020005001004000210000728000066000000000000000000000000000000000000000000000000000000000000000000DEM       US Senator                                              DEM Mary "MJ" Hegar                   Precinct 1022                                          01 
00050020006000785000164000538000083000000000000000000000000000000000000000000000000000000000000000000DEM       US Senator                                              DEM Mary "MJ" Hegar                   Precinct 2005                                          01 
00050020007000407000077000277000053000000000000000000000000000000000000000000000000000000000000000000DEM       US Senator                                              DEM Mary "MJ" Hegar                   Precinct 2006                                          01 
00050020008000433000080000292000061000000000000000000000000000000000000000000000000000000000000000000DEM       US Senator                                              DEM Mary "MJ" Hegar                   Precinct 2007                                          01 
00050020009000239000046000180000013000000000000000000000000000000000000000000000000000000000000000000DEM       US Senator                                              DEM Mary "MJ" Hegar                   Precinct 2008                                          01 
00050020010000354000078000248000028000000000000000000000000000000000000000000000000000000000000000000DEM       US Senator                                              DEM Mary "MJ" Hegar                   Precinct 2009                                          01 
00050020011000325000074000209000042000000000000000000000000000000000000000000000000000000000000000000DEM       US Senator                                              DEM Mary "MJ" Hegar                   Precinct 2010                                          01 
00050020012000726000158000502000066000000000000000000000000000000000000000000000000000000000000000000DEM       US Senator                                              DEM Mary "MJ" Hegar                   Precinct 2011                                          01 
00050020013000189000037000119000033000000000000000000000000000000000000000000000000000000000000000000DEM       US Senator                                              DEM Mary "MJ" Hegar                   Precinct 3012                                          01 
00050020014000349000088000205000056000000000000000000000000000000000000000000000000000000000000000000DEM       US Senator                                              DEM Mary "MJ" Hegar                   Precinct 3013                                          01 
00050020015000813000099000599000115000000000000000000000000000000000000000000000000000000000000000000DEM       US Senator                                              DEM Mary "MJ" Hegar                   Precinct 3014                                          01 
00050020016001005000117000764000124000000000000000000000000000000000000000000000000000000000000000000DEM       US Senator                                              DEM Mary "MJ" Hegar                   Precinct 3015                                          01 
00050020017000865000131000645000089000000000000000000000000000000000000000000000000000000000000000000DEM       US Senator                                              DEM Mary "MJ" Hegar                   Precinct 3016                                          01 
00050020018001177000153000916000108000000000000000000000000000000000000000000000000000000000000000000DEM       US Senator                                              DEM Mary "MJ" Hegar                   Precinct 4017                                          01 
00050020019000162000024000126000012000000000000000000000000000000000000000000000000000000000000000000DEM       US Senator                                              DEM Mary "MJ" Hegar                   Precinct 4018                                          01 
00050020020000802000140000584000078000000000000000000000000000000000000000000000000000000000000000000DEM       US Senator                                              DEM Mary "MJ" Hegar                   Precinct 4019                                          01 
00050020021001368000206001016000146000000000000000000000000000000000000000000000000000000000000000000DEM       US Senator                                              DEM Mary "MJ" Hegar                   Precinct 4020                                          01 
00050020022000344000068000212000064000000000000000000000000000000000000000000000000000000000000000000DEM       US Senator                                              DEM Mary "MJ" Hegar                   Precinct 4021                                          01 
00050030001000064000001000047000016000000000000000000000000000000000000000000000000000000000000000000LIB       US Senator                                              LIB Kerry Douglas McKennon            Precinct 1001                                          01 
00050030002000041000003000030000008000000000000000000000000000000000000000000000000000000000000000000LIB       US Senator                                              LIB Kerry Douglas McKennon            Precinct 1002                                          01 
00050030003000045000002000033000010000000000000000000000000000000000000000000000000000000000000000000LIB       US Senator                                              LIB Kerry Douglas McKennon            Precinct 1003                                          01 
00050030004000046000005000029000012000000000000000000000000000000000000000000000000000000000000000000LIB       US Senator                                              LIB Kerry Douglas McKennon            Precinct 1004                                          01 
00050030005000057000004000045000008000000000000000000000000000000000000000000000000000000000000000000LIB       US Senator                                              LIB Kerry Douglas McKennon            Precinct 1022                                          01 
00050030006000025000001000018000006000000000000000000000000000000000000000000000000000000000000000000LIB       US Senator                                              LIB Kerry Douglas McKennon            Precinct 2005                                          01 
00050030007000026000000000017000009000000000000000000000000000000000000000000000000000000000000000000LIB       US Senator                                              LIB Kerry Douglas McKennon            Precinct 2006                                          01 
00050030008000021000000000012000009000000000000000000000000000000000000000000000000000000000000000000LIB       US Senator                                              LIB Kerry Douglas McKennon            Precinct 2007                                          01 
00050030009000013000001000010000002000000000000000000000000000000000000000000000000000000000000000000LIB       US Senator                                              LIB Kerry Douglas McKennon            Precinct 2008                                          01 
00050030010000031000001000022000008000000000000000000000000000000000000000000000000000000000000000000LIB       US Senator                                              LIB Kerry Douglas McKennon            Precinct 2009                                          01 
00050030011000033000004000021000008000000000000000000000000000000000000000000000000000000000000000000LIB       US Senator                                              LIB Kerry Douglas McKennon            Precinct 2010                                          01 
00050030012000053000003000036000014000000000000000000000000000000000000000000000000000000000000000000LIB       US Senator                                              LIB Kerry Douglas McKennon            Precinct 2011                                          01 
00050030013000017000000000014000003000000000000000000000000000000000000000000000000000000000000000000LIB       US Senator                                              LIB Kerry Douglas McKennon            Precinct 3012                                          01 
00050030014000023000000000012000011000000000000000000000000000000000000000000000000000000000000000000LIB       US Senator                                              LIB Kerry Douglas McKennon            Precinct 3013                                          01 
00050030015000025000001000014000010000000000000000000000000000000000000000000000000000000000000000000LIB       US Senator                                              LIB Kerry Douglas McKennon            Precinct 3014                                          01 
00050030016000035000002000023000010000000000000000000000000000000000000000000000000000000000000000000LIB       US Senator                                              LIB Kerry Douglas McKennon            Precinct 3015                                          01 
00050030017000045000001000037000007000000000000000000000000000000000000000000000000000000000000000000LIB       US Senator                                              LIB Kerry Douglas McKennon            Precinct 3016                                          01 
00050030018000038000002000028000008000000000000000000000000000000000000000000000000000000000000000000LIB       US Senator                                              LIB Kerry Douglas McKennon            Precinct 4017                                          01 
00050030019000018000003000012000003000000000000000000000000000000000000000000000000000000000000000000LIB       US Senator                                              LIB Kerry Douglas McKennon            Precinct 4018                                          01 
00050030020000039000004000023000012000000000000000000000000000000000000000000000000000000000000000000LIB       US Senator                                              LIB Kerry Douglas McKennon            Precinct 4019                                          01 
00050030021000035000001000023000011000000000000000000000000000000000000000000000000000000000000000000LIB       US Senator                                              LIB Kerry Douglas McKennon            Precinct 4020                                          01 
00050030022000027000001000015000011000000000000000000000000000000000000000000000000000000000000000000LIB       US Senator                                              LIB Kerry Douglas McKennon            Precinct 4021                                          01 
00050040001000008000002000006000000000000000000000000000000000000000000000000000000000000000000000000GRN       US Senator                                              GRN David B. Collins                  Precinct 1001                                          01 
00050040002000010000000000009000001000000000000000000000000000000000000000000000000000000000000000000GRN       US Senator                                              GRN David B. Collins                  Precinct 1002                                          01 
00050040003000014000001000010000003000000000000000000000000000000000000000000000000000000000000000000GRN       US Senator                                              GRN David B. Collins                  Precinct 1003                                          01 
00050040004000012000002000005000005000000000000000000000000000000000000000000000000000000000000000000GRN       US Senator                                              GRN David B. Collins                  Precinct 1004                                          01 
00050040005000011000001000009000001000000000000000000000000000000000000000000000000000000000000000000GRN       US Senator                                              GRN David B. Collins                  Precinct 1022                                          01 
00050040006000006000001000003000002000000000000000000000000000000000000000000000000000000000000000000GRN       US Senator                                              GRN David B. Collins                  Precinct 2005                                          01 
00050040007000006000001000004000001000000000000000000000000000000000000000000000000000000000000000000GRN       US Senator                                              GRN David B. Collins                  Precinct 2006                                          01 
00050040008000014000001000011000002000000000000000000000000000000000000000000000000000000000000000000GRN       US Senator                                              GRN David B. Collins                  Precinct 2007                                          01 
00050040009000001000000000000000001000000000000000000000000000000000000000000000000000000000000000000GRN       US Senator                                              GRN David B. Collins                  Precinct 2008                                          01 
00050040010000005000000000004000001000000000000000000000000000000000000000000000000000000000000000000GRN       US Senator                                              GRN David B. Collins                  Precinct 2009                                          01 
00050040011000007000000000005000002000000000000000000000000000000000000000000000000000000000000000000GRN       US Senator                                              GRN David B. Collins                  Precinct 2010                                          01 
00050040012000018000003000011000004000000000000000000000000000000000000000000000000000000000000000000GRN       US Senator                                              GRN David B. Collins                  Precinct 2011                                          01 
00050040013000002000000000000000002000000000000000000000000000000000000000000000000000000000000000000GRN       US Senator                                              GRN David B. Collins                  Precinct 3012                                          01 
00050040014000009000000000007000002000000000000000000000000000000000000000000000000000000000000000000GRN       US Senator                                              GRN David B. Collins                  Precinct 3013                                          01 
00050040015000008000000000005000003000000000000000000000000000000000000000000000000000000000000000000GRN       US Senator                                              GRN David B. Collins                  Precinct 3014                                          01 
00050040016000013000000000008000005000000000000000000000000000000000000000000000000000000000000000000GRN       US Senator                                              GRN David B. Collins                  Precinct 3015                                          01 
00050040017000011000000000008000003000000000000000000000000000000000000000000000000000000000000000000GRN       US Senator                                              GRN David B. Collins                  Precinct 3016                                          01 
00050040018000015000000000012000003000000000000000000000000000000000000000000000000000000000000000000GRN       US Senator                                              GRN David B. Collins                  Precinct 4017                                          01 
00050040019000004000000000003000001000000000000000000000000000000000000000000000000000000000000000000GRN       US Senator                                              GRN David B. Collins                  Precinct 4018                                          01 
00050040020000012000002000007000003000000000000000000000000000000000000000000000000000000000000000000GRN       US Senator                                              GRN David B. Collins                  Precinct 4019                                          01 
00050040021000016000001000011000004000000000000000000000000000000000000000000000000000000000000000000GRN       US Senator                                              GRN David B. Collins                  Precinct 4020                                          01 
00050040022000006000000000003000003000000000000000000000000000000000000000000000000000000000000000000GRN       US Senator                                              GRN David B. Collins                  Precinct 4021                                          01 
00050060001000002000000000002000000000000000000000000000000000000000000000000000000000000000000000000NON       US Senator                                              Write-in                              Precinct 1001                                          01 
00050060002000000000000000000000000000000000000000000000000000000000000000000000000000000000000000000NON       US Senator                                              Write-in                              Precinct 1002                                          01 
00050060003000002000000000001000001000000000000000000000000000000000000000000000000000000000000000000NON       US Senator                                              Write-in                              Precinct 1003                                          01 
00050060004000000000000000000000000000000000000000000000000000000000000000000000000000000000000000000NON       US Senator                                              Write-in                              Precinct 1004                                          01 
00050060005000005000000000005000000000000000000000000000000000000000000000000000000000000000000000000NON       US Senator                                              Write-in                              Precinct 1022                                          01 
00050060006000000000000000000000000000000000000000000000000000000000000000000000000000000000000000000NON       US Senator                                              Write-in                              Precinct 2005                                          01 
00050060007000001000000000001000000000000000000000000000000000000000000000000000000000000000000000000NON       US Senator                                              Write-in                              Precinct 2006                                          01 
00050060008000001000000000001000000000000000000000000000000000000000000000000000000000000000000000000NON       US Senator                                              Write-in                              Precinct 2007                                          01 
00050060009000002000000000002000000000000000000000000000000000000000000000000000000000000000000000000NON       US Senator                                              Write-in                              Precinct 2008                                          01 
00050060010000001000000000001000000000000000000000000000000000000000000000000000000000000000000000000NON       US Senator                                              Write-in                              Precinct 2009                                          01 
00050060011000000000000000000000000000000000000000000000000000000000000000000000000000000000000000000NON       US Senator                                              Write-in                              Precinct 2010                                          01 
00050060012000001000001000000000000000000000000000000000000000000000000000000000000000000000000000000NON       US Senator                                              Write-in                              Precinct 2011                                          01 
00050060013000000000000000000000000000000000000000000000000000000000000000000000000000000000000000000NON       US Senator                                              Write-in                              Precinct 3012                                          01 
00050060014000000000000000000000000000000000000000000000000000000000000000000000000000000000000000000NON       US Senator                                              Write-in                              Precinct 3013                                          01 
00050060015000001000000000001000000000000000000000000000000000000000000000000000000000000000000000000NON       US Senator                                              Write-in                              Precinct 3014                                          01 
00050060016000002000000000001000001000000000000000000000000000000000000000000000000000000000000000000NON       US Senator                                              Write-in                              Precinct 3015                                          01 
00050060017000001000000000001000000000000000000000000000000000000000000000000000000000000000000000000NON       US Senator                                              Write-in                              Precinct 3016                                          01 
00050060018000003000000000002000001000000000000000000000000000000000000000000000000000000000000000000NON       US Senator                                              Write-in                              Precinct 4017                                          01 
00050060019000000000000000000000000000000000000000000000000000000000000000000000000000000000000000000NON       US Senator                                              Write-in                              Precinct 4018                                          01 
00050060020000001000000000001000000000000000000000000000000000000000000000000000000000000000000000000NON       US Senator                                              Write-in                              Precinct 4019                                          01 
00050060021000002000000000001000001000000000000000000000000000000000000000000000000000000000000000000NON       US Senator                                              Write-in                              Precinct 4020                                          01 
00050060022000000000000000000000000000000000000000000000000000000000000000000000000000000000000000000NON       US Senator                                              Write-in                              Precinct 4021                                          01 
00050070001000001000000000000000001000000000000000000000000000000000000000000000000000000000000000000          US Senator                                              OVER VOTES                            Precinct 1001                                          01 
00050070002000001000001000000000000000000000000000000000000000000000000000000000000000000000000000000          US Senator                                              OVER VOTES                            Precinct 1002                                          01 
00050070003000000000000000000000000000000000000000000000000000000000000000000000000000000000000000000          US Senator                                              OVER VOTES                            Precinct 1003                                          01 
00050070004000007000000000000000007000000000000000000000000000000000000000000000000000000000000000000          US Senator                                              OVER VOTES                            Precinct 1004                                          01 
00050070005000002000000000001000001000000000000000000000000000000000000000000000000000000000000000000          US Senator                                              OVER VOTES                            Precinct 1022                                          01 
00050070006000004000003000000000001000000000000000000000000000000000000000000000000000000000000000000          US Senator                                              OVER VOTES                            Precinct 2005                                          01 
00050070007000002000000000000000002000000000000000000000000000000000000000000000000000000000000000000          US Senator                                              OVER VOTES                            Precinct 2006                                          01 
00050070008000000000000000000000000000000000000000000000000000000000000000000000000000000000000000000          US Senator                                              OVER VOTES                            Precinct 2007                                          01 
00050070009000000000000000000000000000000000000000000000000000000000000000000000000000000000000000000          US Senator                                              OVER VOTES                            Precinct 2008                                          01 
00050070010000000000000000000000000000000000000000000000000000000000000000000000000000000000000000000          US Senator                                              OVER VOTES                            Precinct 2009                                          01 
00050070011000001000000000000000001000000000000000000000000000000000000000000000000000000000000000000          US Senator                                              OVER VOTES                            Precinct 2010                                          01 
00050070012000000000000000000000000000000000000000000000000000000000000000000000000000000000000000000          US Senator                                              OVER VOTES                            Precinct 2011                                          01 
00050070013000000000000000000000000000000000000000000000000000000000000000000000000000000000000000000          US Senator                                              OVER VOTES                            Precinct 3012                                          01 
00050070014000000000000000000000000000000000000000000000000000000000000000000000000000000000000000000          US Senator                                              OVER VOTES                            Precinct 3013                                          01 
00050070015000004000004000000000000000000000000000000000000000000000000000000000000000000000000000000          US Senator                                              OVER VOTES                            Precinct 3014                                          01 
00050070016000001000000000000000001000000000000000000000000000000000000000000000000000000000000000000          US Senator                                              OVER VOTES                            Precinct 3015                                          01 
00050070017000007000000000001000006000000000000000000000000000000000000000000000000000000000000000000          US Senator                                              OVER VOTES                            Precinct 3016                                          01 
00050070018000000000000000000000000000000000000000000000000000000000000000000000000000000000000000000          US Senator                                              OVER VOTES                            Precinct 4017                                          01 
00050070019000001000000000000000001000000000000000000000000000000000000000000000000000000000000000000          US Senator                                              OVER VOTES                            Precinct 4018                                          01 
00050070020000000000000000000000000000000000000000000000000000000000000000000000000000000000000000000          US Senator                                              OVER VOTES                            Precinct 4019                                          01 
00050070021000003000001000000000002000000000000000000000000000000000000000000000000000000000000000000          US Senator                                              OVER VOTES                            Precinct 4020                                          01 
00050070022000002000001000000000001000000000000000000000000000000000000000000000000000000000000000000          US Senator                                              OVER VOTES                            Precinct 4021                                          01 
00050080001000029000005000014000010000000000000000000000000000000000000000000000000000000000000000000          US Senator                                              UNDER VOTES                           Precinct 1001                                          01 
00050080002000020000002000015000003000000000000000000000000000000000000000000000000000000000000000000          US Senator                                              UNDER VOTES                           Precinct 1002                                          01 
00050080003000019000001000013000005000000000000000000000000000000000000000000000000000000000000000000          US Senator                                              UNDER VOTES                           Precinct 1003                                          01 
00050080004000030000002000017000011000000000000000000000000000000000000000000000000000000000000000000          US Senator                                              UNDER VOTES                           Precinct 1004                                          01 
00050080005000026000003000017000006000000000000000000000000000000000000000000000000000000000000000000          US Senator                                              UNDER VOTES                           Precinct 1022                                          01 
00050080006000022000005000015000002000000000000000000000000000000000000000000000000000000000000000000          US Senator                                              UNDER VOTES                           Precinct 2005                                          01 
00050080007000013000002000009000002000000000000000000000000000000000000000000000000000000000000000000          US Senator                                              UNDER VOTES                           Precinct 2006                                          01 
00050080008000013000000000005000008000000000000000000000000000000000000000000000000000000000000000000          US Senator                                              UNDER VOTES                           Precinct 2007                                          01 
00050080009000006000001000004000001000000000000000000000000000000000000000000000000000000000000000000          US Senator                                              UNDER VOTES                           Precinct 2008                                          01 
00050080010000012000000000008000004000000000000000000000000000000000000000000000000000000000000000000          US Senator                                              UNDER VOTES                           Precinct 2009                                          01 
00050080011000009000001000007000001000000000000000000000000000000000000000000000000000000000000000000          US Senator                                              UNDER VOTES                           Precinct 2010                                          01 
00050080012000020000005000011000004000000000000000000000000000000000000000000000000000000000000000000          US Senator                                              UNDER VOTES                           Precinct 2011                                          01 
00050080013000011000000000007000004000000000000000000000000000000000000000000000000000000000000000000          US Senator                                              UNDER VOTES                           Precinct 3012                                          01 
00050080014000014000000000008000006000000000000000000000000000000000000000000000000000000000000000000          US Senator                                              UNDER VOTES                           Precinct 3013                                          01 
00050080015000010000000000008000002000000000000000000000000000000000000000000000000000000000000000000          US Senator                                              UNDER VOTES                           Precinct 3014                                          01 
00050080016000024000000000019000005000000000000000000000000000000000000000000000000000000000000000000          US Senator                                              UNDER VOTES                           Precinct 3015                                          01 
00050080017000019000001000016000002000000000000000000000000000000000000000000000000000000000000000000          US Senator                                              UNDER VOTES                           Precinct 3016                                          01 
00050080018000027000003000020000004000000000000000000000000000000000000000000000000000000000000000000          US Senator                                              UNDER VOTES                           Precinct 4017                                          01 
00050080019000004000000000002000002000000000000000000000000000000000000000000000000000000000000000000          US Senator                                              UNDER VOTES                           Precinct 4018                                          01 
00050080020000013000000000009000004000000000000000000000000000000000000000000000000000000000000000000          US Senator                                              UNDER VOTES                           Precinct 4019                                          01 
00050080021000028000004000018000006000000000000000000000000000000000000000000000000000000000000000000          US Senator                                              UNDER VOTES                           Precinct 4020                                          01 
00050080022000013000000000004000009000000000000000000000000000000000000000000000000000000000000000000          US Senator                                              UNDER VOTES                           Precinct 4021                                          01 
00060010001001673000125001326000222000000000000000000000000000000000000000000000000000000000000000000REPREP010 US Representative, Dist 10                              REP Michael McCaul                    Precinct 1001                 District 10              01 
00060010002000822000101000620000101000000000000000000000000000000000000000000000000000000000000000000REPREP010 US Representative, Dist 10                              REP Michael McCaul                    Precinct 1002                 District 10              01 
00060010004000859000065000626000168000000000000000000000000000000000000000000000000000000000000000000REPREP010 US Representative, Dist 10                              REP Michael McCaul                    Precinct 1004                 District 10              01 
