00010010001000148000000000000000000000000000000000000000000000000000000000000000000000000000000000000          REGISTERED VOTERS - TOTAL                               REGISTERED VOTERS - TOTAL             Precinct #1 - Silverton Librar                         00 
00010010002000254000000000000000000000000000000000000000000000000000000000000000000000000000000000000          REGISTERED VOTERS - TOTAL                               REGISTERED VOTERS - TOTAL             Precinct #2 - Hope Center                              00 
00010010003000251000000000000000000000000000000000000000000000000000000000000000000000000000000000000          REGISTERED VOTERS - TOTAL                               REGISTERED VOTERS - TOTAL             Precinct #3 - Pioneer Room HSB                         00 
00010010004000300000000000000000000000000000000000000000000000000000000000000000000000000000000000000          REGISTERED VOTERS - TOTAL                               REGISTERED VOTERS - TOTAL             Precinct #4 - FBC                                      00 
00010010005000074000000000000000000000000000000000000000000000000000000000000000000000000000000000000          REGISTERED VOTERS - TOTAL                               REGISTERED VOTERS - TOTAL             Precinct #6 - Hope Center                              00 
00020010001000100000020000047000033000000000000000000000000000000000000000000000000000000000000000000          BALLOTS CAST - TOTAL                                    BALLOTS CAST - TOTAL                  Precinct #1 - Silverton Librar                         00 
00020010002000173000014000054000105000000000000000000000000000000000000000000000000000000000000000000          BALLOTS CAST - TOTAL                                    BALLOTS CAST - TOTAL                  Precinct #2 - Hope Center                              00 
00020010003000180000022000104000054000000000000000000000000000000000000000000000000000000000000000000          BALLOTS CAST - TOTAL                                    BALLOTS CAST - TOTAL                  Precinct #3 - Pioneer Room HSB                         00 
00020010004000230000038000137000055000000000000000000000000000000000000000000000000000000000000000000          BALLOTS CAST - TOTAL                                    BALLOTS CAST - TOTAL                  Precinct #4 - FBC                                      00 
00020010005000046000004000015000027000000000000000000000000000000000000000000000000000000000000000000          BALLOTS CAST - TOTAL                                    BALLOTS CAST - TOTAL                  Precinct #6 - Hope Center                              00 
00030010001000000000000000000000000000000000000000000000000000000000000000000000000000000000000000000          BALLOTS CAST - BLANK                                    BALLOTS CAST - BLANK                  Precinct #1 - Silverton Librar                         00 
00030010002000000000000000000000000000000000000000000000000000000000000000000000000000000000000000000          BALLOTS CAST - BLANK                                    BALLOTS CAST - BLANK                  Precinct #2 - Hope Center                              00 
00030010003000000000000000000000000000000000000000000000000000000000000000000000000000000000000000000          BALLOTS CAST - BLANK                                    BALLOTS CAST - BLANK                  Precinct #3 - Pioneer Room HSB                         00 
00030010004000000000000000000000000000000000000000000000000000000000000000000000000000000000000000000          BALLOTS CAST - BLANK                                    BALLOTS CAST - BLANK                  Precinct #4 - FBC                                      00 
00030010005000000000000000000000000000000000000000000000000000000000000000000000000000000000000000000          BALLOTS CAST - BLANK                                    BALLOTS CAST - BLANK                  Precinct #6 - Hope Center                              00 
00040010001000084000016000042000026000000000000000000000000000000000000000000000000000000000000000000REP       President / Vice-President                              REP Donald J. Trump / Michael R. PencePrecinct #1 - Silverton Librar                         01 
00040010002000154000011000047000096000000000000000000000000000000000000000000000000000000000000000000REP       President / Vice-President                              REP Donald J. Trump / Michael R. PencePrecinct #2 - Hope Center                              01 
00040010003000158000016000098000044000000000000000000000000000000000000000000000000000000000000000000REP       President / Vice-President                              REP Donald J. Trump / Michael R. PencePrecinct #3 - Pioneer Room HSB                         01 
00040010004000203000028000124000051000000000000000000000000000000000000000000000000000000000000000000REP       President / Vice-President                              REP Donald J. Trump / Michael R. PencePrecinct #4 - FBC                                      01 
00040010005000040000001000013000026000000000000000000000000000000000000000000000000000000000000000000REP       President / Vice-President                              REP Donald J. Trump / Michael R. PencePrecinct #6 - Hope Center                              01 
00040020001000014000002000005000007000000000000000000000000000000000000000000000000000000000000000000DEM       President / Vice-President                              DEM Joseph R. Biden / Kamala D. HarrisPrecinct #1 - Silverton Librar                         01 
00040020002000017000003000007000007000000000000000000000000000000000000000000000000000000000000000000DEM       President / Vice-President                              DEM Joseph R. Biden / Kamala D. HarrisPrecinct #2 - Hope Center                              01 
00040020003000017000004000005000008000000000000000000000000000000000000000000000000000000000000000000DEM       President / Vice-President                              DEM Joseph R. Biden / Kamala D. HarrisPrecinct #3 - Pioneer Room HSB                         01 
00040020004000025000010000011000004000000000000000000000000000000000000000000000000000000000000000000DEM       President / Vice-President                              DEM Joseph R. Biden / Kamala D. HarrisPrecinct #4 - FBC                                      01 
00040020005000005000003000002000000000000000000000000000000000000000000000000000000000000000000000000DEM       President / Vice-President                              DEM Joseph R. Biden / Kamala D. HarrisPrecinct #6 - Hope Center                              01 
00040030001000001000001000000000000000000000000000000000000000000000000000000000000000000000000000000LIB       President / Vice-President                              LIB Jo Jorgensen / Jeremy "Spike" CohePrecinct #1 - Silverton Librar                         01 
00040030002000000000000000000000000000000000000000000000000000000000000000000000000000000000000000000LIB       President / Vice-President                              LIB Jo Jorgensen / Jeremy "Spike" CohePrecinct #2 - Hope Center                              01 
00040030003000005000002000001000002000000000000000000000000000000000000000000000000000000000000000000LIB       President / Vice-President                              LIB Jo Jorgensen / Jeremy "Spike" CohePrecinct #3 - Pioneer Room HSB                         01 
00040030004000001000000000001000000000000000000000000000000000000000000000000000000000000000000000000LIB       President / Vice-President                              LIB Jo Jorgensen / Jeremy "Spike" CohePrecinct #4 - FBC                                      01 
00040030005000000000000000000000000000000000000000000000000000000000000000000000000000000000000000000LIB       President / Vice-President                              LIB Jo Jorgensen / Jeremy "Spike" CohePrecinct #6 - Hope Center                              01 
00040040001000000000000000000000000000000000000000000000000000000000000000000000000000000000000000000GRN       President / Vice-President                              GRN Howie Hawkins / Angela Walker     Precinct #1 - Silverton Librar                         01 
00040040002000001000000000000000001000000000000000000000000000000000000000000000000000000000000000000GRN       President / Vice-President                              GRN Howie Hawkins / Angela Walker     Precinct #2 - Hope Center                              01 
00040040003000000000000000000000000000000000000000000000000000000000000000000000000000000000000000000GRN       President / Vice-President                              GRN Howie Hawkins / Angela Walker     Precinct #3 - Pioneer Room HSB                         01 
00040040004000000000000000000000000000000000000000000000000000000000000000000000000000000000000000000GRN       President / Vice-President                              GRN Howie Hawkins / Angela Walker     Precinct #4 - FBC                                      01 
00040040005000000000000000000000000000000000000000000000000000000000000000000000000000000000000000000GRN       President / Vice-President                              GRN Howie Hawkins / Angela Walker     Precinct #6 - Hope Center                              01 
00050010001000081000017000041000023000000000000000000000000000000000000000000000000000000000000000000REP       US Senator                                              REP John Cornyn                       Precinct #1 - Silverton Librar                         01 
00050010002000145000008000044000093000000000000000000000000000000000000000000000000000000000000000000REP       US Senator                                              REP John Cornyn                       Precinct #2 - Hope Center                              01 
00050010003000157000018000097000042000000000000000000000000000000000000000000000000000000000000000000REP       US Senator                                              REP John Cornyn                       Precinct #3 - Pioneer Room HSB                         01 
00050010004000204000029000124000051000000000000000000000000000000000000000000000000000000000000000000REP       US Senator                                              REP John Cornyn                       Precinct #4 - FBC                                      01 
00050010005000038000001000013000024000000000000000000000000000000000000000000000000000000000000000000REP       US Senator                                              REP John Cornyn                       Precinct #6 - Hope Center                              01 
00050020001000014000003000005000006000000000000000000000000000000000000000000000000000000000000000000DEM       US Senator                                              DEM Mary "MJ" Hegar                   Precinct #1 - Silverton Librar                         01 
00050020002000018000005000007000006000000000000000000000000000000000000000000000000000000000000000000DEM       US Senator                                              DEM Mary "MJ" Hegar                   Precinct #2 - Hope Center                              01 
00050020003000019000003000006000010000000000000000000000000000000000000000000000000000000000000000000DEM       US Senator                                              DEM Mary "MJ" Hegar                   Precinct #3 - Pioneer Room HSB                         01 
00050020004000023000009000010000004000000000000000000000000000000000000000000000000000000000000000000DEM       US Senator                                              DEM Mary "MJ" Hegar                   Precinct #4 - FBC                                      01 
00050020005000005000003000002000000000000000000000000000000000000000000000000000000000000000000000000DEM       US Senator                                              DEM Mary "MJ" Hegar                   Precinct #6 - Hope Center                              01 
00050030001000002000000000000000002000000000000000000000000000000000000000000000000000000000000000000LIB       US Senator                                              LIB Kerry Douglas McKennon            Precinct #1 - Silverton Librar                         01 
00050030002000003000000000001000002000000000000000000000000000000000000000000000000000000000000000000LIB       US Senator                                              LIB Kerry Douglas McKennon            Precinct #2 - Hope Center                              01 
00050030003000000000000000000000000000000000000000000000000000000000000000000000000000000000000000000LIB       US Senator                                              LIB Kerry Douglas McKennon            Precinct #3 - Pioneer Room HSB                         01 
00050030004000001000000000001000000000000000000000000000000000000000000000000000000000000000000000000LIB       US Senator                                              LIB Kerry Douglas McKennon            Precinct #4 - FBC                                      01 
00050030005000000000000000000000000000000000000000000000000000000000000000000000000000000000000000000LIB       US Senator                                              LIB Kerry Douglas McKennon            Precinct #6 - Hope Center                              01 
00050040001000000000000000000000000000000000000000000000000000000000000000000000000000000000000000000GRN       US Senator                                              GRN David B. Collins                  Precinct #1 - Silverton Librar                         01 
00050040002000002000000000001000001000000000000000000000000000000000000000000000000000000000000000000GRN       US Senator                                              GRN David B. Collins                  Precinct #2 - Hope Center                              01 
00050040003000001000000000000000001000000000000000000000000000000000000000000000000000000000000000000GRN       US Senator                                              GRN David B. Collins                  Precinct #3 - Pioneer Room HSB                         01 
00050040004000001000000000001000000000000000000000000000000000000000000000000000000000000000000000000GRN       US Senator                                              GRN David B. Collins                  Precinct #4 - FBC                                      01 
00050040005000001000000000000000001000000000000000000000000000000000000000000000000000000000000000000GRN       US Senator                                              GRN David B. Collins                  Precinct #6 - Hope Center                              01 
00060010001000085000017000041000027000000000000000000000000000000000000000000000000000000000000000000REP       US Representative, Dist 13                              REP Ronny Jackson                     Precinct #1 - Silverton Librar                         01 
00060010002000154000011000046000097000000000000000000000000000000000000000000000000000000000000000000REP       US Representative, Dist 13                              REP Ronny Jackson                     Precinct #2 - Hope Center                              01 
00060010003000159000017000099000043000000000000000000000000000000000000000000000000000000000000000000REP       US Representative, Dist 13                              REP Ronny Jackson                     Precinct #3 - Pioneer Room HSB                         01 
00060010004000202000029000124000049000000000000000000000000000000000000000000000000000000000000000000REP       US Representative, Dist 13                              REP Ronny Jackson                     Precinct #4 - FBC                                      01 
00060010005000037000001000012000024000000000000000000000000000000000000000000000000000000000000000000REP       US Representative, Dist 13                              REP Ronny Jackson                     Precinct #6 - Hope Center                              01 
00060020001000014000003000005000006000000000000000000000000000000000000000000000000000000000000000000DEM       US Representative, Dist 13                              DEM Gus Trujillo                      Precinct #1 - Silverton Librar                         01 
00060020002000015000002000007000006000000000000000000000000000000000000000000000000000000000000000000DEM       US Representative, Dist 13                              DEM Gus Trujillo                      Precinct #2 - Hope Center                              01 
00060020003000018000005000005000008000000000000000000000000000000000000000000000000000000000000000000DEM       US Representative, Dist 13                              DEM Gus Trujillo                      Precinct #3 - Pioneer Room HSB                         01 
00060020004000023000008000010000005000000000000000000000000000000000000000000000000000000000000000000DEM       US Representative, Dist 13                              DEM Gus Trujillo                      Precinct #4 - FBC                                      01 
00060020005000007000003000003000001000000000000000000000000000000000000000000000000000000000000000000DEM       US Representative, Dist 13                              DEM Gus Trujillo                      Precinct #6 - Hope Center                              01 
00060030001000000000000000000000000000000000000000000000000000000000000000000000000000000000000000000LIB       US Representative, Dist 13                              LIB Jack B. Westbrook                 Precinct #1 - Silverton Librar                         01 
00060030002000002000001000000000001000000000000000000000000000000000000000000000000000000000000000000LIB       US Representative, Dist 13                              LIB Jack B. Westbrook                 Precinct #2 - Hope Center                              01 
00060030003000003000000000000000003000000000000000000000000000000000000000000000000000000000000000000LIB       US Representative, Dist 13                              LIB Jack B. Westbrook                 Precinct #3 - Pioneer Room HSB                         01 
00060030004000005000001000003000001000000000000000000000000000000000000000000000000000000000000000000LIB       US Representative, Dist 13                              LIB Jack B. Westbrook                 Precinct #4 - FBC                                      01 
00060030005000000000000000000000000000000000000000000000000000000000000000000000000000000000000000000LIB       US Representative, Dist 13                              LIB Jack B. Westbrook                 Precinct #6 - Hope Center                              01 
00070010001000084000017000041000026000000000000000000000000000000000000000000000000000000000000000000REP       Railroad Commissioner                                   REP James "Jim" Wright                Precinct #1 - Silverton Librar                         01 
00070010002000152000010000047000095000000000000000000000000000000000000000000000000000000000000000000REP       Railroad Commissioner                                   REP James "Jim" Wright                Precinct #2 - Hope Center                              01 
00070010003000157000017000098000042000000000000000000000000000000000000000000000000000000000000000000REP       Railroad Commissioner                                   REP James "Jim" Wright                Precinct #3 - Pioneer Room HSB                         01 
00070010004000204000028000126000050000000000000000000000000000000000000000000000000000000000000000000REP       Railroad Commissioner                                   REP James "Jim" Wright                Precinct #4 - FBC                                      01 
00070010005000038000001000012000025000000000000000000000000000000000000000000000000000000000000000000REP       Railroad Commissioner                                   REP James "Jim" Wright                Precinct #6 - Hope Center                              01 
00070020001000014000003000005000006000000000000000000000000000000000000000000000000000000000000000000DEM       Railroad Commissioner                                   DEM Chrysta Castaneda                 Precinct #1 - Silverton Librar                         01 
00070020002000015000003000006000006000000000000000000000000000000000000000000000000000000000000000000DEM       Railroad Commissioner                                   DEM Chrysta Castaneda                 Precinct #2 - Hope Center                              01 
00070020003000017000005000004000008000000000000000000000000000000000000000000000000000000000000000000DEM       Railroad Commissioner                                   DEM Chrysta Castaneda                 Precinct #3 - Pioneer Room HSB                         01 
00070020004000022000008000010000004000000000000000000000000000000000000000000000000000000000000000000DEM       Railroad Commissioner                                   DEM Chrysta Castaneda                 Precinct #4 - FBC                                      01 
00070020005000005000003000002000000000000000000000000000000000000000000000000000000000000000000000000DEM       Railroad Commissioner                                   DEM Chrysta Castaneda                 Precinct #6 - Hope Center                              01 
00070030001000001000000000000000001000000000000000000000000000000000000000000000000000000000000000000LIB       Railroad Commissioner                                   LIB Matt Sterett                      Precinct #1 - Silverton Librar                         01 
00070030002000002000000000000000002000000000000000000000000000000000000000000000000000000000000000000LIB       Railroad Commissioner                                   LIB Matt Sterett                      Precinct #2 - Hope Center                              01 
00070030003000003000000000001000002000000000000000000000000000000000000000000000000000000000000000000LIB       Railroad Commissioner                                   LIB Matt Sterett                      Precinct #3 - Pioneer Room HSB                         01 
00070030004000001000000000001000000000000000000000000000000000000000000000000000000000000000000000000LIB       Railroad Commissioner                                   LIB Matt Sterett                      Precinct #4 - FBC                                      01 
00070030005000000000000000000000000000000000000000000000000000000000000000000000000000000000000000000LIB       Railroad Commissioner                                   LIB Matt Sterett                      Precinct #6 - Hope Center                              01 
00070040001000000000000000000000000000000000000000000000000000000000000000000000000000000000000000000GRN       Railroad Commissioner                                   GRN Katija "Kat" Gruene               Precinct #1 - Silverton Librar                         01 
00070040002000001000000000000000001000000000000000000000000000000000000000000000000000000000000000000GRN       Railroad Commissioner                                   GRN Katija "Kat" Gruene               Precinct #2 - Hope Center                              01 
00070040003000000000000000000000000000000000000000000000000000000000000000000000000000000000000000000GRN       Railroad Commissioner                                   GRN Katija "Kat" Gruene               Precinct #3 - Pioneer Room HSB                         01 
00070040004000000000000000000000000000000000000000000000000000000000000000000000000000000000000000000GRN       Railroad Commissioner                                   GRN Katija "Kat" Gruene               Precinct #4 - FBC                                      01 
00070040005000000000000000000000000000000000000000000000000000000000000000000000000000000000000000000GRN       Railroad Commissioner                                   GRN Katija "Kat" Gruene               Precinct #6 - Hope Center                              01 
00080010001000081000017000040000024000000000000000000000000000000000000000000000000000000000000000000REP       Chief Justice, Supreme Court                            REP Nathan Hecht                      Precinct #1 - Silverton Librar                         01 
00080010002000149000010000046000093000000000000000000000000000000000000000000000000000000000000000000REP       Chief Justice, Supreme Court                            REP Nathan Hecht                      Precinct #2 - Hope Center                              01 
00080010003000158000017000099000042000000000000000000000000000000000000000000000000000000000000000000REP       Chief Justice, Supreme Court                            REP Nathan Hecht                      Precinct #3 - Pioneer Room HSB                         01 
00080010004000200000028000123000049000000000000000000000000000000000000000000000000000000000000000000REP       Chief Justice, Supreme Court                            REP Nathan Hecht                      Precinct #4 - FBC                                      01 
00080010005000038000001000012000025000000000000000000000000000000000000000000000000000000000000000000REP       Chief Justice, Supreme Court                            REP Nathan Hecht                      Precinct #6 - Hope Center                              01 
00080020001000016000003000005000008000000000000000000000000000000000000000000000000000000000000000000DEM       Chief Justice, Supreme Court                            DEM Amy Clark Meachum                 Precinct #1 - Silverton Librar                         01 
00080020002000017000003000006000008000000000000000000000000000000000000000000000000000000000000000000DEM       Chief Justice, Supreme Court                            DEM Amy Clark Meachum                 Precinct #2 - Hope Center                              01 
00080020003000017000005000004000008000000000000000000000000000000000000000000000000000000000000000000DEM       Chief Justice, Supreme Court                            DEM Amy Clark Meachum                 Precinct #3 - Pioneer Room HSB                         01 
00080020004000025000008000012000005000000000000000000000000000000000000000000000000000000000000000000DEM       Chief Justice, Supreme Court                            DEM Amy Clark Meachum                 Precinct #4 - FBC                                      01 
00080020005000007000003000003000001000000000000000000000000000000000000000000000000000000000000000000DEM       Chief Justice, Supreme Court                            DEM Amy Clark Meachum                 Precinct #6 - Hope Center                              01 
00080030001000002000000000001000001000000000000000000000000000000000000000000000000000000000000000000LIB       Chief Justice, Supreme Court                            LIB Mark Ash                          Precinct #1 - Silverton Librar                         01 
00080030002000002000000000000000002000000000000000000000000000000000000000000000000000000000000000000LIB       Chief Justice, Supreme Court                            LIB Mark Ash                          Precinct #2 - Hope Center                              01 
00080030003000001000000000000000001000000000000000000000000000000000000000000000000000000000000000000LIB       Chief Justice, Supreme Court                            LIB Mark Ash                          Precinct #3 - Pioneer Room HSB                         01 
00080030004000002000000000002000000000000000000000000000000000000000000000000000000000000000000000000LIB       Chief Justice, Supreme Court                            LIB Mark Ash                          Precinct #4 - FBC                                      01 
00080030005000000000000000000000000000000000000000000000000000000000000000000000000000000000000000000LIB       Chief Justice, Supreme Court                            LIB Mark Ash                          Precinct #6 - Hope Center                              01 
00090010001000086000018000041000027000000000000000000000000000000000000000000000000000000000000000000REP       Justice, Supreme Court, Pl 6                            REP Jane Bland                        Precinct #1 - Silverton Librar                         01 
00090010002000154000010000047000097000000000000000000000000000000000000000000000000000000000000000000REP       Justice, Supreme Court, Pl 6                            REP Jane Bland                        Precinct #2 - Hope Center                              01 
00090010003000159000017000096000046000000000000000000000000000000000000000000000000000000000000000000REP       Justice, Supreme Court, Pl 6                            REP Jane Bland                        Precinct #3 - Pioneer Room HSB                         01 
00090010004000205000028000127000050000000000000000000000000000000000000000000000000000000000000000000REP       Justice, Supreme Court, Pl 6                            REP Jane Bland                        Precinct #4 - FBC                                      01 
00090010005000039000001000012000026000000000000000000000000000000000000000000000000000000000000000000REP       Justice, Supreme Court, Pl 6                            REP Jane Bland                        Precinct #6 - Hope Center                              01 
00090020001000013000002000005000006000000000000000000000000000000000000000000000000000000000000000000DEM       Justice, Supreme Court, Pl 6                            DEM Kathy Cheng                       Precinct #1 - Silverton Librar                         01 
00090020002000016000003000006000007000000000000000000000000000000000000000000000000000000000000000000DEM       Justice, Supreme Court, Pl 6                            DEM Kathy Cheng                       Precinct #2 - Hope Center                              01 
00090020003000019000005000007000007000000000000000000000000000000000000000000000000000000000000000000DEM       Justice, Supreme Court, Pl 6                            DEM Kathy Cheng                       Precinct #3 - Pioneer Room HSB                         01 
00090020004000022000008000010000004000000000000000000000000000000000000000000000000000000000000000000DEM       Justice, Supreme Court, Pl 6                            DEM Kathy Cheng                       Precinct #4 - FBC                                      01 
00090020005000005000003000002000000000000000000000000000000000000000000000000000000000000000000000000DEM       Justice, Supreme Court, Pl 6                            DEM Kathy Cheng                       Precinct #6 - Hope Center                              01 
00100010001000085000017000041000027000000000000000000000000000000000000000000000000000000000000000000REP       Justice, Supreme Court, Pl 7                            REP Jeff Boyd                         Precinct #1 - Silverton Librar                         01 
00100010002000153000010000047000096000000000000000000000000000000000000000000000000000000000000000000REP       Justice, Supreme Court, Pl 7                            REP Jeff Boyd                         Precinct #2 - Hope Center                              01 
00100010003000156000017000096000043000000000000000000000000000000000000000000000000000000000000000000REP       Justice, Supreme Court, Pl 7                            REP Jeff Boyd                         Precinct #3 - Pioneer Room HSB                         01 
00100010004000202000028000125000049000000000000000000000000000000000000000000000000000000000000000000REP       Justice, Supreme Court, Pl 7                            REP Jeff Boyd                         Precinct #4 - FBC                                      01 
00100010005000039000001000012000026000000000000000000000000000000000000000000000000000000000000000000REP       Justice, Supreme Court, Pl 7                            REP Jeff Boyd                         Precinct #6 - Hope Center                              01 
00100020001000011000002000005000004000000000000000000000000000000000000000000000000000000000000000000DEM       Justice, Supreme Court, Pl 7                            DEM Staci Williams                    Precinct #1 - Silverton Librar                         01 
00100020002000014000003000006000005000000000000000000000000000000000000000000000000000000000000000000DEM       Justice, Supreme Court, Pl 7                            DEM Staci Williams                    Precinct #2 - Hope Center                              01 
00100020003000015000005000005000005000000000000000000000000000000000000000000000000000000000000000000DEM       Justice, Supreme Court, Pl 7                            DEM Staci Williams                    Precinct #3 - Pioneer Room HSB                         01 
00100020004000023000008000011000004000000000000000000000000000000000000000000000000000000000000000000DEM       Justice, Supreme Court, Pl 7                            DEM Staci Williams                    Precinct #4 - FBC                                      01 
00100020005000005000003000002000000000000000000000000000000000000000000000000000000000000000000000000DEM       Justice, Supreme Court, Pl 7                            DEM Staci Williams                    Precinct #6 - Hope Center                              01 
00100030001000001000000000000000001000000000000000000000000000000000000000000000000000000000000000000LIB       Justice, Supreme Court, Pl 7                            LIB William Bryan Strange III         Precinct #1 - Silverton Librar                         01 
00100030002000002000000000000000002000000000000000000000000000000000000000000000000000000000000000000LIB       Justice, Supreme Court, Pl 7                            LIB William Bryan Strange III         Precinct #2 - Hope Center                              01 
00100030003000005000000000002000003000000000000000000000000000000000000000000000000000000000000000000LIB       Justice, Supreme Court, Pl 7                            LIB William Bryan Strange III         Precinct #3 - Pioneer Room HSB                         01 
00100030004000002000000000001000001000000000000000000000000000000000000000000000000000000000000000000LIB       Justice, Supreme Court, Pl 7                            LIB William Bryan Strange III         Precinct #4 - FBC                                      01 
00100030005000000000000000000000000000000000000000000000000000000000000000000000000000000000000000000LIB       Justice, Supreme Court, Pl 7                            LIB William Bryan Strange III         Precinct #6 - Hope Center                              01 
00110010001000085000018000041000026000000000000000000000000000000000000000000000000000000000000000000REP       Justice, Supreme Court, Pl 8                            REP Brett Busby                       Precinct #1 - Silverton Librar                         01 
00110010002000151000011000047000093000000000000000000000000000000000000000000000000000000000000000000REP       Justice, Supreme Court, Pl 8                            REP Brett Busby                       Precinct #2 - Hope Center                              01 
00110010003000156000018000096000042000000000000000000000000000000000000000000000000000000000000000000REP       Justice, Supreme Court, Pl 8                            REP Brett Busby                       Precinct #3 - Pioneer Room HSB                         01 
00110010004000204000028000126000050000000000000000000000000000000000000000000000000000000000000000000REP       Justice, Supreme Court, Pl 8                            REP Brett Busby                       Precinct #4 - FBC                                      01 
00110010005000038000001000012000025000000000000000000000000000000000000000000000000000000000000000000REP       Justice, Supreme Court, Pl 8                            REP Brett Busby                       Precinct #6 - Hope Center                              01 
00110020001000012000002000005000005000000000000000000000000000000000000000000000000000000000000000000DEM       Justice, Supreme Court, Pl 8                            DEM Gisela D. Triana                  Precinct #1 - Silverton Librar                         01 
00110020002000018000003000006000009000000000000000000000000000000000000000000000000000000000000000000DEM       Justice, Supreme Court, Pl 8                            DEM Gisela D. Triana                  Precinct #2 - Hope Center                              01 
00110020003000018000004000006000008000000000000000000000000000000000000000000000000000000000000000000DEM       Justice, Supreme Court, Pl 8                            DEM Gisela D. Triana                  Precinct #3 - Pioneer Room HSB                         01 
00110020004000021000008000010000003000000000000000000000000000000000000000000000000000000000000000000DEM       Justice, Supreme Court, Pl 8                            DEM Gisela D. Triana                  Precinct #4 - FBC                                      01 
00110020005000004000002000002000000000000000000000000000000000000000000000000000000000000000000000000DEM       Justice, Supreme Court, Pl 8                            DEM Gisela D. Triana                  Precinct #6 - Hope Center                              01 
00110030001000001000000000000000001000000000000000000000000000000000000000000000000000000000000000000LIB       Justice, Supreme Court, Pl 8                            LIB Tom Oxford                        Precinct #1 - Silverton Librar                         01 
00110030002000001000000000000000001000000000000000000000000000000000000000000000000000000000000000000LIB       Justice, Supreme Court, Pl 8                            LIB Tom Oxford                        Precinct #2 - Hope Center                              01 
00110030003000002000000000001000001000000000000000000000000000000000000000000000000000000000000000000LIB       Justice, Supreme Court, Pl 8                            LIB Tom Oxford                        Precinct #3 - Pioneer Room HSB                         01 
00110030004000001000000000001000000000000000000000000000000000000000000000000000000000000000000000000LIB       Justice, Supreme Court, Pl 8                            LIB Tom Oxford                        Precinct #4 - FBC                                      01 
00110030005000001000001000000000000000000000000000000000000000000000000000000000000000000000000000000LIB       Justice, Supreme Court, Pl 8                            LIB Tom Oxford                        Precinct #6 - Hope Center                              01 
00120010001000083000017000041000025000000000000000000000000000000000000000000000000000000000000000000REP       Judge, Ct of Crim App, Pl 3                             REP Bert Richardson                   Precinct #1 - Silverton Librar                         01 
00120010002000151000010000047000094000000000000000000000000000000000000000000000000000000000000000000REP       Judge, Ct of Crim App, Pl 3                             REP Bert Richardson                   Precinct #2 - Hope Center                              01 
00120010003000156000017000096000043000000000000000000000000000000000000000000000000000000000000000000REP       Judge, Ct of Crim App, Pl 3                             REP Bert Richardson                   Precinct #3 - Pioneer Room HSB                         01 
00120010004000206000028000126000052000000000000000000000000000000000000000000000000000000000000000000REP       Judge, Ct of Crim App, Pl 3                             REP Bert Richardson                   Precinct #4 - FBC                                      01 
00120010005000039000001000012000026000000000000000000000000000000000000000000000000000000000000000000REP       Judge, Ct of Crim App, Pl 3                             REP Bert Richardson                   Precinct #6 - Hope Center                              01 
00120020001000014000003000005000006000000000000000000000000000000000000000000000000000000000000000000DEM       Judge, Ct of Crim App, Pl 3                             DEM Elizabeth Davis Frizell           Precinct #1 - Silverton Librar                         01 
00120020002000018000003000006000009000000000000000000000000000000000000000000000000000000000000000000DEM       Judge, Ct of Crim App, Pl 3                             DEM Elizabeth Davis Frizell           Precinct #2 - Hope Center                              01 
00120020003000018000004000006000008000000000000000000000000000000000000000000000000000000000000000000DEM       Judge, Ct of Crim App, Pl 3                             DEM Elizabeth Davis Frizell           Precinct #3 - Pioneer Room HSB                         01 
00120020004000021000008000010000003000000000000000000000000000000000000000000000000000000000000000000DEM       Judge, Ct of Crim App, Pl 3                             DEM Elizabeth Davis Frizell           Precinct #4 - FBC                                      01 
00120020005000005000003000002000000000000000000000000000000000000000000000000000000000000000000000000DEM       Judge, Ct of Crim App, Pl 3                             DEM Elizabeth Davis Frizell           Precinct #6 - Hope Center                              01 
00130010001000085000017000041000027000000000000000000000000000000000000000000000000000000000000000000REP       Judge, Ct of Crim App, Pl 4                             REP Kevin Patrick Yeary               Precinct #1 - Silverton Librar                         01 
00130010002000152000009000047000096000000000000000000000000000000000000000000000000000000000000000000REP       Judge, Ct of Crim App, Pl 4                             REP Kevin Patrick Yeary               Precinct #2 - Hope Center                              01 
00130010003000157000016000097000044000000000000000000000000000000000000000000000000000000000000000000REP       Judge, Ct of Crim App, Pl 4                             REP Kevin Patrick Yeary               Precinct #3 - Pioneer Room HSB                         01 
00130010004000204000028000127000049000000000000000000000000000000000000000000000000000000000000000000REP       Judge, Ct of Crim App, Pl 4                             REP Kevin Patrick Yeary               Precinct #4 - FBC                                      01 
00130010005000040000001000013000026000000000000000000000000000000000000000000000000000000000000000000REP       Judge, Ct of Crim App, Pl 4                             REP Kevin Patrick Yeary               Precinct #6 - Hope Center                              01 
00130020001000013000003000005000005000000000000000000000000000000000000000000000000000000000000000000DEM       Judge, Ct of Crim App, Pl 4                             DEM Tina Clinton                      Precinct #1 - Silverton Librar                         01 
00130020002000017000003000006000008000000000000000000000000000000000000000000000000000000000000000000DEM       Judge, Ct of Crim App, Pl 4                             DEM Tina Clinton                      Precinct #2 - Hope Center                              01 
00130020003000018000005000006000007000000000000000000000000000000000000000000000000000000000000000000DEM       Judge, Ct of Crim App, Pl 4                             DEM Tina Clinton                      Precinct #3 - Pioneer Room HSB                         01 
00130020004000023000008000010000005000000000000000000000000000000000000000000000000000000000000000000DEM       Judge, Ct of Crim App, Pl 4                             DEM Tina Clinton                      Precinct #4 - FBC                                      01 
00130020005000004000003000001000000000000000000000000000000000000000000000000000000000000000000000000DEM       Judge, Ct of Crim App, Pl 4                             DEM Tina Clinton                      Precinct #6 - Hope Center                              01 
00140010001000085000017000041000027000000000000000000000000000000000000000000000000000000000000000000REP       Judge, Ct of Crim App, Pl 9                             REP David Newell                      Precinct #1 - Silverton Librar                         01 
00140010002000152000010000047000095000000000000000000000000000000000000000000000000000000000000000000REP       Judge, Ct of Crim App, Pl 9                             REP David Newell                      Precinct #2 - Hope Center                              01 
00140010003000159000017000099000043000000000000000000000000000000000000000000000000000000000000000000REP       Judge, Ct of Crim App, Pl 9                             REP David Newell                      Precinct #3 - Pioneer Room HSB                         01 
00140010004000204000028000126000050000000000000000000000000000000000000000000000000000000000000000000REP       Judge, Ct of Crim App, Pl 9                             REP David Newell                      Precinct #4 - FBC                                      01 
00140010005000038000001000012000025000000000000000000000000000000000000000000000000000000000000000000REP       Judge, Ct of Crim App, Pl 9                             REP David Newell                      Precinct #6 - Hope Center                              01 
00140020001000013000003000005000005000000000000000000000000000000000000000000000000000000000000000000DEM       Judge, Ct of Crim App, Pl 9                             DEM Brandon Birmingham                Precinct #1 - Silverton Librar                         01 
00140020002000017000003000006000008000000000000000000000000000000000000000000000000000000000000000000DEM       Judge, Ct of Crim App, Pl 9                             DEM Brandon Birmingham                Precinct #2 - Hope Center                              01 
00140020003000016000004000004000008000000000000000000000000000000000000000000000000000000000000000000DEM       Judge, Ct of Crim App, Pl 9                             DEM Brandon Birmingham                Precinct #3 - Pioneer Room HSB                         01 
00140020004000023000008000011000004000000000000000000000000000000000000000000000000000000000000000000DEM       Judge, Ct of Crim App, Pl 9                             DEM Brandon Birmingham                Precinct #4 - FBC                                      01 
00140020005000005000003000002000000000000000000000000000000000000000000000000000000000000000000000000DEM       Judge, Ct of Crim App, Pl 9                             DEM Brandon Birmingham                Precinct #6 - Hope Center                              01 
00150010001000083000018000041000024000000000000000000000000000000000000000000000000000000000000000000REP       Member, State BoE, Dist 15                              REP Jay Johnson                       Precinct #1 - Silverton Librar                         01 
00150010002000154000010000047000097000000000000000000000000000000000000000000000000000000000000000000REP       Member, State BoE, Dist 15                              REP Jay Johnson                       Precinct #2 - Hope Center                              01 
00150010003000159000017000098000044000000000000000000000000000000000000000000000000000000000000000000REP       Member, State BoE, Dist 15                              REP Jay Johnson                       Precinct #3 - Pioneer Room HSB                         01 
00150010004000202000028000124000050000000000000000000000000000000000000000000000000000000000000000000REP       Member, State BoE, Dist 15                              REP Jay Johnson                       Precinct #4 - FBC                                      01 
00150010005000039000001000012000026000000000000000000000000000000000000000000000000000000000000000000REP       Member, State BoE, Dist 15                              REP Jay Johnson                       Precinct #6 - Hope Center                              01 
00150020001000013000002000005000006000000000000000000000000000000000000000000000000000000000000000000DEM       Member, State BoE, Dist 15                              DEM John Betancourt                   Precinct #1 - Silverton Librar                         01 
00150020002000016000003000006000007000000000000000000000000000000000000000000000000000000000000000000DEM       Member, State BoE, Dist 15                              DEM John Betancourt                   Precinct #2 - Hope Center                              01 
00150020003000018000005000005000008000000000000000000000000000000000000000000000000000000000000000000DEM       Member, State BoE, Dist 15                              DEM John Betancourt                   Precinct #3 - Pioneer Room HSB                         01 
00150020004000022000008000011000003000000000000000000000000000000000000000000000000000000000000000000DEM       Member, State BoE, Dist 15                              DEM John Betancourt                   Precinct #4 - FBC                                      01 
00150020005000005000003000002000000000000000000000000000000000000000000000000000000000000000000000000DEM       Member, State BoE, Dist 15                              DEM John Betancourt                   Precinct #6 - Hope Center                              01 
00160010001000089000017000041000031000000000000000000000000000000000000000000000000000000000000000000REP       State Representative, Dist 88                           REP Ken King                          Precinct #1 - Silverton Librar                         01 
00160010002000164000011000052000101000000000000000000000000000000000000000000000000000000000000000000REP       State Representative, Dist 88                           REP Ken King                          Precinct #2 - Hope Center                              01 
00160010003000170000021000100000049000000000000000000000000000000000000000000000000000000000000000000REP       State Representative, Dist 88                           REP Ken King                          Precinct #3 - Pioneer Room HSB                         01 
00160010004000210000029000129000052000000000000000000000000000000000000000000000000000000000000000000REP       State Representative, Dist 88                           REP Ken King                          Precinct #4 - FBC                                      01 
00160010005000039000001000013000025000000000000000000000000000000000000000000000000000000000000000000REP       State Representative, Dist 88                           REP Ken King                          Precinct #6 - Hope Center                              01 
00170010001000088000018000041000029000000000000000000000000000000000000000000000000000000000000000000REP       Chief Justice, 7th Ct of App Dist                       REP Brian Quinn                       Precinct #1 - Silverton Librar                         01 
00170010002000165000012000052000101000000000000000000000000000000000000000000000000000000000000000000REP       Chief Justice, 7th Ct of App Dist                       REP Brian Quinn                       Precinct #2 - Hope Center                              01 
00170010003000169000021000100000048000000000000000000000000000000000000000000000000000000000000000000REP       Chief Justice, 7th Ct of App Dist                       REP Brian Quinn                       Precinct #3 - Pioneer Room HSB                         01 
00170010004000213000028000131000054000000000000000000000000000000000000000000000000000000000000000000REP       Chief Justice, 7th Ct of App Dist                       REP Brian Quinn                       Precinct #4 - FBC                                      01 
00170010005000038000001000013000024000000000000000000000000000000000000000000000000000000000000000000REP       Chief Justice, 7th Ct of App Dist                       REP Brian Quinn                       Precinct #6 - Hope Center                              01 
00180010001000087000017000041000029000000000000000000000000000000000000000000000000000000000000000000REP       Justice, 7th Ct of App Dist, Pl 4                       REP Larry Doss                        Precinct #1 - Silverton Librar                         01 
00180010002000166000012000052000102000000000000000000000000000000000000000000000000000000000000000000REP       Justice, 7th Ct of App Dist, Pl 4                       REP Larry Doss                        Precinct #2 - Hope Center                              01 
00180010003000168000021000099000048000000000000000000000000000000000000000000000000000000000000000000REP       Justice, 7th Ct of App Dist, Pl 4                       REP Larry Doss                        Precinct #3 - Pioneer Room HSB                         01 
00180010004000211000027000131000053000000000000000000000000000000000000000000000000000000000000000000REP       Justice, 7th Ct of App Dist, Pl 4                       REP Larry Doss                        Precinct #4 - FBC                                      01 
00180010005000039000001000013000025000000000000000000000000000000000000000000000000000000000000000000REP       Justice, 7th Ct of App Dist, Pl 4                       REP Larry Doss                        Precinct #6 - Hope Center                              01 
00190010001000091000018000043000030000000000000000000000000000000000000000000000000000000000000000000REP       Dist Attorney, 110th Judicial Dist                      REP Wade Jackson                      Precinct #1 - Silverton Librar                         01 
00190010002000167000012000053000102000000000000000000000000000000000000000000000000000000000000000000REP       Dist Attorney, 110th Judicial Dist                      REP Wade Jackson                      Precinct #2 - Hope Center                              01 
00190010003000172000021000102000049000000000000000000000000000000000000000000000000000000000000000000REP       Dist Attorney, 110th Judicial Dist                      REP Wade Jackson                      Precinct #3 - Pioneer Room HSB                         01 
00190010004000212000029000130000053000000000000000000000000000000000000000000000000000000000000000000REP       Dist Attorney, 110th Judicial Dist                      REP Wade Jackson                      Precinct #4 - FBC                                      01 
00190010005000040000001000014000025000000000000000000000000000000000000000000000000000000000000000000REP       Dist Attorney, 110th Judicial Dist                      REP Wade Jackson                      Precinct #6 - Hope Center                              01 
00200010001000083000016000040000027000000000000000000000000000000000000000000000000000000000000000000REP       County Attorney                                         REP Emily Teegardin                   Precinct #1 - Silverton Librar                         01 
00200010002000166000012000052000102000000000000000000000000000000000000000000000000000000000000000000REP       County Attorney                                         REP Emily Teegardin                   Precinct #2 - Hope Center                              01 
00200010003000173000021000100000052000000000000000000000000000000000000000000000000000000000000000000REP       County Attorney                                         REP Emily Teegardin                   Precinct #3 - Pioneer Room HSB                         01 
00200010004000205000029000126000050000000000000000000000000000000000000000000000000000000000000000000REP       County Attorney                                         REP Emily Teegardin                   Precinct #4 - FBC                                      01 
00200010005000041000002000015000024000000000000000000000000000000000000000000000000000000000000000000REP       County Attorney                                         REP Emily Teegardin                   Precinct #6 - Hope Center                              01 
00210010001000086000018000039000029000000000000000000000000000000000000000000000000000000000000000000REP       Sheriff                                                 REP Garrett Davis                     Precinct #1 - Silverton Librar                         01 
00210010002000167000013000052000102000000000000000000000000000000000000000000000000000000000000000000REP       Sheriff                                                 REP Garrett Davis                     Precinct #2 - Hope Center                              01 
00210010003000169000021000096000052000000000000000000000000000000000000000000000000000000000000000000REP       Sheriff                                                 REP Garrett Davis                     Precinct #3 - Pioneer Room HSB                         01 
00210010004000216000032000133000051000000000000000000000000000000000000000000000000000000000000000000REP       Sheriff                                                 REP Garrett Davis                     Precinct #4 - FBC                                      01 
00210010005000041000001000014000026000000000000000000000000000000000000000000000000000000000000000000REP       Sheriff                                                 REP Garrett Davis                     Precinct #6 - Hope Center                              01 
00220010001000089000019000039000031000000000000000000000000000000000000000000000000000000000000000000REP       County Tax Assessor-Collector                           REP Jon Etta Ziegler                  Precinct #1 - Silverton Librar                         01 
00220010002000168000013000053000102000000000000000000000000000000000000000000000000000000000000000000REP       County Tax Assessor-Collector                           REP Jon Etta Ziegler                  Precinct #2 - Hope Center                              01 
00220010003000173000021000101000051000000000000000000000000000000000000000000000000000000000000000000REP       County Tax Assessor-Collector                           REP Jon Etta Ziegler                  Precinct #3 - Pioneer Room HSB                         01 
00220010004000217000035000129000053000000000000000000000000000000000000000000000000000000000000000000REP       County Tax Assessor-Collector                           REP Jon Etta Ziegler                  Precinct #4 - FBC                                      01 
00220010005000044000004000015000025000000000000000000000000000000000000000000000000000000000000000000REP       County Tax Assessor-Collector                           REP Jon Etta Ziegler                  Precinct #6 - Hope Center                              01 
00230010001000083000017000037000029000000000000000000000000000000000000000000000000000000000000000000REPCOM001 County Commissioner Pct 1                               REP Ken Wood                          Precinct #1 - Silverton LibrarPrecinct 1               01 
00230010005000042000001000015000026000000000000000000000000000000000000000000000000000000000000000000REPCOM001 County Commissioner Pct 1                               REP Ken Wood                          Precinct #6 - Hope Center     Precinct 1               01 
00240010003000174000021000100000053000000000000000000000000000000000000000000000000000000000000000000REPCOM003 County Commissioner Pct 3                               REP Danny Francis                     Precinct #3 - Pioneer Room HSBPrecinct 3               01 
00250010002000170000013000053000104000000000000000000000000000000000000000000000000000000000000000000REPJTP002 Justice of the Peace, Precinct 2                        REP Dan Meyer                         Precinct #2 - Hope Center     Precinct 2               01 
00250010005000043000003000015000025000000000000000000000000000000000000000000000000000000000000000000REPJTP002 Justice of the Peace, Precinct 2                        REP Dan Meyer                         Precinct #6 - Hope Center     Precinct 2               01 
