00010010001001525000000000000000000000000000000000000000000000000000000000000000000000000000000000000          REGISTERED VOTERS - TOTAL                               REGISTERED VOTERS - TOTAL             Precinct 1                                             00 
00010010002001144000000000000000000000000000000000000000000000000000000000000000000000000000000000000          REGISTERED VOTERS - TOTAL                               REGISTERED VOTERS - TOTAL             Precinct 2                                             00 
00010010003000419000000000000000000000000000000000000000000000000000000000000000000000000000000000000          REGISTERED VOTERS - TOTAL                               REGISTERED VOTERS - TOTAL             Precinct 2e                                            00 
00010010004001331000000000000000000000000000000000000000000000000000000000000000000000000000000000000          REGISTERED VOTERS - TOTAL                               REGISTERED VOTERS - TOTAL             Precinct 3                                             00 
00010010005001536000000000000000000000000000000000000000000000000000000000000000000000000000000000000          REGISTERED VOTERS - TOTAL                               REGISTERED VOTERS - TOTAL             Precinct 4                                             00 
00020010001001034000097000812000125000000000000000000000000000000000000000000000000000000000000000000          BALLOTS CAST - TOTAL                                    BALLOTS CAST - TOTAL                  Precinct 1                                             00 
00020010002000811000088000548000175000000000000000000000000000000000000000000000000000000000000000000          BALLOTS CAST - TOTAL                                    BALLOTS CAST - TOTAL                  Precinct 2                                             00 
00020010003000302000036000219000047000000000000000000000000000000000000000000000000000000000000000000          BALLOTS CAST - TOTAL                                    BALLOTS CAST - TOTAL                  Precinct 2e                                            00 
00020010004000885000092000681000112000000000000000000000000000000000000000000000000000000000000000000          BALLOTS CAST - TOTAL                                    BALLOTS CAST - TOTAL                  Precinct 3                                             00 
00020010005001124000122000886000116000000000000000000000000000000000000000000000000000000000000000000          BALLOTS CAST - TOTAL                                    BALLOTS CAST - TOTAL                  Precinct 4                                             00 
00030010001000000000000000000000000000000000000000000000000000000000000000000000000000000000000000000          BALLOTS CAST - BLANK                                    BALLOTS CAST - BLANK                  Precinct 1                                             00 
00030010002000000000000000000000000000000000000000000000000000000000000000000000000000000000000000000          BALLOTS CAST - BLANK                                    BALLOTS CAST - BLANK                  Precinct 2                                             00 
00030010003000000000000000000000000000000000000000000000000000000000000000000000000000000000000000000          BALLOTS CAST - BLANK                                    BALLOTS CAST - BLANK                  Precinct 2e                                            00 
00030010004000000000000000000000000000000000000000000000000000000000000000000000000000000000000000000          BALLOTS CAST - BLANK                                    BALLOTS CAST - BLANK                  Precinct 3                                             00 
00030010005000000000000000000000000000000000000000000000000000000000000000000000000000000000000000000          BALLOTS CAST - BLANK                                    BALLOTS CAST - BLANK                  Precinct 4                                             00 
00040010001000926000072000744000110000000000000000000000000000000000000000000000000000000000000000000REP       President / Vice-President                              REP Donald J. Trump / Michael R. PencePrecinct 1                                             01 
00040010002000690000054000481000155000000000000000000000000000000000000000000000000000000000000000000REP       President / Vice-President                              REP Donald J. Trump / Michael R. PencePrecinct 2                                             01 
00040010003000264000023000200000041000000000000000000000000000000000000000000000000000000000000000000REP       President / Vice-President                              REP Donald J. Trump / Michael R. PencePrecinct 2e                                            01 
00040010004000781000072000609000100000000000000000000000000000000000000000000000000000000000000000000REP       President / Vice-President                              REP Donald J. Trump / Michael R. PencePrecinct 3                                             01 
00040010005000980000090000784000106000000000000000000000000000000000000000000000000000000000000000000REP       President / Vice-President                              REP Donald J. Trump / Michael R. PencePrecinct 4                                             01 
00040020001000092000023000056000013000000000000000000000000000000000000000000000000000000000000000000DEM       President / Vice-President                              DEM Joseph R. Biden / Kamala D. HarrisPrecinct 1                                             01 
00040020002000110000032000060000018000000000000000000000000000000000000000000000000000000000000000000DEM       President / Vice-President                              DEM Joseph R. Biden / Kamala D. HarrisPrecinct 2                                             01 
00040020003000035000012000018000005000000000000000000000000000000000000000000000000000000000000000000DEM       President / Vice-President                              DEM Joseph R. Biden / Kamala D. HarrisPrecinct 2e                                            01 
00040020004000092000018000063000011000000000000000000000000000000000000000000000000000000000000000000DEM       President / Vice-President                              DEM Joseph R. Biden / Kamala D. HarrisPrecinct 3                                             01 
00040020005000122000028000084000010000000000000000000000000000000000000000000000000000000000000000000DEM       President / Vice-President                              DEM Joseph R. Biden / Kamala D. HarrisPrecinct 4                                             01 
00040030001000009000001000007000001000000000000000000000000000000000000000000000000000000000000000000LIB       President / Vice-President                              LIB Jo Jorgensen / Jeremy "Spike" CohePrecinct 1                                             01 
00040030002000007000002000003000002000000000000000000000000000000000000000000000000000000000000000000LIB       President / Vice-President                              LIB Jo Jorgensen / Jeremy "Spike" CohePrecinct 2                                             01 
00040030003000001000001000000000000000000000000000000000000000000000000000000000000000000000000000000LIB       President / Vice-President                              LIB Jo Jorgensen / Jeremy "Spike" CohePrecinct 2e                                            01 
00040030004000004000000000003000001000000000000000000000000000000000000000000000000000000000000000000LIB       President / Vice-President                              LIB Jo Jorgensen / Jeremy "Spike" CohePrecinct 3                                             01 
00040030005000002000000000002000000000000000000000000000000000000000000000000000000000000000000000000LIB       President / Vice-President                              LIB Jo Jorgensen / Jeremy "Spike" CohePrecinct 4                                             01 
00040040001000001000000000000000001000000000000000000000000000000000000000000000000000000000000000000GRN       President / Vice-President                              GRN Howie Hawkins / Angela Walker     Precinct 1                                             01 
00040040002000001000000000001000000000000000000000000000000000000000000000000000000000000000000000000GRN       President / Vice-President                              GRN Howie Hawkins / Angela Walker     Precinct 2                                             01 
00040040003000001000000000000000001000000000000000000000000000000000000000000000000000000000000000000GRN       President / Vice-President                              GRN Howie Hawkins / Angela Walker     Precinct 2e                                            01 
00040040004000002000000000002000000000000000000000000000000000000000000000000000000000000000000000000GRN       President / Vice-President                              GRN Howie Hawkins / Angela Walker     Precinct 3                                             01 
00040040005000004000000000004000000000000000000000000000000000000000000000000000000000000000000000000GRN       President / Vice-President                              GRN Howie Hawkins / Angela Walker     Precinct 4                                             01 
00040060001000000000000000000000000000000000000000000000000000000000000000000000000000000000000000000NON       President / Vice-President                              Write-in                              Precinct 1                                             01 
00040060002000000000000000000000000000000000000000000000000000000000000000000000000000000000000000000NON       President / Vice-President                              Write-in                              Precinct 2                                             01 
00040060003000000000000000000000000000000000000000000000000000000000000000000000000000000000000000000NON       President / Vice-President                              Write-in                              Precinct 2e                                            01 
00040060004000002000000000002000000000000000000000000000000000000000000000000000000000000000000000000NON       President / Vice-President                              Write-in                              Precinct 3                                             01 
00040060005000003000000000003000000000000000000000000000000000000000000000000000000000000000000000000NON       President / Vice-President                              Write-in                              Precinct 4                                             01 
00040070001000000000000000000000000000000000000000000000000000000000000000000000000000000000000000000          President / Vice-President                              OVER VOTES                            Precinct 1                                             01 
00040070002000000000000000000000000000000000000000000000000000000000000000000000000000000000000000000          President / Vice-President                              OVER VOTES                            Precinct 2                                             01 
00040070003000000000000000000000000000000000000000000000000000000000000000000000000000000000000000000          President / Vice-President                              OVER VOTES                            Precinct 2e                                            01 
00040070004000002000002000000000000000000000000000000000000000000000000000000000000000000000000000000          President / Vice-President                              OVER VOTES                            Precinct 3                                             01 
00040070005000001000001000000000000000000000000000000000000000000000000000000000000000000000000000000          President / Vice-President                              OVER VOTES                            Precinct 4                                             01 
00040080001000006000001000005000000000000000000000000000000000000000000000000000000000000000000000000          President / Vice-President                              UNDER VOTES                           Precinct 1                                             01 
00040080002000003000000000003000000000000000000000000000000000000000000000000000000000000000000000000          President / Vice-President                              UNDER VOTES                           Precinct 2                                             01 
00040080003000001000000000001000000000000000000000000000000000000000000000000000000000000000000000000          President / Vice-President                              UNDER VOTES                           Precinct 2e                                            01 
00040080004000002000000000002000000000000000000000000000000000000000000000000000000000000000000000000          President / Vice-President                              UNDER VOTES                           Precinct 3                                             01 
00040080005000006000003000003000000000000000000000000000000000000000000000000000000000000000000000000          President / Vice-President                              UNDER VOTES                           Precinct 4                                             01 
00050010001000909000072000732000105000000000000000000000000000000000000000000000000000000000000000000REP       US Senator                                              REP John Cornyn                       Precinct 1                                             01 
00050010002000670000055000473000142000000000000000000000000000000000000000000000000000000000000000000REP       US Senator                                              REP John Cornyn                       Precinct 2                                             01 
00050010003000264000023000200000041000000000000000000000000000000000000000000000000000000000000000000REP       US Senator                                              REP John Cornyn                       Precinct 2e                                            01 
00050010004000767000074000594000099000000000000000000000000000000000000000000000000000000000000000000REP       US Senator                                              REP John Cornyn                       Precinct 3                                             01 
00050010005000976000092000782000102000000000000000000000000000000000000000000000000000000000000000000REP       US Senator                                              REP John Cornyn                       Precinct 4                                             01 
00050020001000089000020000057000012000000000000000000000000000000000000000000000000000000000000000000DEM       US Senator                                              DEM Mary "MJ" Hegar                   Precinct 1                                             01 
00050020002000110000029000060000021000000000000000000000000000000000000000000000000000000000000000000DEM       US Senator                                              DEM Mary "MJ" Hegar                   Precinct 2                                             01 
00050020003000031000009000016000006000000000000000000000000000000000000000000000000000000000000000000DEM       US Senator                                              DEM Mary "MJ" Hegar                   Precinct 2e                                            01 
00050020004000080000016000056000008000000000000000000000000000000000000000000000000000000000000000000DEM       US Senator                                              DEM Mary "MJ" Hegar                   Precinct 3                                             01 
00050020005000116000028000078000010000000000000000000000000000000000000000000000000000000000000000000DEM       US Senator                                              DEM Mary "MJ" Hegar                   Precinct 4                                             01 
00050030001000011000000000007000004000000000000000000000000000000000000000000000000000000000000000000LIB       US Senator                                              LIB Kerry Douglas McKennon            Precinct 1                                             01 
00050030002000007000001000003000003000000000000000000000000000000000000000000000000000000000000000000LIB       US Senator                                              LIB Kerry Douglas McKennon            Precinct 2                                             01 
00050030003000001000001000000000000000000000000000000000000000000000000000000000000000000000000000000LIB       US Senator                                              LIB Kerry Douglas McKennon            Precinct 2e                                            01 
00050030004000011000000000010000001000000000000000000000000000000000000000000000000000000000000000000LIB       US Senator                                              LIB Kerry Douglas McKennon            Precinct 3                                             01 
00050030005000007000000000006000001000000000000000000000000000000000000000000000000000000000000000000LIB       US Senator                                              LIB Kerry Douglas McKennon            Precinct 4                                             01 
00050040001000004000001000003000000000000000000000000000000000000000000000000000000000000000000000000GRN       US Senator                                              GRN David B. Collins                  Precinct 1                                             01 
00050040002000004000000000002000002000000000000000000000000000000000000000000000000000000000000000000GRN       US Senator                                              GRN David B. Collins                  Precinct 2                                             01 
00050040003000001000001000000000000000000000000000000000000000000000000000000000000000000000000000000GRN       US Senator                                              GRN David B. Collins                  Precinct 2e                                            01 
00050040004000003000000000003000000000000000000000000000000000000000000000000000000000000000000000000GRN       US Senator                                              GRN David B. Collins                  Precinct 3                                             01 
00050040005000004000000000004000000000000000000000000000000000000000000000000000000000000000000000000GRN       US Senator                                              GRN David B. Collins                  Precinct 4                                             01 
00050060001000000000000000000000000000000000000000000000000000000000000000000000000000000000000000000NON       US Senator                                              Write-in                              Precinct 1                                             01 
00050060002000000000000000000000000000000000000000000000000000000000000000000000000000000000000000000NON       US Senator                                              Write-in                              Precinct 2                                             01 
00050060003000000000000000000000000000000000000000000000000000000000000000000000000000000000000000000NON       US Senator                                              Write-in                              Precinct 2e                                            01 
00050060004000000000000000000000000000000000000000000000000000000000000000000000000000000000000000000NON       US Senator                                              Write-in                              Precinct 3                                             01 
00050060005000000000000000000000000000000000000000000000000000000000000000000000000000000000000000000NON       US Senator                                              Write-in                              Precinct 4                                             01 
00050070001000000000000000000000000000000000000000000000000000000000000000000000000000000000000000000          US Senator                                              OVER VOTES                            Precinct 1                                             01 
00050070002000000000000000000000000000000000000000000000000000000000000000000000000000000000000000000          US Senator                                              OVER VOTES                            Precinct 2                                             01 
00050070003000000000000000000000000000000000000000000000000000000000000000000000000000000000000000000          US Senator                                              OVER VOTES                            Precinct 2e                                            01 
00050070004000000000000000000000000000000000000000000000000000000000000000000000000000000000000000000          US Senator                                              OVER VOTES                            Precinct 3                                             01 
00050070005000000000000000000000000000000000000000000000000000000000000000000000000000000000000000000          US Senator                                              OVER VOTES                            Precinct 4                                             01 
00050080001000019000002000013000004000000000000000000000000000000000000000000000000000000000000000000          US Senator                                              UNDER VOTES                           Precinct 1                                             01 
00050080002000020000003000010000007000000000000000000000000000000000000000000000000000000000000000000          US Senator                                              UNDER VOTES                           Precinct 2                                             01 
00050080003000004000001000003000000000000000000000000000000000000000000000000000000000000000000000000          US Senator                                              UNDER VOTES                           Precinct 2e                                            01 
00050080004000024000002000018000004000000000000000000000000000000000000000000000000000000000000000000          US Senator                                              UNDER VOTES                           Precinct 3                                             01 
00050080005000021000002000016000003000000000000000000000000000000000000000000000000000000000000000000          US Senator                                              UNDER VOTES                           Precinct 4                                             01 
00060010001000921000072000738000111000000000000000000000000000000000000000000000000000000000000000000REP       US Representative, Dist 11                              REP August Pfluger                    Precinct 1                                             01 
00060010002000667000054000467000146000000000000000000000000000000000000000000000000000000000000000000REP       US Representative, Dist 11                              REP August Pfluger                    Precinct 2                                             01 
00060010003000263000022000199000042000000000000000000000000000000000000000000000000000000000000000000REP       US Representative, Dist 11                              REP August Pfluger                    Precinct 2e                                            01 
00060010004000780000074000607000099000000000000000000000000000000000000000000000000000000000000000000REP       US Representative, Dist 11                              REP August Pfluger                    Precinct 3                                             01 
00060010005000980000091000785000104000000000000000000000000000000000000000000000000000000000000000000REP       US Representative, Dist 11                              REP August Pfluger                    Precinct 4                                             01 
00060020001000086000020000056000010000000000000000000000000000000000000000000000000000000000000000000DEM       US Representative, Dist 11                              DEM Jon Mark Hogg                     Precinct 1                                             01 
00060020002000099000028000054000017000000000000000000000000000000000000000000000000000000000000000000DEM       US Representative, Dist 11                              DEM Jon Mark Hogg                     Precinct 2                                             01 
00060020003000031000010000016000005000000000000000000000000000000000000000000000000000000000000000000DEM       US Representative, Dist 11                              DEM Jon Mark Hogg                     Precinct 2e                                            01 
00060020004000074000015000050000009000000000000000000000000000000000000000000000000000000000000000000DEM       US Representative, Dist 11                              DEM Jon Mark Hogg                     Precinct 3                                             01 
00060020005000110000028000074000008000000000000000000000000000000000000000000000000000000000000000000DEM       US Representative, Dist 11                              DEM Jon Mark Hogg                     Precinct 4                                             01 
00060030001000005000000000003000002000000000000000000000000000000000000000000000000000000000000000000LIB       US Representative, Dist 11                              LIB Wacey Alpha Cody                  Precinct 1                                             01 
00060030002000018000001000013000004000000000000000000000000000000000000000000000000000000000000000000LIB       US Representative, Dist 11                              LIB Wacey Alpha Cody                  Precinct 2                                             01 
00060030003000003000002000001000000000000000000000000000000000000000000000000000000000000000000000000LIB       US Representative, Dist 11                              LIB Wacey Alpha Cody                  Precinct 2e                                            01 
00060030004000009000001000007000001000000000000000000000000000000000000000000000000000000000000000000LIB       US Representative, Dist 11                              LIB Wacey Alpha Cody                  Precinct 3                                             01 
00060030005000008000001000006000001000000000000000000000000000000000000000000000000000000000000000000LIB       US Representative, Dist 11                              LIB Wacey Alpha Cody                  Precinct 4                                             01 
00060040001000000000000000000000000000000000000000000000000000000000000000000000000000000000000000000          US Representative, Dist 11                              OVER VOTES                            Precinct 1                                             01 
00060040002000000000000000000000000000000000000000000000000000000000000000000000000000000000000000000          US Representative, Dist 11                              OVER VOTES                            Precinct 2                                             01 
00060040003000000000000000000000000000000000000000000000000000000000000000000000000000000000000000000          US Representative, Dist 11                              OVER VOTES                            Precinct 2e                                            01 
00060040004000000000000000000000000000000000000000000000000000000000000000000000000000000000000000000          US Representative, Dist 11                              OVER VOTES                            Precinct 3                                             01 
00060040005000000000000000000000000000000000000000000000000000000000000000000000000000000000000000000          US Representative, Dist 11                              OVER VOTES                            Precinct 4                                             01 
00060050001000021000005000014000002000000000000000000000000000000000000000000000000000000000000000000          US Representative, Dist 11                              UNDER VOTES                           Precinct 1                                             01 
00060050002000025000005000012000008000000000000000000000000000000000000000000000000000000000000000000          US Representative, Dist 11                              UNDER VOTES                           Precinct 2                                             01 
00060050003000005000002000003000000000000000000000000000000000000000000000000000000000000000000000000          US Representative, Dist 11                              UNDER VOTES                           Precinct 2e                                            01 
00060050004000020000002000015000003000000000000000000000000000000000000000000000000000000000000000000          US Representative, Dist 11                              UNDER VOTES                           Precinct 3                                             01 
00060050005000021000002000016000003000000000000000000000000000000000000000000000000000000000000000000          US Representative, Dist 11                              UNDER VOTES                           Precinct 4                                             01 
00070010001000921000072000740000109000000000000000000000000000000000000000000000000000000000000000000REP       Railroad Commissioner                                   REP James "Jim" Wright                Precinct 1                                             01 
00070010002000672000055000471000146000000000000000000000000000000000000000000000000000000000000000000REP       Railroad Commissioner                                   REP James "Jim" Wright                Precinct 2                                             01 
00070010003000258000022000196000040000000000000000000000000000000000000000000000000000000000000000000REP       Railroad Commissioner                                   REP James "Jim" Wright                Precinct 2e                                            01 
00070010004000770000074000603000093000000000000000000000000000000000000000000000000000000000000000000REP       Railroad Commissioner                                   REP James "Jim" Wright                Precinct 3                                             01 
00070010005000978000091000782000105000000000000000000000000000000000000000000000000000000000000000000REP       Railroad Commissioner                                   REP James "Jim" Wright                Precinct 4                                             01 
00070020001000082000019000051000012000000000000000000000000000000000000000000000000000000000000000000DEM       Railroad Commissioner                                   DEM Chrysta Castaneda                 Precinct 1                                             01 
00070020002000102000027000059000016000000000000000000000000000000000000000000000000000000000000000000DEM       Railroad Commissioner                                   DEM Chrysta Castaneda                 Precinct 2                                             01 
00070020003000033000011000017000005000000000000000000000000000000000000000000000000000000000000000000DEM       Railroad Commissioner                                   DEM Chrysta Castaneda                 Precinct 2e                                            01 
00070020004000082000016000056000010000000000000000000000000000000000000000000000000000000000000000000DEM       Railroad Commissioner                                   DEM Chrysta Castaneda                 Precinct 3                                             01 
00070020005000107000027000073000007000000000000000000000000000000000000000000000000000000000000000000DEM       Railroad Commissioner                                   DEM Chrysta Castaneda                 Precinct 4                                             01 
00070030001000008000001000005000002000000000000000000000000000000000000000000000000000000000000000000LIB       Railroad Commissioner                                   LIB Matt Sterett                      Precinct 1                                             01 
00070030002000011000002000006000003000000000000000000000000000000000000000000000000000000000000000000LIB       Railroad Commissioner                                   LIB Matt Sterett                      Precinct 2                                             01 
00070030003000004000001000001000002000000000000000000000000000000000000000000000000000000000000000000LIB       Railroad Commissioner                                   LIB Matt Sterett                      Precinct 2e                                            01 
00070030004000012000000000009000003000000000000000000000000000000000000000000000000000000000000000000LIB       Railroad Commissioner                                   LIB Matt Sterett                      Precinct 3                                             01 
00070030005000007000001000006000000000000000000000000000000000000000000000000000000000000000000000000LIB       Railroad Commissioner                                   LIB Matt Sterett                      Precinct 4                                             01 
00070040001000002000000000002000000000000000000000000000000000000000000000000000000000000000000000000GRN       Railroad Commissioner                                   GRN Katija “Kat” Gruene               Precinct 1                                             01 
00070040002000002000002000000000000000000000000000000000000000000000000000000000000000000000000000000GRN       Railroad Commissioner                                   GRN Katija “Kat” Gruene               Precinct 2                                             01 
00070040003000001000001000000000000000000000000000000000000000000000000000000000000000000000000000000GRN       Railroad Commissioner                                   GRN Katija “Kat” Gruene               Precinct 2e                                            01 
00070040004000002000000000002000000000000000000000000000000000000000000000000000000000000000000000000GRN       Railroad Commissioner                                   GRN Katija “Kat” Gruene               Precinct 3                                             01 
00070040005000004000000000004000000000000000000000000000000000000000000000000000000000000000000000000GRN       Railroad Commissioner                                   GRN Katija “Kat” Gruene               Precinct 4                                             01 
00070050001000000000000000000000000000000000000000000000000000000000000000000000000000000000000000000          Railroad Commissioner                                   OVER VOTES                            Precinct 1                                             01 
00070050002000000000000000000000000000000000000000000000000000000000000000000000000000000000000000000          Railroad Commissioner                                   OVER VOTES                            Precinct 2                                             01 
00070050003000000000000000000000000000000000000000000000000000000000000000000000000000000000000000000          Railroad Commissioner                                   OVER VOTES                            Precinct 2e                                            01 
00070050004000000000000000000000000000000000000000000000000000000000000000000000000000000000000000000          Railroad Commissioner                                   OVER VOTES                            Precinct 3                                             01 
00070050005000000000000000000000000000000000000000000000000000000000000000000000000000000000000000000          Railroad Commissioner                                   OVER VOTES                            Precinct 4                                             01 
00070060001000021000005000014000002000000000000000000000000000000000000000000000000000000000000000000          Railroad Commissioner                                   UNDER VOTES                           Precinct 1                                             01 
00070060002000023000002000011000010000000000000000000000000000000000000000000000000000000000000000000          Railroad Commissioner                                   UNDER VOTES                           Precinct 2                                             01 
00070060003000006000001000005000000000000000000000000000000000000000000000000000000000000000000000000          Railroad Commissioner                                   UNDER VOTES                           Precinct 2e                                            01 
00070060004000019000002000011000006000000000000000000000000000000000000000000000000000000000000000000          Railroad Commissioner                                   UNDER VOTES                           Precinct 3                                             01 
00070060005000028000003000021000004000000000000000000000000000000000000000000000000000000000000000000          Railroad Commissioner                                   UNDER VOTES                           Precinct 4                                             01 
00080010001000903000070000725000108000000000000000000000000000000000000000000000000000000000000000000REP       Chief Justice, Supreme Court                            REP Nathan Hecht                      Precinct 1                                             01 
00080010002000658000052000465000141000000000000000000000000000000000000000000000000000000000000000000REP       Chief Justice, Supreme Court                            REP Nathan Hecht                      Precinct 2                                             01 
00080010003000260000022000199000039000000000000000000000000000000000000000000000000000000000000000000REP       Chief Justice, Supreme Court                            REP Nathan Hecht                      Precinct 2e                                            01 
00080010004000756000072000593000091000000000000000000000000000000000000000000000000000000000000000000REP       Chief Justice, Supreme Court                            REP Nathan Hecht                      Precinct 3                                             01 
00080010005000966000091000775000100000000000000000000000000000000000000000000000000000000000000000000REP       Chief Justice, Supreme Court                            REP Nathan Hecht                      Precinct 4                                             01 
00080020001000094000021000061000012000000000000000000000000000000000000000000000000000000000000000000DEM       Chief Justice, Supreme Court                            DEM Amy Clark Meachum                 Precinct 1                                             01 
00080020002000110000029000062000019000000000000000000000000000000000000000000000000000000000000000000DEM       Chief Justice, Supreme Court                            DEM Amy Clark Meachum                 Precinct 2                                             01 
00080020003000030000009000016000005000000000000000000000000000000000000000000000000000000000000000000DEM       Chief Justice, Supreme Court                            DEM Amy Clark Meachum                 Precinct 2e                                            01 
00080020004000085000016000059000010000000000000000000000000000000000000000000000000000000000000000000DEM       Chief Justice, Supreme Court                            DEM Amy Clark Meachum                 Precinct 3                                             01 
00080020005000119000028000082000009000000000000000000000000000000000000000000000000000000000000000000DEM       Chief Justice, Supreme Court                            DEM Amy Clark Meachum                 Precinct 4                                             01 
00080030001000017000001000014000002000000000000000000000000000000000000000000000000000000000000000000LIB       Chief Justice, Supreme Court                            LIB Mark Ash                          Precinct 1                                             01 
00080030002000015000002000008000005000000000000000000000000000000000000000000000000000000000000000000LIB       Chief Justice, Supreme Court                            LIB Mark Ash                          Precinct 2                                             01 
00080030003000004000002000000000002000000000000000000000000000000000000000000000000000000000000000000LIB       Chief Justice, Supreme Court                            LIB Mark Ash                          Precinct 2e                                            01 
00080030004000018000002000013000003000000000000000000000000000000000000000000000000000000000000000000LIB       Chief Justice, Supreme Court                            LIB Mark Ash                          Precinct 3                                             01 
00080030005000007000000000005000002000000000000000000000000000000000000000000000000000000000000000000LIB       Chief Justice, Supreme Court                            LIB Mark Ash                          Precinct 4                                             01 
00080040001000000000000000000000000000000000000000000000000000000000000000000000000000000000000000000          Chief Justice, Supreme Court                            OVER VOTES                            Precinct 1                                             01 
00080040002000000000000000000000000000000000000000000000000000000000000000000000000000000000000000000          Chief Justice, Supreme Court                            OVER VOTES                            Precinct 2                                             01 
00080040003000000000000000000000000000000000000000000000000000000000000000000000000000000000000000000          Chief Justice, Supreme Court                            OVER VOTES                            Precinct 2e                                            01 
00080040004000000000000000000000000000000000000000000000000000000000000000000000000000000000000000000          Chief Justice, Supreme Court                            OVER VOTES                            Precinct 3                                             01 
00080040005000000000000000000000000000000000000000000000000000000000000000000000000000000000000000000          Chief Justice, Supreme Court                            OVER VOTES                            Precinct 4                                             01 
00080050001000020000005000012000003000000000000000000000000000000000000000000000000000000000000000000          Chief Justice, Supreme Court                            UNDER VOTES                           Precinct 1                                             01 
00080050002000027000005000012000010000000000000000000000000000000000000000000000000000000000000000000          Chief Justice, Supreme Court                            UNDER VOTES                           Precinct 2                                             01 
00080050003000008000003000004000001000000000000000000000000000000000000000000000000000000000000000000          Chief Justice, Supreme Court                            UNDER VOTES                           Precinct 2e                                            01 
00080050004000026000002000016000008000000000000000000000000000000000000000000000000000000000000000000          Chief Justice, Supreme Court                            UNDER VOTES                           Precinct 3                                             01 
00080050005000032000003000024000005000000000000000000000000000000000000000000000000000000000000000000          Chief Justice, Supreme Court                            UNDER VOTES                           Precinct 4                                             01 
00090010001000928000072000744000112000000000000000000000000000000000000000000000000000000000000000000REP       Justice, Supreme Court, Pl 6                            REP Jane Bland                        Precinct 1                                             01 
00090010002000684000054000483000147000000000000000000000000000000000000000000000000000000000000000000REP       Justice, Supreme Court, Pl 6                            REP Jane Bland                        Precinct 2                                             01 
00090010003000266000023000201000042000000000000000000000000000000000000000000000000000000000000000000REP       Justice, Supreme Court, Pl 6                            REP Jane Bland                        Precinct 2e                                            01 
00090010004000772000074000603000095000000000000000000000000000000000000000000000000000000000000000000REP       Justice, Supreme Court, Pl 6                            REP Jane Bland                        Precinct 3                                             01 
00090010005000981000091000785000105000000000000000000000000000000000000000000000000000000000000000000REP       Justice, Supreme Court, Pl 6                            REP Jane Bland                        Precinct 4                                             01 
00090020001000087000021000055000011000000000000000000000000000000000000000000000000000000000000000000DEM       Justice, Supreme Court, Pl 6                            DEM Kathy Cheng                       Precinct 1                                             01 
00090020002000101000028000055000018000000000000000000000000000000000000000000000000000000000000000000DEM       Justice, Supreme Court, Pl 6                            DEM Kathy Cheng                       Precinct 2                                             01 
00090020003000030000010000015000005000000000000000000000000000000000000000000000000000000000000000000DEM       Justice, Supreme Court, Pl 6                            DEM Kathy Cheng                       Precinct 2e                                            01 
00090020004000081000015000056000010000000000000000000000000000000000000000000000000000000000000000000DEM       Justice, Supreme Court, Pl 6                            DEM Kathy Cheng                       Precinct 3                                             01 
00090020005000115000028000080000007000000000000000000000000000000000000000000000000000000000000000000DEM       Justice, Supreme Court, Pl 6                            DEM Kathy Cheng                       Precinct 4                                             01 
00090030001000000000000000000000000000000000000000000000000000000000000000000000000000000000000000000          Justice, Supreme Court, Pl 6                            OVER VOTES                            Precinct 1                                             01 
00090030002000000000000000000000000000000000000000000000000000000000000000000000000000000000000000000          Justice, Supreme Court, Pl 6                            OVER VOTES                            Precinct 2                                             01 
00090030003000000000000000000000000000000000000000000000000000000000000000000000000000000000000000000          Justice, Supreme Court, Pl 6                            OVER VOTES                            Precinct 2e                                            01 
00090030004000000000000000000000000000000000000000000000000000000000000000000000000000000000000000000          Justice, Supreme Court, Pl 6                            OVER VOTES                            Precinct 3                                             01 
00090030005000000000000000000000000000000000000000000000000000000000000000000000000000000000000000000          Justice, Supreme Court, Pl 6                            OVER VOTES                            Precinct 4                                             01 
00090040001000019000004000013000002000000000000000000000000000000000000000000000000000000000000000000          Justice, Supreme Court, Pl 6                            UNDER VOTES                           Precinct 1                                             01 
00090040002000026000006000010000010000000000000000000000000000000000000000000000000000000000000000000          Justice, Supreme Court, Pl 6                            UNDER VOTES                           Precinct 2                                             01 
00090040003000006000003000003000000000000000000000000000000000000000000000000000000000000000000000000          Justice, Supreme Court, Pl 6                            UNDER VOTES                           Precinct 2e                                            01 
00090040004000032000003000022000007000000000000000000000000000000000000000000000000000000000000000000          Justice, Supreme Court, Pl 6                            UNDER VOTES                           Precinct 3                                             01 
00090040005000028000003000021000004000000000000000000000000000000000000000000000000000000000000000000          Justice, Supreme Court, Pl 6                            UNDER VOTES                           Precinct 4                                             01 
00100010001000913000071000734000108000000000000000000000000000000000000000000000000000000000000000000REP       Justice, Supreme Court, Pl 7                            REP Jeff Boyd                         Precinct 1                                             01 
00100010002000664000053000469000142000000000000000000000000000000000000000000000000000000000000000000REP       Justice, Supreme Court, Pl 7                            REP Jeff Boyd                         Precinct 2                                             01 
00100010003000264000022000200000042000000000000000000000000000000000000000000000000000000000000000000REP       Justice, Supreme Court, Pl 7                            REP Jeff Boyd                         Precinct 2e                                            01 
00100010004000765000072000600000093000000000000000000000000000000000000000000000000000000000000000000REP       Justice, Supreme Court, Pl 7                            REP Jeff Boyd                         Precinct 3                                             01 
00100010005000973000092000778000103000000000000000000000000000000000000000000000000000000000000000000REP       Justice, Supreme Court, Pl 7                            REP Jeff Boyd                         Precinct 4                                             01 
00100020001000090000020000056000014000000000000000000000000000000000000000000000000000000000000000000DEM       Justice, Supreme Court, Pl 7                            DEM Staci Williams                    Precinct 1                                             01 
00100020002000104000027000058000019000000000000000000000000000000000000000000000000000000000000000000DEM       Justice, Supreme Court, Pl 7                            DEM Staci Williams                    Precinct 2                                             01 
00100020003000030000009000016000005000000000000000000000000000000000000000000000000000000000000000000DEM       Justice, Supreme Court, Pl 7                            DEM Staci Williams                    Precinct 2e                                            01 
00100020004000083000015000058000010000000000000000000000000000000000000000000000000000000000000000000DEM       Justice, Supreme Court, Pl 7                            DEM Staci Williams                    Precinct 3                                             01 
00100020005000114000027000078000009000000000000000000000000000000000000000000000000000000000000000000DEM       Justice, Supreme Court, Pl 7                            DEM Staci Williams                    Precinct 4                                             01 
00100030001000010000001000008000001000000000000000000000000000000000000000000000000000000000000000000LIB       Justice, Supreme Court, Pl 7                            LIB William Bryan Strange III         Precinct 1                                             01 
00100030002000015000002000009000004000000000000000000000000000000000000000000000000000000000000000000LIB       Justice, Supreme Court, Pl 7                            LIB William Bryan Strange III         Precinct 2                                             01 
00100030003000002000002000000000000000000000000000000000000000000000000000000000000000000000000000000LIB       Justice, Supreme Court, Pl 7                            LIB William Bryan Strange III         Precinct 2e                                            01 
00100030004000011000002000007000002000000000000000000000000000000000000000000000000000000000000000000LIB       Justice, Supreme Court, Pl 7                            LIB William Bryan Strange III         Precinct 3                                             01 
00100030005000010000000000009000001000000000000000000000000000000000000000000000000000000000000000000LIB       Justice, Supreme Court, Pl 7                            LIB William Bryan Strange III         Precinct 4                                             01 
00100040001000001000001000000000000000000000000000000000000000000000000000000000000000000000000000000          Justice, Supreme Court, Pl 7                            OVER VOTES                            Precinct 1                                             01 
00100040002000000000000000000000000000000000000000000000000000000000000000000000000000000000000000000          Justice, Supreme Court, Pl 7                            OVER VOTES                            Precinct 2                                             01 
00100040003000000000000000000000000000000000000000000000000000000000000000000000000000000000000000000          Justice, Supreme Court, Pl 7                            OVER VOTES                            Precinct 2e                                            01 
00100040004000000000000000000000000000000000000000000000000000000000000000000000000000000000000000000          Justice, Supreme Court, Pl 7                            OVER VOTES                            Precinct 3                                             01 
00100040005000000000000000000000000000000000000000000000000000000000000000000000000000000000000000000          Justice, Supreme Court, Pl 7                            OVER VOTES                            Precinct 4                                             01 
00100050001000020000004000014000002000000000000000000000000000000000000000000000000000000000000000000          Justice, Supreme Court, Pl 7                            UNDER VOTES                           Precinct 1                                             01 
00100050002000028000006000012000010000000000000000000000000000000000000000000000000000000000000000000          Justice, Supreme Court, Pl 7                            UNDER VOTES                           Precinct 2                                             01 
00100050003000006000003000003000000000000000000000000000000000000000000000000000000000000000000000000          Justice, Supreme Court, Pl 7                            UNDER VOTES                           Precinct 2e                                            01 
00100050004000026000003000016000007000000000000000000000000000000000000000000000000000000000000000000          Justice, Supreme Court, Pl 7                            UNDER VOTES                           Precinct 3                                             01 
00100050005000027000003000021000003000000000000000000000000000000000000000000000000000000000000000000          Justice, Supreme Court, Pl 7                            UNDER VOTES                           Precinct 4                                             01 
00110010001000919000071000738000110000000000000000000000000000000000000000000000000000000000000000000REP       Justice, Supreme Court, Pl 8                            REP Brett Busby                       Precinct 1                                             01 
00110010002000668000053000472000143000000000000000000000000000000000000000000000000000000000000000000REP       Justice, Supreme Court, Pl 8                            REP Brett Busby                       Precinct 2                                             01 
00110010003000260000022000198000040000000000000000000000000000000000000000000000000000000000000000000REP       Justice, Supreme Court, Pl 8                            REP Brett Busby                       Precinct 2e                                            01 
00110010004000761000073000596000092000000000000000000000000000000000000000000000000000000000000000000REP       Justice, Supreme Court, Pl 8                            REP Brett Busby                       Precinct 3                                             01 
00110010005000976000091000781000104000000000000000000000000000000000000000000000000000000000000000000REP       Justice, Supreme Court, Pl 8                            REP Brett Busby                       Precinct 4                                             01 
00110020001000087000021000055000011000000000000000000000000000000000000000000000000000000000000000000DEM       Justice, Supreme Court, Pl 8                            DEM Gisela D. Triana                  Precinct 1                                             01 
00110020002000099000026000057000016000000000000000000000000000000000000000000000000000000000000000000DEM       Justice, Supreme Court, Pl 8                            DEM Gisela D. Triana                  Precinct 2                                             01 
00110020003000032000010000016000006000000000000000000000000000000000000000000000000000000000000000000DEM       Justice, Supreme Court, Pl 8                            DEM Gisela D. Triana                  Precinct 2e                                            01 
00110020004000079000015000054000010000000000000000000000000000000000000000000000000000000000000000000DEM       Justice, Supreme Court, Pl 8                            DEM Gisela D. Triana                  Precinct 3                                             01 
00110020005000105000028000071000006000000000000000000000000000000000000000000000000000000000000000000DEM       Justice, Supreme Court, Pl 8                            DEM Gisela D. Triana                  Precinct 4                                             01 
00110030001000008000001000006000001000000000000000000000000000000000000000000000000000000000000000000LIB       Justice, Supreme Court, Pl 8                            LIB Tom Oxford                        Precinct 1                                             01 
00110030002000014000002000006000006000000000000000000000000000000000000000000000000000000000000000000LIB       Justice, Supreme Court, Pl 8                            LIB Tom Oxford                        Precinct 2                                             01 
00110030003000002000001000000000001000000000000000000000000000000000000000000000000000000000000000000LIB       Justice, Supreme Court, Pl 8                            LIB Tom Oxford                        Precinct 2e                                            01 
00110030004000014000000000012000002000000000000000000000000000000000000000000000000000000000000000000LIB       Justice, Supreme Court, Pl 8                            LIB Tom Oxford                        Precinct 3                                             01 
00110030005000009000000000007000002000000000000000000000000000000000000000000000000000000000000000000LIB       Justice, Supreme Court, Pl 8                            LIB Tom Oxford                        Precinct 4                                             01 
00110040001000000000000000000000000000000000000000000000000000000000000000000000000000000000000000000          Justice, Supreme Court, Pl 8                            OVER VOTES                            Precinct 1                                             01 
00110040002000001000001000000000000000000000000000000000000000000000000000000000000000000000000000000          Justice, Supreme Court, Pl 8                            OVER VOTES                            Precinct 2                                             01 
00110040003000000000000000000000000000000000000000000000000000000000000000000000000000000000000000000          Justice, Supreme Court, Pl 8                            OVER VOTES                            Precinct 2e                                            01 
00110040004000000000000000000000000000000000000000000000000000000000000000000000000000000000000000000          Justice, Supreme Court, Pl 8                            OVER VOTES                            Precinct 3                                             01 
00110040005000000000000000000000000000000000000000000000000000000000000000000000000000000000000000000          Justice, Supreme Court, Pl 8                            OVER VOTES                            Precinct 4                                             01 
00110050001000019000004000012000003000000000000000000000000000000000000000000000000000000000000000000          Justice, Supreme Court, Pl 8                            UNDER VOTES                           Precinct 1                                             01 
00110050002000029000006000013000010000000000000000000000000000000000000000000000000000000000000000000          Justice, Supreme Court, Pl 8                            UNDER VOTES                           Precinct 2                                             01 
00110050003000008000003000005000000000000000000000000000000000000000000000000000000000000000000000000          Justice, Supreme Court, Pl 8                            UNDER VOTES                           Precinct 2e                                            01 
00110050004000031000004000019000008000000000000000000000000000000000000000000000000000000000000000000          Justice, Supreme Court, Pl 8                            UNDER VOTES                           Precinct 3                                             01 
00110050005000034000003000027000004000000000000000000000000000000000000000000000000000000000000000000          Justice, Supreme Court, Pl 8                            UNDER VOTES                           Precinct 4                                             01 
00120010001000922000073000740000109000000000000000000000000000000000000000000000000000000000000000000REP       Judge, Ct of Crim App, Pl 3                             REP Bert Richardson                   Precinct 1                                             01 
00120010002000674000053000478000143000000000000000000000000000000000000000000000000000000000000000000REP       Judge, Ct of Crim App, Pl 3                             REP Bert Richardson                   Precinct 2                                             01 
00120010003000265000021000201000043000000000000000000000000000000000000000000000000000000000000000000REP       Judge, Ct of Crim App, Pl 3                             REP Bert Richardson                   Precinct 2e                                            01 
00120010004000773000073000606000094000000000000000000000000000000000000000000000000000000000000000000REP       Judge, Ct of Crim App, Pl 3                             REP Bert Richardson                   Precinct 3                                             01 
00120010005000979000089000786000104000000000000000000000000000000000000000000000000000000000000000000REP       Judge, Ct of Crim App, Pl 3                             REP Bert Richardson                   Precinct 4                                             01 
00120020001000089000019000056000014000000000000000000000000000000000000000000000000000000000000000000DEM       Judge, Ct of Crim App, Pl 3                             DEM Elizabeth Davis Frizell           Precinct 1                                             01 
00120020002000108000027000061000020000000000000000000000000000000000000000000000000000000000000000000DEM       Judge, Ct of Crim App, Pl 3                             DEM Elizabeth Davis Frizell           Precinct 2                                             01 
00120020003000030000012000014000004000000000000000000000000000000000000000000000000000000000000000000DEM       Judge, Ct of Crim App, Pl 3                             DEM Elizabeth Davis Frizell           Precinct 2e                                            01 
00120020004000082000015000057000010000000000000000000000000000000000000000000000000000000000000000000DEM       Judge, Ct of Crim App, Pl 3                             DEM Elizabeth Davis Frizell           Precinct 3                                             01 
00120020005000114000028000078000008000000000000000000000000000000000000000000000000000000000000000000DEM       Judge, Ct of Crim App, Pl 3                             DEM Elizabeth Davis Frizell           Precinct 4                                             01 
00120030001000000000000000000000000000000000000000000000000000000000000000000000000000000000000000000          Judge, Ct of Crim App, Pl 3                             OVER VOTES                            Precinct 1                                             01 
00120030002000000000000000000000000000000000000000000000000000000000000000000000000000000000000000000          Judge, Ct of Crim App, Pl 3                             OVER VOTES                            Precinct 2                                             01 
00120030003000000000000000000000000000000000000000000000000000000000000000000000000000000000000000000          Judge, Ct of Crim App, Pl 3                             OVER VOTES                            Precinct 2e                                            01 
00120030004000000000000000000000000000000000000000000000000000000000000000000000000000000000000000000          Judge, Ct of Crim App, Pl 3                             OVER VOTES                            Precinct 3                                             01 
00120030005000000000000000000000000000000000000000000000000000000000000000000000000000000000000000000          Judge, Ct of Crim App, Pl 3                             OVER VOTES                            Precinct 4                                             01 
00120040001000023000005000016000002000000000000000000000000000000000000000000000000000000000000000000          Judge, Ct of Crim App, Pl 3                             UNDER VOTES                           Precinct 1                                             01 
00120040002000029000008000009000012000000000000000000000000000000000000000000000000000000000000000000          Judge, Ct of Crim App, Pl 3                             UNDER VOTES                           Precinct 2                                             01 
00120040003000007000003000004000000000000000000000000000000000000000000000000000000000000000000000000          Judge, Ct of Crim App, Pl 3                             UNDER VOTES                           Precinct 2e                                            01 
00120040004000030000004000018000008000000000000000000000000000000000000000000000000000000000000000000          Judge, Ct of Crim App, Pl 3                             UNDER VOTES                           Precinct 3                                             01 
00120040005000031000005000022000004000000000000000000000000000000000000000000000000000000000000000000          Judge, Ct of Crim App, Pl 3                             UNDER VOTES                           Precinct 4                                             01 
00130010001000922000072000738000112000000000000000000000000000000000000000000000000000000000000000000REP       Judge, Ct of Crim App, Pl 4                             REP Kevin Patrick Yeary               Precinct 1                                             01 
00130010002000676000053000478000145000000000000000000000000000000000000000000000000000000000000000000REP       Judge, Ct of Crim App, Pl 4                             REP Kevin Patrick Yeary               Precinct 2                                             01 
00130010003000260000019000199000042000000000000000000000000000000000000000000000000000000000000000000REP       Judge, Ct of Crim App, Pl 4                             REP Kevin Patrick Yeary               Precinct 2e                                            01 
00130010004000775000074000608000093000000000000000000000000000000000000000000000000000000000000000000REP       Judge, Ct of Crim App, Pl 4                             REP Kevin Patrick Yeary               Precinct 3                                             01 
00130010005000981000088000790000103000000000000000000000000000000000000000000000000000000000000000000REP       Judge, Ct of Crim App, Pl 4                             REP Kevin Patrick Yeary               Precinct 4                                             01 
00130020001000087000020000056000011000000000000000000000000000000000000000000000000000000000000000000DEM       Judge, Ct of Crim App, Pl 4                             DEM Tina Clinton                      Precinct 1                                             01 
00130020002000107000029000060000018000000000000000000000000000000000000000000000000000000000000000000DEM       Judge, Ct of Crim App, Pl 4                             DEM Tina Clinton                      Precinct 2                                             01 
00130020003000032000012000015000005000000000000000000000000000000000000000000000000000000000000000000DEM       Judge, Ct of Crim App, Pl 4                             DEM Tina Clinton                      Precinct 2e                                            01 
00130020004000076000014000052000010000000000000000000000000000000000000000000000000000000000000000000DEM       Judge, Ct of Crim App, Pl 4                             DEM Tina Clinton                      Precinct 3                                             01 
00130020005000110000028000074000008000000000000000000000000000000000000000000000000000000000000000000DEM       Judge, Ct of Crim App, Pl 4                             DEM Tina Clinton                      Precinct 4                                             01 
00130030001000000000000000000000000000000000000000000000000000000000000000000000000000000000000000000          Judge, Ct of Crim App, Pl 4                             OVER VOTES                            Precinct 1                                             01 
00130030002000000000000000000000000000000000000000000000000000000000000000000000000000000000000000000          Judge, Ct of Crim App, Pl 4                             OVER VOTES                            Precinct 2                                             01 
00130030003000000000000000000000000000000000000000000000000000000000000000000000000000000000000000000          Judge, Ct of Crim App, Pl 4                             OVER VOTES                            Precinct 2e                                            01 
00130030004000000000000000000000000000000000000000000000000000000000000000000000000000000000000000000          Judge, Ct of Crim App, Pl 4                             OVER VOTES                            Precinct 3                                             01 
00130030005000000000000000000000000000000000000000000000000000000000000000000000000000000000000000000          Judge, Ct of Crim App, Pl 4                             OVER VOTES                            Precinct 4                                             01 
00130040001000025000005000018000002000000000000000000000000000000000000000000000000000000000000000000          Judge, Ct of Crim App, Pl 4                             UNDER VOTES                           Precinct 1                                             01 
00130040002000028000006000010000012000000000000000000000000000000000000000000000000000000000000000000          Judge, Ct of Crim App, Pl 4                             UNDER VOTES                           Precinct 2                                             01 
00130040003000010000005000005000000000000000000000000000000000000000000000000000000000000000000000000          Judge, Ct of Crim App, Pl 4                             UNDER VOTES                           Precinct 2e                                            01 
00130040004000034000004000021000009000000000000000000000000000000000000000000000000000000000000000000          Judge, Ct of Crim App, Pl 4                             UNDER VOTES                           Precinct 3                                             01 
00130040005000033000006000022000005000000000000000000000000000000000000000000000000000000000000000000          Judge, Ct of Crim App, Pl 4                             UNDER VOTES                           Precinct 4                                             01 
00140010001000918000070000739000109000000000000000000000000000000000000000000000000000000000000000000REP       Judge, Ct of Crim App, Pl 9                             REP David Newell                      Precinct 1                                             01 
00140010002000674000053000476000145000000000000000000000000000000000000000000000000000000000000000000REP       Judge, Ct of Crim App, Pl 9                             REP David Newell                      Precinct 2                                             01 
00140010003000263000022000199000042000000000000000000000000000000000000000000000000000000000000000000REP       Judge, Ct of Crim App, Pl 9                             REP David Newell                      Precinct 2e                                            01 
00140010004000767000073000601000093000000000000000000000000000000000000000000000000000000000000000000REP       Judge, Ct of Crim App, Pl 9                             REP David Newell                      Precinct 3                                             01 
00140010005000976000080000791000105000000000000000000000000000000000000000000000000000000000000000000REP       Judge, Ct of Crim App, Pl 9                             REP David Newell                      Precinct 4                                             01 
00140020001000091000022000056000013000000000000000000000000000000000000000000000000000000000000000000DEM       Judge, Ct of Crim App, Pl 9                             DEM Brandon Birmingham                Precinct 1                                             01 
00140020002000108000029000060000019000000000000000000000000000000000000000000000000000000000000000000DEM       Judge, Ct of Crim App, Pl 9                             DEM Brandon Birmingham                Precinct 2                                             01 
00140020003000030000009000016000005000000000000000000000000000000000000000000000000000000000000000000DEM       Judge, Ct of Crim App, Pl 9                             DEM Brandon Birmingham                Precinct 2e                                            01 
00140020004000084000014000060000010000000000000000000000000000000000000000000000000000000000000000000DEM       Judge, Ct of Crim App, Pl 9                             DEM Brandon Birmingham                Precinct 3                                             01 
00140020005000104000027000071000006000000000000000000000000000000000000000000000000000000000000000000DEM       Judge, Ct of Crim App, Pl 9                             DEM Brandon Birmingham                Precinct 4                                             01 
00140030001000000000000000000000000000000000000000000000000000000000000000000000000000000000000000000          Judge, Ct of Crim App, Pl 9                             OVER VOTES                            Precinct 1                                             01 
00140030002000000000000000000000000000000000000000000000000000000000000000000000000000000000000000000          Judge, Ct of Crim App, Pl 9                             OVER VOTES                            Precinct 2                                             01 
00140030003000000000000000000000000000000000000000000000000000000000000000000000000000000000000000000          Judge, Ct of Crim App, Pl 9                             OVER VOTES                            Precinct 2e                                            01 
00140030004000000000000000000000000000000000000000000000000000000000000000000000000000000000000000000          Judge, Ct of Crim App, Pl 9                             OVER VOTES                            Precinct 3                                             01 
00140030005000000000000000000000000000000000000000000000000000000000000000000000000000000000000000000          Judge, Ct of Crim App, Pl 9                             OVER VOTES                            Precinct 4                                             01 
00140040001000024000005000016000003000000000000000000000000000000000000000000000000000000000000000000          Judge, Ct of Crim App, Pl 9                             UNDER VOTES                           Precinct 1                                             01 
00140040002000029000006000012000011000000000000000000000000000000000000000000000000000000000000000000          Judge, Ct of Crim App, Pl 9                             UNDER VOTES                           Precinct 2                                             01 
00140040003000009000005000004000000000000000000000000000000000000000000000000000000000000000000000000          Judge, Ct of Crim App, Pl 9                             UNDER VOTES                           Precinct 2e                                            01 
00140040004000033000005000019000009000000000000000000000000000000000000000000000000000000000000000000          Judge, Ct of Crim App, Pl 9                             UNDER VOTES                           Precinct 3                                             01 
00140040005000044000015000024000005000000000000000000000000000000000000000000000000000000000000000000          Judge, Ct of Crim App, Pl 9                             UNDER VOTES                           Precinct 4                                             01 
00150010001000915000067000736000112000000000000000000000000000000000000000000000000000000000000000000REP       Member, State BoE, Dist 15                              REP Jay Johnson                       Precinct 1                                             01 
00150010002000673000053000473000147000000000000000000000000000000000000000000000000000000000000000000REP       Member, State BoE, Dist 15                              REP Jay Johnson                       Precinct 2                                             01 
00150010003000259000022000195000042000000000000000000000000000000000000000000000000000000000000000000REP       Member, State BoE, Dist 15                              REP Jay Johnson                       Precinct 2e                                            01 
00150010004000767000071000601000095000000000000000000000000000000000000000000000000000000000000000000REP       Member, State BoE, Dist 15                              REP Jay Johnson                       Precinct 3                                             01 
00150010005000977000091000778000108000000000000000000000000000000000000000000000000000000000000000000REP       Member, State BoE, Dist 15                              REP Jay Johnson                       Precinct 4                                             01 
00150020001000090000024000056000010000000000000000000000000000000000000000000000000000000000000000000DEM       Member, State BoE, Dist 15                              DEM John Betancourt                   Precinct 1                                             01 
00150020002000105000028000060000017000000000000000000000000000000000000000000000000000000000000000000DEM       Member, State BoE, Dist 15                              DEM John Betancourt                   Precinct 2                                             01 
00150020003000034000011000018000005000000000000000000000000000000000000000000000000000000000000000000DEM       Member, State BoE, Dist 15                              DEM John Betancourt                   Precinct 2e                                            01 
00150020004000082000014000057000011000000000000000000000000000000000000000000000000000000000000000000DEM       Member, State BoE, Dist 15                              DEM John Betancourt                   Precinct 3                                             01 
00150020005000108000027000076000005000000000000000000000000000000000000000000000000000000000000000000DEM       Member, State BoE, Dist 15                              DEM John Betancourt                   Precinct 4                                             01 
00150030001000000000000000000000000000000000000000000000000000000000000000000000000000000000000000000          Member, State BoE, Dist 15                              OVER VOTES                            Precinct 1                                             01 
00150030002000000000000000000000000000000000000000000000000000000000000000000000000000000000000000000          Member, State BoE, Dist 15                              OVER VOTES                            Precinct 2                                             01 
00150030003000000000000000000000000000000000000000000000000000000000000000000000000000000000000000000          Member, State BoE, Dist 15                              OVER VOTES                            Precinct 2e                                            01 
00150030004000000000000000000000000000000000000000000000000000000000000000000000000000000000000000000          Member, State BoE, Dist 15                              OVER VOTES                            Precinct 3                                             01 
00150030005000000000000000000000000000000000000000000000000000000000000000000000000000000000000000000          Member, State BoE, Dist 15                              OVER VOTES                            Precinct 4                                             01 
00150040001000025000006000016000003000000000000000000000000000000000000000000000000000000000000000000          Member, State BoE, Dist 15                              UNDER VOTES                           Precinct 1                                             01 
00150040002000030000007000012000011000000000000000000000000000000000000000000000000000000000000000000          Member, State BoE, Dist 15                              UNDER VOTES                           Precinct 2                                             01 
00150040003000007000003000004000000000000000000000000000000000000000000000000000000000000000000000000          Member, State BoE, Dist 15                              UNDER VOTES                           Precinct 2e                                            01 
00150040004000030000007000017000006000000000000000000000000000000000000000000000000000000000000000000          Member, State BoE, Dist 15                              UNDER VOTES                           Precinct 3                                             01 
00150040005000033000004000026000003000000000000000000000000000000000000000000000000000000000000000000          Member, State BoE, Dist 15                              UNDER VOTES                           Precinct 4                                             01 
00160010001000953000074000758000121000000000000000000000000000000000000000000000000000000000000000000REP       State Senator, Dist 28                                  REP Charles Perry                     Precinct 1                                             01 
00160010002000717000058000503000156000000000000000000000000000000000000000000000000000000000000000000REP       State Senator, Dist 28                                  REP Charles Perry                     Precinct 2                                             01 
00160010003000273000027000201000045000000000000000000000000000000000000000000000000000000000000000000REP       State Senator, Dist 28                                  REP Charles Perry                     Precinct 2e                                            01 
00160010004000799000074000625000100000000000000000000000000000000000000000000000000000000000000000000REP       State Senator, Dist 28                                  REP Charles Perry                     Precinct 3                                             01 
00160010005001013000091000812000110000000000000000000000000000000000000000000000000000000000000000000REP       State Senator, Dist 28                                  REP Charles Perry                     Precinct 4                                             01 
00160020001000000000000000000000000000000000000000000000000000000000000000000000000000000000000000000          State Senator, Dist 28                                  OVER VOTES                            Precinct 1                                             01 
00160020002000000000000000000000000000000000000000000000000000000000000000000000000000000000000000000          State Senator, Dist 28                                  OVER VOTES                            Precinct 2                                             01 
00160020003000000000000000000000000000000000000000000000000000000000000000000000000000000000000000000          State Senator, Dist 28                                  OVER VOTES                            Precinct 2e                                            01 
00160020004000000000000000000000000000000000000000000000000000000000000000000000000000000000000000000          State Senator, Dist 28                                  OVER VOTES                            Precinct 3                                             01 
00160020005000000000000000000000000000000000000000000000000000000000000000000000000000000000000000000          State Senator, Dist 28                                  OVER VOTES                            Precinct 4                                             01 
00160030001000077000023000050000004000000000000000000000000000000000000000000000000000000000000000000          State Senator, Dist 28                                  UNDER VOTES                           Precinct 1                                             01 
00160030002000088000030000039000019000000000000000000000000000000000000000000000000000000000000000000          State Senator, Dist 28                                  UNDER VOTES                           Precinct 2                                             01 
00160030003000027000009000016000002000000000000000000000000000000000000000000000000000000000000000000          State Senator, Dist 28                                  UNDER VOTES                           Precinct 2e                                            01 
00160030004000077000018000047000012000000000000000000000000000000000000000000000000000000000000000000          State Senator, Dist 28                                  UNDER VOTES                           Precinct 3                                             01 
00160030005000104000030000068000006000000000000000000000000000000000000000000000000000000000000000000          State Senator, Dist 28                                  UNDER VOTES                           Precinct 4                                             01 
00170010001000964000080000763000121000000000000000000000000000000000000000000000000000000000000000000REP       State Representative, Dist 60                           REP Glenn Rogers                      Precinct 1                                             01 
00170010002000720000059000505000156000000000000000000000000000000000000000000000000000000000000000000REP       State Representative, Dist 60                           REP Glenn Rogers                      Precinct 2                                             01 
00170010003000278000025000207000046000000000000000000000000000000000000000000000000000000000000000000REP       State Representative, Dist 60                           REP Glenn Rogers                      Precinct 2e                                            01 
00170010004000803000075000628000100000000000000000000000000000000000000000000000000000000000000000000REP       State Representative, Dist 60                           REP Glenn Rogers                      Precinct 3                                             01 
00170010005001015000097000807000111000000000000000000000000000000000000000000000000000000000000000000REP       State Representative, Dist 60                           REP Glenn Rogers                      Precinct 4                                             01 
00170020001000000000000000000000000000000000000000000000000000000000000000000000000000000000000000000          State Representative, Dist 60                           OVER VOTES                            Precinct 1                                             01 
00170020002000000000000000000000000000000000000000000000000000000000000000000000000000000000000000000          State Representative, Dist 60                           OVER VOTES                            Precinct 2                                             01 
00170020003000000000000000000000000000000000000000000000000000000000000000000000000000000000000000000          State Representative, Dist 60                           OVER VOTES                            Precinct 2e                                            01 
00170020004000000000000000000000000000000000000000000000000000000000000000000000000000000000000000000          State Representative, Dist 60                           OVER VOTES                            Precinct 3                                             01 
00170020005000000000000000000000000000000000000000000000000000000000000000000000000000000000000000000          State Representative, Dist 60                           OVER VOTES                            Precinct 4                                             01 
00170030001000067000017000046000004000000000000000000000000000000000000000000000000000000000000000000          State Representative, Dist 60                           UNDER VOTES                           Precinct 1                                             01 
00170030002000086000029000038000019000000000000000000000000000000000000000000000000000000000000000000          State Representative, Dist 60                           UNDER VOTES                           Precinct 2                                             01 
00170030003000022000011000010000001000000000000000000000000000000000000000000000000000000000000000000          State Representative, Dist 60                           UNDER VOTES                           Precinct 2e                                            01 
00170030004000071000017000042000012000000000000000000000000000000000000000000000000000000000000000000          State Representative, Dist 60                           UNDER VOTES                           Precinct 3                                             01 
00170030005000103000025000073000005000000000000000000000000000000000000000000000000000000000000000000          State Representative, Dist 60                           UNDER VOTES                           Precinct 4                                             01 
00180010001000961000078000762000121000000000000000000000000000000000000000000000000000000000000000000REP       Justice, 11th Ct of App Dist, Pl 2                      REP Bruce Williams                    Precinct 1                                             01 
00180010002000718000056000504000158000000000000000000000000000000000000000000000000000000000000000000REP       Justice, 11th Ct of App Dist, Pl 2                      REP Bruce Williams                    Precinct 2                                             01 
00180010003000278000027000206000045000000000000000000000000000000000000000000000000000000000000000000REP       Justice, 11th Ct of App Dist, Pl 2                      REP Bruce Williams                    Precinct 2e                                            01 
00180010004000802000076000625000101000000000000000000000000000000000000000000000000000000000000000000REP       Justice, 11th Ct of App Dist, Pl 2                      REP Bruce Williams                    Precinct 3                                             01 
00180010005001013000095000806000112000000000000000000000000000000000000000000000000000000000000000000REP       Justice, 11th Ct of App Dist, Pl 2                      REP Bruce Williams                    Precinct 4                                             01 
00180020001000000000000000000000000000000000000000000000000000000000000000000000000000000000000000000          Justice, 11th Ct of App Dist, Pl 2                      OVER VOTES                            Precinct 1                                             01 
00180020002000000000000000000000000000000000000000000000000000000000000000000000000000000000000000000          Justice, 11th Ct of App Dist, Pl 2                      OVER VOTES                            Precinct 2                                             01 
00180020003000000000000000000000000000000000000000000000000000000000000000000000000000000000000000000          Justice, 11th Ct of App Dist, Pl 2                      OVER VOTES                            Precinct 2e                                            01 
00180020004000000000000000000000000000000000000000000000000000000000000000000000000000000000000000000          Justice, 11th Ct of App Dist, Pl 2                      OVER VOTES                            Precinct 3                                             01 
00180020005000000000000000000000000000000000000000000000000000000000000000000000000000000000000000000          Justice, 11th Ct of App Dist, Pl 2                      OVER VOTES                            Precinct 4                                             01 
00180030001000070000019000047000004000000000000000000000000000000000000000000000000000000000000000000          Justice, 11th Ct of App Dist, Pl 2                      UNDER VOTES                           Precinct 1                                             01 
00180030002000089000032000040000017000000000000000000000000000000000000000000000000000000000000000000          Justice, 11th Ct of App Dist, Pl 2                      UNDER VOTES                           Precinct 2                                             01 
00180030003000022000009000011000002000000000000000000000000000000000000000000000000000000000000000000          Justice, 11th Ct of App Dist, Pl 2                      UNDER VOTES                           Precinct 2e                                            01 
00180030004000070000016000043000011000000000000000000000000000000000000000000000000000000000000000000          Justice, 11th Ct of App Dist, Pl 2                      UNDER VOTES                           Precinct 3                                             01 
00180030005000106000027000075000004000000000000000000000000000000000000000000000000000000000000000000          Justice, 11th Ct of App Dist, Pl 2                      UNDER VOTES                           Precinct 4                                             01 
00190010001000964000080000764000120000000000000000000000000000000000000000000000000000000000000000000REP       Justice, 11th Ct of App Dist, Pl 3                      REP W. Stacy Trotter                  Precinct 1                                             01 
00190010002000713000056000501000156000000000000000000000000000000000000000000000000000000000000000000REP       Justice, 11th Ct of App Dist, Pl 3                      REP W. Stacy Trotter                  Precinct 2                                             01 
00190010003000278000028000205000045000000000000000000000000000000000000000000000000000000000000000000REP       Justice, 11th Ct of App Dist, Pl 3                      REP W. Stacy Trotter                  Precinct 2e                                            01 
00190010004000803000076000627000100000000000000000000000000000000000000000000000000000000000000000000REP       Justice, 11th Ct of App Dist, Pl 3                      REP W. Stacy Trotter                  Precinct 3                                             01 
00190010005001011000097000803000111000000000000000000000000000000000000000000000000000000000000000000REP       Justice, 11th Ct of App Dist, Pl 3                      REP W. Stacy Trotter                  Precinct 4                                             01 
00190020001000000000000000000000000000000000000000000000000000000000000000000000000000000000000000000          Justice, 11th Ct of App Dist, Pl 3                      OVER VOTES                            Precinct 1                                             01 
00190020002000000000000000000000000000000000000000000000000000000000000000000000000000000000000000000          Justice, 11th Ct of App Dist, Pl 3                      OVER VOTES                            Precinct 2                                             01 
00190020003000000000000000000000000000000000000000000000000000000000000000000000000000000000000000000          Justice, 11th Ct of App Dist, Pl 3                      OVER VOTES                            Precinct 2e                                            01 
00190020004000000000000000000000000000000000000000000000000000000000000000000000000000000000000000000          Justice, 11th Ct of App Dist, Pl 3                      OVER VOTES                            Precinct 3                                             01 
00190020005000000000000000000000000000000000000000000000000000000000000000000000000000000000000000000          Justice, 11th Ct of App Dist, Pl 3                      OVER VOTES                            Precinct 4                                             01 
00190030001000068000017000046000005000000000000000000000000000000000000000000000000000000000000000000          Justice, 11th Ct of App Dist, Pl 3                      UNDER VOTES                           Precinct 1                                             01 
00190030002000094000032000043000019000000000000000000000000000000000000000000000000000000000000000000          Justice, 11th Ct of App Dist, Pl 3                      UNDER VOTES                           Precinct 2                                             01 
00190030003000022000008000012000002000000000000000000000000000000000000000000000000000000000000000000          Justice, 11th Ct of App Dist, Pl 3                      UNDER VOTES                           Precinct 2e                                            01 
00190030004000071000016000043000012000000000000000000000000000000000000000000000000000000000000000000          Justice, 11th Ct of App Dist, Pl 3                      UNDER VOTES                           Precinct 3                                             01 
00190030005000108000025000078000005000000000000000000000000000000000000000000000000000000000000000000          Justice, 11th Ct of App Dist, Pl 3                      UNDER VOTES                           Precinct 4                                             01 
00200010001000964000080000763000121000000000000000000000000000000000000000000000000000000000000000000REP       Dist Judge, 42nd Judicial Dist                          REP James Eidson                      Precinct 1                                             01 
00200010002000712000059000498000155000000000000000000000000000000000000000000000000000000000000000000REP       Dist Judge, 42nd Judicial Dist                          REP James Eidson                      Precinct 2                                             01 
