00010010001000000000000000000000000000000000000000000000000000000000000000000000000000000000000000000          REGISTERED VOTERS - TOTAL                               REGISTERED VOTERS - TOTAL             Precinct 101                                           00 
00010010002000000000000000000000000000000000000000000000000000000000000000000000000000000000000000000          REGISTERED VOTERS - TOTAL                               REGISTERED VOTERS - TOTAL             Precinct 102                                           00 
00010010003000000000000000000000000000000000000000000000000000000000000000000000000000000000000000000          REGISTERED VOTERS - TOTAL                               REGISTERED VOTERS - TOTAL             Precinct 103                                           00 
00010010004000000000000000000000000000000000000000000000000000000000000000000000000000000000000000000          REGISTERED VOTERS - TOTAL                               REGISTERED VOTERS - TOTAL             Precinct 201                                           00 
00010010005000000000000000000000000000000000000000000000000000000000000000000000000000000000000000000          REGISTERED VOTERS - TOTAL                               REGISTERED VOTERS - TOTAL             Precinct 202                                           00 
00010010006000000000000000000000000000000000000000000000000000000000000000000000000000000000000000000          REGISTERED VOTERS - TOTAL                               REGISTERED VOTERS - TOTAL             Precinct 302                                           00 
00010010007000000000000000000000000000000000000000000000000000000000000000000000000000000000000000000          REGISTERED VOTERS - TOTAL                               REGISTERED VOTERS - TOTAL             Precinct 303                                           00 
00010010008000000000000000000000000000000000000000000000000000000000000000000000000000000000000000000          REGISTERED VOTERS - TOTAL                               REGISTERED VOTERS - TOTAL             Precinct 304                                           00 
00010010009000000000000000000000000000000000000000000000000000000000000000000000000000000000000000000          REGISTERED VOTERS - TOTAL                               REGISTERED VOTERS - TOTAL             Precinct 305                                           00 
00010010010000000000000000000000000000000000000000000000000000000000000000000000000000000000000000000          REGISTERED VOTERS - TOTAL                               REGISTERED VOTERS - TOTAL             Precinct 401                                           00 
00010010011000000000000000000000000000000000000000000000000000000000000000000000000000000000000000000          REGISTERED VOTERS - TOTAL                               REGISTERED VOTERS - TOTAL             Precinct 402                                           00 
00010010012000000000000000000000000000000000000000000000000000000000000000000000000000000000000000000          REGISTERED VOTERS - TOTAL                               REGISTERED VOTERS - TOTAL             Precinct 209                                           00 
00020010001001583000182001142000259000000000000000000000000000000000000000000000000000000000000000000          BALLOTS CAST - TOTAL                                    BALLOTS CAST - TOTAL                  Precinct 101                                           00 
00020010002000217000021000118000078000000000000000000000000000000000000000000000000000000000000000000          BALLOTS CAST - TOTAL                                    BALLOTS CAST - TOTAL                  Precinct 102                                           00 
00020010003000468000034000211000223000000000000000000000000000000000000000000000000000000000000000000          BALLOTS CAST - TOTAL                                    BALLOTS CAST - TOTAL                  Precinct 103                                           00 
00020010004002283000224001776000283000000000000000000000000000000000000000000000000000000000000000000          BALLOTS CAST - TOTAL                                    BALLOTS CAST - TOTAL                  Precinct 201                                           00 
00020010005000439000046000220000173000000000000000000000000000000000000000000000000000000000000000000          BALLOTS CAST - TOTAL                                    BALLOTS CAST - TOTAL                  Precinct 202                                           00 
00020010006000927000094000588000245000000000000000000000000000000000000000000000000000000000000000000          BALLOTS CAST - TOTAL                                    BALLOTS CAST - TOTAL                  Precinct 302                                           00 
00020010007000464000034000343000087000000000000000000000000000000000000000000000000000000000000000000          BALLOTS CAST - TOTAL                                    BALLOTS CAST - TOTAL                  Precinct 303                                           00 
00020010008000420000033000277000110000000000000000000000000000000000000000000000000000000000000000000          BALLOTS CAST - TOTAL                                    BALLOTS CAST - TOTAL                  Precinct 304                                           00 
00020010009001292000119001008000165000000000000000000000000000000000000000000000000000000000000000000          BALLOTS CAST - TOTAL                                    BALLOTS CAST - TOTAL                  Precinct 305                                           00 
00020010010000294000031000217000046000000000000000000000000000000000000000000000000000000000000000000          BALLOTS CAST - TOTAL                                    BALLOTS CAST - TOTAL                  Precinct 401                                           00 
00020010011001626000183001184000259000000000000000000000000000000000000000000000000000000000000000000          BALLOTS CAST - TOTAL                                    BALLOTS CAST - TOTAL                  Precinct 402                                           00 
00020010012000007000004000001000002000000000000000000000000000000000000000000000000000000000000000000          BALLOTS CAST - TOTAL                                    BALLOTS CAST - TOTAL                  Precinct 209                                           00 
00030010001000000000000000000000000000000000000000000000000000000000000000000000000000000000000000000          BALLOTS CAST - BLANK                                    BALLOTS CAST - BLANK                  Precinct 101                                           00 
00030010002000001000000000000000001000000000000000000000000000000000000000000000000000000000000000000          BALLOTS CAST - BLANK                                    BALLOTS CAST - BLANK                  Precinct 102                                           00 
00030010003000000000000000000000000000000000000000000000000000000000000000000000000000000000000000000          BALLOTS CAST - BLANK                                    BALLOTS CAST - BLANK                  Precinct 103                                           00 
00030010004000000000000000000000000000000000000000000000000000000000000000000000000000000000000000000          BALLOTS CAST - BLANK                                    BALLOTS CAST - BLANK                  Precinct 201                                           00 
00030010005000000000000000000000000000000000000000000000000000000000000000000000000000000000000000000          BALLOTS CAST - BLANK                                    BALLOTS CAST - BLANK                  Precinct 202                                           00 
00030010006000000000000000000000000000000000000000000000000000000000000000000000000000000000000000000          BALLOTS CAST - BLANK                                    BALLOTS CAST - BLANK                  Precinct 302                                           00 
00030010007000000000000000000000000000000000000000000000000000000000000000000000000000000000000000000          BALLOTS CAST - BLANK                                    BALLOTS CAST - BLANK                  Precinct 303                                           00 
00030010008000000000000000000000000000000000000000000000000000000000000000000000000000000000000000000          BALLOTS CAST - BLANK                                    BALLOTS CAST - BLANK                  Precinct 304                                           00 
00030010009000000000000000000000000000000000000000000000000000000000000000000000000000000000000000000          BALLOTS CAST - BLANK                                    BALLOTS CAST - BLANK                  Precinct 305                                           00 
00030010010000000000000000000000000000000000000000000000000000000000000000000000000000000000000000000          BALLOTS CAST - BLANK                                    BALLOTS CAST - BLANK                  Precinct 401                                           00 
00030010011000000000000000000000000000000000000000000000000000000000000000000000000000000000000000000          BALLOTS CAST - BLANK                                    BALLOTS CAST - BLANK                  Precinct 402                                           00 
00030010012000000000000000000000000000000000000000000000000000000000000000000000000000000000000000000          BALLOTS CAST - BLANK                                    BALLOTS CAST - BLANK                  Precinct 209                                           00 
00040010001001141000092000841000208000000000000000000000000000000000000000000000000000000000000000000REPCOLCOUNPresident / Vice-President                              REP Donald J. Trump / Michael R. PencePrecinct 101                  County                   01 
00040010002000170000008000094000068000000000000000000000000000000000000000000000000000000000000000000REPCOLCOUNPresident / Vice-President                              REP Donald J. Trump / Michael R. PencePrecinct 102                  County                   01 
00040010003000404000022000182000200000000000000000000000000000000000000000000000000000000000000000000REPCOLCOUNPresident / Vice-President                              REP Donald J. Trump / Michael R. PencePrecinct 103                  County                   01 
00040010004001781000128001424000229000000000000000000000000000000000000000000000000000000000000000000REPCOLCOUNPresident / Vice-President                              REP Donald J. Trump / Michael R. PencePrecinct 201                  County                   01 
00040010005000376000028000187000161000000000000000000000000000000000000000000000000000000000000000000REPCOLCOUNPresident / Vice-President                              REP Donald J. Trump / Michael R. PencePrecinct 202                  County                   01 
00040010006000792000054000511000227000000000000000000000000000000000000000000000000000000000000000000REPCOLCOUNPresident / Vice-President                              REP Donald J. Trump / Michael R. PencePrecinct 302                  County                   01 
00040010007000392000014000298000080000000000000000000000000000000000000000000000000000000000000000000REPCOLCOUNPresident / Vice-President                              REP Donald J. Trump / Michael R. PencePrecinct 303                  County                   01 
00040010008000357000022000242000093000000000000000000000000000000000000000000000000000000000000000000REPCOLCOUNPresident / Vice-President                              REP Donald J. Trump / Michael R. PencePrecinct 304                  County                   01 
00040010009001002000069000811000122000000000000000000000000000000000000000000000000000000000000000000REPCOLCOUNPresident / Vice-President                              REP Donald J. Trump / Michael R. PencePrecinct 305                  County                   01 
00040010010000177000007000139000031000000000000000000000000000000000000000000000000000000000000000000REPCOLCOUNPresident / Vice-President                              REP Donald J. Trump / Michael R. PencePrecinct 401                  County                   01 
00040010011000880000066000670000144000000000000000000000000000000000000000000000000000000000000000000REPCOLCOUNPresident / Vice-President                              REP Donald J. Trump / Michael R. PencePrecinct 402                  County                   01 
00040020001000425000086000292000047000000000000000000000000000000000000000000000000000000000000000000DEMCOLCOUNPresident / Vice-President                              DEM Joseph R. Biden / Kamala D. HarrisPrecinct 101                  County                   01 
00040020002000042000013000021000008000000000000000000000000000000000000000000000000000000000000000000DEMCOLCOUNPresident / Vice-President                              DEM Joseph R. Biden / Kamala D. HarrisPrecinct 102                  County                   01 
00040020003000062000012000028000022000000000000000000000000000000000000000000000000000000000000000000DEMCOLCOUNPresident / Vice-President                              DEM Joseph R. Biden / Kamala D. HarrisPrecinct 103                  County                   01 
00040020004000477000095000332000050000000000000000000000000000000000000000000000000000000000000000000DEMCOLCOUNPresident / Vice-President                              DEM Joseph R. Biden / Kamala D. HarrisPrecinct 201                  County                   01 
00040020005000058000017000032000009000000000000000000000000000000000000000000000000000000000000000000DEMCOLCOUNPresident / Vice-President                              DEM Joseph R. Biden / Kamala D. HarrisPrecinct 202                  County                   01 
00040020006000128000039000073000016000000000000000000000000000000000000000000000000000000000000000000DEMCOLCOUNPresident / Vice-President                              DEM Joseph R. Biden / Kamala D. HarrisPrecinct 302                  County                   01 
00040020007000063000018000040000005000000000000000000000000000000000000000000000000000000000000000000DEMCOLCOUNPresident / Vice-President                              DEM Joseph R. Biden / Kamala D. HarrisPrecinct 303                  County                   01 
00040020008000057000010000031000016000000000000000000000000000000000000000000000000000000000000000000DEMCOLCOUNPresident / Vice-President                              DEM Joseph R. Biden / Kamala D. HarrisPrecinct 304                  County                   01 
00040020009000279000050000188000041000000000000000000000000000000000000000000000000000000000000000000DEMCOLCOUNPresident / Vice-President                              DEM Joseph R. Biden / Kamala D. HarrisPrecinct 305                  County                   01 
00040020010000113000024000075000014000000000000000000000000000000000000000000000000000000000000000000DEMCOLCOUNPresident / Vice-President                              DEM Joseph R. Biden / Kamala D. HarrisPrecinct 401                  County                   01 
00040020011000716000115000497000104000000000000000000000000000000000000000000000000000000000000000000DEMCOLCOUNPresident / Vice-President                              DEM Joseph R. Biden / Kamala D. HarrisPrecinct 402                  County                   01 
00040030001000008000002000004000002000000000000000000000000000000000000000000000000000000000000000000LIBCOLCOUNPresident / Vice-President                              LIB Jo Jorgensen / Jeremy "Spike" CohePrecinct 101                  County                   01 
00040030002000004000000000003000001000000000000000000000000000000000000000000000000000000000000000000LIBCOLCOUNPresident / Vice-President                              LIB Jo Jorgensen / Jeremy "Spike" CohePrecinct 102                  County                   01 
00040030003000000000000000000000000000000000000000000000000000000000000000000000000000000000000000000LIBCOLCOUNPresident / Vice-President                              LIB Jo Jorgensen / Jeremy "Spike" CohePrecinct 103                  County                   01 
00040030004000016000001000013000002000000000000000000000000000000000000000000000000000000000000000000LIBCOLCOUNPresident / Vice-President                              LIB Jo Jorgensen / Jeremy "Spike" CohePrecinct 201                  County                   01 
00040030005000002000000000001000001000000000000000000000000000000000000000000000000000000000000000000LIBCOLCOUNPresident / Vice-President                              LIB Jo Jorgensen / Jeremy "Spike" CohePrecinct 202                  County                   01 
00040030006000001000000000001000000000000000000000000000000000000000000000000000000000000000000000000LIBCOLCOUNPresident / Vice-President                              LIB Jo Jorgensen / Jeremy "Spike" CohePrecinct 302                  County                   01 
00040030007000005000000000003000002000000000000000000000000000000000000000000000000000000000000000000LIBCOLCOUNPresident / Vice-President                              LIB Jo Jorgensen / Jeremy "Spike" CohePrecinct 303                  County                   01 
00040030008000001000000000000000001000000000000000000000000000000000000000000000000000000000000000000LIBCOLCOUNPresident / Vice-President                              LIB Jo Jorgensen / Jeremy "Spike" CohePrecinct 304                  County                   01 
00040030009000003000000000003000000000000000000000000000000000000000000000000000000000000000000000000LIBCOLCOUNPresident / Vice-President                              LIB Jo Jorgensen / Jeremy "Spike" CohePrecinct 305                  County                   01 
00040030010000002000000000001000001000000000000000000000000000000000000000000000000000000000000000000LIBCOLCOUNPresident / Vice-President                              LIB Jo Jorgensen / Jeremy "Spike" CohePrecinct 401                  County                   01 
00040030011000008000000000006000002000000000000000000000000000000000000000000000000000000000000000000LIBCOLCOUNPresident / Vice-President                              LIB Jo Jorgensen / Jeremy "Spike" CohePrecinct 402                  County                   01 
00040040001000003000001000002000000000000000000000000000000000000000000000000000000000000000000000000GRNCOLCOUNPresident / Vice-President                              GRN Howie Hawkins / Angela Walker     Precinct 101                  County                   01 
00040040002000000000000000000000000000000000000000000000000000000000000000000000000000000000000000000GRNCOLCOUNPresident / Vice-President                              GRN Howie Hawkins / Angela Walker     Precinct 102                  County                   01 
00040040003000000000000000000000000000000000000000000000000000000000000000000000000000000000000000000GRNCOLCOUNPresident / Vice-President                              GRN Howie Hawkins / Angela Walker     Precinct 103                  County                   01 
00040040004000000000000000000000000000000000000000000000000000000000000000000000000000000000000000000GRNCOLCOUNPresident / Vice-President                              GRN Howie Hawkins / Angela Walker     Precinct 201                  County                   01 
00040040005000000000000000000000000000000000000000000000000000000000000000000000000000000000000000000GRNCOLCOUNPresident / Vice-President                              GRN Howie Hawkins / Angela Walker     Precinct 202                  County                   01 
00040040006000002000000000002000000000000000000000000000000000000000000000000000000000000000000000000GRNCOLCOUNPresident / Vice-President                              GRN Howie Hawkins / Angela Walker     Precinct 302                  County                   01 
00040040007000001000000000001000000000000000000000000000000000000000000000000000000000000000000000000GRNCOLCOUNPresident / Vice-President                              GRN Howie Hawkins / Angela Walker     Precinct 303                  County                   01 
00040040008000002000000000002000000000000000000000000000000000000000000000000000000000000000000000000GRNCOLCOUNPresident / Vice-President                              GRN Howie Hawkins / Angela Walker     Precinct 304                  County                   01 
00040040009000002000000000000000002000000000000000000000000000000000000000000000000000000000000000000GRNCOLCOUNPresident / Vice-President                              GRN Howie Hawkins / Angela Walker     Precinct 305                  County                   01 
00040040010000000000000000000000000000000000000000000000000000000000000000000000000000000000000000000GRNCOLCOUNPresident / Vice-President                              GRN Howie Hawkins / Angela Walker     Precinct 401                  County                   01 
00040040011000009000000000006000003000000000000000000000000000000000000000000000000000000000000000000GRNCOLCOUNPresident / Vice-President                              GRN Howie Hawkins / Angela Walker     Precinct 402                  County                   01 
00040060001000004000001000001000002000000000000000000000000000000000000000000000000000000000000000000NONCOLCOUNPresident / Vice-President                              Write-in                              Precinct 101                  County                   01 
00040060002000000000000000000000000000000000000000000000000000000000000000000000000000000000000000000NONCOLCOUNPresident / Vice-President                              Write-in                              Precinct 102                  County                   01 
00040060003000000000000000000000000000000000000000000000000000000000000000000000000000000000000000000NONCOLCOUNPresident / Vice-President                              Write-in                              Precinct 103                  County                   01 
00040060004000001000000000001000000000000000000000000000000000000000000000000000000000000000000000000NONCOLCOUNPresident / Vice-President                              Write-in                              Precinct 201                  County                   01 
00040060005000001000001000000000000000000000000000000000000000000000000000000000000000000000000000000NONCOLCOUNPresident / Vice-President                              Write-in                              Precinct 202                  County                   01 
00040060006000001000000000000000001000000000000000000000000000000000000000000000000000000000000000000NONCOLCOUNPresident / Vice-President                              Write-in                              Precinct 302                  County                   01 
00040060007000001000000000001000000000000000000000000000000000000000000000000000000000000000000000000NONCOLCOUNPresident / Vice-President                              Write-in                              Precinct 303                  County                   01 
00040060008000002000001000001000000000000000000000000000000000000000000000000000000000000000000000000NONCOLCOUNPresident / Vice-President                              Write-in                              Precinct 304                  County                   01 
00040060009000003000000000003000000000000000000000000000000000000000000000000000000000000000000000000NONCOLCOUNPresident / Vice-President                              Write-in                              Precinct 305                  County                   01 
00040060010000000000000000000000000000000000000000000000000000000000000000000000000000000000000000000NONCOLCOUNPresident / Vice-President                              Write-in                              Precinct 401                  County                   01 
00040060011000001000000000000000001000000000000000000000000000000000000000000000000000000000000000000NONCOLCOUNPresident / Vice-President                              Write-in                              Precinct 402                  County                   01 
00040070001000000000000000000000000000000000000000000000000000000000000000000000000000000000000000000   COLCOUNPresident / Vice-President                              OVER VOTES                            Precinct 101                  County                   01 
00040070002000000000000000000000000000000000000000000000000000000000000000000000000000000000000000000   COLCOUNPresident / Vice-President                              OVER VOTES                            Precinct 102                  County                   01 
00040070003000000000000000000000000000000000000000000000000000000000000000000000000000000000000000000   COLCOUNPresident / Vice-President                              OVER VOTES                            Precinct 103                  County                   01 
00040070004000000000000000000000000000000000000000000000000000000000000000000000000000000000000000000   COLCOUNPresident / Vice-President                              OVER VOTES                            Precinct 201                  County                   01 
00040070005000002000000000000000002000000000000000000000000000000000000000000000000000000000000000000   COLCOUNPresident / Vice-President                              OVER VOTES                            Precinct 202                  County                   01 
00040070006000000000000000000000000000000000000000000000000000000000000000000000000000000000000000000   COLCOUNPresident / Vice-President                              OVER VOTES                            Precinct 302                  County                   01 
00040070007000000000000000000000000000000000000000000000000000000000000000000000000000000000000000000   COLCOUNPresident / Vice-President                              OVER VOTES                            Precinct 303                  County                   01 
00040070008000000000000000000000000000000000000000000000000000000000000000000000000000000000000000000   COLCOUNPresident / Vice-President                              OVER VOTES                            Precinct 304                  County                   01 
00040070009000000000000000000000000000000000000000000000000000000000000000000000000000000000000000000   COLCOUNPresident / Vice-President                              OVER VOTES                            Precinct 305                  County                   01 
00040070010000000000000000000000000000000000000000000000000000000000000000000000000000000000000000000   COLCOUNPresident / Vice-President                              OVER VOTES                            Precinct 401                  County                   01 
00040070011000000000000000000000000000000000000000000000000000000000000000000000000000000000000000000   COLCOUNPresident / Vice-President                              OVER VOTES                            Precinct 402                  County                   01 
00040080001000002000000000002000000000000000000000000000000000000000000000000000000000000000000000000   COLCOUNPresident / Vice-President                              UNDER VOTES                           Precinct 101                  County                   01 
00040080002000001000000000000000001000000000000000000000000000000000000000000000000000000000000000000   COLCOUNPresident / Vice-President                              UNDER VOTES                           Precinct 102                  County                   01 
00040080003000002000000000001000001000000000000000000000000000000000000000000000000000000000000000000   COLCOUNPresident / Vice-President                              UNDER VOTES                           Precinct 103                  County                   01 
00040080004000008000000000006000002000000000000000000000000000000000000000000000000000000000000000000   COLCOUNPresident / Vice-President                              UNDER VOTES                           Precinct 201                  County                   01 
00040080005000000000000000000000000000000000000000000000000000000000000000000000000000000000000000000   COLCOUNPresident / Vice-President                              UNDER VOTES                           Precinct 202                  County                   01 
00040080006000003000001000001000001000000000000000000000000000000000000000000000000000000000000000000   COLCOUNPresident / Vice-President                              UNDER VOTES                           Precinct 302                  County                   01 
00040080007000002000002000000000000000000000000000000000000000000000000000000000000000000000000000000   COLCOUNPresident / Vice-President                              UNDER VOTES                           Precinct 303                  County                   01 
00040080008000001000000000001000000000000000000000000000000000000000000000000000000000000000000000000   COLCOUNPresident / Vice-President                              UNDER VOTES                           Precinct 304                  County                   01 
00040080009000003000000000003000000000000000000000000000000000000000000000000000000000000000000000000   COLCOUNPresident / Vice-President                              UNDER VOTES                           Precinct 305                  County                   01 
00040080010000002000000000002000000000000000000000000000000000000000000000000000000000000000000000000   COLCOUNPresident / Vice-President                              UNDER VOTES                           Precinct 401                  County                   01 
00040080011000012000002000005000005000000000000000000000000000000000000000000000000000000000000000000   COLCOUNPresident / Vice-President                              UNDER VOTES                           Precinct 402                  County                   01 
00050010001001115000093000823000199000000000000000000000000000000000000000000000000000000000000000000REPCOLCOUNUS Senator                                              REP John Cornyn                       Precinct 101                  County                   01 
00050010002000160000009000090000061000000000000000000000000000000000000000000000000000000000000000000REPCOLCOUNUS Senator                                              REP John Cornyn                       Precinct 102                  County                   01 
00050010003000399000023000180000196000000000000000000000000000000000000000000000000000000000000000000REPCOLCOUNUS Senator                                              REP John Cornyn                       Precinct 103                  County                   01 
00050010004001780000134001428000218000000000000000000000000000000000000000000000000000000000000000000REPCOLCOUNUS Senator                                              REP John Cornyn                       Precinct 201                  County                   01 
00050010005000369000028000183000158000000000000000000000000000000000000000000000000000000000000000000REPCOLCOUNUS Senator                                              REP John Cornyn                       Precinct 202                  County                   01 
00050010006000781000055000505000221000000000000000000000000000000000000000000000000000000000000000000REPCOLCOUNUS Senator                                              REP John Cornyn                       Precinct 302                  County                   01 
00050010007000391000015000296000080000000000000000000000000000000000000000000000000000000000000000000REPCOLCOUNUS Senator                                              REP John Cornyn                       Precinct 303                  County                   01 
00050010008000351000023000239000089000000000000000000000000000000000000000000000000000000000000000000REPCOLCOUNUS Senator                                              REP John Cornyn                       Precinct 304                  County                   01 
00050010009000986000071000801000114000000000000000000000000000000000000000000000000000000000000000000REPCOLCOUNUS Senator                                              REP John Cornyn                       Precinct 305                  County                   01 
00050010010000176000008000137000031000000000000000000000000000000000000000000000000000000000000000000REPCOLCOUNUS Senator                                              REP John Cornyn                       Precinct 401                  County                   01 
00050010011000859000070000654000135000000000000000000000000000000000000000000000000000000000000000000REPCOLCOUNUS Senator                                              REP John Cornyn                       Precinct 402                  County                   01 
00050020001000418000086000286000046000000000000000000000000000000000000000000000000000000000000000000DEMCOLCOUNUS Senator                                              DEM Mary "MJ" Hegar                   Precinct 101                  County                   01 
00050020002000046000010000023000013000000000000000000000000000000000000000000000000000000000000000000DEMCOLCOUNUS Senator                                              DEM Mary "MJ" Hegar                   Precinct 102                  County                   01 
00050020003000057000011000024000022000000000000000000000000000000000000000000000000000000000000000000DEMCOLCOUNUS Senator                                              DEM Mary "MJ" Hegar                   Precinct 103                  County                   01 
00050020004000452000087000312000053000000000000000000000000000000000000000000000000000000000000000000DEMCOLCOUNUS Senator                                              DEM Mary "MJ" Hegar                   Precinct 201                  County                   01 
00050020005000056000017000032000007000000000000000000000000000000000000000000000000000000000000000000DEMCOLCOUNUS Senator                                              DEM Mary "MJ" Hegar                   Precinct 202                  County                   01 
00050020006000131000039000074000018000000000000000000000000000000000000000000000000000000000000000000DEMCOLCOUNUS Senator                                              DEM Mary "MJ" Hegar                   Precinct 302                  County                   01 
00050020007000056000016000035000005000000000000000000000000000000000000000000000000000000000000000000DEMCOLCOUNUS Senator                                              DEM Mary "MJ" Hegar                   Precinct 303                  County                   01 
00050020008000060000010000031000019000000000000000000000000000000000000000000000000000000000000000000DEMCOLCOUNUS Senator                                              DEM Mary "MJ" Hegar                   Precinct 304                  County                   01 
00050020009000273000048000186000039000000000000000000000000000000000000000000000000000000000000000000DEMCOLCOUNUS Senator                                              DEM Mary "MJ" Hegar                   Precinct 305                  County                   01 
00050020010000107000023000070000014000000000000000000000000000000000000000000000000000000000000000000DEMCOLCOUNUS Senator                                              DEM Mary "MJ" Hegar                   Precinct 401                  County                   01 
00050020011000706000108000490000108000000000000000000000000000000000000000000000000000000000000000000DEMCOLCOUNUS Senator                                              DEM Mary "MJ" Hegar                   Precinct 402                  County                   01 
00050030001000021000001000014000006000000000000000000000000000000000000000000000000000000000000000000LIBCOLCOUNUS Senator                                              LIB Kerry Douglas McKennon            Precinct 101                  County                   01 
00050030002000008000001000004000003000000000000000000000000000000000000000000000000000000000000000000LIBCOLCOUNUS Senator                                              LIB Kerry Douglas McKennon            Precinct 102                  County                   01 
00050030003000007000000000005000002000000000000000000000000000000000000000000000000000000000000000000LIBCOLCOUNUS Senator                                              LIB Kerry Douglas McKennon            Precinct 103                  County                   01 
00050030004000021000001000013000007000000000000000000000000000000000000000000000000000000000000000000LIBCOLCOUNUS Senator                                              LIB Kerry Douglas McKennon            Precinct 201                  County                   01 
00050030005000010000001000003000006000000000000000000000000000000000000000000000000000000000000000000LIBCOLCOUNUS Senator                                              LIB Kerry Douglas McKennon            Precinct 202                  County                   01 
00050030006000001000000000001000000000000000000000000000000000000000000000000000000000000000000000000LIBCOLCOUNUS Senator                                              LIB Kerry Douglas McKennon            Precinct 302                  County                   01 
00050030007000010000000000009000001000000000000000000000000000000000000000000000000000000000000000000LIBCOLCOUNUS Senator                                              LIB Kerry Douglas McKennon            Precinct 303                  County                   01 
00050030008000003000000000003000000000000000000000000000000000000000000000000000000000000000000000000LIBCOLCOUNUS Senator                                              LIB Kerry Douglas McKennon            Precinct 304                  County                   01 
00050030009000011000000000006000005000000000000000000000000000000000000000000000000000000000000000000LIBCOLCOUNUS Senator                                              LIB Kerry Douglas McKennon            Precinct 305                  County                   01 
00050030010000003000000000003000000000000000000000000000000000000000000000000000000000000000000000000LIBCOLCOUNUS Senator                                              LIB Kerry Douglas McKennon            Precinct 401                  County                   01 
00050030011000021000002000011000008000000000000000000000000000000000000000000000000000000000000000000LIBCOLCOUNUS Senator                                              LIB Kerry Douglas McKennon            Precinct 402                  County                   01 
00050040001000009000000000007000002000000000000000000000000000000000000000000000000000000000000000000GRNCOLCOUNUS Senator                                              GRN David B. Collins                  Precinct 101                  County                   01 
00050040002000000000000000000000000000000000000000000000000000000000000000000000000000000000000000000GRNCOLCOUNUS Senator                                              GRN David B. Collins                  Precinct 102                  County                   01 
00050040003000001000000000001000000000000000000000000000000000000000000000000000000000000000000000000GRNCOLCOUNUS Senator                                              GRN David B. Collins                  Precinct 103                  County                   01 
00050040004000007000000000005000002000000000000000000000000000000000000000000000000000000000000000000GRNCOLCOUNUS Senator                                              GRN David B. Collins                  Precinct 201                  County                   01 
00050040005000002000000000001000001000000000000000000000000000000000000000000000000000000000000000000GRNCOLCOUNUS Senator                                              GRN David B. Collins                  Precinct 202                  County                   01 
00050040006000001000000000000000001000000000000000000000000000000000000000000000000000000000000000000GRNCOLCOUNUS Senator                                              GRN David B. Collins                  Precinct 302                  County                   01 
00050040007000000000000000000000000000000000000000000000000000000000000000000000000000000000000000000GRNCOLCOUNUS Senator                                              GRN David B. Collins                  Precinct 303                  County                   01 
00050040008000002000000000001000001000000000000000000000000000000000000000000000000000000000000000000GRNCOLCOUNUS Senator                                              GRN David B. Collins                  Precinct 304                  County                   01 
00050040009000004000000000001000003000000000000000000000000000000000000000000000000000000000000000000GRNCOLCOUNUS Senator                                              GRN David B. Collins                  Precinct 305                  County                   01 
00050040010000001000000000001000000000000000000000000000000000000000000000000000000000000000000000000GRNCOLCOUNUS Senator                                              GRN David B. Collins                  Precinct 401                  County                   01 
00050040011000016000000000014000002000000000000000000000000000000000000000000000000000000000000000000GRNCOLCOUNUS Senator                                              GRN David B. Collins                  Precinct 402                  County                   01 
00050060001000001000000000000000001000000000000000000000000000000000000000000000000000000000000000000NONCOLCOUNUS Senator                                              Write-in                              Precinct 101                  County                   01 
00050060002000000000000000000000000000000000000000000000000000000000000000000000000000000000000000000NONCOLCOUNUS Senator                                              Write-in                              Precinct 102                  County                   01 
00050060003000000000000000000000000000000000000000000000000000000000000000000000000000000000000000000NONCOLCOUNUS Senator                                              Write-in                              Precinct 103                  County                   01 
00050060004000000000000000000000000000000000000000000000000000000000000000000000000000000000000000000NONCOLCOUNUS Senator                                              Write-in                              Precinct 201                  County                   01 
00050060005000000000000000000000000000000000000000000000000000000000000000000000000000000000000000000NONCOLCOUNUS Senator                                              Write-in                              Precinct 202                  County                   01 
00050060006000000000000000000000000000000000000000000000000000000000000000000000000000000000000000000NONCOLCOUNUS Senator                                              Write-in                              Precinct 302                  County                   01 
00050060007000000000000000000000000000000000000000000000000000000000000000000000000000000000000000000NONCOLCOUNUS Senator                                              Write-in                              Precinct 303                  County                   01 
00050060008000000000000000000000000000000000000000000000000000000000000000000000000000000000000000000NONCOLCOUNUS Senator                                              Write-in                              Precinct 304                  County                   01 
00050060009000000000000000000000000000000000000000000000000000000000000000000000000000000000000000000NONCOLCOUNUS Senator                                              Write-in                              Precinct 305                  County                   01 
00050060010000000000000000000000000000000000000000000000000000000000000000000000000000000000000000000NONCOLCOUNUS Senator                                              Write-in                              Precinct 401                  County                   01 
00050060011000001000000000000000001000000000000000000000000000000000000000000000000000000000000000000NONCOLCOUNUS Senator                                              Write-in                              Precinct 402                  County                   01 
00050070001000000000000000000000000000000000000000000000000000000000000000000000000000000000000000000   COLCOUNUS Senator                                              OVER VOTES                            Precinct 101                  County                   01 
00050070002000001000000000001000000000000000000000000000000000000000000000000000000000000000000000000   COLCOUNUS Senator                                              OVER VOTES                            Precinct 102                  County                   01 
00050070003000001000000000000000001000000000000000000000000000000000000000000000000000000000000000000   COLCOUNUS Senator                                              OVER VOTES                            Precinct 103                  County                   01 
00050070004000000000000000000000000000000000000000000000000000000000000000000000000000000000000000000   COLCOUNUS Senator                                              OVER VOTES                            Precinct 201                  County                   01 
00050070005000001000000000000000001000000000000000000000000000000000000000000000000000000000000000000   COLCOUNUS Senator                                              OVER VOTES                            Precinct 202                  County                   01 
00050070006000001000000000001000000000000000000000000000000000000000000000000000000000000000000000000   COLCOUNUS Senator                                              OVER VOTES                            Precinct 302                  County                   01 
00050070007000000000000000000000000000000000000000000000000000000000000000000000000000000000000000000   COLCOUNUS Senator                                              OVER VOTES                            Precinct 303                  County                   01 
00050070008000000000000000000000000000000000000000000000000000000000000000000000000000000000000000000   COLCOUNUS Senator                                              OVER VOTES                            Precinct 304                  County                   01 
00050070009000000000000000000000000000000000000000000000000000000000000000000000000000000000000000000   COLCOUNUS Senator                                              OVER VOTES                            Precinct 305                  County                   01 
00050070010000000000000000000000000000000000000000000000000000000000000000000000000000000000000000000   COLCOUNUS Senator                                              OVER VOTES                            Precinct 401                  County                   01 
00050070011000001000000000000000001000000000000000000000000000000000000000000000000000000000000000000   COLCOUNUS Senator                                              OVER VOTES                            Precinct 402                  County                   01 
00050080001000019000002000012000005000000000000000000000000000000000000000000000000000000000000000000   COLCOUNUS Senator                                              UNDER VOTES                           Precinct 101                  County                   01 
00050080002000002000001000000000001000000000000000000000000000000000000000000000000000000000000000000   COLCOUNUS Senator                                              UNDER VOTES                           Precinct 102                  County                   01 
00050080003000003000000000001000002000000000000000000000000000000000000000000000000000000000000000000   COLCOUNUS Senator                                              UNDER VOTES                           Precinct 103                  County                   01 
00050080004000023000002000018000003000000000000000000000000000000000000000000000000000000000000000000   COLCOUNUS Senator                                              UNDER VOTES                           Precinct 201                  County                   01 
00050080005000001000000000001000000000000000000000000000000000000000000000000000000000000000000000000   COLCOUNUS Senator                                              UNDER VOTES                           Precinct 202                  County                   01 
00050080006000012000000000007000005000000000000000000000000000000000000000000000000000000000000000000   COLCOUNUS Senator                                              UNDER VOTES                           Precinct 302                  County                   01 
00050080007000007000003000003000001000000000000000000000000000000000000000000000000000000000000000000   COLCOUNUS Senator                                              UNDER VOTES                           Precinct 303                  County                   01 
00050080008000004000000000003000001000000000000000000000000000000000000000000000000000000000000000000   COLCOUNUS Senator                                              UNDER VOTES                           Precinct 304                  County                   01 
00050080009000018000000000014000004000000000000000000000000000000000000000000000000000000000000000000   COLCOUNUS Senator                                              UNDER VOTES                           Precinct 305                  County                   01 
00050080010000007000000000006000001000000000000000000000000000000000000000000000000000000000000000000   COLCOUNUS Senator                                              UNDER VOTES                           Precinct 401                  County                   01 
00050080011000022000003000015000004000000000000000000000000000000000000000000000000000000000000000000   COLCOUNUS Senator                                              UNDER VOTES                           Precinct 402                  County                   01 
00060010001001123000093000828000202000000000000000000000000000000000000000000000000000000000000000000REPCOLCOUNUS Representative, Dist 10                              REP Michael McCaul                    Precinct 101                  County                   01 
00060010002000163000008000091000064000000000000000000000000000000000000000000000000000000000000000000REPCOLCOUNUS Representative, Dist 10                              REP Michael McCaul                    Precinct 102                  County                   01 
00060010003000401000025000180000196000000000000000000000000000000000000000000000000000000000000000000REPCOLCOUNUS Representative, Dist 10                              REP Michael McCaul                    Precinct 103                  County                   01 
00060010004001790000135001433000222000000000000000000000000000000000000000000000000000000000000000000REPCOLCOUNUS Representative, Dist 10                              REP Michael McCaul                    Precinct 201                  County                   01 
00060010005000371000028000184000159000000000000000000000000000000000000000000000000000000000000000000REPCOLCOUNUS Representative, Dist 10                              REP Michael McCaul                    Precinct 202                  County                   01 
00060010006000788000055000507000226000000000000000000000000000000000000000000000000000000000000000000REPCOLCOUNUS Representative, Dist 10                              REP Michael McCaul                    Precinct 302                  County                   01 
00060010007000395000017000299000079000000000000000000000000000000000000000000000000000000000000000000REPCOLCOUNUS Representative, Dist 10                              REP Michael McCaul                    Precinct 303                  County                   01 
00060010008000353000026000237000090000000000000000000000000000000000000000000000000000000000000000000REPCOLCOUNUS Representative, Dist 10                              REP Michael McCaul                    Precinct 304                  County                   01 
00060010009000995000069000807000119000000000000000000000000000000000000000000000000000000000000000000REPCOLCOUNUS Representative, Dist 10                              REP Michael McCaul                    Precinct 305                  County                   01 
00060010010000175000007000137000031000000000000000000000000000000000000000000000000000000000000000000REPCOLCOUNUS Representative, Dist 10                              REP Michael McCaul                    Precinct 401                  County                   01 
00060010011000869000068000664000137000000000000000000000000000000000000000000000000000000000000000000REPCOLCOUNUS Representative, Dist 10                              REP Michael McCaul                    Precinct 402                  County                   01 
00060020001000403000087000271000045000000000000000000000000000000000000000000000000000000000000000000DEMCOLCOUNUS Representative, Dist 10                              DEM Mike Siegel                       Precinct 101                  County                   01 
00060020002000044000012000021000011000000000000000000000000000000000000000000000000000000000000000000DEMCOLCOUNUS Representative, Dist 10                              DEM Mike Siegel                       Precinct 102                  County                   01 
00060020003000053000009000023000021000000000000000000000000000000000000000000000000000000000000000000DEMCOLCOUNUS Representative, Dist 10                              DEM Mike Siegel                       Precinct 103                  County                   01 
00060020004000435000084000301000050000000000000000000000000000000000000000000000000000000000000000000DEMCOLCOUNUS Representative, Dist 10                              DEM Mike Siegel                       Precinct 201                  County                   01 
00060020005000057000016000033000008000000000000000000000000000000000000000000000000000000000000000000DEMCOLCOUNUS Representative, Dist 10                              DEM Mike Siegel                       Precinct 202                  County                   01 
00060020006000114000037000067000010000000000000000000000000000000000000000000000000000000000000000000DEMCOLCOUNUS Representative, Dist 10                              DEM Mike Siegel                       Precinct 302                  County                   01 
00060020007000054000015000034000005000000000000000000000000000000000000000000000000000000000000000000DEMCOLCOUNUS Representative, Dist 10                              DEM Mike Siegel                       Precinct 303                  County                   01 
00060020008000055000007000032000016000000000000000000000000000000000000000000000000000000000000000000DEMCOLCOUNUS Representative, Dist 10                              DEM Mike Siegel                       Precinct 304                  County                   01 
00060020009000265000049000176000040000000000000000000000000000000000000000000000000000000000000000000DEMCOLCOUNUS Representative, Dist 10                              DEM Mike Siegel                       Precinct 305                  County                   01 
00060020010000110000023000072000015000000000000000000000000000000000000000000000000000000000000000000DEMCOLCOUNUS Representative, Dist 10                              DEM Mike Siegel                       Precinct 401                  County                   01 
00060020011000709000110000487000112000000000000000000000000000000000000000000000000000000000000000000DEMCOLCOUNUS Representative, Dist 10                              DEM Mike Siegel                       Precinct 402                  County                   01 
00060030001000029000001000021000007000000000000000000000000000000000000000000000000000000000000000000LIBCOLCOUNUS Representative, Dist 10                              LIB Roy Eriksen                       Precinct 101                  County                   01 
00060030002000004000000000003000001000000000000000000000000000000000000000000000000000000000000000000LIBCOLCOUNUS Representative, Dist 10                              LIB Roy Eriksen                       Precinct 102                  County                   01 
00060030003000005000000000003000002000000000000000000000000000000000000000000000000000000000000000000LIBCOLCOUNUS Representative, Dist 10                              LIB Roy Eriksen                       Precinct 103                  County                   01 
00060030004000027000002000019000006000000000000000000000000000000000000000000000000000000000000000000LIBCOLCOUNUS Representative, Dist 10                              LIB Roy Eriksen                       Precinct 201                  County                   01 
00060030005000007000002000001000004000000000000000000000000000000000000000000000000000000000000000000LIBCOLCOUNUS Representative, Dist 10                              LIB Roy Eriksen                       Precinct 202                  County                   01 
00060030006000004000000000003000001000000000000000000000000000000000000000000000000000000000000000000LIBCOLCOUNUS Representative, Dist 10                              LIB Roy Eriksen                       Precinct 302                  County                   01 
00060030007000007000000000007000000000000000000000000000000000000000000000000000000000000000000000000LIBCOLCOUNUS Representative, Dist 10                              LIB Roy Eriksen                       Precinct 303                  County                   01 
00060030008000004000000000003000001000000000000000000000000000000000000000000000000000000000000000000LIBCOLCOUNUS Representative, Dist 10                              LIB Roy Eriksen                       Precinct 304                  County                   01 
00060030009000013000000000010000003000000000000000000000000000000000000000000000000000000000000000000LIBCOLCOUNUS Representative, Dist 10                              LIB Roy Eriksen                       Precinct 305                  County                   01 
00060030010000002000000000002000000000000000000000000000000000000000000000000000000000000000000000000LIBCOLCOUNUS Representative, Dist 10                              LIB Roy Eriksen                       Precinct 401                  County                   01 
00060030011000018000001000012000005000000000000000000000000000000000000000000000000000000000000000000LIBCOLCOUNUS Representative, Dist 10                              LIB Roy Eriksen                       Precinct 402                  County                   01 
00060040001000001000000000001000000000000000000000000000000000000000000000000000000000000000000000000   COLCOUNUS Representative, Dist 10                              OVER VOTES                            Precinct 101                  County                   01 
00060040002000001000000000000000001000000000000000000000000000000000000000000000000000000000000000000   COLCOUNUS Representative, Dist 10                              OVER VOTES                            Precinct 102                  County                   01 
00060040003000000000000000000000000000000000000000000000000000000000000000000000000000000000000000000   COLCOUNUS Representative, Dist 10                              OVER VOTES                            Precinct 103                  County                   01 
00060040004000000000000000000000000000000000000000000000000000000000000000000000000000000000000000000   COLCOUNUS Representative, Dist 10                              OVER VOTES                            Precinct 201                  County                   01 
00060040005000000000000000000000000000000000000000000000000000000000000000000000000000000000000000000   COLCOUNUS Representative, Dist 10                              OVER VOTES                            Precinct 202                  County                   01 
00060040006000000000000000000000000000000000000000000000000000000000000000000000000000000000000000000   COLCOUNUS Representative, Dist 10                              OVER VOTES                            Precinct 302                  County                   01 
00060040007000000000000000000000000000000000000000000000000000000000000000000000000000000000000000000   COLCOUNUS Representative, Dist 10                              OVER VOTES                            Precinct 303                  County                   01 
00060040008000000000000000000000000000000000000000000000000000000000000000000000000000000000000000000   COLCOUNUS Representative, Dist 10                              OVER VOTES                            Precinct 304                  County                   01 
00060040009000000000000000000000000000000000000000000000000000000000000000000000000000000000000000000   COLCOUNUS Representative, Dist 10                              OVER VOTES                            Precinct 305                  County                   01 
00060040010000000000000000000000000000000000000000000000000000000000000000000000000000000000000000000   COLCOUNUS Representative, Dist 10                              OVER VOTES                            Precinct 401                  County                   01 
00060040011000000000000000000000000000000000000000000000000000000000000000000000000000000000000000000   COLCOUNUS Representative, Dist 10                              OVER VOTES                            Precinct 402                  County                   01 
00060050001000027000001000021000005000000000000000000000000000000000000000000000000000000000000000000   COLCOUNUS Representative, Dist 10                              UNDER VOTES                           Precinct 101                  County                   01 
00060050002000005000001000003000001000000000000000000000000000000000000000000000000000000000000000000   COLCOUNUS Representative, Dist 10                              UNDER VOTES                           Precinct 102                  County                   01 
00060050003000009000000000005000004000000000000000000000000000000000000000000000000000000000000000000   COLCOUNUS Representative, Dist 10                              UNDER VOTES                           Precinct 103                  County                   01 
00060050004000031000003000023000005000000000000000000000000000000000000000000000000000000000000000000   COLCOUNUS Representative, Dist 10                              UNDER VOTES                           Precinct 201                  County                   01 
00060050005000004000000000002000002000000000000000000000000000000000000000000000000000000000000000000   COLCOUNUS Representative, Dist 10                              UNDER VOTES                           Precinct 202                  County                   01 
00060050006000021000002000011000008000000000000000000000000000000000000000000000000000000000000000000   COLCOUNUS Representative, Dist 10                              UNDER VOTES                           Precinct 302                  County                   01 
00060050007000008000002000003000003000000000000000000000000000000000000000000000000000000000000000000   COLCOUNUS Representative, Dist 10                              UNDER VOTES                           Precinct 303                  County                   01 
00060050008000008000000000005000003000000000000000000000000000000000000000000000000000000000000000000   COLCOUNUS Representative, Dist 10                              UNDER VOTES                           Precinct 304                  County                   01 
00060050009000019000001000015000003000000000000000000000000000000000000000000000000000000000000000000   COLCOUNUS Representative, Dist 10                              UNDER VOTES                           Precinct 305                  County                   01 
00060050010000007000001000006000000000000000000000000000000000000000000000000000000000000000000000000   COLCOUNUS Representative, Dist 10                              UNDER VOTES                           Precinct 401                  County                   01 
00060050011000030000004000021000005000000000000000000000000000000000000000000000000000000000000000000   COLCOUNUS Representative, Dist 10                              UNDER VOTES                           Precinct 402                  County                   01 
00070010001001109000091000817000201000000000000000000000000000000000000000000000000000000000000000000REPCOLCOUNRailroad Commissioner                                   REP James "Jim" Wright                Precinct 101                  County                   01 
00070010002000162000009000090000063000000000000000000000000000000000000000000000000000000000000000000REPCOLCOUNRailroad Commissioner                                   REP James "Jim" Wright                Precinct 102                  County                   01 
00070010003000397000023000177000197000000000000000000000000000000000000000000000000000000000000000000REPCOLCOUNRailroad Commissioner                                   REP James "Jim" Wright                Precinct 103                  County                   01 
00070010004001765000127001417000221000000000000000000000000000000000000000000000000000000000000000000REPCOLCOUNRailroad Commissioner                                   REP James "Jim" Wright                Precinct 201                  County                   01 
00070010005000364000028000179000157000000000000000000000000000000000000000000000000000000000000000000REPCOLCOUNRailroad Commissioner                                   REP James "Jim" Wright                Precinct 202                  County                   01 
00070010006000765000055000493000217000000000000000000000000000000000000000000000000000000000000000000REPCOLCOUNRailroad Commissioner                                   REP James "Jim" Wright                Precinct 302                  County                   01 
00070010007000391000015000297000079000000000000000000000000000000000000000000000000000000000000000000REPCOLCOUNRailroad Commissioner                                   REP James "Jim" Wright                Precinct 303                  County                   01 
00070010008000356000026000242000088000000000000000000000000000000000000000000000000000000000000000000REPCOLCOUNRailroad Commissioner                                   REP James "Jim" Wright                Precinct 304                  County                   01 
00070010009000978000071000791000116000000000000000000000000000000000000000000000000000000000000000000REPCOLCOUNRailroad Commissioner                                   REP James "Jim" Wright                Precinct 305                  County                   01 
00070010010000173000007000133000033000000000000000000000000000000000000000000000000000000000000000000REPCOLCOUNRailroad Commissioner                                   REP James "Jim" Wright                Precinct 401                  County                   01 
00070010011000845000072000641000132000000000000000000000000000000000000000000000000000000000000000000REPCOLCOUNRailroad Commissioner                                   REP James "Jim" Wright                Precinct 402                  County                   01 
00070020001000408000081000283000044000000000000000000000000000000000000000000000000000000000000000000DEMCOLCOUNRailroad Commissioner                                   DEM Chrysta Castaneda                 Precinct 101                  County                   01 
00070020002000040000010000022000008000000000000000000000000000000000000000000000000000000000000000000DEMCOLCOUNRailroad Commissioner                                   DEM Chrysta Castaneda                 Precinct 102                  County                   01 
00070020003000061000011000028000022000000000000000000000000000000000000000000000000000000000000000000DEMCOLCOUNRailroad Commissioner                                   DEM Chrysta Castaneda                 Precinct 103                  County                   01 
00070020004000433000088000298000047000000000000000000000000000000000000000000000000000000000000000000DEMCOLCOUNRailroad Commissioner                                   DEM Chrysta Castaneda                 Precinct 201                  County                   01 
00070020005000059000016000032000011000000000000000000000000000000000000000000000000000000000000000000DEMCOLCOUNRailroad Commissioner                                   DEM Chrysta Castaneda                 Precinct 202                  County                   01 
00070020006000123000035000073000015000000000000000000000000000000000000000000000000000000000000000000DEMCOLCOUNRailroad Commissioner                                   DEM Chrysta Castaneda                 Precinct 302                  County                   01 
00070020007000054000017000032000005000000000000000000000000000000000000000000000000000000000000000000DEMCOLCOUNRailroad Commissioner                                   DEM Chrysta Castaneda                 Precinct 303                  County                   01 
00070020008000052000006000029000017000000000000000000000000000000000000000000000000000000000000000000DEMCOLCOUNRailroad Commissioner                                   DEM Chrysta Castaneda                 Precinct 304                  County                   01 
00070020009000262000048000176000038000000000000000000000000000000000000000000000000000000000000000000DEMCOLCOUNRailroad Commissioner                                   DEM Chrysta Castaneda                 Precinct 305                  County                   01 
00070020010000112000024000076000012000000000000000000000000000000000000000000000000000000000000000000DEMCOLCOUNRailroad Commissioner                                   DEM Chrysta Castaneda                 Precinct 401                  County                   01 
00070020011000708000103000493000112000000000000000000000000000000000000000000000000000000000000000000DEMCOLCOUNRailroad Commissioner                                   DEM Chrysta Castaneda                 Precinct 402                  County                   01 
00070030001000023000003000018000002000000000000000000000000000000000000000000000000000000000000000000LIBCOLCOUNRailroad Commissioner                                   LIB Matt Sterett                      Precinct 101                  County                   01 
00070030002000007000001000003000003000000000000000000000000000000000000000000000000000000000000000000LIBCOLCOUNRailroad Commissioner                                   LIB Matt Sterett                      Precinct 102                  County                   01 
00070030003000005000000000004000001000000000000000000000000000000000000000000000000000000000000000000LIBCOLCOUNRailroad Commissioner                                   LIB Matt Sterett                      Precinct 103                  County                   01 
00070030004000024000000000019000005000000000000000000000000000000000000000000000000000000000000000000LIBCOLCOUNRailroad Commissioner                                   LIB Matt Sterett                      Precinct 201                  County                   01 
00070030005000013000002000006000005000000000000000000000000000000000000000000000000000000000000000000LIBCOLCOUNRailroad Commissioner                                   LIB Matt Sterett                      Precinct 202                  County                   01 
00070030006000007000000000006000001000000000000000000000000000000000000000000000000000000000000000000LIBCOLCOUNRailroad Commissioner                                   LIB Matt Sterett                      Precinct 302                  County                   01 
00070030007000007000000000007000000000000000000000000000000000000000000000000000000000000000000000000LIBCOLCOUNRailroad Commissioner                                   LIB Matt Sterett                      Precinct 303                  County                   01 
00070030008000002000000000002000000000000000000000000000000000000000000000000000000000000000000000000LIBCOLCOUNRailroad Commissioner                                   LIB Matt Sterett                      Precinct 304                  County                   01 
00070030009000015000000000013000002000000000000000000000000000000000000000000000000000000000000000000LIBCOLCOUNRailroad Commissioner                                   LIB Matt Sterett                      Precinct 305                  County                   01 
00070030010000003000000000002000001000000000000000000000000000000000000000000000000000000000000000000LIBCOLCOUNRailroad Commissioner                                   LIB Matt Sterett                      Precinct 401                  County                   01 
00070030011000019000002000013000004000000000000000000000000000000000000000000000000000000000000000000LIBCOLCOUNRailroad Commissioner                                   LIB Matt Sterett                      Precinct 402                  County                   01 
00070040001000013000002000006000005000000000000000000000000000000000000000000000000000000000000000000GRNCOLCOUNRailroad Commissioner                                   GRN Katija "Kat" Gruene               Precinct 101                  County                   01 
00070040002000002000000000000000002000000000000000000000000000000000000000000000000000000000000000000GRNCOLCOUNRailroad Commissioner                                   GRN Katija "Kat" Gruene               Precinct 102                  County                   01 
00070040003000000000000000000000000000000000000000000000000000000000000000000000000000000000000000000GRNCOLCOUNRailroad Commissioner                                   GRN Katija "Kat" Gruene               Precinct 103                  County                   01 
00070040004000011000002000005000004000000000000000000000000000000000000000000000000000000000000000000GRNCOLCOUNRailroad Commissioner                                   GRN Katija "Kat" Gruene               Precinct 201                  County                   01 
00070040005000001000000000001000000000000000000000000000000000000000000000000000000000000000000000000GRNCOLCOUNRailroad Commissioner                                   GRN Katija "Kat" Gruene               Precinct 202                  County                   01 
00070040006000005000000000004000001000000000000000000000000000000000000000000000000000000000000000000GRNCOLCOUNRailroad Commissioner                                   GRN Katija "Kat" Gruene               Precinct 302                  County                   01 
00070040007000002000000000002000000000000000000000000000000000000000000000000000000000000000000000000GRNCOLCOUNRailroad Commissioner                                   GRN Katija "Kat" Gruene               Precinct 303                  County                   01 
00070040008000004000001000002000001000000000000000000000000000000000000000000000000000000000000000000GRNCOLCOUNRailroad Commissioner                                   GRN Katija "Kat" Gruene               Precinct 304                  County                   01 
00070040009000011000000000008000003000000000000000000000000000000000000000000000000000000000000000000GRNCOLCOUNRailroad Commissioner                                   GRN Katija "Kat" Gruene               Precinct 305                  County                   01 
00070040010000000000000000000000000000000000000000000000000000000000000000000000000000000000000000000GRNCOLCOUNRailroad Commissioner                                   GRN Katija "Kat" Gruene               Precinct 401                  County                   01 
00070040011000011000001000008000002000000000000000000000000000000000000000000000000000000000000000000GRNCOLCOUNRailroad Commissioner                                   GRN Katija "Kat" Gruene               Precinct 402                  County                   01 
00070050001000001000000000001000000000000000000000000000000000000000000000000000000000000000000000000   COLCOUNRailroad Commissioner                                   OVER VOTES                            Precinct 101                  County                   01 
00070050002000000000000000000000000000000000000000000000000000000000000000000000000000000000000000000   COLCOUNRailroad Commissioner                                   OVER VOTES                            Precinct 102                  County                   01 
00070050003000000000000000000000000000000000000000000000000000000000000000000000000000000000000000000   COLCOUNRailroad Commissioner                                   OVER VOTES                            Precinct 103                  County                   01 
00070050004000000000000000000000000000000000000000000000000000000000000000000000000000000000000000000   COLCOUNRailroad Commissioner                                   OVER VOTES                            Precinct 201                  County                   01 
00070050005000000000000000000000000000000000000000000000000000000000000000000000000000000000000000000   COLCOUNRailroad Commissioner                                   OVER VOTES                            Precinct 202                  County                   01 
00070050006000000000000000000000000000000000000000000000000000000000000000000000000000000000000000000   COLCOUNRailroad Commissioner                                   OVER VOTES                            Precinct 302                  County                   01 
00070050007000000000000000000000000000000000000000000000000000000000000000000000000000000000000000000   COLCOUNRailroad Commissioner                                   OVER VOTES                            Precinct 303                  County                   01 
00070050008000000000000000000000000000000000000000000000000000000000000000000000000000000000000000000   COLCOUNRailroad Commissioner                                   OVER VOTES                            Precinct 304                  County                   01 
00070050009000000000000000000000000000000000000000000000000000000000000000000000000000000000000000000   COLCOUNRailroad Commissioner                                   OVER VOTES                            Precinct 305                  County                   01 
00070050010000000000000000000000000000000000000000000000000000000000000000000000000000000000000000000   COLCOUNRailroad Commissioner                                   OVER VOTES                            Precinct 401                  County                   01 
00070050011000000000000000000000000000000000000000000000000000000000000000000000000000000000000000000   COLCOUNRailroad Commissioner                                   OVER VOTES                            Precinct 402                  County                   01 
00070060001000029000005000017000007000000000000000000000000000000000000000000000000000000000000000000   COLCOUNRailroad Commissioner                                   UNDER VOTES                           Precinct 101                  County                   01 
00070060002000006000001000003000002000000000000000000000000000000000000000000000000000000000000000000   COLCOUNRailroad Commissioner                                   UNDER VOTES                           Precinct 102                  County                   01 
00070060003000005000000000002000003000000000000000000000000000000000000000000000000000000000000000000   COLCOUNRailroad Commissioner                                   UNDER VOTES                           Precinct 103                  County                   01 
00070060004000050000007000037000006000000000000000000000000000000000000000000000000000000000000000000   COLCOUNRailroad Commissioner                                   UNDER VOTES                           Precinct 201                  County                   01 
00070060005000002000000000002000000000000000000000000000000000000000000000000000000000000000000000000   COLCOUNRailroad Commissioner                                   UNDER VOTES                           Precinct 202                  County                   01 
00070060006000027000004000012000011000000000000000000000000000000000000000000000000000000000000000000   COLCOUNRailroad Commissioner                                   UNDER VOTES                           Precinct 302                  County                   01 
00070060007000010000002000005000003000000000000000000000000000000000000000000000000000000000000000000   COLCOUNRailroad Commissioner                                   UNDER VOTES                           Precinct 303                  County                   01 
00070060008000006000000000002000004000000000000000000000000000000000000000000000000000000000000000000   COLCOUNRailroad Commissioner                                   UNDER VOTES                           Precinct 304                  County                   01 
00070060009000026000000000020000006000000000000000000000000000000000000000000000000000000000000000000   COLCOUNRailroad Commissioner                                   UNDER VOTES                           Precinct 305                  County                   01 
00070060010000006000000000006000000000000000000000000000000000000000000000000000000000000000000000000   COLCOUNRailroad Commissioner                                   UNDER VOTES                           Precinct 401                  County                   01 
00070060011000043000005000029000009000000000000000000000000000000000000000000000000000000000000000000   COLCOUNRailroad Commissioner                                   UNDER VOTES                           Precinct 402                  County                   01 
00080010001001105000094000814000197000000000000000000000000000000000000000000000000000000000000000000REPCOLCOUNChief Justice, Supreme Court                            REP Nathan Hecht                      Precinct 101                  County                   01 
00080010002000165000010000093000062000000000000000000000000000000000000000000000000000000000000000000REPCOLCOUNChief Justice, Supreme Court                            REP Nathan Hecht                      Precinct 102                  County                   01 
00080010003000396000023000180000193000000000000000000000000000000000000000000000000000000000000000000REPCOLCOUNChief Justice, Supreme Court                            REP Nathan Hecht                      Precinct 103                  County                   01 
00080010004001762000130001411000221000000000000000000000000000000000000000000000000000000000000000000REPCOLCOUNChief Justice, Supreme Court                            REP Nathan Hecht                      Precinct 201                  County                   01 
00080010005000372000029000184000159000000000000000000000000000000000000000000000000000000000000000000REPCOLCOUNChief Justice, Supreme Court                            REP Nathan Hecht                      Precinct 202                  County                   01 
00080010006000783000054000505000224000000000000000000000000000000000000000000000000000000000000000000REPCOLCOUNChief Justice, Supreme Court                            REP Nathan Hecht                      Precinct 302                  County                   01 
00080010007000392000015000298000079000000000000000000000000000000000000000000000000000000000000000000REPCOLCOUNChief Justice, Supreme Court                            REP Nathan Hecht                      Precinct 303                  County                   01 
00080010008000354000025000241000088000000000000000000000000000000000000000000000000000000000000000000REPCOLCOUNChief Justice, Supreme Court                            REP Nathan Hecht                      Precinct 304                  County                   01 
00080010009000977000069000795000113000000000000000000000000000000000000000000000000000000000000000000REPCOLCOUNChief Justice, Supreme Court                            REP Nathan Hecht                      Precinct 305                  County                   01 
00080010010000178000008000138000032000000000000000000000000000000000000000000000000000000000000000000REPCOLCOUNChief Justice, Supreme Court                            REP Nathan Hecht                      Precinct 401                  County                   01 
00080010011000850000070000649000131000000000000000000000000000000000000000000000000000000000000000000REPCOLCOUNChief Justice, Supreme Court                            REP Nathan Hecht                      Precinct 402                  County                   01 
00080020001000408000083000279000046000000000000000000000000000000000000000000000000000000000000000000DEMCOLCOUNChief Justice, Supreme Court                            DEM Amy Clark Meachum                 Precinct 101                  County                   01 
00080020002000040000010000020000010000000000000000000000000000000000000000000000000000000000000000000DEMCOLCOUNChief Justice, Supreme Court                            DEM Amy Clark Meachum                 Precinct 102                  County                   01 
00080020003000058000010000025000023000000000000000000000000000000000000000000000000000000000000000000DEMCOLCOUNChief Justice, Supreme Court                            DEM Amy Clark Meachum                 Precinct 103                  County                   01 
00080020004000432000083000301000048000000000000000000000000000000000000000000000000000000000000000000DEMCOLCOUNChief Justice, Supreme Court                            DEM Amy Clark Meachum                 Precinct 201                  County                   01 
00080020005000056000015000032000009000000000000000000000000000000000000000000000000000000000000000000DEMCOLCOUNChief Justice, Supreme Court                            DEM Amy Clark Meachum                 Precinct 202                  County                   01 
00080020006000113000036000068000009000000000000000000000000000000000000000000000000000000000000000000DEMCOLCOUNChief Justice, Supreme Court                            DEM Amy Clark Meachum                 Precinct 302                  County                   01 
00080020007000057000017000035000005000000000000000000000000000000000000000000000000000000000000000000DEMCOLCOUNChief Justice, Supreme Court                            DEM Amy Clark Meachum                 Precinct 303                  County                   01 
00080020008000053000008000032000013000000000000000000000000000000000000000000000000000000000000000000DEMCOLCOUNChief Justice, Supreme Court                            DEM Amy Clark Meachum                 Precinct 304                  County                   01 
00080020009000265000049000175000041000000000000000000000000000000000000000000000000000000000000000000DEMCOLCOUNChief Justice, Supreme Court                            DEM Amy Clark Meachum                 Precinct 305                  County                   01 
00080020010000105000023000070000012000000000000000000000000000000000000000000000000000000000000000000DEMCOLCOUNChief Justice, Supreme Court                            DEM Amy Clark Meachum                 Precinct 401                  County                   01 
00080020011000712000107000494000111000000000000000000000000000000000000000000000000000000000000000000DEMCOLCOUNChief Justice, Supreme Court                            DEM Amy Clark Meachum                 Precinct 402                  County                   01 
00080030001000034000002000026000006000000000000000000000000000000000000000000000000000000000000000000LIBCOLCOUNChief Justice, Supreme Court                            LIB Mark Ash                          Precinct 101                  County                   01 
00080030002000006000000000003000003000000000000000000000000000000000000000000000000000000000000000000LIBCOLCOUNChief Justice, Supreme Court                            LIB Mark Ash                          Precinct 102                  County                   01 
00080030003000005000000000004000001000000000000000000000000000000000000000000000000000000000000000000LIBCOLCOUNChief Justice, Supreme Court                            LIB Mark Ash                          Precinct 103                  County                   01 
00080030004000026000001000019000006000000000000000000000000000000000000000000000000000000000000000000LIBCOLCOUNChief Justice, Supreme Court                            LIB Mark Ash                          Precinct 201                  County                   01 
00080030005000009000002000003000004000000000000000000000000000000000000000000000000000000000000000000LIBCOLCOUNChief Justice, Supreme Court                            LIB Mark Ash                          Precinct 202                  County                   01 
00080030006000005000000000004000001000000000000000000000000000000000000000000000000000000000000000000LIBCOLCOUNChief Justice, Supreme Court                            LIB Mark Ash                          Precinct 302                  County                   01 
00080030007000006000000000006000000000000000000000000000000000000000000000000000000000000000000000000LIBCOLCOUNChief Justice, Supreme Court                            LIB Mark Ash                          Precinct 303                  County                   01 
00080030008000004000000000001000003000000000000000000000000000000000000000000000000000000000000000000LIBCOLCOUNChief Justice, Supreme Court                            LIB Mark Ash                          Precinct 304                  County                   01 
00080030009000017000000000012000005000000000000000000000000000000000000000000000000000000000000000000LIBCOLCOUNChief Justice, Supreme Court                            LIB Mark Ash                          Precinct 305                  County                   01 
00080030010000005000000000003000002000000000000000000000000000000000000000000000000000000000000000000LIBCOLCOUNChief Justice, Supreme Court                            LIB Mark Ash                          Precinct 401                  County                   01 
00080030011000024000003000011000010000000000000000000000000000000000000000000000000000000000000000000LIBCOLCOUNChief Justice, Supreme Court                            LIB Mark Ash                          Precinct 402                  County                   01 
00080040001000000000000000000000000000000000000000000000000000000000000000000000000000000000000000000   COLCOUNChief Justice, Supreme Court                            OVER VOTES                            Precinct 101                  County                   01 
00080040002000000000000000000000000000000000000000000000000000000000000000000000000000000000000000000   COLCOUNChief Justice, Supreme Court                            OVER VOTES                            Precinct 102                  County                   01 
00080040003000001000000000000000001000000000000000000000000000000000000000000000000000000000000000000   COLCOUNChief Justice, Supreme Court                            OVER VOTES                            Precinct 103                  County                   01 
00080040004000000000000000000000000000000000000000000000000000000000000000000000000000000000000000000   COLCOUNChief Justice, Supreme Court                            OVER VOTES                            Precinct 201                  County                   01 
00080040005000000000000000000000000000000000000000000000000000000000000000000000000000000000000000000   COLCOUNChief Justice, Supreme Court                            OVER VOTES                            Precinct 202                  County                   01 
00080040006000000000000000000000000000000000000000000000000000000000000000000000000000000000000000000   COLCOUNChief Justice, Supreme Court                            OVER VOTES                            Precinct 302                  County                   01 
00080040007000000000000000000000000000000000000000000000000000000000000000000000000000000000000000000   COLCOUNChief Justice, Supreme Court                            OVER VOTES                            Precinct 303                  County                   01 
00080040008000000000000000000000000000000000000000000000000000000000000000000000000000000000000000000   COLCOUNChief Justice, Supreme Court                            OVER VOTES                            Precinct 304                  County                   01 
00080040009000000000000000000000000000000000000000000000000000000000000000000000000000000000000000000   COLCOUNChief Justice, Supreme Court                            OVER VOTES                            Precinct 305                  County                   01 
00080040010000000000000000000000000000000000000000000000000000000000000000000000000000000000000000000   COLCOUNChief Justice, Supreme Court                            OVER VOTES                            Precinct 401                  County                   01 
00080040011000000000000000000000000000000000000000000000000000000000000000000000000000000000000000000   COLCOUNChief Justice, Supreme Court                            OVER VOTES                            Precinct 402                  County                   01 
00080050001000036000003000023000010000000000000000000000000000000000000000000000000000000000000000000   COLCOUNChief Justice, Supreme Court                            UNDER VOTES                           Precinct 101                  County                   01 
00080050002000006000001000002000003000000000000000000000000000000000000000000000000000000000000000000   COLCOUNChief Justice, Supreme Court                            UNDER VOTES                           Precinct 102                  County                   01 
00080050003000008000001000002000005000000000000000000000000000000000000000000000000000000000000000000   COLCOUNChief Justice, Supreme Court                            UNDER VOTES                           Precinct 103                  County                   01 
00080050004000063000010000045000008000000000000000000000000000000000000000000000000000000000000000000   COLCOUNChief Justice, Supreme Court                            UNDER VOTES                           Precinct 201                  County                   01 
00080050005000002000000000001000001000000000000000000000000000000000000000000000000000000000000000000   COLCOUNChief Justice, Supreme Court                            UNDER VOTES                           Precinct 202                  County                   01 
00080050006000026000004000011000011000000000000000000000000000000000000000000000000000000000000000000   COLCOUNChief Justice, Supreme Court                            UNDER VOTES                           Precinct 302                  County                   01 
00080050007000009000002000004000003000000000000000000000000000000000000000000000000000000000000000000   COLCOUNChief Justice, Supreme Court                            UNDER VOTES                           Precinct 303                  County                   01 
00080050008000009000000000003000006000000000000000000000000000000000000000000000000000000000000000000   COLCOUNChief Justice, Supreme Court                            UNDER VOTES                           Precinct 304                  County                   01 
00080050009000033000001000026000006000000000000000000000000000000000000000000000000000000000000000000   COLCOUNChief Justice, Supreme Court                            UNDER VOTES                           Precinct 305                  County                   01 
00080050010000006000000000006000000000000000000000000000000000000000000000000000000000000000000000000   COLCOUNChief Justice, Supreme Court                            UNDER VOTES                           Precinct 401                  County                   01 
00080050011000040000003000030000007000000000000000000000000000000000000000000000000000000000000000000   COLCOUNChief Justice, Supreme Court                            UNDER VOTES                           Precinct 402                  County                   01 
00090010001001138000095000836000207000000000000000000000000000000000000000000000000000000000000000000REPCOLCOUNJustice, Supreme Court, Pl 6                            REP Jane Bland                        Precinct 101                  County                   01 
00090010002000173000012000095000066000000000000000000000000000000000000000000000000000000000000000000REPCOLCOUNJustice, Supreme Court, Pl 6                            REP Jane Bland                        Precinct 102                  County                   01 
00090010003000403000024000183000196000000000000000000000000000000000000000000000000000000000000000000REPCOLCOUNJustice, Supreme Court, Pl 6                            REP Jane Bland                        Precinct 103                  County                   01 
00090010004001783000128001427000228000000000000000000000000000000000000000000000000000000000000000000REPCOLCOUNJustice, Supreme Court, Pl 6                            REP Jane Bland                        Precinct 201                  County                   01 
00090010005000379000030000187000162000000000000000000000000000000000000000000000000000000000000000000REPCOLCOUNJustice, Supreme Court, Pl 6                            REP Jane Bland                        Precinct 202                  County                   01 
00090010006000776000055000501000220000000000000000000000000000000000000000000000000000000000000000000REPCOLCOUNJustice, Supreme Court, Pl 6                            REP Jane Bland                        Precinct 302                  County                   01 
00090010007000395000016000300000079000000000000000000000000000000000000000000000000000000000000000000REPCOLCOUNJustice, Supreme Court, Pl 6                            REP Jane Bland                        Precinct 303                  County                   01 
00090010008000354000025000242000087000000000000000000000000000000000000000000000000000000000000000000REPCOLCOUNJustice, Supreme Court, Pl 6                            REP Jane Bland                        Precinct 304                  County                   01 
00090010009000995000069000806000120000000000000000000000000000000000000000000000000000000000000000000REPCOLCOUNJustice, Supreme Court, Pl 6                            REP Jane Bland                        Precinct 305                  County                   01 
00090010010000181000008000142000031000000000000000000000000000000000000000000000000000000000000000000REPCOLCOUNJustice, Supreme Court, Pl 6                            REP Jane Bland                        Precinct 401                  County                   01 
00090010011000860000070000658000132000000000000000000000000000000000000000000000000000000000000000000REPCOLCOUNJustice, Supreme Court, Pl 6                            REP Jane Bland                        Precinct 402                  County                   01 
