01010010001000285000000000000000000000000000000          REGISTERED VOTERS - TOTAL                               REGISTERED VOTERS - TOTAL             PRECINCT 1                                             00 
01010010002000465000000000000000000000000000000          REGISTERED VOTERS - TOTAL                               REGISTERED VOTERS - TOTAL             PRECINCT 2                                             00 
01010010003000393000000000000000000000000000000          REGISTERED VOTERS - TOTAL                               REGISTERED VOTERS - TOTAL             PRECINCT 3                                             00 
01010010004000338000000000000000000000000000000          REGISTERED VOTERS - TOTAL                               REGISTERED VOTERS - TOTAL             PRECINCT 4                                             00 
01020010001000168000111000013000044000000000000          BALLOTS CAST - TOTAL                                    BALLOTS CAST - TOTAL                  PRECINCT 1                                             00 
01020010002000359000173000023000163000000000000          BALLOTS CAST - TOTAL                                    BALLOTS CAST - TOTAL                  PRECINCT 2                                             00 
01020010003000322000255000019000048000000000000          BALLOTS CAST - TOTAL                                    BALLOTS CAST - TOTAL                  PRECINCT 3                                             00 
01020010004000223000158000027000038000000000000          BALLOTS CAST - TOTAL                                    BALLOTS CAST - TOTAL                  PRECINCT 4                                             00 
01030010001000142000091000009000042000000000000REP       President / Vice-President                              Donald J. Trump / Michael R. P        PRECINCT 1                                             01 
01030010002000311000153000017000141000000000000REP       President / Vice-President                              Donald J. Trump / Michael R. P        PRECINCT 2                                             01 
01030010003000273000222000013000038000000000000REP       President / Vice-President                              Donald J. Trump / Michael R. P        PRECINCT 3                                             01 
01030010004000167000120000021000026000000000000REP       President / Vice-President                              Donald J. Trump / Michael R. P        PRECINCT 4                                             01 
01030020001000024000018000004000002000000000000DEM       President / Vice-President                              Joseph R. Biden / Kamala D. Ha        PRECINCT 1                                             01 
01030020002000046000020000006000020000000000000DEM       President / Vice-President                              Joseph R. Biden / Kamala D. Ha        PRECINCT 2                                             01 
01030020003000045000031000005000009000000000000DEM       President / Vice-President                              Joseph R. Biden / Kamala D. Ha        PRECINCT 3                                             01 
01030020004000053000035000006000012000000000000DEM       President / Vice-President                              Joseph R. Biden / Kamala D. Ha        PRECINCT 4                                             01 
01030030001000000000000000000000000000000000000LIB       President / Vice-President                              Jo Jorgensen / Jeremy "Spike"         PRECINCT 1                                             01 
01030030002000002000000000000000002000000000000LIB       President / Vice-President                              Jo Jorgensen / Jeremy "Spike"         PRECINCT 2                                             01 
01030030003000003000001000001000001000000000000LIB       President / Vice-President                              Jo Jorgensen / Jeremy "Spike"         PRECINCT 3                                             01 
01030030004000000000000000000000000000000000000LIB       President / Vice-President                              Jo Jorgensen / Jeremy "Spike"         PRECINCT 4                                             01 
01030040001000000000000000000000000000000000000GRN       President / Vice-President                              Howie Hawkins / Angela Walker         PRECINCT 1                                             01 
01030040002000000000000000000000000000000000000GRN       President / Vice-President                              Howie Hawkins / Angela Walker         PRECINCT 2                                             01 
01030040003000000000000000000000000000000000000GRN       President / Vice-President                              Howie Hawkins / Angela Walker         PRECINCT 3                                             01 
01030040004000000000000000000000000000000000000GRN       President / Vice-President                              Howie Hawkins / Angela Walker         PRECINCT 4                                             01 
01030050001000000000000000000000000000000000000NON       President / Vice-President                              WRITE-IN                              PRECINCT 1                                             01 
01030050002000000000000000000000000000000000000NON       President / Vice-President                              WRITE-IN                              PRECINCT 2                                             01 
01030050003000000000000000000000000000000000000NON       President / Vice-President                              WRITE-IN                              PRECINCT 3                                             01 
01030050004000000000000000000000000000000000000NON       President / Vice-President                              WRITE-IN                              PRECINCT 4                                             01 
01030060001000000000000000000000000000000000000          President / Vice-President                              OVER VOTES                            PRECINCT 1                                             01 
01030060002000000000000000000000000000000000000          President / Vice-President                              OVER VOTES                            PRECINCT 2                                             01 
01030060003000000000000000000000000000000000000          President / Vice-President                              OVER VOTES                            PRECINCT 3                                             01 
01030060004000000000000000000000000000000000000          President / Vice-President                              OVER VOTES                            PRECINCT 4                                             01 
01030070001000002000002000000000000000000000000          President / Vice-President                              UNDER VOTES                           PRECINCT 1                                             01 
01030070002000000000000000000000000000000000000          President / Vice-President                              UNDER VOTES                           PRECINCT 2                                             01 
01030070003000001000001000000000000000000000000          President / Vice-President                              UNDER VOTES                           PRECINCT 3                                             01 
01030070004000003000003000000000000000000000000          President / Vice-President                              UNDER VOTES                           PRECINCT 4                                             01 
01040010001000115000080000008000027000000000000REP       United States Senator                                   John Cornyn                           PRECINCT 1                                             01 
01040010002000305000152000017000136000000000000REP       United States Senator                                   John Cornyn                           PRECINCT 2                                             01 
01040010003000259000213000013000033000000000000REP       United States Senator                                   John Cornyn                           PRECINCT 3                                             01 
01040010004000145000111000016000018000000000000REP       United States Senator                                   John Cornyn                           PRECINCT 4                                             01 
01040020001000030000024000004000002000000000000DEM       United States Senator                                   Mary "MJ" Hegar                       PRECINCT 1                                             01 
01040020002000036000016000006000014000000000000DEM       United States Senator                                   Mary "MJ" Hegar                       PRECINCT 2                                             01 
01040020003000033000021000005000007000000000000DEM       United States Senator                                   Mary "MJ" Hegar                       PRECINCT 3                                             01 
01040020004000045000029000007000009000000000000DEM       United States Senator                                   Mary "MJ" Hegar                       PRECINCT 4                                             01 
01040030001000002000000000000000002000000000000LIB       United States Senator                                   Kerry Douglas McKennon                PRECINCT 1                                             01 
01040030002000004000001000000000003000000000000LIB       United States Senator                                   Kerry Douglas McKennon                PRECINCT 2                                             01 
01040030003000006000005000001000000000000000000LIB       United States Senator                                   Kerry Douglas McKennon                PRECINCT 3                                             01 
01040030004000002000002000000000000000000000000LIB       United States Senator                                   Kerry Douglas McKennon                PRECINCT 4                                             01 
01040040001000000000000000000000000000000000000GRN       United States Senator                                   David B. Collins                      PRECINCT 1                                             01 
01040040002000001000000000000000001000000000000GRN       United States Senator                                   David B. Collins                      PRECINCT 2                                             01 
01040040003000002000002000000000000000000000000GRN       United States Senator                                   David B. Collins                      PRECINCT 3                                             01 
01040040004000000000000000000000000000000000000GRN       United States Senator                                   David B. Collins                      PRECINCT 4                                             01 
01040050001000001000000000000000001000000000000NON       United States Senator                                   WRITE-IN                              PRECINCT 1                                             01 
01040050002000000000000000000000000000000000000NON       United States Senator                                   WRITE-IN                              PRECINCT 2                                             01 
01040050003000000000000000000000000000000000000NON       United States Senator                                   WRITE-IN                              PRECINCT 3                                             01 
01040050004000000000000000000000000000000000000NON       United States Senator                                   WRITE-IN                              PRECINCT 4                                             01 
01040060001000000000000000000000000000000000000          United States Senator                                   OVER VOTES                            PRECINCT 1                                             01 
01040060002000000000000000000000000000000000000          United States Senator                                   OVER VOTES                            PRECINCT 2                                             01 
01040060003000000000000000000000000000000000000          United States Senator                                   OVER VOTES                            PRECINCT 3                                             01 
01040060004000000000000000000000000000000000000          United States Senator                                   OVER VOTES                            PRECINCT 4                                             01 
01040070001000020000007000001000012000000000000          United States Senator                                   UNDER VOTES                           PRECINCT 1                                             01 
01040070002000013000004000000000009000000000000          United States Senator                                   UNDER VOTES                           PRECINCT 2                                             01 
01040070003000022000014000000000008000000000000          United States Senator                                   UNDER VOTES                           PRECINCT 3                                             01 
01040070004000031000016000004000011000000000000          United States Senator                                   UNDER VOTES                           PRECINCT 4                                             01 
01050010001000115000081000008000026000000000000REP       United States Representative, Dist 23                   Tony Gonzales                         PRECINCT 1                                             01 
01050010002000308000151000017000140000000000000REP       United States Representative, Dist 23                   Tony Gonzales                         PRECINCT 2                                             01 
01050010003000264000214000013000037000000000000REP       United States Representative, Dist 23                   Tony Gonzales                         PRECINCT 3                                             01 
01050010004000146000112000015000019000000000000REP       United States Representative, Dist 23                   Tony Gonzales                         PRECINCT 4                                             01 
01050020001000034000020000004000010000000000000DEM       United States Representative, Dist 23                   Gina Ortiz Jones                      PRECINCT 1                                             01 
01050020002000035000015000006000014000000000000DEM       United States Representative, Dist 23                   Gina Ortiz Jones                      PRECINCT 2                                             01 
01050020003000035000023000005000007000000000000DEM       United States Representative, Dist 23                   Gina Ortiz Jones                      PRECINCT 3                                             01 
01050020004000050000029000009000012000000000000DEM       United States Representative, Dist 23                   Gina Ortiz Jones                      PRECINCT 4                                             01 
01050030001000004000002000000000002000000000000LIB       United States Representative, Dist 23                   Beto Villela                          PRECINCT 1                                             01 
01050030002000003000001000000000002000000000000LIB       United States Representative, Dist 23                   Beto Villela                          PRECINCT 2                                             01 
01050030003000004000002000001000001000000000000LIB       United States Representative, Dist 23                   Beto Villela                          PRECINCT 3                                             01 
01050030004000001000001000000000000000000000000LIB       United States Representative, Dist 23                   Beto Villela                          PRECINCT 4                                             01 
01050040001000000000000000000000000000000000000          United States Representative, Dist 23                   OVER VOTES                            PRECINCT 1                                             01 
01050040002000000000000000000000000000000000000          United States Representative, Dist 23                   OVER VOTES                            PRECINCT 2                                             01 
01050040003000000000000000000000000000000000000          United States Representative, Dist 23                   OVER VOTES                            PRECINCT 3                                             01 
01050040004000000000000000000000000000000000000          United States Representative, Dist 23                   OVER VOTES                            PRECINCT 4                                             01 
01050050001000015000008000001000006000000000000          United States Representative, Dist 23                   UNDER VOTES                           PRECINCT 1                                             01 
01050050002000011000004000000000007000000000000          United States Representative, Dist 23                   UNDER VOTES                           PRECINCT 2                                             01 
01050050003000013000010000000000003000000000000          United States Representative, Dist 23                   UNDER VOTES                           PRECINCT 3                                             01 
01050050004000025000015000003000007000000000000          United States Representative, Dist 23                   UNDER VOTES                           PRECINCT 4                                             01 
01060010001000111000077000008000026000000000000REP       Railroad Commissioner                                   James "Jim" Wright                    PRECINCT 1                                             01 
01060010002000298000143000017000138000000000000REP       Railroad Commissioner                                   James "Jim" Wright                    PRECINCT 2                                             01 
01060010003000252000207000013000032000000000000REP       Railroad Commissioner                                   James "Jim" Wright                    PRECINCT 3                                             01 
01060010004000131000103000012000016000000000000REP       Railroad Commissioner                                   James "Jim" Wright                    PRECINCT 4                                             01 
01060020001000028000021000004000003000000000000DEM       Railroad Commissioner                                   Chrysta Castaneda                     PRECINCT 1                                             01 
01060020002000040000019000004000017000000000000DEM       Railroad Commissioner                                   Chrysta Castaneda                     PRECINCT 2                                             01 
01060020003000036000026000004000006000000000000DEM       Railroad Commissioner                                   Chrysta Castaneda                     PRECINCT 3                                             01 
01060020004000047000031000007000009000000000000DEM       Railroad Commissioner                                   Chrysta Castaneda                     PRECINCT 4                                             01 
01060030001000004000001000000000003000000000000LIB       Railroad Commissioner                                   Matt Sterett                          PRECINCT 1                                             01 
01060030002000006000005000000000001000000000000LIB       Railroad Commissioner                                   Matt Sterett                          PRECINCT 2                                             01 
01060030003000008000005000001000002000000000000LIB       Railroad Commissioner                                   Matt Sterett                          PRECINCT 3                                             01 
01060030004000002000002000000000000000000000000LIB       Railroad Commissioner                                   Matt Sterett                          PRECINCT 4                                             01 
01060040001000001000001000000000000000000000000GRN       Railroad Commissioner                                   Katija "Kat" Gruene                   PRECINCT 1                                             01 
01060040002000001000000000000000001000000000000GRN       Railroad Commissioner                                   Katija "Kat" Gruene                   PRECINCT 2                                             01 
01060040003000000000000000000000000000000000000GRN       Railroad Commissioner                                   Katija "Kat" Gruene                   PRECINCT 3                                             01 
01060040004000000000000000000000000000000000000GRN       Railroad Commissioner                                   Katija "Kat" Gruene                   PRECINCT 4                                             01 
01060050001000000000000000000000000000000000000          Railroad Commissioner                                   OVER VOTES                            PRECINCT 1                                             01 
01060050002000000000000000000000000000000000000          Railroad Commissioner                                   OVER VOTES                            PRECINCT 2                                             01 
01060050003000000000000000000000000000000000000          Railroad Commissioner                                   OVER VOTES                            PRECINCT 3                                             01 
01060050004000000000000000000000000000000000000          Railroad Commissioner                                   OVER VOTES                            PRECINCT 4                                             01 
01060060001000024000011000001000012000000000000          Railroad Commissioner                                   UNDER VOTES                           PRECINCT 1                                             01 
01060060002000014000006000002000006000000000000          Railroad Commissioner                                   UNDER VOTES                           PRECINCT 2                                             01 
01060060003000026000017000001000008000000000000          Railroad Commissioner                                   UNDER VOTES                           PRECINCT 3                                             01 
01060060004000043000022000008000013000000000000          Railroad Commissioner                                   UNDER VOTES                           PRECINCT 4                                             01 
01070010001000110000078000008000024000000000000REP       Chief Justice, Supreme Court                            Nathan Hecht                          PRECINCT 1                                             01 
01070010002000304000149000017000138000000000000REP       Chief Justice, Supreme Court                            Nathan Hecht                          PRECINCT 2                                             01 
01070010003000252000206000013000033000000000000REP       Chief Justice, Supreme Court                            Nathan Hecht                          PRECINCT 3                                             01 
01070010004000128000101000012000015000000000000REP       Chief Justice, Supreme Court                            Nathan Hecht                          PRECINCT 4                                             01 
01070020001000025000017000004000004000000000000DEM       Chief Justice, Supreme Court                            Amy Clark Meachum                     PRECINCT 1                                             01 
01070020002000038000016000005000017000000000000DEM       Chief Justice, Supreme Court                            Amy Clark Meachum                     PRECINCT 2                                             01 
01070020003000037000025000004000008000000000000DEM       Chief Justice, Supreme Court                            Amy Clark Meachum                     PRECINCT 3                                             01 
01070020004000050000034000007000009000000000000DEM       Chief Justice, Supreme Court                            Amy Clark Meachum                     PRECINCT 4                                             01 
01070030001000004000000000000000004000000000000LIB       Chief Justice, Supreme Court                            Mark Ash                              PRECINCT 1                                             01 
01070030002000002000001000000000001000000000000LIB       Chief Justice, Supreme Court                            Mark Ash                              PRECINCT 2                                             01 
01070030003000005000003000001000001000000000000LIB       Chief Justice, Supreme Court                            Mark Ash                              PRECINCT 3                                             01 
01070030004000002000002000000000000000000000000LIB       Chief Justice, Supreme Court                            Mark Ash                              PRECINCT 4                                             01 
01070040001000000000000000000000000000000000000          Chief Justice, Supreme Court                            OVER VOTES                            PRECINCT 1                                             01 
01070040002000000000000000000000000000000000000          Chief Justice, Supreme Court                            OVER VOTES                            PRECINCT 2                                             01 
01070040003000000000000000000000000000000000000          Chief Justice, Supreme Court                            OVER VOTES                            PRECINCT 3                                             01 
01070040004000000000000000000000000000000000000          Chief Justice, Supreme Court                            OVER VOTES                            PRECINCT 4                                             01 
01070050001000029000016000001000012000000000000          Chief Justice, Supreme Court                            UNDER VOTES                           PRECINCT 1                                             01 
01070050002000015000007000001000007000000000000          Chief Justice, Supreme Court                            UNDER VOTES                           PRECINCT 2                                             01 
01070050003000028000021000001000006000000000000          Chief Justice, Supreme Court                            UNDER VOTES                           PRECINCT 3                                             01 
01070050004000043000021000008000014000000000000          Chief Justice, Supreme Court                            UNDER VOTES                           PRECINCT 4                                             01 
01080010001000113000076000008000029000000000000REP       Supreme Court, Place 6                                  Jane Bland                            PRECINCT 1                                             01 
01080010002000303000150000015000138000000000000REP       Supreme Court, Place 6                                  Jane Bland                            PRECINCT 2                                             01 
01080010003000252000205000014000033000000000000REP       Supreme Court, Place 6                                  Jane Bland                            PRECINCT 3                                             01 
01080010004000133000105000013000015000000000000REP       Supreme Court, Place 6                                  Jane Bland                            PRECINCT 4                                             01 
01080020001000020000016000004000000000000000000DEM       Supreme Court, Place 6                                  Kathy Cheng                           PRECINCT 1                                             01 
01080020002000034000014000005000015000000000000DEM       Supreme Court, Place 6                                  Kathy Cheng                           PRECINCT 2                                             01 
01080020003000037000025000003000009000000000000DEM       Supreme Court, Place 6                                  Kathy Cheng                           PRECINCT 3                                             01 
01080020004000043000029000006000008000000000000DEM       Supreme Court, Place 6                                  Kathy Cheng                           PRECINCT 4                                             01 
01080030001000000000000000000000000000000000000          Supreme Court, Place 6                                  OVER VOTES                            PRECINCT 1                                             01 
01080030002000000000000000000000000000000000000          Supreme Court, Place 6                                  OVER VOTES                            PRECINCT 2                                             01 
01080030003000000000000000000000000000000000000          Supreme Court, Place 6                                  OVER VOTES                            PRECINCT 3                                             01 
01080030004000000000000000000000000000000000000          Supreme Court, Place 6                                  OVER VOTES                            PRECINCT 4                                             01 
01080040001000035000019000001000015000000000000          Supreme Court, Place 6                                  UNDER VOTES                           PRECINCT 1                                             01 
01080040002000022000009000003000010000000000000          Supreme Court, Place 6                                  UNDER VOTES                           PRECINCT 2                                             01 
01080040003000033000025000002000006000000000000          Supreme Court, Place 6                                  UNDER VOTES                           PRECINCT 3                                             01 
01080040004000047000024000008000015000000000000          Supreme Court, Place 6                                  UNDER VOTES                           PRECINCT 4                                             01 
01090010001000106000074000008000024000000000000REP       Justice, Supreme Court, Place 7                         Jeff Boyd                             PRECINCT 1                                             01 
01090010002000305000149000017000139000000000000REP       Justice, Supreme Court, Place 7                         Jeff Boyd                             PRECINCT 2                                             01 
01090010003000249000204000013000032000000000000REP       Justice, Supreme Court, Place 7                         Jeff Boyd                             PRECINCT 3                                             01 
01090010004000132000104000013000015000000000000REP       Justice, Supreme Court, Place 7                         Jeff Boyd                             PRECINCT 4                                             01 
01090020001000024000018000004000002000000000000DEM       Justice, Supreme Court, Place 7                         Staci Williams                        PRECINCT 1                                             01 
01090020002000036000015000005000016000000000000DEM       Justice, Supreme Court, Place 7                         Staci Williams                        PRECINCT 2                                             01 
01090020003000036000023000004000009000000000000DEM       Justice, Supreme Court, Place 7                         Staci Williams                        PRECINCT 3                                             01 
01090020004000044000029000006000009000000000000DEM       Justice, Supreme Court, Place 7                         Staci Williams                        PRECINCT 4                                             01 
01090030001000003000001000000000002000000000000LIB       Justice, Supreme Court, Place 7                         William Bryan Strange III             PRECINCT 1                                             01 
01090030002000001000000000000000001000000000000LIB       Justice, Supreme Court, Place 7                         William Bryan Strange III             PRECINCT 2                                             01 
01090030003000006000004000001000001000000000000LIB       Justice, Supreme Court, Place 7                         William Bryan Strange III             PRECINCT 3                                             01 
01090030004000002000002000000000000000000000000LIB       Justice, Supreme Court, Place 7                         William Bryan Strange III             PRECINCT 4                                             01 
01090040001000000000000000000000000000000000000          Justice, Supreme Court, Place 7                         OVER VOTES                            PRECINCT 1                                             01 
01090040002000000000000000000000000000000000000          Justice, Supreme Court, Place 7                         OVER VOTES                            PRECINCT 2                                             01 
01090040003000000000000000000000000000000000000          Justice, Supreme Court, Place 7                         OVER VOTES                            PRECINCT 3                                             01 
01090040004000000000000000000000000000000000000          Justice, Supreme Court, Place 7                         OVER VOTES                            PRECINCT 4                                             01 
01090050001000035000018000001000016000000000000          Justice, Supreme Court, Place 7                         UNDER VOTES                           PRECINCT 1                                             01 
01090050002000017000009000001000007000000000000          Justice, Supreme Court, Place 7                         UNDER VOTES                           PRECINCT 2                                             01 
01090050003000031000024000001000006000000000000          Justice, Supreme Court, Place 7                         UNDER VOTES                           PRECINCT 3                                             01 
01090050004000045000023000008000014000000000000          Justice, Supreme Court, Place 7                         UNDER VOTES                           PRECINCT 4                                             01 
01100010001000105000076000008000021000000000000REP       Justice, Supreme Court, Place 8                         Brett Busby                           PRECINCT 1                                             01 
01100010002000306000150000017000139000000000000REP       Justice, Supreme Court, Place 8                         Brett Busby                           PRECINCT 2                                             01 
01100010003000248000202000013000033000000000000REP       Justice, Supreme Court, Place 8                         Brett Busby                           PRECINCT 3                                             01 
01100010004000128000101000012000015000000000000REP       Justice, Supreme Court, Place 8                         Brett Busby                           PRECINCT 4                                             01 
01100020001000027000019000004000004000000000000DEM       Justice, Supreme Court, Place 8                         Gisela D. Triana                      PRECINCT 1                                             01 
01100020002000036000014000005000017000000000000DEM       Justice, Supreme Court, Place 8                         Gisela D. Triana                      PRECINCT 2                                             01 
01100020003000036000023000004000009000000000000DEM       Justice, Supreme Court, Place 8                         Gisela D. Triana                      PRECINCT 3                                             01 
01100020004000045000030000007000008000000000000DEM       Justice, Supreme Court, Place 8                         Gisela D. Triana                      PRECINCT 4                                             01 
01100030001000004000001000000000003000000000000LIB       Justice, Supreme Court, Place 8                         Tom Oxford                            PRECINCT 1                                             01 
01100030002000000000000000000000000000000000000LIB       Justice, Supreme Court, Place 8                         Tom Oxford                            PRECINCT 2                                             01 
01100030003000005000004000001000000000000000000LIB       Justice, Supreme Court, Place 8                         Tom Oxford                            PRECINCT 3                                             01 
01100030004000003000003000000000000000000000000LIB       Justice, Supreme Court, Place 8                         Tom Oxford                            PRECINCT 4                                             01 
01100040001000000000000000000000000000000000000          Justice, Supreme Court, Place 8                         OVER VOTES                            PRECINCT 1                                             01 
01100040002000000000000000000000000000000000000          Justice, Supreme Court, Place 8                         OVER VOTES                            PRECINCT 2                                             01 
01100040003000000000000000000000000000000000000          Justice, Supreme Court, Place 8                         OVER VOTES                            PRECINCT 3                                             01 
01100040004000000000000000000000000000000000000          Justice, Supreme Court, Place 8                         OVER VOTES                            PRECINCT 4                                             01 
01100050001000032000015000001000016000000000000          Justice, Supreme Court, Place 8                         UNDER VOTES                           PRECINCT 1                                             01 
01100050002000017000009000001000007000000000000          Justice, Supreme Court, Place 8                         UNDER VOTES                           PRECINCT 2                                             01 
01100050003000033000026000001000006000000000000          Justice, Supreme Court, Place 8                         UNDER VOTES                           PRECINCT 3                                             01 
01100050004000047000024000008000015000000000000          Justice, Supreme Court, Place 8                         UNDER VOTES                           PRECINCT 4                                             01 
01110010001000110000077000008000025000000000000REP       Judge, Court of Criminal Appeals, Pl 3                  Bert Richardson                       PRECINCT 1                                             01 
01110010002000303000147000017000139000000000000REP       Judge, Court of Criminal Appeals, Pl 3                  Bert Richardson                       PRECINCT 2                                             01 
01110010003000249000203000014000032000000000000REP       Judge, Court of Criminal Appeals, Pl 3                  Bert Richardson                       PRECINCT 3                                             01 
01110010004000132000104000013000015000000000000REP       Judge, Court of Criminal Appeals, Pl 3                  Bert Richardson                       PRECINCT 4                                             01 
01110020001000027000019000004000004000000000000DEM       Judge, Court of Criminal Appeals, Pl 3                  Elizabeth Davis Frizell               PRECINCT 1                                             01 
01110020002000039000017000005000017000000000000DEM       Judge, Court of Criminal Appeals, Pl 3                  Elizabeth Davis Frizell               PRECINCT 2                                             01 
01110020003000039000026000004000009000000000000DEM       Judge, Court of Criminal Appeals, Pl 3                  Elizabeth Davis Frizell               PRECINCT 3                                             01 
01110020004000044000030000006000008000000000000DEM       Judge, Court of Criminal Appeals, Pl 3                  Elizabeth Davis Frizell               PRECINCT 4                                             01 
01110030001000000000000000000000000000000000000          Judge, Court of Criminal Appeals, Pl 3                  OVER VOTES                            PRECINCT 1                                             01 
01110030002000000000000000000000000000000000000          Judge, Court of Criminal Appeals, Pl 3                  OVER VOTES                            PRECINCT 2                                             01 
01110030003000000000000000000000000000000000000          Judge, Court of Criminal Appeals, Pl 3                  OVER VOTES                            PRECINCT 3                                             01 
01110030004000000000000000000000000000000000000          Judge, Court of Criminal Appeals, Pl 3                  OVER VOTES                            PRECINCT 4                                             01 
01110040001000031000015000001000015000000000000          Judge, Court of Criminal Appeals, Pl 3                  UNDER VOTES                           PRECINCT 1                                             01 
01110040002000017000009000001000007000000000000          Judge, Court of Criminal Appeals, Pl 3                  UNDER VOTES                           PRECINCT 2                                             01 
01110040003000034000026000001000007000000000000          Judge, Court of Criminal Appeals, Pl 3                  UNDER VOTES                           PRECINCT 3                                             01 
01110040004000047000024000008000015000000000000          Judge, Court of Criminal Appeals, Pl 3                  UNDER VOTES                           PRECINCT 4                                             01 
01120010001000108000074000008000026000000000000REP       Judge, Court of Criminal Appeals, Pl 4                  Kevin Patrick Yeary                   PRECINCT 1                                             01 
01120010002000304000147000017000140000000000000REP       Judge, Court of Criminal Appeals, Pl 4                  Kevin Patrick Yeary                   PRECINCT 2                                             01 
01120010003000247000201000014000032000000000000REP       Judge, Court of Criminal Appeals, Pl 4                  Kevin Patrick Yeary                   PRECINCT 3                                             01 
01120010004000131000103000012000016000000000000REP       Judge, Court of Criminal Appeals, Pl 4                  Kevin Patrick Yeary                   PRECINCT 4                                             01 
01120020001000026000020000004000002000000000000DEM       Judge, Court of Criminal Appeals, Pl 4                  Tina Clinton                          PRECINCT 1                                             01 
01120020002000038000016000005000017000000000000DEM       Judge, Court of Criminal Appeals, Pl 4                  Tina Clinton                          PRECINCT 2                                             01 
01120020003000040000027000004000009000000000000DEM       Judge, Court of Criminal Appeals, Pl 4                  Tina Clinton                          PRECINCT 3                                             01 
01120020004000044000030000007000007000000000000DEM       Judge, Court of Criminal Appeals, Pl 4                  Tina Clinton                          PRECINCT 4                                             01 
01120030001000000000000000000000000000000000000          Judge, Court of Criminal Appeals, Pl 4                  OVER VOTES                            PRECINCT 1                                             01 
01120030002000000000000000000000000000000000000          Judge, Court of Criminal Appeals, Pl 4                  OVER VOTES                            PRECINCT 2                                             01 
01120030003000000000000000000000000000000000000          Judge, Court of Criminal Appeals, Pl 4                  OVER VOTES                            PRECINCT 3                                             01 
01120030004000000000000000000000000000000000000          Judge, Court of Criminal Appeals, Pl 4                  OVER VOTES                            PRECINCT 4                                             01 
01120040001000034000017000001000016000000000000          Judge, Court of Criminal Appeals, Pl 4                  UNDER VOTES                           PRECINCT 1                                             01 
01120040002000017000010000001000006000000000000          Judge, Court of Criminal Appeals, Pl 4                  UNDER VOTES                           PRECINCT 2                                             01 
01120040003000035000027000001000007000000000000          Judge, Court of Criminal Appeals, Pl 4                  UNDER VOTES                           PRECINCT 3                                             01 
01120040004000048000025000008000015000000000000          Judge, Court of Criminal Appeals, Pl 4                  UNDER VOTES                           PRECINCT 4                                             01 
01130010001000109000076000008000025000000000000REP       Judge, Court of Criminal Appeals, Pl 9                  David Newell                          PRECINCT 1                                             01 
01130010002000302000149000015000138000000000000REP       Judge, Court of Criminal Appeals, Pl 9                  David Newell                          PRECINCT 2                                             01 
01130010003000249000205000014000030000000000000REP       Judge, Court of Criminal Appeals, Pl 9                  David Newell                          PRECINCT 3                                             01 
01130010004000132000104000013000015000000000000REP       Judge, Court of Criminal Appeals, Pl 9                  David Newell                          PRECINCT 4                                             01 
01130020001000023000018000004000001000000000000DEM       Judge, Court of Criminal Appeals, Pl 9                  Brandon Birmingham                    PRECINCT 1                                             01 
01130020002000033000014000005000014000000000000DEM       Judge, Court of Criminal Appeals, Pl 9                  Brandon Birmingham                    PRECINCT 2                                             01 
01130020003000039000024000004000011000000000000DEM       Judge, Court of Criminal Appeals, Pl 9                  Brandon Birmingham                    PRECINCT 3                                             01 
01130020004000043000029000006000008000000000000DEM       Judge, Court of Criminal Appeals, Pl 9                  Brandon Birmingham                    PRECINCT 4                                             01 
01130030001000000000000000000000000000000000000          Judge, Court of Criminal Appeals, Pl 9                  OVER VOTES                            PRECINCT 1                                             01 
01130030002000000000000000000000000000000000000          Judge, Court of Criminal Appeals, Pl 9                  OVER VOTES                            PRECINCT 2                                             01 
01130030003000000000000000000000000000000000000          Judge, Court of Criminal Appeals, Pl 9                  OVER VOTES                            PRECINCT 3                                             01 
01130030004000000000000000000000000000000000000          Judge, Court of Criminal Appeals, Pl 9                  OVER VOTES                            PRECINCT 4                                             01 
01130040001000036000017000001000018000000000000          Judge, Court of Criminal Appeals, Pl 9                  UNDER VOTES                           PRECINCT 1                                             01 
01130040002000024000010000003000011000000000000          Judge, Court of Criminal Appeals, Pl 9                  UNDER VOTES                           PRECINCT 2                                             01 
01130040003000034000026000001000007000000000000          Judge, Court of Criminal Appeals, Pl 9                  UNDER VOTES                           PRECINCT 3                                             01 
01130040004000048000025000008000015000000000000          Judge, Court of Criminal Appeals, Pl 9                  UNDER VOTES                           PRECINCT 4                                             01 
01140010001000109000078000008000023000000000000REP       Member, State BoE, District 1                           Jennifer Ivey                         PRECINCT 1                                             01 
01140010002000303000149000017000137000000000000REP       Member, State BoE, District 1                           Jennifer Ivey                         PRECINCT 2                                             01 
01140010003000243000198000013000032000000000000REP       Member, State BoE, District 1                           Jennifer Ivey                         PRECINCT 3                                             01 
01140010004000127000100000012000015000000000000REP       Member, State BoE, District 1                           Jennifer Ivey                         PRECINCT 4                                             01 
01140020001000030000020000004000006000000000000DEM       Member, State BoE, District 1                           Georgina Perez                        PRECINCT 1                                             01 
01140020002000038000013000005000020000000000000DEM       Member, State BoE, District 1                           Georgina Perez                        PRECINCT 2                                             01 
01140020003000037000024000004000009000000000000DEM       Member, State BoE, District 1                           Georgina Perez                        PRECINCT 3                                             01 
01140020004000049000032000007000010000000000000DEM       Member, State BoE, District 1                           Georgina Perez                        PRECINCT 4                                             01 
01140030001000000000000000000000000000000000000          Member, State BoE, District 1                           OVER VOTES                            PRECINCT 1                                             01 
01140030002000000000000000000000000000000000000          Member, State BoE, District 1                           OVER VOTES                            PRECINCT 2                                             01 
01140030003000000000000000000000000000000000000          Member, State BoE, District 1                           OVER VOTES                            PRECINCT 3                                             01 
01140030004000000000000000000000000000000000000          Member, State BoE, District 1                           OVER VOTES                            PRECINCT 4                                             01 
01140040001000029000013000001000015000000000000          Member, State BoE, District 1                           UNDER VOTES                           PRECINCT 1                                             01 
01140040002000016000009000001000006000000000000          Member, State BoE, District 1                           UNDER VOTES                           PRECINCT 2                                             01 
01140040003000036000027000002000007000000000000          Member, State BoE, District 1                           UNDER VOTES                           PRECINCT 3                                             01 
01140040004000047000026000008000013000000000000          Member, State BoE, District 1                           UNDER VOTES                           PRECINCT 4                                             01 
01150010001000121000085000008000028000000000000REP       State Senator, District 19                              Peter P. "Pete" Flores                PRECINCT 1                                             01 
01150010002000307000149000018000140000000000000REP       State Senator, District 19                              Peter P. "Pete" Flores                PRECINCT 2                                             01 
01150010003000251000204000013000034000000000000REP       State Senator, District 19                              Peter P. "Pete" Flores                PRECINCT 3                                             01 
01150010004000140000107000015000018000000000000REP       State Senator, District 19                              Peter P. "Pete" Flores                PRECINCT 4                                             01 
01150020001000022000017000004000001000000000000DEM       State Senator, District 19                              Roland Gutierrez                      PRECINCT 1                                             01 
01150020002000030000012000004000014000000000000DEM       State Senator, District 19                              Roland Gutierrez                      PRECINCT 2                                             01 
01150020003000039000025000004000010000000000000DEM       State Senator, District 19                              Roland Gutierrez                      PRECINCT 3                                             01 
01150020004000041000029000005000007000000000000DEM       State Senator, District 19                              Roland Gutierrez                      PRECINCT 4                                             01 
01150030001000003000001000000000002000000000000LIB       State Senator, District 19                              Jo-Anne Valdivia                      PRECINCT 1                                             01 
01150030002000005000002000000000003000000000000LIB       State Senator, District 19                              Jo-Anne Valdivia                      PRECINCT 2                                             01 
01150030003000004000003000001000000000000000000LIB       State Senator, District 19                              Jo-Anne Valdivia                      PRECINCT 3                                             01 
01150030004000002000002000000000000000000000000LIB       State Senator, District 19                              Jo-Anne Valdivia                      PRECINCT 4                                             01 
01150040001000000000000000000000000000000000000          State Senator, District 19                              OVER VOTES                            PRECINCT 1                                             01 
01150040002000000000000000000000000000000000000          State Senator, District 19                              OVER VOTES                            PRECINCT 2                                             01 
01150040003000000000000000000000000000000000000          State Senator, District 19                              OVER VOTES                            PRECINCT 3                                             01 
01150040004000000000000000000000000000000000000          State Senator, District 19                              OVER VOTES                            PRECINCT 4                                             01 
01150050001000022000008000001000013000000000000          State Senator, District 19                              UNDER VOTES                           PRECINCT 1                                             01 
01150050002000015000008000001000006000000000000          State Senator, District 19                              UNDER VOTES                           PRECINCT 2                                             01 
01150050003000022000017000001000004000000000000          State Senator, District 19                              UNDER VOTES                           PRECINCT 3                                             01 
01150050004000040000020000007000013000000000000          State Senator, District 19                              UNDER VOTES                           PRECINCT 4                                             01 
01160010001000117000082000007000028000000000000REP       State Representative, District 53                       Andrew S. Murr                        PRECINCT 1                                             01 
01160010002000310000155000017000138000000000000REP       State Representative, District 53                       Andrew S. Murr                        PRECINCT 2                                             01 
01160010003000261000215000013000033000000000000REP       State Representative, District 53                       Andrew S. Murr                        PRECINCT 3                                             01 
01160010004000145000110000017000018000000000000REP       State Representative, District 53                       Andrew S. Murr                        PRECINCT 4                                             01 
01160020001000026000019000004000003000000000000DEM       State Representative, District 53                       Joe P. Herrera                        PRECINCT 1                                             01 
01160020002000036000012000005000019000000000000DEM       State Representative, District 53                       Joe P. Herrera                        PRECINCT 2                                             01 
01160020003000040000025000005000010000000000000DEM       State Representative, District 53                       Joe P. Herrera                        PRECINCT 3                                             01 
01160020004000045000030000006000009000000000000DEM       State Representative, District 53                       Joe P. Herrera                        PRECINCT 4                                             01 
01160030001000000000000000000000000000000000000          State Representative, District 53                       OVER VOTES                            PRECINCT 1                                             01 
01160030002000000000000000000000000000000000000          State Representative, District 53                       OVER VOTES                            PRECINCT 2                                             01 
01160030003000000000000000000000000000000000000          State Representative, District 53                       OVER VOTES                            PRECINCT 3                                             01 
01160030004000000000000000000000000000000000000          State Representative, District 53                       OVER VOTES                            PRECINCT 4                                             01 
01160040001000025000010000002000013000000000000          State Representative, District 53                       UNDER VOTES                           PRECINCT 1                                             01 
01160040002000011000004000001000006000000000000          State Representative, District 53                       UNDER VOTES                           PRECINCT 2                                             01 
01160040003000016000010000001000005000000000000          State Representative, District 53                       UNDER VOTES                           PRECINCT 3                                             01 
01160040004000033000018000004000011000000000000          State Representative, District 53                       UNDER VOTES                           PRECINCT 4                                             01 
01170010001000107000078000006000023000000000000REP       Chief Justice, 4th Court of Appeals Dist                Renee Yanta                           PRECINCT 1                                             01 
01170010002000297000148000017000132000000000000REP       Chief Justice, 4th Court of Appeals Dist                Renee Yanta                           PRECINCT 2                                             01 
01170010003000247000201000014000032000000000000REP       Chief Justice, 4th Court of Appeals Dist                Renee Yanta                           PRECINCT 3                                             01 
01170010004000129000101000012000016000000000000REP       Chief Justice, 4th Court of Appeals Dist                Renee Yanta                           PRECINCT 4                                             01 
01170020001000032000020000004000008000000000000DEM       Chief Justice, 4th Court of Appeals Dist                Rebeca Martinez                       PRECINCT 1                                             01 
01170020002000040000014000005000021000000000000DEM       Chief Justice, 4th Court of Appeals Dist                Rebeca Martinez                       PRECINCT 2                                             01 
01170020003000042000028000004000010000000000000DEM       Chief Justice, 4th Court of Appeals Dist                Rebeca Martinez                       PRECINCT 3                                             01 
01170020004000045000030000006000009000000000000DEM       Chief Justice, 4th Court of Appeals Dist                Rebeca Martinez                       PRECINCT 4                                             01 
01170030001000000000000000000000000000000000000          Chief Justice, 4th Court of Appeals Dist                OVER VOTES                            PRECINCT 1                                             01 
01170030002000000000000000000000000000000000000          Chief Justice, 4th Court of Appeals Dist                OVER VOTES                            PRECINCT 2                                             01 
01170030003000000000000000000000000000000000000          Chief Justice, 4th Court of Appeals Dist                OVER VOTES                            PRECINCT 3                                             01 
01170030004000000000000000000000000000000000000          Chief Justice, 4th Court of Appeals Dist                OVER VOTES                            PRECINCT 4                                             01 
01170040001000029000013000003000013000000000000          Chief Justice, 4th Court of Appeals Dist                UNDER VOTES                           PRECINCT 1                                             01 
01170040002000020000009000001000010000000000000          Chief Justice, 4th Court of Appeals Dist                UNDER VOTES                           PRECINCT 2                                             01 
01170040003000028000021000001000006000000000000          Chief Justice, 4th Court of Appeals Dist                UNDER VOTES                           PRECINCT 3                                             01 
01170040004000049000027000009000013000000000000          Chief Justice, 4th Court of Appeals Dist                UNDER VOTES                           PRECINCT 4                                             01 
01180010001000120000081000006000033000000000000REP       County Attorney                                         Allen Ray Moody                       PRECINCT 1                                             01 
01180010002000307000143000019000145000000000000REP       County Attorney                                         Allen Ray Moody                       PRECINCT 2                                             01 
01180010003000239000190000018000031000000000000REP       County Attorney                                         Allen Ray Moody                       PRECINCT 3                                             01 
01180010004000149000108000020000021000000000000REP       County Attorney                                         Allen Ray Moody                       PRECINCT 4                                             01 
01180020001000000000000000000000000000000000000          County Attorney                                         OVER VOTES                            PRECINCT 1                                             01 
01180020002000000000000000000000000000000000000          County Attorney                                         OVER VOTES                            PRECINCT 2                                             01 
01180020003000000000000000000000000000000000000          County Attorney                                         OVER VOTES                            PRECINCT 3                                             01 
01180020004000000000000000000000000000000000000          County Attorney                                         OVER VOTES                            PRECINCT 4                                             01 
01180030001000048000030000007000011000000000000          County Attorney                                         UNDER VOTES                           PRECINCT 1                                             01 
01180030002000050000028000004000018000000000000          County Attorney                                         UNDER VOTES                           PRECINCT 2                                             01 
01180030003000077000059000001000017000000000000          County Attorney                                         UNDER VOTES                           PRECINCT 3                                             01 
01180030004000073000049000007000017000000000000          County Attorney                                         UNDER VOTES                           PRECINCT 4                                             01 
01190010001000123000086000008000029000000000000REP       Sheriff                                                 James Guthrie (J.W.)                  PRECINCT 1                                             01 
01190010002000241000122000013000106000000000000REP       Sheriff                                                 James Guthrie (J.W.)                  PRECINCT 2                                             01 
01190010003000225000176000017000032000000000000REP       Sheriff                                                 James Guthrie (J.W.)                  PRECINCT 3                                             01 
01190010004000171000123000022000026000000000000REP       Sheriff                                                 James Guthrie (J.W.)                  PRECINCT 4                                             01 
01190020001000040000021000005000014000000000000NON       Sheriff                                                 WRITE-IN                              PRECINCT 1                                             01 
01190020002000098000044000010000044000000000000NON       Sheriff                                                 WRITE-IN                              PRECINCT 2                                             01 
01190020003000081000065000002000014000000000000NON       Sheriff                                                 WRITE-IN                              PRECINCT 3                                             01 
01190020004000034000022000003000009000000000000NON       Sheriff                                                 WRITE-IN                              PRECINCT 4                                             01 
01190030001000000000000000000000000000000000000          Sheriff                                                 OVER VOTES                            PRECINCT 1                                             01 
01190030002000000000000000000000000000000000000          Sheriff                                                 OVER VOTES                            PRECINCT 2                                             01 
01190030003000000000000000000000000000000000000          Sheriff                                                 OVER VOTES                            PRECINCT 3                                             01 
01190030004000000000000000000000000000000000000          Sheriff                                                 OVER VOTES                            PRECINCT 4                                             01 
01190040001000005000004000000000001000000000000          Sheriff                                                 UNDER VOTES                           PRECINCT 1                                             01 
01190040002000018000005000000000013000000000000          Sheriff                                                 UNDER VOTES                           PRECINCT 2                                             01 
01190040003000010000008000000000002000000000000          Sheriff                                                 UNDER VOTES                           PRECINCT 3                                             01 
01190040004000017000012000002000003000000000000          Sheriff                                                 UNDER VOTES                           PRECINCT 4                                             01 
01200010001000132000087000009000036000000000000REP       County Tax Assessor-Collector                           Lorenza "Lorri" Garcia Ruiz           PRECINCT 1                                             01 
01200010002000317000151000020000146000000000000REP       County Tax Assessor-Collector                           Lorenza "Lorri" Garcia Ruiz           PRECINCT 2                                             01 
01200010003000269000216000017000036000000000000REP       County Tax Assessor-Collector                           Lorenza "Lorri" Garcia Ruiz           PRECINCT 3                                             01 
01200010004000170000122000021000027000000000000REP       County Tax Assessor-Collector                           Lorenza "Lorri" Garcia Ruiz           PRECINCT 4                                             01 
01200020001000000000000000000000000000000000000          County Tax Assessor-Collector                           OVER VOTES                            PRECINCT 1                                             01 
01200020002000000000000000000000000000000000000          County Tax Assessor-Collector                           OVER VOTES                            PRECINCT 2                                             01 
01200020003000000000000000000000000000000000000          County Tax Assessor-Collector                           OVER VOTES                            PRECINCT 3                                             01 
01200020004000000000000000000000000000000000000          County Tax Assessor-Collector                           OVER VOTES                            PRECINCT 4                                             01 
01200030001000036000024000004000008000000000000          County Tax Assessor-Collector                           UNDER VOTES                           PRECINCT 1                                             01 
01200030002000040000020000003000017000000000000          County Tax Assessor-Collector                           UNDER VOTES                           PRECINCT 2                                             01 
01200030003000047000033000002000012000000000000          County Tax Assessor-Collector                           UNDER VOTES                           PRECINCT 3                                             01 
01200030004000052000035000006000011000000000000          County Tax Assessor-Collector                           UNDER VOTES                           PRECINCT 4                                             01 
01210010001000118000083000006000029000000000000REPCOMM1  County Commissioner, Precinct No. 1                     Marty H. Graham                       PRECINCT 1                                             01 
01210020001000000000000000000000000000000000000   COMM1  County Commissioner, Precinct No. 1                     OVER VOTES                            PRECINCT 1                                             01 
01210030001000050000028000007000015000000000000   COMM1  County Commissioner, Precinct No. 1                     UNDER VOTES                           PRECINCT 1                                             01 
01220010003000267000214000016000037000000000000REPCOMM3  County Commissioner, Precinct No. 3                     Matt Fry                              PRECINCT 3                                             01 
01220020003000000000000000000000000000000000000   COMM3  County Commissioner, Precinct No. 3                     OVER VOTES                            PRECINCT 3                                             01 
01220030003000049000035000003000011000000000000   COMM3  County Commissioner, Precinct No. 3                     UNDER VOTES                           PRECINCT 3                                             01 
01230010001000095000062000005000028000000000000REP       County Constable                                        John Maxwell                          PRECINCT 1                                             01 
01230010002000240000102000021000117000000000000REP       County Constable                                        John Maxwell                          PRECINCT 2                                             01 
01230010003000199000164000011000024000000000000REP       County Constable                                        John Maxwell                          PRECINCT 3                                             01 
01230010004000130000089000019000022000000000000REP       County Constable                                        John Maxwell                          PRECINCT 4                                             01 
01230020001000047000034000005000008000000000000NON       County Constable                                        WRITE-IN                              PRECINCT 1                                             01 
01230020002000096000058000001000037000000000000NON       County Constable                                        WRITE-IN                              PRECINCT 2                                             01 
01230020003000084000062000004000018000000000000NON       County Constable                                        WRITE-IN                              PRECINCT 3                                             01 
01230020004000055000043000003000009000000000000NON       County Constable                                        WRITE-IN                              PRECINCT 4                                             01 
01230030001000000000000000000000000000000000000          County Constable                                        OVER VOTES                            PRECINCT 1                                             01 
01230030002000001000000000000000001000000000000          County Constable                                        OVER VOTES                            PRECINCT 2                                             01 
01230030003000000000000000000000000000000000000          County Constable                                        OVER VOTES                            PRECINCT 3                                             01 
01230030004000000000000000000000000000000000000          County Constable                                        OVER VOTES                            PRECINCT 4                                             01 
01230040001000026000015000003000008000000000000          County Constable                                        UNDER VOTES                           PRECINCT 1                                             01 
01230040002000020000011000001000008000000000000          County Constable                                        UNDER VOTES                           PRECINCT 2                                             01 
01230040003000033000023000004000006000000000000          County Constable                                        UNDER VOTES                           PRECINCT 3                                             01 
01230040004000037000025000005000007000000000000          County Constable                                        UNDER VOTES                           PRECINCT 4                                             01 
