00010010001001224000000000000000000000000000000000000000000000000000000000000000000000000000000000000          REGISTERED VOTERS - TOTAL                               REGISTERED VOTERS - TOTAL             PRECINCT NO. 10                                        00 
00010010002000611000000000000000000000000000000000000000000000000000000000000000000000000000000000000          REGISTERED VOTERS - TOTAL                               REGISTERED VOTERS - TOTAL             PRECINCT NO. 11                                        00 
00010010003001240000000000000000000000000000000000000000000000000000000000000000000000000000000000000          REGISTERED VOTERS - TOTAL                               REGISTERED VOTERS - TOTAL             PRECINCT NO. 12                                        00 
00010010004001861000000000000000000000000000000000000000000000000000000000000000000000000000000000000          REGISTERED VOTERS - TOTAL                               REGISTERED VOTERS - TOTAL             PRECINCT NO. 18                                        00 
00010010005001469000000000000000000000000000000000000000000000000000000000000000000000000000000000000          REGISTERED VOTERS - TOTAL                               REGISTERED VOTERS - TOTAL             PRECINCT NO. 19                                        00 
00010010006001339000000000000000000000000000000000000000000000000000000000000000000000000000000000000          REGISTERED VOTERS - TOTAL                               REGISTERED VOTERS - TOTAL             PRECINCT NO. 20                                        00 
00010010007001517000000000000000000000000000000000000000000000000000000000000000000000000000000000000          REGISTERED VOTERS - TOTAL                               REGISTERED VOTERS - TOTAL             PRECINCT NO. 21                                        00 
00010010008000579000000000000000000000000000000000000000000000000000000000000000000000000000000000000          REGISTERED VOTERS - TOTAL                               REGISTERED VOTERS - TOTAL             PRECINCT NO. 23                                        00 
00010010009000785000000000000000000000000000000000000000000000000000000000000000000000000000000000000          REGISTERED VOTERS - TOTAL                               REGISTERED VOTERS - TOTAL             PRECINCT NO. 24                                        00 
00010010010000778000000000000000000000000000000000000000000000000000000000000000000000000000000000000          REGISTERED VOTERS - TOTAL                               REGISTERED VOTERS - TOTAL             PRECINCT NO. 25                                        00 
00010010011000653000000000000000000000000000000000000000000000000000000000000000000000000000000000000          REGISTERED VOTERS - TOTAL                               REGISTERED VOTERS - TOTAL             PRECINCT NO. 30                                        00 
00010010012001275000000000000000000000000000000000000000000000000000000000000000000000000000000000000          REGISTERED VOTERS - TOTAL                               REGISTERED VOTERS - TOTAL             PRECINCT NO. 31                                        00 
00010010013001794000000000000000000000000000000000000000000000000000000000000000000000000000000000000          REGISTERED VOTERS - TOTAL                               REGISTERED VOTERS - TOTAL             PRECINCT NO. 32                                        00 
00010010014001050000000000000000000000000000000000000000000000000000000000000000000000000000000000000          REGISTERED VOTERS - TOTAL                               REGISTERED VOTERS - TOTAL             PRECINCT NO. 33                                        00 
00010010015001234000000000000000000000000000000000000000000000000000000000000000000000000000000000000          REGISTERED VOTERS - TOTAL                               REGISTERED VOTERS - TOTAL             PRECINCT NO. 34                                        00 
00010010016000218000000000000000000000000000000000000000000000000000000000000000000000000000000000000          REGISTERED VOTERS - TOTAL                               REGISTERED VOTERS - TOTAL             PRECINCT NO. 35                                        00 
00010010017000752000000000000000000000000000000000000000000000000000000000000000000000000000000000000          REGISTERED VOTERS - TOTAL                               REGISTERED VOTERS - TOTAL             PRECINCT NO. 41                                        00 
00010010018002097000000000000000000000000000000000000000000000000000000000000000000000000000000000000          REGISTERED VOTERS - TOTAL                               REGISTERED VOTERS - TOTAL             PRECINCT NO. 44                                        00 
00010010019001573000000000000000000000000000000000000000000000000000000000000000000000000000000000000          REGISTERED VOTERS - TOTAL                               REGISTERED VOTERS - TOTAL             PRECINCT NO. 45                                        00 
00010010020000822000000000000000000000000000000000000000000000000000000000000000000000000000000000000          REGISTERED VOTERS - TOTAL                               REGISTERED VOTERS - TOTAL             PRECINCT NO. 46                                        00 
00010010021001193000000000000000000000000000000000000000000000000000000000000000000000000000000000000          REGISTERED VOTERS - TOTAL                               REGISTERED VOTERS - TOTAL             PRECINCT NO. 47                                        00 
00020010001000748000063000551000134000000000000000000000000000000000000000000000000000000000000000000          BALLOTS CAST - TOTAL                                    BALLOTS CAST - TOTAL                  PRECINCT NO. 10                                        00 
00020010002000390000036000277000077000000000000000000000000000000000000000000000000000000000000000000          BALLOTS CAST - TOTAL                                    BALLOTS CAST - TOTAL                  PRECINCT NO. 11                                        00 
00020010003000912000091000690000131000000000000000000000000000000000000000000000000000000000000000000          BALLOTS CAST - TOTAL                                    BALLOTS CAST - TOTAL                  PRECINCT NO. 12                                        00 
00020010004001387000127001052000208000000000000000000000000000000000000000000000000000000000000000000          BALLOTS CAST - TOTAL                                    BALLOTS CAST - TOTAL                  PRECINCT NO. 18                                        00 
00020010005001044000079000806000159000000000000000000000000000000000000000000000000000000000000000000          BALLOTS CAST - TOTAL                                    BALLOTS CAST - TOTAL                  PRECINCT NO. 19                                        00 
00020010006000871000072000642000157000000000000000000000000000000000000000000000000000000000000000000          BALLOTS CAST - TOTAL                                    BALLOTS CAST - TOTAL                  PRECINCT NO. 20                                        00 
00020010007000973000065000738000170000000000000000000000000000000000000000000000000000000000000000000          BALLOTS CAST - TOTAL                                    BALLOTS CAST - TOTAL                  PRECINCT NO. 21                                        00 
00020010008000380000020000290000070000000000000000000000000000000000000000000000000000000000000000000          BALLOTS CAST - TOTAL                                    BALLOTS CAST - TOTAL                  PRECINCT NO. 23                                        00 
00020010009000607000062000482000063000000000000000000000000000000000000000000000000000000000000000000          BALLOTS CAST - TOTAL                                    BALLOTS CAST - TOTAL                  PRECINCT NO. 24                                        00 
00020010010000574000047000386000141000000000000000000000000000000000000000000000000000000000000000000          BALLOTS CAST - TOTAL                                    BALLOTS CAST - TOTAL                  PRECINCT NO. 25                                        00 
00020010011000513000055000311000147000000000000000000000000000000000000000000000000000000000000000000          BALLOTS CAST - TOTAL                                    BALLOTS CAST - TOTAL                  PRECINCT NO. 30                                        00 
00020010012000962000081000603000278000000000000000000000000000000000000000000000000000000000000000000          BALLOTS CAST - TOTAL                                    BALLOTS CAST - TOTAL                  PRECINCT NO. 31                                        00 
00020010013001176000095000912000169000000000000000000000000000000000000000000000000000000000000000000          BALLOTS CAST - TOTAL                                    BALLOTS CAST - TOTAL                  PRECINCT NO. 32                                        00 
00020010014000622000054000429000139000000000000000000000000000000000000000000000000000000000000000000          BALLOTS CAST - TOTAL                                    BALLOTS CAST - TOTAL                  PRECINCT NO. 33                                        00 
00020010015001034000082000655000297000000000000000000000000000000000000000000000000000000000000000000          BALLOTS CAST - TOTAL                                    BALLOTS CAST - TOTAL                  PRECINCT NO. 34                                        00 
00020010016000100000016000054000030000000000000000000000000000000000000000000000000000000000000000000          BALLOTS CAST - TOTAL                                    BALLOTS CAST - TOTAL                  PRECINCT NO. 35                                        00 
00020010017000618000056000390000172000000000000000000000000000000000000000000000000000000000000000000          BALLOTS CAST - TOTAL                                    BALLOTS CAST - TOTAL                  PRECINCT NO. 41                                        00 
00020010018001670000117001233000320000000000000000000000000000000000000000000000000000000000000000000          BALLOTS CAST - TOTAL                                    BALLOTS CAST - TOTAL                  PRECINCT NO. 44                                        00 
00020010019001062000115000788000159000000000000000000000000000000000000000000000000000000000000000000          BALLOTS CAST - TOTAL                                    BALLOTS CAST - TOTAL                  PRECINCT NO. 45                                        00 
00020010020000496000036000380000080000000000000000000000000000000000000000000000000000000000000000000          BALLOTS CAST - TOTAL                                    BALLOTS CAST - TOTAL                  PRECINCT NO. 46                                        00 
00020010021000791000085000576000130000000000000000000000000000000000000000000000000000000000000000000          BALLOTS CAST - TOTAL                                    BALLOTS CAST - TOTAL                  PRECINCT NO. 47                                        00 
00030010001000000000000000000000000000000000000000000000000000000000000000000000000000000000000000000          BALLOTS CAST - BLANK                                    BALLOTS CAST - BLANK                  PRECINCT NO. 10                                        00 
00030010002000000000000000000000000000000000000000000000000000000000000000000000000000000000000000000          BALLOTS CAST - BLANK                                    BALLOTS CAST - BLANK                  PRECINCT NO. 11                                        00 
00030010003000001000001000000000000000000000000000000000000000000000000000000000000000000000000000000          BALLOTS CAST - BLANK                                    BALLOTS CAST - BLANK                  PRECINCT NO. 12                                        00 
00030010004000000000000000000000000000000000000000000000000000000000000000000000000000000000000000000          BALLOTS CAST - BLANK                                    BALLOTS CAST - BLANK                  PRECINCT NO. 18                                        00 
00030010005000000000000000000000000000000000000000000000000000000000000000000000000000000000000000000          BALLOTS CAST - BLANK                                    BALLOTS CAST - BLANK                  PRECINCT NO. 19                                        00 
00030010006000000000000000000000000000000000000000000000000000000000000000000000000000000000000000000          BALLOTS CAST - BLANK                                    BALLOTS CAST - BLANK                  PRECINCT NO. 20                                        00 
00030010007000000000000000000000000000000000000000000000000000000000000000000000000000000000000000000          BALLOTS CAST - BLANK                                    BALLOTS CAST - BLANK                  PRECINCT NO. 21                                        00 
00030010008000001000000000001000000000000000000000000000000000000000000000000000000000000000000000000          BALLOTS CAST - BLANK                                    BALLOTS CAST - BLANK                  PRECINCT NO. 23                                        00 
00030010009000000000000000000000000000000000000000000000000000000000000000000000000000000000000000000          BALLOTS CAST - BLANK                                    BALLOTS CAST - BLANK                  PRECINCT NO. 24                                        00 
00030010010000000000000000000000000000000000000000000000000000000000000000000000000000000000000000000          BALLOTS CAST - BLANK                                    BALLOTS CAST - BLANK                  PRECINCT NO. 25                                        00 
00030010011000000000000000000000000000000000000000000000000000000000000000000000000000000000000000000          BALLOTS CAST - BLANK                                    BALLOTS CAST - BLANK                  PRECINCT NO. 30                                        00 
00030010012000000000000000000000000000000000000000000000000000000000000000000000000000000000000000000          BALLOTS CAST - BLANK                                    BALLOTS CAST - BLANK                  PRECINCT NO. 31                                        00 
00030010013000000000000000000000000000000000000000000000000000000000000000000000000000000000000000000          BALLOTS CAST - BLANK                                    BALLOTS CAST - BLANK                  PRECINCT NO. 32                                        00 
00030010014000000000000000000000000000000000000000000000000000000000000000000000000000000000000000000          BALLOTS CAST - BLANK                                    BALLOTS CAST - BLANK                  PRECINCT NO. 33                                        00 
00030010015000000000000000000000000000000000000000000000000000000000000000000000000000000000000000000          BALLOTS CAST - BLANK                                    BALLOTS CAST - BLANK                  PRECINCT NO. 34                                        00 
00030010016000000000000000000000000000000000000000000000000000000000000000000000000000000000000000000          BALLOTS CAST - BLANK                                    BALLOTS CAST - BLANK                  PRECINCT NO. 35                                        00 
00030010017000000000000000000000000000000000000000000000000000000000000000000000000000000000000000000          BALLOTS CAST - BLANK                                    BALLOTS CAST - BLANK                  PRECINCT NO. 41                                        00 
00030010018000001000000000001000000000000000000000000000000000000000000000000000000000000000000000000          BALLOTS CAST - BLANK                                    BALLOTS CAST - BLANK                  PRECINCT NO. 44                                        00 
00030010019000001000000000001000000000000000000000000000000000000000000000000000000000000000000000000          BALLOTS CAST - BLANK                                    BALLOTS CAST - BLANK                  PRECINCT NO. 45                                        00 
00030010020000001000001000000000000000000000000000000000000000000000000000000000000000000000000000000          BALLOTS CAST - BLANK                                    BALLOTS CAST - BLANK                  PRECINCT NO. 46                                        00 
00030010021000000000000000000000000000000000000000000000000000000000000000000000000000000000000000000          BALLOTS CAST - BLANK                                    BALLOTS CAST - BLANK                  PRECINCT NO. 47                                        00 
00040010001000530000040000406000084000000000000000000000000000000000000000000000000000000000000000000REP       President / Vice-President                              REP Donald J. Trump / Michael R. PencePRECINCT NO. 10                                        01 
00040010002000271000022000192000057000000000000000000000000000000000000000000000000000000000000000000REP       President / Vice-President                              REP Donald J. Trump / Michael R. PencePRECINCT NO. 11                                        01 
00040010003000737000069000556000112000000000000000000000000000000000000000000000000000000000000000000REP       President / Vice-President                              REP Donald J. Trump / Michael R. PencePRECINCT NO. 12                                        01 
00040010004001168000086000906000176000000000000000000000000000000000000000000000000000000000000000000REP       President / Vice-President                              REP Donald J. Trump / Michael R. PencePRECINCT NO. 18                                        01 
00040010005000891000050000706000135000000000000000000000000000000000000000000000000000000000000000000REP       President / Vice-President                              REP Donald J. Trump / Michael R. PencePRECINCT NO. 19                                        01 
00040010006000697000048000532000117000000000000000000000000000000000000000000000000000000000000000000REP       President / Vice-President                              REP Donald J. Trump / Michael R. PencePRECINCT NO. 20                                        01 
00040010007000800000045000624000131000000000000000000000000000000000000000000000000000000000000000000REP       President / Vice-President                              REP Donald J. Trump / Michael R. PencePRECINCT NO. 21                                        01 
00040010008000308000016000236000056000000000000000000000000000000000000000000000000000000000000000000REP       President / Vice-President                              REP Donald J. Trump / Michael R. PencePRECINCT NO. 23                                        01 
00040010009000477000040000389000048000000000000000000000000000000000000000000000000000000000000000000REP       President / Vice-President                              REP Donald J. Trump / Michael R. PencePRECINCT NO. 24                                        01 
00040010010000502000035000346000121000000000000000000000000000000000000000000000000000000000000000000REP       President / Vice-President                              REP Donald J. Trump / Michael R. PencePRECINCT NO. 25                                        01 
00040010011000449000038000275000136000000000000000000000000000000000000000000000000000000000000000000REP       President / Vice-President                              REP Donald J. Trump / Michael R. PencePRECINCT NO. 30                                        01 
00040010012000827000062000508000257000000000000000000000000000000000000000000000000000000000000000000REP       President / Vice-President                              REP Donald J. Trump / Michael R. PencePRECINCT NO. 31                                        01 
00040010013000961000070000757000134000000000000000000000000000000000000000000000000000000000000000000REP       President / Vice-President                              REP Donald J. Trump / Michael R. PencePRECINCT NO. 32                                        01 
00040010014000390000028000276000086000000000000000000000000000000000000000000000000000000000000000000REP       President / Vice-President                              REP Donald J. Trump / Michael R. PencePRECINCT NO. 33                                        01 
00040010015000893000057000572000264000000000000000000000000000000000000000000000000000000000000000000REP       President / Vice-President                              REP Donald J. Trump / Michael R. PencePRECINCT NO. 34                                        01 
00040010016000056000008000028000020000000000000000000000000000000000000000000000000000000000000000000REP       President / Vice-President                              REP Donald J. Trump / Michael R. PencePRECINCT NO. 35                                        01 
00040010017000550000044000345000161000000000000000000000000000000000000000000000000000000000000000000REP       President / Vice-President                              REP Donald J. Trump / Michael R. PencePRECINCT NO. 41                                        01 
00040010018001473000078001107000288000000000000000000000000000000000000000000000000000000000000000000REP       President / Vice-President                              REP Donald J. Trump / Michael R. PencePRECINCT NO. 44                                        01 
00040010019000736000070000559000107000000000000000000000000000000000000000000000000000000000000000000REP       President / Vice-President                              REP Donald J. Trump / Michael R. PencePRECINCT NO. 45                                        01 
00040010020000374000022000296000056000000000000000000000000000000000000000000000000000000000000000000REP       President / Vice-President                              REP Donald J. Trump / Michael R. PencePRECINCT NO. 46                                        01 
00040010021000594000061000434000099000000000000000000000000000000000000000000000000000000000000000000REP       President / Vice-President                              REP Donald J. Trump / Michael R. PencePRECINCT NO. 47                                        01 
00040020001000204000022000136000046000000000000000000000000000000000000000000000000000000000000000000DEM       President / Vice-President                              DEM Joseph R. Biden / Kamala D. HarrisPRECINCT NO. 10                                        01 
00040020002000104000012000074000018000000000000000000000000000000000000000000000000000000000000000000DEM       President / Vice-President                              DEM Joseph R. Biden / Kamala D. HarrisPRECINCT NO. 11                                        01 
00040020003000156000019000122000015000000000000000000000000000000000000000000000000000000000000000000DEM       President / Vice-President                              DEM Joseph R. Biden / Kamala D. HarrisPRECINCT NO. 12                                        01 
00040020004000200000038000136000026000000000000000000000000000000000000000000000000000000000000000000DEM       President / Vice-President                              DEM Joseph R. Biden / Kamala D. HarrisPRECINCT NO. 18                                        01 
00040020005000138000029000089000020000000000000000000000000000000000000000000000000000000000000000000DEM       President / Vice-President                              DEM Joseph R. Biden / Kamala D. HarrisPRECINCT NO. 19                                        01 
00040020006000154000021000098000035000000000000000000000000000000000000000000000000000000000000000000DEM       President / Vice-President                              DEM Joseph R. Biden / Kamala D. HarrisPRECINCT NO. 20                                        01 
00040020007000157000018000105000034000000000000000000000000000000000000000000000000000000000000000000DEM       President / Vice-President                              DEM Joseph R. Biden / Kamala D. HarrisPRECINCT NO. 21                                        01 
00040020008000065000004000048000013000000000000000000000000000000000000000000000000000000000000000000DEM       President / Vice-President                              DEM Joseph R. Biden / Kamala D. HarrisPRECINCT NO. 23                                        01 
00040020009000121000019000087000015000000000000000000000000000000000000000000000000000000000000000000DEM       President / Vice-President                              DEM Joseph R. Biden / Kamala D. HarrisPRECINCT NO. 24                                        01 
00040020010000064000012000034000018000000000000000000000000000000000000000000000000000000000000000000DEM       President / Vice-President                              DEM Joseph R. Biden / Kamala D. HarrisPRECINCT NO. 25                                        01 
00040020011000058000016000032000010000000000000000000000000000000000000000000000000000000000000000000DEM       President / Vice-President                              DEM Joseph R. Biden / Kamala D. HarrisPRECINCT NO. 30                                        01 
00040020012000121000016000088000017000000000000000000000000000000000000000000000000000000000000000000DEM       President / Vice-President                              DEM Joseph R. Biden / Kamala D. HarrisPRECINCT NO. 31                                        01 
00040020013000183000025000130000028000000000000000000000000000000000000000000000000000000000000000000DEM       President / Vice-President                              DEM Joseph R. Biden / Kamala D. HarrisPRECINCT NO. 32                                        01 
00040020014000215000026000142000047000000000000000000000000000000000000000000000000000000000000000000DEM       President / Vice-President                              DEM Joseph R. Biden / Kamala D. HarrisPRECINCT NO. 33                                        01 
00040020015000125000024000072000029000000000000000000000000000000000000000000000000000000000000000000DEM       President / Vice-President                              DEM Joseph R. Biden / Kamala D. HarrisPRECINCT NO. 34                                        01 
00040020016000040000007000023000010000000000000000000000000000000000000000000000000000000000000000000DEM       President / Vice-President                              DEM Joseph R. Biden / Kamala D. HarrisPRECINCT NO. 35                                        01 
00040020017000062000010000042000010000000000000000000000000000000000000000000000000000000000000000000DEM       President / Vice-President                              DEM Joseph R. Biden / Kamala D. HarrisPRECINCT NO. 41                                        01 
00040020018000174000037000109000028000000000000000000000000000000000000000000000000000000000000000000DEM       President / Vice-President                              DEM Joseph R. Biden / Kamala D. HarrisPRECINCT NO. 44                                        01 
00040020019000288000041000206000041000000000000000000000000000000000000000000000000000000000000000000DEM       President / Vice-President                              DEM Joseph R. Biden / Kamala D. HarrisPRECINCT NO. 45                                        01 
00040020020000107000012000074000021000000000000000000000000000000000000000000000000000000000000000000DEM       President / Vice-President                              DEM Joseph R. Biden / Kamala D. HarrisPRECINCT NO. 46                                        01 
00040020021000180000023000131000026000000000000000000000000000000000000000000000000000000000000000000DEM       President / Vice-President                              DEM Joseph R. Biden / Kamala D. HarrisPRECINCT NO. 47                                        01 
00040030001000011000001000006000004000000000000000000000000000000000000000000000000000000000000000000LIB       President / Vice-President                              LIB Jo Jorgensen / Jeremy "Spike" CohePRECINCT NO. 10                                        01 
00040030002000010000002000007000001000000000000000000000000000000000000000000000000000000000000000000LIB       President / Vice-President                              LIB Jo Jorgensen / Jeremy "Spike" CohePRECINCT NO. 11                                        01 
00040030003000010000001000007000002000000000000000000000000000000000000000000000000000000000000000000LIB       President / Vice-President                              LIB Jo Jorgensen / Jeremy "Spike" CohePRECINCT NO. 12                                        01 
00040030004000009000001000004000004000000000000000000000000000000000000000000000000000000000000000000LIB       President / Vice-President                              LIB Jo Jorgensen / Jeremy "Spike" CohePRECINCT NO. 18                                        01 
00040030005000015000000000011000004000000000000000000000000000000000000000000000000000000000000000000LIB       President / Vice-President                              LIB Jo Jorgensen / Jeremy "Spike" CohePRECINCT NO. 19                                        01 
00040030006000012000002000008000002000000000000000000000000000000000000000000000000000000000000000000LIB       President / Vice-President                              LIB Jo Jorgensen / Jeremy "Spike" CohePRECINCT NO. 20                                        01 
00040030007000012000000000007000005000000000000000000000000000000000000000000000000000000000000000000LIB       President / Vice-President                              LIB Jo Jorgensen / Jeremy "Spike" CohePRECINCT NO. 21                                        01 
00040030008000003000000000002000001000000000000000000000000000000000000000000000000000000000000000000LIB       President / Vice-President                              LIB Jo Jorgensen / Jeremy "Spike" CohePRECINCT NO. 23                                        01 
00040030009000006000002000004000000000000000000000000000000000000000000000000000000000000000000000000LIB       President / Vice-President                              LIB Jo Jorgensen / Jeremy "Spike" CohePRECINCT NO. 24                                        01 
00040030010000007000000000006000001000000000000000000000000000000000000000000000000000000000000000000LIB       President / Vice-President                              LIB Jo Jorgensen / Jeremy "Spike" CohePRECINCT NO. 25                                        01 
00040030011000002000000000002000000000000000000000000000000000000000000000000000000000000000000000000LIB       President / Vice-President                              LIB Jo Jorgensen / Jeremy "Spike" CohePRECINCT NO. 30                                        01 
00040030012000010000001000006000003000000000000000000000000000000000000000000000000000000000000000000LIB       President / Vice-President                              LIB Jo Jorgensen / Jeremy "Spike" CohePRECINCT NO. 31                                        01 
00040030013000027000000000020000007000000000000000000000000000000000000000000000000000000000000000000LIB       President / Vice-President                              LIB Jo Jorgensen / Jeremy "Spike" CohePRECINCT NO. 32                                        01 
00040030014000014000000000011000003000000000000000000000000000000000000000000000000000000000000000000LIB       President / Vice-President                              LIB Jo Jorgensen / Jeremy "Spike" CohePRECINCT NO. 33                                        01 
00040030015000008000001000004000003000000000000000000000000000000000000000000000000000000000000000000LIB       President / Vice-President                              LIB Jo Jorgensen / Jeremy "Spike" CohePRECINCT NO. 34                                        01 
00040030016000001000000000001000000000000000000000000000000000000000000000000000000000000000000000000LIB       President / Vice-President                              LIB Jo Jorgensen / Jeremy "Spike" CohePRECINCT NO. 35                                        01 
00040030017000003000000000002000001000000000000000000000000000000000000000000000000000000000000000000LIB       President / Vice-President                              LIB Jo Jorgensen / Jeremy "Spike" CohePRECINCT NO. 41                                        01 
00040030018000015000000000012000003000000000000000000000000000000000000000000000000000000000000000000LIB       President / Vice-President                              LIB Jo Jorgensen / Jeremy "Spike" CohePRECINCT NO. 44                                        01 
00040030019000026000003000017000006000000000000000000000000000000000000000000000000000000000000000000LIB       President / Vice-President                              LIB Jo Jorgensen / Jeremy "Spike" CohePRECINCT NO. 45                                        01 
00040030020000007000000000007000000000000000000000000000000000000000000000000000000000000000000000000LIB       President / Vice-President                              LIB Jo Jorgensen / Jeremy "Spike" CohePRECINCT NO. 46                                        01 
00040030021000010000000000007000003000000000000000000000000000000000000000000000000000000000000000000LIB       President / Vice-President                              LIB Jo Jorgensen / Jeremy "Spike" CohePRECINCT NO. 47                                        01 
00040040001000003000000000003000000000000000000000000000000000000000000000000000000000000000000000000GRN       President / Vice-President                              GRN Howie Hawkins / Angela Walker     PRECINCT NO. 10                                        01 
00040040002000005000000000004000001000000000000000000000000000000000000000000000000000000000000000000GRN       President / Vice-President                              GRN Howie Hawkins / Angela Walker     PRECINCT NO. 11                                        01 
00040040003000001000000000001000000000000000000000000000000000000000000000000000000000000000000000000GRN       President / Vice-President                              GRN Howie Hawkins / Angela Walker     PRECINCT NO. 12                                        01 
00040040004000002000000000002000000000000000000000000000000000000000000000000000000000000000000000000GRN       President / Vice-President                              GRN Howie Hawkins / Angela Walker     PRECINCT NO. 18                                        01 
00040040005000000000000000000000000000000000000000000000000000000000000000000000000000000000000000000GRN       President / Vice-President                              GRN Howie Hawkins / Angela Walker     PRECINCT NO. 19                                        01 
00040040006000003000000000001000002000000000000000000000000000000000000000000000000000000000000000000GRN       President / Vice-President                              GRN Howie Hawkins / Angela Walker     PRECINCT NO. 20                                        01 
00040040007000000000000000000000000000000000000000000000000000000000000000000000000000000000000000000GRN       President / Vice-President                              GRN Howie Hawkins / Angela Walker     PRECINCT NO. 21                                        01 
00040040008000000000000000000000000000000000000000000000000000000000000000000000000000000000000000000GRN       President / Vice-President                              GRN Howie Hawkins / Angela Walker     PRECINCT NO. 23                                        01 
00040040009000000000000000000000000000000000000000000000000000000000000000000000000000000000000000000GRN       President / Vice-President                              GRN Howie Hawkins / Angela Walker     PRECINCT NO. 24                                        01 
00040040010000000000000000000000000000000000000000000000000000000000000000000000000000000000000000000GRN       President / Vice-President                              GRN Howie Hawkins / Angela Walker     PRECINCT NO. 25                                        01 
00040040011000002000001000001000000000000000000000000000000000000000000000000000000000000000000000000GRN       President / Vice-President                              GRN Howie Hawkins / Angela Walker     PRECINCT NO. 30                                        01 
00040040012000001000001000000000000000000000000000000000000000000000000000000000000000000000000000000GRN       President / Vice-President                              GRN Howie Hawkins / Angela Walker     PRECINCT NO. 31                                        01 
00040040013000003000000000003000000000000000000000000000000000000000000000000000000000000000000000000GRN       President / Vice-President                              GRN Howie Hawkins / Angela Walker     PRECINCT NO. 32                                        01 
00040040014000001000000000000000001000000000000000000000000000000000000000000000000000000000000000000GRN       President / Vice-President                              GRN Howie Hawkins / Angela Walker     PRECINCT NO. 33                                        01 
00040040015000002000000000002000000000000000000000000000000000000000000000000000000000000000000000000GRN       President / Vice-President                              GRN Howie Hawkins / Angela Walker     PRECINCT NO. 34                                        01 
00040040016000001000000000001000000000000000000000000000000000000000000000000000000000000000000000000GRN       President / Vice-President                              GRN Howie Hawkins / Angela Walker     PRECINCT NO. 35                                        01 
00040040017000000000000000000000000000000000000000000000000000000000000000000000000000000000000000000GRN       President / Vice-President                              GRN Howie Hawkins / Angela Walker     PRECINCT NO. 41                                        01 
00040040018000003000000000002000001000000000000000000000000000000000000000000000000000000000000000000GRN       President / Vice-President                              GRN Howie Hawkins / Angela Walker     PRECINCT NO. 44                                        01 
00040040019000004000001000001000002000000000000000000000000000000000000000000000000000000000000000000GRN       President / Vice-President                              GRN Howie Hawkins / Angela Walker     PRECINCT NO. 45                                        01 
00040040020000004000000000002000002000000000000000000000000000000000000000000000000000000000000000000GRN       President / Vice-President                              GRN Howie Hawkins / Angela Walker     PRECINCT NO. 46                                        01 
00040040021000000000000000000000000000000000000000000000000000000000000000000000000000000000000000000GRN       President / Vice-President                              GRN Howie Hawkins / Angela Walker     PRECINCT NO. 47                                        01 
00040060001000000000000000000000000000000000000000000000000000000000000000000000000000000000000000000NON       President / Vice-President                              Write-in                              PRECINCT NO. 10                                        01 
00040060002000000000000000000000000000000000000000000000000000000000000000000000000000000000000000000NON       President / Vice-President                              Write-in                              PRECINCT NO. 11                                        01 
00040060003000001000000000001000000000000000000000000000000000000000000000000000000000000000000000000NON       President / Vice-President                              Write-in                              PRECINCT NO. 12                                        01 
00040060004000002000001000000000001000000000000000000000000000000000000000000000000000000000000000000NON       President / Vice-President                              Write-in                              PRECINCT NO. 18                                        01 
00040060005000000000000000000000000000000000000000000000000000000000000000000000000000000000000000000NON       President / Vice-President                              Write-in                              PRECINCT NO. 19                                        01 
00040060006000000000000000000000000000000000000000000000000000000000000000000000000000000000000000000NON       President / Vice-President                              Write-in                              PRECINCT NO. 20                                        01 
00040060007000001000000000001000000000000000000000000000000000000000000000000000000000000000000000000NON       President / Vice-President                              Write-in                              PRECINCT NO. 21                                        01 
00040060008000002000000000002000000000000000000000000000000000000000000000000000000000000000000000000NON       President / Vice-President                              Write-in                              PRECINCT NO. 23                                        01 
00040060009000000000000000000000000000000000000000000000000000000000000000000000000000000000000000000NON       President / Vice-President                              Write-in                              PRECINCT NO. 24                                        01 
00040060010000001000000000000000001000000000000000000000000000000000000000000000000000000000000000000NON       President / Vice-President                              Write-in                              PRECINCT NO. 25                                        01 
00040060011000001000000000000000001000000000000000000000000000000000000000000000000000000000000000000NON       President / Vice-President                              Write-in                              PRECINCT NO. 30                                        01 
00040060012000000000000000000000000000000000000000000000000000000000000000000000000000000000000000000NON       President / Vice-President                              Write-in                              PRECINCT NO. 31                                        01 
00040060013000001000000000001000000000000000000000000000000000000000000000000000000000000000000000000NON       President / Vice-President                              Write-in                              PRECINCT NO. 32                                        01 
00040060014000002000000000000000002000000000000000000000000000000000000000000000000000000000000000000NON       President / Vice-President                              Write-in                              PRECINCT NO. 33                                        01 
00040060015000003000000000003000000000000000000000000000000000000000000000000000000000000000000000000NON       President / Vice-President                              Write-in                              PRECINCT NO. 34                                        01 
00040060016000001000001000000000000000000000000000000000000000000000000000000000000000000000000000000NON       President / Vice-President                              Write-in                              PRECINCT NO. 35                                        01 
00040060017000001000001000000000000000000000000000000000000000000000000000000000000000000000000000000NON       President / Vice-President                              Write-in                              PRECINCT NO. 41                                        01 
00040060018000002000001000001000000000000000000000000000000000000000000000000000000000000000000000000NON       President / Vice-President                              Write-in                              PRECINCT NO. 44                                        01 
00040060019000004000000000002000002000000000000000000000000000000000000000000000000000000000000000000NON       President / Vice-President                              Write-in                              PRECINCT NO. 45                                        01 
00040060020000001000000000001000000000000000000000000000000000000000000000000000000000000000000000000NON       President / Vice-President                              Write-in                              PRECINCT NO. 46                                        01 
00040060021000001000000000001000000000000000000000000000000000000000000000000000000000000000000000000NON       President / Vice-President                              Write-in                              PRECINCT NO. 47                                        01 
00040070001000000000000000000000000000000000000000000000000000000000000000000000000000000000000000000          President / Vice-President                              OVER VOTES                            PRECINCT NO. 10                                        01 
00040070002000000000000000000000000000000000000000000000000000000000000000000000000000000000000000000          President / Vice-President                              OVER VOTES                            PRECINCT NO. 11                                        01 
00040070003000000000000000000000000000000000000000000000000000000000000000000000000000000000000000000          President / Vice-President                              OVER VOTES                            PRECINCT NO. 12                                        01 
00040070004000000000000000000000000000000000000000000000000000000000000000000000000000000000000000000          President / Vice-President                              OVER VOTES                            PRECINCT NO. 18                                        01 
00040070005000000000000000000000000000000000000000000000000000000000000000000000000000000000000000000          President / Vice-President                              OVER VOTES                            PRECINCT NO. 19                                        01 
00040070006000000000000000000000000000000000000000000000000000000000000000000000000000000000000000000          President / Vice-President                              OVER VOTES                            PRECINCT NO. 20                                        01 
00040070007000000000000000000000000000000000000000000000000000000000000000000000000000000000000000000          President / Vice-President                              OVER VOTES                            PRECINCT NO. 21                                        01 
00040070008000000000000000000000000000000000000000000000000000000000000000000000000000000000000000000          President / Vice-President                              OVER VOTES                            PRECINCT NO. 23                                        01 
00040070009000000000000000000000000000000000000000000000000000000000000000000000000000000000000000000          President / Vice-President                              OVER VOTES                            PRECINCT NO. 24                                        01 
00040070010000000000000000000000000000000000000000000000000000000000000000000000000000000000000000000          President / Vice-President                              OVER VOTES                            PRECINCT NO. 25                                        01 
00040070011000000000000000000000000000000000000000000000000000000000000000000000000000000000000000000          President / Vice-President                              OVER VOTES                            PRECINCT NO. 30                                        01 
00040070012000000000000000000000000000000000000000000000000000000000000000000000000000000000000000000          President / Vice-President                              OVER VOTES                            PRECINCT NO. 31                                        01 
00040070013000000000000000000000000000000000000000000000000000000000000000000000000000000000000000000          President / Vice-President                              OVER VOTES                            PRECINCT NO. 32                                        01 
00040070014000000000000000000000000000000000000000000000000000000000000000000000000000000000000000000          President / Vice-President                              OVER VOTES                            PRECINCT NO. 33                                        01 
00040070015000000000000000000000000000000000000000000000000000000000000000000000000000000000000000000          President / Vice-President                              OVER VOTES                            PRECINCT NO. 34                                        01 
00040070016000000000000000000000000000000000000000000000000000000000000000000000000000000000000000000          President / Vice-President                              OVER VOTES                            PRECINCT NO. 35                                        01 
00040070017000000000000000000000000000000000000000000000000000000000000000000000000000000000000000000          President / Vice-President                              OVER VOTES                            PRECINCT NO. 41                                        01 
00040070018000000000000000000000000000000000000000000000000000000000000000000000000000000000000000000          President / Vice-President                              OVER VOTES                            PRECINCT NO. 44                                        01 
00040070019000000000000000000000000000000000000000000000000000000000000000000000000000000000000000000          President / Vice-President                              OVER VOTES                            PRECINCT NO. 45                                        01 
00040070020000000000000000000000000000000000000000000000000000000000000000000000000000000000000000000          President / Vice-President                              OVER VOTES                            PRECINCT NO. 46                                        01 
00040070021000000000000000000000000000000000000000000000000000000000000000000000000000000000000000000          President / Vice-President                              OVER VOTES                            PRECINCT NO. 47                                        01 
00040080001000000000000000000000000000000000000000000000000000000000000000000000000000000000000000000          President / Vice-President                              UNDER VOTES                           PRECINCT NO. 10                                        01 
00040080002000000000000000000000000000000000000000000000000000000000000000000000000000000000000000000          President / Vice-President                              UNDER VOTES                           PRECINCT NO. 11                                        01 
00040080003000007000002000003000002000000000000000000000000000000000000000000000000000000000000000000          President / Vice-President                              UNDER VOTES                           PRECINCT NO. 12                                        01 
00040080004000006000001000004000001000000000000000000000000000000000000000000000000000000000000000000          President / Vice-President                              UNDER VOTES                           PRECINCT NO. 18                                        01 
00040080005000000000000000000000000000000000000000000000000000000000000000000000000000000000000000000          President / Vice-President                              UNDER VOTES                           PRECINCT NO. 19                                        01 
00040080006000005000001000003000001000000000000000000000000000000000000000000000000000000000000000000          President / Vice-President                              UNDER VOTES                           PRECINCT NO. 20                                        01 
00040080007000003000002000001000000000000000000000000000000000000000000000000000000000000000000000000          President / Vice-President                              UNDER VOTES                           PRECINCT NO. 21                                        01 
00040080008000002000000000002000000000000000000000000000000000000000000000000000000000000000000000000          President / Vice-President                              UNDER VOTES                           PRECINCT NO. 23                                        01 
00040080009000003000001000002000000000000000000000000000000000000000000000000000000000000000000000000          President / Vice-President                              UNDER VOTES                           PRECINCT NO. 24                                        01 
00040080010000000000000000000000000000000000000000000000000000000000000000000000000000000000000000000          President / Vice-President                              UNDER VOTES                           PRECINCT NO. 25                                        01 
00040080011000001000000000001000000000000000000000000000000000000000000000000000000000000000000000000          President / Vice-President                              UNDER VOTES                           PRECINCT NO. 30                                        01 
00040080012000003000001000001000001000000000000000000000000000000000000000000000000000000000000000000          President / Vice-President                              UNDER VOTES                           PRECINCT NO. 31                                        01 
00040080013000001000000000001000000000000000000000000000000000000000000000000000000000000000000000000          President / Vice-President                              UNDER VOTES                           PRECINCT NO. 32                                        01 
00040080014000000000000000000000000000000000000000000000000000000000000000000000000000000000000000000          President / Vice-President                              UNDER VOTES                           PRECINCT NO. 33                                        01 
00040080015000003000000000002000001000000000000000000000000000000000000000000000000000000000000000000          President / Vice-President                              UNDER VOTES                           PRECINCT NO. 34                                        01 
00040080016000001000000000001000000000000000000000000000000000000000000000000000000000000000000000000          President / Vice-President                              UNDER VOTES                           PRECINCT NO. 35                                        01 
00040080017000002000001000001000000000000000000000000000000000000000000000000000000000000000000000000          President / Vice-President                              UNDER VOTES                           PRECINCT NO. 41                                        01 
00040080018000003000001000002000000000000000000000000000000000000000000000000000000000000000000000000          President / Vice-President                              UNDER VOTES                           PRECINCT NO. 44                                        01 
00040080019000004000000000003000001000000000000000000000000000000000000000000000000000000000000000000          President / Vice-President                              UNDER VOTES                           PRECINCT NO. 45                                        01 
00040080020000003000002000000000001000000000000000000000000000000000000000000000000000000000000000000          President / Vice-President                              UNDER VOTES                           PRECINCT NO. 46                                        01 
00040080021000006000001000003000002000000000000000000000000000000000000000000000000000000000000000000          President / Vice-President                              UNDER VOTES                           PRECINCT NO. 47                                        01 
00050010001000517000037000403000077000000000000000000000000000000000000000000000000000000000000000000REP       US Senator                                              REP John Cornyn                       PRECINCT NO. 10                                        01 
00050010002000257000022000184000051000000000000000000000000000000000000000000000000000000000000000000REP       US Senator                                              REP John Cornyn                       PRECINCT NO. 11                                        01 
00050010003000739000066000567000106000000000000000000000000000000000000000000000000000000000000000000REP       US Senator                                              REP John Cornyn                       PRECINCT NO. 12                                        01 
00050010004001168000096000899000173000000000000000000000000000000000000000000000000000000000000000000REP       US Senator                                              REP John Cornyn                       PRECINCT NO. 18                                        01 
00050010005000865000050000685000130000000000000000000000000000000000000000000000000000000000000000000REP       US Senator                                              REP John Cornyn                       PRECINCT NO. 19                                        01 
00050010006000689000049000527000113000000000000000000000000000000000000000000000000000000000000000000REP       US Senator                                              REP John Cornyn                       PRECINCT NO. 20                                        01 
00050010007000780000045000609000126000000000000000000000000000000000000000000000000000000000000000000REP       US Senator                                              REP John Cornyn                       PRECINCT NO. 21                                        01 
00050010008000301000016000234000051000000000000000000000000000000000000000000000000000000000000000000REP       US Senator                                              REP John Cornyn                       PRECINCT NO. 23                                        01 
00050010009000484000045000394000045000000000000000000000000000000000000000000000000000000000000000000REP       US Senator                                              REP John Cornyn                       PRECINCT NO. 24                                        01 
00050010010000495000031000340000124000000000000000000000000000000000000000000000000000000000000000000REP       US Senator                                              REP John Cornyn                       PRECINCT NO. 25                                        01 
00050010011000446000038000274000134000000000000000000000000000000000000000000000000000000000000000000REP       US Senator                                              REP John Cornyn                       PRECINCT NO. 30                                        01 
00050010012000819000062000507000250000000000000000000000000000000000000000000000000000000000000000000REP       US Senator                                              REP John Cornyn                       PRECINCT NO. 31                                        01 
00050010013000954000069000757000128000000000000000000000000000000000000000000000000000000000000000000REP       US Senator                                              REP John Cornyn                       PRECINCT NO. 32                                        01 
00050010014000391000026000279000086000000000000000000000000000000000000000000000000000000000000000000REP       US Senator                                              REP John Cornyn                       PRECINCT NO. 33                                        01 
00050010015000893000057000574000262000000000000000000000000000000000000000000000000000000000000000000REP       US Senator                                              REP John Cornyn                       PRECINCT NO. 34                                        01 
00050010016000057000006000030000021000000000000000000000000000000000000000000000000000000000000000000REP       US Senator                                              REP John Cornyn                       PRECINCT NO. 35                                        01 
00050010017000542000046000338000158000000000000000000000000000000000000000000000000000000000000000000REP       US Senator                                              REP John Cornyn                       PRECINCT NO. 41                                        01 
00050010018001472000084001107000281000000000000000000000000000000000000000000000000000000000000000000REP       US Senator                                              REP John Cornyn                       PRECINCT NO. 44                                        01 
00050010019000748000074000568000106000000000000000000000000000000000000000000000000000000000000000000REP       US Senator                                              REP John Cornyn                       PRECINCT NO. 45                                        01 
00050010020000356000018000284000054000000000000000000000000000000000000000000000000000000000000000000REP       US Senator                                              REP John Cornyn                       PRECINCT NO. 46                                        01 
00050010021000591000060000432000099000000000000000000000000000000000000000000000000000000000000000000REP       US Senator                                              REP John Cornyn                       PRECINCT NO. 47                                        01 
00050020001000191000020000123000048000000000000000000000000000000000000000000000000000000000000000000DEM       US Senator                                              DEM Mary "MJ" Hegar                   PRECINCT NO. 10                                        01 
00050020002000094000011000066000017000000000000000000000000000000000000000000000000000000000000000000DEM       US Senator                                              DEM Mary "MJ" Hegar                   PRECINCT NO. 11                                        01 
00050020003000144000020000108000016000000000000000000000000000000000000000000000000000000000000000000DEM       US Senator                                              DEM Mary "MJ" Hegar                   PRECINCT NO. 12                                        01 
00050020004000182000029000128000025000000000000000000000000000000000000000000000000000000000000000000DEM       US Senator                                              DEM Mary "MJ" Hegar                   PRECINCT NO. 18                                        01 
00050020005000135000027000090000018000000000000000000000000000000000000000000000000000000000000000000DEM       US Senator                                              DEM Mary "MJ" Hegar                   PRECINCT NO. 19                                        01 
00050020006000139000017000094000028000000000000000000000000000000000000000000000000000000000000000000DEM       US Senator                                              DEM Mary "MJ" Hegar                   PRECINCT NO. 20                                        01 
00050020007000155000016000104000035000000000000000000000000000000000000000000000000000000000000000000DEM       US Senator                                              DEM Mary "MJ" Hegar                   PRECINCT NO. 21                                        01 
00050020008000067000003000049000015000000000000000000000000000000000000000000000000000000000000000000DEM       US Senator                                              DEM Mary "MJ" Hegar                   PRECINCT NO. 23                                        01 
00050020009000098000012000072000014000000000000000000000000000000000000000000000000000000000000000000DEM       US Senator                                              DEM Mary "MJ" Hegar                   PRECINCT NO. 24                                        01 
00050020010000059000014000033000012000000000000000000000000000000000000000000000000000000000000000000DEM       US Senator                                              DEM Mary "MJ" Hegar                   PRECINCT NO. 25                                        01 
00050020011000057000016000031000010000000000000000000000000000000000000000000000000000000000000000000DEM       US Senator                                              DEM Mary "MJ" Hegar                   PRECINCT NO. 30                                        01 
00050020012000119000016000083000020000000000000000000000000000000000000000000000000000000000000000000DEM       US Senator                                              DEM Mary "MJ" Hegar                   PRECINCT NO. 31                                        01 
00050020013000171000024000121000026000000000000000000000000000000000000000000000000000000000000000000DEM       US Senator                                              DEM Mary "MJ" Hegar                   PRECINCT NO. 32                                        01 
00050020014000201000028000131000042000000000000000000000000000000000000000000000000000000000000000000DEM       US Senator                                              DEM Mary "MJ" Hegar                   PRECINCT NO. 33                                        01 
00050020015000116000024000066000026000000000000000000000000000000000000000000000000000000000000000000DEM       US Senator                                              DEM Mary "MJ" Hegar                   PRECINCT NO. 34                                        01 
00050020016000037000007000023000007000000000000000000000000000000000000000000000000000000000000000000DEM       US Senator                                              DEM Mary "MJ" Hegar                   PRECINCT NO. 35                                        01 
00050020017000064000010000042000012000000000000000000000000000000000000000000000000000000000000000000DEM       US Senator                                              DEM Mary "MJ" Hegar                   PRECINCT NO. 41                                        01 
00050020018000151000031000093000027000000000000000000000000000000000000000000000000000000000000000000DEM       US Senator                                              DEM Mary "MJ" Hegar                   PRECINCT NO. 44                                        01 
00050020019000258000033000185000040000000000000000000000000000000000000000000000000000000000000000000DEM       US Senator                                              DEM Mary "MJ" Hegar                   PRECINCT NO. 45                                        01 
00050020020000105000012000071000022000000000000000000000000000000000000000000000000000000000000000000DEM       US Senator                                              DEM Mary "MJ" Hegar                   PRECINCT NO. 46                                        01 
00050020021000164000020000123000021000000000000000000000000000000000000000000000000000000000000000000DEM       US Senator                                              DEM Mary "MJ" Hegar                   PRECINCT NO. 47                                        01 
00050030001000023000002000016000005000000000000000000000000000000000000000000000000000000000000000000LIB       US Senator                                              LIB Kerry Douglas McKennon            PRECINCT NO. 10                                        01 
00050030002000017000002000014000001000000000000000000000000000000000000000000000000000000000000000000LIB       US Senator                                              LIB Kerry Douglas McKennon            PRECINCT NO. 11                                        01 
00050030003000016000001000011000004000000000000000000000000000000000000000000000000000000000000000000LIB       US Senator                                              LIB Kerry Douglas McKennon            PRECINCT NO. 12                                        01 
00050030004000018000000000011000007000000000000000000000000000000000000000000000000000000000000000000LIB       US Senator                                              LIB Kerry Douglas McKennon            PRECINCT NO. 18                                        01 
00050030005000020000000000014000006000000000000000000000000000000000000000000000000000000000000000000LIB       US Senator                                              LIB Kerry Douglas McKennon            PRECINCT NO. 19                                        01 
00050030006000019000002000008000009000000000000000000000000000000000000000000000000000000000000000000LIB       US Senator                                              LIB Kerry Douglas McKennon            PRECINCT NO. 20                                        01 
00050030007000018000003000009000006000000000000000000000000000000000000000000000000000000000000000000LIB       US Senator                                              LIB Kerry Douglas McKennon            PRECINCT NO. 21                                        01 
00050030008000007000000000004000003000000000000000000000000000000000000000000000000000000000000000000LIB       US Senator                                              LIB Kerry Douglas McKennon            PRECINCT NO. 23                                        01 
00050030009000008000001000005000002000000000000000000000000000000000000000000000000000000000000000000LIB       US Senator                                              LIB Kerry Douglas McKennon            PRECINCT NO. 24                                        01 
00050030010000008000000000006000002000000000000000000000000000000000000000000000000000000000000000000LIB       US Senator                                              LIB Kerry Douglas McKennon            PRECINCT NO. 25                                        01 
00050030011000003000000000002000001000000000000000000000000000000000000000000000000000000000000000000LIB       US Senator                                              LIB Kerry Douglas McKennon            PRECINCT NO. 30                                        01 
00050030012000010000000000007000003000000000000000000000000000000000000000000000000000000000000000000LIB       US Senator                                              LIB Kerry Douglas McKennon            PRECINCT NO. 31                                        01 
00050030013000029000001000021000007000000000000000000000000000000000000000000000000000000000000000000LIB       US Senator                                              LIB Kerry Douglas McKennon            PRECINCT NO. 32                                        01 
00050030014000018000000000011000007000000000000000000000000000000000000000000000000000000000000000000LIB       US Senator                                              LIB Kerry Douglas McKennon            PRECINCT NO. 33                                        01 
00050030015000011000001000004000006000000000000000000000000000000000000000000000000000000000000000000LIB       US Senator                                              LIB Kerry Douglas McKennon            PRECINCT NO. 34                                        01 
00050030016000004000001000001000002000000000000000000000000000000000000000000000000000000000000000000LIB       US Senator                                              LIB Kerry Douglas McKennon            PRECINCT NO. 35                                        01 
00050030017000008000000000007000001000000000000000000000000000000000000000000000000000000000000000000LIB       US Senator                                              LIB Kerry Douglas McKennon            PRECINCT NO. 41                                        01 
00050030018000034000000000025000009000000000000000000000000000000000000000000000000000000000000000000LIB       US Senator                                              LIB Kerry Douglas McKennon            PRECINCT NO. 44                                        01 
00050030019000035000003000023000009000000000000000000000000000000000000000000000000000000000000000000LIB       US Senator                                              LIB Kerry Douglas McKennon            PRECINCT NO. 45                                        01 
00050030020000013000001000011000001000000000000000000000000000000000000000000000000000000000000000000LIB       US Senator                                              LIB Kerry Douglas McKennon            PRECINCT NO. 46                                        01 
00050030021000016000000000009000007000000000000000000000000000000000000000000000000000000000000000000LIB       US Senator                                              LIB Kerry Douglas McKennon            PRECINCT NO. 47                                        01 
00050040001000008000002000005000001000000000000000000000000000000000000000000000000000000000000000000GRN       US Senator                                              GRN David B. Collins                  PRECINCT NO. 10                                        01 
00050040002000011000000000007000004000000000000000000000000000000000000000000000000000000000000000000GRN       US Senator                                              GRN David B. Collins                  PRECINCT NO. 11                                        01 
00050040003000003000000000001000002000000000000000000000000000000000000000000000000000000000000000000GRN       US Senator                                              GRN David B. Collins                  PRECINCT NO. 12                                        01 
00050040004000004000000000004000000000000000000000000000000000000000000000000000000000000000000000000GRN       US Senator                                              GRN David B. Collins                  PRECINCT NO. 18                                        01 
00050040005000003000000000003000000000000000000000000000000000000000000000000000000000000000000000000GRN       US Senator                                              GRN David B. Collins                  PRECINCT NO. 19                                        01 
00050040006000008000000000002000006000000000000000000000000000000000000000000000000000000000000000000GRN       US Senator                                              GRN David B. Collins                  PRECINCT NO. 20                                        01 
00050040007000006000000000006000000000000000000000000000000000000000000000000000000000000000000000000GRN       US Senator                                              GRN David B. Collins                  PRECINCT NO. 21                                        01 
00050040008000000000000000000000000000000000000000000000000000000000000000000000000000000000000000000GRN       US Senator                                              GRN David B. Collins                  PRECINCT NO. 23                                        01 
00050040009000003000001000001000001000000000000000000000000000000000000000000000000000000000000000000GRN       US Senator                                              GRN David B. Collins                  PRECINCT NO. 24                                        01 
00050040010000002000000000001000001000000000000000000000000000000000000000000000000000000000000000000GRN       US Senator                                              GRN David B. Collins                  PRECINCT NO. 25                                        01 
00050040011000003000001000001000001000000000000000000000000000000000000000000000000000000000000000000GRN       US Senator                                              GRN David B. Collins                  PRECINCT NO. 30                                        01 
00050040012000004000000000003000001000000000000000000000000000000000000000000000000000000000000000000GRN       US Senator                                              GRN David B. Collins                  PRECINCT NO. 31                                        01 
00050040013000010000001000006000003000000000000000000000000000000000000000000000000000000000000000000GRN       US Senator                                              GRN David B. Collins                  PRECINCT NO. 32                                        01 
00050040014000006000000000003000003000000000000000000000000000000000000000000000000000000000000000000GRN       US Senator                                              GRN David B. Collins                  PRECINCT NO. 33                                        01 
00050040015000006000000000004000002000000000000000000000000000000000000000000000000000000000000000000GRN       US Senator                                              GRN David B. Collins                  PRECINCT NO. 34                                        01 
00050040016000001000001000000000000000000000000000000000000000000000000000000000000000000000000000000GRN       US Senator                                              GRN David B. Collins                  PRECINCT NO. 35                                        01 
00050040017000003000000000002000001000000000000000000000000000000000000000000000000000000000000000000GRN       US Senator                                              GRN David B. Collins                  PRECINCT NO. 41                                        01 
00050040018000003000001000001000001000000000000000000000000000000000000000000000000000000000000000000GRN       US Senator                                              GRN David B. Collins                  PRECINCT NO. 44                                        01 
00050040019000006000001000003000002000000000000000000000000000000000000000000000000000000000000000000GRN       US Senator                                              GRN David B. Collins                  PRECINCT NO. 45                                        01 
00050040020000009000000000006000003000000000000000000000000000000000000000000000000000000000000000000GRN       US Senator                                              GRN David B. Collins                  PRECINCT NO. 46                                        01 
00050040021000003000000000003000000000000000000000000000000000000000000000000000000000000000000000000GRN       US Senator                                              GRN David B. Collins                  PRECINCT NO. 47                                        01 
00050060001000002000000000000000002000000000000000000000000000000000000000000000000000000000000000000NON       US Senator                                              Write-in                              PRECINCT NO. 10                                        01 
00050060002000000000000000000000000000000000000000000000000000000000000000000000000000000000000000000NON       US Senator                                              Write-in                              PRECINCT NO. 11                                        01 
00050060003000000000000000000000000000000000000000000000000000000000000000000000000000000000000000000NON       US Senator                                              Write-in                              PRECINCT NO. 12                                        01 
00050060004000001000000000001000000000000000000000000000000000000000000000000000000000000000000000000NON       US Senator                                              Write-in                              PRECINCT NO. 18                                        01 
00050060005000002000000000000000002000000000000000000000000000000000000000000000000000000000000000000NON       US Senator                                              Write-in                              PRECINCT NO. 19                                        01 
00050060006000001000000000001000000000000000000000000000000000000000000000000000000000000000000000000NON       US Senator                                              Write-in                              PRECINCT NO. 20                                        01 
00050060007000000000000000000000000000000000000000000000000000000000000000000000000000000000000000000NON       US Senator                                              Write-in                              PRECINCT NO. 21                                        01 
00050060008000000000000000000000000000000000000000000000000000000000000000000000000000000000000000000NON       US Senator                                              Write-in                              PRECINCT NO. 23                                        01 
00050060009000000000000000000000000000000000000000000000000000000000000000000000000000000000000000000NON       US Senator                                              Write-in                              PRECINCT NO. 24                                        01 
00050060010000000000000000000000000000000000000000000000000000000000000000000000000000000000000000000NON       US Senator                                              Write-in                              PRECINCT NO. 25                                        01 
00050060011000001000000000001000000000000000000000000000000000000000000000000000000000000000000000000NON       US Senator                                              Write-in                              PRECINCT NO. 30                                        01 
00050060012000000000000000000000000000000000000000000000000000000000000000000000000000000000000000000NON       US Senator                                              Write-in                              PRECINCT NO. 31                                        01 
00050060013000001000000000000000001000000000000000000000000000000000000000000000000000000000000000000NON       US Senator                                              Write-in                              PRECINCT NO. 32                                        01 
00050060014000000000000000000000000000000000000000000000000000000000000000000000000000000000000000000NON       US Senator                                              Write-in                              PRECINCT NO. 33                                        01 
00050060015000000000000000000000000000000000000000000000000000000000000000000000000000000000000000000NON       US Senator                                              Write-in                              PRECINCT NO. 34                                        01 
00050060016000000000000000000000000000000000000000000000000000000000000000000000000000000000000000000NON       US Senator                                              Write-in                              PRECINCT NO. 35                                        01 
00050060017000000000000000000000000000000000000000000000000000000000000000000000000000000000000000000NON       US Senator                                              Write-in                              PRECINCT NO. 41                                        01 
00050060018000002000000000002000000000000000000000000000000000000000000000000000000000000000000000000NON       US Senator                                              Write-in                              PRECINCT NO. 44                                        01 
00050060019000001000000000001000000000000000000000000000000000000000000000000000000000000000000000000NON       US Senator                                              Write-in                              PRECINCT NO. 45                                        01 
00050060020000000000000000000000000000000000000000000000000000000000000000000000000000000000000000000NON       US Senator                                              Write-in                              PRECINCT NO. 46                                        01 
00050060021000002000001000001000000000000000000000000000000000000000000000000000000000000000000000000NON       US Senator                                              Write-in                              PRECINCT NO. 47                                        01 
00050070001000000000000000000000000000000000000000000000000000000000000000000000000000000000000000000          US Senator                                              OVER VOTES                            PRECINCT NO. 10                                        01 
00050070002000000000000000000000000000000000000000000000000000000000000000000000000000000000000000000          US Senator                                              OVER VOTES                            PRECINCT NO. 11                                        01 
00050070003000000000000000000000000000000000000000000000000000000000000000000000000000000000000000000          US Senator                                              OVER VOTES                            PRECINCT NO. 12                                        01 
00050070004000000000000000000000000000000000000000000000000000000000000000000000000000000000000000000          US Senator                                              OVER VOTES                            PRECINCT NO. 18                                        01 
00050070005000000000000000000000000000000000000000000000000000000000000000000000000000000000000000000          US Senator                                              OVER VOTES                            PRECINCT NO. 19                                        01 
00050070006000000000000000000000000000000000000000000000000000000000000000000000000000000000000000000          US Senator                                              OVER VOTES                            PRECINCT NO. 20                                        01 
00050070007000000000000000000000000000000000000000000000000000000000000000000000000000000000000000000          US Senator                                              OVER VOTES                            PRECINCT NO. 21                                        01 
00050070008000000000000000000000000000000000000000000000000000000000000000000000000000000000000000000          US Senator                                              OVER VOTES                            PRECINCT NO. 23                                        01 
00050070009000000000000000000000000000000000000000000000000000000000000000000000000000000000000000000          US Senator                                              OVER VOTES                            PRECINCT NO. 24                                        01 
00050070010000000000000000000000000000000000000000000000000000000000000000000000000000000000000000000          US Senator                                              OVER VOTES                            PRECINCT NO. 25                                        01 
00050070011000000000000000000000000000000000000000000000000000000000000000000000000000000000000000000          US Senator                                              OVER VOTES                            PRECINCT NO. 30                                        01 
00050070012000000000000000000000000000000000000000000000000000000000000000000000000000000000000000000          US Senator                                              OVER VOTES                            PRECINCT NO. 31                                        01 
00050070013000000000000000000000000000000000000000000000000000000000000000000000000000000000000000000          US Senator                                              OVER VOTES                            PRECINCT NO. 32                                        01 
00050070014000000000000000000000000000000000000000000000000000000000000000000000000000000000000000000          US Senator                                              OVER VOTES                            PRECINCT NO. 33                                        01 
00050070015000000000000000000000000000000000000000000000000000000000000000000000000000000000000000000          US Senator                                              OVER VOTES                            PRECINCT NO. 34                                        01 
00050070016000000000000000000000000000000000000000000000000000000000000000000000000000000000000000000          US Senator                                              OVER VOTES                            PRECINCT NO. 35                                        01 
00050070017000000000000000000000000000000000000000000000000000000000000000000000000000000000000000000          US Senator                                              OVER VOTES                            PRECINCT NO. 41                                        01 
00050070018000000000000000000000000000000000000000000000000000000000000000000000000000000000000000000          US Senator                                              OVER VOTES                            PRECINCT NO. 44                                        01 
00050070019000000000000000000000000000000000000000000000000000000000000000000000000000000000000000000          US Senator                                              OVER VOTES                            PRECINCT NO. 45                                        01 
00050070020000000000000000000000000000000000000000000000000000000000000000000000000000000000000000000          US Senator                                              OVER VOTES                            PRECINCT NO. 46                                        01 
00050070021000000000000000000000000000000000000000000000000000000000000000000000000000000000000000000          US Senator                                              OVER VOTES                            PRECINCT NO. 47                                        01 
00050080001000007000002000004000001000000000000000000000000000000000000000000000000000000000000000000          US Senator                                              UNDER VOTES                           PRECINCT NO. 10                                        01 
00050080002000011000001000006000004000000000000000000000000000000000000000000000000000000000000000000          US Senator                                              UNDER VOTES                           PRECINCT NO. 11                                        01 
00050080003000010000004000003000003000000000000000000000000000000000000000000000000000000000000000000          US Senator                                              UNDER VOTES                           PRECINCT NO. 12                                        01 
00050080004000014000002000009000003000000000000000000000000000000000000000000000000000000000000000000          US Senator                                              UNDER VOTES                           PRECINCT NO. 18                                        01 
00050080005000019000002000014000003000000000000000000000000000000000000000000000000000000000000000000          US Senator                                              UNDER VOTES                           PRECINCT NO. 19                                        01 
00050080006000015000004000010000001000000000000000000000000000000000000000000000000000000000000000000          US Senator                                              UNDER VOTES                           PRECINCT NO. 20                                        01 
00050080007000014000001000010000003000000000000000000000000000000000000000000000000000000000000000000          US Senator                                              UNDER VOTES                           PRECINCT NO. 21                                        01 
00050080008000005000001000003000001000000000000000000000000000000000000000000000000000000000000000000          US Senator                                              UNDER VOTES                           PRECINCT NO. 23                                        01 
00050080009000014000003000010000001000000000000000000000000000000000000000000000000000000000000000000          US Senator                                              UNDER VOTES                           PRECINCT NO. 24                                        01 
00050080010000010000002000006000002000000000000000000000000000000000000000000000000000000000000000000          US Senator                                              UNDER VOTES                           PRECINCT NO. 25                                        01 
00050080011000003000000000002000001000000000000000000000000000000000000000000000000000000000000000000          US Senator                                              UNDER VOTES                           PRECINCT NO. 30                                        01 
00050080012000010000003000003000004000000000000000000000000000000000000000000000000000000000000000000          US Senator                                              UNDER VOTES                           PRECINCT NO. 31                                        01 
00050080013000011000000000007000004000000000000000000000000000000000000000000000000000000000000000000          US Senator                                              UNDER VOTES                           PRECINCT NO. 32                                        01 
00050080014000006000000000005000001000000000000000000000000000000000000000000000000000000000000000000          US Senator                                              UNDER VOTES                           PRECINCT NO. 33                                        01 
00050080015000008000000000007000001000000000000000000000000000000000000000000000000000000000000000000          US Senator                                              UNDER VOTES                           PRECINCT NO. 34                                        01 
00050080016000001000001000000000000000000000000000000000000000000000000000000000000000000000000000000          US Senator                                              UNDER VOTES                           PRECINCT NO. 35                                        01 
00050080017000001000000000001000000000000000000000000000000000000000000000000000000000000000000000000          US Senator                                              UNDER VOTES                           PRECINCT NO. 41                                        01 
00050080018000008000001000005000002000000000000000000000000000000000000000000000000000000000000000000          US Senator                                              UNDER VOTES                           PRECINCT NO. 44                                        01 
00050080019000014000004000008000002000000000000000000000000000000000000000000000000000000000000000000          US Senator                                              UNDER VOTES                           PRECINCT NO. 45                                        01 
00050080020000013000005000008000000000000000000000000000000000000000000000000000000000000000000000000          US Senator                                              UNDER VOTES                           PRECINCT NO. 46                                        01 
00050080021000015000004000008000003000000000000000000000000000000000000000000000000000000000000000000          US Senator                                              UNDER VOTES                           PRECINCT NO. 47                                        01 
00060010002000249000016000182000051000000000000000000000000000000000000000000000000000000000000000000REPREP011 US Representative, Dist 11                              REP August Pfluger                    PRECINCT NO. 11               District 11              01 
00060010006000673000046000522000105000000000000000000000000000000000000000000000000000000000000000000REPREP011 US Representative, Dist 11                              REP August Pfluger                    PRECINCT NO. 20               District 11              01 
00060010007000766000041000601000124000000000000000000000000000000000000000000000000000000000000000000REPREP011 US Representative, Dist 11                              REP August Pfluger                    PRECINCT NO. 21               District 11              01 
00060010008000297000011000233000053000000000000000000000000000000000000000000000000000000000000000000REPREP011 US Representative, Dist 11                              REP August Pfluger                    PRECINCT NO. 23               District 11              01 
00060010010000487000030000337000120000000000000000000000000000000000000000000000000000000000000000000REPREP011 US Representative, Dist 11                              REP August Pfluger                    PRECINCT NO. 25               District 11              01 
00060010011000443000035000276000132000000000000000000000000000000000000000000000000000000000000000000REPREP011 US Representative, Dist 11                              REP August Pfluger                    PRECINCT NO. 30               District 11              01 
00060010013000951000061000761000129000000000000000000000000000000000000000000000000000000000000000000REPREP011 US Representative, Dist 11                              REP August Pfluger                    PRECINCT NO. 32               District 11              01 
00060010014000388000022000274000092000000000000000000000000000000000000000000000000000000000000000000REPREP011 US Representative, Dist 11                              REP August Pfluger                    PRECINCT NO. 33               District 11              01 
00060010015000879000049000570000260000000000000000000000000000000000000000000000000000000000000000000REPREP011 US Representative, Dist 11                              REP August Pfluger                    PRECINCT NO. 34               District 11              01 
00060010017000535000037000341000157000000000000000000000000000000000000000000000000000000000000000000REPREP011 US Representative, Dist 11                              REP August Pfluger                    PRECINCT NO. 41               District 11              01 
00060010018001438000064001097000277000000000000000000000000000000000000000000000000000000000000000000REPREP011 US Representative, Dist 11                              REP August Pfluger                    PRECINCT NO. 44               District 11              01 
00060010020000347000014000278000055000000000000000000000000000000000000000000000000000000000000000000REPREP011 US Representative, Dist 11                              REP August Pfluger                    PRECINCT NO. 46               District 11              01 
00060020002000094000011000068000015000000000000000000000000000000000000000000000000000000000000000000DEMREP011 US Representative, Dist 11                              DEM Jon Mark Hogg                     PRECINCT NO. 11               District 11              01 
00060020006000143000018000091000034000000000000000000000000000000000000000000000000000000000000000000DEMREP011 US Representative, Dist 11                              DEM Jon Mark Hogg                     PRECINCT NO. 20               District 11              01 
00060020007000156000016000104000036000000000000000000000000000000000000000000000000000000000000000000DEMREP011 US Representative, Dist 11                              DEM Jon Mark Hogg                     PRECINCT NO. 21               District 11              01 
00060020008000063000005000046000012000000000000000000000000000000000000000000000000000000000000000000DEMREP011 US Representative, Dist 11                              DEM Jon Mark Hogg                     PRECINCT NO. 23               District 11              01 
00060020010000055000011000027000017000000000000000000000000000000000000000000000000000000000000000000DEMREP011 US Representative, Dist 11                              DEM Jon Mark Hogg                     PRECINCT NO. 25               District 11              01 
00060020011000054000016000029000009000000000000000000000000000000000000000000000000000000000000000000DEMREP011 US Representative, Dist 11                              DEM Jon Mark Hogg                     PRECINCT NO. 30               District 11              01 
00060020013000170000025000119000026000000000000000000000000000000000000000000000000000000000000000000DEMREP011 US Representative, Dist 11                              DEM Jon Mark Hogg                     PRECINCT NO. 32               District 11              01 
00060020014000185000019000131000035000000000000000000000000000000000000000000000000000000000000000000DEMREP011 US Representative, Dist 11                              DEM Jon Mark Hogg                     PRECINCT NO. 33               District 11              01 
