01010010001001050000000000000000000000000000000          REGISTERED VOTERS - TOTAL                               REGISTERED VOTERS - TOTAL             PRECINCT 11                                            00 
01010010002000467000000000000000000000000000000          REGISTERED VOTERS - TOTAL                               REGISTERED VOTERS - TOTAL             PRECINCT 12                                            00 
01010010003001015000000000000000000000000000000          REGISTERED VOTERS - TOTAL                               REGISTERED VOTERS - TOTAL             PRECINCT 21                                            00 
01010010004000290000000000000000000000000000000          REGISTERED VOTERS - TOTAL                               REGISTERED VOTERS - TOTAL             PRECINCT 22                                            00 
01010010005000838000000000000000000000000000000          REGISTERED VOTERS - TOTAL                               REGISTERED VOTERS - TOTAL             PRECINCT 31                                            00 
01010010006000637000000000000000000000000000000          REGISTERED VOTERS - TOTAL                               REGISTERED VOTERS - TOTAL             PRECINCT 32                                            00 
01010010007000397000000000000000000000000000000          REGISTERED VOTERS - TOTAL                               REGISTERED VOTERS - TOTAL             PRECINCT 41                                            00 
01010010008000638000000000000000000000000000000          REGISTERED VOTERS - TOTAL                               REGISTERED VOTERS - TOTAL             PRECINCT 42                                            00 
01010010009000000000000000000000000000000000000          REGISTERED VOTERS - TOTAL                               REGISTERED VOTERS - TOTAL             PRECINCT 43                                            00 
01020010001000646000043000475000128000000000000          BALLOTS CAST - TOTAL                                    BALLOTS CAST - TOTAL                  PRECINCT 11                                            00 
01020010002000351000020000227000104000000000000          BALLOTS CAST - TOTAL                                    BALLOTS CAST - TOTAL                  PRECINCT 12                                            00 
01020010003000637000054000466000117000000000000          BALLOTS CAST - TOTAL                                    BALLOTS CAST - TOTAL                  PRECINCT 21                                            00 
01020010004000178000011000091000076000000000000          BALLOTS CAST - TOTAL                                    BALLOTS CAST - TOTAL                  PRECINCT 22                                            00 
01020010005000575000051000417000107000000000000          BALLOTS CAST - TOTAL                                    BALLOTS CAST - TOTAL                  PRECINCT 31                                            00 
01020010006000491000032000279000180000000000000          BALLOTS CAST - TOTAL                                    BALLOTS CAST - TOTAL                  PRECINCT 32                                            00 
01020010007000309000030000177000102000000000000          BALLOTS CAST - TOTAL                                    BALLOTS CAST - TOTAL                  PRECINCT 41                                            00 
01020010008000498000024000249000225000000000000          BALLOTS CAST - TOTAL                                    BALLOTS CAST - TOTAL                  PRECINCT 42                                            00 
01020010009000323000017000259000047000000000000          BALLOTS CAST - TOTAL                                    BALLOTS CAST - TOTAL                  PRECINCT 43                                            00 
01030010001000386000012000292000082000000000000REP       President / Vice-President                              Donald J. Trump / Michael R. P        PRECINCT 11                                            01 
01030010002000313000012000210000091000000000000REP       President / Vice-President                              Donald J. Trump / Michael R. P        PRECINCT 12                                            01 
01030010003000395000023000304000068000000000000REP       President / Vice-President                              Donald J. Trump / Michael R. P        PRECINCT 21                                            01 
01030010004000125000004000074000047000000000000REP       President / Vice-President                              Donald J. Trump / Michael R. P        PRECINCT 22                                            01 
01030010005000448000019000350000079000000000000REP       President / Vice-President                              Donald J. Trump / Michael R. P        PRECINCT 31                                            01 
01030010006000437000022000249000166000000000000REP       President / Vice-President                              Donald J. Trump / Michael R. P        PRECINCT 32                                            01 
01030010007000260000018000153000089000000000000REP       President / Vice-President                              Donald J. Trump / Michael R. P        PRECINCT 41                                            01 
01030010008000436000018000217000201000000000000REP       President / Vice-President                              Donald J. Trump / Michael R. P        PRECINCT 42                                            01 
01030010009000285000011000228000046000000000000REP       President / Vice-President                              Donald J. Trump / Michael R. P        PRECINCT 43                                            01 
01030020001000252000034000176000042000000000000DEM       President / Vice-President                              Joseph R. Biden / Kamala D. Ha        PRECINCT 11                                            01 
01030020002000035000008000016000011000000000000DEM       President / Vice-President                              Joseph R. Biden / Kamala D. Ha        PRECINCT 12                                            01 
01030020003000226000030000153000043000000000000DEM       President / Vice-President                              Joseph R. Biden / Kamala D. Ha        PRECINCT 21                                            01 
01030020004000052000007000016000029000000000000DEM       President / Vice-President                              Joseph R. Biden / Kamala D. Ha        PRECINCT 22                                            01 
01030020005000126000032000066000028000000000000DEM       President / Vice-President                              Joseph R. Biden / Kamala D. Ha        PRECINCT 31                                            01 
01030020006000052000015000027000010000000000000DEM       President / Vice-President                              Joseph R. Biden / Kamala D. Ha        PRECINCT 32                                            01 
01030020007000045000012000020000013000000000000DEM       President / Vice-President                              Joseph R. Biden / Kamala D. Ha        PRECINCT 41                                            01 
01030020008000053000005000029000019000000000000DEM       President / Vice-President                              Joseph R. Biden / Kamala D. Ha        PRECINCT 42                                            01 
01030020009000037000007000029000001000000000000DEM       President / Vice-President                              Joseph R. Biden / Kamala D. Ha        PRECINCT 43                                            01 
01030030001000001000000000000000001000000000000LIB       President / Vice-President                              Jo Jorgensen / Jeremy "Spike"         PRECINCT 11                                            01 
01030030002000000000000000000000000000000000000LIB       President / Vice-President                              Jo Jorgensen / Jeremy "Spike"         PRECINCT 12                                            01 
01030030003000007000000000002000005000000000000LIB       President / Vice-President                              Jo Jorgensen / Jeremy "Spike"         PRECINCT 21                                            01 
01030030004000001000000000001000000000000000000LIB       President / Vice-President                              Jo Jorgensen / Jeremy "Spike"         PRECINCT 22                                            01 
01030030005000000000000000000000000000000000000LIB       President / Vice-President                              Jo Jorgensen / Jeremy "Spike"         PRECINCT 31                                            01 
01030030006000006000001000002000003000000000000LIB       President / Vice-President                              Jo Jorgensen / Jeremy "Spike"         PRECINCT 32                                            01 
01030030007000004000000000004000000000000000000LIB       President / Vice-President                              Jo Jorgensen / Jeremy "Spike"         PRECINCT 41                                            01 
01030030008000004000001000001000002000000000000LIB       President / Vice-President                              Jo Jorgensen / Jeremy "Spike"         PRECINCT 42                                            01 
01030030009000001000000000001000000000000000000LIB       President / Vice-President                              Jo Jorgensen / Jeremy "Spike"         PRECINCT 43                                            01 
01030040001000002000000000001000001000000000000GRN       President / Vice-President                              Howie Hawkins / Angela Walker         PRECINCT 11                                            01 
01030040002000000000000000000000000000000000000GRN       President / Vice-President                              Howie Hawkins / Angela Walker         PRECINCT 12                                            01 
01030040003000000000000000000000000000000000000GRN       President / Vice-President                              Howie Hawkins / Angela Walker         PRECINCT 21                                            01 
01030040004000000000000000000000000000000000000GRN       President / Vice-President                              Howie Hawkins / Angela Walker         PRECINCT 22                                            01 
01030040005000000000000000000000000000000000000GRN       President / Vice-President                              Howie Hawkins / Angela Walker         PRECINCT 31                                            01 
01030040006000000000000000000000000000000000000GRN       President / Vice-President                              Howie Hawkins / Angela Walker         PRECINCT 32                                            01 
01030040007000000000000000000000000000000000000GRN       President / Vice-President                              Howie Hawkins / Angela Walker         PRECINCT 41                                            01 
01030040008000000000000000000000000000000000000GRN       President / Vice-President                              Howie Hawkins / Angela Walker         PRECINCT 42                                            01 
01030040009000000000000000000000000000000000000GRN       President / Vice-President                              Howie Hawkins / Angela Walker         PRECINCT 43                                            01 
01030050001000001000000000000000001000000000000NON       President / Vice-President                              WRITE-IN                              PRECINCT 11                                            01 
01030050002000000000000000000000000000000000000NON       President / Vice-President                              WRITE-IN                              PRECINCT 12                                            01 
01030050003000001000000000001000000000000000000NON       President / Vice-President                              WRITE-IN                              PRECINCT 21                                            01 
01030050004000000000000000000000000000000000000NON       President / Vice-President                              WRITE-IN                              PRECINCT 22                                            01 
01030050005000001000000000001000000000000000000NON       President / Vice-President                              WRITE-IN                              PRECINCT 31                                            01 
01030050006000001000000000001000000000000000000NON       President / Vice-President                              WRITE-IN                              PRECINCT 32                                            01 
01030050007000000000000000000000000000000000000NON       President / Vice-President                              WRITE-IN                              PRECINCT 41                                            01 
01030050008000001000000000000000001000000000000NON       President / Vice-President                              WRITE-IN                              PRECINCT 42                                            01 
01030050009000001000000000001000000000000000000NON       President / Vice-President                              WRITE-IN                              PRECINCT 43                                            01 
01030060001000000000000000000000000000000000000          President / Vice-President                              OVER VOTES                            PRECINCT 11                                            01 
01030060002000001000000000001000000000000000000          President / Vice-President                              OVER VOTES                            PRECINCT 12                                            01 
01030060003000000000000000000000000000000000000          President / Vice-President                              OVER VOTES                            PRECINCT 21                                            01 
01030060004000000000000000000000000000000000000          President / Vice-President                              OVER VOTES                            PRECINCT 22                                            01 
01030060005000000000000000000000000000000000000          President / Vice-President                              OVER VOTES                            PRECINCT 31                                            01 
01030060006000000000000000000000000000000000000          President / Vice-President                              OVER VOTES                            PRECINCT 32                                            01 
01030060007000000000000000000000000000000000000          President / Vice-President                              OVER VOTES                            PRECINCT 41                                            01 
01030060008000000000000000000000000000000000000          President / Vice-President                              OVER VOTES                            PRECINCT 42                                            01 
01030060009000000000000000000000000000000000000          President / Vice-President                              OVER VOTES                            PRECINCT 43                                            01 
01030070001000007000000000006000001000000000000          President / Vice-President                              UNDER VOTES                           PRECINCT 11                                            01 
01030070002000002000000000000000002000000000000          President / Vice-President                              UNDER VOTES                           PRECINCT 12                                            01 
01030070003000008000001000006000001000000000000          President / Vice-President                              UNDER VOTES                           PRECINCT 21                                            01 
01030070004000000000000000000000000000000000000          President / Vice-President                              UNDER VOTES                           PRECINCT 22                                            01 
01030070005000001000001000000000000000000000000          President / Vice-President                              UNDER VOTES                           PRECINCT 31                                            01 
01030070006000001000000000000000001000000000000          President / Vice-President                              UNDER VOTES                           PRECINCT 32                                            01 
01030070007000000000000000000000000000000000000          President / Vice-President                              UNDER VOTES                           PRECINCT 41                                            01 
01030070008000004000000000002000002000000000000          President / Vice-President                              UNDER VOTES                           PRECINCT 42                                            01 
01030070009000000000000000000000000000000000000          President / Vice-President                              UNDER VOTES                           PRECINCT 43                                            01 
01040010001000363000011000279000073000000000000REP       United States Senator                                   John Cornyn                           PRECINCT 11                                            01 
01040010002000303000014000205000084000000000000REP       United States Senator                                   John Cornyn                           PRECINCT 12                                            01 
01040010003000381000020000298000063000000000000REP       United States Senator                                   John Cornyn                           PRECINCT 21                                            01 
01040010004000113000004000070000039000000000000REP       United States Senator                                   John Cornyn                           PRECINCT 22                                            01 
01040010005000444000020000350000074000000000000REP       United States Senator                                   John Cornyn                           PRECINCT 31                                            01 
01040010006000436000023000248000165000000000000REP       United States Senator                                   John Cornyn                           PRECINCT 32                                            01 
01040010007000251000017000147000087000000000000REP       United States Senator                                   John Cornyn                           PRECINCT 41                                            01 
01040010008000435000018000217000200000000000000REP       United States Senator                                   John Cornyn                           PRECINCT 42                                            01 
01040010009000274000010000218000046000000000000REP       United States Senator                                   John Cornyn                           PRECINCT 43                                            01 
01040020001000234000028000166000040000000000000DEM       United States Senator                                   Mary "MJ" Hegar                       PRECINCT 11                                            01 
01040020002000034000006000018000010000000000000DEM       United States Senator                                   Mary "MJ" Hegar                       PRECINCT 12                                            01 
01040020003000214000032000139000043000000000000DEM       United States Senator                                   Mary "MJ" Hegar                       PRECINCT 21                                            01 
01040020004000055000007000019000029000000000000DEM       United States Senator                                   Mary "MJ" Hegar                       PRECINCT 22                                            01 
01040020005000115000031000059000025000000000000DEM       United States Senator                                   Mary "MJ" Hegar                       PRECINCT 31                                            01 
01040020006000049000015000025000009000000000000DEM       United States Senator                                   Mary "MJ" Hegar                       PRECINCT 32                                            01 
01040020007000046000012000021000013000000000000DEM       United States Senator                                   Mary "MJ" Hegar                       PRECINCT 41                                            01 
01040020008000056000006000030000020000000000000DEM       United States Senator                                   Mary "MJ" Hegar                       PRECINCT 42                                            01 
01040020009000038000008000030000000000000000000DEM       United States Senator                                   Mary "MJ" Hegar                       PRECINCT 43                                            01 
01040030001000009000002000005000002000000000000LIB       United States Senator                                   Kerry Douglas McKennon                PRECINCT 11                                            01 
01040030002000001000000000000000001000000000000LIB       United States Senator                                   Kerry Douglas McKennon                PRECINCT 12                                            01 
01040030003000008000000000003000005000000000000LIB       United States Senator                                   Kerry Douglas McKennon                PRECINCT 21                                            01 
01040030004000001000000000001000000000000000000LIB       United States Senator                                   Kerry Douglas McKennon                PRECINCT 22                                            01 
01040030005000002000000000000000002000000000000LIB       United States Senator                                   Kerry Douglas McKennon                PRECINCT 31                                            01 
01040030006000004000000000002000002000000000000LIB       United States Senator                                   Kerry Douglas McKennon                PRECINCT 32                                            01 
01040030007000005000000000004000001000000000000LIB       United States Senator                                   Kerry Douglas McKennon                PRECINCT 41                                            01 
01040030008000006000000000001000005000000000000LIB       United States Senator                                   Kerry Douglas McKennon                PRECINCT 42                                            01 
01040030009000007000000000007000000000000000000LIB       United States Senator                                   Kerry Douglas McKennon                PRECINCT 43                                            01 
01040040001000003000001000000000002000000000000GRN       United States Senator                                   David B. Collins                      PRECINCT 11                                            01 
01040040002000001000000000000000001000000000000GRN       United States Senator                                   David B. Collins                      PRECINCT 12                                            01 
01040040003000003000000000002000001000000000000GRN       United States Senator                                   David B. Collins                      PRECINCT 21                                            01 
01040040004000001000000000000000001000000000000GRN       United States Senator                                   David B. Collins                      PRECINCT 22                                            01 
01040040005000003000000000001000002000000000000GRN       United States Senator                                   David B. Collins                      PRECINCT 31                                            01 
01040040006000002000000000000000002000000000000GRN       United States Senator                                   David B. Collins                      PRECINCT 32                                            01 
01040040007000000000000000000000000000000000000GRN       United States Senator                                   David B. Collins                      PRECINCT 41                                            01 
01040040008000000000000000000000000000000000000GRN       United States Senator                                   David B. Collins                      PRECINCT 42                                            01 
01040040009000001000000000001000000000000000000GRN       United States Senator                                   David B. Collins                      PRECINCT 43                                            01 
01040050001000005000000000004000001000000000000NON       United States Senator                                   WRITE-IN                              PRECINCT 11                                            01 
01040050002000002000000000001000001000000000000NON       United States Senator                                   WRITE-IN                              PRECINCT 12                                            01 
01040050003000003000001000001000001000000000000NON       United States Senator                                   WRITE-IN                              PRECINCT 21                                            01 
01040050004000000000000000000000000000000000000NON       United States Senator                                   WRITE-IN                              PRECINCT 22                                            01 
01040050005000002000000000001000001000000000000NON       United States Senator                                   WRITE-IN                              PRECINCT 31                                            01 
01040050006000000000000000000000000000000000000NON       United States Senator                                   WRITE-IN                              PRECINCT 32                                            01 
01040050007000000000000000000000000000000000000NON       United States Senator                                   WRITE-IN                              PRECINCT 41                                            01 
01040050008000000000000000000000000000000000000NON       United States Senator                                   WRITE-IN                              PRECINCT 42                                            01 
01040050009000000000000000000000000000000000000NON       United States Senator                                   WRITE-IN                              PRECINCT 43                                            01 
01040060001000000000000000000000000000000000000          United States Senator                                   OVER VOTES                            PRECINCT 11                                            01 
01040060002000000000000000000000000000000000000          United States Senator                                   OVER VOTES                            PRECINCT 12                                            01 
01040060003000001000000000001000000000000000000          United States Senator                                   OVER VOTES                            PRECINCT 21                                            01 
01040060004000000000000000000000000000000000000          United States Senator                                   OVER VOTES                            PRECINCT 22                                            01 
01040060005000000000000000000000000000000000000          United States Senator                                   OVER VOTES                            PRECINCT 31                                            01 
01040060006000000000000000000000000000000000000          United States Senator                                   OVER VOTES                            PRECINCT 32                                            01 
01040060007000001000000000001000000000000000000          United States Senator                                   OVER VOTES                            PRECINCT 41                                            01 
01040060008000000000000000000000000000000000000          United States Senator                                   OVER VOTES                            PRECINCT 42                                            01 
01040060009000000000000000000000000000000000000          United States Senator                                   OVER VOTES                            PRECINCT 43                                            01 
01040070001000035000004000021000010000000000000          United States Senator                                   UNDER VOTES                           PRECINCT 11                                            01 
01040070002000010000000000003000007000000000000          United States Senator                                   UNDER VOTES                           PRECINCT 12                                            01 
01040070003000027000001000022000004000000000000          United States Senator                                   UNDER VOTES                           PRECINCT 21                                            01 
01040070004000008000000000001000007000000000000          United States Senator                                   UNDER VOTES                           PRECINCT 22                                            01 
01040070005000010000001000006000003000000000000          United States Senator                                   UNDER VOTES                           PRECINCT 31                                            01 
01040070006000006000000000004000002000000000000          United States Senator                                   UNDER VOTES                           PRECINCT 32                                            01 
01040070007000006000001000004000001000000000000          United States Senator                                   UNDER VOTES                           PRECINCT 41                                            01 
01040070008000001000000000001000000000000000000          United States Senator                                   UNDER VOTES                           PRECINCT 42                                            01 
01040070009000004000000000003000001000000000000          United States Senator                                   UNDER VOTES                           PRECINCT 43                                            01 
01050010001000351000012000268000071000000000000REP       United States Representative, Dist 34                   Rey Gonzalez                          PRECINCT 11                                            01 
01050010002000301000013000204000084000000000000REP       United States Representative, Dist 34                   Rey Gonzalez                          PRECINCT 12                                            01 
01050010003000363000023000279000061000000000000REP       United States Representative, Dist 34                   Rey Gonzalez                          PRECINCT 21                                            01 
01050010004000116000004000070000042000000000000REP       United States Representative, Dist 34                   Rey Gonzalez                          PRECINCT 22                                            01 
01050010005000436000019000341000076000000000000REP       United States Representative, Dist 34                   Rey Gonzalez                          PRECINCT 31                                            01 
01050010006000432000026000245000161000000000000REP       United States Representative, Dist 34                   Rey Gonzalez                          PRECINCT 32                                            01 
01050010007000249000017000146000086000000000000REP       United States Representative, Dist 34                   Rey Gonzalez                          PRECINCT 41                                            01 
01050010008000420000014000208000198000000000000REP       United States Representative, Dist 34                   Rey Gonzalez                          PRECINCT 42                                            01 
01050010009000270000008000217000045000000000000REP       United States Representative, Dist 34                   Rey Gonzalez                          PRECINCT 43                                            01 
01050020001000248000032000170000046000000000000DEM       United States Representative, Dist 34                   Filemon B. Vela                       PRECINCT 11                                            01 
01050020002000031000006000015000010000000000000DEM       United States Representative, Dist 34                   Filemon B. Vela                       PRECINCT 12                                            01 
01050020003000227000030000151000046000000000000DEM       United States Representative, Dist 34                   Filemon B. Vela                       PRECINCT 21                                            01 
01050020004000049000007000019000023000000000000DEM       United States Representative, Dist 34                   Filemon B. Vela                       PRECINCT 22                                            01 
01050020005000113000026000063000024000000000000DEM       United States Representative, Dist 34                   Filemon B. Vela                       PRECINCT 31                                            01 
01050020006000047000012000026000009000000000000DEM       United States Representative, Dist 34                   Filemon B. Vela                       PRECINCT 32                                            01 
01050020007000042000012000021000009000000000000DEM       United States Representative, Dist 34                   Filemon B. Vela                       PRECINCT 41                                            01 
01050020008000054000009000027000018000000000000DEM       United States Representative, Dist 34                   Filemon B. Vela                       PRECINCT 42                                            01 
01050020009000039000009000030000000000000000000DEM       United States Representative, Dist 34                   Filemon B. Vela                       PRECINCT 43                                            01 
01050030001000004000000000003000001000000000000LIB       United States Representative, Dist 34                   Anthony Cristo                        PRECINCT 11                                            01 
01050030002000000000000000000000000000000000000LIB       United States Representative, Dist 34                   Anthony Cristo                        PRECINCT 12                                            01 
01050030003000011000001000006000004000000000000LIB       United States Representative, Dist 34                   Anthony Cristo                        PRECINCT 21                                            01 
01050030004000001000000000000000001000000000000LIB       United States Representative, Dist 34                   Anthony Cristo                        PRECINCT 22                                            01 
01050030005000005000001000002000002000000000000LIB       United States Representative, Dist 34                   Anthony Cristo                        PRECINCT 31                                            01 
01050030006000005000000000002000003000000000000LIB       United States Representative, Dist 34                   Anthony Cristo                        PRECINCT 32                                            01 
01050030007000002000000000002000000000000000000LIB       United States Representative, Dist 34                   Anthony Cristo                        PRECINCT 41                                            01 
01050030008000005000000000001000004000000000000LIB       United States Representative, Dist 34                   Anthony Cristo                        PRECINCT 42                                            01 
01050030009000004000000000004000000000000000000LIB       United States Representative, Dist 34                   Anthony Cristo                        PRECINCT 43                                            01 
01050040001000007000000000004000003000000000000IND       United States Representative, Dist 34                   Chris B. Royal                        PRECINCT 11                                            01 
01050040002000004000000000002000002000000000000IND       United States Representative, Dist 34                   Chris B. Royal                        PRECINCT 12                                            01 
01050040003000007000000000007000000000000000000IND       United States Representative, Dist 34                   Chris B. Royal                        PRECINCT 21                                            01 
01050040004000001000000000000000001000000000000IND       United States Representative, Dist 34                   Chris B. Royal                        PRECINCT 22                                            01 
01050040005000006000004000001000001000000000000IND       United States Representative, Dist 34                   Chris B. Royal                        PRECINCT 31                                            01 
01050040006000005000000000002000003000000000000IND       United States Representative, Dist 34                   Chris B. Royal                        PRECINCT 32                                            01 
01050040007000007000000000002000005000000000000IND       United States Representative, Dist 34                   Chris B. Royal                        PRECINCT 41                                            01 
01050040008000008000001000003000004000000000000IND       United States Representative, Dist 34                   Chris B. Royal                        PRECINCT 42                                            01 
01050040009000006000001000005000000000000000000IND       United States Representative, Dist 34                   Chris B. Royal                        PRECINCT 43                                            01 
01050050001000000000000000000000000000000000000          United States Representative, Dist 34                   OVER VOTES                            PRECINCT 11                                            01 
01050050002000000000000000000000000000000000000          United States Representative, Dist 34                   OVER VOTES                            PRECINCT 12                                            01 
01050050003000000000000000000000000000000000000          United States Representative, Dist 34                   OVER VOTES                            PRECINCT 21                                            01 
01050050004000000000000000000000000000000000000          United States Representative, Dist 34                   OVER VOTES                            PRECINCT 22                                            01 
01050050005000000000000000000000000000000000000          United States Representative, Dist 34                   OVER VOTES                            PRECINCT 31                                            01 
01050050006000000000000000000000000000000000000          United States Representative, Dist 34                   OVER VOTES                            PRECINCT 32                                            01 
01050050007000000000000000000000000000000000000          United States Representative, Dist 34                   OVER VOTES                            PRECINCT 41                                            01 
01050050008000000000000000000000000000000000000          United States Representative, Dist 34                   OVER VOTES                            PRECINCT 42                                            01 
01050050009000000000000000000000000000000000000          United States Representative, Dist 34                   OVER VOTES                            PRECINCT 43                                            01 
01050060001000039000002000030000007000000000000          United States Representative, Dist 34                   UNDER VOTES                           PRECINCT 11                                            01 
01050060002000015000001000006000008000000000000          United States Representative, Dist 34                   UNDER VOTES                           PRECINCT 12                                            01 
01050060003000029000000000023000006000000000000          United States Representative, Dist 34                   UNDER VOTES                           PRECINCT 21                                            01 
01050060004000011000000000002000009000000000000          United States Representative, Dist 34                   UNDER VOTES                           PRECINCT 22                                            01 
01050060005000016000002000010000004000000000000          United States Representative, Dist 34                   UNDER VOTES                           PRECINCT 31                                            01 
01050060006000008000000000004000004000000000000          United States Representative, Dist 34                   UNDER VOTES                           PRECINCT 32                                            01 
01050060007000009000001000006000002000000000000          United States Representative, Dist 34                   UNDER VOTES                           PRECINCT 41                                            01 
01050060008000011000000000010000001000000000000          United States Representative, Dist 34                   UNDER VOTES                           PRECINCT 42                                            01 
01050060009000005000000000003000002000000000000          United States Representative, Dist 34                   UNDER VOTES                           PRECINCT 43                                            01 
01060010001000337000011000257000069000000000000REP       Railroad Commissioner                                   James "Jim" Wright                    PRECINCT 11                                            01 
01060010002000298000012000203000083000000000000REP       Railroad Commissioner                                   James "Jim" Wright                    PRECINCT 12                                            01 
01060010003000370000018000287000065000000000000REP       Railroad Commissioner                                   James "Jim" Wright                    PRECINCT 21                                            01 
01060010004000110000004000067000039000000000000REP       Railroad Commissioner                                   James "Jim" Wright                    PRECINCT 22                                            01 
01060010005000438000023000339000076000000000000REP       Railroad Commissioner                                   James "Jim" Wright                    PRECINCT 31                                            01 
01060010006000426000025000241000160000000000000REP       Railroad Commissioner                                   James "Jim" Wright                    PRECINCT 32                                            01 
01060010007000252000016000147000089000000000000REP       Railroad Commissioner                                   James "Jim" Wright                    PRECINCT 41                                            01 
01060010008000420000017000207000196000000000000REP       Railroad Commissioner                                   James "Jim" Wright                    PRECINCT 42                                            01 
01060010009000267000010000212000045000000000000REP       Railroad Commissioner                                   James "Jim" Wright                    PRECINCT 43                                            01 
01060020001000258000032000179000047000000000000DEM       Railroad Commissioner                                   Chrysta Castaneda                     PRECINCT 11                                            01 
01060020002000029000006000014000009000000000000DEM       Railroad Commissioner                                   Chrysta Castaneda                     PRECINCT 12                                            01 
01060020003000222000035000146000041000000000000DEM       Railroad Commissioner                                   Chrysta Castaneda                     PRECINCT 21                                            01 
01060020004000052000007000019000026000000000000DEM       Railroad Commissioner                                   Chrysta Castaneda                     PRECINCT 22                                            01 
01060020005000112000028000062000022000000000000DEM       Railroad Commissioner                                   Chrysta Castaneda                     PRECINCT 31                                            01 
01060020006000054000012000029000013000000000000DEM       Railroad Commissioner                                   Chrysta Castaneda                     PRECINCT 32                                            01 
01060020007000041000013000020000008000000000000DEM       Railroad Commissioner                                   Chrysta Castaneda                     PRECINCT 41                                            01 
01060020008000056000006000029000021000000000000DEM       Railroad Commissioner                                   Chrysta Castaneda                     PRECINCT 42                                            01 
01060020009000039000006000032000001000000000000DEM       Railroad Commissioner                                   Chrysta Castaneda                     PRECINCT 43                                            01 
01060030001000002000000000002000000000000000000LIB       Railroad Commissioner                                   Matt Sterett                          PRECINCT 11                                            01 
01060030002000003000000000002000001000000000000LIB       Railroad Commissioner                                   Matt Sterett                          PRECINCT 12                                            01 
01060030003000008000001000004000003000000000000LIB       Railroad Commissioner                                   Matt Sterett                          PRECINCT 21                                            01 
01060030004000003000000000002000001000000000000LIB       Railroad Commissioner                                   Matt Sterett                          PRECINCT 22                                            01 
01060030005000005000000000005000000000000000000LIB       Railroad Commissioner                                   Matt Sterett                          PRECINCT 31                                            01 
01060030006000006000000000004000002000000000000LIB       Railroad Commissioner                                   Matt Sterett                          PRECINCT 32                                            01 
01060030007000003000000000002000001000000000000LIB       Railroad Commissioner                                   Matt Sterett                          PRECINCT 41                                            01 
01060030008000009000000000003000006000000000000LIB       Railroad Commissioner                                   Matt Sterett                          PRECINCT 42                                            01 
01060030009000007000000000007000000000000000000LIB       Railroad Commissioner                                   Matt Sterett                          PRECINCT 43                                            01 
01060040001000006000000000005000001000000000000GRN       Railroad Commissioner                                   Katija "Kat" Gruene                   PRECINCT 11                                            01 
01060040002000003000001000000000002000000000000GRN       Railroad Commissioner                                   Katija "Kat" Gruene                   PRECINCT 12                                            01 
01060040003000001000000000000000001000000000000GRN       Railroad Commissioner                                   Katija "Kat" Gruene                   PRECINCT 21                                            01 
01060040004000000000000000000000000000000000000GRN       Railroad Commissioner                                   Katija "Kat" Gruene                   PRECINCT 22                                            01 
01060040005000003000000000001000002000000000000GRN       Railroad Commissioner                                   Katija "Kat" Gruene                   PRECINCT 31                                            01 
01060040006000000000000000000000000000000000000GRN       Railroad Commissioner                                   Katija "Kat" Gruene                   PRECINCT 32                                            01 
01060040007000005000000000002000003000000000000GRN       Railroad Commissioner                                   Katija "Kat" Gruene                   PRECINCT 41                                            01 
01060040008000002000000000001000001000000000000GRN       Railroad Commissioner                                   Katija "Kat" Gruene                   PRECINCT 42                                            01 
01060040009000003000001000002000000000000000000GRN       Railroad Commissioner                                   Katija "Kat" Gruene                   PRECINCT 43                                            01 
01060050001000000000000000000000000000000000000          Railroad Commissioner                                   OVER VOTES                            PRECINCT 11                                            01 
01060050002000000000000000000000000000000000000          Railroad Commissioner                                   OVER VOTES                            PRECINCT 12                                            01 
01060050003000000000000000000000000000000000000          Railroad Commissioner                                   OVER VOTES                            PRECINCT 21                                            01 
01060050004000000000000000000000000000000000000          Railroad Commissioner                                   OVER VOTES                            PRECINCT 22                                            01 
01060050005000000000000000000000000000000000000          Railroad Commissioner                                   OVER VOTES                            PRECINCT 31                                            01 
01060050006000000000000000000000000000000000000          Railroad Commissioner                                   OVER VOTES                            PRECINCT 32                                            01 
01060050007000000000000000000000000000000000000          Railroad Commissioner                                   OVER VOTES                            PRECINCT 41                                            01 
01060050008000000000000000000000000000000000000          Railroad Commissioner                                   OVER VOTES                            PRECINCT 42                                            01 
01060050009000000000000000000000000000000000000          Railroad Commissioner                                   OVER VOTES                            PRECINCT 43                                            01 
01060060001000046000003000032000011000000000000          Railroad Commissioner                                   UNDER VOTES                           PRECINCT 11                                            01 
01060060002000018000001000008000009000000000000          Railroad Commissioner                                   UNDER VOTES                           PRECINCT 12                                            01 
01060060003000036000000000029000007000000000000          Railroad Commissioner                                   UNDER VOTES                           PRECINCT 21                                            01 
01060060004000013000000000003000010000000000000          Railroad Commissioner                                   UNDER VOTES                           PRECINCT 22                                            01 
01060060005000018000001000010000007000000000000          Railroad Commissioner                                   UNDER VOTES                           PRECINCT 31                                            01 
01060060006000011000001000005000005000000000000          Railroad Commissioner                                   UNDER VOTES                           PRECINCT 32                                            01 
01060060007000008000001000006000001000000000000          Railroad Commissioner                                   UNDER VOTES                           PRECINCT 41                                            01 
01060060008000011000001000009000001000000000000          Railroad Commissioner                                   UNDER VOTES                           PRECINCT 42                                            01 
01060060009000008000001000006000001000000000000          Railroad Commissioner                                   UNDER VOTES                           PRECINCT 43                                            01 
01070010001000340000010000265000065000000000000REP       Chief Justice, Supreme Court                            Nathan Hecht                          PRECINCT 11                                            01 
01070010002000297000010000204000083000000000000REP       Chief Justice, Supreme Court                            Nathan Hecht                          PRECINCT 12                                            01 
01070010003000355000021000277000057000000000000REP       Chief Justice, Supreme Court                            Nathan Hecht                          PRECINCT 21                                            01 
01070010004000110000004000067000039000000000000REP       Chief Justice, Supreme Court                            Nathan Hecht                          PRECINCT 22                                            01 
01070010005000431000019000336000076000000000000REP       Chief Justice, Supreme Court                            Nathan Hecht                          PRECINCT 31                                            01 
01070010006000429000025000240000164000000000000REP       Chief Justice, Supreme Court                            Nathan Hecht                          PRECINCT 32                                            01 
01070010007000249000017000144000088000000000000REP       Chief Justice, Supreme Court                            Nathan Hecht                          PRECINCT 41                                            01 
01070010008000423000018000206000199000000000000REP       Chief Justice, Supreme Court                            Nathan Hecht                          PRECINCT 42                                            01 
01070010009000270000010000215000045000000000000REP       Chief Justice, Supreme Court                            Nathan Hecht                          PRECINCT 43                                            01 
01070020001000240000030000165000045000000000000DEM       Chief Justice, Supreme Court                            Amy Clark Meachum                     PRECINCT 11                                            01 
01070020002000032000008000013000011000000000000DEM       Chief Justice, Supreme Court                            Amy Clark Meachum                     PRECINCT 12                                            01 
01070020003000221000031000145000045000000000000DEM       Chief Justice, Supreme Court                            Amy Clark Meachum                     PRECINCT 21                                            01 
01070020004000044000006000016000022000000000000DEM       Chief Justice, Supreme Court                            Amy Clark Meachum                     PRECINCT 22                                            01 
01070020005000117000031000062000024000000000000DEM       Chief Justice, Supreme Court                            Amy Clark Meachum                     PRECINCT 31                                            01 
01070020006000053000013000029000011000000000000DEM       Chief Justice, Supreme Court                            Amy Clark Meachum                     PRECINCT 32                                            01 
01070020007000041000012000020000009000000000000DEM       Chief Justice, Supreme Court                            Amy Clark Meachum                     PRECINCT 41                                            01 
01070020008000052000005000027000020000000000000DEM       Chief Justice, Supreme Court                            Amy Clark Meachum                     PRECINCT 42                                            01 
01070020009000040000007000032000001000000000000DEM       Chief Justice, Supreme Court                            Amy Clark Meachum                     PRECINCT 43                                            01 
01070030001000005000000000002000003000000000000LIB       Chief Justice, Supreme Court                            Mark Ash                              PRECINCT 11                                            01 
01070030002000003000000000002000001000000000000LIB       Chief Justice, Supreme Court                            Mark Ash                              PRECINCT 12                                            01 
01070030003000016000002000007000007000000000000LIB       Chief Justice, Supreme Court                            Mark Ash                              PRECINCT 21                                            01 
01070030004000002000000000002000000000000000000LIB       Chief Justice, Supreme Court                            Mark Ash                              PRECINCT 22                                            01 
01070030005000004000000000003000001000000000000LIB       Chief Justice, Supreme Court                            Mark Ash                              PRECINCT 31                                            01 
01070030006000005000000000003000002000000000000LIB       Chief Justice, Supreme Court                            Mark Ash                              PRECINCT 32                                            01 
01070030007000005000000000004000001000000000000LIB       Chief Justice, Supreme Court                            Mark Ash                              PRECINCT 41                                            01 
01070030008000007000001000002000004000000000000LIB       Chief Justice, Supreme Court                            Mark Ash                              PRECINCT 42                                            01 
01070030009000004000000000004000000000000000000LIB       Chief Justice, Supreme Court                            Mark Ash                              PRECINCT 43                                            01 
01070040001000000000000000000000000000000000000          Chief Justice, Supreme Court                            OVER VOTES                            PRECINCT 11                                            01 
01070040002000000000000000000000000000000000000          Chief Justice, Supreme Court                            OVER VOTES                            PRECINCT 12                                            01 
01070040003000000000000000000000000000000000000          Chief Justice, Supreme Court                            OVER VOTES                            PRECINCT 21                                            01 
01070040004000000000000000000000000000000000000          Chief Justice, Supreme Court                            OVER VOTES                            PRECINCT 22                                            01 
01070040005000000000000000000000000000000000000          Chief Justice, Supreme Court                            OVER VOTES                            PRECINCT 31                                            01 
01070040006000000000000000000000000000000000000          Chief Justice, Supreme Court                            OVER VOTES                            PRECINCT 32                                            01 
01070040007000000000000000000000000000000000000          Chief Justice, Supreme Court                            OVER VOTES                            PRECINCT 41                                            01 
01070040008000000000000000000000000000000000000          Chief Justice, Supreme Court                            OVER VOTES                            PRECINCT 42                                            01 
01070040009000000000000000000000000000000000000          Chief Justice, Supreme Court                            OVER VOTES                            PRECINCT 43                                            01 
01070050001000064000006000043000015000000000000          Chief Justice, Supreme Court                            UNDER VOTES                           PRECINCT 11                                            01 
01070050002000019000002000008000009000000000000          Chief Justice, Supreme Court                            UNDER VOTES                           PRECINCT 12                                            01 
01070050003000045000000000037000008000000000000          Chief Justice, Supreme Court                            UNDER VOTES                           PRECINCT 21                                            01 
01070050004000022000001000006000015000000000000          Chief Justice, Supreme Court                            UNDER VOTES                           PRECINCT 22                                            01 
01070050005000024000002000016000006000000000000          Chief Justice, Supreme Court                            UNDER VOTES                           PRECINCT 31                                            01 
01070050006000010000000000007000003000000000000          Chief Justice, Supreme Court                            UNDER VOTES                           PRECINCT 32                                            01 
01070050007000014000001000009000004000000000000          Chief Justice, Supreme Court                            UNDER VOTES                           PRECINCT 41                                            01 
01070050008000016000000000014000002000000000000          Chief Justice, Supreme Court                            UNDER VOTES                           PRECINCT 42                                            01 
01070050009000010000001000008000001000000000000          Chief Justice, Supreme Court                            UNDER VOTES                           PRECINCT 43                                            01 
01080010001000357000012000277000068000000000000REP       Justice, Supreme Court, Place 6                         Jane Bland                            PRECINCT 11                                            01 
01080010002000300000012000204000084000000000000REP       Justice, Supreme Court, Place 6                         Jane Bland                            PRECINCT 12                                            01 
01080010003000368000022000285000061000000000000REP       Justice, Supreme Court, Place 6                         Jane Bland                            PRECINCT 21                                            01 
01080010004000112000004000068000040000000000000REP       Justice, Supreme Court, Place 6                         Jane Bland                            PRECINCT 22                                            01 
01080010005000441000020000345000076000000000000REP       Justice, Supreme Court, Place 6                         Jane Bland                            PRECINCT 31                                            01 
01080010006000439000025000249000165000000000000REP       Justice, Supreme Court, Place 6                         Jane Bland                            PRECINCT 32                                            01 
01080010007000252000017000149000086000000000000REP       Justice, Supreme Court, Place 6                         Jane Bland                            PRECINCT 41                                            01 
01080010008000433000019000210000204000000000000REP       Justice, Supreme Court, Place 6                         Jane Bland                            PRECINCT 42                                            01 
01080010009000274000010000218000046000000000000REP       Justice, Supreme Court, Place 6                         Jane Bland                            PRECINCT 43                                            01 
01080020001000232000032000157000043000000000000DEM       Justice, Supreme Court, Place 6                         Kathy Cheng                           PRECINCT 11                                            01 
01080020002000032000006000015000011000000000000DEM       Justice, Supreme Court, Place 6                         Kathy Cheng                           PRECINCT 12                                            01 
01080020003000215000032000141000042000000000000DEM       Justice, Supreme Court, Place 6                         Kathy Cheng                           PRECINCT 21                                            01 
01080020004000045000007000016000022000000000000DEM       Justice, Supreme Court, Place 6                         Kathy Cheng                           PRECINCT 22                                            01 
01080020005000108000030000056000022000000000000DEM       Justice, Supreme Court, Place 6                         Kathy Cheng                           PRECINCT 31                                            01 
01080020006000049000013000025000011000000000000DEM       Justice, Supreme Court, Place 6                         Kathy Cheng                           PRECINCT 32                                            01 
01080020007000041000011000019000011000000000000DEM       Justice, Supreme Court, Place 6                         Kathy Cheng                           PRECINCT 41                                            01 
01080020008000047000004000025000018000000000000DEM       Justice, Supreme Court, Place 6                         Kathy Cheng                           PRECINCT 42                                            01 
01080020009000039000006000033000000000000000000DEM       Justice, Supreme Court, Place 6                         Kathy Cheng                           PRECINCT 43                                            01 
01080030001000000000000000000000000000000000000          Justice, Supreme Court, Place 6                         OVER VOTES                            PRECINCT 11                                            01 
01080030002000000000000000000000000000000000000          Justice, Supreme Court, Place 6                         OVER VOTES                            PRECINCT 12                                            01 
01080030003000000000000000000000000000000000000          Justice, Supreme Court, Place 6                         OVER VOTES                            PRECINCT 21                                            01 
01080030004000001000000000001000000000000000000          Justice, Supreme Court, Place 6                         OVER VOTES                            PRECINCT 22                                            01 
01080030005000000000000000000000000000000000000          Justice, Supreme Court, Place 6                         OVER VOTES                            PRECINCT 31                                            01 
01080030006000000000000000000000000000000000000          Justice, Supreme Court, Place 6                         OVER VOTES                            PRECINCT 32                                            01 
01080030007000000000000000000000000000000000000          Justice, Supreme Court, Place 6                         OVER VOTES                            PRECINCT 41                                            01 
01080030008000000000000000000000000000000000000          Justice, Supreme Court, Place 6                         OVER VOTES                            PRECINCT 42                                            01 
01080030009000000000000000000000000000000000000          Justice, Supreme Court, Place 6                         OVER VOTES                            PRECINCT 43                                            01 
01080040001000060000002000041000017000000000000          Justice, Supreme Court, Place 6                         UNDER VOTES                           PRECINCT 11                                            01 
01080040002000019000002000008000009000000000000          Justice, Supreme Court, Place 6                         UNDER VOTES                           PRECINCT 12                                            01 
01080040003000054000000000040000014000000000000          Justice, Supreme Court, Place 6                         UNDER VOTES                           PRECINCT 21                                            01 
01080040004000020000000000006000014000000000000          Justice, Supreme Court, Place 6                         UNDER VOTES                           PRECINCT 22                                            01 
01080040005000027000002000016000009000000000000          Justice, Supreme Court, Place 6                         UNDER VOTES                           PRECINCT 31                                            01 
01080040006000009000000000005000004000000000000          Justice, Supreme Court, Place 6                         UNDER VOTES                           PRECINCT 32                                            01 
01080040007000016000002000009000005000000000000          Justice, Supreme Court, Place 6                         UNDER VOTES                           PRECINCT 41                                            01 
01080040008000018000001000014000003000000000000          Justice, Supreme Court, Place 6                         UNDER VOTES                           PRECINCT 42                                            01 
01080040009000011000002000008000001000000000000          Justice, Supreme Court, Place 6                         UNDER VOTES                           PRECINCT 43                                            01 
01090010001000352000012000273000067000000000000REP       Justice, Supreme Court, Place 7                         Jeff Boyd                             PRECINCT 11                                            01 
01090010002000297000010000204000083000000000000REP       Justice, Supreme Court, Place 7                         Jeff Boyd                             PRECINCT 12                                            01 
01090010003000366000021000285000060000000000000REP       Justice, Supreme Court, Place 7                         Jeff Boyd                             PRECINCT 21                                            01 
01090010004000109000004000068000037000000000000REP       Justice, Supreme Court, Place 7                         Jeff Boyd                             PRECINCT 22                                            01 
01090010005000432000019000336000077000000000000REP       Justice, Supreme Court, Place 7                         Jeff Boyd                             PRECINCT 31                                            01 
01090010006000438000026000246000166000000000000REP       Justice, Supreme Court, Place 7                         Jeff Boyd                             PRECINCT 32                                            01 
01090010007000250000017000147000086000000000000REP       Justice, Supreme Court, Place 7                         Jeff Boyd                             PRECINCT 41                                            01 
01090010008000424000017000208000199000000000000REP       Justice, Supreme Court, Place 7                         Jeff Boyd                             PRECINCT 42                                            01 
01090010009000273000010000216000047000000000000REP       Justice, Supreme Court, Place 7                         Jeff Boyd                             PRECINCT 43                                            01 
01090020001000233000032000159000042000000000000DEM       Justice, Supreme Court, Place 7                         Staci Williams                        PRECINCT 11                                            01 
01090020002000031000007000014000010000000000000DEM       Justice, Supreme Court, Place 7                         Staci Williams                        PRECINCT 12                                            01 
01090020003000207000031000133000043000000000000DEM       Justice, Supreme Court, Place 7                         Staci Williams                        PRECINCT 21                                            01 
01090020004000048000007000015000026000000000000DEM       Justice, Supreme Court, Place 7                         Staci Williams                        PRECINCT 22                                            01 
01090020005000112000031000060000021000000000000DEM       Justice, Supreme Court, Place 7                         Staci Williams                        PRECINCT 31                                            01 
01090020006000046000012000025000009000000000000DEM       Justice, Supreme Court, Place 7                         Staci Williams                        PRECINCT 32                                            01 
01090020007000042000012000019000011000000000000DEM       Justice, Supreme Court, Place 7                         Staci Williams                        PRECINCT 41                                            01 
01090020008000050000005000026000019000000000000DEM       Justice, Supreme Court, Place 7                         Staci Williams                        PRECINCT 42                                            01 
01090020009000040000007000033000000000000000000DEM       Justice, Supreme Court, Place 7                         Staci Williams                        PRECINCT 43                                            01 
01090030001000008000000000003000005000000000000LIB       Justice, Supreme Court, Place 7                         William Bryan Strange III             PRECINCT 11                                            01 
01090030002000003000002000000000001000000000000LIB       Justice, Supreme Court, Place 7                         William Bryan Strange III             PRECINCT 12                                            01 
01090030003000015000002000008000005000000000000LIB       Justice, Supreme Court, Place 7                         William Bryan Strange III             PRECINCT 21                                            01 
01090030004000002000000000002000000000000000000LIB       Justice, Supreme Court, Place 7                         William Bryan Strange III             PRECINCT 22                                            01 
01090030005000008000000000006000002000000000000LIB       Justice, Supreme Court, Place 7                         William Bryan Strange III             PRECINCT 31                                            01 
01090030006000004000000000003000001000000000000LIB       Justice, Supreme Court, Place 7                         William Bryan Strange III             PRECINCT 32                                            01 
01090030007000005000000000003000002000000000000LIB       Justice, Supreme Court, Place 7                         William Bryan Strange III             PRECINCT 41                                            01 
01090030008000005000000000002000003000000000000LIB       Justice, Supreme Court, Place 7                         William Bryan Strange III             PRECINCT 42                                            01 
01090030009000003000000000003000000000000000000LIB       Justice, Supreme Court, Place 7                         William Bryan Strange III             PRECINCT 43                                            01 
01090040001000000000000000000000000000000000000          Justice, Supreme Court, Place 7                         OVER VOTES                            PRECINCT 11                                            01 
01090040002000000000000000000000000000000000000          Justice, Supreme Court, Place 7                         OVER VOTES                            PRECINCT 12                                            01 
01090040003000000000000000000000000000000000000          Justice, Supreme Court, Place 7                         OVER VOTES                            PRECINCT 21                                            01 
01090040004000000000000000000000000000000000000          Justice, Supreme Court, Place 7                         OVER VOTES                            PRECINCT 22                                            01 
01090040005000000000000000000000000000000000000          Justice, Supreme Court, Place 7                         OVER VOTES                            PRECINCT 31                                            01 
01090040006000000000000000000000000000000000000          Justice, Supreme Court, Place 7                         OVER VOTES                            PRECINCT 32                                            01 
01090040007000000000000000000000000000000000000          Justice, Supreme Court, Place 7                         OVER VOTES                            PRECINCT 41                                            01 
01090040008000000000000000000000000000000000000          Justice, Supreme Court, Place 7                         OVER VOTES                            PRECINCT 42                                            01 
01090040009000000000000000000000000000000000000          Justice, Supreme Court, Place 7                         OVER VOTES                            PRECINCT 43                                            01 
01090050001000056000002000040000014000000000000          Justice, Supreme Court, Place 7                         UNDER VOTES                           PRECINCT 11                                            01 
01090050002000020000001000009000010000000000000          Justice, Supreme Court, Place 7                         UNDER VOTES                           PRECINCT 12                                            01 
01090050003000049000000000040000009000000000000          Justice, Supreme Court, Place 7                         UNDER VOTES                           PRECINCT 21                                            01 
01090050004000019000000000006000013000000000000          Justice, Supreme Court, Place 7                         UNDER VOTES                           PRECINCT 22                                            01 
01090050005000024000002000015000007000000000000          Justice, Supreme Court, Place 7                         UNDER VOTES                           PRECINCT 31                                            01 
01090050006000009000000000005000004000000000000          Justice, Supreme Court, Place 7                         UNDER VOTES                           PRECINCT 32                                            01 
01090050007000012000001000008000003000000000000          Justice, Supreme Court, Place 7                         UNDER VOTES                           PRECINCT 41                                            01 
01090050008000019000002000013000004000000000000          Justice, Supreme Court, Place 7                         UNDER VOTES                           PRECINCT 42                                            01 
01090050009000008000001000007000000000000000000          Justice, Supreme Court, Place 7                         UNDER VOTES                           PRECINCT 43                                            01 
01100010001000338000011000263000064000000000000REP       Justice, Supreme Court, Place 8                         Brett Busby                           PRECINCT 11                                            01 
01100010002000301000013000204000084000000000000REP       Justice, Supreme Court, Place 8                         Brett Busby                           PRECINCT 12                                            01 
01100010003000370000020000287000063000000000000REP       Justice, Supreme Court, Place 8                         Brett Busby                           PRECINCT 21                                            01 
01100010004000110000004000067000039000000000000REP       Justice, Supreme Court, Place 8                         Brett Busby                           PRECINCT 22                                            01 
01100010005000435000020000340000075000000000000REP       Justice, Supreme Court, Place 8                         Brett Busby                           PRECINCT 31                                            01 
01100010006000435000026000243000166000000000000REP       Justice, Supreme Court, Place 8                         Brett Busby                           PRECINCT 32                                            01 
01100010007000253000017000146000090000000000000REP       Justice, Supreme Court, Place 8                         Brett Busby                           PRECINCT 41                                            01 
01100010008000425000017000208000200000000000000REP       Justice, Supreme Court, Place 8                         Brett Busby                           PRECINCT 42                                            01 
01100010009000273000010000216000047000000000000REP       Justice, Supreme Court, Place 8                         Brett Busby                           PRECINCT 43                                            01 
01100020001000243000032000165000046000000000000DEM       Justice, Supreme Court, Place 8                         Gisela D. Triana                      PRECINCT 11                                            01 
01100020002000029000005000014000010000000000000DEM       Justice, Supreme Court, Place 8                         Gisela D. Triana                      PRECINCT 12                                            01 
01100020003000207000033000134000040000000000000DEM       Justice, Supreme Court, Place 8                         Gisela D. Triana                      PRECINCT 21                                            01 
01100020004000046000007000016000023000000000000DEM       Justice, Supreme Court, Place 8                         Gisela D. Triana                      PRECINCT 22                                            01 
01100020005000111000029000060000022000000000000DEM       Justice, Supreme Court, Place 8                         Gisela D. Triana                      PRECINCT 31                                            01 
01100020006000045000012000025000008000000000000DEM       Justice, Supreme Court, Place 8                         Gisela D. Triana                      PRECINCT 32                                            01 
01100020007000037000012000018000007000000000000DEM       Justice, Supreme Court, Place 8                         Gisela D. Triana                      PRECINCT 41                                            01 
01100020008000049000006000025000018000000000000DEM       Justice, Supreme Court, Place 8                         Gisela D. Triana                      PRECINCT 42                                            01 
01100020009000037000007000030000000000000000000DEM       Justice, Supreme Court, Place 8                         Gisela D. Triana                      PRECINCT 43                                            01 
01100030001000007000000000002000005000000000000LIB       Justice, Supreme Court, Place 8                         Tom Oxford                            PRECINCT 11                                            01 
01100030002000003000000000002000001000000000000LIB       Justice, Supreme Court, Place 8                         Tom Oxford                            PRECINCT 12                                            01 
01100030003000015000001000007000007000000000000LIB       Justice, Supreme Court, Place 8                         Tom Oxford                            PRECINCT 21                                            01 
01100030004000005000000000004000001000000000000LIB       Justice, Supreme Court, Place 8                         Tom Oxford                            PRECINCT 22                                            01 
01100030005000007000002000004000001000000000000LIB       Justice, Supreme Court, Place 8                         Tom Oxford                            PRECINCT 31                                            01 
01100030006000004000000000002000002000000000000LIB       Justice, Supreme Court, Place 8                         Tom Oxford                            PRECINCT 32                                            01 
01100030007000007000000000005000002000000000000LIB       Justice, Supreme Court, Place 8                         Tom Oxford                            PRECINCT 41                                            01 
01100030008000009000000000002000007000000000000LIB       Justice, Supreme Court, Place 8                         Tom Oxford                            PRECINCT 42                                            01 
01100030009000005000000000005000000000000000000LIB       Justice, Supreme Court, Place 8                         Tom Oxford                            PRECINCT 43                                            01 
01100040001000000000000000000000000000000000000          Justice, Supreme Court, Place 8                         OVER VOTES                            PRECINCT 11                                            01 
01100040002000000000000000000000000000000000000          Justice, Supreme Court, Place 8                         OVER VOTES                            PRECINCT 12                                            01 
01100040003000000000000000000000000000000000000          Justice, Supreme Court, Place 8                         OVER VOTES                            PRECINCT 21                                            01 
01100040004000001000000000000000001000000000000          Justice, Supreme Court, Place 8                         OVER VOTES                            PRECINCT 22                                            01 
01100040005000000000000000000000000000000000000          Justice, Supreme Court, Place 8                         OVER VOTES                            PRECINCT 31                                            01 
01100040006000001000000000001000000000000000000          Justice, Supreme Court, Place 8                         OVER VOTES                            PRECINCT 32                                            01 
01100040007000000000000000000000000000000000000          Justice, Supreme Court, Place 8                         OVER VOTES                            PRECINCT 41                                            01 
01100040008000000000000000000000000000000000000          Justice, Supreme Court, Place 8                         OVER VOTES                            PRECINCT 42                                            01 
01100040009000000000000000000000000000000000000          Justice, Supreme Court, Place 8                         OVER VOTES                            PRECINCT 43                                            01 
01100050001000061000003000045000013000000000000          Justice, Supreme Court, Place 8                         UNDER VOTES                           PRECINCT 11                                            01 
01100050002000018000002000007000009000000000000          Justice, Supreme Court, Place 8                         UNDER VOTES                           PRECINCT 12                                            01 
01100050003000045000000000038000007000000000000          Justice, Supreme Court, Place 8                         UNDER VOTES                           PRECINCT 21                                            01 
01100050004000016000000000004000012000000000000          Justice, Supreme Court, Place 8                         UNDER VOTES                           PRECINCT 22                                            01 
01100050005000023000001000013000009000000000000          Justice, Supreme Court, Place 8                         UNDER VOTES                           PRECINCT 31                                            01 
01100050006000012000000000008000004000000000000          Justice, Supreme Court, Place 8                         UNDER VOTES                           PRECINCT 32                                            01 
01100050007000012000001000008000003000000000000          Justice, Supreme Court, Place 8                         UNDER VOTES                           PRECINCT 41                                            01 
01100050008000015000001000014000000000000000000          Justice, Supreme Court, Place 8                         UNDER VOTES                           PRECINCT 42                                            01 
01100050009000009000001000008000000000000000000          Justice, Supreme Court, Place 8                         UNDER VOTES                           PRECINCT 43                                            01 
01110010001000356000012000273000071000000000000REP       Judge, Court of Criminal Appeals, Pl 3                  Bert Richardson                       PRECINCT 11                                            01 
01110010002000298000012000204000082000000000000REP       Judge, Court of Criminal Appeals, Pl 3                  Bert Richardson                       PRECINCT 12                                            01 
01110010003000367000022000284000061000000000000REP       Judge, Court of Criminal Appeals, Pl 3                  Bert Richardson                       PRECINCT 21                                            01 
01110010004000114000004000070000040000000000000REP       Judge, Court of Criminal Appeals, Pl 3                  Bert Richardson                       PRECINCT 22                                            01 
01110010005000435000020000340000075000000000000REP       Judge, Court of Criminal Appeals, Pl 3                  Bert Richardson                       PRECINCT 31                                            01 
01110010006000436000027000247000162000000000000REP       Judge, Court of Criminal Appeals, Pl 3                  Bert Richardson                       PRECINCT 32                                            01 
01110010007000251000017000149000085000000000000REP       Judge, Court of Criminal Appeals, Pl 3                  Bert Richardson                       PRECINCT 41                                            01 
01110010008000424000018000206000200000000000000REP       Judge, Court of Criminal Appeals, Pl 3                  Bert Richardson                       PRECINCT 42                                            01 
01110010009000275000010000219000046000000000000REP       Judge, Court of Criminal Appeals, Pl 3                  Bert Richardson                       PRECINCT 43                                            01 
01110020001000229000031000157000041000000000000DEM       Judge, Court of Criminal Appeals, Pl 3                  Elizabeth Davis Frizell               PRECINCT 11                                            01 
01110020002000034000006000015000013000000000000DEM       Judge, Court of Criminal Appeals, Pl 3                  Elizabeth Davis Frizell               PRECINCT 12                                            01 
01110020003000215000031000141000043000000000000DEM       Judge, Court of Criminal Appeals, Pl 3                  Elizabeth Davis Frizell               PRECINCT 21                                            01 
01110020004000048000007000017000024000000000000DEM       Judge, Court of Criminal Appeals, Pl 3                  Elizabeth Davis Frizell               PRECINCT 22                                            01 
01110020005000118000030000063000025000000000000DEM       Judge, Court of Criminal Appeals, Pl 3                  Elizabeth Davis Frizell               PRECINCT 31                                            01 
01110020006000047000011000023000013000000000000DEM       Judge, Court of Criminal Appeals, Pl 3                  Elizabeth Davis Frizell               PRECINCT 32                                            01 
01110020007000044000012000019000013000000000000DEM       Judge, Court of Criminal Appeals, Pl 3                  Elizabeth Davis Frizell               PRECINCT 41                                            01 
01110020008000056000005000028000023000000000000DEM       Judge, Court of Criminal Appeals, Pl 3                  Elizabeth Davis Frizell               PRECINCT 42                                            01 
01110020009000039000007000032000000000000000000DEM       Judge, Court of Criminal Appeals, Pl 3                  Elizabeth Davis Frizell               PRECINCT 43                                            01 
01110030001000000000000000000000000000000000000          Judge, Court of Criminal Appeals, Pl 3                  OVER VOTES                            PRECINCT 11                                            01 
01110030002000000000000000000000000000000000000          Judge, Court of Criminal Appeals, Pl 3                  OVER VOTES                            PRECINCT 12                                            01 
01110030003000000000000000000000000000000000000          Judge, Court of Criminal Appeals, Pl 3                  OVER VOTES                            PRECINCT 21                                            01 
01110030004000000000000000000000000000000000000          Judge, Court of Criminal Appeals, Pl 3                  OVER VOTES                            PRECINCT 22                                            01 
01110030005000000000000000000000000000000000000          Judge, Court of Criminal Appeals, Pl 3                  OVER VOTES                            PRECINCT 31                                            01 
01110030006000000000000000000000000000000000000          Judge, Court of Criminal Appeals, Pl 3                  OVER VOTES                            PRECINCT 32                                            01 
01110030007000000000000000000000000000000000000          Judge, Court of Criminal Appeals, Pl 3                  OVER VOTES                            PRECINCT 41                                            01 
01110030008000000000000000000000000000000000000          Judge, Court of Criminal Appeals, Pl 3                  OVER VOTES                            PRECINCT 42                                            01 
01110030009000000000000000000000000000000000000          Judge, Court of Criminal Appeals, Pl 3                  OVER VOTES                            PRECINCT 43                                            01 
01110040001000064000003000045000016000000000000          Judge, Court of Criminal Appeals, Pl 3                  UNDER VOTES                           PRECINCT 11                                            01 
01110040002000019000002000008000009000000000000          Judge, Court of Criminal Appeals, Pl 3                  UNDER VOTES                           PRECINCT 12                                            01 
01110040003000055000001000041000013000000000000          Judge, Court of Criminal Appeals, Pl 3                  UNDER VOTES                           PRECINCT 21                                            01 
01110040004000016000000000004000012000000000000          Judge, Court of Criminal Appeals, Pl 3                  UNDER VOTES                           PRECINCT 22                                            01 
01110040005000023000002000014000007000000000000          Judge, Court of Criminal Appeals, Pl 3                  UNDER VOTES                           PRECINCT 31                                            01 
01110040006000014000000000009000005000000000000          Judge, Court of Criminal Appeals, Pl 3                  UNDER VOTES                           PRECINCT 32                                            01 
01110040007000014000001000009000004000000000000          Judge, Court of Criminal Appeals, Pl 3                  UNDER VOTES                           PRECINCT 41                                            01 
01110040008000018000001000015000002000000000000          Judge, Court of Criminal Appeals, Pl 3                  UNDER VOTES                           PRECINCT 42                                            01 
01110040009000010000001000008000001000000000000          Judge, Court of Criminal Appeals, Pl 3                  UNDER VOTES                           PRECINCT 43                                            01 
01120010001000356000013000273000070000000000000REP       Judge, Court of Criminal Appeals, Pl 4                  Kevin Patrick Yeary                   PRECINCT 11                                            01 
01120010002000297000010000204000083000000000000REP       Judge, Court of Criminal Appeals, Pl 4                  Kevin Patrick Yeary                   PRECINCT 12                                            01 
01120010003000375000021000293000061000000000000REP       Judge, Court of Criminal Appeals, Pl 4                  Kevin Patrick Yeary                   PRECINCT 21                                            01 
01120010004000114000004000069000041000000000000REP       Judge, Court of Criminal Appeals, Pl 4                  Kevin Patrick Yeary                   PRECINCT 22                                            01 
01120010005000437000020000340000077000000000000REP       Judge, Court of Criminal Appeals, Pl 4                  Kevin Patrick Yeary                   PRECINCT 31                                            01 
01120010006000440000025000247000168000000000000REP       Judge, Court of Criminal Appeals, Pl 4                  Kevin Patrick Yeary                   PRECINCT 32                                            01 
01120010007000253000017000148000088000000000000REP       Judge, Court of Criminal Appeals, Pl 4                  Kevin Patrick Yeary                   PRECINCT 41                                            01 
01120010008000427000018000207000202000000000000REP       Judge, Court of Criminal Appeals, Pl 4                  Kevin Patrick Yeary                   PRECINCT 42                                            01 
01120010009000275000010000220000045000000000000REP       Judge, Court of Criminal Appeals, Pl 4                  Kevin Patrick Yeary                   PRECINCT 43                                            01 
01120020001000231000029000158000044000000000000DEM       Judge, Court of Criminal Appeals, Pl 4                  Tina Clinton                          PRECINCT 11                                            01 
01120020002000035000008000015000012000000000000DEM       Judge, Court of Criminal Appeals, Pl 4                  Tina Clinton                          PRECINCT 12                                            01 
01120020003000211000031000136000044000000000000DEM       Judge, Court of Criminal Appeals, Pl 4                  Tina Clinton                          PRECINCT 21                                            01 
01120020004000046000007000017000022000000000000DEM       Judge, Court of Criminal Appeals, Pl 4                  Tina Clinton                          PRECINCT 22                                            01 
01120020005000112000030000061000021000000000000DEM       Judge, Court of Criminal Appeals, Pl 4                  Tina Clinton                          PRECINCT 31                                            01 
