00010010001002932000000000000000000000000000000000000000000000000000000000000000000000000000000000000          REGISTERED VOTERS - TOTAL                               REGISTERED VOTERS - TOTAL             Precinct 1010                                          00 
00010010002004910000000000000000000000000000000000000000000000000000000000000000000000000000000000000          REGISTERED VOTERS - TOTAL                               REGISTERED VOTERS - TOTAL             Precinct 1110                                          00 
00010010003002369000000000000000000000000000000000000000000000000000000000000000000000000000000000000          REGISTERED VOTERS - TOTAL                               REGISTERED VOTERS - TOTAL             Precinct 2020                                          00 
00010010004004444000000000000000000000000000000000000000000000000000000000000000000000000000000000000          REGISTERED VOTERS - TOTAL                               REGISTERED VOTERS - TOTAL             Precinct 2080                                          00 
00010010005004917000000000000000000000000000000000000000000000000000000000000000000000000000000000000          REGISTERED VOTERS - TOTAL                               REGISTERED VOTERS - TOTAL             Precinct 2120                                          00 
00010010006002619000000000000000000000000000000000000000000000000000000000000000000000000000000000000          REGISTERED VOTERS - TOTAL                               REGISTERED VOTERS - TOTAL             Precinct 3030                                          00 
00010010007004028000000000000000000000000000000000000000000000000000000000000000000000000000000000000          REGISTERED VOTERS - TOTAL                               REGISTERED VOTERS - TOTAL             Precinct 3040                                          00 
00010010008000636000000000000000000000000000000000000000000000000000000000000000000000000000000000000          REGISTERED VOTERS - TOTAL                               REGISTERED VOTERS - TOTAL             Precinct 3060                                          00 
00010010009003026000000000000000000000000000000000000000000000000000000000000000000000000000000000000          REGISTERED VOTERS - TOTAL                               REGISTERED VOTERS - TOTAL             Precinct 4050                                          00 
00010010010000377000000000000000000000000000000000000000000000000000000000000000000000000000000000000          REGISTERED VOTERS - TOTAL                               REGISTERED VOTERS - TOTAL             Precinct 4070                                          00 
00010010011003548000000000000000000000000000000000000000000000000000000000000000000000000000000000000          REGISTERED VOTERS - TOTAL                               REGISTERED VOTERS - TOTAL             Precinct 4100                                          00 
00020010001002086000256001686000144000000000000000000000000000000000000000000000000000000000000000000          BALLOTS CAST - TOTAL                                    BALLOTS CAST - TOTAL                  Precinct 1010                                          00 
00020010002003894000517003111000266000000000000000000000000000000000000000000000000000000000000000000          BALLOTS CAST - TOTAL                                    BALLOTS CAST - TOTAL                  Precinct 1110                                          00 
00020010003001989000175001621000193000000000000000000000000000000000000000000000000000000000000000000          BALLOTS CAST - TOTAL                                    BALLOTS CAST - TOTAL                  Precinct 2020                                          00 
00020010004003572000268003058000246000000000000000000000000000000000000000000000000000000000000000000          BALLOTS CAST - TOTAL                                    BALLOTS CAST - TOTAL                  Precinct 2080                                          00 
00020010005004020000298003407000315000000000000000000000000000000000000000000000000000000000000000000          BALLOTS CAST - TOTAL                                    BALLOTS CAST - TOTAL                  Precinct 2120                                          00 
00020010006002143000186001529000428000000000000000000000000000000000000000000000000000000000000000000          BALLOTS CAST - TOTAL                                    BALLOTS CAST - TOTAL                  Precinct 3030                                          00 
00020010007003018000264002512000242000000000000000000000000000000000000000000000000000000000000000000          BALLOTS CAST - TOTAL                                    BALLOTS CAST - TOTAL                  Precinct 3040                                          00 
00020010008000511000049000329000133000000000000000000000000000000000000000000000000000000000000000000          BALLOTS CAST - TOTAL                                    BALLOTS CAST - TOTAL                  Precinct 3060                                          00 
00020010009002229000262001371000596000000000000000000000000000000000000000000000000000000000000000000          BALLOTS CAST - TOTAL                                    BALLOTS CAST - TOTAL                  Precinct 4050                                          00 
00020010010000301000024000185000092000000000000000000000000000000000000000000000000000000000000000000          BALLOTS CAST - TOTAL                                    BALLOTS CAST - TOTAL                  Precinct 4070                                          00 
00020010011002813000292002258000263000000000000000000000000000000000000000000000000000000000000000000          BALLOTS CAST - TOTAL                                    BALLOTS CAST - TOTAL                  Precinct 4100                                          00 
00030010001000001000000000001000000000000000000000000000000000000000000000000000000000000000000000000          BALLOTS CAST - BLANK                                    BALLOTS CAST - BLANK                  Precinct 1010                                          00 
00030010002000000000000000000000000000000000000000000000000000000000000000000000000000000000000000000          BALLOTS CAST - BLANK                                    BALLOTS CAST - BLANK                  Precinct 1110                                          00 
00030010003000000000000000000000000000000000000000000000000000000000000000000000000000000000000000000          BALLOTS CAST - BLANK                                    BALLOTS CAST - BLANK                  Precinct 2020                                          00 
00030010004000000000000000000000000000000000000000000000000000000000000000000000000000000000000000000          BALLOTS CAST - BLANK                                    BALLOTS CAST - BLANK                  Precinct 2080                                          00 
00030010005000000000000000000000000000000000000000000000000000000000000000000000000000000000000000000          BALLOTS CAST - BLANK                                    BALLOTS CAST - BLANK                  Precinct 2120                                          00 
00030010006000000000000000000000000000000000000000000000000000000000000000000000000000000000000000000          BALLOTS CAST - BLANK                                    BALLOTS CAST - BLANK                  Precinct 3030                                          00 
00030010007000000000000000000000000000000000000000000000000000000000000000000000000000000000000000000          BALLOTS CAST - BLANK                                    BALLOTS CAST - BLANK                  Precinct 3040                                          00 
00030010008000000000000000000000000000000000000000000000000000000000000000000000000000000000000000000          BALLOTS CAST - BLANK                                    BALLOTS CAST - BLANK                  Precinct 3060                                          00 
00030010009000000000000000000000000000000000000000000000000000000000000000000000000000000000000000000          BALLOTS CAST - BLANK                                    BALLOTS CAST - BLANK                  Precinct 4050                                          00 
00030010010000000000000000000000000000000000000000000000000000000000000000000000000000000000000000000          BALLOTS CAST - BLANK                                    BALLOTS CAST - BLANK                  Precinct 4070                                          00 
00030010011000000000000000000000000000000000000000000000000000000000000000000000000000000000000000000          BALLOTS CAST - BLANK                                    BALLOTS CAST - BLANK                  Precinct 4100                                          00 
00040010001001448000136001213000099000000000000000000000000000000000000000000000000000000000000000000REP       President / Vice-President                              REP Donald J. Trump / Michael R. PencePrecinct 1010                                          01 
00040010002002936000295002431000210000000000000000000000000000000000000000000000000000000000000000000REP       President / Vice-President                              REP Donald J. Trump / Michael R. PencePrecinct 1110                                          01 
00040010003001620000093001358000169000000000000000000000000000000000000000000000000000000000000000000REP       President / Vice-President                              REP Donald J. Trump / Michael R. PencePrecinct 2020                                          01 
00040010004002686000120002380000186000000000000000000000000000000000000000000000000000000000000000000REP       President / Vice-President                              REP Donald J. Trump / Michael R. PencePrecinct 2080                                          01 
00040010005003006000146002606000254000000000000000000000000000000000000000000000000000000000000000000REP       President / Vice-President                              REP Donald J. Trump / Michael R. PencePrecinct 2120                                          01 
00040010006001709000106001237000366000000000000000000000000000000000000000000000000000000000000000000REP       President / Vice-President                              REP Donald J. Trump / Michael R. PencePrecinct 3030                                          01 
00040010007002255000127001940000188000000000000000000000000000000000000000000000000000000000000000000REP       President / Vice-President                              REP Donald J. Trump / Michael R. PencePrecinct 3040                                          01 
00040010008000423000028000281000114000000000000000000000000000000000000000000000000000000000000000000REP       President / Vice-President                              REP Donald J. Trump / Michael R. PencePrecinct 3060                                          01 
00040010009001626000121001044000461000000000000000000000000000000000000000000000000000000000000000000REP       President / Vice-President                              REP Donald J. Trump / Michael R. PencePrecinct 4050                                          01 
00040010010000244000011000157000076000000000000000000000000000000000000000000000000000000000000000000REP       President / Vice-President                              REP Donald J. Trump / Michael R. PencePrecinct 4070                                          01 
00040010011002130000136001778000216000000000000000000000000000000000000000000000000000000000000000000REP       President / Vice-President                              REP Donald J. Trump / Michael R. PencePrecinct 4100                                          01 
00040020001000601000117000444000040000000000000000000000000000000000000000000000000000000000000000000DEM       President / Vice-President                              DEM Joseph R. Biden / Kamala D. HarrisPrecinct 1010                                          01 
00040020002000883000212000627000044000000000000000000000000000000000000000000000000000000000000000000DEM       President / Vice-President                              DEM Joseph R. Biden / Kamala D. HarrisPrecinct 1110                                          01 
00040020003000336000078000239000019000000000000000000000000000000000000000000000000000000000000000000DEM       President / Vice-President                              DEM Joseph R. Biden / Kamala D. HarrisPrecinct 2020                                          01 
00040020004000822000140000635000047000000000000000000000000000000000000000000000000000000000000000000DEM       President / Vice-President                              DEM Joseph R. Biden / Kamala D. HarrisPrecinct 2080                                          01 
00040020005000947000148000752000047000000000000000000000000000000000000000000000000000000000000000000DEM       President / Vice-President                              DEM Joseph R. Biden / Kamala D. HarrisPrecinct 2120                                          01 
00040020006000400000077000274000049000000000000000000000000000000000000000000000000000000000000000000DEM       President / Vice-President                              DEM Joseph R. Biden / Kamala D. HarrisPrecinct 3030                                          01 
00040020007000698000128000527000043000000000000000000000000000000000000000000000000000000000000000000DEM       President / Vice-President                              DEM Joseph R. Biden / Kamala D. HarrisPrecinct 3040                                          01 
00040020008000088000021000048000019000000000000000000000000000000000000000000000000000000000000000000DEM       President / Vice-President                              DEM Joseph R. Biden / Kamala D. HarrisPrecinct 3060                                          01 
00040020009000563000138000305000120000000000000000000000000000000000000000000000000000000000000000000DEM       President / Vice-President                              DEM Joseph R. Biden / Kamala D. HarrisPrecinct 4050                                          01 
00040020010000048000013000023000012000000000000000000000000000000000000000000000000000000000000000000DEM       President / Vice-President                              DEM Joseph R. Biden / Kamala D. HarrisPrecinct 4070                                          01 
00040020011000634000153000445000036000000000000000000000000000000000000000000000000000000000000000000DEM       President / Vice-President                              DEM Joseph R. Biden / Kamala D. HarrisPrecinct 4100                                          01 
00040030001000028000002000022000004000000000000000000000000000000000000000000000000000000000000000000LIB       President / Vice-President                              LIB Jo Jorgensen / Jeremy "Spike" CohePrecinct 1010                                          01 
00040030002000037000000000029000008000000000000000000000000000000000000000000000000000000000000000000LIB       President / Vice-President                              LIB Jo Jorgensen / Jeremy "Spike" CohePrecinct 1110                                          01 
00040030003000019000002000014000003000000000000000000000000000000000000000000000000000000000000000000LIB       President / Vice-President                              LIB Jo Jorgensen / Jeremy "Spike" CohePrecinct 2020                                          01 
00040030004000046000005000031000010000000000000000000000000000000000000000000000000000000000000000000LIB       President / Vice-President                              LIB Jo Jorgensen / Jeremy "Spike" CohePrecinct 2080                                          01 
00040030005000041000002000029000010000000000000000000000000000000000000000000000000000000000000000000LIB       President / Vice-President                              LIB Jo Jorgensen / Jeremy "Spike" CohePrecinct 2120                                          01 
00040030006000024000001000013000010000000000000000000000000000000000000000000000000000000000000000000LIB       President / Vice-President                              LIB Jo Jorgensen / Jeremy "Spike" CohePrecinct 3030                                          01 
00040030007000038000004000028000006000000000000000000000000000000000000000000000000000000000000000000LIB       President / Vice-President                              LIB Jo Jorgensen / Jeremy "Spike" CohePrecinct 3040                                          01 
00040030008000000000000000000000000000000000000000000000000000000000000000000000000000000000000000000LIB       President / Vice-President                              LIB Jo Jorgensen / Jeremy "Spike" CohePrecinct 3060                                          01 
00040030009000022000001000012000009000000000000000000000000000000000000000000000000000000000000000000LIB       President / Vice-President                              LIB Jo Jorgensen / Jeremy "Spike" CohePrecinct 4050                                          01 
00040030010000008000000000004000004000000000000000000000000000000000000000000000000000000000000000000LIB       President / Vice-President                              LIB Jo Jorgensen / Jeremy "Spike" CohePrecinct 4070                                          01 
00040030011000026000002000019000005000000000000000000000000000000000000000000000000000000000000000000LIB       President / Vice-President                              LIB Jo Jorgensen / Jeremy "Spike" CohePrecinct 4100                                          01 
00040040001000003000000000002000001000000000000000000000000000000000000000000000000000000000000000000GRN       President / Vice-President                              GRN Howie Hawkins / Angela Walker     Precinct 1010                                          01 
00040040002000008000002000004000002000000000000000000000000000000000000000000000000000000000000000000GRN       President / Vice-President                              GRN Howie Hawkins / Angela Walker     Precinct 1110                                          01 
00040040003000001000000000001000000000000000000000000000000000000000000000000000000000000000000000000GRN       President / Vice-President                              GRN Howie Hawkins / Angela Walker     Precinct 2020                                          01 
00040040004000007000000000004000003000000000000000000000000000000000000000000000000000000000000000000GRN       President / Vice-President                              GRN Howie Hawkins / Angela Walker     Precinct 2080                                          01 
00040040005000006000000000004000002000000000000000000000000000000000000000000000000000000000000000000GRN       President / Vice-President                              GRN Howie Hawkins / Angela Walker     Precinct 2120                                          01 
00040040006000003000000000001000002000000000000000000000000000000000000000000000000000000000000000000GRN       President / Vice-President                              GRN Howie Hawkins / Angela Walker     Precinct 3030                                          01 
00040040007000006000000000006000000000000000000000000000000000000000000000000000000000000000000000000GRN       President / Vice-President                              GRN Howie Hawkins / Angela Walker     Precinct 3040                                          01 
00040040008000000000000000000000000000000000000000000000000000000000000000000000000000000000000000000GRN       President / Vice-President                              GRN Howie Hawkins / Angela Walker     Precinct 3060                                          01 
00040040009000006000001000003000002000000000000000000000000000000000000000000000000000000000000000000GRN       President / Vice-President                              GRN Howie Hawkins / Angela Walker     Precinct 4050                                          01 
00040040010000000000000000000000000000000000000000000000000000000000000000000000000000000000000000000GRN       President / Vice-President                              GRN Howie Hawkins / Angela Walker     Precinct 4070                                          01 
00040040011000006000000000004000002000000000000000000000000000000000000000000000000000000000000000000GRN       President / Vice-President                              GRN Howie Hawkins / Angela Walker     Precinct 4100                                          01 
00040060001000003000000000003000000000000000000000000000000000000000000000000000000000000000000000000NON       President / Vice-President                              Write-in                              Precinct 1010                                          01 
00040060002000016000003000011000002000000000000000000000000000000000000000000000000000000000000000000NON       President / Vice-President                              Write-in                              Precinct 1110                                          01 
00040060003000009000002000005000002000000000000000000000000000000000000000000000000000000000000000000NON       President / Vice-President                              Write-in                              Precinct 2020                                          01 
00040060004000006000000000006000000000000000000000000000000000000000000000000000000000000000000000000NON       President / Vice-President                              Write-in                              Precinct 2080                                          01 
00040060005000012000000000011000001000000000000000000000000000000000000000000000000000000000000000000NON       President / Vice-President                              Write-in                              Precinct 2120                                          01 
00040060006000004000001000003000000000000000000000000000000000000000000000000000000000000000000000000NON       President / Vice-President                              Write-in                              Precinct 3030                                          01 
00040060007000014000003000006000005000000000000000000000000000000000000000000000000000000000000000000NON       President / Vice-President                              Write-in                              Precinct 3040                                          01 
00040060008000000000000000000000000000000000000000000000000000000000000000000000000000000000000000000NON       President / Vice-President                              Write-in                              Precinct 3060                                          01 
00040060009000006000001000003000002000000000000000000000000000000000000000000000000000000000000000000NON       President / Vice-President                              Write-in                              Precinct 4050                                          01 
00040060010000001000000000001000000000000000000000000000000000000000000000000000000000000000000000000NON       President / Vice-President                              Write-in                              Precinct 4070                                          01 
00040060011000007000000000003000004000000000000000000000000000000000000000000000000000000000000000000NON       President / Vice-President                              Write-in                              Precinct 4100                                          01 
00040070001000000000000000000000000000000000000000000000000000000000000000000000000000000000000000000          President / Vice-President                              OVER VOTES                            Precinct 1010                                          01 
00040070002000000000000000000000000000000000000000000000000000000000000000000000000000000000000000000          President / Vice-President                              OVER VOTES                            Precinct 1110                                          01 
00040070003000000000000000000000000000000000000000000000000000000000000000000000000000000000000000000          President / Vice-President                              OVER VOTES                            Precinct 2020                                          01 
00040070004000002000002000000000000000000000000000000000000000000000000000000000000000000000000000000          President / Vice-President                              OVER VOTES                            Precinct 2080                                          01 
00040070005000000000000000000000000000000000000000000000000000000000000000000000000000000000000000000          President / Vice-President                              OVER VOTES                            Precinct 2120                                          01 
00040070006000000000000000000000000000000000000000000000000000000000000000000000000000000000000000000          President / Vice-President                              OVER VOTES                            Precinct 3030                                          01 
00040070007000000000000000000000000000000000000000000000000000000000000000000000000000000000000000000          President / Vice-President                              OVER VOTES                            Precinct 3040                                          01 
00040070008000000000000000000000000000000000000000000000000000000000000000000000000000000000000000000          President / Vice-President                              OVER VOTES                            Precinct 3060                                          01 
00040070009000000000000000000000000000000000000000000000000000000000000000000000000000000000000000000          President / Vice-President                              OVER VOTES                            Precinct 4050                                          01 
00040070010000000000000000000000000000000000000000000000000000000000000000000000000000000000000000000          President / Vice-President                              OVER VOTES                            Precinct 4070                                          01 
00040070011000000000000000000000000000000000000000000000000000000000000000000000000000000000000000000          President / Vice-President                              OVER VOTES                            Precinct 4100                                          01 
00040080001000003000001000002000000000000000000000000000000000000000000000000000000000000000000000000          President / Vice-President                              UNDER VOTES                           Precinct 1010                                          01 
00040080002000014000005000009000000000000000000000000000000000000000000000000000000000000000000000000          President / Vice-President                              UNDER VOTES                           Precinct 1110                                          01 
00040080003000004000000000004000000000000000000000000000000000000000000000000000000000000000000000000          President / Vice-President                              UNDER VOTES                           Precinct 2020                                          01 
00040080004000003000001000002000000000000000000000000000000000000000000000000000000000000000000000000          President / Vice-President                              UNDER VOTES                           Precinct 2080                                          01 
00040080005000008000002000005000001000000000000000000000000000000000000000000000000000000000000000000          President / Vice-President                              UNDER VOTES                           Precinct 2120                                          01 
00040080006000003000001000001000001000000000000000000000000000000000000000000000000000000000000000000          President / Vice-President                              UNDER VOTES                           Precinct 3030                                          01 
00040080007000007000002000005000000000000000000000000000000000000000000000000000000000000000000000000          President / Vice-President                              UNDER VOTES                           Precinct 3040                                          01 
00040080008000000000000000000000000000000000000000000000000000000000000000000000000000000000000000000          President / Vice-President                              UNDER VOTES                           Precinct 3060                                          01 
00040080009000006000000000004000002000000000000000000000000000000000000000000000000000000000000000000          President / Vice-President                              UNDER VOTES                           Precinct 4050                                          01 
00040080010000000000000000000000000000000000000000000000000000000000000000000000000000000000000000000          President / Vice-President                              UNDER VOTES                           Precinct 4070                                          01 
00040080011000010000001000009000000000000000000000000000000000000000000000000000000000000000000000000          President / Vice-President                              UNDER VOTES                           Precinct 4100                                          01 
00050010001001470000140001233000097000000000000000000000000000000000000000000000000000000000000000000REP       US Senator                                              REP John Cornyn                       Precinct 1010                                          01 
00050010002003023000326002485000212000000000000000000000000000000000000000000000000000000000000000000REP       US Senator                                              REP John Cornyn                       Precinct 1110                                          01 
00050010003001672000100001400000172000000000000000000000000000000000000000000000000000000000000000000REP       US Senator                                              REP John Cornyn                       Precinct 2020                                          01 
00050010004002766000138002441000187000000000000000000000000000000000000000000000000000000000000000000REP       US Senator                                              REP John Cornyn                       Precinct 2080                                          01 
00050010005003096000161002674000261000000000000000000000000000000000000000000000000000000000000000000REP       US Senator                                              REP John Cornyn                       Precinct 2120                                          01 
00050010006001738000114001263000361000000000000000000000000000000000000000000000000000000000000000000REP       US Senator                                              REP John Cornyn                       Precinct 3030                                          01 
00050010007002303000139001975000189000000000000000000000000000000000000000000000000000000000000000000REP       US Senator                                              REP John Cornyn                       Precinct 3040                                          01 
00050010008000425000028000281000116000000000000000000000000000000000000000000000000000000000000000000REP       US Senator                                              REP John Cornyn                       Precinct 3060                                          01 
00050010009001655000125001053000477000000000000000000000000000000000000000000000000000000000000000000REP       US Senator                                              REP John Cornyn                       Precinct 4050                                          01 
00050010010000249000011000159000079000000000000000000000000000000000000000000000000000000000000000000REP       US Senator                                              REP John Cornyn                       Precinct 4070                                          01 
00050010011002187000151001814000222000000000000000000000000000000000000000000000000000000000000000000REP       US Senator                                              REP John Cornyn                       Precinct 4100                                          01 
00050020001000553000106000414000033000000000000000000000000000000000000000000000000000000000000000000DEM       US Senator                                              DEM Mary "MJ" Hegar                   Precinct 1010                                          01 
00050020002000758000179000541000038000000000000000000000000000000000000000000000000000000000000000000DEM       US Senator                                              DEM Mary "MJ" Hegar                   Precinct 1110                                          01 
00050020003000297000074000205000018000000000000000000000000000000000000000000000000000000000000000000DEM       US Senator                                              DEM Mary "MJ" Hegar                   Precinct 2020                                          01 
00050020004000726000127000560000039000000000000000000000000000000000000000000000000000000000000000000DEM       US Senator                                              DEM Mary "MJ" Hegar                   Precinct 2080                                          01 
00050020005000825000128000653000044000000000000000000000000000000000000000000000000000000000000000000DEM       US Senator                                              DEM Mary "MJ" Hegar                   Precinct 2120                                          01 
00050020006000363000072000242000049000000000000000000000000000000000000000000000000000000000000000000DEM       US Senator                                              DEM Mary "MJ" Hegar                   Precinct 3030                                          01 
00050020007000632000120000474000038000000000000000000000000000000000000000000000000000000000000000000DEM       US Senator                                              DEM Mary "MJ" Hegar                   Precinct 3040                                          01 
00050020008000079000021000043000015000000000000000000000000000000000000000000000000000000000000000000DEM       US Senator                                              DEM Mary "MJ" Hegar                   Precinct 3060                                          01 
00050020009000509000128000280000101000000000000000000000000000000000000000000000000000000000000000000DEM       US Senator                                              DEM Mary "MJ" Hegar                   Precinct 4050                                          01 
00050020010000040000012000021000007000000000000000000000000000000000000000000000000000000000000000000DEM       US Senator                                              DEM Mary "MJ" Hegar                   Precinct 4070                                          01 
00050020011000553000133000395000025000000000000000000000000000000000000000000000000000000000000000000DEM       US Senator                                              DEM Mary "MJ" Hegar                   Precinct 4100                                          01 
00050030001000035000004000022000009000000000000000000000000000000000000000000000000000000000000000000LIB       US Senator                                              LIB Kerry Douglas McKennon            Precinct 1010                                          01 
00050030002000063000003000050000010000000000000000000000000000000000000000000000000000000000000000000LIB       US Senator                                              LIB Kerry Douglas McKennon            Precinct 1110                                          01 
00050030003000013000000000011000002000000000000000000000000000000000000000000000000000000000000000000LIB       US Senator                                              LIB Kerry Douglas McKennon            Precinct 2020                                          01 
00050030004000041000002000030000009000000000000000000000000000000000000000000000000000000000000000000LIB       US Senator                                              LIB Kerry Douglas McKennon            Precinct 2080                                          01 
00050030005000062000003000054000005000000000000000000000000000000000000000000000000000000000000000000LIB       US Senator                                              LIB Kerry Douglas McKennon            Precinct 2120                                          01 
00050030006000028000000000016000012000000000000000000000000000000000000000000000000000000000000000000LIB       US Senator                                              LIB Kerry Douglas McKennon            Precinct 3030                                          01 
00050030007000045000002000035000008000000000000000000000000000000000000000000000000000000000000000000LIB       US Senator                                              LIB Kerry Douglas McKennon            Precinct 3040                                          01 
00050030008000005000000000003000002000000000000000000000000000000000000000000000000000000000000000000LIB       US Senator                                              LIB Kerry Douglas McKennon            Precinct 3060                                          01 
00050030009000037000004000023000010000000000000000000000000000000000000000000000000000000000000000000LIB       US Senator                                              LIB Kerry Douglas McKennon            Precinct 4050                                          01 
00050030010000005000000000002000003000000000000000000000000000000000000000000000000000000000000000000LIB       US Senator                                              LIB Kerry Douglas McKennon            Precinct 4070                                          01 
00050030011000040000002000029000009000000000000000000000000000000000000000000000000000000000000000000LIB       US Senator                                              LIB Kerry Douglas McKennon            Precinct 4100                                          01 
00050040001000007000000000005000002000000000000000000000000000000000000000000000000000000000000000000GRN       US Senator                                              GRN David B. Collins                  Precinct 1010                                          01 
00050040002000016000002000012000002000000000000000000000000000000000000000000000000000000000000000000GRN       US Senator                                              GRN David B. Collins                  Precinct 1110                                          01 
00050040003000000000000000000000000000000000000000000000000000000000000000000000000000000000000000000GRN       US Senator                                              GRN David B. Collins                  Precinct 2020                                          01 
00050040004000017000000000012000005000000000000000000000000000000000000000000000000000000000000000000GRN       US Senator                                              GRN David B. Collins                  Precinct 2080                                          01 
00050040005000014000001000011000002000000000000000000000000000000000000000000000000000000000000000000GRN       US Senator                                              GRN David B. Collins                  Precinct 2120                                          01 
00050040006000006000000000003000003000000000000000000000000000000000000000000000000000000000000000000GRN       US Senator                                              GRN David B. Collins                  Precinct 3030                                          01 
00050040007000015000001000012000002000000000000000000000000000000000000000000000000000000000000000000GRN       US Senator                                              GRN David B. Collins                  Precinct 3040                                          01 
00050040008000001000000000001000000000000000000000000000000000000000000000000000000000000000000000000GRN       US Senator                                              GRN David B. Collins                  Precinct 3060                                          01 
00050040009000011000000000005000006000000000000000000000000000000000000000000000000000000000000000000GRN       US Senator                                              GRN David B. Collins                  Precinct 4050                                          01 
00050040010000004000001000002000001000000000000000000000000000000000000000000000000000000000000000000GRN       US Senator                                              GRN David B. Collins                  Precinct 4070                                          01 
00050040011000008000000000003000005000000000000000000000000000000000000000000000000000000000000000000GRN       US Senator                                              GRN David B. Collins                  Precinct 4100                                          01 
00050060001000001000000000001000000000000000000000000000000000000000000000000000000000000000000000000NON       US Senator                                              Write-in                              Precinct 1010                                          01 
00050060002000001000000000001000000000000000000000000000000000000000000000000000000000000000000000000NON       US Senator                                              Write-in                              Precinct 1110                                          01 
00050060003000001000000000001000000000000000000000000000000000000000000000000000000000000000000000000NON       US Senator                                              Write-in                              Precinct 2020                                          01 
00050060004000002000000000002000000000000000000000000000000000000000000000000000000000000000000000000NON       US Senator                                              Write-in                              Precinct 2080                                          01 
00050060005000001000000000001000000000000000000000000000000000000000000000000000000000000000000000000NON       US Senator                                              Write-in                              Precinct 2120                                          01 
00050060006000000000000000000000000000000000000000000000000000000000000000000000000000000000000000000NON       US Senator                                              Write-in                              Precinct 3030                                          01 
00050060007000001000000000000000001000000000000000000000000000000000000000000000000000000000000000000NON       US Senator                                              Write-in                              Precinct 3040                                          01 
00050060008000000000000000000000000000000000000000000000000000000000000000000000000000000000000000000NON       US Senator                                              Write-in                              Precinct 3060                                          01 
00050060009000002000000000001000001000000000000000000000000000000000000000000000000000000000000000000NON       US Senator                                              Write-in                              Precinct 4050                                          01 
00050060010000000000000000000000000000000000000000000000000000000000000000000000000000000000000000000NON       US Senator                                              Write-in                              Precinct 4070                                          01 
00050060011000000000000000000000000000000000000000000000000000000000000000000000000000000000000000000NON       US Senator                                              Write-in                              Precinct 4100                                          01 
00050070001000000000000000000000000000000000000000000000000000000000000000000000000000000000000000000          US Senator                                              OVER VOTES                            Precinct 1010                                          01 
00050070002000000000000000000000000000000000000000000000000000000000000000000000000000000000000000000          US Senator                                              OVER VOTES                            Precinct 1110                                          01 
00050070003000000000000000000000000000000000000000000000000000000000000000000000000000000000000000000          US Senator                                              OVER VOTES                            Precinct 2020                                          01 
00050070004000001000001000000000000000000000000000000000000000000000000000000000000000000000000000000          US Senator                                              OVER VOTES                            Precinct 2080                                          01 
00050070005000000000000000000000000000000000000000000000000000000000000000000000000000000000000000000          US Senator                                              OVER VOTES                            Precinct 2120                                          01 
00050070006000000000000000000000000000000000000000000000000000000000000000000000000000000000000000000          US Senator                                              OVER VOTES                            Precinct 3030                                          01 
00050070007000000000000000000000000000000000000000000000000000000000000000000000000000000000000000000          US Senator                                              OVER VOTES                            Precinct 3040                                          01 
00050070008000000000000000000000000000000000000000000000000000000000000000000000000000000000000000000          US Senator                                              OVER VOTES                            Precinct 3060                                          01 
00050070009000000000000000000000000000000000000000000000000000000000000000000000000000000000000000000          US Senator                                              OVER VOTES                            Precinct 4050                                          01 
00050070010000000000000000000000000000000000000000000000000000000000000000000000000000000000000000000          US Senator                                              OVER VOTES                            Precinct 4070                                          01 
00050070011000000000000000000000000000000000000000000000000000000000000000000000000000000000000000000          US Senator                                              OVER VOTES                            Precinct 4100                                          01 
00050080001000020000006000011000003000000000000000000000000000000000000000000000000000000000000000000          US Senator                                              UNDER VOTES                           Precinct 1010                                          01 
00050080002000033000007000022000004000000000000000000000000000000000000000000000000000000000000000000          US Senator                                              UNDER VOTES                           Precinct 1110                                          01 
00050080003000006000001000004000001000000000000000000000000000000000000000000000000000000000000000000          US Senator                                              UNDER VOTES                           Precinct 2020                                          01 
00050080004000019000000000013000006000000000000000000000000000000000000000000000000000000000000000000          US Senator                                              UNDER VOTES                           Precinct 2080                                          01 
00050080005000022000005000014000003000000000000000000000000000000000000000000000000000000000000000000          US Senator                                              UNDER VOTES                           Precinct 2120                                          01 
00050080006000008000000000005000003000000000000000000000000000000000000000000000000000000000000000000          US Senator                                              UNDER VOTES                           Precinct 3030                                          01 
00050080007000022000002000016000004000000000000000000000000000000000000000000000000000000000000000000          US Senator                                              UNDER VOTES                           Precinct 3040                                          01 
00050080008000001000000000001000000000000000000000000000000000000000000000000000000000000000000000000          US Senator                                              UNDER VOTES                           Precinct 3060                                          01 
00050080009000015000005000009000001000000000000000000000000000000000000000000000000000000000000000000          US Senator                                              UNDER VOTES                           Precinct 4050                                          01 
00050080010000003000000000001000002000000000000000000000000000000000000000000000000000000000000000000          US Senator                                              UNDER VOTES                           Precinct 4070                                          01 
00050080011000025000006000017000002000000000000000000000000000000000000000000000000000000000000000000          US Senator                                              UNDER VOTES                           Precinct 4100                                          01 
00060010001001437000131001215000091000000000000000000000000000000000000000000000000000000000000000000REP       US Representative, Dist 21                              REP Chip Roy                          Precinct 1010                                          01 
00060010002002983000311002466000206000000000000000000000000000000000000000000000000000000000000000000REP       US Representative, Dist 21                              REP Chip Roy                          Precinct 1110                                          01 
00060010003001658000095001387000176000000000000000000000000000000000000000000000000000000000000000000REP       US Representative, Dist 21                              REP Chip Roy                          Precinct 2020                                          01 
00060010004002720000128002411000181000000000000000000000000000000000000000000000000000000000000000000REP       US Representative, Dist 21                              REP Chip Roy                          Precinct 2080                                          01 
00060010005003035000153002619000263000000000000000000000000000000000000000000000000000000000000000000REP       US Representative, Dist 21                              REP Chip Roy                          Precinct 2120                                          01 
00060010006001713000109001236000368000000000000000000000000000000000000000000000000000000000000000000REP       US Representative, Dist 21                              REP Chip Roy                          Precinct 3030                                          01 
00060010007002287000135001961000191000000000000000000000000000000000000000000000000000000000000000000REP       US Representative, Dist 21                              REP Chip Roy                          Precinct 3040                                          01 
00060010008000419000027000280000112000000000000000000000000000000000000000000000000000000000000000000REP       US Representative, Dist 21                              REP Chip Roy                          Precinct 3060                                          01 
00060010009001632000126001041000465000000000000000000000000000000000000000000000000000000000000000000REP       US Representative, Dist 21                              REP Chip Roy                          Precinct 4050                                          01 
00060010010000250000011000160000079000000000000000000000000000000000000000000000000000000000000000000REP       US Representative, Dist 21                              REP Chip Roy                          Precinct 4070                                          01 
00060010011002168000141001804000223000000000000000000000000000000000000000000000000000000000000000000REP       US Representative, Dist 21                              REP Chip Roy                          Precinct 4100                                          01 
00060020001000573000112000423000038000000000000000000000000000000000000000000000000000000000000000000DEM       US Representative, Dist 21                              DEM Wendy R. Davis                    Precinct 1010                                          01 
00060020002000792000187000563000042000000000000000000000000000000000000000000000000000000000000000000DEM       US Representative, Dist 21                              DEM Wendy R. Davis                    Precinct 1110                                          01 
00060020003000303000078000209000016000000000000000000000000000000000000000000000000000000000000000000DEM       US Representative, Dist 21                              DEM Wendy R. Davis                    Precinct 2020                                          01 
00060020004000760000135000583000042000000000000000000000000000000000000000000000000000000000000000000DEM       US Representative, Dist 21                              DEM Wendy R. Davis                    Precinct 2080                                          01 
00060020005000860000133000683000044000000000000000000000000000000000000000000000000000000000000000000DEM       US Representative, Dist 21                              DEM Wendy R. Davis                    Precinct 2120                                          01 
00060020006000385000072000266000047000000000000000000000000000000000000000000000000000000000000000000DEM       US Representative, Dist 21                              DEM Wendy R. Davis                    Precinct 3030                                          01 
00060020007000650000122000491000037000000000000000000000000000000000000000000000000000000000000000000DEM       US Representative, Dist 21                              DEM Wendy R. Davis                    Precinct 3040                                          01 
00060020008000085000021000045000019000000000000000000000000000000000000000000000000000000000000000000DEM       US Representative, Dist 21                              DEM Wendy R. Davis                    Precinct 3060                                          01 
00060020009000530000126000288000116000000000000000000000000000000000000000000000000000000000000000000DEM       US Representative, Dist 21                              DEM Wendy R. Davis                    Precinct 4050                                          01 
00060020010000043000012000022000009000000000000000000000000000000000000000000000000000000000000000000DEM       US Representative, Dist 21                              DEM Wendy R. Davis                    Precinct 4070                                          01 
00060020011000557000138000394000025000000000000000000000000000000000000000000000000000000000000000000DEM       US Representative, Dist 21                              DEM Wendy R. Davis                    Precinct 4100                                          01 
00060030001000037000005000021000011000000000000000000000000000000000000000000000000000000000000000000LIB       US Representative, Dist 21                              LIB Arthur Dibianca                   Precinct 1010                                          01 
00060030002000050000004000036000010000000000000000000000000000000000000000000000000000000000000000000LIB       US Representative, Dist 21                              LIB Arthur Dibianca                   Precinct 1110                                          01 
00060030003000014000001000013000000000000000000000000000000000000000000000000000000000000000000000000LIB       US Representative, Dist 21                              LIB Arthur Dibianca                   Precinct 2020                                          01 
00060030004000044000003000033000008000000000000000000000000000000000000000000000000000000000000000000LIB       US Representative, Dist 21                              LIB Arthur Dibianca                   Precinct 2080                                          01 
00060030005000069000003000062000004000000000000000000000000000000000000000000000000000000000000000000LIB       US Representative, Dist 21                              LIB Arthur Dibianca                   Precinct 2120                                          01 
00060030006000028000002000015000011000000000000000000000000000000000000000000000000000000000000000000LIB       US Representative, Dist 21                              LIB Arthur Dibianca                   Precinct 3030                                          01 
00060030007000037000001000027000009000000000000000000000000000000000000000000000000000000000000000000LIB       US Representative, Dist 21                              LIB Arthur Dibianca                   Precinct 3040                                          01 
00060030008000004000000000003000001000000000000000000000000000000000000000000000000000000000000000000LIB       US Representative, Dist 21                              LIB Arthur Dibianca                   Precinct 3060                                          01 
00060030009000035000003000022000010000000000000000000000000000000000000000000000000000000000000000000LIB       US Representative, Dist 21                              LIB Arthur Dibianca                   Precinct 4050                                          01 
00060030010000004000000000002000002000000000000000000000000000000000000000000000000000000000000000000LIB       US Representative, Dist 21                              LIB Arthur Dibianca                   Precinct 4070                                          01 
00060030011000043000004000032000007000000000000000000000000000000000000000000000000000000000000000000LIB       US Representative, Dist 21                              LIB Arthur Dibianca                   Precinct 4100                                          01 
00060040001000017000001000014000002000000000000000000000000000000000000000000000000000000000000000000GRN       US Representative, Dist 21                              GRN Tommy Wakely                      Precinct 1010                                          01 
00060040002000025000003000016000006000000000000000000000000000000000000000000000000000000000000000000GRN       US Representative, Dist 21                              GRN Tommy Wakely                      Precinct 1110                                          01 
00060040003000003000000000003000000000000000000000000000000000000000000000000000000000000000000000000GRN       US Representative, Dist 21                              GRN Tommy Wakely                      Precinct 2020                                          01 
00060040004000024000002000012000010000000000000000000000000000000000000000000000000000000000000000000GRN       US Representative, Dist 21                              GRN Tommy Wakely                      Precinct 2080                                          01 
00060040005000021000002000017000002000000000000000000000000000000000000000000000000000000000000000000GRN       US Representative, Dist 21                              GRN Tommy Wakely                      Precinct 2120                                          01 
00060040006000006000001000004000001000000000000000000000000000000000000000000000000000000000000000000GRN       US Representative, Dist 21                              GRN Tommy Wakely                      Precinct 3030                                          01 
00060040007000019000002000014000003000000000000000000000000000000000000000000000000000000000000000000GRN       US Representative, Dist 21                              GRN Tommy Wakely                      Precinct 3040                                          01 
00060040008000001000001000000000000000000000000000000000000000000000000000000000000000000000000000000GRN       US Representative, Dist 21                              GRN Tommy Wakely                      Precinct 3060                                          01 
00060040009000012000001000008000003000000000000000000000000000000000000000000000000000000000000000000GRN       US Representative, Dist 21                              GRN Tommy Wakely                      Precinct 4050                                          01 
00060040010000002000001000000000001000000000000000000000000000000000000000000000000000000000000000000GRN       US Representative, Dist 21                              GRN Tommy Wakely                      Precinct 4070                                          01 
00060040011000009000001000005000003000000000000000000000000000000000000000000000000000000000000000000GRN       US Representative, Dist 21                              GRN Tommy Wakely                      Precinct 4100                                          01 
00060050001000000000000000000000000000000000000000000000000000000000000000000000000000000000000000000          US Representative, Dist 21                              OVER VOTES                            Precinct 1010                                          01 
00060050002000000000000000000000000000000000000000000000000000000000000000000000000000000000000000000          US Representative, Dist 21                              OVER VOTES                            Precinct 1110                                          01 
00060050003000000000000000000000000000000000000000000000000000000000000000000000000000000000000000000          US Representative, Dist 21                              OVER VOTES                            Precinct 2020                                          01 
00060050004000000000000000000000000000000000000000000000000000000000000000000000000000000000000000000          US Representative, Dist 21                              OVER VOTES                            Precinct 2080                                          01 
00060050005000000000000000000000000000000000000000000000000000000000000000000000000000000000000000000          US Representative, Dist 21                              OVER VOTES                            Precinct 2120                                          01 
00060050006000000000000000000000000000000000000000000000000000000000000000000000000000000000000000000          US Representative, Dist 21                              OVER VOTES                            Precinct 3030                                          01 
00060050007000000000000000000000000000000000000000000000000000000000000000000000000000000000000000000          US Representative, Dist 21                              OVER VOTES                            Precinct 3040                                          01 
00060050008000000000000000000000000000000000000000000000000000000000000000000000000000000000000000000          US Representative, Dist 21                              OVER VOTES                            Precinct 3060                                          01 
00060050009000000000000000000000000000000000000000000000000000000000000000000000000000000000000000000          US Representative, Dist 21                              OVER VOTES                            Precinct 4050                                          01 
00060050010000000000000000000000000000000000000000000000000000000000000000000000000000000000000000000          US Representative, Dist 21                              OVER VOTES                            Precinct 4070                                          01 
00060050011000000000000000000000000000000000000000000000000000000000000000000000000000000000000000000          US Representative, Dist 21                              OVER VOTES                            Precinct 4100                                          01 
00060060001000022000007000013000002000000000000000000000000000000000000000000000000000000000000000000          US Representative, Dist 21                              UNDER VOTES                           Precinct 1010                                          01 
00060060002000044000012000030000002000000000000000000000000000000000000000000000000000000000000000000          US Representative, Dist 21                              UNDER VOTES                           Precinct 1110                                          01 
00060060003000011000001000009000001000000000000000000000000000000000000000000000000000000000000000000          US Representative, Dist 21                              UNDER VOTES                           Precinct 2020                                          01 
00060060004000024000000000019000005000000000000000000000000000000000000000000000000000000000000000000          US Representative, Dist 21                              UNDER VOTES                           Precinct 2080                                          01 
00060060005000035000007000026000002000000000000000000000000000000000000000000000000000000000000000000          US Representative, Dist 21                              UNDER VOTES                           Precinct 2120                                          01 
00060060006000011000002000008000001000000000000000000000000000000000000000000000000000000000000000000          US Representative, Dist 21                              UNDER VOTES                           Precinct 3030                                          01 
00060060007000025000004000019000002000000000000000000000000000000000000000000000000000000000000000000          US Representative, Dist 21                              UNDER VOTES                           Precinct 3040                                          01 
00060060008000002000000000001000001000000000000000000000000000000000000000000000000000000000000000000          US Representative, Dist 21                              UNDER VOTES                           Precinct 3060                                          01 
00060060009000020000006000012000002000000000000000000000000000000000000000000000000000000000000000000          US Representative, Dist 21                              UNDER VOTES                           Precinct 4050                                          01 
00060060010000002000000000001000001000000000000000000000000000000000000000000000000000000000000000000          US Representative, Dist 21                              UNDER VOTES                           Precinct 4070                                          01 
00060060011000036000008000023000005000000000000000000000000000000000000000000000000000000000000000000          US Representative, Dist 21                              UNDER VOTES                           Precinct 4100                                          01 
00070010001001438000127001217000094000000000000000000000000000000000000000000000000000000000000000000REP       Railroad Commissioner                                   REP James "Jim" Wright                Precinct 1010                                          01 
00070010002002953000311002435000207000000000000000000000000000000000000000000000000000000000000000000REP       Railroad Commissioner                                   REP James "Jim" Wright                Precinct 1110                                          01 
00070010003001647000098001377000172000000000000000000000000000000000000000000000000000000000000000000REP       Railroad Commissioner                                   REP James "Jim" Wright                Precinct 2020                                          01 
00070010004002720000128002412000180000000000000000000000000000000000000000000000000000000000000000000REP       Railroad Commissioner                                   REP James "Jim" Wright                Precinct 2080                                          01 
00070010005003035000153002623000259000000000000000000000000000000000000000000000000000000000000000000REP       Railroad Commissioner                                   REP James "Jim" Wright                Precinct 2120                                          01 
00070010006001687000102001227000358000000000000000000000000000000000000000000000000000000000000000000REP       Railroad Commissioner                                   REP James "Jim" Wright                Precinct 3030                                          01 
00070010007002265000133001947000185000000000000000000000000000000000000000000000000000000000000000000REP       Railroad Commissioner                                   REP James "Jim" Wright                Precinct 3040                                          01 
00070010008000426000029000283000114000000000000000000000000000000000000000000000000000000000000000000REP       Railroad Commissioner                                   REP James "Jim" Wright                Precinct 3060                                          01 
00070010009001622000127001037000458000000000000000000000000000000000000000000000000000000000000000000REP       Railroad Commissioner                                   REP James "Jim" Wright                Precinct 4050                                          01 
00070010010000253000010000164000079000000000000000000000000000000000000000000000000000000000000000000REP       Railroad Commissioner                                   REP James "Jim" Wright                Precinct 4070                                          01 
00070010011002161000140001803000218000000000000000000000000000000000000000000000000000000000000000000REP       Railroad Commissioner                                   REP James "Jim" Wright                Precinct 4100                                          01 
00070020001000549000107000414000028000000000000000000000000000000000000000000000000000000000000000000DEM       Railroad Commissioner                                   DEM Chrysta Castaneda                 Precinct 1010                                          01 
00070020002000764000179000550000035000000000000000000000000000000000000000000000000000000000000000000DEM       Railroad Commissioner                                   DEM Chrysta Castaneda                 Precinct 1110                                          01 
00070020003000291000071000206000014000000000000000000000000000000000000000000000000000000000000000000DEM       Railroad Commissioner                                   DEM Chrysta Castaneda                 Precinct 2020                                          01 
00070020004000706000129000541000036000000000000000000000000000000000000000000000000000000000000000000DEM       Railroad Commissioner                                   DEM Chrysta Castaneda                 Precinct 2080                                          01 
00070020005000821000127000654000040000000000000000000000000000000000000000000000000000000000000000000DEM       Railroad Commissioner                                   DEM Chrysta Castaneda                 Precinct 2120                                          01 
00070020006000363000076000246000041000000000000000000000000000000000000000000000000000000000000000000DEM       Railroad Commissioner                                   DEM Chrysta Castaneda                 Precinct 3030                                          01 
00070020007000624000114000470000040000000000000000000000000000000000000000000000000000000000000000000DEM       Railroad Commissioner                                   DEM Chrysta Castaneda                 Precinct 3040                                          01 
00070020008000073000017000040000016000000000000000000000000000000000000000000000000000000000000000000DEM       Railroad Commissioner                                   DEM Chrysta Castaneda                 Precinct 3060                                          01 
00070020009000522000121000287000114000000000000000000000000000000000000000000000000000000000000000000DEM       Railroad Commissioner                                   DEM Chrysta Castaneda                 Precinct 4050                                          01 
00070020010000040000012000018000010000000000000000000000000000000000000000000000000000000000000000000DEM       Railroad Commissioner                                   DEM Chrysta Castaneda                 Precinct 4070                                          01 
00070020011000534000132000372000030000000000000000000000000000000000000000000000000000000000000000000DEM       Railroad Commissioner                                   DEM Chrysta Castaneda                 Precinct 4100                                          01 
00070030001000043000004000027000012000000000000000000000000000000000000000000000000000000000000000000LIB       Railroad Commissioner                                   LIB Matt Sterett                      Precinct 1010                                          01 
00070030002000069000003000057000009000000000000000000000000000000000000000000000000000000000000000000LIB       Railroad Commissioner                                   LIB Matt Sterett                      Precinct 1110                                          01 
00070030003000023000002000017000004000000000000000000000000000000000000000000000000000000000000000000LIB       Railroad Commissioner                                   LIB Matt Sterett                      Precinct 2020                                          01 
00070030004000072000001000057000014000000000000000000000000000000000000000000000000000000000000000000LIB       Railroad Commissioner                                   LIB Matt Sterett                      Precinct 2080                                          01 
00070030005000085000002000077000006000000000000000000000000000000000000000000000000000000000000000000LIB       Railroad Commissioner                                   LIB Matt Sterett                      Precinct 2120                                          01 
00070030006000056000005000033000018000000000000000000000000000000000000000000000000000000000000000000LIB       Railroad Commissioner                                   LIB Matt Sterett                      Precinct 3030                                          01 
00070030007000062000006000045000011000000000000000000000000000000000000000000000000000000000000000000LIB       Railroad Commissioner                                   LIB Matt Sterett                      Precinct 3040                                          01 
00070030008000004000000000003000001000000000000000000000000000000000000000000000000000000000000000000LIB       Railroad Commissioner                                   LIB Matt Sterett                      Precinct 3060                                          01 
00070030009000041000002000025000014000000000000000000000000000000000000000000000000000000000000000000LIB       Railroad Commissioner                                   LIB Matt Sterett                      Precinct 4050                                          01 
00070030010000004000001000001000002000000000000000000000000000000000000000000000000000000000000000000LIB       Railroad Commissioner                                   LIB Matt Sterett                      Precinct 4070                                          01 
00070030011000054000004000045000005000000000000000000000000000000000000000000000000000000000000000000LIB       Railroad Commissioner                                   LIB Matt Sterett                      Precinct 4100                                          01 
00070040001000016000000000011000005000000000000000000000000000000000000000000000000000000000000000000GRN       Railroad Commissioner                                   GRN Katija "Kat" Gruene               Precinct 1010                                          01 
00070040002000038000005000026000007000000000000000000000000000000000000000000000000000000000000000000GRN       Railroad Commissioner                                   GRN Katija "Kat" Gruene               Precinct 1110                                          01 
00070040003000007000001000006000000000000000000000000000000000000000000000000000000000000000000000000GRN       Railroad Commissioner                                   GRN Katija "Kat" Gruene               Precinct 2020                                          01 
00070040004000025000002000018000005000000000000000000000000000000000000000000000000000000000000000000GRN       Railroad Commissioner                                   GRN Katija "Kat" Gruene               Precinct 2080                                          01 
00070040005000031000002000023000006000000000000000000000000000000000000000000000000000000000000000000GRN       Railroad Commissioner                                   GRN Katija "Kat" Gruene               Precinct 2120                                          01 
00070040006000017000001000011000005000000000000000000000000000000000000000000000000000000000000000000GRN       Railroad Commissioner                                   GRN Katija "Kat" Gruene               Precinct 3030                                          01 
00070040007000030000003000025000002000000000000000000000000000000000000000000000000000000000000000000GRN       Railroad Commissioner                                   GRN Katija "Kat" Gruene               Precinct 3040                                          01 
00070040008000001000000000001000000000000000000000000000000000000000000000000000000000000000000000000GRN       Railroad Commissioner                                   GRN Katija "Kat" Gruene               Precinct 3060                                          01 
00070040009000020000002000012000006000000000000000000000000000000000000000000000000000000000000000000GRN       Railroad Commissioner                                   GRN Katija "Kat" Gruene               Precinct 4050                                          01 
00070040010000003000001000002000000000000000000000000000000000000000000000000000000000000000000000000GRN       Railroad Commissioner                                   GRN Katija "Kat" Gruene               Precinct 4070                                          01 
00070040011000018000001000012000005000000000000000000000000000000000000000000000000000000000000000000GRN       Railroad Commissioner                                   GRN Katija "Kat" Gruene               Precinct 4100                                          01 
00070050001000000000000000000000000000000000000000000000000000000000000000000000000000000000000000000          Railroad Commissioner                                   OVER VOTES                            Precinct 1010                                          01 
00070050002000000000000000000000000000000000000000000000000000000000000000000000000000000000000000000          Railroad Commissioner                                   OVER VOTES                            Precinct 1110                                          01 
00070050003000000000000000000000000000000000000000000000000000000000000000000000000000000000000000000          Railroad Commissioner                                   OVER VOTES                            Precinct 2020                                          01 
00070050004000000000000000000000000000000000000000000000000000000000000000000000000000000000000000000          Railroad Commissioner                                   OVER VOTES                            Precinct 2080                                          01 
00070050005000000000000000000000000000000000000000000000000000000000000000000000000000000000000000000          Railroad Commissioner                                   OVER VOTES                            Precinct 2120                                          01 
00070050006000000000000000000000000000000000000000000000000000000000000000000000000000000000000000000          Railroad Commissioner                                   OVER VOTES                            Precinct 3030                                          01 
00070050007000000000000000000000000000000000000000000000000000000000000000000000000000000000000000000          Railroad Commissioner                                   OVER VOTES                            Precinct 3040                                          01 
00070050008000000000000000000000000000000000000000000000000000000000000000000000000000000000000000000          Railroad Commissioner                                   OVER VOTES                            Precinct 3060                                          01 
00070050009000000000000000000000000000000000000000000000000000000000000000000000000000000000000000000          Railroad Commissioner                                   OVER VOTES                            Precinct 4050                                          01 
00070050010000000000000000000000000000000000000000000000000000000000000000000000000000000000000000000          Railroad Commissioner                                   OVER VOTES                            Precinct 4070                                          01 
00070050011000000000000000000000000000000000000000000000000000000000000000000000000000000000000000000          Railroad Commissioner                                   OVER VOTES                            Precinct 4100                                          01 
00070060001000040000018000017000005000000000000000000000000000000000000000000000000000000000000000000          Railroad Commissioner                                   UNDER VOTES                           Precinct 1010                                          01 
00070060002000070000019000043000008000000000000000000000000000000000000000000000000000000000000000000          Railroad Commissioner                                   UNDER VOTES                           Precinct 1110                                          01 
00070060003000021000003000015000003000000000000000000000000000000000000000000000000000000000000000000          Railroad Commissioner                                   UNDER VOTES                           Precinct 2020                                          01 
00070060004000049000008000030000011000000000000000000000000000000000000000000000000000000000000000000          Railroad Commissioner                                   UNDER VOTES                           Precinct 2080                                          01 
00070060005000048000014000030000004000000000000000000000000000000000000000000000000000000000000000000          Railroad Commissioner                                   UNDER VOTES                           Precinct 2120                                          01 
00070060006000020000002000012000006000000000000000000000000000000000000000000000000000000000000000000          Railroad Commissioner                                   UNDER VOTES                           Precinct 3030                                          01 
00070060007000037000008000025000004000000000000000000000000000000000000000000000000000000000000000000          Railroad Commissioner                                   UNDER VOTES                           Precinct 3040                                          01 
00070060008000007000003000002000002000000000000000000000000000000000000000000000000000000000000000000          Railroad Commissioner                                   UNDER VOTES                           Precinct 3060                                          01 
00070060009000024000010000010000004000000000000000000000000000000000000000000000000000000000000000000          Railroad Commissioner                                   UNDER VOTES                           Precinct 4050                                          01 
00070060010000001000000000000000001000000000000000000000000000000000000000000000000000000000000000000          Railroad Commissioner                                   UNDER VOTES                           Precinct 4070                                          01 
00070060011000046000015000026000005000000000000000000000000000000000000000000000000000000000000000000          Railroad Commissioner                                   UNDER VOTES                           Precinct 4100                                          01 
00080010001001454000130001229000095000000000000000000000000000000000000000000000000000000000000000000REP       Chief Justice, Supreme Court                            REP Nathan Hecht                      Precinct 1010                                          01 
00080010002002966000317002448000201000000000000000000000000000000000000000000000000000000000000000000REP       Chief Justice, Supreme Court                            REP Nathan Hecht                      Precinct 1110                                          01 
00080010003001661000102001386000173000000000000000000000000000000000000000000000000000000000000000000REP       Chief Justice, Supreme Court                            REP Nathan Hecht                      Precinct 2020                                          01 
00080010004002723000129002412000182000000000000000000000000000000000000000000000000000000000000000000REP       Chief Justice, Supreme Court                            REP Nathan Hecht                      Precinct 2080                                          01 
00080010005003019000151002609000259000000000000000000000000000000000000000000000000000000000000000000REP       Chief Justice, Supreme Court                            REP Nathan Hecht                      Precinct 2120                                          01 
00080010006001710000112001240000358000000000000000000000000000000000000000000000000000000000000000000REP       Chief Justice, Supreme Court                            REP Nathan Hecht                      Precinct 3030                                          01 
00080010007002278000137001957000184000000000000000000000000000000000000000000000000000000000000000000REP       Chief Justice, Supreme Court                            REP Nathan Hecht                      Precinct 3040                                          01 
00080010008000424000027000279000118000000000000000000000000000000000000000000000000000000000000000000REP       Chief Justice, Supreme Court                            REP Nathan Hecht                      Precinct 3060                                          01 
00080010009001636000125001055000456000000000000000000000000000000000000000000000000000000000000000000REP       Chief Justice, Supreme Court                            REP Nathan Hecht                      Precinct 4050                                          01 
00080010010000246000010000158000078000000000000000000000000000000000000000000000000000000000000000000REP       Chief Justice, Supreme Court                            REP Nathan Hecht                      Precinct 4070                                          01 
00080010011002170000148001806000216000000000000000000000000000000000000000000000000000000000000000000REP       Chief Justice, Supreme Court                            REP Nathan Hecht                      Precinct 4100                                          01 
00080020001000551000103000409000039000000000000000000000000000000000000000000000000000000000000000000DEM       Chief Justice, Supreme Court                            DEM Amy Clark Meachum                 Precinct 1010                                          01 
00080020002000788000179000563000046000000000000000000000000000000000000000000000000000000000000000000DEM       Chief Justice, Supreme Court                            DEM Amy Clark Meachum                 Precinct 1110                                          01 
00080020003000282000068000201000013000000000000000000000000000000000000000000000000000000000000000000DEM       Chief Justice, Supreme Court                            DEM Amy Clark Meachum                 Precinct 2020                                          01 
00080020004000728000126000562000040000000000000000000000000000000000000000000000000000000000000000000DEM       Chief Justice, Supreme Court                            DEM Amy Clark Meachum                 Precinct 2080                                          01 
00080020005000868000130000692000046000000000000000000000000000000000000000000000000000000000000000000DEM       Chief Justice, Supreme Court                            DEM Amy Clark Meachum                 Precinct 2120                                          01 
00080020006000354000067000244000043000000000000000000000000000000000000000000000000000000000000000000DEM       Chief Justice, Supreme Court                            DEM Amy Clark Meachum                 Precinct 3030                                          01 
00080020007000641000114000485000042000000000000000000000000000000000000000000000000000000000000000000DEM       Chief Justice, Supreme Court                            DEM Amy Clark Meachum                 Precinct 3040                                          01 
00080020008000079000019000046000014000000000000000000000000000000000000000000000000000000000000000000DEM       Chief Justice, Supreme Court                            DEM Amy Clark Meachum                 Precinct 3060                                          01 
00080020009000519000123000280000116000000000000000000000000000000000000000000000000000000000000000000DEM       Chief Justice, Supreme Court                            DEM Amy Clark Meachum                 Precinct 4050                                          01 
00080020010000047000013000023000011000000000000000000000000000000000000000000000000000000000000000000DEM       Chief Justice, Supreme Court                            DEM Amy Clark Meachum                 Precinct 4070                                          01 
00080020011000543000127000386000030000000000000000000000000000000000000000000000000000000000000000000DEM       Chief Justice, Supreme Court                            DEM Amy Clark Meachum                 Precinct 4100                                          01 
00080030001000042000006000029000007000000000000000000000000000000000000000000000000000000000000000000LIB       Chief Justice, Supreme Court                            LIB Mark Ash                          Precinct 1010                                          01 
00080030002000081000002000064000015000000000000000000000000000000000000000000000000000000000000000000LIB       Chief Justice, Supreme Court                            LIB Mark Ash                          Precinct 1110                                          01 
00080030003000026000002000020000004000000000000000000000000000000000000000000000000000000000000000000LIB       Chief Justice, Supreme Court                            LIB Mark Ash                          Precinct 2020                                          01 
00080030004000078000004000058000016000000000000000000000000000000000000000000000000000000000000000000LIB       Chief Justice, Supreme Court                            LIB Mark Ash                          Precinct 2080                                          01 
00080030005000084000003000074000007000000000000000000000000000000000000000000000000000000000000000000LIB       Chief Justice, Supreme Court                            LIB Mark Ash                          Precinct 2120                                          01 
00080030006000056000002000034000020000000000000000000000000000000000000000000000000000000000000000000LIB       Chief Justice, Supreme Court                            LIB Mark Ash                          Precinct 3030                                          01 
00080030007000059000001000046000012000000000000000000000000000000000000000000000000000000000000000000LIB       Chief Justice, Supreme Court                            LIB Mark Ash                          Precinct 3040                                          01 
00080030008000003000000000002000001000000000000000000000000000000000000000000000000000000000000000000LIB       Chief Justice, Supreme Court                            LIB Mark Ash                          Precinct 3060                                          01 
00080030009000043000002000024000017000000000000000000000000000000000000000000000000000000000000000000LIB       Chief Justice, Supreme Court                            LIB Mark Ash                          Precinct 4050                                          01 
00080030010000007000001000004000002000000000000000000000000000000000000000000000000000000000000000000LIB       Chief Justice, Supreme Court                            LIB Mark Ash                          Precinct 4070                                          01 
00080030011000056000002000042000012000000000000000000000000000000000000000000000000000000000000000000LIB       Chief Justice, Supreme Court                            LIB Mark Ash                          Precinct 4100                                          01 
00080040001000000000000000000000000000000000000000000000000000000000000000000000000000000000000000000          Chief Justice, Supreme Court                            OVER VOTES                            Precinct 1010                                          01 
00080040002000000000000000000000000000000000000000000000000000000000000000000000000000000000000000000          Chief Justice, Supreme Court                            OVER VOTES                            Precinct 1110                                          01 
00080040003000000000000000000000000000000000000000000000000000000000000000000000000000000000000000000          Chief Justice, Supreme Court                            OVER VOTES                            Precinct 2020                                          01 
00080040004000000000000000000000000000000000000000000000000000000000000000000000000000000000000000000          Chief Justice, Supreme Court                            OVER VOTES                            Precinct 2080                                          01 
00080040005000000000000000000000000000000000000000000000000000000000000000000000000000000000000000000          Chief Justice, Supreme Court                            OVER VOTES                            Precinct 2120                                          01 
00080040006000000000000000000000000000000000000000000000000000000000000000000000000000000000000000000          Chief Justice, Supreme Court                            OVER VOTES                            Precinct 3030                                          01 
00080040007000000000000000000000000000000000000000000000000000000000000000000000000000000000000000000          Chief Justice, Supreme Court                            OVER VOTES                            Precinct 3040                                          01 
00080040008000000000000000000000000000000000000000000000000000000000000000000000000000000000000000000          Chief Justice, Supreme Court                            OVER VOTES                            Precinct 3060                                          01 
00080040009000000000000000000000000000000000000000000000000000000000000000000000000000000000000000000          Chief Justice, Supreme Court                            OVER VOTES                            Precinct 4050                                          01 
00080040010000000000000000000000000000000000000000000000000000000000000000000000000000000000000000000          Chief Justice, Supreme Court                            OVER VOTES                            Precinct 4070                                          01 
00080040011000000000000000000000000000000000000000000000000000000000000000000000000000000000000000000          Chief Justice, Supreme Court                            OVER VOTES                            Precinct 4100                                          01 
00080050001000039000017000019000003000000000000000000000000000000000000000000000000000000000000000000          Chief Justice, Supreme Court                            UNDER VOTES                           Precinct 1010                                          01 
00080050002000059000019000036000004000000000000000000000000000000000000000000000000000000000000000000          Chief Justice, Supreme Court                            UNDER VOTES                           Precinct 1110                                          01 
00080050003000020000003000014000003000000000000000000000000000000000000000000000000000000000000000000          Chief Justice, Supreme Court                            UNDER VOTES                           Precinct 2020                                          01 
00080050004000043000009000026000008000000000000000000000000000000000000000000000000000000000000000000          Chief Justice, Supreme Court                            UNDER VOTES                           Precinct 2080                                          01 
00080050005000049000014000032000003000000000000000000000000000000000000000000000000000000000000000000          Chief Justice, Supreme Court                            UNDER VOTES                           Precinct 2120                                          01 
00080050006000023000005000011000007000000000000000000000000000000000000000000000000000000000000000000          Chief Justice, Supreme Court                            UNDER VOTES                           Precinct 3030                                          01 
00080050007000040000012000024000004000000000000000000000000000000000000000000000000000000000000000000          Chief Justice, Supreme Court                            UNDER VOTES                           Precinct 3040                                          01 
00080050008000005000003000002000000000000000000000000000000000000000000000000000000000000000000000000          Chief Justice, Supreme Court                            UNDER VOTES                           Precinct 3060                                          01 
00080050009000031000012000012000007000000000000000000000000000000000000000000000000000000000000000000          Chief Justice, Supreme Court                            UNDER VOTES                           Precinct 4050                                          01 
00080050010000001000000000000000001000000000000000000000000000000000000000000000000000000000000000000          Chief Justice, Supreme Court                            UNDER VOTES                           Precinct 4070                                          01 
00080050011000044000015000024000005000000000000000000000000000000000000000000000000000000000000000000          Chief Justice, Supreme Court                            UNDER VOTES                           Precinct 4100                                          01 
00090010001001491000136001250000105000000000000000000000000000000000000000000000000000000000000000000REP       Justice, Supreme Court, Pl 6                            REP Jane Bland                        Precinct 1010                                          01 
00090010002003060000320002525000215000000000000000000000000000000000000000000000000000000000000000000REP       Justice, Supreme Court, Pl 6                            REP Jane Bland                        Precinct 1110                                          01 
00090010003001689000102001415000172000000000000000000000000000000000000000000000000000000000000000000REP       Justice, Supreme Court, Pl 6                            REP Jane Bland                        Precinct 2020                                          01 
