01010010001002532000000000000000000000000000000          REGISTERED VOTERS - TOTAL                               REGISTERED VOTERS - TOTAL             PRECINCT 1A3B                                          00 
01010010002001771000000000000000000000000000000          REGISTERED VOTERS - TOTAL                               REGISTERED VOTERS - TOTAL             PRECINCT 1A5A                                          00 
01010010003000319000000000000000000000000000000          REGISTERED VOTERS - TOTAL                               REGISTERED VOTERS - TOTAL             PRECINCT 1C                                            00 
01010010004000816000000000000000000000000000000          REGISTERED VOTERS - TOTAL                               REGISTERED VOTERS - TOTAL             PRECINCT 1E                                            00 
01010010005001383000000000000000000000000000000          REGISTERED VOTERS - TOTAL                               REGISTERED VOTERS - TOTAL             PRECINCT 1F                                            00 
01010010006000592000000000000000000000000000000          REGISTERED VOTERS - TOTAL                               REGISTERED VOTERS - TOTAL             PRECINCT 1H                                            00 
01010010007000332000000000000000000000000000000          REGISTERED VOTERS - TOTAL                               REGISTERED VOTERS - TOTAL             PRECINCT 1I                                            00 
01010010008001293000000000000000000000000000000          REGISTERED VOTERS - TOTAL                               REGISTERED VOTERS - TOTAL             PRECINCT 2A1A                                          00 
01010010009003313000000000000000000000000000000          REGISTERED VOTERS - TOTAL                               REGISTERED VOTERS - TOTAL             PRECINCT 2C3A                                          00 
01010010010000674000000000000000000000000000000          REGISTERED VOTERS - TOTAL                               REGISTERED VOTERS - TOTAL             PRECINCT 2D                                            00 
01010010011000608000000000000000000000000000000          REGISTERED VOTERS - TOTAL                               REGISTERED VOTERS - TOTAL             PRECINCT 2E                                            00 
01010010012000236000000000000000000000000000000          REGISTERED VOTERS - TOTAL                               REGISTERED VOTERS - TOTAL             PRECINCT 2F                                            00 
01010010013000713000000000000000000000000000000          REGISTERED VOTERS - TOTAL                               REGISTERED VOTERS - TOTAL             PRECINCT 2G                                            00 
01010010014002971000000000000000000000000000000          REGISTERED VOTERS - TOTAL                               REGISTERED VOTERS - TOTAL             PRECINCT 3C7G                                          00 
01010010015000847000000000000000000000000000000          REGISTERED VOTERS - TOTAL                               REGISTERED VOTERS - TOTAL             PRECINCT 3D                                            00 
01010010016001219000000000000000000000000000000          REGISTERED VOTERS - TOTAL                               REGISTERED VOTERS - TOTAL             PRECINCT 3E                                            00 
01010010017000548000000000000000000000000000000          REGISTERED VOTERS - TOTAL                               REGISTERED VOTERS - TOTAL             PRECINCT 3F                                            00 
01010010018000566000000000000000000000000000000          REGISTERED VOTERS - TOTAL                               REGISTERED VOTERS - TOTAL             PRECINCT 3G                                            00 
01010010019000839000000000000000000000000000000          REGISTERED VOTERS - TOTAL                               REGISTERED VOTERS - TOTAL             PRECINCT 3H3C                                          00 
01010010020001323000000000000000000000000000000          REGISTERED VOTERS - TOTAL                               REGISTERED VOTERS - TOTAL             PRECINCT 3I                                            00 
01010010021001401000000000000000000000000000000          REGISTERED VOTERS - TOTAL                               REGISTERED VOTERS - TOTAL             PRECINCT 4A6E                                          00 
01010010022001818000000000000000000000000000000          REGISTERED VOTERS - TOTAL                               REGISTERED VOTERS - TOTAL             PRECINCT 4B                                            00 
01010010023001540000000000000000000000000000000          REGISTERED VOTERS - TOTAL                               REGISTERED VOTERS - TOTAL             PRECINCT 4D                                            00 
01010010024001074000000000000000000000000000000          REGISTERED VOTERS - TOTAL                               REGISTERED VOTERS - TOTAL             PRECINCT 4E                                            00 
01010010025001709000000000000000000000000000000          REGISTERED VOTERS - TOTAL                               REGISTERED VOTERS - TOTAL             PRECINCT 4F                                            00 
01010010026001855000000000000000000000000000000          REGISTERED VOTERS - TOTAL                               REGISTERED VOTERS - TOTAL             PRECINCT 4G                                            00 
01020010001001660001301000198000161000000000000          BALLOTS CAST - TOTAL                                    BALLOTS CAST - TOTAL                  PRECINCT 1A3B                                          00 
01020010002000844000666000112000066000000000000          BALLOTS CAST - TOTAL                                    BALLOTS CAST - TOTAL                  PRECINCT 1A5A                                          00 
01020010003000278000225000044000009000000000000          BALLOTS CAST - TOTAL                                    BALLOTS CAST - TOTAL                  PRECINCT 1C                                            00 
01020010004000566000352000183000031000000000000          BALLOTS CAST - TOTAL                                    BALLOTS CAST - TOTAL                  PRECINCT 1E                                            00 
01020010005000982000635000282000065000000000000          BALLOTS CAST - TOTAL                                    BALLOTS CAST - TOTAL                  PRECINCT 1F                                            00 
01020010006000465000309000138000018000000000000          BALLOTS CAST - TOTAL                                    BALLOTS CAST - TOTAL                  PRECINCT 1H                                            00 
01020010007000256000150000094000012000000000000          BALLOTS CAST - TOTAL                                    BALLOTS CAST - TOTAL                  PRECINCT 1I                                            00 
01020010008000629000464000101000064000000000000          BALLOTS CAST - TOTAL                                    BALLOTS CAST - TOTAL                  PRECINCT 2A1A                                          00 
01020010009001566001164000289000113000000000000          BALLOTS CAST - TOTAL                                    BALLOTS CAST - TOTAL                  PRECINCT 2C3A                                          00 
01020010010000458000219000209000030000000000000          BALLOTS CAST - TOTAL                                    BALLOTS CAST - TOTAL                  PRECINCT 2D                                            00 
01020010011000435000268000141000026000000000000          BALLOTS CAST - TOTAL                                    BALLOTS CAST - TOTAL                  PRECINCT 2E                                            00 
01020010012000157000065000087000005000000000000          BALLOTS CAST - TOTAL                                    BALLOTS CAST - TOTAL                  PRECINCT 2F                                            00 
01020010013000504000364000119000021000000000000          BALLOTS CAST - TOTAL                                    BALLOTS CAST - TOTAL                  PRECINCT 2G                                            00 
01020010014001902001463000272000167000000000000          BALLOTS CAST - TOTAL                                    BALLOTS CAST - TOTAL                  PRECINCT 3C7G                                          00 
01020010015000589000335000213000041000000000000          BALLOTS CAST - TOTAL                                    BALLOTS CAST - TOTAL                  PRECINCT 3D                                            00 
01020010016000922000609000262000051000000000000          BALLOTS CAST - TOTAL                                    BALLOTS CAST - TOTAL                  PRECINCT 3E                                            00 
01020010017000440000248000162000030000000000000          BALLOTS CAST - TOTAL                                    BALLOTS CAST - TOTAL                  PRECINCT 3F                                            00 
01020010018000423000272000126000025000000000000          BALLOTS CAST - TOTAL                                    BALLOTS CAST - TOTAL                  PRECINCT 3G                                            00 
01020010019000486000374000050000062000000000000          BALLOTS CAST - TOTAL                                    BALLOTS CAST - TOTAL                  PRECINCT 3H3C                                          00 
01020010020000964000740000158000066000000000000          BALLOTS CAST - TOTAL                                    BALLOTS CAST - TOTAL                  PRECINCT 3I                                            00 
01020010021001013000800000108000105000000000000          BALLOTS CAST - TOTAL                                    BALLOTS CAST - TOTAL                  PRECINCT 4A6E                                          00 
01020010022001058000610000381000067000000000000          BALLOTS CAST - TOTAL                                    BALLOTS CAST - TOTAL                  PRECINCT 4B                                            00 
01020010023001001000652000297000052000000000000          BALLOTS CAST - TOTAL                                    BALLOTS CAST - TOTAL                  PRECINCT 4D                                            00 
01020010024001090000837000217000036000000000000          BALLOTS CAST - TOTAL                                    BALLOTS CAST - TOTAL                  PRECINCT 4E                                            00 
01020010025001292000977000224000091000000000000          BALLOTS CAST - TOTAL                                    BALLOTS CAST - TOTAL                  PRECINCT 4F                                            00 
01020010026001430001135000204000091000000000000          BALLOTS CAST - TOTAL                                    BALLOTS CAST - TOTAL                  PRECINCT 4G                                            00 
01030010001001264001022000142000100000000000000REP       President / Vice-President                              Donald J. Trump / Michael R. P        PRECINCT 1A3B                                          01 
01030010002000486000388000069000029000000000000REP       President / Vice-President                              Donald J. Trump / Michael R. P        PRECINCT 1A5A                                          01 
01030010003000245000197000039000009000000000000REP       President / Vice-President                              Donald J. Trump / Michael R. P        PRECINCT 1C                                            01 
01030010004000485000312000160000013000000000000REP       President / Vice-President                              Donald J. Trump / Michael R. P        PRECINCT 1E                                            01 
01030010005000883000581000254000048000000000000REP       President / Vice-President                              Donald J. Trump / Michael R. P        PRECINCT 1F                                            01 
01030010006000422000278000128000016000000000000REP       President / Vice-President                              Donald J. Trump / Michael R. P        PRECINCT 1H                                            01 
01030010007000229000134000085000010000000000000REP       President / Vice-President                              Donald J. Trump / Michael R. P        PRECINCT 1I                                            01 
01030010008000200000157000032000011000000000000REP       President / Vice-President                              Donald J. Trump / Michael R. P        PRECINCT 2A1A                                          01 
01030010009000793000583000161000049000000000000REP       President / Vice-President                              Donald J. Trump / Michael R. P        PRECINCT 2C3A                                          01 
01030010010000370000188000171000011000000000000REP       President / Vice-President                              Donald J. Trump / Michael R. P        PRECINCT 2D                                            01 
01030010011000371000224000129000018000000000000REP       President / Vice-President                              Donald J. Trump / Michael R. P        PRECINCT 2E                                            01 
01030010012000139000055000083000001000000000000REP       President / Vice-President                              Donald J. Trump / Michael R. P        PRECINCT 2F                                            01 
01030010013000424000308000103000013000000000000REP       President / Vice-President                              Donald J. Trump / Michael R. P        PRECINCT 2G                                            01 
01030010014001271000979000188000104000000000000REP       President / Vice-President                              Donald J. Trump / Michael R. P        PRECINCT 3C7G                                          01 
01030010015000529000300000204000025000000000000REP       President / Vice-President                              Donald J. Trump / Michael R. P        PRECINCT 3D                                            01 
01030010016000845000568000242000035000000000000REP       President / Vice-President                              Donald J. Trump / Michael R. P        PRECINCT 3E                                            01 
01030010017000388000223000144000021000000000000REP       President / Vice-President                              Donald J. Trump / Michael R. P        PRECINCT 3F                                            01 
01030010018000360000235000109000016000000000000REP       President / Vice-President                              Donald J. Trump / Michael R. P        PRECINCT 3G                                            01 
01030010019000353000272000039000042000000000000REP       President / Vice-President                              Donald J. Trump / Michael R. P        PRECINCT 3H3C                                          01 
01030010020000834000657000134000043000000000000REP       President / Vice-President                              Donald J. Trump / Michael R. P        PRECINCT 3I                                            01 
01030010021000709000568000073000068000000000000REP       President / Vice-President                              Donald J. Trump / Michael R. P        PRECINCT 4A6E                                          01 
01030010022000909000529000341000039000000000000REP       President / Vice-President                              Donald J. Trump / Michael R. P        PRECINCT 4B                                            01 
01030010023000928000605000278000045000000000000REP       President / Vice-President                              Donald J. Trump / Michael R. P        PRECINCT 4D                                            01 
01030010024000958000746000184000028000000000000REP       President / Vice-President                              Donald J. Trump / Michael R. P        PRECINCT 4E                                            01 
01030010025001098000863000188000047000000000000REP       President / Vice-President                              Donald J. Trump / Michael R. P        PRECINCT 4F                                            01 
01030010026001205000968000177000060000000000000REP       President / Vice-President                              Donald J. Trump / Michael R. P        PRECINCT 4G                                            01 
01030020001000374000262000051000061000000000000DEM       President / Vice-President                              Joseph R. Biden / Kamala D. Ha        PRECINCT 1A3B                                          01 
01030020002000346000270000041000035000000000000DEM       President / Vice-President                              Joseph R. Biden / Kamala D. Ha        PRECINCT 1A5A                                          01 
01030020003000029000025000004000000000000000000DEM       President / Vice-President                              Joseph R. Biden / Kamala D. Ha        PRECINCT 1C                                            01 
01030020004000072000036000019000017000000000000DEM       President / Vice-President                              Joseph R. Biden / Kamala D. Ha        PRECINCT 1E                                            01 
01030020005000086000047000022000017000000000000DEM       President / Vice-President                              Joseph R. Biden / Kamala D. Ha        PRECINCT 1F                                            01 
01030020006000042000031000009000002000000000000DEM       President / Vice-President                              Joseph R. Biden / Kamala D. Ha        PRECINCT 1H                                            01 
01030020007000024000016000006000002000000000000DEM       President / Vice-President                              Joseph R. Biden / Kamala D. Ha        PRECINCT 1I                                            01 
01030020008000420000303000064000053000000000000DEM       President / Vice-President                              Joseph R. Biden / Kamala D. Ha        PRECINCT 2A1A                                          01 
01030020009000745000562000120000063000000000000DEM       President / Vice-President                              Joseph R. Biden / Kamala D. Ha        PRECINCT 2C3A                                          01 
01030020010000082000029000034000019000000000000DEM       President / Vice-President                              Joseph R. Biden / Kamala D. Ha        PRECINCT 2D                                            01 
01030020011000058000038000012000008000000000000DEM       President / Vice-President                              Joseph R. Biden / Kamala D. Ha        PRECINCT 2E                                            01 
01030020012000018000010000004000004000000000000DEM       President / Vice-President                              Joseph R. Biden / Kamala D. Ha        PRECINCT 2F                                            01 
01030020013000076000054000014000008000000000000DEM       President / Vice-President                              Joseph R. Biden / Kamala D. Ha        PRECINCT 2G                                            01 
01030020014000594000458000076000060000000000000DEM       President / Vice-President                              Joseph R. Biden / Kamala D. Ha        PRECINCT 3C7G                                          01 
01030020015000058000034000008000016000000000000DEM       President / Vice-President                              Joseph R. Biden / Kamala D. Ha        PRECINCT 3D                                            01 
01030020016000071000038000017000016000000000000DEM       President / Vice-President                              Joseph R. Biden / Kamala D. Ha        PRECINCT 3E                                            01 
01030020017000049000023000017000009000000000000DEM       President / Vice-President                              Joseph R. Biden / Kamala D. Ha        PRECINCT 3F                                            01 
01030020018000051000032000011000008000000000000DEM       President / Vice-President                              Joseph R. Biden / Kamala D. Ha        PRECINCT 3G                                            01 
01030020019000133000102000011000020000000000000DEM       President / Vice-President                              Joseph R. Biden / Kamala D. Ha        PRECINCT 3H3C                                          01 
01030020020000116000072000021000023000000000000DEM       President / Vice-President                              Joseph R. Biden / Kamala D. Ha        PRECINCT 3I                                            01 
01030020021000283000218000030000035000000000000DEM       President / Vice-President                              Joseph R. Biden / Kamala D. Ha        PRECINCT 4A6E                                          01 
01030020022000129000072000030000027000000000000DEM       President / Vice-President                              Joseph R. Biden / Kamala D. Ha        PRECINCT 4B                                            01 
01030020023000066000043000016000007000000000000DEM       President / Vice-President                              Joseph R. Biden / Kamala D. Ha        PRECINCT 4D                                            01 
01030020024000118000083000028000007000000000000DEM       President / Vice-President                              Joseph R. Biden / Kamala D. Ha        PRECINCT 4E                                            01 
01030020025000177000105000031000041000000000000DEM       President / Vice-President                              Joseph R. Biden / Kamala D. Ha        PRECINCT 4F                                            01 
01030020026000203000148000025000030000000000000DEM       President / Vice-President                              Joseph R. Biden / Kamala D. Ha        PRECINCT 4G                                            01 
01030030001000014000010000004000000000000000000LIB       President / Vice-President                              Jo Jorgensen / Jeremy "Spike"         PRECINCT 1A3B                                          01 
01030030002000003000003000000000000000000000000LIB       President / Vice-President                              Jo Jorgensen / Jeremy "Spike"         PRECINCT 1A5A                                          01 
01030030003000001000001000000000000000000000000LIB       President / Vice-President                              Jo Jorgensen / Jeremy "Spike"         PRECINCT 1C                                            01 
01030030004000006000004000002000000000000000000LIB       President / Vice-President                              Jo Jorgensen / Jeremy "Spike"         PRECINCT 1E                                            01 
01030030005000006000003000003000000000000000000LIB       President / Vice-President                              Jo Jorgensen / Jeremy "Spike"         PRECINCT 1F                                            01 
01030030006000001000000000001000000000000000000LIB       President / Vice-President                              Jo Jorgensen / Jeremy "Spike"         PRECINCT 1H                                            01 
01030030007000002000000000002000000000000000000LIB       President / Vice-President                              Jo Jorgensen / Jeremy "Spike"         PRECINCT 1I                                            01 
01030030008000006000002000004000000000000000000LIB       President / Vice-President                              Jo Jorgensen / Jeremy "Spike"         PRECINCT 2A1A                                          01 
01030030009000017000011000006000000000000000000LIB       President / Vice-President                              Jo Jorgensen / Jeremy "Spike"         PRECINCT 2C3A                                          01 
01030030010000002000001000001000000000000000000LIB       President / Vice-President                              Jo Jorgensen / Jeremy "Spike"         PRECINCT 2D                                            01 
01030030011000005000005000000000000000000000000LIB       President / Vice-President                              Jo Jorgensen / Jeremy "Spike"         PRECINCT 2E                                            01 
01030030012000000000000000000000000000000000000LIB       President / Vice-President                              Jo Jorgensen / Jeremy "Spike"         PRECINCT 2F                                            01 
01030030013000003000002000001000000000000000000LIB       President / Vice-President                              Jo Jorgensen / Jeremy "Spike"         PRECINCT 2G                                            01 
01030030014000026000018000006000002000000000000LIB       President / Vice-President                              Jo Jorgensen / Jeremy "Spike"         PRECINCT 3C7G                                          01 
01030030015000002000001000001000000000000000000LIB       President / Vice-President                              Jo Jorgensen / Jeremy "Spike"         PRECINCT 3D                                            01 
01030030016000006000003000003000000000000000000LIB       President / Vice-President                              Jo Jorgensen / Jeremy "Spike"         PRECINCT 3E                                            01 
01030030017000003000002000001000000000000000000LIB       President / Vice-President                              Jo Jorgensen / Jeremy "Spike"         PRECINCT 3F                                            01 
01030030018000006000003000002000001000000000000LIB       President / Vice-President                              Jo Jorgensen / Jeremy "Spike"         PRECINCT 3G                                            01 
01030030019000000000000000000000000000000000000LIB       President / Vice-President                              Jo Jorgensen / Jeremy "Spike"         PRECINCT 3H3C                                          01 
01030030020000008000007000001000000000000000000LIB       President / Vice-President                              Jo Jorgensen / Jeremy "Spike"         PRECINCT 3I                                            01 
01030030021000005000003000002000000000000000000LIB       President / Vice-President                              Jo Jorgensen / Jeremy "Spike"         PRECINCT 4A6E                                          01 
01030030022000012000003000008000001000000000000LIB       President / Vice-President                              Jo Jorgensen / Jeremy "Spike"         PRECINCT 4B                                            01 
01030030023000007000004000003000000000000000000LIB       President / Vice-President                              Jo Jorgensen / Jeremy "Spike"         PRECINCT 4D                                            01 
01030030024000010000006000003000001000000000000LIB       President / Vice-President                              Jo Jorgensen / Jeremy "Spike"         PRECINCT 4E                                            01 
01030030025000007000005000001000001000000000000LIB       President / Vice-President                              Jo Jorgensen / Jeremy "Spike"         PRECINCT 4F                                            01 
01030030026000011000011000000000000000000000000LIB       President / Vice-President                              Jo Jorgensen / Jeremy "Spike"         PRECINCT 4G                                            01 
01030040001000001000001000000000000000000000000GRN       President / Vice-President                              Howie Hawkins / Angela Walker         PRECINCT 1A3B                                          01 
01030040002000004000003000001000000000000000000GRN       President / Vice-President                              Howie Hawkins / Angela Walker         PRECINCT 1A5A                                          01 
01030040003000000000000000000000000000000000000GRN       President / Vice-President                              Howie Hawkins / Angela Walker         PRECINCT 1C                                            01 
01030040004000001000000000001000000000000000000GRN       President / Vice-President                              Howie Hawkins / Angela Walker         PRECINCT 1E                                            01 
01030040005000000000000000000000000000000000000GRN       President / Vice-President                              Howie Hawkins / Angela Walker         PRECINCT 1F                                            01 
01030040006000000000000000000000000000000000000GRN       President / Vice-President                              Howie Hawkins / Angela Walker         PRECINCT 1H                                            01 
01030040007000000000000000000000000000000000000GRN       President / Vice-President                              Howie Hawkins / Angela Walker         PRECINCT 1I                                            01 
01030040008000001000001000000000000000000000000GRN       President / Vice-President                              Howie Hawkins / Angela Walker         PRECINCT 2A1A                                          01 
01030040009000004000002000002000000000000000000GRN       President / Vice-President                              Howie Hawkins / Angela Walker         PRECINCT 2C3A                                          01 
01030040010000001000000000001000000000000000000GRN       President / Vice-President                              Howie Hawkins / Angela Walker         PRECINCT 2D                                            01 
01030040011000000000000000000000000000000000000GRN       President / Vice-President                              Howie Hawkins / Angela Walker         PRECINCT 2E                                            01 
01030040012000000000000000000000000000000000000GRN       President / Vice-President                              Howie Hawkins / Angela Walker         PRECINCT 2F                                            01 
01030040013000001000000000001000000000000000000GRN       President / Vice-President                              Howie Hawkins / Angela Walker         PRECINCT 2G                                            01 
01030040014000002000001000001000000000000000000GRN       President / Vice-President                              Howie Hawkins / Angela Walker         PRECINCT 3C7G                                          01 
01030040015000000000000000000000000000000000000GRN       President / Vice-President                              Howie Hawkins / Angela Walker         PRECINCT 3D                                            01 
01030040016000000000000000000000000000000000000GRN       President / Vice-President                              Howie Hawkins / Angela Walker         PRECINCT 3E                                            01 
01030040017000000000000000000000000000000000000GRN       President / Vice-President                              Howie Hawkins / Angela Walker         PRECINCT 3F                                            01 
01030040018000000000000000000000000000000000000GRN       President / Vice-President                              Howie Hawkins / Angela Walker         PRECINCT 3G                                            01 
01030040019000000000000000000000000000000000000GRN       President / Vice-President                              Howie Hawkins / Angela Walker         PRECINCT 3H3C                                          01 
01030040020000004000002000002000000000000000000GRN       President / Vice-President                              Howie Hawkins / Angela Walker         PRECINCT 3I                                            01 
01030040021000002000002000000000000000000000000GRN       President / Vice-President                              Howie Hawkins / Angela Walker         PRECINCT 4A6E                                          01 
01030040022000001000001000000000000000000000000GRN       President / Vice-President                              Howie Hawkins / Angela Walker         PRECINCT 4B                                            01 
01030040023000000000000000000000000000000000000GRN       President / Vice-President                              Howie Hawkins / Angela Walker         PRECINCT 4D                                            01 
01030040024000000000000000000000000000000000000GRN       President / Vice-President                              Howie Hawkins / Angela Walker         PRECINCT 4E                                            01 
01030040025000004000002000002000000000000000000GRN       President / Vice-President                              Howie Hawkins / Angela Walker         PRECINCT 4F                                            01 
01030040026000001000000000001000000000000000000GRN       President / Vice-President                              Howie Hawkins / Angela Walker         PRECINCT 4G                                            01 
01030050001000000000000000000000000000000000000NON       President / Vice-President                              WRITE-IN                              PRECINCT 1A3B                                          01 
01030050002000002000001000000000001000000000000NON       President / Vice-President                              WRITE-IN                              PRECINCT 1A5A                                          01 
01030050003000002000002000000000000000000000000NON       President / Vice-President                              WRITE-IN                              PRECINCT 1C                                            01 
01030050004000000000000000000000000000000000000NON       President / Vice-President                              WRITE-IN                              PRECINCT 1E                                            01 
01030050005000001000001000000000000000000000000NON       President / Vice-President                              WRITE-IN                              PRECINCT 1F                                            01 
01030050006000000000000000000000000000000000000NON       President / Vice-President                              WRITE-IN                              PRECINCT 1H                                            01 
01030050007000000000000000000000000000000000000NON       President / Vice-President                              WRITE-IN                              PRECINCT 1I                                            01 
01030050008000000000000000000000000000000000000NON       President / Vice-President                              WRITE-IN                              PRECINCT 2A1A                                          01 
01030050009000001000001000000000000000000000000NON       President / Vice-President                              WRITE-IN                              PRECINCT 2C3A                                          01 
01030050010000000000000000000000000000000000000NON       President / Vice-President                              WRITE-IN                              PRECINCT 2D                                            01 
01030050011000001000001000000000000000000000000NON       President / Vice-President                              WRITE-IN                              PRECINCT 2E                                            01 
01030050012000000000000000000000000000000000000NON       President / Vice-President                              WRITE-IN                              PRECINCT 2F                                            01 
01030050013000000000000000000000000000000000000NON       President / Vice-President                              WRITE-IN                              PRECINCT 2G                                            01 
01030050014000004000004000000000000000000000000NON       President / Vice-President                              WRITE-IN                              PRECINCT 3C7G                                          01 
01030050015000000000000000000000000000000000000NON       President / Vice-President                              WRITE-IN                              PRECINCT 3D                                            01 
01030050016000000000000000000000000000000000000NON       President / Vice-President                              WRITE-IN                              PRECINCT 3E                                            01 
01030050017000000000000000000000000000000000000NON       President / Vice-President                              WRITE-IN                              PRECINCT 3F                                            01 
01030050018000001000000000001000000000000000000NON       President / Vice-President                              WRITE-IN                              PRECINCT 3G                                            01 
01030050019000000000000000000000000000000000000NON       President / Vice-President                              WRITE-IN                              PRECINCT 3H3C                                          01 
01030050020000001000001000000000000000000000000NON       President / Vice-President                              WRITE-IN                              PRECINCT 3I                                            01 
01030050021000007000003000002000002000000000000NON       President / Vice-President                              WRITE-IN                              PRECINCT 4A6E                                          01 
01030050022000002000002000000000000000000000000NON       President / Vice-President                              WRITE-IN                              PRECINCT 4B                                            01 
01030050023000000000000000000000000000000000000NON       President / Vice-President                              WRITE-IN                              PRECINCT 4D                                            01 
01030050024000000000000000000000000000000000000NON       President / Vice-President                              WRITE-IN                              PRECINCT 4E                                            01 
01030050025000001000001000000000000000000000000NON       President / Vice-President                              WRITE-IN                              PRECINCT 4F                                            01 
01030050026000001000001000000000000000000000000NON       President / Vice-President                              WRITE-IN                              PRECINCT 4G                                            01 
01030060001000000000000000000000000000000000000          President / Vice-President                              OVER VOTES                            PRECINCT 1A3B                                          01 
01030060002000001000000000000000001000000000000          President / Vice-President                              OVER VOTES                            PRECINCT 1A5A                                          01 
01030060003000000000000000000000000000000000000          President / Vice-President                              OVER VOTES                            PRECINCT 1C                                            01 
01030060004000001000000000000000001000000000000          President / Vice-President                              OVER VOTES                            PRECINCT 1E                                            01 
01030060005000000000000000000000000000000000000          President / Vice-President                              OVER VOTES                            PRECINCT 1F                                            01 
01030060006000000000000000000000000000000000000          President / Vice-President                              OVER VOTES                            PRECINCT 1H                                            01 
01030060007000000000000000000000000000000000000          President / Vice-President                              OVER VOTES                            PRECINCT 1I                                            01 
01030060008000000000000000000000000000000000000          President / Vice-President                              OVER VOTES                            PRECINCT 2A1A                                          01 
01030060009000000000000000000000000000000000000          President / Vice-President                              OVER VOTES                            PRECINCT 2C3A                                          01 
01030060010000000000000000000000000000000000000          President / Vice-President                              OVER VOTES                            PRECINCT 2D                                            01 
01030060011000000000000000000000000000000000000          President / Vice-President                              OVER VOTES                            PRECINCT 2E                                            01 
01030060012000000000000000000000000000000000000          President / Vice-President                              OVER VOTES                            PRECINCT 2F                                            01 
01030060013000000000000000000000000000000000000          President / Vice-President                              OVER VOTES                            PRECINCT 2G                                            01 
01030060014000001000000000000000001000000000000          President / Vice-President                              OVER VOTES                            PRECINCT 3C7G                                          01 
01030060015000000000000000000000000000000000000          President / Vice-President                              OVER VOTES                            PRECINCT 3D                                            01 
01030060016000000000000000000000000000000000000          President / Vice-President                              OVER VOTES                            PRECINCT 3E                                            01 
01030060017000000000000000000000000000000000000          President / Vice-President                              OVER VOTES                            PRECINCT 3F                                            01 
01030060018000000000000000000000000000000000000          President / Vice-President                              OVER VOTES                            PRECINCT 3G                                            01 
01030060019000000000000000000000000000000000000          President / Vice-President                              OVER VOTES                            PRECINCT 3H3C                                          01 
01030060020000000000000000000000000000000000000          President / Vice-President                              OVER VOTES                            PRECINCT 3I                                            01 
01030060021000000000000000000000000000000000000          President / Vice-President                              OVER VOTES                            PRECINCT 4A6E                                          01 
01030060022000000000000000000000000000000000000          President / Vice-President                              OVER VOTES                            PRECINCT 4B                                            01 
01030060023000000000000000000000000000000000000          President / Vice-President                              OVER VOTES                            PRECINCT 4D                                            01 
01030060024000000000000000000000000000000000000          President / Vice-President                              OVER VOTES                            PRECINCT 4E                                            01 
01030060025000000000000000000000000000000000000          President / Vice-President                              OVER VOTES                            PRECINCT 4F                                            01 
01030060026000000000000000000000000000000000000          President / Vice-President                              OVER VOTES                            PRECINCT 4G                                            01 
01030070001000007000006000001000000000000000000          President / Vice-President                              UNDER VOTES                           PRECINCT 1A3B                                          01 
01030070002000002000001000001000000000000000000          President / Vice-President                              UNDER VOTES                           PRECINCT 1A5A                                          01 
01030070003000001000000000001000000000000000000          President / Vice-President                              UNDER VOTES                           PRECINCT 1C                                            01 
01030070004000001000000000001000000000000000000          President / Vice-President                              UNDER VOTES                           PRECINCT 1E                                            01 
01030070005000006000003000003000000000000000000          President / Vice-President                              UNDER VOTES                           PRECINCT 1F                                            01 
01030070006000000000000000000000000000000000000          President / Vice-President                              UNDER VOTES                           PRECINCT 1H                                            01 
01030070007000001000000000001000000000000000000          President / Vice-President                              UNDER VOTES                           PRECINCT 1I                                            01 
01030070008000002000001000001000000000000000000          President / Vice-President                              UNDER VOTES                           PRECINCT 2A1A                                          01 
01030070009000006000005000000000001000000000000          President / Vice-President                              UNDER VOTES                           PRECINCT 2C3A                                          01 
01030070010000003000001000002000000000000000000          President / Vice-President                              UNDER VOTES                           PRECINCT 2D                                            01 
01030070011000000000000000000000000000000000000          President / Vice-President                              UNDER VOTES                           PRECINCT 2E                                            01 
01030070012000000000000000000000000000000000000          President / Vice-President                              UNDER VOTES                           PRECINCT 2F                                            01 
01030070013000000000000000000000000000000000000          President / Vice-President                              UNDER VOTES                           PRECINCT 2G                                            01 
01030070014000004000003000001000000000000000000          President / Vice-President                              UNDER VOTES                           PRECINCT 3C7G                                          01 
01030070015000000000000000000000000000000000000          President / Vice-President                              UNDER VOTES                           PRECINCT 3D                                            01 
01030070016000000000000000000000000000000000000          President / Vice-President                              UNDER VOTES                           PRECINCT 3E                                            01 
01030070017000000000000000000000000000000000000          President / Vice-President                              UNDER VOTES                           PRECINCT 3F                                            01 
01030070018000005000002000003000000000000000000          President / Vice-President                              UNDER VOTES                           PRECINCT 3G                                            01 
01030070019000000000000000000000000000000000000          President / Vice-President                              UNDER VOTES                           PRECINCT 3H3C                                          01 
01030070020000001000001000000000000000000000000          President / Vice-President                              UNDER VOTES                           PRECINCT 3I                                            01 
01030070021000007000006000001000000000000000000          President / Vice-President                              UNDER VOTES                           PRECINCT 4A6E                                          01 
01030070022000005000003000002000000000000000000          President / Vice-President                              UNDER VOTES                           PRECINCT 4B                                            01 
01030070023000000000000000000000000000000000000          President / Vice-President                              UNDER VOTES                           PRECINCT 4D                                            01 
01030070024000004000002000002000000000000000000          President / Vice-President                              UNDER VOTES                           PRECINCT 4E                                            01 
01030070025000005000001000002000002000000000000          President / Vice-President                              UNDER VOTES                           PRECINCT 4F                                            01 
01030070026000009000007000001000001000000000000          President / Vice-President                              UNDER VOTES                           PRECINCT 4G                                            01 
01040010001001262001022000140000100000000000000REP       United States Senator                                   John Cornyn                           PRECINCT 1A3B                                          01 
01040010002000479000381000066000032000000000000REP       United States Senator                                   John Cornyn                           PRECINCT 1A5A                                          01 
01040010003000243000195000039000009000000000000REP       United States Senator                                   John Cornyn                           PRECINCT 1C                                            01 
01040010004000476000308000154000014000000000000REP       United States Senator                                   John Cornyn                           PRECINCT 1E                                            01 
01040010005000864000567000248000049000000000000REP       United States Senator                                   John Cornyn                           PRECINCT 1F                                            01 
01040010006000413000272000124000017000000000000REP       United States Senator                                   John Cornyn                           PRECINCT 1H                                            01 
01040010007000220000124000086000010000000000000REP       United States Senator                                   John Cornyn                           PRECINCT 1I                                            01 
01040010008000196000152000030000014000000000000REP       United States Senator                                   John Cornyn                           PRECINCT 2A1A                                          01 
01040010009000755000556000153000046000000000000REP       United States Senator                                   John Cornyn                           PRECINCT 2C3A                                          01 
01040010010000359000182000165000012000000000000REP       United States Senator                                   John Cornyn                           PRECINCT 2D                                            01 
01040010011000362000220000127000015000000000000REP       United States Senator                                   John Cornyn                           PRECINCT 2E                                            01 
01040010012000135000054000080000001000000000000REP       United States Senator                                   John Cornyn                           PRECINCT 2F                                            01 
01040010013000396000291000093000012000000000000REP       United States Senator                                   John Cornyn                           PRECINCT 2G                                            01 
01040010014001260000970000184000106000000000000REP       United States Senator                                   John Cornyn                           PRECINCT 3C7G                                          01 
01040010015000527000301000200000026000000000000REP       United States Senator                                   John Cornyn                           PRECINCT 3D                                            01 
01040010016000837000562000238000037000000000000REP       United States Senator                                   John Cornyn                           PRECINCT 3E                                            01 
01040010017000387000223000143000021000000000000REP       United States Senator                                   John Cornyn                           PRECINCT 3F                                            01 
01040010018000354000237000100000017000000000000REP       United States Senator                                   John Cornyn                           PRECINCT 3G                                            01 
01040010019000344000264000040000040000000000000REP       United States Senator                                   John Cornyn                           PRECINCT 3H3C                                          01 
01040010020000816000635000136000045000000000000REP       United States Senator                                   John Cornyn                           PRECINCT 3I                                            01 
01040010021000717000575000074000068000000000000REP       United States Senator                                   John Cornyn                           PRECINCT 4A6E                                          01 
01040010022000896000518000339000039000000000000REP       United States Senator                                   John Cornyn                           PRECINCT 4B                                            01 
01040010023000897000584000269000044000000000000REP       United States Senator                                   John Cornyn                           PRECINCT 4D                                            01 
01040010024000935000725000183000027000000000000REP       United States Senator                                   John Cornyn                           PRECINCT 4E                                            01 
01040010025001076000841000185000050000000000000REP       United States Senator                                   John Cornyn                           PRECINCT 4F                                            01 
01040010026001211000978000173000060000000000000REP       United States Senator                                   John Cornyn                           PRECINCT 4G                                            01 
01040020001000345000245000043000057000000000000DEM       United States Senator                                   Mary "MJ" Hegar                       PRECINCT 1A3B                                          01 
01040020002000326000257000037000032000000000000DEM       United States Senator                                   Mary "MJ" Hegar                       PRECINCT 1A5A                                          01 
01040020003000028000023000005000000000000000000DEM       United States Senator                                   Mary "MJ" Hegar                       PRECINCT 1C                                            01 
01040020004000071000035000019000017000000000000DEM       United States Senator                                   Mary "MJ" Hegar                       PRECINCT 1E                                            01 
01040020005000088000048000025000015000000000000DEM       United States Senator                                   Mary "MJ" Hegar                       PRECINCT 1F                                            01 
01040020006000039000027000011000001000000000000DEM       United States Senator                                   Mary "MJ" Hegar                       PRECINCT 1H                                            01 
01040020007000020000016000002000002000000000000DEM       United States Senator                                   Mary "MJ" Hegar                       PRECINCT 1I                                            01 
01040020008000414000300000064000050000000000000DEM       United States Senator                                   Mary "MJ" Hegar                       PRECINCT 2A1A                                          01 
01040020009000742000563000116000063000000000000DEM       United States Senator                                   Mary "MJ" Hegar                       PRECINCT 2C3A                                          01 
01040020010000081000030000034000017000000000000DEM       United States Senator                                   Mary "MJ" Hegar                       PRECINCT 2D                                            01 
01040020011000058000038000012000008000000000000DEM       United States Senator                                   Mary "MJ" Hegar                       PRECINCT 2E                                            01 
01040020012000018000010000004000004000000000000DEM       United States Senator                                   Mary "MJ" Hegar                       PRECINCT 2F                                            01 
01040020013000087000058000021000008000000000000DEM       United States Senator                                   Mary "MJ" Hegar                       PRECINCT 2G                                            01 
01040020014000576000452000069000055000000000000DEM       United States Senator                                   Mary "MJ" Hegar                       PRECINCT 3C7G                                          01 
01040020015000057000032000010000015000000000000DEM       United States Senator                                   Mary "MJ" Hegar                       PRECINCT 3D                                            01 
01040020016000058000033000013000012000000000000DEM       United States Senator                                   Mary "MJ" Hegar                       PRECINCT 3E                                            01 
01040020017000046000022000015000009000000000000DEM       United States Senator                                   Mary "MJ" Hegar                       PRECINCT 3F                                            01 
01040020018000050000027000016000007000000000000DEM       United States Senator                                   Mary "MJ" Hegar                       PRECINCT 3G                                            01 
01040020019000128000100000010000018000000000000DEM       United States Senator                                   Mary "MJ" Hegar                       PRECINCT 3H3C                                          01 
01040020020000114000074000021000019000000000000DEM       United States Senator                                   Mary "MJ" Hegar                       PRECINCT 3I                                            01 
01040020021000265000202000031000032000000000000DEM       United States Senator                                   Mary "MJ" Hegar                       PRECINCT 4A6E                                          01 
01040020022000127000071000030000026000000000000DEM       United States Senator                                   Mary "MJ" Hegar                       PRECINCT 4B                                            01 
01040020023000069000046000016000007000000000000DEM       United States Senator                                   Mary "MJ" Hegar                       PRECINCT 4D                                            01 
01040020024000118000083000027000008000000000000DEM       United States Senator                                   Mary "MJ" Hegar                       PRECINCT 4E                                            01 
01040020025000164000096000029000039000000000000DEM       United States Senator                                   Mary "MJ" Hegar                       PRECINCT 4F                                            01 
01040020026000175000124000023000028000000000000DEM       United States Senator                                   Mary "MJ" Hegar                       PRECINCT 4G                                            01 
01040030001000024000014000010000000000000000000LIB       United States Senator                                   Kerry Douglas McKennon                PRECINCT 1A3B                                          01 
01040030002000013000011000002000000000000000000LIB       United States Senator                                   Kerry Douglas McKennon                PRECINCT 1A5A                                          01 
01040030003000001000001000000000000000000000000LIB       United States Senator                                   Kerry Douglas McKennon                PRECINCT 1C                                            01 
01040030004000009000005000004000000000000000000LIB       United States Senator                                   Kerry Douglas McKennon                PRECINCT 1E                                            01 
01040030005000010000008000002000000000000000000LIB       United States Senator                                   Kerry Douglas McKennon                PRECINCT 1F                                            01 
01040030006000010000007000003000000000000000000LIB       United States Senator                                   Kerry Douglas McKennon                PRECINCT 1H                                            01 
01040030007000004000004000000000000000000000000LIB       United States Senator                                   Kerry Douglas McKennon                PRECINCT 1I                                            01 
01040030008000005000001000004000000000000000000LIB       United States Senator                                   Kerry Douglas McKennon                PRECINCT 2A1A                                          01 
01040030009000029000021000008000000000000000000LIB       United States Senator                                   Kerry Douglas McKennon                PRECINCT 2C3A                                          01 
01040030010000003000000000003000000000000000000LIB       United States Senator                                   Kerry Douglas McKennon                PRECINCT 2D                                            01 
01040030011000006000005000000000001000000000000LIB       United States Senator                                   Kerry Douglas McKennon                PRECINCT 2E                                            01 
01040030012000000000000000000000000000000000000LIB       United States Senator                                   Kerry Douglas McKennon                PRECINCT 2F                                            01 
01040030013000008000004000003000001000000000000LIB       United States Senator                                   Kerry Douglas McKennon                PRECINCT 2G                                            01 
01040030014000020000014000005000001000000000000LIB       United States Senator                                   Kerry Douglas McKennon                PRECINCT 3C7G                                          01 
01040030015000001000000000001000000000000000000LIB       United States Senator                                   Kerry Douglas McKennon                PRECINCT 3D                                            01 
01040030016000012000006000006000000000000000000LIB       United States Senator                                   Kerry Douglas McKennon                PRECINCT 3E                                            01 
01040030017000003000001000002000000000000000000LIB       United States Senator                                   Kerry Douglas McKennon                PRECINCT 3F                                            01 
01040030018000005000003000002000000000000000000LIB       United States Senator                                   Kerry Douglas McKennon                PRECINCT 3G                                            01 
01040030019000005000004000000000001000000000000LIB       United States Senator                                   Kerry Douglas McKennon                PRECINCT 3H3C                                          01 
01040030020000015000014000001000000000000000000LIB       United States Senator                                   Kerry Douglas McKennon                PRECINCT 3I                                            01 
01040030021000009000004000003000002000000000000LIB       United States Senator                                   Kerry Douglas McKennon                PRECINCT 4A6E                                          01 
01040030022000017000009000007000001000000000000LIB       United States Senator                                   Kerry Douglas McKennon                PRECINCT 4B                                            01 
01040030023000014000009000004000001000000000000LIB       United States Senator                                   Kerry Douglas McKennon                PRECINCT 4D                                            01 
01040030024000015000011000003000001000000000000LIB       United States Senator                                   Kerry Douglas McKennon                PRECINCT 4E                                            01 
01040030025000025000022000003000000000000000000LIB       United States Senator                                   Kerry Douglas McKennon                PRECINCT 4F                                            01 
01040030026000013000011000001000001000000000000LIB       United States Senator                                   Kerry Douglas McKennon                PRECINCT 4G                                            01 
01040040001000002000001000001000000000000000000GRN       United States Senator                                   David B. Collins                      PRECINCT 1A3B                                          01 
01040040002000007000005000001000001000000000000GRN       United States Senator                                   David B. Collins                      PRECINCT 1A5A                                          01 
01040040003000002000002000000000000000000000000GRN       United States Senator                                   David B. Collins                      PRECINCT 1C                                            01 
01040040004000003000000000003000000000000000000GRN       United States Senator                                   David B. Collins                      PRECINCT 1E                                            01 
01040040005000002000000000002000000000000000000GRN       United States Senator                                   David B. Collins                      PRECINCT 1F                                            01 
01040040006000001000001000000000000000000000000GRN       United States Senator                                   David B. Collins                      PRECINCT 1H                                            01 
01040040007000000000000000000000000000000000000GRN       United States Senator                                   David B. Collins                      PRECINCT 1I                                            01 
01040040008000004000003000001000000000000000000GRN       United States Senator                                   David B. Collins                      PRECINCT 2A1A                                          01 
01040040009000018000012000006000000000000000000GRN       United States Senator                                   David B. Collins                      PRECINCT 2C3A                                          01 
01040040010000003000002000001000000000000000000GRN       United States Senator                                   David B. Collins                      PRECINCT 2D                                            01 
01040040011000001000000000000000001000000000000GRN       United States Senator                                   David B. Collins                      PRECINCT 2E                                            01 
01040040012000002000001000001000000000000000000GRN       United States Senator                                   David B. Collins                      PRECINCT 2F                                            01 
01040040013000001000001000000000000000000000000GRN       United States Senator                                   David B. Collins                      PRECINCT 2G                                            01 
01040040014000016000009000005000002000000000000GRN       United States Senator                                   David B. Collins                      PRECINCT 3C7G                                          01 
01040040015000001000000000001000000000000000000GRN       United States Senator                                   David B. Collins                      PRECINCT 3D                                            01 
01040040016000004000001000001000002000000000000GRN       United States Senator                                   David B. Collins                      PRECINCT 3E                                            01 
01040040017000000000000000000000000000000000000GRN       United States Senator                                   David B. Collins                      PRECINCT 3F                                            01 
01040040018000001000001000000000000000000000000GRN       United States Senator                                   David B. Collins                      PRECINCT 3G                                            01 
01040040019000001000001000000000000000000000000GRN       United States Senator                                   David B. Collins                      PRECINCT 3H3C                                          01 
01040040020000003000003000000000000000000000000GRN       United States Senator                                   David B. Collins                      PRECINCT 3I                                            01 
01040040021000005000005000000000000000000000000GRN       United States Senator                                   David B. Collins                      PRECINCT 4A6E                                          01 
01040040022000002000002000000000000000000000000GRN       United States Senator                                   David B. Collins                      PRECINCT 4B                                            01 
01040040023000006000003000003000000000000000000GRN       United States Senator                                   David B. Collins                      PRECINCT 4D                                            01 
01040040024000002000002000000000000000000000000GRN       United States Senator                                   David B. Collins                      PRECINCT 4E                                            01 
01040040025000009000006000003000000000000000000GRN       United States Senator                                   David B. Collins                      PRECINCT 4F                                            01 
01040040026000003000002000001000000000000000000GRN       United States Senator                                   David B. Collins                      PRECINCT 4G                                            01 
01040050001000000000000000000000000000000000000NON       United States Senator                                   WRITE-IN                              PRECINCT 1A3B                                          01 
01040050002000000000000000000000000000000000000NON       United States Senator                                   WRITE-IN                              PRECINCT 1A5A                                          01 
01040050003000000000000000000000000000000000000NON       United States Senator                                   WRITE-IN                              PRECINCT 1C                                            01 
01040050004000000000000000000000000000000000000NON       United States Senator                                   WRITE-IN                              PRECINCT 1E                                            01 
01040050005000002000001000001000000000000000000NON       United States Senator                                   WRITE-IN                              PRECINCT 1F                                            01 
01040050006000000000000000000000000000000000000NON       United States Senator                                   WRITE-IN                              PRECINCT 1H                                            01 
01040050007000000000000000000000000000000000000NON       United States Senator                                   WRITE-IN                              PRECINCT 1I                                            01 
01040050008000000000000000000000000000000000000NON       United States Senator                                   WRITE-IN                              PRECINCT 2A1A                                          01 
01040050009000003000002000001000000000000000000NON       United States Senator                                   WRITE-IN                              PRECINCT 2C3A                                          01 
01040050010000000000000000000000000000000000000NON       United States Senator                                   WRITE-IN                              PRECINCT 2D                                            01 
01040050011000002000001000001000000000000000000NON       United States Senator                                   WRITE-IN                              PRECINCT 2E                                            01 
01040050012000000000000000000000000000000000000NON       United States Senator                                   WRITE-IN                              PRECINCT 2F                                            01 
01040050013000001000001000000000000000000000000NON       United States Senator                                   WRITE-IN                              PRECINCT 2G                                            01 
01040050014000000000000000000000000000000000000NON       United States Senator                                   WRITE-IN                              PRECINCT 3C7G                                          01 
01040050015000000000000000000000000000000000000NON       United States Senator                                   WRITE-IN                              PRECINCT 3D                                            01 
01040050016000000000000000000000000000000000000NON       United States Senator                                   WRITE-IN                              PRECINCT 3E                                            01 
01040050017000000000000000000000000000000000000NON       United States Senator                                   WRITE-IN                              PRECINCT 3F                                            01 
01040050018000000000000000000000000000000000000NON       United States Senator                                   WRITE-IN                              PRECINCT 3G                                            01 
01040050019000001000000000000000001000000000000NON       United States Senator                                   WRITE-IN                              PRECINCT 3H3C                                          01 
01040050020000000000000000000000000000000000000NON       United States Senator                                   WRITE-IN                              PRECINCT 3I                                            01 
01040050021000002000002000000000000000000000000NON       United States Senator                                   WRITE-IN                              PRECINCT 4A6E                                          01 
01040050022000001000001000000000000000000000000NON       United States Senator                                   WRITE-IN                              PRECINCT 4B                                            01 
01040050023000000000000000000000000000000000000NON       United States Senator                                   WRITE-IN                              PRECINCT 4D                                            01 
01040050024000000000000000000000000000000000000NON       United States Senator                                   WRITE-IN                              PRECINCT 4E                                            01 
01040050025000002000002000000000000000000000000NON       United States Senator                                   WRITE-IN                              PRECINCT 4F                                            01 
01040050026000000000000000000000000000000000000NON       United States Senator                                   WRITE-IN                              PRECINCT 4G                                            01 
01040060001000000000000000000000000000000000000          United States Senator                                   OVER VOTES                            PRECINCT 1A3B                                          01 
01040060002000002000001000000000001000000000000          United States Senator                                   OVER VOTES                            PRECINCT 1A5A                                          01 
01040060003000000000000000000000000000000000000          United States Senator                                   OVER VOTES                            PRECINCT 1C                                            01 
01040060004000000000000000000000000000000000000          United States Senator                                   OVER VOTES                            PRECINCT 1E                                            01 
01040060005000000000000000000000000000000000000          United States Senator                                   OVER VOTES                            PRECINCT 1F                                            01 
01040060006000000000000000000000000000000000000          United States Senator                                   OVER VOTES                            PRECINCT 1H                                            01 
01040060007000000000000000000000000000000000000          United States Senator                                   OVER VOTES                            PRECINCT 1I                                            01 
01040060008000001000001000000000000000000000000          United States Senator                                   OVER VOTES                            PRECINCT 2A1A                                          01 
01040060009000000000000000000000000000000000000          United States Senator                                   OVER VOTES                            PRECINCT 2C3A                                          01 
01040060010000000000000000000000000000000000000          United States Senator                                   OVER VOTES                            PRECINCT 2D                                            01 
01040060011000002000002000000000000000000000000          United States Senator                                   OVER VOTES                            PRECINCT 2E                                            01 
01040060012000000000000000000000000000000000000          United States Senator                                   OVER VOTES                            PRECINCT 2F                                            01 
01040060013000000000000000000000000000000000000          United States Senator                                   OVER VOTES                            PRECINCT 2G                                            01 
01040060014000002000002000000000000000000000000          United States Senator                                   OVER VOTES                            PRECINCT 3C7G                                          01 
01040060015000000000000000000000000000000000000          United States Senator                                   OVER VOTES                            PRECINCT 3D                                            01 
01040060016000000000000000000000000000000000000          United States Senator                                   OVER VOTES                            PRECINCT 3E                                            01 
01040060017000000000000000000000000000000000000          United States Senator                                   OVER VOTES                            PRECINCT 3F                                            01 
01040060018000000000000000000000000000000000000          United States Senator                                   OVER VOTES                            PRECINCT 3G                                            01 
01040060019000000000000000000000000000000000000          United States Senator                                   OVER VOTES                            PRECINCT 3H3C                                          01 
01040060020000002000002000000000000000000000000          United States Senator                                   OVER VOTES                            PRECINCT 3I                                            01 
01040060021000002000002000000000000000000000000          United States Senator                                   OVER VOTES                            PRECINCT 4A6E                                          01 
01040060022000000000000000000000000000000000000          United States Senator                                   OVER VOTES                            PRECINCT 4B                                            01 
01040060023000000000000000000000000000000000000          United States Senator                                   OVER VOTES                            PRECINCT 4D                                            01 
01040060024000002000002000000000000000000000000          United States Senator                                   OVER VOTES                            PRECINCT 4E                                            01 
01040060025000000000000000000000000000000000000          United States Senator                                   OVER VOTES                            PRECINCT 4F                                            01 
01040060026000000000000000000000000000000000000          United States Senator                                   OVER VOTES                            PRECINCT 4G                                            01 
01040070001000027000019000004000004000000000000          United States Senator                                   UNDER VOTES                           PRECINCT 1A3B                                          01 
01040070002000017000011000006000000000000000000          United States Senator                                   UNDER VOTES                           PRECINCT 1A5A                                          01 
01040070003000004000004000000000000000000000000          United States Senator                                   UNDER VOTES                           PRECINCT 1C                                            01 
01040070004000007000004000003000000000000000000          United States Senator                                   UNDER VOTES                           PRECINCT 1E                                            01 
01040070005000016000011000004000001000000000000          United States Senator                                   UNDER VOTES                           PRECINCT 1F                                            01 
01040070006000002000002000000000000000000000000          United States Senator                                   UNDER VOTES                           PRECINCT 1H                                            01 
01040070007000012000006000006000000000000000000          United States Senator                                   UNDER VOTES                           PRECINCT 1I                                            01 
01040070008000009000007000002000000000000000000          United States Senator                                   UNDER VOTES                           PRECINCT 2A1A                                          01 
01040070009000019000010000005000004000000000000          United States Senator                                   UNDER VOTES                           PRECINCT 2C3A                                          01 
01040070010000012000005000006000001000000000000          United States Senator                                   UNDER VOTES                           PRECINCT 2D                                            01 
01040070011000004000002000001000001000000000000          United States Senator                                   UNDER VOTES                           PRECINCT 2E                                            01 
01040070012000002000000000002000000000000000000          United States Senator                                   UNDER VOTES                           PRECINCT 2F                                            01 
01040070013000011000009000002000000000000000000          United States Senator                                   UNDER VOTES                           PRECINCT 2G                                            01 
01040070014000028000016000009000003000000000000          United States Senator                                   UNDER VOTES                           PRECINCT 3C7G                                          01 
01040070015000003000002000001000000000000000000          United States Senator                                   UNDER VOTES                           PRECINCT 3D                                            01 
01040070016000011000007000004000000000000000000          United States Senator                                   UNDER VOTES                           PRECINCT 3E                                            01 
01040070017000004000002000002000000000000000000          United States Senator                                   UNDER VOTES                           PRECINCT 3F                                            01 
01040070018000013000004000008000001000000000000          United States Senator                                   UNDER VOTES                           PRECINCT 3G                                            01 
01040070019000007000005000000000002000000000000          United States Senator                                   UNDER VOTES                           PRECINCT 3H3C                                          01 
01040070020000014000012000000000002000000000000          United States Senator                                   UNDER VOTES                           PRECINCT 3I                                            01 
01040070021000013000010000000000003000000000000          United States Senator                                   UNDER VOTES                           PRECINCT 4A6E                                          01 
01040070022000015000009000005000001000000000000          United States Senator                                   UNDER VOTES                           PRECINCT 4B                                            01 
01040070023000015000010000005000000000000000000          United States Senator                                   UNDER VOTES                           PRECINCT 4D                                            01 
01040070024000018000014000004000000000000000000          United States Senator                                   UNDER VOTES                           PRECINCT 4E                                            01 
01040070025000016000010000004000002000000000000          United States Senator                                   UNDER VOTES                           PRECINCT 4F                                            01 
01040070026000028000020000006000002000000000000          United States Senator                                   UNDER VOTES                           PRECINCT 4G                                            01 
01050010001001214000980000134000100000000000000REP       United States Representative, District 4                Pat Fallon                            PRECINCT 1A3B                                          01 
01050010002000472000377000066000029000000000000REP       United States Representative, District 4                Pat Fallon                            PRECINCT 1A5A                                          01 
01050010003000236000190000037000009000000000000REP       United States Representative, District 4                Pat Fallon                            PRECINCT 1C                                            01 
01050010004000465000297000156000012000000000000REP       United States Representative, District 4                Pat Fallon                            PRECINCT 1E                                            01 
01050010005000832000537000247000048000000000000REP       United States Representative, District 4                Pat Fallon                            PRECINCT 1F                                            01 
01050010006000410000272000122000016000000000000REP       United States Representative, District 4                Pat Fallon                            PRECINCT 1H                                            01 
01050010007000222000130000082000010000000000000REP       United States Representative, District 4                Pat Fallon                            PRECINCT 1I                                            01 
01050010008000196000151000034000011000000000000REP       United States Representative, District 4                Pat Fallon                            PRECINCT 2A1A                                          01 
01050010009000755000554000155000046000000000000REP       United States Representative, District 4                Pat Fallon                            PRECINCT 2C3A                                          01 
01050010010000349000175000162000012000000000000REP       United States Representative, District 4                Pat Fallon                            PRECINCT 2D                                            01 
01050010011000345000205000124000016000000000000REP       United States Representative, District 4                Pat Fallon                            PRECINCT 2E                                            01 
01050010012000136000054000081000001000000000000REP       United States Representative, District 4                Pat Fallon                            PRECINCT 2F                                            01 
01050010013000399000285000101000013000000000000REP       United States Representative, District 4                Pat Fallon                            PRECINCT 2G                                            01 
01050010014001219000940000178000101000000000000REP       United States Representative, District 4                Pat Fallon                            PRECINCT 3C7G                                          01 
01050010015000516000293000196000027000000000000REP       United States Representative, District 4                Pat Fallon                            PRECINCT 3D                                            01 
01050010016000801000528000238000035000000000000REP       United States Representative, District 4                Pat Fallon                            PRECINCT 3E                                            01 
01050010017000377000214000142000021000000000000REP       United States Representative, District 4                Pat Fallon                            PRECINCT 3F                                            01 
01050010018000341000222000103000016000000000000REP       United States Representative, District 4                Pat Fallon                            PRECINCT 3G                                            01 
01050010019000337000258000038000041000000000000REP       United States Representative, District 4                Pat Fallon                            PRECINCT 3H3C                                          01 
01050010020000798000618000135000045000000000000REP       United States Representative, District 4                Pat Fallon                            PRECINCT 3I                                            01 
01050010021000703000561000075000067000000000000REP       United States Representative, District 4                Pat Fallon                            PRECINCT 4A6E                                          01 
01050010022000883000516000331000036000000000000REP       United States Representative, District 4                Pat Fallon                            PRECINCT 4B                                            01 
01050010023000883000570000271000042000000000000REP       United States Representative, District 4                Pat Fallon                            PRECINCT 4D                                            01 
01050010024000911000705000181000025000000000000REP       United States Representative, District 4                Pat Fallon                            PRECINCT 4E                                            01 
01050010025001055000819000188000048000000000000REP       United States Representative, District 4                Pat Fallon                            PRECINCT 4F                                            01 
01050010026001165000933000171000061000000000000REP       United States Representative, District 4                Pat Fallon                            PRECINCT 4G                                            01 
01050020001000333000234000047000052000000000000DEM       United States Representative, District 4                Russell Foster                        PRECINCT 1A3B                                          01 
01050020002000324000254000033000037000000000000DEM       United States Representative, District 4                Russell Foster                        PRECINCT 1A5A                                          01 
01050020003000027000024000003000000000000000000DEM       United States Representative, District 4                Russell Foster                        PRECINCT 1C                                            01 
01050020004000074000037000019000018000000000000DEM       United States Representative, District 4                Russell Foster                        PRECINCT 1E                                            01 
01050020005000075000041000020000014000000000000DEM       United States Representative, District 4                Russell Foster                        PRECINCT 1F                                            01 
01050020006000037000024000011000002000000000000DEM       United States Representative, District 4                Russell Foster                        PRECINCT 1H                                            01 
01050020007000016000009000005000002000000000000DEM       United States Representative, District 4                Russell Foster                        PRECINCT 1I                                            01 
01050020008000407000292000062000053000000000000DEM       United States Representative, District 4                Russell Foster                        PRECINCT 2A1A                                          01 
01050020009000722000542000117000063000000000000DEM       United States Representative, District 4                Russell Foster                        PRECINCT 2C3A                                          01 
01050020010000083000031000035000017000000000000DEM       United States Representative, District 4                Russell Foster                        PRECINCT 2D                                            01 
01050020011000059000039000012000008000000000000DEM       United States Representative, District 4                Russell Foster                        PRECINCT 2E                                            01 
01050020012000017000010000003000004000000000000DEM       United States Representative, District 4                Russell Foster                        PRECINCT 2F                                            01 
01050020013000072000052000013000007000000000000DEM       United States Representative, District 4                Russell Foster                        PRECINCT 2G                                            01 
01050020014000562000429000073000060000000000000DEM       United States Representative, District 4                Russell Foster                        PRECINCT 3C7G                                          01 
01050020015000057000032000011000014000000000000DEM       United States Representative, District 4                Russell Foster                        PRECINCT 3D                                            01 
01050020016000065000035000015000015000000000000DEM       United States Representative, District 4                Russell Foster                        PRECINCT 3E                                            01 
01050020017000047000024000015000008000000000000DEM       United States Representative, District 4                Russell Foster                        PRECINCT 3F                                            01 
01050020018000049000028000013000008000000000000DEM       United States Representative, District 4                Russell Foster                        PRECINCT 3G                                            01 
01050020019000127000098000010000019000000000000DEM       United States Representative, District 4                Russell Foster                        PRECINCT 3H3C                                          01 
01050020020000099000061000021000017000000000000DEM       United States Representative, District 4                Russell Foster                        PRECINCT 3I                                            01 
01050020021000260000200000028000032000000000000DEM       United States Representative, District 4                Russell Foster                        PRECINCT 4A6E                                          01 
01050020022000128000070000031000027000000000000DEM       United States Representative, District 4                Russell Foster                        PRECINCT 4B                                            01 
01050020023000061000039000016000006000000000000DEM       United States Representative, District 4                Russell Foster                        PRECINCT 4D                                            01 
01050020024000113000079000026000008000000000000DEM       United States Representative, District 4                Russell Foster                        PRECINCT 4E                                            01 
01050020025000163000097000029000037000000000000DEM       United States Representative, District 4                Russell Foster                        PRECINCT 4F                                            01 
01050020026000172000123000022000027000000000000DEM       United States Representative, District 4                Russell Foster                        PRECINCT 4G                                            01 
01050030001000027000015000010000002000000000000LIB       United States Representative, District 4                Lou Antonelli                         PRECINCT 1A3B                                          01 
01050030002000018000011000007000000000000000000LIB       United States Representative, District 4                Lou Antonelli                         PRECINCT 1A5A                                          01 
01050030003000003000002000001000000000000000000LIB       United States Representative, District 4                Lou Antonelli                         PRECINCT 1C                                            01 
01050030004000011000007000004000000000000000000LIB       United States Representative, District 4                Lou Antonelli                         PRECINCT 1E                                            01 
01050030005000009000006000003000000000000000000LIB       United States Representative, District 4                Lou Antonelli                         PRECINCT 1F                                            01 
