00010010001001889000000000000000000000000000000000000000000000000000000000000000000000000000000000000          REGISTERED VOTERS - TOTAL                               REGISTERED VOTERS - TOTAL             Precinct 101                                           00 
00010010002000304000000000000000000000000000000000000000000000000000000000000000000000000000000000000          REGISTERED VOTERS - TOTAL                               REGISTERED VOTERS - TOTAL             Precinct 102                                           00 
00010010003000253000000000000000000000000000000000000000000000000000000000000000000000000000000000000          REGISTERED VOTERS - TOTAL                               REGISTERED VOTERS - TOTAL             Precinct 103                                           00 
00010010004000562000000000000000000000000000000000000000000000000000000000000000000000000000000000000          REGISTERED VOTERS - TOTAL                               REGISTERED VOTERS - TOTAL             Precinct 201                                           00 
00010010005001701000000000000000000000000000000000000000000000000000000000000000000000000000000000000          REGISTERED VOTERS - TOTAL                               REGISTERED VOTERS - TOTAL             Precinct 202                                           00 
00010010006000408000000000000000000000000000000000000000000000000000000000000000000000000000000000000          REGISTERED VOTERS - TOTAL                               REGISTERED VOTERS - TOTAL             Precinct 203                                           00 
00010010007000145000000000000000000000000000000000000000000000000000000000000000000000000000000000000          REGISTERED VOTERS - TOTAL                               REGISTERED VOTERS - TOTAL             Precinct 301                                           00 
00010010008001477000000000000000000000000000000000000000000000000000000000000000000000000000000000000          REGISTERED VOTERS - TOTAL                               REGISTERED VOTERS - TOTAL             Precinct 302                                           00 
00010010009001327000000000000000000000000000000000000000000000000000000000000000000000000000000000000          REGISTERED VOTERS - TOTAL                               REGISTERED VOTERS - TOTAL             Precinct 303                                           00 
00010010010000241000000000000000000000000000000000000000000000000000000000000000000000000000000000000          REGISTERED VOTERS - TOTAL                               REGISTERED VOTERS - TOTAL             Precinct 304                                           00 
00010010011000812000000000000000000000000000000000000000000000000000000000000000000000000000000000000          REGISTERED VOTERS - TOTAL                               REGISTERED VOTERS - TOTAL             Precinct 401                                           00 
00010010012000181000000000000000000000000000000000000000000000000000000000000000000000000000000000000          REGISTERED VOTERS - TOTAL                               REGISTERED VOTERS - TOTAL             Precinct 402                                           00 
00010010013000299000000000000000000000000000000000000000000000000000000000000000000000000000000000000          REGISTERED VOTERS - TOTAL                               REGISTERED VOTERS - TOTAL             Precinct 403                                           00 
00010010014000948000000000000000000000000000000000000000000000000000000000000000000000000000000000000          REGISTERED VOTERS - TOTAL                               REGISTERED VOTERS - TOTAL             Precinct 404                                           00 
00010010015000583000000000000000000000000000000000000000000000000000000000000000000000000000000000000          REGISTERED VOTERS - TOTAL                               REGISTERED VOTERS - TOTAL             Precinct 405                                           00 
00020010001001211000091000937000183000000000000000000000000000000000000000000000000000000000000000000          BALLOTS CAST - TOTAL                                    BALLOTS CAST - TOTAL                  Precinct 101                                           00 
00020010002000205000027000156000022000000000000000000000000000000000000000000000000000000000000000000          BALLOTS CAST - TOTAL                                    BALLOTS CAST - TOTAL                  Precinct 102                                           00 
00020010003000201000024000142000035000000000000000000000000000000000000000000000000000000000000000000          BALLOTS CAST - TOTAL                                    BALLOTS CAST - TOTAL                  Precinct 103                                           00 
00020010004000459000030000352000077000000000000000000000000000000000000000000000000000000000000000000          BALLOTS CAST - TOTAL                                    BALLOTS CAST - TOTAL                  Precinct 201                                           00 
00020010005001250000098001016000136000000000000000000000000000000000000000000000000000000000000000000          BALLOTS CAST - TOTAL                                    BALLOTS CAST - TOTAL                  Precinct 202                                           00 
00020010006000325000031000239000055000000000000000000000000000000000000000000000000000000000000000000          BALLOTS CAST - TOTAL                                    BALLOTS CAST - TOTAL                  Precinct 203                                           00 
00020010007000117000008000071000038000000000000000000000000000000000000000000000000000000000000000000          BALLOTS CAST - TOTAL                                    BALLOTS CAST - TOTAL                  Precinct 301                                           00 
00020010008001134000088000858000188000000000000000000000000000000000000000000000000000000000000000000          BALLOTS CAST - TOTAL                                    BALLOTS CAST - TOTAL                  Precinct 302                                           00 
00020010009001002000087000600000315000000000000000000000000000000000000000000000000000000000000000000          BALLOTS CAST - TOTAL                                    BALLOTS CAST - TOTAL                  Precinct 303                                           00 
00020010010000201000027000139000035000000000000000000000000000000000000000000000000000000000000000000          BALLOTS CAST - TOTAL                                    BALLOTS CAST - TOTAL                  Precinct 304                                           00 
00020010011000578000057000320000201000000000000000000000000000000000000000000000000000000000000000000          BALLOTS CAST - TOTAL                                    BALLOTS CAST - TOTAL                  Precinct 401                                           00 
00020010012000128000018000090000020000000000000000000000000000000000000000000000000000000000000000000          BALLOTS CAST - TOTAL                                    BALLOTS CAST - TOTAL                  Precinct 402                                           00 
00020010013000243000020000146000077000000000000000000000000000000000000000000000000000000000000000000          BALLOTS CAST - TOTAL                                    BALLOTS CAST - TOTAL                  Precinct 403                                           00 
00020010014000612000047000476000089000000000000000000000000000000000000000000000000000000000000000000          BALLOTS CAST - TOTAL                                    BALLOTS CAST - TOTAL                  Precinct 404                                           00 
00020010015000456000039000344000073000000000000000000000000000000000000000000000000000000000000000000          BALLOTS CAST - TOTAL                                    BALLOTS CAST - TOTAL                  Precinct 405                                           00 
00030010001000000000000000000000000000000000000000000000000000000000000000000000000000000000000000000          BALLOTS CAST - BLANK                                    BALLOTS CAST - BLANK                  Precinct 101                                           00 
00030010002000000000000000000000000000000000000000000000000000000000000000000000000000000000000000000          BALLOTS CAST - BLANK                                    BALLOTS CAST - BLANK                  Precinct 102                                           00 
00030010003000000000000000000000000000000000000000000000000000000000000000000000000000000000000000000          BALLOTS CAST - BLANK                                    BALLOTS CAST - BLANK                  Precinct 103                                           00 
00030010004000000000000000000000000000000000000000000000000000000000000000000000000000000000000000000          BALLOTS CAST - BLANK                                    BALLOTS CAST - BLANK                  Precinct 201                                           00 
00030010005000000000000000000000000000000000000000000000000000000000000000000000000000000000000000000          BALLOTS CAST - BLANK                                    BALLOTS CAST - BLANK                  Precinct 202                                           00 
00030010006000000000000000000000000000000000000000000000000000000000000000000000000000000000000000000          BALLOTS CAST - BLANK                                    BALLOTS CAST - BLANK                  Precinct 203                                           00 
00030010007000000000000000000000000000000000000000000000000000000000000000000000000000000000000000000          BALLOTS CAST - BLANK                                    BALLOTS CAST - BLANK                  Precinct 301                                           00 
00030010008000000000000000000000000000000000000000000000000000000000000000000000000000000000000000000          BALLOTS CAST - BLANK                                    BALLOTS CAST - BLANK                  Precinct 302                                           00 
00030010009000000000000000000000000000000000000000000000000000000000000000000000000000000000000000000          BALLOTS CAST - BLANK                                    BALLOTS CAST - BLANK                  Precinct 303                                           00 
00030010010000000000000000000000000000000000000000000000000000000000000000000000000000000000000000000          BALLOTS CAST - BLANK                                    BALLOTS CAST - BLANK                  Precinct 304                                           00 
00030010011000000000000000000000000000000000000000000000000000000000000000000000000000000000000000000          BALLOTS CAST - BLANK                                    BALLOTS CAST - BLANK                  Precinct 401                                           00 
00030010012000000000000000000000000000000000000000000000000000000000000000000000000000000000000000000          BALLOTS CAST - BLANK                                    BALLOTS CAST - BLANK                  Precinct 402                                           00 
00030010013000000000000000000000000000000000000000000000000000000000000000000000000000000000000000000          BALLOTS CAST - BLANK                                    BALLOTS CAST - BLANK                  Precinct 403                                           00 
00030010014000000000000000000000000000000000000000000000000000000000000000000000000000000000000000000          BALLOTS CAST - BLANK                                    BALLOTS CAST - BLANK                  Precinct 404                                           00 
00030010015000000000000000000000000000000000000000000000000000000000000000000000000000000000000000000          BALLOTS CAST - BLANK                                    BALLOTS CAST - BLANK                  Precinct 405                                           00 
00040010001000868000047000687000134000000000000000000000000000000000000000000000000000000000000000000REP       President / Vice-President                              REP Donald J. Trump / Michael R. PencePrecinct 101                                           01 
00040010002000109000007000091000011000000000000000000000000000000000000000000000000000000000000000000REP       President / Vice-President                              REP Donald J. Trump / Michael R. PencePrecinct 102                                           01 
00040010003000181000018000129000034000000000000000000000000000000000000000000000000000000000000000000REP       President / Vice-President                              REP Donald J. Trump / Michael R. PencePrecinct 103                                           01 
00040010004000427000021000333000073000000000000000000000000000000000000000000000000000000000000000000REP       President / Vice-President                              REP Donald J. Trump / Michael R. PencePrecinct 201                                           01 
00040010005001017000060000843000114000000000000000000000000000000000000000000000000000000000000000000REP       President / Vice-President                              REP Donald J. Trump / Michael R. PencePrecinct 202                                           01 
00040010006000278000022000209000047000000000000000000000000000000000000000000000000000000000000000000REP       President / Vice-President                              REP Donald J. Trump / Michael R. PencePrecinct 203                                           01 
00040010007000100000005000064000031000000000000000000000000000000000000000000000000000000000000000000REP       President / Vice-President                              REP Donald J. Trump / Michael R. PencePrecinct 301                                           01 
00040010008000891000043000693000155000000000000000000000000000000000000000000000000000000000000000000REP       President / Vice-President                              REP Donald J. Trump / Michael R. PencePrecinct 302                                           01 
00040010009000761000039000478000244000000000000000000000000000000000000000000000000000000000000000000REP       President / Vice-President                              REP Donald J. Trump / Michael R. PencePrecinct 303                                           01 
00040010010000158000016000110000032000000000000000000000000000000000000000000000000000000000000000000REP       President / Vice-President                              REP Donald J. Trump / Michael R. PencePrecinct 304                                           01 
00040010011000425000031000244000150000000000000000000000000000000000000000000000000000000000000000000REP       President / Vice-President                              REP Donald J. Trump / Michael R. PencePrecinct 401                                           01 
00040010012000055000001000043000011000000000000000000000000000000000000000000000000000000000000000000REP       President / Vice-President                              REP Donald J. Trump / Michael R. PencePrecinct 402                                           01 
00040010013000191000008000111000072000000000000000000000000000000000000000000000000000000000000000000REP       President / Vice-President                              REP Donald J. Trump / Michael R. PencePrecinct 403                                           01 
00040010014000416000024000329000063000000000000000000000000000000000000000000000000000000000000000000REP       President / Vice-President                              REP Donald J. Trump / Michael R. PencePrecinct 404                                           01 
00040010015000378000032000283000063000000000000000000000000000000000000000000000000000000000000000000REP       President / Vice-President                              REP Donald J. Trump / Michael R. PencePrecinct 405                                           01 
00040020001000334000042000246000046000000000000000000000000000000000000000000000000000000000000000000DEM       President / Vice-President                              DEM Joseph R. Biden / Kamala D. HarrisPrecinct 101                                           01 
00040020002000095000020000064000011000000000000000000000000000000000000000000000000000000000000000000DEM       President / Vice-President                              DEM Joseph R. Biden / Kamala D. HarrisPrecinct 102                                           01 
00040020003000018000006000012000000000000000000000000000000000000000000000000000000000000000000000000DEM       President / Vice-President                              DEM Joseph R. Biden / Kamala D. HarrisPrecinct 103                                           01 
00040020004000028000009000016000003000000000000000000000000000000000000000000000000000000000000000000DEM       President / Vice-President                              DEM Joseph R. Biden / Kamala D. HarrisPrecinct 201                                           01 
00040020005000214000036000158000020000000000000000000000000000000000000000000000000000000000000000000DEM       President / Vice-President                              DEM Joseph R. Biden / Kamala D. HarrisPrecinct 202                                           01 
00040020006000045000009000029000007000000000000000000000000000000000000000000000000000000000000000000DEM       President / Vice-President                              DEM Joseph R. Biden / Kamala D. HarrisPrecinct 203                                           01 
00040020007000014000003000006000005000000000000000000000000000000000000000000000000000000000000000000DEM       President / Vice-President                              DEM Joseph R. Biden / Kamala D. HarrisPrecinct 301                                           01 
00040020008000216000045000146000025000000000000000000000000000000000000000000000000000000000000000000DEM       President / Vice-President                              DEM Joseph R. Biden / Kamala D. HarrisPrecinct 302                                           01 
00040020009000227000045000117000065000000000000000000000000000000000000000000000000000000000000000000DEM       President / Vice-President                              DEM Joseph R. Biden / Kamala D. HarrisPrecinct 303                                           01 
00040020010000038000010000027000001000000000000000000000000000000000000000000000000000000000000000000DEM       President / Vice-President                              DEM Joseph R. Biden / Kamala D. HarrisPrecinct 304                                           01 
00040020011000142000024000071000047000000000000000000000000000000000000000000000000000000000000000000DEM       President / Vice-President                              DEM Joseph R. Biden / Kamala D. HarrisPrecinct 401                                           01 
00040020012000070000017000044000009000000000000000000000000000000000000000000000000000000000000000000DEM       President / Vice-President                              DEM Joseph R. Biden / Kamala D. HarrisPrecinct 402                                           01 
00040020013000049000012000033000004000000000000000000000000000000000000000000000000000000000000000000DEM       President / Vice-President                              DEM Joseph R. Biden / Kamala D. HarrisPrecinct 403                                           01 
00040020014000187000023000140000024000000000000000000000000000000000000000000000000000000000000000000DEM       President / Vice-President                              DEM Joseph R. Biden / Kamala D. HarrisPrecinct 404                                           01 
00040020015000073000007000058000008000000000000000000000000000000000000000000000000000000000000000000DEM       President / Vice-President                              DEM Joseph R. Biden / Kamala D. HarrisPrecinct 405                                           01 
00040030001000005000000000004000001000000000000000000000000000000000000000000000000000000000000000000LIB       President / Vice-President                              LIB Jo Jorgensen / Jeremy "Spike" CohePrecinct 101                                           01 
00040030002000001000000000001000000000000000000000000000000000000000000000000000000000000000000000000LIB       President / Vice-President                              LIB Jo Jorgensen / Jeremy "Spike" CohePrecinct 102                                           01 
00040030003000000000000000000000000000000000000000000000000000000000000000000000000000000000000000000LIB       President / Vice-President                              LIB Jo Jorgensen / Jeremy "Spike" CohePrecinct 103                                           01 
00040030004000002000000000001000001000000000000000000000000000000000000000000000000000000000000000000LIB       President / Vice-President                              LIB Jo Jorgensen / Jeremy "Spike" CohePrecinct 201                                           01 
00040030005000007000001000005000001000000000000000000000000000000000000000000000000000000000000000000LIB       President / Vice-President                              LIB Jo Jorgensen / Jeremy "Spike" CohePrecinct 202                                           01 
00040030006000001000000000001000000000000000000000000000000000000000000000000000000000000000000000000LIB       President / Vice-President                              LIB Jo Jorgensen / Jeremy "Spike" CohePrecinct 203                                           01 
00040030007000002000000000000000002000000000000000000000000000000000000000000000000000000000000000000LIB       President / Vice-President                              LIB Jo Jorgensen / Jeremy "Spike" CohePrecinct 301                                           01 
00040030008000019000000000014000005000000000000000000000000000000000000000000000000000000000000000000LIB       President / Vice-President                              LIB Jo Jorgensen / Jeremy "Spike" CohePrecinct 302                                           01 
00040030009000006000001000002000003000000000000000000000000000000000000000000000000000000000000000000LIB       President / Vice-President                              LIB Jo Jorgensen / Jeremy "Spike" CohePrecinct 303                                           01 
00040030010000002000001000001000000000000000000000000000000000000000000000000000000000000000000000000LIB       President / Vice-President                              LIB Jo Jorgensen / Jeremy "Spike" CohePrecinct 304                                           01 
00040030011000007000002000002000003000000000000000000000000000000000000000000000000000000000000000000LIB       President / Vice-President                              LIB Jo Jorgensen / Jeremy "Spike" CohePrecinct 401                                           01 
00040030012000001000000000001000000000000000000000000000000000000000000000000000000000000000000000000LIB       President / Vice-President                              LIB Jo Jorgensen / Jeremy "Spike" CohePrecinct 402                                           01 
00040030013000002000000000001000001000000000000000000000000000000000000000000000000000000000000000000LIB       President / Vice-President                              LIB Jo Jorgensen / Jeremy "Spike" CohePrecinct 403                                           01 
00040030014000006000000000005000001000000000000000000000000000000000000000000000000000000000000000000LIB       President / Vice-President                              LIB Jo Jorgensen / Jeremy "Spike" CohePrecinct 404                                           01 
00040030015000004000000000003000001000000000000000000000000000000000000000000000000000000000000000000LIB       President / Vice-President                              LIB Jo Jorgensen / Jeremy "Spike" CohePrecinct 405                                           01 
00040040001000000000000000000000000000000000000000000000000000000000000000000000000000000000000000000GRN       President / Vice-President                              GRN Howie Hawkins / Angela Walker     Precinct 101                                           01 
00040040002000000000000000000000000000000000000000000000000000000000000000000000000000000000000000000GRN       President / Vice-President                              GRN Howie Hawkins / Angela Walker     Precinct 102                                           01 
00040040003000001000000000000000001000000000000000000000000000000000000000000000000000000000000000000GRN       President / Vice-President                              GRN Howie Hawkins / Angela Walker     Precinct 103                                           01 
00040040004000000000000000000000000000000000000000000000000000000000000000000000000000000000000000000GRN       President / Vice-President                              GRN Howie Hawkins / Angela Walker     Precinct 201                                           01 
00040040005000003000000000003000000000000000000000000000000000000000000000000000000000000000000000000GRN       President / Vice-President                              GRN Howie Hawkins / Angela Walker     Precinct 202                                           01 
00040040006000001000000000000000001000000000000000000000000000000000000000000000000000000000000000000GRN       President / Vice-President                              GRN Howie Hawkins / Angela Walker     Precinct 203                                           01 
00040040007000000000000000000000000000000000000000000000000000000000000000000000000000000000000000000GRN       President / Vice-President                              GRN Howie Hawkins / Angela Walker     Precinct 301                                           01 
00040040008000002000000000001000001000000000000000000000000000000000000000000000000000000000000000000GRN       President / Vice-President                              GRN Howie Hawkins / Angela Walker     Precinct 302                                           01 
00040040009000003000001000001000001000000000000000000000000000000000000000000000000000000000000000000GRN       President / Vice-President                              GRN Howie Hawkins / Angela Walker     Precinct 303                                           01 
00040040010000002000000000000000002000000000000000000000000000000000000000000000000000000000000000000GRN       President / Vice-President                              GRN Howie Hawkins / Angela Walker     Precinct 304                                           01 
00040040011000001000000000000000001000000000000000000000000000000000000000000000000000000000000000000GRN       President / Vice-President                              GRN Howie Hawkins / Angela Walker     Precinct 401                                           01 
00040040012000001000000000001000000000000000000000000000000000000000000000000000000000000000000000000GRN       President / Vice-President                              GRN Howie Hawkins / Angela Walker     Precinct 402                                           01 
00040040013000001000000000001000000000000000000000000000000000000000000000000000000000000000000000000GRN       President / Vice-President                              GRN Howie Hawkins / Angela Walker     Precinct 403                                           01 
00040040014000001000000000000000001000000000000000000000000000000000000000000000000000000000000000000GRN       President / Vice-President                              GRN Howie Hawkins / Angela Walker     Precinct 404                                           01 
00040040015000000000000000000000000000000000000000000000000000000000000000000000000000000000000000000GRN       President / Vice-President                              GRN Howie Hawkins / Angela Walker     Precinct 405                                           01 
00040060001000003000001000000000002000000000000000000000000000000000000000000000000000000000000000000NON       President / Vice-President                              Write-in                              Precinct 101                                           01 
00040060002000000000000000000000000000000000000000000000000000000000000000000000000000000000000000000NON       President / Vice-President                              Write-in                              Precinct 102                                           01 
00040060003000000000000000000000000000000000000000000000000000000000000000000000000000000000000000000NON       President / Vice-President                              Write-in                              Precinct 103                                           01 
00040060004000001000000000001000000000000000000000000000000000000000000000000000000000000000000000000NON       President / Vice-President                              Write-in                              Precinct 201                                           01 
00040060005000003000000000002000001000000000000000000000000000000000000000000000000000000000000000000NON       President / Vice-President                              Write-in                              Precinct 202                                           01 
00040060006000000000000000000000000000000000000000000000000000000000000000000000000000000000000000000NON       President / Vice-President                              Write-in                              Precinct 203                                           01 
00040060007000000000000000000000000000000000000000000000000000000000000000000000000000000000000000000NON       President / Vice-President                              Write-in                              Precinct 301                                           01 
00040060008000002000000000001000001000000000000000000000000000000000000000000000000000000000000000000NON       President / Vice-President                              Write-in                              Precinct 302                                           01 
00040060009000001000000000001000000000000000000000000000000000000000000000000000000000000000000000000NON       President / Vice-President                              Write-in                              Precinct 303                                           01 
00040060010000000000000000000000000000000000000000000000000000000000000000000000000000000000000000000NON       President / Vice-President                              Write-in                              Precinct 304                                           01 
00040060011000002000000000002000000000000000000000000000000000000000000000000000000000000000000000000NON       President / Vice-President                              Write-in                              Precinct 401                                           01 
00040060012000000000000000000000000000000000000000000000000000000000000000000000000000000000000000000NON       President / Vice-President                              Write-in                              Precinct 402                                           01 
00040060013000000000000000000000000000000000000000000000000000000000000000000000000000000000000000000NON       President / Vice-President                              Write-in                              Precinct 403                                           01 
00040060014000001000000000001000000000000000000000000000000000000000000000000000000000000000000000000NON       President / Vice-President                              Write-in                              Precinct 404                                           01 
00040060015000001000000000000000001000000000000000000000000000000000000000000000000000000000000000000NON       President / Vice-President                              Write-in                              Precinct 405                                           01 
00040070001000000000000000000000000000000000000000000000000000000000000000000000000000000000000000000          President / Vice-President                              OVER VOTES                            Precinct 101                                           01 
00040070002000000000000000000000000000000000000000000000000000000000000000000000000000000000000000000          President / Vice-President                              OVER VOTES                            Precinct 102                                           01 
00040070003000000000000000000000000000000000000000000000000000000000000000000000000000000000000000000          President / Vice-President                              OVER VOTES                            Precinct 103                                           01 
00040070004000000000000000000000000000000000000000000000000000000000000000000000000000000000000000000          President / Vice-President                              OVER VOTES                            Precinct 201                                           01 
00040070005000000000000000000000000000000000000000000000000000000000000000000000000000000000000000000          President / Vice-President                              OVER VOTES                            Precinct 202                                           01 
00040070006000000000000000000000000000000000000000000000000000000000000000000000000000000000000000000          President / Vice-President                              OVER VOTES                            Precinct 203                                           01 
00040070007000000000000000000000000000000000000000000000000000000000000000000000000000000000000000000          President / Vice-President                              OVER VOTES                            Precinct 301                                           01 
00040070008000000000000000000000000000000000000000000000000000000000000000000000000000000000000000000          President / Vice-President                              OVER VOTES                            Precinct 302                                           01 
00040070009000000000000000000000000000000000000000000000000000000000000000000000000000000000000000000          President / Vice-President                              OVER VOTES                            Precinct 303                                           01 
00040070010000000000000000000000000000000000000000000000000000000000000000000000000000000000000000000          President / Vice-President                              OVER VOTES                            Precinct 304                                           01 
00040070011000000000000000000000000000000000000000000000000000000000000000000000000000000000000000000          President / Vice-President                              OVER VOTES                            Precinct 401                                           01 
00040070012000000000000000000000000000000000000000000000000000000000000000000000000000000000000000000          President / Vice-President                              OVER VOTES                            Precinct 402                                           01 
00040070013000000000000000000000000000000000000000000000000000000000000000000000000000000000000000000          President / Vice-President                              OVER VOTES                            Precinct 403                                           01 
00040070014000000000000000000000000000000000000000000000000000000000000000000000000000000000000000000          President / Vice-President                              OVER VOTES                            Precinct 404                                           01 
00040070015000000000000000000000000000000000000000000000000000000000000000000000000000000000000000000          President / Vice-President                              OVER VOTES                            Precinct 405                                           01 
00040080001000001000001000000000000000000000000000000000000000000000000000000000000000000000000000000          President / Vice-President                              UNDER VOTES                           Precinct 101                                           01 
00040080002000000000000000000000000000000000000000000000000000000000000000000000000000000000000000000          President / Vice-President                              UNDER VOTES                           Precinct 102                                           01 
00040080003000001000000000001000000000000000000000000000000000000000000000000000000000000000000000000          President / Vice-President                              UNDER VOTES                           Precinct 103                                           01 
00040080004000001000000000001000000000000000000000000000000000000000000000000000000000000000000000000          President / Vice-President                              UNDER VOTES                           Precinct 201                                           01 
00040080005000006000001000005000000000000000000000000000000000000000000000000000000000000000000000000          President / Vice-President                              UNDER VOTES                           Precinct 202                                           01 
00040080006000000000000000000000000000000000000000000000000000000000000000000000000000000000000000000          President / Vice-President                              UNDER VOTES                           Precinct 203                                           01 
00040080007000001000000000001000000000000000000000000000000000000000000000000000000000000000000000000          President / Vice-President                              UNDER VOTES                           Precinct 301                                           01 
00040080008000004000000000003000001000000000000000000000000000000000000000000000000000000000000000000          President / Vice-President                              UNDER VOTES                           Precinct 302                                           01 
00040080009000004000001000001000002000000000000000000000000000000000000000000000000000000000000000000          President / Vice-President                              UNDER VOTES                           Precinct 303                                           01 
00040080010000001000000000001000000000000000000000000000000000000000000000000000000000000000000000000          President / Vice-President                              UNDER VOTES                           Precinct 304                                           01 
00040080011000001000000000001000000000000000000000000000000000000000000000000000000000000000000000000          President / Vice-President                              UNDER VOTES                           Precinct 401                                           01 
00040080012000001000000000001000000000000000000000000000000000000000000000000000000000000000000000000          President / Vice-President                              UNDER VOTES                           Precinct 402                                           01 
00040080013000000000000000000000000000000000000000000000000000000000000000000000000000000000000000000          President / Vice-President                              UNDER VOTES                           Precinct 403                                           01 
00040080014000001000000000001000000000000000000000000000000000000000000000000000000000000000000000000          President / Vice-President                              UNDER VOTES                           Precinct 404                                           01 
00040080015000000000000000000000000000000000000000000000000000000000000000000000000000000000000000000          President / Vice-President                              UNDER VOTES                           Precinct 405                                           01 
00050010001000850000052000674000124000000000000000000000000000000000000000000000000000000000000000000REP       US Senator                                              REP John Cornyn                       Precinct 101                                           01 
00050010002000112000007000093000012000000000000000000000000000000000000000000000000000000000000000000REP       US Senator                                              REP John Cornyn                       Precinct 102                                           01 
00050010003000179000020000130000029000000000000000000000000000000000000000000000000000000000000000000REP       US Senator                                              REP John Cornyn                       Precinct 103                                           01 
00050010004000426000023000331000072000000000000000000000000000000000000000000000000000000000000000000REP       US Senator                                              REP John Cornyn                       Precinct 201                                           01 
00050010005001011000061000839000111000000000000000000000000000000000000000000000000000000000000000000REP       US Senator                                              REP John Cornyn                       Precinct 202                                           01 
00050010006000278000022000206000050000000000000000000000000000000000000000000000000000000000000000000REP       US Senator                                              REP John Cornyn                       Precinct 203                                           01 
00050010007000099000005000062000032000000000000000000000000000000000000000000000000000000000000000000REP       US Senator                                              REP John Cornyn                       Precinct 301                                           01 
00050010008000887000047000687000153000000000000000000000000000000000000000000000000000000000000000000REP       US Senator                                              REP John Cornyn                       Precinct 302                                           01 
00050010009000752000041000473000238000000000000000000000000000000000000000000000000000000000000000000REP       US Senator                                              REP John Cornyn                       Precinct 303                                           01 
00050010010000160000016000111000033000000000000000000000000000000000000000000000000000000000000000000REP       US Senator                                              REP John Cornyn                       Precinct 304                                           01 
00050010011000425000031000244000150000000000000000000000000000000000000000000000000000000000000000000REP       US Senator                                              REP John Cornyn                       Precinct 401                                           01 
00050010012000056000001000043000012000000000000000000000000000000000000000000000000000000000000000000REP       US Senator                                              REP John Cornyn                       Precinct 402                                           01 
00050010013000192000008000114000070000000000000000000000000000000000000000000000000000000000000000000REP       US Senator                                              REP John Cornyn                       Precinct 403                                           01 
00050010014000413000025000328000060000000000000000000000000000000000000000000000000000000000000000000REP       US Senator                                              REP John Cornyn                       Precinct 404                                           01 
00050010015000371000032000274000065000000000000000000000000000000000000000000000000000000000000000000REP       US Senator                                              REP John Cornyn                       Precinct 405                                           01 
00050020001000321000036000231000054000000000000000000000000000000000000000000000000000000000000000000DEM       US Senator                                              DEM Mary "MJ" Hegar                   Precinct 101                                           01 
00050020002000090000020000062000008000000000000000000000000000000000000000000000000000000000000000000DEM       US Senator                                              DEM Mary "MJ" Hegar                   Precinct 102                                           01 
00050020003000018000004000011000003000000000000000000000000000000000000000000000000000000000000000000DEM       US Senator                                              DEM Mary "MJ" Hegar                   Precinct 103                                           01 
00050020004000023000007000013000003000000000000000000000000000000000000000000000000000000000000000000DEM       US Senator                                              DEM Mary "MJ" Hegar                   Precinct 201                                           01 
00050020005000209000031000155000023000000000000000000000000000000000000000000000000000000000000000000DEM       US Senator                                              DEM Mary "MJ" Hegar                   Precinct 202                                           01 
00050020006000043000009000029000005000000000000000000000000000000000000000000000000000000000000000000DEM       US Senator                                              DEM Mary "MJ" Hegar                   Precinct 203                                           01 
00050020007000015000003000007000005000000000000000000000000000000000000000000000000000000000000000000DEM       US Senator                                              DEM Mary "MJ" Hegar                   Precinct 301                                           01 
00050020008000208000040000144000024000000000000000000000000000000000000000000000000000000000000000000DEM       US Senator                                              DEM Mary "MJ" Hegar                   Precinct 302                                           01 
00050020009000227000045000118000064000000000000000000000000000000000000000000000000000000000000000000DEM       US Senator                                              DEM Mary "MJ" Hegar                   Precinct 303                                           01 
00050020010000039000011000026000002000000000000000000000000000000000000000000000000000000000000000000DEM       US Senator                                              DEM Mary "MJ" Hegar                   Precinct 304                                           01 
00050020011000139000025000072000042000000000000000000000000000000000000000000000000000000000000000000DEM       US Senator                                              DEM Mary "MJ" Hegar                   Precinct 401                                           01 
00050020012000068000016000044000008000000000000000000000000000000000000000000000000000000000000000000DEM       US Senator                                              DEM Mary "MJ" Hegar                   Precinct 402                                           01 
00050020013000044000012000028000004000000000000000000000000000000000000000000000000000000000000000000DEM       US Senator                                              DEM Mary "MJ" Hegar                   Precinct 403                                           01 
00050020014000176000019000134000023000000000000000000000000000000000000000000000000000000000000000000DEM       US Senator                                              DEM Mary "MJ" Hegar                   Precinct 404                                           01 
00050020015000069000006000057000006000000000000000000000000000000000000000000000000000000000000000000DEM       US Senator                                              DEM Mary "MJ" Hegar                   Precinct 405                                           01 
00050030001000016000002000011000003000000000000000000000000000000000000000000000000000000000000000000LIB       US Senator                                              LIB Kerry Douglas McKennon            Precinct 101                                           01 
00050030002000002000000000001000001000000000000000000000000000000000000000000000000000000000000000000LIB       US Senator                                              LIB Kerry Douglas McKennon            Precinct 102                                           01 
00050030003000001000000000000000001000000000000000000000000000000000000000000000000000000000000000000LIB       US Senator                                              LIB Kerry Douglas McKennon            Precinct 103                                           01 
00050030004000005000000000004000001000000000000000000000000000000000000000000000000000000000000000000LIB       US Senator                                              LIB Kerry Douglas McKennon            Precinct 201                                           01 
00050030005000012000002000008000002000000000000000000000000000000000000000000000000000000000000000000LIB       US Senator                                              LIB Kerry Douglas McKennon            Precinct 202                                           01 
00050030006000002000000000002000000000000000000000000000000000000000000000000000000000000000000000000LIB       US Senator                                              LIB Kerry Douglas McKennon            Precinct 203                                           01 
00050030007000002000000000001000001000000000000000000000000000000000000000000000000000000000000000000LIB       US Senator                                              LIB Kerry Douglas McKennon            Precinct 301                                           01 
00050030008000020000000000014000006000000000000000000000000000000000000000000000000000000000000000000LIB       US Senator                                              LIB Kerry Douglas McKennon            Precinct 302                                           01 
00050030009000009000001000003000005000000000000000000000000000000000000000000000000000000000000000000LIB       US Senator                                              LIB Kerry Douglas McKennon            Precinct 303                                           01 
00050030010000001000000000001000000000000000000000000000000000000000000000000000000000000000000000000LIB       US Senator                                              LIB Kerry Douglas McKennon            Precinct 304                                           01 
00050030011000005000001000000000004000000000000000000000000000000000000000000000000000000000000000000LIB       US Senator                                              LIB Kerry Douglas McKennon            Precinct 401                                           01 
00050030012000001000000000001000000000000000000000000000000000000000000000000000000000000000000000000LIB       US Senator                                              LIB Kerry Douglas McKennon            Precinct 402                                           01 
00050030013000004000000000003000001000000000000000000000000000000000000000000000000000000000000000000LIB       US Senator                                              LIB Kerry Douglas McKennon            Precinct 403                                           01 
00050030014000008000000000006000002000000000000000000000000000000000000000000000000000000000000000000LIB       US Senator                                              LIB Kerry Douglas McKennon            Precinct 404                                           01 
00050030015000008000000000008000000000000000000000000000000000000000000000000000000000000000000000000LIB       US Senator                                              LIB Kerry Douglas McKennon            Precinct 405                                           01 
00050040001000007000000000006000001000000000000000000000000000000000000000000000000000000000000000000GRN       US Senator                                              GRN David B. Collins                  Precinct 101                                           01 
00050040002000000000000000000000000000000000000000000000000000000000000000000000000000000000000000000GRN       US Senator                                              GRN David B. Collins                  Precinct 102                                           01 
00050040003000002000000000001000001000000000000000000000000000000000000000000000000000000000000000000GRN       US Senator                                              GRN David B. Collins                  Precinct 103                                           01 
00050040004000001000000000001000000000000000000000000000000000000000000000000000000000000000000000000GRN       US Senator                                              GRN David B. Collins                  Precinct 201                                           01 
00050040005000008000000000008000000000000000000000000000000000000000000000000000000000000000000000000GRN       US Senator                                              GRN David B. Collins                  Precinct 202                                           01 
00050040006000000000000000000000000000000000000000000000000000000000000000000000000000000000000000000GRN       US Senator                                              GRN David B. Collins                  Precinct 203                                           01 
00050040007000000000000000000000000000000000000000000000000000000000000000000000000000000000000000000GRN       US Senator                                              GRN David B. Collins                  Precinct 301                                           01 
00050040008000003000000000003000000000000000000000000000000000000000000000000000000000000000000000000GRN       US Senator                                              GRN David B. Collins                  Precinct 302                                           01 
00050040009000003000000000000000003000000000000000000000000000000000000000000000000000000000000000000GRN       US Senator                                              GRN David B. Collins                  Precinct 303                                           01 
00050040010000001000000000001000000000000000000000000000000000000000000000000000000000000000000000000GRN       US Senator                                              GRN David B. Collins                  Precinct 304                                           01 
00050040011000003000000000001000002000000000000000000000000000000000000000000000000000000000000000000GRN       US Senator                                              GRN David B. Collins                  Precinct 401                                           01 
00050040012000000000000000000000000000000000000000000000000000000000000000000000000000000000000000000GRN       US Senator                                              GRN David B. Collins                  Precinct 402                                           01 
00050040013000000000000000000000000000000000000000000000000000000000000000000000000000000000000000000GRN       US Senator                                              GRN David B. Collins                  Precinct 403                                           01 
00050040014000007000002000002000003000000000000000000000000000000000000000000000000000000000000000000GRN       US Senator                                              GRN David B. Collins                  Precinct 404                                           01 
00050040015000001000000000001000000000000000000000000000000000000000000000000000000000000000000000000GRN       US Senator                                              GRN David B. Collins                  Precinct 405                                           01 
00050060001000001000000000001000000000000000000000000000000000000000000000000000000000000000000000000NON       US Senator                                              Write-in                              Precinct 101                                           01 
00050060002000000000000000000000000000000000000000000000000000000000000000000000000000000000000000000NON       US Senator                                              Write-in                              Precinct 102                                           01 
00050060003000000000000000000000000000000000000000000000000000000000000000000000000000000000000000000NON       US Senator                                              Write-in                              Precinct 103                                           01 
00050060004000000000000000000000000000000000000000000000000000000000000000000000000000000000000000000NON       US Senator                                              Write-in                              Precinct 201                                           01 
00050060005000000000000000000000000000000000000000000000000000000000000000000000000000000000000000000NON       US Senator                                              Write-in                              Precinct 202                                           01 
00050060006000000000000000000000000000000000000000000000000000000000000000000000000000000000000000000NON       US Senator                                              Write-in                              Precinct 203                                           01 
00050060007000000000000000000000000000000000000000000000000000000000000000000000000000000000000000000NON       US Senator                                              Write-in                              Precinct 301                                           01 
00050060008000001000000000001000000000000000000000000000000000000000000000000000000000000000000000000NON       US Senator                                              Write-in                              Precinct 302                                           01 
00050060009000000000000000000000000000000000000000000000000000000000000000000000000000000000000000000NON       US Senator                                              Write-in                              Precinct 303                                           01 
00050060010000000000000000000000000000000000000000000000000000000000000000000000000000000000000000000NON       US Senator                                              Write-in                              Precinct 304                                           01 
00050060011000000000000000000000000000000000000000000000000000000000000000000000000000000000000000000NON       US Senator                                              Write-in                              Precinct 401                                           01 
00050060012000000000000000000000000000000000000000000000000000000000000000000000000000000000000000000NON       US Senator                                              Write-in                              Precinct 402                                           01 
00050060013000000000000000000000000000000000000000000000000000000000000000000000000000000000000000000NON       US Senator                                              Write-in                              Precinct 403                                           01 
00050060014000001000001000000000000000000000000000000000000000000000000000000000000000000000000000000NON       US Senator                                              Write-in                              Precinct 404                                           01 
00050060015000000000000000000000000000000000000000000000000000000000000000000000000000000000000000000NON       US Senator                                              Write-in                              Precinct 405                                           01 
00050070001000000000000000000000000000000000000000000000000000000000000000000000000000000000000000000          US Senator                                              OVER VOTES                            Precinct 101                                           01 
00050070002000000000000000000000000000000000000000000000000000000000000000000000000000000000000000000          US Senator                                              OVER VOTES                            Precinct 102                                           01 
00050070003000000000000000000000000000000000000000000000000000000000000000000000000000000000000000000          US Senator                                              OVER VOTES                            Precinct 103                                           01 
00050070004000000000000000000000000000000000000000000000000000000000000000000000000000000000000000000          US Senator                                              OVER VOTES                            Precinct 201                                           01 
00050070005000000000000000000000000000000000000000000000000000000000000000000000000000000000000000000          US Senator                                              OVER VOTES                            Precinct 202                                           01 
00050070006000000000000000000000000000000000000000000000000000000000000000000000000000000000000000000          US Senator                                              OVER VOTES                            Precinct 203                                           01 
00050070007000000000000000000000000000000000000000000000000000000000000000000000000000000000000000000          US Senator                                              OVER VOTES                            Precinct 301                                           01 
00050070008000000000000000000000000000000000000000000000000000000000000000000000000000000000000000000          US Senator                                              OVER VOTES                            Precinct 302                                           01 
00050070009000000000000000000000000000000000000000000000000000000000000000000000000000000000000000000          US Senator                                              OVER VOTES                            Precinct 303                                           01 
00050070010000000000000000000000000000000000000000000000000000000000000000000000000000000000000000000          US Senator                                              OVER VOTES                            Precinct 304                                           01 
00050070011000000000000000000000000000000000000000000000000000000000000000000000000000000000000000000          US Senator                                              OVER VOTES                            Precinct 401                                           01 
00050070012000001000001000000000000000000000000000000000000000000000000000000000000000000000000000000          US Senator                                              OVER VOTES                            Precinct 402                                           01 
00050070013000000000000000000000000000000000000000000000000000000000000000000000000000000000000000000          US Senator                                              OVER VOTES                            Precinct 403                                           01 
00050070014000000000000000000000000000000000000000000000000000000000000000000000000000000000000000000          US Senator                                              OVER VOTES                            Precinct 404                                           01 
00050070015000000000000000000000000000000000000000000000000000000000000000000000000000000000000000000          US Senator                                              OVER VOTES                            Precinct 405                                           01 
00050080001000016000001000014000001000000000000000000000000000000000000000000000000000000000000000000          US Senator                                              UNDER VOTES                           Precinct 101                                           01 
00050080002000001000000000000000001000000000000000000000000000000000000000000000000000000000000000000          US Senator                                              UNDER VOTES                           Precinct 102                                           01 
00050080003000001000000000000000001000000000000000000000000000000000000000000000000000000000000000000          US Senator                                              UNDER VOTES                           Precinct 103                                           01 
00050080004000004000000000003000001000000000000000000000000000000000000000000000000000000000000000000          US Senator                                              UNDER VOTES                           Precinct 201                                           01 
00050080005000010000004000006000000000000000000000000000000000000000000000000000000000000000000000000          US Senator                                              UNDER VOTES                           Precinct 202                                           01 
00050080006000002000000000002000000000000000000000000000000000000000000000000000000000000000000000000          US Senator                                              UNDER VOTES                           Precinct 203                                           01 
00050080007000001000000000001000000000000000000000000000000000000000000000000000000000000000000000000          US Senator                                              UNDER VOTES                           Precinct 301                                           01 
00050080008000015000001000009000005000000000000000000000000000000000000000000000000000000000000000000          US Senator                                              UNDER VOTES                           Precinct 302                                           01 
00050080009000011000000000006000005000000000000000000000000000000000000000000000000000000000000000000          US Senator                                              UNDER VOTES                           Precinct 303                                           01 
00050080010000000000000000000000000000000000000000000000000000000000000000000000000000000000000000000          US Senator                                              UNDER VOTES                           Precinct 304                                           01 
00050080011000006000000000003000003000000000000000000000000000000000000000000000000000000000000000000          US Senator                                              UNDER VOTES                           Precinct 401                                           01 
00050080012000002000000000002000000000000000000000000000000000000000000000000000000000000000000000000          US Senator                                              UNDER VOTES                           Precinct 402                                           01 
00050080013000003000000000001000002000000000000000000000000000000000000000000000000000000000000000000          US Senator                                              UNDER VOTES                           Precinct 403                                           01 
00050080014000007000000000006000001000000000000000000000000000000000000000000000000000000000000000000          US Senator                                              UNDER VOTES                           Precinct 404                                           01 
00050080015000007000001000004000002000000000000000000000000000000000000000000000000000000000000000000          US Senator                                              UNDER VOTES                           Precinct 405                                           01 
00060010001000861000046000690000125000000000000000000000000000000000000000000000000000000000000000000REPURE010 US Representative, Dist 10                              REP Michael McCaul                    Precinct 101                  Distrcit 10              01 
00060010002000113000004000095000014000000000000000000000000000000000000000000000000000000000000000000REPURE010 US Representative, Dist 10                              REP Michael McCaul                    Precinct 102                  Distrcit 10              01 
00060010003000186000021000133000032000000000000000000000000000000000000000000000000000000000000000000REPURE010 US Representative, Dist 10                              REP Michael McCaul                    Precinct 103                  Distrcit 10              01 
00060010004000437000023000339000075000000000000000000000000000000000000000000000000000000000000000000REPURE010 US Representative, Dist 10                              REP Michael McCaul                    Precinct 201                  Distrcit 10              01 
00060010005001024000059000852000113000000000000000000000000000000000000000000000000000000000000000000REPURE010 US Representative, Dist 10                              REP Michael McCaul                    Precinct 202                  Distrcit 10              01 
00060010006000279000022000208000049000000000000000000000000000000000000000000000000000000000000000000REPURE010 US Representative, Dist 10                              REP Michael McCaul                    Precinct 203                  Distrcit 10              01 
00060010010000163000015000115000033000000000000000000000000000000000000000000000000000000000000000000REPURE010 US Representative, Dist 10                              REP Michael McCaul                    Precinct 304                  Distrcit 10              01 
00060010011000430000028000248000154000000000000000000000000000000000000000000000000000000000000000000REPURE010 US Representative, Dist 10                              REP Michael McCaul                    Precinct 401                  Distrcit 10              01 
00060010012000063000003000047000013000000000000000000000000000000000000000000000000000000000000000000REPURE010 US Representative, Dist 10                              REP Michael McCaul                    Precinct 402                  Distrcit 10              01 
00060010013000191000008000112000071000000000000000000000000000000000000000000000000000000000000000000REPURE010 US Representative, Dist 10                              REP Michael McCaul                    Precinct 403                  Distrcit 10              01 
00060010014000417000026000330000061000000000000000000000000000000000000000000000000000000000000000000REPURE010 US Representative, Dist 10                              REP Michael McCaul                    Precinct 404                  Distrcit 10              01 
00060020001000314000037000222000055000000000000000000000000000000000000000000000000000000000000000000DEMURE010 US Representative, Dist 10                              DEM Mike Siegel                       Precinct 101                  Distrcit 10              01 
00060020002000088000021000059000008000000000000000000000000000000000000000000000000000000000000000000DEMURE010 US Representative, Dist 10                              DEM Mike Siegel                       Precinct 102                  Distrcit 10              01 
00060020003000012000003000009000000000000000000000000000000000000000000000000000000000000000000000000DEMURE010 US Representative, Dist 10                              DEM Mike Siegel                       Precinct 103                  Distrcit 10              01 
00060020004000017000007000009000001000000000000000000000000000000000000000000000000000000000000000000DEMURE010 US Representative, Dist 10                              DEM Mike Siegel                       Precinct 201                  Distrcit 10              01 
00060020005000199000031000147000021000000000000000000000000000000000000000000000000000000000000000000DEMURE010 US Representative, Dist 10                              DEM Mike Siegel                       Precinct 202                  Distrcit 10              01 
00060020006000036000008000024000004000000000000000000000000000000000000000000000000000000000000000000DEMURE010 US Representative, Dist 10                              DEM Mike Siegel                       Precinct 203                  Distrcit 10              01 
00060020010000035000011000022000002000000000000000000000000000000000000000000000000000000000000000000DEMURE010 US Representative, Dist 10                              DEM Mike Siegel                       Precinct 304                  Distrcit 10              01 
00060020011000128000024000066000038000000000000000000000000000000000000000000000000000000000000000000DEMURE010 US Representative, Dist 10                              DEM Mike Siegel                       Precinct 401                  Distrcit 10              01 
00060020012000062000015000040000007000000000000000000000000000000000000000000000000000000000000000000DEMURE010 US Representative, Dist 10                              DEM Mike Siegel                       Precinct 402                  Distrcit 10              01 
00060020013000047000012000031000004000000000000000000000000000000000000000000000000000000000000000000DEMURE010 US Representative, Dist 10                              DEM Mike Siegel                       Precinct 403                  Distrcit 10              01 
00060020014000182000018000139000025000000000000000000000000000000000000000000000000000000000000000000DEMURE010 US Representative, Dist 10                              DEM Mike Siegel                       Precinct 404                  Distrcit 10              01 
00060030001000015000000000013000002000000000000000000000000000000000000000000000000000000000000000000LIBURE010 US Representative, Dist 10                              LIB Roy Eriksen                       Precinct 101                  Distrcit 10              01 
00060030002000002000000000002000000000000000000000000000000000000000000000000000000000000000000000000LIBURE010 US Representative, Dist 10                              LIB Roy Eriksen                       Precinct 102                  Distrcit 10              01 
00060030003000002000000000000000002000000000000000000000000000000000000000000000000000000000000000000LIBURE010 US Representative, Dist 10                              LIB Roy Eriksen                       Precinct 103                  Distrcit 10              01 
00060030004000003000000000003000000000000000000000000000000000000000000000000000000000000000000000000LIBURE010 US Representative, Dist 10                              LIB Roy Eriksen                       Precinct 201                  Distrcit 10              01 
00060030005000015000001000012000002000000000000000000000000000000000000000000000000000000000000000000LIBURE010 US Representative, Dist 10                              LIB Roy Eriksen                       Precinct 202                  Distrcit 10              01 
00060030006000006000000000004000002000000000000000000000000000000000000000000000000000000000000000000LIBURE010 US Representative, Dist 10                              LIB Roy Eriksen                       Precinct 203                  Distrcit 10              01 
00060030010000002000000000002000000000000000000000000000000000000000000000000000000000000000000000000LIBURE010 US Representative, Dist 10                              LIB Roy Eriksen                       Precinct 304                  Distrcit 10              01 
00060030011000010000002000004000004000000000000000000000000000000000000000000000000000000000000000000LIBURE010 US Representative, Dist 10                              LIB Roy Eriksen                       Precinct 401                  Distrcit 10              01 
00060030012000001000000000001000000000000000000000000000000000000000000000000000000000000000000000000LIBURE010 US Representative, Dist 10                              LIB Roy Eriksen                       Precinct 402                  Distrcit 10              01 
00060030013000002000000000002000000000000000000000000000000000000000000000000000000000000000000000000LIBURE010 US Representative, Dist 10                              LIB Roy Eriksen                       Precinct 403                  Distrcit 10              01 
00060030014000008000002000003000003000000000000000000000000000000000000000000000000000000000000000000LIBURE010 US Representative, Dist 10                              LIB Roy Eriksen                       Precinct 404                  Distrcit 10              01 
00060040001000000000000000000000000000000000000000000000000000000000000000000000000000000000000000000   URE010 US Representative, Dist 10                              OVER VOTES                            Precinct 101                  Distrcit 10              01 
00060040002000000000000000000000000000000000000000000000000000000000000000000000000000000000000000000   URE010 US Representative, Dist 10                              OVER VOTES                            Precinct 102                  Distrcit 10              01 
00060040003000000000000000000000000000000000000000000000000000000000000000000000000000000000000000000   URE010 US Representative, Dist 10                              OVER VOTES                            Precinct 103                  Distrcit 10              01 
00060040004000000000000000000000000000000000000000000000000000000000000000000000000000000000000000000   URE010 US Representative, Dist 10                              OVER VOTES                            Precinct 201                  Distrcit 10              01 
00060040005000000000000000000000000000000000000000000000000000000000000000000000000000000000000000000   URE010 US Representative, Dist 10                              OVER VOTES                            Precinct 202                  Distrcit 10              01 
00060040006000000000000000000000000000000000000000000000000000000000000000000000000000000000000000000   URE010 US Representative, Dist 10                              OVER VOTES                            Precinct 203                  Distrcit 10              01 
00060040010000000000000000000000000000000000000000000000000000000000000000000000000000000000000000000   URE010 US Representative, Dist 10                              OVER VOTES                            Precinct 304                  Distrcit 10              01 
00060040011000000000000000000000000000000000000000000000000000000000000000000000000000000000000000000   URE010 US Representative, Dist 10                              OVER VOTES                            Precinct 401                  Distrcit 10              01 
00060040012000000000000000000000000000000000000000000000000000000000000000000000000000000000000000000   URE010 US Representative, Dist 10                              OVER VOTES                            Precinct 402                  Distrcit 10              01 
00060040013000000000000000000000000000000000000000000000000000000000000000000000000000000000000000000   URE010 US Representative, Dist 10                              OVER VOTES                            Precinct 403                  Distrcit 10              01 
00060040014000000000000000000000000000000000000000000000000000000000000000000000000000000000000000000   URE010 US Representative, Dist 10                              OVER VOTES                            Precinct 404                  Distrcit 10              01 
00060050001000021000008000012000001000000000000000000000000000000000000000000000000000000000000000000   URE010 US Representative, Dist 10                              UNDER VOTES                           Precinct 101                  Distrcit 10              01 
00060050002000002000002000000000000000000000000000000000000000000000000000000000000000000000000000000   URE010 US Representative, Dist 10                              UNDER VOTES                           Precinct 102                  Distrcit 10              01 
00060050003000001000000000000000001000000000000000000000000000000000000000000000000000000000000000000   URE010 US Representative, Dist 10                              UNDER VOTES                           Precinct 103                  Distrcit 10              01 
00060050004000002000000000001000001000000000000000000000000000000000000000000000000000000000000000000   URE010 US Representative, Dist 10                              UNDER VOTES                           Precinct 201                  Distrcit 10              01 
00060050005000012000007000005000000000000000000000000000000000000000000000000000000000000000000000000   URE010 US Representative, Dist 10                              UNDER VOTES                           Precinct 202                  Distrcit 10              01 
00060050006000004000001000003000000000000000000000000000000000000000000000000000000000000000000000000   URE010 US Representative, Dist 10                              UNDER VOTES                           Precinct 203                  Distrcit 10              01 
00060050010000001000001000000000000000000000000000000000000000000000000000000000000000000000000000000   URE010 US Representative, Dist 10                              UNDER VOTES                           Precinct 304                  Distrcit 10              01 
00060050011000010000003000002000005000000000000000000000000000000000000000000000000000000000000000000   URE010 US Representative, Dist 10                              UNDER VOTES                           Precinct 401                  Distrcit 10              01 
00060050012000002000000000002000000000000000000000000000000000000000000000000000000000000000000000000   URE010 US Representative, Dist 10                              UNDER VOTES                           Precinct 402                  Distrcit 10              01 
00060050013000003000000000001000002000000000000000000000000000000000000000000000000000000000000000000   URE010 US Representative, Dist 10                              UNDER VOTES                           Precinct 403                  Distrcit 10              01 
00060050014000005000001000004000000000000000000000000000000000000000000000000000000000000000000000000   URE010 US Representative, Dist 10                              UNDER VOTES                           Precinct 404                  Distrcit 10              01 
00070010007000101000005000063000033000000000000000000000000000000000000000000000000000000000000000000REPURE017 US Representative, Dist 17                              REP Pete Sessions                     Precinct 301                  District 17              01 
00070010008000869000041000674000154000000000000000000000000000000000000000000000000000000000000000000REPURE017 US Representative, Dist 17                              REP Pete Sessions                     Precinct 302                  District 17              01 
00070010009000744000035000474000235000000000000000000000000000000000000000000000000000000000000000000REPURE017 US Representative, Dist 17                              REP Pete Sessions                     Precinct 303                  District 17              01 
00070010015000376000032000278000066000000000000000000000000000000000000000000000000000000000000000000REPURE017 US Representative, Dist 17                              REP Pete Sessions                     Precinct 405                  District 17              01 
00070020007000013000003000006000004000000000000000000000000000000000000000000000000000000000000000000DEMURE017 US Representative, Dist 17                              DEM Rick Kennedy                      Precinct 301                  District 17              01 
00070020008000205000041000142000022000000000000000000000000000000000000000000000000000000000000000000DEMURE017 US Representative, Dist 17                              DEM Rick Kennedy                      Precinct 302                  District 17              01 
00070020009000220000044000111000065000000000000000000000000000000000000000000000000000000000000000000DEMURE017 US Representative, Dist 17                              DEM Rick Kennedy                      Precinct 303                  District 17              01 
00070020015000061000005000051000005000000000000000000000000000000000000000000000000000000000000000000DEMURE017 US Representative, Dist 17                              DEM Rick Kennedy                      Precinct 405                  District 17              01 
00070030007000002000000000001000001000000000000000000000000000000000000000000000000000000000000000000LIBURE017 US Representative, Dist 17                              LIB Ted Brown                         Precinct 301                  District 17              01 
00070030008000032000001000022000009000000000000000000000000000000000000000000000000000000000000000000LIBURE017 US Representative, Dist 17                              LIB Ted Brown                         Precinct 302                  District 17              01 
00070030009000022000003000010000009000000000000000000000000000000000000000000000000000000000000000000LIBURE017 US Representative, Dist 17                              LIB Ted Brown                         Precinct 303                  District 17              01 
00070030015000007000000000006000001000000000000000000000000000000000000000000000000000000000000000000LIBURE017 US Representative, Dist 17                              LIB Ted Brown                         Precinct 405                  District 17              01 
00070040007000000000000000000000000000000000000000000000000000000000000000000000000000000000000000000   URE017 US Representative, Dist 17                              OVER VOTES                            Precinct 301                  District 17              01 
00070040008000000000000000000000000000000000000000000000000000000000000000000000000000000000000000000   URE017 US Representative, Dist 17                              OVER VOTES                            Precinct 302                  District 17              01 
00070040009000000000000000000000000000000000000000000000000000000000000000000000000000000000000000000   URE017 US Representative, Dist 17                              OVER VOTES                            Precinct 303                  District 17              01 
00070040015000000000000000000000000000000000000000000000000000000000000000000000000000000000000000000   URE017 US Representative, Dist 17                              OVER VOTES                            Precinct 405                  District 17              01 
00070050007000001000000000001000000000000000000000000000000000000000000000000000000000000000000000000   URE017 US Representative, Dist 17                              UNDER VOTES                           Precinct 301                  District 17              01 
00070050008000028000005000020000003000000000000000000000000000000000000000000000000000000000000000000   URE017 US Representative, Dist 17                              UNDER VOTES                           Precinct 302                  District 17              01 
00070050009000016000005000005000006000000000000000000000000000000000000000000000000000000000000000000   URE017 US Representative, Dist 17                              UNDER VOTES                           Precinct 303                  District 17              01 
00070050015000012000002000009000001000000000000000000000000000000000000000000000000000000000000000000   URE017 US Representative, Dist 17                              UNDER VOTES                           Precinct 405                  District 17              01 
00080010001000830000049000663000118000000000000000000000000000000000000000000000000000000000000000000REP       Railroad Commissioner                                   REP James "Jim" Wright                Precinct 101                                           01 
00080010002000108000007000088000013000000000000000000000000000000000000000000000000000000000000000000REP       Railroad Commissioner                                   REP James "Jim" Wright                Precinct 102                                           01 
00080010003000179000019000127000033000000000000000000000000000000000000000000000000000000000000000000REP       Railroad Commissioner                                   REP James "Jim" Wright                Precinct 103                                           01 
00080010004000421000023000328000070000000000000000000000000000000000000000000000000000000000000000000REP       Railroad Commissioner                                   REP James "Jim" Wright                Precinct 201                                           01 
00080010005001010000059000839000112000000000000000000000000000000000000000000000000000000000000000000REP       Railroad Commissioner                                   REP James "Jim" Wright                Precinct 202                                           01 
00080010006000271000017000206000048000000000000000000000000000000000000000000000000000000000000000000REP       Railroad Commissioner                                   REP James "Jim" Wright                Precinct 203                                           01 
00080010007000098000004000062000032000000000000000000000000000000000000000000000000000000000000000000REP       Railroad Commissioner                                   REP James "Jim" Wright                Precinct 301                                           01 
00080010008000886000047000682000157000000000000000000000000000000000000000000000000000000000000000000REP       Railroad Commissioner                                   REP James "Jim" Wright                Precinct 302                                           01 
00080010009000737000037000470000230000000000000000000000000000000000000000000000000000000000000000000REP       Railroad Commissioner                                   REP James "Jim" Wright                Precinct 303                                           01 
00080010010000164000018000113000033000000000000000000000000000000000000000000000000000000000000000000REP       Railroad Commissioner                                   REP James "Jim" Wright                Precinct 304                                           01 
00080010011000409000029000241000139000000000000000000000000000000000000000000000000000000000000000000REP       Railroad Commissioner                                   REP James "Jim" Wright                Precinct 401                                           01 
00080010012000058000002000045000011000000000000000000000000000000000000000000000000000000000000000000REP       Railroad Commissioner                                   REP James "Jim" Wright                Precinct 402                                           01 
00080010013000190000007000114000069000000000000000000000000000000000000000000000000000000000000000000REP       Railroad Commissioner                                   REP James "Jim" Wright                Precinct 403                                           01 
00080010014000402000024000323000055000000000000000000000000000000000000000000000000000000000000000000REP       Railroad Commissioner                                   REP James "Jim" Wright                Precinct 404                                           01 
00080010015000361000033000263000065000000000000000000000000000000000000000000000000000000000000000000REP       Railroad Commissioner                                   REP James "Jim" Wright                Precinct 405                                           01 
00080020001000323000038000230000055000000000000000000000000000000000000000000000000000000000000000000DEM       Railroad Commissioner                                   DEM Chrysta Castaneda                 Precinct 101                                           01 
00080020002000093000020000065000008000000000000000000000000000000000000000000000000000000000000000000DEM       Railroad Commissioner                                   DEM Chrysta Castaneda                 Precinct 102                                           01 
00080020003000017000003000013000001000000000000000000000000000000000000000000000000000000000000000000DEM       Railroad Commissioner                                   DEM Chrysta Castaneda                 Precinct 103                                           01 
00080020004000026000006000016000004000000000000000000000000000000000000000000000000000000000000000000DEM       Railroad Commissioner                                   DEM Chrysta Castaneda                 Precinct 201                                           01 
00080020005000203000034000151000018000000000000000000000000000000000000000000000000000000000000000000DEM       Railroad Commissioner                                   DEM Chrysta Castaneda                 Precinct 202                                           01 
00080020006000046000014000026000006000000000000000000000000000000000000000000000000000000000000000000DEM       Railroad Commissioner                                   DEM Chrysta Castaneda                 Precinct 203                                           01 
00080020007000016000004000007000005000000000000000000000000000000000000000000000000000000000000000000DEM       Railroad Commissioner                                   DEM Chrysta Castaneda                 Precinct 301                                           01 
00080020008000192000038000136000018000000000000000000000000000000000000000000000000000000000000000000DEM       Railroad Commissioner                                   DEM Chrysta Castaneda                 Precinct 302                                           01 
00080020009000213000042000109000062000000000000000000000000000000000000000000000000000000000000000000DEM       Railroad Commissioner                                   DEM Chrysta Castaneda                 Precinct 303                                           01 
00080020010000033000009000022000002000000000000000000000000000000000000000000000000000000000000000000DEM       Railroad Commissioner                                   DEM Chrysta Castaneda                 Precinct 304                                           01 
00080020011000135000024000068000043000000000000000000000000000000000000000000000000000000000000000000DEM       Railroad Commissioner                                   DEM Chrysta Castaneda                 Precinct 401                                           01 
00080020012000064000016000040000008000000000000000000000000000000000000000000000000000000000000000000DEM       Railroad Commissioner                                   DEM Chrysta Castaneda                 Precinct 402                                           01 
00080020013000044000012000029000003000000000000000000000000000000000000000000000000000000000000000000DEM       Railroad Commissioner                                   DEM Chrysta Castaneda                 Precinct 403                                           01 
00080020014000191000020000140000031000000000000000000000000000000000000000000000000000000000000000000DEM       Railroad Commissioner                                   DEM Chrysta Castaneda                 Precinct 404                                           01 
00080020015000062000005000052000005000000000000000000000000000000000000000000000000000000000000000000DEM       Railroad Commissioner                                   DEM Chrysta Castaneda                 Precinct 405                                           01 
00080030001000028000002000022000004000000000000000000000000000000000000000000000000000000000000000000LIB       Railroad Commissioner                                   LIB Matt Sterett                      Precinct 101                                           01 
00080030002000004000000000003000001000000000000000000000000000000000000000000000000000000000000000000LIB       Railroad Commissioner                                   LIB Matt Sterett                      Precinct 102                                           01 
00080030003000000000000000000000000000000000000000000000000000000000000000000000000000000000000000000LIB       Railroad Commissioner                                   LIB Matt Sterett                      Precinct 103                                           01 
00080030004000004000000000003000001000000000000000000000000000000000000000000000000000000000000000000LIB       Railroad Commissioner                                   LIB Matt Sterett                      Precinct 201                                           01 
00080030005000016000001000013000002000000000000000000000000000000000000000000000000000000000000000000LIB       Railroad Commissioner                                   LIB Matt Sterett                      Precinct 202                                           01 
00080030006000005000000000004000001000000000000000000000000000000000000000000000000000000000000000000LIB       Railroad Commissioner                                   LIB Matt Sterett                      Precinct 203                                           01 
00080030007000002000000000001000001000000000000000000000000000000000000000000000000000000000000000000LIB       Railroad Commissioner                                   LIB Matt Sterett                      Precinct 301                                           01 
00080030008000025000001000018000006000000000000000000000000000000000000000000000000000000000000000000LIB       Railroad Commissioner                                   LIB Matt Sterett                      Precinct 302                                           01 
00080030009000026000004000011000011000000000000000000000000000000000000000000000000000000000000000000LIB       Railroad Commissioner                                   LIB Matt Sterett                      Precinct 303                                           01 
00080030010000003000000000003000000000000000000000000000000000000000000000000000000000000000000000000LIB       Railroad Commissioner                                   LIB Matt Sterett                      Precinct 304                                           01 
00080030011000013000002000004000007000000000000000000000000000000000000000000000000000000000000000000LIB       Railroad Commissioner                                   LIB Matt Sterett                      Precinct 401                                           01 
00080030012000003000000000002000001000000000000000000000000000000000000000000000000000000000000000000LIB       Railroad Commissioner                                   LIB Matt Sterett                      Precinct 402                                           01 
00080030013000004000000000002000002000000000000000000000000000000000000000000000000000000000000000000LIB       Railroad Commissioner                                   LIB Matt Sterett                      Precinct 403                                           01 
00080030014000007000001000005000001000000000000000000000000000000000000000000000000000000000000000000LIB       Railroad Commissioner                                   LIB Matt Sterett                      Precinct 404                                           01 
00080030015000011000000000009000002000000000000000000000000000000000000000000000000000000000000000000LIB       Railroad Commissioner                                   LIB Matt Sterett                      Precinct 405                                           01 
00080040001000004000000000002000002000000000000000000000000000000000000000000000000000000000000000000GRN       Railroad Commissioner                                   GRN Katija "Kat" Gruene               Precinct 101                                           01 
00080040002000000000000000000000000000000000000000000000000000000000000000000000000000000000000000000GRN       Railroad Commissioner                                   GRN Katija "Kat" Gruene               Precinct 102                                           01 
