01010010001001600000000000000000000000000000000          REGISTERED VOTERS - TOTAL                               REGISTERED VOTERS - TOTAL             Precinct 1                                             00 
01010010002000218000000000000000000000000000000          REGISTERED VOTERS - TOTAL                               REGISTERED VOTERS - TOTAL             Precinct 1A                                            00 
01010010003000373000000000000000000000000000000          REGISTERED VOTERS - TOTAL                               REGISTERED VOTERS - TOTAL             Precinct 2                                             00 
01010010004000638000000000000000000000000000000          REGISTERED VOTERS - TOTAL                               REGISTERED VOTERS - TOTAL             Precinct 3                                             00 
01010010005000953000000000000000000000000000000          REGISTERED VOTERS - TOTAL                               REGISTERED VOTERS - TOTAL             Precinct 4                                             00 
01010010006000555000000000000000000000000000000          REGISTERED VOTERS - TOTAL                               REGISTERED VOTERS - TOTAL             Precinct 5                                             00 
01010010007000065000000000000000000000000000000          REGISTERED VOTERS - TOTAL                               REGISTERED VOTERS - TOTAL             Precinct 5A                                            00 
01010010008001146000000000000000000000000000000          REGISTERED VOTERS - TOTAL                               REGISTERED VOTERS - TOTAL             Precinct 6                                             00 
01010010009000659000000000000000000000000000000          REGISTERED VOTERS - TOTAL                               REGISTERED VOTERS - TOTAL             Precinct 7                                             00 
01010010010001105000000000000000000000000000000          REGISTERED VOTERS - TOTAL                               REGISTERED VOTERS - TOTAL             Precinct 8                                             00 
01010010011000329000000000000000000000000000000          REGISTERED VOTERS - TOTAL                               REGISTERED VOTERS - TOTAL             Precinct 9                                             00 
01010010012001094000000000000000000000000000000          REGISTERED VOTERS - TOTAL                               REGISTERED VOTERS - TOTAL             Precinct 10                                            00 
01010010013001042000000000000000000000000000000          REGISTERED VOTERS - TOTAL                               REGISTERED VOTERS - TOTAL             Precinct 11                                            00 
01010010014000838000000000000000000000000000000          REGISTERED VOTERS - TOTAL                               REGISTERED VOTERS - TOTAL             Precinct 12                                            00 
01010010015000697000000000000000000000000000000          REGISTERED VOTERS - TOTAL                               REGISTERED VOTERS - TOTAL             Precinct 13                                            00 
01010010016000215000000000000000000000000000000          REGISTERED VOTERS - TOTAL                               REGISTERED VOTERS - TOTAL             Precinct 14                                            00 
01010010017000212000000000000000000000000000000          REGISTERED VOTERS - TOTAL                               REGISTERED VOTERS - TOTAL             Precinct 14A                                           00 
01020010001001142000096000873000011000162000000          BALLOTS CAST - TOTAL                                    BALLOTS CAST - TOTAL                  Precinct 1                                             00 
01020010002000182000013000141000007000021000000          BALLOTS CAST - TOTAL                                    BALLOTS CAST - TOTAL                  Precinct 1A                                            00 
01020010003000295000022000150000000000123000000          BALLOTS CAST - TOTAL                                    BALLOTS CAST - TOTAL                  Precinct 2                                             00 
01020010004000478000035000339000001000103000000          BALLOTS CAST - TOTAL                                    BALLOTS CAST - TOTAL                  Precinct 3                                             00 
01020010005000695000055000260000002000378000000          BALLOTS CAST - TOTAL                                    BALLOTS CAST - TOTAL                  Precinct 4                                             00 
01020010006000450000032000246000001000171000000          BALLOTS CAST - TOTAL                                    BALLOTS CAST - TOTAL                  Precinct 5                                             00 
01020010007000040000001000029000000000010000000          BALLOTS CAST - TOTAL                                    BALLOTS CAST - TOTAL                  Precinct 5A                                            00 
01020010008000930000091000400000004000435000000          BALLOTS CAST - TOTAL                                    BALLOTS CAST - TOTAL                  Precinct 6                                             00 
01020010009000492000039000245000001000207000000          BALLOTS CAST - TOTAL                                    BALLOTS CAST - TOTAL                  Precinct 7                                             00 
01020010010000790000045000409000007000329000000          BALLOTS CAST - TOTAL                                    BALLOTS CAST - TOTAL                  Precinct 8                                             00 
01020010011000254000015000165000001000073000000          BALLOTS CAST - TOTAL                                    BALLOTS CAST - TOTAL                  Precinct 9                                             00 
01020010012000813000049000519000007000238000000          BALLOTS CAST - TOTAL                                    BALLOTS CAST - TOTAL                  Precinct 10                                            00 
01020010013000682000053000382000010000237000000          BALLOTS CAST - TOTAL                                    BALLOTS CAST - TOTAL                  Precinct 11                                            00 
01020010014000605000068000248000005000284000000          BALLOTS CAST - TOTAL                                    BALLOTS CAST - TOTAL                  Precinct 12                                            00 
01020010015000560000065000344000006000145000000          BALLOTS CAST - TOTAL                                    BALLOTS CAST - TOTAL                  Precinct 13                                            00 
01020010016000151000017000109000000000025000000          BALLOTS CAST - TOTAL                                    BALLOTS CAST - TOTAL                  Precinct 14                                            00 
01020010017000163000016000102000000000045000000          BALLOTS CAST - TOTAL                                    BALLOTS CAST - TOTAL                  Precinct 14A                                           00 
01030010001000955000063000748000010000134000000REP       President / Vice-President                              Donald J. Trump / Michael R. P        Precinct 1                                             01 
01030010002000158000010000124000004000020000000REP       President / Vice-President                              Donald J. Trump / Michael R. P        Precinct 1A                                            01 
01030010003000258000011000135000000000112000000REP       President / Vice-President                              Donald J. Trump / Michael R. P        Precinct 2                                             01 
01030010004000420000023000304000001000092000000REP       President / Vice-President                              Donald J. Trump / Michael R. P        Precinct 3                                             01 
01030010005000600000041000227000002000330000000REP       President / Vice-President                              Donald J. Trump / Michael R. P        Precinct 4                                             01 
01030010006000399000027000218000001000153000000REP       President / Vice-President                              Donald J. Trump / Michael R. P        Precinct 5                                             01 
01030010007000039000001000028000000000010000000REP       President / Vice-President                              Donald J. Trump / Michael R. P        Precinct 5A                                            01 
01030010008000826000069000363000003000391000000REP       President / Vice-President                              Donald J. Trump / Michael R. P        Precinct 6                                             01 
01030010009000455000029000229000001000196000000REP       President / Vice-President                              Donald J. Trump / Michael R. P        Precinct 7                                             01 
01030010010000684000035000353000006000290000000REP       President / Vice-President                              Donald J. Trump / Michael R. P        Precinct 8                                             01 
01030010011000234000011000154000001000068000000REP       President / Vice-President                              Donald J. Trump / Michael R. P        Precinct 9                                             01 
01030010012000740000034000480000005000221000000REP       President / Vice-President                              Donald J. Trump / Michael R. P        Precinct 10                                            01 
01030010013000568000038000324000010000196000000REP       President / Vice-President                              Donald J. Trump / Michael R. P        Precinct 11                                            01 
01030010014000431000031000192000004000204000000REP       President / Vice-President                              Donald J. Trump / Michael R. P        Precinct 12                                            01 
01030010015000505000053000312000006000134000000REP       President / Vice-President                              Donald J. Trump / Michael R. P        Precinct 13                                            01 
01030010016000124000010000092000000000022000000REP       President / Vice-President                              Donald J. Trump / Michael R. P        Precinct 14                                            01 
01030010017000127000009000079000000000039000000REP       President / Vice-President                              Donald J. Trump / Michael R. P        Precinct 14A                                           01 
01030020001000169000031000110000001000027000000DEM       President / Vice-President                              Joseph R. Biden / Kamala D. Ha        Precinct 1                                             01 
01030020002000023000003000016000003000001000000DEM       President / Vice-President                              Joseph R. Biden / Kamala D. Ha        Precinct 1A                                            01 
01030020003000034000010000014000000000010000000DEM       President / Vice-President                              Joseph R. Biden / Kamala D. Ha        Precinct 2                                             01 
01030020004000053000011000031000000000011000000DEM       President / Vice-President                              Joseph R. Biden / Kamala D. Ha        Precinct 3                                             01 
01030020005000083000011000030000000000042000000DEM       President / Vice-President                              Joseph R. Biden / Kamala D. Ha        Precinct 4                                             01 
01030020006000046000005000026000000000015000000DEM       President / Vice-President                              Joseph R. Biden / Kamala D. Ha        Precinct 5                                             01 
01030020007000000000000000000000000000000000000DEM       President / Vice-President                              Joseph R. Biden / Kamala D. Ha        Precinct 5A                                            01 
01030020008000096000022000031000001000042000000DEM       President / Vice-President                              Joseph R. Biden / Kamala D. Ha        Precinct 6                                             01 
01030020009000032000009000015000000000008000000DEM       President / Vice-President                              Joseph R. Biden / Kamala D. Ha        Precinct 7                                             01 
01030020010000097000009000053000001000034000000DEM       President / Vice-President                              Joseph R. Biden / Kamala D. Ha        Precinct 8                                             01 
01030020011000019000004000011000000000004000000DEM       President / Vice-President                              Joseph R. Biden / Kamala D. Ha        Precinct 9                                             01 
01030020012000057000015000033000002000007000000DEM       President / Vice-President                              Joseph R. Biden / Kamala D. Ha        Precinct 10                                            01 
01030020013000101000015000051000000000035000000DEM       President / Vice-President                              Joseph R. Biden / Kamala D. Ha        Precinct 11                                            01 
01030020014000157000036000052000001000068000000DEM       President / Vice-President                              Joseph R. Biden / Kamala D. Ha        Precinct 12                                            01 
01030020015000047000011000027000000000009000000DEM       President / Vice-President                              Joseph R. Biden / Kamala D. Ha        Precinct 13                                            01 
01030020016000025000006000016000000000003000000DEM       President / Vice-President                              Joseph R. Biden / Kamala D. Ha        Precinct 14                                            01 
01030020017000033000007000022000000000004000000DEM       President / Vice-President                              Joseph R. Biden / Kamala D. Ha        Precinct 14A                                           01 
01030030001000008000000000008000000000000000000LIB       President / Vice-President                              Jo Jorgensen / Jeremy "Spike"         Precinct 1                                             01 
01030030002000001000000000001000000000000000000LIB       President / Vice-President                              Jo Jorgensen / Jeremy "Spike"         Precinct 1A                                            01 
01030030003000002000001000000000000000001000000LIB       President / Vice-President                              Jo Jorgensen / Jeremy "Spike"         Precinct 2                                             01 
01030030004000003000000000003000000000000000000LIB       President / Vice-President                              Jo Jorgensen / Jeremy "Spike"         Precinct 3                                             01 
01030030005000003000001000001000000000001000000LIB       President / Vice-President                              Jo Jorgensen / Jeremy "Spike"         Precinct 4                                             01 
01030030006000004000000000001000000000003000000LIB       President / Vice-President                              Jo Jorgensen / Jeremy "Spike"         Precinct 5                                             01 
01030030007000001000000000001000000000000000000LIB       President / Vice-President                              Jo Jorgensen / Jeremy "Spike"         Precinct 5A                                            01 
01030030008000007000000000005000000000002000000LIB       President / Vice-President                              Jo Jorgensen / Jeremy "Spike"         Precinct 6                                             01 
01030030009000001000000000001000000000000000000LIB       President / Vice-President                              Jo Jorgensen / Jeremy "Spike"         Precinct 7                                             01 
01030030010000004000000000002000000000002000000LIB       President / Vice-President                              Jo Jorgensen / Jeremy "Spike"         Precinct 8                                             01 
01030030011000001000000000000000000000001000000LIB       President / Vice-President                              Jo Jorgensen / Jeremy "Spike"         Precinct 9                                             01 
01030030012000006000000000002000000000004000000LIB       President / Vice-President                              Jo Jorgensen / Jeremy "Spike"         Precinct 10                                            01 
01030030013000007000000000004000000000003000000LIB       President / Vice-President                              Jo Jorgensen / Jeremy "Spike"         Precinct 11                                            01 
01030030014000005000000000000000000000005000000LIB       President / Vice-President                              Jo Jorgensen / Jeremy "Spike"         Precinct 12                                            01 
01030030015000003000000000002000000000001000000LIB       President / Vice-President                              Jo Jorgensen / Jeremy "Spike"         Precinct 13                                            01 
01030030016000001000000000001000000000000000000LIB       President / Vice-President                              Jo Jorgensen / Jeremy "Spike"         Precinct 14                                            01 
01030030017000000000000000000000000000000000000LIB       President / Vice-President                              Jo Jorgensen / Jeremy "Spike"         Precinct 14A                                           01 
01030040001000001000000000001000000000000000000GRN       President / Vice-President                              Howie Hawkins / Angela Walker         Precinct 1                                             01 
01030040002000000000000000000000000000000000000GRN       President / Vice-President                              Howie Hawkins / Angela Walker         Precinct 1A                                            01 
01030040003000000000000000000000000000000000000GRN       President / Vice-President                              Howie Hawkins / Angela Walker         Precinct 2                                             01 
01030040004000000000000000000000000000000000000GRN       President / Vice-President                              Howie Hawkins / Angela Walker         Precinct 3                                             01 
01030040005000001000000000001000000000000000000GRN       President / Vice-President                              Howie Hawkins / Angela Walker         Precinct 4                                             01 
01030040006000001000000000001000000000000000000GRN       President / Vice-President                              Howie Hawkins / Angela Walker         Precinct 5                                             01 
01030040007000000000000000000000000000000000000GRN       President / Vice-President                              Howie Hawkins / Angela Walker         Precinct 5A                                            01 
01030040008000000000000000000000000000000000000GRN       President / Vice-President                              Howie Hawkins / Angela Walker         Precinct 6                                             01 
01030040009000000000000000000000000000000000000GRN       President / Vice-President                              Howie Hawkins / Angela Walker         Precinct 7                                             01 
01030040010000002000000000001000000000001000000GRN       President / Vice-President                              Howie Hawkins / Angela Walker         Precinct 8                                             01 
01030040011000000000000000000000000000000000000GRN       President / Vice-President                              Howie Hawkins / Angela Walker         Precinct 9                                             01 
01030040012000001000000000001000000000000000000GRN       President / Vice-President                              Howie Hawkins / Angela Walker         Precinct 10                                            01 
01030040013000003000000000001000000000002000000GRN       President / Vice-President                              Howie Hawkins / Angela Walker         Precinct 11                                            01 
01030040014000002000000000001000000000001000000GRN       President / Vice-President                              Howie Hawkins / Angela Walker         Precinct 12                                            01 
01030040015000002000001000001000000000000000000GRN       President / Vice-President                              Howie Hawkins / Angela Walker         Precinct 13                                            01 
01030040016000000000000000000000000000000000000GRN       President / Vice-President                              Howie Hawkins / Angela Walker         Precinct 14                                            01 
01030040017000001000000000001000000000000000000GRN       President / Vice-President                              Howie Hawkins / Angela Walker         Precinct 14A                                           01 
01030050001000001000000000000000000000001000000NON       President / Vice-President                              WRITE-IN                              Precinct 1                                             01 
01030050002000000000000000000000000000000000000NON       President / Vice-President                              WRITE-IN                              Precinct 1A                                            01 
01030050003000001000000000001000000000000000000NON       President / Vice-President                              WRITE-IN                              Precinct 2                                             01 
01030050004000001000001000000000000000000000000NON       President / Vice-President                              WRITE-IN                              Precinct 3                                             01 
01030050005000002000001000000000000000001000000NON       President / Vice-President                              WRITE-IN                              Precinct 4                                             01 
01030050006000000000000000000000000000000000000NON       President / Vice-President                              WRITE-IN                              Precinct 5                                             01 
01030050007000000000000000000000000000000000000NON       President / Vice-President                              WRITE-IN                              Precinct 5A                                            01 
01030050008000000000000000000000000000000000000NON       President / Vice-President                              WRITE-IN                              Precinct 6                                             01 
01030050009000001000000000000000000000001000000NON       President / Vice-President                              WRITE-IN                              Precinct 7                                             01 
01030050010000001000000000000000000000001000000NON       President / Vice-President                              WRITE-IN                              Precinct 8                                             01 
01030050011000000000000000000000000000000000000NON       President / Vice-President                              WRITE-IN                              Precinct 9                                             01 
01030050012000005000000000000000000000005000000NON       President / Vice-President                              WRITE-IN                              Precinct 10                                            01 
01030050013000002000000000002000000000000000000NON       President / Vice-President                              WRITE-IN                              Precinct 11                                            01 
01030050014000004000000000002000000000002000000NON       President / Vice-President                              WRITE-IN                              Precinct 12                                            01 
01030050015000000000000000000000000000000000000NON       President / Vice-President                              WRITE-IN                              Precinct 13                                            01 
01030050016000001000001000000000000000000000000NON       President / Vice-President                              WRITE-IN                              Precinct 14                                            01 
01030050017000000000000000000000000000000000000NON       President / Vice-President                              WRITE-IN                              Precinct 14A                                           01 
01030060001000000000000000000000000000000000000          President / Vice-President                              OVER VOTES                            Precinct 1                                             01 
01030060002000000000000000000000000000000000000          President / Vice-President                              OVER VOTES                            Precinct 1A                                            01 
01030060003000000000000000000000000000000000000          President / Vice-President                              OVER VOTES                            Precinct 2                                             01 
01030060004000000000000000000000000000000000000          President / Vice-President                              OVER VOTES                            Precinct 3                                             01 
01030060005000000000000000000000000000000000000          President / Vice-President                              OVER VOTES                            Precinct 4                                             01 
01030060006000000000000000000000000000000000000          President / Vice-President                              OVER VOTES                            Precinct 5                                             01 
01030060007000000000000000000000000000000000000          President / Vice-President                              OVER VOTES                            Precinct 5A                                            01 
01030060008000000000000000000000000000000000000          President / Vice-President                              OVER VOTES                            Precinct 6                                             01 
01030060009000000000000000000000000000000000000          President / Vice-President                              OVER VOTES                            Precinct 7                                             01 
01030060010000000000000000000000000000000000000          President / Vice-President                              OVER VOTES                            Precinct 8                                             01 
01030060011000000000000000000000000000000000000          President / Vice-President                              OVER VOTES                            Precinct 9                                             01 
01030060012000000000000000000000000000000000000          President / Vice-President                              OVER VOTES                            Precinct 10                                            01 
01030060013000000000000000000000000000000000000          President / Vice-President                              OVER VOTES                            Precinct 11                                            01 
01030060014000000000000000000000000000000000000          President / Vice-President                              OVER VOTES                            Precinct 12                                            01 
01030060015000000000000000000000000000000000000          President / Vice-President                              OVER VOTES                            Precinct 13                                            01 
01030060016000000000000000000000000000000000000          President / Vice-President                              OVER VOTES                            Precinct 14                                            01 
01030060017000000000000000000000000000000000000          President / Vice-President                              OVER VOTES                            Precinct 14A                                           01 
01030070001000008000002000006000000000000000000          President / Vice-President                              UNDER VOTES                           Precinct 1                                             01 
01030070002000000000000000000000000000000000000          President / Vice-President                              UNDER VOTES                           Precinct 1A                                            01 
01030070003000000000000000000000000000000000000          President / Vice-President                              UNDER VOTES                           Precinct 2                                             01 
01030070004000001000000000001000000000000000000          President / Vice-President                              UNDER VOTES                           Precinct 3                                             01 
01030070005000006000001000001000000000004000000          President / Vice-President                              UNDER VOTES                           Precinct 4                                             01 
01030070006000000000000000000000000000000000000          President / Vice-President                              UNDER VOTES                           Precinct 5                                             01 
01030070007000000000000000000000000000000000000          President / Vice-President                              UNDER VOTES                           Precinct 5A                                            01 
01030070008000001000000000001000000000000000000          President / Vice-President                              UNDER VOTES                           Precinct 6                                             01 
01030070009000003000001000000000000000002000000          President / Vice-President                              UNDER VOTES                           Precinct 7                                             01 
01030070010000002000001000000000000000001000000          President / Vice-President                              UNDER VOTES                           Precinct 8                                             01 
01030070011000000000000000000000000000000000000          President / Vice-President                              UNDER VOTES                           Precinct 9                                             01 
01030070012000004000000000003000000000001000000          President / Vice-President                              UNDER VOTES                           Precinct 10                                            01 
01030070013000001000000000000000000000001000000          President / Vice-President                              UNDER VOTES                           Precinct 11                                            01 
01030070014000006000001000001000000000004000000          President / Vice-President                              UNDER VOTES                           Precinct 12                                            01 
01030070015000003000000000002000000000001000000          President / Vice-President                              UNDER VOTES                           Precinct 13                                            01 
01030070016000000000000000000000000000000000000          President / Vice-President                              UNDER VOTES                           Precinct 14                                            01 
01030070017000002000000000000000000000002000000          President / Vice-President                              UNDER VOTES                           Precinct 14A                                           01 
01040010001000939000065000734000010000130000000REP       United States Senator                                   John Cornyn                           Precinct 1                                             01 
01040010002000155000009000123000004000019000000REP       United States Senator                                   John Cornyn                           Precinct 1A                                            01 
01040010003000252000011000133000000000108000000REP       United States Senator                                   John Cornyn                           Precinct 2                                             01 
01040010004000415000026000299000001000089000000REP       United States Senator                                   John Cornyn                           Precinct 3                                             01 
01040010005000597000043000225000002000327000000REP       United States Senator                                   John Cornyn                           Precinct 4                                             01 
01040010006000388000027000212000001000148000000REP       United States Senator                                   John Cornyn                           Precinct 5                                             01 
01040010007000038000001000028000000000009000000REP       United States Senator                                   John Cornyn                           Precinct 5A                                            01 
01040010008000823000070000360000003000390000000REP       United States Senator                                   John Cornyn                           Precinct 6                                             01 
01040010009000450000030000227000000000193000000REP       United States Senator                                   John Cornyn                           Precinct 7                                             01 
01040010010000668000033000346000006000283000000REP       United States Senator                                   John Cornyn                           Precinct 8                                             01 
01040010011000221000011000144000001000065000000REP       United States Senator                                   John Cornyn                           Precinct 9                                             01 
01040010012000742000036000480000005000221000000REP       United States Senator                                   John Cornyn                           Precinct 10                                            01 
01040010013000553000036000319000010000188000000REP       United States Senator                                   John Cornyn                           Precinct 11                                            01 
01040010014000427000031000194000004000198000000REP       United States Senator                                   John Cornyn                           Precinct 12                                            01 
01040010015000507000055000312000006000134000000REP       United States Senator                                   John Cornyn                           Precinct 13                                            01 
01040010016000119000010000088000000000021000000REP       United States Senator                                   John Cornyn                           Precinct 14                                            01 
01040010017000127000009000081000000000037000000REP       United States Senator                                   John Cornyn                           Precinct 14A                                           01 
01040020001000154000030000099000001000024000000DEM       United States Senator                                   Mary "MJ" Hegar                       Precinct 1                                             01 
01040020002000019000002000013000003000001000000DEM       United States Senator                                   Mary "MJ" Hegar                       Precinct 1A                                            01 
01040020003000029000009000012000000000008000000DEM       United States Senator                                   Mary "MJ" Hegar                       Precinct 2                                             01 
01040020004000054000009000034000000000011000000DEM       United States Senator                                   Mary "MJ" Hegar                       Precinct 3                                             01 
01040020005000077000011000028000000000038000000DEM       United States Senator                                   Mary "MJ" Hegar                       Precinct 4                                             01 
01040020006000048000005000028000000000015000000DEM       United States Senator                                   Mary "MJ" Hegar                       Precinct 5                                             01 
01040020007000000000000000000000000000000000000DEM       United States Senator                                   Mary "MJ" Hegar                       Precinct 5A                                            01 
01040020008000091000021000033000001000036000000DEM       United States Senator                                   Mary "MJ" Hegar                       Precinct 6                                             01 
01040020009000035000009000015000000000011000000DEM       United States Senator                                   Mary "MJ" Hegar                       Precinct 7                                             01 
01040020010000092000009000051000001000031000000DEM       United States Senator                                   Mary "MJ" Hegar                       Precinct 8                                             01 
01040020011000021000004000013000000000004000000DEM       United States Senator                                   Mary "MJ" Hegar                       Precinct 9                                             01 
01040020012000050000013000029000002000006000000DEM       United States Senator                                   Mary "MJ" Hegar                       Precinct 10                                            01 
01040020013000104000016000051000000000037000000DEM       United States Senator                                   Mary "MJ" Hegar                       Precinct 11                                            01 
01040020014000160000035000051000001000073000000DEM       United States Senator                                   Mary "MJ" Hegar                       Precinct 12                                            01 
01040020015000042000010000024000000000008000000DEM       United States Senator                                   Mary "MJ" Hegar                       Precinct 13                                            01 
01040020016000024000007000015000000000002000000DEM       United States Senator                                   Mary "MJ" Hegar                       Precinct 14                                            01 
01040020017000028000006000017000000000005000000DEM       United States Senator                                   Mary "MJ" Hegar                       Precinct 14A                                           01 
01040030001000016000000000014000000000002000000LIB       United States Senator                                   Kerry Douglas McKennon                Precinct 1                                             01 
01040030002000004000001000003000000000000000000LIB       United States Senator                                   Kerry Douglas McKennon                Precinct 1A                                            01 
01040030003000004000001000000000000000003000000LIB       United States Senator                                   Kerry Douglas McKennon                Precinct 2                                             01 
01040030004000004000000000003000000000001000000LIB       United States Senator                                   Kerry Douglas McKennon                Precinct 3                                             01 
01040030005000007000001000003000000000003000000LIB       United States Senator                                   Kerry Douglas McKennon                Precinct 4                                             01 
01040030006000005000000000002000000000003000000LIB       United States Senator                                   Kerry Douglas McKennon                Precinct 5                                             01 
01040030007000001000000000001000000000000000000LIB       United States Senator                                   Kerry Douglas McKennon                Precinct 5A                                            01 
01040030008000009000000000004000000000005000000LIB       United States Senator                                   Kerry Douglas McKennon                Precinct 6                                             01 
01040030009000001000000000000000000000001000000LIB       United States Senator                                   Kerry Douglas McKennon                Precinct 7                                             01 
01040030010000010000000000005000000000005000000LIB       United States Senator                                   Kerry Douglas McKennon                Precinct 8                                             01 
01040030011000003000000000001000000000002000000LIB       United States Senator                                   Kerry Douglas McKennon                Precinct 9                                             01 
01040030012000011000000000005000000000006000000LIB       United States Senator                                   Kerry Douglas McKennon                Precinct 10                                            01 
01040030013000010000000000003000000000007000000LIB       United States Senator                                   Kerry Douglas McKennon                Precinct 11                                            01 
01040030014000006000000000003000000000003000000LIB       United States Senator                                   Kerry Douglas McKennon                Precinct 12                                            01 
01040030015000005000000000003000000000002000000LIB       United States Senator                                   Kerry Douglas McKennon                Precinct 13                                            01 
01040030016000002000000000002000000000000000000LIB       United States Senator                                   Kerry Douglas McKennon                Precinct 14                                            01 
01040030017000004000001000001000000000002000000LIB       United States Senator                                   Kerry Douglas McKennon                Precinct 14A                                           01 
01040040001000007000000000004000000000003000000GRN       United States Senator                                   David B. Collins                      Precinct 1                                             01 
01040040002000001000001000000000000000000000000GRN       United States Senator                                   David B. Collins                      Precinct 1A                                            01 
01040040003000001000000000001000000000000000000GRN       United States Senator                                   David B. Collins                      Precinct 2                                             01 
01040040004000001000000000001000000000000000000GRN       United States Senator                                   David B. Collins                      Precinct 3                                             01 
01040040005000004000000000003000000000001000000GRN       United States Senator                                   David B. Collins                      Precinct 4                                             01 
01040040006000002000000000000000000000002000000GRN       United States Senator                                   David B. Collins                      Precinct 5                                             01 
01040040007000000000000000000000000000000000000GRN       United States Senator                                   David B. Collins                      Precinct 5A                                            01 
01040040008000004000000000001000000000003000000GRN       United States Senator                                   David B. Collins                      Precinct 6                                             01 
01040040009000002000000000001000000000001000000GRN       United States Senator                                   David B. Collins                      Precinct 7                                             01 
01040040010000008000001000004000000000003000000GRN       United States Senator                                   David B. Collins                      Precinct 8                                             01 
01040040011000001000000000001000000000000000000GRN       United States Senator                                   David B. Collins                      Precinct 9                                             01 
01040040012000000000000000000000000000000000000GRN       United States Senator                                   David B. Collins                      Precinct 10                                            01 
01040040013000002000000000002000000000000000000GRN       United States Senator                                   David B. Collins                      Precinct 11                                            01 
01040040014000005000000000000000000000005000000GRN       United States Senator                                   David B. Collins                      Precinct 12                                            01 
01040040015000002000000000001000000000001000000GRN       United States Senator                                   David B. Collins                      Precinct 13                                            01 
01040040016000000000000000000000000000000000000GRN       United States Senator                                   David B. Collins                      Precinct 14                                            01 
01040040017000001000000000001000000000000000000GRN       United States Senator                                   David B. Collins                      Precinct 14A                                           01 
01040050001000000000000000000000000000000000000NON       United States Senator                                   WRITE-IN                              Precinct 1                                             01 
01040050002000000000000000000000000000000000000NON       United States Senator                                   WRITE-IN                              Precinct 1A                                            01 
01040050003000000000000000000000000000000000000NON       United States Senator                                   WRITE-IN                              Precinct 2                                             01 
01040050004000000000000000000000000000000000000NON       United States Senator                                   WRITE-IN                              Precinct 3                                             01 
01040050005000000000000000000000000000000000000NON       United States Senator                                   WRITE-IN                              Precinct 4                                             01 
01040050006000001000000000001000000000000000000NON       United States Senator                                   WRITE-IN                              Precinct 5                                             01 
01040050007000000000000000000000000000000000000NON       United States Senator                                   WRITE-IN                              Precinct 5A                                            01 
01040050008000000000000000000000000000000000000NON       United States Senator                                   WRITE-IN                              Precinct 6                                             01 
01040050009000000000000000000000000000000000000NON       United States Senator                                   WRITE-IN                              Precinct 7                                             01 
01040050010000000000000000000000000000000000000NON       United States Senator                                   WRITE-IN                              Precinct 8                                             01 
01040050011000000000000000000000000000000000000NON       United States Senator                                   WRITE-IN                              Precinct 9                                             01 
01040050012000000000000000000000000000000000000NON       United States Senator                                   WRITE-IN                              Precinct 10                                            01 
01040050013000000000000000000000000000000000000NON       United States Senator                                   WRITE-IN                              Precinct 11                                            01 
01040050014000001000000000000000000000001000000NON       United States Senator                                   WRITE-IN                              Precinct 12                                            01 
01040050015000001000000000001000000000000000000NON       United States Senator                                   WRITE-IN                              Precinct 13                                            01 
01040050016000000000000000000000000000000000000NON       United States Senator                                   WRITE-IN                              Precinct 14                                            01 
01040050017000000000000000000000000000000000000NON       United States Senator                                   WRITE-IN                              Precinct 14A                                           01 
01040060001000000000000000000000000000000000000          United States Senator                                   OVER VOTES                            Precinct 1                                             01 
01040060002000000000000000000000000000000000000          United States Senator                                   OVER VOTES                            Precinct 1A                                            01 
01040060003000000000000000000000000000000000000          United States Senator                                   OVER VOTES                            Precinct 2                                             01 
01040060004000000000000000000000000000000000000          United States Senator                                   OVER VOTES                            Precinct 3                                             01 
01040060005000000000000000000000000000000000000          United States Senator                                   OVER VOTES                            Precinct 4                                             01 
01040060006000000000000000000000000000000000000          United States Senator                                   OVER VOTES                            Precinct 5                                             01 
01040060007000000000000000000000000000000000000          United States Senator                                   OVER VOTES                            Precinct 5A                                            01 
01040060008000000000000000000000000000000000000          United States Senator                                   OVER VOTES                            Precinct 6                                             01 
01040060009000000000000000000000000000000000000          United States Senator                                   OVER VOTES                            Precinct 7                                             01 
01040060010000000000000000000000000000000000000          United States Senator                                   OVER VOTES                            Precinct 8                                             01 
01040060011000000000000000000000000000000000000          United States Senator                                   OVER VOTES                            Precinct 9                                             01 
01040060012000000000000000000000000000000000000          United States Senator                                   OVER VOTES                            Precinct 10                                            01 
01040060013000000000000000000000000000000000000          United States Senator                                   OVER VOTES                            Precinct 11                                            01 
01040060014000000000000000000000000000000000000          United States Senator                                   OVER VOTES                            Precinct 12                                            01 
01040060015000000000000000000000000000000000000          United States Senator                                   OVER VOTES                            Precinct 13                                            01 
01040060016000000000000000000000000000000000000          United States Senator                                   OVER VOTES                            Precinct 14                                            01 
01040060017000000000000000000000000000000000000          United States Senator                                   OVER VOTES                            Precinct 14A                                           01 
01040070001000026000001000022000000000003000000          United States Senator                                   UNDER VOTES                           Precinct 1                                             01 
01040070002000003000000000002000000000001000000          United States Senator                                   UNDER VOTES                           Precinct 1A                                            01 
01040070003000009000001000004000000000004000000          United States Senator                                   UNDER VOTES                           Precinct 2                                             01 
01040070004000004000000000002000000000002000000          United States Senator                                   UNDER VOTES                           Precinct 3                                             01 
01040070005000010000000000001000000000009000000          United States Senator                                   UNDER VOTES                           Precinct 4                                             01 
01040070006000006000000000003000000000003000000          United States Senator                                   UNDER VOTES                           Precinct 5                                             01 
01040070007000001000000000000000000000001000000          United States Senator                                   UNDER VOTES                           Precinct 5A                                            01 
01040070008000003000000000002000000000001000000          United States Senator                                   UNDER VOTES                           Precinct 6                                             01 
01040070009000004000000000002000001000001000000          United States Senator                                   UNDER VOTES                           Precinct 7                                             01 
01040070010000012000002000003000000000007000000          United States Senator                                   UNDER VOTES                           Precinct 8                                             01 
01040070011000008000000000006000000000002000000          United States Senator                                   UNDER VOTES                           Precinct 9                                             01 
01040070012000010000000000005000000000005000000          United States Senator                                   UNDER VOTES                           Precinct 10                                            01 
01040070013000013000001000007000000000005000000          United States Senator                                   UNDER VOTES                           Precinct 11                                            01 
01040070014000006000002000000000000000004000000          United States Senator                                   UNDER VOTES                           Precinct 12                                            01 
01040070015000003000000000003000000000000000000          United States Senator                                   UNDER VOTES                           Precinct 13                                            01 
01040070016000006000000000004000000000002000000          United States Senator                                   UNDER VOTES                           Precinct 14                                            01 
01040070017000003000000000002000000000001000000          United States Senator                                   UNDER VOTES                           Precinct 14A                                           01 
01050010001000946000068000737000005000136000000REPUSREP08US Representative, District 8 US REP, DIST 8            Kevin Brady                           Precinct 1                                             01 
01050010003000259000011000135000000000113000000REPUSREP08US Representative, District 8 US REP, DIST 8            Kevin Brady                           Precinct 2                                             01 
01050010004000422000026000307000001000088000000REPUSREP08US Representative, District 8 US REP, DIST 8            Kevin Brady                           Precinct 3                                             01 
01050010005000602000043000228000002000329000000REPUSREP08US Representative, District 8 US REP, DIST 8            Kevin Brady                           Precinct 4                                             01 
01050010006000395000027000217000001000150000000REPUSREP08US Representative, District 8 US REP, DIST 8            Kevin Brady                           Precinct 5                                             01 
01050010008000835000068000368000003000396000000REPUSREP08US Representative, District 8 US REP, DIST 8            Kevin Brady                           Precinct 6                                             01 
01050010016000120000011000087000000000022000000REPUSREP08US Representative, District 8 US REP, DIST 8            Kevin Brady                           Precinct 14                                            01 
01050020001000147000027000097000001000022000000DEMUSREP08US Representative, District 8 US REP, DIST 8            Elizabeth Hernandez                   Precinct 1                                             01 
01050020003000029000010000011000000000008000000DEMUSREP08US Representative, District 8 US REP, DIST 8            Elizabeth Hernandez                   Precinct 2                                             01 
01050020004000046000009000027000000000010000000DEMUSREP08US Representative, District 8 US REP, DIST 8            Elizabeth Hernandez                   Precinct 3                                             01 
01050020005000075000010000029000000000036000000DEMUSREP08US Representative, District 8 US REP, DIST 8            Elizabeth Hernandez                   Precinct 4                                             01 
01050020006000044000005000026000000000013000000DEMUSREP08US Representative, District 8 US REP, DIST 8            Elizabeth Hernandez                   Precinct 5                                             01 
01050020008000078000022000029000000000027000000DEMUSREP08US Representative, District 8 US REP, DIST 8            Elizabeth Hernandez                   Precinct 6                                             01 
01050020016000024000006000016000000000002000000DEMUSREP08US Representative, District 8 US REP, DIST 8            Elizabeth Hernandez                   Precinct 14                                            01 
01050030001000014000000000012000000000002000000LIBUSREP08US Representative, District 8 US REP, DIST 8            Chris Duncan                          Precinct 1                                             01 
01050030003000000000000000000000000000000000000LIBUSREP08US Representative, District 8 US REP, DIST 8            Chris Duncan                          Precinct 2                                             01 
01050030004000004000000000002000000000002000000LIBUSREP08US Representative, District 8 US REP, DIST 8            Chris Duncan                          Precinct 3                                             01 
01050030005000004000002000001000000000001000000LIBUSREP08US Representative, District 8 US REP, DIST 8            Chris Duncan                          Precinct 4                                             01 
01050030006000007000000000002000000000005000000LIBUSREP08US Representative, District 8 US REP, DIST 8            Chris Duncan                          Precinct 5                                             01 
01050030008000008000000000002000000000006000000LIBUSREP08US Representative, District 8 US REP, DIST 8            Chris Duncan                          Precinct 6                                             01 
01050030016000003000000000003000000000000000000LIBUSREP08US Representative, District 8 US REP, DIST 8            Chris Duncan                          Precinct 14                                            01 
01050040001000000000000000000000000000000000000   USREP08US Representative, District 8 US REP, DIST 8            OVER VOTES                            Precinct 1                                             01 
01050040003000000000000000000000000000000000000   USREP08US Representative, District 8 US REP, DIST 8            OVER VOTES                            Precinct 2                                             01 
01050040004000000000000000000000000000000000000   USREP08US Representative, District 8 US REP, DIST 8            OVER VOTES                            Precinct 3                                             01 
01050040005000000000000000000000000000000000000   USREP08US Representative, District 8 US REP, DIST 8            OVER VOTES                            Precinct 4                                             01 
01050040006000000000000000000000000000000000000   USREP08US Representative, District 8 US REP, DIST 8            OVER VOTES                            Precinct 5                                             01 
01050040008000000000000000000000000000000000000   USREP08US Representative, District 8 US REP, DIST 8            OVER VOTES                            Precinct 6                                             01 
01050040016000000000000000000000000000000000000   USREP08US Representative, District 8 US REP, DIST 8            OVER VOTES                            Precinct 14                                            01 
01050050001000035000001000027000005000002000000   USREP08US Representative, District 8 US REP, DIST 8            UNDER VOTES                           Precinct 1                                             01 
01050050003000007000001000004000000000002000000   USREP08US Representative, District 8 US REP, DIST 8            UNDER VOTES                           Precinct 2                                             01 
01050050004000006000000000003000000000003000000   USREP08US Representative, District 8 US REP, DIST 8            UNDER VOTES                           Precinct 3                                             01 
01050050005000014000000000002000000000012000000   USREP08US Representative, District 8 US REP, DIST 8            UNDER VOTES                           Precinct 4                                             01 
01050050006000004000000000001000000000003000000   USREP08US Representative, District 8 US REP, DIST 8            UNDER VOTES                           Precinct 5                                             01 
01050050008000009000001000001000001000006000000   USREP08US Representative, District 8 US REP, DIST 8            UNDER VOTES                           Precinct 6                                             01 
01050050016000004000000000003000000000001000000   USREP08US Representative, District 8 US REP, DIST 8            UNDER VOTES                           Precinct 14                                            01 
01060010002000155000009000127000000000019000000REPUSREP17US Representative, District 17 US REP, DIST 17          Pete Sessions                         Precinct 1A                                            01 
01060010007000039000001000028000000000010000000REPUSREP17US Representative, District 17 US REP, DIST 17          Pete Sessions                         Precinct 5A                                            01 
01060010009000441000027000223000000000191000000REPUSREP17US Representative, District 17 US REP, DIST 17          Pete Sessions                         Precinct 7                                             01 
01060010010000673000033000351000001000288000000REPUSREP17US Representative, District 17 US REP, DIST 17          Pete Sessions                         Precinct 8                                             01 
01060010011000227000011000149000001000066000000REPUSREP17US Representative, District 17 US REP, DIST 17          Pete Sessions                         Precinct 9                                             01 
01060010012000734000035000477000001000221000000REPUSREP17US Representative, District 17 US REP, DIST 17          Pete Sessions                         Precinct 10                                            01 
01060010013000548000038000318000003000189000000REPUSREP17US Representative, District 17 US REP, DIST 17          Pete Sessions                         Precinct 11                                            01 
01060010014000434000032000194000001000207000000REPUSREP17US Representative, District 17 US REP, DIST 17          Pete Sessions                         Precinct 12                                            01 
01060010015000499000054000309000000000136000000REPUSREP17US Representative, District 17 US REP, DIST 17          Pete Sessions                         Precinct 13                                            01 
01060010017000125000008000077000000000040000000REPUSREP17US Representative, District 17 US REP, DIST 17          Pete Sessions                         Precinct 14A                                           01 
01060020002000016000003000012000000000001000000DEMUSREP17US Representative, District 17 US REP, DIST 17          Rick Kennedy                          Precinct 1A                                            01 
01060020007000000000000000000000000000000000000DEMUSREP17US Representative, District 17 US REP, DIST 17          Rick Kennedy                          Precinct 5A                                            01 
01060020009000041000011000017000000000013000000DEMUSREP17US Representative, District 17 US REP, DIST 17          Rick Kennedy                          Precinct 7                                             01 
01060020010000092000009000050000000000033000000DEMUSREP17US Representative, District 17 US REP, DIST 17          Rick Kennedy                          Precinct 8                                             01 
01060020011000018000004000011000000000003000000DEMUSREP17US Representative, District 17 US REP, DIST 17          Rick Kennedy                          Precinct 9                                             01 
01060020012000049000013000028000000000008000000DEMUSREP17US Representative, District 17 US REP, DIST 17          Rick Kennedy                          Precinct 10                                            01 
01060020013000096000015000047000000000034000000DEMUSREP17US Representative, District 17 US REP, DIST 17          Rick Kennedy                          Precinct 11                                            01 
01060020014000148000034000049000000000065000000DEMUSREP17US Representative, District 17 US REP, DIST 17          Rick Kennedy                          Precinct 12                                            01 
01060020015000040000011000022000000000007000000DEMUSREP17US Representative, District 17 US REP, DIST 17          Rick Kennedy                          Precinct 13                                            01 
01060020017000031000007000020000000000004000000DEMUSREP17US Representative, District 17 US REP, DIST 17          Rick Kennedy                          Precinct 14A                                           01 
01060030002000003000001000002000000000000000000LIBUSREP17US Representative, District 17 US REP, DIST 17          Ted Brown                             Precinct 1A                                            01 
01060030007000001000000000001000000000000000000LIBUSREP17US Representative, District 17 US REP, DIST 17          Ted Brown                             Precinct 5A                                            01 
01060030009000003000000000002000000000001000000LIBUSREP17US Representative, District 17 US REP, DIST 17          Ted Brown                             Precinct 7                                             01 
01060030010000008000001000005000000000002000000LIBUSREP17US Representative, District 17 US REP, DIST 17          Ted Brown                             Precinct 8                                             01 
01060030011000003000000000001000000000002000000LIBUSREP17US Representative, District 17 US REP, DIST 17          Ted Brown                             Precinct 9                                             01 
01060030012000013000000000007000000000006000000LIBUSREP17US Representative, District 17 US REP, DIST 17          Ted Brown                             Precinct 10                                            01 
01060030013000019000000000009000000000010000000LIBUSREP17US Representative, District 17 US REP, DIST 17          Ted Brown                             Precinct 11                                            01 
01060030014000009000000000003000000000006000000LIBUSREP17US Representative, District 17 US REP, DIST 17          Ted Brown                             Precinct 12                                            01 
01060030015000009000000000007000000000002000000LIBUSREP17US Representative, District 17 US REP, DIST 17          Ted Brown                             Precinct 13                                            01 
01060030017000004000001000003000000000000000000LIBUSREP17US Representative, District 17 US REP, DIST 17          Ted Brown                             Precinct 14A                                           01 
01060040002000000000000000000000000000000000000   USREP17US Representative, District 17 US REP, DIST 17          OVER VOTES                            Precinct 1A                                            01 
01060040007000000000000000000000000000000000000   USREP17US Representative, District 17 US REP, DIST 17          OVER VOTES                            Precinct 5A                                            01 
01060040009000000000000000000000000000000000000   USREP17US Representative, District 17 US REP, DIST 17          OVER VOTES                            Precinct 7                                             01 
01060040010000000000000000000000000000000000000   USREP17US Representative, District 17 US REP, DIST 17          OVER VOTES                            Precinct 8                                             01 
01060040011000000000000000000000000000000000000   USREP17US Representative, District 17 US REP, DIST 17          OVER VOTES                            Precinct 9                                             01 
01060040012000000000000000000000000000000000000   USREP17US Representative, District 17 US REP, DIST 17          OVER VOTES                            Precinct 10                                            01 
01060040013000000000000000000000000000000000000   USREP17US Representative, District 17 US REP, DIST 17          OVER VOTES                            Precinct 11                                            01 
01060040014000000000000000000000000000000000000   USREP17US Representative, District 17 US REP, DIST 17          OVER VOTES                            Precinct 12                                            01 
01060040015000000000000000000000000000000000000   USREP17US Representative, District 17 US REP, DIST 17          OVER VOTES                            Precinct 13                                            01 
01060040017000000000000000000000000000000000000   USREP17US Representative, District 17 US REP, DIST 17          OVER VOTES                            Precinct 14A                                           01 
01060050002000008000000000000000007000001000000   USREP17US Representative, District 17 US REP, DIST 17          UNDER VOTES                           Precinct 1A                                            01 
01060050007000000000000000000000000000000000000   USREP17US Representative, District 17 US REP, DIST 17          UNDER VOTES                           Precinct 5A                                            01 
01060050009000007000001000003000001000002000000   USREP17US Representative, District 17 US REP, DIST 17          UNDER VOTES                           Precinct 7                                             01 
01060050010000017000002000003000006000006000000   USREP17US Representative, District 17 US REP, DIST 17          UNDER VOTES                           Precinct 8                                             01 
01060050011000006000000000004000000000002000000   USREP17US Representative, District 17 US REP, DIST 17          UNDER VOTES                           Precinct 9                                             01 
01060050012000017000001000007000006000003000000   USREP17US Representative, District 17 US REP, DIST 17          UNDER VOTES                           Precinct 10                                            01 
01060050013000019000000000008000007000004000000   USREP17US Representative, District 17 US REP, DIST 17          UNDER VOTES                           Precinct 11                                            01 
01060050014000014000002000002000004000006000000   USREP17US Representative, District 17 US REP, DIST 17          UNDER VOTES                           Precinct 12                                            01 
01060050015000012000000000006000006000000000000   USREP17US Representative, District 17 US REP, DIST 17          UNDER VOTES                           Precinct 13                                            01 
01060050017000003000000000002000000000001000000   USREP17US Representative, District 17 US REP, DIST 17          UNDER VOTES                           Precinct 14A                                           01 
01070010001000936000067000728000009000132000000REP       Railroad Commissioner                                   James "Jim" Wright                    Precinct 1                                             01 
01070010002000158000010000126000004000018000000REP       Railroad Commissioner                                   James "Jim" Wright                    Precinct 1A                                            01 
01070010003000249000012000130000000000107000000REP       Railroad Commissioner                                   James "Jim" Wright                    Precinct 2                                             01 
01070010004000420000026000303000001000090000000REP       Railroad Commissioner                                   James "Jim" Wright                    Precinct 3                                             01 
01070010005000595000043000226000002000324000000REP       Railroad Commissioner                                   James "Jim" Wright                    Precinct 4                                             01 
01070010006000388000027000212000001000148000000REP       Railroad Commissioner                                   James "Jim" Wright                    Precinct 5                                             01 
01070010007000039000001000028000000000010000000REP       Railroad Commissioner                                   James "Jim" Wright                    Precinct 5A                                            01 
01070010008000827000068000363000003000393000000REP       Railroad Commissioner                                   James "Jim" Wright                    Precinct 6                                             01 
01070010009000441000029000225000000000187000000REP       Railroad Commissioner                                   James "Jim" Wright                    Precinct 7                                             01 
01070010010000676000034000352000006000284000000REP       Railroad Commissioner                                   James "Jim" Wright                    Precinct 8                                             01 
01070010011000227000011000150000001000065000000REP       Railroad Commissioner                                   James "Jim" Wright                    Precinct 9                                             01 
01070010012000737000036000481000005000215000000REP       Railroad Commissioner                                   James "Jim" Wright                    Precinct 10                                            01 
01070010013000550000037000317000010000186000000REP       Railroad Commissioner                                   James "Jim" Wright                    Precinct 11                                            01 
01070010014000428000031000193000004000200000000REP       Railroad Commissioner                                   James "Jim" Wright                    Precinct 12                                            01 
01070010015000502000054000309000005000134000000REP       Railroad Commissioner                                   James "Jim" Wright                    Precinct 13                                            01 
01070010016000118000010000086000000000022000000REP       Railroad Commissioner                                   James "Jim" Wright                    Precinct 14                                            01 
01070010017000128000008000080000000000040000000REP       Railroad Commissioner                                   James "Jim" Wright                    Precinct 14A                                           01 
01070020001000150000027000101000001000021000000DEM       Railroad Commissioner                                   Chrysta Castaneda                     Precinct 1                                             01 
01070020002000018000003000012000002000001000000DEM       Railroad Commissioner                                   Chrysta Castaneda                     Precinct 1A                                            01 
01070020003000031000008000014000000000009000000DEM       Railroad Commissioner                                   Chrysta Castaneda                     Precinct 2                                             01 
01070020004000050000009000032000000000009000000DEM       Railroad Commissioner                                   Chrysta Castaneda                     Precinct 3                                             01 
01070020005000074000011000027000000000036000000DEM       Railroad Commissioner                                   Chrysta Castaneda                     Precinct 4                                             01 
01070020006000047000005000027000000000015000000DEM       Railroad Commissioner                                   Chrysta Castaneda                     Precinct 5                                             01 
01070020007000000000000000000000000000000000000DEM       Railroad Commissioner                                   Chrysta Castaneda                     Precinct 5A                                            01 
01070020008000080000022000028000001000029000000DEM       Railroad Commissioner                                   Chrysta Castaneda                     Precinct 6                                             01 
01070020009000034000009000015000000000010000000DEM       Railroad Commissioner                                   Chrysta Castaneda                     Precinct 7                                             01 
01070020010000084000008000045000000000031000000DEM       Railroad Commissioner                                   Chrysta Castaneda                     Precinct 8                                             01 
01070020011000017000004000010000000000003000000DEM       Railroad Commissioner                                   Chrysta Castaneda                     Precinct 9                                             01 
01070020012000048000012000025000002000009000000DEM       Railroad Commissioner                                   Chrysta Castaneda                     Precinct 10                                            01 
01070020013000099000015000049000000000035000000DEM       Railroad Commissioner                                   Chrysta Castaneda                     Precinct 11                                            01 
01070020014000151000035000048000001000067000000DEM       Railroad Commissioner                                   Chrysta Castaneda                     Precinct 12                                            01 
01070020015000039000011000022000000000006000000DEM       Railroad Commissioner                                   Chrysta Castaneda                     Precinct 13                                            01 
01070020016000023000006000015000000000002000000DEM       Railroad Commissioner                                   Chrysta Castaneda                     Precinct 14                                            01 
01070020017000028000007000018000000000003000000DEM       Railroad Commissioner                                   Chrysta Castaneda                     Precinct 14A                                           01 
01070030001000021000000000014000000000007000000LIB       Railroad Commissioner                                   Matt Sterett                          Precinct 1                                             01 
01070030002000003000000000003000000000000000000LIB       Railroad Commissioner                                   Matt Sterett                          Precinct 1A                                            01 
01070030003000003000001000000000000000002000000LIB       Railroad Commissioner                                   Matt Sterett                          Precinct 2                                             01 
01070030004000005000000000003000000000002000000LIB       Railroad Commissioner                                   Matt Sterett                          Precinct 3                                             01 
01070030005000009000001000002000000000006000000LIB       Railroad Commissioner                                   Matt Sterett                          Precinct 4                                             01 
01070030006000009000000000004000000000005000000LIB       Railroad Commissioner                                   Matt Sterett                          Precinct 5                                             01 
01070030007000001000000000001000000000000000000LIB       Railroad Commissioner                                   Matt Sterett                          Precinct 5A                                            01 
01070030008000011000000000005000000000006000000LIB       Railroad Commissioner                                   Matt Sterett                          Precinct 6                                             01 
01070030009000002000000000000000000000002000000LIB       Railroad Commissioner                                   Matt Sterett                          Precinct 7                                             01 
01070030010000010000000000006000000000004000000LIB       Railroad Commissioner                                   Matt Sterett                          Precinct 8                                             01 
01070030011000001000000000000000000000001000000LIB       Railroad Commissioner                                   Matt Sterett                          Precinct 9                                             01 
01070030012000015000000000005000000000010000000LIB       Railroad Commissioner                                   Matt Sterett                          Precinct 10                                            01 
01070030013000014000000000006000000000008000000LIB       Railroad Commissioner                                   Matt Sterett                          Precinct 11                                            01 
01070030014000013000000000005000000000008000000LIB       Railroad Commissioner                                   Matt Sterett                          Precinct 12                                            01 
01070030015000007000000000003000000000004000000LIB       Railroad Commissioner                                   Matt Sterett                          Precinct 13                                            01 
01070030016000004000001000003000000000000000000LIB       Railroad Commissioner                                   Matt Sterett                          Precinct 14                                            01 
01070030017000001000000000001000000000000000000LIB       Railroad Commissioner                                   Matt Sterett                          Precinct 14A                                           01 
01070040001000001000000000001000000000000000000GRN       Railroad Commissioner                                   Katija "Kat" Gruene                   Precinct 1                                             01 
01070040002000000000000000000000000000000000000GRN       Railroad Commissioner                                   Katija "Kat" Gruene                   Precinct 1A                                            01 
01070040003000001000000000000000000000001000000GRN       Railroad Commissioner                                   Katija "Kat" Gruene                   Precinct 2                                             01 
01070040004000000000000000000000000000000000000GRN       Railroad Commissioner                                   Katija "Kat" Gruene                   Precinct 3                                             01 
01070040005000003000000000001000000000002000000GRN       Railroad Commissioner                                   Katija "Kat" Gruene                   Precinct 4                                             01 
01070040006000000000000000000000000000000000000GRN       Railroad Commissioner                                   Katija "Kat" Gruene                   Precinct 5                                             01 
01070040007000000000000000000000000000000000000GRN       Railroad Commissioner                                   Katija "Kat" Gruene                   Precinct 5A                                            01 
01070040008000001000000000000000000000001000000GRN       Railroad Commissioner                                   Katija "Kat" Gruene                   Precinct 6                                             01 
01070040009000004000000000001000000000003000000GRN       Railroad Commissioner                                   Katija "Kat" Gruene                   Precinct 7                                             01 
01070040010000002000000000001000000000001000000GRN       Railroad Commissioner                                   Katija "Kat" Gruene                   Precinct 8                                             01 
01070040011000001000000000000000000000001000000GRN       Railroad Commissioner                                   Katija "Kat" Gruene                   Precinct 9                                             01 
01070040012000001000000000001000000000000000000GRN       Railroad Commissioner                                   Katija "Kat" Gruene                   Precinct 10                                            01 
01070040013000003000000000001000000000002000000GRN       Railroad Commissioner                                   Katija "Kat" Gruene                   Precinct 11                                            01 
01070040014000003000000000001000000000002000000GRN       Railroad Commissioner                                   Katija "Kat" Gruene                   Precinct 12                                            01 
01070040015000002000000000002000000000000000000GRN       Railroad Commissioner                                   Katija "Kat" Gruene                   Precinct 13                                            01 
01070040016000001000000000001000000000000000000GRN       Railroad Commissioner                                   Katija "Kat" Gruene                   Precinct 14                                            01 
01070040017000001000001000000000000000000000000GRN       Railroad Commissioner                                   Katija "Kat" Gruene                   Precinct 14A                                           01 
01070050001000000000000000000000000000000000000          Railroad Commissioner                                   OVER VOTES                            Precinct 1                                             01 
01070050002000000000000000000000000000000000000          Railroad Commissioner                                   OVER VOTES                            Precinct 1A                                            01 
01070050003000000000000000000000000000000000000          Railroad Commissioner                                   OVER VOTES                            Precinct 2                                             01 
01070050004000000000000000000000000000000000000          Railroad Commissioner                                   OVER VOTES                            Precinct 3                                             01 
01070050005000000000000000000000000000000000000          Railroad Commissioner                                   OVER VOTES                            Precinct 4                                             01 
01070050006000000000000000000000000000000000000          Railroad Commissioner                                   OVER VOTES                            Precinct 5                                             01 
01070050007000000000000000000000000000000000000          Railroad Commissioner                                   OVER VOTES                            Precinct 5A                                            01 
01070050008000000000000000000000000000000000000          Railroad Commissioner                                   OVER VOTES                            Precinct 6                                             01 
01070050009000000000000000000000000000000000000          Railroad Commissioner                                   OVER VOTES                            Precinct 7                                             01 
01070050010000000000000000000000000000000000000          Railroad Commissioner                                   OVER VOTES                            Precinct 8                                             01 
01070050011000000000000000000000000000000000000          Railroad Commissioner                                   OVER VOTES                            Precinct 9                                             01 
01070050012000000000000000000000000000000000000          Railroad Commissioner                                   OVER VOTES                            Precinct 10                                            01 
01070050013000000000000000000000000000000000000          Railroad Commissioner                                   OVER VOTES                            Precinct 11                                            01 
01070050014000000000000000000000000000000000000          Railroad Commissioner                                   OVER VOTES                            Precinct 12                                            01 
01070050015000000000000000000000000000000000000          Railroad Commissioner                                   OVER VOTES                            Precinct 13                                            01 
01070050016000000000000000000000000000000000000          Railroad Commissioner                                   OVER VOTES                            Precinct 14                                            01 
01070050017000000000000000000000000000000000000          Railroad Commissioner                                   OVER VOTES                            Precinct 14A                                           01 
01070060001000034000002000029000001000002000000          Railroad Commissioner                                   UNDER VOTES                           Precinct 1                                             01 
01070060002000003000000000000000001000002000000          Railroad Commissioner                                   UNDER VOTES                           Precinct 1A                                            01 
01070060003000011000001000006000000000004000000          Railroad Commissioner                                   UNDER VOTES                           Precinct 2                                             01 
01070060004000003000000000001000000000002000000          Railroad Commissioner                                   UNDER VOTES                           Precinct 3                                             01 
01070060005000014000000000004000000000010000000          Railroad Commissioner                                   UNDER VOTES                           Precinct 4                                             01 
01070060006000006000000000003000000000003000000          Railroad Commissioner                                   UNDER VOTES                           Precinct 5                                             01 
01070060007000000000000000000000000000000000000          Railroad Commissioner                                   UNDER VOTES                           Precinct 5A                                            01 
01070060008000011000001000004000000000006000000          Railroad Commissioner                                   UNDER VOTES                           Precinct 6                                             01 
01070060009000011000001000004000001000005000000          Railroad Commissioner                                   UNDER VOTES                           Precinct 7                                             01 
01070060010000018000003000005000001000009000000          Railroad Commissioner                                   UNDER VOTES                           Precinct 8                                             01 
01070060011000008000000000005000000000003000000          Railroad Commissioner                                   UNDER VOTES                           Precinct 9                                             01 
01070060012000012000001000007000000000004000000          Railroad Commissioner                                   UNDER VOTES                           Precinct 10                                            01 
01070060013000016000001000009000000000006000000          Railroad Commissioner                                   UNDER VOTES                           Precinct 11                                            01 
01070060014000010000002000001000000000007000000          Railroad Commissioner                                   UNDER VOTES                           Precinct 12                                            01 
01070060015000010000000000008000001000001000000          Railroad Commissioner                                   UNDER VOTES                           Precinct 13                                            01 
01070060016000005000000000004000000000001000000          Railroad Commissioner                                   UNDER VOTES                           Precinct 14                                            01 
01070060017000005000000000003000000000002000000          Railroad Commissioner                                   UNDER VOTES                           Precinct 14A                                           01 
01080010001000917000065000716000008000128000000REP       Chief Justice, Supreme Court                            Nathan Hecht                          Precinct 1                                             01 
01080010002000157000010000126000004000017000000REP       Chief Justice, Supreme Court                            Nathan Hecht                          Precinct 1A                                            01 
01080010003000243000010000130000000000103000000REP       Chief Justice, Supreme Court                            Nathan Hecht                          Precinct 2                                             01 
01080010004000414000026000301000001000086000000REP       Chief Justice, Supreme Court                            Nathan Hecht                          Precinct 3                                             01 
01080010005000592000042000226000001000323000000REP       Chief Justice, Supreme Court                            Nathan Hecht                          Precinct 4                                             01 
01080010006000387000027000214000001000145000000REP       Chief Justice, Supreme Court                            Nathan Hecht                          Precinct 5                                             01 
01080010007000039000001000028000000000010000000REP       Chief Justice, Supreme Court                            Nathan Hecht                          Precinct 5A                                            01 
01080010008000822000066000362000003000391000000REP       Chief Justice, Supreme Court                            Nathan Hecht                          Precinct 6                                             01 
01080010009000440000028000224000000000188000000REP       Chief Justice, Supreme Court                            Nathan Hecht                          Precinct 7                                             01 
01080010010000670000034000350000006000280000000REP       Chief Justice, Supreme Court                            Nathan Hecht                          Precinct 8                                             01 
01080010011000223000011000148000001000063000000REP       Chief Justice, Supreme Court                            Nathan Hecht                          Precinct 9                                             01 
01080010012000737000035000479000005000218000000REP       Chief Justice, Supreme Court                            Nathan Hecht                          Precinct 10                                            01 
01080010013000547000037000316000010000184000000REP       Chief Justice, Supreme Court                            Nathan Hecht                          Precinct 11                                            01 
01080010014000427000031000189000004000203000000REP       Chief Justice, Supreme Court                            Nathan Hecht                          Precinct 12                                            01 
