00010010001002654000000000000000000000000000000000000000000000000000000000000000000000000000000000000          REGISTERED VOTERS - TOTAL                               REGISTERED VOTERS - TOTAL             Precinct 101                                           00 
00010010002001752000000000000000000000000000000000000000000000000000000000000000000000000000000000000          REGISTERED VOTERS - TOTAL                               REGISTERED VOTERS - TOTAL             Precinct 201                                           00 
00010010003001667000000000000000000000000000000000000000000000000000000000000000000000000000000000000          REGISTERED VOTERS - TOTAL                               REGISTERED VOTERS - TOTAL             Precinct 202                                           00 
00010010004000074000000000000000000000000000000000000000000000000000000000000000000000000000000000000          REGISTERED VOTERS - TOTAL                               REGISTERED VOTERS - TOTAL             Precinct 203                                           00 
00010010005001987000000000000000000000000000000000000000000000000000000000000000000000000000000000000          REGISTERED VOTERS - TOTAL                               REGISTERED VOTERS - TOTAL             Precinct 301                                           00 
00010010006001111000000000000000000000000000000000000000000000000000000000000000000000000000000000000          REGISTERED VOTERS - TOTAL                               REGISTERED VOTERS - TOTAL             Precinct 401                                           00 
00010010007000761000000000000000000000000000000000000000000000000000000000000000000000000000000000000          REGISTERED VOTERS - TOTAL                               REGISTERED VOTERS - TOTAL             Precinct 402                                           00 
00020010001001367000087000866000414000000000000000000000000000000000000000000000000000000000000000000          BALLOTS CAST - TOTAL                                    BALLOTS CAST - TOTAL                  Precinct 101                                           00 
00020010002001134000065000777000292000000000000000000000000000000000000000000000000000000000000000000          BALLOTS CAST - TOTAL                                    BALLOTS CAST - TOTAL                  Precinct 201                                           00 
00020010003001125000077000808000240000000000000000000000000000000000000000000000000000000000000000000          BALLOTS CAST - TOTAL                                    BALLOTS CAST - TOTAL                  Precinct 202                                           00 
00020010004000055000001000002000052000000000000000000000000000000000000000000000000000000000000000000          BALLOTS CAST - TOTAL                                    BALLOTS CAST - TOTAL                  Precinct 203                                           00 
00020010005000883000063000496000324000000000000000000000000000000000000000000000000000000000000000000          BALLOTS CAST - TOTAL                                    BALLOTS CAST - TOTAL                  Precinct 301                                           00 
00020010006000708000028000454000226000000000000000000000000000000000000000000000000000000000000000000          BALLOTS CAST - TOTAL                                    BALLOTS CAST - TOTAL                  Precinct 401                                           00 
00020010007000260000006000039000215000000000000000000000000000000000000000000000000000000000000000000          BALLOTS CAST - TOTAL                                    BALLOTS CAST - TOTAL                  Precinct 402                                           00 
00030010001001030000054000702000274000000000000000000000000000000000000000000000000000000000000000000REP       President / Vice-President                              REP Donald J. Trump / Michael R. PencePrecinct 101                                           01 
00030010002000951000050000670000231000000000000000000000000000000000000000000000000000000000000000000REP       President / Vice-President                              REP Donald J. Trump / Michael R. PencePrecinct 201                                           01 
00030010003000978000058000727000193000000000000000000000000000000000000000000000000000000000000000000REP       President / Vice-President                              REP Donald J. Trump / Michael R. PencePrecinct 202                                           01 
00030010004000048000001000002000045000000000000000000000000000000000000000000000000000000000000000000REP       President / Vice-President                              REP Donald J. Trump / Michael R. PencePrecinct 203                                           01 
00030010005000634000036000397000201000000000000000000000000000000000000000000000000000000000000000000REP       President / Vice-President                              REP Donald J. Trump / Michael R. PencePrecinct 301                                           01 
00030010006000625000016000421000188000000000000000000000000000000000000000000000000000000000000000000REP       President / Vice-President                              REP Donald J. Trump / Michael R. PencePrecinct 401                                           01 
00030010007000093000004000015000074000000000000000000000000000000000000000000000000000000000000000000REP       President / Vice-President                              REP Donald J. Trump / Michael R. PencePrecinct 402                                           01 
00030020001000302000032000151000119000000000000000000000000000000000000000000000000000000000000000000DEM       President / Vice-President                              DEM Joseph R. Biden / Kamala D. HarrisPrecinct 101                                           01 
00030020002000168000015000101000052000000000000000000000000000000000000000000000000000000000000000000DEM       President / Vice-President                              DEM Joseph R. Biden / Kamala D. HarrisPrecinct 201                                           01 
00030020003000132000017000073000042000000000000000000000000000000000000000000000000000000000000000000DEM       President / Vice-President                              DEM Joseph R. Biden / Kamala D. HarrisPrecinct 202                                           01 
00030020004000007000000000000000007000000000000000000000000000000000000000000000000000000000000000000DEM       President / Vice-President                              DEM Joseph R. Biden / Kamala D. HarrisPrecinct 203                                           01 
00030020005000232000026000090000116000000000000000000000000000000000000000000000000000000000000000000DEM       President / Vice-President                              DEM Joseph R. Biden / Kamala D. HarrisPrecinct 301                                           01 
00030020006000072000011000029000032000000000000000000000000000000000000000000000000000000000000000000DEM       President / Vice-President                              DEM Joseph R. Biden / Kamala D. HarrisPrecinct 401                                           01 
00030020007000149000002000021000126000000000000000000000000000000000000000000000000000000000000000000DEM       President / Vice-President                              DEM Joseph R. Biden / Kamala D. HarrisPrecinct 402                                           01 
00030030001000022000000000011000011000000000000000000000000000000000000000000000000000000000000000000LIB       President / Vice-President                              LIB Jo Jorgensen / Jeremy "Spike" CohePrecinct 101                                           01 
00030030002000012000000000005000007000000000000000000000000000000000000000000000000000000000000000000LIB       President / Vice-President                              LIB Jo Jorgensen / Jeremy "Spike" CohePrecinct 201                                           01 
00030030003000009000000000005000004000000000000000000000000000000000000000000000000000000000000000000LIB       President / Vice-President                              LIB Jo Jorgensen / Jeremy "Spike" CohePrecinct 202                                           01 
00030030004000000000000000000000000000000000000000000000000000000000000000000000000000000000000000000LIB       President / Vice-President                              LIB Jo Jorgensen / Jeremy "Spike" CohePrecinct 203                                           01 
00030030005000008000000000005000003000000000000000000000000000000000000000000000000000000000000000000LIB       President / Vice-President                              LIB Jo Jorgensen / Jeremy "Spike" CohePrecinct 301                                           01 
00030030006000007000000000004000003000000000000000000000000000000000000000000000000000000000000000000LIB       President / Vice-President                              LIB Jo Jorgensen / Jeremy "Spike" CohePrecinct 401                                           01 
00030030007000008000000000002000006000000000000000000000000000000000000000000000000000000000000000000LIB       President / Vice-President                              LIB Jo Jorgensen / Jeremy "Spike" CohePrecinct 402                                           01 
00030040001000007000000000002000005000000000000000000000000000000000000000000000000000000000000000000GRN       President / Vice-President                              GRN Howie Hawkins / Angela Walker     Precinct 101                                           01 
00030040002000001000000000000000001000000000000000000000000000000000000000000000000000000000000000000GRN       President / Vice-President                              GRN Howie Hawkins / Angela Walker     Precinct 201                                           01 
00030040003000001000000000000000001000000000000000000000000000000000000000000000000000000000000000000GRN       President / Vice-President                              GRN Howie Hawkins / Angela Walker     Precinct 202                                           01 
00030040004000000000000000000000000000000000000000000000000000000000000000000000000000000000000000000GRN       President / Vice-President                              GRN Howie Hawkins / Angela Walker     Precinct 203                                           01 
00030040005000005000000000002000003000000000000000000000000000000000000000000000000000000000000000000GRN       President / Vice-President                              GRN Howie Hawkins / Angela Walker     Precinct 301                                           01 
00030040006000001000000000000000001000000000000000000000000000000000000000000000000000000000000000000GRN       President / Vice-President                              GRN Howie Hawkins / Angela Walker     Precinct 401                                           01 
00030040007000006000000000000000006000000000000000000000000000000000000000000000000000000000000000000GRN       President / Vice-President                              GRN Howie Hawkins / Angela Walker     Precinct 402                                           01 
00040010001001022000054000704000264000000000000000000000000000000000000000000000000000000000000000000REP       US Senator                                              REP John Cornyn                       Precinct 101                                           01 
00040010002000935000052000655000228000000000000000000000000000000000000000000000000000000000000000000REP       US Senator                                              REP John Cornyn                       Precinct 201                                           01 
00040010003000980000061000723000196000000000000000000000000000000000000000000000000000000000000000000REP       US Senator                                              REP John Cornyn                       Precinct 202                                           01 
00040010004000047000001000002000044000000000000000000000000000000000000000000000000000000000000000000REP       US Senator                                              REP John Cornyn                       Precinct 203                                           01 
00040010005000625000039000396000190000000000000000000000000000000000000000000000000000000000000000000REP       US Senator                                              REP John Cornyn                       Precinct 301                                           01 
00040010006000613000017000410000186000000000000000000000000000000000000000000000000000000000000000000REP       US Senator                                              REP John Cornyn                       Precinct 401                                           01 
00040010007000092000004000016000072000000000000000000000000000000000000000000000000000000000000000000REP       US Senator                                              REP John Cornyn                       Precinct 402                                           01 
00040020001000281000029000140000112000000000000000000000000000000000000000000000000000000000000000000DEM       US Senator                                              DEM Mary "MJ" Hegar                   Precinct 101                                           01 
00040020002000163000011000100000052000000000000000000000000000000000000000000000000000000000000000000DEM       US Senator                                              DEM Mary "MJ" Hegar                   Precinct 201                                           01 
00040020003000113000015000065000033000000000000000000000000000000000000000000000000000000000000000000DEM       US Senator                                              DEM Mary "MJ" Hegar                   Precinct 202                                           01 
00040020004000008000000000000000008000000000000000000000000000000000000000000000000000000000000000000DEM       US Senator                                              DEM Mary "MJ" Hegar                   Precinct 203                                           01 
00040020005000216000019000084000113000000000000000000000000000000000000000000000000000000000000000000DEM       US Senator                                              DEM Mary "MJ" Hegar                   Precinct 301                                           01 
00040020006000082000011000037000034000000000000000000000000000000000000000000000000000000000000000000DEM       US Senator                                              DEM Mary "MJ" Hegar                   Precinct 401                                           01 
00040020007000136000002000021000113000000000000000000000000000000000000000000000000000000000000000000DEM       US Senator                                              DEM Mary "MJ" Hegar                   Precinct 402                                           01 
00040030001000033000001000013000019000000000000000000000000000000000000000000000000000000000000000000LIB       US Senator                                              LIB Kerry Douglas McKennon            Precinct 101                                           01 
00040030002000024000000000015000009000000000000000000000000000000000000000000000000000000000000000000LIB       US Senator                                              LIB Kerry Douglas McKennon            Precinct 201                                           01 
00040030003000015000000000010000005000000000000000000000000000000000000000000000000000000000000000000LIB       US Senator                                              LIB Kerry Douglas McKennon            Precinct 202                                           01 
00040030004000000000000000000000000000000000000000000000000000000000000000000000000000000000000000000LIB       US Senator                                              LIB Kerry Douglas McKennon            Precinct 203                                           01 
00040030005000015000001000007000007000000000000000000000000000000000000000000000000000000000000000000LIB       US Senator                                              LIB Kerry Douglas McKennon            Precinct 301                                           01 
00040030006000007000000000004000003000000000000000000000000000000000000000000000000000000000000000000LIB       US Senator                                              LIB Kerry Douglas McKennon            Precinct 401                                           01 
00040030007000008000000000002000006000000000000000000000000000000000000000000000000000000000000000000LIB       US Senator                                              LIB Kerry Douglas McKennon            Precinct 402                                           01 
00040040001000012000001000004000007000000000000000000000000000000000000000000000000000000000000000000GRN       US Senator                                              GRN David B. Collins                  Precinct 101                                           01 
00040040002000004000000000003000001000000000000000000000000000000000000000000000000000000000000000000GRN       US Senator                                              GRN David B. Collins                  Precinct 201                                           01 
00040040003000004000000000002000002000000000000000000000000000000000000000000000000000000000000000000GRN       US Senator                                              GRN David B. Collins                  Precinct 202                                           01 
00040040004000000000000000000000000000000000000000000000000000000000000000000000000000000000000000000GRN       US Senator                                              GRN David B. Collins                  Precinct 203                                           01 
00040040005000007000001000002000004000000000000000000000000000000000000000000000000000000000000000000GRN       US Senator                                              GRN David B. Collins                  Precinct 301                                           01 
00040040006000000000000000000000000000000000000000000000000000000000000000000000000000000000000000000GRN       US Senator                                              GRN David B. Collins                  Precinct 401                                           01 
00040040007000005000000000000000005000000000000000000000000000000000000000000000000000000000000000000GRN       US Senator                                              GRN David B. Collins                  Precinct 402                                           01 
00050010001001007000055000686000266000000000000000000000000000000000000000000000000000000000000000000REP       US Representative, Dist 13                              REP Ronny Jackson                     Precinct 101                                           01 
00050010002000932000050000662000220000000000000000000000000000000000000000000000000000000000000000000REP       US Representative, Dist 13                              REP Ronny Jackson                     Precinct 201                                           01 
00050010003000968000058000719000191000000000000000000000000000000000000000000000000000000000000000000REP       US Representative, Dist 13                              REP Ronny Jackson                     Precinct 202                                           01 
00050010004000050000001000002000047000000000000000000000000000000000000000000000000000000000000000000REP       US Representative, Dist 13                              REP Ronny Jackson                     Precinct 203                                           01 
00050010005000618000035000396000187000000000000000000000000000000000000000000000000000000000000000000REP       US Representative, Dist 13                              REP Ronny Jackson                     Precinct 301                                           01 
00050010006000611000018000412000181000000000000000000000000000000000000000000000000000000000000000000REP       US Representative, Dist 13                              REP Ronny Jackson                     Precinct 401                                           01 
00050010007000089000004000017000068000000000000000000000000000000000000000000000000000000000000000000REP       US Representative, Dist 13                              REP Ronny Jackson                     Precinct 402                                           01 
00050020001000318000030000156000132000000000000000000000000000000000000000000000000000000000000000000DEM       US Representative, Dist 13                              DEM Gus Trujillo                      Precinct 101                                           01 
00050020002000166000012000099000055000000000000000000000000000000000000000000000000000000000000000000DEM       US Representative, Dist 13                              DEM Gus Trujillo                      Precinct 201                                           01 
00050020003000132000018000072000042000000000000000000000000000000000000000000000000000000000000000000DEM       US Representative, Dist 13                              DEM Gus Trujillo                      Precinct 202                                           01 
00050020004000004000000000000000004000000000000000000000000000000000000000000000000000000000000000000DEM       US Representative, Dist 13                              DEM Gus Trujillo                      Precinct 203                                           01 
00050020005000228000023000083000122000000000000000000000000000000000000000000000000000000000000000000DEM       US Representative, Dist 13                              DEM Gus Trujillo                      Precinct 301                                           01 
00050020006000081000010000036000035000000000000000000000000000000000000000000000000000000000000000000DEM       US Representative, Dist 13                              DEM Gus Trujillo                      Precinct 401                                           01 
00050020007000151000002000019000130000000000000000000000000000000000000000000000000000000000000000000DEM       US Representative, Dist 13                              DEM Gus Trujillo                      Precinct 402                                           01 
00050030001000024000000000016000008000000000000000000000000000000000000000000000000000000000000000000LIB       US Representative, Dist 13                              LIB Jack B. Westbrook                 Precinct 101                                           01 
00050030002000025000000000012000013000000000000000000000000000000000000000000000000000000000000000000LIB       US Representative, Dist 13                              LIB Jack B. Westbrook                 Precinct 201                                           01 
00050030003000014000000000009000005000000000000000000000000000000000000000000000000000000000000000000LIB       US Representative, Dist 13                              LIB Jack B. Westbrook                 Precinct 202                                           01 
00050030004000001000000000000000001000000000000000000000000000000000000000000000000000000000000000000LIB       US Representative, Dist 13                              LIB Jack B. Westbrook                 Precinct 203                                           01 
00050030005000018000002000011000005000000000000000000000000000000000000000000000000000000000000000000LIB       US Representative, Dist 13                              LIB Jack B. Westbrook                 Precinct 301                                           01 
00050030006000009000000000002000007000000000000000000000000000000000000000000000000000000000000000000LIB       US Representative, Dist 13                              LIB Jack B. Westbrook                 Precinct 401                                           01 
00050030007000009000000000003000006000000000000000000000000000000000000000000000000000000000000000000LIB       US Representative, Dist 13                              LIB Jack B. Westbrook                 Precinct 402                                           01 
00060010001001009000054000696000259000000000000000000000000000000000000000000000000000000000000000000REP       Railroad Commissioner                                   REP James "Jim" Wright                Precinct 101                                           01 
00060010002000928000050000662000216000000000000000000000000000000000000000000000000000000000000000000REP       Railroad Commissioner                                   REP James "Jim" Wright                Precinct 201                                           01 
00060010003000968000059000716000193000000000000000000000000000000000000000000000000000000000000000000REP       Railroad Commissioner                                   REP James "Jim" Wright                Precinct 202                                           01 
00060010004000048000001000002000045000000000000000000000000000000000000000000000000000000000000000000REP       Railroad Commissioner                                   REP James "Jim" Wright                Precinct 203                                           01 
00060010005000607000036000392000179000000000000000000000000000000000000000000000000000000000000000000REP       Railroad Commissioner                                   REP James "Jim" Wright                Precinct 301                                           01 
00060010006000611000017000413000181000000000000000000000000000000000000000000000000000000000000000000REP       Railroad Commissioner                                   REP James "Jim" Wright                Precinct 401                                           01 
00060010007000078000004000015000059000000000000000000000000000000000000000000000000000000000000000000REP       Railroad Commissioner                                   REP James "Jim" Wright                Precinct 402                                           01 
00060020001000311000029000147000135000000000000000000000000000000000000000000000000000000000000000000DEM       Railroad Commissioner                                   DEM Chrysta Castaneda                 Precinct 101                                           01 
00060020002000168000013000099000056000000000000000000000000000000000000000000000000000000000000000000DEM       Railroad Commissioner                                   DEM Chrysta Castaneda                 Precinct 201                                           01 
00060020003000117000014000068000035000000000000000000000000000000000000000000000000000000000000000000DEM       Railroad Commissioner                                   DEM Chrysta Castaneda                 Precinct 202                                           01 
00060020004000006000000000000000006000000000000000000000000000000000000000000000000000000000000000000DEM       Railroad Commissioner                                   DEM Chrysta Castaneda                 Precinct 203                                           01 
00060020005000226000021000083000122000000000000000000000000000000000000000000000000000000000000000000DEM       Railroad Commissioner                                   DEM Chrysta Castaneda                 Precinct 301                                           01 
00060020006000075000011000029000035000000000000000000000000000000000000000000000000000000000000000000DEM       Railroad Commissioner                                   DEM Chrysta Castaneda                 Precinct 401                                           01 
00060020007000150000001000019000130000000000000000000000000000000000000000000000000000000000000000000DEM       Railroad Commissioner                                   DEM Chrysta Castaneda                 Precinct 402                                           01 
00060030001000019000002000011000006000000000000000000000000000000000000000000000000000000000000000000LIB       Railroad Commissioner                                   LIB Matt Sterett                      Precinct 101                                           01 
00060030002000021000000000009000012000000000000000000000000000000000000000000000000000000000000000000LIB       Railroad Commissioner                                   LIB Matt Sterett                      Precinct 201                                           01 
00060030003000017000000000010000007000000000000000000000000000000000000000000000000000000000000000000LIB       Railroad Commissioner                                   LIB Matt Sterett                      Precinct 202                                           01 
00060030004000001000000000000000001000000000000000000000000000000000000000000000000000000000000000000LIB       Railroad Commissioner                                   LIB Matt Sterett                      Precinct 203                                           01 
00060030005000017000001000008000008000000000000000000000000000000000000000000000000000000000000000000LIB       Railroad Commissioner                                   LIB Matt Sterett                      Precinct 301                                           01 
00060030006000010000000000007000003000000000000000000000000000000000000000000000000000000000000000000LIB       Railroad Commissioner                                   LIB Matt Sterett                      Precinct 401                                           01 
00060030007000008000000000003000005000000000000000000000000000000000000000000000000000000000000000000LIB       Railroad Commissioner                                   LIB Matt Sterett                      Precinct 402                                           01 
00060040001000007000001000003000003000000000000000000000000000000000000000000000000000000000000000000GRN       Railroad Commissioner                                   GRN Katija "Kat" Gruene               Precinct 101                                           01 
00060040002000004000000000003000001000000000000000000000000000000000000000000000000000000000000000000GRN       Railroad Commissioner                                   GRN Katija "Kat" Gruene               Precinct 201                                           01 
00060040003000006000001000002000003000000000000000000000000000000000000000000000000000000000000000000GRN       Railroad Commissioner                                   GRN Katija "Kat" Gruene               Precinct 202                                           01 
00060040004000000000000000000000000000000000000000000000000000000000000000000000000000000000000000000GRN       Railroad Commissioner                                   GRN Katija "Kat" Gruene               Precinct 203                                           01 
00060040005000008000001000006000001000000000000000000000000000000000000000000000000000000000000000000GRN       Railroad Commissioner                                   GRN Katija "Kat" Gruene               Precinct 301                                           01 
00060040006000003000000000001000002000000000000000000000000000000000000000000000000000000000000000000GRN       Railroad Commissioner                                   GRN Katija "Kat" Gruene               Precinct 401                                           01 
00060040007000007000001000001000005000000000000000000000000000000000000000000000000000000000000000000GRN       Railroad Commissioner                                   GRN Katija "Kat" Gruene               Precinct 402                                           01 
00070010001001009000053000692000264000000000000000000000000000000000000000000000000000000000000000000REP       Chief Justice, Supreme Court                            REP Nathan Hecht                      Precinct 101                                           01 
00070010002000924000051000653000220000000000000000000000000000000000000000000000000000000000000000000REP       Chief Justice, Supreme Court                            REP Nathan Hecht                      Precinct 201                                           01 
00070010003000964000058000720000186000000000000000000000000000000000000000000000000000000000000000000REP       Chief Justice, Supreme Court                            REP Nathan Hecht                      Precinct 202                                           01 
00070010004000049000001000002000046000000000000000000000000000000000000000000000000000000000000000000REP       Chief Justice, Supreme Court                            REP Nathan Hecht                      Precinct 203                                           01 
00070010005000613000036000391000186000000000000000000000000000000000000000000000000000000000000000000REP       Chief Justice, Supreme Court                            REP Nathan Hecht                      Precinct 301                                           01 
00070010006000604000016000409000179000000000000000000000000000000000000000000000000000000000000000000REP       Chief Justice, Supreme Court                            REP Nathan Hecht                      Precinct 401                                           01 
00070010007000087000004000015000068000000000000000000000000000000000000000000000000000000000000000000REP       Chief Justice, Supreme Court                            REP Nathan Hecht                      Precinct 402                                           01 
00070020001000302000030000153000119000000000000000000000000000000000000000000000000000000000000000000DEM       Chief Justice, Supreme Court                            DEM Amy Clark Meachum                 Precinct 101                                           01 
00070020002000177000012000111000054000000000000000000000000000000000000000000000000000000000000000000DEM       Chief Justice, Supreme Court                            DEM Amy Clark Meachum                 Precinct 201                                           01 
00070020003000126000016000069000041000000000000000000000000000000000000000000000000000000000000000000DEM       Chief Justice, Supreme Court                            DEM Amy Clark Meachum                 Precinct 202                                           01 
00070020004000006000000000000000006000000000000000000000000000000000000000000000000000000000000000000DEM       Chief Justice, Supreme Court                            DEM Amy Clark Meachum                 Precinct 203                                           01 
00070020005000224000020000090000114000000000000000000000000000000000000000000000000000000000000000000DEM       Chief Justice, Supreme Court                            DEM Amy Clark Meachum                 Precinct 301                                           01 
00070020006000085000010000038000037000000000000000000000000000000000000000000000000000000000000000000DEM       Chief Justice, Supreme Court                            DEM Amy Clark Meachum                 Precinct 401                                           01 
00070020007000144000002000020000122000000000000000000000000000000000000000000000000000000000000000000DEM       Chief Justice, Supreme Court                            DEM Amy Clark Meachum                 Precinct 402                                           01 
00070030001000029000001000011000017000000000000000000000000000000000000000000000000000000000000000000LIB       Chief Justice, Supreme Court                            LIB Mark Ash                          Precinct 101                                           01 
00070030002000024000000000011000013000000000000000000000000000000000000000000000000000000000000000000LIB       Chief Justice, Supreme Court                            LIB Mark Ash                          Precinct 201                                           01 
00070030003000021000000000012000009000000000000000000000000000000000000000000000000000000000000000000LIB       Chief Justice, Supreme Court                            LIB Mark Ash                          Precinct 202                                           01 
00070030004000000000000000000000000000000000000000000000000000000000000000000000000000000000000000000LIB       Chief Justice, Supreme Court                            LIB Mark Ash                          Precinct 203                                           01 
00070030005000018000001000011000006000000000000000000000000000000000000000000000000000000000000000000LIB       Chief Justice, Supreme Court                            LIB Mark Ash                          Precinct 301                                           01 
00070030006000011000000000004000007000000000000000000000000000000000000000000000000000000000000000000LIB       Chief Justice, Supreme Court                            LIB Mark Ash                          Precinct 401                                           01 
00070030007000013000000000003000010000000000000000000000000000000000000000000000000000000000000000000LIB       Chief Justice, Supreme Court                            LIB Mark Ash                          Precinct 402                                           01 
00080010001001038000056000707000275000000000000000000000000000000000000000000000000000000000000000000REP       Justice, Supreme Court, Pl 6                            REP Jane Bland                        Precinct 101                                           01 
00080010002000958000052000673000233000000000000000000000000000000000000000000000000000000000000000000REP       Justice, Supreme Court, Pl 6                            REP Jane Bland                        Precinct 201                                           01 
00080010003000992000059000732000201000000000000000000000000000000000000000000000000000000000000000000REP       Justice, Supreme Court, Pl 6                            REP Jane Bland                        Precinct 202                                           01 
00080010004000049000001000002000046000000000000000000000000000000000000000000000000000000000000000000REP       Justice, Supreme Court, Pl 6                            REP Jane Bland                        Precinct 203                                           01 
00080010005000629000034000405000190000000000000000000000000000000000000000000000000000000000000000000REP       Justice, Supreme Court, Pl 6                            REP Jane Bland                        Precinct 301                                           01 
00080010006000623000018000415000190000000000000000000000000000000000000000000000000000000000000000000REP       Justice, Supreme Court, Pl 6                            REP Jane Bland                        Precinct 401                                           01 
00080010007000104000004000015000085000000000000000000000000000000000000000000000000000000000000000000REP       Justice, Supreme Court, Pl 6                            REP Jane Bland                        Precinct 402                                           01 
00080020001000303000029000151000123000000000000000000000000000000000000000000000000000000000000000000DEM       Justice, Supreme Court, Pl 6                            DEM Kathy Cheng                       Precinct 101                                           01 
00080020002000165000011000100000054000000000000000000000000000000000000000000000000000000000000000000DEM       Justice, Supreme Court, Pl 6                            DEM Kathy Cheng                       Precinct 201                                           01 
00080020003000116000014000068000034000000000000000000000000000000000000000000000000000000000000000000DEM       Justice, Supreme Court, Pl 6                            DEM Kathy Cheng                       Precinct 202                                           01 
00080020004000005000000000000000005000000000000000000000000000000000000000000000000000000000000000000DEM       Justice, Supreme Court, Pl 6                            DEM Kathy Cheng                       Precinct 203                                           01 
00080020005000232000025000087000120000000000000000000000000000000000000000000000000000000000000000000DEM       Justice, Supreme Court, Pl 6                            DEM Kathy Cheng                       Precinct 301                                           01 
00080020006000075000008000034000033000000000000000000000000000000000000000000000000000000000000000000DEM       Justice, Supreme Court, Pl 6                            DEM Kathy Cheng                       Precinct 401                                           01 
00080020007000143000001000023000119000000000000000000000000000000000000000000000000000000000000000000DEM       Justice, Supreme Court, Pl 6                            DEM Kathy Cheng                       Precinct 402                                           01 
00090010001001005000056000688000261000000000000000000000000000000000000000000000000000000000000000000REP       Justice, Supreme Court, Pl 7                            REP Jeff Boyd                         Precinct 101                                           01 
00090010002000935000049000662000224000000000000000000000000000000000000000000000000000000000000000000REP       Justice, Supreme Court, Pl 7                            REP Jeff Boyd                         Precinct 201                                           01 
00090010003000975000058000723000194000000000000000000000000000000000000000000000000000000000000000000REP       Justice, Supreme Court, Pl 7                            REP Jeff Boyd                         Precinct 202                                           01 
00090010004000048000001000002000045000000000000000000000000000000000000000000000000000000000000000000REP       Justice, Supreme Court, Pl 7                            REP Jeff Boyd                         Precinct 203                                           01 
00090010005000625000037000400000188000000000000000000000000000000000000000000000000000000000000000000REP       Justice, Supreme Court, Pl 7                            REP Jeff Boyd                         Precinct 301                                           01 
00090010006000611000017000411000183000000000000000000000000000000000000000000000000000000000000000000REP       Justice, Supreme Court, Pl 7                            REP Jeff Boyd                         Precinct 401                                           01 
00090010007000094000004000014000076000000000000000000000000000000000000000000000000000000000000000000REP       Justice, Supreme Court, Pl 7                            REP Jeff Boyd                         Precinct 402                                           01 
00090020001000309000029000153000127000000000000000000000000000000000000000000000000000000000000000000DEM       Justice, Supreme Court, Pl 7                            DEM Staci Williams                    Precinct 101                                           01 
00090020002000162000013000098000051000000000000000000000000000000000000000000000000000000000000000000DEM       Justice, Supreme Court, Pl 7                            DEM Staci Williams                    Precinct 201                                           01 
00090020003000116000015000066000035000000000000000000000000000000000000000000000000000000000000000000DEM       Justice, Supreme Court, Pl 7                            DEM Staci Williams                    Precinct 202                                           01 
00090020004000006000000000000000006000000000000000000000000000000000000000000000000000000000000000000DEM       Justice, Supreme Court, Pl 7                            DEM Staci Williams                    Precinct 203                                           01 
00090020005000219000022000082000115000000000000000000000000000000000000000000000000000000000000000000DEM       Justice, Supreme Court, Pl 7                            DEM Staci Williams                    Precinct 301                                           01 
00090020006000079000010000033000036000000000000000000000000000000000000000000000000000000000000000000DEM       Justice, Supreme Court, Pl 7                            DEM Staci Williams                    Precinct 401                                           01 
00090020007000139000001000021000117000000000000000000000000000000000000000000000000000000000000000000DEM       Justice, Supreme Court, Pl 7                            DEM Staci Williams                    Precinct 402                                           01 
00090030001000027000001000014000012000000000000000000000000000000000000000000000000000000000000000000LIB       Justice, Supreme Court, Pl 7                            LIB William Bryan Strange III         Precinct 101                                           01 
00090030002000022000000000011000011000000000000000000000000000000000000000000000000000000000000000000LIB       Justice, Supreme Court, Pl 7                            LIB William Bryan Strange III         Precinct 201                                           01 
00090030003000017000001000010000006000000000000000000000000000000000000000000000000000000000000000000LIB       Justice, Supreme Court, Pl 7                            LIB William Bryan Strange III         Precinct 202                                           01 
00090030004000000000000000000000000000000000000000000000000000000000000000000000000000000000000000000LIB       Justice, Supreme Court, Pl 7                            LIB William Bryan Strange III         Precinct 203                                           01 
00090030005000015000001000009000005000000000000000000000000000000000000000000000000000000000000000000LIB       Justice, Supreme Court, Pl 7                            LIB William Bryan Strange III         Precinct 301                                           01 
00090030006000007000000000003000004000000000000000000000000000000000000000000000000000000000000000000LIB       Justice, Supreme Court, Pl 7                            LIB William Bryan Strange III         Precinct 401                                           01 
00090030007000010000000000003000007000000000000000000000000000000000000000000000000000000000000000000LIB       Justice, Supreme Court, Pl 7                            LIB William Bryan Strange III         Precinct 402                                           01 
00100010001001015000057000693000265000000000000000000000000000000000000000000000000000000000000000000REP       Justice, Supreme Court, Pl 8                            REP Brett Busby                       Precinct 101                                           01 
00100010002000931000049000660000222000000000000000000000000000000000000000000000000000000000000000000REP       Justice, Supreme Court, Pl 8                            REP Brett Busby                       Precinct 201                                           01 
00100010003000974000060000719000195000000000000000000000000000000000000000000000000000000000000000000REP       Justice, Supreme Court, Pl 8                            REP Brett Busby                       Precinct 202                                           01 
00100010004000050000001000002000047000000000000000000000000000000000000000000000000000000000000000000REP       Justice, Supreme Court, Pl 8                            REP Brett Busby                       Precinct 203                                           01 
00100010005000622000037000398000187000000000000000000000000000000000000000000000000000000000000000000REP       Justice, Supreme Court, Pl 8                            REP Brett Busby                       Precinct 301                                           01 
00100010006000609000017000412000180000000000000000000000000000000000000000000000000000000000000000000REP       Justice, Supreme Court, Pl 8                            REP Brett Busby                       Precinct 401                                           01 
00100010007000085000004000015000066000000000000000000000000000000000000000000000000000000000000000000REP       Justice, Supreme Court, Pl 8                            REP Brett Busby                       Precinct 402                                           01 
00100020001000308000028000150000130000000000000000000000000000000000000000000000000000000000000000000DEM       Justice, Supreme Court, Pl 8                            DEM Gisela D. Triana                  Precinct 101                                           01 
00100020002000169000013000103000053000000000000000000000000000000000000000000000000000000000000000000DEM       Justice, Supreme Court, Pl 8                            DEM Gisela D. Triana                  Precinct 201                                           01 
00100020003000116000014000069000033000000000000000000000000000000000000000000000000000000000000000000DEM       Justice, Supreme Court, Pl 8                            DEM Gisela D. Triana                  Precinct 202                                           01 
00100020004000005000000000000000005000000000000000000000000000000000000000000000000000000000000000000DEM       Justice, Supreme Court, Pl 8                            DEM Gisela D. Triana                  Precinct 203                                           01 
00100020005000221000022000083000116000000000000000000000000000000000000000000000000000000000000000000DEM       Justice, Supreme Court, Pl 8                            DEM Gisela D. Triana                  Precinct 301                                           01 
00100020006000080000010000034000036000000000000000000000000000000000000000000000000000000000000000000DEM       Justice, Supreme Court, Pl 8                            DEM Gisela D. Triana                  Precinct 401                                           01 
00100020007000152000001000021000130000000000000000000000000000000000000000000000000000000000000000000DEM       Justice, Supreme Court, Pl 8                            DEM Gisela D. Triana                  Precinct 402                                           01 
00100030001000023000001000013000009000000000000000000000000000000000000000000000000000000000000000000LIB       Justice, Supreme Court, Pl 8                            LIB Tom Oxford                        Precinct 101                                           01 
00100030002000022000000000009000013000000000000000000000000000000000000000000000000000000000000000000LIB       Justice, Supreme Court, Pl 8                            LIB Tom Oxford                        Precinct 201                                           01 
00100030003000017000000000010000007000000000000000000000000000000000000000000000000000000000000000000LIB       Justice, Supreme Court, Pl 8                            LIB Tom Oxford                        Precinct 202                                           01 
00100030004000000000000000000000000000000000000000000000000000000000000000000000000000000000000000000LIB       Justice, Supreme Court, Pl 8                            LIB Tom Oxford                        Precinct 203                                           01 
00100030005000017000001000010000006000000000000000000000000000000000000000000000000000000000000000000LIB       Justice, Supreme Court, Pl 8                            LIB Tom Oxford                        Precinct 301                                           01 
00100030006000008000000000002000006000000000000000000000000000000000000000000000000000000000000000000LIB       Justice, Supreme Court, Pl 8                            LIB Tom Oxford                        Precinct 401                                           01 
00100030007000007000000000002000005000000000000000000000000000000000000000000000000000000000000000000LIB       Justice, Supreme Court, Pl 8                            LIB Tom Oxford                        Precinct 402                                           01 
00110010001001029000056000698000275000000000000000000000000000000000000000000000000000000000000000000REP       Judge, Ct of Crim App, Pl 3                             REP Bert Richardson                   Precinct 101                                           01 
00110010002000948000050000665000233000000000000000000000000000000000000000000000000000000000000000000REP       Judge, Ct of Crim App, Pl 3                             REP Bert Richardson                   Precinct 201                                           01 
00110010003000980000058000727000195000000000000000000000000000000000000000000000000000000000000000000REP       Judge, Ct of Crim App, Pl 3                             REP Bert Richardson                   Precinct 202                                           01 
00110010004000050000001000002000047000000000000000000000000000000000000000000000000000000000000000000REP       Judge, Ct of Crim App, Pl 3                             REP Bert Richardson                   Precinct 203                                           01 
00110010005000631000038000404000189000000000000000000000000000000000000000000000000000000000000000000REP       Judge, Ct of Crim App, Pl 3                             REP Bert Richardson                   Precinct 301                                           01 
00110010006000613000017000411000185000000000000000000000000000000000000000000000000000000000000000000REP       Judge, Ct of Crim App, Pl 3                             REP Bert Richardson                   Precinct 401                                           01 
00110010007000096000004000016000076000000000000000000000000000000000000000000000000000000000000000000REP       Judge, Ct of Crim App, Pl 3                             REP Bert Richardson                   Precinct 402                                           01 
00110020001000316000028000159000129000000000000000000000000000000000000000000000000000000000000000000DEM       Judge, Ct of Crim App, Pl 3                             DEM Elizabeth Davis Frizell           Precinct 101                                           01 
00110020002000172000013000105000054000000000000000000000000000000000000000000000000000000000000000000DEM       Judge, Ct of Crim App, Pl 3                             DEM Elizabeth Davis Frizell           Precinct 201                                           01 
00110020003000129000016000072000041000000000000000000000000000000000000000000000000000000000000000000DEM       Judge, Ct of Crim App, Pl 3                             DEM Elizabeth Davis Frizell           Precinct 202                                           01 
00110020004000005000000000000000005000000000000000000000000000000000000000000000000000000000000000000DEM       Judge, Ct of Crim App, Pl 3                             DEM Elizabeth Davis Frizell           Precinct 203                                           01 
00110020005000229000022000088000119000000000000000000000000000000000000000000000000000000000000000000DEM       Judge, Ct of Crim App, Pl 3                             DEM Elizabeth Davis Frizell           Precinct 301                                           01 
00110020006000082000009000037000036000000000000000000000000000000000000000000000000000000000000000000DEM       Judge, Ct of Crim App, Pl 3                             DEM Elizabeth Davis Frizell           Precinct 401                                           01 
00110020007000146000001000022000123000000000000000000000000000000000000000000000000000000000000000000DEM       Judge, Ct of Crim App, Pl 3                             DEM Elizabeth Davis Frizell           Precinct 402                                           01 
00120010001001037000056000702000279000000000000000000000000000000000000000000000000000000000000000000REP       Judge, Ct of Crim App, Pl 4                             REP Kevin Patrick Yeary               Precinct 101                                           01 
00120010002000956000049000671000236000000000000000000000000000000000000000000000000000000000000000000REP       Judge, Ct of Crim App, Pl 4                             REP Kevin Patrick Yeary               Precinct 201                                           01 
00120010003000976000057000726000193000000000000000000000000000000000000000000000000000000000000000000REP       Judge, Ct of Crim App, Pl 4                             REP Kevin Patrick Yeary               Precinct 202                                           01 
00120010004000049000001000002000046000000000000000000000000000000000000000000000000000000000000000000REP       Judge, Ct of Crim App, Pl 4                             REP Kevin Patrick Yeary               Precinct 203                                           01 
00120010005000635000036000406000193000000000000000000000000000000000000000000000000000000000000000000REP       Judge, Ct of Crim App, Pl 4                             REP Kevin Patrick Yeary               Precinct 301                                           01 
00120010006000620000016000414000190000000000000000000000000000000000000000000000000000000000000000000REP       Judge, Ct of Crim App, Pl 4                             REP Kevin Patrick Yeary               Precinct 401                                           01 
00120010007000090000004000018000068000000000000000000000000000000000000000000000000000000000000000000REP       Judge, Ct of Crim App, Pl 4                             REP Kevin Patrick Yeary               Precinct 402                                           01 
00120020001000305000028000156000121000000000000000000000000000000000000000000000000000000000000000000DEM       Judge, Ct of Crim App, Pl 4                             DEM Tina Clinton                      Precinct 101                                           01 
00120020002000166000013000101000052000000000000000000000000000000000000000000000000000000000000000000DEM       Judge, Ct of Crim App, Pl 4                             DEM Tina Clinton                      Precinct 201                                           01 
00120020003000123000013000071000039000000000000000000000000000000000000000000000000000000000000000000DEM       Judge, Ct of Crim App, Pl 4                             DEM Tina Clinton                      Precinct 202                                           01 
00120020004000006000000000000000006000000000000000000000000000000000000000000000000000000000000000000DEM       Judge, Ct of Crim App, Pl 4                             DEM Tina Clinton                      Precinct 203                                           01 
00120020005000223000023000085000115000000000000000000000000000000000000000000000000000000000000000000DEM       Judge, Ct of Crim App, Pl 4                             DEM Tina Clinton                      Precinct 301                                           01 
00120020006000076000009000035000032000000000000000000000000000000000000000000000000000000000000000000DEM       Judge, Ct of Crim App, Pl 4                             DEM Tina Clinton                      Precinct 401                                           01 
00120020007000150000001000020000129000000000000000000000000000000000000000000000000000000000000000000DEM       Judge, Ct of Crim App, Pl 4                             DEM Tina Clinton                      Precinct 402                                           01 
00130010001001041000054000704000283000000000000000000000000000000000000000000000000000000000000000000REP       Judge, Ct of Crim App, Pl 9                             REP David Newell                      Precinct 101                                           01 
00130010002000960000051000676000233000000000000000000000000000000000000000000000000000000000000000000REP       Judge, Ct of Crim App, Pl 9                             REP David Newell                      Precinct 201                                           01 
00130010003000984000059000728000197000000000000000000000000000000000000000000000000000000000000000000REP       Judge, Ct of Crim App, Pl 9                             REP David Newell                      Precinct 202                                           01 
00130010004000050000001000002000047000000000000000000000000000000000000000000000000000000000000000000REP       Judge, Ct of Crim App, Pl 9                             REP David Newell                      Precinct 203                                           01 
00130010005000632000036000406000190000000000000000000000000000000000000000000000000000000000000000000REP       Judge, Ct of Crim App, Pl 9                             REP David Newell                      Precinct 301                                           01 
00130010006000620000016000416000188000000000000000000000000000000000000000000000000000000000000000000REP       Judge, Ct of Crim App, Pl 9                             REP David Newell                      Precinct 401                                           01 
00130010007000102000004000018000080000000000000000000000000000000000000000000000000000000000000000000REP       Judge, Ct of Crim App, Pl 9                             REP David Newell                      Precinct 402                                           01 
00130020001000297000028000151000118000000000000000000000000000000000000000000000000000000000000000000DEM       Judge, Ct of Crim App, Pl 9                             DEM Brandon Birmingham                Precinct 101                                           01 
00130020002000165000012000098000055000000000000000000000000000000000000000000000000000000000000000000DEM       Judge, Ct of Crim App, Pl 9                             DEM Brandon Birmingham                Precinct 201                                           01 
00130020003000124000014000072000038000000000000000000000000000000000000000000000000000000000000000000DEM       Judge, Ct of Crim App, Pl 9                             DEM Brandon Birmingham                Precinct 202                                           01 
00130020004000005000000000000000005000000000000000000000000000000000000000000000000000000000000000000DEM       Judge, Ct of Crim App, Pl 9                             DEM Brandon Birmingham                Precinct 203                                           01 
00130020005000222000022000082000118000000000000000000000000000000000000000000000000000000000000000000DEM       Judge, Ct of Crim App, Pl 9                             DEM Brandon Birmingham                Precinct 301                                           01 
00130020006000076000009000033000034000000000000000000000000000000000000000000000000000000000000000000DEM       Judge, Ct of Crim App, Pl 9                             DEM Brandon Birmingham                Precinct 401                                           01 
00130020007000137000001000020000116000000000000000000000000000000000000000000000000000000000000000000DEM       Judge, Ct of Crim App, Pl 9                             DEM Brandon Birmingham                Precinct 402                                           01 
00140010001001031000055000700000276000000000000000000000000000000000000000000000000000000000000000000REP       Member, State BoE, Dist 15                              REP Jay Johnson                       Precinct 101                                           01 
00140010002000946000050000666000230000000000000000000000000000000000000000000000000000000000000000000REP       Member, State BoE, Dist 15                              REP Jay Johnson                       Precinct 201                                           01 
00140010003000986000061000729000196000000000000000000000000000000000000000000000000000000000000000000REP       Member, State BoE, Dist 15                              REP Jay Johnson                       Precinct 202                                           01 
00140010004000049000001000002000046000000000000000000000000000000000000000000000000000000000000000000REP       Member, State BoE, Dist 15                              REP Jay Johnson                       Precinct 203                                           01 
00140010005000637000038000406000193000000000000000000000000000000000000000000000000000000000000000000REP       Member, State BoE, Dist 15                              REP Jay Johnson                       Precinct 301                                           01 
00140010006000617000017000413000187000000000000000000000000000000000000000000000000000000000000000000REP       Member, State BoE, Dist 15                              REP Jay Johnson                       Precinct 401                                           01 
00140010007000104000004000018000082000000000000000000000000000000000000000000000000000000000000000000REP       Member, State BoE, Dist 15                              REP Jay Johnson                       Precinct 402                                           01 
00140020001000310000028000153000129000000000000000000000000000000000000000000000000000000000000000000DEM       Member, State BoE, Dist 15                              DEM John Betancourt                   Precinct 101                                           01 
00140020002000169000011000100000058000000000000000000000000000000000000000000000000000000000000000000DEM       Member, State BoE, Dist 15                              DEM John Betancourt                   Precinct 201                                           01 
00140020003000121000014000067000040000000000000000000000000000000000000000000000000000000000000000000DEM       Member, State BoE, Dist 15                              DEM John Betancourt                   Precinct 202                                           01 
00140020004000006000000000000000006000000000000000000000000000000000000000000000000000000000000000000DEM       Member, State BoE, Dist 15                              DEM John Betancourt                   Precinct 203                                           01 
00140020005000220000022000083000115000000000000000000000000000000000000000000000000000000000000000000DEM       Member, State BoE, Dist 15                              DEM John Betancourt                   Precinct 301                                           01 
00140020006000075000009000033000033000000000000000000000000000000000000000000000000000000000000000000DEM       Member, State BoE, Dist 15                              DEM John Betancourt                   Precinct 401                                           01 
00140020007000137000002000020000115000000000000000000000000000000000000000000000000000000000000000000DEM       Member, State BoE, Dist 15                              DEM John Betancourt                   Precinct 402                                           01 
00150010001001265000073000815000377000000000000000000000000000000000000000000000000000000000000000000REP       State Representative, Dist 87                           REP Four Price                        Precinct 101                                           01 
00150010002001088000058000751000279000000000000000000000000000000000000000000000000000000000000000000REP       State Representative, Dist 87                           REP Four Price                        Precinct 201                                           01 
00150010003001083000070000782000231000000000000000000000000000000000000000000000000000000000000000000REP       State Representative, Dist 87                           REP Four Price                        Precinct 202                                           01 
00150010004000051000001000002000048000000000000000000000000000000000000000000000000000000000000000000REP       State Representative, Dist 87                           REP Four Price                        Precinct 203                                           01 
00150010005000781000053000460000268000000000000000000000000000000000000000000000000000000000000000000REP       State Representative, Dist 87                           REP Four Price                        Precinct 301                                           01 
00150010006000675000020000440000215000000000000000000000000000000000000000000000000000000000000000000REP       State Representative, Dist 87                           REP Four Price                        Precinct 401                                           01 
00150010007000180000004000033000143000000000000000000000000000000000000000000000000000000000000000000REP       State Representative, Dist 87                           REP Four Price                        Precinct 402                                           01 
00160010001001256000069000811000376000000000000000000000000000000000000000000000000000000000000000000REP       Chief Justice, 7th Ct of App Dist                       REP Brian Quinn                       Precinct 101                                           01 
00160010002001081000057000744000280000000000000000000000000000000000000000000000000000000000000000000REP       Chief Justice, 7th Ct of App Dist                       REP Brian Quinn                       Precinct 201                                           01 
00160010003001069000067000773000229000000000000000000000000000000000000000000000000000000000000000000REP       Chief Justice, 7th Ct of App Dist                       REP Brian Quinn                       Precinct 202                                           01 
00160010004000051000001000002000048000000000000000000000000000000000000000000000000000000000000000000REP       Chief Justice, 7th Ct of App Dist                       REP Brian Quinn                       Precinct 203                                           01 
00160010005000785000051000461000273000000000000000000000000000000000000000000000000000000000000000000REP       Chief Justice, 7th Ct of App Dist                       REP Brian Quinn                       Precinct 301                                           01 
00160010006000675000019000440000216000000000000000000000000000000000000000000000000000000000000000000REP       Chief Justice, 7th Ct of App Dist                       REP Brian Quinn                       Precinct 401                                           01 
00160010007000183000004000031000148000000000000000000000000000000000000000000000000000000000000000000REP       Chief Justice, 7th Ct of App Dist                       REP Brian Quinn                       Precinct 402                                           01 
00170010001001266000067000819000380000000000000000000000000000000000000000000000000000000000000000000REP       Justice, 7th Ct of App Dist, Pl 4                       REP Larry Doss                        Precinct 101                                           01 
00170010002001080000057000744000279000000000000000000000000000000000000000000000000000000000000000000REP       Justice, 7th Ct of App Dist, Pl 4                       REP Larry Doss                        Precinct 201                                           01 
00170010003001076000066000779000231000000000000000000000000000000000000000000000000000000000000000000REP       Justice, 7th Ct of App Dist, Pl 4                       REP Larry Doss                        Precinct 202                                           01 
00170010004000051000001000002000048000000000000000000000000000000000000000000000000000000000000000000REP       Justice, 7th Ct of App Dist, Pl 4                       REP Larry Doss                        Precinct 203                                           01 
00170010005000786000051000465000270000000000000000000000000000000000000000000000000000000000000000000REP       Justice, 7th Ct of App Dist, Pl 4                       REP Larry Doss                        Precinct 301                                           01 
00170010006000672000019000439000214000000000000000000000000000000000000000000000000000000000000000000REP       Justice, 7th Ct of App Dist, Pl 4                       REP Larry Doss                        Precinct 401                                           01 
00170010007000177000003000031000143000000000000000000000000000000000000000000000000000000000000000000REP       Justice, 7th Ct of App Dist, Pl 4                       REP Larry Doss                        Precinct 402                                           01 
00180010001001249000070000803000376000000000000000000000000000000000000000000000000000000000000000000REP       Dist Attorney, 69th Judicial Dist                       REP Erin Lands                        Precinct 101                                           01 
00180010002001077000056000741000280000000000000000000000000000000000000000000000000000000000000000000REP       Dist Attorney, 69th Judicial Dist                       REP Erin Lands                        Precinct 201                                           01 
00180010003001074000068000774000232000000000000000000000000000000000000000000000000000000000000000000REP       Dist Attorney, 69th Judicial Dist                       REP Erin Lands                        Precinct 202                                           01 
00180010004000051000001000002000048000000000000000000000000000000000000000000000000000000000000000000REP       Dist Attorney, 69th Judicial Dist                       REP Erin Lands                        Precinct 203                                           01 
00180010005000788000051000464000273000000000000000000000000000000000000000000000000000000000000000000REP       Dist Attorney, 69th Judicial Dist                       REP Erin Lands                        Precinct 301                                           01 
00180010006000674000019000443000212000000000000000000000000000000000000000000000000000000000000000000REP       Dist Attorney, 69th Judicial Dist                       REP Erin Lands                        Precinct 401                                           01 
00180010007000185000004000033000148000000000000000000000000000000000000000000000000000000000000000000REP       Dist Attorney, 69th Judicial Dist                       REP Erin Lands                        Precinct 402                                           01 
