000000000300000000003000000000000000000PRECINCTS COUNTED - TOTAL                               PRECINCTS COUNTED - TOTAL                                      00 
00010010030002988700300029887          REGISTERED VOTERS - TOTAL                               REGISTERED VOTERS - TOTAL                                      00 
0002001003000191960030000000           BALLOTS CAST - TOTAL                                    BALLOTS CAST - TOTAL                                           00 
0003001003000000000030000000           BALLOTS CAST - BLANK                                    BALLOTS CAST - BLANK                                           00 
0004001003000138000030000000 REP       President / Vice-President                              REP Donald J. Trump / Michael R. Pence                         01 
0004002003000051010030000000 DEM       President / Vice-President                              DEM Joseph R. Biden / Kamala D. Harris                         01 
0004003003000001670030000000 LIB       President / Vice-President                              LIB Jo Jorgensen / Jeremy "Spike" Cohe                         01 
0004004003000000530030000000 GRN       President / Vice-President                              GRN Howie Hawkins / Angela Walker                              01 
0005001003000137010030000000 REP       US Senator                                              REP John Cornyn                                                01 
0005002003000048210030000000 DEM       US Senator                                              DEM Mary "MJ" Hegar                                            01 
0005003003000003150030000000 LIB       US Senator                                              LIB Kerry Douglas McKennon                                     01 
0005004003000001250030000000 GRN       US Senator                                              GRN David B. Collins                                           01 
0006001003000138070030000000 REP       US Representative, Dist 6                               REP Ron Wright                                                 01 
0006002003000046290030000000 DEM       US Representative, Dist 6                               DEM Stephen Daniel                                             01 
0006003003000004660030000000 LIB       US Representative, Dist 6                               LIB Melanie A. Black                                           01 
0007001003000137130030000000 REP       Railroad Commissioner                                   REP James "Jim" Wright                                         01 
0007002003000047190030000000 DEM       Railroad Commissioner                                   DEM Chrysta Castaneda                                          01 
0007003003000003730030000000 LIB       Railroad Commissioner                                   LIB Matt Sterett                                               01 
0007004003000001000030000000 GRN       Railroad Commissioner                                   GRN Katija "Kat" Gruene                                        01 
0008001003000136560030000000 REP       Chief Justice, Supreme Court                            REP Nathan Hecht                                               01 
0008002003000048590030000000 DEM       Chief Justice, Supreme Court                            DEM Amy Clark Meachum                                          01 
0008003003000003750030000000 LIB       Chief Justice, Supreme Court                            LIB Mark Ash                                                   01 
0009001003000140190030000000 REP       Justice, Supreme Court, Pl 6                            REP Jane Bland                                                 01 
0009002003000048460030000000 DEM       Justice, Supreme Court, Pl 6                            DEM Kathy Cheng                                                01 
0010001003000137140030000000 REP       Justice, Supreme Court, Pl 7                            REP Jeff Boyd                                                  01 
0010002003000048220030000000 DEM       Justice, Supreme Court, Pl 7                            DEM Staci Williams                                             01 
0010003003000003340030000000 LIB       Justice, Supreme Court, Pl 7                            LIB William Bryan Strange III                                  01 
0011001003000137320030000000 REP       Justice, Supreme Court, Pl 8                            REP Brett Busby                                                01 
0011002003000047580030000000 DEM       Justice, Supreme Court, Pl 8                            DEM Gisela D. Triana                                           01 
0011003003000003660030000000 LIB       Justice, Supreme Court, Pl 8                            LIB Tom Oxford                                                 01 
0012001003000138590030000000 REP       Judge, Ct of Crim App, Pl 3                             REP Bert Richardson                                            01 
0012002003000049660030000000 DEM       Judge, Ct of Crim App, Pl 3                             DEM Elizabeth Davis Frizell                                    01 
0013001003000139190030000000 REP       Judge, Ct of Crim App, Pl 4                             REP Kevin Patrick Yeary                                        01 
0013002003000048820030000000 DEM       Judge, Ct of Crim App, Pl 4                             DEM Tina Clinton                                               01 
0014001003000139690030000000 REP       Judge, Ct of Crim App, Pl 9                             REP David Newell                                               01 
0014002003000048330030000000 DEM       Judge, Ct of Crim App, Pl 9                             DEM Brandon Birmingham                                         01 
0015001003000139740030000000 REP       Member, State BoE, Dist 14                              REP Sue Melton-Malone                                          01 
0015002003000048380030000000 DEM       Member, State BoE, Dist 14                              DEM Greg Alvord                                                01 
0016001003000139690030000000 REP       State Senator, Dist 22                                  REP Brian Birdwell                                             01 
0016002003000048470030000000 DEM       State Senator, Dist 22                                  DEM Robert Vick                                                01 
0017001003000148670030000000 REP       State Representative, Dist 8                            REP Cody Harris                                                01 
0017002003000032880030000000 LIB       State Representative, Dist 8                            LIB R. Edwin Adams                                             01 
0018001003000169330030000000 REP       Justice, 10 Ct of App Dist, Pl 2                        REP Matt Johnson                                               01 
0019001003000168930030000000 REP       Justice, 10 Ct of App Dist, Pl 3                        REP John E. Neill                                              01 
0020001003000171300030000000 REP       Dist Judge, 13 Judicial Dist                            REP James Lagomarsino                                          01 
0021001003000169380030000000 REP       Criminal Dist Attorney                                  REP Will Thompson                                              01 
0022001003000170350030000000 REP       Judge, Cty Crt at Law                                   REP Amanda Putman                                              01 
0023001003000170570030000000 REP       Sheriff                                                 REP Elmer Tanner                                               01 
0024001003000171750030000000 REP       County Tax Assessor-Collector                           REP Mike Dowd                                                  01 
0025001000800044290008000000 REPCOM1   County Commissioner Pct 1                               REP Jason Grant                       Commissioner Pct 1       01 
0026001000800036960008000000 REPCOM2   County Commissioner Pct 3                               REP Eddie Moore                       Commissioner Pct 3       01 
0027001000800044130008000000 REPCON1   Constable Pct 1                                         REP Mike Davis                        Constable 1              01 
0028001000700038100007000000 REPCON2   Constable Pct 2                                         REP Raychaun Ballard                  Constable 2              01 
0029001000800036870008000000 REPCON3   Constable Pct 3                                         REP Bobby Rachel                      Constable 3              01 
0030001000700050750007000000 REPCON4   Constable Pct 4                                         REP Kipp Thomas                       Constable 4              01 
0031001000200002000002000000 NONHOS1   Proposition A Fairfield Hospital Dist                   For                                   Fairfield Hospital Dist  01Y
0031002000200000940002000000 NONHOS1   Proposition A Fairfield Hospital Dist                   Against                               Fairfield Hospital Dist  01Y
0032001000200001450002000000 NONISD1   Trustee, At Large Fairfield ISD                         Kevin Benedict                        Fairfield ISD            02 
0032002000200001010002000000 NONISD1   Trustee, At Large Fairfield ISD                         John T. Fryer                         Fairfield ISD            02 
0032003000200001060002000000 NONISD1   Trustee, At Large Fairfield ISD                         Kyle Lightsey                         Fairfield ISD            02 
0033001000600009560006000000 NONISD4   School Board Trustee Blooming Grove ISD                 Cody Muldner                          Blooming Grove ISD       02 
0033002000600010220006000000 NONISD4   School Board Trustee Blooming Grove ISD                 Larry Gillen                          Blooming Grove ISD       02 
0033003000600009840006000000 NONISD4   School Board Trustee Blooming Grove ISD                 Brett Melton                          Blooming Grove ISD       02 
0034001000300008430003000000 NONCIT3   Council Member, Precinct I (One): Corsicana Pct 1       Susan Hale                            Corsicana Pct 1          01 
0034002000300006730003000000 NONCIT3   Council Member, Precinct I (One): Corsicana Pct 1       Arlen Swartzentruber                  Corsicana Pct 1          01 
0035001000300004760003000000 NONCIT4   Council Member, Precinct II (Two) Corsicana Pct 2       Ralph Gonzalez                        Corsicana Pct 2          01 
0035002000300007060003000000 NONCIT4   Council Member, Precinct II (Two) Corsicana Pct 2       Ruby Williams                         Corsicana Pct 2          01 
0036001000100001110001000000 NONCIT2   At-Large Alderman City of Rice                          Lennie Deagen                         City of Rice             03 
0036002000100000810001000000 NONCIT2   At-Large Alderman City of Rice                          Stewart King                          City of Rice             03 
0036003000100001180001000000 NONCIT2   At-Large Alderman City of Rice                          Billy Perry                           City of Rice             03 
0036004000100001290001000000 NONCIT2   At-Large Alderman City of Rice                          Dusti Young                           City of Rice             03 
0036005000100001120001000000 NONCIT2   At-Large Alderman City of Rice                          John Perry                            City of Rice             03 
0036006000100001070001000000 NONCIT2   At-Large Alderman City of Rice                          Jack Gifford                          City of Rice             03 
0037001000200000800002000000 NONISD5   School Board Trustee Frost ISD                          Wyomia Roitz                          Frost ISD                03 
0037002000200003050002000000 NONISD5   School Board Trustee Frost ISD                          Michael Welborn                       Frost ISD                03 
0037003000200001860002000000 NONISD5   School Board Trustee Frost ISD                          James Cagle                           Frost ISD                03 
0037004000200002730002000000 NONISD5   School Board Trustee Frost ISD                          Bobbette Butler                       Frost ISD                03 
0037005000200002010002000000 NONISD5   School Board Trustee Frost ISD                          Seth Fuller                           Frost ISD                03 
0037006000200002360002000000 NONISD5   School Board Trustee Frost ISD                          Jeremy Woods                          Frost ISD                03 
0037007000200001790002000000 NONISD5   School Board Trustee Frost ISD                          Kerri Cook                            Frost ISD                03 
0038001000300004680003000000 NONISD3   School Board Trustee Rice ISD                           Maggie Martinez                       Rice ISD                 02 
0038002000300005410003000000 NONISD3   School Board Trustee Rice ISD                           Alan Stewart                          Rice ISD                 02 
0038003000300004990003000000 NONISD3   School Board Trustee Rice ISD                           Jason Blake                           Rice ISD                 02 
0039001000100001660001000000 NONCIT1   Proposition A City of Frost                             For                                   City of Frost            01Y
0039002000100000560001000000 NONCIT1   Proposition A City of Frost                             Against                               City of Frost            01Y
0040001000100000280001000000 NONISD2   Board of Trustees, Place 1 Ennis ISD                    Kelly McManus                         Ennis ISD                01 
0040002000100000050001000000 NONISD2   Board of Trustees, Place 1 Ennis ISD                    Candido "Candi" Casillas              Ennis ISD                01 
0041001000100000140001000000 NONISD2   Board of Trustees, Place 2 Ennis ISD                    Tommy Aguilar                         Ennis ISD                01 
0041002000100000100001000000 NONISD2   Board of Trustees, Place 2 Ennis ISD                    David Mach                            Ennis ISD                01 
0041003000100000060001000000 NONISD2   Board of Trustees, Place 2 Ennis ISD                    Robert Collins                        Ennis ISD                01 
