00010010001001067000000000000000000000000000000000000000000000000000000000000000000000000000000000000          REGISTERED VOTERS - TOTAL                               REGISTERED VOTERS - TOTAL             Precinct 1                                             00 
00010010002001068000000000000000000000000000000000000000000000000000000000000000000000000000000000000          REGISTERED VOTERS - TOTAL                               REGISTERED VOTERS - TOTAL             Precinct 2                                             00 
00010010003001819000000000000000000000000000000000000000000000000000000000000000000000000000000000000          REGISTERED VOTERS - TOTAL                               REGISTERED VOTERS - TOTAL             Precinct 3                                             00 
00010010004001741000000000000000000000000000000000000000000000000000000000000000000000000000000000000          REGISTERED VOTERS - TOTAL                               REGISTERED VOTERS - TOTAL             Precinct 4                                             00 
00010010005000154000000000000000000000000000000000000000000000000000000000000000000000000000000000000          REGISTERED VOTERS - TOTAL                               REGISTERED VOTERS - TOTAL             Precinct 5                                             00 
00010010006001108000000000000000000000000000000000000000000000000000000000000000000000000000000000000          REGISTERED VOTERS - TOTAL                               REGISTERED VOTERS - TOTAL             Precinct 6                                             00 
00010010007000294000000000000000000000000000000000000000000000000000000000000000000000000000000000000          REGISTERED VOTERS - TOTAL                               REGISTERED VOTERS - TOTAL             Precinct 7                                             00 
00010010008000159000000000000000000000000000000000000000000000000000000000000000000000000000000000000          REGISTERED VOTERS - TOTAL                               REGISTERED VOTERS - TOTAL             Precinct 8                                             00 
00010010009001494000000000000000000000000000000000000000000000000000000000000000000000000000000000000          REGISTERED VOTERS - TOTAL                               REGISTERED VOTERS - TOTAL             Precinct 9                                             00 
00020010001000590000039000395000156000000000000000000000000000000000000000000000000000000000000000000          BALLOTS CAST - TOTAL                                    BALLOTS CAST - TOTAL                  Precinct 1                                             00 
00020010002000736000071000430000235000000000000000000000000000000000000000000000000000000000000000000          BALLOTS CAST - TOTAL                                    BALLOTS CAST - TOTAL                  Precinct 2                                             00 
00020010003001031000099000640000292000000000000000000000000000000000000000000000000000000000000000000          BALLOTS CAST - TOTAL                                    BALLOTS CAST - TOTAL                  Precinct 3                                             00 
00020010004000843000091000468000284000000000000000000000000000000000000000000000000000000000000000000          BALLOTS CAST - TOTAL                                    BALLOTS CAST - TOTAL                  Precinct 4                                             00 
00020010005000124000009000051000064000000000000000000000000000000000000000000000000000000000000000000          BALLOTS CAST - TOTAL                                    BALLOTS CAST - TOTAL                  Precinct 5                                             00 
00020010006000672000039000355000278000000000000000000000000000000000000000000000000000000000000000000          BALLOTS CAST - TOTAL                                    BALLOTS CAST - TOTAL                  Precinct 6                                             00 
00020010007000215000018000085000112000000000000000000000000000000000000000000000000000000000000000000          BALLOTS CAST - TOTAL                                    BALLOTS CAST - TOTAL                  Precinct 7                                             00 
00020010008000133000005000061000067000000000000000000000000000000000000000000000000000000000000000000          BALLOTS CAST - TOTAL                                    BALLOTS CAST - TOTAL                  Precinct 8                                             00 
00020010009001051000071000659000321000000000000000000000000000000000000000000000000000000000000000000          BALLOTS CAST - TOTAL                                    BALLOTS CAST - TOTAL                  Precinct 9                                             00 
00030010001000000000000000000000000000000000000000000000000000000000000000000000000000000000000000000          BALLOTS CAST - BLANK                                    BALLOTS CAST - BLANK                  Precinct 1                                             00 
00030010002000001000000000001000000000000000000000000000000000000000000000000000000000000000000000000          BALLOTS CAST - BLANK                                    BALLOTS CAST - BLANK                  Precinct 2                                             00 
00030010003000000000000000000000000000000000000000000000000000000000000000000000000000000000000000000          BALLOTS CAST - BLANK                                    BALLOTS CAST - BLANK                  Precinct 3                                             00 
00030010004000001000000000001000000000000000000000000000000000000000000000000000000000000000000000000          BALLOTS CAST - BLANK                                    BALLOTS CAST - BLANK                  Precinct 4                                             00 
00030010005000000000000000000000000000000000000000000000000000000000000000000000000000000000000000000          BALLOTS CAST - BLANK                                    BALLOTS CAST - BLANK                  Precinct 5                                             00 
00030010006000000000000000000000000000000000000000000000000000000000000000000000000000000000000000000          BALLOTS CAST - BLANK                                    BALLOTS CAST - BLANK                  Precinct 6                                             00 
00030010007000000000000000000000000000000000000000000000000000000000000000000000000000000000000000000          BALLOTS CAST - BLANK                                    BALLOTS CAST - BLANK                  Precinct 7                                             00 
00030010008000000000000000000000000000000000000000000000000000000000000000000000000000000000000000000          BALLOTS CAST - BLANK                                    BALLOTS CAST - BLANK                  Precinct 8                                             00 
00030010009000000000000000000000000000000000000000000000000000000000000000000000000000000000000000000          BALLOTS CAST - BLANK                                    BALLOTS CAST - BLANK                  Precinct 9                                             00 
00040010001000442000018000301000123000000000000000000000000000000000000000000000000000000000000000000REP       President / Vice-President                              REP Donald J. Trump / Michael R. PencePrecinct 1                                             01 
00040010002000602000033000372000197000000000000000000000000000000000000000000000000000000000000000000REP       President / Vice-President                              REP Donald J. Trump / Michael R. PencePrecinct 2                                             01 
00040010003000743000048000477000218000000000000000000000000000000000000000000000000000000000000000000REP       President / Vice-President                              REP Donald J. Trump / Michael R. PencePrecinct 3                                             01 
00040010004000520000033000311000176000000000000000000000000000000000000000000000000000000000000000000REP       President / Vice-President                              REP Donald J. Trump / Michael R. PencePrecinct 4                                             01 
00040010005000101000007000043000051000000000000000000000000000000000000000000000000000000000000000000REP       President / Vice-President                              REP Donald J. Trump / Michael R. PencePrecinct 5                                             01 
00040010006000538000017000276000245000000000000000000000000000000000000000000000000000000000000000000REP       President / Vice-President                              REP Donald J. Trump / Michael R. PencePrecinct 6                                             01 
00040010007000198000014000077000107000000000000000000000000000000000000000000000000000000000000000000REP       President / Vice-President                              REP Donald J. Trump / Michael R. PencePrecinct 7                                             01 
00040010008000120000005000055000060000000000000000000000000000000000000000000000000000000000000000000REP       President / Vice-President                              REP Donald J. Trump / Michael R. PencePrecinct 8                                             01 
00040010009000867000053000550000264000000000000000000000000000000000000000000000000000000000000000000REP       President / Vice-President                              REP Donald J. Trump / Michael R. PencePrecinct 9                                             01 
00040020001000141000021000087000033000000000000000000000000000000000000000000000000000000000000000000DEM       President / Vice-President                              DEM Joseph R. Biden / Kamala D. HarrisPrecinct 1                                             01 
00040020002000115000034000051000030000000000000000000000000000000000000000000000000000000000000000000DEM       President / Vice-President                              DEM Joseph R. Biden / Kamala D. HarrisPrecinct 2                                             01 
00040020003000268000049000155000064000000000000000000000000000000000000000000000000000000000000000000DEM       President / Vice-President                              DEM Joseph R. Biden / Kamala D. HarrisPrecinct 3                                             01 
00040020004000310000057000150000103000000000000000000000000000000000000000000000000000000000000000000DEM       President / Vice-President                              DEM Joseph R. Biden / Kamala D. HarrisPrecinct 4                                             01 
00040020005000023000002000008000013000000000000000000000000000000000000000000000000000000000000000000DEM       President / Vice-President                              DEM Joseph R. Biden / Kamala D. HarrisPrecinct 5                                             01 
00040020006000123000021000074000028000000000000000000000000000000000000000000000000000000000000000000DEM       President / Vice-President                              DEM Joseph R. Biden / Kamala D. HarrisPrecinct 6                                             01 
00040020007000015000004000007000004000000000000000000000000000000000000000000000000000000000000000000DEM       President / Vice-President                              DEM Joseph R. Biden / Kamala D. HarrisPrecinct 7                                             01 
00040020008000011000000000005000006000000000000000000000000000000000000000000000000000000000000000000DEM       President / Vice-President                              DEM Joseph R. Biden / Kamala D. HarrisPrecinct 8                                             01 
00040020009000156000017000098000041000000000000000000000000000000000000000000000000000000000000000000DEM       President / Vice-President                              DEM Joseph R. Biden / Kamala D. HarrisPrecinct 9                                             01 
00040030001000005000000000005000000000000000000000000000000000000000000000000000000000000000000000000LIB       President / Vice-President                              LIB Jo Jorgensen / Jereny "Spike" CohePrecinct 1                                             01 
00040030002000008000002000004000002000000000000000000000000000000000000000000000000000000000000000000LIB       President / Vice-President                              LIB Jo Jorgensen / Jereny "Spike" CohePrecinct 2                                             01 
00040030003000010000000000003000007000000000000000000000000000000000000000000000000000000000000000000LIB       President / Vice-President                              LIB Jo Jorgensen / Jereny "Spike" CohePrecinct 3                                             01 
00040030004000006000000000004000002000000000000000000000000000000000000000000000000000000000000000000LIB       President / Vice-President                              LIB Jo Jorgensen / Jereny "Spike" CohePrecinct 4                                             01 
00040030005000000000000000000000000000000000000000000000000000000000000000000000000000000000000000000LIB       President / Vice-President                              LIB Jo Jorgensen / Jereny "Spike" CohePrecinct 5                                             01 
00040030006000006000000000003000003000000000000000000000000000000000000000000000000000000000000000000LIB       President / Vice-President                              LIB Jo Jorgensen / Jereny "Spike" CohePrecinct 6                                             01 
00040030007000000000000000000000000000000000000000000000000000000000000000000000000000000000000000000LIB       President / Vice-President                              LIB Jo Jorgensen / Jereny "Spike" CohePrecinct 7                                             01 
00040030008000001000000000000000001000000000000000000000000000000000000000000000000000000000000000000LIB       President / Vice-President                              LIB Jo Jorgensen / Jereny "Spike" CohePrecinct 8                                             01 
00040030009000017000000000007000010000000000000000000000000000000000000000000000000000000000000000000LIB       President / Vice-President                              LIB Jo Jorgensen / Jereny "Spike" CohePrecinct 9                                             01 
00040040001000000000000000000000000000000000000000000000000000000000000000000000000000000000000000000GRN       President / Vice-President                              GRN Howie Hawkins / Angela Walker     Precinct 1                                             01 
00040040002000002000001000000000001000000000000000000000000000000000000000000000000000000000000000000GRN       President / Vice-President                              GRN Howie Hawkins / Angela Walker     Precinct 2                                             01 
00040040003000002000000000002000000000000000000000000000000000000000000000000000000000000000000000000GRN       President / Vice-President                              GRN Howie Hawkins / Angela Walker     Precinct 3                                             01 
00040040004000001000000000001000000000000000000000000000000000000000000000000000000000000000000000000GRN       President / Vice-President                              GRN Howie Hawkins / Angela Walker     Precinct 4                                             01 
00040040005000000000000000000000000000000000000000000000000000000000000000000000000000000000000000000GRN       President / Vice-President                              GRN Howie Hawkins / Angela Walker     Precinct 5                                             01 
00040040006000002000000000001000001000000000000000000000000000000000000000000000000000000000000000000GRN       President / Vice-President                              GRN Howie Hawkins / Angela Walker     Precinct 6                                             01 
00040040007000000000000000000000000000000000000000000000000000000000000000000000000000000000000000000GRN       President / Vice-President                              GRN Howie Hawkins / Angela Walker     Precinct 7                                             01 
00040040008000000000000000000000000000000000000000000000000000000000000000000000000000000000000000000GRN       President / Vice-President                              GRN Howie Hawkins / Angela Walker     Precinct 8                                             01 
00040040009000003000000000002000001000000000000000000000000000000000000000000000000000000000000000000GRN       President / Vice-President                              GRN Howie Hawkins / Angela Walker     Precinct 9                                             01 
00040060001000002000000000002000000000000000000000000000000000000000000000000000000000000000000000000NON       President / Vice-President                              Write-in                              Precinct 1                                             01 
00040060002000005000000000001000004000000000000000000000000000000000000000000000000000000000000000000NON       President / Vice-President                              Write-in                              Precinct 2                                             01 
00040060003000000000000000000000000000000000000000000000000000000000000000000000000000000000000000000NON       President / Vice-President                              Write-in                              Precinct 3                                             01 
00040060004000001000000000000000001000000000000000000000000000000000000000000000000000000000000000000NON       President / Vice-President                              Write-in                              Precinct 4                                             01 
00040060005000000000000000000000000000000000000000000000000000000000000000000000000000000000000000000NON       President / Vice-President                              Write-in                              Precinct 5                                             01 
00040060006000001000001000000000000000000000000000000000000000000000000000000000000000000000000000000NON       President / Vice-President                              Write-in                              Precinct 6                                             01 
00040060007000000000000000000000000000000000000000000000000000000000000000000000000000000000000000000NON       President / Vice-President                              Write-in                              Precinct 7                                             01 
00040060008000001000000000001000000000000000000000000000000000000000000000000000000000000000000000000NON       President / Vice-President                              Write-in                              Precinct 8                                             01 
00040060009000001000000000001000000000000000000000000000000000000000000000000000000000000000000000000NON       President / Vice-President                              Write-in                              Precinct 9                                             01 
00040070001000000000000000000000000000000000000000000000000000000000000000000000000000000000000000000          President / Vice-President                              OVER VOTES                            Precinct 1                                             01 
00040070002000001000000000001000000000000000000000000000000000000000000000000000000000000000000000000          President / Vice-President                              OVER VOTES                            Precinct 2                                             01 
00040070003000001000000000001000000000000000000000000000000000000000000000000000000000000000000000000          President / Vice-President                              OVER VOTES                            Precinct 3                                             01 
00040070004000001000001000000000000000000000000000000000000000000000000000000000000000000000000000000          President / Vice-President                              OVER VOTES                            Precinct 4                                             01 
00040070005000000000000000000000000000000000000000000000000000000000000000000000000000000000000000000          President / Vice-President                              OVER VOTES                            Precinct 5                                             01 
00040070006000000000000000000000000000000000000000000000000000000000000000000000000000000000000000000          President / Vice-President                              OVER VOTES                            Precinct 6                                             01 
00040070007000000000000000000000000000000000000000000000000000000000000000000000000000000000000000000          President / Vice-President                              OVER VOTES                            Precinct 7                                             01 
00040070008000000000000000000000000000000000000000000000000000000000000000000000000000000000000000000          President / Vice-President                              OVER VOTES                            Precinct 8                                             01 
00040070009000000000000000000000000000000000000000000000000000000000000000000000000000000000000000000          President / Vice-President                              OVER VOTES                            Precinct 9                                             01 
00040080001000000000000000000000000000000000000000000000000000000000000000000000000000000000000000000          President / Vice-President                              UNDER VOTES                           Precinct 1                                             01 
00040080002000003000001000001000001000000000000000000000000000000000000000000000000000000000000000000          President / Vice-President                              UNDER VOTES                           Precinct 2                                             01 
00040080003000007000002000002000003000000000000000000000000000000000000000000000000000000000000000000          President / Vice-President                              UNDER VOTES                           Precinct 3                                             01 
00040080004000004000000000002000002000000000000000000000000000000000000000000000000000000000000000000          President / Vice-President                              UNDER VOTES                           Precinct 4                                             01 
00040080005000000000000000000000000000000000000000000000000000000000000000000000000000000000000000000          President / Vice-President                              UNDER VOTES                           Precinct 5                                             01 
00040080006000002000000000001000001000000000000000000000000000000000000000000000000000000000000000000          President / Vice-President                              UNDER VOTES                           Precinct 6                                             01 
00040080007000002000000000001000001000000000000000000000000000000000000000000000000000000000000000000          President / Vice-President                              UNDER VOTES                           Precinct 7                                             01 
00040080008000000000000000000000000000000000000000000000000000000000000000000000000000000000000000000          President / Vice-President                              UNDER VOTES                           Precinct 8                                             01 
00040080009000006000001000001000004000000000000000000000000000000000000000000000000000000000000000000          President / Vice-President                              UNDER VOTES                           Precinct 9                                             01 
00050010001000429000021000288000120000000000000000000000000000000000000000000000000000000000000000000REP       US Senator                                              REP John Cornyn                       Precinct 1                                             01 
00050010002000613000038000374000201000000000000000000000000000000000000000000000000000000000000000000REP       US Senator                                              REP John Cornyn                       Precinct 2                                             01 
00050010003000724000048000465000211000000000000000000000000000000000000000000000000000000000000000000REP       US Senator                                              REP John Cornyn                       Precinct 3                                             01 
00050010004000523000034000312000177000000000000000000000000000000000000000000000000000000000000000000REP       US Senator                                              REP John Cornyn                       Precinct 4                                             01 
00050010005000099000007000043000049000000000000000000000000000000000000000000000000000000000000000000REP       US Senator                                              REP John Cornyn                       Precinct 5                                             01 
00050010006000535000016000280000239000000000000000000000000000000000000000000000000000000000000000000REP       US Senator                                              REP John Cornyn                       Precinct 6                                             01 
00050010007000197000014000077000106000000000000000000000000000000000000000000000000000000000000000000REP       US Senator                                              REP John Cornyn                       Precinct 7                                             01 
00050010008000119000005000056000058000000000000000000000000000000000000000000000000000000000000000000REP       US Senator                                              REP John Cornyn                       Precinct 8                                             01 
00050010009000863000050000557000256000000000000000000000000000000000000000000000000000000000000000000REP       US Senator                                              REP John Cornyn                       Precinct 9                                             01 
00050020001000137000016000086000035000000000000000000000000000000000000000000000000000000000000000000DEM       US Senator                                              DEM Mary "MJ" Hegar                   Precinct 1                                             01 
00050020002000106000032000047000027000000000000000000000000000000000000000000000000000000000000000000DEM       US Senator                                              DEM Mary "MJ" Hegar                   Precinct 2                                             01 
00050020003000251000045000144000062000000000000000000000000000000000000000000000000000000000000000000DEM       US Senator                                              DEM Mary "MJ" Hegar                   Precinct 3                                             01 
00050020004000277000054000137000086000000000000000000000000000000000000000000000000000000000000000000DEM       US Senator                                              DEM Mary "MJ" Hegar                   Precinct 4                                             01 
00050020005000020000002000008000010000000000000000000000000000000000000000000000000000000000000000000DEM       US Senator                                              DEM Mary "MJ" Hegar                   Precinct 5                                             01 
00050020006000112000022000063000027000000000000000000000000000000000000000000000000000000000000000000DEM       US Senator                                              DEM Mary "MJ" Hegar                   Precinct 6                                             01 
00050020007000012000003000006000003000000000000000000000000000000000000000000000000000000000000000000DEM       US Senator                                              DEM Mary "MJ" Hegar                   Precinct 7                                             01 
00050020008000013000000000004000009000000000000000000000000000000000000000000000000000000000000000000DEM       US Senator                                              DEM Mary "MJ" Hegar                   Precinct 8                                             01 
00050020009000149000016000085000048000000000000000000000000000000000000000000000000000000000000000000DEM       US Senator                                              DEM Mary "MJ" Hegar                   Precinct 9                                             01 
00050030001000008000000000008000000000000000000000000000000000000000000000000000000000000000000000000LIB       US Senator                                              LIB Kerry Douglas McKennon            Precinct 1                                             01 
00050030002000005000000000003000002000000000000000000000000000000000000000000000000000000000000000000LIB       US Senator                                              LIB Kerry Douglas McKennon            Precinct 2                                             01 
00050030003000025000000000014000011000000000000000000000000000000000000000000000000000000000000000000LIB       US Senator                                              LIB Kerry Douglas McKennon            Precinct 3                                             01 
00050030004000012000000000006000006000000000000000000000000000000000000000000000000000000000000000000LIB       US Senator                                              LIB Kerry Douglas McKennon            Precinct 4                                             01 
00050030005000001000000000000000001000000000000000000000000000000000000000000000000000000000000000000LIB       US Senator                                              LIB Kerry Douglas McKennon            Precinct 5                                             01 
00050030006000014000000000008000006000000000000000000000000000000000000000000000000000000000000000000LIB       US Senator                                              LIB Kerry Douglas McKennon            Precinct 6                                             01 
00050030007000002000000000001000001000000000000000000000000000000000000000000000000000000000000000000LIB       US Senator                                              LIB Kerry Douglas McKennon            Precinct 7                                             01 
00050030008000001000000000001000000000000000000000000000000000000000000000000000000000000000000000000LIB       US Senator                                              LIB Kerry Douglas McKennon            Precinct 8                                             01 
00050030009000016000000000008000008000000000000000000000000000000000000000000000000000000000000000000LIB       US Senator                                              LIB Kerry Douglas McKennon            Precinct 9                                             01 
00050040001000000000000000000000000000000000000000000000000000000000000000000000000000000000000000000GRN       US Senator                                              GRN David B. Collins                  Precinct 1                                             01 
00050040002000001000000000000000001000000000000000000000000000000000000000000000000000000000000000000GRN       US Senator                                              GRN David B. Collins                  Precinct 2                                             01 
00050040003000006000000000002000004000000000000000000000000000000000000000000000000000000000000000000GRN       US Senator                                              GRN David B. Collins                  Precinct 3                                             01 
00050040004000006000000000001000005000000000000000000000000000000000000000000000000000000000000000000GRN       US Senator                                              GRN David B. Collins                  Precinct 4                                             01 
00050040005000000000000000000000000000000000000000000000000000000000000000000000000000000000000000000GRN       US Senator                                              GRN David B. Collins                  Precinct 5                                             01 
00050040006000002000000000001000001000000000000000000000000000000000000000000000000000000000000000000GRN       US Senator                                              GRN David B. Collins                  Precinct 6                                             01 
00050040007000000000000000000000000000000000000000000000000000000000000000000000000000000000000000000GRN       US Senator                                              GRN David B. Collins                  Precinct 7                                             01 
00050040008000000000000000000000000000000000000000000000000000000000000000000000000000000000000000000GRN       US Senator                                              GRN David B. Collins                  Precinct 8                                             01 
00050040009000003000000000003000000000000000000000000000000000000000000000000000000000000000000000000GRN       US Senator                                              GRN David B. Collins                  Precinct 9                                             01 
00050060001000000000000000000000000000000000000000000000000000000000000000000000000000000000000000000NON       US Senator                                              Write-in                              Precinct 1                                             01 
00050060002000000000000000000000000000000000000000000000000000000000000000000000000000000000000000000NON       US Senator                                              Write-in                              Precinct 2                                             01 
00050060003000000000000000000000000000000000000000000000000000000000000000000000000000000000000000000NON       US Senator                                              Write-in                              Precinct 3                                             01 
00050060004000000000000000000000000000000000000000000000000000000000000000000000000000000000000000000NON       US Senator                                              Write-in                              Precinct 4                                             01 
00050060005000000000000000000000000000000000000000000000000000000000000000000000000000000000000000000NON       US Senator                                              Write-in                              Precinct 5                                             01 
00050060006000000000000000000000000000000000000000000000000000000000000000000000000000000000000000000NON       US Senator                                              Write-in                              Precinct 6                                             01 
00050060007000000000000000000000000000000000000000000000000000000000000000000000000000000000000000000NON       US Senator                                              Write-in                              Precinct 7                                             01 
00050060008000000000000000000000000000000000000000000000000000000000000000000000000000000000000000000NON       US Senator                                              Write-in                              Precinct 8                                             01 
00050060009000001000000000001000000000000000000000000000000000000000000000000000000000000000000000000NON       US Senator                                              Write-in                              Precinct 9                                             01 
00050070001000001000000000001000000000000000000000000000000000000000000000000000000000000000000000000          US Senator                                              OVER VOTES                            Precinct 1                                             01 
00050070002000000000000000000000000000000000000000000000000000000000000000000000000000000000000000000          US Senator                                              OVER VOTES                            Precinct 2                                             01 
00050070003000001000000000001000000000000000000000000000000000000000000000000000000000000000000000000          US Senator                                              OVER VOTES                            Precinct 3                                             01 
00050070004000003000001000002000000000000000000000000000000000000000000000000000000000000000000000000          US Senator                                              OVER VOTES                            Precinct 4                                             01 
00050070005000000000000000000000000000000000000000000000000000000000000000000000000000000000000000000          US Senator                                              OVER VOTES                            Precinct 5                                             01 
00050070006000000000000000000000000000000000000000000000000000000000000000000000000000000000000000000          US Senator                                              OVER VOTES                            Precinct 6                                             01 
00050070007000000000000000000000000000000000000000000000000000000000000000000000000000000000000000000          US Senator                                              OVER VOTES                            Precinct 7                                             01 
00050070008000000000000000000000000000000000000000000000000000000000000000000000000000000000000000000          US Senator                                              OVER VOTES                            Precinct 8                                             01 
00050070009000000000000000000000000000000000000000000000000000000000000000000000000000000000000000000          US Senator                                              OVER VOTES                            Precinct 9                                             01 
00050080001000015000002000012000001000000000000000000000000000000000000000000000000000000000000000000          US Senator                                              UNDER VOTES                           Precinct 1                                             01 
00050080002000011000001000006000004000000000000000000000000000000000000000000000000000000000000000000          US Senator                                              UNDER VOTES                           Precinct 2                                             01 
00050080003000024000006000014000004000000000000000000000000000000000000000000000000000000000000000000          US Senator                                              UNDER VOTES                           Precinct 3                                             01 
00050080004000022000002000010000010000000000000000000000000000000000000000000000000000000000000000000          US Senator                                              UNDER VOTES                           Precinct 4                                             01 
00050080005000004000000000000000004000000000000000000000000000000000000000000000000000000000000000000          US Senator                                              UNDER VOTES                           Precinct 5                                             01 
00050080006000009000001000003000005000000000000000000000000000000000000000000000000000000000000000000          US Senator                                              UNDER VOTES                           Precinct 6                                             01 
00050080007000004000001000001000002000000000000000000000000000000000000000000000000000000000000000000          US Senator                                              UNDER VOTES                           Precinct 7                                             01 
00050080008000000000000000000000000000000000000000000000000000000000000000000000000000000000000000000          US Senator                                              UNDER VOTES                           Precinct 8                                             01 
00050080009000019000005000005000009000000000000000000000000000000000000000000000000000000000000000000          US Senator                                              UNDER VOTES                           Precinct 9                                             01 
00060010001000446000020000303000123000000000000000000000000000000000000000000000000000000000000000000REP       US Representative, Dist 19                              REP Jodey C. Arrington                Precinct 1                                             01 
00060010002000625000037000378000210000000000000000000000000000000000000000000000000000000000000000000REP       US Representative, Dist 19                              REP Jodey C. Arrington                Precinct 2                                             01 
00060010003000740000048000472000220000000000000000000000000000000000000000000000000000000000000000000REP       US Representative, Dist 19                              REP Jodey C. Arrington                Precinct 3                                             01 
00060010004000523000034000316000173000000000000000000000000000000000000000000000000000000000000000000REP       US Representative, Dist 19                              REP Jodey C. Arrington                Precinct 4                                             01 
00060010005000104000007000043000054000000000000000000000000000000000000000000000000000000000000000000REP       US Representative, Dist 19                              REP Jodey C. Arrington                Precinct 5                                             01 
00060010006000544000018000281000245000000000000000000000000000000000000000000000000000000000000000000REP       US Representative, Dist 19                              REP Jodey C. Arrington                Precinct 6                                             01 
00060010007000201000015000079000107000000000000000000000000000000000000000000000000000000000000000000REP       US Representative, Dist 19                              REP Jodey C. Arrington                Precinct 7                                             01 
00060010008000121000005000057000059000000000000000000000000000000000000000000000000000000000000000000REP       US Representative, Dist 19                              REP Jodey C. Arrington                Precinct 8                                             01 
00060010009000881000051000566000264000000000000000000000000000000000000000000000000000000000000000000REP       US Representative, Dist 19                              REP Jodey C. Arrington                Precinct 9                                             01 
00060020001000126000017000079000030000000000000000000000000000000000000000000000000000000000000000000DEM       US Representative, Dist 19                              DEM Tom Watson                        Precinct 1                                             01 
00060020002000094000033000044000017000000000000000000000000000000000000000000000000000000000000000000DEM       US Representative, Dist 19                              DEM Tom Watson                        Precinct 2                                             01 
00060020003000251000045000146000060000000000000000000000000000000000000000000000000000000000000000000DEM       US Representative, Dist 19                              DEM Tom Watson                        Precinct 3                                             01 
00060020004000276000053000132000091000000000000000000000000000000000000000000000000000000000000000000DEM       US Representative, Dist 19                              DEM Tom Watson                        Precinct 4                                             01 
00060020005000019000002000008000009000000000000000000000000000000000000000000000000000000000000000000DEM       US Representative, Dist 19                              DEM Tom Watson                        Precinct 5                                             01 
00060020006000105000019000065000021000000000000000000000000000000000000000000000000000000000000000000DEM       US Representative, Dist 19                              DEM Tom Watson                        Precinct 6                                             01 
00060020007000009000003000004000002000000000000000000000000000000000000000000000000000000000000000000DEM       US Representative, Dist 19                              DEM Tom Watson                        Precinct 7                                             01 
00060020008000012000000000004000008000000000000000000000000000000000000000000000000000000000000000000DEM       US Representative, Dist 19                              DEM Tom Watson                        Precinct 8                                             01 
00060020009000135000017000079000039000000000000000000000000000000000000000000000000000000000000000000DEM       US Representative, Dist 19                              DEM Tom Watson                        Precinct 9                                             01 
00060030001000005000000000003000002000000000000000000000000000000000000000000000000000000000000000000LIB       US Representative, Dist 19                              LIB Joe Burnes                        Precinct 1                                             01 
00060030002000010000000000005000005000000000000000000000000000000000000000000000000000000000000000000LIB       US Representative, Dist 19                              LIB Joe Burnes                        Precinct 2                                             01 
00060030003000015000001000006000008000000000000000000000000000000000000000000000000000000000000000000LIB       US Representative, Dist 19                              LIB Joe Burnes                        Precinct 3                                             01 
00060030004000015000000000006000009000000000000000000000000000000000000000000000000000000000000000000LIB       US Representative, Dist 19                              LIB Joe Burnes                        Precinct 4                                             01 
00060030005000000000000000000000000000000000000000000000000000000000000000000000000000000000000000000LIB       US Representative, Dist 19                              LIB Joe Burnes                        Precinct 5                                             01 
00060030006000010000001000003000006000000000000000000000000000000000000000000000000000000000000000000LIB       US Representative, Dist 19                              LIB Joe Burnes                        Precinct 6                                             01 
00060030007000002000000000001000001000000000000000000000000000000000000000000000000000000000000000000LIB       US Representative, Dist 19                              LIB Joe Burnes                        Precinct 7                                             01 
00060030008000000000000000000000000000000000000000000000000000000000000000000000000000000000000000000LIB       US Representative, Dist 19                              LIB Joe Burnes                        Precinct 8                                             01 
00060030009000017000000000007000010000000000000000000000000000000000000000000000000000000000000000000LIB       US Representative, Dist 19                              LIB Joe Burnes                        Precinct 9                                             01 
00060040001000000000000000000000000000000000000000000000000000000000000000000000000000000000000000000          US Representative, Dist 19                              OVER VOTES                            Precinct 1                                             01 
00060040002000001000000000001000000000000000000000000000000000000000000000000000000000000000000000000          US Representative, Dist 19                              OVER VOTES                            Precinct 2                                             01 
00060040003000001000000000001000000000000000000000000000000000000000000000000000000000000000000000000          US Representative, Dist 19                              OVER VOTES                            Precinct 3                                             01 
00060040004000000000000000000000000000000000000000000000000000000000000000000000000000000000000000000          US Representative, Dist 19                              OVER VOTES                            Precinct 4                                             01 
00060040005000000000000000000000000000000000000000000000000000000000000000000000000000000000000000000          US Representative, Dist 19                              OVER VOTES                            Precinct 5                                             01 
00060040006000000000000000000000000000000000000000000000000000000000000000000000000000000000000000000          US Representative, Dist 19                              OVER VOTES                            Precinct 6                                             01 
00060040007000000000000000000000000000000000000000000000000000000000000000000000000000000000000000000          US Representative, Dist 19                              OVER VOTES                            Precinct 7                                             01 
00060040008000000000000000000000000000000000000000000000000000000000000000000000000000000000000000000          US Representative, Dist 19                              OVER VOTES                            Precinct 8                                             01 
00060040009000000000000000000000000000000000000000000000000000000000000000000000000000000000000000000          US Representative, Dist 19                              OVER VOTES                            Precinct 9                                             01 
00060050001000013000002000010000001000000000000000000000000000000000000000000000000000000000000000000          US Representative, Dist 19                              UNDER VOTES                           Precinct 1                                             01 
00060050002000006000001000002000003000000000000000000000000000000000000000000000000000000000000000000          US Representative, Dist 19                              UNDER VOTES                           Precinct 2                                             01 
00060050003000024000005000015000004000000000000000000000000000000000000000000000000000000000000000000          US Representative, Dist 19                              UNDER VOTES                           Precinct 3                                             01 
00060050004000029000004000014000011000000000000000000000000000000000000000000000000000000000000000000          US Representative, Dist 19                              UNDER VOTES                           Precinct 4                                             01 
00060050005000001000000000000000001000000000000000000000000000000000000000000000000000000000000000000          US Representative, Dist 19                              UNDER VOTES                           Precinct 5                                             01 
00060050006000013000001000006000006000000000000000000000000000000000000000000000000000000000000000000          US Representative, Dist 19                              UNDER VOTES                           Precinct 6                                             01 
00060050007000003000000000001000002000000000000000000000000000000000000000000000000000000000000000000          US Representative, Dist 19                              UNDER VOTES                           Precinct 7                                             01 
00060050008000000000000000000000000000000000000000000000000000000000000000000000000000000000000000000          US Representative, Dist 19                              UNDER VOTES                           Precinct 8                                             01 
00060050009000018000003000007000008000000000000000000000000000000000000000000000000000000000000000000          US Representative, Dist 19                              UNDER VOTES                           Precinct 9                                             01 
00070010001000426000018000288000120000000000000000000000000000000000000000000000000000000000000000000REP       Railroad Commissioner                                   REP James "Jim" Wright                Precinct 1                                             01 
00070010002000612000038000378000196000000000000000000000000000000000000000000000000000000000000000000REP       Railroad Commissioner                                   REP James "Jim" Wright                Precinct 2                                             01 
00070010003000712000047000460000205000000000000000000000000000000000000000000000000000000000000000000REP       Railroad Commissioner                                   REP James "Jim" Wright                Precinct 3                                             01 
00070010004000499000032000306000161000000000000000000000000000000000000000000000000000000000000000000REP       Railroad Commissioner                                   REP James "Jim" Wright                Precinct 4                                             01 
00070010005000102000007000043000052000000000000000000000000000000000000000000000000000000000000000000REP       Railroad Commissioner                                   REP James "Jim" Wright                Precinct 5                                             01 
00070010006000524000016000271000237000000000000000000000000000000000000000000000000000000000000000000REP       Railroad Commissioner                                   REP James "Jim" Wright                Precinct 6                                             01 
00070010007000196000015000079000102000000000000000000000000000000000000000000000000000000000000000000REP       Railroad Commissioner                                   REP James "Jim" Wright                Precinct 7                                             01 
00070010008000121000005000056000060000000000000000000000000000000000000000000000000000000000000000000REP       Railroad Commissioner                                   REP James "Jim" Wright                Precinct 8                                             01 
00070010009000860000051000551000258000000000000000000000000000000000000000000000000000000000000000000REP       Railroad Commissioner                                   REP James "Jim" Wright                Precinct 9                                             01 
00070020001000135000018000084000033000000000000000000000000000000000000000000000000000000000000000000DEM       Railroad Commissioner                                   DEM Chrysta Castaneda                 Precinct 1                                             01 
00070020002000095000031000041000023000000000000000000000000000000000000000000000000000000000000000000DEM       Railroad Commissioner                                   DEM Chrysta Castaneda                 Precinct 2                                             01 
00070020003000274000044000156000074000000000000000000000000000000000000000000000000000000000000000000DEM       Railroad Commissioner                                   DEM Chrysta Castaneda                 Precinct 3                                             01 
00070020004000295000055000142000098000000000000000000000000000000000000000000000000000000000000000000DEM       Railroad Commissioner                                   DEM Chrysta Castaneda                 Precinct 4                                             01 
00070020005000017000002000006000009000000000000000000000000000000000000000000000000000000000000000000DEM       Railroad Commissioner                                   DEM Chrysta Castaneda                 Precinct 5                                             01 
00070020006000110000019000065000026000000000000000000000000000000000000000000000000000000000000000000DEM       Railroad Commissioner                                   DEM Chrysta Castaneda                 Precinct 6                                             01 
00070020007000011000002000005000004000000000000000000000000000000000000000000000000000000000000000000DEM       Railroad Commissioner                                   DEM Chrysta Castaneda                 Precinct 7                                             01 
00070020008000010000000000004000006000000000000000000000000000000000000000000000000000000000000000000DEM       Railroad Commissioner                                   DEM Chrysta Castaneda                 Precinct 8                                             01 
00070020009000133000016000081000036000000000000000000000000000000000000000000000000000000000000000000DEM       Railroad Commissioner                                   DEM Chrysta Castaneda                 Precinct 9                                             01 
00070030001000015000001000012000002000000000000000000000000000000000000000000000000000000000000000000LIB       Railroad Commissioner                                   LIB Matt Sterett                      Precinct 1                                             01 
00070030002000011000000000005000006000000000000000000000000000000000000000000000000000000000000000000LIB       Railroad Commissioner                                   LIB Matt Sterett                      Precinct 2                                             01 
00070030003000017000001000011000005000000000000000000000000000000000000000000000000000000000000000000LIB       Railroad Commissioner                                   LIB Matt Sterett                      Precinct 3                                             01 
00070030004000012000001000005000006000000000000000000000000000000000000000000000000000000000000000000LIB       Railroad Commissioner                                   LIB Matt Sterett                      Precinct 4                                             01 
00070030005000001000000000001000000000000000000000000000000000000000000000000000000000000000000000000LIB       Railroad Commissioner                                   LIB Matt Sterett                      Precinct 5                                             01 
00070030006000015000001000007000007000000000000000000000000000000000000000000000000000000000000000000LIB       Railroad Commissioner                                   LIB Matt Sterett                      Precinct 6                                             01 
00070030007000001000000000000000001000000000000000000000000000000000000000000000000000000000000000000LIB       Railroad Commissioner                                   LIB Matt Sterett                      Precinct 7                                             01 
00070030008000000000000000000000000000000000000000000000000000000000000000000000000000000000000000000LIB       Railroad Commissioner                                   LIB Matt Sterett                      Precinct 8                                             01 
00070030009000023000000000014000009000000000000000000000000000000000000000000000000000000000000000000LIB       Railroad Commissioner                                   LIB Matt Sterett                      Precinct 9                                             01 
00070040001000001000000000001000000000000000000000000000000000000000000000000000000000000000000000000GRN       Railroad Commissioner                                   GRN Katija Kat Gruene               Precinct 1                                             01 
00070040002000004000001000001000002000000000000000000000000000000000000000000000000000000000000000000GRN       Railroad Commissioner                                   GRN Katija Kat Gruene               Precinct 2                                             01 
00070040003000004000002000000000002000000000000000000000000000000000000000000000000000000000000000000GRN       Railroad Commissioner                                   GRN Katija Kat Gruene               Precinct 3                                             01 
00070040004000007000000000002000005000000000000000000000000000000000000000000000000000000000000000000GRN       Railroad Commissioner                                   GRN Katija Kat Gruene               Precinct 4                                             01 
00070040005000000000000000000000000000000000000000000000000000000000000000000000000000000000000000000GRN       Railroad Commissioner                                   GRN Katija Kat Gruene               Precinct 5                                             01 
00070040006000004000001000003000000000000000000000000000000000000000000000000000000000000000000000000GRN       Railroad Commissioner                                   GRN Katija Kat Gruene               Precinct 6                                             01 
00070040007000002000001000000000001000000000000000000000000000000000000000000000000000000000000000000GRN       Railroad Commissioner                                   GRN Katija Kat Gruene               Precinct 7                                             01 
00070040008000001000000000000000001000000000000000000000000000000000000000000000000000000000000000000GRN       Railroad Commissioner                                   GRN Katija Kat Gruene               Precinct 8                                             01 
00070040009000006000000000004000002000000000000000000000000000000000000000000000000000000000000000000GRN       Railroad Commissioner                                   GRN Katija Kat Gruene               Precinct 9                                             01 
00070050001000000000000000000000000000000000000000000000000000000000000000000000000000000000000000000          Railroad Commissioner                                   OVER VOTES                            Precinct 1                                             01 
00070050002000000000000000000000000000000000000000000000000000000000000000000000000000000000000000000          Railroad Commissioner                                   OVER VOTES                            Precinct 2                                             01 
00070050003000000000000000000000000000000000000000000000000000000000000000000000000000000000000000000          Railroad Commissioner                                   OVER VOTES                            Precinct 3                                             01 
00070050004000001000000000001000000000000000000000000000000000000000000000000000000000000000000000000          Railroad Commissioner                                   OVER VOTES                            Precinct 4                                             01 
00070050005000000000000000000000000000000000000000000000000000000000000000000000000000000000000000000          Railroad Commissioner                                   OVER VOTES                            Precinct 5                                             01 
00070050006000000000000000000000000000000000000000000000000000000000000000000000000000000000000000000          Railroad Commissioner                                   OVER VOTES                            Precinct 6                                             01 
00070050007000000000000000000000000000000000000000000000000000000000000000000000000000000000000000000          Railroad Commissioner                                   OVER VOTES                            Precinct 7                                             01 
00070050008000000000000000000000000000000000000000000000000000000000000000000000000000000000000000000          Railroad Commissioner                                   OVER VOTES                            Precinct 8                                             01 
00070050009000000000000000000000000000000000000000000000000000000000000000000000000000000000000000000          Railroad Commissioner                                   OVER VOTES                            Precinct 9                                             01 
00070060001000013000002000010000001000000000000000000000000000000000000000000000000000000000000000000          Railroad Commissioner                                   UNDER VOTES                           Precinct 1                                             01 
00070060002000014000001000005000008000000000000000000000000000000000000000000000000000000000000000000          Railroad Commissioner                                   UNDER VOTES                           Precinct 2                                             01 
00070060003000024000005000013000006000000000000000000000000000000000000000000000000000000000000000000          Railroad Commissioner                                   UNDER VOTES                           Precinct 3                                             01 
00070060004000029000003000012000014000000000000000000000000000000000000000000000000000000000000000000          Railroad Commissioner                                   UNDER VOTES                           Precinct 4                                             01 
00070060005000004000000000001000003000000000000000000000000000000000000000000000000000000000000000000          Railroad Commissioner                                   UNDER VOTES                           Precinct 5                                             01 
00070060006000019000002000009000008000000000000000000000000000000000000000000000000000000000000000000          Railroad Commissioner                                   UNDER VOTES                           Precinct 6                                             01 
00070060007000005000000000001000004000000000000000000000000000000000000000000000000000000000000000000          Railroad Commissioner                                   UNDER VOTES                           Precinct 7                                             01 
00070060008000001000000000001000000000000000000000000000000000000000000000000000000000000000000000000          Railroad Commissioner                                   UNDER VOTES                           Precinct 8                                             01 
00070060009000029000004000009000016000000000000000000000000000000000000000000000000000000000000000000          Railroad Commissioner                                   UNDER VOTES                           Precinct 9                                             01 
00080010001000423000018000286000119000000000000000000000000000000000000000000000000000000000000000000REP       Chief Justice, Supreme Court                            REP Nathan Hecht                      Precinct 1                                             01 
00080010002000596000037000368000191000000000000000000000000000000000000000000000000000000000000000000REP       Chief Justice, Supreme Court                            REP Nathan Hecht                      Precinct 2                                             01 
00080010003000710000047000454000209000000000000000000000000000000000000000000000000000000000000000000REP       Chief Justice, Supreme Court                            REP Nathan Hecht                      Precinct 3                                             01 
00080010004000501000030000306000165000000000000000000000000000000000000000000000000000000000000000000REP       Chief Justice, Supreme Court                            REP Nathan Hecht                      Precinct 4                                             01 
00080010005000099000006000043000050000000000000000000000000000000000000000000000000000000000000000000REP       Chief Justice, Supreme Court                            REP Nathan Hecht                      Precinct 5                                             01 
00080010006000524000014000272000238000000000000000000000000000000000000000000000000000000000000000000REP       Chief Justice, Supreme Court                            REP Nathan Hecht                      Precinct 6                                             01 
00080010007000192000013000076000103000000000000000000000000000000000000000000000000000000000000000000REP       Chief Justice, Supreme Court                            REP Nathan Hecht                      Precinct 7                                             01 
00080010008000114000005000052000057000000000000000000000000000000000000000000000000000000000000000000REP       Chief Justice, Supreme Court                            REP Nathan Hecht                      Precinct 8                                             01 
00080010009000852000050000548000254000000000000000000000000000000000000000000000000000000000000000000REP       Chief Justice, Supreme Court                            REP Nathan Hecht                      Precinct 9                                             01 
00080020001000136000019000085000032000000000000000000000000000000000000000000000000000000000000000000DEM       Chief Justice, Supreme Court                            DEM Amy Clark Meachum                 Precinct 1                                             01 
00080020002000108000034000044000030000000000000000000000000000000000000000000000000000000000000000000DEM       Chief Justice, Supreme Court                            DEM Amy Clark Meachum                 Precinct 2                                             01 
00080020003000268000043000158000067000000000000000000000000000000000000000000000000000000000000000000DEM       Chief Justice, Supreme Court                            DEM Amy Clark Meachum                 Precinct 3                                             01 
00080020004000288000054000136000098000000000000000000000000000000000000000000000000000000000000000000DEM       Chief Justice, Supreme Court                            DEM Amy Clark Meachum                 Precinct 4                                             01 
00080020005000020000002000007000011000000000000000000000000000000000000000000000000000000000000000000DEM       Chief Justice, Supreme Court                            DEM Amy Clark Meachum                 Precinct 5                                             01 
00080020006000114000023000067000024000000000000000000000000000000000000000000000000000000000000000000DEM       Chief Justice, Supreme Court                            DEM Amy Clark Meachum                 Precinct 6                                             01 
00080020007000014000004000007000003000000000000000000000000000000000000000000000000000000000000000000DEM       Chief Justice, Supreme Court                            DEM Amy Clark Meachum                 Precinct 7                                             01 
00080020008000013000000000005000008000000000000000000000000000000000000000000000000000000000000000000DEM       Chief Justice, Supreme Court                            DEM Amy Clark Meachum                 Precinct 8                                             01 
00080020009000146000016000088000042000000000000000000000000000000000000000000000000000000000000000000DEM       Chief Justice, Supreme Court                            DEM Amy Clark Meachum                 Precinct 9                                             01 
00080030001000014000000000011000003000000000000000000000000000000000000000000000000000000000000000000LIB       Chief Justice, Supreme Court                            LIB Mark Ash                          Precinct 1                                             01 
00080030002000012000000000007000005000000000000000000000000000000000000000000000000000000000000000000LIB       Chief Justice, Supreme Court                            LIB Mark Ash                          Precinct 2                                             01 
00080030003000014000001000008000005000000000000000000000000000000000000000000000000000000000000000000LIB       Chief Justice, Supreme Court                            LIB Mark Ash                          Precinct 3                                             01 
00080030004000015000001000008000006000000000000000000000000000000000000000000000000000000000000000000LIB       Chief Justice, Supreme Court                            LIB Mark Ash                          Precinct 4                                             01 
00080030005000000000000000000000000000000000000000000000000000000000000000000000000000000000000000000LIB       Chief Justice, Supreme Court                            LIB Mark Ash                          Precinct 5                                             01 
00080030006000011000000000005000006000000000000000000000000000000000000000000000000000000000000000000LIB       Chief Justice, Supreme Court                            LIB Mark Ash                          Precinct 6                                             01 
00080030007000002000000000001000001000000000000000000000000000000000000000000000000000000000000000000LIB       Chief Justice, Supreme Court                            LIB Mark Ash                          Precinct 7                                             01 
00080030008000001000000000001000000000000000000000000000000000000000000000000000000000000000000000000LIB       Chief Justice, Supreme Court                            LIB Mark Ash                          Precinct 8                                             01 
00080030009000024000000000012000012000000000000000000000000000000000000000000000000000000000000000000LIB       Chief Justice, Supreme Court                            LIB Mark Ash                          Precinct 9                                             01 
00080040001000000000000000000000000000000000000000000000000000000000000000000000000000000000000000000          Chief Justice, Supreme Court                            OVER VOTES                            Precinct 1                                             01 
00080040002000000000000000000000000000000000000000000000000000000000000000000000000000000000000000000          Chief Justice, Supreme Court                            OVER VOTES                            Precinct 2                                             01 
00080040003000000000000000000000000000000000000000000000000000000000000000000000000000000000000000000          Chief Justice, Supreme Court                            OVER VOTES                            Precinct 3                                             01 
00080040004000001000000000001000000000000000000000000000000000000000000000000000000000000000000000000          Chief Justice, Supreme Court                            OVER VOTES                            Precinct 4                                             01 
00080040005000000000000000000000000000000000000000000000000000000000000000000000000000000000000000000          Chief Justice, Supreme Court                            OVER VOTES                            Precinct 5                                             01 
00080040006000000000000000000000000000000000000000000000000000000000000000000000000000000000000000000          Chief Justice, Supreme Court                            OVER VOTES                            Precinct 6                                             01 
00080040007000000000000000000000000000000000000000000000000000000000000000000000000000000000000000000          Chief Justice, Supreme Court                            OVER VOTES                            Precinct 7                                             01 
00080040008000000000000000000000000000000000000000000000000000000000000000000000000000000000000000000          Chief Justice, Supreme Court                            OVER VOTES                            Precinct 8                                             01 
00080040009000000000000000000000000000000000000000000000000000000000000000000000000000000000000000000          Chief Justice, Supreme Court                            OVER VOTES                            Precinct 9                                             01 
00080050001000017000002000013000002000000000000000000000000000000000000000000000000000000000000000000          Chief Justice, Supreme Court                            UNDER VOTES                           Precinct 1                                             01 
00080050002000020000000000011000009000000000000000000000000000000000000000000000000000000000000000000          Chief Justice, Supreme Court                            UNDER VOTES                           Precinct 2                                             01 
00080050003000039000008000020000011000000000000000000000000000000000000000000000000000000000000000000          Chief Justice, Supreme Court                            UNDER VOTES                           Precinct 3                                             01 
00080050004000038000006000017000015000000000000000000000000000000000000000000000000000000000000000000          Chief Justice, Supreme Court                            UNDER VOTES                           Precinct 4                                             01 
00080050005000005000001000001000003000000000000000000000000000000000000000000000000000000000000000000          Chief Justice, Supreme Court                            UNDER VOTES                           Precinct 5                                             01 
00080050006000023000002000011000010000000000000000000000000000000000000000000000000000000000000000000          Chief Justice, Supreme Court                            UNDER VOTES                           Precinct 6                                             01 
00080050007000007000001000001000005000000000000000000000000000000000000000000000000000000000000000000          Chief Justice, Supreme Court                            UNDER VOTES                           Precinct 7                                             01 
00080050008000005000000000003000002000000000000000000000000000000000000000000000000000000000000000000          Chief Justice, Supreme Court                            UNDER VOTES                           Precinct 8                                             01 
00080050009000029000005000011000013000000000000000000000000000000000000000000000000000000000000000000          Chief Justice, Supreme Court                            UNDER VOTES                           Precinct 9                                             01 
00090010001000444000019000302000123000000000000000000000000000000000000000000000000000000000000000000REP       Justice, Supreme Court, Pl 6                            REP Jane Bland                        Precinct 1                                             01 
00090010002000611000038000376000197000000000000000000000000000000000000000000000000000000000000000000REP       Justice, Supreme Court, Pl 6                            REP Jane Bland                        Precinct 2                                             01 
00090010003000728000047000470000211000000000000000000000000000000000000000000000000000000000000000000REP       Justice, Supreme Court, Pl 6                            REP Jane Bland                        Precinct 3                                             01 
00090010004000519000032000314000173000000000000000000000000000000000000000000000000000000000000000000REP       Justice, Supreme Court, Pl 6                            REP Jane Bland                        Precinct 4                                             01 
00090010005000098000006000043000049000000000000000000000000000000000000000000000000000000000000000000REP       Justice, Supreme Court, Pl 6                            REP Jane Bland                        Precinct 5                                             01 
00090010006000530000014000278000238000000000000000000000000000000000000000000000000000000000000000000REP       Justice, Supreme Court, Pl 6                            REP Jane Bland                        Precinct 6                                             01 
00090010007000194000013000078000103000000000000000000000000000000000000000000000000000000000000000000REP       Justice, Supreme Court, Pl 6                            REP Jane Bland                        Precinct 7                                             01 
00090010008000117000005000054000058000000000000000000000000000000000000000000000000000000000000000000REP       Justice, Supreme Court, Pl 6                            REP Jane Bland                        Precinct 8                                             01 
00090010009000877000051000566000260000000000000000000000000000000000000000000000000000000000000000000REP       Justice, Supreme Court, Pl 6                            REP Jane Bland                        Precinct 9                                             01 
00090020001000129000018000081000030000000000000000000000000000000000000000000000000000000000000000000DEM       Justice, Supreme Court, Pl 6                            DEM Kathy Cheng                       Precinct 1                                             01 
00090020002000104000032000045000027000000000000000000000000000000000000000000000000000000000000000000DEM       Justice, Supreme Court, Pl 6                            DEM Kathy Cheng                       Precinct 2                                             01 
00090020003000264000045000152000067000000000000000000000000000000000000000000000000000000000000000000DEM       Justice, Supreme Court, Pl 6                            DEM Kathy Cheng                       Precinct 3                                             01 
00090020004000292000057000138000097000000000000000000000000000000000000000000000000000000000000000000DEM       Justice, Supreme Court, Pl 6                            DEM Kathy Cheng                       Precinct 4                                             01 
00090020005000020000002000007000011000000000000000000000000000000000000000000000000000000000000000000DEM       Justice, Supreme Court, Pl 6                            DEM Kathy Cheng                       Precinct 5                                             01 
00090020006000114000021000066000027000000000000000000000000000000000000000000000000000000000000000000DEM       Justice, Supreme Court, Pl 6                            DEM Kathy Cheng                       Precinct 6                                             01 
00090020007000011000004000006000001000000000000000000000000000000000000000000000000000000000000000000DEM       Justice, Supreme Court, Pl 6                            DEM Kathy Cheng                       Precinct 7                                             01 
00090020008000011000000000004000007000000000000000000000000000000000000000000000000000000000000000000DEM       Justice, Supreme Court, Pl 6                            DEM Kathy Cheng                       Precinct 8                                             01 
00090020009000137000016000080000041000000000000000000000000000000000000000000000000000000000000000000DEM       Justice, Supreme Court, Pl 6                            DEM Kathy Cheng                       Precinct 9                                             01 
00090030001000000000000000000000000000000000000000000000000000000000000000000000000000000000000000000          Justice, Supreme Court, Pl 6                            OVER VOTES                            Precinct 1                                             01 
00090030002000000000000000000000000000000000000000000000000000000000000000000000000000000000000000000          Justice, Supreme Court, Pl 6                            OVER VOTES                            Precinct 2                                             01 
00090030003000000000000000000000000000000000000000000000000000000000000000000000000000000000000000000          Justice, Supreme Court, Pl 6                            OVER VOTES                            Precinct 3                                             01 
00090030004000000000000000000000000000000000000000000000000000000000000000000000000000000000000000000          Justice, Supreme Court, Pl 6                            OVER VOTES                            Precinct 4                                             01 
00090030005000000000000000000000000000000000000000000000000000000000000000000000000000000000000000000          Justice, Supreme Court, Pl 6                            OVER VOTES                            Precinct 5                                             01 
00090030006000000000000000000000000000000000000000000000000000000000000000000000000000000000000000000          Justice, Supreme Court, Pl 6                            OVER VOTES                            Precinct 6                                             01 
00090030007000000000000000000000000000000000000000000000000000000000000000000000000000000000000000000          Justice, Supreme Court, Pl 6                            OVER VOTES                            Precinct 7                                             01 
00090030008000000000000000000000000000000000000000000000000000000000000000000000000000000000000000000          Justice, Supreme Court, Pl 6                            OVER VOTES                            Precinct 8                                             01 
00090030009000000000000000000000000000000000000000000000000000000000000000000000000000000000000000000          Justice, Supreme Court, Pl 6                            OVER VOTES                            Precinct 9                                             01 
00090040001000017000002000012000003000000000000000000000000000000000000000000000000000000000000000000          Justice, Supreme Court, Pl 6                            UNDER VOTES                           Precinct 1                                             01 
00090040002000021000001000009000011000000000000000000000000000000000000000000000000000000000000000000          Justice, Supreme Court, Pl 6                            UNDER VOTES                           Precinct 2                                             01 
00090040003000039000007000018000014000000000000000000000000000000000000000000000000000000000000000000          Justice, Supreme Court, Pl 6                            UNDER VOTES                           Precinct 3                                             01 
00090040004000032000002000016000014000000000000000000000000000000000000000000000000000000000000000000          Justice, Supreme Court, Pl 6                            UNDER VOTES                           Precinct 4                                             01 
00090040005000006000001000001000004000000000000000000000000000000000000000000000000000000000000000000          Justice, Supreme Court, Pl 6                            UNDER VOTES                           Precinct 5                                             01 
00090040006000028000004000011000013000000000000000000000000000000000000000000000000000000000000000000          Justice, Supreme Court, Pl 6                            UNDER VOTES                           Precinct 6                                             01 
00090040007000010000001000001000008000000000000000000000000000000000000000000000000000000000000000000          Justice, Supreme Court, Pl 6                            UNDER VOTES                           Precinct 7                                             01 
00090040008000005000000000003000002000000000000000000000000000000000000000000000000000000000000000000          Justice, Supreme Court, Pl 6                            UNDER VOTES                           Precinct 8                                             01 
00090040009000037000004000013000020000000000000000000000000000000000000000000000000000000000000000000          Justice, Supreme Court, Pl 6                            UNDER VOTES                           Precinct 9                                             01 
00100010001000428000017000292000119000000000000000000000000000000000000000000000000000000000000000000REP       Justice, Supreme Court, Pl 7                            REP Jeff Boyd                         Precinct 1                                             01 
00100010002000600000037000372000191000000000000000000000000000000000000000000000000000000000000000000REP       Justice, Supreme Court, Pl 7                            REP Jeff Boyd                         Precinct 2                                             01 
00100010003000709000048000451000210000000000000000000000000000000000000000000000000000000000000000000REP       Justice, Supreme Court, Pl 7                            REP Jeff Boyd                         Precinct 3                                             01 
00100010004000500000031000308000161000000000000000000000000000000000000000000000000000000000000000000REP       Justice, Supreme Court, Pl 7                            REP Jeff Boyd                         Precinct 4                                             01 
00100010005000097000006000041000050000000000000000000000000000000000000000000000000000000000000000000REP       Justice, Supreme Court, Pl 7                            REP Jeff Boyd                         Precinct 5                                             01 
00100010006000519000014000267000238000000000000000000000000000000000000000000000000000000000000000000REP       Justice, Supreme Court, Pl 7                            REP Jeff Boyd                         Precinct 6                                             01 
00100010007000194000013000077000104000000000000000000000000000000000000000000000000000000000000000000REP       Justice, Supreme Court, Pl 7                            REP Jeff Boyd                         Precinct 7                                             01 
00100010008000116000005000052000059000000000000000000000000000000000000000000000000000000000000000000REP       Justice, Supreme Court, Pl 7                            REP Jeff Boyd                         Precinct 8                                             01 
00100010009000851000050000550000251000000000000000000000000000000000000000000000000000000000000000000REP       Justice, Supreme Court, Pl 7                            REP Jeff Boyd                         Precinct 9                                             01 
00100020001000136000018000084000034000000000000000000000000000000000000000000000000000000000000000000DEM       Justice, Supreme Court, Pl 7                            DEM Staci Williams                    Precinct 1                                             01 
00100020002000107000033000046000028000000000000000000000000000000000000000000000000000000000000000000DEM       Justice, Supreme Court, Pl 7                            DEM Staci Williams                    Precinct 2                                             01 
00100020003000274000045000160000069000000000000000000000000000000000000000000000000000000000000000000DEM       Justice, Supreme Court, Pl 7                            DEM Staci Williams                    Precinct 3                                             01 
00100020004000290000056000137000097000000000000000000000000000000000000000000000000000000000000000000DEM       Justice, Supreme Court, Pl 7                            DEM Staci Williams                    Precinct 4                                             01 
00100020005000020000002000008000010000000000000000000000000000000000000000000000000000000000000000000DEM       Justice, Supreme Court, Pl 7                            DEM Staci Williams                    Precinct 5                                             01 
00100020006000113000021000069000023000000000000000000000000000000000000000000000000000000000000000000DEM       Justice, Supreme Court, Pl 7                            DEM Staci Williams                    Precinct 6                                             01 
00100020007000014000004000007000003000000000000000000000000000000000000000000000000000000000000000000DEM       Justice, Supreme Court, Pl 7                            DEM Staci Williams                    Precinct 7                                             01 
00100020008000012000000000005000007000000000000000000000000000000000000000000000000000000000000000000DEM       Justice, Supreme Court, Pl 7                            DEM Staci Williams                    Precinct 8                                             01 
00100020009000147000016000087000044000000000000000000000000000000000000000000000000000000000000000000DEM       Justice, Supreme Court, Pl 7                            DEM Staci Williams                    Precinct 9                                             01 
00100030001000011000000000009000002000000000000000000000000000000000000000000000000000000000000000000LIB       Justice, Supreme Court, Pl 7                            LIB William Bryan Strange III         Precinct 1                                             01 
00100030002000013000000000005000008000000000000000000000000000000000000000000000000000000000000000000LIB       Justice, Supreme Court, Pl 7                            LIB William Bryan Strange III         Precinct 2                                             01 
00100030003000015000000000010000005000000000000000000000000000000000000000000000000000000000000000000LIB       Justice, Supreme Court, Pl 7                            LIB William Bryan Strange III         Precinct 3                                             01 
00100030004000019000000000009000010000000000000000000000000000000000000000000000000000000000000000000LIB       Justice, Supreme Court, Pl 7                            LIB William Bryan Strange III         Precinct 4                                             01 
00100030005000000000000000000000000000000000000000000000000000000000000000000000000000000000000000000LIB       Justice, Supreme Court, Pl 7                            LIB William Bryan Strange III         Precinct 5                                             01 
00100030006000013000000000008000005000000000000000000000000000000000000000000000000000000000000000000LIB       Justice, Supreme Court, Pl 7                            LIB William Bryan Strange III         Precinct 6                                             01 
00100030007000000000000000000000000000000000000000000000000000000000000000000000000000000000000000000LIB       Justice, Supreme Court, Pl 7                            LIB William Bryan Strange III         Precinct 7                                             01 
00100030008000002000000000002000000000000000000000000000000000000000000000000000000000000000000000000LIB       Justice, Supreme Court, Pl 7                            LIB William Bryan Strange III         Precinct 8                                             01 
00100030009000022000001000010000011000000000000000000000000000000000000000000000000000000000000000000LIB       Justice, Supreme Court, Pl 7                            LIB William Bryan Strange III         Precinct 9                                             01 
00100040001000000000000000000000000000000000000000000000000000000000000000000000000000000000000000000          Justice, Supreme Court, Pl 7                            OVER VOTES                            Precinct 1                                             01 
00100040002000000000000000000000000000000000000000000000000000000000000000000000000000000000000000000          Justice, Supreme Court, Pl 7                            OVER VOTES                            Precinct 2                                             01 
00100040003000000000000000000000000000000000000000000000000000000000000000000000000000000000000000000          Justice, Supreme Court, Pl 7                            OVER VOTES                            Precinct 3                                             01 
00100040004000000000000000000000000000000000000000000000000000000000000000000000000000000000000000000          Justice, Supreme Court, Pl 7                            OVER VOTES                            Precinct 4                                             01 
00100040005000000000000000000000000000000000000000000000000000000000000000000000000000000000000000000          Justice, Supreme Court, Pl 7                            OVER VOTES                            Precinct 5                                             01 
00100040006000000000000000000000000000000000000000000000000000000000000000000000000000000000000000000          Justice, Supreme Court, Pl 7                            OVER VOTES                            Precinct 6                                             01 
00100040007000000000000000000000000000000000000000000000000000000000000000000000000000000000000000000          Justice, Supreme Court, Pl 7                            OVER VOTES                            Precinct 7                                             01 
00100040008000000000000000000000000000000000000000000000000000000000000000000000000000000000000000000          Justice, Supreme Court, Pl 7                            OVER VOTES                            Precinct 8                                             01 
00100040009000000000000000000000000000000000000000000000000000000000000000000000000000000000000000000          Justice, Supreme Court, Pl 7                            OVER VOTES                            Precinct 9                                             01 
00100050001000015000004000010000001000000000000000000000000000000000000000000000000000000000000000000          Justice, Supreme Court, Pl 7                            UNDER VOTES                           Precinct 1                                             01 
00100050002000016000001000007000008000000000000000000000000000000000000000000000000000000000000000000          Justice, Supreme Court, Pl 7                            UNDER VOTES                           Precinct 2                                             01 
00100050003000033000006000019000008000000000000000000000000000000000000000000000000000000000000000000          Justice, Supreme Court, Pl 7                            UNDER VOTES                           Precinct 3                                             01 
00100050004000034000004000014000016000000000000000000000000000000000000000000000000000000000000000000          Justice, Supreme Court, Pl 7                            UNDER VOTES                           Precinct 4                                             01 
00100050005000007000001000002000004000000000000000000000000000000000000000000000000000000000000000000          Justice, Supreme Court, Pl 7                            UNDER VOTES                           Precinct 5                                             01 
00100050006000027000004000011000012000000000000000000000000000000000000000000000000000000000000000000          Justice, Supreme Court, Pl 7                            UNDER VOTES                           Precinct 6                                             01 
00100050007000007000001000001000005000000000000000000000000000000000000000000000000000000000000000000          Justice, Supreme Court, Pl 7                            UNDER VOTES                           Precinct 7                                             01 
00100050008000003000000000002000001000000000000000000000000000000000000000000000000000000000000000000          Justice, Supreme Court, Pl 7                            UNDER VOTES                           Precinct 8                                             01 
