00010010001001256000000000000000000000000000000000000000000000000000000000000000000000000000000000000          REGISTERED VOTERS - TOTAL                               REGISTERED VOTERS - TOTAL             Pct 1                                                  00 
00010010002001599000000000000000000000000000000000000000000000000000000000000000000000000000000000000          REGISTERED VOTERS - TOTAL                               REGISTERED VOTERS - TOTAL             Pct 2                                                  00 
00010010003000603000000000000000000000000000000000000000000000000000000000000000000000000000000000000          REGISTERED VOTERS - TOTAL                               REGISTERED VOTERS - TOTAL             Pct 3                                                  00 
00010010004000531000000000000000000000000000000000000000000000000000000000000000000000000000000000000          REGISTERED VOTERS - TOTAL                               REGISTERED VOTERS - TOTAL             Pct 4                                                  00 
00010010005001507000000000000000000000000000000000000000000000000000000000000000000000000000000000000          REGISTERED VOTERS - TOTAL                               REGISTERED VOTERS - TOTAL             Pct 5                                                  00 
00010010006001736000000000000000000000000000000000000000000000000000000000000000000000000000000000000          REGISTERED VOTERS - TOTAL                               REGISTERED VOTERS - TOTAL             Pct 6                                                  00 
00010010007000083000000000000000000000000000000000000000000000000000000000000000000000000000000000000          REGISTERED VOTERS - TOTAL                               REGISTERED VOTERS - TOTAL             Pct 7                                                  00 
00010010008000236000000000000000000000000000000000000000000000000000000000000000000000000000000000000          REGISTERED VOTERS - TOTAL                               REGISTERED VOTERS - TOTAL             Pct 8                                                  00 
00010010009001159000000000000000000000000000000000000000000000000000000000000000000000000000000000000          REGISTERED VOTERS - TOTAL                               REGISTERED VOTERS - TOTAL             Pct 11                                                 00 
00010010010000209000000000000000000000000000000000000000000000000000000000000000000000000000000000000          REGISTERED VOTERS - TOTAL                               REGISTERED VOTERS - TOTAL             Pct 13                                                 00 
00010010011000161000000000000000000000000000000000000000000000000000000000000000000000000000000000000          REGISTERED VOTERS - TOTAL                               REGISTERED VOTERS - TOTAL             Pct 16                                                 00 
00010010012000104000000000000000000000000000000000000000000000000000000000000000000000000000000000000          REGISTERED VOTERS - TOTAL                               REGISTERED VOTERS - TOTAL             Pct 18                                                 00 
00010010013000571000000000000000000000000000000000000000000000000000000000000000000000000000000000000          REGISTERED VOTERS - TOTAL                               REGISTERED VOTERS - TOTAL             Pct 19                                                 00 
00010010014001263000000000000000000000000000000000000000000000000000000000000000000000000000000000000          REGISTERED VOTERS - TOTAL                               REGISTERED VOTERS - TOTAL             Pct 22                                                 00 
00010010015000821000000000000000000000000000000000000000000000000000000000000000000000000000000000000          REGISTERED VOTERS - TOTAL                               REGISTERED VOTERS - TOTAL             Pct 23                                                 00 
00020010001000922000153000702000067000000000000000000000000000000000000000000000000000000000000000000          BALLOTS CAST - TOTAL                                    BALLOTS CAST - TOTAL                  Pct 1                                                  00 
00020010002000979000169000722000088000000000000000000000000000000000000000000000000000000000000000000          BALLOTS CAST - TOTAL                                    BALLOTS CAST - TOTAL                  Pct 2                                                  00 
00020010003000472000129000308000035000000000000000000000000000000000000000000000000000000000000000000          BALLOTS CAST - TOTAL                                    BALLOTS CAST - TOTAL                  Pct 3                                                  00 
00020010004000427000026000379000022000000000000000000000000000000000000000000000000000000000000000000          BALLOTS CAST - TOTAL                                    BALLOTS CAST - TOTAL                  Pct 4                                                  00 
00020010005001075000196000788000091000000000000000000000000000000000000000000000000000000000000000000          BALLOTS CAST - TOTAL                                    BALLOTS CAST - TOTAL                  Pct 5                                                  00 
00020010006001251000127001061000063000000000000000000000000000000000000000000000000000000000000000000          BALLOTS CAST - TOTAL                                    BALLOTS CAST - TOTAL                  Pct 6                                                  00 
00020010007000053000025000014000014000000000000000000000000000000000000000000000000000000000000000000          BALLOTS CAST - TOTAL                                    BALLOTS CAST - TOTAL                  Pct 7                                                  00 
00020010008000201000111000068000022000000000000000000000000000000000000000000000000000000000000000000          BALLOTS CAST - TOTAL                                    BALLOTS CAST - TOTAL                  Pct 8                                                  00 
00020010009000825000238000531000056000000000000000000000000000000000000000000000000000000000000000000          BALLOTS CAST - TOTAL                                    BALLOTS CAST - TOTAL                  Pct 11                                                 00 
00020010010000177000012000157000008000000000000000000000000000000000000000000000000000000000000000000          BALLOTS CAST - TOTAL                                    BALLOTS CAST - TOTAL                  Pct 13                                                 00 
00020010011000126000038000081000007000000000000000000000000000000000000000000000000000000000000000000          BALLOTS CAST - TOTAL                                    BALLOTS CAST - TOTAL                  Pct 16                                                 00 
00020010012000068000019000047000002000000000000000000000000000000000000000000000000000000000000000000          BALLOTS CAST - TOTAL                                    BALLOTS CAST - TOTAL                  Pct 18                                                 00 
00020010013000455000079000344000032000000000000000000000000000000000000000000000000000000000000000000          BALLOTS CAST - TOTAL                                    BALLOTS CAST - TOTAL                  Pct 19                                                 00 
00020010014000683000157000427000099000000000000000000000000000000000000000000000000000000000000000000          BALLOTS CAST - TOTAL                                    BALLOTS CAST - TOTAL                  Pct 22                                                 00 
00020010015000439000079000324000036000000000000000000000000000000000000000000000000000000000000000000          BALLOTS CAST - TOTAL                                    BALLOTS CAST - TOTAL                  Pct 23                                                 00 
00030010001000000000000000000000000000000000000000000000000000000000000000000000000000000000000000000          BALLOTS CAST - BLANK                                    BALLOTS CAST - BLANK                  Pct 1                                                  00 
00030010002000000000000000000000000000000000000000000000000000000000000000000000000000000000000000000          BALLOTS CAST - BLANK                                    BALLOTS CAST - BLANK                  Pct 2                                                  00 
00030010003000000000000000000000000000000000000000000000000000000000000000000000000000000000000000000          BALLOTS CAST - BLANK                                    BALLOTS CAST - BLANK                  Pct 3                                                  00 
00030010004000000000000000000000000000000000000000000000000000000000000000000000000000000000000000000          BALLOTS CAST - BLANK                                    BALLOTS CAST - BLANK                  Pct 4                                                  00 
00030010005000000000000000000000000000000000000000000000000000000000000000000000000000000000000000000          BALLOTS CAST - BLANK                                    BALLOTS CAST - BLANK                  Pct 5                                                  00 
00030010006000000000000000000000000000000000000000000000000000000000000000000000000000000000000000000          BALLOTS CAST - BLANK                                    BALLOTS CAST - BLANK                  Pct 6                                                  00 
00030010007000000000000000000000000000000000000000000000000000000000000000000000000000000000000000000          BALLOTS CAST - BLANK                                    BALLOTS CAST - BLANK                  Pct 7                                                  00 
00030010008000000000000000000000000000000000000000000000000000000000000000000000000000000000000000000          BALLOTS CAST - BLANK                                    BALLOTS CAST - BLANK                  Pct 8                                                  00 
00030010009000000000000000000000000000000000000000000000000000000000000000000000000000000000000000000          BALLOTS CAST - BLANK                                    BALLOTS CAST - BLANK                  Pct 11                                                 00 
00030010010000000000000000000000000000000000000000000000000000000000000000000000000000000000000000000          BALLOTS CAST - BLANK                                    BALLOTS CAST - BLANK                  Pct 13                                                 00 
00030010011000000000000000000000000000000000000000000000000000000000000000000000000000000000000000000          BALLOTS CAST - BLANK                                    BALLOTS CAST - BLANK                  Pct 16                                                 00 
00030010012000000000000000000000000000000000000000000000000000000000000000000000000000000000000000000          BALLOTS CAST - BLANK                                    BALLOTS CAST - BLANK                  Pct 18                                                 00 
00030010013000000000000000000000000000000000000000000000000000000000000000000000000000000000000000000          BALLOTS CAST - BLANK                                    BALLOTS CAST - BLANK                  Pct 19                                                 00 
00030010014000000000000000000000000000000000000000000000000000000000000000000000000000000000000000000          BALLOTS CAST - BLANK                                    BALLOTS CAST - BLANK                  Pct 22                                                 00 
00030010015000000000000000000000000000000000000000000000000000000000000000000000000000000000000000000          BALLOTS CAST - BLANK                                    BALLOTS CAST - BLANK                  Pct 23                                                 00 
00040010001000519000071000421000027000000000000000000000000000000000000000000000000000000000000000000REP       President / Vice-President                              REP Donald J. Trump / Michael R. PencePct 1                                                  01 
00040010002000592000082000471000039000000000000000000000000000000000000000000000000000000000000000000REP       President / Vice-President                              REP Donald J. Trump / Michael R. PencePct 2                                                  01 
00040010003000402000113000265000024000000000000000000000000000000000000000000000000000000000000000000REP       President / Vice-President                              REP Donald J. Trump / Michael R. PencePct 3                                                  01 
00040010004000370000022000339000009000000000000000000000000000000000000000000000000000000000000000000REP       President / Vice-President                              REP Donald J. Trump / Michael R. PencePct 4                                                  01 
00040010005000825000158000618000049000000000000000000000000000000000000000000000000000000000000000000REP       President / Vice-President                              REP Donald J. Trump / Michael R. PencePct 5                                                  01 
00040010006001023000099000892000032000000000000000000000000000000000000000000000000000000000000000000REP       President / Vice-President                              REP Donald J. Trump / Michael R. PencePct 6                                                  01 
00040010007000026000012000009000005000000000000000000000000000000000000000000000000000000000000000000REP       President / Vice-President                              REP Donald J. Trump / Michael R. PencePct 7                                                  01 
00040010008000178000095000064000019000000000000000000000000000000000000000000000000000000000000000000REP       President / Vice-President                              REP Donald J. Trump / Michael R. PencePct 8                                                  01 
00040010009000627000188000411000028000000000000000000000000000000000000000000000000000000000000000000REP       President / Vice-President                              REP Donald J. Trump / Michael R. PencePct 11                                                 01 
00040010010000155000011000140000004000000000000000000000000000000000000000000000000000000000000000000REP       President / Vice-President                              REP Donald J. Trump / Michael R. PencePct 13                                                 01 
00040010011000105000035000063000007000000000000000000000000000000000000000000000000000000000000000000REP       President / Vice-President                              REP Donald J. Trump / Michael R. PencePct 16                                                 01 
00040010012000060000015000043000002000000000000000000000000000000000000000000000000000000000000000000REP       President / Vice-President                              REP Donald J. Trump / Michael R. PencePct 18                                                 01 
00040010013000402000075000308000019000000000000000000000000000000000000000000000000000000000000000000REP       President / Vice-President                              REP Donald J. Trump / Michael R. PencePct 19                                                 01 
00040010014000142000033000101000008000000000000000000000000000000000000000000000000000000000000000000REP       President / Vice-President                              REP Donald J. Trump / Michael R. PencePct 22                                                 01 
00040010015000220000037000176000007000000000000000000000000000000000000000000000000000000000000000000REP       President / Vice-President                              REP Donald J. Trump / Michael R. PencePct 23                                                 01 
00040020001000371000072000259000040000000000000000000000000000000000000000000000000000000000000000000DEM       President / Vice-President                              DEM Joseph R. Biden / Kamala D. HarrisPct 1                                                  01 
00040020002000371000082000242000047000000000000000000000000000000000000000000000000000000000000000000DEM       President / Vice-President                              DEM Joseph R. Biden / Kamala D. HarrisPct 2                                                  01 
00040020003000063000012000040000011000000000000000000000000000000000000000000000000000000000000000000DEM       President / Vice-President                              DEM Joseph R. Biden / Kamala D. HarrisPct 3                                                  01 
00040020004000054000004000037000013000000000000000000000000000000000000000000000000000000000000000000DEM       President / Vice-President                              DEM Joseph R. Biden / Kamala D. HarrisPct 4                                                  01 
00040020005000239000035000164000040000000000000000000000000000000000000000000000000000000000000000000DEM       President / Vice-President                              DEM Joseph R. Biden / Kamala D. HarrisPct 5                                                  01 
00040020006000214000026000157000031000000000000000000000000000000000000000000000000000000000000000000DEM       President / Vice-President                              DEM Joseph R. Biden / Kamala D. HarrisPct 6                                                  01 
00040020007000025000012000004000009000000000000000000000000000000000000000000000000000000000000000000DEM       President / Vice-President                              DEM Joseph R. Biden / Kamala D. HarrisPct 7                                                  01 
00040020008000019000013000003000003000000000000000000000000000000000000000000000000000000000000000000DEM       President / Vice-President                              DEM Joseph R. Biden / Kamala D. HarrisPct 8                                                  01 
00040020009000184000047000109000028000000000000000000000000000000000000000000000000000000000000000000DEM       President / Vice-President                              DEM Joseph R. Biden / Kamala D. HarrisPct 11                                                 01 
00040020010000020000001000015000004000000000000000000000000000000000000000000000000000000000000000000DEM       President / Vice-President                              DEM Joseph R. Biden / Kamala D. HarrisPct 13                                                 01 
00040020011000017000002000015000000000000000000000000000000000000000000000000000000000000000000000000DEM       President / Vice-President                              DEM Joseph R. Biden / Kamala D. HarrisPct 16                                                 01 
00040020012000008000004000004000000000000000000000000000000000000000000000000000000000000000000000000DEM       President / Vice-President                              DEM Joseph R. Biden / Kamala D. HarrisPct 18                                                 01 
00040020013000047000004000031000012000000000000000000000000000000000000000000000000000000000000000000DEM       President / Vice-President                              DEM Joseph R. Biden / Kamala D. HarrisPct 19                                                 01 
00040020014000528000119000319000090000000000000000000000000000000000000000000000000000000000000000000DEM       President / Vice-President                              DEM Joseph R. Biden / Kamala D. HarrisPct 22                                                 01 
00040020015000214000042000143000029000000000000000000000000000000000000000000000000000000000000000000DEM       President / Vice-President                              DEM Joseph R. Biden / Kamala D. HarrisPct 23                                                 01 
00040030001000011000003000008000000000000000000000000000000000000000000000000000000000000000000000000LIB       President / Vice-President                              LIB Jo Jorgensen / Jeremy "Spike" CohePct 1                                                  01 
00040030002000008000002000006000000000000000000000000000000000000000000000000000000000000000000000000LIB       President / Vice-President                              LIB Jo Jorgensen / Jeremy "Spike" CohePct 2                                                  01 
00040030003000003000001000002000000000000000000000000000000000000000000000000000000000000000000000000LIB       President / Vice-President                              LIB Jo Jorgensen / Jeremy "Spike" CohePct 3                                                  01 
00040030004000002000000000002000000000000000000000000000000000000000000000000000000000000000000000000LIB       President / Vice-President                              LIB Jo Jorgensen / Jeremy "Spike" CohePct 4                                                  01 
00040030005000005000002000003000000000000000000000000000000000000000000000000000000000000000000000000LIB       President / Vice-President                              LIB Jo Jorgensen / Jeremy "Spike" CohePct 5                                                  01 
00040030006000011000002000009000000000000000000000000000000000000000000000000000000000000000000000000LIB       President / Vice-President                              LIB Jo Jorgensen / Jeremy "Spike" CohePct 6                                                  01 
00040030007000000000000000000000000000000000000000000000000000000000000000000000000000000000000000000LIB       President / Vice-President                              LIB Jo Jorgensen / Jeremy "Spike" CohePct 7                                                  01 
00040030008000003000002000001000000000000000000000000000000000000000000000000000000000000000000000000LIB       President / Vice-President                              LIB Jo Jorgensen / Jeremy "Spike" CohePct 8                                                  01 
00040030009000011000001000010000000000000000000000000000000000000000000000000000000000000000000000000LIB       President / Vice-President                              LIB Jo Jorgensen / Jeremy "Spike" CohePct 11                                                 01 
00040030010000001000000000001000000000000000000000000000000000000000000000000000000000000000000000000LIB       President / Vice-President                              LIB Jo Jorgensen / Jeremy "Spike" CohePct 13                                                 01 
00040030011000001000001000000000000000000000000000000000000000000000000000000000000000000000000000000LIB       President / Vice-President                              LIB Jo Jorgensen / Jeremy "Spike" CohePct 16                                                 01 
00040030012000000000000000000000000000000000000000000000000000000000000000000000000000000000000000000LIB       President / Vice-President                              LIB Jo Jorgensen / Jeremy "Spike" CohePct 18                                                 01 
00040030013000003000000000003000000000000000000000000000000000000000000000000000000000000000000000000LIB       President / Vice-President                              LIB Jo Jorgensen / Jeremy "Spike" CohePct 19                                                 01 
00040030014000006000002000004000000000000000000000000000000000000000000000000000000000000000000000000LIB       President / Vice-President                              LIB Jo Jorgensen / Jeremy "Spike" CohePct 22                                                 01 
00040030015000001000000000001000000000000000000000000000000000000000000000000000000000000000000000000LIB       President / Vice-President                              LIB Jo Jorgensen / Jeremy "Spike" CohePct 23                                                 01 
00040040001000002000001000001000000000000000000000000000000000000000000000000000000000000000000000000GRN       President / Vice-President                              GRN Howie Hawkins / Angela Walker     Pct 1                                                  01 
00040040002000002000001000000000001000000000000000000000000000000000000000000000000000000000000000000GRN       President / Vice-President                              GRN Howie Hawkins / Angela Walker     Pct 2                                                  01 
00040040003000001000001000000000000000000000000000000000000000000000000000000000000000000000000000000GRN       President / Vice-President                              GRN Howie Hawkins / Angela Walker     Pct 3                                                  01 
00040040004000000000000000000000000000000000000000000000000000000000000000000000000000000000000000000GRN       President / Vice-President                              GRN Howie Hawkins / Angela Walker     Pct 4                                                  01 
00040040005000001000000000001000000000000000000000000000000000000000000000000000000000000000000000000GRN       President / Vice-President                              GRN Howie Hawkins / Angela Walker     Pct 5                                                  01 
00040040006000001000000000001000000000000000000000000000000000000000000000000000000000000000000000000GRN       President / Vice-President                              GRN Howie Hawkins / Angela Walker     Pct 6                                                  01 
00040040007000001000001000000000000000000000000000000000000000000000000000000000000000000000000000000GRN       President / Vice-President                              GRN Howie Hawkins / Angela Walker     Pct 7                                                  01 
00040040008000000000000000000000000000000000000000000000000000000000000000000000000000000000000000000GRN       President / Vice-President                              GRN Howie Hawkins / Angela Walker     Pct 8                                                  01 
00040040009000001000001000000000000000000000000000000000000000000000000000000000000000000000000000000GRN       President / Vice-President                              GRN Howie Hawkins / Angela Walker     Pct 11                                                 01 
00040040010000000000000000000000000000000000000000000000000000000000000000000000000000000000000000000GRN       President / Vice-President                              GRN Howie Hawkins / Angela Walker     Pct 13                                                 01 
00040040011000001000000000001000000000000000000000000000000000000000000000000000000000000000000000000GRN       President / Vice-President                              GRN Howie Hawkins / Angela Walker     Pct 16                                                 01 
00040040012000000000000000000000000000000000000000000000000000000000000000000000000000000000000000000GRN       President / Vice-President                              GRN Howie Hawkins / Angela Walker     Pct 18                                                 01 
00040040013000000000000000000000000000000000000000000000000000000000000000000000000000000000000000000GRN       President / Vice-President                              GRN Howie Hawkins / Angela Walker     Pct 19                                                 01 
00040040014000001000000000001000000000000000000000000000000000000000000000000000000000000000000000000GRN       President / Vice-President                              GRN Howie Hawkins / Angela Walker     Pct 22                                                 01 
00040040015000002000000000002000000000000000000000000000000000000000000000000000000000000000000000000GRN       President / Vice-President                              GRN Howie Hawkins / Angela Walker     Pct 23                                                 01 
00040060001000003000001000002000000000000000000000000000000000000000000000000000000000000000000000000NON       President / Vice-President                              Write-in                              Pct 1                                                  01 
00040060002000003000000000002000001000000000000000000000000000000000000000000000000000000000000000000NON       President / Vice-President                              Write-in                              Pct 2                                                  01 
00040060003000000000000000000000000000000000000000000000000000000000000000000000000000000000000000000NON       President / Vice-President                              Write-in                              Pct 3                                                  01 
00040060004000000000000000000000000000000000000000000000000000000000000000000000000000000000000000000NON       President / Vice-President                              Write-in                              Pct 4                                                  01 
00040060005000001000000000001000000000000000000000000000000000000000000000000000000000000000000000000NON       President / Vice-President                              Write-in                              Pct 5                                                  01 
00040060006000000000000000000000000000000000000000000000000000000000000000000000000000000000000000000NON       President / Vice-President                              Write-in                              Pct 6                                                  01 
00040060007000000000000000000000000000000000000000000000000000000000000000000000000000000000000000000NON       President / Vice-President                              Write-in                              Pct 7                                                  01 
00040060008000000000000000000000000000000000000000000000000000000000000000000000000000000000000000000NON       President / Vice-President                              Write-in                              Pct 8                                                  01 
00040060009000000000000000000000000000000000000000000000000000000000000000000000000000000000000000000NON       President / Vice-President                              Write-in                              Pct 11                                                 01 
00040060010000001000000000001000000000000000000000000000000000000000000000000000000000000000000000000NON       President / Vice-President                              Write-in                              Pct 13                                                 01 
00040060011000001000000000001000000000000000000000000000000000000000000000000000000000000000000000000NON       President / Vice-President                              Write-in                              Pct 16                                                 01 
00040060012000000000000000000000000000000000000000000000000000000000000000000000000000000000000000000NON       President / Vice-President                              Write-in                              Pct 18                                                 01 
00040060013000001000000000000000001000000000000000000000000000000000000000000000000000000000000000000NON       President / Vice-President                              Write-in                              Pct 19                                                 01 
00040060014000001000001000000000000000000000000000000000000000000000000000000000000000000000000000000NON       President / Vice-President                              Write-in                              Pct 22                                                 01 
00040060015000000000000000000000000000000000000000000000000000000000000000000000000000000000000000000NON       President / Vice-President                              Write-in                              Pct 23                                                 01 
00040070001000002000000000002000000000000000000000000000000000000000000000000000000000000000000000000          President / Vice-President                              OVER VOTES                            Pct 1                                                  01 
00040070002000000000000000000000000000000000000000000000000000000000000000000000000000000000000000000          President / Vice-President                              OVER VOTES                            Pct 2                                                  01 
00040070003000000000000000000000000000000000000000000000000000000000000000000000000000000000000000000          President / Vice-President                              OVER VOTES                            Pct 3                                                  01 
00040070004000000000000000000000000000000000000000000000000000000000000000000000000000000000000000000          President / Vice-President                              OVER VOTES                            Pct 4                                                  01 
00040070005000000000000000000000000000000000000000000000000000000000000000000000000000000000000000000          President / Vice-President                              OVER VOTES                            Pct 5                                                  01 
00040070006000000000000000000000000000000000000000000000000000000000000000000000000000000000000000000          President / Vice-President                              OVER VOTES                            Pct 6                                                  01 
00040070007000001000000000001000000000000000000000000000000000000000000000000000000000000000000000000          President / Vice-President                              OVER VOTES                            Pct 7                                                  01 
00040070008000000000000000000000000000000000000000000000000000000000000000000000000000000000000000000          President / Vice-President                              OVER VOTES                            Pct 8                                                  01 
00040070009000000000000000000000000000000000000000000000000000000000000000000000000000000000000000000          President / Vice-President                              OVER VOTES                            Pct 11                                                 01 
00040070010000000000000000000000000000000000000000000000000000000000000000000000000000000000000000000          President / Vice-President                              OVER VOTES                            Pct 13                                                 01 
00040070011000000000000000000000000000000000000000000000000000000000000000000000000000000000000000000          President / Vice-President                              OVER VOTES                            Pct 16                                                 01 
00040070012000000000000000000000000000000000000000000000000000000000000000000000000000000000000000000          President / Vice-President                              OVER VOTES                            Pct 18                                                 01 
00040070013000001000000000001000000000000000000000000000000000000000000000000000000000000000000000000          President / Vice-President                              OVER VOTES                            Pct 19                                                 01 
00040070014000000000000000000000000000000000000000000000000000000000000000000000000000000000000000000          President / Vice-President                              OVER VOTES                            Pct 22                                                 01 
00040070015000000000000000000000000000000000000000000000000000000000000000000000000000000000000000000          President / Vice-President                              OVER VOTES                            Pct 23                                                 01 
00040080001000014000005000009000000000000000000000000000000000000000000000000000000000000000000000000          President / Vice-President                              UNDER VOTES                           Pct 1                                                  01 
00040080002000003000002000001000000000000000000000000000000000000000000000000000000000000000000000000          President / Vice-President                              UNDER VOTES                           Pct 2                                                  01 
00040080003000003000002000001000000000000000000000000000000000000000000000000000000000000000000000000          President / Vice-President                              UNDER VOTES                           Pct 3                                                  01 
00040080004000001000000000001000000000000000000000000000000000000000000000000000000000000000000000000          President / Vice-President                              UNDER VOTES                           Pct 4                                                  01 
00040080005000004000001000001000002000000000000000000000000000000000000000000000000000000000000000000          President / Vice-President                              UNDER VOTES                           Pct 5                                                  01 
00040080006000002000000000002000000000000000000000000000000000000000000000000000000000000000000000000          President / Vice-President                              UNDER VOTES                           Pct 6                                                  01 
00040080007000000000000000000000000000000000000000000000000000000000000000000000000000000000000000000          President / Vice-President                              UNDER VOTES                           Pct 7                                                  01 
00040080008000001000001000000000000000000000000000000000000000000000000000000000000000000000000000000          President / Vice-President                              UNDER VOTES                           Pct 8                                                  01 
00040080009000002000001000001000000000000000000000000000000000000000000000000000000000000000000000000          President / Vice-President                              UNDER VOTES                           Pct 11                                                 01 
00040080010000000000000000000000000000000000000000000000000000000000000000000000000000000000000000000          President / Vice-President                              UNDER VOTES                           Pct 13                                                 01 
00040080011000001000000000001000000000000000000000000000000000000000000000000000000000000000000000000          President / Vice-President                              UNDER VOTES                           Pct 16                                                 01 
00040080012000000000000000000000000000000000000000000000000000000000000000000000000000000000000000000          President / Vice-President                              UNDER VOTES                           Pct 18                                                 01 
00040080013000001000000000001000000000000000000000000000000000000000000000000000000000000000000000000          President / Vice-President                              UNDER VOTES                           Pct 19                                                 01 
00040080014000005000002000002000001000000000000000000000000000000000000000000000000000000000000000000          President / Vice-President                              UNDER VOTES                           Pct 22                                                 01 
00040080015000002000000000002000000000000000000000000000000000000000000000000000000000000000000000000          President / Vice-President                              UNDER VOTES                           Pct 23                                                 01 
00050010001000521000072000418000031000000000000000000000000000000000000000000000000000000000000000000REP       US Senator                                              REP John Cornyn                       Pct 1                                                  01 
00050010002000588000082000463000043000000000000000000000000000000000000000000000000000000000000000000REP       US Senator                                              REP John Cornyn                       Pct 2                                                  01 
00050010003000404000116000263000025000000000000000000000000000000000000000000000000000000000000000000REP       US Senator                                              REP John Cornyn                       Pct 3                                                  01 
00050010004000360000020000331000009000000000000000000000000000000000000000000000000000000000000000000REP       US Senator                                              REP John Cornyn                       Pct 4                                                  01 
00050010005000811000156000607000048000000000000000000000000000000000000000000000000000000000000000000REP       US Senator                                              REP John Cornyn                       Pct 5                                                  01 
00050010006001001000090000879000032000000000000000000000000000000000000000000000000000000000000000000REP       US Senator                                              REP John Cornyn                       Pct 6                                                  01 
00050010007000027000013000009000005000000000000000000000000000000000000000000000000000000000000000000REP       US Senator                                              REP John Cornyn                       Pct 7                                                  01 
00050010008000180000096000064000020000000000000000000000000000000000000000000000000000000000000000000REP       US Senator                                              REP John Cornyn                       Pct 8                                                  01 
00050010009000624000183000412000029000000000000000000000000000000000000000000000000000000000000000000REP       US Senator                                              REP John Cornyn                       Pct 11                                                 01 
00050010010000155000010000141000004000000000000000000000000000000000000000000000000000000000000000000REP       US Senator                                              REP John Cornyn                       Pct 13                                                 01 
00050010011000105000033000066000006000000000000000000000000000000000000000000000000000000000000000000REP       US Senator                                              REP John Cornyn                       Pct 16                                                 01 
00050010012000054000013000039000002000000000000000000000000000000000000000000000000000000000000000000REP       US Senator                                              REP John Cornyn                       Pct 18                                                 01 
00050010013000400000073000306000021000000000000000000000000000000000000000000000000000000000000000000REP       US Senator                                              REP John Cornyn                       Pct 19                                                 01 
00050010014000148000033000106000009000000000000000000000000000000000000000000000000000000000000000000REP       US Senator                                              REP John Cornyn                       Pct 22                                                 01 
00050010015000212000035000170000007000000000000000000000000000000000000000000000000000000000000000000REP       US Senator                                              REP John Cornyn                       Pct 23                                                 01 
00050020001000329000061000234000034000000000000000000000000000000000000000000000000000000000000000000DEM       US Senator                                              DEM Mary "MJ" Hegar                   Pct 1                                                  01 
00050020002000342000072000231000039000000000000000000000000000000000000000000000000000000000000000000DEM       US Senator                                              DEM Mary "MJ" Hegar                   Pct 2                                                  01 
00050020003000061000011000040000010000000000000000000000000000000000000000000000000000000000000000000DEM       US Senator                                              DEM Mary "MJ" Hegar                   Pct 3                                                  01 
00050020004000056000005000038000013000000000000000000000000000000000000000000000000000000000000000000DEM       US Senator                                              DEM Mary "MJ" Hegar                   Pct 4                                                  01 
00050020005000230000033000160000037000000000000000000000000000000000000000000000000000000000000000000DEM       US Senator                                              DEM Mary "MJ" Hegar                   Pct 5                                                  01 
00050020006000204000025000151000028000000000000000000000000000000000000000000000000000000000000000000DEM       US Senator                                              DEM Mary "MJ" Hegar                   Pct 6                                                  01 
00050020007000024000011000004000009000000000000000000000000000000000000000000000000000000000000000000DEM       US Senator                                              DEM Mary "MJ" Hegar                   Pct 7                                                  01 
00050020008000018000013000003000002000000000000000000000000000000000000000000000000000000000000000000DEM       US Senator                                              DEM Mary "MJ" Hegar                   Pct 8                                                  01 
00050020009000175000045000104000026000000000000000000000000000000000000000000000000000000000000000000DEM       US Senator                                              DEM Mary "MJ" Hegar                   Pct 11                                                 01 
00050020010000017000001000013000003000000000000000000000000000000000000000000000000000000000000000000DEM       US Senator                                              DEM Mary "MJ" Hegar                   Pct 13                                                 01 
00050020011000015000002000013000000000000000000000000000000000000000000000000000000000000000000000000DEM       US Senator                                              DEM Mary "MJ" Hegar                   Pct 16                                                 01 
00050020012000010000005000005000000000000000000000000000000000000000000000000000000000000000000000000DEM       US Senator                                              DEM Mary "MJ" Hegar                   Pct 18                                                 01 
00050020013000040000002000028000010000000000000000000000000000000000000000000000000000000000000000000DEM       US Senator                                              DEM Mary "MJ" Hegar                   Pct 19                                                 01 
00050020014000513000114000310000089000000000000000000000000000000000000000000000000000000000000000000DEM       US Senator                                              DEM Mary "MJ" Hegar                   Pct 22                                                 01 
00050020015000210000040000141000029000000000000000000000000000000000000000000000000000000000000000000DEM       US Senator                                              DEM Mary "MJ" Hegar                   Pct 23                                                 01 
00050030001000013000004000009000000000000000000000000000000000000000000000000000000000000000000000000LIB       US Senator                                              LIB Kerry Douglas McKennon            Pct 1                                                  01 
00050030002000022000007000015000000000000000000000000000000000000000000000000000000000000000000000000LIB       US Senator                                              LIB Kerry Douglas McKennon            Pct 2                                                  01 
00050030003000004000000000004000000000000000000000000000000000000000000000000000000000000000000000000LIB       US Senator                                              LIB Kerry Douglas McKennon            Pct 3                                                  01 
00050030004000008000001000007000000000000000000000000000000000000000000000000000000000000000000000000LIB       US Senator                                              LIB Kerry Douglas McKennon            Pct 4                                                  01 
00050030005000007000001000004000002000000000000000000000000000000000000000000000000000000000000000000LIB       US Senator                                              LIB Kerry Douglas McKennon            Pct 5                                                  01 
00050030006000019000005000014000000000000000000000000000000000000000000000000000000000000000000000000LIB       US Senator                                              LIB Kerry Douglas McKennon            Pct 6                                                  01 
00050030007000000000000000000000000000000000000000000000000000000000000000000000000000000000000000000LIB       US Senator                                              LIB Kerry Douglas McKennon            Pct 7                                                  01 
00050030008000002000001000001000000000000000000000000000000000000000000000000000000000000000000000000LIB       US Senator                                              LIB Kerry Douglas McKennon            Pct 8                                                  01 
00050030009000017000004000012000001000000000000000000000000000000000000000000000000000000000000000000LIB       US Senator                                              LIB Kerry Douglas McKennon            Pct 11                                                 01 
00050030010000001000000000001000000000000000000000000000000000000000000000000000000000000000000000000LIB       US Senator                                              LIB Kerry Douglas McKennon            Pct 13                                                 01 
00050030011000003000003000000000000000000000000000000000000000000000000000000000000000000000000000000LIB       US Senator                                              LIB Kerry Douglas McKennon            Pct 16                                                 01 
00050030012000003000000000003000000000000000000000000000000000000000000000000000000000000000000000000LIB       US Senator                                              LIB Kerry Douglas McKennon            Pct 18                                                 01 
00050030013000008000003000005000000000000000000000000000000000000000000000000000000000000000000000000LIB       US Senator                                              LIB Kerry Douglas McKennon            Pct 19                                                 01 
00050030014000008000006000002000000000000000000000000000000000000000000000000000000000000000000000000LIB       US Senator                                              LIB Kerry Douglas McKennon            Pct 22                                                 01 
00050030015000003000001000002000000000000000000000000000000000000000000000000000000000000000000000000LIB       US Senator                                              LIB Kerry Douglas McKennon            Pct 23                                                 01 
00050040001000008000001000006000001000000000000000000000000000000000000000000000000000000000000000000GRN       US Senator                                              GRN David B. Collins                  Pct 1                                                  01 
00050040002000006000002000002000002000000000000000000000000000000000000000000000000000000000000000000GRN       US Senator                                              GRN David B. Collins                  Pct 2                                                  01 
00050040003000001000000000001000000000000000000000000000000000000000000000000000000000000000000000000GRN       US Senator                                              GRN David B. Collins                  Pct 3                                                  01 
00050040004000000000000000000000000000000000000000000000000000000000000000000000000000000000000000000GRN       US Senator                                              GRN David B. Collins                  Pct 4                                                  01 
00050040005000004000001000003000000000000000000000000000000000000000000000000000000000000000000000000GRN       US Senator                                              GRN David B. Collins                  Pct 5                                                  01 
00050040006000003000001000002000000000000000000000000000000000000000000000000000000000000000000000000GRN       US Senator                                              GRN David B. Collins                  Pct 6                                                  01 
00050040007000000000000000000000000000000000000000000000000000000000000000000000000000000000000000000GRN       US Senator                                              GRN David B. Collins                  Pct 7                                                  01 
00050040008000000000000000000000000000000000000000000000000000000000000000000000000000000000000000000GRN       US Senator                                              GRN David B. Collins                  Pct 8                                                  01 
00050040009000001000001000000000000000000000000000000000000000000000000000000000000000000000000000000GRN       US Senator                                              GRN David B. Collins                  Pct 11                                                 01 
00050040010000001000001000000000000000000000000000000000000000000000000000000000000000000000000000000GRN       US Senator                                              GRN David B. Collins                  Pct 13                                                 01 
00050040011000001000000000001000000000000000000000000000000000000000000000000000000000000000000000000GRN       US Senator                                              GRN David B. Collins                  Pct 16                                                 01 
00050040012000001000001000000000000000000000000000000000000000000000000000000000000000000000000000000GRN       US Senator                                              GRN David B. Collins                  Pct 18                                                 01 
00050040013000005000001000003000001000000000000000000000000000000000000000000000000000000000000000000GRN       US Senator                                              GRN David B. Collins                  Pct 19                                                 01 
00050040014000002000001000001000000000000000000000000000000000000000000000000000000000000000000000000GRN       US Senator                                              GRN David B. Collins                  Pct 22                                                 01 
00050040015000003000000000003000000000000000000000000000000000000000000000000000000000000000000000000GRN       US Senator                                              GRN David B. Collins                  Pct 23                                                 01 
00050060001000003000000000003000000000000000000000000000000000000000000000000000000000000000000000000NON       US Senator                                              Write-in                              Pct 1                                                  01 
00050060002000000000000000000000000000000000000000000000000000000000000000000000000000000000000000000NON       US Senator                                              Write-in                              Pct 2                                                  01 
00050060003000000000000000000000000000000000000000000000000000000000000000000000000000000000000000000NON       US Senator                                              Write-in                              Pct 3                                                  01 
00050060004000001000000000001000000000000000000000000000000000000000000000000000000000000000000000000NON       US Senator                                              Write-in                              Pct 4                                                  01 
00050060005000001000000000001000000000000000000000000000000000000000000000000000000000000000000000000NON       US Senator                                              Write-in                              Pct 5                                                  01 
00050060006000000000000000000000000000000000000000000000000000000000000000000000000000000000000000000NON       US Senator                                              Write-in                              Pct 6                                                  01 
00050060007000000000000000000000000000000000000000000000000000000000000000000000000000000000000000000NON       US Senator                                              Write-in                              Pct 7                                                  01 
00050060008000000000000000000000000000000000000000000000000000000000000000000000000000000000000000000NON       US Senator                                              Write-in                              Pct 8                                                  01 
00050060009000001000001000000000000000000000000000000000000000000000000000000000000000000000000000000NON       US Senator                                              Write-in                              Pct 11                                                 01 
00050060010000000000000000000000000000000000000000000000000000000000000000000000000000000000000000000NON       US Senator                                              Write-in                              Pct 13                                                 01 
00050060011000000000000000000000000000000000000000000000000000000000000000000000000000000000000000000NON       US Senator                                              Write-in                              Pct 16                                                 01 
00050060012000000000000000000000000000000000000000000000000000000000000000000000000000000000000000000NON       US Senator                                              Write-in                              Pct 18                                                 01 
00050060013000000000000000000000000000000000000000000000000000000000000000000000000000000000000000000NON       US Senator                                              Write-in                              Pct 19                                                 01 
00050060014000000000000000000000000000000000000000000000000000000000000000000000000000000000000000000NON       US Senator                                              Write-in                              Pct 22                                                 01 
00050060015000000000000000000000000000000000000000000000000000000000000000000000000000000000000000000NON       US Senator                                              Write-in                              Pct 23                                                 01 
00050070001000002000001000001000000000000000000000000000000000000000000000000000000000000000000000000          US Senator                                              OVER VOTES                            Pct 1                                                  01 
00050070002000003000001000000000002000000000000000000000000000000000000000000000000000000000000000000          US Senator                                              OVER VOTES                            Pct 2                                                  01 
00050070003000000000000000000000000000000000000000000000000000000000000000000000000000000000000000000          US Senator                                              OVER VOTES                            Pct 3                                                  01 
00050070004000000000000000000000000000000000000000000000000000000000000000000000000000000000000000000          US Senator                                              OVER VOTES                            Pct 4                                                  01 
00050070005000000000000000000000000000000000000000000000000000000000000000000000000000000000000000000          US Senator                                              OVER VOTES                            Pct 5                                                  01 
00050070006000000000000000000000000000000000000000000000000000000000000000000000000000000000000000000          US Senator                                              OVER VOTES                            Pct 6                                                  01 
00050070007000001000000000001000000000000000000000000000000000000000000000000000000000000000000000000          US Senator                                              OVER VOTES                            Pct 7                                                  01 
00050070008000000000000000000000000000000000000000000000000000000000000000000000000000000000000000000          US Senator                                              OVER VOTES                            Pct 8                                                  01 
00050070009000000000000000000000000000000000000000000000000000000000000000000000000000000000000000000          US Senator                                              OVER VOTES                            Pct 11                                                 01 
00050070010000000000000000000000000000000000000000000000000000000000000000000000000000000000000000000          US Senator                                              OVER VOTES                            Pct 13                                                 01 
00050070011000000000000000000000000000000000000000000000000000000000000000000000000000000000000000000          US Senator                                              OVER VOTES                            Pct 16                                                 01 
00050070012000000000000000000000000000000000000000000000000000000000000000000000000000000000000000000          US Senator                                              OVER VOTES                            Pct 18                                                 01 
00050070013000000000000000000000000000000000000000000000000000000000000000000000000000000000000000000          US Senator                                              OVER VOTES                            Pct 19                                                 01 
00050070014000000000000000000000000000000000000000000000000000000000000000000000000000000000000000000          US Senator                                              OVER VOTES                            Pct 22                                                 01 
00050070015000000000000000000000000000000000000000000000000000000000000000000000000000000000000000000          US Senator                                              OVER VOTES                            Pct 23                                                 01 
00050080001000046000014000031000001000000000000000000000000000000000000000000000000000000000000000000          US Senator                                              UNDER VOTES                           Pct 1                                                  01 
00050080002000018000005000011000002000000000000000000000000000000000000000000000000000000000000000000          US Senator                                              UNDER VOTES                           Pct 2                                                  01 
00050080003000002000002000000000000000000000000000000000000000000000000000000000000000000000000000000          US Senator                                              UNDER VOTES                           Pct 3                                                  01 
00050080004000002000000000002000000000000000000000000000000000000000000000000000000000000000000000000          US Senator                                              UNDER VOTES                           Pct 4                                                  01 
00050080005000022000005000013000004000000000000000000000000000000000000000000000000000000000000000000          US Senator                                              UNDER VOTES                           Pct 5                                                  01 
00050080006000024000006000015000003000000000000000000000000000000000000000000000000000000000000000000          US Senator                                              UNDER VOTES                           Pct 6                                                  01 
00050080007000001000001000000000000000000000000000000000000000000000000000000000000000000000000000000          US Senator                                              UNDER VOTES                           Pct 7                                                  01 
00050080008000001000001000000000000000000000000000000000000000000000000000000000000000000000000000000          US Senator                                              UNDER VOTES                           Pct 8                                                  01 
00050080009000007000004000003000000000000000000000000000000000000000000000000000000000000000000000000          US Senator                                              UNDER VOTES                           Pct 11                                                 01 
00050080010000003000000000002000001000000000000000000000000000000000000000000000000000000000000000000          US Senator                                              UNDER VOTES                           Pct 13                                                 01 
00050080011000002000000000001000001000000000000000000000000000000000000000000000000000000000000000000          US Senator                                              UNDER VOTES                           Pct 16                                                 01 
00050080012000000000000000000000000000000000000000000000000000000000000000000000000000000000000000000          US Senator                                              UNDER VOTES                           Pct 18                                                 01 
00050080013000002000000000002000000000000000000000000000000000000000000000000000000000000000000000000          US Senator                                              UNDER VOTES                           Pct 19                                                 01 
00050080014000012000003000008000001000000000000000000000000000000000000000000000000000000000000000000          US Senator                                              UNDER VOTES                           Pct 22                                                 01 
00050080015000011000003000008000000000000000000000000000000000000000000000000000000000000000000000000          US Senator                                              UNDER VOTES                           Pct 23                                                 01 
00060010001000524000070000424000030000000000000000000000000000000000000000000000000000000000000000000REP       US Representative, Dist 17                              REP Pete Sessions                     Pct 1                                                  01 
00060010002000585000080000466000039000000000000000000000000000000000000000000000000000000000000000000REP       US Representative, Dist 17                              REP Pete Sessions                     Pct 2                                                  01 
00060010003000407000116000265000026000000000000000000000000000000000000000000000000000000000000000000REP       US Representative, Dist 17                              REP Pete Sessions                     Pct 3                                                  01 
00060010004000366000021000336000009000000000000000000000000000000000000000000000000000000000000000000REP       US Representative, Dist 17                              REP Pete Sessions                     Pct 4                                                  01 
00060010005000801000155000596000050000000000000000000000000000000000000000000000000000000000000000000REP       US Representative, Dist 17                              REP Pete Sessions                     Pct 5                                                  01 
00060010006001005000093000878000034000000000000000000000000000000000000000000000000000000000000000000REP       US Representative, Dist 17                              REP Pete Sessions                     Pct 6                                                  01 
00060010007000027000013000009000005000000000000000000000000000000000000000000000000000000000000000000REP       US Representative, Dist 17                              REP Pete Sessions                     Pct 7                                                  01 
00060010008000180000096000065000019000000000000000000000000000000000000000000000000000000000000000000REP       US Representative, Dist 17                              REP Pete Sessions                     Pct 8                                                  01 
00060010009000618000184000407000027000000000000000000000000000000000000000000000000000000000000000000REP       US Representative, Dist 17                              REP Pete Sessions                     Pct 11                                                 01 
00060010010000156000010000141000005000000000000000000000000000000000000000000000000000000000000000000REP       US Representative, Dist 17                              REP Pete Sessions                     Pct 13                                                 01 
00060010011000105000033000066000006000000000000000000000000000000000000000000000000000000000000000000REP       US Representative, Dist 17                              REP Pete Sessions                     Pct 16                                                 01 
00060010012000057000013000042000002000000000000000000000000000000000000000000000000000000000000000000REP       US Representative, Dist 17                              REP Pete Sessions                     Pct 18                                                 01 
00060010013000395000074000301000020000000000000000000000000000000000000000000000000000000000000000000REP       US Representative, Dist 17                              REP Pete Sessions                     Pct 19                                                 01 
00060010014000144000029000107000008000000000000000000000000000000000000000000000000000000000000000000REP       US Representative, Dist 17                              REP Pete Sessions                     Pct 22                                                 01 
00060010015000214000039000169000006000000000000000000000000000000000000000000000000000000000000000000REP       US Representative, Dist 17                              REP Pete Sessions                     Pct 23                                                 01 
00060020001000330000061000234000035000000000000000000000000000000000000000000000000000000000000000000DEM       US Representative, Dist 17                              DEM Rick Kennedy                      Pct 1                                                  01 
00060020002000356000078000232000046000000000000000000000000000000000000000000000000000000000000000000DEM       US Representative, Dist 17                              DEM Rick Kennedy                      Pct 2                                                  01 
00060020003000053000009000036000008000000000000000000000000000000000000000000000000000000000000000000DEM       US Representative, Dist 17                              DEM Rick Kennedy                      Pct 3                                                  01 
00060020004000051000004000034000013000000000000000000000000000000000000000000000000000000000000000000DEM       US Representative, Dist 17                              DEM Rick Kennedy                      Pct 4                                                  01 
00060020005000229000034000156000039000000000000000000000000000000000000000000000000000000000000000000DEM       US Representative, Dist 17                              DEM Rick Kennedy                      Pct 5                                                  01 
00060020006000195000026000141000028000000000000000000000000000000000000000000000000000000000000000000DEM       US Representative, Dist 17                              DEM Rick Kennedy                      Pct 6                                                  01 
00060020007000023000009000005000009000000000000000000000000000000000000000000000000000000000000000000DEM       US Representative, Dist 17                              DEM Rick Kennedy                      Pct 7                                                  01 
00060020008000017000012000003000002000000000000000000000000000000000000000000000000000000000000000000DEM       US Representative, Dist 17                              DEM Rick Kennedy                      Pct 8                                                  01 
00060020009000178000047000103000028000000000000000000000000000000000000000000000000000000000000000000DEM       US Representative, Dist 17                              DEM Rick Kennedy                      Pct 11                                                 01 
00060020010000015000002000011000002000000000000000000000000000000000000000000000000000000000000000000DEM       US Representative, Dist 17                              DEM Rick Kennedy                      Pct 13                                                 01 
00060020011000015000003000012000000000000000000000000000000000000000000000000000000000000000000000000DEM       US Representative, Dist 17                              DEM Rick Kennedy                      Pct 16                                                 01 
00060020012000009000005000004000000000000000000000000000000000000000000000000000000000000000000000000DEM       US Representative, Dist 17                              DEM Rick Kennedy                      Pct 18                                                 01 
00060020013000046000004000031000011000000000000000000000000000000000000000000000000000000000000000000DEM       US Representative, Dist 17                              DEM Rick Kennedy                      Pct 19                                                 01 
00060020014000518000121000308000089000000000000000000000000000000000000000000000000000000000000000000DEM       US Representative, Dist 17                              DEM Rick Kennedy                      Pct 22                                                 01 
00060020015000206000039000138000029000000000000000000000000000000000000000000000000000000000000000000DEM       US Representative, Dist 17                              DEM Rick Kennedy                      Pct 23                                                 01 
00060030001000016000008000008000000000000000000000000000000000000000000000000000000000000000000000000LIB       US Representative, Dist 17                              LIB Ted Brown                         Pct 1                                                  01 
00060030002000020000004000015000001000000000000000000000000000000000000000000000000000000000000000000LIB       US Representative, Dist 17                              LIB Ted Brown                         Pct 2                                                  01 
00060030003000009000002000006000001000000000000000000000000000000000000000000000000000000000000000000LIB       US Representative, Dist 17                              LIB Ted Brown                         Pct 3                                                  01 
00060030004000007000001000006000000000000000000000000000000000000000000000000000000000000000000000000LIB       US Representative, Dist 17                              LIB Ted Brown                         Pct 4                                                  01 
00060030005000009000001000008000000000000000000000000000000000000000000000000000000000000000000000000LIB       US Representative, Dist 17                              LIB Ted Brown                         Pct 5                                                  01 
00060030006000024000002000022000000000000000000000000000000000000000000000000000000000000000000000000LIB       US Representative, Dist 17                              LIB Ted Brown                         Pct 6                                                  01 
00060030007000002000002000000000000000000000000000000000000000000000000000000000000000000000000000000LIB       US Representative, Dist 17                              LIB Ted Brown                         Pct 7                                                  01 
00060030008000002000002000000000000000000000000000000000000000000000000000000000000000000000000000000LIB       US Representative, Dist 17                              LIB Ted Brown                         Pct 8                                                  01 
00060030009000022000004000017000001000000000000000000000000000000000000000000000000000000000000000000LIB       US Representative, Dist 17                              LIB Ted Brown                         Pct 11                                                 01 
00060030010000001000000000001000000000000000000000000000000000000000000000000000000000000000000000000LIB       US Representative, Dist 17                              LIB Ted Brown                         Pct 13                                                 01 
00060030011000004000002000002000000000000000000000000000000000000000000000000000000000000000000000000LIB       US Representative, Dist 17                              LIB Ted Brown                         Pct 16                                                 01 
00060030012000002000001000001000000000000000000000000000000000000000000000000000000000000000000000000LIB       US Representative, Dist 17                              LIB Ted Brown                         Pct 18                                                 01 
00060030013000009000001000007000001000000000000000000000000000000000000000000000000000000000000000000LIB       US Representative, Dist 17                              LIB Ted Brown                         Pct 19                                                 01 
00060030014000008000002000006000000000000000000000000000000000000000000000000000000000000000000000000LIB       US Representative, Dist 17                              LIB Ted Brown                         Pct 22                                                 01 
00060030015000007000001000006000000000000000000000000000000000000000000000000000000000000000000000000LIB       US Representative, Dist 17                              LIB Ted Brown                         Pct 23                                                 01 
00060040001000001000001000000000000000000000000000000000000000000000000000000000000000000000000000000          US Representative, Dist 17                              OVER VOTES                            Pct 1                                                  01 
00060040002000000000000000000000000000000000000000000000000000000000000000000000000000000000000000000          US Representative, Dist 17                              OVER VOTES                            Pct 2                                                  01 
00060040003000000000000000000000000000000000000000000000000000000000000000000000000000000000000000000          US Representative, Dist 17                              OVER VOTES                            Pct 3                                                  01 
00060040004000000000000000000000000000000000000000000000000000000000000000000000000000000000000000000          US Representative, Dist 17                              OVER VOTES                            Pct 4                                                  01 
00060040005000000000000000000000000000000000000000000000000000000000000000000000000000000000000000000          US Representative, Dist 17                              OVER VOTES                            Pct 5                                                  01 
00060040006000000000000000000000000000000000000000000000000000000000000000000000000000000000000000000          US Representative, Dist 17                              OVER VOTES                            Pct 6                                                  01 
00060040007000000000000000000000000000000000000000000000000000000000000000000000000000000000000000000          US Representative, Dist 17                              OVER VOTES                            Pct 7                                                  01 
00060040008000000000000000000000000000000000000000000000000000000000000000000000000000000000000000000          US Representative, Dist 17                              OVER VOTES                            Pct 8                                                  01 
00060040009000000000000000000000000000000000000000000000000000000000000000000000000000000000000000000          US Representative, Dist 17                              OVER VOTES                            Pct 11                                                 01 
00060040010000000000000000000000000000000000000000000000000000000000000000000000000000000000000000000          US Representative, Dist 17                              OVER VOTES                            Pct 13                                                 01 
00060040011000000000000000000000000000000000000000000000000000000000000000000000000000000000000000000          US Representative, Dist 17                              OVER VOTES                            Pct 16                                                 01 
00060040012000000000000000000000000000000000000000000000000000000000000000000000000000000000000000000          US Representative, Dist 17                              OVER VOTES                            Pct 18                                                 01 
00060040013000000000000000000000000000000000000000000000000000000000000000000000000000000000000000000          US Representative, Dist 17                              OVER VOTES                            Pct 19                                                 01 
00060040014000001000001000000000000000000000000000000000000000000000000000000000000000000000000000000          US Representative, Dist 17                              OVER VOTES                            Pct 22                                                 01 
00060040015000000000000000000000000000000000000000000000000000000000000000000000000000000000000000000          US Representative, Dist 17                              OVER VOTES                            Pct 23                                                 01 
00060050001000051000013000036000002000000000000000000000000000000000000000000000000000000000000000000          US Representative, Dist 17                              UNDER VOTES                           Pct 1                                                  01 
00060050002000018000007000009000002000000000000000000000000000000000000000000000000000000000000000000          US Representative, Dist 17                              UNDER VOTES                           Pct 2                                                  01 
00060050003000003000002000001000000000000000000000000000000000000000000000000000000000000000000000000          US Representative, Dist 17                              UNDER VOTES                           Pct 3                                                  01 
00060050004000003000000000003000000000000000000000000000000000000000000000000000000000000000000000000          US Representative, Dist 17                              UNDER VOTES                           Pct 4                                                  01 
00060050005000036000006000028000002000000000000000000000000000000000000000000000000000000000000000000          US Representative, Dist 17                              UNDER VOTES                           Pct 5                                                  01 
00060050006000027000006000020000001000000000000000000000000000000000000000000000000000000000000000000          US Representative, Dist 17                              UNDER VOTES                           Pct 6                                                  01 
00060050007000001000001000000000000000000000000000000000000000000000000000000000000000000000000000000          US Representative, Dist 17                              UNDER VOTES                           Pct 7                                                  01 
00060050008000002000001000000000001000000000000000000000000000000000000000000000000000000000000000000          US Representative, Dist 17                              UNDER VOTES                           Pct 8                                                  01 
00060050009000007000003000004000000000000000000000000000000000000000000000000000000000000000000000000          US Representative, Dist 17                              UNDER VOTES                           Pct 11                                                 01 
00060050010000005000000000004000001000000000000000000000000000000000000000000000000000000000000000000          US Representative, Dist 17                              UNDER VOTES                           Pct 13                                                 01 
00060050011000002000000000001000001000000000000000000000000000000000000000000000000000000000000000000          US Representative, Dist 17                              UNDER VOTES                           Pct 16                                                 01 
00060050012000000000000000000000000000000000000000000000000000000000000000000000000000000000000000000          US Representative, Dist 17                              UNDER VOTES                           Pct 18                                                 01 
00060050013000005000000000005000000000000000000000000000000000000000000000000000000000000000000000000          US Representative, Dist 17                              UNDER VOTES                           Pct 19                                                 01 
00060050014000012000004000006000002000000000000000000000000000000000000000000000000000000000000000000          US Representative, Dist 17                              UNDER VOTES                           Pct 22                                                 01 
00060050015000012000000000011000001000000000000000000000000000000000000000000000000000000000000000000          US Representative, Dist 17                              UNDER VOTES                           Pct 23                                                 01 
00070010001000505000066000411000028000000000000000000000000000000000000000000000000000000000000000000REP       Railroad Commissioner                                   REP James "Jim" Wright                Pct 1                                                  01 
00070010002000581000082000454000045000000000000000000000000000000000000000000000000000000000000000000REP       Railroad Commissioner                                   REP James "Jim" Wright                Pct 2                                                  01 
00070010003000410000118000266000026000000000000000000000000000000000000000000000000000000000000000000REP       Railroad Commissioner                                   REP James "Jim" Wright                Pct 3                                                  01 
00070010004000366000022000335000009000000000000000000000000000000000000000000000000000000000000000000REP       Railroad Commissioner                                   REP James "Jim" Wright                Pct 4                                                  01 
00070010005000802000155000597000050000000000000000000000000000000000000000000000000000000000000000000REP       Railroad Commissioner                                   REP James "Jim" Wright                Pct 5                                                  01 
00070010006000999000093000875000031000000000000000000000000000000000000000000000000000000000000000000REP       Railroad Commissioner                                   REP James "Jim" Wright                Pct 6                                                  01 
00070010007000025000011000009000005000000000000000000000000000000000000000000000000000000000000000000REP       Railroad Commissioner                                   REP James "Jim" Wright                Pct 7                                                  01 
00070010008000181000098000063000020000000000000000000000000000000000000000000000000000000000000000000REP       Railroad Commissioner                                   REP James "Jim" Wright                Pct 8                                                  01 
00070010009000630000186000416000028000000000000000000000000000000000000000000000000000000000000000000REP       Railroad Commissioner                                   REP James "Jim" Wright                Pct 11                                                 01 
00070010010000152000011000137000004000000000000000000000000000000000000000000000000000000000000000000REP       Railroad Commissioner                                   REP James "Jim" Wright                Pct 13                                                 01 
00070010011000104000032000066000006000000000000000000000000000000000000000000000000000000000000000000REP       Railroad Commissioner                                   REP James "Jim" Wright                Pct 16                                                 01 
00070010012000057000013000042000002000000000000000000000000000000000000000000000000000000000000000000REP       Railroad Commissioner                                   REP James "Jim" Wright                Pct 18                                                 01 
00070010013000395000073000303000019000000000000000000000000000000000000000000000000000000000000000000REP       Railroad Commissioner                                   REP James "Jim" Wright                Pct 19                                                 01 
00070010014000138000030000101000007000000000000000000000000000000000000000000000000000000000000000000REP       Railroad Commissioner                                   REP James "Jim" Wright                Pct 22                                                 01 
00070010015000213000037000171000005000000000000000000000000000000000000000000000000000000000000000000REP       Railroad Commissioner                                   REP James "Jim" Wright                Pct 23                                                 01 
00070020001000326000062000228000036000000000000000000000000000000000000000000000000000000000000000000DEM       Railroad Commissioner                                   DEM Chrysta Castaneda                 Pct 1                                                  01 
00070020002000343000073000233000037000000000000000000000000000000000000000000000000000000000000000000DEM       Railroad Commissioner                                   DEM Chrysta Castaneda                 Pct 2                                                  01 
00070020003000052000007000036000009000000000000000000000000000000000000000000000000000000000000000000DEM       Railroad Commissioner                                   DEM Chrysta Castaneda                 Pct 3                                                  01 
00070020004000047000002000032000013000000000000000000000000000000000000000000000000000000000000000000DEM       Railroad Commissioner                                   DEM Chrysta Castaneda                 Pct 4                                                  01 
00070020005000219000032000150000037000000000000000000000000000000000000000000000000000000000000000000DEM       Railroad Commissioner                                   DEM Chrysta Castaneda                 Pct 5                                                  01 
00070020006000199000023000148000028000000000000000000000000000000000000000000000000000000000000000000DEM       Railroad Commissioner                                   DEM Chrysta Castaneda                 Pct 6                                                  01 
00070020007000024000010000005000009000000000000000000000000000000000000000000000000000000000000000000DEM       Railroad Commissioner                                   DEM Chrysta Castaneda                 Pct 7                                                  01 
00070020008000014000008000004000002000000000000000000000000000000000000000000000000000000000000000000DEM       Railroad Commissioner                                   DEM Chrysta Castaneda                 Pct 8                                                  01 
00070020009000160000041000093000026000000000000000000000000000000000000000000000000000000000000000000DEM       Railroad Commissioner                                   DEM Chrysta Castaneda                 Pct 11                                                 01 
00070020010000016000001000012000003000000000000000000000000000000000000000000000000000000000000000000DEM       Railroad Commissioner                                   DEM Chrysta Castaneda                 Pct 13                                                 01 
00070020011000014000004000010000000000000000000000000000000000000000000000000000000000000000000000000DEM       Railroad Commissioner                                   DEM Chrysta Castaneda                 Pct 16                                                 01 
00070020012000010000005000005000000000000000000000000000000000000000000000000000000000000000000000000DEM       Railroad Commissioner                                   DEM Chrysta Castaneda                 Pct 18                                                 01 
00070020013000044000004000028000012000000000000000000000000000000000000000000000000000000000000000000DEM       Railroad Commissioner                                   DEM Chrysta Castaneda                 Pct 19                                                 01 
00070020014000522000119000313000090000000000000000000000000000000000000000000000000000000000000000000DEM       Railroad Commissioner                                   DEM Chrysta Castaneda                 Pct 22                                                 01 
00070020015000204000038000135000031000000000000000000000000000000000000000000000000000000000000000000DEM       Railroad Commissioner                                   DEM Chrysta Castaneda                 Pct 23                                                 01 
00070030001000013000005000008000000000000000000000000000000000000000000000000000000000000000000000000LIB       Railroad Commissioner                                   LIB Matt Sterett                      Pct 1                                                  01 
00070030002000020000003000017000000000000000000000000000000000000000000000000000000000000000000000000LIB       Railroad Commissioner                                   LIB Matt Sterett                      Pct 2                                                  01 
00070030003000006000002000004000000000000000000000000000000000000000000000000000000000000000000000000LIB       Railroad Commissioner                                   LIB Matt Sterett                      Pct 3                                                  01 
00070030004000007000002000005000000000000000000000000000000000000000000000000000000000000000000000000LIB       Railroad Commissioner                                   LIB Matt Sterett                      Pct 4                                                  01 
00070030005000011000002000009000000000000000000000000000000000000000000000000000000000000000000000000LIB       Railroad Commissioner                                   LIB Matt Sterett                      Pct 5                                                  01 
00070030006000017000004000013000000000000000000000000000000000000000000000000000000000000000000000000LIB       Railroad Commissioner                                   LIB Matt Sterett                      Pct 6                                                  01 
00070030007000001000001000000000000000000000000000000000000000000000000000000000000000000000000000000LIB       Railroad Commissioner                                   LIB Matt Sterett                      Pct 7                                                  01 
00070030008000003000003000000000000000000000000000000000000000000000000000000000000000000000000000000LIB       Railroad Commissioner                                   LIB Matt Sterett                      Pct 8                                                  01 
00070030009000021000007000014000000000000000000000000000000000000000000000000000000000000000000000000LIB       Railroad Commissioner                                   LIB Matt Sterett                      Pct 11                                                 01 
00070030010000003000000000003000000000000000000000000000000000000000000000000000000000000000000000000LIB       Railroad Commissioner                                   LIB Matt Sterett                      Pct 13                                                 01 
00070030011000004000002000002000000000000000000000000000000000000000000000000000000000000000000000000LIB       Railroad Commissioner                                   LIB Matt Sterett                      Pct 16                                                 01 
00070030012000001000001000000000000000000000000000000000000000000000000000000000000000000000000000000LIB       Railroad Commissioner                                   LIB Matt Sterett                      Pct 18                                                 01 
00070030013000005000001000004000000000000000000000000000000000000000000000000000000000000000000000000LIB       Railroad Commissioner                                   LIB Matt Sterett                      Pct 19                                                 01 
00070030014000005000003000001000001000000000000000000000000000000000000000000000000000000000000000000LIB       Railroad Commissioner                                   LIB Matt Sterett                      Pct 22                                                 01 
00070030015000007000002000005000000000000000000000000000000000000000000000000000000000000000000000000LIB       Railroad Commissioner                                   LIB Matt Sterett                      Pct 23                                                 01 
00070040001000008000003000005000000000000000000000000000000000000000000000000000000000000000000000000GRN       Railroad Commissioner                                   GRN Katija "Kat" Gruene               Pct 1                                                  01 
00070040002000008000003000004000001000000000000000000000000000000000000000000000000000000000000000000GRN       Railroad Commissioner                                   GRN Katija "Kat" Gruene               Pct 2                                                  01 
