00010010001000965000000000000000000000000000000000000000000000000000000000000000000000000000000000000          REGISTERED VOTERS - TOTAL                               REGISTERED VOTERS - TOTAL             PCT 111                                                00 
00010010002002159000000000000000000000000000000000000000000000000000000000000000000000000000000000000          REGISTERED VOTERS - TOTAL                               REGISTERED VOTERS - TOTAL             PCT 112                                                00 
00010010003003098000000000000000000000000000000000000000000000000000000000000000000000000000000000000          REGISTERED VOTERS - TOTAL                               REGISTERED VOTERS - TOTAL             PCT 113                                                00 
00010010004001663000000000000000000000000000000000000000000000000000000000000000000000000000000000000          REGISTERED VOTERS - TOTAL                               REGISTERED VOTERS - TOTAL             PCT 114                                                00 
00010010005001038000000000000000000000000000000000000000000000000000000000000000000000000000000000000          REGISTERED VOTERS - TOTAL                               REGISTERED VOTERS - TOTAL             PCT 201                                                00 
00010010006000903000000000000000000000000000000000000000000000000000000000000000000000000000000000000          REGISTERED VOTERS - TOTAL                               REGISTERED VOTERS - TOTAL             PCT 212                                                00 
00010010007002018000000000000000000000000000000000000000000000000000000000000000000000000000000000000          REGISTERED VOTERS - TOTAL                               REGISTERED VOTERS - TOTAL             PCT 213                                                00 
00010010008002444000000000000000000000000000000000000000000000000000000000000000000000000000000000000          REGISTERED VOTERS - TOTAL                               REGISTERED VOTERS - TOTAL             PCT 214                                                00 
00010010009002375000000000000000000000000000000000000000000000000000000000000000000000000000000000000          REGISTERED VOTERS - TOTAL                               REGISTERED VOTERS - TOTAL             PCT 215                                                00 
00010010010001210000000000000000000000000000000000000000000000000000000000000000000000000000000000000          REGISTERED VOTERS - TOTAL                               REGISTERED VOTERS - TOTAL             PCT 302                                                00 
00010010011001851000000000000000000000000000000000000000000000000000000000000000000000000000000000000          REGISTERED VOTERS - TOTAL                               REGISTERED VOTERS - TOTAL             PCT 303                                                00 
00010010012001107000000000000000000000000000000000000000000000000000000000000000000000000000000000000          REGISTERED VOTERS - TOTAL                               REGISTERED VOTERS - TOTAL             PCT 314                                                00 
00010010013000860000000000000000000000000000000000000000000000000000000000000000000000000000000000000          REGISTERED VOTERS - TOTAL                               REGISTERED VOTERS - TOTAL             PCT 315                                                00 
00010010014000477000000000000000000000000000000000000000000000000000000000000000000000000000000000000          REGISTERED VOTERS - TOTAL                               REGISTERED VOTERS - TOTAL             PCT 316                                                00 
00010010015000767000000000000000000000000000000000000000000000000000000000000000000000000000000000000          REGISTERED VOTERS - TOTAL                               REGISTERED VOTERS - TOTAL             PCT 317                                                00 
00010010016001137000000000000000000000000000000000000000000000000000000000000000000000000000000000000          REGISTERED VOTERS - TOTAL                               REGISTERED VOTERS - TOTAL             PCT 318                                                00 
00010010017000395000000000000000000000000000000000000000000000000000000000000000000000000000000000000          REGISTERED VOTERS - TOTAL                               REGISTERED VOTERS - TOTAL             PCT 319                                                00 
00010010018001698000000000000000000000000000000000000000000000000000000000000000000000000000000000000          REGISTERED VOTERS - TOTAL                               REGISTERED VOTERS - TOTAL             PCT 404                                                00 
00010010019001310000000000000000000000000000000000000000000000000000000000000000000000000000000000000          REGISTERED VOTERS - TOTAL                               REGISTERED VOTERS - TOTAL             PCT 405                                                00 
00010010020001019000000000000000000000000000000000000000000000000000000000000000000000000000000000000          REGISTERED VOTERS - TOTAL                               REGISTERED VOTERS - TOTAL             PCT 416                                                00 
00010010021001621000000000000000000000000000000000000000000000000000000000000000000000000000000000000          REGISTERED VOTERS - TOTAL                               REGISTERED VOTERS - TOTAL             PCT 417                                                00 
00010010022002270000000000000000000000000000000000000000000000000000000000000000000000000000000000000          REGISTERED VOTERS - TOTAL                               REGISTERED VOTERS - TOTAL             PCT 418                                                00 
00020010001000653000082000526000045000000000000000000000000000000000000000000000000000000000000000000          BALLOTS CAST - TOTAL                                    BALLOTS CAST - TOTAL                  PCT 111                                                00 
00020010002001325000460000772000093000000000000000000000000000000000000000000000000000000000000000000          BALLOTS CAST - TOTAL                                    BALLOTS CAST - TOTAL                  PCT 112                                                00 
00020010003002083000501001386000196000000000000000000000000000000000000000000000000000000000000000000          BALLOTS CAST - TOTAL                                    BALLOTS CAST - TOTAL                  PCT 113                                                00 
00020010004001090000328000686000076000000000000000000000000000000000000000000000000000000000000000000          BALLOTS CAST - TOTAL                                    BALLOTS CAST - TOTAL                  PCT 114                                                00 
00020010005000650000076000486000088000000000000000000000000000000000000000000000000000000000000000000          BALLOTS CAST - TOTAL                                    BALLOTS CAST - TOTAL                  PCT 201                                                00 
00020010006000639000076000513000050000000000000000000000000000000000000000000000000000000000000000000          BALLOTS CAST - TOTAL                                    BALLOTS CAST - TOTAL                  PCT 212                                                00 
00020010007001407000337000953000117000000000000000000000000000000000000000000000000000000000000000000          BALLOTS CAST - TOTAL                                    BALLOTS CAST - TOTAL                  PCT 213                                                00 
00020010008001877000534001199000144000000000000000000000000000000000000000000000000000000000000000000          BALLOTS CAST - TOTAL                                    BALLOTS CAST - TOTAL                  PCT 214                                                00 
00020010009001615000583000922000110000000000000000000000000000000000000000000000000000000000000000000          BALLOTS CAST - TOTAL                                    BALLOTS CAST - TOTAL                  PCT 215                                                00 
00020010010000666000082000509000075000000000000000000000000000000000000000000000000000000000000000000          BALLOTS CAST - TOTAL                                    BALLOTS CAST - TOTAL                  PCT 302                                                00 
00020010011000924000151000684000089000000000000000000000000000000000000000000000000000000000000000000          BALLOTS CAST - TOTAL                                    BALLOTS CAST - TOTAL                  PCT 303                                                00 
00020010012000796000116000614000066000000000000000000000000000000000000000000000000000000000000000000          BALLOTS CAST - TOTAL                                    BALLOTS CAST - TOTAL                  PCT 314                                                00 
00020010013000628000141000458000029000000000000000000000000000000000000000000000000000000000000000000          BALLOTS CAST - TOTAL                                    BALLOTS CAST - TOTAL                  PCT 315                                                00 
00020010014000340000127000186000027000000000000000000000000000000000000000000000000000000000000000000          BALLOTS CAST - TOTAL                                    BALLOTS CAST - TOTAL                  PCT 316                                                00 
00020010015000424000123000244000057000000000000000000000000000000000000000000000000000000000000000000          BALLOTS CAST - TOTAL                                    BALLOTS CAST - TOTAL                  PCT 317                                                00 
00020010016000776000332000376000068000000000000000000000000000000000000000000000000000000000000000000          BALLOTS CAST - TOTAL                                    BALLOTS CAST - TOTAL                  PCT 318                                                00 
00020010017000259000068000159000032000000000000000000000000000000000000000000000000000000000000000000          BALLOTS CAST - TOTAL                                    BALLOTS CAST - TOTAL                  PCT 319                                                00 
00020010018001218000143000984000091000000000000000000000000000000000000000000000000000000000000000000          BALLOTS CAST - TOTAL                                    BALLOTS CAST - TOTAL                  PCT 404                                                00 
00020010019000896000115000695000086000000000000000000000000000000000000000000000000000000000000000000          BALLOTS CAST - TOTAL                                    BALLOTS CAST - TOTAL                  PCT 405                                                00 
00020010020000652000107000501000044000000000000000000000000000000000000000000000000000000000000000000          BALLOTS CAST - TOTAL                                    BALLOTS CAST - TOTAL                  PCT 416                                                00 
00020010021000993000286000630000077000000000000000000000000000000000000000000000000000000000000000000          BALLOTS CAST - TOTAL                                    BALLOTS CAST - TOTAL                  PCT 417                                                00 
00020010022001536000414001005000117000000000000000000000000000000000000000000000000000000000000000000          BALLOTS CAST - TOTAL                                    BALLOTS CAST - TOTAL                  PCT 418                                                00 
00030010001000000000000000000000000000000000000000000000000000000000000000000000000000000000000000000          BALLOTS CAST - BLANK                                    BALLOTS CAST - BLANK                  PCT 111                                                00 
00030010002000000000000000000000000000000000000000000000000000000000000000000000000000000000000000000          BALLOTS CAST - BLANK                                    BALLOTS CAST - BLANK                  PCT 112                                                00 
00030010003000000000000000000000000000000000000000000000000000000000000000000000000000000000000000000          BALLOTS CAST - BLANK                                    BALLOTS CAST - BLANK                  PCT 113                                                00 
00030010004000000000000000000000000000000000000000000000000000000000000000000000000000000000000000000          BALLOTS CAST - BLANK                                    BALLOTS CAST - BLANK                  PCT 114                                                00 
00030010005000000000000000000000000000000000000000000000000000000000000000000000000000000000000000000          BALLOTS CAST - BLANK                                    BALLOTS CAST - BLANK                  PCT 201                                                00 
00030010006000000000000000000000000000000000000000000000000000000000000000000000000000000000000000000          BALLOTS CAST - BLANK                                    BALLOTS CAST - BLANK                  PCT 212                                                00 
00030010007000000000000000000000000000000000000000000000000000000000000000000000000000000000000000000          BALLOTS CAST - BLANK                                    BALLOTS CAST - BLANK                  PCT 213                                                00 
00030010008000000000000000000000000000000000000000000000000000000000000000000000000000000000000000000          BALLOTS CAST - BLANK                                    BALLOTS CAST - BLANK                  PCT 214                                                00 
00030010009000000000000000000000000000000000000000000000000000000000000000000000000000000000000000000          BALLOTS CAST - BLANK                                    BALLOTS CAST - BLANK                  PCT 215                                                00 
00030010010000000000000000000000000000000000000000000000000000000000000000000000000000000000000000000          BALLOTS CAST - BLANK                                    BALLOTS CAST - BLANK                  PCT 302                                                00 
00030010011000000000000000000000000000000000000000000000000000000000000000000000000000000000000000000          BALLOTS CAST - BLANK                                    BALLOTS CAST - BLANK                  PCT 303                                                00 
00030010012000000000000000000000000000000000000000000000000000000000000000000000000000000000000000000          BALLOTS CAST - BLANK                                    BALLOTS CAST - BLANK                  PCT 314                                                00 
00030010013000000000000000000000000000000000000000000000000000000000000000000000000000000000000000000          BALLOTS CAST - BLANK                                    BALLOTS CAST - BLANK                  PCT 315                                                00 
00030010014000000000000000000000000000000000000000000000000000000000000000000000000000000000000000000          BALLOTS CAST - BLANK                                    BALLOTS CAST - BLANK                  PCT 316                                                00 
00030010015000000000000000000000000000000000000000000000000000000000000000000000000000000000000000000          BALLOTS CAST - BLANK                                    BALLOTS CAST - BLANK                  PCT 317                                                00 
00030010016000000000000000000000000000000000000000000000000000000000000000000000000000000000000000000          BALLOTS CAST - BLANK                                    BALLOTS CAST - BLANK                  PCT 318                                                00 
00030010017000000000000000000000000000000000000000000000000000000000000000000000000000000000000000000          BALLOTS CAST - BLANK                                    BALLOTS CAST - BLANK                  PCT 319                                                00 
00030010018000000000000000000000000000000000000000000000000000000000000000000000000000000000000000000          BALLOTS CAST - BLANK                                    BALLOTS CAST - BLANK                  PCT 404                                                00 
00030010019000000000000000000000000000000000000000000000000000000000000000000000000000000000000000000          BALLOTS CAST - BLANK                                    BALLOTS CAST - BLANK                  PCT 405                                                00 
00030010020000000000000000000000000000000000000000000000000000000000000000000000000000000000000000000          BALLOTS CAST - BLANK                                    BALLOTS CAST - BLANK                  PCT 416                                                00 
00030010021000000000000000000000000000000000000000000000000000000000000000000000000000000000000000000          BALLOTS CAST - BLANK                                    BALLOTS CAST - BLANK                  PCT 417                                                00 
00030010022000000000000000000000000000000000000000000000000000000000000000000000000000000000000000000          BALLOTS CAST - BLANK                                    BALLOTS CAST - BLANK                  PCT 418                                                00 
00040010001000539000070000437000032000000000000000000000000000000000000000000000000000000000000000000REP       President / Vice-President                              REP Donald J. Trump / Michael R. PencePCT 111                                                01 
00040010002001069000391000621000057000000000000000000000000000000000000000000000000000000000000000000REP       President / Vice-President                              REP Donald J. Trump / Michael R. PencePCT 112                                                01 
00040010003001646000394001124000128000000000000000000000000000000000000000000000000000000000000000000REP       President / Vice-President                              REP Donald J. Trump / Michael R. PencePCT 113                                                01 
00040010004000869000277000548000044000000000000000000000000000000000000000000000000000000000000000000REP       President / Vice-President                              REP Donald J. Trump / Michael R. PencePCT 114                                                01 
00040010005000474000051000367000056000000000000000000000000000000000000000000000000000000000000000000REP       President / Vice-President                              REP Donald J. Trump / Michael R. PencePCT 201                                                01 
00040010006000529000058000444000027000000000000000000000000000000000000000000000000000000000000000000REP       President / Vice-President                              REP Donald J. Trump / Michael R. PencePCT 212                                                01 
00040010007001152000298000771000083000000000000000000000000000000000000000000000000000000000000000000REP       President / Vice-President                              REP Donald J. Trump / Michael R. PencePCT 213                                                01 
00040010008001442000431000935000076000000000000000000000000000000000000000000000000000000000000000000REP       President / Vice-President                              REP Donald J. Trump / Michael R. PencePCT 214                                                01 
00040010009001191000438000704000049000000000000000000000000000000000000000000000000000000000000000000REP       President / Vice-President                              REP Donald J. Trump / Michael R. PencePCT 215                                                01 
00040010010000344000035000290000019000000000000000000000000000000000000000000000000000000000000000000REP       President / Vice-President                              REP Donald J. Trump / Michael R. PencePCT 302                                                01 
00040010011000471000082000362000027000000000000000000000000000000000000000000000000000000000000000000REP       President / Vice-President                              REP Donald J. Trump / Michael R. PencePCT 303                                                01 
00040010012000687000101000538000048000000000000000000000000000000000000000000000000000000000000000000REP       President / Vice-President                              REP Donald J. Trump / Michael R. PencePCT 314                                                01 
00040010013000560000134000408000018000000000000000000000000000000000000000000000000000000000000000000REP       President / Vice-President                              REP Donald J. Trump / Michael R. PencePCT 315                                                01 
00040010014000295000112000161000022000000000000000000000000000000000000000000000000000000000000000000REP       President / Vice-President                              REP Donald J. Trump / Michael R. PencePCT 316                                                01 
00040010015000249000086000145000018000000000000000000000000000000000000000000000000000000000000000000REP       President / Vice-President                              REP Donald J. Trump / Michael R. PencePCT 317                                                01 
00040010016000618000273000297000048000000000000000000000000000000000000000000000000000000000000000000REP       President / Vice-President                              REP Donald J. Trump / Michael R. PencePCT 318                                                01 
00040010017000153000049000099000005000000000000000000000000000000000000000000000000000000000000000000REP       President / Vice-President                              REP Donald J. Trump / Michael R. PencePCT 319                                                01 
00040010018000970000109000790000071000000000000000000000000000000000000000000000000000000000000000000REP       President / Vice-President                              REP Donald J. Trump / Michael R. PencePCT 404                                                01 
00040010019000713000098000561000054000000000000000000000000000000000000000000000000000000000000000000REP       President / Vice-President                              REP Donald J. Trump / Michael R. PencePCT 405                                                01 
00040010020000540000089000420000031000000000000000000000000000000000000000000000000000000000000000000REP       President / Vice-President                              REP Donald J. Trump / Michael R. PencePCT 416                                                01 
00040010021000767000222000505000040000000000000000000000000000000000000000000000000000000000000000000REP       President / Vice-President                              REP Donald J. Trump / Michael R. PencePCT 417                                                01 
00040010022001256000338000839000079000000000000000000000000000000000000000000000000000000000000000000REP       President / Vice-President                              REP Donald J. Trump / Michael R. PencePCT 418                                                01 
00040020001000102000009000080000013000000000000000000000000000000000000000000000000000000000000000000DEM       President / Vice-President                              DEM Joseph R. Biden / Kamala D. HarrisPCT 111                                                01 
00040020002000232000054000142000036000000000000000000000000000000000000000000000000000000000000000000DEM       President / Vice-President                              DEM Joseph R. Biden / Kamala D. HarrisPCT 112                                                01 
00040020003000401000088000247000066000000000000000000000000000000000000000000000000000000000000000000DEM       President / Vice-President                              DEM Joseph R. Biden / Kamala D. HarrisPCT 113                                                01 
00040020004000211000050000133000028000000000000000000000000000000000000000000000000000000000000000000DEM       President / Vice-President                              DEM Joseph R. Biden / Kamala D. HarrisPCT 114                                                01 
00040020005000159000020000107000032000000000000000000000000000000000000000000000000000000000000000000DEM       President / Vice-President                              DEM Joseph R. Biden / Kamala D. HarrisPCT 201                                                01 
00040020006000103000015000065000023000000000000000000000000000000000000000000000000000000000000000000DEM       President / Vice-President                              DEM Joseph R. Biden / Kamala D. HarrisPCT 212                                                01 
00040020007000240000034000172000034000000000000000000000000000000000000000000000000000000000000000000DEM       President / Vice-President                              DEM Joseph R. Biden / Kamala D. HarrisPCT 213                                                01 
00040020008000412000099000250000063000000000000000000000000000000000000000000000000000000000000000000DEM       President / Vice-President                              DEM Joseph R. Biden / Kamala D. HarrisPCT 214                                                01 
00040020009000405000137000209000059000000000000000000000000000000000000000000000000000000000000000000DEM       President / Vice-President                              DEM Joseph R. Biden / Kamala D. HarrisPCT 215                                                01 
00040020010000316000044000217000055000000000000000000000000000000000000000000000000000000000000000000DEM       President / Vice-President                              DEM Joseph R. Biden / Kamala D. HarrisPCT 302                                                01 
00040020011000441000067000313000061000000000000000000000000000000000000000000000000000000000000000000DEM       President / Vice-President                              DEM Joseph R. Biden / Kamala D. HarrisPCT 303                                                01 
00040020012000104000014000072000018000000000000000000000000000000000000000000000000000000000000000000DEM       President / Vice-President                              DEM Joseph R. Biden / Kamala D. HarrisPCT 314                                                01 
00040020013000062000005000047000010000000000000000000000000000000000000000000000000000000000000000000DEM       President / Vice-President                              DEM Joseph R. Biden / Kamala D. HarrisPCT 315                                                01 
00040020014000039000011000023000005000000000000000000000000000000000000000000000000000000000000000000DEM       President / Vice-President                              DEM Joseph R. Biden / Kamala D. HarrisPCT 316                                                01 
00040020015000171000037000095000039000000000000000000000000000000000000000000000000000000000000000000DEM       President / Vice-President                              DEM Joseph R. Biden / Kamala D. HarrisPCT 317                                                01 
00040020016000148000054000074000020000000000000000000000000000000000000000000000000000000000000000000DEM       President / Vice-President                              DEM Joseph R. Biden / Kamala D. HarrisPCT 318                                                01 
00040020017000102000019000058000025000000000000000000000000000000000000000000000000000000000000000000DEM       President / Vice-President                              DEM Joseph R. Biden / Kamala D. HarrisPCT 319                                                01 
00040020018000226000031000176000019000000000000000000000000000000000000000000000000000000000000000000DEM       President / Vice-President                              DEM Joseph R. Biden / Kamala D. HarrisPCT 404                                                01 
00040020019000171000015000125000031000000000000000000000000000000000000000000000000000000000000000000DEM       President / Vice-President                              DEM Joseph R. Biden / Kamala D. HarrisPCT 405                                                01 
00040020020000105000017000075000013000000000000000000000000000000000000000000000000000000000000000000DEM       President / Vice-President                              DEM Joseph R. Biden / Kamala D. HarrisPCT 416                                                01 
00040020021000216000059000120000037000000000000000000000000000000000000000000000000000000000000000000DEM       President / Vice-President                              DEM Joseph R. Biden / Kamala D. HarrisPCT 417                                                01 
00040020022000263000068000159000036000000000000000000000000000000000000000000000000000000000000000000DEM       President / Vice-President                              DEM Joseph R. Biden / Kamala D. HarrisPCT 418                                                01 
00040030001000006000003000003000000000000000000000000000000000000000000000000000000000000000000000000LIB       President / Vice-President                              LIB Jo Jorgensen / Jeremy "Spike" CohePCT 111                                                01 
00040030002000013000008000005000000000000000000000000000000000000000000000000000000000000000000000000LIB       President / Vice-President                              LIB Jo Jorgensen / Jeremy "Spike" CohePCT 112                                                01 
00040030003000023000013000008000002000000000000000000000000000000000000000000000000000000000000000000LIB       President / Vice-President                              LIB Jo Jorgensen / Jeremy "Spike" CohePCT 113                                                01 
00040030004000007000001000005000001000000000000000000000000000000000000000000000000000000000000000000LIB       President / Vice-President                              LIB Jo Jorgensen / Jeremy "Spike" CohePCT 114                                                01 
00040030005000011000003000008000000000000000000000000000000000000000000000000000000000000000000000000LIB       President / Vice-President                              LIB Jo Jorgensen / Jeremy "Spike" CohePCT 201                                                01 
00040030006000003000002000001000000000000000000000000000000000000000000000000000000000000000000000000LIB       President / Vice-President                              LIB Jo Jorgensen / Jeremy "Spike" CohePCT 212                                                01 
00040030007000007000002000005000000000000000000000000000000000000000000000000000000000000000000000000LIB       President / Vice-President                              LIB Jo Jorgensen / Jeremy "Spike" CohePCT 213                                                01 
00040030008000010000000000007000003000000000000000000000000000000000000000000000000000000000000000000LIB       President / Vice-President                              LIB Jo Jorgensen / Jeremy "Spike" CohePCT 214                                                01 
00040030009000010000006000003000001000000000000000000000000000000000000000000000000000000000000000000LIB       President / Vice-President                              LIB Jo Jorgensen / Jeremy "Spike" CohePCT 215                                                01 
00040030010000003000002000001000000000000000000000000000000000000000000000000000000000000000000000000LIB       President / Vice-President                              LIB Jo Jorgensen / Jeremy "Spike" CohePCT 302                                                01 
00040030011000004000000000004000000000000000000000000000000000000000000000000000000000000000000000000LIB       President / Vice-President                              LIB Jo Jorgensen / Jeremy "Spike" CohePCT 303                                                01 
00040030012000002000000000002000000000000000000000000000000000000000000000000000000000000000000000000LIB       President / Vice-President                              LIB Jo Jorgensen / Jeremy "Spike" CohePCT 314                                                01 
00040030013000005000001000003000001000000000000000000000000000000000000000000000000000000000000000000LIB       President / Vice-President                              LIB Jo Jorgensen / Jeremy "Spike" CohePCT 315                                                01 
00040030014000003000002000001000000000000000000000000000000000000000000000000000000000000000000000000LIB       President / Vice-President                              LIB Jo Jorgensen / Jeremy "Spike" CohePCT 316                                                01 
00040030015000002000000000002000000000000000000000000000000000000000000000000000000000000000000000000LIB       President / Vice-President                              LIB Jo Jorgensen / Jeremy "Spike" CohePCT 317                                                01 
00040030016000008000004000004000000000000000000000000000000000000000000000000000000000000000000000000LIB       President / Vice-President                              LIB Jo Jorgensen / Jeremy "Spike" CohePCT 318                                                01 
00040030017000002000000000002000000000000000000000000000000000000000000000000000000000000000000000000LIB       President / Vice-President                              LIB Jo Jorgensen / Jeremy "Spike" CohePCT 319                                                01 
00040030018000014000002000012000000000000000000000000000000000000000000000000000000000000000000000000LIB       President / Vice-President                              LIB Jo Jorgensen / Jeremy "Spike" CohePCT 404                                                01 
00040030019000008000001000007000000000000000000000000000000000000000000000000000000000000000000000000LIB       President / Vice-President                              LIB Jo Jorgensen / Jeremy "Spike" CohePCT 405                                                01 
00040030020000001000000000001000000000000000000000000000000000000000000000000000000000000000000000000LIB       President / Vice-President                              LIB Jo Jorgensen / Jeremy "Spike" CohePCT 416                                                01 
00040030021000003000001000002000000000000000000000000000000000000000000000000000000000000000000000000LIB       President / Vice-President                              LIB Jo Jorgensen / Jeremy "Spike" CohePCT 417                                                01 
00040030022000010000005000003000002000000000000000000000000000000000000000000000000000000000000000000LIB       President / Vice-President                              LIB Jo Jorgensen / Jeremy "Spike" CohePCT 418                                                01 
00040040001000002000000000002000000000000000000000000000000000000000000000000000000000000000000000000GRN       President / Vice-President                              GRN Howie Hawkins / Angela Walker     PCT 111                                                01 
00040040002000006000004000002000000000000000000000000000000000000000000000000000000000000000000000000GRN       President / Vice-President                              GRN Howie Hawkins / Angela Walker     PCT 112                                                01 
00040040003000004000003000001000000000000000000000000000000000000000000000000000000000000000000000000GRN       President / Vice-President                              GRN Howie Hawkins / Angela Walker     PCT 113                                                01 
00040040004000001000000000000000001000000000000000000000000000000000000000000000000000000000000000000GRN       President / Vice-President                              GRN Howie Hawkins / Angela Walker     PCT 114                                                01 
00040040005000004000002000002000000000000000000000000000000000000000000000000000000000000000000000000GRN       President / Vice-President                              GRN Howie Hawkins / Angela Walker     PCT 201                                                01 
00040040006000001000000000001000000000000000000000000000000000000000000000000000000000000000000000000GRN       President / Vice-President                              GRN Howie Hawkins / Angela Walker     PCT 212                                                01 
00040040007000001000001000000000000000000000000000000000000000000000000000000000000000000000000000000GRN       President / Vice-President                              GRN Howie Hawkins / Angela Walker     PCT 213                                                01 
00040040008000001000000000001000000000000000000000000000000000000000000000000000000000000000000000000GRN       President / Vice-President                              GRN Howie Hawkins / Angela Walker     PCT 214                                                01 
00040040009000004000002000001000001000000000000000000000000000000000000000000000000000000000000000000GRN       President / Vice-President                              GRN Howie Hawkins / Angela Walker     PCT 215                                                01 
00040040010000000000000000000000000000000000000000000000000000000000000000000000000000000000000000000GRN       President / Vice-President                              GRN Howie Hawkins / Angela Walker     PCT 302                                                01 
00040040011000005000001000003000001000000000000000000000000000000000000000000000000000000000000000000GRN       President / Vice-President                              GRN Howie Hawkins / Angela Walker     PCT 303                                                01 
00040040012000001000001000000000000000000000000000000000000000000000000000000000000000000000000000000GRN       President / Vice-President                              GRN Howie Hawkins / Angela Walker     PCT 314                                                01 
00040040013000001000001000000000000000000000000000000000000000000000000000000000000000000000000000000GRN       President / Vice-President                              GRN Howie Hawkins / Angela Walker     PCT 315                                                01 
00040040014000002000001000001000000000000000000000000000000000000000000000000000000000000000000000000GRN       President / Vice-President                              GRN Howie Hawkins / Angela Walker     PCT 316                                                01 
00040040015000000000000000000000000000000000000000000000000000000000000000000000000000000000000000000GRN       President / Vice-President                              GRN Howie Hawkins / Angela Walker     PCT 317                                                01 
00040040016000000000000000000000000000000000000000000000000000000000000000000000000000000000000000000GRN       President / Vice-President                              GRN Howie Hawkins / Angela Walker     PCT 318                                                01 
00040040017000000000000000000000000000000000000000000000000000000000000000000000000000000000000000000GRN       President / Vice-President                              GRN Howie Hawkins / Angela Walker     PCT 319                                                01 
00040040018000003000000000003000000000000000000000000000000000000000000000000000000000000000000000000GRN       President / Vice-President                              GRN Howie Hawkins / Angela Walker     PCT 404                                                01 
00040040019000004000001000002000001000000000000000000000000000000000000000000000000000000000000000000GRN       President / Vice-President                              GRN Howie Hawkins / Angela Walker     PCT 405                                                01 
00040040020000003000001000002000000000000000000000000000000000000000000000000000000000000000000000000GRN       President / Vice-President                              GRN Howie Hawkins / Angela Walker     PCT 416                                                01 
00040040021000004000002000002000000000000000000000000000000000000000000000000000000000000000000000000GRN       President / Vice-President                              GRN Howie Hawkins / Angela Walker     PCT 417                                                01 
00040040022000003000002000001000000000000000000000000000000000000000000000000000000000000000000000000GRN       President / Vice-President                              GRN Howie Hawkins / Angela Walker     PCT 418                                                01 
00040060001000002000000000002000000000000000000000000000000000000000000000000000000000000000000000000NON       President / Vice-President                              Write-in                              PCT 111                                                01 
00040060002000003000001000002000000000000000000000000000000000000000000000000000000000000000000000000NON       President / Vice-President                              Write-in                              PCT 112                                                01 
00040060003000005000003000002000000000000000000000000000000000000000000000000000000000000000000000000NON       President / Vice-President                              Write-in                              PCT 113                                                01 
00040060004000001000000000000000001000000000000000000000000000000000000000000000000000000000000000000NON       President / Vice-President                              Write-in                              PCT 114                                                01 
00040060005000000000000000000000000000000000000000000000000000000000000000000000000000000000000000000NON       President / Vice-President                              Write-in                              PCT 201                                                01 
00040060006000000000000000000000000000000000000000000000000000000000000000000000000000000000000000000NON       President / Vice-President                              Write-in                              PCT 212                                                01 
00040060007000004000001000003000000000000000000000000000000000000000000000000000000000000000000000000NON       President / Vice-President                              Write-in                              PCT 213                                                01 
00040060008000003000001000001000001000000000000000000000000000000000000000000000000000000000000000000NON       President / Vice-President                              Write-in                              PCT 214                                                01 
00040060009000000000000000000000000000000000000000000000000000000000000000000000000000000000000000000NON       President / Vice-President                              Write-in                              PCT 215                                                01 
00040060010000001000001000000000000000000000000000000000000000000000000000000000000000000000000000000NON       President / Vice-President                              Write-in                              PCT 302                                                01 
00040060011000002000001000001000000000000000000000000000000000000000000000000000000000000000000000000NON       President / Vice-President                              Write-in                              PCT 303                                                01 
00040060012000000000000000000000000000000000000000000000000000000000000000000000000000000000000000000NON       President / Vice-President                              Write-in                              PCT 314                                                01 
00040060013000000000000000000000000000000000000000000000000000000000000000000000000000000000000000000NON       President / Vice-President                              Write-in                              PCT 315                                                01 
00040060014000001000001000000000000000000000000000000000000000000000000000000000000000000000000000000NON       President / Vice-President                              Write-in                              PCT 316                                                01 
00040060015000001000000000001000000000000000000000000000000000000000000000000000000000000000000000000NON       President / Vice-President                              Write-in                              PCT 317                                                01 
00040060016000000000000000000000000000000000000000000000000000000000000000000000000000000000000000000NON       President / Vice-President                              Write-in                              PCT 318                                                01 
00040060017000002000000000000000002000000000000000000000000000000000000000000000000000000000000000000NON       President / Vice-President                              Write-in                              PCT 319                                                01 
00040060018000001000000000001000000000000000000000000000000000000000000000000000000000000000000000000NON       President / Vice-President                              Write-in                              PCT 404                                                01 
00040060019000000000000000000000000000000000000000000000000000000000000000000000000000000000000000000NON       President / Vice-President                              Write-in                              PCT 405                                                01 
00040060020000000000000000000000000000000000000000000000000000000000000000000000000000000000000000000NON       President / Vice-President                              Write-in                              PCT 416                                                01 
00040060021000000000000000000000000000000000000000000000000000000000000000000000000000000000000000000NON       President / Vice-President                              Write-in                              PCT 417                                                01 
00040060022000002000000000002000000000000000000000000000000000000000000000000000000000000000000000000NON       President / Vice-President                              Write-in                              PCT 418                                                01 
00040070001000000000000000000000000000000000000000000000000000000000000000000000000000000000000000000          President / Vice-President                              OVER VOTES                            PCT 111                                                01 
00040070002000000000000000000000000000000000000000000000000000000000000000000000000000000000000000000          President / Vice-President                              OVER VOTES                            PCT 112                                                01 
00040070003000000000000000000000000000000000000000000000000000000000000000000000000000000000000000000          President / Vice-President                              OVER VOTES                            PCT 113                                                01 
00040070004000000000000000000000000000000000000000000000000000000000000000000000000000000000000000000          President / Vice-President                              OVER VOTES                            PCT 114                                                01 
00040070005000000000000000000000000000000000000000000000000000000000000000000000000000000000000000000          President / Vice-President                              OVER VOTES                            PCT 201                                                01 
00040070006000000000000000000000000000000000000000000000000000000000000000000000000000000000000000000          President / Vice-President                              OVER VOTES                            PCT 212                                                01 
00040070007000000000000000000000000000000000000000000000000000000000000000000000000000000000000000000          President / Vice-President                              OVER VOTES                            PCT 213                                                01 
00040070008000000000000000000000000000000000000000000000000000000000000000000000000000000000000000000          President / Vice-President                              OVER VOTES                            PCT 214                                                01 
00040070009000000000000000000000000000000000000000000000000000000000000000000000000000000000000000000          President / Vice-President                              OVER VOTES                            PCT 215                                                01 
00040070010000000000000000000000000000000000000000000000000000000000000000000000000000000000000000000          President / Vice-President                              OVER VOTES                            PCT 302                                                01 
00040070011000000000000000000000000000000000000000000000000000000000000000000000000000000000000000000          President / Vice-President                              OVER VOTES                            PCT 303                                                01 
00040070012000000000000000000000000000000000000000000000000000000000000000000000000000000000000000000          President / Vice-President                              OVER VOTES                            PCT 314                                                01 
00040070013000000000000000000000000000000000000000000000000000000000000000000000000000000000000000000          President / Vice-President                              OVER VOTES                            PCT 315                                                01 
00040070014000000000000000000000000000000000000000000000000000000000000000000000000000000000000000000          President / Vice-President                              OVER VOTES                            PCT 316                                                01 
00040070015000000000000000000000000000000000000000000000000000000000000000000000000000000000000000000          President / Vice-President                              OVER VOTES                            PCT 317                                                01 
00040070016000000000000000000000000000000000000000000000000000000000000000000000000000000000000000000          President / Vice-President                              OVER VOTES                            PCT 318                                                01 
00040070017000000000000000000000000000000000000000000000000000000000000000000000000000000000000000000          President / Vice-President                              OVER VOTES                            PCT 319                                                01 
00040070018000000000000000000000000000000000000000000000000000000000000000000000000000000000000000000          President / Vice-President                              OVER VOTES                            PCT 404                                                01 
00040070019000000000000000000000000000000000000000000000000000000000000000000000000000000000000000000          President / Vice-President                              OVER VOTES                            PCT 405                                                01 
00040070020000000000000000000000000000000000000000000000000000000000000000000000000000000000000000000          President / Vice-President                              OVER VOTES                            PCT 416                                                01 
00040070021000000000000000000000000000000000000000000000000000000000000000000000000000000000000000000          President / Vice-President                              OVER VOTES                            PCT 417                                                01 
00040070022000000000000000000000000000000000000000000000000000000000000000000000000000000000000000000          President / Vice-President                              OVER VOTES                            PCT 418                                                01 
00040080001000002000000000002000000000000000000000000000000000000000000000000000000000000000000000000          President / Vice-President                              UNDER VOTES                           PCT 111                                                01 
00040080002000002000002000000000000000000000000000000000000000000000000000000000000000000000000000000          President / Vice-President                              UNDER VOTES                           PCT 112                                                01 
00040080003000004000000000004000000000000000000000000000000000000000000000000000000000000000000000000          President / Vice-President                              UNDER VOTES                           PCT 113                                                01 
00040080004000001000000000000000001000000000000000000000000000000000000000000000000000000000000000000          President / Vice-President                              UNDER VOTES                           PCT 114                                                01 
00040080005000002000000000002000000000000000000000000000000000000000000000000000000000000000000000000          President / Vice-President                              UNDER VOTES                           PCT 201                                                01 
00040080006000003000001000002000000000000000000000000000000000000000000000000000000000000000000000000          President / Vice-President                              UNDER VOTES                           PCT 212                                                01 
00040080007000003000001000002000000000000000000000000000000000000000000000000000000000000000000000000          President / Vice-President                              UNDER VOTES                           PCT 213                                                01 
00040080008000009000003000005000001000000000000000000000000000000000000000000000000000000000000000000          President / Vice-President                              UNDER VOTES                           PCT 214                                                01 
00040080009000005000000000005000000000000000000000000000000000000000000000000000000000000000000000000          President / Vice-President                              UNDER VOTES                           PCT 215                                                01 
00040080010000002000000000001000001000000000000000000000000000000000000000000000000000000000000000000          President / Vice-President                              UNDER VOTES                           PCT 302                                                01 
00040080011000001000000000001000000000000000000000000000000000000000000000000000000000000000000000000          President / Vice-President                              UNDER VOTES                           PCT 303                                                01 
00040080012000002000000000002000000000000000000000000000000000000000000000000000000000000000000000000          President / Vice-President                              UNDER VOTES                           PCT 314                                                01 
00040080013000000000000000000000000000000000000000000000000000000000000000000000000000000000000000000          President / Vice-President                              UNDER VOTES                           PCT 315                                                01 
00040080014000000000000000000000000000000000000000000000000000000000000000000000000000000000000000000          President / Vice-President                              UNDER VOTES                           PCT 316                                                01 
00040080015000001000000000001000000000000000000000000000000000000000000000000000000000000000000000000          President / Vice-President                              UNDER VOTES                           PCT 317                                                01 
00040080016000002000001000001000000000000000000000000000000000000000000000000000000000000000000000000          President / Vice-President                              UNDER VOTES                           PCT 318                                                01 
00040080017000000000000000000000000000000000000000000000000000000000000000000000000000000000000000000          President / Vice-President                              UNDER VOTES                           PCT 319                                                01 
00040080018000004000001000002000001000000000000000000000000000000000000000000000000000000000000000000          President / Vice-President                              UNDER VOTES                           PCT 404                                                01 
00040080019000000000000000000000000000000000000000000000000000000000000000000000000000000000000000000          President / Vice-President                              UNDER VOTES                           PCT 405                                                01 
00040080020000003000000000003000000000000000000000000000000000000000000000000000000000000000000000000          President / Vice-President                              UNDER VOTES                           PCT 416                                                01 
00040080021000003000002000001000000000000000000000000000000000000000000000000000000000000000000000000          President / Vice-President                              UNDER VOTES                           PCT 417                                                01 
00040080022000002000001000001000000000000000000000000000000000000000000000000000000000000000000000000          President / Vice-President                              UNDER VOTES                           PCT 418                                                01 
00050010001000536000070000434000032000000000000000000000000000000000000000000000000000000000000000000REP       US Senator                                              REP John Cornyn                       PCT 111                                                01 
00050010002001057000380000618000059000000000000000000000000000000000000000000000000000000000000000000REP       US Senator                                              REP John Cornyn                       PCT 112                                                01 
00050010003001634000395001108000131000000000000000000000000000000000000000000000000000000000000000000REP       US Senator                                              REP John Cornyn                       PCT 113                                                01 
00050010004000855000268000539000048000000000000000000000000000000000000000000000000000000000000000000REP       US Senator                                              REP John Cornyn                       PCT 114                                                01 
00050010005000471000052000368000051000000000000000000000000000000000000000000000000000000000000000000REP       US Senator                                              REP John Cornyn                       PCT 201                                                01 
00050010006000520000060000433000027000000000000000000000000000000000000000000000000000000000000000000REP       US Senator                                              REP John Cornyn                       PCT 212                                                01 
00050010007001136000289000765000082000000000000000000000000000000000000000000000000000000000000000000REP       US Senator                                              REP John Cornyn                       PCT 213                                                01 
00050010008001436000423000929000084000000000000000000000000000000000000000000000000000000000000000000REP       US Senator                                              REP John Cornyn                       PCT 214                                                01 
00050010009001179000426000702000051000000000000000000000000000000000000000000000000000000000000000000REP       US Senator                                              REP John Cornyn                       PCT 215                                                01 
00050010010000345000034000290000021000000000000000000000000000000000000000000000000000000000000000000REP       US Senator                                              REP John Cornyn                       PCT 302                                                01 
00050010011000472000082000361000029000000000000000000000000000000000000000000000000000000000000000000REP       US Senator                                              REP John Cornyn                       PCT 303                                                01 
00050010012000676000097000531000048000000000000000000000000000000000000000000000000000000000000000000REP       US Senator                                              REP John Cornyn                       PCT 314                                                01 
00050010013000549000132000398000019000000000000000000000000000000000000000000000000000000000000000000REP       US Senator                                              REP John Cornyn                       PCT 315                                                01 
00050010014000291000112000157000022000000000000000000000000000000000000000000000000000000000000000000REP       US Senator                                              REP John Cornyn                       PCT 316                                                01 
00050010015000256000084000151000021000000000000000000000000000000000000000000000000000000000000000000REP       US Senator                                              REP John Cornyn                       PCT 317                                                01 
00050010016000612000268000293000051000000000000000000000000000000000000000000000000000000000000000000REP       US Senator                                              REP John Cornyn                       PCT 318                                                01 
00050010017000154000049000099000006000000000000000000000000000000000000000000000000000000000000000000REP       US Senator                                              REP John Cornyn                       PCT 319                                                01 
00050010018000966000109000784000073000000000000000000000000000000000000000000000000000000000000000000REP       US Senator                                              REP John Cornyn                       PCT 404                                                01 
00050010019000704000099000551000054000000000000000000000000000000000000000000000000000000000000000000REP       US Senator                                              REP John Cornyn                       PCT 405                                                01 
00050010020000520000084000404000032000000000000000000000000000000000000000000000000000000000000000000REP       US Senator                                              REP John Cornyn                       PCT 416                                                01 
00050010021000758000220000496000042000000000000000000000000000000000000000000000000000000000000000000REP       US Senator                                              REP John Cornyn                       PCT 417                                                01 
00050010022001240000334000826000080000000000000000000000000000000000000000000000000000000000000000000REP       US Senator                                              REP John Cornyn                       PCT 418                                                01 
00050020001000104000011000080000013000000000000000000000000000000000000000000000000000000000000000000DEM       US Senator                                              DEM Mary "MJ" Hegar                   PCT 111                                                01 
00050020002000234000059000142000033000000000000000000000000000000000000000000000000000000000000000000DEM       US Senator                                              DEM Mary "MJ" Hegar                   PCT 112                                                01 
00050020003000388000084000243000061000000000000000000000000000000000000000000000000000000000000000000DEM       US Senator                                              DEM Mary "MJ" Hegar                   PCT 113                                                01 
00050020004000200000049000127000024000000000000000000000000000000000000000000000000000000000000000000DEM       US Senator                                              DEM Mary "MJ" Hegar                   PCT 114                                                01 
00050020005000146000020000095000031000000000000000000000000000000000000000000000000000000000000000000DEM       US Senator                                              DEM Mary "MJ" Hegar                   PCT 201                                                01 
00050020006000097000013000063000021000000000000000000000000000000000000000000000000000000000000000000DEM       US Senator                                              DEM Mary "MJ" Hegar                   PCT 212                                                01 
00050020007000241000040000166000035000000000000000000000000000000000000000000000000000000000000000000DEM       US Senator                                              DEM Mary "MJ" Hegar                   PCT 213                                                01 
00050020008000394000095000242000057000000000000000000000000000000000000000000000000000000000000000000DEM       US Senator                                              DEM Mary "MJ" Hegar                   PCT 214                                                01 
00050020009000389000133000200000056000000000000000000000000000000000000000000000000000000000000000000DEM       US Senator                                              DEM Mary "MJ" Hegar                   PCT 215                                                01 
00050020010000302000045000204000053000000000000000000000000000000000000000000000000000000000000000000DEM       US Senator                                              DEM Mary "MJ" Hegar                   PCT 302                                                01 
00050020011000422000064000300000058000000000000000000000000000000000000000000000000000000000000000000DEM       US Senator                                              DEM Mary "MJ" Hegar                   PCT 303                                                01 
00050020012000103000014000072000017000000000000000000000000000000000000000000000000000000000000000000DEM       US Senator                                              DEM Mary "MJ" Hegar                   PCT 314                                                01 
00050020013000061000007000045000009000000000000000000000000000000000000000000000000000000000000000000DEM       US Senator                                              DEM Mary "MJ" Hegar                   PCT 315                                                01 
00050020014000037000007000025000005000000000000000000000000000000000000000000000000000000000000000000DEM       US Senator                                              DEM Mary "MJ" Hegar                   PCT 316                                                01 
00050020015000155000036000086000033000000000000000000000000000000000000000000000000000000000000000000DEM       US Senator                                              DEM Mary "MJ" Hegar                   PCT 317                                                01 
00050020016000144000058000070000016000000000000000000000000000000000000000000000000000000000000000000DEM       US Senator                                              DEM Mary "MJ" Hegar                   PCT 318                                                01 
00050020017000097000017000056000024000000000000000000000000000000000000000000000000000000000000000000DEM       US Senator                                              DEM Mary "MJ" Hegar                   PCT 319                                                01 
00050020018000214000026000171000017000000000000000000000000000000000000000000000000000000000000000000DEM       US Senator                                              DEM Mary "MJ" Hegar                   PCT 404                                                01 
00050020019000168000014000124000030000000000000000000000000000000000000000000000000000000000000000000DEM       US Senator                                              DEM Mary "MJ" Hegar                   PCT 405                                                01 
00050020020000107000017000079000011000000000000000000000000000000000000000000000000000000000000000000DEM       US Senator                                              DEM Mary "MJ" Hegar                   PCT 416                                                01 
00050020021000200000059000110000031000000000000000000000000000000000000000000000000000000000000000000DEM       US Senator                                              DEM Mary "MJ" Hegar                   PCT 417                                                01 
00050020022000252000063000156000033000000000000000000000000000000000000000000000000000000000000000000DEM       US Senator                                              DEM Mary "MJ" Hegar                   PCT 418                                                01 
00050030001000006000001000005000000000000000000000000000000000000000000000000000000000000000000000000LIB       US Senator                                              LIB Kerry Douglas McKennon            PCT 111                                                01 
00050030002000017000009000007000001000000000000000000000000000000000000000000000000000000000000000000LIB       US Senator                                              LIB Kerry Douglas McKennon            PCT 112                                                01 
00050030003000033000014000018000001000000000000000000000000000000000000000000000000000000000000000000LIB       US Senator                                              LIB Kerry Douglas McKennon            PCT 113                                                01 
00050030004000009000001000008000000000000000000000000000000000000000000000000000000000000000000000000LIB       US Senator                                              LIB Kerry Douglas McKennon            PCT 114                                                01 
00050030005000018000003000014000001000000000000000000000000000000000000000000000000000000000000000000LIB       US Senator                                              LIB Kerry Douglas McKennon            PCT 201                                                01 
00050030006000006000002000003000001000000000000000000000000000000000000000000000000000000000000000000LIB       US Senator                                              LIB Kerry Douglas McKennon            PCT 212                                                01 
00050030007000012000006000006000000000000000000000000000000000000000000000000000000000000000000000000LIB       US Senator                                              LIB Kerry Douglas McKennon            PCT 213                                                01 
00050030008000017000007000008000002000000000000000000000000000000000000000000000000000000000000000000LIB       US Senator                                              LIB Kerry Douglas McKennon            PCT 214                                                01 
00050030009000024000013000010000001000000000000000000000000000000000000000000000000000000000000000000LIB       US Senator                                              LIB Kerry Douglas McKennon            PCT 215                                                01 
00050030010000008000003000005000000000000000000000000000000000000000000000000000000000000000000000000LIB       US Senator                                              LIB Kerry Douglas McKennon            PCT 302                                                01 
00050030011000011000002000008000001000000000000000000000000000000000000000000000000000000000000000000LIB       US Senator                                              LIB Kerry Douglas McKennon            PCT 303                                                01 
00050030012000007000001000006000000000000000000000000000000000000000000000000000000000000000000000000LIB       US Senator                                              LIB Kerry Douglas McKennon            PCT 314                                                01 
00050030013000014000000000013000001000000000000000000000000000000000000000000000000000000000000000000LIB       US Senator                                              LIB Kerry Douglas McKennon            PCT 315                                                01 
00050030014000004000003000001000000000000000000000000000000000000000000000000000000000000000000000000LIB       US Senator                                              LIB Kerry Douglas McKennon            PCT 316                                                01 
00050030015000000000000000000000000000000000000000000000000000000000000000000000000000000000000000000LIB       US Senator                                              LIB Kerry Douglas McKennon            PCT 317                                                01 
00050030016000012000005000006000001000000000000000000000000000000000000000000000000000000000000000000LIB       US Senator                                              LIB Kerry Douglas McKennon            PCT 318                                                01 
00050030017000003000002000001000000000000000000000000000000000000000000000000000000000000000000000000LIB       US Senator                                              LIB Kerry Douglas McKennon            PCT 319                                                01 
00050030018000023000005000018000000000000000000000000000000000000000000000000000000000000000000000000LIB       US Senator                                              LIB Kerry Douglas McKennon            PCT 404                                                01 
00050030019000010000001000009000000000000000000000000000000000000000000000000000000000000000000000000LIB       US Senator                                              LIB Kerry Douglas McKennon            PCT 405                                                01 
00050030020000009000003000005000001000000000000000000000000000000000000000000000000000000000000000000LIB       US Senator                                              LIB Kerry Douglas McKennon            PCT 416                                                01 
00050030021000014000005000008000001000000000000000000000000000000000000000000000000000000000000000000LIB       US Senator                                              LIB Kerry Douglas McKennon            PCT 417                                                01 
00050030022000020000010000007000003000000000000000000000000000000000000000000000000000000000000000000LIB       US Senator                                              LIB Kerry Douglas McKennon            PCT 418                                                01 
00050040001000004000000000004000000000000000000000000000000000000000000000000000000000000000000000000GRN       US Senator                                              GRN David B. Collins                  PCT 111                                                01 
00050040002000008000007000001000000000000000000000000000000000000000000000000000000000000000000000000GRN       US Senator                                              GRN David B. Collins                  PCT 112                                                01 
00050040003000002000001000001000000000000000000000000000000000000000000000000000000000000000000000000GRN       US Senator                                              GRN David B. Collins                  PCT 113                                                01 
00050040004000009000003000003000003000000000000000000000000000000000000000000000000000000000000000000GRN       US Senator                                              GRN David B. Collins                  PCT 114                                                01 
00050040005000003000000000003000000000000000000000000000000000000000000000000000000000000000000000000GRN       US Senator                                              GRN David B. Collins                  PCT 201                                                01 
00050040006000003000001000002000000000000000000000000000000000000000000000000000000000000000000000000GRN       US Senator                                              GRN David B. Collins                  PCT 212                                                01 
00050040007000004000001000003000000000000000000000000000000000000000000000000000000000000000000000000GRN       US Senator                                              GRN David B. Collins                  PCT 213                                                01 
00050040008000006000002000004000000000000000000000000000000000000000000000000000000000000000000000000GRN       US Senator                                              GRN David B. Collins                  PCT 214                                                01 
00050040009000005000005000000000000000000000000000000000000000000000000000000000000000000000000000000GRN       US Senator                                              GRN David B. Collins                  PCT 215                                                01 
00050040010000001000000000001000000000000000000000000000000000000000000000000000000000000000000000000GRN       US Senator                                              GRN David B. Collins                  PCT 302                                                01 
00050040011000002000001000001000000000000000000000000000000000000000000000000000000000000000000000000GRN       US Senator                                              GRN David B. Collins                  PCT 303                                                01 
00050040012000000000000000000000000000000000000000000000000000000000000000000000000000000000000000000GRN       US Senator                                              GRN David B. Collins                  PCT 314                                                01 
00050040013000001000000000001000000000000000000000000000000000000000000000000000000000000000000000000GRN       US Senator                                              GRN David B. Collins                  PCT 315                                                01 
00050040014000002000002000000000000000000000000000000000000000000000000000000000000000000000000000000GRN       US Senator                                              GRN David B. Collins                  PCT 316                                                01 
00050040015000005000002000002000001000000000000000000000000000000000000000000000000000000000000000000GRN       US Senator                                              GRN David B. Collins                  PCT 317                                                01 
00050040016000000000000000000000000000000000000000000000000000000000000000000000000000000000000000000GRN       US Senator                                              GRN David B. Collins                  PCT 318                                                01 
00050040017000000000000000000000000000000000000000000000000000000000000000000000000000000000000000000GRN       US Senator                                              GRN David B. Collins                  PCT 319                                                01 
00050040018000002000000000002000000000000000000000000000000000000000000000000000000000000000000000000GRN       US Senator                                              GRN David B. Collins                  PCT 404                                                01 
00050040019000004000001000002000001000000000000000000000000000000000000000000000000000000000000000000GRN       US Senator                                              GRN David B. Collins                  PCT 405                                                01 
00050040020000003000001000002000000000000000000000000000000000000000000000000000000000000000000000000GRN       US Senator                                              GRN David B. Collins                  PCT 416                                                01 
00050040021000006000001000003000002000000000000000000000000000000000000000000000000000000000000000000GRN       US Senator                                              GRN David B. Collins                  PCT 417                                                01 
00050040022000008000004000003000001000000000000000000000000000000000000000000000000000000000000000000GRN       US Senator                                              GRN David B. Collins                  PCT 418                                                01 
00050060001000000000000000000000000000000000000000000000000000000000000000000000000000000000000000000NON       US Senator                                              Write-in                              PCT 111                                                01 
00050060002000001000001000000000000000000000000000000000000000000000000000000000000000000000000000000NON       US Senator                                              Write-in                              PCT 112                                                01 
00050060003000000000000000000000000000000000000000000000000000000000000000000000000000000000000000000NON       US Senator                                              Write-in                              PCT 113                                                01 
00050060004000000000000000000000000000000000000000000000000000000000000000000000000000000000000000000NON       US Senator                                              Write-in                              PCT 114                                                01 
00050060005000000000000000000000000000000000000000000000000000000000000000000000000000000000000000000NON       US Senator                                              Write-in                              PCT 201                                                01 
00050060006000000000000000000000000000000000000000000000000000000000000000000000000000000000000000000NON       US Senator                                              Write-in                              PCT 212                                                01 
00050060007000002000000000002000000000000000000000000000000000000000000000000000000000000000000000000NON       US Senator                                              Write-in                              PCT 213                                                01 
00050060008000000000000000000000000000000000000000000000000000000000000000000000000000000000000000000NON       US Senator                                              Write-in                              PCT 214                                                01 
00050060009000000000000000000000000000000000000000000000000000000000000000000000000000000000000000000NON       US Senator                                              Write-in                              PCT 215                                                01 
00050060010000000000000000000000000000000000000000000000000000000000000000000000000000000000000000000NON       US Senator                                              Write-in                              PCT 302                                                01 
00050060011000003000000000003000000000000000000000000000000000000000000000000000000000000000000000000NON       US Senator                                              Write-in                              PCT 303                                                01 
00050060012000000000000000000000000000000000000000000000000000000000000000000000000000000000000000000NON       US Senator                                              Write-in                              PCT 314                                                01 
00050060013000000000000000000000000000000000000000000000000000000000000000000000000000000000000000000NON       US Senator                                              Write-in                              PCT 315                                                01 
00050060014000000000000000000000000000000000000000000000000000000000000000000000000000000000000000000NON       US Senator                                              Write-in                              PCT 316                                                01 
00050060015000000000000000000000000000000000000000000000000000000000000000000000000000000000000000000NON       US Senator                                              Write-in                              PCT 317                                                01 
00050060016000000000000000000000000000000000000000000000000000000000000000000000000000000000000000000NON       US Senator                                              Write-in                              PCT 318                                                01 
00050060017000002000000000001000001000000000000000000000000000000000000000000000000000000000000000000NON       US Senator                                              Write-in                              PCT 319                                                01 
00050060018000000000000000000000000000000000000000000000000000000000000000000000000000000000000000000NON       US Senator                                              Write-in                              PCT 404                                                01 
00050060019000001000000000001000000000000000000000000000000000000000000000000000000000000000000000000NON       US Senator                                              Write-in                              PCT 405                                                01 
00050060020000000000000000000000000000000000000000000000000000000000000000000000000000000000000000000NON       US Senator                                              Write-in                              PCT 416                                                01 
00050060021000000000000000000000000000000000000000000000000000000000000000000000000000000000000000000NON       US Senator                                              Write-in                              PCT 417                                                01 
00050060022000001000001000000000000000000000000000000000000000000000000000000000000000000000000000000NON       US Senator                                              Write-in                              PCT 418                                                01 
00050070001000000000000000000000000000000000000000000000000000000000000000000000000000000000000000000          US Senator                                              OVER VOTES                            PCT 111                                                01 
00050070002000000000000000000000000000000000000000000000000000000000000000000000000000000000000000000          US Senator                                              OVER VOTES                            PCT 112                                                01 
00050070003000000000000000000000000000000000000000000000000000000000000000000000000000000000000000000          US Senator                                              OVER VOTES                            PCT 113                                                01 
00050070004000000000000000000000000000000000000000000000000000000000000000000000000000000000000000000          US Senator                                              OVER VOTES                            PCT 114                                                01 
00050070005000000000000000000000000000000000000000000000000000000000000000000000000000000000000000000          US Senator                                              OVER VOTES                            PCT 201                                                01 
00050070006000000000000000000000000000000000000000000000000000000000000000000000000000000000000000000          US Senator                                              OVER VOTES                            PCT 212                                                01 
00050070007000000000000000000000000000000000000000000000000000000000000000000000000000000000000000000          US Senator                                              OVER VOTES                            PCT 213                                                01 
00050070008000000000000000000000000000000000000000000000000000000000000000000000000000000000000000000          US Senator                                              OVER VOTES                            PCT 214                                                01 
00050070009000000000000000000000000000000000000000000000000000000000000000000000000000000000000000000          US Senator                                              OVER VOTES                            PCT 215                                                01 
00050070010000000000000000000000000000000000000000000000000000000000000000000000000000000000000000000          US Senator                                              OVER VOTES                            PCT 302                                                01 
00050070011000000000000000000000000000000000000000000000000000000000000000000000000000000000000000000          US Senator                                              OVER VOTES                            PCT 303                                                01 
00050070012000000000000000000000000000000000000000000000000000000000000000000000000000000000000000000          US Senator                                              OVER VOTES                            PCT 314                                                01 
00050070013000000000000000000000000000000000000000000000000000000000000000000000000000000000000000000          US Senator                                              OVER VOTES                            PCT 315                                                01 
00050070014000000000000000000000000000000000000000000000000000000000000000000000000000000000000000000          US Senator                                              OVER VOTES                            PCT 316                                                01 
00050070015000000000000000000000000000000000000000000000000000000000000000000000000000000000000000000          US Senator                                              OVER VOTES                            PCT 317                                                01 
00050070016000000000000000000000000000000000000000000000000000000000000000000000000000000000000000000          US Senator                                              OVER VOTES                            PCT 318                                                01 
00050070017000000000000000000000000000000000000000000000000000000000000000000000000000000000000000000          US Senator                                              OVER VOTES                            PCT 319                                                01 
00050070018000000000000000000000000000000000000000000000000000000000000000000000000000000000000000000          US Senator                                              OVER VOTES                            PCT 404                                                01 
00050070019000000000000000000000000000000000000000000000000000000000000000000000000000000000000000000          US Senator                                              OVER VOTES                            PCT 405                                                01 
00050070020000000000000000000000000000000000000000000000000000000000000000000000000000000000000000000          US Senator                                              OVER VOTES                            PCT 416                                                01 
00050070021000000000000000000000000000000000000000000000000000000000000000000000000000000000000000000          US Senator                                              OVER VOTES                            PCT 417                                                01 
00050070022000000000000000000000000000000000000000000000000000000000000000000000000000000000000000000          US Senator                                              OVER VOTES                            PCT 418                                                01 
00050080001000003000000000003000000000000000000000000000000000000000000000000000000000000000000000000          US Senator                                              UNDER VOTES                           PCT 111                                                01 
00050080002000008000004000004000000000000000000000000000000000000000000000000000000000000000000000000          US Senator                                              UNDER VOTES                           PCT 112                                                01 
00050080003000026000007000016000003000000000000000000000000000000000000000000000000000000000000000000          US Senator                                              UNDER VOTES                           PCT 113                                                01 
00050080004000017000007000009000001000000000000000000000000000000000000000000000000000000000000000000          US Senator                                              UNDER VOTES                           PCT 114                                                01 
00050080005000012000001000006000005000000000000000000000000000000000000000000000000000000000000000000          US Senator                                              UNDER VOTES                           PCT 201                                                01 
00050080006000013000000000012000001000000000000000000000000000000000000000000000000000000000000000000          US Senator                                              UNDER VOTES                           PCT 212                                                01 
00050080007000012000001000011000000000000000000000000000000000000000000000000000000000000000000000000          US Senator                                              UNDER VOTES                           PCT 213                                                01 
00050080008000024000007000016000001000000000000000000000000000000000000000000000000000000000000000000          US Senator                                              UNDER VOTES                           PCT 214                                                01 
00050080009000018000006000010000002000000000000000000000000000000000000000000000000000000000000000000          US Senator                                              UNDER VOTES                           PCT 215                                                01 
00050080010000010000000000009000001000000000000000000000000000000000000000000000000000000000000000000          US Senator                                              UNDER VOTES                           PCT 302                                                01 
00050080011000014000002000011000001000000000000000000000000000000000000000000000000000000000000000000          US Senator                                              UNDER VOTES                           PCT 303                                                01 
00050080012000010000004000005000001000000000000000000000000000000000000000000000000000000000000000000          US Senator                                              UNDER VOTES                           PCT 314                                                01 
00050080013000003000002000001000000000000000000000000000000000000000000000000000000000000000000000000          US Senator                                              UNDER VOTES                           PCT 315                                                01 
00050080014000006000003000003000000000000000000000000000000000000000000000000000000000000000000000000          US Senator                                              UNDER VOTES                           PCT 316                                                01 
00050080015000008000001000005000002000000000000000000000000000000000000000000000000000000000000000000          US Senator                                              UNDER VOTES                           PCT 317                                                01 
00050080016000008000001000007000000000000000000000000000000000000000000000000000000000000000000000000          US Senator                                              UNDER VOTES                           PCT 318                                                01 
00050080017000003000000000002000001000000000000000000000000000000000000000000000000000000000000000000          US Senator                                              UNDER VOTES                           PCT 319                                                01 
00050080018000013000003000009000001000000000000000000000000000000000000000000000000000000000000000000          US Senator                                              UNDER VOTES                           PCT 404                                                01 
00050080019000009000000000008000001000000000000000000000000000000000000000000000000000000000000000000          US Senator                                              UNDER VOTES                           PCT 405                                                01 
00050080020000013000002000011000000000000000000000000000000000000000000000000000000000000000000000000          US Senator                                              UNDER VOTES                           PCT 416                                                01 
00050080021000015000001000013000001000000000000000000000000000000000000000000000000000000000000000000          US Senator                                              UNDER VOTES                           PCT 417                                                01 
00050080022000015000002000013000000000000000000000000000000000000000000000000000000000000000000000000          US Senator                                              UNDER VOTES                           PCT 418                                                01 
00060010001000551000074000446000031000000000000000000000000000000000000000000000000000000000000000000REP       US Representative, Dist 1                               REP Louie Gohmert                     PCT 111                                                01 
00060010002001065000386000617000062000000000000000000000000000000000000000000000000000000000000000000REP       US Representative, Dist 1                               REP Louie Gohmert                     PCT 112                                                01 
00060010003001665000406001131000128000000000000000000000000000000000000000000000000000000000000000000REP       US Representative, Dist 1                               REP Louie Gohmert                     PCT 113                                                01 
