00010010001000101          REGISTERED VOTERS - TOTAL                               REGISTERED VOTERS - TOTAL             Precinct 5                                             00 
00010010002000279          REGISTERED VOTERS - TOTAL                               REGISTERED VOTERS - TOTAL             Precinct 6                                             00 
00010010003002203          REGISTERED VOTERS - TOTAL                               REGISTERED VOTERS - TOTAL             Precinct 7                                             00 
00010010004000941          REGISTERED VOTERS - TOTAL                               REGISTERED VOTERS - TOTAL             Precinct 8                                             00 
00010010005000517          REGISTERED VOTERS - TOTAL                               REGISTERED VOTERS - TOTAL             Precinct 9                                             00 
00010010006001213          REGISTERED VOTERS - TOTAL                               REGISTERED VOTERS - TOTAL             Precinct 10                                            00 
00010010007000138          REGISTERED VOTERS - TOTAL                               REGISTERED VOTERS - TOTAL             Precinct 11                                            00 
00010010008001536          REGISTERED VOTERS - TOTAL                               REGISTERED VOTERS - TOTAL             Precinct 12                                            00 
00010010009000477          REGISTERED VOTERS - TOTAL                               REGISTERED VOTERS - TOTAL             Precinct 13                                            00 
00010010010000122          REGISTERED VOTERS - TOTAL                               REGISTERED VOTERS - TOTAL             Precinct 14                                            00 
00010010011001985          REGISTERED VOTERS - TOTAL                               REGISTERED VOTERS - TOTAL             Precinct 15                                            00 
00020010001000085          BALLOTS CAST - TOTAL                                    BALLOTS CAST - TOTAL                  Precinct 5                                             00 
00020010002000186          BALLOTS CAST - TOTAL                                    BALLOTS CAST - TOTAL                  Precinct 6                                             00 
00020010003001511          BALLOTS CAST - TOTAL                                    BALLOTS CAST - TOTAL                  Precinct 7                                             00 
00020010004000560          BALLOTS CAST - TOTAL                                    BALLOTS CAST - TOTAL                  Precinct 8                                             00 
00020010005000391          BALLOTS CAST - TOTAL                                    BALLOTS CAST - TOTAL                  Precinct 9                                             00 
00020010006000856          BALLOTS CAST - TOTAL                                    BALLOTS CAST - TOTAL                  Precinct 10                                            00 
00020010007000108          BALLOTS CAST - TOTAL                                    BALLOTS CAST - TOTAL                  Precinct 11                                            00 
00020010008000885          BALLOTS CAST - TOTAL                                    BALLOTS CAST - TOTAL                  Precinct 12                                            00 
00020010009000337          BALLOTS CAST - TOTAL                                    BALLOTS CAST - TOTAL                  Precinct 13                                            00 
00020010010000093          BALLOTS CAST - TOTAL                                    BALLOTS CAST - TOTAL                  Precinct 14                                            00 
00020010011000885          BALLOTS CAST - TOTAL                                    BALLOTS CAST - TOTAL                  Precinct 15                                            00 
00030010001000000          BALLOTS CAST - BLANK                                    BALLOTS CAST - BLANK                  Precinct 5                                             00 
00030010002000000          BALLOTS CAST - BLANK                                    BALLOTS CAST - BLANK                  Precinct 6                                             00 
00030010003000000          BALLOTS CAST - BLANK                                    BALLOTS CAST - BLANK                  Precinct 7                                             00 
00030010004000000          BALLOTS CAST - BLANK                                    BALLOTS CAST - BLANK                  Precinct 8                                             00 
00030010005000000          BALLOTS CAST - BLANK                                    BALLOTS CAST - BLANK                  Precinct 9                                             00 
00030010006000000          BALLOTS CAST - BLANK                                    BALLOTS CAST - BLANK                  Precinct 10                                            00 
00030010007000000          BALLOTS CAST - BLANK                                    BALLOTS CAST - BLANK                  Precinct 11                                            00 
00030010008000000          BALLOTS CAST - BLANK                                    BALLOTS CAST - BLANK                  Precinct 12                                            00 
00030010009000000          BALLOTS CAST - BLANK                                    BALLOTS CAST - BLANK                  Precinct 13                                            00 
00030010010000000          BALLOTS CAST - BLANK                                    BALLOTS CAST - BLANK                  Precinct 14                                            00 
00030010011000000          BALLOTS CAST - BLANK                                    BALLOTS CAST - BLANK                  Precinct 15                                            00 
00040010001000071REP       President / Vice-President                              REP Donald J. Trump / Michael R. PencePrecinct 5                                             01 
00040010002000168REP       President / Vice-President                              REP Donald J. Trump / Michael R. PencePrecinct 6                                             01 
00040010003001274REP       President / Vice-President                              REP Donald J. Trump / Michael R. PencePrecinct 7                                             01 
00040010004000481REP       President / Vice-President                              REP Donald J. Trump / Michael R. PencePrecinct 8                                             01 
00040010005000360REP       President / Vice-President                              REP Donald J. Trump / Michael R. PencePrecinct 9                                             01 
00040010006000762REP       President / Vice-President                              REP Donald J. Trump / Michael R. PencePrecinct 10                                            01 
00040010007000100REP       President / Vice-President                              REP Donald J. Trump / Michael R. PencePrecinct 11                                            01 
00040010008000726REP       President / Vice-President                              REP Donald J. Trump / Michael R. PencePrecinct 12                                            01 
00040010009000289REP       President / Vice-President                              REP Donald J. Trump / Michael R. PencePrecinct 13                                            01 
00040010010000081REP       President / Vice-President                              REP Donald J. Trump / Michael R. PencePrecinct 14                                            01 
00040010011000671REP       President / Vice-President                              REP Donald J. Trump / Michael R. PencePrecinct 15                                            01 
00040020001000010DEM       President / Vice-President                              DEM Joseph R. Biden / Kamala D. HarrisPrecinct 5                                             01 
00040020002000016DEM       President / Vice-President                              DEM Joseph R. Biden / Kamala D. HarrisPrecinct 6                                             01 
00040020003000213DEM       President / Vice-President                              DEM Joseph R. Biden / Kamala D. HarrisPrecinct 7                                             01 
00040020004000068DEM       President / Vice-President                              DEM Joseph R. Biden / Kamala D. HarrisPrecinct 8                                             01 
00040020005000025DEM       President / Vice-President                              DEM Joseph R. Biden / Kamala D. HarrisPrecinct 9                                             01 
00040020006000085DEM       President / Vice-President                              DEM Joseph R. Biden / Kamala D. HarrisPrecinct 10                                            01 
00040020007000007DEM       President / Vice-President                              DEM Joseph R. Biden / Kamala D. HarrisPrecinct 11                                            01 
00040020008000134DEM       President / Vice-President                              DEM Joseph R. Biden / Kamala D. HarrisPrecinct 12                                            01 
00040020009000046DEM       President / Vice-President                              DEM Joseph R. Biden / Kamala D. HarrisPrecinct 13                                            01 
00040020010000011DEM       President / Vice-President                              DEM Joseph R. Biden / Kamala D. HarrisPrecinct 14                                            01 
00040020011000203DEM       President / Vice-President                              DEM Joseph R. Biden / Kamala D. HarrisPrecinct 15                                            01 
00040030001000003LIB       President / Vice-President                              LIB Jo Jorgensen / Jeremy "Spike" CohePrecinct 5                                             01 
00040030002000001LIB       President / Vice-President                              LIB Jo Jorgensen / Jeremy "Spike" CohePrecinct 6                                             01 
00040030003000014LIB       President / Vice-President                              LIB Jo Jorgensen / Jeremy "Spike" CohePrecinct 7                                             01 
00040030004000005LIB       President / Vice-President                              LIB Jo Jorgensen / Jeremy "Spike" CohePrecinct 8                                             01 
00040030005000003LIB       President / Vice-President                              LIB Jo Jorgensen / Jeremy "Spike" CohePrecinct 9                                             01 
00040030006000002LIB       President / Vice-President                              LIB Jo Jorgensen / Jeremy "Spike" CohePrecinct 10                                            01 
00040030007000001LIB       President / Vice-President                              LIB Jo Jorgensen / Jeremy "Spike" CohePrecinct 11                                            01 
00040030008000016LIB       President / Vice-President                              LIB Jo Jorgensen / Jeremy "Spike" CohePrecinct 12                                            01 
00040030009000001LIB       President / Vice-President                              LIB Jo Jorgensen / Jeremy "Spike" CohePrecinct 13                                            01 
00040030010000000LIB       President / Vice-President                              LIB Jo Jorgensen / Jeremy "Spike" CohePrecinct 14                                            01 
00040030011000007LIB       President / Vice-President                              LIB Jo Jorgensen / Jeremy "Spike" CohePrecinct 15                                            01 
00040040001000000GRN       President / Vice-President                              GRN Howie Hawkins / Angela Walker     Precinct 5                                             01 
00040040002000000GRN       President / Vice-President                              GRN Howie Hawkins / Angela Walker     Precinct 6                                             01 
00040040003000007GRN       President / Vice-President                              GRN Howie Hawkins / Angela Walker     Precinct 7                                             01 
00040040004000003GRN       President / Vice-President                              GRN Howie Hawkins / Angela Walker     Precinct 8                                             01 
00040040005000000GRN       President / Vice-President                              GRN Howie Hawkins / Angela Walker     Precinct 9                                             01 
00040040006000001GRN       President / Vice-President                              GRN Howie Hawkins / Angela Walker     Precinct 10                                            01 
00040040007000000GRN       President / Vice-President                              GRN Howie Hawkins / Angela Walker     Precinct 11                                            01 
00040040008000002GRN       President / Vice-President                              GRN Howie Hawkins / Angela Walker     Precinct 12                                            01 
00040040009000000GRN       President / Vice-President                              GRN Howie Hawkins / Angela Walker     Precinct 13                                            01 
00040040010000000GRN       President / Vice-President                              GRN Howie Hawkins / Angela Walker     Precinct 14                                            01 
00040040011000002GRN       President / Vice-President                              GRN Howie Hawkins / Angela Walker     Precinct 15                                            01 
00050010001000072REP       US Senator                                              REP John Cornyn                       Precinct 5                                             01 
00050010002000166REP       US Senator                                              REP John Cornyn                       Precinct 6                                             01 
00050010003001254REP       US Senator                                              REP John Cornyn                       Precinct 7                                             01 
00050010004000477REP       US Senator                                              REP John Cornyn                       Precinct 8                                             01 
00050010005000348REP       US Senator                                              REP John Cornyn                       Precinct 9                                             01 
00050010006000746REP       US Senator                                              REP John Cornyn                       Precinct 10                                            01 
00050010007000099REP       US Senator                                              REP John Cornyn                       Precinct 11                                            01 
00050010008000712REP       US Senator                                              REP John Cornyn                       Precinct 12                                            01 
00050010009000283REP       US Senator                                              REP John Cornyn                       Precinct 13                                            01 
00050010010000081REP       US Senator                                              REP John Cornyn                       Precinct 14                                            01 
00050010011000632REP       US Senator                                              REP John Cornyn                       Precinct 15                                            01 
00050020001000010DEM       US Senator                                              DEM Mary "MJ" Hegar                   Precinct 5                                             01 
00050020002000017DEM       US Senator                                              DEM Mary "MJ" Hegar                   Precinct 6                                             01 
00050020003000209DEM       US Senator                                              DEM Mary "MJ" Hegar                   Precinct 7                                             01 
00050020004000068DEM       US Senator                                              DEM Mary "MJ" Hegar                   Precinct 8                                             01 
00050020005000029DEM       US Senator                                              DEM Mary "MJ" Hegar                   Precinct 9                                             01 
00050020006000091DEM       US Senator                                              DEM Mary "MJ" Hegar                   Precinct 10                                            01 
00050020007000004DEM       US Senator                                              DEM Mary "MJ" Hegar                   Precinct 11                                            01 
00050020008000127DEM       US Senator                                              DEM Mary "MJ" Hegar                   Precinct 12                                            01 
00050020009000041DEM       US Senator                                              DEM Mary "MJ" Hegar                   Precinct 13                                            01 
00050020010000011DEM       US Senator                                              DEM Mary "MJ" Hegar                   Precinct 14                                            01 
00050020011000198DEM       US Senator                                              DEM Mary "MJ" Hegar                   Precinct 15                                            01 
00050030001000002LIB       US Senator                                              LIB Kerry Douglas McKennon            Precinct 5                                             01 
00050030002000000LIB       US Senator                                              LIB Kerry Douglas McKennon            Precinct 6                                             01 
00050030003000024LIB       US Senator                                              LIB Kerry Douglas McKennon            Precinct 7                                             01 
00050030004000007LIB       US Senator                                              LIB Kerry Douglas McKennon            Precinct 8                                             01 
00050030005000006LIB       US Senator                                              LIB Kerry Douglas McKennon            Precinct 9                                             01 
00050030006000001LIB       US Senator                                              LIB Kerry Douglas McKennon            Precinct 10                                            01 
00050030007000003LIB       US Senator                                              LIB Kerry Douglas McKennon            Precinct 11                                            01 
00050030008000016LIB       US Senator                                              LIB Kerry Douglas McKennon            Precinct 12                                            01 
00050030009000006LIB       US Senator                                              LIB Kerry Douglas McKennon            Precinct 13                                            01 
00050030010000001LIB       US Senator                                              LIB Kerry Douglas McKennon            Precinct 14                                            01 
00050030011000023LIB       US Senator                                              LIB Kerry Douglas McKennon            Precinct 15                                            01 
00050040001000000GRN       US Senator                                              GRN David B. Collins                  Precinct 5                                             01 
00050040002000002GRN       US Senator                                              GRN David B. Collins                  Precinct 6                                             01 
00050040003000003GRN       US Senator                                              GRN David B. Collins                  Precinct 7                                             01 
00050040004000002GRN       US Senator                                              GRN David B. Collins                  Precinct 8                                             01 
00050040005000001GRN       US Senator                                              GRN David B. Collins                  Precinct 9                                             01 
00050040006000004GRN       US Senator                                              GRN David B. Collins                  Precinct 10                                            01 
00050040007000001GRN       US Senator                                              GRN David B. Collins                  Precinct 11                                            01 
00050040008000009GRN       US Senator                                              GRN David B. Collins                  Precinct 12                                            01 
00050040009000001GRN       US Senator                                              GRN David B. Collins                  Precinct 13                                            01 
00050040010000000GRN       US Senator                                              GRN David B. Collins                  Precinct 14                                            01 
00050040011000009GRN       US Senator                                              GRN David B. Collins                  Precinct 15                                            01 
00060010001000074REP       US Representative, Dist 19                              REP Jodey C. Arrington                Precinct 5                                             01 
00060010002000165REP       US Representative, Dist 19                              REP Jodey C. Arrington                Precinct 6                                             01 
00060010003001272REP       US Representative, Dist 19                              REP Jodey C. Arrington                Precinct 7                                             01 
00060010004000484REP       US Representative, Dist 19                              REP Jodey C. Arrington                Precinct 8                                             01 
00060010005000358REP       US Representative, Dist 19                              REP Jodey C. Arrington                Precinct 9                                             01 
00060010006000762REP       US Representative, Dist 19                              REP Jodey C. Arrington                Precinct 10                                            01 
00060010007000102REP       US Representative, Dist 19                              REP Jodey C. Arrington                Precinct 11                                            01 
00060010008000709REP       US Representative, Dist 19                              REP Jodey C. Arrington                Precinct 12                                            01 
00060010009000292REP       US Representative, Dist 19                              REP Jodey C. Arrington                Precinct 13                                            01 
00060010010000081REP       US Representative, Dist 19                              REP Jodey C. Arrington                Precinct 14                                            01 
00060010011000658REP       US Representative, Dist 19                              REP Jodey C. Arrington                Precinct 15                                            01 
00060020001000006DEM       US Representative, Dist 19                              DEM Tom Watson                        Precinct 5                                             01 
00060020002000018DEM       US Representative, Dist 19                              DEM Tom Watson                        Precinct 6                                             01 
00060020003000193DEM       US Representative, Dist 19                              DEM Tom Watson                        Precinct 7                                             01 
00060020004000060DEM       US Representative, Dist 19                              DEM Tom Watson                        Precinct 8                                             01 
00060020005000020DEM       US Representative, Dist 19                              DEM Tom Watson                        Precinct 9                                             01 
00060020006000074DEM       US Representative, Dist 19                              DEM Tom Watson                        Precinct 10                                            01 
00060020007000003DEM       US Representative, Dist 19                              DEM Tom Watson                        Precinct 11                                            01 
00060020008000127DEM       US Representative, Dist 19                              DEM Tom Watson                        Precinct 12                                            01 
00060020009000037DEM       US Representative, Dist 19                              DEM Tom Watson                        Precinct 13                                            01 
00060020010000010DEM       US Representative, Dist 19                              DEM Tom Watson                        Precinct 14                                            01 
00060020011000183DEM       US Representative, Dist 19                              DEM Tom Watson                        Precinct 15                                            01 
00060030001000004LIB       US Representative, Dist 19                              LIB Joe Burnes                        Precinct 5                                             01 
00060030002000002LIB       US Representative, Dist 19                              LIB Joe Burnes                        Precinct 6                                             01 
00060030003000024LIB       US Representative, Dist 19                              LIB Joe Burnes                        Precinct 7                                             01 
00060030004000009LIB       US Representative, Dist 19                              LIB Joe Burnes                        Precinct 8                                             01 
00060030005000008LIB       US Representative, Dist 19                              LIB Joe Burnes                        Precinct 9                                             01 
00060030006000006LIB       US Representative, Dist 19                              LIB Joe Burnes                        Precinct 10                                            01 
00060030007000003LIB       US Representative, Dist 19                              LIB Joe Burnes                        Precinct 11                                            01 
00060030008000030LIB       US Representative, Dist 19                              LIB Joe Burnes                        Precinct 12                                            01 
00060030009000005LIB       US Representative, Dist 19                              LIB Joe Burnes                        Precinct 13                                            01 
00060030010000000LIB       US Representative, Dist 19                              LIB Joe Burnes                        Precinct 14                                            01 
00060030011000025LIB       US Representative, Dist 19                              LIB Joe Burnes                        Precinct 15                                            01 
00070010001000073REP       Railroad Commissioner                                   REP James "Jim" Wright                Precinct 5                                             01 
00070010002000166REP       Railroad Commissioner                                   REP James "Jim" Wright                Precinct 6                                             01 
00070010003001266REP       Railroad Commissioner                                   REP James "Jim" Wright                Precinct 7                                             01 
00070010004000478REP       Railroad Commissioner                                   REP James "Jim" Wright                Precinct 8                                             01 
00070010005000352REP       Railroad Commissioner                                   REP James "Jim" Wright                Precinct 9                                             01 
00070010006000751REP       Railroad Commissioner                                   REP James "Jim" Wright                Precinct 10                                            01 
00070010007000099REP       Railroad Commissioner                                   REP James "Jim" Wright                Precinct 11                                            01 
00070010008000705REP       Railroad Commissioner                                   REP James "Jim" Wright                Precinct 12                                            01 
00070010009000288REP       Railroad Commissioner                                   REP James "Jim" Wright                Precinct 13                                            01 
00070010010000082REP       Railroad Commissioner                                   REP James "Jim" Wright                Precinct 14                                            01 
00070010011000634REP       Railroad Commissioner                                   REP James "Jim" Wright                Precinct 15                                            01 
00070020001000008DEM       Railroad Commissioner                                   DEM Chrysta Castaneda                 Precinct 5                                             01 
00070020002000016DEM       Railroad Commissioner                                   DEM Chrysta Castaneda                 Precinct 6                                             01 
00070020003000186DEM       Railroad Commissioner                                   DEM Chrysta Castaneda                 Precinct 7                                             01 
00070020004000061DEM       Railroad Commissioner                                   DEM Chrysta Castaneda                 Precinct 8                                             01 
00070020005000023DEM       Railroad Commissioner                                   DEM Chrysta Castaneda                 Precinct 9                                             01 
00070020006000078DEM       Railroad Commissioner                                   DEM Chrysta Castaneda                 Precinct 10                                            01 
00070020007000005DEM       Railroad Commissioner                                   DEM Chrysta Castaneda                 Precinct 11                                            01 
00070020008000132DEM       Railroad Commissioner                                   DEM Chrysta Castaneda                 Precinct 12                                            01 
00070020009000041DEM       Railroad Commissioner                                   DEM Chrysta Castaneda                 Precinct 13                                            01 
00070020010000010DEM       Railroad Commissioner                                   DEM Chrysta Castaneda                 Precinct 14                                            01 
00070020011000196DEM       Railroad Commissioner                                   DEM Chrysta Castaneda                 Precinct 15                                            01 
00070030001000003LIB       Railroad Commissioner                                   LIB Matt Sterett                      Precinct 5                                             01 
00070030002000000LIB       Railroad Commissioner                                   LIB Matt Sterett                      Precinct 6                                             01 
00070030003000029LIB       Railroad Commissioner                                   LIB Matt Sterett                      Precinct 7                                             01 
00070030004000006LIB       Railroad Commissioner                                   LIB Matt Sterett                      Precinct 8                                             01 
00070030005000011LIB       Railroad Commissioner                                   LIB Matt Sterett                      Precinct 9                                             01 
00070030006000007LIB       Railroad Commissioner                                   LIB Matt Sterett                      Precinct 10                                            01 
00070030007000003LIB       Railroad Commissioner                                   LIB Matt Sterett                      Precinct 11                                            01 
00070030008000021LIB       Railroad Commissioner                                   LIB Matt Sterett                      Precinct 12                                            01 
00070030009000003LIB       Railroad Commissioner                                   LIB Matt Sterett                      Precinct 13                                            01 
00070030010000001LIB       Railroad Commissioner                                   LIB Matt Sterett                      Precinct 14                                            01 
00070030011000022LIB       Railroad Commissioner                                   LIB Matt Sterett                      Precinct 15                                            01 
00070040001000000GRN       Railroad Commissioner                                   GRN Katija "Kat" Gruene               Precinct 5                                             01 
00070040002000000GRN       Railroad Commissioner                                   GRN Katija "Kat" Gruene               Precinct 6                                             01 
00070040003000005GRN       Railroad Commissioner                                   GRN Katija "Kat" Gruene               Precinct 7                                             01 
00070040004000004GRN       Railroad Commissioner                                   GRN Katija "Kat" Gruene               Precinct 8                                             01 
00070040005000002GRN       Railroad Commissioner                                   GRN Katija "Kat" Gruene               Precinct 9                                             01 
00070040006000001GRN       Railroad Commissioner                                   GRN Katija "Kat" Gruene               Precinct 10                                            01 
00070040007000001GRN       Railroad Commissioner                                   GRN Katija "Kat" Gruene               Precinct 11                                            01 
00070040008000002GRN       Railroad Commissioner                                   GRN Katija "Kat" Gruene               Precinct 12                                            01 
00070040009000001GRN       Railroad Commissioner                                   GRN Katija "Kat" Gruene               Precinct 13                                            01 
00070040010000000GRN       Railroad Commissioner                                   GRN Katija "Kat" Gruene               Precinct 14                                            01 
00070040011000010GRN       Railroad Commissioner                                   GRN Katija "Kat" Gruene               Precinct 15                                            01 
00080010001000070REP       Chief Justice, Supreme Court                            REP Nathan Hecht                      Precinct 5                                             01 
00080010002000163REP       Chief Justice, Supreme Court                            REP Nathan Hecht                      Precinct 6                                             01 
00080010003001248REP       Chief Justice, Supreme Court                            REP Nathan Hecht                      Precinct 7                                             01 
00080010004000467REP       Chief Justice, Supreme Court                            REP Nathan Hecht                      Precinct 8                                             01 
00080010005000353REP       Chief Justice, Supreme Court                            REP Nathan Hecht                      Precinct 9                                             01 
00080010006000741REP       Chief Justice, Supreme Court                            REP Nathan Hecht                      Precinct 10                                            01 
00080010007000099REP       Chief Justice, Supreme Court                            REP Nathan Hecht                      Precinct 11                                            01 
00080010008000691REP       Chief Justice, Supreme Court                            REP Nathan Hecht                      Precinct 12                                            01 
00080010009000282REP       Chief Justice, Supreme Court                            REP Nathan Hecht                      Precinct 13                                            01 
00080010010000080REP       Chief Justice, Supreme Court                            REP Nathan Hecht                      Precinct 14                                            01 
00080010011000633REP       Chief Justice, Supreme Court                            REP Nathan Hecht                      Precinct 15                                            01 
00080020001000010DEM       Chief Justice, Supreme Court                            DEM Amy Clark Meachum                 Precinct 5                                             01 
00080020002000020DEM       Chief Justice, Supreme Court                            DEM Amy Clark Meachum                 Precinct 6                                             01 
00080020003000208DEM       Chief Justice, Supreme Court                            DEM Amy Clark Meachum                 Precinct 7                                             01 
00080020004000073DEM       Chief Justice, Supreme Court                            DEM Amy Clark Meachum                 Precinct 8                                             01 
00080020005000023DEM       Chief Justice, Supreme Court                            DEM Amy Clark Meachum                 Precinct 9                                             01 
00080020006000087DEM       Chief Justice, Supreme Court                            DEM Amy Clark Meachum                 Precinct 10                                            01 
00080020007000004DEM       Chief Justice, Supreme Court                            DEM Amy Clark Meachum                 Precinct 11                                            01 
00080020008000148DEM       Chief Justice, Supreme Court                            DEM Amy Clark Meachum                 Precinct 12                                            01 
00080020009000044DEM       Chief Justice, Supreme Court                            DEM Amy Clark Meachum                 Precinct 13                                            01 
00080020010000011DEM       Chief Justice, Supreme Court                            DEM Amy Clark Meachum                 Precinct 14                                            01 
00080020011000200DEM       Chief Justice, Supreme Court                            DEM Amy Clark Meachum                 Precinct 15                                            01 
00080030001000004LIB       Chief Justice, Supreme Court                            LIB Mark Ash                          Precinct 5                                             01 
00080030002000001LIB       Chief Justice, Supreme Court                            LIB Mark Ash                          Precinct 6                                             01 
00080030003000030LIB       Chief Justice, Supreme Court                            LIB Mark Ash                          Precinct 7                                             01 
00080030004000009LIB       Chief Justice, Supreme Court                            LIB Mark Ash                          Precinct 8                                             01 
00080030005000011LIB       Chief Justice, Supreme Court                            LIB Mark Ash                          Precinct 9                                             01 
00080030006000011LIB       Chief Justice, Supreme Court                            LIB Mark Ash                          Precinct 10                                            01 
00080030007000004LIB       Chief Justice, Supreme Court                            LIB Mark Ash                          Precinct 11                                            01 
00080030008000022LIB       Chief Justice, Supreme Court                            LIB Mark Ash                          Precinct 12                                            01 
00080030009000004LIB       Chief Justice, Supreme Court                            LIB Mark Ash                          Precinct 13                                            01 
00080030010000001LIB       Chief Justice, Supreme Court                            LIB Mark Ash                          Precinct 14                                            01 
00080030011000027LIB       Chief Justice, Supreme Court                            LIB Mark Ash                          Precinct 15                                            01 
00090010001000074REP       Justice, Supreme Court, Pl 6                            REP Jane Bland                        Precinct 5                                             01 
00090010002000167REP       Justice, Supreme Court, Pl 6                            REP Jane Bland                        Precinct 6                                             01 
00090010003001287REP       Justice, Supreme Court, Pl 6                            REP Jane Bland                        Precinct 7                                             01 
00090010004000482REP       Justice, Supreme Court, Pl 6                            REP Jane Bland                        Precinct 8                                             01 
00090010005000360REP       Justice, Supreme Court, Pl 6                            REP Jane Bland                        Precinct 9                                             01 
00090010006000756REP       Justice, Supreme Court, Pl 6                            REP Jane Bland                        Precinct 10                                            01 
00090010007000101REP       Justice, Supreme Court, Pl 6                            REP Jane Bland                        Precinct 11                                            01 
00090010008000720REP       Justice, Supreme Court, Pl 6                            REP Jane Bland                        Precinct 12                                            01 
00090010009000282REP       Justice, Supreme Court, Pl 6                            REP Jane Bland                        Precinct 13                                            01 
00090010010000082REP       Justice, Supreme Court, Pl 6                            REP Jane Bland                        Precinct 14                                            01 
00090010011000656REP       Justice, Supreme Court, Pl 6                            REP Jane Bland                        Precinct 15                                            01 
00090020001000010DEM       Justice, Supreme Court, Pl 6                            DEM Kathy Cheng                       Precinct 5                                             01 
00090020002000017DEM       Justice, Supreme Court, Pl 6                            DEM Kathy Cheng                       Precinct 6                                             01 
00090020003000196DEM       Justice, Supreme Court, Pl 6                            DEM Kathy Cheng                       Precinct 7                                             01 
00090020004000068DEM       Justice, Supreme Court, Pl 6                            DEM Kathy Cheng                       Precinct 8                                             01 
00090020005000029DEM       Justice, Supreme Court, Pl 6                            DEM Kathy Cheng                       Precinct 9                                             01 
00090020006000081DEM       Justice, Supreme Court, Pl 6                            DEM Kathy Cheng                       Precinct 10                                            01 
00090020007000005DEM       Justice, Supreme Court, Pl 6                            DEM Kathy Cheng                       Precinct 11                                            01 
00090020008000140DEM       Justice, Supreme Court, Pl 6                            DEM Kathy Cheng                       Precinct 12                                            01 
00090020009000046DEM       Justice, Supreme Court, Pl 6                            DEM Kathy Cheng                       Precinct 13                                            01 
00090020010000011DEM       Justice, Supreme Court, Pl 6                            DEM Kathy Cheng                       Precinct 14                                            01 
00090020011000202DEM       Justice, Supreme Court, Pl 6                            DEM Kathy Cheng                       Precinct 15                                            01 
00100010001000072REP       Justice, Supreme Court, Pl 7                            REP Jeff Boyd                         Precinct 5                                             01 
00100010002000165REP       Justice, Supreme Court, Pl 7                            REP Jeff Boyd                         Precinct 6                                             01 
00100010003001254REP       Justice, Supreme Court, Pl 7                            REP Jeff Boyd                         Precinct 7                                             01 
00100010004000474REP       Justice, Supreme Court, Pl 7                            REP Jeff Boyd                         Precinct 8                                             01 
00100010005000352REP       Justice, Supreme Court, Pl 7                            REP Jeff Boyd                         Precinct 9                                             01 
00100010006000749REP       Justice, Supreme Court, Pl 7                            REP Jeff Boyd                         Precinct 10                                            01 
00100010007000098REP       Justice, Supreme Court, Pl 7                            REP Jeff Boyd                         Precinct 11                                            01 
00100010008000702REP       Justice, Supreme Court, Pl 7                            REP Jeff Boyd                         Precinct 12                                            01 
00100010009000278REP       Justice, Supreme Court, Pl 7                            REP Jeff Boyd                         Precinct 13                                            01 
00100010010000083REP       Justice, Supreme Court, Pl 7                            REP Jeff Boyd                         Precinct 14                                            01 
00100010011000633REP       Justice, Supreme Court, Pl 7                            REP Jeff Boyd                         Precinct 15                                            01 
00100020001000009DEM       Justice, Supreme Court, Pl 7                            DEM Staci Williams                    Precinct 5                                             01 
00100020002000019DEM       Justice, Supreme Court, Pl 7                            DEM Staci Williams                    Precinct 6                                             01 
00100020003000207DEM       Justice, Supreme Court, Pl 7                            DEM Staci Williams                    Precinct 7                                             01 
00100020004000065DEM       Justice, Supreme Court, Pl 7                            DEM Staci Williams                    Precinct 8                                             01 
00100020005000026DEM       Justice, Supreme Court, Pl 7                            DEM Staci Williams                    Precinct 9                                             01 
00100020006000082DEM       Justice, Supreme Court, Pl 7                            DEM Staci Williams                    Precinct 10                                            01 
00100020007000006DEM       Justice, Supreme Court, Pl 7                            DEM Staci Williams                    Precinct 11                                            01 
00100020008000139DEM       Justice, Supreme Court, Pl 7                            DEM Staci Williams                    Precinct 12                                            01 
00100020009000046DEM       Justice, Supreme Court, Pl 7                            DEM Staci Williams                    Precinct 13                                            01 
00100020010000009DEM       Justice, Supreme Court, Pl 7                            DEM Staci Williams                    Precinct 14                                            01 
00100020011000208DEM       Justice, Supreme Court, Pl 7                            DEM Staci Williams                    Precinct 15                                            01 
00100030001000003LIB       Justice, Supreme Court, Pl 7                            LIB William Bryan Strange III         Precinct 5                                             01 
00100030002000000LIB       Justice, Supreme Court, Pl 7                            LIB William Bryan Strange III         Precinct 6                                             01 
00100030003000027LIB       Justice, Supreme Court, Pl 7                            LIB William Bryan Strange III         Precinct 7                                             01 
00100030004000010LIB       Justice, Supreme Court, Pl 7                            LIB William Bryan Strange III         Precinct 8                                             01 
00100030005000009LIB       Justice, Supreme Court, Pl 7                            LIB William Bryan Strange III         Precinct 9                                             01 
00100030006000005LIB       Justice, Supreme Court, Pl 7                            LIB William Bryan Strange III         Precinct 10                                            01 
00100030007000003LIB       Justice, Supreme Court, Pl 7                            LIB William Bryan Strange III         Precinct 11                                            01 
00100030008000022LIB       Justice, Supreme Court, Pl 7                            LIB William Bryan Strange III         Precinct 12                                            01 
00100030009000003LIB       Justice, Supreme Court, Pl 7                            LIB William Bryan Strange III         Precinct 13                                            01 
00100030010000001LIB       Justice, Supreme Court, Pl 7                            LIB William Bryan Strange III         Precinct 14                                            01 
00100030011000020LIB       Justice, Supreme Court, Pl 7                            LIB William Bryan Strange III         Precinct 15                                            01 
00110010001000071REP       Justice, Supreme Court, Pl 8                            REP Brett Busby                       Precinct 5                                             01 
00110010002000164REP       Justice, Supreme Court, Pl 8                            REP Brett Busby                       Precinct 6                                             01 
00110010003001264REP       Justice, Supreme Court, Pl 8                            REP Brett Busby                       Precinct 7                                             01 
00110010004000475REP       Justice, Supreme Court, Pl 8                            REP Brett Busby                       Precinct 8                                             01 
00110010005000353REP       Justice, Supreme Court, Pl 8                            REP Brett Busby                       Precinct 9                                             01 
00110010006000740REP       Justice, Supreme Court, Pl 8                            REP Brett Busby                       Precinct 10                                            01 
00110010007000100REP       Justice, Supreme Court, Pl 8                            REP Brett Busby                       Precinct 11                                            01 
00110010008000702REP       Justice, Supreme Court, Pl 8                            REP Brett Busby                       Precinct 12                                            01 
00110010009000278REP       Justice, Supreme Court, Pl 8                            REP Brett Busby                       Precinct 13                                            01 
00110010010000084REP       Justice, Supreme Court, Pl 8                            REP Brett Busby                       Precinct 14                                            01 
00110010011000633REP       Justice, Supreme Court, Pl 8                            REP Brett Busby                       Precinct 15                                            01 
00110020001000011DEM       Justice, Supreme Court, Pl 8                            DEM Gisela D. Triana                  Precinct 5                                             01 
00110020002000019DEM       Justice, Supreme Court, Pl 8                            DEM Gisela D. Triana                  Precinct 6                                             01 
00110020003000196DEM       Justice, Supreme Court, Pl 8                            DEM Gisela D. Triana                  Precinct 7                                             01 
00110020004000064DEM       Justice, Supreme Court, Pl 8                            DEM Gisela D. Triana                  Precinct 8                                             01 
00110020005000025DEM       Justice, Supreme Court, Pl 8                            DEM Gisela D. Triana                  Precinct 9                                             01 
00110020006000091DEM       Justice, Supreme Court, Pl 8                            DEM Gisela D. Triana                  Precinct 10                                            01 
00110020007000003DEM       Justice, Supreme Court, Pl 8                            DEM Gisela D. Triana                  Precinct 11                                            01 
00110020008000138DEM       Justice, Supreme Court, Pl 8                            DEM Gisela D. Triana                  Precinct 12                                            01 
00110020009000045DEM       Justice, Supreme Court, Pl 8                            DEM Gisela D. Triana                  Precinct 13                                            01 
00110020010000009DEM       Justice, Supreme Court, Pl 8                            DEM Gisela D. Triana                  Precinct 14                                            01 
00110020011000202DEM       Justice, Supreme Court, Pl 8                            DEM Gisela D. Triana                  Precinct 15                                            01 
00110030001000002LIB       Justice, Supreme Court, Pl 8                            LIB Tom Oxford                        Precinct 5                                             01 
00110030002000000LIB       Justice, Supreme Court, Pl 8                            LIB Tom Oxford                        Precinct 6                                             01 
00110030003000032LIB       Justice, Supreme Court, Pl 8                            LIB Tom Oxford                        Precinct 7                                             01 
00110030004000011LIB       Justice, Supreme Court, Pl 8                            LIB Tom Oxford                        Precinct 8                                             01 
00110030005000010LIB       Justice, Supreme Court, Pl 8                            LIB Tom Oxford                        Precinct 9                                             01 
00110030006000005LIB       Justice, Supreme Court, Pl 8                            LIB Tom Oxford                        Precinct 10                                            01 
00110030007000004LIB       Justice, Supreme Court, Pl 8                            LIB Tom Oxford                        Precinct 11                                            01 
00110030008000020LIB       Justice, Supreme Court, Pl 8                            LIB Tom Oxford                        Precinct 12                                            01 
00110030009000005LIB       Justice, Supreme Court, Pl 8                            LIB Tom Oxford                        Precinct 13                                            01 
00110030010000000LIB       Justice, Supreme Court, Pl 8                            LIB Tom Oxford                        Precinct 14                                            01 
00110030011000021LIB       Justice, Supreme Court, Pl 8                            LIB Tom Oxford                        Precinct 15                                            01 
00120010001000074REP       Judge, Ct of Crim App, Pl 3                             REP Bert Richardson                   Precinct 5                                             01 
00120010002000164REP       Judge, Ct of Crim App, Pl 3                             REP Bert Richardson                   Precinct 6                                             01 
00120010003001280REP       Judge, Ct of Crim App, Pl 3                             REP Bert Richardson                   Precinct 7                                             01 
00120010004000478REP       Judge, Ct of Crim App, Pl 3                             REP Bert Richardson                   Precinct 8                                             01 
00120010005000359REP       Judge, Ct of Crim App, Pl 3                             REP Bert Richardson                   Precinct 9                                             01 
00120010006000756REP       Judge, Ct of Crim App, Pl 3                             REP Bert Richardson                   Precinct 10                                            01 
00120010007000103REP       Judge, Ct of Crim App, Pl 3                             REP Bert Richardson                   Precinct 11                                            01 
00120010008000709REP       Judge, Ct of Crim App, Pl 3                             REP Bert Richardson                   Precinct 12                                            01 
00120010009000277REP       Judge, Ct of Crim App, Pl 3                             REP Bert Richardson                   Precinct 13                                            01 
00120010010000081REP       Judge, Ct of Crim App, Pl 3                             REP Bert Richardson                   Precinct 14                                            01 
00120010011000651REP       Judge, Ct of Crim App, Pl 3                             REP Bert Richardson                   Precinct 15                                            01 
00120020001000010DEM       Judge, Ct of Crim App, Pl 3                             DEM Elizabeth Davis Frizell           Precinct 5                                             01 
00120020002000018DEM       Judge, Ct of Crim App, Pl 3                             DEM Elizabeth Davis Frizell           Precinct 6                                             01 
00120020003000202DEM       Judge, Ct of Crim App, Pl 3                             DEM Elizabeth Davis Frizell           Precinct 7                                             01 
00120020004000073DEM       Judge, Ct of Crim App, Pl 3                             DEM Elizabeth Davis Frizell           Precinct 8                                             01 
00120020005000029DEM       Judge, Ct of Crim App, Pl 3                             DEM Elizabeth Davis Frizell           Precinct 9                                             01 
00120020006000084DEM       Judge, Ct of Crim App, Pl 3                             DEM Elizabeth Davis Frizell           Precinct 10                                            01 
00120020007000002DEM       Judge, Ct of Crim App, Pl 3                             DEM Elizabeth Davis Frizell           Precinct 11                                            01 
00120020008000150DEM       Judge, Ct of Crim App, Pl 3                             DEM Elizabeth Davis Frizell           Precinct 12                                            01 
00120020009000051DEM       Judge, Ct of Crim App, Pl 3                             DEM Elizabeth Davis Frizell           Precinct 13                                            01 
00120020010000011DEM       Judge, Ct of Crim App, Pl 3                             DEM Elizabeth Davis Frizell           Precinct 14                                            01 
00120020011000206DEM       Judge, Ct of Crim App, Pl 3                             DEM Elizabeth Davis Frizell           Precinct 15                                            01 
00130010001000073REP       Judge, Ct of Crim App, Pl 4                             REP Kevin Patrick Yeary               Precinct 5                                             01 
00130010002000164REP       Judge, Ct of Crim App, Pl 4                             REP Kevin Patrick Yeary               Precinct 6                                             01 
00130010003001290REP       Judge, Ct of Crim App, Pl 4                             REP Kevin Patrick Yeary               Precinct 7                                             01 
00130010004000476REP       Judge, Ct of Crim App, Pl 4                             REP Kevin Patrick Yeary               Precinct 8                                             01 
00130010005000358REP       Judge, Ct of Crim App, Pl 4                             REP Kevin Patrick Yeary               Precinct 9                                             01 
00130010006000749REP       Judge, Ct of Crim App, Pl 4                             REP Kevin Patrick Yeary               Precinct 10                                            01 
00130010007000101REP       Judge, Ct of Crim App, Pl 4                             REP Kevin Patrick Yeary               Precinct 11                                            01 
00130010008000715REP       Judge, Ct of Crim App, Pl 4                             REP Kevin Patrick Yeary               Precinct 12                                            01 
00130010009000283REP       Judge, Ct of Crim App, Pl 4                             REP Kevin Patrick Yeary               Precinct 13                                            01 
00130010010000080REP       Judge, Ct of Crim App, Pl 4                             REP Kevin Patrick Yeary               Precinct 14                                            01 
00130010011000652REP       Judge, Ct of Crim App, Pl 4                             REP Kevin Patrick Yeary               Precinct 15                                            01 
00130020001000010DEM       Judge, Ct of Crim App, Pl 4                             DEM Tina Clinton                      Precinct 5                                             01 
00130020002000019DEM       Judge, Ct of Crim App, Pl 4                             DEM Tina Clinton                      Precinct 6                                             01 
00130020003000193DEM       Judge, Ct of Crim App, Pl 4                             DEM Tina Clinton                      Precinct 7                                             01 
00130020004000074DEM       Judge, Ct of Crim App, Pl 4                             DEM Tina Clinton                      Precinct 8                                             01 
00130020005000031DEM       Judge, Ct of Crim App, Pl 4                             DEM Tina Clinton                      Precinct 9                                             01 
00130020006000086DEM       Judge, Ct of Crim App, Pl 4                             DEM Tina Clinton                      Precinct 10                                            01 
00130020007000006DEM       Judge, Ct of Crim App, Pl 4                             DEM Tina Clinton                      Precinct 11                                            01 
00130020008000141DEM       Judge, Ct of Crim App, Pl 4                             DEM Tina Clinton                      Precinct 12                                            01 
00130020009000042DEM       Judge, Ct of Crim App, Pl 4                             DEM Tina Clinton                      Precinct 13                                            01 
00130020010000012DEM       Judge, Ct of Crim App, Pl 4                             DEM Tina Clinton                      Precinct 14                                            01 
00130020011000204DEM       Judge, Ct of Crim App, Pl 4                             DEM Tina Clinton                      Precinct 15                                            01 
00140010001000074REP       Judge, Ct of Crim App, Pl 9                             REP David Newell                      Precinct 5                                             01 
00140010002000166REP       Judge, Ct of Crim App, Pl 9                             REP David Newell                      Precinct 6                                             01 
00140010003001281REP       Judge, Ct of Crim App, Pl 9                             REP David Newell                      Precinct 7                                             01 
00140010004000476REP       Judge, Ct of Crim App, Pl 9                             REP David Newell                      Precinct 8                                             01 
00140010005000357REP       Judge, Ct of Crim App, Pl 9                             REP David Newell                      Precinct 9                                             01 
00140010006000748REP       Judge, Ct of Crim App, Pl 9                             REP David Newell                      Precinct 10                                            01 
00140010007000101REP       Judge, Ct of Crim App, Pl 9                             REP David Newell                      Precinct 11                                            01 
00140010008000710REP       Judge, Ct of Crim App, Pl 9                             REP David Newell                      Precinct 12                                            01 
00140010009000280REP       Judge, Ct of Crim App, Pl 9                             REP David Newell                      Precinct 13                                            01 
00140010010000081REP       Judge, Ct of Crim App, Pl 9                             REP David Newell                      Precinct 14                                            01 
00140010011000652REP       Judge, Ct of Crim App, Pl 9                             REP David Newell                      Precinct 15                                            01 
00140020001000010DEM       Judge, Ct of Crim App, Pl 9                             DEM Brandon Birmingham                Precinct 5                                             01 
00140020002000016DEM       Judge, Ct of Crim App, Pl 9                             DEM Brandon Birmingham                Precinct 6                                             01 
00140020003000198DEM       Judge, Ct of Crim App, Pl 9                             DEM Brandon Birmingham                Precinct 7                                             01 
00140020004000074DEM       Judge, Ct of Crim App, Pl 9                             DEM Brandon Birmingham                Precinct 8                                             01 
00140020005000030DEM       Judge, Ct of Crim App, Pl 9                             DEM Brandon Birmingham                Precinct 9                                             01 
00140020006000086DEM       Judge, Ct of Crim App, Pl 9                             DEM Brandon Birmingham                Precinct 10                                            01 
00140020007000005DEM       Judge, Ct of Crim App, Pl 9                             DEM Brandon Birmingham                Precinct 11                                            01 
00140020008000144DEM       Judge, Ct of Crim App, Pl 9                             DEM Brandon Birmingham                Precinct 12                                            01 
00140020009000046DEM       Judge, Ct of Crim App, Pl 9                             DEM Brandon Birmingham                Precinct 13                                            01 
00140020010000010DEM       Judge, Ct of Crim App, Pl 9                             DEM Brandon Birmingham                Precinct 14                                            01 
00140020011000203DEM       Judge, Ct of Crim App, Pl 9                             DEM Brandon Birmingham                Precinct 15                                            01 
00150010001000075REP       Member, State BoE, Dist 15                              REP Jay Johnson                       Precinct 5                                             01 
00150010002000165REP       Member, State BoE, Dist 15                              REP Jay Johnson                       Precinct 6                                             01 
00150010003001278REP       Member, State BoE, Dist 15                              REP Jay Johnson                       Precinct 7                                             01 
00150010004000479REP       Member, State BoE, Dist 15                              REP Jay Johnson                       Precinct 8                                             01 
00150010005000363REP       Member, State BoE, Dist 15                              REP Jay Johnson                       Precinct 9                                             01 
00150010006000748REP       Member, State BoE, Dist 15                              REP Jay Johnson                       Precinct 10                                            01 
00150010007000100REP       Member, State BoE, Dist 15                              REP Jay Johnson                       Precinct 11                                            01 
00150010008000706REP       Member, State BoE, Dist 15                              REP Jay Johnson                       Precinct 12                                            01 
00150010009000280REP       Member, State BoE, Dist 15                              REP Jay Johnson                       Precinct 13                                            01 
00150010010000081REP       Member, State BoE, Dist 15                              REP Jay Johnson                       Precinct 14                                            01 
00150010011000651REP       Member, State BoE, Dist 15                              REP Jay Johnson                       Precinct 15                                            01 
00150020001000009DEM       Member, State BoE, Dist 15                              DEM John Betancourt                   Precinct 5                                             01 
00150020002000017DEM       Member, State BoE, Dist 15                              DEM John Betancourt                   Precinct 6                                             01 
00150020003000201DEM       Member, State BoE, Dist 15                              DEM John Betancourt                   Precinct 7                                             01 
00150020004000073DEM       Member, State BoE, Dist 15                              DEM John Betancourt                   Precinct 8                                             01 
00150020005000024DEM       Member, State BoE, Dist 15                              DEM John Betancourt                   Precinct 9                                             01 
00150020006000085DEM       Member, State BoE, Dist 15                              DEM John Betancourt                   Precinct 10                                            01 
00150020007000005DEM       Member, State BoE, Dist 15                              DEM John Betancourt                   Precinct 11                                            01 
00150020008000143DEM       Member, State BoE, Dist 15                              DEM John Betancourt                   Precinct 12                                            01 
00150020009000047DEM       Member, State BoE, Dist 15                              DEM John Betancourt                   Precinct 13                                            01 
00150020010000010DEM       Member, State BoE, Dist 15                              DEM John Betancourt                   Precinct 14                                            01 
00150020011000202DEM       Member, State BoE, Dist 15                              DEM John Betancourt                   Precinct 15                                            01 
00160010001000079REP       State Senator, Dist 28                                  REP Charles Perry                     Precinct 5                                             01 
00160010002000173REP       State Senator, Dist 28                                  REP Charles Perry                     Precinct 6                                             01 
00160010003001400REP       State Senator, Dist 28                                  REP Charles Perry                     Precinct 7                                             01 
00160010004000528REP       State Senator, Dist 28                                  REP Charles Perry                     Precinct 8                                             01 
00160010005000375REP       State Senator, Dist 28                                  REP Charles Perry                     Precinct 9                                             01 
00160010006000800REP       State Senator, Dist 28                                  REP Charles Perry                     Precinct 10                                            01 
00160010007000106REP       State Senator, Dist 28                                  REP Charles Perry                     Precinct 11                                            01 
00160010008000800REP       State Senator, Dist 28                                  REP Charles Perry                     Precinct 12                                            01 
00160010009000310REP       State Senator, Dist 28                                  REP Charles Perry                     Precinct 13                                            01 
00160010010000090REP       State Senator, Dist 28                                  REP Charles Perry                     Precinct 14                                            01 
00160010011000774REP       State Senator, Dist 28                                  REP Charles Perry                     Precinct 15                                            01 
00170010001000076REP       State Representative, Dist 83                           REP Dustin Burrows                    Precinct 5                                             01 
00170010002000166REP       State Representative, Dist 83                           REP Dustin Burrows                    Precinct 6                                             01 
00170010003001283REP       State Representative, Dist 83                           REP Dustin Burrows                    Precinct 7                                             01 
00170010004000485REP       State Representative, Dist 83                           REP Dustin Burrows                    Precinct 8                                             01 
00170010005000364REP       State Representative, Dist 83                           REP Dustin Burrows                    Precinct 9                                             01 
00170010006000760REP       State Representative, Dist 83                           REP Dustin Burrows                    Precinct 10                                            01 
00170010007000103REP       State Representative, Dist 83                           REP Dustin Burrows                    Precinct 11                                            01 
00170010008000715REP       State Representative, Dist 83                           REP Dustin Burrows                    Precinct 12                                            01 
00170010009000284REP       State Representative, Dist 83                           REP Dustin Burrows                    Precinct 13                                            01 
00170010010000082REP       State Representative, Dist 83                           REP Dustin Burrows                    Precinct 14                                            01 
00170010011000658REP       State Representative, Dist 83                           REP Dustin Burrows                    Precinct 15                                            01 
00170020001000008DEM       State Representative, Dist 83                           DEM Addison Perry-Franks              Precinct 5                                             01 
00170020002000015DEM       State Representative, Dist 83                           DEM Addison Perry-Franks              Precinct 6                                             01 
00170020003000193DEM       State Representative, Dist 83                           DEM Addison Perry-Franks              Precinct 7                                             01 
00170020004000067DEM       State Representative, Dist 83                           DEM Addison Perry-Franks              Precinct 8                                             01 
00170020005000025DEM       State Representative, Dist 83                           DEM Addison Perry-Franks              Precinct 9                                             01 
00170020006000073DEM       State Representative, Dist 83                           DEM Addison Perry-Franks              Precinct 10                                            01 
00170020007000003DEM       State Representative, Dist 83                           DEM Addison Perry-Franks              Precinct 11                                            01 
00170020008000147DEM       State Representative, Dist 83                           DEM Addison Perry-Franks              Precinct 12                                            01 
00170020009000043DEM       State Representative, Dist 83                           DEM Addison Perry-Franks              Precinct 13                                            01 
00170020010000010DEM       State Representative, Dist 83                           DEM Addison Perry-Franks              Precinct 14                                            01 
00170020011000185DEM       State Representative, Dist 83                           DEM Addison Perry-Franks              Precinct 15                                            01 
00180010001000079REP       Justice, 11th Ct of App Dist, Pl 2                      REP Bruce Williams                    Precinct 5                                             01 
00180010002000173REP       Justice, 11th Ct of App Dist, Pl 2                      REP Bruce Williams                    Precinct 6                                             01 
00180010003001402REP       Justice, 11th Ct of App Dist, Pl 2                      REP Bruce Williams                    Precinct 7                                             01 
00180010004000525REP       Justice, 11th Ct of App Dist, Pl 2                      REP Bruce Williams                    Precinct 8                                             01 
00180010005000376REP       Justice, 11th Ct of App Dist, Pl 2                      REP Bruce Williams                    Precinct 9                                             01 
00180010006000793REP       Justice, 11th Ct of App Dist, Pl 2                      REP Bruce Williams                    Precinct 10                                            01 
00180010007000104REP       Justice, 11th Ct of App Dist, Pl 2                      REP Bruce Williams                    Precinct 11                                            01 
00180010008000803REP       Justice, 11th Ct of App Dist, Pl 2                      REP Bruce Williams                    Precinct 12                                            01 
00180010009000305REP       Justice, 11th Ct of App Dist, Pl 2                      REP Bruce Williams                    Precinct 13                                            01 
00180010010000088REP       Justice, 11th Ct of App Dist, Pl 2                      REP Bruce Williams                    Precinct 14                                            01 
00180010011000765REP       Justice, 11th Ct of App Dist, Pl 2                      REP Bruce Williams                    Precinct 15                                            01 
00190010001000078REP       Justice, 11th Ct of App Dist, Pl 3                      REP W. Stacy Trotter                  Precinct 5                                             01 
00190010002000173REP       Justice, 11th Ct of App Dist, Pl 3                      REP W. Stacy Trotter                  Precinct 6                                             01 
00190010003001398REP       Justice, 11th Ct of App Dist, Pl 3                      REP W. Stacy Trotter                  Precinct 7                                             01 
00190010004000523REP       Justice, 11th Ct of App Dist, Pl 3                      REP W. Stacy Trotter                  Precinct 8                                             01 
00190010005000377REP       Justice, 11th Ct of App Dist, Pl 3                      REP W. Stacy Trotter                  Precinct 9                                             01 
00190010006000790REP       Justice, 11th Ct of App Dist, Pl 3                      REP W. Stacy Trotter                  Precinct 10                                            01 
00190010007000103REP       Justice, 11th Ct of App Dist, Pl 3                      REP W. Stacy Trotter                  Precinct 11                                            01 
00190010008000806REP       Justice, 11th Ct of App Dist, Pl 3                      REP W. Stacy Trotter                  Precinct 12                                            01 
00190010009000303REP       Justice, 11th Ct of App Dist, Pl 3                      REP W. Stacy Trotter                  Precinct 13                                            01 
00190010010000088REP       Justice, 11th Ct of App Dist, Pl 3                      REP W. Stacy Trotter                  Precinct 14                                            01 
00190010011000764REP       Justice, 11th Ct of App Dist, Pl 3                      REP W. Stacy Trotter                  Precinct 15                                            01 
00200010001000077REP       Dist Judge, 132nd Judicial Dist                         REP Ernie B. Armstrong                Precinct 5                                             01 
00200010002000174REP       Dist Judge, 132nd Judicial Dist                         REP Ernie B. Armstrong                Precinct 6                                             01 
00200010003001388REP       Dist Judge, 132nd Judicial Dist                         REP Ernie B. Armstrong                Precinct 7                                             01 
00200010004000521REP       Dist Judge, 132nd Judicial Dist                         REP Ernie B. Armstrong                Precinct 8                                             01 
00200010005000380REP       Dist Judge, 132nd Judicial Dist                         REP Ernie B. Armstrong                Precinct 9                                             01 
00200010006000801REP       Dist Judge, 132nd Judicial Dist                         REP Ernie B. Armstrong                Precinct 10                                            01 
00200010007000104REP       Dist Judge, 132nd Judicial Dist                         REP Ernie B. Armstrong                Precinct 11                                            01 
00200010008000798REP       Dist Judge, 132nd Judicial Dist                         REP Ernie B. Armstrong                Precinct 12                                            01 
00200010009000301REP       Dist Judge, 132nd Judicial Dist                         REP Ernie B. Armstrong                Precinct 13                                            01 
00200010010000086REP       Dist Judge, 132nd Judicial Dist                         REP Ernie B. Armstrong                Precinct 14                                            01 
00200010011000776REP       Dist Judge, 132nd Judicial Dist                         REP Ernie B. Armstrong                Precinct 15                                            01 
00210010001000075REP       Dist Attorney, 132nd Judicial Dist                      REP Ben R. Smith                      Precinct 5                                             01 
00210010002000172REP       Dist Attorney, 132nd Judicial Dist                      REP Ben R. Smith                      Precinct 6                                             01 
00210010003001393REP       Dist Attorney, 132nd Judicial Dist                      REP Ben R. Smith                      Precinct 7                                             01 
00210010004000528REP       Dist Attorney, 132nd Judicial Dist                      REP Ben R. Smith                      Precinct 8                                             01 
00210010005000379REP       Dist Attorney, 132nd Judicial Dist                      REP Ben R. Smith                      Precinct 9                                             01 
00210010006000788REP       Dist Attorney, 132nd Judicial Dist                      REP Ben R. Smith                      Precinct 10                                            01 
00210010007000104REP       Dist Attorney, 132nd Judicial Dist                      REP Ben R. Smith                      Precinct 11                                            01 
00210010008000806REP       Dist Attorney, 132nd Judicial Dist                      REP Ben R. Smith                      Precinct 12                                            01 
00210010009000304REP       Dist Attorney, 132nd Judicial Dist                      REP Ben R. Smith                      Precinct 13                                            01 
00210010010000089REP       Dist Attorney, 132nd Judicial Dist                      REP Ben R. Smith                      Precinct 14                                            01 
00210010011000762REP       Dist Attorney, 132nd Judicial Dist                      REP Ben R. Smith                      Precinct 15                                            01 
00220010001000078REP       County Attorney                                         REP Michael W. Hartman                Precinct 5                                             01 
00220010002000172REP       County Attorney                                         REP Michael W. Hartman                Precinct 6                                             01 
00220010003001392REP       County Attorney                                         REP Michael W. Hartman                Precinct 7                                             01 
00220010004000530REP       County Attorney                                         REP Michael W. Hartman                Precinct 8                                             01 
00220010005000376REP       County Attorney                                         REP Michael W. Hartman                Precinct 9                                             01 
00220010006000796REP       County Attorney                                         REP Michael W. Hartman                Precinct 10                                            01 
00220010007000105REP       County Attorney                                         REP Michael W. Hartman                Precinct 11                                            01 
00220010008000804REP       County Attorney                                         REP Michael W. Hartman                Precinct 12                                            01 
00220010009000299REP       County Attorney                                         REP Michael W. Hartman                Precinct 13                                            01 
00220010010000090REP       County Attorney                                         REP Michael W. Hartman                Precinct 14                                            01 
00220010011000770REP       County Attorney                                         REP Michael W. Hartman                Precinct 15                                            01 
00230010001000076REP       Sheriff                                                 REP Trey Wilson                       Precinct 5                                             01 
00230010002000172REP       Sheriff                                                 REP Trey Wilson                       Precinct 6                                             01 
00230010003001396REP       Sheriff                                                 REP Trey Wilson                       Precinct 7                                             01 
00230010004000524REP       Sheriff                                                 REP Trey Wilson                       Precinct 8                                             01 
00230010005000378REP       Sheriff                                                 REP Trey Wilson                       Precinct 9                                             01 
00230010006000798REP       Sheriff                                                 REP Trey Wilson                       Precinct 10                                            01 
00230010007000103REP       Sheriff                                                 REP Trey Wilson                       Precinct 11                                            01 
00230010008000806REP       Sheriff                                                 REP Trey Wilson                       Precinct 12                                            01 
00230010009000299REP       Sheriff                                                 REP Trey Wilson                       Precinct 13                                            01 
00230010010000086REP       Sheriff                                                 REP Trey Wilson                       Precinct 14                                            01 
00230010011000770REP       Sheriff                                                 REP Trey Wilson                       Precinct 15                                            01 
00240010001000079REP       County Tax Assessor-Collector                           REP Jana Young                        Precinct 5                                             01 
00240010002000174REP       County Tax Assessor-Collector                           REP Jana Young                        Precinct 6                                             01 
00240010003001413REP       County Tax Assessor-Collector                           REP Jana Young                        Precinct 7                                             01 
00240010004000531REP       County Tax Assessor-Collector                           REP Jana Young                        Precinct 8                                             01 
00240010005000382REP       County Tax Assessor-Collector                           REP Jana Young                        Precinct 9                                             01 
00240010006000798REP       County Tax Assessor-Collector                           REP Jana Young                        Precinct 10                                            01 
00240010007000105REP       County Tax Assessor-Collector                           REP Jana Young                        Precinct 11                                            01 
00240010008000814REP       County Tax Assessor-Collector                           REP Jana Young                        Precinct 12                                            01 
00240010009000310REP       County Tax Assessor-Collector                           REP Jana Young                        Precinct 13                                            01 
00240010010000090REP       County Tax Assessor-Collector                           REP Jana Young                        Precinct 14                                            01 
00240010011000774REP       County Tax Assessor-Collector                           REP Jana Young                        Precinct 15                                            01 
00250010001000078REP       County Treasurer                                        REP Kirsta Koennecke                  Precinct 5                                             01 
00250010002000171REP       County Treasurer                                        REP Kirsta Koennecke                  Precinct 6                                             01 
00250010003001384REP       County Treasurer                                        REP Kirsta Koennecke                  Precinct 7                                             01 
00250010004000525REP       County Treasurer                                        REP Kirsta Koennecke                  Precinct 8                                             01 
00250010005000382REP       County Treasurer                                        REP Kirsta Koennecke                  Precinct 9                                             01 
00250010006000783REP       County Treasurer                                        REP Kirsta Koennecke                  Precinct 10                                            01 
00250010007000104REP       County Treasurer                                        REP Kirsta Koennecke                  Precinct 11                                            01 
00250010008000808REP       County Treasurer                                        REP Kirsta Koennecke                  Precinct 12                                            01 
00250010009000304REP       County Treasurer                                        REP Kirsta Koennecke                  Precinct 13                                            01 
00250010010000088REP       County Treasurer                                        REP Kirsta Koennecke                  Precinct 14                                            01 
00250010011000765REP       County Treasurer                                        REP Kirsta Koennecke                  Precinct 15                                            01 
00260010010000084REPCOM001 County Commissioner Pct 1                               REP Terry D. Williams                 Precinct 14                   Precinct 1               01 
00260010011000760REPCOM001 County Commissioner Pct 1                               REP Terry D. Williams                 Precinct 15                   Precinct 1               01 
00270010004000523REPCOM003 County Commissioner Pct 3                               REP Shawn McCowan                     Precinct 8                    Precinct 3               01 
00270010005000375REPCOM003 County Commissioner Pct 3                               REP Shawn McCowan                     Precinct 9                    Precinct 3               01 
00270010006000788REPCOM003 County Commissioner Pct 3                               REP Shawn McCowan                     Precinct 10                   Precinct 3               01 
00280010003000183NONCITSNYDCouncil Snyder Dist 2                                   Mitch Hickman                         Precinct 7                    Snyder Dist 2            01 
00280010004000074NONCITSNYDCouncil Snyder Dist 2                                   Mitch Hickman                         Precinct 8                    Snyder Dist 2            01 
00280010006000271NONCITSNYDCouncil Snyder Dist 2                                   Mitch Hickman                         Precinct 10                   Snyder Dist 2            01 
00280020003000123NONCITSNYDCouncil Snyder Dist 2                                   Steve Rich                            Precinct 7                    Snyder Dist 2            01 
00280020004000052NONCITSNYDCouncil Snyder Dist 2                                   Steve Rich                            Precinct 8                    Snyder Dist 2            01 
00280020006000245NONCITSNYDCouncil Snyder Dist 2                                   Steve Rich                            Precinct 10                   Snyder Dist 2            01 
00290010007000007NONISDHISDTrustee Hermleigh ISD                                   John Pence (Big John)                 Precinct 11                   Hermleigh ISD            04 
00290010008000003NONISDHISDTrustee Hermleigh ISD                                   John Pence (Big John)                 Precinct 12                   Hermleigh ISD            04 
00290010009000151NONISDHISDTrustee Hermleigh ISD                                   John Pence (Big John)                 Precinct 13                   Hermleigh ISD            04 
00290010010000014NONISDHISDTrustee Hermleigh ISD                                   John Pence (Big John)                 Precinct 14                   Hermleigh ISD            04 
00290020007000003NONISDHISDTrustee Hermleigh ISD                                   Miranda Hancock                       Precinct 11                   Hermleigh ISD            04 
00290020008000004NONISDHISDTrustee Hermleigh ISD                                   Miranda Hancock                       Precinct 12                   Hermleigh ISD            04 
00290020009000119NONISDHISDTrustee Hermleigh ISD                                   Miranda Hancock                       Precinct 13                   Hermleigh ISD            04 
00290020010000009NONISDHISDTrustee Hermleigh ISD                                   Miranda Hancock                       Precinct 14                   Hermleigh ISD            04 
00290030007000011NONISDHISDTrustee Hermleigh ISD                                   Larry Don Nachlinger                  Precinct 11                   Hermleigh ISD            04 
00290030008000007NONISDHISDTrustee Hermleigh ISD                                   Larry Don Nachlinger                  Precinct 12                   Hermleigh ISD            04 
00290030009000156NONISDHISDTrustee Hermleigh ISD                                   Larry Don Nachlinger                  Precinct 13                   Hermleigh ISD            04 
00290030010000008NONISDHISDTrustee Hermleigh ISD                                   Larry Don Nachlinger                  Precinct 14                   Hermleigh ISD            04 
00290040007000009NONISDHISDTrustee Hermleigh ISD                                   Joe Roemisch                          Precinct 11                   Hermleigh ISD            04 
