00010010001000000000000000000000000000000000000000000000000000000000000000000000000000000000000000000          REGISTERED VOTERS - TOTAL                               REGISTERED VOTERS - TOTAL             Precinct 1                                             00 
00010010002000000000000000000000000000000000000000000000000000000000000000000000000000000000000000000          REGISTERED VOTERS - TOTAL                               REGISTERED VOTERS - TOTAL             Precinct 2                                             00 
00010010003000000000000000000000000000000000000000000000000000000000000000000000000000000000000000000          REGISTERED VOTERS - TOTAL                               REGISTERED VOTERS - TOTAL             Precinct 3                                             00 
00010010004000000000000000000000000000000000000000000000000000000000000000000000000000000000000000000          REGISTERED VOTERS - TOTAL                               REGISTERED VOTERS - TOTAL             Precinct 4                                             00 
00010010005000000000000000000000000000000000000000000000000000000000000000000000000000000000000000000          REGISTERED VOTERS - TOTAL                               REGISTERED VOTERS - TOTAL             Precinct 5                                             00 
00010010006000000000000000000000000000000000000000000000000000000000000000000000000000000000000000000          REGISTERED VOTERS - TOTAL                               REGISTERED VOTERS - TOTAL             Precinct 6                                             00 
00010010007000000000000000000000000000000000000000000000000000000000000000000000000000000000000000000          REGISTERED VOTERS - TOTAL                               REGISTERED VOTERS - TOTAL             Precinct 7                                             00 
00010010008000000000000000000000000000000000000000000000000000000000000000000000000000000000000000000          REGISTERED VOTERS - TOTAL                               REGISTERED VOTERS - TOTAL             Precinct 8                                             00 
00010010009000000000000000000000000000000000000000000000000000000000000000000000000000000000000000000          REGISTERED VOTERS - TOTAL                               REGISTERED VOTERS - TOTAL             Precinct 9                                             00 
00010010010000000000000000000000000000000000000000000000000000000000000000000000000000000000000000000          REGISTERED VOTERS - TOTAL                               REGISTERED VOTERS - TOTAL             Precinct 10                                            00 
00010010011000000000000000000000000000000000000000000000000000000000000000000000000000000000000000000          REGISTERED VOTERS - TOTAL                               REGISTERED VOTERS - TOTAL             Precinct 11                                            00 
00010010012000000000000000000000000000000000000000000000000000000000000000000000000000000000000000000          REGISTERED VOTERS - TOTAL                               REGISTERED VOTERS - TOTAL             Precinct 13                                            00 
00010010013000000000000000000000000000000000000000000000000000000000000000000000000000000000000000000          REGISTERED VOTERS - TOTAL                               REGISTERED VOTERS - TOTAL             Precinct 14                                            00 
00010010014000000000000000000000000000000000000000000000000000000000000000000000000000000000000000000          REGISTERED VOTERS - TOTAL                               REGISTERED VOTERS - TOTAL             Precinct 15                                            00 
00010010015000000000000000000000000000000000000000000000000000000000000000000000000000000000000000000          REGISTERED VOTERS - TOTAL                               REGISTERED VOTERS - TOTAL             Precinct 16                                            00 
00010010016000000000000000000000000000000000000000000000000000000000000000000000000000000000000000000          REGISTERED VOTERS - TOTAL                               REGISTERED VOTERS - TOTAL             Precinct 17                                            00 
00010010017000000000000000000000000000000000000000000000000000000000000000000000000000000000000000000          REGISTERED VOTERS - TOTAL                               REGISTERED VOTERS - TOTAL             Precinct 18                                            00 
00010010019000000000000000000000000000000000000000000000000000000000000000000000000000000000000000000          REGISTERED VOTERS - TOTAL                               REGISTERED VOTERS - TOTAL             Jasper County                                          00 
00010010020000000000000000000000000000000000000000000000000000000000000000000000000000000000000000000          REGISTERED VOTERS - TOTAL                               REGISTERED VOTERS - TOTAL             Polk County                                            00 
00020010001000524000040000422000062000000000000000000000000000000000000000000000000000000000000000000          BALLOTS CAST - TOTAL                                    BALLOTS CAST - TOTAL                  Precinct 1                                             00 
00020010002000609000054000438000117000000000000000000000000000000000000000000000000000000000000000000          BALLOTS CAST - TOTAL                                    BALLOTS CAST - TOTAL                  Precinct 2                                             00 
00020010003001013000112000685000216000000000000000000000000000000000000000000000000000000000000000000          BALLOTS CAST - TOTAL                                    BALLOTS CAST - TOTAL                  Precinct 3                                             00 
00020010004000971000077000602000292000000000000000000000000000000000000000000000000000000000000000000          BALLOTS CAST - TOTAL                                    BALLOTS CAST - TOTAL                  Precinct 4                                             00 
00020010005000151000009000114000028000000000000000000000000000000000000000000000000000000000000000000          BALLOTS CAST - TOTAL                                    BALLOTS CAST - TOTAL                  Precinct 5                                             00 
00020010006000337000052000155000130000000000000000000000000000000000000000000000000000000000000000000          BALLOTS CAST - TOTAL                                    BALLOTS CAST - TOTAL                  Precinct 6                                             00 
00020010007000475000042000240000193000000000000000000000000000000000000000000000000000000000000000000          BALLOTS CAST - TOTAL                                    BALLOTS CAST - TOTAL                  Precinct 7                                             00 
00020010008000162000013000091000058000000000000000000000000000000000000000000000000000000000000000000          BALLOTS CAST - TOTAL                                    BALLOTS CAST - TOTAL                  Precinct 8                                             00 
00020010009000323000024000205000094000000000000000000000000000000000000000000000000000000000000000000          BALLOTS CAST - TOTAL                                    BALLOTS CAST - TOTAL                  Precinct 9                                             00 
00020010010001000000088000614000298000000000000000000000000000000000000000000000000000000000000000000          BALLOTS CAST - TOTAL                                    BALLOTS CAST - TOTAL                  Precinct 10                                            00 
00020010011000082000004000043000035000000000000000000000000000000000000000000000000000000000000000000          BALLOTS CAST - TOTAL                                    BALLOTS CAST - TOTAL                  Precinct 11                                            00 
00020010012000465000036000230000199000000000000000000000000000000000000000000000000000000000000000000          BALLOTS CAST - TOTAL                                    BALLOTS CAST - TOTAL                  Precinct 13                                            00 
00020010013001150000067000670000413000000000000000000000000000000000000000000000000000000000000000000          BALLOTS CAST - TOTAL                                    BALLOTS CAST - TOTAL                  Precinct 14                                            00 
00020010014000728000051000244000433000000000000000000000000000000000000000000000000000000000000000000          BALLOTS CAST - TOTAL                                    BALLOTS CAST - TOTAL                  Precinct 15                                            00 
00020010015000447000037000279000131000000000000000000000000000000000000000000000000000000000000000000          BALLOTS CAST - TOTAL                                    BALLOTS CAST - TOTAL                  Precinct 16                                            00 
00020010016000335000038000229000068000000000000000000000000000000000000000000000000000000000000000000          BALLOTS CAST - TOTAL                                    BALLOTS CAST - TOTAL                  Precinct 17                                            00 
00020010017000935000088000709000138000000000000000000000000000000000000000000000000000000000000000000          BALLOTS CAST - TOTAL                                    BALLOTS CAST - TOTAL                  Precinct 18                                            00 
00020010018000000000000000000000000000000000000000000000000000000000000000000000000000000000000000000          BALLOTS CAST - TOTAL                                    BALLOTS CAST - TOTAL                  Angelina County                                        00 
00020010019000012000000000000000012000000000000000000000000000000000000000000000000000000000000000000          BALLOTS CAST - TOTAL                                    BALLOTS CAST - TOTAL                  Jasper County                                          00 
00020010020000001000000000001000000000000000000000000000000000000000000000000000000000000000000000000          BALLOTS CAST - TOTAL                                    BALLOTS CAST - TOTAL                  Polk County                                            00 
00030010001000000000000000000000000000000000000000000000000000000000000000000000000000000000000000000          BALLOTS CAST - BLANK                                    BALLOTS CAST - BLANK                  Precinct 1                                             00 
00030010002000000000000000000000000000000000000000000000000000000000000000000000000000000000000000000          BALLOTS CAST - BLANK                                    BALLOTS CAST - BLANK                  Precinct 2                                             00 
00030010003000000000000000000000000000000000000000000000000000000000000000000000000000000000000000000          BALLOTS CAST - BLANK                                    BALLOTS CAST - BLANK                  Precinct 3                                             00 
00030010004000000000000000000000000000000000000000000000000000000000000000000000000000000000000000000          BALLOTS CAST - BLANK                                    BALLOTS CAST - BLANK                  Precinct 4                                             00 
00030010005000001000000000000000001000000000000000000000000000000000000000000000000000000000000000000          BALLOTS CAST - BLANK                                    BALLOTS CAST - BLANK                  Precinct 5                                             00 
00030010006000000000000000000000000000000000000000000000000000000000000000000000000000000000000000000          BALLOTS CAST - BLANK                                    BALLOTS CAST - BLANK                  Precinct 6                                             00 
00030010007000001000000000001000000000000000000000000000000000000000000000000000000000000000000000000          BALLOTS CAST - BLANK                                    BALLOTS CAST - BLANK                  Precinct 7                                             00 
00030010008000000000000000000000000000000000000000000000000000000000000000000000000000000000000000000          BALLOTS CAST - BLANK                                    BALLOTS CAST - BLANK                  Precinct 8                                             00 
00030010009000000000000000000000000000000000000000000000000000000000000000000000000000000000000000000          BALLOTS CAST - BLANK                                    BALLOTS CAST - BLANK                  Precinct 9                                             00 
00030010010000000000000000000000000000000000000000000000000000000000000000000000000000000000000000000          BALLOTS CAST - BLANK                                    BALLOTS CAST - BLANK                  Precinct 10                                            00 
00030010011000000000000000000000000000000000000000000000000000000000000000000000000000000000000000000          BALLOTS CAST - BLANK                                    BALLOTS CAST - BLANK                  Precinct 11                                            00 
00030010012000000000000000000000000000000000000000000000000000000000000000000000000000000000000000000          BALLOTS CAST - BLANK                                    BALLOTS CAST - BLANK                  Precinct 13                                            00 
00030010013000000000000000000000000000000000000000000000000000000000000000000000000000000000000000000          BALLOTS CAST - BLANK                                    BALLOTS CAST - BLANK                  Precinct 14                                            00 
00030010014000000000000000000000000000000000000000000000000000000000000000000000000000000000000000000          BALLOTS CAST - BLANK                                    BALLOTS CAST - BLANK                  Precinct 15                                            00 
00030010015000000000000000000000000000000000000000000000000000000000000000000000000000000000000000000          BALLOTS CAST - BLANK                                    BALLOTS CAST - BLANK                  Precinct 16                                            00 
00030010016000000000000000000000000000000000000000000000000000000000000000000000000000000000000000000          BALLOTS CAST - BLANK                                    BALLOTS CAST - BLANK                  Precinct 17                                            00 
00030010017000000000000000000000000000000000000000000000000000000000000000000000000000000000000000000          BALLOTS CAST - BLANK                                    BALLOTS CAST - BLANK                  Precinct 18                                            00 
00030010018000000000000000000000000000000000000000000000000000000000000000000000000000000000000000000          BALLOTS CAST - BLANK                                    BALLOTS CAST - BLANK                  Angelina County                                        00 
00030010019000000000000000000000000000000000000000000000000000000000000000000000000000000000000000000          BALLOTS CAST - BLANK                                    BALLOTS CAST - BLANK                  Jasper County                                          00 
00030010020000000000000000000000000000000000000000000000000000000000000000000000000000000000000000000          BALLOTS CAST - BLANK                                    BALLOTS CAST - BLANK                  Polk County                                            00 
00040010001000450000028000369000053000000000000000000000000000000000000000000000000000000000000000000REPTylTyl President / Vice-President                              REP Donald J. Trump / Michael R. PencePrecinct 1                    Tyler                    01 
00040010002000377000036000265000076000000000000000000000000000000000000000000000000000000000000000000REPTylTyl President / Vice-President                              REP Donald J. Trump / Michael R. PencePrecinct 2                    Tyler                    01 
00040010003000783000063000564000156000000000000000000000000000000000000000000000000000000000000000000REPTylTyl President / Vice-President                              REP Donald J. Trump / Michael R. PencePrecinct 3                    Tyler                    01 
00040010004000865000050000544000271000000000000000000000000000000000000000000000000000000000000000000REPTylTyl President / Vice-President                              REP Donald J. Trump / Michael R. PencePrecinct 4                    Tyler                    01 
00040010005000094000003000079000012000000000000000000000000000000000000000000000000000000000000000000REPTylTyl President / Vice-President                              REP Donald J. Trump / Michael R. PencePrecinct 5                    Tyler                    01 
00040010006000287000035000142000110000000000000000000000000000000000000000000000000000000000000000000REPTylTyl President / Vice-President                              REP Donald J. Trump / Michael R. PencePrecinct 6                    Tyler                    01 
00040010007000432000034000214000184000000000000000000000000000000000000000000000000000000000000000000REPTylTyl President / Vice-President                              REP Donald J. Trump / Michael R. PencePrecinct 7                    Tyler                    01 
00040010008000139000011000078000050000000000000000000000000000000000000000000000000000000000000000000REPTylTyl President / Vice-President                              REP Donald J. Trump / Michael R. PencePrecinct 8                    Tyler                    01 
00040010009000298000019000191000088000000000000000000000000000000000000000000000000000000000000000000REPTylTyl President / Vice-President                              REP Donald J. Trump / Michael R. PencePrecinct 9                    Tyler                    01 
00040010010000872000056000550000266000000000000000000000000000000000000000000000000000000000000000000REPTylTyl President / Vice-President                              REP Donald J. Trump / Michael R. PencePrecinct 10                   Tyler                    01 
00040010011000078000004000043000031000000000000000000000000000000000000000000000000000000000000000000REPTylTyl President / Vice-President                              REP Donald J. Trump / Michael R. PencePrecinct 11                   Tyler                    01 
00040010012000399000027000200000172000000000000000000000000000000000000000000000000000000000000000000REPTylTyl President / Vice-President                              REP Donald J. Trump / Michael R. PencePrecinct 13                   Tyler                    01 
00040010013001040000054000604000382000000000000000000000000000000000000000000000000000000000000000000REPTylTyl President / Vice-President                              REP Donald J. Trump / Michael R. PencePrecinct 14                   Tyler                    01 
00040010014000660000035000214000411000000000000000000000000000000000000000000000000000000000000000000REPTylTyl President / Vice-President                              REP Donald J. Trump / Michael R. PencePrecinct 15                   Tyler                    01 
00040010015000392000025000246000121000000000000000000000000000000000000000000000000000000000000000000REPTylTyl President / Vice-President                              REP Donald J. Trump / Michael R. PencePrecinct 16                   Tyler                    01 
00040010016000239000021000167000051000000000000000000000000000000000000000000000000000000000000000000REPTylTyl President / Vice-President                              REP Donald J. Trump / Michael R. PencePrecinct 17                   Tyler                    01 
00040010017000789000051000617000121000000000000000000000000000000000000000000000000000000000000000000REPTylTyl President / Vice-President                              REP Donald J. Trump / Michael R. PencePrecinct 18                   Tyler                    01 
00040020001000067000012000048000007000000000000000000000000000000000000000000000000000000000000000000DEMTylTyl President / Vice-President                              DEM Joseph R. Biden / Kamala D. HarrisPrecinct 1                    Tyler                    01 
00040020002000223000018000168000037000000000000000000000000000000000000000000000000000000000000000000DEMTylTyl President / Vice-President                              DEM Joseph R. Biden / Kamala D. HarrisPrecinct 2                    Tyler                    01 
00040020003000222000048000117000057000000000000000000000000000000000000000000000000000000000000000000DEMTylTyl President / Vice-President                              DEM Joseph R. Biden / Kamala D. HarrisPrecinct 3                    Tyler                    01 
00040020004000097000026000054000017000000000000000000000000000000000000000000000000000000000000000000DEMTylTyl President / Vice-President                              DEM Joseph R. Biden / Kamala D. HarrisPrecinct 4                    Tyler                    01 
00040020005000054000005000035000014000000000000000000000000000000000000000000000000000000000000000000DEMTylTyl President / Vice-President                              DEM Joseph R. Biden / Kamala D. HarrisPrecinct 5                    Tyler                    01 
00040020006000048000017000013000018000000000000000000000000000000000000000000000000000000000000000000DEMTylTyl President / Vice-President                              DEM Joseph R. Biden / Kamala D. HarrisPrecinct 6                    Tyler                    01 
00040020007000038000008000021000009000000000000000000000000000000000000000000000000000000000000000000DEMTylTyl President / Vice-President                              DEM Joseph R. Biden / Kamala D. HarrisPrecinct 7                    Tyler                    01 
00040020008000020000002000012000006000000000000000000000000000000000000000000000000000000000000000000DEMTylTyl President / Vice-President                              DEM Joseph R. Biden / Kamala D. HarrisPrecinct 8                    Tyler                    01 
00040020009000023000005000013000005000000000000000000000000000000000000000000000000000000000000000000DEMTylTyl President / Vice-President                              DEM Joseph R. Biden / Kamala D. HarrisPrecinct 9                    Tyler                    01 
00040020010000114000032000058000024000000000000000000000000000000000000000000000000000000000000000000DEMTylTyl President / Vice-President                              DEM Joseph R. Biden / Kamala D. HarrisPrecinct 10                   Tyler                    01 
00040020011000003000000000000000003000000000000000000000000000000000000000000000000000000000000000000DEMTylTyl President / Vice-President                              DEM Joseph R. Biden / Kamala D. HarrisPrecinct 11                   Tyler                    01 
00040020012000063000009000028000026000000000000000000000000000000000000000000000000000000000000000000DEMTylTyl President / Vice-President                              DEM Joseph R. Biden / Kamala D. HarrisPrecinct 13                   Tyler                    01 
00040020013000093000013000057000023000000000000000000000000000000000000000000000000000000000000000000DEMTylTyl President / Vice-President                              DEM Joseph R. Biden / Kamala D. HarrisPrecinct 14                   Tyler                    01 
00040020014000062000016000029000017000000000000000000000000000000000000000000000000000000000000000000DEMTylTyl President / Vice-President                              DEM Joseph R. Biden / Kamala D. HarrisPrecinct 15                   Tyler                    01 
00040020015000044000009000028000007000000000000000000000000000000000000000000000000000000000000000000DEMTylTyl President / Vice-President                              DEM Joseph R. Biden / Kamala D. HarrisPrecinct 16                   Tyler                    01 
00040020016000094000016000062000016000000000000000000000000000000000000000000000000000000000000000000DEMTylTyl President / Vice-President                              DEM Joseph R. Biden / Kamala D. HarrisPrecinct 17                   Tyler                    01 
00040020017000138000037000085000016000000000000000000000000000000000000000000000000000000000000000000DEMTylTyl President / Vice-President                              DEM Joseph R. Biden / Kamala D. HarrisPrecinct 18                   Tyler                    01 
00040030001000002000000000001000001000000000000000000000000000000000000000000000000000000000000000000LIBTylTyl President / Vice-President                              LIB Jo Jorgensen / Jeremy "Spike" CohePrecinct 1                    Tyler                    01 
00040030002000006000000000004000002000000000000000000000000000000000000000000000000000000000000000000LIBTylTyl President / Vice-President                              LIB Jo Jorgensen / Jeremy "Spike" CohePrecinct 2                    Tyler                    01 
00040030003000003000000000002000001000000000000000000000000000000000000000000000000000000000000000000LIBTylTyl President / Vice-President                              LIB Jo Jorgensen / Jeremy "Spike" CohePrecinct 3                    Tyler                    01 
00040030004000004000000000002000002000000000000000000000000000000000000000000000000000000000000000000LIBTylTyl President / Vice-President                              LIB Jo Jorgensen / Jeremy "Spike" CohePrecinct 4                    Tyler                    01 
00040030005000001000000000000000001000000000000000000000000000000000000000000000000000000000000000000LIBTylTyl President / Vice-President                              LIB Jo Jorgensen / Jeremy "Spike" CohePrecinct 5                    Tyler                    01 
00040030006000001000000000000000001000000000000000000000000000000000000000000000000000000000000000000LIBTylTyl President / Vice-President                              LIB Jo Jorgensen / Jeremy "Spike" CohePrecinct 6                    Tyler                    01 
00040030007000002000000000002000000000000000000000000000000000000000000000000000000000000000000000000LIBTylTyl President / Vice-President                              LIB Jo Jorgensen / Jeremy "Spike" CohePrecinct 7                    Tyler                    01 
00040030008000002000000000000000002000000000000000000000000000000000000000000000000000000000000000000LIBTylTyl President / Vice-President                              LIB Jo Jorgensen / Jeremy "Spike" CohePrecinct 8                    Tyler                    01 
00040030009000001000000000000000001000000000000000000000000000000000000000000000000000000000000000000LIBTylTyl President / Vice-President                              LIB Jo Jorgensen / Jeremy "Spike" CohePrecinct 9                    Tyler                    01 
00040030010000006000000000001000005000000000000000000000000000000000000000000000000000000000000000000LIBTylTyl President / Vice-President                              LIB Jo Jorgensen / Jeremy "Spike" CohePrecinct 10                   Tyler                    01 
00040030011000000000000000000000000000000000000000000000000000000000000000000000000000000000000000000LIBTylTyl President / Vice-President                              LIB Jo Jorgensen / Jeremy "Spike" CohePrecinct 11                   Tyler                    01 
00040030012000001000000000001000000000000000000000000000000000000000000000000000000000000000000000000LIBTylTyl President / Vice-President                              LIB Jo Jorgensen / Jeremy "Spike" CohePrecinct 13                   Tyler                    01 
00040030013000007000000000002000005000000000000000000000000000000000000000000000000000000000000000000LIBTylTyl President / Vice-President                              LIB Jo Jorgensen / Jeremy "Spike" CohePrecinct 14                   Tyler                    01 
00040030014000003000000000001000002000000000000000000000000000000000000000000000000000000000000000000LIBTylTyl President / Vice-President                              LIB Jo Jorgensen / Jeremy "Spike" CohePrecinct 15                   Tyler                    01 
00040030015000005000001000003000001000000000000000000000000000000000000000000000000000000000000000000LIBTylTyl President / Vice-President                              LIB Jo Jorgensen / Jeremy "Spike" CohePrecinct 16                   Tyler                    01 
00040030016000001000000000000000001000000000000000000000000000000000000000000000000000000000000000000LIBTylTyl President / Vice-President                              LIB Jo Jorgensen / Jeremy "Spike" CohePrecinct 17                   Tyler                    01 
00040030017000007000000000006000001000000000000000000000000000000000000000000000000000000000000000000LIBTylTyl President / Vice-President                              LIB Jo Jorgensen / Jeremy "Spike" CohePrecinct 18                   Tyler                    01 
00040040001000001000000000001000000000000000000000000000000000000000000000000000000000000000000000000GRNTylTyl President / Vice-President                              GRN Howie Hawkins / Angela Walker     Precinct 1                    Tyler                    01 
00040040002000000000000000000000000000000000000000000000000000000000000000000000000000000000000000000GRNTylTyl President / Vice-President                              GRN Howie Hawkins / Angela Walker     Precinct 2                    Tyler                    01 
00040040003000001000000000000000001000000000000000000000000000000000000000000000000000000000000000000GRNTylTyl President / Vice-President                              GRN Howie Hawkins / Angela Walker     Precinct 3                    Tyler                    01 
00040040004000001000000000001000000000000000000000000000000000000000000000000000000000000000000000000GRNTylTyl President / Vice-President                              GRN Howie Hawkins / Angela Walker     Precinct 4                    Tyler                    01 
00040040005000000000000000000000000000000000000000000000000000000000000000000000000000000000000000000GRNTylTyl President / Vice-President                              GRN Howie Hawkins / Angela Walker     Precinct 5                    Tyler                    01 
00040040006000001000000000000000001000000000000000000000000000000000000000000000000000000000000000000GRNTylTyl President / Vice-President                              GRN Howie Hawkins / Angela Walker     Precinct 6                    Tyler                    01 
00040040007000000000000000000000000000000000000000000000000000000000000000000000000000000000000000000GRNTylTyl President / Vice-President                              GRN Howie Hawkins / Angela Walker     Precinct 7                    Tyler                    01 
00040040008000000000000000000000000000000000000000000000000000000000000000000000000000000000000000000GRNTylTyl President / Vice-President                              GRN Howie Hawkins / Angela Walker     Precinct 8                    Tyler                    01 
00040040009000000000000000000000000000000000000000000000000000000000000000000000000000000000000000000GRNTylTyl President / Vice-President                              GRN Howie Hawkins / Angela Walker     Precinct 9                    Tyler                    01 
00040040010000002000000000002000000000000000000000000000000000000000000000000000000000000000000000000GRNTylTyl President / Vice-President                              GRN Howie Hawkins / Angela Walker     Precinct 10                   Tyler                    01 
00040040011000000000000000000000000000000000000000000000000000000000000000000000000000000000000000000GRNTylTyl President / Vice-President                              GRN Howie Hawkins / Angela Walker     Precinct 11                   Tyler                    01 
00040040012000001000000000000000001000000000000000000000000000000000000000000000000000000000000000000GRNTylTyl President / Vice-President                              GRN Howie Hawkins / Angela Walker     Precinct 13                   Tyler                    01 
00040040013000002000000000002000000000000000000000000000000000000000000000000000000000000000000000000GRNTylTyl President / Vice-President                              GRN Howie Hawkins / Angela Walker     Precinct 14                   Tyler                    01 
00040040014000000000000000000000000000000000000000000000000000000000000000000000000000000000000000000GRNTylTyl President / Vice-President                              GRN Howie Hawkins / Angela Walker     Precinct 15                   Tyler                    01 
00040040015000002000000000000000002000000000000000000000000000000000000000000000000000000000000000000GRNTylTyl President / Vice-President                              GRN Howie Hawkins / Angela Walker     Precinct 16                   Tyler                    01 
00040040016000000000000000000000000000000000000000000000000000000000000000000000000000000000000000000GRNTylTyl President / Vice-President                              GRN Howie Hawkins / Angela Walker     Precinct 17                   Tyler                    01 
00040040017000000000000000000000000000000000000000000000000000000000000000000000000000000000000000000GRNTylTyl President / Vice-President                              GRN Howie Hawkins / Angela Walker     Precinct 18                   Tyler                    01 
00040060001000000000000000000000000000000000000000000000000000000000000000000000000000000000000000000NONTylTyl President / Vice-President                              Write-in                              Precinct 1                    Tyler                    01 
00040060002000000000000000000000000000000000000000000000000000000000000000000000000000000000000000000NONTylTyl President / Vice-President                              Write-in                              Precinct 2                    Tyler                    01 
00040060003000001000000000000000001000000000000000000000000000000000000000000000000000000000000000000NONTylTyl President / Vice-President                              Write-in                              Precinct 3                    Tyler                    01 
00040060004000001000000000001000000000000000000000000000000000000000000000000000000000000000000000000NONTylTyl President / Vice-President                              Write-in                              Precinct 4                    Tyler                    01 
00040060005000000000000000000000000000000000000000000000000000000000000000000000000000000000000000000NONTylTyl President / Vice-President                              Write-in                              Precinct 5                    Tyler                    01 
00040060006000000000000000000000000000000000000000000000000000000000000000000000000000000000000000000NONTylTyl President / Vice-President                              Write-in                              Precinct 6                    Tyler                    01 
00040060007000000000000000000000000000000000000000000000000000000000000000000000000000000000000000000NONTylTyl President / Vice-President                              Write-in                              Precinct 7                    Tyler                    01 
00040060008000000000000000000000000000000000000000000000000000000000000000000000000000000000000000000NONTylTyl President / Vice-President                              Write-in                              Precinct 8                    Tyler                    01 
00040060009000000000000000000000000000000000000000000000000000000000000000000000000000000000000000000NONTylTyl President / Vice-President                              Write-in                              Precinct 9                    Tyler                    01 
00040060010000002000000000001000001000000000000000000000000000000000000000000000000000000000000000000NONTylTyl President / Vice-President                              Write-in                              Precinct 10                   Tyler                    01 
00040060011000001000000000000000001000000000000000000000000000000000000000000000000000000000000000000NONTylTyl President / Vice-President                              Write-in                              Precinct 11                   Tyler                    01 
00040060012000000000000000000000000000000000000000000000000000000000000000000000000000000000000000000NONTylTyl President / Vice-President                              Write-in                              Precinct 13                   Tyler                    01 
00040060013000002000000000002000000000000000000000000000000000000000000000000000000000000000000000000NONTylTyl President / Vice-President                              Write-in                              Precinct 14                   Tyler                    01 
00040060014000003000000000000000003000000000000000000000000000000000000000000000000000000000000000000NONTylTyl President / Vice-President                              Write-in                              Precinct 15                   Tyler                    01 
00040060015000002000002000000000000000000000000000000000000000000000000000000000000000000000000000000NONTylTyl President / Vice-President                              Write-in                              Precinct 16                   Tyler                    01 
00040060016000001000001000000000000000000000000000000000000000000000000000000000000000000000000000000NONTylTyl President / Vice-President                              Write-in                              Precinct 17                   Tyler                    01 
00040060017000000000000000000000000000000000000000000000000000000000000000000000000000000000000000000NONTylTyl President / Vice-President                              Write-in                              Precinct 18                   Tyler                    01 
00040070001000001000000000000000001000000000000000000000000000000000000000000000000000000000000000000   TylTyl President / Vice-President                              OVER VOTES                            Precinct 1                    Tyler                    01 
00040070002000000000000000000000000000000000000000000000000000000000000000000000000000000000000000000   TylTyl President / Vice-President                              OVER VOTES                            Precinct 2                    Tyler                    01 
00040070003000000000000000000000000000000000000000000000000000000000000000000000000000000000000000000   TylTyl President / Vice-President                              OVER VOTES                            Precinct 3                    Tyler                    01 
00040070004000000000000000000000000000000000000000000000000000000000000000000000000000000000000000000   TylTyl President / Vice-President                              OVER VOTES                            Precinct 4                    Tyler                    01 
00040070005000000000000000000000000000000000000000000000000000000000000000000000000000000000000000000   TylTyl President / Vice-President                              OVER VOTES                            Precinct 5                    Tyler                    01 
00040070006000000000000000000000000000000000000000000000000000000000000000000000000000000000000000000   TylTyl President / Vice-President                              OVER VOTES                            Precinct 6                    Tyler                    01 
00040070007000000000000000000000000000000000000000000000000000000000000000000000000000000000000000000   TylTyl President / Vice-President                              OVER VOTES                            Precinct 7                    Tyler                    01 
00040070008000000000000000000000000000000000000000000000000000000000000000000000000000000000000000000   TylTyl President / Vice-President                              OVER VOTES                            Precinct 8                    Tyler                    01 
00040070009000001000000000001000000000000000000000000000000000000000000000000000000000000000000000000   TylTyl President / Vice-President                              OVER VOTES                            Precinct 9                    Tyler                    01 
00040070010000001000000000000000001000000000000000000000000000000000000000000000000000000000000000000   TylTyl President / Vice-President                              OVER VOTES                            Precinct 10                   Tyler                    01 
00040070011000000000000000000000000000000000000000000000000000000000000000000000000000000000000000000   TylTyl President / Vice-President                              OVER VOTES                            Precinct 11                   Tyler                    01 
00040070012000000000000000000000000000000000000000000000000000000000000000000000000000000000000000000   TylTyl President / Vice-President                              OVER VOTES                            Precinct 13                   Tyler                    01 
00040070013000003000000000001000002000000000000000000000000000000000000000000000000000000000000000000   TylTyl President / Vice-President                              OVER VOTES                            Precinct 14                   Tyler                    01 
00040070014000000000000000000000000000000000000000000000000000000000000000000000000000000000000000000   TylTyl President / Vice-President                              OVER VOTES                            Precinct 15                   Tyler                    01 
00040070015000001000000000001000000000000000000000000000000000000000000000000000000000000000000000000   TylTyl President / Vice-President                              OVER VOTES                            Precinct 16                   Tyler                    01 
00040070016000000000000000000000000000000000000000000000000000000000000000000000000000000000000000000   TylTyl President / Vice-President                              OVER VOTES                            Precinct 17                   Tyler                    01 
00040070017000000000000000000000000000000000000000000000000000000000000000000000000000000000000000000   TylTyl President / Vice-President                              OVER VOTES                            Precinct 18                   Tyler                    01 
00040080001000003000000000003000000000000000000000000000000000000000000000000000000000000000000000000   TylTyl President / Vice-President                              UNDER VOTES                           Precinct 1                    Tyler                    01 
00040080002000003000000000001000002000000000000000000000000000000000000000000000000000000000000000000   TylTyl President / Vice-President                              UNDER VOTES                           Precinct 2                    Tyler                    01 
00040080003000003000001000002000000000000000000000000000000000000000000000000000000000000000000000000   TylTyl President / Vice-President                              UNDER VOTES                           Precinct 3                    Tyler                    01 
00040080004000003000001000000000002000000000000000000000000000000000000000000000000000000000000000000   TylTyl President / Vice-President                              UNDER VOTES                           Precinct 4                    Tyler                    01 
00040080005000002000001000000000001000000000000000000000000000000000000000000000000000000000000000000   TylTyl President / Vice-President                              UNDER VOTES                           Precinct 5                    Tyler                    01 
00040080006000000000000000000000000000000000000000000000000000000000000000000000000000000000000000000   TylTyl President / Vice-President                              UNDER VOTES                           Precinct 6                    Tyler                    01 
00040080007000003000000000003000000000000000000000000000000000000000000000000000000000000000000000000   TylTyl President / Vice-President                              UNDER VOTES                           Precinct 7                    Tyler                    01 
00040080008000001000000000001000000000000000000000000000000000000000000000000000000000000000000000000   TylTyl President / Vice-President                              UNDER VOTES                           Precinct 8                    Tyler                    01 
00040080009000000000000000000000000000000000000000000000000000000000000000000000000000000000000000000   TylTyl President / Vice-President                              UNDER VOTES                           Precinct 9                    Tyler                    01 
00040080010000003000000000002000001000000000000000000000000000000000000000000000000000000000000000000   TylTyl President / Vice-President                              UNDER VOTES                           Precinct 10                   Tyler                    01 
00040080011000000000000000000000000000000000000000000000000000000000000000000000000000000000000000000   TylTyl President / Vice-President                              UNDER VOTES                           Precinct 11                   Tyler                    01 
00040080012000001000000000001000000000000000000000000000000000000000000000000000000000000000000000000   TylTyl President / Vice-President                              UNDER VOTES                           Precinct 13                   Tyler                    01 
00040080013000003000000000002000001000000000000000000000000000000000000000000000000000000000000000000   TylTyl President / Vice-President                              UNDER VOTES                           Precinct 14                   Tyler                    01 
00040080014000000000000000000000000000000000000000000000000000000000000000000000000000000000000000000   TylTyl President / Vice-President                              UNDER VOTES                           Precinct 15                   Tyler                    01 
00040080015000001000000000001000000000000000000000000000000000000000000000000000000000000000000000000   TylTyl President / Vice-President                              UNDER VOTES                           Precinct 16                   Tyler                    01 
00040080016000000000000000000000000000000000000000000000000000000000000000000000000000000000000000000   TylTyl President / Vice-President                              UNDER VOTES                           Precinct 17                   Tyler                    01 
00040080017000001000000000001000000000000000000000000000000000000000000000000000000000000000000000000   TylTyl President / Vice-President                              UNDER VOTES                           Precinct 18                   Tyler                    01 
00050010001000418000026000345000047000000000000000000000000000000000000000000000000000000000000000000REPTylTyl US Senator                                              REP John Cornyn                       Precinct 1                    Tyler                    01 
00050010002000369000035000264000070000000000000000000000000000000000000000000000000000000000000000000REPTylTyl US Senator                                              REP John Cornyn                       Precinct 2                    Tyler                    01 
00050010003000758000063000539000156000000000000000000000000000000000000000000000000000000000000000000REPTylTyl US Senator                                              REP John Cornyn                       Precinct 3                    Tyler                    01 
00050010004000837000048000532000257000000000000000000000000000000000000000000000000000000000000000000REPTylTyl US Senator                                              REP John Cornyn                       Precinct 4                    Tyler                    01 
00050010005000089000004000074000011000000000000000000000000000000000000000000000000000000000000000000REPTylTyl US Senator                                              REP John Cornyn                       Precinct 5                    Tyler                    01 
00050010006000286000033000143000110000000000000000000000000000000000000000000000000000000000000000000REPTylTyl US Senator                                              REP John Cornyn                       Precinct 6                    Tyler                    01 
00050010007000417000034000207000176000000000000000000000000000000000000000000000000000000000000000000REPTylTyl US Senator                                              REP John Cornyn                       Precinct 7                    Tyler                    01 
00050010008000140000011000076000053000000000000000000000000000000000000000000000000000000000000000000REPTylTyl US Senator                                              REP John Cornyn                       Precinct 8                    Tyler                    01 
00050010009000291000018000188000085000000000000000000000000000000000000000000000000000000000000000000REPTylTyl US Senator                                              REP John Cornyn                       Precinct 9                    Tyler                    01 
00050010010000842000051000531000260000000000000000000000000000000000000000000000000000000000000000000REPTylTyl US Senator                                              REP John Cornyn                       Precinct 10                   Tyler                    01 
00050010011000072000004000039000029000000000000000000000000000000000000000000000000000000000000000000REPTylTyl US Senator                                              REP John Cornyn                       Precinct 11                   Tyler                    01 
00050010012000384000026000199000159000000000000000000000000000000000000000000000000000000000000000000REPTylTyl US Senator                                              REP John Cornyn                       Precinct 13                   Tyler                    01 
00050010013001002000053000580000369000000000000000000000000000000000000000000000000000000000000000000REPTylTyl US Senator                                              REP John Cornyn                       Precinct 14                   Tyler                    01 
00050010014000659000037000216000406000000000000000000000000000000000000000000000000000000000000000000REPTylTyl US Senator                                              REP John Cornyn                       Precinct 15                   Tyler                    01 
00050010015000376000025000237000114000000000000000000000000000000000000000000000000000000000000000000REPTylTyl US Senator                                              REP John Cornyn                       Precinct 16                   Tyler                    01 
00050010016000228000019000160000049000000000000000000000000000000000000000000000000000000000000000000REPTylTyl US Senator                                              REP John Cornyn                       Precinct 17                   Tyler                    01 
00050010017000748000048000583000117000000000000000000000000000000000000000000000000000000000000000000REPTylTyl US Senator                                              REP John Cornyn                       Precinct 18                   Tyler                    01 
00050020001000074000011000053000010000000000000000000000000000000000000000000000000000000000000000000DEMTylTyl US Senator                                              DEM Mary "MJ" Hegar                   Precinct 1                    Tyler                    01 
00050020002000216000018000157000041000000000000000000000000000000000000000000000000000000000000000000DEMTylTyl US Senator                                              DEM Mary "MJ" Hegar                   Precinct 2                    Tyler                    01 
00050020003000212000045000112000055000000000000000000000000000000000000000000000000000000000000000000DEMTylTyl US Senator                                              DEM Mary "MJ" Hegar                   Precinct 3                    Tyler                    01 
00050020004000104000027000056000021000000000000000000000000000000000000000000000000000000000000000000DEMTylTyl US Senator                                              DEM Mary "MJ" Hegar                   Precinct 4                    Tyler                    01 
00050020005000050000004000034000012000000000000000000000000000000000000000000000000000000000000000000DEMTylTyl US Senator                                              DEM Mary "MJ" Hegar                   Precinct 5                    Tyler                    01 
00050020006000044000017000011000016000000000000000000000000000000000000000000000000000000000000000000DEMTylTyl US Senator                                              DEM Mary "MJ" Hegar                   Precinct 6                    Tyler                    01 
00050020007000040000008000022000010000000000000000000000000000000000000000000000000000000000000000000DEMTylTyl US Senator                                              DEM Mary "MJ" Hegar                   Precinct 7                    Tyler                    01 
00050020008000017000001000011000005000000000000000000000000000000000000000000000000000000000000000000DEMTylTyl US Senator                                              DEM Mary "MJ" Hegar                   Precinct 8                    Tyler                    01 
00050020009000024000005000013000006000000000000000000000000000000000000000000000000000000000000000000DEMTylTyl US Senator                                              DEM Mary "MJ" Hegar                   Precinct 9                    Tyler                    01 
00050020010000116000031000062000023000000000000000000000000000000000000000000000000000000000000000000DEMTylTyl US Senator                                              DEM Mary "MJ" Hegar                   Precinct 10                   Tyler                    01 
00050020011000006000000000001000005000000000000000000000000000000000000000000000000000000000000000000DEMTylTyl US Senator                                              DEM Mary "MJ" Hegar                   Precinct 11                   Tyler                    01 
00050020012000060000009000026000025000000000000000000000000000000000000000000000000000000000000000000DEMTylTyl US Senator                                              DEM Mary "MJ" Hegar                   Precinct 13                   Tyler                    01 
00050020013000105000013000066000026000000000000000000000000000000000000000000000000000000000000000000DEMTylTyl US Senator                                              DEM Mary "MJ" Hegar                   Precinct 14                   Tyler                    01 
00050020014000055000013000023000019000000000000000000000000000000000000000000000000000000000000000000DEMTylTyl US Senator                                              DEM Mary "MJ" Hegar                   Precinct 15                   Tyler                    01 
00050020015000045000009000030000006000000000000000000000000000000000000000000000000000000000000000000DEMTylTyl US Senator                                              DEM Mary "MJ" Hegar                   Precinct 16                   Tyler                    01 
00050020016000089000015000057000017000000000000000000000000000000000000000000000000000000000000000000DEMTylTyl US Senator                                              DEM Mary "MJ" Hegar                   Precinct 17                   Tyler                    01 
00050020017000143000036000090000017000000000000000000000000000000000000000000000000000000000000000000DEMTylTyl US Senator                                              DEM Mary "MJ" Hegar                   Precinct 18                   Tyler                    01 
00050030001000015000001000012000002000000000000000000000000000000000000000000000000000000000000000000LIBTylTyl US Senator                                              LIB Kerry Douglas McKennon            Precinct 1                    Tyler                    01 
00050030002000007000000000003000004000000000000000000000000000000000000000000000000000000000000000000LIBTylTyl US Senator                                              LIB Kerry Douglas McKennon            Precinct 2                    Tyler                    01 
00050030003000013000000000011000002000000000000000000000000000000000000000000000000000000000000000000LIBTylTyl US Senator                                              LIB Kerry Douglas McKennon            Precinct 3                    Tyler                    01 
00050030004000012000000000006000006000000000000000000000000000000000000000000000000000000000000000000LIBTylTyl US Senator                                              LIB Kerry Douglas McKennon            Precinct 4                    Tyler                    01 
00050030005000005000000000003000002000000000000000000000000000000000000000000000000000000000000000000LIBTylTyl US Senator                                              LIB Kerry Douglas McKennon            Precinct 5                    Tyler                    01 
00050030006000004000000000001000003000000000000000000000000000000000000000000000000000000000000000000LIBTylTyl US Senator                                              LIB Kerry Douglas McKennon            Precinct 6                    Tyler                    01 
00050030007000007000000000005000002000000000000000000000000000000000000000000000000000000000000000000LIBTylTyl US Senator                                              LIB Kerry Douglas McKennon            Precinct 7                    Tyler                    01 
00050030008000001000000000001000000000000000000000000000000000000000000000000000000000000000000000000LIBTylTyl US Senator                                              LIB Kerry Douglas McKennon            Precinct 8                    Tyler                    01 
00050030009000005000001000002000002000000000000000000000000000000000000000000000000000000000000000000LIBTylTyl US Senator                                              LIB Kerry Douglas McKennon            Precinct 9                    Tyler                    01 
00050030010000015000000000009000006000000000000000000000000000000000000000000000000000000000000000000LIBTylTyl US Senator                                              LIB Kerry Douglas McKennon            Precinct 10                   Tyler                    01 
00050030011000002000000000001000001000000000000000000000000000000000000000000000000000000000000000000LIBTylTyl US Senator                                              LIB Kerry Douglas McKennon            Precinct 11                   Tyler                    01 
00050030012000004000001000000000003000000000000000000000000000000000000000000000000000000000000000000LIBTylTyl US Senator                                              LIB Kerry Douglas McKennon            Precinct 13                   Tyler                    01 
00050030013000018000001000008000009000000000000000000000000000000000000000000000000000000000000000000LIBTylTyl US Senator                                              LIB Kerry Douglas McKennon            Precinct 14                   Tyler                    01 
00050030014000005000000000002000003000000000000000000000000000000000000000000000000000000000000000000LIBTylTyl US Senator                                              LIB Kerry Douglas McKennon            Precinct 15                   Tyler                    01 
00050030015000015000001000006000008000000000000000000000000000000000000000000000000000000000000000000LIBTylTyl US Senator                                              LIB Kerry Douglas McKennon            Precinct 16                   Tyler                    01 
00050030016000004000000000003000001000000000000000000000000000000000000000000000000000000000000000000LIBTylTyl US Senator                                              LIB Kerry Douglas McKennon            Precinct 17                   Tyler                    01 
00050030017000022000002000018000002000000000000000000000000000000000000000000000000000000000000000000LIBTylTyl US Senator                                              LIB Kerry Douglas McKennon            Precinct 18                   Tyler                    01 
00050040001000003000001000002000000000000000000000000000000000000000000000000000000000000000000000000GRNTylTyl US Senator                                              GRN David B. Collins                  Precinct 1                    Tyler                    01 
00050040002000003000000000003000000000000000000000000000000000000000000000000000000000000000000000000GRNTylTyl US Senator                                              GRN David B. Collins                  Precinct 2                    Tyler                    01 
00050040003000006000000000006000000000000000000000000000000000000000000000000000000000000000000000000GRNTylTyl US Senator                                              GRN David B. Collins                  Precinct 3                    Tyler                    01 
00050040004000006000001000004000001000000000000000000000000000000000000000000000000000000000000000000GRNTylTyl US Senator                                              GRN David B. Collins                  Precinct 4                    Tyler                    01 
00050040005000001000000000001000000000000000000000000000000000000000000000000000000000000000000000000GRNTylTyl US Senator                                              GRN David B. Collins                  Precinct 5                    Tyler                    01 
00050040006000002000001000000000001000000000000000000000000000000000000000000000000000000000000000000GRNTylTyl US Senator                                              GRN David B. Collins                  Precinct 6                    Tyler                    01 
00050040007000002000000000000000002000000000000000000000000000000000000000000000000000000000000000000GRNTylTyl US Senator                                              GRN David B. Collins                  Precinct 7                    Tyler                    01 
00050040008000000000000000000000000000000000000000000000000000000000000000000000000000000000000000000GRNTylTyl US Senator                                              GRN David B. Collins                  Precinct 8                    Tyler                    01 
00050040009000000000000000000000000000000000000000000000000000000000000000000000000000000000000000000GRNTylTyl US Senator                                              GRN David B. Collins                  Precinct 9                    Tyler                    01 
00050040010000005000001000003000001000000000000000000000000000000000000000000000000000000000000000000GRNTylTyl US Senator                                              GRN David B. Collins                  Precinct 10                   Tyler                    01 
00050040011000000000000000000000000000000000000000000000000000000000000000000000000000000000000000000GRNTylTyl US Senator                                              GRN David B. Collins                  Precinct 11                   Tyler                    01 
00050040012000006000000000001000005000000000000000000000000000000000000000000000000000000000000000000GRNTylTyl US Senator                                              GRN David B. Collins                  Precinct 13                   Tyler                    01 
00050040013000006000000000004000002000000000000000000000000000000000000000000000000000000000000000000GRNTylTyl US Senator                                              GRN David B. Collins                  Precinct 14                   Tyler                    01 
00050040014000003000000000000000003000000000000000000000000000000000000000000000000000000000000000000GRNTylTyl US Senator                                              GRN David B. Collins                  Precinct 15                   Tyler                    01 
00050040015000002000000000002000000000000000000000000000000000000000000000000000000000000000000000000GRNTylTyl US Senator                                              GRN David B. Collins                  Precinct 16                   Tyler                    01 
00050040016000003000000000003000000000000000000000000000000000000000000000000000000000000000000000000GRNTylTyl US Senator                                              GRN David B. Collins                  Precinct 17                   Tyler                    01 
00050040017000005000000000004000001000000000000000000000000000000000000000000000000000000000000000000GRNTylTyl US Senator                                              GRN David B. Collins                  Precinct 18                   Tyler                    01 
00050060001000002000000000001000001000000000000000000000000000000000000000000000000000000000000000000NONTylTyl US Senator                                              Write-in                              Precinct 1                    Tyler                    01 
00050060002000000000000000000000000000000000000000000000000000000000000000000000000000000000000000000NONTylTyl US Senator                                              Write-in                              Precinct 2                    Tyler                    01 
00050060003000000000000000000000000000000000000000000000000000000000000000000000000000000000000000000NONTylTyl US Senator                                              Write-in                              Precinct 3                    Tyler                    01 
00050060004000000000000000000000000000000000000000000000000000000000000000000000000000000000000000000NONTylTyl US Senator                                              Write-in                              Precinct 4                    Tyler                    01 
00050060005000000000000000000000000000000000000000000000000000000000000000000000000000000000000000000NONTylTyl US Senator                                              Write-in                              Precinct 5                    Tyler                    01 
00050060006000000000000000000000000000000000000000000000000000000000000000000000000000000000000000000NONTylTyl US Senator                                              Write-in                              Precinct 6                    Tyler                    01 
00050060007000001000000000000000001000000000000000000000000000000000000000000000000000000000000000000NONTylTyl US Senator                                              Write-in                              Precinct 7                    Tyler                    01 
00050060008000000000000000000000000000000000000000000000000000000000000000000000000000000000000000000NONTylTyl US Senator                                              Write-in                              Precinct 8                    Tyler                    01 
00050060009000000000000000000000000000000000000000000000000000000000000000000000000000000000000000000NONTylTyl US Senator                                              Write-in                              Precinct 9                    Tyler                    01 
00050060010000001000000000001000000000000000000000000000000000000000000000000000000000000000000000000NONTylTyl US Senator                                              Write-in                              Precinct 10                   Tyler                    01 
00050060011000000000000000000000000000000000000000000000000000000000000000000000000000000000000000000NONTylTyl US Senator                                              Write-in                              Precinct 11                   Tyler                    01 
00050060012000000000000000000000000000000000000000000000000000000000000000000000000000000000000000000NONTylTyl US Senator                                              Write-in                              Precinct 13                   Tyler                    01 
00050060013000001000000000001000000000000000000000000000000000000000000000000000000000000000000000000NONTylTyl US Senator                                              Write-in                              Precinct 14                   Tyler                    01 
00050060014000000000000000000000000000000000000000000000000000000000000000000000000000000000000000000NONTylTyl US Senator                                              Write-in                              Precinct 15                   Tyler                    01 
00050060015000000000000000000000000000000000000000000000000000000000000000000000000000000000000000000NONTylTyl US Senator                                              Write-in                              Precinct 16                   Tyler                    01 
00050060016000000000000000000000000000000000000000000000000000000000000000000000000000000000000000000NONTylTyl US Senator                                              Write-in                              Precinct 17                   Tyler                    01 
00050060017000000000000000000000000000000000000000000000000000000000000000000000000000000000000000000NONTylTyl US Senator                                              Write-in                              Precinct 18                   Tyler                    01 
00050070001000001000000000000000001000000000000000000000000000000000000000000000000000000000000000000   TylTyl US Senator                                              OVER VOTES                            Precinct 1                    Tyler                    01 
00050070002000001000000000001000000000000000000000000000000000000000000000000000000000000000000000000   TylTyl US Senator                                              OVER VOTES                            Precinct 2                    Tyler                    01 
00050070003000001000000000001000000000000000000000000000000000000000000000000000000000000000000000000   TylTyl US Senator                                              OVER VOTES                            Precinct 3                    Tyler                    01 
00050070004000000000000000000000000000000000000000000000000000000000000000000000000000000000000000000   TylTyl US Senator                                              OVER VOTES                            Precinct 4                    Tyler                    01 
00050070005000000000000000000000000000000000000000000000000000000000000000000000000000000000000000000   TylTyl US Senator                                              OVER VOTES                            Precinct 5                    Tyler                    01 
00050070006000000000000000000000000000000000000000000000000000000000000000000000000000000000000000000   TylTyl US Senator                                              OVER VOTES                            Precinct 6                    Tyler                    01 
00050070007000000000000000000000000000000000000000000000000000000000000000000000000000000000000000000   TylTyl US Senator                                              OVER VOTES                            Precinct 7                    Tyler                    01 
00050070008000000000000000000000000000000000000000000000000000000000000000000000000000000000000000000   TylTyl US Senator                                              OVER VOTES                            Precinct 8                    Tyler                    01 
00050070009000001000000000001000000000000000000000000000000000000000000000000000000000000000000000000   TylTyl US Senator                                              OVER VOTES                            Precinct 9                    Tyler                    01 
00050070010000000000000000000000000000000000000000000000000000000000000000000000000000000000000000000   TylTyl US Senator                                              OVER VOTES                            Precinct 10                   Tyler                    01 
00050070011000000000000000000000000000000000000000000000000000000000000000000000000000000000000000000   TylTyl US Senator                                              OVER VOTES                            Precinct 11                   Tyler                    01 
00050070012000001000000000001000000000000000000000000000000000000000000000000000000000000000000000000   TylTyl US Senator                                              OVER VOTES                            Precinct 13                   Tyler                    01 
00050070013000003000000000001000002000000000000000000000000000000000000000000000000000000000000000000   TylTyl US Senator                                              OVER VOTES                            Precinct 14                   Tyler                    01 
00050070014000000000000000000000000000000000000000000000000000000000000000000000000000000000000000000   TylTyl US Senator                                              OVER VOTES                            Precinct 15                   Tyler                    01 
00050070015000000000000000000000000000000000000000000000000000000000000000000000000000000000000000000   TylTyl US Senator                                              OVER VOTES                            Precinct 16                   Tyler                    01 
00050070016000000000000000000000000000000000000000000000000000000000000000000000000000000000000000000   TylTyl US Senator                                              OVER VOTES                            Precinct 17                   Tyler                    01 
00050070017000000000000000000000000000000000000000000000000000000000000000000000000000000000000000000   TylTyl US Senator                                              OVER VOTES                            Precinct 18                   Tyler                    01 
00050080001000011000001000009000001000000000000000000000000000000000000000000000000000000000000000000   TylTyl US Senator                                              UNDER VOTES                           Precinct 1                    Tyler                    01 
00050080002000013000001000010000002000000000000000000000000000000000000000000000000000000000000000000   TylTyl US Senator                                              UNDER VOTES                           Precinct 2                    Tyler                    01 
00050080003000023000004000016000003000000000000000000000000000000000000000000000000000000000000000000   TylTyl US Senator                                              UNDER VOTES                           Precinct 3                    Tyler                    01 
00050080004000012000001000004000007000000000000000000000000000000000000000000000000000000000000000000   TylTyl US Senator                                              UNDER VOTES                           Precinct 4                    Tyler                    01 
00050080005000006000001000002000003000000000000000000000000000000000000000000000000000000000000000000   TylTyl US Senator                                              UNDER VOTES                           Precinct 5                    Tyler                    01 
00050080006000001000001000000000000000000000000000000000000000000000000000000000000000000000000000000   TylTyl US Senator                                              UNDER VOTES                           Precinct 6                    Tyler                    01 
00050080007000008000000000006000002000000000000000000000000000000000000000000000000000000000000000000   TylTyl US Senator                                              UNDER VOTES                           Precinct 7                    Tyler                    01 
00050080008000004000001000003000000000000000000000000000000000000000000000000000000000000000000000000   TylTyl US Senator                                              UNDER VOTES                           Precinct 8                    Tyler                    01 
00050080009000002000000000001000001000000000000000000000000000000000000000000000000000000000000000000   TylTyl US Senator                                              UNDER VOTES                           Precinct 9                    Tyler                    01 
00050080010000021000005000008000008000000000000000000000000000000000000000000000000000000000000000000   TylTyl US Senator                                              UNDER VOTES                           Precinct 10                   Tyler                    01 
00050080011000002000000000002000000000000000000000000000000000000000000000000000000000000000000000000   TylTyl US Senator                                              UNDER VOTES                           Precinct 11                   Tyler                    01 
00050080012000010000000000003000007000000000000000000000000000000000000000000000000000000000000000000   TylTyl US Senator                                              UNDER VOTES                           Precinct 13                   Tyler                    01 
00050080013000015000000000010000005000000000000000000000000000000000000000000000000000000000000000000   TylTyl US Senator                                              UNDER VOTES                           Precinct 14                   Tyler                    01 
00050080014000006000001000003000002000000000000000000000000000000000000000000000000000000000000000000   TylTyl US Senator                                              UNDER VOTES                           Precinct 15                   Tyler                    01 
00050080015000009000002000004000003000000000000000000000000000000000000000000000000000000000000000000   TylTyl US Senator                                              UNDER VOTES                           Precinct 16                   Tyler                    01 
00050080016000011000004000006000001000000000000000000000000000000000000000000000000000000000000000000   TylTyl US Senator                                              UNDER VOTES                           Precinct 17                   Tyler                    01 
00050080017000017000002000014000001000000000000000000000000000000000000000000000000000000000000000000   TylTyl US Senator                                              UNDER VOTES                           Precinct 18                   Tyler                    01 
00060010001000458000030000374000054000000000000000000000000000000000000000000000000000000000000000000REPTylTyl US Representative, Dist 36 Tyler                        REP Brian Babin                       Precinct 1                    Tyler                    01 
00060010002000410000036000288000086000000000000000000000000000000000000000000000000000000000000000000REPTylTyl US Representative, Dist 36 Tyler                        REP Brian Babin                       Precinct 2                    Tyler                    01 
00060010003000813000069000578000166000000000000000000000000000000000000000000000000000000000000000000REPTylTyl US Representative, Dist 36 Tyler                        REP Brian Babin                       Precinct 3                    Tyler                    01 
00060010004000863000052000544000267000000000000000000000000000000000000000000000000000000000000000000REPTylTyl US Representative, Dist 36 Tyler                        REP Brian Babin                       Precinct 4                    Tyler                    01 
00060010005000099000005000081000013000000000000000000000000000000000000000000000000000000000000000000REPTylTyl US Representative, Dist 36 Tyler                        REP Brian Babin                       Precinct 5                    Tyler                    01 
00060010006000289000032000144000113000000000000000000000000000000000000000000000000000000000000000000REPTylTyl US Representative, Dist 36 Tyler                        REP Brian Babin                       Precinct 6                    Tyler                    01 
00060010007000432000034000214000184000000000000000000000000000000000000000000000000000000000000000000REPTylTyl US Representative, Dist 36 Tyler                        REP Brian Babin                       Precinct 7                    Tyler                    01 
00060010008000145000012000080000053000000000000000000000000000000000000000000000000000000000000000000REPTylTyl US Representative, Dist 36 Tyler                        REP Brian Babin                       Precinct 8                    Tyler                    01 
00060010009000295000019000189000087000000000000000000000000000000000000000000000000000000000000000000REPTylTyl US Representative, Dist 36 Tyler                        REP Brian Babin                       Precinct 9                    Tyler                    01 
00060010010000894000059000559000276000000000000000000000000000000000000000000000000000000000000000000REPTylTyl US Representative, Dist 36 Tyler                        REP Brian Babin                       Precinct 10                   Tyler                    01 
00060010011000073000004000039000030000000000000000000000000000000000000000000000000000000000000000000REPTylTyl US Representative, Dist 36 Tyler                        REP Brian Babin                       Precinct 11                   Tyler                    01 
00060010012000399000028000203000168000000000000000000000000000000000000000000000000000000000000000000REPTylTyl US Representative, Dist 36 Tyler                        REP Brian Babin                       Precinct 13                   Tyler                    01 
00060010013001050000056000609000385000000000000000000000000000000000000000000000000000000000000000000REPTylTyl US Representative, Dist 36 Tyler                        REP Brian Babin                       Precinct 14                   Tyler                    01 
00060010014000674000042000217000415000000000000000000000000000000000000000000000000000000000000000000REPTylTyl US Representative, Dist 36 Tyler                        REP Brian Babin                       Precinct 15                   Tyler                    01 
00060010015000396000027000246000123000000000000000000000000000000000000000000000000000000000000000000REPTylTyl US Representative, Dist 36 Tyler                        REP Brian Babin                       Precinct 16                   Tyler                    01 
00060010016000254000023000178000053000000000000000000000000000000000000000000000000000000000000000000REPTylTyl US Representative, Dist 36 Tyler                        REP Brian Babin                       Precinct 17                   Tyler                    01 
00060010017000792000057000616000119000000000000000000000000000000000000000000000000000000000000000000REPTylTyl US Representative, Dist 36 Tyler                        REP Brian Babin                       Precinct 18                   Tyler                    01 
00060020001000054000009000038000007000000000000000000000000000000000000000000000000000000000000000000DEMTylTyl US Representative, Dist 36 Tyler                        DEM Rashad Lewis                      Precinct 1                    Tyler                    01 
00060020002000185000018000140000027000000000000000000000000000000000000000000000000000000000000000000DEMTylTyl US Representative, Dist 36 Tyler                        DEM Rashad Lewis                      Precinct 2                    Tyler                    01 
00060020003000167000041000083000043000000000000000000000000000000000000000000000000000000000000000000DEMTylTyl US Representative, Dist 36 Tyler                        DEM Rashad Lewis                      Precinct 3                    Tyler                    01 
00060020004000084000024000046000014000000000000000000000000000000000000000000000000000000000000000000DEMTylTyl US Representative, Dist 36 Tyler                        DEM Rashad Lewis                      Precinct 4                    Tyler                    01 
00060020005000047000004000030000013000000000000000000000000000000000000000000000000000000000000000000DEMTylTyl US Representative, Dist 36 Tyler                        DEM Rashad Lewis                      Precinct 5                    Tyler                    01 
00060020006000042000017000010000015000000000000000000000000000000000000000000000000000000000000000000DEMTylTyl US Representative, Dist 36 Tyler                        DEM Rashad Lewis                      Precinct 6                    Tyler                    01 
00060020007000034000008000020000006000000000000000000000000000000000000000000000000000000000000000000DEMTylTyl US Representative, Dist 36 Tyler                        DEM Rashad Lewis                      Precinct 7                    Tyler                    01 
00060020008000013000001000010000002000000000000000000000000000000000000000000000000000000000000000000DEMTylTyl US Representative, Dist 36 Tyler                        DEM Rashad Lewis                      Precinct 8                    Tyler                    01 
00060020009000024000005000013000006000000000000000000000000000000000000000000000000000000000000000000DEMTylTyl US Representative, Dist 36 Tyler                        DEM Rashad Lewis                      Precinct 9                    Tyler                    01 
00060020010000081000026000042000013000000000000000000000000000000000000000000000000000000000000000000DEMTylTyl US Representative, Dist 36 Tyler                        DEM Rashad Lewis                      Precinct 10                   Tyler                    01 
00060020011000003000000000000000003000000000000000000000000000000000000000000000000000000000000000000DEMTylTyl US Representative, Dist 36 Tyler                        DEM Rashad Lewis                      Precinct 11                   Tyler                    01 
00060020012000046000007000022000017000000000000000000000000000000000000000000000000000000000000000000DEMTylTyl US Representative, Dist 36 Tyler                        DEM Rashad Lewis                      Precinct 13                   Tyler                    01 
00060020013000080000008000051000021000000000000000000000000000000000000000000000000000000000000000000DEMTylTyl US Representative, Dist 36 Tyler                        DEM Rashad Lewis                      Precinct 14                   Tyler                    01 
00060020014000043000008000022000013000000000000000000000000000000000000000000000000000000000000000000DEMTylTyl US Representative, Dist 36 Tyler                        DEM Rashad Lewis                      Precinct 15                   Tyler                    01 
00060020015000039000009000026000004000000000000000000000000000000000000000000000000000000000000000000DEMTylTyl US Representative, Dist 36 Tyler                        DEM Rashad Lewis                      Precinct 16                   Tyler                    01 
00060020016000075000015000049000011000000000000000000000000000000000000000000000000000000000000000000DEMTylTyl US Representative, Dist 36 Tyler                        DEM Rashad Lewis                      Precinct 17                   Tyler                    01 
00060020017000113000029000071000013000000000000000000000000000000000000000000000000000000000000000000DEMTylTyl US Representative, Dist 36 Tyler                        DEM Rashad Lewis                      Precinct 18                   Tyler                    01 
00060030001000008000001000006000001000000000000000000000000000000000000000000000000000000000000000000LIBTylTyl US Representative, Dist 36 Tyler                        LIB Chad Abbey                        Precinct 1                    Tyler                    01 
00060030002000006000000000004000002000000000000000000000000000000000000000000000000000000000000000000LIBTylTyl US Representative, Dist 36 Tyler                        LIB Chad Abbey                        Precinct 2                    Tyler                    01 
00060030003000009000000000005000004000000000000000000000000000000000000000000000000000000000000000000LIBTylTyl US Representative, Dist 36 Tyler                        LIB Chad Abbey                        Precinct 3                    Tyler                    01 
00060030004000009000000000004000005000000000000000000000000000000000000000000000000000000000000000000LIBTylTyl US Representative, Dist 36 Tyler                        LIB Chad Abbey                        Precinct 4                    Tyler                    01 
00060030005000001000000000001000000000000000000000000000000000000000000000000000000000000000000000000LIBTylTyl US Representative, Dist 36 Tyler                        LIB Chad Abbey                        Precinct 5                    Tyler                    01 
00060030006000002000000000001000001000000000000000000000000000000000000000000000000000000000000000000LIBTylTyl US Representative, Dist 36 Tyler                        LIB Chad Abbey                        Precinct 6                    Tyler                    01 
00060030007000003000000000002000001000000000000000000000000000000000000000000000000000000000000000000LIBTylTyl US Representative, Dist 36 Tyler                        LIB Chad Abbey                        Precinct 7                    Tyler                    01 
00060030008000003000000000000000003000000000000000000000000000000000000000000000000000000000000000000LIBTylTyl US Representative, Dist 36 Tyler                        LIB Chad Abbey                        Precinct 8                    Tyler                    01 
00060030009000003000000000002000001000000000000000000000000000000000000000000000000000000000000000000LIBTylTyl US Representative, Dist 36 Tyler                        LIB Chad Abbey                        Precinct 9                    Tyler                    01 
00060030010000009000000000007000002000000000000000000000000000000000000000000000000000000000000000000LIBTylTyl US Representative, Dist 36 Tyler                        LIB Chad Abbey                        Precinct 10                   Tyler                    01 
00060030011000003000000000001000002000000000000000000000000000000000000000000000000000000000000000000LIBTylTyl US Representative, Dist 36 Tyler                        LIB Chad Abbey                        Precinct 11                   Tyler                    01 
00060030012000008000001000003000004000000000000000000000000000000000000000000000000000000000000000000LIBTylTyl US Representative, Dist 36 Tyler                        LIB Chad Abbey                        Precinct 13                   Tyler                    01 
00060030013000009000002000003000004000000000000000000000000000000000000000000000000000000000000000000LIBTylTyl US Representative, Dist 36 Tyler                        LIB Chad Abbey                        Precinct 14                   Tyler                    01 
00060030014000008000000000003000005000000000000000000000000000000000000000000000000000000000000000000LIBTylTyl US Representative, Dist 36 Tyler                        LIB Chad Abbey                        Precinct 15                   Tyler                    01 
00060030015000003000001000001000001000000000000000000000000000000000000000000000000000000000000000000LIBTylTyl US Representative, Dist 36 Tyler                        LIB Chad Abbey                        Precinct 16                   Tyler                    01 
00060030016000005000000000002000003000000000000000000000000000000000000000000000000000000000000000000LIBTylTyl US Representative, Dist 36 Tyler                        LIB Chad Abbey                        Precinct 17                   Tyler                    01 
00060030017000018000000000014000004000000000000000000000000000000000000000000000000000000000000000000LIBTylTyl US Representative, Dist 36 Tyler                        LIB Chad Abbey                        Precinct 18                   Tyler                    01 
00060040001000001000000000001000000000000000000000000000000000000000000000000000000000000000000000000GRNTylTyl US Representative, Dist 36 Tyler                        GRN Hal J. Ridley Jr                  Precinct 1                    Tyler                    01 
00060040002000000000000000000000000000000000000000000000000000000000000000000000000000000000000000000GRNTylTyl US Representative, Dist 36 Tyler                        GRN Hal J. Ridley Jr                  Precinct 2                    Tyler                    01 
00060040003000008000000000008000000000000000000000000000000000000000000000000000000000000000000000000GRNTylTyl US Representative, Dist 36 Tyler                        GRN Hal J. Ridley Jr                  Precinct 3                    Tyler                    01 
00060040004000004000000000002000002000000000000000000000000000000000000000000000000000000000000000000GRNTylTyl US Representative, Dist 36 Tyler                        GRN Hal J. Ridley Jr                  Precinct 4                    Tyler                    01 
00060040005000000000000000000000000000000000000000000000000000000000000000000000000000000000000000000GRNTylTyl US Representative, Dist 36 Tyler                        GRN Hal J. Ridley Jr                  Precinct 5                    Tyler                    01 
00060040006000002000001000000000001000000000000000000000000000000000000000000000000000000000000000000GRNTylTyl US Representative, Dist 36 Tyler                        GRN Hal J. Ridley Jr                  Precinct 6                    Tyler                    01 
00060040007000002000000000001000001000000000000000000000000000000000000000000000000000000000000000000GRNTylTyl US Representative, Dist 36 Tyler                        GRN Hal J. Ridley Jr                  Precinct 7                    Tyler                    01 
00060040008000000000000000000000000000000000000000000000000000000000000000000000000000000000000000000GRNTylTyl US Representative, Dist 36 Tyler                        GRN Hal J. Ridley Jr                  Precinct 8                    Tyler                    01 
00060040009000000000000000000000000000000000000000000000000000000000000000000000000000000000000000000GRNTylTyl US Representative, Dist 36 Tyler                        GRN Hal J. Ridley Jr                  Precinct 9                    Tyler                    01 
00060040010000004000001000001000002000000000000000000000000000000000000000000000000000000000000000000GRNTylTyl US Representative, Dist 36 Tyler                        GRN Hal J. Ridley Jr                  Precinct 10                   Tyler                    01 
00060040011000001000000000001000000000000000000000000000000000000000000000000000000000000000000000000GRNTylTyl US Representative, Dist 36 Tyler                        GRN Hal J. Ridley Jr                  Precinct 11                   Tyler                    01 
00060040012000005000000000000000005000000000000000000000000000000000000000000000000000000000000000000GRNTylTyl US Representative, Dist 36 Tyler                        GRN Hal J. Ridley Jr                  Precinct 13                   Tyler                    01 
00060040013000001000000000001000000000000000000000000000000000000000000000000000000000000000000000000GRNTylTyl US Representative, Dist 36 Tyler                        GRN Hal J. Ridley Jr                  Precinct 14                   Tyler                    01 
00060040014000000000000000000000000000000000000000000000000000000000000000000000000000000000000000000GRNTylTyl US Representative, Dist 36 Tyler                        GRN Hal J. Ridley Jr                  Precinct 15                   Tyler                    01 
00060040015000004000000000002000002000000000000000000000000000000000000000000000000000000000000000000GRNTylTyl US Representative, Dist 36 Tyler                        GRN Hal J. Ridley Jr                  Precinct 16                   Tyler                    01 
00060040016000000000000000000000000000000000000000000000000000000000000000000000000000000000000000000GRNTylTyl US Representative, Dist 36 Tyler                        GRN Hal J. Ridley Jr                  Precinct 17                   Tyler                    01 
00060040017000003000001000002000000000000000000000000000000000000000000000000000000000000000000000000GRNTylTyl US Representative, Dist 36 Tyler                        GRN Hal J. Ridley Jr                  Precinct 18                   Tyler                    01 
00060050001000000000000000000000000000000000000000000000000000000000000000000000000000000000000000000   TylTyl US Representative, Dist 36 Tyler                        OVER VOTES                            Precinct 1                    Tyler                    01 
00060050002000000000000000000000000000000000000000000000000000000000000000000000000000000000000000000   TylTyl US Representative, Dist 36 Tyler                        OVER VOTES                            Precinct 2                    Tyler                    01 
00060050003000003000000000002000001000000000000000000000000000000000000000000000000000000000000000000   TylTyl US Representative, Dist 36 Tyler                        OVER VOTES                            Precinct 3                    Tyler                    01 
00060050004000002000000000002000000000000000000000000000000000000000000000000000000000000000000000000   TylTyl US Representative, Dist 36 Tyler                        OVER VOTES                            Precinct 4                    Tyler                    01 
00060050005000001000000000001000000000000000000000000000000000000000000000000000000000000000000000000   TylTyl US Representative, Dist 36 Tyler                        OVER VOTES                            Precinct 5                    Tyler                    01 
00060050006000000000000000000000000000000000000000000000000000000000000000000000000000000000000000000   TylTyl US Representative, Dist 36 Tyler                        OVER VOTES                            Precinct 6                    Tyler                    01 
00060050007000000000000000000000000000000000000000000000000000000000000000000000000000000000000000000   TylTyl US Representative, Dist 36 Tyler                        OVER VOTES                            Precinct 7                    Tyler                    01 
00060050008000000000000000000000000000000000000000000000000000000000000000000000000000000000000000000   TylTyl US Representative, Dist 36 Tyler                        OVER VOTES                            Precinct 8                    Tyler                    01 
00060050009000000000000000000000000000000000000000000000000000000000000000000000000000000000000000000   TylTyl US Representative, Dist 36 Tyler                        OVER VOTES                            Precinct 9                    Tyler                    01 
00060050010000002000000000002000000000000000000000000000000000000000000000000000000000000000000000000   TylTyl US Representative, Dist 36 Tyler                        OVER VOTES                            Precinct 10                   Tyler                    01 
00060050011000000000000000000000000000000000000000000000000000000000000000000000000000000000000000000   TylTyl US Representative, Dist 36 Tyler                        OVER VOTES                            Precinct 11                   Tyler                    01 
00060050012000000000000000000000000000000000000000000000000000000000000000000000000000000000000000000   TylTyl US Representative, Dist 36 Tyler                        OVER VOTES                            Precinct 13                   Tyler                    01 
