00010010001000000000000000000000000000000000000000000000000000000000000000000000000000000000000000000          REGISTERED VOTERS - TOTAL                               REGISTERED VOTERS - TOTAL             Precinct 1 Voting Box 1                                00 
00010010002000000000000000000000000000000000000000000000000000000000000000000000000000000000000000000          REGISTERED VOTERS - TOTAL                               REGISTERED VOTERS - TOTAL             Precinct 1 Voting Box 5                                00 
00010010003000000000000000000000000000000000000000000000000000000000000000000000000000000000000000000          REGISTERED VOTERS - TOTAL                               REGISTERED VOTERS - TOTAL             Precinct 2 Voting Box 2                                00 
00010010004000000000000000000000000000000000000000000000000000000000000000000000000000000000000000000          REGISTERED VOTERS - TOTAL                               REGISTERED VOTERS - TOTAL             Precinct 2 Voting Box 6                                00 
00010010005000000000000000000000000000000000000000000000000000000000000000000000000000000000000000000          REGISTERED VOTERS - TOTAL                               REGISTERED VOTERS - TOTAL             Precinct 3 Voting Box 3                                00 
00010010006000000000000000000000000000000000000000000000000000000000000000000000000000000000000000000          REGISTERED VOTERS - TOTAL                               REGISTERED VOTERS - TOTAL             Precinct 4 Voting Box 4                                00 
00020010001000317000014000268000035000000000000000000000000000000000000000000000000000000000000000000          BALLOTS CAST - TOTAL                                    BALLOTS CAST - TOTAL                  Precinct 1 Voting Box 1                                00 
00020010002000062000001000006000055000000000000000000000000000000000000000000000000000000000000000000          BALLOTS CAST - TOTAL                                    BALLOTS CAST - TOTAL                  Precinct 1 Voting Box 5                                00 
00020010003000168000003000139000026000000000000000000000000000000000000000000000000000000000000000000          BALLOTS CAST - TOTAL                                    BALLOTS CAST - TOTAL                  Precinct 2 Voting Box 2                                00 
00020010004000171000007000121000043000000000000000000000000000000000000000000000000000000000000000000          BALLOTS CAST - TOTAL                                    BALLOTS CAST - TOTAL                  Precinct 2 Voting Box 6                                00 
00020010005000282000014000190000078000000000000000000000000000000000000000000000000000000000000000000          BALLOTS CAST - TOTAL                                    BALLOTS CAST - TOTAL                  Precinct 3 Voting Box 3                                00 
00020010006000362000023000274000065000000000000000000000000000000000000000000000000000000000000000000          BALLOTS CAST - TOTAL                                    BALLOTS CAST - TOTAL                  Precinct 4 Voting Box 4                                00 
00030010001000000000000000000000000000000000000000000000000000000000000000000000000000000000000000000          BALLOTS CAST - BLANK                                    BALLOTS CAST - BLANK                  Precinct 1 Voting Box 1                                00 
00030010002000000000000000000000000000000000000000000000000000000000000000000000000000000000000000000          BALLOTS CAST - BLANK                                    BALLOTS CAST - BLANK                  Precinct 1 Voting Box 5                                00 
00030010003000000000000000000000000000000000000000000000000000000000000000000000000000000000000000000          BALLOTS CAST - BLANK                                    BALLOTS CAST - BLANK                  Precinct 2 Voting Box 2                                00 
00030010004000000000000000000000000000000000000000000000000000000000000000000000000000000000000000000          BALLOTS CAST - BLANK                                    BALLOTS CAST - BLANK                  Precinct 2 Voting Box 6                                00 
00030010005000000000000000000000000000000000000000000000000000000000000000000000000000000000000000000          BALLOTS CAST - BLANK                                    BALLOTS CAST - BLANK                  Precinct 3 Voting Box 3                                00 
00030010006000000000000000000000000000000000000000000000000000000000000000000000000000000000000000000          BALLOTS CAST - BLANK                                    BALLOTS CAST - BLANK                  Precinct 4 Voting Box 4                                00 
00040010001000281000011000238000032000000000000000000000000000000000000000000000000000000000000000000REP       President / Vice-President                              REP Donald J. Trump / Michael R. PencePrecinct 1 Voting Box 1                                01 
00040010002000058000001000006000051000000000000000000000000000000000000000000000000000000000000000000REP       President / Vice-President                              REP Donald J. Trump / Michael R. PencePrecinct 1 Voting Box 5                                01 
00040010003000153000001000126000026000000000000000000000000000000000000000000000000000000000000000000REP       President / Vice-President                              REP Donald J. Trump / Michael R. PencePrecinct 2 Voting Box 2                                01 
00040010004000148000006000105000037000000000000000000000000000000000000000000000000000000000000000000REP       President / Vice-President                              REP Donald J. Trump / Michael R. PencePrecinct 2 Voting Box 6                                01 
00040010005000225000008000151000066000000000000000000000000000000000000000000000000000000000000000000REP       President / Vice-President                              REP Donald J. Trump / Michael R. PencePrecinct 3 Voting Box 3                                01 
00040010006000305000017000234000054000000000000000000000000000000000000000000000000000000000000000000REP       President / Vice-President                              REP Donald J. Trump / Michael R. PencePrecinct 4 Voting Box 4                                01 
00040020001000032000003000026000003000000000000000000000000000000000000000000000000000000000000000000DEM       President / Vice-President                              DEM Joseph R. Biden / Kamala D. HarrisPrecinct 1 Voting Box 1                                01 
00040020002000004000000000000000004000000000000000000000000000000000000000000000000000000000000000000DEM       President / Vice-President                              DEM Joseph R. Biden / Kamala D. HarrisPrecinct 1 Voting Box 5                                01 
00040020003000013000002000011000000000000000000000000000000000000000000000000000000000000000000000000DEM       President / Vice-President                              DEM Joseph R. Biden / Kamala D. HarrisPrecinct 2 Voting Box 2                                01 
00040020004000017000001000013000003000000000000000000000000000000000000000000000000000000000000000000DEM       President / Vice-President                              DEM Joseph R. Biden / Kamala D. HarrisPrecinct 2 Voting Box 6                                01 
00040020005000051000006000033000012000000000000000000000000000000000000000000000000000000000000000000DEM       President / Vice-President                              DEM Joseph R. Biden / Kamala D. HarrisPrecinct 3 Voting Box 3                                01 
00040020006000052000006000036000010000000000000000000000000000000000000000000000000000000000000000000DEM       President / Vice-President                              DEM Joseph R. Biden / Kamala D. HarrisPrecinct 4 Voting Box 4                                01 
00040030001000003000000000003000000000000000000000000000000000000000000000000000000000000000000000000LIB       President / Vice-President                              LIB Jo Jorgensen / Jeremy "Spike" CohePrecinct 1 Voting Box 1                                01 
00040030002000000000000000000000000000000000000000000000000000000000000000000000000000000000000000000LIB       President / Vice-President                              LIB Jo Jorgensen / Jeremy "Spike" CohePrecinct 1 Voting Box 5                                01 
00040030003000000000000000000000000000000000000000000000000000000000000000000000000000000000000000000LIB       President / Vice-President                              LIB Jo Jorgensen / Jeremy "Spike" CohePrecinct 2 Voting Box 2                                01 
00040030004000003000000000001000002000000000000000000000000000000000000000000000000000000000000000000LIB       President / Vice-President                              LIB Jo Jorgensen / Jeremy "Spike" CohePrecinct 2 Voting Box 6                                01 
00040030005000003000000000003000000000000000000000000000000000000000000000000000000000000000000000000LIB       President / Vice-President                              LIB Jo Jorgensen / Jeremy "Spike" CohePrecinct 3 Voting Box 3                                01 
00040030006000004000000000003000001000000000000000000000000000000000000000000000000000000000000000000LIB       President / Vice-President                              LIB Jo Jorgensen / Jeremy "Spike" CohePrecinct 4 Voting Box 4                                01 
00040040001000001000000000001000000000000000000000000000000000000000000000000000000000000000000000000GRN       President / Vice-President                              GRN Howie Hawkins / Angela Walker     Precinct 1 Voting Box 1                                01 
00040040002000000000000000000000000000000000000000000000000000000000000000000000000000000000000000000GRN       President / Vice-President                              GRN Howie Hawkins / Angela Walker     Precinct 1 Voting Box 5                                01 
00040040003000001000000000001000000000000000000000000000000000000000000000000000000000000000000000000GRN       President / Vice-President                              GRN Howie Hawkins / Angela Walker     Precinct 2 Voting Box 2                                01 
00040040004000003000000000002000001000000000000000000000000000000000000000000000000000000000000000000GRN       President / Vice-President                              GRN Howie Hawkins / Angela Walker     Precinct 2 Voting Box 6                                01 
00040040005000002000000000002000000000000000000000000000000000000000000000000000000000000000000000000GRN       President / Vice-President                              GRN Howie Hawkins / Angela Walker     Precinct 3 Voting Box 3                                01 
00040040006000000000000000000000000000000000000000000000000000000000000000000000000000000000000000000GRN       President / Vice-President                              GRN Howie Hawkins / Angela Walker     Precinct 4 Voting Box 4                                01 
00040060001000000000000000000000000000000000000000000000000000000000000000000000000000000000000000000NON       President / Vice-President                              Write-in                              Precinct 1 Voting Box 1                                01 
00040060002000000000000000000000000000000000000000000000000000000000000000000000000000000000000000000NON       President / Vice-President                              Write-in                              Precinct 1 Voting Box 5                                01 
00040060003000000000000000000000000000000000000000000000000000000000000000000000000000000000000000000NON       President / Vice-President                              Write-in                              Precinct 2 Voting Box 2                                01 
00040060004000000000000000000000000000000000000000000000000000000000000000000000000000000000000000000NON       President / Vice-President                              Write-in                              Precinct 2 Voting Box 6                                01 
00040060005000000000000000000000000000000000000000000000000000000000000000000000000000000000000000000NON       President / Vice-President                              Write-in                              Precinct 3 Voting Box 3                                01 
00040060006000000000000000000000000000000000000000000000000000000000000000000000000000000000000000000NON       President / Vice-President                              Write-in                              Precinct 4 Voting Box 4                                01 
00040070001000000000000000000000000000000000000000000000000000000000000000000000000000000000000000000          President / Vice-President                              OVER VOTES                            Precinct 1 Voting Box 1                                01 
00040070002000000000000000000000000000000000000000000000000000000000000000000000000000000000000000000          President / Vice-President                              OVER VOTES                            Precinct 1 Voting Box 5                                01 
00040070003000000000000000000000000000000000000000000000000000000000000000000000000000000000000000000          President / Vice-President                              OVER VOTES                            Precinct 2 Voting Box 2                                01 
00040070004000000000000000000000000000000000000000000000000000000000000000000000000000000000000000000          President / Vice-President                              OVER VOTES                            Precinct 2 Voting Box 6                                01 
00040070005000000000000000000000000000000000000000000000000000000000000000000000000000000000000000000          President / Vice-President                              OVER VOTES                            Precinct 3 Voting Box 3                                01 
00040070006000000000000000000000000000000000000000000000000000000000000000000000000000000000000000000          President / Vice-President                              OVER VOTES                            Precinct 4 Voting Box 4                                01 
00040080001000000000000000000000000000000000000000000000000000000000000000000000000000000000000000000          President / Vice-President                              UNDER VOTES                           Precinct 1 Voting Box 1                                01 
00040080002000000000000000000000000000000000000000000000000000000000000000000000000000000000000000000          President / Vice-President                              UNDER VOTES                           Precinct 1 Voting Box 5                                01 
00040080003000001000000000001000000000000000000000000000000000000000000000000000000000000000000000000          President / Vice-President                              UNDER VOTES                           Precinct 2 Voting Box 2                                01 
00040080004000000000000000000000000000000000000000000000000000000000000000000000000000000000000000000          President / Vice-President                              UNDER VOTES                           Precinct 2 Voting Box 6                                01 
00040080005000001000000000001000000000000000000000000000000000000000000000000000000000000000000000000          President / Vice-President                              UNDER VOTES                           Precinct 3 Voting Box 3                                01 
00040080006000001000000000001000000000000000000000000000000000000000000000000000000000000000000000000          President / Vice-President                              UNDER VOTES                           Precinct 4 Voting Box 4                                01 
00050010001000266000012000223000031000000000000000000000000000000000000000000000000000000000000000000REP       US Senator                                              REP John Cornyn                       Precinct 1 Voting Box 1                                01 
00050010002000058000001000006000051000000000000000000000000000000000000000000000000000000000000000000REP       US Senator                                              REP John Cornyn                       Precinct 1 Voting Box 5                                01 
00050010003000150000000000126000024000000000000000000000000000000000000000000000000000000000000000000REP       US Senator                                              REP John Cornyn                       Precinct 2 Voting Box 2                                01 
00050010004000141000006000100000035000000000000000000000000000000000000000000000000000000000000000000REP       US Senator                                              REP John Cornyn                       Precinct 2 Voting Box 6                                01 
00050010005000225000010000152000063000000000000000000000000000000000000000000000000000000000000000000REP       US Senator                                              REP John Cornyn                       Precinct 3 Voting Box 3                                01 
00050010006000299000017000228000054000000000000000000000000000000000000000000000000000000000000000000REP       US Senator                                              REP John Cornyn                       Precinct 4 Voting Box 4                                01 
00050020001000032000002000026000004000000000000000000000000000000000000000000000000000000000000000000DEM       US Senator                                              DEM Mary "MJ" Hegar                   Precinct 1 Voting Box 1                                01 
00050020002000004000000000000000004000000000000000000000000000000000000000000000000000000000000000000DEM       US Senator                                              DEM Mary "MJ" Hegar                   Precinct 1 Voting Box 5                                01 
00050020003000013000002000010000001000000000000000000000000000000000000000000000000000000000000000000DEM       US Senator                                              DEM Mary "MJ" Hegar                   Precinct 2 Voting Box 2                                01 
00050020004000019000001000011000007000000000000000000000000000000000000000000000000000000000000000000DEM       US Senator                                              DEM Mary "MJ" Hegar                   Precinct 2 Voting Box 6                                01 
00050020005000042000004000028000010000000000000000000000000000000000000000000000000000000000000000000DEM       US Senator                                              DEM Mary "MJ" Hegar                   Precinct 3 Voting Box 3                                01 
00050020006000049000006000035000008000000000000000000000000000000000000000000000000000000000000000000DEM       US Senator                                              DEM Mary "MJ" Hegar                   Precinct 4 Voting Box 4                                01 
00050030001000006000000000006000000000000000000000000000000000000000000000000000000000000000000000000LIB       US Senator                                              LIB Kerry Douglas McKennon            Precinct 1 Voting Box 1                                01 
00050030002000000000000000000000000000000000000000000000000000000000000000000000000000000000000000000LIB       US Senator                                              LIB Kerry Douglas McKennon            Precinct 1 Voting Box 5                                01 
00050030003000000000000000000000000000000000000000000000000000000000000000000000000000000000000000000LIB       US Senator                                              LIB Kerry Douglas McKennon            Precinct 2 Voting Box 2                                01 
00050030004000002000000000002000000000000000000000000000000000000000000000000000000000000000000000000LIB       US Senator                                              LIB Kerry Douglas McKennon            Precinct 2 Voting Box 6                                01 
00050030005000004000000000003000001000000000000000000000000000000000000000000000000000000000000000000LIB       US Senator                                              LIB Kerry Douglas McKennon            Precinct 3 Voting Box 3                                01 
00050030006000006000000000003000003000000000000000000000000000000000000000000000000000000000000000000LIB       US Senator                                              LIB Kerry Douglas McKennon            Precinct 4 Voting Box 4                                01 
00050040001000004000000000004000000000000000000000000000000000000000000000000000000000000000000000000GRN       US Senator                                              GRN David B. Collins                  Precinct 1 Voting Box 1                                01 
00050040002000000000000000000000000000000000000000000000000000000000000000000000000000000000000000000GRN       US Senator                                              GRN David B. Collins                  Precinct 1 Voting Box 5                                01 
00050040003000000000000000000000000000000000000000000000000000000000000000000000000000000000000000000GRN       US Senator                                              GRN David B. Collins                  Precinct 2 Voting Box 2                                01 
00050040004000004000000000003000001000000000000000000000000000000000000000000000000000000000000000000GRN       US Senator                                              GRN David B. Collins                  Precinct 2 Voting Box 6                                01 
00050040005000003000000000002000001000000000000000000000000000000000000000000000000000000000000000000GRN       US Senator                                              GRN David B. Collins                  Precinct 3 Voting Box 3                                01 
00050040006000000000000000000000000000000000000000000000000000000000000000000000000000000000000000000GRN       US Senator                                              GRN David B. Collins                  Precinct 4 Voting Box 4                                01 
00050060001000000000000000000000000000000000000000000000000000000000000000000000000000000000000000000NON       US Senator                                              Write-in                              Precinct 1 Voting Box 1                                01 
00050060002000000000000000000000000000000000000000000000000000000000000000000000000000000000000000000NON       US Senator                                              Write-in                              Precinct 1 Voting Box 5                                01 
00050060003000000000000000000000000000000000000000000000000000000000000000000000000000000000000000000NON       US Senator                                              Write-in                              Precinct 2 Voting Box 2                                01 
00050060004000000000000000000000000000000000000000000000000000000000000000000000000000000000000000000NON       US Senator                                              Write-in                              Precinct 2 Voting Box 6                                01 
00050060005000000000000000000000000000000000000000000000000000000000000000000000000000000000000000000NON       US Senator                                              Write-in                              Precinct 3 Voting Box 3                                01 
00050060006000000000000000000000000000000000000000000000000000000000000000000000000000000000000000000NON       US Senator                                              Write-in                              Precinct 4 Voting Box 4                                01 
00050070001000000000000000000000000000000000000000000000000000000000000000000000000000000000000000000          US Senator                                              OVER VOTES                            Precinct 1 Voting Box 1                                01 
00050070002000000000000000000000000000000000000000000000000000000000000000000000000000000000000000000          US Senator                                              OVER VOTES                            Precinct 1 Voting Box 5                                01 
00050070003000000000000000000000000000000000000000000000000000000000000000000000000000000000000000000          US Senator                                              OVER VOTES                            Precinct 2 Voting Box 2                                01 
00050070004000000000000000000000000000000000000000000000000000000000000000000000000000000000000000000          US Senator                                              OVER VOTES                            Precinct 2 Voting Box 6                                01 
00050070005000000000000000000000000000000000000000000000000000000000000000000000000000000000000000000          US Senator                                              OVER VOTES                            Precinct 3 Voting Box 3                                01 
00050070006000000000000000000000000000000000000000000000000000000000000000000000000000000000000000000          US Senator                                              OVER VOTES                            Precinct 4 Voting Box 4                                01 
00050080001000009000000000009000000000000000000000000000000000000000000000000000000000000000000000000          US Senator                                              UNDER VOTES                           Precinct 1 Voting Box 1                                01 
00050080002000000000000000000000000000000000000000000000000000000000000000000000000000000000000000000          US Senator                                              UNDER VOTES                           Precinct 1 Voting Box 5                                01 
00050080003000005000001000003000001000000000000000000000000000000000000000000000000000000000000000000          US Senator                                              UNDER VOTES                           Precinct 2 Voting Box 2                                01 
00050080004000005000000000005000000000000000000000000000000000000000000000000000000000000000000000000          US Senator                                              UNDER VOTES                           Precinct 2 Voting Box 6                                01 
00050080005000008000000000005000003000000000000000000000000000000000000000000000000000000000000000000          US Senator                                              UNDER VOTES                           Precinct 3 Voting Box 3                                01 
00050080006000008000000000008000000000000000000000000000000000000000000000000000000000000000000000000          US Senator                                              UNDER VOTES                           Precinct 4 Voting Box 4                                01 
00060010001000274000012000231000031000000000000000000000000000000000000000000000000000000000000000000REP       US Representative, Dist 23                              REP Tony Gonzales                     Precinct 1 Voting Box 1                                01 
00060010002000056000001000006000049000000000000000000000000000000000000000000000000000000000000000000REP       US Representative, Dist 23                              REP Tony Gonzales                     Precinct 1 Voting Box 5                                01 
00060010003000148000001000123000024000000000000000000000000000000000000000000000000000000000000000000REP       US Representative, Dist 23                              REP Tony Gonzales                     Precinct 2 Voting Box 2                                01 
00060010004000136000006000096000034000000000000000000000000000000000000000000000000000000000000000000REP       US Representative, Dist 23                              REP Tony Gonzales                     Precinct 2 Voting Box 6                                01 
00060010005000209000007000144000058000000000000000000000000000000000000000000000000000000000000000000REP       US Representative, Dist 23                              REP Tony Gonzales                     Precinct 3 Voting Box 3                                01 
00060010006000290000014000228000048000000000000000000000000000000000000000000000000000000000000000000REP       US Representative, Dist 23                              REP Tony Gonzales                     Precinct 4 Voting Box 4                                01 
00060020001000033000002000027000004000000000000000000000000000000000000000000000000000000000000000000DEM       US Representative, Dist 23                              DEM Gina Ortiz Jones                  Precinct 1 Voting Box 1                                01 
00060020002000006000000000000000006000000000000000000000000000000000000000000000000000000000000000000DEM       US Representative, Dist 23                              DEM Gina Ortiz Jones                  Precinct 1 Voting Box 5                                01 
00060020003000013000002000010000001000000000000000000000000000000000000000000000000000000000000000000DEM       US Representative, Dist 23                              DEM Gina Ortiz Jones                  Precinct 2 Voting Box 2                                01 
00060020004000023000001000014000008000000000000000000000000000000000000000000000000000000000000000000DEM       US Representative, Dist 23                              DEM Gina Ortiz Jones                  Precinct 2 Voting Box 6                                01 
00060020005000056000007000033000016000000000000000000000000000000000000000000000000000000000000000000DEM       US Representative, Dist 23                              DEM Gina Ortiz Jones                  Precinct 3 Voting Box 3                                01 
00060020006000061000008000037000016000000000000000000000000000000000000000000000000000000000000000000DEM       US Representative, Dist 23                              DEM Gina Ortiz Jones                  Precinct 4 Voting Box 4                                01 
00060030001000006000000000006000000000000000000000000000000000000000000000000000000000000000000000000LIB       US Representative, Dist 23                              LIB Beto Villela                      Precinct 1 Voting Box 1                                01 
00060030002000000000000000000000000000000000000000000000000000000000000000000000000000000000000000000LIB       US Representative, Dist 23                              LIB Beto Villela                      Precinct 1 Voting Box 5                                01 
00060030003000002000000000002000000000000000000000000000000000000000000000000000000000000000000000000LIB       US Representative, Dist 23                              LIB Beto Villela                      Precinct 2 Voting Box 2                                01 
00060030004000006000000000005000001000000000000000000000000000000000000000000000000000000000000000000LIB       US Representative, Dist 23                              LIB Beto Villela                      Precinct 2 Voting Box 6                                01 
00060030005000010000000000009000001000000000000000000000000000000000000000000000000000000000000000000LIB       US Representative, Dist 23                              LIB Beto Villela                      Precinct 3 Voting Box 3                                01 
00060030006000007000001000005000001000000000000000000000000000000000000000000000000000000000000000000LIB       US Representative, Dist 23                              LIB Beto Villela                      Precinct 4 Voting Box 4                                01 
00060040001000000000000000000000000000000000000000000000000000000000000000000000000000000000000000000          US Representative, Dist 23                              OVER VOTES                            Precinct 1 Voting Box 1                                01 
00060040002000000000000000000000000000000000000000000000000000000000000000000000000000000000000000000          US Representative, Dist 23                              OVER VOTES                            Precinct 1 Voting Box 5                                01 
00060040003000000000000000000000000000000000000000000000000000000000000000000000000000000000000000000          US Representative, Dist 23                              OVER VOTES                            Precinct 2 Voting Box 2                                01 
00060040004000000000000000000000000000000000000000000000000000000000000000000000000000000000000000000          US Representative, Dist 23                              OVER VOTES                            Precinct 2 Voting Box 6                                01 
00060040005000000000000000000000000000000000000000000000000000000000000000000000000000000000000000000          US Representative, Dist 23                              OVER VOTES                            Precinct 3 Voting Box 3                                01 
00060040006000000000000000000000000000000000000000000000000000000000000000000000000000000000000000000          US Representative, Dist 23                              OVER VOTES                            Precinct 4 Voting Box 4                                01 
00060050001000004000000000004000000000000000000000000000000000000000000000000000000000000000000000000          US Representative, Dist 23                              UNDER VOTES                           Precinct 1 Voting Box 1                                01 
00060050002000000000000000000000000000000000000000000000000000000000000000000000000000000000000000000          US Representative, Dist 23                              UNDER VOTES                           Precinct 1 Voting Box 5                                01 
00060050003000005000000000004000001000000000000000000000000000000000000000000000000000000000000000000          US Representative, Dist 23                              UNDER VOTES                           Precinct 2 Voting Box 2                                01 
00060050004000006000000000006000000000000000000000000000000000000000000000000000000000000000000000000          US Representative, Dist 23                              UNDER VOTES                           Precinct 2 Voting Box 6                                01 
00060050005000007000000000004000003000000000000000000000000000000000000000000000000000000000000000000          US Representative, Dist 23                              UNDER VOTES                           Precinct 3 Voting Box 3                                01 
00060050006000004000000000004000000000000000000000000000000000000000000000000000000000000000000000000          US Representative, Dist 23                              UNDER VOTES                           Precinct 4 Voting Box 4                                01 
00070010001000266000012000223000031000000000000000000000000000000000000000000000000000000000000000000REP       Railroad Commissioner                                   REP James "Jim" Wright                Precinct 1 Voting Box 1                                01 
00070010002000056000001000006000049000000000000000000000000000000000000000000000000000000000000000000REP       Railroad Commissioner                                   REP James "Jim" Wright                Precinct 1 Voting Box 5                                01 
00070010003000147000000000122000025000000000000000000000000000000000000000000000000000000000000000000REP       Railroad Commissioner                                   REP James "Jim" Wright                Precinct 2 Voting Box 2                                01 
00070010004000134000005000094000035000000000000000000000000000000000000000000000000000000000000000000REP       Railroad Commissioner                                   REP James "Jim" Wright                Precinct 2 Voting Box 6                                01 
00070010005000216000007000151000058000000000000000000000000000000000000000000000000000000000000000000REP       Railroad Commissioner                                   REP James "Jim" Wright                Precinct 3 Voting Box 3                                01 
00070010006000299000017000230000052000000000000000000000000000000000000000000000000000000000000000000REP       Railroad Commissioner                                   REP James "Jim" Wright                Precinct 4 Voting Box 4                                01 
00070020001000030000001000025000004000000000000000000000000000000000000000000000000000000000000000000DEM       Railroad Commissioner                                   DEM Chrysta Castaneda                 Precinct 1 Voting Box 1                                01 
00070020002000004000000000000000004000000000000000000000000000000000000000000000000000000000000000000DEM       Railroad Commissioner                                   DEM Chrysta Castaneda                 Precinct 1 Voting Box 5                                01 
00070020003000009000001000008000000000000000000000000000000000000000000000000000000000000000000000000DEM       Railroad Commissioner                                   DEM Chrysta Castaneda                 Precinct 2 Voting Box 2                                01 
00070020004000023000001000016000006000000000000000000000000000000000000000000000000000000000000000000DEM       Railroad Commissioner                                   DEM Chrysta Castaneda                 Precinct 2 Voting Box 6                                01 
00070020005000049000006000027000016000000000000000000000000000000000000000000000000000000000000000000DEM       Railroad Commissioner                                   DEM Chrysta Castaneda                 Precinct 3 Voting Box 3                                01 
00070020006000049000006000033000010000000000000000000000000000000000000000000000000000000000000000000DEM       Railroad Commissioner                                   DEM Chrysta Castaneda                 Precinct 4 Voting Box 4                                01 
00070030001000007000001000006000000000000000000000000000000000000000000000000000000000000000000000000LIB       Railroad Commissioner                                   LIB Matt Sterett                      Precinct 1 Voting Box 1                                01 
00070030002000000000000000000000000000000000000000000000000000000000000000000000000000000000000000000LIB       Railroad Commissioner                                   LIB Matt Sterett                      Precinct 1 Voting Box 5                                01 
00070030003000004000000000004000000000000000000000000000000000000000000000000000000000000000000000000LIB       Railroad Commissioner                                   LIB Matt Sterett                      Precinct 2 Voting Box 2                                01 
00070030004000007000000000005000002000000000000000000000000000000000000000000000000000000000000000000LIB       Railroad Commissioner                                   LIB Matt Sterett                      Precinct 2 Voting Box 6                                01 
00070030005000002000000000002000000000000000000000000000000000000000000000000000000000000000000000000LIB       Railroad Commissioner                                   LIB Matt Sterett                      Precinct 3 Voting Box 3                                01 
00070030006000004000000000002000002000000000000000000000000000000000000000000000000000000000000000000LIB       Railroad Commissioner                                   LIB Matt Sterett                      Precinct 4 Voting Box 4                                01 
00070040001000003000000000003000000000000000000000000000000000000000000000000000000000000000000000000GRN       Railroad Commissioner                                   GRN Katija “Kat” Gruene               Precinct 1 Voting Box 1                                01 
00070040002000000000000000000000000000000000000000000000000000000000000000000000000000000000000000000GRN       Railroad Commissioner                                   GRN Katija “Kat” Gruene               Precinct 1 Voting Box 5                                01 
00070040003000000000000000000000000000000000000000000000000000000000000000000000000000000000000000000GRN       Railroad Commissioner                                   GRN Katija “Kat” Gruene               Precinct 2 Voting Box 2                                01 
00070040004000002000000000002000000000000000000000000000000000000000000000000000000000000000000000000GRN       Railroad Commissioner                                   GRN Katija “Kat” Gruene               Precinct 2 Voting Box 6                                01 
00070040005000003000001000002000000000000000000000000000000000000000000000000000000000000000000000000GRN       Railroad Commissioner                                   GRN Katija “Kat” Gruene               Precinct 3 Voting Box 3                                01 
00070040006000000000000000000000000000000000000000000000000000000000000000000000000000000000000000000GRN       Railroad Commissioner                                   GRN Katija “Kat” Gruene               Precinct 4 Voting Box 4                                01 
00070050001000000000000000000000000000000000000000000000000000000000000000000000000000000000000000000          Railroad Commissioner                                   OVER VOTES                            Precinct 1 Voting Box 1                                01 
00070050002000000000000000000000000000000000000000000000000000000000000000000000000000000000000000000          Railroad Commissioner                                   OVER VOTES                            Precinct 1 Voting Box 5                                01 
00070050003000000000000000000000000000000000000000000000000000000000000000000000000000000000000000000          Railroad Commissioner                                   OVER VOTES                            Precinct 2 Voting Box 2                                01 
00070050004000000000000000000000000000000000000000000000000000000000000000000000000000000000000000000          Railroad Commissioner                                   OVER VOTES                            Precinct 2 Voting Box 6                                01 
00070050005000000000000000000000000000000000000000000000000000000000000000000000000000000000000000000          Railroad Commissioner                                   OVER VOTES                            Precinct 3 Voting Box 3                                01 
00070050006000000000000000000000000000000000000000000000000000000000000000000000000000000000000000000          Railroad Commissioner                                   OVER VOTES                            Precinct 4 Voting Box 4                                01 
00070060001000011000000000011000000000000000000000000000000000000000000000000000000000000000000000000          Railroad Commissioner                                   UNDER VOTES                           Precinct 1 Voting Box 1                                01 
00070060002000002000000000000000002000000000000000000000000000000000000000000000000000000000000000000          Railroad Commissioner                                   UNDER VOTES                           Precinct 1 Voting Box 5                                01 
00070060003000008000002000005000001000000000000000000000000000000000000000000000000000000000000000000          Railroad Commissioner                                   UNDER VOTES                           Precinct 2 Voting Box 2                                01 
00070060004000005000001000004000000000000000000000000000000000000000000000000000000000000000000000000          Railroad Commissioner                                   UNDER VOTES                           Precinct 2 Voting Box 6                                01 
00070060005000012000000000008000004000000000000000000000000000000000000000000000000000000000000000000          Railroad Commissioner                                   UNDER VOTES                           Precinct 3 Voting Box 3                                01 
00070060006000010000000000009000001000000000000000000000000000000000000000000000000000000000000000000          Railroad Commissioner                                   UNDER VOTES                           Precinct 4 Voting Box 4                                01 
00080010001000266000012000222000032000000000000000000000000000000000000000000000000000000000000000000REP       Chief Justice, Supreme Court                            REP Nathan Hecht                      Precinct 1 Voting Box 1                                01 
00080010002000058000001000006000051000000000000000000000000000000000000000000000000000000000000000000REP       Chief Justice, Supreme Court                            REP Nathan Hecht                      Precinct 1 Voting Box 5                                01 
00080010003000146000000000122000024000000000000000000000000000000000000000000000000000000000000000000REP       Chief Justice, Supreme Court                            REP Nathan Hecht                      Precinct 2 Voting Box 2                                01 
00080010004000135000005000095000035000000000000000000000000000000000000000000000000000000000000000000REP       Chief Justice, Supreme Court                            REP Nathan Hecht                      Precinct 2 Voting Box 6                                01 
00080010005000213000007000152000054000000000000000000000000000000000000000000000000000000000000000000REP       Chief Justice, Supreme Court                            REP Nathan Hecht                      Precinct 3 Voting Box 3                                01 
00080010006000291000013000226000052000000000000000000000000000000000000000000000000000000000000000000REP       Chief Justice, Supreme Court                            REP Nathan Hecht                      Precinct 4 Voting Box 4                                01 
00080020001000033000002000028000003000000000000000000000000000000000000000000000000000000000000000000DEM       Chief Justice, Supreme Court                            DEM Amy Clark Meachum                 Precinct 1 Voting Box 1                                01 
00080020002000004000000000000000004000000000000000000000000000000000000000000000000000000000000000000DEM       Chief Justice, Supreme Court                            DEM Amy Clark Meachum                 Precinct 1 Voting Box 5                                01 
00080020003000013000002000010000001000000000000000000000000000000000000000000000000000000000000000000DEM       Chief Justice, Supreme Court                            DEM Amy Clark Meachum                 Precinct 2 Voting Box 2                                01 
00080020004000022000001000015000006000000000000000000000000000000000000000000000000000000000000000000DEM       Chief Justice, Supreme Court                            DEM Amy Clark Meachum                 Precinct 2 Voting Box 6                                01 
00080020005000049000004000028000017000000000000000000000000000000000000000000000000000000000000000000DEM       Chief Justice, Supreme Court                            DEM Amy Clark Meachum                 Precinct 3 Voting Box 3                                01 
00080020006000053000009000034000010000000000000000000000000000000000000000000000000000000000000000000DEM       Chief Justice, Supreme Court                            DEM Amy Clark Meachum                 Precinct 4 Voting Box 4                                01 
00080030001000005000000000005000000000000000000000000000000000000000000000000000000000000000000000000LIB       Chief Justice, Supreme Court                            LIB Mark Ash                          Precinct 1 Voting Box 1                                01 
00080030002000000000000000000000000000000000000000000000000000000000000000000000000000000000000000000LIB       Chief Justice, Supreme Court                            LIB Mark Ash                          Precinct 1 Voting Box 5                                01 
00080030003000002000000000002000000000000000000000000000000000000000000000000000000000000000000000000LIB       Chief Justice, Supreme Court                            LIB Mark Ash                          Precinct 2 Voting Box 2                                01 
00080030004000006000000000005000001000000000000000000000000000000000000000000000000000000000000000000LIB       Chief Justice, Supreme Court                            LIB Mark Ash                          Precinct 2 Voting Box 6                                01 
00080030005000006000003000002000001000000000000000000000000000000000000000000000000000000000000000000LIB       Chief Justice, Supreme Court                            LIB Mark Ash                          Precinct 3 Voting Box 3                                01 
00080030006000005000000000003000002000000000000000000000000000000000000000000000000000000000000000000LIB       Chief Justice, Supreme Court                            LIB Mark Ash                          Precinct 4 Voting Box 4                                01 
00080040001000000000000000000000000000000000000000000000000000000000000000000000000000000000000000000          Chief Justice, Supreme Court                            OVER VOTES                            Precinct 1 Voting Box 1                                01 
00080040002000000000000000000000000000000000000000000000000000000000000000000000000000000000000000000          Chief Justice, Supreme Court                            OVER VOTES                            Precinct 1 Voting Box 5                                01 
00080040003000000000000000000000000000000000000000000000000000000000000000000000000000000000000000000          Chief Justice, Supreme Court                            OVER VOTES                            Precinct 2 Voting Box 2                                01 
00080040004000000000000000000000000000000000000000000000000000000000000000000000000000000000000000000          Chief Justice, Supreme Court                            OVER VOTES                            Precinct 2 Voting Box 6                                01 
00080040005000000000000000000000000000000000000000000000000000000000000000000000000000000000000000000          Chief Justice, Supreme Court                            OVER VOTES                            Precinct 3 Voting Box 3                                01 
00080040006000000000000000000000000000000000000000000000000000000000000000000000000000000000000000000          Chief Justice, Supreme Court                            OVER VOTES                            Precinct 4 Voting Box 4                                01 
00080050001000013000000000013000000000000000000000000000000000000000000000000000000000000000000000000          Chief Justice, Supreme Court                            UNDER VOTES                           Precinct 1 Voting Box 1                                01 
00080050002000000000000000000000000000000000000000000000000000000000000000000000000000000000000000000          Chief Justice, Supreme Court                            UNDER VOTES                           Precinct 1 Voting Box 5                                01 
00080050003000007000001000005000001000000000000000000000000000000000000000000000000000000000000000000          Chief Justice, Supreme Court                            UNDER VOTES                           Precinct 2 Voting Box 2                                01 
00080050004000008000001000006000001000000000000000000000000000000000000000000000000000000000000000000          Chief Justice, Supreme Court                            UNDER VOTES                           Precinct 2 Voting Box 6                                01 
00080050005000014000000000008000006000000000000000000000000000000000000000000000000000000000000000000          Chief Justice, Supreme Court                            UNDER VOTES                           Precinct 3 Voting Box 3                                01 
00080050006000013000001000011000001000000000000000000000000000000000000000000000000000000000000000000          Chief Justice, Supreme Court                            UNDER VOTES                           Precinct 4 Voting Box 4                                01 
00090010001000278000011000234000033000000000000000000000000000000000000000000000000000000000000000000REP       Justice, Supreme Court, Pl 6                            REP Jane Bland                        Precinct 1 Voting Box 1                                01 
00090010002000058000001000006000051000000000000000000000000000000000000000000000000000000000000000000REP       Justice, Supreme Court, Pl 6                            REP Jane Bland                        Precinct 1 Voting Box 5                                01 
00090010003000151000002000124000025000000000000000000000000000000000000000000000000000000000000000000REP       Justice, Supreme Court, Pl 6                            REP Jane Bland                        Precinct 2 Voting Box 2                                01 
00090010004000145000005000103000037000000000000000000000000000000000000000000000000000000000000000000REP       Justice, Supreme Court, Pl 6                            REP Jane Bland                        Precinct 2 Voting Box 6                                01 
00090010005000221000010000151000060000000000000000000000000000000000000000000000000000000000000000000REP       Justice, Supreme Court, Pl 6                            REP Jane Bland                        Precinct 3 Voting Box 3                                01 
00090010006000296000017000228000051000000000000000000000000000000000000000000000000000000000000000000REP       Justice, Supreme Court, Pl 6                            REP Jane Bland                        Precinct 4 Voting Box 4                                01 
00090020001000027000002000023000002000000000000000000000000000000000000000000000000000000000000000000DEM       Justice, Supreme Court, Pl 6                            DEM Kathy Cheng                       Precinct 1 Voting Box 1                                01 
00090020002000004000000000000000004000000000000000000000000000000000000000000000000000000000000000000DEM       Justice, Supreme Court, Pl 6                            DEM Kathy Cheng                       Precinct 1 Voting Box 5                                01 
00090020003000009000000000009000000000000000000000000000000000000000000000000000000000000000000000000DEM       Justice, Supreme Court, Pl 6                            DEM Kathy Cheng                       Precinct 2 Voting Box 2                                01 
00090020004000020000001000013000006000000000000000000000000000000000000000000000000000000000000000000DEM       Justice, Supreme Court, Pl 6                            DEM Kathy Cheng                       Precinct 2 Voting Box 6                                01 
00090020005000047000003000031000013000000000000000000000000000000000000000000000000000000000000000000DEM       Justice, Supreme Court, Pl 6                            DEM Kathy Cheng                       Precinct 3 Voting Box 3                                01 
00090020006000052000006000033000013000000000000000000000000000000000000000000000000000000000000000000DEM       Justice, Supreme Court, Pl 6                            DEM Kathy Cheng                       Precinct 4 Voting Box 4                                01 
00090030001000000000000000000000000000000000000000000000000000000000000000000000000000000000000000000          Justice, Supreme Court, Pl 6                            OVER VOTES                            Precinct 1 Voting Box 1                                01 
00090030002000000000000000000000000000000000000000000000000000000000000000000000000000000000000000000          Justice, Supreme Court, Pl 6                            OVER VOTES                            Precinct 1 Voting Box 5                                01 
00090030003000000000000000000000000000000000000000000000000000000000000000000000000000000000000000000          Justice, Supreme Court, Pl 6                            OVER VOTES                            Precinct 2 Voting Box 2                                01 
00090030004000000000000000000000000000000000000000000000000000000000000000000000000000000000000000000          Justice, Supreme Court, Pl 6                            OVER VOTES                            Precinct 2 Voting Box 6                                01 
00090030005000000000000000000000000000000000000000000000000000000000000000000000000000000000000000000          Justice, Supreme Court, Pl 6                            OVER VOTES                            Precinct 3 Voting Box 3                                01 
00090030006000000000000000000000000000000000000000000000000000000000000000000000000000000000000000000          Justice, Supreme Court, Pl 6                            OVER VOTES                            Precinct 4 Voting Box 4                                01 
00090040001000012000001000011000000000000000000000000000000000000000000000000000000000000000000000000          Justice, Supreme Court, Pl 6                            UNDER VOTES                           Precinct 1 Voting Box 1                                01 
00090040002000000000000000000000000000000000000000000000000000000000000000000000000000000000000000000          Justice, Supreme Court, Pl 6                            UNDER VOTES                           Precinct 1 Voting Box 5                                01 
00090040003000008000001000006000001000000000000000000000000000000000000000000000000000000000000000000          Justice, Supreme Court, Pl 6                            UNDER VOTES                           Precinct 2 Voting Box 2                                01 
00090040004000006000001000005000000000000000000000000000000000000000000000000000000000000000000000000          Justice, Supreme Court, Pl 6                            UNDER VOTES                           Precinct 2 Voting Box 6                                01 
00090040005000014000001000008000005000000000000000000000000000000000000000000000000000000000000000000          Justice, Supreme Court, Pl 6                            UNDER VOTES                           Precinct 3 Voting Box 3                                01 
00090040006000014000000000013000001000000000000000000000000000000000000000000000000000000000000000000          Justice, Supreme Court, Pl 6                            UNDER VOTES                           Precinct 4 Voting Box 4                                01 
00100010001000273000012000231000030000000000000000000000000000000000000000000000000000000000000000000REP       Justice, Supreme Court, Pl 7                            REP Jeff Boyd                         Precinct 1 Voting Box 1                                01 
00100010002000058000001000006000051000000000000000000000000000000000000000000000000000000000000000000REP       Justice, Supreme Court, Pl 7                            REP Jeff Boyd                         Precinct 1 Voting Box 5                                01 
00100010003000143000000000119000024000000000000000000000000000000000000000000000000000000000000000000REP       Justice, Supreme Court, Pl 7                            REP Jeff Boyd                         Precinct 2 Voting Box 2                                01 
00100010004000139000005000099000035000000000000000000000000000000000000000000000000000000000000000000REP       Justice, Supreme Court, Pl 7                            REP Jeff Boyd                         Precinct 2 Voting Box 6                                01 
00100010005000220000006000151000063000000000000000000000000000000000000000000000000000000000000000000REP       Justice, Supreme Court, Pl 7                            REP Jeff Boyd                         Precinct 3 Voting Box 3                                01 
00100010006000298000014000228000056000000000000000000000000000000000000000000000000000000000000000000REP       Justice, Supreme Court, Pl 7                            REP Jeff Boyd                         Precinct 4 Voting Box 4                                01 
00100020001000028000002000023000003000000000000000000000000000000000000000000000000000000000000000000DEM       Justice, Supreme Court, Pl 7                            DEM Staci Williams                    Precinct 1 Voting Box 1                                01 
00100020002000004000000000000000004000000000000000000000000000000000000000000000000000000000000000000DEM       Justice, Supreme Court, Pl 7                            DEM Staci Williams                    Precinct 1 Voting Box 5                                01 
00100020003000014000002000011000001000000000000000000000000000000000000000000000000000000000000000000DEM       Justice, Supreme Court, Pl 7                            DEM Staci Williams                    Precinct 2 Voting Box 2                                01 
00100020004000019000001000012000006000000000000000000000000000000000000000000000000000000000000000000DEM       Justice, Supreme Court, Pl 7                            DEM Staci Williams                    Precinct 2 Voting Box 6                                01 
00100020005000047000008000029000010000000000000000000000000000000000000000000000000000000000000000000DEM       Justice, Supreme Court, Pl 7                            DEM Staci Williams                    Precinct 3 Voting Box 3                                01 
00100020006000050000009000033000008000000000000000000000000000000000000000000000000000000000000000000DEM       Justice, Supreme Court, Pl 7                            DEM Staci Williams                    Precinct 4 Voting Box 4                                01 
00100030001000004000000000003000001000000000000000000000000000000000000000000000000000000000000000000LIB       Justice, Supreme Court, Pl 7                            LIB William Bryan Strange III         Precinct 1 Voting Box 1                                01 
00100030002000000000000000000000000000000000000000000000000000000000000000000000000000000000000000000LIB       Justice, Supreme Court, Pl 7                            LIB William Bryan Strange III         Precinct 1 Voting Box 5                                01 
00100030003000003000000000003000000000000000000000000000000000000000000000000000000000000000000000000LIB       Justice, Supreme Court, Pl 7                            LIB William Bryan Strange III         Precinct 2 Voting Box 2                                01 
00100030004000008000000000006000002000000000000000000000000000000000000000000000000000000000000000000LIB       Justice, Supreme Court, Pl 7                            LIB William Bryan Strange III         Precinct 2 Voting Box 6                                01 
00100030005000003000000000003000000000000000000000000000000000000000000000000000000000000000000000000LIB       Justice, Supreme Court, Pl 7                            LIB William Bryan Strange III         Precinct 3 Voting Box 3                                01 
00100030006000004000000000003000001000000000000000000000000000000000000000000000000000000000000000000LIB       Justice, Supreme Court, Pl 7                            LIB William Bryan Strange III         Precinct 4 Voting Box 4                                01 
00100040001000000000000000000000000000000000000000000000000000000000000000000000000000000000000000000          Justice, Supreme Court, Pl 7                            OVER VOTES                            Precinct 1 Voting Box 1                                01 
00100040002000000000000000000000000000000000000000000000000000000000000000000000000000000000000000000          Justice, Supreme Court, Pl 7                            OVER VOTES                            Precinct 1 Voting Box 5                                01 
00100040003000000000000000000000000000000000000000000000000000000000000000000000000000000000000000000          Justice, Supreme Court, Pl 7                            OVER VOTES                            Precinct 2 Voting Box 2                                01 
00100040004000000000000000000000000000000000000000000000000000000000000000000000000000000000000000000          Justice, Supreme Court, Pl 7                            OVER VOTES                            Precinct 2 Voting Box 6                                01 
00100040005000000000000000000000000000000000000000000000000000000000000000000000000000000000000000000          Justice, Supreme Court, Pl 7                            OVER VOTES                            Precinct 3 Voting Box 3                                01 
00100040006000000000000000000000000000000000000000000000000000000000000000000000000000000000000000000          Justice, Supreme Court, Pl 7                            OVER VOTES                            Precinct 4 Voting Box 4                                01 
00100050001000012000000000011000001000000000000000000000000000000000000000000000000000000000000000000          Justice, Supreme Court, Pl 7                            UNDER VOTES                           Precinct 1 Voting Box 1                                01 
00100050002000000000000000000000000000000000000000000000000000000000000000000000000000000000000000000          Justice, Supreme Court, Pl 7                            UNDER VOTES                           Precinct 1 Voting Box 5                                01 
00100050003000008000001000006000001000000000000000000000000000000000000000000000000000000000000000000          Justice, Supreme Court, Pl 7                            UNDER VOTES                           Precinct 2 Voting Box 2                                01 
00100050004000005000001000004000000000000000000000000000000000000000000000000000000000000000000000000          Justice, Supreme Court, Pl 7                            UNDER VOTES                           Precinct 2 Voting Box 6                                01 
00100050005000012000000000007000005000000000000000000000000000000000000000000000000000000000000000000          Justice, Supreme Court, Pl 7                            UNDER VOTES                           Precinct 3 Voting Box 3                                01 
00100050006000010000000000010000000000000000000000000000000000000000000000000000000000000000000000000          Justice, Supreme Court, Pl 7                            UNDER VOTES                           Precinct 4 Voting Box 4                                01 
00110010001000272000012000228000032000000000000000000000000000000000000000000000000000000000000000000REP       Justice, Supreme Court, Pl 8                            REP Brett Busby                       Precinct 1 Voting Box 1                                01 
00110010002000057000001000005000051000000000000000000000000000000000000000000000000000000000000000000REP       Justice, Supreme Court, Pl 8                            REP Brett Busby                       Precinct 1 Voting Box 5                                01 
00110010003000145000001000120000024000000000000000000000000000000000000000000000000000000000000000000REP       Justice, Supreme Court, Pl 8                            REP Brett Busby                       Precinct 2 Voting Box 2                                01 
00110010004000137000006000096000035000000000000000000000000000000000000000000000000000000000000000000REP       Justice, Supreme Court, Pl 8                            REP Brett Busby                       Precinct 2 Voting Box 6                                01 
00110010005000211000008000145000058000000000000000000000000000000000000000000000000000000000000000000REP       Justice, Supreme Court, Pl 8                            REP Brett Busby                       Precinct 3 Voting Box 3                                01 
00110010006000292000014000227000051000000000000000000000000000000000000000000000000000000000000000000REP       Justice, Supreme Court, Pl 8                            REP Brett Busby                       Precinct 4 Voting Box 4                                01 
00110020001000030000001000026000003000000000000000000000000000000000000000000000000000000000000000000DEM       Justice, Supreme Court, Pl 8                            DEM Gisela D. Triana                  Precinct 1 Voting Box 1                                01 
00110020002000004000000000000000004000000000000000000000000000000000000000000000000000000000000000000DEM       Justice, Supreme Court, Pl 8                            DEM Gisela D. Triana                  Precinct 1 Voting Box 5                                01 
00110020003000011000001000009000001000000000000000000000000000000000000000000000000000000000000000000DEM       Justice, Supreme Court, Pl 8                            DEM Gisela D. Triana                  Precinct 2 Voting Box 2                                01 
00110020004000023000001000015000007000000000000000000000000000000000000000000000000000000000000000000DEM       Justice, Supreme Court, Pl 8                            DEM Gisela D. Triana                  Precinct 2 Voting Box 6                                01 
00110020005000054000006000034000014000000000000000000000000000000000000000000000000000000000000000000DEM       Justice, Supreme Court, Pl 8                            DEM Gisela D. Triana                  Precinct 3 Voting Box 3                                01 
00110020006000055000009000035000011000000000000000000000000000000000000000000000000000000000000000000DEM       Justice, Supreme Court, Pl 8                            DEM Gisela D. Triana                  Precinct 4 Voting Box 4                                01 
00110030001000004000001000003000000000000000000000000000000000000000000000000000000000000000000000000LIB       Justice, Supreme Court, Pl 8                            LIB Tom Oxford                        Precinct 1 Voting Box 1                                01 
00110030002000001000000000001000000000000000000000000000000000000000000000000000000000000000000000000LIB       Justice, Supreme Court, Pl 8                            LIB Tom Oxford                        Precinct 1 Voting Box 5                                01 
00110030003000004000000000004000000000000000000000000000000000000000000000000000000000000000000000000LIB       Justice, Supreme Court, Pl 8                            LIB Tom Oxford                        Precinct 2 Voting Box 2                                01 
00110030004000006000000000005000001000000000000000000000000000000000000000000000000000000000000000000LIB       Justice, Supreme Court, Pl 8                            LIB Tom Oxford                        Precinct 2 Voting Box 6                                01 
00110030005000004000000000004000000000000000000000000000000000000000000000000000000000000000000000000LIB       Justice, Supreme Court, Pl 8                            LIB Tom Oxford                        Precinct 3 Voting Box 3                                01 
00110030006000004000000000003000001000000000000000000000000000000000000000000000000000000000000000000LIB       Justice, Supreme Court, Pl 8                            LIB Tom Oxford                        Precinct 4 Voting Box 4                                01 
00110040001000000000000000000000000000000000000000000000000000000000000000000000000000000000000000000          Justice, Supreme Court, Pl 8                            OVER VOTES                            Precinct 1 Voting Box 1                                01 
00110040002000000000000000000000000000000000000000000000000000000000000000000000000000000000000000000          Justice, Supreme Court, Pl 8                            OVER VOTES                            Precinct 1 Voting Box 5                                01 
00110040003000000000000000000000000000000000000000000000000000000000000000000000000000000000000000000          Justice, Supreme Court, Pl 8                            OVER VOTES                            Precinct 2 Voting Box 2                                01 
00110040004000000000000000000000000000000000000000000000000000000000000000000000000000000000000000000          Justice, Supreme Court, Pl 8                            OVER VOTES                            Precinct 2 Voting Box 6                                01 
00110040005000000000000000000000000000000000000000000000000000000000000000000000000000000000000000000          Justice, Supreme Court, Pl 8                            OVER VOTES                            Precinct 3 Voting Box 3                                01 
00110040006000000000000000000000000000000000000000000000000000000000000000000000000000000000000000000          Justice, Supreme Court, Pl 8                            OVER VOTES                            Precinct 4 Voting Box 4                                01 
00110050001000011000000000011000000000000000000000000000000000000000000000000000000000000000000000000          Justice, Supreme Court, Pl 8                            UNDER VOTES                           Precinct 1 Voting Box 1                                01 
00110050002000000000000000000000000000000000000000000000000000000000000000000000000000000000000000000          Justice, Supreme Court, Pl 8                            UNDER VOTES                           Precinct 1 Voting Box 5                                01 
00110050003000008000001000006000001000000000000000000000000000000000000000000000000000000000000000000          Justice, Supreme Court, Pl 8                            UNDER VOTES                           Precinct 2 Voting Box 2                                01 
00110050004000005000000000005000000000000000000000000000000000000000000000000000000000000000000000000          Justice, Supreme Court, Pl 8                            UNDER VOTES                           Precinct 2 Voting Box 6                                01 
00110050005000013000000000007000006000000000000000000000000000000000000000000000000000000000000000000          Justice, Supreme Court, Pl 8                            UNDER VOTES                           Precinct 3 Voting Box 3                                01 
00110050006000011000000000009000002000000000000000000000000000000000000000000000000000000000000000000          Justice, Supreme Court, Pl 8                            UNDER VOTES                           Precinct 4 Voting Box 4                                01 
00120010001000279000012000235000032000000000000000000000000000000000000000000000000000000000000000000REP       Judge, Ct of Crim App, Pl 3                             REP Bert Richardson                   Precinct 1 Voting Box 1                                01 
00120010002000058000001000006000051000000000000000000000000000000000000000000000000000000000000000000REP       Judge, Ct of Crim App, Pl 3                             REP Bert Richardson                   Precinct 1 Voting Box 5                                01 
00120010003000148000000000123000025000000000000000000000000000000000000000000000000000000000000000000REP       Judge, Ct of Crim App, Pl 3                             REP Bert Richardson                   Precinct 2 Voting Box 2                                01 
00120010004000142000006000102000034000000000000000000000000000000000000000000000000000000000000000000REP       Judge, Ct of Crim App, Pl 3                             REP Bert Richardson                   Precinct 2 Voting Box 6                                01 
00120010005000216000008000149000059000000000000000000000000000000000000000000000000000000000000000000REP       Judge, Ct of Crim App, Pl 3                             REP Bert Richardson                   Precinct 3 Voting Box 3                                01 
00120010006000296000016000229000051000000000000000000000000000000000000000000000000000000000000000000REP       Judge, Ct of Crim App, Pl 3                             REP Bert Richardson                   Precinct 4 Voting Box 4                                01 
00120020001000027000002000022000003000000000000000000000000000000000000000000000000000000000000000000DEM       Judge, Ct of Crim App, Pl 3                             DEM Elizabeth Davis Frizell           Precinct 1 Voting Box 1                                01 
00120020002000004000000000000000004000000000000000000000000000000000000000000000000000000000000000000DEM       Judge, Ct of Crim App, Pl 3                             DEM Elizabeth Davis Frizell           Precinct 1 Voting Box 5                                01 
00120020003000011000002000009000000000000000000000000000000000000000000000000000000000000000000000000DEM       Judge, Ct of Crim App, Pl 3                             DEM Elizabeth Davis Frizell           Precinct 2 Voting Box 2                                01 
00120020004000024000001000015000008000000000000000000000000000000000000000000000000000000000000000000DEM       Judge, Ct of Crim App, Pl 3                             DEM Elizabeth Davis Frizell           Precinct 2 Voting Box 6                                01 
00120020005000052000006000032000014000000000000000000000000000000000000000000000000000000000000000000DEM       Judge, Ct of Crim App, Pl 3                             DEM Elizabeth Davis Frizell           Precinct 3 Voting Box 3                                01 
00120020006000054000007000034000013000000000000000000000000000000000000000000000000000000000000000000DEM       Judge, Ct of Crim App, Pl 3                             DEM Elizabeth Davis Frizell           Precinct 4 Voting Box 4                                01 
00120030001000000000000000000000000000000000000000000000000000000000000000000000000000000000000000000          Judge, Ct of Crim App, Pl 3                             OVER VOTES                            Precinct 1 Voting Box 1                                01 
00120030002000000000000000000000000000000000000000000000000000000000000000000000000000000000000000000          Judge, Ct of Crim App, Pl 3                             OVER VOTES                            Precinct 1 Voting Box 5                                01 
00120030003000000000000000000000000000000000000000000000000000000000000000000000000000000000000000000          Judge, Ct of Crim App, Pl 3                             OVER VOTES                            Precinct 2 Voting Box 2                                01 
00120030004000000000000000000000000000000000000000000000000000000000000000000000000000000000000000000          Judge, Ct of Crim App, Pl 3                             OVER VOTES                            Precinct 2 Voting Box 6                                01 
00120030005000000000000000000000000000000000000000000000000000000000000000000000000000000000000000000          Judge, Ct of Crim App, Pl 3                             OVER VOTES                            Precinct 3 Voting Box 3                                01 
00120030006000000000000000000000000000000000000000000000000000000000000000000000000000000000000000000          Judge, Ct of Crim App, Pl 3                             OVER VOTES                            Precinct 4 Voting Box 4                                01 
00120040001000011000000000011000000000000000000000000000000000000000000000000000000000000000000000000          Judge, Ct of Crim App, Pl 3                             UNDER VOTES                           Precinct 1 Voting Box 1                                01 
00120040002000000000000000000000000000000000000000000000000000000000000000000000000000000000000000000          Judge, Ct of Crim App, Pl 3                             UNDER VOTES                           Precinct 1 Voting Box 5                                01 
00120040003000009000001000007000001000000000000000000000000000000000000000000000000000000000000000000          Judge, Ct of Crim App, Pl 3                             UNDER VOTES                           Precinct 2 Voting Box 2                                01 
00120040004000005000000000004000001000000000000000000000000000000000000000000000000000000000000000000          Judge, Ct of Crim App, Pl 3                             UNDER VOTES                           Precinct 2 Voting Box 6                                01 
00120040005000014000000000009000005000000000000000000000000000000000000000000000000000000000000000000          Judge, Ct of Crim App, Pl 3                             UNDER VOTES                           Precinct 3 Voting Box 3                                01 
00120040006000012000000000011000001000000000000000000000000000000000000000000000000000000000000000000          Judge, Ct of Crim App, Pl 3                             UNDER VOTES                           Precinct 4 Voting Box 4                                01 
00130010001000277000012000233000032000000000000000000000000000000000000000000000000000000000000000000REP       Judge, Ct of Crim App, Pl 4                             REP Kevin Patrick Yeary               Precinct 1 Voting Box 1                                01 
00130010002000058000001000006000051000000000000000000000000000000000000000000000000000000000000000000REP       Judge, Ct of Crim App, Pl 4                             REP Kevin Patrick Yeary               Precinct 1 Voting Box 5                                01 
00130010003000146000001000121000024000000000000000000000000000000000000000000000000000000000000000000REP       Judge, Ct of Crim App, Pl 4                             REP Kevin Patrick Yeary               Precinct 2 Voting Box 2                                01 
00130010004000143000006000103000034000000000000000000000000000000000000000000000000000000000000000000REP       Judge, Ct of Crim App, Pl 4                             REP Kevin Patrick Yeary               Precinct 2 Voting Box 6                                01 
00130010005000220000005000154000061000000000000000000000000000000000000000000000000000000000000000000REP       Judge, Ct of Crim App, Pl 4                             REP Kevin Patrick Yeary               Precinct 3 Voting Box 3                                01 
00130010006000297000014000229000054000000000000000000000000000000000000000000000000000000000000000000REP       Judge, Ct of Crim App, Pl 4                             REP Kevin Patrick Yeary               Precinct 4 Voting Box 4                                01 
00130020001000029000002000024000003000000000000000000000000000000000000000000000000000000000000000000DEM       Judge, Ct of Crim App, Pl 4                             DEM Tina Clinton                      Precinct 1 Voting Box 1                                01 
00130020002000004000000000000000004000000000000000000000000000000000000000000000000000000000000000000DEM       Judge, Ct of Crim App, Pl 4                             DEM Tina Clinton                      Precinct 1 Voting Box 5                                01 
00130020003000013000001000011000001000000000000000000000000000000000000000000000000000000000000000000DEM       Judge, Ct of Crim App, Pl 4                             DEM Tina Clinton                      Precinct 2 Voting Box 2                                01 
00130020004000023000001000015000007000000000000000000000000000000000000000000000000000000000000000000DEM       Judge, Ct of Crim App, Pl 4                             DEM Tina Clinton                      Precinct 2 Voting Box 6                                01 
00130020005000050000009000029000012000000000000000000000000000000000000000000000000000000000000000000DEM       Judge, Ct of Crim App, Pl 4                             DEM Tina Clinton                      Precinct 3 Voting Box 3                                01 
00130020006000053000008000035000010000000000000000000000000000000000000000000000000000000000000000000DEM       Judge, Ct of Crim App, Pl 4                             DEM Tina Clinton                      Precinct 4 Voting Box 4                                01 
00130030001000000000000000000000000000000000000000000000000000000000000000000000000000000000000000000          Judge, Ct of Crim App, Pl 4                             OVER VOTES                            Precinct 1 Voting Box 1                                01 
00130030002000000000000000000000000000000000000000000000000000000000000000000000000000000000000000000          Judge, Ct of Crim App, Pl 4                             OVER VOTES                            Precinct 1 Voting Box 5                                01 
00130030003000000000000000000000000000000000000000000000000000000000000000000000000000000000000000000          Judge, Ct of Crim App, Pl 4                             OVER VOTES                            Precinct 2 Voting Box 2                                01 
00130030004000000000000000000000000000000000000000000000000000000000000000000000000000000000000000000          Judge, Ct of Crim App, Pl 4                             OVER VOTES                            Precinct 2 Voting Box 6                                01 
00130030005000000000000000000000000000000000000000000000000000000000000000000000000000000000000000000          Judge, Ct of Crim App, Pl 4                             OVER VOTES                            Precinct 3 Voting Box 3                                01 
00130030006000000000000000000000000000000000000000000000000000000000000000000000000000000000000000000          Judge, Ct of Crim App, Pl 4                             OVER VOTES                            Precinct 4 Voting Box 4                                01 
00130040001000011000000000011000000000000000000000000000000000000000000000000000000000000000000000000          Judge, Ct of Crim App, Pl 4                             UNDER VOTES                           Precinct 1 Voting Box 1                                01 
00130040002000000000000000000000000000000000000000000000000000000000000000000000000000000000000000000          Judge, Ct of Crim App, Pl 4                             UNDER VOTES                           Precinct 1 Voting Box 5                                01 
00130040003000009000001000007000001000000000000000000000000000000000000000000000000000000000000000000          Judge, Ct of Crim App, Pl 4                             UNDER VOTES                           Precinct 2 Voting Box 2                                01 
00130040004000005000000000003000002000000000000000000000000000000000000000000000000000000000000000000          Judge, Ct of Crim App, Pl 4                             UNDER VOTES                           Precinct 2 Voting Box 6                                01 
00130040005000012000000000007000005000000000000000000000000000000000000000000000000000000000000000000          Judge, Ct of Crim App, Pl 4                             UNDER VOTES                           Precinct 3 Voting Box 3                                01 
00130040006000012000001000010000001000000000000000000000000000000000000000000000000000000000000000000          Judge, Ct of Crim App, Pl 4                             UNDER VOTES                           Precinct 4 Voting Box 4                                01 
00140010001000278000012000233000033000000000000000000000000000000000000000000000000000000000000000000REP       Judge, Ct of Crim App, Pl 9                             REP David Newell                      Precinct 1 Voting Box 1                                01 
00140010002000058000001000006000051000000000000000000000000000000000000000000000000000000000000000000REP       Judge, Ct of Crim App, Pl 9                             REP David Newell                      Precinct 1 Voting Box 5                                01 
00140010003000145000000000121000024000000000000000000000000000000000000000000000000000000000000000000REP       Judge, Ct of Crim App, Pl 9                             REP David Newell                      Precinct 2 Voting Box 2                                01 
00140010004000143000006000102000035000000000000000000000000000000000000000000000000000000000000000000REP       Judge, Ct of Crim App, Pl 9                             REP David Newell                      Precinct 2 Voting Box 6                                01 
00140010005000216000007000151000058000000000000000000000000000000000000000000000000000000000000000000REP       Judge, Ct of Crim App, Pl 9                             REP David Newell                      Precinct 3 Voting Box 3                                01 
00140010006000296000016000229000051000000000000000000000000000000000000000000000000000000000000000000REP       Judge, Ct of Crim App, Pl 9                             REP David Newell                      Precinct 4 Voting Box 4                                01 
00140020001000028000002000024000002000000000000000000000000000000000000000000000000000000000000000000DEM       Judge, Ct of Crim App, Pl 9                             DEM Brandon Birmingham                Precinct 1 Voting Box 1                                01 
00140020002000004000000000000000004000000000000000000000000000000000000000000000000000000000000000000DEM       Judge, Ct of Crim App, Pl 9                             DEM Brandon Birmingham                Precinct 1 Voting Box 5                                01 
00140020003000014000002000011000001000000000000000000000000000000000000000000000000000000000000000000DEM       Judge, Ct of Crim App, Pl 9                             DEM Brandon Birmingham                Precinct 2 Voting Box 2                                01 
00140020004000021000001000014000006000000000000000000000000000000000000000000000000000000000000000000DEM       Judge, Ct of Crim App, Pl 9                             DEM Brandon Birmingham                Precinct 2 Voting Box 6                                01 
00140020005000050000006000029000015000000000000000000000000000000000000000000000000000000000000000000DEM       Judge, Ct of Crim App, Pl 9                             DEM Brandon Birmingham                Precinct 3 Voting Box 3                                01 
00140020006000051000007000033000011000000000000000000000000000000000000000000000000000000000000000000DEM       Judge, Ct of Crim App, Pl 9                             DEM Brandon Birmingham                Precinct 4 Voting Box 4                                01 
00140030001000000000000000000000000000000000000000000000000000000000000000000000000000000000000000000          Judge, Ct of Crim App, Pl 9                             OVER VOTES                            Precinct 1 Voting Box 1                                01 
00140030002000000000000000000000000000000000000000000000000000000000000000000000000000000000000000000          Judge, Ct of Crim App, Pl 9                             OVER VOTES                            Precinct 1 Voting Box 5                                01 
00140030003000000000000000000000000000000000000000000000000000000000000000000000000000000000000000000          Judge, Ct of Crim App, Pl 9                             OVER VOTES                            Precinct 2 Voting Box 2                                01 
00140030004000000000000000000000000000000000000000000000000000000000000000000000000000000000000000000          Judge, Ct of Crim App, Pl 9                             OVER VOTES                            Precinct 2 Voting Box 6                                01 
00140030005000000000000000000000000000000000000000000000000000000000000000000000000000000000000000000          Judge, Ct of Crim App, Pl 9                             OVER VOTES                            Precinct 3 Voting Box 3                                01 
00140030006000000000000000000000000000000000000000000000000000000000000000000000000000000000000000000          Judge, Ct of Crim App, Pl 9                             OVER VOTES                            Precinct 4 Voting Box 4                                01 
00140040001000011000000000011000000000000000000000000000000000000000000000000000000000000000000000000          Judge, Ct of Crim App, Pl 9                             UNDER VOTES                           Precinct 1 Voting Box 1                                01 
00140040002000000000000000000000000000000000000000000000000000000000000000000000000000000000000000000          Judge, Ct of Crim App, Pl 9                             UNDER VOTES                           Precinct 1 Voting Box 5                                01 
00140040003000009000001000007000001000000000000000000000000000000000000000000000000000000000000000000          Judge, Ct of Crim App, Pl 9                             UNDER VOTES                           Precinct 2 Voting Box 2                                01 
00140040004000007000000000005000002000000000000000000000000000000000000000000000000000000000000000000          Judge, Ct of Crim App, Pl 9                             UNDER VOTES                           Precinct 2 Voting Box 6                                01 
00140040005000016000001000010000005000000000000000000000000000000000000000000000000000000000000000000          Judge, Ct of Crim App, Pl 9                             UNDER VOTES                           Precinct 3 Voting Box 3                                01 
00140040006000015000000000012000003000000000000000000000000000000000000000000000000000000000000000000          Judge, Ct of Crim App, Pl 9                             UNDER VOTES                           Precinct 4 Voting Box 4                                01 
00150010001000275000012000231000032000000000000000000000000000000000000000000000000000000000000000000REP       Member, State BoE, Dist 1                               REP Jennifer Ivey                     Precinct 1 Voting Box 1                                01 
00150010002000058000001000006000051000000000000000000000000000000000000000000000000000000000000000000REP       Member, State BoE, Dist 1                               REP Jennifer Ivey                     Precinct 1 Voting Box 5                                01 
00150010003000146000001000121000024000000000000000000000000000000000000000000000000000000000000000000REP       Member, State BoE, Dist 1                               REP Jennifer Ivey                     Precinct 2 Voting Box 2                                01 
00150010004000141000006000101000034000000000000000000000000000000000000000000000000000000000000000000REP       Member, State BoE, Dist 1                               REP Jennifer Ivey                     Precinct 2 Voting Box 6                                01 
00150010005000210000006000148000056000000000000000000000000000000000000000000000000000000000000000000REP       Member, State BoE, Dist 1                               REP Jennifer Ivey                     Precinct 3 Voting Box 3                                01 
00150010006000296000017000226000053000000000000000000000000000000000000000000000000000000000000000000REP       Member, State BoE, Dist 1                               REP Jennifer Ivey                     Precinct 4 Voting Box 4                                01 
00150020001000030000002000025000003000000000000000000000000000000000000000000000000000000000000000000DEM       Member, State BoE, Dist 1                               DEM Georgina Perez                    Precinct 1 Voting Box 1                                01 
00150020002000004000000000000000004000000000000000000000000000000000000000000000000000000000000000000DEM       Member, State BoE, Dist 1                               DEM Georgina Perez                    Precinct 1 Voting Box 5                                01 
00150020003000013000001000011000001000000000000000000000000000000000000000000000000000000000000000000DEM       Member, State BoE, Dist 1                               DEM Georgina Perez                    Precinct 2 Voting Box 2                                01 
00150020004000024000001000016000007000000000000000000000000000000000000000000000000000000000000000000DEM       Member, State BoE, Dist 1                               DEM Georgina Perez                    Precinct 2 Voting Box 6                                01 
00150020005000058000008000033000017000000000000000000000000000000000000000000000000000000000000000000DEM       Member, State BoE, Dist 1                               DEM Georgina Perez                    Precinct 3 Voting Box 3                                01 
00150020006000054000006000037000011000000000000000000000000000000000000000000000000000000000000000000DEM       Member, State BoE, Dist 1                               DEM Georgina Perez                    Precinct 4 Voting Box 4                                01 
00150030001000000000000000000000000000000000000000000000000000000000000000000000000000000000000000000          Member, State BoE, Dist 1                               OVER VOTES                            Precinct 1 Voting Box 1                                01 
00150030002000000000000000000000000000000000000000000000000000000000000000000000000000000000000000000          Member, State BoE, Dist 1                               OVER VOTES                            Precinct 1 Voting Box 5                                01 
00150030003000000000000000000000000000000000000000000000000000000000000000000000000000000000000000000          Member, State BoE, Dist 1                               OVER VOTES                            Precinct 2 Voting Box 2                                01 
00150030004000000000000000000000000000000000000000000000000000000000000000000000000000000000000000000          Member, State BoE, Dist 1                               OVER VOTES                            Precinct 2 Voting Box 6                                01 
00150030005000000000000000000000000000000000000000000000000000000000000000000000000000000000000000000          Member, State BoE, Dist 1                               OVER VOTES                            Precinct 3 Voting Box 3                                01 
00150030006000000000000000000000000000000000000000000000000000000000000000000000000000000000000000000          Member, State BoE, Dist 1                               OVER VOTES                            Precinct 4 Voting Box 4                                01 
00150040001000012000000000012000000000000000000000000000000000000000000000000000000000000000000000000          Member, State BoE, Dist 1                               UNDER VOTES                           Precinct 1 Voting Box 1                                01 
00150040002000000000000000000000000000000000000000000000000000000000000000000000000000000000000000000          Member, State BoE, Dist 1                               UNDER VOTES                           Precinct 1 Voting Box 5                                01 
00150040003000009000001000007000001000000000000000000000000000000000000000000000000000000000000000000          Member, State BoE, Dist 1                               UNDER VOTES                           Precinct 2 Voting Box 2                                01 
00150040004000006000000000004000002000000000000000000000000000000000000000000000000000000000000000000          Member, State BoE, Dist 1                               UNDER VOTES                           Precinct 2 Voting Box 6                                01 
00150040005000014000000000009000005000000000000000000000000000000000000000000000000000000000000000000          Member, State BoE, Dist 1                               UNDER VOTES                           Precinct 3 Voting Box 3                                01 
