03750013020001067NONCTYALAMCITY OF ALAMO HEIGHTS Proposition                       FOR                                                                                          01Y
03750013025000701NONCTYALAMCITY OF ALAMO HEIGHTS Proposition                       FOR                                                                                          01Y
03750013026000701NONCTYALAMCITY OF ALAMO HEIGHTS Proposition                       FOR                                                                                          01Y
03750023020000267NONCTYALAMCITY OF ALAMO HEIGHTS Proposition                       AGAINST                                                                                      01Y
03750023025000201NONCTYALAMCITY OF ALAMO HEIGHTS Proposition                       AGAINST                                                                                      01Y
03750023026000153NONCTYALAMCITY OF ALAMO HEIGHTS Proposition                       AGAINST                                                                                      01Y
03750033020000000   CTYALAMCITY OF ALAMO HEIGHTS Proposition                       OVER VOTES                                                                                   01Y
03750033025000000   CTYALAMCITY OF ALAMO HEIGHTS Proposition                       OVER VOTES                                                                                   01Y
03750033026000000   CTYALAMCITY OF ALAMO HEIGHTS Proposition                       OVER VOTES                                                                                   01Y
03750043020000101   CTYALAMCITY OF ALAMO HEIGHTS Proposition                       UNDER VOTES                                                                                  01Y
03750043025000028   CTYALAMCITY OF ALAMO HEIGHTS Proposition                       UNDER VOTES                                                                                  01Y
03750043026000029   CTYALAMCITY OF ALAMO HEIGHTS Proposition                       UNDER VOTES                                                                                  01Y
