01070012111000056NONBALCONECity of Balcones Heights Mayor                          Suzanne de Leon                                                                              01 
01070012146000006NONBALCONECity of Balcones Heights Mayor                          Suzanne de Leon                                                                              01 
01070022111000000   BALCONECity of Balcones Heights Mayor                          OVER VOTES                                                                                   01 
01070022146000000   BALCONECity of Balcones Heights Mayor                          OVER VOTES                                                                                   01 
01070032111000011   BALCONECity of Balcones Heights Mayor                          UNDER VOTES                                                                                  01 
01070032146000000   BALCONECity of Balcones Heights Mayor                          UNDER VOTES                                                                                  01 
01080012111000054NONBALCONECity of Balcones Heights Council, Place No. 1           Miguel C. Valverde                                                                           01 
01080012146000005NONBALCONECity of Balcones Heights Council, Place No. 1           Miguel C. Valverde                                                                           01 
01080022111000000   BALCONECity of Balcones Heights Council, Place No. 1           OVER VOTES                                                                                   01 
01080022146000000   BALCONECity of Balcones Heights Council, Place No. 1           OVER VOTES                                                                                   01 
01080032111000013   BALCONECity of Balcones Heights Council, Place No. 1           UNDER VOTES                                                                                  01 
01080032146000001   BALCONECity of Balcones Heights Council, Place No. 1           UNDER VOTES                                                                                  01 
01090012111000032NONBALCONECity of Balcones Heights Council, Place No. 2           Madeline Slay                                                                                01 
01090012146000002NONBALCONECity of Balcones Heights Council, Place No. 2           Madeline Slay                                                                                01 
01090022111000034NONBALCONECity of Balcones Heights Council, Place No. 2           Linda Pohl                                                                                   01 
01090022146000004NONBALCONECity of Balcones Heights Council, Place No. 2           Linda Pohl                                                                                   01 
01090032111000000   BALCONECity of Balcones Heights Council, Place No. 2           OVER VOTES                                                                                   01 
01090032146000000   BALCONECity of Balcones Heights Council, Place No. 2           OVER VOTES                                                                                   01 
01090042111000001   BALCONECity of Balcones Heights Council, Place No. 2           UNDER VOTES                                                                                  01 
01090042146000000   BALCONECity of Balcones Heights Council, Place No. 2           UNDER VOTES                                                                                  01 
