01270014050000055NONBCWID  Bexar County WCID No. 10 Director                       G. Tom Moore                                                                                 02 
01270014051000121NONBCWID  Bexar County WCID No. 10 Director                       G. Tom Moore                                                                                 02 
01270014107000079NONBCWID  Bexar County WCID No. 10 Director                       G. Tom Moore                                                                                 02 
01270014192000000NONBCWID  Bexar County WCID No. 10 Director                       G. Tom Moore                                                                                 02 
01270014195000000NONBCWID  Bexar County WCID No. 10 Director                       G. Tom Moore                                                                                 02 
01270024050000065NONBCWID  Bexar County WCID No. 10 Director                       Allan Thompson                                                                               02 
01270024051000122NONBCWID  Bexar County WCID No. 10 Director                       Allan Thompson                                                                               02 
01270024107000089NONBCWID  Bexar County WCID No. 10 Director                       Allan Thompson                                                                               02 
01270024192000000NONBCWID  Bexar County WCID No. 10 Director                       Allan Thompson                                                                               02 
01270024195000000NONBCWID  Bexar County WCID No. 10 Director                       Allan Thompson                                                                               02 
01270034050000148NONBCWID  Bexar County WCID No. 10 Director                       Ed Chevalier                                                                                 02 
01270034051000218NONBCWID  Bexar County WCID No. 10 Director                       Ed Chevalier                                                                                 02 
01270034107000087NONBCWID  Bexar County WCID No. 10 Director                       Ed Chevalier                                                                                 02 
01270034192000000NONBCWID  Bexar County WCID No. 10 Director                       Ed Chevalier                                                                                 02 
01270034195000000NONBCWID  Bexar County WCID No. 10 Director                       Ed Chevalier                                                                                 02 
01270044050000142NONBCWID  Bexar County WCID No. 10 Director                       Mark Perry                                                                                   02 
01270044051000219NONBCWID  Bexar County WCID No. 10 Director                       Mark Perry                                                                                   02 
01270044107000084NONBCWID  Bexar County WCID No. 10 Director                       Mark Perry                                                                                   02 
01270044192000000NONBCWID  Bexar County WCID No. 10 Director                       Mark Perry                                                                                   02 
01270044195000000NONBCWID  Bexar County WCID No. 10 Director                       Mark Perry                                                                                   02 
01270054050000000   BCWID  Bexar County WCID No. 10 Director                       OVER VOTES                                                                                   02 
01270054051000000   BCWID  Bexar County WCID No. 10 Director                       OVER VOTES                                                                                   02 
01270054107000000   BCWID  Bexar County WCID No. 10 Director                       OVER VOTES                                                                                   02 
01270054192000000   BCWID  Bexar County WCID No. 10 Director                       OVER VOTES                                                                                   02 
01270054195000000   BCWID  Bexar County WCID No. 10 Director                       OVER VOTES                                                                                   02 
01270064050000034   BCWID  Bexar County WCID No. 10 Director                       UNDER VOTES                                                                                  02 
01270064051000076   BCWID  Bexar County WCID No. 10 Director                       UNDER VOTES                                                                                  02 
01270064107000043   BCWID  Bexar County WCID No. 10 Director                       UNDER VOTES                                                                                  02 
01270064192000000   BCWID  Bexar County WCID No. 10 Director                       UNDER VOTES                                                                                  02 
01270064195000000   BCWID  Bexar County WCID No. 10 Director                       UNDER VOTES                                                                                  02 
