01270014050000082NONBCWID  Bexar County WCID No. 10 Director                       G. Tom Moore                                                                                 02 
01270014051000161NONBCWID  Bexar County WCID No. 10 Director                       G. Tom Moore                                                                                 02 
01270014107000100NONBCWID  Bexar County WCID No. 10 Director                       G. Tom Moore                                                                                 02 
01270014192000000NONBCWID  Bexar County WCID No. 10 Director                       G. Tom Moore                                                                                 02 
01270014195000000NONBCWID  Bexar County WCID No. 10 Director                       G. Tom Moore                                                                                 02 
01270024050000097NONBCWID  Bexar County WCID No. 10 Director                       Allan Thompson                                                                               02 
01270024051000159NONBCWID  Bexar County WCID No. 10 Director                       Allan Thompson                                                                               02 
01270024107000115NONBCWID  Bexar County WCID No. 10 Director                       Allan Thompson                                                                               02 
01270024192000000NONBCWID  Bexar County WCID No. 10 Director                       Allan Thompson                                                                               02 
01270024195000000NONBCWID  Bexar County WCID No. 10 Director                       Allan Thompson                                                                               02 
01270034050000184NONBCWID  Bexar County WCID No. 10 Director                       Ed Chevalier                                                                                 02 
01270034051000282NONBCWID  Bexar County WCID No. 10 Director                       Ed Chevalier                                                                                 02 
01270034107000105NONBCWID  Bexar County WCID No. 10 Director                       Ed Chevalier                                                                                 02 
01270034192000000NONBCWID  Bexar County WCID No. 10 Director                       Ed Chevalier                                                                                 02 
01270034195000000NONBCWID  Bexar County WCID No. 10 Director                       Ed Chevalier                                                                                 02 
01270044050000177NONBCWID  Bexar County WCID No. 10 Director                       Mark Perry                                                                                   02 
01270044051000271NONBCWID  Bexar County WCID No. 10 Director                       Mark Perry                                                                                   02 
01270044107000106NONBCWID  Bexar County WCID No. 10 Director                       Mark Perry                                                                                   02 
01270044192000000NONBCWID  Bexar County WCID No. 10 Director                       Mark Perry                                                                                   02 
01270044195000000NONBCWID  Bexar County WCID No. 10 Director                       Mark Perry                                                                                   02 
01270054050000000   BCWID  Bexar County WCID No. 10 Director                       OVER VOTES                                                                                   02 
01270054051000000   BCWID  Bexar County WCID No. 10 Director                       OVER VOTES                                                                                   02 
01270054107000000   BCWID  Bexar County WCID No. 10 Director                       OVER VOTES                                                                                   02 
01270054192000000   BCWID  Bexar County WCID No. 10 Director                       OVER VOTES                                                                                   02 
01270054195000000   BCWID  Bexar County WCID No. 10 Director                       OVER VOTES                                                                                   02 
01270064050000062   BCWID  Bexar County WCID No. 10 Director                       UNDER VOTES                                                                                  02 
01270064051000101   BCWID  Bexar County WCID No. 10 Director                       UNDER VOTES                                                                                  02 
01270064107000058   BCWID  Bexar County WCID No. 10 Director                       UNDER VOTES                                                                                  02 
01270064192000000   BCWID  Bexar County WCID No. 10 Director                       UNDER VOTES                                                                                  02 
01270064195000000   BCWID  Bexar County WCID No. 10 Director                       UNDER VOTES                                                                                  02 
