01010010001000000          REGISTERED VOTERS - TOTAL                               REGISTERED VOTERS - TOTAL             Chisum ISD                                             00 
01020010001000289          BALLOTS CAST - TOTAL                                    BALLOTS CAST - TOTAL                  Chisum ISD                                             00 
01030010001000152NON       School Board Trustee (3 Year Term)                      Larry Rickman                         Chisum ISD                                             02 
01030020001000050NON       School Board Trustee (3 Year Term)                      Kerry Washington                      Chisum ISD                                             02 
01030030001000067NON       School Board Trustee (3 Year Term)                      Wesley Jackson                        Chisum ISD                                             02 
01030040001000073NON       School Board Trustee (3 Year Term)                      Todd Tisdell                          Chisum ISD                                             02 
01030050001000146NON       School Board Trustee (3 Year Term)                      Lori Collins                          Chisum ISD                                             02 
01030060001000062NON       School Board Trustee (3 Year Term)                      Kelly Jeffery                         Chisum ISD                                             02 
