03800014059000331NONCTYCONVCITY OF CONVERSE City Council Place 2                   Renée A. Paschall                                                                            01 
03800014067000207NONCTYCONVCITY OF CONVERSE City Council Place 2                   Renée A. Paschall                                                                            01 
03800014114000005NONCTYCONVCITY OF CONVERSE City Council Place 2                   Renée A. Paschall                                                                            01 
03800014130000084NONCTYCONVCITY OF CONVERSE City Council Place 2                   Renée A. Paschall                                                                            01 
03800014132000758NONCTYCONVCITY OF CONVERSE City Council Place 2                   Renée A. Paschall                                                                            01 
03800014162000317NONCTYCONVCITY OF CONVERSE City Council Place 2                   Renée A. Paschall                                                                            01 
03800014187000000NONCTYCONVCITY OF CONVERSE City Council Place 2                   Renée A. Paschall                                                                            01 
03800014191000001NONCTYCONVCITY OF CONVERSE City Council Place 2                   Renée A. Paschall                                                                            01 
03800014196000000NONCTYCONVCITY OF CONVERSE City Council Place 2                   Renée A. Paschall                                                                            01 
03800014197000000NONCTYCONVCITY OF CONVERSE City Council Place 2                   Renée A. Paschall                                                                            01 
03800014201000003NONCTYCONVCITY OF CONVERSE City Council Place 2                   Renée A. Paschall                                                                            01 
03800024059000276NONCTYCONVCITY OF CONVERSE City Council Place 2                   Deborah E. James                                                                             01 
03800024067000188NONCTYCONVCITY OF CONVERSE City Council Place 2                   Deborah E. James                                                                             01 
03800024114000007NONCTYCONVCITY OF CONVERSE City Council Place 2                   Deborah E. James                                                                             01 
03800024130000045NONCTYCONVCITY OF CONVERSE City Council Place 2                   Deborah E. James                                                                             01 
03800024132000715NONCTYCONVCITY OF CONVERSE City Council Place 2                   Deborah E. James                                                                             01 
03800024162000280NONCTYCONVCITY OF CONVERSE City Council Place 2                   Deborah E. James                                                                             01 
03800024187000000NONCTYCONVCITY OF CONVERSE City Council Place 2                   Deborah E. James                                                                             01 
03800024191000000NONCTYCONVCITY OF CONVERSE City Council Place 2                   Deborah E. James                                                                             01 
03800024196000000NONCTYCONVCITY OF CONVERSE City Council Place 2                   Deborah E. James                                                                             01 
03800024197000001NONCTYCONVCITY OF CONVERSE City Council Place 2                   Deborah E. James                                                                             01 
03800024201000004NONCTYCONVCITY OF CONVERSE City Council Place 2                   Deborah E. James                                                                             01 
03800034059000000   CTYCONVCITY OF CONVERSE City Council Place 2                   OVER VOTES                                                                                   01 
03800034067000000   CTYCONVCITY OF CONVERSE City Council Place 2                   OVER VOTES                                                                                   01 
03800034114000000   CTYCONVCITY OF CONVERSE City Council Place 2                   OVER VOTES                                                                                   01 
03800034130000000   CTYCONVCITY OF CONVERSE City Council Place 2                   OVER VOTES                                                                                   01 
03800034132000000   CTYCONVCITY OF CONVERSE City Council Place 2                   OVER VOTES                                                                                   01 
03800034162000000   CTYCONVCITY OF CONVERSE City Council Place 2                   OVER VOTES                                                                                   01 
03800034187000000   CTYCONVCITY OF CONVERSE City Council Place 2                   OVER VOTES                                                                                   01 
03800034191000000   CTYCONVCITY OF CONVERSE City Council Place 2                   OVER VOTES                                                                                   01 
03800034196000000   CTYCONVCITY OF CONVERSE City Council Place 2                   OVER VOTES                                                                                   01 
03800034197000000   CTYCONVCITY OF CONVERSE City Council Place 2                   OVER VOTES                                                                                   01 
03800034201000000   CTYCONVCITY OF CONVERSE City Council Place 2                   OVER VOTES                                                                                   01 
03800044059000230   CTYCONVCITY OF CONVERSE City Council Place 2                   UNDER VOTES                                                                                  01 
03800044067000158   CTYCONVCITY OF CONVERSE City Council Place 2                   UNDER VOTES                                                                                  01 
03800044114000004   CTYCONVCITY OF CONVERSE City Council Place 2                   UNDER VOTES                                                                                  01 
03800044130000040   CTYCONVCITY OF CONVERSE City Council Place 2                   UNDER VOTES                                                                                  01 
03800044132000526   CTYCONVCITY OF CONVERSE City Council Place 2                   UNDER VOTES                                                                                  01 
03800044162000231   CTYCONVCITY OF CONVERSE City Council Place 2                   UNDER VOTES                                                                                  01 
03800044187000000   CTYCONVCITY OF CONVERSE City Council Place 2                   UNDER VOTES                                                                                  01 
03800044191000001   CTYCONVCITY OF CONVERSE City Council Place 2                   UNDER VOTES                                                                                  01 
03800044196000000   CTYCONVCITY OF CONVERSE City Council Place 2                   UNDER VOTES                                                                                  01 
03800044197000001   CTYCONVCITY OF CONVERSE City Council Place 2                   UNDER VOTES                                                                                  01 
03800044201000019   CTYCONVCITY OF CONVERSE City Council Place 2                   UNDER VOTES                                                                                  01 
03850014059000316NONCTYCONVCITY OF CONVERSE City Council Place 4                   Randy Pannell                                                                                01 
03850014067000191NONCTYCONVCITY OF CONVERSE City Council Place 4                   Randy Pannell                                                                                01 
03850014114000004NONCTYCONVCITY OF CONVERSE City Council Place 4                   Randy Pannell                                                                                01 
03850014130000077NONCTYCONVCITY OF CONVERSE City Council Place 4                   Randy Pannell                                                                                01 
03850014132000730NONCTYCONVCITY OF CONVERSE City Council Place 4                   Randy Pannell                                                                                01 
03850014162000337NONCTYCONVCITY OF CONVERSE City Council Place 4                   Randy Pannell                                                                                01 
03850014187000000NONCTYCONVCITY OF CONVERSE City Council Place 4                   Randy Pannell                                                                                01 
03850014191000000NONCTYCONVCITY OF CONVERSE City Council Place 4                   Randy Pannell                                                                                01 
03850014196000000NONCTYCONVCITY OF CONVERSE City Council Place 4                   Randy Pannell                                                                                01 
03850014197000001NONCTYCONVCITY OF CONVERSE City Council Place 4                   Randy Pannell                                                                                01 
03850014201000010NONCTYCONVCITY OF CONVERSE City Council Place 4                   Randy Pannell                                                                                01 
03850024059000283NONCTYCONVCITY OF CONVERSE City Council Place 4                   Jon R. Lindgren                                                                              01 
03850024067000198NONCTYCONVCITY OF CONVERSE City Council Place 4                   Jon R. Lindgren                                                                              01 
03850024114000006NONCTYCONVCITY OF CONVERSE City Council Place 4                   Jon R. Lindgren                                                                              01 
03850024130000052NONCTYCONVCITY OF CONVERSE City Council Place 4                   Jon R. Lindgren                                                                              01 
03850024132000731NONCTYCONVCITY OF CONVERSE City Council Place 4                   Jon R. Lindgren                                                                              01 
03850024162000272NONCTYCONVCITY OF CONVERSE City Council Place 4                   Jon R. Lindgren                                                                              01 
03850024187000000NONCTYCONVCITY OF CONVERSE City Council Place 4                   Jon R. Lindgren                                                                              01 
03850024191000001NONCTYCONVCITY OF CONVERSE City Council Place 4                   Jon R. Lindgren                                                                              01 
03850024196000000NONCTYCONVCITY OF CONVERSE City Council Place 4                   Jon R. Lindgren                                                                              01 
03850024197000000NONCTYCONVCITY OF CONVERSE City Council Place 4                   Jon R. Lindgren                                                                              01 
03850024201000004NONCTYCONVCITY OF CONVERSE City Council Place 4                   Jon R. Lindgren                                                                              01 
03850034059000000   CTYCONVCITY OF CONVERSE City Council Place 4                   OVER VOTES                                                                                   01 
03850034067000000   CTYCONVCITY OF CONVERSE City Council Place 4                   OVER VOTES                                                                                   01 
03850034114000000   CTYCONVCITY OF CONVERSE City Council Place 4                   OVER VOTES                                                                                   01 
03850034130000000   CTYCONVCITY OF CONVERSE City Council Place 4                   OVER VOTES                                                                                   01 
03850034132000000   CTYCONVCITY OF CONVERSE City Council Place 4                   OVER VOTES                                                                                   01 
03850034162000000   CTYCONVCITY OF CONVERSE City Council Place 4                   OVER VOTES                                                                                   01 
03850034187000000   CTYCONVCITY OF CONVERSE City Council Place 4                   OVER VOTES                                                                                   01 
03850034191000000   CTYCONVCITY OF CONVERSE City Council Place 4                   OVER VOTES                                                                                   01 
03850034196000000   CTYCONVCITY OF CONVERSE City Council Place 4                   OVER VOTES                                                                                   01 
03850034197000000   CTYCONVCITY OF CONVERSE City Council Place 4                   OVER VOTES                                                                                   01 
03850034201000000   CTYCONVCITY OF CONVERSE City Council Place 4                   OVER VOTES                                                                                   01 
03850044059000238   CTYCONVCITY OF CONVERSE City Council Place 4                   UNDER VOTES                                                                                  01 
03850044067000164   CTYCONVCITY OF CONVERSE City Council Place 4                   UNDER VOTES                                                                                  01 
03850044114000006   CTYCONVCITY OF CONVERSE City Council Place 4                   UNDER VOTES                                                                                  01 
03850044130000040   CTYCONVCITY OF CONVERSE City Council Place 4                   UNDER VOTES                                                                                  01 
03850044132000538   CTYCONVCITY OF CONVERSE City Council Place 4                   UNDER VOTES                                                                                  01 
03850044162000219   CTYCONVCITY OF CONVERSE City Council Place 4                   UNDER VOTES                                                                                  01 
03850044187000000   CTYCONVCITY OF CONVERSE City Council Place 4                   UNDER VOTES                                                                                  01 
03850044191000001   CTYCONVCITY OF CONVERSE City Council Place 4                   UNDER VOTES                                                                                  01 
03850044196000000   CTYCONVCITY OF CONVERSE City Council Place 4                   UNDER VOTES                                                                                  01 
03850044197000001   CTYCONVCITY OF CONVERSE City Council Place 4                   UNDER VOTES                                                                                  01 
03850044201000012   CTYCONVCITY OF CONVERSE City Council Place 4                   UNDER VOTES                                                                                  01 
03900014059000358NONCTYCONVCITY OF CONVERSE City Council Place 6                   Steve Brown                                                                                  01 
03900014067000241NONCTYCONVCITY OF CONVERSE City Council Place 6                   Steve Brown                                                                                  01 
03900014114000005NONCTYCONVCITY OF CONVERSE City Council Place 6                   Steve Brown                                                                                  01 
03900014130000080NONCTYCONVCITY OF CONVERSE City Council Place 6                   Steve Brown                                                                                  01 
03900014132000936NONCTYCONVCITY OF CONVERSE City Council Place 6                   Steve Brown                                                                                  01 
03900014162000345NONCTYCONVCITY OF CONVERSE City Council Place 6                   Steve Brown                                                                                  01 
03900014187000000NONCTYCONVCITY OF CONVERSE City Council Place 6                   Steve Brown                                                                                  01 
03900014191000001NONCTYCONVCITY OF CONVERSE City Council Place 6                   Steve Brown                                                                                  01 
03900014196000000NONCTYCONVCITY OF CONVERSE City Council Place 6                   Steve Brown                                                                                  01 
03900014197000001NONCTYCONVCITY OF CONVERSE City Council Place 6                   Steve Brown                                                                                  01 
03900014201000006NONCTYCONVCITY OF CONVERSE City Council Place 6                   Steve Brown                                                                                  01 
03900024059000258NONCTYCONVCITY OF CONVERSE City Council Place 6                   John P. Shadron                                                                              01 
03900024067000158NONCTYCONVCITY OF CONVERSE City Council Place 6                   John P. Shadron                                                                              01 
03900024114000006NONCTYCONVCITY OF CONVERSE City Council Place 6                   John P. Shadron                                                                              01 
03900024130000048NONCTYCONVCITY OF CONVERSE City Council Place 6                   John P. Shadron                                                                              01 
03900024132000521NONCTYCONVCITY OF CONVERSE City Council Place 6                   John P. Shadron                                                                              01 
03900024162000278NONCTYCONVCITY OF CONVERSE City Council Place 6                   John P. Shadron                                                                              01 
03900024187000000NONCTYCONVCITY OF CONVERSE City Council Place 6                   John P. Shadron                                                                              01 
03900024191000000NONCTYCONVCITY OF CONVERSE City Council Place 6                   John P. Shadron                                                                              01 
03900024196000000NONCTYCONVCITY OF CONVERSE City Council Place 6                   John P. Shadron                                                                              01 
03900024197000000NONCTYCONVCITY OF CONVERSE City Council Place 6                   John P. Shadron                                                                              01 
03900024201000002NONCTYCONVCITY OF CONVERSE City Council Place 6                   John P. Shadron                                                                              01 
03900034059000000   CTYCONVCITY OF CONVERSE City Council Place 6                   OVER VOTES                                                                                   01 
03900034067000000   CTYCONVCITY OF CONVERSE City Council Place 6                   OVER VOTES                                                                                   01 
03900034114000000   CTYCONVCITY OF CONVERSE City Council Place 6                   OVER VOTES                                                                                   01 
03900034130000000   CTYCONVCITY OF CONVERSE City Council Place 6                   OVER VOTES                                                                                   01 
03900034132000000   CTYCONVCITY OF CONVERSE City Council Place 6                   OVER VOTES                                                                                   01 
03900034162000000   CTYCONVCITY OF CONVERSE City Council Place 6                   OVER VOTES                                                                                   01 
03900034187000000   CTYCONVCITY OF CONVERSE City Council Place 6                   OVER VOTES                                                                                   01 
03900034191000000   CTYCONVCITY OF CONVERSE City Council Place 6                   OVER VOTES                                                                                   01 
03900034196000000   CTYCONVCITY OF CONVERSE City Council Place 6                   OVER VOTES                                                                                   01 
03900034197000000   CTYCONVCITY OF CONVERSE City Council Place 6                   OVER VOTES                                                                                   01 
03900034201000000   CTYCONVCITY OF CONVERSE City Council Place 6                   OVER VOTES                                                                                   01 
03900044059000221   CTYCONVCITY OF CONVERSE City Council Place 6                   UNDER VOTES                                                                                  01 
03900044067000154   CTYCONVCITY OF CONVERSE City Council Place 6                   UNDER VOTES                                                                                  01 
03900044114000005   CTYCONVCITY OF CONVERSE City Council Place 6                   UNDER VOTES                                                                                  01 
03900044130000041   CTYCONVCITY OF CONVERSE City Council Place 6                   UNDER VOTES                                                                                  01 
03900044132000542   CTYCONVCITY OF CONVERSE City Council Place 6                   UNDER VOTES                                                                                  01 
03900044162000205   CTYCONVCITY OF CONVERSE City Council Place 6                   UNDER VOTES                                                                                  01 
03900044187000000   CTYCONVCITY OF CONVERSE City Council Place 6                   UNDER VOTES                                                                                  01 
03900044191000001   CTYCONVCITY OF CONVERSE City Council Place 6                   UNDER VOTES                                                                                  01 
03900044196000000   CTYCONVCITY OF CONVERSE City Council Place 6                   UNDER VOTES                                                                                  01 
03900044197000001   CTYCONVCITY OF CONVERSE City Council Place 6                   UNDER VOTES                                                                                  01 
03900044201000018   CTYCONVCITY OF CONVERSE City Council Place 6                   UNDER VOTES                                                                                  01 
03950014059000614NONCTYCONVCITY OF CONVERSE Proposition 1                          FOR                                                                                          01Y
03950014067000355NONCTYCONVCITY OF CONVERSE Proposition 1                          FOR                                                                                          01Y
03950014114000011NONCTYCONVCITY OF CONVERSE Proposition 1                          FOR                                                                                          01Y
03950014130000124NONCTYCONVCITY OF CONVERSE Proposition 1                          FOR                                                                                          01Y
03950014132001471NONCTYCONVCITY OF CONVERSE Proposition 1                          FOR                                                                                          01Y
03950014162000598NONCTYCONVCITY OF CONVERSE Proposition 1                          FOR                                                                                          01Y
03950014187000000NONCTYCONVCITY OF CONVERSE Proposition 1                          FOR                                                                                          01Y
03950014191000001NONCTYCONVCITY OF CONVERSE Proposition 1                          FOR                                                                                          01Y
03950014196000000NONCTYCONVCITY OF CONVERSE Proposition 1                          FOR                                                                                          01Y
03950014197000002NONCTYCONVCITY OF CONVERSE Proposition 1                          FOR                                                                                          01Y
03950014201000011NONCTYCONVCITY OF CONVERSE Proposition 1                          FOR                                                                                          01Y
03950024059000111NONCTYCONVCITY OF CONVERSE Proposition 1                          AGAINST                                                                                      01Y
03950024067000109NONCTYCONVCITY OF CONVERSE Proposition 1                          AGAINST                                                                                      01Y
03950024114000003NONCTYCONVCITY OF CONVERSE Proposition 1                          AGAINST                                                                                      01Y
03950024130000023NONCTYCONVCITY OF CONVERSE Proposition 1                          AGAINST                                                                                      01Y
03950024132000261NONCTYCONVCITY OF CONVERSE Proposition 1                          AGAINST                                                                                      01Y
03950024162000112NONCTYCONVCITY OF CONVERSE Proposition 1                          AGAINST                                                                                      01Y
03950024187000000NONCTYCONVCITY OF CONVERSE Proposition 1                          AGAINST                                                                                      01Y
03950024191000001NONCTYCONVCITY OF CONVERSE Proposition 1                          AGAINST                                                                                      01Y
03950024196000000NONCTYCONVCITY OF CONVERSE Proposition 1                          AGAINST                                                                                      01Y
03950024197000000NONCTYCONVCITY OF CONVERSE Proposition 1                          AGAINST                                                                                      01Y
03950024201000000NONCTYCONVCITY OF CONVERSE Proposition 1                          AGAINST                                                                                      01Y
03950034059000000   CTYCONVCITY OF CONVERSE Proposition 1                          OVER VOTES                                                                                   01Y
03950034067000000   CTYCONVCITY OF CONVERSE Proposition 1                          OVER VOTES                                                                                   01Y
03950034114000000   CTYCONVCITY OF CONVERSE Proposition 1                          OVER VOTES                                                                                   01Y
03950034130000000   CTYCONVCITY OF CONVERSE Proposition 1                          OVER VOTES                                                                                   01Y
03950034132000000   CTYCONVCITY OF CONVERSE Proposition 1                          OVER VOTES                                                                                   01Y
03950034162000000   CTYCONVCITY OF CONVERSE Proposition 1                          OVER VOTES                                                                                   01Y
03950034187000000   CTYCONVCITY OF CONVERSE Proposition 1                          OVER VOTES                                                                                   01Y
03950034191000000   CTYCONVCITY OF CONVERSE Proposition 1                          OVER VOTES                                                                                   01Y
03950034196000000   CTYCONVCITY OF CONVERSE Proposition 1                          OVER VOTES                                                                                   01Y
03950034197000000   CTYCONVCITY OF CONVERSE Proposition 1                          OVER VOTES                                                                                   01Y
03950034201000000   CTYCONVCITY OF CONVERSE Proposition 1                          OVER VOTES                                                                                   01Y
03950044059000112   CTYCONVCITY OF CONVERSE Proposition 1                          UNDER VOTES                                                                                  01Y
03950044067000089   CTYCONVCITY OF CONVERSE Proposition 1                          UNDER VOTES                                                                                  01Y
03950044114000002   CTYCONVCITY OF CONVERSE Proposition 1                          UNDER VOTES                                                                                  01Y
03950044130000022   CTYCONVCITY OF CONVERSE Proposition 1                          UNDER VOTES                                                                                  01Y
03950044132000267   CTYCONVCITY OF CONVERSE Proposition 1                          UNDER VOTES                                                                                  01Y
03950044162000118   CTYCONVCITY OF CONVERSE Proposition 1                          UNDER VOTES                                                                                  01Y
03950044187000000   CTYCONVCITY OF CONVERSE Proposition 1                          UNDER VOTES                                                                                  01Y
03950044191000000   CTYCONVCITY OF CONVERSE Proposition 1                          UNDER VOTES                                                                                  01Y
03950044196000000   CTYCONVCITY OF CONVERSE Proposition 1                          UNDER VOTES                                                                                  01Y
03950044197000000   CTYCONVCITY OF CONVERSE Proposition 1                          UNDER VOTES                                                                                  01Y
03950044201000015   CTYCONVCITY OF CONVERSE Proposition 1                          UNDER VOTES                                                                                  01Y
04000014059000551NONCTYCONVCITY OF CONVERSE Proposition 2                          FOR                                                                                          01Y
04000014067000349NONCTYCONVCITY OF CONVERSE Proposition 2                          FOR                                                                                          01Y
04000014114000013NONCTYCONVCITY OF CONVERSE Proposition 2                          FOR                                                                                          01Y
04000014130000120NONCTYCONVCITY OF CONVERSE Proposition 2                          FOR                                                                                          01Y
04000014132001391NONCTYCONVCITY OF CONVERSE Proposition 2                          FOR                                                                                          01Y
04000014162000554NONCTYCONVCITY OF CONVERSE Proposition 2                          FOR                                                                                          01Y
04000014187000000NONCTYCONVCITY OF CONVERSE Proposition 2                          FOR                                                                                          01Y
04000014191000000NONCTYCONVCITY OF CONVERSE Proposition 2                          FOR                                                                                          01Y
04000014196000000NONCTYCONVCITY OF CONVERSE Proposition 2                          FOR                                                                                          01Y
04000014197000001NONCTYCONVCITY OF CONVERSE Proposition 2                          FOR                                                                                          01Y
04000014201000010NONCTYCONVCITY OF CONVERSE Proposition 2                          FOR                                                                                          01Y
04000024059000171NONCTYCONVCITY OF CONVERSE Proposition 2                          AGAINST                                                                                      01Y
04000024067000124NONCTYCONVCITY OF CONVERSE Proposition 2                          AGAINST                                                                                      01Y
04000024114000002NONCTYCONVCITY OF CONVERSE Proposition 2                          AGAINST                                                                                      01Y
04000024130000031NONCTYCONVCITY OF CONVERSE Proposition 2                          AGAINST                                                                                      01Y
04000024132000341NONCTYCONVCITY OF CONVERSE Proposition 2                          AGAINST                                                                                      01Y
04000024162000144NONCTYCONVCITY OF CONVERSE Proposition 2                          AGAINST                                                                                      01Y
04000024187000000NONCTYCONVCITY OF CONVERSE Proposition 2                          AGAINST                                                                                      01Y
04000024191000002NONCTYCONVCITY OF CONVERSE Proposition 2                          AGAINST                                                                                      01Y
04000024196000000NONCTYCONVCITY OF CONVERSE Proposition 2                          AGAINST                                                                                      01Y
04000024197000001NONCTYCONVCITY OF CONVERSE Proposition 2                          AGAINST                                                                                      01Y
04000024201000001NONCTYCONVCITY OF CONVERSE Proposition 2                          AGAINST                                                                                      01Y
04000034059000000   CTYCONVCITY OF CONVERSE Proposition 2                          OVER VOTES                                                                                   01Y
04000034067000000   CTYCONVCITY OF CONVERSE Proposition 2                          OVER VOTES                                                                                   01Y
04000034114000000   CTYCONVCITY OF CONVERSE Proposition 2                          OVER VOTES                                                                                   01Y
04000034130000000   CTYCONVCITY OF CONVERSE Proposition 2                          OVER VOTES                                                                                   01Y
04000034132000000   CTYCONVCITY OF CONVERSE Proposition 2                          OVER VOTES                                                                                   01Y
04000034162000000   CTYCONVCITY OF CONVERSE Proposition 2                          OVER VOTES                                                                                   01Y
04000034187000000   CTYCONVCITY OF CONVERSE Proposition 2                          OVER VOTES                                                                                   01Y
04000034191000000   CTYCONVCITY OF CONVERSE Proposition 2                          OVER VOTES                                                                                   01Y
04000034196000000   CTYCONVCITY OF CONVERSE Proposition 2                          OVER VOTES                                                                                   01Y
04000034197000000   CTYCONVCITY OF CONVERSE Proposition 2                          OVER VOTES                                                                                   01Y
04000034201000000   CTYCONVCITY OF CONVERSE Proposition 2                          OVER VOTES                                                                                   01Y
04000044059000115   CTYCONVCITY OF CONVERSE Proposition 2                          UNDER VOTES                                                                                  01Y
04000044067000080   CTYCONVCITY OF CONVERSE Proposition 2                          UNDER VOTES                                                                                  01Y
04000044114000001   CTYCONVCITY OF CONVERSE Proposition 2                          UNDER VOTES                                                                                  01Y
04000044130000018   CTYCONVCITY OF CONVERSE Proposition 2                          UNDER VOTES                                                                                  01Y
04000044132000267   CTYCONVCITY OF CONVERSE Proposition 2                          UNDER VOTES                                                                                  01Y
04000044162000130   CTYCONVCITY OF CONVERSE Proposition 2                          UNDER VOTES                                                                                  01Y
04000044187000000   CTYCONVCITY OF CONVERSE Proposition 2                          UNDER VOTES                                                                                  01Y
04000044191000000   CTYCONVCITY OF CONVERSE Proposition 2                          UNDER VOTES                                                                                  01Y
04000044196000000   CTYCONVCITY OF CONVERSE Proposition 2                          UNDER VOTES                                                                                  01Y
04000044197000000   CTYCONVCITY OF CONVERSE Proposition 2                          UNDER VOTES                                                                                  01Y
04000044201000015   CTYCONVCITY OF CONVERSE Proposition 2                          UNDER VOTES                                                                                  01Y
04050014059000572NONCTYCONVCITY OF CONVERSE Proposition 3                          FOR                                                                                          01Y
04050014067000352NONCTYCONVCITY OF CONVERSE Proposition 3                          FOR                                                                                          01Y
04050014114000010NONCTYCONVCITY OF CONVERSE Proposition 3                          FOR                                                                                          01Y
04050014130000128NONCTYCONVCITY OF CONVERSE Proposition 3                          FOR                                                                                          01Y
04050014132001333NONCTYCONVCITY OF CONVERSE Proposition 3                          FOR                                                                                          01Y
04050014162000537NONCTYCONVCITY OF CONVERSE Proposition 3                          FOR                                                                                          01Y
04050014187000000NONCTYCONVCITY OF CONVERSE Proposition 3                          FOR                                                                                          01Y
04050014191000002NONCTYCONVCITY OF CONVERSE Proposition 3                          FOR                                                                                          01Y
04050014196000000NONCTYCONVCITY OF CONVERSE Proposition 3                          FOR                                                                                          01Y
04050014197000002NONCTYCONVCITY OF CONVERSE Proposition 3                          FOR                                                                                          01Y
04050014201000009NONCTYCONVCITY OF CONVERSE Proposition 3                          FOR                                                                                          01Y
04050024059000139NONCTYCONVCITY OF CONVERSE Proposition 3                          AGAINST                                                                                      01Y
04050024067000104NONCTYCONVCITY OF CONVERSE Proposition 3                          AGAINST                                                                                      01Y
04050024114000001NONCTYCONVCITY OF CONVERSE Proposition 3                          AGAINST                                                                                      01Y
04050024130000021NONCTYCONVCITY OF CONVERSE Proposition 3                          AGAINST                                                                                      01Y
04050024132000379NONCTYCONVCITY OF CONVERSE Proposition 3                          AGAINST                                                                                      01Y
04050024162000153NONCTYCONVCITY OF CONVERSE Proposition 3                          AGAINST                                                                                      01Y
04050024187000000NONCTYCONVCITY OF CONVERSE Proposition 3                          AGAINST                                                                                      01Y
04050024191000000NONCTYCONVCITY OF CONVERSE Proposition 3                          AGAINST                                                                                      01Y
04050024196000000NONCTYCONVCITY OF CONVERSE Proposition 3                          AGAINST                                                                                      01Y
04050024197000000NONCTYCONVCITY OF CONVERSE Proposition 3                          AGAINST                                                                                      01Y
04050024201000001NONCTYCONVCITY OF CONVERSE Proposition 3                          AGAINST                                                                                      01Y
04050034059000000   CTYCONVCITY OF CONVERSE Proposition 3                          OVER VOTES                                                                                   01Y
04050034067000000   CTYCONVCITY OF CONVERSE Proposition 3                          OVER VOTES                                                                                   01Y
04050034114000000   CTYCONVCITY OF CONVERSE Proposition 3                          OVER VOTES                                                                                   01Y
04050034130000000   CTYCONVCITY OF CONVERSE Proposition 3                          OVER VOTES                                                                                   01Y
04050034132000000   CTYCONVCITY OF CONVERSE Proposition 3                          OVER VOTES                                                                                   01Y
04050034162000000   CTYCONVCITY OF CONVERSE Proposition 3                          OVER VOTES                                                                                   01Y
04050034187000000   CTYCONVCITY OF CONVERSE Proposition 3                          OVER VOTES                                                                                   01Y
04050034191000000   CTYCONVCITY OF CONVERSE Proposition 3                          OVER VOTES                                                                                   01Y
04050034196000000   CTYCONVCITY OF CONVERSE Proposition 3                          OVER VOTES                                                                                   01Y
04050034197000000   CTYCONVCITY OF CONVERSE Proposition 3                          OVER VOTES                                                                                   01Y
04050034201000000   CTYCONVCITY OF CONVERSE Proposition 3                          OVER VOTES                                                                                   01Y
04050044059000126   CTYCONVCITY OF CONVERSE Proposition 3                          UNDER VOTES                                                                                  01Y
04050044067000097   CTYCONVCITY OF CONVERSE Proposition 3                          UNDER VOTES                                                                                  01Y
04050044114000005   CTYCONVCITY OF CONVERSE Proposition 3                          UNDER VOTES                                                                                  01Y
04050044130000020   CTYCONVCITY OF CONVERSE Proposition 3                          UNDER VOTES                                                                                  01Y
04050044132000287   CTYCONVCITY OF CONVERSE Proposition 3                          UNDER VOTES                                                                                  01Y
04050044162000138   CTYCONVCITY OF CONVERSE Proposition 3                          UNDER VOTES                                                                                  01Y
04050044187000000   CTYCONVCITY OF CONVERSE Proposition 3                          UNDER VOTES                                                                                  01Y
04050044191000000   CTYCONVCITY OF CONVERSE Proposition 3                          UNDER VOTES                                                                                  01Y
04050044196000000   CTYCONVCITY OF CONVERSE Proposition 3                          UNDER VOTES                                                                                  01Y
04050044197000000   CTYCONVCITY OF CONVERSE Proposition 3                          UNDER VOTES                                                                                  01Y
04050044201000016   CTYCONVCITY OF CONVERSE Proposition 3                          UNDER VOTES                                                                                  01Y
04100014059000687NONCTYCONVCITY OF CONVERSE Proposition 4                          FOR                                                                                          01Y
04100014067000431NONCTYCONVCITY OF CONVERSE Proposition 4                          FOR                                                                                          01Y
04100014114000014NONCTYCONVCITY OF CONVERSE Proposition 4                          FOR                                                                                          01Y
04100014130000147NONCTYCONVCITY OF CONVERSE Proposition 4                          FOR                                                                                          01Y
04100014132001684NONCTYCONVCITY OF CONVERSE Proposition 4                          FOR                                                                                          01Y
04100014162000673NONCTYCONVCITY OF CONVERSE Proposition 4                          FOR                                                                                          01Y
04100014187000000NONCTYCONVCITY OF CONVERSE Proposition 4                          FOR                                                                                          01Y
04100014191000002NONCTYCONVCITY OF CONVERSE Proposition 4                          FOR                                                                                          01Y
04100014196000000NONCTYCONVCITY OF CONVERSE Proposition 4                          FOR                                                                                          01Y
04100014197000002NONCTYCONVCITY OF CONVERSE Proposition 4                          FOR                                                                                          01Y
04100014201000012NONCTYCONVCITY OF CONVERSE Proposition 4                          FOR                                                                                          01Y
04100024059000059NONCTYCONVCITY OF CONVERSE Proposition 4                          AGAINST                                                                                      01Y
04100024067000049NONCTYCONVCITY OF CONVERSE Proposition 4                          AGAINST                                                                                      01Y
04100024114000001NONCTYCONVCITY OF CONVERSE Proposition 4                          AGAINST                                                                                      01Y
04100024130000007NONCTYCONVCITY OF CONVERSE Proposition 4                          AGAINST                                                                                      01Y
04100024132000112NONCTYCONVCITY OF CONVERSE Proposition 4                          AGAINST                                                                                      01Y
04100024162000045NONCTYCONVCITY OF CONVERSE Proposition 4                          AGAINST                                                                                      01Y
04100024187000000NONCTYCONVCITY OF CONVERSE Proposition 4                          AGAINST                                                                                      01Y
04100024191000000NONCTYCONVCITY OF CONVERSE Proposition 4                          AGAINST                                                                                      01Y
04100024196000000NONCTYCONVCITY OF CONVERSE Proposition 4                          AGAINST                                                                                      01Y
04100024197000000NONCTYCONVCITY OF CONVERSE Proposition 4                          AGAINST                                                                                      01Y
04100024201000000NONCTYCONVCITY OF CONVERSE Proposition 4                          AGAINST                                                                                      01Y
04100034059000000   CTYCONVCITY OF CONVERSE Proposition 4                          OVER VOTES                                                                                   01Y
04100034067000000   CTYCONVCITY OF CONVERSE Proposition 4                          OVER VOTES                                                                                   01Y
04100034114000000   CTYCONVCITY OF CONVERSE Proposition 4                          OVER VOTES                                                                                   01Y
04100034130000000   CTYCONVCITY OF CONVERSE Proposition 4                          OVER VOTES                                                                                   01Y
04100034132000000   CTYCONVCITY OF CONVERSE Proposition 4                          OVER VOTES                                                                                   01Y
04100034162000000   CTYCONVCITY OF CONVERSE Proposition 4                          OVER VOTES                                                                                   01Y
04100034187000000   CTYCONVCITY OF CONVERSE Proposition 4                          OVER VOTES                                                                                   01Y
04100034191000000   CTYCONVCITY OF CONVERSE Proposition 4                          OVER VOTES                                                                                   01Y
04100034196000000   CTYCONVCITY OF CONVERSE Proposition 4                          OVER VOTES                                                                                   01Y
04100034197000000   CTYCONVCITY OF CONVERSE Proposition 4                          OVER VOTES                                                                                   01Y
04100034201000000   CTYCONVCITY OF CONVERSE Proposition 4                          OVER VOTES                                                                                   01Y
04100044059000091   CTYCONVCITY OF CONVERSE Proposition 4                          UNDER VOTES                                                                                  01Y
04100044067000073   CTYCONVCITY OF CONVERSE Proposition 4                          UNDER VOTES                                                                                  01Y
04100044114000001   CTYCONVCITY OF CONVERSE Proposition 4                          UNDER VOTES                                                                                  01Y
04100044130000015   CTYCONVCITY OF CONVERSE Proposition 4                          UNDER VOTES                                                                                  01Y
04100044132000203   CTYCONVCITY OF CONVERSE Proposition 4                          UNDER VOTES                                                                                  01Y
04100044162000110   CTYCONVCITY OF CONVERSE Proposition 4                          UNDER VOTES                                                                                  01Y
04100044187000000   CTYCONVCITY OF CONVERSE Proposition 4                          UNDER VOTES                                                                                  01Y
04100044191000000   CTYCONVCITY OF CONVERSE Proposition 4                          UNDER VOTES                                                                                  01Y
04100044196000000   CTYCONVCITY OF CONVERSE Proposition 4                          UNDER VOTES                                                                                  01Y
04100044197000000   CTYCONVCITY OF CONVERSE Proposition 4                          UNDER VOTES                                                                                  01Y
04100044201000014   CTYCONVCITY OF CONVERSE Proposition 4                          UNDER VOTES                                                                                  01Y
04150014059000586NONCTYCONVCITY OF CONVERSE Proposition 5                          FOR                                                                                          01Y
04150014067000355NONCTYCONVCITY OF CONVERSE Proposition 5                          FOR                                                                                          01Y
04150014114000012NONCTYCONVCITY OF CONVERSE Proposition 5                          FOR                                                                                          01Y
04150014130000117NONCTYCONVCITY OF CONVERSE Proposition 5                          FOR                                                                                          01Y
04150014132001392NONCTYCONVCITY OF CONVERSE Proposition 5                          FOR                                                                                          01Y
04150014162000557NONCTYCONVCITY OF CONVERSE Proposition 5                          FOR                                                                                          01Y
04150014187000000NONCTYCONVCITY OF CONVERSE Proposition 5                          FOR                                                                                          01Y
04150014191000001NONCTYCONVCITY OF CONVERSE Proposition 5                          FOR                                                                                          01Y
04150014196000000NONCTYCONVCITY OF CONVERSE Proposition 5                          FOR                                                                                          01Y
04150014197000002NONCTYCONVCITY OF CONVERSE Proposition 5                          FOR                                                                                          01Y
04150014201000009NONCTYCONVCITY OF CONVERSE Proposition 5                          FOR                                                                                          01Y
04150024059000119NONCTYCONVCITY OF CONVERSE Proposition 5                          AGAINST                                                                                      01Y
04150024067000108NONCTYCONVCITY OF CONVERSE Proposition 5                          AGAINST                                                                                      01Y
04150024114000001NONCTYCONVCITY OF CONVERSE Proposition 5                          AGAINST                                                                                      01Y
04150024130000030NONCTYCONVCITY OF CONVERSE Proposition 5                          AGAINST                                                                                      01Y
04150024132000316NONCTYCONVCITY OF CONVERSE Proposition 5                          AGAINST                                                                                      01Y
04150024162000133NONCTYCONVCITY OF CONVERSE Proposition 5                          AGAINST                                                                                      01Y
04150024187000000NONCTYCONVCITY OF CONVERSE Proposition 5                          AGAINST                                                                                      01Y
04150024191000001NONCTYCONVCITY OF CONVERSE Proposition 5                          AGAINST                                                                                      01Y
04150024196000000NONCTYCONVCITY OF CONVERSE Proposition 5                          AGAINST                                                                                      01Y
04150024197000000NONCTYCONVCITY OF CONVERSE Proposition 5                          AGAINST                                                                                      01Y
04150024201000001NONCTYCONVCITY OF CONVERSE Proposition 5                          AGAINST                                                                                      01Y
04150034059000000   CTYCONVCITY OF CONVERSE Proposition 5                          OVER VOTES                                                                                   01Y
04150034067000000   CTYCONVCITY OF CONVERSE Proposition 5                          OVER VOTES                                                                                   01Y
04150034114000000   CTYCONVCITY OF CONVERSE Proposition 5                          OVER VOTES                                                                                   01Y
04150034130000000   CTYCONVCITY OF CONVERSE Proposition 5                          OVER VOTES                                                                                   01Y
04150034132000000   CTYCONVCITY OF CONVERSE Proposition 5                          OVER VOTES                                                                                   01Y
04150034162000000   CTYCONVCITY OF CONVERSE Proposition 5                          OVER VOTES                                                                                   01Y
04150034187000000   CTYCONVCITY OF CONVERSE Proposition 5                          OVER VOTES                                                                                   01Y
04150034191000000   CTYCONVCITY OF CONVERSE Proposition 5                          OVER VOTES                                                                                   01Y
04150034196000000   CTYCONVCITY OF CONVERSE Proposition 5                          OVER VOTES                                                                                   01Y
04150034197000000   CTYCONVCITY OF CONVERSE Proposition 5                          OVER VOTES                                                                                   01Y
04150034201000000   CTYCONVCITY OF CONVERSE Proposition 5                          OVER VOTES                                                                                   01Y
04150044059000132   CTYCONVCITY OF CONVERSE Proposition 5                          UNDER VOTES                                                                                  01Y
04150044067000090   CTYCONVCITY OF CONVERSE Proposition 5                          UNDER VOTES                                                                                  01Y
04150044114000003   CTYCONVCITY OF CONVERSE Proposition 5                          UNDER VOTES                                                                                  01Y
04150044130000022   CTYCONVCITY OF CONVERSE Proposition 5                          UNDER VOTES                                                                                  01Y
04150044132000291   CTYCONVCITY OF CONVERSE Proposition 5                          UNDER VOTES                                                                                  01Y
04150044162000138   CTYCONVCITY OF CONVERSE Proposition 5                          UNDER VOTES                                                                                  01Y
04150044187000000   CTYCONVCITY OF CONVERSE Proposition 5                          UNDER VOTES                                                                                  01Y
04150044191000000   CTYCONVCITY OF CONVERSE Proposition 5                          UNDER VOTES                                                                                  01Y
04150044196000000   CTYCONVCITY OF CONVERSE Proposition 5                          UNDER VOTES                                                                                  01Y
04150044197000000   CTYCONVCITY OF CONVERSE Proposition 5                          UNDER VOTES                                                                                  01Y
04150044201000016   CTYCONVCITY OF CONVERSE Proposition 5                          UNDER VOTES                                                                                  01Y
04200014059000528NONCTYCONVCITY OF CONVERSE Proposition 6                          FOR                                                                                          01Y
04200014067000313NONCTYCONVCITY OF CONVERSE Proposition 6                          FOR                                                                                          01Y
04200014114000011NONCTYCONVCITY OF CONVERSE Proposition 6                          FOR                                                                                          01Y
04200014130000108NONCTYCONVCITY OF CONVERSE Proposition 6                          FOR                                                                                          01Y
04200014132001254NONCTYCONVCITY OF CONVERSE Proposition 6                          FOR                                                                                          01Y
04200014162000522NONCTYCONVCITY OF CONVERSE Proposition 6                          FOR                                                                                          01Y
04200014187000000NONCTYCONVCITY OF CONVERSE Proposition 6                          FOR                                                                                          01Y
04200014191000001NONCTYCONVCITY OF CONVERSE Proposition 6                          FOR                                                                                          01Y
04200014196000000NONCTYCONVCITY OF CONVERSE Proposition 6                          FOR                                                                                          01Y
04200014197000002NONCTYCONVCITY OF CONVERSE Proposition 6                          FOR                                                                                          01Y
04200014201000009NONCTYCONVCITY OF CONVERSE Proposition 6                          FOR                                                                                          01Y
04200024059000180NONCTYCONVCITY OF CONVERSE Proposition 6                          AGAINST                                                                                      01Y
04200024067000148NONCTYCONVCITY OF CONVERSE Proposition 6                          AGAINST                                                                                      01Y
04200024114000001NONCTYCONVCITY OF CONVERSE Proposition 6                          AGAINST                                                                                      01Y
04200024130000036NONCTYCONVCITY OF CONVERSE Proposition 6                          AGAINST                                                                                      01Y
04200024132000447NONCTYCONVCITY OF CONVERSE Proposition 6                          AGAINST                                                                                      01Y
04200024162000166NONCTYCONVCITY OF CONVERSE Proposition 6                          AGAINST                                                                                      01Y
04200024187000000NONCTYCONVCITY OF CONVERSE Proposition 6                          AGAINST                                                                                      01Y
04200024191000001NONCTYCONVCITY OF CONVERSE Proposition 6                          AGAINST                                                                                      01Y
04200024196000000NONCTYCONVCITY OF CONVERSE Proposition 6                          AGAINST                                                                                      01Y
04200024197000000NONCTYCONVCITY OF CONVERSE Proposition 6                          AGAINST                                                                                      01Y
04200024201000003NONCTYCONVCITY OF CONVERSE Proposition 6                          AGAINST                                                                                      01Y
04200034059000000   CTYCONVCITY OF CONVERSE Proposition 6                          OVER VOTES                                                                                   01Y
04200034067000000   CTYCONVCITY OF CONVERSE Proposition 6                          OVER VOTES                                                                                   01Y
04200034114000000   CTYCONVCITY OF CONVERSE Proposition 6                          OVER VOTES                                                                                   01Y
04200034130000000   CTYCONVCITY OF CONVERSE Proposition 6                          OVER VOTES                                                                                   01Y
04200034132000000   CTYCONVCITY OF CONVERSE Proposition 6                          OVER VOTES                                                                                   01Y
04200034162000000   CTYCONVCITY OF CONVERSE Proposition 6                          OVER VOTES                                                                                   01Y
04200034187000000   CTYCONVCITY OF CONVERSE Proposition 6                          OVER VOTES                                                                                   01Y
04200034191000000   CTYCONVCITY OF CONVERSE Proposition 6                          OVER VOTES                                                                                   01Y
04200034196000000   CTYCONVCITY OF CONVERSE Proposition 6                          OVER VOTES                                                                                   01Y
04200034197000000   CTYCONVCITY OF CONVERSE Proposition 6                          OVER VOTES                                                                                   01Y
04200034201000000   CTYCONVCITY OF CONVERSE Proposition 6                          OVER VOTES                                                                                   01Y
04200044059000129   CTYCONVCITY OF CONVERSE Proposition 6                          UNDER VOTES                                                                                  01Y
04200044067000092   CTYCONVCITY OF CONVERSE Proposition 6                          UNDER VOTES                                                                                  01Y
04200044114000004   CTYCONVCITY OF CONVERSE Proposition 6                          UNDER VOTES                                                                                  01Y
04200044130000025   CTYCONVCITY OF CONVERSE Proposition 6                          UNDER VOTES                                                                                  01Y
04200044132000298   CTYCONVCITY OF CONVERSE Proposition 6                          UNDER VOTES                                                                                  01Y
04200044162000140   CTYCONVCITY OF CONVERSE Proposition 6                          UNDER VOTES                                                                                  01Y
04200044187000000   CTYCONVCITY OF CONVERSE Proposition 6                          UNDER VOTES                                                                                  01Y
04200044191000000   CTYCONVCITY OF CONVERSE Proposition 6                          UNDER VOTES                                                                                  01Y
04200044196000000   CTYCONVCITY OF CONVERSE Proposition 6                          UNDER VOTES                                                                                  01Y
04200044197000000   CTYCONVCITY OF CONVERSE Proposition 6                          UNDER VOTES                                                                                  01Y
04200044201000014   CTYCONVCITY OF CONVERSE Proposition 6                          UNDER VOTES                                                                                  01Y
04250014059000646NONCTYCONVCITY OF CONVERSE Proposition 7                          FOR                                                                                          01Y
04250014067000413NONCTYCONVCITY OF CONVERSE Proposition 7                          FOR                                                                                          01Y
04250014114000012NONCTYCONVCITY OF CONVERSE Proposition 7                          FOR                                                                                          01Y
04250014130000136NONCTYCONVCITY OF CONVERSE Proposition 7                          FOR                                                                                          01Y
04250014132001584NONCTYCONVCITY OF CONVERSE Proposition 7                          FOR                                                                                          01Y
04250014162000641NONCTYCONVCITY OF CONVERSE Proposition 7                          FOR                                                                                          01Y
04250014187000000NONCTYCONVCITY OF CONVERSE Proposition 7                          FOR                                                                                          01Y
04250014191000002NONCTYCONVCITY OF CONVERSE Proposition 7                          FOR                                                                                          01Y
04250014196000000NONCTYCONVCITY OF CONVERSE Proposition 7                          FOR                                                                                          01Y
04250014197000002NONCTYCONVCITY OF CONVERSE Proposition 7                          FOR                                                                                          01Y
04250014201000011NONCTYCONVCITY OF CONVERSE Proposition 7                          FOR                                                                                          01Y
04250024059000079NONCTYCONVCITY OF CONVERSE Proposition 7                          AGAINST                                                                                      01Y
04250024067000059NONCTYCONVCITY OF CONVERSE Proposition 7                          AGAINST                                                                                      01Y
04250024114000002NONCTYCONVCITY OF CONVERSE Proposition 7                          AGAINST                                                                                      01Y
04250024130000010NONCTYCONVCITY OF CONVERSE Proposition 7                          AGAINST                                                                                      01Y
04250024132000149NONCTYCONVCITY OF CONVERSE Proposition 7                          AGAINST                                                                                      01Y
04250024162000063NONCTYCONVCITY OF CONVERSE Proposition 7                          AGAINST                                                                                      01Y
04250024187000000NONCTYCONVCITY OF CONVERSE Proposition 7                          AGAINST                                                                                      01Y
04250024191000000NONCTYCONVCITY OF CONVERSE Proposition 7                          AGAINST                                                                                      01Y
04250024196000000NONCTYCONVCITY OF CONVERSE Proposition 7                          AGAINST                                                                                      01Y
04250024197000000NONCTYCONVCITY OF CONVERSE Proposition 7                          AGAINST                                                                                      01Y
04250024201000000NONCTYCONVCITY OF CONVERSE Proposition 7                          AGAINST                                                                                      01Y
04250034059000000   CTYCONVCITY OF CONVERSE Proposition 7                          OVER VOTES                                                                                   01Y
04250034067000000   CTYCONVCITY OF CONVERSE Proposition 7                          OVER VOTES                                                                                   01Y
04250034114000000   CTYCONVCITY OF CONVERSE Proposition 7                          OVER VOTES                                                                                   01Y
04250034130000000   CTYCONVCITY OF CONVERSE Proposition 7                          OVER VOTES                                                                                   01Y
04250034132000000   CTYCONVCITY OF CONVERSE Proposition 7                          OVER VOTES                                                                                   01Y
04250034162000000   CTYCONVCITY OF CONVERSE Proposition 7                          OVER VOTES                                                                                   01Y
04250034187000000   CTYCONVCITY OF CONVERSE Proposition 7                          OVER VOTES                                                                                   01Y
04250034191000000   CTYCONVCITY OF CONVERSE Proposition 7                          OVER VOTES                                                                                   01Y
04250034196000000   CTYCONVCITY OF CONVERSE Proposition 7                          OVER VOTES                                                                                   01Y
04250034197000000   CTYCONVCITY OF CONVERSE Proposition 7                          OVER VOTES                                                                                   01Y
04250034201000000   CTYCONVCITY OF CONVERSE Proposition 7                          OVER VOTES                                                                                   01Y
04250044059000112   CTYCONVCITY OF CONVERSE Proposition 7                          UNDER VOTES                                                                                  01Y
04250044067000081   CTYCONVCITY OF CONVERSE Proposition 7                          UNDER VOTES                                                                                  01Y
04250044114000002   CTYCONVCITY OF CONVERSE Proposition 7                          UNDER VOTES                                                                                  01Y
04250044130000023   CTYCONVCITY OF CONVERSE Proposition 7                          UNDER VOTES                                                                                  01Y
04250044132000266   CTYCONVCITY OF CONVERSE Proposition 7                          UNDER VOTES                                                                                  01Y
04250044162000124   CTYCONVCITY OF CONVERSE Proposition 7                          UNDER VOTES                                                                                  01Y
04250044187000000   CTYCONVCITY OF CONVERSE Proposition 7                          UNDER VOTES                                                                                  01Y
04250044191000000   CTYCONVCITY OF CONVERSE Proposition 7                          UNDER VOTES                                                                                  01Y
04250044196000000   CTYCONVCITY OF CONVERSE Proposition 7                          UNDER VOTES                                                                                  01Y
04250044197000000   CTYCONVCITY OF CONVERSE Proposition 7                          UNDER VOTES                                                                                  01Y
04250044201000015   CTYCONVCITY OF CONVERSE Proposition 7                          UNDER VOTES                                                                                  01Y
04300014059000480NONCTYCONVCITY OF CONVERSE Proposition 8                          FOR                                                                                          01Y
04300014067000303NONCTYCONVCITY OF CONVERSE Proposition 8                          FOR                                                                                          01Y
04300014114000011NONCTYCONVCITY OF CONVERSE Proposition 8                          FOR                                                                                          01Y
04300014130000100NONCTYCONVCITY OF CONVERSE Proposition 8                          FOR                                                                                          01Y
04300014132001204NONCTYCONVCITY OF CONVERSE Proposition 8                          FOR                                                                                          01Y
04300014162000468NONCTYCONVCITY OF CONVERSE Proposition 8                          FOR                                                                                          01Y
04300014187000000NONCTYCONVCITY OF CONVERSE Proposition 8                          FOR                                                                                          01Y
04300014191000001NONCTYCONVCITY OF CONVERSE Proposition 8                          FOR                                                                                          01Y
04300014196000000NONCTYCONVCITY OF CONVERSE Proposition 8                          FOR                                                                                          01Y
04300014197000000NONCTYCONVCITY OF CONVERSE Proposition 8                          FOR                                                                                          01Y
04300014201000009NONCTYCONVCITY OF CONVERSE Proposition 8                          FOR                                                                                          01Y
04300024059000217NONCTYCONVCITY OF CONVERSE Proposition 8                          AGAINST                                                                                      01Y
04300024067000153NONCTYCONVCITY OF CONVERSE Proposition 8                          AGAINST                                                                                      01Y
04300024114000002NONCTYCONVCITY OF CONVERSE Proposition 8                          AGAINST                                                                                      01Y
04300024130000040NONCTYCONVCITY OF CONVERSE Proposition 8                          AGAINST                                                                                      01Y
04300024132000494NONCTYCONVCITY OF CONVERSE Proposition 8                          AGAINST                                                                                      01Y
04300024162000215NONCTYCONVCITY OF CONVERSE Proposition 8                          AGAINST                                                                                      01Y
04300024187000000NONCTYCONVCITY OF CONVERSE Proposition 8                          AGAINST                                                                                      01Y
04300024191000001NONCTYCONVCITY OF CONVERSE Proposition 8                          AGAINST                                                                                      01Y
04300024196000000NONCTYCONVCITY OF CONVERSE Proposition 8                          AGAINST                                                                                      01Y
04300024197000001NONCTYCONVCITY OF CONVERSE Proposition 8                          AGAINST                                                                                      01Y
04300024201000002NONCTYCONVCITY OF CONVERSE Proposition 8                          AGAINST                                                                                      01Y
04300034059000000   CTYCONVCITY OF CONVERSE Proposition 8                          OVER VOTES                                                                                   01Y
04300034067000000   CTYCONVCITY OF CONVERSE Proposition 8                          OVER VOTES                                                                                   01Y
04300034114000000   CTYCONVCITY OF CONVERSE Proposition 8                          OVER VOTES                                                                                   01Y
04300034130000000   CTYCONVCITY OF CONVERSE Proposition 8                          OVER VOTES                                                                                   01Y
04300034132000000   CTYCONVCITY OF CONVERSE Proposition 8                          OVER VOTES                                                                                   01Y
04300034162000000   CTYCONVCITY OF CONVERSE Proposition 8                          OVER VOTES                                                                                   01Y
04300034187000000   CTYCONVCITY OF CONVERSE Proposition 8                          OVER VOTES                                                                                   01Y
04300034191000000   CTYCONVCITY OF CONVERSE Proposition 8                          OVER VOTES                                                                                   01Y
04300034196000000   CTYCONVCITY OF CONVERSE Proposition 8                          OVER VOTES                                                                                   01Y
04300034197000000   CTYCONVCITY OF CONVERSE Proposition 8                          OVER VOTES                                                                                   01Y
04300034201000000   CTYCONVCITY OF CONVERSE Proposition 8                          OVER VOTES                                                                                   01Y
04300044059000140   CTYCONVCITY OF CONVERSE Proposition 8                          UNDER VOTES                                                                                  01Y
04300044067000097   CTYCONVCITY OF CONVERSE Proposition 8                          UNDER VOTES                                                                                  01Y
04300044114000003   CTYCONVCITY OF CONVERSE Proposition 8                          UNDER VOTES                                                                                  01Y
04300044130000029   CTYCONVCITY OF CONVERSE Proposition 8                          UNDER VOTES                                                                                  01Y
04300044132000301   CTYCONVCITY OF CONVERSE Proposition 8                          UNDER VOTES                                                                                  01Y
04300044162000145   CTYCONVCITY OF CONVERSE Proposition 8                          UNDER VOTES                                                                                  01Y
04300044187000000   CTYCONVCITY OF CONVERSE Proposition 8                          UNDER VOTES                                                                                  01Y
04300044191000000   CTYCONVCITY OF CONVERSE Proposition 8                          UNDER VOTES                                                                                  01Y
04300044196000000   CTYCONVCITY OF CONVERSE Proposition 8                          UNDER VOTES                                                                                  01Y
04300044197000001   CTYCONVCITY OF CONVERSE Proposition 8                          UNDER VOTES                                                                                  01Y
04300044201000015   CTYCONVCITY OF CONVERSE Proposition 8                          UNDER VOTES                                                                                  01Y
04350014059000643NONCTYCONVCITY OF CONVERSE Proposition 9                          FOR                                                                                          01Y
04350014067000388NONCTYCONVCITY OF CONVERSE Proposition 9                          FOR                                                                                          01Y
04350014114000013NONCTYCONVCITY OF CONVERSE Proposition 9                          FOR                                                                                          01Y
04350014130000134NONCTYCONVCITY OF CONVERSE Proposition 9                          FOR                                                                                          01Y
04350014132001544NONCTYCONVCITY OF CONVERSE Proposition 9                          FOR                                                                                          01Y
04350014162000612NONCTYCONVCITY OF CONVERSE Proposition 9                          FOR                                                                                          01Y
04350014187000000NONCTYCONVCITY OF CONVERSE Proposition 9                          FOR                                                                                          01Y
04350014191000002NONCTYCONVCITY OF CONVERSE Proposition 9                          FOR                                                                                          01Y
04350014196000000NONCTYCONVCITY OF CONVERSE Proposition 9                          FOR                                                                                          01Y
04350014197000002NONCTYCONVCITY OF CONVERSE Proposition 9                          FOR                                                                                          01Y
04350014201000013NONCTYCONVCITY OF CONVERSE Proposition 9                          FOR                                                                                          01Y
04350024059000072NONCTYCONVCITY OF CONVERSE Proposition 9                          AGAINST                                                                                      01Y
04350024067000075NONCTYCONVCITY OF CONVERSE Proposition 9                          AGAINST                                                                                      01Y
04350024114000000NONCTYCONVCITY OF CONVERSE Proposition 9                          AGAINST                                                                                      01Y
04350024130000013NONCTYCONVCITY OF CONVERSE Proposition 9                          AGAINST                                                                                      01Y
04350024132000169NONCTYCONVCITY OF CONVERSE Proposition 9                          AGAINST                                                                                      01Y
04350024162000076NONCTYCONVCITY OF CONVERSE Proposition 9                          AGAINST                                                                                      01Y
04350024187000000NONCTYCONVCITY OF CONVERSE Proposition 9                          AGAINST                                                                                      01Y
04350024191000000NONCTYCONVCITY OF CONVERSE Proposition 9                          AGAINST                                                                                      01Y
04350024196000000NONCTYCONVCITY OF CONVERSE Proposition 9                          AGAINST                                                                                      01Y
04350024197000000NONCTYCONVCITY OF CONVERSE Proposition 9                          AGAINST                                                                                      01Y
04350024201000000NONCTYCONVCITY OF CONVERSE Proposition 9                          AGAINST                                                                                      01Y
04350034059000000   CTYCONVCITY OF CONVERSE Proposition 9                          OVER VOTES                                                                                   01Y
04350034067000000   CTYCONVCITY OF CONVERSE Proposition 9                          OVER VOTES                                                                                   01Y
04350034114000000   CTYCONVCITY OF CONVERSE Proposition 9                          OVER VOTES                                                                                   01Y
04350034130000000   CTYCONVCITY OF CONVERSE Proposition 9                          OVER VOTES                                                                                   01Y
04350034132000000   CTYCONVCITY OF CONVERSE Proposition 9                          OVER VOTES                                                                                   01Y
04350034162000000   CTYCONVCITY OF CONVERSE Proposition 9                          OVER VOTES                                                                                   01Y
04350034187000000   CTYCONVCITY OF CONVERSE Proposition 9                          OVER VOTES                                                                                   01Y
04350034191000000   CTYCONVCITY OF CONVERSE Proposition 9                          OVER VOTES                                                                                   01Y
04350034196000000   CTYCONVCITY OF CONVERSE Proposition 9                          OVER VOTES                                                                                   01Y
04350034197000000   CTYCONVCITY OF CONVERSE Proposition 9                          OVER VOTES                                                                                   01Y
04350034201000000   CTYCONVCITY OF CONVERSE Proposition 9                          OVER VOTES                                                                                   01Y
04350044059000122   CTYCONVCITY OF CONVERSE Proposition 9                          UNDER VOTES                                                                                  01Y
04350044067000090   CTYCONVCITY OF CONVERSE Proposition 9                          UNDER VOTES                                                                                  01Y
04350044114000003   CTYCONVCITY OF CONVERSE Proposition 9                          UNDER VOTES                                                                                  01Y
04350044130000022   CTYCONVCITY OF CONVERSE Proposition 9                          UNDER VOTES                                                                                  01Y
04350044132000286   CTYCONVCITY OF CONVERSE Proposition 9                          UNDER VOTES                                                                                  01Y
04350044162000140   CTYCONVCITY OF CONVERSE Proposition 9                          UNDER VOTES                                                                                  01Y
04350044187000000   CTYCONVCITY OF CONVERSE Proposition 9                          UNDER VOTES                                                                                  01Y
04350044191000000   CTYCONVCITY OF CONVERSE Proposition 9                          UNDER VOTES                                                                                  01Y
04350044196000000   CTYCONVCITY OF CONVERSE Proposition 9                          UNDER VOTES                                                                                  01Y
04350044197000000   CTYCONVCITY OF CONVERSE Proposition 9                          UNDER VOTES                                                                                  01Y
04350044201000013   CTYCONVCITY OF CONVERSE Proposition 9                          UNDER VOTES                                                                                  01Y
04400014059000624NONCTYCONVCITY OF CONVERSE Proposition 10                         FOR                                                                                          01Y
04400014067000393NONCTYCONVCITY OF CONVERSE Proposition 10                         FOR                                                                                          01Y
04400014114000013NONCTYCONVCITY OF CONVERSE Proposition 10                         FOR                                                                                          01Y
04400014130000128NONCTYCONVCITY OF CONVERSE Proposition 10                         FOR                                                                                          01Y
04400014132001486NONCTYCONVCITY OF CONVERSE Proposition 10                         FOR                                                                                          01Y
04400014162000606NONCTYCONVCITY OF CONVERSE Proposition 10                         FOR                                                                                          01Y
04400014187000000NONCTYCONVCITY OF CONVERSE Proposition 10                         FOR                                                                                          01Y
04400014191000002NONCTYCONVCITY OF CONVERSE Proposition 10                         FOR                                                                                          01Y
04400014196000000NONCTYCONVCITY OF CONVERSE Proposition 10                         FOR                                                                                          01Y
04400014197000002NONCTYCONVCITY OF CONVERSE Proposition 10                         FOR                                                                                          01Y
04400014201000011NONCTYCONVCITY OF CONVERSE Proposition 10                         FOR                                                                                          01Y
04400024059000077NONCTYCONVCITY OF CONVERSE Proposition 10                         AGAINST                                                                                      01Y
04400024067000068NONCTYCONVCITY OF CONVERSE Proposition 10                         AGAINST                                                                                      01Y
04400024114000000NONCTYCONVCITY OF CONVERSE Proposition 10                         AGAINST                                                                                      01Y
04400024130000014NONCTYCONVCITY OF CONVERSE Proposition 10                         AGAINST                                                                                      01Y
04400024132000204NONCTYCONVCITY OF CONVERSE Proposition 10                         AGAINST                                                                                      01Y
04400024162000081NONCTYCONVCITY OF CONVERSE Proposition 10                         AGAINST                                                                                      01Y
04400024187000000NONCTYCONVCITY OF CONVERSE Proposition 10                         AGAINST                                                                                      01Y
04400024191000000NONCTYCONVCITY OF CONVERSE Proposition 10                         AGAINST                                                                                      01Y
04400024196000000NONCTYCONVCITY OF CONVERSE Proposition 10                         AGAINST                                                                                      01Y
04400024197000000NONCTYCONVCITY OF CONVERSE Proposition 10                         AGAINST                                                                                      01Y
04400024201000000NONCTYCONVCITY OF CONVERSE Proposition 10                         AGAINST                                                                                      01Y
04400034059000000   CTYCONVCITY OF CONVERSE Proposition 10                         OVER VOTES                                                                                   01Y
04400034067000000   CTYCONVCITY OF CONVERSE Proposition 10                         OVER VOTES                                                                                   01Y
