01010015053000058          REGISTERED VOTERS - TOTAL                               REGISTERED VOTERS - TOTAL             03022-5053                                             00 
01010015054000377          REGISTERED VOTERS - TOTAL                               REGISTERED VOTERS - TOTAL             03023-5054                                             00 
01010015715000000          REGISTERED VOTERS - TOTAL                               REGISTERED VOTERS - TOTAL             2074-5715                                              00 
01010015836000000          REGISTERED VOTERS - TOTAL                               REGISTERED VOTERS - TOTAL             2400-5836                                              00 
01010015961000001          REGISTERED VOTERS - TOTAL                               REGISTERED VOTERS - TOTAL             2800-5961                                              00 
01010015964003036          REGISTERED VOTERS - TOTAL                               REGISTERED VOTERS - TOTAL             2801-5964                                              00 
01010015966003569          REGISTERED VOTERS - TOTAL                               REGISTERED VOTERS - TOTAL             2802-5966                                              00 
01010015967001318          REGISTERED VOTERS - TOTAL                               REGISTERED VOTERS - TOTAL             2803-5967                                              00 
01010015969002358          REGISTERED VOTERS - TOTAL                               REGISTERED VOTERS - TOTAL             2804-5969                                              00 
01010015975003843          REGISTERED VOTERS - TOTAL                               REGISTERED VOTERS - TOTAL             2805-5975                                              00 
01010015976002478          REGISTERED VOTERS - TOTAL                               REGISTERED VOTERS - TOTAL             2806-5976                                              00 
01010015977002239          REGISTERED VOTERS - TOTAL                               REGISTERED VOTERS - TOTAL             2807-5977                                              00 
01010015983002443          REGISTERED VOTERS - TOTAL                               REGISTERED VOTERS - TOTAL             2808-5983                                              00 
01010015985002878          REGISTERED VOTERS - TOTAL                               REGISTERED VOTERS - TOTAL             2809-5985                                              00 
01010015991000027          REGISTERED VOTERS - TOTAL                               REGISTERED VOTERS - TOTAL             2810-5991                                              00 
01010016014000000          REGISTERED VOTERS - TOTAL                               REGISTERED VOTERS - TOTAL             2910-6014                                              00 
01010016016000000          REGISTERED VOTERS - TOTAL                               REGISTERED VOTERS - TOTAL             2911-6016                                              00 
01010017071000000          REGISTERED VOTERS - TOTAL                               REGISTERED VOTERS - TOTAL             4636-7071                                              00 
01020015053000001          BALLOTS CAST - TOTAL                                    BALLOTS CAST - TOTAL                  03022-5053                                             00 
01020015054000019          BALLOTS CAST - TOTAL                                    BALLOTS CAST - TOTAL                  03023-5054                                             00 
01020015715000000          BALLOTS CAST - TOTAL                                    BALLOTS CAST - TOTAL                  2074-5715                                              00 
01020015836000000          BALLOTS CAST - TOTAL                                    BALLOTS CAST - TOTAL                  2400-5836                                              00 
01020015961000001          BALLOTS CAST - TOTAL                                    BALLOTS CAST - TOTAL                  2800-5961                                              00 
01020015964000342          BALLOTS CAST - TOTAL                                    BALLOTS CAST - TOTAL                  2801-5964                                              00 
01020015966000434          BALLOTS CAST - TOTAL                                    BALLOTS CAST - TOTAL                  2802-5966                                              00 
01020015967000233          BALLOTS CAST - TOTAL                                    BALLOTS CAST - TOTAL                  2803-5967                                              00 
01020015969000296          BALLOTS CAST - TOTAL                                    BALLOTS CAST - TOTAL                  2804-5969                                              00 
01020015975000515          BALLOTS CAST - TOTAL                                    BALLOTS CAST - TOTAL                  2805-5975                                              00 
01020015976000246          BALLOTS CAST - TOTAL                                    BALLOTS CAST - TOTAL                  2806-5976                                              00 
01020015977000202          BALLOTS CAST - TOTAL                                    BALLOTS CAST - TOTAL                  2807-5977                                              00 
01020015983000271          BALLOTS CAST - TOTAL                                    BALLOTS CAST - TOTAL                  2808-5983                                              00 
01020015985000078          BALLOTS CAST - TOTAL                                    BALLOTS CAST - TOTAL                  2809-5985                                              00 
01020015991000000          BALLOTS CAST - TOTAL                                    BALLOTS CAST - TOTAL                  2810-5991                                              00 
01020016014000000          BALLOTS CAST - TOTAL                                    BALLOTS CAST - TOTAL                  2910-6014                                              00 
01020016016000000          BALLOTS CAST - TOTAL                                    BALLOTS CAST - TOTAL                  2911-6016                                              00 
01020017071000000          BALLOTS CAST - TOTAL                                    BALLOTS CAST - TOTAL                  4636-7071                                              00 
01030015053000001NONCOWIDE Coppell-Council Member Pl 3, Unex                       Greg Garcia                           03022-5053                                             01 
01030015054000002NONCOWIDE Coppell-Council Member Pl 3, Unex                       Greg Garcia                           03023-5054                                             01 
01030015715000000NONCOWIDE Coppell-Council Member Pl 3, Unex                       Greg Garcia                           2074-5715                                              01 
01030015836000000NONCOWIDE Coppell-Council Member Pl 3, Unex                       Greg Garcia                           2400-5836                                              01 
01030015961000001NONCOWIDE Coppell-Council Member Pl 3, Unex                       Greg Garcia                           2800-5961                                              01 
01030015964000129NONCOWIDE Coppell-Council Member Pl 3, Unex                       Greg Garcia                           2801-5964                                              01 
01030015966000176NONCOWIDE Coppell-Council Member Pl 3, Unex                       Greg Garcia                           2802-5966                                              01 
01030015967000105NONCOWIDE Coppell-Council Member Pl 3, Unex                       Greg Garcia                           2803-5967                                              01 
01030015969000100NONCOWIDE Coppell-Council Member Pl 3, Unex                       Greg Garcia                           2804-5969                                              01 
01030015975000175NONCOWIDE Coppell-Council Member Pl 3, Unex                       Greg Garcia                           2805-5975                                              01 
01030015976000101NONCOWIDE Coppell-Council Member Pl 3, Unex                       Greg Garcia                           2806-5976                                              01 
01030015977000069NONCOWIDE Coppell-Council Member Pl 3, Unex                       Greg Garcia                           2807-5977                                              01 
01030015983000092NONCOWIDE Coppell-Council Member Pl 3, Unex                       Greg Garcia                           2808-5983                                              01 
01030015985000024NONCOWIDE Coppell-Council Member Pl 3, Unex                       Greg Garcia                           2809-5985                                              01 
01030015991000000NONCOWIDE Coppell-Council Member Pl 3, Unex                       Greg Garcia                           2810-5991                                              01 
01030016014000000NONCOWIDE Coppell-Council Member Pl 3, Unex                       Greg Garcia                           2910-6014                                              01 
01030016016000000NONCOWIDE Coppell-Council Member Pl 3, Unex                       Greg Garcia                           2911-6016                                              01 
01030017071000000NONCOWIDE Coppell-Council Member Pl 3, Unex                       Greg Garcia                           4636-7071                                              01 
01030025053000000NONCOWIDE Coppell-Council Member Pl 3, Unex                       Wes Mays                              03022-5053                                             01 
01030025054000005NONCOWIDE Coppell-Council Member Pl 3, Unex                       Wes Mays                              03023-5054                                             01 
01030025715000000NONCOWIDE Coppell-Council Member Pl 3, Unex                       Wes Mays                              2074-5715                                              01 
01030025836000000NONCOWIDE Coppell-Council Member Pl 3, Unex                       Wes Mays                              2400-5836                                              01 
01030025961000000NONCOWIDE Coppell-Council Member Pl 3, Unex                       Wes Mays                              2800-5961                                              01 
01030025964000146NONCOWIDE Coppell-Council Member Pl 3, Unex                       Wes Mays                              2801-5964                                              01 
01030025966000149NONCOWIDE Coppell-Council Member Pl 3, Unex                       Wes Mays                              2802-5966                                              01 
01030025967000104NONCOWIDE Coppell-Council Member Pl 3, Unex                       Wes Mays                              2803-5967                                              01 
01030025969000157NONCOWIDE Coppell-Council Member Pl 3, Unex                       Wes Mays                              2804-5969                                              01 
01030025975000175NONCOWIDE Coppell-Council Member Pl 3, Unex                       Wes Mays                              2805-5975                                              01 
01030025976000101NONCOWIDE Coppell-Council Member Pl 3, Unex                       Wes Mays                              2806-5976                                              01 
01030025977000086NONCOWIDE Coppell-Council Member Pl 3, Unex                       Wes Mays                              2807-5977                                              01 
01030025983000106NONCOWIDE Coppell-Council Member Pl 3, Unex                       Wes Mays                              2808-5983                                              01 
01030025985000033NONCOWIDE Coppell-Council Member Pl 3, Unex                       Wes Mays                              2809-5985                                              01 
01030025991000000NONCOWIDE Coppell-Council Member Pl 3, Unex                       Wes Mays                              2810-5991                                              01 
01030026014000000NONCOWIDE Coppell-Council Member Pl 3, Unex                       Wes Mays                              2910-6014                                              01 
01030026016000000NONCOWIDE Coppell-Council Member Pl 3, Unex                       Wes Mays                              2911-6016                                              01 
01030027071000000NONCOWIDE Coppell-Council Member Pl 3, Unex                       Wes Mays                              4636-7071                                              01 
01030035053000000NONCOWIDE Coppell-Council Member Pl 3, Unex                       Margaret Lucyk                        03022-5053                                             01 
01030035054000001NONCOWIDE Coppell-Council Member Pl 3, Unex                       Margaret Lucyk                        03023-5054                                             01 
01030035715000000NONCOWIDE Coppell-Council Member Pl 3, Unex                       Margaret Lucyk                        2074-5715                                              01 
01030035836000000NONCOWIDE Coppell-Council Member Pl 3, Unex                       Margaret Lucyk                        2400-5836                                              01 
01030035961000000NONCOWIDE Coppell-Council Member Pl 3, Unex                       Margaret Lucyk                        2800-5961                                              01 
01030035964000028NONCOWIDE Coppell-Council Member Pl 3, Unex                       Margaret Lucyk                        2801-5964                                              01 
01030035966000021NONCOWIDE Coppell-Council Member Pl 3, Unex                       Margaret Lucyk                        2802-5966                                              01 
01030035967000011NONCOWIDE Coppell-Council Member Pl 3, Unex                       Margaret Lucyk                        2803-5967                                              01 
01030035969000014NONCOWIDE Coppell-Council Member Pl 3, Unex                       Margaret Lucyk                        2804-5969                                              01 
01030035975000035NONCOWIDE Coppell-Council Member Pl 3, Unex                       Margaret Lucyk                        2805-5975                                              01 
01030035976000023NONCOWIDE Coppell-Council Member Pl 3, Unex                       Margaret Lucyk                        2806-5976                                              01 
01030035977000012NONCOWIDE Coppell-Council Member Pl 3, Unex                       Margaret Lucyk                        2807-5977                                              01 
01030035983000018NONCOWIDE Coppell-Council Member Pl 3, Unex                       Margaret Lucyk                        2808-5983                                              01 
01030035985000011NONCOWIDE Coppell-Council Member Pl 3, Unex                       Margaret Lucyk                        2809-5985                                              01 
01030035991000000NONCOWIDE Coppell-Council Member Pl 3, Unex                       Margaret Lucyk                        2810-5991                                              01 
01030036014000000NONCOWIDE Coppell-Council Member Pl 3, Unex                       Margaret Lucyk                        2910-6014                                              01 
01030036016000000NONCOWIDE Coppell-Council Member Pl 3, Unex                       Margaret Lucyk                        2911-6016                                              01 
01030037071000000NONCOWIDE Coppell-Council Member Pl 3, Unex                       Margaret Lucyk                        4636-7071                                              01 
01030045053000000NONCOWIDE Coppell-Council Member Pl 3, Unex                       Mahesh Guduru                         03022-5053                                             01 
01030045054000011NONCOWIDE Coppell-Council Member Pl 3, Unex                       Mahesh Guduru                         03023-5054                                             01 
01030045715000000NONCOWIDE Coppell-Council Member Pl 3, Unex                       Mahesh Guduru                         2074-5715                                              01 
01030045836000000NONCOWIDE Coppell-Council Member Pl 3, Unex                       Mahesh Guduru                         2400-5836                                              01 
01030045961000000NONCOWIDE Coppell-Council Member Pl 3, Unex                       Mahesh Guduru                         2800-5961                                              01 
01030045964000037NONCOWIDE Coppell-Council Member Pl 3, Unex                       Mahesh Guduru                         2801-5964                                              01 
01030045966000087NONCOWIDE Coppell-Council Member Pl 3, Unex                       Mahesh Guduru                         2802-5966                                              01 
01030045967000013NONCOWIDE Coppell-Council Member Pl 3, Unex                       Mahesh Guduru                         2803-5967                                              01 
01030045969000024NONCOWIDE Coppell-Council Member Pl 3, Unex                       Mahesh Guduru                         2804-5969                                              01 
01030045975000125NONCOWIDE Coppell-Council Member Pl 3, Unex                       Mahesh Guduru                         2805-5975                                              01 
01030045976000020NONCOWIDE Coppell-Council Member Pl 3, Unex                       Mahesh Guduru                         2806-5976                                              01 
01030045977000035NONCOWIDE Coppell-Council Member Pl 3, Unex                       Mahesh Guduru                         2807-5977                                              01 
01030045983000054NONCOWIDE Coppell-Council Member Pl 3, Unex                       Mahesh Guduru                         2808-5983                                              01 
01030045985000010NONCOWIDE Coppell-Council Member Pl 3, Unex                       Mahesh Guduru                         2809-5985                                              01 
01030045991000000NONCOWIDE Coppell-Council Member Pl 3, Unex                       Mahesh Guduru                         2810-5991                                              01 
01030046014000000NONCOWIDE Coppell-Council Member Pl 3, Unex                       Mahesh Guduru                         2910-6014                                              01 
01030046016000000NONCOWIDE Coppell-Council Member Pl 3, Unex                       Mahesh Guduru                         2911-6016                                              01 
01030047071000000NONCOWIDE Coppell-Council Member Pl 3, Unex                       Mahesh Guduru                         4636-7071                                              01 
