03250014068000007NON       EAST CENTRAL ISD Trustee, District 3                    Randall Gearhart                                                                             01 
03250014069000139NON       EAST CENTRAL ISD Trustee, District 3                    Randall Gearhart                                                                             01 
03250014071000023NON       EAST CENTRAL ISD Trustee, District 3                    Randall Gearhart                                                                             01 
03250014072000149NON       EAST CENTRAL ISD Trustee, District 3                    Randall Gearhart                                                                             01 
03250014078000103NON       EAST CENTRAL ISD Trustee, District 3                    Randall Gearhart                                                                             01 
03250014085000018NON       EAST CENTRAL ISD Trustee, District 3                    Randall Gearhart                                                                             01 
03250014087000071NON       EAST CENTRAL ISD Trustee, District 3                    Randall Gearhart                                                                             01 
03250014101000114NON       EAST CENTRAL ISD Trustee, District 3                    Randall Gearhart                                                                             01 
03250014118000003NON       EAST CENTRAL ISD Trustee, District 3                    Randall Gearhart                                                                             01 
03250014127000000NON       EAST CENTRAL ISD Trustee, District 3                    Randall Gearhart                                                                             01 
03250014136000034NON       EAST CENTRAL ISD Trustee, District 3                    Randall Gearhart                                                                             01 
03250014137000012NON       EAST CENTRAL ISD Trustee, District 3                    Randall Gearhart                                                                             01 
03250014159000000NON       EAST CENTRAL ISD Trustee, District 3                    Randall Gearhart                                                                             01 
03250014180000000NON       EAST CENTRAL ISD Trustee, District 3                    Randall Gearhart                                                                             01 
03250014189000024NON       EAST CENTRAL ISD Trustee, District 3                    Randall Gearhart                                                                             01 
03250014190000000NON       EAST CENTRAL ISD Trustee, District 3                    Randall Gearhart                                                                             01 
03250024068000011NON       EAST CENTRAL ISD Trustee, District 3                    John Massengale                                                                              01 
03250024069000177NON       EAST CENTRAL ISD Trustee, District 3                    John Massengale                                                                              01 
03250024071000010NON       EAST CENTRAL ISD Trustee, District 3                    John Massengale                                                                              01 
03250024072000127NON       EAST CENTRAL ISD Trustee, District 3                    John Massengale                                                                              01 
03250024078000075NON       EAST CENTRAL ISD Trustee, District 3                    John Massengale                                                                              01 
03250024085000007NON       EAST CENTRAL ISD Trustee, District 3                    John Massengale                                                                              01 
03250024087000047NON       EAST CENTRAL ISD Trustee, District 3                    John Massengale                                                                              01 
03250024101000112NON       EAST CENTRAL ISD Trustee, District 3                    John Massengale                                                                              01 
03250024118000001NON       EAST CENTRAL ISD Trustee, District 3                    John Massengale                                                                              01 
03250024127000002NON       EAST CENTRAL ISD Trustee, District 3                    John Massengale                                                                              01 
03250024136000021NON       EAST CENTRAL ISD Trustee, District 3                    John Massengale                                                                              01 
03250024137000007NON       EAST CENTRAL ISD Trustee, District 3                    John Massengale                                                                              01 
03250024159000001NON       EAST CENTRAL ISD Trustee, District 3                    John Massengale                                                                              01 
03250024180000000NON       EAST CENTRAL ISD Trustee, District 3                    John Massengale                                                                              01 
03250024189000022NON       EAST CENTRAL ISD Trustee, District 3                    John Massengale                                                                              01 
03250024190000000NON       EAST CENTRAL ISD Trustee, District 3                    John Massengale                                                                              01 
03250034068000000          EAST CENTRAL ISD Trustee, District 3                    OVER VOTES                                                                                   01 
03250034069000000          EAST CENTRAL ISD Trustee, District 3                    OVER VOTES                                                                                   01 
03250034071000000          EAST CENTRAL ISD Trustee, District 3                    OVER VOTES                                                                                   01 
03250034072000000          EAST CENTRAL ISD Trustee, District 3                    OVER VOTES                                                                                   01 
03250034078000000          EAST CENTRAL ISD Trustee, District 3                    OVER VOTES                                                                                   01 
03250034085000000          EAST CENTRAL ISD Trustee, District 3                    OVER VOTES                                                                                   01 
03250034087000000          EAST CENTRAL ISD Trustee, District 3                    OVER VOTES                                                                                   01 
03250034101000000          EAST CENTRAL ISD Trustee, District 3                    OVER VOTES                                                                                   01 
03250034118000000          EAST CENTRAL ISD Trustee, District 3                    OVER VOTES                                                                                   01 
03250034127000000          EAST CENTRAL ISD Trustee, District 3                    OVER VOTES                                                                                   01 
03250034136000000          EAST CENTRAL ISD Trustee, District 3                    OVER VOTES                                                                                   01 
03250034137000000          EAST CENTRAL ISD Trustee, District 3                    OVER VOTES                                                                                   01 
03250034159000000          EAST CENTRAL ISD Trustee, District 3                    OVER VOTES                                                                                   01 
03250034180000000          EAST CENTRAL ISD Trustee, District 3                    OVER VOTES                                                                                   01 
03250034189000000          EAST CENTRAL ISD Trustee, District 3                    OVER VOTES                                                                                   01 
03250034190000000          EAST CENTRAL ISD Trustee, District 3                    OVER VOTES                                                                                   01 
03250044068000010          EAST CENTRAL ISD Trustee, District 3                    UNDER VOTES                                                                                  01 
03250044069000117          EAST CENTRAL ISD Trustee, District 3                    UNDER VOTES                                                                                  01 
03250044071000016          EAST CENTRAL ISD Trustee, District 3                    UNDER VOTES                                                                                  01 
03250044072000126          EAST CENTRAL ISD Trustee, District 3                    UNDER VOTES                                                                                  01 
03250044078000092          EAST CENTRAL ISD Trustee, District 3                    UNDER VOTES                                                                                  01 
03250044085000012          EAST CENTRAL ISD Trustee, District 3                    UNDER VOTES                                                                                  01 
03250044087000052          EAST CENTRAL ISD Trustee, District 3                    UNDER VOTES                                                                                  01 
03250044101000114          EAST CENTRAL ISD Trustee, District 3                    UNDER VOTES                                                                                  01 
03250044118000002          EAST CENTRAL ISD Trustee, District 3                    UNDER VOTES                                                                                  01 
03250044127000004          EAST CENTRAL ISD Trustee, District 3                    UNDER VOTES                                                                                  01 
03250044136000019          EAST CENTRAL ISD Trustee, District 3                    UNDER VOTES                                                                                  01 
03250044137000006          EAST CENTRAL ISD Trustee, District 3                    UNDER VOTES                                                                                  01 
03250044159000005          EAST CENTRAL ISD Trustee, District 3                    UNDER VOTES                                                                                  01 
03250044180000000          EAST CENTRAL ISD Trustee, District 3                    UNDER VOTES                                                                                  01 
03250044189000031          EAST CENTRAL ISD Trustee, District 3                    UNDER VOTES                                                                                  01 
03250044190000000          EAST CENTRAL ISD Trustee, District 3                    UNDER VOTES                                                                                  01 
