01130013017000090NONFAIROAKCity of Fair Oaks Ranch Proposition One                 FOR                                                                                          01Y
01130013034000272NONFAIROAKCity of Fair Oaks Ranch Proposition One                 FOR                                                                                          01Y
01130018888000000NONFAIROAKCity of Fair Oaks Ranch Proposition One                 FOR                                                                                          01Y
01130019999000000NONFAIROAKCity of Fair Oaks Ranch Proposition One                 FOR                                                                                          01Y
01130023017000013NONFAIROAKCity of Fair Oaks Ranch Proposition One                 AGAINST                                                                                      01Y
01130023034000044NONFAIROAKCity of Fair Oaks Ranch Proposition One                 AGAINST                                                                                      01Y
01130028888000000NONFAIROAKCity of Fair Oaks Ranch Proposition One                 AGAINST                                                                                      01Y
01130029999000000NONFAIROAKCity of Fair Oaks Ranch Proposition One                 AGAINST                                                                                      01Y
01130033017000000   FAIROAKCity of Fair Oaks Ranch Proposition One                 OVER VOTES                                                                                   01Y
01130033034000000   FAIROAKCity of Fair Oaks Ranch Proposition One                 OVER VOTES                                                                                   01Y
01130038888000000   FAIROAKCity of Fair Oaks Ranch Proposition One                 OVER VOTES                                                                                   01Y
01130039999000000   FAIROAKCity of Fair Oaks Ranch Proposition One                 OVER VOTES                                                                                   01Y
01130043017000003   FAIROAKCity of Fair Oaks Ranch Proposition One                 UNDER VOTES                                                                                  01Y
01130043034000001   FAIROAKCity of Fair Oaks Ranch Proposition One                 UNDER VOTES                                                                                  01Y
01130048888000000   FAIROAKCity of Fair Oaks Ranch Proposition One                 UNDER VOTES                                                                                  01Y
01130049999000000   FAIROAKCity of Fair Oaks Ranch Proposition One                 UNDER VOTES                                                                                  01Y
