01150013092000325NONHOLLYWOTown of Hollywood Park Mayor                            Bill Bohlke                                                                                  01 
01150023092000170NONHOLLYWOTown of Hollywood Park Mayor                            Tim McCallum                                                                                 01 
01150033092000000   HOLLYWOTown of Hollywood Park Mayor                            OVER VOTES                                                                                   01 
01150043092000001   HOLLYWOTown of Hollywood Park Mayor                            UNDER VOTES                                                                                  01 
01160013092000279NONHOLLYWOTown of Hollywood Park Council, Place No. 2             Sudie Sartor                                                                                 01 
01160023092000212NONHOLLYWOTown of Hollywood Park Council, Place No. 2             Debra Trueman                                                                                01 
01160033092000000   HOLLYWOTown of Hollywood Park Council, Place No. 2             OVER VOTES                                                                                   01 
01160043092000005   HOLLYWOTown of Hollywood Park Council, Place No. 2             UNDER VOTES                                                                                  01 
01170013092000194NONHOLLYWOTown of Hollywood Park Council, Place No. 4             David Swan                                                                                   01 
01170023092000299NONHOLLYWOTown of Hollywood Park Council, Place No. 4             Matt Amerman                                                                                 01 
01170033092000000   HOLLYWOTown of Hollywood Park Council, Place No. 4             OVER VOTES                                                                                   01 
01170043092000003   HOLLYWOTown of Hollywood Park Council, Place No. 4             UNDER VOTES                                                                                  01 
