01150013092000707NONHOLLYWOTown of Hollywood Park Mayor                            Bill Bohlke                                                                                  01 
01150023092000384NONHOLLYWOTown of Hollywood Park Mayor                            Tim McCallum                                                                                 01 
01150033092000000   HOLLYWOTown of Hollywood Park Mayor                            OVER VOTES                                                                                   01 
01150043092000006   HOLLYWOTown of Hollywood Park Mayor                            UNDER VOTES                                                                                  01 
01160013092000579NONHOLLYWOTown of Hollywood Park Council, Place No. 2             Sudie Sartor                                                                                 01 
01160023092000507NONHOLLYWOTown of Hollywood Park Council, Place No. 2             Debra Trueman                                                                                01 
01160033092000000   HOLLYWOTown of Hollywood Park Council, Place No. 2             OVER VOTES                                                                                   01 
01160043092000011   HOLLYWOTown of Hollywood Park Council, Place No. 2             UNDER VOTES                                                                                  01 
01170013092000449NONHOLLYWOTown of Hollywood Park Council, Place No. 4             David Swan                                                                                   01 
01170023092000635NONHOLLYWOTown of Hollywood Park Council, Place No. 4             Matt Amerman                                                                                 01 
01170033092000000   HOLLYWOTown of Hollywood Park Council, Place No. 4             OVER VOTES                                                                                   01 
01170043092000013   HOLLYWOTown of Hollywood Park Council, Place No. 4             UNDER VOTES                                                                                  01 
