01180014064000007NONKIRBY  City of Kirby Council Member                            Charlene A. Wyatt                                                                            03 
01180014080000001NONKIRBY  City of Kirby Council Member                            Charlene A. Wyatt                                                                            03 
01180014145000000NONKIRBY  City of Kirby Council Member                            Charlene A. Wyatt                                                                            03 
01180014146000000NONKIRBY  City of Kirby Council Member                            Charlene A. Wyatt                                                                            03 
01180014182000000NONKIRBY  City of Kirby Council Member                            Charlene A. Wyatt                                                                            03 
01180024064000007NONKIRBY  City of Kirby Council Member                            Jerry Lehman                                                                                 03 
01180024080000000NONKIRBY  City of Kirby Council Member                            Jerry Lehman                                                                                 03 
01180024145000000NONKIRBY  City of Kirby Council Member                            Jerry Lehman                                                                                 03 
01180024146000000NONKIRBY  City of Kirby Council Member                            Jerry Lehman                                                                                 03 
01180024182000000NONKIRBY  City of Kirby Council Member                            Jerry Lehman                                                                                 03 
01180034064000002NONKIRBY  City of Kirby Council Member                            John Houlton                                                                                 03 
01180034080000001NONKIRBY  City of Kirby Council Member                            John Houlton                                                                                 03 
01180034145000000NONKIRBY  City of Kirby Council Member                            John Houlton                                                                                 03 
01180034146000000NONKIRBY  City of Kirby Council Member                            John Houlton                                                                                 03 
01180034182000000NONKIRBY  City of Kirby Council Member                            John Houlton                                                                                 03 
01180044064000004NONKIRBY  City of Kirby Council Member                            Ernest Spradling                                                                             03 
01180044080000002NONKIRBY  City of Kirby Council Member                            Ernest Spradling                                                                             03 
01180044145000000NONKIRBY  City of Kirby Council Member                            Ernest Spradling                                                                             03 
01180044146000000NONKIRBY  City of Kirby Council Member                            Ernest Spradling                                                                             03 
01180044182000000NONKIRBY  City of Kirby Council Member                            Ernest Spradling                                                                             03 
01180054064000000   KIRBY  City of Kirby Council Member                            OVER VOTES                                                                                   03 
01180054080000000   KIRBY  City of Kirby Council Member                            OVER VOTES                                                                                   03 
01180054145000000   KIRBY  City of Kirby Council Member                            OVER VOTES                                                                                   03 
01180054146000000   KIRBY  City of Kirby Council Member                            OVER VOTES                                                                                   03 
01180054182000000   KIRBY  City of Kirby Council Member                            OVER VOTES                                                                                   03 
01180064064000010   KIRBY  City of Kirby Council Member                            UNDER VOTES                                                                                  03 
01180064080000002   KIRBY  City of Kirby Council Member                            UNDER VOTES                                                                                  03 
01180064145000000   KIRBY  City of Kirby Council Member                            UNDER VOTES                                                                                  03 
01180064146000000   KIRBY  City of Kirby Council Member                            UNDER VOTES                                                                                  03 
01180064182000000   KIRBY  City of Kirby Council Member                            UNDER VOTES                                                                                  03 
