01040013027000007NONNEISD4 North East Independent School District                  Betty L. Daise                                                                               01 
01040013047000018NONNEISD4 North East Independent School District                  Betty L. Daise                                                                               01 
01040013048000052NONNEISD4 North East Independent School District                  Betty L. Daise                                                                               01 
01040013049000047NONNEISD4 North East Independent School District                  Betty L. Daise                                                                               01 
01040013050000075NONNEISD4 North East Independent School District                  Betty L. Daise                                                                               01 
01040013061000074NONNEISD4 North East Independent School District                  Betty L. Daise                                                                               01 
01040013118000026NONNEISD4 North East Independent School District                  Betty L. Daise                                                                               01 
01040013156000000NONNEISD4 North East Independent School District                  Betty L. Daise                                                                               01 
01040013159000088NONNEISD4 North East Independent School District                  Betty L. Daise                                                                               01 
01040014021000031NONNEISD4 North East Independent School District                  Betty L. Daise                                                                               01 
01040014022000001NONNEISD4 North East Independent School District                  Betty L. Daise                                                                               01 
01040014050000091NONNEISD4 North East Independent School District                  Betty L. Daise                                                                               01 
01040014051000135NONNEISD4 North East Independent School District                  Betty L. Daise                                                                               01 
01040014052000069NONNEISD4 North East Independent School District                  Betty L. Daise                                                                               01 
01040014054000110NONNEISD4 North East Independent School District                  Betty L. Daise                                                                               01 
01040014083000000NONNEISD4 North East Independent School District                  Betty L. Daise                                                                               01 
01040014093000060NONNEISD4 North East Independent School District                  Betty L. Daise                                                                               01 
01040014094000021NONNEISD4 North East Independent School District                  Betty L. Daise                                                                               01 
01040014098000043NONNEISD4 North East Independent School District                  Betty L. Daise                                                                               01 
01040014104000013NONNEISD4 North East Independent School District                  Betty L. Daise                                                                               01 
01040014107000059NONNEISD4 North East Independent School District                  Betty L. Daise                                                                               01 
01040014108000062NONNEISD4 North East Independent School District                  Betty L. Daise                                                                               01 
01040014115000005NONNEISD4 North East Independent School District                  Betty L. Daise                                                                               01 
01040014131000006NONNEISD4 North East Independent School District                  Betty L. Daise                                                                               01 
01040014134000000NONNEISD4 North East Independent School District                  Betty L. Daise                                                                               01 
01040014138000000NONNEISD4 North East Independent School District                  Betty L. Daise                                                                               01 
01040014140000000NONNEISD4 North East Independent School District                  Betty L. Daise                                                                               01 
01040014148000004NONNEISD4 North East Independent School District                  Betty L. Daise                                                                               01 
01040014149000010NONNEISD4 North East Independent School District                  Betty L. Daise                                                                               01 
01040014175000000NONNEISD4 North East Independent School District                  Betty L. Daise                                                                               01 
01040014185000001NONNEISD4 North East Independent School District                  Betty L. Daise                                                                               01 
01040014199000011NONNEISD4 North East Independent School District                  Betty L. Daise                                                                               01 
01040023027000003NONNEISD4 North East Independent School District                  Jim Wheat                                                                                    01 
01040023047000055NONNEISD4 North East Independent School District                  Jim Wheat                                                                                    01 
01040023048000160NONNEISD4 North East Independent School District                  Jim Wheat                                                                                    01 
01040023049000170NONNEISD4 North East Independent School District                  Jim Wheat                                                                                    01 
01040023050000047NONNEISD4 North East Independent School District                  Jim Wheat                                                                                    01 
01040023061000026NONNEISD4 North East Independent School District                  Jim Wheat                                                                                    01 
01040023118000045NONNEISD4 North East Independent School District                  Jim Wheat                                                                                    01 
01040023156000000NONNEISD4 North East Independent School District                  Jim Wheat                                                                                    01 
01040023159000052NONNEISD4 North East Independent School District                  Jim Wheat                                                                                    01 
01040024021000018NONNEISD4 North East Independent School District                  Jim Wheat                                                                                    01 
01040024022000000NONNEISD4 North East Independent School District                  Jim Wheat                                                                                    01 
01040024050000083NONNEISD4 North East Independent School District                  Jim Wheat                                                                                    01 
01040024051000138NONNEISD4 North East Independent School District                  Jim Wheat                                                                                    01 
01040024052000100NONNEISD4 North East Independent School District                  Jim Wheat                                                                                    01 
01040024054000070NONNEISD4 North East Independent School District                  Jim Wheat                                                                                    01 
01040024083000000NONNEISD4 North East Independent School District                  Jim Wheat                                                                                    01 
01040024093000034NONNEISD4 North East Independent School District                  Jim Wheat                                                                                    01 
01040024094000008NONNEISD4 North East Independent School District                  Jim Wheat                                                                                    01 
01040024098000025NONNEISD4 North East Independent School District                  Jim Wheat                                                                                    01 
01040024104000003NONNEISD4 North East Independent School District                  Jim Wheat                                                                                    01 
01040024107000057NONNEISD4 North East Independent School District                  Jim Wheat                                                                                    01 
01040024108000061NONNEISD4 North East Independent School District                  Jim Wheat                                                                                    01 
01040024115000016NONNEISD4 North East Independent School District                  Jim Wheat                                                                                    01 
01040024131000000NONNEISD4 North East Independent School District                  Jim Wheat                                                                                    01 
01040024134000000NONNEISD4 North East Independent School District                  Jim Wheat                                                                                    01 
01040024138000000NONNEISD4 North East Independent School District                  Jim Wheat                                                                                    01 
01040024140000000NONNEISD4 North East Independent School District                  Jim Wheat                                                                                    01 
01040024148000003NONNEISD4 North East Independent School District                  Jim Wheat                                                                                    01 
01040024149000006NONNEISD4 North East Independent School District                  Jim Wheat                                                                                    01 
01040024175000000NONNEISD4 North East Independent School District                  Jim Wheat                                                                                    01 
01040024185000000NONNEISD4 North East Independent School District                  Jim Wheat                                                                                    01 
01040024199000006NONNEISD4 North East Independent School District                  Jim Wheat                                                                                    01 
01040033027000001NONNEISD4 North East Independent School District                  James McFall                                                                                 01 
01040033047000007NONNEISD4 North East Independent School District                  James McFall                                                                                 01 
01040033048000019NONNEISD4 North East Independent School District                  James McFall                                                                                 01 
01040033049000005NONNEISD4 North East Independent School District                  James McFall                                                                                 01 
01040033050000008NONNEISD4 North East Independent School District                  James McFall                                                                                 01 
01040033061000013NONNEISD4 North East Independent School District                  James McFall                                                                                 01 
01040033118000011NONNEISD4 North East Independent School District                  James McFall                                                                                 01 
01040033156000000NONNEISD4 North East Independent School District                  James McFall                                                                                 01 
01040033159000012NONNEISD4 North East Independent School District                  James McFall                                                                                 01 
01040034021000017NONNEISD4 North East Independent School District                  James McFall                                                                                 01 
01040034022000000NONNEISD4 North East Independent School District                  James McFall                                                                                 01 
01040034050000109NONNEISD4 North East Independent School District                  James McFall                                                                                 01 
01040034051000184NONNEISD4 North East Independent School District                  James McFall                                                                                 01 
01040034052000045NONNEISD4 North East Independent School District                  James McFall                                                                                 01 
01040034054000097NONNEISD4 North East Independent School District                  James McFall                                                                                 01 
01040034083000000NONNEISD4 North East Independent School District                  James McFall                                                                                 01 
01040034093000021NONNEISD4 North East Independent School District                  James McFall                                                                                 01 
01040034094000016NONNEISD4 North East Independent School District                  James McFall                                                                                 01 
01040034098000009NONNEISD4 North East Independent School District                  James McFall                                                                                 01 
01040034104000001NONNEISD4 North East Independent School District                  James McFall                                                                                 01 
01040034107000115NONNEISD4 North East Independent School District                  James McFall                                                                                 01 
01040034108000024NONNEISD4 North East Independent School District                  James McFall                                                                                 01 
01040034115000006NONNEISD4 North East Independent School District                  James McFall                                                                                 01 
01040034131000000NONNEISD4 North East Independent School District                  James McFall                                                                                 01 
01040034134000000NONNEISD4 North East Independent School District                  James McFall                                                                                 01 
01040034138000000NONNEISD4 North East Independent School District                  James McFall                                                                                 01 
01040034140000000NONNEISD4 North East Independent School District                  James McFall                                                                                 01 
01040034148000003NONNEISD4 North East Independent School District                  James McFall                                                                                 01 
01040034149000003NONNEISD4 North East Independent School District                  James McFall                                                                                 01 
01040034175000000NONNEISD4 North East Independent School District                  James McFall                                                                                 01 
01040034185000000NONNEISD4 North East Independent School District                  James McFall                                                                                 01 
01040034199000003NONNEISD4 North East Independent School District                  James McFall                                                                                 01 
01040043027000000   NEISD4 North East Independent School District                  OVER VOTES                                                                                   01 
01040043047000000   NEISD4 North East Independent School District                  OVER VOTES                                                                                   01 
01040043048000000   NEISD4 North East Independent School District                  OVER VOTES                                                                                   01 
01040043049000000   NEISD4 North East Independent School District                  OVER VOTES                                                                                   01 
01040043050000000   NEISD4 North East Independent School District                  OVER VOTES                                                                                   01 
01040043061000000   NEISD4 North East Independent School District                  OVER VOTES                                                                                   01 
01040043118000000   NEISD4 North East Independent School District                  OVER VOTES                                                                                   01 
01040043156000000   NEISD4 North East Independent School District                  OVER VOTES                                                                                   01 
01040043159000000   NEISD4 North East Independent School District                  OVER VOTES                                                                                   01 
01040044021000000   NEISD4 North East Independent School District                  OVER VOTES                                                                                   01 
01040044022000000   NEISD4 North East Independent School District                  OVER VOTES                                                                                   01 
01040044050000000   NEISD4 North East Independent School District                  OVER VOTES                                                                                   01 
01040044051000000   NEISD4 North East Independent School District                  OVER VOTES                                                                                   01 
01040044052000000   NEISD4 North East Independent School District                  OVER VOTES                                                                                   01 
01040044054000000   NEISD4 North East Independent School District                  OVER VOTES                                                                                   01 
01040044083000000   NEISD4 North East Independent School District                  OVER VOTES                                                                                   01 
01040044093000000   NEISD4 North East Independent School District                  OVER VOTES                                                                                   01 
01040044094000000   NEISD4 North East Independent School District                  OVER VOTES                                                                                   01 
01040044098000000   NEISD4 North East Independent School District                  OVER VOTES                                                                                   01 
01040044104000000   NEISD4 North East Independent School District                  OVER VOTES                                                                                   01 
01040044107000000   NEISD4 North East Independent School District                  OVER VOTES                                                                                   01 
01040044108000000   NEISD4 North East Independent School District                  OVER VOTES                                                                                   01 
01040044115000000   NEISD4 North East Independent School District                  OVER VOTES                                                                                   01 
01040044131000000   NEISD4 North East Independent School District                  OVER VOTES                                                                                   01 
01040044134000000   NEISD4 North East Independent School District                  OVER VOTES                                                                                   01 
01040044138000000   NEISD4 North East Independent School District                  OVER VOTES                                                                                   01 
01040044140000000   NEISD4 North East Independent School District                  OVER VOTES                                                                                   01 
01040044148000000   NEISD4 North East Independent School District                  OVER VOTES                                                                                   01 
01040044149000000   NEISD4 North East Independent School District                  OVER VOTES                                                                                   01 
01040044175000000   NEISD4 North East Independent School District                  OVER VOTES                                                                                   01 
01040044185000000   NEISD4 North East Independent School District                  OVER VOTES                                                                                   01 
01040044199000000   NEISD4 North East Independent School District                  OVER VOTES                                                                                   01 
01040053027000002   NEISD4 North East Independent School District                  UNDER VOTES                                                                                  01 
01040053047000014   NEISD4 North East Independent School District                  UNDER VOTES                                                                                  01 
01040053048000038   NEISD4 North East Independent School District                  UNDER VOTES                                                                                  01 
01040053049000015   NEISD4 North East Independent School District                  UNDER VOTES                                                                                  01 
01040053050000017   NEISD4 North East Independent School District                  UNDER VOTES                                                                                  01 
01040053061000016   NEISD4 North East Independent School District                  UNDER VOTES                                                                                  01 
01040053118000021   NEISD4 North East Independent School District                  UNDER VOTES                                                                                  01 
01040053156000000   NEISD4 North East Independent School District                  UNDER VOTES                                                                                  01 
01040053159000026   NEISD4 North East Independent School District                  UNDER VOTES                                                                                  01 
01040054021000008   NEISD4 North East Independent School District                  UNDER VOTES                                                                                  01 
01040054022000000   NEISD4 North East Independent School District                  UNDER VOTES                                                                                  01 
01040054050000017   NEISD4 North East Independent School District                  UNDER VOTES                                                                                  01 
01040054051000030   NEISD4 North East Independent School District                  UNDER VOTES                                                                                  01 
01040054052000009   NEISD4 North East Independent School District                  UNDER VOTES                                                                                  01 
01040054054000073   NEISD4 North East Independent School District                  UNDER VOTES                                                                                  01 
01040054083000000   NEISD4 North East Independent School District                  UNDER VOTES                                                                                  01 
01040054093000017   NEISD4 North East Independent School District                  UNDER VOTES                                                                                  01 
01040054094000014   NEISD4 North East Independent School District                  UNDER VOTES                                                                                  01 
01040054098000009   NEISD4 North East Independent School District                  UNDER VOTES                                                                                  01 
01040054104000007   NEISD4 North East Independent School District                  UNDER VOTES                                                                                  01 
01040054107000011   NEISD4 North East Independent School District                  UNDER VOTES                                                                                  01 
01040054108000028   NEISD4 North East Independent School District                  UNDER VOTES                                                                                  01 
01040054115000006   NEISD4 North East Independent School District                  UNDER VOTES                                                                                  01 
01040054131000002   NEISD4 North East Independent School District                  UNDER VOTES                                                                                  01 
01040054134000000   NEISD4 North East Independent School District                  UNDER VOTES                                                                                  01 
01040054138000000   NEISD4 North East Independent School District                  UNDER VOTES                                                                                  01 
01040054140000000   NEISD4 North East Independent School District                  UNDER VOTES                                                                                  01 
01040054148000001   NEISD4 North East Independent School District                  UNDER VOTES                                                                                  01 
01040054149000001   NEISD4 North East Independent School District                  UNDER VOTES                                                                                  01 
01040054175000000   NEISD4 North East Independent School District                  UNDER VOTES                                                                                  01 
01040054185000000   NEISD4 North East Independent School District                  UNDER VOTES                                                                                  01 
01040054199000001   NEISD4 North East Independent School District                  UNDER VOTES                                                                                  01 
01050013007000077NONNEISD5 North East Independent School District                  Shannon Grona                                                                                01 
01050013028000047NONNEISD5 North East Independent School District                  Shannon Grona                                                                                01 
01050013040000051NONNEISD5 North East Independent School District                  Shannon Grona                                                                                01 
01050013059000031NONNEISD5 North East Independent School District                  Shannon Grona                                                                                01 
01050013072000043NONNEISD5 North East Independent School District                  Shannon Grona                                                                                01 
01050013084000058NONNEISD5 North East Independent School District                  Shannon Grona                                                                                01 
01050013087000042NONNEISD5 North East Independent School District                  Shannon Grona                                                                                01 
01050013088000184NONNEISD5 North East Independent School District                  Shannon Grona                                                                                01 
01050013090000093NONNEISD5 North East Independent School District                  Shannon Grona                                                                                01 
01050013100000049NONNEISD5 North East Independent School District                  Shannon Grona                                                                                01 
01050013105000092NONNEISD5 North East Independent School District                  Shannon Grona                                                                                01 
01050013108000065NONNEISD5 North East Independent School District                  Shannon Grona                                                                                01 
01050013110000044NONNEISD5 North East Independent School District                  Shannon Grona                                                                                01 
01050013114000183NONNEISD5 North East Independent School District                  Shannon Grona                                                                                01 
01050013137000056NONNEISD5 North East Independent School District                  Shannon Grona                                                                                01 
01050013153000024NONNEISD5 North East Independent School District                  Shannon Grona                                                                                01 
01050013157000090NONNEISD5 North East Independent School District                  Shannon Grona                                                                                01 
01050013165000161NONNEISD5 North East Independent School District                  Shannon Grona                                                                                01 
01050014172000008NONNEISD5 North East Independent School District                  Shannon Grona                                                                                01 
01050014179000060NONNEISD5 North East Independent School District                  Shannon Grona                                                                                01 
01050023007000019NONNEISD5 North East Independent School District                  Donnie Mahan                                                                                 01 
01050023028000022NONNEISD5 North East Independent School District                  Donnie Mahan                                                                                 01 
01050023040000047NONNEISD5 North East Independent School District                  Donnie Mahan                                                                                 01 
01050023059000025NONNEISD5 North East Independent School District                  Donnie Mahan                                                                                 01 
01050023072000008NONNEISD5 North East Independent School District                  Donnie Mahan                                                                                 01 
01050023084000047NONNEISD5 North East Independent School District                  Donnie Mahan                                                                                 01 
01050023087000031NONNEISD5 North East Independent School District                  Donnie Mahan                                                                                 01 
01050023088000076NONNEISD5 North East Independent School District                  Donnie Mahan                                                                                 01 
01050023090000067NONNEISD5 North East Independent School District                  Donnie Mahan                                                                                 01 
01050023100000028NONNEISD5 North East Independent School District                  Donnie Mahan                                                                                 01 
01050023105000046NONNEISD5 North East Independent School District                  Donnie Mahan                                                                                 01 
01050023108000053NONNEISD5 North East Independent School District                  Donnie Mahan                                                                                 01 
01050023110000048NONNEISD5 North East Independent School District                  Donnie Mahan                                                                                 01 
01050023114000040NONNEISD5 North East Independent School District                  Donnie Mahan                                                                                 01 
01050023137000016NONNEISD5 North East Independent School District                  Donnie Mahan                                                                                 01 
01050023153000020NONNEISD5 North East Independent School District                  Donnie Mahan                                                                                 01 
01050023157000054NONNEISD5 North East Independent School District                  Donnie Mahan                                                                                 01 
01050023165000033NONNEISD5 North East Independent School District                  Donnie Mahan                                                                                 01 
01050024172000002NONNEISD5 North East Independent School District                  Donnie Mahan                                                                                 01 
01050024179000058NONNEISD5 North East Independent School District                  Donnie Mahan                                                                                 01 
01050033007000013NONNEISD5 North East Independent School District                  Darpan I. Patel                                                                              01 
01050033028000011NONNEISD5 North East Independent School District                  Darpan I. Patel                                                                              01 
01050033040000011NONNEISD5 North East Independent School District                  Darpan I. Patel                                                                              01 
01050033059000012NONNEISD5 North East Independent School District                  Darpan I. Patel                                                                              01 
01050033072000001NONNEISD5 North East Independent School District                  Darpan I. Patel                                                                              01 
01050033084000028NONNEISD5 North East Independent School District                  Darpan I. Patel                                                                              01 
01050033087000012NONNEISD5 North East Independent School District                  Darpan I. Patel                                                                              01 
01050033088000046NONNEISD5 North East Independent School District                  Darpan I. Patel                                                                              01 
01050033090000034NONNEISD5 North East Independent School District                  Darpan I. Patel                                                                              01 
01050033100000011NONNEISD5 North East Independent School District                  Darpan I. Patel                                                                              01 
01050033105000025NONNEISD5 North East Independent School District                  Darpan I. Patel                                                                              01 
01050033108000020NONNEISD5 North East Independent School District                  Darpan I. Patel                                                                              01 
01050033110000019NONNEISD5 North East Independent School District                  Darpan I. Patel                                                                              01 
01050033114000025NONNEISD5 North East Independent School District                  Darpan I. Patel                                                                              01 
01050033137000009NONNEISD5 North East Independent School District                  Darpan I. Patel                                                                              01 
01050033153000013NONNEISD5 North East Independent School District                  Darpan I. Patel                                                                              01 
01050033157000024NONNEISD5 North East Independent School District                  Darpan I. Patel                                                                              01 
01050033165000026NONNEISD5 North East Independent School District                  Darpan I. Patel                                                                              01 
01050034172000002NONNEISD5 North East Independent School District                  Darpan I. Patel                                                                              01 
01050034179000025NONNEISD5 North East Independent School District                  Darpan I. Patel                                                                              01 
01050043007000000   NEISD5 North East Independent School District                  OVER VOTES                                                                                   01 
01050043028000000   NEISD5 North East Independent School District                  OVER VOTES                                                                                   01 
01050043040000000   NEISD5 North East Independent School District                  OVER VOTES                                                                                   01 
01050043059000000   NEISD5 North East Independent School District                  OVER VOTES                                                                                   01 
01050043072000000   NEISD5 North East Independent School District                  OVER VOTES                                                                                   01 
01050043084000000   NEISD5 North East Independent School District                  OVER VOTES                                                                                   01 
01050043087000000   NEISD5 North East Independent School District                  OVER VOTES                                                                                   01 
01050043088000000   NEISD5 North East Independent School District                  OVER VOTES                                                                                   01 
01050043090000000   NEISD5 North East Independent School District                  OVER VOTES                                                                                   01 
01050043100000000   NEISD5 North East Independent School District                  OVER VOTES                                                                                   01 
01050043105000000   NEISD5 North East Independent School District                  OVER VOTES                                                                                   01 
01050043108000000   NEISD5 North East Independent School District                  OVER VOTES                                                                                   01 
01050043110000000   NEISD5 North East Independent School District                  OVER VOTES                                                                                   01 
01050043114000000   NEISD5 North East Independent School District                  OVER VOTES                                                                                   01 
01050043137000000   NEISD5 North East Independent School District                  OVER VOTES                                                                                   01 
01050043153000000   NEISD5 North East Independent School District                  OVER VOTES                                                                                   01 
01050043157000000   NEISD5 North East Independent School District                  OVER VOTES                                                                                   01 
01050043165000000   NEISD5 North East Independent School District                  OVER VOTES                                                                                   01 
01050044172000000   NEISD5 North East Independent School District                  OVER VOTES                                                                                   01 
01050044179000000   NEISD5 North East Independent School District                  OVER VOTES                                                                                   01 
01050053007000017   NEISD5 North East Independent School District                  UNDER VOTES                                                                                  01 
01050053028000022   NEISD5 North East Independent School District                  UNDER VOTES                                                                                  01 
01050053040000036   NEISD5 North East Independent School District                  UNDER VOTES                                                                                  01 
01050053059000025   NEISD5 North East Independent School District                  UNDER VOTES                                                                                  01 
01050053072000003   NEISD5 North East Independent School District                  UNDER VOTES                                                                                  01 
01050053084000043   NEISD5 North East Independent School District                  UNDER VOTES                                                                                  01 
01050053087000026   NEISD5 North East Independent School District                  UNDER VOTES                                                                                  01 
01050053088000104   NEISD5 North East Independent School District                  UNDER VOTES                                                                                  01 
01050053090000069   NEISD5 North East Independent School District                  UNDER VOTES                                                                                  01 
01050053100000036   NEISD5 North East Independent School District                  UNDER VOTES                                                                                  01 
01050053105000054   NEISD5 North East Independent School District                  UNDER VOTES                                                                                  01 
01050053108000047   NEISD5 North East Independent School District                  UNDER VOTES                                                                                  01 
01050053110000045   NEISD5 North East Independent School District                  UNDER VOTES                                                                                  01 
01050053114000053   NEISD5 North East Independent School District                  UNDER VOTES                                                                                  01 
01050053137000002   NEISD5 North East Independent School District                  UNDER VOTES                                                                                  01 
01050053153000024   NEISD5 North East Independent School District                  UNDER VOTES                                                                                  01 
01050053157000073   NEISD5 North East Independent School District                  UNDER VOTES                                                                                  01 
01050053165000040   NEISD5 North East Independent School District                  UNDER VOTES                                                                                  01 
01050054172000005   NEISD5 North East Independent School District                  UNDER VOTES                                                                                  01 
01050054179000051   NEISD5 North East Independent School District                  UNDER VOTES                                                                                  01 
01060013001000047NONNEISD6 North East Independent School District                  Letti Bresnahan                                                                              01 
01060013030000132NONNEISD6 North East Independent School District                  Letti Bresnahan                                                                              01 
01060013033000042NONNEISD6 North East Independent School District                  Letti Bresnahan                                                                              01 
01060013042000127NONNEISD6 North East Independent School District                  Letti Bresnahan                                                                              01 
01060013044000046NONNEISD6 North East Independent School District                  Letti Bresnahan                                                                              01 
01060013045000093NONNEISD6 North East Independent School District                  Letti Bresnahan                                                                              01 
01060013052000089NONNEISD6 North East Independent School District                  Letti Bresnahan                                                                              01 
01060013076000068NONNEISD6 North East Independent School District                  Letti Bresnahan                                                                              01 
01060013078000084NONNEISD6 North East Independent School District                  Letti Bresnahan                                                                              01 
01060013083000043NONNEISD6 North East Independent School District                  Letti Bresnahan                                                                              01 
01060013085000028NONNEISD6 North East Independent School District                  Letti Bresnahan                                                                              01 
01060013091000025NONNEISD6 North East Independent School District                  Letti Bresnahan                                                                              01 
01060013092000267NONNEISD6 North East Independent School District                  Letti Bresnahan                                                                              01 
01060013093000122NONNEISD6 North East Independent School District                  Letti Bresnahan                                                                              01 
01060013097000000NONNEISD6 North East Independent School District                  Letti Bresnahan                                                                              01 
01060013102000097NONNEISD6 North East Independent School District                  Letti Bresnahan                                                                              01 
01060013117000022NONNEISD6 North East Independent School District                  Letti Bresnahan                                                                              01 
01060013119000000NONNEISD6 North East Independent School District                  Letti Bresnahan                                                                              01 
01060013121000066NONNEISD6 North East Independent School District                  Letti Bresnahan                                                                              01 
01060013122000025NONNEISD6 North East Independent School District                  Letti Bresnahan                                                                              01 
01060013125000034NONNEISD6 North East Independent School District                  Letti Bresnahan                                                                              01 
01060013130000000NONNEISD6 North East Independent School District                  Letti Bresnahan                                                                              01 
01060013148000009NONNEISD6 North East Independent School District                  Letti Bresnahan                                                                              01 
01060013153000029NONNEISD6 North East Independent School District                  Letti Bresnahan                                                                              01 
01060013163000064NONNEISD6 North East Independent School District                  Letti Bresnahan                                                                              01 
01060013173000076NONNEISD6 North East Independent School District                  Letti Bresnahan                                                                              01 
01060023001000066NONNEISD6 North East Independent School District                  Tom Lessner                                                                                  01 
01060023030000057NONNEISD6 North East Independent School District                  Tom Lessner                                                                                  01 
01060023033000114NONNEISD6 North East Independent School District                  Tom Lessner                                                                                  01 
01060023042000111NONNEISD6 North East Independent School District                  Tom Lessner                                                                                  01 
01060023044000029NONNEISD6 North East Independent School District                  Tom Lessner                                                                                  01 
01060023045000045NONNEISD6 North East Independent School District                  Tom Lessner                                                                                  01 
01060023052000062NONNEISD6 North East Independent School District                  Tom Lessner                                                                                  01 
01060023076000049NONNEISD6 North East Independent School District                  Tom Lessner                                                                                  01 
01060023078000073NONNEISD6 North East Independent School District                  Tom Lessner                                                                                  01 
01060023083000059NONNEISD6 North East Independent School District                  Tom Lessner                                                                                  01 
01060023085000067NONNEISD6 North East Independent School District                  Tom Lessner                                                                                  01 
01060023091000010NONNEISD6 North East Independent School District                  Tom Lessner                                                                                  01 
01060023092000344NONNEISD6 North East Independent School District                  Tom Lessner                                                                                  01 
01060023093000105NONNEISD6 North East Independent School District                  Tom Lessner                                                                                  01 
01060023097000000NONNEISD6 North East Independent School District                  Tom Lessner                                                                                  01 
01060023102000070NONNEISD6 North East Independent School District                  Tom Lessner                                                                                  01 
01060023117000039NONNEISD6 North East Independent School District                  Tom Lessner                                                                                  01 
01060023119000000NONNEISD6 North East Independent School District                  Tom Lessner                                                                                  01 
01060023121000071NONNEISD6 North East Independent School District                  Tom Lessner                                                                                  01 
01060023122000034NONNEISD6 North East Independent School District                  Tom Lessner                                                                                  01 
01060023125000061NONNEISD6 North East Independent School District                  Tom Lessner                                                                                  01 
01060023130000002NONNEISD6 North East Independent School District                  Tom Lessner                                                                                  01 
01060023148000009NONNEISD6 North East Independent School District                  Tom Lessner                                                                                  01 
01060023153000028NONNEISD6 North East Independent School District                  Tom Lessner                                                                                  01 
01060023163000062NONNEISD6 North East Independent School District                  Tom Lessner                                                                                  01 
01060023173000062NONNEISD6 North East Independent School District                  Tom Lessner                                                                                  01 
01060033001000039NONNEISD6 North East Independent School District                  Rogelio Rodriguez                                                                            01 
01060033030000088NONNEISD6 North East Independent School District                  Rogelio Rodriguez                                                                            01 
01060033033000021NONNEISD6 North East Independent School District                  Rogelio Rodriguez                                                                            01 
01060033042000109NONNEISD6 North East Independent School District                  Rogelio Rodriguez                                                                            01 
01060033044000020NONNEISD6 North East Independent School District                  Rogelio Rodriguez                                                                            01 
01060033045000039NONNEISD6 North East Independent School District                  Rogelio Rodriguez                                                                            01 
01060033052000078NONNEISD6 North East Independent School District                  Rogelio Rodriguez                                                                            01 
01060033076000036NONNEISD6 North East Independent School District                  Rogelio Rodriguez                                                                            01 
01060033078000053NONNEISD6 North East Independent School District                  Rogelio Rodriguez                                                                            01 
01060033083000034NONNEISD6 North East Independent School District                  Rogelio Rodriguez                                                                            01 
01060033085000026NONNEISD6 North East Independent School District                  Rogelio Rodriguez                                                                            01 
01060033091000003NONNEISD6 North East Independent School District                  Rogelio Rodriguez                                                                            01 
01060033092000185NONNEISD6 North East Independent School District                  Rogelio Rodriguez                                                                            01 
01060033093000056NONNEISD6 North East Independent School District                  Rogelio Rodriguez                                                                            01 
01060033097000000NONNEISD6 North East Independent School District                  Rogelio Rodriguez                                                                            01 
01060033102000078NONNEISD6 North East Independent School District                  Rogelio Rodriguez                                                                            01 
01060033117000011NONNEISD6 North East Independent School District                  Rogelio Rodriguez                                                                            01 
01060033119000000NONNEISD6 North East Independent School District                  Rogelio Rodriguez                                                                            01 
01060033121000049NONNEISD6 North East Independent School District                  Rogelio Rodriguez                                                                            01 
01060033122000020NONNEISD6 North East Independent School District                  Rogelio Rodriguez                                                                            01 
01060033125000026NONNEISD6 North East Independent School District                  Rogelio Rodriguez                                                                            01 
01060033130000003NONNEISD6 North East Independent School District                  Rogelio Rodriguez                                                                            01 
01060033148000002NONNEISD6 North East Independent School District                  Rogelio Rodriguez                                                                            01 
01060033153000028NONNEISD6 North East Independent School District                  Rogelio Rodriguez                                                                            01 
01060033163000047NONNEISD6 North East Independent School District                  Rogelio Rodriguez                                                                            01 
01060033173000029NONNEISD6 North East Independent School District                  Rogelio Rodriguez                                                                            01 
01060043001000000   NEISD6 North East Independent School District                  OVER VOTES                                                                                   01 
01060043030000000   NEISD6 North East Independent School District                  OVER VOTES                                                                                   01 
01060043033000000   NEISD6 North East Independent School District                  OVER VOTES                                                                                   01 
01060043042000000   NEISD6 North East Independent School District                  OVER VOTES                                                                                   01 
01060043044000000   NEISD6 North East Independent School District                  OVER VOTES                                                                                   01 
01060043045000000   NEISD6 North East Independent School District                  OVER VOTES                                                                                   01 
01060043052000000   NEISD6 North East Independent School District                  OVER VOTES                                                                                   01 
01060043076000000   NEISD6 North East Independent School District                  OVER VOTES                                                                                   01 
01060043078000000   NEISD6 North East Independent School District                  OVER VOTES                                                                                   01 
01060043083000000   NEISD6 North East Independent School District                  OVER VOTES                                                                                   01 
01060043085000000   NEISD6 North East Independent School District                  OVER VOTES                                                                                   01 
01060043091000000   NEISD6 North East Independent School District                  OVER VOTES                                                                                   01 
01060043092000000   NEISD6 North East Independent School District                  OVER VOTES                                                                                   01 
01060043093000000   NEISD6 North East Independent School District                  OVER VOTES                                                                                   01 
01060043097000000   NEISD6 North East Independent School District                  OVER VOTES                                                                                   01 
01060043102000000   NEISD6 North East Independent School District                  OVER VOTES                                                                                   01 
01060043117000000   NEISD6 North East Independent School District                  OVER VOTES                                                                                   01 
01060043119000000   NEISD6 North East Independent School District                  OVER VOTES                                                                                   01 
01060043121000000   NEISD6 North East Independent School District                  OVER VOTES                                                                                   01 
01060043122000000   NEISD6 North East Independent School District                  OVER VOTES                                                                                   01 
01060043125000000   NEISD6 North East Independent School District                  OVER VOTES                                                                                   01 
01060043130000000   NEISD6 North East Independent School District                  OVER VOTES                                                                                   01 
01060043148000000   NEISD6 North East Independent School District                  OVER VOTES                                                                                   01 
01060043153000000   NEISD6 North East Independent School District                  OVER VOTES                                                                                   01 
01060043163000000   NEISD6 North East Independent School District                  OVER VOTES                                                                                   01 
01060043173000000   NEISD6 North East Independent School District                  OVER VOTES                                                                                   01 
01060053001000015   NEISD6 North East Independent School District                  UNDER VOTES                                                                                  01 
01060053030000032   NEISD6 North East Independent School District                  UNDER VOTES                                                                                  01 
01060053033000030   NEISD6 North East Independent School District                  UNDER VOTES                                                                                  01 
01060053042000060   NEISD6 North East Independent School District                  UNDER VOTES                                                                                  01 
01060053044000023   NEISD6 North East Independent School District                  UNDER VOTES                                                                                  01 
01060053045000010   NEISD6 North East Independent School District                  UNDER VOTES                                                                                  01 
01060053052000035   NEISD6 North East Independent School District                  UNDER VOTES                                                                                  01 
01060053076000020   NEISD6 North East Independent School District                  UNDER VOTES                                                                                  01 
01060053078000037   NEISD6 North East Independent School District                  UNDER VOTES                                                                                  01 
01060053083000053   NEISD6 North East Independent School District                  UNDER VOTES                                                                                  01 
01060053085000043   NEISD6 North East Independent School District                  UNDER VOTES                                                                                  01 
01060053091000000   NEISD6 North East Independent School District                  UNDER VOTES                                                                                  01 
01060053092000303   NEISD6 North East Independent School District                  UNDER VOTES                                                                                  01 
01060053093000058   NEISD6 North East Independent School District                  UNDER VOTES                                                                                  01 
01060053097000000   NEISD6 North East Independent School District                  UNDER VOTES                                                                                  01 
01060053102000054   NEISD6 North East Independent School District                  UNDER VOTES                                                                                  01 
01060053117000008   NEISD6 North East Independent School District                  UNDER VOTES                                                                                  01 
01060053119000000   NEISD6 North East Independent School District                  UNDER VOTES                                                                                  01 
01060053121000048   NEISD6 North East Independent School District                  UNDER VOTES                                                                                  01 
01060053122000031   NEISD6 North East Independent School District                  UNDER VOTES                                                                                  01 
01060053125000007   NEISD6 North East Independent School District                  UNDER VOTES                                                                                  01 
01060053130000001   NEISD6 North East Independent School District                  UNDER VOTES                                                                                  01 
01060053148000002   NEISD6 North East Independent School District                  UNDER VOTES                                                                                  01 
01060053153000022   NEISD6 North East Independent School District                  UNDER VOTES                                                                                  01 
01060053163000037   NEISD6 North East Independent School District                  UNDER VOTES                                                                                  01 
01060053173000035   NEISD6 North East Independent School District                  UNDER VOTES                                                                                  01 
