01040013027000002NONNEISD4 North East Independent School District                  Betty L. Daise                                                                               01 
01040013047000012NONNEISD4 North East Independent School District                  Betty L. Daise                                                                               01 
01040013048000035NONNEISD4 North East Independent School District                  Betty L. Daise                                                                               01 
01040013049000015NONNEISD4 North East Independent School District                  Betty L. Daise                                                                               01 
01040013050000033NONNEISD4 North East Independent School District                  Betty L. Daise                                                                               01 
01040013061000043NONNEISD4 North East Independent School District                  Betty L. Daise                                                                               01 
01040013118000021NONNEISD4 North East Independent School District                  Betty L. Daise                                                                               01 
01040013156000000NONNEISD4 North East Independent School District                  Betty L. Daise                                                                               01 
01040013159000052NONNEISD4 North East Independent School District                  Betty L. Daise                                                                               01 
01040014021000014NONNEISD4 North East Independent School District                  Betty L. Daise                                                                               01 
01040014022000001NONNEISD4 North East Independent School District                  Betty L. Daise                                                                               01 
01040014050000079NONNEISD4 North East Independent School District                  Betty L. Daise                                                                               01 
01040014051000100NONNEISD4 North East Independent School District                  Betty L. Daise                                                                               01 
01040014052000022NONNEISD4 North East Independent School District                  Betty L. Daise                                                                               01 
01040014054000078NONNEISD4 North East Independent School District                  Betty L. Daise                                                                               01 
01040014083000000NONNEISD4 North East Independent School District                  Betty L. Daise                                                                               01 
01040014093000034NONNEISD4 North East Independent School District                  Betty L. Daise                                                                               01 
01040014094000002NONNEISD4 North East Independent School District                  Betty L. Daise                                                                               01 
01040014098000019NONNEISD4 North East Independent School District                  Betty L. Daise                                                                               01 
01040014104000004NONNEISD4 North East Independent School District                  Betty L. Daise                                                                               01 
01040014107000051NONNEISD4 North East Independent School District                  Betty L. Daise                                                                               01 
01040014108000036NONNEISD4 North East Independent School District                  Betty L. Daise                                                                               01 
01040014115000002NONNEISD4 North East Independent School District                  Betty L. Daise                                                                               01 
01040014131000005NONNEISD4 North East Independent School District                  Betty L. Daise                                                                               01 
01040014134000000NONNEISD4 North East Independent School District                  Betty L. Daise                                                                               01 
01040014138000000NONNEISD4 North East Independent School District                  Betty L. Daise                                                                               01 
01040014140000000NONNEISD4 North East Independent School District                  Betty L. Daise                                                                               01 
01040014148000001NONNEISD4 North East Independent School District                  Betty L. Daise                                                                               01 
01040014149000005NONNEISD4 North East Independent School District                  Betty L. Daise                                                                               01 
01040014175000000NONNEISD4 North East Independent School District                  Betty L. Daise                                                                               01 
01040014185000001NONNEISD4 North East Independent School District                  Betty L. Daise                                                                               01 
01040014199000008NONNEISD4 North East Independent School District                  Betty L. Daise                                                                               01 
01040023027000002NONNEISD4 North East Independent School District                  Jim Wheat                                                                                    01 
01040023047000027NONNEISD4 North East Independent School District                  Jim Wheat                                                                                    01 
01040023048000064NONNEISD4 North East Independent School District                  Jim Wheat                                                                                    01 
01040023049000087NONNEISD4 North East Independent School District                  Jim Wheat                                                                                    01 
01040023050000034NONNEISD4 North East Independent School District                  Jim Wheat                                                                                    01 
01040023061000017NONNEISD4 North East Independent School District                  Jim Wheat                                                                                    01 
01040023118000022NONNEISD4 North East Independent School District                  Jim Wheat                                                                                    01 
01040023156000000NONNEISD4 North East Independent School District                  Jim Wheat                                                                                    01 
01040023159000033NONNEISD4 North East Independent School District                  Jim Wheat                                                                                    01 
01040024021000004NONNEISD4 North East Independent School District                  Jim Wheat                                                                                    01 
01040024022000000NONNEISD4 North East Independent School District                  Jim Wheat                                                                                    01 
01040024050000056NONNEISD4 North East Independent School District                  Jim Wheat                                                                                    01 
01040024051000114NONNEISD4 North East Independent School District                  Jim Wheat                                                                                    01 
01040024052000062NONNEISD4 North East Independent School District                  Jim Wheat                                                                                    01 
01040024054000048NONNEISD4 North East Independent School District                  Jim Wheat                                                                                    01 
01040024083000000NONNEISD4 North East Independent School District                  Jim Wheat                                                                                    01 
01040024093000024NONNEISD4 North East Independent School District                  Jim Wheat                                                                                    01 
01040024094000002NONNEISD4 North East Independent School District                  Jim Wheat                                                                                    01 
01040024098000015NONNEISD4 North East Independent School District                  Jim Wheat                                                                                    01 
01040024104000002NONNEISD4 North East Independent School District                  Jim Wheat                                                                                    01 
01040024107000043NONNEISD4 North East Independent School District                  Jim Wheat                                                                                    01 
01040024108000039NONNEISD4 North East Independent School District                  Jim Wheat                                                                                    01 
01040024115000007NONNEISD4 North East Independent School District                  Jim Wheat                                                                                    01 
01040024131000000NONNEISD4 North East Independent School District                  Jim Wheat                                                                                    01 
01040024134000000NONNEISD4 North East Independent School District                  Jim Wheat                                                                                    01 
01040024138000000NONNEISD4 North East Independent School District                  Jim Wheat                                                                                    01 
01040024140000000NONNEISD4 North East Independent School District                  Jim Wheat                                                                                    01 
01040024148000002NONNEISD4 North East Independent School District                  Jim Wheat                                                                                    01 
01040024149000004NONNEISD4 North East Independent School District                  Jim Wheat                                                                                    01 
01040024175000000NONNEISD4 North East Independent School District                  Jim Wheat                                                                                    01 
01040024185000000NONNEISD4 North East Independent School District                  Jim Wheat                                                                                    01 
01040024199000005NONNEISD4 North East Independent School District                  Jim Wheat                                                                                    01 
01040033027000000NONNEISD4 North East Independent School District                  James McFall                                                                                 01 
01040033047000005NONNEISD4 North East Independent School District                  James McFall                                                                                 01 
01040033048000014NONNEISD4 North East Independent School District                  James McFall                                                                                 01 
01040033049000003NONNEISD4 North East Independent School District                  James McFall                                                                                 01 
01040033050000007NONNEISD4 North East Independent School District                  James McFall                                                                                 01 
01040033061000009NONNEISD4 North East Independent School District                  James McFall                                                                                 01 
01040033118000004NONNEISD4 North East Independent School District                  James McFall                                                                                 01 
01040033156000000NONNEISD4 North East Independent School District                  James McFall                                                                                 01 
01040033159000008NONNEISD4 North East Independent School District                  James McFall                                                                                 01 
01040034021000009NONNEISD4 North East Independent School District                  James McFall                                                                                 01 
01040034022000000NONNEISD4 North East Independent School District                  James McFall                                                                                 01 
01040034050000076NONNEISD4 North East Independent School District                  James McFall                                                                                 01 
01040034051000140NONNEISD4 North East Independent School District                  James McFall                                                                                 01 
01040034052000027NONNEISD4 North East Independent School District                  James McFall                                                                                 01 
01040034054000052NONNEISD4 North East Independent School District                  James McFall                                                                                 01 
01040034083000000NONNEISD4 North East Independent School District                  James McFall                                                                                 01 
01040034093000018NONNEISD4 North East Independent School District                  James McFall                                                                                 01 
01040034094000002NONNEISD4 North East Independent School District                  James McFall                                                                                 01 
01040034098000004NONNEISD4 North East Independent School District                  James McFall                                                                                 01 
01040034104000000NONNEISD4 North East Independent School District                  James McFall                                                                                 01 
01040034107000089NONNEISD4 North East Independent School District                  James McFall                                                                                 01 
01040034108000017NONNEISD4 North East Independent School District                  James McFall                                                                                 01 
01040034115000004NONNEISD4 North East Independent School District                  James McFall                                                                                 01 
01040034131000000NONNEISD4 North East Independent School District                  James McFall                                                                                 01 
01040034134000000NONNEISD4 North East Independent School District                  James McFall                                                                                 01 
01040034138000000NONNEISD4 North East Independent School District                  James McFall                                                                                 01 
01040034140000000NONNEISD4 North East Independent School District                  James McFall                                                                                 01 
01040034148000002NONNEISD4 North East Independent School District                  James McFall                                                                                 01 
01040034149000002NONNEISD4 North East Independent School District                  James McFall                                                                                 01 
01040034175000000NONNEISD4 North East Independent School District                  James McFall                                                                                 01 
01040034185000000NONNEISD4 North East Independent School District                  James McFall                                                                                 01 
01040034199000003NONNEISD4 North East Independent School District                  James McFall                                                                                 01 
01040043027000000   NEISD4 North East Independent School District                  OVER VOTES                                                                                   01 
01040043047000000   NEISD4 North East Independent School District                  OVER VOTES                                                                                   01 
01040043048000000   NEISD4 North East Independent School District                  OVER VOTES                                                                                   01 
01040043049000000   NEISD4 North East Independent School District                  OVER VOTES                                                                                   01 
01040043050000000   NEISD4 North East Independent School District                  OVER VOTES                                                                                   01 
01040043061000000   NEISD4 North East Independent School District                  OVER VOTES                                                                                   01 
01040043118000000   NEISD4 North East Independent School District                  OVER VOTES                                                                                   01 
01040043156000000   NEISD4 North East Independent School District                  OVER VOTES                                                                                   01 
01040043159000000   NEISD4 North East Independent School District                  OVER VOTES                                                                                   01 
01040044021000000   NEISD4 North East Independent School District                  OVER VOTES                                                                                   01 
01040044022000000   NEISD4 North East Independent School District                  OVER VOTES                                                                                   01 
01040044050000000   NEISD4 North East Independent School District                  OVER VOTES                                                                                   01 
01040044051000000   NEISD4 North East Independent School District                  OVER VOTES                                                                                   01 
01040044052000000   NEISD4 North East Independent School District                  OVER VOTES                                                                                   01 
01040044054000000   NEISD4 North East Independent School District                  OVER VOTES                                                                                   01 
01040044083000000   NEISD4 North East Independent School District                  OVER VOTES                                                                                   01 
01040044093000000   NEISD4 North East Independent School District                  OVER VOTES                                                                                   01 
01040044094000000   NEISD4 North East Independent School District                  OVER VOTES                                                                                   01 
01040044098000000   NEISD4 North East Independent School District                  OVER VOTES                                                                                   01 
01040044104000000   NEISD4 North East Independent School District                  OVER VOTES                                                                                   01 
01040044107000000   NEISD4 North East Independent School District                  OVER VOTES                                                                                   01 
01040044108000000   NEISD4 North East Independent School District                  OVER VOTES                                                                                   01 
01040044115000000   NEISD4 North East Independent School District                  OVER VOTES                                                                                   01 
01040044131000000   NEISD4 North East Independent School District                  OVER VOTES                                                                                   01 
01040044134000000   NEISD4 North East Independent School District                  OVER VOTES                                                                                   01 
01040044138000000   NEISD4 North East Independent School District                  OVER VOTES                                                                                   01 
01040044140000000   NEISD4 North East Independent School District                  OVER VOTES                                                                                   01 
01040044148000000   NEISD4 North East Independent School District                  OVER VOTES                                                                                   01 
01040044149000000   NEISD4 North East Independent School District                  OVER VOTES                                                                                   01 
01040044175000000   NEISD4 North East Independent School District                  OVER VOTES                                                                                   01 
01040044185000000   NEISD4 North East Independent School District                  OVER VOTES                                                                                   01 
01040044199000000   NEISD4 North East Independent School District                  OVER VOTES                                                                                   01 
01040053027000000   NEISD4 North East Independent School District                  UNDER VOTES                                                                                  01 
01040053047000006   NEISD4 North East Independent School District                  UNDER VOTES                                                                                  01 
01040053048000022   NEISD4 North East Independent School District                  UNDER VOTES                                                                                  01 
01040053049000008   NEISD4 North East Independent School District                  UNDER VOTES                                                                                  01 
01040053050000011   NEISD4 North East Independent School District                  UNDER VOTES                                                                                  01 
01040053061000008   NEISD4 North East Independent School District                  UNDER VOTES                                                                                  01 
01040053118000013   NEISD4 North East Independent School District                  UNDER VOTES                                                                                  01 
01040053156000000   NEISD4 North East Independent School District                  UNDER VOTES                                                                                  01 
01040053159000015   NEISD4 North East Independent School District                  UNDER VOTES                                                                                  01 
01040054021000004   NEISD4 North East Independent School District                  UNDER VOTES                                                                                  01 
01040054022000000   NEISD4 North East Independent School District                  UNDER VOTES                                                                                  01 
01040054050000011   NEISD4 North East Independent School District                  UNDER VOTES                                                                                  01 
01040054051000024   NEISD4 North East Independent School District                  UNDER VOTES                                                                                  01 
01040054052000004   NEISD4 North East Independent School District                  UNDER VOTES                                                                                  01 
01040054054000041   NEISD4 North East Independent School District                  UNDER VOTES                                                                                  01 
01040054083000000   NEISD4 North East Independent School District                  UNDER VOTES                                                                                  01 
01040054093000014   NEISD4 North East Independent School District                  UNDER VOTES                                                                                  01 
01040054094000001   NEISD4 North East Independent School District                  UNDER VOTES                                                                                  01 
01040054098000006   NEISD4 North East Independent School District                  UNDER VOTES                                                                                  01 
01040054104000006   NEISD4 North East Independent School District                  UNDER VOTES                                                                                  01 
01040054107000008   NEISD4 North East Independent School District                  UNDER VOTES                                                                                  01 
01040054108000013   NEISD4 North East Independent School District                  UNDER VOTES                                                                                  01 
01040054115000003   NEISD4 North East Independent School District                  UNDER VOTES                                                                                  01 
01040054131000001   NEISD4 North East Independent School District                  UNDER VOTES                                                                                  01 
01040054134000000   NEISD4 North East Independent School District                  UNDER VOTES                                                                                  01 
01040054138000000   NEISD4 North East Independent School District                  UNDER VOTES                                                                                  01 
01040054140000000   NEISD4 North East Independent School District                  UNDER VOTES                                                                                  01 
01040054148000001   NEISD4 North East Independent School District                  UNDER VOTES                                                                                  01 
01040054149000000   NEISD4 North East Independent School District                  UNDER VOTES                                                                                  01 
01040054175000000   NEISD4 North East Independent School District                  UNDER VOTES                                                                                  01 
01040054185000000   NEISD4 North East Independent School District                  UNDER VOTES                                                                                  01 
01040054199000001   NEISD4 North East Independent School District                  UNDER VOTES                                                                                  01 
01050013007000036NONNEISD5 North East Independent School District                  Shannon Grona                                                                                01 
01050013028000033NONNEISD5 North East Independent School District                  Shannon Grona                                                                                01 
01050013040000027NONNEISD5 North East Independent School District                  Shannon Grona                                                                                01 
01050013059000022NONNEISD5 North East Independent School District                  Shannon Grona                                                                                01 
01050013072000028NONNEISD5 North East Independent School District                  Shannon Grona                                                                                01 
01050013084000025NONNEISD5 North East Independent School District                  Shannon Grona                                                                                01 
01050013087000026NONNEISD5 North East Independent School District                  Shannon Grona                                                                                01 
01050013088000098NONNEISD5 North East Independent School District                  Shannon Grona                                                                                01 
01050013090000044NONNEISD5 North East Independent School District                  Shannon Grona                                                                                01 
01050013100000028NONNEISD5 North East Independent School District                  Shannon Grona                                                                                01 
01050013105000057NONNEISD5 North East Independent School District                  Shannon Grona                                                                                01 
01050013108000026NONNEISD5 North East Independent School District                  Shannon Grona                                                                                01 
01050013110000027NONNEISD5 North East Independent School District                  Shannon Grona                                                                                01 
01050013114000046NONNEISD5 North East Independent School District                  Shannon Grona                                                                                01 
01050013137000023NONNEISD5 North East Independent School District                  Shannon Grona                                                                                01 
01050013153000014NONNEISD5 North East Independent School District                  Shannon Grona                                                                                01 
01050013157000052NONNEISD5 North East Independent School District                  Shannon Grona                                                                                01 
01050013165000055NONNEISD5 North East Independent School District                  Shannon Grona                                                                                01 
01050014172000008NONNEISD5 North East Independent School District                  Shannon Grona                                                                                01 
01050014179000030NONNEISD5 North East Independent School District                  Shannon Grona                                                                                01 
01050023007000007NONNEISD5 North East Independent School District                  Donnie Mahan                                                                                 01 
01050023028000011NONNEISD5 North East Independent School District                  Donnie Mahan                                                                                 01 
01050023040000035NONNEISD5 North East Independent School District                  Donnie Mahan                                                                                 01 
01050023059000015NONNEISD5 North East Independent School District                  Donnie Mahan                                                                                 01 
01050023072000007NONNEISD5 North East Independent School District                  Donnie Mahan                                                                                 01 
01050023084000033NONNEISD5 North East Independent School District                  Donnie Mahan                                                                                 01 
01050023087000027NONNEISD5 North East Independent School District                  Donnie Mahan                                                                                 01 
01050023088000045NONNEISD5 North East Independent School District                  Donnie Mahan                                                                                 01 
01050023090000041NONNEISD5 North East Independent School District                  Donnie Mahan                                                                                 01 
01050023100000012NONNEISD5 North East Independent School District                  Donnie Mahan                                                                                 01 
01050023105000029NONNEISD5 North East Independent School District                  Donnie Mahan                                                                                 01 
01050023108000021NONNEISD5 North East Independent School District                  Donnie Mahan                                                                                 01 
01050023110000027NONNEISD5 North East Independent School District                  Donnie Mahan                                                                                 01 
01050023114000020NONNEISD5 North East Independent School District                  Donnie Mahan                                                                                 01 
01050023137000003NONNEISD5 North East Independent School District                  Donnie Mahan                                                                                 01 
01050023153000011NONNEISD5 North East Independent School District                  Donnie Mahan                                                                                 01 
01050023157000040NONNEISD5 North East Independent School District                  Donnie Mahan                                                                                 01 
01050023165000015NONNEISD5 North East Independent School District                  Donnie Mahan                                                                                 01 
01050024172000002NONNEISD5 North East Independent School District                  Donnie Mahan                                                                                 01 
01050024179000040NONNEISD5 North East Independent School District                  Donnie Mahan                                                                                 01 
01050033007000003NONNEISD5 North East Independent School District                  Darpan I. Patel                                                                              01 
01050033028000006NONNEISD5 North East Independent School District                  Darpan I. Patel                                                                              01 
01050033040000006NONNEISD5 North East Independent School District                  Darpan I. Patel                                                                              01 
01050033059000009NONNEISD5 North East Independent School District                  Darpan I. Patel                                                                              01 
01050033072000001NONNEISD5 North East Independent School District                  Darpan I. Patel                                                                              01 
01050033084000014NONNEISD5 North East Independent School District                  Darpan I. Patel                                                                              01 
01050033087000008NONNEISD5 North East Independent School District                  Darpan I. Patel                                                                              01 
01050033088000023NONNEISD5 North East Independent School District                  Darpan I. Patel                                                                              01 
01050033090000012NONNEISD5 North East Independent School District                  Darpan I. Patel                                                                              01 
01050033100000005NONNEISD5 North East Independent School District                  Darpan I. Patel                                                                              01 
01050033105000013NONNEISD5 North East Independent School District                  Darpan I. Patel                                                                              01 
01050033108000007NONNEISD5 North East Independent School District                  Darpan I. Patel                                                                              01 
01050033110000015NONNEISD5 North East Independent School District                  Darpan I. Patel                                                                              01 
01050033114000009NONNEISD5 North East Independent School District                  Darpan I. Patel                                                                              01 
01050033137000001NONNEISD5 North East Independent School District                  Darpan I. Patel                                                                              01 
01050033153000009NONNEISD5 North East Independent School District                  Darpan I. Patel                                                                              01 
01050033157000012NONNEISD5 North East Independent School District                  Darpan I. Patel                                                                              01 
01050033165000007NONNEISD5 North East Independent School District                  Darpan I. Patel                                                                              01 
01050034172000002NONNEISD5 North East Independent School District                  Darpan I. Patel                                                                              01 
01050034179000018NONNEISD5 North East Independent School District                  Darpan I. Patel                                                                              01 
01050043007000000   NEISD5 North East Independent School District                  OVER VOTES                                                                                   01 
01050043028000000   NEISD5 North East Independent School District                  OVER VOTES                                                                                   01 
01050043040000000   NEISD5 North East Independent School District                  OVER VOTES                                                                                   01 
01050043059000000   NEISD5 North East Independent School District                  OVER VOTES                                                                                   01 
01050043072000000   NEISD5 North East Independent School District                  OVER VOTES                                                                                   01 
01050043084000000   NEISD5 North East Independent School District                  OVER VOTES                                                                                   01 
01050043087000000   NEISD5 North East Independent School District                  OVER VOTES                                                                                   01 
01050043088000000   NEISD5 North East Independent School District                  OVER VOTES                                                                                   01 
01050043090000000   NEISD5 North East Independent School District                  OVER VOTES                                                                                   01 
01050043100000000   NEISD5 North East Independent School District                  OVER VOTES                                                                                   01 
01050043105000000   NEISD5 North East Independent School District                  OVER VOTES                                                                                   01 
01050043108000000   NEISD5 North East Independent School District                  OVER VOTES                                                                                   01 
01050043110000000   NEISD5 North East Independent School District                  OVER VOTES                                                                                   01 
01050043114000000   NEISD5 North East Independent School District                  OVER VOTES                                                                                   01 
01050043137000000   NEISD5 North East Independent School District                  OVER VOTES                                                                                   01 
01050043153000000   NEISD5 North East Independent School District                  OVER VOTES                                                                                   01 
01050043157000000   NEISD5 North East Independent School District                  OVER VOTES                                                                                   01 
01050043165000000   NEISD5 North East Independent School District                  OVER VOTES                                                                                   01 
01050044172000000   NEISD5 North East Independent School District                  OVER VOTES                                                                                   01 
01050044179000000   NEISD5 North East Independent School District                  OVER VOTES                                                                                   01 
01050053007000004   NEISD5 North East Independent School District                  UNDER VOTES                                                                                  01 
01050053028000016   NEISD5 North East Independent School District                  UNDER VOTES                                                                                  01 
01050053040000023   NEISD5 North East Independent School District                  UNDER VOTES                                                                                  01 
01050053059000017   NEISD5 North East Independent School District                  UNDER VOTES                                                                                  01 
01050053072000000   NEISD5 North East Independent School District                  UNDER VOTES                                                                                  01 
01050053084000020   NEISD5 North East Independent School District                  UNDER VOTES                                                                                  01 
01050053087000012   NEISD5 North East Independent School District                  UNDER VOTES                                                                                  01 
01050053088000055   NEISD5 North East Independent School District                  UNDER VOTES                                                                                  01 
01050053090000037   NEISD5 North East Independent School District                  UNDER VOTES                                                                                  01 
01050053100000020   NEISD5 North East Independent School District                  UNDER VOTES                                                                                  01 
01050053105000041   NEISD5 North East Independent School District                  UNDER VOTES                                                                                  01 
01050053108000020   NEISD5 North East Independent School District                  UNDER VOTES                                                                                  01 
01050053110000021   NEISD5 North East Independent School District                  UNDER VOTES                                                                                  01 
01050053114000023   NEISD5 North East Independent School District                  UNDER VOTES                                                                                  01 
01050053137000001   NEISD5 North East Independent School District                  UNDER VOTES                                                                                  01 
01050053153000018   NEISD5 North East Independent School District                  UNDER VOTES                                                                                  01 
01050053157000049   NEISD5 North East Independent School District                  UNDER VOTES                                                                                  01 
01050053165000023   NEISD5 North East Independent School District                  UNDER VOTES                                                                                  01 
01050054172000005   NEISD5 North East Independent School District                  UNDER VOTES                                                                                  01 
01050054179000027   NEISD5 North East Independent School District                  UNDER VOTES                                                                                  01 
01060013001000031NONNEISD6 North East Independent School District                  Letti Bresnahan                                                                              01 
01060013030000080NONNEISD6 North East Independent School District                  Letti Bresnahan                                                                              01 
01060013033000019NONNEISD6 North East Independent School District                  Letti Bresnahan                                                                              01 
01060013042000086NONNEISD6 North East Independent School District                  Letti Bresnahan                                                                              01 
01060013044000019NONNEISD6 North East Independent School District                  Letti Bresnahan                                                                              01 
01060013045000051NONNEISD6 North East Independent School District                  Letti Bresnahan                                                                              01 
01060013052000051NONNEISD6 North East Independent School District                  Letti Bresnahan                                                                              01 
01060013076000033NONNEISD6 North East Independent School District                  Letti Bresnahan                                                                              01 
01060013078000038NONNEISD6 North East Independent School District                  Letti Bresnahan                                                                              01 
01060013083000025NONNEISD6 North East Independent School District                  Letti Bresnahan                                                                              01 
01060013085000016NONNEISD6 North East Independent School District                  Letti Bresnahan                                                                              01 
01060013091000004NONNEISD6 North East Independent School District                  Letti Bresnahan                                                                              01 
01060013092000122NONNEISD6 North East Independent School District                  Letti Bresnahan                                                                              01 
01060013093000067NONNEISD6 North East Independent School District                  Letti Bresnahan                                                                              01 
01060013097000000NONNEISD6 North East Independent School District                  Letti Bresnahan                                                                              01 
01060013102000030NONNEISD6 North East Independent School District                  Letti Bresnahan                                                                              01 
01060013117000014NONNEISD6 North East Independent School District                  Letti Bresnahan                                                                              01 
01060013119000000NONNEISD6 North East Independent School District                  Letti Bresnahan                                                                              01 
01060013121000039NONNEISD6 North East Independent School District                  Letti Bresnahan                                                                              01 
01060013122000016NONNEISD6 North East Independent School District                  Letti Bresnahan                                                                              01 
01060013125000021NONNEISD6 North East Independent School District                  Letti Bresnahan                                                                              01 
01060013130000000NONNEISD6 North East Independent School District                  Letti Bresnahan                                                                              01 
01060013148000008NONNEISD6 North East Independent School District                  Letti Bresnahan                                                                              01 
01060013153000018NONNEISD6 North East Independent School District                  Letti Bresnahan                                                                              01 
01060013163000036NONNEISD6 North East Independent School District                  Letti Bresnahan                                                                              01 
01060013173000050NONNEISD6 North East Independent School District                  Letti Bresnahan                                                                              01 
01060023001000049NONNEISD6 North East Independent School District                  Tom Lessner                                                                                  01 
01060023030000045NONNEISD6 North East Independent School District                  Tom Lessner                                                                                  01 
01060023033000066NONNEISD6 North East Independent School District                  Tom Lessner                                                                                  01 
01060023042000073NONNEISD6 North East Independent School District                  Tom Lessner                                                                                  01 
01060023044000020NONNEISD6 North East Independent School District                  Tom Lessner                                                                                  01 
01060023045000035NONNEISD6 North East Independent School District                  Tom Lessner                                                                                  01 
01060023052000038NONNEISD6 North East Independent School District                  Tom Lessner                                                                                  01 
01060023076000026NONNEISD6 North East Independent School District                  Tom Lessner                                                                                  01 
01060023078000039NONNEISD6 North East Independent School District                  Tom Lessner                                                                                  01 
01060023083000031NONNEISD6 North East Independent School District                  Tom Lessner                                                                                  01 
01060023085000046NONNEISD6 North East Independent School District                  Tom Lessner                                                                                  01 
01060023091000006NONNEISD6 North East Independent School District                  Tom Lessner                                                                                  01 
01060023092000148NONNEISD6 North East Independent School District                  Tom Lessner                                                                                  01 
01060023093000068NONNEISD6 North East Independent School District                  Tom Lessner                                                                                  01 
01060023097000000NONNEISD6 North East Independent School District                  Tom Lessner                                                                                  01 
01060023102000043NONNEISD6 North East Independent School District                  Tom Lessner                                                                                  01 
01060023117000018NONNEISD6 North East Independent School District                  Tom Lessner                                                                                  01 
01060023119000000NONNEISD6 North East Independent School District                  Tom Lessner                                                                                  01 
01060023121000035NONNEISD6 North East Independent School District                  Tom Lessner                                                                                  01 
01060023122000014NONNEISD6 North East Independent School District                  Tom Lessner                                                                                  01 
01060023125000037NONNEISD6 North East Independent School District                  Tom Lessner                                                                                  01 
01060023130000001NONNEISD6 North East Independent School District                  Tom Lessner                                                                                  01 
01060023148000006NONNEISD6 North East Independent School District                  Tom Lessner                                                                                  01 
01060023153000015NONNEISD6 North East Independent School District                  Tom Lessner                                                                                  01 
01060023163000028NONNEISD6 North East Independent School District                  Tom Lessner                                                                                  01 
01060023173000047NONNEISD6 North East Independent School District                  Tom Lessner                                                                                  01 
01060033001000026NONNEISD6 North East Independent School District                  Rogelio Rodriguez                                                                            01 
01060033030000053NONNEISD6 North East Independent School District                  Rogelio Rodriguez                                                                            01 
01060033033000009NONNEISD6 North East Independent School District                  Rogelio Rodriguez                                                                            01 
01060033042000083NONNEISD6 North East Independent School District                  Rogelio Rodriguez                                                                            01 
01060033044000014NONNEISD6 North East Independent School District                  Rogelio Rodriguez                                                                            01 
01060033045000027NONNEISD6 North East Independent School District                  Rogelio Rodriguez                                                                            01 
01060033052000046NONNEISD6 North East Independent School District                  Rogelio Rodriguez                                                                            01 
01060033076000027NONNEISD6 North East Independent School District                  Rogelio Rodriguez                                                                            01 
01060033078000021NONNEISD6 North East Independent School District                  Rogelio Rodriguez                                                                            01 
01060033083000019NONNEISD6 North East Independent School District                  Rogelio Rodriguez                                                                            01 
01060033085000020NONNEISD6 North East Independent School District                  Rogelio Rodriguez                                                                            01 
01060033091000000NONNEISD6 North East Independent School District                  Rogelio Rodriguez                                                                            01 
01060033092000084NONNEISD6 North East Independent School District                  Rogelio Rodriguez                                                                            01 
01060033093000036NONNEISD6 North East Independent School District                  Rogelio Rodriguez                                                                            01 
01060033097000000NONNEISD6 North East Independent School District                  Rogelio Rodriguez                                                                            01 
01060033102000031NONNEISD6 North East Independent School District                  Rogelio Rodriguez                                                                            01 
01060033117000006NONNEISD6 North East Independent School District                  Rogelio Rodriguez                                                                            01 
01060033119000000NONNEISD6 North East Independent School District                  Rogelio Rodriguez                                                                            01 
01060033121000028NONNEISD6 North East Independent School District                  Rogelio Rodriguez                                                                            01 
01060033122000015NONNEISD6 North East Independent School District                  Rogelio Rodriguez                                                                            01 
01060033125000015NONNEISD6 North East Independent School District                  Rogelio Rodriguez                                                                            01 
01060033130000003NONNEISD6 North East Independent School District                  Rogelio Rodriguez                                                                            01 
01060033148000002NONNEISD6 North East Independent School District                  Rogelio Rodriguez                                                                            01 
01060033153000010NONNEISD6 North East Independent School District                  Rogelio Rodriguez                                                                            01 
01060033163000029NONNEISD6 North East Independent School District                  Rogelio Rodriguez                                                                            01 
01060033173000016NONNEISD6 North East Independent School District                  Rogelio Rodriguez                                                                            01 
01060043001000000   NEISD6 North East Independent School District                  OVER VOTES                                                                                   01 
01060043030000000   NEISD6 North East Independent School District                  OVER VOTES                                                                                   01 
01060043033000000   NEISD6 North East Independent School District                  OVER VOTES                                                                                   01 
01060043042000000   NEISD6 North East Independent School District                  OVER VOTES                                                                                   01 
01060043044000000   NEISD6 North East Independent School District                  OVER VOTES                                                                                   01 
01060043045000000   NEISD6 North East Independent School District                  OVER VOTES                                                                                   01 
01060043052000000   NEISD6 North East Independent School District                  OVER VOTES                                                                                   01 
01060043076000000   NEISD6 North East Independent School District                  OVER VOTES                                                                                   01 
01060043078000000   NEISD6 North East Independent School District                  OVER VOTES                                                                                   01 
01060043083000000   NEISD6 North East Independent School District                  OVER VOTES                                                                                   01 
01060043085000000   NEISD6 North East Independent School District                  OVER VOTES                                                                                   01 
01060043091000000   NEISD6 North East Independent School District                  OVER VOTES                                                                                   01 
01060043092000000   NEISD6 North East Independent School District                  OVER VOTES                                                                                   01 
01060043093000000   NEISD6 North East Independent School District                  OVER VOTES                                                                                   01 
01060043097000000   NEISD6 North East Independent School District                  OVER VOTES                                                                                   01 
01060043102000000   NEISD6 North East Independent School District                  OVER VOTES                                                                                   01 
01060043117000000   NEISD6 North East Independent School District                  OVER VOTES                                                                                   01 
01060043119000000   NEISD6 North East Independent School District                  OVER VOTES                                                                                   01 
01060043121000000   NEISD6 North East Independent School District                  OVER VOTES                                                                                   01 
01060043122000000   NEISD6 North East Independent School District                  OVER VOTES                                                                                   01 
01060043125000000   NEISD6 North East Independent School District                  OVER VOTES                                                                                   01 
01060043130000000   NEISD6 North East Independent School District                  OVER VOTES                                                                                   01 
01060043148000000   NEISD6 North East Independent School District                  OVER VOTES                                                                                   01 
01060043153000000   NEISD6 North East Independent School District                  OVER VOTES                                                                                   01 
01060043163000000   NEISD6 North East Independent School District                  OVER VOTES                                                                                   01 
01060043173000000   NEISD6 North East Independent School District                  OVER VOTES                                                                                   01 
01060053001000012   NEISD6 North East Independent School District                  UNDER VOTES                                                                                  01 
01060053030000024   NEISD6 North East Independent School District                  UNDER VOTES                                                                                  01 
01060053033000013   NEISD6 North East Independent School District                  UNDER VOTES                                                                                  01 
01060053042000039   NEISD6 North East Independent School District                  UNDER VOTES                                                                                  01 
01060053044000015   NEISD6 North East Independent School District                  UNDER VOTES                                                                                  01 
01060053045000005   NEISD6 North East Independent School District                  UNDER VOTES                                                                                  01 
01060053052000019   NEISD6 North East Independent School District                  UNDER VOTES                                                                                  01 
01060053076000012   NEISD6 North East Independent School District                  UNDER VOTES                                                                                  01 
01060053078000024   NEISD6 North East Independent School District                  UNDER VOTES                                                                                  01 
01060053083000026   NEISD6 North East Independent School District                  UNDER VOTES                                                                                  01 
01060053085000021   NEISD6 North East Independent School District                  UNDER VOTES                                                                                  01 
01060053091000000   NEISD6 North East Independent School District                  UNDER VOTES                                                                                  01 
01060053092000142   NEISD6 North East Independent School District                  UNDER VOTES                                                                                  01 
01060053093000027   NEISD6 North East Independent School District                  UNDER VOTES                                                                                  01 
01060053097000000   NEISD6 North East Independent School District                  UNDER VOTES                                                                                  01 
01060053102000026   NEISD6 North East Independent School District                  UNDER VOTES                                                                                  01 
01060053117000004   NEISD6 North East Independent School District                  UNDER VOTES                                                                                  01 
01060053119000000   NEISD6 North East Independent School District                  UNDER VOTES                                                                                  01 
01060053121000024   NEISD6 North East Independent School District                  UNDER VOTES                                                                                  01 
01060053122000019   NEISD6 North East Independent School District                  UNDER VOTES                                                                                  01 
01060053125000004   NEISD6 North East Independent School District                  UNDER VOTES                                                                                  01 
01060053130000001   NEISD6 North East Independent School District                  UNDER VOTES                                                                                  01 
01060053148000001   NEISD6 North East Independent School District                  UNDER VOTES                                                                                  01 
01060053153000013   NEISD6 North East Independent School District                  UNDER VOTES                                                                                  01 
01060053163000022   NEISD6 North East Independent School District                  UNDER VOTES                                                                                  01 
01060053173000025   NEISD6 North East Independent School District                  UNDER VOTES                                                                                  01 
