01010010001000000          REGISTERED VOTERS - TOTAL                               REGISTERED VOTERS - TOTAL             PLACE 1                                                00 
01010010002000000          REGISTERED VOTERS - TOTAL                               REGISTERED VOTERS - TOTAL             PLACE 2                                                00 
01010010003000000          REGISTERED VOTERS - TOTAL                               REGISTERED VOTERS - TOTAL             PLACE 3                                                00 
01010010004000000          REGISTERED VOTERS - TOTAL                               REGISTERED VOTERS - TOTAL             PLACE 4                                                00 
01010010005000000          REGISTERED VOTERS - TOTAL                               REGISTERED VOTERS - TOTAL             PLACE 5                                                00 
01010010006000000          REGISTERED VOTERS - TOTAL                               REGISTERED VOTERS - TOTAL             PLACE 6                                                00 
01010010007000000          REGISTERED VOTERS - TOTAL                               REGISTERED VOTERS - TOTAL             PLACE 7                                                00 
01010010008000000          REGISTERED VOTERS - TOTAL                               REGISTERED VOTERS - TOTAL             PLACE  7                                               00 
01010010009000000          REGISTERED VOTERS - TOTAL                               REGISTERED VOTERS - TOTAL             DISTRICT 1                                             00 
01010010010000000          REGISTERED VOTERS - TOTAL                               REGISTERED VOTERS - TOTAL             DISTRICT 2                                             00 
01010010011000000          REGISTERED VOTERS - TOTAL                               REGISTERED VOTERS - TOTAL             DISTRICT 3                                             00 
01010010012000000          REGISTERED VOTERS - TOTAL                               REGISTERED VOTERS - TOTAL             DISTRICT 6                                             00 
01020010001000059          BALLOTS CAST - TOTAL                                    BALLOTS CAST - TOTAL                  PLACE 1                                                00 
01020010002000037          BALLOTS CAST - TOTAL                                    BALLOTS CAST - TOTAL                  PLACE 2                                                00 
01020010003000099          BALLOTS CAST - TOTAL                                    BALLOTS CAST - TOTAL                  PLACE 3                                                00 
01020010004000142          BALLOTS CAST - TOTAL                                    BALLOTS CAST - TOTAL                  PLACE 4                                                00 
01020010005000078          BALLOTS CAST - TOTAL                                    BALLOTS CAST - TOTAL                  PLACE 5                                                00 
01020010006000380          BALLOTS CAST - TOTAL                                    BALLOTS CAST - TOTAL                  PLACE 6                                                00 
01020010007000222          BALLOTS CAST - TOTAL                                    BALLOTS CAST - TOTAL                  PLACE 7                                                00 
01020010008000014          BALLOTS CAST - TOTAL                                    BALLOTS CAST - TOTAL                  PLACE  7                                               00 
01020010009000065          BALLOTS CAST - TOTAL                                    BALLOTS CAST - TOTAL                  DISTRICT 1                                             00 
01020010010000054          BALLOTS CAST - TOTAL                                    BALLOTS CAST - TOTAL                  DISTRICT 2                                             00 
01020010011000095          BALLOTS CAST - TOTAL                                    BALLOTS CAST - TOTAL                  DISTRICT 3                                             00 
01020010012000338          BALLOTS CAST - TOTAL                                    BALLOTS CAST - TOTAL                  DISTRICT 6                                             00 
01030010006000233NONPLACE06Board of Regent, Place 6                                Ginna Walker Bowman                   PLACE 6                                                01 
01030020006000138NONPLACE06Board of Regent, Place 6                                Barney Bray                           PLACE 6                                                01 
01040010001000035NONPARISCOBoard of Regent, Place 9 - At Large                     Curtis Fendley                        PLACE 1                                                01 
01040010002000022NONPARISCOBoard of Regent, Place 9 - At Large                     Curtis Fendley                        PLACE 2                                                01 
01040010003000055NONPARISCOBoard of Regent, Place 9 - At Large                     Curtis Fendley                        PLACE 3                                                01 
01040010004000070NONPARISCOBoard of Regent, Place 9 - At Large                     Curtis Fendley                        PLACE 4                                                01 
01040010005000055NONPARISCOBoard of Regent, Place 9 - At Large                     Curtis Fendley                        PLACE 5                                                01 
01040010006000239NONPARISCOBoard of Regent, Place 9 - At Large                     Curtis Fendley                        PLACE 6                                                01 
01040010007000127NONPARISCOBoard of Regent, Place 9 - At Large                     Curtis Fendley                        PLACE 7                                                01 
01040010008000006NONPARISCOBoard of Regent, Place 9 - At Large                     Curtis Fendley                        PLACE  7                                               01 
01040020001000023NONPARISCOBoard of Regent, Place 9 - At Large                     Paul Gene Roden                       PLACE 1                                                01 
01040020002000015NONPARISCOBoard of Regent, Place 9 - At Large                     Paul Gene Roden                       PLACE 2                                                01 
01040020003000044NONPARISCOBoard of Regent, Place 9 - At Large                     Paul Gene Roden                       PLACE 3                                                01 
01040020004000071NONPARISCOBoard of Regent, Place 9 - At Large                     Paul Gene Roden                       PLACE 4                                                01 
01040020005000023NONPARISCOBoard of Regent, Place 9 - At Large                     Paul Gene Roden                       PLACE 5                                                01 
01040020006000130NONPARISCOBoard of Regent, Place 9 - At Large                     Paul Gene Roden                       PLACE 6                                                01 
01040020007000095NONPARISCOBoard of Regent, Place 9 - At Large                     Paul Gene Roden                       PLACE 7                                                01 
01040020008000008NONPARISCOBoard of Regent, Place 9 - At Large                     Paul Gene Roden                       PLACE  7                                               01 
01050010009000036NONDIST001CITY COUNCIL MEMBER FOR DISTRICT 1                      Aaron Jenkins                         DISTRICT 1                                             01 
01050020009000027NONDIST001CITY COUNCIL MEMBER FOR DISTRICT 1                      Don Shelton                           DISTRICT 1                                             01 
01060010010000035NONDIST002CITY COUNCIL MEMBER FOR DISTRICT 2                      Billie S. Lancaster                   DISTRICT 2                                             01 
01060020010000017NONDIST002CITY COUNCIL MEMBER FOR DISTRICT 2                      Robert Avila                          DISTRICT 2                                             01 
01070010011000061NONDIST003CITY COUNCIL MEMBER FOR DISTRICT 3                      John Wright                           DISTRICT 3                                             01 
01070020011000034NONDIST003CITY COUNCIL MEMBER FOR DISTRICT 3                      Marvin Wroten                         DISTRICT 3                                             01 
01080010012000209NONDIST006CITY COUNCIL MEMBER FOR DISTRICT 6                      Cleonne (Holmes) Drake                DISTRICT 6                                             01 
01080020012000128NONDIST006CITY COUNCIL MEMBER FOR DISTRICT 6                      Edwin Pickle                          DISTRICT 6                                             01 
