01260013075000491NONSHAVANOCity of Shavano Park Alderman - 2 Year Term             Vicky Maisel                                                                                 03 
01260013176000000NONSHAVANOCity of Shavano Park Alderman - 2 Year Term             Vicky Maisel                                                                                 03 
01260023075000429NONSHAVANOCity of Shavano Park Alderman - 2 Year Term             Mark Kamstra                                                                                 03 
01260023176000000NONSHAVANOCity of Shavano Park Alderman - 2 Year Term             Mark Kamstra                                                                                 03 
01260033075000515NONSHAVANOCity of Shavano Park Alderman - 2 Year Term             Etta Fanning                                                                                 03 
01260033176000000NONSHAVANOCity of Shavano Park Alderman - 2 Year Term             Etta Fanning                                                                                 03 
01260043075000468NONSHAVANOCity of Shavano Park Alderman - 2 Year Term             Al Walea                                                                                     03 
01260043176000000NONSHAVANOCity of Shavano Park Alderman - 2 Year Term             Al Walea                                                                                     03 
01260053075000553NONSHAVANOCity of Shavano Park Alderman - 2 Year Term             Charlie Brame                                                                                03 
01260053176000000NONSHAVANOCity of Shavano Park Alderman - 2 Year Term             Charlie Brame                                                                                03 
01260063075000000   SHAVANOCity of Shavano Park Alderman - 2 Year Term             OVER VOTES                                                                                   03 
01260063176000000   SHAVANOCity of Shavano Park Alderman - 2 Year Term             OVER VOTES                                                                                   03 
01260073075000229   SHAVANOCity of Shavano Park Alderman - 2 Year Term             UNDER VOTES                                                                                  03 
01260073176000000   SHAVANOCity of Shavano Park Alderman - 2 Year Term             UNDER VOTES                                                                                  03 
