03500011042000251NON       SOUTH SAN ANTONIO ISD Trustee, District 2               Trinidad T. Mata                                                                             01 
03500011044000364NON       SOUTH SAN ANTONIO ISD Trustee, District 2               Trinidad T. Mata                                                                             01 
03500011045000446NON       SOUTH SAN ANTONIO ISD Trustee, District 2               Trinidad T. Mata                                                                             01 
03500021042000083NON       SOUTH SAN ANTONIO ISD Trustee, District 2               George Martin                                                                                01 
03500021044000177NON       SOUTH SAN ANTONIO ISD Trustee, District 2               George Martin                                                                                01 
03500021045000273NON       SOUTH SAN ANTONIO ISD Trustee, District 2               George Martin                                                                                01 
03500031042000002NON       SOUTH SAN ANTONIO ISD Trustee, District 2               WRITE-IN                                                                                     01 
03500031044000003NON       SOUTH SAN ANTONIO ISD Trustee, District 2               WRITE-IN                                                                                     01 
03500031045000029NON       SOUTH SAN ANTONIO ISD Trustee, District 2               WRITE-IN                                                                                     01 
03500041042000000          SOUTH SAN ANTONIO ISD Trustee, District 2               OVER VOTES                                                                                   01 
03500041044000000          SOUTH SAN ANTONIO ISD Trustee, District 2               OVER VOTES                                                                                   01 
03500041045000000          SOUTH SAN ANTONIO ISD Trustee, District 2               OVER VOTES                                                                                   01 
03500051042000033          SOUTH SAN ANTONIO ISD Trustee, District 2               UNDER VOTES                                                                                  01 
03500051044000133          SOUTH SAN ANTONIO ISD Trustee, District 2               UNDER VOTES                                                                                  01 
03500051045000179          SOUTH SAN ANTONIO ISD Trustee, District 2               UNDER VOTES                                                                                  01 
03550011042000057NON       SOUTH SAN ANTONIO ISD Trustee, District 3               Homer Flores                                                                                 01 
03550011044000101NON       SOUTH SAN ANTONIO ISD Trustee, District 3               Homer Flores                                                                                 01 
03550011046000165NON       SOUTH SAN ANTONIO ISD Trustee, District 3               Homer Flores                                                                                 01 
03550011060000138NON       SOUTH SAN ANTONIO ISD Trustee, District 3               Homer Flores                                                                                 01 
03550021042000090NON       SOUTH SAN ANTONIO ISD Trustee, District 3               Carlos Longoria                                                                              01 
03550021044000180NON       SOUTH SAN ANTONIO ISD Trustee, District 3               Carlos Longoria                                                                              01 
03550021046000252NON       SOUTH SAN ANTONIO ISD Trustee, District 3               Carlos Longoria                                                                              01 
03550021060000241NON       SOUTH SAN ANTONIO ISD Trustee, District 3               Carlos Longoria                                                                              01 
03550031042000000          SOUTH SAN ANTONIO ISD Trustee, District 3               OVER VOTES                                                                                   01 
03550031044000000          SOUTH SAN ANTONIO ISD Trustee, District 3               OVER VOTES                                                                                   01 
03550031046000000          SOUTH SAN ANTONIO ISD Trustee, District 3               OVER VOTES                                                                                   01 
03550031060000000          SOUTH SAN ANTONIO ISD Trustee, District 3               OVER VOTES                                                                                   01 
03550041042000048          SOUTH SAN ANTONIO ISD Trustee, District 3               UNDER VOTES                                                                                  01 
03550041044000080          SOUTH SAN ANTONIO ISD Trustee, District 3               UNDER VOTES                                                                                  01 
03550041046000142          SOUTH SAN ANTONIO ISD Trustee, District 3               UNDER VOTES                                                                                  01 
03550041060000092          SOUTH SAN ANTONIO ISD Trustee, District 3               UNDER VOTES                                                                                  01 
03600011026000122NON       SOUTH SAN ANTONIO ISD Trustee, District 5               Connie Prado                                                                                 01 
03600011030000002NON       SOUTH SAN ANTONIO ISD Trustee, District 5               Connie Prado                                                                                 01 
03600011037000015NON       SOUTH SAN ANTONIO ISD Trustee, District 5               Connie Prado                                                                                 01 
03600011038000003NON       SOUTH SAN ANTONIO ISD Trustee, District 5               Connie Prado                                                                                 01 
03600011039000001NON       SOUTH SAN ANTONIO ISD Trustee, District 5               Connie Prado                                                                                 01 
03600011040000453NON       SOUTH SAN ANTONIO ISD Trustee, District 5               Connie Prado                                                                                 01 
03600011041000063NON       SOUTH SAN ANTONIO ISD Trustee, District 5               Connie Prado                                                                                 01 
03600011060000001NON       SOUTH SAN ANTONIO ISD Trustee, District 5               Connie Prado                                                                                 01 
03600011103000000NON       SOUTH SAN ANTONIO ISD Trustee, District 5               Connie Prado                                                                                 01 
03600021026000097NON       SOUTH SAN ANTONIO ISD Trustee, District 5               Terry Pena                                                                                   01 
03600021030000000NON       SOUTH SAN ANTONIO ISD Trustee, District 5               Terry Pena                                                                                   01 
03600021037000014NON       SOUTH SAN ANTONIO ISD Trustee, District 5               Terry Pena                                                                                   01 
03600021038000002NON       SOUTH SAN ANTONIO ISD Trustee, District 5               Terry Pena                                                                                   01 
03600021039000000NON       SOUTH SAN ANTONIO ISD Trustee, District 5               Terry Pena                                                                                   01 
03600021040000160NON       SOUTH SAN ANTONIO ISD Trustee, District 5               Terry Pena                                                                                   01 
03600021041000011NON       SOUTH SAN ANTONIO ISD Trustee, District 5               Terry Pena                                                                                   01 
03600021060000001NON       SOUTH SAN ANTONIO ISD Trustee, District 5               Terry Pena                                                                                   01 
03600021103000000NON       SOUTH SAN ANTONIO ISD Trustee, District 5               Terry Pena                                                                                   01 
03600031026000000          SOUTH SAN ANTONIO ISD Trustee, District 5               OVER VOTES                                                                                   01 
03600031030000000          SOUTH SAN ANTONIO ISD Trustee, District 5               OVER VOTES                                                                                   01 
03600031037000000          SOUTH SAN ANTONIO ISD Trustee, District 5               OVER VOTES                                                                                   01 
03600031038000000          SOUTH SAN ANTONIO ISD Trustee, District 5               OVER VOTES                                                                                   01 
03600031039000000          SOUTH SAN ANTONIO ISD Trustee, District 5               OVER VOTES                                                                                   01 
03600031040000000          SOUTH SAN ANTONIO ISD Trustee, District 5               OVER VOTES                                                                                   01 
03600031041000000          SOUTH SAN ANTONIO ISD Trustee, District 5               OVER VOTES                                                                                   01 
03600031060000000          SOUTH SAN ANTONIO ISD Trustee, District 5               OVER VOTES                                                                                   01 
03600031103000000          SOUTH SAN ANTONIO ISD Trustee, District 5               OVER VOTES                                                                                   01 
03600041026000034          SOUTH SAN ANTONIO ISD Trustee, District 5               UNDER VOTES                                                                                  01 
03600041030000002          SOUTH SAN ANTONIO ISD Trustee, District 5               UNDER VOTES                                                                                  01 
03600041037000012          SOUTH SAN ANTONIO ISD Trustee, District 5               UNDER VOTES                                                                                  01 
03600041038000002          SOUTH SAN ANTONIO ISD Trustee, District 5               UNDER VOTES                                                                                  01 
03600041039000000          SOUTH SAN ANTONIO ISD Trustee, District 5               UNDER VOTES                                                                                  01 
03600041040000076          SOUTH SAN ANTONIO ISD Trustee, District 5               UNDER VOTES                                                                                  01 
03600041041000011          SOUTH SAN ANTONIO ISD Trustee, District 5               UNDER VOTES                                                                                  01 
03600041060000000          SOUTH SAN ANTONIO ISD Trustee, District 5               UNDER VOTES                                                                                  01 
03600041103000000          SOUTH SAN ANTONIO ISD Trustee, District 5               UNDER VOTES                                                                                  01 
03650011037000152NON       SOUTH SAN ANTONIO ISD Trustee, District 7               Joseph "JoeJo" Savage                                                                        01 
03650011038000129NON       SOUTH SAN ANTONIO ISD Trustee, District 7               Joseph "JoeJo" Savage                                                                        01 
03650011039000000NON       SOUTH SAN ANTONIO ISD Trustee, District 7               Joseph "JoeJo" Savage                                                                        01 
03650011075000065NON       SOUTH SAN ANTONIO ISD Trustee, District 7               Joseph "JoeJo" Savage                                                                        01 
03650021037000095NON       SOUTH SAN ANTONIO ISD Trustee, District 7               Stacey Estrada                                                                               01 
03650021038000159NON       SOUTH SAN ANTONIO ISD Trustee, District 7               Stacey Estrada                                                                               01 
03650021039000001NON       SOUTH SAN ANTONIO ISD Trustee, District 7               Stacey Estrada                                                                               01 
03650021075000047NON       SOUTH SAN ANTONIO ISD Trustee, District 7               Stacey Estrada                                                                               01 
03650031037000058NON       SOUTH SAN ANTONIO ISD Trustee, District 7               Karyn Tomlinson                                                                              01 
03650031038000123NON       SOUTH SAN ANTONIO ISD Trustee, District 7               Karyn Tomlinson                                                                              01 
03650031039000000NON       SOUTH SAN ANTONIO ISD Trustee, District 7               Karyn Tomlinson                                                                              01 
03650031075000031NON       SOUTH SAN ANTONIO ISD Trustee, District 7               Karyn Tomlinson                                                                              01 
03650041037000000          SOUTH SAN ANTONIO ISD Trustee, District 7               OVER VOTES                                                                                   01 
03650041038000000          SOUTH SAN ANTONIO ISD Trustee, District 7               OVER VOTES                                                                                   01 
03650041039000000          SOUTH SAN ANTONIO ISD Trustee, District 7               OVER VOTES                                                                                   01 
03650041075000000          SOUTH SAN ANTONIO ISD Trustee, District 7               OVER VOTES                                                                                   01 
03650051037000098          SOUTH SAN ANTONIO ISD Trustee, District 7               UNDER VOTES                                                                                  01 
03650051038000078          SOUTH SAN ANTONIO ISD Trustee, District 7               UNDER VOTES                                                                                  01 
03650051039000000          SOUTH SAN ANTONIO ISD Trustee, District 7               UNDER VOTES                                                                                  01 
03650051075000040          SOUTH SAN ANTONIO ISD Trustee, District 7               UNDER VOTES                                                                                  01 
