03500011042000182NON       SOUTH SAN ANTONIO ISD Trustee, District 2               Trinidad T. Mata                                                                             01 
03500011044000254NON       SOUTH SAN ANTONIO ISD Trustee, District 2               Trinidad T. Mata                                                                             01 
03500011045000297NON       SOUTH SAN ANTONIO ISD Trustee, District 2               Trinidad T. Mata                                                                             01 
03500021042000064NON       SOUTH SAN ANTONIO ISD Trustee, District 2               George Martin                                                                                01 
03500021044000126NON       SOUTH SAN ANTONIO ISD Trustee, District 2               George Martin                                                                                01 
03500021045000171NON       SOUTH SAN ANTONIO ISD Trustee, District 2               George Martin                                                                                01 
03500031042000002NON       SOUTH SAN ANTONIO ISD Trustee, District 2               WRITE-IN                                                                                     01 
03500031044000002NON       SOUTH SAN ANTONIO ISD Trustee, District 2               WRITE-IN                                                                                     01 
03500031045000012NON       SOUTH SAN ANTONIO ISD Trustee, District 2               WRITE-IN                                                                                     01 
03500041042000000          SOUTH SAN ANTONIO ISD Trustee, District 2               OVER VOTES                                                                                   01 
03500041044000000          SOUTH SAN ANTONIO ISD Trustee, District 2               OVER VOTES                                                                                   01 
03500041045000000          SOUTH SAN ANTONIO ISD Trustee, District 2               OVER VOTES                                                                                   01 
03500051042000026          SOUTH SAN ANTONIO ISD Trustee, District 2               UNDER VOTES                                                                                  01 
03500051044000086          SOUTH SAN ANTONIO ISD Trustee, District 2               UNDER VOTES                                                                                  01 
03500051045000115          SOUTH SAN ANTONIO ISD Trustee, District 2               UNDER VOTES                                                                                  01 
03550011042000045NON       SOUTH SAN ANTONIO ISD Trustee, District 3               Homer Flores                                                                                 01 
03550011044000072NON       SOUTH SAN ANTONIO ISD Trustee, District 3               Homer Flores                                                                                 01 
03550011046000120NON       SOUTH SAN ANTONIO ISD Trustee, District 3               Homer Flores                                                                                 01 
03550011060000101NON       SOUTH SAN ANTONIO ISD Trustee, District 3               Homer Flores                                                                                 01 
03550021042000062NON       SOUTH SAN ANTONIO ISD Trustee, District 3               Carlos Longoria                                                                              01 
03550021044000138NON       SOUTH SAN ANTONIO ISD Trustee, District 3               Carlos Longoria                                                                              01 
03550021046000177NON       SOUTH SAN ANTONIO ISD Trustee, District 3               Carlos Longoria                                                                              01 
03550021060000187NON       SOUTH SAN ANTONIO ISD Trustee, District 3               Carlos Longoria                                                                              01 
03550031042000000          SOUTH SAN ANTONIO ISD Trustee, District 3               OVER VOTES                                                                                   01 
03550031044000000          SOUTH SAN ANTONIO ISD Trustee, District 3               OVER VOTES                                                                                   01 
03550031046000000          SOUTH SAN ANTONIO ISD Trustee, District 3               OVER VOTES                                                                                   01 
03550031060000000          SOUTH SAN ANTONIO ISD Trustee, District 3               OVER VOTES                                                                                   01 
03550041042000041          SOUTH SAN ANTONIO ISD Trustee, District 3               UNDER VOTES                                                                                  01 
03550041044000065          SOUTH SAN ANTONIO ISD Trustee, District 3               UNDER VOTES                                                                                  01 
03550041046000113          SOUTH SAN ANTONIO ISD Trustee, District 3               UNDER VOTES                                                                                  01 
03550041060000069          SOUTH SAN ANTONIO ISD Trustee, District 3               UNDER VOTES                                                                                  01 
03600011026000071NON       SOUTH SAN ANTONIO ISD Trustee, District 5               Connie Prado                                                                                 01 
03600011030000000NON       SOUTH SAN ANTONIO ISD Trustee, District 5               Connie Prado                                                                                 01 
03600011037000009NON       SOUTH SAN ANTONIO ISD Trustee, District 5               Connie Prado                                                                                 01 
03600011038000002NON       SOUTH SAN ANTONIO ISD Trustee, District 5               Connie Prado                                                                                 01 
03600011039000001NON       SOUTH SAN ANTONIO ISD Trustee, District 5               Connie Prado                                                                                 01 
03600011040000332NON       SOUTH SAN ANTONIO ISD Trustee, District 5               Connie Prado                                                                                 01 
03600011041000054NON       SOUTH SAN ANTONIO ISD Trustee, District 5               Connie Prado                                                                                 01 
03600011060000001NON       SOUTH SAN ANTONIO ISD Trustee, District 5               Connie Prado                                                                                 01 
03600011103000000NON       SOUTH SAN ANTONIO ISD Trustee, District 5               Connie Prado                                                                                 01 
03600021026000056NON       SOUTH SAN ANTONIO ISD Trustee, District 5               Terry Pena                                                                                   01 
03600021030000000NON       SOUTH SAN ANTONIO ISD Trustee, District 5               Terry Pena                                                                                   01 
03600021037000007NON       SOUTH SAN ANTONIO ISD Trustee, District 5               Terry Pena                                                                                   01 
03600021038000000NON       SOUTH SAN ANTONIO ISD Trustee, District 5               Terry Pena                                                                                   01 
03600021039000000NON       SOUTH SAN ANTONIO ISD Trustee, District 5               Terry Pena                                                                                   01 
03600021040000105NON       SOUTH SAN ANTONIO ISD Trustee, District 5               Terry Pena                                                                                   01 
03600021041000009NON       SOUTH SAN ANTONIO ISD Trustee, District 5               Terry Pena                                                                                   01 
03600021060000001NON       SOUTH SAN ANTONIO ISD Trustee, District 5               Terry Pena                                                                                   01 
03600021103000000NON       SOUTH SAN ANTONIO ISD Trustee, District 5               Terry Pena                                                                                   01 
03600031026000000          SOUTH SAN ANTONIO ISD Trustee, District 5               OVER VOTES                                                                                   01 
03600031030000000          SOUTH SAN ANTONIO ISD Trustee, District 5               OVER VOTES                                                                                   01 
03600031037000000          SOUTH SAN ANTONIO ISD Trustee, District 5               OVER VOTES                                                                                   01 
03600031038000000          SOUTH SAN ANTONIO ISD Trustee, District 5               OVER VOTES                                                                                   01 
03600031039000000          SOUTH SAN ANTONIO ISD Trustee, District 5               OVER VOTES                                                                                   01 
03600031040000000          SOUTH SAN ANTONIO ISD Trustee, District 5               OVER VOTES                                                                                   01 
03600031041000000          SOUTH SAN ANTONIO ISD Trustee, District 5               OVER VOTES                                                                                   01 
03600031060000000          SOUTH SAN ANTONIO ISD Trustee, District 5               OVER VOTES                                                                                   01 
03600031103000000          SOUTH SAN ANTONIO ISD Trustee, District 5               OVER VOTES                                                                                   01 
03600041026000019          SOUTH SAN ANTONIO ISD Trustee, District 5               UNDER VOTES                                                                                  01 
03600041030000002          SOUTH SAN ANTONIO ISD Trustee, District 5               UNDER VOTES                                                                                  01 
03600041037000008          SOUTH SAN ANTONIO ISD Trustee, District 5               UNDER VOTES                                                                                  01 
03600041038000002          SOUTH SAN ANTONIO ISD Trustee, District 5               UNDER VOTES                                                                                  01 
03600041039000000          SOUTH SAN ANTONIO ISD Trustee, District 5               UNDER VOTES                                                                                  01 
03600041040000057          SOUTH SAN ANTONIO ISD Trustee, District 5               UNDER VOTES                                                                                  01 
03600041041000007          SOUTH SAN ANTONIO ISD Trustee, District 5               UNDER VOTES                                                                                  01 
03600041060000000          SOUTH SAN ANTONIO ISD Trustee, District 5               UNDER VOTES                                                                                  01 
03600041103000000          SOUTH SAN ANTONIO ISD Trustee, District 5               UNDER VOTES                                                                                  01 
03650011037000069NON       SOUTH SAN ANTONIO ISD Trustee, District 7               Joseph "JoeJo" Savage                                                                        01 
03650011038000094NON       SOUTH SAN ANTONIO ISD Trustee, District 7               Joseph "JoeJo" Savage                                                                        01 
03650011039000000NON       SOUTH SAN ANTONIO ISD Trustee, District 7               Joseph "JoeJo" Savage                                                                        01 
03650011075000030NON       SOUTH SAN ANTONIO ISD Trustee, District 7               Joseph "JoeJo" Savage                                                                        01 
03650021037000069NON       SOUTH SAN ANTONIO ISD Trustee, District 7               Stacey Estrada                                                                               01 
03650021038000108NON       SOUTH SAN ANTONIO ISD Trustee, District 7               Stacey Estrada                                                                               01 
03650021039000001NON       SOUTH SAN ANTONIO ISD Trustee, District 7               Stacey Estrada                                                                               01 
03650021075000026NON       SOUTH SAN ANTONIO ISD Trustee, District 7               Stacey Estrada                                                                               01 
03650031037000037NON       SOUTH SAN ANTONIO ISD Trustee, District 7               Karyn Tomlinson                                                                              01 
03650031038000095NON       SOUTH SAN ANTONIO ISD Trustee, District 7               Karyn Tomlinson                                                                              01 
03650031039000000NON       SOUTH SAN ANTONIO ISD Trustee, District 7               Karyn Tomlinson                                                                              01 
03650031075000024NON       SOUTH SAN ANTONIO ISD Trustee, District 7               Karyn Tomlinson                                                                              01 
03650041037000000          SOUTH SAN ANTONIO ISD Trustee, District 7               OVER VOTES                                                                                   01 
03650041038000000          SOUTH SAN ANTONIO ISD Trustee, District 7               OVER VOTES                                                                                   01 
03650041039000000          SOUTH SAN ANTONIO ISD Trustee, District 7               OVER VOTES                                                                                   01 
03650041075000000          SOUTH SAN ANTONIO ISD Trustee, District 7               OVER VOTES                                                                                   01 
03650051037000069          SOUTH SAN ANTONIO ISD Trustee, District 7               UNDER VOTES                                                                                  01 
03650051038000068          SOUTH SAN ANTONIO ISD Trustee, District 7               UNDER VOTES                                                                                  01 
03650051039000000          SOUTH SAN ANTONIO ISD Trustee, District 7               UNDER VOTES                                                                                  01 
03650051075000034          SOUTH SAN ANTONIO ISD Trustee, District 7               UNDER VOTES                                                                                  01 
