01010010001000000000000000000000000000000000000          REGISTERED VOTERS - TOTAL                               REGISTERED VOTERS - TOTAL             PRECINCT 1                                             00 
01010010002000000000000000000000000000000000000          REGISTERED VOTERS - TOTAL                               REGISTERED VOTERS - TOTAL             PRECINCT 1A                                            00 
01010010003000000000000000000000000000000000000          REGISTERED VOTERS - TOTAL                               REGISTERED VOTERS - TOTAL             PRECINCT 1B                                            00 
01010010004000000000000000000000000000000000000          REGISTERED VOTERS - TOTAL                               REGISTERED VOTERS - TOTAL             PRECINCT 1C                                            00 
01010010005000000000000000000000000000000000000          REGISTERED VOTERS - TOTAL                               REGISTERED VOTERS - TOTAL             PRECINCT 2                                             00 
01010010006000000000000000000000000000000000000          REGISTERED VOTERS - TOTAL                               REGISTERED VOTERS - TOTAL             PRECINCT 2A                                            00 
01010010007000000000000000000000000000000000000          REGISTERED VOTERS - TOTAL                               REGISTERED VOTERS - TOTAL             PRECINCT 2B                                            00 
01010010008000000000000000000000000000000000000          REGISTERED VOTERS - TOTAL                               REGISTERED VOTERS - TOTAL             PRECINCT 2C                                            00 
01010010009000000000000000000000000000000000000          REGISTERED VOTERS - TOTAL                               REGISTERED VOTERS - TOTAL             PRECINCT 3                                             00 
01010010010000000000000000000000000000000000000          REGISTERED VOTERS - TOTAL                               REGISTERED VOTERS - TOTAL             PRECINCT 3A                                            00 
01010010011000000000000000000000000000000000000          REGISTERED VOTERS - TOTAL                               REGISTERED VOTERS - TOTAL             PRECINCT 3B                                            00 
01010010012000000000000000000000000000000000000          REGISTERED VOTERS - TOTAL                               REGISTERED VOTERS - TOTAL             PRECINCT 3C                                            00 
01010010013000000000000000000000000000000000000          REGISTERED VOTERS - TOTAL                               REGISTERED VOTERS - TOTAL             PRECINCT 3D                                            00 
01010010014000000000000000000000000000000000000          REGISTERED VOTERS - TOTAL                               REGISTERED VOTERS - TOTAL             PRECINCT 4                                             00 
01010010015000000000000000000000000000000000000          REGISTERED VOTERS - TOTAL                               REGISTERED VOTERS - TOTAL             PRECINCT 4A                                            00 
01010010016000000000000000000000000000000000000          REGISTERED VOTERS - TOTAL                               REGISTERED VOTERS - TOTAL             PRECINCT 4B                                            00 
01010010017000000000000000000000000000000000000          REGISTERED VOTERS - TOTAL                               REGISTERED VOTERS - TOTAL             PRECINCT 4C                                            00 
01020010001000314000042000070000067000116000019          BALLOTS CAST - TOTAL                                    BALLOTS CAST - TOTAL                  PRECINCT 1                                             00 
01020010002000236000018000037000080000079000022          BALLOTS CAST - TOTAL                                    BALLOTS CAST - TOTAL                  PRECINCT 1A                                            00 
01020010003000208000024000053000047000068000016          BALLOTS CAST - TOTAL                                    BALLOTS CAST - TOTAL                  PRECINCT 1B                                            00 
01020010004000182000018000047000034000076000007          BALLOTS CAST - TOTAL                                    BALLOTS CAST - TOTAL                  PRECINCT 1C                                            00 
01020010005000269000037000075000055000079000023          BALLOTS CAST - TOTAL                                    BALLOTS CAST - TOTAL                  PRECINCT 2                                             00 
01020010006000295000046000057000075000096000021          BALLOTS CAST - TOTAL                                    BALLOTS CAST - TOTAL                  PRECINCT 2A                                            00 
01020010007000167000011000040000040000066000010          BALLOTS CAST - TOTAL                                    BALLOTS CAST - TOTAL                  PRECINCT 2B                                            00 
01020010008000224000033000068000055000055000013          BALLOTS CAST - TOTAL                                    BALLOTS CAST - TOTAL                  PRECINCT 2C                                            00 
01020010009000058000009000014000009000016000010          BALLOTS CAST - TOTAL                                    BALLOTS CAST - TOTAL                  PRECINCT 3                                             00 
01020010010000104000014000022000020000047000001          BALLOTS CAST - TOTAL                                    BALLOTS CAST - TOTAL                  PRECINCT 3A                                            00 
01020010011000225000025000050000058000085000007          BALLOTS CAST - TOTAL                                    BALLOTS CAST - TOTAL                  PRECINCT 3B                                            00 
01020010012000099000007000034000026000028000004          BALLOTS CAST - TOTAL                                    BALLOTS CAST - TOTAL                  PRECINCT 3C                                            00 
01020010013000154000021000039000028000056000010          BALLOTS CAST - TOTAL                                    BALLOTS CAST - TOTAL                  PRECINCT 3D                                            00 
01020010014000098000011000031000022000027000007          BALLOTS CAST - TOTAL                                    BALLOTS CAST - TOTAL                  PRECINCT 4                                             00 
01020010015000321000034000066000086000117000018          BALLOTS CAST - TOTAL                                    BALLOTS CAST - TOTAL                  PRECINCT 4A                                            00 
01020010016000079000010000010000026000026000007          BALLOTS CAST - TOTAL                                    BALLOTS CAST - TOTAL                  PRECINCT 4B                                            00 
01020010017000128000017000010000039000054000008          BALLOTS CAST - TOTAL                                    BALLOTS CAST - TOTAL                  PRECINCT 4C                                            00 
01030010001000314000042000070000067000116000019DEM       BALLOTS CAST - DEMOCRATIC PARTY                         BALLOTS CAST - DEMOCRATIC PARTY       PRECINCT 1                                             00 
01030010002000236000018000037000080000079000022DEM       BALLOTS CAST - DEMOCRATIC PARTY                         BALLOTS CAST - DEMOCRATIC PARTY       PRECINCT 1A                                            00 
01030010003000208000024000053000047000068000016DEM       BALLOTS CAST - DEMOCRATIC PARTY                         BALLOTS CAST - DEMOCRATIC PARTY       PRECINCT 1B                                            00 
01030010004000182000018000047000034000076000007DEM       BALLOTS CAST - DEMOCRATIC PARTY                         BALLOTS CAST - DEMOCRATIC PARTY       PRECINCT 1C                                            00 
01030010005000269000037000075000055000079000023DEM       BALLOTS CAST - DEMOCRATIC PARTY                         BALLOTS CAST - DEMOCRATIC PARTY       PRECINCT 2                                             00 
01030010006000295000046000057000075000096000021DEM       BALLOTS CAST - DEMOCRATIC PARTY                         BALLOTS CAST - DEMOCRATIC PARTY       PRECINCT 2A                                            00 
01030010007000167000011000040000040000066000010DEM       BALLOTS CAST - DEMOCRATIC PARTY                         BALLOTS CAST - DEMOCRATIC PARTY       PRECINCT 2B                                            00 
01030010008000224000033000068000055000055000013DEM       BALLOTS CAST - DEMOCRATIC PARTY                         BALLOTS CAST - DEMOCRATIC PARTY       PRECINCT 2C                                            00 
01030010009000058000009000014000009000016000010DEM       BALLOTS CAST - DEMOCRATIC PARTY                         BALLOTS CAST - DEMOCRATIC PARTY       PRECINCT 3                                             00 
01030010010000104000014000022000020000047000001DEM       BALLOTS CAST - DEMOCRATIC PARTY                         BALLOTS CAST - DEMOCRATIC PARTY       PRECINCT 3A                                            00 
01030010011000225000025000050000058000085000007DEM       BALLOTS CAST - DEMOCRATIC PARTY                         BALLOTS CAST - DEMOCRATIC PARTY       PRECINCT 3B                                            00 
01030010012000099000007000034000026000028000004DEM       BALLOTS CAST - DEMOCRATIC PARTY                         BALLOTS CAST - DEMOCRATIC PARTY       PRECINCT 3C                                            00 
01030010013000154000021000039000028000056000010DEM       BALLOTS CAST - DEMOCRATIC PARTY                         BALLOTS CAST - DEMOCRATIC PARTY       PRECINCT 3D                                            00 
01030010014000098000011000031000022000027000007DEM       BALLOTS CAST - DEMOCRATIC PARTY                         BALLOTS CAST - DEMOCRATIC PARTY       PRECINCT 4                                             00 
01030010015000321000034000066000086000117000018DEM       BALLOTS CAST - DEMOCRATIC PARTY                         BALLOTS CAST - DEMOCRATIC PARTY       PRECINCT 4A                                            00 
01030010016000079000010000010000026000026000007DEM       BALLOTS CAST - DEMOCRATIC PARTY                         BALLOTS CAST - DEMOCRATIC PARTY       PRECINCT 4B                                            00 
01030010017000128000017000010000039000054000008DEM       BALLOTS CAST - DEMOCRATIC PARTY                         BALLOTS CAST - DEMOCRATIC PARTY       PRECINCT 4C                                            00 
01040010001000002000000000002000000000000000000DEM       President                                               Martin J. O'Malley                    PRECINCT 1                                             01 
01040010002000001000000000001000000000000000000DEM       President                                               Martin J. O'Malley                    PRECINCT 1A                                            01 
01040010003000002000000000002000000000000000000DEM       President                                               Martin J. O'Malley                    PRECINCT 1B                                            01 
01040010004000002000001000001000000000000000000DEM       President                                               Martin J. O'Malley                    PRECINCT 1C                                            01 
01040010005000001000000000001000000000000000000DEM       President                                               Martin J. O'Malley                    PRECINCT 2                                             01 
01040010006000001000000000001000000000000000000DEM       President                                               Martin J. O'Malley                    PRECINCT 2A                                            01 
01040010007000001000000000001000000000000000000DEM       President                                               Martin J. O'Malley                    PRECINCT 2B                                            01 
01040010008000001000000000001000000000000000000DEM       President                                               Martin J. O'Malley                    PRECINCT 2C                                            01 
01040010009000001000000000001000000000000000000DEM       President                                               Martin J. O'Malley                    PRECINCT 3                                             01 
01040010010000001000000000001000000000000000000DEM       President                                               Martin J. O'Malley                    PRECINCT 3A                                            01 
01040010011000001000000000001000000000000000000DEM       President                                               Martin J. O'Malley                    PRECINCT 3B                                            01 
01040010012000002000000000001000001000000000000DEM       President                                               Martin J. O'Malley                    PRECINCT 3C                                            01 
01040010013000002000000000001000000000001000000DEM       President                                               Martin J. O'Malley                    PRECINCT 3D                                            01 
01040010014000003000000000001000001000001000000DEM       President                                               Martin J. O'Malley                    PRECINCT 4                                             01 
01040010015000001000000000001000000000000000000DEM       President                                               Martin J. O'Malley                    PRECINCT 4A                                            01 
01040010016000002000001000001000000000000000000DEM       President                                               Martin J. O'Malley                    PRECINCT 4B                                            01 
01040010017000002000000000001000000000001000000DEM       President                                               Martin J. O'Malley                    PRECINCT 4C                                            01 
01040020001000094000007000019000019000046000003DEM       President                                               Bernie Sanders                        PRECINCT 1                                             01 
01040020002000094000007000011000034000037000005DEM       President                                               Bernie Sanders                        PRECINCT 1A                                            01 
01040020003000085000010000021000018000031000005DEM       President                                               Bernie Sanders                        PRECINCT 1B                                            01 
01040020004000074000007000016000013000037000001DEM       President                                               Bernie Sanders                        PRECINCT 1C                                            01 
01040020005000116000010000030000025000044000007DEM       President                                               Bernie Sanders                        PRECINCT 2                                             01 
01040020006000094000018000017000023000032000004DEM       President                                               Bernie Sanders                        PRECINCT 2A                                            01 
01040020007000064000004000023000012000022000003DEM       President                                               Bernie Sanders                        PRECINCT 2B                                            01 
01040020008000074000010000019000017000021000007DEM       President                                               Bernie Sanders                        PRECINCT 2C                                            01 
01040020009000013000002000002000001000005000003DEM       President                                               Bernie Sanders                        PRECINCT 3                                             01 
01040020010000037000009000004000008000016000000DEM       President                                               Bernie Sanders                        PRECINCT 3A                                            01 
01040020011000082000009000015000025000030000003DEM       President                                               Bernie Sanders                        PRECINCT 3B                                            01 
01040020012000034000002000008000012000011000001DEM       President                                               Bernie Sanders                        PRECINCT 3C                                            01 
01040020013000057000007000013000013000017000007DEM       President                                               Bernie Sanders                        PRECINCT 3D                                            01 
01040020014000033000003000010000009000010000001DEM       President                                               Bernie Sanders                        PRECINCT 4                                             01 
01040020015000111000010000021000023000055000002DEM       President                                               Bernie Sanders                        PRECINCT 4A                                            01 
01040020016000029000002000002000013000011000001DEM       President                                               Bernie Sanders                        PRECINCT 4B                                            01 
01040020017000041000004000002000014000019000002DEM       President                                               Bernie Sanders                        PRECINCT 4C                                            01 
01040030001000002000000000001000001000000000000DEM       President                                               Willie L. Wilson                      PRECINCT 1                                             01 
01040030002000001000000000001000000000000000000DEM       President                                               Willie L. Wilson                      PRECINCT 1A                                            01 
01040030003000002000000000002000000000000000000DEM       President                                               Willie L. Wilson                      PRECINCT 1B                                            01 
01040030004000001000000000001000000000000000000DEM       President                                               Willie L. Wilson                      PRECINCT 1C                                            01 
01040030005000001000000000001000000000000000000DEM       President                                               Willie L. Wilson                      PRECINCT 2                                             01 
01040030006000001000000000001000000000000000000DEM       President                                               Willie L. Wilson                      PRECINCT 2A                                            01 
01040030007000001000000000001000000000000000000DEM       President                                               Willie L. Wilson                      PRECINCT 2B                                            01 
01040030008000001000000000001000000000000000000DEM       President                                               Willie L. Wilson                      PRECINCT 2C                                            01 
01040030009000002000000000001000000000001000000DEM       President                                               Willie L. Wilson                      PRECINCT 3                                             01 
01040030010000001000000000001000000000000000000DEM       President                                               Willie L. Wilson                      PRECINCT 3A                                            01 
01040030011000001000000000001000000000000000000DEM       President                                               Willie L. Wilson                      PRECINCT 3B                                            01 
01040030012000002000000000002000000000000000000DEM       President                                               Willie L. Wilson                      PRECINCT 3C                                            01 
01040030013000001000000000001000000000000000000DEM       President                                               Willie L. Wilson                      PRECINCT 3D                                            01 
01040030014000001000000000001000000000000000000DEM       President                                               Willie L. Wilson                      PRECINCT 4                                             01 
01040030015000001000000000001000000000000000000DEM       President                                               Willie L. Wilson                      PRECINCT 4A                                            01 
01040030016000001000000000001000000000000000000DEM       President                                               Willie L. Wilson                      PRECINCT 4B                                            01 
01040030017000001000000000001000000000000000000DEM       President                                               Willie L. Wilson                      PRECINCT 4C                                            01 
01040040001000002000001000001000000000000000000DEM       President                                               Keith Judd                            PRECINCT 1                                             01 
01040040002000003000000000001000001000001000000DEM       President                                               Keith Judd                            PRECINCT 1A                                            01 
01040040003000001000000000001000000000000000000DEM       President                                               Keith Judd                            PRECINCT 1B                                            01 
01040040004000001000000000001000000000000000000DEM       President                                               Keith Judd                            PRECINCT 1C                                            01 
01040040005000001000000000001000000000000000000DEM       President                                               Keith Judd                            PRECINCT 2                                             01 
01040040006000001000000000001000000000000000000DEM       President                                               Keith Judd                            PRECINCT 2A                                            01 
01040040007000002000001000001000000000000000000DEM       President                                               Keith Judd                            PRECINCT 2B                                            01 
01040040008000001000000000001000000000000000000DEM       President                                               Keith Judd                            PRECINCT 2C                                            01 
01040040009000001000000000001000000000000000000DEM       President                                               Keith Judd                            PRECINCT 3                                             01 
01040040010000002000001000001000000000000000000DEM       President                                               Keith Judd                            PRECINCT 3A                                            01 
01040040011000001000000000001000000000000000000DEM       President                                               Keith Judd                            PRECINCT 3B                                            01 
01040040012000001000000000001000000000000000000DEM       President                                               Keith Judd                            PRECINCT 3C                                            01 
01040040013000001000000000001000000000000000000DEM       President                                               Keith Judd                            PRECINCT 3D                                            01 
01040040014000001000000000001000000000000000000DEM       President                                               Keith Judd                            PRECINCT 4                                             01 
01040040015000003000000000001000002000000000000DEM       President                                               Keith Judd                            PRECINCT 4A                                            01 
01040040016000001000000000001000000000000000000DEM       President                                               Keith Judd                            PRECINCT 4B                                            01 
01040040017000001000000000001000000000000000000DEM       President                                               Keith Judd                            PRECINCT 4C                                            01 
01040050001000002000000000001000000000001000000DEM       President                                               Star Locke                            PRECINCT 1                                             01 
01040050002000001000000000001000000000000000000DEM       President                                               Star Locke                            PRECINCT 1A                                            01 
01040050003000001000000000001000000000000000000DEM       President                                               Star Locke                            PRECINCT 1B                                            01 
01040050004000001000000000001000000000000000000DEM       President                                               Star Locke                            PRECINCT 1C                                            01 
01040050005000001000000000001000000000000000000DEM       President                                               Star Locke                            PRECINCT 2                                             01 
01040050006000001000000000001000000000000000000DEM       President                                               Star Locke                            PRECINCT 2A                                            01 
01040050007000001000000000001000000000000000000DEM       President                                               Star Locke                            PRECINCT 2B                                            01 
01040050008000002000000000001000000000001000000DEM       President                                               Star Locke                            PRECINCT 2C                                            01 
01040050009000001000000000001000000000000000000DEM       President                                               Star Locke                            PRECINCT 3                                             01 
01040050010000001000000000001000000000000000000DEM       President                                               Star Locke                            PRECINCT 3A                                            01 
01040050011000001000000000001000000000000000000DEM       President                                               Star Locke                            PRECINCT 3B                                            01 
01040050012000001000000000001000000000000000000DEM       President                                               Star Locke                            PRECINCT 3C                                            01 
01040050013000002000001000001000000000000000000DEM       President                                               Star Locke                            PRECINCT 3D                                            01 
01040050014000001000000000001000000000000000000DEM       President                                               Star Locke                            PRECINCT 4                                             01 
01040050015000001000000000001000000000000000000DEM       President                                               Star Locke                            PRECINCT 4A                                            01 
01040050016000001000000000001000000000000000000DEM       President                                               Star Locke                            PRECINCT 4B                                            01 
01040050017000001000000000001000000000000000000DEM       President                                               Star Locke                            PRECINCT 4C                                            01 
01040060001000206000033000043000046000069000015DEM       President                                               Hillary Clinton                       PRECINCT 1                                             01 
01040060002000131000011000019000044000041000016DEM       President                                               Hillary Clinton                       PRECINCT 1A                                            01 
01040060003000114000013000023000029000037000012DEM       President                                               Hillary Clinton                       PRECINCT 1B                                            01 
01040060004000100000010000024000021000039000006DEM       President                                               Hillary Clinton                       PRECINCT 1C                                            01 
01040060005000145000027000038000030000034000016DEM       President                                               Hillary Clinton                       PRECINCT 2                                             01 
01040060006000191000026000032000052000064000017DEM       President                                               Hillary Clinton                       PRECINCT 2A                                            01 
01040060007000094000006000010000028000043000007DEM       President                                               Hillary Clinton                       PRECINCT 2B                                            01 
01040060008000141000023000042000037000033000006DEM       President                                               Hillary Clinton                       PRECINCT 2C                                            01 
01040060009000037000007000005000008000010000007DEM       President                                               Hillary Clinton                       PRECINCT 3                                             01 
01040060010000059000004000011000012000031000001DEM       President                                               Hillary Clinton                       PRECINCT 3A                                            01 
01040060011000137000016000028000033000055000005DEM       President                                               Hillary Clinton                       PRECINCT 3B                                            01 
01040060012000055000005000017000013000017000003DEM       President                                               Hillary Clinton                       PRECINCT 3C                                            01 
01040060013000089000013000019000015000038000004DEM       President                                               Hillary Clinton                       PRECINCT 3D                                            01 
01040060014000055000008000014000012000015000006DEM       President                                               Hillary Clinton                       PRECINCT 4                                             01 
01040060015000200000024000038000060000062000016DEM       President                                               Hillary Clinton                       PRECINCT 4A                                            01 
01040060016000042000007000001000013000015000006DEM       President                                               Hillary Clinton                       PRECINCT 4B                                            01 
01040060017000079000013000001000025000034000006DEM       President                                               Hillary Clinton                       PRECINCT 4C                                            01 
01040070001000002000001000001000000000000000000DEM       President                                               Calvis L. Hawes                       PRECINCT 1                                             01 
01040070002000001000000000001000000000000000000DEM       President                                               Calvis L. Hawes                       PRECINCT 1A                                            01 
01040070003000002000001000001000000000000000000DEM       President                                               Calvis L. Hawes                       PRECINCT 1B                                            01 
01040070004000001000000000001000000000000000000DEM       President                                               Calvis L. Hawes                       PRECINCT 1C                                            01 
01040070005000001000000000001000000000000000000DEM       President                                               Calvis L. Hawes                       PRECINCT 2                                             01 
01040070006000001000000000001000000000000000000DEM       President                                               Calvis L. Hawes                       PRECINCT 2A                                            01 
01040070007000001000000000001000000000000000000DEM       President                                               Calvis L. Hawes                       PRECINCT 2B                                            01 
01040070008000001000000000001000000000000000000DEM       President                                               Calvis L. Hawes                       PRECINCT 2C                                            01 
01040070009000001000000000001000000000000000000DEM       President                                               Calvis L. Hawes                       PRECINCT 3                                             01 
01040070010000001000000000001000000000000000000DEM       President                                               Calvis L. Hawes                       PRECINCT 3A                                            01 
01040070011000001000000000001000000000000000000DEM       President                                               Calvis L. Hawes                       PRECINCT 3B                                            01 
01040070012000001000000000001000000000000000000DEM       President                                               Calvis L. Hawes                       PRECINCT 3C                                            01 
01040070013000001000000000001000000000000000000DEM       President                                               Calvis L. Hawes                       PRECINCT 3D                                            01 
01040070014000001000000000001000000000000000000DEM       President                                               Calvis L. Hawes                       PRECINCT 4                                             01 
01040070015000001000000000001000000000000000000DEM       President                                               Calvis L. Hawes                       PRECINCT 4A                                            01 
01040070016000001000000000001000000000000000000DEM       President                                               Calvis L. Hawes                       PRECINCT 4B                                            01 
01040070017000001000000000001000000000000000000DEM       President                                               Calvis L. Hawes                       PRECINCT 4C                                            01 
01040080001000002000000000001000001000000000000DEM       President                                               Roque "Rocky" De La Fuente            PRECINCT 1                                             01 
01040080002000002000000000001000001000000000000DEM       President                                               Roque "Rocky" De La Fuente            PRECINCT 1A                                            01 
01040080003000001000000000001000000000000000000DEM       President                                               Roque "Rocky" De La Fuente            PRECINCT 1B                                            01 
01040080004000001000000000001000000000000000000DEM       President                                               Roque "Rocky" De La Fuente            PRECINCT 1C                                            01 
01040080005000002000000000001000000000001000000DEM       President                                               Roque "Rocky" De La Fuente            PRECINCT 2                                             01 
01040080006000001000000000001000000000000000000DEM       President                                               Roque "Rocky" De La Fuente            PRECINCT 2A                                            01 
01040080007000002000000000001000000000001000000DEM       President                                               Roque "Rocky" De La Fuente            PRECINCT 2B                                            01 
01040080008000001000000000001000000000000000000DEM       President                                               Roque "Rocky" De La Fuente            PRECINCT 2C                                            01 
01040080009000001000000000001000000000000000000DEM       President                                               Roque "Rocky" De La Fuente            PRECINCT 3                                             01 
01040080010000001000000000001000000000000000000DEM       President                                               Roque "Rocky" De La Fuente            PRECINCT 3A                                            01 
01040080011000001000000000001000000000000000000DEM       President                                               Roque "Rocky" De La Fuente            PRECINCT 3B                                            01 
01040080012000001000000000001000000000000000000DEM       President                                               Roque "Rocky" De La Fuente            PRECINCT 3C                                            01 
01040080013000001000000000001000000000000000000DEM       President                                               Roque "Rocky" De La Fuente            PRECINCT 3D                                            01 
01040080014000001000000000001000000000000000000DEM       President                                               Roque "Rocky" De La Fuente            PRECINCT 4                                             01 
01040080015000001000000000001000000000000000000DEM       President                                               Roque "Rocky" De La Fuente            PRECINCT 4A                                            01 
01040080016000001000000000001000000000000000000DEM       President                                               Roque "Rocky" De La Fuente            PRECINCT 4B                                            01 
01040080017000001000000000001000000000000000000DEM       President                                               Roque "Rocky" De La Fuente            PRECINCT 4C                                            01 
01040090001000001000000000000000000000000000001DEM       President                                               OVER VOTES                            PRECINCT 1                                             01 
01040090002000000000000000000000000000000000000DEM       President                                               OVER VOTES                            PRECINCT 1A                                            01 
01040090003000000000000000000000000000000000000DEM       President                                               OVER VOTES                            PRECINCT 1B                                            01 
01040090004000000000000000000000000000000000000DEM       President                                               OVER VOTES                            PRECINCT 1C                                            01 
01040090005000000000000000000000000000000000000DEM       President                                               OVER VOTES                            PRECINCT 2                                             01 
01040090006000000000000000000000000000000000000DEM       President                                               OVER VOTES                            PRECINCT 2A                                            01 
01040090007000000000000000000000000000000000000DEM       President                                               OVER VOTES                            PRECINCT 2B                                            01 
01040090008000000000000000000000000000000000000DEM       President                                               OVER VOTES                            PRECINCT 2C                                            01 
01040090009000000000000000000000000000000000000DEM       President                                               OVER VOTES                            PRECINCT 3                                             01 
01040090010000000000000000000000000000000000000DEM       President                                               OVER VOTES                            PRECINCT 3A                                            01 
01040090011000000000000000000000000000000000000DEM       President                                               OVER VOTES                            PRECINCT 3B                                            01 
01040090012000000000000000000000000000000000000DEM       President                                               OVER VOTES                            PRECINCT 3C                                            01 
01040090013000000000000000000000000000000000000DEM       President                                               OVER VOTES                            PRECINCT 3D                                            01 
01040090014000000000000000000000000000000000000DEM       President                                               OVER VOTES                            PRECINCT 4                                             01 
01040090015000000000000000000000000000000000000DEM       President                                               OVER VOTES                            PRECINCT 4A                                            01 
01040090016000000000000000000000000000000000000DEM       President                                               OVER VOTES                            PRECINCT 4B                                            01 
01040090017000000000000000000000000000000000000DEM       President                                               OVER VOTES                            PRECINCT 4C                                            01 
01040100001000001000000000001000000000000000000DEM       President                                               UNDER VOTES                           PRECINCT 1                                             01 
01040100002000002000000000001000000000000000001DEM       President                                               UNDER VOTES                           PRECINCT 1A                                            01 
01040100003000001000000000001000000000000000000DEM       President                                               UNDER VOTES                           PRECINCT 1B                                            01 
01040100004000001000000000001000000000000000000DEM       President                                               UNDER VOTES                           PRECINCT 1C                                            01 
01040100005000001000000000001000000000000000000DEM       President                                               UNDER VOTES                           PRECINCT 2                                             01 
01040100006000004000002000002000000000000000000DEM       President                                               UNDER VOTES                           PRECINCT 2A                                            01 
01040100007000001000000000001000000000000000000DEM       President                                               UNDER VOTES                           PRECINCT 2B                                            01 
01040100008000002000000000001000001000000000000DEM       President                                               UNDER VOTES                           PRECINCT 2C                                            01 
01040100009000001000000000001000000000000000000DEM       President                                               UNDER VOTES                           PRECINCT 3                                             01 
01040100010000001000000000001000000000000000000DEM       President                                               UNDER VOTES                           PRECINCT 3A                                            01 
01040100011000001000000000001000000000000000000DEM       President                                               UNDER VOTES                           PRECINCT 3B                                            01 
01040100012000002000000000002000000000000000000DEM       President                                               UNDER VOTES                           PRECINCT 3C                                            01 
01040100013000001000000000001000000000000000000DEM       President                                               UNDER VOTES                           PRECINCT 3D                                            01 
01040100014000002000000000001000000000001000000DEM       President                                               UNDER VOTES                           PRECINCT 4                                             01 
01040100015000002000000000001000001000000000000DEM       President                                               UNDER VOTES                           PRECINCT 4A                                            01 
01040100016000001000000000001000000000000000000DEM       President                                               UNDER VOTES                           PRECINCT 4B                                            01 
01040100017000001000000000001000000000000000000DEM       President                                               UNDER VOTES                           PRECINCT 4C                                            01 
01050010001000065000009000013000009000029000005DEM       Railroad Commissioner                                   Grady Yarbrough                       PRECINCT 1                                             01 
01050010002000058000005000010000021000020000002DEM       Railroad Commissioner                                   Grady Yarbrough                       PRECINCT 1A                                            01 
01050010003000055000009000015000012000015000004DEM       Railroad Commissioner                                   Grady Yarbrough                       PRECINCT 1B                                            01 
01050010004000042000005000007000004000024000002DEM       Railroad Commissioner                                   Grady Yarbrough                       PRECINCT 1C                                            01 
01050010005000070000010000014000022000018000006DEM       Railroad Commissioner                                   Grady Yarbrough                       PRECINCT 2                                             01 
01050010006000069000008000010000017000028000006DEM       Railroad Commissioner                                   Grady Yarbrough                       PRECINCT 2A                                            01 
01050010007000047000004000005000013000022000003DEM       Railroad Commissioner                                   Grady Yarbrough                       PRECINCT 2B                                            01 
01050010008000051000011000015000009000013000003DEM       Railroad Commissioner                                   Grady Yarbrough                       PRECINCT 2C                                            01 
01050010009000017000002000003000004000007000001DEM       Railroad Commissioner                                   Grady Yarbrough                       PRECINCT 3                                             01 
01050010010000020000001000005000002000012000000DEM       Railroad Commissioner                                   Grady Yarbrough                       PRECINCT 3A                                            01 
01050010011000064000006000015000012000028000003DEM       Railroad Commissioner                                   Grady Yarbrough                       PRECINCT 3B                                            01 
01050010012000023000002000004000005000010000002DEM       Railroad Commissioner                                   Grady Yarbrough                       PRECINCT 3C                                            01 
01050010013000045000006000012000006000019000002DEM       Railroad Commissioner                                   Grady Yarbrough                       PRECINCT 3D                                            01 
01050010014000025000002000007000008000005000003DEM       Railroad Commissioner                                   Grady Yarbrough                       PRECINCT 4                                             01 
01050010015000083000009000015000028000023000008DEM       Railroad Commissioner                                   Grady Yarbrough                       PRECINCT 4A                                            01 
01050010016000020000003000001000005000009000002DEM       Railroad Commissioner                                   Grady Yarbrough                       PRECINCT 4B                                            01 
01050010017000028000004000001000005000016000002DEM       Railroad Commissioner                                   Grady Yarbrough                       PRECINCT 4C                                            01 
01050020001000082000011000013000020000035000003DEM       Railroad Commissioner                                   Cody Garrett                          PRECINCT 1                                             01 
01050020002000078000006000011000030000025000006DEM       Railroad Commissioner                                   Cody Garrett                          PRECINCT 1A                                            01 
01050020003000058000007000013000015000021000002DEM       Railroad Commissioner                                   Cody Garrett                          PRECINCT 1B                                            01 
01050020004000052000006000008000009000028000001DEM       Railroad Commissioner                                   Cody Garrett                          PRECINCT 1C                                            01 
01050020005000074000006000017000018000026000007DEM       Railroad Commissioner                                   Cody Garrett                          PRECINCT 2                                             01 
01050020006000085000009000016000027000027000006DEM       Railroad Commissioner                                   Cody Garrett                          PRECINCT 2A                                            01 
01050020007000050000003000011000017000016000003DEM       Railroad Commissioner                                   Cody Garrett                          PRECINCT 2B                                            01 
01050020008000051000003000016000011000019000002DEM       Railroad Commissioner                                   Cody Garrett                          PRECINCT 2C                                            01 
01050020009000012000005000001000002000001000003DEM       Railroad Commissioner                                   Cody Garrett                          PRECINCT 3                                             01 
01050020010000039000005000004000008000022000000DEM       Railroad Commissioner                                   Cody Garrett                          PRECINCT 3A                                            01 
01050020011000082000008000013000028000031000002DEM       Railroad Commissioner                                   Cody Garrett                          PRECINCT 3B                                            01 
01050020012000025000001000006000010000008000000DEM       Railroad Commissioner                                   Cody Garrett                          PRECINCT 3C                                            01 
01050020013000047000009000010000009000016000003DEM       Railroad Commissioner                                   Cody Garrett                          PRECINCT 3D                                            01 
01050020014000031000003000012000007000008000001DEM       Railroad Commissioner                                   Cody Garrett                          PRECINCT 4                                             01 
01050020015000108000011000019000035000038000005DEM       Railroad Commissioner                                   Cody Garrett                          PRECINCT 4A                                            01 
01050020016000020000002000002000008000006000002DEM       Railroad Commissioner                                   Cody Garrett                          PRECINCT 4B                                            01 
01050020017000051000009000001000022000019000000DEM       Railroad Commissioner                                   Cody Garrett                          PRECINCT 4C                                            01 
01050030001000075000015000019000014000018000009DEM       Railroad Commissioner                                   Lon Burnam                            PRECINCT 1                                             01 
01050030002000037000003000004000010000016000004DEM       Railroad Commissioner                                   Lon Burnam                            PRECINCT 1A                                            01 
01050030003000031000002000008000005000007000009DEM       Railroad Commissioner                                   Lon Burnam                            PRECINCT 1B                                            01 
01050030004000030000003000014000006000007000000DEM       Railroad Commissioner                                   Lon Burnam                            PRECINCT 1C                                            01 
01050030005000052000012000018000006000010000006DEM       Railroad Commissioner                                   Lon Burnam                            PRECINCT 2                                             01 
01050030006000065000017000010000014000017000007DEM       Railroad Commissioner                                   Lon Burnam                            PRECINCT 2A                                            01 
01050030007000026000002000010000004000009000001DEM       Railroad Commissioner                                   Lon Burnam                            PRECINCT 2B                                            01 
01050030008000056000017000011000016000007000005DEM       Railroad Commissioner                                   Lon Burnam                            PRECINCT 2C                                            01 
01050030009000011000002000001000001000004000003DEM       Railroad Commissioner                                   Lon Burnam                            PRECINCT 3                                             01 
01050030010000019000007000003000004000004000001DEM       Railroad Commissioner                                   Lon Burnam                            PRECINCT 3A                                            01 
01050030011000038000008000007000008000013000002DEM       Railroad Commissioner                                   Lon Burnam                            PRECINCT 3B                                            01 
01050030012000020000003000008000002000005000002DEM       Railroad Commissioner                                   Lon Burnam                            PRECINCT 3C                                            01 
01050030013000029000004000004000004000011000006DEM       Railroad Commissioner                                   Lon Burnam                            PRECINCT 3D                                            01 
01050030014000018000005000001000005000006000001DEM       Railroad Commissioner                                   Lon Burnam                            PRECINCT 4                                             01 
01050030015000065000009000018000012000022000004DEM       Railroad Commissioner                                   Lon Burnam                            PRECINCT 4A                                            01 
01050030016000011000001000001000005000002000002DEM       Railroad Commissioner                                   Lon Burnam                            PRECINCT 4B                                            01 
01050030017000021000004000002000005000007000003DEM       Railroad Commissioner                                   Lon Burnam                            PRECINCT 4C                                            01 
01050040001000000000000000000000000000000000000DEM       Railroad Commissioner                                   OVER VOTES                            PRECINCT 1                                             01 
01050040002000000000000000000000000000000000000DEM       Railroad Commissioner                                   OVER VOTES                            PRECINCT 1A                                            01 
01050040003000000000000000000000000000000000000DEM       Railroad Commissioner                                   OVER VOTES                            PRECINCT 1B                                            01 
01050040004000000000000000000000000000000000000DEM       Railroad Commissioner                                   OVER VOTES                            PRECINCT 1C                                            01 
01050040005000000000000000000000000000000000000DEM       Railroad Commissioner                                   OVER VOTES                            PRECINCT 2                                             01 
01050040006000000000000000000000000000000000000DEM       Railroad Commissioner                                   OVER VOTES                            PRECINCT 2A                                            01 
01050040007000000000000000000000000000000000000DEM       Railroad Commissioner                                   OVER VOTES                            PRECINCT 2B                                            01 
01050040008000000000000000000000000000000000000DEM       Railroad Commissioner                                   OVER VOTES                            PRECINCT 2C                                            01 
01050040009000000000000000000000000000000000000DEM       Railroad Commissioner                                   OVER VOTES                            PRECINCT 3                                             01 
01050040010000000000000000000000000000000000000DEM       Railroad Commissioner                                   OVER VOTES                            PRECINCT 3A                                            01 
01050040011000000000000000000000000000000000000DEM       Railroad Commissioner                                   OVER VOTES                            PRECINCT 3B                                            01 
01050040012000000000000000000000000000000000000DEM       Railroad Commissioner                                   OVER VOTES                            PRECINCT 3C                                            01 
01050040013000000000000000000000000000000000000DEM       Railroad Commissioner                                   OVER VOTES                            PRECINCT 3D                                            01 
01050040014000000000000000000000000000000000000DEM       Railroad Commissioner                                   OVER VOTES                            PRECINCT 4                                             01 
01050040015000000000000000000000000000000000000DEM       Railroad Commissioner                                   OVER VOTES                            PRECINCT 4A                                            01 
01050040016000000000000000000000000000000000000DEM       Railroad Commissioner                                   OVER VOTES                            PRECINCT 4B                                            01 
01050040017000000000000000000000000000000000000DEM       Railroad Commissioner                                   OVER VOTES                            PRECINCT 4C                                            01 
01050050001000092000007000025000024000034000002DEM       Railroad Commissioner                                   UNDER VOTES                           PRECINCT 1                                             01 
01050050002000063000004000012000019000018000010DEM       Railroad Commissioner                                   UNDER VOTES                           PRECINCT 1A                                            01 
01050050003000065000006000017000015000025000002DEM       Railroad Commissioner                                   UNDER VOTES                           PRECINCT 1B                                            01 
01050050004000058000004000018000015000017000004DEM       Railroad Commissioner                                   UNDER VOTES                           PRECINCT 1C                                            01 
01050050005000073000009000026000009000025000004DEM       Railroad Commissioner                                   UNDER VOTES                           PRECINCT 2                                             01 
01050050006000076000012000021000017000024000002DEM       Railroad Commissioner                                   UNDER VOTES                           PRECINCT 2A                                            01 
01050050007000044000002000014000006000019000003DEM       Railroad Commissioner                                   UNDER VOTES                           PRECINCT 2B                                            01 
01050050008000066000002000026000019000016000003DEM       Railroad Commissioner                                   UNDER VOTES                           PRECINCT 2C                                            01 
01050050009000018000000000009000002000004000003DEM       Railroad Commissioner                                   UNDER VOTES                           PRECINCT 3                                             01 
01050050010000026000001000010000006000009000000DEM       Railroad Commissioner                                   UNDER VOTES                           PRECINCT 3A                                            01 
01050050011000042000003000015000010000013000001DEM       Railroad Commissioner                                   UNDER VOTES                           PRECINCT 3B                                            01 
01050050012000031000001000016000009000005000000DEM       Railroad Commissioner                                   UNDER VOTES                           PRECINCT 3C                                            01 
01050050013000034000002000013000009000010000000DEM       Railroad Commissioner                                   UNDER VOTES                           PRECINCT 3D                                            01 
01050050014000024000001000011000002000008000002DEM       Railroad Commissioner                                   UNDER VOTES                           PRECINCT 4                                             01 
01050050015000065000005000014000011000034000001DEM       Railroad Commissioner                                   UNDER VOTES                           PRECINCT 4A                                            01 
01050050016000028000004000006000008000009000001DEM       Railroad Commissioner                                   UNDER VOTES                           PRECINCT 4B                                            01 
01050050017000028000000000006000007000012000003DEM       Railroad Commissioner                                   UNDER VOTES                           PRECINCT 4C                                            01 
01060010001000207000033000043000040000076000015DEM       Justice, Supreme Court, Place 3                         Mike Westergren                       PRECINCT 1                                             01 
01060010002000149000011000019000049000058000012DEM       Justice, Supreme Court, Place 3                         Mike Westergren                       PRECINCT 1A                                            01 
01060010003000130000019000031000027000038000015DEM       Justice, Supreme Court, Place 3                         Mike Westergren                       PRECINCT 1B                                            01 
01060010004000114000011000026000021000050000006DEM       Justice, Supreme Court, Place 3                         Mike Westergren                       PRECINCT 1C                                            01 
01060010005000181000030000037000044000052000018DEM       Justice, Supreme Court, Place 3                         Mike Westergren                       PRECINCT 2                                             01 
01060010006000205000036000032000055000062000020DEM       Justice, Supreme Court, Place 3                         Mike Westergren                       PRECINCT 2A                                            01 
01060010007000106000006000022000031000042000005DEM       Justice, Supreme Court, Place 3                         Mike Westergren                       PRECINCT 2B                                            01 
01060010008000139000024000033000034000038000010DEM       Justice, Supreme Court, Place 3                         Mike Westergren                       PRECINCT 2C                                            01 
01060010009000030000007000004000006000007000006DEM       Justice, Supreme Court, Place 3                         Mike Westergren                       PRECINCT 3                                             01 
01060010010000064000011000008000012000032000001DEM       Justice, Supreme Court, Place 3                         Mike Westergren                       PRECINCT 3A                                            01 
01060010011000175000023000031000046000070000005DEM       Justice, Supreme Court, Place 3                         Mike Westergren                       PRECINCT 3B                                            01 
01060010012000064000006000017000017000020000004DEM       Justice, Supreme Court, Place 3                         Mike Westergren                       PRECINCT 3C                                            01 
01060010013000101000017000021000017000037000009DEM       Justice, Supreme Court, Place 3                         Mike Westergren                       PRECINCT 3D                                            01 
01060010014000062000006000017000017000017000005DEM       Justice, Supreme Court, Place 3                         Mike Westergren                       PRECINCT 4                                             01 
01060010015000229000027000047000061000080000014DEM       Justice, Supreme Court, Place 3                         Mike Westergren                       PRECINCT 4A                                            01 
01060010016000043000007000002000015000013000006DEM       Justice, Supreme Court, Place 3                         Mike Westergren                       PRECINCT 4B                                            01 
01060010017000083000014000002000026000037000004DEM       Justice, Supreme Court, Place 3                         Mike Westergren                       PRECINCT 4C                                            01 
01060020001000000000000000000000000000000000000DEM       Justice, Supreme Court, Place 3                         OVER VOTES                            PRECINCT 1                                             01 
01060020002000000000000000000000000000000000000DEM       Justice, Supreme Court, Place 3                         OVER VOTES                            PRECINCT 1A                                            01 
01060020003000000000000000000000000000000000000DEM       Justice, Supreme Court, Place 3                         OVER VOTES                            PRECINCT 1B                                            01 
01060020004000000000000000000000000000000000000DEM       Justice, Supreme Court, Place 3                         OVER VOTES                            PRECINCT 1C                                            01 
01060020005000000000000000000000000000000000000DEM       Justice, Supreme Court, Place 3                         OVER VOTES                            PRECINCT 2                                             01 
01060020006000000000000000000000000000000000000DEM       Justice, Supreme Court, Place 3                         OVER VOTES                            PRECINCT 2A                                            01 
01060020007000000000000000000000000000000000000DEM       Justice, Supreme Court, Place 3                         OVER VOTES                            PRECINCT 2B                                            01 
01060020008000000000000000000000000000000000000DEM       Justice, Supreme Court, Place 3                         OVER VOTES                            PRECINCT 2C                                            01 
01060020009000000000000000000000000000000000000DEM       Justice, Supreme Court, Place 3                         OVER VOTES                            PRECINCT 3                                             01 
01060020010000000000000000000000000000000000000DEM       Justice, Supreme Court, Place 3                         OVER VOTES                            PRECINCT 3A                                            01 
01060020011000000000000000000000000000000000000DEM       Justice, Supreme Court, Place 3                         OVER VOTES                            PRECINCT 3B                                            01 
01060020012000000000000000000000000000000000000DEM       Justice, Supreme Court, Place 3                         OVER VOTES                            PRECINCT 3C                                            01 
01060020013000000000000000000000000000000000000DEM       Justice, Supreme Court, Place 3                         OVER VOTES                            PRECINCT 3D                                            01 
01060020014000000000000000000000000000000000000DEM       Justice, Supreme Court, Place 3                         OVER VOTES                            PRECINCT 4                                             01 
01060020015000000000000000000000000000000000000DEM       Justice, Supreme Court, Place 3                         OVER VOTES                            PRECINCT 4A                                            01 
01060020016000000000000000000000000000000000000DEM       Justice, Supreme Court, Place 3                         OVER VOTES                            PRECINCT 4B                                            01 
01060020017000000000000000000000000000000000000DEM       Justice, Supreme Court, Place 3                         OVER VOTES                            PRECINCT 4C                                            01 
01060030001000107000009000027000027000040000004DEM       Justice, Supreme Court, Place 3                         UNDER VOTES                           PRECINCT 1                                             01 
01060030002000087000007000018000031000021000010DEM       Justice, Supreme Court, Place 3                         UNDER VOTES                           PRECINCT 1A                                            01 
01060030003000079000005000022000020000030000002DEM       Justice, Supreme Court, Place 3                         UNDER VOTES                           PRECINCT 1B                                            01 
01060030004000068000007000021000013000026000001DEM       Justice, Supreme Court, Place 3                         UNDER VOTES                           PRECINCT 1C                                            01 
01060030005000088000007000038000011000027000005DEM       Justice, Supreme Court, Place 3                         UNDER VOTES                           PRECINCT 2                                             01 
01060030006000090000010000025000020000034000001DEM       Justice, Supreme Court, Place 3                         UNDER VOTES                           PRECINCT 2A                                            01 
01060030007000061000005000018000009000024000005DEM       Justice, Supreme Court, Place 3                         UNDER VOTES                           PRECINCT 2B                                            01 
01060030008000085000009000035000021000017000003DEM       Justice, Supreme Court, Place 3                         UNDER VOTES                           PRECINCT 2C                                            01 
01060030009000028000002000010000003000009000004DEM       Justice, Supreme Court, Place 3                         UNDER VOTES                           PRECINCT 3                                             01 
01060030010000040000003000014000008000015000000DEM       Justice, Supreme Court, Place 3                         UNDER VOTES                           PRECINCT 3A                                            01 
01060030011000050000002000019000012000015000002DEM       Justice, Supreme Court, Place 3                         UNDER VOTES                           PRECINCT 3B                                            01 
01060030012000035000001000017000009000008000000DEM       Justice, Supreme Court, Place 3                         UNDER VOTES                           PRECINCT 3C                                            01 
01060030013000054000004000018000011000019000002DEM       Justice, Supreme Court, Place 3                         UNDER VOTES                           PRECINCT 3D                                            01 
01060030014000036000005000014000005000010000002DEM       Justice, Supreme Court, Place 3                         UNDER VOTES                           PRECINCT 4                                             01 
01060030015000092000007000019000025000037000004DEM       Justice, Supreme Court, Place 3                         UNDER VOTES                           PRECINCT 4A                                            01 
01060030016000036000003000008000011000013000001DEM       Justice, Supreme Court, Place 3                         UNDER VOTES                           PRECINCT 4B                                            01 
01060030017000045000003000008000013000017000004DEM       Justice, Supreme Court, Place 3                         UNDER VOTES                           PRECINCT 4C                                            01 
01070010001000210000031000044000044000077000014DEM       Justice, Supreme Court, Place 5                         Dori Contreras Garza                  PRECINCT 1                                             01 
01070010002000156000011000020000053000060000012DEM       Justice, Supreme Court, Place 5                         Dori Contreras Garza                  PRECINCT 1A                                            01 
01070010003000138000020000034000030000039000015DEM       Justice, Supreme Court, Place 5                         Dori Contreras Garza                  PRECINCT 1B                                            01 
01070010004000121000011000028000022000054000006DEM       Justice, Supreme Court, Place 5                         Dori Contreras Garza                  PRECINCT 1C                                            01 
01070010005000183000030000038000045000054000016DEM       Justice, Supreme Court, Place 5                         Dori Contreras Garza                  PRECINCT 2                                             01 
01070010006000211000032000034000055000070000020DEM       Justice, Supreme Court, Place 5                         Dori Contreras Garza                  PRECINCT 2A                                            01 
01070010007000103000006000021000028000043000005DEM       Justice, Supreme Court, Place 5                         Dori Contreras Garza                  PRECINCT 2B                                            01 
01070010008000143000022000036000034000041000010DEM       Justice, Supreme Court, Place 5                         Dori Contreras Garza                  PRECINCT 2C                                            01 
01070010009000029000007000004000006000006000006DEM       Justice, Supreme Court, Place 5                         Dori Contreras Garza                  PRECINCT 3                                             01 
01070010010000070000011000008000015000035000001DEM       Justice, Supreme Court, Place 5                         Dori Contreras Garza                  PRECINCT 3A                                            01 
01070010011000179000024000030000048000072000005DEM       Justice, Supreme Court, Place 5                         Dori Contreras Garza                  PRECINCT 3B                                            01 
01070010012000064000006000018000017000019000004DEM       Justice, Supreme Court, Place 5                         Dori Contreras Garza                  PRECINCT 3C                                            01 
01070010013000105000017000021000017000040000010DEM       Justice, Supreme Court, Place 5                         Dori Contreras Garza                  PRECINCT 3D                                            01 
01070010014000065000007000016000019000018000005DEM       Justice, Supreme Court, Place 5                         Dori Contreras Garza                  PRECINCT 4                                             01 
01070010015000236000026000045000065000085000015DEM       Justice, Supreme Court, Place 5                         Dori Contreras Garza                  PRECINCT 4A                                            01 
01070010016000044000007000002000015000014000006DEM       Justice, Supreme Court, Place 5                         Dori Contreras Garza                  PRECINCT 4B                                            01 
01070010017000086000013000002000027000040000004DEM       Justice, Supreme Court, Place 5                         Dori Contreras Garza                  PRECINCT 4C                                            01 
01070020001000000000000000000000000000000000000DEM       Justice, Supreme Court, Place 5                         OVER VOTES                            PRECINCT 1                                             01 
01070020002000000000000000000000000000000000000DEM       Justice, Supreme Court, Place 5                         OVER VOTES                            PRECINCT 1A                                            01 
01070020003000000000000000000000000000000000000DEM       Justice, Supreme Court, Place 5                         OVER VOTES                            PRECINCT 1B                                            01 
01070020004000000000000000000000000000000000000DEM       Justice, Supreme Court, Place 5                         OVER VOTES                            PRECINCT 1C                                            01 
01070020005000000000000000000000000000000000000DEM       Justice, Supreme Court, Place 5                         OVER VOTES                            PRECINCT 2                                             01 
01070020006000000000000000000000000000000000000DEM       Justice, Supreme Court, Place 5                         OVER VOTES                            PRECINCT 2A                                            01 
01070020007000000000000000000000000000000000000DEM       Justice, Supreme Court, Place 5                         OVER VOTES                            PRECINCT 2B                                            01 
01070020008000000000000000000000000000000000000DEM       Justice, Supreme Court, Place 5                         OVER VOTES                            PRECINCT 2C                                            01 
01070020009000000000000000000000000000000000000DEM       Justice, Supreme Court, Place 5                         OVER VOTES                            PRECINCT 3                                             01 
01070020010000000000000000000000000000000000000DEM       Justice, Supreme Court, Place 5                         OVER VOTES                            PRECINCT 3A                                            01 
01070020011000000000000000000000000000000000000DEM       Justice, Supreme Court, Place 5                         OVER VOTES                            PRECINCT 3B                                            01 
01070020012000000000000000000000000000000000000DEM       Justice, Supreme Court, Place 5                         OVER VOTES                            PRECINCT 3C                                            01 
01070020013000000000000000000000000000000000000DEM       Justice, Supreme Court, Place 5                         OVER VOTES                            PRECINCT 3D                                            01 
01070020014000000000000000000000000000000000000DEM       Justice, Supreme Court, Place 5                         OVER VOTES                            PRECINCT 4                                             01 
01070020015000000000000000000000000000000000000DEM       Justice, Supreme Court, Place 5                         OVER VOTES                            PRECINCT 4A                                            01 
01070020016000000000000000000000000000000000000DEM       Justice, Supreme Court, Place 5                         OVER VOTES                            PRECINCT 4B                                            01 
01070020017000000000000000000000000000000000000DEM       Justice, Supreme Court, Place 5                         OVER VOTES                            PRECINCT 4C                                            01 
01070030001000104000011000026000023000039000005DEM       Justice, Supreme Court, Place 5                         UNDER VOTES                           PRECINCT 1                                             01 
01070030002000080000007000017000027000019000010DEM       Justice, Supreme Court, Place 5                         UNDER VOTES                           PRECINCT 1A                                            01 
01070030003000071000004000019000017000029000002DEM       Justice, Supreme Court, Place 5                         UNDER VOTES                           PRECINCT 1B                                            01 
01070030004000061000007000019000012000022000001DEM       Justice, Supreme Court, Place 5                         UNDER VOTES                           PRECINCT 1C                                            01 
01070030005000086000007000037000010000025000007DEM       Justice, Supreme Court, Place 5                         UNDER VOTES                           PRECINCT 2                                             01 
01070030006000084000014000023000020000026000001DEM       Justice, Supreme Court, Place 5                         UNDER VOTES                           PRECINCT 2A                                            01 
01070030007000064000005000019000012000023000005DEM       Justice, Supreme Court, Place 5                         UNDER VOTES                           PRECINCT 2B                                            01 
01070030008000081000011000032000021000014000003DEM       Justice, Supreme Court, Place 5                         UNDER VOTES                           PRECINCT 2C                                            01 
01070030009000029000002000010000003000010000004DEM       Justice, Supreme Court, Place 5                         UNDER VOTES                           PRECINCT 3                                             01 
01070030010000034000003000014000005000012000000DEM       Justice, Supreme Court, Place 5                         UNDER VOTES                           PRECINCT 3A                                            01 
01070030011000046000001000020000010000013000002DEM       Justice, Supreme Court, Place 5                         UNDER VOTES                           PRECINCT 3B                                            01 
01070030012000035000001000016000009000009000000DEM       Justice, Supreme Court, Place 5                         UNDER VOTES                           PRECINCT 3C                                            01 
01070030013000050000004000018000011000016000001DEM       Justice, Supreme Court, Place 5                         UNDER VOTES                           PRECINCT 3D                                            01 
01070030014000033000004000015000003000009000002DEM       Justice, Supreme Court, Place 5                         UNDER VOTES                           PRECINCT 4                                             01 
01070030015000085000008000021000021000032000003DEM       Justice, Supreme Court, Place 5                         UNDER VOTES                           PRECINCT 4A                                            01 
01070030016000035000003000008000011000012000001DEM       Justice, Supreme Court, Place 5                         UNDER VOTES                           PRECINCT 4B                                            01 
01070030017000042000004000008000012000014000004DEM       Justice, Supreme Court, Place 5                         UNDER VOTES                           PRECINCT 4C                                            01 
01080010001000208000032000044000041000077000014DEM       Justice, Supreme Court, Place 9                         Savannah Robinson                     PRECINCT 1                                             01 
01080010002000153000012000020000051000058000012DEM       Justice, Supreme Court, Place 9                         Savannah Robinson                     PRECINCT 1A                                            01 
01080010003000135000018000033000028000041000015DEM       Justice, Supreme Court, Place 9                         Savannah Robinson                     PRECINCT 1B                                            01 
01080010004000117000010000027000021000053000006DEM       Justice, Supreme Court, Place 9                         Savannah Robinson                     PRECINCT 1C                                            01 
01080010005000179000030000036000044000052000017DEM       Justice, Supreme Court, Place 9                         Savannah Robinson                     PRECINCT 2                                             01 
01080010006000208000033000032000055000068000020DEM       Justice, Supreme Court, Place 9                         Savannah Robinson                     PRECINCT 2A                                            01 
01080010007000103000007000021000029000041000005DEM       Justice, Supreme Court, Place 9                         Savannah Robinson                     PRECINCT 2B                                            01 
01080010008000132000022000032000032000036000010DEM       Justice, Supreme Court, Place 9                         Savannah Robinson                     PRECINCT 2C                                            01 
01080010009000030000007000004000006000006000007DEM       Justice, Supreme Court, Place 9                         Savannah Robinson                     PRECINCT 3                                             01 
01080010010000064000010000008000013000032000001DEM       Justice, Supreme Court, Place 9                         Savannah Robinson                     PRECINCT 3A                                            01 
01080010011000177000024000031000046000070000006DEM       Justice, Supreme Court, Place 9                         Savannah Robinson                     PRECINCT 3B                                            01 
01080010012000066000006000017000018000021000004DEM       Justice, Supreme Court, Place 9                         Savannah Robinson                     PRECINCT 3C                                            01 
01080010013000106000019000021000016000040000010DEM       Justice, Supreme Court, Place 9                         Savannah Robinson                     PRECINCT 3D                                            01 
01080010014000063000007000018000017000016000005DEM       Justice, Supreme Court, Place 9                         Savannah Robinson                     PRECINCT 4                                             01 
01080010015000229000025000046000062000082000014DEM       Justice, Supreme Court, Place 9                         Savannah Robinson                     PRECINCT 4A                                            01 
01080010016000042000007000002000015000012000006DEM       Justice, Supreme Court, Place 9                         Savannah Robinson                     PRECINCT 4B                                            01 
01080010017000087000015000002000028000037000005DEM       Justice, Supreme Court, Place 9                         Savannah Robinson                     PRECINCT 4C                                            01 
01080020001000000000000000000000000000000000000DEM       Justice, Supreme Court, Place 9                         OVER VOTES                            PRECINCT 1                                             01 
01080020002000000000000000000000000000000000000DEM       Justice, Supreme Court, Place 9                         OVER VOTES                            PRECINCT 1A                                            01 
01080020003000000000000000000000000000000000000DEM       Justice, Supreme Court, Place 9                         OVER VOTES                            PRECINCT 1B                                            01 
01080020004000000000000000000000000000000000000DEM       Justice, Supreme Court, Place 9                         OVER VOTES                            PRECINCT 1C                                            01 
01080020005000000000000000000000000000000000000DEM       Justice, Supreme Court, Place 9                         OVER VOTES                            PRECINCT 2                                             01 
01080020006000000000000000000000000000000000000DEM       Justice, Supreme Court, Place 9                         OVER VOTES                            PRECINCT 2A                                            01 
01080020007000000000000000000000000000000000000DEM       Justice, Supreme Court, Place 9                         OVER VOTES                            PRECINCT 2B                                            01 
01080020008000000000000000000000000000000000000DEM       Justice, Supreme Court, Place 9                         OVER VOTES                            PRECINCT 2C                                            01 
01080020009000000000000000000000000000000000000DEM       Justice, Supreme Court, Place 9                         OVER VOTES                            PRECINCT 3                                             01 
01080020010000000000000000000000000000000000000DEM       Justice, Supreme Court, Place 9                         OVER VOTES                            PRECINCT 3A                                            01 
01080020011000000000000000000000000000000000000DEM       Justice, Supreme Court, Place 9                         OVER VOTES                            PRECINCT 3B                                            01 
01080020012000000000000000000000000000000000000DEM       Justice, Supreme Court, Place 9                         OVER VOTES                            PRECINCT 3C                                            01 
01080020013000000000000000000000000000000000000DEM       Justice, Supreme Court, Place 9                         OVER VOTES                            PRECINCT 3D                                            01 
01080020014000000000000000000000000000000000000DEM       Justice, Supreme Court, Place 9                         OVER VOTES                            PRECINCT 4                                             01 
01080020015000000000000000000000000000000000000DEM       Justice, Supreme Court, Place 9                         OVER VOTES                            PRECINCT 4A                                            01 
01080020016000000000000000000000000000000000000DEM       Justice, Supreme Court, Place 9                         OVER VOTES                            PRECINCT 4B                                            01 
01080020017000000000000000000000000000000000000DEM       Justice, Supreme Court, Place 9                         OVER VOTES                            PRECINCT 4C                                            01 
01080030001000106000010000026000026000039000005DEM       Justice, Supreme Court, Place 9                         UNDER VOTES                           PRECINCT 1                                             01 
01080030002000083000006000017000029000021000010DEM       Justice, Supreme Court, Place 9                         UNDER VOTES                           PRECINCT 1A                                            01 
01080030003000074000006000020000019000027000002DEM       Justice, Supreme Court, Place 9                         UNDER VOTES                           PRECINCT 1B                                            01 
01080030004000065000008000020000013000023000001DEM       Justice, Supreme Court, Place 9                         UNDER VOTES                           PRECINCT 1C                                            01 
01080030005000090000007000039000011000027000006DEM       Justice, Supreme Court, Place 9                         UNDER VOTES                           PRECINCT 2                                             01 
01080030006000087000013000025000020000028000001DEM       Justice, Supreme Court, Place 9                         UNDER VOTES                           PRECINCT 2A                                            01 
01080030007000064000004000019000011000025000005DEM       Justice, Supreme Court, Place 9                         UNDER VOTES                           PRECINCT 2B                                            01 
01080030008000092000011000036000023000019000003DEM       Justice, Supreme Court, Place 9                         UNDER VOTES                           PRECINCT 2C                                            01 
01080030009000028000002000010000003000010000003DEM       Justice, Supreme Court, Place 9                         UNDER VOTES                           PRECINCT 3                                             01 
01080030010000040000004000014000007000015000000DEM       Justice, Supreme Court, Place 9                         UNDER VOTES                           PRECINCT 3A                                            01 
01080030011000049000001000019000012000015000002DEM       Justice, Supreme Court, Place 9                         UNDER VOTES                           PRECINCT 3B                                            01 
01080030012000033000001000017000008000007000000DEM       Justice, Supreme Court, Place 9                         UNDER VOTES                           PRECINCT 3C                                            01 
01080030013000049000002000018000012000016000001DEM       Justice, Supreme Court, Place 9                         UNDER VOTES                           PRECINCT 3D                                            01 
01080030014000035000004000013000005000011000002DEM       Justice, Supreme Court, Place 9                         UNDER VOTES                           PRECINCT 4                                             01 
01080030015000092000009000020000024000035000004DEM       Justice, Supreme Court, Place 9                         UNDER VOTES                           PRECINCT 4A                                            01 
01080030016000037000003000008000011000014000001DEM       Justice, Supreme Court, Place 9                         UNDER VOTES                           PRECINCT 4B                                            01 
01080030017000041000002000008000011000017000003DEM       Justice, Supreme Court, Place 9                         UNDER VOTES                           PRECINCT 4C                                            01 
01090010001000202000032000043000040000074000013DEM       Judge, Ct of Crim Appeals, Pl 2                         Lawrence "Larry" Meyers               PRECINCT 1                                             01 
01090010002000151000012000020000051000057000011DEM       Judge, Ct of Crim Appeals, Pl 2                         Lawrence "Larry" Meyers               PRECINCT 1A                                            01 
01090010003000130000018000031000028000038000015DEM       Judge, Ct of Crim Appeals, Pl 2                         Lawrence "Larry" Meyers               PRECINCT 1B                                            01 
01090010004000114000010000026000021000051000006DEM       Judge, Ct of Crim Appeals, Pl 2                         Lawrence "Larry" Meyers               PRECINCT 1C                                            01 
01090010005000176000027000036000043000052000018DEM       Judge, Ct of Crim Appeals, Pl 2                         Lawrence "Larry" Meyers               PRECINCT 2                                             01 
01090010006000203000032000031000058000062000020DEM       Judge, Ct of Crim Appeals, Pl 2                         Lawrence "Larry" Meyers               PRECINCT 2A                                            01 
01090010007000102000006000021000030000040000005DEM       Judge, Ct of Crim Appeals, Pl 2                         Lawrence "Larry" Meyers               PRECINCT 2B                                            01 
01090010008000129000021000030000031000038000009DEM       Judge, Ct of Crim Appeals, Pl 2                         Lawrence "Larry" Meyers               PRECINCT 2C                                            01 
01090010009000032000007000004000006000008000007DEM       Judge, Ct of Crim Appeals, Pl 2                         Lawrence "Larry" Meyers               PRECINCT 3                                             01 
01090010010000063000010000007000012000033000001DEM       Judge, Ct of Crim Appeals, Pl 2                         Lawrence "Larry" Meyers               PRECINCT 3A                                            01 
01090010011000173000023000029000047000068000006DEM       Judge, Ct of Crim Appeals, Pl 2                         Lawrence "Larry" Meyers               PRECINCT 3B                                            01 
01090010012000062000005000016000018000019000004DEM       Judge, Ct of Crim Appeals, Pl 2                         Lawrence "Larry" Meyers               PRECINCT 3C                                            01 
01090010013000099000016000021000016000037000009DEM       Judge, Ct of Crim Appeals, Pl 2                         Lawrence "Larry" Meyers               PRECINCT 3D                                            01 
01090010014000062000008000018000017000015000004DEM       Judge, Ct of Crim Appeals, Pl 2                         Lawrence "Larry" Meyers               PRECINCT 4                                             01 
