01010010001000177          REGISTERED VOTERS - TOTAL                               REGISTERED VOTERS - TOTAL             PRECINCT 1                                             00 
01010010003000267          REGISTERED VOTERS - TOTAL                               REGISTERED VOTERS - TOTAL             PRECINCT 2                                             00 
01010010004000256          REGISTERED VOTERS - TOTAL                               REGISTERED VOTERS - TOTAL             PRECINCT 3                                             00 
01010010005000298          REGISTERED VOTERS - TOTAL                               REGISTERED VOTERS - TOTAL             PRECINCT 4                                             00 
01010010006000097          REGISTERED VOTERS - TOTAL                               REGISTERED VOTERS - TOTAL             PRECINCT 6                                             00 
01020010001000113          BALLOTS CAST - TOTAL                                    BALLOTS CAST - TOTAL                  PRECINCT 1                                             00 
01020010003000171          BALLOTS CAST - TOTAL                                    BALLOTS CAST - TOTAL                  PRECINCT 2                                             00 
01020010004000173          BALLOTS CAST - TOTAL                                    BALLOTS CAST - TOTAL                  PRECINCT 3                                             00 
01020010005000236          BALLOTS CAST - TOTAL                                    BALLOTS CAST - TOTAL                  PRECINCT 4                                             00 
01020010006000051          BALLOTS CAST - TOTAL                                    BALLOTS CAST - TOTAL                  PRECINCT 6                                             00 
01030010001000050REP       STRAIGHT PARTY                                          REPUBLICAN PARTY                      PRECINCT 1                                             01 
01030010003000089REP       STRAIGHT PARTY                                          REPUBLICAN PARTY                      PRECINCT 2                                             01 
01030010004000079REP       STRAIGHT PARTY                                          REPUBLICAN PARTY                      PRECINCT 3                                             01 
01030010005000115REP       STRAIGHT PARTY                                          REPUBLICAN PARTY                      PRECINCT 4                                             01 
01030010006000022REP       STRAIGHT PARTY                                          REPUBLICAN PARTY                      PRECINCT 6                                             01 
01030020001000016DEM       STRAIGHT PARTY                                          DEMOCRATIC PARTY                      PRECINCT 1                                             01 
01030020003000011DEM       STRAIGHT PARTY                                          DEMOCRATIC PARTY                      PRECINCT 2                                             01 
01030020004000010DEM       STRAIGHT PARTY                                          DEMOCRATIC PARTY                      PRECINCT 3                                             01 
01030020005000019DEM       STRAIGHT PARTY                                          DEMOCRATIC PARTY                      PRECINCT 4                                             01 
01030020006000003DEM       STRAIGHT PARTY                                          DEMOCRATIC PARTY                      PRECINCT 6                                             01 
01030030001000002LIB       STRAIGHT PARTY                                          LIBERTARIAN PARTY                     PRECINCT 1                                             01 
01030030003000000LIB       STRAIGHT PARTY                                          LIBERTARIAN PARTY                     PRECINCT 2                                             01 
01030030004000001LIB       STRAIGHT PARTY                                          LIBERTARIAN PARTY                     PRECINCT 3                                             01 
01030030005000002LIB       STRAIGHT PARTY                                          LIBERTARIAN PARTY                     PRECINCT 4                                             01 
01030030006000000LIB       STRAIGHT PARTY                                          LIBERTARIAN PARTY                     PRECINCT 6                                             01 
01030040001000000GRN       STRAIGHT PARTY                                          GREEN PARTY                           PRECINCT 1                                             01 
01030040003000000GRN       STRAIGHT PARTY                                          GREEN PARTY                           PRECINCT 2                                             01 
01030040004000000GRN       STRAIGHT PARTY                                          GREEN PARTY                           PRECINCT 3                                             01 
01030040005000000GRN       STRAIGHT PARTY                                          GREEN PARTY                           PRECINCT 4                                             01 
01030040006000000GRN       STRAIGHT PARTY                                          GREEN PARTY                           PRECINCT 6                                             01 
01030050001000000          STRAIGHT PARTY                                          OVER VOTES                            PRECINCT 1                                             01 
01030050003000000          STRAIGHT PARTY                                          OVER VOTES                            PRECINCT 2                                             01 
01030050004000000          STRAIGHT PARTY                                          OVER VOTES                            PRECINCT 3                                             01 
01030050005000000          STRAIGHT PARTY                                          OVER VOTES                            PRECINCT 4                                             01 
01030050006000000          STRAIGHT PARTY                                          OVER VOTES                            PRECINCT 6                                             01 
01030060001000042          STRAIGHT PARTY                                          UNDER VOTES                           PRECINCT 1                                             01 
01030060003000067          STRAIGHT PARTY                                          UNDER VOTES                           PRECINCT 2                                             01 
01030060004000076          STRAIGHT PARTY                                          UNDER VOTES                           PRECINCT 3                                             01 
01030060005000090          STRAIGHT PARTY                                          UNDER VOTES                           PRECINCT 4                                             01 
01030060006000026          STRAIGHT PARTY                                          UNDER VOTES                           PRECINCT 6                                             01 
01040010001000091REP       President and Vice President                            Donald J. Trump / Mike Pence          PRECINCT 1                                             01 
01040010003000149REP       President and Vice President                            Donald J. Trump / Mike Pence          PRECINCT 2                                             01 
01040010004000143REP       President and Vice President                            Donald J. Trump / Mike Pence          PRECINCT 3                                             01 
01040010005000202REP       President and Vice President                            Donald J. Trump / Mike Pence          PRECINCT 4                                             01 
01040010006000040REP       President and Vice President                            Donald J. Trump / Mike Pence          PRECINCT 6                                             01 
01040020001000017DEM       President and Vice President                            Hillary Clinton / Tim Kaine           PRECINCT 1                                             01 
01040020003000016DEM       President and Vice President                            Hillary Clinton / Tim Kaine           PRECINCT 2                                             01 
01040020004000021DEM       President and Vice President                            Hillary Clinton / Tim Kaine           PRECINCT 3                                             01 
01040020005000028DEM       President and Vice President                            Hillary Clinton / Tim Kaine           PRECINCT 4                                             01 
01040020006000009DEM       President and Vice President                            Hillary Clinton / Tim Kaine           PRECINCT 6                                             01 
01040030001000001LIB       President and Vice President                            Gary Johnson / William Weld           PRECINCT 1                                             01 
01040030003000001LIB       President and Vice President                            Gary Johnson / William Weld           PRECINCT 2                                             01 
01040030004000006LIB       President and Vice President                            Gary Johnson / William Weld           PRECINCT 3                                             01 
01040030005000005LIB       President and Vice President                            Gary Johnson / William Weld           PRECINCT 4                                             01 
01040030006000001LIB       President and Vice President                            Gary Johnson / William Weld           PRECINCT 6                                             01 
01040040001000000GRN       President and Vice President                            Jill Stein / Ajamu Baraka             PRECINCT 1                                             01 
01040040003000001GRN       President and Vice President                            Jill Stein / Ajamu Baraka             PRECINCT 2                                             01 
01040040004000001GRN       President and Vice President                            Jill Stein / Ajamu Baraka             PRECINCT 3                                             01 
01040040005000001GRN       President and Vice President                            Jill Stein / Ajamu Baraka             PRECINCT 4                                             01 
01040040006000001GRN       President and Vice President                            Jill Stein / Ajamu Baraka             PRECINCT 6                                             01 
01040050001000002NON       President and Vice President                            WRITE-IN                              PRECINCT 1                                             01 
01040050003000002NON       President and Vice President                            WRITE-IN                              PRECINCT 2                                             01 
01040050004000000NON       President and Vice President                            WRITE-IN                              PRECINCT 3                                             01 
01040050005000000NON       President and Vice President                            WRITE-IN                              PRECINCT 4                                             01 
01040050006000000NON       President and Vice President                            WRITE-IN                              PRECINCT 6                                             01 
01040060001000000          President and Vice President                            OVER VOTES                            PRECINCT 1                                             01 
01040060003000000          President and Vice President                            OVER VOTES                            PRECINCT 2                                             01 
01040060004000000          President and Vice President                            OVER VOTES                            PRECINCT 3                                             01 
01040060005000000          President and Vice President                            OVER VOTES                            PRECINCT 4                                             01 
01040060006000000          President and Vice President                            OVER VOTES                            PRECINCT 6                                             01 
01040070001000002          President and Vice President                            UNDER VOTES                           PRECINCT 1                                             01 
01040070003000002          President and Vice President                            UNDER VOTES                           PRECINCT 2                                             01 
01040070004000002          President and Vice President                            UNDER VOTES                           PRECINCT 3                                             01 
01040070005000000          President and Vice President                            UNDER VOTES                           PRECINCT 4                                             01 
01040070006000000          President and Vice President                            UNDER VOTES                           PRECINCT 6                                             01 
01050010001000088REP       United States Representative, Dist 13                   Mac Thornberry                        PRECINCT 1                                             01 
01050010003000151REP       United States Representative, Dist 13                   Mac Thornberry                        PRECINCT 2                                             01 
01050010004000147REP       United States Representative, Dist 13                   Mac Thornberry                        PRECINCT 3                                             01 
01050010005000201REP       United States Representative, Dist 13                   Mac Thornberry                        PRECINCT 4                                             01 
01050010006000045REP       United States Representative, Dist 13                   Mac Thornberry                        PRECINCT 6                                             01 
01050020001000004LIB       United States Representative, Dist 13                   Calvin DeWeese                        PRECINCT 1                                             01 
01050020003000005LIB       United States Representative, Dist 13                   Calvin DeWeese                        PRECINCT 2                                             01 
01050020004000009LIB       United States Representative, Dist 13                   Calvin DeWeese                        PRECINCT 3                                             01 
01050020005000009LIB       United States Representative, Dist 13                   Calvin DeWeese                        PRECINCT 4                                             01 
01050020006000002LIB       United States Representative, Dist 13                   Calvin DeWeese                        PRECINCT 6                                             01 
01050030001000002GRN       United States Representative, Dist 13                   H.F. "Rusty" Tomlinson                PRECINCT 1                                             01 
01050030003000002GRN       United States Representative, Dist 13                   H.F. "Rusty" Tomlinson                PRECINCT 2                                             01 
01050030004000003GRN       United States Representative, Dist 13                   H.F. "Rusty" Tomlinson                PRECINCT 3                                             01 
01050030005000006GRN       United States Representative, Dist 13                   H.F. "Rusty" Tomlinson                PRECINCT 4                                             01 
01050030006000003GRN       United States Representative, Dist 13                   H.F. "Rusty" Tomlinson                PRECINCT 6                                             01 
01050040001000000          United States Representative, Dist 13                   OVER VOTES                            PRECINCT 1                                             01 
01050040003000000          United States Representative, Dist 13                   OVER VOTES                            PRECINCT 2                                             01 
01050040004000000          United States Representative, Dist 13                   OVER VOTES                            PRECINCT 3                                             01 
01050040005000000          United States Representative, Dist 13                   OVER VOTES                            PRECINCT 4                                             01 
01050040006000000          United States Representative, Dist 13                   OVER VOTES                            PRECINCT 6                                             01 
01050050001000018          United States Representative, Dist 13                   UNDER VOTES                           PRECINCT 1                                             01 
01050050003000010          United States Representative, Dist 13                   UNDER VOTES                           PRECINCT 2                                             01 
01050050004000011          United States Representative, Dist 13                   UNDER VOTES                           PRECINCT 3                                             01 
01050050005000017          United States Representative, Dist 13                   UNDER VOTES                           PRECINCT 4                                             01 
01050050006000001          United States Representative, Dist 13                   UNDER VOTES                           PRECINCT 6                                             01 
01060010001000079REP       Railroad Commissioner                                   Wayne Christian                       PRECINCT 1                                             01 
01060010003000141REP       Railroad Commissioner                                   Wayne Christian                       PRECINCT 2                                             01 
01060010004000129REP       Railroad Commissioner                                   Wayne Christian                       PRECINCT 3                                             01 
01060010005000184REP       Railroad Commissioner                                   Wayne Christian                       PRECINCT 4                                             01 
01060010006000038REP       Railroad Commissioner                                   Wayne Christian                       PRECINCT 6                                             01 
01060020001000020DEM       Railroad Commissioner                                   Grady Yarbrough                       PRECINCT 1                                             01 
01060020003000018DEM       Railroad Commissioner                                   Grady Yarbrough                       PRECINCT 2                                             01 
01060020004000021DEM       Railroad Commissioner                                   Grady Yarbrough                       PRECINCT 3                                             01 
01060020005000033DEM       Railroad Commissioner                                   Grady Yarbrough                       PRECINCT 4                                             01 
01060020006000007DEM       Railroad Commissioner                                   Grady Yarbrough                       PRECINCT 6                                             01 
01060030001000006LIB       Railroad Commissioner                                   Mark Miller                           PRECINCT 1                                             01 
01060030003000005LIB       Railroad Commissioner                                   Mark Miller                           PRECINCT 2                                             01 
01060030004000012LIB       Railroad Commissioner                                   Mark Miller                           PRECINCT 3                                             01 
01060030005000006LIB       Railroad Commissioner                                   Mark Miller                           PRECINCT 4                                             01 
01060030006000002LIB       Railroad Commissioner                                   Mark Miller                           PRECINCT 6                                             01 
01060040001000001GRN       Railroad Commissioner                                   Martina Salinas                       PRECINCT 1                                             01 
01060040003000001GRN       Railroad Commissioner                                   Martina Salinas                       PRECINCT 2                                             01 
01060040004000001GRN       Railroad Commissioner                                   Martina Salinas                       PRECINCT 3                                             01 
01060040005000000GRN       Railroad Commissioner                                   Martina Salinas                       PRECINCT 4                                             01 
01060040006000001GRN       Railroad Commissioner                                   Martina Salinas                       PRECINCT 6                                             01 
01060050001000000          Railroad Commissioner                                   OVER VOTES                            PRECINCT 1                                             01 
01060050003000000          Railroad Commissioner                                   OVER VOTES                            PRECINCT 2                                             01 
01060050004000000          Railroad Commissioner                                   OVER VOTES                            PRECINCT 3                                             01 
01060050005000000          Railroad Commissioner                                   OVER VOTES                            PRECINCT 4                                             01 
01060050006000000          Railroad Commissioner                                   OVER VOTES                            PRECINCT 6                                             01 
01060060001000007          Railroad Commissioner                                   UNDER VOTES                           PRECINCT 1                                             01 
01060060003000006          Railroad Commissioner                                   UNDER VOTES                           PRECINCT 2                                             01 
01060060004000010          Railroad Commissioner                                   UNDER VOTES                           PRECINCT 3                                             01 
01060060005000011          Railroad Commissioner                                   UNDER VOTES                           PRECINCT 4                                             01 
01060060006000003          Railroad Commissioner                                   UNDER VOTES                           PRECINCT 6                                             01 
01070010001000081REP       Justice, Supreme Court, Place 3                         Debra Lehrmann                        PRECINCT 1                                             01 
01070010003000139REP       Justice, Supreme Court, Place 3                         Debra Lehrmann                        PRECINCT 2                                             01 
01070010004000133REP       Justice, Supreme Court, Place 3                         Debra Lehrmann                        PRECINCT 3                                             01 
01070010005000189REP       Justice, Supreme Court, Place 3                         Debra Lehrmann                        PRECINCT 4                                             01 
01070010006000041REP       Justice, Supreme Court, Place 3                         Debra Lehrmann                        PRECINCT 6                                             01 
01070020001000020DEM       Justice, Supreme Court, Place 3                         Mike Westergren                       PRECINCT 1                                             01 
01070020003000018DEM       Justice, Supreme Court, Place 3                         Mike Westergren                       PRECINCT 2                                             01 
01070020004000019DEM       Justice, Supreme Court, Place 3                         Mike Westergren                       PRECINCT 3                                             01 
01070020005000029DEM       Justice, Supreme Court, Place 3                         Mike Westergren                       PRECINCT 4                                             01 
01070020006000004DEM       Justice, Supreme Court, Place 3                         Mike Westergren                       PRECINCT 6                                             01 
01070030001000004LIB       Justice, Supreme Court, Place 3                         Kathie Glass                          PRECINCT 1                                             01 
01070030003000004LIB       Justice, Supreme Court, Place 3                         Kathie Glass                          PRECINCT 2                                             01 
01070030004000009LIB       Justice, Supreme Court, Place 3                         Kathie Glass                          PRECINCT 3                                             01 
01070030005000006LIB       Justice, Supreme Court, Place 3                         Kathie Glass                          PRECINCT 4                                             01 
01070030006000001LIB       Justice, Supreme Court, Place 3                         Kathie Glass                          PRECINCT 6                                             01 
01070040001000000GRN       Justice, Supreme Court, Place 3                         Rodolfo Rivera Munoz                  PRECINCT 1                                             01 
01070040003000002GRN       Justice, Supreme Court, Place 3                         Rodolfo Rivera Munoz                  PRECINCT 2                                             01 
01070040004000002GRN       Justice, Supreme Court, Place 3                         Rodolfo Rivera Munoz                  PRECINCT 3                                             01 
01070040005000003GRN       Justice, Supreme Court, Place 3                         Rodolfo Rivera Munoz                  PRECINCT 4                                             01 
01070040006000002GRN       Justice, Supreme Court, Place 3                         Rodolfo Rivera Munoz                  PRECINCT 6                                             01 
01070050001000000          Justice, Supreme Court, Place 3                         OVER VOTES                            PRECINCT 1                                             01 
01070050003000000          Justice, Supreme Court, Place 3                         OVER VOTES                            PRECINCT 2                                             01 
01070050004000000          Justice, Supreme Court, Place 3                         OVER VOTES                            PRECINCT 3                                             01 
01070050005000000          Justice, Supreme Court, Place 3                         OVER VOTES                            PRECINCT 4                                             01 
01070050006000000          Justice, Supreme Court, Place 3                         OVER VOTES                            PRECINCT 6                                             01 
01070060001000007          Justice, Supreme Court, Place 3                         UNDER VOTES                           PRECINCT 1                                             01 
01070060003000007          Justice, Supreme Court, Place 3                         UNDER VOTES                           PRECINCT 2                                             01 
01070060004000010          Justice, Supreme Court, Place 3                         UNDER VOTES                           PRECINCT 3                                             01 
01070060005000007          Justice, Supreme Court, Place 3                         UNDER VOTES                           PRECINCT 4                                             01 
01070060006000003          Justice, Supreme Court, Place 3                         UNDER VOTES                           PRECINCT 6                                             01 
01080010001000081REP       Justice, Supreme Court, Place 5                         Paul Green                            PRECINCT 1                                             01 
01080010003000143REP       Justice, Supreme Court, Place 5                         Paul Green                            PRECINCT 2                                             01 
01080010004000130REP       Justice, Supreme Court, Place 5                         Paul Green                            PRECINCT 3                                             01 
01080010005000193REP       Justice, Supreme Court, Place 5                         Paul Green                            PRECINCT 4                                             01 
01080010006000039REP       Justice, Supreme Court, Place 5                         Paul Green                            PRECINCT 6                                             01 
01080020001000020DEM       Justice, Supreme Court, Place 5                         Dori Contreras Garza                  PRECINCT 1                                             01 
01080020003000017DEM       Justice, Supreme Court, Place 5                         Dori Contreras Garza                  PRECINCT 2                                             01 
01080020004000020DEM       Justice, Supreme Court, Place 5                         Dori Contreras Garza                  PRECINCT 3                                             01 
01080020005000029DEM       Justice, Supreme Court, Place 5                         Dori Contreras Garza                  PRECINCT 4                                             01 
01080020006000007DEM       Justice, Supreme Court, Place 5                         Dori Contreras Garza                  PRECINCT 6                                             01 
01080030001000004LIB       Justice, Supreme Court, Place 5                         Tom Oxford                            PRECINCT 1                                             01 
01080030003000003LIB       Justice, Supreme Court, Place 5                         Tom Oxford                            PRECINCT 2                                             01 
01080030004000009LIB       Justice, Supreme Court, Place 5                         Tom Oxford                            PRECINCT 3                                             01 
01080030005000006LIB       Justice, Supreme Court, Place 5                         Tom Oxford                            PRECINCT 4                                             01 
01080030006000000LIB       Justice, Supreme Court, Place 5                         Tom Oxford                            PRECINCT 6                                             01 
01080040001000000GRN       Justice, Supreme Court, Place 5                         Charles E. Waterbury                  PRECINCT 1                                             01 
01080040003000000GRN       Justice, Supreme Court, Place 5                         Charles E. Waterbury                  PRECINCT 2                                             01 
01080040004000002GRN       Justice, Supreme Court, Place 5                         Charles E. Waterbury                  PRECINCT 3                                             01 
01080040005000001GRN       Justice, Supreme Court, Place 5                         Charles E. Waterbury                  PRECINCT 4                                             01 
01080040006000001GRN       Justice, Supreme Court, Place 5                         Charles E. Waterbury                  PRECINCT 6                                             01 
01080050001000000          Justice, Supreme Court, Place 5                         OVER VOTES                            PRECINCT 1                                             01 
01080050003000000          Justice, Supreme Court, Place 5                         OVER VOTES                            PRECINCT 2                                             01 
01080050004000000          Justice, Supreme Court, Place 5                         OVER VOTES                            PRECINCT 3                                             01 
01080050005000000          Justice, Supreme Court, Place 5                         OVER VOTES                            PRECINCT 4                                             01 
01080050006000000          Justice, Supreme Court, Place 5                         OVER VOTES                            PRECINCT 6                                             01 
01080060001000008          Justice, Supreme Court, Place 5                         UNDER VOTES                           PRECINCT 1                                             01 
01080060003000007          Justice, Supreme Court, Place 5                         UNDER VOTES                           PRECINCT 2                                             01 
01080060004000012          Justice, Supreme Court, Place 5                         UNDER VOTES                           PRECINCT 3                                             01 
01080060005000006          Justice, Supreme Court, Place 5                         UNDER VOTES                           PRECINCT 4                                             01 
01080060006000004          Justice, Supreme Court, Place 5                         UNDER VOTES                           PRECINCT 6                                             01 
01090010001000080REP       Justice, Supreme Court, Place 9                         Eva Guzman                            PRECINCT 1                                             01 
01090010003000134REP       Justice, Supreme Court, Place 9                         Eva Guzman                            PRECINCT 2                                             01 
01090010004000124REP       Justice, Supreme Court, Place 9                         Eva Guzman                            PRECINCT 3                                             01 
01090010005000184REP       Justice, Supreme Court, Place 9                         Eva Guzman                            PRECINCT 4                                             01 
01090010006000038REP       Justice, Supreme Court, Place 9                         Eva Guzman                            PRECINCT 6                                             01 
01090020001000020DEM       Justice, Supreme Court, Place 9                         Savannah Robinson                     PRECINCT 1                                             01 
01090020003000021DEM       Justice, Supreme Court, Place 9                         Savannah Robinson                     PRECINCT 2                                             01 
01090020004000016DEM       Justice, Supreme Court, Place 9                         Savannah Robinson                     PRECINCT 3                                             01 
01090020005000032DEM       Justice, Supreme Court, Place 9                         Savannah Robinson                     PRECINCT 4                                             01 
01090020006000005DEM       Justice, Supreme Court, Place 9                         Savannah Robinson                     PRECINCT 6                                             01 
01090030001000004LIB       Justice, Supreme Court, Place 9                         Don Fulton                            PRECINCT 1                                             01 
01090030003000004LIB       Justice, Supreme Court, Place 9                         Don Fulton                            PRECINCT 2                                             01 
01090030004000012LIB       Justice, Supreme Court, Place 9                         Don Fulton                            PRECINCT 3                                             01 
01090030005000005LIB       Justice, Supreme Court, Place 9                         Don Fulton                            PRECINCT 4                                             01 
01090030006000000LIB       Justice, Supreme Court, Place 9                         Don Fulton                            PRECINCT 6                                             01 
01090040001000002GRN       Justice, Supreme Court, Place 9                         Jim Chisholm                          PRECINCT 1                                             01 
01090040003000002GRN       Justice, Supreme Court, Place 9                         Jim Chisholm                          PRECINCT 2                                             01 
01090040004000009GRN       Justice, Supreme Court, Place 9                         Jim Chisholm                          PRECINCT 3                                             01 
01090040005000006GRN       Justice, Supreme Court, Place 9                         Jim Chisholm                          PRECINCT 4                                             01 
01090040006000002GRN       Justice, Supreme Court, Place 9                         Jim Chisholm                          PRECINCT 6                                             01 
01090050001000000          Justice, Supreme Court, Place 9                         OVER VOTES                            PRECINCT 1                                             01 
01090050003000000          Justice, Supreme Court, Place 9                         OVER VOTES                            PRECINCT 2                                             01 
01090050004000000          Justice, Supreme Court, Place 9                         OVER VOTES                            PRECINCT 3                                             01 
01090050005000000          Justice, Supreme Court, Place 9                         OVER VOTES                            PRECINCT 4                                             01 
01090050006000000          Justice, Supreme Court, Place 9                         OVER VOTES                            PRECINCT 6                                             01 
01090060001000006          Justice, Supreme Court, Place 9                         UNDER VOTES                           PRECINCT 1                                             01 
01090060003000009          Justice, Supreme Court, Place 9                         UNDER VOTES                           PRECINCT 2                                             01 
01090060004000012          Justice, Supreme Court, Place 9                         UNDER VOTES                           PRECINCT 3                                             01 
01090060005000008          Justice, Supreme Court, Place 9                         UNDER VOTES                           PRECINCT 4                                             01 
01090060006000006          Justice, Supreme Court, Place 9                         UNDER VOTES                           PRECINCT 6                                             01 
01100010001000080REP       Judge, Court of Criminal Appeals, Pl 2                  Mary Lou Keel                         PRECINCT 1                                             01 
01100010003000135REP       Judge, Court of Criminal Appeals, Pl 2                  Mary Lou Keel                         PRECINCT 2                                             01 
01100010004000129REP       Judge, Court of Criminal Appeals, Pl 2                  Mary Lou Keel                         PRECINCT 3                                             01 
01100010005000183REP       Judge, Court of Criminal Appeals, Pl 2                  Mary Lou Keel                         PRECINCT 4                                             01 
01100010006000039REP       Judge, Court of Criminal Appeals, Pl 2                  Mary Lou Keel                         PRECINCT 6                                             01 
01100020001000022DEM       Judge, Court of Criminal Appeals, Pl 2                  Lawrence "Larry" Meyers               PRECINCT 1                                             01 
01100020003000022DEM       Judge, Court of Criminal Appeals, Pl 2                  Lawrence "Larry" Meyers               PRECINCT 2                                             01 
01100020004000017DEM       Judge, Court of Criminal Appeals, Pl 2                  Lawrence "Larry" Meyers               PRECINCT 3                                             01 
01100020005000036DEM       Judge, Court of Criminal Appeals, Pl 2                  Lawrence "Larry" Meyers               PRECINCT 4                                             01 
01100020006000007DEM       Judge, Court of Criminal Appeals, Pl 2                  Lawrence "Larry" Meyers               PRECINCT 6                                             01 
01100030001000004LIB       Judge, Court of Criminal Appeals, Pl 2                  Mark Ash                              PRECINCT 1                                             01 
01100030003000003LIB       Judge, Court of Criminal Appeals, Pl 2                  Mark Ash                              PRECINCT 2                                             01 
01100030004000010LIB       Judge, Court of Criminal Appeals, Pl 2                  Mark Ash                              PRECINCT 3                                             01 
01100030005000007LIB       Judge, Court of Criminal Appeals, Pl 2                  Mark Ash                              PRECINCT 4                                             01 
01100030006000000LIB       Judge, Court of Criminal Appeals, Pl 2                  Mark Ash                              PRECINCT 6                                             01 
01100040001000000GRN       Judge, Court of Criminal Appeals, Pl 2                  Adam King Blackwell Reposa            PRECINCT 1                                             01 
01100040003000001GRN       Judge, Court of Criminal Appeals, Pl 2                  Adam King Blackwell Reposa            PRECINCT 2                                             01 
01100040004000003GRN       Judge, Court of Criminal Appeals, Pl 2                  Adam King Blackwell Reposa            PRECINCT 3                                             01 
01100040005000000GRN       Judge, Court of Criminal Appeals, Pl 2                  Adam King Blackwell Reposa            PRECINCT 4                                             01 
01100040006000000GRN       Judge, Court of Criminal Appeals, Pl 2                  Adam King Blackwell Reposa            PRECINCT 6                                             01 
01100050001000000          Judge, Court of Criminal Appeals, Pl 2                  OVER VOTES                            PRECINCT 1                                             01 
01100050003000000          Judge, Court of Criminal Appeals, Pl 2                  OVER VOTES                            PRECINCT 2                                             01 
01100050004000000          Judge, Court of Criminal Appeals, Pl 2                  OVER VOTES                            PRECINCT 3                                             01 
01100050005000000          Judge, Court of Criminal Appeals, Pl 2                  OVER VOTES                            PRECINCT 4                                             01 
01100050006000000          Judge, Court of Criminal Appeals, Pl 2                  OVER VOTES                            PRECINCT 6                                             01 
01100060001000007          Judge, Court of Criminal Appeals, Pl 2                  UNDER VOTES                           PRECINCT 1                                             01 
01100060003000009          Judge, Court of Criminal Appeals, Pl 2                  UNDER VOTES                           PRECINCT 2                                             01 
01100060004000014          Judge, Court of Criminal Appeals, Pl 2                  UNDER VOTES                           PRECINCT 3                                             01 
01100060005000009          Judge, Court of Criminal Appeals, Pl 2                  UNDER VOTES                           PRECINCT 4                                             01 
01100060006000005          Judge, Court of Criminal Appeals, Pl 2                  UNDER VOTES                           PRECINCT 6                                             01 
01110010001000075REP       Judge, Court of Criminal Appeals, Pl 5                  Scott Walker                          PRECINCT 1                                             01 
01110010003000138REP       Judge, Court of Criminal Appeals, Pl 5                  Scott Walker                          PRECINCT 2                                             01 
01110010004000129REP       Judge, Court of Criminal Appeals, Pl 5                  Scott Walker                          PRECINCT 3                                             01 
01110010005000186REP       Judge, Court of Criminal Appeals, Pl 5                  Scott Walker                          PRECINCT 4                                             01 
01110010006000039REP       Judge, Court of Criminal Appeals, Pl 5                  Scott Walker                          PRECINCT 6                                             01 
01110020001000022DEM       Judge, Court of Criminal Appeals, Pl 5                  Betsy Johnson                         PRECINCT 1                                             01 
01110020003000020DEM       Judge, Court of Criminal Appeals, Pl 5                  Betsy Johnson                         PRECINCT 2                                             01 
01110020004000015DEM       Judge, Court of Criminal Appeals, Pl 5                  Betsy Johnson                         PRECINCT 3                                             01 
01110020005000029DEM       Judge, Court of Criminal Appeals, Pl 5                  Betsy Johnson                         PRECINCT 4                                             01 
01110020006000006DEM       Judge, Court of Criminal Appeals, Pl 5                  Betsy Johnson                         PRECINCT 6                                             01 
01110030001000008LIB       Judge, Court of Criminal Appeals, Pl 5                  William Bryan Strange, III            PRECINCT 1                                             01 
01110030003000003LIB       Judge, Court of Criminal Appeals, Pl 5                  William Bryan Strange, III            PRECINCT 2                                             01 
01110030004000015LIB       Judge, Court of Criminal Appeals, Pl 5                  William Bryan Strange, III            PRECINCT 3                                             01 
01110030005000010LIB       Judge, Court of Criminal Appeals, Pl 5                  William Bryan Strange, III            PRECINCT 4                                             01 
01110030006000001LIB       Judge, Court of Criminal Appeals, Pl 5                  William Bryan Strange, III            PRECINCT 6                                             01 
01110040001000001GRN       Judge, Court of Criminal Appeals, Pl 5                  Judith Sanders-Castro                 PRECINCT 1                                             01 
01110040003000002GRN       Judge, Court of Criminal Appeals, Pl 5                  Judith Sanders-Castro                 PRECINCT 2                                             01 
01110040004000000GRN       Judge, Court of Criminal Appeals, Pl 5                  Judith Sanders-Castro                 PRECINCT 3                                             01 
01110040005000000GRN       Judge, Court of Criminal Appeals, Pl 5                  Judith Sanders-Castro                 PRECINCT 4                                             01 
01110040006000001GRN       Judge, Court of Criminal Appeals, Pl 5                  Judith Sanders-Castro                 PRECINCT 6                                             01 
01110050001000000          Judge, Court of Criminal Appeals, Pl 5                  OVER VOTES                            PRECINCT 1                                             01 
01110050003000000          Judge, Court of Criminal Appeals, Pl 5                  OVER VOTES                            PRECINCT 2                                             01 
01110050004000000          Judge, Court of Criminal Appeals, Pl 5                  OVER VOTES                            PRECINCT 3                                             01 
01110050005000000          Judge, Court of Criminal Appeals, Pl 5                  OVER VOTES                            PRECINCT 4                                             01 
01110050006000000          Judge, Court of Criminal Appeals, Pl 5                  OVER VOTES                            PRECINCT 6                                             01 
01110060001000007          Judge, Court of Criminal Appeals, Pl 5                  UNDER VOTES                           PRECINCT 1                                             01 
01110060003000007          Judge, Court of Criminal Appeals, Pl 5                  UNDER VOTES                           PRECINCT 2                                             01 
01110060004000014          Judge, Court of Criminal Appeals, Pl 5                  UNDER VOTES                           PRECINCT 3                                             01 
01110060005000010          Judge, Court of Criminal Appeals, Pl 5                  UNDER VOTES                           PRECINCT 4                                             01 
01110060006000004          Judge, Court of Criminal Appeals, Pl 5                  UNDER VOTES                           PRECINCT 6                                             01 
01120010001000078REP       Judge, Court of Criminal Appeals, Pl 6                  Michael E. Keasler                    PRECINCT 1                                             01 
01120010003000142REP       Judge, Court of Criminal Appeals, Pl 6                  Michael E. Keasler                    PRECINCT 2                                             01 
01120010004000126REP       Judge, Court of Criminal Appeals, Pl 6                  Michael E. Keasler                    PRECINCT 3                                             01 
01120010005000188REP       Judge, Court of Criminal Appeals, Pl 6                  Michael E. Keasler                    PRECINCT 4                                             01 
01120010006000039REP       Judge, Court of Criminal Appeals, Pl 6                  Michael E. Keasler                    PRECINCT 6                                             01 
01120020001000023DEM       Judge, Court of Criminal Appeals, Pl 6                  Robert Burns                          PRECINCT 1                                             01 
01120020003000018DEM       Judge, Court of Criminal Appeals, Pl 6                  Robert Burns                          PRECINCT 2                                             01 
01120020004000020DEM       Judge, Court of Criminal Appeals, Pl 6                  Robert Burns                          PRECINCT 3                                             01 
01120020005000030DEM       Judge, Court of Criminal Appeals, Pl 6                  Robert Burns                          PRECINCT 4                                             01 
01120020006000005DEM       Judge, Court of Criminal Appeals, Pl 6                  Robert Burns                          PRECINCT 6                                             01 
01120030001000005LIB       Judge, Court of Criminal Appeals, Pl 6                  Mark W. Bennett                       PRECINCT 1                                             01 
01120030003000002LIB       Judge, Court of Criminal Appeals, Pl 6                  Mark W. Bennett                       PRECINCT 2                                             01 
01120030004000012LIB       Judge, Court of Criminal Appeals, Pl 6                  Mark W. Bennett                       PRECINCT 3                                             01 
01120030005000005LIB       Judge, Court of Criminal Appeals, Pl 6                  Mark W. Bennett                       PRECINCT 4                                             01 
01120030006000002LIB       Judge, Court of Criminal Appeals, Pl 6                  Mark W. Bennett                       PRECINCT 6                                             01 
01120040001000000          Judge, Court of Criminal Appeals, Pl 6                  OVER VOTES                            PRECINCT 1                                             01 
01120040003000000          Judge, Court of Criminal Appeals, Pl 6                  OVER VOTES                            PRECINCT 2                                             01 
01120040004000000          Judge, Court of Criminal Appeals, Pl 6                  OVER VOTES                            PRECINCT 3                                             01 
01120040005000000          Judge, Court of Criminal Appeals, Pl 6                  OVER VOTES                            PRECINCT 4                                             01 
01120040006000000          Judge, Court of Criminal Appeals, Pl 6                  OVER VOTES                            PRECINCT 6                                             01 
01120050001000007          Judge, Court of Criminal Appeals, Pl 6                  UNDER VOTES                           PRECINCT 1                                             01 
01120050003000008          Judge, Court of Criminal Appeals, Pl 6                  UNDER VOTES                           PRECINCT 2                                             01 
01120050004000015          Judge, Court of Criminal Appeals, Pl 6                  UNDER VOTES                           PRECINCT 3                                             01 
01120050005000011          Judge, Court of Criminal Appeals, Pl 6                  UNDER VOTES                           PRECINCT 4                                             01 
01120050006000005          Judge, Court of Criminal Appeals, Pl 6                  UNDER VOTES                           PRECINCT 6                                             01 
01130010001000084REP       Member, State Board of Education, Dist15                Marty Rowley                          PRECINCT 1                                             01 
01130010003000149REP       Member, State Board of Education, Dist15                Marty Rowley                          PRECINCT 2                                             01 
01130010004000137REP       Member, State Board of Education, Dist15                Marty Rowley                          PRECINCT 3                                             01 
01130010005000194REP       Member, State Board of Education, Dist15                Marty Rowley                          PRECINCT 4                                             01 
01130010006000043REP       Member, State Board of Education, Dist15                Marty Rowley                          PRECINCT 6                                             01 
01130020001000000          Member, State Board of Education, Dist15                OVER VOTES                            PRECINCT 1                                             01 
01130020003000000          Member, State Board of Education, Dist15                OVER VOTES                            PRECINCT 2                                             01 
01130020004000000          Member, State Board of Education, Dist15                OVER VOTES                            PRECINCT 3                                             01 
01130020005000000          Member, State Board of Education, Dist15                OVER VOTES                            PRECINCT 4                                             01 
01130020006000000          Member, State Board of Education, Dist15                OVER VOTES                            PRECINCT 6                                             01 
01130030001000028          Member, State Board of Education, Dist15                UNDER VOTES                           PRECINCT 1                                             01 
01130030003000019          Member, State Board of Education, Dist15                UNDER VOTES                           PRECINCT 2                                             01 
01130030004000031          Member, State Board of Education, Dist15                UNDER VOTES                           PRECINCT 3                                             01 
01130030005000035          Member, State Board of Education, Dist15                UNDER VOTES                           PRECINCT 4                                             01 
01130030006000008          Member, State Board of Education, Dist15                UNDER VOTES                           PRECINCT 6                                             01 
01140010001000088REP       State Representative, District 88                       Ken King                              PRECINCT 1                                             01 
01140010003000151REP       State Representative, District 88                       Ken King                              PRECINCT 2                                             01 
01140010004000143REP       State Representative, District 88                       Ken King                              PRECINCT 3                                             01 
01140010005000201REP       State Representative, District 88                       Ken King                              PRECINCT 4                                             01 
01140010006000045REP       State Representative, District 88                       Ken King                              PRECINCT 6                                             01 
01140020001000000          State Representative, District 88                       OVER VOTES                            PRECINCT 1                                             01 
01140020003000000          State Representative, District 88                       OVER VOTES                            PRECINCT 2                                             01 
01140020004000000          State Representative, District 88                       OVER VOTES                            PRECINCT 3                                             01 
01140020005000000          State Representative, District 88                       OVER VOTES                            PRECINCT 4                                             01 
01140020006000000          State Representative, District 88                       OVER VOTES                            PRECINCT 6                                             01 
01140030001000024          State Representative, District 88                       UNDER VOTES                           PRECINCT 1                                             01 
01140030003000017          State Representative, District 88                       UNDER VOTES                           PRECINCT 2                                             01 
01140030004000026          State Representative, District 88                       UNDER VOTES                           PRECINCT 3                                             01 
01140030005000030          State Representative, District 88                       UNDER VOTES                           PRECINCT 4                                             01 
01140030006000006          State Representative, District 88                       UNDER VOTES                           PRECINCT 6                                             01 
01150010001000085REP       Justice, Court of AP Justice DIST 7, P4                 Jim Campbell                          PRECINCT 1                                             01 
01150010003000148REP       Justice, Court of AP Justice DIST 7, P4                 Jim Campbell                          PRECINCT 2                                             01 
01150010004000137REP       Justice, Court of AP Justice DIST 7, P4                 Jim Campbell                          PRECINCT 3                                             01 
01150010005000194REP       Justice, Court of AP Justice DIST 7, P4                 Jim Campbell                          PRECINCT 4                                             01 
01150010006000040REP       Justice, Court of AP Justice DIST 7, P4                 Jim Campbell                          PRECINCT 6                                             01 
01150020001000000          Justice, Court of AP Justice DIST 7, P4                 OVER VOTES                            PRECINCT 1                                             01 
01150020003000000          Justice, Court of AP Justice DIST 7, P4                 OVER VOTES                            PRECINCT 2                                             01 
01150020004000000          Justice, Court of AP Justice DIST 7, P4                 OVER VOTES                            PRECINCT 3                                             01 
01150020005000000          Justice, Court of AP Justice DIST 7, P4                 OVER VOTES                            PRECINCT 4                                             01 
01150020006000000          Justice, Court of AP Justice DIST 7, P4                 OVER VOTES                            PRECINCT 6                                             01 
01150030001000027          Justice, Court of AP Justice DIST 7, P4                 UNDER VOTES                           PRECINCT 1                                             01 
01150030003000020          Justice, Court of AP Justice DIST 7, P4                 UNDER VOTES                           PRECINCT 2                                             01 
01150030004000032          Justice, Court of AP Justice DIST 7, P4                 UNDER VOTES                           PRECINCT 3                                             01 
01150030005000037          Justice, Court of AP Justice DIST 7, P4                 UNDER VOTES                           PRECINCT 4                                             01 
01150030006000011          Justice, Court of AP Justice DIST 7, P4                 UNDER VOTES                           PRECINCT 6                                             01 
01160010001000090REP       District Attorney, 110th Judicial DIST                  Wade Jackson                          PRECINCT 1                                             01 
01160010003000150REP       District Attorney, 110th Judicial DIST                  Wade Jackson                          PRECINCT 2                                             01 
01160010004000147REP       District Attorney, 110th Judicial DIST                  Wade Jackson                          PRECINCT 3                                             01 
01160010005000201REP       District Attorney, 110th Judicial DIST                  Wade Jackson                          PRECINCT 4                                             01 
01160010006000046REP       District Attorney, 110th Judicial DIST                  Wade Jackson                          PRECINCT 6                                             01 
01160020001000000          District Attorney, 110th Judicial DIST                  OVER VOTES                            PRECINCT 1                                             01 
01160020003000000          District Attorney, 110th Judicial DIST                  OVER VOTES                            PRECINCT 2                                             01 
01160020004000000          District Attorney, 110th Judicial DIST                  OVER VOTES                            PRECINCT 3                                             01 
01160020005000000          District Attorney, 110th Judicial DIST                  OVER VOTES                            PRECINCT 4                                             01 
01160020006000000          District Attorney, 110th Judicial DIST                  OVER VOTES                            PRECINCT 6                                             01 
01160030001000022          District Attorney, 110th Judicial DIST                  UNDER VOTES                           PRECINCT 1                                             01 
01160030003000017          District Attorney, 110th Judicial DIST                  UNDER VOTES                           PRECINCT 2                                             01 
01160030004000022          District Attorney, 110th Judicial DIST                  UNDER VOTES                           PRECINCT 3                                             01 
01160030005000030          District Attorney, 110th Judicial DIST                  UNDER VOTES                           PRECINCT 4                                             01 
01160030006000005          District Attorney, 110th Judicial DIST                  UNDER VOTES                           PRECINCT 6                                             01 
01170010001000090REP       County Attorney                                         Emily Teegardin                       PRECINCT 1                                             01 
01170010003000158REP       County Attorney                                         Emily Teegardin                       PRECINCT 2                                             01 
01170010004000154REP       County Attorney                                         Emily Teegardin                       PRECINCT 3                                             01 
01170010005000197REP       County Attorney                                         Emily Teegardin                       PRECINCT 4                                             01 
01170010006000048REP       County Attorney                                         Emily Teegardin                       PRECINCT 6                                             01 
01170020001000000          County Attorney                                         OVER VOTES                            PRECINCT 1                                             01 
01170020003000000          County Attorney                                         OVER VOTES                            PRECINCT 2                                             01 
01170020004000000          County Attorney                                         OVER VOTES                            PRECINCT 3                                             01 
01170020005000000          County Attorney                                         OVER VOTES                            PRECINCT 4                                             01 
01170020006000000          County Attorney                                         OVER VOTES                            PRECINCT 6                                             01 
01170030001000022          County Attorney                                         UNDER VOTES                           PRECINCT 1                                             01 
01170030003000009          County Attorney                                         UNDER VOTES                           PRECINCT 2                                             01 
01170030004000016          County Attorney                                         UNDER VOTES                           PRECINCT 3                                             01 
01170030005000035          County Attorney                                         UNDER VOTES                           PRECINCT 4                                             01 
01170030006000003          County Attorney                                         UNDER VOTES                           PRECINCT 6                                             01 
01180010001000095REP       Sheriff                                                 Garrett Davis                         PRECINCT 1                                             01 
01180010003000153REP       Sheriff                                                 Garrett Davis                         PRECINCT 2                                             01 
01180010004000157REP       Sheriff                                                 Garrett Davis                         PRECINCT 3                                             01 
01180010005000209REP       Sheriff                                                 Garrett Davis                         PRECINCT 4                                             01 
01180010006000047REP       Sheriff                                                 Garrett Davis                         PRECINCT 6                                             01 
01180020001000000          Sheriff                                                 OVER VOTES                            PRECINCT 1                                             01 
01180020003000000          Sheriff                                                 OVER VOTES                            PRECINCT 2                                             01 
01180020004000000          Sheriff                                                 OVER VOTES                            PRECINCT 3                                             01 
01180020005000000          Sheriff                                                 OVER VOTES                            PRECINCT 4                                             01 
01180020006000000          Sheriff                                                 OVER VOTES                            PRECINCT 6                                             01 
01180030001000017          Sheriff                                                 UNDER VOTES                           PRECINCT 1                                             01 
01180030003000014          Sheriff                                                 UNDER VOTES                           PRECINCT 2                                             01 
01180030004000014          Sheriff                                                 UNDER VOTES                           PRECINCT 3                                             01 
01180030005000023          Sheriff                                                 UNDER VOTES                           PRECINCT 4                                             01 
01180030006000004          Sheriff                                                 UNDER VOTES                           PRECINCT 6                                             01 
01190010001000082REPCOMM01 County Commissioner, PCT 1                              Ken Wood                              PRECINCT 1                                             01 
01190010006000045REPCOMM01 County Commissioner, PCT 1                              Ken Wood                              PRECINCT 6                                             01 
01190020001000000   COMM01 County Commissioner, PCT 1                              OVER VOTES                            PRECINCT 1                                             01 
01190020006000000   COMM01 County Commissioner, PCT 1                              OVER VOTES                            PRECINCT 6                                             01 
01190030001000029   COMM01 County Commissioner, PCT 1                              UNDER VOTES                           PRECINCT 1                                             01 
01190030006000006   COMM01 County Commissioner, PCT 1                              UNDER VOTES                           PRECINCT 6                                             01 
01200010004000159REPCOMM03 County Commissioner, PCT 3                              Danny Mac Francis                     PRECINCT 3                                             01 
01200020004000000   COMM03 County Commissioner, PCT 3                              OVER VOTES                            PRECINCT 3                                             01 
01200030004000011   COMM03 County Commissioner, PCT 3                              UNDER VOTES                           PRECINCT 3                                             01 
01210010001000094REP       County Tax Assessor-Collector                           Jon Etta Ziegler                      PRECINCT 1                                             01 
01210010003000159REP       County Tax Assessor-Collector                           Jon Etta Ziegler                      PRECINCT 2                                             01 
01210010004000159REP       County Tax Assessor-Collector                           Jon Etta Ziegler                      PRECINCT 3                                             01 
01210010005000208REP       County Tax Assessor-Collector                           Jon Etta Ziegler                      PRECINCT 4                                             01 
01210010006000048REP       County Tax Assessor-Collector                           Jon Etta Ziegler                      PRECINCT 6                                             01 
01210020001000000          County Tax Assessor-Collector                           OVER VOTES                            PRECINCT 1                                             01 
01210020003000000          County Tax Assessor-Collector                           OVER VOTES                            PRECINCT 2                                             01 
01210020004000000          County Tax Assessor-Collector                           OVER VOTES                            PRECINCT 3                                             01 
01210020005000000          County Tax Assessor-Collector                           OVER VOTES                            PRECINCT 4                                             01 
01210020006000000          County Tax Assessor-Collector                           OVER VOTES                            PRECINCT 6                                             01 
01210030001000018          County Tax Assessor-Collector                           UNDER VOTES                           PRECINCT 1                                             01 
01210030003000008          County Tax Assessor-Collector                           UNDER VOTES                           PRECINCT 2                                             01 
01210030004000012          County Tax Assessor-Collector                           UNDER VOTES                           PRECINCT 3                                             01 
01210030005000025          County Tax Assessor-Collector                           UNDER VOTES                           PRECINCT 4                                             01 
01210030006000003          County Tax Assessor-Collector                           UNDER VOTES                           PRECINCT 6                                             01 
