01010010001001053000000000000000000000000000000          REGISTERED VOTERS - TOTAL                               REGISTERED VOTERS - TOTAL             PRECINCT 11                                            00 
01010010002000403000000000000000000000000000000          REGISTERED VOTERS - TOTAL                               REGISTERED VOTERS - TOTAL             PRECINCT 12                                            00 
01010010003001051000000000000000000000000000000          REGISTERED VOTERS - TOTAL                               REGISTERED VOTERS - TOTAL             PRECINCT 21                                            00 
01010010004000302000000000000000000000000000000          REGISTERED VOTERS - TOTAL                               REGISTERED VOTERS - TOTAL             PRECINCT 22                                            00 
01010010005000825000000000000000000000000000000          REGISTERED VOTERS - TOTAL                               REGISTERED VOTERS - TOTAL             PRECINCT 31                                            00 
01010010006000596000000000000000000000000000000          REGISTERED VOTERS - TOTAL                               REGISTERED VOTERS - TOTAL             PRECINCT 32                                            00 
01010010007000359000000000000000000000000000000          REGISTERED VOTERS - TOTAL                               REGISTERED VOTERS - TOTAL             PRECINCT 41                                            00 
01010010008000594000000000000000000000000000000          REGISTERED VOTERS - TOTAL                               REGISTERED VOTERS - TOTAL             PRECINCT 42                                            00 
01010010009000411000000000000000000000000000000          REGISTERED VOTERS - TOTAL                               REGISTERED VOTERS - TOTAL             PRECINCT 43                                            00 
01020010001000660000458000202000000000000000000          BALLOTS CAST - TOTAL                                    BALLOTS CAST - TOTAL                  PRECINCT 11                                            00 
01020010002000276000187000089000000000000000000          BALLOTS CAST - TOTAL                                    BALLOTS CAST - TOTAL                  PRECINCT 12                                            00 
01020010003000670000503000167000000000000000000          BALLOTS CAST - TOTAL                                    BALLOTS CAST - TOTAL                  PRECINCT 21                                            00 
01020010004000194000090000104000000000000000000          BALLOTS CAST - TOTAL                                    BALLOTS CAST - TOTAL                  PRECINCT 22                                            00 
01020010005000582000463000119000000000000000000          BALLOTS CAST - TOTAL                                    BALLOTS CAST - TOTAL                  PRECINCT 31                                            00 
01020010006000451000259000192000000000000000000          BALLOTS CAST - TOTAL                                    BALLOTS CAST - TOTAL                  PRECINCT 32                                            00 
01020010007000256000157000099000000000000000000          BALLOTS CAST - TOTAL                                    BALLOTS CAST - TOTAL                  PRECINCT 41                                            00 
01020010008000417000175000242000000000000000000          BALLOTS CAST - TOTAL                                    BALLOTS CAST - TOTAL                  PRECINCT 42                                            00 
01020010009000272000208000064000000000000000000          BALLOTS CAST - TOTAL                                    BALLOTS CAST - TOTAL                  PRECINCT 43                                            00 
01030010001000096000065000031000000000000000000REP       STRAIGHT PARTY                                          REPUBLICAN PARTY                      PRECINCT 11                                            01 
01030010002000089000059000030000000000000000000REP       STRAIGHT PARTY                                          REPUBLICAN PARTY                      PRECINCT 12                                            01 
01030010003000130000107000023000000000000000000REP       STRAIGHT PARTY                                          REPUBLICAN PARTY                      PRECINCT 21                                            01 
01030010004000041000031000010000000000000000000REP       STRAIGHT PARTY                                          REPUBLICAN PARTY                      PRECINCT 22                                            01 
01030010005000125000106000019000000000000000000REP       STRAIGHT PARTY                                          REPUBLICAN PARTY                      PRECINCT 31                                            01 
01030010006000137000082000055000000000000000000REP       STRAIGHT PARTY                                          REPUBLICAN PARTY                      PRECINCT 32                                            01 
01030010007000068000044000024000000000000000000REP       STRAIGHT PARTY                                          REPUBLICAN PARTY                      PRECINCT 41                                            01 
01030010008000142000057000085000000000000000000REP       STRAIGHT PARTY                                          REPUBLICAN PARTY                      PRECINCT 42                                            01 
01030010009000088000065000023000000000000000000REP       STRAIGHT PARTY                                          REPUBLICAN PARTY                      PRECINCT 43                                            01 
01030020001000156000115000041000000000000000000DEM       STRAIGHT PARTY                                          DEMOCRATIC PARTY                      PRECINCT 11                                            01 
01030020002000020000014000006000000000000000000DEM       STRAIGHT PARTY                                          DEMOCRATIC PARTY                      PRECINCT 12                                            01 
01030020003000120000098000022000000000000000000DEM       STRAIGHT PARTY                                          DEMOCRATIC PARTY                      PRECINCT 21                                            01 
01030020004000051000014000037000000000000000000DEM       STRAIGHT PARTY                                          DEMOCRATIC PARTY                      PRECINCT 22                                            01 
01030020005000052000042000010000000000000000000DEM       STRAIGHT PARTY                                          DEMOCRATIC PARTY                      PRECINCT 31                                            01 
01030020006000023000017000006000000000000000000DEM       STRAIGHT PARTY                                          DEMOCRATIC PARTY                      PRECINCT 32                                            01 
01030020007000017000015000002000000000000000000DEM       STRAIGHT PARTY                                          DEMOCRATIC PARTY                      PRECINCT 41                                            01 
01030020008000013000006000007000000000000000000DEM       STRAIGHT PARTY                                          DEMOCRATIC PARTY                      PRECINCT 42                                            01 
01030020009000014000013000001000000000000000000DEM       STRAIGHT PARTY                                          DEMOCRATIC PARTY                      PRECINCT 43                                            01 
01030030001000005000004000001000000000000000000LIB       STRAIGHT PARTY                                          LIBERTARIAN PARTY                     PRECINCT 11                                            01 
01030030002000000000000000000000000000000000000LIB       STRAIGHT PARTY                                          LIBERTARIAN PARTY                     PRECINCT 12                                            01 
01030030003000002000000000002000000000000000000LIB       STRAIGHT PARTY                                          LIBERTARIAN PARTY                     PRECINCT 21                                            01 
01030030004000004000000000004000000000000000000LIB       STRAIGHT PARTY                                          LIBERTARIAN PARTY                     PRECINCT 22                                            01 
01030030005000003000002000001000000000000000000LIB       STRAIGHT PARTY                                          LIBERTARIAN PARTY                     PRECINCT 31                                            01 
01030030006000000000000000000000000000000000000LIB       STRAIGHT PARTY                                          LIBERTARIAN PARTY                     PRECINCT 32                                            01 
01030030007000001000001000000000000000000000000LIB       STRAIGHT PARTY                                          LIBERTARIAN PARTY                     PRECINCT 41                                            01 
01030030008000002000001000001000000000000000000LIB       STRAIGHT PARTY                                          LIBERTARIAN PARTY                     PRECINCT 42                                            01 
01030030009000000000000000000000000000000000000LIB       STRAIGHT PARTY                                          LIBERTARIAN PARTY                     PRECINCT 43                                            01 
01030040001000002000002000000000000000000000000GRN       STRAIGHT PARTY                                          GREEN PARTY                           PRECINCT 11                                            01 
01030040002000000000000000000000000000000000000GRN       STRAIGHT PARTY                                          GREEN PARTY                           PRECINCT 12                                            01 
01030040003000001000001000000000000000000000000GRN       STRAIGHT PARTY                                          GREEN PARTY                           PRECINCT 21                                            01 
01030040004000000000000000000000000000000000000GRN       STRAIGHT PARTY                                          GREEN PARTY                           PRECINCT 22                                            01 
01030040005000000000000000000000000000000000000GRN       STRAIGHT PARTY                                          GREEN PARTY                           PRECINCT 31                                            01 
01030040006000000000000000000000000000000000000GRN       STRAIGHT PARTY                                          GREEN PARTY                           PRECINCT 32                                            01 
01030040007000000000000000000000000000000000000GRN       STRAIGHT PARTY                                          GREEN PARTY                           PRECINCT 41                                            01 
01030040008000000000000000000000000000000000000GRN       STRAIGHT PARTY                                          GREEN PARTY                           PRECINCT 42                                            01 
01030040009000000000000000000000000000000000000GRN       STRAIGHT PARTY                                          GREEN PARTY                           PRECINCT 43                                            01 
01030050001000000000000000000000000000000000000          STRAIGHT PARTY                                          OVER VOTES                            PRECINCT 11                                            01 
01030050002000000000000000000000000000000000000          STRAIGHT PARTY                                          OVER VOTES                            PRECINCT 12                                            01 
01030050003000000000000000000000000000000000000          STRAIGHT PARTY                                          OVER VOTES                            PRECINCT 21                                            01 
01030050004000000000000000000000000000000000000          STRAIGHT PARTY                                          OVER VOTES                            PRECINCT 22                                            01 
01030050005000000000000000000000000000000000000          STRAIGHT PARTY                                          OVER VOTES                            PRECINCT 31                                            01 
01030050006000000000000000000000000000000000000          STRAIGHT PARTY                                          OVER VOTES                            PRECINCT 32                                            01 
01030050007000000000000000000000000000000000000          STRAIGHT PARTY                                          OVER VOTES                            PRECINCT 41                                            01 
01030050008000000000000000000000000000000000000          STRAIGHT PARTY                                          OVER VOTES                            PRECINCT 42                                            01 
01030050009000000000000000000000000000000000000          STRAIGHT PARTY                                          OVER VOTES                            PRECINCT 43                                            01 
01030060001000401000272000129000000000000000000          STRAIGHT PARTY                                          UNDER VOTES                           PRECINCT 11                                            01 
01030060002000167000114000053000000000000000000          STRAIGHT PARTY                                          UNDER VOTES                           PRECINCT 12                                            01 
01030060003000417000297000120000000000000000000          STRAIGHT PARTY                                          UNDER VOTES                           PRECINCT 21                                            01 
01030060004000097000045000052000000000000000000          STRAIGHT PARTY                                          UNDER VOTES                           PRECINCT 22                                            01 
01030060005000402000313000089000000000000000000          STRAIGHT PARTY                                          UNDER VOTES                           PRECINCT 31                                            01 
01030060006000290000160000130000000000000000000          STRAIGHT PARTY                                          UNDER VOTES                           PRECINCT 32                                            01 
01030060007000170000097000073000000000000000000          STRAIGHT PARTY                                          UNDER VOTES                           PRECINCT 41                                            01 
01030060008000260000111000149000000000000000000          STRAIGHT PARTY                                          UNDER VOTES                           PRECINCT 42                                            01 
01030060009000170000130000040000000000000000000          STRAIGHT PARTY                                          UNDER VOTES                           PRECINCT 43                                            01 
01040010001000312000214000098000000000000000000REP       President and Vice President                            Donald J. Trump / Mike Pence          PRECINCT 11                                            01 
01040010002000228000158000070000000000000000000REP       President and Vice President                            Donald J. Trump / Mike Pence          PRECINCT 12                                            01 
01040010003000364000285000079000000000000000000REP       President and Vice President                            Donald J. Trump / Mike Pence          PRECINCT 21                                            01 
01040010004000098000057000041000000000000000000REP       President and Vice President                            Donald J. Trump / Mike Pence          PRECINCT 22                                            01 
01040010005000427000346000081000000000000000000REP       President and Vice President                            Donald J. Trump / Mike Pence          PRECINCT 31                                            01 
01040010006000387000215000172000000000000000000REP       President and Vice President                            Donald J. Trump / Mike Pence          PRECINCT 32                                            01 
01040010007000206000126000080000000000000000000REP       President and Vice President                            Donald J. Trump / Mike Pence          PRECINCT 41                                            01 
01040010008000364000153000211000000000000000000REP       President and Vice President                            Donald J. Trump / Mike Pence          PRECINCT 42                                            01 
01040010009000234000176000058000000000000000000REP       President and Vice President                            Donald J. Trump / Mike Pence          PRECINCT 43                                            01 
01040020001000297000217000080000000000000000000DEM       President and Vice President                            Hillary Clinton / Tim Kaine           PRECINCT 11                                            01 
01040020002000037000023000014000000000000000000DEM       President and Vice President                            Hillary Clinton / Tim Kaine           PRECINCT 12                                            01 
01040020003000260000189000071000000000000000000DEM       President and Vice President                            Hillary Clinton / Tim Kaine           PRECINCT 21                                            01 
01040020004000091000032000059000000000000000000DEM       President and Vice President                            Hillary Clinton / Tim Kaine           PRECINCT 22                                            01 
01040020005000125000098000027000000000000000000DEM       President and Vice President                            Hillary Clinton / Tim Kaine           PRECINCT 31                                            01 
01040020006000051000037000014000000000000000000DEM       President and Vice President                            Hillary Clinton / Tim Kaine           PRECINCT 32                                            01 
01040020007000042000031000011000000000000000000DEM       President and Vice President                            Hillary Clinton / Tim Kaine           PRECINCT 41                                            01 
01040020008000039000017000022000000000000000000DEM       President and Vice President                            Hillary Clinton / Tim Kaine           PRECINCT 42                                            01 
01040020009000031000027000004000000000000000000DEM       President and Vice President                            Hillary Clinton / Tim Kaine           PRECINCT 43                                            01 
01040030001000024000013000011000000000000000000LIB       President and Vice President                            Gary Johnson / William Weld           PRECINCT 11                                            01 
01040030002000007000004000003000000000000000000LIB       President and Vice President                            Gary Johnson / William Weld           PRECINCT 12                                            01 
01040030003000025000014000011000000000000000000LIB       President and Vice President                            Gary Johnson / William Weld           PRECINCT 21                                            01 
01040030004000004000000000004000000000000000000LIB       President and Vice President                            Gary Johnson / William Weld           PRECINCT 22                                            01 
01040030005000018000010000008000000000000000000LIB       President and Vice President                            Gary Johnson / William Weld           PRECINCT 31                                            01 
01040030006000008000004000004000000000000000000LIB       President and Vice President                            Gary Johnson / William Weld           PRECINCT 32                                            01 
01040030007000004000000000004000000000000000000LIB       President and Vice President                            Gary Johnson / William Weld           PRECINCT 41                                            01 
01040030008000010000003000007000000000000000000LIB       President and Vice President                            Gary Johnson / William Weld           PRECINCT 42                                            01 
01040030009000001000001000000000000000000000000LIB       President and Vice President                            Gary Johnson / William Weld           PRECINCT 43                                            01 
01040040001000004000002000002000000000000000000GRN       President and Vice President                            Jill Stein / Ajamu Baraka             PRECINCT 11                                            01 
01040040002000000000000000000000000000000000000GRN       President and Vice President                            Jill Stein / Ajamu Baraka             PRECINCT 12                                            01 
01040040003000003000001000002000000000000000000GRN       President and Vice President                            Jill Stein / Ajamu Baraka             PRECINCT 21                                            01 
01040040004000000000000000000000000000000000000GRN       President and Vice President                            Jill Stein / Ajamu Baraka             PRECINCT 22                                            01 
01040040005000002000002000000000000000000000000GRN       President and Vice President                            Jill Stein / Ajamu Baraka             PRECINCT 31                                            01 
01040040006000001000000000001000000000000000000GRN       President and Vice President                            Jill Stein / Ajamu Baraka             PRECINCT 32                                            01 
01040040007000000000000000000000000000000000000GRN       President and Vice President                            Jill Stein / Ajamu Baraka             PRECINCT 41                                            01 
01040040008000000000000000000000000000000000000GRN       President and Vice President                            Jill Stein / Ajamu Baraka             PRECINCT 42                                            01 
01040040009000000000000000000000000000000000000GRN       President and Vice President                            Jill Stein / Ajamu Baraka             PRECINCT 43                                            01 
01040050001000004000000000004000000000000000000NON       President and Vice President                            WRITE-IN                              PRECINCT 11                                            01 
01040050002000000000000000000000000000000000000NON       President and Vice President                            WRITE-IN                              PRECINCT 12                                            01 
01040050003000004000003000001000000000000000000NON       President and Vice President                            WRITE-IN                              PRECINCT 21                                            01 
01040050004000000000000000000000000000000000000NON       President and Vice President                            WRITE-IN                              PRECINCT 22                                            01 
01040050005000003000002000001000000000000000000NON       President and Vice President                            WRITE-IN                              PRECINCT 31                                            01 
01040050006000003000003000000000000000000000000NON       President and Vice President                            WRITE-IN                              PRECINCT 32                                            01 
01040050007000003000000000003000000000000000000NON       President and Vice President                            WRITE-IN                              PRECINCT 41                                            01 
01040050008000002000000000002000000000000000000NON       President and Vice President                            WRITE-IN                              PRECINCT 42                                            01 
01040050009000003000001000002000000000000000000NON       President and Vice President                            WRITE-IN                              PRECINCT 43                                            01 
01040060001000000000000000000000000000000000000          President and Vice President                            OVER VOTES                            PRECINCT 11                                            01 
01040060002000000000000000000000000000000000000          President and Vice President                            OVER VOTES                            PRECINCT 12                                            01 
01040060003000000000000000000000000000000000000          President and Vice President                            OVER VOTES                            PRECINCT 21                                            01 
01040060004000000000000000000000000000000000000          President and Vice President                            OVER VOTES                            PRECINCT 22                                            01 
01040060005000000000000000000000000000000000000          President and Vice President                            OVER VOTES                            PRECINCT 31                                            01 
01040060006000000000000000000000000000000000000          President and Vice President                            OVER VOTES                            PRECINCT 32                                            01 
01040060007000000000000000000000000000000000000          President and Vice President                            OVER VOTES                            PRECINCT 41                                            01 
01040060008000000000000000000000000000000000000          President and Vice President                            OVER VOTES                            PRECINCT 42                                            01 
01040060009000000000000000000000000000000000000          President and Vice President                            OVER VOTES                            PRECINCT 43                                            01 
01040070001000020000012000008000000000000000000          President and Vice President                            UNDER VOTES                           PRECINCT 11                                            01 
01040070002000004000002000002000000000000000000          President and Vice President                            UNDER VOTES                           PRECINCT 12                                            01 
01040070003000014000011000003000000000000000000          President and Vice President                            UNDER VOTES                           PRECINCT 21                                            01 
01040070004000001000001000000000000000000000000          President and Vice President                            UNDER VOTES                           PRECINCT 22                                            01 
01040070005000007000005000002000000000000000000          President and Vice President                            UNDER VOTES                           PRECINCT 31                                            01 
01040070006000001000000000001000000000000000000          President and Vice President                            UNDER VOTES                           PRECINCT 32                                            01 
01040070007000002000000000002000000000000000000          President and Vice President                            UNDER VOTES                           PRECINCT 41                                            01 
01040070008000003000002000001000000000000000000          President and Vice President                            UNDER VOTES                           PRECINCT 42                                            01 
01040070009000004000003000001000000000000000000          President and Vice President                            UNDER VOTES                           PRECINCT 43                                            01 
01050010001000263000183000080000000000000000000REP       United States Representative, Dist 34                   Rey Gonzalez Jr.                      PRECINCT 11                                            01 
01050010002000219000149000070000000000000000000REP       United States Representative, Dist 34                   Rey Gonzalez Jr.                      PRECINCT 12                                            01 
01050010003000327000263000064000000000000000000REP       United States Representative, Dist 34                   Rey Gonzalez Jr.                      PRECINCT 21                                            01 
01050010004000087000047000040000000000000000000REP       United States Representative, Dist 34                   Rey Gonzalez Jr.                      PRECINCT 22                                            01 
01050010005000387000310000077000000000000000000REP       United States Representative, Dist 34                   Rey Gonzalez Jr.                      PRECINCT 31                                            01 
01050010006000373000206000167000000000000000000REP       United States Representative, Dist 34                   Rey Gonzalez Jr.                      PRECINCT 32                                            01 
01050010007000188000110000078000000000000000000REP       United States Representative, Dist 34                   Rey Gonzalez Jr.                      PRECINCT 41                                            01 
01050010008000347000141000206000000000000000000REP       United States Representative, Dist 34                   Rey Gonzalez Jr.                      PRECINCT 42                                            01 
01050010009000229000171000058000000000000000000REP       United States Representative, Dist 34                   Rey Gonzalez Jr.                      PRECINCT 43                                            01 
01050020001000324000228000096000000000000000000DEM       United States Representative, Dist 34                   Filemon B. Vela                       PRECINCT 11                                            01 
01050020002000040000027000013000000000000000000DEM       United States Representative, Dist 34                   Filemon B. Vela                       PRECINCT 12                                            01 
01050020003000280000204000076000000000000000000DEM       United States Representative, Dist 34                   Filemon B. Vela                       PRECINCT 21                                            01 
01050020004000086000029000057000000000000000000DEM       United States Representative, Dist 34                   Filemon B. Vela                       PRECINCT 22                                            01 
01050020005000153000120000033000000000000000000DEM       United States Representative, Dist 34                   Filemon B. Vela                       PRECINCT 31                                            01 
01050020006000059000042000017000000000000000000DEM       United States Representative, Dist 34                   Filemon B. Vela                       PRECINCT 32                                            01 
01050020007000050000038000012000000000000000000DEM       United States Representative, Dist 34                   Filemon B. Vela                       PRECINCT 41                                            01 
01050020008000055000026000029000000000000000000DEM       United States Representative, Dist 34                   Filemon B. Vela                       PRECINCT 42                                            01 
01050020009000033000028000005000000000000000000DEM       United States Representative, Dist 34                   Filemon B. Vela                       PRECINCT 43                                            01 
01050030001000000000000000000000000000000000000          United States Representative, Dist 34                   OVER VOTES                            PRECINCT 11                                            01 
01050030002000000000000000000000000000000000000          United States Representative, Dist 34                   OVER VOTES                            PRECINCT 12                                            01 
01050030003000000000000000000000000000000000000          United States Representative, Dist 34                   OVER VOTES                            PRECINCT 21                                            01 
01050030004000000000000000000000000000000000000          United States Representative, Dist 34                   OVER VOTES                            PRECINCT 22                                            01 
01050030005000000000000000000000000000000000000          United States Representative, Dist 34                   OVER VOTES                            PRECINCT 31                                            01 
01050030006000000000000000000000000000000000000          United States Representative, Dist 34                   OVER VOTES                            PRECINCT 32                                            01 
01050030007000000000000000000000000000000000000          United States Representative, Dist 34                   OVER VOTES                            PRECINCT 41                                            01 
01050030008000000000000000000000000000000000000          United States Representative, Dist 34                   OVER VOTES                            PRECINCT 42                                            01 
01050030009000000000000000000000000000000000000          United States Representative, Dist 34                   OVER VOTES                            PRECINCT 43                                            01 
01050040001000073000047000026000000000000000000          United States Representative, Dist 34                   UNDER VOTES                           PRECINCT 11                                            01 
01050040002000017000011000006000000000000000000          United States Representative, Dist 34                   UNDER VOTES                           PRECINCT 12                                            01 
01050040003000063000036000027000000000000000000          United States Representative, Dist 34                   UNDER VOTES                           PRECINCT 21                                            01 
01050040004000021000014000007000000000000000000          United States Representative, Dist 34                   UNDER VOTES                           PRECINCT 22                                            01 
01050040005000042000033000009000000000000000000          United States Representative, Dist 34                   UNDER VOTES                           PRECINCT 31                                            01 
01050040006000019000011000008000000000000000000          United States Representative, Dist 34                   UNDER VOTES                           PRECINCT 32                                            01 
01050040007000018000009000009000000000000000000          United States Representative, Dist 34                   UNDER VOTES                           PRECINCT 41                                            01 
01050040008000015000008000007000000000000000000          United States Representative, Dist 34                   UNDER VOTES                           PRECINCT 42                                            01 
01050040009000010000009000001000000000000000000          United States Representative, Dist 34                   UNDER VOTES                           PRECINCT 43                                            01 
01060010001000238000162000076000000000000000000REP       Railroad Commissioner                                   Wayne Christian                       PRECINCT 11                                            01 
01060010002000214000145000069000000000000000000REP       Railroad Commissioner                                   Wayne Christian                       PRECINCT 12                                            01 
01060010003000313000263000050000000000000000000REP       Railroad Commissioner                                   Wayne Christian                       PRECINCT 21                                            01 
01060010004000083000047000036000000000000000000REP       Railroad Commissioner                                   Wayne Christian                       PRECINCT 22                                            01 
01060010005000363000297000066000000000000000000REP       Railroad Commissioner                                   Wayne Christian                       PRECINCT 31                                            01 
01060010006000361000208000153000000000000000000REP       Railroad Commissioner                                   Wayne Christian                       PRECINCT 32                                            01 
01060010007000178000103000075000000000000000000REP       Railroad Commissioner                                   Wayne Christian                       PRECINCT 41                                            01 
01060010008000327000135000192000000000000000000REP       Railroad Commissioner                                   Wayne Christian                       PRECINCT 42                                            01 
01060010009000208000156000052000000000000000000REP       Railroad Commissioner                                   Wayne Christian                       PRECINCT 43                                            01 
01060020001000274000198000076000000000000000000DEM       Railroad Commissioner                                   Grady Yarbrough                       PRECINCT 11                                            01 
01060020002000039000029000010000000000000000000DEM       Railroad Commissioner                                   Grady Yarbrough                       PRECINCT 12                                            01 
01060020003000235000168000067000000000000000000DEM       Railroad Commissioner                                   Grady Yarbrough                       PRECINCT 21                                            01 
01060020004000073000023000050000000000000000000DEM       Railroad Commissioner                                   Grady Yarbrough                       PRECINCT 22                                            01 
01060020005000140000108000032000000000000000000DEM       Railroad Commissioner                                   Grady Yarbrough                       PRECINCT 31                                            01 
01060020006000056000035000021000000000000000000DEM       Railroad Commissioner                                   Grady Yarbrough                       PRECINCT 32                                            01 
01060020007000049000036000013000000000000000000DEM       Railroad Commissioner                                   Grady Yarbrough                       PRECINCT 41                                            01 
01060020008000051000023000028000000000000000000DEM       Railroad Commissioner                                   Grady Yarbrough                       PRECINCT 42                                            01 
01060020009000038000032000006000000000000000000DEM       Railroad Commissioner                                   Grady Yarbrough                       PRECINCT 43                                            01 
01060030001000028000021000007000000000000000000LIB       Railroad Commissioner                                   Mark Miller                           PRECINCT 11                                            01 
01060030002000005000003000002000000000000000000LIB       Railroad Commissioner                                   Mark Miller                           PRECINCT 12                                            01 
01060030003000022000013000009000000000000000000LIB       Railroad Commissioner                                   Mark Miller                           PRECINCT 21                                            01 
01060030004000011000004000007000000000000000000LIB       Railroad Commissioner                                   Mark Miller                           PRECINCT 22                                            01 
01060030005000025000018000007000000000000000000LIB       Railroad Commissioner                                   Mark Miller                           PRECINCT 31                                            01 
01060030006000010000003000007000000000000000000LIB       Railroad Commissioner                                   Mark Miller                           PRECINCT 32                                            01 
01060030007000011000009000002000000000000000000LIB       Railroad Commissioner                                   Mark Miller                           PRECINCT 41                                            01 
01060030008000019000008000011000000000000000000LIB       Railroad Commissioner                                   Mark Miller                           PRECINCT 42                                            01 
01060030009000013000009000004000000000000000000LIB       Railroad Commissioner                                   Mark Miller                           PRECINCT 43                                            01 
01060040001000033000021000012000000000000000000GRN       Railroad Commissioner                                   Martina Salinas                       PRECINCT 11                                            01 
01060040002000002000001000001000000000000000000GRN       Railroad Commissioner                                   Martina Salinas                       PRECINCT 12                                            01 
01060040003000034000022000012000000000000000000GRN       Railroad Commissioner                                   Martina Salinas                       PRECINCT 21                                            01 
01060040004000003000001000002000000000000000000GRN       Railroad Commissioner                                   Martina Salinas                       PRECINCT 22                                            01 
01060040005000012000009000003000000000000000000GRN       Railroad Commissioner                                   Martina Salinas                       PRECINCT 31                                            01 
01060040006000005000003000002000000000000000000GRN       Railroad Commissioner                                   Martina Salinas                       PRECINCT 32                                            01 
01060040007000003000002000001000000000000000000GRN       Railroad Commissioner                                   Martina Salinas                       PRECINCT 41                                            01 
01060040008000007000002000005000000000000000000GRN       Railroad Commissioner                                   Martina Salinas                       PRECINCT 42                                            01 
01060040009000001000001000000000000000000000000GRN       Railroad Commissioner                                   Martina Salinas                       PRECINCT 43                                            01 
01060050001000000000000000000000000000000000000          Railroad Commissioner                                   OVER VOTES                            PRECINCT 11                                            01 
01060050002000000000000000000000000000000000000          Railroad Commissioner                                   OVER VOTES                            PRECINCT 12                                            01 
01060050003000000000000000000000000000000000000          Railroad Commissioner                                   OVER VOTES                            PRECINCT 21                                            01 
01060050004000000000000000000000000000000000000          Railroad Commissioner                                   OVER VOTES                            PRECINCT 22                                            01 
01060050005000000000000000000000000000000000000          Railroad Commissioner                                   OVER VOTES                            PRECINCT 31                                            01 
01060050006000000000000000000000000000000000000          Railroad Commissioner                                   OVER VOTES                            PRECINCT 32                                            01 
01060050007000000000000000000000000000000000000          Railroad Commissioner                                   OVER VOTES                            PRECINCT 41                                            01 
01060050008000000000000000000000000000000000000          Railroad Commissioner                                   OVER VOTES                            PRECINCT 42                                            01 
01060050009000000000000000000000000000000000000          Railroad Commissioner                                   OVER VOTES                            PRECINCT 43                                            01 
01060060001000087000056000031000000000000000000          Railroad Commissioner                                   UNDER VOTES                           PRECINCT 11                                            01 
01060060002000016000009000007000000000000000000          Railroad Commissioner                                   UNDER VOTES                           PRECINCT 12                                            01 
01060060003000066000037000029000000000000000000          Railroad Commissioner                                   UNDER VOTES                           PRECINCT 21                                            01 
01060060004000024000015000009000000000000000000          Railroad Commissioner                                   UNDER VOTES                           PRECINCT 22                                            01 
01060060005000042000031000011000000000000000000          Railroad Commissioner                                   UNDER VOTES                           PRECINCT 31                                            01 
01060060006000019000010000009000000000000000000          Railroad Commissioner                                   UNDER VOTES                           PRECINCT 32                                            01 
01060060007000015000007000008000000000000000000          Railroad Commissioner                                   UNDER VOTES                           PRECINCT 41                                            01 
01060060008000013000007000006000000000000000000          Railroad Commissioner                                   UNDER VOTES                           PRECINCT 42                                            01 
01060060009000012000010000002000000000000000000          Railroad Commissioner                                   UNDER VOTES                           PRECINCT 43                                            01 
01070010001000245000165000080000000000000000000REP       Justice, Supreme Court, Place 3                         Debra Lehrmann                        PRECINCT 11                                            01 
01070010002000215000148000067000000000000000000REP       Justice, Supreme Court, Place 3                         Debra Lehrmann                        PRECINCT 12                                            01 
01070010003000314000260000054000000000000000000REP       Justice, Supreme Court, Place 3                         Debra Lehrmann                        PRECINCT 21                                            01 
01070010004000086000047000039000000000000000000REP       Justice, Supreme Court, Place 3                         Debra Lehrmann                        PRECINCT 22                                            01 
01070010005000381000308000073000000000000000000REP       Justice, Supreme Court, Place 3                         Debra Lehrmann                        PRECINCT 31                                            01 
01070010006000361000210000151000000000000000000REP       Justice, Supreme Court, Place 3                         Debra Lehrmann                        PRECINCT 32                                            01 
01070010007000176000101000075000000000000000000REP       Justice, Supreme Court, Place 3                         Debra Lehrmann                        PRECINCT 41                                            01 
01070010008000337000142000195000000000000000000REP       Justice, Supreme Court, Place 3                         Debra Lehrmann                        PRECINCT 42                                            01 
01070010009000213000158000055000000000000000000REP       Justice, Supreme Court, Place 3                         Debra Lehrmann                        PRECINCT 43                                            01 
01070020001000275000194000081000000000000000000DEM       Justice, Supreme Court, Place 3                         Mike Westergren                       PRECINCT 11                                            01 
01070020002000040000027000013000000000000000000DEM       Justice, Supreme Court, Place 3                         Mike Westergren                       PRECINCT 12                                            01 
01070020003000237000174000063000000000000000000DEM       Justice, Supreme Court, Place 3                         Mike Westergren                       PRECINCT 21                                            01 
01070020004000075000024000051000000000000000000DEM       Justice, Supreme Court, Place 3                         Mike Westergren                       PRECINCT 22                                            01 
01070020005000126000096000030000000000000000000DEM       Justice, Supreme Court, Place 3                         Mike Westergren                       PRECINCT 31                                            01 
01070020006000060000035000025000000000000000000DEM       Justice, Supreme Court, Place 3                         Mike Westergren                       PRECINCT 32                                            01 
01070020007000044000035000009000000000000000000DEM       Justice, Supreme Court, Place 3                         Mike Westergren                       PRECINCT 41                                            01 
01070020008000046000017000029000000000000000000DEM       Justice, Supreme Court, Place 3                         Mike Westergren                       PRECINCT 42                                            01 
01070020009000033000027000006000000000000000000DEM       Justice, Supreme Court, Place 3                         Mike Westergren                       PRECINCT 43                                            01 
01070030001000020000016000004000000000000000000LIB       Justice, Supreme Court, Place 3                         Kathie Glass                          PRECINCT 11                                            01 
01070030002000004000003000001000000000000000000LIB       Justice, Supreme Court, Place 3                         Kathie Glass                          PRECINCT 12                                            01 
01070030003000020000012000008000000000000000000LIB       Justice, Supreme Court, Place 3                         Kathie Glass                          PRECINCT 21                                            01 
01070030004000008000004000004000000000000000000LIB       Justice, Supreme Court, Place 3                         Kathie Glass                          PRECINCT 22                                            01 
01070030005000018000013000005000000000000000000LIB       Justice, Supreme Court, Place 3                         Kathie Glass                          PRECINCT 31                                            01 
01070030006000005000001000004000000000000000000LIB       Justice, Supreme Court, Place 3                         Kathie Glass                          PRECINCT 32                                            01 
01070030007000014000012000002000000000000000000LIB       Justice, Supreme Court, Place 3                         Kathie Glass                          PRECINCT 41                                            01 
01070030008000015000007000008000000000000000000LIB       Justice, Supreme Court, Place 3                         Kathie Glass                          PRECINCT 42                                            01 
01070030009000010000008000002000000000000000000LIB       Justice, Supreme Court, Place 3                         Kathie Glass                          PRECINCT 43                                            01 
01070040001000025000019000006000000000000000000GRN       Justice, Supreme Court, Place 3                         Rodolfo Rivera Munoz                  PRECINCT 11                                            01 
01070040002000001000000000001000000000000000000GRN       Justice, Supreme Court, Place 3                         Rodolfo Rivera Munoz                  PRECINCT 12                                            01 
01070040003000024000014000010000000000000000000GRN       Justice, Supreme Court, Place 3                         Rodolfo Rivera Munoz                  PRECINCT 21                                            01 
01070040004000001000000000001000000000000000000GRN       Justice, Supreme Court, Place 3                         Rodolfo Rivera Munoz                  PRECINCT 22                                            01 
01070040005000009000009000000000000000000000000GRN       Justice, Supreme Court, Place 3                         Rodolfo Rivera Munoz                  PRECINCT 31                                            01 
01070040006000003000002000001000000000000000000GRN       Justice, Supreme Court, Place 3                         Rodolfo Rivera Munoz                  PRECINCT 32                                            01 
01070040007000002000000000002000000000000000000GRN       Justice, Supreme Court, Place 3                         Rodolfo Rivera Munoz                  PRECINCT 41                                            01 
01070040008000003000002000001000000000000000000GRN       Justice, Supreme Court, Place 3                         Rodolfo Rivera Munoz                  PRECINCT 42                                            01 
01070040009000002000002000000000000000000000000GRN       Justice, Supreme Court, Place 3                         Rodolfo Rivera Munoz                  PRECINCT 43                                            01 
01070050001000000000000000000000000000000000000          Justice, Supreme Court, Place 3                         OVER VOTES                            PRECINCT 11                                            01 
01070050002000000000000000000000000000000000000          Justice, Supreme Court, Place 3                         OVER VOTES                            PRECINCT 12                                            01 
01070050003000000000000000000000000000000000000          Justice, Supreme Court, Place 3                         OVER VOTES                            PRECINCT 21                                            01 
01070050004000000000000000000000000000000000000          Justice, Supreme Court, Place 3                         OVER VOTES                            PRECINCT 22                                            01 
01070050005000000000000000000000000000000000000          Justice, Supreme Court, Place 3                         OVER VOTES                            PRECINCT 31                                            01 
01070050006000000000000000000000000000000000000          Justice, Supreme Court, Place 3                         OVER VOTES                            PRECINCT 32                                            01 
01070050007000000000000000000000000000000000000          Justice, Supreme Court, Place 3                         OVER VOTES                            PRECINCT 41                                            01 
01070050008000000000000000000000000000000000000          Justice, Supreme Court, Place 3                         OVER VOTES                            PRECINCT 42                                            01 
01070050009000000000000000000000000000000000000          Justice, Supreme Court, Place 3                         OVER VOTES                            PRECINCT 43                                            01 
01070060001000095000064000031000000000000000000          Justice, Supreme Court, Place 3                         UNDER VOTES                           PRECINCT 11                                            01 
01070060002000016000009000007000000000000000000          Justice, Supreme Court, Place 3                         UNDER VOTES                           PRECINCT 12                                            01 
01070060003000075000043000032000000000000000000          Justice, Supreme Court, Place 3                         UNDER VOTES                           PRECINCT 21                                            01 
01070060004000024000015000009000000000000000000          Justice, Supreme Court, Place 3                         UNDER VOTES                           PRECINCT 22                                            01 
01070060005000048000037000011000000000000000000          Justice, Supreme Court, Place 3                         UNDER VOTES                           PRECINCT 31                                            01 
01070060006000022000011000011000000000000000000          Justice, Supreme Court, Place 3                         UNDER VOTES                           PRECINCT 32                                            01 
01070060007000020000009000011000000000000000000          Justice, Supreme Court, Place 3                         UNDER VOTES                           PRECINCT 41                                            01 
01070060008000016000007000009000000000000000000          Justice, Supreme Court, Place 3                         UNDER VOTES                           PRECINCT 42                                            01 
01070060009000014000013000001000000000000000000          Justice, Supreme Court, Place 3                         UNDER VOTES                           PRECINCT 43                                            01 
01080010001000244000166000078000000000000000000REP       Justice, Supreme Court, Place 5                         Paul Green                            PRECINCT 11                                            01 
01080010002000210000144000066000000000000000000REP       Justice, Supreme Court, Place 5                         Paul Green                            PRECINCT 12                                            01 
01080010003000323000265000058000000000000000000REP       Justice, Supreme Court, Place 5                         Paul Green                            PRECINCT 21                                            01 
01080010004000087000049000038000000000000000000REP       Justice, Supreme Court, Place 5                         Paul Green                            PRECINCT 22                                            01 
01080010005000376000302000074000000000000000000REP       Justice, Supreme Court, Place 5                         Paul Green                            PRECINCT 31                                            01 
01080010006000370000212000158000000000000000000REP       Justice, Supreme Court, Place 5                         Paul Green                            PRECINCT 32                                            01 
01080010007000183000109000074000000000000000000REP       Justice, Supreme Court, Place 5                         Paul Green                            PRECINCT 41                                            01 
01080010008000347000146000201000000000000000000REP       Justice, Supreme Court, Place 5                         Paul Green                            PRECINCT 42                                            01 
01080010009000219000163000056000000000000000000REP       Justice, Supreme Court, Place 5                         Paul Green                            PRECINCT 43                                            01 
01080020001000312000219000093000000000000000000DEM       Justice, Supreme Court, Place 5                         Dori Contreras Garza                  PRECINCT 11                                            01 
01080020002000046000031000015000000000000000000DEM       Justice, Supreme Court, Place 5                         Dori Contreras Garza                  PRECINCT 12                                            01 
01080020003000264000192000072000000000000000000DEM       Justice, Supreme Court, Place 5                         Dori Contreras Garza                  PRECINCT 21                                            01 
01080020004000077000023000054000000000000000000DEM       Justice, Supreme Court, Place 5                         Dori Contreras Garza                  PRECINCT 22                                            01 
01080020005000143000111000032000000000000000000DEM       Justice, Supreme Court, Place 5                         Dori Contreras Garza                  PRECINCT 31                                            01 
01080020006000053000036000017000000000000000000DEM       Justice, Supreme Court, Place 5                         Dori Contreras Garza                  PRECINCT 32                                            01 
01080020007000044000033000011000000000000000000DEM       Justice, Supreme Court, Place 5                         Dori Contreras Garza                  PRECINCT 41                                            01 
01080020008000044000019000025000000000000000000DEM       Justice, Supreme Court, Place 5                         Dori Contreras Garza                  PRECINCT 42                                            01 
01080020009000031000025000006000000000000000000DEM       Justice, Supreme Court, Place 5                         Dori Contreras Garza                  PRECINCT 43                                            01 
01080030001000010000009000001000000000000000000LIB       Justice, Supreme Court, Place 5                         Tom Oxford                            PRECINCT 11                                            01 
01080030002000003000002000001000000000000000000LIB       Justice, Supreme Court, Place 5                         Tom Oxford                            PRECINCT 12                                            01 
01080030003000011000005000006000000000000000000LIB       Justice, Supreme Court, Place 5                         Tom Oxford                            PRECINCT 21                                            01 
01080030004000006000002000004000000000000000000LIB       Justice, Supreme Court, Place 5                         Tom Oxford                            PRECINCT 22                                            01 
01080030005000011000009000002000000000000000000LIB       Justice, Supreme Court, Place 5                         Tom Oxford                            PRECINCT 31                                            01 
01080030006000001000000000001000000000000000000LIB       Justice, Supreme Court, Place 5                         Tom Oxford                            PRECINCT 32                                            01 
01080030007000011000007000004000000000000000000LIB       Justice, Supreme Court, Place 5                         Tom Oxford                            PRECINCT 41                                            01 
01080030008000006000002000004000000000000000000LIB       Justice, Supreme Court, Place 5                         Tom Oxford                            PRECINCT 42                                            01 
01080030009000007000006000001000000000000000000LIB       Justice, Supreme Court, Place 5                         Tom Oxford                            PRECINCT 43                                            01 
01080040001000005000004000001000000000000000000GRN       Justice, Supreme Court, Place 5                         Charles E. Waterbury                  PRECINCT 11                                            01 
01080040002000002000001000001000000000000000000GRN       Justice, Supreme Court, Place 5                         Charles E. Waterbury                  PRECINCT 12                                            01 
01080040003000003000001000002000000000000000000GRN       Justice, Supreme Court, Place 5                         Charles E. Waterbury                  PRECINCT 21                                            01 
01080040004000000000000000000000000000000000000GRN       Justice, Supreme Court, Place 5                         Charles E. Waterbury                  PRECINCT 22                                            01 
01080040005000005000004000001000000000000000000GRN       Justice, Supreme Court, Place 5                         Charles E. Waterbury                  PRECINCT 31                                            01 
01080040006000004000001000003000000000000000000GRN       Justice, Supreme Court, Place 5                         Charles E. Waterbury                  PRECINCT 32                                            01 
01080040007000000000000000000000000000000000000GRN       Justice, Supreme Court, Place 5                         Charles E. Waterbury                  PRECINCT 41                                            01 
01080040008000006000002000004000000000000000000GRN       Justice, Supreme Court, Place 5                         Charles E. Waterbury                  PRECINCT 42                                            01 
01080040009000001000001000000000000000000000000GRN       Justice, Supreme Court, Place 5                         Charles E. Waterbury                  PRECINCT 43                                            01 
01080050001000001000001000000000000000000000000          Justice, Supreme Court, Place 5                         OVER VOTES                            PRECINCT 11                                            01 
01080050002000000000000000000000000000000000000          Justice, Supreme Court, Place 5                         OVER VOTES                            PRECINCT 12                                            01 
01080050003000000000000000000000000000000000000          Justice, Supreme Court, Place 5                         OVER VOTES                            PRECINCT 21                                            01 
01080050004000000000000000000000000000000000000          Justice, Supreme Court, Place 5                         OVER VOTES                            PRECINCT 22                                            01 
01080050005000000000000000000000000000000000000          Justice, Supreme Court, Place 5                         OVER VOTES                            PRECINCT 31                                            01 
01080050006000000000000000000000000000000000000          Justice, Supreme Court, Place 5                         OVER VOTES                            PRECINCT 32                                            01 
01080050007000000000000000000000000000000000000          Justice, Supreme Court, Place 5                         OVER VOTES                            PRECINCT 41                                            01 
01080050008000000000000000000000000000000000000          Justice, Supreme Court, Place 5                         OVER VOTES                            PRECINCT 42                                            01 
01080050009000000000000000000000000000000000000          Justice, Supreme Court, Place 5                         OVER VOTES                            PRECINCT 43                                            01 
01080060001000088000059000029000000000000000000          Justice, Supreme Court, Place 5                         UNDER VOTES                           PRECINCT 11                                            01 
01080060002000015000009000006000000000000000000          Justice, Supreme Court, Place 5                         UNDER VOTES                           PRECINCT 12                                            01 
01080060003000069000040000029000000000000000000          Justice, Supreme Court, Place 5                         UNDER VOTES                           PRECINCT 21                                            01 
01080060004000024000016000008000000000000000000          Justice, Supreme Court, Place 5                         UNDER VOTES                           PRECINCT 22                                            01 
01080060005000047000037000010000000000000000000          Justice, Supreme Court, Place 5                         UNDER VOTES                           PRECINCT 31                                            01 
01080060006000023000010000013000000000000000000          Justice, Supreme Court, Place 5                         UNDER VOTES                           PRECINCT 32                                            01 
01080060007000018000008000010000000000000000000          Justice, Supreme Court, Place 5                         UNDER VOTES                           PRECINCT 41                                            01 
01080060008000014000006000008000000000000000000          Justice, Supreme Court, Place 5                         UNDER VOTES                           PRECINCT 42                                            01 
01080060009000014000013000001000000000000000000          Justice, Supreme Court, Place 5                         UNDER VOTES                           PRECINCT 43                                            01 
01090010001000274000187000087000000000000000000REP       Justice, Supreme Court, Place 9                         Eva Guzman                            PRECINCT 11                                            01 
01090010002000218000145000073000000000000000000REP       Justice, Supreme Court, Place 9                         Eva Guzman                            PRECINCT 12                                            01 
01090010003000342000278000064000000000000000000REP       Justice, Supreme Court, Place 9                         Eva Guzman                            PRECINCT 21                                            01 
01090010004000086000047000039000000000000000000REP       Justice, Supreme Court, Place 9                         Eva Guzman                            PRECINCT 22                                            01 
01090010005000374000304000070000000000000000000REP       Justice, Supreme Court, Place 9                         Eva Guzman                            PRECINCT 31                                            01 
01090010006000345000199000146000000000000000000REP       Justice, Supreme Court, Place 9                         Eva Guzman                            PRECINCT 32                                            01 
01090010007000177000103000074000000000000000000REP       Justice, Supreme Court, Place 9                         Eva Guzman                            PRECINCT 41                                            01 
01090010008000322000136000186000000000000000000REP       Justice, Supreme Court, Place 9                         Eva Guzman                            PRECINCT 42                                            01 
01090010009000209000155000054000000000000000000REP       Justice, Supreme Court, Place 9                         Eva Guzman                            PRECINCT 43                                            01 
01090020001000270000191000079000000000000000000DEM       Justice, Supreme Court, Place 9                         Savannah Robinson                     PRECINCT 11                                            01 
01090020002000036000027000009000000000000000000DEM       Justice, Supreme Court, Place 9                         Savannah Robinson                     PRECINCT 12                                            01 
01090020003000239000174000065000000000000000000DEM       Justice, Supreme Court, Place 9                         Savannah Robinson                     PRECINCT 21                                            01 
01090020004000074000024000050000000000000000000DEM       Justice, Supreme Court, Place 9                         Savannah Robinson                     PRECINCT 22                                            01 
01090020005000132000097000035000000000000000000DEM       Justice, Supreme Court, Place 9                         Savannah Robinson                     PRECINCT 31                                            01 
01090020006000064000041000023000000000000000000DEM       Justice, Supreme Court, Place 9                         Savannah Robinson                     PRECINCT 32                                            01 
01090020007000049000037000012000000000000000000DEM       Justice, Supreme Court, Place 9                         Savannah Robinson                     PRECINCT 41                                            01 
01090020008000054000021000033000000000000000000DEM       Justice, Supreme Court, Place 9                         Savannah Robinson                     PRECINCT 42                                            01 
01090020009000037000032000005000000000000000000DEM       Justice, Supreme Court, Place 9                         Savannah Robinson                     PRECINCT 43                                            01 
01090030001000019000013000006000000000000000000LIB       Justice, Supreme Court, Place 9                         Don Fulton                            PRECINCT 11                                            01 
01090030002000003000002000001000000000000000000LIB       Justice, Supreme Court, Place 9                         Don Fulton                            PRECINCT 12                                            01 
01090030003000014000008000006000000000000000000LIB       Justice, Supreme Court, Place 9                         Don Fulton                            PRECINCT 21                                            01 
01090030004000007000003000004000000000000000000LIB       Justice, Supreme Court, Place 9                         Don Fulton                            PRECINCT 22                                            01 
01090030005000020000017000003000000000000000000LIB       Justice, Supreme Court, Place 9                         Don Fulton                            PRECINCT 31                                            01 
01090030006000013000006000007000000000000000000LIB       Justice, Supreme Court, Place 9                         Don Fulton                            PRECINCT 32                                            01 
01090030007000012000009000003000000000000000000LIB       Justice, Supreme Court, Place 9                         Don Fulton                            PRECINCT 41                                            01 
01090030008000010000004000006000000000000000000LIB       Justice, Supreme Court, Place 9                         Don Fulton                            PRECINCT 42                                            01 
01090030009000006000005000001000000000000000000LIB       Justice, Supreme Court, Place 9                         Don Fulton                            PRECINCT 43                                            01 
01090040001000003000003000000000000000000000000GRN       Justice, Supreme Court, Place 9                         Jim Chisholm                          PRECINCT 11                                            01 
01090040002000002000002000000000000000000000000GRN       Justice, Supreme Court, Place 9                         Jim Chisholm                          PRECINCT 12                                            01 
01090040003000008000006000002000000000000000000GRN       Justice, Supreme Court, Place 9                         Jim Chisholm                          PRECINCT 21                                            01 
01090040004000003000000000003000000000000000000GRN       Justice, Supreme Court, Place 9                         Jim Chisholm                          PRECINCT 22                                            01 
01090040005000006000006000000000000000000000000GRN       Justice, Supreme Court, Place 9                         Jim Chisholm                          PRECINCT 31                                            01 
01090040006000006000003000003000000000000000000GRN       Justice, Supreme Court, Place 9                         Jim Chisholm                          PRECINCT 32                                            01 
01090040007000000000000000000000000000000000000GRN       Justice, Supreme Court, Place 9                         Jim Chisholm                          PRECINCT 41                                            01 
01090040008000013000005000008000000000000000000GRN       Justice, Supreme Court, Place 9                         Jim Chisholm                          PRECINCT 42                                            01 
01090040009000006000003000003000000000000000000GRN       Justice, Supreme Court, Place 9                         Jim Chisholm                          PRECINCT 43                                            01 
01090050001000000000000000000000000000000000000          Justice, Supreme Court, Place 9                         OVER VOTES                            PRECINCT 11                                            01 
01090050002000000000000000000000000000000000000          Justice, Supreme Court, Place 9                         OVER VOTES                            PRECINCT 12                                            01 
01090050003000000000000000000000000000000000000          Justice, Supreme Court, Place 9                         OVER VOTES                            PRECINCT 21                                            01 
01090050004000000000000000000000000000000000000          Justice, Supreme Court, Place 9                         OVER VOTES                            PRECINCT 22                                            01 
01090050005000000000000000000000000000000000000          Justice, Supreme Court, Place 9                         OVER VOTES                            PRECINCT 31                                            01 
01090050006000000000000000000000000000000000000          Justice, Supreme Court, Place 9                         OVER VOTES                            PRECINCT 32                                            01 
01090050007000000000000000000000000000000000000          Justice, Supreme Court, Place 9                         OVER VOTES                            PRECINCT 41                                            01 
01090050008000000000000000000000000000000000000          Justice, Supreme Court, Place 9                         OVER VOTES                            PRECINCT 42                                            01 
01090050009000000000000000000000000000000000000          Justice, Supreme Court, Place 9                         OVER VOTES                            PRECINCT 43                                            01 
01090060001000094000064000030000000000000000000          Justice, Supreme Court, Place 9                         UNDER VOTES                           PRECINCT 11                                            01 
01090060002000017000011000006000000000000000000          Justice, Supreme Court, Place 9                         UNDER VOTES                           PRECINCT 12                                            01 
01090060003000067000037000030000000000000000000          Justice, Supreme Court, Place 9                         UNDER VOTES                           PRECINCT 21                                            01 
01090060004000024000016000008000000000000000000          Justice, Supreme Court, Place 9                         UNDER VOTES                           PRECINCT 22                                            01 
01090060005000050000039000011000000000000000000          Justice, Supreme Court, Place 9                         UNDER VOTES                           PRECINCT 31                                            01 
01090060006000023000010000013000000000000000000          Justice, Supreme Court, Place 9                         UNDER VOTES                           PRECINCT 32                                            01 
01090060007000018000008000010000000000000000000          Justice, Supreme Court, Place 9                         UNDER VOTES                           PRECINCT 41                                            01 
01090060008000018000009000009000000000000000000          Justice, Supreme Court, Place 9                         UNDER VOTES                           PRECINCT 42                                            01 
01090060009000014000013000001000000000000000000          Justice, Supreme Court, Place 9                         UNDER VOTES                           PRECINCT 43                                            01 
01100010001000248000169000079000000000000000000REP       Judge, Court of Criminal Appeals, Pl 2                  Mary Lou Keel                         PRECINCT 11                                            01 
01100010002000210000143000067000000000000000000REP       Judge, Court of Criminal Appeals, Pl 2                  Mary Lou Keel                         PRECINCT 12                                            01 
01100010003000315000258000057000000000000000000REP       Judge, Court of Criminal Appeals, Pl 2                  Mary Lou Keel                         PRECINCT 21                                            01 
01100010004000085000049000036000000000000000000REP       Judge, Court of Criminal Appeals, Pl 2                  Mary Lou Keel                         PRECINCT 22                                            01 
01100010005000374000302000072000000000000000000REP       Judge, Court of Criminal Appeals, Pl 2                  Mary Lou Keel                         PRECINCT 31                                            01 
01100010006000358000208000150000000000000000000REP       Judge, Court of Criminal Appeals, Pl 2                  Mary Lou Keel                         PRECINCT 32                                            01 
01100010007000183000108000075000000000000000000REP       Judge, Court of Criminal Appeals, Pl 2                  Mary Lou Keel                         PRECINCT 41                                            01 
01100010008000330000137000193000000000000000000REP       Judge, Court of Criminal Appeals, Pl 2                  Mary Lou Keel                         PRECINCT 42                                            01 
01100010009000214000158000056000000000000000000REP       Judge, Court of Criminal Appeals, Pl 2                  Mary Lou Keel                         PRECINCT 43                                            01 
01100020001000291000207000084000000000000000000DEM       Judge, Court of Criminal Appeals, Pl 2                  Lawrence "Larry" Meyers               PRECINCT 11                                            01 
01100020002000044000029000015000000000000000000DEM       Judge, Court of Criminal Appeals, Pl 2                  Lawrence "Larry" Meyers               PRECINCT 12                                            01 
01100020003000257000189000068000000000000000000DEM       Judge, Court of Criminal Appeals, Pl 2                  Lawrence "Larry" Meyers               PRECINCT 21                                            01 
01100020004000074000023000051000000000000000000DEM       Judge, Court of Criminal Appeals, Pl 2                  Lawrence "Larry" Meyers               PRECINCT 22                                            01 
01100020005000132000103000029000000000000000000DEM       Judge, Court of Criminal Appeals, Pl 2                  Lawrence "Larry" Meyers               PRECINCT 31                                            01 
01100020006000058000036000022000000000000000000DEM       Judge, Court of Criminal Appeals, Pl 2                  Lawrence "Larry" Meyers               PRECINCT 32                                            01 
01100020007000045000032000013000000000000000000DEM       Judge, Court of Criminal Appeals, Pl 2                  Lawrence "Larry" Meyers               PRECINCT 41                                            01 
01100020008000052000020000032000000000000000000DEM       Judge, Court of Criminal Appeals, Pl 2                  Lawrence "Larry" Meyers               PRECINCT 42                                            01 
01100020009000032000027000005000000000000000000DEM       Judge, Court of Criminal Appeals, Pl 2                  Lawrence "Larry" Meyers               PRECINCT 43                                            01 
01100030001000022000016000006000000000000000000LIB       Judge, Court of Criminal Appeals, Pl 2                  Mark Ash                              PRECINCT 11                                            01 
01100030002000006000005000001000000000000000000LIB       Judge, Court of Criminal Appeals, Pl 2                  Mark Ash                              PRECINCT 12                                            01 
01100030003000012000006000006000000000000000000LIB       Judge, Court of Criminal Appeals, Pl 2                  Mark Ash                              PRECINCT 21                                            01 
01100030004000009000002000007000000000000000000LIB       Judge, Court of Criminal Appeals, Pl 2                  Mark Ash                              PRECINCT 22                                            01 
01100030005000019000013000006000000000000000000LIB       Judge, Court of Criminal Appeals, Pl 2                  Mark Ash                              PRECINCT 31                                            01 
01100030006000006000002000004000000000000000000LIB       Judge, Court of Criminal Appeals, Pl 2                  Mark Ash                              PRECINCT 32                                            01 
01100030007000007000007000000000000000000000000LIB       Judge, Court of Criminal Appeals, Pl 2                  Mark Ash                              PRECINCT 41                                            01 
01100030008000014000008000006000000000000000000LIB       Judge, Court of Criminal Appeals, Pl 2                  Mark Ash                              PRECINCT 42                                            01 
01100030009000009000007000002000000000000000000LIB       Judge, Court of Criminal Appeals, Pl 2                  Mark Ash                              PRECINCT 43                                            01 
01100040001000009000007000002000000000000000000GRN       Judge, Court of Criminal Appeals, Pl 2                  Adam King Blackwell Reposa            PRECINCT 11                                            01 
01100040002000000000000000000000000000000000000GRN       Judge, Court of Criminal Appeals, Pl 2                  Adam King Blackwell Reposa            PRECINCT 12                                            01 
01100040003000010000008000002000000000000000000GRN       Judge, Court of Criminal Appeals, Pl 2                  Adam King Blackwell Reposa            PRECINCT 21                                            01 
01100040004000001000000000001000000000000000000GRN       Judge, Court of Criminal Appeals, Pl 2                  Adam King Blackwell Reposa            PRECINCT 22                                            01 
01100040005000002000002000000000000000000000000GRN       Judge, Court of Criminal Appeals, Pl 2                  Adam King Blackwell Reposa            PRECINCT 31                                            01 
01100040006000002000002000000000000000000000000GRN       Judge, Court of Criminal Appeals, Pl 2                  Adam King Blackwell Reposa            PRECINCT 32                                            01 
01100040007000001000001000000000000000000000000GRN       Judge, Court of Criminal Appeals, Pl 2                  Adam King Blackwell Reposa            PRECINCT 41                                            01 
01100040008000002000001000001000000000000000000GRN       Judge, Court of Criminal Appeals, Pl 2                  Adam King Blackwell Reposa            PRECINCT 42                                            01 
01100040009000002000002000000000000000000000000GRN       Judge, Court of Criminal Appeals, Pl 2                  Adam King Blackwell Reposa            PRECINCT 43                                            01 
01100050001000000000000000000000000000000000000          Judge, Court of Criminal Appeals, Pl 2                  OVER VOTES                            PRECINCT 11                                            01 
01100050002000000000000000000000000000000000000          Judge, Court of Criminal Appeals, Pl 2                  OVER VOTES                            PRECINCT 12                                            01 
01100050003000000000000000000000000000000000000          Judge, Court of Criminal Appeals, Pl 2                  OVER VOTES                            PRECINCT 21                                            01 
01100050004000000000000000000000000000000000000          Judge, Court of Criminal Appeals, Pl 2                  OVER VOTES                            PRECINCT 22                                            01 
01100050005000000000000000000000000000000000000          Judge, Court of Criminal Appeals, Pl 2                  OVER VOTES                            PRECINCT 31                                            01 
01100050006000000000000000000000000000000000000          Judge, Court of Criminal Appeals, Pl 2                  OVER VOTES                            PRECINCT 32                                            01 
01100050007000000000000000000000000000000000000          Judge, Court of Criminal Appeals, Pl 2                  OVER VOTES                            PRECINCT 41                                            01 
01100050008000000000000000000000000000000000000          Judge, Court of Criminal Appeals, Pl 2                  OVER VOTES                            PRECINCT 42                                            01 
01100050009000000000000000000000000000000000000          Judge, Court of Criminal Appeals, Pl 2                  OVER VOTES                            PRECINCT 43                                            01 
01100060001000090000059000031000000000000000000          Judge, Court of Criminal Appeals, Pl 2                  UNDER VOTES                           PRECINCT 11                                            01 
01100060002000016000010000006000000000000000000          Judge, Court of Criminal Appeals, Pl 2                  UNDER VOTES                           PRECINCT 12                                            01 
01100060003000076000042000034000000000000000000          Judge, Court of Criminal Appeals, Pl 2                  UNDER VOTES                           PRECINCT 21                                            01 
01100060004000025000016000009000000000000000000          Judge, Court of Criminal Appeals, Pl 2                  UNDER VOTES                           PRECINCT 22                                            01 
01100060005000055000043000012000000000000000000          Judge, Court of Criminal Appeals, Pl 2                  UNDER VOTES                           PRECINCT 31                                            01 
01100060006000027000011000016000000000000000000          Judge, Court of Criminal Appeals, Pl 2                  UNDER VOTES                           PRECINCT 32                                            01 
01100060007000020000009000011000000000000000000          Judge, Court of Criminal Appeals, Pl 2                  UNDER VOTES                           PRECINCT 41                                            01 
01100060008000019000009000010000000000000000000          Judge, Court of Criminal Appeals, Pl 2                  UNDER VOTES                           PRECINCT 42                                            01 
01100060009000015000014000001000000000000000000          Judge, Court of Criminal Appeals, Pl 2                  UNDER VOTES                           PRECINCT 43                                            01 
01110010001000252000173000079000000000000000000REP       Judge, Court of Criminal Appeals, Pl 5                  Scott Walker                          PRECINCT 11                                            01 
01110010002000217000147000070000000000000000000REP       Judge, Court of Criminal Appeals, Pl 5                  Scott Walker                          PRECINCT 12                                            01 
01110010003000321000261000060000000000000000000REP       Judge, Court of Criminal Appeals, Pl 5                  Scott Walker                          PRECINCT 21                                            01 
01110010004000088000051000037000000000000000000REP       Judge, Court of Criminal Appeals, Pl 5                  Scott Walker                          PRECINCT 22                                            01 
01110010005000378000306000072000000000000000000REP       Judge, Court of Criminal Appeals, Pl 5                  Scott Walker                          PRECINCT 31                                            01 
01110010006000369000209000160000000000000000000REP       Judge, Court of Criminal Appeals, Pl 5                  Scott Walker                          PRECINCT 32                                            01 
01110010007000178000104000074000000000000000000REP       Judge, Court of Criminal Appeals, Pl 5                  Scott Walker                          PRECINCT 41                                            01 
01110010008000352000147000205000000000000000000REP       Judge, Court of Criminal Appeals, Pl 5                  Scott Walker                          PRECINCT 42                                            01 
01110010009000219000162000057000000000000000000REP       Judge, Court of Criminal Appeals, Pl 5                  Scott Walker                          PRECINCT 43                                            01 
01110020001000277000194000083000000000000000000DEM       Judge, Court of Criminal Appeals, Pl 5                  Betsy Johnson                         PRECINCT 11                                            01 
01110020002000038000028000010000000000000000000DEM       Judge, Court of Criminal Appeals, Pl 5                  Betsy Johnson                         PRECINCT 12                                            01 
01110020003000240000177000063000000000000000000DEM       Judge, Court of Criminal Appeals, Pl 5                  Betsy Johnson                         PRECINCT 21                                            01 
01110020004000073000021000052000000000000000000DEM       Judge, Court of Criminal Appeals, Pl 5                  Betsy Johnson                         PRECINCT 22                                            01 
01110020005000129000100000029000000000000000000DEM       Judge, Court of Criminal Appeals, Pl 5                  Betsy Johnson                         PRECINCT 31                                            01 
01110020006000055000039000016000000000000000000DEM       Judge, Court of Criminal Appeals, Pl 5                  Betsy Johnson                         PRECINCT 32                                            01 
01110020007000052000038000014000000000000000000DEM       Judge, Court of Criminal Appeals, Pl 5                  Betsy Johnson                         PRECINCT 41                                            01 
01110020008000039000016000023000000000000000000DEM       Judge, Court of Criminal Appeals, Pl 5                  Betsy Johnson                         PRECINCT 42                                            01 
01110020009000031000026000005000000000000000000DEM       Judge, Court of Criminal Appeals, Pl 5                  Betsy Johnson                         PRECINCT 43                                            01 
01110030001000010000005000005000000000000000000LIB       Judge, Court of Criminal Appeals, Pl 5                  William Bryan Strange, III            PRECINCT 11                                            01 
01110030002000004000002000002000000000000000000LIB       Judge, Court of Criminal Appeals, Pl 5                  William Bryan Strange, III            PRECINCT 12                                            01 
01110030003000011000008000003000000000000000000LIB       Judge, Court of Criminal Appeals, Pl 5                  William Bryan Strange, III            PRECINCT 21                                            01 
01110030004000007000002000005000000000000000000LIB       Judge, Court of Criminal Appeals, Pl 5                  William Bryan Strange, III            PRECINCT 22                                            01 
01110030005000011000007000004000000000000000000LIB       Judge, Court of Criminal Appeals, Pl 5                  William Bryan Strange, III            PRECINCT 31                                            01 
01110030006000002000001000001000000000000000000LIB       Judge, Court of Criminal Appeals, Pl 5                  William Bryan Strange, III            PRECINCT 32                                            01 
01110030007000006000005000001000000000000000000LIB       Judge, Court of Criminal Appeals, Pl 5                  William Bryan Strange, III            PRECINCT 41                                            01 
01110030008000008000003000005000000000000000000LIB       Judge, Court of Criminal Appeals, Pl 5                  William Bryan Strange, III            PRECINCT 42                                            01 
01110030009000004000004000000000000000000000000LIB       Judge, Court of Criminal Appeals, Pl 5                  William Bryan Strange, III            PRECINCT 43                                            01 
01110040001000024000020000004000000000000000000GRN       Judge, Court of Criminal Appeals, Pl 5                  Judith Sanders-Castro                 PRECINCT 11                                            01 
01110040002000002000001000001000000000000000000GRN       Judge, Court of Criminal Appeals, Pl 5                  Judith Sanders-Castro                 PRECINCT 12                                            01 
01110040003000022000012000010000000000000000000GRN       Judge, Court of Criminal Appeals, Pl 5                  Judith Sanders-Castro                 PRECINCT 21                                            01 
01110040004000000000000000000000000000000000000GRN       Judge, Court of Criminal Appeals, Pl 5                  Judith Sanders-Castro                 PRECINCT 22                                            01 
01110040005000008000006000002000000000000000000GRN       Judge, Court of Criminal Appeals, Pl 5                  Judith Sanders-Castro                 PRECINCT 31                                            01 
