01010010001000000000000000000000000000000000000          REGISTERED VOTERS - TOTAL                               REGISTERED VOTERS - TOTAL             PRECINCT 1                                             00 
01010010002000000000000000000000000000000000000          REGISTERED VOTERS - TOTAL                               REGISTERED VOTERS - TOTAL             PRECINCT 1A                                            00 
01010010003000000000000000000000000000000000000          REGISTERED VOTERS - TOTAL                               REGISTERED VOTERS - TOTAL             PRECINCT 1B                                            00 
01010010004000000000000000000000000000000000000          REGISTERED VOTERS - TOTAL                               REGISTERED VOTERS - TOTAL             PRECINCT 1C                                            00 
01010010005000000000000000000000000000000000000          REGISTERED VOTERS - TOTAL                               REGISTERED VOTERS - TOTAL             PRECINCT 2                                             00 
01010010006000000000000000000000000000000000000          REGISTERED VOTERS - TOTAL                               REGISTERED VOTERS - TOTAL             PRECINCT 2A                                            00 
01010010007000000000000000000000000000000000000          REGISTERED VOTERS - TOTAL                               REGISTERED VOTERS - TOTAL             PRECINCT 2B                                            00 
01010010008000000000000000000000000000000000000          REGISTERED VOTERS - TOTAL                               REGISTERED VOTERS - TOTAL             PRECINCT 2C                                            00 
01010010009000000000000000000000000000000000000          REGISTERED VOTERS - TOTAL                               REGISTERED VOTERS - TOTAL             PRECINCT 3                                             00 
01010010010000000000000000000000000000000000000          REGISTERED VOTERS - TOTAL                               REGISTERED VOTERS - TOTAL             PRECINCT 3A                                            00 
01010010011000000000000000000000000000000000000          REGISTERED VOTERS - TOTAL                               REGISTERED VOTERS - TOTAL             PRECINCT 3B                                            00 
01010010012000000000000000000000000000000000000          REGISTERED VOTERS - TOTAL                               REGISTERED VOTERS - TOTAL             PRECINCT 3C                                            00 
01010010013000000000000000000000000000000000000          REGISTERED VOTERS - TOTAL                               REGISTERED VOTERS - TOTAL             PRECINCT 3D                                            00 
01010010014000000000000000000000000000000000000          REGISTERED VOTERS - TOTAL                               REGISTERED VOTERS - TOTAL             PRECINCT 4                                             00 
01010010015000000000000000000000000000000000000          REGISTERED VOTERS - TOTAL                               REGISTERED VOTERS - TOTAL             PRECINCT 4A                                            00 
01010010016000000000000000000000000000000000000          REGISTERED VOTERS - TOTAL                               REGISTERED VOTERS - TOTAL             PRECINCT 4B                                            00 
01010010017000000000000000000000000000000000000          REGISTERED VOTERS - TOTAL                               REGISTERED VOTERS - TOTAL             PRECINCT 4C                                            00 
01020010001002841001014001827000000000000000000          BALLOTS CAST - TOTAL                                    BALLOTS CAST - TOTAL                  PRECINCT 1                                             00 
01020010002002244000742001043000196000263000000          BALLOTS CAST - TOTAL                                    BALLOTS CAST - TOTAL                  PRECINCT 1A                                            00 
01020010003002664000980001684000000000000000000          BALLOTS CAST - TOTAL                                    BALLOTS CAST - TOTAL                  PRECINCT 1B                                            00 
01020010004001694000646001048000000000000000000          BALLOTS CAST - TOTAL                                    BALLOTS CAST - TOTAL                  PRECINCT 1C                                            00 
01020010005002666000915001354000127000270000000          BALLOTS CAST - TOTAL                                    BALLOTS CAST - TOTAL                  PRECINCT 2                                             00 
01020010006002738000853001401000170000314000000          BALLOTS CAST - TOTAL                                    BALLOTS CAST - TOTAL                  PRECINCT 2A                                            00 
01020010007001253000329000648000089000187000000          BALLOTS CAST - TOTAL                                    BALLOTS CAST - TOTAL                  PRECINCT 2B                                            00 
01020010008002672001111001561000000000000000000          BALLOTS CAST - TOTAL                                    BALLOTS CAST - TOTAL                  PRECINCT 2C                                            00 
01020010009000288000097000115000041000035000000          BALLOTS CAST - TOTAL                                    BALLOTS CAST - TOTAL                  PRECINCT 3                                             00 
01020010010000783000219000326000089000149000000          BALLOTS CAST - TOTAL                                    BALLOTS CAST - TOTAL                  PRECINCT 3A                                            00 
01020010011001456000514000942000000000000000000          BALLOTS CAST - TOTAL                                    BALLOTS CAST - TOTAL                  PRECINCT 3B                                            00 
01020010012001814000531000997000097000189000000          BALLOTS CAST - TOTAL                                    BALLOTS CAST - TOTAL                  PRECINCT 3C                                            00 
01020010013003062001185001877000000000000000000          BALLOTS CAST - TOTAL                                    BALLOTS CAST - TOTAL                  PRECINCT 3D                                            00 
01020010014001288000557000731000000000000000000          BALLOTS CAST - TOTAL                                    BALLOTS CAST - TOTAL                  PRECINCT 4                                             00 
01020010015003306001181002125000000000000000000          BALLOTS CAST - TOTAL                                    BALLOTS CAST - TOTAL                  PRECINCT 4A                                            00 
01020010016000948000352000383000104000109000000          BALLOTS CAST - TOTAL                                    BALLOTS CAST - TOTAL                  PRECINCT 4B                                            00 
01020010017001985000522000968000188000307000000          BALLOTS CAST - TOTAL                                    BALLOTS CAST - TOTAL                  PRECINCT 4C                                            00 
01030010001001294000422000872000000000000000000REP       Straight Party                                          Republican Party                      PRECINCT 1                                             01 
01030010002000986000343000466000075000102000000REP       Straight Party                                          Republican Party                      PRECINCT 1A                                            01 
01030010003001338000473000865000000000000000000REP       Straight Party                                          Republican Party                      PRECINCT 1B                                            01 
01030010004000831000307000524000000000000000000REP       Straight Party                                          Republican Party                      PRECINCT 1C                                            01 
01030010005001302000435000692000050000125000000REP       Straight Party                                          Republican Party                      PRECINCT 2                                             01 
01030010006001288000394000686000068000140000000REP       Straight Party                                          Republican Party                      PRECINCT 2A                                            01 
01030010007000560000154000289000044000073000000REP       Straight Party                                          Republican Party                      PRECINCT 2B                                            01 
01030010008001311000510000801000000000000000000REP       Straight Party                                          Republican Party                      PRECINCT 2C                                            01 
01030010009000104000039000053000004000008000000REP       Straight Party                                          Republican Party                      PRECINCT 3                                             01 
01030010010000266000075000119000023000049000000REP       Straight Party                                          Republican Party                      PRECINCT 3A                                            01 
01030010011000589000217000372000000000000000000REP       Straight Party                                          Republican Party                      PRECINCT 3B                                            01 
01030010012000947000253000556000043000095000000REP       Straight Party                                          Republican Party                      PRECINCT 3C                                            01 
01030010013001590000611000979000000000000000000REP       Straight Party                                          Republican Party                      PRECINCT 3D                                            01 
01030010014000689000290000399000000000000000000REP       Straight Party                                          Republican Party                      PRECINCT 4                                             01 
01030010015001584000583001001000000000000000000REP       Straight Party                                          Republican Party                      PRECINCT 4A                                            01 
01030010016000437000154000195000040000048000000REP       Straight Party                                          Republican Party                      PRECINCT 4B                                            01 
01030010017000969000265000479000069000156000000REP       Straight Party                                          Republican Party                      PRECINCT 4C                                            01 
01030020001000313000069000244000000000000000000DEM       Straight Party                                          Democratic Party                      PRECINCT 1                                             01 
01030020002000367000075000203000023000066000000DEM       Straight Party                                          Democratic Party                      PRECINCT 1A                                            01 
01030020003000235000042000193000000000000000000DEM       Straight Party                                          Democratic Party                      PRECINCT 1B                                            01 
01030020004000155000030000125000000000000000000DEM       Straight Party                                          Democratic Party                      PRECINCT 1C                                            01 
01030020005000304000078000175000014000037000000DEM       Straight Party                                          Democratic Party                      PRECINCT 2                                             01 
01030020006000386000086000234000014000052000000DEM       Straight Party                                          Democratic Party                      PRECINCT 2A                                            01 
01030020007000209000030000143000006000030000000DEM       Straight Party                                          Democratic Party                      PRECINCT 2B                                            01 
01030020008000203000053000150000000000000000000DEM       Straight Party                                          Democratic Party                      PRECINCT 2C                                            01 
01030020009000103000029000038000020000016000000DEM       Straight Party                                          Democratic Party                      PRECINCT 3                                             01 
01030020010000266000061000113000036000056000000DEM       Straight Party                                          Democratic Party                      PRECINCT 3A                                            01 
01030020011000355000082000273000000000000000000DEM       Straight Party                                          Democratic Party                      PRECINCT 3B                                            01 
01030020012000121000033000067000002000019000000DEM       Straight Party                                          Democratic Party                      PRECINCT 3C                                            01 
01030020013000303000073000230000000000000000000DEM       Straight Party                                          Democratic Party                      PRECINCT 3D                                            01 
01030020014000139000036000103000000000000000000DEM       Straight Party                                          Democratic Party                      PRECINCT 4                                             01 
01030020015000481000095000386000000000000000000DEM       Straight Party                                          Democratic Party                      PRECINCT 4A                                            01 
01030020016000142000034000068000012000028000000DEM       Straight Party                                          Democratic Party                      PRECINCT 4B                                            01 
01030020017000309000056000178000019000056000000DEM       Straight Party                                          Democratic Party                      PRECINCT 4C                                            01 
01030030001000009000002000007000000000000000000LIB       Straight Party                                          Libertarian Party                     PRECINCT 1                                             01 
01030030002000015000003000007000001000004000000LIB       Straight Party                                          Libertarian Party                     PRECINCT 1A                                            01 
01030030003000016000002000014000000000000000000LIB       Straight Party                                          Libertarian Party                     PRECINCT 1B                                            01 
01030030004000012000004000008000000000000000000LIB       Straight Party                                          Libertarian Party                     PRECINCT 1C                                            01 
01030030005000019000002000011000000000006000000LIB       Straight Party                                          Libertarian Party                     PRECINCT 2                                             01 
01030030006000015000002000006000001000006000000LIB       Straight Party                                          Libertarian Party                     PRECINCT 2A                                            01 
01030030007000016000002000010000001000003000000LIB       Straight Party                                          Libertarian Party                     PRECINCT 2B                                            01 
01030030008000010000002000008000000000000000000LIB       Straight Party                                          Libertarian Party                     PRECINCT 2C                                            01 
01030030009000003000000000000000001000002000000LIB       Straight Party                                          Libertarian Party                     PRECINCT 3                                             01 
01030030010000014000005000004000000000005000000LIB       Straight Party                                          Libertarian Party                     PRECINCT 3A                                            01 
01030030011000009000002000007000000000000000000LIB       Straight Party                                          Libertarian Party                     PRECINCT 3B                                            01 
01030030012000012000003000006000000000003000000LIB       Straight Party                                          Libertarian Party                     PRECINCT 3C                                            01 
01030030013000012000003000009000000000000000000LIB       Straight Party                                          Libertarian Party                     PRECINCT 3D                                            01 
01030030014000010000002000008000000000000000000LIB       Straight Party                                          Libertarian Party                     PRECINCT 4                                             01 
01030030015000025000006000019000000000000000000LIB       Straight Party                                          Libertarian Party                     PRECINCT 4A                                            01 
01030030016000007000002000003000001000001000000LIB       Straight Party                                          Libertarian Party                     PRECINCT 4B                                            01 
01030030017000018000000000011000002000005000000LIB       Straight Party                                          Libertarian Party                     PRECINCT 4C                                            01 
01030040001000002000000000002000000000000000000GRN       Straight Party                                          Green Party                           PRECINCT 1                                             01 
01030040002000004000001000002000001000000000000GRN       Straight Party                                          Green Party                           PRECINCT 1A                                            01 
01030040003000003000000000003000000000000000000GRN       Straight Party                                          Green Party                           PRECINCT 1B                                            01 
01030040004000001000000000001000000000000000000GRN       Straight Party                                          Green Party                           PRECINCT 1C                                            01 
01030040005000009000005000003000001000000000000GRN       Straight Party                                          Green Party                           PRECINCT 2                                             01 
01030040006000005000000000002000002000001000000GRN       Straight Party                                          Green Party                           PRECINCT 2A                                            01 
01030040007000003000000000001000001000001000000GRN       Straight Party                                          Green Party                           PRECINCT 2B                                            01 
01030040008000002000000000002000000000000000000GRN       Straight Party                                          Green Party                           PRECINCT 2C                                            01 
01030040009000001000000000000000000000001000000GRN       Straight Party                                          Green Party                           PRECINCT 3                                             01 
01030040010000004000000000001000001000002000000GRN       Straight Party                                          Green Party                           PRECINCT 3A                                            01 
01030040011000003000001000002000000000000000000GRN       Straight Party                                          Green Party                           PRECINCT 3B                                            01 
01030040012000000000000000000000000000000000000GRN       Straight Party                                          Green Party                           PRECINCT 3C                                            01 
01030040013000002000001000001000000000000000000GRN       Straight Party                                          Green Party                           PRECINCT 3D                                            01 
01030040014000000000000000000000000000000000000GRN       Straight Party                                          Green Party                           PRECINCT 4                                             01 
01030040015000007000003000004000000000000000000GRN       Straight Party                                          Green Party                           PRECINCT 4A                                            01 
01030040016000006000002000001000001000002000000GRN       Straight Party                                          Green Party                           PRECINCT 4B                                            01 
01030040017000008000001000005000000000002000000GRN       Straight Party                                          Green Party                           PRECINCT 4C                                            01 
01030050001000000000000000000000000000000000000          Straight Party                                          OVER VOTES                            PRECINCT 1                                             01 
01030050002000000000000000000000000000000000000          Straight Party                                          OVER VOTES                            PRECINCT 1A                                            01 
01030050003000000000000000000000000000000000000          Straight Party                                          OVER VOTES                            PRECINCT 1B                                            01 
01030050004000000000000000000000000000000000000          Straight Party                                          OVER VOTES                            PRECINCT 1C                                            01 
01030050005000001000001000000000000000000000000          Straight Party                                          OVER VOTES                            PRECINCT 2                                             01 
01030050006000000000000000000000000000000000000          Straight Party                                          OVER VOTES                            PRECINCT 2A                                            01 
01030050007000000000000000000000000000000000000          Straight Party                                          OVER VOTES                            PRECINCT 2B                                            01 
01030050008000000000000000000000000000000000000          Straight Party                                          OVER VOTES                            PRECINCT 2C                                            01 
01030050009000000000000000000000000000000000000          Straight Party                                          OVER VOTES                            PRECINCT 3                                             01 
01030050010000000000000000000000000000000000000          Straight Party                                          OVER VOTES                            PRECINCT 3A                                            01 
01030050011000000000000000000000000000000000000          Straight Party                                          OVER VOTES                            PRECINCT 3B                                            01 
01030050012000000000000000000000000000000000000          Straight Party                                          OVER VOTES                            PRECINCT 3C                                            01 
01030050013000001000001000000000000000000000000          Straight Party                                          OVER VOTES                            PRECINCT 3D                                            01 
01030050014000000000000000000000000000000000000          Straight Party                                          OVER VOTES                            PRECINCT 4                                             01 
01030050015000000000000000000000000000000000000          Straight Party                                          OVER VOTES                            PRECINCT 4A                                            01 
01030050016000000000000000000000000000000000000          Straight Party                                          OVER VOTES                            PRECINCT 4B                                            01 
01030050017000000000000000000000000000000000000          Straight Party                                          OVER VOTES                            PRECINCT 4C                                            01 
01030060001001223000521000702000000000000000000          Straight Party                                          UNDER VOTES                           PRECINCT 1                                             01 
01030060002000872000320000365000096000091000000          Straight Party                                          UNDER VOTES                           PRECINCT 1A                                            01 
01030060003001072000463000609000000000000000000          Straight Party                                          UNDER VOTES                           PRECINCT 1B                                            01 
01030060004000695000305000390000000000000000000          Straight Party                                          UNDER VOTES                           PRECINCT 1C                                            01 
01030060005001031000394000473000062000102000000          Straight Party                                          UNDER VOTES                           PRECINCT 2                                             01 
01030060006001044000371000473000085000115000000          Straight Party                                          UNDER VOTES                           PRECINCT 2A                                            01 
01030060007000465000143000205000037000080000000          Straight Party                                          UNDER VOTES                           PRECINCT 2B                                            01 
01030060008001146000546000600000000000000000000          Straight Party                                          UNDER VOTES                           PRECINCT 2C                                            01 
01030060009000077000029000024000016000008000000          Straight Party                                          UNDER VOTES                           PRECINCT 3                                             01 
01030060010000233000078000089000029000037000000          Straight Party                                          UNDER VOTES                           PRECINCT 3A                                            01 
01030060011000500000212000288000000000000000000          Straight Party                                          UNDER VOTES                           PRECINCT 3B                                            01 
01030060012000734000242000368000052000072000000          Straight Party                                          UNDER VOTES                           PRECINCT 3C                                            01 
01030060013001154000496000658000000000000000000          Straight Party                                          UNDER VOTES                           PRECINCT 3D                                            01 
01030060014000450000229000221000000000000000000          Straight Party                                          UNDER VOTES                           PRECINCT 4                                             01 
01030060015001209000494000715000000000000000000          Straight Party                                          UNDER VOTES                           PRECINCT 4A                                            01 
01030060016000356000160000116000050000030000000          Straight Party                                          UNDER VOTES                           PRECINCT 4B                                            01 
01030060017000681000200000295000098000088000000          Straight Party                                          UNDER VOTES                           PRECINCT 4C                                            01 
01040010001002001000768001233000000000000000000REP       President and Vice President                            Donald J. Trump / Mike Pence          PRECINCT 1                                             01 
01040010002001466000545000652000122000147000000REP       President and Vice President                            Donald J. Trump / Mike Pence          PRECINCT 1A                                            01 
01040010003002021000817001204000000000000000000REP       President and Vice President                            Donald J. Trump / Mike Pence          PRECINCT 1B                                            01 
01040010004001239000516000723000000000000000000REP       President and Vice President                            Donald J. Trump / Mike Pence          PRECINCT 1C                                            01 
01040010005001886000698000926000087000175000000REP       President and Vice President                            Donald J. Trump / Mike Pence          PRECINCT 2                                             01 
01040010006001877000616000945000120000196000000REP       President and Vice President                            Donald J. Trump / Mike Pence          PRECINCT 2A                                            01 
01040010007000814000246000395000070000103000000REP       President and Vice President                            Donald J. Trump / Mike Pence          PRECINCT 2B                                            01 
01040010008002063000908001155000000000000000000REP       President and Vice President                            Donald J. Trump / Mike Pence          PRECINCT 2C                                            01 
01040010009000146000054000063000013000016000000REP       President and Vice President                            Donald J. Trump / Mike Pence          PRECINCT 3                                             01 
01040010010000376000112000151000045000068000000REP       President and Vice President                            Donald J. Trump / Mike Pence          PRECINCT 3A                                            01 
01040010011000861000345000516000000000000000000REP       President and Vice President                            Donald J. Trump / Mike Pence          PRECINCT 3B                                            01 
01040010012001450000442000801000075000132000000REP       President and Vice President                            Donald J. Trump / Mike Pence          PRECINCT 3C                                            01 
01040010013002387000994001393000000000000000000REP       President and Vice President                            Donald J. Trump / Mike Pence          PRECINCT 3D                                            01 
01040010014001004000463000541000000000000000000REP       President and Vice President                            Donald J. Trump / Mike Pence          PRECINCT 4                                             01 
01040010015002303000931001372000000000000000000REP       President and Vice President                            Donald J. Trump / Mike Pence          PRECINCT 4A                                            01 
01040010016000667000269000262000070000066000000REP       President and Vice President                            Donald J. Trump / Mike Pence          PRECINCT 4B                                            01 
01040010017001429000416000656000147000210000000REP       President and Vice President                            Donald J. Trump / Mike Pence          PRECINCT 4C                                            01 
01040020001000695000202000493000000000000000000DEM       President and Vice President                            Hillary Clinton / Tim Kaine           PRECINCT 1                                             01 
01040020002000625000154000322000050000099000000DEM       President and Vice President                            Hillary Clinton / Tim Kaine           PRECINCT 1A                                            01 
01040020003000520000124000396000000000000000000DEM       President and Vice President                            Hillary Clinton / Tim Kaine           PRECINCT 1B                                            01 
01040020004000341000088000253000000000000000000DEM       President and Vice President                            Hillary Clinton / Tim Kaine           PRECINCT 1C                                            01 
01040020005000633000181000354000027000071000000DEM       President and Vice President                            Hillary Clinton / Tim Kaine           PRECINCT 2                                             01 
01040020006000725000195000402000036000092000000DEM       President and Vice President                            Hillary Clinton / Tim Kaine           PRECINCT 2A                                            01 
01040020007000372000073000223000014000062000000DEM       President and Vice President                            Hillary Clinton / Tim Kaine           PRECINCT 2B                                            01 
01040020008000500000156000344000000000000000000DEM       President and Vice President                            Hillary Clinton / Tim Kaine           PRECINCT 2C                                            01 
01040020009000132000040000047000027000018000000DEM       President and Vice President                            Hillary Clinton / Tim Kaine           PRECINCT 3                                             01 
01040020010000356000089000162000039000066000000DEM       President and Vice President                            Hillary Clinton / Tim Kaine           PRECINCT 3A                                            01 
01040020011000529000139000390000000000000000000DEM       President and Vice President                            Hillary Clinton / Tim Kaine           PRECINCT 3B                                            01 
01040020012000266000067000143000016000040000000DEM       President and Vice President                            Hillary Clinton / Tim Kaine           PRECINCT 3C                                            01 
01040020013000551000149000402000000000000000000DEM       President and Vice President                            Hillary Clinton / Tim Kaine           PRECINCT 3D                                            01 
01040020014000230000068000162000000000000000000DEM       President and Vice President                            Hillary Clinton / Tim Kaine           PRECINCT 4                                             01 
01040020015000798000172000626000000000000000000DEM       President and Vice President                            Hillary Clinton / Tim Kaine           PRECINCT 4A                                            01 
01040020016000231000065000104000025000037000000DEM       President and Vice President                            Hillary Clinton / Tim Kaine           PRECINCT 4B                                            01 
01040020017000462000091000259000034000078000000DEM       President and Vice President                            Hillary Clinton / Tim Kaine           PRECINCT 4C                                            01 
01040030001000079000015000064000000000000000000LIB       President and Vice President                            Gary Johnson / William Weld           PRECINCT 1                                             01 
01040030002000092000021000045000015000011000000LIB       President and Vice President                            Gary Johnson / William Weld           PRECINCT 1A                                            01 
01040030003000083000021000062000000000000000000LIB       President and Vice President                            Gary Johnson / William Weld           PRECINCT 1B                                            01 
01040030004000071000028000043000000000000000000LIB       President and Vice President                            Gary Johnson / William Weld           PRECINCT 1C                                            01 
01040030005000084000011000051000007000015000000LIB       President and Vice President                            Gary Johnson / William Weld           PRECINCT 2                                             01 
01040030006000085000024000037000007000017000000LIB       President and Vice President                            Gary Johnson / William Weld           PRECINCT 2A                                            01 
01040030007000041000009000016000003000013000000LIB       President and Vice President                            Gary Johnson / William Weld           PRECINCT 2B                                            01 
01040030008000059000024000035000000000000000000LIB       President and Vice President                            Gary Johnson / William Weld           PRECINCT 2C                                            01 
01040030009000006000001000004000000000001000000LIB       President and Vice President                            Gary Johnson / William Weld           PRECINCT 3                                             01 
01040030010000032000009000011000003000009000000LIB       President and Vice President                            Gary Johnson / William Weld           PRECINCT 3A                                            01 
01040030011000043000019000024000000000000000000LIB       President and Vice President                            Gary Johnson / William Weld           PRECINCT 3B                                            01 
01040030012000049000007000031000001000010000000LIB       President and Vice President                            Gary Johnson / William Weld           PRECINCT 3C                                            01 
01040030013000075000019000056000000000000000000LIB       President and Vice President                            Gary Johnson / William Weld           PRECINCT 3D                                            01 
01040030014000032000012000020000000000000000000LIB       President and Vice President                            Gary Johnson / William Weld           PRECINCT 4                                             01 
01040030015000117000035000082000000000000000000LIB       President and Vice President                            Gary Johnson / William Weld           PRECINCT 4A                                            01 
01040030016000032000009000014000006000003000000LIB       President and Vice President                            Gary Johnson / William Weld           PRECINCT 4B                                            01 
01040030017000054000007000034000004000009000000LIB       President and Vice President                            Gary Johnson / William Weld           PRECINCT 4C                                            01 
01040040001000012000005000007000000000000000000GRN       President and Vice President                            Jill Stein / Ajamu Baraka             PRECINCT 1                                             01 
01040040002000009000003000002000003000001000000GRN       President and Vice President                            Jill Stein / Ajamu Baraka             PRECINCT 1A                                            01 
01040040003000008000001000007000000000000000000GRN       President and Vice President                            Jill Stein / Ajamu Baraka             PRECINCT 1B                                            01 
01040040004000009000001000008000000000000000000GRN       President and Vice President                            Jill Stein / Ajamu Baraka             PRECINCT 1C                                            01 
01040040005000019000009000008000001000001000000GRN       President and Vice President                            Jill Stein / Ajamu Baraka             PRECINCT 2                                             01 
01040040006000015000005000004000002000004000000GRN       President and Vice President                            Jill Stein / Ajamu Baraka             PRECINCT 2A                                            01 
01040040007000010000000000007000000000003000000GRN       President and Vice President                            Jill Stein / Ajamu Baraka             PRECINCT 2B                                            01 
01040040008000007000003000004000000000000000000GRN       President and Vice President                            Jill Stein / Ajamu Baraka             PRECINCT 2C                                            01 
01040040009000000000000000000000000000000000000GRN       President and Vice President                            Jill Stein / Ajamu Baraka             PRECINCT 3                                             01 
01040040010000007000003000001000001000002000000GRN       President and Vice President                            Jill Stein / Ajamu Baraka             PRECINCT 3A                                            01 
01040040011000003000001000002000000000000000000GRN       President and Vice President                            Jill Stein / Ajamu Baraka             PRECINCT 3B                                            01 
01040040012000001000000000001000000000000000000GRN       President and Vice President                            Jill Stein / Ajamu Baraka             PRECINCT 3C                                            01 
01040040013000011000008000003000000000000000000GRN       President and Vice President                            Jill Stein / Ajamu Baraka             PRECINCT 3D                                            01 
01040040014000003000002000001000000000000000000GRN       President and Vice President                            Jill Stein / Ajamu Baraka             PRECINCT 4                                             01 
01040040015000025000011000014000000000000000000GRN       President and Vice President                            Jill Stein / Ajamu Baraka             PRECINCT 4A                                            01 
01040040016000007000005000001000001000000000000GRN       President and Vice President                            Jill Stein / Ajamu Baraka             PRECINCT 4B                                            01 
01040040017000010000001000005000001000003000000GRN       President and Vice President                            Jill Stein / Ajamu Baraka             PRECINCT 4C                                            01 
01040050001000044000020000024000000000000000000NON       President and Vice President                            WRITE-IN                              PRECINCT 1                                             01 
01040050002000041000015000018000005000003000000NON       President and Vice President                            WRITE-IN                              PRECINCT 1A                                            01 
01040050003000027000013000014000000000000000000NON       President and Vice President                            WRITE-IN                              PRECINCT 1B                                            01 
01040050004000025000010000015000000000000000000NON       President and Vice President                            WRITE-IN                              PRECINCT 1C                                            01 
01040050005000029000012000007000005000005000000NON       President and Vice President                            WRITE-IN                              PRECINCT 2                                             01 
01040050006000026000013000007000001000005000000NON       President and Vice President                            WRITE-IN                              PRECINCT 2A                                            01 
01040050007000011000001000003000002000005000000NON       President and Vice President                            WRITE-IN                              PRECINCT 2B                                            01 
01040050008000033000017000016000000000000000000NON       President and Vice President                            WRITE-IN                              PRECINCT 2C                                            01 
01040050009000003000001000001000001000000000000NON       President and Vice President                            WRITE-IN                              PRECINCT 3                                             01 
01040050010000010000004000001000001000004000000NON       President and Vice President                            WRITE-IN                              PRECINCT 3A                                            01 
01040050011000019000009000010000000000000000000NON       President and Vice President                            WRITE-IN                              PRECINCT 3B                                            01 
01040050012000037000008000018000005000006000000NON       President and Vice President                            WRITE-IN                              PRECINCT 3C                                            01 
01040050013000029000011000018000000000000000000NON       President and Vice President                            WRITE-IN                              PRECINCT 3D                                            01 
01040050014000015000009000006000000000000000000NON       President and Vice President                            WRITE-IN                              PRECINCT 4                                             01 
01040050015000052000028000024000000000000000000NON       President and Vice President                            WRITE-IN                              PRECINCT 4A                                            01 
01040050016000008000002000002000002000002000000NON       President and Vice President                            WRITE-IN                              PRECINCT 4B                                            01 
01040050017000027000006000013000002000006000000NON       President and Vice President                            WRITE-IN                              PRECINCT 4C                                            01 
01040060001000001000001000000000000000000000000          President and Vice President                            OVER VOTES                            PRECINCT 1                                             01 
01040060002000000000000000000000000000000000000          President and Vice President                            OVER VOTES                            PRECINCT 1A                                            01 
01040060003000000000000000000000000000000000000          President and Vice President                            OVER VOTES                            PRECINCT 1B                                            01 
01040060004000000000000000000000000000000000000          President and Vice President                            OVER VOTES                            PRECINCT 1C                                            01 
01040060005000000000000000000000000000000000000          President and Vice President                            OVER VOTES                            PRECINCT 2                                             01 
01040060006000000000000000000000000000000000000          President and Vice President                            OVER VOTES                            PRECINCT 2A                                            01 
01040060007000000000000000000000000000000000000          President and Vice President                            OVER VOTES                            PRECINCT 2B                                            01 
01040060008000000000000000000000000000000000000          President and Vice President                            OVER VOTES                            PRECINCT 2C                                            01 
01040060009000000000000000000000000000000000000          President and Vice President                            OVER VOTES                            PRECINCT 3                                             01 
01040060010000000000000000000000000000000000000          President and Vice President                            OVER VOTES                            PRECINCT 3A                                            01 
01040060011000000000000000000000000000000000000          President and Vice President                            OVER VOTES                            PRECINCT 3B                                            01 
01040060012000000000000000000000000000000000000          President and Vice President                            OVER VOTES                            PRECINCT 3C                                            01 
01040060013000000000000000000000000000000000000          President and Vice President                            OVER VOTES                            PRECINCT 3D                                            01 
01040060014000000000000000000000000000000000000          President and Vice President                            OVER VOTES                            PRECINCT 4                                             01 
01040060015000000000000000000000000000000000000          President and Vice President                            OVER VOTES                            PRECINCT 4A                                            01 
01040060016000000000000000000000000000000000000          President and Vice President                            OVER VOTES                            PRECINCT 4B                                            01 
01040060017000000000000000000000000000000000000          President and Vice President                            OVER VOTES                            PRECINCT 4C                                            01 
01040070001000009000003000006000000000000000000          President and Vice President                            UNDER VOTES                           PRECINCT 1                                             01 
01040070002000011000004000004000001000002000000          President and Vice President                            UNDER VOTES                           PRECINCT 1A                                            01 
01040070003000005000004000001000000000000000000          President and Vice President                            UNDER VOTES                           PRECINCT 1B                                            01 
01040070004000009000003000006000000000000000000          President and Vice President                            UNDER VOTES                           PRECINCT 1C                                            01 
01040070005000015000004000008000000000003000000          President and Vice President                            UNDER VOTES                           PRECINCT 2                                             01 
01040070006000010000000000006000004000000000000          President and Vice President                            UNDER VOTES                           PRECINCT 2A                                            01 
01040070007000005000000000004000000000001000000          President and Vice President                            UNDER VOTES                           PRECINCT 2B                                            01 
01040070008000010000003000007000000000000000000          President and Vice President                            UNDER VOTES                           PRECINCT 2C                                            01 
01040070009000001000001000000000000000000000000          President and Vice President                            UNDER VOTES                           PRECINCT 3                                             01 
01040070010000002000002000000000000000000000000          President and Vice President                            UNDER VOTES                           PRECINCT 3A                                            01 
01040070011000001000001000000000000000000000000          President and Vice President                            UNDER VOTES                           PRECINCT 3B                                            01 
01040070012000011000007000003000000000001000000          President and Vice President                            UNDER VOTES                           PRECINCT 3C                                            01 
01040070013000009000004000005000000000000000000          President and Vice President                            UNDER VOTES                           PRECINCT 3D                                            01 
01040070014000004000003000001000000000000000000          President and Vice President                            UNDER VOTES                           PRECINCT 4                                             01 
01040070015000011000004000007000000000000000000          President and Vice President                            UNDER VOTES                           PRECINCT 4A                                            01 
01040070016000003000002000000000000000001000000          President and Vice President                            UNDER VOTES                           PRECINCT 4B                                            01 
01040070017000003000001000001000000000001000000          President and Vice President                            UNDER VOTES                           PRECINCT 4C                                            01 
01050010001002223000830001393000000000000000000REP       US Representative, District 4                           John Ratcliffe                        PRECINCT 1                                             01 
01050010002001627000588000735000146000158000000REP       US Representative, District 4                           John Ratcliffe                        PRECINCT 1A                                            01 
01050010003002205000844001361000000000000000000REP       US Representative, District 4                           John Ratcliffe                        PRECINCT 1B                                            01 
01050010004001369000556000813000000000000000000REP       US Representative, District 4                           John Ratcliffe                        PRECINCT 1C                                            01 
01050010005002058000725001028000095000210000000REP       US Representative, District 4                           John Ratcliffe                        PRECINCT 2                                             01 
01050010006002084000669001059000129000227000000REP       US Representative, District 4                           John Ratcliffe                        PRECINCT 2A                                            01 
01050010007000875000256000432000071000116000000REP       US Representative, District 4                           John Ratcliffe                        PRECINCT 2B                                            01 
01050010008002243000959001284000000000000000000REP       US Representative, District 4                           John Ratcliffe                        PRECINCT 2C                                            01 
01050010009000160000060000070000015000015000000REP       US Representative, District 4                           John Ratcliffe                        PRECINCT 3                                             01 
01050010010000446000129000185000051000081000000REP       US Representative, District 4                           John Ratcliffe                        PRECINCT 3A                                            01 
01050010011000972000381000591000000000000000000REP       US Representative, District 4                           John Ratcliffe                        PRECINCT 3B                                            01 
01050010012001577000456000878000083000160000000REP       US Representative, District 4                           John Ratcliffe                        PRECINCT 3C                                            01 
01050010013002512001017001495000000000000000000REP       US Representative, District 4                           John Ratcliffe                        PRECINCT 3D                                            01 
01050010014001045000466000579000000000000000000REP       US Representative, District 4                           John Ratcliffe                        PRECINCT 4                                             01 
01050010015002475000967001508000000000000000000REP       US Representative, District 4                           John Ratcliffe                        PRECINCT 4A                                            01 
01050010016000686000269000273000073000071000000REP       US Representative, District 4                           John Ratcliffe                        PRECINCT 4B                                            01 
01050010017001522000428000721000147000226000000REP       US Representative, District 4                           John Ratcliffe                        PRECINCT 4C                                            01 
01050020001000318000094000224000000000000000000LIB       US Representative, District 4                           Cody Wommack                          PRECINCT 1                                             01 
01050020002000341000091000160000032000058000000LIB       US Representative, District 4                           Cody Wommack                          PRECINCT 1A                                            01 
01050020003000250000080000170000000000000000000LIB       US Representative, District 4                           Cody Wommack                          PRECINCT 1B                                            01 
01050020004000162000041000121000000000000000000LIB       US Representative, District 4                           Cody Wommack                          PRECINCT 1C                                            01 
01050020005000333000097000175000023000038000000LIB       US Representative, District 4                           Cody Wommack                          PRECINCT 2                                             01 
01050020006000346000106000171000026000043000000LIB       US Representative, District 4                           Cody Wommack                          PRECINCT 2A                                            01 
01050020007000202000045000107000014000036000000LIB       US Representative, District 4                           Cody Wommack                          PRECINCT 2B                                            01 
01050020008000252000094000158000000000000000000LIB       US Representative, District 4                           Cody Wommack                          PRECINCT 2C                                            01 
01050020009000046000011000012000012000011000000LIB       US Representative, District 4                           Cody Wommack                          PRECINCT 3                                             01 
01050020010000153000046000057000019000031000000LIB       US Representative, District 4                           Cody Wommack                          PRECINCT 3A                                            01 
01050020011000220000071000149000000000000000000LIB       US Representative, District 4                           Cody Wommack                          PRECINCT 3B                                            01 
01050020012000125000030000065000009000021000000LIB       US Representative, District 4                           Cody Wommack                          PRECINCT 3C                                            01 
01050020013000287000092000195000000000000000000LIB       US Representative, District 4                           Cody Wommack                          PRECINCT 3D                                            01 
01050020014000130000055000075000000000000000000LIB       US Representative, District 4                           Cody Wommack                          PRECINCT 4                                             01 
01050020015000442000134000308000000000000000000LIB       US Representative, District 4                           Cody Wommack                          PRECINCT 4A                                            01 
01050020016000131000042000051000020000018000000LIB       US Representative, District 4                           Cody Wommack                          PRECINCT 4B                                            01 
01050020017000253000047000131000025000050000000LIB       US Representative, District 4                           Cody Wommack                          PRECINCT 4C                                            01 
01050030001000000000000000000000000000000000000          US Representative, District 4                           OVER VOTES                            PRECINCT 1                                             01 
01050030002000000000000000000000000000000000000          US Representative, District 4                           OVER VOTES                            PRECINCT 1A                                            01 
01050030003000000000000000000000000000000000000          US Representative, District 4                           OVER VOTES                            PRECINCT 1B                                            01 
01050030004000000000000000000000000000000000000          US Representative, District 4                           OVER VOTES                            PRECINCT 1C                                            01 
01050030005000001000001000000000000000000000000          US Representative, District 4                           OVER VOTES                            PRECINCT 2                                             01 
01050030006000000000000000000000000000000000000          US Representative, District 4                           OVER VOTES                            PRECINCT 2A                                            01 
01050030007000000000000000000000000000000000000          US Representative, District 4                           OVER VOTES                            PRECINCT 2B                                            01 
01050030008000000000000000000000000000000000000          US Representative, District 4                           OVER VOTES                            PRECINCT 2C                                            01 
01050030009000000000000000000000000000000000000          US Representative, District 4                           OVER VOTES                            PRECINCT 3                                             01 
01050030010000000000000000000000000000000000000          US Representative, District 4                           OVER VOTES                            PRECINCT 3A                                            01 
01050030011000000000000000000000000000000000000          US Representative, District 4                           OVER VOTES                            PRECINCT 3B                                            01 
01050030012000000000000000000000000000000000000          US Representative, District 4                           OVER VOTES                            PRECINCT 3C                                            01 
01050030013000000000000000000000000000000000000          US Representative, District 4                           OVER VOTES                            PRECINCT 3D                                            01 
01050030014000000000000000000000000000000000000          US Representative, District 4                           OVER VOTES                            PRECINCT 4                                             01 
01050030015000000000000000000000000000000000000          US Representative, District 4                           OVER VOTES                            PRECINCT 4A                                            01 
01050030016000000000000000000000000000000000000          US Representative, District 4                           OVER VOTES                            PRECINCT 4B                                            01 
01050030017000000000000000000000000000000000000          US Representative, District 4                           OVER VOTES                            PRECINCT 4C                                            01 
01050040001000300000090000210000000000000000000          US Representative, District 4                           UNDER VOTES                           PRECINCT 1                                             01 
01050040002000276000063000148000018000047000000          US Representative, District 4                           UNDER VOTES                           PRECINCT 1A                                            01 
01050040003000209000056000153000000000000000000          US Representative, District 4                           UNDER VOTES                           PRECINCT 1B                                            01 
01050040004000163000049000114000000000000000000          US Representative, District 4                           UNDER VOTES                           PRECINCT 1C                                            01 
01050040005000274000092000151000009000022000000          US Representative, District 4                           UNDER VOTES                           PRECINCT 2                                             01 
01050040006000308000078000171000015000044000000          US Representative, District 4                           UNDER VOTES                           PRECINCT 2A                                            01 
01050040007000176000028000109000004000035000000          US Representative, District 4                           UNDER VOTES                           PRECINCT 2B                                            01 
01050040008000177000058000119000000000000000000          US Representative, District 4                           UNDER VOTES                           PRECINCT 2C                                            01 
01050040009000082000026000033000014000009000000          US Representative, District 4                           UNDER VOTES                           PRECINCT 3                                             01 
01050040010000184000044000084000019000037000000          US Representative, District 4                           UNDER VOTES                           PRECINCT 3A                                            01 
01050040011000264000062000202000000000000000000          US Representative, District 4                           UNDER VOTES                           PRECINCT 3B                                            01 
01050040012000112000045000054000005000008000000          US Representative, District 4                           UNDER VOTES                           PRECINCT 3C                                            01 
01050040013000263000076000187000000000000000000          US Representative, District 4                           UNDER VOTES                           PRECINCT 3D                                            01 
01050040014000113000036000077000000000000000000          US Representative, District 4                           UNDER VOTES                           PRECINCT 4                                             01 
01050040015000389000080000309000000000000000000          US Representative, District 4                           UNDER VOTES                           PRECINCT 4A                                            01 
01050040016000131000041000059000011000020000000          US Representative, District 4                           UNDER VOTES                           PRECINCT 4B                                            01 
01050040017000210000047000116000016000031000000          US Representative, District 4                           UNDER VOTES                           PRECINCT 4C                                            01 
01060010001002035000750001285000000000000000000REP       Railroad Commissioner                                   Wayne Christian                       PRECINCT 1                                             01 
01060010002001454000532000650000129000143000000REP       Railroad Commissioner                                   Wayne Christian                       PRECINCT 1A                                            01 
01060010003002047000800001247000000000000000000REP       Railroad Commissioner                                   Wayne Christian                       PRECINCT 1B                                            01 
01060010004001272000522000750000000000000000000REP       Railroad Commissioner                                   Wayne Christian                       PRECINCT 1C                                            01 
01060010005001858000666000937000076000179000000REP       Railroad Commissioner                                   Wayne Christian                       PRECINCT 2                                             01 
01060010006001875000613000948000113000201000000REP       Railroad Commissioner                                   Wayne Christian                       PRECINCT 2A                                            01 
01060010007000815000241000395000067000112000000REP       Railroad Commissioner                                   Wayne Christian                       PRECINCT 2B                                            01 
01060010008002056000881001175000000000000000000REP       Railroad Commissioner                                   Wayne Christian                       PRECINCT 2C                                            01 
01060010009000140000054000062000012000012000000REP       Railroad Commissioner                                   Wayne Christian                       PRECINCT 3                                             01 
01060010010000391000117000162000041000071000000REP       Railroad Commissioner                                   Wayne Christian                       PRECINCT 3A                                            01 
01060010011000867000347000520000000000000000000REP       Railroad Commissioner                                   Wayne Christian                       PRECINCT 3B                                            01 
01060010012001463000430000813000075000145000000REP       Railroad Commissioner                                   Wayne Christian                       PRECINCT 3C                                            01 
01060010013002370000970001400000000000000000000REP       Railroad Commissioner                                   Wayne Christian                       PRECINCT 3D                                            01 
01060010014000968000435000533000000000000000000REP       Railroad Commissioner                                   Wayne Christian                       PRECINCT 4                                             01 
01060010015002305000914001391000000000000000000REP       Railroad Commissioner                                   Wayne Christian                       PRECINCT 4A                                            01 
01060010016000630000251000247000067000065000000REP       Railroad Commissioner                                   Wayne Christian                       PRECINCT 4B                                            01 
01060010017001406000403000664000134000205000000REP       Railroad Commissioner                                   Wayne Christian                       PRECINCT 4C                                            01 
01060020001000547000163000384000000000000000000DEM       Railroad Commissioner                                   Grady Yarbrough                       PRECINCT 1                                             01 
01060020002000529000134000276000038000081000000DEM       Railroad Commissioner                                   Grady Yarbrough                       PRECINCT 1A                                            01 
01060020003000406000108000298000000000000000000DEM       Railroad Commissioner                                   Grady Yarbrough                       PRECINCT 1B                                            01 
01060020004000275000074000201000000000000000000DEM       Railroad Commissioner                                   Grady Yarbrough                       PRECINCT 1C                                            01 
01060020005000520000155000283000028000054000000DEM       Railroad Commissioner                                   Grady Yarbrough                       PRECINCT 2                                             01 
01060020006000597000163000332000032000070000000DEM       Railroad Commissioner                                   Grady Yarbrough                       PRECINCT 2A                                            01 
01060020007000311000060000190000013000048000000DEM       Railroad Commissioner                                   Grady Yarbrough                       PRECINCT 2B                                            01 
01060020008000379000117000262000000000000000000DEM       Railroad Commissioner                                   Grady Yarbrough                       PRECINCT 2C                                            01 
01060020009000121000036000049000020000016000000DEM       Railroad Commissioner                                   Grady Yarbrough                       PRECINCT 3                                             01 
01060020010000310000079000134000037000060000000DEM       Railroad Commissioner                                   Grady Yarbrough                       PRECINCT 3A                                            01 
01060020011000470000116000354000000000000000000DEM       Railroad Commissioner                                   Grady Yarbrough                       PRECINCT 3B                                            01 
01060020012000185000050000097000011000027000000DEM       Railroad Commissioner                                   Grady Yarbrough                       PRECINCT 3C                                            01 
01060020013000458000136000322000000000000000000DEM       Railroad Commissioner                                   Grady Yarbrough                       PRECINCT 3D                                            01 
01060020014000194000061000133000000000000000000DEM       Railroad Commissioner                                   Grady Yarbrough                       PRECINCT 4                                             01 
01060020015000702000167000535000000000000000000DEM       Railroad Commissioner                                   Grady Yarbrough                       PRECINCT 4A                                            01 
01060020016000211000061000091000023000036000000DEM       Railroad Commissioner                                   Grady Yarbrough                       PRECINCT 4B                                            01 
01060020017000414000083000231000031000069000000DEM       Railroad Commissioner                                   Grady Yarbrough                       PRECINCT 4C                                            01 
01060030001000125000039000086000000000000000000LIB       Railroad Commissioner                                   Mark Miller                           PRECINCT 1                                             01 
01060030002000145000044000068000011000022000000LIB       Railroad Commissioner                                   Mark Miller                           PRECINCT 1A                                            01 
01060030003000129000040000089000000000000000000LIB       Railroad Commissioner                                   Mark Miller                           PRECINCT 1B                                            01 
01060030004000084000030000054000000000000000000LIB       Railroad Commissioner                                   Mark Miller                           PRECINCT 1C                                            01 
01060030005000163000053000074000016000020000000LIB       Railroad Commissioner                                   Mark Miller                           PRECINCT 2                                             01 
01060030006000145000038000069000015000023000000LIB       Railroad Commissioner                                   Mark Miller                           PRECINCT 2A                                            01 
01060030007000087000018000047000006000016000000LIB       Railroad Commissioner                                   Mark Miller                           PRECINCT 2B                                            01 
01060030008000146000067000079000000000000000000LIB       Railroad Commissioner                                   Mark Miller                           PRECINCT 2C                                            01 
01060030009000013000001000003000004000005000000LIB       Railroad Commissioner                                   Mark Miller                           PRECINCT 3                                             01 
01060030010000039000013000011000004000011000000LIB       Railroad Commissioner                                   Mark Miller                           PRECINCT 3A                                            01 
01060030011000061000029000032000000000000000000LIB       Railroad Commissioner                                   Mark Miller                           PRECINCT 3B                                            01 
01060030012000088000024000047000005000012000000LIB       Railroad Commissioner                                   Mark Miller                           PRECINCT 3C                                            01 
01060030013000134000042000092000000000000000000LIB       Railroad Commissioner                                   Mark Miller                           PRECINCT 3D                                            01 
01060030014000064000030000034000000000000000000LIB       Railroad Commissioner                                   Mark Miller                           PRECINCT 4                                             01 
01060030015000168000056000112000000000000000000LIB       Railroad Commissioner                                   Mark Miller                           PRECINCT 4A                                            01 
01060030016000045000016000022000005000002000000LIB       Railroad Commissioner                                   Mark Miller                           PRECINCT 4B                                            01 
01060030017000078000021000034000010000013000000LIB       Railroad Commissioner                                   Mark Miller                           PRECINCT 4C                                            01 
01060040001000034000012000022000000000000000000GRN       Railroad Commissioner                                   Martina Salinas                       PRECINCT 1                                             01 
01060040002000057000015000024000009000009000000GRN       Railroad Commissioner                                   Martina Salinas                       PRECINCT 1A                                            01 
01060040003000023000007000016000000000000000000GRN       Railroad Commissioner                                   Martina Salinas                       PRECINCT 1B                                            01 
01060040004000019000005000014000000000000000000GRN       Railroad Commissioner                                   Martina Salinas                       PRECINCT 1C                                            01 
01060040005000051000015000024000003000009000000GRN       Railroad Commissioner                                   Martina Salinas                       PRECINCT 2                                             01 
01060040006000050000011000026000003000010000000GRN       Railroad Commissioner                                   Martina Salinas                       PRECINCT 2A                                            01 
01060040007000021000007000009000001000004000000GRN       Railroad Commissioner                                   Martina Salinas                       PRECINCT 2B                                            01 
01060040008000026000009000017000000000000000000GRN       Railroad Commissioner                                   Martina Salinas                       PRECINCT 2C                                            01 
01060040009000006000002000001000002000001000000GRN       Railroad Commissioner                                   Martina Salinas                       PRECINCT 3                                             01 
01060040010000030000009000011000006000004000000GRN       Railroad Commissioner                                   Martina Salinas                       PRECINCT 3A                                            01 
01060040011000030000013000017000000000000000000GRN       Railroad Commissioner                                   Martina Salinas                       PRECINCT 3B                                            01 
01060040012000014000005000007000002000000000000GRN       Railroad Commissioner                                   Martina Salinas                       PRECINCT 3C                                            01 
01060040013000029000009000020000000000000000000GRN       Railroad Commissioner                                   Martina Salinas                       PRECINCT 3D                                            01 
01060040014000022000011000011000000000000000000GRN       Railroad Commissioner                                   Martina Salinas                       PRECINCT 4                                             01 
01060040015000048000016000032000000000000000000GRN       Railroad Commissioner                                   Martina Salinas                       PRECINCT 4A                                            01 
01060040016000029000007000011000007000004000000GRN       Railroad Commissioner                                   Martina Salinas                       PRECINCT 4B                                            01 
01060040017000043000005000020000005000013000000GRN       Railroad Commissioner                                   Martina Salinas                       PRECINCT 4C                                            01 
01060050001000000000000000000000000000000000000          Railroad Commissioner                                   OVER VOTES                            PRECINCT 1                                             01 
01060050002000000000000000000000000000000000000          Railroad Commissioner                                   OVER VOTES                            PRECINCT 1A                                            01 
01060050003000000000000000000000000000000000000          Railroad Commissioner                                   OVER VOTES                            PRECINCT 1B                                            01 
01060050004000000000000000000000000000000000000          Railroad Commissioner                                   OVER VOTES                            PRECINCT 1C                                            01 
01060050005000000000000000000000000000000000000          Railroad Commissioner                                   OVER VOTES                            PRECINCT 2                                             01 
01060050006000000000000000000000000000000000000          Railroad Commissioner                                   OVER VOTES                            PRECINCT 2A                                            01 
01060050007000000000000000000000000000000000000          Railroad Commissioner                                   OVER VOTES                            PRECINCT 2B                                            01 
01060050008000001000001000000000000000000000000          Railroad Commissioner                                   OVER VOTES                            PRECINCT 2C                                            01 
01060050009000000000000000000000000000000000000          Railroad Commissioner                                   OVER VOTES                            PRECINCT 3                                             01 
01060050010000000000000000000000000000000000000          Railroad Commissioner                                   OVER VOTES                            PRECINCT 3A                                            01 
01060050011000000000000000000000000000000000000          Railroad Commissioner                                   OVER VOTES                            PRECINCT 3B                                            01 
01060050012000001000001000000000000000000000000          Railroad Commissioner                                   OVER VOTES                            PRECINCT 3C                                            01 
01060050013000001000001000000000000000000000000          Railroad Commissioner                                   OVER VOTES                            PRECINCT 3D                                            01 
01060050014000000000000000000000000000000000000          Railroad Commissioner                                   OVER VOTES                            PRECINCT 4                                             01 
01060050015000000000000000000000000000000000000          Railroad Commissioner                                   OVER VOTES                            PRECINCT 4A                                            01 
01060050016000000000000000000000000000000000000          Railroad Commissioner                                   OVER VOTES                            PRECINCT 4B                                            01 
01060050017000000000000000000000000000000000000          Railroad Commissioner                                   OVER VOTES                            PRECINCT 4C                                            01 
01060060001000100000050000050000000000000000000          Railroad Commissioner                                   UNDER VOTES                           PRECINCT 1                                             01 
01060060002000059000017000025000009000008000000          Railroad Commissioner                                   UNDER VOTES                           PRECINCT 1A                                            01 
01060060003000059000025000034000000000000000000          Railroad Commissioner                                   UNDER VOTES                           PRECINCT 1B                                            01 
01060060004000044000015000029000000000000000000          Railroad Commissioner                                   UNDER VOTES                           PRECINCT 1C                                            01 
01060060005000074000026000036000004000008000000          Railroad Commissioner                                   UNDER VOTES                           PRECINCT 2                                             01 
01060060006000071000028000026000007000010000000          Railroad Commissioner                                   UNDER VOTES                           PRECINCT 2A                                            01 
01060060007000019000003000007000002000007000000          Railroad Commissioner                                   UNDER VOTES                           PRECINCT 2B                                            01 
01060060008000064000036000028000000000000000000          Railroad Commissioner                                   UNDER VOTES                           PRECINCT 2C                                            01 
01060060009000008000004000000000003000001000000          Railroad Commissioner                                   UNDER VOTES                           PRECINCT 3                                             01 
01060060010000013000001000008000001000003000000          Railroad Commissioner                                   UNDER VOTES                           PRECINCT 3A                                            01 
01060060011000028000009000019000000000000000000          Railroad Commissioner                                   UNDER VOTES                           PRECINCT 3B                                            01 
01060060012000063000021000033000004000005000000          Railroad Commissioner                                   UNDER VOTES                           PRECINCT 3C                                            01 
01060060013000070000027000043000000000000000000          Railroad Commissioner                                   UNDER VOTES                           PRECINCT 3D                                            01 
01060060014000040000020000020000000000000000000          Railroad Commissioner                                   UNDER VOTES                           PRECINCT 4                                             01 
01060060015000083000028000055000000000000000000          Railroad Commissioner                                   UNDER VOTES                           PRECINCT 4A                                            01 
01060060016000033000017000012000002000002000000          Railroad Commissioner                                   UNDER VOTES                           PRECINCT 4B                                            01 
01060060017000044000010000019000008000007000000          Railroad Commissioner                                   UNDER VOTES                           PRECINCT 4C                                            01 
01070010001002100000779001321000000000000000000REP       Justice, Supreme Court, Place 3                         Debra Lehrmann                        PRECINCT 1                                             01 
01070010002001505000554000681000126000144000000REP       Justice, Supreme Court, Place 3                         Debra Lehrmann                        PRECINCT 1A                                            01 
01070010003002116000826001290000000000000000000REP       Justice, Supreme Court, Place 3                         Debra Lehrmann                        PRECINCT 1B                                            01 
01070010004001331000543000788000000000000000000REP       Justice, Supreme Court, Place 3                         Debra Lehrmann                        PRECINCT 1C                                            01 
01070010005001937000698000964000089000186000000REP       Justice, Supreme Court, Place 3                         Debra Lehrmann                        PRECINCT 2                                             01 
01070010006001935000630000986000114000205000000REP       Justice, Supreme Court, Place 3                         Debra Lehrmann                        PRECINCT 2A                                            01 
01070010007000842000251000409000070000112000000REP       Justice, Supreme Court, Place 3                         Debra Lehrmann                        PRECINCT 2B                                            01 
01070010008002140000917001223000000000000000000REP       Justice, Supreme Court, Place 3                         Debra Lehrmann                        PRECINCT 2C                                            01 
01070010009000144000056000066000010000012000000REP       Justice, Supreme Court, Place 3                         Debra Lehrmann                        PRECINCT 3                                             01 
01070010010000384000111000157000042000074000000REP       Justice, Supreme Court, Place 3                         Debra Lehrmann                        PRECINCT 3A                                            01 
01070010011000902000366000536000000000000000000REP       Justice, Supreme Court, Place 3                         Debra Lehrmann                        PRECINCT 3B                                            01 
01070010012001509000446000840000077000146000000REP       Justice, Supreme Court, Place 3                         Debra Lehrmann                        PRECINCT 3C                                            01 
01070010013002435000996001439000000000000000000REP       Justice, Supreme Court, Place 3                         Debra Lehrmann                        PRECINCT 3D                                            01 
01070010014000992000449000543000000000000000000REP       Justice, Supreme Court, Place 3                         Debra Lehrmann                        PRECINCT 4                                             01 
01070010015002356000931001425000000000000000000REP       Justice, Supreme Court, Place 3                         Debra Lehrmann                        PRECINCT 4A                                            01 
01070010016000645000258000257000066000064000000REP       Justice, Supreme Court, Place 3                         Debra Lehrmann                        PRECINCT 4B                                            01 
01070010017001427000406000674000135000212000000REP       Justice, Supreme Court, Place 3                         Debra Lehrmann                        PRECINCT 4C                                            01 
01070020001000541000152000389000000000000000000DEM       Justice, Supreme Court, Place 3                         Mike Westergren                       PRECINCT 1                                             01 
01070020002000526000130000272000042000082000000DEM       Justice, Supreme Court, Place 3                         Mike Westergren                       PRECINCT 1A                                            01 
01070020003000392000100000292000000000000000000DEM       Justice, Supreme Court, Place 3                         Mike Westergren                       PRECINCT 1B                                            01 
01070020004000254000063000191000000000000000000DEM       Justice, Supreme Court, Place 3                         Mike Westergren                       PRECINCT 1C                                            01 
01070020005000519000154000289000024000052000000DEM       Justice, Supreme Court, Place 3                         Mike Westergren                       PRECINCT 2                                             01 
01070020006000599000165000328000032000074000000DEM       Justice, Supreme Court, Place 3                         Mike Westergren                       PRECINCT 2A                                            01 
01070020007000316000058000193000013000052000000DEM       Justice, Supreme Court, Place 3                         Mike Westergren                       PRECINCT 2B                                            01 
01070020008000363000109000254000000000000000000DEM       Justice, Supreme Court, Place 3                         Mike Westergren                       PRECINCT 2C                                            01 
01070020009000124000037000045000024000018000000DEM       Justice, Supreme Court, Place 3                         Mike Westergren                       PRECINCT 3                                             01 
01070020010000307000074000136000038000059000000DEM       Justice, Supreme Court, Place 3                         Mike Westergren                       PRECINCT 3A                                            01 
01070020011000467000110000357000000000000000000DEM       Justice, Supreme Court, Place 3                         Mike Westergren                       PRECINCT 3B                                            01 
01070020012000190000050000102000010000028000000DEM       Justice, Supreme Court, Place 3                         Mike Westergren                       PRECINCT 3C                                            01 
01070020013000450000126000324000000000000000000DEM       Justice, Supreme Court, Place 3                         Mike Westergren                       PRECINCT 3D                                            01 
01070020014000192000060000132000000000000000000DEM       Justice, Supreme Court, Place 3                         Mike Westergren                       PRECINCT 4                                             01 
01070020015000683000155000528000000000000000000DEM       Justice, Supreme Court, Place 3                         Mike Westergren                       PRECINCT 4A                                            01 
01070020016000203000060000086000022000035000000DEM       Justice, Supreme Court, Place 3                         Mike Westergren                       PRECINCT 4B                                            01 
01070020017000418000086000232000031000069000000DEM       Justice, Supreme Court, Place 3                         Mike Westergren                       PRECINCT 4C                                            01 
01070030001000088000029000059000000000000000000LIB       Justice, Supreme Court, Place 3                         Kathie Glass                          PRECINCT 1                                             01 
01070030002000101000028000051000007000015000000LIB       Justice, Supreme Court, Place 3                         Kathie Glass                          PRECINCT 1A                                            01 
01070030003000082000029000053000000000000000000LIB       Justice, Supreme Court, Place 3                         Kathie Glass                          PRECINCT 1B                                            01 
01070030004000062000021000041000000000000000000LIB       Justice, Supreme Court, Place 3                         Kathie Glass                          PRECINCT 1C                                            01 
01070030005000104000025000056000008000015000000LIB       Justice, Supreme Court, Place 3                         Kathie Glass                          PRECINCT 2                                             01 
01070030006000107000028000044000017000018000000LIB       Justice, Supreme Court, Place 3                         Kathie Glass                          PRECINCT 2A                                            01 
01070030007000057000012000030000003000012000000LIB       Justice, Supreme Court, Place 3                         Kathie Glass                          PRECINCT 2B                                            01 
01070030008000086000039000047000000000000000000LIB       Justice, Supreme Court, Place 3                         Kathie Glass                          PRECINCT 2C                                            01 
01070030009000008000000000003000002000003000000LIB       Justice, Supreme Court, Place 3                         Kathie Glass                          PRECINCT 3                                             01 
01070030010000044000021000014000002000007000000LIB       Justice, Supreme Court, Place 3                         Kathie Glass                          PRECINCT 3A                                            01 
01070030011000042000020000022000000000000000000LIB       Justice, Supreme Court, Place 3                         Kathie Glass                          PRECINCT 3B                                            01 
01070030012000050000010000024000005000011000000LIB       Justice, Supreme Court, Place 3                         Kathie Glass                          PRECINCT 3C                                            01 
01070030013000094000032000062000000000000000000LIB       Justice, Supreme Court, Place 3                         Kathie Glass                          PRECINCT 3D                                            01 
01070030014000056000026000030000000000000000000LIB       Justice, Supreme Court, Place 3                         Kathie Glass                          PRECINCT 4                                             01 
