01010010001002448000000000000000000000000000000          REGISTERED VOTERS - TOTAL                               REGISTERED VOTERS - TOTAL             PRECINCT 1001                                          00 
01010010002002387000000000000000000000000000000          REGISTERED VOTERS - TOTAL                               REGISTERED VOTERS - TOTAL             PRECINCT 1002                                          00 
01010010003004993000000000000000000000000000000          REGISTERED VOTERS - TOTAL                               REGISTERED VOTERS - TOTAL             PRECINCT 1003                                          00 
01010010004002292000000000000000000000000000000          REGISTERED VOTERS - TOTAL                               REGISTERED VOTERS - TOTAL             PRECINCT 1004                                          00 
01010010005002588000000000000000000000000000000          REGISTERED VOTERS - TOTAL                               REGISTERED VOTERS - TOTAL             PRECINCT 2005                                          00 
01010010006001268000000000000000000000000000000          REGISTERED VOTERS - TOTAL                               REGISTERED VOTERS - TOTAL             PRECINCT 2006                                          00 
01010010007001874000000000000000000000000000000          REGISTERED VOTERS - TOTAL                               REGISTERED VOTERS - TOTAL             PRECINCT 2007                                          00 
01010010008000879000000000000000000000000000000          REGISTERED VOTERS - TOTAL                               REGISTERED VOTERS - TOTAL             PRECINCT 2008                                          00 
01010010009001117000000000000000000000000000000          REGISTERED VOTERS - TOTAL                               REGISTERED VOTERS - TOTAL             PRECINCT 2009                                          00 
01010010010001187000000000000000000000000000000          REGISTERED VOTERS - TOTAL                               REGISTERED VOTERS - TOTAL             PRECINCT 2010                                          00 
01010010011002080000000000000000000000000000000          REGISTERED VOTERS - TOTAL                               REGISTERED VOTERS - TOTAL             PRECINCT 2011                                          00 
01010010012000877000000000000000000000000000000          REGISTERED VOTERS - TOTAL                               REGISTERED VOTERS - TOTAL             PRECINCT 3012                                          00 
01010010013001374000000000000000000000000000000          REGISTERED VOTERS - TOTAL                               REGISTERED VOTERS - TOTAL             PRECINCT 3013                                          00 
01010010014002275000000000000000000000000000000          REGISTERED VOTERS - TOTAL                               REGISTERED VOTERS - TOTAL             PRECINCT 3014                                          00 
01010010015002279000000000000000000000000000000          REGISTERED VOTERS - TOTAL                               REGISTERED VOTERS - TOTAL             PRECINCT 3015                                          00 
01010010016002484000000000000000000000000000000          REGISTERED VOTERS - TOTAL                               REGISTERED VOTERS - TOTAL             PRECINCT 3016                                          00 
01010010017002352000000000000000000000000000000          REGISTERED VOTERS - TOTAL                               REGISTERED VOTERS - TOTAL             PRECINCT 4017                                          00 
01010010018000559000000000000000000000000000000          REGISTERED VOTERS - TOTAL                               REGISTERED VOTERS - TOTAL             PRECINCT 4018                                          00 
01010010019002277000000000000000000000000000000          REGISTERED VOTERS - TOTAL                               REGISTERED VOTERS - TOTAL             PRECINCT 4019                                          00 
01010010020003343000000000000000000000000000000          REGISTERED VOTERS - TOTAL                               REGISTERED VOTERS - TOTAL             PRECINCT 4020                                          00 
01010010021001177000000000000000000000000000000          REGISTERED VOTERS - TOTAL                               REGISTERED VOTERS - TOTAL             PRECINCT 4021                                          00 
01020010001001172000594000577000001000000000000          BALLOTS CAST - TOTAL                                    BALLOTS CAST - TOTAL                  PRECINCT 1001                                          00 
01020010002000909000485000423000001000000000000          BALLOTS CAST - TOTAL                                    BALLOTS CAST - TOTAL                  PRECINCT 1002                                          00 
01020010003001995001036000959000000000000000000          BALLOTS CAST - TOTAL                                    BALLOTS CAST - TOTAL                  PRECINCT 1003                                          00 
01020010004000610000260000349000001000000000000          BALLOTS CAST - TOTAL                                    BALLOTS CAST - TOTAL                  PRECINCT 1004                                          00 
01020010005000986000482000503000001000000000000          BALLOTS CAST - TOTAL                                    BALLOTS CAST - TOTAL                  PRECINCT 2005                                          00 
01020010006000495000211000284000000000000000000          BALLOTS CAST - TOTAL                                    BALLOTS CAST - TOTAL                  PRECINCT 2006                                          00 
01020010007000841000323000517000001000000000000          BALLOTS CAST - TOTAL                                    BALLOTS CAST - TOTAL                  PRECINCT 2007                                          00 
01020010008000371000194000177000000000000000000          BALLOTS CAST - TOTAL                                    BALLOTS CAST - TOTAL                  PRECINCT 2008                                          00 
01020010009000423000208000215000000000000000000          BALLOTS CAST - TOTAL                                    BALLOTS CAST - TOTAL                  PRECINCT 2009                                          00 
01020010010000474000165000309000000000000000000          BALLOTS CAST - TOTAL                                    BALLOTS CAST - TOTAL                  PRECINCT 2010                                          00 
01020010011000876000408000467000001000000000000          BALLOTS CAST - TOTAL                                    BALLOTS CAST - TOTAL                  PRECINCT 2011                                          00 
01020010012000387000162000224000001000000000000          BALLOTS CAST - TOTAL                                    BALLOTS CAST - TOTAL                  PRECINCT 3012                                          00 
01020010013000576000142000434000000000000000000          BALLOTS CAST - TOTAL                                    BALLOTS CAST - TOTAL                  PRECINCT 3013                                          00 
01020010014000683000291000388000004000000000000          BALLOTS CAST - TOTAL                                    BALLOTS CAST - TOTAL                  PRECINCT 3014                                          00 
01020010015000652000296000356000000000000000000          BALLOTS CAST - TOTAL                                    BALLOTS CAST - TOTAL                  PRECINCT 3015                                          00 
01020010016000890000394000496000000000000000000          BALLOTS CAST - TOTAL                                    BALLOTS CAST - TOTAL                  PRECINCT 3016                                          00 
01020010017000787000321000465000001000000000000          BALLOTS CAST - TOTAL                                    BALLOTS CAST - TOTAL                  PRECINCT 4017                                          00 
01020010018000241000114000126000001000000000000          BALLOTS CAST - TOTAL                                    BALLOTS CAST - TOTAL                  PRECINCT 4018                                          00 
01020010019000886000356000530000000000000000000          BALLOTS CAST - TOTAL                                    BALLOTS CAST - TOTAL                  PRECINCT 4019                                          00 
01020010020001042000511000528000003000000000000          BALLOTS CAST - TOTAL                                    BALLOTS CAST - TOTAL                  PRECINCT 4020                                          00 
01020010021000463000143000319000001000000000000          BALLOTS CAST - TOTAL                                    BALLOTS CAST - TOTAL                  PRECINCT 4021                                          00 
01030010001000864000434000429000001000000000000REP       BALLOTS CAST - REPUBLICAN PARTY                         BALLOTS CAST - REPUBLICAN PARTY       PRECINCT 1001                                          00 
01030010002000542000290000251000001000000000000REP       BALLOTS CAST - REPUBLICAN PARTY                         BALLOTS CAST - REPUBLICAN PARTY       PRECINCT 1002                                          00 
01030010003001435000741000694000000000000000000REP       BALLOTS CAST - REPUBLICAN PARTY                         BALLOTS CAST - REPUBLICAN PARTY       PRECINCT 1003                                          00 
01030010004000406000174000231000001000000000000REP       BALLOTS CAST - REPUBLICAN PARTY                         BALLOTS CAST - REPUBLICAN PARTY       PRECINCT 1004                                          00 
01030010005000650000331000319000000000000000000REP       BALLOTS CAST - REPUBLICAN PARTY                         BALLOTS CAST - REPUBLICAN PARTY       PRECINCT 2005                                          00 
01030010006000378000154000224000000000000000000REP       BALLOTS CAST - REPUBLICAN PARTY                         BALLOTS CAST - REPUBLICAN PARTY       PRECINCT 2006                                          00 
01030010007000671000267000403000001000000000000REP       BALLOTS CAST - REPUBLICAN PARTY                         BALLOTS CAST - REPUBLICAN PARTY       PRECINCT 2007                                          00 
01030010008000277000148000129000000000000000000REP       BALLOTS CAST - REPUBLICAN PARTY                         BALLOTS CAST - REPUBLICAN PARTY       PRECINCT 2008                                          00 
01030010009000296000136000160000000000000000000REP       BALLOTS CAST - REPUBLICAN PARTY                         BALLOTS CAST - REPUBLICAN PARTY       PRECINCT 2009                                          00 
01030010010000378000126000252000000000000000000REP       BALLOTS CAST - REPUBLICAN PARTY                         BALLOTS CAST - REPUBLICAN PARTY       PRECINCT 2010                                          00 
01030010011000607000284000323000000000000000000REP       BALLOTS CAST - REPUBLICAN PARTY                         BALLOTS CAST - REPUBLICAN PARTY       PRECINCT 2011                                          00 
01030010012000318000126000191000001000000000000REP       BALLOTS CAST - REPUBLICAN PARTY                         BALLOTS CAST - REPUBLICAN PARTY       PRECINCT 3012                                          00 
01030010013000400000091000309000000000000000000REP       BALLOTS CAST - REPUBLICAN PARTY                         BALLOTS CAST - REPUBLICAN PARTY       PRECINCT 3013                                          00 
01030010014000410000177000229000004000000000000REP       BALLOTS CAST - REPUBLICAN PARTY                         BALLOTS CAST - REPUBLICAN PARTY       PRECINCT 3014                                          00 
01030010015000375000177000198000000000000000000REP       BALLOTS CAST - REPUBLICAN PARTY                         BALLOTS CAST - REPUBLICAN PARTY       PRECINCT 3015                                          00 
01030010016000597000272000325000000000000000000REP       BALLOTS CAST - REPUBLICAN PARTY                         BALLOTS CAST - REPUBLICAN PARTY       PRECINCT 3016                                          00 
01030010017000471000206000264000001000000000000REP       BALLOTS CAST - REPUBLICAN PARTY                         BALLOTS CAST - REPUBLICAN PARTY       PRECINCT 4017                                          00 
01030010018000176000088000088000000000000000000REP       BALLOTS CAST - REPUBLICAN PARTY                         BALLOTS CAST - REPUBLICAN PARTY       PRECINCT 4018                                          00 
01030010019000588000227000361000000000000000000REP       BALLOTS CAST - REPUBLICAN PARTY                         BALLOTS CAST - REPUBLICAN PARTY       PRECINCT 4019                                          00 
01030010020000641000331000310000000000000000000REP       BALLOTS CAST - REPUBLICAN PARTY                         BALLOTS CAST - REPUBLICAN PARTY       PRECINCT 4020                                          00 
01030010021000335000102000232000001000000000000REP       BALLOTS CAST - REPUBLICAN PARTY                         BALLOTS CAST - REPUBLICAN PARTY       PRECINCT 4021                                          00 
01040010001000308000160000148000000000000000000DEM       BALLOTS CAST - DEMOCRATIC PARTY                         BALLOTS CAST - DEMOCRATIC PARTY       PRECINCT 1001                                          00 
01040010002000367000195000172000000000000000000DEM       BALLOTS CAST - DEMOCRATIC PARTY                         BALLOTS CAST - DEMOCRATIC PARTY       PRECINCT 1002                                          00 
01040010003000560000295000265000000000000000000DEM       BALLOTS CAST - DEMOCRATIC PARTY                         BALLOTS CAST - DEMOCRATIC PARTY       PRECINCT 1003                                          00 
01040010004000204000086000118000000000000000000DEM       BALLOTS CAST - DEMOCRATIC PARTY                         BALLOTS CAST - DEMOCRATIC PARTY       PRECINCT 1004                                          00 
01040010005000336000151000184000001000000000000DEM       BALLOTS CAST - DEMOCRATIC PARTY                         BALLOTS CAST - DEMOCRATIC PARTY       PRECINCT 2005                                          00 
01040010006000117000057000060000000000000000000DEM       BALLOTS CAST - DEMOCRATIC PARTY                         BALLOTS CAST - DEMOCRATIC PARTY       PRECINCT 2006                                          00 
01040010007000170000056000114000000000000000000DEM       BALLOTS CAST - DEMOCRATIC PARTY                         BALLOTS CAST - DEMOCRATIC PARTY       PRECINCT 2007                                          00 
01040010008000094000046000048000000000000000000DEM       BALLOTS CAST - DEMOCRATIC PARTY                         BALLOTS CAST - DEMOCRATIC PARTY       PRECINCT 2008                                          00 
01040010009000127000072000055000000000000000000DEM       BALLOTS CAST - DEMOCRATIC PARTY                         BALLOTS CAST - DEMOCRATIC PARTY       PRECINCT 2009                                          00 
01040010010000096000039000057000000000000000000DEM       BALLOTS CAST - DEMOCRATIC PARTY                         BALLOTS CAST - DEMOCRATIC PARTY       PRECINCT 2010                                          00 
01040010011000269000124000144000001000000000000DEM       BALLOTS CAST - DEMOCRATIC PARTY                         BALLOTS CAST - DEMOCRATIC PARTY       PRECINCT 2011                                          00 
01040010012000069000036000033000000000000000000DEM       BALLOTS CAST - DEMOCRATIC PARTY                         BALLOTS CAST - DEMOCRATIC PARTY       PRECINCT 3012                                          00 
01040010013000176000051000125000000000000000000DEM       BALLOTS CAST - DEMOCRATIC PARTY                         BALLOTS CAST - DEMOCRATIC PARTY       PRECINCT 3013                                          00 
01040010014000273000114000159000000000000000000DEM       BALLOTS CAST - DEMOCRATIC PARTY                         BALLOTS CAST - DEMOCRATIC PARTY       PRECINCT 3014                                          00 
01040010015000277000119000158000000000000000000DEM       BALLOTS CAST - DEMOCRATIC PARTY                         BALLOTS CAST - DEMOCRATIC PARTY       PRECINCT 3015                                          00 
01040010016000293000122000171000000000000000000DEM       BALLOTS CAST - DEMOCRATIC PARTY                         BALLOTS CAST - DEMOCRATIC PARTY       PRECINCT 3016                                          00 
01040010017000316000115000201000000000000000000DEM       BALLOTS CAST - DEMOCRATIC PARTY                         BALLOTS CAST - DEMOCRATIC PARTY       PRECINCT 4017                                          00 
01040010018000065000026000038000001000000000000DEM       BALLOTS CAST - DEMOCRATIC PARTY                         BALLOTS CAST - DEMOCRATIC PARTY       PRECINCT 4018                                          00 
01040010019000298000129000169000000000000000000DEM       BALLOTS CAST - DEMOCRATIC PARTY                         BALLOTS CAST - DEMOCRATIC PARTY       PRECINCT 4019                                          00 
01040010020000401000180000218000003000000000000DEM       BALLOTS CAST - DEMOCRATIC PARTY                         BALLOTS CAST - DEMOCRATIC PARTY       PRECINCT 4020                                          00 
01040010021000128000041000087000000000000000000DEM       BALLOTS CAST - DEMOCRATIC PARTY                         BALLOTS CAST - DEMOCRATIC PARTY       PRECINCT 4021                                          00 
01050010001000036000023000013000000000000000000REP       President                                               John R. Kasich                        PRECINCT 1001                                          01 
01050010002000028000015000013000000000000000000REP       President                                               John R. Kasich                        PRECINCT 1002                                          01 
01050010003000085000041000044000000000000000000REP       President                                               John R. Kasich                        PRECINCT 1003                                          01 
01050010004000008000007000001000000000000000000REP       President                                               John R. Kasich                        PRECINCT 1004                                          01 
01050010005000026000010000016000000000000000000REP       President                                               John R. Kasich                        PRECINCT 2005                                          01 
01050010006000012000004000008000000000000000000REP       President                                               John R. Kasich                        PRECINCT 2006                                          01 
01050010007000020000009000011000000000000000000REP       President                                               John R. Kasich                        PRECINCT 2007                                          01 
01050010008000014000012000002000000000000000000REP       President                                               John R. Kasich                        PRECINCT 2008                                          01 
01050010009000009000004000005000000000000000000REP       President                                               John R. Kasich                        PRECINCT 2009                                          01 
01050010010000012000004000008000000000000000000REP       President                                               John R. Kasich                        PRECINCT 2010                                          01 
01050010011000020000013000007000000000000000000REP       President                                               John R. Kasich                        PRECINCT 2011                                          01 
01050010012000004000002000002000000000000000000REP       President                                               John R. Kasich                        PRECINCT 3012                                          01 
01050010013000012000003000009000000000000000000REP       President                                               John R. Kasich                        PRECINCT 3013                                          01 
01050010014000013000010000003000000000000000000REP       President                                               John R. Kasich                        PRECINCT 3014                                          01 
01050010015000009000005000004000000000000000000REP       President                                               John R. Kasich                        PRECINCT 3015                                          01 
01050010016000026000014000012000000000000000000REP       President                                               John R. Kasich                        PRECINCT 3016                                          01 
01050010017000018000009000009000000000000000000REP       President                                               John R. Kasich                        PRECINCT 4017                                          01 
01050010018000012000009000003000000000000000000REP       President                                               John R. Kasich                        PRECINCT 4018                                          01 
01050010019000017000007000010000000000000000000REP       President                                               John R. Kasich                        PRECINCT 4019                                          01 
01050010020000030000017000013000000000000000000REP       President                                               John R. Kasich                        PRECINCT 4020                                          01 
01050010021000004000001000003000000000000000000REP       President                                               John R. Kasich                        PRECINCT 4021                                          01 
01050020001000003000001000002000000000000000000REP       President                                               Rand Paul                             PRECINCT 1001                                          01 
01050020002000006000005000001000000000000000000REP       President                                               Rand Paul                             PRECINCT 1002                                          01 
01050020003000003000003000000000000000000000000REP       President                                               Rand Paul                             PRECINCT 1003                                          01 
01050020004000002000001000001000000000000000000REP       President                                               Rand Paul                             PRECINCT 1004                                          01 
01050020005000003000001000002000000000000000000REP       President                                               Rand Paul                             PRECINCT 2005                                          01 
01050020006000000000000000000000000000000000000REP       President                                               Rand Paul                             PRECINCT 2006                                          01 
01050020007000003000000000003000000000000000000REP       President                                               Rand Paul                             PRECINCT 2007                                          01 
01050020008000002000000000002000000000000000000REP       President                                               Rand Paul                             PRECINCT 2008                                          01 
01050020009000002000000000002000000000000000000REP       President                                               Rand Paul                             PRECINCT 2009                                          01 
01050020010000000000000000000000000000000000000REP       President                                               Rand Paul                             PRECINCT 2010                                          01 
01050020011000003000000000003000000000000000000REP       President                                               Rand Paul                             PRECINCT 2011                                          01 
01050020012000003000001000002000000000000000000REP       President                                               Rand Paul                             PRECINCT 3012                                          01 
01050020013000004000000000004000000000000000000REP       President                                               Rand Paul                             PRECINCT 3013                                          01 
01050020014000003000001000002000000000000000000REP       President                                               Rand Paul                             PRECINCT 3014                                          01 
01050020015000001000000000001000000000000000000REP       President                                               Rand Paul                             PRECINCT 3015                                          01 
01050020016000004000001000003000000000000000000REP       President                                               Rand Paul                             PRECINCT 3016                                          01 
01050020017000002000000000002000000000000000000REP       President                                               Rand Paul                             PRECINCT 4017                                          01 
01050020018000002000000000002000000000000000000REP       President                                               Rand Paul                             PRECINCT 4018                                          01 
01050020019000000000000000000000000000000000000REP       President                                               Rand Paul                             PRECINCT 4019                                          01 
01050020020000001000000000001000000000000000000REP       President                                               Rand Paul                             PRECINCT 4020                                          01 
01050020021000002000000000002000000000000000000REP       President                                               Rand Paul                             PRECINCT 4021                                          01 
01050030001000150000076000074000000000000000000REP       President                                               Marco Rubio                           PRECINCT 1001                                          01 
01050030002000094000054000040000000000000000000REP       President                                               Marco Rubio                           PRECINCT 1002                                          01 
01050030003000236000131000105000000000000000000REP       President                                               Marco Rubio                           PRECINCT 1003                                          01 
01050030004000032000016000016000000000000000000REP       President                                               Marco Rubio                           PRECINCT 1004                                          01 
01050030005000110000067000043000000000000000000REP       President                                               Marco Rubio                           PRECINCT 2005                                          01 
01050030006000049000021000028000000000000000000REP       President                                               Marco Rubio                           PRECINCT 2006                                          01 
01050030007000082000025000057000000000000000000REP       President                                               Marco Rubio                           PRECINCT 2007                                          01 
01050030008000044000023000021000000000000000000REP       President                                               Marco Rubio                           PRECINCT 2008                                          01 
01050030009000041000019000022000000000000000000REP       President                                               Marco Rubio                           PRECINCT 2009                                          01 
01050030010000045000019000026000000000000000000REP       President                                               Marco Rubio                           PRECINCT 2010                                          01 
01050030011000069000036000033000000000000000000REP       President                                               Marco Rubio                           PRECINCT 2011                                          01 
01050030012000041000016000025000000000000000000REP       President                                               Marco Rubio                           PRECINCT 3012                                          01 
01050030013000053000013000040000000000000000000REP       President                                               Marco Rubio                           PRECINCT 3013                                          01 
01050030014000047000023000022000002000000000000REP       President                                               Marco Rubio                           PRECINCT 3014                                          01 
01050030015000063000032000031000000000000000000REP       President                                               Marco Rubio                           PRECINCT 3015                                          01 
01050030016000066000037000029000000000000000000REP       President                                               Marco Rubio                           PRECINCT 3016                                          01 
01050030017000076000030000046000000000000000000REP       President                                               Marco Rubio                           PRECINCT 4017                                          01 
01050030018000034000020000014000000000000000000REP       President                                               Marco Rubio                           PRECINCT 4018                                          01 
01050030019000082000024000058000000000000000000REP       President                                               Marco Rubio                           PRECINCT 4019                                          01 
01050030020000096000050000046000000000000000000REP       President                                               Marco Rubio                           PRECINCT 4020                                          01 
01050030021000042000010000032000000000000000000REP       President                                               Marco Rubio                           PRECINCT 4021                                          01 
01050040001000000000000000000000000000000000000REP       President                                               Chris Christie                        PRECINCT 1001                                          01 
01050040002000001000000000001000000000000000000REP       President                                               Chris Christie                        PRECINCT 1002                                          01 
01050040003000002000001000001000000000000000000REP       President                                               Chris Christie                        PRECINCT 1003                                          01 
01050040004000001000000000001000000000000000000REP       President                                               Chris Christie                        PRECINCT 1004                                          01 
01050040005000001000001000000000000000000000000REP       President                                               Chris Christie                        PRECINCT 2005                                          01 
01050040006000002000000000002000000000000000000REP       President                                               Chris Christie                        PRECINCT 2006                                          01 
01050040007000001000001000000000000000000000000REP       President                                               Chris Christie                        PRECINCT 2007                                          01 
01050040008000000000000000000000000000000000000REP       President                                               Chris Christie                        PRECINCT 2008                                          01 
01050040009000003000002000001000000000000000000REP       President                                               Chris Christie                        PRECINCT 2009                                          01 
01050040010000001000001000000000000000000000000REP       President                                               Chris Christie                        PRECINCT 2010                                          01 
01050040011000001000001000000000000000000000000REP       President                                               Chris Christie                        PRECINCT 2011                                          01 
01050040012000000000000000000000000000000000000REP       President                                               Chris Christie                        PRECINCT 3012                                          01 
01050040013000002000001000001000000000000000000REP       President                                               Chris Christie                        PRECINCT 3013                                          01 
01050040014000000000000000000000000000000000000REP       President                                               Chris Christie                        PRECINCT 3014                                          01 
01050040015000000000000000000000000000000000000REP       President                                               Chris Christie                        PRECINCT 3015                                          01 
01050040016000001000001000000000000000000000000REP       President                                               Chris Christie                        PRECINCT 3016                                          01 
01050040017000000000000000000000000000000000000REP       President                                               Chris Christie                        PRECINCT 4017                                          01 
01050040018000000000000000000000000000000000000REP       President                                               Chris Christie                        PRECINCT 4018                                          01 
01050040019000000000000000000000000000000000000REP       President                                               Chris Christie                        PRECINCT 4019                                          01 
01050040020000000000000000000000000000000000000REP       President                                               Chris Christie                        PRECINCT 4020                                          01 
01050040021000000000000000000000000000000000000REP       President                                               Chris Christie                        PRECINCT 4021                                          01 
01050050001000000000000000000000000000000000000REP       President                                               Rick Santorum                         PRECINCT 1001                                          01 
01050050002000003000002000001000000000000000000REP       President                                               Rick Santorum                         PRECINCT 1002                                          01 
01050050003000000000000000000000000000000000000REP       President                                               Rick Santorum                         PRECINCT 1003                                          01 
01050050004000000000000000000000000000000000000REP       President                                               Rick Santorum                         PRECINCT 1004                                          01 
01050050005000000000000000000000000000000000000REP       President                                               Rick Santorum                         PRECINCT 2005                                          01 
01050050006000000000000000000000000000000000000REP       President                                               Rick Santorum                         PRECINCT 2006                                          01 
01050050007000000000000000000000000000000000000REP       President                                               Rick Santorum                         PRECINCT 2007                                          01 
01050050008000000000000000000000000000000000000REP       President                                               Rick Santorum                         PRECINCT 2008                                          01 
01050050009000000000000000000000000000000000000REP       President                                               Rick Santorum                         PRECINCT 2009                                          01 
01050050010000000000000000000000000000000000000REP       President                                               Rick Santorum                         PRECINCT 2010                                          01 
01050050011000000000000000000000000000000000000REP       President                                               Rick Santorum                         PRECINCT 2011                                          01 
01050050012000000000000000000000000000000000000REP       President                                               Rick Santorum                         PRECINCT 3012                                          01 
01050050013000000000000000000000000000000000000REP       President                                               Rick Santorum                         PRECINCT 3013                                          01 
01050050014000000000000000000000000000000000000REP       President                                               Rick Santorum                         PRECINCT 3014                                          01 
01050050015000000000000000000000000000000000000REP       President                                               Rick Santorum                         PRECINCT 3015                                          01 
01050050016000000000000000000000000000000000000REP       President                                               Rick Santorum                         PRECINCT 3016                                          01 
01050050017000001000001000000000000000000000000REP       President                                               Rick Santorum                         PRECINCT 4017                                          01 
01050050018000000000000000000000000000000000000REP       President                                               Rick Santorum                         PRECINCT 4018                                          01 
01050050019000000000000000000000000000000000000REP       President                                               Rick Santorum                         PRECINCT 4019                                          01 
01050050020000002000002000000000000000000000000REP       President                                               Rick Santorum                         PRECINCT 4020                                          01 
01050050021000000000000000000000000000000000000REP       President                                               Rick Santorum                         PRECINCT 4021                                          01 
01050060001000045000022000023000000000000000000REP       President                                               Ben Carson                            PRECINCT 1001                                          01 
01050060002000028000017000011000000000000000000REP       President                                               Ben Carson                            PRECINCT 1002                                          01 
01050060003000056000026000030000000000000000000REP       President                                               Ben Carson                            PRECINCT 1003                                          01 
01050060004000021000010000011000000000000000000REP       President                                               Ben Carson                            PRECINCT 1004                                          01 
01050060005000045000017000028000000000000000000REP       President                                               Ben Carson                            PRECINCT 2005                                          01 
01050060006000017000007000010000000000000000000REP       President                                               Ben Carson                            PRECINCT 2006                                          01 
01050060007000034000019000015000000000000000000REP       President                                               Ben Carson                            PRECINCT 2007                                          01 
01050060008000018000012000006000000000000000000REP       President                                               Ben Carson                            PRECINCT 2008                                          01 
01050060009000019000009000010000000000000000000REP       President                                               Ben Carson                            PRECINCT 2009                                          01 
01050060010000029000011000018000000000000000000REP       President                                               Ben Carson                            PRECINCT 2010                                          01 
01050060011000042000016000026000000000000000000REP       President                                               Ben Carson                            PRECINCT 2011                                          01 
01050060012000027000008000018000001000000000000REP       President                                               Ben Carson                            PRECINCT 3012                                          01 
01050060013000010000002000008000000000000000000REP       President                                               Ben Carson                            PRECINCT 3013                                          01 
01050060014000015000008000007000000000000000000REP       President                                               Ben Carson                            PRECINCT 3014                                          01 
01050060015000013000007000006000000000000000000REP       President                                               Ben Carson                            PRECINCT 3015                                          01 
01050060016000035000010000025000000000000000000REP       President                                               Ben Carson                            PRECINCT 3016                                          01 
01050060017000019000006000013000000000000000000REP       President                                               Ben Carson                            PRECINCT 4017                                          01 
01050060018000002000000000002000000000000000000REP       President                                               Ben Carson                            PRECINCT 4018                                          01 
01050060019000029000010000019000000000000000000REP       President                                               Ben Carson                            PRECINCT 4019                                          01 
01050060020000051000020000031000000000000000000REP       President                                               Ben Carson                            PRECINCT 4020                                          01 
01050060021000015000004000011000000000000000000REP       President                                               Ben Carson                            PRECINCT 4021                                          01 
01050070001000000000000000000000000000000000000REP       President                                               Elizabeth Gray                        PRECINCT 1001                                          01 
01050070002000001000001000000000000000000000000REP       President                                               Elizabeth Gray                        PRECINCT 1002                                          01 
01050070003000001000001000000000000000000000000REP       President                                               Elizabeth Gray                        PRECINCT 1003                                          01 
01050070004000000000000000000000000000000000000REP       President                                               Elizabeth Gray                        PRECINCT 1004                                          01 
01050070005000001000000000001000000000000000000REP       President                                               Elizabeth Gray                        PRECINCT 2005                                          01 
01050070006000000000000000000000000000000000000REP       President                                               Elizabeth Gray                        PRECINCT 2006                                          01 
01050070007000000000000000000000000000000000000REP       President                                               Elizabeth Gray                        PRECINCT 2007                                          01 
01050070008000000000000000000000000000000000000REP       President                                               Elizabeth Gray                        PRECINCT 2008                                          01 
01050070009000000000000000000000000000000000000REP       President                                               Elizabeth Gray                        PRECINCT 2009                                          01 
01050070010000000000000000000000000000000000000REP       President                                               Elizabeth Gray                        PRECINCT 2010                                          01 
01050070011000000000000000000000000000000000000REP       President                                               Elizabeth Gray                        PRECINCT 2011                                          01 
01050070012000000000000000000000000000000000000REP       President                                               Elizabeth Gray                        PRECINCT 3012                                          01 
01050070013000002000001000001000000000000000000REP       President                                               Elizabeth Gray                        PRECINCT 3013                                          01 
01050070014000000000000000000000000000000000000REP       President                                               Elizabeth Gray                        PRECINCT 3014                                          01 
01050070015000000000000000000000000000000000000REP       President                                               Elizabeth Gray                        PRECINCT 3015                                          01 
01050070016000000000000000000000000000000000000REP       President                                               Elizabeth Gray                        PRECINCT 3016                                          01 
01050070017000000000000000000000000000000000000REP       President                                               Elizabeth Gray                        PRECINCT 4017                                          01 
01050070018000000000000000000000000000000000000REP       President                                               Elizabeth Gray                        PRECINCT 4018                                          01 
01050070019000000000000000000000000000000000000REP       President                                               Elizabeth Gray                        PRECINCT 4019                                          01 
01050070020000000000000000000000000000000000000REP       President                                               Elizabeth Gray                        PRECINCT 4020                                          01 
01050070021000000000000000000000000000000000000REP       President                                               Elizabeth Gray                        PRECINCT 4021                                          01 
01050080001000002000002000000000000000000000000REP       President                                               Mike Huckabee                         PRECINCT 1001                                          01 
01050080002000001000001000000000000000000000000REP       President                                               Mike Huckabee                         PRECINCT 1002                                          01 
01050080003000005000003000002000000000000000000REP       President                                               Mike Huckabee                         PRECINCT 1003                                          01 
01050080004000002000002000000000000000000000000REP       President                                               Mike Huckabee                         PRECINCT 1004                                          01 
01050080005000002000001000001000000000000000000REP       President                                               Mike Huckabee                         PRECINCT 2005                                          01 
01050080006000000000000000000000000000000000000REP       President                                               Mike Huckabee                         PRECINCT 2006                                          01 
01050080007000001000000000001000000000000000000REP       President                                               Mike Huckabee                         PRECINCT 2007                                          01 
01050080008000001000000000001000000000000000000REP       President                                               Mike Huckabee                         PRECINCT 2008                                          01 
01050080009000001000001000000000000000000000000REP       President                                               Mike Huckabee                         PRECINCT 2009                                          01 
01050080010000001000001000000000000000000000000REP       President                                               Mike Huckabee                         PRECINCT 2010                                          01 
01050080011000000000000000000000000000000000000REP       President                                               Mike Huckabee                         PRECINCT 2011                                          01 
01050080012000000000000000000000000000000000000REP       President                                               Mike Huckabee                         PRECINCT 3012                                          01 
01050080013000000000000000000000000000000000000REP       President                                               Mike Huckabee                         PRECINCT 3013                                          01 
01050080014000002000001000001000000000000000000REP       President                                               Mike Huckabee                         PRECINCT 3014                                          01 
01050080015000005000001000004000000000000000000REP       President                                               Mike Huckabee                         PRECINCT 3015                                          01 
01050080016000000000000000000000000000000000000REP       President                                               Mike Huckabee                         PRECINCT 3016                                          01 
01050080017000000000000000000000000000000000000REP       President                                               Mike Huckabee                         PRECINCT 4017                                          01 
01050080018000001000000000001000000000000000000REP       President                                               Mike Huckabee                         PRECINCT 4018                                          01 
01050080019000003000001000002000000000000000000REP       President                                               Mike Huckabee                         PRECINCT 4019                                          01 
01050080020000001000001000000000000000000000000REP       President                                               Mike Huckabee                         PRECINCT 4020                                          01 
01050080021000003000001000002000000000000000000REP       President                                               Mike Huckabee                         PRECINCT 4021                                          01 
01050090001000276000127000149000000000000000000REP       President                                               Donald J. Trump                       PRECINCT 1001                                          01 
01050090002000167000088000079000000000000000000REP       President                                               Donald J. Trump                       PRECINCT 1002                                          01 
01050090003000477000251000226000000000000000000REP       President                                               Donald J. Trump                       PRECINCT 1003                                          01 
01050090004000142000061000080000001000000000000REP       President                                               Donald J. Trump                       PRECINCT 1004                                          01 
01050090005000191000102000089000000000000000000REP       President                                               Donald J. Trump                       PRECINCT 2005                                          01 
01050090006000124000042000082000000000000000000REP       President                                               Donald J. Trump                       PRECINCT 2006                                          01 
01050090007000222000087000135000000000000000000REP       President                                               Donald J. Trump                       PRECINCT 2007                                          01 
01050090008000085000050000035000000000000000000REP       President                                               Donald J. Trump                       PRECINCT 2008                                          01 
01050090009000097000053000044000000000000000000REP       President                                               Donald J. Trump                       PRECINCT 2009                                          01 
01050090010000125000038000087000000000000000000REP       President                                               Donald J. Trump                       PRECINCT 2010                                          01 
01050090011000230000115000115000000000000000000REP       President                                               Donald J. Trump                       PRECINCT 2011                                          01 
01050090012000097000037000060000000000000000000REP       President                                               Donald J. Trump                       PRECINCT 3012                                          01 
01050090013000139000037000102000000000000000000REP       President                                               Donald J. Trump                       PRECINCT 3013                                          01 
01050090014000155000069000085000001000000000000REP       President                                               Donald J. Trump                       PRECINCT 3014                                          01 
01050090015000113000046000067000000000000000000REP       President                                               Donald J. Trump                       PRECINCT 3015                                          01 
01050090016000200000089000111000000000000000000REP       President                                               Donald J. Trump                       PRECINCT 3016                                          01 
01050090017000166000082000084000000000000000000REP       President                                               Donald J. Trump                       PRECINCT 4017                                          01 
01050090018000061000029000032000000000000000000REP       President                                               Donald J. Trump                       PRECINCT 4018                                          01 
01050090019000206000081000125000000000000000000REP       President                                               Donald J. Trump                       PRECINCT 4019                                          01 
01050090020000180000104000076000000000000000000REP       President                                               Donald J. Trump                       PRECINCT 4020                                          01 
01050090021000137000041000095000001000000000000REP       President                                               Donald J. Trump                       PRECINCT 4021                                          01 
01050100001000313000156000156000001000000000000REP       President                                               Ted Cruz                              PRECINCT 1001                                          01 
01050100002000186000090000095000001000000000000REP       President                                               Ted Cruz                              PRECINCT 1002                                          01 
01050100003000517000241000276000000000000000000REP       President                                               Ted Cruz                              PRECINCT 1003                                          01 
01050100004000185000069000116000000000000000000REP       President                                               Ted Cruz                              PRECINCT 1004                                          01 
01050100005000244000115000129000000000000000000REP       President                                               Ted Cruz                              PRECINCT 2005                                          01 
01050100006000162000070000092000000000000000000REP       President                                               Ted Cruz                              PRECINCT 2006                                          01 
01050100007000288000113000174000001000000000000REP       President                                               Ted Cruz                              PRECINCT 2007                                          01 
01050100008000102000043000059000000000000000000REP       President                                               Ted Cruz                              PRECINCT 2008                                          01 
01050100009000114000044000070000000000000000000REP       President                                               Ted Cruz                              PRECINCT 2009                                          01 
01050100010000159000048000111000000000000000000REP       President                                               Ted Cruz                              PRECINCT 2010                                          01 
01050100011000221000095000126000000000000000000REP       President                                               Ted Cruz                              PRECINCT 2011                                          01 
01050100012000133000055000078000000000000000000REP       President                                               Ted Cruz                              PRECINCT 3012                                          01 
01050100013000170000030000140000000000000000000REP       President                                               Ted Cruz                              PRECINCT 3013                                          01 
01050100014000165000060000104000001000000000000REP       President                                               Ted Cruz                              PRECINCT 3014                                          01 
01050100015000163000080000083000000000000000000REP       President                                               Ted Cruz                              PRECINCT 3015                                          01 
01050100016000243000106000137000000000000000000REP       President                                               Ted Cruz                              PRECINCT 3016                                          01 
01050100017000165000063000101000001000000000000REP       President                                               Ted Cruz                              PRECINCT 4017                                          01 
01050100018000059000026000033000000000000000000REP       President                                               Ted Cruz                              PRECINCT 4018                                          01 
01050100019000237000093000144000000000000000000REP       President                                               Ted Cruz                              PRECINCT 4019                                          01 
01050100020000259000126000133000000000000000000REP       President                                               Ted Cruz                              PRECINCT 4020                                          01 
01050100021000122000041000081000000000000000000REP       President                                               Ted Cruz                              PRECINCT 4021                                          01 
01050110001000012000010000002000000000000000000REP       President                                               Jeb Bush                              PRECINCT 1001                                          01 
01050110002000008000006000002000000000000000000REP       President                                               Jeb Bush                              PRECINCT 1002                                          01 
01050110003000015000014000001000000000000000000REP       President                                               Jeb Bush                              PRECINCT 1003                                          01 
01050110004000006000005000001000000000000000000REP       President                                               Jeb Bush                              PRECINCT 1004                                          01 
01050110005000011000008000003000000000000000000REP       President                                               Jeb Bush                              PRECINCT 2005                                          01 
01050110006000006000004000002000000000000000000REP       President                                               Jeb Bush                              PRECINCT 2006                                          01 
01050110007000007000006000001000000000000000000REP       President                                               Jeb Bush                              PRECINCT 2007                                          01 
01050110008000005000005000000000000000000000000REP       President                                               Jeb Bush                              PRECINCT 2008                                          01 
01050110009000000000000000000000000000000000000REP       President                                               Jeb Bush                              PRECINCT 2009                                          01 
01050110010000001000001000000000000000000000000REP       President                                               Jeb Bush                              PRECINCT 2010                                          01 
01050110011000005000001000004000000000000000000REP       President                                               Jeb Bush                              PRECINCT 2011                                          01 
01050110012000004000003000001000000000000000000REP       President                                               Jeb Bush                              PRECINCT 3012                                          01 
01050110013000001000001000000000000000000000000REP       President                                               Jeb Bush                              PRECINCT 3013                                          01 
01050110014000001000001000000000000000000000000REP       President                                               Jeb Bush                              PRECINCT 3014                                          01 
01050110015000004000003000001000000000000000000REP       President                                               Jeb Bush                              PRECINCT 3015                                          01 
01050110016000008000007000001000000000000000000REP       President                                               Jeb Bush                              PRECINCT 3016                                          01 
01050110017000011000008000003000000000000000000REP       President                                               Jeb Bush                              PRECINCT 4017                                          01 
01050110018000002000002000000000000000000000000REP       President                                               Jeb Bush                              PRECINCT 4018                                          01 
01050110019000009000007000002000000000000000000REP       President                                               Jeb Bush                              PRECINCT 4019                                          01 
01050110020000005000004000001000000000000000000REP       President                                               Jeb Bush                              PRECINCT 4020                                          01 
01050110021000002000001000001000000000000000000REP       President                                               Jeb Bush                              PRECINCT 4021                                          01 
01050120001000000000000000000000000000000000000REP       President                                               Lindsey Graham                        PRECINCT 1001                                          01 
01050120002000000000000000000000000000000000000REP       President                                               Lindsey Graham                        PRECINCT 1002                                          01 
01050120003000000000000000000000000000000000000REP       President                                               Lindsey Graham                        PRECINCT 1003                                          01 
01050120004000000000000000000000000000000000000REP       President                                               Lindsey Graham                        PRECINCT 1004                                          01 
01050120005000000000000000000000000000000000000REP       President                                               Lindsey Graham                        PRECINCT 2005                                          01 
01050120006000000000000000000000000000000000000REP       President                                               Lindsey Graham                        PRECINCT 2006                                          01 
01050120007000000000000000000000000000000000000REP       President                                               Lindsey Graham                        PRECINCT 2007                                          01 
01050120008000000000000000000000000000000000000REP       President                                               Lindsey Graham                        PRECINCT 2008                                          01 
01050120009000000000000000000000000000000000000REP       President                                               Lindsey Graham                        PRECINCT 2009                                          01 
01050120010000000000000000000000000000000000000REP       President                                               Lindsey Graham                        PRECINCT 2010                                          01 
01050120011000000000000000000000000000000000000REP       President                                               Lindsey Graham                        PRECINCT 2011                                          01 
01050120012000000000000000000000000000000000000REP       President                                               Lindsey Graham                        PRECINCT 3012                                          01 
01050120013000000000000000000000000000000000000REP       President                                               Lindsey Graham                        PRECINCT 3013                                          01 
01050120014000000000000000000000000000000000000REP       President                                               Lindsey Graham                        PRECINCT 3014                                          01 
01050120015000000000000000000000000000000000000REP       President                                               Lindsey Graham                        PRECINCT 3015                                          01 
01050120016000000000000000000000000000000000000REP       President                                               Lindsey Graham                        PRECINCT 3016                                          01 
01050120017000000000000000000000000000000000000REP       President                                               Lindsey Graham                        PRECINCT 4017                                          01 
01050120018000000000000000000000000000000000000REP       President                                               Lindsey Graham                        PRECINCT 4018                                          01 
01050120019000000000000000000000000000000000000REP       President                                               Lindsey Graham                        PRECINCT 4019                                          01 
01050120020000000000000000000000000000000000000REP       President                                               Lindsey Graham                        PRECINCT 4020                                          01 
01050120021000000000000000000000000000000000000REP       President                                               Lindsey Graham                        PRECINCT 4021                                          01 
01050130001000001000001000000000000000000000000REP       President                                               Carly Fiorina                         PRECINCT 1001                                          01 
01050130002000001000001000000000000000000000000REP       President                                               Carly Fiorina                         PRECINCT 1002                                          01 
01050130003000006000005000001000000000000000000REP       President                                               Carly Fiorina                         PRECINCT 1003                                          01 
01050130004000001000000000001000000000000000000REP       President                                               Carly Fiorina                         PRECINCT 1004                                          01 
01050130005000000000000000000000000000000000000REP       President                                               Carly Fiorina                         PRECINCT 2005                                          01 
01050130006000000000000000000000000000000000000REP       President                                               Carly Fiorina                         PRECINCT 2006                                          01 
01050130007000001000001000000000000000000000000REP       President                                               Carly Fiorina                         PRECINCT 2007                                          01 
01050130008000000000000000000000000000000000000REP       President                                               Carly Fiorina                         PRECINCT 2008                                          01 
01050130009000002000001000001000000000000000000REP       President                                               Carly Fiorina                         PRECINCT 2009                                          01 
01050130010000000000000000000000000000000000000REP       President                                               Carly Fiorina                         PRECINCT 2010                                          01 
01050130011000001000000000001000000000000000000REP       President                                               Carly Fiorina                         PRECINCT 2011                                          01 
01050130012000000000000000000000000000000000000REP       President                                               Carly Fiorina                         PRECINCT 3012                                          01 
01050130013000000000000000000000000000000000000REP       President                                               Carly Fiorina                         PRECINCT 3013                                          01 
01050130014000000000000000000000000000000000000REP       President                                               Carly Fiorina                         PRECINCT 3014                                          01 
01050130015000000000000000000000000000000000000REP       President                                               Carly Fiorina                         PRECINCT 3015                                          01 
01050130016000001000000000001000000000000000000REP       President                                               Carly Fiorina                         PRECINCT 3016                                          01 
01050130017000001000000000001000000000000000000REP       President                                               Carly Fiorina                         PRECINCT 4017                                          01 
01050130018000000000000000000000000000000000000REP       President                                               Carly Fiorina                         PRECINCT 4018                                          01 
01050130019000000000000000000000000000000000000REP       President                                               Carly Fiorina                         PRECINCT 4019                                          01 
01050130020000000000000000000000000000000000000REP       President                                               Carly Fiorina                         PRECINCT 4020                                          01 
01050130021000000000000000000000000000000000000REP       President                                               Carly Fiorina                         PRECINCT 4021                                          01 
01050140001000018000011000007000000000000000000REP       President                                               Uncommitted                           PRECINCT 1001                                          01 
01050140002000015000008000007000000000000000000REP       President                                               Uncommitted                           PRECINCT 1002                                          01 
01050140003000025000020000005000000000000000000REP       President                                               Uncommitted                           PRECINCT 1003                                          01 
01050140004000006000003000003000000000000000000REP       President                                               Uncommitted                           PRECINCT 1004                                          01 
01050140005000006000004000002000000000000000000REP       President                                               Uncommitted                           PRECINCT 2005                                          01 
01050140006000005000005000000000000000000000000REP       President                                               Uncommitted                           PRECINCT 2006                                          01 
01050140007000010000006000004000000000000000000REP       President                                               Uncommitted                           PRECINCT 2007                                          01 
01050140008000004000001000003000000000000000000REP       President                                               Uncommitted                           PRECINCT 2008                                          01 
01050140009000004000002000002000000000000000000REP       President                                               Uncommitted                           PRECINCT 2009                                          01 
01050140010000004000003000001000000000000000000REP       President                                               Uncommitted                           PRECINCT 2010                                          01 
01050140011000014000007000007000000000000000000REP       President                                               Uncommitted                           PRECINCT 2011                                          01 
01050140012000008000003000005000000000000000000REP       President                                               Uncommitted                           PRECINCT 3012                                          01 
01050140013000006000002000004000000000000000000REP       President                                               Uncommitted                           PRECINCT 3013                                          01 
01050140014000007000004000003000000000000000000REP       President                                               Uncommitted                           PRECINCT 3014                                          01 
01050140015000004000003000001000000000000000000REP       President                                               Uncommitted                           PRECINCT 3015                                          01 
01050140016000011000006000005000000000000000000REP       President                                               Uncommitted                           PRECINCT 3016                                          01 
01050140017000007000003000004000000000000000000REP       President                                               Uncommitted                           PRECINCT 4017                                          01 
01050140018000002000001000001000000000000000000REP       President                                               Uncommitted                           PRECINCT 4018                                          01 
01050140019000004000004000000000000000000000000REP       President                                               Uncommitted                           PRECINCT 4019                                          01 
01050140020000010000004000006000000000000000000REP       President                                               Uncommitted                           PRECINCT 4020                                          01 
01050140021000005000001000004000000000000000000REP       President                                               Uncommitted                           PRECINCT 4021                                          01 
01050150001000000000000000000000000000000000000REP       President                                               OVER VOTES                            PRECINCT 1001                                          01 
01050150002000000000000000000000000000000000000REP       President                                               OVER VOTES                            PRECINCT 1002                                          01 
01050150003000000000000000000000000000000000000REP       President                                               OVER VOTES                            PRECINCT 1003                                          01 
01050150004000000000000000000000000000000000000REP       President                                               OVER VOTES                            PRECINCT 1004                                          01 
01050150005000000000000000000000000000000000000REP       President                                               OVER VOTES                            PRECINCT 2005                                          01 
01050150006000000000000000000000000000000000000REP       President                                               OVER VOTES                            PRECINCT 2006                                          01 
01050150007000000000000000000000000000000000000REP       President                                               OVER VOTES                            PRECINCT 2007                                          01 
01050150008000000000000000000000000000000000000REP       President                                               OVER VOTES                            PRECINCT 2008                                          01 
01050150009000000000000000000000000000000000000REP       President                                               OVER VOTES                            PRECINCT 2009                                          01 
01050150010000000000000000000000000000000000000REP       President                                               OVER VOTES                            PRECINCT 2010                                          01 
01050150011000000000000000000000000000000000000REP       President                                               OVER VOTES                            PRECINCT 2011                                          01 
01050150012000000000000000000000000000000000000REP       President                                               OVER VOTES                            PRECINCT 3012                                          01 
01050150013000000000000000000000000000000000000REP       President                                               OVER VOTES                            PRECINCT 3013                                          01 
01050150014000000000000000000000000000000000000REP       President                                               OVER VOTES                            PRECINCT 3014                                          01 
01050150015000000000000000000000000000000000000REP       President                                               OVER VOTES                            PRECINCT 3015                                          01 
01050150016000000000000000000000000000000000000REP       President                                               OVER VOTES                            PRECINCT 3016                                          01 
01050150017000000000000000000000000000000000000REP       President                                               OVER VOTES                            PRECINCT 4017                                          01 
01050150018000000000000000000000000000000000000REP       President                                               OVER VOTES                            PRECINCT 4018                                          01 
01050150019000000000000000000000000000000000000REP       President                                               OVER VOTES                            PRECINCT 4019                                          01 
01050150020000000000000000000000000000000000000REP       President                                               OVER VOTES                            PRECINCT 4020                                          01 
01050150021000000000000000000000000000000000000REP       President                                               OVER VOTES                            PRECINCT 4021                                          01 
01050160001000008000005000003000000000000000000REP       President                                               UNDER VOTES                           PRECINCT 1001                                          01 
01050160002000003000002000001000000000000000000REP       President                                               UNDER VOTES                           PRECINCT 1002                                          01 
01050160003000007000004000003000000000000000000REP       President                                               UNDER VOTES                           PRECINCT 1003                                          01 
01050160004000000000000000000000000000000000000REP       President                                               UNDER VOTES                           PRECINCT 1004                                          01 
01050160005000010000005000005000000000000000000REP       President                                               UNDER VOTES                           PRECINCT 2005                                          01 
01050160006000001000001000000000000000000000000REP       President                                               UNDER VOTES                           PRECINCT 2006                                          01 
01050160007000002000000000002000000000000000000REP       President                                               UNDER VOTES                           PRECINCT 2007                                          01 
01050160008000002000002000000000000000000000000REP       President                                               UNDER VOTES                           PRECINCT 2008                                          01 
01050160009000004000001000003000000000000000000REP       President                                               UNDER VOTES                           PRECINCT 2009                                          01 
01050160010000001000000000001000000000000000000REP       President                                               UNDER VOTES                           PRECINCT 2010                                          01 
01050160011000001000000000001000000000000000000REP       President                                               UNDER VOTES                           PRECINCT 2011                                          01 
01050160012000001000001000000000000000000000000REP       President                                               UNDER VOTES                           PRECINCT 3012                                          01 
01050160013000001000001000000000000000000000000REP       President                                               UNDER VOTES                           PRECINCT 3013                                          01 
01050160014000002000000000002000000000000000000REP       President                                               UNDER VOTES                           PRECINCT 3014                                          01 
01050160015000000000000000000000000000000000000REP       President                                               UNDER VOTES                           PRECINCT 3015                                          01 
01050160016000002000001000001000000000000000000REP       President                                               UNDER VOTES                           PRECINCT 3016                                          01 
01050160017000005000004000001000000000000000000REP       President                                               UNDER VOTES                           PRECINCT 4017                                          01 
01050160018000001000001000000000000000000000000REP       President                                               UNDER VOTES                           PRECINCT 4018                                          01 
01050160019000001000000000001000000000000000000REP       President                                               UNDER VOTES                           PRECINCT 4019                                          01 
01050160020000006000003000003000000000000000000REP       President                                               UNDER VOTES                           PRECINCT 4020                                          01 
01050160021000003000002000001000000000000000000REP       President                                               UNDER VOTES                           PRECINCT 4021                                          01 
01060010001000643000334000308000001000000000000REP       United States Representative, Dist 10                   Michael T. McCaul                     PRECINCT 1001                                          01 
01060010002000404000223000180000001000000000000REP       United States Representative, Dist 10                   Michael T. McCaul                     PRECINCT 1002                                          01 
01060010004000333000147000185000001000000000000REP       United States Representative, Dist 10                   Michael T. McCaul                     PRECINCT 1004                                          01 
01060010005000494000263000231000000000000000000REP       United States Representative, Dist 10                   Michael T. McCaul                     PRECINCT 2005                                          01 
01060010006000286000119000167000000000000000000REP       United States Representative, Dist 10                   Michael T. McCaul                     PRECINCT 2006                                          01 
01060010009000238000114000124000000000000000000REP       United States Representative, Dist 10                   Michael T. McCaul                     PRECINCT 2009                                          01 
01060010010000323000104000219000000000000000000REP       United States Representative, Dist 10                   Michael T. McCaul                     PRECINCT 2010                                          01 
01060010011000450000210000240000000000000000000REP       United States Representative, Dist 10                   Michael T. McCaul                     PRECINCT 2011                                          01 
01060010017000364000168000195000001000000000000REP       United States Representative, Dist 10                   Michael T. McCaul                     PRECINCT 4017                                          01 
01060010019000454000183000271000000000000000000REP       United States Representative, Dist 10                   Michael T. McCaul                     PRECINCT 4019                                          01 
01060010020000508000271000237000000000000000000REP       United States Representative, Dist 10                   Michael T. McCaul                     PRECINCT 4020                                          01 
01060010021000266000079000186000001000000000000REP       United States Representative, Dist 10                   Michael T. McCaul                     PRECINCT 4021                                          01 
01060020001000000000000000000000000000000000000REP       United States Representative, Dist 10                   OVER VOTES                            PRECINCT 1001                                          01 
01060020002000000000000000000000000000000000000REP       United States Representative, Dist 10                   OVER VOTES                            PRECINCT 1002                                          01 
01060020004000000000000000000000000000000000000REP       United States Representative, Dist 10                   OVER VOTES                            PRECINCT 1004                                          01 
01060020005000000000000000000000000000000000000REP       United States Representative, Dist 10                   OVER VOTES                            PRECINCT 2005                                          01 
01060020006000000000000000000000000000000000000REP       United States Representative, Dist 10                   OVER VOTES                            PRECINCT 2006                                          01 
01060020009000000000000000000000000000000000000REP       United States Representative, Dist 10                   OVER VOTES                            PRECINCT 2009                                          01 
01060020010000000000000000000000000000000000000REP       United States Representative, Dist 10                   OVER VOTES                            PRECINCT 2010                                          01 
01060020011000000000000000000000000000000000000REP       United States Representative, Dist 10                   OVER VOTES                            PRECINCT 2011                                          01 
01060020017000000000000000000000000000000000000REP       United States Representative, Dist 10                   OVER VOTES                            PRECINCT 4017                                          01 
01060020019000000000000000000000000000000000000REP       United States Representative, Dist 10                   OVER VOTES                            PRECINCT 4019                                          01 
01060020020000000000000000000000000000000000000REP       United States Representative, Dist 10                   OVER VOTES                            PRECINCT 4020                                          01 
01060020021000000000000000000000000000000000000REP       United States Representative, Dist 10                   OVER VOTES                            PRECINCT 4021                                          01 
01060030001000221000100000121000000000000000000REP       United States Representative, Dist 10                   UNDER VOTES                           PRECINCT 1001                                          01 
01060030002000138000067000071000000000000000000REP       United States Representative, Dist 10                   UNDER VOTES                           PRECINCT 1002                                          01 
01060030004000073000027000046000000000000000000REP       United States Representative, Dist 10                   UNDER VOTES                           PRECINCT 1004                                          01 
01060030005000156000068000088000000000000000000REP       United States Representative, Dist 10                   UNDER VOTES                           PRECINCT 2005                                          01 
01060030006000092000035000057000000000000000000REP       United States Representative, Dist 10                   UNDER VOTES                           PRECINCT 2006                                          01 
01060030009000058000022000036000000000000000000REP       United States Representative, Dist 10                   UNDER VOTES                           PRECINCT 2009                                          01 
01060030010000055000022000033000000000000000000REP       United States Representative, Dist 10                   UNDER VOTES                           PRECINCT 2010                                          01 
01060030011000157000074000083000000000000000000REP       United States Representative, Dist 10                   UNDER VOTES                           PRECINCT 2011                                          01 
01060030017000107000038000069000000000000000000REP       United States Representative, Dist 10                   UNDER VOTES                           PRECINCT 4017                                          01 
01060030019000134000044000090000000000000000000REP       United States Representative, Dist 10                   UNDER VOTES                           PRECINCT 4019                                          01 
01060030020000133000060000073000000000000000000REP       United States Representative, Dist 10                   UNDER VOTES                           PRECINCT 4020                                          01 
01060030021000069000023000046000000000000000000REP       United States Representative, Dist 10                   UNDER VOTES                           PRECINCT 4021                                          01 
01070010018000074000039000035000000000000000000REP       United States Representative, Dist 17                   Ralph Patterson                       PRECINCT 4018                                          01 
01070020018000022000011000011000000000000000000REP       United States Representative, Dist 17                   Kaleb Sims                            PRECINCT 4018                                          01 
01070030018000053000025000028000000000000000000REP       United States Representative, Dist 17                   Bill Flores                           PRECINCT 4018                                          01 
01070040018000000000000000000000000000000000000REP       United States Representative, Dist 17                   OVER VOTES                            PRECINCT 4018                                          01 
01070050018000027000013000014000000000000000000REP       United States Representative, Dist 17                   UNDER VOTES                           PRECINCT 4018                                          01 
01080010003000794000418000376000000000000000000REP       United States Representative, Dist 27                   Blake Farenthold                      PRECINCT 1003                                          01 
01080010007000378000164000214000000000000000000REP       United States Representative, Dist 27                   Blake Farenthold                      PRECINCT 2007                                          01 
01080010008000156000080000076000000000000000000REP       United States Representative, Dist 27                   Blake Farenthold                      PRECINCT 2008                                          01 
01080010012000188000079000108000001000000000000REP       United States Representative, Dist 27                   Blake Farenthold                      PRECINCT 3012                                          01 
01080010013000226000060000166000000000000000000REP       United States Representative, Dist 27                   Blake Farenthold                      PRECINCT 3013                                          01 
01080010014000238000111000125000002000000000000REP       United States Representative, Dist 27                   Blake Farenthold                      PRECINCT 3014                                          01 
01080010015000227000114000113000000000000000000REP       United States Representative, Dist 27                   Blake Farenthold                      PRECINCT 3015                                          01 
01080010016000334000177000157000000000000000000REP       United States Representative, Dist 27                   Blake Farenthold                      PRECINCT 3016                                          01 
01080020003000371000206000165000000000000000000REP       United States Representative, Dist 27                   Gregg Deeb                            PRECINCT 1003                                          01 
01080020007000133000051000082000000000000000000REP       United States Representative, Dist 27                   Gregg Deeb                            PRECINCT 2007                                          01 
01080020008000063000036000027000000000000000000REP       United States Representative, Dist 27                   Gregg Deeb                            PRECINCT 2008                                          01 
01080020012000067000025000042000000000000000000REP       United States Representative, Dist 27                   Gregg Deeb                            PRECINCT 3012                                          01 
