01010010001000000          REGISTERED VOTERS - TOTAL                               REGISTERED VOTERS - TOTAL             PCT 1 - SE HENRIETTA                                   00 
01010010002000000          REGISTERED VOTERS - TOTAL                               REGISTERED VOTERS - TOTAL             PCT 6 - BYERS                                          00 
01010010003000000          REGISTERED VOTERS - TOTAL                               REGISTERED VOTERS - TOTAL             PCT 8 - NE HENRIETTA                                   00 
01010010004000000          REGISTERED VOTERS - TOTAL                               REGISTERED VOTERS - TOTAL             PCT 9 - NW HENRIETTA                                   00 
01010010005000000          REGISTERED VOTERS - TOTAL                               REGISTERED VOTERS - TOTAL             PCT 10 - VASHTI                                        00 
01010010006000000          REGISTERED VOTERS - TOTAL                               REGISTERED VOTERS - TOTAL             PCT 11 - DEAN                                          00 
01010010007000000          REGISTERED VOTERS - TOTAL                               REGISTERED VOTERS - TOTAL             PCT 12 - JOLLY                                         00 
01010010008000000          REGISTERED VOTERS - TOTAL                               REGISTERED VOTERS - TOTAL             PCT 13 - THORNBERRY                                    00 
01010010009000000          REGISTERED VOTERS - TOTAL                               REGISTERED VOTERS - TOTAL             PCT 14 - CHARLIE                                       00 
01010010010000000          REGISTERED VOTERS - TOTAL                               REGISTERED VOTERS - TOTAL             PCT 15 - SW HENRIETTA                                  00 
01010010011000000          REGISTERED VOTERS - TOTAL                               REGISTERED VOTERS - TOTAL             PCT 17 - ARROWHEAD                                     00 
01010010012000000          REGISTERED VOTERS - TOTAL                               REGISTERED VOTERS - TOTAL             PCT 20 - MIDWAY                                        00 
01010010013000000          REGISTERED VOTERS - TOTAL                               REGISTERED VOTERS - TOTAL             PCT 24 - BELLEVUE                                      00 
01010010014000000          REGISTERED VOTERS - TOTAL                               REGISTERED VOTERS - TOTAL             PCT 26 - BUFFALO SPRINGS                               00 
01010010015000000          REGISTERED VOTERS - TOTAL                               REGISTERED VOTERS - TOTAL             PCT 27 - PETROLIA                                      00 
01010010016000000          REGISTERED VOTERS - TOTAL                               REGISTERED VOTERS - TOTAL             PCT 32 - WINDTHORST                                    00 
01020010001000357          BALLOTS CAST - TOTAL                                    BALLOTS CAST - TOTAL                  PCT 1 - SE HENRIETTA                                   00 
01020010002000204          BALLOTS CAST - TOTAL                                    BALLOTS CAST - TOTAL                  PCT 6 - BYERS                                          00 
01020010003000364          BALLOTS CAST - TOTAL                                    BALLOTS CAST - TOTAL                  PCT 8 - NE HENRIETTA                                   00 
01020010004000235          BALLOTS CAST - TOTAL                                    BALLOTS CAST - TOTAL                  PCT 9 - NW HENRIETTA                                   00 
01020010005000122          BALLOTS CAST - TOTAL                                    BALLOTS CAST - TOTAL                  PCT 10 - VASHTI                                        00 
01020010006000342          BALLOTS CAST - TOTAL                                    BALLOTS CAST - TOTAL                  PCT 11 - DEAN                                          00 
01020010007000128          BALLOTS CAST - TOTAL                                    BALLOTS CAST - TOTAL                  PCT 12 - JOLLY                                         00 
01020010008000075          BALLOTS CAST - TOTAL                                    BALLOTS CAST - TOTAL                  PCT 13 - THORNBERRY                                    00 
01020010009000082          BALLOTS CAST - TOTAL                                    BALLOTS CAST - TOTAL                  PCT 14 - CHARLIE                                       00 
01020010010000161          BALLOTS CAST - TOTAL                                    BALLOTS CAST - TOTAL                  PCT 15 - SW HENRIETTA                                  00 
01020010011000366          BALLOTS CAST - TOTAL                                    BALLOTS CAST - TOTAL                  PCT 17 - ARROWHEAD                                     00 
01020010012000209          BALLOTS CAST - TOTAL                                    BALLOTS CAST - TOTAL                  PCT 20 - MIDWAY                                        00 
01020010013000141          BALLOTS CAST - TOTAL                                    BALLOTS CAST - TOTAL                  PCT 24 - BELLEVUE                                      00 
01020010014000080          BALLOTS CAST - TOTAL                                    BALLOTS CAST - TOTAL                  PCT 26 - BUFFALO SPRINGS                               00 
01020010015000193          BALLOTS CAST - TOTAL                                    BALLOTS CAST - TOTAL                  PCT 27 - PETROLIA                                      00 
01020010016000122          BALLOTS CAST - TOTAL                                    BALLOTS CAST - TOTAL                  PCT 32 - WINDTHORST                                    00 
01030010001000323REP       BALLOTS CAST - REPUBLICAN PARTY                         BALLOTS CAST - REPUBLICAN PARTY       PCT 1 - SE HENRIETTA                                   00 
01030010002000187REP       BALLOTS CAST - REPUBLICAN PARTY                         BALLOTS CAST - REPUBLICAN PARTY       PCT 6 - BYERS                                          00 
01030010003000351REP       BALLOTS CAST - REPUBLICAN PARTY                         BALLOTS CAST - REPUBLICAN PARTY       PCT 8 - NE HENRIETTA                                   00 
01030010004000218REP       BALLOTS CAST - REPUBLICAN PARTY                         BALLOTS CAST - REPUBLICAN PARTY       PCT 9 - NW HENRIETTA                                   00 
01030010005000118REP       BALLOTS CAST - REPUBLICAN PARTY                         BALLOTS CAST - REPUBLICAN PARTY       PCT 10 - VASHTI                                        00 
01030010006000325REP       BALLOTS CAST - REPUBLICAN PARTY                         BALLOTS CAST - REPUBLICAN PARTY       PCT 11 - DEAN                                          00 
01030010007000125REP       BALLOTS CAST - REPUBLICAN PARTY                         BALLOTS CAST - REPUBLICAN PARTY       PCT 12 - JOLLY                                         00 
01030010008000063REP       BALLOTS CAST - REPUBLICAN PARTY                         BALLOTS CAST - REPUBLICAN PARTY       PCT 13 - THORNBERRY                                    00 
01030010009000076REP       BALLOTS CAST - REPUBLICAN PARTY                         BALLOTS CAST - REPUBLICAN PARTY       PCT 14 - CHARLIE                                       00 
01030010010000146REP       BALLOTS CAST - REPUBLICAN PARTY                         BALLOTS CAST - REPUBLICAN PARTY       PCT 15 - SW HENRIETTA                                  00 
01030010011000334REP       BALLOTS CAST - REPUBLICAN PARTY                         BALLOTS CAST - REPUBLICAN PARTY       PCT 17 - ARROWHEAD                                     00 
01030010012000200REP       BALLOTS CAST - REPUBLICAN PARTY                         BALLOTS CAST - REPUBLICAN PARTY       PCT 20 - MIDWAY                                        00 
01030010013000136REP       BALLOTS CAST - REPUBLICAN PARTY                         BALLOTS CAST - REPUBLICAN PARTY       PCT 24 - BELLEVUE                                      00 
01030010014000075REP       BALLOTS CAST - REPUBLICAN PARTY                         BALLOTS CAST - REPUBLICAN PARTY       PCT 26 - BUFFALO SPRINGS                               00 
01030010015000188REP       BALLOTS CAST - REPUBLICAN PARTY                         BALLOTS CAST - REPUBLICAN PARTY       PCT 27 - PETROLIA                                      00 
01030010016000120REP       BALLOTS CAST - REPUBLICAN PARTY                         BALLOTS CAST - REPUBLICAN PARTY       PCT 32 - WINDTHORST                                    00 
01040010001000034DEM       BALLOTS CAST - DEMOCRATIC PARTY                         BALLOTS CAST - DEMOCRATIC PARTY       PCT 1 - SE HENRIETTA                                   00 
01040010002000017DEM       BALLOTS CAST - DEMOCRATIC PARTY                         BALLOTS CAST - DEMOCRATIC PARTY       PCT 6 - BYERS                                          00 
01040010003000013DEM       BALLOTS CAST - DEMOCRATIC PARTY                         BALLOTS CAST - DEMOCRATIC PARTY       PCT 8 - NE HENRIETTA                                   00 
01040010004000017DEM       BALLOTS CAST - DEMOCRATIC PARTY                         BALLOTS CAST - DEMOCRATIC PARTY       PCT 9 - NW HENRIETTA                                   00 
01040010005000004DEM       BALLOTS CAST - DEMOCRATIC PARTY                         BALLOTS CAST - DEMOCRATIC PARTY       PCT 10 - VASHTI                                        00 
01040010006000017DEM       BALLOTS CAST - DEMOCRATIC PARTY                         BALLOTS CAST - DEMOCRATIC PARTY       PCT 11 - DEAN                                          00 
01040010007000003DEM       BALLOTS CAST - DEMOCRATIC PARTY                         BALLOTS CAST - DEMOCRATIC PARTY       PCT 12 - JOLLY                                         00 
01040010008000012DEM       BALLOTS CAST - DEMOCRATIC PARTY                         BALLOTS CAST - DEMOCRATIC PARTY       PCT 13 - THORNBERRY                                    00 
01040010009000006DEM       BALLOTS CAST - DEMOCRATIC PARTY                         BALLOTS CAST - DEMOCRATIC PARTY       PCT 14 - CHARLIE                                       00 
01040010010000015DEM       BALLOTS CAST - DEMOCRATIC PARTY                         BALLOTS CAST - DEMOCRATIC PARTY       PCT 15 - SW HENRIETTA                                  00 
01040010011000032DEM       BALLOTS CAST - DEMOCRATIC PARTY                         BALLOTS CAST - DEMOCRATIC PARTY       PCT 17 - ARROWHEAD                                     00 
01040010012000009DEM       BALLOTS CAST - DEMOCRATIC PARTY                         BALLOTS CAST - DEMOCRATIC PARTY       PCT 20 - MIDWAY                                        00 
01040010013000005DEM       BALLOTS CAST - DEMOCRATIC PARTY                         BALLOTS CAST - DEMOCRATIC PARTY       PCT 24 - BELLEVUE                                      00 
01040010014000005DEM       BALLOTS CAST - DEMOCRATIC PARTY                         BALLOTS CAST - DEMOCRATIC PARTY       PCT 26 - BUFFALO SPRINGS                               00 
01040010015000005DEM       BALLOTS CAST - DEMOCRATIC PARTY                         BALLOTS CAST - DEMOCRATIC PARTY       PCT 27 - PETROLIA                                      00 
01040010016000002DEM       BALLOTS CAST - DEMOCRATIC PARTY                         BALLOTS CAST - DEMOCRATIC PARTY       PCT 32 - WINDTHORST                                    00 
01050010001000138REP       President                                               Ted Cruz                              PCT 1 - SE HENRIETTA                                   01 
01050010002000070REP       President                                               Ted Cruz                              PCT 6 - BYERS                                          01 
01050010003000151REP       President                                               Ted Cruz                              PCT 8 - NE HENRIETTA                                   01 
01050010004000102REP       President                                               Ted Cruz                              PCT 9 - NW HENRIETTA                                   01 
01050010005000068REP       President                                               Ted Cruz                              PCT 10 - VASHTI                                        01 
01050010006000173REP       President                                               Ted Cruz                              PCT 11 - DEAN                                          01 
01050010007000065REP       President                                               Ted Cruz                              PCT 12 - JOLLY                                         01 
01050010008000039REP       President                                               Ted Cruz                              PCT 13 - THORNBERRY                                    01 
01050010009000052REP       President                                               Ted Cruz                              PCT 14 - CHARLIE                                       01 
01050010010000073REP       President                                               Ted Cruz                              PCT 15 - SW HENRIETTA                                  01 
01050010011000151REP       President                                               Ted Cruz                              PCT 17 - ARROWHEAD                                     01 
01050010012000114REP       President                                               Ted Cruz                              PCT 20 - MIDWAY                                        01 
01050010013000065REP       President                                               Ted Cruz                              PCT 24 - BELLEVUE                                      01 
01050010014000035REP       President                                               Ted Cruz                              PCT 26 - BUFFALO SPRINGS                               01 
01050010015000076REP       President                                               Ted Cruz                              PCT 27 - PETROLIA                                      01 
01050010016000056REP       President                                               Ted Cruz                              PCT 32 - WINDTHORST                                    01 
01050020001000005REP       President                                               Jeb Bush                              PCT 1 - SE HENRIETTA                                   01 
01050020002000001REP       President                                               Jeb Bush                              PCT 6 - BYERS                                          01 
01050020003000005REP       President                                               Jeb Bush                              PCT 8 - NE HENRIETTA                                   01 
01050020004000005REP       President                                               Jeb Bush                              PCT 9 - NW HENRIETTA                                   01 
01050020005000000REP       President                                               Jeb Bush                              PCT 10 - VASHTI                                        01 
01050020006000002REP       President                                               Jeb Bush                              PCT 11 - DEAN                                          01 
01050020007000001REP       President                                               Jeb Bush                              PCT 12 - JOLLY                                         01 
01050020008000000REP       President                                               Jeb Bush                              PCT 13 - THORNBERRY                                    01 
01050020009000000REP       President                                               Jeb Bush                              PCT 14 - CHARLIE                                       01 
01050020010000000REP       President                                               Jeb Bush                              PCT 15 - SW HENRIETTA                                  01 
01050020011000001REP       President                                               Jeb Bush                              PCT 17 - ARROWHEAD                                     01 
01050020012000001REP       President                                               Jeb Bush                              PCT 20 - MIDWAY                                        01 
01050020013000004REP       President                                               Jeb Bush                              PCT 24 - BELLEVUE                                      01 
01050020014000001REP       President                                               Jeb Bush                              PCT 26 - BUFFALO SPRINGS                               01 
01050020015000002REP       President                                               Jeb Bush                              PCT 27 - PETROLIA                                      01 
01050020016000001REP       President                                               Jeb Bush                              PCT 32 - WINDTHORST                                    01 
01050030001000000REP       President                                               Rick Santorum                         PCT 1 - SE HENRIETTA                                   01 
01050030002000000REP       President                                               Rick Santorum                         PCT 6 - BYERS                                          01 
01050030003000001REP       President                                               Rick Santorum                         PCT 8 - NE HENRIETTA                                   01 
01050030004000000REP       President                                               Rick Santorum                         PCT 9 - NW HENRIETTA                                   01 
01050030005000000REP       President                                               Rick Santorum                         PCT 10 - VASHTI                                        01 
01050030006000002REP       President                                               Rick Santorum                         PCT 11 - DEAN                                          01 
01050030007000000REP       President                                               Rick Santorum                         PCT 12 - JOLLY                                         01 
01050030008000000REP       President                                               Rick Santorum                         PCT 13 - THORNBERRY                                    01 
01050030009000000REP       President                                               Rick Santorum                         PCT 14 - CHARLIE                                       01 
01050030010000000REP       President                                               Rick Santorum                         PCT 15 - SW HENRIETTA                                  01 
01050030011000000REP       President                                               Rick Santorum                         PCT 17 - ARROWHEAD                                     01 
01050030012000000REP       President                                               Rick Santorum                         PCT 20 - MIDWAY                                        01 
01050030013000000REP       President                                               Rick Santorum                         PCT 24 - BELLEVUE                                      01 
01050030014000001REP       President                                               Rick Santorum                         PCT 26 - BUFFALO SPRINGS                               01 
01050030015000000REP       President                                               Rick Santorum                         PCT 27 - PETROLIA                                      01 
01050030016000000REP       President                                               Rick Santorum                         PCT 32 - WINDTHORST                                    01 
01050040001000002REP       President                                               Chris Christie                        PCT 1 - SE HENRIETTA                                   01 
01050040002000001REP       President                                               Chris Christie                        PCT 6 - BYERS                                          01 
01050040003000000REP       President                                               Chris Christie                        PCT 8 - NE HENRIETTA                                   01 
01050040004000002REP       President                                               Chris Christie                        PCT 9 - NW HENRIETTA                                   01 
01050040005000000REP       President                                               Chris Christie                        PCT 10 - VASHTI                                        01 
01050040006000000REP       President                                               Chris Christie                        PCT 11 - DEAN                                          01 
01050040007000000REP       President                                               Chris Christie                        PCT 12 - JOLLY                                         01 
01050040008000000REP       President                                               Chris Christie                        PCT 13 - THORNBERRY                                    01 
01050040009000000REP       President                                               Chris Christie                        PCT 14 - CHARLIE                                       01 
01050040010000000REP       President                                               Chris Christie                        PCT 15 - SW HENRIETTA                                  01 
01050040011000000REP       President                                               Chris Christie                        PCT 17 - ARROWHEAD                                     01 
01050040012000000REP       President                                               Chris Christie                        PCT 20 - MIDWAY                                        01 
01050040013000000REP       President                                               Chris Christie                        PCT 24 - BELLEVUE                                      01 
01050040014000000REP       President                                               Chris Christie                        PCT 26 - BUFFALO SPRINGS                               01 
01050040015000000REP       President                                               Chris Christie                        PCT 27 - PETROLIA                                      01 
01050040016000000REP       President                                               Chris Christie                        PCT 32 - WINDTHORST                                    01 
01050050001000001REP       President                                               Rand Paul                             PCT 1 - SE HENRIETTA                                   01 
01050050002000000REP       President                                               Rand Paul                             PCT 6 - BYERS                                          01 
01050050003000002REP       President                                               Rand Paul                             PCT 8 - NE HENRIETTA                                   01 
01050050004000001REP       President                                               Rand Paul                             PCT 9 - NW HENRIETTA                                   01 
01050050005000000REP       President                                               Rand Paul                             PCT 10 - VASHTI                                        01 
01050050006000000REP       President                                               Rand Paul                             PCT 11 - DEAN                                          01 
01050050007000001REP       President                                               Rand Paul                             PCT 12 - JOLLY                                         01 
01050050008000001REP       President                                               Rand Paul                             PCT 13 - THORNBERRY                                    01 
01050050009000000REP       President                                               Rand Paul                             PCT 14 - CHARLIE                                       01 
01050050010000000REP       President                                               Rand Paul                             PCT 15 - SW HENRIETTA                                  01 
01050050011000000REP       President                                               Rand Paul                             PCT 17 - ARROWHEAD                                     01 
01050050012000000REP       President                                               Rand Paul                             PCT 20 - MIDWAY                                        01 
01050050013000000REP       President                                               Rand Paul                             PCT 24 - BELLEVUE                                      01 
01050050014000000REP       President                                               Rand Paul                             PCT 26 - BUFFALO SPRINGS                               01 
01050050015000001REP       President                                               Rand Paul                             PCT 27 - PETROLIA                                      01 
01050050016000000REP       President                                               Rand Paul                             PCT 32 - WINDTHORST                                    01 
01050060001000036REP       President                                               Marco Rubio                           PCT 1 - SE HENRIETTA                                   01 
01050060002000022REP       President                                               Marco Rubio                           PCT 6 - BYERS                                          01 
01050060003000038REP       President                                               Marco Rubio                           PCT 8 - NE HENRIETTA                                   01 
01050060004000026REP       President                                               Marco Rubio                           PCT 9 - NW HENRIETTA                                   01 
01050060005000011REP       President                                               Marco Rubio                           PCT 10 - VASHTI                                        01 
01050060006000024REP       President                                               Marco Rubio                           PCT 11 - DEAN                                          01 
01050060007000016REP       President                                               Marco Rubio                           PCT 12 - JOLLY                                         01 
01050060008000002REP       President                                               Marco Rubio                           PCT 13 - THORNBERRY                                    01 
01050060009000010REP       President                                               Marco Rubio                           PCT 14 - CHARLIE                                       01 
01050060010000012REP       President                                               Marco Rubio                           PCT 15 - SW HENRIETTA                                  01 
01050060011000043REP       President                                               Marco Rubio                           PCT 17 - ARROWHEAD                                     01 
01050060012000020REP       President                                               Marco Rubio                           PCT 20 - MIDWAY                                        01 
01050060013000007REP       President                                               Marco Rubio                           PCT 24 - BELLEVUE                                      01 
01050060014000002REP       President                                               Marco Rubio                           PCT 26 - BUFFALO SPRINGS                               01 
01050060015000015REP       President                                               Marco Rubio                           PCT 27 - PETROLIA                                      01 
01050060016000018REP       President                                               Marco Rubio                           PCT 32 - WINDTHORST                                    01 
01050070001000001REP       President                                               Mike Huckabee                         PCT 1 - SE HENRIETTA                                   01 
01050070002000001REP       President                                               Mike Huckabee                         PCT 6 - BYERS                                          01 
01050070003000002REP       President                                               Mike Huckabee                         PCT 8 - NE HENRIETTA                                   01 
01050070004000000REP       President                                               Mike Huckabee                         PCT 9 - NW HENRIETTA                                   01 
01050070005000000REP       President                                               Mike Huckabee                         PCT 10 - VASHTI                                        01 
01050070006000000REP       President                                               Mike Huckabee                         PCT 11 - DEAN                                          01 
01050070007000001REP       President                                               Mike Huckabee                         PCT 12 - JOLLY                                         01 
01050070008000000REP       President                                               Mike Huckabee                         PCT 13 - THORNBERRY                                    01 
01050070009000000REP       President                                               Mike Huckabee                         PCT 14 - CHARLIE                                       01 
01050070010000000REP       President                                               Mike Huckabee                         PCT 15 - SW HENRIETTA                                  01 
01050070011000000REP       President                                               Mike Huckabee                         PCT 17 - ARROWHEAD                                     01 
01050070012000001REP       President                                               Mike Huckabee                         PCT 20 - MIDWAY                                        01 
01050070013000001REP       President                                               Mike Huckabee                         PCT 24 - BELLEVUE                                      01 
01050070014000000REP       President                                               Mike Huckabee                         PCT 26 - BUFFALO SPRINGS                               01 
01050070015000000REP       President                                               Mike Huckabee                         PCT 27 - PETROLIA                                      01 
01050070016000000REP       President                                               Mike Huckabee                         PCT 32 - WINDTHORST                                    01 
01050080001000009REP       President                                               John R. Kasich                        PCT 1 - SE HENRIETTA                                   01 
01050080002000003REP       President                                               John R. Kasich                        PCT 6 - BYERS                                          01 
01050080003000012REP       President                                               John R. Kasich                        PCT 8 - NE HENRIETTA                                   01 
01050080004000009REP       President                                               John R. Kasich                        PCT 9 - NW HENRIETTA                                   01 
01050080005000003REP       President                                               John R. Kasich                        PCT 10 - VASHTI                                        01 
01050080006000007REP       President                                               John R. Kasich                        PCT 11 - DEAN                                          01 
01050080007000002REP       President                                               John R. Kasich                        PCT 12 - JOLLY                                         01 
01050080008000001REP       President                                               John R. Kasich                        PCT 13 - THORNBERRY                                    01 
01050080009000000REP       President                                               John R. Kasich                        PCT 14 - CHARLIE                                       01 
01050080010000006REP       President                                               John R. Kasich                        PCT 15 - SW HENRIETTA                                  01 
01050080011000008REP       President                                               John R. Kasich                        PCT 17 - ARROWHEAD                                     01 
01050080012000008REP       President                                               John R. Kasich                        PCT 20 - MIDWAY                                        01 
01050080013000002REP       President                                               John R. Kasich                        PCT 24 - BELLEVUE                                      01 
01050080014000000REP       President                                               John R. Kasich                        PCT 26 - BUFFALO SPRINGS                               01 
01050080015000002REP       President                                               John R. Kasich                        PCT 27 - PETROLIA                                      01 
01050080016000000REP       President                                               John R. Kasich                        PCT 32 - WINDTHORST                                    01 
01050090001000000REP       President                                               Carly Fiorina                         PCT 1 - SE HENRIETTA                                   01 
01050090002000000REP       President                                               Carly Fiorina                         PCT 6 - BYERS                                          01 
01050090003000001REP       President                                               Carly Fiorina                         PCT 8 - NE HENRIETTA                                   01 
01050090004000001REP       President                                               Carly Fiorina                         PCT 9 - NW HENRIETTA                                   01 
01050090005000000REP       President                                               Carly Fiorina                         PCT 10 - VASHTI                                        01 
01050090006000000REP       President                                               Carly Fiorina                         PCT 11 - DEAN                                          01 
01050090007000000REP       President                                               Carly Fiorina                         PCT 12 - JOLLY                                         01 
01050090008000000REP       President                                               Carly Fiorina                         PCT 13 - THORNBERRY                                    01 
01050090009000000REP       President                                               Carly Fiorina                         PCT 14 - CHARLIE                                       01 
01050090010000000REP       President                                               Carly Fiorina                         PCT 15 - SW HENRIETTA                                  01 
01050090011000000REP       President                                               Carly Fiorina                         PCT 17 - ARROWHEAD                                     01 
01050090012000000REP       President                                               Carly Fiorina                         PCT 20 - MIDWAY                                        01 
01050090013000000REP       President                                               Carly Fiorina                         PCT 24 - BELLEVUE                                      01 
01050090014000000REP       President                                               Carly Fiorina                         PCT 26 - BUFFALO SPRINGS                               01 
01050090015000000REP       President                                               Carly Fiorina                         PCT 27 - PETROLIA                                      01 
01050090016000000REP       President                                               Carly Fiorina                         PCT 32 - WINDTHORST                                    01 
01050100001000000REP       President                                               Lindsey Graham                        PCT 1 - SE HENRIETTA                                   01 
01050100002000000REP       President                                               Lindsey Graham                        PCT 6 - BYERS                                          01 
01050100003000000REP       President                                               Lindsey Graham                        PCT 8 - NE HENRIETTA                                   01 
01050100004000000REP       President                                               Lindsey Graham                        PCT 9 - NW HENRIETTA                                   01 
01050100005000000REP       President                                               Lindsey Graham                        PCT 10 - VASHTI                                        01 
01050100006000000REP       President                                               Lindsey Graham                        PCT 11 - DEAN                                          01 
01050100007000000REP       President                                               Lindsey Graham                        PCT 12 - JOLLY                                         01 
01050100008000000REP       President                                               Lindsey Graham                        PCT 13 - THORNBERRY                                    01 
01050100009000000REP       President                                               Lindsey Graham                        PCT 14 - CHARLIE                                       01 
01050100010000000REP       President                                               Lindsey Graham                        PCT 15 - SW HENRIETTA                                  01 
01050100011000000REP       President                                               Lindsey Graham                        PCT 17 - ARROWHEAD                                     01 
01050100012000000REP       President                                               Lindsey Graham                        PCT 20 - MIDWAY                                        01 
01050100013000000REP       President                                               Lindsey Graham                        PCT 24 - BELLEVUE                                      01 
01050100014000000REP       President                                               Lindsey Graham                        PCT 26 - BUFFALO SPRINGS                               01 
01050100015000000REP       President                                               Lindsey Graham                        PCT 27 - PETROLIA                                      01 
01050100016000000REP       President                                               Lindsey Graham                        PCT 32 - WINDTHORST                                    01 
01050110001000026REP       President                                               Ben Carson                            PCT 1 - SE HENRIETTA                                   01 
01050110002000011REP       President                                               Ben Carson                            PCT 6 - BYERS                                          01 
01050110003000023REP       President                                               Ben Carson                            PCT 8 - NE HENRIETTA                                   01 
01050110004000009REP       President                                               Ben Carson                            PCT 9 - NW HENRIETTA                                   01 
01050110005000005REP       President                                               Ben Carson                            PCT 10 - VASHTI                                        01 
01050110006000022REP       President                                               Ben Carson                            PCT 11 - DEAN                                          01 
01050110007000002REP       President                                               Ben Carson                            PCT 12 - JOLLY                                         01 
01050110008000003REP       President                                               Ben Carson                            PCT 13 - THORNBERRY                                    01 
01050110009000001REP       President                                               Ben Carson                            PCT 14 - CHARLIE                                       01 
01050110010000003REP       President                                               Ben Carson                            PCT 15 - SW HENRIETTA                                  01 
01050110011000022REP       President                                               Ben Carson                            PCT 17 - ARROWHEAD                                     01 
01050110012000006REP       President                                               Ben Carson                            PCT 20 - MIDWAY                                        01 
01050110013000011REP       President                                               Ben Carson                            PCT 24 - BELLEVUE                                      01 
01050110014000008REP       President                                               Ben Carson                            PCT 26 - BUFFALO SPRINGS                               01 
01050110015000013REP       President                                               Ben Carson                            PCT 27 - PETROLIA                                      01 
01050110016000009REP       President                                               Ben Carson                            PCT 32 - WINDTHORST                                    01 
01050120001000091REP       President                                               Donald J. Trump                       PCT 1 - SE HENRIETTA                                   01 
01050120002000062REP       President                                               Donald J. Trump                       PCT 6 - BYERS                                          01 
01050120003000099REP       President                                               Donald J. Trump                       PCT 8 - NE HENRIETTA                                   01 
01050120004000053REP       President                                               Donald J. Trump                       PCT 9 - NW HENRIETTA                                   01 
01050120005000024REP       President                                               Donald J. Trump                       PCT 10 - VASHTI                                        01 
01050120006000093REP       President                                               Donald J. Trump                       PCT 11 - DEAN                                          01 
01050120007000033REP       President                                               Donald J. Trump                       PCT 12 - JOLLY                                         01 
01050120008000013REP       President                                               Donald J. Trump                       PCT 13 - THORNBERRY                                    01 
01050120009000013REP       President                                               Donald J. Trump                       PCT 14 - CHARLIE                                       01 
01050120010000046REP       President                                               Donald J. Trump                       PCT 15 - SW HENRIETTA                                  01 
01050120011000103REP       President                                               Donald J. Trump                       PCT 17 - ARROWHEAD                                     01 
01050120012000049REP       President                                               Donald J. Trump                       PCT 20 - MIDWAY                                        01 
01050120013000044REP       President                                               Donald J. Trump                       PCT 24 - BELLEVUE                                      01 
01050120014000027REP       President                                               Donald J. Trump                       PCT 26 - BUFFALO SPRINGS                               01 
01050120015000061REP       President                                               Donald J. Trump                       PCT 27 - PETROLIA                                      01 
01050120016000033REP       President                                               Donald J. Trump                       PCT 32 - WINDTHORST                                    01 
01050130001000000REP       President                                               Elizabeth Gray                        PCT 1 - SE HENRIETTA                                   01 
01050130002000000REP       President                                               Elizabeth Gray                        PCT 6 - BYERS                                          01 
01050130003000001REP       President                                               Elizabeth Gray                        PCT 8 - NE HENRIETTA                                   01 
01050130004000000REP       President                                               Elizabeth Gray                        PCT 9 - NW HENRIETTA                                   01 
01050130005000000REP       President                                               Elizabeth Gray                        PCT 10 - VASHTI                                        01 
01050130006000000REP       President                                               Elizabeth Gray                        PCT 11 - DEAN                                          01 
01050130007000000REP       President                                               Elizabeth Gray                        PCT 12 - JOLLY                                         01 
01050130008000000REP       President                                               Elizabeth Gray                        PCT 13 - THORNBERRY                                    01 
01050130009000000REP       President                                               Elizabeth Gray                        PCT 14 - CHARLIE                                       01 
01050130010000000REP       President                                               Elizabeth Gray                        PCT 15 - SW HENRIETTA                                  01 
01050130011000001REP       President                                               Elizabeth Gray                        PCT 17 - ARROWHEAD                                     01 
01050130012000000REP       President                                               Elizabeth Gray                        PCT 20 - MIDWAY                                        01 
01050130013000000REP       President                                               Elizabeth Gray                        PCT 24 - BELLEVUE                                      01 
01050130014000000REP       President                                               Elizabeth Gray                        PCT 26 - BUFFALO SPRINGS                               01 
01050130015000000REP       President                                               Elizabeth Gray                        PCT 27 - PETROLIA                                      01 
01050130016000000REP       President                                               Elizabeth Gray                        PCT 32 - WINDTHORST                                    01 
01050140001000009REP       President                                               Uncommitted                           PCT 1 - SE HENRIETTA                                   01 
01050140002000006REP       President                                               Uncommitted                           PCT 6 - BYERS                                          01 
01050140003000007REP       President                                               Uncommitted                           PCT 8 - NE HENRIETTA                                   01 
01050140004000005REP       President                                               Uncommitted                           PCT 9 - NW HENRIETTA                                   01 
01050140005000001REP       President                                               Uncommitted                           PCT 10 - VASHTI                                        01 
01050140006000003REP       President                                               Uncommitted                           PCT 11 - DEAN                                          01 
01050140007000003REP       President                                               Uncommitted                           PCT 12 - JOLLY                                         01 
01050140008000002REP       President                                               Uncommitted                           PCT 13 - THORNBERRY                                    01 
01050140009000000REP       President                                               Uncommitted                           PCT 14 - CHARLIE                                       01 
01050140010000000REP       President                                               Uncommitted                           PCT 15 - SW HENRIETTA                                  01 
01050140011000002REP       President                                               Uncommitted                           PCT 17 - ARROWHEAD                                     01 
01050140012000002REP       President                                               Uncommitted                           PCT 20 - MIDWAY                                        01 
01050140013000002REP       President                                               Uncommitted                           PCT 24 - BELLEVUE                                      01 
01050140014000000REP       President                                               Uncommitted                           PCT 26 - BUFFALO SPRINGS                               01 
01050140015000006REP       President                                               Uncommitted                           PCT 27 - PETROLIA                                      01 
01050140016000001REP       President                                               Uncommitted                           PCT 32 - WINDTHORST                                    01 
01060010001000275REP       United States Representative, Dist 13                   Mac Thornberry                        PCT 1 - SE HENRIETTA                                   01 
01060010002000151REP       United States Representative, Dist 13                   Mac Thornberry                        PCT 6 - BYERS                                          01 
01060010003000294REP       United States Representative, Dist 13                   Mac Thornberry                        PCT 8 - NE HENRIETTA                                   01 
01060010004000179REP       United States Representative, Dist 13                   Mac Thornberry                        PCT 9 - NW HENRIETTA                                   01 
01060010005000092REP       United States Representative, Dist 13                   Mac Thornberry                        PCT 10 - VASHTI                                        01 
01060010006000276REP       United States Representative, Dist 13                   Mac Thornberry                        PCT 11 - DEAN                                          01 
01060010007000109REP       United States Representative, Dist 13                   Mac Thornberry                        PCT 12 - JOLLY                                         01 
01060010008000053REP       United States Representative, Dist 13                   Mac Thornberry                        PCT 13 - THORNBERRY                                    01 
01060010009000065REP       United States Representative, Dist 13                   Mac Thornberry                        PCT 14 - CHARLIE                                       01 
01060010010000119REP       United States Representative, Dist 13                   Mac Thornberry                        PCT 15 - SW HENRIETTA                                  01 
01060010011000284REP       United States Representative, Dist 13                   Mac Thornberry                        PCT 17 - ARROWHEAD                                     01 
01060010012000175REP       United States Representative, Dist 13                   Mac Thornberry                        PCT 20 - MIDWAY                                        01 
01060010013000112REP       United States Representative, Dist 13                   Mac Thornberry                        PCT 24 - BELLEVUE                                      01 
01060010014000062REP       United States Representative, Dist 13                   Mac Thornberry                        PCT 26 - BUFFALO SPRINGS                               01 
01060010015000158REP       United States Representative, Dist 13                   Mac Thornberry                        PCT 27 - PETROLIA                                      01 
01060010016000101REP       United States Representative, Dist 13                   Mac Thornberry                        PCT 32 - WINDTHORST                                    01 
01070010001000033REP       Railroad Commissioner                                   Lance N. Christian                    PCT 1 - SE HENRIETTA                                   01 
01070010002000017REP       Railroad Commissioner                                   Lance N. Christian                    PCT 6 - BYERS                                          01 
01070010003000043REP       Railroad Commissioner                                   Lance N. Christian                    PCT 8 - NE HENRIETTA                                   01 
01070010004000031REP       Railroad Commissioner                                   Lance N. Christian                    PCT 9 - NW HENRIETTA                                   01 
01070010005000020REP       Railroad Commissioner                                   Lance N. Christian                    PCT 10 - VASHTI                                        01 
01070010006000050REP       Railroad Commissioner                                   Lance N. Christian                    PCT 11 - DEAN                                          01 
01070010007000008REP       Railroad Commissioner                                   Lance N. Christian                    PCT 12 - JOLLY                                         01 
01070010008000004REP       Railroad Commissioner                                   Lance N. Christian                    PCT 13 - THORNBERRY                                    01 
01070010009000007REP       Railroad Commissioner                                   Lance N. Christian                    PCT 14 - CHARLIE                                       01 
01070010010000012REP       Railroad Commissioner                                   Lance N. Christian                    PCT 15 - SW HENRIETTA                                  01 
01070010011000044REP       Railroad Commissioner                                   Lance N. Christian                    PCT 17 - ARROWHEAD                                     01 
01070010012000020REP       Railroad Commissioner                                   Lance N. Christian                    PCT 20 - MIDWAY                                        01 
01070010013000025REP       Railroad Commissioner                                   Lance N. Christian                    PCT 24 - BELLEVUE                                      01 
01070010014000012REP       Railroad Commissioner                                   Lance N. Christian                    PCT 26 - BUFFALO SPRINGS                               01 
01070010015000018REP       Railroad Commissioner                                   Lance N. Christian                    PCT 27 - PETROLIA                                      01 
01070010016000017REP       Railroad Commissioner                                   Lance N. Christian                    PCT 32 - WINDTHORST                                    01 
01070020001000036REP       Railroad Commissioner                                   Wayne Christian                       PCT 1 - SE HENRIETTA                                   01 
01070020002000020REP       Railroad Commissioner                                   Wayne Christian                       PCT 6 - BYERS                                          01 
01070020003000041REP       Railroad Commissioner                                   Wayne Christian                       PCT 8 - NE HENRIETTA                                   01 
01070020004000031REP       Railroad Commissioner                                   Wayne Christian                       PCT 9 - NW HENRIETTA                                   01 
01070020005000012REP       Railroad Commissioner                                   Wayne Christian                       PCT 10 - VASHTI                                        01 
01070020006000034REP       Railroad Commissioner                                   Wayne Christian                       PCT 11 - DEAN                                          01 
01070020007000014REP       Railroad Commissioner                                   Wayne Christian                       PCT 12 - JOLLY                                         01 
01070020008000007REP       Railroad Commissioner                                   Wayne Christian                       PCT 13 - THORNBERRY                                    01 
01070020009000008REP       Railroad Commissioner                                   Wayne Christian                       PCT 14 - CHARLIE                                       01 
01070020010000022REP       Railroad Commissioner                                   Wayne Christian                       PCT 15 - SW HENRIETTA                                  01 
01070020011000042REP       Railroad Commissioner                                   Wayne Christian                       PCT 17 - ARROWHEAD                                     01 
01070020012000030REP       Railroad Commissioner                                   Wayne Christian                       PCT 20 - MIDWAY                                        01 
01070020013000019REP       Railroad Commissioner                                   Wayne Christian                       PCT 24 - BELLEVUE                                      01 
01070020014000011REP       Railroad Commissioner                                   Wayne Christian                       PCT 26 - BUFFALO SPRINGS                               01 
01070020015000014REP       Railroad Commissioner                                   Wayne Christian                       PCT 27 - PETROLIA                                      01 
01070020016000011REP       Railroad Commissioner                                   Wayne Christian                       PCT 32 - WINDTHORST                                    01 
01070030001000018REP       Railroad Commissioner                                   Weston Martinez                       PCT 1 - SE HENRIETTA                                   01 
01070030002000005REP       Railroad Commissioner                                   Weston Martinez                       PCT 6 - BYERS                                          01 
01070030003000018REP       Railroad Commissioner                                   Weston Martinez                       PCT 8 - NE HENRIETTA                                   01 
01070030004000011REP       Railroad Commissioner                                   Weston Martinez                       PCT 9 - NW HENRIETTA                                   01 
01070030005000000REP       Railroad Commissioner                                   Weston Martinez                       PCT 10 - VASHTI                                        01 
01070030006000009REP       Railroad Commissioner                                   Weston Martinez                       PCT 11 - DEAN                                          01 
01070030007000011REP       Railroad Commissioner                                   Weston Martinez                       PCT 12 - JOLLY                                         01 
01070030008000007REP       Railroad Commissioner                                   Weston Martinez                       PCT 13 - THORNBERRY                                    01 
01070030009000004REP       Railroad Commissioner                                   Weston Martinez                       PCT 14 - CHARLIE                                       01 
01070030010000007REP       Railroad Commissioner                                   Weston Martinez                       PCT 15 - SW HENRIETTA                                  01 
01070030011000012REP       Railroad Commissioner                                   Weston Martinez                       PCT 17 - ARROWHEAD                                     01 
01070030012000011REP       Railroad Commissioner                                   Weston Martinez                       PCT 20 - MIDWAY                                        01 
01070030013000003REP       Railroad Commissioner                                   Weston Martinez                       PCT 24 - BELLEVUE                                      01 
01070030014000002REP       Railroad Commissioner                                   Weston Martinez                       PCT 26 - BUFFALO SPRINGS                               01 
01070030015000004REP       Railroad Commissioner                                   Weston Martinez                       PCT 27 - PETROLIA                                      01 
01070030016000002REP       Railroad Commissioner                                   Weston Martinez                       PCT 32 - WINDTHORST                                    01 
01070040001000049REP       Railroad Commissioner                                   Gary Gates                            PCT 1 - SE HENRIETTA                                   01 
01070040002000026REP       Railroad Commissioner                                   Gary Gates                            PCT 6 - BYERS                                          01 
01070040003000056REP       Railroad Commissioner                                   Gary Gates                            PCT 8 - NE HENRIETTA                                   01 
01070040004000027REP       Railroad Commissioner                                   Gary Gates                            PCT 9 - NW HENRIETTA                                   01 
01070040005000024REP       Railroad Commissioner                                   Gary Gates                            PCT 10 - VASHTI                                        01 
01070040006000069REP       Railroad Commissioner                                   Gary Gates                            PCT 11 - DEAN                                          01 
01070040007000026REP       Railroad Commissioner                                   Gary Gates                            PCT 12 - JOLLY                                         01 
01070040008000011REP       Railroad Commissioner                                   Gary Gates                            PCT 13 - THORNBERRY                                    01 
01070040009000014REP       Railroad Commissioner                                   Gary Gates                            PCT 14 - CHARLIE                                       01 
01070040010000023REP       Railroad Commissioner                                   Gary Gates                            PCT 15 - SW HENRIETTA                                  01 
01070040011000062REP       Railroad Commissioner                                   Gary Gates                            PCT 17 - ARROWHEAD                                     01 
01070040012000035REP       Railroad Commissioner                                   Gary Gates                            PCT 20 - MIDWAY                                        01 
01070040013000023REP       Railroad Commissioner                                   Gary Gates                            PCT 24 - BELLEVUE                                      01 
01070040014000015REP       Railroad Commissioner                                   Gary Gates                            PCT 26 - BUFFALO SPRINGS                               01 
01070040015000031REP       Railroad Commissioner                                   Gary Gates                            PCT 27 - PETROLIA                                      01 
01070040016000025REP       Railroad Commissioner                                   Gary Gates                            PCT 32 - WINDTHORST                                    01 
01070050001000008REP       Railroad Commissioner                                   John Greytok                          PCT 1 - SE HENRIETTA                                   01 
01070050002000004REP       Railroad Commissioner                                   John Greytok                          PCT 6 - BYERS                                          01 
01070050003000016REP       Railroad Commissioner                                   John Greytok                          PCT 8 - NE HENRIETTA                                   01 
01070050004000006REP       Railroad Commissioner                                   John Greytok                          PCT 9 - NW HENRIETTA                                   01 
01070050005000001REP       Railroad Commissioner                                   John Greytok                          PCT 10 - VASHTI                                        01 
01070050006000003REP       Railroad Commissioner                                   John Greytok                          PCT 11 - DEAN                                          01 
01070050007000007REP       Railroad Commissioner                                   John Greytok                          PCT 12 - JOLLY                                         01 
01070050008000001REP       Railroad Commissioner                                   John Greytok                          PCT 13 - THORNBERRY                                    01 
01070050009000004REP       Railroad Commissioner                                   John Greytok                          PCT 14 - CHARLIE                                       01 
01070050010000008REP       Railroad Commissioner                                   John Greytok                          PCT 15 - SW HENRIETTA                                  01 
01070050011000010REP       Railroad Commissioner                                   John Greytok                          PCT 17 - ARROWHEAD                                     01 
01070050012000007REP       Railroad Commissioner                                   John Greytok                          PCT 20 - MIDWAY                                        01 
01070050013000005REP       Railroad Commissioner                                   John Greytok                          PCT 24 - BELLEVUE                                      01 
01070050014000001REP       Railroad Commissioner                                   John Greytok                          PCT 26 - BUFFALO SPRINGS                               01 
01070050015000004REP       Railroad Commissioner                                   John Greytok                          PCT 27 - PETROLIA                                      01 
01070050016000003REP       Railroad Commissioner                                   John Greytok                          PCT 32 - WINDTHORST                                    01 
01070060001000026REP       Railroad Commissioner                                   Doug Jeffrey                          PCT 1 - SE HENRIETTA                                   01 
01070060002000012REP       Railroad Commissioner                                   Doug Jeffrey                          PCT 6 - BYERS                                          01 
01070060003000034REP       Railroad Commissioner                                   Doug Jeffrey                          PCT 8 - NE HENRIETTA                                   01 
01070060004000012REP       Railroad Commissioner                                   Doug Jeffrey                          PCT 9 - NW HENRIETTA                                   01 
01070060005000008REP       Railroad Commissioner                                   Doug Jeffrey                          PCT 10 - VASHTI                                        01 
01070060006000023REP       Railroad Commissioner                                   Doug Jeffrey                          PCT 11 - DEAN                                          01 
01070060007000008REP       Railroad Commissioner                                   Doug Jeffrey                          PCT 12 - JOLLY                                         01 
01070060008000006REP       Railroad Commissioner                                   Doug Jeffrey                          PCT 13 - THORNBERRY                                    01 
01070060009000005REP       Railroad Commissioner                                   Doug Jeffrey                          PCT 14 - CHARLIE                                       01 
01070060010000010REP       Railroad Commissioner                                   Doug Jeffrey                          PCT 15 - SW HENRIETTA                                  01 
01070060011000026REP       Railroad Commissioner                                   Doug Jeffrey                          PCT 17 - ARROWHEAD                                     01 
01070060012000012REP       Railroad Commissioner                                   Doug Jeffrey                          PCT 20 - MIDWAY                                        01 
01070060013000009REP       Railroad Commissioner                                   Doug Jeffrey                          PCT 24 - BELLEVUE                                      01 
01070060014000002REP       Railroad Commissioner                                   Doug Jeffrey                          PCT 26 - BUFFALO SPRINGS                               01 
01070060015000008REP       Railroad Commissioner                                   Doug Jeffrey                          PCT 27 - PETROLIA                                      01 
01070060016000007REP       Railroad Commissioner                                   Doug Jeffrey                          PCT 32 - WINDTHORST                                    01 
01070070001000038REP       Railroad Commissioner                                   Ron Hale                              PCT 1 - SE HENRIETTA                                   01 
01070070002000024REP       Railroad Commissioner                                   Ron Hale                              PCT 6 - BYERS                                          01 
01070070003000040REP       Railroad Commissioner                                   Ron Hale                              PCT 8 - NE HENRIETTA                                   01 
01070070004000017REP       Railroad Commissioner                                   Ron Hale                              PCT 9 - NW HENRIETTA                                   01 
01070070005000012REP       Railroad Commissioner                                   Ron Hale                              PCT 10 - VASHTI                                        01 
01070070006000033REP       Railroad Commissioner                                   Ron Hale                              PCT 11 - DEAN                                          01 
01070070007000013REP       Railroad Commissioner                                   Ron Hale                              PCT 12 - JOLLY                                         01 
01070070008000010REP       Railroad Commissioner                                   Ron Hale                              PCT 13 - THORNBERRY                                    01 
01070070009000004REP       Railroad Commissioner                                   Ron Hale                              PCT 14 - CHARLIE                                       01 
01070070010000011REP       Railroad Commissioner                                   Ron Hale                              PCT 15 - SW HENRIETTA                                  01 
01070070011000039REP       Railroad Commissioner                                   Ron Hale                              PCT 17 - ARROWHEAD                                     01 
01070070012000027REP       Railroad Commissioner                                   Ron Hale                              PCT 20 - MIDWAY                                        01 
01070070013000007REP       Railroad Commissioner                                   Ron Hale                              PCT 24 - BELLEVUE                                      01 
01070070014000010REP       Railroad Commissioner                                   Ron Hale                              PCT 26 - BUFFALO SPRINGS                               01 
01070070015000032REP       Railroad Commissioner                                   Ron Hale                              PCT 27 - PETROLIA                                      01 
01070070016000013REP       Railroad Commissioner                                   Ron Hale                              PCT 32 - WINDTHORST                                    01 
01080010001000124REP       Justice, Supreme Court, Place 3                         Debra Lehrmann                        PCT 1 - SE HENRIETTA                                   01 
01080010002000064REP       Justice, Supreme Court, Place 3                         Debra Lehrmann                        PCT 6 - BYERS                                          01 
01080010003000139REP       Justice, Supreme Court, Place 3                         Debra Lehrmann                        PCT 8 - NE HENRIETTA                                   01 
01080010004000079REP       Justice, Supreme Court, Place 3                         Debra Lehrmann                        PCT 9 - NW HENRIETTA                                   01 
01080010005000032REP       Justice, Supreme Court, Place 3                         Debra Lehrmann                        PCT 10 - VASHTI                                        01 
01080010006000142REP       Justice, Supreme Court, Place 3                         Debra Lehrmann                        PCT 11 - DEAN                                          01 
01080010007000053REP       Justice, Supreme Court, Place 3                         Debra Lehrmann                        PCT 12 - JOLLY                                         01 
01080010008000028REP       Justice, Supreme Court, Place 3                         Debra Lehrmann                        PCT 13 - THORNBERRY                                    01 
01080010009000022REP       Justice, Supreme Court, Place 3                         Debra Lehrmann                        PCT 14 - CHARLIE                                       01 
01080010010000050REP       Justice, Supreme Court, Place 3                         Debra Lehrmann                        PCT 15 - SW HENRIETTA                                  01 
01080010011000131REP       Justice, Supreme Court, Place 3                         Debra Lehrmann                        PCT 17 - ARROWHEAD                                     01 
01080010012000076REP       Justice, Supreme Court, Place 3                         Debra Lehrmann                        PCT 20 - MIDWAY                                        01 
01080010013000046REP       Justice, Supreme Court, Place 3                         Debra Lehrmann                        PCT 24 - BELLEVUE                                      01 
01080010014000029REP       Justice, Supreme Court, Place 3                         Debra Lehrmann                        PCT 26 - BUFFALO SPRINGS                               01 
01080010015000071REP       Justice, Supreme Court, Place 3                         Debra Lehrmann                        PCT 27 - PETROLIA                                      01 
01080010016000043REP       Justice, Supreme Court, Place 3                         Debra Lehrmann                        PCT 32 - WINDTHORST                                    01 
01080020001000105REP       Justice, Supreme Court, Place 3                         Michael Massengale                    PCT 1 - SE HENRIETTA                                   01 
01080020002000049REP       Justice, Supreme Court, Place 3                         Michael Massengale                    PCT 6 - BYERS                                          01 
01080020003000121REP       Justice, Supreme Court, Place 3                         Michael Massengale                    PCT 8 - NE HENRIETTA                                   01 
01080020004000058REP       Justice, Supreme Court, Place 3                         Michael Massengale                    PCT 9 - NW HENRIETTA                                   01 
01080020005000047REP       Justice, Supreme Court, Place 3                         Michael Massengale                    PCT 10 - VASHTI                                        01 
01080020006000084REP       Justice, Supreme Court, Place 3                         Michael Massengale                    PCT 11 - DEAN                                          01 
01080020007000037REP       Justice, Supreme Court, Place 3                         Michael Massengale                    PCT 12 - JOLLY                                         01 
01080020008000023REP       Justice, Supreme Court, Place 3                         Michael Massengale                    PCT 13 - THORNBERRY                                    01 
01080020009000019REP       Justice, Supreme Court, Place 3                         Michael Massengale                    PCT 14 - CHARLIE                                       01 
01080020010000044REP       Justice, Supreme Court, Place 3                         Michael Massengale                    PCT 15 - SW HENRIETTA                                  01 
01080020011000117REP       Justice, Supreme Court, Place 3                         Michael Massengale                    PCT 17 - ARROWHEAD                                     01 
01080020012000064REP       Justice, Supreme Court, Place 3                         Michael Massengale                    PCT 20 - MIDWAY                                        01 
01080020013000046REP       Justice, Supreme Court, Place 3                         Michael Massengale                    PCT 24 - BELLEVUE                                      01 
01080020014000020REP       Justice, Supreme Court, Place 3                         Michael Massengale                    PCT 26 - BUFFALO SPRINGS                               01 
01080020015000047REP       Justice, Supreme Court, Place 3                         Michael Massengale                    PCT 27 - PETROLIA                                      01 
01080020016000035REP       Justice, Supreme Court, Place 3                         Michael Massengale                    PCT 32 - WINDTHORST                                    01 
01090010001000122REP       Justice, Supreme Court, Place 5                         Paul Green                            PCT 1 - SE HENRIETTA                                   01 
01090010002000055REP       Justice, Supreme Court, Place 5                         Paul Green                            PCT 6 - BYERS                                          01 
01090010003000127REP       Justice, Supreme Court, Place 5                         Paul Green                            PCT 8 - NE HENRIETTA                                   01 
01090010004000069REP       Justice, Supreme Court, Place 5                         Paul Green                            PCT 9 - NW HENRIETTA                                   01 
01090010005000048REP       Justice, Supreme Court, Place 5                         Paul Green                            PCT 10 - VASHTI                                        01 
01090010006000103REP       Justice, Supreme Court, Place 5                         Paul Green                            PCT 11 - DEAN                                          01 
01090010007000039REP       Justice, Supreme Court, Place 5                         Paul Green                            PCT 12 - JOLLY                                         01 
01090010008000021REP       Justice, Supreme Court, Place 5                         Paul Green                            PCT 13 - THORNBERRY                                    01 
01090010009000019REP       Justice, Supreme Court, Place 5                         Paul Green                            PCT 14 - CHARLIE                                       01 
01090010010000049REP       Justice, Supreme Court, Place 5                         Paul Green                            PCT 15 - SW HENRIETTA                                  01 
01090010011000120REP       Justice, Supreme Court, Place 5                         Paul Green                            PCT 17 - ARROWHEAD                                     01 
01090010012000086REP       Justice, Supreme Court, Place 5                         Paul Green                            PCT 20 - MIDWAY                                        01 
01090010013000053REP       Justice, Supreme Court, Place 5                         Paul Green                            PCT 24 - BELLEVUE                                      01 
01090010014000029REP       Justice, Supreme Court, Place 5                         Paul Green                            PCT 26 - BUFFALO SPRINGS                               01 
01090010015000058REP       Justice, Supreme Court, Place 5                         Paul Green                            PCT 27 - PETROLIA                                      01 
01090010016000042REP       Justice, Supreme Court, Place 5                         Paul Green                            PCT 32 - WINDTHORST                                    01 
01090020001000088REP       Justice, Supreme Court, Place 5                         Rick Green                            PCT 1 - SE HENRIETTA                                   01 
01090020002000045REP       Justice, Supreme Court, Place 5                         Rick Green                            PCT 6 - BYERS                                          01 
01090020003000133REP       Justice, Supreme Court, Place 5                         Rick Green                            PCT 8 - NE HENRIETTA                                   01 
01090020004000057REP       Justice, Supreme Court, Place 5                         Rick Green                            PCT 9 - NW HENRIETTA                                   01 
01090020005000031REP       Justice, Supreme Court, Place 5                         Rick Green                            PCT 10 - VASHTI                                        01 
01090020006000113REP       Justice, Supreme Court, Place 5                         Rick Green                            PCT 11 - DEAN                                          01 
01090020007000046REP       Justice, Supreme Court, Place 5                         Rick Green                            PCT 12 - JOLLY                                         01 
01090020008000022REP       Justice, Supreme Court, Place 5                         Rick Green                            PCT 13 - THORNBERRY                                    01 
01090020009000022REP       Justice, Supreme Court, Place 5                         Rick Green                            PCT 14 - CHARLIE                                       01 
01090020010000044REP       Justice, Supreme Court, Place 5                         Rick Green                            PCT 15 - SW HENRIETTA                                  01 
01090020011000112REP       Justice, Supreme Court, Place 5                         Rick Green                            PCT 17 - ARROWHEAD                                     01 
01090020012000049REP       Justice, Supreme Court, Place 5                         Rick Green                            PCT 20 - MIDWAY                                        01 
01090020013000038REP       Justice, Supreme Court, Place 5                         Rick Green                            PCT 24 - BELLEVUE                                      01 
01090020014000017REP       Justice, Supreme Court, Place 5                         Rick Green                            PCT 26 - BUFFALO SPRINGS                               01 
01090020015000047REP       Justice, Supreme Court, Place 5                         Rick Green                            PCT 27 - PETROLIA                                      01 
01090020016000027REP       Justice, Supreme Court, Place 5                         Rick Green                            PCT 32 - WINDTHORST                                    01 
01100010001000117REP       Justice, Supreme Court, Place 9                         Joe Pool                              PCT 1 - SE HENRIETTA                                   01 
01100010002000071REP       Justice, Supreme Court, Place 9                         Joe Pool                              PCT 6 - BYERS                                          01 
01100010003000162REP       Justice, Supreme Court, Place 9                         Joe Pool                              PCT 8 - NE HENRIETTA                                   01 
01100010004000073REP       Justice, Supreme Court, Place 9                         Joe Pool                              PCT 9 - NW HENRIETTA                                   01 
01100010005000055REP       Justice, Supreme Court, Place 9                         Joe Pool                              PCT 10 - VASHTI                                        01 
01100010006000139REP       Justice, Supreme Court, Place 9                         Joe Pool                              PCT 11 - DEAN                                          01 
01100010007000046REP       Justice, Supreme Court, Place 9                         Joe Pool                              PCT 12 - JOLLY                                         01 
01100010008000020REP       Justice, Supreme Court, Place 9                         Joe Pool                              PCT 13 - THORNBERRY                                    01 
01100010009000021REP       Justice, Supreme Court, Place 9                         Joe Pool                              PCT 14 - CHARLIE                                       01 
01100010010000059REP       Justice, Supreme Court, Place 9                         Joe Pool                              PCT 15 - SW HENRIETTA                                  01 
01100010011000149REP       Justice, Supreme Court, Place 9                         Joe Pool                              PCT 17 - ARROWHEAD                                     01 
01100010012000088REP       Justice, Supreme Court, Place 9                         Joe Pool                              PCT 20 - MIDWAY                                        01 
01100010013000063REP       Justice, Supreme Court, Place 9                         Joe Pool                              PCT 24 - BELLEVUE                                      01 
01100010014000035REP       Justice, Supreme Court, Place 9                         Joe Pool                              PCT 26 - BUFFALO SPRINGS                               01 
01100010015000075REP       Justice, Supreme Court, Place 9                         Joe Pool                              PCT 27 - PETROLIA                                      01 
01100010016000047REP       Justice, Supreme Court, Place 9                         Joe Pool                              PCT 32 - WINDTHORST                                    01 
01100020001000095REP       Justice, Supreme Court, Place 9                         Eva Guzman                            PCT 1 - SE HENRIETTA                                   01 
01100020002000034REP       Justice, Supreme Court, Place 9                         Eva Guzman                            PCT 6 - BYERS                                          01 
01100020003000096REP       Justice, Supreme Court, Place 9                         Eva Guzman                            PCT 8 - NE HENRIETTA                                   01 
01100020004000059REP       Justice, Supreme Court, Place 9                         Eva Guzman                            PCT 9 - NW HENRIETTA                                   01 
01100020005000027REP       Justice, Supreme Court, Place 9                         Eva Guzman                            PCT 10 - VASHTI                                        01 
01100020006000085REP       Justice, Supreme Court, Place 9                         Eva Guzman                            PCT 11 - DEAN                                          01 
01100020007000038REP       Justice, Supreme Court, Place 9                         Eva Guzman                            PCT 12 - JOLLY                                         01 
01100020008000025REP       Justice, Supreme Court, Place 9                         Eva Guzman                            PCT 13 - THORNBERRY                                    01 
01100020009000019REP       Justice, Supreme Court, Place 9                         Eva Guzman                            PCT 14 - CHARLIE                                       01 
01100020010000035REP       Justice, Supreme Court, Place 9                         Eva Guzman                            PCT 15 - SW HENRIETTA                                  01 
01100020011000099REP       Justice, Supreme Court, Place 9                         Eva Guzman                            PCT 17 - ARROWHEAD                                     01 
01100020012000051REP       Justice, Supreme Court, Place 9                         Eva Guzman                            PCT 20 - MIDWAY                                        01 
01100020013000033REP       Justice, Supreme Court, Place 9                         Eva Guzman                            PCT 24 - BELLEVUE                                      01 
01100020014000015REP       Justice, Supreme Court, Place 9                         Eva Guzman                            PCT 26 - BUFFALO SPRINGS                               01 
01100020015000035REP       Justice, Supreme Court, Place 9                         Eva Guzman                            PCT 27 - PETROLIA                                      01 
01100020016000023REP       Justice, Supreme Court, Place 9                         Eva Guzman                            PCT 32 - WINDTHORST                                    01 
01110010001000091REP       Judge, Court of Criminal Appeals, Pl 2                  Mary Lou Keel                         PCT 1 - SE HENRIETTA                                   01 
01110010002000050REP       Judge, Court of Criminal Appeals, Pl 2                  Mary Lou Keel                         PCT 6 - BYERS                                          01 
01110010003000092REP       Judge, Court of Criminal Appeals, Pl 2                  Mary Lou Keel                         PCT 8 - NE HENRIETTA                                   01 
01110010004000056REP       Judge, Court of Criminal Appeals, Pl 2                  Mary Lou Keel                         PCT 9 - NW HENRIETTA                                   01 
01110010005000023REP       Judge, Court of Criminal Appeals, Pl 2                  Mary Lou Keel                         PCT 10 - VASHTI                                        01 
01110010006000093REP       Judge, Court of Criminal Appeals, Pl 2                  Mary Lou Keel                         PCT 11 - DEAN                                          01 
01110010007000033REP       Judge, Court of Criminal Appeals, Pl 2                  Mary Lou Keel                         PCT 12 - JOLLY                                         01 
01110010008000017REP       Judge, Court of Criminal Appeals, Pl 2                  Mary Lou Keel                         PCT 13 - THORNBERRY                                    01 
01110010009000014REP       Judge, Court of Criminal Appeals, Pl 2                  Mary Lou Keel                         PCT 14 - CHARLIE                                       01 
01110010010000043REP       Judge, Court of Criminal Appeals, Pl 2                  Mary Lou Keel                         PCT 15 - SW HENRIETTA                                  01 
01110010011000102REP       Judge, Court of Criminal Appeals, Pl 2                  Mary Lou Keel                         PCT 17 - ARROWHEAD                                     01 
01110010012000065REP       Judge, Court of Criminal Appeals, Pl 2                  Mary Lou Keel                         PCT 20 - MIDWAY                                        01 
01110010013000046REP       Judge, Court of Criminal Appeals, Pl 2                  Mary Lou Keel                         PCT 24 - BELLEVUE                                      01 
01110010014000021REP       Judge, Court of Criminal Appeals, Pl 2                  Mary Lou Keel                         PCT 26 - BUFFALO SPRINGS                               01 
01110010015000055REP       Judge, Court of Criminal Appeals, Pl 2                  Mary Lou Keel                         PCT 27 - PETROLIA                                      01 
01110010016000033REP       Judge, Court of Criminal Appeals, Pl 2                  Mary Lou Keel                         PCT 32 - WINDTHORST                                    01 
01110020001000082REP       Judge, Court of Criminal Appeals, Pl 2                  Chris Oldner                          PCT 1 - SE HENRIETTA                                   01 
01110020002000034REP       Judge, Court of Criminal Appeals, Pl 2                  Chris Oldner                          PCT 6 - BYERS                                          01 
01110020003000093REP       Judge, Court of Criminal Appeals, Pl 2                  Chris Oldner                          PCT 8 - NE HENRIETTA                                   01 
01110020004000041REP       Judge, Court of Criminal Appeals, Pl 2                  Chris Oldner                          PCT 9 - NW HENRIETTA                                   01 
01110020005000036REP       Judge, Court of Criminal Appeals, Pl 2                  Chris Oldner                          PCT 10 - VASHTI                                        01 
01110020006000078REP       Judge, Court of Criminal Appeals, Pl 2                  Chris Oldner                          PCT 11 - DEAN                                          01 
01110020007000028REP       Judge, Court of Criminal Appeals, Pl 2                  Chris Oldner                          PCT 12 - JOLLY                                         01 
01110020008000010REP       Judge, Court of Criminal Appeals, Pl 2                  Chris Oldner                          PCT 13 - THORNBERRY                                    01 
01110020009000016REP       Judge, Court of Criminal Appeals, Pl 2                  Chris Oldner                          PCT 14 - CHARLIE                                       01 
01110020010000025REP       Judge, Court of Criminal Appeals, Pl 2                  Chris Oldner                          PCT 15 - SW HENRIETTA                                  01 
01110020011000069REP       Judge, Court of Criminal Appeals, Pl 2                  Chris Oldner                          PCT 17 - ARROWHEAD                                     01 
01110020012000039REP       Judge, Court of Criminal Appeals, Pl 2                  Chris Oldner                          PCT 20 - MIDWAY                                        01 
01110020013000029REP       Judge, Court of Criminal Appeals, Pl 2                  Chris Oldner                          PCT 24 - BELLEVUE                                      01 
01110020014000013REP       Judge, Court of Criminal Appeals, Pl 2                  Chris Oldner                          PCT 26 - BUFFALO SPRINGS                               01 
01110020015000021REP       Judge, Court of Criminal Appeals, Pl 2                  Chris Oldner                          PCT 27 - PETROLIA                                      01 
01110020016000025REP       Judge, Court of Criminal Appeals, Pl 2                  Chris Oldner                          PCT 32 - WINDTHORST                                    01 
01110030001000028REP       Judge, Court of Criminal Appeals, Pl 2                  Ray Wheless                           PCT 1 - SE HENRIETTA                                   01 
01110030002000016REP       Judge, Court of Criminal Appeals, Pl 2                  Ray Wheless                           PCT 6 - BYERS                                          01 
01110030003000058REP       Judge, Court of Criminal Appeals, Pl 2                  Ray Wheless                           PCT 8 - NE HENRIETTA                                   01 
01110030004000025REP       Judge, Court of Criminal Appeals, Pl 2                  Ray Wheless                           PCT 9 - NW HENRIETTA                                   01 
01110030005000011REP       Judge, Court of Criminal Appeals, Pl 2                  Ray Wheless                           PCT 10 - VASHTI                                        01 
01110030006000043REP       Judge, Court of Criminal Appeals, Pl 2                  Ray Wheless                           PCT 11 - DEAN                                          01 
01110030007000025REP       Judge, Court of Criminal Appeals, Pl 2                  Ray Wheless                           PCT 12 - JOLLY                                         01 
01110030008000014REP       Judge, Court of Criminal Appeals, Pl 2                  Ray Wheless                           PCT 13 - THORNBERRY                                    01 
