01050010001000000000000000000000000000000000000REP       President                                               Chris Christie                        PRECINCT 101                                           01 
01050010002000000000000000000000000000000000000REP       President                                               Chris Christie                        PRECINCT 102                                           01 
01050010003000000000000000000000000000000000000REP       President                                               Chris Christie                        PRECINCT 103                                           01 
01050010004000002000000000002000000000000000000REP       President                                               Chris Christie                        PRECINCT 201                                           01 
01050010005000001000000000001000000000000000000REP       President                                               Chris Christie                        PRECINCT 202                                           01 
01050010006000000000000000000000000000000000000REP       President                                               Chris Christie                        PRECINCT 301                                           01 
01050010007000000000000000000000000000000000000REP       President                                               Chris Christie                        PRECINCT 302                                           01 
01050010008000000000000000000000000000000000000REP       President                                               Chris Christie                        PRECINCT 303                                           01 
01050010009000000000000000000000000000000000000REP       President                                               Chris Christie                        PRECINCT 304                                           01 
01050010010000000000000000000000000000000000000REP       President                                               Chris Christie                        PRECINCT 305                                           01 
01050010011000000000000000000000000000000000000REP       President                                               Chris Christie                        PRECINCT 401                                           01 
01050010012000000000000000000000000000000000000REP       President                                               Chris Christie                        PRECINCT 402                                           01 
01050020001000017000006000011000000000000000000REP       President                                               Ben Carson                            PRECINCT 101                                           01 
01050020002000003000001000002000000000000000000REP       President                                               Ben Carson                            PRECINCT 102                                           01 
01050020003000005000000000005000000000000000000REP       President                                               Ben Carson                            PRECINCT 103                                           01 
01050020004000019000004000015000000000000000000REP       President                                               Ben Carson                            PRECINCT 201                                           01 
01050020005000006000003000003000000000000000000REP       President                                               Ben Carson                            PRECINCT 202                                           01 
01050020006000004000000000004000000000000000000REP       President                                               Ben Carson                            PRECINCT 301                                           01 
01050020007000005000002000003000000000000000000REP       President                                               Ben Carson                            PRECINCT 302                                           01 
01050020008000006000000000006000000000000000000REP       President                                               Ben Carson                            PRECINCT 303                                           01 
01050020009000003000000000003000000000000000000REP       President                                               Ben Carson                            PRECINCT 304                                           01 
01050020010000013000005000008000000000000000000REP       President                                               Ben Carson                            PRECINCT 305                                           01 
01050020011000003000002000001000000000000000000REP       President                                               Ben Carson                            PRECINCT 401                                           01 
01050020012000016000000000016000000000000000000REP       President                                               Ben Carson                            PRECINCT 402                                           01 
01050030001000000000000000000000000000000000000REP       President                                               Elizabeth Gray                        PRECINCT 101                                           01 
01050030002000000000000000000000000000000000000REP       President                                               Elizabeth Gray                        PRECINCT 102                                           01 
01050030003000000000000000000000000000000000000REP       President                                               Elizabeth Gray                        PRECINCT 103                                           01 
01050030004000000000000000000000000000000000000REP       President                                               Elizabeth Gray                        PRECINCT 201                                           01 
01050030005000000000000000000000000000000000000REP       President                                               Elizabeth Gray                        PRECINCT 202                                           01 
01050030006000000000000000000000000000000000000REP       President                                               Elizabeth Gray                        PRECINCT 301                                           01 
01050030007000000000000000000000000000000000000REP       President                                               Elizabeth Gray                        PRECINCT 302                                           01 
01050030008000000000000000000000000000000000000REP       President                                               Elizabeth Gray                        PRECINCT 303                                           01 
01050030009000000000000000000000000000000000000REP       President                                               Elizabeth Gray                        PRECINCT 304                                           01 
01050030010000001000001000000000000000000000000REP       President                                               Elizabeth Gray                        PRECINCT 305                                           01 
01050030011000000000000000000000000000000000000REP       President                                               Elizabeth Gray                        PRECINCT 401                                           01 
01050030012000000000000000000000000000000000000REP       President                                               Elizabeth Gray                        PRECINCT 402                                           01 
01050040001000000000000000000000000000000000000REP       President                                               Rick Santorum                         PRECINCT 101                                           01 
01050040002000001000000000001000000000000000000REP       President                                               Rick Santorum                         PRECINCT 102                                           01 
01050040003000001000000000001000000000000000000REP       President                                               Rick Santorum                         PRECINCT 103                                           01 
01050040004000001000000000001000000000000000000REP       President                                               Rick Santorum                         PRECINCT 201                                           01 
01050040005000000000000000000000000000000000000REP       President                                               Rick Santorum                         PRECINCT 202                                           01 
01050040006000000000000000000000000000000000000REP       President                                               Rick Santorum                         PRECINCT 301                                           01 
01050040007000000000000000000000000000000000000REP       President                                               Rick Santorum                         PRECINCT 302                                           01 
01050040008000000000000000000000000000000000000REP       President                                               Rick Santorum                         PRECINCT 303                                           01 
01050040009000000000000000000000000000000000000REP       President                                               Rick Santorum                         PRECINCT 304                                           01 
01050040010000000000000000000000000000000000000REP       President                                               Rick Santorum                         PRECINCT 305                                           01 
01050040011000000000000000000000000000000000000REP       President                                               Rick Santorum                         PRECINCT 401                                           01 
01050040012000001000000000001000000000000000000REP       President                                               Rick Santorum                         PRECINCT 402                                           01 
01050050001000280000105000175000000000000000000REP       President                                               Ted Cruz                              PRECINCT 101                                           01 
01050050002000059000020000039000000000000000000REP       President                                               Ted Cruz                              PRECINCT 102                                           01 
01050050003000154000021000133000000000000000000REP       President                                               Ted Cruz                              PRECINCT 103                                           01 
01050050004000391000088000303000000000000000000REP       President                                               Ted Cruz                              PRECINCT 201                                           01 
01050050005000089000024000065000000000000000000REP       President                                               Ted Cruz                              PRECINCT 202                                           01 
01050050006000161000066000095000000000000000000REP       President                                               Ted Cruz                              PRECINCT 301                                           01 
01050050007000200000056000144000000000000000000REP       President                                               Ted Cruz                              PRECINCT 302                                           01 
01050050008000103000024000079000000000000000000REP       President                                               Ted Cruz                              PRECINCT 303                                           01 
01050050009000062000015000047000000000000000000REP       President                                               Ted Cruz                              PRECINCT 304                                           01 
01050050010000173000066000107000000000000000000REP       President                                               Ted Cruz                              PRECINCT 305                                           01 
01050050011000051000022000029000000000000000000REP       President                                               Ted Cruz                              PRECINCT 401                                           01 
01050050012000234000043000191000000000000000000REP       President                                               Ted Cruz                              PRECINCT 402                                           01 
01050060001000181000068000113000000000000000000REP       President                                               Donald J. Trump                       PRECINCT 101                                           01 
01050060002000012000003000009000000000000000000REP       President                                               Donald J. Trump                       PRECINCT 102                                           01 
01050060003000053000007000046000000000000000000REP       President                                               Donald J. Trump                       PRECINCT 103                                           01 
01050060004000262000065000197000000000000000000REP       President                                               Donald J. Trump                       PRECINCT 201                                           01 
01050060005000062000014000048000000000000000000REP       President                                               Donald J. Trump                       PRECINCT 202                                           01 
01050060006000094000036000058000000000000000000REP       President                                               Donald J. Trump                       PRECINCT 301                                           01 
01050060007000085000018000067000000000000000000REP       President                                               Donald J. Trump                       PRECINCT 302                                           01 
01050060008000044000022000022000000000000000000REP       President                                               Donald J. Trump                       PRECINCT 303                                           01 
01050060009000042000008000034000000000000000000REP       President                                               Donald J. Trump                       PRECINCT 304                                           01 
01050060010000092000038000054000000000000000000REP       President                                               Donald J. Trump                       PRECINCT 305                                           01 
01050060011000033000016000017000000000000000000REP       President                                               Donald J. Trump                       PRECINCT 401                                           01 
01050060012000119000016000103000000000000000000REP       President                                               Donald J. Trump                       PRECINCT 402                                           01 
01050070001000015000009000006000000000000000000REP       President                                               John R. Kasich                        PRECINCT 101                                           01 
01050070002000001000000000001000000000000000000REP       President                                               John R. Kasich                        PRECINCT 102                                           01 
01050070003000002000000000002000000000000000000REP       President                                               John R. Kasich                        PRECINCT 103                                           01 
01050070004000025000006000019000000000000000000REP       President                                               John R. Kasich                        PRECINCT 201                                           01 
01050070005000005000000000005000000000000000000REP       President                                               John R. Kasich                        PRECINCT 202                                           01 
01050070006000004000001000003000000000000000000REP       President                                               John R. Kasich                        PRECINCT 301                                           01 
01050070007000010000005000005000000000000000000REP       President                                               John R. Kasich                        PRECINCT 302                                           01 
01050070008000006000000000006000000000000000000REP       President                                               John R. Kasich                        PRECINCT 303                                           01 
01050070009000002000001000001000000000000000000REP       President                                               John R. Kasich                        PRECINCT 304                                           01 
01050070010000009000005000004000000000000000000REP       President                                               John R. Kasich                        PRECINCT 305                                           01 
01050070011000003000001000002000000000000000000REP       President                                               John R. Kasich                        PRECINCT 401                                           01 
01050070012000016000000000016000000000000000000REP       President                                               John R. Kasich                        PRECINCT 402                                           01 
01050080001000006000004000002000000000000000000REP       President                                               Jeb Bush                              PRECINCT 101                                           01 
01050080002000000000000000000000000000000000000REP       President                                               Jeb Bush                              PRECINCT 102                                           01 
01050080003000001000000000001000000000000000000REP       President                                               Jeb Bush                              PRECINCT 103                                           01 
01050080004000004000004000000000000000000000000REP       President                                               Jeb Bush                              PRECINCT 201                                           01 
01050080005000000000000000000000000000000000000REP       President                                               Jeb Bush                              PRECINCT 202                                           01 
01050080006000002000002000000000000000000000000REP       President                                               Jeb Bush                              PRECINCT 301                                           01 
01050080007000000000000000000000000000000000000REP       President                                               Jeb Bush                              PRECINCT 302                                           01 
01050080008000001000001000000000000000000000000REP       President                                               Jeb Bush                              PRECINCT 303                                           01 
01050080009000000000000000000000000000000000000REP       President                                               Jeb Bush                              PRECINCT 304                                           01 
01050080010000002000002000000000000000000000000REP       President                                               Jeb Bush                              PRECINCT 305                                           01 
01050080011000002000002000000000000000000000000REP       President                                               Jeb Bush                              PRECINCT 401                                           01 
01050080012000004000002000002000000000000000000REP       President                                               Jeb Bush                              PRECINCT 402                                           01 
01050090001000000000000000000000000000000000000REP       President                                               Lindsey Graham                        PRECINCT 101                                           01 
01050090002000000000000000000000000000000000000REP       President                                               Lindsey Graham                        PRECINCT 102                                           01 
01050090003000000000000000000000000000000000000REP       President                                               Lindsey Graham                        PRECINCT 103                                           01 
01050090004000000000000000000000000000000000000REP       President                                               Lindsey Graham                        PRECINCT 201                                           01 
01050090005000000000000000000000000000000000000REP       President                                               Lindsey Graham                        PRECINCT 202                                           01 
01050090006000000000000000000000000000000000000REP       President                                               Lindsey Graham                        PRECINCT 301                                           01 
01050090007000000000000000000000000000000000000REP       President                                               Lindsey Graham                        PRECINCT 302                                           01 
01050090008000000000000000000000000000000000000REP       President                                               Lindsey Graham                        PRECINCT 303                                           01 
01050090009000000000000000000000000000000000000REP       President                                               Lindsey Graham                        PRECINCT 304                                           01 
01050090010000000000000000000000000000000000000REP       President                                               Lindsey Graham                        PRECINCT 305                                           01 
01050090011000000000000000000000000000000000000REP       President                                               Lindsey Graham                        PRECINCT 401                                           01 
01050090012000000000000000000000000000000000000REP       President                                               Lindsey Graham                        PRECINCT 402                                           01 
01050100001000001000000000001000000000000000000REP       President                                               Mike Huckabee                         PRECINCT 101                                           01 
01050100002000000000000000000000000000000000000REP       President                                               Mike Huckabee                         PRECINCT 102                                           01 
01050100003000000000000000000000000000000000000REP       President                                               Mike Huckabee                         PRECINCT 103                                           01 
01050100004000000000000000000000000000000000000REP       President                                               Mike Huckabee                         PRECINCT 201                                           01 
01050100005000000000000000000000000000000000000REP       President                                               Mike Huckabee                         PRECINCT 202                                           01 
01050100006000000000000000000000000000000000000REP       President                                               Mike Huckabee                         PRECINCT 301                                           01 
01050100007000000000000000000000000000000000000REP       President                                               Mike Huckabee                         PRECINCT 302                                           01 
01050100008000001000000000001000000000000000000REP       President                                               Mike Huckabee                         PRECINCT 303                                           01 
01050100009000000000000000000000000000000000000REP       President                                               Mike Huckabee                         PRECINCT 304                                           01 
01050100010000000000000000000000000000000000000REP       President                                               Mike Huckabee                         PRECINCT 305                                           01 
01050100011000000000000000000000000000000000000REP       President                                               Mike Huckabee                         PRECINCT 401                                           01 
01050100012000000000000000000000000000000000000REP       President                                               Mike Huckabee                         PRECINCT 402                                           01 
01050110001000000000000000000000000000000000000REP       President                                               Rand Paul                             PRECINCT 101                                           01 
01050110002000000000000000000000000000000000000REP       President                                               Rand Paul                             PRECINCT 102                                           01 
01050110003000003000001000002000000000000000000REP       President                                               Rand Paul                             PRECINCT 103                                           01 
01050110004000000000000000000000000000000000000REP       President                                               Rand Paul                             PRECINCT 201                                           01 
01050110005000000000000000000000000000000000000REP       President                                               Rand Paul                             PRECINCT 202                                           01 
01050110006000000000000000000000000000000000000REP       President                                               Rand Paul                             PRECINCT 301                                           01 
01050110007000000000000000000000000000000000000REP       President                                               Rand Paul                             PRECINCT 302                                           01 
01050110008000000000000000000000000000000000000REP       President                                               Rand Paul                             PRECINCT 303                                           01 
01050110009000000000000000000000000000000000000REP       President                                               Rand Paul                             PRECINCT 304                                           01 
01050110010000002000001000001000000000000000000REP       President                                               Rand Paul                             PRECINCT 305                                           01 
01050110011000000000000000000000000000000000000REP       President                                               Rand Paul                             PRECINCT 401                                           01 
01050110012000001000001000000000000000000000000REP       President                                               Rand Paul                             PRECINCT 402                                           01 
01050120001000095000042000053000000000000000000REP       President                                               Marco Rubio                           PRECINCT 101                                           01 
01050120002000002000000000002000000000000000000REP       President                                               Marco Rubio                           PRECINCT 102                                           01 
01050120003000018000003000015000000000000000000REP       President                                               Marco Rubio                           PRECINCT 103                                           01 
01050120004000107000025000082000000000000000000REP       President                                               Marco Rubio                           PRECINCT 201                                           01 
01050120005000015000006000009000000000000000000REP       President                                               Marco Rubio                           PRECINCT 202                                           01 
01050120006000032000014000018000000000000000000REP       President                                               Marco Rubio                           PRECINCT 301                                           01 
01050120007000036000010000026000000000000000000REP       President                                               Marco Rubio                           PRECINCT 302                                           01 
01050120008000029000011000018000000000000000000REP       President                                               Marco Rubio                           PRECINCT 303                                           01 
01050120009000013000004000009000000000000000000REP       President                                               Marco Rubio                           PRECINCT 304                                           01 
01050120010000051000022000029000000000000000000REP       President                                               Marco Rubio                           PRECINCT 305                                           01 
01050120011000022000014000008000000000000000000REP       President                                               Marco Rubio                           PRECINCT 401                                           01 
01050120012000050000003000047000000000000000000REP       President                                               Marco Rubio                           PRECINCT 402                                           01 
01050130001000000000000000000000000000000000000REP       President                                               Carly Fiorina                         PRECINCT 101                                           01 
01050130002000000000000000000000000000000000000REP       President                                               Carly Fiorina                         PRECINCT 102                                           01 
01050130003000000000000000000000000000000000000REP       President                                               Carly Fiorina                         PRECINCT 103                                           01 
01050130004000000000000000000000000000000000000REP       President                                               Carly Fiorina                         PRECINCT 201                                           01 
01050130005000000000000000000000000000000000000REP       President                                               Carly Fiorina                         PRECINCT 202                                           01 
01050130006000000000000000000000000000000000000REP       President                                               Carly Fiorina                         PRECINCT 301                                           01 
01050130007000000000000000000000000000000000000REP       President                                               Carly Fiorina                         PRECINCT 302                                           01 
01050130008000000000000000000000000000000000000REP       President                                               Carly Fiorina                         PRECINCT 303                                           01 
01050130009000000000000000000000000000000000000REP       President                                               Carly Fiorina                         PRECINCT 304                                           01 
01050130010000000000000000000000000000000000000REP       President                                               Carly Fiorina                         PRECINCT 305                                           01 
01050130011000000000000000000000000000000000000REP       President                                               Carly Fiorina                         PRECINCT 401                                           01 
01050130012000001000000000001000000000000000000REP       President                                               Carly Fiorina                         PRECINCT 402                                           01 
01050140001000003000002000001000000000000000000REP       President                                               Uncommitted                           PRECINCT 101                                           01 
01050140002000000000000000000000000000000000000REP       President                                               Uncommitted                           PRECINCT 102                                           01 
01050140003000000000000000000000000000000000000REP       President                                               Uncommitted                           PRECINCT 103                                           01 
01050140004000006000001000005000000000000000000REP       President                                               Uncommitted                           PRECINCT 201                                           01 
01050140005000001000000000001000000000000000000REP       President                                               Uncommitted                           PRECINCT 202                                           01 
01050140006000003000001000002000000000000000000REP       President                                               Uncommitted                           PRECINCT 301                                           01 
01050140007000001000001000000000000000000000000REP       President                                               Uncommitted                           PRECINCT 302                                           01 
01050140008000002000001000001000000000000000000REP       President                                               Uncommitted                           PRECINCT 303                                           01 
01050140009000000000000000000000000000000000000REP       President                                               Uncommitted                           PRECINCT 304                                           01 
01050140010000005000004000001000000000000000000REP       President                                               Uncommitted                           PRECINCT 305                                           01 
01050140011000000000000000000000000000000000000REP       President                                               Uncommitted                           PRECINCT 401                                           01 
01050140012000000000000000000000000000000000000REP       President                                               Uncommitted                           PRECINCT 402                                           01 
01050150001000000000000000000000000000000000000REP       President                                               OVER VOTES                            PRECINCT 101                                           01 
01050150002000000000000000000000000000000000000REP       President                                               OVER VOTES                            PRECINCT 102                                           01 
01050150003000000000000000000000000000000000000REP       President                                               OVER VOTES                            PRECINCT 103                                           01 
01050150004000000000000000000000000000000000000REP       President                                               OVER VOTES                            PRECINCT 201                                           01 
01050150005000001000001000000000000000000000000REP       President                                               OVER VOTES                            PRECINCT 202                                           01 
01050150006000000000000000000000000000000000000REP       President                                               OVER VOTES                            PRECINCT 301                                           01 
01050150007000000000000000000000000000000000000REP       President                                               OVER VOTES                            PRECINCT 302                                           01 
01050150008000000000000000000000000000000000000REP       President                                               OVER VOTES                            PRECINCT 303                                           01 
01050150009000000000000000000000000000000000000REP       President                                               OVER VOTES                            PRECINCT 304                                           01 
01050150010000000000000000000000000000000000000REP       President                                               OVER VOTES                            PRECINCT 305                                           01 
01050150011000000000000000000000000000000000000REP       President                                               OVER VOTES                            PRECINCT 401                                           01 
01050150012000000000000000000000000000000000000REP       President                                               OVER VOTES                            PRECINCT 402                                           01 
01050160001000000000000000000000000000000000000REP       President                                               UNDER VOTES                           PRECINCT 101                                           01 
01050160002000000000000000000000000000000000000REP       President                                               UNDER VOTES                           PRECINCT 102                                           01 
01050160003000000000000000000000000000000000000REP       President                                               UNDER VOTES                           PRECINCT 103                                           01 
01050160004000005000002000003000000000000000000REP       President                                               UNDER VOTES                           PRECINCT 201                                           01 
01050160005000000000000000000000000000000000000REP       President                                               UNDER VOTES                           PRECINCT 202                                           01 
01050160006000001000000000001000000000000000000REP       President                                               UNDER VOTES                           PRECINCT 301                                           01 
01050160007000001000000000001000000000000000000REP       President                                               UNDER VOTES                           PRECINCT 302                                           01 
01050160008000000000000000000000000000000000000REP       President                                               UNDER VOTES                           PRECINCT 303                                           01 
01050160009000000000000000000000000000000000000REP       President                                               UNDER VOTES                           PRECINCT 304                                           01 
01050160010000002000002000000000000000000000000REP       President                                               UNDER VOTES                           PRECINCT 305                                           01 
01050160011000001000000000001000000000000000000REP       President                                               UNDER VOTES                           PRECINCT 401                                           01 
01050160012000001000001000000000000000000000000REP       President                                               UNDER VOTES                           PRECINCT 402                                           01 
01060010001000434000172000262000000000000000000REP       United States Representative, Dist 10                   Michael T. McCaul                     PRECINCT 101                                           01 
01060010002000059000017000042000000000000000000REP       United States Representative, Dist 10                   Michael T. McCaul                     PRECINCT 102                                           01 
01060010003000168000021000147000000000000000000REP       United States Representative, Dist 10                   Michael T. McCaul                     PRECINCT 103                                           01 
01060010004000584000135000449000000000000000000REP       United States Representative, Dist 10                   Michael T. McCaul                     PRECINCT 201                                           01 
01060010005000147000042000105000000000000000000REP       United States Representative, Dist 10                   Michael T. McCaul                     PRECINCT 202                                           01 
01060010006000219000087000132000000000000000000REP       United States Representative, Dist 10                   Michael T. McCaul                     PRECINCT 301                                           01 
01060010007000264000068000196000000000000000000REP       United States Representative, Dist 10                   Michael T. McCaul                     PRECINCT 302                                           01 
01060010008000152000046000106000000000000000000REP       United States Representative, Dist 10                   Michael T. McCaul                     PRECINCT 303                                           01 
01060010009000102000023000079000000000000000000REP       United States Representative, Dist 10                   Michael T. McCaul                     PRECINCT 304                                           01 
01060010010000240000096000144000000000000000000REP       United States Representative, Dist 10                   Michael T. McCaul                     PRECINCT 305                                           01 
01060010011000082000043000039000000000000000000REP       United States Representative, Dist 10                   Michael T. McCaul                     PRECINCT 401                                           01 
01060010012000309000048000261000000000000000000REP       United States Representative, Dist 10                   Michael T. McCaul                     PRECINCT 402                                           01 
01060020001000000000000000000000000000000000000REP       United States Representative, Dist 10                   OVER VOTES                            PRECINCT 101                                           01 
01060020002000000000000000000000000000000000000REP       United States Representative, Dist 10                   OVER VOTES                            PRECINCT 102                                           01 
01060020003000000000000000000000000000000000000REP       United States Representative, Dist 10                   OVER VOTES                            PRECINCT 103                                           01 
01060020004000000000000000000000000000000000000REP       United States Representative, Dist 10                   OVER VOTES                            PRECINCT 201                                           01 
01060020005000000000000000000000000000000000000REP       United States Representative, Dist 10                   OVER VOTES                            PRECINCT 202                                           01 
01060020006000000000000000000000000000000000000REP       United States Representative, Dist 10                   OVER VOTES                            PRECINCT 301                                           01 
01060020007000000000000000000000000000000000000REP       United States Representative, Dist 10                   OVER VOTES                            PRECINCT 302                                           01 
01060020008000000000000000000000000000000000000REP       United States Representative, Dist 10                   OVER VOTES                            PRECINCT 303                                           01 
01060020009000000000000000000000000000000000000REP       United States Representative, Dist 10                   OVER VOTES                            PRECINCT 304                                           01 
01060020010000000000000000000000000000000000000REP       United States Representative, Dist 10                   OVER VOTES                            PRECINCT 305                                           01 
01060020011000000000000000000000000000000000000REP       United States Representative, Dist 10                   OVER VOTES                            PRECINCT 401                                           01 
01060020012000000000000000000000000000000000000REP       United States Representative, Dist 10                   OVER VOTES                            PRECINCT 402                                           01 
01060030001000164000064000100000000000000000000REP       United States Representative, Dist 10                   UNDER VOTES                           PRECINCT 101                                           01 
01060030002000019000007000012000000000000000000REP       United States Representative, Dist 10                   UNDER VOTES                           PRECINCT 102                                           01 
01060030003000069000011000058000000000000000000REP       United States Representative, Dist 10                   UNDER VOTES                           PRECINCT 103                                           01 
01060030004000236000060000176000000000000000000REP       United States Representative, Dist 10                   UNDER VOTES                           PRECINCT 201                                           01 
01060030005000033000006000027000000000000000000REP       United States Representative, Dist 10                   UNDER VOTES                           PRECINCT 202                                           01 
01060030006000082000033000049000000000000000000REP       United States Representative, Dist 10                   UNDER VOTES                           PRECINCT 301                                           01 
01060030007000074000024000050000000000000000000REP       United States Representative, Dist 10                   UNDER VOTES                           PRECINCT 302                                           01 
01060030008000040000013000027000000000000000000REP       United States Representative, Dist 10                   UNDER VOTES                           PRECINCT 303                                           01 
01060030009000020000005000015000000000000000000REP       United States Representative, Dist 10                   UNDER VOTES                           PRECINCT 304                                           01 
01060030010000110000050000060000000000000000000REP       United States Representative, Dist 10                   UNDER VOTES                           PRECINCT 305                                           01 
01060030011000033000014000019000000000000000000REP       United States Representative, Dist 10                   UNDER VOTES                           PRECINCT 401                                           01 
01060030012000134000018000116000000000000000000REP       United States Representative, Dist 10                   UNDER VOTES                           PRECINCT 402                                           01 
01070010001000037000013000024000000000000000000REP       Railroad Commissioner                                   Doug Jeffrey                          PRECINCT 101                                           01 
01070010002000004000001000003000000000000000000REP       Railroad Commissioner                                   Doug Jeffrey                          PRECINCT 102                                           01 
01070010003000024000001000023000000000000000000REP       Railroad Commissioner                                   Doug Jeffrey                          PRECINCT 103                                           01 
01070010004000053000011000042000000000000000000REP       Railroad Commissioner                                   Doug Jeffrey                          PRECINCT 201                                           01 
01070010005000016000006000010000000000000000000REP       Railroad Commissioner                                   Doug Jeffrey                          PRECINCT 202                                           01 
01070010006000022000009000013000000000000000000REP       Railroad Commissioner                                   Doug Jeffrey                          PRECINCT 301                                           01 
01070010007000021000007000014000000000000000000REP       Railroad Commissioner                                   Doug Jeffrey                          PRECINCT 302                                           01 
01070010008000010000003000007000000000000000000REP       Railroad Commissioner                                   Doug Jeffrey                          PRECINCT 303                                           01 
01070010009000004000002000002000000000000000000REP       Railroad Commissioner                                   Doug Jeffrey                          PRECINCT 304                                           01 
01070010010000018000004000014000000000000000000REP       Railroad Commissioner                                   Doug Jeffrey                          PRECINCT 305                                           01 
01070010011000014000005000009000000000000000000REP       Railroad Commissioner                                   Doug Jeffrey                          PRECINCT 401                                           01 
01070010012000024000003000021000000000000000000REP       Railroad Commissioner                                   Doug Jeffrey                          PRECINCT 402                                           01 
01070020001000054000021000033000000000000000000REP       Railroad Commissioner                                   Ron Hale                              PRECINCT 101                                           01 
01070020002000010000004000006000000000000000000REP       Railroad Commissioner                                   Ron Hale                              PRECINCT 102                                           01 
01070020003000019000001000018000000000000000000REP       Railroad Commissioner                                   Ron Hale                              PRECINCT 103                                           01 
01070020004000084000021000063000000000000000000REP       Railroad Commissioner                                   Ron Hale                              PRECINCT 201                                           01 
01070020005000024000004000020000000000000000000REP       Railroad Commissioner                                   Ron Hale                              PRECINCT 202                                           01 
01070020006000017000005000012000000000000000000REP       Railroad Commissioner                                   Ron Hale                              PRECINCT 301                                           01 
01070020007000032000010000022000000000000000000REP       Railroad Commissioner                                   Ron Hale                              PRECINCT 302                                           01 
01070020008000025000004000021000000000000000000REP       Railroad Commissioner                                   Ron Hale                              PRECINCT 303                                           01 
01070020009000017000004000013000000000000000000REP       Railroad Commissioner                                   Ron Hale                              PRECINCT 304                                           01 
01070020010000037000011000026000000000000000000REP       Railroad Commissioner                                   Ron Hale                              PRECINCT 305                                           01 
01070020011000013000003000010000000000000000000REP       Railroad Commissioner                                   Ron Hale                              PRECINCT 401                                           01 
01070020012000027000006000021000000000000000000REP       Railroad Commissioner                                   Ron Hale                              PRECINCT 402                                           01 
01070030001000074000028000046000000000000000000REP       Railroad Commissioner                                   Wayne Christian                       PRECINCT 101                                           01 
01070030002000013000006000007000000000000000000REP       Railroad Commissioner                                   Wayne Christian                       PRECINCT 102                                           01 
01070030003000013000003000010000000000000000000REP       Railroad Commissioner                                   Wayne Christian                       PRECINCT 103                                           01 
01070030004000100000029000071000000000000000000REP       Railroad Commissioner                                   Wayne Christian                       PRECINCT 201                                           01 
01070030005000032000010000022000000000000000000REP       Railroad Commissioner                                   Wayne Christian                       PRECINCT 202                                           01 
01070030006000032000010000022000000000000000000REP       Railroad Commissioner                                   Wayne Christian                       PRECINCT 301                                           01 
01070030007000031000012000019000000000000000000REP       Railroad Commissioner                                   Wayne Christian                       PRECINCT 302                                           01 
01070030008000017000005000012000000000000000000REP       Railroad Commissioner                                   Wayne Christian                       PRECINCT 303                                           01 
01070030009000014000002000012000000000000000000REP       Railroad Commissioner                                   Wayne Christian                       PRECINCT 304                                           01 
01070030010000049000027000022000000000000000000REP       Railroad Commissioner                                   Wayne Christian                       PRECINCT 305                                           01 
01070030011000013000007000006000000000000000000REP       Railroad Commissioner                                   Wayne Christian                       PRECINCT 401                                           01 
01070030012000046000006000040000000000000000000REP       Railroad Commissioner                                   Wayne Christian                       PRECINCT 402                                           01 
01070040001000020000010000010000000000000000000REP       Railroad Commissioner                                   John Greytok                          PRECINCT 101                                           01 
01070040002000003000001000002000000000000000000REP       Railroad Commissioner                                   John Greytok                          PRECINCT 102                                           01 
01070040003000008000001000007000000000000000000REP       Railroad Commissioner                                   John Greytok                          PRECINCT 103                                           01 
01070040004000031000010000021000000000000000000REP       Railroad Commissioner                                   John Greytok                          PRECINCT 201                                           01 
01070040005000003000000000003000000000000000000REP       Railroad Commissioner                                   John Greytok                          PRECINCT 202                                           01 
01070040006000019000011000008000000000000000000REP       Railroad Commissioner                                   John Greytok                          PRECINCT 301                                           01 
01070040007000009000002000007000000000000000000REP       Railroad Commissioner                                   John Greytok                          PRECINCT 302                                           01 
01070040008000009000004000005000000000000000000REP       Railroad Commissioner                                   John Greytok                          PRECINCT 303                                           01 
01070040009000006000001000005000000000000000000REP       Railroad Commissioner                                   John Greytok                          PRECINCT 304                                           01 
01070040010000014000007000007000000000000000000REP       Railroad Commissioner                                   John Greytok                          PRECINCT 305                                           01 
01070040011000008000005000003000000000000000000REP       Railroad Commissioner                                   John Greytok                          PRECINCT 401                                           01 
01070040012000028000004000024000000000000000000REP       Railroad Commissioner                                   John Greytok                          PRECINCT 402                                           01 
01070050001000204000081000123000000000000000000REP       Railroad Commissioner                                   Gary Gates                            PRECINCT 101                                           01 
01070050002000025000007000018000000000000000000REP       Railroad Commissioner                                   Gary Gates                            PRECINCT 102                                           01 
01070050003000093000012000081000000000000000000REP       Railroad Commissioner                                   Gary Gates                            PRECINCT 103                                           01 
01070050004000272000066000206000000000000000000REP       Railroad Commissioner                                   Gary Gates                            PRECINCT 201                                           01 
01070050005000051000015000036000000000000000000REP       Railroad Commissioner                                   Gary Gates                            PRECINCT 202                                           01 
01070050006000097000039000058000000000000000000REP       Railroad Commissioner                                   Gary Gates                            PRECINCT 301                                           01 
01070050007000130000037000093000000000000000000REP       Railroad Commissioner                                   Gary Gates                            PRECINCT 302                                           01 
01070050008000054000019000035000000000000000000REP       Railroad Commissioner                                   Gary Gates                            PRECINCT 303                                           01 
01070050009000043000010000033000000000000000000REP       Railroad Commissioner                                   Gary Gates                            PRECINCT 304                                           01 
01070050010000107000046000061000000000000000000REP       Railroad Commissioner                                   Gary Gates                            PRECINCT 305                                           01 
01070050011000026000017000009000000000000000000REP       Railroad Commissioner                                   Gary Gates                            PRECINCT 401                                           01 
01070050012000147000028000119000000000000000000REP       Railroad Commissioner                                   Gary Gates                            PRECINCT 402                                           01 
01070060001000037000014000023000000000000000000REP       Railroad Commissioner                                   Lance N. Christian                    PRECINCT 101                                           01 
01070060002000007000001000006000000000000000000REP       Railroad Commissioner                                   Lance N. Christian                    PRECINCT 102                                           01 
01070060003000003000002000001000000000000000000REP       Railroad Commissioner                                   Lance N. Christian                    PRECINCT 103                                           01 
01070060004000036000002000034000000000000000000REP       Railroad Commissioner                                   Lance N. Christian                    PRECINCT 201                                           01 
01070060005000013000006000007000000000000000000REP       Railroad Commissioner                                   Lance N. Christian                    PRECINCT 202                                           01 
01070060006000011000003000008000000000000000000REP       Railroad Commissioner                                   Lance N. Christian                    PRECINCT 301                                           01 
01070060007000011000003000008000000000000000000REP       Railroad Commissioner                                   Lance N. Christian                    PRECINCT 302                                           01 
01070060008000014000005000009000000000000000000REP       Railroad Commissioner                                   Lance N. Christian                    PRECINCT 303                                           01 
01070060009000003000000000003000000000000000000REP       Railroad Commissioner                                   Lance N. Christian                    PRECINCT 304                                           01 
01070060010000016000004000012000000000000000000REP       Railroad Commissioner                                   Lance N. Christian                    PRECINCT 305                                           01 
01070060011000005000000000005000000000000000000REP       Railroad Commissioner                                   Lance N. Christian                    PRECINCT 401                                           01 
01070060012000010000001000009000000000000000000REP       Railroad Commissioner                                   Lance N. Christian                    PRECINCT 402                                           01 
01070070001000010000004000006000000000000000000REP       Railroad Commissioner                                   Weston Martinez                       PRECINCT 101                                           01 
01070070002000001000001000000000000000000000000REP       Railroad Commissioner                                   Weston Martinez                       PRECINCT 102                                           01 
01070070003000022000005000017000000000000000000REP       Railroad Commissioner                                   Weston Martinez                       PRECINCT 103                                           01 
01070070004000025000002000023000000000000000000REP       Railroad Commissioner                                   Weston Martinez                       PRECINCT 201                                           01 
01070070005000007000002000005000000000000000000REP       Railroad Commissioner                                   Weston Martinez                       PRECINCT 202                                           01 
01070070006000006000003000003000000000000000000REP       Railroad Commissioner                                   Weston Martinez                       PRECINCT 301                                           01 
01070070007000010000002000008000000000000000000REP       Railroad Commissioner                                   Weston Martinez                       PRECINCT 302                                           01 
01070070008000006000003000003000000000000000000REP       Railroad Commissioner                                   Weston Martinez                       PRECINCT 303                                           01 
01070070009000006000002000004000000000000000000REP       Railroad Commissioner                                   Weston Martinez                       PRECINCT 304                                           01 
01070070010000016000012000004000000000000000000REP       Railroad Commissioner                                   Weston Martinez                       PRECINCT 305                                           01 
01070070011000004000002000002000000000000000000REP       Railroad Commissioner                                   Weston Martinez                       PRECINCT 401                                           01 
01070070012000031000005000026000000000000000000REP       Railroad Commissioner                                   Weston Martinez                       PRECINCT 402                                           01 
01070080001000000000000000000000000000000000000REP       Railroad Commissioner                                   OVER VOTES                            PRECINCT 101                                           01 
01070080002000000000000000000000000000000000000REP       Railroad Commissioner                                   OVER VOTES                            PRECINCT 102                                           01 
01070080003000000000000000000000000000000000000REP       Railroad Commissioner                                   OVER VOTES                            PRECINCT 103                                           01 
01070080004000000000000000000000000000000000000REP       Railroad Commissioner                                   OVER VOTES                            PRECINCT 201                                           01 
01070080005000001000000000001000000000000000000REP       Railroad Commissioner                                   OVER VOTES                            PRECINCT 202                                           01 
01070080006000000000000000000000000000000000000REP       Railroad Commissioner                                   OVER VOTES                            PRECINCT 301                                           01 
01070080007000000000000000000000000000000000000REP       Railroad Commissioner                                   OVER VOTES                            PRECINCT 302                                           01 
01070080008000000000000000000000000000000000000REP       Railroad Commissioner                                   OVER VOTES                            PRECINCT 303                                           01 
01070080009000000000000000000000000000000000000REP       Railroad Commissioner                                   OVER VOTES                            PRECINCT 304                                           01 
01070080010000000000000000000000000000000000000REP       Railroad Commissioner                                   OVER VOTES                            PRECINCT 305                                           01 
01070080011000000000000000000000000000000000000REP       Railroad Commissioner                                   OVER VOTES                            PRECINCT 401                                           01 
01070080012000000000000000000000000000000000000REP       Railroad Commissioner                                   OVER VOTES                            PRECINCT 402                                           01 
01070090001000162000065000097000000000000000000REP       Railroad Commissioner                                   UNDER VOTES                           PRECINCT 101                                           01 
01070090002000015000003000012000000000000000000REP       Railroad Commissioner                                   UNDER VOTES                           PRECINCT 102                                           01 
01070090003000055000007000048000000000000000000REP       Railroad Commissioner                                   UNDER VOTES                           PRECINCT 103                                           01 
01070090004000219000054000165000000000000000000REP       Railroad Commissioner                                   UNDER VOTES                           PRECINCT 201                                           01 
01070090005000033000005000028000000000000000000REP       Railroad Commissioner                                   UNDER VOTES                           PRECINCT 202                                           01 
01070090006000097000040000057000000000000000000REP       Railroad Commissioner                                   UNDER VOTES                           PRECINCT 301                                           01 
01070090007000094000019000075000000000000000000REP       Railroad Commissioner                                   UNDER VOTES                           PRECINCT 302                                           01 
01070090008000057000016000041000000000000000000REP       Railroad Commissioner                                   UNDER VOTES                           PRECINCT 303                                           01 
01070090009000029000007000022000000000000000000REP       Railroad Commissioner                                   UNDER VOTES                           PRECINCT 304                                           01 
01070090010000093000035000058000000000000000000REP       Railroad Commissioner                                   UNDER VOTES                           PRECINCT 305                                           01 
01070090011000032000018000014000000000000000000REP       Railroad Commissioner                                   UNDER VOTES                           PRECINCT 401                                           01 
01070090012000130000013000117000000000000000000REP       Railroad Commissioner                                   UNDER VOTES                           PRECINCT 402                                           01 
01080010001000218000092000126000000000000000000REP       Justice, Supreme Court, Place 3                         Debra Lehrmann                        PRECINCT 101                                           01 
01080010002000027000009000018000000000000000000REP       Justice, Supreme Court, Place 3                         Debra Lehrmann                        PRECINCT 102                                           01 
01080010003000081000009000072000000000000000000REP       Justice, Supreme Court, Place 3                         Debra Lehrmann                        PRECINCT 103                                           01 
01080010004000330000091000239000000000000000000REP       Justice, Supreme Court, Place 3                         Debra Lehrmann                        PRECINCT 201                                           01 
01080010005000077000025000052000000000000000000REP       Justice, Supreme Court, Place 3                         Debra Lehrmann                        PRECINCT 202                                           01 
01080010006000105000039000066000000000000000000REP       Justice, Supreme Court, Place 3                         Debra Lehrmann                        PRECINCT 301                                           01 
01080010007000126000041000085000000000000000000REP       Justice, Supreme Court, Place 3                         Debra Lehrmann                        PRECINCT 302                                           01 
01080010008000072000026000046000000000000000000REP       Justice, Supreme Court, Place 3                         Debra Lehrmann                        PRECINCT 303                                           01 
01080010009000048000011000037000000000000000000REP       Justice, Supreme Court, Place 3                         Debra Lehrmann                        PRECINCT 304                                           01 
01080010010000141000060000081000000000000000000REP       Justice, Supreme Court, Place 3                         Debra Lehrmann                        PRECINCT 305                                           01 
01080010011000043000021000022000000000000000000REP       Justice, Supreme Court, Place 3                         Debra Lehrmann                        PRECINCT 401                                           01 
01080010012000156000017000139000000000000000000REP       Justice, Supreme Court, Place 3                         Debra Lehrmann                        PRECINCT 402                                           01 
01080020001000239000095000144000000000000000000REP       Justice, Supreme Court, Place 3                         Michael Massengale                    PRECINCT 101                                           01 
01080020002000038000011000027000000000000000000REP       Justice, Supreme Court, Place 3                         Michael Massengale                    PRECINCT 102                                           01 
01080020003000094000014000080000000000000000000REP       Justice, Supreme Court, Place 3                         Michael Massengale                    PRECINCT 103                                           01 
01080020004000267000049000218000000000000000000REP       Justice, Supreme Court, Place 3                         Michael Massengale                    PRECINCT 201                                           01 
01080020005000067000015000052000000000000000000REP       Justice, Supreme Court, Place 3                         Michael Massengale                    PRECINCT 202                                           01 
01080020006000112000047000065000000000000000000REP       Justice, Supreme Court, Place 3                         Michael Massengale                    PRECINCT 301                                           01 
01080020007000131000037000094000000000000000000REP       Justice, Supreme Court, Place 3                         Michael Massengale                    PRECINCT 302                                           01 
01080020008000074000018000056000000000000000000REP       Justice, Supreme Court, Place 3                         Michael Massengale                    PRECINCT 303                                           01 
01080020009000052000013000039000000000000000000REP       Justice, Supreme Court, Place 3                         Michael Massengale                    PRECINCT 304                                           01 
01080020010000125000054000071000000000000000000REP       Justice, Supreme Court, Place 3                         Michael Massengale                    PRECINCT 305                                           01 
01080020011000045000021000024000000000000000000REP       Justice, Supreme Court, Place 3                         Michael Massengale                    PRECINCT 401                                           01 
01080020012000170000035000135000000000000000000REP       Justice, Supreme Court, Place 3                         Michael Massengale                    PRECINCT 402                                           01 
01080030001000000000000000000000000000000000000REP       Justice, Supreme Court, Place 3                         OVER VOTES                            PRECINCT 101                                           01 
01080030002000000000000000000000000000000000000REP       Justice, Supreme Court, Place 3                         OVER VOTES                            PRECINCT 102                                           01 
01080030003000000000000000000000000000000000000REP       Justice, Supreme Court, Place 3                         OVER VOTES                            PRECINCT 103                                           01 
01080030004000000000000000000000000000000000000REP       Justice, Supreme Court, Place 3                         OVER VOTES                            PRECINCT 201                                           01 
01080030005000000000000000000000000000000000000REP       Justice, Supreme Court, Place 3                         OVER VOTES                            PRECINCT 202                                           01 
01080030006000000000000000000000000000000000000REP       Justice, Supreme Court, Place 3                         OVER VOTES                            PRECINCT 301                                           01 
01080030007000000000000000000000000000000000000REP       Justice, Supreme Court, Place 3                         OVER VOTES                            PRECINCT 302                                           01 
01080030008000000000000000000000000000000000000REP       Justice, Supreme Court, Place 3                         OVER VOTES                            PRECINCT 303                                           01 
01080030009000000000000000000000000000000000000REP       Justice, Supreme Court, Place 3                         OVER VOTES                            PRECINCT 304                                           01 
01080030010000000000000000000000000000000000000REP       Justice, Supreme Court, Place 3                         OVER VOTES                            PRECINCT 305                                           01 
01080030011000000000000000000000000000000000000REP       Justice, Supreme Court, Place 3                         OVER VOTES                            PRECINCT 401                                           01 
01080030012000000000000000000000000000000000000REP       Justice, Supreme Court, Place 3                         OVER VOTES                            PRECINCT 402                                           01 
01080040001000141000049000092000000000000000000REP       Justice, Supreme Court, Place 3                         UNDER VOTES                           PRECINCT 101                                           01 
01080040002000013000004000009000000000000000000REP       Justice, Supreme Court, Place 3                         UNDER VOTES                           PRECINCT 102                                           01 
01080040003000062000009000053000000000000000000REP       Justice, Supreme Court, Place 3                         UNDER VOTES                           PRECINCT 103                                           01 
01080040004000223000055000168000000000000000000REP       Justice, Supreme Court, Place 3                         UNDER VOTES                           PRECINCT 201                                           01 
01080040005000036000008000028000000000000000000REP       Justice, Supreme Court, Place 3                         UNDER VOTES                           PRECINCT 202                                           01 
01080040006000084000034000050000000000000000000REP       Justice, Supreme Court, Place 3                         UNDER VOTES                           PRECINCT 301                                           01 
01080040007000081000014000067000000000000000000REP       Justice, Supreme Court, Place 3                         UNDER VOTES                           PRECINCT 302                                           01 
01080040008000046000015000031000000000000000000REP       Justice, Supreme Court, Place 3                         UNDER VOTES                           PRECINCT 303                                           01 
01080040009000022000004000018000000000000000000REP       Justice, Supreme Court, Place 3                         UNDER VOTES                           PRECINCT 304                                           01 
01080040010000084000032000052000000000000000000REP       Justice, Supreme Court, Place 3                         UNDER VOTES                           PRECINCT 305                                           01 
01080040011000027000015000012000000000000000000REP       Justice, Supreme Court, Place 3                         UNDER VOTES                           PRECINCT 401                                           01 
01080040012000117000014000103000000000000000000REP       Justice, Supreme Court, Place 3                         UNDER VOTES                           PRECINCT 402                                           01 
01090010001000269000104000165000000000000000000REP       Justice, Supreme Court, Place 5                         Paul Green                            PRECINCT 101                                           01 
01090010002000032000012000020000000000000000000REP       Justice, Supreme Court, Place 5                         Paul Green                            PRECINCT 102                                           01 
01090010003000095000012000083000000000000000000REP       Justice, Supreme Court, Place 5                         Paul Green                            PRECINCT 103                                           01 
01090010004000372000090000282000000000000000000REP       Justice, Supreme Court, Place 5                         Paul Green                            PRECINCT 201                                           01 
01090010005000084000026000058000000000000000000REP       Justice, Supreme Court, Place 5                         Paul Green                            PRECINCT 202                                           01 
01090010006000143000057000086000000000000000000REP       Justice, Supreme Court, Place 5                         Paul Green                            PRECINCT 301                                           01 
01090010007000163000039000124000000000000000000REP       Justice, Supreme Court, Place 5                         Paul Green                            PRECINCT 302                                           01 
01090010008000093000022000071000000000000000000REP       Justice, Supreme Court, Place 5                         Paul Green                            PRECINCT 303                                           01 
01090010009000054000008000046000000000000000000REP       Justice, Supreme Court, Place 5                         Paul Green                            PRECINCT 304                                           01 
01090010010000146000063000083000000000000000000REP       Justice, Supreme Court, Place 5                         Paul Green                            PRECINCT 305                                           01 
01090010011000047000021000026000000000000000000REP       Justice, Supreme Court, Place 5                         Paul Green                            PRECINCT 401                                           01 
01090010012000177000029000148000000000000000000REP       Justice, Supreme Court, Place 5                         Paul Green                            PRECINCT 402                                           01 
01090020001000151000063000088000000000000000000REP       Justice, Supreme Court, Place 5                         Rick Green                            PRECINCT 101                                           01 
01090020002000030000008000022000000000000000000REP       Justice, Supreme Court, Place 5                         Rick Green                            PRECINCT 102                                           01 
01090020003000064000009000055000000000000000000REP       Justice, Supreme Court, Place 5                         Rick Green                            PRECINCT 103                                           01 
01090020004000187000039000148000000000000000000REP       Justice, Supreme Court, Place 5                         Rick Green                            PRECINCT 201                                           01 
01090020005000058000014000044000000000000000000REP       Justice, Supreme Court, Place 5                         Rick Green                            PRECINCT 202                                           01 
01090020006000056000022000034000000000000000000REP       Justice, Supreme Court, Place 5                         Rick Green                            PRECINCT 301                                           01 
01090020007000070000030000040000000000000000000REP       Justice, Supreme Court, Place 5                         Rick Green                            PRECINCT 302                                           01 
01090020008000038000018000020000000000000000000REP       Justice, Supreme Court, Place 5                         Rick Green                            PRECINCT 303                                           01 
01090020009000038000011000027000000000000000000REP       Justice, Supreme Court, Place 5                         Rick Green                            PRECINCT 304                                           01 
01090020010000097000045000052000000000000000000REP       Justice, Supreme Court, Place 5                         Rick Green                            PRECINCT 305                                           01 
01090020011000032000016000016000000000000000000REP       Justice, Supreme Court, Place 5                         Rick Green                            PRECINCT 401                                           01 
01090020012000114000020000094000000000000000000REP       Justice, Supreme Court, Place 5                         Rick Green                            PRECINCT 402                                           01 
01090030001000000000000000000000000000000000000REP       Justice, Supreme Court, Place 5                         OVER VOTES                            PRECINCT 101                                           01 
01090030002000000000000000000000000000000000000REP       Justice, Supreme Court, Place 5                         OVER VOTES                            PRECINCT 102                                           01 
01090030003000000000000000000000000000000000000REP       Justice, Supreme Court, Place 5                         OVER VOTES                            PRECINCT 103                                           01 
01090030004000000000000000000000000000000000000REP       Justice, Supreme Court, Place 5                         OVER VOTES                            PRECINCT 201                                           01 
01090030005000000000000000000000000000000000000REP       Justice, Supreme Court, Place 5                         OVER VOTES                            PRECINCT 202                                           01 
01090030006000000000000000000000000000000000000REP       Justice, Supreme Court, Place 5                         OVER VOTES                            PRECINCT 301                                           01 
01090030007000000000000000000000000000000000000REP       Justice, Supreme Court, Place 5                         OVER VOTES                            PRECINCT 302                                           01 
01090030008000000000000000000000000000000000000REP       Justice, Supreme Court, Place 5                         OVER VOTES                            PRECINCT 303                                           01 
01090030009000000000000000000000000000000000000REP       Justice, Supreme Court, Place 5                         OVER VOTES                            PRECINCT 304                                           01 
01090030010000000000000000000000000000000000000REP       Justice, Supreme Court, Place 5                         OVER VOTES                            PRECINCT 305                                           01 
01090030011000000000000000000000000000000000000REP       Justice, Supreme Court, Place 5                         OVER VOTES                            PRECINCT 401                                           01 
01090030012000000000000000000000000000000000000REP       Justice, Supreme Court, Place 5                         OVER VOTES                            PRECINCT 402                                           01 
01090040001000178000069000109000000000000000000REP       Justice, Supreme Court, Place 5                         UNDER VOTES                           PRECINCT 101                                           01 
01090040002000016000004000012000000000000000000REP       Justice, Supreme Court, Place 5                         UNDER VOTES                           PRECINCT 102                                           01 
01090040003000078000011000067000000000000000000REP       Justice, Supreme Court, Place 5                         UNDER VOTES                           PRECINCT 103                                           01 
01090040004000261000066000195000000000000000000REP       Justice, Supreme Court, Place 5                         UNDER VOTES                           PRECINCT 201                                           01 
01090040005000038000008000030000000000000000000REP       Justice, Supreme Court, Place 5                         UNDER VOTES                           PRECINCT 202                                           01 
01090040006000102000041000061000000000000000000REP       Justice, Supreme Court, Place 5                         UNDER VOTES                           PRECINCT 301                                           01 
01090040007000105000023000082000000000000000000REP       Justice, Supreme Court, Place 5                         UNDER VOTES                           PRECINCT 302                                           01 
01090040008000061000019000042000000000000000000REP       Justice, Supreme Court, Place 5                         UNDER VOTES                           PRECINCT 303                                           01 
01090040009000030000009000021000000000000000000REP       Justice, Supreme Court, Place 5                         UNDER VOTES                           PRECINCT 304                                           01 
01090040010000107000038000069000000000000000000REP       Justice, Supreme Court, Place 5                         UNDER VOTES                           PRECINCT 305                                           01 
01090040011000036000020000016000000000000000000REP       Justice, Supreme Court, Place 5                         UNDER VOTES                           PRECINCT 401                                           01 
01090040012000152000017000135000000000000000000REP       Justice, Supreme Court, Place 5                         UNDER VOTES                           PRECINCT 402                                           01 
01100010001000227000089000138000000000000000000REP       Justice, Supreme Court, Place 9                         Joe Pool                              PRECINCT 101                                           01 
01100010002000022000007000015000000000000000000REP       Justice, Supreme Court, Place 9                         Joe Pool                              PRECINCT 102                                           01 
01100010003000097000011000086000000000000000000REP       Justice, Supreme Court, Place 9                         Joe Pool                              PRECINCT 103                                           01 
01100010004000279000062000217000000000000000000REP       Justice, Supreme Court, Place 9                         Joe Pool                              PRECINCT 201                                           01 
01100010005000091000027000064000000000000000000REP       Justice, Supreme Court, Place 9                         Joe Pool                              PRECINCT 202                                           01 
01100010006000089000033000056000000000000000000REP       Justice, Supreme Court, Place 9                         Joe Pool                              PRECINCT 301                                           01 
01100010007000129000036000093000000000000000000REP       Justice, Supreme Court, Place 9                         Joe Pool                              PRECINCT 302                                           01 
01100010008000057000018000039000000000000000000REP       Justice, Supreme Court, Place 9                         Joe Pool                              PRECINCT 303                                           01 
01100010009000049000006000043000000000000000000REP       Justice, Supreme Court, Place 9                         Joe Pool                              PRECINCT 304                                           01 
01100010010000121000049000072000000000000000000REP       Justice, Supreme Court, Place 9                         Joe Pool                              PRECINCT 305                                           01 
01100010011000043000020000023000000000000000000REP       Justice, Supreme Court, Place 9                         Joe Pool                              PRECINCT 401                                           01 
01100010012000133000025000108000000000000000000REP       Justice, Supreme Court, Place 9                         Joe Pool                              PRECINCT 402                                           01 
01100020001000190000081000109000000000000000000REP       Justice, Supreme Court, Place 9                         Eva Guzman                            PRECINCT 101                                           01 
01100020002000043000013000030000000000000000000REP       Justice, Supreme Court, Place 9                         Eva Guzman                            PRECINCT 102                                           01 
01100020003000069000009000060000000000000000000REP       Justice, Supreme Court, Place 9                         Eva Guzman                            PRECINCT 103                                           01 
01100020004000311000080000231000000000000000000REP       Justice, Supreme Court, Place 9                         Eva Guzman                            PRECINCT 201                                           01 
01100020005000057000015000042000000000000000000REP       Justice, Supreme Court, Place 9                         Eva Guzman                            PRECINCT 202                                           01 
01100020006000118000050000068000000000000000000REP       Justice, Supreme Court, Place 9                         Eva Guzman                            PRECINCT 301                                           01 
01100020007000113000034000079000000000000000000REP       Justice, Supreme Court, Place 9                         Eva Guzman                            PRECINCT 302                                           01 
01100020008000074000026000048000000000000000000REP       Justice, Supreme Court, Place 9                         Eva Guzman                            PRECINCT 303                                           01 
01100020009000041000015000026000000000000000000REP       Justice, Supreme Court, Place 9                         Eva Guzman                            PRECINCT 304                                           01 
01100020010000133000060000073000000000000000000REP       Justice, Supreme Court, Place 9                         Eva Guzman                            PRECINCT 305                                           01 
01100020011000038000019000019000000000000000000REP       Justice, Supreme Court, Place 9                         Eva Guzman                            PRECINCT 401                                           01 
01100020012000176000028000148000000000000000000REP       Justice, Supreme Court, Place 9                         Eva Guzman                            PRECINCT 402                                           01 
01100030001000000000000000000000000000000000000REP       Justice, Supreme Court, Place 9                         OVER VOTES                            PRECINCT 101                                           01 
01100030002000000000000000000000000000000000000REP       Justice, Supreme Court, Place 9                         OVER VOTES                            PRECINCT 102                                           01 
01100030003000000000000000000000000000000000000REP       Justice, Supreme Court, Place 9                         OVER VOTES                            PRECINCT 103                                           01 
01100030004000000000000000000000000000000000000REP       Justice, Supreme Court, Place 9                         OVER VOTES                            PRECINCT 201                                           01 
01100030005000000000000000000000000000000000000REP       Justice, Supreme Court, Place 9                         OVER VOTES                            PRECINCT 202                                           01 
01100030006000000000000000000000000000000000000REP       Justice, Supreme Court, Place 9                         OVER VOTES                            PRECINCT 301                                           01 
01100030007000000000000000000000000000000000000REP       Justice, Supreme Court, Place 9                         OVER VOTES                            PRECINCT 302                                           01 
01100030008000000000000000000000000000000000000REP       Justice, Supreme Court, Place 9                         OVER VOTES                            PRECINCT 303                                           01 
01100030009000000000000000000000000000000000000REP       Justice, Supreme Court, Place 9                         OVER VOTES                            PRECINCT 304                                           01 
01100030010000000000000000000000000000000000000REP       Justice, Supreme Court, Place 9                         OVER VOTES                            PRECINCT 305                                           01 
01100030011000000000000000000000000000000000000REP       Justice, Supreme Court, Place 9                         OVER VOTES                            PRECINCT 401                                           01 
01100030012000000000000000000000000000000000000REP       Justice, Supreme Court, Place 9                         OVER VOTES                            PRECINCT 402                                           01 
01100040001000181000066000115000000000000000000REP       Justice, Supreme Court, Place 9                         UNDER VOTES                           PRECINCT 101                                           01 
01100040002000013000004000009000000000000000000REP       Justice, Supreme Court, Place 9                         UNDER VOTES                           PRECINCT 102                                           01 
01100040003000071000012000059000000000000000000REP       Justice, Supreme Court, Place 9                         UNDER VOTES                           PRECINCT 103                                           01 
01100040004000230000053000177000000000000000000REP       Justice, Supreme Court, Place 9                         UNDER VOTES                           PRECINCT 201                                           01 
01100040005000032000006000026000000000000000000REP       Justice, Supreme Court, Place 9                         UNDER VOTES                           PRECINCT 202                                           01 
