01030010001000190REP       STRAIGHT PARTY                                          REPUBLICAN PARTY                      Precinct 1                                             01 
01030010002000182REP       STRAIGHT PARTY                                          REPUBLICAN PARTY                      Precinct 2                                             01 
01030010003000126REP       STRAIGHT PARTY                                          REPUBLICAN PARTY                      Precinct 3                                             01 
01030010004000110REP       STRAIGHT PARTY                                          REPUBLICAN PARTY                      Precinct 4                                             01 
01030020001000035DEM       STRAIGHT PARTY                                          DEMOCRATIC PARTY                      Precinct 1                                             01 
01030020002000044DEM       STRAIGHT PARTY                                          DEMOCRATIC PARTY                      Precinct 2                                             01 
01030020003000072DEM       STRAIGHT PARTY                                          DEMOCRATIC PARTY                      Precinct 3                                             01 
01030020004000041DEM       STRAIGHT PARTY                                          DEMOCRATIC PARTY                      Precinct 4                                             01 
01030030001000001LIB       STRAIGHT PARTY                                          LIBERTARIAN PARTY                     Precinct 1                                             01 
01030030002000000LIB       STRAIGHT PARTY                                          LIBERTARIAN PARTY                     Precinct 2                                             01 
01030030003000004LIB       STRAIGHT PARTY                                          LIBERTARIAN PARTY                     Precinct 3                                             01 
01030030004000001LIB       STRAIGHT PARTY                                          LIBERTARIAN PARTY                     Precinct 4                                             01 
01030040001000001GRN       STRAIGHT PARTY                                          GREEN PARTY                           Precinct 1                                             01 
01030040002000002GRN       STRAIGHT PARTY                                          GREEN PARTY                           Precinct 2                                             01 
01030040003000000GRN       STRAIGHT PARTY                                          GREEN PARTY                           Precinct 3                                             01 
01030040004000000GRN       STRAIGHT PARTY                                          GREEN PARTY                           Precinct 4                                             01 
01030050001000000          STRAIGHT PARTY                                          OVER VOTES                            Precinct 1                                             01 
01030050002000000          STRAIGHT PARTY                                          OVER VOTES                            Precinct 2                                             01 
01030050003000000          STRAIGHT PARTY                                          OVER VOTES                            Precinct 3                                             01 
01030050004000000          STRAIGHT PARTY                                          OVER VOTES                            Precinct 4                                             01 
01030060001000209          STRAIGHT PARTY                                          UNDER VOTES                           Precinct 1                                             01 
01030060002000141          STRAIGHT PARTY                                          UNDER VOTES                           Precinct 2                                             01 
01030060003000097          STRAIGHT PARTY                                          UNDER VOTES                           Precinct 3                                             01 
01030060004000137          STRAIGHT PARTY                                          UNDER VOTES                           Precinct 4                                             01 
01040010001000357REP       President and Vice President                            Donald J. Trump / Mike Pence          Precinct 1                                             01 
01040010002000295REP       President and Vice President                            Donald J. Trump / Mike Pence          Precinct 2                                             01 
01040010003000184REP       President and Vice President                            Donald J. Trump / Mike Pence          Precinct 3                                             01 
01040010004000213REP       President and Vice President                            Donald J. Trump / Mike Pence          Precinct 4                                             01 
01040020001000062DEM       President and Vice President                            Hillary Clinton / Tim Kaine           Precinct 1                                             01 
01040020002000066DEM       President and Vice President                            Hillary Clinton / Tim Kaine           Precinct 2                                             01 
01040020003000104DEM       President and Vice President                            Hillary Clinton / Tim Kaine           Precinct 3                                             01 
01040020004000067DEM       President and Vice President                            Hillary Clinton / Tim Kaine           Precinct 4                                             01 
01040030001000010LIB       President and Vice President                            Gary Johnson / William Weld           Precinct 1                                             01 
01040030002000004LIB       President and Vice President                            Gary Johnson / William Weld           Precinct 2                                             01 
01040030003000009LIB       President and Vice President                            Gary Johnson / William Weld           Precinct 3                                             01 
01040030004000005LIB       President and Vice President                            Gary Johnson / William Weld           Precinct 4                                             01 
01040040001000003GRN       President and Vice President                            Jill Stein / Ajamu Baraka             Precinct 1                                             01 
01040040002000002GRN       President and Vice President                            Jill Stein / Ajamu Baraka             Precinct 2                                             01 
01040040003000000GRN       President and Vice President                            Jill Stein / Ajamu Baraka             Precinct 3                                             01 
01040040004000002GRN       President and Vice President                            Jill Stein / Ajamu Baraka             Precinct 4                                             01 
01040050001000001NON       President and Vice President                            WRITE-IN                              Precinct 1                                             01 
01040050002000001NON       President and Vice President                            WRITE-IN                              Precinct 2                                             01 
01040050003000001NON       President and Vice President                            WRITE-IN                              Precinct 3                                             01 
01040050004000000NON       President and Vice President                            WRITE-IN                              Precinct 4                                             01 
01040060001000000          President and Vice President                            OVER VOTES                            Precinct 1                                             01 
01040060002000000          President and Vice President                            OVER VOTES                            Precinct 2                                             01 
01040060003000000          President and Vice President                            OVER VOTES                            Precinct 3                                             01 
01040060004000000          President and Vice President                            OVER VOTES                            Precinct 4                                             01 
01040070001000003          President and Vice President                            UNDER VOTES                           Precinct 1                                             01 
01040070002000001          President and Vice President                            UNDER VOTES                           Precinct 2                                             01 
01040070003000001          President and Vice President                            UNDER VOTES                           Precinct 3                                             01 
01040070004000002          President and Vice President                            UNDER VOTES                           Precinct 4                                             01 
01050010001000343REP       United States Representative, Dist 23                   Will Hurd                             Precinct 1                                             01 
01050010002000282REP       United States Representative, Dist 23                   Will Hurd                             Precinct 2                                             01 
01050010003000172REP       United States Representative, Dist 23                   Will Hurd                             Precinct 3                                             01 
01050010004000203REP       United States Representative, Dist 23                   Will Hurd                             Precinct 4                                             01 
01050020001000072DEM       United States Representative, Dist 23                   Pete P. Gallego                       Precinct 1                                             01 
01050020002000068DEM       United States Representative, Dist 23                   Pete P. Gallego                       Precinct 2                                             01 
01050020003000110DEM       United States Representative, Dist 23                   Pete P. Gallego                       Precinct 3                                             01 
01050020004000063DEM       United States Representative, Dist 23                   Pete P. Gallego                       Precinct 4                                             01 
01050030001000014LIB       United States Representative, Dist 23                   Ruben S. Corvalan                     Precinct 1                                             01 
01050030002000008LIB       United States Representative, Dist 23                   Ruben S. Corvalan                     Precinct 2                                             01 
01050030003000009LIB       United States Representative, Dist 23                   Ruben S. Corvalan                     Precinct 3                                             01 
01050030004000007LIB       United States Representative, Dist 23                   Ruben S. Corvalan                     Precinct 4                                             01 
01050040001000000          United States Representative, Dist 23                   OVER VOTES                            Precinct 1                                             01 
01050040002000000          United States Representative, Dist 23                   OVER VOTES                            Precinct 2                                             01 
01050040003000000          United States Representative, Dist 23                   OVER VOTES                            Precinct 3                                             01 
01050040004000000          United States Representative, Dist 23                   OVER VOTES                            Precinct 4                                             01 
01050050001000007          United States Representative, Dist 23                   UNDER VOTES                           Precinct 1                                             01 
01050050002000011          United States Representative, Dist 23                   UNDER VOTES                           Precinct 2                                             01 
01050050003000008          United States Representative, Dist 23                   UNDER VOTES                           Precinct 3                                             01 
01050050004000016          United States Representative, Dist 23                   UNDER VOTES                           Precinct 4                                             01 
01060010001000333REP       Railroad Commissioner                                   Wayne Christian                       Precinct 1                                             01 
01060010002000277REP       Railroad Commissioner                                   Wayne Christian                       Precinct 2                                             01 
01060010003000180REP       Railroad Commissioner                                   Wayne Christian                       Precinct 3                                             01 
01060010004000193REP       Railroad Commissioner                                   Wayne Christian                       Precinct 4                                             01 
01060020001000055DEM       Railroad Commissioner                                   Grady Yarbrough                       Precinct 1                                             01 
01060020002000058DEM       Railroad Commissioner                                   Grady Yarbrough                       Precinct 2                                             01 
01060020003000085DEM       Railroad Commissioner                                   Grady Yarbrough                       Precinct 3                                             01 
01060020004000055DEM       Railroad Commissioner                                   Grady Yarbrough                       Precinct 4                                             01 
01060030001000018LIB       Railroad Commissioner                                   Mark Miller                           Precinct 1                                             01 
01060030002000009LIB       Railroad Commissioner                                   Mark Miller                           Precinct 2                                             01 
01060030003000011LIB       Railroad Commissioner                                   Mark Miller                           Precinct 3                                             01 
01060030004000016LIB       Railroad Commissioner                                   Mark Miller                           Precinct 4                                             01 
01060040001000011GRN       Railroad Commissioner                                   Martina Salinas                       Precinct 1                                             01 
01060040002000010GRN       Railroad Commissioner                                   Martina Salinas                       Precinct 2                                             01 
01060040003000018GRN       Railroad Commissioner                                   Martina Salinas                       Precinct 3                                             01 
01060040004000007GRN       Railroad Commissioner                                   Martina Salinas                       Precinct 4                                             01 
01060050001000000          Railroad Commissioner                                   OVER VOTES                            Precinct 1                                             01 
01060050002000000          Railroad Commissioner                                   OVER VOTES                            Precinct 2                                             01 
01060050003000000          Railroad Commissioner                                   OVER VOTES                            Precinct 3                                             01 
01060050004000000          Railroad Commissioner                                   OVER VOTES                            Precinct 4                                             01 
01060060001000019          Railroad Commissioner                                   UNDER VOTES                           Precinct 1                                             01 
01060060002000015          Railroad Commissioner                                   UNDER VOTES                           Precinct 2                                             01 
01060060003000005          Railroad Commissioner                                   UNDER VOTES                           Precinct 3                                             01 
01060060004000018          Railroad Commissioner                                   UNDER VOTES                           Precinct 4                                             01 
01070010001000337REP       Justice, Supreme Court, Place 3                         Debra Lehrmann                        Precinct 1                                             01 
01070010002000276REP       Justice, Supreme Court, Place 3                         Debra Lehrmann                        Precinct 2                                             01 
01070010003000175REP       Justice, Supreme Court, Place 3                         Debra Lehrmann                        Precinct 3                                             01 
01070010004000202REP       Justice, Supreme Court, Place 3                         Debra Lehrmann                        Precinct 4                                             01 
01070020001000054DEM       Justice, Supreme Court, Place 3                         Mike Westergren                       Precinct 1                                             01 
01070020002000062DEM       Justice, Supreme Court, Place 3                         Mike Westergren                       Precinct 2                                             01 
01070020003000088DEM       Justice, Supreme Court, Place 3                         Mike Westergren                       Precinct 3                                             01 
01070020004000058DEM       Justice, Supreme Court, Place 3                         Mike Westergren                       Precinct 4                                             01 
01070030001000014LIB       Justice, Supreme Court, Place 3                         Kathie Glass                          Precinct 1                                             01 
01070030002000004LIB       Justice, Supreme Court, Place 3                         Kathie Glass                          Precinct 2                                             01 
01070030003000009LIB       Justice, Supreme Court, Place 3                         Kathie Glass                          Precinct 3                                             01 
01070030004000007LIB       Justice, Supreme Court, Place 3                         Kathie Glass                          Precinct 4                                             01 
01070040001000012GRN       Justice, Supreme Court, Place 3                         Rodolfo Rivera Munoz                  Precinct 1                                             01 
01070040002000011GRN       Justice, Supreme Court, Place 3                         Rodolfo Rivera Munoz                  Precinct 2                                             01 
01070040003000021GRN       Justice, Supreme Court, Place 3                         Rodolfo Rivera Munoz                  Precinct 3                                             01 
01070040004000007GRN       Justice, Supreme Court, Place 3                         Rodolfo Rivera Munoz                  Precinct 4                                             01 
01070050001000000          Justice, Supreme Court, Place 3                         OVER VOTES                            Precinct 1                                             01 
01070050002000000          Justice, Supreme Court, Place 3                         OVER VOTES                            Precinct 2                                             01 
01070050003000000          Justice, Supreme Court, Place 3                         OVER VOTES                            Precinct 3                                             01 
01070050004000000          Justice, Supreme Court, Place 3                         OVER VOTES                            Precinct 4                                             01 
01070060001000019          Justice, Supreme Court, Place 3                         UNDER VOTES                           Precinct 1                                             01 
01070060002000016          Justice, Supreme Court, Place 3                         UNDER VOTES                           Precinct 2                                             01 
01070060003000006          Justice, Supreme Court, Place 3                         UNDER VOTES                           Precinct 3                                             01 
01070060004000015          Justice, Supreme Court, Place 3                         UNDER VOTES                           Precinct 4                                             01 
01080010001000352REP       Justice, Supreme Court, Place 5                         Paul Green                            Precinct 1                                             01 
01080010002000275REP       Justice, Supreme Court, Place 5                         Paul Green                            Precinct 2                                             01 
01080010003000179REP       Justice, Supreme Court, Place 5                         Paul Green                            Precinct 3                                             01 
01080010004000201REP       Justice, Supreme Court, Place 5                         Paul Green                            Precinct 4                                             01 
01080020001000059DEM       Justice, Supreme Court, Place 5                         Dori Contreras Garza                  Precinct 1                                             01 
01080020002000068DEM       Justice, Supreme Court, Place 5                         Dori Contreras Garza                  Precinct 2                                             01 
01080020003000104DEM       Justice, Supreme Court, Place 5                         Dori Contreras Garza                  Precinct 3                                             01 
01080020004000065DEM       Justice, Supreme Court, Place 5                         Dori Contreras Garza                  Precinct 4                                             01 
01080030001000007LIB       Justice, Supreme Court, Place 5                         Tom Oxford                            Precinct 1                                             01 
01080030002000008LIB       Justice, Supreme Court, Place 5                         Tom Oxford                            Precinct 2                                             01 
01080030003000004LIB       Justice, Supreme Court, Place 5                         Tom Oxford                            Precinct 3                                             01 
01080030004000003LIB       Justice, Supreme Court, Place 5                         Tom Oxford                            Precinct 4                                             01 
01080040001000001GRN       Justice, Supreme Court, Place 5                         Charles E. Waterbury                  Precinct 1                                             01 
01080040002000003GRN       Justice, Supreme Court, Place 5                         Charles E. Waterbury                  Precinct 2                                             01 
01080040003000002GRN       Justice, Supreme Court, Place 5                         Charles E. Waterbury                  Precinct 3                                             01 
01080040004000001GRN       Justice, Supreme Court, Place 5                         Charles E. Waterbury                  Precinct 4                                             01 
01080050001000000          Justice, Supreme Court, Place 5                         OVER VOTES                            Precinct 1                                             01 
01080050002000000          Justice, Supreme Court, Place 5                         OVER VOTES                            Precinct 2                                             01 
01080050003000000          Justice, Supreme Court, Place 5                         OVER VOTES                            Precinct 3                                             01 
01080050004000000          Justice, Supreme Court, Place 5                         OVER VOTES                            Precinct 4                                             01 
01080060001000017          Justice, Supreme Court, Place 5                         UNDER VOTES                           Precinct 1                                             01 
01080060002000015          Justice, Supreme Court, Place 5                         UNDER VOTES                           Precinct 2                                             01 
01080060003000010          Justice, Supreme Court, Place 5                         UNDER VOTES                           Precinct 3                                             01 
01080060004000019          Justice, Supreme Court, Place 5                         UNDER VOTES                           Precinct 4                                             01 
01090010001000343REP       Justice, Supreme Court, Place 9                         Eva Guzman                            Precinct 1                                             01 
01090010002000278REP       Justice, Supreme Court, Place 9                         Eva Guzman                            Precinct 2                                             01 
01090010003000195REP       Justice, Supreme Court, Place 9                         Eva Guzman                            Precinct 3                                             01 
01090010004000192REP       Justice, Supreme Court, Place 9                         Eva Guzman                            Precinct 4                                             01 
01090020001000057DEM       Justice, Supreme Court, Place 9                         Savannah Robinson                     Precinct 1                                             01 
01090020002000066DEM       Justice, Supreme Court, Place 9                         Savannah Robinson                     Precinct 2                                             01 
01090020003000089DEM       Justice, Supreme Court, Place 9                         Savannah Robinson                     Precinct 3                                             01 
01090020004000061DEM       Justice, Supreme Court, Place 9                         Savannah Robinson                     Precinct 4                                             01 
01090030001000007LIB       Justice, Supreme Court, Place 9                         Don Fulton                            Precinct 1                                             01 
01090030002000004LIB       Justice, Supreme Court, Place 9                         Don Fulton                            Precinct 2                                             01 
01090030003000005LIB       Justice, Supreme Court, Place 9                         Don Fulton                            Precinct 3                                             01 
01090030004000012LIB       Justice, Supreme Court, Place 9                         Don Fulton                            Precinct 4                                             01 
01090040001000005GRN       Justice, Supreme Court, Place 9                         Jim Chisholm                          Precinct 1                                             01 
01090040002000004GRN       Justice, Supreme Court, Place 9                         Jim Chisholm                          Precinct 2                                             01 
01090040003000002GRN       Justice, Supreme Court, Place 9                         Jim Chisholm                          Precinct 3                                             01 
01090040004000000GRN       Justice, Supreme Court, Place 9                         Jim Chisholm                          Precinct 4                                             01 
01090050001000000          Justice, Supreme Court, Place 9                         OVER VOTES                            Precinct 1                                             01 
01090050002000000          Justice, Supreme Court, Place 9                         OVER VOTES                            Precinct 2                                             01 
01090050003000000          Justice, Supreme Court, Place 9                         OVER VOTES                            Precinct 3                                             01 
01090050004000000          Justice, Supreme Court, Place 9                         OVER VOTES                            Precinct 4                                             01 
01090060001000024          Justice, Supreme Court, Place 9                         UNDER VOTES                           Precinct 1                                             01 
01090060002000017          Justice, Supreme Court, Place 9                         UNDER VOTES                           Precinct 2                                             01 
01090060003000008          Justice, Supreme Court, Place 9                         UNDER VOTES                           Precinct 3                                             01 
01090060004000024          Justice, Supreme Court, Place 9                         UNDER VOTES                           Precinct 4                                             01 
01100010001000338REP       Judge, Court of Criminal Appeals, Pl 2                  Mary Lou Keel                         Precinct 1                                             01 
01100010002000276REP       Judge, Court of Criminal Appeals, Pl 2                  Mary Lou Keel                         Precinct 2                                             01 
01100010003000184REP       Judge, Court of Criminal Appeals, Pl 2                  Mary Lou Keel                         Precinct 3                                             01 
01100010004000200REP       Judge, Court of Criminal Appeals, Pl 2                  Mary Lou Keel                         Precinct 4                                             01 
01100020001000063DEM       Judge, Court of Criminal Appeals, Pl 2                  Lawrence "Larry" Meyers               Precinct 1                                             01 
01100020002000064DEM       Judge, Court of Criminal Appeals, Pl 2                  Lawrence "Larry" Meyers               Precinct 2                                             01 
01100020003000090DEM       Judge, Court of Criminal Appeals, Pl 2                  Lawrence "Larry" Meyers               Precinct 3                                             01 
01100020004000059DEM       Judge, Court of Criminal Appeals, Pl 2                  Lawrence "Larry" Meyers               Precinct 4                                             01 
01100030001000009LIB       Judge, Court of Criminal Appeals, Pl 2                  Mark Ash                              Precinct 1                                             01 
01100030002000008LIB       Judge, Court of Criminal Appeals, Pl 2                  Mark Ash                              Precinct 2                                             01 
01100030003000011LIB       Judge, Court of Criminal Appeals, Pl 2                  Mark Ash                              Precinct 3                                             01 
01100030004000006LIB       Judge, Court of Criminal Appeals, Pl 2                  Mark Ash                              Precinct 4                                             01 
01100040001000003GRN       Judge, Court of Criminal Appeals, Pl 2                  Adam King Blackwell Reposa            Precinct 1                                             01 
01100040002000006GRN       Judge, Court of Criminal Appeals, Pl 2                  Adam King Blackwell Reposa            Precinct 2                                             01 
01100040003000004GRN       Judge, Court of Criminal Appeals, Pl 2                  Adam King Blackwell Reposa            Precinct 3                                             01 
01100040004000003GRN       Judge, Court of Criminal Appeals, Pl 2                  Adam King Blackwell Reposa            Precinct 4                                             01 
01100050001000000          Judge, Court of Criminal Appeals, Pl 2                  OVER VOTES                            Precinct 1                                             01 
01100050002000000          Judge, Court of Criminal Appeals, Pl 2                  OVER VOTES                            Precinct 2                                             01 
01100050003000000          Judge, Court of Criminal Appeals, Pl 2                  OVER VOTES                            Precinct 3                                             01 
01100050004000000          Judge, Court of Criminal Appeals, Pl 2                  OVER VOTES                            Precinct 4                                             01 
01100060001000023          Judge, Court of Criminal Appeals, Pl 2                  UNDER VOTES                           Precinct 1                                             01 
01100060002000015          Judge, Court of Criminal Appeals, Pl 2                  UNDER VOTES                           Precinct 2                                             01 
01100060003000010          Judge, Court of Criminal Appeals, Pl 2                  UNDER VOTES                           Precinct 3                                             01 
01100060004000021          Judge, Court of Criminal Appeals, Pl 2                  UNDER VOTES                           Precinct 4                                             01 
01110010001000347REP       Judge, Court of Criminal Appeals, Pl 5                  Scott Walker                          Precinct 1                                             01 
01110010002000278REP       Judge, Court of Criminal Appeals, Pl 5                  Scott Walker                          Precinct 2                                             01 
01110010003000183REP       Judge, Court of Criminal Appeals, Pl 5                  Scott Walker                          Precinct 3                                             01 
01110010004000204REP       Judge, Court of Criminal Appeals, Pl 5                  Scott Walker                          Precinct 4                                             01 
01110020001000062DEM       Judge, Court of Criminal Appeals, Pl 5                  Betsy Johnson                         Precinct 1                                             01 
01110020002000063DEM       Judge, Court of Criminal Appeals, Pl 5                  Betsy Johnson                         Precinct 2                                             01 
01110020003000093DEM       Judge, Court of Criminal Appeals, Pl 5                  Betsy Johnson                         Precinct 3                                             01 
01110020004000057DEM       Judge, Court of Criminal Appeals, Pl 5                  Betsy Johnson                         Precinct 4                                             01 
01110030001000003LIB       Judge, Court of Criminal Appeals, Pl 5                  William Bryan Strange, III            Precinct 1                                             01 
01110030002000001LIB       Judge, Court of Criminal Appeals, Pl 5                  William Bryan Strange, III            Precinct 2                                             01 
01110030003000005LIB       Judge, Court of Criminal Appeals, Pl 5                  William Bryan Strange, III            Precinct 3                                             01 
01110030004000006LIB       Judge, Court of Criminal Appeals, Pl 5                  William Bryan Strange, III            Precinct 4                                             01 
01110040001000005GRN       Judge, Court of Criminal Appeals, Pl 5                  Judith Sanders-Castro                 Precinct 1                                             01 
01110040002000009GRN       Judge, Court of Criminal Appeals, Pl 5                  Judith Sanders-Castro                 Precinct 2                                             01 
01110040003000008GRN       Judge, Court of Criminal Appeals, Pl 5                  Judith Sanders-Castro                 Precinct 3                                             01 
01110040004000004GRN       Judge, Court of Criminal Appeals, Pl 5                  Judith Sanders-Castro                 Precinct 4                                             01 
01110050001000000          Judge, Court of Criminal Appeals, Pl 5                  OVER VOTES                            Precinct 1                                             01 
01110050002000000          Judge, Court of Criminal Appeals, Pl 5                  OVER VOTES                            Precinct 2                                             01 
01110050003000000          Judge, Court of Criminal Appeals, Pl 5                  OVER VOTES                            Precinct 3                                             01 
01110050004000000          Judge, Court of Criminal Appeals, Pl 5                  OVER VOTES                            Precinct 4                                             01 
01110060001000019          Judge, Court of Criminal Appeals, Pl 5                  UNDER VOTES                           Precinct 1                                             01 
01110060002000018          Judge, Court of Criminal Appeals, Pl 5                  UNDER VOTES                           Precinct 2                                             01 
01110060003000010          Judge, Court of Criminal Appeals, Pl 5                  UNDER VOTES                           Precinct 3                                             01 
01110060004000018          Judge, Court of Criminal Appeals, Pl 5                  UNDER VOTES                           Precinct 4                                             01 
01120010001000342REP       Judge, Court of Criminal Appeals, Pl 6                  Michael E. Keasler                    Precinct 1                                             01 
01120010002000280REP       Judge, Court of Criminal Appeals, Pl 6                  Michael E. Keasler                    Precinct 2                                             01 
01120010003000182REP       Judge, Court of Criminal Appeals, Pl 6                  Michael E. Keasler                    Precinct 3                                             01 
01120010004000204REP       Judge, Court of Criminal Appeals, Pl 6                  Michael E. Keasler                    Precinct 4                                             01 
01120020001000062DEM       Judge, Court of Criminal Appeals, Pl 6                  Robert Burns                          Precinct 1                                             01 
01120020002000062DEM       Judge, Court of Criminal Appeals, Pl 6                  Robert Burns                          Precinct 2                                             01 
01120020003000099DEM       Judge, Court of Criminal Appeals, Pl 6                  Robert Burns                          Precinct 3                                             01 
01120020004000054DEM       Judge, Court of Criminal Appeals, Pl 6                  Robert Burns                          Precinct 4                                             01 
01120030001000010LIB       Judge, Court of Criminal Appeals, Pl 6                  Mark W. Bennett                       Precinct 1                                             01 
01120030002000006LIB       Judge, Court of Criminal Appeals, Pl 6                  Mark W. Bennett                       Precinct 2                                             01 
01120030003000008LIB       Judge, Court of Criminal Appeals, Pl 6                  Mark W. Bennett                       Precinct 3                                             01 
01120030004000010LIB       Judge, Court of Criminal Appeals, Pl 6                  Mark W. Bennett                       Precinct 4                                             01 
01120040001000000          Judge, Court of Criminal Appeals, Pl 6                  OVER VOTES                            Precinct 1                                             01 
01120040002000000          Judge, Court of Criminal Appeals, Pl 6                  OVER VOTES                            Precinct 2                                             01 
01120040003000000          Judge, Court of Criminal Appeals, Pl 6                  OVER VOTES                            Precinct 3                                             01 
01120040004000000          Judge, Court of Criminal Appeals, Pl 6                  OVER VOTES                            Precinct 4                                             01 
01120050001000022          Judge, Court of Criminal Appeals, Pl 6                  UNDER VOTES                           Precinct 1                                             01 
01120050002000021          Judge, Court of Criminal Appeals, Pl 6                  UNDER VOTES                           Precinct 2                                             01 
01120050003000010          Judge, Court of Criminal Appeals, Pl 6                  UNDER VOTES                           Precinct 3                                             01 
01120050004000021          Judge, Court of Criminal Appeals, Pl 6                  UNDER VOTES                           Precinct 4                                             01 
01130010001000143DEM       Member, State Board of Education, Dist1                 Georgina Perez                        Precinct 1                                             01 
01130010002000126DEM       Member, State Board of Education, Dist1                 Georgina Perez                        Precinct 2                                             01 
01130010003000130DEM       Member, State Board of Education, Dist1                 Georgina Perez                        Precinct 3                                             01 
01130010004000099DEM       Member, State Board of Education, Dist1                 Georgina Perez                        Precinct 4                                             01 
01130020001000082GRN       Member, State Board of Education, Dist1                 Hugo Noyola Jr.                       Precinct 1                                             01 
01130020002000042GRN       Member, State Board of Education, Dist1                 Hugo Noyola Jr.                       Precinct 2                                             01 
01130020003000035GRN       Member, State Board of Education, Dist1                 Hugo Noyola Jr.                       Precinct 3                                             01 
01130020004000054GRN       Member, State Board of Education, Dist1                 Hugo Noyola Jr.                       Precinct 4                                             01 
01130030001000000          Member, State Board of Education, Dist1                 OVER VOTES                            Precinct 1                                             01 
01130030002000000          Member, State Board of Education, Dist1                 OVER VOTES                            Precinct 2                                             01 
01130030003000000          Member, State Board of Education, Dist1                 OVER VOTES                            Precinct 3                                             01 
01130030004000000          Member, State Board of Education, Dist1                 OVER VOTES                            Precinct 4                                             01 
01130040001000211          Member, State Board of Education, Dist1                 UNDER VOTES                           Precinct 1                                             01 
01130040002000201          Member, State Board of Education, Dist1                 UNDER VOTES                           Precinct 2                                             01 
01130040003000134          Member, State Board of Education, Dist1                 UNDER VOTES                           Precinct 3                                             01 
01130040004000136          Member, State Board of Education, Dist1                 UNDER VOTES                           Precinct 4                                             01 
01140010001000382REP       State Senator, District 28                              Charles Perry                         Precinct 1                                             01 
01140010002000304REP       State Senator, District 28                              Charles Perry                         Precinct 2                                             01 
01140010003000208REP       State Senator, District 28                              Charles Perry                         Precinct 3                                             01 
01140010004000216REP       State Senator, District 28                              Charles Perry                         Precinct 4                                             01 
01140020001000000          State Senator, District 28                              OVER VOTES                            Precinct 1                                             01 
01140020002000000          State Senator, District 28                              OVER VOTES                            Precinct 2                                             01 
01140020003000000          State Senator, District 28                              OVER VOTES                            Precinct 3                                             01 
01140020004000000          State Senator, District 28                              OVER VOTES                            Precinct 4                                             01 
01140030001000054          State Senator, District 28                              UNDER VOTES                           Precinct 1                                             01 
01140030002000065          State Senator, District 28                              UNDER VOTES                           Precinct 2                                             01 
01140030003000091          State Senator, District 28                              UNDER VOTES                           Precinct 3                                             01 
01140030004000073          State Senator, District 28                              UNDER VOTES                           Precinct 4                                             01 
01150010001000389REP       State Representative, District 82                       Tom Craddick                          Precinct 1                                             01 
01150010002000308REP       State Representative, District 82                       Tom Craddick                          Precinct 2                                             01 
01150010003000212REP       State Representative, District 82                       Tom Craddick                          Precinct 3                                             01 
01150010004000223REP       State Representative, District 82                       Tom Craddick                          Precinct 4                                             01 
01150020001000000          State Representative, District 82                       OVER VOTES                            Precinct 1                                             01 
01150020002000000          State Representative, District 82                       OVER VOTES                            Precinct 2                                             01 
01150020003000000          State Representative, District 82                       OVER VOTES                            Precinct 3                                             01 
01150020004000000          State Representative, District 82                       OVER VOTES                            Precinct 4                                             01 
01150030001000047          State Representative, District 82                       UNDER VOTES                           Precinct 1                                             01 
01150030002000061          State Representative, District 82                       UNDER VOTES                           Precinct 2                                             01 
01150030003000087          State Representative, District 82                       UNDER VOTES                           Precinct 3                                             01 
01150030004000066          State Representative, District 82                       UNDER VOTES                           Precinct 4                                             01 
01160010001000159DEM       Justice, 8th CT of Ap Dist, P3-Unex Term                Gina M. Palafox                       Precinct 1                                             01 
01160010002000127DEM       Justice, 8th CT of Ap Dist, P3-Unex Term                Gina M. Palafox                       Precinct 2                                             01 
01160010003000135DEM       Justice, 8th CT of Ap Dist, P3-Unex Term                Gina M. Palafox                       Precinct 3                                             01 
01160010004000106DEM       Justice, 8th CT of Ap Dist, P3-Unex Term                Gina M. Palafox                       Precinct 4                                             01 
01160020001000000          Justice, 8th CT of Ap Dist, P3-Unex Term                OVER VOTES                            Precinct 1                                             01 
01160020002000000          Justice, 8th CT of Ap Dist, P3-Unex Term                OVER VOTES                            Precinct 2                                             01 
01160020003000000          Justice, 8th CT of Ap Dist, P3-Unex Term                OVER VOTES                            Precinct 3                                             01 
01160020004000000          Justice, 8th CT of Ap Dist, P3-Unex Term                OVER VOTES                            Precinct 4                                             01 
01160030001000277          Justice, 8th CT of Ap Dist, P3-Unex Term                UNDER VOTES                           Precinct 1                                             01 
01160030002000242          Justice, 8th CT of Ap Dist, P3-Unex Term                UNDER VOTES                           Precinct 2                                             01 
01160030003000164          Justice, 8th CT of Ap Dist, P3-Unex Term                UNDER VOTES                           Precinct 3                                             01 
01160030004000183          Justice, 8th CT of Ap Dist, P3-Unex Term                UNDER VOTES                           Precinct 4                                             01 
01170010001000366REP       District Attorney, 109th Judicial DIST                  Amanda Navarette                      Precinct 1                                             01 
01170010002000290REP       District Attorney, 109th Judicial DIST                  Amanda Navarette                      Precinct 2                                             01 
01170010003000212REP       District Attorney, 109th Judicial DIST                  Amanda Navarette                      Precinct 3                                             01 
01170010004000207REP       District Attorney, 109th Judicial DIST                  Amanda Navarette                      Precinct 4                                             01 
01170020001000000          District Attorney, 109th Judicial DIST                  OVER VOTES                            Precinct 1                                             01 
01170020002000000          District Attorney, 109th Judicial DIST                  OVER VOTES                            Precinct 2                                             01 
01170020003000000          District Attorney, 109th Judicial DIST                  OVER VOTES                            Precinct 3                                             01 
01170020004000000          District Attorney, 109th Judicial DIST                  OVER VOTES                            Precinct 4                                             01 
01170030001000070          District Attorney, 109th Judicial DIST                  UNDER VOTES                           Precinct 1                                             01 
01170030002000079          District Attorney, 109th Judicial DIST                  UNDER VOTES                           Precinct 2                                             01 
01170030003000087          District Attorney, 109th Judicial DIST                  UNDER VOTES                           Precinct 3                                             01 
01170030004000082          District Attorney, 109th Judicial DIST                  UNDER VOTES                           Precinct 4                                             01 
01180010001000370REP       County Attorney                                         Susan Loyless                         Precinct 1                                             01 
01180010002000299REP       County Attorney                                         Susan Loyless                         Precinct 2                                             01 
01180010003000222REP       County Attorney                                         Susan Loyless                         Precinct 3                                             01 
01180010004000220REP       County Attorney                                         Susan Loyless                         Precinct 4                                             01 
01180020001000000          County Attorney                                         OVER VOTES                            Precinct 1                                             01 
01180020002000000          County Attorney                                         OVER VOTES                            Precinct 2                                             01 
01180020003000000          County Attorney                                         OVER VOTES                            Precinct 3                                             01 
01180020004000000          County Attorney                                         OVER VOTES                            Precinct 4                                             01 
01180030001000066          County Attorney                                         UNDER VOTES                           Precinct 1                                             01 
01180030002000070          County Attorney                                         UNDER VOTES                           Precinct 2                                             01 
01180030003000077          County Attorney                                         UNDER VOTES                           Precinct 3                                             01 
01180030004000069          County Attorney                                         UNDER VOTES                           Precinct 4                                             01 
01190010001000397REP       Sheriff                                                 Andrew "Andy" R. Aguilar              Precinct 1                                             01 
01190010002000310REP       Sheriff                                                 Andrew "Andy" R. Aguilar              Precinct 2                                             01 
01190010003000239REP       Sheriff                                                 Andrew "Andy" R. Aguilar              Precinct 3                                             01 
01190010004000242REP       Sheriff                                                 Andrew "Andy" R. Aguilar              Precinct 4                                             01 
01190020001000000          Sheriff                                                 OVER VOTES                            Precinct 1                                             01 
01190020002000000          Sheriff                                                 OVER VOTES                            Precinct 2                                             01 
01190020003000000          Sheriff                                                 OVER VOTES                            Precinct 3                                             01 
01190020004000000          Sheriff                                                 OVER VOTES                            Precinct 4                                             01 
01190030001000039          Sheriff                                                 UNDER VOTES                           Precinct 1                                             01 
01190030002000059          Sheriff                                                 UNDER VOTES                           Precinct 2                                             01 
01190030003000060          Sheriff                                                 UNDER VOTES                           Precinct 3                                             01 
01190030004000047          Sheriff                                                 UNDER VOTES                           Precinct 4                                             01 
01200010001000389REP       Tax Assessor-Collector                                  Judy Crumrine                         Precinct 1                                             01 
01200010002000314REP       Tax Assessor-Collector                                  Judy Crumrine                         Precinct 2                                             01 
01200010003000233REP       Tax Assessor-Collector                                  Judy Crumrine                         Precinct 3                                             01 
01200010004000236REP       Tax Assessor-Collector                                  Judy Crumrine                         Precinct 4                                             01 
01200020001000000          Tax Assessor-Collector                                  OVER VOTES                            Precinct 1                                             01 
01200020002000000          Tax Assessor-Collector                                  OVER VOTES                            Precinct 2                                             01 
01200020003000000          Tax Assessor-Collector                                  OVER VOTES                            Precinct 3                                             01 
01200020004000000          Tax Assessor-Collector                                  OVER VOTES                            Precinct 4                                             01 
01200030001000047          Tax Assessor-Collector                                  UNDER VOTES                           Precinct 1                                             01 
01200030002000055          Tax Assessor-Collector                                  UNDER VOTES                           Precinct 2                                             01 
01200030003000066          Tax Assessor-Collector                                  UNDER VOTES                           Precinct 3                                             01 
01200030004000053          Tax Assessor-Collector                                  UNDER VOTES                           Precinct 4                                             01 
01210010001000372REPCOMM001County Commissioner, PCT 1                              Tom Brown                             Precinct 1                                             01 
01210020001000000   COMM001County Commissioner, PCT 1                              OVER VOTES                            Precinct 1                                             01 
01210030001000064   COMM001County Commissioner, PCT 1                              UNDER VOTES                           Precinct 1                                             01 
01220010003000237REPCOMM3  County Commissioner, PCT 3                              Domingo Escobedo                      Precinct 3                                             01 
01220020003000000   COMM3  County Commissioner, PCT 3                              OVER VOTES                            Precinct 3                                             01 
01220030003000062   COMM3  County Commissioner, PCT 3                              UNDER VOTES                           Precinct 3                                             01 
01230010001000390REP       Constable                                               Rory Crumrine                         Precinct 1                                             01 
01230010002000312REP       Constable                                               Rory Crumrine                         Precinct 2                                             01 
01230010003000228REP       Constable                                               Rory Crumrine                         Precinct 3                                             01 
01230010004000230REP       Constable                                               Rory Crumrine                         Precinct 4                                             01 
01230020001000000          Constable                                               OVER VOTES                            Precinct 1                                             01 
01230020002000000          Constable                                               OVER VOTES                            Precinct 2                                             01 
01230020003000000          Constable                                               OVER VOTES                            Precinct 3                                             01 
01230020004000000          Constable                                               OVER VOTES                            Precinct 4                                             01 
01230030001000046          Constable                                               UNDER VOTES                           Precinct 1                                             01 
01230030002000057          Constable                                               UNDER VOTES                           Precinct 2                                             01 
01230030003000071          Constable                                               UNDER VOTES                           Precinct 3                                             01 
01230030004000059          Constable                                               UNDER VOTES                           Precinct 4                                             01 
