01010010001000882000000000000000000000000000000          REGISTERED VOTERS - TOTAL                               REGISTERED VOTERS - TOTAL             1 East La Grange                                       00 
01010010002002142000000000000000000000000000000          REGISTERED VOTERS - TOTAL                               REGISTERED VOTERS - TOTAL             1 North La Grange                                      00 
01010010003000723000000000000000000000000000000          REGISTERED VOTERS - TOTAL                               REGISTERED VOTERS - TOTAL             1 West La Grange                                       00 
01010010004000167000000000000000000000000000000          REGISTERED VOTERS - TOTAL                               REGISTERED VOTERS - TOTAL             2 Rutersville                                          00 
01010010005000404000000000000000000000000000000          REGISTERED VOTERS - TOTAL                               REGISTERED VOTERS - TOTAL             3 Ellinger                                             00 
01010010006000736000000000000000000000000000000          REGISTERED VOTERS - TOTAL                               REGISTERED VOTERS - TOTAL             4 Fayetteville                                         00 
01010010007000231000000000000000000000000000000          REGISTERED VOTERS - TOTAL                               REGISTERED VOTERS - TOTAL             5 Willow Springs                                       00 
01010010008000447000000000000000000000000000000          REGISTERED VOTERS - TOTAL                               REGISTERED VOTERS - TOTAL             6 Warrenton                                            00 
01010010009000535000000000000000000000000000000          REGISTERED VOTERS - TOTAL                               REGISTERED VOTERS - TOTAL             7 Round Top                                            00 
01010010010000385000000000000000000000000000000          REGISTERED VOTERS - TOTAL                               REGISTERED VOTERS - TOTAL             8 Carmine                                              00 
01010010011000250000000000000000000000000000000          REGISTERED VOTERS - TOTAL                               REGISTERED VOTERS - TOTAL             9 Nechanitz                                            00 
01010010012000541000000000000000000000000000000          REGISTERED VOTERS - TOTAL                               REGISTERED VOTERS - TOTAL             10 Warda                                               00 
01010010013000416000000000000000000000000000000          REGISTERED VOTERS - TOTAL                               REGISTERED VOTERS - TOTAL             11 Winchester                                          00 
01010010014000410000000000000000000000000000000          REGISTERED VOTERS - TOTAL                               REGISTERED VOTERS - TOTAL             12 Plum                                                00 
01010010015000651000000000000000000000000000000          REGISTERED VOTERS - TOTAL                               REGISTERED VOTERS - TOTAL             13 West Point                                          00 
01010010016000204000000000000000000000000000000          REGISTERED VOTERS - TOTAL                               REGISTERED VOTERS - TOTAL             14 Muldoon                                             00 
01010010017000323000000000000000000000000000000          REGISTERED VOTERS - TOTAL                               REGISTERED VOTERS - TOTAL             15 Cistern                                             00 
01010010018001466000000000000000000000000000000          REGISTERED VOTERS - TOTAL                               REGISTERED VOTERS - TOTAL             16 Flatonia                                            00 
01010010019000406000000000000000000000000000000          REGISTERED VOTERS - TOTAL                               REGISTERED VOTERS - TOTAL             17 Praha                                               00 
01010010020000701000000000000000000000000000000          REGISTERED VOTERS - TOTAL                               REGISTERED VOTERS - TOTAL             20 Hostyn                                              00 
01010010021000227000000000000000000000000000000          REGISTERED VOTERS - TOTAL                               REGISTERED VOTERS - TOTAL             21 Swiss Alp                                           00 
01010010022000164000000000000000000000000000000          REGISTERED VOTERS - TOTAL                               REGISTERED VOTERS - TOTAL             22 Ammannsville                                        00 
01010010023000222000000000000000000000000000000          REGISTERED VOTERS - TOTAL                               REGISTERED VOTERS - TOTAL             23 Holman                                              00 
01010010024000231000000000000000000000000000000          REGISTERED VOTERS - TOTAL                               REGISTERED VOTERS - TOTAL             24 Dubina                                              00 
01010010025002524000000000000000000000000000000          REGISTERED VOTERS - TOTAL                               REGISTERED VOTERS - TOTAL             25 Schulenburg                                         00 
01010010026000523000000000000000000000000000000          REGISTERED VOTERS - TOTAL                               REGISTERED VOTERS - TOTAL             26 Mullins Prairie                                     00 
01020010001000406000259000147000000000000000000          BALLOTS CAST - TOTAL                                    BALLOTS CAST - TOTAL                  1 East La Grange                                       00 
01020010002000875000506000369000000000000000000          BALLOTS CAST - TOTAL                                    BALLOTS CAST - TOTAL                  1 North La Grange                                      00 
01020010003000365000195000170000000000000000000          BALLOTS CAST - TOTAL                                    BALLOTS CAST - TOTAL                  1 West La Grange                                       00 
01020010004000088000058000030000000000000000000          BALLOTS CAST - TOTAL                                    BALLOTS CAST - TOTAL                  2 Rutersville                                          00 
01020010005000172000124000048000000000000000000          BALLOTS CAST - TOTAL                                    BALLOTS CAST - TOTAL                  3 Ellinger                                             00 
01020010006000330000252000078000000000000000000          BALLOTS CAST - TOTAL                                    BALLOTS CAST - TOTAL                  4 Fayetteville                                         00 
01020010007000142000116000026000000000000000000          BALLOTS CAST - TOTAL                                    BALLOTS CAST - TOTAL                  5 Willow Springs                                       00 
01020010008000219000169000050000000000000000000          BALLOTS CAST - TOTAL                                    BALLOTS CAST - TOTAL                  6 Warrenton                                            00 
01020010009000277000220000057000000000000000000          BALLOTS CAST - TOTAL                                    BALLOTS CAST - TOTAL                  7 Round Top                                            00 
01020010010000171000151000020000000000000000000          BALLOTS CAST - TOTAL                                    BALLOTS CAST - TOTAL                  8 Carmine                                              00 
01020010011000119000089000030000000000000000000          BALLOTS CAST - TOTAL                                    BALLOTS CAST - TOTAL                  9 Nechanitz                                            00 
01020010012000259000171000088000000000000000000          BALLOTS CAST - TOTAL                                    BALLOTS CAST - TOTAL                  10 Warda                                               00 
01020010013000209000168000041000000000000000000          BALLOTS CAST - TOTAL                                    BALLOTS CAST - TOTAL                  11 Winchester                                          00 
01020010014000178000109000069000000000000000000          BALLOTS CAST - TOTAL                                    BALLOTS CAST - TOTAL                  12 Plum                                                00 
01020010015000228000132000096000000000000000000          BALLOTS CAST - TOTAL                                    BALLOTS CAST - TOTAL                  13 West Point                                          00 
01020010016000124000084000040000000000000000000          BALLOTS CAST - TOTAL                                    BALLOTS CAST - TOTAL                  14 Muldoon                                             00 
01020010017000149000108000041000000000000000000          BALLOTS CAST - TOTAL                                    BALLOTS CAST - TOTAL                  15 Cistern                                             00 
01020010018000649000549000100000000000000000000          BALLOTS CAST - TOTAL                                    BALLOTS CAST - TOTAL                  16 Flatonia                                            00 
01020010019000229000195000034000000000000000000          BALLOTS CAST - TOTAL                                    BALLOTS CAST - TOTAL                  17 Praha                                               00 
01020010020000402000216000186000000000000000000          BALLOTS CAST - TOTAL                                    BALLOTS CAST - TOTAL                  20 Hostyn                                              00 
01020010021000131000088000043000000000000000000          BALLOTS CAST - TOTAL                                    BALLOTS CAST - TOTAL                  21 Swiss Alp                                           00 
01020010022000091000070000021000000000000000000          BALLOTS CAST - TOTAL                                    BALLOTS CAST - TOTAL                  22 Ammannsville                                        00 
01020010023000123000102000021000000000000000000          BALLOTS CAST - TOTAL                                    BALLOTS CAST - TOTAL                  23 Holman                                              00 
01020010024000135000118000017000000000000000000          BALLOTS CAST - TOTAL                                    BALLOTS CAST - TOTAL                  24 Dubina                                              00 
01020010025000931000781000150000000000000000000          BALLOTS CAST - TOTAL                                    BALLOTS CAST - TOTAL                  25 Schulenburg                                         00 
01020010026000271000126000145000000000000000000          BALLOTS CAST - TOTAL                                    BALLOTS CAST - TOTAL                  26 Mullins Prairie                                     00 
01030010001000372000231000141000000000000000000REP       BALLOTS CAST - REPUBLICAN PARTY                         BALLOTS CAST - REPUBLICAN PARTY       1 East La Grange                                       00 
01030010002000707000402000305000000000000000000REP       BALLOTS CAST - REPUBLICAN PARTY                         BALLOTS CAST - REPUBLICAN PARTY       1 North La Grange                                      00 
01030010003000311000161000150000000000000000000REP       BALLOTS CAST - REPUBLICAN PARTY                         BALLOTS CAST - REPUBLICAN PARTY       1 West La Grange                                       00 
01030010004000080000050000030000000000000000000REP       BALLOTS CAST - REPUBLICAN PARTY                         BALLOTS CAST - REPUBLICAN PARTY       2 Rutersville                                          00 
01030010005000154000108000046000000000000000000REP       BALLOTS CAST - REPUBLICAN PARTY                         BALLOTS CAST - REPUBLICAN PARTY       3 Ellinger                                             00 
01030010006000289000228000061000000000000000000REP       BALLOTS CAST - REPUBLICAN PARTY                         BALLOTS CAST - REPUBLICAN PARTY       4 Fayetteville                                         00 
01030010007000110000087000023000000000000000000REP       BALLOTS CAST - REPUBLICAN PARTY                         BALLOTS CAST - REPUBLICAN PARTY       5 Willow Springs                                       00 
01030010008000190000147000043000000000000000000REP       BALLOTS CAST - REPUBLICAN PARTY                         BALLOTS CAST - REPUBLICAN PARTY       6 Warrenton                                            00 
01030010009000251000208000043000000000000000000REP       BALLOTS CAST - REPUBLICAN PARTY                         BALLOTS CAST - REPUBLICAN PARTY       7 Round Top                                            00 
01030010010000154000143000011000000000000000000REP       BALLOTS CAST - REPUBLICAN PARTY                         BALLOTS CAST - REPUBLICAN PARTY       8 Carmine                                              00 
01030010011000104000077000027000000000000000000REP       BALLOTS CAST - REPUBLICAN PARTY                         BALLOTS CAST - REPUBLICAN PARTY       9 Nechanitz                                            00 
01030010012000242000159000083000000000000000000REP       BALLOTS CAST - REPUBLICAN PARTY                         BALLOTS CAST - REPUBLICAN PARTY       10 Warda                                               00 
01030010013000181000143000038000000000000000000REP       BALLOTS CAST - REPUBLICAN PARTY                         BALLOTS CAST - REPUBLICAN PARTY       11 Winchester                                          00 
01030010014000143000086000057000000000000000000REP       BALLOTS CAST - REPUBLICAN PARTY                         BALLOTS CAST - REPUBLICAN PARTY       12 Plum                                                00 
01030010015000198000117000081000000000000000000REP       BALLOTS CAST - REPUBLICAN PARTY                         BALLOTS CAST - REPUBLICAN PARTY       13 West Point                                          00 
01030010016000120000082000038000000000000000000REP       BALLOTS CAST - REPUBLICAN PARTY                         BALLOTS CAST - REPUBLICAN PARTY       14 Muldoon                                             00 
01030010017000131000093000038000000000000000000REP       BALLOTS CAST - REPUBLICAN PARTY                         BALLOTS CAST - REPUBLICAN PARTY       15 Cistern                                             00 
01030010018000553000467000086000000000000000000REP       BALLOTS CAST - REPUBLICAN PARTY                         BALLOTS CAST - REPUBLICAN PARTY       16 Flatonia                                            00 
01030010019000211000180000031000000000000000000REP       BALLOTS CAST - REPUBLICAN PARTY                         BALLOTS CAST - REPUBLICAN PARTY       17 Praha                                               00 
01030010020000368000204000164000000000000000000REP       BALLOTS CAST - REPUBLICAN PARTY                         BALLOTS CAST - REPUBLICAN PARTY       20 Hostyn                                              00 
01030010021000119000081000038000000000000000000REP       BALLOTS CAST - REPUBLICAN PARTY                         BALLOTS CAST - REPUBLICAN PARTY       21 Swiss Alp                                           00 
01030010022000086000067000019000000000000000000REP       BALLOTS CAST - REPUBLICAN PARTY                         BALLOTS CAST - REPUBLICAN PARTY       22 Ammannsville                                        00 
01030010023000101000087000014000000000000000000REP       BALLOTS CAST - REPUBLICAN PARTY                         BALLOTS CAST - REPUBLICAN PARTY       23 Holman                                              00 
01030010024000120000105000015000000000000000000REP       BALLOTS CAST - REPUBLICAN PARTY                         BALLOTS CAST - REPUBLICAN PARTY       24 Dubina                                              00 
01030010025000808000685000123000000000000000000REP       BALLOTS CAST - REPUBLICAN PARTY                         BALLOTS CAST - REPUBLICAN PARTY       25 Schulenburg                                         00 
01030010026000235000106000129000000000000000000REP       BALLOTS CAST - REPUBLICAN PARTY                         BALLOTS CAST - REPUBLICAN PARTY       26 Mullins Prairie                                     00 
01040010001000034000028000006000000000000000000DEM       BALLOTS CAST - DEMOCRATIC PARTY                         BALLOTS CAST - DEMOCRATIC PARTY       1 East La Grange                                       00 
01040010002000168000104000064000000000000000000DEM       BALLOTS CAST - DEMOCRATIC PARTY                         BALLOTS CAST - DEMOCRATIC PARTY       1 North La Grange                                      00 
01040010003000054000034000020000000000000000000DEM       BALLOTS CAST - DEMOCRATIC PARTY                         BALLOTS CAST - DEMOCRATIC PARTY       1 West La Grange                                       00 
01040010004000008000008000000000000000000000000DEM       BALLOTS CAST - DEMOCRATIC PARTY                         BALLOTS CAST - DEMOCRATIC PARTY       2 Rutersville                                          00 
01040010005000018000016000002000000000000000000DEM       BALLOTS CAST - DEMOCRATIC PARTY                         BALLOTS CAST - DEMOCRATIC PARTY       3 Ellinger                                             00 
01040010006000041000024000017000000000000000000DEM       BALLOTS CAST - DEMOCRATIC PARTY                         BALLOTS CAST - DEMOCRATIC PARTY       4 Fayetteville                                         00 
01040010007000032000029000003000000000000000000DEM       BALLOTS CAST - DEMOCRATIC PARTY                         BALLOTS CAST - DEMOCRATIC PARTY       5 Willow Springs                                       00 
01040010008000029000022000007000000000000000000DEM       BALLOTS CAST - DEMOCRATIC PARTY                         BALLOTS CAST - DEMOCRATIC PARTY       6 Warrenton                                            00 
01040010009000026000012000014000000000000000000DEM       BALLOTS CAST - DEMOCRATIC PARTY                         BALLOTS CAST - DEMOCRATIC PARTY       7 Round Top                                            00 
01040010010000017000008000009000000000000000000DEM       BALLOTS CAST - DEMOCRATIC PARTY                         BALLOTS CAST - DEMOCRATIC PARTY       8 Carmine                                              00 
01040010011000015000012000003000000000000000000DEM       BALLOTS CAST - DEMOCRATIC PARTY                         BALLOTS CAST - DEMOCRATIC PARTY       9 Nechanitz                                            00 
01040010012000017000012000005000000000000000000DEM       BALLOTS CAST - DEMOCRATIC PARTY                         BALLOTS CAST - DEMOCRATIC PARTY       10 Warda                                               00 
01040010013000028000025000003000000000000000000DEM       BALLOTS CAST - DEMOCRATIC PARTY                         BALLOTS CAST - DEMOCRATIC PARTY       11 Winchester                                          00 
01040010014000035000023000012000000000000000000DEM       BALLOTS CAST - DEMOCRATIC PARTY                         BALLOTS CAST - DEMOCRATIC PARTY       12 Plum                                                00 
01040010015000030000015000015000000000000000000DEM       BALLOTS CAST - DEMOCRATIC PARTY                         BALLOTS CAST - DEMOCRATIC PARTY       13 West Point                                          00 
01040010016000004000002000002000000000000000000DEM       BALLOTS CAST - DEMOCRATIC PARTY                         BALLOTS CAST - DEMOCRATIC PARTY       14 Muldoon                                             00 
01040010017000018000015000003000000000000000000DEM       BALLOTS CAST - DEMOCRATIC PARTY                         BALLOTS CAST - DEMOCRATIC PARTY       15 Cistern                                             00 
01040010018000096000082000014000000000000000000DEM       BALLOTS CAST - DEMOCRATIC PARTY                         BALLOTS CAST - DEMOCRATIC PARTY       16 Flatonia                                            00 
01040010019000018000015000003000000000000000000DEM       BALLOTS CAST - DEMOCRATIC PARTY                         BALLOTS CAST - DEMOCRATIC PARTY       17 Praha                                               00 
01040010020000034000012000022000000000000000000DEM       BALLOTS CAST - DEMOCRATIC PARTY                         BALLOTS CAST - DEMOCRATIC PARTY       20 Hostyn                                              00 
01040010021000012000007000005000000000000000000DEM       BALLOTS CAST - DEMOCRATIC PARTY                         BALLOTS CAST - DEMOCRATIC PARTY       21 Swiss Alp                                           00 
01040010022000005000003000002000000000000000000DEM       BALLOTS CAST - DEMOCRATIC PARTY                         BALLOTS CAST - DEMOCRATIC PARTY       22 Ammannsville                                        00 
01040010023000022000015000007000000000000000000DEM       BALLOTS CAST - DEMOCRATIC PARTY                         BALLOTS CAST - DEMOCRATIC PARTY       23 Holman                                              00 
01040010024000015000013000002000000000000000000DEM       BALLOTS CAST - DEMOCRATIC PARTY                         BALLOTS CAST - DEMOCRATIC PARTY       24 Dubina                                              00 
01040010025000123000096000027000000000000000000DEM       BALLOTS CAST - DEMOCRATIC PARTY                         BALLOTS CAST - DEMOCRATIC PARTY       25 Schulenburg                                         00 
01040010026000036000020000016000000000000000000DEM       BALLOTS CAST - DEMOCRATIC PARTY                         BALLOTS CAST - DEMOCRATIC PARTY       26 Mullins Prairie                                     00 
01050010001000000000000000000000000000000000000REP       President                                               Rick Santorum                         1 East La Grange                                       01 
01050010002000000000000000000000000000000000000REP       President                                               Rick Santorum                         1 North La Grange                                      01 
01050010003000000000000000000000000000000000000REP       President                                               Rick Santorum                         1 West La Grange                                       01 
01050010004000000000000000000000000000000000000REP       President                                               Rick Santorum                         2 Rutersville                                          01 
01050010005000000000000000000000000000000000000REP       President                                               Rick Santorum                         3 Ellinger                                             01 
01050010006000000000000000000000000000000000000REP       President                                               Rick Santorum                         4 Fayetteville                                         01 
01050010007000000000000000000000000000000000000REP       President                                               Rick Santorum                         5 Willow Springs                                       01 
01050010008000000000000000000000000000000000000REP       President                                               Rick Santorum                         6 Warrenton                                            01 
01050010009000000000000000000000000000000000000REP       President                                               Rick Santorum                         7 Round Top                                            01 
01050010010000000000000000000000000000000000000REP       President                                               Rick Santorum                         8 Carmine                                              01 
01050010011000000000000000000000000000000000000REP       President                                               Rick Santorum                         9 Nechanitz                                            01 
01050010012000001000000000001000000000000000000REP       President                                               Rick Santorum                         10 Warda                                               01 
01050010013000000000000000000000000000000000000REP       President                                               Rick Santorum                         11 Winchester                                          01 
01050010014000000000000000000000000000000000000REP       President                                               Rick Santorum                         12 Plum                                                01 
01050010015000000000000000000000000000000000000REP       President                                               Rick Santorum                         13 West Point                                          01 
01050010016000001000001000000000000000000000000REP       President                                               Rick Santorum                         14 Muldoon                                             01 
01050010017000000000000000000000000000000000000REP       President                                               Rick Santorum                         15 Cistern                                             01 
01050010018000000000000000000000000000000000000REP       President                                               Rick Santorum                         16 Flatonia                                            01 
01050010019000000000000000000000000000000000000REP       President                                               Rick Santorum                         17 Praha                                               01 
01050010020000000000000000000000000000000000000REP       President                                               Rick Santorum                         20 Hostyn                                              01 
01050010021000000000000000000000000000000000000REP       President                                               Rick Santorum                         21 Swiss Alp                                           01 
01050010022000000000000000000000000000000000000REP       President                                               Rick Santorum                         22 Ammannsville                                        01 
01050010023000000000000000000000000000000000000REP       President                                               Rick Santorum                         23 Holman                                              01 
01050010024000000000000000000000000000000000000REP       President                                               Rick Santorum                         24 Dubina                                              01 
01050010025000001000000000001000000000000000000REP       President                                               Rick Santorum                         25 Schulenburg                                         01 
01050010026000000000000000000000000000000000000REP       President                                               Rick Santorum                         26 Mullins Prairie                                     01 
01050020001000009000005000004000000000000000000REP       President                                               John R. Kasich                        1 East La Grange                                       01 
01050020002000019000013000006000000000000000000REP       President                                               John R. Kasich                        1 North La Grange                                      01 
01050020003000011000006000005000000000000000000REP       President                                               John R. Kasich                        1 West La Grange                                       01 
01050020004000001000001000000000000000000000000REP       President                                               John R. Kasich                        2 Rutersville                                          01 
01050020005000002000000000002000000000000000000REP       President                                               John R. Kasich                        3 Ellinger                                             01 
01050020006000012000011000001000000000000000000REP       President                                               John R. Kasich                        4 Fayetteville                                         01 
01050020007000001000001000000000000000000000000REP       President                                               John R. Kasich                        5 Willow Springs                                       01 
01050020008000002000000000002000000000000000000REP       President                                               John R. Kasich                        6 Warrenton                                            01 
01050020009000009000007000002000000000000000000REP       President                                               John R. Kasich                        7 Round Top                                            01 
01050020010000005000005000000000000000000000000REP       President                                               John R. Kasich                        8 Carmine                                              01 
01050020011000006000006000000000000000000000000REP       President                                               John R. Kasich                        9 Nechanitz                                            01 
01050020012000007000005000002000000000000000000REP       President                                               John R. Kasich                        10 Warda                                               01 
01050020013000011000009000002000000000000000000REP       President                                               John R. Kasich                        11 Winchester                                          01 
01050020014000001000001000000000000000000000000REP       President                                               John R. Kasich                        12 Plum                                                01 
01050020015000003000001000002000000000000000000REP       President                                               John R. Kasich                        13 West Point                                          01 
01050020016000002000002000000000000000000000000REP       President                                               John R. Kasich                        14 Muldoon                                             01 
01050020017000000000000000000000000000000000000REP       President                                               John R. Kasich                        15 Cistern                                             01 
01050020018000008000007000001000000000000000000REP       President                                               John R. Kasich                        16 Flatonia                                            01 
01050020019000013000012000001000000000000000000REP       President                                               John R. Kasich                        17 Praha                                               01 
01050020020000011000006000005000000000000000000REP       President                                               John R. Kasich                        20 Hostyn                                              01 
01050020021000005000004000001000000000000000000REP       President                                               John R. Kasich                        21 Swiss Alp                                           01 
01050020022000006000006000000000000000000000000REP       President                                               John R. Kasich                        22 Ammannsville                                        01 
01050020023000002000002000000000000000000000000REP       President                                               John R. Kasich                        23 Holman                                              01 
01050020024000000000000000000000000000000000000REP       President                                               John R. Kasich                        24 Dubina                                              01 
01050020025000014000013000001000000000000000000REP       President                                               John R. Kasich                        25 Schulenburg                                         01 
01050020026000003000002000001000000000000000000REP       President                                               John R. Kasich                        26 Mullins Prairie                                     01 
01050030001000000000000000000000000000000000000REP       President                                               Chris Christie                        1 East La Grange                                       01 
01050030002000000000000000000000000000000000000REP       President                                               Chris Christie                        1 North La Grange                                      01 
01050030003000001000001000000000000000000000000REP       President                                               Chris Christie                        1 West La Grange                                       01 
01050030004000000000000000000000000000000000000REP       President                                               Chris Christie                        2 Rutersville                                          01 
01050030005000000000000000000000000000000000000REP       President                                               Chris Christie                        3 Ellinger                                             01 
01050030006000000000000000000000000000000000000REP       President                                               Chris Christie                        4 Fayetteville                                         01 
01050030007000000000000000000000000000000000000REP       President                                               Chris Christie                        5 Willow Springs                                       01 
01050030008000000000000000000000000000000000000REP       President                                               Chris Christie                        6 Warrenton                                            01 
01050030009000000000000000000000000000000000000REP       President                                               Chris Christie                        7 Round Top                                            01 
01050030010000000000000000000000000000000000000REP       President                                               Chris Christie                        8 Carmine                                              01 
01050030011000000000000000000000000000000000000REP       President                                               Chris Christie                        9 Nechanitz                                            01 
01050030012000000000000000000000000000000000000REP       President                                               Chris Christie                        10 Warda                                               01 
01050030013000000000000000000000000000000000000REP       President                                               Chris Christie                        11 Winchester                                          01 
01050030014000000000000000000000000000000000000REP       President                                               Chris Christie                        12 Plum                                                01 
01050030015000000000000000000000000000000000000REP       President                                               Chris Christie                        13 West Point                                          01 
01050030016000000000000000000000000000000000000REP       President                                               Chris Christie                        14 Muldoon                                             01 
01050030017000000000000000000000000000000000000REP       President                                               Chris Christie                        15 Cistern                                             01 
01050030018000000000000000000000000000000000000REP       President                                               Chris Christie                        16 Flatonia                                            01 
01050030019000000000000000000000000000000000000REP       President                                               Chris Christie                        17 Praha                                               01 
01050030020000001000001000000000000000000000000REP       President                                               Chris Christie                        20 Hostyn                                              01 
01050030021000001000000000001000000000000000000REP       President                                               Chris Christie                        21 Swiss Alp                                           01 
01050030022000000000000000000000000000000000000REP       President                                               Chris Christie                        22 Ammannsville                                        01 
01050030023000000000000000000000000000000000000REP       President                                               Chris Christie                        23 Holman                                              01 
01050030024000000000000000000000000000000000000REP       President                                               Chris Christie                        24 Dubina                                              01 
01050030025000000000000000000000000000000000000REP       President                                               Chris Christie                        25 Schulenburg                                         01 
01050030026000000000000000000000000000000000000REP       President                                               Chris Christie                        26 Mullins Prairie                                     01 
01050040001000005000001000004000000000000000000REP       President                                               Jeb Bush                              1 East La Grange                                       01 
01050040002000009000005000004000000000000000000REP       President                                               Jeb Bush                              1 North La Grange                                      01 
01050040003000002000000000002000000000000000000REP       President                                               Jeb Bush                              1 West La Grange                                       01 
01050040004000002000000000002000000000000000000REP       President                                               Jeb Bush                              2 Rutersville                                          01 
01050040005000003000001000002000000000000000000REP       President                                               Jeb Bush                              3 Ellinger                                             01 
01050040006000003000001000002000000000000000000REP       President                                               Jeb Bush                              4 Fayetteville                                         01 
01050040007000001000000000001000000000000000000REP       President                                               Jeb Bush                              5 Willow Springs                                       01 
01050040008000000000000000000000000000000000000REP       President                                               Jeb Bush                              6 Warrenton                                            01 
01050040009000000000000000000000000000000000000REP       President                                               Jeb Bush                              7 Round Top                                            01 
01050040010000000000000000000000000000000000000REP       President                                               Jeb Bush                              8 Carmine                                              01 
01050040011000001000001000000000000000000000000REP       President                                               Jeb Bush                              9 Nechanitz                                            01 
01050040012000001000001000000000000000000000000REP       President                                               Jeb Bush                              10 Warda                                               01 
01050040013000001000000000001000000000000000000REP       President                                               Jeb Bush                              11 Winchester                                          01 
01050040014000003000001000002000000000000000000REP       President                                               Jeb Bush                              12 Plum                                                01 
01050040015000001000001000000000000000000000000REP       President                                               Jeb Bush                              13 West Point                                          01 
01050040016000000000000000000000000000000000000REP       President                                               Jeb Bush                              14 Muldoon                                             01 
01050040017000000000000000000000000000000000000REP       President                                               Jeb Bush                              15 Cistern                                             01 
01050040018000003000002000001000000000000000000REP       President                                               Jeb Bush                              16 Flatonia                                            01 
01050040019000000000000000000000000000000000000REP       President                                               Jeb Bush                              17 Praha                                               01 
01050040020000004000000000004000000000000000000REP       President                                               Jeb Bush                              20 Hostyn                                              01 
01050040021000001000000000001000000000000000000REP       President                                               Jeb Bush                              21 Swiss Alp                                           01 
01050040022000000000000000000000000000000000000REP       President                                               Jeb Bush                              22 Ammannsville                                        01 
01050040023000001000001000000000000000000000000REP       President                                               Jeb Bush                              23 Holman                                              01 
01050040024000000000000000000000000000000000000REP       President                                               Jeb Bush                              24 Dubina                                              01 
01050040025000007000006000001000000000000000000REP       President                                               Jeb Bush                              25 Schulenburg                                         01 
01050040026000007000000000007000000000000000000REP       President                                               Jeb Bush                              26 Mullins Prairie                                     01 
01050050001000001000000000001000000000000000000REP       President                                               Carly Fiorina                         1 East La Grange                                       01 
01050050002000000000000000000000000000000000000REP       President                                               Carly Fiorina                         1 North La Grange                                      01 
01050050003000000000000000000000000000000000000REP       President                                               Carly Fiorina                         1 West La Grange                                       01 
01050050004000001000000000001000000000000000000REP       President                                               Carly Fiorina                         2 Rutersville                                          01 
01050050005000000000000000000000000000000000000REP       President                                               Carly Fiorina                         3 Ellinger                                             01 
01050050006000000000000000000000000000000000000REP       President                                               Carly Fiorina                         4 Fayetteville                                         01 
01050050007000000000000000000000000000000000000REP       President                                               Carly Fiorina                         5 Willow Springs                                       01 
01050050008000000000000000000000000000000000000REP       President                                               Carly Fiorina                         6 Warrenton                                            01 
01050050009000000000000000000000000000000000000REP       President                                               Carly Fiorina                         7 Round Top                                            01 
01050050010000000000000000000000000000000000000REP       President                                               Carly Fiorina                         8 Carmine                                              01 
01050050011000000000000000000000000000000000000REP       President                                               Carly Fiorina                         9 Nechanitz                                            01 
01050050012000000000000000000000000000000000000REP       President                                               Carly Fiorina                         10 Warda                                               01 
01050050013000001000000000001000000000000000000REP       President                                               Carly Fiorina                         11 Winchester                                          01 
01050050014000000000000000000000000000000000000REP       President                                               Carly Fiorina                         12 Plum                                                01 
01050050015000001000001000000000000000000000000REP       President                                               Carly Fiorina                         13 West Point                                          01 
01050050016000000000000000000000000000000000000REP       President                                               Carly Fiorina                         14 Muldoon                                             01 
01050050017000000000000000000000000000000000000REP       President                                               Carly Fiorina                         15 Cistern                                             01 
01050050018000000000000000000000000000000000000REP       President                                               Carly Fiorina                         16 Flatonia                                            01 
01050050019000000000000000000000000000000000000REP       President                                               Carly Fiorina                         17 Praha                                               01 
01050050020000000000000000000000000000000000000REP       President                                               Carly Fiorina                         20 Hostyn                                              01 
01050050021000000000000000000000000000000000000REP       President                                               Carly Fiorina                         21 Swiss Alp                                           01 
01050050022000000000000000000000000000000000000REP       President                                               Carly Fiorina                         22 Ammannsville                                        01 
01050050023000000000000000000000000000000000000REP       President                                               Carly Fiorina                         23 Holman                                              01 
01050050024000001000001000000000000000000000000REP       President                                               Carly Fiorina                         24 Dubina                                              01 
01050050025000001000001000000000000000000000000REP       President                                               Carly Fiorina                         25 Schulenburg                                         01 
01050050026000000000000000000000000000000000000REP       President                                               Carly Fiorina                         26 Mullins Prairie                                     01 
01050060001000000000000000000000000000000000000REP       President                                               Lindsey Graham                        1 East La Grange                                       01 
01050060002000000000000000000000000000000000000REP       President                                               Lindsey Graham                        1 North La Grange                                      01 
01050060003000001000001000000000000000000000000REP       President                                               Lindsey Graham                        1 West La Grange                                       01 
01050060004000000000000000000000000000000000000REP       President                                               Lindsey Graham                        2 Rutersville                                          01 
01050060005000000000000000000000000000000000000REP       President                                               Lindsey Graham                        3 Ellinger                                             01 
01050060006000000000000000000000000000000000000REP       President                                               Lindsey Graham                        4 Fayetteville                                         01 
01050060007000000000000000000000000000000000000REP       President                                               Lindsey Graham                        5 Willow Springs                                       01 
01050060008000000000000000000000000000000000000REP       President                                               Lindsey Graham                        6 Warrenton                                            01 
01050060009000000000000000000000000000000000000REP       President                                               Lindsey Graham                        7 Round Top                                            01 
01050060010000000000000000000000000000000000000REP       President                                               Lindsey Graham                        8 Carmine                                              01 
01050060011000000000000000000000000000000000000REP       President                                               Lindsey Graham                        9 Nechanitz                                            01 
01050060012000000000000000000000000000000000000REP       President                                               Lindsey Graham                        10 Warda                                               01 
01050060013000000000000000000000000000000000000REP       President                                               Lindsey Graham                        11 Winchester                                          01 
01050060014000000000000000000000000000000000000REP       President                                               Lindsey Graham                        12 Plum                                                01 
01050060015000000000000000000000000000000000000REP       President                                               Lindsey Graham                        13 West Point                                          01 
01050060016000000000000000000000000000000000000REP       President                                               Lindsey Graham                        14 Muldoon                                             01 
01050060017000000000000000000000000000000000000REP       President                                               Lindsey Graham                        15 Cistern                                             01 
01050060018000000000000000000000000000000000000REP       President                                               Lindsey Graham                        16 Flatonia                                            01 
01050060019000000000000000000000000000000000000REP       President                                               Lindsey Graham                        17 Praha                                               01 
01050060020000000000000000000000000000000000000REP       President                                               Lindsey Graham                        20 Hostyn                                              01 
01050060021000000000000000000000000000000000000REP       President                                               Lindsey Graham                        21 Swiss Alp                                           01 
01050060022000000000000000000000000000000000000REP       President                                               Lindsey Graham                        22 Ammannsville                                        01 
01050060023000000000000000000000000000000000000REP       President                                               Lindsey Graham                        23 Holman                                              01 
01050060024000000000000000000000000000000000000REP       President                                               Lindsey Graham                        24 Dubina                                              01 
01050060025000000000000000000000000000000000000REP       President                                               Lindsey Graham                        25 Schulenburg                                         01 
01050060026000000000000000000000000000000000000REP       President                                               Lindsey Graham                        26 Mullins Prairie                                     01 
01050070001000000000000000000000000000000000000REP       President                                               Elizabeth Gray                        1 East La Grange                                       01 
01050070002000000000000000000000000000000000000REP       President                                               Elizabeth Gray                        1 North La Grange                                      01 
01050070003000000000000000000000000000000000000REP       President                                               Elizabeth Gray                        1 West La Grange                                       01 
01050070004000000000000000000000000000000000000REP       President                                               Elizabeth Gray                        2 Rutersville                                          01 
01050070005000000000000000000000000000000000000REP       President                                               Elizabeth Gray                        3 Ellinger                                             01 
01050070006000000000000000000000000000000000000REP       President                                               Elizabeth Gray                        4 Fayetteville                                         01 
01050070007000000000000000000000000000000000000REP       President                                               Elizabeth Gray                        5 Willow Springs                                       01 
01050070008000000000000000000000000000000000000REP       President                                               Elizabeth Gray                        6 Warrenton                                            01 
01050070009000000000000000000000000000000000000REP       President                                               Elizabeth Gray                        7 Round Top                                            01 
01050070010000000000000000000000000000000000000REP       President                                               Elizabeth Gray                        8 Carmine                                              01 
01050070011000000000000000000000000000000000000REP       President                                               Elizabeth Gray                        9 Nechanitz                                            01 
01050070012000000000000000000000000000000000000REP       President                                               Elizabeth Gray                        10 Warda                                               01 
01050070013000000000000000000000000000000000000REP       President                                               Elizabeth Gray                        11 Winchester                                          01 
01050070014000000000000000000000000000000000000REP       President                                               Elizabeth Gray                        12 Plum                                                01 
01050070015000000000000000000000000000000000000REP       President                                               Elizabeth Gray                        13 West Point                                          01 
01050070016000000000000000000000000000000000000REP       President                                               Elizabeth Gray                        14 Muldoon                                             01 
01050070017000000000000000000000000000000000000REP       President                                               Elizabeth Gray                        15 Cistern                                             01 
01050070018000000000000000000000000000000000000REP       President                                               Elizabeth Gray                        16 Flatonia                                            01 
01050070019000000000000000000000000000000000000REP       President                                               Elizabeth Gray                        17 Praha                                               01 
01050070020000000000000000000000000000000000000REP       President                                               Elizabeth Gray                        20 Hostyn                                              01 
01050070021000000000000000000000000000000000000REP       President                                               Elizabeth Gray                        21 Swiss Alp                                           01 
01050070022000000000000000000000000000000000000REP       President                                               Elizabeth Gray                        22 Ammannsville                                        01 
01050070023000000000000000000000000000000000000REP       President                                               Elizabeth Gray                        23 Holman                                              01 
01050070024000000000000000000000000000000000000REP       President                                               Elizabeth Gray                        24 Dubina                                              01 
01050070025000000000000000000000000000000000000REP       President                                               Elizabeth Gray                        25 Schulenburg                                         01 
01050070026000000000000000000000000000000000000REP       President                                               Elizabeth Gray                        26 Mullins Prairie                                     01 
01050080001000002000002000000000000000000000000REP       President                                               Rand Paul                             1 East La Grange                                       01 
01050080002000002000002000000000000000000000000REP       President                                               Rand Paul                             1 North La Grange                                      01 
01050080003000002000001000001000000000000000000REP       President                                               Rand Paul                             1 West La Grange                                       01 
01050080004000000000000000000000000000000000000REP       President                                               Rand Paul                             2 Rutersville                                          01 
01050080005000000000000000000000000000000000000REP       President                                               Rand Paul                             3 Ellinger                                             01 
01050080006000000000000000000000000000000000000REP       President                                               Rand Paul                             4 Fayetteville                                         01 
01050080007000001000001000000000000000000000000REP       President                                               Rand Paul                             5 Willow Springs                                       01 
01050080008000000000000000000000000000000000000REP       President                                               Rand Paul                             6 Warrenton                                            01 
01050080009000001000000000001000000000000000000REP       President                                               Rand Paul                             7 Round Top                                            01 
01050080010000000000000000000000000000000000000REP       President                                               Rand Paul                             8 Carmine                                              01 
01050080011000000000000000000000000000000000000REP       President                                               Rand Paul                             9 Nechanitz                                            01 
01050080012000000000000000000000000000000000000REP       President                                               Rand Paul                             10 Warda                                               01 
01050080013000001000001000000000000000000000000REP       President                                               Rand Paul                             11 Winchester                                          01 
01050080014000001000001000000000000000000000000REP       President                                               Rand Paul                             12 Plum                                                01 
01050080015000000000000000000000000000000000000REP       President                                               Rand Paul                             13 West Point                                          01 
01050080016000000000000000000000000000000000000REP       President                                               Rand Paul                             14 Muldoon                                             01 
01050080017000000000000000000000000000000000000REP       President                                               Rand Paul                             15 Cistern                                             01 
01050080018000000000000000000000000000000000000REP       President                                               Rand Paul                             16 Flatonia                                            01 
01050080019000000000000000000000000000000000000REP       President                                               Rand Paul                             17 Praha                                               01 
01050080020000004000004000000000000000000000000REP       President                                               Rand Paul                             20 Hostyn                                              01 
01050080021000001000001000000000000000000000000REP       President                                               Rand Paul                             21 Swiss Alp                                           01 
01050080022000000000000000000000000000000000000REP       President                                               Rand Paul                             22 Ammannsville                                        01 
01050080023000000000000000000000000000000000000REP       President                                               Rand Paul                             23 Holman                                              01 
01050080024000000000000000000000000000000000000REP       President                                               Rand Paul                             24 Dubina                                              01 
01050080025000001000000000001000000000000000000REP       President                                               Rand Paul                             25 Schulenburg                                         01 
01050080026000000000000000000000000000000000000REP       President                                               Rand Paul                             26 Mullins Prairie                                     01 
01050090001000120000076000044000000000000000000REP       President                                               Donald J. Trump                       1 East La Grange                                       01 
01050090002000203000112000091000000000000000000REP       President                                               Donald J. Trump                       1 North La Grange                                      01 
01050090003000089000044000045000000000000000000REP       President                                               Donald J. Trump                       1 West La Grange                                       01 
01050090004000029000017000012000000000000000000REP       President                                               Donald J. Trump                       2 Rutersville                                          01 
01050090005000054000040000014000000000000000000REP       President                                               Donald J. Trump                       3 Ellinger                                             01 
01050090006000112000092000020000000000000000000REP       President                                               Donald J. Trump                       4 Fayetteville                                         01 
01050090007000032000023000009000000000000000000REP       President                                               Donald J. Trump                       5 Willow Springs                                       01 
01050090008000071000057000014000000000000000000REP       President                                               Donald J. Trump                       6 Warrenton                                            01 
01050090009000078000061000017000000000000000000REP       President                                               Donald J. Trump                       7 Round Top                                            01 
01050090010000036000034000002000000000000000000REP       President                                               Donald J. Trump                       8 Carmine                                              01 
01050090011000040000033000007000000000000000000REP       President                                               Donald J. Trump                       9 Nechanitz                                            01 
01050090012000077000048000029000000000000000000REP       President                                               Donald J. Trump                       10 Warda                                               01 
01050090013000056000048000008000000000000000000REP       President                                               Donald J. Trump                       11 Winchester                                          01 
01050090014000042000020000022000000000000000000REP       President                                               Donald J. Trump                       12 Plum                                                01 
01050090015000061000033000028000000000000000000REP       President                                               Donald J. Trump                       13 West Point                                          01 
01050090016000037000022000015000000000000000000REP       President                                               Donald J. Trump                       14 Muldoon                                             01 
01050090017000056000042000014000000000000000000REP       President                                               Donald J. Trump                       15 Cistern                                             01 
01050090018000161000140000021000000000000000000REP       President                                               Donald J. Trump                       16 Flatonia                                            01 
01050090019000076000065000011000000000000000000REP       President                                               Donald J. Trump                       17 Praha                                               01 
01050090020000104000047000057000000000000000000REP       President                                               Donald J. Trump                       20 Hostyn                                              01 
01050090021000037000025000012000000000000000000REP       President                                               Donald J. Trump                       21 Swiss Alp                                           01 
01050090022000028000018000010000000000000000000REP       President                                               Donald J. Trump                       22 Ammannsville                                        01 
01050090023000036000031000005000000000000000000REP       President                                               Donald J. Trump                       23 Holman                                              01 
01050090024000043000038000005000000000000000000REP       President                                               Donald J. Trump                       24 Dubina                                              01 
01050090025000286000246000040000000000000000000REP       President                                               Donald J. Trump                       25 Schulenburg                                         01 
01050090026000086000046000040000000000000000000REP       President                                               Donald J. Trump                       26 Mullins Prairie                                     01 
01050100001000153000099000054000000000000000000REP       President                                               Ted Cruz                              1 East La Grange                                       01 
01050100002000313000178000135000000000000000000REP       President                                               Ted Cruz                              1 North La Grange                                      01 
01050100003000121000063000058000000000000000000REP       President                                               Ted Cruz                              1 West La Grange                                       01 
01050100004000033000023000010000000000000000000REP       President                                               Ted Cruz                              2 Rutersville                                          01 
01050100005000074000054000020000000000000000000REP       President                                               Ted Cruz                              3 Ellinger                                             01 
01050100006000116000091000025000000000000000000REP       President                                               Ted Cruz                              4 Fayetteville                                         01 
01050100007000058000046000012000000000000000000REP       President                                               Ted Cruz                              5 Willow Springs                                       01 
01050100008000084000068000016000000000000000000REP       President                                               Ted Cruz                              6 Warrenton                                            01 
01050100009000121000104000017000000000000000000REP       President                                               Ted Cruz                              7 Round Top                                            01 
01050100010000089000085000004000000000000000000REP       President                                               Ted Cruz                              8 Carmine                                              01 
01050100011000048000030000018000000000000000000REP       President                                               Ted Cruz                              9 Nechanitz                                            01 
01050100012000108000078000030000000000000000000REP       President                                               Ted Cruz                              10 Warda                                               01 
01050100013000079000060000019000000000000000000REP       President                                               Ted Cruz                              11 Winchester                                          01 
01050100014000070000049000021000000000000000000REP       President                                               Ted Cruz                              12 Plum                                                01 
01050100015000098000061000037000000000000000000REP       President                                               Ted Cruz                              13 West Point                                          01 
01050100016000064000047000017000000000000000000REP       President                                               Ted Cruz                              14 Muldoon                                             01 
01050100017000053000039000014000000000000000000REP       President                                               Ted Cruz                              15 Cistern                                             01 
01050100018000263000217000046000000000000000000REP       President                                               Ted Cruz                              16 Flatonia                                            01 
01050100019000100000082000018000000000000000000REP       President                                               Ted Cruz                              17 Praha                                               01 
01050100020000162000102000060000000000000000000REP       President                                               Ted Cruz                              20 Hostyn                                              01 
01050100021000054000040000014000000000000000000REP       President                                               Ted Cruz                              21 Swiss Alp                                           01 
01050100022000037000029000008000000000000000000REP       President                                               Ted Cruz                              22 Ammannsville                                        01 
01050100023000051000043000008000000000000000000REP       President                                               Ted Cruz                              23 Holman                                              01 
01050100024000063000055000008000000000000000000REP       President                                               Ted Cruz                              24 Dubina                                              01 
01050100025000340000296000044000000000000000000REP       President                                               Ted Cruz                              25 Schulenburg                                         01 
01050100026000101000045000056000000000000000000REP       President                                               Ted Cruz                              26 Mullins Prairie                                     01 
01050110001000018000013000005000000000000000000REP       President                                               Ben Carson                            1 East La Grange                                       01 
01050110002000022000016000006000000000000000000REP       President                                               Ben Carson                            1 North La Grange                                      01 
01050110003000018000007000011000000000000000000REP       President                                               Ben Carson                            1 West La Grange                                       01 
01050110004000006000006000000000000000000000000REP       President                                               Ben Carson                            2 Rutersville                                          01 
01050110005000006000005000001000000000000000000REP       President                                               Ben Carson                            3 Ellinger                                             01 
01050110006000008000007000001000000000000000000REP       President                                               Ben Carson                            4 Fayetteville                                         01 
01050110007000002000002000000000000000000000000REP       President                                               Ben Carson                            5 Willow Springs                                       01 
01050110008000006000004000002000000000000000000REP       President                                               Ben Carson                            6 Warrenton                                            01 
01050110009000013000010000003000000000000000000REP       President                                               Ben Carson                            7 Round Top                                            01 
01050110010000002000001000001000000000000000000REP       President                                               Ben Carson                            8 Carmine                                              01 
01050110011000002000002000000000000000000000000REP       President                                               Ben Carson                            9 Nechanitz                                            01 
01050110012000006000004000002000000000000000000REP       President                                               Ben Carson                            10 Warda                                               01 
01050110013000007000004000003000000000000000000REP       President                                               Ben Carson                            11 Winchester                                          01 
01050110014000002000001000001000000000000000000REP       President                                               Ben Carson                            12 Plum                                                01 
01050110015000008000005000003000000000000000000REP       President                                               Ben Carson                            13 West Point                                          01 
01050110016000003000003000000000000000000000000REP       President                                               Ben Carson                            14 Muldoon                                             01 
01050110017000005000003000002000000000000000000REP       President                                               Ben Carson                            15 Cistern                                             01 
01050110018000017000016000001000000000000000000REP       President                                               Ben Carson                            16 Flatonia                                            01 
01050110019000002000002000000000000000000000000REP       President                                               Ben Carson                            17 Praha                                               01 
01050110020000013000007000006000000000000000000REP       President                                               Ben Carson                            20 Hostyn                                              01 
01050110021000002000002000000000000000000000000REP       President                                               Ben Carson                            21 Swiss Alp                                           01 
01050110022000000000000000000000000000000000000REP       President                                               Ben Carson                            22 Ammannsville                                        01 
01050110023000000000000000000000000000000000000REP       President                                               Ben Carson                            23 Holman                                              01 
01050110024000006000006000000000000000000000000REP       President                                               Ben Carson                            24 Dubina                                              01 
01050110025000016000011000005000000000000000000REP       President                                               Ben Carson                            25 Schulenburg                                         01 
01050110026000006000004000002000000000000000000REP       President                                               Ben Carson                            26 Mullins Prairie                                     01 
01050120001000051000030000021000000000000000000REP       President                                               Marco Rubio                           1 East La Grange                                       01 
01050120002000101000061000040000000000000000000REP       President                                               Marco Rubio                           1 North La Grange                                      01 
01050120003000061000036000025000000000000000000REP       President                                               Marco Rubio                           1 West La Grange                                       01 
01050120004000006000003000003000000000000000000REP       President                                               Marco Rubio                           2 Rutersville                                          01 
01050120005000013000008000005000000000000000000REP       President                                               Marco Rubio                           3 Ellinger                                             01 
01050120006000034000024000010000000000000000000REP       President                                               Marco Rubio                           4 Fayetteville                                         01 
01050120007000013000012000001000000000000000000REP       President                                               Marco Rubio                           5 Willow Springs                                       01 
01050120008000025000017000008000000000000000000REP       President                                               Marco Rubio                           6 Warrenton                                            01 
01050120009000026000023000003000000000000000000REP       President                                               Marco Rubio                           7 Round Top                                            01 
01050120010000021000018000003000000000000000000REP       President                                               Marco Rubio                           8 Carmine                                              01 
01050120011000007000005000002000000000000000000REP       President                                               Marco Rubio                           9 Nechanitz                                            01 
01050120012000036000020000016000000000000000000REP       President                                               Marco Rubio                           10 Warda                                               01 
01050120013000024000020000004000000000000000000REP       President                                               Marco Rubio                           11 Winchester                                          01 
01050120014000019000013000006000000000000000000REP       President                                               Marco Rubio                           12 Plum                                                01 
01050120015000018000010000008000000000000000000REP       President                                               Marco Rubio                           13 West Point                                          01 
01050120016000008000006000002000000000000000000REP       President                                               Marco Rubio                           14 Muldoon                                             01 
01050120017000017000009000008000000000000000000REP       President                                               Marco Rubio                           15 Cistern                                             01 
01050120018000081000069000012000000000000000000REP       President                                               Marco Rubio                           16 Flatonia                                            01 
01050120019000018000017000001000000000000000000REP       President                                               Marco Rubio                           17 Praha                                               01 
01050120020000057000033000024000000000000000000REP       President                                               Marco Rubio                           20 Hostyn                                              01 
01050120021000015000007000008000000000000000000REP       President                                               Marco Rubio                           21 Swiss Alp                                           01 
01050120022000013000012000001000000000000000000REP       President                                               Marco Rubio                           22 Ammannsville                                        01 
01050120023000010000009000001000000000000000000REP       President                                               Marco Rubio                           23 Holman                                              01 
01050120024000007000005000002000000000000000000REP       President                                               Marco Rubio                           24 Dubina                                              01 
01050120025000124000098000026000000000000000000REP       President                                               Marco Rubio                           25 Schulenburg                                         01 
01050120026000027000009000018000000000000000000REP       President                                               Marco Rubio                           26 Mullins Prairie                                     01 
01050130001000001000001000000000000000000000000REP       President                                               Mike Huckabee                         1 East La Grange                                       01 
01050130002000002000001000001000000000000000000REP       President                                               Mike Huckabee                         1 North La Grange                                      01 
01050130003000000000000000000000000000000000000REP       President                                               Mike Huckabee                         1 West La Grange                                       01 
01050130004000000000000000000000000000000000000REP       President                                               Mike Huckabee                         2 Rutersville                                          01 
01050130005000000000000000000000000000000000000REP       President                                               Mike Huckabee                         3 Ellinger                                             01 
01050130006000001000001000000000000000000000000REP       President                                               Mike Huckabee                         4 Fayetteville                                         01 
01050130007000000000000000000000000000000000000REP       President                                               Mike Huckabee                         5 Willow Springs                                       01 
01050130008000000000000000000000000000000000000REP       President                                               Mike Huckabee                         6 Warrenton                                            01 
01050130009000000000000000000000000000000000000REP       President                                               Mike Huckabee                         7 Round Top                                            01 
01050130010000000000000000000000000000000000000REP       President                                               Mike Huckabee                         8 Carmine                                              01 
01050130011000000000000000000000000000000000000REP       President                                               Mike Huckabee                         9 Nechanitz                                            01 
01050130012000000000000000000000000000000000000REP       President                                               Mike Huckabee                         10 Warda                                               01 
01050130013000000000000000000000000000000000000REP       President                                               Mike Huckabee                         11 Winchester                                          01 
01050130014000000000000000000000000000000000000REP       President                                               Mike Huckabee                         12 Plum                                                01 
01050130015000001000000000001000000000000000000REP       President                                               Mike Huckabee                         13 West Point                                          01 
01050130016000000000000000000000000000000000000REP       President                                               Mike Huckabee                         14 Muldoon                                             01 
01050130017000000000000000000000000000000000000REP       President                                               Mike Huckabee                         15 Cistern                                             01 
01050130018000001000001000000000000000000000000REP       President                                               Mike Huckabee                         16 Flatonia                                            01 
01050130019000000000000000000000000000000000000REP       President                                               Mike Huckabee                         17 Praha                                               01 
01050130020000000000000000000000000000000000000REP       President                                               Mike Huckabee                         20 Hostyn                                              01 
01050130021000001000001000000000000000000000000REP       President                                               Mike Huckabee                         21 Swiss Alp                                           01 
01050130022000000000000000000000000000000000000REP       President                                               Mike Huckabee                         22 Ammannsville                                        01 
01050130023000000000000000000000000000000000000REP       President                                               Mike Huckabee                         23 Holman                                              01 
01050130024000000000000000000000000000000000000REP       President                                               Mike Huckabee                         24 Dubina                                              01 
01050130025000003000002000001000000000000000000REP       President                                               Mike Huckabee                         25 Schulenburg                                         01 
01050130026000000000000000000000000000000000000REP       President                                               Mike Huckabee                         26 Mullins Prairie                                     01 
01050140001000006000002000004000000000000000000REP       President                                               Uncommited                            1 East La Grange                                       01 
01050140002000019000008000011000000000000000000REP       President                                               Uncommited                            1 North La Grange                                      01 
01050140003000003000002000001000000000000000000REP       President                                               Uncommited                            1 West La Grange                                       01 
01050140004000001000000000001000000000000000000REP       President                                               Uncommited                            2 Rutersville                                          01 
01050140005000002000000000002000000000000000000REP       President                                               Uncommited                            3 Ellinger                                             01 
01050140006000002000000000002000000000000000000REP       President                                               Uncommited                            4 Fayetteville                                         01 
01050140007000000000000000000000000000000000000REP       President                                               Uncommited                            5 Willow Springs                                       01 
01050140008000001000000000001000000000000000000REP       President                                               Uncommited                            6 Warrenton                                            01 
01050140009000000000000000000000000000000000000REP       President                                               Uncommited                            7 Round Top                                            01 
01050140010000001000000000001000000000000000000REP       President                                               Uncommited                            8 Carmine                                              01 
01050140011000000000000000000000000000000000000REP       President                                               Uncommited                            9 Nechanitz                                            01 
01050140012000005000003000002000000000000000000REP       President                                               Uncommited                            10 Warda                                               01 
01050140013000001000001000000000000000000000000REP       President                                               Uncommited                            11 Winchester                                          01 
01050140014000000000000000000000000000000000000REP       President                                               Uncommited                            12 Plum                                                01 
01050140015000002000001000001000000000000000000REP       President                                               Uncommited                            13 West Point                                          01 
01050140016000002000001000001000000000000000000REP       President                                               Uncommited                            14 Muldoon                                             01 
01050140017000000000000000000000000000000000000REP       President                                               Uncommited                            15 Cistern                                             01 
01050140018000009000008000001000000000000000000REP       President                                               Uncommited                            16 Flatonia                                            01 
01050140019000001000001000000000000000000000000REP       President                                               Uncommited                            17 Praha                                               01 
01050140020000006000004000002000000000000000000REP       President                                               Uncommited                            20 Hostyn                                              01 
01050140021000002000001000001000000000000000000REP       President                                               Uncommited                            21 Swiss Alp                                           01 
01050140022000000000000000000000000000000000000REP       President                                               Uncommited                            22 Ammannsville                                        01 
01050140023000000000000000000000000000000000000REP       President                                               Uncommited                            23 Holman                                              01 
01050140024000000000000000000000000000000000000REP       President                                               Uncommited                            24 Dubina                                              01 
01050140025000007000004000003000000000000000000REP       President                                               Uncommited                            25 Schulenburg                                         01 
01050140026000002000000000002000000000000000000REP       President                                               Uncommited                            26 Mullins Prairie                                     01 
01060010001000281000173000108000000000000000000REP       United States Representative, Dist. 10                  MIchael T. McCaul                     1 East La Grange                                       01 
01060010002000528000293000235000000000000000000REP       United States Representative, Dist. 10                  MIchael T. McCaul                     1 North La Grange                                      01 
01060010003000233000114000119000000000000000000REP       United States Representative, Dist. 10                  MIchael T. McCaul                     1 West La Grange                                       01 
01060010004000054000033000021000000000000000000REP       United States Representative, Dist. 10                  MIchael T. McCaul                     2 Rutersville                                          01 
01060010005000117000087000030000000000000000000REP       United States Representative, Dist. 10                  MIchael T. McCaul                     3 Ellinger                                             01 
