01010010001001017000000000000000000000000000000          REGISTERED VOTERS - TOTAL                               REGISTERED VOTERS - TOTAL             PRECINCT 11                                            00 
01010010002000392000000000000000000000000000000          REGISTERED VOTERS - TOTAL                               REGISTERED VOTERS - TOTAL             PRECINCT 12                                            00 
01010010003000917000000000000000000000000000000          REGISTERED VOTERS - TOTAL                               REGISTERED VOTERS - TOTAL             PRECINCT 21                                            00 
01010010004000297000000000000000000000000000000          REGISTERED VOTERS - TOTAL                               REGISTERED VOTERS - TOTAL             PRECINCT 22                                            00 
01010010005000786000000000000000000000000000000          REGISTERED VOTERS - TOTAL                               REGISTERED VOTERS - TOTAL             PRECINCT 31                                            00 
01010010006000580000000000000000000000000000000          REGISTERED VOTERS - TOTAL                               REGISTERED VOTERS - TOTAL             PRECINCT 32                                            00 
01010010007000350000000000000000000000000000000          REGISTERED VOTERS - TOTAL                               REGISTERED VOTERS - TOTAL             PRECINCT 41                                            00 
01010010008000581000000000000000000000000000000          REGISTERED VOTERS - TOTAL                               REGISTERED VOTERS - TOTAL             PRECINCT 42                                            00 
01010010009000391000000000000000000000000000000          REGISTERED VOTERS - TOTAL                               REGISTERED VOTERS - TOTAL             PRECINCT 43                                            00 
01020010001000411000213000198000000000000000000          BALLOTS CAST - TOTAL                                    BALLOTS CAST - TOTAL                  PRECINCT 11                                            00 
01020010002000159000049000110000000000000000000          BALLOTS CAST - TOTAL                                    BALLOTS CAST - TOTAL                  PRECINCT 12                                            00 
01020010003000379000203000176000000000000000000          BALLOTS CAST - TOTAL                                    BALLOTS CAST - TOTAL                  PRECINCT 21                                            00 
01020010004000113000010000103000000000000000000          BALLOTS CAST - TOTAL                                    BALLOTS CAST - TOTAL                  PRECINCT 22                                            00 
01020010005000349000178000171000000000000000000          BALLOTS CAST - TOTAL                                    BALLOTS CAST - TOTAL                  PRECINCT 31                                            00 
01020010006000278000098000180000000000000000000          BALLOTS CAST - TOTAL                                    BALLOTS CAST - TOTAL                  PRECINCT 32                                            00 
01020010007000168000058000110000000000000000000          BALLOTS CAST - TOTAL                                    BALLOTS CAST - TOTAL                  PRECINCT 41                                            00 
01020010008000231000035000196000000000000000000          BALLOTS CAST - TOTAL                                    BALLOTS CAST - TOTAL                  PRECINCT 42                                            00 
01020010009000153000062000091000000000000000000          BALLOTS CAST - TOTAL                                    BALLOTS CAST - TOTAL                  PRECINCT 43                                            00 
01030010001000147000053000094000000000000000000REP       BALLOTS CAST - REPUBLICAN PARTY                         BALLOTS CAST - REPUBLICAN PARTY       PRECINCT 11                                            00 
01030010002000144000043000101000000000000000000REP       BALLOTS CAST - REPUBLICAN PARTY                         BALLOTS CAST - REPUBLICAN PARTY       PRECINCT 12                                            00 
01030010003000204000100000104000000000000000000REP       BALLOTS CAST - REPUBLICAN PARTY                         BALLOTS CAST - REPUBLICAN PARTY       PRECINCT 21                                            00 
01030010004000049000006000043000000000000000000REP       BALLOTS CAST - REPUBLICAN PARTY                         BALLOTS CAST - REPUBLICAN PARTY       PRECINCT 22                                            00 
01030010005000277000138000139000000000000000000REP       BALLOTS CAST - REPUBLICAN PARTY                         BALLOTS CAST - REPUBLICAN PARTY       PRECINCT 31                                            00 
01030010006000263000089000174000000000000000000REP       BALLOTS CAST - REPUBLICAN PARTY                         BALLOTS CAST - REPUBLICAN PARTY       PRECINCT 32                                            00 
01030010007000143000046000097000000000000000000REP       BALLOTS CAST - REPUBLICAN PARTY                         BALLOTS CAST - REPUBLICAN PARTY       PRECINCT 41                                            00 
01030010008000199000028000171000000000000000000REP       BALLOTS CAST - REPUBLICAN PARTY                         BALLOTS CAST - REPUBLICAN PARTY       PRECINCT 42                                            00 
01030010009000137000051000086000000000000000000REP       BALLOTS CAST - REPUBLICAN PARTY                         BALLOTS CAST - REPUBLICAN PARTY       PRECINCT 43                                            00 
01040010001000264000160000104000000000000000000DEM       BALLOTS CAST - DEMOCRATIC PARTY                         BALLOTS CAST - DEMOCRATIC PARTY       PRECINCT 11                                            00 
01040010002000015000006000009000000000000000000DEM       BALLOTS CAST - DEMOCRATIC PARTY                         BALLOTS CAST - DEMOCRATIC PARTY       PRECINCT 12                                            00 
01040010003000177000103000074000000000000000000DEM       BALLOTS CAST - DEMOCRATIC PARTY                         BALLOTS CAST - DEMOCRATIC PARTY       PRECINCT 21                                            00 
01040010004000064000004000060000000000000000000DEM       BALLOTS CAST - DEMOCRATIC PARTY                         BALLOTS CAST - DEMOCRATIC PARTY       PRECINCT 22                                            00 
01040010005000072000040000032000000000000000000DEM       BALLOTS CAST - DEMOCRATIC PARTY                         BALLOTS CAST - DEMOCRATIC PARTY       PRECINCT 31                                            00 
01040010006000015000009000006000000000000000000DEM       BALLOTS CAST - DEMOCRATIC PARTY                         BALLOTS CAST - DEMOCRATIC PARTY       PRECINCT 32                                            00 
01040010007000025000012000013000000000000000000DEM       BALLOTS CAST - DEMOCRATIC PARTY                         BALLOTS CAST - DEMOCRATIC PARTY       PRECINCT 41                                            00 
01040010008000032000007000025000000000000000000DEM       BALLOTS CAST - DEMOCRATIC PARTY                         BALLOTS CAST - DEMOCRATIC PARTY       PRECINCT 42                                            00 
01040010009000016000011000005000000000000000000DEM       BALLOTS CAST - DEMOCRATIC PARTY                         BALLOTS CAST - DEMOCRATIC PARTY       PRECINCT 43                                            00 
01050010001000017000004000013000000000000000000REP       President                                               Marco Rubio                           PRECINCT 11                                            01 
01050010002000017000008000009000000000000000000REP       President                                               Marco Rubio                           PRECINCT 12                                            01 
01050010003000033000012000021000000000000000000REP       President                                               Marco Rubio                           PRECINCT 21                                            01 
01050010004000007000000000007000000000000000000REP       President                                               Marco Rubio                           PRECINCT 22                                            01 
01050010005000029000019000010000000000000000000REP       President                                               Marco Rubio                           PRECINCT 31                                            01 
01050010006000033000013000020000000000000000000REP       President                                               Marco Rubio                           PRECINCT 32                                            01 
01050010007000011000002000009000000000000000000REP       President                                               Marco Rubio                           PRECINCT 41                                            01 
01050010008000019000005000014000000000000000000REP       President                                               Marco Rubio                           PRECINCT 42                                            01 
01050010009000010000004000006000000000000000000REP       President                                               Marco Rubio                           PRECINCT 43                                            01 
01050020001000002000002000000000000000000000000REP       President                                               Jeb Bush                              PRECINCT 11                                            01 
01050020002000002000001000001000000000000000000REP       President                                               Jeb Bush                              PRECINCT 12                                            01 
01050020003000002000002000000000000000000000000REP       President                                               Jeb Bush                              PRECINCT 21                                            01 
01050020004000000000000000000000000000000000000REP       President                                               Jeb Bush                              PRECINCT 22                                            01 
01050020005000001000001000000000000000000000000REP       President                                               Jeb Bush                              PRECINCT 31                                            01 
01050020006000002000002000000000000000000000000REP       President                                               Jeb Bush                              PRECINCT 32                                            01 
01050020007000001000001000000000000000000000000REP       President                                               Jeb Bush                              PRECINCT 41                                            01 
01050020008000005000001000004000000000000000000REP       President                                               Jeb Bush                              PRECINCT 42                                            01 
01050020009000000000000000000000000000000000000REP       President                                               Jeb Bush                              PRECINCT 43                                            01 
01050030001000003000002000001000000000000000000REP       President                                               John R. Kasich                        PRECINCT 11                                            01 
01050030002000001000000000001000000000000000000REP       President                                               John R. Kasich                        PRECINCT 12                                            01 
01050030003000005000001000004000000000000000000REP       President                                               John R. Kasich                        PRECINCT 21                                            01 
01050030004000000000000000000000000000000000000REP       President                                               John R. Kasich                        PRECINCT 22                                            01 
01050030005000006000005000001000000000000000000REP       President                                               John R. Kasich                        PRECINCT 31                                            01 
01050030006000004000003000001000000000000000000REP       President                                               John R. Kasich                        PRECINCT 32                                            01 
01050030007000008000006000002000000000000000000REP       President                                               John R. Kasich                        PRECINCT 41                                            01 
01050030008000005000001000004000000000000000000REP       President                                               John R. Kasich                        PRECINCT 42                                            01 
01050030009000001000000000001000000000000000000REP       President                                               John R. Kasich                        PRECINCT 43                                            01 
01050040001000048000020000028000000000000000000REP       President                                               Donald J. Trump                       PRECINCT 11                                            01 
01050040002000048000012000036000000000000000000REP       President                                               Donald J. Trump                       PRECINCT 12                                            01 
01050040003000060000033000027000000000000000000REP       President                                               Donald J. Trump                       PRECINCT 21                                            01 
01050040004000014000002000012000000000000000000REP       President                                               Donald J. Trump                       PRECINCT 22                                            01 
01050040005000094000051000043000000000000000000REP       President                                               Donald J. Trump                       PRECINCT 31                                            01 
01050040006000089000029000060000000000000000000REP       President                                               Donald J. Trump                       PRECINCT 32                                            01 
01050040007000035000015000020000000000000000000REP       President                                               Donald J. Trump                       PRECINCT 41                                            01 
01050040008000075000013000062000000000000000000REP       President                                               Donald J. Trump                       PRECINCT 42                                            01 
01050040009000046000019000027000000000000000000REP       President                                               Donald J. Trump                       PRECINCT 43                                            01 
01050050001000000000000000000000000000000000000REP       President                                               Elizabeth Gray                        PRECINCT 11                                            01 
01050050002000000000000000000000000000000000000REP       President                                               Elizabeth Gray                        PRECINCT 12                                            01 
01050050003000000000000000000000000000000000000REP       President                                               Elizabeth Gray                        PRECINCT 21                                            01 
01050050004000000000000000000000000000000000000REP       President                                               Elizabeth Gray                        PRECINCT 22                                            01 
01050050005000000000000000000000000000000000000REP       President                                               Elizabeth Gray                        PRECINCT 31                                            01 
01050050006000001000001000000000000000000000000REP       President                                               Elizabeth Gray                        PRECINCT 32                                            01 
01050050007000000000000000000000000000000000000REP       President                                               Elizabeth Gray                        PRECINCT 41                                            01 
01050050008000000000000000000000000000000000000REP       President                                               Elizabeth Gray                        PRECINCT 42                                            01 
01050050009000000000000000000000000000000000000REP       President                                               Elizabeth Gray                        PRECINCT 43                                            01 
01050060001000001000000000001000000000000000000REP       President                                               Ben Carson                            PRECINCT 11                                            01 
01050060002000005000001000004000000000000000000REP       President                                               Ben Carson                            PRECINCT 12                                            01 
01050060003000008000004000004000000000000000000REP       President                                               Ben Carson                            PRECINCT 21                                            01 
01050060004000003000000000003000000000000000000REP       President                                               Ben Carson                            PRECINCT 22                                            01 
01050060005000003000001000002000000000000000000REP       President                                               Ben Carson                            PRECINCT 31                                            01 
01050060006000010000004000006000000000000000000REP       President                                               Ben Carson                            PRECINCT 32                                            01 
01050060007000002000001000001000000000000000000REP       President                                               Ben Carson                            PRECINCT 41                                            01 
01050060008000005000000000005000000000000000000REP       President                                               Ben Carson                            PRECINCT 42                                            01 
01050060009000003000001000002000000000000000000REP       President                                               Ben Carson                            PRECINCT 43                                            01 
01050070001000000000000000000000000000000000000REP       President                                               Mike Huckabee                         PRECINCT 11                                            01 
01050070002000000000000000000000000000000000000REP       President                                               Mike Huckabee                         PRECINCT 12                                            01 
01050070003000000000000000000000000000000000000REP       President                                               Mike Huckabee                         PRECINCT 21                                            01 
01050070004000000000000000000000000000000000000REP       President                                               Mike Huckabee                         PRECINCT 22                                            01 
01050070005000000000000000000000000000000000000REP       President                                               Mike Huckabee                         PRECINCT 31                                            01 
01050070006000000000000000000000000000000000000REP       President                                               Mike Huckabee                         PRECINCT 32                                            01 
01050070007000000000000000000000000000000000000REP       President                                               Mike Huckabee                         PRECINCT 41                                            01 
01050070008000000000000000000000000000000000000REP       President                                               Mike Huckabee                         PRECINCT 42                                            01 
01050070009000000000000000000000000000000000000REP       President                                               Mike Huckabee                         PRECINCT 43                                            01 
01050080001000000000000000000000000000000000000REP       President                                               Chris Christie                        PRECINCT 11                                            01 
01050080002000000000000000000000000000000000000REP       President                                               Chris Christie                        PRECINCT 12                                            01 
01050080003000000000000000000000000000000000000REP       President                                               Chris Christie                        PRECINCT 21                                            01 
01050080004000000000000000000000000000000000000REP       President                                               Chris Christie                        PRECINCT 22                                            01 
01050080005000000000000000000000000000000000000REP       President                                               Chris Christie                        PRECINCT 31                                            01 
01050080006000004000001000003000000000000000000REP       President                                               Chris Christie                        PRECINCT 32                                            01 
01050080007000000000000000000000000000000000000REP       President                                               Chris Christie                        PRECINCT 41                                            01 
01050080008000000000000000000000000000000000000REP       President                                               Chris Christie                        PRECINCT 42                                            01 
01050080009000000000000000000000000000000000000REP       President                                               Chris Christie                        PRECINCT 43                                            01 
01050090001000000000000000000000000000000000000REP       President                                               Rand Paul                             PRECINCT 11                                            01 
01050090002000001000000000001000000000000000000REP       President                                               Rand Paul                             PRECINCT 12                                            01 
01050090003000001000000000001000000000000000000REP       President                                               Rand Paul                             PRECINCT 21                                            01 
01050090004000000000000000000000000000000000000REP       President                                               Rand Paul                             PRECINCT 22                                            01 
01050090005000001000000000001000000000000000000REP       President                                               Rand Paul                             PRECINCT 31                                            01 
01050090006000000000000000000000000000000000000REP       President                                               Rand Paul                             PRECINCT 32                                            01 
01050090007000001000000000001000000000000000000REP       President                                               Rand Paul                             PRECINCT 41                                            01 
01050090008000000000000000000000000000000000000REP       President                                               Rand Paul                             PRECINCT 42                                            01 
01050090009000000000000000000000000000000000000REP       President                                               Rand Paul                             PRECINCT 43                                            01 
01050100001000000000000000000000000000000000000REP       President                                               Rick Santorum                         PRECINCT 11                                            01 
01050100002000000000000000000000000000000000000REP       President                                               Rick Santorum                         PRECINCT 12                                            01 
01050100003000000000000000000000000000000000000REP       President                                               Rick Santorum                         PRECINCT 21                                            01 
01050100004000000000000000000000000000000000000REP       President                                               Rick Santorum                         PRECINCT 22                                            01 
01050100005000001000001000000000000000000000000REP       President                                               Rick Santorum                         PRECINCT 31                                            01 
01050100006000000000000000000000000000000000000REP       President                                               Rick Santorum                         PRECINCT 32                                            01 
01050100007000000000000000000000000000000000000REP       President                                               Rick Santorum                         PRECINCT 41                                            01 
01050100008000000000000000000000000000000000000REP       President                                               Rick Santorum                         PRECINCT 42                                            01 
01050100009000000000000000000000000000000000000REP       President                                               Rick Santorum                         PRECINCT 43                                            01 
01050110001000000000000000000000000000000000000REP       President                                               Lindsey Graham                        PRECINCT 11                                            01 
01050110002000000000000000000000000000000000000REP       President                                               Lindsey Graham                        PRECINCT 12                                            01 
01050110003000000000000000000000000000000000000REP       President                                               Lindsey Graham                        PRECINCT 21                                            01 
01050110004000000000000000000000000000000000000REP       President                                               Lindsey Graham                        PRECINCT 22                                            01 
01050110005000000000000000000000000000000000000REP       President                                               Lindsey Graham                        PRECINCT 31                                            01 
01050110006000000000000000000000000000000000000REP       President                                               Lindsey Graham                        PRECINCT 32                                            01 
01050110007000000000000000000000000000000000000REP       President                                               Lindsey Graham                        PRECINCT 41                                            01 
01050110008000000000000000000000000000000000000REP       President                                               Lindsey Graham                        PRECINCT 42                                            01 
01050110009000000000000000000000000000000000000REP       President                                               Lindsey Graham                        PRECINCT 43                                            01 
01050120001000072000023000049000000000000000000REP       President                                               Ted Cruz                              PRECINCT 11                                            01 
01050120002000069000021000048000000000000000000REP       President                                               Ted Cruz                              PRECINCT 12                                            01 
01050120003000086000043000043000000000000000000REP       President                                               Ted Cruz                              PRECINCT 21                                            01 
01050120004000025000004000021000000000000000000REP       President                                               Ted Cruz                              PRECINCT 22                                            01 
01050120005000136000057000079000000000000000000REP       President                                               Ted Cruz                              PRECINCT 31                                            01 
01050120006000113000033000080000000000000000000REP       President                                               Ted Cruz                              PRECINCT 32                                            01 
01050120007000083000021000062000000000000000000REP       President                                               Ted Cruz                              PRECINCT 41                                            01 
01050120008000090000008000082000000000000000000REP       President                                               Ted Cruz                              PRECINCT 42                                            01 
01050120009000074000027000047000000000000000000REP       President                                               Ted Cruz                              PRECINCT 43                                            01 
01050130001000000000000000000000000000000000000REP       President                                               Carly Fiorina                         PRECINCT 11                                            01 
01050130002000000000000000000000000000000000000REP       President                                               Carly Fiorina                         PRECINCT 12                                            01 
01050130003000000000000000000000000000000000000REP       President                                               Carly Fiorina                         PRECINCT 21                                            01 
01050130004000000000000000000000000000000000000REP       President                                               Carly Fiorina                         PRECINCT 22                                            01 
01050130005000001000000000001000000000000000000REP       President                                               Carly Fiorina                         PRECINCT 31                                            01 
01050130006000001000000000001000000000000000000REP       President                                               Carly Fiorina                         PRECINCT 32                                            01 
01050130007000000000000000000000000000000000000REP       President                                               Carly Fiorina                         PRECINCT 41                                            01 
01050130008000000000000000000000000000000000000REP       President                                               Carly Fiorina                         PRECINCT 42                                            01 
01050130009000000000000000000000000000000000000REP       President                                               Carly Fiorina                         PRECINCT 43                                            01 
01050140001000002000001000001000000000000000000REP       President                                               Uncommitted                           PRECINCT 11                                            01 
01050140002000001000000000001000000000000000000REP       President                                               Uncommitted                           PRECINCT 12                                            01 
01050140003000005000002000003000000000000000000REP       President                                               Uncommitted                           PRECINCT 21                                            01 
01050140004000000000000000000000000000000000000REP       President                                               Uncommitted                           PRECINCT 22                                            01 
01050140005000002000001000001000000000000000000REP       President                                               Uncommitted                           PRECINCT 31                                            01 
01050140006000003000001000002000000000000000000REP       President                                               Uncommitted                           PRECINCT 32                                            01 
01050140007000002000000000002000000000000000000REP       President                                               Uncommitted                           PRECINCT 41                                            01 
01050140008000000000000000000000000000000000000REP       President                                               Uncommitted                           PRECINCT 42                                            01 
01050140009000002000000000002000000000000000000REP       President                                               Uncommitted                           PRECINCT 43                                            01 
01050150001000000000000000000000000000000000000REP       President                                               OVER VOTES                            PRECINCT 11                                            01 
01050150002000000000000000000000000000000000000REP       President                                               OVER VOTES                            PRECINCT 12                                            01 
01050150003000000000000000000000000000000000000REP       President                                               OVER VOTES                            PRECINCT 21                                            01 
01050150004000000000000000000000000000000000000REP       President                                               OVER VOTES                            PRECINCT 22                                            01 
01050150005000000000000000000000000000000000000REP       President                                               OVER VOTES                            PRECINCT 31                                            01 
01050150006000000000000000000000000000000000000REP       President                                               OVER VOTES                            PRECINCT 32                                            01 
01050150007000000000000000000000000000000000000REP       President                                               OVER VOTES                            PRECINCT 41                                            01 
01050150008000000000000000000000000000000000000REP       President                                               OVER VOTES                            PRECINCT 42                                            01 
01050150009000000000000000000000000000000000000REP       President                                               OVER VOTES                            PRECINCT 43                                            01 
01050160001000002000001000001000000000000000000REP       President                                               UNDER VOTES                           PRECINCT 11                                            01 
01050160002000000000000000000000000000000000000REP       President                                               UNDER VOTES                           PRECINCT 12                                            01 
01050160003000004000003000001000000000000000000REP       President                                               UNDER VOTES                           PRECINCT 21                                            01 
01050160004000000000000000000000000000000000000REP       President                                               UNDER VOTES                           PRECINCT 22                                            01 
01050160005000003000002000001000000000000000000REP       President                                               UNDER VOTES                           PRECINCT 31                                            01 
01050160006000003000002000001000000000000000000REP       President                                               UNDER VOTES                           PRECINCT 32                                            01 
01050160007000000000000000000000000000000000000REP       President                                               UNDER VOTES                           PRECINCT 41                                            01 
01050160008000000000000000000000000000000000000REP       President                                               UNDER VOTES                           PRECINCT 42                                            01 
01050160009000001000000000001000000000000000000REP       President                                               UNDER VOTES                           PRECINCT 43                                            01 
01060010001000034000017000017000000000000000000REP       United States Representative, Dist 34                   Rey Gonzalez, Jr.                     PRECINCT 11                                            01 
01060010002000030000009000021000000000000000000REP       United States Representative, Dist 34                   Rey Gonzalez, Jr.                     PRECINCT 12                                            01 
01060010003000068000033000035000000000000000000REP       United States Representative, Dist 34                   Rey Gonzalez, Jr.                     PRECINCT 21                                            01 
01060010004000009000001000008000000000000000000REP       United States Representative, Dist 34                   Rey Gonzalez, Jr.                     PRECINCT 22                                            01 
01060010005000076000037000039000000000000000000REP       United States Representative, Dist 34                   Rey Gonzalez, Jr.                     PRECINCT 31                                            01 
01060010006000061000023000038000000000000000000REP       United States Representative, Dist 34                   Rey Gonzalez, Jr.                     PRECINCT 32                                            01 
01060010007000038000012000026000000000000000000REP       United States Representative, Dist 34                   Rey Gonzalez, Jr.                     PRECINCT 41                                            01 
01060010008000051000004000047000000000000000000REP       United States Representative, Dist 34                   Rey Gonzalez, Jr.                     PRECINCT 42                                            01 
01060010009000030000013000017000000000000000000REP       United States Representative, Dist 34                   Rey Gonzalez, Jr.                     PRECINCT 43                                            01 
01060020001000069000020000049000000000000000000REP       United States Representative, Dist 34                   William "Willie" Vaden                PRECINCT 11                                            01 
01060020002000091000027000064000000000000000000REP       United States Representative, Dist 34                   William "Willie" Vaden                PRECINCT 12                                            01 
01060020003000088000045000043000000000000000000REP       United States Representative, Dist 34                   William "Willie" Vaden                PRECINCT 21                                            01 
01060020004000025000004000021000000000000000000REP       United States Representative, Dist 34                   William "Willie" Vaden                PRECINCT 22                                            01 
01060020005000136000065000071000000000000000000REP       United States Representative, Dist 34                   William "Willie" Vaden                PRECINCT 31                                            01 
01060020006000129000044000085000000000000000000REP       United States Representative, Dist 34                   William "Willie" Vaden                PRECINCT 32                                            01 
01060020007000067000016000051000000000000000000REP       United States Representative, Dist 34                   William "Willie" Vaden                PRECINCT 41                                            01 
01060020008000113000018000095000000000000000000REP       United States Representative, Dist 34                   William "Willie" Vaden                PRECINCT 42                                            01 
01060020009000081000031000050000000000000000000REP       United States Representative, Dist 34                   William "Willie" Vaden                PRECINCT 43                                            01 
01060030001000000000000000000000000000000000000REP       United States Representative, Dist 34                   OVER VOTES                            PRECINCT 11                                            01 
01060030002000000000000000000000000000000000000REP       United States Representative, Dist 34                   OVER VOTES                            PRECINCT 12                                            01 
01060030003000000000000000000000000000000000000REP       United States Representative, Dist 34                   OVER VOTES                            PRECINCT 21                                            01 
01060030004000000000000000000000000000000000000REP       United States Representative, Dist 34                   OVER VOTES                            PRECINCT 22                                            01 
01060030005000000000000000000000000000000000000REP       United States Representative, Dist 34                   OVER VOTES                            PRECINCT 31                                            01 
01060030006000000000000000000000000000000000000REP       United States Representative, Dist 34                   OVER VOTES                            PRECINCT 32                                            01 
01060030007000000000000000000000000000000000000REP       United States Representative, Dist 34                   OVER VOTES                            PRECINCT 41                                            01 
01060030008000000000000000000000000000000000000REP       United States Representative, Dist 34                   OVER VOTES                            PRECINCT 42                                            01 
01060030009000000000000000000000000000000000000REP       United States Representative, Dist 34                   OVER VOTES                            PRECINCT 43                                            01 
01060040001000044000016000028000000000000000000REP       United States Representative, Dist 34                   UNDER VOTES                           PRECINCT 11                                            01 
01060040002000023000007000016000000000000000000REP       United States Representative, Dist 34                   UNDER VOTES                           PRECINCT 12                                            01 
01060040003000048000022000026000000000000000000REP       United States Representative, Dist 34                   UNDER VOTES                           PRECINCT 21                                            01 
01060040004000015000001000014000000000000000000REP       United States Representative, Dist 34                   UNDER VOTES                           PRECINCT 22                                            01 
01060040005000065000036000029000000000000000000REP       United States Representative, Dist 34                   UNDER VOTES                           PRECINCT 31                                            01 
01060040006000073000022000051000000000000000000REP       United States Representative, Dist 34                   UNDER VOTES                           PRECINCT 32                                            01 
01060040007000038000018000020000000000000000000REP       United States Representative, Dist 34                   UNDER VOTES                           PRECINCT 41                                            01 
01060040008000035000006000029000000000000000000REP       United States Representative, Dist 34                   UNDER VOTES                           PRECINCT 42                                            01 
01060040009000026000007000019000000000000000000REP       United States Representative, Dist 34                   UNDER VOTES                           PRECINCT 43                                            01 
01070010001000003000003000000000000000000000000REP       Railroad Commissioner                                   Weston Martinez                       PRECINCT 11                                            01 
01070010002000007000000000007000000000000000000REP       Railroad Commissioner                                   Weston Martinez                       PRECINCT 12                                            01 
01070010003000012000008000004000000000000000000REP       Railroad Commissioner                                   Weston Martinez                       PRECINCT 21                                            01 
01070010004000001000000000001000000000000000000REP       Railroad Commissioner                                   Weston Martinez                       PRECINCT 22                                            01 
01070010005000023000013000010000000000000000000REP       Railroad Commissioner                                   Weston Martinez                       PRECINCT 31                                            01 
01070010006000004000003000001000000000000000000REP       Railroad Commissioner                                   Weston Martinez                       PRECINCT 32                                            01 
01070010007000010000003000007000000000000000000REP       Railroad Commissioner                                   Weston Martinez                       PRECINCT 41                                            01 
01070010008000007000000000007000000000000000000REP       Railroad Commissioner                                   Weston Martinez                       PRECINCT 42                                            01 
01070010009000003000001000002000000000000000000REP       Railroad Commissioner                                   Weston Martinez                       PRECINCT 43                                            01 
01070020001000004000003000001000000000000000000REP       Railroad Commissioner                                   John Greytok                          PRECINCT 11                                            01 
01070020002000012000001000011000000000000000000REP       Railroad Commissioner                                   John Greytok                          PRECINCT 12                                            01 
01070020003000009000002000007000000000000000000REP       Railroad Commissioner                                   John Greytok                          PRECINCT 21                                            01 
01070020004000006000000000006000000000000000000REP       Railroad Commissioner                                   John Greytok                          PRECINCT 22                                            01 
01070020005000004000000000004000000000000000000REP       Railroad Commissioner                                   John Greytok                          PRECINCT 31                                            01 
01070020006000009000002000007000000000000000000REP       Railroad Commissioner                                   John Greytok                          PRECINCT 32                                            01 
01070020007000003000000000003000000000000000000REP       Railroad Commissioner                                   John Greytok                          PRECINCT 41                                            01 
01070020008000012000002000010000000000000000000REP       Railroad Commissioner                                   John Greytok                          PRECINCT 42                                            01 
01070020009000007000003000004000000000000000000REP       Railroad Commissioner                                   John Greytok                          PRECINCT 43                                            01 
01070030001000009000002000007000000000000000000REP       Railroad Commissioner                                   Doug Jeffrey                          PRECINCT 11                                            01 
01070030002000015000005000010000000000000000000REP       Railroad Commissioner                                   Doug Jeffrey                          PRECINCT 12                                            01 
01070030003000011000005000006000000000000000000REP       Railroad Commissioner                                   Doug Jeffrey                          PRECINCT 21                                            01 
01070030004000002000000000002000000000000000000REP       Railroad Commissioner                                   Doug Jeffrey                          PRECINCT 22                                            01 
01070030005000015000006000009000000000000000000REP       Railroad Commissioner                                   Doug Jeffrey                          PRECINCT 31                                            01 
01070030006000013000007000006000000000000000000REP       Railroad Commissioner                                   Doug Jeffrey                          PRECINCT 32                                            01 
01070030007000004000000000004000000000000000000REP       Railroad Commissioner                                   Doug Jeffrey                          PRECINCT 41                                            01 
01070030008000011000001000010000000000000000000REP       Railroad Commissioner                                   Doug Jeffrey                          PRECINCT 42                                            01 
01070030009000002000000000002000000000000000000REP       Railroad Commissioner                                   Doug Jeffrey                          PRECINCT 43                                            01 
01070040001000015000001000014000000000000000000REP       Railroad Commissioner                                   Ron Hale                              PRECINCT 11                                            01 
01070040002000018000006000012000000000000000000REP       Railroad Commissioner                                   Ron Hale                              PRECINCT 12                                            01 
01070040003000024000008000016000000000000000000REP       Railroad Commissioner                                   Ron Hale                              PRECINCT 21                                            01 
01070040004000007000002000005000000000000000000REP       Railroad Commissioner                                   Ron Hale                              PRECINCT 22                                            01 
01070040005000027000012000015000000000000000000REP       Railroad Commissioner                                   Ron Hale                              PRECINCT 31                                            01 
01070040006000034000007000027000000000000000000REP       Railroad Commissioner                                   Ron Hale                              PRECINCT 32                                            01 
01070040007000014000003000011000000000000000000REP       Railroad Commissioner                                   Ron Hale                              PRECINCT 41                                            01 
01070040008000024000003000021000000000000000000REP       Railroad Commissioner                                   Ron Hale                              PRECINCT 42                                            01 
01070040009000024000006000018000000000000000000REP       Railroad Commissioner                                   Ron Hale                              PRECINCT 43                                            01 
01070050001000018000013000005000000000000000000REP       Railroad Commissioner                                   Wayne Christian                       PRECINCT 11                                            01 
01070050002000012000010000002000000000000000000REP       Railroad Commissioner                                   Wayne Christian                       PRECINCT 12                                            01 
01070050003000023000011000012000000000000000000REP       Railroad Commissioner                                   Wayne Christian                       PRECINCT 21                                            01 
01070050004000003000001000002000000000000000000REP       Railroad Commissioner                                   Wayne Christian                       PRECINCT 22                                            01 
01070050005000026000014000012000000000000000000REP       Railroad Commissioner                                   Wayne Christian                       PRECINCT 31                                            01 
01070050006000025000007000018000000000000000000REP       Railroad Commissioner                                   Wayne Christian                       PRECINCT 32                                            01 
01070050007000010000003000007000000000000000000REP       Railroad Commissioner                                   Wayne Christian                       PRECINCT 41                                            01 
01070050008000014000002000012000000000000000000REP       Railroad Commissioner                                   Wayne Christian                       PRECINCT 42                                            01 
01070050009000014000008000006000000000000000000REP       Railroad Commissioner                                   Wayne Christian                       PRECINCT 43                                            01 
01070060001000051000016000035000000000000000000REP       Railroad Commissioner                                   Gary Gates                            PRECINCT 11                                            01 
01070060002000042000011000031000000000000000000REP       Railroad Commissioner                                   Gary Gates                            PRECINCT 12                                            01 
01070060003000064000035000029000000000000000000REP       Railroad Commissioner                                   Gary Gates                            PRECINCT 21                                            01 
01070060004000013000001000012000000000000000000REP       Railroad Commissioner                                   Gary Gates                            PRECINCT 22                                            01 
01070060005000105000053000052000000000000000000REP       Railroad Commissioner                                   Gary Gates                            PRECINCT 31                                            01 
01070060006000105000042000063000000000000000000REP       Railroad Commissioner                                   Gary Gates                            PRECINCT 32                                            01 
01070060007000058000019000039000000000000000000REP       Railroad Commissioner                                   Gary Gates                            PRECINCT 41                                            01 
01070060008000090000014000076000000000000000000REP       Railroad Commissioner                                   Gary Gates                            PRECINCT 42                                            01 
01070060009000049000022000027000000000000000000REP       Railroad Commissioner                                   Gary Gates                            PRECINCT 43                                            01 
01070070001000004000003000001000000000000000000REP       Railroad Commissioner                                   Lance N. Christian                    PRECINCT 11                                            01 
01070070002000009000003000006000000000000000000REP       Railroad Commissioner                                   Lance N. Christian                    PRECINCT 12                                            01 
01070070003000013000006000007000000000000000000REP       Railroad Commissioner                                   Lance N. Christian                    PRECINCT 21                                            01 
01070070004000003000000000003000000000000000000REP       Railroad Commissioner                                   Lance N. Christian                    PRECINCT 22                                            01 
01070070005000012000007000005000000000000000000REP       Railroad Commissioner                                   Lance N. Christian                    PRECINCT 31                                            01 
01070070006000009000001000008000000000000000000REP       Railroad Commissioner                                   Lance N. Christian                    PRECINCT 32                                            01 
01070070007000004000000000004000000000000000000REP       Railroad Commissioner                                   Lance N. Christian                    PRECINCT 41                                            01 
01070070008000006000001000005000000000000000000REP       Railroad Commissioner                                   Lance N. Christian                    PRECINCT 42                                            01 
01070070009000003000001000002000000000000000000REP       Railroad Commissioner                                   Lance N. Christian                    PRECINCT 43                                            01 
01070080001000000000000000000000000000000000000REP       Railroad Commissioner                                   OVER VOTES                            PRECINCT 11                                            01 
01070080002000000000000000000000000000000000000REP       Railroad Commissioner                                   OVER VOTES                            PRECINCT 12                                            01 
01070080003000000000000000000000000000000000000REP       Railroad Commissioner                                   OVER VOTES                            PRECINCT 21                                            01 
01070080004000000000000000000000000000000000000REP       Railroad Commissioner                                   OVER VOTES                            PRECINCT 22                                            01 
01070080005000000000000000000000000000000000000REP       Railroad Commissioner                                   OVER VOTES                            PRECINCT 31                                            01 
01070080006000000000000000000000000000000000000REP       Railroad Commissioner                                   OVER VOTES                            PRECINCT 32                                            01 
01070080007000000000000000000000000000000000000REP       Railroad Commissioner                                   OVER VOTES                            PRECINCT 41                                            01 
01070080008000000000000000000000000000000000000REP       Railroad Commissioner                                   OVER VOTES                            PRECINCT 42                                            01 
01070080009000000000000000000000000000000000000REP       Railroad Commissioner                                   OVER VOTES                            PRECINCT 43                                            01 
01070090001000043000012000031000000000000000000REP       Railroad Commissioner                                   UNDER VOTES                           PRECINCT 11                                            01 
01070090002000029000007000022000000000000000000REP       Railroad Commissioner                                   UNDER VOTES                           PRECINCT 12                                            01 
01070090003000048000025000023000000000000000000REP       Railroad Commissioner                                   UNDER VOTES                           PRECINCT 21                                            01 
01070090004000014000002000012000000000000000000REP       Railroad Commissioner                                   UNDER VOTES                           PRECINCT 22                                            01 
01070090005000065000033000032000000000000000000REP       Railroad Commissioner                                   UNDER VOTES                           PRECINCT 31                                            01 
01070090006000064000020000044000000000000000000REP       Railroad Commissioner                                   UNDER VOTES                           PRECINCT 32                                            01 
01070090007000040000018000022000000000000000000REP       Railroad Commissioner                                   UNDER VOTES                           PRECINCT 41                                            01 
01070090008000035000005000030000000000000000000REP       Railroad Commissioner                                   UNDER VOTES                           PRECINCT 42                                            01 
01070090009000035000010000025000000000000000000REP       Railroad Commissioner                                   UNDER VOTES                           PRECINCT 43                                            01 
01080010001000065000029000036000000000000000000REP       Justice, Supreme Court, Place 3                         Debra Lehrmann                        PRECINCT 11                                            01 
01080010002000068000022000046000000000000000000REP       Justice, Supreme Court, Place 3                         Debra Lehrmann                        PRECINCT 12                                            01 
01080010003000102000051000051000000000000000000REP       Justice, Supreme Court, Place 3                         Debra Lehrmann                        PRECINCT 21                                            01 
01080010004000018000002000016000000000000000000REP       Justice, Supreme Court, Place 3                         Debra Lehrmann                        PRECINCT 22                                            01 
01080010005000101000052000049000000000000000000REP       Justice, Supreme Court, Place 3                         Debra Lehrmann                        PRECINCT 31                                            01 
01080010006000118000047000071000000000000000000REP       Justice, Supreme Court, Place 3                         Debra Lehrmann                        PRECINCT 32                                            01 
01080010007000057000013000044000000000000000000REP       Justice, Supreme Court, Place 3                         Debra Lehrmann                        PRECINCT 41                                            01 
01080010008000091000011000080000000000000000000REP       Justice, Supreme Court, Place 3                         Debra Lehrmann                        PRECINCT 42                                            01 
01080010009000053000022000031000000000000000000REP       Justice, Supreme Court, Place 3                         Debra Lehrmann                        PRECINCT 43                                            01 
01080020001000042000013000029000000000000000000REP       Justice, Supreme Court, Place 3                         Michael Massengale                    PRECINCT 11                                            01 
01080020002000049000015000034000000000000000000REP       Justice, Supreme Court, Place 3                         Michael Massengale                    PRECINCT 12                                            01 
01080020003000052000023000029000000000000000000REP       Justice, Supreme Court, Place 3                         Michael Massengale                    PRECINCT 21                                            01 
01080020004000016000003000013000000000000000000REP       Justice, Supreme Court, Place 3                         Michael Massengale                    PRECINCT 22                                            01 
01080020005000096000041000055000000000000000000REP       Justice, Supreme Court, Place 3                         Michael Massengale                    PRECINCT 31                                            01 
01080020006000068000018000050000000000000000000REP       Justice, Supreme Court, Place 3                         Michael Massengale                    PRECINCT 32                                            01 
01080020007000043000012000031000000000000000000REP       Justice, Supreme Court, Place 3                         Michael Massengale                    PRECINCT 41                                            01 
01080020008000065000011000054000000000000000000REP       Justice, Supreme Court, Place 3                         Michael Massengale                    PRECINCT 42                                            01 
01080020009000045000018000027000000000000000000REP       Justice, Supreme Court, Place 3                         Michael Massengale                    PRECINCT 43                                            01 
01080030001000000000000000000000000000000000000REP       Justice, Supreme Court, Place 3                         OVER VOTES                            PRECINCT 11                                            01 
01080030002000000000000000000000000000000000000REP       Justice, Supreme Court, Place 3                         OVER VOTES                            PRECINCT 12                                            01 
01080030003000000000000000000000000000000000000REP       Justice, Supreme Court, Place 3                         OVER VOTES                            PRECINCT 21                                            01 
01080030004000000000000000000000000000000000000REP       Justice, Supreme Court, Place 3                         OVER VOTES                            PRECINCT 22                                            01 
01080030005000000000000000000000000000000000000REP       Justice, Supreme Court, Place 3                         OVER VOTES                            PRECINCT 31                                            01 
01080030006000000000000000000000000000000000000REP       Justice, Supreme Court, Place 3                         OVER VOTES                            PRECINCT 32                                            01 
01080030007000000000000000000000000000000000000REP       Justice, Supreme Court, Place 3                         OVER VOTES                            PRECINCT 41                                            01 
01080030008000000000000000000000000000000000000REP       Justice, Supreme Court, Place 3                         OVER VOTES                            PRECINCT 42                                            01 
01080030009000000000000000000000000000000000000REP       Justice, Supreme Court, Place 3                         OVER VOTES                            PRECINCT 43                                            01 
01080040001000040000011000029000000000000000000REP       Justice, Supreme Court, Place 3                         UNDER VOTES                           PRECINCT 11                                            01 
01080040002000027000006000021000000000000000000REP       Justice, Supreme Court, Place 3                         UNDER VOTES                           PRECINCT 12                                            01 
01080040003000052000026000026000000000000000000REP       Justice, Supreme Court, Place 3                         UNDER VOTES                           PRECINCT 21                                            01 
01080040004000015000001000014000000000000000000REP       Justice, Supreme Court, Place 3                         UNDER VOTES                           PRECINCT 22                                            01 
01080040005000080000045000035000000000000000000REP       Justice, Supreme Court, Place 3                         UNDER VOTES                           PRECINCT 31                                            01 
01080040006000077000024000053000000000000000000REP       Justice, Supreme Court, Place 3                         UNDER VOTES                           PRECINCT 32                                            01 
01080040007000043000021000022000000000000000000REP       Justice, Supreme Court, Place 3                         UNDER VOTES                           PRECINCT 41                                            01 
01080040008000043000006000037000000000000000000REP       Justice, Supreme Court, Place 3                         UNDER VOTES                           PRECINCT 42                                            01 
01080040009000039000011000028000000000000000000REP       Justice, Supreme Court, Place 3                         UNDER VOTES                           PRECINCT 43                                            01 
01090010001000056000022000034000000000000000000REP       Justice, Supreme Court, Place 5                         Rick Green                            PRECINCT 11                                            01 
01090010002000062000023000039000000000000000000REP       Justice, Supreme Court, Place 5                         Rick Green                            PRECINCT 12                                            01 
01090010003000061000024000037000000000000000000REP       Justice, Supreme Court, Place 5                         Rick Green                            PRECINCT 21                                            01 
01090010004000018000003000015000000000000000000REP       Justice, Supreme Court, Place 5                         Rick Green                            PRECINCT 22                                            01 
01090010005000092000037000055000000000000000000REP       Justice, Supreme Court, Place 5                         Rick Green                            PRECINCT 31                                            01 
01090010006000104000034000070000000000000000000REP       Justice, Supreme Court, Place 5                         Rick Green                            PRECINCT 32                                            01 
01090010007000051000012000039000000000000000000REP       Justice, Supreme Court, Place 5                         Rick Green                            PRECINCT 41                                            01 
01090010008000085000009000076000000000000000000REP       Justice, Supreme Court, Place 5                         Rick Green                            PRECINCT 42                                            01 
01090010009000046000015000031000000000000000000REP       Justice, Supreme Court, Place 5                         Rick Green                            PRECINCT 43                                            01 
01090020001000043000016000027000000000000000000REP       Justice, Supreme Court, Place 5                         Paul Green                            PRECINCT 11                                            01 
01090020002000052000013000039000000000000000000REP       Justice, Supreme Court, Place 5                         Paul Green                            PRECINCT 12                                            01 
01090020003000076000043000033000000000000000000REP       Justice, Supreme Court, Place 5                         Paul Green                            PRECINCT 21                                            01 
01090020004000021000003000018000000000000000000REP       Justice, Supreme Court, Place 5                         Paul Green                            PRECINCT 22                                            01 
01090020005000093000055000038000000000000000000REP       Justice, Supreme Court, Place 5                         Paul Green                            PRECINCT 31                                            01 
01090020006000072000026000046000000000000000000REP       Justice, Supreme Court, Place 5                         Paul Green                            PRECINCT 32                                            01 
01090020007000045000011000034000000000000000000REP       Justice, Supreme Court, Place 5                         Paul Green                            PRECINCT 41                                            01 
01090020008000062000012000050000000000000000000REP       Justice, Supreme Court, Place 5                         Paul Green                            PRECINCT 42                                            01 
01090020009000052000023000029000000000000000000REP       Justice, Supreme Court, Place 5                         Paul Green                            PRECINCT 43                                            01 
01090030001000000000000000000000000000000000000REP       Justice, Supreme Court, Place 5                         OVER VOTES                            PRECINCT 11                                            01 
01090030002000000000000000000000000000000000000REP       Justice, Supreme Court, Place 5                         OVER VOTES                            PRECINCT 12                                            01 
01090030003000000000000000000000000000000000000REP       Justice, Supreme Court, Place 5                         OVER VOTES                            PRECINCT 21                                            01 
01090030004000000000000000000000000000000000000REP       Justice, Supreme Court, Place 5                         OVER VOTES                            PRECINCT 22                                            01 
01090030005000000000000000000000000000000000000REP       Justice, Supreme Court, Place 5                         OVER VOTES                            PRECINCT 31                                            01 
01090030006000000000000000000000000000000000000REP       Justice, Supreme Court, Place 5                         OVER VOTES                            PRECINCT 32                                            01 
01090030007000000000000000000000000000000000000REP       Justice, Supreme Court, Place 5                         OVER VOTES                            PRECINCT 41                                            01 
01090030008000000000000000000000000000000000000REP       Justice, Supreme Court, Place 5                         OVER VOTES                            PRECINCT 42                                            01 
01090030009000000000000000000000000000000000000REP       Justice, Supreme Court, Place 5                         OVER VOTES                            PRECINCT 43                                            01 
01090040001000048000015000033000000000000000000REP       Justice, Supreme Court, Place 5                         UNDER VOTES                           PRECINCT 11                                            01 
01090040002000030000007000023000000000000000000REP       Justice, Supreme Court, Place 5                         UNDER VOTES                           PRECINCT 12                                            01 
01090040003000067000033000034000000000000000000REP       Justice, Supreme Court, Place 5                         UNDER VOTES                           PRECINCT 21                                            01 
01090040004000010000000000010000000000000000000REP       Justice, Supreme Court, Place 5                         UNDER VOTES                           PRECINCT 22                                            01 
01090040005000092000046000046000000000000000000REP       Justice, Supreme Court, Place 5                         UNDER VOTES                           PRECINCT 31                                            01 
01090040006000087000029000058000000000000000000REP       Justice, Supreme Court, Place 5                         UNDER VOTES                           PRECINCT 32                                            01 
01090040007000047000023000024000000000000000000REP       Justice, Supreme Court, Place 5                         UNDER VOTES                           PRECINCT 41                                            01 
01090040008000052000007000045000000000000000000REP       Justice, Supreme Court, Place 5                         UNDER VOTES                           PRECINCT 42                                            01 
01090040009000039000013000026000000000000000000REP       Justice, Supreme Court, Place 5                         UNDER VOTES                           PRECINCT 43                                            01 
01100010001000063000018000045000000000000000000REP       Justice, Supreme Court, Place 9                         Joe Pool                              PRECINCT 11                                            01 
01100010002000079000021000058000000000000000000REP       Justice, Supreme Court, Place 9                         Joe Pool                              PRECINCT 12                                            01 
01100010003000066000032000034000000000000000000REP       Justice, Supreme Court, Place 9                         Joe Pool                              PRECINCT 21                                            01 
01100010004000026000005000021000000000000000000REP       Justice, Supreme Court, Place 9                         Joe Pool                              PRECINCT 22                                            01 
01100010005000135000063000072000000000000000000REP       Justice, Supreme Court, Place 9                         Joe Pool                              PRECINCT 31                                            01 
01100010006000121000041000080000000000000000000REP       Justice, Supreme Court, Place 9                         Joe Pool                              PRECINCT 32                                            01 
01100010007000060000014000046000000000000000000REP       Justice, Supreme Court, Place 9                         Joe Pool                              PRECINCT 41                                            01 
01100010008000100000015000085000000000000000000REP       Justice, Supreme Court, Place 9                         Joe Pool                              PRECINCT 42                                            01 
01100010009000054000014000040000000000000000000REP       Justice, Supreme Court, Place 9                         Joe Pool                              PRECINCT 43                                            01 
01100020001000044000023000021000000000000000000REP       Justice, Supreme Court, Place 9                         Eva Guzman                            PRECINCT 11                                            01 
01100020002000037000015000022000000000000000000REP       Justice, Supreme Court, Place 9                         Eva Guzman                            PRECINCT 12                                            01 
01100020003000085000041000044000000000000000000REP       Justice, Supreme Court, Place 9                         Eva Guzman                            PRECINCT 21                                            01 
01100020004000009000000000009000000000000000000REP       Justice, Supreme Court, Place 9                         Eva Guzman                            PRECINCT 22                                            01 
01100020005000069000039000030000000000000000000REP       Justice, Supreme Court, Place 9                         Eva Guzman                            PRECINCT 31                                            01 
01100020006000067000024000043000000000000000000REP       Justice, Supreme Court, Place 9                         Eva Guzman                            PRECINCT 32                                            01 
01100020007000043000010000033000000000000000000REP       Justice, Supreme Court, Place 9                         Eva Guzman                            PRECINCT 41                                            01 
01100020008000055000008000047000000000000000000REP       Justice, Supreme Court, Place 9                         Eva Guzman                            PRECINCT 42                                            01 
01100020009000049000024000025000000000000000000REP       Justice, Supreme Court, Place 9                         Eva Guzman                            PRECINCT 43                                            01 
01100030001000000000000000000000000000000000000REP       Justice, Supreme Court, Place 9                         OVER VOTES                            PRECINCT 11                                            01 
01100030002000000000000000000000000000000000000REP       Justice, Supreme Court, Place 9                         OVER VOTES                            PRECINCT 12                                            01 
01100030003000000000000000000000000000000000000REP       Justice, Supreme Court, Place 9                         OVER VOTES                            PRECINCT 21                                            01 
01100030004000000000000000000000000000000000000REP       Justice, Supreme Court, Place 9                         OVER VOTES                            PRECINCT 22                                            01 
01100030005000000000000000000000000000000000000REP       Justice, Supreme Court, Place 9                         OVER VOTES                            PRECINCT 31                                            01 
01100030006000000000000000000000000000000000000REP       Justice, Supreme Court, Place 9                         OVER VOTES                            PRECINCT 32                                            01 
01100030007000000000000000000000000000000000000REP       Justice, Supreme Court, Place 9                         OVER VOTES                            PRECINCT 41                                            01 
01100030008000000000000000000000000000000000000REP       Justice, Supreme Court, Place 9                         OVER VOTES                            PRECINCT 42                                            01 
01100030009000000000000000000000000000000000000REP       Justice, Supreme Court, Place 9                         OVER VOTES                            PRECINCT 43                                            01 
01100040001000040000012000028000000000000000000REP       Justice, Supreme Court, Place 9                         UNDER VOTES                           PRECINCT 11                                            01 
01100040002000028000007000021000000000000000000REP       Justice, Supreme Court, Place 9                         UNDER VOTES                           PRECINCT 12                                            01 
01100040003000053000027000026000000000000000000REP       Justice, Supreme Court, Place 9                         UNDER VOTES                           PRECINCT 21                                            01 
01100040004000014000001000013000000000000000000REP       Justice, Supreme Court, Place 9                         UNDER VOTES                           PRECINCT 22                                            01 
01100040005000073000036000037000000000000000000REP       Justice, Supreme Court, Place 9                         UNDER VOTES                           PRECINCT 31                                            01 
01100040006000075000024000051000000000000000000REP       Justice, Supreme Court, Place 9                         UNDER VOTES                           PRECINCT 32                                            01 
01100040007000040000022000018000000000000000000REP       Justice, Supreme Court, Place 9                         UNDER VOTES                           PRECINCT 41                                            01 
01100040008000044000005000039000000000000000000REP       Justice, Supreme Court, Place 9                         UNDER VOTES                           PRECINCT 42                                            01 
01100040009000034000013000021000000000000000000REP       Justice, Supreme Court, Place 9                         UNDER VOTES                           PRECINCT 43                                            01 
01110010001000050000016000034000000000000000000REP       Judge, Court of Criminal Appeals, Pl 2                  Mary Lou Keel                         PRECINCT 11                                            01 
01110010002000048000017000031000000000000000000REP       Judge, Court of Criminal Appeals, Pl 2                  Mary Lou Keel                         PRECINCT 12                                            01 
01110010003000069000038000031000000000000000000REP       Judge, Court of Criminal Appeals, Pl 2                  Mary Lou Keel                         PRECINCT 21                                            01 
01110010004000010000002000008000000000000000000REP       Judge, Court of Criminal Appeals, Pl 2                  Mary Lou Keel                         PRECINCT 22                                            01 
01110010005000071000035000036000000000000000000REP       Judge, Court of Criminal Appeals, Pl 2                  Mary Lou Keel                         PRECINCT 31                                            01 
01110010006000070000028000042000000000000000000REP       Judge, Court of Criminal Appeals, Pl 2                  Mary Lou Keel                         PRECINCT 32                                            01 
01110010007000038000011000027000000000000000000REP       Judge, Court of Criminal Appeals, Pl 2                  Mary Lou Keel                         PRECINCT 41                                            01 
01110010008000075000013000062000000000000000000REP       Judge, Court of Criminal Appeals, Pl 2                  Mary Lou Keel                         PRECINCT 42                                            01 
01110010009000048000023000025000000000000000000REP       Judge, Court of Criminal Appeals, Pl 2                  Mary Lou Keel                         PRECINCT 43                                            01 
01110020001000030000016000014000000000000000000REP       Judge, Court of Criminal Appeals, Pl 2                  Ray Wheless                           PRECINCT 11                                            01 
01110020002000036000012000024000000000000000000REP       Judge, Court of Criminal Appeals, Pl 2                  Ray Wheless                           PRECINCT 12                                            01 
01110020003000039000017000022000000000000000000REP       Judge, Court of Criminal Appeals, Pl 2                  Ray Wheless                           PRECINCT 21                                            01 
01110020004000014000001000013000000000000000000REP       Judge, Court of Criminal Appeals, Pl 2                  Ray Wheless                           PRECINCT 22                                            01 
01110020005000064000035000029000000000000000000REP       Judge, Court of Criminal Appeals, Pl 2                  Ray Wheless                           PRECINCT 31                                            01 
01110020006000052000016000036000000000000000000REP       Judge, Court of Criminal Appeals, Pl 2                  Ray Wheless                           PRECINCT 32                                            01 
01110020007000028000009000019000000000000000000REP       Judge, Court of Criminal Appeals, Pl 2                  Ray Wheless                           PRECINCT 41                                            01 
01110020008000048000005000043000000000000000000REP       Judge, Court of Criminal Appeals, Pl 2                  Ray Wheless                           PRECINCT 42                                            01 
01110020009000029000009000020000000000000000000REP       Judge, Court of Criminal Appeals, Pl 2                  Ray Wheless                           PRECINCT 43                                            01 
01110030001000015000003000012000000000000000000REP       Judge, Court of Criminal Appeals, Pl 2                  Chris Oldner                          PRECINCT 11                                            01 
01110030002000024000005000019000000000000000000REP       Judge, Court of Criminal Appeals, Pl 2                  Chris Oldner                          PRECINCT 12                                            01 
01110030003000034000012000022000000000000000000REP       Judge, Court of Criminal Appeals, Pl 2                  Chris Oldner                          PRECINCT 21                                            01 
01110030004000005000001000004000000000000000000REP       Judge, Court of Criminal Appeals, Pl 2                  Chris Oldner                          PRECINCT 22                                            01 
01110030005000049000018000031000000000000000000REP       Judge, Court of Criminal Appeals, Pl 2                  Chris Oldner                          PRECINCT 31                                            01 
01110030006000049000015000034000000000000000000REP       Judge, Court of Criminal Appeals, Pl 2                  Chris Oldner                          PRECINCT 32                                            01 
01110030007000032000005000027000000000000000000REP       Judge, Court of Criminal Appeals, Pl 2                  Chris Oldner                          PRECINCT 41                                            01 
01110030008000023000003000020000000000000000000REP       Judge, Court of Criminal Appeals, Pl 2                  Chris Oldner                          PRECINCT 42                                            01 
01110030009000014000006000008000000000000000000REP       Judge, Court of Criminal Appeals, Pl 2                  Chris Oldner                          PRECINCT 43                                            01 
01110040001000000000000000000000000000000000000REP       Judge, Court of Criminal Appeals, Pl 2                  OVER VOTES                            PRECINCT 11                                            01 
01110040002000000000000000000000000000000000000REP       Judge, Court of Criminal Appeals, Pl 2                  OVER VOTES                            PRECINCT 12                                            01 
01110040003000000000000000000000000000000000000REP       Judge, Court of Criminal Appeals, Pl 2                  OVER VOTES                            PRECINCT 21                                            01 
01110040004000000000000000000000000000000000000REP       Judge, Court of Criminal Appeals, Pl 2                  OVER VOTES                            PRECINCT 22                                            01 
01110040005000000000000000000000000000000000000REP       Judge, Court of Criminal Appeals, Pl 2                  OVER VOTES                            PRECINCT 31                                            01 
01110040006000000000000000000000000000000000000REP       Judge, Court of Criminal Appeals, Pl 2                  OVER VOTES                            PRECINCT 32                                            01 
01110040007000000000000000000000000000000000000REP       Judge, Court of Criminal Appeals, Pl 2                  OVER VOTES                            PRECINCT 41                                            01 
01110040008000000000000000000000000000000000000REP       Judge, Court of Criminal Appeals, Pl 2                  OVER VOTES                            PRECINCT 42                                            01 
01110040009000000000000000000000000000000000000REP       Judge, Court of Criminal Appeals, Pl 2                  OVER VOTES                            PRECINCT 43                                            01 
01110050001000052000018000034000000000000000000REP       Judge, Court of Criminal Appeals, Pl 2                  UNDER VOTES                           PRECINCT 11                                            01 
01110050002000036000009000027000000000000000000REP       Judge, Court of Criminal Appeals, Pl 2                  UNDER VOTES                           PRECINCT 12                                            01 
01110050003000062000033000029000000000000000000REP       Judge, Court of Criminal Appeals, Pl 2                  UNDER VOTES                           PRECINCT 21                                            01 
01110050004000020000002000018000000000000000000REP       Judge, Court of Criminal Appeals, Pl 2                  UNDER VOTES                           PRECINCT 22                                            01 
01110050005000093000050000043000000000000000000REP       Judge, Court of Criminal Appeals, Pl 2                  UNDER VOTES                           PRECINCT 31                                            01 
01110050006000092000030000062000000000000000000REP       Judge, Court of Criminal Appeals, Pl 2                  UNDER VOTES                           PRECINCT 32                                            01 
01110050007000045000021000024000000000000000000REP       Judge, Court of Criminal Appeals, Pl 2                  UNDER VOTES                           PRECINCT 41                                            01 
01110050008000053000007000046000000000000000000REP       Judge, Court of Criminal Appeals, Pl 2                  UNDER VOTES                           PRECINCT 42                                            01 
01110050009000046000013000033000000000000000000REP       Judge, Court of Criminal Appeals, Pl 2                  UNDER VOTES                           PRECINCT 43                                            01 
01120010001000061000019000042000000000000000000REP       Judge, Court of Criminal Appeals, Pl 5                  Scott Walker                          PRECINCT 11                                            01 
01120010002000066000021000045000000000000000000REP       Judge, Court of Criminal Appeals, Pl 5                  Scott Walker                          PRECINCT 12                                            01 
01120010003000068000034000034000000000000000000REP       Judge, Court of Criminal Appeals, Pl 5                  Scott Walker                          PRECINCT 21                                            01 
01120010004000018000003000015000000000000000000REP       Judge, Court of Criminal Appeals, Pl 5                  Scott Walker                          PRECINCT 22                                            01 
01120010005000113000049000064000000000000000000REP       Judge, Court of Criminal Appeals, Pl 5                  Scott Walker                          PRECINCT 31                                            01 
01120010006000095000031000064000000000000000000REP       Judge, Court of Criminal Appeals, Pl 5                  Scott Walker                          PRECINCT 32                                            01 
01120010007000050000013000037000000000000000000REP       Judge, Court of Criminal Appeals, Pl 5                  Scott Walker                          PRECINCT 41                                            01 
01120010008000090000016000074000000000000000000REP       Judge, Court of Criminal Appeals, Pl 5                  Scott Walker                          PRECINCT 42                                            01 
01120010009000055000018000037000000000000000000REP       Judge, Court of Criminal Appeals, Pl 5                  Scott Walker                          PRECINCT 43                                            01 
01120020001000016000006000010000000000000000000REP       Judge, Court of Criminal Appeals, Pl 5                  Brent Webster                         PRECINCT 11                                            01 
01120020002000013000002000011000000000000000000REP       Judge, Court of Criminal Appeals, Pl 5                  Brent Webster                         PRECINCT 12                                            01 
01120020003000030000013000017000000000000000000REP       Judge, Court of Criminal Appeals, Pl 5                  Brent Webster                         PRECINCT 21                                            01 
01120020004000005000000000005000000000000000000REP       Judge, Court of Criminal Appeals, Pl 5                  Brent Webster                         PRECINCT 22                                            01 
01120020005000020000009000011000000000000000000REP       Judge, Court of Criminal Appeals, Pl 5                  Brent Webster                         PRECINCT 31                                            01 
01120020006000029000009000020000000000000000000REP       Judge, Court of Criminal Appeals, Pl 5                  Brent Webster                         PRECINCT 32                                            01 
01120020007000022000006000016000000000000000000REP       Judge, Court of Criminal Appeals, Pl 5                  Brent Webster                         PRECINCT 41                                            01 
01120020008000025000000000025000000000000000000REP       Judge, Court of Criminal Appeals, Pl 5                  Brent Webster                         PRECINCT 42                                            01 
01120020009000016000008000008000000000000000000REP       Judge, Court of Criminal Appeals, Pl 5                  Brent Webster                         PRECINCT 43                                            01 
01120030001000010000002000008000000000000000000REP       Judge, Court of Criminal Appeals, Pl 5                  Steve Smith                           PRECINCT 11                                            01 
01120030002000024000007000017000000000000000000REP       Judge, Court of Criminal Appeals, Pl 5                  Steve Smith                           PRECINCT 12                                            01 
01120030003000023000013000010000000000000000000REP       Judge, Court of Criminal Appeals, Pl 5                  Steve Smith                           PRECINCT 21                                            01 
01120030004000005000001000004000000000000000000REP       Judge, Court of Criminal Appeals, Pl 5                  Steve Smith                           PRECINCT 22                                            01 
01120030005000031000017000014000000000000000000REP       Judge, Court of Criminal Appeals, Pl 5                  Steve Smith                           PRECINCT 31                                            01 
