01270010001000000DEM       President                                               Martin J. O'Malley                    PRECINCT 1010                                          01 
01270010002000000DEM       President                                               Martin J. O'Malley                    PRECINCT 1110                                          01 
01270010003000000DEM       President                                               Martin J. O'Malley                    PRECINCT 2020                                          01 
01270010004000001DEM       President                                               Martin J. O'Malley                    PRECINCT 2080                                          01 
01270010005000000DEM       President                                               Martin J. O'Malley                    PRECINCT 2120                                          01 
01270010006000000DEM       President                                               Martin J. O'Malley                    PRECINCT 3030                                          01 
01270010007000000DEM       President                                               Martin J. O'Malley                    PRECINCT 3040                                          01 
01270010008000000DEM       President                                               Martin J. O'Malley                    PRECINCT 3060                                          01 
01270010009000000DEM       President                                               Martin J. O'Malley                    PRECINCT 4050                                          01 
01270010010000000DEM       President                                               Martin J. O'Malley                    PRECINCT 4070                                          01 
01270010011000002DEM       President                                               Martin J. O'Malley                    PRECINCT 4100                                          01 
01270020001000000DEM       President                                               Roque "Rocky" De La Fuente            PRECINCT 1010                                          01 
01270020002000000DEM       President                                               Roque "Rocky" De La Fuente            PRECINCT 1110                                          01 
01270020003000000DEM       President                                               Roque "Rocky" De La Fuente            PRECINCT 2020                                          01 
01270020004000000DEM       President                                               Roque "Rocky" De La Fuente            PRECINCT 2080                                          01 
01270020005000001DEM       President                                               Roque "Rocky" De La Fuente            PRECINCT 2120                                          01 
01270020006000000DEM       President                                               Roque "Rocky" De La Fuente            PRECINCT 3030                                          01 
01270020007000001DEM       President                                               Roque "Rocky" De La Fuente            PRECINCT 3040                                          01 
01270020008000000DEM       President                                               Roque "Rocky" De La Fuente            PRECINCT 3060                                          01 
01270020009000000DEM       President                                               Roque "Rocky" De La Fuente            PRECINCT 4050                                          01 
01270020010000000DEM       President                                               Roque "Rocky" De La Fuente            PRECINCT 4070                                          01 
01270020011000000DEM       President                                               Roque "Rocky" De La Fuente            PRECINCT 4100                                          01 
01270030001000000DEM       President                                               Calvis L. Hawes                       PRECINCT 1010                                          01 
01270030002000000DEM       President                                               Calvis L. Hawes                       PRECINCT 1110                                          01 
01270030003000000DEM       President                                               Calvis L. Hawes                       PRECINCT 2020                                          01 
01270030004000000DEM       President                                               Calvis L. Hawes                       PRECINCT 2080                                          01 
01270030005000000DEM       President                                               Calvis L. Hawes                       PRECINCT 2120                                          01 
01270030006000000DEM       President                                               Calvis L. Hawes                       PRECINCT 3030                                          01 
01270030007000000DEM       President                                               Calvis L. Hawes                       PRECINCT 3040                                          01 
01270030008000000DEM       President                                               Calvis L. Hawes                       PRECINCT 3060                                          01 
01270030009000001DEM       President                                               Calvis L. Hawes                       PRECINCT 4050                                          01 
01270030010000000DEM       President                                               Calvis L. Hawes                       PRECINCT 4070                                          01 
01270030011000000DEM       President                                               Calvis L. Hawes                       PRECINCT 4100                                          01 
01270040001000087DEM       President                                               Hillary Clinton                       PRECINCT 1010                                          01 
01270040002000081DEM       President                                               Hillary Clinton                       PRECINCT 1110                                          01 
01270040003000041DEM       President                                               Hillary Clinton                       PRECINCT 2020                                          01 
01270040004000068DEM       President                                               Hillary Clinton                       PRECINCT 2080                                          01 
01270040005000073DEM       President                                               Hillary Clinton                       PRECINCT 2120                                          01 
01270040006000032DEM       President                                               Hillary Clinton                       PRECINCT 3030                                          01 
01270040007000086DEM       President                                               Hillary Clinton                       PRECINCT 3040                                          01 
01270040008000012DEM       President                                               Hillary Clinton                       PRECINCT 3060                                          01 
01270040009000058DEM       President                                               Hillary Clinton                       PRECINCT 4050                                          01 
01270040010000006DEM       President                                               Hillary Clinton                       PRECINCT 4070                                          01 
01270040011000097DEM       President                                               Hillary Clinton                       PRECINCT 4100                                          01 
01270050001000000DEM       President                                               Keith Judd                            PRECINCT 1010                                          01 
01270050002000000DEM       President                                               Keith Judd                            PRECINCT 1110                                          01 
01270050003000000DEM       President                                               Keith Judd                            PRECINCT 2020                                          01 
01270050004000000DEM       President                                               Keith Judd                            PRECINCT 2080                                          01 
01270050005000000DEM       President                                               Keith Judd                            PRECINCT 2120                                          01 
01270050006000001DEM       President                                               Keith Judd                            PRECINCT 3030                                          01 
01270050007000000DEM       President                                               Keith Judd                            PRECINCT 3040                                          01 
01270050008000000DEM       President                                               Keith Judd                            PRECINCT 3060                                          01 
01270050009000000DEM       President                                               Keith Judd                            PRECINCT 4050                                          01 
01270050010000000DEM       President                                               Keith Judd                            PRECINCT 4070                                          01 
01270050011000000DEM       President                                               Keith Judd                            PRECINCT 4100                                          01 
01270060001000050DEM       President                                               Bernie Sanders                        PRECINCT 1010                                          01 
01270060002000082DEM       President                                               Bernie Sanders                        PRECINCT 1110                                          01 
01270060003000035DEM       President                                               Bernie Sanders                        PRECINCT 2020                                          01 
01270060004000041DEM       President                                               Bernie Sanders                        PRECINCT 2080                                          01 
01270060005000051DEM       President                                               Bernie Sanders                        PRECINCT 2120                                          01 
01270060006000052DEM       President                                               Bernie Sanders                        PRECINCT 3030                                          01 
01270060007000056DEM       President                                               Bernie Sanders                        PRECINCT 3040                                          01 
01270060008000007DEM       President                                               Bernie Sanders                        PRECINCT 3060                                          01 
01270060009000052DEM       President                                               Bernie Sanders                        PRECINCT 4050                                          01 
01270060010000005DEM       President                                               Bernie Sanders                        PRECINCT 4070                                          01 
01270060011000060DEM       President                                               Bernie Sanders                        PRECINCT 4100                                          01 
01270070001000000DEM       President                                               Willie L. Wilson                      PRECINCT 1010                                          01 
01270070002000000DEM       President                                               Willie L. Wilson                      PRECINCT 1110                                          01 
01270070003000000DEM       President                                               Willie L. Wilson                      PRECINCT 2020                                          01 
01270070004000000DEM       President                                               Willie L. Wilson                      PRECINCT 2080                                          01 
01270070005000000DEM       President                                               Willie L. Wilson                      PRECINCT 2120                                          01 
01270070006000000DEM       President                                               Willie L. Wilson                      PRECINCT 3030                                          01 
01270070007000000DEM       President                                               Willie L. Wilson                      PRECINCT 3040                                          01 
01270070008000000DEM       President                                               Willie L. Wilson                      PRECINCT 3060                                          01 
01270070009000000DEM       President                                               Willie L. Wilson                      PRECINCT 4050                                          01 
01270070010000000DEM       President                                               Willie L. Wilson                      PRECINCT 4070                                          01 
01270070011000000DEM       President                                               Willie L. Wilson                      PRECINCT 4100                                          01 
01270080001000000DEM       President                                               Star Locke                            PRECINCT 1010                                          01 
01270080002000000DEM       President                                               Star Locke                            PRECINCT 1110                                          01 
01270080003000000DEM       President                                               Star Locke                            PRECINCT 2020                                          01 
01270080004000000DEM       President                                               Star Locke                            PRECINCT 2080                                          01 
01270080005000000DEM       President                                               Star Locke                            PRECINCT 2120                                          01 
01270080006000002DEM       President                                               Star Locke                            PRECINCT 3030                                          01 
01270080007000000DEM       President                                               Star Locke                            PRECINCT 3040                                          01 
01270080008000000DEM       President                                               Star Locke                            PRECINCT 3060                                          01 
01270080009000000DEM       President                                               Star Locke                            PRECINCT 4050                                          01 
01270080010000000DEM       President                                               Star Locke                            PRECINCT 4070                                          01 
01270080011000000DEM       President                                               Star Locke                            PRECINCT 4100                                          01 
01270090001000000DEM       President                                               OVER VOTES                            PRECINCT 1010                                          01 
01270090002000000DEM       President                                               OVER VOTES                            PRECINCT 1110                                          01 
01270090003000000DEM       President                                               OVER VOTES                            PRECINCT 2020                                          01 
01270090004000000DEM       President                                               OVER VOTES                            PRECINCT 2080                                          01 
01270090005000000DEM       President                                               OVER VOTES                            PRECINCT 2120                                          01 
01270090006000000DEM       President                                               OVER VOTES                            PRECINCT 3030                                          01 
01270090007000000DEM       President                                               OVER VOTES                            PRECINCT 3040                                          01 
01270090008000000DEM       President                                               OVER VOTES                            PRECINCT 3060                                          01 
01270090009000000DEM       President                                               OVER VOTES                            PRECINCT 4050                                          01 
01270090010000000DEM       President                                               OVER VOTES                            PRECINCT 4070                                          01 
01270090011000000DEM       President                                               OVER VOTES                            PRECINCT 4100                                          01 
01270100001000000DEM       President                                               UNDER VOTES                           PRECINCT 1010                                          01 
01270100002000001DEM       President                                               UNDER VOTES                           PRECINCT 1110                                          01 
01270100003000000DEM       President                                               UNDER VOTES                           PRECINCT 2020                                          01 
01270100004000000DEM       President                                               UNDER VOTES                           PRECINCT 2080                                          01 
01270100005000001DEM       President                                               UNDER VOTES                           PRECINCT 2120                                          01 
01270100006000001DEM       President                                               UNDER VOTES                           PRECINCT 3030                                          01 
01270100007000001DEM       President                                               UNDER VOTES                           PRECINCT 3040                                          01 
01270100008000000DEM       President                                               UNDER VOTES                           PRECINCT 3060                                          01 
01270100009000001DEM       President                                               UNDER VOTES                           PRECINCT 4050                                          01 
01270100010000000DEM       President                                               UNDER VOTES                           PRECINCT 4070                                          01 
01270100011000000DEM       President                                               UNDER VOTES                           PRECINCT 4100                                          01 
01280010001000043DEM       US Representative, District 21                          Tejas Vakil                           PRECINCT 1010                                          01 
01280010002000067DEM       US Representative, District 21                          Tejas Vakil                           PRECINCT 1110                                          01 
01280010003000026DEM       US Representative, District 21                          Tejas Vakil                           PRECINCT 2020                                          01 
01280010004000038DEM       US Representative, District 21                          Tejas Vakil                           PRECINCT 2080                                          01 
01280010005000030DEM       US Representative, District 21                          Tejas Vakil                           PRECINCT 2120                                          01 
01280010006000023DEM       US Representative, District 21                          Tejas Vakil                           PRECINCT 3030                                          01 
01280010007000048DEM       US Representative, District 21                          Tejas Vakil                           PRECINCT 3040                                          01 
01280010008000008DEM       US Representative, District 21                          Tejas Vakil                           PRECINCT 3060                                          01 
01280010009000047DEM       US Representative, District 21                          Tejas Vakil                           PRECINCT 4050                                          01 
01280010010000004DEM       US Representative, District 21                          Tejas Vakil                           PRECINCT 4070                                          01 
01280010011000045DEM       US Representative, District 21                          Tejas Vakil                           PRECINCT 4100                                          01 
01280020001000068DEM       US Representative, District 21                          Tom Wakely                            PRECINCT 1010                                          01 
01280020002000066DEM       US Representative, District 21                          Tom Wakely                            PRECINCT 1110                                          01 
01280020003000037DEM       US Representative, District 21                          Tom Wakely                            PRECINCT 2020                                          01 
01280020004000045DEM       US Representative, District 21                          Tom Wakely                            PRECINCT 2080                                          01 
01280020005000065DEM       US Representative, District 21                          Tom Wakely                            PRECINCT 2120                                          01 
01280020006000051DEM       US Representative, District 21                          Tom Wakely                            PRECINCT 3030                                          01 
01280020007000063DEM       US Representative, District 21                          Tom Wakely                            PRECINCT 3040                                          01 
01280020008000006DEM       US Representative, District 21                          Tom Wakely                            PRECINCT 3060                                          01 
01280020009000039DEM       US Representative, District 21                          Tom Wakely                            PRECINCT 4050                                          01 
01280020010000004DEM       US Representative, District 21                          Tom Wakely                            PRECINCT 4070                                          01 
01280020011000080DEM       US Representative, District 21                          Tom Wakely                            PRECINCT 4100                                          01 
01280030001000000DEM       US Representative, District 21                          OVER VOTES                            PRECINCT 1010                                          01 
01280030002000000DEM       US Representative, District 21                          OVER VOTES                            PRECINCT 1110                                          01 
01280030003000000DEM       US Representative, District 21                          OVER VOTES                            PRECINCT 2020                                          01 
01280030004000000DEM       US Representative, District 21                          OVER VOTES                            PRECINCT 2080                                          01 
01280030005000000DEM       US Representative, District 21                          OVER VOTES                            PRECINCT 2120                                          01 
01280030006000000DEM       US Representative, District 21                          OVER VOTES                            PRECINCT 3030                                          01 
01280030007000000DEM       US Representative, District 21                          OVER VOTES                            PRECINCT 3040                                          01 
01280030008000000DEM       US Representative, District 21                          OVER VOTES                            PRECINCT 3060                                          01 
01280030009000000DEM       US Representative, District 21                          OVER VOTES                            PRECINCT 4050                                          01 
01280030010000000DEM       US Representative, District 21                          OVER VOTES                            PRECINCT 4070                                          01 
01280030011000000DEM       US Representative, District 21                          OVER VOTES                            PRECINCT 4100                                          01 
01280040001000026DEM       US Representative, District 21                          UNDER VOTES                           PRECINCT 1010                                          01 
01280040002000031DEM       US Representative, District 21                          UNDER VOTES                           PRECINCT 1110                                          01 
01280040003000013DEM       US Representative, District 21                          UNDER VOTES                           PRECINCT 2020                                          01 
01280040004000027DEM       US Representative, District 21                          UNDER VOTES                           PRECINCT 2080                                          01 
01280040005000031DEM       US Representative, District 21                          UNDER VOTES                           PRECINCT 2120                                          01 
01280040006000014DEM       US Representative, District 21                          UNDER VOTES                           PRECINCT 3030                                          01 
01280040007000033DEM       US Representative, District 21                          UNDER VOTES                           PRECINCT 3040                                          01 
01280040008000005DEM       US Representative, District 21                          UNDER VOTES                           PRECINCT 3060                                          01 
01280040009000026DEM       US Representative, District 21                          UNDER VOTES                           PRECINCT 4050                                          01 
01280040010000003DEM       US Representative, District 21                          UNDER VOTES                           PRECINCT 4070                                          01 
01280040011000034DEM       US Representative, District 21                          UNDER VOTES                           PRECINCT 4100                                          01 
01290010001000037DEM       Railroad Commissioner                                   Grady Yarbrough                       PRECINCT 1010                                          01 
01290010002000046DEM       Railroad Commissioner                                   Grady Yarbrough                       PRECINCT 1110                                          01 
01290010003000023DEM       Railroad Commissioner                                   Grady Yarbrough                       PRECINCT 2020                                          01 
01290010004000024DEM       Railroad Commissioner                                   Grady Yarbrough                       PRECINCT 2080                                          01 
01290010005000044DEM       Railroad Commissioner                                   Grady Yarbrough                       PRECINCT 2120                                          01 
01290010006000028DEM       Railroad Commissioner                                   Grady Yarbrough                       PRECINCT 3030                                          01 
01290010007000036DEM       Railroad Commissioner                                   Grady Yarbrough                       PRECINCT 3040                                          01 
01290010008000005DEM       Railroad Commissioner                                   Grady Yarbrough                       PRECINCT 3060                                          01 
01290010009000032DEM       Railroad Commissioner                                   Grady Yarbrough                       PRECINCT 4050                                          01 
01290010010000004DEM       Railroad Commissioner                                   Grady Yarbrough                       PRECINCT 4070                                          01 
01290010011000052DEM       Railroad Commissioner                                   Grady Yarbrough                       PRECINCT 4100                                          01 
01290020001000041DEM       Railroad Commissioner                                   Cody Garrett                          PRECINCT 1010                                          01 
01290020002000031DEM       Railroad Commissioner                                   Cody Garrett                          PRECINCT 1110                                          01 
01290020003000017DEM       Railroad Commissioner                                   Cody Garrett                          PRECINCT 2020                                          01 
01290020004000031DEM       Railroad Commissioner                                   Cody Garrett                          PRECINCT 2080                                          01 
01290020005000027DEM       Railroad Commissioner                                   Cody Garrett                          PRECINCT 2120                                          01 
01290020006000024DEM       Railroad Commissioner                                   Cody Garrett                          PRECINCT 3030                                          01 
01290020007000042DEM       Railroad Commissioner                                   Cody Garrett                          PRECINCT 3040                                          01 
01290020008000005DEM       Railroad Commissioner                                   Cody Garrett                          PRECINCT 3060                                          01 
01290020009000033DEM       Railroad Commissioner                                   Cody Garrett                          PRECINCT 4050                                          01 
01290020010000002DEM       Railroad Commissioner                                   Cody Garrett                          PRECINCT 4070                                          01 
01290020011000037DEM       Railroad Commissioner                                   Cody Garrett                          PRECINCT 4100                                          01 
01290030001000032DEM       Railroad Commissioner                                   Lon Burnam                            PRECINCT 1010                                          01 
01290030002000044DEM       Railroad Commissioner                                   Lon Burnam                            PRECINCT 1110                                          01 
01290030003000018DEM       Railroad Commissioner                                   Lon Burnam                            PRECINCT 2020                                          01 
01290030004000022DEM       Railroad Commissioner                                   Lon Burnam                            PRECINCT 2080                                          01 
01290030005000025DEM       Railroad Commissioner                                   Lon Burnam                            PRECINCT 2120                                          01 
01290030006000016DEM       Railroad Commissioner                                   Lon Burnam                            PRECINCT 3030                                          01 
01290030007000028DEM       Railroad Commissioner                                   Lon Burnam                            PRECINCT 3040                                          01 
01290030008000005DEM       Railroad Commissioner                                   Lon Burnam                            PRECINCT 3060                                          01 
01290030009000021DEM       Railroad Commissioner                                   Lon Burnam                            PRECINCT 4050                                          01 
01290030010000002DEM       Railroad Commissioner                                   Lon Burnam                            PRECINCT 4070                                          01 
01290030011000027DEM       Railroad Commissioner                                   Lon Burnam                            PRECINCT 4100                                          01 
01290040001000000DEM       Railroad Commissioner                                   OVER VOTES                            PRECINCT 1010                                          01 
01290040002000000DEM       Railroad Commissioner                                   OVER VOTES                            PRECINCT 1110                                          01 
01290040003000000DEM       Railroad Commissioner                                   OVER VOTES                            PRECINCT 2020                                          01 
01290040004000000DEM       Railroad Commissioner                                   OVER VOTES                            PRECINCT 2080                                          01 
01290040005000000DEM       Railroad Commissioner                                   OVER VOTES                            PRECINCT 2120                                          01 
01290040006000000DEM       Railroad Commissioner                                   OVER VOTES                            PRECINCT 3030                                          01 
01290040007000000DEM       Railroad Commissioner                                   OVER VOTES                            PRECINCT 3040                                          01 
01290040008000000DEM       Railroad Commissioner                                   OVER VOTES                            PRECINCT 3060                                          01 
01290040009000000DEM       Railroad Commissioner                                   OVER VOTES                            PRECINCT 4050                                          01 
01290040010000000DEM       Railroad Commissioner                                   OVER VOTES                            PRECINCT 4070                                          01 
01290040011000000DEM       Railroad Commissioner                                   OVER VOTES                            PRECINCT 4100                                          01 
01290050001000027DEM       Railroad Commissioner                                   UNDER VOTES                           PRECINCT 1010                                          01 
01290050002000043DEM       Railroad Commissioner                                   UNDER VOTES                           PRECINCT 1110                                          01 
01290050003000018DEM       Railroad Commissioner                                   UNDER VOTES                           PRECINCT 2020                                          01 
01290050004000033DEM       Railroad Commissioner                                   UNDER VOTES                           PRECINCT 2080                                          01 
01290050005000030DEM       Railroad Commissioner                                   UNDER VOTES                           PRECINCT 2120                                          01 
01290050006000020DEM       Railroad Commissioner                                   UNDER VOTES                           PRECINCT 3030                                          01 
01290050007000038DEM       Railroad Commissioner                                   UNDER VOTES                           PRECINCT 3040                                          01 
01290050008000004DEM       Railroad Commissioner                                   UNDER VOTES                           PRECINCT 3060                                          01 
01290050009000026DEM       Railroad Commissioner                                   UNDER VOTES                           PRECINCT 4050                                          01 
01290050010000003DEM       Railroad Commissioner                                   UNDER VOTES                           PRECINCT 4070                                          01 
01290050011000043DEM       Railroad Commissioner                                   UNDER VOTES                           PRECINCT 4100                                          01 
01300010001000101DEM       Justice, Supreme Court, Place 3                         Mike Westergren                       PRECINCT 1010                                          01 
01300010002000114DEM       Justice, Supreme Court, Place 3                         Mike Westergren                       PRECINCT 1110                                          01 
01300010003000057DEM       Justice, Supreme Court, Place 3                         Mike Westergren                       PRECINCT 2020                                          01 
01300010004000079DEM       Justice, Supreme Court, Place 3                         Mike Westergren                       PRECINCT 2080                                          01 
01300010005000089DEM       Justice, Supreme Court, Place 3                         Mike Westergren                       PRECINCT 2120                                          01 
01300010006000065DEM       Justice, Supreme Court, Place 3                         Mike Westergren                       PRECINCT 3030                                          01 
01300010007000102DEM       Justice, Supreme Court, Place 3                         Mike Westergren                       PRECINCT 3040                                          01 
01300010008000014DEM       Justice, Supreme Court, Place 3                         Mike Westergren                       PRECINCT 3060                                          01 
01300010009000082DEM       Justice, Supreme Court, Place 3                         Mike Westergren                       PRECINCT 4050                                          01 
01300010010000008DEM       Justice, Supreme Court, Place 3                         Mike Westergren                       PRECINCT 4070                                          01 
01300010011000119DEM       Justice, Supreme Court, Place 3                         Mike Westergren                       PRECINCT 4100                                          01 
01300020001000000DEM       Justice, Supreme Court, Place 3                         OVER VOTES                            PRECINCT 1010                                          01 
01300020002000000DEM       Justice, Supreme Court, Place 3                         OVER VOTES                            PRECINCT 1110                                          01 
01300020003000000DEM       Justice, Supreme Court, Place 3                         OVER VOTES                            PRECINCT 2020                                          01 
01300020004000000DEM       Justice, Supreme Court, Place 3                         OVER VOTES                            PRECINCT 2080                                          01 
01300020005000000DEM       Justice, Supreme Court, Place 3                         OVER VOTES                            PRECINCT 2120                                          01 
01300020006000000DEM       Justice, Supreme Court, Place 3                         OVER VOTES                            PRECINCT 3030                                          01 
01300020007000000DEM       Justice, Supreme Court, Place 3                         OVER VOTES                            PRECINCT 3040                                          01 
01300020008000000DEM       Justice, Supreme Court, Place 3                         OVER VOTES                            PRECINCT 3060                                          01 
01300020009000000DEM       Justice, Supreme Court, Place 3                         OVER VOTES                            PRECINCT 4050                                          01 
01300020010000000DEM       Justice, Supreme Court, Place 3                         OVER VOTES                            PRECINCT 4070                                          01 
01300020011000000DEM       Justice, Supreme Court, Place 3                         OVER VOTES                            PRECINCT 4100                                          01 
01300030001000036DEM       Justice, Supreme Court, Place 3                         UNDER VOTES                           PRECINCT 1010                                          01 
01300030002000050DEM       Justice, Supreme Court, Place 3                         UNDER VOTES                           PRECINCT 1110                                          01 
01300030003000019DEM       Justice, Supreme Court, Place 3                         UNDER VOTES                           PRECINCT 2020                                          01 
01300030004000031DEM       Justice, Supreme Court, Place 3                         UNDER VOTES                           PRECINCT 2080                                          01 
01300030005000037DEM       Justice, Supreme Court, Place 3                         UNDER VOTES                           PRECINCT 2120                                          01 
01300030006000023DEM       Justice, Supreme Court, Place 3                         UNDER VOTES                           PRECINCT 3030                                          01 
01300030007000042DEM       Justice, Supreme Court, Place 3                         UNDER VOTES                           PRECINCT 3040                                          01 
01300030008000005DEM       Justice, Supreme Court, Place 3                         UNDER VOTES                           PRECINCT 3060                                          01 
01300030009000030DEM       Justice, Supreme Court, Place 3                         UNDER VOTES                           PRECINCT 4050                                          01 
01300030010000003DEM       Justice, Supreme Court, Place 3                         UNDER VOTES                           PRECINCT 4070                                          01 
01300030011000040DEM       Justice, Supreme Court, Place 3                         UNDER VOTES                           PRECINCT 4100                                          01 
01310010001000105DEM       Justice, Supreme Court, Place 5                         Dori Contreras Garza                  PRECINCT 1010                                          01 
01310010002000121DEM       Justice, Supreme Court, Place 5                         Dori Contreras Garza                  PRECINCT 1110                                          01 
01310010003000057DEM       Justice, Supreme Court, Place 5                         Dori Contreras Garza                  PRECINCT 2020                                          01 
01310010004000081DEM       Justice, Supreme Court, Place 5                         Dori Contreras Garza                  PRECINCT 2080                                          01 
01310010005000089DEM       Justice, Supreme Court, Place 5                         Dori Contreras Garza                  PRECINCT 2120                                          01 
01310010006000066DEM       Justice, Supreme Court, Place 5                         Dori Contreras Garza                  PRECINCT 3030                                          01 
01310010007000104DEM       Justice, Supreme Court, Place 5                         Dori Contreras Garza                  PRECINCT 3040                                          01 
01310010008000014DEM       Justice, Supreme Court, Place 5                         Dori Contreras Garza                  PRECINCT 3060                                          01 
01310010009000088DEM       Justice, Supreme Court, Place 5                         Dori Contreras Garza                  PRECINCT 4050                                          01 
01310010010000009DEM       Justice, Supreme Court, Place 5                         Dori Contreras Garza                  PRECINCT 4070                                          01 
01310010011000117DEM       Justice, Supreme Court, Place 5                         Dori Contreras Garza                  PRECINCT 4100                                          01 
01310020001000000DEM       Justice, Supreme Court, Place 5                         OVER VOTES                            PRECINCT 1010                                          01 
01310020002000000DEM       Justice, Supreme Court, Place 5                         OVER VOTES                            PRECINCT 1110                                          01 
01310020003000000DEM       Justice, Supreme Court, Place 5                         OVER VOTES                            PRECINCT 2020                                          01 
01310020004000000DEM       Justice, Supreme Court, Place 5                         OVER VOTES                            PRECINCT 2080                                          01 
01310020005000000DEM       Justice, Supreme Court, Place 5                         OVER VOTES                            PRECINCT 2120                                          01 
01310020006000000DEM       Justice, Supreme Court, Place 5                         OVER VOTES                            PRECINCT 3030                                          01 
01310020007000000DEM       Justice, Supreme Court, Place 5                         OVER VOTES                            PRECINCT 3040                                          01 
01310020008000000DEM       Justice, Supreme Court, Place 5                         OVER VOTES                            PRECINCT 3060                                          01 
01310020009000000DEM       Justice, Supreme Court, Place 5                         OVER VOTES                            PRECINCT 4050                                          01 
01310020010000000DEM       Justice, Supreme Court, Place 5                         OVER VOTES                            PRECINCT 4070                                          01 
01310020011000000DEM       Justice, Supreme Court, Place 5                         OVER VOTES                            PRECINCT 4100                                          01 
01310030001000032DEM       Justice, Supreme Court, Place 5                         UNDER VOTES                           PRECINCT 1010                                          01 
01310030002000043DEM       Justice, Supreme Court, Place 5                         UNDER VOTES                           PRECINCT 1110                                          01 
01310030003000019DEM       Justice, Supreme Court, Place 5                         UNDER VOTES                           PRECINCT 2020                                          01 
01310030004000029DEM       Justice, Supreme Court, Place 5                         UNDER VOTES                           PRECINCT 2080                                          01 
01310030005000037DEM       Justice, Supreme Court, Place 5                         UNDER VOTES                           PRECINCT 2120                                          01 
01310030006000022DEM       Justice, Supreme Court, Place 5                         UNDER VOTES                           PRECINCT 3030                                          01 
01310030007000040DEM       Justice, Supreme Court, Place 5                         UNDER VOTES                           PRECINCT 3040                                          01 
01310030008000005DEM       Justice, Supreme Court, Place 5                         UNDER VOTES                           PRECINCT 3060                                          01 
01310030009000024DEM       Justice, Supreme Court, Place 5                         UNDER VOTES                           PRECINCT 4050                                          01 
01310030010000002DEM       Justice, Supreme Court, Place 5                         UNDER VOTES                           PRECINCT 4070                                          01 
01310030011000042DEM       Justice, Supreme Court, Place 5                         UNDER VOTES                           PRECINCT 4100                                          01 
01320010001000098DEM       Justice, Supreme Court, Place 9                         Savannah Robinson                     PRECINCT 1010                                          01 
01320010002000112DEM       Justice, Supreme Court, Place 9                         Savannah Robinson                     PRECINCT 1110                                          01 
01320010003000056DEM       Justice, Supreme Court, Place 9                         Savannah Robinson                     PRECINCT 2020                                          01 
01320010004000076DEM       Justice, Supreme Court, Place 9                         Savannah Robinson                     PRECINCT 2080                                          01 
01320010005000090DEM       Justice, Supreme Court, Place 9                         Savannah Robinson                     PRECINCT 2120                                          01 
01320010006000064DEM       Justice, Supreme Court, Place 9                         Savannah Robinson                     PRECINCT 3030                                          01 
01320010007000102DEM       Justice, Supreme Court, Place 9                         Savannah Robinson                     PRECINCT 3040                                          01 
01320010008000014DEM       Justice, Supreme Court, Place 9                         Savannah Robinson                     PRECINCT 3060                                          01 
01320010009000084DEM       Justice, Supreme Court, Place 9                         Savannah Robinson                     PRECINCT 4050                                          01 
01320010010000009DEM       Justice, Supreme Court, Place 9                         Savannah Robinson                     PRECINCT 4070                                          01 
01320010011000117DEM       Justice, Supreme Court, Place 9                         Savannah Robinson                     PRECINCT 4100                                          01 
01320020001000000DEM       Justice, Supreme Court, Place 9                         OVER VOTES                            PRECINCT 1010                                          01 
01320020002000000DEM       Justice, Supreme Court, Place 9                         OVER VOTES                            PRECINCT 1110                                          01 
01320020003000000DEM       Justice, Supreme Court, Place 9                         OVER VOTES                            PRECINCT 2020                                          01 
01320020004000000DEM       Justice, Supreme Court, Place 9                         OVER VOTES                            PRECINCT 2080                                          01 
01320020005000000DEM       Justice, Supreme Court, Place 9                         OVER VOTES                            PRECINCT 2120                                          01 
01320020006000000DEM       Justice, Supreme Court, Place 9                         OVER VOTES                            PRECINCT 3030                                          01 
01320020007000000DEM       Justice, Supreme Court, Place 9                         OVER VOTES                            PRECINCT 3040                                          01 
01320020008000000DEM       Justice, Supreme Court, Place 9                         OVER VOTES                            PRECINCT 3060                                          01 
01320020009000000DEM       Justice, Supreme Court, Place 9                         OVER VOTES                            PRECINCT 4050                                          01 
01320020010000000DEM       Justice, Supreme Court, Place 9                         OVER VOTES                            PRECINCT 4070                                          01 
01320020011000000DEM       Justice, Supreme Court, Place 9                         OVER VOTES                            PRECINCT 4100                                          01 
01320030001000039DEM       Justice, Supreme Court, Place 9                         UNDER VOTES                           PRECINCT 1010                                          01 
01320030002000052DEM       Justice, Supreme Court, Place 9                         UNDER VOTES                           PRECINCT 1110                                          01 
01320030003000020DEM       Justice, Supreme Court, Place 9                         UNDER VOTES                           PRECINCT 2020                                          01 
01320030004000034DEM       Justice, Supreme Court, Place 9                         UNDER VOTES                           PRECINCT 2080                                          01 
01320030005000036DEM       Justice, Supreme Court, Place 9                         UNDER VOTES                           PRECINCT 2120                                          01 
01320030006000024DEM       Justice, Supreme Court, Place 9                         UNDER VOTES                           PRECINCT 3030                                          01 
01320030007000042DEM       Justice, Supreme Court, Place 9                         UNDER VOTES                           PRECINCT 3040                                          01 
01320030008000005DEM       Justice, Supreme Court, Place 9                         UNDER VOTES                           PRECINCT 3060                                          01 
01320030009000028DEM       Justice, Supreme Court, Place 9                         UNDER VOTES                           PRECINCT 4050                                          01 
01320030010000002DEM       Justice, Supreme Court, Place 9                         UNDER VOTES                           PRECINCT 4070                                          01 
01320030011000042DEM       Justice, Supreme Court, Place 9                         UNDER VOTES                           PRECINCT 4100                                          01 
01330010001000099DEM       Judge, Ct of Criminal Appeals, P2                       Lawrence "Larry" Meyers               PRECINCT 1010                                          01 
01330010002000110DEM       Judge, Ct of Criminal Appeals, P2                       Lawrence "Larry" Meyers               PRECINCT 1110                                          01 
01330010003000056DEM       Judge, Ct of Criminal Appeals, P2                       Lawrence "Larry" Meyers               PRECINCT 2020                                          01 
01330010004000077DEM       Judge, Ct of Criminal Appeals, P2                       Lawrence "Larry" Meyers               PRECINCT 2080                                          01 
01330010005000088DEM       Judge, Ct of Criminal Appeals, P2                       Lawrence "Larry" Meyers               PRECINCT 2120                                          01 
01330010006000065DEM       Judge, Ct of Criminal Appeals, P2                       Lawrence "Larry" Meyers               PRECINCT 3030                                          01 
01330010007000101DEM       Judge, Ct of Criminal Appeals, P2                       Lawrence "Larry" Meyers               PRECINCT 3040                                          01 
01330010008000014DEM       Judge, Ct of Criminal Appeals, P2                       Lawrence "Larry" Meyers               PRECINCT 3060                                          01 
01330010009000081DEM       Judge, Ct of Criminal Appeals, P2                       Lawrence "Larry" Meyers               PRECINCT 4050                                          01 
01330010010000009DEM       Judge, Ct of Criminal Appeals, P2                       Lawrence "Larry" Meyers               PRECINCT 4070                                          01 
01330010011000121DEM       Judge, Ct of Criminal Appeals, P2                       Lawrence "Larry" Meyers               PRECINCT 4100                                          01 
01330020001000000DEM       Judge, Ct of Criminal Appeals, P2                       OVER VOTES                            PRECINCT 1010                                          01 
01330020002000000DEM       Judge, Ct of Criminal Appeals, P2                       OVER VOTES                            PRECINCT 1110                                          01 
01330020003000000DEM       Judge, Ct of Criminal Appeals, P2                       OVER VOTES                            PRECINCT 2020                                          01 
01330020004000000DEM       Judge, Ct of Criminal Appeals, P2                       OVER VOTES                            PRECINCT 2080                                          01 
01330020005000000DEM       Judge, Ct of Criminal Appeals, P2                       OVER VOTES                            PRECINCT 2120                                          01 
01330020006000000DEM       Judge, Ct of Criminal Appeals, P2                       OVER VOTES                            PRECINCT 3030                                          01 
01330020007000000DEM       Judge, Ct of Criminal Appeals, P2                       OVER VOTES                            PRECINCT 3040                                          01 
01330020008000000DEM       Judge, Ct of Criminal Appeals, P2                       OVER VOTES                            PRECINCT 3060                                          01 
01330020009000000DEM       Judge, Ct of Criminal Appeals, P2                       OVER VOTES                            PRECINCT 4050                                          01 
01330020010000000DEM       Judge, Ct of Criminal Appeals, P2                       OVER VOTES                            PRECINCT 4070                                          01 
01330020011000000DEM       Judge, Ct of Criminal Appeals, P2                       OVER VOTES                            PRECINCT 4100                                          01 
01330030001000038DEM       Judge, Ct of Criminal Appeals, P2                       UNDER VOTES                           PRECINCT 1010                                          01 
01330030002000054DEM       Judge, Ct of Criminal Appeals, P2                       UNDER VOTES                           PRECINCT 1110                                          01 
01330030003000020DEM       Judge, Ct of Criminal Appeals, P2                       UNDER VOTES                           PRECINCT 2020                                          01 
01330030004000033DEM       Judge, Ct of Criminal Appeals, P2                       UNDER VOTES                           PRECINCT 2080                                          01 
01330030005000038DEM       Judge, Ct of Criminal Appeals, P2                       UNDER VOTES                           PRECINCT 2120                                          01 
01330030006000023DEM       Judge, Ct of Criminal Appeals, P2                       UNDER VOTES                           PRECINCT 3030                                          01 
01330030007000043DEM       Judge, Ct of Criminal Appeals, P2                       UNDER VOTES                           PRECINCT 3040                                          01 
01330030008000005DEM       Judge, Ct of Criminal Appeals, P2                       UNDER VOTES                           PRECINCT 3060                                          01 
01330030009000031DEM       Judge, Ct of Criminal Appeals, P2                       UNDER VOTES                           PRECINCT 4050                                          01 
01330030010000002DEM       Judge, Ct of Criminal Appeals, P2                       UNDER VOTES                           PRECINCT 4070                                          01 
01330030011000038DEM       Judge, Ct of Criminal Appeals, P2                       UNDER VOTES                           PRECINCT 4100                                          01 
01340010001000098DEM       Judge, Ct of Criminal Appeals, P5                       Betsy Johnson                         PRECINCT 1010                                          01 
01340010002000115DEM       Judge, Ct of Criminal Appeals, P5                       Betsy Johnson                         PRECINCT 1110                                          01 
01340010003000057DEM       Judge, Ct of Criminal Appeals, P5                       Betsy Johnson                         PRECINCT 2020                                          01 
01340010004000077DEM       Judge, Ct of Criminal Appeals, P5                       Betsy Johnson                         PRECINCT 2080                                          01 
01340010005000089DEM       Judge, Ct of Criminal Appeals, P5                       Betsy Johnson                         PRECINCT 2120                                          01 
01340010006000067DEM       Judge, Ct of Criminal Appeals, P5                       Betsy Johnson                         PRECINCT 3030                                          01 
01340010007000104DEM       Judge, Ct of Criminal Appeals, P5                       Betsy Johnson                         PRECINCT 3040                                          01 
01340010008000014DEM       Judge, Ct of Criminal Appeals, P5                       Betsy Johnson                         PRECINCT 3060                                          01 
01340010009000084DEM       Judge, Ct of Criminal Appeals, P5                       Betsy Johnson                         PRECINCT 4050                                          01 
01340010010000009DEM       Judge, Ct of Criminal Appeals, P5                       Betsy Johnson                         PRECINCT 4070                                          01 
01340010011000119DEM       Judge, Ct of Criminal Appeals, P5                       Betsy Johnson                         PRECINCT 4100                                          01 
01340020001000000DEM       Judge, Ct of Criminal Appeals, P5                       OVER VOTES                            PRECINCT 1010                                          01 
01340020002000000DEM       Judge, Ct of Criminal Appeals, P5                       OVER VOTES                            PRECINCT 1110                                          01 
01340020003000000DEM       Judge, Ct of Criminal Appeals, P5                       OVER VOTES                            PRECINCT 2020                                          01 
01340020004000000DEM       Judge, Ct of Criminal Appeals, P5                       OVER VOTES                            PRECINCT 2080                                          01 
01340020005000000DEM       Judge, Ct of Criminal Appeals, P5                       OVER VOTES                            PRECINCT 2120                                          01 
01340020006000000DEM       Judge, Ct of Criminal Appeals, P5                       OVER VOTES                            PRECINCT 3030                                          01 
01340020007000000DEM       Judge, Ct of Criminal Appeals, P5                       OVER VOTES                            PRECINCT 3040                                          01 
01340020008000000DEM       Judge, Ct of Criminal Appeals, P5                       OVER VOTES                            PRECINCT 3060                                          01 
01340020009000000DEM       Judge, Ct of Criminal Appeals, P5                       OVER VOTES                            PRECINCT 4050                                          01 
01340020010000000DEM       Judge, Ct of Criminal Appeals, P5                       OVER VOTES                            PRECINCT 4070                                          01 
01340020011000000DEM       Judge, Ct of Criminal Appeals, P5                       OVER VOTES                            PRECINCT 4100                                          01 
01340030001000039DEM       Judge, Ct of Criminal Appeals, P5                       UNDER VOTES                           PRECINCT 1010                                          01 
01340030002000049DEM       Judge, Ct of Criminal Appeals, P5                       UNDER VOTES                           PRECINCT 1110                                          01 
01340030003000019DEM       Judge, Ct of Criminal Appeals, P5                       UNDER VOTES                           PRECINCT 2020                                          01 
01340030004000033DEM       Judge, Ct of Criminal Appeals, P5                       UNDER VOTES                           PRECINCT 2080                                          01 
01340030005000037DEM       Judge, Ct of Criminal Appeals, P5                       UNDER VOTES                           PRECINCT 2120                                          01 
01340030006000021DEM       Judge, Ct of Criminal Appeals, P5                       UNDER VOTES                           PRECINCT 3030                                          01 
01340030007000040DEM       Judge, Ct of Criminal Appeals, P5                       UNDER VOTES                           PRECINCT 3040                                          01 
01340030008000005DEM       Judge, Ct of Criminal Appeals, P5                       UNDER VOTES                           PRECINCT 3060                                          01 
01340030009000028DEM       Judge, Ct of Criminal Appeals, P5                       UNDER VOTES                           PRECINCT 4050                                          01 
01340030010000002DEM       Judge, Ct of Criminal Appeals, P5                       UNDER VOTES                           PRECINCT 4070                                          01 
01340030011000040DEM       Judge, Ct of Criminal Appeals, P5                       UNDER VOTES                           PRECINCT 4100                                          01 
01350010001000097DEM       Judge, Ct of Criminal Appeals, P6                       Robert Burns                          PRECINCT 1010                                          01 
01350010002000110DEM       Judge, Ct of Criminal Appeals, P6                       Robert Burns                          PRECINCT 1110                                          01 
01350010003000057DEM       Judge, Ct of Criminal Appeals, P6                       Robert Burns                          PRECINCT 2020                                          01 
01350010004000076DEM       Judge, Ct of Criminal Appeals, P6                       Robert Burns                          PRECINCT 2080                                          01 
01350010005000089DEM       Judge, Ct of Criminal Appeals, P6                       Robert Burns                          PRECINCT 2120                                          01 
01350010006000064DEM       Judge, Ct of Criminal Appeals, P6                       Robert Burns                          PRECINCT 3030                                          01 
01350010007000101DEM       Judge, Ct of Criminal Appeals, P6                       Robert Burns                          PRECINCT 3040                                          01 
01350010008000014DEM       Judge, Ct of Criminal Appeals, P6                       Robert Burns                          PRECINCT 3060                                          01 
01350010009000077DEM       Judge, Ct of Criminal Appeals, P6                       Robert Burns                          PRECINCT 4050                                          01 
01350010010000008DEM       Judge, Ct of Criminal Appeals, P6                       Robert Burns                          PRECINCT 4070                                          01 
01350010011000118DEM       Judge, Ct of Criminal Appeals, P6                       Robert Burns                          PRECINCT 4100                                          01 
01350020001000000DEM       Judge, Ct of Criminal Appeals, P6                       OVER VOTES                            PRECINCT 1010                                          01 
01350020002000000DEM       Judge, Ct of Criminal Appeals, P6                       OVER VOTES                            PRECINCT 1110                                          01 
01350020003000000DEM       Judge, Ct of Criminal Appeals, P6                       OVER VOTES                            PRECINCT 2020                                          01 
01350020004000000DEM       Judge, Ct of Criminal Appeals, P6                       OVER VOTES                            PRECINCT 2080                                          01 
01350020005000000DEM       Judge, Ct of Criminal Appeals, P6                       OVER VOTES                            PRECINCT 2120                                          01 
01350020006000000DEM       Judge, Ct of Criminal Appeals, P6                       OVER VOTES                            PRECINCT 3030                                          01 
01350020007000000DEM       Judge, Ct of Criminal Appeals, P6                       OVER VOTES                            PRECINCT 3040                                          01 
01350020008000000DEM       Judge, Ct of Criminal Appeals, P6                       OVER VOTES                            PRECINCT 3060                                          01 
01350020009000000DEM       Judge, Ct of Criminal Appeals, P6                       OVER VOTES                            PRECINCT 4050                                          01 
01350020010000000DEM       Judge, Ct of Criminal Appeals, P6                       OVER VOTES                            PRECINCT 4070                                          01 
01350020011000000DEM       Judge, Ct of Criminal Appeals, P6                       OVER VOTES                            PRECINCT 4100                                          01 
01350030001000040DEM       Judge, Ct of Criminal Appeals, P6                       UNDER VOTES                           PRECINCT 1010                                          01 
01350030002000054DEM       Judge, Ct of Criminal Appeals, P6                       UNDER VOTES                           PRECINCT 1110                                          01 
01350030003000019DEM       Judge, Ct of Criminal Appeals, P6                       UNDER VOTES                           PRECINCT 2020                                          01 
01350030004000034DEM       Judge, Ct of Criminal Appeals, P6                       UNDER VOTES                           PRECINCT 2080                                          01 
01350030005000037DEM       Judge, Ct of Criminal Appeals, P6                       UNDER VOTES                           PRECINCT 2120                                          01 
01350030006000024DEM       Judge, Ct of Criminal Appeals, P6                       UNDER VOTES                           PRECINCT 3030                                          01 
01350030007000043DEM       Judge, Ct of Criminal Appeals, P6                       UNDER VOTES                           PRECINCT 3040                                          01 
01350030008000005DEM       Judge, Ct of Criminal Appeals, P6                       UNDER VOTES                           PRECINCT 3060                                          01 
01350030009000035DEM       Judge, Ct of Criminal Appeals, P6                       UNDER VOTES                           PRECINCT 4050                                          01 
01350030010000003DEM       Judge, Ct of Criminal Appeals, P6                       UNDER VOTES                           PRECINCT 4070                                          01 
01350030011000041DEM       Judge, Ct of Criminal Appeals, P6                       UNDER VOTES                           PRECINCT 4100                                          01 
01360010001000095DEM       Member, State BoE, District 5                           Rebecca Bell-Metereau                 PRECINCT 1010                                          01 
01360010002000112DEM       Member, State BoE, District 5                           Rebecca Bell-Metereau                 PRECINCT 1110                                          01 
01360010003000059DEM       Member, State BoE, District 5                           Rebecca Bell-Metereau                 PRECINCT 2020                                          01 
01360010004000078DEM       Member, State BoE, District 5                           Rebecca Bell-Metereau                 PRECINCT 2080                                          01 
01360010005000088DEM       Member, State BoE, District 5                           Rebecca Bell-Metereau                 PRECINCT 2120                                          01 
01360010006000061DEM       Member, State BoE, District 5                           Rebecca Bell-Metereau                 PRECINCT 3030                                          01 
01360010007000101DEM       Member, State BoE, District 5                           Rebecca Bell-Metereau                 PRECINCT 3040                                          01 
01360010008000014DEM       Member, State BoE, District 5                           Rebecca Bell-Metereau                 PRECINCT 3060                                          01 
01360010009000083DEM       Member, State BoE, District 5                           Rebecca Bell-Metereau                 PRECINCT 4050                                          01 
01360010010000009DEM       Member, State BoE, District 5                           Rebecca Bell-Metereau                 PRECINCT 4070                                          01 
01360010011000116DEM       Member, State BoE, District 5                           Rebecca Bell-Metereau                 PRECINCT 4100                                          01 
01360020001000000DEM       Member, State BoE, District 5                           OVER VOTES                            PRECINCT 1010                                          01 
01360020002000000DEM       Member, State BoE, District 5                           OVER VOTES                            PRECINCT 1110                                          01 
01360020003000000DEM       Member, State BoE, District 5                           OVER VOTES                            PRECINCT 2020                                          01 
01360020004000000DEM       Member, State BoE, District 5                           OVER VOTES                            PRECINCT 2080                                          01 
01360020005000000DEM       Member, State BoE, District 5                           OVER VOTES                            PRECINCT 2120                                          01 
01360020006000000DEM       Member, State BoE, District 5                           OVER VOTES                            PRECINCT 3030                                          01 
01360020007000000DEM       Member, State BoE, District 5                           OVER VOTES                            PRECINCT 3040                                          01 
01360020008000000DEM       Member, State BoE, District 5                           OVER VOTES                            PRECINCT 3060                                          01 
01360020009000000DEM       Member, State BoE, District 5                           OVER VOTES                            PRECINCT 4050                                          01 
01360020010000000DEM       Member, State BoE, District 5                           OVER VOTES                            PRECINCT 4070                                          01 
01360020011000000DEM       Member, State BoE, District 5                           OVER VOTES                            PRECINCT 4100                                          01 
01360030001000042DEM       Member, State BoE, District 5                           UNDER VOTES                           PRECINCT 1010                                          01 
01360030002000052DEM       Member, State BoE, District 5                           UNDER VOTES                           PRECINCT 1110                                          01 
01360030003000017DEM       Member, State BoE, District 5                           UNDER VOTES                           PRECINCT 2020                                          01 
01360030004000032DEM       Member, State BoE, District 5                           UNDER VOTES                           PRECINCT 2080                                          01 
01360030005000038DEM       Member, State BoE, District 5                           UNDER VOTES                           PRECINCT 2120                                          01 
01360030006000027DEM       Member, State BoE, District 5                           UNDER VOTES                           PRECINCT 3030                                          01 
01360030007000043DEM       Member, State BoE, District 5                           UNDER VOTES                           PRECINCT 3040                                          01 
01360030008000005DEM       Member, State BoE, District 5                           UNDER VOTES                           PRECINCT 3060                                          01 
01360030009000029DEM       Member, State BoE, District 5                           UNDER VOTES                           PRECINCT 4050                                          01 
01360030010000002DEM       Member, State BoE, District 5                           UNDER VOTES                           PRECINCT 4070                                          01 
01360030011000043DEM       Member, State BoE, District 5                           UNDER VOTES                           PRECINCT 4100                                          01 
01370010001000101DEM       Justice, 4th Ct of Appeals Dist, P6                     Irene Rios                            PRECINCT 1010                                          01 
01370010002000115DEM       Justice, 4th Ct of Appeals Dist, P6                     Irene Rios                            PRECINCT 1110                                          01 
01370010003000059DEM       Justice, 4th Ct of Appeals Dist, P6                     Irene Rios                            PRECINCT 2020                                          01 
01370010004000079DEM       Justice, 4th Ct of Appeals Dist, P6                     Irene Rios                            PRECINCT 2080                                          01 
01370010005000087DEM       Justice, 4th Ct of Appeals Dist, P6                     Irene Rios                            PRECINCT 2120                                          01 
01370010006000061DEM       Justice, 4th Ct of Appeals Dist, P6                     Irene Rios                            PRECINCT 3030                                          01 
01370010007000105DEM       Justice, 4th Ct of Appeals Dist, P6                     Irene Rios                            PRECINCT 3040                                          01 
01370010008000014DEM       Justice, 4th Ct of Appeals Dist, P6                     Irene Rios                            PRECINCT 3060                                          01 
01370010009000089DEM       Justice, 4th Ct of Appeals Dist, P6                     Irene Rios                            PRECINCT 4050                                          01 
01370010010000009DEM       Justice, 4th Ct of Appeals Dist, P6                     Irene Rios                            PRECINCT 4070                                          01 
01370010011000118DEM       Justice, 4th Ct of Appeals Dist, P6                     Irene Rios                            PRECINCT 4100                                          01 
01370020001000000DEM       Justice, 4th Ct of Appeals Dist, P6                     OVER VOTES                            PRECINCT 1010                                          01 
01370020002000000DEM       Justice, 4th Ct of Appeals Dist, P6                     OVER VOTES                            PRECINCT 1110                                          01 
01370020003000000DEM       Justice, 4th Ct of Appeals Dist, P6                     OVER VOTES                            PRECINCT 2020                                          01 
01370020004000000DEM       Justice, 4th Ct of Appeals Dist, P6                     OVER VOTES                            PRECINCT 2080                                          01 
01370020005000000DEM       Justice, 4th Ct of Appeals Dist, P6                     OVER VOTES                            PRECINCT 2120                                          01 
01370020006000000DEM       Justice, 4th Ct of Appeals Dist, P6                     OVER VOTES                            PRECINCT 3030                                          01 
01370020007000000DEM       Justice, 4th Ct of Appeals Dist, P6                     OVER VOTES                            PRECINCT 3040                                          01 
01370020008000000DEM       Justice, 4th Ct of Appeals Dist, P6                     OVER VOTES                            PRECINCT 3060                                          01 
01370020009000000DEM       Justice, 4th Ct of Appeals Dist, P6                     OVER VOTES                            PRECINCT 4050                                          01 
01370020010000000DEM       Justice, 4th Ct of Appeals Dist, P6                     OVER VOTES                            PRECINCT 4070                                          01 
01370020011000000DEM       Justice, 4th Ct of Appeals Dist, P6                     OVER VOTES                            PRECINCT 4100                                          01 
01370030001000036DEM       Justice, 4th Ct of Appeals Dist, P6                     UNDER VOTES                           PRECINCT 1010                                          01 
01370030002000049DEM       Justice, 4th Ct of Appeals Dist, P6                     UNDER VOTES                           PRECINCT 1110                                          01 
01370030003000017DEM       Justice, 4th Ct of Appeals Dist, P6                     UNDER VOTES                           PRECINCT 2020                                          01 
01370030004000031DEM       Justice, 4th Ct of Appeals Dist, P6                     UNDER VOTES                           PRECINCT 2080                                          01 
01370030005000039DEM       Justice, 4th Ct of Appeals Dist, P6                     UNDER VOTES                           PRECINCT 2120                                          01 
01370030006000027DEM       Justice, 4th Ct of Appeals Dist, P6                     UNDER VOTES                           PRECINCT 3030                                          01 
01370030007000039DEM       Justice, 4th Ct of Appeals Dist, P6                     UNDER VOTES                           PRECINCT 3040                                          01 
01370030008000005DEM       Justice, 4th Ct of Appeals Dist, P6                     UNDER VOTES                           PRECINCT 3060                                          01 
01370030009000023DEM       Justice, 4th Ct of Appeals Dist, P6                     UNDER VOTES                           PRECINCT 4050                                          01 
01370030010000002DEM       Justice, 4th Ct of Appeals Dist, P6                     UNDER VOTES                           PRECINCT 4070                                          01 
01370030011000041DEM       Justice, 4th Ct of Appeals Dist, P6                     UNDER VOTES                           PRECINCT 4100                                          01 
01380010006000061DEM       County Commissioner, Precinct No. 3                     Cesar de Leon                         PRECINCT 3030                                          01 
01380010007000102DEM       County Commissioner, Precinct No. 3                     Cesar de Leon                         PRECINCT 3040                                          01 
01380010008000014DEM       County Commissioner, Precinct No. 3                     Cesar de Leon                         PRECINCT 3060                                          01 
01380020006000000DEM       County Commissioner, Precinct No. 3                     OVER VOTES                            PRECINCT 3030                                          01 
01380020007000000DEM       County Commissioner, Precinct No. 3                     OVER VOTES                            PRECINCT 3040                                          01 
01380020008000000DEM       County Commissioner, Precinct No. 3                     OVER VOTES                            PRECINCT 3060                                          01 
01380030006000027DEM       County Commissioner, Precinct No. 3                     UNDER VOTES                           PRECINCT 3030                                          01 
01380030007000042DEM       County Commissioner, Precinct No. 3                     UNDER VOTES                           PRECINCT 3040                                          01 
01380030008000005DEM       County Commissioner, Precinct No. 3                     UNDER VOTES                           PRECINCT 3060                                          01 
01390010009000088DEM       County Commissioner, Precinct 4, Unexpir                Rebecca Rogers                        PRECINCT 4050                                          01 
01390010010000009DEM       County Commissioner, Precinct 4, Unexpir                Rebecca Rogers                        PRECINCT 4070                                          01 
01390010011000117DEM       County Commissioner, Precinct 4, Unexpir                Rebecca Rogers                        PRECINCT 4100                                          01 
01390020009000000DEM       County Commissioner, Precinct 4, Unexpir                OVER VOTES                            PRECINCT 4050                                          01 
01390020010000000DEM       County Commissioner, Precinct 4, Unexpir                OVER VOTES                            PRECINCT 4070                                          01 
01390020011000000DEM       County Commissioner, Precinct 4, Unexpir                OVER VOTES                            PRECINCT 4100                                          01 
01390030009000024DEM       County Commissioner, Precinct 4, Unexpir                UNDER VOTES                           PRECINCT 4050                                          01 
01390030010000002DEM       County Commissioner, Precinct 4, Unexpir                UNDER VOTES                           PRECINCT 4070                                          01 
01390030011000042DEM       County Commissioner, Precinct 4, Unexpir                UNDER VOTES                           PRECINCT 4100                                          01 
01400010001000097DEM       County Chairman                                         John Weir                             PRECINCT 1010                                          01 
01400010002000108DEM       County Chairman                                         John Weir                             PRECINCT 1110                                          01 
01400010003000057DEM       County Chairman                                         John Weir                             PRECINCT 2020                                          01 
01400010004000079DEM       County Chairman                                         John Weir                             PRECINCT 2080                                          01 
01400010005000086DEM       County Chairman                                         John Weir                             PRECINCT 2120                                          01 
01400010006000059DEM       County Chairman                                         John Weir                             PRECINCT 3030                                          01 
01400010007000105DEM       County Chairman                                         John Weir                             PRECINCT 3040                                          01 
01400010008000015DEM       County Chairman                                         John Weir                             PRECINCT 3060                                          01 
01400010009000082DEM       County Chairman                                         John Weir                             PRECINCT 4050                                          01 
01400010010000010DEM       County Chairman                                         John Weir                             PRECINCT 4070                                          01 
01400010011000117DEM       County Chairman                                         John Weir                             PRECINCT 4100                                          01 
01400020001000000DEM       County Chairman                                         OVER VOTES                            PRECINCT 1010                                          01 
01400020002000000DEM       County Chairman                                         OVER VOTES                            PRECINCT 1110                                          01 
01400020003000000DEM       County Chairman                                         OVER VOTES                            PRECINCT 2020                                          01 
01400020004000000DEM       County Chairman                                         OVER VOTES                            PRECINCT 2080                                          01 
01400020005000000DEM       County Chairman                                         OVER VOTES                            PRECINCT 2120                                          01 
01400020006000000DEM       County Chairman                                         OVER VOTES                            PRECINCT 3030                                          01 
01400020007000000DEM       County Chairman                                         OVER VOTES                            PRECINCT 3040                                          01 
01400020008000000DEM       County Chairman                                         OVER VOTES                            PRECINCT 3060                                          01 
01400020009000000DEM       County Chairman                                         OVER VOTES                            PRECINCT 4050                                          01 
01400020010000000DEM       County Chairman                                         OVER VOTES                            PRECINCT 4070                                          01 
01400020011000000DEM       County Chairman                                         OVER VOTES                            PRECINCT 4100                                          01 
01400030001000040DEM       County Chairman                                         UNDER VOTES                           PRECINCT 1010                                          01 
01400030002000056DEM       County Chairman                                         UNDER VOTES                           PRECINCT 1110                                          01 
01400030003000019DEM       County Chairman                                         UNDER VOTES                           PRECINCT 2020                                          01 
01400030004000031DEM       County Chairman                                         UNDER VOTES                           PRECINCT 2080                                          01 
01400030005000040DEM       County Chairman                                         UNDER VOTES                           PRECINCT 2120                                          01 
01400030006000029DEM       County Chairman                                         UNDER VOTES                           PRECINCT 3030                                          01 
01400030007000039DEM       County Chairman                                         UNDER VOTES                           PRECINCT 3040                                          01 
01400030008000004DEM       County Chairman                                         UNDER VOTES                           PRECINCT 3060                                          01 
01400030009000030DEM       County Chairman                                         UNDER VOTES                           PRECINCT 4050                                          01 
01400030010000001DEM       County Chairman                                         UNDER VOTES                           PRECINCT 4070                                          01 
01400030011000042DEM       County Chairman                                         UNDER VOTES                           PRECINCT 4100                                          01 
01450010001000125DEM       Referenda Item #1                                       For                                   PRECINCT 1010                                          01Y
01450010002000152DEM       Referenda Item #1                                       For                                   PRECINCT 1110                                          01Y
01450010003000071DEM       Referenda Item #1                                       For                                   PRECINCT 2020                                          01Y
01450010004000099DEM       Referenda Item #1                                       For                                   PRECINCT 2080                                          01Y
01450010005000117DEM       Referenda Item #1                                       For                                   PRECINCT 2120                                          01Y
01450010006000081DEM       Referenda Item #1                                       For                                   PRECINCT 3030                                          01Y
01450010007000131DEM       Referenda Item #1                                       For                                   PRECINCT 3040                                          01Y
01450010008000018DEM       Referenda Item #1                                       For                                   PRECINCT 3060                                          01Y
01450010009000101DEM       Referenda Item #1                                       For                                   PRECINCT 4050                                          01Y
01450010010000011DEM       Referenda Item #1                                       For                                   PRECINCT 4070                                          01Y
01450010011000138DEM       Referenda Item #1                                       For                                   PRECINCT 4100                                          01Y
01450020001000005DEM       Referenda Item #1                                       Against                               PRECINCT 1010                                          01Y
01450020002000007DEM       Referenda Item #1                                       Against                               PRECINCT 1110                                          01Y
01450020003000004DEM       Referenda Item #1                                       Against                               PRECINCT 2020                                          01Y
01450020004000004DEM       Referenda Item #1                                       Against                               PRECINCT 2080                                          01Y
01450020005000005DEM       Referenda Item #1                                       Against                               PRECINCT 2120                                          01Y
01450020006000005DEM       Referenda Item #1                                       Against                               PRECINCT 3030                                          01Y
01450020007000006DEM       Referenda Item #1                                       Against                               PRECINCT 3040                                          01Y
01450020008000000DEM       Referenda Item #1                                       Against                               PRECINCT 3060                                          01Y
01450020009000006DEM       Referenda Item #1                                       Against                               PRECINCT 4050                                          01Y
01450020010000000DEM       Referenda Item #1                                       Against                               PRECINCT 4070                                          01Y
01450020011000009DEM       Referenda Item #1                                       Against                               PRECINCT 4100                                          01Y
01450030001000000DEM       Referenda Item #1                                       OVER VOTES                            PRECINCT 1010                                          01Y
01450030002000000DEM       Referenda Item #1                                       OVER VOTES                            PRECINCT 1110                                          01Y
01450030003000000DEM       Referenda Item #1                                       OVER VOTES                            PRECINCT 2020                                          01Y
01450030004000000DEM       Referenda Item #1                                       OVER VOTES                            PRECINCT 2080                                          01Y
01450030005000000DEM       Referenda Item #1                                       OVER VOTES                            PRECINCT 2120                                          01Y
01450030006000000DEM       Referenda Item #1                                       OVER VOTES                            PRECINCT 3030                                          01Y
