01050010001000007REP       President                                               Rand Paul                             PRECINCT 1010                                          01 
01050010002000005REP       President                                               Rand Paul                             PRECINCT 1110                                          01 
01050010003000002REP       President                                               Rand Paul                             PRECINCT 2020                                          01 
01050010004000004REP       President                                               Rand Paul                             PRECINCT 2080                                          01 
01050010005000007REP       President                                               Rand Paul                             PRECINCT 2120                                          01 
01050010006000004REP       President                                               Rand Paul                             PRECINCT 3030                                          01 
01050010007000005REP       President                                               Rand Paul                             PRECINCT 3040                                          01 
01050010008000000REP       President                                               Rand Paul                             PRECINCT 3060                                          01 
01050010009000006REP       President                                               Rand Paul                             PRECINCT 4050                                          01 
01050010010000000REP       President                                               Rand Paul                             PRECINCT 4070                                          01 
01050010011000007REP       President                                               Rand Paul                             PRECINCT 4100                                          01 
01050020001000047REP       President                                               Ben Carson                            PRECINCT 1010                                          01 
01050020002000064REP       President                                               Ben Carson                            PRECINCT 1110                                          01 
01050020003000038REP       President                                               Ben Carson                            PRECINCT 2020                                          01 
01050020004000051REP       President                                               Ben Carson                            PRECINCT 2080                                          01 
01050020005000044REP       President                                               Ben Carson                            PRECINCT 2120                                          01 
01050020006000035REP       President                                               Ben Carson                            PRECINCT 3030                                          01 
01050020007000093REP       President                                               Ben Carson                            PRECINCT 3040                                          01 
01050020008000010REP       President                                               Ben Carson                            PRECINCT 3060                                          01 
01050020009000042REP       President                                               Ben Carson                            PRECINCT 4050                                          01 
01050020010000005REP       President                                               Ben Carson                            PRECINCT 4070                                          01 
01050020011000050REP       President                                               Ben Carson                            PRECINCT 4100                                          01 
01050030001000001REP       President                                               Chris Christie                        PRECINCT 1010                                          01 
01050030002000002REP       President                                               Chris Christie                        PRECINCT 1110                                          01 
01050030003000002REP       President                                               Chris Christie                        PRECINCT 2020                                          01 
01050030004000000REP       President                                               Chris Christie                        PRECINCT 2080                                          01 
01050030005000003REP       President                                               Chris Christie                        PRECINCT 2120                                          01 
01050030006000000REP       President                                               Chris Christie                        PRECINCT 3030                                          01 
01050030007000002REP       President                                               Chris Christie                        PRECINCT 3040                                          01 
01050030008000001REP       President                                               Chris Christie                        PRECINCT 3060                                          01 
01050030009000001REP       President                                               Chris Christie                        PRECINCT 4050                                          01 
01050030010000000REP       President                                               Chris Christie                        PRECINCT 4070                                          01 
01050030011000002REP       President                                               Chris Christie                        PRECINCT 4100                                          01 
01050040001000001REP       President                                               Rick Santorum                         PRECINCT 1010                                          01 
01050040002000001REP       President                                               Rick Santorum                         PRECINCT 1110                                          01 
01050040003000000REP       President                                               Rick Santorum                         PRECINCT 2020                                          01 
01050040004000000REP       President                                               Rick Santorum                         PRECINCT 2080                                          01 
01050040005000000REP       President                                               Rick Santorum                         PRECINCT 2120                                          01 
01050040006000000REP       President                                               Rick Santorum                         PRECINCT 3030                                          01 
01050040007000000REP       President                                               Rick Santorum                         PRECINCT 3040                                          01 
01050040008000000REP       President                                               Rick Santorum                         PRECINCT 3060                                          01 
01050040009000000REP       President                                               Rick Santorum                         PRECINCT 4050                                          01 
01050040010000000REP       President                                               Rick Santorum                         PRECINCT 4070                                          01 
01050040011000000REP       President                                               Rick Santorum                         PRECINCT 4100                                          01 
01050050001000011REP       President                                               Jeb Bush                              PRECINCT 1010                                          01 
01050050002000017REP       President                                               Jeb Bush                              PRECINCT 1110                                          01 
01050050003000016REP       President                                               Jeb Bush                              PRECINCT 2020                                          01 
01050050004000010REP       President                                               Jeb Bush                              PRECINCT 2080                                          01 
01050050005000013REP       President                                               Jeb Bush                              PRECINCT 2120                                          01 
01050050006000012REP       President                                               Jeb Bush                              PRECINCT 3030                                          01 
01050050007000029REP       President                                               Jeb Bush                              PRECINCT 3040                                          01 
01050050008000001REP       President                                               Jeb Bush                              PRECINCT 3060                                          01 
01050050009000020REP       President                                               Jeb Bush                              PRECINCT 4050                                          01 
01050050010000002REP       President                                               Jeb Bush                              PRECINCT 4070                                          01 
01050050011000010REP       President                                               Jeb Bush                              PRECINCT 4100                                          01 
01050060001000003REP       President                                               Mike Huckabee                         PRECINCT 1010                                          01 
01050060002000002REP       President                                               Mike Huckabee                         PRECINCT 1110                                          01 
01050060003000001REP       President                                               Mike Huckabee                         PRECINCT 2020                                          01 
01050060004000000REP       President                                               Mike Huckabee                         PRECINCT 2080                                          01 
01050060005000001REP       President                                               Mike Huckabee                         PRECINCT 2120                                          01 
01050060006000000REP       President                                               Mike Huckabee                         PRECINCT 3030                                          01 
01050060007000002REP       President                                               Mike Huckabee                         PRECINCT 3040                                          01 
01050060008000001REP       President                                               Mike Huckabee                         PRECINCT 3060                                          01 
01050060009000002REP       President                                               Mike Huckabee                         PRECINCT 4050                                          01 
01050060010000000REP       President                                               Mike Huckabee                         PRECINCT 4070                                          01 
01050060011000001REP       President                                               Mike Huckabee                         PRECINCT 4100                                          01 
01050070001000000REP       President                                               Elizabeth Gray                        PRECINCT 1010                                          01 
01050070002000000REP       President                                               Elizabeth Gray                        PRECINCT 1110                                          01 
01050070003000000REP       President                                               Elizabeth Gray                        PRECINCT 2020                                          01 
01050070004000001REP       President                                               Elizabeth Gray                        PRECINCT 2080                                          01 
01050070005000000REP       President                                               Elizabeth Gray                        PRECINCT 2120                                          01 
01050070006000000REP       President                                               Elizabeth Gray                        PRECINCT 3030                                          01 
01050070007000000REP       President                                               Elizabeth Gray                        PRECINCT 3040                                          01 
01050070008000000REP       President                                               Elizabeth Gray                        PRECINCT 3060                                          01 
01050070009000000REP       President                                               Elizabeth Gray                        PRECINCT 4050                                          01 
01050070010000000REP       President                                               Elizabeth Gray                        PRECINCT 4070                                          01 
01050070011000000REP       President                                               Elizabeth Gray                        PRECINCT 4100                                          01 
01050080001000004REP       President                                               Carly Fiorina                         PRECINCT 1010                                          01 
01050080002000003REP       President                                               Carly Fiorina                         PRECINCT 1110                                          01 
01050080003000004REP       President                                               Carly Fiorina                         PRECINCT 2020                                          01 
01050080004000001REP       President                                               Carly Fiorina                         PRECINCT 2080                                          01 
01050080005000001REP       President                                               Carly Fiorina                         PRECINCT 2120                                          01 
01050080006000001REP       President                                               Carly Fiorina                         PRECINCT 3030                                          01 
01050080007000001REP       President                                               Carly Fiorina                         PRECINCT 3040                                          01 
01050080008000000REP       President                                               Carly Fiorina                         PRECINCT 3060                                          01 
01050080009000001REP       President                                               Carly Fiorina                         PRECINCT 4050                                          01 
01050080010000000REP       President                                               Carly Fiorina                         PRECINCT 4070                                          01 
01050080011000001REP       President                                               Carly Fiorina                         PRECINCT 4100                                          01 
01050090001000324REP       President                                               Ted Cruz                              PRECINCT 1010                                          01 
01050090002000587REP       President                                               Ted Cruz                              PRECINCT 1110                                          01 
01050090003000362REP       President                                               Ted Cruz                              PRECINCT 2020                                          01 
01050090004000425REP       President                                               Ted Cruz                              PRECINCT 2080                                          01 
01050090005000499REP       President                                               Ted Cruz                              PRECINCT 2120                                          01 
01050090006000431REP       President                                               Ted Cruz                              PRECINCT 3030                                          01 
01050090007000557REP       President                                               Ted Cruz                              PRECINCT 3040                                          01 
01050090008000117REP       President                                               Ted Cruz                              PRECINCT 3060                                          01 
01050090009000464REP       President                                               Ted Cruz                              PRECINCT 4050                                          01 
01050090010000060REP       President                                               Ted Cruz                              PRECINCT 4070                                          01 
01050090011000567REP       President                                               Ted Cruz                              PRECINCT 4100                                          01 
01050100001000145REP       President                                               Marco Rubio                           PRECINCT 1010                                          01 
01050100002000293REP       President                                               Marco Rubio                           PRECINCT 1110                                          01 
01050100003000179REP       President                                               Marco Rubio                           PRECINCT 2020                                          01 
01050100004000238REP       President                                               Marco Rubio                           PRECINCT 2080                                          01 
01050100005000203REP       President                                               Marco Rubio                           PRECINCT 2120                                          01 
01050100006000138REP       President                                               Marco Rubio                           PRECINCT 3030                                          01 
01050100007000231REP       President                                               Marco Rubio                           PRECINCT 3040                                          01 
01050100008000032REP       President                                               Marco Rubio                           PRECINCT 3060                                          01 
01050100009000155REP       President                                               Marco Rubio                           PRECINCT 4050                                          01 
01050100010000011REP       President                                               Marco Rubio                           PRECINCT 4070                                          01 
01050100011000222REP       President                                               Marco Rubio                           PRECINCT 4100                                          01 
01050110001000220REP       President                                               Donald J. Trump                       PRECINCT 1010                                          01 
01050110002000370REP       President                                               Donald J. Trump                       PRECINCT 1110                                          01 
01050110003000208REP       President                                               Donald J. Trump                       PRECINCT 2020                                          01 
01050110004000244REP       President                                               Donald J. Trump                       PRECINCT 2080                                          01 
01050110005000258REP       President                                               Donald J. Trump                       PRECINCT 2120                                          01 
01050110006000201REP       President                                               Donald J. Trump                       PRECINCT 3030                                          01 
01050110007000327REP       President                                               Donald J. Trump                       PRECINCT 3040                                          01 
01050110008000081REP       President                                               Donald J. Trump                       PRECINCT 3060                                          01 
01050110009000245REP       President                                               Donald J. Trump                       PRECINCT 4050                                          01 
01050110010000047REP       President                                               Donald J. Trump                       PRECINCT 4070                                          01 
01050110011000319REP       President                                               Donald J. Trump                       PRECINCT 4100                                          01 
01050120001000033REP       President                                               John R. Kasich                        PRECINCT 1010                                          01 
01050120002000054REP       President                                               John R. Kasich                        PRECINCT 1110                                          01 
01050120003000037REP       President                                               John R. Kasich                        PRECINCT 2020                                          01 
01050120004000048REP       President                                               John R. Kasich                        PRECINCT 2080                                          01 
01050120005000035REP       President                                               John R. Kasich                        PRECINCT 2120                                          01 
01050120006000035REP       President                                               John R. Kasich                        PRECINCT 3030                                          01 
01050120007000047REP       President                                               John R. Kasich                        PRECINCT 3040                                          01 
01050120008000013REP       President                                               John R. Kasich                        PRECINCT 3060                                          01 
01050120009000035REP       President                                               John R. Kasich                        PRECINCT 4050                                          01 
01050120010000007REP       President                                               John R. Kasich                        PRECINCT 4070                                          01 
01050120011000068REP       President                                               John R. Kasich                        PRECINCT 4100                                          01 
01050130001000014REP       President                                               Lindsey Graham                        PRECINCT 1010                                          01 
01050130002000035REP       President                                               Lindsey Graham                        PRECINCT 1110                                          01 
01050130003000018REP       President                                               Lindsey Graham                        PRECINCT 2020                                          01 
01050130004000019REP       President                                               Lindsey Graham                        PRECINCT 2080                                          01 
01050130005000022REP       President                                               Lindsey Graham                        PRECINCT 2120                                          01 
01050130006000016REP       President                                               Lindsey Graham                        PRECINCT 3030                                          01 
01050130007000028REP       President                                               Lindsey Graham                        PRECINCT 3040                                          01 
01050130008000002REP       President                                               Lindsey Graham                        PRECINCT 3060                                          01 
01050130009000009REP       President                                               Lindsey Graham                        PRECINCT 4050                                          01 
01050130010000004REP       President                                               Lindsey Graham                        PRECINCT 4070                                          01 
01050130011000013REP       President                                               Lindsey Graham                        PRECINCT 4100                                          01 
01050140001000018REP       President                                               Uncommitted                           PRECINCT 1010                                          01 
01050140002000017REP       President                                               Uncommitted                           PRECINCT 1110                                          01 
01050140003000006REP       President                                               Uncommitted                           PRECINCT 2020                                          01 
01050140004000009REP       President                                               Uncommitted                           PRECINCT 2080                                          01 
01050140005000016REP       President                                               Uncommitted                           PRECINCT 2120                                          01 
01050140006000008REP       President                                               Uncommitted                           PRECINCT 3030                                          01 
01050140007000016REP       President                                               Uncommitted                           PRECINCT 3040                                          01 
01050140008000001REP       President                                               Uncommitted                           PRECINCT 3060                                          01 
01050140009000011REP       President                                               Uncommitted                           PRECINCT 4050                                          01 
01050140010000004REP       President                                               Uncommitted                           PRECINCT 4070                                          01 
01050140011000016REP       President                                               Uncommitted                           PRECINCT 4100                                          01 
01050150001000000REP       President                                               OVER VOTES                            PRECINCT 1010                                          01 
01050150002000000REP       President                                               OVER VOTES                            PRECINCT 1110                                          01 
01050150003000000REP       President                                               OVER VOTES                            PRECINCT 2020                                          01 
01050150004000000REP       President                                               OVER VOTES                            PRECINCT 2080                                          01 
01050150005000000REP       President                                               OVER VOTES                            PRECINCT 2120                                          01 
01050150006000000REP       President                                               OVER VOTES                            PRECINCT 3030                                          01 
01050150007000000REP       President                                               OVER VOTES                            PRECINCT 3040                                          01 
01050150008000000REP       President                                               OVER VOTES                            PRECINCT 3060                                          01 
01050150009000000REP       President                                               OVER VOTES                            PRECINCT 4050                                          01 
01050150010000000REP       President                                               OVER VOTES                            PRECINCT 4070                                          01 
01050150011000000REP       President                                               OVER VOTES                            PRECINCT 4100                                          01 
01050160001000007REP       President                                               UNDER VOTES                           PRECINCT 1010                                          01 
01050160002000006REP       President                                               UNDER VOTES                           PRECINCT 1110                                          01 
01050160003000002REP       President                                               UNDER VOTES                           PRECINCT 2020                                          01 
01050160004000002REP       President                                               UNDER VOTES                           PRECINCT 2080                                          01 
01050160005000001REP       President                                               UNDER VOTES                           PRECINCT 2120                                          01 
01050160006000004REP       President                                               UNDER VOTES                           PRECINCT 3030                                          01 
01050160007000006REP       President                                               UNDER VOTES                           PRECINCT 3040                                          01 
01050160008000000REP       President                                               UNDER VOTES                           PRECINCT 3060                                          01 
01050160009000012REP       President                                               UNDER VOTES                           PRECINCT 4050                                          01 
01050160010000000REP       President                                               UNDER VOTES                           PRECINCT 4070                                          01 
01050160011000002REP       President                                               UNDER VOTES                           PRECINCT 4100                                          01 
01060010001000366REP       US Representative, District 21                          Lamar Smith                           PRECINCT 1010                                          01 
01060010002000752REP       US Representative, District 21                          Lamar Smith                           PRECINCT 1110                                          01 
01060010003000444REP       US Representative, District 21                          Lamar Smith                           PRECINCT 2020                                          01 
01060010004000583REP       US Representative, District 21                          Lamar Smith                           PRECINCT 2080                                          01 
01060010005000461REP       US Representative, District 21                          Lamar Smith                           PRECINCT 2120                                          01 
01060010006000427REP       US Representative, District 21                          Lamar Smith                           PRECINCT 3030                                          01 
01060010007000619REP       US Representative, District 21                          Lamar Smith                           PRECINCT 3040                                          01 
01060010008000126REP       US Representative, District 21                          Lamar Smith                           PRECINCT 3060                                          01 
01060010009000504REP       US Representative, District 21                          Lamar Smith                           PRECINCT 4050                                          01 
01060010010000061REP       US Representative, District 21                          Lamar Smith                           PRECINCT 4070                                          01 
01060010011000580REP       US Representative, District 21                          Lamar Smith                           PRECINCT 4100                                          01 
01060020001000026REP       US Representative, District 21                          Todd Phelps                           PRECINCT 1010                                          01 
01060020002000027REP       US Representative, District 21                          Todd Phelps                           PRECINCT 1110                                          01 
01060020003000025REP       US Representative, District 21                          Todd Phelps                           PRECINCT 2020                                          01 
01060020004000029REP       US Representative, District 21                          Todd Phelps                           PRECINCT 2080                                          01 
01060020005000027REP       US Representative, District 21                          Todd Phelps                           PRECINCT 2120                                          01 
01060020006000028REP       US Representative, District 21                          Todd Phelps                           PRECINCT 3030                                          01 
01060020007000042REP       US Representative, District 21                          Todd Phelps                           PRECINCT 3040                                          01 
01060020008000009REP       US Representative, District 21                          Todd Phelps                           PRECINCT 3060                                          01 
01060020009000029REP       US Representative, District 21                          Todd Phelps                           PRECINCT 4050                                          01 
01060020010000007REP       US Representative, District 21                          Todd Phelps                           PRECINCT 4070                                          01 
01060020011000039REP       US Representative, District 21                          Todd Phelps                           PRECINCT 4100                                          01 
01060030001000032REP       US Representative, District 21                          John Murphy                           PRECINCT 1010                                          01 
01060030002000048REP       US Representative, District 21                          John Murphy                           PRECINCT 1110                                          01 
01060030003000021REP       US Representative, District 21                          John Murphy                           PRECINCT 2020                                          01 
01060030004000030REP       US Representative, District 21                          John Murphy                           PRECINCT 2080                                          01 
01060030005000029REP       US Representative, District 21                          John Murphy                           PRECINCT 2120                                          01 
01060030006000020REP       US Representative, District 21                          John Murphy                           PRECINCT 3030                                          01 
01060030007000050REP       US Representative, District 21                          John Murphy                           PRECINCT 3040                                          01 
01060030008000015REP       US Representative, District 21                          John Murphy                           PRECINCT 3060                                          01 
01060030009000030REP       US Representative, District 21                          John Murphy                           PRECINCT 4050                                          01 
01060030010000003REP       US Representative, District 21                          John Murphy                           PRECINCT 4070                                          01 
01060030011000039REP       US Representative, District 21                          John Murphy                           PRECINCT 4100                                          01 
01060040001000331REP       US Representative, District 21                          Matt McCall                           PRECINCT 1010                                          01 
01060040002000509REP       US Representative, District 21                          Matt McCall                           PRECINCT 1110                                          01 
01060040003000318REP       US Representative, District 21                          Matt McCall                           PRECINCT 2020                                          01 
01060040004000332REP       US Representative, District 21                          Matt McCall                           PRECINCT 2080                                          01 
01060040005000490REP       US Representative, District 21                          Matt McCall                           PRECINCT 2120                                          01 
01060040006000348REP       US Representative, District 21                          Matt McCall                           PRECINCT 3030                                          01 
01060040007000535REP       US Representative, District 21                          Matt McCall                           PRECINCT 3040                                          01 
01060040008000093REP       US Representative, District 21                          Matt McCall                           PRECINCT 3060                                          01 
01060040009000369REP       US Representative, District 21                          Matt McCall                           PRECINCT 4050                                          01 
01060040010000065REP       US Representative, District 21                          Matt McCall                           PRECINCT 4070                                          01 
01060040011000538REP       US Representative, District 21                          Matt McCall                           PRECINCT 4100                                          01 
01060050001000000REP       US Representative, District 21                          OVER VOTES                            PRECINCT 1010                                          01 
01060050002000000REP       US Representative, District 21                          OVER VOTES                            PRECINCT 1110                                          01 
01060050003000000REP       US Representative, District 21                          OVER VOTES                            PRECINCT 2020                                          01 
01060050004000000REP       US Representative, District 21                          OVER VOTES                            PRECINCT 2080                                          01 
01060050005000000REP       US Representative, District 21                          OVER VOTES                            PRECINCT 2120                                          01 
01060050006000000REP       US Representative, District 21                          OVER VOTES                            PRECINCT 3030                                          01 
01060050007000000REP       US Representative, District 21                          OVER VOTES                            PRECINCT 3040                                          01 
01060050008000000REP       US Representative, District 21                          OVER VOTES                            PRECINCT 3060                                          01 
01060050009000000REP       US Representative, District 21                          OVER VOTES                            PRECINCT 4050                                          01 
01060050010000000REP       US Representative, District 21                          OVER VOTES                            PRECINCT 4070                                          01 
01060050011000000REP       US Representative, District 21                          OVER VOTES                            PRECINCT 4100                                          01 
01060060001000080REP       US Representative, District 21                          UNDER VOTES                           PRECINCT 1010                                          01 
01060060002000120REP       US Representative, District 21                          UNDER VOTES                           PRECINCT 1110                                          01 
01060060003000067REP       US Representative, District 21                          UNDER VOTES                           PRECINCT 2020                                          01 
01060060004000078REP       US Representative, District 21                          UNDER VOTES                           PRECINCT 2080                                          01 
01060060005000096REP       US Representative, District 21                          UNDER VOTES                           PRECINCT 2120                                          01 
01060060006000062REP       US Representative, District 21                          UNDER VOTES                           PRECINCT 3030                                          01 
01060060007000098REP       US Representative, District 21                          UNDER VOTES                           PRECINCT 3040                                          01 
01060060008000016REP       US Representative, District 21                          UNDER VOTES                           PRECINCT 3060                                          01 
01060060009000071REP       US Representative, District 21                          UNDER VOTES                           PRECINCT 4050                                          01 
01060060010000004REP       US Representative, District 21                          UNDER VOTES                           PRECINCT 4070                                          01 
01060060011000082REP       US Representative, District 21                          UNDER VOTES                           PRECINCT 4100                                          01 
01070010001000167REP       Railroad Commissioner                                   Wayne Christian                       PRECINCT 1010                                          01 
01070010002000312REP       Railroad Commissioner                                   Wayne Christian                       PRECINCT 1110                                          01 
01070010003000163REP       Railroad Commissioner                                   Wayne Christian                       PRECINCT 2020                                          01 
01070010004000212REP       Railroad Commissioner                                   Wayne Christian                       PRECINCT 2080                                          01 
01070010005000229REP       Railroad Commissioner                                   Wayne Christian                       PRECINCT 2120                                          01 
01070010006000198REP       Railroad Commissioner                                   Wayne Christian                       PRECINCT 3030                                          01 
01070010007000276REP       Railroad Commissioner                                   Wayne Christian                       PRECINCT 3040                                          01 
01070010008000063REP       Railroad Commissioner                                   Wayne Christian                       PRECINCT 3060                                          01 
01070010009000199REP       Railroad Commissioner                                   Wayne Christian                       PRECINCT 4050                                          01 
01070010010000027REP       Railroad Commissioner                                   Wayne Christian                       PRECINCT 4070                                          01 
01070010011000246REP       Railroad Commissioner                                   Wayne Christian                       PRECINCT 4100                                          01 
01070020001000029REP       Railroad Commissioner                                   John Greytok                          PRECINCT 1010                                          01 
01070020002000044REP       Railroad Commissioner                                   John Greytok                          PRECINCT 1110                                          01 
01070020003000029REP       Railroad Commissioner                                   John Greytok                          PRECINCT 2020                                          01 
01070020004000034REP       Railroad Commissioner                                   John Greytok                          PRECINCT 2080                                          01 
01070020005000036REP       Railroad Commissioner                                   John Greytok                          PRECINCT 2120                                          01 
01070020006000025REP       Railroad Commissioner                                   John Greytok                          PRECINCT 3030                                          01 
01070020007000054REP       Railroad Commissioner                                   John Greytok                          PRECINCT 3040                                          01 
01070020008000004REP       Railroad Commissioner                                   John Greytok                          PRECINCT 3060                                          01 
01070020009000035REP       Railroad Commissioner                                   John Greytok                          PRECINCT 4050                                          01 
01070020010000003REP       Railroad Commissioner                                   John Greytok                          PRECINCT 4070                                          01 
01070020011000041REP       Railroad Commissioner                                   John Greytok                          PRECINCT 4100                                          01 
01070030001000114REP       Railroad Commissioner                                   Gary Gates                            PRECINCT 1010                                          01 
01070030002000224REP       Railroad Commissioner                                   Gary Gates                            PRECINCT 1110                                          01 
01070030003000121REP       Railroad Commissioner                                   Gary Gates                            PRECINCT 2020                                          01 
01070030004000146REP       Railroad Commissioner                                   Gary Gates                            PRECINCT 2080                                          01 
01070030005000177REP       Railroad Commissioner                                   Gary Gates                            PRECINCT 2120                                          01 
01070030006000141REP       Railroad Commissioner                                   Gary Gates                            PRECINCT 3030                                          01 
01070030007000221REP       Railroad Commissioner                                   Gary Gates                            PRECINCT 3040                                          01 
01070030008000050REP       Railroad Commissioner                                   Gary Gates                            PRECINCT 3060                                          01 
01070030009000185REP       Railroad Commissioner                                   Gary Gates                            PRECINCT 4050                                          01 
01070030010000037REP       Railroad Commissioner                                   Gary Gates                            PRECINCT 4070                                          01 
01070030011000204REP       Railroad Commissioner                                   Gary Gates                            PRECINCT 4100                                          01 
01070040001000043REP       Railroad Commissioner                                   Weston Martinez                       PRECINCT 1010                                          01 
01070040002000069REP       Railroad Commissioner                                   Weston Martinez                       PRECINCT 1110                                          01 
01070040003000050REP       Railroad Commissioner                                   Weston Martinez                       PRECINCT 2020                                          01 
01070040004000073REP       Railroad Commissioner                                   Weston Martinez                       PRECINCT 2080                                          01 
01070040005000058REP       Railroad Commissioner                                   Weston Martinez                       PRECINCT 2120                                          01 
01070040006000056REP       Railroad Commissioner                                   Weston Martinez                       PRECINCT 3030                                          01 
01070040007000078REP       Railroad Commissioner                                   Weston Martinez                       PRECINCT 3040                                          01 
01070040008000018REP       Railroad Commissioner                                   Weston Martinez                       PRECINCT 3060                                          01 
01070040009000079REP       Railroad Commissioner                                   Weston Martinez                       PRECINCT 4050                                          01 
01070040010000008REP       Railroad Commissioner                                   Weston Martinez                       PRECINCT 4070                                          01 
01070040011000092REP       Railroad Commissioner                                   Weston Martinez                       PRECINCT 4100                                          01 
01070050001000078REP       Railroad Commissioner                                   Doug Jeffrey                          PRECINCT 1010                                          01 
01070050002000139REP       Railroad Commissioner                                   Doug Jeffrey                          PRECINCT 1110                                          01 
01070050003000078REP       Railroad Commissioner                                   Doug Jeffrey                          PRECINCT 2020                                          01 
01070050004000092REP       Railroad Commissioner                                   Doug Jeffrey                          PRECINCT 2080                                          01 
01070050005000106REP       Railroad Commissioner                                   Doug Jeffrey                          PRECINCT 2120                                          01 
01070050006000084REP       Railroad Commissioner                                   Doug Jeffrey                          PRECINCT 3030                                          01 
01070050007000148REP       Railroad Commissioner                                   Doug Jeffrey                          PRECINCT 3040                                          01 
01070050008000022REP       Railroad Commissioner                                   Doug Jeffrey                          PRECINCT 3060                                          01 
01070050009000096REP       Railroad Commissioner                                   Doug Jeffrey                          PRECINCT 4050                                          01 
01070050010000005REP       Railroad Commissioner                                   Doug Jeffrey                          PRECINCT 4070                                          01 
01070050011000111REP       Railroad Commissioner                                   Doug Jeffrey                          PRECINCT 4100                                          01 
01070060001000058REP       Railroad Commissioner                                   Ron Hale                              PRECINCT 1010                                          01 
01070060002000121REP       Railroad Commissioner                                   Ron Hale                              PRECINCT 1110                                          01 
01070060003000060REP       Railroad Commissioner                                   Ron Hale                              PRECINCT 2020                                          01 
01070060004000089REP       Railroad Commissioner                                   Ron Hale                              PRECINCT 2080                                          01 
01070060005000100REP       Railroad Commissioner                                   Ron Hale                              PRECINCT 2120                                          01 
01070060006000070REP       Railroad Commissioner                                   Ron Hale                              PRECINCT 3030                                          01 
01070060007000094REP       Railroad Commissioner                                   Ron Hale                              PRECINCT 3040                                          01 
01070060008000022REP       Railroad Commissioner                                   Ron Hale                              PRECINCT 3060                                          01 
01070060009000093REP       Railroad Commissioner                                   Ron Hale                              PRECINCT 4050                                          01 
01070060010000012REP       Railroad Commissioner                                   Ron Hale                              PRECINCT 4070                                          01 
01070060011000090REP       Railroad Commissioner                                   Ron Hale                              PRECINCT 4100                                          01 
01070070001000050REP       Railroad Commissioner                                   Lance N. Christian                    PRECINCT 1010                                          01 
01070070002000109REP       Railroad Commissioner                                   Lance N. Christian                    PRECINCT 1110                                          01 
01070070003000069REP       Railroad Commissioner                                   Lance N. Christian                    PRECINCT 2020                                          01 
01070070004000075REP       Railroad Commissioner                                   Lance N. Christian                    PRECINCT 2080                                          01 
01070070005000069REP       Railroad Commissioner                                   Lance N. Christian                    PRECINCT 2120                                          01 
01070070006000062REP       Railroad Commissioner                                   Lance N. Christian                    PRECINCT 3030                                          01 
01070070007000101REP       Railroad Commissioner                                   Lance N. Christian                    PRECINCT 3040                                          01 
01070070008000013REP       Railroad Commissioner                                   Lance N. Christian                    PRECINCT 3060                                          01 
01070070009000078REP       Railroad Commissioner                                   Lance N. Christian                    PRECINCT 4050                                          01 
01070070010000004REP       Railroad Commissioner                                   Lance N. Christian                    PRECINCT 4070                                          01 
01070070011000101REP       Railroad Commissioner                                   Lance N. Christian                    PRECINCT 4100                                          01 
01070080001000000REP       Railroad Commissioner                                   OVER VOTES                            PRECINCT 1010                                          01 
01070080002000000REP       Railroad Commissioner                                   OVER VOTES                            PRECINCT 1110                                          01 
01070080003000000REP       Railroad Commissioner                                   OVER VOTES                            PRECINCT 2020                                          01 
01070080004000000REP       Railroad Commissioner                                   OVER VOTES                            PRECINCT 2080                                          01 
01070080005000000REP       Railroad Commissioner                                   OVER VOTES                            PRECINCT 2120                                          01 
01070080006000000REP       Railroad Commissioner                                   OVER VOTES                            PRECINCT 3030                                          01 
01070080007000000REP       Railroad Commissioner                                   OVER VOTES                            PRECINCT 3040                                          01 
01070080008000000REP       Railroad Commissioner                                   OVER VOTES                            PRECINCT 3060                                          01 
01070080009000000REP       Railroad Commissioner                                   OVER VOTES                            PRECINCT 4050                                          01 
01070080010000000REP       Railroad Commissioner                                   OVER VOTES                            PRECINCT 4070                                          01 
01070080011000000REP       Railroad Commissioner                                   OVER VOTES                            PRECINCT 4100                                          01 
01070090001000296REP       Railroad Commissioner                                   UNDER VOTES                           PRECINCT 1010                                          01 
01070090002000438REP       Railroad Commissioner                                   UNDER VOTES                           PRECINCT 1110                                          01 
01070090003000305REP       Railroad Commissioner                                   UNDER VOTES                           PRECINCT 2020                                          01 
01070090004000331REP       Railroad Commissioner                                   UNDER VOTES                           PRECINCT 2080                                          01 
01070090005000328REP       Railroad Commissioner                                   UNDER VOTES                           PRECINCT 2120                                          01 
01070090006000249REP       Railroad Commissioner                                   UNDER VOTES                           PRECINCT 3030                                          01 
01070090007000372REP       Railroad Commissioner                                   UNDER VOTES                           PRECINCT 3040                                          01 
01070090008000067REP       Railroad Commissioner                                   UNDER VOTES                           PRECINCT 3060                                          01 
01070090009000238REP       Railroad Commissioner                                   UNDER VOTES                           PRECINCT 4050                                          01 
01070090010000044REP       Railroad Commissioner                                   UNDER VOTES                           PRECINCT 4070                                          01 
01070090011000393REP       Railroad Commissioner                                   UNDER VOTES                           PRECINCT 4100                                          01 
01080010001000278REP       Justice, Supreme Court, Place 3                         Michael Massengale                    PRECINCT 1010                                          01 
01080010002000495REP       Justice, Supreme Court, Place 3                         Michael Massengale                    PRECINCT 1110                                          01 
01080010003000328REP       Justice, Supreme Court, Place 3                         Michael Massengale                    PRECINCT 2020                                          01 
01080010004000354REP       Justice, Supreme Court, Place 3                         Michael Massengale                    PRECINCT 2080                                          01 
01080010005000400REP       Justice, Supreme Court, Place 3                         Michael Massengale                    PRECINCT 2120                                          01 
01080010006000335REP       Justice, Supreme Court, Place 3                         Michael Massengale                    PRECINCT 3030                                          01 
01080010007000433REP       Justice, Supreme Court, Place 3                         Michael Massengale                    PRECINCT 3040                                          01 
01080010008000110REP       Justice, Supreme Court, Place 3                         Michael Massengale                    PRECINCT 3060                                          01 
01080010009000392REP       Justice, Supreme Court, Place 3                         Michael Massengale                    PRECINCT 4050                                          01 
01080010010000041REP       Justice, Supreme Court, Place 3                         Michael Massengale                    PRECINCT 4070                                          01 
01080010011000430REP       Justice, Supreme Court, Place 3                         Michael Massengale                    PRECINCT 4100                                          01 
01080020001000309REP       Justice, Supreme Court, Place 3                         Debra Lehrmann                        PRECINCT 1010                                          01 
01080020002000561REP       Justice, Supreme Court, Place 3                         Debra Lehrmann                        PRECINCT 1110                                          01 
01080020003000314REP       Justice, Supreme Court, Place 3                         Debra Lehrmann                        PRECINCT 2020                                          01 
01080020004000400REP       Justice, Supreme Court, Place 3                         Debra Lehrmann                        PRECINCT 2080                                          01 
01080020005000404REP       Justice, Supreme Court, Place 3                         Debra Lehrmann                        PRECINCT 2120                                          01 
01080020006000333REP       Justice, Supreme Court, Place 3                         Debra Lehrmann                        PRECINCT 3030                                          01 
01080020007000559REP       Justice, Supreme Court, Place 3                         Debra Lehrmann                        PRECINCT 3040                                          01 
01080020008000090REP       Justice, Supreme Court, Place 3                         Debra Lehrmann                        PRECINCT 3060                                          01 
01080020009000384REP       Justice, Supreme Court, Place 3                         Debra Lehrmann                        PRECINCT 4050                                          01 
01080020010000058REP       Justice, Supreme Court, Place 3                         Debra Lehrmann                        PRECINCT 4070                                          01 
01080020011000515REP       Justice, Supreme Court, Place 3                         Debra Lehrmann                        PRECINCT 4100                                          01 
01080030001000000REP       Justice, Supreme Court, Place 3                         OVER VOTES                            PRECINCT 1010                                          01 
01080030002000000REP       Justice, Supreme Court, Place 3                         OVER VOTES                            PRECINCT 1110                                          01 
01080030003000000REP       Justice, Supreme Court, Place 3                         OVER VOTES                            PRECINCT 2020                                          01 
01080030004000000REP       Justice, Supreme Court, Place 3                         OVER VOTES                            PRECINCT 2080                                          01 
01080030005000000REP       Justice, Supreme Court, Place 3                         OVER VOTES                            PRECINCT 2120                                          01 
01080030006000000REP       Justice, Supreme Court, Place 3                         OVER VOTES                            PRECINCT 3030                                          01 
01080030007000000REP       Justice, Supreme Court, Place 3                         OVER VOTES                            PRECINCT 3040                                          01 
01080030008000000REP       Justice, Supreme Court, Place 3                         OVER VOTES                            PRECINCT 3060                                          01 
01080030009000000REP       Justice, Supreme Court, Place 3                         OVER VOTES                            PRECINCT 4050                                          01 
01080030010000000REP       Justice, Supreme Court, Place 3                         OVER VOTES                            PRECINCT 4070                                          01 
01080030011000000REP       Justice, Supreme Court, Place 3                         OVER VOTES                            PRECINCT 4100                                          01 
01080040001000248REP       Justice, Supreme Court, Place 3                         UNDER VOTES                           PRECINCT 1010                                          01 
01080040002000400REP       Justice, Supreme Court, Place 3                         UNDER VOTES                           PRECINCT 1110                                          01 
01080040003000233REP       Justice, Supreme Court, Place 3                         UNDER VOTES                           PRECINCT 2020                                          01 
01080040004000298REP       Justice, Supreme Court, Place 3                         UNDER VOTES                           PRECINCT 2080                                          01 
01080040005000299REP       Justice, Supreme Court, Place 3                         UNDER VOTES                           PRECINCT 2120                                          01 
01080040006000217REP       Justice, Supreme Court, Place 3                         UNDER VOTES                           PRECINCT 3030                                          01 
01080040007000352REP       Justice, Supreme Court, Place 3                         UNDER VOTES                           PRECINCT 3040                                          01 
01080040008000059REP       Justice, Supreme Court, Place 3                         UNDER VOTES                           PRECINCT 3060                                          01 
01080040009000227REP       Justice, Supreme Court, Place 3                         UNDER VOTES                           PRECINCT 4050                                          01 
01080040010000041REP       Justice, Supreme Court, Place 3                         UNDER VOTES                           PRECINCT 4070                                          01 
01080040011000333REP       Justice, Supreme Court, Place 3                         UNDER VOTES                           PRECINCT 4100                                          01 
01090010001000291REP       Justice, Supreme Court, Place 5                         Rick Green                            PRECINCT 1010                                          01 
01090010002000443REP       Justice, Supreme Court, Place 5                         Rick Green                            PRECINCT 1110                                          01 
01090010003000276REP       Justice, Supreme Court, Place 5                         Rick Green                            PRECINCT 2020                                          01 
01090010004000341REP       Justice, Supreme Court, Place 5                         Rick Green                            PRECINCT 2080                                          01 
01090010005000377REP       Justice, Supreme Court, Place 5                         Rick Green                            PRECINCT 2120                                          01 
01090010006000326REP       Justice, Supreme Court, Place 5                         Rick Green                            PRECINCT 3030                                          01 
01090010007000496REP       Justice, Supreme Court, Place 5                         Rick Green                            PRECINCT 3040                                          01 
01090010008000102REP       Justice, Supreme Court, Place 5                         Rick Green                            PRECINCT 3060                                          01 
01090010009000402REP       Justice, Supreme Court, Place 5                         Rick Green                            PRECINCT 4050                                          01 
01090010010000046REP       Justice, Supreme Court, Place 5                         Rick Green                            PRECINCT 4070                                          01 
01090010011000407REP       Justice, Supreme Court, Place 5                         Rick Green                            PRECINCT 4100                                          01 
01090020001000282REP       Justice, Supreme Court, Place 5                         Paul Green                            PRECINCT 1010                                          01 
01090020002000580REP       Justice, Supreme Court, Place 5                         Paul Green                            PRECINCT 1110                                          01 
01090020003000328REP       Justice, Supreme Court, Place 5                         Paul Green                            PRECINCT 2020                                          01 
01090020004000405REP       Justice, Supreme Court, Place 5                         Paul Green                            PRECINCT 2080                                          01 
01090020005000411REP       Justice, Supreme Court, Place 5                         Paul Green                            PRECINCT 2120                                          01 
01090020006000332REP       Justice, Supreme Court, Place 5                         Paul Green                            PRECINCT 3030                                          01 
01090020007000452REP       Justice, Supreme Court, Place 5                         Paul Green                            PRECINCT 3040                                          01 
01090020008000088REP       Justice, Supreme Court, Place 5                         Paul Green                            PRECINCT 3060                                          01 
01090020009000362REP       Justice, Supreme Court, Place 5                         Paul Green                            PRECINCT 4050                                          01 
01090020010000051REP       Justice, Supreme Court, Place 5                         Paul Green                            PRECINCT 4070                                          01 
01090020011000504REP       Justice, Supreme Court, Place 5                         Paul Green                            PRECINCT 4100                                          01 
01090030001000000REP       Justice, Supreme Court, Place 5                         OVER VOTES                            PRECINCT 1010                                          01 
01090030002000000REP       Justice, Supreme Court, Place 5                         OVER VOTES                            PRECINCT 1110                                          01 
01090030003000000REP       Justice, Supreme Court, Place 5                         OVER VOTES                            PRECINCT 2020                                          01 
01090030004000000REP       Justice, Supreme Court, Place 5                         OVER VOTES                            PRECINCT 2080                                          01 
01090030005000000REP       Justice, Supreme Court, Place 5                         OVER VOTES                            PRECINCT 2120                                          01 
01090030006000000REP       Justice, Supreme Court, Place 5                         OVER VOTES                            PRECINCT 3030                                          01 
01090030007000000REP       Justice, Supreme Court, Place 5                         OVER VOTES                            PRECINCT 3040                                          01 
01090030008000000REP       Justice, Supreme Court, Place 5                         OVER VOTES                            PRECINCT 3060                                          01 
01090030009000000REP       Justice, Supreme Court, Place 5                         OVER VOTES                            PRECINCT 4050                                          01 
01090030010000000REP       Justice, Supreme Court, Place 5                         OVER VOTES                            PRECINCT 4070                                          01 
01090030011000000REP       Justice, Supreme Court, Place 5                         OVER VOTES                            PRECINCT 4100                                          01 
01090040001000262REP       Justice, Supreme Court, Place 5                         UNDER VOTES                           PRECINCT 1010                                          01 
01090040002000433REP       Justice, Supreme Court, Place 5                         UNDER VOTES                           PRECINCT 1110                                          01 
01090040003000271REP       Justice, Supreme Court, Place 5                         UNDER VOTES                           PRECINCT 2020                                          01 
01090040004000306REP       Justice, Supreme Court, Place 5                         UNDER VOTES                           PRECINCT 2080                                          01 
01090040005000315REP       Justice, Supreme Court, Place 5                         UNDER VOTES                           PRECINCT 2120                                          01 
01090040006000227REP       Justice, Supreme Court, Place 5                         UNDER VOTES                           PRECINCT 3030                                          01 
01090040007000396REP       Justice, Supreme Court, Place 5                         UNDER VOTES                           PRECINCT 3040                                          01 
01090040008000069REP       Justice, Supreme Court, Place 5                         UNDER VOTES                           PRECINCT 3060                                          01 
01090040009000239REP       Justice, Supreme Court, Place 5                         UNDER VOTES                           PRECINCT 4050                                          01 
01090040010000043REP       Justice, Supreme Court, Place 5                         UNDER VOTES                           PRECINCT 4070                                          01 
01090040011000367REP       Justice, Supreme Court, Place 5                         UNDER VOTES                           PRECINCT 4100                                          01 
01100010001000248REP       Justice, Supreme Court, Place 9                         Joe Pool                              PRECINCT 1010                                          01 
01100010002000438REP       Justice, Supreme Court, Place 9                         Joe Pool                              PRECINCT 1110                                          01 
01100010003000255REP       Justice, Supreme Court, Place 9                         Joe Pool                              PRECINCT 2020                                          01 
01100010004000281REP       Justice, Supreme Court, Place 9                         Joe Pool                              PRECINCT 2080                                          01 
01100010005000347REP       Justice, Supreme Court, Place 9                         Joe Pool                              PRECINCT 2120                                          01 
01100010006000279REP       Justice, Supreme Court, Place 9                         Joe Pool                              PRECINCT 3030                                          01 
01100010007000401REP       Justice, Supreme Court, Place 9                         Joe Pool                              PRECINCT 3040                                          01 
01100010008000089REP       Justice, Supreme Court, Place 9                         Joe Pool                              PRECINCT 3060                                          01 
01100010009000336REP       Justice, Supreme Court, Place 9                         Joe Pool                              PRECINCT 4050                                          01 
01100010010000041REP       Justice, Supreme Court, Place 9                         Joe Pool                              PRECINCT 4070                                          01 
01100010011000343REP       Justice, Supreme Court, Place 9                         Joe Pool                              PRECINCT 4100                                          01 
01100020001000323REP       Justice, Supreme Court, Place 9                         Eva Guzman                            PRECINCT 1010                                          01 
01100020002000593REP       Justice, Supreme Court, Place 9                         Eva Guzman                            PRECINCT 1110                                          01 
01100020003000364REP       Justice, Supreme Court, Place 9                         Eva Guzman                            PRECINCT 2020                                          01 
01100020004000477REP       Justice, Supreme Court, Place 9                         Eva Guzman                            PRECINCT 2080                                          01 
01100020005000459REP       Justice, Supreme Court, Place 9                         Eva Guzman                            PRECINCT 2120                                          01 
01100020006000381REP       Justice, Supreme Court, Place 9                         Eva Guzman                            PRECINCT 3030                                          01 
01100020007000572REP       Justice, Supreme Court, Place 9                         Eva Guzman                            PRECINCT 3040                                          01 
01100020008000108REP       Justice, Supreme Court, Place 9                         Eva Guzman                            PRECINCT 3060                                          01 
01100020009000423REP       Justice, Supreme Court, Place 9                         Eva Guzman                            PRECINCT 4050                                          01 
01100020010000051REP       Justice, Supreme Court, Place 9                         Eva Guzman                            PRECINCT 4070                                          01 
01100020011000565REP       Justice, Supreme Court, Place 9                         Eva Guzman                            PRECINCT 4100                                          01 
01100030001000000REP       Justice, Supreme Court, Place 9                         OVER VOTES                            PRECINCT 1010                                          01 
01100030002000000REP       Justice, Supreme Court, Place 9                         OVER VOTES                            PRECINCT 1110                                          01 
01100030003000000REP       Justice, Supreme Court, Place 9                         OVER VOTES                            PRECINCT 2020                                          01 
01100030004000000REP       Justice, Supreme Court, Place 9                         OVER VOTES                            PRECINCT 2080                                          01 
01100030005000000REP       Justice, Supreme Court, Place 9                         OVER VOTES                            PRECINCT 2120                                          01 
01100030006000000REP       Justice, Supreme Court, Place 9                         OVER VOTES                            PRECINCT 3030                                          01 
01100030007000000REP       Justice, Supreme Court, Place 9                         OVER VOTES                            PRECINCT 3040                                          01 
01100030008000000REP       Justice, Supreme Court, Place 9                         OVER VOTES                            PRECINCT 3060                                          01 
01100030009000000REP       Justice, Supreme Court, Place 9                         OVER VOTES                            PRECINCT 4050                                          01 
01100030010000000REP       Justice, Supreme Court, Place 9                         OVER VOTES                            PRECINCT 4070                                          01 
01100030011000000REP       Justice, Supreme Court, Place 9                         OVER VOTES                            PRECINCT 4100                                          01 
01100040001000264REP       Justice, Supreme Court, Place 9                         UNDER VOTES                           PRECINCT 1010                                          01 
01100040002000425REP       Justice, Supreme Court, Place 9                         UNDER VOTES                           PRECINCT 1110                                          01 
01100040003000256REP       Justice, Supreme Court, Place 9                         UNDER VOTES                           PRECINCT 2020                                          01 
01100040004000294REP       Justice, Supreme Court, Place 9                         UNDER VOTES                           PRECINCT 2080                                          01 
01100040005000297REP       Justice, Supreme Court, Place 9                         UNDER VOTES                           PRECINCT 2120                                          01 
01100040006000225REP       Justice, Supreme Court, Place 9                         UNDER VOTES                           PRECINCT 3030                                          01 
01100040007000371REP       Justice, Supreme Court, Place 9                         UNDER VOTES                           PRECINCT 3040                                          01 
01100040008000062REP       Justice, Supreme Court, Place 9                         UNDER VOTES                           PRECINCT 3060                                          01 
01100040009000244REP       Justice, Supreme Court, Place 9                         UNDER VOTES                           PRECINCT 4050                                          01 
01100040010000048REP       Justice, Supreme Court, Place 9                         UNDER VOTES                           PRECINCT 4070                                          01 
01100040011000370REP       Justice, Supreme Court, Place 9                         UNDER VOTES                           PRECINCT 4100                                          01 
01110010001000254REP       Judge, Ct of Criminal Appeals, P2                       Mary Lou Keel                         PRECINCT 1010                                          01 
01110010002000445REP       Judge, Ct of Criminal Appeals, P2                       Mary Lou Keel                         PRECINCT 1110                                          01 
01110010003000249REP       Judge, Ct of Criminal Appeals, P2                       Mary Lou Keel                         PRECINCT 2020                                          01 
01110010004000301REP       Judge, Ct of Criminal Appeals, P2                       Mary Lou Keel                         PRECINCT 2080                                          01 
01110010005000306REP       Judge, Ct of Criminal Appeals, P2                       Mary Lou Keel                         PRECINCT 2120                                          01 
01110010006000268REP       Judge, Ct of Criminal Appeals, P2                       Mary Lou Keel                         PRECINCT 3030                                          01 
01110010007000397REP       Judge, Ct of Criminal Appeals, P2                       Mary Lou Keel                         PRECINCT 3040                                          01 
01110010008000064REP       Judge, Ct of Criminal Appeals, P2                       Mary Lou Keel                         PRECINCT 3060                                          01 
01110010009000297REP       Judge, Ct of Criminal Appeals, P2                       Mary Lou Keel                         PRECINCT 4050                                          01 
01110010010000034REP       Judge, Ct of Criminal Appeals, P2                       Mary Lou Keel                         PRECINCT 4070                                          01 
01110010011000379REP       Judge, Ct of Criminal Appeals, P2                       Mary Lou Keel                         PRECINCT 4100                                          01 
01110020001000165REP       Judge, Ct of Criminal Appeals, P2                       Ray Wheless                           PRECINCT 1010                                          01 
01110020002000303REP       Judge, Ct of Criminal Appeals, P2                       Ray Wheless                           PRECINCT 1110                                          01 
01110020003000192REP       Judge, Ct of Criminal Appeals, P2                       Ray Wheless                           PRECINCT 2020                                          01 
01110020004000231REP       Judge, Ct of Criminal Appeals, P2                       Ray Wheless                           PRECINCT 2080                                          01 
01110020005000241REP       Judge, Ct of Criminal Appeals, P2                       Ray Wheless                           PRECINCT 2120                                          01 
01110020006000198REP       Judge, Ct of Criminal Appeals, P2                       Ray Wheless                           PRECINCT 3030                                          01 
01110020007000313REP       Judge, Ct of Criminal Appeals, P2                       Ray Wheless                           PRECINCT 3040                                          01 
01110020008000072REP       Judge, Ct of Criminal Appeals, P2                       Ray Wheless                           PRECINCT 3060                                          01 
01110020009000273REP       Judge, Ct of Criminal Appeals, P2                       Ray Wheless                           PRECINCT 4050                                          01 
01110020010000032REP       Judge, Ct of Criminal Appeals, P2                       Ray Wheless                           PRECINCT 4070                                          01 
01110020011000279REP       Judge, Ct of Criminal Appeals, P2                       Ray Wheless                           PRECINCT 4100                                          01 
01110030001000110REP       Judge, Ct of Criminal Appeals, P2                       Chris Oldner                          PRECINCT 1010                                          01 
01110030002000217REP       Judge, Ct of Criminal Appeals, P2                       Chris Oldner                          PRECINCT 1110                                          01 
01110030003000125REP       Judge, Ct of Criminal Appeals, P2                       Chris Oldner                          PRECINCT 2020                                          01 
01110030004000163REP       Judge, Ct of Criminal Appeals, P2                       Chris Oldner                          PRECINCT 2080                                          01 
01110030005000190REP       Judge, Ct of Criminal Appeals, P2                       Chris Oldner                          PRECINCT 2120                                          01 
01110030006000147REP       Judge, Ct of Criminal Appeals, P2                       Chris Oldner                          PRECINCT 3030                                          01 
01110030007000196REP       Judge, Ct of Criminal Appeals, P2                       Chris Oldner                          PRECINCT 3040                                          01 
01110030008000045REP       Judge, Ct of Criminal Appeals, P2                       Chris Oldner                          PRECINCT 3060                                          01 
01110030009000133REP       Judge, Ct of Criminal Appeals, P2                       Chris Oldner                          PRECINCT 4050                                          01 
01110030010000015REP       Judge, Ct of Criminal Appeals, P2                       Chris Oldner                          PRECINCT 4070                                          01 
01110030011000201REP       Judge, Ct of Criminal Appeals, P2                       Chris Oldner                          PRECINCT 4100                                          01 
01110040001000000REP       Judge, Ct of Criminal Appeals, P2                       OVER VOTES                            PRECINCT 1010                                          01 
01110040002000000REP       Judge, Ct of Criminal Appeals, P2                       OVER VOTES                            PRECINCT 1110                                          01 
01110040003000000REP       Judge, Ct of Criminal Appeals, P2                       OVER VOTES                            PRECINCT 2020                                          01 
01110040004000000REP       Judge, Ct of Criminal Appeals, P2                       OVER VOTES                            PRECINCT 2080                                          01 
01110040005000000REP       Judge, Ct of Criminal Appeals, P2                       OVER VOTES                            PRECINCT 2120                                          01 
01110040006000000REP       Judge, Ct of Criminal Appeals, P2                       OVER VOTES                            PRECINCT 3030                                          01 
01110040007000000REP       Judge, Ct of Criminal Appeals, P2                       OVER VOTES                            PRECINCT 3040                                          01 
01110040008000000REP       Judge, Ct of Criminal Appeals, P2                       OVER VOTES                            PRECINCT 3060                                          01 
01110040009000000REP       Judge, Ct of Criminal Appeals, P2                       OVER VOTES                            PRECINCT 4050                                          01 
01110040010000000REP       Judge, Ct of Criminal Appeals, P2                       OVER VOTES                            PRECINCT 4070                                          01 
01110040011000000REP       Judge, Ct of Criminal Appeals, P2                       OVER VOTES                            PRECINCT 4100                                          01 
01110050001000306REP       Judge, Ct of Criminal Appeals, P2                       UNDER VOTES                           PRECINCT 1010                                          01 
01110050002000491REP       Judge, Ct of Criminal Appeals, P2                       UNDER VOTES                           PRECINCT 1110                                          01 
01110050003000309REP       Judge, Ct of Criminal Appeals, P2                       UNDER VOTES                           PRECINCT 2020                                          01 
01110050004000357REP       Judge, Ct of Criminal Appeals, P2                       UNDER VOTES                           PRECINCT 2080                                          01 
01110050005000366REP       Judge, Ct of Criminal Appeals, P2                       UNDER VOTES                           PRECINCT 2120                                          01 
01110050006000272REP       Judge, Ct of Criminal Appeals, P2                       UNDER VOTES                           PRECINCT 3030                                          01 
01110050007000438REP       Judge, Ct of Criminal Appeals, P2                       UNDER VOTES                           PRECINCT 3040                                          01 
01110050008000078REP       Judge, Ct of Criminal Appeals, P2                       UNDER VOTES                           PRECINCT 3060                                          01 
01110050009000300REP       Judge, Ct of Criminal Appeals, P2                       UNDER VOTES                           PRECINCT 4050                                          01 
01110050010000059REP       Judge, Ct of Criminal Appeals, P2                       UNDER VOTES                           PRECINCT 4070                                          01 
01110050011000419REP       Judge, Ct of Criminal Appeals, P2                       UNDER VOTES                           PRECINCT 4100                                          01 
01120010001000185REP       Judge, Ct of Criminal Appeals, P5                       Sid Harle                             PRECINCT 1010                                          01 
01120010002000368REP       Judge, Ct of Criminal Appeals, P5                       Sid Harle                             PRECINCT 1110                                          01 
01120010003000198REP       Judge, Ct of Criminal Appeals, P5                       Sid Harle                             PRECINCT 2020                                          01 
01120010004000281REP       Judge, Ct of Criminal Appeals, P5                       Sid Harle                             PRECINCT 2080                                          01 
01120010005000219REP       Judge, Ct of Criminal Appeals, P5                       Sid Harle                             PRECINCT 2120                                          01 
01120010006000203REP       Judge, Ct of Criminal Appeals, P5                       Sid Harle                             PRECINCT 3030                                          01 
01120010007000323REP       Judge, Ct of Criminal Appeals, P5                       Sid Harle                             PRECINCT 3040                                          01 
01120010008000053REP       Judge, Ct of Criminal Appeals, P5                       Sid Harle                             PRECINCT 3060                                          01 
01120010009000243REP       Judge, Ct of Criminal Appeals, P5                       Sid Harle                             PRECINCT 4050                                          01 
01120010010000036REP       Judge, Ct of Criminal Appeals, P5                       Sid Harle                             PRECINCT 4070                                          01 
01120010011000335REP       Judge, Ct of Criminal Appeals, P5                       Sid Harle                             PRECINCT 4100                                          01 
01120020001000086REP       Judge, Ct of Criminal Appeals, P5                       Brent Webster                         PRECINCT 1010                                          01 
01120020002000161REP       Judge, Ct of Criminal Appeals, P5                       Brent Webster                         PRECINCT 1110                                          01 
01120020003000106REP       Judge, Ct of Criminal Appeals, P5                       Brent Webster                         PRECINCT 2020                                          01 
01120020004000121REP       Judge, Ct of Criminal Appeals, P5                       Brent Webster                         PRECINCT 2080                                          01 
01120020005000142REP       Judge, Ct of Criminal Appeals, P5                       Brent Webster                         PRECINCT 2120                                          01 
01120020006000134REP       Judge, Ct of Criminal Appeals, P5                       Brent Webster                         PRECINCT 3030                                          01 
01120020007000172REP       Judge, Ct of Criminal Appeals, P5                       Brent Webster                         PRECINCT 3040                                          01 
01120020008000039REP       Judge, Ct of Criminal Appeals, P5                       Brent Webster                         PRECINCT 3060                                          01 
01120020009000121REP       Judge, Ct of Criminal Appeals, P5                       Brent Webster                         PRECINCT 4050                                          01 
01120020010000008REP       Judge, Ct of Criminal Appeals, P5                       Brent Webster                         PRECINCT 4070                                          01 
01120020011000133REP       Judge, Ct of Criminal Appeals, P5                       Brent Webster                         PRECINCT 4100                                          01 
01120030001000203REP       Judge, Ct of Criminal Appeals, P5                       Scott Walker                          PRECINCT 1010                                          01 
01120030002000366REP       Judge, Ct of Criminal Appeals, P5                       Scott Walker                          PRECINCT 1110                                          01 
