01010010001002387000000000000000000000000000000          REGISTERED VOTERS - TOTAL                               REGISTERED VOTERS - TOTAL             PRECINCT 1A3B                                          00 
01010010002001724000000000000000000000000000000          REGISTERED VOTERS - TOTAL                               REGISTERED VOTERS - TOTAL             PRECINCT 1A5A                                          00 
01010010004000283000000000000000000000000000000          REGISTERED VOTERS - TOTAL                               REGISTERED VOTERS - TOTAL             PRECINCT 1C                                            00 
01010010006000668000000000000000000000000000000          REGISTERED VOTERS - TOTAL                               REGISTERED VOTERS - TOTAL             PRECINCT 1E                                            00 
01010010008001253000000000000000000000000000000          REGISTERED VOTERS - TOTAL                               REGISTERED VOTERS - TOTAL             PRECINCT 1F                                            00 
01010010010000499000000000000000000000000000000          REGISTERED VOTERS - TOTAL                               REGISTERED VOTERS - TOTAL             PRECINCT 1H                                            00 
01010010011000323000000000000000000000000000000          REGISTERED VOTERS - TOTAL                               REGISTERED VOTERS - TOTAL             PRECINCT 1I                                            00 
01010010012001279000000000000000000000000000000          REGISTERED VOTERS - TOTAL                               REGISTERED VOTERS - TOTAL             PRECINCT 2A1A                                          00 
01010010014003298000000000000000000000000000000          REGISTERED VOTERS - TOTAL                               REGISTERED VOTERS - TOTAL             PRECINCT 2C3A                                          00 
01010010015000654000000000000000000000000000000          REGISTERED VOTERS - TOTAL                               REGISTERED VOTERS - TOTAL             PRECINCT 2D                                            00 
01010010016000546000000000000000000000000000000          REGISTERED VOTERS - TOTAL                               REGISTERED VOTERS - TOTAL             PRECINCT 2E                                            00 
01010010017000189000000000000000000000000000000          REGISTERED VOTERS - TOTAL                               REGISTERED VOTERS - TOTAL             PRECINCT 2F                                            00 
01010010018000575000000000000000000000000000000          REGISTERED VOTERS - TOTAL                               REGISTERED VOTERS - TOTAL             PRECINCT 2G                                            00 
01010010020002842000000000000000000000000000000          REGISTERED VOTERS - TOTAL                               REGISTERED VOTERS - TOTAL             PRECINCT 3C7G                                          00 
01010010021000746000000000000000000000000000000          REGISTERED VOTERS - TOTAL                               REGISTERED VOTERS - TOTAL             PRECINCT 3D                                            00 
01010010022001060000000000000000000000000000000          REGISTERED VOTERS - TOTAL                               REGISTERED VOTERS - TOTAL             PRECINCT 3E                                            00 
01010010023000442000000000000000000000000000000          REGISTERED VOTERS - TOTAL                               REGISTERED VOTERS - TOTAL             PRECINCT 3F                                            00 
01010010024000538000000000000000000000000000000          REGISTERED VOTERS - TOTAL                               REGISTERED VOTERS - TOTAL             PRECINCT 3G                                            00 
01010010025000797000000000000000000000000000000          REGISTERED VOTERS - TOTAL                               REGISTERED VOTERS - TOTAL             PRECINCT 3H3C                                          00 
01010010026001198000000000000000000000000000000          REGISTERED VOTERS - TOTAL                               REGISTERED VOTERS - TOTAL             PRECINCT 3I                                            00 
01010010027001343000000000000000000000000000000          REGISTERED VOTERS - TOTAL                               REGISTERED VOTERS - TOTAL             PRECINCT 4A6E                                          00 
01010010028001616000000000000000000000000000000          REGISTERED VOTERS - TOTAL                               REGISTERED VOTERS - TOTAL             PRECINCT 4B                                            00 
01010010030001349000000000000000000000000000000          REGISTERED VOTERS - TOTAL                               REGISTERED VOTERS - TOTAL             PRECINCT 4D                                            00 
01010010031000936000000000000000000000000000000          REGISTERED VOTERS - TOTAL                               REGISTERED VOTERS - TOTAL             PRECINCT 4E                                            00 
01010010032001649000000000000000000000000000000          REGISTERED VOTERS - TOTAL                               REGISTERED VOTERS - TOTAL             PRECINCT 4F                                            00 
01010010033001624000000000000000000000000000000          REGISTERED VOTERS - TOTAL                               REGISTERED VOTERS - TOTAL             PRECINCT 4G                                            00 
01020010001000971000494000076000401000000000000          BALLOTS CAST - TOTAL                                    BALLOTS CAST - TOTAL                  PRECINCT 1A3B                                          00 
01020010002000368000162000035000169000002000000          BALLOTS CAST - TOTAL                                    BALLOTS CAST - TOTAL                  PRECINCT 1A5A                                          00 
01020010004000148000055000011000082000000000000          BALLOTS CAST - TOTAL                                    BALLOTS CAST - TOTAL                  PRECINCT 1C                                            00 
01020010006000293000071000014000208000000000000          BALLOTS CAST - TOTAL                                    BALLOTS CAST - TOTAL                  PRECINCT 1E                                            00 
01020010008000552000156000033000363000000000000          BALLOTS CAST - TOTAL                                    BALLOTS CAST - TOTAL                  PRECINCT 1F                                            00 
01020010010000249000080000013000156000000000000          BALLOTS CAST - TOTAL                                    BALLOTS CAST - TOTAL                  PRECINCT 1H                                            00 
01020010011000182000056000007000118000001000000          BALLOTS CAST - TOTAL                                    BALLOTS CAST - TOTAL                  PRECINCT 1I                                            00 
01020010012000233000077000019000137000000000000          BALLOTS CAST - TOTAL                                    BALLOTS CAST - TOTAL                  PRECINCT 2A1A                                          00 
01020010014000659000229000050000380000000000000          BALLOTS CAST - TOTAL                                    BALLOTS CAST - TOTAL                  PRECINCT 2C3A                                          00 
01020010015000249000054000012000183000000000000          BALLOTS CAST - TOTAL                                    BALLOTS CAST - TOTAL                  PRECINCT 2D                                            00 
01020010016000238000082000013000143000000000000          BALLOTS CAST - TOTAL                                    BALLOTS CAST - TOTAL                  PRECINCT 2E                                            00 
01020010017000078000015000004000059000000000000          BALLOTS CAST - TOTAL                                    BALLOTS CAST - TOTAL                  PRECINCT 2F                                            00 
01020010018000229000085000011000133000000000000          BALLOTS CAST - TOTAL                                    BALLOTS CAST - TOTAL                  PRECINCT 2G                                            00 
01020010020001099000513000118000468000000000000          BALLOTS CAST - TOTAL                                    BALLOTS CAST - TOTAL                  PRECINCT 3C7G                                          00 
01020010021000359000117000022000220000000000000          BALLOTS CAST - TOTAL                                    BALLOTS CAST - TOTAL                  PRECINCT 3D                                            00 
01020010022000593000258000025000309000001000000          BALLOTS CAST - TOTAL                                    BALLOTS CAST - TOTAL                  PRECINCT 3E                                            00 
01020010023000222000061000010000150000001000000          BALLOTS CAST - TOTAL                                    BALLOTS CAST - TOTAL                  PRECINCT 3F                                            00 
01020010024000268000103000010000155000000000000          BALLOTS CAST - TOTAL                                    BALLOTS CAST - TOTAL                  PRECINCT 3G                                            00 
01020010025000227000116000025000086000000000000          BALLOTS CAST - TOTAL                                    BALLOTS CAST - TOTAL                  PRECINCT 3H3C                                          00 
01020010026000582000271000047000262000002000000          BALLOTS CAST - TOTAL                                    BALLOTS CAST - TOTAL                  PRECINCT 3I                                            00 
01020010027000628000299000063000266000000000000          BALLOTS CAST - TOTAL                                    BALLOTS CAST - TOTAL                  PRECINCT 4A6E                                          00 
01020010028000673000204000058000410000001000000          BALLOTS CAST - TOTAL                                    BALLOTS CAST - TOTAL                  PRECINCT 4B                                            00 
01020010030000558000146000022000390000000000000          BALLOTS CAST - TOTAL                                    BALLOTS CAST - TOTAL                  PRECINCT 4D                                            00 
01020010031000420000126000020000274000000000000          BALLOTS CAST - TOTAL                                    BALLOTS CAST - TOTAL                  PRECINCT 4E                                            00 
01020010032000717000285000054000378000000000000          BALLOTS CAST - TOTAL                                    BALLOTS CAST - TOTAL                  PRECINCT 4F                                            00 
01020010033000797000356000033000407000001000000          BALLOTS CAST - TOTAL                                    BALLOTS CAST - TOTAL                  PRECINCT 4G                                            00 
01030010001000842000441000061000340000000000000REP       BALLOTS CAST - REPUBLICAN PARTY                         BALLOTS CAST - REPUBLICAN PARTY       PRECINCT 1A3B                                          00 
01030010002000293000139000028000125000001000000REP       BALLOTS CAST - REPUBLICAN PARTY                         BALLOTS CAST - REPUBLICAN PARTY       PRECINCT 1A5A                                          00 
01030010004000141000051000011000079000000000000REP       BALLOTS CAST - REPUBLICAN PARTY                         BALLOTS CAST - REPUBLICAN PARTY       PRECINCT 1C                                            00 
01030010006000267000066000013000188000000000000REP       BALLOTS CAST - REPUBLICAN PARTY                         BALLOTS CAST - REPUBLICAN PARTY       PRECINCT 1E                                            00 
01030010008000515000153000032000330000000000000REP       BALLOTS CAST - REPUBLICAN PARTY                         BALLOTS CAST - REPUBLICAN PARTY       PRECINCT 1F                                            00 
01030010010000233000073000013000147000000000000REP       BALLOTS CAST - REPUBLICAN PARTY                         BALLOTS CAST - REPUBLICAN PARTY       PRECINCT 1H                                            00 
01030010011000172000055000007000109000001000000REP       BALLOTS CAST - REPUBLICAN PARTY                         BALLOTS CAST - REPUBLICAN PARTY       PRECINCT 1I                                            00 
01030010012000092000043000008000041000000000000REP       BALLOTS CAST - REPUBLICAN PARTY                         BALLOTS CAST - REPUBLICAN PARTY       PRECINCT 2A1A                                          00 
01030010014000417000155000033000229000000000000REP       BALLOTS CAST - REPUBLICAN PARTY                         BALLOTS CAST - REPUBLICAN PARTY       PRECINCT 2C3A                                          00 
01030010015000204000050000011000143000000000000REP       BALLOTS CAST - REPUBLICAN PARTY                         BALLOTS CAST - REPUBLICAN PARTY       PRECINCT 2D                                            00 
01030010016000216000075000011000130000000000000REP       BALLOTS CAST - REPUBLICAN PARTY                         BALLOTS CAST - REPUBLICAN PARTY       PRECINCT 2E                                            00 
01030010017000074000015000003000056000000000000REP       BALLOTS CAST - REPUBLICAN PARTY                         BALLOTS CAST - REPUBLICAN PARTY       PRECINCT 2F                                            00 
01030010018000206000080000011000115000000000000REP       BALLOTS CAST - REPUBLICAN PARTY                         BALLOTS CAST - REPUBLICAN PARTY       PRECINCT 2G                                            00 
01030010020000949000459000105000385000000000000REP       BALLOTS CAST - REPUBLICAN PARTY                         BALLOTS CAST - REPUBLICAN PARTY       PRECINCT 3C7G                                          00 
01030010021000331000112000020000199000000000000REP       BALLOTS CAST - REPUBLICAN PARTY                         BALLOTS CAST - REPUBLICAN PARTY       PRECINCT 3D                                            00 
01030010022000578000252000024000301000001000000REP       BALLOTS CAST - REPUBLICAN PARTY                         BALLOTS CAST - REPUBLICAN PARTY       PRECINCT 3E                                            00 
01030010023000212000058000009000144000001000000REP       BALLOTS CAST - REPUBLICAN PARTY                         BALLOTS CAST - REPUBLICAN PARTY       PRECINCT 3F                                            00 
01030010024000247000098000008000141000000000000REP       BALLOTS CAST - REPUBLICAN PARTY                         BALLOTS CAST - REPUBLICAN PARTY       PRECINCT 3G                                            00 
01030010025000197000110000023000064000000000000REP       BALLOTS CAST - REPUBLICAN PARTY                         BALLOTS CAST - REPUBLICAN PARTY       PRECINCT 3H3C                                          00 
01030010026000553000259000045000247000002000000REP       BALLOTS CAST - REPUBLICAN PARTY                         BALLOTS CAST - REPUBLICAN PARTY       PRECINCT 3I                                            00 
01030010027000557000281000054000222000000000000REP       BALLOTS CAST - REPUBLICAN PARTY                         BALLOTS CAST - REPUBLICAN PARTY       PRECINCT 4A6E                                          00 
01030010028000603000185000045000372000001000000REP       BALLOTS CAST - REPUBLICAN PARTY                         BALLOTS CAST - REPUBLICAN PARTY       PRECINCT 4B                                            00 
01030010030000532000138000021000373000000000000REP       BALLOTS CAST - REPUBLICAN PARTY                         BALLOTS CAST - REPUBLICAN PARTY       PRECINCT 4D                                            00 
01030010031000386000120000020000246000000000000REP       BALLOTS CAST - REPUBLICAN PARTY                         BALLOTS CAST - REPUBLICAN PARTY       PRECINCT 4E                                            00 
01030010032000667000271000045000351000000000000REP       BALLOTS CAST - REPUBLICAN PARTY                         BALLOTS CAST - REPUBLICAN PARTY       PRECINCT 4F                                            00 
01030010033000748000339000030000378000001000000REP       BALLOTS CAST - REPUBLICAN PARTY                         BALLOTS CAST - REPUBLICAN PARTY       PRECINCT 4G                                            00 
01040010001000129000053000015000061000000000000DEM       BALLOTS CAST - DEMOCRATIC PARTY                         BALLOTS CAST - DEMOCRATIC PARTY       PRECINCT 1A3B                                          00 
01040010002000075000023000007000044000001000000DEM       BALLOTS CAST - DEMOCRATIC PARTY                         BALLOTS CAST - DEMOCRATIC PARTY       PRECINCT 1A5A                                          00 
01040010004000007000004000000000003000000000000DEM       BALLOTS CAST - DEMOCRATIC PARTY                         BALLOTS CAST - DEMOCRATIC PARTY       PRECINCT 1C                                            00 
01040010006000026000005000001000020000000000000DEM       BALLOTS CAST - DEMOCRATIC PARTY                         BALLOTS CAST - DEMOCRATIC PARTY       PRECINCT 1E                                            00 
01040010008000037000003000001000033000000000000DEM       BALLOTS CAST - DEMOCRATIC PARTY                         BALLOTS CAST - DEMOCRATIC PARTY       PRECINCT 1F                                            00 
01040010010000016000007000000000009000000000000DEM       BALLOTS CAST - DEMOCRATIC PARTY                         BALLOTS CAST - DEMOCRATIC PARTY       PRECINCT 1H                                            00 
01040010011000010000001000000000009000000000000DEM       BALLOTS CAST - DEMOCRATIC PARTY                         BALLOTS CAST - DEMOCRATIC PARTY       PRECINCT 1I                                            00 
01040010012000141000034000011000096000000000000DEM       BALLOTS CAST - DEMOCRATIC PARTY                         BALLOTS CAST - DEMOCRATIC PARTY       PRECINCT 2A1A                                          00 
01040010014000242000074000017000151000000000000DEM       BALLOTS CAST - DEMOCRATIC PARTY                         BALLOTS CAST - DEMOCRATIC PARTY       PRECINCT 2C3A                                          00 
01040010015000045000004000001000040000000000000DEM       BALLOTS CAST - DEMOCRATIC PARTY                         BALLOTS CAST - DEMOCRATIC PARTY       PRECINCT 2D                                            00 
01040010016000022000007000002000013000000000000DEM       BALLOTS CAST - DEMOCRATIC PARTY                         BALLOTS CAST - DEMOCRATIC PARTY       PRECINCT 2E                                            00 
01040010017000004000000000001000003000000000000DEM       BALLOTS CAST - DEMOCRATIC PARTY                         BALLOTS CAST - DEMOCRATIC PARTY       PRECINCT 2F                                            00 
01040010018000023000005000000000018000000000000DEM       BALLOTS CAST - DEMOCRATIC PARTY                         BALLOTS CAST - DEMOCRATIC PARTY       PRECINCT 2G                                            00 
01040010020000150000054000013000083000000000000DEM       BALLOTS CAST - DEMOCRATIC PARTY                         BALLOTS CAST - DEMOCRATIC PARTY       PRECINCT 3C7G                                          00 
01040010021000028000005000002000021000000000000DEM       BALLOTS CAST - DEMOCRATIC PARTY                         BALLOTS CAST - DEMOCRATIC PARTY       PRECINCT 3D                                            00 
01040010022000015000006000001000008000000000000DEM       BALLOTS CAST - DEMOCRATIC PARTY                         BALLOTS CAST - DEMOCRATIC PARTY       PRECINCT 3E                                            00 
01040010023000010000003000001000006000000000000DEM       BALLOTS CAST - DEMOCRATIC PARTY                         BALLOTS CAST - DEMOCRATIC PARTY       PRECINCT 3F                                            00 
01040010024000021000005000002000014000000000000DEM       BALLOTS CAST - DEMOCRATIC PARTY                         BALLOTS CAST - DEMOCRATIC PARTY       PRECINCT 3G                                            00 
01040010025000030000006000002000022000000000000DEM       BALLOTS CAST - DEMOCRATIC PARTY                         BALLOTS CAST - DEMOCRATIC PARTY       PRECINCT 3H3C                                          00 
01040010026000029000012000002000015000000000000DEM       BALLOTS CAST - DEMOCRATIC PARTY                         BALLOTS CAST - DEMOCRATIC PARTY       PRECINCT 3I                                            00 
01040010027000071000018000009000044000000000000DEM       BALLOTS CAST - DEMOCRATIC PARTY                         BALLOTS CAST - DEMOCRATIC PARTY       PRECINCT 4A6E                                          00 
01040010028000070000019000013000038000000000000DEM       BALLOTS CAST - DEMOCRATIC PARTY                         BALLOTS CAST - DEMOCRATIC PARTY       PRECINCT 4B                                            00 
01040010030000026000008000001000017000000000000DEM       BALLOTS CAST - DEMOCRATIC PARTY                         BALLOTS CAST - DEMOCRATIC PARTY       PRECINCT 4D                                            00 
01040010031000034000006000000000028000000000000DEM       BALLOTS CAST - DEMOCRATIC PARTY                         BALLOTS CAST - DEMOCRATIC PARTY       PRECINCT 4E                                            00 
01040010032000050000014000009000027000000000000DEM       BALLOTS CAST - DEMOCRATIC PARTY                         BALLOTS CAST - DEMOCRATIC PARTY       PRECINCT 4F                                            00 
01040010033000049000017000003000029000000000000DEM       BALLOTS CAST - DEMOCRATIC PARTY                         BALLOTS CAST - DEMOCRATIC PARTY       PRECINCT 4G                                            00 
01050010001000001000001000000000000000000000000REP       President                                               Carly Fiorina                         PRECINCT 1A3B                                          01 
01050010002000000000000000000000000000000000000REP       President                                               Carly Fiorina                         PRECINCT 1A5A                                          01 
01050010004000000000000000000000000000000000000REP       President                                               Carly Fiorina                         PRECINCT 1C                                            01 
01050010006000002000001000000000001000000000000REP       President                                               Carly Fiorina                         PRECINCT 1E                                            01 
01050010008000000000000000000000000000000000000REP       President                                               Carly Fiorina                         PRECINCT 1F                                            01 
01050010010000000000000000000000000000000000000REP       President                                               Carly Fiorina                         PRECINCT 1H                                            01 
01050010011000000000000000000000000000000000000REP       President                                               Carly Fiorina                         PRECINCT 1I                                            01 
01050010012000000000000000000000000000000000000REP       President                                               Carly Fiorina                         PRECINCT 2A1A                                          01 
01050010014000000000000000000000000000000000000REP       President                                               Carly Fiorina                         PRECINCT 2C3A                                          01 
01050010015000000000000000000000000000000000000REP       President                                               Carly Fiorina                         PRECINCT 2D                                            01 
01050010016000001000000000001000000000000000000REP       President                                               Carly Fiorina                         PRECINCT 2E                                            01 
01050010017000000000000000000000000000000000000REP       President                                               Carly Fiorina                         PRECINCT 2F                                            01 
01050010018000000000000000000000000000000000000REP       President                                               Carly Fiorina                         PRECINCT 2G                                            01 
01050010020000001000001000000000000000000000000REP       President                                               Carly Fiorina                         PRECINCT 3C7G                                          01 
01050010021000001000001000000000000000000000000REP       President                                               Carly Fiorina                         PRECINCT 3D                                            01 
01050010022000000000000000000000000000000000000REP       President                                               Carly Fiorina                         PRECINCT 3E                                            01 
01050010023000001000000000000000001000000000000REP       President                                               Carly Fiorina                         PRECINCT 3F                                            01 
01050010024000000000000000000000000000000000000REP       President                                               Carly Fiorina                         PRECINCT 3G                                            01 
01050010025000000000000000000000000000000000000REP       President                                               Carly Fiorina                         PRECINCT 3H3C                                          01 
01050010026000000000000000000000000000000000000REP       President                                               Carly Fiorina                         PRECINCT 3I                                            01 
01050010027000000000000000000000000000000000000REP       President                                               Carly Fiorina                         PRECINCT 4A6E                                          01 
01050010028000000000000000000000000000000000000REP       President                                               Carly Fiorina                         PRECINCT 4B                                            01 
01050010030000000000000000000000000000000000000REP       President                                               Carly Fiorina                         PRECINCT 4D                                            01 
01050010031000000000000000000000000000000000000REP       President                                               Carly Fiorina                         PRECINCT 4E                                            01 
01050010032000001000001000000000000000000000000REP       President                                               Carly Fiorina                         PRECINCT 4F                                            01 
01050010033000001000000000000000001000000000000REP       President                                               Carly Fiorina                         PRECINCT 4G                                            01 
01050020001000025000015000002000008000000000000REP       President                                               John R. Kasich                        PRECINCT 1A3B                                          01 
01050020002000008000005000001000002000000000000REP       President                                               John R. Kasich                        PRECINCT 1A5A                                          01 
01050020004000005000004000001000000000000000000REP       President                                               John R. Kasich                        PRECINCT 1C                                            01 
01050020006000001000000000000000001000000000000REP       President                                               John R. Kasich                        PRECINCT 1E                                            01 
01050020008000009000003000001000005000000000000REP       President                                               John R. Kasich                        PRECINCT 1F                                            01 
01050020010000001000000000001000000000000000000REP       President                                               John R. Kasich                        PRECINCT 1H                                            01 
01050020011000005000004000000000001000000000000REP       President                                               John R. Kasich                        PRECINCT 1I                                            01 
01050020012000006000002000001000003000000000000REP       President                                               John R. Kasich                        PRECINCT 2A1A                                          01 
01050020014000012000006000000000006000000000000REP       President                                               John R. Kasich                        PRECINCT 2C3A                                          01 
01050020015000005000002000002000001000000000000REP       President                                               John R. Kasich                        PRECINCT 2D                                            01 
01050020016000002000001000000000001000000000000REP       President                                               John R. Kasich                        PRECINCT 2E                                            01 
01050020017000002000000000000000002000000000000REP       President                                               John R. Kasich                        PRECINCT 2F                                            01 
01050020018000006000002000000000004000000000000REP       President                                               John R. Kasich                        PRECINCT 2G                                            01 
01050020020000045000027000002000016000000000000REP       President                                               John R. Kasich                        PRECINCT 3C7G                                          01 
01050020021000012000006000000000006000000000000REP       President                                               John R. Kasich                        PRECINCT 3D                                            01 
01050020022000010000006000000000004000000000000REP       President                                               John R. Kasich                        PRECINCT 3E                                            01 
01050020023000005000001000000000004000000000000REP       President                                               John R. Kasich                        PRECINCT 3F                                            01 
01050020024000006000002000000000004000000000000REP       President                                               John R. Kasich                        PRECINCT 3G                                            01 
01050020025000009000007000000000002000000000000REP       President                                               John R. Kasich                        PRECINCT 3H3C                                          01 
01050020026000012000004000001000007000000000000REP       President                                               John R. Kasich                        PRECINCT 3I                                            01 
01050020027000025000014000001000010000000000000REP       President                                               John R. Kasich                        PRECINCT 4A6E                                          01 
01050020028000015000006000002000007000000000000REP       President                                               John R. Kasich                        PRECINCT 4B                                            01 
01050020030000006000001000001000004000000000000REP       President                                               John R. Kasich                        PRECINCT 4D                                            01 
01050020031000008000000000002000006000000000000REP       President                                               John R. Kasich                        PRECINCT 4E                                            01 
01050020032000013000005000000000008000000000000REP       President                                               John R. Kasich                        PRECINCT 4F                                            01 
01050020033000027000014000003000010000000000000REP       President                                               John R. Kasich                        PRECINCT 4G                                            01 
01050030001000001000000000000000001000000000000REP       President                                               Rick Santorum                         PRECINCT 1A3B                                          01 
01050030002000000000000000000000000000000000000REP       President                                               Rick Santorum                         PRECINCT 1A5A                                          01 
01050030004000000000000000000000000000000000000REP       President                                               Rick Santorum                         PRECINCT 1C                                            01 
01050030006000000000000000000000000000000000000REP       President                                               Rick Santorum                         PRECINCT 1E                                            01 
01050030008000000000000000000000000000000000000REP       President                                               Rick Santorum                         PRECINCT 1F                                            01 
01050030010000001000000000001000000000000000000REP       President                                               Rick Santorum                         PRECINCT 1H                                            01 
01050030011000000000000000000000000000000000000REP       President                                               Rick Santorum                         PRECINCT 1I                                            01 
01050030012000000000000000000000000000000000000REP       President                                               Rick Santorum                         PRECINCT 2A1A                                          01 
01050030014000000000000000000000000000000000000REP       President                                               Rick Santorum                         PRECINCT 2C3A                                          01 
01050030015000000000000000000000000000000000000REP       President                                               Rick Santorum                         PRECINCT 2D                                            01 
01050030016000000000000000000000000000000000000REP       President                                               Rick Santorum                         PRECINCT 2E                                            01 
01050030017000000000000000000000000000000000000REP       President                                               Rick Santorum                         PRECINCT 2F                                            01 
01050030018000001000000000000000001000000000000REP       President                                               Rick Santorum                         PRECINCT 2G                                            01 
01050030020000001000001000000000000000000000000REP       President                                               Rick Santorum                         PRECINCT 3C7G                                          01 
01050030021000000000000000000000000000000000000REP       President                                               Rick Santorum                         PRECINCT 3D                                            01 
01050030022000000000000000000000000000000000000REP       President                                               Rick Santorum                         PRECINCT 3E                                            01 
01050030023000000000000000000000000000000000000REP       President                                               Rick Santorum                         PRECINCT 3F                                            01 
01050030024000000000000000000000000000000000000REP       President                                               Rick Santorum                         PRECINCT 3G                                            01 
01050030025000000000000000000000000000000000000REP       President                                               Rick Santorum                         PRECINCT 3H3C                                          01 
01050030026000000000000000000000000000000000000REP       President                                               Rick Santorum                         PRECINCT 3I                                            01 
01050030027000003000003000000000000000000000000REP       President                                               Rick Santorum                         PRECINCT 4A6E                                          01 
01050030028000000000000000000000000000000000000REP       President                                               Rick Santorum                         PRECINCT 4B                                            01 
01050030030000000000000000000000000000000000000REP       President                                               Rick Santorum                         PRECINCT 4D                                            01 
01050030031000000000000000000000000000000000000REP       President                                               Rick Santorum                         PRECINCT 4E                                            01 
01050030032000000000000000000000000000000000000REP       President                                               Rick Santorum                         PRECINCT 4F                                            01 
01050030033000000000000000000000000000000000000REP       President                                               Rick Santorum                         PRECINCT 4G                                            01 
01050040001000002000001000000000001000000000000REP       President                                               Lindsey Graham                        PRECINCT 1A3B                                          01 
01050040002000000000000000000000000000000000000REP       President                                               Lindsey Graham                        PRECINCT 1A5A                                          01 
01050040004000000000000000000000000000000000000REP       President                                               Lindsey Graham                        PRECINCT 1C                                            01 
01050040006000000000000000000000000000000000000REP       President                                               Lindsey Graham                        PRECINCT 1E                                            01 
01050040008000001000000000000000001000000000000REP       President                                               Lindsey Graham                        PRECINCT 1F                                            01 
01050040010000001000001000000000000000000000000REP       President                                               Lindsey Graham                        PRECINCT 1H                                            01 
01050040011000000000000000000000000000000000000REP       President                                               Lindsey Graham                        PRECINCT 1I                                            01 
01050040012000000000000000000000000000000000000REP       President                                               Lindsey Graham                        PRECINCT 2A1A                                          01 
01050040014000000000000000000000000000000000000REP       President                                               Lindsey Graham                        PRECINCT 2C3A                                          01 
01050040015000000000000000000000000000000000000REP       President                                               Lindsey Graham                        PRECINCT 2D                                            01 
01050040016000001000000000000000001000000000000REP       President                                               Lindsey Graham                        PRECINCT 2E                                            01 
01050040017000000000000000000000000000000000000REP       President                                               Lindsey Graham                        PRECINCT 2F                                            01 
01050040018000000000000000000000000000000000000REP       President                                               Lindsey Graham                        PRECINCT 2G                                            01 
01050040020000000000000000000000000000000000000REP       President                                               Lindsey Graham                        PRECINCT 3C7G                                          01 
01050040021000000000000000000000000000000000000REP       President                                               Lindsey Graham                        PRECINCT 3D                                            01 
01050040022000000000000000000000000000000000000REP       President                                               Lindsey Graham                        PRECINCT 3E                                            01 
01050040023000000000000000000000000000000000000REP       President                                               Lindsey Graham                        PRECINCT 3F                                            01 
01050040024000000000000000000000000000000000000REP       President                                               Lindsey Graham                        PRECINCT 3G                                            01 
01050040025000000000000000000000000000000000000REP       President                                               Lindsey Graham                        PRECINCT 3H3C                                          01 
01050040026000000000000000000000000000000000000REP       President                                               Lindsey Graham                        PRECINCT 3I                                            01 
01050040027000001000001000000000000000000000000REP       President                                               Lindsey Graham                        PRECINCT 4A6E                                          01 
01050040028000000000000000000000000000000000000REP       President                                               Lindsey Graham                        PRECINCT 4B                                            01 
01050040030000000000000000000000000000000000000REP       President                                               Lindsey Graham                        PRECINCT 4D                                            01 
01050040031000000000000000000000000000000000000REP       President                                               Lindsey Graham                        PRECINCT 4E                                            01 
01050040032000000000000000000000000000000000000REP       President                                               Lindsey Graham                        PRECINCT 4F                                            01 
01050040033000000000000000000000000000000000000REP       President                                               Lindsey Graham                        PRECINCT 4G                                            01 
01050050001000000000000000000000000000000000000REP       President                                               Chris Christie                        PRECINCT 1A3B                                          01 
01050050002000002000000000001000001000000000000REP       President                                               Chris Christie                        PRECINCT 1A5A                                          01 
01050050004000000000000000000000000000000000000REP       President                                               Chris Christie                        PRECINCT 1C                                            01 
01050050006000000000000000000000000000000000000REP       President                                               Chris Christie                        PRECINCT 1E                                            01 
01050050008000000000000000000000000000000000000REP       President                                               Chris Christie                        PRECINCT 1F                                            01 
01050050010000000000000000000000000000000000000REP       President                                               Chris Christie                        PRECINCT 1H                                            01 
01050050011000000000000000000000000000000000000REP       President                                               Chris Christie                        PRECINCT 1I                                            01 
01050050012000001000000000000000001000000000000REP       President                                               Chris Christie                        PRECINCT 2A1A                                          01 
01050050014000000000000000000000000000000000000REP       President                                               Chris Christie                        PRECINCT 2C3A                                          01 
01050050015000000000000000000000000000000000000REP       President                                               Chris Christie                        PRECINCT 2D                                            01 
01050050016000001000000000000000001000000000000REP       President                                               Chris Christie                        PRECINCT 2E                                            01 
01050050017000000000000000000000000000000000000REP       President                                               Chris Christie                        PRECINCT 2F                                            01 
01050050018000000000000000000000000000000000000REP       President                                               Chris Christie                        PRECINCT 2G                                            01 
01050050020000007000006000001000000000000000000REP       President                                               Chris Christie                        PRECINCT 3C7G                                          01 
01050050021000000000000000000000000000000000000REP       President                                               Chris Christie                        PRECINCT 3D                                            01 
01050050022000000000000000000000000000000000000REP       President                                               Chris Christie                        PRECINCT 3E                                            01 
01050050023000000000000000000000000000000000000REP       President                                               Chris Christie                        PRECINCT 3F                                            01 
01050050024000000000000000000000000000000000000REP       President                                               Chris Christie                        PRECINCT 3G                                            01 
01050050025000000000000000000000000000000000000REP       President                                               Chris Christie                        PRECINCT 3H3C                                          01 
01050050026000000000000000000000000000000000000REP       President                                               Chris Christie                        PRECINCT 3I                                            01 
01050050027000000000000000000000000000000000000REP       President                                               Chris Christie                        PRECINCT 4A6E                                          01 
01050050028000001000001000000000000000000000000REP       President                                               Chris Christie                        PRECINCT 4B                                            01 
01050050030000000000000000000000000000000000000REP       President                                               Chris Christie                        PRECINCT 4D                                            01 
01050050031000000000000000000000000000000000000REP       President                                               Chris Christie                        PRECINCT 4E                                            01 
01050050032000002000000000000000002000000000000REP       President                                               Chris Christie                        PRECINCT 4F                                            01 
01050050033000002000002000000000000000000000000REP       President                                               Chris Christie                        PRECINCT 4G                                            01 
01050060001000149000087000011000051000000000000REP       President                                               Marco Rubio                           PRECINCT 1A3B                                          01 
01050060002000029000019000000000010000000000000REP       President                                               Marco Rubio                           PRECINCT 1A5A                                          01 
01050060004000017000010000000000007000000000000REP       President                                               Marco Rubio                           PRECINCT 1C                                            01 
01050060006000032000010000000000022000000000000REP       President                                               Marco Rubio                           PRECINCT 1E                                            01 
01050060008000055000021000002000032000000000000REP       President                                               Marco Rubio                           PRECINCT 1F                                            01 
01050060010000025000008000003000014000000000000REP       President                                               Marco Rubio                           PRECINCT 1H                                            01 
01050060011000015000007000002000006000000000000REP       President                                               Marco Rubio                           PRECINCT 1I                                            01 
01050060012000010000004000001000005000000000000REP       President                                               Marco Rubio                           PRECINCT 2A1A                                          01 
01050060014000049000015000004000030000000000000REP       President                                               Marco Rubio                           PRECINCT 2C3A                                          01 
01050060015000017000006000002000009000000000000REP       President                                               Marco Rubio                           PRECINCT 2D                                            01 
01050060016000023000011000000000012000000000000REP       President                                               Marco Rubio                           PRECINCT 2E                                            01 
01050060017000006000001000002000003000000000000REP       President                                               Marco Rubio                           PRECINCT 2F                                            01 
01050060018000012000007000000000005000000000000REP       President                                               Marco Rubio                           PRECINCT 2G                                            01 
01050060020000154000083000010000061000000000000REP       President                                               Marco Rubio                           PRECINCT 3C7G                                          01 
01050060021000037000019000002000016000000000000REP       President                                               Marco Rubio                           PRECINCT 3D                                            01 
01050060022000056000033000001000022000000000000REP       President                                               Marco Rubio                           PRECINCT 3E                                            01 
01050060023000034000008000000000026000000000000REP       President                                               Marco Rubio                           PRECINCT 3F                                            01 
01050060024000027000014000002000011000000000000REP       President                                               Marco Rubio                           PRECINCT 3G                                            01 
01050060025000024000015000003000006000000000000REP       President                                               Marco Rubio                           PRECINCT 3H3C                                          01 
01050060026000067000039000006000022000000000000REP       President                                               Marco Rubio                           PRECINCT 3I                                            01 
01050060027000091000046000005000040000000000000REP       President                                               Marco Rubio                           PRECINCT 4A6E                                          01 
01050060028000052000020000006000026000000000000REP       President                                               Marco Rubio                           PRECINCT 4B                                            01 
01050060030000050000015000003000032000000000000REP       President                                               Marco Rubio                           PRECINCT 4D                                            01 
01050060031000053000011000007000035000000000000REP       President                                               Marco Rubio                           PRECINCT 4E                                            01 
01050060032000104000048000010000046000000000000REP       President                                               Marco Rubio                           PRECINCT 4F                                            01 
01050060033000131000066000004000061000000000000REP       President                                               Marco Rubio                           PRECINCT 4G                                            01 
01050070001000000000000000000000000000000000000REP       President                                               Elizabeth Gray                        PRECINCT 1A3B                                          01 
01050070002000000000000000000000000000000000000REP       President                                               Elizabeth Gray                        PRECINCT 1A5A                                          01 
01050070004000000000000000000000000000000000000REP       President                                               Elizabeth Gray                        PRECINCT 1C                                            01 
01050070006000001000000000000000001000000000000REP       President                                               Elizabeth Gray                        PRECINCT 1E                                            01 
01050070008000000000000000000000000000000000000REP       President                                               Elizabeth Gray                        PRECINCT 1F                                            01 
01050070010000000000000000000000000000000000000REP       President                                               Elizabeth Gray                        PRECINCT 1H                                            01 
01050070011000000000000000000000000000000000000REP       President                                               Elizabeth Gray                        PRECINCT 1I                                            01 
01050070012000000000000000000000000000000000000REP       President                                               Elizabeth Gray                        PRECINCT 2A1A                                          01 
01050070014000001000001000000000000000000000000REP       President                                               Elizabeth Gray                        PRECINCT 2C3A                                          01 
01050070015000000000000000000000000000000000000REP       President                                               Elizabeth Gray                        PRECINCT 2D                                            01 
01050070016000000000000000000000000000000000000REP       President                                               Elizabeth Gray                        PRECINCT 2E                                            01 
01050070017000000000000000000000000000000000000REP       President                                               Elizabeth Gray                        PRECINCT 2F                                            01 
01050070018000000000000000000000000000000000000REP       President                                               Elizabeth Gray                        PRECINCT 2G                                            01 
01050070020000000000000000000000000000000000000REP       President                                               Elizabeth Gray                        PRECINCT 3C7G                                          01 
01050070021000000000000000000000000000000000000REP       President                                               Elizabeth Gray                        PRECINCT 3D                                            01 
01050070022000000000000000000000000000000000000REP       President                                               Elizabeth Gray                        PRECINCT 3E                                            01 
01050070023000000000000000000000000000000000000REP       President                                               Elizabeth Gray                        PRECINCT 3F                                            01 
01050070024000000000000000000000000000000000000REP       President                                               Elizabeth Gray                        PRECINCT 3G                                            01 
01050070025000000000000000000000000000000000000REP       President                                               Elizabeth Gray                        PRECINCT 3H3C                                          01 
01050070026000000000000000000000000000000000000REP       President                                               Elizabeth Gray                        PRECINCT 3I                                            01 
01050070027000000000000000000000000000000000000REP       President                                               Elizabeth Gray                        PRECINCT 4A6E                                          01 
01050070028000000000000000000000000000000000000REP       President                                               Elizabeth Gray                        PRECINCT 4B                                            01 
01050070030000000000000000000000000000000000000REP       President                                               Elizabeth Gray                        PRECINCT 4D                                            01 
01050070031000000000000000000000000000000000000REP       President                                               Elizabeth Gray                        PRECINCT 4E                                            01 
01050070032000000000000000000000000000000000000REP       President                                               Elizabeth Gray                        PRECINCT 4F                                            01 
01050070033000000000000000000000000000000000000REP       President                                               Elizabeth Gray                        PRECINCT 4G                                            01 
01050080001000014000009000004000001000000000000REP       President                                               Jeb Bush                              PRECINCT 1A3B                                          01 
01050080002000010000005000004000001000000000000REP       President                                               Jeb Bush                              PRECINCT 1A5A                                          01 
01050080004000003000002000000000001000000000000REP       President                                               Jeb Bush                              PRECINCT 1C                                            01 
01050080006000001000001000000000000000000000000REP       President                                               Jeb Bush                              PRECINCT 1E                                            01 
01050080008000005000004000000000001000000000000REP       President                                               Jeb Bush                              PRECINCT 1F                                            01 
01050080010000002000001000001000000000000000000REP       President                                               Jeb Bush                              PRECINCT 1H                                            01 
01050080011000003000001000001000001000000000000REP       President                                               Jeb Bush                              PRECINCT 1I                                            01 
01050080012000000000000000000000000000000000000REP       President                                               Jeb Bush                              PRECINCT 2A1A                                          01 
01050080014000006000005000000000001000000000000REP       President                                               Jeb Bush                              PRECINCT 2C3A                                          01 
01050080015000002000001000000000001000000000000REP       President                                               Jeb Bush                              PRECINCT 2D                                            01 
01050080016000001000000000000000001000000000000REP       President                                               Jeb Bush                              PRECINCT 2E                                            01 
01050080017000002000000000000000002000000000000REP       President                                               Jeb Bush                              PRECINCT 2F                                            01 
01050080018000003000003000000000000000000000000REP       President                                               Jeb Bush                              PRECINCT 2G                                            01 
01050080020000033000021000011000001000000000000REP       President                                               Jeb Bush                              PRECINCT 3C7G                                          01 
01050080021000003000002000000000001000000000000REP       President                                               Jeb Bush                              PRECINCT 3D                                            01 
01050080022000006000005000000000001000000000000REP       President                                               Jeb Bush                              PRECINCT 3E                                            01 
01050080023000000000000000000000000000000000000REP       President                                               Jeb Bush                              PRECINCT 3F                                            01 
01050080024000001000000000000000001000000000000REP       President                                               Jeb Bush                              PRECINCT 3G                                            01 
01050080025000006000006000000000000000000000000REP       President                                               Jeb Bush                              PRECINCT 3H3C                                          01 
01050080026000008000004000002000002000000000000REP       President                                               Jeb Bush                              PRECINCT 3I                                            01 
01050080027000008000005000001000002000000000000REP       President                                               Jeb Bush                              PRECINCT 4A6E                                          01 
01050080028000014000005000002000007000000000000REP       President                                               Jeb Bush                              PRECINCT 4B                                            01 
01050080030000001000001000000000000000000000000REP       President                                               Jeb Bush                              PRECINCT 4D                                            01 
01050080031000001000000000000000001000000000000REP       President                                               Jeb Bush                              PRECINCT 4E                                            01 
01050080032000006000004000002000000000000000000REP       President                                               Jeb Bush                              PRECINCT 4F                                            01 
01050080033000018000016000000000002000000000000REP       President                                               Jeb Bush                              PRECINCT 4G                                            01 
01050090001000249000144000020000085000000000000REP       President                                               Donald J. Trump                       PRECINCT 1A3B                                          01 
01050090002000108000049000006000053000000000000REP       President                                               Donald J. Trump                       PRECINCT 1A5A                                          01 
01050090004000037000007000005000025000000000000REP       President                                               Donald J. Trump                       PRECINCT 1C                                            01 
01050090006000104000025000006000073000000000000REP       President                                               Donald J. Trump                       PRECINCT 1E                                            01 
01050090008000205000064000002000139000000000000REP       President                                               Donald J. Trump                       PRECINCT 1F                                            01 
01050090010000094000036000003000055000000000000REP       President                                               Donald J. Trump                       PRECINCT 1H                                            01 
01050090011000060000023000002000034000001000000REP       President                                               Donald J. Trump                       PRECINCT 1I                                            01 
01050090012000034000020000001000013000000000000REP       President                                               Donald J. Trump                       PRECINCT 2A1A                                          01 
01050090014000156000070000012000074000000000000REP       President                                               Donald J. Trump                       PRECINCT 2C3A                                          01 
01050090015000061000013000003000045000000000000REP       President                                               Donald J. Trump                       PRECINCT 2D                                            01 
01050090016000065000026000003000036000000000000REP       President                                               Donald J. Trump                       PRECINCT 2E                                            01 
01050090017000028000008000001000019000000000000REP       President                                               Donald J. Trump                       PRECINCT 2F                                            01 
01050090018000081000034000003000044000000000000REP       President                                               Donald J. Trump                       PRECINCT 2G                                            01 
01050090020000270000125000027000118000000000000REP       President                                               Donald J. Trump                       PRECINCT 3C7G                                          01 
01050090021000101000024000005000072000000000000REP       President                                               Donald J. Trump                       PRECINCT 3D                                            01 
01050090022000191000092000010000089000000000000REP       President                                               Donald J. Trump                       PRECINCT 3E                                            01 
01050090023000066000024000002000039000001000000REP       President                                               Donald J. Trump                       PRECINCT 3F                                            01 
01050090024000081000043000001000037000000000000REP       President                                               Donald J. Trump                       PRECINCT 3G                                            01 
01050090025000071000044000010000017000000000000REP       President                                               Donald J. Trump                       PRECINCT 3H3C                                          01 
01050090026000149000072000009000066000002000000REP       President                                               Donald J. Trump                       PRECINCT 3I                                            01 
01050090027000149000081000016000052000000000000REP       President                                               Donald J. Trump                       PRECINCT 4A6E                                          01 
01050090028000198000062000007000128000001000000REP       President                                               Donald J. Trump                       PRECINCT 4B                                            01 
01050090030000173000055000005000113000000000000REP       President                                               Donald J. Trump                       PRECINCT 4D                                            01 
01050090031000123000042000005000076000000000000REP       President                                               Donald J. Trump                       PRECINCT 4E                                            01 
01050090032000202000086000010000106000000000000REP       President                                               Donald J. Trump                       PRECINCT 4F                                            01 
01050090033000237000113000007000116000001000000REP       President                                               Donald J. Trump                       PRECINCT 4G                                            01 
01050100001000002000000000000000002000000000000REP       President                                               Mike Huckabee                         PRECINCT 1A3B                                          01 
01050100002000000000000000000000000000000000000REP       President                                               Mike Huckabee                         PRECINCT 1A5A                                          01 
01050100004000001000000000001000000000000000000REP       President                                               Mike Huckabee                         PRECINCT 1C                                            01 
01050100006000001000000000000000001000000000000REP       President                                               Mike Huckabee                         PRECINCT 1E                                            01 
01050100008000004000001000001000002000000000000REP       President                                               Mike Huckabee                         PRECINCT 1F                                            01 
01050100010000000000000000000000000000000000000REP       President                                               Mike Huckabee                         PRECINCT 1H                                            01 
01050100011000000000000000000000000000000000000REP       President                                               Mike Huckabee                         PRECINCT 1I                                            01 
01050100012000000000000000000000000000000000000REP       President                                               Mike Huckabee                         PRECINCT 2A1A                                          01 
01050100014000001000000000000000001000000000000REP       President                                               Mike Huckabee                         PRECINCT 2C3A                                          01 
01050100015000004000002000000000002000000000000REP       President                                               Mike Huckabee                         PRECINCT 2D                                            01 
01050100016000000000000000000000000000000000000REP       President                                               Mike Huckabee                         PRECINCT 2E                                            01 
01050100017000001000000000000000001000000000000REP       President                                               Mike Huckabee                         PRECINCT 2F                                            01 
01050100018000000000000000000000000000000000000REP       President                                               Mike Huckabee                         PRECINCT 2G                                            01 
01050100020000002000002000000000000000000000000REP       President                                               Mike Huckabee                         PRECINCT 3C7G                                          01 
01050100021000002000000000000000002000000000000REP       President                                               Mike Huckabee                         PRECINCT 3D                                            01 
01050100022000000000000000000000000000000000000REP       President                                               Mike Huckabee                         PRECINCT 3E                                            01 
01050100023000001000001000000000000000000000000REP       President                                               Mike Huckabee                         PRECINCT 3F                                            01 
01050100024000000000000000000000000000000000000REP       President                                               Mike Huckabee                         PRECINCT 3G                                            01 
01050100025000002000001000000000001000000000000REP       President                                               Mike Huckabee                         PRECINCT 3H3C                                          01 
01050100026000002000000000002000000000000000000REP       President                                               Mike Huckabee                         PRECINCT 3I                                            01 
01050100027000002000001000000000001000000000000REP       President                                               Mike Huckabee                         PRECINCT 4A6E                                          01 
01050100028000006000002000000000004000000000000REP       President                                               Mike Huckabee                         PRECINCT 4B                                            01 
01050100030000000000000000000000000000000000000REP       President                                               Mike Huckabee                         PRECINCT 4D                                            01 
01050100031000001000000000000000001000000000000REP       President                                               Mike Huckabee                         PRECINCT 4E                                            01 
01050100032000002000000000001000001000000000000REP       President                                               Mike Huckabee                         PRECINCT 4F                                            01 
01050100033000002000000000000000002000000000000REP       President                                               Mike Huckabee                         PRECINCT 4G                                            01 
01050110001000043000016000001000026000000000000REP       President                                               Ben Carson                            PRECINCT 1A3B                                          01 
01050110002000018000009000001000008000000000000REP       President                                               Ben Carson                            PRECINCT 1A5A                                          01 
01050110004000003000001000000000002000000000000REP       President                                               Ben Carson                            PRECINCT 1C                                            01 
01050110006000019000005000000000014000000000000REP       President                                               Ben Carson                            PRECINCT 1E                                            01 
01050110008000022000005000003000014000000000000REP       President                                               Ben Carson                            PRECINCT 1F                                            01 
01050110010000015000003000001000011000000000000REP       President                                               Ben Carson                            PRECINCT 1H                                            01 
01050110011000011000002000000000009000000000000REP       President                                               Ben Carson                            PRECINCT 1I                                            01 
01050110012000003000002000000000001000000000000REP       President                                               Ben Carson                            PRECINCT 2A1A                                          01 
01050110014000019000006000001000012000000000000REP       President                                               Ben Carson                            PRECINCT 2C3A                                          01 
01050110015000023000005000000000018000000000000REP       President                                               Ben Carson                            PRECINCT 2D                                            01 
01050110016000015000006000000000009000000000000REP       President                                               Ben Carson                            PRECINCT 2E                                            01 
01050110017000007000000000000000007000000000000REP       President                                               Ben Carson                            PRECINCT 2F                                            01 
01050110018000008000004000000000004000000000000REP       President                                               Ben Carson                            PRECINCT 2G                                            01 
01050110020000051000016000003000032000000000000REP       President                                               Ben Carson                            PRECINCT 3C7G                                          01 
01050110021000007000001000000000006000000000000REP       President                                               Ben Carson                            PRECINCT 3D                                            01 
01050110022000039000010000005000024000000000000REP       President                                               Ben Carson                            PRECINCT 3E                                            01 
01050110023000006000002000000000004000000000000REP       President                                               Ben Carson                            PRECINCT 3F                                            01 
01050110024000017000005000000000012000000000000REP       President                                               Ben Carson                            PRECINCT 3G                                            01 
01050110025000007000004000000000003000000000000REP       President                                               Ben Carson                            PRECINCT 3H3C                                          01 
01050110026000031000013000000000018000000000000REP       President                                               Ben Carson                            PRECINCT 3I                                            01 
01050110027000023000014000004000005000000000000REP       President                                               Ben Carson                            PRECINCT 4A6E                                          01 
01050110028000022000008000001000013000000000000REP       President                                               Ben Carson                            PRECINCT 4B                                            01 
01050110030000019000004000000000015000000000000REP       President                                               Ben Carson                            PRECINCT 4D                                            01 
01050110031000027000013000000000014000000000000REP       President                                               Ben Carson                            PRECINCT 4E                                            01 
01050110032000041000018000001000022000000000000REP       President                                               Ben Carson                            PRECINCT 4F                                            01 
01050110033000044000012000002000030000000000000REP       President                                               Ben Carson                            PRECINCT 4G                                            01 
01050120001000004000002000000000002000000000000REP       President                                               Rand Paul                             PRECINCT 1A3B                                          01 
01050120002000001000000000000000001000000000000REP       President                                               Rand Paul                             PRECINCT 1A5A                                          01 
01050120004000000000000000000000000000000000000REP       President                                               Rand Paul                             PRECINCT 1C                                            01 
01050120006000003000000000000000003000000000000REP       President                                               Rand Paul                             PRECINCT 1E                                            01 
01050120008000005000002000002000001000000000000REP       President                                               Rand Paul                             PRECINCT 1F                                            01 
01050120010000000000000000000000000000000000000REP       President                                               Rand Paul                             PRECINCT 1H                                            01 
01050120011000000000000000000000000000000000000REP       President                                               Rand Paul                             PRECINCT 1I                                            01 
01050120012000001000001000000000000000000000000REP       President                                               Rand Paul                             PRECINCT 2A1A                                          01 
01050120014000001000001000000000000000000000000REP       President                                               Rand Paul                             PRECINCT 2C3A                                          01 
01050120015000001000000000000000001000000000000REP       President                                               Rand Paul                             PRECINCT 2D                                            01 
01050120016000000000000000000000000000000000000REP       President                                               Rand Paul                             PRECINCT 2E                                            01 
01050120017000000000000000000000000000000000000REP       President                                               Rand Paul                             PRECINCT 2F                                            01 
01050120018000000000000000000000000000000000000REP       President                                               Rand Paul                             PRECINCT 2G                                            01 
01050120020000002000001000001000000000000000000REP       President                                               Rand Paul                             PRECINCT 3C7G                                          01 
01050120021000002000000000000000002000000000000REP       President                                               Rand Paul                             PRECINCT 3D                                            01 
01050120022000005000004000000000001000000000000REP       President                                               Rand Paul                             PRECINCT 3E                                            01 
01050120023000001000000000000000001000000000000REP       President                                               Rand Paul                             PRECINCT 3F                                            01 
01050120024000000000000000000000000000000000000REP       President                                               Rand Paul                             PRECINCT 3G                                            01 
01050120025000001000000000000000001000000000000REP       President                                               Rand Paul                             PRECINCT 3H3C                                          01 
01050120026000000000000000000000000000000000000REP       President                                               Rand Paul                             PRECINCT 3I                                            01 
01050120027000000000000000000000000000000000000REP       President                                               Rand Paul                             PRECINCT 4A6E                                          01 
01050120028000001000001000000000000000000000000REP       President                                               Rand Paul                             PRECINCT 4B                                            01 
01050120030000001000000000000000001000000000000REP       President                                               Rand Paul                             PRECINCT 4D                                            01 
01050120031000000000000000000000000000000000000REP       President                                               Rand Paul                             PRECINCT 4E                                            01 
01050120032000001000001000000000000000000000000REP       President                                               Rand Paul                             PRECINCT 4F                                            01 
01050120033000004000003000000000001000000000000REP       President                                               Rand Paul                             PRECINCT 4G                                            01 
01050130001000317000145000018000154000000000000REP       President                                               Ted Cruz                              PRECINCT 1A3B                                          01 
01050130002000090000034000011000044000001000000REP       President                                               Ted Cruz                              PRECINCT 1A5A                                          01 
01050130004000068000021000004000043000000000000REP       President                                               Ted Cruz                              PRECINCT 1C                                            01 
01050130006000095000024000004000067000000000000REP       President                                               Ted Cruz                              PRECINCT 1E                                            01 
01050130008000199000047000019000133000000000000REP       President                                               Ted Cruz                              PRECINCT 1F                                            01 
01050130010000089000022000002000065000000000000REP       President                                               Ted Cruz                              PRECINCT 1H                                            01 
01050130011000073000018000002000053000000000000REP       President                                               Ted Cruz                              PRECINCT 1I                                            01 
01050130012000034000012000005000017000000000000REP       President                                               Ted Cruz                              PRECINCT 2A1A                                          01 
01050130014000153000043000011000099000000000000REP       President                                               Ted Cruz                              PRECINCT 2C3A                                          01 
01050130015000082000018000004000060000000000000REP       President                                               Ted Cruz                              PRECINCT 2D                                            01 
01050130016000100000030000007000063000000000000REP       President                                               Ted Cruz                              PRECINCT 2E                                            01 
01050130017000024000006000000000018000000000000REP       President                                               Ted Cruz                              PRECINCT 2F                                            01 
01050130018000091000027000008000056000000000000REP       President                                               Ted Cruz                              PRECINCT 2G                                            01 
01050130020000313000130000039000144000000000000REP       President                                               Ted Cruz                              PRECINCT 3C7G                                          01 
01050130021000149000052000008000089000000000000REP       President                                               Ted Cruz                              PRECINCT 3D                                            01 
01050130022000249000097000006000146000000000000REP       President                                               Ted Cruz                              PRECINCT 3E                                            01 
01050130023000093000020000007000066000000000000REP       President                                               Ted Cruz                              PRECINCT 3F                                            01 
01050130024000105000030000004000071000000000000REP       President                                               Ted Cruz                              PRECINCT 3G                                            01 
01050130025000072000032000010000030000000000000REP       President                                               Ted Cruz                              PRECINCT 3H3C                                          01 
01050130026000263000113000021000129000000000000REP       President                                               Ted Cruz                              PRECINCT 3I                                            01 
01050130027000221000093000020000108000000000000REP       President                                               Ted Cruz                              PRECINCT 4A6E                                          01 
01050130028000260000065000022000173000000000000REP       President                                               Ted Cruz                              PRECINCT 4B                                            01 
01050130030000269000058000011000200000000000000REP       President                                               Ted Cruz                              PRECINCT 4D                                            01 
01050130031000157000046000006000105000000000000REP       President                                               Ted Cruz                              PRECINCT 4E                                            01 
01050130032000269000093000018000158000000000000REP       President                                               Ted Cruz                              PRECINCT 4F                                            01 
01050130033000262000101000012000149000000000000REP       President                                               Ted Cruz                              PRECINCT 4G                                            01 
01050140001000024000015000002000007000000000000REP       President                                               Uncommitted                           PRECINCT 1A3B                                          01 
01050140002000018000012000003000003000000000000REP       President                                               Uncommitted                           PRECINCT 1A5A                                          01 
01050140004000005000004000000000001000000000000REP       President                                               Uncommitted                           PRECINCT 1C                                            01 
01050140006000006000000000002000004000000000000REP       President                                               Uncommitted                           PRECINCT 1E                                            01 
01050140008000009000005000002000002000000000000REP       President                                               Uncommitted                           PRECINCT 1F                                            01 
01050140010000004000002000001000001000000000000REP       President                                               Uncommitted                           PRECINCT 1H                                            01 
01050140011000002000000000000000002000000000000REP       President                                               Uncommitted                           PRECINCT 1I                                            01 
01050140012000003000002000000000001000000000000REP       President                                               Uncommitted                           PRECINCT 2A1A                                          01 
01050140014000013000006000004000003000000000000REP       President                                               Uncommitted                           PRECINCT 2C3A                                          01 
01050140015000005000002000000000003000000000000REP       President                                               Uncommitted                           PRECINCT 2D                                            01 
01050140016000006000001000000000005000000000000REP       President                                               Uncommitted                           PRECINCT 2E                                            01 
01050140017000003000000000000000003000000000000REP       President                                               Uncommitted                           PRECINCT 2F                                            01 
01050140018000002000002000000000000000000000000REP       President                                               Uncommitted                           PRECINCT 2G                                            01 
01050140020000049000029000010000010000000000000REP       President                                               Uncommitted                           PRECINCT 3C7G                                          01 
01050140021000012000005000004000003000000000000REP       President                                               Uncommitted                           PRECINCT 3D                                            01 
01050140022000017000004000002000010000001000000REP       President                                               Uncommitted                           PRECINCT 3E                                            01 
01050140023000004000002000000000002000000000000REP       President                                               Uncommitted                           PRECINCT 3F                                            01 
01050140024000007000002000001000004000000000000REP       President                                               Uncommitted                           PRECINCT 3G                                            01 
01050140025000003000000000000000003000000000000REP       President                                               Uncommitted                           PRECINCT 3H3C                                          01 
01050140026000016000011000003000002000000000000REP       President                                               Uncommitted                           PRECINCT 3I                                            01 
01050140027000022000015000005000002000000000000REP       President                                               Uncommitted                           PRECINCT 4A6E                                          01 
01050140028000025000012000005000008000000000000REP       President                                               Uncommitted                           PRECINCT 4B                                            01 
01050140030000008000002000001000005000000000000REP       President                                               Uncommitted                           PRECINCT 4D                                            01 
01050140031000008000005000000000003000000000000REP       President                                               Uncommitted                           PRECINCT 4E                                            01 
01050140032000019000011000003000005000000000000REP       President                                               Uncommitted                           PRECINCT 4F                                            01 
01050140033000013000009000001000003000000000000REP       President                                               Uncommitted                           PRECINCT 4G                                            01 
01050150001000000000000000000000000000000000000REP       President                                               OVER VOTES                            PRECINCT 1A3B                                          01 
01050150002000000000000000000000000000000000000REP       President                                               OVER VOTES                            PRECINCT 1A5A                                          01 
01050150004000000000000000000000000000000000000REP       President                                               OVER VOTES                            PRECINCT 1C                                            01 
01050150006000000000000000000000000000000000000REP       President                                               OVER VOTES                            PRECINCT 1E                                            01 
01050150008000000000000000000000000000000000000REP       President                                               OVER VOTES                            PRECINCT 1F                                            01 
