01010010001002760000000000000000000000000000000          REGISTERED VOTERS - TOTAL                               REGISTERED VOTERS - TOTAL             Precinct 1                                             00 
01010010002000703000000000000000000000000000000          REGISTERED VOTERS - TOTAL                               REGISTERED VOTERS - TOTAL             Precinct 8                                             00 
01010010003000717000000000000000000000000000000          REGISTERED VOTERS - TOTAL                               REGISTERED VOTERS - TOTAL             Precinct 16                                            00 
01010010004000685000000000000000000000000000000          REGISTERED VOTERS - TOTAL                               REGISTERED VOTERS - TOTAL             Precinct 19                                            00 
01010010005001288000000000000000000000000000000          REGISTERED VOTERS - TOTAL                               REGISTERED VOTERS - TOTAL             Precinct 23                                            00 
01010010006002667000000000000000000000000000000          REGISTERED VOTERS - TOTAL                               REGISTERED VOTERS - TOTAL             Precinct 29                                            00 
01010010007002155000000000000000000000000000000          REGISTERED VOTERS - TOTAL                               REGISTERED VOTERS - TOTAL             Precinct 30                                            00 
01010010008001347000000000000000000000000000000          REGISTERED VOTERS - TOTAL                               REGISTERED VOTERS - TOTAL             Precinct 31                                            00 
01010010009000648000000000000000000000000000000          REGISTERED VOTERS - TOTAL                               REGISTERED VOTERS - TOTAL             Precinct 32                                            00 
01020010001001033000212000176000377000268000000          BALLOTS CAST - TOTAL                                    BALLOTS CAST - TOTAL                  Precinct 1                                             00 
01020010002000310000032000029000112000137000000          BALLOTS CAST - TOTAL                                    BALLOTS CAST - TOTAL                  Precinct 8                                             00 
01020010003000285000028000032000131000094000000          BALLOTS CAST - TOTAL                                    BALLOTS CAST - TOTAL                  Precinct 16                                            00 
01020010004000261000068000064000065000064000000          BALLOTS CAST - TOTAL                                    BALLOTS CAST - TOTAL                  Precinct 19                                            00 
01020010005000470000038000034000272000126000000          BALLOTS CAST - TOTAL                                    BALLOTS CAST - TOTAL                  Precinct 23                                            00 
01020010006000858000085000060000420000293000000          BALLOTS CAST - TOTAL                                    BALLOTS CAST - TOTAL                  Precinct 29                                            00 
01020010007000620000053000029000309000229000000          BALLOTS CAST - TOTAL                                    BALLOTS CAST - TOTAL                  Precinct 30                                            00 
01020010008000574000123000117000150000184000000          BALLOTS CAST - TOTAL                                    BALLOTS CAST - TOTAL                  Precinct 31                                            00 
01020010009000228000025000025000075000103000000          BALLOTS CAST - TOTAL                                    BALLOTS CAST - TOTAL                  Precinct 32                                            00 
01030010001000933000184000163000328000258000000REP       BALLOTS CAST - REPUBLICAN PARTY                         BALLOTS CAST - REPUBLICAN PARTY       Precinct 1                                             00 
01030010002000278000026000029000097000126000000REP       BALLOTS CAST - REPUBLICAN PARTY                         BALLOTS CAST - REPUBLICAN PARTY       Precinct 8                                             00 
01030010003000265000026000029000121000089000000REP       BALLOTS CAST - REPUBLICAN PARTY                         BALLOTS CAST - REPUBLICAN PARTY       Precinct 16                                            00 
01030010004000244000059000060000063000062000000REP       BALLOTS CAST - REPUBLICAN PARTY                         BALLOTS CAST - REPUBLICAN PARTY       Precinct 19                                            00 
01030010005000414000029000033000236000116000000REP       BALLOTS CAST - REPUBLICAN PARTY                         BALLOTS CAST - REPUBLICAN PARTY       Precinct 23                                            00 
01030010006000752000062000058000371000261000000REP       BALLOTS CAST - REPUBLICAN PARTY                         BALLOTS CAST - REPUBLICAN PARTY       Precinct 29                                            00 
01030010007000559000046000027000276000210000000REP       BALLOTS CAST - REPUBLICAN PARTY                         BALLOTS CAST - REPUBLICAN PARTY       Precinct 30                                            00 
01030010008000505000105000105000126000169000000REP       BALLOTS CAST - REPUBLICAN PARTY                         BALLOTS CAST - REPUBLICAN PARTY       Precinct 31                                            00 
01030010009000206000023000024000058000101000000REP       BALLOTS CAST - REPUBLICAN PARTY                         BALLOTS CAST - REPUBLICAN PARTY       Precinct 32                                            00 
01040010001000100000028000013000049000010000000DEM       BALLOTS CAST - DEMOCRATIC PARTY                         BALLOTS CAST - DEMOCRATIC PARTY       Precinct 1                                             00 
01040010002000032000006000000000015000011000000DEM       BALLOTS CAST - DEMOCRATIC PARTY                         BALLOTS CAST - DEMOCRATIC PARTY       Precinct 8                                             00 
01040010003000020000002000003000010000005000000DEM       BALLOTS CAST - DEMOCRATIC PARTY                         BALLOTS CAST - DEMOCRATIC PARTY       Precinct 16                                            00 
01040010004000017000009000004000002000002000000DEM       BALLOTS CAST - DEMOCRATIC PARTY                         BALLOTS CAST - DEMOCRATIC PARTY       Precinct 19                                            00 
01040010005000056000009000001000036000010000000DEM       BALLOTS CAST - DEMOCRATIC PARTY                         BALLOTS CAST - DEMOCRATIC PARTY       Precinct 23                                            00 
01040010006000106000023000002000049000032000000DEM       BALLOTS CAST - DEMOCRATIC PARTY                         BALLOTS CAST - DEMOCRATIC PARTY       Precinct 29                                            00 
01040010007000061000007000002000033000019000000DEM       BALLOTS CAST - DEMOCRATIC PARTY                         BALLOTS CAST - DEMOCRATIC PARTY       Precinct 30                                            00 
01040010008000069000018000012000024000015000000DEM       BALLOTS CAST - DEMOCRATIC PARTY                         BALLOTS CAST - DEMOCRATIC PARTY       Precinct 31                                            00 
01040010009000022000002000001000017000002000000DEM       BALLOTS CAST - DEMOCRATIC PARTY                         BALLOTS CAST - DEMOCRATIC PARTY       Precinct 32                                            00 
01050010001000016000004000003000006000003000000REP       President                                               John R. Kasich                        Precinct 1                                             01 
01050010002000006000000000000000001000005000000REP       President                                               John R. Kasich                        Precinct 8                                             01 
01050010003000004000000000000000002000002000000REP       President                                               John R. Kasich                        Precinct 16                                            01 
01050010004000004000000000002000002000000000000REP       President                                               John R. Kasich                        Precinct 19                                            01 
01050010005000014000000000001000007000006000000REP       President                                               John R. Kasich                        Precinct 23                                            01 
01050010006000017000003000000000007000007000000REP       President                                               John R. Kasich                        Precinct 29                                            01 
01050010007000007000003000000000004000000000000REP       President                                               John R. Kasich                        Precinct 30                                            01 
01050010008000014000001000003000005000005000000REP       President                                               John R. Kasich                        Precinct 31                                            01 
01050010009000002000000000001000001000000000000REP       President                                               John R. Kasich                        Precinct 32                                            01 
01050020001000086000019000014000022000031000000REP       President                                               Marco Rubio                           Precinct 1                                             01 
01050020002000024000002000003000006000013000000REP       President                                               Marco Rubio                           Precinct 8                                             01 
01050020003000014000000000001000007000006000000REP       President                                               Marco Rubio                           Precinct 16                                            01 
01050020004000015000006000006000001000002000000REP       President                                               Marco Rubio                           Precinct 19                                            01 
01050020005000051000001000008000031000011000000REP       President                                               Marco Rubio                           Precinct 23                                            01 
01050020006000065000011000009000027000018000000REP       President                                               Marco Rubio                           Precinct 29                                            01 
01050020007000049000010000002000021000016000000REP       President                                               Marco Rubio                           Precinct 30                                            01 
01050020008000048000009000017000008000014000000REP       President                                               Marco Rubio                           Precinct 31                                            01 
01050020009000018000005000002000003000008000000REP       President                                               Marco Rubio                           Precinct 32                                            01 
01050030001000001000001000000000000000000000000REP       President                                               Mike Huckabee                         Precinct 1                                             01 
01050030002000000000000000000000000000000000000REP       President                                               Mike Huckabee                         Precinct 8                                             01 
01050030003000000000000000000000000000000000000REP       President                                               Mike Huckabee                         Precinct 16                                            01 
01050030004000000000000000000000000000000000000REP       President                                               Mike Huckabee                         Precinct 19                                            01 
01050030005000000000000000000000000000000000000REP       President                                               Mike Huckabee                         Precinct 23                                            01 
01050030006000000000000000000000000000000000000REP       President                                               Mike Huckabee                         Precinct 29                                            01 
01050030007000001000001000000000000000000000000REP       President                                               Mike Huckabee                         Precinct 30                                            01 
01050030008000004000004000000000000000000000000REP       President                                               Mike Huckabee                         Precinct 31                                            01 
01050030009000000000000000000000000000000000000REP       President                                               Mike Huckabee                         Precinct 32                                            01 
01050040001000005000002000003000000000000000000REP       President                                               Jeb Bush                              Precinct 1                                             01 
01050040002000001000000000000000001000000000000REP       President                                               Jeb Bush                              Precinct 8                                             01 
01050040003000002000000000000000002000000000000REP       President                                               Jeb Bush                              Precinct 16                                            01 
01050040004000001000000000001000000000000000000REP       President                                               Jeb Bush                              Precinct 19                                            01 
01050040005000001000001000000000000000000000000REP       President                                               Jeb Bush                              Precinct 23                                            01 
01050040006000002000000000001000000000001000000REP       President                                               Jeb Bush                              Precinct 29                                            01 
01050040007000003000000000000000003000000000000REP       President                                               Jeb Bush                              Precinct 30                                            01 
01050040008000002000001000001000000000000000000REP       President                                               Jeb Bush                              Precinct 31                                            01 
01050040009000000000000000000000000000000000000REP       President                                               Jeb Bush                              Precinct 32                                            01 
01050050001000000000000000000000000000000000000REP       President                                               Elizabeth Gray                        Precinct 1                                             01 
01050050002000000000000000000000000000000000000REP       President                                               Elizabeth Gray                        Precinct 8                                             01 
01050050003000000000000000000000000000000000000REP       President                                               Elizabeth Gray                        Precinct 16                                            01 
01050050004000000000000000000000000000000000000REP       President                                               Elizabeth Gray                        Precinct 19                                            01 
01050050005000000000000000000000000000000000000REP       President                                               Elizabeth Gray                        Precinct 23                                            01 
01050050006000001000000000000000001000000000000REP       President                                               Elizabeth Gray                        Precinct 29                                            01 
01050050007000000000000000000000000000000000000REP       President                                               Elizabeth Gray                        Precinct 30                                            01 
01050050008000000000000000000000000000000000000REP       President                                               Elizabeth Gray                        Precinct 31                                            01 
01050050009000000000000000000000000000000000000REP       President                                               Elizabeth Gray                        Precinct 32                                            01 
01050060001000000000000000000000000000000000000REP       President                                               Rick Santorum                         Precinct 1                                             01 
01050060002000000000000000000000000000000000000REP       President                                               Rick Santorum                         Precinct 8                                             01 
01050060003000000000000000000000000000000000000REP       President                                               Rick Santorum                         Precinct 16                                            01 
01050060004000000000000000000000000000000000000REP       President                                               Rick Santorum                         Precinct 19                                            01 
01050060005000000000000000000000000000000000000REP       President                                               Rick Santorum                         Precinct 23                                            01 
01050060006000000000000000000000000000000000000REP       President                                               Rick Santorum                         Precinct 29                                            01 
01050060007000001000000000000000001000000000000REP       President                                               Rick Santorum                         Precinct 30                                            01 
01050060008000000000000000000000000000000000000REP       President                                               Rick Santorum                         Precinct 31                                            01 
01050060009000000000000000000000000000000000000REP       President                                               Rick Santorum                         Precinct 32                                            01 
01050070001000001000000000000000000000001000000REP       President                                               Chris Christie                        Precinct 1                                             01 
01050070002000000000000000000000000000000000000REP       President                                               Chris Christie                        Precinct 8                                             01 
01050070003000000000000000000000000000000000000REP       President                                               Chris Christie                        Precinct 16                                            01 
01050070004000000000000000000000000000000000000REP       President                                               Chris Christie                        Precinct 19                                            01 
01050070005000000000000000000000000000000000000REP       President                                               Chris Christie                        Precinct 23                                            01 
01050070006000000000000000000000000000000000000REP       President                                               Chris Christie                        Precinct 29                                            01 
01050070007000001000000000000000001000000000000REP       President                                               Chris Christie                        Precinct 30                                            01 
01050070008000000000000000000000000000000000000REP       President                                               Chris Christie                        Precinct 31                                            01 
01050070009000000000000000000000000000000000000REP       President                                               Chris Christie                        Precinct 32                                            01 
01050080001000252000052000046000097000057000000REP       President                                               Donald J. Trump                       Precinct 1                                             01 
01050080002000084000006000008000033000037000000REP       President                                               Donald J. Trump                       Precinct 8                                             01 
01050080003000090000013000010000042000025000000REP       President                                               Donald J. Trump                       Precinct 16                                            01 
01050080004000080000016000018000027000019000000REP       President                                               Donald J. Trump                       Precinct 19                                            01 
01050080005000130000012000007000083000028000000REP       President                                               Donald J. Trump                       Precinct 23                                            01 
01050080006000216000019000012000116000069000000REP       President                                               Donald J. Trump                       Precinct 29                                            01 
01050080007000170000011000006000091000062000000REP       President                                               Donald J. Trump                       Precinct 30                                            01 
01050080008000144000038000025000044000037000000REP       President                                               Donald J. Trump                       Precinct 31                                            01 
01050080009000051000008000009000009000025000000REP       President                                               Donald J. Trump                       Precinct 32                                            01 
01050090001000000000000000000000000000000000000REP       President                                               Carly Fiorina                         Precinct 1                                             01 
01050090002000000000000000000000000000000000000REP       President                                               Carly Fiorina                         Precinct 8                                             01 
01050090003000000000000000000000000000000000000REP       President                                               Carly Fiorina                         Precinct 16                                            01 
01050090004000000000000000000000000000000000000REP       President                                               Carly Fiorina                         Precinct 19                                            01 
01050090005000000000000000000000000000000000000REP       President                                               Carly Fiorina                         Precinct 23                                            01 
01050090006000000000000000000000000000000000000REP       President                                               Carly Fiorina                         Precinct 29                                            01 
01050090007000000000000000000000000000000000000REP       President                                               Carly Fiorina                         Precinct 30                                            01 
01050090008000000000000000000000000000000000000REP       President                                               Carly Fiorina                         Precinct 31                                            01 
01050090009000000000000000000000000000000000000REP       President                                               Carly Fiorina                         Precinct 32                                            01 
01050100001000019000002000007000004000006000000REP       President                                               Ben Carson                            Precinct 1                                             01 
01050100002000008000001000002000003000002000000REP       President                                               Ben Carson                            Precinct 8                                             01 
01050100003000010000001000000000006000003000000REP       President                                               Ben Carson                            Precinct 16                                            01 
01050100004000001000000000000000000000001000000REP       President                                               Ben Carson                            Precinct 19                                            01 
01050100005000009000001000001000003000004000000REP       President                                               Ben Carson                            Precinct 23                                            01 
01050100006000014000000000002000005000007000000REP       President                                               Ben Carson                            Precinct 29                                            01 
01050100007000013000002000000000006000005000000REP       President                                               Ben Carson                            Precinct 30                                            01 
01050100008000017000003000004000004000006000000REP       President                                               Ben Carson                            Precinct 31                                            01 
01050100009000009000000000003000001000005000000REP       President                                               Ben Carson                            Precinct 32                                            01 
01050110001000005000002000001000002000000000000REP       President                                               Rand Paul                             Precinct 1                                             01 
01050110002000001000000000001000000000000000000REP       President                                               Rand Paul                             Precinct 8                                             01 
01050110003000000000000000000000000000000000000REP       President                                               Rand Paul                             Precinct 16                                            01 
01050110004000001000000000000000001000000000000REP       President                                               Rand Paul                             Precinct 19                                            01 
01050110005000002000000000000000000000002000000REP       President                                               Rand Paul                             Precinct 23                                            01 
01050110006000001000000000000000001000000000000REP       President                                               Rand Paul                             Precinct 29                                            01 
01050110007000000000000000000000000000000000000REP       President                                               Rand Paul                             Precinct 30                                            01 
01050110008000004000002000000000001000001000000REP       President                                               Rand Paul                             Precinct 31                                            01 
01050110009000000000000000000000000000000000000REP       President                                               Rand Paul                             Precinct 32                                            01 
01050120001000513000098000077000196000142000000REP       President                                               Ted Cruz                              Precinct 1                                             01 
01050120002000143000017000012000053000061000000REP       President                                               Ted Cruz                              Precinct 8                                             01 
01050120003000142000012000018000062000050000000REP       President                                               Ted Cruz                              Precinct 16                                            01 
01050120004000127000035000026000032000034000000REP       President                                               Ted Cruz                              Precinct 19                                            01 
01050120005000196000013000012000112000059000000REP       President                                               Ted Cruz                              Precinct 23                                            01 
01050120006000413000028000028000211000146000000REP       President                                               Ted Cruz                              Precinct 29                                            01 
01050120007000295000018000014000149000114000000REP       President                                               Ted Cruz                              Precinct 30                                            01 
01050120008000250000047000047000063000093000000REP       President                                               Ted Cruz                              Precinct 31                                            01 
01050120009000119000010000009000043000057000000REP       President                                               Ted Cruz                              Precinct 32                                            01 
01050130001000023000000000007000000000016000000REP       President                                               Lindsey Graham                        Precinct 1                                             01 
01050130002000011000000000003000000000008000000REP       President                                               Lindsey Graham                        Precinct 8                                             01 
01050130003000002000000000000000000000002000000REP       President                                               Lindsey Graham                        Precinct 16                                            01 
01050130004000010000000000005000000000005000000REP       President                                               Lindsey Graham                        Precinct 19                                            01 
01050130005000010000000000004000000000006000000REP       President                                               Lindsey Graham                        Precinct 23                                            01 
01050130006000014000000000004000000000010000000REP       President                                               Lindsey Graham                        Precinct 29                                            01 
01050130007000014000000000003000000000011000000REP       President                                               Lindsey Graham                        Precinct 30                                            01 
01050130008000019000000000007000000000012000000REP       President                                               Lindsey Graham                        Precinct 31                                            01 
01050130009000006000000000000000001000005000000REP       President                                               Lindsey Graham                        Precinct 32                                            01 
01050140001000008000002000003000001000002000000REP       President                                               Uncommitted                           Precinct 1                                             01 
01050140002000000000000000000000000000000000000REP       President                                               Uncommitted                           Precinct 8                                             01 
01050140003000001000000000000000000000001000000REP       President                                               Uncommitted                           Precinct 16                                            01 
01050140004000005000002000002000000000001000000REP       President                                               Uncommitted                           Precinct 19                                            01 
01050140005000000000000000000000000000000000000REP       President                                               Uncommitted                           Precinct 23                                            01 
01050140006000007000001000002000003000001000000REP       President                                               Uncommitted                           Precinct 29                                            01 
01050140007000005000001000002000000000002000000REP       President                                               Uncommitted                           Precinct 30                                            01 
01050140008000003000000000001000001000001000000REP       President                                               Uncommitted                           Precinct 31                                            01 
01050140009000001000000000000000000000001000000REP       President                                               Uncommitted                           Precinct 32                                            01 
01050150001000001000001000000000000000000000000REP       President                                               OVER VOTES                            Precinct 1                                             01 
01050150002000000000000000000000000000000000000REP       President                                               OVER VOTES                            Precinct 8                                             01 
01050150003000000000000000000000000000000000000REP       President                                               OVER VOTES                            Precinct 16                                            01 
01050150004000000000000000000000000000000000000REP       President                                               OVER VOTES                            Precinct 19                                            01 
01050150005000001000001000000000000000000000000REP       President                                               OVER VOTES                            Precinct 23                                            01 
01050150006000000000000000000000000000000000000REP       President                                               OVER VOTES                            Precinct 29                                            01 
01050150007000000000000000000000000000000000000REP       President                                               OVER VOTES                            Precinct 30                                            01 
01050150008000000000000000000000000000000000000REP       President                                               OVER VOTES                            Precinct 31                                            01 
01050150009000000000000000000000000000000000000REP       President                                               OVER VOTES                            Precinct 32                                            01 
01050160001000003000001000002000000000000000000REP       President                                               UNDER VOTES                           Precinct 1                                             01 
01050160002000000000000000000000000000000000000REP       President                                               UNDER VOTES                           Precinct 8                                             01 
01050160003000000000000000000000000000000000000REP       President                                               UNDER VOTES                           Precinct 16                                            01 
01050160004000000000000000000000000000000000000REP       President                                               UNDER VOTES                           Precinct 19                                            01 
01050160005000000000000000000000000000000000000REP       President                                               UNDER VOTES                           Precinct 23                                            01 
01050160006000002000000000000000000000002000000REP       President                                               UNDER VOTES                           Precinct 29                                            01 
01050160007000000000000000000000000000000000000REP       President                                               UNDER VOTES                           Precinct 30                                            01 
01050160008000000000000000000000000000000000000REP       President                                               UNDER VOTES                           Precinct 31                                            01 
01050160009000000000000000000000000000000000000REP       President                                               UNDER VOTES                           Precinct 32                                            01 
01060010001000506000111000095000169000131000000REP       US Representative, District 27                          Gregg Deeb                            Precinct 1                                             01 
01060010002000124000012000014000049000049000000REP       US Representative, District 27                          Gregg Deeb                            Precinct 8                                             01 
01060010003000103000009000009000050000035000000REP       US Representative, District 27                          Gregg Deeb                            Precinct 16                                            01 
01060010004000114000024000029000029000032000000REP       US Representative, District 27                          Gregg Deeb                            Precinct 19                                            01 
01060010005000176000013000016000082000065000000REP       US Representative, District 27                          Gregg Deeb                            Precinct 23                                            01 
01060010006000313000021000029000157000106000000REP       US Representative, District 27                          Gregg Deeb                            Precinct 29                                            01 
01060010007000210000016000014000105000075000000REP       US Representative, District 27                          Gregg Deeb                            Precinct 30                                            01 
01060010008000233000056000057000047000073000000REP       US Representative, District 27                          Gregg Deeb                            Precinct 31                                            01 
01060010009000097000009000015000029000044000000REP       US Representative, District 27                          Gregg Deeb                            Precinct 32                                            01 
01060020001000340000065000050000135000090000000REP       US Representative, District 27                          Blake Farenthold                      Precinct 1                                             01 
01060020002000116000013000010000039000054000000REP       US Representative, District 27                          Blake Farenthold                      Precinct 8                                             01 
01060020003000123000015000016000048000044000000REP       US Representative, District 27                          Blake Farenthold                      Precinct 16                                            01 
01060020004000101000029000023000027000022000000REP       US Representative, District 27                          Blake Farenthold                      Precinct 19                                            01 
01060020005000183000011000015000119000038000000REP       US Representative, District 27                          Blake Farenthold                      Precinct 23                                            01 
01060020006000351000037000022000170000122000000REP       US Representative, District 27                          Blake Farenthold                      Precinct 29                                            01 
01060020007000276000026000010000143000097000000REP       US Representative, District 27                          Blake Farenthold                      Precinct 30                                            01 
01060020008000220000041000040000067000072000000REP       US Representative, District 27                          Blake Farenthold                      Precinct 31                                            01 
01060020009000087000011000008000026000042000000REP       US Representative, District 27                          Blake Farenthold                      Precinct 32                                            01 
01060030001000000000000000000000000000000000000REP       US Representative, District 27                          OVER VOTES                            Precinct 1                                             01 
01060030002000000000000000000000000000000000000REP       US Representative, District 27                          OVER VOTES                            Precinct 8                                             01 
01060030003000000000000000000000000000000000000REP       US Representative, District 27                          OVER VOTES                            Precinct 16                                            01 
01060030004000000000000000000000000000000000000REP       US Representative, District 27                          OVER VOTES                            Precinct 19                                            01 
01060030005000000000000000000000000000000000000REP       US Representative, District 27                          OVER VOTES                            Precinct 23                                            01 
01060030006000000000000000000000000000000000000REP       US Representative, District 27                          OVER VOTES                            Precinct 29                                            01 
01060030007000000000000000000000000000000000000REP       US Representative, District 27                          OVER VOTES                            Precinct 30                                            01 
01060030008000001000001000000000000000000000000REP       US Representative, District 27                          OVER VOTES                            Precinct 31                                            01 
01060030009000000000000000000000000000000000000REP       US Representative, District 27                          OVER VOTES                            Precinct 32                                            01 
01060040001000087000008000018000024000037000000REP       US Representative, District 27                          UNDER VOTES                           Precinct 1                                             01 
01060040002000038000001000005000009000023000000REP       US Representative, District 27                          UNDER VOTES                           Precinct 8                                             01 
01060040003000039000002000004000023000010000000REP       US Representative, District 27                          UNDER VOTES                           Precinct 16                                            01 
01060040004000029000006000008000007000008000000REP       US Representative, District 27                          UNDER VOTES                           Precinct 19                                            01 
01060040005000055000005000002000035000013000000REP       US Representative, District 27                          UNDER VOTES                           Precinct 23                                            01 
01060040006000088000004000007000044000033000000REP       US Representative, District 27                          UNDER VOTES                           Precinct 29                                            01 
01060040007000073000004000003000028000038000000REP       US Representative, District 27                          UNDER VOTES                           Precinct 30                                            01 
01060040008000051000007000008000012000024000000REP       US Representative, District 27                          UNDER VOTES                           Precinct 31                                            01 
01060040009000022000003000001000003000015000000REP       US Representative, District 27                          UNDER VOTES                           Precinct 32                                            01 
01070010001000133000025000021000039000048000000REP       Railroad Commissioner                                   Lance N. Christian                    Precinct 1                                             01 
01070010002000033000005000003000011000014000000REP       Railroad Commissioner                                   Lance N. Christian                    Precinct 8                                             01 
01070010003000025000000000003000015000007000000REP       Railroad Commissioner                                   Lance N. Christian                    Precinct 16                                            01 
01070010004000025000005000008000005000007000000REP       Railroad Commissioner                                   Lance N. Christian                    Precinct 19                                            01 
01070010005000035000004000005000016000010000000REP       Railroad Commissioner                                   Lance N. Christian                    Precinct 23                                            01 
01070010006000088000003000007000035000043000000REP       Railroad Commissioner                                   Lance N. Christian                    Precinct 29                                            01 
01070010007000059000001000002000036000020000000REP       Railroad Commissioner                                   Lance N. Christian                    Precinct 30                                            01 
01070010008000083000015000021000014000033000000REP       Railroad Commissioner                                   Lance N. Christian                    Precinct 31                                            01 
01070010009000023000000000002000006000015000000REP       Railroad Commissioner                                   Lance N. Christian                    Precinct 32                                            01 
01070020001000055000017000014000013000011000000REP       Railroad Commissioner                                   John Greytok                          Precinct 1                                             01 
01070020002000014000003000003000005000003000000REP       Railroad Commissioner                                   John Greytok                          Precinct 8                                             01 
01070020003000023000005000002000010000006000000REP       Railroad Commissioner                                   John Greytok                          Precinct 16                                            01 
01070020004000014000003000003000003000005000000REP       Railroad Commissioner                                   John Greytok                          Precinct 19                                            01 
01070020005000028000001000000000020000007000000REP       Railroad Commissioner                                   John Greytok                          Precinct 23                                            01 
01070020006000040000006000003000022000009000000REP       Railroad Commissioner                                   John Greytok                          Precinct 29                                            01 
01070020007000053000001000003000029000020000000REP       Railroad Commissioner                                   John Greytok                          Precinct 30                                            01 
01070020008000035000013000004000008000010000000REP       Railroad Commissioner                                   John Greytok                          Precinct 31                                            01 
01070020009000016000001000001000004000010000000REP       Railroad Commissioner                                   John Greytok                          Precinct 32                                            01 
01070030001000060000015000009000021000015000000REP       Railroad Commissioner                                   Doug Jeffrey                          Precinct 1                                             01 
01070030002000023000000000003000008000012000000REP       Railroad Commissioner                                   Doug Jeffrey                          Precinct 8                                             01 
01070030003000008000002000001000002000003000000REP       Railroad Commissioner                                   Doug Jeffrey                          Precinct 16                                            01 
01070030004000012000004000002000002000004000000REP       Railroad Commissioner                                   Doug Jeffrey                          Precinct 19                                            01 
01070030005000022000000000001000010000011000000REP       Railroad Commissioner                                   Doug Jeffrey                          Precinct 23                                            01 
01070030006000039000002000003000021000013000000REP       Railroad Commissioner                                   Doug Jeffrey                          Precinct 29                                            01 
01070030007000034000002000003000015000014000000REP       Railroad Commissioner                                   Doug Jeffrey                          Precinct 30                                            01 
01070030008000021000003000006000003000009000000REP       Railroad Commissioner                                   Doug Jeffrey                          Precinct 31                                            01 
01070030009000010000000000001000004000005000000REP       Railroad Commissioner                                   Doug Jeffrey                          Precinct 32                                            01 
01070040001000042000006000012000016000008000000REP       Railroad Commissioner                                   Weston Martinez                       Precinct 1                                             01 
01070040002000019000001000003000010000005000000REP       Railroad Commissioner                                   Weston Martinez                       Precinct 8                                             01 
01070040003000010000000000001000006000003000000REP       Railroad Commissioner                                   Weston Martinez                       Precinct 16                                            01 
01070040004000024000007000007000003000007000000REP       Railroad Commissioner                                   Weston Martinez                       Precinct 19                                            01 
01070040005000025000000000007000010000008000000REP       Railroad Commissioner                                   Weston Martinez                       Precinct 23                                            01 
01070040006000030000002000002000016000010000000REP       Railroad Commissioner                                   Weston Martinez                       Precinct 29                                            01 
01070040007000031000001000001000016000013000000REP       Railroad Commissioner                                   Weston Martinez                       Precinct 30                                            01 
01070040008000022000006000005000002000009000000REP       Railroad Commissioner                                   Weston Martinez                       Precinct 31                                            01 
01070040009000016000000000004000005000007000000REP       Railroad Commissioner                                   Weston Martinez                       Precinct 32                                            01 
01070050001000074000010000014000029000021000000REP       Railroad Commissioner                                   Wayne Christian                       Precinct 1                                             01 
01070050002000027000001000001000010000015000000REP       Railroad Commissioner                                   Wayne Christian                       Precinct 8                                             01 
01070050003000019000001000002000007000009000000REP       Railroad Commissioner                                   Wayne Christian                       Precinct 16                                            01 
01070050004000025000007000005000007000006000000REP       Railroad Commissioner                                   Wayne Christian                       Precinct 19                                            01 
01070050005000032000002000002000016000012000000REP       Railroad Commissioner                                   Wayne Christian                       Precinct 23                                            01 
01070050006000061000004000003000027000027000000REP       Railroad Commissioner                                   Wayne Christian                       Precinct 29                                            01 
01070050007000030000004000000000014000012000000REP       Railroad Commissioner                                   Wayne Christian                       Precinct 30                                            01 
01070050008000038000004000007000015000012000000REP       Railroad Commissioner                                   Wayne Christian                       Precinct 31                                            01 
01070050009000023000007000003000006000007000000REP       Railroad Commissioner                                   Wayne Christian                       Precinct 32                                            01 
01070060001000073000013000015000030000015000000REP       Railroad Commissioner                                   Ron Hale                              Precinct 1                                             01 
01070060002000021000001000002000007000011000000REP       Railroad Commissioner                                   Ron Hale                              Precinct 8                                             01 
01070060003000016000001000001000009000005000000REP       Railroad Commissioner                                   Ron Hale                              Precinct 16                                            01 
01070060004000028000005000010000008000005000000REP       Railroad Commissioner                                   Ron Hale                              Precinct 19                                            01 
01070060005000030000005000002000015000008000000REP       Railroad Commissioner                                   Ron Hale                              Precinct 23                                            01 
01070060006000058000004000006000029000019000000REP       Railroad Commissioner                                   Ron Hale                              Precinct 29                                            01 
01070060007000044000003000003000021000017000000REP       Railroad Commissioner                                   Ron Hale                              Precinct 30                                            01 
01070060008000033000009000004000015000005000000REP       Railroad Commissioner                                   Ron Hale                              Precinct 31                                            01 
01070060009000009000000000000000002000007000000REP       Railroad Commissioner                                   Ron Hale                              Precinct 32                                            01 
01070070001000252000058000039000096000059000000REP       Railroad Commissioner                                   Gary Gates                            Precinct 1                                             01 
01070070002000085000012000005000032000036000000REP       Railroad Commissioner                                   Gary Gates                            Precinct 8                                             01 
01070070003000098000013000013000038000034000000REP       Railroad Commissioner                                   Gary Gates                            Precinct 16                                            01 
01070070004000080000020000015000028000017000000REP       Railroad Commissioner                                   Gary Gates                            Precinct 19                                            01 
01070070005000129000011000011000074000033000000REP       Railroad Commissioner                                   Gary Gates                            Precinct 23                                            01 
01070070006000242000027000019000129000067000000REP       Railroad Commissioner                                   Gary Gates                            Precinct 29                                            01 
01070070007000186000022000009000094000061000000REP       Railroad Commissioner                                   Gary Gates                            Precinct 30                                            01 
01070070008000153000037000033000043000040000000REP       Railroad Commissioner                                   Gary Gates                            Precinct 31                                            01 
01070070009000066000011000008000020000027000000REP       Railroad Commissioner                                   Gary Gates                            Precinct 32                                            01 
01070080001000000000000000000000000000000000000REP       Railroad Commissioner                                   OVER VOTES                            Precinct 1                                             01 
01070080002000000000000000000000000000000000000REP       Railroad Commissioner                                   OVER VOTES                            Precinct 8                                             01 
01070080003000000000000000000000000000000000000REP       Railroad Commissioner                                   OVER VOTES                            Precinct 16                                            01 
01070080004000000000000000000000000000000000000REP       Railroad Commissioner                                   OVER VOTES                            Precinct 19                                            01 
01070080005000001000000000000000001000000000000REP       Railroad Commissioner                                   OVER VOTES                            Precinct 23                                            01 
01070080006000000000000000000000000000000000000REP       Railroad Commissioner                                   OVER VOTES                            Precinct 29                                            01 
01070080007000000000000000000000000000000000000REP       Railroad Commissioner                                   OVER VOTES                            Precinct 30                                            01 
01070080008000000000000000000000000000000000000REP       Railroad Commissioner                                   OVER VOTES                            Precinct 31                                            01 
01070080009000000000000000000000000000000000000REP       Railroad Commissioner                                   OVER VOTES                            Precinct 32                                            01 
01070090001000244000040000039000084000081000000REP       Railroad Commissioner                                   UNDER VOTES                           Precinct 1                                             01 
01070090002000056000003000009000014000030000000REP       Railroad Commissioner                                   UNDER VOTES                           Precinct 8                                             01 
01070090003000066000004000006000034000022000000REP       Railroad Commissioner                                   UNDER VOTES                           Precinct 16                                            01 
01070090004000036000008000010000007000011000000REP       Railroad Commissioner                                   UNDER VOTES                           Precinct 19                                            01 
01070090005000112000006000005000074000027000000REP       Railroad Commissioner                                   UNDER VOTES                           Precinct 23                                            01 
01070090006000194000014000015000092000073000000REP       Railroad Commissioner                                   UNDER VOTES                           Precinct 29                                            01 
01070090007000122000012000006000051000053000000REP       Railroad Commissioner                                   UNDER VOTES                           Precinct 30                                            01 
01070090008000120000018000025000026000051000000REP       Railroad Commissioner                                   UNDER VOTES                           Precinct 31                                            01 
01070090009000043000004000005000011000023000000REP       Railroad Commissioner                                   UNDER VOTES                           Precinct 32                                            01 
01080010001000352000076000064000104000108000000REP       Justice, Supreme Court, Place 3                         Michael Massengale                    Precinct 1                                             01 
01080010002000112000009000011000040000052000000REP       Justice, Supreme Court, Place 3                         Michael Massengale                    Precinct 8                                             01 
01080010003000096000010000012000039000035000000REP       Justice, Supreme Court, Place 3                         Michael Massengale                    Precinct 16                                            01 
01080010004000099000025000026000017000031000000REP       Justice, Supreme Court, Place 3                         Michael Massengale                    Precinct 19                                            01 
01080010005000150000009000013000081000047000000REP       Justice, Supreme Court, Place 3                         Michael Massengale                    Precinct 23                                            01 
01080010006000251000029000024000117000081000000REP       Justice, Supreme Court, Place 3                         Michael Massengale                    Precinct 29                                            01 
01080010007000193000013000011000093000076000000REP       Justice, Supreme Court, Place 3                         Michael Massengale                    Precinct 30                                            01 
01080010008000203000038000050000049000066000000REP       Justice, Supreme Court, Place 3                         Michael Massengale                    Precinct 31                                            01 
01080010009000068000008000008000017000035000000REP       Justice, Supreme Court, Place 3                         Michael Massengale                    Precinct 32                                            01 
01080020001000345000075000063000131000076000000REP       Justice, Supreme Court, Place 3                         Debra Lehrmann                        Precinct 1                                             01 
01080020002000108000014000009000041000044000000REP       Justice, Supreme Court, Place 3                         Debra Lehrmann                        Precinct 8                                             01 
01080020003000101000012000010000047000032000000REP       Justice, Supreme Court, Place 3                         Debra Lehrmann                        Precinct 16                                            01 
01080020004000103000024000024000034000021000000REP       Justice, Supreme Court, Place 3                         Debra Lehrmann                        Precinct 19                                            01 
01080020005000153000010000017000087000039000000REP       Justice, Supreme Court, Place 3                         Debra Lehrmann                        Precinct 23                                            01 
01080020006000309000025000021000154000109000000REP       Justice, Supreme Court, Place 3                         Debra Lehrmann                        Precinct 29                                            01 
01080020007000231000021000009000121000080000000REP       Justice, Supreme Court, Place 3                         Debra Lehrmann                        Precinct 30                                            01 
01080020008000171000041000032000045000053000000REP       Justice, Supreme Court, Place 3                         Debra Lehrmann                        Precinct 31                                            01 
01080020009000093000006000011000029000047000000REP       Justice, Supreme Court, Place 3                         Debra Lehrmann                        Precinct 32                                            01 
01080030001000000000000000000000000000000000000REP       Justice, Supreme Court, Place 3                         OVER VOTES                            Precinct 1                                             01 
01080030002000000000000000000000000000000000000REP       Justice, Supreme Court, Place 3                         OVER VOTES                            Precinct 8                                             01 
01080030003000000000000000000000000000000000000REP       Justice, Supreme Court, Place 3                         OVER VOTES                            Precinct 16                                            01 
01080030004000000000000000000000000000000000000REP       Justice, Supreme Court, Place 3                         OVER VOTES                            Precinct 19                                            01 
01080030005000000000000000000000000000000000000REP       Justice, Supreme Court, Place 3                         OVER VOTES                            Precinct 23                                            01 
01080030006000000000000000000000000000000000000REP       Justice, Supreme Court, Place 3                         OVER VOTES                            Precinct 29                                            01 
01080030007000000000000000000000000000000000000REP       Justice, Supreme Court, Place 3                         OVER VOTES                            Precinct 30                                            01 
01080030008000000000000000000000000000000000000REP       Justice, Supreme Court, Place 3                         OVER VOTES                            Precinct 31                                            01 
01080030009000000000000000000000000000000000000REP       Justice, Supreme Court, Place 3                         OVER VOTES                            Precinct 32                                            01 
01080040001000236000033000036000093000074000000REP       Justice, Supreme Court, Place 3                         UNDER VOTES                           Precinct 1                                             01 
01080040002000058000003000009000016000030000000REP       Justice, Supreme Court, Place 3                         UNDER VOTES                           Precinct 8                                             01 
01080040003000068000004000007000035000022000000REP       Justice, Supreme Court, Place 3                         UNDER VOTES                           Precinct 16                                            01 
01080040004000042000010000010000012000010000000REP       Justice, Supreme Court, Place 3                         UNDER VOTES                           Precinct 19                                            01 
01080040005000111000010000003000068000030000000REP       Justice, Supreme Court, Place 3                         UNDER VOTES                           Precinct 23                                            01 
01080040006000192000008000013000100000071000000REP       Justice, Supreme Court, Place 3                         UNDER VOTES                           Precinct 29                                            01 
01080040007000135000012000007000062000054000000REP       Justice, Supreme Court, Place 3                         UNDER VOTES                           Precinct 30                                            01 
01080040008000131000026000023000032000050000000REP       Justice, Supreme Court, Place 3                         UNDER VOTES                           Precinct 31                                            01 
01080040009000045000009000005000012000019000000REP       Justice, Supreme Court, Place 3                         UNDER VOTES                           Precinct 32                                            01 
01090010001000408000083000074000143000108000000REP       Justice, Supreme Court, Place 5                         Rick Green                            Precinct 1                                             01 
01090010002000114000013000014000040000047000000REP       Justice, Supreme Court, Place 5                         Rick Green                            Precinct 8                                             01 
01090010003000096000008000012000046000030000000REP       Justice, Supreme Court, Place 5                         Rick Green                            Precinct 16                                            01 
01090010004000123000029000030000028000036000000REP       Justice, Supreme Court, Place 5                         Rick Green                            Precinct 19                                            01 
01090010005000162000011000018000085000048000000REP       Justice, Supreme Court, Place 5                         Rick Green                            Precinct 23                                            01 
01090010006000323000021000030000157000115000000REP       Justice, Supreme Court, Place 5                         Rick Green                            Precinct 29                                            01 
01090010007000237000018000009000118000092000000REP       Justice, Supreme Court, Place 5                         Rick Green                            Precinct 30                                            01 
01090010008000214000041000051000048000074000000REP       Justice, Supreme Court, Place 5                         Rick Green                            Precinct 31                                            01 
01090010009000089000007000009000021000052000000REP       Justice, Supreme Court, Place 5                         Rick Green                            Precinct 32                                            01 
01090020001000251000062000044000080000065000000REP       Justice, Supreme Court, Place 5                         Paul Green                            Precinct 1                                             01 
01090020002000095000011000006000034000044000000REP       Justice, Supreme Court, Place 5                         Paul Green                            Precinct 8                                             01 
01090020003000085000012000008000029000036000000REP       Justice, Supreme Court, Place 5                         Paul Green                            Precinct 16                                            01 
01090020004000073000021000017000021000014000000REP       Justice, Supreme Court, Place 5                         Paul Green                            Precinct 19                                            01 
01090020005000128000009000012000073000034000000REP       Justice, Supreme Court, Place 5                         Paul Green                            Precinct 23                                            01 
01090020006000216000029000016000100000071000000REP       Justice, Supreme Court, Place 5                         Paul Green                            Precinct 29                                            01 
01090020007000178000016000015000083000064000000REP       Justice, Supreme Court, Place 5                         Paul Green                            Precinct 30                                            01 
01090020008000153000031000032000046000044000000REP       Justice, Supreme Court, Place 5                         Paul Green                            Precinct 31                                            01 
01090020009000064000003000008000025000028000000REP       Justice, Supreme Court, Place 5                         Paul Green                            Precinct 32                                            01 
01090030001000000000000000000000000000000000000REP       Justice, Supreme Court, Place 5                         OVER VOTES                            Precinct 1                                             01 
01090030002000000000000000000000000000000000000REP       Justice, Supreme Court, Place 5                         OVER VOTES                            Precinct 8                                             01 
01090030003000000000000000000000000000000000000REP       Justice, Supreme Court, Place 5                         OVER VOTES                            Precinct 16                                            01 
01090030004000000000000000000000000000000000000REP       Justice, Supreme Court, Place 5                         OVER VOTES                            Precinct 19                                            01 
01090030005000000000000000000000000000000000000REP       Justice, Supreme Court, Place 5                         OVER VOTES                            Precinct 23                                            01 
01090030006000000000000000000000000000000000000REP       Justice, Supreme Court, Place 5                         OVER VOTES                            Precinct 29                                            01 
01090030007000000000000000000000000000000000000REP       Justice, Supreme Court, Place 5                         OVER VOTES                            Precinct 30                                            01 
01090030008000000000000000000000000000000000000REP       Justice, Supreme Court, Place 5                         OVER VOTES                            Precinct 31                                            01 
01090030009000000000000000000000000000000000000REP       Justice, Supreme Court, Place 5                         OVER VOTES                            Precinct 32                                            01 
01090040001000274000039000045000105000085000000REP       Justice, Supreme Court, Place 5                         UNDER VOTES                           Precinct 1                                             01 
01090040002000069000002000009000023000035000000REP       Justice, Supreme Court, Place 5                         UNDER VOTES                           Precinct 8                                             01 
01090040003000084000006000009000046000023000000REP       Justice, Supreme Court, Place 5                         UNDER VOTES                           Precinct 16                                            01 
01090040004000048000009000013000014000012000000REP       Justice, Supreme Court, Place 5                         UNDER VOTES                           Precinct 19                                            01 
01090040005000124000009000003000078000034000000REP       Justice, Supreme Court, Place 5                         UNDER VOTES                           Precinct 23                                            01 
01090040006000213000012000012000114000075000000REP       Justice, Supreme Court, Place 5                         UNDER VOTES                           Precinct 29                                            01 
01090040007000144000012000003000075000054000000REP       Justice, Supreme Court, Place 5                         UNDER VOTES                           Precinct 30                                            01 
01090040008000138000033000022000032000051000000REP       Justice, Supreme Court, Place 5                         UNDER VOTES                           Precinct 31                                            01 
01090040009000053000013000007000012000021000000REP       Justice, Supreme Court, Place 5                         UNDER VOTES                           Precinct 32                                            01 
01100010001000340000074000058000120000088000000REP       Justice, Supreme Court, Place 9                         Joe Pool                              Precinct 1                                             01 
01100010002000109000012000010000041000046000000REP       Justice, Supreme Court, Place 9                         Joe Pool                              Precinct 8                                             01 
01100010003000118000012000016000052000038000000REP       Justice, Supreme Court, Place 9                         Joe Pool                              Precinct 16                                            01 
01100010004000104000024000022000029000029000000REP       Justice, Supreme Court, Place 9                         Joe Pool                              Precinct 19                                            01 
01100010005000151000013000014000082000042000000REP       Justice, Supreme Court, Place 9                         Joe Pool                              Precinct 23                                            01 
01100010006000289000024000022000139000104000000REP       Justice, Supreme Court, Place 9                         Joe Pool                              Precinct 29                                            01 
01100010007000244000020000010000128000086000000REP       Justice, Supreme Court, Place 9                         Joe Pool                              Precinct 30                                            01 
01100010008000182000035000036000049000062000000REP       Justice, Supreme Court, Place 9                         Joe Pool                              Precinct 31                                            01 
01100010009000076000005000007000020000044000000REP       Justice, Supreme Court, Place 9                         Joe Pool                              Precinct 32                                            01 
01100020001000330000070000061000111000088000000REP       Justice, Supreme Court, Place 9                         Eva Guzman                            Precinct 1                                             01 
01100020002000106000013000010000038000045000000REP       Justice, Supreme Court, Place 9                         Eva Guzman                            Precinct 8                                             01 
01100020003000073000010000006000030000027000000REP       Justice, Supreme Court, Place 9                         Eva Guzman                            Precinct 16                                            01 
01100020004000098000026000027000023000022000000REP       Justice, Supreme Court, Place 9                         Eva Guzman                            Precinct 19                                            01 
01100020005000139000006000016000072000045000000REP       Justice, Supreme Court, Place 9                         Eva Guzman                            Precinct 23                                            01 
01100020006000268000027000022000134000085000000REP       Justice, Supreme Court, Place 9                         Eva Guzman                            Precinct 29                                            01 
01100020007000186000014000013000088000071000000REP       Justice, Supreme Court, Place 9                         Eva Guzman                            Precinct 30                                            01 
01100020008000184000043000044000041000056000000REP       Justice, Supreme Court, Place 9                         Eva Guzman                            Precinct 31                                            01 
01100020009000081000009000012000026000034000000REP       Justice, Supreme Court, Place 9                         Eva Guzman                            Precinct 32                                            01 
01100030001000000000000000000000000000000000000REP       Justice, Supreme Court, Place 9                         OVER VOTES                            Precinct 1                                             01 
01100030002000000000000000000000000000000000000REP       Justice, Supreme Court, Place 9                         OVER VOTES                            Precinct 8                                             01 
01100030003000000000000000000000000000000000000REP       Justice, Supreme Court, Place 9                         OVER VOTES                            Precinct 16                                            01 
01100030004000000000000000000000000000000000000REP       Justice, Supreme Court, Place 9                         OVER VOTES                            Precinct 19                                            01 
01100030005000000000000000000000000000000000000REP       Justice, Supreme Court, Place 9                         OVER VOTES                            Precinct 23                                            01 
01100030006000000000000000000000000000000000000REP       Justice, Supreme Court, Place 9                         OVER VOTES                            Precinct 29                                            01 
01100030007000000000000000000000000000000000000REP       Justice, Supreme Court, Place 9                         OVER VOTES                            Precinct 30                                            01 
01100030008000000000000000000000000000000000000REP       Justice, Supreme Court, Place 9                         OVER VOTES                            Precinct 31                                            01 
01100030009000000000000000000000000000000000000REP       Justice, Supreme Court, Place 9                         OVER VOTES                            Precinct 32                                            01 
01100040001000263000040000044000097000082000000REP       Justice, Supreme Court, Place 9                         UNDER VOTES                           Precinct 1                                             01 
01100040002000063000001000009000018000035000000REP       Justice, Supreme Court, Place 9                         UNDER VOTES                           Precinct 8                                             01 
01100040003000074000004000007000039000024000000REP       Justice, Supreme Court, Place 9                         UNDER VOTES                           Precinct 16                                            01 
01100040004000042000009000011000011000011000000REP       Justice, Supreme Court, Place 9                         UNDER VOTES                           Precinct 19                                            01 
01100040005000124000010000003000082000029000000REP       Justice, Supreme Court, Place 9                         UNDER VOTES                           Precinct 23                                            01 
01100040006000195000011000014000098000072000000REP       Justice, Supreme Court, Place 9                         UNDER VOTES                           Precinct 29                                            01 
01100040007000129000012000004000060000053000000REP       Justice, Supreme Court, Place 9                         UNDER VOTES                           Precinct 30                                            01 
01100040008000139000027000025000036000051000000REP       Justice, Supreme Court, Place 9                         UNDER VOTES                           Precinct 31                                            01 
01100040009000049000009000005000012000023000000REP       Justice, Supreme Court, Place 9                         UNDER VOTES                           Precinct 32                                            01 
01110010001000238000047000047000082000062000000REP       Judge, Ct of Criminal Appeals, P2                       Chris Oldner                          Precinct 1                                             01 
01110010002000079000005000010000030000034000000REP       Judge, Ct of Criminal Appeals, P2                       Chris Oldner                          Precinct 8                                             01 
01110010003000061000005000007000028000021000000REP       Judge, Ct of Criminal Appeals, P2                       Chris Oldner                          Precinct 16                                            01 
01110010004000072000015000016000017000024000000REP       Judge, Ct of Criminal Appeals, P2                       Chris Oldner                          Precinct 19                                            01 
01110010005000104000008000009000055000032000000REP       Judge, Ct of Criminal Appeals, P2                       Chris Oldner                          Precinct 23                                            01 
01110010006000178000011000019000084000064000000REP       Judge, Ct of Criminal Appeals, P2                       Chris Oldner                          Precinct 29                                            01 
01110010007000147000011000008000073000055000000REP       Judge, Ct of Criminal Appeals, P2                       Chris Oldner                          Precinct 30                                            01 
01110010008000135000025000026000037000047000000REP       Judge, Ct of Criminal Appeals, P2                       Chris Oldner                          Precinct 31                                            01 
01110010009000050000004000004000016000026000000REP       Judge, Ct of Criminal Appeals, P2                       Chris Oldner                          Precinct 32                                            01 
01110020001000287000067000056000095000069000000REP       Judge, Ct of Criminal Appeals, P2                       Mary Lou Keel                         Precinct 1                                             01 
01110020002000086000015000008000031000032000000REP       Judge, Ct of Criminal Appeals, P2                       Mary Lou Keel                         Precinct 8                                             01 
01110020003000086000011000009000037000029000000REP       Judge, Ct of Criminal Appeals, P2                       Mary Lou Keel                         Precinct 16                                            01 
01110020004000077000017000021000021000018000000REP       Judge, Ct of Criminal Appeals, P2                       Mary Lou Keel                         Precinct 19                                            01 
01110020005000109000008000013000062000026000000REP       Judge, Ct of Criminal Appeals, P2                       Mary Lou Keel                         Precinct 23                                            01 
01110020006000234000021000017000114000082000000REP       Judge, Ct of Criminal Appeals, P2                       Mary Lou Keel                         Precinct 29                                            01 
01110020007000189000017000011000091000070000000REP       Judge, Ct of Criminal Appeals, P2                       Mary Lou Keel                         Precinct 30                                            01 
01110020008000144000033000040000027000044000000REP       Judge, Ct of Criminal Appeals, P2                       Mary Lou Keel                         Precinct 31                                            01 
01110020009000069000000000011000023000035000000REP       Judge, Ct of Criminal Appeals, P2                       Mary Lou Keel                         Precinct 32                                            01 
01110030001000116000022000015000044000035000000REP       Judge, Ct of Criminal Appeals, P2                       Ray Wheless                           Precinct 1                                             01 
01110030002000036000003000001000012000020000000REP       Judge, Ct of Criminal Appeals, P2                       Ray Wheless                           Precinct 8                                             01 
01110030003000031000004000002000014000011000000REP       Judge, Ct of Criminal Appeals, P2                       Ray Wheless                           Precinct 16                                            01 
01110030004000038000011000009000012000006000000REP       Judge, Ct of Criminal Appeals, P2                       Ray Wheless                           Precinct 19                                            01 
01110030005000058000003000008000029000018000000REP       Judge, Ct of Criminal Appeals, P2                       Ray Wheless                           Precinct 23                                            01 
01110030006000105000013000005000050000037000000REP       Judge, Ct of Criminal Appeals, P2                       Ray Wheless                           Precinct 29                                            01 
01110030007000067000007000002000035000023000000REP       Judge, Ct of Criminal Appeals, P2                       Ray Wheless                           Precinct 30                                            01 
01110030008000078000014000012000026000026000000REP       Judge, Ct of Criminal Appeals, P2                       Ray Wheless                           Precinct 31                                            01 
01110030009000031000008000002000007000014000000REP       Judge, Ct of Criminal Appeals, P2                       Ray Wheless                           Precinct 32                                            01 
01110040001000000000000000000000000000000000000REP       Judge, Ct of Criminal Appeals, P2                       OVER VOTES                            Precinct 1                                             01 
01110040002000000000000000000000000000000000000REP       Judge, Ct of Criminal Appeals, P2                       OVER VOTES                            Precinct 8                                             01 
01110040003000000000000000000000000000000000000REP       Judge, Ct of Criminal Appeals, P2                       OVER VOTES                            Precinct 16                                            01 
01110040004000000000000000000000000000000000000REP       Judge, Ct of Criminal Appeals, P2                       OVER VOTES                            Precinct 19                                            01 
01110040005000000000000000000000000000000000000REP       Judge, Ct of Criminal Appeals, P2                       OVER VOTES                            Precinct 23                                            01 
01110040006000000000000000000000000000000000000REP       Judge, Ct of Criminal Appeals, P2                       OVER VOTES                            Precinct 29                                            01 
01110040007000000000000000000000000000000000000REP       Judge, Ct of Criminal Appeals, P2                       OVER VOTES                            Precinct 30                                            01 
01110040008000000000000000000000000000000000000REP       Judge, Ct of Criminal Appeals, P2                       OVER VOTES                            Precinct 31                                            01 
01110040009000000000000000000000000000000000000REP       Judge, Ct of Criminal Appeals, P2                       OVER VOTES                            Precinct 32                                            01 
01110050001000292000048000045000107000092000000REP       Judge, Ct of Criminal Appeals, P2                       UNDER VOTES                           Precinct 1                                             01 
01110050002000077000003000010000024000040000000REP       Judge, Ct of Criminal Appeals, P2                       UNDER VOTES                           Precinct 8                                             01 
01110050003000087000006000011000042000028000000REP       Judge, Ct of Criminal Appeals, P2                       UNDER VOTES                           Precinct 16                                            01 
01110050004000057000016000014000013000014000000REP       Judge, Ct of Criminal Appeals, P2                       UNDER VOTES                           Precinct 19                                            01 
01110050005000143000010000003000090000040000000REP       Judge, Ct of Criminal Appeals, P2                       UNDER VOTES                           Precinct 23                                            01 
01110050006000235000017000017000123000078000000REP       Judge, Ct of Criminal Appeals, P2                       UNDER VOTES                           Precinct 29                                            01 
01110050007000156000011000006000077000062000000REP       Judge, Ct of Criminal Appeals, P2                       UNDER VOTES                           Precinct 30                                            01 
01110050008000148000033000027000036000052000000REP       Judge, Ct of Criminal Appeals, P2                       UNDER VOTES                           Precinct 31                                            01 
01110050009000056000011000007000012000026000000REP       Judge, Ct of Criminal Appeals, P2                       UNDER VOTES                           Precinct 32                                            01 
01120010001000074000016000019000020000019000000REP       Judge, Ct of Criminal Appeals, P5                       Sid Harle                             Precinct 1                                             01 
01120010002000033000005000006000012000010000000REP       Judge, Ct of Criminal Appeals, P5                       Sid Harle                             Precinct 8                                             01 
01120010003000031000006000001000014000010000000REP       Judge, Ct of Criminal Appeals, P5                       Sid Harle                             Precinct 16                                            01 
01120010004000029000004000010000008000007000000REP       Judge, Ct of Criminal Appeals, P5                       Sid Harle                             Precinct 19                                            01 
01120010005000042000003000008000017000014000000REP       Judge, Ct of Criminal Appeals, P5                       Sid Harle                             Precinct 23                                            01 
01120010006000080000005000009000038000028000000REP       Judge, Ct of Criminal Appeals, P5                       Sid Harle                             Precinct 29                                            01 
01120010007000066000005000001000033000027000000REP       Judge, Ct of Criminal Appeals, P5                       Sid Harle                             Precinct 30                                            01 
01120010008000062000022000016000010000014000000REP       Judge, Ct of Criminal Appeals, P5                       Sid Harle                             Precinct 31                                            01 
01120010009000022000003000005000007000007000000REP       Judge, Ct of Criminal Appeals, P5                       Sid Harle                             Precinct 32                                            01 
01120020001000158000026000023000068000041000000REP       Judge, Ct of Criminal Appeals, P5                       Brent Webster                         Precinct 1                                             01 
01120020002000045000003000002000018000022000000REP       Judge, Ct of Criminal Appeals, P5                       Brent Webster                         Precinct 8                                             01 
01120020003000041000005000003000019000014000000REP       Judge, Ct of Criminal Appeals, P5                       Brent Webster                         Precinct 16                                            01 
01120020004000033000009000009000008000007000000REP       Judge, Ct of Criminal Appeals, P5                       Brent Webster                         Precinct 19                                            01 
01120020005000051000002000005000026000018000000REP       Judge, Ct of Criminal Appeals, P5                       Brent Webster                         Precinct 23                                            01 
01120020006000096000009000008000042000037000000REP       Judge, Ct of Criminal Appeals, P5                       Brent Webster                         Precinct 29                                            01 
01120020007000064000006000003000031000024000000REP       Judge, Ct of Criminal Appeals, P5                       Brent Webster                         Precinct 30                                            01 
01120020008000077000013000020000017000027000000REP       Judge, Ct of Criminal Appeals, P5                       Brent Webster                         Precinct 31                                            01 
01120020009000029000004000000000007000018000000REP       Judge, Ct of Criminal Appeals, P5                       Brent Webster                         Precinct 32                                            01 
01120030001000147000044000021000050000032000000REP       Judge, Ct of Criminal Appeals, P5                       Steve Smith                           Precinct 1                                             01 
01120030002000039000003000006000014000016000000REP       Judge, Ct of Criminal Appeals, P5                       Steve Smith                           Precinct 8                                             01 
01120030003000030000002000005000012000011000000REP       Judge, Ct of Criminal Appeals, P5                       Steve Smith                           Precinct 16                                            01 
01120030004000038000010000007000013000008000000REP       Judge, Ct of Criminal Appeals, P5                       Steve Smith                           Precinct 19                                            01 
01120030005000054000004000003000035000012000000REP       Judge, Ct of Criminal Appeals, P5                       Steve Smith                           Precinct 23                                            01 
