01010010001001508000000000000000000000000000000          REGISTERED VOTERS - TOTAL                               REGISTERED VOTERS - TOTAL             Precinct 1                                             00 
01010010002000180000000000000000000000000000000          REGISTERED VOTERS - TOTAL                               REGISTERED VOTERS - TOTAL             Precinct 1A                                            00 
01010010003000330000000000000000000000000000000          REGISTERED VOTERS - TOTAL                               REGISTERED VOTERS - TOTAL             Precinct 2                                             00 
01010010004000558000000000000000000000000000000          REGISTERED VOTERS - TOTAL                               REGISTERED VOTERS - TOTAL             Precinct 3                                             00 
01010010005000855000000000000000000000000000000          REGISTERED VOTERS - TOTAL                               REGISTERED VOTERS - TOTAL             Precinct 4                                             00 
01010010006000480000000000000000000000000000000          REGISTERED VOTERS - TOTAL                               REGISTERED VOTERS - TOTAL             Precinct 5                                             00 
01010010007000063000000000000000000000000000000          REGISTERED VOTERS - TOTAL                               REGISTERED VOTERS - TOTAL             Precinct 5A                                            00 
01010010008000999000000000000000000000000000000          REGISTERED VOTERS - TOTAL                               REGISTERED VOTERS - TOTAL             Precinct 6                                             00 
01010010009000611000000000000000000000000000000          REGISTERED VOTERS - TOTAL                               REGISTERED VOTERS - TOTAL             Precinct 7                                             00 
01010010010001021000000000000000000000000000000          REGISTERED VOTERS - TOTAL                               REGISTERED VOTERS - TOTAL             Precinct 8                                             00 
01010010011000336000000000000000000000000000000          REGISTERED VOTERS - TOTAL                               REGISTERED VOTERS - TOTAL             Precinct 9                                             00 
01010010012000974000000000000000000000000000000          REGISTERED VOTERS - TOTAL                               REGISTERED VOTERS - TOTAL             Precinct 10                                            00 
01010010013001008000000000000000000000000000000          REGISTERED VOTERS - TOTAL                               REGISTERED VOTERS - TOTAL             Precinct 11                                            00 
01010010014000843000000000000000000000000000000          REGISTERED VOTERS - TOTAL                               REGISTERED VOTERS - TOTAL             Precinct 12                                            00 
01010010015000645000000000000000000000000000000          REGISTERED VOTERS - TOTAL                               REGISTERED VOTERS - TOTAL             Precinct 13                                            00 
01010010016000219000000000000000000000000000000          REGISTERED VOTERS - TOTAL                               REGISTERED VOTERS - TOTAL             Precinct 14                                            00 
01010010017000200000000000000000000000000000000          REGISTERED VOTERS - TOTAL                               REGISTERED VOTERS - TOTAL             Precinct 14A                                           00 
01020010001000540000251000263000026000000000000          BALLOTS CAST - TOTAL                                    BALLOTS CAST - TOTAL                  Precinct 1                                             00 
01020010002000083000042000040000001000000000000          BALLOTS CAST - TOTAL                                    BALLOTS CAST - TOTAL                  Precinct 1A                                            00 
01020010003000156000041000108000007000000000000          BALLOTS CAST - TOTAL                                    BALLOTS CAST - TOTAL                  Precinct 2                                             00 
01020010004000228000071000142000015000000000000          BALLOTS CAST - TOTAL                                    BALLOTS CAST - TOTAL                  Precinct 3                                             00 
01020010005000298000013000272000012000001000000          BALLOTS CAST - TOTAL                                    BALLOTS CAST - TOTAL                  Precinct 4                                             00 
01020010006000220000057000154000009000000000000          BALLOTS CAST - TOTAL                                    BALLOTS CAST - TOTAL                  Precinct 5                                             00 
01020010007000016000007000009000000000000000000          BALLOTS CAST - TOTAL                                    BALLOTS CAST - TOTAL                  Precinct 5A                                            00 
01020010008000499000039000440000020000000000000          BALLOTS CAST - TOTAL                                    BALLOTS CAST - TOTAL                  Precinct 6                                             00 
01020010009000220000023000188000009000000000000          BALLOTS CAST - TOTAL                                    BALLOTS CAST - TOTAL                  Precinct 7                                             00 
01020010010000372000050000310000012000000000000          BALLOTS CAST - TOTAL                                    BALLOTS CAST - TOTAL                  Precinct 8                                             00 
01020010011000127000035000087000005000000000000          BALLOTS CAST - TOTAL                                    BALLOTS CAST - TOTAL                  Precinct 9                                             00 
01020010012000397000095000292000010000000000000          BALLOTS CAST - TOTAL                                    BALLOTS CAST - TOTAL                  Precinct 10                                            00 
01020010013000310000064000238000008000000000000          BALLOTS CAST - TOTAL                                    BALLOTS CAST - TOTAL                  Precinct 11                                            00 
01020010014000293000022000259000012000000000000          BALLOTS CAST - TOTAL                                    BALLOTS CAST - TOTAL                  Precinct 12                                            00 
01020010015000313000105000194000014000000000000          BALLOTS CAST - TOTAL                                    BALLOTS CAST - TOTAL                  Precinct 13                                            00 
01020010016000078000038000040000000000000000000          BALLOTS CAST - TOTAL                                    BALLOTS CAST - TOTAL                  Precinct 14                                            00 
01020010017000090000022000062000006000000000000          BALLOTS CAST - TOTAL                                    BALLOTS CAST - TOTAL                  Precinct 14A                                           00 
01030010001000484000231000228000025000000000000REP       BALLOTS CAST - REPUBLICAN PARTY                         BALLOTS CAST - REPUBLICAN PARTY       Precinct 1                                             00 
01030010002000074000037000036000001000000000000REP       BALLOTS CAST - REPUBLICAN PARTY                         BALLOTS CAST - REPUBLICAN PARTY       Precinct 1A                                            00 
01030010003000145000039000099000007000000000000REP       BALLOTS CAST - REPUBLICAN PARTY                         BALLOTS CAST - REPUBLICAN PARTY       Precinct 2                                             00 
01030010004000208000066000128000014000000000000REP       BALLOTS CAST - REPUBLICAN PARTY                         BALLOTS CAST - REPUBLICAN PARTY       Precinct 3                                             00 
01030010005000262000013000237000011000001000000REP       BALLOTS CAST - REPUBLICAN PARTY                         BALLOTS CAST - REPUBLICAN PARTY       Precinct 4                                             00 
01030010006000195000051000135000009000000000000REP       BALLOTS CAST - REPUBLICAN PARTY                         BALLOTS CAST - REPUBLICAN PARTY       Precinct 5                                             00 
01030010007000016000007000009000000000000000000REP       BALLOTS CAST - REPUBLICAN PARTY                         BALLOTS CAST - REPUBLICAN PARTY       Precinct 5A                                            00 
01030010008000468000039000409000020000000000000REP       BALLOTS CAST - REPUBLICAN PARTY                         BALLOTS CAST - REPUBLICAN PARTY       Precinct 6                                             00 
01030010009000209000023000178000008000000000000REP       BALLOTS CAST - REPUBLICAN PARTY                         BALLOTS CAST - REPUBLICAN PARTY       Precinct 7                                             00 
01030010010000333000044000277000012000000000000REP       BALLOTS CAST - REPUBLICAN PARTY                         BALLOTS CAST - REPUBLICAN PARTY       Precinct 8                                             00 
01030010011000118000034000080000004000000000000REP       BALLOTS CAST - REPUBLICAN PARTY                         BALLOTS CAST - REPUBLICAN PARTY       Precinct 9                                             00 
01030010012000373000089000277000007000000000000REP       BALLOTS CAST - REPUBLICAN PARTY                         BALLOTS CAST - REPUBLICAN PARTY       Precinct 10                                            00 
01030010013000289000063000218000008000000000000REP       BALLOTS CAST - REPUBLICAN PARTY                         BALLOTS CAST - REPUBLICAN PARTY       Precinct 11                                            00 
01030010014000228000017000199000012000000000000REP       BALLOTS CAST - REPUBLICAN PARTY                         BALLOTS CAST - REPUBLICAN PARTY       Precinct 12                                            00 
01030010015000293000100000180000013000000000000REP       BALLOTS CAST - REPUBLICAN PARTY                         BALLOTS CAST - REPUBLICAN PARTY       Precinct 13                                            00 
01030010016000065000034000031000000000000000000REP       BALLOTS CAST - REPUBLICAN PARTY                         BALLOTS CAST - REPUBLICAN PARTY       Precinct 14                                            00 
01030010017000085000022000057000006000000000000REP       BALLOTS CAST - REPUBLICAN PARTY                         BALLOTS CAST - REPUBLICAN PARTY       Precinct 14A                                           00 
01040010001000056000020000035000001000000000000DEM       BALLOTS CAST - DEMOCRATIC PARTY                         BALLOTS CAST - DEMOCRATIC PARTY       Precinct 1                                             00 
01040010002000009000005000004000000000000000000DEM       BALLOTS CAST - DEMOCRATIC PARTY                         BALLOTS CAST - DEMOCRATIC PARTY       Precinct 1A                                            00 
01040010003000011000002000009000000000000000000DEM       BALLOTS CAST - DEMOCRATIC PARTY                         BALLOTS CAST - DEMOCRATIC PARTY       Precinct 2                                             00 
01040010004000020000005000014000001000000000000DEM       BALLOTS CAST - DEMOCRATIC PARTY                         BALLOTS CAST - DEMOCRATIC PARTY       Precinct 3                                             00 
01040010005000036000000000035000001000000000000DEM       BALLOTS CAST - DEMOCRATIC PARTY                         BALLOTS CAST - DEMOCRATIC PARTY       Precinct 4                                             00 
01040010006000025000006000019000000000000000000DEM       BALLOTS CAST - DEMOCRATIC PARTY                         BALLOTS CAST - DEMOCRATIC PARTY       Precinct 5                                             00 
01040010007000000000000000000000000000000000000DEM       BALLOTS CAST - DEMOCRATIC PARTY                         BALLOTS CAST - DEMOCRATIC PARTY       Precinct 5A                                            00 
01040010008000031000000000031000000000000000000DEM       BALLOTS CAST - DEMOCRATIC PARTY                         BALLOTS CAST - DEMOCRATIC PARTY       Precinct 6                                             00 
01040010009000011000000000010000001000000000000DEM       BALLOTS CAST - DEMOCRATIC PARTY                         BALLOTS CAST - DEMOCRATIC PARTY       Precinct 7                                             00 
01040010010000039000006000033000000000000000000DEM       BALLOTS CAST - DEMOCRATIC PARTY                         BALLOTS CAST - DEMOCRATIC PARTY       Precinct 8                                             00 
01040010011000009000001000007000001000000000000DEM       BALLOTS CAST - DEMOCRATIC PARTY                         BALLOTS CAST - DEMOCRATIC PARTY       Precinct 9                                             00 
01040010012000024000006000015000003000000000000DEM       BALLOTS CAST - DEMOCRATIC PARTY                         BALLOTS CAST - DEMOCRATIC PARTY       Precinct 10                                            00 
01040010013000021000001000020000000000000000000DEM       BALLOTS CAST - DEMOCRATIC PARTY                         BALLOTS CAST - DEMOCRATIC PARTY       Precinct 11                                            00 
01040010014000065000005000060000000000000000000DEM       BALLOTS CAST - DEMOCRATIC PARTY                         BALLOTS CAST - DEMOCRATIC PARTY       Precinct 12                                            00 
01040010015000020000005000014000001000000000000DEM       BALLOTS CAST - DEMOCRATIC PARTY                         BALLOTS CAST - DEMOCRATIC PARTY       Precinct 13                                            00 
01040010016000013000004000009000000000000000000DEM       BALLOTS CAST - DEMOCRATIC PARTY                         BALLOTS CAST - DEMOCRATIC PARTY       Precinct 14                                            00 
01040010017000005000000000005000000000000000000DEM       BALLOTS CAST - DEMOCRATIC PARTY                         BALLOTS CAST - DEMOCRATIC PARTY       Precinct 14A                                           00 
01050010001000154000074000068000012000000000000REP       President                                               Donald J. Trump                       Precinct 1                                             01 
01050010002000026000013000012000001000000000000REP       President                                               Donald J. Trump                       Precinct 1A                                            01 
01050010003000045000008000035000002000000000000REP       President                                               Donald J. Trump                       Precinct 2                                             01 
01050010004000072000020000046000006000000000000REP       President                                               Donald J. Trump                       Precinct 3                                             01 
01050010005000078000005000070000003000000000000REP       President                                               Donald J. Trump                       Precinct 4                                             01 
01050010006000061000012000047000002000000000000REP       President                                               Donald J. Trump                       Precinct 5                                             01 
01050010007000005000001000004000000000000000000REP       President                                               Donald J. Trump                       Precinct 5A                                            01 
01050010008000143000009000128000006000000000000REP       President                                               Donald J. Trump                       Precinct 6                                             01 
01050010009000075000008000063000004000000000000REP       President                                               Donald J. Trump                       Precinct 7                                             01 
01050010010000109000012000090000007000000000000REP       President                                               Donald J. Trump                       Precinct 8                                             01 
01050010011000044000009000034000001000000000000REP       President                                               Donald J. Trump                       Precinct 9                                             01 
01050010012000126000029000092000005000000000000REP       President                                               Donald J. Trump                       Precinct 10                                            01 
01050010013000090000023000066000001000000000000REP       President                                               Donald J. Trump                       Precinct 11                                            01 
01050010014000058000005000048000005000000000000REP       President                                               Donald J. Trump                       Precinct 12                                            01 
01050010015000112000033000075000004000000000000REP       President                                               Donald J. Trump                       Precinct 13                                            01 
01050010016000026000012000014000000000000000000REP       President                                               Donald J. Trump                       Precinct 14                                            01 
01050010017000032000008000023000001000000000000REP       President                                               Donald J. Trump                       Precinct 14A                                           01 
01050020001000249000115000126000008000000000000REP       President                                               Ted Cruz                              Precinct 1                                             01 
01050020002000032000017000015000000000000000000REP       President                                               Ted Cruz                              Precinct 1A                                            01 
01050020003000069000020000044000005000000000000REP       President                                               Ted Cruz                              Precinct 2                                             01 
01050020004000093000031000058000004000000000000REP       President                                               Ted Cruz                              Precinct 3                                             01 
01050020005000145000008000133000004000000000000REP       President                                               Ted Cruz                              Precinct 4                                             01 
01050020006000105000029000069000007000000000000REP       President                                               Ted Cruz                              Precinct 5                                             01 
01050020007000008000006000002000000000000000000REP       President                                               Ted Cruz                              Precinct 5A                                            01 
01050020008000222000021000194000007000000000000REP       President                                               Ted Cruz                              Precinct 6                                             01 
01050020009000103000008000093000002000000000000REP       President                                               Ted Cruz                              Precinct 7                                             01 
01050020010000177000027000146000004000000000000REP       President                                               Ted Cruz                              Precinct 8                                             01 
01050020011000047000015000032000000000000000000REP       President                                               Ted Cruz                              Precinct 9                                             01 
01050020012000199000049000149000001000000000000REP       President                                               Ted Cruz                              Precinct 10                                            01 
01050020013000149000029000116000004000000000000REP       President                                               Ted Cruz                              Precinct 11                                            01 
01050020014000129000008000116000005000000000000REP       President                                               Ted Cruz                              Precinct 12                                            01 
01050020015000134000048000078000008000000000000REP       President                                               Ted Cruz                              Precinct 13                                            01 
01050020016000028000016000012000000000000000000REP       President                                               Ted Cruz                              Precinct 14                                            01 
01050020017000032000008000022000002000000000000REP       President                                               Ted Cruz                              Precinct 14A                                           01 
01050030001000004000004000000000000000000000000REP       President                                               Mike Huckabee                         Precinct 1                                             01 
01050030002000000000000000000000000000000000000REP       President                                               Mike Huckabee                         Precinct 1A                                            01 
01050030003000001000000000001000000000000000000REP       President                                               Mike Huckabee                         Precinct 2                                             01 
01050030004000001000000000001000000000000000000REP       President                                               Mike Huckabee                         Precinct 3                                             01 
01050030005000002000000000002000000000000000000REP       President                                               Mike Huckabee                         Precinct 4                                             01 
01050030006000000000000000000000000000000000000REP       President                                               Mike Huckabee                         Precinct 5                                             01 
01050030007000000000000000000000000000000000000REP       President                                               Mike Huckabee                         Precinct 5A                                            01 
01050030008000000000000000000000000000000000000REP       President                                               Mike Huckabee                         Precinct 6                                             01 
01050030009000001000000000001000000000000000000REP       President                                               Mike Huckabee                         Precinct 7                                             01 
01050030010000000000000000000000000000000000000REP       President                                               Mike Huckabee                         Precinct 8                                             01 
01050030011000000000000000000000000000000000000REP       President                                               Mike Huckabee                         Precinct 9                                             01 
01050030012000000000000000000000000000000000000REP       President                                               Mike Huckabee                         Precinct 10                                            01 
01050030013000001000000000001000000000000000000REP       President                                               Mike Huckabee                         Precinct 11                                            01 
01050030014000001000000000001000000000000000000REP       President                                               Mike Huckabee                         Precinct 12                                            01 
01050030015000001000001000000000000000000000000REP       President                                               Mike Huckabee                         Precinct 13                                            01 
01050030016000000000000000000000000000000000000REP       President                                               Mike Huckabee                         Precinct 14                                            01 
01050030017000001000001000000000000000000000000REP       President                                               Mike Huckabee                         Precinct 14A                                           01 
01050040001000018000007000010000001000000000000REP       President                                               Ben Carson                            Precinct 1                                             01 
01050040002000005000000000005000000000000000000REP       President                                               Ben Carson                            Precinct 1A                                            01 
01050040003000013000004000009000000000000000000REP       President                                               Ben Carson                            Precinct 2                                             01 
01050040004000009000004000003000002000000000000REP       President                                               Ben Carson                            Precinct 3                                             01 
01050040005000014000000000012000001000001000000REP       President                                               Ben Carson                            Precinct 4                                             01 
01050040006000010000003000007000000000000000000REP       President                                               Ben Carson                            Precinct 5                                             01 
01050040007000000000000000000000000000000000000REP       President                                               Ben Carson                            Precinct 5A                                            01 
01050040008000025000003000022000000000000000000REP       President                                               Ben Carson                            Precinct 6                                             01 
01050040009000006000000000006000000000000000000REP       President                                               Ben Carson                            Precinct 7                                             01 
01050040010000010000000000010000000000000000000REP       President                                               Ben Carson                            Precinct 8                                             01 
01050040011000002000000000002000000000000000000REP       President                                               Ben Carson                            Precinct 9                                             01 
01050040012000008000001000007000000000000000000REP       President                                               Ben Carson                            Precinct 10                                            01 
01050040013000009000001000007000001000000000000REP       President                                               Ben Carson                            Precinct 11                                            01 
01050040014000008000000000008000000000000000000REP       President                                               Ben Carson                            Precinct 12                                            01 
01050040015000008000005000003000000000000000000REP       President                                               Ben Carson                            Precinct 13                                            01 
01050040016000002000001000001000000000000000000REP       President                                               Ben Carson                            Precinct 14                                            01 
01050040017000005000003000001000001000000000000REP       President                                               Ben Carson                            Precinct 14A                                           01 
01050050001000000000000000000000000000000000000REP       President                                               Rick Santorum                         Precinct 1                                             01 
01050050002000000000000000000000000000000000000REP       President                                               Rick Santorum                         Precinct 1A                                            01 
01050050003000000000000000000000000000000000000REP       President                                               Rick Santorum                         Precinct 2                                             01 
01050050004000000000000000000000000000000000000REP       President                                               Rick Santorum                         Precinct 3                                             01 
01050050005000000000000000000000000000000000000REP       President                                               Rick Santorum                         Precinct 4                                             01 
01050050006000000000000000000000000000000000000REP       President                                               Rick Santorum                         Precinct 5                                             01 
01050050007000000000000000000000000000000000000REP       President                                               Rick Santorum                         Precinct 5A                                            01 
01050050008000000000000000000000000000000000000REP       President                                               Rick Santorum                         Precinct 6                                             01 
01050050009000000000000000000000000000000000000REP       President                                               Rick Santorum                         Precinct 7                                             01 
01050050010000000000000000000000000000000000000REP       President                                               Rick Santorum                         Precinct 8                                             01 
01050050011000000000000000000000000000000000000REP       President                                               Rick Santorum                         Precinct 9                                             01 
01050050012000000000000000000000000000000000000REP       President                                               Rick Santorum                         Precinct 10                                            01 
01050050013000000000000000000000000000000000000REP       President                                               Rick Santorum                         Precinct 11                                            01 
01050050014000000000000000000000000000000000000REP       President                                               Rick Santorum                         Precinct 12                                            01 
01050050015000000000000000000000000000000000000REP       President                                               Rick Santorum                         Precinct 13                                            01 
01050050016000000000000000000000000000000000000REP       President                                               Rick Santorum                         Precinct 14                                            01 
01050050017000000000000000000000000000000000000REP       President                                               Rick Santorum                         Precinct 14A                                           01 
01050060001000000000000000000000000000000000000REP       President                                               Carly Fiorina                         Precinct 1                                             01 
01050060002000000000000000000000000000000000000REP       President                                               Carly Fiorina                         Precinct 1A                                            01 
01050060003000000000000000000000000000000000000REP       President                                               Carly Fiorina                         Precinct 2                                             01 
01050060004000000000000000000000000000000000000REP       President                                               Carly Fiorina                         Precinct 3                                             01 
01050060005000001000000000001000000000000000000REP       President                                               Carly Fiorina                         Precinct 4                                             01 
01050060006000000000000000000000000000000000000REP       President                                               Carly Fiorina                         Precinct 5                                             01 
01050060007000000000000000000000000000000000000REP       President                                               Carly Fiorina                         Precinct 5A                                            01 
01050060008000002000000000002000000000000000000REP       President                                               Carly Fiorina                         Precinct 6                                             01 
01050060009000000000000000000000000000000000000REP       President                                               Carly Fiorina                         Precinct 7                                             01 
01050060010000000000000000000000000000000000000REP       President                                               Carly Fiorina                         Precinct 8                                             01 
01050060011000000000000000000000000000000000000REP       President                                               Carly Fiorina                         Precinct 9                                             01 
01050060012000000000000000000000000000000000000REP       President                                               Carly Fiorina                         Precinct 10                                            01 
01050060013000000000000000000000000000000000000REP       President                                               Carly Fiorina                         Precinct 11                                            01 
01050060014000000000000000000000000000000000000REP       President                                               Carly Fiorina                         Precinct 12                                            01 
01050060015000000000000000000000000000000000000REP       President                                               Carly Fiorina                         Precinct 13                                            01 
01050060016000000000000000000000000000000000000REP       President                                               Carly Fiorina                         Precinct 14                                            01 
01050060017000000000000000000000000000000000000REP       President                                               Carly Fiorina                         Precinct 14A                                           01 
01050070001000000000000000000000000000000000000REP       President                                               Lindsey Graham                        Precinct 1                                             01 
01050070002000000000000000000000000000000000000REP       President                                               Lindsey Graham                        Precinct 1A                                            01 
01050070003000000000000000000000000000000000000REP       President                                               Lindsey Graham                        Precinct 2                                             01 
01050070004000000000000000000000000000000000000REP       President                                               Lindsey Graham                        Precinct 3                                             01 
01050070005000000000000000000000000000000000000REP       President                                               Lindsey Graham                        Precinct 4                                             01 
01050070006000000000000000000000000000000000000REP       President                                               Lindsey Graham                        Precinct 5                                             01 
01050070007000000000000000000000000000000000000REP       President                                               Lindsey Graham                        Precinct 5A                                            01 
01050070008000000000000000000000000000000000000REP       President                                               Lindsey Graham                        Precinct 6                                             01 
01050070009000000000000000000000000000000000000REP       President                                               Lindsey Graham                        Precinct 7                                             01 
01050070010000001000000000001000000000000000000REP       President                                               Lindsey Graham                        Precinct 8                                             01 
01050070011000000000000000000000000000000000000REP       President                                               Lindsey Graham                        Precinct 9                                             01 
01050070012000000000000000000000000000000000000REP       President                                               Lindsey Graham                        Precinct 10                                            01 
01050070013000000000000000000000000000000000000REP       President                                               Lindsey Graham                        Precinct 11                                            01 
01050070014000000000000000000000000000000000000REP       President                                               Lindsey Graham                        Precinct 12                                            01 
01050070015000000000000000000000000000000000000REP       President                                               Lindsey Graham                        Precinct 13                                            01 
01050070016000000000000000000000000000000000000REP       President                                               Lindsey Graham                        Precinct 14                                            01 
01050070017000000000000000000000000000000000000REP       President                                               Lindsey Graham                        Precinct 14A                                           01 
01050080001000041000022000015000004000000000000REP       President                                               Marco Rubio                           Precinct 1                                             01 
01050080002000008000005000003000000000000000000REP       President                                               Marco Rubio                           Precinct 1A                                            01 
01050080003000007000004000003000000000000000000REP       President                                               Marco Rubio                           Precinct 2                                             01 
01050080004000018000005000012000001000000000000REP       President                                               Marco Rubio                           Precinct 3                                             01 
01050080005000010000000000007000003000000000000REP       President                                               Marco Rubio                           Precinct 4                                             01 
01050080006000014000004000010000000000000000000REP       President                                               Marco Rubio                           Precinct 5                                             01 
01050080007000002000000000002000000000000000000REP       President                                               Marco Rubio                           Precinct 5A                                            01 
01050080008000046000002000039000005000000000000REP       President                                               Marco Rubio                           Precinct 6                                             01 
01050080009000006000003000002000001000000000000REP       President                                               Marco Rubio                           Precinct 7                                             01 
01050080010000020000002000017000001000000000000REP       President                                               Marco Rubio                           Precinct 8                                             01 
01050080011000016000008000007000001000000000000REP       President                                               Marco Rubio                           Precinct 9                                             01 
01050080012000023000005000017000001000000000000REP       President                                               Marco Rubio                           Precinct 10                                            01 
01050080013000019000003000014000002000000000000REP       President                                               Marco Rubio                           Precinct 11                                            01 
01050080014000019000004000013000002000000000000REP       President                                               Marco Rubio                           Precinct 12                                            01 
01050080015000016000007000008000001000000000000REP       President                                               Marco Rubio                           Precinct 13                                            01 
01050080016000006000003000003000000000000000000REP       President                                               Marco Rubio                           Precinct 14                                            01 
01050080017000006000000000006000000000000000000REP       President                                               Marco Rubio                           Precinct 14A                                           01 
01050090001000000000000000000000000000000000000REP       President                                               Chris Christie                        Precinct 1                                             01 
01050090002000000000000000000000000000000000000REP       President                                               Chris Christie                        Precinct 1A                                            01 
01050090003000000000000000000000000000000000000REP       President                                               Chris Christie                        Precinct 2                                             01 
01050090004000000000000000000000000000000000000REP       President                                               Chris Christie                        Precinct 3                                             01 
01050090005000000000000000000000000000000000000REP       President                                               Chris Christie                        Precinct 4                                             01 
01050090006000000000000000000000000000000000000REP       President                                               Chris Christie                        Precinct 5                                             01 
01050090007000000000000000000000000000000000000REP       President                                               Chris Christie                        Precinct 5A                                            01 
01050090008000000000000000000000000000000000000REP       President                                               Chris Christie                        Precinct 6                                             01 
01050090009000000000000000000000000000000000000REP       President                                               Chris Christie                        Precinct 7                                             01 
01050090010000000000000000000000000000000000000REP       President                                               Chris Christie                        Precinct 8                                             01 
01050090011000002000000000000000002000000000000REP       President                                               Chris Christie                        Precinct 9                                             01 
01050090012000000000000000000000000000000000000REP       President                                               Chris Christie                        Precinct 10                                            01 
01050090013000000000000000000000000000000000000REP       President                                               Chris Christie                        Precinct 11                                            01 
01050090014000000000000000000000000000000000000REP       President                                               Chris Christie                        Precinct 12                                            01 
01050090015000001000000000001000000000000000000REP       President                                               Chris Christie                        Precinct 13                                            01 
01050090016000000000000000000000000000000000000REP       President                                               Chris Christie                        Precinct 14                                            01 
01050090017000000000000000000000000000000000000REP       President                                               Chris Christie                        Precinct 14A                                           01 
01050100001000004000002000002000000000000000000REP       President                                               John R. Kasich                        Precinct 1                                             01 
01050100002000000000000000000000000000000000000REP       President                                               John R. Kasich                        Precinct 1A                                            01 
01050100003000005000001000004000000000000000000REP       President                                               John R. Kasich                        Precinct 2                                             01 
01050100004000009000004000004000001000000000000REP       President                                               John R. Kasich                        Precinct 3                                             01 
01050100005000008000000000008000000000000000000REP       President                                               John R. Kasich                        Precinct 4                                             01 
01050100006000001000000000001000000000000000000REP       President                                               John R. Kasich                        Precinct 5                                             01 
01050100007000000000000000000000000000000000000REP       President                                               John R. Kasich                        Precinct 5A                                            01 
01050100008000018000001000015000002000000000000REP       President                                               John R. Kasich                        Precinct 6                                             01 
01050100009000003000001000002000000000000000000REP       President                                               John R. Kasich                        Precinct 7                                             01 
01050100010000001000000000001000000000000000000REP       President                                               John R. Kasich                        Precinct 8                                             01 
01050100011000000000000000000000000000000000000REP       President                                               John R. Kasich                        Precinct 9                                             01 
01050100012000002000001000001000000000000000000REP       President                                               John R. Kasich                        Precinct 10                                            01 
01050100013000000000000000000000000000000000000REP       President                                               John R. Kasich                        Precinct 11                                            01 
01050100014000005000000000005000000000000000000REP       President                                               John R. Kasich                        Precinct 12                                            01 
01050100015000002000000000002000000000000000000REP       President                                               John R. Kasich                        Precinct 13                                            01 
01050100016000002000001000001000000000000000000REP       President                                               John R. Kasich                        Precinct 14                                            01 
01050100017000002000000000002000000000000000000REP       President                                               John R. Kasich                        Precinct 14A                                           01 
01050110001000004000004000000000000000000000000REP       President                                               Jeb Bush                              Precinct 1                                             01 
01050110002000000000000000000000000000000000000REP       President                                               Jeb Bush                              Precinct 1A                                            01 
01050110003000000000000000000000000000000000000REP       President                                               Jeb Bush                              Precinct 2                                             01 
01050110004000000000000000000000000000000000000REP       President                                               Jeb Bush                              Precinct 3                                             01 
01050110005000001000000000001000000000000000000REP       President                                               Jeb Bush                              Precinct 4                                             01 
01050110006000000000000000000000000000000000000REP       President                                               Jeb Bush                              Precinct 5                                             01 
01050110007000000000000000000000000000000000000REP       President                                               Jeb Bush                              Precinct 5A                                            01 
01050110008000000000000000000000000000000000000REP       President                                               Jeb Bush                              Precinct 6                                             01 
01050110009000001000000000000000001000000000000REP       President                                               Jeb Bush                              Precinct 7                                             01 
01050110010000000000000000000000000000000000000REP       President                                               Jeb Bush                              Precinct 8                                             01 
01050110011000000000000000000000000000000000000REP       President                                               Jeb Bush                              Precinct 9                                             01 
01050110012000001000000000001000000000000000000REP       President                                               Jeb Bush                              Precinct 10                                            01 
01050110013000003000001000002000000000000000000REP       President                                               Jeb Bush                              Precinct 11                                            01 
01050110014000000000000000000000000000000000000REP       President                                               Jeb Bush                              Precinct 12                                            01 
01050110015000001000001000000000000000000000000REP       President                                               Jeb Bush                              Precinct 13                                            01 
01050110016000000000000000000000000000000000000REP       President                                               Jeb Bush                              Precinct 14                                            01 
01050110017000002000000000000000002000000000000REP       President                                               Jeb Bush                              Precinct 14A                                           01 
01050120001000000000000000000000000000000000000REP       President                                               Rand Paul                             Precinct 1                                             01 
01050120002000000000000000000000000000000000000REP       President                                               Rand Paul                             Precinct 1A                                            01 
01050120003000000000000000000000000000000000000REP       President                                               Rand Paul                             Precinct 2                                             01 
01050120004000000000000000000000000000000000000REP       President                                               Rand Paul                             Precinct 3                                             01 
01050120005000000000000000000000000000000000000REP       President                                               Rand Paul                             Precinct 4                                             01 
01050120006000000000000000000000000000000000000REP       President                                               Rand Paul                             Precinct 5                                             01 
01050120007000000000000000000000000000000000000REP       President                                               Rand Paul                             Precinct 5A                                            01 
01050120008000000000000000000000000000000000000REP       President                                               Rand Paul                             Precinct 6                                             01 
01050120009000000000000000000000000000000000000REP       President                                               Rand Paul                             Precinct 7                                             01 
01050120010000000000000000000000000000000000000REP       President                                               Rand Paul                             Precinct 8                                             01 
01050120011000000000000000000000000000000000000REP       President                                               Rand Paul                             Precinct 9                                             01 
01050120012000000000000000000000000000000000000REP       President                                               Rand Paul                             Precinct 10                                            01 
01050120013000001000000000001000000000000000000REP       President                                               Rand Paul                             Precinct 11                                            01 
01050120014000000000000000000000000000000000000REP       President                                               Rand Paul                             Precinct 12                                            01 
01050120015000001000001000000000000000000000000REP       President                                               Rand Paul                             Precinct 13                                            01 
01050120016000000000000000000000000000000000000REP       President                                               Rand Paul                             Precinct 14                                            01 
01050120017000000000000000000000000000000000000REP       President                                               Rand Paul                             Precinct 14A                                           01 
01050130001000007000001000006000000000000000000REP       President                                               Elizabeth Gray                        Precinct 1                                             01 
01050130002000003000002000001000000000000000000REP       President                                               Elizabeth Gray                        Precinct 1A                                            01 
01050130003000004000002000002000000000000000000REP       President                                               Elizabeth Gray                        Precinct 2                                             01 
01050130004000005000001000004000000000000000000REP       President                                               Elizabeth Gray                        Precinct 3                                             01 
01050130005000002000000000002000000000000000000REP       President                                               Elizabeth Gray                        Precinct 4                                             01 
01050130006000002000002000000000000000000000000REP       President                                               Elizabeth Gray                        Precinct 5                                             01 
01050130007000001000000000001000000000000000000REP       President                                               Elizabeth Gray                        Precinct 5A                                            01 
01050130008000007000002000005000000000000000000REP       President                                               Elizabeth Gray                        Precinct 6                                             01 
01050130009000009000002000007000000000000000000REP       President                                               Elizabeth Gray                        Precinct 7                                             01 
01050130010000012000002000010000000000000000000REP       President                                               Elizabeth Gray                        Precinct 8                                             01 
01050130011000005000002000003000000000000000000REP       President                                               Elizabeth Gray                        Precinct 9                                             01 
01050130012000010000004000006000000000000000000REP       President                                               Elizabeth Gray                        Precinct 10                                            01 
01050130013000012000003000009000000000000000000REP       President                                               Elizabeth Gray                        Precinct 11                                            01 
01050130014000006000000000006000000000000000000REP       President                                               Elizabeth Gray                        Precinct 12                                            01 
01050130015000012000004000008000000000000000000REP       President                                               Elizabeth Gray                        Precinct 13                                            01 
01050130016000001000001000000000000000000000000REP       President                                               Elizabeth Gray                        Precinct 14                                            01 
01050130017000002000000000002000000000000000000REP       President                                               Elizabeth Gray                        Precinct 14A                                           01 
01050140001000003000002000001000000000000000000REP       President                                               Uncommitted                           Precinct 1                                             01 
01050140002000000000000000000000000000000000000REP       President                                               Uncommitted                           Precinct 1A                                            01 
01050140003000001000000000001000000000000000000REP       President                                               Uncommitted                           Precinct 2                                             01 
01050140004000000000000000000000000000000000000REP       President                                               Uncommitted                           Precinct 3                                             01 
01050140005000001000000000001000000000000000000REP       President                                               Uncommitted                           Precinct 4                                             01 
01050140006000002000001000001000000000000000000REP       President                                               Uncommitted                           Precinct 5                                             01 
01050140007000000000000000000000000000000000000REP       President                                               Uncommitted                           Precinct 5A                                            01 
01050140008000004000001000003000000000000000000REP       President                                               Uncommitted                           Precinct 6                                             01 
01050140009000003000000000003000000000000000000REP       President                                               Uncommitted                           Precinct 7                                             01 
01050140010000003000001000002000000000000000000REP       President                                               Uncommitted                           Precinct 8                                             01 
01050140011000001000000000001000000000000000000REP       President                                               Uncommitted                           Precinct 9                                             01 
01050140012000003000000000003000000000000000000REP       President                                               Uncommitted                           Precinct 10                                            01 
01050140013000002000000000002000000000000000000REP       President                                               Uncommitted                           Precinct 11                                            01 
01050140014000002000000000002000000000000000000REP       President                                               Uncommitted                           Precinct 12                                            01 
01050140015000004000000000004000000000000000000REP       President                                               Uncommitted                           Precinct 13                                            01 
01050140016000000000000000000000000000000000000REP       President                                               Uncommitted                           Precinct 14                                            01 
01050140017000003000002000001000000000000000000REP       President                                               Uncommitted                           Precinct 14A                                           01 
01050150001000000000000000000000000000000000000REP       President                                               OVER VOTES                            Precinct 1                                             01 
01050150002000000000000000000000000000000000000REP       President                                               OVER VOTES                            Precinct 1A                                            01 
01050150003000000000000000000000000000000000000REP       President                                               OVER VOTES                            Precinct 2                                             01 
01050150004000000000000000000000000000000000000REP       President                                               OVER VOTES                            Precinct 3                                             01 
01050150005000000000000000000000000000000000000REP       President                                               OVER VOTES                            Precinct 4                                             01 
01050150006000000000000000000000000000000000000REP       President                                               OVER VOTES                            Precinct 5                                             01 
01050150007000000000000000000000000000000000000REP       President                                               OVER VOTES                            Precinct 5A                                            01 
01050150008000000000000000000000000000000000000REP       President                                               OVER VOTES                            Precinct 6                                             01 
01050150009000000000000000000000000000000000000REP       President                                               OVER VOTES                            Precinct 7                                             01 
01050150010000000000000000000000000000000000000REP       President                                               OVER VOTES                            Precinct 8                                             01 
01050150011000000000000000000000000000000000000REP       President                                               OVER VOTES                            Precinct 9                                             01 
01050150012000000000000000000000000000000000000REP       President                                               OVER VOTES                            Precinct 10                                            01 
01050150013000000000000000000000000000000000000REP       President                                               OVER VOTES                            Precinct 11                                            01 
01050150014000000000000000000000000000000000000REP       President                                               OVER VOTES                            Precinct 12                                            01 
01050150015000000000000000000000000000000000000REP       President                                               OVER VOTES                            Precinct 13                                            01 
01050150016000000000000000000000000000000000000REP       President                                               OVER VOTES                            Precinct 14                                            01 
01050150017000000000000000000000000000000000000REP       President                                               OVER VOTES                            Precinct 14A                                           01 
01050160001000000000000000000000000000000000000REP       President                                               UNDER VOTES                           Precinct 1                                             01 
01050160002000000000000000000000000000000000000REP       President                                               UNDER VOTES                           Precinct 1A                                            01 
01050160003000000000000000000000000000000000000REP       President                                               UNDER VOTES                           Precinct 2                                             01 
01050160004000001000001000000000000000000000000REP       President                                               UNDER VOTES                           Precinct 3                                             01 
01050160005000000000000000000000000000000000000REP       President                                               UNDER VOTES                           Precinct 4                                             01 
01050160006000000000000000000000000000000000000REP       President                                               UNDER VOTES                           Precinct 5                                             01 
01050160007000000000000000000000000000000000000REP       President                                               UNDER VOTES                           Precinct 5A                                            01 
01050160008000001000000000001000000000000000000REP       President                                               UNDER VOTES                           Precinct 6                                             01 
01050160009000002000001000001000000000000000000REP       President                                               UNDER VOTES                           Precinct 7                                             01 
01050160010000000000000000000000000000000000000REP       President                                               UNDER VOTES                           Precinct 8                                             01 
01050160011000001000000000001000000000000000000REP       President                                               UNDER VOTES                           Precinct 9                                             01 
01050160012000001000000000001000000000000000000REP       President                                               UNDER VOTES                           Precinct 10                                            01 
01050160013000003000003000000000000000000000000REP       President                                               UNDER VOTES                           Precinct 11                                            01 
01050160014000000000000000000000000000000000000REP       President                                               UNDER VOTES                           Precinct 12                                            01 
01050160015000001000000000001000000000000000000REP       President                                               UNDER VOTES                           Precinct 13                                            01 
01050160016000000000000000000000000000000000000REP       President                                               UNDER VOTES                           Precinct 14                                            01 
01050160017000000000000000000000000000000000000REP       President                                               UNDER VOTES                           Precinct 14A                                           01 
01060010001000289000131000146000012000000000000REP       US Representative, District 8                           Kevin Brady                           Precinct 1                                             01 
01060010003000097000024000070000003000000000000REP       US Representative, District 8                           Kevin Brady                           Precinct 2                                             01 
01060010004000121000033000078000010000000000000REP       US Representative, District 8                           Kevin Brady                           Precinct 3                                             01 
01060010005000160000008000143000008000001000000REP       US Representative, District 8                           Kevin Brady                           Precinct 4                                             01 
01060010006000133000032000094000007000000000000REP       US Representative, District 8                           Kevin Brady                           Precinct 5                                             01 
01060010008000278000015000250000013000000000000REP       US Representative, District 8                           Kevin Brady                           Precinct 6                                             01 
01060010016000034000016000018000000000000000000REP       US Representative, District 8                           Kevin Brady                           Precinct 14                                            01 
01060020001000036000018000013000005000000000000REP       US Representative, District 8                           Andre Dean                            Precinct 1                                             01 
01060020003000012000006000006000000000000000000REP       US Representative, District 8                           Andre Dean                            Precinct 2                                             01 
01060020004000025000008000015000002000000000000REP       US Representative, District 8                           Andre Dean                            Precinct 3                                             01 
01060020005000015000001000014000000000000000000REP       US Representative, District 8                           Andre Dean                            Precinct 4                                             01 
01060020006000011000003000008000000000000000000REP       US Representative, District 8                           Andre Dean                            Precinct 5                                             01 
01060020008000048000008000037000003000000000000REP       US Representative, District 8                           Andre Dean                            Precinct 6                                             01 
01060020016000002000001000001000000000000000000REP       US Representative, District 8                           Andre Dean                            Precinct 14                                            01 
01060030001000011000006000005000000000000000000REP       US Representative, District 8                           Craig McMichael                       Precinct 1                                             01 
01060030003000004000001000003000000000000000000REP       US Representative, District 8                           Craig McMichael                       Precinct 2                                             01 
01060030004000009000002000007000000000000000000REP       US Representative, District 8                           Craig McMichael                       Precinct 3                                             01 
01060030005000004000000000004000000000000000000REP       US Representative, District 8                           Craig McMichael                       Precinct 4                                             01 
01060030006000009000000000009000000000000000000REP       US Representative, District 8                           Craig McMichael                       Precinct 5                                             01 
01060030008000025000005000020000000000000000000REP       US Representative, District 8                           Craig McMichael                       Precinct 6                                             01 
01060030016000006000005000001000000000000000000REP       US Representative, District 8                           Craig McMichael                       Precinct 14                                            01 
01060040001000089000052000030000007000000000000REP       US Representative, District 8                           Steve Toth                            Precinct 1                                             01 
01060040003000025000006000016000003000000000000REP       US Representative, District 8                           Steve Toth                            Precinct 2                                             01 
01060040004000037000017000018000002000000000000REP       US Representative, District 8                           Steve Toth                            Precinct 3                                             01 
01060040005000040000002000036000002000000000000REP       US Representative, District 8                           Steve Toth                            Precinct 4                                             01 
01060040006000030000014000014000002000000000000REP       US Representative, District 8                           Steve Toth                            Precinct 5                                             01 
01060040008000068000009000055000004000000000000REP       US Representative, District 8                           Steve Toth                            Precinct 6                                             01 
01060040016000014000010000004000000000000000000REP       US Representative, District 8                           Steve Toth                            Precinct 14                                            01 
01060050001000000000000000000000000000000000000REP       US Representative, District 8                           OVER VOTES                            Precinct 1                                             01 
01060050003000000000000000000000000000000000000REP       US Representative, District 8                           OVER VOTES                            Precinct 2                                             01 
01060050004000000000000000000000000000000000000REP       US Representative, District 8                           OVER VOTES                            Precinct 3                                             01 
01060050005000000000000000000000000000000000000REP       US Representative, District 8                           OVER VOTES                            Precinct 4                                             01 
01060050006000000000000000000000000000000000000REP       US Representative, District 8                           OVER VOTES                            Precinct 5                                             01 
01060050008000000000000000000000000000000000000REP       US Representative, District 8                           OVER VOTES                            Precinct 6                                             01 
01060050016000000000000000000000000000000000000REP       US Representative, District 8                           OVER VOTES                            Precinct 14                                            01 
01060060001000059000024000034000001000000000000REP       US Representative, District 8                           UNDER VOTES                           Precinct 1                                             01 
01060060003000007000002000004000001000000000000REP       US Representative, District 8                           UNDER VOTES                           Precinct 2                                             01 
01060060004000014000004000010000000000000000000REP       US Representative, District 8                           UNDER VOTES                           Precinct 3                                             01 
01060060005000043000002000040000001000000000000REP       US Representative, District 8                           UNDER VOTES                           Precinct 4                                             01 
01060060006000012000002000010000000000000000000REP       US Representative, District 8                           UNDER VOTES                           Precinct 5                                             01 
01060060008000049000002000047000000000000000000REP       US Representative, District 8                           UNDER VOTES                           Precinct 6                                             01 
01060060016000008000001000007000000000000000000REP       US Representative, District 8                           UNDER VOTES                           Precinct 14                                            01 
01070010002000005000002000003000000000000000000REP       US Representative, District 17                          Kaleb Sims                            Precinct 1A                                            01 
01070010007000001000000000001000000000000000000REP       US Representative, District 17                          Kaleb Sims                            Precinct 5A                                            01 
01070010009000021000003000017000001000000000000REP       US Representative, District 17                          Kaleb Sims                            Precinct 7                                             01 
01070010010000031000005000026000000000000000000REP       US Representative, District 17                          Kaleb Sims                            Precinct 8                                             01 
01070010011000012000001000011000000000000000000REP       US Representative, District 17                          Kaleb Sims                            Precinct 9                                             01 
01070010012000041000006000035000000000000000000REP       US Representative, District 17                          Kaleb Sims                            Precinct 10                                            01 
01070010013000025000007000018000000000000000000REP       US Representative, District 17                          Kaleb Sims                            Precinct 11                                            01 
01070010014000033000004000027000002000000000000REP       US Representative, District 17                          Kaleb Sims                            Precinct 12                                            01 
01070010015000033000008000025000000000000000000REP       US Representative, District 17                          Kaleb Sims                            Precinct 13                                            01 
01070010017000007000002000005000000000000000000REP       US Representative, District 17                          Kaleb Sims                            Precinct 14A                                           01 
01070020002000022000010000012000000000000000000REP       US Representative, District 17                          Ralph Patterson                       Precinct 1A                                            01 
01070020007000003000002000001000000000000000000REP       US Representative, District 17                          Ralph Patterson                       Precinct 5A                                            01 
01070020009000041000003000036000002000000000000REP       US Representative, District 17                          Ralph Patterson                       Precinct 7                                             01 
01070020010000061000007000053000001000000000000REP       US Representative, District 17                          Ralph Patterson                       Precinct 8                                             01 
01070020011000027000012000015000000000000000000REP       US Representative, District 17                          Ralph Patterson                       Precinct 9                                             01 
01070020012000083000015000067000001000000000000REP       US Representative, District 17                          Ralph Patterson                       Precinct 10                                            01 
01070020013000049000010000039000000000000000000REP       US Representative, District 17                          Ralph Patterson                       Precinct 11                                            01 
01070020014000045000003000040000002000000000000REP       US Representative, District 17                          Ralph Patterson                       Precinct 12                                            01 
01070020015000074000037000035000002000000000000REP       US Representative, District 17                          Ralph Patterson                       Precinct 13                                            01 
01070020017000024000007000017000000000000000000REP       US Representative, District 17                          Ralph Patterson                       Precinct 14A                                           01 
01070030002000041000022000018000001000000000000REP       US Representative, District 17                          Bill Flores                           Precinct 1A                                            01 
01070030007000012000005000007000000000000000000REP       US Representative, District 17                          Bill Flores                           Precinct 5A                                            01 
01070030009000127000013000110000004000000000000REP       US Representative, District 17                          Bill Flores                           Precinct 7                                             01 
01070030010000213000027000175000011000000000000REP       US Representative, District 17                          Bill Flores                           Precinct 8                                             01 
01070030011000063000019000040000004000000000000REP       US Representative, District 17                          Bill Flores                           Precinct 9                                             01 
01070030012000213000055000152000006000000000000REP       US Representative, District 17                          Bill Flores                           Precinct 10                                            01 
01070030013000181000041000133000007000000000000REP       US Representative, District 17                          Bill Flores                           Precinct 11                                            01 
01070030014000128000008000112000008000000000000REP       US Representative, District 17                          Bill Flores                           Precinct 12                                            01 
01070030015000157000049000099000009000000000000REP       US Representative, District 17                          Bill Flores                           Precinct 13                                            01 
01070030017000042000009000028000005000000000000REP       US Representative, District 17                          Bill Flores                           Precinct 14A                                           01 
01070040002000000000000000000000000000000000000REP       US Representative, District 17                          OVER VOTES                            Precinct 1A                                            01 
01070040007000000000000000000000000000000000000REP       US Representative, District 17                          OVER VOTES                            Precinct 5A                                            01 
01070040009000000000000000000000000000000000000REP       US Representative, District 17                          OVER VOTES                            Precinct 7                                             01 
01070040010000000000000000000000000000000000000REP       US Representative, District 17                          OVER VOTES                            Precinct 8                                             01 
01070040011000000000000000000000000000000000000REP       US Representative, District 17                          OVER VOTES                            Precinct 9                                             01 
01070040012000000000000000000000000000000000000REP       US Representative, District 17                          OVER VOTES                            Precinct 10                                            01 
01070040013000000000000000000000000000000000000REP       US Representative, District 17                          OVER VOTES                            Precinct 11                                            01 
01070040014000000000000000000000000000000000000REP       US Representative, District 17                          OVER VOTES                            Precinct 12                                            01 
01070040015000000000000000000000000000000000000REP       US Representative, District 17                          OVER VOTES                            Precinct 13                                            01 
01070040017000000000000000000000000000000000000REP       US Representative, District 17                          OVER VOTES                            Precinct 14A                                           01 
01070050002000006000003000003000000000000000000REP       US Representative, District 17                          UNDER VOTES                           Precinct 1A                                            01 
01070050007000000000000000000000000000000000000REP       US Representative, District 17                          UNDER VOTES                           Precinct 5A                                            01 
01070050009000020000004000015000001000000000000REP       US Representative, District 17                          UNDER VOTES                           Precinct 7                                             01 
01070050010000028000005000023000000000000000000REP       US Representative, District 17                          UNDER VOTES                           Precinct 8                                             01 
01070050011000016000002000014000000000000000000REP       US Representative, District 17                          UNDER VOTES                           Precinct 9                                             01 
01070050012000032000009000023000000000000000000REP       US Representative, District 17                          UNDER VOTES                           Precinct 10                                            01 
01070050013000034000005000028000001000000000000REP       US Representative, District 17                          UNDER VOTES                           Precinct 11                                            01 
01070050014000022000002000020000000000000000000REP       US Representative, District 17                          UNDER VOTES                           Precinct 12                                            01 
01070050015000028000005000021000002000000000000REP       US Representative, District 17                          UNDER VOTES                           Precinct 13                                            01 
01070050017000012000004000007000001000000000000REP       US Representative, District 17                          UNDER VOTES                           Precinct 14A                                           01 
01080010001000134000075000053000006000000000000REP       Railroad Commissioner                                   Wayne Christian                       Precinct 1                                             01 
01080010002000016000009000007000000000000000000REP       Railroad Commissioner                                   Wayne Christian                       Precinct 1A                                            01 
01080010003000035000012000020000003000000000000REP       Railroad Commissioner                                   Wayne Christian                       Precinct 2                                             01 
01080010004000055000019000035000001000000000000REP       Railroad Commissioner                                   Wayne Christian                       Precinct 3                                             01 
01080010005000079000005000070000004000000000000REP       Railroad Commissioner                                   Wayne Christian                       Precinct 4                                             01 
01080010006000062000020000042000000000000000000REP       Railroad Commissioner                                   Wayne Christian                       Precinct 5                                             01 
01080010007000005000003000002000000000000000000REP       Railroad Commissioner                                   Wayne Christian                       Precinct 5A                                            01 
01080010008000138000015000115000008000000000000REP       Railroad Commissioner                                   Wayne Christian                       Precinct 6                                             01 
01080010009000050000008000041000001000000000000REP       Railroad Commissioner                                   Wayne Christian                       Precinct 7                                             01 
01080010010000078000013000065000000000000000000REP       Railroad Commissioner                                   Wayne Christian                       Precinct 8                                             01 
01080010011000020000008000011000001000000000000REP       Railroad Commissioner                                   Wayne Christian                       Precinct 9                                             01 
01080010012000099000024000075000000000000000000REP       Railroad Commissioner                                   Wayne Christian                       Precinct 10                                            01 
01080010013000084000019000062000003000000000000REP       Railroad Commissioner                                   Wayne Christian                       Precinct 11                                            01 
01080010014000064000006000055000003000000000000REP       Railroad Commissioner                                   Wayne Christian                       Precinct 12                                            01 
01080010015000069000029000037000003000000000000REP       Railroad Commissioner                                   Wayne Christian                       Precinct 13                                            01 
01080010016000020000010000010000000000000000000REP       Railroad Commissioner                                   Wayne Christian                       Precinct 14                                            01 
01080010017000020000004000014000002000000000000REP       Railroad Commissioner                                   Wayne Christian                       Precinct 14A                                           01 
01080020001000074000028000039000007000000000000REP       Railroad Commissioner                                   Ron Hale                              Precinct 1                                             01 
01080020002000016000008000007000001000000000000REP       Railroad Commissioner                                   Ron Hale                              Precinct 1A                                            01 
01080020003000026000007000019000000000000000000REP       Railroad Commissioner                                   Ron Hale                              Precinct 2                                             01 
01080020004000039000009000024000006000000000000REP       Railroad Commissioner                                   Ron Hale                              Precinct 3                                             01 
01080020005000046000001000042000002000001000000REP       Railroad Commissioner                                   Ron Hale                              Precinct 4                                             01 
01080020006000031000008000023000000000000000000REP       Railroad Commissioner                                   Ron Hale                              Precinct 5                                             01 
01080020007000003000001000002000000000000000000REP       Railroad Commissioner                                   Ron Hale                              Precinct 5A                                            01 
01080020008000090000005000083000002000000000000REP       Railroad Commissioner                                   Ron Hale                              Precinct 6                                             01 
01080020009000045000004000039000002000000000000REP       Railroad Commissioner                                   Ron Hale                              Precinct 7                                             01 
01080020010000075000007000067000001000000000000REP       Railroad Commissioner                                   Ron Hale                              Precinct 8                                             01 
01080020011000023000007000014000002000000000000REP       Railroad Commissioner                                   Ron Hale                              Precinct 9                                             01 
01080020012000073000014000058000001000000000000REP       Railroad Commissioner                                   Ron Hale                              Precinct 10                                            01 
01080020013000040000006000034000000000000000000REP       Railroad Commissioner                                   Ron Hale                              Precinct 11                                            01 
01080020014000027000001000026000000000000000000REP       Railroad Commissioner                                   Ron Hale                              Precinct 12                                            01 
01080020015000049000014000035000000000000000000REP       Railroad Commissioner                                   Ron Hale                              Precinct 13                                            01 
01080020016000007000005000002000000000000000000REP       Railroad Commissioner                                   Ron Hale                              Precinct 14                                            01 
01080020017000011000004000007000000000000000000REP       Railroad Commissioner                                   Ron Hale                              Precinct 14A                                           01 
01080030001000012000006000006000000000000000000REP       Railroad Commissioner                                   John Greytok                          Precinct 1                                             01 
01080030002000001000000000001000000000000000000REP       Railroad Commissioner                                   John Greytok                          Precinct 1A                                            01 
01080030003000004000000000004000000000000000000REP       Railroad Commissioner                                   John Greytok                          Precinct 2                                             01 
01080030004000010000005000004000001000000000000REP       Railroad Commissioner                                   John Greytok                          Precinct 3                                             01 
01080030005000008000000000006000002000000000000REP       Railroad Commissioner                                   John Greytok                          Precinct 4                                             01 
01080030006000006000001000004000001000000000000REP       Railroad Commissioner                                   John Greytok                          Precinct 5                                             01 
01080030007000000000000000000000000000000000000REP       Railroad Commissioner                                   John Greytok                          Precinct 5A                                            01 
