01010010001001122000000000000000000000000000000          REGISTERED VOTERS - TOTAL                               REGISTERED VOTERS - TOTAL             PRECINCT 1                                             00 
01010010002000286000000000000000000000000000000          REGISTERED VOTERS - TOTAL                               REGISTERED VOTERS - TOTAL             PRECINCT 2                                             00 
01010010003000748000000000000000000000000000000          REGISTERED VOTERS - TOTAL                               REGISTERED VOTERS - TOTAL             PRECINCT 025                                           00 
01010010004001086000000000000000000000000000000          REGISTERED VOTERS - TOTAL                               REGISTERED VOTERS - TOTAL             PRECINCT 3                                             00 
01010010005000691000000000000000000000000000000          REGISTERED VOTERS - TOTAL                               REGISTERED VOTERS - TOTAL             PRECINCT 4                                             00 
01010010006000486000000000000000000000000000000          REGISTERED VOTERS - TOTAL                               REGISTERED VOTERS - TOTAL             PRECINCT 046                                           00 
01020010001000367000137000230000000000000000000          BALLOTS CAST - TOTAL                                    BALLOTS CAST - TOTAL                  PRECINCT 1                                             00 
01020010002000116000020000096000000000000000000          BALLOTS CAST - TOTAL                                    BALLOTS CAST - TOTAL                  PRECINCT 2                                             00 
01020010003000168000062000106000000000000000000          BALLOTS CAST - TOTAL                                    BALLOTS CAST - TOTAL                  PRECINCT 025                                           00 
01020010004000388000165000223000000000000000000          BALLOTS CAST - TOTAL                                    BALLOTS CAST - TOTAL                  PRECINCT 3                                             00 
01020010005000211000039000172000000000000000000          BALLOTS CAST - TOTAL                                    BALLOTS CAST - TOTAL                  PRECINCT 4                                             00 
01020010006000170000075000093000000000002000000          BALLOTS CAST - TOTAL                                    BALLOTS CAST - TOTAL                  PRECINCT 046                                           00 
01030010001000329000127000202000000000000000000REP       BALLOTS CAST - REPUBLICAN PARTY                         BALLOTS CAST - REPUBLICAN PARTY       PRECINCT 1                                             00 
01030010002000110000020000090000000000000000000REP       BALLOTS CAST - REPUBLICAN PARTY                         BALLOTS CAST - REPUBLICAN PARTY       PRECINCT 2                                             00 
01030010003000140000057000083000000000000000000REP       BALLOTS CAST - REPUBLICAN PARTY                         BALLOTS CAST - REPUBLICAN PARTY       PRECINCT 025                                           00 
01030010004000353000151000202000000000000000000REP       BALLOTS CAST - REPUBLICAN PARTY                         BALLOTS CAST - REPUBLICAN PARTY       PRECINCT 3                                             00 
01030010005000179000034000145000000000000000000REP       BALLOTS CAST - REPUBLICAN PARTY                         BALLOTS CAST - REPUBLICAN PARTY       PRECINCT 4                                             00 
01030010006000149000067000082000000000000000000REP       BALLOTS CAST - REPUBLICAN PARTY                         BALLOTS CAST - REPUBLICAN PARTY       PRECINCT 046                                           00 
01040010001000038000010000028000000000000000000DEM       BALLOTS CAST - DEMOCRATIC PARTY                         BALLOTS CAST - DEMOCRATIC PARTY       PRECINCT 1                                             00 
01040010002000006000000000006000000000000000000DEM       BALLOTS CAST - DEMOCRATIC PARTY                         BALLOTS CAST - DEMOCRATIC PARTY       PRECINCT 2                                             00 
01040010003000028000005000023000000000000000000DEM       BALLOTS CAST - DEMOCRATIC PARTY                         BALLOTS CAST - DEMOCRATIC PARTY       PRECINCT 025                                           00 
01040010004000035000014000021000000000000000000DEM       BALLOTS CAST - DEMOCRATIC PARTY                         BALLOTS CAST - DEMOCRATIC PARTY       PRECINCT 3                                             00 
01040010005000032000005000027000000000000000000DEM       BALLOTS CAST - DEMOCRATIC PARTY                         BALLOTS CAST - DEMOCRATIC PARTY       PRECINCT 4                                             00 
01040010006000021000008000011000000000002000000DEM       BALLOTS CAST - DEMOCRATIC PARTY                         BALLOTS CAST - DEMOCRATIC PARTY       PRECINCT 046                                           00 
01050010001000000000000000000000000000000000000REP       President                                               Lindsey Graham                        PRECINCT 1                                             01 
01050010002000000000000000000000000000000000000REP       President                                               Lindsey Graham                        PRECINCT 2                                             01 
01050010003000000000000000000000000000000000000REP       President                                               Lindsey Graham                        PRECINCT 025                                           01 
01050010004000001000000000001000000000000000000REP       President                                               Lindsey Graham                        PRECINCT 3                                             01 
01050010005000000000000000000000000000000000000REP       President                                               Lindsey Graham                        PRECINCT 4                                             01 
01050010006000001000001000000000000000000000000REP       President                                               Lindsey Graham                        PRECINCT 046                                           01 
01050020001000001000001000000000000000000000000REP       President                                               Mike Huckabee                         PRECINCT 1                                             01 
01050020002000000000000000000000000000000000000REP       President                                               Mike Huckabee                         PRECINCT 2                                             01 
01050020003000001000001000000000000000000000000REP       President                                               Mike Huckabee                         PRECINCT 025                                           01 
01050020004000001000000000001000000000000000000REP       President                                               Mike Huckabee                         PRECINCT 3                                             01 
01050020005000000000000000000000000000000000000REP       President                                               Mike Huckabee                         PRECINCT 4                                             01 
01050020006000000000000000000000000000000000000REP       President                                               Mike Huckabee                         PRECINCT 046                                           01 
01050030001000033000016000017000000000000000000REP       President                                               Marco Rubio                           PRECINCT 1                                             01 
01050030002000005000001000004000000000000000000REP       President                                               Marco Rubio                           PRECINCT 2                                             01 
01050030003000010000004000006000000000000000000REP       President                                               Marco Rubio                           PRECINCT 025                                           01 
01050030004000035000013000022000000000000000000REP       President                                               Marco Rubio                           PRECINCT 3                                             01 
01050030005000022000004000018000000000000000000REP       President                                               Marco Rubio                           PRECINCT 4                                             01 
01050030006000019000010000009000000000000000000REP       President                                               Marco Rubio                           PRECINCT 046                                           01 
01050040001000099000043000056000000000000000000REP       President                                               Donald J. Trump                       PRECINCT 1                                             01 
01050040002000025000004000021000000000000000000REP       President                                               Donald J. Trump                       PRECINCT 2                                             01 
01050040003000038000013000025000000000000000000REP       President                                               Donald J. Trump                       PRECINCT 025                                           01 
01050040004000100000047000053000000000000000000REP       President                                               Donald J. Trump                       PRECINCT 3                                             01 
01050040005000048000011000037000000000000000000REP       President                                               Donald J. Trump                       PRECINCT 4                                             01 
01050040006000034000013000021000000000000000000REP       President                                               Donald J. Trump                       PRECINCT 046                                           01 
01050050001000001000001000000000000000000000000REP       President                                               Chris Christie                        PRECINCT 1                                             01 
01050050002000000000000000000000000000000000000REP       President                                               Chris Christie                        PRECINCT 2                                             01 
01050050003000000000000000000000000000000000000REP       President                                               Chris Christie                        PRECINCT 025                                           01 
01050050004000001000001000000000000000000000000REP       President                                               Chris Christie                        PRECINCT 3                                             01 
01050050005000000000000000000000000000000000000REP       President                                               Chris Christie                        PRECINCT 4                                             01 
01050050006000000000000000000000000000000000000REP       President                                               Chris Christie                        PRECINCT 046                                           01 
01050060001000000000000000000000000000000000000REP       President                                               Elizabeth Gray                        PRECINCT 1                                             01 
01050060002000000000000000000000000000000000000REP       President                                               Elizabeth Gray                        PRECINCT 2                                             01 
01050060003000000000000000000000000000000000000REP       President                                               Elizabeth Gray                        PRECINCT 025                                           01 
01050060004000000000000000000000000000000000000REP       President                                               Elizabeth Gray                        PRECINCT 3                                             01 
01050060005000000000000000000000000000000000000REP       President                                               Elizabeth Gray                        PRECINCT 4                                             01 
01050060006000000000000000000000000000000000000REP       President                                               Elizabeth Gray                        PRECINCT 046                                           01 
01050070001000009000004000005000000000000000000REP       President                                               John R. Kasich                        PRECINCT 1                                             01 
01050070002000000000000000000000000000000000000REP       President                                               John R. Kasich                        PRECINCT 2                                             01 
01050070003000009000004000005000000000000000000REP       President                                               John R. Kasich                        PRECINCT 025                                           01 
01050070004000005000004000001000000000000000000REP       President                                               John R. Kasich                        PRECINCT 3                                             01 
01050070005000002000001000001000000000000000000REP       President                                               John R. Kasich                        PRECINCT 4                                             01 
01050070006000007000006000001000000000000000000REP       President                                               John R. Kasich                        PRECINCT 046                                           01 
01050080001000000000000000000000000000000000000REP       President                                               Rand Paul                             PRECINCT 1                                             01 
01050080002000000000000000000000000000000000000REP       President                                               Rand Paul                             PRECINCT 2                                             01 
01050080003000002000000000002000000000000000000REP       President                                               Rand Paul                             PRECINCT 025                                           01 
01050080004000000000000000000000000000000000000REP       President                                               Rand Paul                             PRECINCT 3                                             01 
01050080005000000000000000000000000000000000000REP       President                                               Rand Paul                             PRECINCT 4                                             01 
01050080006000000000000000000000000000000000000REP       President                                               Rand Paul                             PRECINCT 046                                           01 
01050090001000155000050000105000000000000000000REP       President                                               Ted Cruz                              PRECINCT 1                                             01 
01050090002000074000011000063000000000000000000REP       President                                               Ted Cruz                              PRECINCT 2                                             01 
01050090003000067000026000041000000000000000000REP       President                                               Ted Cruz                              PRECINCT 025                                           01 
01050090004000162000061000101000000000000000000REP       President                                               Ted Cruz                              PRECINCT 3                                             01 
01050090005000095000015000080000000000000000000REP       President                                               Ted Cruz                              PRECINCT 4                                             01 
01050090006000072000027000045000000000000000000REP       President                                               Ted Cruz                              PRECINCT 046                                           01 
01050100001000020000005000015000000000000000000REP       President                                               Ben Carson                            PRECINCT 1                                             01 
01050100002000004000003000001000000000000000000REP       President                                               Ben Carson                            PRECINCT 2                                             01 
01050100003000007000005000002000000000000000000REP       President                                               Ben Carson                            PRECINCT 025                                           01 
01050100004000014000004000010000000000000000000REP       President                                               Ben Carson                            PRECINCT 3                                             01 
01050100005000003000000000003000000000000000000REP       President                                               Ben Carson                            PRECINCT 4                                             01 
01050100006000006000003000003000000000000000000REP       President                                               Ben Carson                            PRECINCT 046                                           01 
01050110001000000000000000000000000000000000000REP       President                                               Carly Fiorina                         PRECINCT 1                                             01 
01050110002000000000000000000000000000000000000REP       President                                               Carly Fiorina                         PRECINCT 2                                             01 
01050110003000000000000000000000000000000000000REP       President                                               Carly Fiorina                         PRECINCT 025                                           01 
01050110004000000000000000000000000000000000000REP       President                                               Carly Fiorina                         PRECINCT 3                                             01 
01050110005000000000000000000000000000000000000REP       President                                               Carly Fiorina                         PRECINCT 4                                             01 
01050110006000000000000000000000000000000000000REP       President                                               Carly Fiorina                         PRECINCT 046                                           01 
01050120001000003000002000001000000000000000000REP       President                                               Jeb Bush                              PRECINCT 1                                             01 
01050120002000000000000000000000000000000000000REP       President                                               Jeb Bush                              PRECINCT 2                                             01 
01050120003000001000000000001000000000000000000REP       President                                               Jeb Bush                              PRECINCT 025                                           01 
01050120004000006000005000001000000000000000000REP       President                                               Jeb Bush                              PRECINCT 3                                             01 
01050120005000002000002000000000000000000000000REP       President                                               Jeb Bush                              PRECINCT 4                                             01 
01050120006000000000000000000000000000000000000REP       President                                               Jeb Bush                              PRECINCT 046                                           01 
01050130001000000000000000000000000000000000000REP       President                                               Rick Santorum                         PRECINCT 1                                             01 
01050130002000000000000000000000000000000000000REP       President                                               Rick Santorum                         PRECINCT 2                                             01 
01050130003000000000000000000000000000000000000REP       President                                               Rick Santorum                         PRECINCT 025                                           01 
01050130004000000000000000000000000000000000000REP       President                                               Rick Santorum                         PRECINCT 3                                             01 
01050130005000000000000000000000000000000000000REP       President                                               Rick Santorum                         PRECINCT 4                                             01 
01050130006000000000000000000000000000000000000REP       President                                               Rick Santorum                         PRECINCT 046                                           01 
01050140001000006000003000003000000000000000000REP       President                                               Uncommitted                           PRECINCT 1                                             01 
01050140002000000000000000000000000000000000000REP       President                                               Uncommitted                           PRECINCT 2                                             01 
01050140003000004000003000001000000000000000000REP       President                                               Uncommitted                           PRECINCT 025                                           01 
01050140004000010000008000002000000000000000000REP       President                                               Uncommitted                           PRECINCT 3                                             01 
01050140005000001000000000001000000000000000000REP       President                                               Uncommitted                           PRECINCT 4                                             01 
01050140006000005000003000002000000000000000000REP       President                                               Uncommitted                           PRECINCT 046                                           01 
01050150001000001000001000000000000000000000000REP       President                                               OVER VOTES                            PRECINCT 1                                             01 
01050150002000000000000000000000000000000000000REP       President                                               OVER VOTES                            PRECINCT 2                                             01 
01050150003000000000000000000000000000000000000REP       President                                               OVER VOTES                            PRECINCT 025                                           01 
01050150004000000000000000000000000000000000000REP       President                                               OVER VOTES                            PRECINCT 3                                             01 
01050150005000003000000000003000000000000000000REP       President                                               OVER VOTES                            PRECINCT 4                                             01 
01050150006000000000000000000000000000000000000REP       President                                               OVER VOTES                            PRECINCT 046                                           01 
01050160001000001000001000000000000000000000000REP       President                                               UNDER VOTES                           PRECINCT 1                                             01 
01050160002000002000001000001000000000000000000REP       President                                               UNDER VOTES                           PRECINCT 2                                             01 
01050160003000001000001000000000000000000000000REP       President                                               UNDER VOTES                           PRECINCT 025                                           01 
01050160004000018000008000010000000000000000000REP       President                                               UNDER VOTES                           PRECINCT 3                                             01 
01050160005000003000001000002000000000000000000REP       President                                               UNDER VOTES                           PRECINCT 4                                             01 
01050160006000005000004000001000000000000000000REP       President                                               UNDER VOTES                           PRECINCT 046                                           01 
01060010001000281000106000175000000000000000000REP       United States Representative, Dist 11                   Mike Conaway                          PRECINCT 1                                             01 
01060010002000090000015000075000000000000000000REP       United States Representative, Dist 11                   Mike Conaway                          PRECINCT 2                                             01 
01060010003000116000050000066000000000000000000REP       United States Representative, Dist 11                   Mike Conaway                          PRECINCT 025                                           01 
01060010004000278000113000165000000000000000000REP       United States Representative, Dist 11                   Mike Conaway                          PRECINCT 3                                             01 
01060010005000144000026000118000000000000000000REP       United States Representative, Dist 11                   Mike Conaway                          PRECINCT 4                                             01 
01060010006000122000051000071000000000000000000REP       United States Representative, Dist 11                   Mike Conaway                          PRECINCT 046                                           01 
01060020001000000000000000000000000000000000000REP       United States Representative, Dist 11                   OVER VOTES                            PRECINCT 1                                             01 
01060020002000000000000000000000000000000000000REP       United States Representative, Dist 11                   OVER VOTES                            PRECINCT 2                                             01 
01060020003000000000000000000000000000000000000REP       United States Representative, Dist 11                   OVER VOTES                            PRECINCT 025                                           01 
01060020004000000000000000000000000000000000000REP       United States Representative, Dist 11                   OVER VOTES                            PRECINCT 3                                             01 
01060020005000000000000000000000000000000000000REP       United States Representative, Dist 11                   OVER VOTES                            PRECINCT 4                                             01 
01060020006000000000000000000000000000000000000REP       United States Representative, Dist 11                   OVER VOTES                            PRECINCT 046                                           01 
01060030001000048000021000027000000000000000000REP       United States Representative, Dist 11                   UNDER VOTES                           PRECINCT 1                                             01 
01060030002000020000005000015000000000000000000REP       United States Representative, Dist 11                   UNDER VOTES                           PRECINCT 2                                             01 
01060030003000024000007000017000000000000000000REP       United States Representative, Dist 11                   UNDER VOTES                           PRECINCT 025                                           01 
01060030004000075000038000037000000000000000000REP       United States Representative, Dist 11                   UNDER VOTES                           PRECINCT 3                                             01 
01060030005000035000008000027000000000000000000REP       United States Representative, Dist 11                   UNDER VOTES                           PRECINCT 4                                             01 
01060030006000027000016000011000000000000000000REP       United States Representative, Dist 11                   UNDER VOTES                           PRECINCT 046                                           01 
01070010001000065000029000036000000000000000000REP       Railroad Commissioner                                   Ron Hale                              PRECINCT 1                                             01 
01070010002000016000004000012000000000000000000REP       Railroad Commissioner                                   Ron Hale                              PRECINCT 2                                             01 
01070010003000034000016000018000000000000000000REP       Railroad Commissioner                                   Ron Hale                              PRECINCT 025                                           01 
01070010004000070000029000041000000000000000000REP       Railroad Commissioner                                   Ron Hale                              PRECINCT 3                                             01 
01070010005000036000009000027000000000000000000REP       Railroad Commissioner                                   Ron Hale                              PRECINCT 4                                             01 
01070010006000020000011000009000000000000000000REP       Railroad Commissioner                                   Ron Hale                              PRECINCT 046                                           01 
01070020001000037000012000025000000000000000000REP       Railroad Commissioner                                   Doug Jeffrey                          PRECINCT 1                                             01 
01070020002000020000002000018000000000000000000REP       Railroad Commissioner                                   Doug Jeffrey                          PRECINCT 2                                             01 
01070020003000018000007000011000000000000000000REP       Railroad Commissioner                                   Doug Jeffrey                          PRECINCT 025                                           01 
01070020004000036000014000022000000000000000000REP       Railroad Commissioner                                   Doug Jeffrey                          PRECINCT 3                                             01 
01070020005000029000010000019000000000000000000REP       Railroad Commissioner                                   Doug Jeffrey                          PRECINCT 4                                             01 
01070020006000029000013000016000000000000000000REP       Railroad Commissioner                                   Doug Jeffrey                          PRECINCT 046                                           01 
01070030001000007000002000005000000000000000000REP       Railroad Commissioner                                   John Greytok                          PRECINCT 1                                             01 
01070030002000009000001000008000000000000000000REP       Railroad Commissioner                                   John Greytok                          PRECINCT 2                                             01 
01070030003000003000001000002000000000000000000REP       Railroad Commissioner                                   John Greytok                          PRECINCT 025                                           01 
01070030004000014000009000005000000000000000000REP       Railroad Commissioner                                   John Greytok                          PRECINCT 3                                             01 
01070030005000006000000000006000000000000000000REP       Railroad Commissioner                                   John Greytok                          PRECINCT 4                                             01 
01070030006000005000002000003000000000000000000REP       Railroad Commissioner                                   John Greytok                          PRECINCT 046                                           01 
01070040001000053000019000034000000000000000000REP       Railroad Commissioner                                   Wayne Christian                       PRECINCT 1                                             01 
01070040002000015000001000014000000000000000000REP       Railroad Commissioner                                   Wayne Christian                       PRECINCT 2                                             01 
01070040003000015000008000007000000000000000000REP       Railroad Commissioner                                   Wayne Christian                       PRECINCT 025                                           01 
01070040004000055000022000033000000000000000000REP       Railroad Commissioner                                   Wayne Christian                       PRECINCT 3                                             01 
01070040005000028000006000022000000000000000000REP       Railroad Commissioner                                   Wayne Christian                       PRECINCT 4                                             01 
01070040006000015000002000013000000000000000000REP       Railroad Commissioner                                   Wayne Christian                       PRECINCT 046                                           01 
01070050001000028000013000015000000000000000000REP       Railroad Commissioner                                   Weston Martinez                       PRECINCT 1                                             01 
01070050002000005000001000004000000000000000000REP       Railroad Commissioner                                   Weston Martinez                       PRECINCT 2                                             01 
01070050003000013000007000006000000000000000000REP       Railroad Commissioner                                   Weston Martinez                       PRECINCT 025                                           01 
01070050004000037000020000017000000000000000000REP       Railroad Commissioner                                   Weston Martinez                       PRECINCT 3                                             01 
01070050005000024000002000022000000000000000000REP       Railroad Commissioner                                   Weston Martinez                       PRECINCT 4                                             01 
01070050006000018000004000014000000000000000000REP       Railroad Commissioner                                   Weston Martinez                       PRECINCT 046                                           01 
01070060001000032000014000018000000000000000000REP       Railroad Commissioner                                   Gary Gates                            PRECINCT 1                                             01 
01070060002000019000002000017000000000000000000REP       Railroad Commissioner                                   Gary Gates                            PRECINCT 2                                             01 
01070060003000010000004000006000000000000000000REP       Railroad Commissioner                                   Gary Gates                            PRECINCT 025                                           01 
01070060004000024000010000014000000000000000000REP       Railroad Commissioner                                   Gary Gates                            PRECINCT 3                                             01 
01070060005000018000001000017000000000000000000REP       Railroad Commissioner                                   Gary Gates                            PRECINCT 4                                             01 
01070060006000007000002000005000000000000000000REP       Railroad Commissioner                                   Gary Gates                            PRECINCT 046                                           01 
01070070001000016000005000011000000000000000000REP       Railroad Commissioner                                   Lance N. Christian                    PRECINCT 1                                             01 
01070070002000008000006000002000000000000000000REP       Railroad Commissioner                                   Lance N. Christian                    PRECINCT 2                                             01 
01070070003000008000003000005000000000000000000REP       Railroad Commissioner                                   Lance N. Christian                    PRECINCT 025                                           01 
01070070004000016000007000009000000000000000000REP       Railroad Commissioner                                   Lance N. Christian                    PRECINCT 3                                             01 
01070070005000004000000000004000000000000000000REP       Railroad Commissioner                                   Lance N. Christian                    PRECINCT 4                                             01 
01070070006000007000004000003000000000000000000REP       Railroad Commissioner                                   Lance N. Christian                    PRECINCT 046                                           01 
01070080001000001000001000000000000000000000000REP       Railroad Commissioner                                   OVER VOTES                            PRECINCT 1                                             01 
01070080002000000000000000000000000000000000000REP       Railroad Commissioner                                   OVER VOTES                            PRECINCT 2                                             01 
01070080003000000000000000000000000000000000000REP       Railroad Commissioner                                   OVER VOTES                            PRECINCT 025                                           01 
01070080004000001000001000000000000000000000000REP       Railroad Commissioner                                   OVER VOTES                            PRECINCT 3                                             01 
01070080005000000000000000000000000000000000000REP       Railroad Commissioner                                   OVER VOTES                            PRECINCT 4                                             01 
01070080006000000000000000000000000000000000000REP       Railroad Commissioner                                   OVER VOTES                            PRECINCT 046                                           01 
01070090001000090000032000058000000000000000000REP       Railroad Commissioner                                   UNDER VOTES                           PRECINCT 1                                             01 
01070090002000018000003000015000000000000000000REP       Railroad Commissioner                                   UNDER VOTES                           PRECINCT 2                                             01 
01070090003000039000011000028000000000000000000REP       Railroad Commissioner                                   UNDER VOTES                           PRECINCT 025                                           01 
01070090004000100000039000061000000000000000000REP       Railroad Commissioner                                   UNDER VOTES                           PRECINCT 3                                             01 
01070090005000034000006000028000000000000000000REP       Railroad Commissioner                                   UNDER VOTES                           PRECINCT 4                                             01 
01070090006000048000029000019000000000000000000REP       Railroad Commissioner                                   UNDER VOTES                           PRECINCT 046                                           01 
01080010001000142000056000086000000000000000000REP       Justice, Supreme Court, Place 3                         Michael Massengale                    PRECINCT 1                                             01 
01080010002000062000009000053000000000000000000REP       Justice, Supreme Court, Place 3                         Michael Massengale                    PRECINCT 2                                             01 
01080010003000069000031000038000000000000000000REP       Justice, Supreme Court, Place 3                         Michael Massengale                    PRECINCT 025                                           01 
01080010004000143000063000080000000000000000000REP       Justice, Supreme Court, Place 3                         Michael Massengale                    PRECINCT 3                                             01 
01080010005000082000019000063000000000000000000REP       Justice, Supreme Court, Place 3                         Michael Massengale                    PRECINCT 4                                             01 
01080010006000057000025000032000000000000000000REP       Justice, Supreme Court, Place 3                         Michael Massengale                    PRECINCT 046                                           01 
01080020001000112000043000069000000000000000000REP       Justice, Supreme Court, Place 3                         Debra Lehrmann                        PRECINCT 1                                             01 
01080020002000028000006000022000000000000000000REP       Justice, Supreme Court, Place 3                         Debra Lehrmann                        PRECINCT 2                                             01 
01080020003000040000018000022000000000000000000REP       Justice, Supreme Court, Place 3                         Debra Lehrmann                        PRECINCT 025                                           01 
01080020004000107000051000056000000000000000000REP       Justice, Supreme Court, Place 3                         Debra Lehrmann                        PRECINCT 3                                             01 
01080020005000058000011000047000000000000000000REP       Justice, Supreme Court, Place 3                         Debra Lehrmann                        PRECINCT 4                                             01 
01080020006000047000020000027000000000000000000REP       Justice, Supreme Court, Place 3                         Debra Lehrmann                        PRECINCT 046                                           01 
01080030001000000000000000000000000000000000000REP       Justice, Supreme Court, Place 3                         OVER VOTES                            PRECINCT 1                                             01 
01080030002000000000000000000000000000000000000REP       Justice, Supreme Court, Place 3                         OVER VOTES                            PRECINCT 2                                             01 
01080030003000000000000000000000000000000000000REP       Justice, Supreme Court, Place 3                         OVER VOTES                            PRECINCT 025                                           01 
01080030004000000000000000000000000000000000000REP       Justice, Supreme Court, Place 3                         OVER VOTES                            PRECINCT 3                                             01 
01080030005000000000000000000000000000000000000REP       Justice, Supreme Court, Place 3                         OVER VOTES                            PRECINCT 4                                             01 
01080030006000000000000000000000000000000000000REP       Justice, Supreme Court, Place 3                         OVER VOTES                            PRECINCT 046                                           01 
01080040001000075000028000047000000000000000000REP       Justice, Supreme Court, Place 3                         UNDER VOTES                           PRECINCT 1                                             01 
01080040002000020000005000015000000000000000000REP       Justice, Supreme Court, Place 3                         UNDER VOTES                           PRECINCT 2                                             01 
01080040003000031000008000023000000000000000000REP       Justice, Supreme Court, Place 3                         UNDER VOTES                           PRECINCT 025                                           01 
01080040004000103000037000066000000000000000000REP       Justice, Supreme Court, Place 3                         UNDER VOTES                           PRECINCT 3                                             01 
01080040005000039000004000035000000000000000000REP       Justice, Supreme Court, Place 3                         UNDER VOTES                           PRECINCT 4                                             01 
01080040006000045000022000023000000000000000000REP       Justice, Supreme Court, Place 3                         UNDER VOTES                           PRECINCT 046                                           01 
01090010001000119000048000071000000000000000000REP       Justice, Supreme Court, Place 5                         Paul Green                            PRECINCT 1                                             01 
01090010002000047000009000038000000000000000000REP       Justice, Supreme Court, Place 5                         Paul Green                            PRECINCT 2                                             01 
01090010003000059000029000030000000000000000000REP       Justice, Supreme Court, Place 5                         Paul Green                            PRECINCT 025                                           01 
01090010004000136000059000077000000000000000000REP       Justice, Supreme Court, Place 5                         Paul Green                            PRECINCT 3                                             01 
01090010005000070000012000058000000000000000000REP       Justice, Supreme Court, Place 5                         Paul Green                            PRECINCT 4                                             01 
01090010006000063000026000037000000000000000000REP       Justice, Supreme Court, Place 5                         Paul Green                            PRECINCT 046                                           01 
01090020001000107000045000062000000000000000000REP       Justice, Supreme Court, Place 5                         Rick Green                            PRECINCT 1                                             01 
01090020002000033000007000026000000000000000000REP       Justice, Supreme Court, Place 5                         Rick Green                            PRECINCT 2                                             01 
01090020003000035000014000021000000000000000000REP       Justice, Supreme Court, Place 5                         Rick Green                            PRECINCT 025                                           01 
01090020004000104000045000059000000000000000000REP       Justice, Supreme Court, Place 5                         Rick Green                            PRECINCT 3                                             01 
01090020005000060000012000048000000000000000000REP       Justice, Supreme Court, Place 5                         Rick Green                            PRECINCT 4                                             01 
01090020006000036000014000022000000000000000000REP       Justice, Supreme Court, Place 5                         Rick Green                            PRECINCT 046                                           01 
01090030001000000000000000000000000000000000000REP       Justice, Supreme Court, Place 5                         OVER VOTES                            PRECINCT 1                                             01 
01090030002000000000000000000000000000000000000REP       Justice, Supreme Court, Place 5                         OVER VOTES                            PRECINCT 2                                             01 
01090030003000000000000000000000000000000000000REP       Justice, Supreme Court, Place 5                         OVER VOTES                            PRECINCT 025                                           01 
01090030004000000000000000000000000000000000000REP       Justice, Supreme Court, Place 5                         OVER VOTES                            PRECINCT 3                                             01 
01090030005000000000000000000000000000000000000REP       Justice, Supreme Court, Place 5                         OVER VOTES                            PRECINCT 4                                             01 
01090030006000000000000000000000000000000000000REP       Justice, Supreme Court, Place 5                         OVER VOTES                            PRECINCT 046                                           01 
01090040001000103000034000069000000000000000000REP       Justice, Supreme Court, Place 5                         UNDER VOTES                           PRECINCT 1                                             01 
01090040002000030000004000026000000000000000000REP       Justice, Supreme Court, Place 5                         UNDER VOTES                           PRECINCT 2                                             01 
01090040003000046000014000032000000000000000000REP       Justice, Supreme Court, Place 5                         UNDER VOTES                           PRECINCT 025                                           01 
01090040004000113000047000066000000000000000000REP       Justice, Supreme Court, Place 5                         UNDER VOTES                           PRECINCT 3                                             01 
01090040005000049000010000039000000000000000000REP       Justice, Supreme Court, Place 5                         UNDER VOTES                           PRECINCT 4                                             01 
01090040006000050000027000023000000000000000000REP       Justice, Supreme Court, Place 5                         UNDER VOTES                           PRECINCT 046                                           01 
01100010001000111000044000067000000000000000000REP       Justice, Supreme Court, Place 9                         Eva Guzman                            PRECINCT 1                                             01 
01100010002000044000008000036000000000000000000REP       Justice, Supreme Court, Place 9                         Eva Guzman                            PRECINCT 2                                             01 
01100010003000056000026000030000000000000000000REP       Justice, Supreme Court, Place 9                         Eva Guzman                            PRECINCT 025                                           01 
01100010004000130000063000067000000000000000000REP       Justice, Supreme Court, Place 9                         Eva Guzman                            PRECINCT 3                                             01 
01100010005000082000012000070000000000000000000REP       Justice, Supreme Court, Place 9                         Eva Guzman                            PRECINCT 4                                             01 
01100010006000056000027000029000000000000000000REP       Justice, Supreme Court, Place 9                         Eva Guzman                            PRECINCT 046                                           01 
01100020001000135000055000080000000000000000000REP       Justice, Supreme Court, Place 9                         Joe Pool                              PRECINCT 1                                             01 
01100020002000046000009000037000000000000000000REP       Justice, Supreme Court, Place 9                         Joe Pool                              PRECINCT 2                                             01 
01100020003000048000021000027000000000000000000REP       Justice, Supreme Court, Place 9                         Joe Pool                              PRECINCT 025                                           01 
01100020004000126000050000076000000000000000000REP       Justice, Supreme Court, Place 9                         Joe Pool                              PRECINCT 3                                             01 
01100020005000064000016000048000000000000000000REP       Justice, Supreme Court, Place 9                         Joe Pool                              PRECINCT 4                                             01 
01100020006000053000017000036000000000000000000REP       Justice, Supreme Court, Place 9                         Joe Pool                              PRECINCT 046                                           01 
01100030001000000000000000000000000000000000000REP       Justice, Supreme Court, Place 9                         OVER VOTES                            PRECINCT 1                                             01 
01100030002000000000000000000000000000000000000REP       Justice, Supreme Court, Place 9                         OVER VOTES                            PRECINCT 2                                             01 
01100030003000000000000000000000000000000000000REP       Justice, Supreme Court, Place 9                         OVER VOTES                            PRECINCT 025                                           01 
01100030004000000000000000000000000000000000000REP       Justice, Supreme Court, Place 9                         OVER VOTES                            PRECINCT 3                                             01 
01100030005000000000000000000000000000000000000REP       Justice, Supreme Court, Place 9                         OVER VOTES                            PRECINCT 4                                             01 
01100030006000000000000000000000000000000000000REP       Justice, Supreme Court, Place 9                         OVER VOTES                            PRECINCT 046                                           01 
01100040001000083000028000055000000000000000000REP       Justice, Supreme Court, Place 9                         UNDER VOTES                           PRECINCT 1                                             01 
01100040002000020000003000017000000000000000000REP       Justice, Supreme Court, Place 9                         UNDER VOTES                           PRECINCT 2                                             01 
01100040003000036000010000026000000000000000000REP       Justice, Supreme Court, Place 9                         UNDER VOTES                           PRECINCT 025                                           01 
01100040004000097000038000059000000000000000000REP       Justice, Supreme Court, Place 9                         UNDER VOTES                           PRECINCT 3                                             01 
01100040005000033000006000027000000000000000000REP       Justice, Supreme Court, Place 9                         UNDER VOTES                           PRECINCT 4                                             01 
01100040006000040000023000017000000000000000000REP       Justice, Supreme Court, Place 9                         UNDER VOTES                           PRECINCT 046                                           01 
01110010001000092000036000056000000000000000000REP       Judge, Court of Criminal Appeals, Pl 2                  Mary Lou Keel                         PRECINCT 1                                             01 
01110010002000020000005000015000000000000000000REP       Judge, Court of Criminal Appeals, Pl 2                  Mary Lou Keel                         PRECINCT 2                                             01 
01110010003000044000018000026000000000000000000REP       Judge, Court of Criminal Appeals, Pl 2                  Mary Lou Keel                         PRECINCT 025                                           01 
01110010004000109000056000053000000000000000000REP       Judge, Court of Criminal Appeals, Pl 2                  Mary Lou Keel                         PRECINCT 3                                             01 
01110010005000032000007000025000000000000000000REP       Judge, Court of Criminal Appeals, Pl 2                  Mary Lou Keel                         PRECINCT 4                                             01 
01110010006000037000016000021000000000000000000REP       Judge, Court of Criminal Appeals, Pl 2                  Mary Lou Keel                         PRECINCT 046                                           01 
01110020001000093000039000054000000000000000000REP       Judge, Court of Criminal Appeals, Pl 2                  Ray Wheless                           PRECINCT 1                                             01 
01110020002000042000004000038000000000000000000REP       Judge, Court of Criminal Appeals, Pl 2                  Ray Wheless                           PRECINCT 2                                             01 
01110020003000035000016000019000000000000000000REP       Judge, Court of Criminal Appeals, Pl 2                  Ray Wheless                           PRECINCT 025                                           01 
01110020004000090000039000051000000000000000000REP       Judge, Court of Criminal Appeals, Pl 2                  Ray Wheless                           PRECINCT 3                                             01 
01110020005000071000015000056000000000000000000REP       Judge, Court of Criminal Appeals, Pl 2                  Ray Wheless                           PRECINCT 4                                             01 
01110020006000038000016000022000000000000000000REP       Judge, Court of Criminal Appeals, Pl 2                  Ray Wheless                           PRECINCT 046                                           01 
01110030001000049000020000029000000000000000000REP       Judge, Court of Criminal Appeals, Pl 2                  Chris Oldner                          PRECINCT 1                                             01 
01110030002000026000007000019000000000000000000REP       Judge, Court of Criminal Appeals, Pl 2                  Chris Oldner                          PRECINCT 2                                             01 
01110030003000025000013000012000000000000000000REP       Judge, Court of Criminal Appeals, Pl 2                  Chris Oldner                          PRECINCT 025                                           01 
01110030004000052000018000034000000000000000000REP       Judge, Court of Criminal Appeals, Pl 2                  Chris Oldner                          PRECINCT 3                                             01 
01110030005000034000004000030000000000000000000REP       Judge, Court of Criminal Appeals, Pl 2                  Chris Oldner                          PRECINCT 4                                             01 
01110030006000024000007000017000000000000000000REP       Judge, Court of Criminal Appeals, Pl 2                  Chris Oldner                          PRECINCT 046                                           01 
01110040001000000000000000000000000000000000000REP       Judge, Court of Criminal Appeals, Pl 2                  OVER VOTES                            PRECINCT 1                                             01 
01110040002000000000000000000000000000000000000REP       Judge, Court of Criminal Appeals, Pl 2                  OVER VOTES                            PRECINCT 2                                             01 
01110040003000000000000000000000000000000000000REP       Judge, Court of Criminal Appeals, Pl 2                  OVER VOTES                            PRECINCT 025                                           01 
01110040004000000000000000000000000000000000000REP       Judge, Court of Criminal Appeals, Pl 2                  OVER VOTES                            PRECINCT 3                                             01 
01110040005000000000000000000000000000000000000REP       Judge, Court of Criminal Appeals, Pl 2                  OVER VOTES                            PRECINCT 4                                             01 
01110040006000000000000000000000000000000000000REP       Judge, Court of Criminal Appeals, Pl 2                  OVER VOTES                            PRECINCT 046                                           01 
01110050001000095000032000063000000000000000000REP       Judge, Court of Criminal Appeals, Pl 2                  UNDER VOTES                           PRECINCT 1                                             01 
01110050002000022000004000018000000000000000000REP       Judge, Court of Criminal Appeals, Pl 2                  UNDER VOTES                           PRECINCT 2                                             01 
01110050003000036000010000026000000000000000000REP       Judge, Court of Criminal Appeals, Pl 2                  UNDER VOTES                           PRECINCT 025                                           01 
01110050004000102000038000064000000000000000000REP       Judge, Court of Criminal Appeals, Pl 2                  UNDER VOTES                           PRECINCT 3                                             01 
01110050005000042000008000034000000000000000000REP       Judge, Court of Criminal Appeals, Pl 2                  UNDER VOTES                           PRECINCT 4                                             01 
01110050006000050000028000022000000000000000000REP       Judge, Court of Criminal Appeals, Pl 2                  UNDER VOTES                           PRECINCT 046                                           01 
01120010001000135000052000083000000000000000000REP       Judge, Court of Criminal Appeals, Pl 5                  Scott Walker                          PRECINCT 1                                             01 
01120010002000041000009000032000000000000000000REP       Judge, Court of Criminal Appeals, Pl 5                  Scott Walker                          PRECINCT 2                                             01 
01120010003000057000025000032000000000000000000REP       Judge, Court of Criminal Appeals, Pl 5                  Scott Walker                          PRECINCT 025                                           01 
01120010004000123000045000078000000000000000000REP       Judge, Court of Criminal Appeals, Pl 5                  Scott Walker                          PRECINCT 3                                             01 
01120010005000077000012000065000000000000000000REP       Judge, Court of Criminal Appeals, Pl 5                  Scott Walker                          PRECINCT 4                                             01 
01120010006000054000017000037000000000000000000REP       Judge, Court of Criminal Appeals, Pl 5                  Scott Walker                          PRECINCT 046                                           01 
01120020001000041000020000021000000000000000000REP       Judge, Court of Criminal Appeals, Pl 5                  Brent Webster                         PRECINCT 1                                             01 
01120020002000026000005000021000000000000000000REP       Judge, Court of Criminal Appeals, Pl 5                  Brent Webster                         PRECINCT 2                                             01 
01120020003000019000008000011000000000000000000REP       Judge, Court of Criminal Appeals, Pl 5                  Brent Webster                         PRECINCT 025                                           01 
01120020004000050000027000023000000000000000000REP       Judge, Court of Criminal Appeals, Pl 5                  Brent Webster                         PRECINCT 3                                             01 
01120020005000029000007000022000000000000000000REP       Judge, Court of Criminal Appeals, Pl 5                  Brent Webster                         PRECINCT 4                                             01 
01120020006000019000010000009000000000000000000REP       Judge, Court of Criminal Appeals, Pl 5                  Brent Webster                         PRECINCT 046                                           01 
01120030001000021000011000010000000000000000000REP       Judge, Court of Criminal Appeals, Pl 5                  Sid Harle                             PRECINCT 1                                             01 
01120030002000003000000000003000000000000000000REP       Judge, Court of Criminal Appeals, Pl 5                  Sid Harle                             PRECINCT 2                                             01 
01120030003000010000004000006000000000000000000REP       Judge, Court of Criminal Appeals, Pl 5                  Sid Harle                             PRECINCT 025                                           01 
01120030004000021000013000008000000000000000000REP       Judge, Court of Criminal Appeals, Pl 5                  Sid Harle                             PRECINCT 3                                             01 
01120030005000010000001000009000000000000000000REP       Judge, Court of Criminal Appeals, Pl 5                  Sid Harle                             PRECINCT 4                                             01 
01120030006000006000004000002000000000000000000REP       Judge, Court of Criminal Appeals, Pl 5                  Sid Harle                             PRECINCT 046                                           01 
01120040001000047000016000031000000000000000000REP       Judge, Court of Criminal Appeals, Pl 5                  Steve Smith                           PRECINCT 1                                             01 
01120040002000020000002000018000000000000000000REP       Judge, Court of Criminal Appeals, Pl 5                  Steve Smith                           PRECINCT 2                                             01 
01120040003000016000008000008000000000000000000REP       Judge, Court of Criminal Appeals, Pl 5                  Steve Smith                           PRECINCT 025                                           01 
01120040004000051000028000023000000000000000000REP       Judge, Court of Criminal Appeals, Pl 5                  Steve Smith                           PRECINCT 3                                             01 
01120040005000023000007000016000000000000000000REP       Judge, Court of Criminal Appeals, Pl 5                  Steve Smith                           PRECINCT 4                                             01 
01120040006000024000009000015000000000000000000REP       Judge, Court of Criminal Appeals, Pl 5                  Steve Smith                           PRECINCT 046                                           01 
01120050001000000000000000000000000000000000000REP       Judge, Court of Criminal Appeals, Pl 5                  OVER VOTES                            PRECINCT 1                                             01 
01120050002000000000000000000000000000000000000REP       Judge, Court of Criminal Appeals, Pl 5                  OVER VOTES                            PRECINCT 2                                             01 
01120050003000000000000000000000000000000000000REP       Judge, Court of Criminal Appeals, Pl 5                  OVER VOTES                            PRECINCT 025                                           01 
01120050004000000000000000000000000000000000000REP       Judge, Court of Criminal Appeals, Pl 5                  OVER VOTES                            PRECINCT 3                                             01 
01120050005000000000000000000000000000000000000REP       Judge, Court of Criminal Appeals, Pl 5                  OVER VOTES                            PRECINCT 4                                             01 
01120050006000000000000000000000000000000000000REP       Judge, Court of Criminal Appeals, Pl 5                  OVER VOTES                            PRECINCT 046                                           01 
01120060001000085000028000057000000000000000000REP       Judge, Court of Criminal Appeals, Pl 5                  UNDER VOTES                           PRECINCT 1                                             01 
01120060002000020000004000016000000000000000000REP       Judge, Court of Criminal Appeals, Pl 5                  UNDER VOTES                           PRECINCT 2                                             01 
01120060003000038000012000026000000000000000000REP       Judge, Court of Criminal Appeals, Pl 5                  UNDER VOTES                           PRECINCT 025                                           01 
01120060004000108000038000070000000000000000000REP       Judge, Court of Criminal Appeals, Pl 5                  UNDER VOTES                           PRECINCT 3                                             01 
01120060005000040000007000033000000000000000000REP       Judge, Court of Criminal Appeals, Pl 5                  UNDER VOTES                           PRECINCT 4                                             01 
01120060006000046000027000019000000000000000000REP       Judge, Court of Criminal Appeals, Pl 5                  UNDER VOTES                           PRECINCT 046                                           01 
01130010001000130000057000073000000000000000000REP       Judge, Court of Criminal Appeals, Pl 6                  Richard Davis                         PRECINCT 1                                             01 
01130010002000049000010000039000000000000000000REP       Judge, Court of Criminal Appeals, Pl 6                  Richard Davis                         PRECINCT 2                                             01 
01130010003000055000024000031000000000000000000REP       Judge, Court of Criminal Appeals, Pl 6                  Richard Davis                         PRECINCT 025                                           01 
01130010004000137000054000083000000000000000000REP       Judge, Court of Criminal Appeals, Pl 6                  Richard Davis                         PRECINCT 3                                             01 
01130010005000078000012000066000000000000000000REP       Judge, Court of Criminal Appeals, Pl 6                  Richard Davis                         PRECINCT 4                                             01 
01130010006000045000010000035000000000000000000REP       Judge, Court of Criminal Appeals, Pl 6                  Richard Davis                         PRECINCT 046                                           01 
01130020001000100000035000065000000000000000000REP       Judge, Court of Criminal Appeals, Pl 6                  Michael E. Keasler                    PRECINCT 1                                             01 
01130020002000035000006000029000000000000000000REP       Judge, Court of Criminal Appeals, Pl 6                  Michael E. Keasler                    PRECINCT 2                                             01 
01130020003000040000018000022000000000000000000REP       Judge, Court of Criminal Appeals, Pl 6                  Michael E. Keasler                    PRECINCT 025                                           01 
01130020004000100000051000049000000000000000000REP       Judge, Court of Criminal Appeals, Pl 6                  Michael E. Keasler                    PRECINCT 3                                             01 
01130020005000051000010000041000000000000000000REP       Judge, Court of Criminal Appeals, Pl 6                  Michael E. Keasler                    PRECINCT 4                                             01 
01130020006000047000025000022000000000000000000REP       Judge, Court of Criminal Appeals, Pl 6                  Michael E. Keasler                    PRECINCT 046                                           01 
01130030001000000000000000000000000000000000000REP       Judge, Court of Criminal Appeals, Pl 6                  OVER VOTES                            PRECINCT 1                                             01 
01130030002000000000000000000000000000000000000REP       Judge, Court of Criminal Appeals, Pl 6                  OVER VOTES                            PRECINCT 2                                             01 
01130030003000000000000000000000000000000000000REP       Judge, Court of Criminal Appeals, Pl 6                  OVER VOTES                            PRECINCT 025                                           01 
01130030004000000000000000000000000000000000000REP       Judge, Court of Criminal Appeals, Pl 6                  OVER VOTES                            PRECINCT 3                                             01 
01130030005000000000000000000000000000000000000REP       Judge, Court of Criminal Appeals, Pl 6                  OVER VOTES                            PRECINCT 4                                             01 
01130030006000000000000000000000000000000000000REP       Judge, Court of Criminal Appeals, Pl 6                  OVER VOTES                            PRECINCT 046                                           01 
01130040001000099000035000064000000000000000000REP       Judge, Court of Criminal Appeals, Pl 6                  UNDER VOTES                           PRECINCT 1                                             01 
01130040002000026000004000022000000000000000000REP       Judge, Court of Criminal Appeals, Pl 6                  UNDER VOTES                           PRECINCT 2                                             01 
01130040003000045000015000030000000000000000000REP       Judge, Court of Criminal Appeals, Pl 6                  UNDER VOTES                           PRECINCT 025                                           01 
01130040004000116000046000070000000000000000000REP       Judge, Court of Criminal Appeals, Pl 6                  UNDER VOTES                           PRECINCT 3                                             01 
01130040005000050000012000038000000000000000000REP       Judge, Court of Criminal Appeals, Pl 6                  UNDER VOTES                           PRECINCT 4                                             01 
01130040006000057000032000025000000000000000000REP       Judge, Court of Criminal Appeals, Pl 6                  UNDER VOTES                           PRECINCT 046                                           01 
01140010001000223000093000130000000000000000000REP       Member, State BoE, District 15                          Marty Rowley                          PRECINCT 1                                             01 
01140010002000079000015000064000000000000000000REP       Member, State BoE, District 15                          Marty Rowley                          PRECINCT 2                                             01 
01140010003000099000044000055000000000000000000REP       Member, State BoE, District 15                          Marty Rowley                          PRECINCT 025                                           01 
01140010004000220000098000122000000000000000000REP       Member, State BoE, District 15                          Marty Rowley                          PRECINCT 3                                             01 
01140010005000117000023000094000000000000000000REP       Member, State BoE, District 15                          Marty Rowley                          PRECINCT 4                                             01 
01140010006000095000038000057000000000000000000REP       Member, State BoE, District 15                          Marty Rowley                          PRECINCT 046                                           01 
01140020001000000000000000000000000000000000000REP       Member, State BoE, District 15                          OVER VOTES                            PRECINCT 1                                             01 
01140020002000000000000000000000000000000000000REP       Member, State BoE, District 15                          OVER VOTES                            PRECINCT 2                                             01 
01140020003000000000000000000000000000000000000REP       Member, State BoE, District 15                          OVER VOTES                            PRECINCT 025                                           01 
01140020004000000000000000000000000000000000000REP       Member, State BoE, District 15                          OVER VOTES                            PRECINCT 3                                             01 
01140020005000000000000000000000000000000000000REP       Member, State BoE, District 15                          OVER VOTES                            PRECINCT 4                                             01 
01140020006000000000000000000000000000000000000REP       Member, State BoE, District 15                          OVER VOTES                            PRECINCT 046                                           01 
01140030001000106000034000072000000000000000000REP       Member, State BoE, District 15                          UNDER VOTES                           PRECINCT 1                                             01 
01140030002000031000005000026000000000000000000REP       Member, State BoE, District 15                          UNDER VOTES                           PRECINCT 2                                             01 
01140030003000041000013000028000000000000000000REP       Member, State BoE, District 15                          UNDER VOTES                           PRECINCT 025                                           01 
01140030004000133000053000080000000000000000000REP       Member, State BoE, District 15                          UNDER VOTES                           PRECINCT 3                                             01 
01140030005000062000011000051000000000000000000REP       Member, State BoE, District 15                          UNDER VOTES                           PRECINCT 4                                             01 
01140030006000054000029000025000000000000000000REP       Member, State BoE, District 15                          UNDER VOTES                           PRECINCT 046                                           01 
01150010001000258000104000154000000000000000000REP       State Senator, District 28                              Charles Perry                         PRECINCT 1                                             01 
01150010002000083000016000067000000000000000000REP       State Senator, District 28                              Charles Perry                         PRECINCT 2                                             01 
01150010003000112000046000066000000000000000000REP       State Senator, District 28                              Charles Perry                         PRECINCT 025                                           01 
01150010004000245000108000137000000000000000000REP       State Senator, District 28                              Charles Perry                         PRECINCT 3                                             01 
01150010005000133000028000105000000000000000000REP       State Senator, District 28                              Charles Perry                         PRECINCT 4                                             01 
01150010006000118000050000068000000000000000000REP       State Senator, District 28                              Charles Perry                         PRECINCT 046                                           01 
01150020001000000000000000000000000000000000000REP       State Senator, District 28                              OVER VOTES                            PRECINCT 1                                             01 
01150020002000000000000000000000000000000000000REP       State Senator, District 28                              OVER VOTES                            PRECINCT 2                                             01 
01150020003000000000000000000000000000000000000REP       State Senator, District 28                              OVER VOTES                            PRECINCT 025                                           01 
01150020004000000000000000000000000000000000000REP       State Senator, District 28                              OVER VOTES                            PRECINCT 3                                             01 
01150020005000000000000000000000000000000000000REP       State Senator, District 28                              OVER VOTES                            PRECINCT 4                                             01 
01150020006000000000000000000000000000000000000REP       State Senator, District 28                              OVER VOTES                            PRECINCT 046                                           01 
01150030001000071000023000048000000000000000000REP       State Senator, District 28                              UNDER VOTES                           PRECINCT 1                                             01 
01150030002000027000004000023000000000000000000REP       State Senator, District 28                              UNDER VOTES                           PRECINCT 2                                             01 
01150030003000028000011000017000000000000000000REP       State Senator, District 28                              UNDER VOTES                           PRECINCT 025                                           01 
01150030004000108000043000065000000000000000000REP       State Senator, District 28                              UNDER VOTES                           PRECINCT 3                                             01 
01150030005000046000006000040000000000000000000REP       State Senator, District 28                              UNDER VOTES                           PRECINCT 4                                             01 
01150030006000031000017000014000000000000000000REP       State Senator, District 28                              UNDER VOTES                           PRECINCT 046                                           01 
01160010001000240000099000141000000000000000000REP       State Representative, District 83                       Dustin Burrows                        PRECINCT 1                                             01 
01160010002000081000016000065000000000000000000REP       State Representative, District 83                       Dustin Burrows                        PRECINCT 2                                             01 
01160010003000106000044000062000000000000000000REP       State Representative, District 83                       Dustin Burrows                        PRECINCT 025                                           01 
01160010004000225000098000127000000000000000000REP       State Representative, District 83                       Dustin Burrows                        PRECINCT 3                                             01 
01160010005000126000025000101000000000000000000REP       State Representative, District 83                       Dustin Burrows                        PRECINCT 4                                             01 
01160010006000103000042000061000000000000000000REP       State Representative, District 83                       Dustin Burrows                        PRECINCT 046                                           01 
01160020001000000000000000000000000000000000000REP       State Representative, District 83                       OVER VOTES                            PRECINCT 1                                             01 
01160020002000000000000000000000000000000000000REP       State Representative, District 83                       OVER VOTES                            PRECINCT 2                                             01 
01160020003000000000000000000000000000000000000REP       State Representative, District 83                       OVER VOTES                            PRECINCT 025                                           01 
01160020004000000000000000000000000000000000000REP       State Representative, District 83                       OVER VOTES                            PRECINCT 3                                             01 
01160020005000000000000000000000000000000000000REP       State Representative, District 83                       OVER VOTES                            PRECINCT 4                                             01 
01160020006000000000000000000000000000000000000REP       State Representative, District 83                       OVER VOTES                            PRECINCT 046                                           01 
01160030001000089000028000061000000000000000000REP       State Representative, District 83                       UNDER VOTES                           PRECINCT 1                                             01 
01160030002000029000004000025000000000000000000REP       State Representative, District 83                       UNDER VOTES                           PRECINCT 2                                             01 
01160030003000034000013000021000000000000000000REP       State Representative, District 83                       UNDER VOTES                           PRECINCT 025                                           01 
01160030004000128000053000075000000000000000000REP       State Representative, District 83                       UNDER VOTES                           PRECINCT 3                                             01 
01160030005000053000009000044000000000000000000REP       State Representative, District 83                       UNDER VOTES                           PRECINCT 4                                             01 
01160030006000046000025000021000000000000000000REP       State Representative, District 83                       UNDER VOTES                           PRECINCT 046                                           01 
01170010001000227000096000131000000000000000000REP       11th Court of Appeals District, Place 3                 John Bailey                           PRECINCT 1                                             01 
01170010002000086000015000071000000000000000000REP       11th Court of Appeals District, Place 3                 John Bailey                           PRECINCT 2                                             01 
01170010003000101000043000058000000000000000000REP       11th Court of Appeals District, Place 3                 John Bailey                           PRECINCT 025                                           01 
01170010004000232000099000133000000000000000000REP       11th Court of Appeals District, Place 3                 John Bailey                           PRECINCT 3                                             01 
01170010005000120000022000098000000000000000000REP       11th Court of Appeals District, Place 3                 John Bailey                           PRECINCT 4                                             01 
01170010006000093000036000057000000000000000000REP       11th Court of Appeals District, Place 3                 John Bailey                           PRECINCT 046                                           01 
01170020001000000000000000000000000000000000000REP       11th Court of Appeals District, Place 3                 OVER VOTES                            PRECINCT 1                                             01 
01170020002000000000000000000000000000000000000REP       11th Court of Appeals District, Place 3                 OVER VOTES                            PRECINCT 2                                             01 
01170020003000000000000000000000000000000000000REP       11th Court of Appeals District, Place 3                 OVER VOTES                            PRECINCT 025                                           01 
01170020004000000000000000000000000000000000000REP       11th Court of Appeals District, Place 3                 OVER VOTES                            PRECINCT 3                                             01 
01170020005000000000000000000000000000000000000REP       11th Court of Appeals District, Place 3                 OVER VOTES                            PRECINCT 4                                             01 
01170020006000000000000000000000000000000000000REP       11th Court of Appeals District, Place 3                 OVER VOTES                            PRECINCT 046                                           01 
01170030001000102000031000071000000000000000000REP       11th Court of Appeals District, Place 3                 UNDER VOTES                           PRECINCT 1                                             01 
01170030002000024000005000019000000000000000000REP       11th Court of Appeals District, Place 3                 UNDER VOTES                           PRECINCT 2                                             01 
01170030003000039000014000025000000000000000000REP       11th Court of Appeals District, Place 3                 UNDER VOTES                           PRECINCT 025                                           01 
01170030004000121000052000069000000000000000000REP       11th Court of Appeals District, Place 3                 UNDER VOTES                           PRECINCT 3                                             01 
01170030005000059000012000047000000000000000000REP       11th Court of Appeals District, Place 3                 UNDER VOTES                           PRECINCT 4                                             01 
01170030006000056000031000025000000000000000000REP       11th Court of Appeals District, Place 3                 UNDER VOTES                           PRECINCT 046                                           01 
01180010001000256000103000153000000000000000000REP       District Judge, 32nd Judicial District                  Glen Harrison                         PRECINCT 1                                             01 
01180010002000087000014000073000000000000000000REP       District Judge, 32nd Judicial District                  Glen Harrison                         PRECINCT 2                                             01 
01180010003000117000050000067000000000000000000REP       District Judge, 32nd Judicial District                  Glen Harrison                         PRECINCT 025                                           01 
01180010004000253000109000144000000000000000000REP       District Judge, 32nd Judicial District                  Glen Harrison                         PRECINCT 3                                             01 
01180010005000128000025000103000000000000000000REP       District Judge, 32nd Judicial District                  Glen Harrison                         PRECINCT 4                                             01 
01180010006000111000045000066000000000000000000REP       District Judge, 32nd Judicial District                  Glen Harrison                         PRECINCT 046                                           01 
01180020001000000000000000000000000000000000000REP       District Judge, 32nd Judicial District                  OVER VOTES                            PRECINCT 1                                             01 
01180020002000000000000000000000000000000000000REP       District Judge, 32nd Judicial District                  OVER VOTES                            PRECINCT 2                                             01 
01180020003000000000000000000000000000000000000REP       District Judge, 32nd Judicial District                  OVER VOTES                            PRECINCT 025                                           01 
01180020004000000000000000000000000000000000000REP       District Judge, 32nd Judicial District                  OVER VOTES                            PRECINCT 3                                             01 
01180020005000000000000000000000000000000000000REP       District Judge, 32nd Judicial District                  OVER VOTES                            PRECINCT 4                                             01 
01180020006000000000000000000000000000000000000REP       District Judge, 32nd Judicial District                  OVER VOTES                            PRECINCT 046                                           01 
01180030001000073000024000049000000000000000000REP       District Judge, 32nd Judicial District                  UNDER VOTES                           PRECINCT 1                                             01 
01180030002000023000006000017000000000000000000REP       District Judge, 32nd Judicial District                  UNDER VOTES                           PRECINCT 2                                             01 
01180030003000023000007000016000000000000000000REP       District Judge, 32nd Judicial District                  UNDER VOTES                           PRECINCT 025                                           01 
01180030004000100000042000058000000000000000000REP       District Judge, 32nd Judicial District                  UNDER VOTES                           PRECINCT 3                                             01 
01180030005000051000009000042000000000000000000REP       District Judge, 32nd Judicial District                  UNDER VOTES                           PRECINCT 4                                             01 
01180030006000038000022000016000000000000000000REP       District Judge, 32nd Judicial District                  UNDER VOTES                           PRECINCT 046                                           01 
01190010001000043000018000025000000000000000000REP       District Attorney, 32nd Judicial Dist                   John Young                            PRECINCT 1                                             01 
01190010002000019000005000014000000000000000000REP       District Attorney, 32nd Judicial Dist                   John Young                            PRECINCT 2                                             01 
01190010003000013000009000004000000000000000000REP       District Attorney, 32nd Judicial Dist                   John Young                            PRECINCT 025                                           01 
01190010004000051000024000027000000000000000000REP       District Attorney, 32nd Judicial Dist                   John Young                            PRECINCT 3                                             01 
01190010005000028000002000026000000000000000000REP       District Attorney, 32nd Judicial Dist                   John Young                            PRECINCT 4                                             01 
01190010006000016000006000010000000000000000000REP       District Attorney, 32nd Judicial Dist                   John Young                            PRECINCT 046                                           01 
01190020001000265000100000165000000000000000000REP       District Attorney, 32nd Judicial Dist                   Ricky Thompson                        PRECINCT 1                                             01 
01190020002000082000013000069000000000000000000REP       District Attorney, 32nd Judicial Dist                   Ricky Thompson                        PRECINCT 2                                             01 
01190020003000116000045000071000000000000000000REP       District Attorney, 32nd Judicial Dist                   Ricky Thompson                        PRECINCT 025                                           01 
01190020004000262000107000155000000000000000000REP       District Attorney, 32nd Judicial Dist                   Ricky Thompson                        PRECINCT 3                                             01 
01190020005000137000030000107000000000000000000REP       District Attorney, 32nd Judicial Dist                   Ricky Thompson                        PRECINCT 4                                             01 
01190020006000126000058000068000000000000000000REP       District Attorney, 32nd Judicial Dist                   Ricky Thompson                        PRECINCT 046                                           01 
01190030001000001000000000001000000000000000000REP       District Attorney, 32nd Judicial Dist                   OVER VOTES                            PRECINCT 1                                             01 
01190030002000000000000000000000000000000000000REP       District Attorney, 32nd Judicial Dist                   OVER VOTES                            PRECINCT 2                                             01 
01190030003000000000000000000000000000000000000REP       District Attorney, 32nd Judicial Dist                   OVER VOTES                            PRECINCT 025                                           01 
01190030004000000000000000000000000000000000000REP       District Attorney, 32nd Judicial Dist                   OVER VOTES                            PRECINCT 3                                             01 
01190030005000000000000000000000000000000000000REP       District Attorney, 32nd Judicial Dist                   OVER VOTES                            PRECINCT 4                                             01 
01190030006000000000000000000000000000000000000REP       District Attorney, 32nd Judicial Dist                   OVER VOTES                            PRECINCT 046                                           01 
01190040001000020000009000011000000000000000000REP       District Attorney, 32nd Judicial Dist                   UNDER VOTES                           PRECINCT 1                                             01 
01190040002000009000002000007000000000000000000REP       District Attorney, 32nd Judicial Dist                   UNDER VOTES                           PRECINCT 2                                             01 
01190040003000011000003000008000000000000000000REP       District Attorney, 32nd Judicial Dist                   UNDER VOTES                           PRECINCT 025                                           01 
01190040004000040000020000020000000000000000000REP       District Attorney, 32nd Judicial Dist                   UNDER VOTES                           PRECINCT 3                                             01 
01190040005000014000002000012000000000000000000REP       District Attorney, 32nd Judicial Dist                   UNDER VOTES                           PRECINCT 4                                             01 
01190040006000007000003000004000000000000000000REP       District Attorney, 32nd Judicial Dist                   UNDER VOTES                           PRECINCT 046                                           01 
01200010001000276000106000170000000000000000000REP       County Attorney                                         Sterling T. Burleson                  PRECINCT 1                                             01 
01200010002000092000014000078000000000000000000REP       County Attorney                                         Sterling T. Burleson                  PRECINCT 2                                             01 
01200010003000121000050000071000000000000000000REP       County Attorney                                         Sterling T. Burleson                  PRECINCT 025                                           01 
01200010004000286000122000164000000000000000000REP       County Attorney                                         Sterling T. Burleson                  PRECINCT 3                                             01 
01200010005000136000027000109000000000000000000REP       County Attorney                                         Sterling T. Burleson                  PRECINCT 4                                             01 
