01050010001000125REP       President                                               Donald J. Trump                       Precinct 101                                           01 
01050010002000145REP       President                                               Donald J. Trump                       Precinct 201                                           01 
01050010003000150REP       President                                               Donald J. Trump                       Precinct 202                                           01 
01050010004000004REP       President                                               Donald J. Trump                       Precinct 203                                           01 
01050010005000072REP       President                                               Donald J. Trump                       Precinct 301                                           01 
01050010006000094REP       President                                               Donald J. Trump                       Precinct 401                                           01 
01050010007000004REP       President                                               Donald J. Trump                       Precinct 402                                           01 
01050020001000280REP       President                                               Ted Cruz                              Precinct 101                                           01 
01050020002000320REP       President                                               Ted Cruz                              Precinct 201                                           01 
01050020003000339REP       President                                               Ted Cruz                              Precinct 202                                           01 
01050020004000009REP       President                                               Ted Cruz                              Precinct 203                                           01 
01050020005000170REP       President                                               Ted Cruz                              Precinct 301                                           01 
01050020006000158REP       President                                               Ted Cruz                              Precinct 401                                           01 
01050020007000007REP       President                                               Ted Cruz                              Precinct 402                                           01 
01050030001000031REP       President                                               Ben Carson                            Precinct 101                                           01 
01050030002000042REP       President                                               Ben Carson                            Precinct 201                                           01 
01050030003000030REP       President                                               Ben Carson                            Precinct 202                                           01 
01050030004000000REP       President                                               Ben Carson                            Precinct 203                                           01 
01050030005000014REP       President                                               Ben Carson                            Precinct 301                                           01 
01050030006000021REP       President                                               Ben Carson                            Precinct 401                                           01 
01050030007000002REP       President                                               Ben Carson                            Precinct 402                                           01 
01050040001000062REP       President                                               Marco Rubio                           Precinct 101                                           01 
01050040002000072REP       President                                               Marco Rubio                           Precinct 201                                           01 
01050040003000068REP       President                                               Marco Rubio                           Precinct 202                                           01 
01050040004000005REP       President                                               Marco Rubio                           Precinct 203                                           01 
01050040005000034REP       President                                               Marco Rubio                           Precinct 301                                           01 
01050040006000027REP       President                                               Marco Rubio                           Precinct 401                                           01 
01050040007000001REP       President                                               Marco Rubio                           Precinct 402                                           01 
01050050001000000REP       President                                               Carly Fiorina                         Precinct 101                                           01 
01050050002000000REP       President                                               Carly Fiorina                         Precinct 201                                           01 
01050050003000002REP       President                                               Carly Fiorina                         Precinct 202                                           01 
01050050004000000REP       President                                               Carly Fiorina                         Precinct 203                                           01 
01050050005000000REP       President                                               Carly Fiorina                         Precinct 301                                           01 
01050050006000000REP       President                                               Carly Fiorina                         Precinct 401                                           01 
01050050007000000REP       President                                               Carly Fiorina                         Precinct 402                                           01 
01050060001000001REP       President                                               Chris Christie                        Precinct 101                                           01 
01050060002000001REP       President                                               Chris Christie                        Precinct 201                                           01 
01050060003000001REP       President                                               Chris Christie                        Precinct 202                                           01 
01050060004000000REP       President                                               Chris Christie                        Precinct 203                                           01 
01050060005000000REP       President                                               Chris Christie                        Precinct 301                                           01 
01050060006000000REP       President                                               Chris Christie                        Precinct 401                                           01 
01050060007000000REP       President                                               Chris Christie                        Precinct 402                                           01 
01050070001000000REP       President                                               Rick Santorum                         Precinct 101                                           01 
01050070002000001REP       President                                               Rick Santorum                         Precinct 201                                           01 
01050070003000000REP       President                                               Rick Santorum                         Precinct 202                                           01 
01050070004000000REP       President                                               Rick Santorum                         Precinct 203                                           01 
01050070005000001REP       President                                               Rick Santorum                         Precinct 301                                           01 
01050070006000000REP       President                                               Rick Santorum                         Precinct 401                                           01 
01050070007000000REP       President                                               Rick Santorum                         Precinct 402                                           01 
01050080001000001REP       President                                               Mike Huckabee                         Precinct 101                                           01 
01050080002000000REP       President                                               Mike Huckabee                         Precinct 201                                           01 
01050080003000005REP       President                                               Mike Huckabee                         Precinct 202                                           01 
01050080004000001REP       President                                               Mike Huckabee                         Precinct 203                                           01 
01050080005000001REP       President                                               Mike Huckabee                         Precinct 301                                           01 
01050080006000000REP       President                                               Mike Huckabee                         Precinct 401                                           01 
01050080007000000REP       President                                               Mike Huckabee                         Precinct 402                                           01 
01050090001000011REP       President                                               Jeb Bush                              Precinct 101                                           01 
01050090002000002REP       President                                               Jeb Bush                              Precinct 201                                           01 
01050090003000002REP       President                                               Jeb Bush                              Precinct 202                                           01 
01050090004000000REP       President                                               Jeb Bush                              Precinct 203                                           01 
01050090005000010REP       President                                               Jeb Bush                              Precinct 301                                           01 
01050090006000002REP       President                                               Jeb Bush                              Precinct 401                                           01 
01050090007000000REP       President                                               Jeb Bush                              Precinct 402                                           01 
01050100001000011REP       President                                               John R. Kasich                        Precinct 101                                           01 
01050100002000012REP       President                                               John R. Kasich                        Precinct 201                                           01 
01050100003000012REP       President                                               John R. Kasich                        Precinct 202                                           01 
01050100004000000REP       President                                               John R. Kasich                        Precinct 203                                           01 
01050100005000002REP       President                                               John R. Kasich                        Precinct 301                                           01 
01050100006000003REP       President                                               John R. Kasich                        Precinct 401                                           01 
01050100007000000REP       President                                               John R. Kasich                        Precinct 402                                           01 
01050110001000002REP       President                                               Rand Paul                             Precinct 101                                           01 
01050110002000000REP       President                                               Rand Paul                             Precinct 201                                           01 
01050110003000002REP       President                                               Rand Paul                             Precinct 202                                           01 
01050110004000000REP       President                                               Rand Paul                             Precinct 203                                           01 
01050110005000001REP       President                                               Rand Paul                             Precinct 301                                           01 
01050110006000001REP       President                                               Rand Paul                             Precinct 401                                           01 
01050110007000001REP       President                                               Rand Paul                             Precinct 402                                           01 
01050120001000000REP       President                                               Elizabeth Gray                        Precinct 101                                           01 
01050120002000000REP       President                                               Elizabeth Gray                        Precinct 201                                           01 
01050120003000000REP       President                                               Elizabeth Gray                        Precinct 202                                           01 
01050120004000000REP       President                                               Elizabeth Gray                        Precinct 203                                           01 
01050120005000000REP       President                                               Elizabeth Gray                        Precinct 301                                           01 
01050120006000000REP       President                                               Elizabeth Gray                        Precinct 401                                           01 
01050120007000000REP       President                                               Elizabeth Gray                        Precinct 402                                           01 
01050130001000021REP       President                                               Lindsey Graham                        Precinct 101                                           01 
01050130002000028REP       President                                               Lindsey Graham                        Precinct 201                                           01 
01050130003000033REP       President                                               Lindsey Graham                        Precinct 202                                           01 
01050130004000000REP       President                                               Lindsey Graham                        Precinct 203                                           01 
01050130005000016REP       President                                               Lindsey Graham                        Precinct 301                                           01 
01050130006000014REP       President                                               Lindsey Graham                        Precinct 401                                           01 
01050130007000002REP       President                                               Lindsey Graham                        Precinct 402                                           01 
01050140001000008REP       President                                               Uncommitted                           Precinct 101                                           01 
01050140002000011REP       President                                               Uncommitted                           Precinct 201                                           01 
01050140003000007REP       President                                               Uncommitted                           Precinct 202                                           01 
01050140004000000REP       President                                               Uncommitted                           Precinct 203                                           01 
01050140005000004REP       President                                               Uncommitted                           Precinct 301                                           01 
01050140006000002REP       President                                               Uncommitted                           Precinct 401                                           01 
01050140007000000REP       President                                               Uncommitted                           Precinct 402                                           01 
01050150001000000REP       President                                               OVER VOTES                            Precinct 101                                           01 
01050150002000000REP       President                                               OVER VOTES                            Precinct 201                                           01 
01050150003000001REP       President                                               OVER VOTES                            Precinct 202                                           01 
01050150004000000REP       President                                               OVER VOTES                            Precinct 203                                           01 
01050150005000000REP       President                                               OVER VOTES                            Precinct 301                                           01 
01050150006000000REP       President                                               OVER VOTES                            Precinct 401                                           01 
01050150007000000REP       President                                               OVER VOTES                            Precinct 402                                           01 
01050160001000001REP       President                                               UNDER VOTES                           Precinct 101                                           01 
01050160002000003REP       President                                               UNDER VOTES                           Precinct 201                                           01 
01050160003000002REP       President                                               UNDER VOTES                           Precinct 202                                           01 
01050160004000001REP       President                                               UNDER VOTES                           Precinct 203                                           01 
01050160005000005REP       President                                               UNDER VOTES                           Precinct 301                                           01 
01050160006000001REP       President                                               UNDER VOTES                           Precinct 401                                           01 
01050160007000000REP       President                                               UNDER VOTES                           Precinct 402                                           01 
01060010001000484REP       United States Rep, District 13                          Mac Thornberry                        Precinct 101                                           01 
01060010002000543REP       United States Rep, District 13                          Mac Thornberry                        Precinct 201                                           01 
01060010003000570REP       United States Rep, District 13                          Mac Thornberry                        Precinct 202                                           01 
01060010004000018REP       United States Rep, District 13                          Mac Thornberry                        Precinct 203                                           01 
01060010005000271REP       United States Rep, District 13                          Mac Thornberry                        Precinct 301                                           01 
01060010006000271REP       United States Rep, District 13                          Mac Thornberry                        Precinct 401                                           01 
01060010007000012REP       United States Rep, District 13                          Mac Thornberry                        Precinct 402                                           01 
01060020001000000REP       United States Rep, District 13                          OVER VOTES                            Precinct 101                                           01 
01060020002000000REP       United States Rep, District 13                          OVER VOTES                            Precinct 201                                           01 
01060020003000000REP       United States Rep, District 13                          OVER VOTES                            Precinct 202                                           01 
01060020004000000REP       United States Rep, District 13                          OVER VOTES                            Precinct 203                                           01 
01060020005000000REP       United States Rep, District 13                          OVER VOTES                            Precinct 301                                           01 
01060020006000000REP       United States Rep, District 13                          OVER VOTES                            Precinct 401                                           01 
01060020007000000REP       United States Rep, District 13                          OVER VOTES                            Precinct 402                                           01 
01060030001000070REP       United States Rep, District 13                          UNDER VOTES                           Precinct 101                                           01 
01060030002000094REP       United States Rep, District 13                          UNDER VOTES                           Precinct 201                                           01 
01060030003000084REP       United States Rep, District 13                          UNDER VOTES                           Precinct 202                                           01 
01060030004000002REP       United States Rep, District 13                          UNDER VOTES                           Precinct 203                                           01 
01060030005000059REP       United States Rep, District 13                          UNDER VOTES                           Precinct 301                                           01 
01060030006000052REP       United States Rep, District 13                          UNDER VOTES                           Precinct 401                                           01 
01060030007000005REP       United States Rep, District 13                          UNDER VOTES                           Precinct 402                                           01 
01070010001000113REP       Railroad Commissioner                                   Doug Jeffrey                          Precinct 101                                           01 
01070010002000134REP       Railroad Commissioner                                   Doug Jeffrey                          Precinct 201                                           01 
01070010003000136REP       Railroad Commissioner                                   Doug Jeffrey                          Precinct 202                                           01 
01070010004000005REP       Railroad Commissioner                                   Doug Jeffrey                          Precinct 203                                           01 
01070010005000068REP       Railroad Commissioner                                   Doug Jeffrey                          Precinct 301                                           01 
01070010006000067REP       Railroad Commissioner                                   Doug Jeffrey                          Precinct 401                                           01 
01070010007000003REP       Railroad Commissioner                                   Doug Jeffrey                          Precinct 402                                           01 
01070020001000102REP       Railroad Commissioner                                   Gary Gates                            Precinct 101                                           01 
01070020002000133REP       Railroad Commissioner                                   Gary Gates                            Precinct 201                                           01 
01070020003000136REP       Railroad Commissioner                                   Gary Gates                            Precinct 202                                           01 
01070020004000004REP       Railroad Commissioner                                   Gary Gates                            Precinct 203                                           01 
01070020005000058REP       Railroad Commissioner                                   Gary Gates                            Precinct 301                                           01 
01070020006000062REP       Railroad Commissioner                                   Gary Gates                            Precinct 401                                           01 
01070020007000004REP       Railroad Commissioner                                   Gary Gates                            Precinct 402                                           01 
01070030001000050REP       Railroad Commissioner                                   Lance N. Christian                    Precinct 101                                           01 
01070030002000046REP       Railroad Commissioner                                   Lance N. Christian                    Precinct 201                                           01 
01070030003000066REP       Railroad Commissioner                                   Lance N. Christian                    Precinct 202                                           01 
01070030004000000REP       Railroad Commissioner                                   Lance N. Christian                    Precinct 203                                           01 
01070030005000030REP       Railroad Commissioner                                   Lance N. Christian                    Precinct 301                                           01 
01070030006000026REP       Railroad Commissioner                                   Lance N. Christian                    Precinct 401                                           01 
01070030007000002REP       Railroad Commissioner                                   Lance N. Christian                    Precinct 402                                           01 
01070040001000075REP       Railroad Commissioner                                   Wayne Christian                       Precinct 101                                           01 
01070040002000090REP       Railroad Commissioner                                   Wayne Christian                       Precinct 201                                           01 
01070040003000085REP       Railroad Commissioner                                   Wayne Christian                       Precinct 202                                           01 
01070040004000004REP       Railroad Commissioner                                   Wayne Christian                       Precinct 203                                           01 
01070040005000041REP       Railroad Commissioner                                   Wayne Christian                       Precinct 301                                           01 
01070040006000040REP       Railroad Commissioner                                   Wayne Christian                       Precinct 401                                           01 
01070040007000002REP       Railroad Commissioner                                   Wayne Christian                       Precinct 402                                           01 
01070050001000033REP       Railroad Commissioner                                   Weston Martinez                       Precinct 101                                           01 
01070050002000036REP       Railroad Commissioner                                   Weston Martinez                       Precinct 201                                           01 
01070050003000023REP       Railroad Commissioner                                   Weston Martinez                       Precinct 202                                           01 
01070050004000000REP       Railroad Commissioner                                   Weston Martinez                       Precinct 203                                           01 
01070050005000030REP       Railroad Commissioner                                   Weston Martinez                       Precinct 301                                           01 
01070050006000006REP       Railroad Commissioner                                   Weston Martinez                       Precinct 401                                           01 
01070050007000003REP       Railroad Commissioner                                   Weston Martinez                       Precinct 402                                           01 
01070060001000011REP       Railroad Commissioner                                   John Greytok                          Precinct 101                                           01 
01070060002000010REP       Railroad Commissioner                                   John Greytok                          Precinct 201                                           01 
01070060003000010REP       Railroad Commissioner                                   John Greytok                          Precinct 202                                           01 
01070060004000001REP       Railroad Commissioner                                   John Greytok                          Precinct 203                                           01 
01070060005000006REP       Railroad Commissioner                                   John Greytok                          Precinct 301                                           01 
01070060006000002REP       Railroad Commissioner                                   John Greytok                          Precinct 401                                           01 
01070060007000000REP       Railroad Commissioner                                   John Greytok                          Precinct 402                                           01 
01070070001000048REP       Railroad Commissioner                                   Ron Hale                              Precinct 101                                           01 
01070070002000050REP       Railroad Commissioner                                   Ron Hale                              Precinct 201                                           01 
01070070003000053REP       Railroad Commissioner                                   Ron Hale                              Precinct 202                                           01 
01070070004000001REP       Railroad Commissioner                                   Ron Hale                              Precinct 203                                           01 
01070070005000026REP       Railroad Commissioner                                   Ron Hale                              Precinct 301                                           01 
01070070006000034REP       Railroad Commissioner                                   Ron Hale                              Precinct 401                                           01 
01070070007000001REP       Railroad Commissioner                                   Ron Hale                              Precinct 402                                           01 
01070080001000000REP       Railroad Commissioner                                   OVER VOTES                            Precinct 101                                           01 
01070080002000000REP       Railroad Commissioner                                   OVER VOTES                            Precinct 201                                           01 
01070080003000000REP       Railroad Commissioner                                   OVER VOTES                            Precinct 202                                           01 
01070080004000000REP       Railroad Commissioner                                   OVER VOTES                            Precinct 203                                           01 
01070080005000000REP       Railroad Commissioner                                   OVER VOTES                            Precinct 301                                           01 
01070080006000000REP       Railroad Commissioner                                   OVER VOTES                            Precinct 401                                           01 
01070080007000000REP       Railroad Commissioner                                   OVER VOTES                            Precinct 402                                           01 
01070090001000122REP       Railroad Commissioner                                   UNDER VOTES                           Precinct 101                                           01 
01070090002000138REP       Railroad Commissioner                                   UNDER VOTES                           Precinct 201                                           01 
01070090003000145REP       Railroad Commissioner                                   UNDER VOTES                           Precinct 202                                           01 
01070090004000005REP       Railroad Commissioner                                   UNDER VOTES                           Precinct 203                                           01 
01070090005000071REP       Railroad Commissioner                                   UNDER VOTES                           Precinct 301                                           01 
01070090006000086REP       Railroad Commissioner                                   UNDER VOTES                           Precinct 401                                           01 
01070090007000002REP       Railroad Commissioner                                   UNDER VOTES                           Precinct 402                                           01 
01080010001000255REP       Justice, Supreme Court, Place 3                         Michael Massengale                    Precinct 101                                           01 
01080010002000325REP       Justice, Supreme Court, Place 3                         Michael Massengale                    Precinct 201                                           01 
01080010003000302REP       Justice, Supreme Court, Place 3                         Michael Massengale                    Precinct 202                                           01 
01080010004000004REP       Justice, Supreme Court, Place 3                         Michael Massengale                    Precinct 203                                           01 
01080010005000156REP       Justice, Supreme Court, Place 3                         Michael Massengale                    Precinct 301                                           01 
01080010006000171REP       Justice, Supreme Court, Place 3                         Michael Massengale                    Precinct 401                                           01 
01080010007000006REP       Justice, Supreme Court, Place 3                         Michael Massengale                    Precinct 402                                           01 
01080020001000197REP       Justice, Supreme Court, Place 3                         Debra Lehrmann                        Precinct 101                                           01 
01080020002000186REP       Justice, Supreme Court, Place 3                         Debra Lehrmann                        Precinct 201                                           01 
01080020003000224REP       Justice, Supreme Court, Place 3                         Debra Lehrmann                        Precinct 202                                           01 
01080020004000012REP       Justice, Supreme Court, Place 3                         Debra Lehrmann                        Precinct 203                                           01 
01080020005000103REP       Justice, Supreme Court, Place 3                         Debra Lehrmann                        Precinct 301                                           01 
01080020006000079REP       Justice, Supreme Court, Place 3                         Debra Lehrmann                        Precinct 401                                           01 
01080020007000007REP       Justice, Supreme Court, Place 3                         Debra Lehrmann                        Precinct 402                                           01 
01080030001000000REP       Justice, Supreme Court, Place 3                         OVER VOTES                            Precinct 101                                           01 
01080030002000000REP       Justice, Supreme Court, Place 3                         OVER VOTES                            Precinct 201                                           01 
01080030003000000REP       Justice, Supreme Court, Place 3                         OVER VOTES                            Precinct 202                                           01 
01080030004000000REP       Justice, Supreme Court, Place 3                         OVER VOTES                            Precinct 203                                           01 
01080030005000000REP       Justice, Supreme Court, Place 3                         OVER VOTES                            Precinct 301                                           01 
01080030006000000REP       Justice, Supreme Court, Place 3                         OVER VOTES                            Precinct 401                                           01 
01080030007000000REP       Justice, Supreme Court, Place 3                         OVER VOTES                            Precinct 402                                           01 
01080040001000102REP       Justice, Supreme Court, Place 3                         UNDER VOTES                           Precinct 101                                           01 
01080040002000126REP       Justice, Supreme Court, Place 3                         UNDER VOTES                           Precinct 201                                           01 
01080040003000128REP       Justice, Supreme Court, Place 3                         UNDER VOTES                           Precinct 202                                           01 
01080040004000004REP       Justice, Supreme Court, Place 3                         UNDER VOTES                           Precinct 203                                           01 
01080040005000071REP       Justice, Supreme Court, Place 3                         UNDER VOTES                           Precinct 301                                           01 
01080040006000073REP       Justice, Supreme Court, Place 3                         UNDER VOTES                           Precinct 401                                           01 
01080040007000004REP       Justice, Supreme Court, Place 3                         UNDER VOTES                           Precinct 402                                           01 
01090010001000281REP       Justice, Supreme Court, Place 5                         Paul Green                            Precinct 101                                           01 
01090010002000300REP       Justice, Supreme Court, Place 5                         Paul Green                            Precinct 201                                           01 
01090010003000311REP       Justice, Supreme Court, Place 5                         Paul Green                            Precinct 202                                           01 
01090010004000008REP       Justice, Supreme Court, Place 5                         Paul Green                            Precinct 203                                           01 
01090010005000152REP       Justice, Supreme Court, Place 5                         Paul Green                            Precinct 301                                           01 
01090010006000165REP       Justice, Supreme Court, Place 5                         Paul Green                            Precinct 401                                           01 
01090010007000007REP       Justice, Supreme Court, Place 5                         Paul Green                            Precinct 402                                           01 
01090020001000163REP       Justice, Supreme Court, Place 5                         Rick Green                            Precinct 101                                           01 
01090020002000198REP       Justice, Supreme Court, Place 5                         Rick Green                            Precinct 201                                           01 
01090020003000185REP       Justice, Supreme Court, Place 5                         Rick Green                            Precinct 202                                           01 
01090020004000008REP       Justice, Supreme Court, Place 5                         Rick Green                            Precinct 203                                           01 
01090020005000101REP       Justice, Supreme Court, Place 5                         Rick Green                            Precinct 301                                           01 
01090020006000078REP       Justice, Supreme Court, Place 5                         Rick Green                            Precinct 401                                           01 
01090020007000007REP       Justice, Supreme Court, Place 5                         Rick Green                            Precinct 402                                           01 
01090030001000000REP       Justice, Supreme Court, Place 5                         OVER VOTES                            Precinct 101                                           01 
01090030002000000REP       Justice, Supreme Court, Place 5                         OVER VOTES                            Precinct 201                                           01 
01090030003000000REP       Justice, Supreme Court, Place 5                         OVER VOTES                            Precinct 202                                           01 
01090030004000000REP       Justice, Supreme Court, Place 5                         OVER VOTES                            Precinct 203                                           01 
01090030005000000REP       Justice, Supreme Court, Place 5                         OVER VOTES                            Precinct 301                                           01 
01090030006000000REP       Justice, Supreme Court, Place 5                         OVER VOTES                            Precinct 401                                           01 
01090030007000000REP       Justice, Supreme Court, Place 5                         OVER VOTES                            Precinct 402                                           01 
01090040001000110REP       Justice, Supreme Court, Place 5                         UNDER VOTES                           Precinct 101                                           01 
01090040002000139REP       Justice, Supreme Court, Place 5                         UNDER VOTES                           Precinct 201                                           01 
01090040003000158REP       Justice, Supreme Court, Place 5                         UNDER VOTES                           Precinct 202                                           01 
01090040004000004REP       Justice, Supreme Court, Place 5                         UNDER VOTES                           Precinct 203                                           01 
01090040005000077REP       Justice, Supreme Court, Place 5                         UNDER VOTES                           Precinct 301                                           01 
01090040006000080REP       Justice, Supreme Court, Place 5                         UNDER VOTES                           Precinct 401                                           01 
01090040007000003REP       Justice, Supreme Court, Place 5                         UNDER VOTES                           Precinct 402                                           01 
01100010001000281REP       Justice, Supreme Court, Place 9                         Joe Pool                              Precinct 101                                           01 
01100010002000324REP       Justice, Supreme Court, Place 9                         Joe Pool                              Precinct 201                                           01 
01100010003000336REP       Justice, Supreme Court, Place 9                         Joe Pool                              Precinct 202                                           01 
01100010004000006REP       Justice, Supreme Court, Place 9                         Joe Pool                              Precinct 203                                           01 
01100010005000163REP       Justice, Supreme Court, Place 9                         Joe Pool                              Precinct 301                                           01 
01100010006000169REP       Justice, Supreme Court, Place 9                         Joe Pool                              Precinct 401                                           01 
01100010007000005REP       Justice, Supreme Court, Place 9                         Joe Pool                              Precinct 402                                           01 
01100020001000162REP       Justice, Supreme Court, Place 9                         Eva Guzman                            Precinct 101                                           01 
01100020002000177REP       Justice, Supreme Court, Place 9                         Eva Guzman                            Precinct 201                                           01 
01100020003000172REP       Justice, Supreme Court, Place 9                         Eva Guzman                            Precinct 202                                           01 
01100020004000011REP       Justice, Supreme Court, Place 9                         Eva Guzman                            Precinct 203                                           01 
01100020005000098REP       Justice, Supreme Court, Place 9                         Eva Guzman                            Precinct 301                                           01 
01100020006000075REP       Justice, Supreme Court, Place 9                         Eva Guzman                            Precinct 401                                           01 
01100020007000010REP       Justice, Supreme Court, Place 9                         Eva Guzman                            Precinct 402                                           01 
01100030001000000REP       Justice, Supreme Court, Place 9                         OVER VOTES                            Precinct 101                                           01 
01100030002000000REP       Justice, Supreme Court, Place 9                         OVER VOTES                            Precinct 201                                           01 
01100030003000000REP       Justice, Supreme Court, Place 9                         OVER VOTES                            Precinct 202                                           01 
01100030004000000REP       Justice, Supreme Court, Place 9                         OVER VOTES                            Precinct 203                                           01 
01100030005000000REP       Justice, Supreme Court, Place 9                         OVER VOTES                            Precinct 301                                           01 
01100030006000000REP       Justice, Supreme Court, Place 9                         OVER VOTES                            Precinct 401                                           01 
01100030007000000REP       Justice, Supreme Court, Place 9                         OVER VOTES                            Precinct 402                                           01 
01100040001000111REP       Justice, Supreme Court, Place 9                         UNDER VOTES                           Precinct 101                                           01 
01100040002000136REP       Justice, Supreme Court, Place 9                         UNDER VOTES                           Precinct 201                                           01 
01100040003000146REP       Justice, Supreme Court, Place 9                         UNDER VOTES                           Precinct 202                                           01 
01100040004000003REP       Justice, Supreme Court, Place 9                         UNDER VOTES                           Precinct 203                                           01 
01100040005000069REP       Justice, Supreme Court, Place 9                         UNDER VOTES                           Precinct 301                                           01 
01100040006000079REP       Justice, Supreme Court, Place 9                         UNDER VOTES                           Precinct 401                                           01 
01100040007000002REP       Justice, Supreme Court, Place 9                         UNDER VOTES                           Precinct 402                                           01 
01110010001000170REP       Judge, Court of Criminal Appeals, Pl 2                  Ray Wheless                           Precinct 101                                           01 
01110010002000205REP       Judge, Court of Criminal Appeals, Pl 2                  Ray Wheless                           Precinct 201                                           01 
01110010003000180REP       Judge, Court of Criminal Appeals, Pl 2                  Ray Wheless                           Precinct 202                                           01 
01110010004000010REP       Judge, Court of Criminal Appeals, Pl 2                  Ray Wheless                           Precinct 203                                           01 
01110010005000092REP       Judge, Court of Criminal Appeals, Pl 2                  Ray Wheless                           Precinct 301                                           01 
01110010006000095REP       Judge, Court of Criminal Appeals, Pl 2                  Ray Wheless                           Precinct 401                                           01 
01110010007000004REP       Judge, Court of Criminal Appeals, Pl 2                  Ray Wheless                           Precinct 402                                           01 
01110020001000115REP       Judge, Court of Criminal Appeals, Pl 2                  Chris Oldner                          Precinct 101                                           01 
01110020002000133REP       Judge, Court of Criminal Appeals, Pl 2                  Chris Oldner                          Precinct 201                                           01 
01110020003000136REP       Judge, Court of Criminal Appeals, Pl 2                  Chris Oldner                          Precinct 202                                           01 
01110020004000001REP       Judge, Court of Criminal Appeals, Pl 2                  Chris Oldner                          Precinct 203                                           01 
01110020005000076REP       Judge, Court of Criminal Appeals, Pl 2                  Chris Oldner                          Precinct 301                                           01 
01110020006000072REP       Judge, Court of Criminal Appeals, Pl 2                  Chris Oldner                          Precinct 401                                           01 
01110020007000002REP       Judge, Court of Criminal Appeals, Pl 2                  Chris Oldner                          Precinct 402                                           01 
01110030001000147REP       Judge, Court of Criminal Appeals, Pl 2                  Mary Lou Keel                         Precinct 101                                           01 
01110030002000149REP       Judge, Court of Criminal Appeals, Pl 2                  Mary Lou Keel                         Precinct 201                                           01 
01110030003000172REP       Judge, Court of Criminal Appeals, Pl 2                  Mary Lou Keel                         Precinct 202                                           01 
01110030004000004REP       Judge, Court of Criminal Appeals, Pl 2                  Mary Lou Keel                         Precinct 203                                           01 
01110030005000084REP       Judge, Court of Criminal Appeals, Pl 2                  Mary Lou Keel                         Precinct 301                                           01 
01110030006000066REP       Judge, Court of Criminal Appeals, Pl 2                  Mary Lou Keel                         Precinct 401                                           01 
01110030007000008REP       Judge, Court of Criminal Appeals, Pl 2                  Mary Lou Keel                         Precinct 402                                           01 
01110040001000000REP       Judge, Court of Criminal Appeals, Pl 2                  OVER VOTES                            Precinct 101                                           01 
01110040002000000REP       Judge, Court of Criminal Appeals, Pl 2                  OVER VOTES                            Precinct 201                                           01 
01110040003000001REP       Judge, Court of Criminal Appeals, Pl 2                  OVER VOTES                            Precinct 202                                           01 
01110040004000000REP       Judge, Court of Criminal Appeals, Pl 2                  OVER VOTES                            Precinct 203                                           01 
01110040005000000REP       Judge, Court of Criminal Appeals, Pl 2                  OVER VOTES                            Precinct 301                                           01 
01110040006000000REP       Judge, Court of Criminal Appeals, Pl 2                  OVER VOTES                            Precinct 401                                           01 
01110040007000000REP       Judge, Court of Criminal Appeals, Pl 2                  OVER VOTES                            Precinct 402                                           01 
01110050001000122REP       Judge, Court of Criminal Appeals, Pl 2                  UNDER VOTES                           Precinct 101                                           01 
01110050002000150REP       Judge, Court of Criminal Appeals, Pl 2                  UNDER VOTES                           Precinct 201                                           01 
01110050003000165REP       Judge, Court of Criminal Appeals, Pl 2                  UNDER VOTES                           Precinct 202                                           01 
01110050004000005REP       Judge, Court of Criminal Appeals, Pl 2                  UNDER VOTES                           Precinct 203                                           01 
01110050005000078REP       Judge, Court of Criminal Appeals, Pl 2                  UNDER VOTES                           Precinct 301                                           01 
01110050006000090REP       Judge, Court of Criminal Appeals, Pl 2                  UNDER VOTES                           Precinct 401                                           01 
01110050007000003REP       Judge, Court of Criminal Appeals, Pl 2                  UNDER VOTES                           Precinct 402                                           01 
01120010001000254REP       Judge, Court of Criminal Appeals, Pl 5                  Scott Walker                          Precinct 101                                           01 
01120010002000307REP       Judge, Court of Criminal Appeals, Pl 5                  Scott Walker                          Precinct 201                                           01 
01120010003000305REP       Judge, Court of Criminal Appeals, Pl 5                  Scott Walker                          Precinct 202                                           01 
01120010004000009REP       Judge, Court of Criminal Appeals, Pl 5                  Scott Walker                          Precinct 203                                           01 
01120010005000139REP       Judge, Court of Criminal Appeals, Pl 5                  Scott Walker                          Precinct 301                                           01 
01120010006000157REP       Judge, Court of Criminal Appeals, Pl 5                  Scott Walker                          Precinct 401                                           01 
01120010007000006REP       Judge, Court of Criminal Appeals, Pl 5                  Scott Walker                          Precinct 402                                           01 
01120020001000036REP       Judge, Court of Criminal Appeals, Pl 5                  Sid Harle                             Precinct 101                                           01 
01120020002000040REP       Judge, Court of Criminal Appeals, Pl 5                  Sid Harle                             Precinct 201                                           01 
01120020003000053REP       Judge, Court of Criminal Appeals, Pl 5                  Sid Harle                             Precinct 202                                           01 
01120020004000003REP       Judge, Court of Criminal Appeals, Pl 5                  Sid Harle                             Precinct 203                                           01 
01120020005000020REP       Judge, Court of Criminal Appeals, Pl 5                  Sid Harle                             Precinct 301                                           01 
01120020006000015REP       Judge, Court of Criminal Appeals, Pl 5                  Sid Harle                             Precinct 401                                           01 
01120020007000001REP       Judge, Court of Criminal Appeals, Pl 5                  Sid Harle                             Precinct 402                                           01 
01120030001000078REP       Judge, Court of Criminal Appeals, Pl 5                  Brent Webster                         Precinct 101                                           01 
01120030002000059REP       Judge, Court of Criminal Appeals, Pl 5                  Brent Webster                         Precinct 201                                           01 
01120030003000071REP       Judge, Court of Criminal Appeals, Pl 5                  Brent Webster                         Precinct 202                                           01 
01120030004000002REP       Judge, Court of Criminal Appeals, Pl 5                  Brent Webster                         Precinct 203                                           01 
01120030005000039REP       Judge, Court of Criminal Appeals, Pl 5                  Brent Webster                         Precinct 301                                           01 
01120030006000028REP       Judge, Court of Criminal Appeals, Pl 5                  Brent Webster                         Precinct 401                                           01 
01120030007000003REP       Judge, Court of Criminal Appeals, Pl 5                  Brent Webster                         Precinct 402                                           01 
01120040001000072REP       Judge, Court of Criminal Appeals, Pl 5                  Steve Smith                           Precinct 101                                           01 
01120040002000079REP       Judge, Court of Criminal Appeals, Pl 5                  Steve Smith                           Precinct 201                                           01 
01120040003000074REP       Judge, Court of Criminal Appeals, Pl 5                  Steve Smith                           Precinct 202                                           01 
01120040004000002REP       Judge, Court of Criminal Appeals, Pl 5                  Steve Smith                           Precinct 203                                           01 
01120040005000046REP       Judge, Court of Criminal Appeals, Pl 5                  Steve Smith                           Precinct 301                                           01 
01120040006000036REP       Judge, Court of Criminal Appeals, Pl 5                  Steve Smith                           Precinct 401                                           01 
01120040007000003REP       Judge, Court of Criminal Appeals, Pl 5                  Steve Smith                           Precinct 402                                           01 
01120050001000000REP       Judge, Court of Criminal Appeals, Pl 5                  OVER VOTES                            Precinct 101                                           01 
01120050002000000REP       Judge, Court of Criminal Appeals, Pl 5                  OVER VOTES                            Precinct 201                                           01 
01120050003000000REP       Judge, Court of Criminal Appeals, Pl 5                  OVER VOTES                            Precinct 202                                           01 
01120050004000000REP       Judge, Court of Criminal Appeals, Pl 5                  OVER VOTES                            Precinct 203                                           01 
01120050005000000REP       Judge, Court of Criminal Appeals, Pl 5                  OVER VOTES                            Precinct 301                                           01 
01120050006000000REP       Judge, Court of Criminal Appeals, Pl 5                  OVER VOTES                            Precinct 401                                           01 
01120050007000000REP       Judge, Court of Criminal Appeals, Pl 5                  OVER VOTES                            Precinct 402                                           01 
01120060001000114REP       Judge, Court of Criminal Appeals, Pl 5                  UNDER VOTES                           Precinct 101                                           01 
01120060002000151REP       Judge, Court of Criminal Appeals, Pl 5                  UNDER VOTES                           Precinct 201                                           01 
01120060003000151REP       Judge, Court of Criminal Appeals, Pl 5                  UNDER VOTES                           Precinct 202                                           01 
01120060004000004REP       Judge, Court of Criminal Appeals, Pl 5                  UNDER VOTES                           Precinct 203                                           01 
01120060005000086REP       Judge, Court of Criminal Appeals, Pl 5                  UNDER VOTES                           Precinct 301                                           01 
01120060006000088REP       Judge, Court of Criminal Appeals, Pl 5                  UNDER VOTES                           Precinct 401                                           01 
01120060007000004REP       Judge, Court of Criminal Appeals, Pl 5                  UNDER VOTES                           Precinct 402                                           01 
01130010001000276REP       Judge, Court of Criminal Appeals, Pl 6                  Michael E. Keasler                    Precinct 101                                           01 
01130010002000301REP       Judge, Court of Criminal Appeals, Pl 6                  Michael E. Keasler                    Precinct 201                                           01 
01130010003000311REP       Judge, Court of Criminal Appeals, Pl 6                  Michael E. Keasler                    Precinct 202                                           01 
01130010004000012REP       Judge, Court of Criminal Appeals, Pl 6                  Michael E. Keasler                    Precinct 203                                           01 
01130010005000146REP       Judge, Court of Criminal Appeals, Pl 6                  Michael E. Keasler                    Precinct 301                                           01 
01130010006000135REP       Judge, Court of Criminal Appeals, Pl 6                  Michael E. Keasler                    Precinct 401                                           01 
01130010007000007REP       Judge, Court of Criminal Appeals, Pl 6                  Michael E. Keasler                    Precinct 402                                           01 
01130020001000145REP       Judge, Court of Criminal Appeals, Pl 6                  Richard Davis                         Precinct 101                                           01 
01130020002000175REP       Judge, Court of Criminal Appeals, Pl 6                  Richard Davis                         Precinct 201                                           01 
01130020003000171REP       Judge, Court of Criminal Appeals, Pl 6                  Richard Davis                         Precinct 202                                           01 
01130020004000003REP       Judge, Court of Criminal Appeals, Pl 6                  Richard Davis                         Precinct 203                                           01 
01130020005000103REP       Judge, Court of Criminal Appeals, Pl 6                  Richard Davis                         Precinct 301                                           01 
01130020006000095REP       Judge, Court of Criminal Appeals, Pl 6                  Richard Davis                         Precinct 401                                           01 
01130020007000008REP       Judge, Court of Criminal Appeals, Pl 6                  Richard Davis                         Precinct 402                                           01 
01130030001000000REP       Judge, Court of Criminal Appeals, Pl 6                  OVER VOTES                            Precinct 101                                           01 
01130030002000000REP       Judge, Court of Criminal Appeals, Pl 6                  OVER VOTES                            Precinct 201                                           01 
01130030003000000REP       Judge, Court of Criminal Appeals, Pl 6                  OVER VOTES                            Precinct 202                                           01 
01130030004000000REP       Judge, Court of Criminal Appeals, Pl 6                  OVER VOTES                            Precinct 203                                           01 
01130030005000000REP       Judge, Court of Criminal Appeals, Pl 6                  OVER VOTES                            Precinct 301                                           01 
01130030006000000REP       Judge, Court of Criminal Appeals, Pl 6                  OVER VOTES                            Precinct 401                                           01 
01130030007000000REP       Judge, Court of Criminal Appeals, Pl 6                  OVER VOTES                            Precinct 402                                           01 
01130040001000133REP       Judge, Court of Criminal Appeals, Pl 6                  UNDER VOTES                           Precinct 101                                           01 
01130040002000161REP       Judge, Court of Criminal Appeals, Pl 6                  UNDER VOTES                           Precinct 201                                           01 
01130040003000172REP       Judge, Court of Criminal Appeals, Pl 6                  UNDER VOTES                           Precinct 202                                           01 
01130040004000005REP       Judge, Court of Criminal Appeals, Pl 6                  UNDER VOTES                           Precinct 203                                           01 
01130040005000081REP       Judge, Court of Criminal Appeals, Pl 6                  UNDER VOTES                           Precinct 301                                           01 
01130040006000093REP       Judge, Court of Criminal Appeals, Pl 6                  UNDER VOTES                           Precinct 401                                           01 
01130040007000002REP       Judge, Court of Criminal Appeals, Pl 6                  UNDER VOTES                           Precinct 402                                           01 
01140010001000424REP       Member, State Board of Education, Dist15                Marty Rowley                          Precinct 101                                           01 
01140010002000469REP       Member, State Board of Education, Dist15                Marty Rowley                          Precinct 201                                           01 
01140010003000487REP       Member, State Board of Education, Dist15                Marty Rowley                          Precinct 202                                           01 
01140010004000016REP       Member, State Board of Education, Dist15                Marty Rowley                          Precinct 203                                           01 
01140010005000231REP       Member, State Board of Education, Dist15                Marty Rowley                          Precinct 301                                           01 
01140010006000225REP       Member, State Board of Education, Dist15                Marty Rowley                          Precinct 401                                           01 
01140010007000013REP       Member, State Board of Education, Dist15                Marty Rowley                          Precinct 402                                           01 
01140020001000000REP       Member, State Board of Education, Dist15                OVER VOTES                            Precinct 101                                           01 
01140020002000000REP       Member, State Board of Education, Dist15                OVER VOTES                            Precinct 201                                           01 
01140020003000000REP       Member, State Board of Education, Dist15                OVER VOTES                            Precinct 202                                           01 
01140020004000000REP       Member, State Board of Education, Dist15                OVER VOTES                            Precinct 203                                           01 
01140020005000000REP       Member, State Board of Education, Dist15                OVER VOTES                            Precinct 301                                           01 
01140020006000000REP       Member, State Board of Education, Dist15                OVER VOTES                            Precinct 401                                           01 
01140020007000000REP       Member, State Board of Education, Dist15                OVER VOTES                            Precinct 402                                           01 
01140030001000130REP       Member, State Board of Education, Dist15                UNDER VOTES                           Precinct 101                                           01 
01140030002000168REP       Member, State Board of Education, Dist15                UNDER VOTES                           Precinct 201                                           01 
01140030003000167REP       Member, State Board of Education, Dist15                UNDER VOTES                           Precinct 202                                           01 
01140030004000004REP       Member, State Board of Education, Dist15                UNDER VOTES                           Precinct 203                                           01 
01140030005000099REP       Member, State Board of Education, Dist15                UNDER VOTES                           Precinct 301                                           01 
01140030006000098REP       Member, State Board of Education, Dist15                UNDER VOTES                           Precinct 401                                           01 
01140030007000004REP       Member, State Board of Education, Dist15                UNDER VOTES                           Precinct 402                                           01 
01150010001000480REP       State Representative, District 87                       Four Price                            Precinct 101                                           01 
01150010002000564REP       State Representative, District 87                       Four Price                            Precinct 201                                           01 
01150010003000580REP       State Representative, District 87                       Four Price                            Precinct 202                                           01 
01150010004000018REP       State Representative, District 87                       Four Price                            Precinct 203                                           01 
01150010005000266REP       State Representative, District 87                       Four Price                            Precinct 301                                           01 
01150010006000256REP       State Representative, District 87                       Four Price                            Precinct 401                                           01 
01150010007000012REP       State Representative, District 87                       Four Price                            Precinct 402                                           01 
01150020001000000REP       State Representative, District 87                       OVER VOTES                            Precinct 101                                           01 
01150020002000000REP       State Representative, District 87                       OVER VOTES                            Precinct 201                                           01 
01150020003000000REP       State Representative, District 87                       OVER VOTES                            Precinct 202                                           01 
01150020004000000REP       State Representative, District 87                       OVER VOTES                            Precinct 203                                           01 
01150020005000000REP       State Representative, District 87                       OVER VOTES                            Precinct 301                                           01 
01150020006000000REP       State Representative, District 87                       OVER VOTES                            Precinct 401                                           01 
01150020007000000REP       State Representative, District 87                       OVER VOTES                            Precinct 402                                           01 
01150030001000074REP       State Representative, District 87                       UNDER VOTES                           Precinct 101                                           01 
01150030002000073REP       State Representative, District 87                       UNDER VOTES                           Precinct 201                                           01 
01150030003000074REP       State Representative, District 87                       UNDER VOTES                           Precinct 202                                           01 
01150030004000002REP       State Representative, District 87                       UNDER VOTES                           Precinct 203                                           01 
01150030005000064REP       State Representative, District 87                       UNDER VOTES                           Precinct 301                                           01 
01150030006000067REP       State Representative, District 87                       UNDER VOTES                           Precinct 401                                           01 
01150030007000005REP       State Representative, District 87                       UNDER VOTES                           Precinct 402                                           01 
01160010001000428REP       Justice, 7th Ct of Appeals DIST, P4                     Jim Campbell                          Precinct 101                                           01 
01160010002000479REP       Justice, 7th Ct of Appeals DIST, P4                     Jim Campbell                          Precinct 201                                           01 
01160010003000494REP       Justice, 7th Ct of Appeals DIST, P4                     Jim Campbell                          Precinct 202                                           01 
01160010004000016REP       Justice, 7th Ct of Appeals DIST, P4                     Jim Campbell                          Precinct 203                                           01 
01160010005000242REP       Justice, 7th Ct of Appeals DIST, P4                     Jim Campbell                          Precinct 301                                           01 
01160010006000231REP       Justice, 7th Ct of Appeals DIST, P4                     Jim Campbell                          Precinct 401                                           01 
01160010007000013REP       Justice, 7th Ct of Appeals DIST, P4                     Jim Campbell                          Precinct 402                                           01 
01160020001000000REP       Justice, 7th Ct of Appeals DIST, P4                     OVER VOTES                            Precinct 101                                           01 
01160020002000000REP       Justice, 7th Ct of Appeals DIST, P4                     OVER VOTES                            Precinct 201                                           01 
01160020003000000REP       Justice, 7th Ct of Appeals DIST, P4                     OVER VOTES                            Precinct 202                                           01 
01160020004000000REP       Justice, 7th Ct of Appeals DIST, P4                     OVER VOTES                            Precinct 203                                           01 
01160020005000000REP       Justice, 7th Ct of Appeals DIST, P4                     OVER VOTES                            Precinct 301                                           01 
01160020006000000REP       Justice, 7th Ct of Appeals DIST, P4                     OVER VOTES                            Precinct 401                                           01 
01160020007000000REP       Justice, 7th Ct of Appeals DIST, P4                     OVER VOTES                            Precinct 402                                           01 
01160030001000126REP       Justice, 7th Ct of Appeals DIST, P4                     UNDER VOTES                           Precinct 101                                           01 
01160030002000158REP       Justice, 7th Ct of Appeals DIST, P4                     UNDER VOTES                           Precinct 201                                           01 
01160030003000160REP       Justice, 7th Ct of Appeals DIST, P4                     UNDER VOTES                           Precinct 202                                           01 
01160030004000004REP       Justice, 7th Ct of Appeals DIST, P4                     UNDER VOTES                           Precinct 203                                           01 
01160030005000088REP       Justice, 7th Ct of Appeals DIST, P4                     UNDER VOTES                           Precinct 301                                           01 
01160030006000092REP       Justice, 7th Ct of Appeals DIST, P4                     UNDER VOTES                           Precinct 401                                           01 
01160030007000004REP       Justice, 7th Ct of Appeals DIST, P4                     UNDER VOTES                           Precinct 402                                           01 
01170010001000441REP       District Attorney, 69th Judicial DIST                   David M. Green                        Precinct 101                                           01 
01170010002000481REP       District Attorney, 69th Judicial DIST                   David M. Green                        Precinct 201                                           01 
01170010003000541REP       District Attorney, 69th Judicial DIST                   David M. Green                        Precinct 202                                           01 
01170010004000017REP       District Attorney, 69th Judicial DIST                   David M. Green                        Precinct 203                                           01 
01170010005000240REP       District Attorney, 69th Judicial DIST                   David M. Green                        Precinct 301                                           01 
01170010006000237REP       District Attorney, 69th Judicial DIST                   David M. Green                        Precinct 401                                           01 
01170010007000013REP       District Attorney, 69th Judicial DIST                   David M. Green                        Precinct 402                                           01 
01170020001000000REP       District Attorney, 69th Judicial DIST                   OVER VOTES                            Precinct 101                                           01 
01170020002000000REP       District Attorney, 69th Judicial DIST                   OVER VOTES                            Precinct 201                                           01 
01170020003000000REP       District Attorney, 69th Judicial DIST                   OVER VOTES                            Precinct 202                                           01 
01170020004000000REP       District Attorney, 69th Judicial DIST                   OVER VOTES                            Precinct 203                                           01 
01170020005000000REP       District Attorney, 69th Judicial DIST                   OVER VOTES                            Precinct 301                                           01 
01170020006000000REP       District Attorney, 69th Judicial DIST                   OVER VOTES                            Precinct 401                                           01 
01170020007000000REP       District Attorney, 69th Judicial DIST                   OVER VOTES                            Precinct 402                                           01 
01170030001000113REP       District Attorney, 69th Judicial DIST                   UNDER VOTES                           Precinct 101                                           01 
01170030002000156REP       District Attorney, 69th Judicial DIST                   UNDER VOTES                           Precinct 201                                           01 
01170030003000113REP       District Attorney, 69th Judicial DIST                   UNDER VOTES                           Precinct 202                                           01 
01170030004000003REP       District Attorney, 69th Judicial DIST                   UNDER VOTES                           Precinct 203                                           01 
01170030005000090REP       District Attorney, 69th Judicial DIST                   UNDER VOTES                           Precinct 301                                           01 
01170030006000086REP       District Attorney, 69th Judicial DIST                   UNDER VOTES                           Precinct 401                                           01 
01170030007000004REP       District Attorney, 69th Judicial DIST                   UNDER VOTES                           Precinct 402                                           01 
