01030010001000598REP       Straight Party                                          Republican Party                      Precinct 101                                           01 
01030010002000586REP       Straight Party                                          Republican Party                      Precinct 201                                           01 
01030010003000572REP       Straight Party                                          Republican Party                      Precinct 202                                           01 
01030010004000021REP       Straight Party                                          Republican Party                      Precinct 203                                           01 
01030010005000345REP       Straight Party                                          Republican Party                      Precinct 301                                           01 
01030010006000378REP       Straight Party                                          Republican Party                      Precinct 401                                           01 
01030010007000027REP       Straight Party                                          Republican Party                      Precinct 402                                           01 
01030020001000230DEM       Straight Party                                          Democratic Party                      Precinct 101                                           01 
01030020002000092DEM       Straight Party                                          Democratic Party                      Precinct 201                                           01 
01030020003000073DEM       Straight Party                                          Democratic Party                      Precinct 202                                           01 
01030020004000004DEM       Straight Party                                          Democratic Party                      Precinct 203                                           01 
01030020005000193DEM       Straight Party                                          Democratic Party                      Precinct 301                                           01 
01030020006000071DEM       Straight Party                                          Democratic Party                      Precinct 401                                           01 
01030020007000121DEM       Straight Party                                          Democratic Party                      Precinct 402                                           01 
01030030001000021LIB       Straight Party                                          Libertarian Party                     Precinct 101                                           01 
01030030002000007LIB       Straight Party                                          Libertarian Party                     Precinct 201                                           01 
01030030003000004LIB       Straight Party                                          Libertarian Party                     Precinct 202                                           01 
01030030004000000LIB       Straight Party                                          Libertarian Party                     Precinct 203                                           01 
01030030005000012LIB       Straight Party                                          Libertarian Party                     Precinct 301                                           01 
01030030006000003LIB       Straight Party                                          Libertarian Party                     Precinct 401                                           01 
01030030007000010LIB       Straight Party                                          Libertarian Party                     Precinct 402                                           01 
01030040001000005GRN       Straight Party                                          Green Party                           Precinct 101                                           01 
01030040002000006GRN       Straight Party                                          Green Party                           Precinct 201                                           01 
01030040003000002GRN       Straight Party                                          Green Party                           Precinct 202                                           01 
01030040004000000GRN       Straight Party                                          Green Party                           Precinct 203                                           01 
01030040005000003GRN       Straight Party                                          Green Party                           Precinct 301                                           01 
01030040006000000GRN       Straight Party                                          Green Party                           Precinct 401                                           01 
01030040007000004GRN       Straight Party                                          Green Party                           Precinct 402                                           01 
01030050001000000          Straight Party                                          OVER VOTES                            Precinct 101                                           01 
01030050002000000          Straight Party                                          OVER VOTES                            Precinct 201                                           01 
01030050003000000          Straight Party                                          OVER VOTES                            Precinct 202                                           01 
01030050004000000          Straight Party                                          OVER VOTES                            Precinct 203                                           01 
01030050005000000          Straight Party                                          OVER VOTES                            Precinct 301                                           01 
01030050006000000          Straight Party                                          OVER VOTES                            Precinct 401                                           01 
01030050007000000          Straight Party                                          OVER VOTES                            Precinct 402                                           01 
01030060001000472          Straight Party                                          UNDER VOTES                           Precinct 101                                           01 
01030060002000468          Straight Party                                          UNDER VOTES                           Precinct 201                                           01 
01030060003000453          Straight Party                                          UNDER VOTES                           Precinct 202                                           01 
01030060004000014          Straight Party                                          UNDER VOTES                           Precinct 203                                           01 
01030060005000250          Straight Party                                          UNDER VOTES                           Precinct 301                                           01 
01030060006000205          Straight Party                                          UNDER VOTES                           Precinct 401                                           01 
01030060007000075          Straight Party                                          UNDER VOTES                           Precinct 402                                           01 
01040010001000940REP       President and Vice President                            Donald J. Trump / Mike Pence          Precinct 101                                           01 
01040010002000956REP       President and Vice President                            Donald J. Trump / Mike Pence          Precinct 201                                           01 
01040010003000941REP       President and Vice President                            Donald J. Trump / Mike Pence          Precinct 202                                           01 
01040010004000031REP       President and Vice President                            Donald J. Trump / Mike Pence          Precinct 203                                           01 
01040010005000521REP       President and Vice President                            Donald J. Trump / Mike Pence          Precinct 301                                           01 
01040010006000548REP       President and Vice President                            Donald J. Trump / Mike Pence          Precinct 401                                           01 
01040010007000040REP       President and Vice President                            Donald J. Trump / Mike Pence          Precinct 402                                           01 
01040020001000302DEM       President and Vice President                            Hillary Clinton / Tim Kaine           Precinct 101                                           01 
01040020002000159DEM       President and Vice President                            Hillary Clinton / Tim Kaine           Precinct 201                                           01 
01040020003000129DEM       President and Vice President                            Hillary Clinton / Tim Kaine           Precinct 202                                           01 
01040020004000007DEM       President and Vice President                            Hillary Clinton / Tim Kaine           Precinct 203                                           01 
01040020005000245DEM       President and Vice President                            Hillary Clinton / Tim Kaine           Precinct 301                                           01 
01040020006000086DEM       President and Vice President                            Hillary Clinton / Tim Kaine           Precinct 401                                           01 
01040020007000170DEM       President and Vice President                            Hillary Clinton / Tim Kaine           Precinct 402                                           01 
01040030001000059LIB       President and Vice President                            Gary Johnson / William Weld           Precinct 101                                           01 
01040030002000027LIB       President and Vice President                            Gary Johnson / William Weld           Precinct 201                                           01 
01040030003000022LIB       President and Vice President                            Gary Johnson / William Weld           Precinct 202                                           01 
01040030004000000LIB       President and Vice President                            Gary Johnson / William Weld           Precinct 203                                           01 
01040030005000026LIB       President and Vice President                            Gary Johnson / William Weld           Precinct 301                                           01 
01040030006000017LIB       President and Vice President                            Gary Johnson / William Weld           Precinct 401                                           01 
01040030007000015LIB       President and Vice President                            Gary Johnson / William Weld           Precinct 402                                           01 
01040040001000008GRN       President and Vice President                            Jill Stein / Ajamu Baraka             Precinct 101                                           01 
01040040002000006GRN       President and Vice President                            Jill Stein / Ajamu Baraka             Precinct 201                                           01 
01040040003000003GRN       President and Vice President                            Jill Stein / Ajamu Baraka             Precinct 202                                           01 
01040040004000000GRN       President and Vice President                            Jill Stein / Ajamu Baraka             Precinct 203                                           01 
01040040005000002GRN       President and Vice President                            Jill Stein / Ajamu Baraka             Precinct 301                                           01 
01040040006000001GRN       President and Vice President                            Jill Stein / Ajamu Baraka             Precinct 401                                           01 
01040040007000006GRN       President and Vice President                            Jill Stein / Ajamu Baraka             Precinct 402                                           01 
01040050001000011NON       President and Vice President                            WRITE-IN                              Precinct 101                                           01 
01040050002000007NON       President and Vice President                            WRITE-IN                              Precinct 201                                           01 
01040050003000008NON       President and Vice President                            WRITE-IN                              Precinct 202                                           01 
01040050004000001NON       President and Vice President                            WRITE-IN                              Precinct 203                                           01 
01040050005000005NON       President and Vice President                            WRITE-IN                              Precinct 301                                           01 
01040050006000003NON       President and Vice President                            WRITE-IN                              Precinct 401                                           01 
01040050007000000NON       President and Vice President                            WRITE-IN                              Precinct 402                                           01 
01040060001000000          President and Vice President                            OVER VOTES                            Precinct 101                                           01 
01040060002000001          President and Vice President                            OVER VOTES                            Precinct 201                                           01 
01040060003000000          President and Vice President                            OVER VOTES                            Precinct 202                                           01 
01040060004000000          President and Vice President                            OVER VOTES                            Precinct 203                                           01 
01040060005000000          President and Vice President                            OVER VOTES                            Precinct 301                                           01 
01040060006000000          President and Vice President                            OVER VOTES                            Precinct 401                                           01 
01040060007000000          President and Vice President                            OVER VOTES                            Precinct 402                                           01 
01040070001000006          President and Vice President                            UNDER VOTES                           Precinct 101                                           01 
01040070002000004          President and Vice President                            UNDER VOTES                           Precinct 201                                           01 
01040070003000002          President and Vice President                            UNDER VOTES                           Precinct 202                                           01 
01040070004000000          President and Vice President                            UNDER VOTES                           Precinct 203                                           01 
01040070005000004          President and Vice President                            UNDER VOTES                           Precinct 301                                           01 
01040070006000002          President and Vice President                            UNDER VOTES                           Precinct 401                                           01 
01040070007000006          President and Vice President                            UNDER VOTES                           Precinct 402                                           01 
01050010001001020REP       United States Rep, District 13                          Mac Thornberry                        Precinct 101                                           01 
01050010002001009REP       United States Rep, District 13                          Mac Thornberry                        Precinct 201                                           01 
01050010003000963REP       United States Rep, District 13                          Mac Thornberry                        Precinct 202                                           01 
01050010004000034REP       United States Rep, District 13                          Mac Thornberry                        Precinct 203                                           01 
01050010005000575REP       United States Rep, District 13                          Mac Thornberry                        Precinct 301                                           01 
01050010006000564REP       United States Rep, District 13                          Mac Thornberry                        Precinct 401                                           01 
01050010007000063REP       United States Rep, District 13                          Mac Thornberry                        Precinct 402                                           01 
01050020001000082LIB       United States Rep, District 13                          Calvin DeWeese                        Precinct 101                                           01 
01050020002000044LIB       United States Rep, District 13                          Calvin DeWeese                        Precinct 201                                           01 
01050020003000049LIB       United States Rep, District 13                          Calvin DeWeese                        Precinct 202                                           01 
01050020004000001LIB       United States Rep, District 13                          Calvin DeWeese                        Precinct 203                                           01 
01050020005000060LIB       United States Rep, District 13                          Calvin DeWeese                        Precinct 301                                           01 
01050020006000029LIB       United States Rep, District 13                          Calvin DeWeese                        Precinct 401                                           01 
01050020007000032LIB       United States Rep, District 13                          Calvin DeWeese                        Precinct 402                                           01 
01050030001000040GRN       United States Rep, District 13                          H.F. "Rusty" Tomlinson                Precinct 101                                           01 
01050030002000026GRN       United States Rep, District 13                          H.F. "Rusty" Tomlinson                Precinct 201                                           01 
01050030003000019GRN       United States Rep, District 13                          H.F. "Rusty" Tomlinson                Precinct 202                                           01 
01050030004000000GRN       United States Rep, District 13                          H.F. "Rusty" Tomlinson                Precinct 203                                           01 
01050030005000012GRN       United States Rep, District 13                          H.F. "Rusty" Tomlinson                Precinct 301                                           01 
01050030006000010GRN       United States Rep, District 13                          H.F. "Rusty" Tomlinson                Precinct 401                                           01 
01050030007000010GRN       United States Rep, District 13                          H.F. "Rusty" Tomlinson                Precinct 402                                           01 
01050040001000000          United States Rep, District 13                          OVER VOTES                            Precinct 101                                           01 
01050040002000000          United States Rep, District 13                          OVER VOTES                            Precinct 201                                           01 
01050040003000000          United States Rep, District 13                          OVER VOTES                            Precinct 202                                           01 
01050040004000000          United States Rep, District 13                          OVER VOTES                            Precinct 203                                           01 
01050040005000000          United States Rep, District 13                          OVER VOTES                            Precinct 301                                           01 
01050040006000000          United States Rep, District 13                          OVER VOTES                            Precinct 401                                           01 
01050040007000000          United States Rep, District 13                          OVER VOTES                            Precinct 402                                           01 
01050050001000184          United States Rep, District 13                          UNDER VOTES                           Precinct 101                                           01 
01050050002000080          United States Rep, District 13                          UNDER VOTES                           Precinct 201                                           01 
01050050003000074          United States Rep, District 13                          UNDER VOTES                           Precinct 202                                           01 
01050050004000004          United States Rep, District 13                          UNDER VOTES                           Precinct 203                                           01 
01050050005000156          United States Rep, District 13                          UNDER VOTES                           Precinct 301                                           01 
01050050006000054          United States Rep, District 13                          UNDER VOTES                           Precinct 401                                           01 
01050050007000132          United States Rep, District 13                          UNDER VOTES                           Precinct 402                                           01 
01060010001000899REP       Railroad Commissioner                                   Wayne Christian                       Precinct 101                                           01 
01060010002000923REP       Railroad Commissioner                                   Wayne Christian                       Precinct 201                                           01 
01060010003000908REP       Railroad Commissioner                                   Wayne Christian                       Precinct 202                                           01 
01060010004000032REP       Railroad Commissioner                                   Wayne Christian                       Precinct 203                                           01 
01060010005000504REP       Railroad Commissioner                                   Wayne Christian                       Precinct 301                                           01 
01060010006000516REP       Railroad Commissioner                                   Wayne Christian                       Precinct 401                                           01 
01060010007000031REP       Railroad Commissioner                                   Wayne Christian                       Precinct 402                                           01 
01060020001000280DEM       Railroad Commissioner                                   Grady Yarbrough                       Precinct 101                                           01 
01060020002000123DEM       Railroad Commissioner                                   Grady Yarbrough                       Precinct 201                                           01 
01060020003000114DEM       Railroad Commissioner                                   Grady Yarbrough                       Precinct 202                                           01 
01060020004000006DEM       Railroad Commissioner                                   Grady Yarbrough                       Precinct 203                                           01 
01060020005000222DEM       Railroad Commissioner                                   Grady Yarbrough                       Precinct 301                                           01 
01060020006000088DEM       Railroad Commissioner                                   Grady Yarbrough                       Precinct 401                                           01 
01060020007000129DEM       Railroad Commissioner                                   Grady Yarbrough                       Precinct 402                                           01 
01060030001000063LIB       Railroad Commissioner                                   Mark Miller                           Precinct 101                                           01 
01060030002000039LIB       Railroad Commissioner                                   Mark Miller                           Precinct 201                                           01 
01060030003000041LIB       Railroad Commissioner                                   Mark Miller                           Precinct 202                                           01 
01060030004000000LIB       Railroad Commissioner                                   Mark Miller                           Precinct 203                                           01 
01060030005000026LIB       Railroad Commissioner                                   Mark Miller                           Precinct 301                                           01 
01060030006000026LIB       Railroad Commissioner                                   Mark Miller                           Precinct 401                                           01 
01060030007000009LIB       Railroad Commissioner                                   Mark Miller                           Precinct 402                                           01 
01060040001000039GRN       Railroad Commissioner                                   Martina Salinas                       Precinct 101                                           01 
01060040002000040GRN       Railroad Commissioner                                   Martina Salinas                       Precinct 201                                           01 
01060040003000012GRN       Railroad Commissioner                                   Martina Salinas                       Precinct 202                                           01 
01060040004000000GRN       Railroad Commissioner                                   Martina Salinas                       Precinct 203                                           01 
01060040005000023GRN       Railroad Commissioner                                   Martina Salinas                       Precinct 301                                           01 
01060040006000006GRN       Railroad Commissioner                                   Martina Salinas                       Precinct 401                                           01 
01060040007000020GRN       Railroad Commissioner                                   Martina Salinas                       Precinct 402                                           01 
01060050001000000          Railroad Commissioner                                   OVER VOTES                            Precinct 101                                           01 
01060050002000000          Railroad Commissioner                                   OVER VOTES                            Precinct 201                                           01 
01060050003000000          Railroad Commissioner                                   OVER VOTES                            Precinct 202                                           01 
01060050004000000          Railroad Commissioner                                   OVER VOTES                            Precinct 203                                           01 
01060050005000000          Railroad Commissioner                                   OVER VOTES                            Precinct 301                                           01 
01060050006000000          Railroad Commissioner                                   OVER VOTES                            Precinct 401                                           01 
01060050007000000          Railroad Commissioner                                   OVER VOTES                            Precinct 402                                           01 
01060060001000045          Railroad Commissioner                                   UNDER VOTES                           Precinct 101                                           01 
01060060002000034          Railroad Commissioner                                   UNDER VOTES                           Precinct 201                                           01 
01060060003000030          Railroad Commissioner                                   UNDER VOTES                           Precinct 202                                           01 
01060060004000001          Railroad Commissioner                                   UNDER VOTES                           Precinct 203                                           01 
01060060005000028          Railroad Commissioner                                   UNDER VOTES                           Precinct 301                                           01 
01060060006000021          Railroad Commissioner                                   UNDER VOTES                           Precinct 401                                           01 
01060060007000048          Railroad Commissioner                                   UNDER VOTES                           Precinct 402                                           01 
01070010001000916REP       Justice, Supreme Court, Place 3                         Debra Lehrmann                        Precinct 101                                           01 
01070010002000930REP       Justice, Supreme Court, Place 3                         Debra Lehrmann                        Precinct 201                                           01 
01070010003000905REP       Justice, Supreme Court, Place 3                         Debra Lehrmann                        Precinct 202                                           01 
01070010004000032REP       Justice, Supreme Court, Place 3                         Debra Lehrmann                        Precinct 203                                           01 
01070010005000499REP       Justice, Supreme Court, Place 3                         Debra Lehrmann                        Precinct 301                                           01 
01070010006000520REP       Justice, Supreme Court, Place 3                         Debra Lehrmann                        Precinct 401                                           01 
01070010007000031REP       Justice, Supreme Court, Place 3                         Debra Lehrmann                        Precinct 402                                           01 
01070020001000274DEM       Justice, Supreme Court, Place 3                         Mike Westergren                       Precinct 101                                           01 
01070020002000127DEM       Justice, Supreme Court, Place 3                         Mike Westergren                       Precinct 201                                           01 
01070020003000114DEM       Justice, Supreme Court, Place 3                         Mike Westergren                       Precinct 202                                           01 
01070020004000006DEM       Justice, Supreme Court, Place 3                         Mike Westergren                       Precinct 203                                           01 
01070020005000225DEM       Justice, Supreme Court, Place 3                         Mike Westergren                       Precinct 301                                           01 
01070020006000090DEM       Justice, Supreme Court, Place 3                         Mike Westergren                       Precinct 401                                           01 
01070020007000124DEM       Justice, Supreme Court, Place 3                         Mike Westergren                       Precinct 402                                           01 
01070030001000047LIB       Justice, Supreme Court, Place 3                         Kathie Glass                          Precinct 101                                           01 
01070030002000032LIB       Justice, Supreme Court, Place 3                         Kathie Glass                          Precinct 201                                           01 
01070030003000038LIB       Justice, Supreme Court, Place 3                         Kathie Glass                          Precinct 202                                           01 
01070030004000000LIB       Justice, Supreme Court, Place 3                         Kathie Glass                          Precinct 203                                           01 
01070030005000025LIB       Justice, Supreme Court, Place 3                         Kathie Glass                          Precinct 301                                           01 
01070030006000019LIB       Justice, Supreme Court, Place 3                         Kathie Glass                          Precinct 401                                           01 
01070030007000008LIB       Justice, Supreme Court, Place 3                         Kathie Glass                          Precinct 402                                           01 
01070040001000041GRN       Justice, Supreme Court, Place 3                         Rodolfo Rivera Munoz                  Precinct 101                                           01 
01070040002000030GRN       Justice, Supreme Court, Place 3                         Rodolfo Rivera Munoz                  Precinct 201                                           01 
01070040003000016GRN       Justice, Supreme Court, Place 3                         Rodolfo Rivera Munoz                  Precinct 202                                           01 
01070040004000000GRN       Justice, Supreme Court, Place 3                         Rodolfo Rivera Munoz                  Precinct 203                                           01 
01070040005000027GRN       Justice, Supreme Court, Place 3                         Rodolfo Rivera Munoz                  Precinct 301                                           01 
01070040006000006GRN       Justice, Supreme Court, Place 3                         Rodolfo Rivera Munoz                  Precinct 401                                           01 
01070040007000025GRN       Justice, Supreme Court, Place 3                         Rodolfo Rivera Munoz                  Precinct 402                                           01 
01070050001000000          Justice, Supreme Court, Place 3                         OVER VOTES                            Precinct 101                                           01 
01070050002000000          Justice, Supreme Court, Place 3                         OVER VOTES                            Precinct 201                                           01 
01070050003000000          Justice, Supreme Court, Place 3                         OVER VOTES                            Precinct 202                                           01 
01070050004000000          Justice, Supreme Court, Place 3                         OVER VOTES                            Precinct 203                                           01 
01070050005000000          Justice, Supreme Court, Place 3                         OVER VOTES                            Precinct 301                                           01 
01070050006000000          Justice, Supreme Court, Place 3                         OVER VOTES                            Precinct 401                                           01 
01070050007000000          Justice, Supreme Court, Place 3                         OVER VOTES                            Precinct 402                                           01 
01070060001000048          Justice, Supreme Court, Place 3                         UNDER VOTES                           Precinct 101                                           01 
01070060002000040          Justice, Supreme Court, Place 3                         UNDER VOTES                           Precinct 201                                           01 
01070060003000032          Justice, Supreme Court, Place 3                         UNDER VOTES                           Precinct 202                                           01 
01070060004000001          Justice, Supreme Court, Place 3                         UNDER VOTES                           Precinct 203                                           01 
01070060005000027          Justice, Supreme Court, Place 3                         UNDER VOTES                           Precinct 301                                           01 
01070060006000022          Justice, Supreme Court, Place 3                         UNDER VOTES                           Precinct 401                                           01 
01070060007000049          Justice, Supreme Court, Place 3                         UNDER VOTES                           Precinct 402                                           01 
01080010001000922REP       Justice, Supreme Court, Place 5                         Paul Green                            Precinct 101                                           01 
01080010002000945REP       Justice, Supreme Court, Place 5                         Paul Green                            Precinct 201                                           01 
01080010003000913REP       Justice, Supreme Court, Place 5                         Paul Green                            Precinct 202                                           01 
01080010004000032REP       Justice, Supreme Court, Place 5                         Paul Green                            Precinct 203                                           01 
01080010005000509REP       Justice, Supreme Court, Place 5                         Paul Green                            Precinct 301                                           01 
01080010006000523REP       Justice, Supreme Court, Place 5                         Paul Green                            Precinct 401                                           01 
01080010007000036REP       Justice, Supreme Court, Place 5                         Paul Green                            Precinct 402                                           01 
01080020001000298DEM       Justice, Supreme Court, Place 5                         Dori Contreras Garza                  Precinct 101                                           01 
01080020002000144DEM       Justice, Supreme Court, Place 5                         Dori Contreras Garza                  Precinct 201                                           01 
01080020003000113DEM       Justice, Supreme Court, Place 5                         Dori Contreras Garza                  Precinct 202                                           01 
01080020004000005DEM       Justice, Supreme Court, Place 5                         Dori Contreras Garza                  Precinct 203                                           01 
01080020005000239DEM       Justice, Supreme Court, Place 5                         Dori Contreras Garza                  Precinct 301                                           01 
01080020006000085DEM       Justice, Supreme Court, Place 5                         Dori Contreras Garza                  Precinct 401                                           01 
01080020007000141DEM       Justice, Supreme Court, Place 5                         Dori Contreras Garza                  Precinct 402                                           01 
01080030001000047LIB       Justice, Supreme Court, Place 5                         Tom Oxford                            Precinct 101                                           01 
01080030002000028LIB       Justice, Supreme Court, Place 5                         Tom Oxford                            Precinct 201                                           01 
01080030003000035LIB       Justice, Supreme Court, Place 5                         Tom Oxford                            Precinct 202                                           01 
01080030004000001LIB       Justice, Supreme Court, Place 5                         Tom Oxford                            Precinct 203                                           01 
01080030005000018LIB       Justice, Supreme Court, Place 5                         Tom Oxford                            Precinct 301                                           01 
01080030006000019LIB       Justice, Supreme Court, Place 5                         Tom Oxford                            Precinct 401                                           01 
01080030007000007LIB       Justice, Supreme Court, Place 5                         Tom Oxford                            Precinct 402                                           01 
01080040001000012GRN       Justice, Supreme Court, Place 5                         Charles E. Waterbury                  Precinct 101                                           01 
01080040002000008GRN       Justice, Supreme Court, Place 5                         Charles E. Waterbury                  Precinct 201                                           01 
01080040003000011GRN       Justice, Supreme Court, Place 5                         Charles E. Waterbury                  Precinct 202                                           01 
01080040004000000GRN       Justice, Supreme Court, Place 5                         Charles E. Waterbury                  Precinct 203                                           01 
01080040005000009GRN       Justice, Supreme Court, Place 5                         Charles E. Waterbury                  Precinct 301                                           01 
01080040006000004GRN       Justice, Supreme Court, Place 5                         Charles E. Waterbury                  Precinct 401                                           01 
01080040007000005GRN       Justice, Supreme Court, Place 5                         Charles E. Waterbury                  Precinct 402                                           01 
01080050001000000          Justice, Supreme Court, Place 5                         OVER VOTES                            Precinct 101                                           01 
01080050002000000          Justice, Supreme Court, Place 5                         OVER VOTES                            Precinct 201                                           01 
01080050003000000          Justice, Supreme Court, Place 5                         OVER VOTES                            Precinct 202                                           01 
01080050004000000          Justice, Supreme Court, Place 5                         OVER VOTES                            Precinct 203                                           01 
01080050005000000          Justice, Supreme Court, Place 5                         OVER VOTES                            Precinct 301                                           01 
01080050006000000          Justice, Supreme Court, Place 5                         OVER VOTES                            Precinct 401                                           01 
01080050007000000          Justice, Supreme Court, Place 5                         OVER VOTES                            Precinct 402                                           01 
01080060001000047          Justice, Supreme Court, Place 5                         UNDER VOTES                           Precinct 101                                           01 
01080060002000034          Justice, Supreme Court, Place 5                         UNDER VOTES                           Precinct 201                                           01 
01080060003000033          Justice, Supreme Court, Place 5                         UNDER VOTES                           Precinct 202                                           01 
01080060004000001          Justice, Supreme Court, Place 5                         UNDER VOTES                           Precinct 203                                           01 
01080060005000028          Justice, Supreme Court, Place 5                         UNDER VOTES                           Precinct 301                                           01 
01080060006000026          Justice, Supreme Court, Place 5                         UNDER VOTES                           Precinct 401                                           01 
01080060007000048          Justice, Supreme Court, Place 5                         UNDER VOTES                           Precinct 402                                           01 
01090010001000929REP       Justice, Supreme Court, Place 9                         Eva Guzman                            Precinct 101                                           01 
01090010002000938REP       Justice, Supreme Court, Place 9                         Eva Guzman                            Precinct 201                                           01 
01090010003000900REP       Justice, Supreme Court, Place 9                         Eva Guzman                            Precinct 202                                           01 
01090010004000030REP       Justice, Supreme Court, Place 9                         Eva Guzman                            Precinct 203                                           01 
01090010005000518REP       Justice, Supreme Court, Place 9                         Eva Guzman                            Precinct 301                                           01 
01090010006000505REP       Justice, Supreme Court, Place 9                         Eva Guzman                            Precinct 401                                           01 
01090010007000045REP       Justice, Supreme Court, Place 9                         Eva Guzman                            Precinct 402                                           01 
01090020001000278DEM       Justice, Supreme Court, Place 9                         Savannah Robinson                     Precinct 101                                           01 
01090020002000135DEM       Justice, Supreme Court, Place 9                         Savannah Robinson                     Precinct 201                                           01 
01090020003000114DEM       Justice, Supreme Court, Place 9                         Savannah Robinson                     Precinct 202                                           01 
01090020004000006DEM       Justice, Supreme Court, Place 9                         Savannah Robinson                     Precinct 203                                           01 
01090020005000221DEM       Justice, Supreme Court, Place 9                         Savannah Robinson                     Precinct 301                                           01 
01090020006000087DEM       Justice, Supreme Court, Place 9                         Savannah Robinson                     Precinct 401                                           01 
01090020007000130DEM       Justice, Supreme Court, Place 9                         Savannah Robinson                     Precinct 402                                           01 
01090030001000044LIB       Justice, Supreme Court, Place 9                         Don Fulton                            Precinct 101                                           01 
01090030002000031LIB       Justice, Supreme Court, Place 9                         Don Fulton                            Precinct 201                                           01 
01090030003000039LIB       Justice, Supreme Court, Place 9                         Don Fulton                            Precinct 202                                           01 
01090030004000000LIB       Justice, Supreme Court, Place 9                         Don Fulton                            Precinct 203                                           01 
01090030005000021LIB       Justice, Supreme Court, Place 9                         Don Fulton                            Precinct 301                                           01 
01090030006000028LIB       Justice, Supreme Court, Place 9                         Don Fulton                            Precinct 401                                           01 
01090030007000008LIB       Justice, Supreme Court, Place 9                         Don Fulton                            Precinct 402                                           01 
01090040001000027GRN       Justice, Supreme Court, Place 9                         Jim Chisholm                          Precinct 101                                           01 
01090040002000020GRN       Justice, Supreme Court, Place 9                         Jim Chisholm                          Precinct 201                                           01 
01090040003000017GRN       Justice, Supreme Court, Place 9                         Jim Chisholm                          Precinct 202                                           01 
01090040004000002GRN       Justice, Supreme Court, Place 9                         Jim Chisholm                          Precinct 203                                           01 
01090040005000015GRN       Justice, Supreme Court, Place 9                         Jim Chisholm                          Precinct 301                                           01 
01090040006000009GRN       Justice, Supreme Court, Place 9                         Jim Chisholm                          Precinct 401                                           01 
01090040007000006GRN       Justice, Supreme Court, Place 9                         Jim Chisholm                          Precinct 402                                           01 
01090050001000000          Justice, Supreme Court, Place 9                         OVER VOTES                            Precinct 101                                           01 
01090050002000000          Justice, Supreme Court, Place 9                         OVER VOTES                            Precinct 201                                           01 
01090050003000000          Justice, Supreme Court, Place 9                         OVER VOTES                            Precinct 202                                           01 
01090050004000000          Justice, Supreme Court, Place 9                         OVER VOTES                            Precinct 203                                           01 
01090050005000000          Justice, Supreme Court, Place 9                         OVER VOTES                            Precinct 301                                           01 
01090050006000000          Justice, Supreme Court, Place 9                         OVER VOTES                            Precinct 401                                           01 
01090050007000000          Justice, Supreme Court, Place 9                         OVER VOTES                            Precinct 402                                           01 
01090060001000048          Justice, Supreme Court, Place 9                         UNDER VOTES                           Precinct 101                                           01 
01090060002000035          Justice, Supreme Court, Place 9                         UNDER VOTES                           Precinct 201                                           01 
01090060003000035          Justice, Supreme Court, Place 9                         UNDER VOTES                           Precinct 202                                           01 
01090060004000001          Justice, Supreme Court, Place 9                         UNDER VOTES                           Precinct 203                                           01 
01090060005000028          Justice, Supreme Court, Place 9                         UNDER VOTES                           Precinct 301                                           01 
01090060006000028          Justice, Supreme Court, Place 9                         UNDER VOTES                           Precinct 401                                           01 
01090060007000048          Justice, Supreme Court, Place 9                         UNDER VOTES                           Precinct 402                                           01 
01100010001000921REP       Judge, Court of Criminal Appeals, Pl 2                  Mary Lou Keel                         Precinct 101                                           01 
01100010002000942REP       Judge, Court of Criminal Appeals, Pl 2                  Mary Lou Keel                         Precinct 201                                           01 
01100010003000903REP       Judge, Court of Criminal Appeals, Pl 2                  Mary Lou Keel                         Precinct 202                                           01 
01100010004000033REP       Judge, Court of Criminal Appeals, Pl 2                  Mary Lou Keel                         Precinct 203                                           01 
01100010005000507REP       Judge, Court of Criminal Appeals, Pl 2                  Mary Lou Keel                         Precinct 301                                           01 
01100010006000512REP       Judge, Court of Criminal Appeals, Pl 2                  Mary Lou Keel                         Precinct 401                                           01 
01100010007000039REP       Judge, Court of Criminal Appeals, Pl 2                  Mary Lou Keel                         Precinct 402                                           01 
01100020001000289DEM       Judge, Court of Criminal Appeals, Pl 2                  Lawrence "Larry" Meyers               Precinct 101                                           01 
01100020002000137DEM       Judge, Court of Criminal Appeals, Pl 2                  Lawrence "Larry" Meyers               Precinct 201                                           01 
01100020003000122DEM       Judge, Court of Criminal Appeals, Pl 2                  Lawrence "Larry" Meyers               Precinct 202                                           01 
01100020004000005DEM       Judge, Court of Criminal Appeals, Pl 2                  Lawrence "Larry" Meyers               Precinct 203                                           01 
01100020005000229DEM       Judge, Court of Criminal Appeals, Pl 2                  Lawrence "Larry" Meyers               Precinct 301                                           01 
01100020006000083DEM       Judge, Court of Criminal Appeals, Pl 2                  Lawrence "Larry" Meyers               Precinct 401                                           01 
01100020007000134DEM       Judge, Court of Criminal Appeals, Pl 2                  Lawrence "Larry" Meyers               Precinct 402                                           01 
01100030001000050LIB       Judge, Court of Criminal Appeals, Pl 2                  Mark Ash                              Precinct 101                                           01 
01100030002000034LIB       Judge, Court of Criminal Appeals, Pl 2                  Mark Ash                              Precinct 201                                           01 
01100030003000037LIB       Judge, Court of Criminal Appeals, Pl 2                  Mark Ash                              Precinct 202                                           01 
01100030004000000LIB       Judge, Court of Criminal Appeals, Pl 2                  Mark Ash                              Precinct 203                                           01 
01100030005000022LIB       Judge, Court of Criminal Appeals, Pl 2                  Mark Ash                              Precinct 301                                           01 
01100030006000028LIB       Judge, Court of Criminal Appeals, Pl 2                  Mark Ash                              Precinct 401                                           01 
01100030007000008LIB       Judge, Court of Criminal Appeals, Pl 2                  Mark Ash                              Precinct 402                                           01 
01100040001000016GRN       Judge, Court of Criminal Appeals, Pl 2                  Adam King Blackwell Reposa            Precinct 101                                           01 
01100040002000009GRN       Judge, Court of Criminal Appeals, Pl 2                  Adam King Blackwell Reposa            Precinct 201                                           01 
01100040003000006GRN       Judge, Court of Criminal Appeals, Pl 2                  Adam King Blackwell Reposa            Precinct 202                                           01 
01100040004000000GRN       Judge, Court of Criminal Appeals, Pl 2                  Adam King Blackwell Reposa            Precinct 203                                           01 
01100040005000014GRN       Judge, Court of Criminal Appeals, Pl 2                  Adam King Blackwell Reposa            Precinct 301                                           01 
01100040006000006GRN       Judge, Court of Criminal Appeals, Pl 2                  Adam King Blackwell Reposa            Precinct 401                                           01 
01100040007000006GRN       Judge, Court of Criminal Appeals, Pl 2                  Adam King Blackwell Reposa            Precinct 402                                           01 
01100050001000000          Judge, Court of Criminal Appeals, Pl 2                  OVER VOTES                            Precinct 101                                           01 
01100050002000000          Judge, Court of Criminal Appeals, Pl 2                  OVER VOTES                            Precinct 201                                           01 
01100050003000000          Judge, Court of Criminal Appeals, Pl 2                  OVER VOTES                            Precinct 202                                           01 
01100050004000000          Judge, Court of Criminal Appeals, Pl 2                  OVER VOTES                            Precinct 203                                           01 
01100050005000000          Judge, Court of Criminal Appeals, Pl 2                  OVER VOTES                            Precinct 301                                           01 
01100050006000000          Judge, Court of Criminal Appeals, Pl 2                  OVER VOTES                            Precinct 401                                           01 
01100050007000000          Judge, Court of Criminal Appeals, Pl 2                  OVER VOTES                            Precinct 402                                           01 
01100060001000050          Judge, Court of Criminal Appeals, Pl 2                  UNDER VOTES                           Precinct 101                                           01 
01100060002000037          Judge, Court of Criminal Appeals, Pl 2                  UNDER VOTES                           Precinct 201                                           01 
01100060003000037          Judge, Court of Criminal Appeals, Pl 2                  UNDER VOTES                           Precinct 202                                           01 
01100060004000001          Judge, Court of Criminal Appeals, Pl 2                  UNDER VOTES                           Precinct 203                                           01 
01100060005000031          Judge, Court of Criminal Appeals, Pl 2                  UNDER VOTES                           Precinct 301                                           01 
01100060006000028          Judge, Court of Criminal Appeals, Pl 2                  UNDER VOTES                           Precinct 401                                           01 
01100060007000050          Judge, Court of Criminal Appeals, Pl 2                  UNDER VOTES                           Precinct 402                                           01 
01110010001000928REP       Judge, Court of Criminal Appeals, Pl 5                  Scott Walker                          Precinct 101                                           01 
01110010002000947REP       Judge, Court of Criminal Appeals, Pl 5                  Scott Walker                          Precinct 201                                           01 
01110010003000911REP       Judge, Court of Criminal Appeals, Pl 5                  Scott Walker                          Precinct 202                                           01 
01110010004000033REP       Judge, Court of Criminal Appeals, Pl 5                  Scott Walker                          Precinct 203                                           01 
01110010005000509REP       Judge, Court of Criminal Appeals, Pl 5                  Scott Walker                          Precinct 301                                           01 
01110010006000520REP       Judge, Court of Criminal Appeals, Pl 5                  Scott Walker                          Precinct 401                                           01 
01110010007000035REP       Judge, Court of Criminal Appeals, Pl 5                  Scott Walker                          Precinct 402                                           01 
01110020001000278DEM       Judge, Court of Criminal Appeals, Pl 5                  Betsy Johnson                         Precinct 101                                           01 
01110020002000128DEM       Judge, Court of Criminal Appeals, Pl 5                  Betsy Johnson                         Precinct 201                                           01 
01110020003000114DEM       Judge, Court of Criminal Appeals, Pl 5                  Betsy Johnson                         Precinct 202                                           01 
01110020004000005DEM       Judge, Court of Criminal Appeals, Pl 5                  Betsy Johnson                         Precinct 203                                           01 
01110020005000229DEM       Judge, Court of Criminal Appeals, Pl 5                  Betsy Johnson                         Precinct 301                                           01 
01110020006000085DEM       Judge, Court of Criminal Appeals, Pl 5                  Betsy Johnson                         Precinct 401                                           01 
01110020007000130DEM       Judge, Court of Criminal Appeals, Pl 5                  Betsy Johnson                         Precinct 402                                           01 
01110030001000035LIB       Judge, Court of Criminal Appeals, Pl 5                  William Bryan Strange, III            Precinct 101                                           01 
01110030002000024LIB       Judge, Court of Criminal Appeals, Pl 5                  William Bryan Strange, III            Precinct 201                                           01 
01110030003000030LIB       Judge, Court of Criminal Appeals, Pl 5                  William Bryan Strange, III            Precinct 202                                           01 
01110030004000000LIB       Judge, Court of Criminal Appeals, Pl 5                  William Bryan Strange, III            Precinct 203                                           01 
01110030005000015LIB       Judge, Court of Criminal Appeals, Pl 5                  William Bryan Strange, III            Precinct 301                                           01 
01110030006000019LIB       Judge, Court of Criminal Appeals, Pl 5                  William Bryan Strange, III            Precinct 401                                           01 
01110030007000008LIB       Judge, Court of Criminal Appeals, Pl 5                  William Bryan Strange, III            Precinct 402                                           01 
01110040001000033GRN       Judge, Court of Criminal Appeals, Pl 5                  Judith Sanders-Castro                 Precinct 101                                           01 
01110040002000024GRN       Judge, Court of Criminal Appeals, Pl 5                  Judith Sanders-Castro                 Precinct 201                                           01 
01110040003000013GRN       Judge, Court of Criminal Appeals, Pl 5                  Judith Sanders-Castro                 Precinct 202                                           01 
01110040004000000GRN       Judge, Court of Criminal Appeals, Pl 5                  Judith Sanders-Castro                 Precinct 203                                           01 
01110040005000020GRN       Judge, Court of Criminal Appeals, Pl 5                  Judith Sanders-Castro                 Precinct 301                                           01 
01110040006000006GRN       Judge, Court of Criminal Appeals, Pl 5                  Judith Sanders-Castro                 Precinct 401                                           01 
01110040007000016GRN       Judge, Court of Criminal Appeals, Pl 5                  Judith Sanders-Castro                 Precinct 402                                           01 
01110050001000000          Judge, Court of Criminal Appeals, Pl 5                  OVER VOTES                            Precinct 101                                           01 
01110050002000000          Judge, Court of Criminal Appeals, Pl 5                  OVER VOTES                            Precinct 201                                           01 
01110050003000000          Judge, Court of Criminal Appeals, Pl 5                  OVER VOTES                            Precinct 202                                           01 
01110050004000000          Judge, Court of Criminal Appeals, Pl 5                  OVER VOTES                            Precinct 203                                           01 
01110050005000000          Judge, Court of Criminal Appeals, Pl 5                  OVER VOTES                            Precinct 301                                           01 
01110050006000000          Judge, Court of Criminal Appeals, Pl 5                  OVER VOTES                            Precinct 401                                           01 
01110050007000000          Judge, Court of Criminal Appeals, Pl 5                  OVER VOTES                            Precinct 402                                           01 
01110060001000052          Judge, Court of Criminal Appeals, Pl 5                  UNDER VOTES                           Precinct 101                                           01 
01110060002000036          Judge, Court of Criminal Appeals, Pl 5                  UNDER VOTES                           Precinct 201                                           01 
01110060003000037          Judge, Court of Criminal Appeals, Pl 5                  UNDER VOTES                           Precinct 202                                           01 
01110060004000001          Judge, Court of Criminal Appeals, Pl 5                  UNDER VOTES                           Precinct 203                                           01 
01110060005000030          Judge, Court of Criminal Appeals, Pl 5                  UNDER VOTES                           Precinct 301                                           01 
01110060006000027          Judge, Court of Criminal Appeals, Pl 5                  UNDER VOTES                           Precinct 401                                           01 
01110060007000048          Judge, Court of Criminal Appeals, Pl 5                  UNDER VOTES                           Precinct 402                                           01 
01120010001000931REP       Judge, Court of Criminal Appeals, Pl 6                  Michael E. Keasler                    Precinct 101                                           01 
01120010002000946REP       Judge, Court of Criminal Appeals, Pl 6                  Michael E. Keasler                    Precinct 201                                           01 
01120010003000917REP       Judge, Court of Criminal Appeals, Pl 6                  Michael E. Keasler                    Precinct 202                                           01 
01120010004000032REP       Judge, Court of Criminal Appeals, Pl 6                  Michael E. Keasler                    Precinct 203                                           01 
01120010005000522REP       Judge, Court of Criminal Appeals, Pl 6                  Michael E. Keasler                    Precinct 301                                           01 
01120010006000518REP       Judge, Court of Criminal Appeals, Pl 6                  Michael E. Keasler                    Precinct 401                                           01 
01120010007000039REP       Judge, Court of Criminal Appeals, Pl 6                  Michael E. Keasler                    Precinct 402                                           01 
01120020001000296DEM       Judge, Court of Criminal Appeals, Pl 6                  Robert Burns                          Precinct 101                                           01 
01120020002000132DEM       Judge, Court of Criminal Appeals, Pl 6                  Robert Burns                          Precinct 201                                           01 
01120020003000118DEM       Judge, Court of Criminal Appeals, Pl 6                  Robert Burns                          Precinct 202                                           01 
01120020004000006DEM       Judge, Court of Criminal Appeals, Pl 6                  Robert Burns                          Precinct 203                                           01 
01120020005000226DEM       Judge, Court of Criminal Appeals, Pl 6                  Robert Burns                          Precinct 301                                           01 
01120020006000091DEM       Judge, Court of Criminal Appeals, Pl 6                  Robert Burns                          Precinct 401                                           01 
01120020007000135DEM       Judge, Court of Criminal Appeals, Pl 6                  Robert Burns                          Precinct 402                                           01 
01120030001000046LIB       Judge, Court of Criminal Appeals, Pl 6                  Mark W. Bennett                       Precinct 101                                           01 
01120030002000041LIB       Judge, Court of Criminal Appeals, Pl 6                  Mark W. Bennett                       Precinct 201                                           01 
01120030003000034LIB       Judge, Court of Criminal Appeals, Pl 6                  Mark W. Bennett                       Precinct 202                                           01 
01120030004000000LIB       Judge, Court of Criminal Appeals, Pl 6                  Mark W. Bennett                       Precinct 203                                           01 
01120030005000024LIB       Judge, Court of Criminal Appeals, Pl 6                  Mark W. Bennett                       Precinct 301                                           01 
01120030006000019LIB       Judge, Court of Criminal Appeals, Pl 6                  Mark W. Bennett                       Precinct 401                                           01 
01120030007000010LIB       Judge, Court of Criminal Appeals, Pl 6                  Mark W. Bennett                       Precinct 402                                           01 
01120040001000000          Judge, Court of Criminal Appeals, Pl 6                  OVER VOTES                            Precinct 101                                           01 
01120040002000000          Judge, Court of Criminal Appeals, Pl 6                  OVER VOTES                            Precinct 201                                           01 
01120040003000000          Judge, Court of Criminal Appeals, Pl 6                  OVER VOTES                            Precinct 202                                           01 
01120040004000000          Judge, Court of Criminal Appeals, Pl 6                  OVER VOTES                            Precinct 203                                           01 
01120040005000000          Judge, Court of Criminal Appeals, Pl 6                  OVER VOTES                            Precinct 301                                           01 
01120040006000000          Judge, Court of Criminal Appeals, Pl 6                  OVER VOTES                            Precinct 401                                           01 
01120040007000000          Judge, Court of Criminal Appeals, Pl 6                  OVER VOTES                            Precinct 402                                           01 
01120050001000053          Judge, Court of Criminal Appeals, Pl 6                  UNDER VOTES                           Precinct 101                                           01 
01120050002000040          Judge, Court of Criminal Appeals, Pl 6                  UNDER VOTES                           Precinct 201                                           01 
01120050003000036          Judge, Court of Criminal Appeals, Pl 6                  UNDER VOTES                           Precinct 202                                           01 
01120050004000001          Judge, Court of Criminal Appeals, Pl 6                  UNDER VOTES                           Precinct 203                                           01 
01120050005000031          Judge, Court of Criminal Appeals, Pl 6                  UNDER VOTES                           Precinct 301                                           01 
01120050006000029          Judge, Court of Criminal Appeals, Pl 6                  UNDER VOTES                           Precinct 401                                           01 
01120050007000053          Judge, Court of Criminal Appeals, Pl 6                  UNDER VOTES                           Precinct 402                                           01 
01130010001001058REP       Member, State Board of Education, Dist15                Marty Rowley                          Precinct 101                                           01 
01130010002001026REP       Member, State Board of Education, Dist15                Marty Rowley                          Precinct 201                                           01 
01130010003000983REP       Member, State Board of Education, Dist15                Marty Rowley                          Precinct 202                                           01 
01130010004000033REP       Member, State Board of Education, Dist15                Marty Rowley                          Precinct 203                                           01 
01130010005000605REP       Member, State Board of Education, Dist15                Marty Rowley                          Precinct 301                                           01 
01130010006000563REP       Member, State Board of Education, Dist15                Marty Rowley                          Precinct 401                                           01 
01130010007000091REP       Member, State Board of Education, Dist15                Marty Rowley                          Precinct 402                                           01 
01130020001000000          Member, State Board of Education, Dist15                OVER VOTES                            Precinct 101                                           01 
01130020002000000          Member, State Board of Education, Dist15                OVER VOTES                            Precinct 201                                           01 
01130020003000000          Member, State Board of Education, Dist15                OVER VOTES                            Precinct 202                                           01 
01130020004000000          Member, State Board of Education, Dist15                OVER VOTES                            Precinct 203                                           01 
01130020005000000          Member, State Board of Education, Dist15                OVER VOTES                            Precinct 301                                           01 
01130020006000000          Member, State Board of Education, Dist15                OVER VOTES                            Precinct 401                                           01 
01130020007000000          Member, State Board of Education, Dist15                OVER VOTES                            Precinct 402                                           01 
01130030001000268          Member, State Board of Education, Dist15                UNDER VOTES                           Precinct 101                                           01 
01130030002000133          Member, State Board of Education, Dist15                UNDER VOTES                           Precinct 201                                           01 
01130030003000122          Member, State Board of Education, Dist15                UNDER VOTES                           Precinct 202                                           01 
01130030004000006          Member, State Board of Education, Dist15                UNDER VOTES                           Precinct 203                                           01 
01130030005000198          Member, State Board of Education, Dist15                UNDER VOTES                           Precinct 301                                           01 
01130030006000094          Member, State Board of Education, Dist15                UNDER VOTES                           Precinct 401                                           01 
01130030007000146          Member, State Board of Education, Dist15                UNDER VOTES                           Precinct 402                                           01 
01140010001001083REP       State Representative, District 87                       Four Price                            Precinct 101                                           01 
01140010002001042REP       State Representative, District 87                       Four Price                            Precinct 201                                           01 
01140010003001001REP       State Representative, District 87                       Four Price                            Precinct 202                                           01 
01140010004000035REP       State Representative, District 87                       Four Price                            Precinct 203                                           01 
01140010005000600REP       State Representative, District 87                       Four Price                            Precinct 301                                           01 
01140010006000579REP       State Representative, District 87                       Four Price                            Precinct 401                                           01 
01140010007000097REP       State Representative, District 87                       Four Price                            Precinct 402                                           01 
01140020001000000          State Representative, District 87                       OVER VOTES                            Precinct 101                                           01 
01140020002000000          State Representative, District 87                       OVER VOTES                            Precinct 201                                           01 
01140020003000000          State Representative, District 87                       OVER VOTES                            Precinct 202                                           01 
01140020004000000          State Representative, District 87                       OVER VOTES                            Precinct 203                                           01 
01140020005000000          State Representative, District 87                       OVER VOTES                            Precinct 301                                           01 
01140020006000000          State Representative, District 87                       OVER VOTES                            Precinct 401                                           01 
01140020007000000          State Representative, District 87                       OVER VOTES                            Precinct 402                                           01 
01140030001000243          State Representative, District 87                       UNDER VOTES                           Precinct 101                                           01 
01140030002000117          State Representative, District 87                       UNDER VOTES                           Precinct 201                                           01 
01140030003000104          State Representative, District 87                       UNDER VOTES                           Precinct 202                                           01 
01140030004000004          State Representative, District 87                       UNDER VOTES                           Precinct 203                                           01 
01140030005000203          State Representative, District 87                       UNDER VOTES                           Precinct 301                                           01 
01140030006000078          State Representative, District 87                       UNDER VOTES                           Precinct 401                                           01 
01140030007000140          State Representative, District 87                       UNDER VOTES                           Precinct 402                                           01 
01150010001001056REP       Justice, 7th Ct of Appeals DIST, P4                     Jim Campbell                          Precinct 101                                           01 
01150010002001013REP       Justice, 7th Ct of Appeals DIST, P4                     Jim Campbell                          Precinct 201                                           01 
01150010003000976REP       Justice, 7th Ct of Appeals DIST, P4                     Jim Campbell                          Precinct 202                                           01 
01150010004000033REP       Justice, 7th Ct of Appeals DIST, P4                     Jim Campbell                          Precinct 203                                           01 
01150010005000596REP       Justice, 7th Ct of Appeals DIST, P4                     Jim Campbell                          Precinct 301                                           01 
01150010006000561REP       Justice, 7th Ct of Appeals DIST, P4                     Jim Campbell                          Precinct 401                                           01 
01150010007000092REP       Justice, 7th Ct of Appeals DIST, P4                     Jim Campbell                          Precinct 402                                           01 
01150020001000000          Justice, 7th Ct of Appeals DIST, P4                     OVER VOTES                            Precinct 101                                           01 
01150020002000000          Justice, 7th Ct of Appeals DIST, P4                     OVER VOTES                            Precinct 201                                           01 
01150020003000000          Justice, 7th Ct of Appeals DIST, P4                     OVER VOTES                            Precinct 202                                           01 
01150020004000000          Justice, 7th Ct of Appeals DIST, P4                     OVER VOTES                            Precinct 203                                           01 
01150020005000000          Justice, 7th Ct of Appeals DIST, P4                     OVER VOTES                            Precinct 301                                           01 
01150020006000000          Justice, 7th Ct of Appeals DIST, P4                     OVER VOTES                            Precinct 401                                           01 
01150020007000000          Justice, 7th Ct of Appeals DIST, P4                     OVER VOTES                            Precinct 402                                           01 
01150030001000269          Justice, 7th Ct of Appeals DIST, P4                     UNDER VOTES                           Precinct 101                                           01 
01150030002000146          Justice, 7th Ct of Appeals DIST, P4                     UNDER VOTES                           Precinct 201                                           01 
01150030003000129          Justice, 7th Ct of Appeals DIST, P4                     UNDER VOTES                           Precinct 202                                           01 
01150030004000006          Justice, 7th Ct of Appeals DIST, P4                     UNDER VOTES                           Precinct 203                                           01 
01150030005000207          Justice, 7th Ct of Appeals DIST, P4                     UNDER VOTES                           Precinct 301                                           01 
01150030006000096          Justice, 7th Ct of Appeals DIST, P4                     UNDER VOTES                           Precinct 401                                           01 
01150030007000145          Justice, 7th Ct of Appeals DIST, P4                     UNDER VOTES                           Precinct 402                                           01 
01160010001001074REP       District Attorney, 69th Judicial                        David M. Green                        Precinct 101                                           01 
01160010002001014REP       District Attorney, 69th Judicial                        David M. Green                        Precinct 201                                           01 
01160010003000968REP       District Attorney, 69th Judicial                        David M. Green                        Precinct 202                                           01 
01160010004000034REP       District Attorney, 69th Judicial                        David M. Green                        Precinct 203                                           01 
01160010005000622REP       District Attorney, 69th Judicial                        David M. Green                        Precinct 301                                           01 
01160010006000581REP       District Attorney, 69th Judicial                        David M. Green                        Precinct 401                                           01 
01160010007000102REP       District Attorney, 69th Judicial                        David M. Green                        Precinct 402                                           01 
01160020001000000          District Attorney, 69th Judicial                        OVER VOTES                            Precinct 101                                           01 
01160020002000000          District Attorney, 69th Judicial                        OVER VOTES                            Precinct 201                                           01 
01160020003000000          District Attorney, 69th Judicial                        OVER VOTES                            Precinct 202                                           01 
01160020004000000          District Attorney, 69th Judicial                        OVER VOTES                            Precinct 203                                           01 
01160020005000000          District Attorney, 69th Judicial                        OVER VOTES                            Precinct 301                                           01 
01160020006000000          District Attorney, 69th Judicial                        OVER VOTES                            Precinct 401                                           01 
01160020007000000          District Attorney, 69th Judicial                        OVER VOTES                            Precinct 402                                           01 
01160030001000251          District Attorney, 69th Judicial                        UNDER VOTES                           Precinct 101                                           01 
01160030002000145          District Attorney, 69th Judicial                        UNDER VOTES                           Precinct 201                                           01 
01160030003000137          District Attorney, 69th Judicial                        UNDER VOTES                           Precinct 202                                           01 
01160030004000005          District Attorney, 69th Judicial                        UNDER VOTES                           Precinct 203                                           01 
01160030005000181          District Attorney, 69th Judicial                        UNDER VOTES                           Precinct 301                                           01 
01160030006000076          District Attorney, 69th Judicial                        UNDER VOTES                           Precinct 401                                           01 
01160030007000135          District Attorney, 69th Judicial                        UNDER VOTES                           Precinct 402                                           01 
01170010001001091REP       County Attorney                                         Scott M. Higginbotham                 Precinct 101                                           01 
01170010002001042REP       County Attorney                                         Scott M. Higginbotham                 Precinct 201                                           01 
01170010003000990REP       County Attorney                                         Scott M. Higginbotham                 Precinct 202                                           01 
01170010004000034REP       County Attorney                                         Scott M. Higginbotham                 Precinct 203                                           01 
01170010005000625REP       County Attorney                                         Scott M. Higginbotham                 Precinct 301                                           01 
01170010006000585REP       County Attorney                                         Scott M. Higginbotham                 Precinct 401                                           01 
01170010007000099REP       County Attorney                                         Scott M. Higginbotham                 Precinct 402                                           01 
01170020001000000          County Attorney                                         OVER VOTES                            Precinct 101                                           01 
01170020002000000          County Attorney                                         OVER VOTES                            Precinct 201                                           01 
01170020003000000          County Attorney                                         OVER VOTES                            Precinct 202                                           01 
01170020004000000          County Attorney                                         OVER VOTES                            Precinct 203                                           01 
01170020005000000          County Attorney                                         OVER VOTES                            Precinct 301                                           01 
01170020006000000          County Attorney                                         OVER VOTES                            Precinct 401                                           01 
01170020007000000          County Attorney                                         OVER VOTES                            Precinct 402                                           01 
01170030001000235          County Attorney                                         UNDER VOTES                           Precinct 101                                           01 
01170030002000117          County Attorney                                         UNDER VOTES                           Precinct 201                                           01 
01170030003000115          County Attorney                                         UNDER VOTES                           Precinct 202                                           01 
01170030004000005          County Attorney                                         UNDER VOTES                           Precinct 203                                           01 
01170030005000178          County Attorney                                         UNDER VOTES                           Precinct 301                                           01 
01170030006000072          County Attorney                                         UNDER VOTES                           Precinct 401                                           01 
01170030007000138          County Attorney                                         UNDER VOTES                           Precinct 402                                           01 
01180010001001099REP       Sheriff                                                 J.E. "Bo" Dearmond                    Precinct 101                                           01 
01180010002001043REP       Sheriff                                                 J.E. "Bo" Dearmond                    Precinct 201                                           01 
01180010003001003REP       Sheriff                                                 J.E. "Bo" Dearmond                    Precinct 202                                           01 
01180010004000034REP       Sheriff                                                 J.E. "Bo" Dearmond                    Precinct 203                                           01 
01180010005000637REP       Sheriff                                                 J.E. "Bo" Dearmond                    Precinct 301                                           01 
01180010006000588REP       Sheriff                                                 J.E. "Bo" Dearmond                    Precinct 401                                           01 
01180010007000102REP       Sheriff                                                 J.E. "Bo" Dearmond                    Precinct 402                                           01 
01180020001000000          Sheriff                                                 OVER VOTES                            Precinct 101                                           01 
01180020002000000          Sheriff                                                 OVER VOTES                            Precinct 201                                           01 
01180020003000000          Sheriff                                                 OVER VOTES                            Precinct 202                                           01 
01180020004000000          Sheriff                                                 OVER VOTES                            Precinct 203                                           01 
01180020005000000          Sheriff                                                 OVER VOTES                            Precinct 301                                           01 
01180020006000000          Sheriff                                                 OVER VOTES                            Precinct 401                                           01 
01180020007000000          Sheriff                                                 OVER VOTES                            Precinct 402                                           01 
01180030001000226          Sheriff                                                 UNDER VOTES                           Precinct 101                                           01 
01180030002000116          Sheriff                                                 UNDER VOTES                           Precinct 201                                           01 
01180030003000102          Sheriff                                                 UNDER VOTES                           Precinct 202                                           01 
01180030004000005          Sheriff                                                 UNDER VOTES                           Precinct 203                                           01 
01180030005000166          Sheriff                                                 UNDER VOTES                           Precinct 301                                           01 
01180030006000069          Sheriff                                                 UNDER VOTES                           Precinct 401                                           01 
01180030007000135          Sheriff                                                 UNDER VOTES                           Precinct 402                                           01 
01190010001001104REP       County Tax Assessor-Collector                           Nikki McDonald                        Precinct 101                                           01 
01190010002001053REP       County Tax Assessor-Collector                           Nikki McDonald                        Precinct 201                                           01 
01190010003001004REP       County Tax Assessor-Collector                           Nikki McDonald                        Precinct 202                                           01 
01190010004000034REP       County Tax Assessor-Collector                           Nikki McDonald                        Precinct 203                                           01 
01190010005000626REP       County Tax Assessor-Collector                           Nikki McDonald                        Precinct 301                                           01 
01190010006000589REP       County Tax Assessor-Collector                           Nikki McDonald                        Precinct 401                                           01 
01190010007000104REP       County Tax Assessor-Collector                           Nikki McDonald                        Precinct 402                                           01 
01190020001000000          County Tax Assessor-Collector                           OVER VOTES                            Precinct 101                                           01 
01190020002000000          County Tax Assessor-Collector                           OVER VOTES                            Precinct 201                                           01 
01190020003000000          County Tax Assessor-Collector                           OVER VOTES                            Precinct 202                                           01 
01190020004000000          County Tax Assessor-Collector                           OVER VOTES                            Precinct 203                                           01 
01190020005000000          County Tax Assessor-Collector                           OVER VOTES                            Precinct 301                                           01 
01190020006000000          County Tax Assessor-Collector                           OVER VOTES                            Precinct 401                                           01 
