01010010001000798000000000000000000000000000000          REGISTERED VOTERS - TOTAL                               REGISTERED VOTERS - TOTAL             Precinct 101                                           00 
01010010002000424000000000000000000000000000000          REGISTERED VOTERS - TOTAL                               REGISTERED VOTERS - TOTAL             Precinct 102                                           00 
01010010003000737000000000000000000000000000000          REGISTERED VOTERS - TOTAL                               REGISTERED VOTERS - TOTAL             Precinct 103                                           00 
01010010004001015000000000000000000000000000000          REGISTERED VOTERS - TOTAL                               REGISTERED VOTERS - TOTAL             Precinct 202                                           00 
01010010005001145000000000000000000000000000000          REGISTERED VOTERS - TOTAL                               REGISTERED VOTERS - TOTAL             Precinct 203                                           00 
01010010006001114000000000000000000000000000000          REGISTERED VOTERS - TOTAL                               REGISTERED VOTERS - TOTAL             Precinct 302                                           00 
01010010007001197000000000000000000000000000000          REGISTERED VOTERS - TOTAL                               REGISTERED VOTERS - TOTAL             Precinct 303                                           00 
01010010008002128000000000000000000000000000000          REGISTERED VOTERS - TOTAL                               REGISTERED VOTERS - TOTAL             Precinct 401                                           00 
01020010001000346000000000000000189000000000157          BALLOTS CAST - TOTAL                                    BALLOTS CAST - TOTAL                  Precinct 101                                           00 
01020010002000228000000000000000115000000000113          BALLOTS CAST - TOTAL                                    BALLOTS CAST - TOTAL                  Precinct 102                                           00 
01020010003000444000000000001000269000000000174          BALLOTS CAST - TOTAL                                    BALLOTS CAST - TOTAL                  Precinct 103                                           00 
01020010004000692000000000004000393000000000295          BALLOTS CAST - TOTAL                                    BALLOTS CAST - TOTAL                  Precinct 202                                           00 
01020010005000585000000000002000273000002000308          BALLOTS CAST - TOTAL                                    BALLOTS CAST - TOTAL                  Precinct 203                                           00 
01020010006000648000000000001000235000004000408          BALLOTS CAST - TOTAL                                    BALLOTS CAST - TOTAL                  Precinct 302                                           00 
01020010007000765000000000002000319000000000444          BALLOTS CAST - TOTAL                                    BALLOTS CAST - TOTAL                  Precinct 303                                           00 
01020010008001318000000000009000874000009000426          BALLOTS CAST - TOTAL                                    BALLOTS CAST - TOTAL                  Precinct 401                                           00 
01030010001000048000000000000000029000000000019REP       Straight Party                                          Republican Party                      Precinct 101                                           01 
01030010002000042000000000000000027000000000015REP       Straight Party                                          Republican Party                      Precinct 102                                           01 
01030010003000103000000000000000062000000000041REP       Straight Party                                          Republican Party                      Precinct 103                                           01 
01030010004000312000000000004000191000000000117REP       Straight Party                                          Republican Party                      Precinct 202                                           01 
01030010005000229000000000001000127000001000100REP       Straight Party                                          Republican Party                      Precinct 203                                           01 
01030010006000168000000000000000052000001000115REP       Straight Party                                          Republican Party                      Precinct 302                                           01 
01030010007000208000000000000000085000000000123REP       Straight Party                                          Republican Party                      Precinct 303                                           01 
01030010008000545000000000005000363000002000175REP       Straight Party                                          Republican Party                      Precinct 401                                           01 
01030020001000206000000000000000109000000000097DEM       Straight Party                                          Democratic Party                      Precinct 101                                           01 
01030020002000115000000000000000052000000000063DEM       Straight Party                                          Democratic Party                      Precinct 102                                           01 
01030020003000113000000000001000063000000000049DEM       Straight Party                                          Democratic Party                      Precinct 103                                           01 
01030020004000079000000000000000046000000000033DEM       Straight Party                                          Democratic Party                      Precinct 202                                           01 
01030020005000127000000000000000042000000000085DEM       Straight Party                                          Democratic Party                      Precinct 203                                           01 
01030020006000124000000000000000056000000000068DEM       Straight Party                                          Democratic Party                      Precinct 302                                           01 
01030020007000091000000000000000048000000000043DEM       Straight Party                                          Democratic Party                      Precinct 303                                           01 
01030020008000189000000000001000133000002000053DEM       Straight Party                                          Democratic Party                      Precinct 401                                           01 
01030030001000001000000000000000000000000000001LIB       Straight Party                                          Libertarian Party                     Precinct 101                                           01 
01030030002000002000000000000000001000000000001LIB       Straight Party                                          Libertarian Party                     Precinct 102                                           01 
01030030003000002000000000000000000000000000002LIB       Straight Party                                          Libertarian Party                     Precinct 103                                           01 
01030030004000003000000000000000001000000000002LIB       Straight Party                                          Libertarian Party                     Precinct 202                                           01 
01030030005000004000000000000000000000000000004LIB       Straight Party                                          Libertarian Party                     Precinct 203                                           01 
01030030006000005000000000001000002000000000002LIB       Straight Party                                          Libertarian Party                     Precinct 302                                           01 
01030030007000004000000000000000001000000000003LIB       Straight Party                                          Libertarian Party                     Precinct 303                                           01 
01030030008000005000000000000000003000000000002LIB       Straight Party                                          Libertarian Party                     Precinct 401                                           01 
01030040001000001000000000000000000000000000001GRN       Straight Party                                          Green Party                           Precinct 101                                           01 
01030040002000000000000000000000000000000000000GRN       Straight Party                                          Green Party                           Precinct 102                                           01 
01030040003000001000000000000000000000000000001GRN       Straight Party                                          Green Party                           Precinct 103                                           01 
01030040004000001000000000000000000000000000001GRN       Straight Party                                          Green Party                           Precinct 202                                           01 
01030040005000001000000000000000001000000000000GRN       Straight Party                                          Green Party                           Precinct 203                                           01 
01030040006000002000000000000000000000000000002GRN       Straight Party                                          Green Party                           Precinct 302                                           01 
01030040007000002000000000000000001000000000001GRN       Straight Party                                          Green Party                           Precinct 303                                           01 
01030040008000003000000000000000000000000000003GRN       Straight Party                                          Green Party                           Precinct 401                                           01 
01030050001000000000000000000000000000000000000          Straight Party                                          OVER VOTES                            Precinct 101                                           01 
01030050002000000000000000000000000000000000000          Straight Party                                          OVER VOTES                            Precinct 102                                           01 
01030050003000000000000000000000000000000000000          Straight Party                                          OVER VOTES                            Precinct 103                                           01 
01030050004000000000000000000000000000000000000          Straight Party                                          OVER VOTES                            Precinct 202                                           01 
01030050005000000000000000000000000000000000000          Straight Party                                          OVER VOTES                            Precinct 203                                           01 
01030050006000000000000000000000000000000000000          Straight Party                                          OVER VOTES                            Precinct 302                                           01 
01030050007000001000000000000000001000000000000          Straight Party                                          OVER VOTES                            Precinct 303                                           01 
01030050008000001000000000000000001000000000000          Straight Party                                          OVER VOTES                            Precinct 401                                           01 
01030060001000090000000000000000051000000000039          Straight Party                                          UNDER VOTES                           Precinct 101                                           01 
01030060002000069000000000000000035000000000034          Straight Party                                          UNDER VOTES                           Precinct 102                                           01 
01030060003000225000000000000000144000000000081          Straight Party                                          UNDER VOTES                           Precinct 103                                           01 
01030060004000297000000000000000155000000000142          Straight Party                                          UNDER VOTES                           Precinct 202                                           01 
01030060005000224000000000001000103000001000119          Straight Party                                          UNDER VOTES                           Precinct 203                                           01 
01030060006000349000000000000000125000003000221          Straight Party                                          UNDER VOTES                           Precinct 302                                           01 
01030060007000459000000000002000183000000000274          Straight Party                                          UNDER VOTES                           Precinct 303                                           01 
01030060008000575000000000003000374000005000193          Straight Party                                          UNDER VOTES                           Precinct 401                                           01 
01040010001000088000000000000000055000000000033REP       President and Vice President                            Donald J. Trump / Mike Pence          Precinct 101                                           01 
01040010002000081000000000000000049000000000032REP       President and Vice President                            Donald J. Trump / Mike Pence          Precinct 102                                           01 
01040010003000273000000000000000171000000000102REP       President and Vice President                            Donald J. Trump / Mike Pence          Precinct 103                                           01 
01040010004000555000000000004000310000000000241REP       President and Vice President                            Donald J. Trump / Mike Pence          Precinct 202                                           01 
01040010005000409000000000002000215000001000191REP       President and Vice President                            Donald J. Trump / Mike Pence          Precinct 203                                           01 
01040010006000460000000000000000159000004000297REP       President and Vice President                            Donald J. Trump / Mike Pence          Precinct 302                                           01 
01040010007000605000000000001000231000000000373REP       President and Vice President                            Donald J. Trump / Mike Pence          Precinct 303                                           01 
01040010008000972000000000008000648000005000311REP       President and Vice President                            Donald J. Trump / Mike Pence          Precinct 401                                           01 
01040020001000250000000000000000131000000000119DEM       President and Vice President                            Hillary Clinton / Tim Kaine           Precinct 101                                           01 
01040020002000138000000000000000061000000000077DEM       President and Vice President                            Hillary Clinton / Tim Kaine           Precinct 102                                           01 
01040020003000155000000000001000089000000000065DEM       President and Vice President                            Hillary Clinton / Tim Kaine           Precinct 103                                           01 
01040020004000119000000000000000075000000000044DEM       President and Vice President                            Hillary Clinton / Tim Kaine           Precinct 202                                           01 
01040020005000161000000000000000057000001000103DEM       President and Vice President                            Hillary Clinton / Tim Kaine           Precinct 203                                           01 
01040020006000169000000000000000072000000000097DEM       President and Vice President                            Hillary Clinton / Tim Kaine           Precinct 302                                           01 
01040020007000131000000000001000074000000000056DEM       President and Vice President                            Hillary Clinton / Tim Kaine           Precinct 303                                           01 
01040020008000302000000000001000199000003000099DEM       President and Vice President                            Hillary Clinton / Tim Kaine           Precinct 401                                           01 
01040030001000001000000000000000000000000000001LIB       President and Vice President                            Gary Johnson / William Weld           Precinct 101                                           01 
01040030002000004000000000000000001000000000003LIB       President and Vice President                            Gary Johnson / William Weld           Precinct 102                                           01 
01040030003000005000000000000000001000000000004LIB       President and Vice President                            Gary Johnson / William Weld           Precinct 103                                           01 
01040030004000005000000000000000002000000000003LIB       President and Vice President                            Gary Johnson / William Weld           Precinct 202                                           01 
01040030005000011000000000000000001000000000010LIB       President and Vice President                            Gary Johnson / William Weld           Precinct 203                                           01 
01040030006000013000000000001000003000000000009LIB       President and Vice President                            Gary Johnson / William Weld           Precinct 302                                           01 
01040030007000017000000000000000005000000000012LIB       President and Vice President                            Gary Johnson / William Weld           Precinct 303                                           01 
01040030008000021000000000000000011000001000009LIB       President and Vice President                            Gary Johnson / William Weld           Precinct 401                                           01 
01040040001000002000000000000000001000000000001GRN       President and Vice President                            Jill Stein / Ajamu Baraka             Precinct 101                                           01 
01040040002000003000000000000000002000000000001GRN       President and Vice President                            Jill Stein / Ajamu Baraka             Precinct 102                                           01 
01040040003000000000000000000000000000000000000GRN       President and Vice President                            Jill Stein / Ajamu Baraka             Precinct 103                                           01 
01040040004000001000000000000000000000000000001GRN       President and Vice President                            Jill Stein / Ajamu Baraka             Precinct 202                                           01 
01040040005000000000000000000000000000000000000GRN       President and Vice President                            Jill Stein / Ajamu Baraka             Precinct 203                                           01 
01040040006000003000000000000000000000000000003GRN       President and Vice President                            Jill Stein / Ajamu Baraka             Precinct 302                                           01 
01040040007000005000000000000000004000000000001GRN       President and Vice President                            Jill Stein / Ajamu Baraka             Precinct 303                                           01 
01040040008000005000000000000000002000000000003GRN       President and Vice President                            Jill Stein / Ajamu Baraka             Precinct 401                                           01 
01040050001000002000000000000000000000000000002NON       President and Vice President                            WRITE-IN                              Precinct 101                                           01 
01040050002000001000000000000000001000000000000NON       President and Vice President                            WRITE-IN                              Precinct 102                                           01 
01040050003000005000000000000000005000000000000NON       President and Vice President                            WRITE-IN                              Precinct 103                                           01 
01040050004000007000000000000000004000000000003NON       President and Vice President                            WRITE-IN                              Precinct 202                                           01 
01040050005000001000000000000000000000000000001NON       President and Vice President                            WRITE-IN                              Precinct 203                                           01 
01040050006000000000000000000000000000000000000NON       President and Vice President                            WRITE-IN                              Precinct 302                                           01 
01040050007000001000000000000000001000000000000NON       President and Vice President                            WRITE-IN                              Precinct 303                                           01 
01040050008000013000000000000000010000000000003NON       President and Vice President                            WRITE-IN                              Precinct 401                                           01 
01040060001000001000000000000000000000000000001          President and Vice President                            OVER VOTES                            Precinct 101                                           01 
01040060002000000000000000000000000000000000000          President and Vice President                            OVER VOTES                            Precinct 102                                           01 
01040060003000001000000000000000000000000000001          President and Vice President                            OVER VOTES                            Precinct 103                                           01 
01040060004000001000000000000000001000000000000          President and Vice President                            OVER VOTES                            Precinct 202                                           01 
01040060005000000000000000000000000000000000000          President and Vice President                            OVER VOTES                            Precinct 203                                           01 
01040060006000001000000000000000001000000000000          President and Vice President                            OVER VOTES                            Precinct 302                                           01 
01040060007000002000000000000000002000000000000          President and Vice President                            OVER VOTES                            Precinct 303                                           01 
01040060008000000000000000000000000000000000000          President and Vice President                            OVER VOTES                            Precinct 401                                           01 
01040070001000002000000000000000002000000000000          President and Vice President                            UNDER VOTES                           Precinct 101                                           01 
01040070002000001000000000000000001000000000000          President and Vice President                            UNDER VOTES                           Precinct 102                                           01 
01040070003000005000000000000000003000000000002          President and Vice President                            UNDER VOTES                           Precinct 103                                           01 
01040070004000004000000000000000001000000000003          President and Vice President                            UNDER VOTES                           Precinct 202                                           01 
01040070005000003000000000000000000000000000003          President and Vice President                            UNDER VOTES                           Precinct 203                                           01 
01040070006000002000000000000000000000000000002          President and Vice President                            UNDER VOTES                           Precinct 302                                           01 
01040070007000004000000000000000002000000000002          President and Vice President                            UNDER VOTES                           Precinct 303                                           01 
01040070008000005000000000000000004000000000001          President and Vice President                            UNDER VOTES                           Precinct 401                                           01 
01050010001000105000000000000000063000000000042REP       United States Representative, District 4                John Ratcliffe                        Precinct 101                                           01 
01050010002000083000000000000000052000000000031REP       United States Representative, District 4                John Ratcliffe                        Precinct 102                                           01 
01050010003000287000000000000000185000000000102REP       United States Representative, District 4                John Ratcliffe                        Precinct 103                                           01 
01050010004000500000000000004000295000000000201REP       United States Representative, District 4                John Ratcliffe                        Precinct 202                                           01 
01050010005000364000000000002000191000002000169REP       United States Representative, District 4                John Ratcliffe                        Precinct 203                                           01 
01050010006000469000000000000000166000004000299REP       United States Representative, District 4                John Ratcliffe                        Precinct 302                                           01 
01050010007000602000000000001000236000000000365REP       United States Representative, District 4                John Ratcliffe                        Precinct 303                                           01 
01050010008000938000000000008000615000005000310REP       United States Representative, District 4                John Ratcliffe                        Precinct 401                                           01 
01050020001000097000000000000000041000000000056LIB       United States Representative, District 4                Cody Wommack                          Precinct 101                                           01 
01050020002000051000000000000000018000000000033LIB       United States Representative, District 4                Cody Wommack                          Precinct 102                                           01 
01050020003000058000000000000000027000000000031LIB       United States Representative, District 4                Cody Wommack                          Precinct 103                                           01 
01050020004000114000000000000000052000000000062LIB       United States Representative, District 4                Cody Wommack                          Precinct 202                                           01 
01050020005000125000000000000000048000000000077LIB       United States Representative, District 4                Cody Wommack                          Precinct 203                                           01 
01050020006000074000000000001000025000000000048LIB       United States Representative, District 4                Cody Wommack                          Precinct 302                                           01 
01050020007000068000000000000000028000000000040LIB       United States Representative, District 4                Cody Wommack                          Precinct 303                                           01 
01050020008000210000000000000000133000001000076LIB       United States Representative, District 4                Cody Wommack                          Precinct 401                                           01 
01050030001000000000000000000000000000000000000          United States Representative, District 4                OVER VOTES                            Precinct 101                                           01 
01050030002000000000000000000000000000000000000          United States Representative, District 4                OVER VOTES                            Precinct 102                                           01 
01050030003000000000000000000000000000000000000          United States Representative, District 4                OVER VOTES                            Precinct 103                                           01 
01050030004000000000000000000000000000000000000          United States Representative, District 4                OVER VOTES                            Precinct 202                                           01 
01050030005000000000000000000000000000000000000          United States Representative, District 4                OVER VOTES                            Precinct 203                                           01 
01050030006000000000000000000000000000000000000          United States Representative, District 4                OVER VOTES                            Precinct 302                                           01 
01050030007000000000000000000000000000000000000          United States Representative, District 4                OVER VOTES                            Precinct 303                                           01 
01050030008000001000000000000000001000000000000          United States Representative, District 4                OVER VOTES                            Precinct 401                                           01 
01050040001000144000000000000000085000000000059          United States Representative, District 4                UNDER VOTES                           Precinct 101                                           01 
01050040002000094000000000000000045000000000049          United States Representative, District 4                UNDER VOTES                           Precinct 102                                           01 
01050040003000099000000000001000057000000000041          United States Representative, District 4                UNDER VOTES                           Precinct 103                                           01 
01050040004000078000000000000000046000000000032          United States Representative, District 4                UNDER VOTES                           Precinct 202                                           01 
01050040005000096000000000000000034000000000062          United States Representative, District 4                UNDER VOTES                           Precinct 203                                           01 
01050040006000105000000000000000044000000000061          United States Representative, District 4                UNDER VOTES                           Precinct 302                                           01 
01050040007000095000000000001000055000000000039          United States Representative, District 4                UNDER VOTES                           Precinct 303                                           01 
01050040008000169000000000001000125000003000040          United States Representative, District 4                UNDER VOTES                           Precinct 401                                           01 
01060010001000075000000000000000048000000000027REP       Railroad Commissioner                                   Wayne Christian                       Precinct 101                                           01 
01060010002000065000000000000000042000000000023REP       Railroad Commissioner                                   Wayne Christian                       Precinct 102                                           01 
01060010003000251000000000000000160000000000091REP       Railroad Commissioner                                   Wayne Christian                       Precinct 103                                           01 
01060010004000475000000000004000282000000000189REP       Railroad Commissioner                                   Wayne Christian                       Precinct 202                                           01 
01060010005000349000000000002000189000002000156REP       Railroad Commissioner                                   Wayne Christian                       Precinct 203                                           01 
01060010006000412000000000000000154000004000254REP       Railroad Commissioner                                   Wayne Christian                       Precinct 302                                           01 
01060010007000529000000000001000210000000000318REP       Railroad Commissioner                                   Wayne Christian                       Precinct 303                                           01 
01060010008000869000000000007000574000006000282REP       Railroad Commissioner                                   Wayne Christian                       Precinct 401                                           01 
01060020001000249000000000000000132000000000117DEM       Railroad Commissioner                                   Grady Yarbrough                       Precinct 101                                           01 
01060020002000141000000000000000062000000000079DEM       Railroad Commissioner                                   Grady Yarbrough                       Precinct 102                                           01 
01060020003000153000000000001000088000000000064DEM       Railroad Commissioner                                   Grady Yarbrough                       Precinct 103                                           01 
01060020004000147000000000000000083000000000064DEM       Railroad Commissioner                                   Grady Yarbrough                       Precinct 202                                           01 
01060020005000170000000000000000060000000000110DEM       Railroad Commissioner                                   Grady Yarbrough                       Precinct 203                                           01 
01060020006000169000000000000000065000000000104DEM       Railroad Commissioner                                   Grady Yarbrough                       Precinct 302                                           01 
01060020007000150000000000001000080000000000069DEM       Railroad Commissioner                                   Grady Yarbrough                       Precinct 303                                           01 
01060020008000335000000000002000234000002000097DEM       Railroad Commissioner                                   Grady Yarbrough                       Precinct 401                                           01 
01060030001000009000000000000000001000000000008LIB       Railroad Commissioner                                   Mark Miller                           Precinct 101                                           01 
01060030002000010000000000000000005000000000005LIB       Railroad Commissioner                                   Mark Miller                           Precinct 102                                           01 
01060030003000010000000000000000006000000000004LIB       Railroad Commissioner                                   Mark Miller                           Precinct 103                                           01 
01060030004000031000000000000000012000000000019LIB       Railroad Commissioner                                   Mark Miller                           Precinct 202                                           01 
01060030005000037000000000000000010000000000027LIB       Railroad Commissioner                                   Mark Miller                           Precinct 203                                           01 
01060030006000021000000000001000007000000000013LIB       Railroad Commissioner                                   Mark Miller                           Precinct 302                                           01 
01060030007000031000000000000000008000000000023LIB       Railroad Commissioner                                   Mark Miller                           Precinct 303                                           01 
01060030008000034000000000000000018000000000016LIB       Railroad Commissioner                                   Mark Miller                           Precinct 401                                           01 
01060040001000003000000000000000001000000000002GRN       Railroad Commissioner                                   Martina Salinas                       Precinct 101                                           01 
01060040002000003000000000000000001000000000002GRN       Railroad Commissioner                                   Martina Salinas                       Precinct 102                                           01 
01060040003000004000000000000000001000000000003GRN       Railroad Commissioner                                   Martina Salinas                       Precinct 103                                           01 
01060040004000006000000000000000003000000000003GRN       Railroad Commissioner                                   Martina Salinas                       Precinct 202                                           01 
01060040005000011000000000000000005000000000006GRN       Railroad Commissioner                                   Martina Salinas                       Precinct 203                                           01 
01060040006000010000000000000000000000000000010GRN       Railroad Commissioner                                   Martina Salinas                       Precinct 302                                           01 
01060040007000007000000000000000003000000000004GRN       Railroad Commissioner                                   Martina Salinas                       Precinct 303                                           01 
01060040008000017000000000000000009000000000008GRN       Railroad Commissioner                                   Martina Salinas                       Precinct 401                                           01 
01060050001000000000000000000000000000000000000          Railroad Commissioner                                   OVER VOTES                            Precinct 101                                           01 
01060050002000000000000000000000000000000000000          Railroad Commissioner                                   OVER VOTES                            Precinct 102                                           01 
01060050003000000000000000000000000000000000000          Railroad Commissioner                                   OVER VOTES                            Precinct 103                                           01 
01060050004000000000000000000000000000000000000          Railroad Commissioner                                   OVER VOTES                            Precinct 202                                           01 
01060050005000000000000000000000000000000000000          Railroad Commissioner                                   OVER VOTES                            Precinct 203                                           01 
01060050006000000000000000000000000000000000000          Railroad Commissioner                                   OVER VOTES                            Precinct 302                                           01 
01060050007000000000000000000000000000000000000          Railroad Commissioner                                   OVER VOTES                            Precinct 303                                           01 
01060050008000000000000000000000000000000000000          Railroad Commissioner                                   OVER VOTES                            Precinct 401                                           01 
01060060001000010000000000000000007000000000003          Railroad Commissioner                                   UNDER VOTES                           Precinct 101                                           01 
01060060002000009000000000000000005000000000004          Railroad Commissioner                                   UNDER VOTES                           Precinct 102                                           01 
01060060003000026000000000000000014000000000012          Railroad Commissioner                                   UNDER VOTES                           Precinct 103                                           01 
01060060004000033000000000000000013000000000020          Railroad Commissioner                                   UNDER VOTES                           Precinct 202                                           01 
01060060005000018000000000000000009000000000009          Railroad Commissioner                                   UNDER VOTES                           Precinct 203                                           01 
01060060006000036000000000000000009000000000027          Railroad Commissioner                                   UNDER VOTES                           Precinct 302                                           01 
01060060007000048000000000000000018000000000030          Railroad Commissioner                                   UNDER VOTES                           Precinct 303                                           01 
01060060008000063000000000000000039000001000023          Railroad Commissioner                                   UNDER VOTES                           Precinct 401                                           01 
01070010001000076000000000000000048000000000028REP       Justice, Supreme Court, Place 3                         Debra Lehrmann                        Precinct 101                                           01 
01070010002000075000000000000000049000000000026REP       Justice, Supreme Court, Place 3                         Debra Lehrmann                        Precinct 102                                           01 
01070010003000242000000000000000158000000000084REP       Justice, Supreme Court, Place 3                         Debra Lehrmann                        Precinct 103                                           01 
01070010004000489000000000004000288000000000197REP       Justice, Supreme Court, Place 3                         Debra Lehrmann                        Precinct 202                                           01 
01070010005000367000000000002000196000002000167REP       Justice, Supreme Court, Place 3                         Debra Lehrmann                        Precinct 203                                           01 
01070010006000412000000000000000150000004000258REP       Justice, Supreme Court, Place 3                         Debra Lehrmann                        Precinct 302                                           01 
01070010007000534000000000001000210000000000323REP       Justice, Supreme Court, Place 3                         Debra Lehrmann                        Precinct 303                                           01 
01070010008000886000000000007000591000005000283REP       Justice, Supreme Court, Place 3                         Debra Lehrmann                        Precinct 401                                           01 
01070020001000246000000000000000130000000000116DEM       Justice, Supreme Court, Place 3                         Mike Westergren                       Precinct 101                                           01 
01070020002000135000000000000000058000000000077DEM       Justice, Supreme Court, Place 3                         Mike Westergren                       Precinct 102                                           01 
01070020003000157000000000001000091000000000065DEM       Justice, Supreme Court, Place 3                         Mike Westergren                       Precinct 103                                           01 
01070020004000137000000000000000079000000000058DEM       Justice, Supreme Court, Place 3                         Mike Westergren                       Precinct 202                                           01 
01070020005000165000000000000000057000000000108DEM       Justice, Supreme Court, Place 3                         Mike Westergren                       Precinct 203                                           01 
01070020006000168000000000000000070000000000098DEM       Justice, Supreme Court, Place 3                         Mike Westergren                       Precinct 302                                           01 
01070020007000142000000000001000077000000000064DEM       Justice, Supreme Court, Place 3                         Mike Westergren                       Precinct 303                                           01 
01070020008000314000000000001000213000003000097DEM       Justice, Supreme Court, Place 3                         Mike Westergren                       Precinct 401                                           01 
01070030001000011000000000000000003000000000008LIB       Justice, Supreme Court, Place 3                         Kathie Glass                          Precinct 101                                           01 
01070030002000007000000000000000002000000000005LIB       Justice, Supreme Court, Place 3                         Kathie Glass                          Precinct 102                                           01 
01070030003000009000000000000000004000000000005LIB       Justice, Supreme Court, Place 3                         Kathie Glass                          Precinct 103                                           01 
01070030004000023000000000000000007000000000016LIB       Justice, Supreme Court, Place 3                         Kathie Glass                          Precinct 202                                           01 
01070030005000026000000000000000006000000000020LIB       Justice, Supreme Court, Place 3                         Kathie Glass                          Precinct 203                                           01 
01070030006000025000000000001000003000000000021LIB       Justice, Supreme Court, Place 3                         Kathie Glass                          Precinct 302                                           01 
01070030007000036000000000000000012000000000024LIB       Justice, Supreme Court, Place 3                         Kathie Glass                          Precinct 303                                           01 
01070030008000038000000000001000023000000000014LIB       Justice, Supreme Court, Place 3                         Kathie Glass                          Precinct 401                                           01 
01070040001000002000000000000000001000000000001GRN       Justice, Supreme Court, Place 3                         Rodolfo Rivera Munoz                  Precinct 101                                           01 
01070040002000002000000000000000001000000000001GRN       Justice, Supreme Court, Place 3                         Rodolfo Rivera Munoz                  Precinct 102                                           01 
01070040003000004000000000000000000000000000004GRN       Justice, Supreme Court, Place 3                         Rodolfo Rivera Munoz                  Precinct 103                                           01 
01070040004000004000000000000000002000000000002GRN       Justice, Supreme Court, Place 3                         Rodolfo Rivera Munoz                  Precinct 202                                           01 
01070040005000009000000000000000005000000000004GRN       Justice, Supreme Court, Place 3                         Rodolfo Rivera Munoz                  Precinct 203                                           01 
01070040006000003000000000000000001000000000002GRN       Justice, Supreme Court, Place 3                         Rodolfo Rivera Munoz                  Precinct 302                                           01 
01070040007000008000000000000000003000000000005GRN       Justice, Supreme Court, Place 3                         Rodolfo Rivera Munoz                  Precinct 303                                           01 
01070040008000014000000000000000008000000000006GRN       Justice, Supreme Court, Place 3                         Rodolfo Rivera Munoz                  Precinct 401                                           01 
01070050001000001000000000000000000000000000001          Justice, Supreme Court, Place 3                         OVER VOTES                            Precinct 101                                           01 
01070050002000000000000000000000000000000000000          Justice, Supreme Court, Place 3                         OVER VOTES                            Precinct 102                                           01 
01070050003000000000000000000000000000000000000          Justice, Supreme Court, Place 3                         OVER VOTES                            Precinct 103                                           01 
01070050004000000000000000000000000000000000000          Justice, Supreme Court, Place 3                         OVER VOTES                            Precinct 202                                           01 
01070050005000000000000000000000000000000000000          Justice, Supreme Court, Place 3                         OVER VOTES                            Precinct 203                                           01 
01070050006000000000000000000000000000000000000          Justice, Supreme Court, Place 3                         OVER VOTES                            Precinct 302                                           01 
01070050007000000000000000000000000000000000000          Justice, Supreme Court, Place 3                         OVER VOTES                            Precinct 303                                           01 
01070050008000000000000000000000000000000000000          Justice, Supreme Court, Place 3                         OVER VOTES                            Precinct 401                                           01 
01070060001000010000000000000000007000000000003          Justice, Supreme Court, Place 3                         UNDER VOTES                           Precinct 101                                           01 
01070060002000009000000000000000005000000000004          Justice, Supreme Court, Place 3                         UNDER VOTES                           Precinct 102                                           01 
01070060003000032000000000000000016000000000016          Justice, Supreme Court, Place 3                         UNDER VOTES                           Precinct 103                                           01 
01070060004000039000000000000000017000000000022          Justice, Supreme Court, Place 3                         UNDER VOTES                           Precinct 202                                           01 
01070060005000018000000000000000009000000000009          Justice, Supreme Court, Place 3                         UNDER VOTES                           Precinct 203                                           01 
01070060006000040000000000000000011000000000029          Justice, Supreme Court, Place 3                         UNDER VOTES                           Precinct 302                                           01 
01070060007000045000000000000000017000000000028          Justice, Supreme Court, Place 3                         UNDER VOTES                           Precinct 303                                           01 
01070060008000066000000000000000039000001000026          Justice, Supreme Court, Place 3                         UNDER VOTES                           Precinct 401                                           01 
01080010001000084000000000000000051000000000033REP       Justice, Supreme Court, Place 5                         Paul Green                            Precinct 101                                           01 
01080010002000072000000000000000047000000000025REP       Justice, Supreme Court, Place 5                         Paul Green                            Precinct 102                                           01 
01080010003000262000000000000000172000000000090REP       Justice, Supreme Court, Place 5                         Paul Green                            Precinct 103                                           01 
01080010004000501000000000004000289000000000208REP       Justice, Supreme Court, Place 5                         Paul Green                            Precinct 202                                           01 
01080010005000370000000000002000200000001000167REP       Justice, Supreme Court, Place 5                         Paul Green                            Precinct 203                                           01 
01080010006000423000000000000000152000004000267REP       Justice, Supreme Court, Place 5                         Paul Green                            Precinct 302                                           01 
01080010007000553000000000001000219000000000333REP       Justice, Supreme Court, Place 5                         Paul Green                            Precinct 303                                           01 
01080010008000917000000000008000614000006000289REP       Justice, Supreme Court, Place 5                         Paul Green                            Precinct 401                                           01 
01080020001000247000000000000000130000000000117DEM       Justice, Supreme Court, Place 5                         Dori Contreras Garza                  Precinct 101                                           01 
01080020002000138000000000000000060000000000078DEM       Justice, Supreme Court, Place 5                         Dori Contreras Garza                  Precinct 102                                           01 
01080020003000144000000000001000080000000000063DEM       Justice, Supreme Court, Place 5                         Dori Contreras Garza                  Precinct 103                                           01 
01080020004000131000000000000000075000000000056DEM       Justice, Supreme Court, Place 5                         Dori Contreras Garza                  Precinct 202                                           01 
01080020005000163000000000000000053000001000109DEM       Justice, Supreme Court, Place 5                         Dori Contreras Garza                  Precinct 203                                           01 
01080020006000165000000000000000068000000000097DEM       Justice, Supreme Court, Place 5                         Dori Contreras Garza                  Precinct 302                                           01 
01080020007000139000000000001000074000000000064DEM       Justice, Supreme Court, Place 5                         Dori Contreras Garza                  Precinct 303                                           01 
01080020008000303000000000001000201000002000099DEM       Justice, Supreme Court, Place 5                         Dori Contreras Garza                  Precinct 401                                           01 
01080030001000004000000000000000002000000000002LIB       Justice, Supreme Court, Place 5                         Tom Oxford                            Precinct 101                                           01 
01080030002000006000000000000000002000000000004LIB       Justice, Supreme Court, Place 5                         Tom Oxford                            Precinct 102                                           01 
01080030003000006000000000000000002000000000004LIB       Justice, Supreme Court, Place 5                         Tom Oxford                            Precinct 103                                           01 
01080030004000018000000000000000006000000000012LIB       Justice, Supreme Court, Place 5                         Tom Oxford                            Precinct 202                                           01 
01080030005000025000000000000000007000000000018LIB       Justice, Supreme Court, Place 5                         Tom Oxford                            Precinct 203                                           01 
01080030006000014000000000001000003000000000010LIB       Justice, Supreme Court, Place 5                         Tom Oxford                            Precinct 302                                           01 
01080030007000022000000000000000008000000000014LIB       Justice, Supreme Court, Place 5                         Tom Oxford                            Precinct 303                                           01 
01080030008000025000000000000000015000000000010LIB       Justice, Supreme Court, Place 5                         Tom Oxford                            Precinct 401                                           01 
01080040001000002000000000000000000000000000002GRN       Justice, Supreme Court, Place 5                         Charles E. Waterbury                  Precinct 101                                           01 
01080040002000002000000000000000001000000000001GRN       Justice, Supreme Court, Place 5                         Charles E. Waterbury                  Precinct 102                                           01 
01080040003000002000000000000000000000000000002GRN       Justice, Supreme Court, Place 5                         Charles E. Waterbury                  Precinct 103                                           01 
01080040004000001000000000000000001000000000000GRN       Justice, Supreme Court, Place 5                         Charles E. Waterbury                  Precinct 202                                           01 
01080040005000007000000000000000003000000000004GRN       Justice, Supreme Court, Place 5                         Charles E. Waterbury                  Precinct 203                                           01 
01080040006000005000000000000000000000000000005GRN       Justice, Supreme Court, Place 5                         Charles E. Waterbury                  Precinct 302                                           01 
01080040007000004000000000000000001000000000003GRN       Justice, Supreme Court, Place 5                         Charles E. Waterbury                  Precinct 303                                           01 
01080040008000010000000000000000007000000000003GRN       Justice, Supreme Court, Place 5                         Charles E. Waterbury                  Precinct 401                                           01 
01080050001000000000000000000000000000000000000          Justice, Supreme Court, Place 5                         OVER VOTES                            Precinct 101                                           01 
01080050002000000000000000000000000000000000000          Justice, Supreme Court, Place 5                         OVER VOTES                            Precinct 102                                           01 
01080050003000000000000000000000000000000000000          Justice, Supreme Court, Place 5                         OVER VOTES                            Precinct 103                                           01 
01080050004000001000000000000000001000000000000          Justice, Supreme Court, Place 5                         OVER VOTES                            Precinct 202                                           01 
01080050005000000000000000000000000000000000000          Justice, Supreme Court, Place 5                         OVER VOTES                            Precinct 203                                           01 
01080050006000000000000000000000000000000000000          Justice, Supreme Court, Place 5                         OVER VOTES                            Precinct 302                                           01 
01080050007000000000000000000000000000000000000          Justice, Supreme Court, Place 5                         OVER VOTES                            Precinct 303                                           01 
01080050008000000000000000000000000000000000000          Justice, Supreme Court, Place 5                         OVER VOTES                            Precinct 401                                           01 
01080060001000009000000000000000006000000000003          Justice, Supreme Court, Place 5                         UNDER VOTES                           Precinct 101                                           01 
01080060002000010000000000000000005000000000005          Justice, Supreme Court, Place 5                         UNDER VOTES                           Precinct 102                                           01 
01080060003000030000000000000000015000000000015          Justice, Supreme Court, Place 5                         UNDER VOTES                           Precinct 103                                           01 
01080060004000040000000000000000021000000000019          Justice, Supreme Court, Place 5                         UNDER VOTES                           Precinct 202                                           01 
01080060005000020000000000000000010000000000010          Justice, Supreme Court, Place 5                         UNDER VOTES                           Precinct 203                                           01 
01080060006000041000000000000000012000000000029          Justice, Supreme Court, Place 5                         UNDER VOTES                           Precinct 302                                           01 
01080060007000047000000000000000017000000000030          Justice, Supreme Court, Place 5                         UNDER VOTES                           Precinct 303                                           01 
01080060008000063000000000000000037000001000025          Justice, Supreme Court, Place 5                         UNDER VOTES                           Precinct 401                                           01 
01090010001000076000000000000000047000000000029REP       Justice, Supreme Court, Place 9                         Eva Guzman                            Precinct 101                                           01 
01090010002000071000000000000000045000000000026REP       Justice, Supreme Court, Place 9                         Eva Guzman                            Precinct 102                                           01 
01090010003000242000000000000000157000000000085REP       Justice, Supreme Court, Place 9                         Eva Guzman                            Precinct 103                                           01 
01090010004000475000000000004000274000000000197REP       Justice, Supreme Court, Place 9                         Eva Guzman                            Precinct 202                                           01 
01090010005000358000000000002000193000001000162REP       Justice, Supreme Court, Place 9                         Eva Guzman                            Precinct 203                                           01 
01090010006000407000000000000000148000004000255REP       Justice, Supreme Court, Place 9                         Eva Guzman                            Precinct 302                                           01 
01090010007000519000000000001000204000000000314REP       Justice, Supreme Court, Place 9                         Eva Guzman                            Precinct 303                                           01 
01090010008000879000000000007000590000005000277REP       Justice, Supreme Court, Place 9                         Eva Guzman                            Precinct 401                                           01 
01090020001000250000000000000000132000000000118DEM       Justice, Supreme Court, Place 9                         Savannah Robinson                     Precinct 101                                           01 
01090020002000140000000000000000062000000000078DEM       Justice, Supreme Court, Place 9                         Savannah Robinson                     Precinct 102                                           01 
01090020003000156000000000001000089000000000066DEM       Justice, Supreme Court, Place 9                         Savannah Robinson                     Precinct 103                                           01 
01090020004000144000000000000000087000000000057DEM       Justice, Supreme Court, Place 9                         Savannah Robinson                     Precinct 202                                           01 
01090020005000170000000000000000058000001000111DEM       Justice, Supreme Court, Place 9                         Savannah Robinson                     Precinct 203                                           01 
01090020006000174000000000000000070000000000104DEM       Justice, Supreme Court, Place 9                         Savannah Robinson                     Precinct 302                                           01 
01090020007000156000000000001000084000000000071DEM       Justice, Supreme Court, Place 9                         Savannah Robinson                     Precinct 303                                           01 
01090020008000315000000000001000215000003000096DEM       Justice, Supreme Court, Place 9                         Savannah Robinson                     Precinct 401                                           01 
01090030001000007000000000000000001000000000006LIB       Justice, Supreme Court, Place 9                         Don Fulton                            Precinct 101                                           01 
01090030002000007000000000000000003000000000004LIB       Justice, Supreme Court, Place 9                         Don Fulton                            Precinct 102                                           01 
01090030003000009000000000000000005000000000004LIB       Justice, Supreme Court, Place 9                         Don Fulton                            Precinct 103                                           01 
01090030004000024000000000000000008000000000016LIB       Justice, Supreme Court, Place 9                         Don Fulton                            Precinct 202                                           01 
01090030005000031000000000000000010000000000021LIB       Justice, Supreme Court, Place 9                         Don Fulton                            Precinct 203                                           01 
01090030006000020000000000001000005000000000014LIB       Justice, Supreme Court, Place 9                         Don Fulton                            Precinct 302                                           01 
01090030007000034000000000000000011000000000023LIB       Justice, Supreme Court, Place 9                         Don Fulton                            Precinct 303                                           01 
01090030008000039000000000001000022000000000016LIB       Justice, Supreme Court, Place 9                         Don Fulton                            Precinct 401                                           01 
01090040001000003000000000000000002000000000001GRN       Justice, Supreme Court, Place 9                         Jim Chisholm                          Precinct 101                                           01 
01090040002000003000000000000000001000000000002GRN       Justice, Supreme Court, Place 9                         Jim Chisholm                          Precinct 102                                           01 
01090040003000008000000000000000003000000000005GRN       Justice, Supreme Court, Place 9                         Jim Chisholm                          Precinct 103                                           01 
01090040004000007000000000000000002000000000005GRN       Justice, Supreme Court, Place 9                         Jim Chisholm                          Precinct 202                                           01 
01090040005000007000000000000000003000000000004GRN       Justice, Supreme Court, Place 9                         Jim Chisholm                          Precinct 203                                           01 
01090040006000009000000000000000001000000000008GRN       Justice, Supreme Court, Place 9                         Jim Chisholm                          Precinct 302                                           01 
01090040007000014000000000000000005000000000009GRN       Justice, Supreme Court, Place 9                         Jim Chisholm                          Precinct 303                                           01 
01090040008000020000000000000000009000000000011GRN       Justice, Supreme Court, Place 9                         Jim Chisholm                          Precinct 401                                           01 
01090050001000000000000000000000000000000000000          Justice, Supreme Court, Place 9                         OVER VOTES                            Precinct 101                                           01 
01090050002000000000000000000000000000000000000          Justice, Supreme Court, Place 9                         OVER VOTES                            Precinct 102                                           01 
01090050003000000000000000000000000000000000000          Justice, Supreme Court, Place 9                         OVER VOTES                            Precinct 103                                           01 
01090050004000001000000000000000001000000000000          Justice, Supreme Court, Place 9                         OVER VOTES                            Precinct 202                                           01 
01090050005000000000000000000000000000000000000          Justice, Supreme Court, Place 9                         OVER VOTES                            Precinct 203                                           01 
01090050006000000000000000000000000000000000000          Justice, Supreme Court, Place 9                         OVER VOTES                            Precinct 302                                           01 
01090050007000000000000000000000000000000000000          Justice, Supreme Court, Place 9                         OVER VOTES                            Precinct 303                                           01 
01090050008000000000000000000000000000000000000          Justice, Supreme Court, Place 9                         OVER VOTES                            Precinct 401                                           01 
01090060001000010000000000000000007000000000003          Justice, Supreme Court, Place 9                         UNDER VOTES                           Precinct 101                                           01 
01090060002000007000000000000000004000000000003          Justice, Supreme Court, Place 9                         UNDER VOTES                           Precinct 102                                           01 
01090060003000029000000000000000015000000000014          Justice, Supreme Court, Place 9                         UNDER VOTES                           Precinct 103                                           01 
01090060004000041000000000000000021000000000020          Justice, Supreme Court, Place 9                         UNDER VOTES                           Precinct 202                                           01 
01090060005000019000000000000000009000000000010          Justice, Supreme Court, Place 9                         UNDER VOTES                           Precinct 203                                           01 
01090060006000038000000000000000011000000000027          Justice, Supreme Court, Place 9                         UNDER VOTES                           Precinct 302                                           01 
01090060007000042000000000000000015000000000027          Justice, Supreme Court, Place 9                         UNDER VOTES                           Precinct 303                                           01 
01090060008000065000000000000000038000001000026          Justice, Supreme Court, Place 9                         UNDER VOTES                           Precinct 401                                           01 
01100010001000076000000000000000047000000000029REP       Judge, Court of Criminal Appeals, Place 2               Mary Lou Keel                         Precinct 101                                           01 
01100010002000070000000000000000046000000000024REP       Judge, Court of Criminal Appeals, Place 2               Mary Lou Keel                         Precinct 102                                           01 
01100010003000243000000000000000159000000000084REP       Judge, Court of Criminal Appeals, Place 2               Mary Lou Keel                         Precinct 103                                           01 
01100010004000479000000000004000280000000000195REP       Judge, Court of Criminal Appeals, Place 2               Mary Lou Keel                         Precinct 202                                           01 
01100010005000371000000000002000196000001000172REP       Judge, Court of Criminal Appeals, Place 2               Mary Lou Keel                         Precinct 203                                           01 
01100010006000413000000000000000153000004000256REP       Judge, Court of Criminal Appeals, Place 2               Mary Lou Keel                         Precinct 302                                           01 
01100010007000527000000000001000214000000000312REP       Judge, Court of Criminal Appeals, Place 2               Mary Lou Keel                         Precinct 303                                           01 
01100010008000880000000000007000587000005000281REP       Judge, Court of Criminal Appeals, Place 2               Mary Lou Keel                         Precinct 401                                           01 
01100020001000253000000000000000134000000000119DEM       Judge, Court of Criminal Appeals, Place 2               Lawrence "Larry" Meyers               Precinct 101                                           01 
01100020002000140000000000000000060000000000080DEM       Judge, Court of Criminal Appeals, Place 2               Lawrence "Larry" Meyers               Precinct 102                                           01 
01100020003000153000000000001000089000000000063DEM       Judge, Court of Criminal Appeals, Place 2               Lawrence "Larry" Meyers               Precinct 103                                           01 
01100020004000140000000000000000084000000000056DEM       Judge, Court of Criminal Appeals, Place 2               Lawrence "Larry" Meyers               Precinct 202                                           01 
01100020005000173000000000000000062000001000110DEM       Judge, Court of Criminal Appeals, Place 2               Lawrence "Larry" Meyers               Precinct 203                                           01 
01100020006000174000000000000000066000000000108DEM       Judge, Court of Criminal Appeals, Place 2               Lawrence "Larry" Meyers               Precinct 302                                           01 
01100020007000151000000000001000075000000000075DEM       Judge, Court of Criminal Appeals, Place 2               Lawrence "Larry" Meyers               Precinct 303                                           01 
01100020008000329000000000001000222000003000103DEM       Judge, Court of Criminal Appeals, Place 2               Lawrence "Larry" Meyers               Precinct 401                                           01 
01100030001000006000000000000000001000000000005LIB       Judge, Court of Criminal Appeals, Place 2               Mark Ash                              Precinct 101                                           01 
01100030002000004000000000000000001000000000003LIB       Judge, Court of Criminal Appeals, Place 2               Mark Ash                              Precinct 102                                           01 
01100030003000012000000000000000005000000000007LIB       Judge, Court of Criminal Appeals, Place 2               Mark Ash                              Precinct 103                                           01 
01100030004000024000000000000000009000000000015LIB       Judge, Court of Criminal Appeals, Place 2               Mark Ash                              Precinct 202                                           01 
01100030005000019000000000000000004000000000015LIB       Judge, Court of Criminal Appeals, Place 2               Mark Ash                              Precinct 203                                           01 
01100030006000016000000000001000005000000000010LIB       Judge, Court of Criminal Appeals, Place 2               Mark Ash                              Precinct 302                                           01 
01100030007000031000000000000000009000000000022LIB       Judge, Court of Criminal Appeals, Place 2               Mark Ash                              Precinct 303                                           01 
01100030008000029000000000001000016000000000012LIB       Judge, Court of Criminal Appeals, Place 2               Mark Ash                              Precinct 401                                           01 
01100040001000001000000000000000000000000000001GRN       Judge, Court of Criminal Appeals, Place 2               Adam King Blackwell Reposa            Precinct 101                                           01 
01100040002000006000000000000000004000000000002GRN       Judge, Court of Criminal Appeals, Place 2               Adam King Blackwell Reposa            Precinct 102                                           01 
01100040003000004000000000000000000000000000004GRN       Judge, Court of Criminal Appeals, Place 2               Adam King Blackwell Reposa            Precinct 103                                           01 
01100040004000003000000000000000000000000000003GRN       Judge, Court of Criminal Appeals, Place 2               Adam King Blackwell Reposa            Precinct 202                                           01 
01100040005000003000000000000000002000000000001GRN       Judge, Court of Criminal Appeals, Place 2               Adam King Blackwell Reposa            Precinct 203                                           01 
01100040006000006000000000000000001000000000005GRN       Judge, Court of Criminal Appeals, Place 2               Adam King Blackwell Reposa            Precinct 302                                           01 
01100040007000005000000000000000002000000000003GRN       Judge, Court of Criminal Appeals, Place 2               Adam King Blackwell Reposa            Precinct 303                                           01 
01100040008000013000000000000000010000000000003GRN       Judge, Court of Criminal Appeals, Place 2               Adam King Blackwell Reposa            Precinct 401                                           01 
01100050001000000000000000000000000000000000000          Judge, Court of Criminal Appeals, Place 2               OVER VOTES                            Precinct 101                                           01 
01100050002000000000000000000000000000000000000          Judge, Court of Criminal Appeals, Place 2               OVER VOTES                            Precinct 102                                           01 
01100050003000000000000000000000000000000000000          Judge, Court of Criminal Appeals, Place 2               OVER VOTES                            Precinct 103                                           01 
01100050004000000000000000000000000000000000000          Judge, Court of Criminal Appeals, Place 2               OVER VOTES                            Precinct 202                                           01 
01100050005000000000000000000000000000000000000          Judge, Court of Criminal Appeals, Place 2               OVER VOTES                            Precinct 203                                           01 
01100050006000000000000000000000000000000000000          Judge, Court of Criminal Appeals, Place 2               OVER VOTES                            Precinct 302                                           01 
01100050007000000000000000000000000000000000000          Judge, Court of Criminal Appeals, Place 2               OVER VOTES                            Precinct 303                                           01 
01100050008000000000000000000000000000000000000          Judge, Court of Criminal Appeals, Place 2               OVER VOTES                            Precinct 401                                           01 
01100060001000010000000000000000007000000000003          Judge, Court of Criminal Appeals, Place 2               UNDER VOTES                           Precinct 101                                           01 
01100060002000008000000000000000004000000000004          Judge, Court of Criminal Appeals, Place 2               UNDER VOTES                           Precinct 102                                           01 
01100060003000032000000000000000016000000000016          Judge, Court of Criminal Appeals, Place 2               UNDER VOTES                           Precinct 103                                           01 
01100060004000046000000000000000020000000000026          Judge, Court of Criminal Appeals, Place 2               UNDER VOTES                           Precinct 202                                           01 
01100060005000019000000000000000009000000000010          Judge, Court of Criminal Appeals, Place 2               UNDER VOTES                           Precinct 203                                           01 
01100060006000039000000000000000010000000000029          Judge, Court of Criminal Appeals, Place 2               UNDER VOTES                           Precinct 302                                           01 
01100060007000051000000000000000019000000000032          Judge, Court of Criminal Appeals, Place 2               UNDER VOTES                           Precinct 303                                           01 
01100060008000067000000000000000039000001000027          Judge, Court of Criminal Appeals, Place 2               UNDER VOTES                           Precinct 401                                           01 
01110010001000083000000000000000051000000000032REP       Judge, Court of Criminal Appeals, Place 5               Scott Walker                          Precinct 101                                           01 
01110010002000072000000000000000047000000000025REP       Judge, Court of Criminal Appeals, Place 5               Scott Walker                          Precinct 102                                           01 
01110010003000248000000000000000163000000000085REP       Judge, Court of Criminal Appeals, Place 5               Scott Walker                          Precinct 103                                           01 
01110010004000502000000000004000291000000000207REP       Judge, Court of Criminal Appeals, Place 5               Scott Walker                          Precinct 202                                           01 
01110010005000373000000000002000198000001000172REP       Judge, Court of Criminal Appeals, Place 5               Scott Walker                          Precinct 203                                           01 
01110010006000420000000000000000154000004000262REP       Judge, Court of Criminal Appeals, Place 5               Scott Walker                          Precinct 302                                           01 
01110010007000558000000000001000222000000000335REP       Judge, Court of Criminal Appeals, Place 5               Scott Walker                          Precinct 303                                           01 
01110010008000908000000000007000611000006000284REP       Judge, Court of Criminal Appeals, Place 5               Scott Walker                          Precinct 401                                           01 
01110020001000251000000000000000131000000000120DEM       Judge, Court of Criminal Appeals, Place 5               Betsy Johnson                         Precinct 101                                           01 
01110020002000140000000000000000062000000000078DEM       Judge, Court of Criminal Appeals, Place 5               Betsy Johnson                         Precinct 102                                           01 
01110020003000159000000000001000090000000000068DEM       Judge, Court of Criminal Appeals, Place 5               Betsy Johnson                         Precinct 103                                           01 
01110020004000135000000000000000081000000000054DEM       Judge, Court of Criminal Appeals, Place 5               Betsy Johnson                         Precinct 202                                           01 
01110020005000164000000000000000055000001000108DEM       Judge, Court of Criminal Appeals, Place 5               Betsy Johnson                         Precinct 203                                           01 
01110020006000174000000000000000067000000000107DEM       Judge, Court of Criminal Appeals, Place 5               Betsy Johnson                         Precinct 302                                           01 
01110020007000140000000000001000073000000000066DEM       Judge, Court of Criminal Appeals, Place 5               Betsy Johnson                         Precinct 303                                           01 
01110020008000316000000000002000211000002000101DEM       Judge, Court of Criminal Appeals, Place 5               Betsy Johnson                         Precinct 401                                           01 
01110030001000002000000000000000000000000000002LIB       Judge, Court of Criminal Appeals, Place 5               William Bryan Strange, III            Precinct 101                                           01 
01110030002000006000000000000000002000000000004LIB       Judge, Court of Criminal Appeals, Place 5               William Bryan Strange, III            Precinct 102                                           01 
01110030003000004000000000000000000000000000004LIB       Judge, Court of Criminal Appeals, Place 5               William Bryan Strange, III            Precinct 103                                           01 
01110030004000011000000000000000003000000000008LIB       Judge, Court of Criminal Appeals, Place 5               William Bryan Strange, III            Precinct 202                                           01 
01110030005000021000000000000000008000000000013LIB       Judge, Court of Criminal Appeals, Place 5               William Bryan Strange, III            Precinct 203                                           01 
01110030006000013000000000001000003000000000009LIB       Judge, Court of Criminal Appeals, Place 5               William Bryan Strange, III            Precinct 302                                           01 
01110030007000018000000000000000007000000000011LIB       Judge, Court of Criminal Appeals, Place 5               William Bryan Strange, III            Precinct 303                                           01 
01110030008000023000000000000000014000000000009LIB       Judge, Court of Criminal Appeals, Place 5               William Bryan Strange, III            Precinct 401                                           01 
01110040001000001000000000000000001000000000000GRN       Judge, Court of Criminal Appeals, Place 5               Judith Sanders-Castro                 Precinct 101                                           01 
01110040002000002000000000000000000000000000002GRN       Judge, Court of Criminal Appeals, Place 5               Judith Sanders-Castro                 Precinct 102                                           01 
01110040003000003000000000000000001000000000002GRN       Judge, Court of Criminal Appeals, Place 5               Judith Sanders-Castro                 Precinct 103                                           01 
01110040004000004000000000000000000000000000004GRN       Judge, Court of Criminal Appeals, Place 5               Judith Sanders-Castro                 Precinct 202                                           01 
01110040005000008000000000000000003000000000005GRN       Judge, Court of Criminal Appeals, Place 5               Judith Sanders-Castro                 Precinct 203                                           01 
01110040006000003000000000000000001000000000002GRN       Judge, Court of Criminal Appeals, Place 5               Judith Sanders-Castro                 Precinct 302                                           01 
01110040007000003000000000000000002000000000001GRN       Judge, Court of Criminal Appeals, Place 5               Judith Sanders-Castro                 Precinct 303                                           01 
01110040008000011000000000000000005000000000006GRN       Judge, Court of Criminal Appeals, Place 5               Judith Sanders-Castro                 Precinct 401                                           01 
01110050001000000000000000000000000000000000000          Judge, Court of Criminal Appeals, Place 5               OVER VOTES                            Precinct 101                                           01 
01110050002000000000000000000000000000000000000          Judge, Court of Criminal Appeals, Place 5               OVER VOTES                            Precinct 102                                           01 
01110050003000000000000000000000000000000000000          Judge, Court of Criminal Appeals, Place 5               OVER VOTES                            Precinct 103                                           01 
01110050004000000000000000000000000000000000000          Judge, Court of Criminal Appeals, Place 5               OVER VOTES                            Precinct 202                                           01 
01110050005000000000000000000000000000000000000          Judge, Court of Criminal Appeals, Place 5               OVER VOTES                            Precinct 203                                           01 
01110050006000000000000000000000000000000000000          Judge, Court of Criminal Appeals, Place 5               OVER VOTES                            Precinct 302                                           01 
01110050007000000000000000000000000000000000000          Judge, Court of Criminal Appeals, Place 5               OVER VOTES                            Precinct 303                                           01 
01110050008000000000000000000000000000000000000          Judge, Court of Criminal Appeals, Place 5               OVER VOTES                            Precinct 401                                           01 
01110060001000009000000000000000006000000000003          Judge, Court of Criminal Appeals, Place 5               UNDER VOTES                           Precinct 101                                           01 
01110060002000008000000000000000004000000000004          Judge, Court of Criminal Appeals, Place 5               UNDER VOTES                           Precinct 102                                           01 
01110060003000030000000000000000015000000000015          Judge, Court of Criminal Appeals, Place 5               UNDER VOTES                           Precinct 103                                           01 
01110060004000040000000000000000018000000000022          Judge, Court of Criminal Appeals, Place 5               UNDER VOTES                           Precinct 202                                           01 
01110060005000019000000000000000009000000000010          Judge, Court of Criminal Appeals, Place 5               UNDER VOTES                           Precinct 203                                           01 
01110060006000038000000000000000010000000000028          Judge, Court of Criminal Appeals, Place 5               UNDER VOTES                           Precinct 302                                           01 
01110060007000046000000000000000015000000000031          Judge, Court of Criminal Appeals, Place 5               UNDER VOTES                           Precinct 303                                           01 
01110060008000060000000000000000033000001000026          Judge, Court of Criminal Appeals, Place 5               UNDER VOTES                           Precinct 401                                           01 
01120010001000080000000000000000049000000000031REP       Judge, Court of Criminal Appeals, Place 6               Michael E. Keasler                    Precinct 101                                           01 
01120010002000071000000000000000048000000000023REP       Judge, Court of Criminal Appeals, Place 6               Michael E. Keasler                    Precinct 102                                           01 
01120010003000250000000000000000162000000000088REP       Judge, Court of Criminal Appeals, Place 6               Michael E. Keasler                    Precinct 103                                           01 
01120010004000488000000000004000281000000000203REP       Judge, Court of Criminal Appeals, Place 6               Michael E. Keasler                    Precinct 202                                           01 
01120010005000374000000000002000197000001000174REP       Judge, Court of Criminal Appeals, Place 6               Michael E. Keasler                    Precinct 203                                           01 
01120010006000420000000000000000151000003000266REP       Judge, Court of Criminal Appeals, Place 6               Michael E. Keasler                    Precinct 302                                           01 
01120010007000547000000000001000218000000000328REP       Judge, Court of Criminal Appeals, Place 6               Michael E. Keasler                    Precinct 303                                           01 
01120010008000901000000000007000598000006000290REP       Judge, Court of Criminal Appeals, Place 6               Michael E. Keasler                    Precinct 401                                           01 
01120020001000251000000000000000134000000000117DEM       Judge, Court of Criminal Appeals, Place 6               Robert Burns                          Precinct 101                                           01 
01120020002000141000000000000000060000000000081DEM       Judge, Court of Criminal Appeals, Place 6               Robert Burns                          Precinct 102                                           01 
01120020003000153000000000001000089000000000063DEM       Judge, Court of Criminal Appeals, Place 6               Robert Burns                          Precinct 103                                           01 
01120020004000142000000000000000082000000000060DEM       Judge, Court of Criminal Appeals, Place 6               Robert Burns                          Precinct 202                                           01 
01120020005000169000000000000000059000001000109DEM       Judge, Court of Criminal Appeals, Place 6               Robert Burns                          Precinct 203                                           01 
01120020006000167000000000000000069000000000098DEM       Judge, Court of Criminal Appeals, Place 6               Robert Burns                          Precinct 302                                           01 
01120020007000144000000000001000077000000000066DEM       Judge, Court of Criminal Appeals, Place 6               Robert Burns                          Precinct 303                                           01 
01120020008000325000000000002000218000002000103DEM       Judge, Court of Criminal Appeals, Place 6               Robert Burns                          Precinct 401                                           01 
01120030001000007000000000000000000000000000007LIB       Judge, Court of Criminal Appeals, Place 6               Mark W. Bennett                       Precinct 101                                           01 
01120030002000008000000000000000003000000000005LIB       Judge, Court of Criminal Appeals, Place 6               Mark W. Bennett                       Precinct 102                                           01 
01120030003000009000000000000000003000000000006LIB       Judge, Court of Criminal Appeals, Place 6               Mark W. Bennett                       Precinct 103                                           01 
01120030004000019000000000000000010000000000009LIB       Judge, Court of Criminal Appeals, Place 6               Mark W. Bennett                       Precinct 202                                           01 
01120030005000024000000000000000007000000000017LIB       Judge, Court of Criminal Appeals, Place 6               Mark W. Bennett                       Precinct 203                                           01 
01120030006000021000000000001000006000001000013LIB       Judge, Court of Criminal Appeals, Place 6               Mark W. Bennett                       Precinct 302                                           01 
01120030007000028000000000000000008000000000020LIB       Judge, Court of Criminal Appeals, Place 6               Mark W. Bennett                       Precinct 303                                           01 
01120030008000029000000000000000021000000000008LIB       Judge, Court of Criminal Appeals, Place 6               Mark W. Bennett                       Precinct 401                                           01 
01120040001000000000000000000000000000000000000          Judge, Court of Criminal Appeals, Place 6               OVER VOTES                            Precinct 101                                           01 
01120040002000000000000000000000000000000000000          Judge, Court of Criminal Appeals, Place 6               OVER VOTES                            Precinct 102                                           01 
01120040003000000000000000000000000000000000000          Judge, Court of Criminal Appeals, Place 6               OVER VOTES                            Precinct 103                                           01 
01120040004000000000000000000000000000000000000          Judge, Court of Criminal Appeals, Place 6               OVER VOTES                            Precinct 202                                           01 
01120040005000000000000000000000000000000000000          Judge, Court of Criminal Appeals, Place 6               OVER VOTES                            Precinct 203                                           01 
01120040006000000000000000000000000000000000000          Judge, Court of Criminal Appeals, Place 6               OVER VOTES                            Precinct 302                                           01 
01120040007000000000000000000000000000000000000          Judge, Court of Criminal Appeals, Place 6               OVER VOTES                            Precinct 303                                           01 
01120040008000000000000000000000000000000000000          Judge, Court of Criminal Appeals, Place 6               OVER VOTES                            Precinct 401                                           01 
01120050001000008000000000000000006000000000002          Judge, Court of Criminal Appeals, Place 6               UNDER VOTES                           Precinct 101                                           01 
