01050010001000000REP       President                                               Lindsey Graham                        PRECINCT 1                                             01 
01050010002000000REP       President                                               Lindsey Graham                        PRECINCT 2                                             01 
01050010003000000REP       President                                               Lindsey Graham                        PRECINCT 3                                             01 
01050010004000002REP       President                                               Lindsey Graham                        PRECINCT 4                                             01 
01050010005000000REP       President                                               Lindsey Graham                        PRECINCT 5                                             01 
01050010006000000REP       President                                               Lindsey Graham                        PRECINCT 6                                             01 
01050010007000000REP       President                                               Lindsey Graham                        PRECINCT 7                                             01 
01050010008000000REP       President                                               Lindsey Graham                        PRECINCT 8                                             01 
01050010009000000REP       President                                               Lindsey Graham                        PRECINCT 9                                             01 
01050020001000000REP       President                                               Elizabeth Gray                        PRECINCT 1                                             01 
01050020002000000REP       President                                               Elizabeth Gray                        PRECINCT 2                                             01 
01050020003000002REP       President                                               Elizabeth Gray                        PRECINCT 3                                             01 
01050020004000001REP       President                                               Elizabeth Gray                        PRECINCT 4                                             01 
01050020005000000REP       President                                               Elizabeth Gray                        PRECINCT 5                                             01 
01050020006000000REP       President                                               Elizabeth Gray                        PRECINCT 6                                             01 
01050020007000000REP       President                                               Elizabeth Gray                        PRECINCT 7                                             01 
01050020008000000REP       President                                               Elizabeth Gray                        PRECINCT 8                                             01 
01050020009000000REP       President                                               Elizabeth Gray                        PRECINCT 9                                             01 
01050030001000011REP       President                                               John R. Kasich                        PRECINCT 1                                             01 
01050030002000029REP       President                                               John R. Kasich                        PRECINCT 2                                             01 
01050030003000020REP       President                                               John R. Kasich                        PRECINCT 3                                             01 
01050030004000009REP       President                                               John R. Kasich                        PRECINCT 4                                             01 
01050030005000002REP       President                                               John R. Kasich                        PRECINCT 5                                             01 
01050030006000007REP       President                                               John R. Kasich                        PRECINCT 6                                             01 
01050030007000002REP       President                                               John R. Kasich                        PRECINCT 7                                             01 
01050030008000003REP       President                                               John R. Kasich                        PRECINCT 8                                             01 
01050030009000014REP       President                                               John R. Kasich                        PRECINCT 9                                             01 
01050040001000002REP       President                                               Rand Paul                             PRECINCT 1                                             01 
01050040002000004REP       President                                               Rand Paul                             PRECINCT 2                                             01 
01050040003000002REP       President                                               Rand Paul                             PRECINCT 3                                             01 
01050040004000000REP       President                                               Rand Paul                             PRECINCT 4                                             01 
01050040005000000REP       President                                               Rand Paul                             PRECINCT 5                                             01 
01050040006000000REP       President                                               Rand Paul                             PRECINCT 6                                             01 
01050040007000001REP       President                                               Rand Paul                             PRECINCT 7                                             01 
01050040008000000REP       President                                               Rand Paul                             PRECINCT 8                                             01 
01050040009000002REP       President                                               Rand Paul                             PRECINCT 9                                             01 
01050050001000001REP       President                                               Carly Fiorina                         PRECINCT 1                                             01 
01050050002000000REP       President                                               Carly Fiorina                         PRECINCT 2                                             01 
01050050003000002REP       President                                               Carly Fiorina                         PRECINCT 3                                             01 
01050050004000000REP       President                                               Carly Fiorina                         PRECINCT 4                                             01 
01050050005000000REP       President                                               Carly Fiorina                         PRECINCT 5                                             01 
01050050006000001REP       President                                               Carly Fiorina                         PRECINCT 6                                             01 
01050050007000000REP       President                                               Carly Fiorina                         PRECINCT 7                                             01 
01050050008000000REP       President                                               Carly Fiorina                         PRECINCT 8                                             01 
01050050009000000REP       President                                               Carly Fiorina                         PRECINCT 9                                             01 
01050060001000074REP       President                                               Donald J. Trump                       PRECINCT 1                                             01 
01050060002000131REP       President                                               Donald J. Trump                       PRECINCT 2                                             01 
01050060003000142REP       President                                               Donald J. Trump                       PRECINCT 3                                             01 
01050060004000078REP       President                                               Donald J. Trump                       PRECINCT 4                                             01 
01050060005000020REP       President                                               Donald J. Trump                       PRECINCT 5                                             01 
01050060006000092REP       President                                               Donald J. Trump                       PRECINCT 6                                             01 
01050060007000080REP       President                                               Donald J. Trump                       PRECINCT 7                                             01 
01050060008000020REP       President                                               Donald J. Trump                       PRECINCT 8                                             01 
01050060009000190REP       President                                               Donald J. Trump                       PRECINCT 9                                             01 
01050070001000030REP       President                                               Ben Carson                            PRECINCT 1                                             01 
01050070002000032REP       President                                               Ben Carson                            PRECINCT 2                                             01 
01050070003000029REP       President                                               Ben Carson                            PRECINCT 3                                             01 
01050070004000020REP       President                                               Ben Carson                            PRECINCT 4                                             01 
01050070005000003REP       President                                               Ben Carson                            PRECINCT 5                                             01 
01050070006000017REP       President                                               Ben Carson                            PRECINCT 6                                             01 
01050070007000005REP       President                                               Ben Carson                            PRECINCT 7                                             01 
01050070008000004REP       President                                               Ben Carson                            PRECINCT 8                                             01 
01050070009000026REP       President                                               Ben Carson                            PRECINCT 9                                             01 
01050080001000002REP       President                                               Mike Huckabee                         PRECINCT 1                                             01 
01050080002000003REP       President                                               Mike Huckabee                         PRECINCT 2                                             01 
01050080003000004REP       President                                               Mike Huckabee                         PRECINCT 3                                             01 
01050080004000001REP       President                                               Mike Huckabee                         PRECINCT 4                                             01 
01050080005000000REP       President                                               Mike Huckabee                         PRECINCT 5                                             01 
01050080006000000REP       President                                               Mike Huckabee                         PRECINCT 6                                             01 
01050080007000001REP       President                                               Mike Huckabee                         PRECINCT 7                                             01 
01050080008000001REP       President                                               Mike Huckabee                         PRECINCT 8                                             01 
01050080009000003REP       President                                               Mike Huckabee                         PRECINCT 9                                             01 
01050090001000175REP       President                                               Ted Cruz                              PRECINCT 1                                             01 
01050090002000203REP       President                                               Ted Cruz                              PRECINCT 2                                             01 
01050090003000230REP       President                                               Ted Cruz                              PRECINCT 3                                             01 
01050090004000130REP       President                                               Ted Cruz                              PRECINCT 4                                             01 
01050090005000050REP       President                                               Ted Cruz                              PRECINCT 5                                             01 
01050090006000199REP       President                                               Ted Cruz                              PRECINCT 6                                             01 
01050090007000075REP       President                                               Ted Cruz                              PRECINCT 7                                             01 
01050090008000050REP       President                                               Ted Cruz                              PRECINCT 8                                             01 
01050090009000251REP       President                                               Ted Cruz                              PRECINCT 9                                             01 
01050100001000037REP       President                                               Marco Rubio                           PRECINCT 1                                             01 
01050100002000078REP       President                                               Marco Rubio                           PRECINCT 2                                             01 
01050100003000068REP       President                                               Marco Rubio                           PRECINCT 3                                             01 
01050100004000059REP       President                                               Marco Rubio                           PRECINCT 4                                             01 
01050100005000017REP       President                                               Marco Rubio                           PRECINCT 5                                             01 
01050100006000040REP       President                                               Marco Rubio                           PRECINCT 6                                             01 
01050100007000010REP       President                                               Marco Rubio                           PRECINCT 7                                             01 
01050100008000009REP       President                                               Marco Rubio                           PRECINCT 8                                             01 
01050100009000094REP       President                                               Marco Rubio                           PRECINCT 9                                             01 
01050110001000000REP       President                                               Rick Santorum                         PRECINCT 1                                             01 
01050110002000000REP       President                                               Rick Santorum                         PRECINCT 2                                             01 
01050110003000000REP       President                                               Rick Santorum                         PRECINCT 3                                             01 
01050110004000000REP       President                                               Rick Santorum                         PRECINCT 4                                             01 
01050110005000000REP       President                                               Rick Santorum                         PRECINCT 5                                             01 
01050110006000000REP       President                                               Rick Santorum                         PRECINCT 6                                             01 
01050110007000000REP       President                                               Rick Santorum                         PRECINCT 7                                             01 
01050110008000000REP       President                                               Rick Santorum                         PRECINCT 8                                             01 
01050110009000001REP       President                                               Rick Santorum                         PRECINCT 9                                             01 
01050120001000000REP       President                                               Chris Christie                        PRECINCT 1                                             01 
01050120002000000REP       President                                               Chris Christie                        PRECINCT 2                                             01 
01050120003000000REP       President                                               Chris Christie                        PRECINCT 3                                             01 
01050120004000001REP       President                                               Chris Christie                        PRECINCT 4                                             01 
01050120005000000REP       President                                               Chris Christie                        PRECINCT 5                                             01 
01050120006000000REP       President                                               Chris Christie                        PRECINCT 6                                             01 
01050120007000000REP       President                                               Chris Christie                        PRECINCT 7                                             01 
01050120008000000REP       President                                               Chris Christie                        PRECINCT 8                                             01 
01050120009000001REP       President                                               Chris Christie                        PRECINCT 9                                             01 
01050130001000005REP       President                                               Jeb Bush                              PRECINCT 1                                             01 
01050130002000013REP       President                                               Jeb Bush                              PRECINCT 2                                             01 
01050130003000009REP       President                                               Jeb Bush                              PRECINCT 3                                             01 
01050130004000007REP       President                                               Jeb Bush                              PRECINCT 4                                             01 
01050130005000003REP       President                                               Jeb Bush                              PRECINCT 5                                             01 
01050130006000002REP       President                                               Jeb Bush                              PRECINCT 6                                             01 
01050130007000000REP       President                                               Jeb Bush                              PRECINCT 7                                             01 
01050130008000002REP       President                                               Jeb Bush                              PRECINCT 8                                             01 
01050130009000019REP       President                                               Jeb Bush                              PRECINCT 9                                             01 
01050140001000010REP       President                                               Uncommitted                           PRECINCT 1                                             01 
01050140002000022REP       President                                               Uncommitted                           PRECINCT 2                                             01 
01050140003000024REP       President                                               Uncommitted                           PRECINCT 3                                             01 
01050140004000015REP       President                                               Uncommitted                           PRECINCT 4                                             01 
01050140005000003REP       President                                               Uncommitted                           PRECINCT 5                                             01 
01050140006000010REP       President                                               Uncommitted                           PRECINCT 6                                             01 
01050140007000002REP       President                                               Uncommitted                           PRECINCT 7                                             01 
01050140008000001REP       President                                               Uncommitted                           PRECINCT 8                                             01 
01050140009000015REP       President                                               Uncommitted                           PRECINCT 9                                             01 
01050150001000000REP       President                                               OVER VOTES                            PRECINCT 1                                             01 
01050150002000000REP       President                                               OVER VOTES                            PRECINCT 2                                             01 
01050150003000000REP       President                                               OVER VOTES                            PRECINCT 3                                             01 
01050150004000000REP       President                                               OVER VOTES                            PRECINCT 4                                             01 
01050150005000000REP       President                                               OVER VOTES                            PRECINCT 5                                             01 
01050150006000000REP       President                                               OVER VOTES                            PRECINCT 6                                             01 
01050150007000000REP       President                                               OVER VOTES                            PRECINCT 7                                             01 
01050150008000000REP       President                                               OVER VOTES                            PRECINCT 8                                             01 
01050150009000000REP       President                                               OVER VOTES                            PRECINCT 9                                             01 
01050160001000004REP       President                                               UNDER VOTES                           PRECINCT 1                                             01 
01050160002000011REP       President                                               UNDER VOTES                           PRECINCT 2                                             01 
01050160003000013REP       President                                               UNDER VOTES                           PRECINCT 3                                             01 
01050160004000003REP       President                                               UNDER VOTES                           PRECINCT 4                                             01 
01050160005000001REP       President                                               UNDER VOTES                           PRECINCT 5                                             01 
01050160006000001REP       President                                               UNDER VOTES                           PRECINCT 6                                             01 
01050160007000005REP       President                                               UNDER VOTES                           PRECINCT 7                                             01 
01050160008000000REP       President                                               UNDER VOTES                           PRECINCT 8                                             01 
01050160009000005REP       President                                               UNDER VOTES                           PRECINCT 9                                             01 
01060010001000057REP       United States Representative District 19                Michael Bob Starr                     PRECINCT 1                                             01 
01060010002000113REP       United States Representative District 19                Michael Bob Starr                     PRECINCT 2                                             01 
01060010003000109REP       United States Representative District 19                Michael Bob Starr                     PRECINCT 3                                             01 
01060010004000042REP       United States Representative District 19                Michael Bob Starr                     PRECINCT 4                                             01 
01060010005000018REP       United States Representative District 19                Michael Bob Starr                     PRECINCT 5                                             01 
01060010006000060REP       United States Representative District 19                Michael Bob Starr                     PRECINCT 6                                             01 
01060010007000036REP       United States Representative District 19                Michael Bob Starr                     PRECINCT 7                                             01 
01060010008000017REP       United States Representative District 19                Michael Bob Starr                     PRECINCT 8                                             01 
01060010009000111REP       United States Representative District 19                Michael Bob Starr                     PRECINCT 9                                             01 
01060020001000040REP       United States Representative District 19                Greg Garrett                          PRECINCT 1                                             01 
01060020002000040REP       United States Representative District 19                Greg Garrett                          PRECINCT 2                                             01 
01060020003000051REP       United States Representative District 19                Greg Garrett                          PRECINCT 3                                             01 
01060020004000032REP       United States Representative District 19                Greg Garrett                          PRECINCT 4                                             01 
01060020005000008REP       United States Representative District 19                Greg Garrett                          PRECINCT 5                                             01 
01060020006000024REP       United States Representative District 19                Greg Garrett                          PRECINCT 6                                             01 
01060020007000012REP       United States Representative District 19                Greg Garrett                          PRECINCT 7                                             01 
01060020008000008REP       United States Representative District 19                Greg Garrett                          PRECINCT 8                                             01 
01060020009000047REP       United States Representative District 19                Greg Garrett                          PRECINCT 9                                             01 
01060030001000012REP       United States Representative District 19                DeRenda Warren                        PRECINCT 1                                             01 
01060030002000013REP       United States Representative District 19                DeRenda Warren                        PRECINCT 2                                             01 
01060030003000013REP       United States Representative District 19                DeRenda Warren                        PRECINCT 3                                             01 
01060030004000023REP       United States Representative District 19                DeRenda Warren                        PRECINCT 4                                             01 
01060030005000000REP       United States Representative District 19                DeRenda Warren                        PRECINCT 5                                             01 
01060030006000010REP       United States Representative District 19                DeRenda Warren                        PRECINCT 6                                             01 
01060030007000005REP       United States Representative District 19                DeRenda Warren                        PRECINCT 7                                             01 
01060030008000002REP       United States Representative District 19                DeRenda Warren                        PRECINCT 8                                             01 
01060030009000013REP       United States Representative District 19                DeRenda Warren                        PRECINCT 9                                             01 
01060040001000059REP       United States Representative District 19                Glen Robertson                        PRECINCT 1                                             01 
01060040002000090REP       United States Representative District 19                Glen Robertson                        PRECINCT 2                                             01 
01060040003000102REP       United States Representative District 19                Glen Robertson                        PRECINCT 3                                             01 
01060040004000071REP       United States Representative District 19                Glen Robertson                        PRECINCT 4                                             01 
01060040005000022REP       United States Representative District 19                Glen Robertson                        PRECINCT 5                                             01 
01060040006000064REP       United States Representative District 19                Glen Robertson                        PRECINCT 6                                             01 
01060040007000024REP       United States Representative District 19                Glen Robertson                        PRECINCT 7                                             01 
01060040008000029REP       United States Representative District 19                Glen Robertson                        PRECINCT 8                                             01 
01060040009000117REP       United States Representative District 19                Glen Robertson                        PRECINCT 9                                             01 
01060050001000007REP       United States Representative District 19                John C. Key                           PRECINCT 1                                             01 
01060050002000007REP       United States Representative District 19                John C. Key                           PRECINCT 2                                             01 
01060050003000015REP       United States Representative District 19                John C. Key                           PRECINCT 3                                             01 
01060050004000005REP       United States Representative District 19                John C. Key                           PRECINCT 4                                             01 
01060050005000004REP       United States Representative District 19                John C. Key                           PRECINCT 5                                             01 
01060050006000006REP       United States Representative District 19                John C. Key                           PRECINCT 6                                             01 
01060050007000005REP       United States Representative District 19                John C. Key                           PRECINCT 7                                             01 
01060050008000002REP       United States Representative District 19                John C. Key                           PRECINCT 8                                             01 
01060050009000014REP       United States Representative District 19                John C. Key                           PRECINCT 9                                             01 
01060060001000069REP       United States Representative District 19                Jodey Arrington                       PRECINCT 1                                             01 
01060060002000132REP       United States Representative District 19                Jodey Arrington                       PRECINCT 2                                             01 
01060060003000098REP       United States Representative District 19                Jodey Arrington                       PRECINCT 3                                             01 
01060060004000049REP       United States Representative District 19                Jodey Arrington                       PRECINCT 4                                             01 
01060060005000023REP       United States Representative District 19                Jodey Arrington                       PRECINCT 5                                             01 
01060060006000113REP       United States Representative District 19                Jodey Arrington                       PRECINCT 6                                             01 
01060060007000016REP       United States Representative District 19                Jodey Arrington                       PRECINCT 7                                             01 
01060060008000003REP       United States Representative District 19                Jodey Arrington                       PRECINCT 8                                             01 
01060060009000150REP       United States Representative District 19                Jodey Arrington                       PRECINCT 9                                             01 
01060070001000041REP       United States Representative District 19                Donald R. May                         PRECINCT 1                                             01 
01060070002000042REP       United States Representative District 19                Donald R. May                         PRECINCT 2                                             01 
01060070003000059REP       United States Representative District 19                Donald R. May                         PRECINCT 3                                             01 
01060070004000042REP       United States Representative District 19                Donald R. May                         PRECINCT 4                                             01 
01060070005000009REP       United States Representative District 19                Donald R. May                         PRECINCT 5                                             01 
01060070006000036REP       United States Representative District 19                Donald R. May                         PRECINCT 6                                             01 
01060070007000031REP       United States Representative District 19                Donald R. May                         PRECINCT 7                                             01 
01060070008000015REP       United States Representative District 19                Donald R. May                         PRECINCT 8                                             01 
01060070009000080REP       United States Representative District 19                Donald R. May                         PRECINCT 9                                             01 
01060080001000014REP       United States Representative District 19                Jason Corley                          PRECINCT 1                                             01 
01060080002000017REP       United States Representative District 19                Jason Corley                          PRECINCT 2                                             01 
01060080003000018REP       United States Representative District 19                Jason Corley                          PRECINCT 3                                             01 
01060080004000011REP       United States Representative District 19                Jason Corley                          PRECINCT 4                                             01 
01060080005000000REP       United States Representative District 19                Jason Corley                          PRECINCT 5                                             01 
01060080006000013REP       United States Representative District 19                Jason Corley                          PRECINCT 6                                             01 
01060080007000006REP       United States Representative District 19                Jason Corley                          PRECINCT 7                                             01 
01060080008000005REP       United States Representative District 19                Jason Corley                          PRECINCT 8                                             01 
01060080009000014REP       United States Representative District 19                Jason Corley                          PRECINCT 9                                             01 
01060090001000004REP       United States Representative District 19                Don Parrish                           PRECINCT 1                                             01 
01060090002000014REP       United States Representative District 19                Don Parrish                           PRECINCT 2                                             01 
01060090003000008REP       United States Representative District 19                Don Parrish                           PRECINCT 3                                             01 
01060090004000010REP       United States Representative District 19                Don Parrish                           PRECINCT 4                                             01 
01060090005000001REP       United States Representative District 19                Don Parrish                           PRECINCT 5                                             01 
01060090006000007REP       United States Representative District 19                Don Parrish                           PRECINCT 6                                             01 
01060090007000003REP       United States Representative District 19                Don Parrish                           PRECINCT 7                                             01 
01060090008000002REP       United States Representative District 19                Don Parrish                           PRECINCT 8                                             01 
01060090009000010REP       United States Representative District 19                Don Parrish                           PRECINCT 9                                             01 
01060100001000000REP       United States Representative District 19                OVER VOTES                            PRECINCT 1                                             01 
01060100002000001REP       United States Representative District 19                OVER VOTES                            PRECINCT 2                                             01 
01060100003000000REP       United States Representative District 19                OVER VOTES                            PRECINCT 3                                             01 
01060100004000000REP       United States Representative District 19                OVER VOTES                            PRECINCT 4                                             01 
01060100005000000REP       United States Representative District 19                OVER VOTES                            PRECINCT 5                                             01 
01060100006000002REP       United States Representative District 19                OVER VOTES                            PRECINCT 6                                             01 
01060100007000000REP       United States Representative District 19                OVER VOTES                            PRECINCT 7                                             01 
01060100008000000REP       United States Representative District 19                OVER VOTES                            PRECINCT 8                                             01 
01060100009000000REP       United States Representative District 19                OVER VOTES                            PRECINCT 9                                             01 
01060110001000048REP       United States Representative District 19                UNDER VOTES                           PRECINCT 1                                             01 
01060110002000057REP       United States Representative District 19                UNDER VOTES                           PRECINCT 2                                             01 
01060110003000072REP       United States Representative District 19                UNDER VOTES                           PRECINCT 3                                             01 
01060110004000041REP       United States Representative District 19                UNDER VOTES                           PRECINCT 4                                             01 
01060110005000014REP       United States Representative District 19                UNDER VOTES                           PRECINCT 5                                             01 
01060110006000034REP       United States Representative District 19                UNDER VOTES                           PRECINCT 6                                             01 
01060110007000043REP       United States Representative District 19                UNDER VOTES                           PRECINCT 7                                             01 
01060110008000007REP       United States Representative District 19                UNDER VOTES                           PRECINCT 8                                             01 
01060110009000065REP       United States Representative District 19                UNDER VOTES                           PRECINCT 9                                             01 
01070010001000073REP       Railroad Commissioner                                   Ron Hale                              PRECINCT 1                                             01 
01070010002000111REP       Railroad Commissioner                                   Ron Hale                              PRECINCT 2                                             01 
01070010003000089REP       Railroad Commissioner                                   Ron Hale                              PRECINCT 3                                             01 
01070010004000046REP       Railroad Commissioner                                   Ron Hale                              PRECINCT 4                                             01 
01070010005000011REP       Railroad Commissioner                                   Ron Hale                              PRECINCT 5                                             01 
01070010006000074REP       Railroad Commissioner                                   Ron Hale                              PRECINCT 6                                             01 
01070010007000030REP       Railroad Commissioner                                   Ron Hale                              PRECINCT 7                                             01 
01070010008000017REP       Railroad Commissioner                                   Ron Hale                              PRECINCT 8                                             01 
01070010009000120REP       Railroad Commissioner                                   Ron Hale                              PRECINCT 9                                             01 
01070020001000041REP       Railroad Commissioner                                   Gary Gates                            PRECINCT 1                                             01 
01070020002000074REP       Railroad Commissioner                                   Gary Gates                            PRECINCT 2                                             01 
01070020003000065REP       Railroad Commissioner                                   Gary Gates                            PRECINCT 3                                             01 
01070020004000039REP       Railroad Commissioner                                   Gary Gates                            PRECINCT 4                                             01 
01070020005000011REP       Railroad Commissioner                                   Gary Gates                            PRECINCT 5                                             01 
01070020006000049REP       Railroad Commissioner                                   Gary Gates                            PRECINCT 6                                             01 
01070020007000022REP       Railroad Commissioner                                   Gary Gates                            PRECINCT 7                                             01 
01070020008000010REP       Railroad Commissioner                                   Gary Gates                            PRECINCT 8                                             01 
01070020009000085REP       Railroad Commissioner                                   Gary Gates                            PRECINCT 9                                             01 
01070030001000027REP       Railroad Commissioner                                   Lance N. Christian                    PRECINCT 1                                             01 
01070030002000051REP       Railroad Commissioner                                   Lance N. Christian                    PRECINCT 2                                             01 
01070030003000065REP       Railroad Commissioner                                   Lance N. Christian                    PRECINCT 3                                             01 
01070030004000041REP       Railroad Commissioner                                   Lance N. Christian                    PRECINCT 4                                             01 
01070030005000009REP       Railroad Commissioner                                   Lance N. Christian                    PRECINCT 5                                             01 
01070030006000031REP       Railroad Commissioner                                   Lance N. Christian                    PRECINCT 6                                             01 
01070030007000019REP       Railroad Commissioner                                   Lance N. Christian                    PRECINCT 7                                             01 
01070030008000002REP       Railroad Commissioner                                   Lance N. Christian                    PRECINCT 8                                             01 
01070030009000069REP       Railroad Commissioner                                   Lance N. Christian                    PRECINCT 9                                             01 
01070040001000011REP       Railroad Commissioner                                   John Greytok                          PRECINCT 1                                             01 
01070040002000022REP       Railroad Commissioner                                   John Greytok                          PRECINCT 2                                             01 
01070040003000030REP       Railroad Commissioner                                   John Greytok                          PRECINCT 3                                             01 
01070040004000012REP       Railroad Commissioner                                   John Greytok                          PRECINCT 4                                             01 
01070040005000003REP       Railroad Commissioner                                   John Greytok                          PRECINCT 5                                             01 
01070040006000014REP       Railroad Commissioner                                   John Greytok                          PRECINCT 6                                             01 
01070040007000007REP       Railroad Commissioner                                   John Greytok                          PRECINCT 7                                             01 
01070040008000000REP       Railroad Commissioner                                   John Greytok                          PRECINCT 8                                             01 
01070040009000018REP       Railroad Commissioner                                   John Greytok                          PRECINCT 9                                             01 
01070050001000041REP       Railroad Commissioner                                   Wayne Christian                       PRECINCT 1                                             01 
01070050002000063REP       Railroad Commissioner                                   Wayne Christian                       PRECINCT 2                                             01 
01070050003000060REP       Railroad Commissioner                                   Wayne Christian                       PRECINCT 3                                             01 
01070050004000024REP       Railroad Commissioner                                   Wayne Christian                       PRECINCT 4                                             01 
01070050005000026REP       Railroad Commissioner                                   Wayne Christian                       PRECINCT 5                                             01 
01070050006000051REP       Railroad Commissioner                                   Wayne Christian                       PRECINCT 6                                             01 
01070050007000023REP       Railroad Commissioner                                   Wayne Christian                       PRECINCT 7                                             01 
01070050008000013REP       Railroad Commissioner                                   Wayne Christian                       PRECINCT 8                                             01 
01070050009000058REP       Railroad Commissioner                                   Wayne Christian                       PRECINCT 9                                             01 
01070060001000035REP       Railroad Commissioner                                   Weston Martinez                       PRECINCT 1                                             01 
01070060002000015REP       Railroad Commissioner                                   Weston Martinez                       PRECINCT 2                                             01 
01070060003000048REP       Railroad Commissioner                                   Weston Martinez                       PRECINCT 3                                             01 
01070060004000084REP       Railroad Commissioner                                   Weston Martinez                       PRECINCT 4                                             01 
01070060005000002REP       Railroad Commissioner                                   Weston Martinez                       PRECINCT 5                                             01 
01070060006000024REP       Railroad Commissioner                                   Weston Martinez                       PRECINCT 6                                             01 
01070060007000004REP       Railroad Commissioner                                   Weston Martinez                       PRECINCT 7                                             01 
01070060008000006REP       Railroad Commissioner                                   Weston Martinez                       PRECINCT 8                                             01 
01070060009000029REP       Railroad Commissioner                                   Weston Martinez                       PRECINCT 9                                             01 
01070070001000028REP       Railroad Commissioner                                   Doug Jeffrey                          PRECINCT 1                                             01 
01070070002000042REP       Railroad Commissioner                                   Doug Jeffrey                          PRECINCT 2                                             01 
01070070003000054REP       Railroad Commissioner                                   Doug Jeffrey                          PRECINCT 3                                             01 
01070070004000019REP       Railroad Commissioner                                   Doug Jeffrey                          PRECINCT 4                                             01 
01070070005000002REP       Railroad Commissioner                                   Doug Jeffrey                          PRECINCT 5                                             01 
01070070006000032REP       Railroad Commissioner                                   Doug Jeffrey                          PRECINCT 6                                             01 
01070070007000008REP       Railroad Commissioner                                   Doug Jeffrey                          PRECINCT 7                                             01 
01070070008000007REP       Railroad Commissioner                                   Doug Jeffrey                          PRECINCT 8                                             01 
01070070009000047REP       Railroad Commissioner                                   Doug Jeffrey                          PRECINCT 9                                             01 
01070080001000000REP       Railroad Commissioner                                   OVER VOTES                            PRECINCT 1                                             01 
01070080002000000REP       Railroad Commissioner                                   OVER VOTES                            PRECINCT 2                                             01 
01070080003000000REP       Railroad Commissioner                                   OVER VOTES                            PRECINCT 3                                             01 
01070080004000000REP       Railroad Commissioner                                   OVER VOTES                            PRECINCT 4                                             01 
01070080005000000REP       Railroad Commissioner                                   OVER VOTES                            PRECINCT 5                                             01 
01070080006000000REP       Railroad Commissioner                                   OVER VOTES                            PRECINCT 6                                             01 
01070080007000000REP       Railroad Commissioner                                   OVER VOTES                            PRECINCT 7                                             01 
01070080008000000REP       Railroad Commissioner                                   OVER VOTES                            PRECINCT 8                                             01 
01070080009000000REP       Railroad Commissioner                                   OVER VOTES                            PRECINCT 9                                             01 
01070090001000095REP       Railroad Commissioner                                   UNDER VOTES                           PRECINCT 1                                             01 
01070090002000148REP       Railroad Commissioner                                   UNDER VOTES                           PRECINCT 2                                             01 
01070090003000134REP       Railroad Commissioner                                   UNDER VOTES                           PRECINCT 3                                             01 
01070090004000061REP       Railroad Commissioner                                   UNDER VOTES                           PRECINCT 4                                             01 
01070090005000035REP       Railroad Commissioner                                   UNDER VOTES                           PRECINCT 5                                             01 
01070090006000094REP       Railroad Commissioner                                   UNDER VOTES                           PRECINCT 6                                             01 
01070090007000068REP       Railroad Commissioner                                   UNDER VOTES                           PRECINCT 7                                             01 
01070090008000035REP       Railroad Commissioner                                   UNDER VOTES                           PRECINCT 8                                             01 
01070090009000195REP       Railroad Commissioner                                   UNDER VOTES                           PRECINCT 9                                             01 
01080010001000153REP       Justice, Supreme Court, Place 3                         Debra Lehrmann                        PRECINCT 1                                             01 
01080010002000222REP       Justice, Supreme Court, Place 3                         Debra Lehrmann                        PRECINCT 2                                             01 
01080010003000244REP       Justice, Supreme Court, Place 3                         Debra Lehrmann                        PRECINCT 3                                             01 
01080010004000170REP       Justice, Supreme Court, Place 3                         Debra Lehrmann                        PRECINCT 4                                             01 
01080010005000035REP       Justice, Supreme Court, Place 3                         Debra Lehrmann                        PRECINCT 5                                             01 
01080010006000148REP       Justice, Supreme Court, Place 3                         Debra Lehrmann                        PRECINCT 6                                             01 
01080010007000065REP       Justice, Supreme Court, Place 3                         Debra Lehrmann                        PRECINCT 7                                             01 
01080010008000029REP       Justice, Supreme Court, Place 3                         Debra Lehrmann                        PRECINCT 8                                             01 
01080010009000273REP       Justice, Supreme Court, Place 3                         Debra Lehrmann                        PRECINCT 9                                             01 
01080020001000115REP       Justice, Supreme Court, Place 3                         Michael Massengale                    PRECINCT 1                                             01 
01080020002000163REP       Justice, Supreme Court, Place 3                         Michael Massengale                    PRECINCT 2                                             01 
01080020003000179REP       Justice, Supreme Court, Place 3                         Michael Massengale                    PRECINCT 3                                             01 
01080020004000091REP       Justice, Supreme Court, Place 3                         Michael Massengale                    PRECINCT 4                                             01 
01080020005000033REP       Justice, Supreme Court, Place 3                         Michael Massengale                    PRECINCT 5                                             01 
01080020006000141REP       Justice, Supreme Court, Place 3                         Michael Massengale                    PRECINCT 6                                             01 
01080020007000051REP       Justice, Supreme Court, Place 3                         Michael Massengale                    PRECINCT 7                                             01 
01080020008000032REP       Justice, Supreme Court, Place 3                         Michael Massengale                    PRECINCT 8                                             01 
01080020009000184REP       Justice, Supreme Court, Place 3                         Michael Massengale                    PRECINCT 9                                             01 
01080030001000000REP       Justice, Supreme Court, Place 3                         OVER VOTES                            PRECINCT 1                                             01 
01080030002000000REP       Justice, Supreme Court, Place 3                         OVER VOTES                            PRECINCT 2                                             01 
01080030003000000REP       Justice, Supreme Court, Place 3                         OVER VOTES                            PRECINCT 3                                             01 
01080030004000000REP       Justice, Supreme Court, Place 3                         OVER VOTES                            PRECINCT 4                                             01 
01080030005000000REP       Justice, Supreme Court, Place 3                         OVER VOTES                            PRECINCT 5                                             01 
01080030006000002REP       Justice, Supreme Court, Place 3                         OVER VOTES                            PRECINCT 6                                             01 
01080030007000000REP       Justice, Supreme Court, Place 3                         OVER VOTES                            PRECINCT 7                                             01 
01080030008000000REP       Justice, Supreme Court, Place 3                         OVER VOTES                            PRECINCT 8                                             01 
01080030009000000REP       Justice, Supreme Court, Place 3                         OVER VOTES                            PRECINCT 9                                             01 
01080040001000083REP       Justice, Supreme Court, Place 3                         UNDER VOTES                           PRECINCT 1                                             01 
01080040002000141REP       Justice, Supreme Court, Place 3                         UNDER VOTES                           PRECINCT 2                                             01 
01080040003000122REP       Justice, Supreme Court, Place 3                         UNDER VOTES                           PRECINCT 3                                             01 
01080040004000065REP       Justice, Supreme Court, Place 3                         UNDER VOTES                           PRECINCT 4                                             01 
01080040005000031REP       Justice, Supreme Court, Place 3                         UNDER VOTES                           PRECINCT 5                                             01 
01080040006000078REP       Justice, Supreme Court, Place 3                         UNDER VOTES                           PRECINCT 6                                             01 
01080040007000065REP       Justice, Supreme Court, Place 3                         UNDER VOTES                           PRECINCT 7                                             01 
01080040008000029REP       Justice, Supreme Court, Place 3                         UNDER VOTES                           PRECINCT 8                                             01 
01080040009000164REP       Justice, Supreme Court, Place 3                         UNDER VOTES                           PRECINCT 9                                             01 
01090010001000139REP       Justice, Supreme Court, Place 5                         Paul Green                            PRECINCT 1                                             01 
01090010002000214REP       Justice, Supreme Court, Place 5                         Paul Green                            PRECINCT 2                                             01 
01090010003000200REP       Justice, Supreme Court, Place 5                         Paul Green                            PRECINCT 3                                             01 
01090010004000142REP       Justice, Supreme Court, Place 5                         Paul Green                            PRECINCT 4                                             01 
01090010005000028REP       Justice, Supreme Court, Place 5                         Paul Green                            PRECINCT 5                                             01 
01090010006000139REP       Justice, Supreme Court, Place 5                         Paul Green                            PRECINCT 6                                             01 
01090010007000057REP       Justice, Supreme Court, Place 5                         Paul Green                            PRECINCT 7                                             01 
01090010008000027REP       Justice, Supreme Court, Place 5                         Paul Green                            PRECINCT 8                                             01 
01090010009000250REP       Justice, Supreme Court, Place 5                         Paul Green                            PRECINCT 9                                             01 
01090020001000121REP       Justice, Supreme Court, Place 5                         Rick Green                            PRECINCT 1                                             01 
01090020002000171REP       Justice, Supreme Court, Place 5                         Rick Green                            PRECINCT 2                                             01 
01090020003000206REP       Justice, Supreme Court, Place 5                         Rick Green                            PRECINCT 3                                             01 
01090020004000118REP       Justice, Supreme Court, Place 5                         Rick Green                            PRECINCT 4                                             01 
01090020005000035REP       Justice, Supreme Court, Place 5                         Rick Green                            PRECINCT 5                                             01 
01090020006000146REP       Justice, Supreme Court, Place 5                         Rick Green                            PRECINCT 6                                             01 
01090020007000058REP       Justice, Supreme Court, Place 5                         Rick Green                            PRECINCT 7                                             01 
01090020008000037REP       Justice, Supreme Court, Place 5                         Rick Green                            PRECINCT 8                                             01 
01090020009000199REP       Justice, Supreme Court, Place 5                         Rick Green                            PRECINCT 9                                             01 
01090030001000000REP       Justice, Supreme Court, Place 5                         OVER VOTES                            PRECINCT 1                                             01 
01090030002000000REP       Justice, Supreme Court, Place 5                         OVER VOTES                            PRECINCT 2                                             01 
01090030003000000REP       Justice, Supreme Court, Place 5                         OVER VOTES                            PRECINCT 3                                             01 
01090030004000000REP       Justice, Supreme Court, Place 5                         OVER VOTES                            PRECINCT 4                                             01 
01090030005000000REP       Justice, Supreme Court, Place 5                         OVER VOTES                            PRECINCT 5                                             01 
01090030006000002REP       Justice, Supreme Court, Place 5                         OVER VOTES                            PRECINCT 6                                             01 
01090030007000000REP       Justice, Supreme Court, Place 5                         OVER VOTES                            PRECINCT 7                                             01 
01090030008000000REP       Justice, Supreme Court, Place 5                         OVER VOTES                            PRECINCT 8                                             01 
01090030009000000REP       Justice, Supreme Court, Place 5                         OVER VOTES                            PRECINCT 9                                             01 
01090040001000091REP       Justice, Supreme Court, Place 5                         UNDER VOTES                           PRECINCT 1                                             01 
01090040002000141REP       Justice, Supreme Court, Place 5                         UNDER VOTES                           PRECINCT 2                                             01 
01090040003000139REP       Justice, Supreme Court, Place 5                         UNDER VOTES                           PRECINCT 3                                             01 
01090040004000066REP       Justice, Supreme Court, Place 5                         UNDER VOTES                           PRECINCT 4                                             01 
01090040005000036REP       Justice, Supreme Court, Place 5                         UNDER VOTES                           PRECINCT 5                                             01 
01090040006000082REP       Justice, Supreme Court, Place 5                         UNDER VOTES                           PRECINCT 6                                             01 
01090040007000066REP       Justice, Supreme Court, Place 5                         UNDER VOTES                           PRECINCT 7                                             01 
01090040008000026REP       Justice, Supreme Court, Place 5                         UNDER VOTES                           PRECINCT 8                                             01 
01090040009000172REP       Justice, Supreme Court, Place 5                         UNDER VOTES                           PRECINCT 9                                             01 
01100010001000122REP       Justice, Supreme Court, Place 9                         Eva Guzman                            PRECINCT 1                                             01 
01100010002000163REP       Justice, Supreme Court, Place 9                         Eva Guzman                            PRECINCT 2                                             01 
01100010003000184REP       Justice, Supreme Court, Place 9                         Eva Guzman                            PRECINCT 3                                             01 
01100010004000152REP       Justice, Supreme Court, Place 9                         Eva Guzman                            PRECINCT 4                                             01 
01100010005000018REP       Justice, Supreme Court, Place 9                         Eva Guzman                            PRECINCT 5                                             01 
01100010006000111REP       Justice, Supreme Court, Place 9                         Eva Guzman                            PRECINCT 6                                             01 
01100010007000034REP       Justice, Supreme Court, Place 9                         Eva Guzman                            PRECINCT 7                                             01 
01100010008000032REP       Justice, Supreme Court, Place 9                         Eva Guzman                            PRECINCT 8                                             01 
01100010009000194REP       Justice, Supreme Court, Place 9                         Eva Guzman                            PRECINCT 9                                             01 
01100020001000145REP       Justice, Supreme Court, Place 9                         Joe Pool                              PRECINCT 1                                             01 
01100020002000217REP       Justice, Supreme Court, Place 9                         Joe Pool                              PRECINCT 2                                             01 
01100020003000228REP       Justice, Supreme Court, Place 9                         Joe Pool                              PRECINCT 3                                             01 
01100020004000114REP       Justice, Supreme Court, Place 9                         Joe Pool                              PRECINCT 4                                             01 
01100020005000050REP       Justice, Supreme Court, Place 9                         Joe Pool                              PRECINCT 5                                             01 
01100020006000177REP       Justice, Supreme Court, Place 9                         Joe Pool                              PRECINCT 6                                             01 
01100020007000076REP       Justice, Supreme Court, Place 9                         Joe Pool                              PRECINCT 7                                             01 
01100020008000035REP       Justice, Supreme Court, Place 9                         Joe Pool                              PRECINCT 8                                             01 
01100020009000252REP       Justice, Supreme Court, Place 9                         Joe Pool                              PRECINCT 9                                             01 
01100030001000000REP       Justice, Supreme Court, Place 9                         OVER VOTES                            PRECINCT 1                                             01 
01100030002000000REP       Justice, Supreme Court, Place 9                         OVER VOTES                            PRECINCT 2                                             01 
01100030003000000REP       Justice, Supreme Court, Place 9                         OVER VOTES                            PRECINCT 3                                             01 
01100030004000000REP       Justice, Supreme Court, Place 9                         OVER VOTES                            PRECINCT 4                                             01 
01100030005000000REP       Justice, Supreme Court, Place 9                         OVER VOTES                            PRECINCT 5                                             01 
01100030006000002REP       Justice, Supreme Court, Place 9                         OVER VOTES                            PRECINCT 6                                             01 
01100030007000000REP       Justice, Supreme Court, Place 9                         OVER VOTES                            PRECINCT 7                                             01 
01100030008000000REP       Justice, Supreme Court, Place 9                         OVER VOTES                            PRECINCT 8                                             01 
01100030009000000REP       Justice, Supreme Court, Place 9                         OVER VOTES                            PRECINCT 9                                             01 
01100040001000084REP       Justice, Supreme Court, Place 9                         UNDER VOTES                           PRECINCT 1                                             01 
01100040002000146REP       Justice, Supreme Court, Place 9                         UNDER VOTES                           PRECINCT 2                                             01 
01100040003000133REP       Justice, Supreme Court, Place 9                         UNDER VOTES                           PRECINCT 3                                             01 
01100040004000060REP       Justice, Supreme Court, Place 9                         UNDER VOTES                           PRECINCT 4                                             01 
01100040005000031REP       Justice, Supreme Court, Place 9                         UNDER VOTES                           PRECINCT 5                                             01 
01100040006000079REP       Justice, Supreme Court, Place 9                         UNDER VOTES                           PRECINCT 6                                             01 
01100040007000071REP       Justice, Supreme Court, Place 9                         UNDER VOTES                           PRECINCT 7                                             01 
01100040008000023REP       Justice, Supreme Court, Place 9                         UNDER VOTES                           PRECINCT 8                                             01 
01100040009000175REP       Justice, Supreme Court, Place 9                         UNDER VOTES                           PRECINCT 9                                             01 
01110010001000094REP       Judge, Court of Criminal Appeals, Pl 2                  Chris Oldner                          PRECINCT 1                                             01 
01110010002000130REP       Judge, Court of Criminal Appeals, Pl 2                  Chris Oldner                          PRECINCT 2                                             01 
01110010003000136REP       Judge, Court of Criminal Appeals, Pl 2                  Chris Oldner                          PRECINCT 3                                             01 
01110010004000084REP       Judge, Court of Criminal Appeals, Pl 2                  Chris Oldner                          PRECINCT 4                                             01 
01110010005000026REP       Judge, Court of Criminal Appeals, Pl 2                  Chris Oldner                          PRECINCT 5                                             01 
01110010006000102REP       Judge, Court of Criminal Appeals, Pl 2                  Chris Oldner                          PRECINCT 6                                             01 
01110010007000033REP       Judge, Court of Criminal Appeals, Pl 2                  Chris Oldner                          PRECINCT 7                                             01 
01110010008000015REP       Judge, Court of Criminal Appeals, Pl 2                  Chris Oldner                          PRECINCT 8                                             01 
01110010009000129REP       Judge, Court of Criminal Appeals, Pl 2                  Chris Oldner                          PRECINCT 9                                             01 
01110020001000097REP       Judge, Court of Criminal Appeals, Pl 2                  Mary Lou Keel                         PRECINCT 1                                             01 
01110020002000144REP       Judge, Court of Criminal Appeals, Pl 2                  Mary Lou Keel                         PRECINCT 2                                             01 
01110020003000175REP       Judge, Court of Criminal Appeals, Pl 2                  Mary Lou Keel                         PRECINCT 3                                             01 
01110020004000110REP       Judge, Court of Criminal Appeals, Pl 2                  Mary Lou Keel                         PRECINCT 4                                             01 
01110020005000018REP       Judge, Court of Criminal Appeals, Pl 2                  Mary Lou Keel                         PRECINCT 5                                             01 
01110020006000098REP       Judge, Court of Criminal Appeals, Pl 2                  Mary Lou Keel                         PRECINCT 6                                             01 
01110020007000040REP       Judge, Court of Criminal Appeals, Pl 2                  Mary Lou Keel                         PRECINCT 7                                             01 
01110020008000022REP       Judge, Court of Criminal Appeals, Pl 2                  Mary Lou Keel                         PRECINCT 8                                             01 
01110020009000188REP       Judge, Court of Criminal Appeals, Pl 2                  Mary Lou Keel                         PRECINCT 9                                             01 
01110030001000057REP       Judge, Court of Criminal Appeals, Pl 2                  Ray Wheless                           PRECINCT 1                                             01 
01110030002000089REP       Judge, Court of Criminal Appeals, Pl 2                  Ray Wheless                           PRECINCT 2                                             01 
01110030003000084REP       Judge, Court of Criminal Appeals, Pl 2                  Ray Wheless                           PRECINCT 3                                             01 
01110030004000052REP       Judge, Court of Criminal Appeals, Pl 2                  Ray Wheless                           PRECINCT 4                                             01 
01110030005000018REP       Judge, Court of Criminal Appeals, Pl 2                  Ray Wheless                           PRECINCT 5                                             01 
01110030006000068REP       Judge, Court of Criminal Appeals, Pl 2                  Ray Wheless                           PRECINCT 6                                             01 
01110030007000037REP       Judge, Court of Criminal Appeals, Pl 2                  Ray Wheless                           PRECINCT 7                                             01 
01110030008000022REP       Judge, Court of Criminal Appeals, Pl 2                  Ray Wheless                           PRECINCT 8                                             01 
01110030009000104REP       Judge, Court of Criminal Appeals, Pl 2                  Ray Wheless                           PRECINCT 9                                             01 
01110040001000000REP       Judge, Court of Criminal Appeals, Pl 2                  OVER VOTES                            PRECINCT 1                                             01 
01110040002000000REP       Judge, Court of Criminal Appeals, Pl 2                  OVER VOTES                            PRECINCT 2                                             01 
01110040003000000REP       Judge, Court of Criminal Appeals, Pl 2                  OVER VOTES                            PRECINCT 3                                             01 
01110040004000000REP       Judge, Court of Criminal Appeals, Pl 2                  OVER VOTES                            PRECINCT 4                                             01 
01110040005000000REP       Judge, Court of Criminal Appeals, Pl 2                  OVER VOTES                            PRECINCT 5                                             01 
01110040006000002REP       Judge, Court of Criminal Appeals, Pl 2                  OVER VOTES                            PRECINCT 6                                             01 
01110040007000000REP       Judge, Court of Criminal Appeals, Pl 2                  OVER VOTES                            PRECINCT 7                                             01 
01110040008000000REP       Judge, Court of Criminal Appeals, Pl 2                  OVER VOTES                            PRECINCT 8                                             01 
01110040009000000REP       Judge, Court of Criminal Appeals, Pl 2                  OVER VOTES                            PRECINCT 9                                             01 
01110050001000103REP       Judge, Court of Criminal Appeals, Pl 2                  UNDER VOTES                           PRECINCT 1                                             01 
01110050002000163REP       Judge, Court of Criminal Appeals, Pl 2                  UNDER VOTES                           PRECINCT 2                                             01 
01110050003000150REP       Judge, Court of Criminal Appeals, Pl 2                  UNDER VOTES                           PRECINCT 3                                             01 
01110050004000080REP       Judge, Court of Criminal Appeals, Pl 2                  UNDER VOTES                           PRECINCT 4                                             01 
01110050005000037REP       Judge, Court of Criminal Appeals, Pl 2                  UNDER VOTES                           PRECINCT 5                                             01 
01110050006000099REP       Judge, Court of Criminal Appeals, Pl 2                  UNDER VOTES                           PRECINCT 6                                             01 
01110050007000071REP       Judge, Court of Criminal Appeals, Pl 2                  UNDER VOTES                           PRECINCT 7                                             01 
01110050008000031REP       Judge, Court of Criminal Appeals, Pl 2                  UNDER VOTES                           PRECINCT 8                                             01 
01110050009000200REP       Judge, Court of Criminal Appeals, Pl 2                  UNDER VOTES                           PRECINCT 9                                             01 
01120010001000057REP       Judge, Court of Criminal Appeals, Pl 5                  Brent Webster                         PRECINCT 1                                             01 
01120010002000084REP       Judge, Court of Criminal Appeals, Pl 5                  Brent Webster                         PRECINCT 2                                             01 
01120010003000078REP       Judge, Court of Criminal Appeals, Pl 5                  Brent Webster                         PRECINCT 3                                             01 
01120010004000055REP       Judge, Court of Criminal Appeals, Pl 5                  Brent Webster                         PRECINCT 4                                             01 
01120010005000011REP       Judge, Court of Criminal Appeals, Pl 5                  Brent Webster                         PRECINCT 5                                             01 
01120010006000048REP       Judge, Court of Criminal Appeals, Pl 5                  Brent Webster                         PRECINCT 6                                             01 
01120010007000012REP       Judge, Court of Criminal Appeals, Pl 5                  Brent Webster                         PRECINCT 7                                             01 
01120010008000010REP       Judge, Court of Criminal Appeals, Pl 5                  Brent Webster                         PRECINCT 8                                             01 
01120010009000085REP       Judge, Court of Criminal Appeals, Pl 5                  Brent Webster                         PRECINCT 9                                             01 
01120020001000017REP       Judge, Court of Criminal Appeals, Pl 5                  Sid Harle                             PRECINCT 1                                             01 
01120020002000049REP       Judge, Court of Criminal Appeals, Pl 5                  Sid Harle                             PRECINCT 2                                             01 
01120020003000042REP       Judge, Court of Criminal Appeals, Pl 5                  Sid Harle                             PRECINCT 3                                             01 
01120020004000014REP       Judge, Court of Criminal Appeals, Pl 5                  Sid Harle                             PRECINCT 4                                             01 
01120020005000006REP       Judge, Court of Criminal Appeals, Pl 5                  Sid Harle                             PRECINCT 5                                             01 
01120020006000018REP       Judge, Court of Criminal Appeals, Pl 5                  Sid Harle                             PRECINCT 6                                             01 
01120020007000009REP       Judge, Court of Criminal Appeals, Pl 5                  Sid Harle                             PRECINCT 7                                             01 
01120020008000007REP       Judge, Court of Criminal Appeals, Pl 5                  Sid Harle                             PRECINCT 8                                             01 
01120020009000043REP       Judge, Court of Criminal Appeals, Pl 5                  Sid Harle                             PRECINCT 9                                             01 
01120030001000076REP       Judge, Court of Criminal Appeals, Pl 5                  Steve Smith                           PRECINCT 1                                             01 
01120030002000088REP       Judge, Court of Criminal Appeals, Pl 5                  Steve Smith                           PRECINCT 2                                             01 
01120030003000102REP       Judge, Court of Criminal Appeals, Pl 5                  Steve Smith                           PRECINCT 3                                             01 
01120030004000077REP       Judge, Court of Criminal Appeals, Pl 5                  Steve Smith                           PRECINCT 4                                             01 
01120030005000014REP       Judge, Court of Criminal Appeals, Pl 5                  Steve Smith                           PRECINCT 5                                             01 
01120030006000101REP       Judge, Court of Criminal Appeals, Pl 5                  Steve Smith                           PRECINCT 6                                             01 
01120030007000024REP       Judge, Court of Criminal Appeals, Pl 5                  Steve Smith                           PRECINCT 7                                             01 
01120030008000021REP       Judge, Court of Criminal Appeals, Pl 5                  Steve Smith                           PRECINCT 8                                             01 
01120030009000140REP       Judge, Court of Criminal Appeals, Pl 5                  Steve Smith                           PRECINCT 9                                             01 
01120040001000107REP       Judge, Court of Criminal Appeals, Pl 5                  Scott Walker                          PRECINCT 1                                             01 
01120040002000149REP       Judge, Court of Criminal Appeals, Pl 5                  Scott Walker                          PRECINCT 2                                             01 
01120040003000181REP       Judge, Court of Criminal Appeals, Pl 5                  Scott Walker                          PRECINCT 3                                             01 
01120040004000104REP       Judge, Court of Criminal Appeals, Pl 5                  Scott Walker                          PRECINCT 4                                             01 
01120040005000033REP       Judge, Court of Criminal Appeals, Pl 5                  Scott Walker                          PRECINCT 5                                             01 
01120040006000108REP       Judge, Court of Criminal Appeals, Pl 5                  Scott Walker                          PRECINCT 6                                             01 
01120040007000063REP       Judge, Court of Criminal Appeals, Pl 5                  Scott Walker                          PRECINCT 7                                             01 
01120040008000022REP       Judge, Court of Criminal Appeals, Pl 5                  Scott Walker                          PRECINCT 8                                             01 
01120040009000165REP       Judge, Court of Criminal Appeals, Pl 5                  Scott Walker                          PRECINCT 9                                             01 
01120050001000000REP       Judge, Court of Criminal Appeals, Pl 5                  OVER VOTES                            PRECINCT 1                                             01 
01120050002000000REP       Judge, Court of Criminal Appeals, Pl 5                  OVER VOTES                            PRECINCT 2                                             01 
01120050003000000REP       Judge, Court of Criminal Appeals, Pl 5                  OVER VOTES                            PRECINCT 3                                             01 
01120050004000000REP       Judge, Court of Criminal Appeals, Pl 5                  OVER VOTES                            PRECINCT 4                                             01 
01120050005000000REP       Judge, Court of Criminal Appeals, Pl 5                  OVER VOTES                            PRECINCT 5                                             01 
01120050006000002REP       Judge, Court of Criminal Appeals, Pl 5                  OVER VOTES                            PRECINCT 6                                             01 
01120050007000000REP       Judge, Court of Criminal Appeals, Pl 5                  OVER VOTES                            PRECINCT 7                                             01 
01120050008000000REP       Judge, Court of Criminal Appeals, Pl 5                  OVER VOTES                            PRECINCT 8                                             01 
01120050009000000REP       Judge, Court of Criminal Appeals, Pl 5                  OVER VOTES                            PRECINCT 9                                             01 
01120060001000094REP       Judge, Court of Criminal Appeals, Pl 5                  UNDER VOTES                           PRECINCT 1                                             01 
01120060002000156REP       Judge, Court of Criminal Appeals, Pl 5                  UNDER VOTES                           PRECINCT 2                                             01 
01120060003000142REP       Judge, Court of Criminal Appeals, Pl 5                  UNDER VOTES                           PRECINCT 3                                             01 
01120060004000076REP       Judge, Court of Criminal Appeals, Pl 5                  UNDER VOTES                           PRECINCT 4                                             01 
01120060005000035REP       Judge, Court of Criminal Appeals, Pl 5                  UNDER VOTES                           PRECINCT 5                                             01 
01120060006000092REP       Judge, Court of Criminal Appeals, Pl 5                  UNDER VOTES                           PRECINCT 6                                             01 
01120060007000073REP       Judge, Court of Criminal Appeals, Pl 5                  UNDER VOTES                           PRECINCT 7                                             01 
01120060008000030REP       Judge, Court of Criminal Appeals, Pl 5                  UNDER VOTES                           PRECINCT 8                                             01 
01120060009000188REP       Judge, Court of Criminal Appeals, Pl 5                  UNDER VOTES                           PRECINCT 9                                             01 
01130010001000120REP       Judge, Court of Criminal Appeals, Pl 6                  Michael E. Keasler                    PRECINCT 1                                             01 
01130010002000189REP       Judge, Court of Criminal Appeals, Pl 6                  Michael E. Keasler                    PRECINCT 2                                             01 
01130010003000189REP       Judge, Court of Criminal Appeals, Pl 6                  Michael E. Keasler                    PRECINCT 3                                             01 
01130010004000110REP       Judge, Court of Criminal Appeals, Pl 6                  Michael E. Keasler                    PRECINCT 4                                             01 
01130010005000035REP       Judge, Court of Criminal Appeals, Pl 6                  Michael E. Keasler                    PRECINCT 5                                             01 
01130010006000120REP       Judge, Court of Criminal Appeals, Pl 6                  Michael E. Keasler                    PRECINCT 6                                             01 
01130010007000055REP       Judge, Court of Criminal Appeals, Pl 6                  Michael E. Keasler                    PRECINCT 7                                             01 
01130010008000034REP       Judge, Court of Criminal Appeals, Pl 6                  Michael E. Keasler                    PRECINCT 8                                             01 
01130010009000229REP       Judge, Court of Criminal Appeals, Pl 6                  Michael E. Keasler                    PRECINCT 9                                             01 
01130020001000121REP       Judge, Court of Criminal Appeals, Pl 6                  Richard Davis                         PRECINCT 1                                             01 
01130020002000172REP       Judge, Court of Criminal Appeals, Pl 6                  Richard Davis                         PRECINCT 2                                             01 
01130020003000202REP       Judge, Court of Criminal Appeals, Pl 6                  Richard Davis                         PRECINCT 3                                             01 
01130020004000141REP       Judge, Court of Criminal Appeals, Pl 6                  Richard Davis                         PRECINCT 4                                             01 
01130020005000029REP       Judge, Court of Criminal Appeals, Pl 6                  Richard Davis                         PRECINCT 5                                             01 
01130020006000149REP       Judge, Court of Criminal Appeals, Pl 6                  Richard Davis                         PRECINCT 6                                             01 
01130020007000049REP       Judge, Court of Criminal Appeals, Pl 6                  Richard Davis                         PRECINCT 7                                             01 
01130020008000022REP       Judge, Court of Criminal Appeals, Pl 6                  Richard Davis                         PRECINCT 8                                             01 
01130020009000193REP       Judge, Court of Criminal Appeals, Pl 6                  Richard Davis                         PRECINCT 9                                             01 
01130030001000000REP       Judge, Court of Criminal Appeals, Pl 6                  OVER VOTES                            PRECINCT 1                                             01 
01130030002000000REP       Judge, Court of Criminal Appeals, Pl 6                  OVER VOTES                            PRECINCT 2                                             01 
01130030003000000REP       Judge, Court of Criminal Appeals, Pl 6                  OVER VOTES                            PRECINCT 3                                             01 
