01010010001000000          REGISTERED VOTERS - TOTAL                               REGISTERED VOTERS - TOTAL             PRECINCT 1                                             00 
01010010002000000          REGISTERED VOTERS - TOTAL                               REGISTERED VOTERS - TOTAL             PRECINCT 2                                             00 
01010010003000000          REGISTERED VOTERS - TOTAL                               REGISTERED VOTERS - TOTAL             PRECINCT 3                                             00 
01010010004000000          REGISTERED VOTERS - TOTAL                               REGISTERED VOTERS - TOTAL             PRECINCT 4                                             00 
01010010005000000          REGISTERED VOTERS - TOTAL                               REGISTERED VOTERS - TOTAL             PRECINCT 5                                             00 
01010010006000000          REGISTERED VOTERS - TOTAL                               REGISTERED VOTERS - TOTAL             PRECINCT 6                                             00 
01010010007000000          REGISTERED VOTERS - TOTAL                               REGISTERED VOTERS - TOTAL             PRECINCT 7                                             00 
01010010008000000          REGISTERED VOTERS - TOTAL                               REGISTERED VOTERS - TOTAL             PRECINCT 8                                             00 
01010010009000000          REGISTERED VOTERS - TOTAL                               REGISTERED VOTERS - TOTAL             PRECINCT 9                                             00 
01010010010000000          REGISTERED VOTERS - TOTAL                               REGISTERED VOTERS - TOTAL             PRECINCT 10                                            00 
01010010011000000          REGISTERED VOTERS - TOTAL                               REGISTERED VOTERS - TOTAL             PRECINCT 11                                            00 
01010010012000000          REGISTERED VOTERS - TOTAL                               REGISTERED VOTERS - TOTAL             PRECINCT 12                                            00 
01010010013000000          REGISTERED VOTERS - TOTAL                               REGISTERED VOTERS - TOTAL             PRECINCT 13                                            00 
01010010014000000          REGISTERED VOTERS - TOTAL                               REGISTERED VOTERS - TOTAL             PRECINCT 14                                            00 
01010010015000000          REGISTERED VOTERS - TOTAL                               REGISTERED VOTERS - TOTAL             PRECINCT 15                                            00 
01010010016000000          REGISTERED VOTERS - TOTAL                               REGISTERED VOTERS - TOTAL             PRECINCT 16                                            00 
01010010017000000          REGISTERED VOTERS - TOTAL                               REGISTERED VOTERS - TOTAL             PRECINCT 17                                            00 
01010010018000000          REGISTERED VOTERS - TOTAL                               REGISTERED VOTERS - TOTAL             PRECINCT 18                                            00 
01010010019000000          REGISTERED VOTERS - TOTAL                               REGISTERED VOTERS - TOTAL             PRECINCT 19                                            00 
01010010020000000          REGISTERED VOTERS - TOTAL                               REGISTERED VOTERS - TOTAL             PRECINCT 20                                            00 
01010010021000000          REGISTERED VOTERS - TOTAL                               REGISTERED VOTERS - TOTAL             PRECINCT 21                                            00 
01010010022000000          REGISTERED VOTERS - TOTAL                               REGISTERED VOTERS - TOTAL             PRECINCT 22                                            00 
01010010023000000          REGISTERED VOTERS - TOTAL                               REGISTERED VOTERS - TOTAL             PRECINCT 23                                            00 
01010010024000000          REGISTERED VOTERS - TOTAL                               REGISTERED VOTERS - TOTAL             PRECINCT 24                                            00 
01010010025000000          REGISTERED VOTERS - TOTAL                               REGISTERED VOTERS - TOTAL             PRECINCT 25                                            00 
01010010026000000          REGISTERED VOTERS - TOTAL                               REGISTERED VOTERS - TOTAL             PRECINCT 26                                            00 
01010010027000000          REGISTERED VOTERS - TOTAL                               REGISTERED VOTERS - TOTAL             PRECINCT 27                                            00 
01010010028000000          REGISTERED VOTERS - TOTAL                               REGISTERED VOTERS - TOTAL             PRECINCT 28                                            00 
01010010029000000          REGISTERED VOTERS - TOTAL                               REGISTERED VOTERS - TOTAL             PRECINCT 29                                            00 
01010010030000000          REGISTERED VOTERS - TOTAL                               REGISTERED VOTERS - TOTAL             PRECINCT 30                                            00 
01010010031000000          REGISTERED VOTERS - TOTAL                               REGISTERED VOTERS - TOTAL             PRECINCT 31                                            00 
01010010032000000          REGISTERED VOTERS - TOTAL                               REGISTERED VOTERS - TOTAL             PRECINCT 32                                            00 
01010010033000000          REGISTERED VOTERS - TOTAL                               REGISTERED VOTERS - TOTAL             PRECINCT 33                                            00 
01010010034000000          REGISTERED VOTERS - TOTAL                               REGISTERED VOTERS - TOTAL             PRECINCT 34                                            00 
01020010001000102          BALLOTS CAST - TOTAL                                    BALLOTS CAST - TOTAL                  PRECINCT 1                                             00 
01020010002000319          BALLOTS CAST - TOTAL                                    BALLOTS CAST - TOTAL                  PRECINCT 2                                             00 
01020010003000267          BALLOTS CAST - TOTAL                                    BALLOTS CAST - TOTAL                  PRECINCT 3                                             00 
01020010004000069          BALLOTS CAST - TOTAL                                    BALLOTS CAST - TOTAL                  PRECINCT 4                                             00 
01020010005000531          BALLOTS CAST - TOTAL                                    BALLOTS CAST - TOTAL                  PRECINCT 5                                             00 
01020010006000662          BALLOTS CAST - TOTAL                                    BALLOTS CAST - TOTAL                  PRECINCT 6                                             00 
01020010007000665          BALLOTS CAST - TOTAL                                    BALLOTS CAST - TOTAL                  PRECINCT 7                                             00 
01020010008000884          BALLOTS CAST - TOTAL                                    BALLOTS CAST - TOTAL                  PRECINCT 8                                             00 
01020010009000717          BALLOTS CAST - TOTAL                                    BALLOTS CAST - TOTAL                  PRECINCT 9                                             00 
01020010010000239          BALLOTS CAST - TOTAL                                    BALLOTS CAST - TOTAL                  PRECINCT 10                                            00 
01020010011000165          BALLOTS CAST - TOTAL                                    BALLOTS CAST - TOTAL                  PRECINCT 11                                            00 
01020010012000339          BALLOTS CAST - TOTAL                                    BALLOTS CAST - TOTAL                  PRECINCT 12                                            00 
01020010013000418          BALLOTS CAST - TOTAL                                    BALLOTS CAST - TOTAL                  PRECINCT 13                                            00 
01020010014000616          BALLOTS CAST - TOTAL                                    BALLOTS CAST - TOTAL                  PRECINCT 14                                            00 
01020010015000677          BALLOTS CAST - TOTAL                                    BALLOTS CAST - TOTAL                  PRECINCT 15                                            00 
01020010016000836          BALLOTS CAST - TOTAL                                    BALLOTS CAST - TOTAL                  PRECINCT 16                                            00 
01020010017000727          BALLOTS CAST - TOTAL                                    BALLOTS CAST - TOTAL                  PRECINCT 17                                            00 
01020010018000734          BALLOTS CAST - TOTAL                                    BALLOTS CAST - TOTAL                  PRECINCT 18                                            00 
01020010019000576          BALLOTS CAST - TOTAL                                    BALLOTS CAST - TOTAL                  PRECINCT 19                                            00 
01020010020000416          BALLOTS CAST - TOTAL                                    BALLOTS CAST - TOTAL                  PRECINCT 20                                            00 
01020010021000109          BALLOTS CAST - TOTAL                                    BALLOTS CAST - TOTAL                  PRECINCT 21                                            00 
01020010022000411          BALLOTS CAST - TOTAL                                    BALLOTS CAST - TOTAL                  PRECINCT 22                                            00 
01020010023000864          BALLOTS CAST - TOTAL                                    BALLOTS CAST - TOTAL                  PRECINCT 23                                            00 
01020010024000495          BALLOTS CAST - TOTAL                                    BALLOTS CAST - TOTAL                  PRECINCT 24                                            00 
01020010025000520          BALLOTS CAST - TOTAL                                    BALLOTS CAST - TOTAL                  PRECINCT 25                                            00 
01020010026000757          BALLOTS CAST - TOTAL                                    BALLOTS CAST - TOTAL                  PRECINCT 26                                            00 
01020010027000825          BALLOTS CAST - TOTAL                                    BALLOTS CAST - TOTAL                  PRECINCT 27                                            00 
01020010028001052          BALLOTS CAST - TOTAL                                    BALLOTS CAST - TOTAL                  PRECINCT 28                                            00 
01020010029000344          BALLOTS CAST - TOTAL                                    BALLOTS CAST - TOTAL                  PRECINCT 29                                            00 
01020010030000339          BALLOTS CAST - TOTAL                                    BALLOTS CAST - TOTAL                  PRECINCT 30                                            00 
01020010031000834          BALLOTS CAST - TOTAL                                    BALLOTS CAST - TOTAL                  PRECINCT 31                                            00 
01020010032000691          BALLOTS CAST - TOTAL                                    BALLOTS CAST - TOTAL                  PRECINCT 32                                            00 
01020010033000551          BALLOTS CAST - TOTAL                                    BALLOTS CAST - TOTAL                  PRECINCT 33                                            00 
01020010034000583          BALLOTS CAST - TOTAL                                    BALLOTS CAST - TOTAL                  PRECINCT 34                                            00 
01030010001000082REP       BALLOTS CAST - REPUBLICAN PARTY                         BALLOTS CAST - REPUBLICAN PARTY       PRECINCT 1                                             00 
01030010002000140REP       BALLOTS CAST - REPUBLICAN PARTY                         BALLOTS CAST - REPUBLICAN PARTY       PRECINCT 2                                             00 
01030010003000055REP       BALLOTS CAST - REPUBLICAN PARTY                         BALLOTS CAST - REPUBLICAN PARTY       PRECINCT 3                                             00 
01030010004000004REP       BALLOTS CAST - REPUBLICAN PARTY                         BALLOTS CAST - REPUBLICAN PARTY       PRECINCT 4                                             00 
01030010005000337REP       BALLOTS CAST - REPUBLICAN PARTY                         BALLOTS CAST - REPUBLICAN PARTY       PRECINCT 5                                             00 
01030010006000583REP       BALLOTS CAST - REPUBLICAN PARTY                         BALLOTS CAST - REPUBLICAN PARTY       PRECINCT 6                                             00 
01030010007000538REP       BALLOTS CAST - REPUBLICAN PARTY                         BALLOTS CAST - REPUBLICAN PARTY       PRECINCT 7                                             00 
01030010008000797REP       BALLOTS CAST - REPUBLICAN PARTY                         BALLOTS CAST - REPUBLICAN PARTY       PRECINCT 8                                             00 
01030010009000631REP       BALLOTS CAST - REPUBLICAN PARTY                         BALLOTS CAST - REPUBLICAN PARTY       PRECINCT 9                                             00 
01030010010000208REP       BALLOTS CAST - REPUBLICAN PARTY                         BALLOTS CAST - REPUBLICAN PARTY       PRECINCT 10                                            00 
01030010011000115REP       BALLOTS CAST - REPUBLICAN PARTY                         BALLOTS CAST - REPUBLICAN PARTY       PRECINCT 11                                            00 
01030010012000258REP       BALLOTS CAST - REPUBLICAN PARTY                         BALLOTS CAST - REPUBLICAN PARTY       PRECINCT 12                                            00 
01030010013000297REP       BALLOTS CAST - REPUBLICAN PARTY                         BALLOTS CAST - REPUBLICAN PARTY       PRECINCT 13                                            00 
01030010014000437REP       BALLOTS CAST - REPUBLICAN PARTY                         BALLOTS CAST - REPUBLICAN PARTY       PRECINCT 14                                            00 
01030010015000589REP       BALLOTS CAST - REPUBLICAN PARTY                         BALLOTS CAST - REPUBLICAN PARTY       PRECINCT 15                                            00 
01030010016000773REP       BALLOTS CAST - REPUBLICAN PARTY                         BALLOTS CAST - REPUBLICAN PARTY       PRECINCT 16                                            00 
01030010017000670REP       BALLOTS CAST - REPUBLICAN PARTY                         BALLOTS CAST - REPUBLICAN PARTY       PRECINCT 17                                            00 
01030010018000653REP       BALLOTS CAST - REPUBLICAN PARTY                         BALLOTS CAST - REPUBLICAN PARTY       PRECINCT 18                                            00 
01030010019000504REP       BALLOTS CAST - REPUBLICAN PARTY                         BALLOTS CAST - REPUBLICAN PARTY       PRECINCT 19                                            00 
01030010020000361REP       BALLOTS CAST - REPUBLICAN PARTY                         BALLOTS CAST - REPUBLICAN PARTY       PRECINCT 20                                            00 
01030010021000093REP       BALLOTS CAST - REPUBLICAN PARTY                         BALLOTS CAST - REPUBLICAN PARTY       PRECINCT 21                                            00 
01030010022000361REP       BALLOTS CAST - REPUBLICAN PARTY                         BALLOTS CAST - REPUBLICAN PARTY       PRECINCT 22                                            00 
01030010023000780REP       BALLOTS CAST - REPUBLICAN PARTY                         BALLOTS CAST - REPUBLICAN PARTY       PRECINCT 23                                            00 
01030010024000446REP       BALLOTS CAST - REPUBLICAN PARTY                         BALLOTS CAST - REPUBLICAN PARTY       PRECINCT 24                                            00 
01030010025000449REP       BALLOTS CAST - REPUBLICAN PARTY                         BALLOTS CAST - REPUBLICAN PARTY       PRECINCT 25                                            00 
01030010026000680REP       BALLOTS CAST - REPUBLICAN PARTY                         BALLOTS CAST - REPUBLICAN PARTY       PRECINCT 26                                            00 
01030010027000751REP       BALLOTS CAST - REPUBLICAN PARTY                         BALLOTS CAST - REPUBLICAN PARTY       PRECINCT 27                                            00 
01030010028000945REP       BALLOTS CAST - REPUBLICAN PARTY                         BALLOTS CAST - REPUBLICAN PARTY       PRECINCT 28                                            00 
01030010029000310REP       BALLOTS CAST - REPUBLICAN PARTY                         BALLOTS CAST - REPUBLICAN PARTY       PRECINCT 29                                            00 
01030010030000308REP       BALLOTS CAST - REPUBLICAN PARTY                         BALLOTS CAST - REPUBLICAN PARTY       PRECINCT 30                                            00 
01030010031000738REP       BALLOTS CAST - REPUBLICAN PARTY                         BALLOTS CAST - REPUBLICAN PARTY       PRECINCT 31                                            00 
01030010032000624REP       BALLOTS CAST - REPUBLICAN PARTY                         BALLOTS CAST - REPUBLICAN PARTY       PRECINCT 32                                            00 
01030010033000495REP       BALLOTS CAST - REPUBLICAN PARTY                         BALLOTS CAST - REPUBLICAN PARTY       PRECINCT 33                                            00 
01030010034000539REP       BALLOTS CAST - REPUBLICAN PARTY                         BALLOTS CAST - REPUBLICAN PARTY       PRECINCT 34                                            00 
01040010001000020DEM       BALLOTS CAST - DEMOCRATIC PARTY                         BALLOTS CAST - DEMOCRATIC PARTY       PRECINCT 1                                             00 
01040010002000179DEM       BALLOTS CAST - DEMOCRATIC PARTY                         BALLOTS CAST - DEMOCRATIC PARTY       PRECINCT 2                                             00 
01040010003000212DEM       BALLOTS CAST - DEMOCRATIC PARTY                         BALLOTS CAST - DEMOCRATIC PARTY       PRECINCT 3                                             00 
01040010004000065DEM       BALLOTS CAST - DEMOCRATIC PARTY                         BALLOTS CAST - DEMOCRATIC PARTY       PRECINCT 4                                             00 
01040010005000194DEM       BALLOTS CAST - DEMOCRATIC PARTY                         BALLOTS CAST - DEMOCRATIC PARTY       PRECINCT 5                                             00 
01040010006000079DEM       BALLOTS CAST - DEMOCRATIC PARTY                         BALLOTS CAST - DEMOCRATIC PARTY       PRECINCT 6                                             00 
01040010007000127DEM       BALLOTS CAST - DEMOCRATIC PARTY                         BALLOTS CAST - DEMOCRATIC PARTY       PRECINCT 7                                             00 
01040010008000087DEM       BALLOTS CAST - DEMOCRATIC PARTY                         BALLOTS CAST - DEMOCRATIC PARTY       PRECINCT 8                                             00 
01040010009000086DEM       BALLOTS CAST - DEMOCRATIC PARTY                         BALLOTS CAST - DEMOCRATIC PARTY       PRECINCT 9                                             00 
01040010010000031DEM       BALLOTS CAST - DEMOCRATIC PARTY                         BALLOTS CAST - DEMOCRATIC PARTY       PRECINCT 10                                            00 
01040010011000050DEM       BALLOTS CAST - DEMOCRATIC PARTY                         BALLOTS CAST - DEMOCRATIC PARTY       PRECINCT 11                                            00 
01040010012000081DEM       BALLOTS CAST - DEMOCRATIC PARTY                         BALLOTS CAST - DEMOCRATIC PARTY       PRECINCT 12                                            00 
01040010013000121DEM       BALLOTS CAST - DEMOCRATIC PARTY                         BALLOTS CAST - DEMOCRATIC PARTY       PRECINCT 13                                            00 
01040010014000179DEM       BALLOTS CAST - DEMOCRATIC PARTY                         BALLOTS CAST - DEMOCRATIC PARTY       PRECINCT 14                                            00 
01040010015000088DEM       BALLOTS CAST - DEMOCRATIC PARTY                         BALLOTS CAST - DEMOCRATIC PARTY       PRECINCT 15                                            00 
01040010016000063DEM       BALLOTS CAST - DEMOCRATIC PARTY                         BALLOTS CAST - DEMOCRATIC PARTY       PRECINCT 16                                            00 
01040010017000057DEM       BALLOTS CAST - DEMOCRATIC PARTY                         BALLOTS CAST - DEMOCRATIC PARTY       PRECINCT 17                                            00 
01040010018000081DEM       BALLOTS CAST - DEMOCRATIC PARTY                         BALLOTS CAST - DEMOCRATIC PARTY       PRECINCT 18                                            00 
01040010019000072DEM       BALLOTS CAST - DEMOCRATIC PARTY                         BALLOTS CAST - DEMOCRATIC PARTY       PRECINCT 19                                            00 
01040010020000055DEM       BALLOTS CAST - DEMOCRATIC PARTY                         BALLOTS CAST - DEMOCRATIC PARTY       PRECINCT 20                                            00 
01040010021000016DEM       BALLOTS CAST - DEMOCRATIC PARTY                         BALLOTS CAST - DEMOCRATIC PARTY       PRECINCT 21                                            00 
01040010022000050DEM       BALLOTS CAST - DEMOCRATIC PARTY                         BALLOTS CAST - DEMOCRATIC PARTY       PRECINCT 22                                            00 
01040010023000084DEM       BALLOTS CAST - DEMOCRATIC PARTY                         BALLOTS CAST - DEMOCRATIC PARTY       PRECINCT 23                                            00 
01040010024000049DEM       BALLOTS CAST - DEMOCRATIC PARTY                         BALLOTS CAST - DEMOCRATIC PARTY       PRECINCT 24                                            00 
01040010025000071DEM       BALLOTS CAST - DEMOCRATIC PARTY                         BALLOTS CAST - DEMOCRATIC PARTY       PRECINCT 25                                            00 
01040010026000077DEM       BALLOTS CAST - DEMOCRATIC PARTY                         BALLOTS CAST - DEMOCRATIC PARTY       PRECINCT 26                                            00 
01040010027000074DEM       BALLOTS CAST - DEMOCRATIC PARTY                         BALLOTS CAST - DEMOCRATIC PARTY       PRECINCT 27                                            00 
01040010028000107DEM       BALLOTS CAST - DEMOCRATIC PARTY                         BALLOTS CAST - DEMOCRATIC PARTY       PRECINCT 28                                            00 
01040010029000034DEM       BALLOTS CAST - DEMOCRATIC PARTY                         BALLOTS CAST - DEMOCRATIC PARTY       PRECINCT 29                                            00 
01040010030000031DEM       BALLOTS CAST - DEMOCRATIC PARTY                         BALLOTS CAST - DEMOCRATIC PARTY       PRECINCT 30                                            00 
01040010031000096DEM       BALLOTS CAST - DEMOCRATIC PARTY                         BALLOTS CAST - DEMOCRATIC PARTY       PRECINCT 31                                            00 
01040010032000067DEM       BALLOTS CAST - DEMOCRATIC PARTY                         BALLOTS CAST - DEMOCRATIC PARTY       PRECINCT 32                                            00 
01040010033000056DEM       BALLOTS CAST - DEMOCRATIC PARTY                         BALLOTS CAST - DEMOCRATIC PARTY       PRECINCT 33                                            00 
01040010034000044DEM       BALLOTS CAST - DEMOCRATIC PARTY                         BALLOTS CAST - DEMOCRATIC PARTY       PRECINCT 34                                            00 
01050010001000000REP       President                                               Mike Huckabee                         PRECINCT 1                                             01 
01050010002000001REP       President                                               Mike Huckabee                         PRECINCT 2                                             01 
01050010003000002REP       President                                               Mike Huckabee                         PRECINCT 3                                             01 
01050010004000000REP       President                                               Mike Huckabee                         PRECINCT 4                                             01 
01050010005000000REP       President                                               Mike Huckabee                         PRECINCT 5                                             01 
01050010006000003REP       President                                               Mike Huckabee                         PRECINCT 6                                             01 
01050010007000002REP       President                                               Mike Huckabee                         PRECINCT 7                                             01 
01050010008000000REP       President                                               Mike Huckabee                         PRECINCT 8                                             01 
01050010009000002REP       President                                               Mike Huckabee                         PRECINCT 9                                             01 
01050010010000000REP       President                                               Mike Huckabee                         PRECINCT 10                                            01 
01050010011000001REP       President                                               Mike Huckabee                         PRECINCT 11                                            01 
01050010012000000REP       President                                               Mike Huckabee                         PRECINCT 12                                            01 
01050010013000001REP       President                                               Mike Huckabee                         PRECINCT 13                                            01 
01050010014000004REP       President                                               Mike Huckabee                         PRECINCT 14                                            01 
01050010015000001REP       President                                               Mike Huckabee                         PRECINCT 15                                            01 
01050010016000000REP       President                                               Mike Huckabee                         PRECINCT 16                                            01 
01050010017000001REP       President                                               Mike Huckabee                         PRECINCT 17                                            01 
01050010018000002REP       President                                               Mike Huckabee                         PRECINCT 18                                            01 
01050010019000003REP       President                                               Mike Huckabee                         PRECINCT 19                                            01 
01050010020000000REP       President                                               Mike Huckabee                         PRECINCT 20                                            01 
01050010021000000REP       President                                               Mike Huckabee                         PRECINCT 21                                            01 
01050010022000000REP       President                                               Mike Huckabee                         PRECINCT 22                                            01 
01050010023000002REP       President                                               Mike Huckabee                         PRECINCT 23                                            01 
01050010024000000REP       President                                               Mike Huckabee                         PRECINCT 24                                            01 
01050010025000001REP       President                                               Mike Huckabee                         PRECINCT 25                                            01 
01050010026000004REP       President                                               Mike Huckabee                         PRECINCT 26                                            01 
01050010027000002REP       President                                               Mike Huckabee                         PRECINCT 27                                            01 
01050010028000003REP       President                                               Mike Huckabee                         PRECINCT 28                                            01 
01050010029000001REP       President                                               Mike Huckabee                         PRECINCT 29                                            01 
01050010030000000REP       President                                               Mike Huckabee                         PRECINCT 30                                            01 
01050010031000005REP       President                                               Mike Huckabee                         PRECINCT 31                                            01 
01050010032000002REP       President                                               Mike Huckabee                         PRECINCT 32                                            01 
01050010033000002REP       President                                               Mike Huckabee                         PRECINCT 33                                            01 
01050010034000001REP       President                                               Mike Huckabee                         PRECINCT 34                                            01 
01050020001000007REP       President                                               Marco Rubio                           PRECINCT 1                                             01 
01050020002000007REP       President                                               Marco Rubio                           PRECINCT 2                                             01 
01050020003000004REP       President                                               Marco Rubio                           PRECINCT 3                                             01 
01050020004000000REP       President                                               Marco Rubio                           PRECINCT 4                                             01 
01050020005000052REP       President                                               Marco Rubio                           PRECINCT 5                                             01 
01050020006000071REP       President                                               Marco Rubio                           PRECINCT 6                                             01 
01050020007000093REP       President                                               Marco Rubio                           PRECINCT 7                                             01 
01050020008000124REP       President                                               Marco Rubio                           PRECINCT 8                                             01 
01050020009000063REP       President                                               Marco Rubio                           PRECINCT 9                                             01 
01050020010000022REP       President                                               Marco Rubio                           PRECINCT 10                                            01 
01050020011000012REP       President                                               Marco Rubio                           PRECINCT 11                                            01 
01050020012000021REP       President                                               Marco Rubio                           PRECINCT 12                                            01 
01050020013000029REP       President                                               Marco Rubio                           PRECINCT 13                                            01 
01050020014000037REP       President                                               Marco Rubio                           PRECINCT 14                                            01 
01050020015000052REP       President                                               Marco Rubio                           PRECINCT 15                                            01 
01050020016000051REP       President                                               Marco Rubio                           PRECINCT 16                                            01 
01050020017000039REP       President                                               Marco Rubio                           PRECINCT 17                                            01 
01050020018000047REP       President                                               Marco Rubio                           PRECINCT 18                                            01 
01050020019000034REP       President                                               Marco Rubio                           PRECINCT 19                                            01 
01050020020000023REP       President                                               Marco Rubio                           PRECINCT 20                                            01 
01050020021000002REP       President                                               Marco Rubio                           PRECINCT 21                                            01 
01050020022000035REP       President                                               Marco Rubio                           PRECINCT 22                                            01 
01050020023000080REP       President                                               Marco Rubio                           PRECINCT 23                                            01 
01050020024000045REP       President                                               Marco Rubio                           PRECINCT 24                                            01 
01050020025000036REP       President                                               Marco Rubio                           PRECINCT 25                                            01 
01050020026000060REP       President                                               Marco Rubio                           PRECINCT 26                                            01 
01050020027000056REP       President                                               Marco Rubio                           PRECINCT 27                                            01 
01050020028000087REP       President                                               Marco Rubio                           PRECINCT 28                                            01 
01050020029000010REP       President                                               Marco Rubio                           PRECINCT 29                                            01 
01050020030000029REP       President                                               Marco Rubio                           PRECINCT 30                                            01 
01050020031000048REP       President                                               Marco Rubio                           PRECINCT 31                                            01 
01050020032000057REP       President                                               Marco Rubio                           PRECINCT 32                                            01 
01050020033000038REP       President                                               Marco Rubio                           PRECINCT 33                                            01 
01050020034000037REP       President                                               Marco Rubio                           PRECINCT 34                                            01 
01050030001000000REP       President                                               Chris Christie                        PRECINCT 1                                             01 
01050030002000001REP       President                                               Chris Christie                        PRECINCT 2                                             01 
01050030003000000REP       President                                               Chris Christie                        PRECINCT 3                                             01 
01050030004000001REP       President                                               Chris Christie                        PRECINCT 4                                             01 
01050030005000000REP       President                                               Chris Christie                        PRECINCT 5                                             01 
01050030006000000REP       President                                               Chris Christie                        PRECINCT 6                                             01 
01050030007000001REP       President                                               Chris Christie                        PRECINCT 7                                             01 
01050030008000001REP       President                                               Chris Christie                        PRECINCT 8                                             01 
01050030009000000REP       President                                               Chris Christie                        PRECINCT 9                                             01 
01050030010000000REP       President                                               Chris Christie                        PRECINCT 10                                            01 
01050030011000000REP       President                                               Chris Christie                        PRECINCT 11                                            01 
01050030012000001REP       President                                               Chris Christie                        PRECINCT 12                                            01 
01050030013000000REP       President                                               Chris Christie                        PRECINCT 13                                            01 
01050030014000001REP       President                                               Chris Christie                        PRECINCT 14                                            01 
01050030015000001REP       President                                               Chris Christie                        PRECINCT 15                                            01 
01050030016000001REP       President                                               Chris Christie                        PRECINCT 16                                            01 
01050030017000000REP       President                                               Chris Christie                        PRECINCT 17                                            01 
01050030018000000REP       President                                               Chris Christie                        PRECINCT 18                                            01 
01050030019000000REP       President                                               Chris Christie                        PRECINCT 19                                            01 
01050030020000000REP       President                                               Chris Christie                        PRECINCT 20                                            01 
01050030021000000REP       President                                               Chris Christie                        PRECINCT 21                                            01 
01050030022000000REP       President                                               Chris Christie                        PRECINCT 22                                            01 
01050030023000002REP       President                                               Chris Christie                        PRECINCT 23                                            01 
01050030024000000REP       President                                               Chris Christie                        PRECINCT 24                                            01 
01050030025000001REP       President                                               Chris Christie                        PRECINCT 25                                            01 
01050030026000002REP       President                                               Chris Christie                        PRECINCT 26                                            01 
01050030027000000REP       President                                               Chris Christie                        PRECINCT 27                                            01 
01050030028000000REP       President                                               Chris Christie                        PRECINCT 28                                            01 
01050030029000001REP       President                                               Chris Christie                        PRECINCT 29                                            01 
01050030030000001REP       President                                               Chris Christie                        PRECINCT 30                                            01 
01050030031000002REP       President                                               Chris Christie                        PRECINCT 31                                            01 
01050030032000001REP       President                                               Chris Christie                        PRECINCT 32                                            01 
01050030033000000REP       President                                               Chris Christie                        PRECINCT 33                                            01 
01050030034000000REP       President                                               Chris Christie                        PRECINCT 34                                            01 
01050040001000002REP       President                                               John R. Kasich                        PRECINCT 1                                             01 
01050040002000010REP       President                                               John R. Kasich                        PRECINCT 2                                             01 
01050040003000001REP       President                                               John R. Kasich                        PRECINCT 3                                             01 
01050040004000000REP       President                                               John R. Kasich                        PRECINCT 4                                             01 
01050040005000015REP       President                                               John R. Kasich                        PRECINCT 5                                             01 
01050040006000010REP       President                                               John R. Kasich                        PRECINCT 6                                             01 
01050040007000019REP       President                                               John R. Kasich                        PRECINCT 7                                             01 
01050040008000024REP       President                                               John R. Kasich                        PRECINCT 8                                             01 
01050040009000006REP       President                                               John R. Kasich                        PRECINCT 9                                             01 
01050040010000002REP       President                                               John R. Kasich                        PRECINCT 10                                            01 
01050040011000000REP       President                                               John R. Kasich                        PRECINCT 11                                            01 
01050040012000011REP       President                                               John R. Kasich                        PRECINCT 12                                            01 
01050040013000003REP       President                                               John R. Kasich                        PRECINCT 13                                            01 
01050040014000022REP       President                                               John R. Kasich                        PRECINCT 14                                            01 
01050040015000009REP       President                                               John R. Kasich                        PRECINCT 15                                            01 
01050040016000011REP       President                                               John R. Kasich                        PRECINCT 16                                            01 
01050040017000008REP       President                                               John R. Kasich                        PRECINCT 17                                            01 
01050040018000012REP       President                                               John R. Kasich                        PRECINCT 18                                            01 
01050040019000009REP       President                                               John R. Kasich                        PRECINCT 19                                            01 
01050040020000005REP       President                                               John R. Kasich                        PRECINCT 20                                            01 
01050040021000004REP       President                                               John R. Kasich                        PRECINCT 21                                            01 
01050040022000004REP       President                                               John R. Kasich                        PRECINCT 22                                            01 
01050040023000011REP       President                                               John R. Kasich                        PRECINCT 23                                            01 
01050040024000006REP       President                                               John R. Kasich                        PRECINCT 24                                            01 
01050040025000008REP       President                                               John R. Kasich                        PRECINCT 25                                            01 
01050040026000018REP       President                                               John R. Kasich                        PRECINCT 26                                            01 
01050040027000017REP       President                                               John R. Kasich                        PRECINCT 27                                            01 
01050040028000020REP       President                                               John R. Kasich                        PRECINCT 28                                            01 
01050040029000003REP       President                                               John R. Kasich                        PRECINCT 29                                            01 
01050040030000007REP       President                                               John R. Kasich                        PRECINCT 30                                            01 
01050040031000020REP       President                                               John R. Kasich                        PRECINCT 31                                            01 
01050040032000010REP       President                                               John R. Kasich                        PRECINCT 32                                            01 
01050040033000008REP       President                                               John R. Kasich                        PRECINCT 33                                            01 
01050040034000006REP       President                                               John R. Kasich                        PRECINCT 34                                            01 
01050050001000033REP       President                                               Donald J. Trump                       PRECINCT 1                                             01 
01050050002000045REP       President                                               Donald J. Trump                       PRECINCT 2                                             01 
01050050003000023REP       President                                               Donald J. Trump                       PRECINCT 3                                             01 
01050050004000001REP       President                                               Donald J. Trump                       PRECINCT 4                                             01 
01050050005000115REP       President                                               Donald J. Trump                       PRECINCT 5                                             01 
01050050006000185REP       President                                               Donald J. Trump                       PRECINCT 6                                             01 
01050050007000144REP       President                                               Donald J. Trump                       PRECINCT 7                                             01 
01050050008000234REP       President                                               Donald J. Trump                       PRECINCT 8                                             01 
01050050009000178REP       President                                               Donald J. Trump                       PRECINCT 9                                             01 
01050050010000071REP       President                                               Donald J. Trump                       PRECINCT 10                                            01 
01050050011000048REP       President                                               Donald J. Trump                       PRECINCT 11                                            01 
01050050012000082REP       President                                               Donald J. Trump                       PRECINCT 12                                            01 
01050050013000087REP       President                                               Donald J. Trump                       PRECINCT 13                                            01 
01050050014000145REP       President                                               Donald J. Trump                       PRECINCT 14                                            01 
01050050015000178REP       President                                               Donald J. Trump                       PRECINCT 15                                            01 
01050050016000255REP       President                                               Donald J. Trump                       PRECINCT 16                                            01 
01050050017000268REP       President                                               Donald J. Trump                       PRECINCT 17                                            01 
01050050018000236REP       President                                               Donald J. Trump                       PRECINCT 18                                            01 
01050050019000177REP       President                                               Donald J. Trump                       PRECINCT 19                                            01 
01050050020000130REP       President                                               Donald J. Trump                       PRECINCT 20                                            01 
01050050021000041REP       President                                               Donald J. Trump                       PRECINCT 21                                            01 
01050050022000132REP       President                                               Donald J. Trump                       PRECINCT 22                                            01 
01050050023000227REP       President                                               Donald J. Trump                       PRECINCT 23                                            01 
01050050024000170REP       President                                               Donald J. Trump                       PRECINCT 24                                            01 
01050050025000166REP       President                                               Donald J. Trump                       PRECINCT 25                                            01 
01050050026000224REP       President                                               Donald J. Trump                       PRECINCT 26                                            01 
01050050027000248REP       President                                               Donald J. Trump                       PRECINCT 27                                            01 
01050050028000291REP       President                                               Donald J. Trump                       PRECINCT 28                                            01 
01050050029000109REP       President                                               Donald J. Trump                       PRECINCT 29                                            01 
01050050030000091REP       President                                               Donald J. Trump                       PRECINCT 30                                            01 
01050050031000211REP       President                                               Donald J. Trump                       PRECINCT 31                                            01 
01050050032000201REP       President                                               Donald J. Trump                       PRECINCT 32                                            01 
01050050033000170REP       President                                               Donald J. Trump                       PRECINCT 33                                            01 
01050050034000221REP       President                                               Donald J. Trump                       PRECINCT 34                                            01 
01050060001000000REP       President                                               Rand Paul                             PRECINCT 1                                             01 
01050060002000001REP       President                                               Rand Paul                             PRECINCT 2                                             01 
01050060003000000REP       President                                               Rand Paul                             PRECINCT 3                                             01 
01050060004000000REP       President                                               Rand Paul                             PRECINCT 4                                             01 
01050060005000000REP       President                                               Rand Paul                             PRECINCT 5                                             01 
01050060006000000REP       President                                               Rand Paul                             PRECINCT 6                                             01 
01050060007000000REP       President                                               Rand Paul                             PRECINCT 7                                             01 
01050060008000002REP       President                                               Rand Paul                             PRECINCT 8                                             01 
01050060009000001REP       President                                               Rand Paul                             PRECINCT 9                                             01 
01050060010000000REP       President                                               Rand Paul                             PRECINCT 10                                            01 
01050060011000000REP       President                                               Rand Paul                             PRECINCT 11                                            01 
01050060012000001REP       President                                               Rand Paul                             PRECINCT 12                                            01 
01050060013000000REP       President                                               Rand Paul                             PRECINCT 13                                            01 
01050060014000000REP       President                                               Rand Paul                             PRECINCT 14                                            01 
01050060015000001REP       President                                               Rand Paul                             PRECINCT 15                                            01 
01050060016000002REP       President                                               Rand Paul                             PRECINCT 16                                            01 
01050060017000001REP       President                                               Rand Paul                             PRECINCT 17                                            01 
01050060018000003REP       President                                               Rand Paul                             PRECINCT 18                                            01 
01050060019000002REP       President                                               Rand Paul                             PRECINCT 19                                            01 
01050060020000000REP       President                                               Rand Paul                             PRECINCT 20                                            01 
01050060021000000REP       President                                               Rand Paul                             PRECINCT 21                                            01 
01050060022000000REP       President                                               Rand Paul                             PRECINCT 22                                            01 
01050060023000004REP       President                                               Rand Paul                             PRECINCT 23                                            01 
01050060024000001REP       President                                               Rand Paul                             PRECINCT 24                                            01 
01050060025000002REP       President                                               Rand Paul                             PRECINCT 25                                            01 
01050060026000002REP       President                                               Rand Paul                             PRECINCT 26                                            01 
01050060027000002REP       President                                               Rand Paul                             PRECINCT 27                                            01 
01050060028000008REP       President                                               Rand Paul                             PRECINCT 28                                            01 
01050060029000000REP       President                                               Rand Paul                             PRECINCT 29                                            01 
01050060030000001REP       President                                               Rand Paul                             PRECINCT 30                                            01 
01050060031000001REP       President                                               Rand Paul                             PRECINCT 31                                            01 
01050060032000002REP       President                                               Rand Paul                             PRECINCT 32                                            01 
01050060033000005REP       President                                               Rand Paul                             PRECINCT 33                                            01 
01050060034000003REP       President                                               Rand Paul                             PRECINCT 34                                            01 
01050070001000000REP       President                                               Elizabeth Gray                        PRECINCT 1                                             01 
01050070002000000REP       President                                               Elizabeth Gray                        PRECINCT 2                                             01 
01050070003000000REP       President                                               Elizabeth Gray                        PRECINCT 3                                             01 
01050070004000000REP       President                                               Elizabeth Gray                        PRECINCT 4                                             01 
01050070005000000REP       President                                               Elizabeth Gray                        PRECINCT 5                                             01 
01050070006000000REP       President                                               Elizabeth Gray                        PRECINCT 6                                             01 
01050070007000000REP       President                                               Elizabeth Gray                        PRECINCT 7                                             01 
01050070008000000REP       President                                               Elizabeth Gray                        PRECINCT 8                                             01 
01050070009000000REP       President                                               Elizabeth Gray                        PRECINCT 9                                             01 
01050070010000000REP       President                                               Elizabeth Gray                        PRECINCT 10                                            01 
01050070011000000REP       President                                               Elizabeth Gray                        PRECINCT 11                                            01 
01050070012000000REP       President                                               Elizabeth Gray                        PRECINCT 12                                            01 
01050070013000000REP       President                                               Elizabeth Gray                        PRECINCT 13                                            01 
01050070014000000REP       President                                               Elizabeth Gray                        PRECINCT 14                                            01 
01050070015000001REP       President                                               Elizabeth Gray                        PRECINCT 15                                            01 
01050070016000000REP       President                                               Elizabeth Gray                        PRECINCT 16                                            01 
01050070017000002REP       President                                               Elizabeth Gray                        PRECINCT 17                                            01 
01050070018000000REP       President                                               Elizabeth Gray                        PRECINCT 18                                            01 
01050070019000001REP       President                                               Elizabeth Gray                        PRECINCT 19                                            01 
01050070020000000REP       President                                               Elizabeth Gray                        PRECINCT 20                                            01 
01050070021000000REP       President                                               Elizabeth Gray                        PRECINCT 21                                            01 
01050070022000000REP       President                                               Elizabeth Gray                        PRECINCT 22                                            01 
01050070023000000REP       President                                               Elizabeth Gray                        PRECINCT 23                                            01 
01050070024000002REP       President                                               Elizabeth Gray                        PRECINCT 24                                            01 
01050070025000000REP       President                                               Elizabeth Gray                        PRECINCT 25                                            01 
01050070026000000REP       President                                               Elizabeth Gray                        PRECINCT 26                                            01 
01050070027000001REP       President                                               Elizabeth Gray                        PRECINCT 27                                            01 
01050070028000000REP       President                                               Elizabeth Gray                        PRECINCT 28                                            01 
01050070029000000REP       President                                               Elizabeth Gray                        PRECINCT 29                                            01 
01050070030000000REP       President                                               Elizabeth Gray                        PRECINCT 30                                            01 
01050070031000000REP       President                                               Elizabeth Gray                        PRECINCT 31                                            01 
01050070032000000REP       President                                               Elizabeth Gray                        PRECINCT 32                                            01 
01050070033000001REP       President                                               Elizabeth Gray                        PRECINCT 33                                            01 
01050070034000000REP       President                                               Elizabeth Gray                        PRECINCT 34                                            01 
01050080001000000REP       President                                               Jeb Bush                              PRECINCT 1                                             01 
01050080002000007REP       President                                               Jeb Bush                              PRECINCT 2                                             01 
01050080003000001REP       President                                               Jeb Bush                              PRECINCT 3                                             01 
01050080004000000REP       President                                               Jeb Bush                              PRECINCT 4                                             01 
01050080005000012REP       President                                               Jeb Bush                              PRECINCT 5                                             01 
01050080006000004REP       President                                               Jeb Bush                              PRECINCT 6                                             01 
01050080007000010REP       President                                               Jeb Bush                              PRECINCT 7                                             01 
01050080008000010REP       President                                               Jeb Bush                              PRECINCT 8                                             01 
01050080009000008REP       President                                               Jeb Bush                              PRECINCT 9                                             01 
01050080010000001REP       President                                               Jeb Bush                              PRECINCT 10                                            01 
01050080011000003REP       President                                               Jeb Bush                              PRECINCT 11                                            01 
01050080012000004REP       President                                               Jeb Bush                              PRECINCT 12                                            01 
01050080013000005REP       President                                               Jeb Bush                              PRECINCT 13                                            01 
01050080014000007REP       President                                               Jeb Bush                              PRECINCT 14                                            01 
01050080015000005REP       President                                               Jeb Bush                              PRECINCT 15                                            01 
01050080016000007REP       President                                               Jeb Bush                              PRECINCT 16                                            01 
01050080017000008REP       President                                               Jeb Bush                              PRECINCT 17                                            01 
01050080018000008REP       President                                               Jeb Bush                              PRECINCT 18                                            01 
01050080019000007REP       President                                               Jeb Bush                              PRECINCT 19                                            01 
01050080020000007REP       President                                               Jeb Bush                              PRECINCT 20                                            01 
01050080021000002REP       President                                               Jeb Bush                              PRECINCT 21                                            01 
01050080022000004REP       President                                               Jeb Bush                              PRECINCT 22                                            01 
01050080023000002REP       President                                               Jeb Bush                              PRECINCT 23                                            01 
01050080024000005REP       President                                               Jeb Bush                              PRECINCT 24                                            01 
01050080025000004REP       President                                               Jeb Bush                              PRECINCT 25                                            01 
01050080026000006REP       President                                               Jeb Bush                              PRECINCT 26                                            01 
01050080027000006REP       President                                               Jeb Bush                              PRECINCT 27                                            01 
01050080028000003REP       President                                               Jeb Bush                              PRECINCT 28                                            01 
01050080029000006REP       President                                               Jeb Bush                              PRECINCT 29                                            01 
01050080030000008REP       President                                               Jeb Bush                              PRECINCT 30                                            01 
01050080031000012REP       President                                               Jeb Bush                              PRECINCT 31                                            01 
01050080032000004REP       President                                               Jeb Bush                              PRECINCT 32                                            01 
01050080033000007REP       President                                               Jeb Bush                              PRECINCT 33                                            01 
01050080034000002REP       President                                               Jeb Bush                              PRECINCT 34                                            01 
01050090001000002REP       President                                               Ben Carson                            PRECINCT 1                                             01 
01050090002000003REP       President                                               Ben Carson                            PRECINCT 2                                             01 
01050090003000001REP       President                                               Ben Carson                            PRECINCT 3                                             01 
01050090004000000REP       President                                               Ben Carson                            PRECINCT 4                                             01 
01050090005000012REP       President                                               Ben Carson                            PRECINCT 5                                             01 
01050090006000027REP       President                                               Ben Carson                            PRECINCT 6                                             01 
01050090007000024REP       President                                               Ben Carson                            PRECINCT 7                                             01 
01050090008000023REP       President                                               Ben Carson                            PRECINCT 8                                             01 
01050090009000020REP       President                                               Ben Carson                            PRECINCT 9                                             01 
01050090010000001REP       President                                               Ben Carson                            PRECINCT 10                                            01 
01050090011000001REP       President                                               Ben Carson                            PRECINCT 11                                            01 
01050090012000013REP       President                                               Ben Carson                            PRECINCT 12                                            01 
01050090013000010REP       President                                               Ben Carson                            PRECINCT 13                                            01 
01050090014000010REP       President                                               Ben Carson                            PRECINCT 14                                            01 
01050090015000016REP       President                                               Ben Carson                            PRECINCT 15                                            01 
01050090016000015REP       President                                               Ben Carson                            PRECINCT 16                                            01 
01050090017000012REP       President                                               Ben Carson                            PRECINCT 17                                            01 
01050090018000017REP       President                                               Ben Carson                            PRECINCT 18                                            01 
01050090019000014REP       President                                               Ben Carson                            PRECINCT 19                                            01 
01050090020000012REP       President                                               Ben Carson                            PRECINCT 20                                            01 
01050090021000004REP       President                                               Ben Carson                            PRECINCT 21                                            01 
01050090022000005REP       President                                               Ben Carson                            PRECINCT 22                                            01 
01050090023000025REP       President                                               Ben Carson                            PRECINCT 23                                            01 
01050090024000011REP       President                                               Ben Carson                            PRECINCT 24                                            01 
01050090025000012REP       President                                               Ben Carson                            PRECINCT 25                                            01 
01050090026000031REP       President                                               Ben Carson                            PRECINCT 26                                            01 
01050090027000021REP       President                                               Ben Carson                            PRECINCT 27                                            01 
01050090028000030REP       President                                               Ben Carson                            PRECINCT 28                                            01 
01050090029000005REP       President                                               Ben Carson                            PRECINCT 29                                            01 
01050090030000011REP       President                                               Ben Carson                            PRECINCT 30                                            01 
01050090031000019REP       President                                               Ben Carson                            PRECINCT 31                                            01 
01050090032000018REP       President                                               Ben Carson                            PRECINCT 32                                            01 
01050090033000010REP       President                                               Ben Carson                            PRECINCT 33                                            01 
01050090034000017REP       President                                               Ben Carson                            PRECINCT 34                                            01 
01050100001000000REP       President                                               Rick Santorum                         PRECINCT 1                                             01 
01050100002000000REP       President                                               Rick Santorum                         PRECINCT 2                                             01 
01050100003000000REP       President                                               Rick Santorum                         PRECINCT 3                                             01 
01050100004000000REP       President                                               Rick Santorum                         PRECINCT 4                                             01 
01050100005000000REP       President                                               Rick Santorum                         PRECINCT 5                                             01 
01050100006000000REP       President                                               Rick Santorum                         PRECINCT 6                                             01 
01050100007000001REP       President                                               Rick Santorum                         PRECINCT 7                                             01 
01050100008000000REP       President                                               Rick Santorum                         PRECINCT 8                                             01 
01050100009000000REP       President                                               Rick Santorum                         PRECINCT 9                                             01 
01050100010000000REP       President                                               Rick Santorum                         PRECINCT 10                                            01 
01050100011000000REP       President                                               Rick Santorum                         PRECINCT 11                                            01 
01050100012000000REP       President                                               Rick Santorum                         PRECINCT 12                                            01 
01050100013000000REP       President                                               Rick Santorum                         PRECINCT 13                                            01 
01050100014000000REP       President                                               Rick Santorum                         PRECINCT 14                                            01 
01050100015000000REP       President                                               Rick Santorum                         PRECINCT 15                                            01 
01050100016000000REP       President                                               Rick Santorum                         PRECINCT 16                                            01 
01050100017000000REP       President                                               Rick Santorum                         PRECINCT 17                                            01 
01050100018000000REP       President                                               Rick Santorum                         PRECINCT 18                                            01 
01050100019000001REP       President                                               Rick Santorum                         PRECINCT 19                                            01 
01050100020000001REP       President                                               Rick Santorum                         PRECINCT 20                                            01 
01050100021000000REP       President                                               Rick Santorum                         PRECINCT 21                                            01 
01050100022000000REP       President                                               Rick Santorum                         PRECINCT 22                                            01 
01050100023000000REP       President                                               Rick Santorum                         PRECINCT 23                                            01 
01050100024000000REP       President                                               Rick Santorum                         PRECINCT 24                                            01 
01050100025000000REP       President                                               Rick Santorum                         PRECINCT 25                                            01 
01050100026000000REP       President                                               Rick Santorum                         PRECINCT 26                                            01 
01050100027000000REP       President                                               Rick Santorum                         PRECINCT 27                                            01 
01050100028000000REP       President                                               Rick Santorum                         PRECINCT 28                                            01 
01050100029000000REP       President                                               Rick Santorum                         PRECINCT 29                                            01 
01050100030000000REP       President                                               Rick Santorum                         PRECINCT 30                                            01 
01050100031000000REP       President                                               Rick Santorum                         PRECINCT 31                                            01 
01050100032000001REP       President                                               Rick Santorum                         PRECINCT 32                                            01 
01050100033000000REP       President                                               Rick Santorum                         PRECINCT 33                                            01 
01050100034000001REP       President                                               Rick Santorum                         PRECINCT 34                                            01 
01050110001000000REP       President                                               Lindsey Graham                        PRECINCT 1                                             01 
01050110002000001REP       President                                               Lindsey Graham                        PRECINCT 2                                             01 
01050110003000000REP       President                                               Lindsey Graham                        PRECINCT 3                                             01 
01050110004000000REP       President                                               Lindsey Graham                        PRECINCT 4                                             01 
01050110005000000REP       President                                               Lindsey Graham                        PRECINCT 5                                             01 
01050110006000000REP       President                                               Lindsey Graham                        PRECINCT 6                                             01 
01050110007000000REP       President                                               Lindsey Graham                        PRECINCT 7                                             01 
01050110008000000REP       President                                               Lindsey Graham                        PRECINCT 8                                             01 
01050110009000000REP       President                                               Lindsey Graham                        PRECINCT 9                                             01 
01050110010000000REP       President                                               Lindsey Graham                        PRECINCT 10                                            01 
01050110011000000REP       President                                               Lindsey Graham                        PRECINCT 11                                            01 
01050110012000000REP       President                                               Lindsey Graham                        PRECINCT 12                                            01 
01050110013000000REP       President                                               Lindsey Graham                        PRECINCT 13                                            01 
01050110014000001REP       President                                               Lindsey Graham                        PRECINCT 14                                            01 
01050110015000000REP       President                                               Lindsey Graham                        PRECINCT 15                                            01 
01050110016000000REP       President                                               Lindsey Graham                        PRECINCT 16                                            01 
01050110017000000REP       President                                               Lindsey Graham                        PRECINCT 17                                            01 
01050110018000000REP       President                                               Lindsey Graham                        PRECINCT 18                                            01 
01050110019000000REP       President                                               Lindsey Graham                        PRECINCT 19                                            01 
01050110020000000REP       President                                               Lindsey Graham                        PRECINCT 20                                            01 
01050110021000000REP       President                                               Lindsey Graham                        PRECINCT 21                                            01 
01050110022000000REP       President                                               Lindsey Graham                        PRECINCT 22                                            01 
01050110023000000REP       President                                               Lindsey Graham                        PRECINCT 23                                            01 
01050110024000000REP       President                                               Lindsey Graham                        PRECINCT 24                                            01 
01050110025000000REP       President                                               Lindsey Graham                        PRECINCT 25                                            01 
01050110026000000REP       President                                               Lindsey Graham                        PRECINCT 26                                            01 
01050110027000000REP       President                                               Lindsey Graham                        PRECINCT 27                                            01 
01050110028000000REP       President                                               Lindsey Graham                        PRECINCT 28                                            01 
01050110029000000REP       President                                               Lindsey Graham                        PRECINCT 29                                            01 
01050110030000001REP       President                                               Lindsey Graham                        PRECINCT 30                                            01 
01050110031000000REP       President                                               Lindsey Graham                        PRECINCT 31                                            01 
01050110032000000REP       President                                               Lindsey Graham                        PRECINCT 32                                            01 
01050110033000000REP       President                                               Lindsey Graham                        PRECINCT 33                                            01 
01050110034000000REP       President                                               Lindsey Graham                        PRECINCT 34                                            01 
01050120001000035REP       President                                               Ted Cruz                              PRECINCT 1                                             01 
01050120002000054REP       President                                               Ted Cruz                              PRECINCT 2                                             01 
01050120003000017REP       President                                               Ted Cruz                              PRECINCT 3                                             01 
01050120004000002REP       President                                               Ted Cruz                              PRECINCT 4                                             01 
01050120005000112REP       President                                               Ted Cruz                              PRECINCT 5                                             01 
01050120006000256REP       President                                               Ted Cruz                              PRECINCT 6                                             01 
01050120007000227REP       President                                               Ted Cruz                              PRECINCT 7                                             01 
01050120008000359REP       President                                               Ted Cruz                              PRECINCT 8                                             01 
01050120009000331REP       President                                               Ted Cruz                              PRECINCT 9                                             01 
01050120010000103REP       President                                               Ted Cruz                              PRECINCT 10                                            01 
01050120011000047REP       President                                               Ted Cruz                              PRECINCT 11                                            01 
01050120012000111REP       President                                               Ted Cruz                              PRECINCT 12                                            01 
01050120013000153REP       President                                               Ted Cruz                              PRECINCT 13                                            01 
01050120014000196REP       President                                               Ted Cruz                              PRECINCT 14                                            01 
01050120015000312REP       President                                               Ted Cruz                              PRECINCT 15                                            01 
01050120016000415REP       President                                               Ted Cruz                              PRECINCT 16                                            01 
01050120017000312REP       President                                               Ted Cruz                              PRECINCT 17                                            01 
01050120018000304REP       President                                               Ted Cruz                              PRECINCT 18                                            01 
01050120019000242REP       President                                               Ted Cruz                              PRECINCT 19                                            01 
01050120020000174REP       President                                               Ted Cruz                              PRECINCT 20                                            01 
01050120021000039REP       President                                               Ted Cruz                              PRECINCT 21                                            01 
01050120022000172REP       President                                               Ted Cruz                              PRECINCT 22                                            01 
01050120023000416REP       President                                               Ted Cruz                              PRECINCT 23                                            01 
01050120024000193REP       President                                               Ted Cruz                              PRECINCT 24                                            01 
01050120025000206REP       President                                               Ted Cruz                              PRECINCT 25                                            01 
01050120026000320REP       President                                               Ted Cruz                              PRECINCT 26                                            01 
01050120027000370REP       President                                               Ted Cruz                              PRECINCT 27                                            01 
01050120028000479REP       President                                               Ted Cruz                              PRECINCT 28                                            01 
01050120029000173REP       President                                               Ted Cruz                              PRECINCT 29                                            01 
01050120030000153REP       President                                               Ted Cruz                              PRECINCT 30                                            01 
01050120031000404REP       President                                               Ted Cruz                              PRECINCT 31                                            01 
01050120032000320REP       President                                               Ted Cruz                              PRECINCT 32                                            01 
01050120033000232REP       President                                               Ted Cruz                              PRECINCT 33                                            01 
01050120034000241REP       President                                               Ted Cruz                              PRECINCT 34                                            01 
01050130001000000REP       President                                               Carly Fiorina                         PRECINCT 1                                             01 
01050130002000002REP       President                                               Carly Fiorina                         PRECINCT 2                                             01 
01050130003000000REP       President                                               Carly Fiorina                         PRECINCT 3                                             01 
01050130004000000REP       President                                               Carly Fiorina                         PRECINCT 4                                             01 
01050130005000000REP       President                                               Carly Fiorina                         PRECINCT 5                                             01 
01050130006000000REP       President                                               Carly Fiorina                         PRECINCT 6                                             01 
01050130007000001REP       President                                               Carly Fiorina                         PRECINCT 7                                             01 
01050130008000000REP       President                                               Carly Fiorina                         PRECINCT 8                                             01 
