01010010001001200000000000000000000000000000000          REGISTERED VOTERS - TOTAL                               REGISTERED VOTERS - TOTAL             1-Calvert                                              00 
01010010002001527000000000000000000000000000000          REGISTERED VOTERS - TOTAL                               REGISTERED VOTERS - TOTAL             2-Hearne                                               00 
01010010003000530000000000000000000000000000000          REGISTERED VOTERS - TOTAL                               REGISTERED VOTERS - TOTAL             3-Wheelock                                             00 
01010010004000472000000000000000000000000000000          REGISTERED VOTERS - TOTAL                               REGISTERED VOTERS - TOTAL             4-Bald Prairie                                         00 
01010010005001516000000000000000000000000000000          REGISTERED VOTERS - TOTAL                               REGISTERED VOTERS - TOTAL             5-Bremond                                              00 
01010010006001468000000000000000000000000000000          REGISTERED VOTERS - TOTAL                               REGISTERED VOTERS - TOTAL             6-Franklin                                             00 
01010010007000096000000000000000000000000000000          REGISTERED VOTERS - TOTAL                               REGISTERED VOTERS - TOTAL             7-Mumford                                              00 
01010010008000238000000000000000000000000000000          REGISTERED VOTERS - TOTAL                               REGISTERED VOTERS - TOTAL             8-Seale                                                00 
01010010009001058000000000000000000000000000000          REGISTERED VOTERS - TOTAL                               REGISTERED VOTERS - TOTAL             11-Benchley                                            00 
01010010010000167000000000000000000000000000000          REGISTERED VOTERS - TOTAL                               REGISTERED VOTERS - TOTAL             13-Elliot                                              00 
01010010011000142000000000000000000000000000000          REGISTERED VOTERS - TOTAL                               REGISTERED VOTERS - TOTAL             16-Easterly                                            00 
01010010012000096000000000000000000000000000000          REGISTERED VOTERS - TOTAL                               REGISTERED VOTERS - TOTAL             18-Ridge                                               00 
01010010013000512000000000000000000000000000000          REGISTERED VOTERS - TOTAL                               REGISTERED VOTERS - TOTAL             19-New Baden                                           00 
01010010014001403000000000000000000000000000000          REGISTERED VOTERS - TOTAL                               REGISTERED VOTERS - TOTAL             22-Teal Center                                         00 
01010010015000795000000000000000000000000000000          REGISTERED VOTERS - TOTAL                               REGISTERED VOTERS - TOTAL             23-Christian Faith Ctr.                                00 
01020010001000474000028000211000235000000000000          BALLOTS CAST - TOTAL                                    BALLOTS CAST - TOTAL                  1-Calvert                                              00 
01020010002000440000021000128000291000000000000          BALLOTS CAST - TOTAL                                    BALLOTS CAST - TOTAL                  2-Hearne                                               00 
01020010003000272000007000079000186000000000000          BALLOTS CAST - TOTAL                                    BALLOTS CAST - TOTAL                  3-Wheelock                                             00 
01020010004000236000008000121000107000000000000          BALLOTS CAST - TOTAL                                    BALLOTS CAST - TOTAL                  4-Bald Prairie                                         00 
01020010005000581000046000167000368000000000000          BALLOTS CAST - TOTAL                                    BALLOTS CAST - TOTAL                  5-Bremond                                              00 
01020010006000602000023000259000320000000000000          BALLOTS CAST - TOTAL                                    BALLOTS CAST - TOTAL                  6-Franklin                                             00 
01020010007000016000000000002000014000000000000          BALLOTS CAST - TOTAL                                    BALLOTS CAST - TOTAL                  7-Mumford                                              00 
01020010008000137000008000019000110000000000000          BALLOTS CAST - TOTAL                                    BALLOTS CAST - TOTAL                  8-Seale                                                00 
01020010009000393000021000081000291000000000000          BALLOTS CAST - TOTAL                                    BALLOTS CAST - TOTAL                  11-Benchley                                            00 
01020010010000084000001000042000041000000000000          BALLOTS CAST - TOTAL                                    BALLOTS CAST - TOTAL                  13-Elliot                                              00 
01020010011000069000002000024000043000000000000          BALLOTS CAST - TOTAL                                    BALLOTS CAST - TOTAL                  16-Easterly                                            00 
01020010012000040000001000007000032000000000000          BALLOTS CAST - TOTAL                                    BALLOTS CAST - TOTAL                  18-Ridge                                               00 
01020010013000261000016000121000124000000000000          BALLOTS CAST - TOTAL                                    BALLOTS CAST - TOTAL                  19-New Baden                                           00 
01020010014000313000059000080000174000000000000          BALLOTS CAST - TOTAL                                    BALLOTS CAST - TOTAL                  22-Teal Center                                         00 
01020010015000192000018000058000116000000000000          BALLOTS CAST - TOTAL                                    BALLOTS CAST - TOTAL                  23-Christian Faith Ctr.                                00 
01030010001000219000004000093000122000000000000REP       BALLOTS CAST - REPUBLICAN PARTY                         BALLOTS CAST - REPUBLICAN PARTY       1-Calvert                                              00 
01030010002000266000009000078000179000000000000REP       BALLOTS CAST - REPUBLICAN PARTY                         BALLOTS CAST - REPUBLICAN PARTY       2-Hearne                                               00 
01030010003000230000003000064000163000000000000REP       BALLOTS CAST - REPUBLICAN PARTY                         BALLOTS CAST - REPUBLICAN PARTY       3-Wheelock                                             00 
01030010004000177000001000087000089000000000000REP       BALLOTS CAST - REPUBLICAN PARTY                         BALLOTS CAST - REPUBLICAN PARTY       4-Bald Prairie                                         00 
01030010005000360000021000113000226000000000000REP       BALLOTS CAST - REPUBLICAN PARTY                         BALLOTS CAST - REPUBLICAN PARTY       5-Bremond                                              00 
01030010006000421000011000188000222000000000000REP       BALLOTS CAST - REPUBLICAN PARTY                         BALLOTS CAST - REPUBLICAN PARTY       6-Franklin                                             00 
01030010007000000000000000000000000000000000000REP       BALLOTS CAST - REPUBLICAN PARTY                         BALLOTS CAST - REPUBLICAN PARTY       7-Mumford                                              00 
01030010008000126000006000019000101000000000000REP       BALLOTS CAST - REPUBLICAN PARTY                         BALLOTS CAST - REPUBLICAN PARTY       8-Seale                                                00 
01030010009000327000017000063000247000000000000REP       BALLOTS CAST - REPUBLICAN PARTY                         BALLOTS CAST - REPUBLICAN PARTY       11-Benchley                                            00 
01030010010000066000000000033000033000000000000REP       BALLOTS CAST - REPUBLICAN PARTY                         BALLOTS CAST - REPUBLICAN PARTY       13-Elliot                                              00 
01030010011000053000000000020000033000000000000REP       BALLOTS CAST - REPUBLICAN PARTY                         BALLOTS CAST - REPUBLICAN PARTY       16-Easterly                                            00 
01030010012000029000000000007000022000000000000REP       BALLOTS CAST - REPUBLICAN PARTY                         BALLOTS CAST - REPUBLICAN PARTY       18-Ridge                                               00 
01030010013000226000013000104000109000000000000REP       BALLOTS CAST - REPUBLICAN PARTY                         BALLOTS CAST - REPUBLICAN PARTY       19-New Baden                                           00 
01030010014000041000002000015000024000000000000REP       BALLOTS CAST - REPUBLICAN PARTY                         BALLOTS CAST - REPUBLICAN PARTY       22-Teal Center                                         00 
01030010015000083000004000027000052000000000000REP       BALLOTS CAST - REPUBLICAN PARTY                         BALLOTS CAST - REPUBLICAN PARTY       23-Christian Faith Ctr.                                00 
01040010001000256000024000118000114000000000000DEM       BALLOTS CAST - DEMOCRATIC PARTY                         BALLOTS CAST - DEMOCRATIC PARTY       1-Calvert                                              00 
01040010002000174000012000050000112000000000000DEM       BALLOTS CAST - DEMOCRATIC PARTY                         BALLOTS CAST - DEMOCRATIC PARTY       2-Hearne                                               00 
01040010003000043000004000015000024000000000000DEM       BALLOTS CAST - DEMOCRATIC PARTY                         BALLOTS CAST - DEMOCRATIC PARTY       3-Wheelock                                             00 
01040010004000059000007000034000018000000000000DEM       BALLOTS CAST - DEMOCRATIC PARTY                         BALLOTS CAST - DEMOCRATIC PARTY       4-Bald Prairie                                         00 
01040010005000223000025000054000144000000000000DEM       BALLOTS CAST - DEMOCRATIC PARTY                         BALLOTS CAST - DEMOCRATIC PARTY       5-Bremond                                              00 
01040010006000182000012000071000099000000000000DEM       BALLOTS CAST - DEMOCRATIC PARTY                         BALLOTS CAST - DEMOCRATIC PARTY       6-Franklin                                             00 
01040010007000016000000000002000014000000000000DEM       BALLOTS CAST - DEMOCRATIC PARTY                         BALLOTS CAST - DEMOCRATIC PARTY       7-Mumford                                              00 
01040010008000011000002000000000009000000000000DEM       BALLOTS CAST - DEMOCRATIC PARTY                         BALLOTS CAST - DEMOCRATIC PARTY       8-Seale                                                00 
01040010009000066000004000018000044000000000000DEM       BALLOTS CAST - DEMOCRATIC PARTY                         BALLOTS CAST - DEMOCRATIC PARTY       11-Benchley                                            00 
01040010010000018000001000009000008000000000000DEM       BALLOTS CAST - DEMOCRATIC PARTY                         BALLOTS CAST - DEMOCRATIC PARTY       13-Elliot                                              00 
01040010011000016000002000004000010000000000000DEM       BALLOTS CAST - DEMOCRATIC PARTY                         BALLOTS CAST - DEMOCRATIC PARTY       16-Easterly                                            00 
01040010012000011000001000000000010000000000000DEM       BALLOTS CAST - DEMOCRATIC PARTY                         BALLOTS CAST - DEMOCRATIC PARTY       18-Ridge                                               00 
01040010013000035000003000017000015000000000000DEM       BALLOTS CAST - DEMOCRATIC PARTY                         BALLOTS CAST - DEMOCRATIC PARTY       19-New Baden                                           00 
01040010014000272000057000065000150000000000000DEM       BALLOTS CAST - DEMOCRATIC PARTY                         BALLOTS CAST - DEMOCRATIC PARTY       22-Teal Center                                         00 
01040010015000111000014000031000066000000000000DEM       BALLOTS CAST - DEMOCRATIC PARTY                         BALLOTS CAST - DEMOCRATIC PARTY       23-Christian Faith Ctr.                                00 
01050010001000010000000000003000007000000000000REP       President                                               Ben Carson                            1-Calvert                                              01 
01050010002000012000000000004000008000000000000REP       President                                               Ben Carson                            2-Hearne                                               01 
01050010003000012000000000002000010000000000000REP       President                                               Ben Carson                            3-Wheelock                                             01 
01050010004000011000000000005000006000000000000REP       President                                               Ben Carson                            4-Bald Prairie                                         01 
01050010005000019000001000007000011000000000000REP       President                                               Ben Carson                            5-Bremond                                              01 
01050010006000024000003000007000014000000000000REP       President                                               Ben Carson                            6-Franklin                                             01 
01050010007000000000000000000000000000000000000REP       President                                               Ben Carson                            7-Mumford                                              01 
01050010008000003000000000000000003000000000000REP       President                                               Ben Carson                            8-Seale                                                01 
01050010009000016000000000000000016000000000000REP       President                                               Ben Carson                            11-Benchley                                            01 
01050010010000003000000000002000001000000000000REP       President                                               Ben Carson                            13-Elliot                                              01 
01050010011000003000000000000000003000000000000REP       President                                               Ben Carson                            16-Easterly                                            01 
01050010012000000000000000000000000000000000000REP       President                                               Ben Carson                            18-Ridge                                               01 
01050010013000013000000000006000007000000000000REP       President                                               Ben Carson                            19-New Baden                                           01 
01050010014000004000000000000000004000000000000REP       President                                               Ben Carson                            22-Teal Center                                         01 
01050010015000004000000000002000002000000000000REP       President                                               Ben Carson                            23-Christian Faith Ctr.                                01 
01050020001000000000000000000000000000000000000REP       President                                               Elizabeth Gray                        1-Calvert                                              01 
01050020002000000000000000000000000000000000000REP       President                                               Elizabeth Gray                        2-Hearne                                               01 
01050020003000000000000000000000000000000000000REP       President                                               Elizabeth Gray                        3-Wheelock                                             01 
01050020004000000000000000000000000000000000000REP       President                                               Elizabeth Gray                        4-Bald Prairie                                         01 
01050020005000000000000000000000000000000000000REP       President                                               Elizabeth Gray                        5-Bremond                                              01 
01050020006000000000000000000000000000000000000REP       President                                               Elizabeth Gray                        6-Franklin                                             01 
01050020007000000000000000000000000000000000000REP       President                                               Elizabeth Gray                        7-Mumford                                              01 
01050020008000000000000000000000000000000000000REP       President                                               Elizabeth Gray                        8-Seale                                                01 
01050020009000000000000000000000000000000000000REP       President                                               Elizabeth Gray                        11-Benchley                                            01 
01050020010000000000000000000000000000000000000REP       President                                               Elizabeth Gray                        13-Elliot                                              01 
01050020011000000000000000000000000000000000000REP       President                                               Elizabeth Gray                        16-Easterly                                            01 
01050020012000000000000000000000000000000000000REP       President                                               Elizabeth Gray                        18-Ridge                                               01 
01050020013000000000000000000000000000000000000REP       President                                               Elizabeth Gray                        19-New Baden                                           01 
01050020014000000000000000000000000000000000000REP       President                                               Elizabeth Gray                        22-Teal Center                                         01 
01050020015000000000000000000000000000000000000REP       President                                               Elizabeth Gray                        23-Christian Faith Ctr.                                01 
01050030001000008000000000003000005000000000000REP       President                                               John R. Kasich                        1-Calvert                                              01 
01050030002000004000000000002000002000000000000REP       President                                               John R. Kasich                        2-Hearne                                               01 
01050030003000007000000000001000006000000000000REP       President                                               John R. Kasich                        3-Wheelock                                             01 
01050030004000002000000000002000000000000000000REP       President                                               John R. Kasich                        4-Bald Prairie                                         01 
01050030005000006000002000002000002000000000000REP       President                                               John R. Kasich                        5-Bremond                                              01 
01050030006000021000000000013000008000000000000REP       President                                               John R. Kasich                        6-Franklin                                             01 
01050030007000000000000000000000000000000000000REP       President                                               John R. Kasich                        7-Mumford                                              01 
01050030008000003000000000000000003000000000000REP       President                                               John R. Kasich                        8-Seale                                                01 
01050030009000006000000000002000004000000000000REP       President                                               John R. Kasich                        11-Benchley                                            01 
01050030010000001000000000001000000000000000000REP       President                                               John R. Kasich                        13-Elliot                                              01 
01050030011000001000000000000000001000000000000REP       President                                               John R. Kasich                        16-Easterly                                            01 
01050030012000000000000000000000000000000000000REP       President                                               John R. Kasich                        18-Ridge                                               01 
01050030013000007000001000003000003000000000000REP       President                                               John R. Kasich                        19-New Baden                                           01 
01050030014000001000000000000000001000000000000REP       President                                               John R. Kasich                        22-Teal Center                                         01 
01050030015000001000000000000000001000000000000REP       President                                               John R. Kasich                        23-Christian Faith Ctr.                                01 
01050040001000077000001000037000039000000000000REP       President                                               Donald J. Trump                       1-Calvert                                              01 
01050040002000081000004000024000053000000000000REP       President                                               Donald J. Trump                       2-Hearne                                               01 
01050040003000048000001000012000035000000000000REP       President                                               Donald J. Trump                       3-Wheelock                                             01 
01050040004000049000000000020000029000000000000REP       President                                               Donald J. Trump                       4-Bald Prairie                                         01 
01050040005000129000005000035000089000000000000REP       President                                               Donald J. Trump                       5-Bremond                                              01 
01050040006000108000003000050000055000000000000REP       President                                               Donald J. Trump                       6-Franklin                                             01 
01050040007000000000000000000000000000000000000REP       President                                               Donald J. Trump                       7-Mumford                                              01 
01050040008000036000001000008000027000000000000REP       President                                               Donald J. Trump                       8-Seale                                                01 
01050040009000088000001000018000069000000000000REP       President                                               Donald J. Trump                       11-Benchley                                            01 
01050040010000020000000000010000010000000000000REP       President                                               Donald J. Trump                       13-Elliot                                              01 
01050040011000010000000000001000009000000000000REP       President                                               Donald J. Trump                       16-Easterly                                            01 
01050040012000009000000000003000006000000000000REP       President                                               Donald J. Trump                       18-Ridge                                               01 
01050040013000050000002000021000027000000000000REP       President                                               Donald J. Trump                       19-New Baden                                           01 
01050040014000017000001000009000007000000000000REP       President                                               Donald J. Trump                       22-Teal Center                                         01 
01050040015000022000000000009000013000000000000REP       President                                               Donald J. Trump                       23-Christian Faith Ctr.                                01 
01050050001000000000000000000000000000000000000REP       President                                               Rick Santorum                         1-Calvert                                              01 
01050050002000000000000000000000000000000000000REP       President                                               Rick Santorum                         2-Hearne                                               01 
01050050003000000000000000000000000000000000000REP       President                                               Rick Santorum                         3-Wheelock                                             01 
01050050004000000000000000000000000000000000000REP       President                                               Rick Santorum                         4-Bald Prairie                                         01 
01050050005000000000000000000000000000000000000REP       President                                               Rick Santorum                         5-Bremond                                              01 
01050050006000000000000000000000000000000000000REP       President                                               Rick Santorum                         6-Franklin                                             01 
01050050007000000000000000000000000000000000000REP       President                                               Rick Santorum                         7-Mumford                                              01 
01050050008000000000000000000000000000000000000REP       President                                               Rick Santorum                         8-Seale                                                01 
01050050009000000000000000000000000000000000000REP       President                                               Rick Santorum                         11-Benchley                                            01 
01050050010000000000000000000000000000000000000REP       President                                               Rick Santorum                         13-Elliot                                              01 
01050050011000000000000000000000000000000000000REP       President                                               Rick Santorum                         16-Easterly                                            01 
01050050012000000000000000000000000000000000000REP       President                                               Rick Santorum                         18-Ridge                                               01 
01050050013000000000000000000000000000000000000REP       President                                               Rick Santorum                         19-New Baden                                           01 
01050050014000000000000000000000000000000000000REP       President                                               Rick Santorum                         22-Teal Center                                         01 
01050050015000000000000000000000000000000000000REP       President                                               Rick Santorum                         23-Christian Faith Ctr.                                01 
01050060001000000000000000000000000000000000000REP       President                                               Lindsey Graham                        1-Calvert                                              01 
01050060002000000000000000000000000000000000000REP       President                                               Lindsey Graham                        2-Hearne                                               01 
01050060003000000000000000000000000000000000000REP       President                                               Lindsey Graham                        3-Wheelock                                             01 
01050060004000000000000000000000000000000000000REP       President                                               Lindsey Graham                        4-Bald Prairie                                         01 
01050060005000000000000000000000000000000000000REP       President                                               Lindsey Graham                        5-Bremond                                              01 
01050060006000000000000000000000000000000000000REP       President                                               Lindsey Graham                        6-Franklin                                             01 
01050060007000000000000000000000000000000000000REP       President                                               Lindsey Graham                        7-Mumford                                              01 
01050060008000000000000000000000000000000000000REP       President                                               Lindsey Graham                        8-Seale                                                01 
01050060009000000000000000000000000000000000000REP       President                                               Lindsey Graham                        11-Benchley                                            01 
01050060010000000000000000000000000000000000000REP       President                                               Lindsey Graham                        13-Elliot                                              01 
01050060011000000000000000000000000000000000000REP       President                                               Lindsey Graham                        16-Easterly                                            01 
01050060012000000000000000000000000000000000000REP       President                                               Lindsey Graham                        18-Ridge                                               01 
01050060013000000000000000000000000000000000000REP       President                                               Lindsey Graham                        19-New Baden                                           01 
01050060014000000000000000000000000000000000000REP       President                                               Lindsey Graham                        22-Teal Center                                         01 
01050060015000000000000000000000000000000000000REP       President                                               Lindsey Graham                        23-Christian Faith Ctr.                                01 
01050070001000002000000000001000001000000000000REP       President                                               Carly Fiorina                         1-Calvert                                              01 
01050070002000000000000000000000000000000000000REP       President                                               Carly Fiorina                         2-Hearne                                               01 
01050070003000001000000000001000000000000000000REP       President                                               Carly Fiorina                         3-Wheelock                                             01 
01050070004000000000000000000000000000000000000REP       President                                               Carly Fiorina                         4-Bald Prairie                                         01 
01050070005000000000000000000000000000000000000REP       President                                               Carly Fiorina                         5-Bremond                                              01 
01050070006000000000000000000000000000000000000REP       President                                               Carly Fiorina                         6-Franklin                                             01 
01050070007000000000000000000000000000000000000REP       President                                               Carly Fiorina                         7-Mumford                                              01 
01050070008000001000000000001000000000000000000REP       President                                               Carly Fiorina                         8-Seale                                                01 
01050070009000001000001000000000000000000000000REP       President                                               Carly Fiorina                         11-Benchley                                            01 
01050070010000000000000000000000000000000000000REP       President                                               Carly Fiorina                         13-Elliot                                              01 
01050070011000000000000000000000000000000000000REP       President                                               Carly Fiorina                         16-Easterly                                            01 
01050070012000000000000000000000000000000000000REP       President                                               Carly Fiorina                         18-Ridge                                               01 
01050070013000000000000000000000000000000000000REP       President                                               Carly Fiorina                         19-New Baden                                           01 
01050070014000000000000000000000000000000000000REP       President                                               Carly Fiorina                         22-Teal Center                                         01 
01050070015000000000000000000000000000000000000REP       President                                               Carly Fiorina                         23-Christian Faith Ctr.                                01 
01050080001000000000000000000000000000000000000REP       President                                               Jeb Bush                              1-Calvert                                              01 
01050080002000002000002000000000000000000000000REP       President                                               Jeb Bush                              2-Hearne                                               01 
01050080003000003000000000003000000000000000000REP       President                                               Jeb Bush                              3-Wheelock                                             01 
01050080004000001000000000001000000000000000000REP       President                                               Jeb Bush                              4-Bald Prairie                                         01 
01050080005000000000000000000000000000000000000REP       President                                               Jeb Bush                              5-Bremond                                              01 
01050080006000008000000000006000002000000000000REP       President                                               Jeb Bush                              6-Franklin                                             01 
01050080007000000000000000000000000000000000000REP       President                                               Jeb Bush                              7-Mumford                                              01 
01050080008000000000000000000000000000000000000REP       President                                               Jeb Bush                              8-Seale                                                01 
01050080009000004000002000002000000000000000000REP       President                                               Jeb Bush                              11-Benchley                                            01 
01050080010000000000000000000000000000000000000REP       President                                               Jeb Bush                              13-Elliot                                              01 
01050080011000000000000000000000000000000000000REP       President                                               Jeb Bush                              16-Easterly                                            01 
01050080012000000000000000000000000000000000000REP       President                                               Jeb Bush                              18-Ridge                                               01 
01050080013000001000001000000000000000000000000REP       President                                               Jeb Bush                              19-New Baden                                           01 
01050080014000000000000000000000000000000000000REP       President                                               Jeb Bush                              22-Teal Center                                         01 
01050080015000000000000000000000000000000000000REP       President                                               Jeb Bush                              23-Christian Faith Ctr.                                01 
01050090001000000000000000000000000000000000000REP       President                                               Chris Christie                        1-Calvert                                              01 
01050090002000000000000000000000000000000000000REP       President                                               Chris Christie                        2-Hearne                                               01 
01050090003000000000000000000000000000000000000REP       President                                               Chris Christie                        3-Wheelock                                             01 
01050090004000000000000000000000000000000000000REP       President                                               Chris Christie                        4-Bald Prairie                                         01 
01050090005000000000000000000000000000000000000REP       President                                               Chris Christie                        5-Bremond                                              01 
01050090006000000000000000000000000000000000000REP       President                                               Chris Christie                        6-Franklin                                             01 
01050090007000000000000000000000000000000000000REP       President                                               Chris Christie                        7-Mumford                                              01 
01050090008000000000000000000000000000000000000REP       President                                               Chris Christie                        8-Seale                                                01 
01050090009000000000000000000000000000000000000REP       President                                               Chris Christie                        11-Benchley                                            01 
01050090010000000000000000000000000000000000000REP       President                                               Chris Christie                        13-Elliot                                              01 
01050090011000000000000000000000000000000000000REP       President                                               Chris Christie                        16-Easterly                                            01 
01050090012000000000000000000000000000000000000REP       President                                               Chris Christie                        18-Ridge                                               01 
01050090013000000000000000000000000000000000000REP       President                                               Chris Christie                        19-New Baden                                           01 
01050090014000000000000000000000000000000000000REP       President                                               Chris Christie                        22-Teal Center                                         01 
01050090015000000000000000000000000000000000000REP       President                                               Chris Christie                        23-Christian Faith Ctr.                                01 
01050100001000000000000000000000000000000000000REP       President                                               Mike Huckabee                         1-Calvert                                              01 
01050100002000002000000000001000001000000000000REP       President                                               Mike Huckabee                         2-Hearne                                               01 
01050100003000000000000000000000000000000000000REP       President                                               Mike Huckabee                         3-Wheelock                                             01 
01050100004000000000000000000000000000000000000REP       President                                               Mike Huckabee                         4-Bald Prairie                                         01 
01050100005000000000000000000000000000000000000REP       President                                               Mike Huckabee                         5-Bremond                                              01 
01050100006000000000000000000000000000000000000REP       President                                               Mike Huckabee                         6-Franklin                                             01 
01050100007000000000000000000000000000000000000REP       President                                               Mike Huckabee                         7-Mumford                                              01 
01050100008000000000000000000000000000000000000REP       President                                               Mike Huckabee                         8-Seale                                                01 
01050100009000000000000000000000000000000000000REP       President                                               Mike Huckabee                         11-Benchley                                            01 
01050100010000000000000000000000000000000000000REP       President                                               Mike Huckabee                         13-Elliot                                              01 
01050100011000000000000000000000000000000000000REP       President                                               Mike Huckabee                         16-Easterly                                            01 
01050100012000000000000000000000000000000000000REP       President                                               Mike Huckabee                         18-Ridge                                               01 
01050100013000002000000000000000002000000000000REP       President                                               Mike Huckabee                         19-New Baden                                           01 
01050100014000000000000000000000000000000000000REP       President                                               Mike Huckabee                         22-Teal Center                                         01 
01050100015000000000000000000000000000000000000REP       President                                               Mike Huckabee                         23-Christian Faith Ctr.                                01 
01050110001000000000000000000000000000000000000REP       President                                               Rand Paul                             1-Calvert                                              01 
01050110002000000000000000000000000000000000000REP       President                                               Rand Paul                             2-Hearne                                               01 
01050110003000000000000000000000000000000000000REP       President                                               Rand Paul                             3-Wheelock                                             01 
01050110004000000000000000000000000000000000000REP       President                                               Rand Paul                             4-Bald Prairie                                         01 
01050110005000001000000000000000001000000000000REP       President                                               Rand Paul                             5-Bremond                                              01 
01050110006000000000000000000000000000000000000REP       President                                               Rand Paul                             6-Franklin                                             01 
01050110007000000000000000000000000000000000000REP       President                                               Rand Paul                             7-Mumford                                              01 
01050110008000000000000000000000000000000000000REP       President                                               Rand Paul                             8-Seale                                                01 
01050110009000000000000000000000000000000000000REP       President                                               Rand Paul                             11-Benchley                                            01 
01050110010000000000000000000000000000000000000REP       President                                               Rand Paul                             13-Elliot                                              01 
01050110011000001000000000000000001000000000000REP       President                                               Rand Paul                             16-Easterly                                            01 
01050110012000000000000000000000000000000000000REP       President                                               Rand Paul                             18-Ridge                                               01 
01050110013000000000000000000000000000000000000REP       President                                               Rand Paul                             19-New Baden                                           01 
01050110014000000000000000000000000000000000000REP       President                                               Rand Paul                             22-Teal Center                                         01 
01050110015000000000000000000000000000000000000REP       President                                               Rand Paul                             23-Christian Faith Ctr.                                01 
01050120001000103000003000039000061000000000000REP       President                                               Ted Cruz                              1-Calvert                                              01 
01050120002000142000001000037000104000000000000REP       President                                               Ted Cruz                              2-Hearne                                               01 
01050120003000129000002000035000092000000000000REP       President                                               Ted Cruz                              3-Wheelock                                             01 
01050120004000101000000000051000050000000000000REP       President                                               Ted Cruz                              4-Bald Prairie                                         01 
01050120005000182000012000057000113000000000000REP       President                                               Ted Cruz                              5-Bremond                                              01 
01050120006000226000004000098000124000000000000REP       President                                               Ted Cruz                              6-Franklin                                             01 
01050120007000000000000000000000000000000000000REP       President                                               Ted Cruz                              7-Mumford                                              01 
01050120008000066000000000008000058000000000000REP       President                                               Ted Cruz                              8-Seale                                                01 
01050120009000181000007000035000139000000000000REP       President                                               Ted Cruz                              11-Benchley                                            01 
01050120010000033000000000014000019000000000000REP       President                                               Ted Cruz                              13-Elliot                                              01 
01050120011000033000000000016000017000000000000REP       President                                               Ted Cruz                              16-Easterly                                            01 
01050120012000014000000000004000010000000000000REP       President                                               Ted Cruz                              18-Ridge                                               01 
01050120013000119000007000054000058000000000000REP       President                                               Ted Cruz                              19-New Baden                                           01 
01050120014000017000000000006000011000000000000REP       President                                               Ted Cruz                              22-Teal Center                                         01 
01050120015000051000002000015000034000000000000REP       President                                               Ted Cruz                              23-Christian Faith Ctr.                                01 
01050130001000018000000000010000008000000000000REP       President                                               Marco Rubio                           1-Calvert                                              01 
01050130002000022000002000010000010000000000000REP       President                                               Marco Rubio                           2-Hearne                                               01 
01050130003000029000000000010000019000000000000REP       President                                               Marco Rubio                           3-Wheelock                                             01 
01050130004000012000001000007000004000000000000REP       President                                               Marco Rubio                           4-Bald Prairie                                         01 
01050130005000021000001000011000009000000000000REP       President                                               Marco Rubio                           5-Bremond                                              01 
01050130006000030000001000011000018000000000000REP       President                                               Marco Rubio                           6-Franklin                                             01 
01050130007000000000000000000000000000000000000REP       President                                               Marco Rubio                           7-Mumford                                              01 
01050130008000017000005000002000010000000000000REP       President                                               Marco Rubio                           8-Seale                                                01 
01050130009000029000006000006000017000000000000REP       President                                               Marco Rubio                           11-Benchley                                            01 
01050130010000009000000000006000003000000000000REP       President                                               Marco Rubio                           13-Elliot                                              01 
01050130011000003000000000002000001000000000000REP       President                                               Marco Rubio                           16-Easterly                                            01 
01050130012000005000000000000000005000000000000REP       President                                               Marco Rubio                           18-Ridge                                               01 
01050130013000026000001000014000011000000000000REP       President                                               Marco Rubio                           19-New Baden                                           01 
01050130014000002000001000000000001000000000000REP       President                                               Marco Rubio                           22-Teal Center                                         01 
01050130015000004000002000001000001000000000000REP       President                                               Marco Rubio                           23-Christian Faith Ctr.                                01 
01050140001000001000000000000000001000000000000REP       President                                               Uncommitted                           1-Calvert                                              01 
01050140002000000000000000000000000000000000000REP       President                                               Uncommitted                           2-Hearne                                               01 
01050140003000000000000000000000000000000000000REP       President                                               Uncommitted                           3-Wheelock                                             01 
01050140004000000000000000000000000000000000000REP       President                                               Uncommitted                           4-Bald Prairie                                         01 
01050140005000002000000000001000001000000000000REP       President                                               Uncommitted                           5-Bremond                                              01 
01050140006000003000000000002000001000000000000REP       President                                               Uncommitted                           6-Franklin                                             01 
01050140007000000000000000000000000000000000000REP       President                                               Uncommitted                           7-Mumford                                              01 
01050140008000000000000000000000000000000000000REP       President                                               Uncommitted                           8-Seale                                                01 
01050140009000002000000000000000002000000000000REP       President                                               Uncommitted                           11-Benchley                                            01 
01050140010000000000000000000000000000000000000REP       President                                               Uncommitted                           13-Elliot                                              01 
01050140011000001000000000000000001000000000000REP       President                                               Uncommitted                           16-Easterly                                            01 
01050140012000001000000000000000001000000000000REP       President                                               Uncommitted                           18-Ridge                                               01 
01050140013000006000001000004000001000000000000REP       President                                               Uncommitted                           19-New Baden                                           01 
01050140014000000000000000000000000000000000000REP       President                                               Uncommitted                           22-Teal Center                                         01 
01050140015000001000000000000000001000000000000REP       President                                               Uncommitted                           23-Christian Faith Ctr.                                01 
01050150001000000000000000000000000000000000000REP       President                                               OVER VOTES                            1-Calvert                                              01 
01050150002000000000000000000000000000000000000REP       President                                               OVER VOTES                            2-Hearne                                               01 
01050150003000000000000000000000000000000000000REP       President                                               OVER VOTES                            3-Wheelock                                             01 
01050150004000000000000000000000000000000000000REP       President                                               OVER VOTES                            4-Bald Prairie                                         01 
01050150005000000000000000000000000000000000000REP       President                                               OVER VOTES                            5-Bremond                                              01 
01050150006000000000000000000000000000000000000REP       President                                               OVER VOTES                            6-Franklin                                             01 
01050150007000000000000000000000000000000000000REP       President                                               OVER VOTES                            7-Mumford                                              01 
01050150008000000000000000000000000000000000000REP       President                                               OVER VOTES                            8-Seale                                                01 
01050150009000000000000000000000000000000000000REP       President                                               OVER VOTES                            11-Benchley                                            01 
01050150010000000000000000000000000000000000000REP       President                                               OVER VOTES                            13-Elliot                                              01 
01050150011000000000000000000000000000000000000REP       President                                               OVER VOTES                            16-Easterly                                            01 
01050150012000000000000000000000000000000000000REP       President                                               OVER VOTES                            18-Ridge                                               01 
01050150013000000000000000000000000000000000000REP       President                                               OVER VOTES                            19-New Baden                                           01 
01050150014000000000000000000000000000000000000REP       President                                               OVER VOTES                            22-Teal Center                                         01 
01050150015000000000000000000000000000000000000REP       President                                               OVER VOTES                            23-Christian Faith Ctr.                                01 
01050160001000000000000000000000000000000000000REP       President                                               UNDER VOTES                           1-Calvert                                              01 
01050160002000001000000000000000001000000000000REP       President                                               UNDER VOTES                           2-Hearne                                               01 
01050160003000001000000000000000001000000000000REP       President                                               UNDER VOTES                           3-Wheelock                                             01 
01050160004000001000000000001000000000000000000REP       President                                               UNDER VOTES                           4-Bald Prairie                                         01 
01050160005000000000000000000000000000000000000REP       President                                               UNDER VOTES                           5-Bremond                                              01 
01050160006000001000000000001000000000000000000REP       President                                               UNDER VOTES                           6-Franklin                                             01 
01050160007000000000000000000000000000000000000REP       President                                               UNDER VOTES                           7-Mumford                                              01 
01050160008000000000000000000000000000000000000REP       President                                               UNDER VOTES                           8-Seale                                                01 
01050160009000000000000000000000000000000000000REP       President                                               UNDER VOTES                           11-Benchley                                            01 
01050160010000000000000000000000000000000000000REP       President                                               UNDER VOTES                           13-Elliot                                              01 
01050160011000001000000000001000000000000000000REP       President                                               UNDER VOTES                           16-Easterly                                            01 
01050160012000000000000000000000000000000000000REP       President                                               UNDER VOTES                           18-Ridge                                               01 
01050160013000002000000000002000000000000000000REP       President                                               UNDER VOTES                           19-New Baden                                           01 
01050160014000000000000000000000000000000000000REP       President                                               UNDER VOTES                           22-Teal Center                                         01 
01050160015000000000000000000000000000000000000REP       President                                               UNDER VOTES                           23-Christian Faith Ctr.                                01 
01060010001000158000004000068000086000000000000REP       United States Representative, Dist 17                   Bill Flores                           1-Calvert                                              01 
01060010002000204000006000061000137000000000000REP       United States Representative, Dist 17                   Bill Flores                           2-Hearne                                               01 
01060010003000185000003000047000135000000000000REP       United States Representative, Dist 17                   Bill Flores                           3-Wheelock                                             01 
01060010004000123000000000055000068000000000000REP       United States Representative, Dist 17                   Bill Flores                           4-Bald Prairie                                         01 
01060010005000244000017000070000157000000000000REP       United States Representative, Dist 17                   Bill Flores                           5-Bremond                                              01 
01060010006000319000009000138000172000000000000REP       United States Representative, Dist 17                   Bill Flores                           6-Franklin                                             01 
01060010007000000000000000000000000000000000000REP       United States Representative, Dist 17                   Bill Flores                           7-Mumford                                              01 
01060010008000068000003000006000059000000000000REP       United States Representative, Dist 17                   Bill Flores                           8-Seale                                                01 
01060010009000223000014000046000163000000000000REP       United States Representative, Dist 17                   Bill Flores                           11-Benchley                                            01 
01060010010000057000000000029000028000000000000REP       United States Representative, Dist 17                   Bill Flores                           13-Elliot                                              01 
01060010011000039000000000014000025000000000000REP       United States Representative, Dist 17                   Bill Flores                           16-Easterly                                            01 
01060010012000018000000000003000015000000000000REP       United States Representative, Dist 17                   Bill Flores                           18-Ridge                                               01 
01060010013000166000009000077000080000000000000REP       United States Representative, Dist 17                   Bill Flores                           19-New Baden                                           01 
01060010014000035000002000013000020000000000000REP       United States Representative, Dist 17                   Bill Flores                           22-Teal Center                                         01 
01060010015000060000002000021000037000000000000REP       United States Representative, Dist 17                   Bill Flores                           23-Christian Faith Ctr.                                01 
01060020001000027000000000010000017000000000000REP       United States Representative, Dist 17                   Kaleb Sims                            1-Calvert                                              01 
01060020002000022000001000006000015000000000000REP       United States Representative, Dist 17                   Kaleb Sims                            2-Hearne                                               01 
01060020003000010000000000007000003000000000000REP       United States Representative, Dist 17                   Kaleb Sims                            3-Wheelock                                             01 
01060020004000029000000000017000012000000000000REP       United States Representative, Dist 17                   Kaleb Sims                            4-Bald Prairie                                         01 
01060020005000051000002000021000028000000000000REP       United States Representative, Dist 17                   Kaleb Sims                            5-Bremond                                              01 
01060020006000033000000000014000019000000000000REP       United States Representative, Dist 17                   Kaleb Sims                            6-Franklin                                             01 
01060020007000000000000000000000000000000000000REP       United States Representative, Dist 17                   Kaleb Sims                            7-Mumford                                              01 
01060020008000038000002000010000026000000000000REP       United States Representative, Dist 17                   Kaleb Sims                            8-Seale                                                01 
01060020009000024000001000003000020000000000000REP       United States Representative, Dist 17                   Kaleb Sims                            11-Benchley                                            01 
01060020010000003000000000002000001000000000000REP       United States Representative, Dist 17                   Kaleb Sims                            13-Elliot                                              01 
01060020011000004000000000001000003000000000000REP       United States Representative, Dist 17                   Kaleb Sims                            16-Easterly                                            01 
01060020012000003000000000003000000000000000000REP       United States Representative, Dist 17                   Kaleb Sims                            18-Ridge                                               01 
01060020013000018000000000008000010000000000000REP       United States Representative, Dist 17                   Kaleb Sims                            19-New Baden                                           01 
01060020014000002000000000001000001000000000000REP       United States Representative, Dist 17                   Kaleb Sims                            22-Teal Center                                         01 
01060020015000004000001000001000002000000000000REP       United States Representative, Dist 17                   Kaleb Sims                            23-Christian Faith Ctr.                                01 
01060030001000023000000000012000011000000000000REP       United States Representative, Dist 17                   Ralph Patterson                       1-Calvert                                              01 
01060030002000026000002000009000015000000000000REP       United States Representative, Dist 17                   Ralph Patterson                       2-Hearne                                               01 
01060030003000028000000000009000019000000000000REP       United States Representative, Dist 17                   Ralph Patterson                       3-Wheelock                                             01 
01060030004000020000001000013000006000000000000REP       United States Representative, Dist 17                   Ralph Patterson                       4-Bald Prairie                                         01 
01060030005000042000002000015000025000000000000REP       United States Representative, Dist 17                   Ralph Patterson                       5-Bremond                                              01 
01060030006000048000002000026000020000000000000REP       United States Representative, Dist 17                   Ralph Patterson                       6-Franklin                                             01 
01060030007000000000000000000000000000000000000REP       United States Representative, Dist 17                   Ralph Patterson                       7-Mumford                                              01 
01060030008000018000001000003000014000000000000REP       United States Representative, Dist 17                   Ralph Patterson                       8-Seale                                                01 
01060030009000070000002000012000056000000000000REP       United States Representative, Dist 17                   Ralph Patterson                       11-Benchley                                            01 
01060030010000005000000000002000003000000000000REP       United States Representative, Dist 17                   Ralph Patterson                       13-Elliot                                              01 
01060030011000007000000000004000003000000000000REP       United States Representative, Dist 17                   Ralph Patterson                       16-Easterly                                            01 
01060030012000006000000000001000005000000000000REP       United States Representative, Dist 17                   Ralph Patterson                       18-Ridge                                               01 
01060030013000034000001000017000016000000000000REP       United States Representative, Dist 17                   Ralph Patterson                       19-New Baden                                           01 
01060030014000004000000000001000003000000000000REP       United States Representative, Dist 17                   Ralph Patterson                       22-Teal Center                                         01 
01060030015000014000001000003000010000000000000REP       United States Representative, Dist 17                   Ralph Patterson                       23-Christian Faith Ctr.                                01 
01060040001000001000000000001000000000000000000REP       United States Representative, Dist 17                   OVER VOTES                            1-Calvert                                              01 
01060040002000000000000000000000000000000000000REP       United States Representative, Dist 17                   OVER VOTES                            2-Hearne                                               01 
01060040003000000000000000000000000000000000000REP       United States Representative, Dist 17                   OVER VOTES                            3-Wheelock                                             01 
01060040004000000000000000000000000000000000000REP       United States Representative, Dist 17                   OVER VOTES                            4-Bald Prairie                                         01 
01060040005000000000000000000000000000000000000REP       United States Representative, Dist 17                   OVER VOTES                            5-Bremond                                              01 
01060040006000000000000000000000000000000000000REP       United States Representative, Dist 17                   OVER VOTES                            6-Franklin                                             01 
01060040007000000000000000000000000000000000000REP       United States Representative, Dist 17                   OVER VOTES                            7-Mumford                                              01 
01060040008000000000000000000000000000000000000REP       United States Representative, Dist 17                   OVER VOTES                            8-Seale                                                01 
01060040009000000000000000000000000000000000000REP       United States Representative, Dist 17                   OVER VOTES                            11-Benchley                                            01 
01060040010000000000000000000000000000000000000REP       United States Representative, Dist 17                   OVER VOTES                            13-Elliot                                              01 
01060040011000000000000000000000000000000000000REP       United States Representative, Dist 17                   OVER VOTES                            16-Easterly                                            01 
01060040012000000000000000000000000000000000000REP       United States Representative, Dist 17                   OVER VOTES                            18-Ridge                                               01 
01060040013000000000000000000000000000000000000REP       United States Representative, Dist 17                   OVER VOTES                            19-New Baden                                           01 
01060040014000000000000000000000000000000000000REP       United States Representative, Dist 17                   OVER VOTES                            22-Teal Center                                         01 
01060040015000000000000000000000000000000000000REP       United States Representative, Dist 17                   OVER VOTES                            23-Christian Faith Ctr.                                01 
01060050001000010000000000002000008000000000000REP       United States Representative, Dist 17                   UNDER VOTES                           1-Calvert                                              01 
01060050002000014000000000002000012000000000000REP       United States Representative, Dist 17                   UNDER VOTES                           2-Hearne                                               01 
01060050003000006000000000001000005000000000000REP       United States Representative, Dist 17                   UNDER VOTES                           3-Wheelock                                             01 
01060050004000005000000000002000003000000000000REP       United States Representative, Dist 17                   UNDER VOTES                           4-Bald Prairie                                         01 
01060050005000022000000000007000015000000000000REP       United States Representative, Dist 17                   UNDER VOTES                           5-Bremond                                              01 
01060050006000021000000000010000011000000000000REP       United States Representative, Dist 17                   UNDER VOTES                           6-Franklin                                             01 
01060050007000000000000000000000000000000000000REP       United States Representative, Dist 17                   UNDER VOTES                           7-Mumford                                              01 
01060050008000002000000000000000002000000000000REP       United States Representative, Dist 17                   UNDER VOTES                           8-Seale                                                01 
01060050009000010000000000002000008000000000000REP       United States Representative, Dist 17                   UNDER VOTES                           11-Benchley                                            01 
01060050010000001000000000000000001000000000000REP       United States Representative, Dist 17                   UNDER VOTES                           13-Elliot                                              01 
01060050011000003000000000001000002000000000000REP       United States Representative, Dist 17                   UNDER VOTES                           16-Easterly                                            01 
01060050012000002000000000000000002000000000000REP       United States Representative, Dist 17                   UNDER VOTES                           18-Ridge                                               01 
01060050013000008000003000002000003000000000000REP       United States Representative, Dist 17                   UNDER VOTES                           19-New Baden                                           01 
01060050014000000000000000000000000000000000000REP       United States Representative, Dist 17                   UNDER VOTES                           22-Teal Center                                         01 
01060050015000005000000000002000003000000000000REP       United States Representative, Dist 17                   UNDER VOTES                           23-Christian Faith Ctr.                                01 
01070010001000034000001000017000016000000000000REP       Railroad Commissioner                                   Wayne Christian                       1-Calvert                                              01 
01070010002000037000000000015000022000000000000REP       Railroad Commissioner                                   Wayne Christian                       2-Hearne                                               01 
01070010003000045000000000012000033000000000000REP       Railroad Commissioner                                   Wayne Christian                       3-Wheelock                                             01 
01070010004000030000000000015000015000000000000REP       Railroad Commissioner                                   Wayne Christian                       4-Bald Prairie                                         01 
01070010005000058000007000011000040000000000000REP       Railroad Commissioner                                   Wayne Christian                       5-Bremond                                              01 
01070010006000073000003000031000039000000000000REP       Railroad Commissioner                                   Wayne Christian                       6-Franklin                                             01 
01070010007000000000000000000000000000000000000REP       Railroad Commissioner                                   Wayne Christian                       7-Mumford                                              01 
01070010008000022000001000002000019000000000000REP       Railroad Commissioner                                   Wayne Christian                       8-Seale                                                01 
01070010009000060000002000010000048000000000000REP       Railroad Commissioner                                   Wayne Christian                       11-Benchley                                            01 
01070010010000010000000000006000004000000000000REP       Railroad Commissioner                                   Wayne Christian                       13-Elliot                                              01 
01070010011000009000000000002000007000000000000REP       Railroad Commissioner                                   Wayne Christian                       16-Easterly                                            01 
01070010012000003000000000000000003000000000000REP       Railroad Commissioner                                   Wayne Christian                       18-Ridge                                               01 
01070010013000047000004000018000025000000000000REP       Railroad Commissioner                                   Wayne Christian                       19-New Baden                                           01 
01070010014000009000001000002000006000000000000REP       Railroad Commissioner                                   Wayne Christian                       22-Teal Center                                         01 
01070010015000014000001000003000010000000000000REP       Railroad Commissioner                                   Wayne Christian                       23-Christian Faith Ctr.                                01 
01070020001000047000000000018000029000000000000REP       Railroad Commissioner                                   Ron Hale                              1-Calvert                                              01 
01070020002000056000000000011000045000000000000REP       Railroad Commissioner                                   Ron Hale                              2-Hearne                                               01 
01070020003000037000001000015000021000000000000REP       Railroad Commissioner                                   Ron Hale                              3-Wheelock                                             01 
01070020004000042000000000021000021000000000000REP       Railroad Commissioner                                   Ron Hale                              4-Bald Prairie                                         01 
01070020005000073000003000023000047000000000000REP       Railroad Commissioner                                   Ron Hale                              5-Bremond                                              01 
01070020006000081000001000032000048000000000000REP       Railroad Commissioner                                   Ron Hale                              6-Franklin                                             01 
01070020007000000000000000000000000000000000000REP       Railroad Commissioner                                   Ron Hale                              7-Mumford                                              01 
01070020008000021000001000005000015000000000000REP       Railroad Commissioner                                   Ron Hale                              8-Seale                                                01 
01070020009000062000006000010000046000000000000REP       Railroad Commissioner                                   Ron Hale                              11-Benchley                                            01 
01070020010000017000000000006000011000000000000REP       Railroad Commissioner                                   Ron Hale                              13-Elliot                                              01 
01070020011000014000000000005000009000000000000REP       Railroad Commissioner                                   Ron Hale                              16-Easterly                                            01 
01070020012000007000000000003000004000000000000REP       Railroad Commissioner                                   Ron Hale                              18-Ridge                                               01 
01070020013000042000002000022000018000000000000REP       Railroad Commissioner                                   Ron Hale                              19-New Baden                                           01 
01070020014000008000000000004000004000000000000REP       Railroad Commissioner                                   Ron Hale                              22-Teal Center                                         01 
01070020015000018000001000004000013000000000000REP       Railroad Commissioner                                   Ron Hale                              23-Christian Faith Ctr.                                01 
01070030001000013000000000005000008000000000000REP       Railroad Commissioner                                   Doug Jeffrey                          1-Calvert                                              01 
01070030002000014000000000004000010000000000000REP       Railroad Commissioner                                   Doug Jeffrey                          2-Hearne                                               01 
01070030003000013000000000006000007000000000000REP       Railroad Commissioner                                   Doug Jeffrey                          3-Wheelock                                             01 
01070030004000009000000000004000005000000000000REP       Railroad Commissioner                                   Doug Jeffrey                          4-Bald Prairie                                         01 
01070030005000031000003000015000013000000000000REP       Railroad Commissioner                                   Doug Jeffrey                          5-Bremond                                              01 
01070030006000029000002000014000013000000000000REP       Railroad Commissioner                                   Doug Jeffrey                          6-Franklin                                             01 
01070030007000000000000000000000000000000000000REP       Railroad Commissioner                                   Doug Jeffrey                          7-Mumford                                              01 
01070030008000010000000000000000010000000000000REP       Railroad Commissioner                                   Doug Jeffrey                          8-Seale                                                01 
01070030009000018000000000001000017000000000000REP       Railroad Commissioner                                   Doug Jeffrey                          11-Benchley                                            01 
01070030010000004000000000002000002000000000000REP       Railroad Commissioner                                   Doug Jeffrey                          13-Elliot                                              01 
01070030011000002000000000001000001000000000000REP       Railroad Commissioner                                   Doug Jeffrey                          16-Easterly                                            01 
01070030012000002000000000001000001000000000000REP       Railroad Commissioner                                   Doug Jeffrey                          18-Ridge                                               01 
01070030013000015000001000010000004000000000000REP       Railroad Commissioner                                   Doug Jeffrey                          19-New Baden                                           01 
01070030014000006000001000002000003000000000000REP       Railroad Commissioner                                   Doug Jeffrey                          22-Teal Center                                         01 
01070030015000003000000000002000001000000000000REP       Railroad Commissioner                                   Doug Jeffrey                          23-Christian Faith Ctr.                                01 
01070040001000029000002000013000014000000000000REP       Railroad Commissioner                                   Gary Gates                            1-Calvert                                              01 
01070040002000047000002000019000026000000000000REP       Railroad Commissioner                                   Gary Gates                            2-Hearne                                               01 
01070040003000047000002000010000035000000000000REP       Railroad Commissioner                                   Gary Gates                            3-Wheelock                                             01 
01070040004000026000000000016000010000000000000REP       Railroad Commissioner                                   Gary Gates                            4-Bald Prairie                                         01 
01070040005000055000004000021000030000000000000REP       Railroad Commissioner                                   Gary Gates                            5-Bremond                                              01 
01070040006000056000000000026000030000000000000REP       Railroad Commissioner                                   Gary Gates                            6-Franklin                                             01 
01070040007000000000000000000000000000000000000REP       Railroad Commissioner                                   Gary Gates                            7-Mumford                                              01 
01070040008000031000000000007000024000000000000REP       Railroad Commissioner                                   Gary Gates                            8-Seale                                                01 
01070040009000047000004000013000030000000000000REP       Railroad Commissioner                                   Gary Gates                            11-Benchley                                            01 
01070040010000015000000000008000007000000000000REP       Railroad Commissioner                                   Gary Gates                            13-Elliot                                              01 
01070040011000012000000000009000003000000000000REP       Railroad Commissioner                                   Gary Gates                            16-Easterly                                            01 
01070040012000004000000000001000003000000000000REP       Railroad Commissioner                                   Gary Gates                            18-Ridge                                               01 
01070040013000030000002000015000013000000000000REP       Railroad Commissioner                                   Gary Gates                            19-New Baden                                           01 
01070040014000003000000000002000001000000000000REP       Railroad Commissioner                                   Gary Gates                            22-Teal Center                                         01 
01070040015000011000000000004000007000000000000REP       Railroad Commissioner                                   Gary Gates                            23-Christian Faith Ctr.                                01 
01070050001000013000000000006000007000000000000REP       Railroad Commissioner                                   Weston Martinez                       1-Calvert                                              01 
01070050002000019000000000001000018000000000000REP       Railroad Commissioner                                   Weston Martinez                       2-Hearne                                               01 
01070050003000013000000000002000011000000000000REP       Railroad Commissioner                                   Weston Martinez                       3-Wheelock                                             01 
01070050004000005000000000003000002000000000000REP       Railroad Commissioner                                   Weston Martinez                       4-Bald Prairie                                         01 
01070050005000009000000000001000008000000000000REP       Railroad Commissioner                                   Weston Martinez                       5-Bremond                                              01 
01070050006000021000002000007000012000000000000REP       Railroad Commissioner                                   Weston Martinez                       6-Franklin                                             01 
01070050007000000000000000000000000000000000000REP       Railroad Commissioner                                   Weston Martinez                       7-Mumford                                              01 
01070050008000010000002000001000007000000000000REP       Railroad Commissioner                                   Weston Martinez                       8-Seale                                                01 
01070050009000011000000000002000009000000000000REP       Railroad Commissioner                                   Weston Martinez                       11-Benchley                                            01 
01070050010000002000000000002000000000000000000REP       Railroad Commissioner                                   Weston Martinez                       13-Elliot                                              01 
01070050011000005000000000001000004000000000000REP       Railroad Commissioner                                   Weston Martinez                       16-Easterly                                            01 
01070050012000000000000000000000000000000000000REP       Railroad Commissioner                                   Weston Martinez                       18-Ridge                                               01 
01070050013000011000000000003000008000000000000REP       Railroad Commissioner                                   Weston Martinez                       19-New Baden                                           01 
01070050014000001000000000000000001000000000000REP       Railroad Commissioner                                   Weston Martinez                       22-Teal Center                                         01 
01070050015000006000000000002000004000000000000REP       Railroad Commissioner                                   Weston Martinez                       23-Christian Faith Ctr.                                01 
01070060001000010000001000004000005000000000000REP       Railroad Commissioner                                   Lance N. Christian                    1-Calvert                                              01 
01070060002000018000002000002000014000000000000REP       Railroad Commissioner                                   Lance N. Christian                    2-Hearne                                               01 
01070060003000014000000000007000007000000000000REP       Railroad Commissioner                                   Lance N. Christian                    3-Wheelock                                             01 
01070060004000007000000000005000002000000000000REP       Railroad Commissioner                                   Lance N. Christian                    4-Bald Prairie                                         01 
01070060005000010000002000000000008000000000000REP       Railroad Commissioner                                   Lance N. Christian                    5-Bremond                                              01 
01070060006000021000000000012000009000000000000REP       Railroad Commissioner                                   Lance N. Christian                    6-Franklin                                             01 
01070060007000000000000000000000000000000000000REP       Railroad Commissioner                                   Lance N. Christian                    7-Mumford                                              01 
01070060008000005000000000002000003000000000000REP       Railroad Commissioner                                   Lance N. Christian                    8-Seale                                                01 
01070060009000017000001000004000012000000000000REP       Railroad Commissioner                                   Lance N. Christian                    11-Benchley                                            01 
01070060010000001000000000001000000000000000000REP       Railroad Commissioner                                   Lance N. Christian                    13-Elliot                                              01 
01070060011000003000000000000000003000000000000REP       Railroad Commissioner                                   Lance N. Christian                    16-Easterly                                            01 
01070060012000003000000000002000001000000000000REP       Railroad Commissioner                                   Lance N. Christian                    18-Ridge                                               01 
01070060013000014000002000003000009000000000000REP       Railroad Commissioner                                   Lance N. Christian                    19-New Baden                                           01 
01070060014000005000000000002000003000000000000REP       Railroad Commissioner                                   Lance N. Christian                    22-Teal Center                                         01 
01070060015000006000000000002000004000000000000REP       Railroad Commissioner                                   Lance N. Christian                    23-Christian Faith Ctr.                                01 
01070070001000010000000000006000004000000000000REP       Railroad Commissioner                                   John Greytok                          1-Calvert                                              01 
01070070002000013000002000007000004000000000000REP       Railroad Commissioner                                   John Greytok                          2-Hearne                                               01 
01070070003000011000000000003000008000000000000REP       Railroad Commissioner                                   John Greytok                          3-Wheelock                                             01 
01070070004000008000000000002000006000000000000REP       Railroad Commissioner                                   John Greytok                          4-Bald Prairie                                         01 
01070070005000011000000000006000005000000000000REP       Railroad Commissioner                                   John Greytok                          5-Bremond                                              01 
01070070006000019000001000008000010000000000000REP       Railroad Commissioner                                   John Greytok                          6-Franklin                                             01 
01070070007000000000000000000000000000000000000REP       Railroad Commissioner                                   John Greytok                          7-Mumford                                              01 
01070070008000002000000000001000001000000000000REP       Railroad Commissioner                                   John Greytok                          8-Seale                                                01 
