01010010001001231000000000000000000000000000000          REGISTERED VOTERS - TOTAL                               REGISTERED VOTERS - TOTAL             1-Calvert                                              00 
01010010002001560000000000000000000000000000000          REGISTERED VOTERS - TOTAL                               REGISTERED VOTERS - TOTAL             2-Hearne                                               00 
01010010003000536000000000000000000000000000000          REGISTERED VOTERS - TOTAL                               REGISTERED VOTERS - TOTAL             3-Wheelock                                             00 
01010010004000490000000000000000000000000000000          REGISTERED VOTERS - TOTAL                               REGISTERED VOTERS - TOTAL             4-Bald Prairie                                         00 
01010010005001544000000000000000000000000000000          REGISTERED VOTERS - TOTAL                               REGISTERED VOTERS - TOTAL             5-Bremond                                              00 
01010010006001543000000000000000000000000000000          REGISTERED VOTERS - TOTAL                               REGISTERED VOTERS - TOTAL             6-Franklin                                             00 
01010010007000092000000000000000000000000000000          REGISTERED VOTERS - TOTAL                               REGISTERED VOTERS - TOTAL             7-Mumford                                              00 
01010010008000240000000000000000000000000000000          REGISTERED VOTERS - TOTAL                               REGISTERED VOTERS - TOTAL             8-Seale                                                00 
01010010009001098000000000000000000000000000000          REGISTERED VOTERS - TOTAL                               REGISTERED VOTERS - TOTAL             11-Benchley                                            00 
01010010010000176000000000000000000000000000000          REGISTERED VOTERS - TOTAL                               REGISTERED VOTERS - TOTAL             13-Elliot                                              00 
01010010011000156000000000000000000000000000000          REGISTERED VOTERS - TOTAL                               REGISTERED VOTERS - TOTAL             16-Easterly                                            00 
01010010012000098000000000000000000000000000000          REGISTERED VOTERS - TOTAL                               REGISTERED VOTERS - TOTAL             18-Ridge                                               00 
01010010013000530000000000000000000000000000000          REGISTERED VOTERS - TOTAL                               REGISTERED VOTERS - TOTAL             19-New Baden                                           00 
01010010014001409000000000000000000000000000000          REGISTERED VOTERS - TOTAL                               REGISTERED VOTERS - TOTAL             22-Teal Center                                         00 
01010010015000822000000000000000000000000000000          REGISTERED VOTERS - TOTAL                               REGISTERED VOTERS - TOTAL             23-Christian Faith Ctr.                                00 
01020010001000765000060000450000255000000000000          BALLOTS CAST - TOTAL                                    BALLOTS CAST - TOTAL                  1-Calvert                                              00 
01020010002000861000059000501000301000000000000          BALLOTS CAST - TOTAL                                    BALLOTS CAST - TOTAL                  2-Hearne                                               00 
01020010003000393000019000207000167000000000000          BALLOTS CAST - TOTAL                                    BALLOTS CAST - TOTAL                  3-Wheelock                                             00 
01020010004000372000012000296000064000000000000          BALLOTS CAST - TOTAL                                    BALLOTS CAST - TOTAL                  4-Bald Prairie                                         00 
01020010005001014000077000555000382000000000000          BALLOTS CAST - TOTAL                                    BALLOTS CAST - TOTAL                  5-Bremond                                              00 
01020010006000964000047000671000246000000000000          BALLOTS CAST - TOTAL                                    BALLOTS CAST - TOTAL                  6-Franklin                                             00 
01020010007000046000004000005000037000000000000          BALLOTS CAST - TOTAL                                    BALLOTS CAST - TOTAL                  7-Mumford                                              00 
01020010008000183000016000047000120000000000000          BALLOTS CAST - TOTAL                                    BALLOTS CAST - TOTAL                  8-Seale                                                00 
01020010009000694000044000320000330000000000000          BALLOTS CAST - TOTAL                                    BALLOTS CAST - TOTAL                  11-Benchley                                            00 
01020010010000132000002000117000013000000000000          BALLOTS CAST - TOTAL                                    BALLOTS CAST - TOTAL                  13-Elliot                                              00 
01020010011000115000005000067000043000000000000          BALLOTS CAST - TOTAL                                    BALLOTS CAST - TOTAL                  16-Easterly                                            00 
01020010012000065000002000035000028000000000000          BALLOTS CAST - TOTAL                                    BALLOTS CAST - TOTAL                  18-Ridge                                               00 
01020010013000400000020000268000112000000000000          BALLOTS CAST - TOTAL                                    BALLOTS CAST - TOTAL                  19-New Baden                                           00 
01020010014000715000125000360000230000000000000          BALLOTS CAST - TOTAL                                    BALLOTS CAST - TOTAL                  22-Teal Center                                         00 
01020010015000394000035000203000156000000000000          BALLOTS CAST - TOTAL                                    BALLOTS CAST - TOTAL                  23-Christian Faith Ctr.                                00 
01030010001000151000014000087000050000000000000REP       Straight Party                                          Republican Party                      1-Calvert                                              01 
01030010002000178000023000100000055000000000000REP       Straight Party                                          Republican Party                      2-Hearne                                               01 
01030010003000094000006000049000039000000000000REP       Straight Party                                          Republican Party                      3-Wheelock                                             01 
01030010004000102000002000081000019000000000000REP       Straight Party                                          Republican Party                      4-Bald Prairie                                         01 
01030010005000293000022000177000094000000000000REP       Straight Party                                          Republican Party                      5-Bremond                                              01 
01030010006000267000012000187000068000000000000REP       Straight Party                                          Republican Party                      6-Franklin                                             01 
01030010007000007000000000000000007000000000000REP       Straight Party                                          Republican Party                      7-Mumford                                              01 
01030010008000077000009000016000052000000000000REP       Straight Party                                          Republican Party                      8-Seale                                                01 
01030010009000227000015000091000121000000000000REP       Straight Party                                          Republican Party                      11-Benchley                                            01 
01030010010000041000000000037000004000000000000REP       Straight Party                                          Republican Party                      13-Elliot                                              01 
01030010011000026000001000017000008000000000000REP       Straight Party                                          Republican Party                      16-Easterly                                            01 
01030010012000029000000000018000011000000000000REP       Straight Party                                          Republican Party                      18-Ridge                                               01 
01030010013000125000007000088000030000000000000REP       Straight Party                                          Republican Party                      19-New Baden                                           01 
01030010014000049000006000025000018000000000000REP       Straight Party                                          Republican Party                      22-Teal Center                                         01 
01030010015000063000002000031000030000000000000REP       Straight Party                                          Republican Party                      23-Christian Faith Ctr.                                01 
01030020001000256000029000127000100000000000000DEM       Straight Party                                          Democratic Party                      1-Calvert                                              01 
01030020002000206000017000096000093000000000000DEM       Straight Party                                          Democratic Party                      2-Hearne                                               01 
01030020003000012000004000002000006000000000000DEM       Straight Party                                          Democratic Party                      3-Wheelock                                             01 
01030020004000020000003000012000005000000000000DEM       Straight Party                                          Democratic Party                      4-Bald Prairie                                         01 
01030020005000116000015000041000060000000000000DEM       Straight Party                                          Democratic Party                      5-Bremond                                              01 
01030020006000094000007000057000030000000000000DEM       Straight Party                                          Democratic Party                      6-Franklin                                             01 
01030020007000013000002000000000011000000000000DEM       Straight Party                                          Democratic Party                      7-Mumford                                              01 
01030020008000008000001000003000004000000000000DEM       Straight Party                                          Democratic Party                      8-Seale                                                01 
01030020009000063000006000023000034000000000000DEM       Straight Party                                          Democratic Party                      11-Benchley                                            01 
01030020010000004000000000003000001000000000000DEM       Straight Party                                          Democratic Party                      13-Elliot                                              01 
01030020011000005000000000001000004000000000000DEM       Straight Party                                          Democratic Party                      16-Easterly                                            01 
01030020012000002000000000002000000000000000000DEM       Straight Party                                          Democratic Party                      18-Ridge                                               01 
01030020013000017000001000008000008000000000000DEM       Straight Party                                          Democratic Party                      19-New Baden                                           01 
01030020014000467000091000238000138000000000000DEM       Straight Party                                          Democratic Party                      22-Teal Center                                         01 
01030020015000150000020000074000056000000000000DEM       Straight Party                                          Democratic Party                      23-Christian Faith Ctr.                                01 
01030030001000006000000000003000003000000000000LIB       Straight Party                                          Libertarian Party                     1-Calvert                                              01 
01030030002000004000000000001000003000000000000LIB       Straight Party                                          Libertarian Party                     2-Hearne                                               01 
01030030003000002000001000001000000000000000000LIB       Straight Party                                          Libertarian Party                     3-Wheelock                                             01 
01030030004000001000000000001000000000000000000LIB       Straight Party                                          Libertarian Party                     4-Bald Prairie                                         01 
01030030005000004000000000002000002000000000000LIB       Straight Party                                          Libertarian Party                     5-Bremond                                              01 
01030030006000004000000000004000000000000000000LIB       Straight Party                                          Libertarian Party                     6-Franklin                                             01 
01030030007000000000000000000000000000000000000LIB       Straight Party                                          Libertarian Party                     7-Mumford                                              01 
01030030008000000000000000000000000000000000000LIB       Straight Party                                          Libertarian Party                     8-Seale                                                01 
01030030009000003000000000001000002000000000000LIB       Straight Party                                          Libertarian Party                     11-Benchley                                            01 
01030030010000000000000000000000000000000000000LIB       Straight Party                                          Libertarian Party                     13-Elliot                                              01 
01030030011000000000000000000000000000000000000LIB       Straight Party                                          Libertarian Party                     16-Easterly                                            01 
01030030012000000000000000000000000000000000000LIB       Straight Party                                          Libertarian Party                     18-Ridge                                               01 
01030030013000002000000000001000001000000000000LIB       Straight Party                                          Libertarian Party                     19-New Baden                                           01 
01030030014000003000000000002000001000000000000LIB       Straight Party                                          Libertarian Party                     22-Teal Center                                         01 
01030030015000000000000000000000000000000000000LIB       Straight Party                                          Libertarian Party                     23-Christian Faith Ctr.                                01 
01030040001000001000000000001000000000000000000GRN       Straight Party                                          Green Party                           1-Calvert                                              01 
01030040002000001000000000000000001000000000000GRN       Straight Party                                          Green Party                           2-Hearne                                               01 
01030040003000000000000000000000000000000000000GRN       Straight Party                                          Green Party                           3-Wheelock                                             01 
01030040004000002000000000001000001000000000000GRN       Straight Party                                          Green Party                           4-Bald Prairie                                         01 
01030040005000001000000000000000001000000000000GRN       Straight Party                                          Green Party                           5-Bremond                                              01 
01030040006000000000000000000000000000000000000GRN       Straight Party                                          Green Party                           6-Franklin                                             01 
01030040007000001000000000001000000000000000000GRN       Straight Party                                          Green Party                           7-Mumford                                              01 
01030040008000000000000000000000000000000000000GRN       Straight Party                                          Green Party                           8-Seale                                                01 
01030040009000000000000000000000000000000000000GRN       Straight Party                                          Green Party                           11-Benchley                                            01 
01030040010000000000000000000000000000000000000GRN       Straight Party                                          Green Party                           13-Elliot                                              01 
01030040011000000000000000000000000000000000000GRN       Straight Party                                          Green Party                           16-Easterly                                            01 
01030040012000000000000000000000000000000000000GRN       Straight Party                                          Green Party                           18-Ridge                                               01 
01030040013000001000000000001000000000000000000GRN       Straight Party                                          Green Party                           19-New Baden                                           01 
01030040014000002000000000002000000000000000000GRN       Straight Party                                          Green Party                           22-Teal Center                                         01 
01030040015000002000000000000000002000000000000GRN       Straight Party                                          Green Party                           23-Christian Faith Ctr.                                01 
01030050001000001000000000001000000000000000000          Straight Party                                          OVER VOTES                            1-Calvert                                              01 
01030050002000000000000000000000000000000000000          Straight Party                                          OVER VOTES                            2-Hearne                                               01 
01030050003000000000000000000000000000000000000          Straight Party                                          OVER VOTES                            3-Wheelock                                             01 
01030050004000000000000000000000000000000000000          Straight Party                                          OVER VOTES                            4-Bald Prairie                                         01 
01030050005000000000000000000000000000000000000          Straight Party                                          OVER VOTES                            5-Bremond                                              01 
01030050006000000000000000000000000000000000000          Straight Party                                          OVER VOTES                            6-Franklin                                             01 
01030050007000000000000000000000000000000000000          Straight Party                                          OVER VOTES                            7-Mumford                                              01 
01030050008000000000000000000000000000000000000          Straight Party                                          OVER VOTES                            8-Seale                                                01 
01030050009000000000000000000000000000000000000          Straight Party                                          OVER VOTES                            11-Benchley                                            01 
01030050010000000000000000000000000000000000000          Straight Party                                          OVER VOTES                            13-Elliot                                              01 
01030050011000000000000000000000000000000000000          Straight Party                                          OVER VOTES                            16-Easterly                                            01 
01030050012000000000000000000000000000000000000          Straight Party                                          OVER VOTES                            18-Ridge                                               01 
01030050013000000000000000000000000000000000000          Straight Party                                          OVER VOTES                            19-New Baden                                           01 
01030050014000000000000000000000000000000000000          Straight Party                                          OVER VOTES                            22-Teal Center                                         01 
01030050015000000000000000000000000000000000000          Straight Party                                          OVER VOTES                            23-Christian Faith Ctr.                                01 
01030060001000350000017000231000102000000000000          Straight Party                                          UNDER VOTES                           1-Calvert                                              01 
01030060002000474000019000305000150000000000000          Straight Party                                          UNDER VOTES                           2-Hearne                                               01 
01030060003000285000008000155000122000000000000          Straight Party                                          UNDER VOTES                           3-Wheelock                                             01 
01030060004000247000007000201000039000000000000          Straight Party                                          UNDER VOTES                           4-Bald Prairie                                         01 
01030060005000600000040000335000225000000000000          Straight Party                                          UNDER VOTES                           5-Bremond                                              01 
01030060006000600000028000424000148000000000000          Straight Party                                          UNDER VOTES                           6-Franklin                                             01 
01030060007000025000002000004000019000000000000          Straight Party                                          UNDER VOTES                           7-Mumford                                              01 
01030060008000099000006000028000065000000000000          Straight Party                                          UNDER VOTES                           8-Seale                                                01 
01030060009000401000023000205000173000000000000          Straight Party                                          UNDER VOTES                           11-Benchley                                            01 
01030060010000087000002000077000008000000000000          Straight Party                                          UNDER VOTES                           13-Elliot                                              01 
01030060011000084000004000049000031000000000000          Straight Party                                          UNDER VOTES                           16-Easterly                                            01 
01030060012000034000002000015000017000000000000          Straight Party                                          UNDER VOTES                           18-Ridge                                               01 
01030060013000255000012000170000073000000000000          Straight Party                                          UNDER VOTES                           19-New Baden                                           01 
01030060014000194000028000093000073000000000000          Straight Party                                          UNDER VOTES                           22-Teal Center                                         01 
01030060015000179000013000098000068000000000000          Straight Party                                          UNDER VOTES                           23-Christian Faith Ctr.                                01 
01040010001000398000025000253000120000000000000REP       President and Vice President                            Donald J. Trump / Mike Pence          1-Calvert                                              01 
01040010002000503000033000330000140000000000000REP       President and Vice President                            Donald J. Trump / Mike Pence          2-Hearne                                               01 
01040010003000333000012000182000139000000000000REP       President and Vice President                            Donald J. Trump / Mike Pence          3-Wheelock                                             01 
01040010004000316000007000257000052000000000000REP       President and Vice President                            Donald J. Trump / Mike Pence          4-Bald Prairie                                         01 
01040010005000761000046000450000265000000000000REP       President and Vice President                            Donald J. Trump / Mike Pence          5-Bremond                                              01 
01040010006000769000029000549000191000000000000REP       President and Vice President                            Donald J. Trump / Mike Pence          6-Franklin                                             01 
01040010007000023000001000001000021000000000000REP       President and Vice President                            Donald J. Trump / Mike Pence          7-Mumford                                              01 
01040010008000158000013000042000103000000000000REP       President and Vice President                            Donald J. Trump / Mike Pence          8-Seale                                                01 
01040010009000521000027000246000248000000000000REP       President and Vice President                            Donald J. Trump / Mike Pence          11-Benchley                                            01 
01040010010000116000002000105000009000000000000REP       President and Vice President                            Donald J. Trump / Mike Pence          13-Elliot                                              01 
01040010011000093000004000055000034000000000000REP       President and Vice President                            Donald J. Trump / Mike Pence          16-Easterly                                            01 
01040010012000055000002000031000022000000000000REP       President and Vice President                            Donald J. Trump / Mike Pence          18-Ridge                                               01 
01040010013000345000016000239000090000000000000REP       President and Vice President                            Donald J. Trump / Mike Pence          19-New Baden                                           01 
01040010014000106000009000060000037000000000000REP       President and Vice President                            Donald J. Trump / Mike Pence          22-Teal Center                                         01 
01040010015000171000009000090000072000000000000REP       President and Vice President                            Donald J. Trump / Mike Pence          23-Christian Faith Ctr.                                01 
01040020001000335000033000179000123000000000000DEM       President and Vice President                            Hillary Clinton / Tim Kaine           1-Calvert                                              01 
01040020002000327000026000155000146000000000000DEM       President and Vice President                            Hillary Clinton / Tim Kaine           2-Hearne                                               01 
01040020003000046000005000019000022000000000000DEM       President and Vice President                            Hillary Clinton / Tim Kaine           3-Wheelock                                             01 
01040020004000044000005000031000008000000000000DEM       President and Vice President                            Hillary Clinton / Tim Kaine           4-Bald Prairie                                         01 
01040020005000223000029000094000100000000000000DEM       President and Vice President                            Hillary Clinton / Tim Kaine           5-Bremond                                              01 
01040020006000164000016000099000049000000000000DEM       President and Vice President                            Hillary Clinton / Tim Kaine           6-Franklin                                             01 
01040020007000022000003000003000016000000000000DEM       President and Vice President                            Hillary Clinton / Tim Kaine           7-Mumford                                              01 
01040020008000022000002000005000015000000000000DEM       President and Vice President                            Hillary Clinton / Tim Kaine           8-Seale                                                01 
01040020009000145000016000058000071000000000000DEM       President and Vice President                            Hillary Clinton / Tim Kaine           11-Benchley                                            01 
01040020010000013000000000010000003000000000000DEM       President and Vice President                            Hillary Clinton / Tim Kaine           13-Elliot                                              01 
01040020011000012000000000006000006000000000000DEM       President and Vice President                            Hillary Clinton / Tim Kaine           16-Easterly                                            01 
01040020012000008000000000004000004000000000000DEM       President and Vice President                            Hillary Clinton / Tim Kaine           18-Ridge                                               01 
01040020013000041000003000022000016000000000000DEM       President and Vice President                            Hillary Clinton / Tim Kaine           19-New Baden                                           01 
01040020014000591000115000287000189000000000000DEM       President and Vice President                            Hillary Clinton / Tim Kaine           22-Teal Center                                         01 
01040020015000210000023000107000080000000000000DEM       President and Vice President                            Hillary Clinton / Tim Kaine           23-Christian Faith Ctr.                                01 
01040030001000015000001000009000005000000000000LIB       President and Vice President                            Gary Johnson / William Weld           1-Calvert                                              01 
01040030002000018000000000011000007000000000000LIB       President and Vice President                            Gary Johnson / William Weld           2-Hearne                                               01 
01040030003000008000002000003000003000000000000LIB       President and Vice President                            Gary Johnson / William Weld           3-Wheelock                                             01 
01040030004000008000000000005000003000000000000LIB       President and Vice President                            Gary Johnson / William Weld           4-Bald Prairie                                         01 
01040030005000015000000000007000008000000000000LIB       President and Vice President                            Gary Johnson / William Weld           5-Bremond                                              01 
01040030006000019000002000015000002000000000000LIB       President and Vice President                            Gary Johnson / William Weld           6-Franklin                                             01 
01040030007000000000000000000000000000000000000LIB       President and Vice President                            Gary Johnson / William Weld           7-Mumford                                              01 
01040030008000001000000000000000001000000000000LIB       President and Vice President                            Gary Johnson / William Weld           8-Seale                                                01 
01040030009000015000000000008000007000000000000LIB       President and Vice President                            Gary Johnson / William Weld           11-Benchley                                            01 
01040030010000002000000000001000001000000000000LIB       President and Vice President                            Gary Johnson / William Weld           13-Elliot                                              01 
01040030011000003000000000001000002000000000000LIB       President and Vice President                            Gary Johnson / William Weld           16-Easterly                                            01 
01040030012000002000000000000000002000000000000LIB       President and Vice President                            Gary Johnson / William Weld           18-Ridge                                               01 
01040030013000004000000000003000001000000000000LIB       President and Vice President                            Gary Johnson / William Weld           19-New Baden                                           01 
01040030014000009000001000006000002000000000000LIB       President and Vice President                            Gary Johnson / William Weld           22-Teal Center                                         01 
01040030015000006000001000001000004000000000000LIB       President and Vice President                            Gary Johnson / William Weld           23-Christian Faith Ctr.                                01 
01040040001000005000000000001000004000000000000GRN       President and Vice President                            Jill Stein / Ajamu Baraka             1-Calvert                                              01 
01040040002000001000000000000000001000000000000GRN       President and Vice President                            Jill Stein / Ajamu Baraka             2-Hearne                                               01 
01040040003000001000000000000000001000000000000GRN       President and Vice President                            Jill Stein / Ajamu Baraka             3-Wheelock                                             01 
01040040004000001000000000001000000000000000000GRN       President and Vice President                            Jill Stein / Ajamu Baraka             4-Bald Prairie                                         01 
01040040005000001000000000000000001000000000000GRN       President and Vice President                            Jill Stein / Ajamu Baraka             5-Bremond                                              01 
01040040006000002000000000002000000000000000000GRN       President and Vice President                            Jill Stein / Ajamu Baraka             6-Franklin                                             01 
01040040007000000000000000000000000000000000000GRN       President and Vice President                            Jill Stein / Ajamu Baraka             7-Mumford                                              01 
01040040008000001000000000000000001000000000000GRN       President and Vice President                            Jill Stein / Ajamu Baraka             8-Seale                                                01 
01040040009000001000000000001000000000000000000GRN       President and Vice President                            Jill Stein / Ajamu Baraka             11-Benchley                                            01 
01040040010000000000000000000000000000000000000GRN       President and Vice President                            Jill Stein / Ajamu Baraka             13-Elliot                                              01 
01040040011000000000000000000000000000000000000GRN       President and Vice President                            Jill Stein / Ajamu Baraka             16-Easterly                                            01 
01040040012000000000000000000000000000000000000GRN       President and Vice President                            Jill Stein / Ajamu Baraka             18-Ridge                                               01 
01040040013000001000000000001000000000000000000GRN       President and Vice President                            Jill Stein / Ajamu Baraka             19-New Baden                                           01 
01040040014000001000000000001000000000000000000GRN       President and Vice President                            Jill Stein / Ajamu Baraka             22-Teal Center                                         01 
01040040015000002000000000002000000000000000000GRN       President and Vice President                            Jill Stein / Ajamu Baraka             23-Christian Faith Ctr.                                01 
01040050001000004000000000004000000000000000000NON       President and Vice President                            WRITE-IN                              1-Calvert                                              01 
01040050002000003000000000001000002000000000000NON       President and Vice President                            WRITE-IN                              2-Hearne                                               01 
01040050003000003000000000002000001000000000000NON       President and Vice President                            WRITE-IN                              3-Wheelock                                             01 
01040050004000003000000000002000001000000000000NON       President and Vice President                            WRITE-IN                              4-Bald Prairie                                         01 
01040050005000005000000000002000003000000000000NON       President and Vice President                            WRITE-IN                              5-Bremond                                              01 
01040050006000002000000000001000001000000000000NON       President and Vice President                            WRITE-IN                              6-Franklin                                             01 
01040050007000001000000000001000000000000000000NON       President and Vice President                            WRITE-IN                              7-Mumford                                              01 
01040050008000000000000000000000000000000000000NON       President and Vice President                            WRITE-IN                              8-Seale                                                01 
01040050009000006000001000004000001000000000000NON       President and Vice President                            WRITE-IN                              11-Benchley                                            01 
01040050010000000000000000000000000000000000000NON       President and Vice President                            WRITE-IN                              13-Elliot                                              01 
01040050011000005000000000004000001000000000000NON       President and Vice President                            WRITE-IN                              16-Easterly                                            01 
01040050012000000000000000000000000000000000000NON       President and Vice President                            WRITE-IN                              18-Ridge                                               01 
01040050013000004000000000002000002000000000000NON       President and Vice President                            WRITE-IN                              19-New Baden                                           01 
01040050014000002000000000002000000000000000000NON       President and Vice President                            WRITE-IN                              22-Teal Center                                         01 
01040050015000002000002000000000000000000000000NON       President and Vice President                            WRITE-IN                              23-Christian Faith Ctr.                                01 
01040060001000000000000000000000000000000000000          President and Vice President                            OVER VOTES                            1-Calvert                                              01 
01040060002000002000000000002000000000000000000          President and Vice President                            OVER VOTES                            2-Hearne                                               01 
01040060003000000000000000000000000000000000000          President and Vice President                            OVER VOTES                            3-Wheelock                                             01 
01040060004000000000000000000000000000000000000          President and Vice President                            OVER VOTES                            4-Bald Prairie                                         01 
01040060005000000000000000000000000000000000000          President and Vice President                            OVER VOTES                            5-Bremond                                              01 
01040060006000000000000000000000000000000000000          President and Vice President                            OVER VOTES                            6-Franklin                                             01 
01040060007000000000000000000000000000000000000          President and Vice President                            OVER VOTES                            7-Mumford                                              01 
01040060008000000000000000000000000000000000000          President and Vice President                            OVER VOTES                            8-Seale                                                01 
01040060009000000000000000000000000000000000000          President and Vice President                            OVER VOTES                            11-Benchley                                            01 
01040060010000000000000000000000000000000000000          President and Vice President                            OVER VOTES                            13-Elliot                                              01 
01040060011000000000000000000000000000000000000          President and Vice President                            OVER VOTES                            16-Easterly                                            01 
01040060012000000000000000000000000000000000000          President and Vice President                            OVER VOTES                            18-Ridge                                               01 
01040060013000000000000000000000000000000000000          President and Vice President                            OVER VOTES                            19-New Baden                                           01 
01040060014000000000000000000000000000000000000          President and Vice President                            OVER VOTES                            22-Teal Center                                         01 
01040060015000000000000000000000000000000000000          President and Vice President                            OVER VOTES                            23-Christian Faith Ctr.                                01 
01040070001000008000001000004000003000000000000          President and Vice President                            UNDER VOTES                           1-Calvert                                              01 
01040070002000008000000000003000005000000000000          President and Vice President                            UNDER VOTES                           2-Hearne                                               01 
01040070003000002000000000001000001000000000000          President and Vice President                            UNDER VOTES                           3-Wheelock                                             01 
01040070004000000000000000000000000000000000000          President and Vice President                            UNDER VOTES                           4-Bald Prairie                                         01 
01040070005000009000002000002000005000000000000          President and Vice President                            UNDER VOTES                           5-Bremond                                              01 
01040070006000010000000000007000003000000000000          President and Vice President                            UNDER VOTES                           6-Franklin                                             01 
01040070007000000000000000000000000000000000000          President and Vice President                            UNDER VOTES                           7-Mumford                                              01 
01040070008000001000001000000000000000000000000          President and Vice President                            UNDER VOTES                           8-Seale                                                01 
01040070009000006000000000003000003000000000000          President and Vice President                            UNDER VOTES                           11-Benchley                                            01 
01040070010000001000000000001000000000000000000          President and Vice President                            UNDER VOTES                           13-Elliot                                              01 
01040070011000002000001000001000000000000000000          President and Vice President                            UNDER VOTES                           16-Easterly                                            01 
01040070012000000000000000000000000000000000000          President and Vice President                            UNDER VOTES                           18-Ridge                                               01 
01040070013000005000001000001000003000000000000          President and Vice President                            UNDER VOTES                           19-New Baden                                           01 
01040070014000006000000000004000002000000000000          President and Vice President                            UNDER VOTES                           22-Teal Center                                         01 
01040070015000003000000000003000000000000000000          President and Vice President                            UNDER VOTES                           23-Christian Faith Ctr.                                01 
01050010001000404000026000251000127000000000000REP       United States Representative, Dist 17                   Bill Flores                           1-Calvert                                              01 
01050010002000534000033000339000162000000000000REP       United States Representative, Dist 17                   Bill Flores                           2-Hearne                                               01 
01050010003000347000014000186000147000000000000REP       United States Representative, Dist 17                   Bill Flores                           3-Wheelock                                             01 
01050010004000321000006000258000057000000000000REP       United States Representative, Dist 17                   Bill Flores                           4-Bald Prairie                                         01 
01050010005000750000046000440000264000000000000REP       United States Representative, Dist 17                   Bill Flores                           5-Bremond                                              01 
01050010006000767000030000550000187000000000000REP       United States Representative, Dist 17                   Bill Flores                           6-Franklin                                             01 
01050010007000024000000000002000022000000000000REP       United States Representative, Dist 17                   Bill Flores                           7-Mumford                                              01 
01050010008000159000013000041000105000000000000REP       United States Representative, Dist 17                   Bill Flores                           8-Seale                                                01 
01050010009000540000031000251000258000000000000REP       United States Representative, Dist 17                   Bill Flores                           11-Benchley                                            01 
01050010010000118000000000108000010000000000000REP       United States Representative, Dist 17                   Bill Flores                           13-Elliot                                              01 
01050010011000097000004000059000034000000000000REP       United States Representative, Dist 17                   Bill Flores                           16-Easterly                                            01 
01050010012000052000002000031000019000000000000REP       United States Representative, Dist 17                   Bill Flores                           18-Ridge                                               01 
01050010013000339000017000236000086000000000000REP       United States Representative, Dist 17                   Bill Flores                           19-New Baden                                           01 
01050010014000114000010000065000039000000000000REP       United States Representative, Dist 17                   Bill Flores                           22-Teal Center                                         01 
01050010015000197000012000101000084000000000000REP       United States Representative, Dist 17                   Bill Flores                           23-Christian Faith Ctr.                                01 
01050020001000313000032000166000115000000000000DEM       United States Representative, Dist 17                   William Matta                         1-Calvert                                              01 
01050020002000285000025000138000122000000000000DEM       United States Representative, Dist 17                   William Matta                         2-Hearne                                               01 
01050020003000034000005000015000014000000000000DEM       United States Representative, Dist 17                   William Matta                         3-Wheelock                                             01 
01050020004000039000006000027000006000000000000DEM       United States Representative, Dist 17                   William Matta                         4-Bald Prairie                                         01 
01050020005000195000025000083000087000000000000DEM       United States Representative, Dist 17                   William Matta                         5-Bremond                                              01 
01050020006000152000014000090000048000000000000DEM       United States Representative, Dist 17                   William Matta                         6-Franklin                                             01 
01050020007000019000003000003000013000000000000DEM       United States Representative, Dist 17                   William Matta                         7-Mumford                                              01 
01050020008000022000003000005000014000000000000DEM       United States Representative, Dist 17                   William Matta                         8-Seale                                                01 
01050020009000120000013000048000059000000000000DEM       United States Representative, Dist 17                   William Matta                         11-Benchley                                            01 
01050020010000008000000000006000002000000000000DEM       United States Representative, Dist 17                   William Matta                         13-Elliot                                              01 
01050020011000012000000000007000005000000000000DEM       United States Representative, Dist 17                   William Matta                         16-Easterly                                            01 
01050020012000007000000000003000004000000000000DEM       United States Representative, Dist 17                   William Matta                         18-Ridge                                               01 
01050020013000039000003000021000015000000000000DEM       United States Representative, Dist 17                   William Matta                         19-New Baden                                           01 
01050020014000574000113000283000178000000000000DEM       United States Representative, Dist 17                   William Matta                         22-Teal Center                                         01 
01050020015000181000023000092000066000000000000DEM       United States Representative, Dist 17                   William Matta                         23-Christian Faith Ctr.                                01 
01050030001000020000000000017000003000000000000LIB       United States Representative, Dist 17                   Clark Patterson                       1-Calvert                                              01 
01050030002000015000000000010000005000000000000LIB       United States Representative, Dist 17                   Clark Patterson                       2-Hearne                                               01 
01050030003000006000000000003000003000000000000LIB       United States Representative, Dist 17                   Clark Patterson                       3-Wheelock                                             01 
01050030004000004000000000004000000000000000000LIB       United States Representative, Dist 17                   Clark Patterson                       4-Bald Prairie                                         01 
01050030005000018000000000014000004000000000000LIB       United States Representative, Dist 17                   Clark Patterson                       5-Bremond                                              01 
01050030006000012000001000008000003000000000000LIB       United States Representative, Dist 17                   Clark Patterson                       6-Franklin                                             01 
01050030007000000000000000000000000000000000000LIB       United States Representative, Dist 17                   Clark Patterson                       7-Mumford                                              01 
01050030008000000000000000000000000000000000000LIB       United States Representative, Dist 17                   Clark Patterson                       8-Seale                                                01 
01050030009000022000000000013000009000000000000LIB       United States Representative, Dist 17                   Clark Patterson                       11-Benchley                                            01 
01050030010000001000000000001000000000000000000LIB       United States Representative, Dist 17                   Clark Patterson                       13-Elliot                                              01 
01050030011000004000000000001000003000000000000LIB       United States Representative, Dist 17                   Clark Patterson                       16-Easterly                                            01 
01050030012000003000000000001000002000000000000LIB       United States Representative, Dist 17                   Clark Patterson                       18-Ridge                                               01 
01050030013000009000000000006000003000000000000LIB       United States Representative, Dist 17                   Clark Patterson                       19-New Baden                                           01 
01050030014000010000001000004000005000000000000LIB       United States Representative, Dist 17                   Clark Patterson                       22-Teal Center                                         01 
01050030015000004000000000002000002000000000000LIB       United States Representative, Dist 17                   Clark Patterson                       23-Christian Faith Ctr.                                01 
01050040001000000000000000000000000000000000000          United States Representative, Dist 17                   OVER VOTES                            1-Calvert                                              01 
01050040002000000000000000000000000000000000000          United States Representative, Dist 17                   OVER VOTES                            2-Hearne                                               01 
01050040003000000000000000000000000000000000000          United States Representative, Dist 17                   OVER VOTES                            3-Wheelock                                             01 
01050040004000000000000000000000000000000000000          United States Representative, Dist 17                   OVER VOTES                            4-Bald Prairie                                         01 
01050040005000000000000000000000000000000000000          United States Representative, Dist 17                   OVER VOTES                            5-Bremond                                              01 
01050040006000000000000000000000000000000000000          United States Representative, Dist 17                   OVER VOTES                            6-Franklin                                             01 
01050040007000000000000000000000000000000000000          United States Representative, Dist 17                   OVER VOTES                            7-Mumford                                              01 
01050040008000000000000000000000000000000000000          United States Representative, Dist 17                   OVER VOTES                            8-Seale                                                01 
01050040009000000000000000000000000000000000000          United States Representative, Dist 17                   OVER VOTES                            11-Benchley                                            01 
01050040010000000000000000000000000000000000000          United States Representative, Dist 17                   OVER VOTES                            13-Elliot                                              01 
01050040011000000000000000000000000000000000000          United States Representative, Dist 17                   OVER VOTES                            16-Easterly                                            01 
01050040012000000000000000000000000000000000000          United States Representative, Dist 17                   OVER VOTES                            18-Ridge                                               01 
01050040013000000000000000000000000000000000000          United States Representative, Dist 17                   OVER VOTES                            19-New Baden                                           01 
01050040014000000000000000000000000000000000000          United States Representative, Dist 17                   OVER VOTES                            22-Teal Center                                         01 
01050040015000000000000000000000000000000000000          United States Representative, Dist 17                   OVER VOTES                            23-Christian Faith Ctr.                                01 
01050050001000028000002000016000010000000000000          United States Representative, Dist 17                   UNDER VOTES                           1-Calvert                                              01 
01050050002000028000001000015000012000000000000          United States Representative, Dist 17                   UNDER VOTES                           2-Hearne                                               01 
01050050003000006000000000003000003000000000000          United States Representative, Dist 17                   UNDER VOTES                           3-Wheelock                                             01 
01050050004000008000000000007000001000000000000          United States Representative, Dist 17                   UNDER VOTES                           4-Bald Prairie                                         01 
01050050005000051000006000018000027000000000000          United States Representative, Dist 17                   UNDER VOTES                           5-Bremond                                              01 
01050050006000035000002000025000008000000000000          United States Representative, Dist 17                   UNDER VOTES                           6-Franklin                                             01 
01050050007000003000001000000000002000000000000          United States Representative, Dist 17                   UNDER VOTES                           7-Mumford                                              01 
01050050008000002000000000001000001000000000000          United States Representative, Dist 17                   UNDER VOTES                           8-Seale                                                01 
01050050009000012000000000008000004000000000000          United States Representative, Dist 17                   UNDER VOTES                           11-Benchley                                            01 
01050050010000005000002000002000001000000000000          United States Representative, Dist 17                   UNDER VOTES                           13-Elliot                                              01 
01050050011000002000001000000000001000000000000          United States Representative, Dist 17                   UNDER VOTES                           16-Easterly                                            01 
01050050012000003000000000000000003000000000000          United States Representative, Dist 17                   UNDER VOTES                           18-Ridge                                               01 
01050050013000013000000000005000008000000000000          United States Representative, Dist 17                   UNDER VOTES                           19-New Baden                                           01 
01050050014000017000001000008000008000000000000          United States Representative, Dist 17                   UNDER VOTES                           22-Teal Center                                         01 
01050050015000012000000000008000004000000000000          United States Representative, Dist 17                   UNDER VOTES                           23-Christian Faith Ctr.                                01 
01060010001000359000024000226000109000000000000REP       Railroad Commissioner                                   Wayne Christian                       1-Calvert                                              01 
01060010002000435000032000282000121000000000000REP       Railroad Commissioner                                   Wayne Christian                       2-Hearne                                               01 
01060010003000310000013000163000134000000000000REP       Railroad Commissioner                                   Wayne Christian                       3-Wheelock                                             01 
01060010004000295000005000239000051000000000000REP       Railroad Commissioner                                   Wayne Christian                       4-Bald Prairie                                         01 
01060010005000627000041000380000206000000000000REP       Railroad Commissioner                                   Wayne Christian                       5-Bremond                                              01 
01060010006000680000027000495000158000000000000REP       Railroad Commissioner                                   Wayne Christian                       6-Franklin                                             01 
01060010007000022000001000001000020000000000000REP       Railroad Commissioner                                   Wayne Christian                       7-Mumford                                              01 
01060010008000156000012000039000105000000000000REP       Railroad Commissioner                                   Wayne Christian                       8-Seale                                                01 
01060010009000493000026000233000234000000000000REP       Railroad Commissioner                                   Wayne Christian                       11-Benchley                                            01 
01060010010000100000000000093000007000000000000REP       Railroad Commissioner                                   Wayne Christian                       13-Elliot                                              01 
01060010011000091000004000057000030000000000000REP       Railroad Commissioner                                   Wayne Christian                       16-Easterly                                            01 
01060010012000049000002000029000018000000000000REP       Railroad Commissioner                                   Wayne Christian                       18-Ridge                                               01 
01060010013000316000016000217000083000000000000REP       Railroad Commissioner                                   Wayne Christian                       19-New Baden                                           01 
01060010014000091000011000051000029000000000000REP       Railroad Commissioner                                   Wayne Christian                       22-Teal Center                                         01 
01060010015000152000008000081000063000000000000REP       Railroad Commissioner                                   Wayne Christian                       23-Christian Faith Ctr.                                01 
01060020001000329000033000178000118000000000000DEM       Railroad Commissioner                                   Grady Yarbrough                       1-Calvert                                              01 
01060020002000319000026000154000139000000000000DEM       Railroad Commissioner                                   Grady Yarbrough                       2-Hearne                                               01 
01060020003000046000005000026000015000000000000DEM       Railroad Commissioner                                   Grady Yarbrough                       3-Wheelock                                             01 
01060020004000046000006000034000006000000000000DEM       Railroad Commissioner                                   Grady Yarbrough                       4-Bald Prairie                                         01 
01060020005000255000027000105000123000000000000DEM       Railroad Commissioner                                   Grady Yarbrough                       5-Bremond                                              01 
01060020006000198000010000122000066000000000000DEM       Railroad Commissioner                                   Grady Yarbrough                       6-Franklin                                             01 
01060020007000021000003000003000015000000000000DEM       Railroad Commissioner                                   Grady Yarbrough                       7-Mumford                                              01 
01060020008000023000002000007000014000000000000DEM       Railroad Commissioner                                   Grady Yarbrough                       8-Seale                                                01 
01060020009000150000015000064000071000000000000DEM       Railroad Commissioner                                   Grady Yarbrough                       11-Benchley                                            01 
01060020010000013000000000011000002000000000000DEM       Railroad Commissioner                                   Grady Yarbrough                       13-Elliot                                              01 
01060020011000017000000000007000010000000000000DEM       Railroad Commissioner                                   Grady Yarbrough                       16-Easterly                                            01 
01060020012000007000000000003000004000000000000DEM       Railroad Commissioner                                   Grady Yarbrough                       18-Ridge                                               01 
01060020013000055000003000034000018000000000000DEM       Railroad Commissioner                                   Grady Yarbrough                       19-New Baden                                           01 
01060020014000578000112000290000176000000000000DEM       Railroad Commissioner                                   Grady Yarbrough                       22-Teal Center                                         01 
01060020015000199000023000100000076000000000000DEM       Railroad Commissioner                                   Grady Yarbrough                       23-Christian Faith Ctr.                                01 
01060030001000027000001000016000010000000000000LIB       Railroad Commissioner                                   Mark Miller                           1-Calvert                                              01 
01060030002000027000000000019000008000000000000LIB       Railroad Commissioner                                   Mark Miller                           2-Hearne                                               01 
01060030003000018000000000009000009000000000000LIB       Railroad Commissioner                                   Mark Miller                           3-Wheelock                                             01 
01060030004000007000000000005000002000000000000LIB       Railroad Commissioner                                   Mark Miller                           4-Bald Prairie                                         01 
01060030005000027000001000018000008000000000000LIB       Railroad Commissioner                                   Mark Miller                           5-Bremond                                              01 
01060030006000025000003000015000007000000000000LIB       Railroad Commissioner                                   Mark Miller                           6-Franklin                                             01 
01060030007000000000000000000000000000000000000LIB       Railroad Commissioner                                   Mark Miller                           7-Mumford                                              01 
01060030008000001000001000000000000000000000000LIB       Railroad Commissioner                                   Mark Miller                           8-Seale                                                01 
01060030009000023000001000011000011000000000000LIB       Railroad Commissioner                                   Mark Miller                           11-Benchley                                            01 
01060030010000003000000000002000001000000000000LIB       Railroad Commissioner                                   Mark Miller                           13-Elliot                                              01 
01060030011000000000000000000000000000000000000LIB       Railroad Commissioner                                   Mark Miller                           16-Easterly                                            01 
01060030012000004000000000001000003000000000000LIB       Railroad Commissioner                                   Mark Miller                           18-Ridge                                               01 
01060030013000010000000000009000001000000000000LIB       Railroad Commissioner                                   Mark Miller                           19-New Baden                                           01 
01060030014000014000000000006000008000000000000LIB       Railroad Commissioner                                   Mark Miller                           22-Teal Center                                         01 
01060030015000009000001000004000004000000000000LIB       Railroad Commissioner                                   Mark Miller                           23-Christian Faith Ctr.                                01 
01060040001000007000000000002000005000000000000GRN       Railroad Commissioner                                   Martina Salinas                       1-Calvert                                              01 
01060040002000028000000000014000014000000000000GRN       Railroad Commissioner                                   Martina Salinas                       2-Hearne                                               01 
01060040003000002000000000000000002000000000000GRN       Railroad Commissioner                                   Martina Salinas                       3-Wheelock                                             01 
01060040004000002000000000001000001000000000000GRN       Railroad Commissioner                                   Martina Salinas                       4-Bald Prairie                                         01 
01060040005000008000001000003000004000000000000GRN       Railroad Commissioner                                   Martina Salinas                       5-Bremond                                              01 
01060040006000008000001000006000001000000000000GRN       Railroad Commissioner                                   Martina Salinas                       6-Franklin                                             01 
01060040007000000000000000000000000000000000000GRN       Railroad Commissioner                                   Martina Salinas                       7-Mumford                                              01 
01060040008000000000000000000000000000000000000GRN       Railroad Commissioner                                   Martina Salinas                       8-Seale                                                01 
01060040009000008000000000001000007000000000000GRN       Railroad Commissioner                                   Martina Salinas                       11-Benchley                                            01 
01060040010000004000000000002000002000000000000GRN       Railroad Commissioner                                   Martina Salinas                       13-Elliot                                              01 
01060040011000001000000000001000000000000000000GRN       Railroad Commissioner                                   Martina Salinas                       16-Easterly                                            01 
01060040012000000000000000000000000000000000000GRN       Railroad Commissioner                                   Martina Salinas                       18-Ridge                                               01 
01060040013000003000000000001000002000000000000GRN       Railroad Commissioner                                   Martina Salinas                       19-New Baden                                           01 
01060040014000010000002000002000006000000000000GRN       Railroad Commissioner                                   Martina Salinas                       22-Teal Center                                         01 
01060040015000009000002000003000004000000000000GRN       Railroad Commissioner                                   Martina Salinas                       23-Christian Faith Ctr.                                01 
01060050001000000000000000000000000000000000000          Railroad Commissioner                                   OVER VOTES                            1-Calvert                                              01 
01060050002000000000000000000000000000000000000          Railroad Commissioner                                   OVER VOTES                            2-Hearne                                               01 
01060050003000000000000000000000000000000000000          Railroad Commissioner                                   OVER VOTES                            3-Wheelock                                             01 
01060050004000000000000000000000000000000000000          Railroad Commissioner                                   OVER VOTES                            4-Bald Prairie                                         01 
01060050005000000000000000000000000000000000000          Railroad Commissioner                                   OVER VOTES                            5-Bremond                                              01 
01060050006000000000000000000000000000000000000          Railroad Commissioner                                   OVER VOTES                            6-Franklin                                             01 
01060050007000000000000000000000000000000000000          Railroad Commissioner                                   OVER VOTES                            7-Mumford                                              01 
01060050008000000000000000000000000000000000000          Railroad Commissioner                                   OVER VOTES                            8-Seale                                                01 
01060050009000000000000000000000000000000000000          Railroad Commissioner                                   OVER VOTES                            11-Benchley                                            01 
01060050010000000000000000000000000000000000000          Railroad Commissioner                                   OVER VOTES                            13-Elliot                                              01 
01060050011000000000000000000000000000000000000          Railroad Commissioner                                   OVER VOTES                            16-Easterly                                            01 
01060050012000000000000000000000000000000000000          Railroad Commissioner                                   OVER VOTES                            18-Ridge                                               01 
01060050013000000000000000000000000000000000000          Railroad Commissioner                                   OVER VOTES                            19-New Baden                                           01 
01060050014000000000000000000000000000000000000          Railroad Commissioner                                   OVER VOTES                            22-Teal Center                                         01 
01060050015000000000000000000000000000000000000          Railroad Commissioner                                   OVER VOTES                            23-Christian Faith Ctr.                                01 
01060060001000043000002000028000013000000000000          Railroad Commissioner                                   UNDER VOTES                           1-Calvert                                              01 
01060060002000053000001000033000019000000000000          Railroad Commissioner                                   UNDER VOTES                           2-Hearne                                               01 
01060060003000017000001000009000007000000000000          Railroad Commissioner                                   UNDER VOTES                           3-Wheelock                                             01 
01060060004000022000001000017000004000000000000          Railroad Commissioner                                   UNDER VOTES                           4-Bald Prairie                                         01 
01060060005000097000007000049000041000000000000          Railroad Commissioner                                   UNDER VOTES                           5-Bremond                                              01 
01060060006000055000006000035000014000000000000          Railroad Commissioner                                   UNDER VOTES                           6-Franklin                                             01 
01060060007000003000000000001000002000000000000          Railroad Commissioner                                   UNDER VOTES                           7-Mumford                                              01 
01060060008000003000001000001000001000000000000          Railroad Commissioner                                   UNDER VOTES                           8-Seale                                                01 
01060060009000020000002000011000007000000000000          Railroad Commissioner                                   UNDER VOTES                           11-Benchley                                            01 
01060060010000012000002000009000001000000000000          Railroad Commissioner                                   UNDER VOTES                           13-Elliot                                              01 
01060060011000006000001000002000003000000000000          Railroad Commissioner                                   UNDER VOTES                           16-Easterly                                            01 
01060060012000005000000000002000003000000000000          Railroad Commissioner                                   UNDER VOTES                           18-Ridge                                               01 
01060060013000016000001000007000008000000000000          Railroad Commissioner                                   UNDER VOTES                           19-New Baden                                           01 
01060060014000022000000000011000011000000000000          Railroad Commissioner                                   UNDER VOTES                           22-Teal Center                                         01 
01060060015000025000001000015000009000000000000          Railroad Commissioner                                   UNDER VOTES                           23-Christian Faith Ctr.                                01 
01070010001000369000024000235000110000000000000REP       Justice, Supreme Court, Place 3                         Debra Lehrmann                        1-Calvert                                              01 
01070010002000450000032000288000130000000000000REP       Justice, Supreme Court, Place 3                         Debra Lehrmann                        2-Hearne                                               01 
01070010003000320000012000168000140000000000000REP       Justice, Supreme Court, Place 3                         Debra Lehrmann                        3-Wheelock                                             01 
01070010004000293000004000240000049000000000000REP       Justice, Supreme Court, Place 3                         Debra Lehrmann                        4-Bald Prairie                                         01 
01070010005000656000039000393000224000000000000REP       Justice, Supreme Court, Place 3                         Debra Lehrmann                        5-Bremond                                              01 
01070010006000702000026000510000166000000000000REP       Justice, Supreme Court, Place 3                         Debra Lehrmann                        6-Franklin                                             01 
01070010007000024000001000001000022000000000000REP       Justice, Supreme Court, Place 3                         Debra Lehrmann                        7-Mumford                                              01 
01070010008000153000013000040000100000000000000REP       Justice, Supreme Court, Place 3                         Debra Lehrmann                        8-Seale                                                01 
01070010009000514000027000249000238000000000000REP       Justice, Supreme Court, Place 3                         Debra Lehrmann                        11-Benchley                                            01 
01070010010000103000000000094000009000000000000REP       Justice, Supreme Court, Place 3                         Debra Lehrmann                        13-Elliot                                              01 
01070010011000088000004000054000030000000000000REP       Justice, Supreme Court, Place 3                         Debra Lehrmann                        16-Easterly                                            01 
01070010012000050000002000027000021000000000000REP       Justice, Supreme Court, Place 3                         Debra Lehrmann                        18-Ridge                                               01 
01070010013000327000016000228000083000000000000REP       Justice, Supreme Court, Place 3                         Debra Lehrmann                        19-New Baden                                           01 
01070010014000097000010000055000032000000000000REP       Justice, Supreme Court, Place 3                         Debra Lehrmann                        22-Teal Center                                         01 
01070010015000155000009000084000062000000000000REP       Justice, Supreme Court, Place 3                         Debra Lehrmann                        23-Christian Faith Ctr.                                01 
01070020001000327000033000173000121000000000000DEM       Justice, Supreme Court, Place 3                         Mike Westergren                       1-Calvert                                              01 
01070020002000305000026000148000131000000000000DEM       Justice, Supreme Court, Place 3                         Mike Westergren                       2-Hearne                                               01 
01070020003000039000006000020000013000000000000DEM       Justice, Supreme Court, Place 3                         Mike Westergren                       3-Wheelock                                             01 
01070020004000051000006000037000008000000000000DEM       Justice, Supreme Court, Place 3                         Mike Westergren                       4-Bald Prairie                                         01 
01070020005000228000028000097000103000000000000DEM       Justice, Supreme Court, Place 3                         Mike Westergren                       5-Bremond                                              01 
01070020006000178000016000109000053000000000000DEM       Justice, Supreme Court, Place 3                         Mike Westergren                       6-Franklin                                             01 
01070020007000018000003000003000012000000000000DEM       Justice, Supreme Court, Place 3                         Mike Westergren                       7-Mumford                                              01 
01070020008000023000003000005000015000000000000DEM       Justice, Supreme Court, Place 3                         Mike Westergren                       8-Seale                                                01 
01070020009000124000015000049000060000000000000DEM       Justice, Supreme Court, Place 3                         Mike Westergren                       11-Benchley                                            01 
01070020010000013000000000011000002000000000000DEM       Justice, Supreme Court, Place 3                         Mike Westergren                       13-Elliot                                              01 
01070020011000017000000000009000008000000000000DEM       Justice, Supreme Court, Place 3                         Mike Westergren                       16-Easterly                                            01 
01070020012000010000000000005000005000000000000DEM       Justice, Supreme Court, Place 3                         Mike Westergren                       18-Ridge                                               01 
01070020013000044000003000025000016000000000000DEM       Justice, Supreme Court, Place 3                         Mike Westergren                       19-New Baden                                           01 
01070020014000575000112000287000176000000000000DEM       Justice, Supreme Court, Place 3                         Mike Westergren                       22-Teal Center                                         01 
01070020015000200000023000101000076000000000000DEM       Justice, Supreme Court, Place 3                         Mike Westergren                       23-Christian Faith Ctr.                                01 
01070030001000018000000000013000005000000000000LIB       Justice, Supreme Court, Place 3                         Kathie Glass                          1-Calvert                                              01 
01070030002000023000000000015000008000000000000LIB       Justice, Supreme Court, Place 3                         Kathie Glass                          2-Hearne                                               01 
01070030003000012000000000006000006000000000000LIB       Justice, Supreme Court, Place 3                         Kathie Glass                          3-Wheelock                                             01 
01070030004000005000000000003000002000000000000LIB       Justice, Supreme Court, Place 3                         Kathie Glass                          4-Bald Prairie                                         01 
01070030005000020000002000014000004000000000000LIB       Justice, Supreme Court, Place 3                         Kathie Glass                          5-Bremond                                              01 
01070030006000021000001000010000010000000000000LIB       Justice, Supreme Court, Place 3                         Kathie Glass                          6-Franklin                                             01 
01070030007000001000000000000000001000000000000LIB       Justice, Supreme Court, Place 3                         Kathie Glass                          7-Mumford                                              01 
01070030008000004000000000000000004000000000000LIB       Justice, Supreme Court, Place 3                         Kathie Glass                          8-Seale                                                01 
01070030009000022000000000010000012000000000000LIB       Justice, Supreme Court, Place 3                         Kathie Glass                          11-Benchley                                            01 
01070030010000003000000000002000001000000000000LIB       Justice, Supreme Court, Place 3                         Kathie Glass                          13-Elliot                                              01 
01070030011000002000000000002000000000000000000LIB       Justice, Supreme Court, Place 3                         Kathie Glass                          16-Easterly                                            01 
01070030012000002000000000002000000000000000000LIB       Justice, Supreme Court, Place 3                         Kathie Glass                          18-Ridge                                               01 
01070030013000009000000000007000002000000000000LIB       Justice, Supreme Court, Place 3                         Kathie Glass                          19-New Baden                                           01 
01070030014000008000001000003000004000000000000LIB       Justice, Supreme Court, Place 3                         Kathie Glass                          22-Teal Center                                         01 
01070030015000004000000000000000004000000000000LIB       Justice, Supreme Court, Place 3                         Kathie Glass                          23-Christian Faith Ctr.                                01 
01070040001000009000001000003000005000000000000GRN       Justice, Supreme Court, Place 3                         Rodolfo Rivera Munoz                  1-Calvert                                              01 
01070040002000029000000000016000013000000000000GRN       Justice, Supreme Court, Place 3                         Rodolfo Rivera Munoz                  2-Hearne                                               01 
01070040003000001000000000000000001000000000000GRN       Justice, Supreme Court, Place 3                         Rodolfo Rivera Munoz                  3-Wheelock                                             01 
01070040004000000000000000000000000000000000000GRN       Justice, Supreme Court, Place 3                         Rodolfo Rivera Munoz                  4-Bald Prairie                                         01 
01070040005000005000000000001000004000000000000GRN       Justice, Supreme Court, Place 3                         Rodolfo Rivera Munoz                  5-Bremond                                              01 
01070040006000009000000000006000003000000000000GRN       Justice, Supreme Court, Place 3                         Rodolfo Rivera Munoz                  6-Franklin                                             01 
01070040007000000000000000000000000000000000000GRN       Justice, Supreme Court, Place 3                         Rodolfo Rivera Munoz                  7-Mumford                                              01 
01070040008000001000000000001000000000000000000GRN       Justice, Supreme Court, Place 3                         Rodolfo Rivera Munoz                  8-Seale                                                01 
01070040009000014000000000002000012000000000000GRN       Justice, Supreme Court, Place 3                         Rodolfo Rivera Munoz                  11-Benchley                                            01 
01070040010000001000000000001000000000000000000GRN       Justice, Supreme Court, Place 3                         Rodolfo Rivera Munoz                  13-Elliot                                              01 
01070040011000000000000000000000000000000000000GRN       Justice, Supreme Court, Place 3                         Rodolfo Rivera Munoz                  16-Easterly                                            01 
01070040012000000000000000000000000000000000000GRN       Justice, Supreme Court, Place 3                         Rodolfo Rivera Munoz                  18-Ridge                                               01 
01070040013000003000000000001000002000000000000GRN       Justice, Supreme Court, Place 3                         Rodolfo Rivera Munoz                  19-New Baden                                           01 
01070040014000012000001000004000007000000000000GRN       Justice, Supreme Court, Place 3                         Rodolfo Rivera Munoz                  22-Teal Center                                         01 
01070040015000013000002000004000007000000000000GRN       Justice, Supreme Court, Place 3                         Rodolfo Rivera Munoz                  23-Christian Faith Ctr.                                01 
01070050001000000000000000000000000000000000000          Justice, Supreme Court, Place 3                         OVER VOTES                            1-Calvert                                              01 
01070050002000001000000000001000000000000000000          Justice, Supreme Court, Place 3                         OVER VOTES                            2-Hearne                                               01 
01070050003000000000000000000000000000000000000          Justice, Supreme Court, Place 3                         OVER VOTES                            3-Wheelock                                             01 
01070050004000000000000000000000000000000000000          Justice, Supreme Court, Place 3                         OVER VOTES                            4-Bald Prairie                                         01 
01070050005000000000000000000000000000000000000          Justice, Supreme Court, Place 3                         OVER VOTES                            5-Bremond                                              01 
01070050006000000000000000000000000000000000000          Justice, Supreme Court, Place 3                         OVER VOTES                            6-Franklin                                             01 
01070050007000000000000000000000000000000000000          Justice, Supreme Court, Place 3                         OVER VOTES                            7-Mumford                                              01 
01070050008000000000000000000000000000000000000          Justice, Supreme Court, Place 3                         OVER VOTES                            8-Seale                                                01 
01070050009000000000000000000000000000000000000          Justice, Supreme Court, Place 3                         OVER VOTES                            11-Benchley                                            01 
01070050010000000000000000000000000000000000000          Justice, Supreme Court, Place 3                         OVER VOTES                            13-Elliot                                              01 
01070050011000000000000000000000000000000000000          Justice, Supreme Court, Place 3                         OVER VOTES                            16-Easterly                                            01 
01070050012000000000000000000000000000000000000          Justice, Supreme Court, Place 3                         OVER VOTES                            18-Ridge                                               01 
01070050013000000000000000000000000000000000000          Justice, Supreme Court, Place 3                         OVER VOTES                            19-New Baden                                           01 
01070050014000000000000000000000000000000000000          Justice, Supreme Court, Place 3                         OVER VOTES                            22-Teal Center                                         01 
01070050015000000000000000000000000000000000000          Justice, Supreme Court, Place 3                         OVER VOTES                            23-Christian Faith Ctr.                                01 
01070060001000042000002000026000014000000000000          Justice, Supreme Court, Place 3                         UNDER VOTES                           1-Calvert                                              01 
01070060002000054000001000034000019000000000000          Justice, Supreme Court, Place 3                         UNDER VOTES                           2-Hearne                                               01 
01070060003000021000001000013000007000000000000          Justice, Supreme Court, Place 3                         UNDER VOTES                           3-Wheelock                                             01 
01070060004000023000002000016000005000000000000          Justice, Supreme Court, Place 3                         UNDER VOTES                           4-Bald Prairie                                         01 
01070060005000105000008000050000047000000000000          Justice, Supreme Court, Place 3                         UNDER VOTES                           5-Bremond                                              01 
01070060006000056000004000038000014000000000000          Justice, Supreme Court, Place 3                         UNDER VOTES                           6-Franklin                                             01 
01070060007000003000000000001000002000000000000          Justice, Supreme Court, Place 3                         UNDER VOTES                           7-Mumford                                              01 
01070060008000002000000000001000001000000000000          Justice, Supreme Court, Place 3                         UNDER VOTES                           8-Seale                                                01 
