01010010001000000000000000000000000000000000000          REGISTERED VOTERS - TOTAL                               REGISTERED VOTERS - TOTAL             PRECINCT 1                                             00 
01010010002000000000000000000000000000000000000          REGISTERED VOTERS - TOTAL                               REGISTERED VOTERS - TOTAL             PRECINCT 1A                                            00 
01010010003000000000000000000000000000000000000          REGISTERED VOTERS - TOTAL                               REGISTERED VOTERS - TOTAL             PRECINCT 1B                                            00 
01010010004000000000000000000000000000000000000          REGISTERED VOTERS - TOTAL                               REGISTERED VOTERS - TOTAL             PRECINCT 1C                                            00 
01010010005000000000000000000000000000000000000          REGISTERED VOTERS - TOTAL                               REGISTERED VOTERS - TOTAL             PRECINCT 2                                             00 
01010010006000000000000000000000000000000000000          REGISTERED VOTERS - TOTAL                               REGISTERED VOTERS - TOTAL             PRECINCT 2A                                            00 
01010010007000000000000000000000000000000000000          REGISTERED VOTERS - TOTAL                               REGISTERED VOTERS - TOTAL             PRECINCT 2B                                            00 
01010010008000000000000000000000000000000000000          REGISTERED VOTERS - TOTAL                               REGISTERED VOTERS - TOTAL             PRECINCT 2C                                            00 
01010010009000000000000000000000000000000000000          REGISTERED VOTERS - TOTAL                               REGISTERED VOTERS - TOTAL             PRECINCT 3                                             00 
01010010010000000000000000000000000000000000000          REGISTERED VOTERS - TOTAL                               REGISTERED VOTERS - TOTAL             PRECINCT 3A                                            00 
01010010011000000000000000000000000000000000000          REGISTERED VOTERS - TOTAL                               REGISTERED VOTERS - TOTAL             PRECINCT 3B                                            00 
01010010012000000000000000000000000000000000000          REGISTERED VOTERS - TOTAL                               REGISTERED VOTERS - TOTAL             PRECINCT 3C                                            00 
01010010013000000000000000000000000000000000000          REGISTERED VOTERS - TOTAL                               REGISTERED VOTERS - TOTAL             PRECINCT 3D                                            00 
01010010014000000000000000000000000000000000000          REGISTERED VOTERS - TOTAL                               REGISTERED VOTERS - TOTAL             PRECINCT 4                                             00 
01010010015000000000000000000000000000000000000          REGISTERED VOTERS - TOTAL                               REGISTERED VOTERS - TOTAL             PRECINCT 4A                                            00 
01010010016000000000000000000000000000000000000          REGISTERED VOTERS - TOTAL                               REGISTERED VOTERS - TOTAL             PRECINCT 4B                                            00 
01010010017000000000000000000000000000000000000          REGISTERED VOTERS - TOTAL                               REGISTERED VOTERS - TOTAL             PRECINCT 4C                                            00 
01020010001001691000275000525000272000536000083          BALLOTS CAST - TOTAL                                    BALLOTS CAST - TOTAL                  PRECINCT 1                                             00 
01020010002000887000117000200000290000234000046          BALLOTS CAST - TOTAL                                    BALLOTS CAST - TOTAL                  PRECINCT 1A                                            00 
01020010003001561000266000467000220000546000062          BALLOTS CAST - TOTAL                                    BALLOTS CAST - TOTAL                  PRECINCT 1B                                            00 
01020010004001232000223000317000282000365000045          BALLOTS CAST - TOTAL                                    BALLOTS CAST - TOTAL                  PRECINCT 1C                                            00 
01020010005001442000243000479000195000419000106          BALLOTS CAST - TOTAL                                    BALLOTS CAST - TOTAL                  PRECINCT 2                                             00 
01020010006001310000241000343000195000443000088          BALLOTS CAST - TOTAL                                    BALLOTS CAST - TOTAL                  PRECINCT 2A                                            00 
01020010007000541000063000131000146000179000022          BALLOTS CAST - TOTAL                                    BALLOTS CAST - TOTAL                  PRECINCT 2B                                            00 
01020010008001955000294000657000688000267000049          BALLOTS CAST - TOTAL                                    BALLOTS CAST - TOTAL                  PRECINCT 2C                                            00 
01020010009000108000018000040000015000023000012          BALLOTS CAST - TOTAL                                    BALLOTS CAST - TOTAL                  PRECINCT 3                                             00 
01020010010000280000028000052000103000079000018          BALLOTS CAST - TOTAL                                    BALLOTS CAST - TOTAL                  PRECINCT 3A                                            00 
01020010011000673000073000158000286000144000012          BALLOTS CAST - TOTAL                                    BALLOTS CAST - TOTAL                  PRECINCT 3B                                            00 
01020010012001170000178000383000296000258000055          BALLOTS CAST - TOTAL                                    BALLOTS CAST - TOTAL                  PRECINCT 3C                                            00 
01020010013001493000223000409000258000544000059          BALLOTS CAST - TOTAL                                    BALLOTS CAST - TOTAL                  PRECINCT 3D                                            00 
01020010014000809000141000201000192000212000063          BALLOTS CAST - TOTAL                                    BALLOTS CAST - TOTAL                  PRECINCT 4                                             00 
01020010015001302000155000263000357000474000053          BALLOTS CAST - TOTAL                                    BALLOTS CAST - TOTAL                  PRECINCT 4A                                            00 
01020010016000356000077000024000162000078000015          BALLOTS CAST - TOTAL                                    BALLOTS CAST - TOTAL                  PRECINCT 4B                                            00 
01020010017000558000073000044000281000144000016          BALLOTS CAST - TOTAL                                    BALLOTS CAST - TOTAL                  PRECINCT 4C                                            00 
01030010001001691000275000525000272000536000083REP       BALLOTS CAST - REPUBLICAN PARTY                         BALLOTS CAST - REPUBLICAN PARTY       PRECINCT 1                                             00 
01030010002000887000117000200000290000234000046REP       BALLOTS CAST - REPUBLICAN PARTY                         BALLOTS CAST - REPUBLICAN PARTY       PRECINCT 1A                                            00 
01030010003001561000266000467000220000546000062REP       BALLOTS CAST - REPUBLICAN PARTY                         BALLOTS CAST - REPUBLICAN PARTY       PRECINCT 1B                                            00 
01030010004001232000223000317000282000365000045REP       BALLOTS CAST - REPUBLICAN PARTY                         BALLOTS CAST - REPUBLICAN PARTY       PRECINCT 1C                                            00 
01030010005001442000243000479000195000419000106REP       BALLOTS CAST - REPUBLICAN PARTY                         BALLOTS CAST - REPUBLICAN PARTY       PRECINCT 2                                             00 
01030010006001310000241000343000195000443000088REP       BALLOTS CAST - REPUBLICAN PARTY                         BALLOTS CAST - REPUBLICAN PARTY       PRECINCT 2A                                            00 
01030010007000541000063000131000146000179000022REP       BALLOTS CAST - REPUBLICAN PARTY                         BALLOTS CAST - REPUBLICAN PARTY       PRECINCT 2B                                            00 
01030010008001955000294000657000688000267000049REP       BALLOTS CAST - REPUBLICAN PARTY                         BALLOTS CAST - REPUBLICAN PARTY       PRECINCT 2C                                            00 
01030010009000108000018000040000015000023000012REP       BALLOTS CAST - REPUBLICAN PARTY                         BALLOTS CAST - REPUBLICAN PARTY       PRECINCT 3                                             00 
01030010010000280000028000052000103000079000018REP       BALLOTS CAST - REPUBLICAN PARTY                         BALLOTS CAST - REPUBLICAN PARTY       PRECINCT 3A                                            00 
01030010011000673000073000158000286000144000012REP       BALLOTS CAST - REPUBLICAN PARTY                         BALLOTS CAST - REPUBLICAN PARTY       PRECINCT 3B                                            00 
01030010012001170000178000383000296000258000055REP       BALLOTS CAST - REPUBLICAN PARTY                         BALLOTS CAST - REPUBLICAN PARTY       PRECINCT 3C                                            00 
01030010013001493000223000409000258000544000059REP       BALLOTS CAST - REPUBLICAN PARTY                         BALLOTS CAST - REPUBLICAN PARTY       PRECINCT 3D                                            00 
01030010014000809000141000201000192000212000063REP       BALLOTS CAST - REPUBLICAN PARTY                         BALLOTS CAST - REPUBLICAN PARTY       PRECINCT 4                                             00 
01030010015001302000155000263000357000474000053REP       BALLOTS CAST - REPUBLICAN PARTY                         BALLOTS CAST - REPUBLICAN PARTY       PRECINCT 4A                                            00 
01030010016000356000077000024000162000078000015REP       BALLOTS CAST - REPUBLICAN PARTY                         BALLOTS CAST - REPUBLICAN PARTY       PRECINCT 4B                                            00 
01030010017000558000073000044000281000144000016REP       BALLOTS CAST - REPUBLICAN PARTY                         BALLOTS CAST - REPUBLICAN PARTY       PRECINCT 4C                                            00 
01040010001000663000104000181000110000239000029REP       President                                               Ted Cruz                              PRECINCT 1                                             01 
01040010002000381000052000072000150000085000022REP       President                                               Ted Cruz                              PRECINCT 1A                                            01 
01040010003000680000098000181000106000266000029REP       President                                               Ted Cruz                              PRECINCT 1B                                            01 
01040010004000501000084000116000126000158000017REP       President                                               Ted Cruz                              PRECINCT 1C                                            01 
01040010005000563000092000178000088000168000037REP       President                                               Ted Cruz                              PRECINCT 2                                             01 
01040010006000450000072000120000067000162000029REP       President                                               Ted Cruz                              PRECINCT 2A                                            01 
01040010007000232000033000049000068000074000008REP       President                                               Ted Cruz                              PRECINCT 2B                                            01 
01040010008000713000104000237000260000100000012REP       President                                               Ted Cruz                              PRECINCT 2C                                            01 
01040010009000038000008000010000006000008000006REP       President                                               Ted Cruz                              PRECINCT 3                                             01 
01040010010000125000014000023000047000036000005REP       President                                               Ted Cruz                              PRECINCT 3A                                            01 
01040010011000328000032000068000159000066000003REP       President                                               Ted Cruz                              PRECINCT 3B                                            01 
01040010012000433000064000118000130000095000026REP       President                                               Ted Cruz                              PRECINCT 3C                                            01 
01040010013000704000099000157000123000288000037REP       President                                               Ted Cruz                              PRECINCT 3D                                            01 
01040010014000341000055000079000090000093000024REP       President                                               Ted Cruz                              PRECINCT 4                                             01 
01040010015000606000077000113000162000231000023REP       President                                               Ted Cruz                              PRECINCT 4A                                            01 
01040010016000167000042000004000085000030000006REP       President                                               Ted Cruz                              PRECINCT 4B                                            01 
01040010017000303000036000015000156000086000010REP       President                                               Ted Cruz                              PRECINCT 4C                                            01 
01040020001000063000009000021000008000024000001REP       President                                               Ben Carson                            PRECINCT 1                                             01 
01040020002000044000002000008000017000016000001REP       President                                               Ben Carson                            PRECINCT 1A                                            01 
01040020003000053000007000015000012000019000000REP       President                                               Ben Carson                            PRECINCT 1B                                            01 
01040020004000038000003000009000011000013000002REP       President                                               Ben Carson                            PRECINCT 1C                                            01 
01040020005000048000003000022000005000016000002REP       President                                               Ben Carson                            PRECINCT 2                                             01 
01040020006000036000011000006000004000014000001REP       President                                               Ben Carson                            PRECINCT 2A                                            01 
01040020007000022000001000004000009000008000000REP       President                                               Ben Carson                            PRECINCT 2B                                            01 
01040020008000079000008000028000027000014000002REP       President                                               Ben Carson                            PRECINCT 2C                                            01 
01040020009000007000002000002000002000001000000REP       President                                               Ben Carson                            PRECINCT 3                                             01 
01040020010000019000001000002000006000009000001REP       President                                               Ben Carson                            PRECINCT 3A                                            01 
01040020011000036000003000012000014000007000000REP       President                                               Ben Carson                            PRECINCT 3B                                            01 
01040020012000036000006000007000014000009000000REP       President                                               Ben Carson                            PRECINCT 3C                                            01 
01040020013000058000008000017000013000019000001REP       President                                               Ben Carson                            PRECINCT 3D                                            01 
01040020014000035000006000008000008000010000003REP       President                                               Ben Carson                            PRECINCT 4                                             01 
01040020015000056000000000008000019000028000001REP       President                                               Ben Carson                            PRECINCT 4A                                            01 
01040020016000018000003000001000007000007000000REP       President                                               Ben Carson                            PRECINCT 4B                                            01 
01040020017000023000002000003000013000005000000REP       President                                               Ben Carson                            PRECINCT 4C                                            01 
01040030001000002000000000002000000000000000000REP       President                                               Carly Fiorina                         PRECINCT 1                                             01 
01040030002000002000000000001000000000001000000REP       President                                               Carly Fiorina                         PRECINCT 1A                                            01 
01040030003000003000000000003000000000000000000REP       President                                               Carly Fiorina                         PRECINCT 1B                                            01 
01040030004000004000000000003000000000001000000REP       President                                               Carly Fiorina                         PRECINCT 1C                                            01 
01040030005000001000000000001000000000000000000REP       President                                               Carly Fiorina                         PRECINCT 2                                             01 
01040030006000002000000000002000000000000000000REP       President                                               Carly Fiorina                         PRECINCT 2A                                            01 
01040030007000004000001000002000001000000000000REP       President                                               Carly Fiorina                         PRECINCT 2B                                            01 
01040030008000005000000000003000002000000000000REP       President                                               Carly Fiorina                         PRECINCT 2C                                            01 
01040030009000001000000000001000000000000000000REP       President                                               Carly Fiorina                         PRECINCT 3                                             01 
01040030010000001000000000001000000000000000000REP       President                                               Carly Fiorina                         PRECINCT 3A                                            01 
01040030011000002000000000001000001000000000000REP       President                                               Carly Fiorina                         PRECINCT 3B                                            01 
01040030012000002000000000002000000000000000000REP       President                                               Carly Fiorina                         PRECINCT 3C                                            01 
01040030013000003000000000001000001000001000000REP       President                                               Carly Fiorina                         PRECINCT 3D                                            01 
01040030014000002000001000001000000000000000000REP       President                                               Carly Fiorina                         PRECINCT 4                                             01 
01040030015000002000001000001000000000000000000REP       President                                               Carly Fiorina                         PRECINCT 4A                                            01 
01040030016000001000000000001000000000000000000REP       President                                               Carly Fiorina                         PRECINCT 4B                                            01 
01040030017000001000000000001000000000000000000REP       President                                               Carly Fiorina                         PRECINCT 4C                                            01 
01040040001000005000000000004000001000000000000REP       President                                               Rand Paul                             PRECINCT 1                                             01 
01040040002000001000000000001000000000000000000REP       President                                               Rand Paul                             PRECINCT 1A                                            01 
01040040003000001000000000001000000000000000000REP       President                                               Rand Paul                             PRECINCT 1B                                            01 
01040040004000007000002000003000001000001000000REP       President                                               Rand Paul                             PRECINCT 1C                                            01 
01040040005000002000000000001000000000001000000REP       President                                               Rand Paul                             PRECINCT 2                                             01 
01040040006000002000000000001000000000001000000REP       President                                               Rand Paul                             PRECINCT 2A                                            01 
01040040007000002000001000001000000000000000000REP       President                                               Rand Paul                             PRECINCT 2B                                            01 
01040040008000009000001000003000003000002000000REP       President                                               Rand Paul                             PRECINCT 2C                                            01 
01040040009000001000000000001000000000000000000REP       President                                               Rand Paul                             PRECINCT 3                                             01 
01040040010000004000001000001000000000002000000REP       President                                               Rand Paul                             PRECINCT 3A                                            01 
01040040011000003000000000001000001000001000000REP       President                                               Rand Paul                             PRECINCT 3B                                            01 
01040040012000002000000000002000000000000000000REP       President                                               Rand Paul                             PRECINCT 3C                                            01 
01040040013000003000002000001000000000000000000REP       President                                               Rand Paul                             PRECINCT 3D                                            01 
01040040014000002000000000001000000000001000000REP       President                                               Rand Paul                             PRECINCT 4                                             01 
01040040015000003000000000001000001000001000000REP       President                                               Rand Paul                             PRECINCT 4A                                            01 
01040040016000003000000000001000001000001000000REP       President                                               Rand Paul                             PRECINCT 4B                                            01 
01040040017000003000001000001000001000000000000REP       President                                               Rand Paul                             PRECINCT 4C                                            01 
01040050001000006000001000003000001000001000000REP       President                                               Mike Huckabee                         PRECINCT 1                                             01 
01040050002000002000001000001000000000000000000REP       President                                               Mike Huckabee                         PRECINCT 1A                                            01 
01040050003000003000000000002000000000001000000REP       President                                               Mike Huckabee                         PRECINCT 1B                                            01 
01040050004000002000000000001000000000001000000REP       President                                               Mike Huckabee                         PRECINCT 1C                                            01 
01040050005000004000001000003000000000000000000REP       President                                               Mike Huckabee                         PRECINCT 2                                             01 
01040050006000003000000000002000000000001000000REP       President                                               Mike Huckabee                         PRECINCT 2A                                            01 
01040050007000002000000000001000001000000000000REP       President                                               Mike Huckabee                         PRECINCT 2B                                            01 
01040050008000006000001000004000001000000000000REP       President                                               Mike Huckabee                         PRECINCT 2C                                            01 
01040050009000001000000000001000000000000000000REP       President                                               Mike Huckabee                         PRECINCT 3                                             01 
01040050010000001000000000001000000000000000000REP       President                                               Mike Huckabee                         PRECINCT 3A                                            01 
01040050011000004000000000001000003000000000000REP       President                                               Mike Huckabee                         PRECINCT 3B                                            01 
01040050012000002000000000002000000000000000000REP       President                                               Mike Huckabee                         PRECINCT 3C                                            01 
01040050013000002000000000001000000000000000001REP       President                                               Mike Huckabee                         PRECINCT 3D                                            01 
01040050014000006000002000002000000000000000002REP       President                                               Mike Huckabee                         PRECINCT 4                                             01 
01040050015000002000000000002000000000000000000REP       President                                               Mike Huckabee                         PRECINCT 4A                                            01 
01040050016000003000000000002000001000000000000REP       President                                               Mike Huckabee                         PRECINCT 4B                                            01 
01040050017000003000000000001000001000001000000REP       President                                               Mike Huckabee                         PRECINCT 4C                                            01 
01040060001000362000059000111000054000125000013REP       President                                               Marco Rubio                           PRECINCT 1                                             01 
01040060002000157000014000042000049000049000003REP       President                                               Marco Rubio                           PRECINCT 1A                                            01 
01040060003000311000058000094000036000109000014REP       President                                               Marco Rubio                           PRECINCT 1B                                            01 
01040060004000262000047000071000053000082000009REP       President                                               Marco Rubio                           PRECINCT 1C                                            01 
01040060005000281000040000109000036000075000021REP       President                                               Marco Rubio                           PRECINCT 2                                             01 
01040060006000251000046000061000043000089000012REP       President                                               Marco Rubio                           PRECINCT 2A                                            01 
01040060007000088000011000016000017000042000002REP       President                                               Marco Rubio                           PRECINCT 2B                                            01 
01040060008000409000066000137000145000055000006REP       President                                               Marco Rubio                           PRECINCT 2C                                            01 
01040060009000015000004000002000002000005000002REP       President                                               Marco Rubio                           PRECINCT 3                                             01 
01040060010000041000006000010000015000009000001REP       President                                               Marco Rubio                           PRECINCT 3A                                            01 
01040060011000099000014000022000038000023000002REP       President                                               Marco Rubio                           PRECINCT 3B                                            01 
01040060012000280000034000106000060000067000013REP       President                                               Marco Rubio                           PRECINCT 3C                                            01 
01040060013000224000026000082000035000079000002REP       President                                               Marco Rubio                           PRECINCT 3D                                            01 
01040060014000141000028000035000028000038000012REP       President                                               Marco Rubio                           PRECINCT 4                                             01 
01040060015000229000024000051000067000075000012REP       President                                               Marco Rubio                           PRECINCT 4A                                            01 
01040060016000045000006000002000022000012000003REP       President                                               Marco Rubio                           PRECINCT 4B                                            01 
01040060017000047000003000003000029000010000002REP       President                                               Marco Rubio                           PRECINCT 4C                                            01 
01040070001000024000004000011000001000000000008REP       President                                               Jeb Bush                              PRECINCT 1                                             01 
01040070002000015000003000009000001000001000001REP       President                                               Jeb Bush                              PRECINCT 1A                                            01 
01040070003000023000006000012000000000002000003REP       President                                               Jeb Bush                              PRECINCT 1B                                            01 
01040070004000011000002000006000000000002000001REP       President                                               Jeb Bush                              PRECINCT 1C                                            01 
01040070005000021000005000011000001000000000004REP       President                                               Jeb Bush                              PRECINCT 2                                             01 
01040070006000008000001000004000000000001000002REP       President                                               Jeb Bush                              PRECINCT 2A                                            01 
01040070007000005000000000001000000000001000003REP       President                                               Jeb Bush                              PRECINCT 2B                                            01 
01040070008000023000006000012000002000002000001REP       President                                               Jeb Bush                              PRECINCT 2C                                            01 
01040070009000005000001000002000000000001000001REP       President                                               Jeb Bush                              PRECINCT 3                                             01 
01040070010000002000000000001000000000001000000REP       President                                               Jeb Bush                              PRECINCT 3A                                            01 
01040070011000005000000000004000000000000000001REP       President                                               Jeb Bush                              PRECINCT 3B                                            01 
01040070012000013000002000008000000000002000001REP       President                                               Jeb Bush                              PRECINCT 3C                                            01 
01040070013000012000003000008000001000000000000REP       President                                               Jeb Bush                              PRECINCT 3D                                            01 
01040070014000008000002000004000000000001000001REP       President                                               Jeb Bush                              PRECINCT 4                                             01 
01040070015000009000002000005000000000002000000REP       President                                               Jeb Bush                              PRECINCT 4A                                            01 
01040070016000003000000000002000001000000000000REP       President                                               Jeb Bush                              PRECINCT 4B                                            01 
01040070017000004000000000002000001000001000000REP       President                                               Jeb Bush                              PRECINCT 4C                                            01 
01040080001000001000000000001000000000000000000REP       President                                               Elizabeth Gray                        PRECINCT 1                                             01 
01040080002000001000000000001000000000000000000REP       President                                               Elizabeth Gray                        PRECINCT 1A                                            01 
01040080003000001000000000001000000000000000000REP       President                                               Elizabeth Gray                        PRECINCT 1B                                            01 
01040080004000002000001000001000000000000000000REP       President                                               Elizabeth Gray                        PRECINCT 1C                                            01 
01040080005000001000000000001000000000000000000REP       President                                               Elizabeth Gray                        PRECINCT 2                                             01 
01040080006000001000000000001000000000000000000REP       President                                               Elizabeth Gray                        PRECINCT 2A                                            01 
01040080007000001000000000001000000000000000000REP       President                                               Elizabeth Gray                        PRECINCT 2B                                            01 
01040080008000001000000000001000000000000000000REP       President                                               Elizabeth Gray                        PRECINCT 2C                                            01 
01040080009000001000000000001000000000000000000REP       President                                               Elizabeth Gray                        PRECINCT 3                                             01 
01040080010000001000000000001000000000000000000REP       President                                               Elizabeth Gray                        PRECINCT 3A                                            01 
01040080011000002000000000002000000000000000000REP       President                                               Elizabeth Gray                        PRECINCT 3B                                            01 
01040080012000001000000000001000000000000000000REP       President                                               Elizabeth Gray                        PRECINCT 3C                                            01 
01040080013000001000000000001000000000000000000REP       President                                               Elizabeth Gray                        PRECINCT 3D                                            01 
01040080014000001000000000001000000000000000000REP       President                                               Elizabeth Gray                        PRECINCT 4                                             01 
01040080015000002000000000002000000000000000000REP       President                                               Elizabeth Gray                        PRECINCT 4A                                            01 
01040080016000001000000000001000000000000000000REP       President                                               Elizabeth Gray                        PRECINCT 4B                                            01 
01040080017000001000000000001000000000000000000REP       President                                               Elizabeth Gray                        PRECINCT 4C                                            01 
01040090001000092000017000029000015000028000003REP       President                                               John R. Kasich                        PRECINCT 1                                             01 
01040090002000039000007000009000011000009000003REP       President                                               John R. Kasich                        PRECINCT 1A                                            01 
01040090003000061000013000014000009000024000001REP       President                                               John R. Kasich                        PRECINCT 1B                                            01 
01040090004000061000015000024000006000011000005REP       President                                               John R. Kasich                        PRECINCT 1C                                            01 
01040090005000073000022000017000007000021000006REP       President                                               John R. Kasich                        PRECINCT 2                                             01 
01040090006000078000016000019000013000024000006REP       President                                               John R. Kasich                        PRECINCT 2A                                            01 
01040090007000026000000000011000008000005000002REP       President                                               John R. Kasich                        PRECINCT 2B                                            01 
01040090008000133000025000040000046000018000004REP       President                                               John R. Kasich                        PRECINCT 2C                                            01 
01040090009000005000001000003000000000001000000REP       President                                               John R. Kasich                        PRECINCT 3                                             01 
01040090010000007000000000002000003000001000001REP       President                                               John R. Kasich                        PRECINCT 3A                                            01 
01040090011000020000001000009000005000003000002REP       President                                               John R. Kasich                        PRECINCT 3B                                            01 
01040090012000044000009000017000009000007000002REP       President                                               John R. Kasich                        PRECINCT 3C                                            01 
01040090013000047000005000018000008000015000001REP       President                                               John R. Kasich                        PRECINCT 3D                                            01 
01040090014000018000004000005000004000003000002REP       President                                               John R. Kasich                        PRECINCT 4                                             01 
01040090015000043000004000008000011000015000005REP       President                                               John R. Kasich                        PRECINCT 4A                                            01 
01040090016000014000008000001000000000004000001REP       President                                               John R. Kasich                        PRECINCT 4B                                            01 
01040090017000008000001000001000005000000000001REP       President                                               John R. Kasich                        PRECINCT 4C                                            01 
01040100001000001000000000001000000000000000000REP       President                                               Lindsey Graham                        PRECINCT 1                                             01 
01040100002000002000000000001000000000001000000REP       President                                               Lindsey Graham                        PRECINCT 1A                                            01 
01040100003000001000000000001000000000000000000REP       President                                               Lindsey Graham                        PRECINCT 1B                                            01 
01040100004000001000000000001000000000000000000REP       President                                               Lindsey Graham                        PRECINCT 1C                                            01 
01040100005000002000000000001000000000001000000REP       President                                               Lindsey Graham                        PRECINCT 2                                             01 
01040100006000001000000000001000000000000000000REP       President                                               Lindsey Graham                        PRECINCT 2A                                            01 
01040100007000001000000000001000000000000000000REP       President                                               Lindsey Graham                        PRECINCT 2B                                            01 
01040100008000001000000000001000000000000000000REP       President                                               Lindsey Graham                        PRECINCT 2C                                            01 
01040100009000001000000000001000000000000000000REP       President                                               Lindsey Graham                        PRECINCT 3                                             01 
01040100010000001000000000001000000000000000000REP       President                                               Lindsey Graham                        PRECINCT 3A                                            01 
01040100011000001000000000001000000000000000000REP       President                                               Lindsey Graham                        PRECINCT 3B                                            01 
01040100012000001000000000001000000000000000000REP       President                                               Lindsey Graham                        PRECINCT 3C                                            01 
01040100013000001000000000001000000000000000000REP       President                                               Lindsey Graham                        PRECINCT 3D                                            01 
01040100014000001000000000001000000000000000000REP       President                                               Lindsey Graham                        PRECINCT 4                                             01 
01040100015000001000000000001000000000000000000REP       President                                               Lindsey Graham                        PRECINCT 4A                                            01 
01040100016000001000000000001000000000000000000REP       President                                               Lindsey Graham                        PRECINCT 4B                                            01 
01040100017000001000000000001000000000000000000REP       President                                               Lindsey Graham                        PRECINCT 4C                                            01 
01040110001000001000000000001000000000000000000REP       President                                               Rick Santorum                         PRECINCT 1                                             01 
01040110002000002000000000001000001000000000000REP       President                                               Rick Santorum                         PRECINCT 1A                                            01 
01040110003000001000000000001000000000000000000REP       President                                               Rick Santorum                         PRECINCT 1B                                            01 
01040110004000002000000000001000001000000000000REP       President                                               Rick Santorum                         PRECINCT 1C                                            01 
01040110005000002000001000001000000000000000000REP       President                                               Rick Santorum                         PRECINCT 2                                             01 
01040110006000001000000000001000000000000000000REP       President                                               Rick Santorum                         PRECINCT 2A                                            01 
01040110007000001000000000001000000000000000000REP       President                                               Rick Santorum                         PRECINCT 2B                                            01 
01040110008000003000000000001000002000000000000REP       President                                               Rick Santorum                         PRECINCT 2C                                            01 
01040110009000001000000000001000000000000000000REP       President                                               Rick Santorum                         PRECINCT 3                                             01 
01040110010000001000000000001000000000000000000REP       President                                               Rick Santorum                         PRECINCT 3A                                            01 
01040110011000001000000000001000000000000000000REP       President                                               Rick Santorum                         PRECINCT 3B                                            01 
01040110012000001000000000001000000000000000000REP       President                                               Rick Santorum                         PRECINCT 3C                                            01 
01040110013000002000000000001000000000001000000REP       President                                               Rick Santorum                         PRECINCT 3D                                            01 
01040110014000001000000000001000000000000000000REP       President                                               Rick Santorum                         PRECINCT 4                                             01 
01040110015000001000000000001000000000000000000REP       President                                               Rick Santorum                         PRECINCT 4A                                            01 
01040110016000001000000000001000000000000000000REP       President                                               Rick Santorum                         PRECINCT 4B                                            01 
01040110017000001000000000001000000000000000000REP       President                                               Rick Santorum                         PRECINCT 4C                                            01 
01040120001000003000001000002000000000000000000REP       President                                               Chris Christie                        PRECINCT 1                                             01 
01040120002000002000000000001000001000000000000REP       President                                               Chris Christie                        PRECINCT 1A                                            01 
01040120003000003000001000001000001000000000000REP       President                                               Chris Christie                        PRECINCT 1B                                            01 
01040120004000002000000000002000000000000000000REP       President                                               Chris Christie                        PRECINCT 1C                                            01 
01040120005000004000001000001000000000002000000REP       President                                               Chris Christie                        PRECINCT 2                                             01 
01040120006000002000000000001000000000000000001REP       President                                               Chris Christie                        PRECINCT 2A                                            01 
01040120007000001000000000001000000000000000000REP       President                                               Chris Christie                        PRECINCT 2B                                            01 
01040120008000003000000000002000001000000000000REP       President                                               Chris Christie                        PRECINCT 2C                                            01 
01040120009000001000000000001000000000000000000REP       President                                               Chris Christie                        PRECINCT 3                                             01 
01040120010000002000000000002000000000000000000REP       President                                               Chris Christie                        PRECINCT 3A                                            01 
01040120011000001000000000001000000000000000000REP       President                                               Chris Christie                        PRECINCT 3B                                            01 
01040120012000001000000000001000000000000000000REP       President                                               Chris Christie                        PRECINCT 3C                                            01 
01040120013000001000000000001000000000000000000REP       President                                               Chris Christie                        PRECINCT 3D                                            01 
01040120014000001000000000001000000000000000000REP       President                                               Chris Christie                        PRECINCT 4                                             01 
01040120015000002000001000001000000000000000000REP       President                                               Chris Christie                        PRECINCT 4A                                            01 
01040120016000001000000000001000000000000000000REP       President                                               Chris Christie                        PRECINCT 4B                                            01 
01040120017000001000000000001000000000000000000REP       President                                               Chris Christie                        PRECINCT 4C                                            01 
01040130001000435000072000140000080000119000024REP       President                                               Donald J. Trump                       PRECINCT 1                                             01 
01040130002000232000037000050000059000072000014REP       President                                               Donald J. Trump                       PRECINCT 1A                                            01 
01040130003000399000081000131000053000120000014REP       President                                               Donald J. Trump                       PRECINCT 1B                                            01 
01040130004000328000067000073000084000095000009REP       President                                               Donald J. Trump                       PRECINCT 1C                                            01 
01040130005000420000076000129000055000135000025REP       President                                               Donald J. Trump                       PRECINCT 2                                             01 
01040130006000451000089000117000068000145000032REP       President                                               Donald J. Trump                       PRECINCT 2A                                            01 
01040130007000152000016000039000042000048000007REP       President                                               Donald J. Trump                       PRECINCT 2B                                            01 
01040130008000541000080000173000190000074000024REP       President                                               Donald J. Trump                       PRECINCT 2C                                            01 
01040130009000026000002000011000005000006000002REP       President                                               Donald J. Trump                       PRECINCT 3                                             01 
01040130010000067000005000003000032000021000006REP       President                                               Donald J. Trump                       PRECINCT 3A                                            01 
01040130011000159000022000032000058000043000004REP       President                                               Donald J. Trump                       PRECINCT 3B                                            01 
01040130012000336000062000110000078000073000013REP       President                                               Donald J. Trump                       PRECINCT 3C                                            01 
01040130013000416000076000112000073000140000015REP       President                                               Donald J. Trump                       PRECINCT 3D                                            01 
01040130014000239000038000058000061000066000016REP       President                                               Donald J. Trump                       PRECINCT 4                                             01 
01040130015000328000043000065000092000117000011REP       President                                               Donald J. Trump                       PRECINCT 4A                                            01 
01040130016000092000017000004000044000023000004REP       President                                               Donald J. Trump                       PRECINCT 4B                                            01 
01040130017000157000030000009000074000041000003REP       President                                               Donald J. Trump                       PRECINCT 4C                                            01 
01040140001000024000006000012000001000000000005REP       President                                               Uncommitted                           PRECINCT 1                                             01 
01040140002000005000000000002000001000000000002REP       President                                               Uncommitted                           PRECINCT 1A                                            01 
01040140003000017000002000008000002000004000001REP       President                                               Uncommitted                           PRECINCT 1B                                            01 
01040140004000008000001000005000000000001000001REP       President                                               Uncommitted                           PRECINCT 1C                                            01 
01040140005000013000001000003000000000000000009REP       President                                               Uncommitted                           PRECINCT 2                                             01 
01040140006000018000003000005000000000005000005REP       President                                               Uncommitted                           PRECINCT 2A                                            01 
01040140007000003000000000002000000000001000000REP       President                                               Uncommitted                           PRECINCT 2B                                            01 
01040140008000020000001000011000007000001000000REP       President                                               Uncommitted                           PRECINCT 2C                                            01 
01040140009000004000000000002000000000001000001REP       President                                               Uncommitted                           PRECINCT 3                                             01 
01040140010000007000001000002000000000000000004REP       President                                               Uncommitted                           PRECINCT 3A                                            01 
01040140011000009000001000002000005000001000000REP       President                                               Uncommitted                           PRECINCT 3B                                            01 
01040140012000013000001000006000002000004000000REP       President                                               Uncommitted                           PRECINCT 3C                                            01 
01040140013000015000004000007000002000001000001REP       President                                               Uncommitted                           PRECINCT 3D                                            01 
01040140014000010000004000003000001000000000002REP       President                                               Uncommitted                           PRECINCT 4                                             01 
01040140015000011000002000003000002000003000001REP       President                                               Uncommitted                           PRECINCT 4A                                            01 
01040140016000004000000000001000001000001000001REP       President                                               Uncommitted                           PRECINCT 4B                                            01 
01040140017000004000000000003000001000000000000REP       President                                               Uncommitted                           PRECINCT 4C                                            01 
01040150001000000000000000000000000000000000000REP       President                                               OVER VOTES                            PRECINCT 1                                             01 
01040150002000000000000000000000000000000000000REP       President                                               OVER VOTES                            PRECINCT 1A                                            01 
01040150003000000000000000000000000000000000000REP       President                                               OVER VOTES                            PRECINCT 1B                                            01 
01040150004000000000000000000000000000000000000REP       President                                               OVER VOTES                            PRECINCT 1C                                            01 
01040150005000001000000000000000001000000000000REP       President                                               OVER VOTES                            PRECINCT 2                                             01 
01040150006000000000000000000000000000000000000REP       President                                               OVER VOTES                            PRECINCT 2A                                            01 
01040150007000000000000000000000000000000000000REP       President                                               OVER VOTES                            PRECINCT 2B                                            01 
01040150008000000000000000000000000000000000000REP       President                                               OVER VOTES                            PRECINCT 2C                                            01 
01040150009000000000000000000000000000000000000REP       President                                               OVER VOTES                            PRECINCT 3                                             01 
01040150010000000000000000000000000000000000000REP       President                                               OVER VOTES                            PRECINCT 3A                                            01 
01040150011000001000000000000000001000000000000REP       President                                               OVER VOTES                            PRECINCT 3B                                            01 
01040150012000001000000000000000001000000000000REP       President                                               OVER VOTES                            PRECINCT 3C                                            01 
01040150013000001000000000000000001000000000000REP       President                                               OVER VOTES                            PRECINCT 3D                                            01 
01040150014000000000000000000000000000000000000REP       President                                               OVER VOTES                            PRECINCT 4                                             01 
01040150015000000000000000000000000000000000000REP       President                                               OVER VOTES                            PRECINCT 4A                                            01 
01040150016000000000000000000000000000000000000REP       President                                               OVER VOTES                            PRECINCT 4B                                            01 
01040150017000000000000000000000000000000000000REP       President                                               OVER VOTES                            PRECINCT 4C                                            01 
01040160001000008000002000006000000000000000000REP       President                                               UNDER VOTES                           PRECINCT 1                                             01 
01040160002000002000001000001000000000000000000REP       President                                               UNDER VOTES                           PRECINCT 1A                                            01 
01040160003000004000000000002000001000001000000REP       President                                               UNDER VOTES                           PRECINCT 1B                                            01 
01040160004000003000001000001000000000000000001REP       President                                               UNDER VOTES                           PRECINCT 1C                                            01 
01040160005000006000001000001000002000000000002REP       President                                               UNDER VOTES                           PRECINCT 2                                             01 
01040160006000006000003000002000000000001000000REP       President                                               UNDER VOTES                           PRECINCT 2A                                            01 
01040160007000001000000000001000000000000000000REP       President                                               UNDER VOTES                           PRECINCT 2B                                            01 
01040160008000008000002000004000001000001000000REP       President                                               UNDER VOTES                           PRECINCT 2C                                            01 
01040160009000001000000000001000000000000000000REP       President                                               UNDER VOTES                           PRECINCT 3                                             01 
01040160010000001000000000001000000000000000000REP       President                                               UNDER VOTES                           PRECINCT 3A                                            01 
01040160011000002000000000001000001000000000000REP       President                                               UNDER VOTES                           PRECINCT 3B                                            01 
01040160012000004000000000001000002000001000000REP       President                                               UNDER VOTES                           PRECINCT 3C                                            01 
01040160013000003000000000001000001000000000001REP       President                                               UNDER VOTES                           PRECINCT 3D                                            01 
01040160014000003000001000001000000000000000001REP       President                                               UNDER VOTES                           PRECINCT 4                                             01 
01040160015000007000001000001000003000002000000REP       President                                               UNDER VOTES                           PRECINCT 4A                                            01 
01040160016000002000001000001000000000000000000REP       President                                               UNDER VOTES                           PRECINCT 4B                                            01 
01040160017000001000000000001000000000000000000REP       President                                               UNDER VOTES                           PRECINCT 4C                                            01 
01050010001001116000205000355000181000326000049REP       US Representative, District 4                           John Ratcliffe                        PRECINCT 1                                             01 
01050010002000503000074000105000171000122000031REP       US Representative, District 4                           John Ratcliffe                        PRECINCT 1A                                            01 
01050010003001016000184000327000127000338000040REP       US Representative, District 4                           John Ratcliffe                        PRECINCT 1B                                            01 
01050010004000820000165000208000192000226000029REP       US Representative, District 4                           John Ratcliffe                        PRECINCT 1C                                            01 
01050010005000889000165000304000117000229000074REP       US Representative, District 4                           John Ratcliffe                        PRECINCT 2                                             01 
01050010006000864000161000235000134000276000058REP       US Representative, District 4                           John Ratcliffe                        PRECINCT 2A                                            01 
01050010007000299000044000067000075000103000010REP       US Representative, District 4                           John Ratcliffe                        PRECINCT 2B                                            01 
01050010008001493000232000517000511000197000036REP       US Representative, District 4                           John Ratcliffe                        PRECINCT 2C                                            01 
01050010009000053000013000016000010000011000003REP       US Representative, District 4                           John Ratcliffe                        PRECINCT 3                                             01 
01050010010000150000017000026000049000046000012REP       US Representative, District 4                           John Ratcliffe                        PRECINCT 3A                                            01 
01050010011000414000040000100000180000088000006REP       US Representative, District 4                           John Ratcliffe                        PRECINCT 3B                                            01 
01050010012000939000134000316000239000202000048REP       US Representative, District 4                           John Ratcliffe                        PRECINCT 3C                                            01 
01050010013000982000156000296000147000345000038REP       US Representative, District 4                           John Ratcliffe                        PRECINCT 3D                                            01 
01050010014000510000092000129000122000125000042REP       US Representative, District 4                           John Ratcliffe                        PRECINCT 4                                             01 
01050010015000761000096000161000207000263000034REP       US Representative, District 4                           John Ratcliffe                        PRECINCT 4A                                            01 
01050010016000175000040000007000085000033000010REP       US Representative, District 4                           John Ratcliffe                        PRECINCT 4B                                            01 
01050010017000315000047000023000158000075000012REP       US Representative, District 4                           John Ratcliffe                        PRECINCT 4C                                            01 
01050020001000242000032000077000035000080000018REP       US Representative, District 4                           Lou Gigliotti                         PRECINCT 1                                             01 
01050020002000130000022000025000046000033000004REP       US Representative, District 4                           Lou Gigliotti                         PRECINCT 1A                                            01 
01050020003000208000037000057000032000071000011REP       US Representative, District 4                           Lou Gigliotti                         PRECINCT 1B                                            01 
01050020004000172000035000037000038000057000005REP       US Representative, District 4                           Lou Gigliotti                         PRECINCT 1C                                            01 
01050020005000192000035000072000024000053000008REP       US Representative, District 4                           Lou Gigliotti                         PRECINCT 2                                             01 
01050020006000155000035000037000021000053000009REP       US Representative, District 4                           Lou Gigliotti                         PRECINCT 2A                                            01 
01050020007000087000007000015000030000029000006REP       US Representative, District 4                           Lou Gigliotti                         PRECINCT 2B                                            01 
01050020008000199000041000052000085000019000002REP       US Representative, District 4                           Lou Gigliotti                         PRECINCT 2C                                            01 
01050020009000010000000000002000003000002000003REP       US Representative, District 4                           Lou Gigliotti                         PRECINCT 3                                             01 
01050020010000046000006000009000019000011000001REP       US Representative, District 4                           Lou Gigliotti                         PRECINCT 3A                                            01 
01050020011000076000011000011000035000018000001REP       US Representative, District 4                           Lou Gigliotti                         PRECINCT 3B                                            01 
01050020012000091000023000023000025000016000004REP       US Representative, District 4                           Lou Gigliotti                         PRECINCT 3C                                            01 
01050020013000184000030000029000043000072000010REP       US Representative, District 4                           Lou Gigliotti                         PRECINCT 3D                                            01 
01050020014000103000024000020000030000023000006REP       US Representative, District 4                           Lou Gigliotti                         PRECINCT 4                                             01 
01050020015000197000023000042000049000076000007REP       US Representative, District 4                           Lou Gigliotti                         PRECINCT 4A                                            01 
01050020016000063000020000001000030000011000001REP       US Representative, District 4                           Lou Gigliotti                         PRECINCT 4B                                            01 
01050020017000091000016000004000049000020000002REP       US Representative, District 4                           Lou Gigliotti                         PRECINCT 4C                                            01 
01050030001000141000019000033000030000051000008REP       US Representative, District 4                           Ray Hall                              PRECINCT 1                                             01 
01050030002000128000011000031000045000034000007REP       US Representative, District 4                           Ray Hall                              PRECINCT 1A                                            01 
01050030003000129000023000025000023000050000008REP       US Representative, District 4                           Ray Hall                              PRECINCT 1B                                            01 
01050030004000096000006000021000029000032000008REP       US Representative, District 4                           Ray Hall                              PRECINCT 1C                                            01 
01050030005000151000021000038000023000056000013REP       US Representative, District 4                           Ray Hall                              PRECINCT 2                                             01 
01050030006000106000019000026000008000042000011REP       US Representative, District 4                           Ray Hall                              PRECINCT 2A                                            01 
01050030007000074000007000021000018000022000006REP       US Representative, District 4                           Ray Hall                              PRECINCT 2B                                            01 
01050030008000107000016000032000042000015000002REP       US Representative, District 4                           Ray Hall                              PRECINCT 2C                                            01 
01050030009000012000003000004000001000002000002REP       US Representative, District 4                           Ray Hall                              PRECINCT 3                                             01 
01050030010000036000001000002000021000008000004REP       US Representative, District 4                           Ray Hall                              PRECINCT 3A                                            01 
01050030011000086000011000021000038000015000001REP       US Representative, District 4                           Ray Hall                              PRECINCT 3B                                            01 
01050030012000042000007000011000012000011000001REP       US Representative, District 4                           Ray Hall                              PRECINCT 3C                                            01 
01050030013000124000021000023000029000046000005REP       US Representative, District 4                           Ray Hall                              PRECINCT 3D                                            01 
01050030014000081000014000015000019000026000007REP       US Representative, District 4                           Ray Hall                              PRECINCT 4                                             01 
01050030015000147000025000014000045000058000005REP       US Representative, District 4                           Ray Hall                              PRECINCT 4A                                            01 
01050030016000055000008000002000030000013000002REP       US Representative, District 4                           Ray Hall                              PRECINCT 4B                                            01 
01050030017000080000008000004000039000028000001REP       US Representative, District 4                           Ray Hall                              PRECINCT 4C                                            01 
01050040001000000000000000000000000000000000000REP       US Representative, District 4                           OVER VOTES                            PRECINCT 1                                             01 
01050040002000000000000000000000000000000000000REP       US Representative, District 4                           OVER VOTES                            PRECINCT 1A                                            01 
01050040003000000000000000000000000000000000000REP       US Representative, District 4                           OVER VOTES                            PRECINCT 1B                                            01 
01050040004000000000000000000000000000000000000REP       US Representative, District 4                           OVER VOTES                            PRECINCT 1C                                            01 
01050040005000001000001000000000000000000000000REP       US Representative, District 4                           OVER VOTES                            PRECINCT 2                                             01 
01050040006000000000000000000000000000000000000REP       US Representative, District 4                           OVER VOTES                            PRECINCT 2A                                            01 
01050040007000000000000000000000000000000000000REP       US Representative, District 4                           OVER VOTES                            PRECINCT 2B                                            01 
01050040008000000000000000000000000000000000000REP       US Representative, District 4                           OVER VOTES                            PRECINCT 2C                                            01 
01050040009000000000000000000000000000000000000REP       US Representative, District 4                           OVER VOTES                            PRECINCT 3                                             01 
01050040010000000000000000000000000000000000000REP       US Representative, District 4                           OVER VOTES                            PRECINCT 3A                                            01 
01050040011000000000000000000000000000000000000REP       US Representative, District 4                           OVER VOTES                            PRECINCT 3B                                            01 
01050040012000000000000000000000000000000000000REP       US Representative, District 4                           OVER VOTES                            PRECINCT 3C                                            01 
01050040013000000000000000000000000000000000000REP       US Representative, District 4                           OVER VOTES                            PRECINCT 3D                                            01 
01050040014000000000000000000000000000000000000REP       US Representative, District 4                           OVER VOTES                            PRECINCT 4                                             01 
01050040015000000000000000000000000000000000000REP       US Representative, District 4                           OVER VOTES                            PRECINCT 4A                                            01 
01050040016000000000000000000000000000000000000REP       US Representative, District 4                           OVER VOTES                            PRECINCT 4B                                            01 
01050040017000000000000000000000000000000000000REP       US Representative, District 4                           OVER VOTES                            PRECINCT 4C                                            01 
01050050001000187000019000060000021000079000008REP       US Representative, District 4                           UNDER VOTES                           PRECINCT 1                                             01 
01050050002000126000010000039000028000045000004REP       US Representative, District 4                           UNDER VOTES                           PRECINCT 1A                                            01 
01050050003000208000022000058000038000087000003REP       US Representative, District 4                           UNDER VOTES                           PRECINCT 1B                                            01 
01050050004000144000017000051000023000050000003REP       US Representative, District 4                           UNDER VOTES                           PRECINCT 1C                                            01 
01050050005000209000021000065000031000081000011REP       US Representative, District 4                           UNDER VOTES                           PRECINCT 2                                             01 
01050050006000185000026000045000032000072000010REP       US Representative, District 4                           UNDER VOTES                           PRECINCT 2A                                            01 
01050050007000081000005000028000023000025000000REP       US Representative, District 4                           UNDER VOTES                           PRECINCT 2B                                            01 
01050050008000116000005000056000010000036000009REP       US Representative, District 4                           UNDER VOTES                           PRECINCT 2C                                            01 
01050050009000033000002000018000001000008000004REP       US Representative, District 4                           UNDER VOTES                           PRECINCT 3                                             01 
01050050010000048000004000015000014000014000001REP       US Representative, District 4                           UNDER VOTES                           PRECINCT 3A                                            01 
01050050011000097000011000026000033000023000004REP       US Representative, District 4                           UNDER VOTES                           PRECINCT 3B                                            01 
01050050012000098000014000033000020000029000002REP       US Representative, District 4                           UNDER VOTES                           PRECINCT 3C                                            01 
01050050013000203000016000061000039000081000006REP       US Representative, District 4                           UNDER VOTES                           PRECINCT 3D                                            01 
01050050014000115000011000037000021000038000008REP       US Representative, District 4                           UNDER VOTES                           PRECINCT 4                                             01 
01050050015000197000011000046000056000077000007REP       US Representative, District 4                           UNDER VOTES                           PRECINCT 4A                                            01 
01050050016000063000009000014000017000021000002REP       US Representative, District 4                           UNDER VOTES                           PRECINCT 4B                                            01 
01050050017000072000002000013000035000021000001REP       US Representative, District 4                           UNDER VOTES                           PRECINCT 4C                                            01 
01060010001000150000019000044000019000063000005REP       Railroad Commissioner                                   Weston Martinez                       PRECINCT 1                                             01 
01060010002000084000006000013000026000035000004REP       Railroad Commissioner                                   Weston Martinez                       PRECINCT 1A                                            01 
01060010003000135000024000035000020000055000001REP       Railroad Commissioner                                   Weston Martinez                       PRECINCT 1B                                            01 
01060010004000097000015000024000015000039000004REP       Railroad Commissioner                                   Weston Martinez                       PRECINCT 1C                                            01 
01060010005000105000013000042000013000031000006REP       Railroad Commissioner                                   Weston Martinez                       PRECINCT 2                                             01 
01060010006000120000018000033000017000044000008REP       Railroad Commissioner                                   Weston Martinez                       PRECINCT 2A                                            01 
01060010007000043000002000007000010000023000001REP       Railroad Commissioner                                   Weston Martinez                       PRECINCT 2B                                            01 
01060010008000150000030000057000042000019000002REP       Railroad Commissioner                                   Weston Martinez                       PRECINCT 2C                                            01 
01060010009000004000001000002000000000001000000REP       Railroad Commissioner                                   Weston Martinez                       PRECINCT 3                                             01 
01060010010000039000003000006000015000014000001REP       Railroad Commissioner                                   Weston Martinez                       PRECINCT 3A                                            01 
01060010011000077000007000010000036000021000003REP       Railroad Commissioner                                   Weston Martinez                       PRECINCT 3B                                            01 
01060010012000080000009000026000014000027000004REP       Railroad Commissioner                                   Weston Martinez                       PRECINCT 3C                                            01 
01060010013000146000024000045000025000050000002REP       Railroad Commissioner                                   Weston Martinez                       PRECINCT 3D                                            01 
01060010014000059000010000013000013000015000008REP       Railroad Commissioner                                   Weston Martinez                       PRECINCT 4                                             01 
01060010015000133000018000032000034000048000001REP       Railroad Commissioner                                   Weston Martinez                       PRECINCT 4A                                            01 
01060010016000032000004000001000014000010000003REP       Railroad Commissioner                                   Weston Martinez                       PRECINCT 4B                                            01 
01060010017000065000009000006000025000024000001REP       Railroad Commissioner                                   Weston Martinez                       PRECINCT 4C                                            01 
01060020001000063000016000019000009000015000004REP       Railroad Commissioner                                   John Greytok                          PRECINCT 1                                             01 
01060020002000041000010000011000013000006000001REP       Railroad Commissioner                                   John Greytok                          PRECINCT 1A                                            01 
01060020003000077000018000017000010000027000005REP       Railroad Commissioner                                   John Greytok                          PRECINCT 1B                                            01 
01060020004000045000009000017000010000008000001REP       Railroad Commissioner                                   John Greytok                          PRECINCT 1C                                            01 
01060020005000057000011000018000003000020000005REP       Railroad Commissioner                                   John Greytok                          PRECINCT 2                                             01 
01060020006000044000004000010000005000021000004REP       Railroad Commissioner                                   John Greytok                          PRECINCT 2A                                            01 
01060020007000030000005000008000009000005000003REP       Railroad Commissioner                                   John Greytok                          PRECINCT 2B                                            01 
01060020008000078000011000021000033000012000001REP       Railroad Commissioner                                   John Greytok                          PRECINCT 2C                                            01 
01060020009000006000000000004000001000001000000REP       Railroad Commissioner                                   John Greytok                          PRECINCT 3                                             01 
01060020010000020000005000007000006000001000001REP       Railroad Commissioner                                   John Greytok                          PRECINCT 3A                                            01 
01060020011000026000005000008000013000000000000REP       Railroad Commissioner                                   John Greytok                          PRECINCT 3B                                            01 
01060020012000059000007000019000016000016000001REP       Railroad Commissioner                                   John Greytok                          PRECINCT 3C                                            01 
01060020013000093000014000015000010000051000003REP       Railroad Commissioner                                   John Greytok                          PRECINCT 3D                                            01 
01060020014000036000009000009000006000009000003REP       Railroad Commissioner                                   John Greytok                          PRECINCT 4                                             01 
01060020015000066000011000017000017000020000001REP       Railroad Commissioner                                   John Greytok                          PRECINCT 4A                                            01 
01060020016000017000000000001000011000005000000REP       Railroad Commissioner                                   John Greytok                          PRECINCT 4B                                            01 
01060020017000035000004000004000020000007000000REP       Railroad Commissioner                                   John Greytok                          PRECINCT 4C                                            01 
01060030001000225000036000067000039000071000012REP       Railroad Commissioner                                   Lance N. Christian                    PRECINCT 1                                             01 
01060030002000137000016000028000053000030000010REP       Railroad Commissioner                                   Lance N. Christian                    PRECINCT 1A                                            01 
01060030003000183000024000056000025000071000007REP       Railroad Commissioner                                   Lance N. Christian                    PRECINCT 1B                                            01 
01060030004000146000027000036000024000048000011REP       Railroad Commissioner                                   Lance N. Christian                    PRECINCT 1C                                            01 
01060030005000186000044000051000022000051000018REP       Railroad Commissioner                                   Lance N. Christian                    PRECINCT 2                                             01 
01060030006000174000027000040000024000066000017REP       Railroad Commissioner                                   Lance N. Christian                    PRECINCT 2A                                            01 
01060030007000070000007000017000019000024000003REP       Railroad Commissioner                                   Lance N. Christian                    PRECINCT 2B                                            01 
01060030008000251000047000070000084000042000008REP       Railroad Commissioner                                   Lance N. Christian                    PRECINCT 2C                                            01 
01060030009000012000004000004000001000002000001REP       Railroad Commissioner                                   Lance N. Christian                    PRECINCT 3                                             01 
01060030010000026000002000003000014000006000001REP       Railroad Commissioner                                   Lance N. Christian                    PRECINCT 3A                                            01 
01060030011000071000011000024000021000015000000REP       Railroad Commissioner                                   Lance N. Christian                    PRECINCT 3B                                            01 
01060030012000123000016000047000038000017000005REP       Railroad Commissioner                                   Lance N. Christian                    PRECINCT 3C                                            01 
01060030013000152000015000053000032000049000003REP       Railroad Commissioner                                   Lance N. Christian                    PRECINCT 3D                                            01 
01060030014000107000023000037000019000020000008REP       Railroad Commissioner                                   Lance N. Christian                    PRECINCT 4                                             01 
01060030015000173000020000036000038000064000015REP       Railroad Commissioner                                   Lance N. Christian                    PRECINCT 4A                                            01 
01060030016000042000010000001000018000011000002REP       Railroad Commissioner                                   Lance N. Christian                    PRECINCT 4B                                            01 
01060030017000059000009000005000024000017000004REP       Railroad Commissioner                                   Lance N. Christian                    PRECINCT 4C                                            01 
01060040001000163000025000045000030000059000004REP       Railroad Commissioner                                   Doug Jeffrey                          PRECINCT 1                                             01 
01060040002000085000009000013000030000025000008REP       Railroad Commissioner                                   Doug Jeffrey                          PRECINCT 1A                                            01 
01060040003000155000026000043000020000055000011REP       Railroad Commissioner                                   Doug Jeffrey                          PRECINCT 1B                                            01 
01060040004000138000020000037000038000038000005REP       Railroad Commissioner                                   Doug Jeffrey                          PRECINCT 1C                                            01 
01060040005000128000014000048000020000042000004REP       Railroad Commissioner                                   Doug Jeffrey                          PRECINCT 2                                             01 
01060040006000100000014000034000013000034000005REP       Railroad Commissioner                                   Doug Jeffrey                          PRECINCT 2A                                            01 
01060040007000040000005000007000011000015000002REP       Railroad Commissioner                                   Doug Jeffrey                          PRECINCT 2B                                            01 
01060040008000165000022000053000062000025000003REP       Railroad Commissioner                                   Doug Jeffrey                          PRECINCT 2C                                            01 
01060040009000011000000000004000004000001000002REP       Railroad Commissioner                                   Doug Jeffrey                          PRECINCT 3                                             01 
01060040010000031000000000006000014000010000001REP       Railroad Commissioner                                   Doug Jeffrey                          PRECINCT 3A                                            01 
01060040011000100000006000021000045000028000000REP       Railroad Commissioner                                   Doug Jeffrey                          PRECINCT 3B                                            01 
01060040012000104000018000031000028000025000002REP       Railroad Commissioner                                   Doug Jeffrey                          PRECINCT 3C                                            01 
01060040013000160000021000043000020000071000005REP       Railroad Commissioner                                   Doug Jeffrey                          PRECINCT 3D                                            01 
01060040014000066000009000017000013000020000007REP       Railroad Commissioner                                   Doug Jeffrey                          PRECINCT 4                                             01 
