01050010001000003REP       President                                               Rand Paul                             PRECINCT 1                                             01 
01050010002000000REP       President                                               Rand Paul                             PRECINCT 2                                             01 
01050010003000000REP       President                                               Rand Paul                             PRECINCT 3                                             01 
01050010004000000REP       President                                               Rand Paul                             PRECINCT 4                                             01 
01050010005000000REP       President                                               Rand Paul                             PRECINCT 5                                             01 
01050010006000000REP       President                                               Rand Paul                             PRECINCT 6                                             01 
01050010007000001REP       President                                               Rand Paul                             PRECINCT 7                                             01 
01050010008000001REP       President                                               Rand Paul                             PRECINCT 8                                             01 
01050010009000000REP       President                                               Rand Paul                             PRECINCT 9                                             01 
01050010010000000REP       President                                               Rand Paul                             PRECINCT 10                                            01 
01050010011000000REP       President                                               Rand Paul                             PRECINCT 11                                            01 
01050020001000011REP       President                                               John R. Kasich                        PRECINCT 1                                             01 
01050020002000003REP       President                                               John R. Kasich                        PRECINCT 2                                             01 
01050020003000000REP       President                                               John R. Kasich                        PRECINCT 3                                             01 
01050020004000001REP       President                                               John R. Kasich                        PRECINCT 4                                             01 
01050020005000002REP       President                                               John R. Kasich                        PRECINCT 5                                             01 
01050020006000000REP       President                                               John R. Kasich                        PRECINCT 6                                             01 
01050020007000003REP       President                                               John R. Kasich                        PRECINCT 7                                             01 
01050020008000005REP       President                                               John R. Kasich                        PRECINCT 8                                             01 
01050020009000002REP       President                                               John R. Kasich                        PRECINCT 9                                             01 
01050020010000003REP       President                                               John R. Kasich                        PRECINCT 10                                            01 
01050020011000000REP       President                                               John R. Kasich                        PRECINCT 11                                            01 
01050030001000000REP       President                                               Rick Santorum                         PRECINCT 1                                             01 
01050030002000000REP       President                                               Rick Santorum                         PRECINCT 2                                             01 
01050030003000000REP       President                                               Rick Santorum                         PRECINCT 3                                             01 
01050030004000000REP       President                                               Rick Santorum                         PRECINCT 4                                             01 
01050030005000000REP       President                                               Rick Santorum                         PRECINCT 5                                             01 
01050030006000001REP       President                                               Rick Santorum                         PRECINCT 6                                             01 
01050030007000000REP       President                                               Rick Santorum                         PRECINCT 7                                             01 
01050030008000000REP       President                                               Rick Santorum                         PRECINCT 8                                             01 
01050030009000000REP       President                                               Rick Santorum                         PRECINCT 9                                             01 
01050030010000000REP       President                                               Rick Santorum                         PRECINCT 10                                            01 
01050030011000000REP       President                                               Rick Santorum                         PRECINCT 11                                            01 
01050040001000008REP       President                                               Ben Carson                            PRECINCT 1                                             01 
01050040002000000REP       President                                               Ben Carson                            PRECINCT 2                                             01 
01050040003000000REP       President                                               Ben Carson                            PRECINCT 3                                             01 
01050040004000005REP       President                                               Ben Carson                            PRECINCT 4                                             01 
01050040005000009REP       President                                               Ben Carson                            PRECINCT 5                                             01 
01050040006000005REP       President                                               Ben Carson                            PRECINCT 6                                             01 
01050040007000005REP       President                                               Ben Carson                            PRECINCT 7                                             01 
01050040008000009REP       President                                               Ben Carson                            PRECINCT 8                                             01 
01050040009000013REP       President                                               Ben Carson                            PRECINCT 9                                             01 
01050040010000002REP       President                                               Ben Carson                            PRECINCT 10                                            01 
01050040011000001REP       President                                               Ben Carson                            PRECINCT 11                                            01 
01050050001000001REP       President                                               Mike Huckabee                         PRECINCT 1                                             01 
01050050002000000REP       President                                               Mike Huckabee                         PRECINCT 2                                             01 
01050050003000000REP       President                                               Mike Huckabee                         PRECINCT 3                                             01 
01050050004000001REP       President                                               Mike Huckabee                         PRECINCT 4                                             01 
01050050005000000REP       President                                               Mike Huckabee                         PRECINCT 5                                             01 
01050050006000001REP       President                                               Mike Huckabee                         PRECINCT 6                                             01 
01050050007000001REP       President                                               Mike Huckabee                         PRECINCT 7                                             01 
01050050008000000REP       President                                               Mike Huckabee                         PRECINCT 8                                             01 
01050050009000002REP       President                                               Mike Huckabee                         PRECINCT 9                                             01 
01050050010000001REP       President                                               Mike Huckabee                         PRECINCT 10                                            01 
01050050011000000REP       President                                               Mike Huckabee                         PRECINCT 11                                            01 
01050060001000151REP       President                                               Donald J. Trump                       PRECINCT 1                                             01 
01050060002000032REP       President                                               Donald J. Trump                       PRECINCT 2                                             01 
01050060003000034REP       President                                               Donald J. Trump                       PRECINCT 3                                             01 
01050060004000054REP       President                                               Donald J. Trump                       PRECINCT 4                                             01 
01050060005000053REP       President                                               Donald J. Trump                       PRECINCT 5                                             01 
01050060006000050REP       President                                               Donald J. Trump                       PRECINCT 6                                             01 
01050060007000048REP       President                                               Donald J. Trump                       PRECINCT 7                                             01 
01050060008000141REP       President                                               Donald J. Trump                       PRECINCT 8                                             01 
01050060009000144REP       President                                               Donald J. Trump                       PRECINCT 9                                             01 
01050060010000096REP       President                                               Donald J. Trump                       PRECINCT 10                                            01 
01050060011000004REP       President                                               Donald J. Trump                       PRECINCT 11                                            01 
01050070001000004REP       President                                               Chris Christie                        PRECINCT 1                                             01 
01050070002000000REP       President                                               Chris Christie                        PRECINCT 2                                             01 
01050070003000000REP       President                                               Chris Christie                        PRECINCT 3                                             01 
01050070004000000REP       President                                               Chris Christie                        PRECINCT 4                                             01 
01050070005000000REP       President                                               Chris Christie                        PRECINCT 5                                             01 
01050070006000000REP       President                                               Chris Christie                        PRECINCT 6                                             01 
01050070007000000REP       President                                               Chris Christie                        PRECINCT 7                                             01 
01050070008000000REP       President                                               Chris Christie                        PRECINCT 8                                             01 
01050070009000000REP       President                                               Chris Christie                        PRECINCT 9                                             01 
01050070010000001REP       President                                               Chris Christie                        PRECINCT 10                                            01 
01050070011000000REP       President                                               Chris Christie                        PRECINCT 11                                            01 
01050080001000030REP       President                                               Marco Rubio                           PRECINCT 1                                             01 
01050080002000003REP       President                                               Marco Rubio                           PRECINCT 2                                             01 
01050080003000003REP       President                                               Marco Rubio                           PRECINCT 3                                             01 
01050080004000019REP       President                                               Marco Rubio                           PRECINCT 4                                             01 
01050080005000014REP       President                                               Marco Rubio                           PRECINCT 5                                             01 
01050080006000011REP       President                                               Marco Rubio                           PRECINCT 6                                             01 
01050080007000003REP       President                                               Marco Rubio                           PRECINCT 7                                             01 
01050080008000024REP       President                                               Marco Rubio                           PRECINCT 8                                             01 
01050080009000017REP       President                                               Marco Rubio                           PRECINCT 9                                             01 
01050080010000013REP       President                                               Marco Rubio                           PRECINCT 10                                            01 
01050080011000001REP       President                                               Marco Rubio                           PRECINCT 11                                            01 
01050090001000195REP       President                                               Ted Cruz                              PRECINCT 1                                             01 
01050090002000062REP       President                                               Ted Cruz                              PRECINCT 2                                             01 
01050090003000033REP       President                                               Ted Cruz                              PRECINCT 3                                             01 
01050090004000068REP       President                                               Ted Cruz                              PRECINCT 4                                             01 
01050090005000071REP       President                                               Ted Cruz                              PRECINCT 5                                             01 
01050090006000069REP       President                                               Ted Cruz                              PRECINCT 6                                             01 
01050090007000085REP       President                                               Ted Cruz                              PRECINCT 7                                             01 
01050090008000139REP       President                                               Ted Cruz                              PRECINCT 8                                             01 
01050090009000130REP       President                                               Ted Cruz                              PRECINCT 9                                             01 
01050090010000061REP       President                                               Ted Cruz                              PRECINCT 10                                            01 
01050090011000003REP       President                                               Ted Cruz                              PRECINCT 11                                            01 
01050100001000007REP       President                                               Jeb Bush                              PRECINCT 1                                             01 
01050100002000000REP       President                                               Jeb Bush                              PRECINCT 2                                             01 
01050100003000002REP       President                                               Jeb Bush                              PRECINCT 3                                             01 
01050100004000004REP       President                                               Jeb Bush                              PRECINCT 4                                             01 
01050100005000001REP       President                                               Jeb Bush                              PRECINCT 5                                             01 
01050100006000000REP       President                                               Jeb Bush                              PRECINCT 6                                             01 
01050100007000001REP       President                                               Jeb Bush                              PRECINCT 7                                             01 
01050100008000006REP       President                                               Jeb Bush                              PRECINCT 8                                             01 
01050100009000010REP       President                                               Jeb Bush                              PRECINCT 9                                             01 
01050100010000003REP       President                                               Jeb Bush                              PRECINCT 10                                            01 
01050100011000000REP       President                                               Jeb Bush                              PRECINCT 11                                            01 
01050110001000000REP       President                                               Elizabeth Gray                        PRECINCT 1                                             01 
01050110002000000REP       President                                               Elizabeth Gray                        PRECINCT 2                                             01 
01050110003000000REP       President                                               Elizabeth Gray                        PRECINCT 3                                             01 
01050110004000000REP       President                                               Elizabeth Gray                        PRECINCT 4                                             01 
01050110005000000REP       President                                               Elizabeth Gray                        PRECINCT 5                                             01 
01050110006000000REP       President                                               Elizabeth Gray                        PRECINCT 6                                             01 
01050110007000000REP       President                                               Elizabeth Gray                        PRECINCT 7                                             01 
01050110008000000REP       President                                               Elizabeth Gray                        PRECINCT 8                                             01 
01050110009000000REP       President                                               Elizabeth Gray                        PRECINCT 9                                             01 
01050110010000000REP       President                                               Elizabeth Gray                        PRECINCT 10                                            01 
01050110011000000REP       President                                               Elizabeth Gray                        PRECINCT 11                                            01 
01050120001000000REP       President                                               Carly Fiorina                         PRECINCT 1                                             01 
01050120002000000REP       President                                               Carly Fiorina                         PRECINCT 2                                             01 
01050120003000000REP       President                                               Carly Fiorina                         PRECINCT 3                                             01 
01050120004000000REP       President                                               Carly Fiorina                         PRECINCT 4                                             01 
01050120005000000REP       President                                               Carly Fiorina                         PRECINCT 5                                             01 
01050120006000000REP       President                                               Carly Fiorina                         PRECINCT 6                                             01 
01050120007000000REP       President                                               Carly Fiorina                         PRECINCT 7                                             01 
01050120008000000REP       President                                               Carly Fiorina                         PRECINCT 8                                             01 
01050120009000000REP       President                                               Carly Fiorina                         PRECINCT 9                                             01 
01050120010000000REP       President                                               Carly Fiorina                         PRECINCT 10                                            01 
01050120011000000REP       President                                               Carly Fiorina                         PRECINCT 11                                            01 
01050130001000000REP       President                                               Lindsey Graham                        PRECINCT 1                                             01 
01050130002000000REP       President                                               Lindsey Graham                        PRECINCT 2                                             01 
01050130003000000REP       President                                               Lindsey Graham                        PRECINCT 3                                             01 
01050130004000000REP       President                                               Lindsey Graham                        PRECINCT 4                                             01 
01050130005000000REP       President                                               Lindsey Graham                        PRECINCT 5                                             01 
01050130006000000REP       President                                               Lindsey Graham                        PRECINCT 6                                             01 
01050130007000000REP       President                                               Lindsey Graham                        PRECINCT 7                                             01 
01050130008000000REP       President                                               Lindsey Graham                        PRECINCT 8                                             01 
01050130009000000REP       President                                               Lindsey Graham                        PRECINCT 9                                             01 
01050130010000001REP       President                                               Lindsey Graham                        PRECINCT 10                                            01 
01050130011000000REP       President                                               Lindsey Graham                        PRECINCT 11                                            01 
01050140001000003REP       President                                               Uncommitted                           PRECINCT 1                                             01 
01050140002000003REP       President                                               Uncommitted                           PRECINCT 2                                             01 
01050140003000001REP       President                                               Uncommitted                           PRECINCT 3                                             01 
01050140004000003REP       President                                               Uncommitted                           PRECINCT 4                                             01 
01050140005000003REP       President                                               Uncommitted                           PRECINCT 5                                             01 
01050140006000004REP       President                                               Uncommitted                           PRECINCT 6                                             01 
01050140007000002REP       President                                               Uncommitted                           PRECINCT 7                                             01 
01050140008000006REP       President                                               Uncommitted                           PRECINCT 8                                             01 
01050140009000005REP       President                                               Uncommitted                           PRECINCT 9                                             01 
01050140010000002REP       President                                               Uncommitted                           PRECINCT 10                                            01 
01050140011000000REP       President                                               Uncommitted                           PRECINCT 11                                            01 
01050150001000000REP       President                                               OVER VOTES                            PRECINCT 1                                             01 
01050150002000000REP       President                                               OVER VOTES                            PRECINCT 2                                             01 
01050150003000000REP       President                                               OVER VOTES                            PRECINCT 3                                             01 
01050150004000000REP       President                                               OVER VOTES                            PRECINCT 4                                             01 
01050150005000000REP       President                                               OVER VOTES                            PRECINCT 5                                             01 
01050150006000000REP       President                                               OVER VOTES                            PRECINCT 6                                             01 
01050150007000000REP       President                                               OVER VOTES                            PRECINCT 7                                             01 
01050150008000001REP       President                                               OVER VOTES                            PRECINCT 8                                             01 
01050150009000000REP       President                                               OVER VOTES                            PRECINCT 9                                             01 
01050150010000000REP       President                                               OVER VOTES                            PRECINCT 10                                            01 
01050150011000000REP       President                                               OVER VOTES                            PRECINCT 11                                            01 
01050160001000018REP       President                                               UNDER VOTES                           PRECINCT 1                                             01 
01050160002000002REP       President                                               UNDER VOTES                           PRECINCT 2                                             01 
01050160003000005REP       President                                               UNDER VOTES                           PRECINCT 3                                             01 
01050160004000002REP       President                                               UNDER VOTES                           PRECINCT 4                                             01 
01050160005000002REP       President                                               UNDER VOTES                           PRECINCT 5                                             01 
01050160006000005REP       President                                               UNDER VOTES                           PRECINCT 6                                             01 
01050160007000005REP       President                                               UNDER VOTES                           PRECINCT 7                                             01 
01050160008000013REP       President                                               UNDER VOTES                           PRECINCT 8                                             01 
01050160009000007REP       President                                               UNDER VOTES                           PRECINCT 9                                             01 
01050160010000003REP       President                                               UNDER VOTES                           PRECINCT 10                                            01 
01050160011000001REP       President                                               UNDER VOTES                           PRECINCT 11                                            01 
01060010001000309REP       United States Representative, District 1                Louie Gohmert                         PRECINCT 1                                             01 
01060010002000071REP       United States Representative, District 1                Louie Gohmert                         PRECINCT 2                                             01 
01060010003000048REP       United States Representative, District 1                Louie Gohmert                         PRECINCT 3                                             01 
01060010004000101REP       United States Representative, District 1                Louie Gohmert                         PRECINCT 4                                             01 
01060010005000104REP       United States Representative, District 1                Louie Gohmert                         PRECINCT 5                                             01 
01060010006000096REP       United States Representative, District 1                Louie Gohmert                         PRECINCT 6                                             01 
01060010007000108REP       United States Representative, District 1                Louie Gohmert                         PRECINCT 7                                             01 
01060010008000223REP       United States Representative, District 1                Louie Gohmert                         PRECINCT 8                                             01 
01060010009000208REP       United States Representative, District 1                Louie Gohmert                         PRECINCT 9                                             01 
01060010010000115REP       United States Representative, District 1                Louie Gohmert                         PRECINCT 10                                            01 
01060010011000005REP       United States Representative, District 1                Louie Gohmert                         PRECINCT 11                                            01 
01060020001000019REP       United States Representative, District 1                Anthony Culler                        PRECINCT 1                                             01 
01060020002000005REP       United States Representative, District 1                Anthony Culler                        PRECINCT 2                                             01 
01060020003000004REP       United States Representative, District 1                Anthony Culler                        PRECINCT 3                                             01 
01060020004000010REP       United States Representative, District 1                Anthony Culler                        PRECINCT 4                                             01 
01060020005000012REP       United States Representative, District 1                Anthony Culler                        PRECINCT 5                                             01 
01060020006000009REP       United States Representative, District 1                Anthony Culler                        PRECINCT 6                                             01 
01060020007000007REP       United States Representative, District 1                Anthony Culler                        PRECINCT 7                                             01 
01060020008000026REP       United States Representative, District 1                Anthony Culler                        PRECINCT 8                                             01 
01060020009000033REP       United States Representative, District 1                Anthony Culler                        PRECINCT 9                                             01 
01060020010000017REP       United States Representative, District 1                Anthony Culler                        PRECINCT 10                                            01 
01060020011000001REP       United States Representative, District 1                Anthony Culler                        PRECINCT 11                                            01 
01060030001000059REP       United States Representative, District 1                Simon Winston                         PRECINCT 1                                             01 
01060030002000023REP       United States Representative, District 1                Simon Winston                         PRECINCT 2                                             01 
01060030003000010REP       United States Representative, District 1                Simon Winston                         PRECINCT 3                                             01 
01060030004000027REP       United States Representative, District 1                Simon Winston                         PRECINCT 4                                             01 
01060030005000025REP       United States Representative, District 1                Simon Winston                         PRECINCT 5                                             01 
01060030006000020REP       United States Representative, District 1                Simon Winston                         PRECINCT 6                                             01 
01060030007000020REP       United States Representative, District 1                Simon Winston                         PRECINCT 7                                             01 
01060030008000044REP       United States Representative, District 1                Simon Winston                         PRECINCT 8                                             01 
01060030009000053REP       United States Representative, District 1                Simon Winston                         PRECINCT 9                                             01 
01060030010000026REP       United States Representative, District 1                Simon Winston                         PRECINCT 10                                            01 
01060030011000000REP       United States Representative, District 1                Simon Winston                         PRECINCT 11                                            01 
01060040001000000REP       United States Representative, District 1                OVER VOTES                            PRECINCT 1                                             01 
01060040002000000REP       United States Representative, District 1                OVER VOTES                            PRECINCT 2                                             01 
01060040003000000REP       United States Representative, District 1                OVER VOTES                            PRECINCT 3                                             01 
01060040004000000REP       United States Representative, District 1                OVER VOTES                            PRECINCT 4                                             01 
01060040005000000REP       United States Representative, District 1                OVER VOTES                            PRECINCT 5                                             01 
01060040006000000REP       United States Representative, District 1                OVER VOTES                            PRECINCT 6                                             01 
01060040007000000REP       United States Representative, District 1                OVER VOTES                            PRECINCT 7                                             01 
01060040008000000REP       United States Representative, District 1                OVER VOTES                            PRECINCT 8                                             01 
01060040009000000REP       United States Representative, District 1                OVER VOTES                            PRECINCT 9                                             01 
01060040010000000REP       United States Representative, District 1                OVER VOTES                            PRECINCT 10                                            01 
01060040011000000REP       United States Representative, District 1                OVER VOTES                            PRECINCT 11                                            01 
01060050001000044REP       United States Representative, District 1                UNDER VOTES                           PRECINCT 1                                             01 
01060050002000006REP       United States Representative, District 1                UNDER VOTES                           PRECINCT 2                                             01 
01060050003000016REP       United States Representative, District 1                UNDER VOTES                           PRECINCT 3                                             01 
01060050004000019REP       United States Representative, District 1                UNDER VOTES                           PRECINCT 4                                             01 
01060050005000014REP       United States Representative, District 1                UNDER VOTES                           PRECINCT 5                                             01 
01060050006000021REP       United States Representative, District 1                UNDER VOTES                           PRECINCT 6                                             01 
01060050007000019REP       United States Representative, District 1                UNDER VOTES                           PRECINCT 7                                             01 
01060050008000053REP       United States Representative, District 1                UNDER VOTES                           PRECINCT 8                                             01 
01060050009000036REP       United States Representative, District 1                UNDER VOTES                           PRECINCT 9                                             01 
01060050010000028REP       United States Representative, District 1                UNDER VOTES                           PRECINCT 10                                            01 
01060050011000004REP       United States Representative, District 1                UNDER VOTES                           PRECINCT 11                                            01 
01070010001000021REP       Railroad Commissioner                                   Weston Martinez                       PRECINCT 1                                             01 
01070010002000001REP       Railroad Commissioner                                   Weston Martinez                       PRECINCT 2                                             01 
01070010003000006REP       Railroad Commissioner                                   Weston Martinez                       PRECINCT 3                                             01 
01070010004000013REP       Railroad Commissioner                                   Weston Martinez                       PRECINCT 4                                             01 
01070010005000006REP       Railroad Commissioner                                   Weston Martinez                       PRECINCT 5                                             01 
01070010006000001REP       Railroad Commissioner                                   Weston Martinez                       PRECINCT 6                                             01 
01070010007000004REP       Railroad Commissioner                                   Weston Martinez                       PRECINCT 7                                             01 
01070010008000012REP       Railroad Commissioner                                   Weston Martinez                       PRECINCT 8                                             01 
01070010009000017REP       Railroad Commissioner                                   Weston Martinez                       PRECINCT 9                                             01 
01070010010000004REP       Railroad Commissioner                                   Weston Martinez                       PRECINCT 10                                            01 
01070010011000001REP       Railroad Commissioner                                   Weston Martinez                       PRECINCT 11                                            01 
01070020001000014REP       Railroad Commissioner                                   John Greytok                          PRECINCT 1                                             01 
01070020002000003REP       Railroad Commissioner                                   John Greytok                          PRECINCT 2                                             01 
01070020003000000REP       Railroad Commissioner                                   John Greytok                          PRECINCT 3                                             01 
01070020004000001REP       Railroad Commissioner                                   John Greytok                          PRECINCT 4                                             01 
01070020005000001REP       Railroad Commissioner                                   John Greytok                          PRECINCT 5                                             01 
01070020006000006REP       Railroad Commissioner                                   John Greytok                          PRECINCT 6                                             01 
01070020007000002REP       Railroad Commissioner                                   John Greytok                          PRECINCT 7                                             01 
01070020008000007REP       Railroad Commissioner                                   John Greytok                          PRECINCT 8                                             01 
01070020009000011REP       Railroad Commissioner                                   John Greytok                          PRECINCT 9                                             01 
01070020010000002REP       Railroad Commissioner                                   John Greytok                          PRECINCT 10                                            01 
01070020011000001REP       Railroad Commissioner                                   John Greytok                          PRECINCT 11                                            01 
01070030001000019REP       Railroad Commissioner                                   Lance N. Christian                    PRECINCT 1                                             01 
01070030002000006REP       Railroad Commissioner                                   Lance N. Christian                    PRECINCT 2                                             01 
01070030003000003REP       Railroad Commissioner                                   Lance N. Christian                    PRECINCT 3                                             01 
01070030004000004REP       Railroad Commissioner                                   Lance N. Christian                    PRECINCT 4                                             01 
01070030005000004REP       Railroad Commissioner                                   Lance N. Christian                    PRECINCT 5                                             01 
01070030006000006REP       Railroad Commissioner                                   Lance N. Christian                    PRECINCT 6                                             01 
01070030007000009REP       Railroad Commissioner                                   Lance N. Christian                    PRECINCT 7                                             01 
01070030008000029REP       Railroad Commissioner                                   Lance N. Christian                    PRECINCT 8                                             01 
01070030009000027REP       Railroad Commissioner                                   Lance N. Christian                    PRECINCT 9                                             01 
01070030010000005REP       Railroad Commissioner                                   Lance N. Christian                    PRECINCT 10                                            01 
01070030011000000REP       Railroad Commissioner                                   Lance N. Christian                    PRECINCT 11                                            01 
01070040001000016REP       Railroad Commissioner                                   Doug Jeffrey                          PRECINCT 1                                             01 
01070040002000003REP       Railroad Commissioner                                   Doug Jeffrey                          PRECINCT 2                                             01 
01070040003000001REP       Railroad Commissioner                                   Doug Jeffrey                          PRECINCT 3                                             01 
01070040004000003REP       Railroad Commissioner                                   Doug Jeffrey                          PRECINCT 4                                             01 
01070040005000008REP       Railroad Commissioner                                   Doug Jeffrey                          PRECINCT 5                                             01 
01070040006000006REP       Railroad Commissioner                                   Doug Jeffrey                          PRECINCT 6                                             01 
01070040007000007REP       Railroad Commissioner                                   Doug Jeffrey                          PRECINCT 7                                             01 
01070040008000014REP       Railroad Commissioner                                   Doug Jeffrey                          PRECINCT 8                                             01 
01070040009000020REP       Railroad Commissioner                                   Doug Jeffrey                          PRECINCT 9                                             01 
01070040010000010REP       Railroad Commissioner                                   Doug Jeffrey                          PRECINCT 10                                            01 
01070040011000002REP       Railroad Commissioner                                   Doug Jeffrey                          PRECINCT 11                                            01 
01070050001000240REP       Railroad Commissioner                                   Wayne Christian                       PRECINCT 1                                             01 
01070050002000075REP       Railroad Commissioner                                   Wayne Christian                       PRECINCT 2                                             01 
01070050003000039REP       Railroad Commissioner                                   Wayne Christian                       PRECINCT 3                                             01 
01070050004000086REP       Railroad Commissioner                                   Wayne Christian                       PRECINCT 4                                             01 
01070050005000093REP       Railroad Commissioner                                   Wayne Christian                       PRECINCT 5                                             01 
01070050006000081REP       Railroad Commissioner                                   Wayne Christian                       PRECINCT 6                                             01 
01070050007000085REP       Railroad Commissioner                                   Wayne Christian                       PRECINCT 7                                             01 
01070050008000142REP       Railroad Commissioner                                   Wayne Christian                       PRECINCT 8                                             01 
01070050009000136REP       Railroad Commissioner                                   Wayne Christian                       PRECINCT 9                                             01 
01070050010000118REP       Railroad Commissioner                                   Wayne Christian                       PRECINCT 10                                            01 
01070050011000004REP       Railroad Commissioner                                   Wayne Christian                       PRECINCT 11                                            01 
01070060001000013REP       Railroad Commissioner                                   Ron Hale                              PRECINCT 1                                             01 
01070060002000002REP       Railroad Commissioner                                   Ron Hale                              PRECINCT 2                                             01 
01070060003000004REP       Railroad Commissioner                                   Ron Hale                              PRECINCT 3                                             01 
01070060004000013REP       Railroad Commissioner                                   Ron Hale                              PRECINCT 4                                             01 
01070060005000007REP       Railroad Commissioner                                   Ron Hale                              PRECINCT 5                                             01 
01070060006000006REP       Railroad Commissioner                                   Ron Hale                              PRECINCT 6                                             01 
01070060007000007REP       Railroad Commissioner                                   Ron Hale                              PRECINCT 7                                             01 
01070060008000024REP       Railroad Commissioner                                   Ron Hale                              PRECINCT 8                                             01 
01070060009000026REP       Railroad Commissioner                                   Ron Hale                              PRECINCT 9                                             01 
01070060010000007REP       Railroad Commissioner                                   Ron Hale                              PRECINCT 10                                            01 
01070060011000000REP       Railroad Commissioner                                   Ron Hale                              PRECINCT 11                                            01 
01070070001000021REP       Railroad Commissioner                                   Gary Gates                            PRECINCT 1                                             01 
01070070002000003REP       Railroad Commissioner                                   Gary Gates                            PRECINCT 2                                             01 
01070070003000004REP       Railroad Commissioner                                   Gary Gates                            PRECINCT 3                                             01 
01070070004000007REP       Railroad Commissioner                                   Gary Gates                            PRECINCT 4                                             01 
01070070005000004REP       Railroad Commissioner                                   Gary Gates                            PRECINCT 5                                             01 
01070070006000010REP       Railroad Commissioner                                   Gary Gates                            PRECINCT 6                                             01 
01070070007000015REP       Railroad Commissioner                                   Gary Gates                            PRECINCT 7                                             01 
01070070008000019REP       Railroad Commissioner                                   Gary Gates                            PRECINCT 8                                             01 
01070070009000023REP       Railroad Commissioner                                   Gary Gates                            PRECINCT 9                                             01 
01070070010000006REP       Railroad Commissioner                                   Gary Gates                            PRECINCT 10                                            01 
01070070011000000REP       Railroad Commissioner                                   Gary Gates                            PRECINCT 11                                            01 
01070080001000000REP       Railroad Commissioner                                   OVER VOTES                            PRECINCT 1                                             01 
01070080002000000REP       Railroad Commissioner                                   OVER VOTES                            PRECINCT 2                                             01 
01070080003000000REP       Railroad Commissioner                                   OVER VOTES                            PRECINCT 3                                             01 
01070080004000000REP       Railroad Commissioner                                   OVER VOTES                            PRECINCT 4                                             01 
01070080005000000REP       Railroad Commissioner                                   OVER VOTES                            PRECINCT 5                                             01 
01070080006000000REP       Railroad Commissioner                                   OVER VOTES                            PRECINCT 6                                             01 
01070080007000000REP       Railroad Commissioner                                   OVER VOTES                            PRECINCT 7                                             01 
01070080008000000REP       Railroad Commissioner                                   OVER VOTES                            PRECINCT 8                                             01 
01070080009000000REP       Railroad Commissioner                                   OVER VOTES                            PRECINCT 9                                             01 
01070080010000000REP       Railroad Commissioner                                   OVER VOTES                            PRECINCT 10                                            01 
01070080011000000REP       Railroad Commissioner                                   OVER VOTES                            PRECINCT 11                                            01 
01070090001000087REP       Railroad Commissioner                                   UNDER VOTES                           PRECINCT 1                                             01 
01070090002000012REP       Railroad Commissioner                                   UNDER VOTES                           PRECINCT 2                                             01 
01070090003000021REP       Railroad Commissioner                                   UNDER VOTES                           PRECINCT 3                                             01 
01070090004000030REP       Railroad Commissioner                                   UNDER VOTES                           PRECINCT 4                                             01 
01070090005000032REP       Railroad Commissioner                                   UNDER VOTES                           PRECINCT 5                                             01 
01070090006000030REP       Railroad Commissioner                                   UNDER VOTES                           PRECINCT 6                                             01 
01070090007000025REP       Railroad Commissioner                                   UNDER VOTES                           PRECINCT 7                                             01 
01070090008000098REP       Railroad Commissioner                                   UNDER VOTES                           PRECINCT 8                                             01 
01070090009000070REP       Railroad Commissioner                                   UNDER VOTES                           PRECINCT 9                                             01 
01070090010000034REP       Railroad Commissioner                                   UNDER VOTES                           PRECINCT 10                                            01 
01070090011000002REP       Railroad Commissioner                                   UNDER VOTES                           PRECINCT 11                                            01 
01080010001000159REP       Justice, Supreme Court, Place 3                         Michael Massengale                    PRECINCT 1                                             01 
01080010002000036REP       Justice, Supreme Court, Place 3                         Michael Massengale                    PRECINCT 2                                             01 
01080010003000025REP       Justice, Supreme Court, Place 3                         Michael Massengale                    PRECINCT 3                                             01 
01080010004000057REP       Justice, Supreme Court, Place 3                         Michael Massengale                    PRECINCT 4                                             01 
01080010005000065REP       Justice, Supreme Court, Place 3                         Michael Massengale                    PRECINCT 5                                             01 
01080010006000065REP       Justice, Supreme Court, Place 3                         Michael Massengale                    PRECINCT 6                                             01 
01080010007000072REP       Justice, Supreme Court, Place 3                         Michael Massengale                    PRECINCT 7                                             01 
01080010008000127REP       Justice, Supreme Court, Place 3                         Michael Massengale                    PRECINCT 8                                             01 
01080010009000126REP       Justice, Supreme Court, Place 3                         Michael Massengale                    PRECINCT 9                                             01 
01080010010000068REP       Justice, Supreme Court, Place 3                         Michael Massengale                    PRECINCT 10                                            01 
01080010011000001REP       Justice, Supreme Court, Place 3                         Michael Massengale                    PRECINCT 11                                            01 
01080020001000130REP       Justice, Supreme Court, Place 3                         Debra Lehrmann                        PRECINCT 1                                             01 
01080020002000043REP       Justice, Supreme Court, Place 3                         Debra Lehrmann                        PRECINCT 2                                             01 
01080020003000024REP       Justice, Supreme Court, Place 3                         Debra Lehrmann                        PRECINCT 3                                             01 
01080020004000051REP       Justice, Supreme Court, Place 3                         Debra Lehrmann                        PRECINCT 4                                             01 
01080020005000035REP       Justice, Supreme Court, Place 3                         Debra Lehrmann                        PRECINCT 5                                             01 
01080020006000026REP       Justice, Supreme Court, Place 3                         Debra Lehrmann                        PRECINCT 6                                             01 
01080020007000038REP       Justice, Supreme Court, Place 3                         Debra Lehrmann                        PRECINCT 7                                             01 
01080020008000098REP       Justice, Supreme Court, Place 3                         Debra Lehrmann                        PRECINCT 8                                             01 
01080020009000104REP       Justice, Supreme Court, Place 3                         Debra Lehrmann                        PRECINCT 9                                             01 
01080020010000049REP       Justice, Supreme Court, Place 3                         Debra Lehrmann                        PRECINCT 10                                            01 
01080020011000004REP       Justice, Supreme Court, Place 3                         Debra Lehrmann                        PRECINCT 11                                            01 
01080030001000000REP       Justice, Supreme Court, Place 3                         OVER VOTES                            PRECINCT 1                                             01 
01080030002000000REP       Justice, Supreme Court, Place 3                         OVER VOTES                            PRECINCT 2                                             01 
01080030003000000REP       Justice, Supreme Court, Place 3                         OVER VOTES                            PRECINCT 3                                             01 
01080030004000000REP       Justice, Supreme Court, Place 3                         OVER VOTES                            PRECINCT 4                                             01 
01080030005000000REP       Justice, Supreme Court, Place 3                         OVER VOTES                            PRECINCT 5                                             01 
01080030006000000REP       Justice, Supreme Court, Place 3                         OVER VOTES                            PRECINCT 6                                             01 
01080030007000000REP       Justice, Supreme Court, Place 3                         OVER VOTES                            PRECINCT 7                                             01 
01080030008000000REP       Justice, Supreme Court, Place 3                         OVER VOTES                            PRECINCT 8                                             01 
01080030009000000REP       Justice, Supreme Court, Place 3                         OVER VOTES                            PRECINCT 9                                             01 
01080030010000000REP       Justice, Supreme Court, Place 3                         OVER VOTES                            PRECINCT 10                                            01 
01080030011000000REP       Justice, Supreme Court, Place 3                         OVER VOTES                            PRECINCT 11                                            01 
01080040001000142REP       Justice, Supreme Court, Place 3                         UNDER VOTES                           PRECINCT 1                                             01 
01080040002000026REP       Justice, Supreme Court, Place 3                         UNDER VOTES                           PRECINCT 2                                             01 
01080040003000029REP       Justice, Supreme Court, Place 3                         UNDER VOTES                           PRECINCT 3                                             01 
01080040004000049REP       Justice, Supreme Court, Place 3                         UNDER VOTES                           PRECINCT 4                                             01 
01080040005000055REP       Justice, Supreme Court, Place 3                         UNDER VOTES                           PRECINCT 5                                             01 
01080040006000055REP       Justice, Supreme Court, Place 3                         UNDER VOTES                           PRECINCT 6                                             01 
01080040007000042REP       Justice, Supreme Court, Place 3                         UNDER VOTES                           PRECINCT 7                                             01 
01080040008000120REP       Justice, Supreme Court, Place 3                         UNDER VOTES                           PRECINCT 8                                             01 
01080040009000100REP       Justice, Supreme Court, Place 3                         UNDER VOTES                           PRECINCT 9                                             01 
01080040010000069REP       Justice, Supreme Court, Place 3                         UNDER VOTES                           PRECINCT 10                                            01 
01080040011000005REP       Justice, Supreme Court, Place 3                         UNDER VOTES                           PRECINCT 11                                            01 
01090010001000180REP       Justice, Supreme Court, Place 5                         Rick Green                            PRECINCT 1                                             01 
01090010002000038REP       Justice, Supreme Court, Place 5                         Rick Green                            PRECINCT 2                                             01 
01090010003000024REP       Justice, Supreme Court, Place 5                         Rick Green                            PRECINCT 3                                             01 
01090010004000055REP       Justice, Supreme Court, Place 5                         Rick Green                            PRECINCT 4                                             01 
01090010005000063REP       Justice, Supreme Court, Place 5                         Rick Green                            PRECINCT 5                                             01 
01090010006000059REP       Justice, Supreme Court, Place 5                         Rick Green                            PRECINCT 6                                             01 
01090010007000071REP       Justice, Supreme Court, Place 5                         Rick Green                            PRECINCT 7                                             01 
01090010008000133REP       Justice, Supreme Court, Place 5                         Rick Green                            PRECINCT 8                                             01 
01090010009000133REP       Justice, Supreme Court, Place 5                         Rick Green                            PRECINCT 9                                             01 
01090010010000063REP       Justice, Supreme Court, Place 5                         Rick Green                            PRECINCT 10                                            01 
01090010011000004REP       Justice, Supreme Court, Place 5                         Rick Green                            PRECINCT 11                                            01 
01090020001000102REP       Justice, Supreme Court, Place 5                         Paul Green                            PRECINCT 1                                             01 
01090020002000034REP       Justice, Supreme Court, Place 5                         Paul Green                            PRECINCT 2                                             01 
01090020003000021REP       Justice, Supreme Court, Place 5                         Paul Green                            PRECINCT 3                                             01 
01090020004000050REP       Justice, Supreme Court, Place 5                         Paul Green                            PRECINCT 4                                             01 
01090020005000026REP       Justice, Supreme Court, Place 5                         Paul Green                            PRECINCT 5                                             01 
01090020006000036REP       Justice, Supreme Court, Place 5                         Paul Green                            PRECINCT 6                                             01 
01090020007000032REP       Justice, Supreme Court, Place 5                         Paul Green                            PRECINCT 7                                             01 
01090020008000082REP       Justice, Supreme Court, Place 5                         Paul Green                            PRECINCT 8                                             01 
01090020009000088REP       Justice, Supreme Court, Place 5                         Paul Green                            PRECINCT 9                                             01 
01090020010000049REP       Justice, Supreme Court, Place 5                         Paul Green                            PRECINCT 10                                            01 
01090020011000001REP       Justice, Supreme Court, Place 5                         Paul Green                            PRECINCT 11                                            01 
01090030001000000REP       Justice, Supreme Court, Place 5                         OVER VOTES                            PRECINCT 1                                             01 
01090030002000000REP       Justice, Supreme Court, Place 5                         OVER VOTES                            PRECINCT 2                                             01 
01090030003000000REP       Justice, Supreme Court, Place 5                         OVER VOTES                            PRECINCT 3                                             01 
01090030004000001REP       Justice, Supreme Court, Place 5                         OVER VOTES                            PRECINCT 4                                             01 
01090030005000000REP       Justice, Supreme Court, Place 5                         OVER VOTES                            PRECINCT 5                                             01 
01090030006000000REP       Justice, Supreme Court, Place 5                         OVER VOTES                            PRECINCT 6                                             01 
01090030007000000REP       Justice, Supreme Court, Place 5                         OVER VOTES                            PRECINCT 7                                             01 
01090030008000000REP       Justice, Supreme Court, Place 5                         OVER VOTES                            PRECINCT 8                                             01 
01090030009000000REP       Justice, Supreme Court, Place 5                         OVER VOTES                            PRECINCT 9                                             01 
01090030010000000REP       Justice, Supreme Court, Place 5                         OVER VOTES                            PRECINCT 10                                            01 
01090030011000000REP       Justice, Supreme Court, Place 5                         OVER VOTES                            PRECINCT 11                                            01 
01090040001000149REP       Justice, Supreme Court, Place 5                         UNDER VOTES                           PRECINCT 1                                             01 
01090040002000033REP       Justice, Supreme Court, Place 5                         UNDER VOTES                           PRECINCT 2                                             01 
01090040003000033REP       Justice, Supreme Court, Place 5                         UNDER VOTES                           PRECINCT 3                                             01 
01090040004000051REP       Justice, Supreme Court, Place 5                         UNDER VOTES                           PRECINCT 4                                             01 
01090040005000066REP       Justice, Supreme Court, Place 5                         UNDER VOTES                           PRECINCT 5                                             01 
01090040006000051REP       Justice, Supreme Court, Place 5                         UNDER VOTES                           PRECINCT 6                                             01 
01090040007000049REP       Justice, Supreme Court, Place 5                         UNDER VOTES                           PRECINCT 7                                             01 
01090040008000130REP       Justice, Supreme Court, Place 5                         UNDER VOTES                           PRECINCT 8                                             01 
01090040009000109REP       Justice, Supreme Court, Place 5                         UNDER VOTES                           PRECINCT 9                                             01 
01090040010000074REP       Justice, Supreme Court, Place 5                         UNDER VOTES                           PRECINCT 10                                            01 
01090040011000005REP       Justice, Supreme Court, Place 5                         UNDER VOTES                           PRECINCT 11                                            01 
01100010001000206REP       Justice, Supreme Court, Place 9                         Joe Pool                              PRECINCT 1                                             01 
01100010002000050REP       Justice, Supreme Court, Place 9                         Joe Pool                              PRECINCT 2                                             01 
01100010003000029REP       Justice, Supreme Court, Place 9                         Joe Pool                              PRECINCT 3                                             01 
01100010004000073REP       Justice, Supreme Court, Place 9                         Joe Pool                              PRECINCT 4                                             01 
01100010005000070REP       Justice, Supreme Court, Place 9                         Joe Pool                              PRECINCT 5                                             01 
01100010006000065REP       Justice, Supreme Court, Place 9                         Joe Pool                              PRECINCT 6                                             01 
01100010007000090REP       Justice, Supreme Court, Place 9                         Joe Pool                              PRECINCT 7                                             01 
01100010008000162REP       Justice, Supreme Court, Place 9                         Joe Pool                              PRECINCT 8                                             01 
01100010009000163REP       Justice, Supreme Court, Place 9                         Joe Pool                              PRECINCT 9                                             01 
01100010010000078REP       Justice, Supreme Court, Place 9                         Joe Pool                              PRECINCT 10                                            01 
01100010011000004REP       Justice, Supreme Court, Place 9                         Joe Pool                              PRECINCT 11                                            01 
01100020001000100REP       Justice, Supreme Court, Place 9                         Eva Guzman                            PRECINCT 1                                             01 
01100020002000030REP       Justice, Supreme Court, Place 9                         Eva Guzman                            PRECINCT 2                                             01 
01100020003000020REP       Justice, Supreme Court, Place 9                         Eva Guzman                            PRECINCT 3                                             01 
01100020004000038REP       Justice, Supreme Court, Place 9                         Eva Guzman                            PRECINCT 4                                             01 
01100020005000029REP       Justice, Supreme Court, Place 9                         Eva Guzman                            PRECINCT 5                                             01 
01100020006000035REP       Justice, Supreme Court, Place 9                         Eva Guzman                            PRECINCT 6                                             01 
01100020007000020REP       Justice, Supreme Court, Place 9                         Eva Guzman                            PRECINCT 7                                             01 
01100020008000065REP       Justice, Supreme Court, Place 9                         Eva Guzman                            PRECINCT 8                                             01 
01100020009000074REP       Justice, Supreme Court, Place 9                         Eva Guzman                            PRECINCT 9                                             01 
01100020010000036REP       Justice, Supreme Court, Place 9                         Eva Guzman                            PRECINCT 10                                            01 
01100020011000001REP       Justice, Supreme Court, Place 9                         Eva Guzman                            PRECINCT 11                                            01 
01100030001000000REP       Justice, Supreme Court, Place 9                         OVER VOTES                            PRECINCT 1                                             01 
01100030002000000REP       Justice, Supreme Court, Place 9                         OVER VOTES                            PRECINCT 2                                             01 
01100030003000000REP       Justice, Supreme Court, Place 9                         OVER VOTES                            PRECINCT 3                                             01 
01100030004000000REP       Justice, Supreme Court, Place 9                         OVER VOTES                            PRECINCT 4                                             01 
01100030005000000REP       Justice, Supreme Court, Place 9                         OVER VOTES                            PRECINCT 5                                             01 
01100030006000000REP       Justice, Supreme Court, Place 9                         OVER VOTES                            PRECINCT 6                                             01 
01100030007000000REP       Justice, Supreme Court, Place 9                         OVER VOTES                            PRECINCT 7                                             01 
01100030008000000REP       Justice, Supreme Court, Place 9                         OVER VOTES                            PRECINCT 8                                             01 
01100030009000000REP       Justice, Supreme Court, Place 9                         OVER VOTES                            PRECINCT 9                                             01 
01100030010000000REP       Justice, Supreme Court, Place 9                         OVER VOTES                            PRECINCT 10                                            01 
01100030011000000REP       Justice, Supreme Court, Place 9                         OVER VOTES                            PRECINCT 11                                            01 
01100040001000125REP       Justice, Supreme Court, Place 9                         UNDER VOTES                           PRECINCT 1                                             01 
01100040002000025REP       Justice, Supreme Court, Place 9                         UNDER VOTES                           PRECINCT 2                                             01 
01100040003000029REP       Justice, Supreme Court, Place 9                         UNDER VOTES                           PRECINCT 3                                             01 
01100040004000046REP       Justice, Supreme Court, Place 9                         UNDER VOTES                           PRECINCT 4                                             01 
01100040005000056REP       Justice, Supreme Court, Place 9                         UNDER VOTES                           PRECINCT 5                                             01 
01100040006000046REP       Justice, Supreme Court, Place 9                         UNDER VOTES                           PRECINCT 6                                             01 
01100040007000043REP       Justice, Supreme Court, Place 9                         UNDER VOTES                           PRECINCT 7                                             01 
01100040008000118REP       Justice, Supreme Court, Place 9                         UNDER VOTES                           PRECINCT 8                                             01 
01100040009000093REP       Justice, Supreme Court, Place 9                         UNDER VOTES                           PRECINCT 9                                             01 
01100040010000072REP       Justice, Supreme Court, Place 9                         UNDER VOTES                           PRECINCT 10                                            01 
01100040011000005REP       Justice, Supreme Court, Place 9                         UNDER VOTES                           PRECINCT 11                                            01 
01110010001000109REP       Judge, Court of Criminal Appeals, Pl 2                  Chris Oldner                          PRECINCT 1                                             01 
01110010002000032REP       Judge, Court of Criminal Appeals, Pl 2                  Chris Oldner                          PRECINCT 2                                             01 
01110010003000010REP       Judge, Court of Criminal Appeals, Pl 2                  Chris Oldner                          PRECINCT 3                                             01 
01110010004000036REP       Judge, Court of Criminal Appeals, Pl 2                  Chris Oldner                          PRECINCT 4                                             01 
01110010005000037REP       Judge, Court of Criminal Appeals, Pl 2                  Chris Oldner                          PRECINCT 5                                             01 
01110010006000025REP       Judge, Court of Criminal Appeals, Pl 2                  Chris Oldner                          PRECINCT 6                                             01 
01110010007000041REP       Judge, Court of Criminal Appeals, Pl 2                  Chris Oldner                          PRECINCT 7                                             01 
01110010008000075REP       Judge, Court of Criminal Appeals, Pl 2                  Chris Oldner                          PRECINCT 8                                             01 
01110010009000087REP       Judge, Court of Criminal Appeals, Pl 2                  Chris Oldner                          PRECINCT 9                                             01 
01110010010000045REP       Judge, Court of Criminal Appeals, Pl 2                  Chris Oldner                          PRECINCT 10                                            01 
01110010011000003REP       Judge, Court of Criminal Appeals, Pl 2                  Chris Oldner                          PRECINCT 11                                            01 
01110020001000093REP       Judge, Court of Criminal Appeals, Pl 2                  Mary Lou Keel                         PRECINCT 1                                             01 
01110020002000027REP       Judge, Court of Criminal Appeals, Pl 2                  Mary Lou Keel                         PRECINCT 2                                             01 
01110020003000024REP       Judge, Court of Criminal Appeals, Pl 2                  Mary Lou Keel                         PRECINCT 3                                             01 
01110020004000041REP       Judge, Court of Criminal Appeals, Pl 2                  Mary Lou Keel                         PRECINCT 4                                             01 
01110020005000032REP       Judge, Court of Criminal Appeals, Pl 2                  Mary Lou Keel                         PRECINCT 5                                             01 
01110020006000026REP       Judge, Court of Criminal Appeals, Pl 2                  Mary Lou Keel                         PRECINCT 6                                             01 
01110020007000035REP       Judge, Court of Criminal Appeals, Pl 2                  Mary Lou Keel                         PRECINCT 7                                             01 
01110020008000097REP       Judge, Court of Criminal Appeals, Pl 2                  Mary Lou Keel                         PRECINCT 8                                             01 
01110020009000086REP       Judge, Court of Criminal Appeals, Pl 2                  Mary Lou Keel                         PRECINCT 9                                             01 
01110020010000041REP       Judge, Court of Criminal Appeals, Pl 2                  Mary Lou Keel                         PRECINCT 10                                            01 
01110020011000002REP       Judge, Court of Criminal Appeals, Pl 2                  Mary Lou Keel                         PRECINCT 11                                            01 
01110030001000091REP       Judge, Court of Criminal Appeals, Pl 2                  Ray Wheless                           PRECINCT 1                                             01 
01110030002000019REP       Judge, Court of Criminal Appeals, Pl 2                  Ray Wheless                           PRECINCT 2                                             01 
01110030003000011REP       Judge, Court of Criminal Appeals, Pl 2                  Ray Wheless                           PRECINCT 3                                             01 
01110030004000033REP       Judge, Court of Criminal Appeals, Pl 2                  Ray Wheless                           PRECINCT 4                                             01 
01110030005000027REP       Judge, Court of Criminal Appeals, Pl 2                  Ray Wheless                           PRECINCT 5                                             01 
01110030006000041REP       Judge, Court of Criminal Appeals, Pl 2                  Ray Wheless                           PRECINCT 6                                             01 
01110030007000032REP       Judge, Court of Criminal Appeals, Pl 2                  Ray Wheless                           PRECINCT 7                                             01 
01110030008000052REP       Judge, Court of Criminal Appeals, Pl 2                  Ray Wheless                           PRECINCT 8                                             01 
01110030009000052REP       Judge, Court of Criminal Appeals, Pl 2                  Ray Wheless                           PRECINCT 9                                             01 
01110030010000025REP       Judge, Court of Criminal Appeals, Pl 2                  Ray Wheless                           PRECINCT 10                                            01 
01110030011000000REP       Judge, Court of Criminal Appeals, Pl 2                  Ray Wheless                           PRECINCT 11                                            01 
01110040001000000REP       Judge, Court of Criminal Appeals, Pl 2                  OVER VOTES                            PRECINCT 1                                             01 
01110040002000000REP       Judge, Court of Criminal Appeals, Pl 2                  OVER VOTES                            PRECINCT 2                                             01 
01110040003000000REP       Judge, Court of Criminal Appeals, Pl 2                  OVER VOTES                            PRECINCT 3                                             01 
01110040004000000REP       Judge, Court of Criminal Appeals, Pl 2                  OVER VOTES                            PRECINCT 4                                             01 
01110040005000000REP       Judge, Court of Criminal Appeals, Pl 2                  OVER VOTES                            PRECINCT 5                                             01 
01110040006000000REP       Judge, Court of Criminal Appeals, Pl 2                  OVER VOTES                            PRECINCT 6                                             01 
01110040007000000REP       Judge, Court of Criminal Appeals, Pl 2                  OVER VOTES                            PRECINCT 7                                             01 
01110040008000000REP       Judge, Court of Criminal Appeals, Pl 2                  OVER VOTES                            PRECINCT 8                                             01 
01110040009000000REP       Judge, Court of Criminal Appeals, Pl 2                  OVER VOTES                            PRECINCT 9                                             01 
01110040010000000REP       Judge, Court of Criminal Appeals, Pl 2                  OVER VOTES                            PRECINCT 10                                            01 
01110040011000000REP       Judge, Court of Criminal Appeals, Pl 2                  OVER VOTES                            PRECINCT 11                                            01 
01110050001000138REP       Judge, Court of Criminal Appeals, Pl 2                  UNDER VOTES                           PRECINCT 1                                             01 
01110050002000027REP       Judge, Court of Criminal Appeals, Pl 2                  UNDER VOTES                           PRECINCT 2                                             01 
01110050003000033REP       Judge, Court of Criminal Appeals, Pl 2                  UNDER VOTES                           PRECINCT 3                                             01 
01110050004000047REP       Judge, Court of Criminal Appeals, Pl 2                  UNDER VOTES                           PRECINCT 4                                             01 
01110050005000059REP       Judge, Court of Criminal Appeals, Pl 2                  UNDER VOTES                           PRECINCT 5                                             01 
01110050006000054REP       Judge, Court of Criminal Appeals, Pl 2                  UNDER VOTES                           PRECINCT 6                                             01 
01110050007000045REP       Judge, Court of Criminal Appeals, Pl 2                  UNDER VOTES                           PRECINCT 7                                             01 
01110050008000121REP       Judge, Court of Criminal Appeals, Pl 2                  UNDER VOTES                           PRECINCT 8                                             01 
01110050009000105REP       Judge, Court of Criminal Appeals, Pl 2                  UNDER VOTES                           PRECINCT 9                                             01 
01110050010000075REP       Judge, Court of Criminal Appeals, Pl 2                  UNDER VOTES                           PRECINCT 10                                            01 
01110050011000005REP       Judge, Court of Criminal Appeals, Pl 2                  UNDER VOTES                           PRECINCT 11                                            01 
01120010001000146REP       Judge, Court of Criminal Appeals, Pl 5                  Scott Walker                          PRECINCT 1                                             01 
01120010002000034REP       Judge, Court of Criminal Appeals, Pl 5                  Scott Walker                          PRECINCT 2                                             01 
01120010003000025REP       Judge, Court of Criminal Appeals, Pl 5                  Scott Walker                          PRECINCT 3                                             01 
01120010004000050REP       Judge, Court of Criminal Appeals, Pl 5                  Scott Walker                          PRECINCT 4                                             01 
01120010005000043REP       Judge, Court of Criminal Appeals, Pl 5                  Scott Walker                          PRECINCT 5                                             01 
01120010006000044REP       Judge, Court of Criminal Appeals, Pl 5                  Scott Walker                          PRECINCT 6                                             01 
01120010007000055REP       Judge, Court of Criminal Appeals, Pl 5                  Scott Walker                          PRECINCT 7                                             01 
01120010008000118REP       Judge, Court of Criminal Appeals, Pl 5                  Scott Walker                          PRECINCT 8                                             01 
01120010009000132REP       Judge, Court of Criminal Appeals, Pl 5                  Scott Walker                          PRECINCT 9                                             01 
01120010010000057REP       Judge, Court of Criminal Appeals, Pl 5                  Scott Walker                          PRECINCT 10                                            01 
01120010011000004REP       Judge, Court of Criminal Appeals, Pl 5                  Scott Walker                          PRECINCT 11                                            01 
01120020001000082REP       Judge, Court of Criminal Appeals, Pl 5                  Steve Smith                           PRECINCT 1                                             01 
01120020002000022REP       Judge, Court of Criminal Appeals, Pl 5                  Steve Smith                           PRECINCT 2                                             01 
01120020003000013REP       Judge, Court of Criminal Appeals, Pl 5                  Steve Smith                           PRECINCT 3                                             01 
01120020004000028REP       Judge, Court of Criminal Appeals, Pl 5                  Steve Smith                           PRECINCT 4                                             01 
01120020005000030REP       Judge, Court of Criminal Appeals, Pl 5                  Steve Smith                           PRECINCT 5                                             01 
01120020006000017REP       Judge, Court of Criminal Appeals, Pl 5                  Steve Smith                           PRECINCT 6                                             01 
01120020007000021REP       Judge, Court of Criminal Appeals, Pl 5                  Steve Smith                           PRECINCT 7                                             01 
01120020008000069REP       Judge, Court of Criminal Appeals, Pl 5                  Steve Smith                           PRECINCT 8                                             01 
01120020009000054REP       Judge, Court of Criminal Appeals, Pl 5                  Steve Smith                           PRECINCT 9                                             01 
01120020010000034REP       Judge, Court of Criminal Appeals, Pl 5                  Steve Smith                           PRECINCT 10                                            01 
01120020011000001REP       Judge, Court of Criminal Appeals, Pl 5                  Steve Smith                           PRECINCT 11                                            01 
01120030001000044REP       Judge, Court of Criminal Appeals, Pl 5                  Brent Webster                         PRECINCT 1                                             01 
01120030002000010REP       Judge, Court of Criminal Appeals, Pl 5                  Brent Webster                         PRECINCT 2                                             01 
01120030003000002REP       Judge, Court of Criminal Appeals, Pl 5                  Brent Webster                         PRECINCT 3                                             01 
01120030004000014REP       Judge, Court of Criminal Appeals, Pl 5                  Brent Webster                         PRECINCT 4                                             01 
01120030005000016REP       Judge, Court of Criminal Appeals, Pl 5                  Brent Webster                         PRECINCT 5                                             01 
01120030006000017REP       Judge, Court of Criminal Appeals, Pl 5                  Brent Webster                         PRECINCT 6                                             01 
01120030007000020REP       Judge, Court of Criminal Appeals, Pl 5                  Brent Webster                         PRECINCT 7                                             01 
01120030008000034REP       Judge, Court of Criminal Appeals, Pl 5                  Brent Webster                         PRECINCT 8                                             01 
01120030009000032REP       Judge, Court of Criminal Appeals, Pl 5                  Brent Webster                         PRECINCT 9                                             01 
01120030010000019REP       Judge, Court of Criminal Appeals, Pl 5                  Brent Webster                         PRECINCT 10                                            01 
01120030011000001REP       Judge, Court of Criminal Appeals, Pl 5                  Brent Webster                         PRECINCT 11                                            01 
01120040001000022REP       Judge, Court of Criminal Appeals, Pl 5                  Sid Harle                             PRECINCT 1                                             01 
01120040002000012REP       Judge, Court of Criminal Appeals, Pl 5                  Sid Harle                             PRECINCT 2                                             01 
