01270010001000002DEM       President                                               Keith Judd                            Precinct #1                                            01 
01270010002000003DEM       President                                               Keith Judd                            Precinct #2                                            01 
01270010003000001DEM       President                                               Keith Judd                            Precinct #3                                            01 
01270010004000000DEM       President                                               Keith Judd                            Precinct #4                                            01 
01270010005000000DEM       President                                               Keith Judd                            Precinct #5                                            01 
01270010006000001DEM       President                                               Keith Judd                            Precinct #6                                            01 
01270010007000000DEM       President                                               Keith Judd                            Precinct #7                                            01 
01270010008000000DEM       President                                               Keith Judd                            Precinct #8                                            01 
01270010009000000DEM       President                                               Keith Judd                            Precinct #10                                           01 
01270010010000000DEM       President                                               Keith Judd                            Precinct #13                                           01 
01270010011000003DEM       President                                               Keith Judd                            Precinct #14                                           01 
01270020001000092DEM       President                                               Hillary Clinton                       Precinct #1                                            01 
01270020002000115DEM       President                                               Hillary Clinton                       Precinct #2                                            01 
01270020003000057DEM       President                                               Hillary Clinton                       Precinct #3                                            01 
01270020004000010DEM       President                                               Hillary Clinton                       Precinct #4                                            01 
01270020005000040DEM       President                                               Hillary Clinton                       Precinct #5                                            01 
01270020006000066DEM       President                                               Hillary Clinton                       Precinct #6                                            01 
01270020007000098DEM       President                                               Hillary Clinton                       Precinct #7                                            01 
01270020008000039DEM       President                                               Hillary Clinton                       Precinct #8                                            01 
01270020009000011DEM       President                                               Hillary Clinton                       Precinct #10                                           01 
01270020010000019DEM       President                                               Hillary Clinton                       Precinct #13                                           01 
01270020011000015DEM       President                                               Hillary Clinton                       Precinct #14                                           01 
01270030001000037DEM       President                                               Bernie Sanders                        Precinct #1                                            01 
01270030002000038DEM       President                                               Bernie Sanders                        Precinct #2                                            01 
01270030003000009DEM       President                                               Bernie Sanders                        Precinct #3                                            01 
01270030004000001DEM       President                                               Bernie Sanders                        Precinct #4                                            01 
01270030005000015DEM       President                                               Bernie Sanders                        Precinct #5                                            01 
01270030006000020DEM       President                                               Bernie Sanders                        Precinct #6                                            01 
01270030007000032DEM       President                                               Bernie Sanders                        Precinct #7                                            01 
01270030008000019DEM       President                                               Bernie Sanders                        Precinct #8                                            01 
01270030009000005DEM       President                                               Bernie Sanders                        Precinct #10                                           01 
01270030010000008DEM       President                                               Bernie Sanders                        Precinct #13                                           01 
01270030011000009DEM       President                                               Bernie Sanders                        Precinct #14                                           01 
01270040001000001DEM       President                                               Willie L. Wilson                      Precinct #1                                            01 
01270040002000000DEM       President                                               Willie L. Wilson                      Precinct #2                                            01 
01270040003000000DEM       President                                               Willie L. Wilson                      Precinct #3                                            01 
01270040004000000DEM       President                                               Willie L. Wilson                      Precinct #4                                            01 
01270040005000000DEM       President                                               Willie L. Wilson                      Precinct #5                                            01 
01270040006000001DEM       President                                               Willie L. Wilson                      Precinct #6                                            01 
01270040007000000DEM       President                                               Willie L. Wilson                      Precinct #7                                            01 
01270040008000001DEM       President                                               Willie L. Wilson                      Precinct #8                                            01 
01270040009000000DEM       President                                               Willie L. Wilson                      Precinct #10                                           01 
01270040010000000DEM       President                                               Willie L. Wilson                      Precinct #13                                           01 
01270040011000002DEM       President                                               Willie L. Wilson                      Precinct #14                                           01 
01270050001000001DEM       President                                               Star Locke                            Precinct #1                                            01 
01270050002000000DEM       President                                               Star Locke                            Precinct #2                                            01 
01270050003000001DEM       President                                               Star Locke                            Precinct #3                                            01 
01270050004000000DEM       President                                               Star Locke                            Precinct #4                                            01 
01270050005000001DEM       President                                               Star Locke                            Precinct #5                                            01 
01270050006000000DEM       President                                               Star Locke                            Precinct #6                                            01 
01270050007000000DEM       President                                               Star Locke                            Precinct #7                                            01 
01270050008000000DEM       President                                               Star Locke                            Precinct #8                                            01 
01270050009000000DEM       President                                               Star Locke                            Precinct #10                                           01 
01270050010000000DEM       President                                               Star Locke                            Precinct #13                                           01 
01270050011000000DEM       President                                               Star Locke                            Precinct #14                                           01 
01270060001000001DEM       President                                               Martin J. O'Malley                    Precinct #1                                            01 
01270060002000000DEM       President                                               Martin J. O'Malley                    Precinct #2                                            01 
01270060003000000DEM       President                                               Martin J. O'Malley                    Precinct #3                                            01 
01270060004000000DEM       President                                               Martin J. O'Malley                    Precinct #4                                            01 
01270060005000001DEM       President                                               Martin J. O'Malley                    Precinct #5                                            01 
01270060006000001DEM       President                                               Martin J. O'Malley                    Precinct #6                                            01 
01270060007000000DEM       President                                               Martin J. O'Malley                    Precinct #7                                            01 
01270060008000000DEM       President                                               Martin J. O'Malley                    Precinct #8                                            01 
01270060009000000DEM       President                                               Martin J. O'Malley                    Precinct #10                                           01 
01270060010000000DEM       President                                               Martin J. O'Malley                    Precinct #13                                           01 
01270060011000001DEM       President                                               Martin J. O'Malley                    Precinct #14                                           01 
01270070001000000DEM       President                                               Roque "Rocky" De La Fuente            Precinct #1                                            01 
01270070002000000DEM       President                                               Roque "Rocky" De La Fuente            Precinct #2                                            01 
01270070003000000DEM       President                                               Roque "Rocky" De La Fuente            Precinct #3                                            01 
01270070004000000DEM       President                                               Roque "Rocky" De La Fuente            Precinct #4                                            01 
01270070005000000DEM       President                                               Roque "Rocky" De La Fuente            Precinct #5                                            01 
01270070006000001DEM       President                                               Roque "Rocky" De La Fuente            Precinct #6                                            01 
01270070007000000DEM       President                                               Roque "Rocky" De La Fuente            Precinct #7                                            01 
01270070008000000DEM       President                                               Roque "Rocky" De La Fuente            Precinct #8                                            01 
01270070009000000DEM       President                                               Roque "Rocky" De La Fuente            Precinct #10                                           01 
01270070010000000DEM       President                                               Roque "Rocky" De La Fuente            Precinct #13                                           01 
01270070011000000DEM       President                                               Roque "Rocky" De La Fuente            Precinct #14                                           01 
01270080001000000DEM       President                                               Calvis L. Hawes                       Precinct #1                                            01 
01270080002000001DEM       President                                               Calvis L. Hawes                       Precinct #2                                            01 
01270080003000000DEM       President                                               Calvis L. Hawes                       Precinct #3                                            01 
01270080004000000DEM       President                                               Calvis L. Hawes                       Precinct #4                                            01 
01270080005000000DEM       President                                               Calvis L. Hawes                       Precinct #5                                            01 
01270080006000000DEM       President                                               Calvis L. Hawes                       Precinct #6                                            01 
01270080007000001DEM       President                                               Calvis L. Hawes                       Precinct #7                                            01 
01270080008000000DEM       President                                               Calvis L. Hawes                       Precinct #8                                            01 
01270080009000000DEM       President                                               Calvis L. Hawes                       Precinct #10                                           01 
01270080010000000DEM       President                                               Calvis L. Hawes                       Precinct #13                                           01 
01270080011000000DEM       President                                               Calvis L. Hawes                       Precinct #14                                           01 
01270090001000000DEM       President                                               OVER VOTES                            Precinct #1                                            01 
01270090002000000DEM       President                                               OVER VOTES                            Precinct #2                                            01 
01270090003000000DEM       President                                               OVER VOTES                            Precinct #3                                            01 
01270090004000000DEM       President                                               OVER VOTES                            Precinct #4                                            01 
01270090005000000DEM       President                                               OVER VOTES                            Precinct #5                                            01 
01270090006000000DEM       President                                               OVER VOTES                            Precinct #6                                            01 
01270090007000000DEM       President                                               OVER VOTES                            Precinct #7                                            01 
01270090008000000DEM       President                                               OVER VOTES                            Precinct #8                                            01 
01270090009000000DEM       President                                               OVER VOTES                            Precinct #10                                           01 
01270090010000000DEM       President                                               OVER VOTES                            Precinct #13                                           01 
01270090011000000DEM       President                                               OVER VOTES                            Precinct #14                                           01 
01270100001000006DEM       President                                               UNDER VOTES                           Precinct #1                                            01 
01270100002000004DEM       President                                               UNDER VOTES                           Precinct #2                                            01 
01270100003000002DEM       President                                               UNDER VOTES                           Precinct #3                                            01 
01270100004000001DEM       President                                               UNDER VOTES                           Precinct #4                                            01 
01270100005000000DEM       President                                               UNDER VOTES                           Precinct #5                                            01 
01270100006000002DEM       President                                               UNDER VOTES                           Precinct #6                                            01 
01270100007000001DEM       President                                               UNDER VOTES                           Precinct #7                                            01 
01270100008000000DEM       President                                               UNDER VOTES                           Precinct #8                                            01 
01270100009000000DEM       President                                               UNDER VOTES                           Precinct #10                                           01 
01270100010000001DEM       President                                               UNDER VOTES                           Precinct #13                                           01 
01270100011000001DEM       President                                               UNDER VOTES                           Precinct #14                                           01 
01280010001000068DEM       Railroad Commissioner                                   Grady Yarbrough                       Precinct #1                                            01 
01280010002000078DEM       Railroad Commissioner                                   Grady Yarbrough                       Precinct #2                                            01 
01280010003000036DEM       Railroad Commissioner                                   Grady Yarbrough                       Precinct #3                                            01 
01280010004000007DEM       Railroad Commissioner                                   Grady Yarbrough                       Precinct #4                                            01 
01280010005000025DEM       Railroad Commissioner                                   Grady Yarbrough                       Precinct #5                                            01 
01280010006000050DEM       Railroad Commissioner                                   Grady Yarbrough                       Precinct #6                                            01 
01280010007000058DEM       Railroad Commissioner                                   Grady Yarbrough                       Precinct #7                                            01 
01280010008000027DEM       Railroad Commissioner                                   Grady Yarbrough                       Precinct #8                                            01 
01280010009000008DEM       Railroad Commissioner                                   Grady Yarbrough                       Precinct #10                                           01 
01280010010000009DEM       Railroad Commissioner                                   Grady Yarbrough                       Precinct #13                                           01 
01280010011000016DEM       Railroad Commissioner                                   Grady Yarbrough                       Precinct #14                                           01 
01280020001000026DEM       Railroad Commissioner                                   Cody Garrett                          Precinct #1                                            01 
01280020002000046DEM       Railroad Commissioner                                   Cody Garrett                          Precinct #2                                            01 
01280020003000017DEM       Railroad Commissioner                                   Cody Garrett                          Precinct #3                                            01 
01280020004000004DEM       Railroad Commissioner                                   Cody Garrett                          Precinct #4                                            01 
01280020005000019DEM       Railroad Commissioner                                   Cody Garrett                          Precinct #5                                            01 
01280020006000016DEM       Railroad Commissioner                                   Cody Garrett                          Precinct #6                                            01 
01280020007000024DEM       Railroad Commissioner                                   Cody Garrett                          Precinct #7                                            01 
01280020008000013DEM       Railroad Commissioner                                   Cody Garrett                          Precinct #8                                            01 
01280020009000005DEM       Railroad Commissioner                                   Cody Garrett                          Precinct #10                                           01 
01280020010000013DEM       Railroad Commissioner                                   Cody Garrett                          Precinct #13                                           01 
01280020011000008DEM       Railroad Commissioner                                   Cody Garrett                          Precinct #14                                           01 
01280030001000016DEM       Railroad Commissioner                                   Lon Burnam                            Precinct #1                                            01 
01280030002000011DEM       Railroad Commissioner                                   Lon Burnam                            Precinct #2                                            01 
01280030003000002DEM       Railroad Commissioner                                   Lon Burnam                            Precinct #3                                            01 
01280030004000000DEM       Railroad Commissioner                                   Lon Burnam                            Precinct #4                                            01 
01280030005000005DEM       Railroad Commissioner                                   Lon Burnam                            Precinct #5                                            01 
01280030006000012DEM       Railroad Commissioner                                   Lon Burnam                            Precinct #6                                            01 
01280030007000013DEM       Railroad Commissioner                                   Lon Burnam                            Precinct #7                                            01 
01280030008000004DEM       Railroad Commissioner                                   Lon Burnam                            Precinct #8                                            01 
01280030009000001DEM       Railroad Commissioner                                   Lon Burnam                            Precinct #10                                           01 
01280030010000002DEM       Railroad Commissioner                                   Lon Burnam                            Precinct #13                                           01 
01280030011000004DEM       Railroad Commissioner                                   Lon Burnam                            Precinct #14                                           01 
01280040001000000DEM       Railroad Commissioner                                   OVER VOTES                            Precinct #1                                            01 
01280040002000000DEM       Railroad Commissioner                                   OVER VOTES                            Precinct #2                                            01 
01280040003000000DEM       Railroad Commissioner                                   OVER VOTES                            Precinct #3                                            01 
01280040004000000DEM       Railroad Commissioner                                   OVER VOTES                            Precinct #4                                            01 
01280040005000000DEM       Railroad Commissioner                                   OVER VOTES                            Precinct #5                                            01 
01280040006000000DEM       Railroad Commissioner                                   OVER VOTES                            Precinct #6                                            01 
01280040007000000DEM       Railroad Commissioner                                   OVER VOTES                            Precinct #7                                            01 
01280040008000000DEM       Railroad Commissioner                                   OVER VOTES                            Precinct #8                                            01 
01280040009000000DEM       Railroad Commissioner                                   OVER VOTES                            Precinct #10                                           01 
01280040010000000DEM       Railroad Commissioner                                   OVER VOTES                            Precinct #13                                           01 
01280040011000000DEM       Railroad Commissioner                                   OVER VOTES                            Precinct #14                                           01 
01280050001000030DEM       Railroad Commissioner                                   UNDER VOTES                           Precinct #1                                            01 
01280050002000026DEM       Railroad Commissioner                                   UNDER VOTES                           Precinct #2                                            01 
01280050003000015DEM       Railroad Commissioner                                   UNDER VOTES                           Precinct #3                                            01 
01280050004000001DEM       Railroad Commissioner                                   UNDER VOTES                           Precinct #4                                            01 
01280050005000008DEM       Railroad Commissioner                                   UNDER VOTES                           Precinct #5                                            01 
01280050006000014DEM       Railroad Commissioner                                   UNDER VOTES                           Precinct #6                                            01 
01280050007000037DEM       Railroad Commissioner                                   UNDER VOTES                           Precinct #7                                            01 
01280050008000015DEM       Railroad Commissioner                                   UNDER VOTES                           Precinct #8                                            01 
01280050009000002DEM       Railroad Commissioner                                   UNDER VOTES                           Precinct #10                                           01 
01280050010000004DEM       Railroad Commissioner                                   UNDER VOTES                           Precinct #13                                           01 
01280050011000003DEM       Railroad Commissioner                                   UNDER VOTES                           Precinct #14                                           01 
01290010001000077DEM       Justice, Supreme Court, Place 3                         Mike Westergren                       Precinct #1                                            01 
01290010002000103DEM       Justice, Supreme Court, Place 3                         Mike Westergren                       Precinct #2                                            01 
01290010003000043DEM       Justice, Supreme Court, Place 3                         Mike Westergren                       Precinct #3                                            01 
01290010004000010DEM       Justice, Supreme Court, Place 3                         Mike Westergren                       Precinct #4                                            01 
01290010005000043DEM       Justice, Supreme Court, Place 3                         Mike Westergren                       Precinct #5                                            01 
01290010006000070DEM       Justice, Supreme Court, Place 3                         Mike Westergren                       Precinct #6                                            01 
01290010007000074DEM       Justice, Supreme Court, Place 3                         Mike Westergren                       Precinct #7                                            01 
01290010008000032DEM       Justice, Supreme Court, Place 3                         Mike Westergren                       Precinct #8                                            01 
01290010009000012DEM       Justice, Supreme Court, Place 3                         Mike Westergren                       Precinct #10                                           01 
01290010010000024DEM       Justice, Supreme Court, Place 3                         Mike Westergren                       Precinct #13                                           01 
01290010011000024DEM       Justice, Supreme Court, Place 3                         Mike Westergren                       Precinct #14                                           01 
01290020001000000DEM       Justice, Supreme Court, Place 3                         OVER VOTES                            Precinct #1                                            01 
01290020002000000DEM       Justice, Supreme Court, Place 3                         OVER VOTES                            Precinct #2                                            01 
01290020003000000DEM       Justice, Supreme Court, Place 3                         OVER VOTES                            Precinct #3                                            01 
01290020004000000DEM       Justice, Supreme Court, Place 3                         OVER VOTES                            Precinct #4                                            01 
01290020005000000DEM       Justice, Supreme Court, Place 3                         OVER VOTES                            Precinct #5                                            01 
01290020006000000DEM       Justice, Supreme Court, Place 3                         OVER VOTES                            Precinct #6                                            01 
01290020007000000DEM       Justice, Supreme Court, Place 3                         OVER VOTES                            Precinct #7                                            01 
01290020008000000DEM       Justice, Supreme Court, Place 3                         OVER VOTES                            Precinct #8                                            01 
01290020009000000DEM       Justice, Supreme Court, Place 3                         OVER VOTES                            Precinct #10                                           01 
01290020010000000DEM       Justice, Supreme Court, Place 3                         OVER VOTES                            Precinct #13                                           01 
01290020011000000DEM       Justice, Supreme Court, Place 3                         OVER VOTES                            Precinct #14                                           01 
01290030001000063DEM       Justice, Supreme Court, Place 3                         UNDER VOTES                           Precinct #1                                            01 
01290030002000058DEM       Justice, Supreme Court, Place 3                         UNDER VOTES                           Precinct #2                                            01 
01290030003000027DEM       Justice, Supreme Court, Place 3                         UNDER VOTES                           Precinct #3                                            01 
01290030004000002DEM       Justice, Supreme Court, Place 3                         UNDER VOTES                           Precinct #4                                            01 
01290030005000014DEM       Justice, Supreme Court, Place 3                         UNDER VOTES                           Precinct #5                                            01 
01290030006000022DEM       Justice, Supreme Court, Place 3                         UNDER VOTES                           Precinct #6                                            01 
01290030007000058DEM       Justice, Supreme Court, Place 3                         UNDER VOTES                           Precinct #7                                            01 
01290030008000027DEM       Justice, Supreme Court, Place 3                         UNDER VOTES                           Precinct #8                                            01 
01290030009000004DEM       Justice, Supreme Court, Place 3                         UNDER VOTES                           Precinct #10                                           01 
01290030010000004DEM       Justice, Supreme Court, Place 3                         UNDER VOTES                           Precinct #13                                           01 
01290030011000007DEM       Justice, Supreme Court, Place 3                         UNDER VOTES                           Precinct #14                                           01 
01300010001000079DEM       Justice, Supreme Court, Place 5                         Dori Contreras Garza                  Precinct #1                                            01 
01300010002000103DEM       Justice, Supreme Court, Place 5                         Dori Contreras Garza                  Precinct #2                                            01 
01300010003000040DEM       Justice, Supreme Court, Place 5                         Dori Contreras Garza                  Precinct #3                                            01 
01300010004000010DEM       Justice, Supreme Court, Place 5                         Dori Contreras Garza                  Precinct #4                                            01 
01300010005000048DEM       Justice, Supreme Court, Place 5                         Dori Contreras Garza                  Precinct #5                                            01 
01300010006000066DEM       Justice, Supreme Court, Place 5                         Dori Contreras Garza                  Precinct #6                                            01 
01300010007000077DEM       Justice, Supreme Court, Place 5                         Dori Contreras Garza                  Precinct #7                                            01 
01300010008000034DEM       Justice, Supreme Court, Place 5                         Dori Contreras Garza                  Precinct #8                                            01 
01300010009000010DEM       Justice, Supreme Court, Place 5                         Dori Contreras Garza                  Precinct #10                                           01 
01300010010000024DEM       Justice, Supreme Court, Place 5                         Dori Contreras Garza                  Precinct #13                                           01 
01300010011000023DEM       Justice, Supreme Court, Place 5                         Dori Contreras Garza                  Precinct #14                                           01 
01300020001000000DEM       Justice, Supreme Court, Place 5                         OVER VOTES                            Precinct #1                                            01 
01300020002000000DEM       Justice, Supreme Court, Place 5                         OVER VOTES                            Precinct #2                                            01 
01300020003000000DEM       Justice, Supreme Court, Place 5                         OVER VOTES                            Precinct #3                                            01 
01300020004000000DEM       Justice, Supreme Court, Place 5                         OVER VOTES                            Precinct #4                                            01 
01300020005000000DEM       Justice, Supreme Court, Place 5                         OVER VOTES                            Precinct #5                                            01 
01300020006000000DEM       Justice, Supreme Court, Place 5                         OVER VOTES                            Precinct #6                                            01 
01300020007000000DEM       Justice, Supreme Court, Place 5                         OVER VOTES                            Precinct #7                                            01 
01300020008000000DEM       Justice, Supreme Court, Place 5                         OVER VOTES                            Precinct #8                                            01 
01300020009000000DEM       Justice, Supreme Court, Place 5                         OVER VOTES                            Precinct #10                                           01 
01300020010000000DEM       Justice, Supreme Court, Place 5                         OVER VOTES                            Precinct #13                                           01 
01300020011000000DEM       Justice, Supreme Court, Place 5                         OVER VOTES                            Precinct #14                                           01 
01300030001000061DEM       Justice, Supreme Court, Place 5                         UNDER VOTES                           Precinct #1                                            01 
01300030002000058DEM       Justice, Supreme Court, Place 5                         UNDER VOTES                           Precinct #2                                            01 
01300030003000030DEM       Justice, Supreme Court, Place 5                         UNDER VOTES                           Precinct #3                                            01 
01300030004000002DEM       Justice, Supreme Court, Place 5                         UNDER VOTES                           Precinct #4                                            01 
01300030005000009DEM       Justice, Supreme Court, Place 5                         UNDER VOTES                           Precinct #5                                            01 
01300030006000026DEM       Justice, Supreme Court, Place 5                         UNDER VOTES                           Precinct #6                                            01 
01300030007000055DEM       Justice, Supreme Court, Place 5                         UNDER VOTES                           Precinct #7                                            01 
01300030008000025DEM       Justice, Supreme Court, Place 5                         UNDER VOTES                           Precinct #8                                            01 
01300030009000006DEM       Justice, Supreme Court, Place 5                         UNDER VOTES                           Precinct #10                                           01 
01300030010000004DEM       Justice, Supreme Court, Place 5                         UNDER VOTES                           Precinct #13                                           01 
01300030011000008DEM       Justice, Supreme Court, Place 5                         UNDER VOTES                           Precinct #14                                           01 
01310010001000077DEM       Justice, Supreme Court, Place 9                         Savannah Robinson                     Precinct #1                                            01 
01310010002000101DEM       Justice, Supreme Court, Place 9                         Savannah Robinson                     Precinct #2                                            01 
01310010003000041DEM       Justice, Supreme Court, Place 9                         Savannah Robinson                     Precinct #3                                            01 
01310010004000010DEM       Justice, Supreme Court, Place 9                         Savannah Robinson                     Precinct #4                                            01 
01310010005000042DEM       Justice, Supreme Court, Place 9                         Savannah Robinson                     Precinct #5                                            01 
01310010006000070DEM       Justice, Supreme Court, Place 9                         Savannah Robinson                     Precinct #6                                            01 
01310010007000071DEM       Justice, Supreme Court, Place 9                         Savannah Robinson                     Precinct #7                                            01 
01310010008000032DEM       Justice, Supreme Court, Place 9                         Savannah Robinson                     Precinct #8                                            01 
01310010009000013DEM       Justice, Supreme Court, Place 9                         Savannah Robinson                     Precinct #10                                           01 
01310010010000023DEM       Justice, Supreme Court, Place 9                         Savannah Robinson                     Precinct #13                                           01 
01310010011000024DEM       Justice, Supreme Court, Place 9                         Savannah Robinson                     Precinct #14                                           01 
01310020001000000DEM       Justice, Supreme Court, Place 9                         OVER VOTES                            Precinct #1                                            01 
01310020002000000DEM       Justice, Supreme Court, Place 9                         OVER VOTES                            Precinct #2                                            01 
01310020003000000DEM       Justice, Supreme Court, Place 9                         OVER VOTES                            Precinct #3                                            01 
01310020004000000DEM       Justice, Supreme Court, Place 9                         OVER VOTES                            Precinct #4                                            01 
01310020005000000DEM       Justice, Supreme Court, Place 9                         OVER VOTES                            Precinct #5                                            01 
01310020006000000DEM       Justice, Supreme Court, Place 9                         OVER VOTES                            Precinct #6                                            01 
01310020007000000DEM       Justice, Supreme Court, Place 9                         OVER VOTES                            Precinct #7                                            01 
01310020008000000DEM       Justice, Supreme Court, Place 9                         OVER VOTES                            Precinct #8                                            01 
01310020009000000DEM       Justice, Supreme Court, Place 9                         OVER VOTES                            Precinct #10                                           01 
01310020010000000DEM       Justice, Supreme Court, Place 9                         OVER VOTES                            Precinct #13                                           01 
01310020011000000DEM       Justice, Supreme Court, Place 9                         OVER VOTES                            Precinct #14                                           01 
01310030001000063DEM       Justice, Supreme Court, Place 9                         UNDER VOTES                           Precinct #1                                            01 
01310030002000060DEM       Justice, Supreme Court, Place 9                         UNDER VOTES                           Precinct #2                                            01 
01310030003000029DEM       Justice, Supreme Court, Place 9                         UNDER VOTES                           Precinct #3                                            01 
01310030004000002DEM       Justice, Supreme Court, Place 9                         UNDER VOTES                           Precinct #4                                            01 
01310030005000015DEM       Justice, Supreme Court, Place 9                         UNDER VOTES                           Precinct #5                                            01 
01310030006000022DEM       Justice, Supreme Court, Place 9                         UNDER VOTES                           Precinct #6                                            01 
01310030007000061DEM       Justice, Supreme Court, Place 9                         UNDER VOTES                           Precinct #7                                            01 
01310030008000027DEM       Justice, Supreme Court, Place 9                         UNDER VOTES                           Precinct #8                                            01 
01310030009000003DEM       Justice, Supreme Court, Place 9                         UNDER VOTES                           Precinct #10                                           01 
01310030010000005DEM       Justice, Supreme Court, Place 9                         UNDER VOTES                           Precinct #13                                           01 
01310030011000007DEM       Justice, Supreme Court, Place 9                         UNDER VOTES                           Precinct #14                                           01 
01320010001000074DEM       Judge, Ct of Criminal App, P2                           Lawrence "Larry" Meyers               Precinct #1                                            01 
01320010002000101DEM       Judge, Ct of Criminal App, P2                           Lawrence "Larry" Meyers               Precinct #2                                            01 
01320010003000040DEM       Judge, Ct of Criminal App, P2                           Lawrence "Larry" Meyers               Precinct #3                                            01 
01320010004000010DEM       Judge, Ct of Criminal App, P2                           Lawrence "Larry" Meyers               Precinct #4                                            01 
01320010005000041DEM       Judge, Ct of Criminal App, P2                           Lawrence "Larry" Meyers               Precinct #5                                            01 
01320010006000068DEM       Judge, Ct of Criminal App, P2                           Lawrence "Larry" Meyers               Precinct #6                                            01 
01320010007000072DEM       Judge, Ct of Criminal App, P2                           Lawrence "Larry" Meyers               Precinct #7                                            01 
01320010008000033DEM       Judge, Ct of Criminal App, P2                           Lawrence "Larry" Meyers               Precinct #8                                            01 
01320010009000012DEM       Judge, Ct of Criminal App, P2                           Lawrence "Larry" Meyers               Precinct #10                                           01 
01320010010000024DEM       Judge, Ct of Criminal App, P2                           Lawrence "Larry" Meyers               Precinct #13                                           01 
01320010011000022DEM       Judge, Ct of Criminal App, P2                           Lawrence "Larry" Meyers               Precinct #14                                           01 
01320020001000000DEM       Judge, Ct of Criminal App, P2                           OVER VOTES                            Precinct #1                                            01 
01320020002000000DEM       Judge, Ct of Criminal App, P2                           OVER VOTES                            Precinct #2                                            01 
01320020003000000DEM       Judge, Ct of Criminal App, P2                           OVER VOTES                            Precinct #3                                            01 
01320020004000000DEM       Judge, Ct of Criminal App, P2                           OVER VOTES                            Precinct #4                                            01 
01320020005000000DEM       Judge, Ct of Criminal App, P2                           OVER VOTES                            Precinct #5                                            01 
01320020006000000DEM       Judge, Ct of Criminal App, P2                           OVER VOTES                            Precinct #6                                            01 
01320020007000000DEM       Judge, Ct of Criminal App, P2                           OVER VOTES                            Precinct #7                                            01 
01320020008000000DEM       Judge, Ct of Criminal App, P2                           OVER VOTES                            Precinct #8                                            01 
01320020009000000DEM       Judge, Ct of Criminal App, P2                           OVER VOTES                            Precinct #10                                           01 
01320020010000000DEM       Judge, Ct of Criminal App, P2                           OVER VOTES                            Precinct #13                                           01 
01320020011000000DEM       Judge, Ct of Criminal App, P2                           OVER VOTES                            Precinct #14                                           01 
01320030001000066DEM       Judge, Ct of Criminal App, P2                           UNDER VOTES                           Precinct #1                                            01 
01320030002000060DEM       Judge, Ct of Criminal App, P2                           UNDER VOTES                           Precinct #2                                            01 
01320030003000030DEM       Judge, Ct of Criminal App, P2                           UNDER VOTES                           Precinct #3                                            01 
01320030004000002DEM       Judge, Ct of Criminal App, P2                           UNDER VOTES                           Precinct #4                                            01 
01320030005000016DEM       Judge, Ct of Criminal App, P2                           UNDER VOTES                           Precinct #5                                            01 
01320030006000024DEM       Judge, Ct of Criminal App, P2                           UNDER VOTES                           Precinct #6                                            01 
01320030007000060DEM       Judge, Ct of Criminal App, P2                           UNDER VOTES                           Precinct #7                                            01 
01320030008000026DEM       Judge, Ct of Criminal App, P2                           UNDER VOTES                           Precinct #8                                            01 
01320030009000004DEM       Judge, Ct of Criminal App, P2                           UNDER VOTES                           Precinct #10                                           01 
01320030010000004DEM       Judge, Ct of Criminal App, P2                           UNDER VOTES                           Precinct #13                                           01 
01320030011000009DEM       Judge, Ct of Criminal App, P2                           UNDER VOTES                           Precinct #14                                           01 
01330010001000083DEM       Judge, Ct of Criminal App, P5                           Betsy Johnson                         Precinct #1                                            01 
01330010002000104DEM       Judge, Ct of Criminal App, P5                           Betsy Johnson                         Precinct #2                                            01 
01330010003000044DEM       Judge, Ct of Criminal App, P5                           Betsy Johnson                         Precinct #3                                            01 
01330010004000011DEM       Judge, Ct of Criminal App, P5                           Betsy Johnson                         Precinct #4                                            01 
01330010005000044DEM       Judge, Ct of Criminal App, P5                           Betsy Johnson                         Precinct #5                                            01 
01330010006000068DEM       Judge, Ct of Criminal App, P5                           Betsy Johnson                         Precinct #6                                            01 
01330010007000081DEM       Judge, Ct of Criminal App, P5                           Betsy Johnson                         Precinct #7                                            01 
01330010008000034DEM       Judge, Ct of Criminal App, P5                           Betsy Johnson                         Precinct #8                                            01 
01330010009000013DEM       Judge, Ct of Criminal App, P5                           Betsy Johnson                         Precinct #10                                           01 
01330010010000024DEM       Judge, Ct of Criminal App, P5                           Betsy Johnson                         Precinct #13                                           01 
01330010011000024DEM       Judge, Ct of Criminal App, P5                           Betsy Johnson                         Precinct #14                                           01 
01330020001000000DEM       Judge, Ct of Criminal App, P5                           OVER VOTES                            Precinct #1                                            01 
01330020002000000DEM       Judge, Ct of Criminal App, P5                           OVER VOTES                            Precinct #2                                            01 
01330020003000000DEM       Judge, Ct of Criminal App, P5                           OVER VOTES                            Precinct #3                                            01 
01330020004000000DEM       Judge, Ct of Criminal App, P5                           OVER VOTES                            Precinct #4                                            01 
01330020005000000DEM       Judge, Ct of Criminal App, P5                           OVER VOTES                            Precinct #5                                            01 
01330020006000000DEM       Judge, Ct of Criminal App, P5                           OVER VOTES                            Precinct #6                                            01 
01330020007000000DEM       Judge, Ct of Criminal App, P5                           OVER VOTES                            Precinct #7                                            01 
01330020008000000DEM       Judge, Ct of Criminal App, P5                           OVER VOTES                            Precinct #8                                            01 
01330020009000000DEM       Judge, Ct of Criminal App, P5                           OVER VOTES                            Precinct #10                                           01 
01330020010000000DEM       Judge, Ct of Criminal App, P5                           OVER VOTES                            Precinct #13                                           01 
01330020011000000DEM       Judge, Ct of Criminal App, P5                           OVER VOTES                            Precinct #14                                           01 
01330030001000057DEM       Judge, Ct of Criminal App, P5                           UNDER VOTES                           Precinct #1                                            01 
01330030002000057DEM       Judge, Ct of Criminal App, P5                           UNDER VOTES                           Precinct #2                                            01 
01330030003000026DEM       Judge, Ct of Criminal App, P5                           UNDER VOTES                           Precinct #3                                            01 
01330030004000001DEM       Judge, Ct of Criminal App, P5                           UNDER VOTES                           Precinct #4                                            01 
01330030005000013DEM       Judge, Ct of Criminal App, P5                           UNDER VOTES                           Precinct #5                                            01 
01330030006000024DEM       Judge, Ct of Criminal App, P5                           UNDER VOTES                           Precinct #6                                            01 
01330030007000051DEM       Judge, Ct of Criminal App, P5                           UNDER VOTES                           Precinct #7                                            01 
01330030008000025DEM       Judge, Ct of Criminal App, P5                           UNDER VOTES                           Precinct #8                                            01 
01330030009000003DEM       Judge, Ct of Criminal App, P5                           UNDER VOTES                           Precinct #10                                           01 
01330030010000004DEM       Judge, Ct of Criminal App, P5                           UNDER VOTES                           Precinct #13                                           01 
01330030011000007DEM       Judge, Ct of Criminal App, P5                           UNDER VOTES                           Precinct #14                                           01 
01340010001000078DEM       Judge, Ct of Criminal App, P6                           Robert Burns                          Precinct #1                                            01 
01340010002000104DEM       Judge, Ct of Criminal App, P6                           Robert Burns                          Precinct #2                                            01 
01340010003000044DEM       Judge, Ct of Criminal App, P6                           Robert Burns                          Precinct #3                                            01 
01340010004000010DEM       Judge, Ct of Criminal App, P6                           Robert Burns                          Precinct #4                                            01 
01340010005000041DEM       Judge, Ct of Criminal App, P6                           Robert Burns                          Precinct #5                                            01 
01340010006000071DEM       Judge, Ct of Criminal App, P6                           Robert Burns                          Precinct #6                                            01 
01340010007000074DEM       Judge, Ct of Criminal App, P6                           Robert Burns                          Precinct #7                                            01 
01340010008000033DEM       Judge, Ct of Criminal App, P6                           Robert Burns                          Precinct #8                                            01 
01340010009000011DEM       Judge, Ct of Criminal App, P6                           Robert Burns                          Precinct #10                                           01 
01340010010000024DEM       Judge, Ct of Criminal App, P6                           Robert Burns                          Precinct #13                                           01 
01340010011000025DEM       Judge, Ct of Criminal App, P6                           Robert Burns                          Precinct #14                                           01 
01340020001000000DEM       Judge, Ct of Criminal App, P6                           OVER VOTES                            Precinct #1                                            01 
01340020002000000DEM       Judge, Ct of Criminal App, P6                           OVER VOTES                            Precinct #2                                            01 
01340020003000000DEM       Judge, Ct of Criminal App, P6                           OVER VOTES                            Precinct #3                                            01 
01340020004000000DEM       Judge, Ct of Criminal App, P6                           OVER VOTES                            Precinct #4                                            01 
01340020005000000DEM       Judge, Ct of Criminal App, P6                           OVER VOTES                            Precinct #5                                            01 
01340020006000000DEM       Judge, Ct of Criminal App, P6                           OVER VOTES                            Precinct #6                                            01 
01340020007000000DEM       Judge, Ct of Criminal App, P6                           OVER VOTES                            Precinct #7                                            01 
01340020008000000DEM       Judge, Ct of Criminal App, P6                           OVER VOTES                            Precinct #8                                            01 
01340020009000000DEM       Judge, Ct of Criminal App, P6                           OVER VOTES                            Precinct #10                                           01 
01340020010000000DEM       Judge, Ct of Criminal App, P6                           OVER VOTES                            Precinct #13                                           01 
01340020011000000DEM       Judge, Ct of Criminal App, P6                           OVER VOTES                            Precinct #14                                           01 
01340030001000062DEM       Judge, Ct of Criminal App, P6                           UNDER VOTES                           Precinct #1                                            01 
01340030002000057DEM       Judge, Ct of Criminal App, P6                           UNDER VOTES                           Precinct #2                                            01 
01340030003000026DEM       Judge, Ct of Criminal App, P6                           UNDER VOTES                           Precinct #3                                            01 
01340030004000002DEM       Judge, Ct of Criminal App, P6                           UNDER VOTES                           Precinct #4                                            01 
01340030005000016DEM       Judge, Ct of Criminal App, P6                           UNDER VOTES                           Precinct #5                                            01 
01340030006000021DEM       Judge, Ct of Criminal App, P6                           UNDER VOTES                           Precinct #6                                            01 
01340030007000058DEM       Judge, Ct of Criminal App, P6                           UNDER VOTES                           Precinct #7                                            01 
01340030008000026DEM       Judge, Ct of Criminal App, P6                           UNDER VOTES                           Precinct #8                                            01 
01340030009000005DEM       Judge, Ct of Criminal App, P6                           UNDER VOTES                           Precinct #10                                           01 
01340030010000004DEM       Judge, Ct of Criminal App, P6                           UNDER VOTES                           Precinct #13                                           01 
01340030011000006DEM       Judge, Ct of Criminal App, P6                           UNDER VOTES                           Precinct #14                                           01 
01350010006000083DEM       Constable, Precinct No. 4                               Alvin R. Wyatt                        Precinct #6                                            01 
01350010007000113DEM       Constable, Precinct No. 4                               Alvin R. Wyatt                        Precinct #7                                            01 
01350010008000050DEM       Constable, Precinct No. 4                               Alvin R. Wyatt                        Precinct #8                                            01 
01350020006000000DEM       Constable, Precinct No. 4                               OVER VOTES                            Precinct #6                                            01 
01350020007000000DEM       Constable, Precinct No. 4                               OVER VOTES                            Precinct #7                                            01 
01350020008000000DEM       Constable, Precinct No. 4                               OVER VOTES                            Precinct #8                                            01 
01350030006000009DEM       Constable, Precinct No. 4                               UNDER VOTES                           Precinct #6                                            01 
01350030007000019DEM       Constable, Precinct No. 4                               UNDER VOTES                           Precinct #7                                            01 
01350030008000009DEM       Constable, Precinct No. 4                               UNDER VOTES                           Precinct #8                                            01 
01360010001000082DEM       County Chairman                                         Sunny Garbarino                       Precinct #1                                            01 
01360010002000113DEM       County Chairman                                         Sunny Garbarino                       Precinct #2                                            01 
01360010003000045DEM       County Chairman                                         Sunny Garbarino                       Precinct #3                                            01 
01360010004000011DEM       County Chairman                                         Sunny Garbarino                       Precinct #4                                            01 
01360010005000046DEM       County Chairman                                         Sunny Garbarino                       Precinct #5                                            01 
01360010006000051DEM       County Chairman                                         Sunny Garbarino                       Precinct #6                                            01 
01360010007000066DEM       County Chairman                                         Sunny Garbarino                       Precinct #7                                            01 
01360010008000030DEM       County Chairman                                         Sunny Garbarino                       Precinct #8                                            01 
01360010009000013DEM       County Chairman                                         Sunny Garbarino                       Precinct #10                                           01 
01360010010000025DEM       County Chairman                                         Sunny Garbarino                       Precinct #13                                           01 
01360010011000026DEM       County Chairman                                         Sunny Garbarino                       Precinct #14                                           01 
01360020001000000DEM       County Chairman                                         OVER VOTES                            Precinct #1                                            01 
01360020002000000DEM       County Chairman                                         OVER VOTES                            Precinct #2                                            01 
01360020003000000DEM       County Chairman                                         OVER VOTES                            Precinct #3                                            01 
01360020004000000DEM       County Chairman                                         OVER VOTES                            Precinct #4                                            01 
01360020005000000DEM       County Chairman                                         OVER VOTES                            Precinct #5                                            01 
01360020006000000DEM       County Chairman                                         OVER VOTES                            Precinct #6                                            01 
01360020007000000DEM       County Chairman                                         OVER VOTES                            Precinct #7                                            01 
01360020008000000DEM       County Chairman                                         OVER VOTES                            Precinct #8                                            01 
01360020009000000DEM       County Chairman                                         OVER VOTES                            Precinct #10                                           01 
01360020010000000DEM       County Chairman                                         OVER VOTES                            Precinct #13                                           01 
01360020011000000DEM       County Chairman                                         OVER VOTES                            Precinct #14                                           01 
01360030001000058DEM       County Chairman                                         UNDER VOTES                           Precinct #1                                            01 
01360030002000048DEM       County Chairman                                         UNDER VOTES                           Precinct #2                                            01 
01360030003000025DEM       County Chairman                                         UNDER VOTES                           Precinct #3                                            01 
01360030004000001DEM       County Chairman                                         UNDER VOTES                           Precinct #4                                            01 
01360030005000011DEM       County Chairman                                         UNDER VOTES                           Precinct #5                                            01 
01360030006000041DEM       County Chairman                                         UNDER VOTES                           Precinct #6                                            01 
01360030007000066DEM       County Chairman                                         UNDER VOTES                           Precinct #7                                            01 
01360030008000029DEM       County Chairman                                         UNDER VOTES                           Precinct #8                                            01 
01360030009000003DEM       County Chairman                                         UNDER VOTES                           Precinct #10                                           01 
01360030010000003DEM       County Chairman                                         UNDER VOTES                           Precinct #13                                           01 
01360030011000005DEM       County Chairman                                         UNDER VOTES                           Precinct #14                                           01 
01410010001000115DEM       Referenda Item #1                                       For                                   Precinct #1                                            01Y
01410010002000132DEM       Referenda Item #1                                       For                                   Precinct #2                                            01Y
01410010003000047DEM       Referenda Item #1                                       For                                   Precinct #3                                            01Y
01410010004000011DEM       Referenda Item #1                                       For                                   Precinct #4                                            01Y
01410010005000052DEM       Referenda Item #1                                       For                                   Precinct #5                                            01Y
01410010006000078DEM       Referenda Item #1                                       For                                   Precinct #6                                            01Y
01410010007000111DEM       Referenda Item #1                                       For                                   Precinct #7                                            01Y
01410010008000054DEM       Referenda Item #1                                       For                                   Precinct #8                                            01Y
01410010009000015DEM       Referenda Item #1                                       For                                   Precinct #10                                           01Y
01410010010000026DEM       Referenda Item #1                                       For                                   Precinct #13                                           01Y
01410010011000024DEM       Referenda Item #1                                       For                                   Precinct #14                                           01Y
01410020001000012DEM       Referenda Item #1                                       Against                               Precinct #1                                            01Y
01410020002000017DEM       Referenda Item #1                                       Against                               Precinct #2                                            01Y
01410020003000010DEM       Referenda Item #1                                       Against                               Precinct #3                                            01Y
01410020004000001DEM       Referenda Item #1                                       Against                               Precinct #4                                            01Y
01410020005000003DEM       Referenda Item #1                                       Against                               Precinct #5                                            01Y
01410020006000011DEM       Referenda Item #1                                       Against                               Precinct #6                                            01Y
01410020007000010DEM       Referenda Item #1                                       Against                               Precinct #7                                            01Y
01410020008000003DEM       Referenda Item #1                                       Against                               Precinct #8                                            01Y
01410020009000000DEM       Referenda Item #1                                       Against                               Precinct #10                                           01Y
01410020010000001DEM       Referenda Item #1                                       Against                               Precinct #13                                           01Y
01410020011000006DEM       Referenda Item #1                                       Against                               Precinct #14                                           01Y
01410030001000000DEM       Referenda Item #1                                       OVER VOTES                            Precinct #1                                            01Y
01410030002000000DEM       Referenda Item #1                                       OVER VOTES                            Precinct #2                                            01Y
01410030003000000DEM       Referenda Item #1                                       OVER VOTES                            Precinct #3                                            01Y
01410030004000000DEM       Referenda Item #1                                       OVER VOTES                            Precinct #4                                            01Y
01410030005000000DEM       Referenda Item #1                                       OVER VOTES                            Precinct #5                                            01Y
01410030006000000DEM       Referenda Item #1                                       OVER VOTES                            Precinct #6                                            01Y
01410030007000000DEM       Referenda Item #1                                       OVER VOTES                            Precinct #7                                            01Y
01410030008000000DEM       Referenda Item #1                                       OVER VOTES                            Precinct #8                                            01Y
01410030009000000DEM       Referenda Item #1                                       OVER VOTES                            Precinct #10                                           01Y
01410030010000000DEM       Referenda Item #1                                       OVER VOTES                            Precinct #13                                           01Y
01410030011000000DEM       Referenda Item #1                                       OVER VOTES                            Precinct #14                                           01Y
01410040001000013DEM       Referenda Item #1                                       UNDER VOTES                           Precinct #1                                            01Y
01410040002000012DEM       Referenda Item #1                                       UNDER VOTES                           Precinct #2                                            01Y
01410040003000013DEM       Referenda Item #1                                       UNDER VOTES                           Precinct #3                                            01Y
01410040004000000DEM       Referenda Item #1                                       UNDER VOTES                           Precinct #4                                            01Y
01410040005000002DEM       Referenda Item #1                                       UNDER VOTES                           Precinct #5                                            01Y
01410040006000003DEM       Referenda Item #1                                       UNDER VOTES                           Precinct #6                                            01Y
01410040007000011DEM       Referenda Item #1                                       UNDER VOTES                           Precinct #7                                            01Y
01410040008000002DEM       Referenda Item #1                                       UNDER VOTES                           Precinct #8                                            01Y
01410040009000001DEM       Referenda Item #1                                       UNDER VOTES                           Precinct #10                                           01Y
01410040010000001DEM       Referenda Item #1                                       UNDER VOTES                           Precinct #13                                           01Y
01410040011000001DEM       Referenda Item #1                                       UNDER VOTES                           Precinct #14                                           01Y
01420010001000108DEM       Referenda Item #2                                       For                                   Precinct #1                                            01Y
01420010002000126DEM       Referenda Item #2                                       For                                   Precinct #2                                            01Y
01420010003000056DEM       Referenda Item #2                                       For                                   Precinct #3                                            01Y
01420010004000011DEM       Referenda Item #2                                       For                                   Precinct #4                                            01Y
01420010005000049DEM       Referenda Item #2                                       For                                   Precinct #5                                            01Y
01420010006000077DEM       Referenda Item #2                                       For                                   Precinct #6                                            01Y
01420010007000104DEM       Referenda Item #2                                       For                                   Precinct #7                                            01Y
01420010008000052DEM       Referenda Item #2                                       For                                   Precinct #8                                            01Y
01420010009000016DEM       Referenda Item #2                                       For                                   Precinct #10                                           01Y
01420010010000027DEM       Referenda Item #2                                       For                                   Precinct #13                                           01Y
01420010011000025DEM       Referenda Item #2                                       For                                   Precinct #14                                           01Y
01420020001000014DEM       Referenda Item #2                                       Against                               Precinct #1                                            01Y
01420020002000018DEM       Referenda Item #2                                       Against                               Precinct #2                                            01Y
01420020003000003DEM       Referenda Item #2                                       Against                               Precinct #3                                            01Y
01420020004000001DEM       Referenda Item #2                                       Against                               Precinct #4                                            01Y
01420020005000004DEM       Referenda Item #2                                       Against                               Precinct #5                                            01Y
01420020006000008DEM       Referenda Item #2                                       Against                               Precinct #6                                            01Y
01420020007000015DEM       Referenda Item #2                                       Against                               Precinct #7                                            01Y
01420020008000004DEM       Referenda Item #2                                       Against                               Precinct #8                                            01Y
01420020009000000DEM       Referenda Item #2                                       Against                               Precinct #10                                           01Y
01420020010000001DEM       Referenda Item #2                                       Against                               Precinct #13                                           01Y
01420020011000006DEM       Referenda Item #2                                       Against                               Precinct #14                                           01Y
01420030001000000DEM       Referenda Item #2                                       OVER VOTES                            Precinct #1                                            01Y
01420030002000000DEM       Referenda Item #2                                       OVER VOTES                            Precinct #2                                            01Y
01420030003000000DEM       Referenda Item #2                                       OVER VOTES                            Precinct #3                                            01Y
01420030004000000DEM       Referenda Item #2                                       OVER VOTES                            Precinct #4                                            01Y
01420030005000000DEM       Referenda Item #2                                       OVER VOTES                            Precinct #5                                            01Y
01420030006000000DEM       Referenda Item #2                                       OVER VOTES                            Precinct #6                                            01Y
01420030007000000DEM       Referenda Item #2                                       OVER VOTES                            Precinct #7                                            01Y
01420030008000000DEM       Referenda Item #2                                       OVER VOTES                            Precinct #8                                            01Y
01420030009000000DEM       Referenda Item #2                                       OVER VOTES                            Precinct #10                                           01Y
01420030010000000DEM       Referenda Item #2                                       OVER VOTES                            Precinct #13                                           01Y
01420030011000000DEM       Referenda Item #2                                       OVER VOTES                            Precinct #14                                           01Y
01420040001000018DEM       Referenda Item #2                                       UNDER VOTES                           Precinct #1                                            01Y
01420040002000017DEM       Referenda Item #2                                       UNDER VOTES                           Precinct #2                                            01Y
01420040003000011DEM       Referenda Item #2                                       UNDER VOTES                           Precinct #3                                            01Y
01420040004000000DEM       Referenda Item #2                                       UNDER VOTES                           Precinct #4                                            01Y
01420040005000004DEM       Referenda Item #2                                       UNDER VOTES                           Precinct #5                                            01Y
01420040006000007DEM       Referenda Item #2                                       UNDER VOTES                           Precinct #6                                            01Y
01420040007000013DEM       Referenda Item #2                                       UNDER VOTES                           Precinct #7                                            01Y
01420040008000003DEM       Referenda Item #2                                       UNDER VOTES                           Precinct #8                                            01Y
01420040009000000DEM       Referenda Item #2                                       UNDER VOTES                           Precinct #10                                           01Y
01420040010000000DEM       Referenda Item #2                                       UNDER VOTES                           Precinct #13                                           01Y
01420040011000000DEM       Referenda Item #2                                       UNDER VOTES                           Precinct #14                                           01Y
01430010001000107DEM       Referenda Item #3                                       For                                   Precinct #1                                            01Y
01430010002000118DEM       Referenda Item #3                                       For                                   Precinct #2                                            01Y
01430010003000045DEM       Referenda Item #3                                       For                                   Precinct #3                                            01Y
01430010004000012DEM       Referenda Item #3                                       For                                   Precinct #4                                            01Y
01430010005000051DEM       Referenda Item #3                                       For                                   Precinct #5                                            01Y
01430010006000072DEM       Referenda Item #3                                       For                                   Precinct #6                                            01Y
01430010007000098DEM       Referenda Item #3                                       For                                   Precinct #7                                            01Y
01430010008000043DEM       Referenda Item #3                                       For                                   Precinct #8                                            01Y
01430010009000013DEM       Referenda Item #3                                       For                                   Precinct #10                                           01Y
01430010010000025DEM       Referenda Item #3                                       For                                   Precinct #13                                           01Y
01430010011000024DEM       Referenda Item #3                                       For                                   Precinct #14                                           01Y
01430020001000016DEM       Referenda Item #3                                       Against                               Precinct #1                                            01Y
01430020002000025DEM       Referenda Item #3                                       Against                               Precinct #2                                            01Y
01430020003000010DEM       Referenda Item #3                                       Against                               Precinct #3                                            01Y
01430020004000000DEM       Referenda Item #3                                       Against                               Precinct #4                                            01Y
01430020005000004DEM       Referenda Item #3                                       Against                               Precinct #5                                            01Y
01430020006000013DEM       Referenda Item #3                                       Against                               Precinct #6                                            01Y
01430020007000015DEM       Referenda Item #3                                       Against                               Precinct #7                                            01Y
01430020008000014DEM       Referenda Item #3                                       Against                               Precinct #8                                            01Y
01430020009000003DEM       Referenda Item #3                                       Against                               Precinct #10                                           01Y
01430020010000001DEM       Referenda Item #3                                       Against                               Precinct #13                                           01Y
01430020011000006DEM       Referenda Item #3                                       Against                               Precinct #14                                           01Y
01430030001000000DEM       Referenda Item #3                                       OVER VOTES                            Precinct #1                                            01Y
01430030002000000DEM       Referenda Item #3                                       OVER VOTES                            Precinct #2                                            01Y
01430030003000000DEM       Referenda Item #3                                       OVER VOTES                            Precinct #3                                            01Y
01430030004000000DEM       Referenda Item #3                                       OVER VOTES                            Precinct #4                                            01Y
01430030005000000DEM       Referenda Item #3                                       OVER VOTES                            Precinct #5                                            01Y
01430030006000000DEM       Referenda Item #3                                       OVER VOTES                            Precinct #6                                            01Y
01430030007000000DEM       Referenda Item #3                                       OVER VOTES                            Precinct #7                                            01Y
01430030008000000DEM       Referenda Item #3                                       OVER VOTES                            Precinct #8                                            01Y
01430030009000000DEM       Referenda Item #3                                       OVER VOTES                            Precinct #10                                           01Y
01430030010000000DEM       Referenda Item #3                                       OVER VOTES                            Precinct #13                                           01Y
01430030011000000DEM       Referenda Item #3                                       OVER VOTES                            Precinct #14                                           01Y
01430040001000017DEM       Referenda Item #3                                       UNDER VOTES                           Precinct #1                                            01Y
01430040002000018DEM       Referenda Item #3                                       UNDER VOTES                           Precinct #2                                            01Y
01430040003000015DEM       Referenda Item #3                                       UNDER VOTES                           Precinct #3                                            01Y
01430040004000000DEM       Referenda Item #3                                       UNDER VOTES                           Precinct #4                                            01Y
01430040005000002DEM       Referenda Item #3                                       UNDER VOTES                           Precinct #5                                            01Y
01430040006000007DEM       Referenda Item #3                                       UNDER VOTES                           Precinct #6                                            01Y
01430040007000019DEM       Referenda Item #3                                       UNDER VOTES                           Precinct #7                                            01Y
01430040008000002DEM       Referenda Item #3                                       UNDER VOTES                           Precinct #8                                            01Y
01430040009000000DEM       Referenda Item #3                                       UNDER VOTES                           Precinct #10                                           01Y
01430040010000002DEM       Referenda Item #3                                       UNDER VOTES                           Precinct #13                                           01Y
01430040011000001DEM       Referenda Item #3                                       UNDER VOTES                           Precinct #14                                           01Y
01440010001000104DEM       Referenda Item #4                                       For                                   Precinct #1                                            01Y
01440010002000121DEM       Referenda Item #4                                       For                                   Precinct #2                                            01Y
01440010003000051DEM       Referenda Item #4                                       For                                   Precinct #3                                            01Y
01440010004000012DEM       Referenda Item #4                                       For                                   Precinct #4                                            01Y
01440010005000051DEM       Referenda Item #4                                       For                                   Precinct #5                                            01Y
01440010006000076DEM       Referenda Item #4                                       For                                   Precinct #6                                            01Y
01440010007000103DEM       Referenda Item #4                                       For                                   Precinct #7                                            01Y
01440010008000047DEM       Referenda Item #4                                       For                                   Precinct #8                                            01Y
01440010009000013DEM       Referenda Item #4                                       For                                   Precinct #10                                           01Y
01440010010000025DEM       Referenda Item #4                                       For                                   Precinct #13                                           01Y
01440010011000025DEM       Referenda Item #4                                       For                                   Precinct #14                                           01Y
01440020001000018DEM       Referenda Item #4                                       Against                               Precinct #1                                            01Y
01440020002000021DEM       Referenda Item #4                                       Against                               Precinct #2                                            01Y
01440020003000006DEM       Referenda Item #4                                       Against                               Precinct #3                                            01Y
01440020004000000DEM       Referenda Item #4                                       Against                               Precinct #4                                            01Y
