01010010001000091000000000000000000000000000000          REGISTERED VOTERS - TOTAL                               REGISTERED VOTERS - TOTAL             Precinct 5                                             00 
01010010002000254000000000000000000000000000000          REGISTERED VOTERS - TOTAL                               REGISTERED VOTERS - TOTAL             Precinct 6                                             00 
01010010003002187000000000000000000000000000000          REGISTERED VOTERS - TOTAL                               REGISTERED VOTERS - TOTAL             Precinct 7                                             00 
01010010004000960000000000000000000000000000000          REGISTERED VOTERS - TOTAL                               REGISTERED VOTERS - TOTAL             Precinct 8                                             00 
01010010005000475000000000000000000000000000000          REGISTERED VOTERS - TOTAL                               REGISTERED VOTERS - TOTAL             Precinct 9                                             00 
01010010006001111000000000000000000000000000000          REGISTERED VOTERS - TOTAL                               REGISTERED VOTERS - TOTAL             Precinct 10                                            00 
01010010007000151000000000000000000000000000000          REGISTERED VOTERS - TOTAL                               REGISTERED VOTERS - TOTAL             Precinct 11                                            00 
01010010008001525000000000000000000000000000000          REGISTERED VOTERS - TOTAL                               REGISTERED VOTERS - TOTAL             Precinct 12                                            00 
01010010009000467000000000000000000000000000000          REGISTERED VOTERS - TOTAL                               REGISTERED VOTERS - TOTAL             Precinct 13                                            00 
01010010010000116000000000000000000000000000000          REGISTERED VOTERS - TOTAL                               REGISTERED VOTERS - TOTAL             Precinct 14                                            00 
01010010011001952000000000000000000000000000000          REGISTERED VOTERS - TOTAL                               REGISTERED VOTERS - TOTAL             Precinct 15                                            00 
01020010001000063000005000015000043000000000000          BALLOTS CAST - TOTAL                                    BALLOTS CAST - TOTAL                  Precinct 5                                             00 
01020010002000104000006000032000066000000000000          BALLOTS CAST - TOTAL                                    BALLOTS CAST - TOTAL                  Precinct 6                                             00 
01020010003000783000026000336000421000000000000          BALLOTS CAST - TOTAL                                    BALLOTS CAST - TOTAL                  Precinct 7                                             00 
01020010004000298000013000116000169000000000000          BALLOTS CAST - TOTAL                                    BALLOTS CAST - TOTAL                  Precinct 8                                             00 
01020010005000217000004000057000156000000000000          BALLOTS CAST - TOTAL                                    BALLOTS CAST - TOTAL                  Precinct 9                                             00 
01020010006000531000028000217000286000000000000          BALLOTS CAST - TOTAL                                    BALLOTS CAST - TOTAL                  Precinct 10                                            00 
01020010007000073000005000007000061000000000000          BALLOTS CAST - TOTAL                                    BALLOTS CAST - TOTAL                  Precinct 11                                            00 
01020010008000395000013000130000252000000000000          BALLOTS CAST - TOTAL                                    BALLOTS CAST - TOTAL                  Precinct 12                                            00 
01020010009000198000010000041000147000000000000          BALLOTS CAST - TOTAL                                    BALLOTS CAST - TOTAL                  Precinct 13                                            00 
01020010010000061000002000027000032000000000000          BALLOTS CAST - TOTAL                                    BALLOTS CAST - TOTAL                  Precinct 14                                            00 
01020010011000381000019000143000219000000000000          BALLOTS CAST - TOTAL                                    BALLOTS CAST - TOTAL                  Precinct 15                                            00 
01030010001000057000005000013000039000000000000REP       BALLOTS CAST - REPUBLICAN PARTY                         BALLOTS CAST - REPUBLICAN PARTY       Precinct 5                                             00 
01030010002000094000006000032000056000000000000REP       BALLOTS CAST - REPUBLICAN PARTY                         BALLOTS CAST - REPUBLICAN PARTY       Precinct 6                                             00 
01030010003000737000022000325000390000000000000REP       BALLOTS CAST - REPUBLICAN PARTY                         BALLOTS CAST - REPUBLICAN PARTY       Precinct 7                                             00 
01030010004000279000010000111000158000000000000REP       BALLOTS CAST - REPUBLICAN PARTY                         BALLOTS CAST - REPUBLICAN PARTY       Precinct 8                                             00 
01030010005000214000004000056000154000000000000REP       BALLOTS CAST - REPUBLICAN PARTY                         BALLOTS CAST - REPUBLICAN PARTY       Precinct 9                                             00 
01030010006000505000022000209000274000000000000REP       BALLOTS CAST - REPUBLICAN PARTY                         BALLOTS CAST - REPUBLICAN PARTY       Precinct 10                                            00 
01030010007000067000005000007000055000000000000REP       BALLOTS CAST - REPUBLICAN PARTY                         BALLOTS CAST - REPUBLICAN PARTY       Precinct 11                                            00 
01030010008000345000008000116000221000000000000REP       BALLOTS CAST - REPUBLICAN PARTY                         BALLOTS CAST - REPUBLICAN PARTY       Precinct 12                                            00 
01030010009000172000008000034000130000000000000REP       BALLOTS CAST - REPUBLICAN PARTY                         BALLOTS CAST - REPUBLICAN PARTY       Precinct 13                                            00 
01030010010000052000002000020000030000000000000REP       BALLOTS CAST - REPUBLICAN PARTY                         BALLOTS CAST - REPUBLICAN PARTY       Precinct 14                                            00 
01030010011000323000018000132000173000000000000REP       BALLOTS CAST - REPUBLICAN PARTY                         BALLOTS CAST - REPUBLICAN PARTY       Precinct 15                                            00 
01040010001000006000000000002000004000000000000DEM       BALLOTS CAST - DEMOCRATIC PARTY                         BALLOTS CAST - DEMOCRATIC PARTY       Precinct 5                                             00 
01040010002000010000000000000000010000000000000DEM       BALLOTS CAST - DEMOCRATIC PARTY                         BALLOTS CAST - DEMOCRATIC PARTY       Precinct 6                                             00 
01040010003000046000004000011000031000000000000DEM       BALLOTS CAST - DEMOCRATIC PARTY                         BALLOTS CAST - DEMOCRATIC PARTY       Precinct 7                                             00 
01040010004000019000003000005000011000000000000DEM       BALLOTS CAST - DEMOCRATIC PARTY                         BALLOTS CAST - DEMOCRATIC PARTY       Precinct 8                                             00 
01040010005000003000000000001000002000000000000DEM       BALLOTS CAST - DEMOCRATIC PARTY                         BALLOTS CAST - DEMOCRATIC PARTY       Precinct 9                                             00 
01040010006000026000006000008000012000000000000DEM       BALLOTS CAST - DEMOCRATIC PARTY                         BALLOTS CAST - DEMOCRATIC PARTY       Precinct 10                                            00 
01040010007000006000000000000000006000000000000DEM       BALLOTS CAST - DEMOCRATIC PARTY                         BALLOTS CAST - DEMOCRATIC PARTY       Precinct 11                                            00 
01040010008000050000005000014000031000000000000DEM       BALLOTS CAST - DEMOCRATIC PARTY                         BALLOTS CAST - DEMOCRATIC PARTY       Precinct 12                                            00 
01040010009000026000002000007000017000000000000DEM       BALLOTS CAST - DEMOCRATIC PARTY                         BALLOTS CAST - DEMOCRATIC PARTY       Precinct 13                                            00 
01040010010000009000000000007000002000000000000DEM       BALLOTS CAST - DEMOCRATIC PARTY                         BALLOTS CAST - DEMOCRATIC PARTY       Precinct 14                                            00 
01040010011000058000001000011000046000000000000DEM       BALLOTS CAST - DEMOCRATIC PARTY                         BALLOTS CAST - DEMOCRATIC PARTY       Precinct 15                                            00 
01050010001000007000001000000000006000000000000REP       President                                               Marco Rubio                           Precinct 5                                             01 
01050010002000015000001000010000004000000000000REP       President                                               Marco Rubio                           Precinct 6                                             01 
01050010003000114000002000066000046000000000000REP       President                                               Marco Rubio                           Precinct 7                                             01 
01050010004000049000001000019000029000000000000REP       President                                               Marco Rubio                           Precinct 8                                             01 
01050010005000026000000000007000019000000000000REP       President                                               Marco Rubio                           Precinct 9                                             01 
01050010006000079000002000041000036000000000000REP       President                                               Marco Rubio                           Precinct 10                                            01 
01050010007000006000000000002000004000000000000REP       President                                               Marco Rubio                           Precinct 11                                            01 
01050010008000043000000000017000026000000000000REP       President                                               Marco Rubio                           Precinct 12                                            01 
01050010009000009000001000005000003000000000000REP       President                                               Marco Rubio                           Precinct 13                                            01 
01050010010000003000000000001000002000000000000REP       President                                               Marco Rubio                           Precinct 14                                            01 
01050010011000036000002000016000018000000000000REP       President                                               Marco Rubio                           Precinct 15                                            01 
01050020001000000000000000000000000000000000000REP       President                                               Carly Fiorina                         Precinct 5                                             01 
01050020002000000000000000000000000000000000000REP       President                                               Carly Fiorina                         Precinct 6                                             01 
01050020003000001000000000001000000000000000000REP       President                                               Carly Fiorina                         Precinct 7                                             01 
01050020004000000000000000000000000000000000000REP       President                                               Carly Fiorina                         Precinct 8                                             01 
01050020005000000000000000000000000000000000000REP       President                                               Carly Fiorina                         Precinct 9                                             01 
01050020006000000000000000000000000000000000000REP       President                                               Carly Fiorina                         Precinct 10                                            01 
01050020007000000000000000000000000000000000000REP       President                                               Carly Fiorina                         Precinct 11                                            01 
01050020008000000000000000000000000000000000000REP       President                                               Carly Fiorina                         Precinct 12                                            01 
01050020009000000000000000000000000000000000000REP       President                                               Carly Fiorina                         Precinct 13                                            01 
01050020010000000000000000000000000000000000000REP       President                                               Carly Fiorina                         Precinct 14                                            01 
01050020011000000000000000000000000000000000000REP       President                                               Carly Fiorina                         Precinct 15                                            01 
01050030001000021000000000007000014000000000000REP       President                                               Donald J. Trump                       Precinct 5                                             01 
01050030002000035000001000013000021000000000000REP       President                                               Donald J. Trump                       Precinct 6                                             01 
01050030003000199000004000088000107000000000000REP       President                                               Donald J. Trump                       Precinct 7                                             01 
01050030004000071000001000036000034000000000000REP       President                                               Donald J. Trump                       Precinct 8                                             01 
01050030005000049000002000019000028000000000000REP       President                                               Donald J. Trump                       Precinct 9                                             01 
01050030006000129000005000060000064000000000000REP       President                                               Donald J. Trump                       Precinct 10                                            01 
01050030007000014000004000003000007000000000000REP       President                                               Donald J. Trump                       Precinct 11                                            01 
01050030008000094000001000034000059000000000000REP       President                                               Donald J. Trump                       Precinct 12                                            01 
01050030009000057000003000010000044000000000000REP       President                                               Donald J. Trump                       Precinct 13                                            01 
01050030010000016000000000006000010000000000000REP       President                                               Donald J. Trump                       Precinct 14                                            01 
01050030011000093000002000051000040000000000000REP       President                                               Donald J. Trump                       Precinct 15                                            01 
01050040001000000000000000000000000000000000000REP       President                                               Chris Christie                        Precinct 5                                             01 
01050040002000000000000000000000000000000000000REP       President                                               Chris Christie                        Precinct 6                                             01 
01050040003000002000000000002000000000000000000REP       President                                               Chris Christie                        Precinct 7                                             01 
01050040004000000000000000000000000000000000000REP       President                                               Chris Christie                        Precinct 8                                             01 
01050040005000000000000000000000000000000000000REP       President                                               Chris Christie                        Precinct 9                                             01 
01050040006000004000001000002000001000000000000REP       President                                               Chris Christie                        Precinct 10                                            01 
01050040007000000000000000000000000000000000000REP       President                                               Chris Christie                        Precinct 11                                            01 
01050040008000001000000000000000001000000000000REP       President                                               Chris Christie                        Precinct 12                                            01 
01050040009000000000000000000000000000000000000REP       President                                               Chris Christie                        Precinct 13                                            01 
01050040010000000000000000000000000000000000000REP       President                                               Chris Christie                        Precinct 14                                            01 
01050040011000001000000000001000000000000000000REP       President                                               Chris Christie                        Precinct 15                                            01 
01050050001000026000004000006000016000000000000REP       President                                               Ted Cruz                              Precinct 5                                             01 
01050050002000031000001000003000027000000000000REP       President                                               Ted Cruz                              Precinct 6                                             01 
01050050003000311000009000117000185000000000000REP       President                                               Ted Cruz                              Precinct 7                                             01 
01050050004000117000003000039000075000000000000REP       President                                               Ted Cruz                              Precinct 8                                             01 
01050050005000111000000000024000087000000000000REP       President                                               Ted Cruz                              Precinct 9                                             01 
01050050006000210000009000072000129000000000000REP       President                                               Ted Cruz                              Precinct 10                                            01 
01050050007000040000000000000000040000000000000REP       President                                               Ted Cruz                              Precinct 11                                            01 
01050050008000154000005000043000106000000000000REP       President                                               Ted Cruz                              Precinct 12                                            01 
01050050009000092000004000017000071000000000000REP       President                                               Ted Cruz                              Precinct 13                                            01 
01050050010000023000002000006000015000000000000REP       President                                               Ted Cruz                              Precinct 14                                            01 
01050050011000150000013000045000092000000000000REP       President                                               Ted Cruz                              Precinct 15                                            01 
01050060001000002000000000000000002000000000000REP       President                                               Ben Carson                            Precinct 5                                             01 
01050060002000003000000000002000001000000000000REP       President                                               Ben Carson                            Precinct 6                                             01 
01050060003000040000000000013000027000000000000REP       President                                               Ben Carson                            Precinct 7                                             01 
01050060004000015000000000008000007000000000000REP       President                                               Ben Carson                            Precinct 8                                             01 
01050060005000008000000000001000007000000000000REP       President                                               Ben Carson                            Precinct 9                                             01 
01050060006000034000002000012000020000000000000REP       President                                               Ben Carson                            Precinct 10                                            01 
01050060007000003000000000002000001000000000000REP       President                                               Ben Carson                            Precinct 11                                            01 
01050060008000023000000000008000015000000000000REP       President                                               Ben Carson                            Precinct 12                                            01 
01050060009000006000000000001000005000000000000REP       President                                               Ben Carson                            Precinct 13                                            01 
01050060010000004000000000003000001000000000000REP       President                                               Ben Carson                            Precinct 14                                            01 
01050060011000020000001000006000013000000000000REP       President                                               Ben Carson                            Precinct 15                                            01 
01050070001000000000000000000000000000000000000REP       President                                               Jeb Bush                              Precinct 5                                             01 
01050070002000001000000000001000000000000000000REP       President                                               Jeb Bush                              Precinct 6                                             01 
01050070003000017000003000012000002000000000000REP       President                                               Jeb Bush                              Precinct 7                                             01 
01050070004000013000004000005000004000000000000REP       President                                               Jeb Bush                              Precinct 8                                             01 
01050070005000001000000000001000000000000000000REP       President                                               Jeb Bush                              Precinct 9                                             01 
01050070006000013000003000007000003000000000000REP       President                                               Jeb Bush                              Precinct 10                                            01 
01050070007000001000001000000000000000000000000REP       President                                               Jeb Bush                              Precinct 11                                            01 
01050070008000004000000000003000001000000000000REP       President                                               Jeb Bush                              Precinct 12                                            01 
01050070009000001000000000000000001000000000000REP       President                                               Jeb Bush                              Precinct 13                                            01 
01050070010000000000000000000000000000000000000REP       President                                               Jeb Bush                              Precinct 14                                            01 
01050070011000004000000000002000002000000000000REP       President                                               Jeb Bush                              Precinct 15                                            01 
01050080001000000000000000000000000000000000000REP       President                                               John R. Kasich                        Precinct 5                                             01 
01050080002000006000002000003000001000000000000REP       President                                               John R. Kasich                        Precinct 6                                             01 
01050080003000020000000000011000009000000000000REP       President                                               John R. Kasich                        Precinct 7                                             01 
01050080004000006000000000002000004000000000000REP       President                                               John R. Kasich                        Precinct 8                                             01 
01050080005000006000002000002000002000000000000REP       President                                               John R. Kasich                        Precinct 9                                             01 
01050080006000019000000000009000010000000000000REP       President                                               John R. Kasich                        Precinct 10                                            01 
01050080007000001000000000000000001000000000000REP       President                                               John R. Kasich                        Precinct 11                                            01 
01050080008000007000000000005000002000000000000REP       President                                               John R. Kasich                        Precinct 12                                            01 
01050080009000002000000000000000002000000000000REP       President                                               John R. Kasich                        Precinct 13                                            01 
01050080010000003000000000001000002000000000000REP       President                                               John R. Kasich                        Precinct 14                                            01 
01050080011000004000000000000000004000000000000REP       President                                               John R. Kasich                        Precinct 15                                            01 
01050090001000000000000000000000000000000000000REP       President                                               Lindsey Graham                        Precinct 5                                             01 
01050090002000000000000000000000000000000000000REP       President                                               Lindsey Graham                        Precinct 6                                             01 
01050090003000000000000000000000000000000000000REP       President                                               Lindsey Graham                        Precinct 7                                             01 
01050090004000000000000000000000000000000000000REP       President                                               Lindsey Graham                        Precinct 8                                             01 
01050090005000000000000000000000000000000000000REP       President                                               Lindsey Graham                        Precinct 9                                             01 
01050090006000000000000000000000000000000000000REP       President                                               Lindsey Graham                        Precinct 10                                            01 
01050090007000000000000000000000000000000000000REP       President                                               Lindsey Graham                        Precinct 11                                            01 
01050090008000000000000000000000000000000000000REP       President                                               Lindsey Graham                        Precinct 12                                            01 
01050090009000000000000000000000000000000000000REP       President                                               Lindsey Graham                        Precinct 13                                            01 
01050090010000000000000000000000000000000000000REP       President                                               Lindsey Graham                        Precinct 14                                            01 
01050090011000000000000000000000000000000000000REP       President                                               Lindsey Graham                        Precinct 15                                            01 
01050100001000000000000000000000000000000000000REP       President                                               Rand Paul                             Precinct 5                                             01 
01050100002000000000000000000000000000000000000REP       President                                               Rand Paul                             Precinct 6                                             01 
01050100003000002000001000000000001000000000000REP       President                                               Rand Paul                             Precinct 7                                             01 
01050100004000002000000000000000002000000000000REP       President                                               Rand Paul                             Precinct 8                                             01 
01050100005000001000000000000000001000000000000REP       President                                               Rand Paul                             Precinct 9                                             01 
01050100006000000000000000000000000000000000000REP       President                                               Rand Paul                             Precinct 10                                            01 
01050100007000000000000000000000000000000000000REP       President                                               Rand Paul                             Precinct 11                                            01 
01050100008000001000001000000000000000000000000REP       President                                               Rand Paul                             Precinct 12                                            01 
01050100009000001000000000000000001000000000000REP       President                                               Rand Paul                             Precinct 13                                            01 
01050100010000000000000000000000000000000000000REP       President                                               Rand Paul                             Precinct 14                                            01 
01050100011000000000000000000000000000000000000REP       President                                               Rand Paul                             Precinct 15                                            01 
01050110001000000000000000000000000000000000000REP       President                                               Mike Huckabee                         Precinct 5                                             01 
01050110002000000000000000000000000000000000000REP       President                                               Mike Huckabee                         Precinct 6                                             01 
01050110003000006000001000003000002000000000000REP       President                                               Mike Huckabee                         Precinct 7                                             01 
01050110004000002000001000001000000000000000000REP       President                                               Mike Huckabee                         Precinct 8                                             01 
01050110005000002000000000000000002000000000000REP       President                                               Mike Huckabee                         Precinct 9                                             01 
01050110006000000000000000000000000000000000000REP       President                                               Mike Huckabee                         Precinct 10                                            01 
01050110007000000000000000000000000000000000000REP       President                                               Mike Huckabee                         Precinct 11                                            01 
01050110008000002000000000002000000000000000000REP       President                                               Mike Huckabee                         Precinct 12                                            01 
01050110009000000000000000000000000000000000000REP       President                                               Mike Huckabee                         Precinct 13                                            01 
01050110010000000000000000000000000000000000000REP       President                                               Mike Huckabee                         Precinct 14                                            01 
01050110011000001000000000001000000000000000000REP       President                                               Mike Huckabee                         Precinct 15                                            01 
01050120001000000000000000000000000000000000000REP       President                                               Rick Santorum                         Precinct 5                                             01 
01050120002000000000000000000000000000000000000REP       President                                               Rick Santorum                         Precinct 6                                             01 
01050120003000000000000000000000000000000000000REP       President                                               Rick Santorum                         Precinct 7                                             01 
01050120004000001000000000000000001000000000000REP       President                                               Rick Santorum                         Precinct 8                                             01 
01050120005000001000000000001000000000000000000REP       President                                               Rick Santorum                         Precinct 9                                             01 
01050120006000000000000000000000000000000000000REP       President                                               Rick Santorum                         Precinct 10                                            01 
01050120007000000000000000000000000000000000000REP       President                                               Rick Santorum                         Precinct 11                                            01 
01050120008000000000000000000000000000000000000REP       President                                               Rick Santorum                         Precinct 12                                            01 
01050120009000000000000000000000000000000000000REP       President                                               Rick Santorum                         Precinct 13                                            01 
01050120010000000000000000000000000000000000000REP       President                                               Rick Santorum                         Precinct 14                                            01 
01050120011000002000000000001000001000000000000REP       President                                               Rick Santorum                         Precinct 15                                            01 
01050130001000001000000000000000001000000000000REP       President                                               Elizabeth Gray                        Precinct 5                                             01 
01050130002000002000000000000000002000000000000REP       President                                               Elizabeth Gray                        Precinct 6                                             01 
01050130003000015000000000008000007000000000000REP       President                                               Elizabeth Gray                        Precinct 7                                             01 
01050130004000002000000000000000002000000000000REP       President                                               Elizabeth Gray                        Precinct 8                                             01 
01050130005000006000000000000000006000000000000REP       President                                               Elizabeth Gray                        Precinct 9                                             01 
01050130006000006000000000002000004000000000000REP       President                                               Elizabeth Gray                        Precinct 10                                            01 
01050130007000000000000000000000000000000000000REP       President                                               Elizabeth Gray                        Precinct 11                                            01 
01050130008000011000000000003000008000000000000REP       President                                               Elizabeth Gray                        Precinct 12                                            01 
01050130009000002000000000001000001000000000000REP       President                                               Elizabeth Gray                        Precinct 13                                            01 
01050130010000002000000000002000000000000000000REP       President                                               Elizabeth Gray                        Precinct 14                                            01 
01050130011000002000000000001000001000000000000REP       President                                               Elizabeth Gray                        Precinct 15                                            01 
01050140001000000000000000000000000000000000000REP       President                                               Uncommitted                           Precinct 5                                             01 
01050140002000001000001000000000000000000000000REP       President                                               Uncommitted                           Precinct 6                                             01 
01050140003000007000002000002000003000000000000REP       President                                               Uncommitted                           Precinct 7                                             01 
01050140004000000000000000000000000000000000000REP       President                                               Uncommitted                           Precinct 8                                             01 
01050140005000001000000000000000001000000000000REP       President                                               Uncommitted                           Precinct 9                                             01 
01050140006000006000000000002000004000000000000REP       President                                               Uncommitted                           Precinct 10                                            01 
01050140007000002000000000000000002000000000000REP       President                                               Uncommitted                           Precinct 11                                            01 
01050140008000004000001000000000003000000000000REP       President                                               Uncommitted                           Precinct 12                                            01 
01050140009000001000000000000000001000000000000REP       President                                               Uncommitted                           Precinct 13                                            01 
01050140010000001000000000001000000000000000000REP       President                                               Uncommitted                           Precinct 14                                            01 
01050140011000005000000000005000000000000000000REP       President                                               Uncommitted                           Precinct 15                                            01 
01050150001000000000000000000000000000000000000REP       President                                               OVER VOTES                            Precinct 5                                             01 
01050150002000000000000000000000000000000000000REP       President                                               OVER VOTES                            Precinct 6                                             01 
01050150003000000000000000000000000000000000000REP       President                                               OVER VOTES                            Precinct 7                                             01 
01050150004000000000000000000000000000000000000REP       President                                               OVER VOTES                            Precinct 8                                             01 
01050150005000000000000000000000000000000000000REP       President                                               OVER VOTES                            Precinct 9                                             01 
01050150006000000000000000000000000000000000000REP       President                                               OVER VOTES                            Precinct 10                                            01 
01050150007000000000000000000000000000000000000REP       President                                               OVER VOTES                            Precinct 11                                            01 
01050150008000000000000000000000000000000000000REP       President                                               OVER VOTES                            Precinct 12                                            01 
01050150009000000000000000000000000000000000000REP       President                                               OVER VOTES                            Precinct 13                                            01 
01050150010000000000000000000000000000000000000REP       President                                               OVER VOTES                            Precinct 14                                            01 
01050150011000000000000000000000000000000000000REP       President                                               OVER VOTES                            Precinct 15                                            01 
01050160001000000000000000000000000000000000000REP       President                                               UNDER VOTES                           Precinct 5                                             01 
01050160002000000000000000000000000000000000000REP       President                                               UNDER VOTES                           Precinct 6                                             01 
01050160003000003000000000002000001000000000000REP       President                                               UNDER VOTES                           Precinct 7                                             01 
01050160004000001000000000001000000000000000000REP       President                                               UNDER VOTES                           Precinct 8                                             01 
01050160005000002000000000001000001000000000000REP       President                                               UNDER VOTES                           Precinct 9                                             01 
01050160006000005000000000002000003000000000000REP       President                                               UNDER VOTES                           Precinct 10                                            01 
01050160007000000000000000000000000000000000000REP       President                                               UNDER VOTES                           Precinct 11                                            01 
01050160008000001000000000001000000000000000000REP       President                                               UNDER VOTES                           Precinct 12                                            01 
01050160009000001000000000000000001000000000000REP       President                                               UNDER VOTES                           Precinct 13                                            01 
01050160010000000000000000000000000000000000000REP       President                                               UNDER VOTES                           Precinct 14                                            01 
01050160011000005000000000003000002000000000000REP       President                                               UNDER VOTES                           Precinct 15                                            01 
01060010001000003000000000003000000000000000000REP       United States Representative, Dist 19                   Michael Bob Starr                     Precinct 5                                             01 
01060010002000017000000000010000007000000000000REP       United States Representative, Dist 19                   Michael Bob Starr                     Precinct 6                                             01 
01060010003000127000002000069000056000000000000REP       United States Representative, Dist 19                   Michael Bob Starr                     Precinct 7                                             01 
01060010004000034000001000013000020000000000000REP       United States Representative, Dist 19                   Michael Bob Starr                     Precinct 8                                             01 
01060010005000036000004000014000018000000000000REP       United States Representative, Dist 19                   Michael Bob Starr                     Precinct 9                                             01 
01060010006000094000005000044000045000000000000REP       United States Representative, Dist 19                   Michael Bob Starr                     Precinct 10                                            01 
01060010007000014000000000003000011000000000000REP       United States Representative, Dist 19                   Michael Bob Starr                     Precinct 11                                            01 
01060010008000061000000000022000039000000000000REP       United States Representative, Dist 19                   Michael Bob Starr                     Precinct 12                                            01 
01060010009000036000006000006000024000000000000REP       United States Representative, Dist 19                   Michael Bob Starr                     Precinct 13                                            01 
01060010010000004000000000003000001000000000000REP       United States Representative, Dist 19                   Michael Bob Starr                     Precinct 14                                            01 
01060010011000047000005000025000017000000000000REP       United States Representative, Dist 19                   Michael Bob Starr                     Precinct 15                                            01 
01060020001000017000000000005000012000000000000REP       United States Representative, Dist 19                   Jodey Arrington                       Precinct 5                                             01 
01060020002000029000003000007000019000000000000REP       United States Representative, Dist 19                   Jodey Arrington                       Precinct 6                                             01 
01060020003000216000005000100000111000000000000REP       United States Representative, Dist 19                   Jodey Arrington                       Precinct 7                                             01 
01060020004000090000003000035000052000000000000REP       United States Representative, Dist 19                   Jodey Arrington                       Precinct 8                                             01 
01060020005000055000000000008000047000000000000REP       United States Representative, Dist 19                   Jodey Arrington                       Precinct 9                                             01 
01060020006000161000008000066000087000000000000REP       United States Representative, Dist 19                   Jodey Arrington                       Precinct 10                                            01 
01060020007000019000002000002000015000000000000REP       United States Representative, Dist 19                   Jodey Arrington                       Precinct 11                                            01 
01060020008000092000002000031000059000000000000REP       United States Representative, Dist 19                   Jodey Arrington                       Precinct 12                                            01 
01060020009000048000002000008000038000000000000REP       United States Representative, Dist 19                   Jodey Arrington                       Precinct 13                                            01 
01060020010000024000002000008000014000000000000REP       United States Representative, Dist 19                   Jodey Arrington                       Precinct 14                                            01 
01060020011000066000003000029000034000000000000REP       United States Representative, Dist 19                   Jodey Arrington                       Precinct 15                                            01 
01060030001000017000000000003000014000000000000REP       United States Representative, Dist 19                   Glen Robertson                        Precinct 5                                             01 
01060030002000031000003000008000020000000000000REP       United States Representative, Dist 19                   Glen Robertson                        Precinct 6                                             01 
01060030003000225000011000097000117000000000000REP       United States Representative, Dist 19                   Glen Robertson                        Precinct 7                                             01 
01060030004000075000002000032000041000000000000REP       United States Representative, Dist 19                   Glen Robertson                        Precinct 8                                             01 
01060030005000050000000000019000031000000000000REP       United States Representative, Dist 19                   Glen Robertson                        Precinct 9                                             01 
01060030006000126000004000053000069000000000000REP       United States Representative, Dist 19                   Glen Robertson                        Precinct 10                                            01 
01060030007000010000000000001000009000000000000REP       United States Representative, Dist 19                   Glen Robertson                        Precinct 11                                            01 
01060030008000097000005000038000054000000000000REP       United States Representative, Dist 19                   Glen Robertson                        Precinct 12                                            01 
01060030009000040000000000011000029000000000000REP       United States Representative, Dist 19                   Glen Robertson                        Precinct 13                                            01 
01060030010000016000000000005000011000000000000REP       United States Representative, Dist 19                   Glen Robertson                        Precinct 14                                            01 
01060030011000095000005000040000050000000000000REP       United States Representative, Dist 19                   Glen Robertson                        Precinct 15                                            01 
01060040001000003000000000000000003000000000000REP       United States Representative, Dist 19                   DeRenda Warren                        Precinct 5                                             01 
01060040002000002000000000002000000000000000000REP       United States Representative, Dist 19                   DeRenda Warren                        Precinct 6                                             01 
01060040003000011000000000003000008000000000000REP       United States Representative, Dist 19                   DeRenda Warren                        Precinct 7                                             01 
01060040004000006000001000003000002000000000000REP       United States Representative, Dist 19                   DeRenda Warren                        Precinct 8                                             01 
01060040005000005000000000000000005000000000000REP       United States Representative, Dist 19                   DeRenda Warren                        Precinct 9                                             01 
01060040006000008000001000003000004000000000000REP       United States Representative, Dist 19                   DeRenda Warren                        Precinct 10                                            01 
01060040007000001000000000000000001000000000000REP       United States Representative, Dist 19                   DeRenda Warren                        Precinct 11                                            01 
01060040008000004000000000000000004000000000000REP       United States Representative, Dist 19                   DeRenda Warren                        Precinct 12                                            01 
01060040009000001000000000000000001000000000000REP       United States Representative, Dist 19                   DeRenda Warren                        Precinct 13                                            01 
01060040010000001000000000001000000000000000000REP       United States Representative, Dist 19                   DeRenda Warren                        Precinct 14                                            01 
01060040011000008000001000004000003000000000000REP       United States Representative, Dist 19                   DeRenda Warren                        Precinct 15                                            01 
01060050001000000000000000000000000000000000000REP       United States Representative, Dist 19                   John C. Key                           Precinct 5                                             01 
01060050002000000000000000000000000000000000000REP       United States Representative, Dist 19                   John C. Key                           Precinct 6                                             01 
01060050003000011000000000005000006000000000000REP       United States Representative, Dist 19                   John C. Key                           Precinct 7                                             01 
01060050004000001000000000000000001000000000000REP       United States Representative, Dist 19                   John C. Key                           Precinct 8                                             01 
01060050005000002000000000000000002000000000000REP       United States Representative, Dist 19                   John C. Key                           Precinct 9                                             01 
01060050006000010000001000002000007000000000000REP       United States Representative, Dist 19                   John C. Key                           Precinct 10                                            01 
01060050007000006000002000000000004000000000000REP       United States Representative, Dist 19                   John C. Key                           Precinct 11                                            01 
01060050008000006000001000001000004000000000000REP       United States Representative, Dist 19                   John C. Key                           Precinct 12                                            01 
01060050009000002000000000000000002000000000000REP       United States Representative, Dist 19                   John C. Key                           Precinct 13                                            01 
01060050010000001000000000001000000000000000000REP       United States Representative, Dist 19                   John C. Key                           Precinct 14                                            01 
01060050011000008000000000002000006000000000000REP       United States Representative, Dist 19                   John C. Key                           Precinct 15                                            01 
01060060001000006000002000001000003000000000000REP       United States Representative, Dist 19                   Greg Garrett                          Precinct 5                                             01 
01060060002000002000000000001000001000000000000REP       United States Representative, Dist 19                   Greg Garrett                          Precinct 6                                             01 
01060060003000038000000000012000026000000000000REP       United States Representative, Dist 19                   Greg Garrett                          Precinct 7                                             01 
01060060004000016000001000006000009000000000000REP       United States Representative, Dist 19                   Greg Garrett                          Precinct 8                                             01 
01060060005000009000000000000000009000000000000REP       United States Representative, Dist 19                   Greg Garrett                          Precinct 9                                             01 
01060060006000030000001000012000017000000000000REP       United States Representative, Dist 19                   Greg Garrett                          Precinct 10                                            01 
01060060007000001000000000000000001000000000000REP       United States Representative, Dist 19                   Greg Garrett                          Precinct 11                                            01 
01060060008000022000000000004000018000000000000REP       United States Representative, Dist 19                   Greg Garrett                          Precinct 12                                            01 
01060060009000006000000000000000006000000000000REP       United States Representative, Dist 19                   Greg Garrett                          Precinct 13                                            01 
01060060010000001000000000001000000000000000000REP       United States Representative, Dist 19                   Greg Garrett                          Precinct 14                                            01 
01060060011000020000001000002000017000000000000REP       United States Representative, Dist 19                   Greg Garrett                          Precinct 15                                            01 
01060070001000000000000000000000000000000000000REP       United States Representative, Dist 19                   Donald R. May                         Precinct 5                                             01 
01060070002000003000000000001000002000000000000REP       United States Representative, Dist 19                   Donald R. May                         Precinct 6                                             01 
01060070003000035000002000010000023000000000000REP       United States Representative, Dist 19                   Donald R. May                         Precinct 7                                             01 
01060070004000020000000000010000010000000000000REP       United States Representative, Dist 19                   Donald R. May                         Precinct 8                                             01 
01060070005000010000000000002000008000000000000REP       United States Representative, Dist 19                   Donald R. May                         Precinct 9                                             01 
01060070006000035000000000014000021000000000000REP       United States Representative, Dist 19                   Donald R. May                         Precinct 10                                            01 
01060070007000003000000000000000003000000000000REP       United States Representative, Dist 19                   Donald R. May                         Precinct 11                                            01 
01060070008000026000000000011000015000000000000REP       United States Representative, Dist 19                   Donald R. May                         Precinct 12                                            01 
01060070009000017000000000005000012000000000000REP       United States Representative, Dist 19                   Donald R. May                         Precinct 13                                            01 
01060070010000004000000000001000003000000000000REP       United States Representative, Dist 19                   Donald R. May                         Precinct 14                                            01 
01060070011000019000000000004000015000000000000REP       United States Representative, Dist 19                   Donald R. May                         Precinct 15                                            01 
01060080001000002000001000000000001000000000000REP       United States Representative, Dist 19                   Jason Corley                          Precinct 5                                             01 
01060080002000002000000000001000001000000000000REP       United States Representative, Dist 19                   Jason Corley                          Precinct 6                                             01 
01060080003000011000000000005000006000000000000REP       United States Representative, Dist 19                   Jason Corley                          Precinct 7                                             01 
01060080004000005000000000003000002000000000000REP       United States Representative, Dist 19                   Jason Corley                          Precinct 8                                             01 
01060080005000008000000000001000007000000000000REP       United States Representative, Dist 19                   Jason Corley                          Precinct 9                                             01 
01060080006000006000001000002000003000000000000REP       United States Representative, Dist 19                   Jason Corley                          Precinct 10                                            01 
01060080007000002000000000001000001000000000000REP       United States Representative, Dist 19                   Jason Corley                          Precinct 11                                            01 
01060080008000007000000000003000004000000000000REP       United States Representative, Dist 19                   Jason Corley                          Precinct 12                                            01 
01060080009000002000000000001000001000000000000REP       United States Representative, Dist 19                   Jason Corley                          Precinct 13                                            01 
01060080010000000000000000000000000000000000000REP       United States Representative, Dist 19                   Jason Corley                          Precinct 14                                            01 
01060080011000013000000000007000006000000000000REP       United States Representative, Dist 19                   Jason Corley                          Precinct 15                                            01 
01060090001000000000000000000000000000000000000REP       United States Representative, Dist 19                   Don Parrish                           Precinct 5                                             01 
01060090002000001000000000000000001000000000000REP       United States Representative, Dist 19                   Don Parrish                           Precinct 6                                             01 
01060090003000009000000000004000005000000000000REP       United States Representative, Dist 19                   Don Parrish                           Precinct 7                                             01 
01060090004000005000000000002000003000000000000REP       United States Representative, Dist 19                   Don Parrish                           Precinct 8                                             01 
01060090005000006000000000002000004000000000000REP       United States Representative, Dist 19                   Don Parrish                           Precinct 9                                             01 
01060090006000001000000000000000001000000000000REP       United States Representative, Dist 19                   Don Parrish                           Precinct 10                                            01 
01060090007000003000001000000000002000000000000REP       United States Representative, Dist 19                   Don Parrish                           Precinct 11                                            01 
01060090008000005000000000001000004000000000000REP       United States Representative, Dist 19                   Don Parrish                           Precinct 12                                            01 
01060090009000004000000000000000004000000000000REP       United States Representative, Dist 19                   Don Parrish                           Precinct 13                                            01 
01060090010000001000000000000000001000000000000REP       United States Representative, Dist 19                   Don Parrish                           Precinct 14                                            01 
01060090011000008000001000003000004000000000000REP       United States Representative, Dist 19                   Don Parrish                           Precinct 15                                            01 
01060100001000000000000000000000000000000000000REP       United States Representative, Dist 19                   OVER VOTES                            Precinct 5                                             01 
01060100002000000000000000000000000000000000000REP       United States Representative, Dist 19                   OVER VOTES                            Precinct 6                                             01 
01060100003000000000000000000000000000000000000REP       United States Representative, Dist 19                   OVER VOTES                            Precinct 7                                             01 
01060100004000000000000000000000000000000000000REP       United States Representative, Dist 19                   OVER VOTES                            Precinct 8                                             01 
01060100005000000000000000000000000000000000000REP       United States Representative, Dist 19                   OVER VOTES                            Precinct 9                                             01 
01060100006000000000000000000000000000000000000REP       United States Representative, Dist 19                   OVER VOTES                            Precinct 10                                            01 
01060100007000000000000000000000000000000000000REP       United States Representative, Dist 19                   OVER VOTES                            Precinct 11                                            01 
01060100008000000000000000000000000000000000000REP       United States Representative, Dist 19                   OVER VOTES                            Precinct 12                                            01 
01060100009000000000000000000000000000000000000REP       United States Representative, Dist 19                   OVER VOTES                            Precinct 13                                            01 
01060100010000000000000000000000000000000000000REP       United States Representative, Dist 19                   OVER VOTES                            Precinct 14                                            01 
01060100011000000000000000000000000000000000000REP       United States Representative, Dist 19                   OVER VOTES                            Precinct 15                                            01 
01060110001000009000002000001000006000000000000REP       United States Representative, Dist 19                   UNDER VOTES                           Precinct 5                                             01 
01060110002000007000000000002000005000000000000REP       United States Representative, Dist 19                   UNDER VOTES                           Precinct 6                                             01 
01060110003000054000002000020000032000000000000REP       United States Representative, Dist 19                   UNDER VOTES                           Precinct 7                                             01 
01060110004000027000002000007000018000000000000REP       United States Representative, Dist 19                   UNDER VOTES                           Precinct 8                                             01 
01060110005000033000000000010000023000000000000REP       United States Representative, Dist 19                   UNDER VOTES                           Precinct 9                                             01 
01060110006000034000001000013000020000000000000REP       United States Representative, Dist 19                   UNDER VOTES                           Precinct 10                                            01 
01060110007000008000000000000000008000000000000REP       United States Representative, Dist 19                   UNDER VOTES                           Precinct 11                                            01 
01060110008000025000000000005000020000000000000REP       United States Representative, Dist 19                   UNDER VOTES                           Precinct 12                                            01 
01060110009000016000000000003000013000000000000REP       United States Representative, Dist 19                   UNDER VOTES                           Precinct 13                                            01 
01060110010000000000000000000000000000000000000REP       United States Representative, Dist 19                   UNDER VOTES                           Precinct 14                                            01 
01060110011000039000002000016000021000000000000REP       United States Representative, Dist 19                   UNDER VOTES                           Precinct 15                                            01 
01070010001000005000000000001000004000000000000REP       Railroad Commissioner                                   Lance N. Christian                    Precinct 5                                             01 
01070010002000013000000000004000009000000000000REP       Railroad Commissioner                                   Lance N. Christian                    Precinct 6                                             01 
01070010003000143000000000063000080000000000000REP       Railroad Commissioner                                   Lance N. Christian                    Precinct 7                                             01 
01070010004000046000003000014000029000000000000REP       Railroad Commissioner                                   Lance N. Christian                    Precinct 8                                             01 
01070010005000047000002000010000035000000000000REP       Railroad Commissioner                                   Lance N. Christian                    Precinct 9                                             01 
01070010006000083000005000039000039000000000000REP       Railroad Commissioner                                   Lance N. Christian                    Precinct 10                                            01 
01070010007000015000002000001000012000000000000REP       Railroad Commissioner                                   Lance N. Christian                    Precinct 11                                            01 
01070010008000068000000000023000045000000000000REP       Railroad Commissioner                                   Lance N. Christian                    Precinct 12                                            01 
01070010009000045000002000013000030000000000000REP       Railroad Commissioner                                   Lance N. Christian                    Precinct 13                                            01 
01070010010000012000001000004000007000000000000REP       Railroad Commissioner                                   Lance N. Christian                    Precinct 14                                            01 
01070010011000052000003000030000019000000000000REP       Railroad Commissioner                                   Lance N. Christian                    Precinct 15                                            01 
01070020001000009000002000004000003000000000000REP       Railroad Commissioner                                   Doug Jeffrey                          Precinct 5                                             01 
01070020002000014000000000004000010000000000000REP       Railroad Commissioner                                   Doug Jeffrey                          Precinct 6                                             01 
01070020003000092000003000034000055000000000000REP       Railroad Commissioner                                   Doug Jeffrey                          Precinct 7                                             01 
01070020004000035000001000014000020000000000000REP       Railroad Commissioner                                   Doug Jeffrey                          Precinct 8                                             01 
01070020005000031000000000008000023000000000000REP       Railroad Commissioner                                   Doug Jeffrey                          Precinct 9                                             01 
01070020006000055000001000022000032000000000000REP       Railroad Commissioner                                   Doug Jeffrey                          Precinct 10                                            01 
01070020007000011000003000001000007000000000000REP       Railroad Commissioner                                   Doug Jeffrey                          Precinct 11                                            01 
01070020008000035000000000010000025000000000000REP       Railroad Commissioner                                   Doug Jeffrey                          Precinct 12                                            01 
01070020009000022000000000004000018000000000000REP       Railroad Commissioner                                   Doug Jeffrey                          Precinct 13                                            01 
01070020010000004000000000000000004000000000000REP       Railroad Commissioner                                   Doug Jeffrey                          Precinct 14                                            01 
01070020011000032000002000012000018000000000000REP       Railroad Commissioner                                   Doug Jeffrey                          Precinct 15                                            01 
01070030001000001000000000000000001000000000000REP       Railroad Commissioner                                   Weston Martinez                       Precinct 5                                             01 
01070030002000001000000000000000001000000000000REP       Railroad Commissioner                                   Weston Martinez                       Precinct 6                                             01 
01070030003000036000002000012000022000000000000REP       Railroad Commissioner                                   Weston Martinez                       Precinct 7                                             01 
01070030004000022000001000005000016000000000000REP       Railroad Commissioner                                   Weston Martinez                       Precinct 8                                             01 
01070030005000009000000000004000005000000000000REP       Railroad Commissioner                                   Weston Martinez                       Precinct 9                                             01 
01070030006000030000001000008000021000000000000REP       Railroad Commissioner                                   Weston Martinez                       Precinct 10                                            01 
01070030007000003000000000002000001000000000000REP       Railroad Commissioner                                   Weston Martinez                       Precinct 11                                            01 
01070030008000026000000000007000019000000000000REP       Railroad Commissioner                                   Weston Martinez                       Precinct 12                                            01 
01070030009000008000002000002000004000000000000REP       Railroad Commissioner                                   Weston Martinez                       Precinct 13                                            01 
01070030010000002000000000001000001000000000000REP       Railroad Commissioner                                   Weston Martinez                       Precinct 14                                            01 
01070030011000030000002000012000016000000000000REP       Railroad Commissioner                                   Weston Martinez                       Precinct 15                                            01 
01070040001000002000000000001000001000000000000REP       Railroad Commissioner                                   John Greytok                          Precinct 5                                             01 
01070040002000002000000000001000001000000000000REP       Railroad Commissioner                                   John Greytok                          Precinct 6                                             01 
01070040003000028000000000015000013000000000000REP       Railroad Commissioner                                   John Greytok                          Precinct 7                                             01 
01070040004000009000000000005000004000000000000REP       Railroad Commissioner                                   John Greytok                          Precinct 8                                             01 
01070040005000009000000000002000007000000000000REP       Railroad Commissioner                                   John Greytok                          Precinct 9                                             01 
01070040006000013000003000004000006000000000000REP       Railroad Commissioner                                   John Greytok                          Precinct 10                                            01 
01070040007000004000000000001000003000000000000REP       Railroad Commissioner                                   John Greytok                          Precinct 11                                            01 
01070040008000010000000000003000007000000000000REP       Railroad Commissioner                                   John Greytok                          Precinct 12                                            01 
01070040009000005000000000000000005000000000000REP       Railroad Commissioner                                   John Greytok                          Precinct 13                                            01 
01070040010000001000000000000000001000000000000REP       Railroad Commissioner                                   John Greytok                          Precinct 14                                            01 
01070040011000008000000000001000007000000000000REP       Railroad Commissioner                                   John Greytok                          Precinct 15                                            01 
01070050001000007000000000001000006000000000000REP       Railroad Commissioner                                   Gary Gates                            Precinct 5                                             01 
01070050002000019000000000012000007000000000000REP       Railroad Commissioner                                   Gary Gates                            Precinct 6                                             01 
01070050003000124000008000071000045000000000000REP       Railroad Commissioner                                   Gary Gates                            Precinct 7                                             01 
01070050004000051000003000025000023000000000000REP       Railroad Commissioner                                   Gary Gates                            Precinct 8                                             01 
01070050005000024000002000007000015000000000000REP       Railroad Commissioner                                   Gary Gates                            Precinct 9                                             01 
01070050006000088000006000041000041000000000000REP       Railroad Commissioner                                   Gary Gates                            Precinct 10                                            01 
01070050007000004000000000000000004000000000000REP       Railroad Commissioner                                   Gary Gates                            Precinct 11                                            01 
01070050008000051000005000017000029000000000000REP       Railroad Commissioner                                   Gary Gates                            Precinct 12                                            01 
01070050009000019000001000007000011000000000000REP       Railroad Commissioner                                   Gary Gates                            Precinct 13                                            01 
01070050010000009000001000004000004000000000000REP       Railroad Commissioner                                   Gary Gates                            Precinct 14                                            01 
01070050011000035000005000016000014000000000000REP       Railroad Commissioner                                   Gary Gates                            Precinct 15                                            01 
01070060001000011000003000001000007000000000000REP       Railroad Commissioner                                   Wayne Christian                       Precinct 5                                             01 
01070060002000006000000000001000005000000000000REP       Railroad Commissioner                                   Wayne Christian                       Precinct 6                                             01 
01070060003000068000002000034000032000000000000REP       Railroad Commissioner                                   Wayne Christian                       Precinct 7                                             01 
01070060004000023000001000013000009000000000000REP       Railroad Commissioner                                   Wayne Christian                       Precinct 8                                             01 
01070060005000012000000000004000008000000000000REP       Railroad Commissioner                                   Wayne Christian                       Precinct 9                                             01 
01070060006000054000001000024000029000000000000REP       Railroad Commissioner                                   Wayne Christian                       Precinct 10                                            01 
01070060007000006000000000000000006000000000000REP       Railroad Commissioner                                   Wayne Christian                       Precinct 11                                            01 
01070060008000030000000000012000018000000000000REP       Railroad Commissioner                                   Wayne Christian                       Precinct 12                                            01 
01070060009000012000000000001000011000000000000REP       Railroad Commissioner                                   Wayne Christian                       Precinct 13                                            01 
01070060010000007000000000005000002000000000000REP       Railroad Commissioner                                   Wayne Christian                       Precinct 14                                            01 
01070060011000025000000000009000016000000000000REP       Railroad Commissioner                                   Wayne Christian                       Precinct 15                                            01 
01070070001000004000000000001000003000000000000REP       Railroad Commissioner                                   Ron Hale                              Precinct 5                                             01 
01070070002000008000002000002000004000000000000REP       Railroad Commissioner                                   Ron Hale                              Precinct 6                                             01 
01070070003000083000003000031000049000000000000REP       Railroad Commissioner                                   Ron Hale                              Precinct 7                                             01 
01070070004000031000000000011000020000000000000REP       Railroad Commissioner                                   Ron Hale                              Precinct 8                                             01 
01070070005000031000000000009000022000000000000REP       Railroad Commissioner                                   Ron Hale                              Precinct 9                                             01 
01070070006000073000001000026000046000000000000REP       Railroad Commissioner                                   Ron Hale                              Precinct 10                                            01 
01070070007000005000000000001000004000000000000REP       Railroad Commissioner                                   Ron Hale                              Precinct 11                                            01 
01070070008000040000003000016000021000000000000REP       Railroad Commissioner                                   Ron Hale                              Precinct 12                                            01 
01070070009000014000000000001000013000000000000REP       Railroad Commissioner                                   Ron Hale                              Precinct 13                                            01 
01070070010000007000000000003000004000000000000REP       Railroad Commissioner                                   Ron Hale                              Precinct 14                                            01 
01070070011000041000000000018000023000000000000REP       Railroad Commissioner                                   Ron Hale                              Precinct 15                                            01 
01070080001000000000000000000000000000000000000REP       Railroad Commissioner                                   OVER VOTES                            Precinct 5                                             01 
01070080002000000000000000000000000000000000000REP       Railroad Commissioner                                   OVER VOTES                            Precinct 6                                             01 
01070080003000000000000000000000000000000000000REP       Railroad Commissioner                                   OVER VOTES                            Precinct 7                                             01 
01070080004000000000000000000000000000000000000REP       Railroad Commissioner                                   OVER VOTES                            Precinct 8                                             01 
01070080005000000000000000000000000000000000000REP       Railroad Commissioner                                   OVER VOTES                            Precinct 9                                             01 
01070080006000000000000000000000000000000000000REP       Railroad Commissioner                                   OVER VOTES                            Precinct 10                                            01 
01070080007000000000000000000000000000000000000REP       Railroad Commissioner                                   OVER VOTES                            Precinct 11                                            01 
01070080008000000000000000000000000000000000000REP       Railroad Commissioner                                   OVER VOTES                            Precinct 12                                            01 
01070080009000000000000000000000000000000000000REP       Railroad Commissioner                                   OVER VOTES                            Precinct 13                                            01 
01070080010000000000000000000000000000000000000REP       Railroad Commissioner                                   OVER VOTES                            Precinct 14                                            01 
01070080011000000000000000000000000000000000000REP       Railroad Commissioner                                   OVER VOTES                            Precinct 15                                            01 
01070090001000018000000000004000014000000000000REP       Railroad Commissioner                                   UNDER VOTES                           Precinct 5                                             01 
01070090002000031000004000008000019000000000000REP       Railroad Commissioner                                   UNDER VOTES                           Precinct 6                                             01 
01070090003000163000004000065000094000000000000REP       Railroad Commissioner                                   UNDER VOTES                           Precinct 7                                             01 
01070090004000062000001000024000037000000000000REP       Railroad Commissioner                                   UNDER VOTES                           Precinct 8                                             01 
01070090005000051000000000012000039000000000000REP       Railroad Commissioner                                   UNDER VOTES                           Precinct 9                                             01 
01070090006000109000004000045000060000000000000REP       Railroad Commissioner                                   UNDER VOTES                           Precinct 10                                            01 
01070090007000019000000000001000018000000000000REP       Railroad Commissioner                                   UNDER VOTES                           Precinct 11                                            01 
01070090008000085000000000028000057000000000000REP       Railroad Commissioner                                   UNDER VOTES                           Precinct 12                                            01 
01070090009000047000003000006000038000000000000REP       Railroad Commissioner                                   UNDER VOTES                           Precinct 13                                            01 
01070090010000010000000000003000007000000000000REP       Railroad Commissioner                                   UNDER VOTES                           Precinct 14                                            01 
01070090011000100000006000034000060000000000000REP       Railroad Commissioner                                   UNDER VOTES                           Precinct 15                                            01 
01080010001000034000004000009000021000000000000REP       Justice, Supreme Court, Place 3                         Michael Massengale                    Precinct 5                                             01 
01080010002000039000001000011000027000000000000REP       Justice, Supreme Court, Place 3                         Michael Massengale                    Precinct 6                                             01 
01080010003000326000010000135000181000000000000REP       Justice, Supreme Court, Place 3                         Michael Massengale                    Precinct 7                                             01 
01080010004000130000004000047000079000000000000REP       Justice, Supreme Court, Place 3                         Michael Massengale                    Precinct 8                                             01 
01080010005000098000004000026000068000000000000REP       Justice, Supreme Court, Place 3                         Michael Massengale                    Precinct 9                                             01 
01080010006000238000015000102000121000000000000REP       Justice, Supreme Court, Place 3                         Michael Massengale                    Precinct 10                                            01 
01080010007000038000005000006000027000000000000REP       Justice, Supreme Court, Place 3                         Michael Massengale                    Precinct 11                                            01 
01080010008000169000004000065000100000000000000REP       Justice, Supreme Court, Place 3                         Michael Massengale                    Precinct 12                                            01 
01080010009000077000000000018000059000000000000REP       Justice, Supreme Court, Place 3                         Michael Massengale                    Precinct 13                                            01 
01080010010000026000000000011000015000000000000REP       Justice, Supreme Court, Place 3                         Michael Massengale                    Precinct 14                                            01 
01080010011000147000010000059000078000000000000REP       Justice, Supreme Court, Place 3                         Michael Massengale                    Precinct 15                                            01 
01080020001000010000001000002000007000000000000REP       Justice, Supreme Court, Place 3                         Debra Lehrmann                        Precinct 5                                             01 
01080020002000029000003000012000014000000000000REP       Justice, Supreme Court, Place 3                         Debra Lehrmann                        Precinct 6                                             01 
01080020003000256000008000125000123000000000000REP       Justice, Supreme Court, Place 3                         Debra Lehrmann                        Precinct 7                                             01 
01080020004000093000003000041000049000000000000REP       Justice, Supreme Court, Place 3                         Debra Lehrmann                        Precinct 8                                             01 
01080020005000071000000000018000053000000000000REP       Justice, Supreme Court, Place 3                         Debra Lehrmann                        Precinct 9                                             01 
01080020006000170000005000067000098000000000000REP       Justice, Supreme Court, Place 3                         Debra Lehrmann                        Precinct 10                                            01 
01080020007000013000000000000000013000000000000REP       Justice, Supreme Court, Place 3                         Debra Lehrmann                        Precinct 11                                            01 
01080020008000103000004000031000068000000000000REP       Justice, Supreme Court, Place 3                         Debra Lehrmann                        Precinct 12                                            01 
01080020009000050000005000009000036000000000000REP       Justice, Supreme Court, Place 3                         Debra Lehrmann                        Precinct 13                                            01 
01080020010000018000002000006000010000000000000REP       Justice, Supreme Court, Place 3                         Debra Lehrmann                        Precinct 14                                            01 
01080020011000075000001000034000040000000000000REP       Justice, Supreme Court, Place 3                         Debra Lehrmann                        Precinct 15                                            01 
01080030001000000000000000000000000000000000000REP       Justice, Supreme Court, Place 3                         OVER VOTES                            Precinct 5                                             01 
01080030002000000000000000000000000000000000000REP       Justice, Supreme Court, Place 3                         OVER VOTES                            Precinct 6                                             01 
01080030003000000000000000000000000000000000000REP       Justice, Supreme Court, Place 3                         OVER VOTES                            Precinct 7                                             01 
01080030004000000000000000000000000000000000000REP       Justice, Supreme Court, Place 3                         OVER VOTES                            Precinct 8                                             01 
01080030005000000000000000000000000000000000000REP       Justice, Supreme Court, Place 3                         OVER VOTES                            Precinct 9                                             01 
01080030006000000000000000000000000000000000000REP       Justice, Supreme Court, Place 3                         OVER VOTES                            Precinct 10                                            01 
01080030007000000000000000000000000000000000000REP       Justice, Supreme Court, Place 3                         OVER VOTES                            Precinct 11                                            01 
01080030008000000000000000000000000000000000000REP       Justice, Supreme Court, Place 3                         OVER VOTES                            Precinct 12                                            01 
01080030009000000000000000000000000000000000000REP       Justice, Supreme Court, Place 3                         OVER VOTES                            Precinct 13                                            01 
01080030010000000000000000000000000000000000000REP       Justice, Supreme Court, Place 3                         OVER VOTES                            Precinct 14                                            01 
01080030011000000000000000000000000000000000000REP       Justice, Supreme Court, Place 3                         OVER VOTES                            Precinct 15                                            01 
