01050010001000000REP       President                                               Carly Fiorina                         PRECINCT 1                                             01 
01050010002000000REP       President                                               Carly Fiorina                         PRECINCT 2                                             01 
01050010003000000REP       President                                               Carly Fiorina                         PRECINCT 3                                             01 
01050010004000000REP       President                                               Carly Fiorina                         PRECINCT 4                                             01 
01050010005000000REP       President                                               Carly Fiorina                         PRECINCT 6                                             01 
01050010006000000REP       President                                               Carly Fiorina                         PRECINCT 7                                             01 
01050010007000000REP       President                                               Carly Fiorina                         PRECINCT 9                                             01 
01050010008000000REP       President                                               Carly Fiorina                         PRECINCT 11                                            01 
01050020001000032REP       President                                               Donald J. Trump                       PRECINCT 1                                             01 
01050020002000063REP       President                                               Donald J. Trump                       PRECINCT 2                                             01 
01050020003000045REP       President                                               Donald J. Trump                       PRECINCT 3                                             01 
01050020004000016REP       President                                               Donald J. Trump                       PRECINCT 4                                             01 
01050020005000018REP       President                                               Donald J. Trump                       PRECINCT 6                                             01 
01050020006000038REP       President                                               Donald J. Trump                       PRECINCT 7                                             01 
01050020007000003REP       President                                               Donald J. Trump                       PRECINCT 9                                             01 
01050020008000016REP       President                                               Donald J. Trump                       PRECINCT 11                                            01 
01050030001000000REP       President                                               Elizabeth Gray                        PRECINCT 1                                             01 
01050030002000000REP       President                                               Elizabeth Gray                        PRECINCT 2                                             01 
01050030003000000REP       President                                               Elizabeth Gray                        PRECINCT 3                                             01 
01050030004000000REP       President                                               Elizabeth Gray                        PRECINCT 4                                             01 
01050030005000000REP       President                                               Elizabeth Gray                        PRECINCT 6                                             01 
01050030006000000REP       President                                               Elizabeth Gray                        PRECINCT 7                                             01 
01050030007000000REP       President                                               Elizabeth Gray                        PRECINCT 9                                             01 
01050030008000000REP       President                                               Elizabeth Gray                        PRECINCT 11                                            01 
01050040001000000REP       President                                               Rick Santorum                         PRECINCT 1                                             01 
01050040002000000REP       President                                               Rick Santorum                         PRECINCT 2                                             01 
01050040003000001REP       President                                               Rick Santorum                         PRECINCT 3                                             01 
01050040004000000REP       President                                               Rick Santorum                         PRECINCT 4                                             01 
01050040005000000REP       President                                               Rick Santorum                         PRECINCT 6                                             01 
01050040006000000REP       President                                               Rick Santorum                         PRECINCT 7                                             01 
01050040007000000REP       President                                               Rick Santorum                         PRECINCT 9                                             01 
01050040008000000REP       President                                               Rick Santorum                         PRECINCT 11                                            01 
01050050001000000REP       President                                               Mike Huckabee                         PRECINCT 1                                             01 
01050050002000001REP       President                                               Mike Huckabee                         PRECINCT 2                                             01 
01050050003000001REP       President                                               Mike Huckabee                         PRECINCT 3                                             01 
01050050004000001REP       President                                               Mike Huckabee                         PRECINCT 4                                             01 
01050050005000000REP       President                                               Mike Huckabee                         PRECINCT 6                                             01 
01050050006000000REP       President                                               Mike Huckabee                         PRECINCT 7                                             01 
01050050007000000REP       President                                               Mike Huckabee                         PRECINCT 9                                             01 
01050050008000001REP       President                                               Mike Huckabee                         PRECINCT 11                                            01 
01050060001000000REP       President                                               Jeb Bush                              PRECINCT 1                                             01 
01050060002000002REP       President                                               Jeb Bush                              PRECINCT 2                                             01 
01050060003000004REP       President                                               Jeb Bush                              PRECINCT 3                                             01 
01050060004000001REP       President                                               Jeb Bush                              PRECINCT 4                                             01 
01050060005000002REP       President                                               Jeb Bush                              PRECINCT 6                                             01 
01050060006000002REP       President                                               Jeb Bush                              PRECINCT 7                                             01 
01050060007000000REP       President                                               Jeb Bush                              PRECINCT 9                                             01 
01050060008000001REP       President                                               Jeb Bush                              PRECINCT 11                                            01 
01050070001000005REP       President                                               Ben Carson                            PRECINCT 1                                             01 
01050070002000016REP       President                                               Ben Carson                            PRECINCT 2                                             01 
01050070003000016REP       President                                               Ben Carson                            PRECINCT 3                                             01 
01050070004000005REP       President                                               Ben Carson                            PRECINCT 4                                             01 
01050070005000011REP       President                                               Ben Carson                            PRECINCT 6                                             01 
01050070006000019REP       President                                               Ben Carson                            PRECINCT 7                                             01 
01050070007000001REP       President                                               Ben Carson                            PRECINCT 9                                             01 
01050070008000012REP       President                                               Ben Carson                            PRECINCT 11                                            01 
01050080001000061REP       President                                               Ted Cruz                              PRECINCT 1                                             01 
01050080002000099REP       President                                               Ted Cruz                              PRECINCT 2                                             01 
01050080003000104REP       President                                               Ted Cruz                              PRECINCT 3                                             01 
01050080004000025REP       President                                               Ted Cruz                              PRECINCT 4                                             01 
01050080005000042REP       President                                               Ted Cruz                              PRECINCT 6                                             01 
01050080006000066REP       President                                               Ted Cruz                              PRECINCT 7                                             01 
01050080007000004REP       President                                               Ted Cruz                              PRECINCT 9                                             01 
01050080008000041REP       President                                               Ted Cruz                              PRECINCT 11                                            01 
01050090001000004REP       President                                               John R. Kasich                        PRECINCT 1                                             01 
01050090002000000REP       President                                               John R. Kasich                        PRECINCT 2                                             01 
01050090003000007REP       President                                               John R. Kasich                        PRECINCT 3                                             01 
01050090004000002REP       President                                               John R. Kasich                        PRECINCT 4                                             01 
01050090005000000REP       President                                               John R. Kasich                        PRECINCT 6                                             01 
01050090006000004REP       President                                               John R. Kasich                        PRECINCT 7                                             01 
01050090007000000REP       President                                               John R. Kasich                        PRECINCT 9                                             01 
01050090008000004REP       President                                               John R. Kasich                        PRECINCT 11                                            01 
01050100001000000REP       President                                               Rand Paul                             PRECINCT 1                                             01 
01050100002000000REP       President                                               Rand Paul                             PRECINCT 2                                             01 
01050100003000000REP       President                                               Rand Paul                             PRECINCT 3                                             01 
01050100004000000REP       President                                               Rand Paul                             PRECINCT 4                                             01 
01050100005000000REP       President                                               Rand Paul                             PRECINCT 6                                             01 
01050100006000000REP       President                                               Rand Paul                             PRECINCT 7                                             01 
01050100007000000REP       President                                               Rand Paul                             PRECINCT 9                                             01 
01050100008000000REP       President                                               Rand Paul                             PRECINCT 11                                            01 
01050110001000000REP       President                                               Lindsey Graham                        PRECINCT 1                                             01 
01050110002000000REP       President                                               Lindsey Graham                        PRECINCT 2                                             01 
01050110003000001REP       President                                               Lindsey Graham                        PRECINCT 3                                             01 
01050110004000000REP       President                                               Lindsey Graham                        PRECINCT 4                                             01 
01050110005000000REP       President                                               Lindsey Graham                        PRECINCT 6                                             01 
01050110006000000REP       President                                               Lindsey Graham                        PRECINCT 7                                             01 
01050110007000000REP       President                                               Lindsey Graham                        PRECINCT 9                                             01 
01050110008000000REP       President                                               Lindsey Graham                        PRECINCT 11                                            01 
01050120001000000REP       President                                               Chris Christie                        PRECINCT 1                                             01 
01050120002000000REP       President                                               Chris Christie                        PRECINCT 2                                             01 
01050120003000001REP       President                                               Chris Christie                        PRECINCT 3                                             01 
01050120004000000REP       President                                               Chris Christie                        PRECINCT 4                                             01 
01050120005000000REP       President                                               Chris Christie                        PRECINCT 6                                             01 
01050120006000001REP       President                                               Chris Christie                        PRECINCT 7                                             01 
01050120007000000REP       President                                               Chris Christie                        PRECINCT 9                                             01 
01050120008000000REP       President                                               Chris Christie                        PRECINCT 11                                            01 
01050130001000021REP       President                                               Marco Rubio                           PRECINCT 1                                             01 
01050130002000020REP       President                                               Marco Rubio                           PRECINCT 2                                             01 
01050130003000024REP       President                                               Marco Rubio                           PRECINCT 3                                             01 
01050130004000005REP       President                                               Marco Rubio                           PRECINCT 4                                             01 
01050130005000010REP       President                                               Marco Rubio                           PRECINCT 6                                             01 
01050130006000011REP       President                                               Marco Rubio                           PRECINCT 7                                             01 
01050130007000000REP       President                                               Marco Rubio                           PRECINCT 9                                             01 
01050130008000006REP       President                                               Marco Rubio                           PRECINCT 11                                            01 
01050140001000001REP       President                                               Uncommitted                           PRECINCT 1                                             01 
01050140002000002REP       President                                               Uncommitted                           PRECINCT 2                                             01 
01050140003000011REP       President                                               Uncommitted                           PRECINCT 3                                             01 
01050140004000000REP       President                                               Uncommitted                           PRECINCT 4                                             01 
01050140005000000REP       President                                               Uncommitted                           PRECINCT 6                                             01 
01050140006000000REP       President                                               Uncommitted                           PRECINCT 7                                             01 
01050140007000000REP       President                                               Uncommitted                           PRECINCT 9                                             01 
01050140008000001REP       President                                               Uncommitted                           PRECINCT 11                                            01 
01050150001000000REP       President                                               OVER VOTES                            PRECINCT 1                                             01 
01050150002000000REP       President                                               OVER VOTES                            PRECINCT 2                                             01 
01050150003000001REP       President                                               OVER VOTES                            PRECINCT 3                                             01 
01050150004000000REP       President                                               OVER VOTES                            PRECINCT 4                                             01 
01050150005000000REP       President                                               OVER VOTES                            PRECINCT 6                                             01 
01050150006000000REP       President                                               OVER VOTES                            PRECINCT 7                                             01 
01050150007000000REP       President                                               OVER VOTES                            PRECINCT 9                                             01 
01050150008000000REP       President                                               OVER VOTES                            PRECINCT 11                                            01 
01050160001000000REP       President                                               UNDER VOTES                           PRECINCT 1                                             01 
01050160002000000REP       President                                               UNDER VOTES                           PRECINCT 2                                             01 
01050160003000001REP       President                                               UNDER VOTES                           PRECINCT 3                                             01 
01050160004000000REP       President                                               UNDER VOTES                           PRECINCT 4                                             01 
01050160005000000REP       President                                               UNDER VOTES                           PRECINCT 6                                             01 
01050160006000001REP       President                                               UNDER VOTES                           PRECINCT 7                                             01 
01050160007000000REP       President                                               UNDER VOTES                           PRECINCT 9                                             01 
01050160008000000REP       President                                               UNDER VOTES                           PRECINCT 11                                            01 
01060010001000099REP       United States Rep, District 13                          Mac Thornberry                        PRECINCT 1                                             01 
01060010002000174REP       United States Rep, District 13                          Mac Thornberry                        PRECINCT 2                                             01 
01060010003000184REP       United States Rep, District 13                          Mac Thornberry                        PRECINCT 3                                             01 
01060010004000047REP       United States Rep, District 13                          Mac Thornberry                        PRECINCT 4                                             01 
01060010005000069REP       United States Rep, District 13                          Mac Thornberry                        PRECINCT 6                                             01 
01060010006000113REP       United States Rep, District 13                          Mac Thornberry                        PRECINCT 7                                             01 
01060010007000008REP       United States Rep, District 13                          Mac Thornberry                        PRECINCT 9                                             01 
01060010008000068REP       United States Rep, District 13                          Mac Thornberry                        PRECINCT 11                                            01 
01060020001000000REP       United States Rep, District 13                          OVER VOTES                            PRECINCT 1                                             01 
01060020002000000REP       United States Rep, District 13                          OVER VOTES                            PRECINCT 2                                             01 
01060020003000000REP       United States Rep, District 13                          OVER VOTES                            PRECINCT 3                                             01 
01060020004000000REP       United States Rep, District 13                          OVER VOTES                            PRECINCT 4                                             01 
01060020005000000REP       United States Rep, District 13                          OVER VOTES                            PRECINCT 6                                             01 
01060020006000000REP       United States Rep, District 13                          OVER VOTES                            PRECINCT 7                                             01 
01060020007000000REP       United States Rep, District 13                          OVER VOTES                            PRECINCT 9                                             01 
01060020008000000REP       United States Rep, District 13                          OVER VOTES                            PRECINCT 11                                            01 
01060030001000025REP       United States Rep, District 13                          UNDER VOTES                           PRECINCT 1                                             01 
01060030002000029REP       United States Rep, District 13                          UNDER VOTES                           PRECINCT 2                                             01 
01060030003000033REP       United States Rep, District 13                          UNDER VOTES                           PRECINCT 3                                             01 
01060030004000008REP       United States Rep, District 13                          UNDER VOTES                           PRECINCT 4                                             01 
01060030005000014REP       United States Rep, District 13                          UNDER VOTES                           PRECINCT 6                                             01 
01060030006000029REP       United States Rep, District 13                          UNDER VOTES                           PRECINCT 7                                             01 
01060030007000000REP       United States Rep, District 13                          UNDER VOTES                           PRECINCT 9                                             01 
01060030008000014REP       United States Rep, District 13                          UNDER VOTES                           PRECINCT 11                                            01 
01070010001000030REP       Railroad Commissioner                                   Wayne Christian                       PRECINCT 1                                             01 
01070010002000038REP       Railroad Commissioner                                   Wayne Christian                       PRECINCT 2                                             01 
01070010003000047REP       Railroad Commissioner                                   Wayne Christian                       PRECINCT 3                                             01 
01070010004000010REP       Railroad Commissioner                                   Wayne Christian                       PRECINCT 4                                             01 
01070010005000020REP       Railroad Commissioner                                   Wayne Christian                       PRECINCT 6                                             01 
01070010006000026REP       Railroad Commissioner                                   Wayne Christian                       PRECINCT 7                                             01 
01070010007000003REP       Railroad Commissioner                                   Wayne Christian                       PRECINCT 9                                             01 
01070010008000015REP       Railroad Commissioner                                   Wayne Christian                       PRECINCT 11                                            01 
01070020001000011REP       Railroad Commissioner                                   Lance N. Christian                    PRECINCT 1                                             01 
01070020002000013REP       Railroad Commissioner                                   Lance N. Christian                    PRECINCT 2                                             01 
01070020003000014REP       Railroad Commissioner                                   Lance N. Christian                    PRECINCT 3                                             01 
01070020004000007REP       Railroad Commissioner                                   Lance N. Christian                    PRECINCT 4                                             01 
01070020005000004REP       Railroad Commissioner                                   Lance N. Christian                    PRECINCT 6                                             01 
01070020006000011REP       Railroad Commissioner                                   Lance N. Christian                    PRECINCT 7                                             01 
01070020007000001REP       Railroad Commissioner                                   Lance N. Christian                    PRECINCT 9                                             01 
01070020008000007REP       Railroad Commissioner                                   Lance N. Christian                    PRECINCT 11                                            01 
01070030001000016REP       Railroad Commissioner                                   Gary Gates                            PRECINCT 1                                             01 
01070030002000043REP       Railroad Commissioner                                   Gary Gates                            PRECINCT 2                                             01 
01070030003000036REP       Railroad Commissioner                                   Gary Gates                            PRECINCT 3                                             01 
01070030004000011REP       Railroad Commissioner                                   Gary Gates                            PRECINCT 4                                             01 
01070030005000013REP       Railroad Commissioner                                   Gary Gates                            PRECINCT 6                                             01 
01070030006000015REP       Railroad Commissioner                                   Gary Gates                            PRECINCT 7                                             01 
01070030007000000REP       Railroad Commissioner                                   Gary Gates                            PRECINCT 9                                             01 
01070030008000013REP       Railroad Commissioner                                   Gary Gates                            PRECINCT 11                                            01 
01070040001000019REP       Railroad Commissioner                                   Ron Hale                              PRECINCT 1                                             01 
01070040002000030REP       Railroad Commissioner                                   Ron Hale                              PRECINCT 2                                             01 
01070040003000034REP       Railroad Commissioner                                   Ron Hale                              PRECINCT 3                                             01 
01070040004000009REP       Railroad Commissioner                                   Ron Hale                              PRECINCT 4                                             01 
01070040005000012REP       Railroad Commissioner                                   Ron Hale                              PRECINCT 6                                             01 
01070040006000027REP       Railroad Commissioner                                   Ron Hale                              PRECINCT 7                                             01 
01070040007000000REP       Railroad Commissioner                                   Ron Hale                              PRECINCT 9                                             01 
01070040008000013REP       Railroad Commissioner                                   Ron Hale                              PRECINCT 11                                            01 
01070050001000004REP       Railroad Commissioner                                   Doug Jeffrey                          PRECINCT 1                                             01 
01070050002000010REP       Railroad Commissioner                                   Doug Jeffrey                          PRECINCT 2                                             01 
01070050003000012REP       Railroad Commissioner                                   Doug Jeffrey                          PRECINCT 3                                             01 
01070050004000001REP       Railroad Commissioner                                   Doug Jeffrey                          PRECINCT 4                                             01 
01070050005000005REP       Railroad Commissioner                                   Doug Jeffrey                          PRECINCT 6                                             01 
01070050006000010REP       Railroad Commissioner                                   Doug Jeffrey                          PRECINCT 7                                             01 
01070050007000000REP       Railroad Commissioner                                   Doug Jeffrey                          PRECINCT 9                                             01 
01070050008000004REP       Railroad Commissioner                                   Doug Jeffrey                          PRECINCT 11                                            01 
01070060001000000REP       Railroad Commissioner                                   John Greytok                          PRECINCT 1                                             01 
01070060002000003REP       Railroad Commissioner                                   John Greytok                          PRECINCT 2                                             01 
01070060003000006REP       Railroad Commissioner                                   John Greytok                          PRECINCT 3                                             01 
01070060004000002REP       Railroad Commissioner                                   John Greytok                          PRECINCT 4                                             01 
01070060005000001REP       Railroad Commissioner                                   John Greytok                          PRECINCT 6                                             01 
01070060006000001REP       Railroad Commissioner                                   John Greytok                          PRECINCT 7                                             01 
01070060007000002REP       Railroad Commissioner                                   John Greytok                          PRECINCT 9                                             01 
01070060008000001REP       Railroad Commissioner                                   John Greytok                          PRECINCT 11                                            01 
01070070001000006REP       Railroad Commissioner                                   Weston Martinez                       PRECINCT 1                                             01 
01070070002000011REP       Railroad Commissioner                                   Weston Martinez                       PRECINCT 2                                             01 
01070070003000006REP       Railroad Commissioner                                   Weston Martinez                       PRECINCT 3                                             01 
01070070004000005REP       Railroad Commissioner                                   Weston Martinez                       PRECINCT 4                                             01 
01070070005000008REP       Railroad Commissioner                                   Weston Martinez                       PRECINCT 6                                             01 
01070070006000008REP       Railroad Commissioner                                   Weston Martinez                       PRECINCT 7                                             01 
01070070007000000REP       Railroad Commissioner                                   Weston Martinez                       PRECINCT 9                                             01 
01070070008000005REP       Railroad Commissioner                                   Weston Martinez                       PRECINCT 11                                            01 
01070080001000000REP       Railroad Commissioner                                   OVER VOTES                            PRECINCT 1                                             01 
01070080002000000REP       Railroad Commissioner                                   OVER VOTES                            PRECINCT 2                                             01 
01070080003000000REP       Railroad Commissioner                                   OVER VOTES                            PRECINCT 3                                             01 
01070080004000000REP       Railroad Commissioner                                   OVER VOTES                            PRECINCT 4                                             01 
01070080005000000REP       Railroad Commissioner                                   OVER VOTES                            PRECINCT 6                                             01 
01070080006000000REP       Railroad Commissioner                                   OVER VOTES                            PRECINCT 7                                             01 
01070080007000000REP       Railroad Commissioner                                   OVER VOTES                            PRECINCT 9                                             01 
01070080008000000REP       Railroad Commissioner                                   OVER VOTES                            PRECINCT 11                                            01 
01070090001000038REP       Railroad Commissioner                                   UNDER VOTES                           PRECINCT 1                                             01 
01070090002000055REP       Railroad Commissioner                                   UNDER VOTES                           PRECINCT 2                                             01 
01070090003000062REP       Railroad Commissioner                                   UNDER VOTES                           PRECINCT 3                                             01 
01070090004000010REP       Railroad Commissioner                                   UNDER VOTES                           PRECINCT 4                                             01 
01070090005000020REP       Railroad Commissioner                                   UNDER VOTES                           PRECINCT 6                                             01 
01070090006000044REP       Railroad Commissioner                                   UNDER VOTES                           PRECINCT 7                                             01 
01070090007000002REP       Railroad Commissioner                                   UNDER VOTES                           PRECINCT 9                                             01 
01070090008000024REP       Railroad Commissioner                                   UNDER VOTES                           PRECINCT 11                                            01 
01080010001000051REP       Justice, Supreme Court, Place 3                         Michael Massengale                    PRECINCT 1                                             01 
01080010002000087REP       Justice, Supreme Court, Place 3                         Michael Massengale                    PRECINCT 2                                             01 
01080010003000083REP       Justice, Supreme Court, Place 3                         Michael Massengale                    PRECINCT 3                                             01 
01080010004000029REP       Justice, Supreme Court, Place 3                         Michael Massengale                    PRECINCT 4                                             01 
01080010005000045REP       Justice, Supreme Court, Place 3                         Michael Massengale                    PRECINCT 6                                             01 
01080010006000051REP       Justice, Supreme Court, Place 3                         Michael Massengale                    PRECINCT 7                                             01 
01080010007000002REP       Justice, Supreme Court, Place 3                         Michael Massengale                    PRECINCT 9                                             01 
01080010008000029REP       Justice, Supreme Court, Place 3                         Michael Massengale                    PRECINCT 11                                            01 
01080020001000040REP       Justice, Supreme Court, Place 3                         Debra Lehrmann                        PRECINCT 1                                             01 
01080020002000065REP       Justice, Supreme Court, Place 3                         Debra Lehrmann                        PRECINCT 2                                             01 
01080020003000084REP       Justice, Supreme Court, Place 3                         Debra Lehrmann                        PRECINCT 3                                             01 
01080020004000016REP       Justice, Supreme Court, Place 3                         Debra Lehrmann                        PRECINCT 4                                             01 
01080020005000018REP       Justice, Supreme Court, Place 3                         Debra Lehrmann                        PRECINCT 6                                             01 
01080020006000054REP       Justice, Supreme Court, Place 3                         Debra Lehrmann                        PRECINCT 7                                             01 
01080020007000005REP       Justice, Supreme Court, Place 3                         Debra Lehrmann                        PRECINCT 9                                             01 
01080020008000035REP       Justice, Supreme Court, Place 3                         Debra Lehrmann                        PRECINCT 11                                            01 
01080030001000000REP       Justice, Supreme Court, Place 3                         OVER VOTES                            PRECINCT 1                                             01 
01080030002000000REP       Justice, Supreme Court, Place 3                         OVER VOTES                            PRECINCT 2                                             01 
01080030003000000REP       Justice, Supreme Court, Place 3                         OVER VOTES                            PRECINCT 3                                             01 
01080030004000000REP       Justice, Supreme Court, Place 3                         OVER VOTES                            PRECINCT 4                                             01 
01080030005000000REP       Justice, Supreme Court, Place 3                         OVER VOTES                            PRECINCT 6                                             01 
01080030006000000REP       Justice, Supreme Court, Place 3                         OVER VOTES                            PRECINCT 7                                             01 
01080030007000000REP       Justice, Supreme Court, Place 3                         OVER VOTES                            PRECINCT 9                                             01 
01080030008000000REP       Justice, Supreme Court, Place 3                         OVER VOTES                            PRECINCT 11                                            01 
01080040001000033REP       Justice, Supreme Court, Place 3                         UNDER VOTES                           PRECINCT 1                                             01 
01080040002000051REP       Justice, Supreme Court, Place 3                         UNDER VOTES                           PRECINCT 2                                             01 
01080040003000050REP       Justice, Supreme Court, Place 3                         UNDER VOTES                           PRECINCT 3                                             01 
01080040004000010REP       Justice, Supreme Court, Place 3                         UNDER VOTES                           PRECINCT 4                                             01 
01080040005000020REP       Justice, Supreme Court, Place 3                         UNDER VOTES                           PRECINCT 6                                             01 
01080040006000037REP       Justice, Supreme Court, Place 3                         UNDER VOTES                           PRECINCT 7                                             01 
01080040007000001REP       Justice, Supreme Court, Place 3                         UNDER VOTES                           PRECINCT 9                                             01 
01080040008000018REP       Justice, Supreme Court, Place 3                         UNDER VOTES                           PRECINCT 11                                            01 
01090010001000051REP       Justice, Supreme Court, Place 5                         Paul Green                            PRECINCT 1                                             01 
01090010002000099REP       Justice, Supreme Court, Place 5                         Paul Green                            PRECINCT 2                                             01 
01090010003000104REP       Justice, Supreme Court, Place 5                         Paul Green                            PRECINCT 3                                             01 
01090010004000025REP       Justice, Supreme Court, Place 5                         Paul Green                            PRECINCT 4                                             01 
01090010005000037REP       Justice, Supreme Court, Place 5                         Paul Green                            PRECINCT 6                                             01 
01090010006000055REP       Justice, Supreme Court, Place 5                         Paul Green                            PRECINCT 7                                             01 
01090010007000004REP       Justice, Supreme Court, Place 5                         Paul Green                            PRECINCT 9                                             01 
01090010008000033REP       Justice, Supreme Court, Place 5                         Paul Green                            PRECINCT 11                                            01 
01090020001000038REP       Justice, Supreme Court, Place 5                         Rick Green                            PRECINCT 1                                             01 
01090020002000050REP       Justice, Supreme Court, Place 5                         Rick Green                            PRECINCT 2                                             01 
01090020003000056REP       Justice, Supreme Court, Place 5                         Rick Green                            PRECINCT 3                                             01 
01090020004000016REP       Justice, Supreme Court, Place 5                         Rick Green                            PRECINCT 4                                             01 
01090020005000025REP       Justice, Supreme Court, Place 5                         Rick Green                            PRECINCT 6                                             01 
01090020006000042REP       Justice, Supreme Court, Place 5                         Rick Green                            PRECINCT 7                                             01 
01090020007000002REP       Justice, Supreme Court, Place 5                         Rick Green                            PRECINCT 9                                             01 
01090020008000026REP       Justice, Supreme Court, Place 5                         Rick Green                            PRECINCT 11                                            01 
01090030001000000REP       Justice, Supreme Court, Place 5                         OVER VOTES                            PRECINCT 1                                             01 
01090030002000000REP       Justice, Supreme Court, Place 5                         OVER VOTES                            PRECINCT 2                                             01 
01090030003000000REP       Justice, Supreme Court, Place 5                         OVER VOTES                            PRECINCT 3                                             01 
01090030004000000REP       Justice, Supreme Court, Place 5                         OVER VOTES                            PRECINCT 4                                             01 
01090030005000000REP       Justice, Supreme Court, Place 5                         OVER VOTES                            PRECINCT 6                                             01 
01090030006000000REP       Justice, Supreme Court, Place 5                         OVER VOTES                            PRECINCT 7                                             01 
01090030007000000REP       Justice, Supreme Court, Place 5                         OVER VOTES                            PRECINCT 9                                             01 
01090030008000000REP       Justice, Supreme Court, Place 5                         OVER VOTES                            PRECINCT 11                                            01 
01090040001000035REP       Justice, Supreme Court, Place 5                         UNDER VOTES                           PRECINCT 1                                             01 
01090040002000054REP       Justice, Supreme Court, Place 5                         UNDER VOTES                           PRECINCT 2                                             01 
01090040003000057REP       Justice, Supreme Court, Place 5                         UNDER VOTES                           PRECINCT 3                                             01 
01090040004000014REP       Justice, Supreme Court, Place 5                         UNDER VOTES                           PRECINCT 4                                             01 
01090040005000021REP       Justice, Supreme Court, Place 5                         UNDER VOTES                           PRECINCT 6                                             01 
01090040006000045REP       Justice, Supreme Court, Place 5                         UNDER VOTES                           PRECINCT 7                                             01 
01090040007000002REP       Justice, Supreme Court, Place 5                         UNDER VOTES                           PRECINCT 9                                             01 
01090040008000023REP       Justice, Supreme Court, Place 5                         UNDER VOTES                           PRECINCT 11                                            01 
01100010001000060REP       Justice, Supreme Court, Place 9                         Joe Pool                              PRECINCT 1                                             01 
01100010002000100REP       Justice, Supreme Court, Place 9                         Joe Pool                              PRECINCT 2                                             01 
01100010003000108REP       Justice, Supreme Court, Place 9                         Joe Pool                              PRECINCT 3                                             01 
01100010004000026REP       Justice, Supreme Court, Place 9                         Joe Pool                              PRECINCT 4                                             01 
01100010005000040REP       Justice, Supreme Court, Place 9                         Joe Pool                              PRECINCT 6                                             01 
01100010006000070REP       Justice, Supreme Court, Place 9                         Joe Pool                              PRECINCT 7                                             01 
01100010007000004REP       Justice, Supreme Court, Place 9                         Joe Pool                              PRECINCT 9                                             01 
01100010008000041REP       Justice, Supreme Court, Place 9                         Joe Pool                              PRECINCT 11                                            01 
01100020001000027REP       Justice, Supreme Court, Place 9                         Eva Guzman                            PRECINCT 1                                             01 
01100020002000051REP       Justice, Supreme Court, Place 9                         Eva Guzman                            PRECINCT 2                                             01 
01100020003000055REP       Justice, Supreme Court, Place 9                         Eva Guzman                            PRECINCT 3                                             01 
01100020004000018REP       Justice, Supreme Court, Place 9                         Eva Guzman                            PRECINCT 4                                             01 
01100020005000028REP       Justice, Supreme Court, Place 9                         Eva Guzman                            PRECINCT 6                                             01 
01100020006000033REP       Justice, Supreme Court, Place 9                         Eva Guzman                            PRECINCT 7                                             01 
01100020007000002REP       Justice, Supreme Court, Place 9                         Eva Guzman                            PRECINCT 9                                             01 
01100020008000020REP       Justice, Supreme Court, Place 9                         Eva Guzman                            PRECINCT 11                                            01 
01100030001000000REP       Justice, Supreme Court, Place 9                         OVER VOTES                            PRECINCT 1                                             01 
01100030002000000REP       Justice, Supreme Court, Place 9                         OVER VOTES                            PRECINCT 2                                             01 
01100030003000000REP       Justice, Supreme Court, Place 9                         OVER VOTES                            PRECINCT 3                                             01 
01100030004000000REP       Justice, Supreme Court, Place 9                         OVER VOTES                            PRECINCT 4                                             01 
01100030005000000REP       Justice, Supreme Court, Place 9                         OVER VOTES                            PRECINCT 6                                             01 
01100030006000000REP       Justice, Supreme Court, Place 9                         OVER VOTES                            PRECINCT 7                                             01 
01100030007000000REP       Justice, Supreme Court, Place 9                         OVER VOTES                            PRECINCT 9                                             01 
01100030008000000REP       Justice, Supreme Court, Place 9                         OVER VOTES                            PRECINCT 11                                            01 
01100040001000037REP       Justice, Supreme Court, Place 9                         UNDER VOTES                           PRECINCT 1                                             01 
01100040002000052REP       Justice, Supreme Court, Place 9                         UNDER VOTES                           PRECINCT 2                                             01 
01100040003000054REP       Justice, Supreme Court, Place 9                         UNDER VOTES                           PRECINCT 3                                             01 
01100040004000011REP       Justice, Supreme Court, Place 9                         UNDER VOTES                           PRECINCT 4                                             01 
01100040005000015REP       Justice, Supreme Court, Place 9                         UNDER VOTES                           PRECINCT 6                                             01 
01100040006000039REP       Justice, Supreme Court, Place 9                         UNDER VOTES                           PRECINCT 7                                             01 
01100040007000002REP       Justice, Supreme Court, Place 9                         UNDER VOTES                           PRECINCT 9                                             01 
01100040008000021REP       Justice, Supreme Court, Place 9                         UNDER VOTES                           PRECINCT 11                                            01 
01110010001000037REP       Judge, Court of Crim Appeals, Place 2                   Mary Lou Keel                         PRECINCT 1                                             01 
01110010002000068REP       Judge, Court of Crim Appeals, Place 2                   Mary Lou Keel                         PRECINCT 2                                             01 
01110010003000084REP       Judge, Court of Crim Appeals, Place 2                   Mary Lou Keel                         PRECINCT 3                                             01 
01110010004000019REP       Judge, Court of Crim Appeals, Place 2                   Mary Lou Keel                         PRECINCT 4                                             01 
01110010005000036REP       Judge, Court of Crim Appeals, Place 2                   Mary Lou Keel                         PRECINCT 6                                             01 
01110010006000041REP       Judge, Court of Crim Appeals, Place 2                   Mary Lou Keel                         PRECINCT 7                                             01 
01110010007000002REP       Judge, Court of Crim Appeals, Place 2                   Mary Lou Keel                         PRECINCT 9                                             01 
01110010008000030REP       Judge, Court of Crim Appeals, Place 2                   Mary Lou Keel                         PRECINCT 11                                            01 
01110020001000025REP       Judge, Court of Crim Appeals, Place 2                   Ray Wheless                           PRECINCT 1                                             01 
01110020002000044REP       Judge, Court of Crim Appeals, Place 2                   Ray Wheless                           PRECINCT 2                                             01 
01110020003000031REP       Judge, Court of Crim Appeals, Place 2                   Ray Wheless                           PRECINCT 3                                             01 
01110020004000016REP       Judge, Court of Crim Appeals, Place 2                   Ray Wheless                           PRECINCT 4                                             01 
01110020005000014REP       Judge, Court of Crim Appeals, Place 2                   Ray Wheless                           PRECINCT 6                                             01 
01110020006000021REP       Judge, Court of Crim Appeals, Place 2                   Ray Wheless                           PRECINCT 7                                             01 
01110020007000004REP       Judge, Court of Crim Appeals, Place 2                   Ray Wheless                           PRECINCT 9                                             01 
01110020008000009REP       Judge, Court of Crim Appeals, Place 2                   Ray Wheless                           PRECINCT 11                                            01 
01110030001000022REP       Judge, Court of Crim Appeals, Place 2                   Chris Oldner                          PRECINCT 1                                             01 
01110030002000033REP       Judge, Court of Crim Appeals, Place 2                   Chris Oldner                          PRECINCT 2                                             01 
01110030003000039REP       Judge, Court of Crim Appeals, Place 2                   Chris Oldner                          PRECINCT 3                                             01 
01110030004000007REP       Judge, Court of Crim Appeals, Place 2                   Chris Oldner                          PRECINCT 4                                             01 
01110030005000014REP       Judge, Court of Crim Appeals, Place 2                   Chris Oldner                          PRECINCT 6                                             01 
01110030006000032REP       Judge, Court of Crim Appeals, Place 2                   Chris Oldner                          PRECINCT 7                                             01 
01110030007000000REP       Judge, Court of Crim Appeals, Place 2                   Chris Oldner                          PRECINCT 9                                             01 
01110030008000020REP       Judge, Court of Crim Appeals, Place 2                   Chris Oldner                          PRECINCT 11                                            01 
01110040001000000REP       Judge, Court of Crim Appeals, Place 2                   OVER VOTES                            PRECINCT 1                                             01 
01110040002000000REP       Judge, Court of Crim Appeals, Place 2                   OVER VOTES                            PRECINCT 2                                             01 
01110040003000000REP       Judge, Court of Crim Appeals, Place 2                   OVER VOTES                            PRECINCT 3                                             01 
01110040004000000REP       Judge, Court of Crim Appeals, Place 2                   OVER VOTES                            PRECINCT 4                                             01 
01110040005000000REP       Judge, Court of Crim Appeals, Place 2                   OVER VOTES                            PRECINCT 6                                             01 
01110040006000000REP       Judge, Court of Crim Appeals, Place 2                   OVER VOTES                            PRECINCT 7                                             01 
01110040007000000REP       Judge, Court of Crim Appeals, Place 2                   OVER VOTES                            PRECINCT 9                                             01 
01110040008000000REP       Judge, Court of Crim Appeals, Place 2                   OVER VOTES                            PRECINCT 11                                            01 
01110050001000040REP       Judge, Court of Crim Appeals, Place 2                   UNDER VOTES                           PRECINCT 1                                             01 
01110050002000058REP       Judge, Court of Crim Appeals, Place 2                   UNDER VOTES                           PRECINCT 2                                             01 
01110050003000063REP       Judge, Court of Crim Appeals, Place 2                   UNDER VOTES                           PRECINCT 3                                             01 
01110050004000013REP       Judge, Court of Crim Appeals, Place 2                   UNDER VOTES                           PRECINCT 4                                             01 
01110050005000019REP       Judge, Court of Crim Appeals, Place 2                   UNDER VOTES                           PRECINCT 6                                             01 
01110050006000048REP       Judge, Court of Crim Appeals, Place 2                   UNDER VOTES                           PRECINCT 7                                             01 
01110050007000002REP       Judge, Court of Crim Appeals, Place 2                   UNDER VOTES                           PRECINCT 9                                             01 
01110050008000023REP       Judge, Court of Crim Appeals, Place 2                   UNDER VOTES                           PRECINCT 11                                            01 
01120010001000049REP       Judge, Court of Crim Appeals, Place 5                   Scott Walker                          PRECINCT 1                                             01 
01120010002000078REP       Judge, Court of Crim Appeals, Place 5                   Scott Walker                          PRECINCT 2                                             01 
01120010003000084REP       Judge, Court of Crim Appeals, Place 5                   Scott Walker                          PRECINCT 3                                             01 
01120010004000030REP       Judge, Court of Crim Appeals, Place 5                   Scott Walker                          PRECINCT 4                                             01 
01120010005000040REP       Judge, Court of Crim Appeals, Place 5                   Scott Walker                          PRECINCT 6                                             01 
01120010006000047REP       Judge, Court of Crim Appeals, Place 5                   Scott Walker                          PRECINCT 7                                             01 
01120010007000003REP       Judge, Court of Crim Appeals, Place 5                   Scott Walker                          PRECINCT 9                                             01 
01120010008000032REP       Judge, Court of Crim Appeals, Place 5                   Scott Walker                          PRECINCT 11                                            01 
01120020001000013REP       Judge, Court of Crim Appeals, Place 5                   Brent Webster                         PRECINCT 1                                             01 
01120020002000028REP       Judge, Court of Crim Appeals, Place 5                   Brent Webster                         PRECINCT 2                                             01 
01120020003000019REP       Judge, Court of Crim Appeals, Place 5                   Brent Webster                         PRECINCT 3                                             01 
01120020004000005REP       Judge, Court of Crim Appeals, Place 5                   Brent Webster                         PRECINCT 4                                             01 
01120020005000010REP       Judge, Court of Crim Appeals, Place 5                   Brent Webster                         PRECINCT 6                                             01 
01120020006000021REP       Judge, Court of Crim Appeals, Place 5                   Brent Webster                         PRECINCT 7                                             01 
01120020007000000REP       Judge, Court of Crim Appeals, Place 5                   Brent Webster                         PRECINCT 9                                             01 
01120020008000012REP       Judge, Court of Crim Appeals, Place 5                   Brent Webster                         PRECINCT 11                                            01 
01120030001000015REP       Judge, Court of Crim Appeals, Place 5                   Steve Smith                           PRECINCT 1                                             01 
01120030002000028REP       Judge, Court of Crim Appeals, Place 5                   Steve Smith                           PRECINCT 2                                             01 
01120030003000031REP       Judge, Court of Crim Appeals, Place 5                   Steve Smith                           PRECINCT 3                                             01 
01120030004000010REP       Judge, Court of Crim Appeals, Place 5                   Steve Smith                           PRECINCT 4                                             01 
01120030005000008REP       Judge, Court of Crim Appeals, Place 5                   Steve Smith                           PRECINCT 6                                             01 
01120030006000019REP       Judge, Court of Crim Appeals, Place 5                   Steve Smith                           PRECINCT 7                                             01 
01120030007000003REP       Judge, Court of Crim Appeals, Place 5                   Steve Smith                           PRECINCT 9                                             01 
01120030008000014REP       Judge, Court of Crim Appeals, Place 5                   Steve Smith                           PRECINCT 11                                            01 
01120040001000007REP       Judge, Court of Crim Appeals, Place 5                   Sid Harle                             PRECINCT 1                                             01 
01120040002000012REP       Judge, Court of Crim Appeals, Place 5                   Sid Harle                             PRECINCT 2                                             01 
01120040003000020REP       Judge, Court of Crim Appeals, Place 5                   Sid Harle                             PRECINCT 3                                             01 
01120040004000001REP       Judge, Court of Crim Appeals, Place 5                   Sid Harle                             PRECINCT 4                                             01 
01120040005000003REP       Judge, Court of Crim Appeals, Place 5                   Sid Harle                             PRECINCT 6                                             01 
01120040006000007REP       Judge, Court of Crim Appeals, Place 5                   Sid Harle                             PRECINCT 7                                             01 
01120040007000000REP       Judge, Court of Crim Appeals, Place 5                   Sid Harle                             PRECINCT 9                                             01 
01120040008000001REP       Judge, Court of Crim Appeals, Place 5                   Sid Harle                             PRECINCT 11                                            01 
01120050001000000REP       Judge, Court of Crim Appeals, Place 5                   OVER VOTES                            PRECINCT 1                                             01 
01120050002000000REP       Judge, Court of Crim Appeals, Place 5                   OVER VOTES                            PRECINCT 2                                             01 
01120050003000000REP       Judge, Court of Crim Appeals, Place 5                   OVER VOTES                            PRECINCT 3                                             01 
01120050004000000REP       Judge, Court of Crim Appeals, Place 5                   OVER VOTES                            PRECINCT 4                                             01 
01120050005000000REP       Judge, Court of Crim Appeals, Place 5                   OVER VOTES                            PRECINCT 6                                             01 
01120050006000000REP       Judge, Court of Crim Appeals, Place 5                   OVER VOTES                            PRECINCT 7                                             01 
01120050007000000REP       Judge, Court of Crim Appeals, Place 5                   OVER VOTES                            PRECINCT 9                                             01 
01120050008000000REP       Judge, Court of Crim Appeals, Place 5                   OVER VOTES                            PRECINCT 11                                            01 
01120060001000040REP       Judge, Court of Crim Appeals, Place 5                   UNDER VOTES                           PRECINCT 1                                             01 
01120060002000057REP       Judge, Court of Crim Appeals, Place 5                   UNDER VOTES                           PRECINCT 2                                             01 
01120060003000063REP       Judge, Court of Crim Appeals, Place 5                   UNDER VOTES                           PRECINCT 3                                             01 
01120060004000009REP       Judge, Court of Crim Appeals, Place 5                   UNDER VOTES                           PRECINCT 4                                             01 
01120060005000022REP       Judge, Court of Crim Appeals, Place 5                   UNDER VOTES                           PRECINCT 6                                             01 
01120060006000048REP       Judge, Court of Crim Appeals, Place 5                   UNDER VOTES                           PRECINCT 7                                             01 
01120060007000002REP       Judge, Court of Crim Appeals, Place 5                   UNDER VOTES                           PRECINCT 9                                             01 
01120060008000023REP       Judge, Court of Crim Appeals, Place 5                   UNDER VOTES                           PRECINCT 11                                            01 
01130010001000049REP       Judge, Court of Crim Appeals, Place 6                   Richard Davis                         PRECINCT 1                                             01 
01130010002000097REP       Judge, Court of Crim Appeals, Place 6                   Richard Davis                         PRECINCT 2                                             01 
01130010003000096REP       Judge, Court of Crim Appeals, Place 6                   Richard Davis                         PRECINCT 3                                             01 
01130010004000028REP       Judge, Court of Crim Appeals, Place 6                   Richard Davis                         PRECINCT 4                                             01 
01130010005000039REP       Judge, Court of Crim Appeals, Place 6                   Richard Davis                         PRECINCT 6                                             01 
01130010006000050REP       Judge, Court of Crim Appeals, Place 6                   Richard Davis                         PRECINCT 7                                             01 
01130010007000004REP       Judge, Court of Crim Appeals, Place 6                   Richard Davis                         PRECINCT 9                                             01 
01130010008000031REP       Judge, Court of Crim Appeals, Place 6                   Richard Davis                         PRECINCT 11                                            01 
01130020001000036REP       Judge, Court of Crim Appeals, Place 6                   Michael E. Keasler                    PRECINCT 1                                             01 
01130020002000045REP       Judge, Court of Crim Appeals, Place 6                   Michael E. Keasler                    PRECINCT 2                                             01 
01130020003000060REP       Judge, Court of Crim Appeals, Place 6                   Michael E. Keasler                    PRECINCT 3                                             01 
01130020004000013REP       Judge, Court of Crim Appeals, Place 6                   Michael E. Keasler                    PRECINCT 4                                             01 
01130020005000021REP       Judge, Court of Crim Appeals, Place 6                   Michael E. Keasler                    PRECINCT 6                                             01 
01130020006000042REP       Judge, Court of Crim Appeals, Place 6                   Michael E. Keasler                    PRECINCT 7                                             01 
01130020007000002REP       Judge, Court of Crim Appeals, Place 6                   Michael E. Keasler                    PRECINCT 9                                             01 
01130020008000026REP       Judge, Court of Crim Appeals, Place 6                   Michael E. Keasler                    PRECINCT 11                                            01 
01130030001000000REP       Judge, Court of Crim Appeals, Place 6                   OVER VOTES                            PRECINCT 1                                             01 
01130030002000000REP       Judge, Court of Crim Appeals, Place 6                   OVER VOTES                            PRECINCT 2                                             01 
01130030003000000REP       Judge, Court of Crim Appeals, Place 6                   OVER VOTES                            PRECINCT 3                                             01 
01130030004000000REP       Judge, Court of Crim Appeals, Place 6                   OVER VOTES                            PRECINCT 4                                             01 
01130030005000000REP       Judge, Court of Crim Appeals, Place 6                   OVER VOTES                            PRECINCT 6                                             01 
01130030006000000REP       Judge, Court of Crim Appeals, Place 6                   OVER VOTES                            PRECINCT 7                                             01 
01130030007000000REP       Judge, Court of Crim Appeals, Place 6                   OVER VOTES                            PRECINCT 9                                             01 
01130030008000000REP       Judge, Court of Crim Appeals, Place 6                   OVER VOTES                            PRECINCT 11                                            01 
01130040001000039REP       Judge, Court of Crim Appeals, Place 6                   UNDER VOTES                           PRECINCT 1                                             01 
01130040002000061REP       Judge, Court of Crim Appeals, Place 6                   UNDER VOTES                           PRECINCT 2                                             01 
01130040003000061REP       Judge, Court of Crim Appeals, Place 6                   UNDER VOTES                           PRECINCT 3                                             01 
01130040004000014REP       Judge, Court of Crim Appeals, Place 6                   UNDER VOTES                           PRECINCT 4                                             01 
01130040005000023REP       Judge, Court of Crim Appeals, Place 6                   UNDER VOTES                           PRECINCT 6                                             01 
01130040006000050REP       Judge, Court of Crim Appeals, Place 6                   UNDER VOTES                           PRECINCT 7                                             01 
01130040007000002REP       Judge, Court of Crim Appeals, Place 6                   UNDER VOTES                           PRECINCT 9                                             01 
01130040008000025REP       Judge, Court of Crim Appeals, Place 6                   UNDER VOTES                           PRECINCT 11                                            01 
01140010001000082REP       State Board of Education Dist 15                        Marty Rowley                          PRECINCT 1                                             01 
01140010002000142REP       State Board of Education Dist 15                        Marty Rowley                          PRECINCT 2                                             01 
01140010003000149REP       State Board of Education Dist 15                        Marty Rowley                          PRECINCT 3                                             01 
01140010004000040REP       State Board of Education Dist 15                        Marty Rowley                          PRECINCT 4                                             01 
01140010005000064REP       State Board of Education Dist 15                        Marty Rowley                          PRECINCT 6                                             01 
01140010006000085REP       State Board of Education Dist 15                        Marty Rowley                          PRECINCT 7                                             01 
01140010007000006REP       State Board of Education Dist 15                        Marty Rowley                          PRECINCT 9                                             01 
01140010008000055REP       State Board of Education Dist 15                        Marty Rowley                          PRECINCT 11                                            01 
01140020001000000REP       State Board of Education Dist 15                        OVER VOTES                            PRECINCT 1                                             01 
01140020002000000REP       State Board of Education Dist 15                        OVER VOTES                            PRECINCT 2                                             01 
01140020003000000REP       State Board of Education Dist 15                        OVER VOTES                            PRECINCT 3                                             01 
01140020004000000REP       State Board of Education Dist 15                        OVER VOTES                            PRECINCT 4                                             01 
01140020005000000REP       State Board of Education Dist 15                        OVER VOTES                            PRECINCT 6                                             01 
01140020006000000REP       State Board of Education Dist 15                        OVER VOTES                            PRECINCT 7                                             01 
01140020007000000REP       State Board of Education Dist 15                        OVER VOTES                            PRECINCT 9                                             01 
01140020008000000REP       State Board of Education Dist 15                        OVER VOTES                            PRECINCT 11                                            01 
01140030001000042REP       State Board of Education Dist 15                        UNDER VOTES                           PRECINCT 1                                             01 
01140030002000061REP       State Board of Education Dist 15                        UNDER VOTES                           PRECINCT 2                                             01 
01140030003000068REP       State Board of Education Dist 15                        UNDER VOTES                           PRECINCT 3                                             01 
01140030004000015REP       State Board of Education Dist 15                        UNDER VOTES                           PRECINCT 4                                             01 
01140030005000019REP       State Board of Education Dist 15                        UNDER VOTES                           PRECINCT 6                                             01 
01140030006000057REP       State Board of Education Dist 15                        UNDER VOTES                           PRECINCT 7                                             01 
01140030007000002REP       State Board of Education Dist 15                        UNDER VOTES                           PRECINCT 9                                             01 
01140030008000027REP       State Board of Education Dist 15                        UNDER VOTES                           PRECINCT 11                                            01 
01150010001000089REP       State Representative District 88                        Ken King                              PRECINCT 1                                             01 
01150010002000154REP       State Representative District 88                        Ken King                              PRECINCT 2                                             01 
01150010003000163REP       State Representative District 88                        Ken King                              PRECINCT 3                                             01 
01150010004000042REP       State Representative District 88                        Ken King                              PRECINCT 4                                             01 
01150010005000066REP       State Representative District 88                        Ken King                              PRECINCT 6                                             01 
01150010006000094REP       State Representative District 88                        Ken King                              PRECINCT 7                                             01 
01150010007000007REP       State Representative District 88                        Ken King                              PRECINCT 9                                             01 
01150010008000063REP       State Representative District 88                        Ken King                              PRECINCT 11                                            01 
01150020001000000REP       State Representative District 88                        OVER VOTES                            PRECINCT 1                                             01 
01150020002000000REP       State Representative District 88                        OVER VOTES                            PRECINCT 2                                             01 
01150020003000000REP       State Representative District 88                        OVER VOTES                            PRECINCT 3                                             01 
01150020004000000REP       State Representative District 88                        OVER VOTES                            PRECINCT 4                                             01 
01150020005000000REP       State Representative District 88                        OVER VOTES                            PRECINCT 6                                             01 
01150020006000000REP       State Representative District 88                        OVER VOTES                            PRECINCT 7                                             01 
01150020007000000REP       State Representative District 88                        OVER VOTES                            PRECINCT 9                                             01 
01150020008000000REP       State Representative District 88                        OVER VOTES                            PRECINCT 11                                            01 
01150030001000035REP       State Representative District 88                        UNDER VOTES                           PRECINCT 1                                             01 
01150030002000049REP       State Representative District 88                        UNDER VOTES                           PRECINCT 2                                             01 
01150030003000054REP       State Representative District 88                        UNDER VOTES                           PRECINCT 3                                             01 
01150030004000013REP       State Representative District 88                        UNDER VOTES                           PRECINCT 4                                             01 
01150030005000017REP       State Representative District 88                        UNDER VOTES                           PRECINCT 6                                             01 
01150030006000048REP       State Representative District 88                        UNDER VOTES                           PRECINCT 7                                             01 
01150030007000001REP       State Representative District 88                        UNDER VOTES                           PRECINCT 9                                             01 
01150030008000019REP       State Representative District 88                        UNDER VOTES                           PRECINCT 11                                            01 
01160010001000079REP       Justice 7th CT of APS P4                                Jim Campbell                          PRECINCT 1                                             01 
01160010002000144REP       Justice 7th CT of APS P4                                Jim Campbell                          PRECINCT 2                                             01 
01160010003000150REP       Justice 7th CT of APS P4                                Jim Campbell                          PRECINCT 3                                             01 
01160010004000040REP       Justice 7th CT of APS P4                                Jim Campbell                          PRECINCT 4                                             01 
01160010005000065REP       Justice 7th CT of APS P4                                Jim Campbell                          PRECINCT 6                                             01 
01160010006000086REP       Justice 7th CT of APS P4                                Jim Campbell                          PRECINCT 7                                             01 
01160010007000006REP       Justice 7th CT of APS P4                                Jim Campbell                          PRECINCT 9                                             01 
01160010008000055REP       Justice 7th CT of APS P4                                Jim Campbell                          PRECINCT 11                                            01 
01160020001000000REP       Justice 7th CT of APS P4                                OVER VOTES                            PRECINCT 1                                             01 
01160020002000000REP       Justice 7th CT of APS P4                                OVER VOTES                            PRECINCT 2                                             01 
01160020003000000REP       Justice 7th CT of APS P4                                OVER VOTES                            PRECINCT 3                                             01 
01160020004000000REP       Justice 7th CT of APS P4                                OVER VOTES                            PRECINCT 4                                             01 
01160020005000000REP       Justice 7th CT of APS P4                                OVER VOTES                            PRECINCT 6                                             01 
01160020006000000REP       Justice 7th CT of APS P4                                OVER VOTES                            PRECINCT 7                                             01 
01160020007000000REP       Justice 7th CT of APS P4                                OVER VOTES                            PRECINCT 9                                             01 
01160020008000000REP       Justice 7th CT of APS P4                                OVER VOTES                            PRECINCT 11                                            01 
01160030001000045REP       Justice 7th CT of APS P4                                UNDER VOTES                           PRECINCT 1                                             01 
01160030002000059REP       Justice 7th CT of APS P4                                UNDER VOTES                           PRECINCT 2                                             01 
01160030003000067REP       Justice 7th CT of APS P4                                UNDER VOTES                           PRECINCT 3                                             01 
01160030004000015REP       Justice 7th CT of APS P4                                UNDER VOTES                           PRECINCT 4                                             01 
01160030005000018REP       Justice 7th CT of APS P4                                UNDER VOTES                           PRECINCT 6                                             01 
01160030006000056REP       Justice 7th CT of APS P4                                UNDER VOTES                           PRECINCT 7                                             01 
01160030007000002REP       Justice 7th CT of APS P4                                UNDER VOTES                           PRECINCT 9                                             01 
01160030008000027REP       Justice 7th CT of APS P4                                UNDER VOTES                           PRECINCT 11                                            01 
01310010001000070REP       Proposition 1                                           Yes                                   PRECINCT 1                                             01Y
01310010002000143REP       Proposition 1                                           Yes                                   PRECINCT 2                                             01Y
01310010003000131REP       Proposition 1                                           Yes                                   PRECINCT 3                                             01Y
01310010004000038REP       Proposition 1                                           Yes                                   PRECINCT 4                                             01Y
01310010005000046REP       Proposition 1                                           Yes                                   PRECINCT 6                                             01Y
01310010006000081REP       Proposition 1                                           Yes                                   PRECINCT 7                                             01Y
01310010007000007REP       Proposition 1                                           Yes                                   PRECINCT 9                                             01Y
01310010008000050REP       Proposition 1                                           Yes                                   PRECINCT 11                                            01Y
01310020001000038REP       Proposition 1                                           No                                    PRECINCT 1                                             01Y
01310020002000049REP       Proposition 1                                           No                                    PRECINCT 2                                             01Y
01310020003000064REP       Proposition 1                                           No                                    PRECINCT 3                                             01Y
01310020004000015REP       Proposition 1                                           No                                    PRECINCT 4                                             01Y
01310020005000028REP       Proposition 1                                           No                                    PRECINCT 6                                             01Y
01310020006000052REP       Proposition 1                                           No                                    PRECINCT 7                                             01Y
01310020007000001REP       Proposition 1                                           No                                    PRECINCT 9                                             01Y
01310020008000020REP       Proposition 1                                           No                                    PRECINCT 11                                            01Y
01310030001000000REP       Proposition 1                                           OVER VOTES                            PRECINCT 1                                             01Y
01310030002000000REP       Proposition 1                                           OVER VOTES                            PRECINCT 2                                             01Y
01310030003000000REP       Proposition 1                                           OVER VOTES                            PRECINCT 3                                             01Y
01310030004000000REP       Proposition 1                                           OVER VOTES                            PRECINCT 4                                             01Y
01310030005000000REP       Proposition 1                                           OVER VOTES                            PRECINCT 6                                             01Y
01310030006000000REP       Proposition 1                                           OVER VOTES                            PRECINCT 7                                             01Y
01310030007000000REP       Proposition 1                                           OVER VOTES                            PRECINCT 9                                             01Y
01310030008000000REP       Proposition 1                                           OVER VOTES                            PRECINCT 11                                            01Y
01310040001000016REP       Proposition 1                                           UNDER VOTES                           PRECINCT 1                                             01Y
01310040002000011REP       Proposition 1                                           UNDER VOTES                           PRECINCT 2                                             01Y
01310040003000022REP       Proposition 1                                           UNDER VOTES                           PRECINCT 3                                             01Y
01310040004000002REP       Proposition 1                                           UNDER VOTES                           PRECINCT 4                                             01Y
01310040005000009REP       Proposition 1                                           UNDER VOTES                           PRECINCT 6                                             01Y
01310040006000009REP       Proposition 1                                           UNDER VOTES                           PRECINCT 7                                             01Y
01310040007000000REP       Proposition 1                                           UNDER VOTES                           PRECINCT 9                                             01Y
01310040008000012REP       Proposition 1                                           UNDER VOTES                           PRECINCT 11                                            01Y
01320010001000060REP       Proposition 2                                           Yes                                   PRECINCT 1                                             01Y
01320010002000115REP       Proposition 2                                           Yes                                   PRECINCT 2                                             01Y
01320010003000114REP       Proposition 2                                           Yes                                   PRECINCT 3                                             01Y
01320010004000033REP       Proposition 2                                           Yes                                   PRECINCT 4                                             01Y
01320010005000043REP       Proposition 2                                           Yes                                   PRECINCT 6                                             01Y
01320010006000086REP       Proposition 2                                           Yes                                   PRECINCT 7                                             01Y
01320010007000004REP       Proposition 2                                           Yes                                   PRECINCT 9                                             01Y
01320010008000040REP       Proposition 2                                           Yes                                   PRECINCT 11                                            01Y
