01010010001000000          REGISTERED VOTERS - TOTAL                               REGISTERED VOTERS - TOTAL             PRECINCT 1                                             00 
01010010002000000          REGISTERED VOTERS - TOTAL                               REGISTERED VOTERS - TOTAL             PRECINCT 2                                             00 
01010010003000000          REGISTERED VOTERS - TOTAL                               REGISTERED VOTERS - TOTAL             PRECINCT 3                                             00 
01010010004000000          REGISTERED VOTERS - TOTAL                               REGISTERED VOTERS - TOTAL             PRECINCT 4                                             00 
01010010005000000          REGISTERED VOTERS - TOTAL                               REGISTERED VOTERS - TOTAL             PRECINCT 5                                             00 
01010010006000000          REGISTERED VOTERS - TOTAL                               REGISTERED VOTERS - TOTAL             PRECINCT 6                                             00 
01010010007000000          REGISTERED VOTERS - TOTAL                               REGISTERED VOTERS - TOTAL             PRECINCT 7                                             00 
01010010008000000          REGISTERED VOTERS - TOTAL                               REGISTERED VOTERS - TOTAL             PRECINCT 8                                             00 
01010010009000000          REGISTERED VOTERS - TOTAL                               REGISTERED VOTERS - TOTAL             PRECINCT 9                                             00 
01010010010000000          REGISTERED VOTERS - TOTAL                               REGISTERED VOTERS - TOTAL             PRECINCT 10                                            00 
01010010011000000          REGISTERED VOTERS - TOTAL                               REGISTERED VOTERS - TOTAL             PRECINCT 11                                            00 
01010010012000000          REGISTERED VOTERS - TOTAL                               REGISTERED VOTERS - TOTAL             PRECINCT 18                                            00 
01010010013000000          REGISTERED VOTERS - TOTAL                               REGISTERED VOTERS - TOTAL             PRECINCT 13                                            00 
01010010014000000          REGISTERED VOTERS - TOTAL                               REGISTERED VOTERS - TOTAL             PRECINCT 14                                            00 
01010010015000000          REGISTERED VOTERS - TOTAL                               REGISTERED VOTERS - TOTAL             PRECINCT 15                                            00 
01010010016000000          REGISTERED VOTERS - TOTAL                               REGISTERED VOTERS - TOTAL             PRECINCT 16                                            00 
01010010017000000          REGISTERED VOTERS - TOTAL                               REGISTERED VOTERS - TOTAL             PRECINCT 17                                            00 
01010010019000000          REGISTERED VOTERS - TOTAL                               REGISTERED VOTERS - TOTAL             JASPER COUNTY                                          00 
01020010001000446          BALLOTS CAST - TOTAL                                    BALLOTS CAST - TOTAL                  PRECINCT 1                                             00 
01020010002000528          BALLOTS CAST - TOTAL                                    BALLOTS CAST - TOTAL                  PRECINCT 2                                             00 
01020010003000818          BALLOTS CAST - TOTAL                                    BALLOTS CAST - TOTAL                  PRECINCT 3                                             00 
01020010004000748          BALLOTS CAST - TOTAL                                    BALLOTS CAST - TOTAL                  PRECINCT 4                                             00 
01020010005000129          BALLOTS CAST - TOTAL                                    BALLOTS CAST - TOTAL                  PRECINCT 5                                             00 
01020010006000304          BALLOTS CAST - TOTAL                                    BALLOTS CAST - TOTAL                  PRECINCT 6                                             00 
01020010007000405          BALLOTS CAST - TOTAL                                    BALLOTS CAST - TOTAL                  PRECINCT 7                                             00 
01020010008000159          BALLOTS CAST - TOTAL                                    BALLOTS CAST - TOTAL                  PRECINCT 8                                             00 
01020010009000268          BALLOTS CAST - TOTAL                                    BALLOTS CAST - TOTAL                  PRECINCT 9                                             00 
01020010010000809          BALLOTS CAST - TOTAL                                    BALLOTS CAST - TOTAL                  PRECINCT 10                                            00 
01020010011000076          BALLOTS CAST - TOTAL                                    BALLOTS CAST - TOTAL                  PRECINCT 11                                            00 
01020010012000843          BALLOTS CAST - TOTAL                                    BALLOTS CAST - TOTAL                  PRECINCT 18                                            00 
01020010013000378          BALLOTS CAST - TOTAL                                    BALLOTS CAST - TOTAL                  PRECINCT 13                                            00 
01020010014000989          BALLOTS CAST - TOTAL                                    BALLOTS CAST - TOTAL                  PRECINCT 14                                            00 
01020010015000565          BALLOTS CAST - TOTAL                                    BALLOTS CAST - TOTAL                  PRECINCT 15                                            00 
01020010016000355          BALLOTS CAST - TOTAL                                    BALLOTS CAST - TOTAL                  PRECINCT 16                                            00 
01020010017000269          BALLOTS CAST - TOTAL                                    BALLOTS CAST - TOTAL                  PRECINCT 17                                            00 
01020010018000000          BALLOTS CAST - TOTAL                                    BALLOTS CAST - TOTAL                  ANGELINA COUNTY                                        00 
01020010019000008          BALLOTS CAST - TOTAL                                    BALLOTS CAST - TOTAL                  JASPER COUNTY                                          00 
01020010020000000          BALLOTS CAST - TOTAL                                    BALLOTS CAST - TOTAL                  POLK COUNTY                                            00 
01030010001000179REP       Straight Party                                          Republican Party                      PRECINCT 1                                             01 
01030010002000174REP       Straight Party                                          Republican Party                      PRECINCT 2                                             01 
01030010003000349REP       Straight Party                                          Republican Party                      PRECINCT 3                                             01 
01030010004000380REP       Straight Party                                          Republican Party                      PRECINCT 4                                             01 
01030010005000035REP       Straight Party                                          Republican Party                      PRECINCT 5                                             01 
01030010006000161REP       Straight Party                                          Republican Party                      PRECINCT 6                                             01 
01030010007000206REP       Straight Party                                          Republican Party                      PRECINCT 7                                             01 
01030010008000084REP       Straight Party                                          Republican Party                      PRECINCT 8                                             01 
01030010009000154REP       Straight Party                                          Republican Party                      PRECINCT 9                                             01 
01030010010000373REP       Straight Party                                          Republican Party                      PRECINCT 10                                            01 
01030010011000036REP       Straight Party                                          Republican Party                      PRECINCT 11                                            01 
01030010012000337REP       Straight Party                                          Republican Party                      PRECINCT 18                                            01 
01030010013000178REP       Straight Party                                          Republican Party                      PRECINCT 13                                            01 
01030010014000379REP       Straight Party                                          Republican Party                      PRECINCT 14                                            01 
01030010015000288REP       Straight Party                                          Republican Party                      PRECINCT 15                                            01 
01030010016000192REP       Straight Party                                          Republican Party                      PRECINCT 16                                            01 
01030010017000085REP       Straight Party                                          Republican Party                      PRECINCT 17                                            01 
01030020001000037DEM       Straight Party                                          Democratic Party                      PRECINCT 1                                             01 
01030020002000135DEM       Straight Party                                          Democratic Party                      PRECINCT 2                                             01 
01030020003000122DEM       Straight Party                                          Democratic Party                      PRECINCT 3                                             01 
01030020004000054DEM       Straight Party                                          Democratic Party                      PRECINCT 4                                             01 
01030020005000038DEM       Straight Party                                          Democratic Party                      PRECINCT 5                                             01 
01030020006000018DEM       Straight Party                                          Democratic Party                      PRECINCT 6                                             01 
01030020007000015DEM       Straight Party                                          Democratic Party                      PRECINCT 7                                             01 
01030020008000008DEM       Straight Party                                          Democratic Party                      PRECINCT 8                                             01 
01030020009000014DEM       Straight Party                                          Democratic Party                      PRECINCT 9                                             01 
01030020010000047DEM       Straight Party                                          Democratic Party                      PRECINCT 10                                            01 
01030020011000001DEM       Straight Party                                          Democratic Party                      PRECINCT 11                                            01 
01030020012000068DEM       Straight Party                                          Democratic Party                      PRECINCT 18                                            01 
01030020013000029DEM       Straight Party                                          Democratic Party                      PRECINCT 13                                            01 
01030020014000058DEM       Straight Party                                          Democratic Party                      PRECINCT 14                                            01 
01030020015000033DEM       Straight Party                                          Democratic Party                      PRECINCT 15                                            01 
01030020016000015DEM       Straight Party                                          Democratic Party                      PRECINCT 16                                            01 
01030020017000049DEM       Straight Party                                          Democratic Party                      PRECINCT 17                                            01 
01030030001000002LIB       Straight Party                                          Libertarian Party                     PRECINCT 1                                             01 
01030030002000000LIB       Straight Party                                          Libertarian Party                     PRECINCT 2                                             01 
01030030003000007LIB       Straight Party                                          Libertarian Party                     PRECINCT 3                                             01 
01030030004000002LIB       Straight Party                                          Libertarian Party                     PRECINCT 4                                             01 
01030030005000001LIB       Straight Party                                          Libertarian Party                     PRECINCT 5                                             01 
01030030006000000LIB       Straight Party                                          Libertarian Party                     PRECINCT 6                                             01 
01030030007000001LIB       Straight Party                                          Libertarian Party                     PRECINCT 7                                             01 
01030030008000000LIB       Straight Party                                          Libertarian Party                     PRECINCT 8                                             01 
01030030009000000LIB       Straight Party                                          Libertarian Party                     PRECINCT 9                                             01 
01030030010000003LIB       Straight Party                                          Libertarian Party                     PRECINCT 10                                            01 
01030030011000000LIB       Straight Party                                          Libertarian Party                     PRECINCT 11                                            01 
01030030012000000LIB       Straight Party                                          Libertarian Party                     PRECINCT 18                                            01 
01030030013000001LIB       Straight Party                                          Libertarian Party                     PRECINCT 13                                            01 
01030030014000004LIB       Straight Party                                          Libertarian Party                     PRECINCT 14                                            01 
01030030015000001LIB       Straight Party                                          Libertarian Party                     PRECINCT 15                                            01 
01030030016000000LIB       Straight Party                                          Libertarian Party                     PRECINCT 16                                            01 
01030030017000001LIB       Straight Party                                          Libertarian Party                     PRECINCT 17                                            01 
01030040001000000GRN       Straight Party                                          Green Party                           PRECINCT 1                                             01 
01030040002000001GRN       Straight Party                                          Green Party                           PRECINCT 2                                             01 
01030040003000002GRN       Straight Party                                          Green Party                           PRECINCT 3                                             01 
01030040004000000GRN       Straight Party                                          Green Party                           PRECINCT 4                                             01 
01030040005000000GRN       Straight Party                                          Green Party                           PRECINCT 5                                             01 
01030040006000000GRN       Straight Party                                          Green Party                           PRECINCT 6                                             01 
01030040007000000GRN       Straight Party                                          Green Party                           PRECINCT 7                                             01 
01030040008000000GRN       Straight Party                                          Green Party                           PRECINCT 8                                             01 
01030040009000000GRN       Straight Party                                          Green Party                           PRECINCT 9                                             01 
01030040010000001GRN       Straight Party                                          Green Party                           PRECINCT 10                                            01 
01030040011000000GRN       Straight Party                                          Green Party                           PRECINCT 11                                            01 
01030040012000000GRN       Straight Party                                          Green Party                           PRECINCT 18                                            01 
01030040013000002GRN       Straight Party                                          Green Party                           PRECINCT 13                                            01 
01030040014000000GRN       Straight Party                                          Green Party                           PRECINCT 14                                            01 
01030040015000000GRN       Straight Party                                          Green Party                           PRECINCT 15                                            01 
01030040016000000GRN       Straight Party                                          Green Party                           PRECINCT 16                                            01 
01030040017000000GRN       Straight Party                                          Green Party                           PRECINCT 17                                            01 
01040010001000364REPCOTYLERPresident and Vice President                            Donald J. Trump / Mike Pence          PRECINCT 1                                             01 
01040010002000324REPCOTYLERPresident and Vice President                            Donald J. Trump / Mike Pence          PRECINCT 2                                             01 
01040010003000604REPCOTYLERPresident and Vice President                            Donald J. Trump / Mike Pence          PRECINCT 3                                             01 
01040010004000639REPCOTYLERPresident and Vice President                            Donald J. Trump / Mike Pence          PRECINCT 4                                             01 
01040010005000070REPCOTYLERPresident and Vice President                            Donald J. Trump / Mike Pence          PRECINCT 5                                             01 
01040010006000265REPCOTYLERPresident and Vice President                            Donald J. Trump / Mike Pence          PRECINCT 6                                             01 
01040010007000370REPCOTYLERPresident and Vice President                            Donald J. Trump / Mike Pence          PRECINCT 7                                             01 
01040010008000137REPCOTYLERPresident and Vice President                            Donald J. Trump / Mike Pence          PRECINCT 8                                             01 
01040010009000243REPCOTYLERPresident and Vice President                            Donald J. Trump / Mike Pence          PRECINCT 9                                             01 
01040010010000682REPCOTYLERPresident and Vice President                            Donald J. Trump / Mike Pence          PRECINCT 10                                            01 
01040010011000072REPCOTYLERPresident and Vice President                            Donald J. Trump / Mike Pence          PRECINCT 11                                            01 
01040010012000691REPCOTYLERPresident and Vice President                            Donald J. Trump / Mike Pence          PRECINCT 18                                            01 
01040010013000316REPCOTYLERPresident and Vice President                            Donald J. Trump / Mike Pence          PRECINCT 13                                            01 
01040010014000858REPCOTYLERPresident and Vice President                            Donald J. Trump / Mike Pence          PRECINCT 14                                            01 
01040010015000497REPCOTYLERPresident and Vice President                            Donald J. Trump / Mike Pence          PRECINCT 15                                            01 
01040010016000311REPCOTYLERPresident and Vice President                            Donald J. Trump / Mike Pence          PRECINCT 16                                            01 
01040010017000181REPCOTYLERPresident and Vice President                            Donald J. Trump / Mike Pence          PRECINCT 17                                            01 
01040020001000070DEMCOTYLERPresident and Vice President                            Hillary Clinton / Tim Kaine           PRECINCT 1                                             01 
01040020002000190DEMCOTYLERPresident and Vice President                            Hillary Clinton / Tim Kaine           PRECINCT 2                                             01 
01040020003000181DEMCOTYLERPresident and Vice President                            Hillary Clinton / Tim Kaine           PRECINCT 3                                             01 
01040020004000082DEMCOTYLERPresident and Vice President                            Hillary Clinton / Tim Kaine           PRECINCT 4                                             01 
01040020005000055DEMCOTYLERPresident and Vice President                            Hillary Clinton / Tim Kaine           PRECINCT 5                                             01 
01040020006000035DEMCOTYLERPresident and Vice President                            Hillary Clinton / Tim Kaine           PRECINCT 6                                             01 
01040020007000030DEMCOTYLERPresident and Vice President                            Hillary Clinton / Tim Kaine           PRECINCT 7                                             01 
01040020008000017DEMCOTYLERPresident and Vice President                            Hillary Clinton / Tim Kaine           PRECINCT 8                                             01 
01040020009000024DEMCOTYLERPresident and Vice President                            Hillary Clinton / Tim Kaine           PRECINCT 9                                             01 
01040020010000098DEMCOTYLERPresident and Vice President                            Hillary Clinton / Tim Kaine           PRECINCT 10                                            01 
01040020011000002DEMCOTYLERPresident and Vice President                            Hillary Clinton / Tim Kaine           PRECINCT 11                                            01 
01040020012000136DEMCOTYLERPresident and Vice President                            Hillary Clinton / Tim Kaine           PRECINCT 18                                            01 
01040020013000053DEMCOTYLERPresident and Vice President                            Hillary Clinton / Tim Kaine           PRECINCT 13                                            01 
01040020014000109DEMCOTYLERPresident and Vice President                            Hillary Clinton / Tim Kaine           PRECINCT 14                                            01 
01040020015000054DEMCOTYLERPresident and Vice President                            Hillary Clinton / Tim Kaine           PRECINCT 15                                            01 
01040020016000032DEMCOTYLERPresident and Vice President                            Hillary Clinton / Tim Kaine           PRECINCT 16                                            01 
01040020017000080DEMCOTYLERPresident and Vice President                            Hillary Clinton / Tim Kaine           PRECINCT 17                                            01 
01040030001000004LIBCOTYLERPresident and Vice President                            Gary Johnson / William Weld           PRECINCT 1                                             01 
01040030002000008LIBCOTYLERPresident and Vice President                            Gary Johnson / William Weld           PRECINCT 2                                             01 
01040030003000018LIBCOTYLERPresident and Vice President                            Gary Johnson / William Weld           PRECINCT 3                                             01 
01040030004000011LIBCOTYLERPresident and Vice President                            Gary Johnson / William Weld           PRECINCT 4                                             01 
01040030005000002LIBCOTYLERPresident and Vice President                            Gary Johnson / William Weld           PRECINCT 5                                             01 
01040030006000003LIBCOTYLERPresident and Vice President                            Gary Johnson / William Weld           PRECINCT 6                                             01 
01040030007000002LIBCOTYLERPresident and Vice President                            Gary Johnson / William Weld           PRECINCT 7                                             01 
01040030008000003LIBCOTYLERPresident and Vice President                            Gary Johnson / William Weld           PRECINCT 8                                             01 
01040030009000001LIBCOTYLERPresident and Vice President                            Gary Johnson / William Weld           PRECINCT 9                                             01 
01040030010000013LIBCOTYLERPresident and Vice President                            Gary Johnson / William Weld           PRECINCT 10                                            01 
01040030011000000LIBCOTYLERPresident and Vice President                            Gary Johnson / William Weld           PRECINCT 11                                            01 
01040030012000006LIBCOTYLERPresident and Vice President                            Gary Johnson / William Weld           PRECINCT 18                                            01 
01040030013000003LIBCOTYLERPresident and Vice President                            Gary Johnson / William Weld           PRECINCT 13                                            01 
01040030014000013LIBCOTYLERPresident and Vice President                            Gary Johnson / William Weld           PRECINCT 14                                            01 
01040030015000007LIBCOTYLERPresident and Vice President                            Gary Johnson / William Weld           PRECINCT 15                                            01 
01040030016000005LIBCOTYLERPresident and Vice President                            Gary Johnson / William Weld           PRECINCT 16                                            01 
01040030017000004LIBCOTYLERPresident and Vice President                            Gary Johnson / William Weld           PRECINCT 17                                            01 
01040040001000000GRNCOTYLERPresident and Vice President                            Jill Stein / Ajamu Baraka             PRECINCT 1                                             01 
01040040002000001GRNCOTYLERPresident and Vice President                            Jill Stein / Ajamu Baraka             PRECINCT 2                                             01 
01040040003000004GRNCOTYLERPresident and Vice President                            Jill Stein / Ajamu Baraka             PRECINCT 3                                             01 
01040040004000004GRNCOTYLERPresident and Vice President                            Jill Stein / Ajamu Baraka             PRECINCT 4                                             01 
01040040005000001GRNCOTYLERPresident and Vice President                            Jill Stein / Ajamu Baraka             PRECINCT 5                                             01 
01040040006000000GRNCOTYLERPresident and Vice President                            Jill Stein / Ajamu Baraka             PRECINCT 6                                             01 
01040040007000001GRNCOTYLERPresident and Vice President                            Jill Stein / Ajamu Baraka             PRECINCT 7                                             01 
01040040008000001GRNCOTYLERPresident and Vice President                            Jill Stein / Ajamu Baraka             PRECINCT 8                                             01 
01040040009000000GRNCOTYLERPresident and Vice President                            Jill Stein / Ajamu Baraka             PRECINCT 9                                             01 
01040040010000003GRNCOTYLERPresident and Vice President                            Jill Stein / Ajamu Baraka             PRECINCT 10                                            01 
01040040011000000GRNCOTYLERPresident and Vice President                            Jill Stein / Ajamu Baraka             PRECINCT 11                                            01 
01040040012000002GRNCOTYLERPresident and Vice President                            Jill Stein / Ajamu Baraka             PRECINCT 18                                            01 
01040040013000003GRNCOTYLERPresident and Vice President                            Jill Stein / Ajamu Baraka             PRECINCT 13                                            01 
01040040014000001GRNCOTYLERPresident and Vice President                            Jill Stein / Ajamu Baraka             PRECINCT 14                                            01 
01040040015000000GRNCOTYLERPresident and Vice President                            Jill Stein / Ajamu Baraka             PRECINCT 15                                            01 
01040040016000001GRNCOTYLERPresident and Vice President                            Jill Stein / Ajamu Baraka             PRECINCT 16                                            01 
01040040017000000GRNCOTYLERPresident and Vice President                            Jill Stein / Ajamu Baraka             PRECINCT 17                                            01 
01050010001000388REPCOTYLERUnited States Representative, District 36               Brian Babin                           PRECINCT 1                                             01 
01050010002000376REPCOTYLERUnited States Representative, District 36               Brian Babin                           PRECINCT 2                                             01 
01050010003000632REPCOTYLERUnited States Representative, District 36               Brian Babin                           PRECINCT 3                                             01 
01050010004000658REPCOTYLERUnited States Representative, District 36               Brian Babin                           PRECINCT 4                                             01 
01050010005000086REPCOTYLERUnited States Representative, District 36               Brian Babin                           PRECINCT 5                                             01 
01050010006000272REPCOTYLERUnited States Representative, District 36               Brian Babin                           PRECINCT 6                                             01 
01050010007000377REPCOTYLERUnited States Representative, District 36               Brian Babin                           PRECINCT 7                                             01 
01050010008000143REPCOTYLERUnited States Representative, District 36               Brian Babin                           PRECINCT 8                                             01 
01050010009000244REPCOTYLERUnited States Representative, District 36               Brian Babin                           PRECINCT 9                                             01 
01050010010000711REPCOTYLERUnited States Representative, District 36               Brian Babin                           PRECINCT 10                                            01 
01050010011000068REPCOTYLERUnited States Representative, District 36               Brian Babin                           PRECINCT 11                                            01 
01050010012000722REPCOTYLERUnited States Representative, District 36               Brian Babin                           PRECINCT 18                                            01 
01050010013000318REPCOTYLERUnited States Representative, District 36               Brian Babin                           PRECINCT 13                                            01 
01050010014000882REPCOTYLERUnited States Representative, District 36               Brian Babin                           PRECINCT 14                                            01 
01050010015000503REPCOTYLERUnited States Representative, District 36               Brian Babin                           PRECINCT 15                                            01 
01050010016000322REPCOTYLERUnited States Representative, District 36               Brian Babin                           PRECINCT 16                                            01 
01050010017000208REPCOTYLERUnited States Representative, District 36               Brian Babin                           PRECINCT 17                                            01 
01050020001000026GRNCOTYLERUnited States Representative, District 36               Hal Justin Ridley Jr.                 PRECINCT 1                                             01 
01050020002000062GRNCOTYLERUnited States Representative, District 36               Hal Justin Ridley Jr.                 PRECINCT 2                                             01 
01050020003000069GRNCOTYLERUnited States Representative, District 36               Hal Justin Ridley Jr.                 PRECINCT 3                                             01 
01050020004000045GRNCOTYLERUnited States Representative, District 36               Hal Justin Ridley Jr.                 PRECINCT 4                                             01 
01050020005000017GRNCOTYLERUnited States Representative, District 36               Hal Justin Ridley Jr.                 PRECINCT 5                                             01 
01050020006000010GRNCOTYLERUnited States Representative, District 36               Hal Justin Ridley Jr.                 PRECINCT 6                                             01 
01050020007000012GRNCOTYLERUnited States Representative, District 36               Hal Justin Ridley Jr.                 PRECINCT 7                                             01 
01050020008000006GRNCOTYLERUnited States Representative, District 36               Hal Justin Ridley Jr.                 PRECINCT 8                                             01 
01050020009000014GRNCOTYLERUnited States Representative, District 36               Hal Justin Ridley Jr.                 PRECINCT 9                                             01 
01050020010000047GRNCOTYLERUnited States Representative, District 36               Hal Justin Ridley Jr.                 PRECINCT 10                                            01 
01050020011000006GRNCOTYLERUnited States Representative, District 36               Hal Justin Ridley Jr.                 PRECINCT 11                                            01 
01050020012000061GRNCOTYLERUnited States Representative, District 36               Hal Justin Ridley Jr.                 PRECINCT 18                                            01 
01050020013000032GRNCOTYLERUnited States Representative, District 36               Hal Justin Ridley Jr.                 PRECINCT 13                                            01 
01050020014000048GRNCOTYLERUnited States Representative, District 36               Hal Justin Ridley Jr.                 PRECINCT 14                                            01 
01050020015000029GRNCOTYLERUnited States Representative, District 36               Hal Justin Ridley Jr.                 PRECINCT 15                                            01 
01050020016000021GRNCOTYLERUnited States Representative, District 36               Hal Justin Ridley Jr.                 PRECINCT 16                                            01 
01050020017000029GRNCOTYLERUnited States Representative, District 36               Hal Justin Ridley Jr.                 PRECINCT 17                                            01 
01060010001000330REPCOTYLERRailroad Commissioner                                   Wayne Christian                       PRECINCT 1                                             01 
01060010002000295REPCOTYLERRailroad Commissioner                                   Wayne Christian                       PRECINCT 2                                             01 
01060010003000537REPCOTYLERRailroad Commissioner                                   Wayne Christian                       PRECINCT 3                                             01 
01060010004000587REPCOTYLERRailroad Commissioner                                   Wayne Christian                       PRECINCT 4                                             01 
01060010005000063REPCOTYLERRailroad Commissioner                                   Wayne Christian                       PRECINCT 5                                             01 
01060010006000256REPCOTYLERRailroad Commissioner                                   Wayne Christian                       PRECINCT 6                                             01 
01060010007000342REPCOTYLERRailroad Commissioner                                   Wayne Christian                       PRECINCT 7                                             01 
01060010008000128REPCOTYLERRailroad Commissioner                                   Wayne Christian                       PRECINCT 8                                             01 
01060010009000227REPCOTYLERRailroad Commissioner                                   Wayne Christian                       PRECINCT 9                                             01 
01060010010000636REPCOTYLERRailroad Commissioner                                   Wayne Christian                       PRECINCT 10                                            01 
01060010011000068REPCOTYLERRailroad Commissioner                                   Wayne Christian                       PRECINCT 11                                            01 
01060010012000638REPCOTYLERRailroad Commissioner                                   Wayne Christian                       PRECINCT 18                                            01 
01060010013000267REPCOTYLERRailroad Commissioner                                   Wayne Christian                       PRECINCT 13                                            01 
01060010014000766REPCOTYLERRailroad Commissioner                                   Wayne Christian                       PRECINCT 14                                            01 
01060010015000422REPCOTYLERRailroad Commissioner                                   Wayne Christian                       PRECINCT 15                                            01 
01060010016000293REPCOTYLERRailroad Commissioner                                   Wayne Christian                       PRECINCT 16                                            01 
01060010017000168REPCOTYLERRailroad Commissioner                                   Wayne Christian                       PRECINCT 17                                            01 
01060020001000074DEMCOTYLERRailroad Commissioner                                   Grady Yarbrough                       PRECINCT 1                                             01 
01060020002000187DEMCOTYLERRailroad Commissioner                                   Grady Yarbrough                       PRECINCT 2                                             01 
01060020003000192DEMCOTYLERRailroad Commissioner                                   Grady Yarbrough                       PRECINCT 3                                             01 
01060020004000108DEMCOTYLERRailroad Commissioner                                   Grady Yarbrough                       PRECINCT 4                                             01 
01060020005000056DEMCOTYLERRailroad Commissioner                                   Grady Yarbrough                       PRECINCT 5                                             01 
01060020006000030DEMCOTYLERRailroad Commissioner                                   Grady Yarbrough                       PRECINCT 6                                             01 
01060020007000027DEMCOTYLERRailroad Commissioner                                   Grady Yarbrough                       PRECINCT 7                                             01 
01060020008000017DEMCOTYLERRailroad Commissioner                                   Grady Yarbrough                       PRECINCT 8                                             01 
01060020009000027DEMCOTYLERRailroad Commissioner                                   Grady Yarbrough                       PRECINCT 9                                             01 
01060020010000102DEMCOTYLERRailroad Commissioner                                   Grady Yarbrough                       PRECINCT 10                                            01 
01060020011000003DEMCOTYLERRailroad Commissioner                                   Grady Yarbrough                       PRECINCT 11                                            01 
01060020012000126DEMCOTYLERRailroad Commissioner                                   Grady Yarbrough                       PRECINCT 18                                            01 
01060020013000068DEMCOTYLERRailroad Commissioner                                   Grady Yarbrough                       PRECINCT 13                                            01 
01060020014000138DEMCOTYLERRailroad Commissioner                                   Grady Yarbrough                       PRECINCT 14                                            01 
01060020015000103DEMCOTYLERRailroad Commissioner                                   Grady Yarbrough                       PRECINCT 15                                            01 
01060020016000039DEMCOTYLERRailroad Commissioner                                   Grady Yarbrough                       PRECINCT 16                                            01 
01060020017000080DEMCOTYLERRailroad Commissioner                                   Grady Yarbrough                       PRECINCT 17                                            01 
01060030001000013LIBCOTYLERRailroad Commissioner                                   Mark Miller                           PRECINCT 1                                             01 
01060030002000014LIBCOTYLERRailroad Commissioner                                   Mark Miller                           PRECINCT 2                                             01 
01060030003000032LIBCOTYLERRailroad Commissioner                                   Mark Miller                           PRECINCT 3                                             01 
01060030004000019LIBCOTYLERRailroad Commissioner                                   Mark Miller                           PRECINCT 4                                             01 
01060030005000005LIBCOTYLERRailroad Commissioner                                   Mark Miller                           PRECINCT 5                                             01 
01060030006000010LIBCOTYLERRailroad Commissioner                                   Mark Miller                           PRECINCT 6                                             01 
01060030007000014LIBCOTYLERRailroad Commissioner                                   Mark Miller                           PRECINCT 7                                             01 
01060030008000005LIBCOTYLERRailroad Commissioner                                   Mark Miller                           PRECINCT 8                                             01 
01060030009000007LIBCOTYLERRailroad Commissioner                                   Mark Miller                           PRECINCT 9                                             01 
01060030010000027LIBCOTYLERRailroad Commissioner                                   Mark Miller                           PRECINCT 10                                            01 
01060030011000001LIBCOTYLERRailroad Commissioner                                   Mark Miller                           PRECINCT 11                                            01 
01060030012000033LIBCOTYLERRailroad Commissioner                                   Mark Miller                           PRECINCT 18                                            01 
01060030013000014LIBCOTYLERRailroad Commissioner                                   Mark Miller                           PRECINCT 13                                            01 
01060030014000024LIBCOTYLERRailroad Commissioner                                   Mark Miller                           PRECINCT 14                                            01 
01060030015000020LIBCOTYLERRailroad Commissioner                                   Mark Miller                           PRECINCT 15                                            01 
01060030016000011LIBCOTYLERRailroad Commissioner                                   Mark Miller                           PRECINCT 16                                            01 
01060030017000007LIBCOTYLERRailroad Commissioner                                   Mark Miller                           PRECINCT 17                                            01 
01060040001000002GRNCOTYLERRailroad Commissioner                                   Martina Salinas                       PRECINCT 1                                             01 
01060040002000004GRNCOTYLERRailroad Commissioner                                   Martina Salinas                       PRECINCT 2                                             01 
01060040003000010GRNCOTYLERRailroad Commissioner                                   Martina Salinas                       PRECINCT 3                                             01 
01060040004000010GRNCOTYLERRailroad Commissioner                                   Martina Salinas                       PRECINCT 4                                             01 
01060040005000001GRNCOTYLERRailroad Commissioner                                   Martina Salinas                       PRECINCT 5                                             01 
01060040006000002GRNCOTYLERRailroad Commissioner                                   Martina Salinas                       PRECINCT 6                                             01 
01060040007000002GRNCOTYLERRailroad Commissioner                                   Martina Salinas                       PRECINCT 7                                             01 
01060040008000000GRNCOTYLERRailroad Commissioner                                   Martina Salinas                       PRECINCT 8                                             01 
01060040009000000GRNCOTYLERRailroad Commissioner                                   Martina Salinas                       PRECINCT 9                                             01 
01060040010000007GRNCOTYLERRailroad Commissioner                                   Martina Salinas                       PRECINCT 10                                            01 
01060040011000000GRNCOTYLERRailroad Commissioner                                   Martina Salinas                       PRECINCT 11                                            01 
01060040012000005GRNCOTYLERRailroad Commissioner                                   Martina Salinas                       PRECINCT 18                                            01 
01060040013000007GRNCOTYLERRailroad Commissioner                                   Martina Salinas                       PRECINCT 13                                            01 
01060040014000014GRNCOTYLERRailroad Commissioner                                   Martina Salinas                       PRECINCT 14                                            01 
01060040015000004GRNCOTYLERRailroad Commissioner                                   Martina Salinas                       PRECINCT 15                                            01 
01060040016000001GRNCOTYLERRailroad Commissioner                                   Martina Salinas                       PRECINCT 16                                            01 
01060040017000003GRNCOTYLERRailroad Commissioner                                   Martina Salinas                       PRECINCT 17                                            01 
01070010001000333REPCOTYLERJustice, Supreme Court, Place 3                         Debra Lehrmann                        PRECINCT 1                                             01 
01070010002000299REPCOTYLERJustice, Supreme Court, Place 3                         Debra Lehrmann                        PRECINCT 2                                             01 
01070010003000543REPCOTYLERJustice, Supreme Court, Place 3                         Debra Lehrmann                        PRECINCT 3                                             01 
01070010004000591REPCOTYLERJustice, Supreme Court, Place 3                         Debra Lehrmann                        PRECINCT 4                                             01 
01070010005000061REPCOTYLERJustice, Supreme Court, Place 3                         Debra Lehrmann                        PRECINCT 5                                             01 
01070010006000256REPCOTYLERJustice, Supreme Court, Place 3                         Debra Lehrmann                        PRECINCT 6                                             01 
01070010007000336REPCOTYLERJustice, Supreme Court, Place 3                         Debra Lehrmann                        PRECINCT 7                                             01 
01070010008000130REPCOTYLERJustice, Supreme Court, Place 3                         Debra Lehrmann                        PRECINCT 8                                             01 
01070010009000227REPCOTYLERJustice, Supreme Court, Place 3                         Debra Lehrmann                        PRECINCT 9                                             01 
01070010010000625REPCOTYLERJustice, Supreme Court, Place 3                         Debra Lehrmann                        PRECINCT 10                                            01 
01070010011000068REPCOTYLERJustice, Supreme Court, Place 3                         Debra Lehrmann                        PRECINCT 11                                            01 
01070010012000645REPCOTYLERJustice, Supreme Court, Place 3                         Debra Lehrmann                        PRECINCT 18                                            01 
01070010013000271REPCOTYLERJustice, Supreme Court, Place 3                         Debra Lehrmann                        PRECINCT 13                                            01 
01070010014000767REPCOTYLERJustice, Supreme Court, Place 3                         Debra Lehrmann                        PRECINCT 14                                            01 
01070010015000434REPCOTYLERJustice, Supreme Court, Place 3                         Debra Lehrmann                        PRECINCT 15                                            01 
01070010016000296REPCOTYLERJustice, Supreme Court, Place 3                         Debra Lehrmann                        PRECINCT 16                                            01 
01070010017000167REPCOTYLERJustice, Supreme Court, Place 3                         Debra Lehrmann                        PRECINCT 17                                            01 
01070020001000070DEMCOTYLERJustice, Supreme Court, Place 3                         Mike Westergren                       PRECINCT 1                                             01 
01070020002000185DEMCOTYLERJustice, Supreme Court, Place 3                         Mike Westergren                       PRECINCT 2                                             01 
01070020003000193DEMCOTYLERJustice, Supreme Court, Place 3                         Mike Westergren                       PRECINCT 3                                             01 
01070020004000104DEMCOTYLERJustice, Supreme Court, Place 3                         Mike Westergren                       PRECINCT 4                                             01 
01070020005000054DEMCOTYLERJustice, Supreme Court, Place 3                         Mike Westergren                       PRECINCT 5                                             01 
01070020006000030DEMCOTYLERJustice, Supreme Court, Place 3                         Mike Westergren                       PRECINCT 6                                             01 
01070020007000031DEMCOTYLERJustice, Supreme Court, Place 3                         Mike Westergren                       PRECINCT 7                                             01 
01070020008000015DEMCOTYLERJustice, Supreme Court, Place 3                         Mike Westergren                       PRECINCT 8                                             01 
01070020009000025DEMCOTYLERJustice, Supreme Court, Place 3                         Mike Westergren                       PRECINCT 9                                             01 
01070020010000108DEMCOTYLERJustice, Supreme Court, Place 3                         Mike Westergren                       PRECINCT 10                                            01 
01070020011000004DEMCOTYLERJustice, Supreme Court, Place 3                         Mike Westergren                       PRECINCT 11                                            01 
01070020012000122DEMCOTYLERJustice, Supreme Court, Place 3                         Mike Westergren                       PRECINCT 18                                            01 
01070020013000066DEMCOTYLERJustice, Supreme Court, Place 3                         Mike Westergren                       PRECINCT 13                                            01 
01070020014000142DEMCOTYLERJustice, Supreme Court, Place 3                         Mike Westergren                       PRECINCT 14                                            01 
01070020015000092DEMCOTYLERJustice, Supreme Court, Place 3                         Mike Westergren                       PRECINCT 15                                            01 
01070020016000037DEMCOTYLERJustice, Supreme Court, Place 3                         Mike Westergren                       PRECINCT 16                                            01 
01070020017000081DEMCOTYLERJustice, Supreme Court, Place 3                         Mike Westergren                       PRECINCT 17                                            01 
01070030001000014LIBCOTYLERJustice, Supreme Court, Place 3                         Kathie Glass                          PRECINCT 1                                             01 
01070030002000010LIBCOTYLERJustice, Supreme Court, Place 3                         Kathie Glass                          PRECINCT 2                                             01 
01070030003000025LIBCOTYLERJustice, Supreme Court, Place 3                         Kathie Glass                          PRECINCT 3                                             01 
01070030004000023LIBCOTYLERJustice, Supreme Court, Place 3                         Kathie Glass                          PRECINCT 4                                             01 
01070030005000007LIBCOTYLERJustice, Supreme Court, Place 3                         Kathie Glass                          PRECINCT 5                                             01 
01070030006000010LIBCOTYLERJustice, Supreme Court, Place 3                         Kathie Glass                          PRECINCT 6                                             01 
01070030007000010LIBCOTYLERJustice, Supreme Court, Place 3                         Kathie Glass                          PRECINCT 7                                             01 
01070030008000006LIBCOTYLERJustice, Supreme Court, Place 3                         Kathie Glass                          PRECINCT 8                                             01 
01070030009000006LIBCOTYLERJustice, Supreme Court, Place 3                         Kathie Glass                          PRECINCT 9                                             01 
01070030010000025LIBCOTYLERJustice, Supreme Court, Place 3                         Kathie Glass                          PRECINCT 10                                            01 
01070030011000001LIBCOTYLERJustice, Supreme Court, Place 3                         Kathie Glass                          PRECINCT 11                                            01 
01070030012000022LIBCOTYLERJustice, Supreme Court, Place 3                         Kathie Glass                          PRECINCT 18                                            01 
01070030013000006LIBCOTYLERJustice, Supreme Court, Place 3                         Kathie Glass                          PRECINCT 13                                            01 
01070030014000022LIBCOTYLERJustice, Supreme Court, Place 3                         Kathie Glass                          PRECINCT 14                                            01 
01070030015000011LIBCOTYLERJustice, Supreme Court, Place 3                         Kathie Glass                          PRECINCT 15                                            01 
01070030016000008LIBCOTYLERJustice, Supreme Court, Place 3                         Kathie Glass                          PRECINCT 16                                            01 
01070030017000007LIBCOTYLERJustice, Supreme Court, Place 3                         Kathie Glass                          PRECINCT 17                                            01 
01070040001000001GRNCOTYLERJustice, Supreme Court, Place 3                         Rodolfo Rivera Munoz                  PRECINCT 1                                             01 
01070040002000005GRNCOTYLERJustice, Supreme Court, Place 3                         Rodolfo Rivera Munoz                  PRECINCT 2                                             01 
01070040003000007GRNCOTYLERJustice, Supreme Court, Place 3                         Rodolfo Rivera Munoz                  PRECINCT 3                                             01 
01070040004000003GRNCOTYLERJustice, Supreme Court, Place 3                         Rodolfo Rivera Munoz                  PRECINCT 4                                             01 
01070040005000002GRNCOTYLERJustice, Supreme Court, Place 3                         Rodolfo Rivera Munoz                  PRECINCT 5                                             01 
01070040006000000GRNCOTYLERJustice, Supreme Court, Place 3                         Rodolfo Rivera Munoz                  PRECINCT 6                                             01 
01070040007000000GRNCOTYLERJustice, Supreme Court, Place 3                         Rodolfo Rivera Munoz                  PRECINCT 7                                             01 
01070040008000000GRNCOTYLERJustice, Supreme Court, Place 3                         Rodolfo Rivera Munoz                  PRECINCT 8                                             01 
01070040009000001GRNCOTYLERJustice, Supreme Court, Place 3                         Rodolfo Rivera Munoz                  PRECINCT 9                                             01 
01070040010000005GRNCOTYLERJustice, Supreme Court, Place 3                         Rodolfo Rivera Munoz                  PRECINCT 10                                            01 
01070040011000000GRNCOTYLERJustice, Supreme Court, Place 3                         Rodolfo Rivera Munoz                  PRECINCT 11                                            01 
01070040012000005GRNCOTYLERJustice, Supreme Court, Place 3                         Rodolfo Rivera Munoz                  PRECINCT 18                                            01 
01070040013000007GRNCOTYLERJustice, Supreme Court, Place 3                         Rodolfo Rivera Munoz                  PRECINCT 13                                            01 
01070040014000008GRNCOTYLERJustice, Supreme Court, Place 3                         Rodolfo Rivera Munoz                  PRECINCT 14                                            01 
01070040015000003GRNCOTYLERJustice, Supreme Court, Place 3                         Rodolfo Rivera Munoz                  PRECINCT 15                                            01 
01070040016000003GRNCOTYLERJustice, Supreme Court, Place 3                         Rodolfo Rivera Munoz                  PRECINCT 16                                            01 
01070040017000000GRNCOTYLERJustice, Supreme Court, Place 3                         Rodolfo Rivera Munoz                  PRECINCT 17                                            01 
01080010001000341REPCOTYLERJustice, Supreme Court, Place 5                         Paul Green                            PRECINCT 1                                             01 
01080010002000299REPCOTYLERJustice, Supreme Court, Place 5                         Paul Green                            PRECINCT 2                                             01 
01080010003000551REPCOTYLERJustice, Supreme Court, Place 5                         Paul Green                            PRECINCT 3                                             01 
01080010004000607REPCOTYLERJustice, Supreme Court, Place 5                         Paul Green                            PRECINCT 4                                             01 
01080010005000065REPCOTYLERJustice, Supreme Court, Place 5                         Paul Green                            PRECINCT 5                                             01 
01080010006000253REPCOTYLERJustice, Supreme Court, Place 5                         Paul Green                            PRECINCT 6                                             01 
01080010007000340REPCOTYLERJustice, Supreme Court, Place 5                         Paul Green                            PRECINCT 7                                             01 
01080010008000132REPCOTYLERJustice, Supreme Court, Place 5                         Paul Green                            PRECINCT 8                                             01 
01080010009000226REPCOTYLERJustice, Supreme Court, Place 5                         Paul Green                            PRECINCT 9                                             01 
01080010010000632REPCOTYLERJustice, Supreme Court, Place 5                         Paul Green                            PRECINCT 10                                            01 
01080010011000069REPCOTYLERJustice, Supreme Court, Place 5                         Paul Green                            PRECINCT 11                                            01 
01080010012000653REPCOTYLERJustice, Supreme Court, Place 5                         Paul Green                            PRECINCT 18                                            01 
01080010013000269REPCOTYLERJustice, Supreme Court, Place 5                         Paul Green                            PRECINCT 13                                            01 
01080010014000791REPCOTYLERJustice, Supreme Court, Place 5                         Paul Green                            PRECINCT 14                                            01 
01080010015000470REPCOTYLERJustice, Supreme Court, Place 5                         Paul Green                            PRECINCT 15                                            01 
01080010016000299REPCOTYLERJustice, Supreme Court, Place 5                         Paul Green                            PRECINCT 16                                            01 
01080010017000170REPCOTYLERJustice, Supreme Court, Place 5                         Paul Green                            PRECINCT 17                                            01 
01080020001000065DEMCOTYLERJustice, Supreme Court, Place 5                         Dori Contreras Garza                  PRECINCT 1                                             01 
01080020002000191DEMCOTYLERJustice, Supreme Court, Place 5                         Dori Contreras Garza                  PRECINCT 2                                             01 
01080020003000183DEMCOTYLERJustice, Supreme Court, Place 5                         Dori Contreras Garza                  PRECINCT 3                                             01 
01080020004000098DEMCOTYLERJustice, Supreme Court, Place 5                         Dori Contreras Garza                  PRECINCT 4                                             01 
01080020005000053DEMCOTYLERJustice, Supreme Court, Place 5                         Dori Contreras Garza                  PRECINCT 5                                             01 
01080020006000031DEMCOTYLERJustice, Supreme Court, Place 5                         Dori Contreras Garza                  PRECINCT 6                                             01 
01080020007000030DEMCOTYLERJustice, Supreme Court, Place 5                         Dori Contreras Garza                  PRECINCT 7                                             01 
01080020008000014DEMCOTYLERJustice, Supreme Court, Place 5                         Dori Contreras Garza                  PRECINCT 8                                             01 
01080020009000024DEMCOTYLERJustice, Supreme Court, Place 5                         Dori Contreras Garza                  PRECINCT 9                                             01 
01080020010000099DEMCOTYLERJustice, Supreme Court, Place 5                         Dori Contreras Garza                  PRECINCT 10                                            01 
01080020011000003DEMCOTYLERJustice, Supreme Court, Place 5                         Dori Contreras Garza                  PRECINCT 11                                            01 
01080020012000117DEMCOTYLERJustice, Supreme Court, Place 5                         Dori Contreras Garza                  PRECINCT 18                                            01 
01080020013000063DEMCOTYLERJustice, Supreme Court, Place 5                         Dori Contreras Garza                  PRECINCT 13                                            01 
01080020014000116DEMCOTYLERJustice, Supreme Court, Place 5                         Dori Contreras Garza                  PRECINCT 14                                            01 
01080020015000062DEMCOTYLERJustice, Supreme Court, Place 5                         Dori Contreras Garza                  PRECINCT 15                                            01 
01080020016000031DEMCOTYLERJustice, Supreme Court, Place 5                         Dori Contreras Garza                  PRECINCT 16                                            01 
01080020017000078DEMCOTYLERJustice, Supreme Court, Place 5                         Dori Contreras Garza                  PRECINCT 17                                            01 
01080030001000010LIBCOTYLERJustice, Supreme Court, Place 5                         Tom Oxford                            PRECINCT 1                                             01 
01080030002000010LIBCOTYLERJustice, Supreme Court, Place 5                         Tom Oxford                            PRECINCT 2                                             01 
01080030003000030LIBCOTYLERJustice, Supreme Court, Place 5                         Tom Oxford                            PRECINCT 3                                             01 
01080030004000010LIBCOTYLERJustice, Supreme Court, Place 5                         Tom Oxford                            PRECINCT 4                                             01 
01080030005000004LIBCOTYLERJustice, Supreme Court, Place 5                         Tom Oxford                            PRECINCT 5                                             01 
01080030006000010LIBCOTYLERJustice, Supreme Court, Place 5                         Tom Oxford                            PRECINCT 6                                             01 
01080030007000008LIBCOTYLERJustice, Supreme Court, Place 5                         Tom Oxford                            PRECINCT 7                                             01 
01080030008000005LIBCOTYLERJustice, Supreme Court, Place 5                         Tom Oxford                            PRECINCT 8                                             01 
01080030009000006LIBCOTYLERJustice, Supreme Court, Place 5                         Tom Oxford                            PRECINCT 9                                             01 
01080030010000029LIBCOTYLERJustice, Supreme Court, Place 5                         Tom Oxford                            PRECINCT 10                                            01 
01080030011000000LIBCOTYLERJustice, Supreme Court, Place 5                         Tom Oxford                            PRECINCT 11                                            01 
01080030012000018LIBCOTYLERJustice, Supreme Court, Place 5                         Tom Oxford                            PRECINCT 18                                            01 
01080030013000008LIBCOTYLERJustice, Supreme Court, Place 5                         Tom Oxford                            PRECINCT 13                                            01 
01080030014000020LIBCOTYLERJustice, Supreme Court, Place 5                         Tom Oxford                            PRECINCT 14                                            01 
01080030015000010LIBCOTYLERJustice, Supreme Court, Place 5                         Tom Oxford                            PRECINCT 15                                            01 
01080030016000011LIBCOTYLERJustice, Supreme Court, Place 5                         Tom Oxford                            PRECINCT 16                                            01 
01080030017000006LIBCOTYLERJustice, Supreme Court, Place 5                         Tom Oxford                            PRECINCT 17                                            01 
01080040001000000GRNCOTYLERJustice, Supreme Court, Place 5                         Charles E. Waterbury                  PRECINCT 1                                             01 
01080040002000001GRNCOTYLERJustice, Supreme Court, Place 5                         Charles E. Waterbury                  PRECINCT 2                                             01 
01080040003000006GRNCOTYLERJustice, Supreme Court, Place 5                         Charles E. Waterbury                  PRECINCT 3                                             01 
01080040004000005GRNCOTYLERJustice, Supreme Court, Place 5                         Charles E. Waterbury                  PRECINCT 4                                             01 
01080040005000002GRNCOTYLERJustice, Supreme Court, Place 5                         Charles E. Waterbury                  PRECINCT 5                                             01 
01080040006000000GRNCOTYLERJustice, Supreme Court, Place 5                         Charles E. Waterbury                  PRECINCT 6                                             01 
01080040007000001GRNCOTYLERJustice, Supreme Court, Place 5                         Charles E. Waterbury                  PRECINCT 7                                             01 
01080040008000000GRNCOTYLERJustice, Supreme Court, Place 5                         Charles E. Waterbury                  PRECINCT 8                                             01 
01080040009000002GRNCOTYLERJustice, Supreme Court, Place 5                         Charles E. Waterbury                  PRECINCT 9                                             01 
01080040010000005GRNCOTYLERJustice, Supreme Court, Place 5                         Charles E. Waterbury                  PRECINCT 10                                            01 
01080040011000001GRNCOTYLERJustice, Supreme Court, Place 5                         Charles E. Waterbury                  PRECINCT 11                                            01 
01080040012000006GRNCOTYLERJustice, Supreme Court, Place 5                         Charles E. Waterbury                  PRECINCT 18                                            01 
01080040013000010GRNCOTYLERJustice, Supreme Court, Place 5                         Charles E. Waterbury                  PRECINCT 13                                            01 
01080040014000009GRNCOTYLERJustice, Supreme Court, Place 5                         Charles E. Waterbury                  PRECINCT 14                                            01 
01080040015000002GRNCOTYLERJustice, Supreme Court, Place 5                         Charles E. Waterbury                  PRECINCT 15                                            01 
01080040016000002GRNCOTYLERJustice, Supreme Court, Place 5                         Charles E. Waterbury                  PRECINCT 16                                            01 
01080040017000001GRNCOTYLERJustice, Supreme Court, Place 5                         Charles E. Waterbury                  PRECINCT 17                                            01 
01090010001000323REPCOTYLERJustice, Supreme Court, Place 9                         Eva Guzman                            PRECINCT 1                                             01 
01090010002000300REPCOTYLERJustice, Supreme Court, Place 9                         Eva Guzman                            PRECINCT 2                                             01 
01090010003000535REPCOTYLERJustice, Supreme Court, Place 9                         Eva Guzman                            PRECINCT 3                                             01 
01090010004000590REPCOTYLERJustice, Supreme Court, Place 9                         Eva Guzman                            PRECINCT 4                                             01 
01090010005000061REPCOTYLERJustice, Supreme Court, Place 9                         Eva Guzman                            PRECINCT 5                                             01 
01090010006000253REPCOTYLERJustice, Supreme Court, Place 9                         Eva Guzman                            PRECINCT 6                                             01 
01090010007000335REPCOTYLERJustice, Supreme Court, Place 9                         Eva Guzman                            PRECINCT 7                                             01 
01090010008000128REPCOTYLERJustice, Supreme Court, Place 9                         Eva Guzman                            PRECINCT 8                                             01 
01090010009000223REPCOTYLERJustice, Supreme Court, Place 9                         Eva Guzman                            PRECINCT 9                                             01 
01090010010000623REPCOTYLERJustice, Supreme Court, Place 9                         Eva Guzman                            PRECINCT 10                                            01 
01090010011000066REPCOTYLERJustice, Supreme Court, Place 9                         Eva Guzman                            PRECINCT 11                                            01 
01090010012000629REPCOTYLERJustice, Supreme Court, Place 9                         Eva Guzman                            PRECINCT 18                                            01 
01090010013000271REPCOTYLERJustice, Supreme Court, Place 9                         Eva Guzman                            PRECINCT 13                                            01 
01090010014000753REPCOTYLERJustice, Supreme Court, Place 9                         Eva Guzman                            PRECINCT 14                                            01 
01090010015000424REPCOTYLERJustice, Supreme Court, Place 9                         Eva Guzman                            PRECINCT 15                                            01 
01090010016000283REPCOTYLERJustice, Supreme Court, Place 9                         Eva Guzman                            PRECINCT 16                                            01 
01090010017000164REPCOTYLERJustice, Supreme Court, Place 9                         Eva Guzman                            PRECINCT 17                                            01 
01090020001000079DEMCOTYLERJustice, Supreme Court, Place 9                         Savannah Robinson                     PRECINCT 1                                             01 
01090020002000183DEMCOTYLERJustice, Supreme Court, Place 9                         Savannah Robinson                     PRECINCT 2                                             01 
01090020003000202DEMCOTYLERJustice, Supreme Court, Place 9                         Savannah Robinson                     PRECINCT 3                                             01 
01090020004000103DEMCOTYLERJustice, Supreme Court, Place 9                         Savannah Robinson                     PRECINCT 4                                             01 
01090020005000055DEMCOTYLERJustice, Supreme Court, Place 9                         Savannah Robinson                     PRECINCT 5                                             01 
01090020006000032DEMCOTYLERJustice, Supreme Court, Place 9                         Savannah Robinson                     PRECINCT 6                                             01 
01090020007000030DEMCOTYLERJustice, Supreme Court, Place 9                         Savannah Robinson                     PRECINCT 7                                             01 
01090020008000016DEMCOTYLERJustice, Supreme Court, Place 9                         Savannah Robinson                     PRECINCT 8                                             01 
01090020009000023DEMCOTYLERJustice, Supreme Court, Place 9                         Savannah Robinson                     PRECINCT 9                                             01 
01090020010000104DEMCOTYLERJustice, Supreme Court, Place 9                         Savannah Robinson                     PRECINCT 10                                            01 
01090020011000003DEMCOTYLERJustice, Supreme Court, Place 9                         Savannah Robinson                     PRECINCT 11                                            01 
01090020012000122DEMCOTYLERJustice, Supreme Court, Place 9                         Savannah Robinson                     PRECINCT 18                                            01 
01090020013000065DEMCOTYLERJustice, Supreme Court, Place 9                         Savannah Robinson                     PRECINCT 13                                            01 
01090020014000139DEMCOTYLERJustice, Supreme Court, Place 9                         Savannah Robinson                     PRECINCT 14                                            01 
01090020015000090DEMCOTYLERJustice, Supreme Court, Place 9                         Savannah Robinson                     PRECINCT 15                                            01 
01090020016000034DEMCOTYLERJustice, Supreme Court, Place 9                         Savannah Robinson                     PRECINCT 16                                            01 
01090020017000083DEMCOTYLERJustice, Supreme Court, Place 9                         Savannah Robinson                     PRECINCT 17                                            01 
01090030001000014LIBCOTYLERJustice, Supreme Court, Place 9                         Don Fulton                            PRECINCT 1                                             01 
01090030002000013LIBCOTYLERJustice, Supreme Court, Place 9                         Don Fulton                            PRECINCT 2                                             01 
01090030003000020LIBCOTYLERJustice, Supreme Court, Place 9                         Don Fulton                            PRECINCT 3                                             01 
01090030004000020LIBCOTYLERJustice, Supreme Court, Place 9                         Don Fulton                            PRECINCT 4                                             01 
01090030005000005LIBCOTYLERJustice, Supreme Court, Place 9                         Don Fulton                            PRECINCT 5                                             01 
01090030006000010LIBCOTYLERJustice, Supreme Court, Place 9                         Don Fulton                            PRECINCT 6                                             01 
01090030007000014LIBCOTYLERJustice, Supreme Court, Place 9                         Don Fulton                            PRECINCT 7                                             01 
01090030008000003LIBCOTYLERJustice, Supreme Court, Place 9                         Don Fulton                            PRECINCT 8                                             01 
01090030009000010LIBCOTYLERJustice, Supreme Court, Place 9                         Don Fulton                            PRECINCT 9                                             01 
01090030010000024LIBCOTYLERJustice, Supreme Court, Place 9                         Don Fulton                            PRECINCT 10                                            01 
01090030011000002LIBCOTYLERJustice, Supreme Court, Place 9                         Don Fulton                            PRECINCT 11                                            01 
01090030012000033LIBCOTYLERJustice, Supreme Court, Place 9                         Don Fulton                            PRECINCT 18                                            01 
01090030013000006LIBCOTYLERJustice, Supreme Court, Place 9                         Don Fulton                            PRECINCT 13                                            01 
01090030014000024LIBCOTYLERJustice, Supreme Court, Place 9                         Don Fulton                            PRECINCT 14                                            01 
01090030015000010LIBCOTYLERJustice, Supreme Court, Place 9                         Don Fulton                            PRECINCT 15                                            01 
01090030016000020LIBCOTYLERJustice, Supreme Court, Place 9                         Don Fulton                            PRECINCT 16                                            01 
01090030017000006LIBCOTYLERJustice, Supreme Court, Place 9                         Don Fulton                            PRECINCT 17                                            01 
01090040001000003GRNCOTYLERJustice, Supreme Court, Place 9                         Jim Chisholm                          PRECINCT 1                                             01 
01090040002000005GRNCOTYLERJustice, Supreme Court, Place 9                         Jim Chisholm                          PRECINCT 2                                             01 
01090040003000011GRNCOTYLERJustice, Supreme Court, Place 9                         Jim Chisholm                          PRECINCT 3                                             01 
01090040004000009GRNCOTYLERJustice, Supreme Court, Place 9                         Jim Chisholm                          PRECINCT 4                                             01 
01090040005000002GRNCOTYLERJustice, Supreme Court, Place 9                         Jim Chisholm                          PRECINCT 5                                             01 
01090040006000003GRNCOTYLERJustice, Supreme Court, Place 9                         Jim Chisholm                          PRECINCT 6                                             01 
01090040007000001GRNCOTYLERJustice, Supreme Court, Place 9                         Jim Chisholm                          PRECINCT 7                                             01 
01090040008000002GRNCOTYLERJustice, Supreme Court, Place 9                         Jim Chisholm                          PRECINCT 8                                             01 
01090040009000003GRNCOTYLERJustice, Supreme Court, Place 9                         Jim Chisholm                          PRECINCT 9                                             01 
01090040010000013GRNCOTYLERJustice, Supreme Court, Place 9                         Jim Chisholm                          PRECINCT 10                                            01 
01090040011000002GRNCOTYLERJustice, Supreme Court, Place 9                         Jim Chisholm                          PRECINCT 11                                            01 
01090040012000009GRNCOTYLERJustice, Supreme Court, Place 9                         Jim Chisholm                          PRECINCT 18                                            01 
01090040013000012GRNCOTYLERJustice, Supreme Court, Place 9                         Jim Chisholm                          PRECINCT 13                                            01 
01090040014000018GRNCOTYLERJustice, Supreme Court, Place 9                         Jim Chisholm                          PRECINCT 14                                            01 
01090040015000018GRNCOTYLERJustice, Supreme Court, Place 9                         Jim Chisholm                          PRECINCT 15                                            01 
01090040016000005GRNCOTYLERJustice, Supreme Court, Place 9                         Jim Chisholm                          PRECINCT 16                                            01 
01090040017000002GRNCOTYLERJustice, Supreme Court, Place 9                         Jim Chisholm                          PRECINCT 17                                            01 
01100010001000323REPCOTYLERJudge, Court of Criminal Appeals, Place 2               Mary Lou Keel                         PRECINCT 1                                             01 
01100010002000301REPCOTYLERJudge, Court of Criminal Appeals, Place 2               Mary Lou Keel                         PRECINCT 2                                             01 
01100010003000540REPCOTYLERJudge, Court of Criminal Appeals, Place 2               Mary Lou Keel                         PRECINCT 3                                             01 
01100010004000594REPCOTYLERJudge, Court of Criminal Appeals, Place 2               Mary Lou Keel                         PRECINCT 4                                             01 
01100010005000055REPCOTYLERJudge, Court of Criminal Appeals, Place 2               Mary Lou Keel                         PRECINCT 5                                             01 
01100010006000248REPCOTYLERJudge, Court of Criminal Appeals, Place 2               Mary Lou Keel                         PRECINCT 6                                             01 
01100010007000330REPCOTYLERJudge, Court of Criminal Appeals, Place 2               Mary Lou Keel                         PRECINCT 7                                             01 
01100010008000125REPCOTYLERJudge, Court of Criminal Appeals, Place 2               Mary Lou Keel                         PRECINCT 8                                             01 
01100010009000226REPCOTYLERJudge, Court of Criminal Appeals, Place 2               Mary Lou Keel                         PRECINCT 9                                             01 
01100010010000631REPCOTYLERJudge, Court of Criminal Appeals, Place 2               Mary Lou Keel                         PRECINCT 10                                            01 
01100010011000069REPCOTYLERJudge, Court of Criminal Appeals, Place 2               Mary Lou Keel                         PRECINCT 11                                            01 
01100010012000626REPCOTYLERJudge, Court of Criminal Appeals, Place 2               Mary Lou Keel                         PRECINCT 18                                            01 
01100010013000267REPCOTYLERJudge, Court of Criminal Appeals, Place 2               Mary Lou Keel                         PRECINCT 13                                            01 
01100010014000748REPCOTYLERJudge, Court of Criminal Appeals, Place 2               Mary Lou Keel                         PRECINCT 14                                            01 
01100010015000432REPCOTYLERJudge, Court of Criminal Appeals, Place 2               Mary Lou Keel                         PRECINCT 15                                            01 
01100010016000297REPCOTYLERJudge, Court of Criminal Appeals, Place 2               Mary Lou Keel                         PRECINCT 16                                            01 
01100010017000163REPCOTYLERJudge, Court of Criminal Appeals, Place 2               Mary Lou Keel                         PRECINCT 17                                            01 
01100020001000076DEMCOTYLERJudge, Court of Criminal Appeals, Place 2               Lawrence "Larry" Meyers               PRECINCT 1                                             01 
01100020002000182DEMCOTYLERJudge, Court of Criminal Appeals, Place 2               Lawrence "Larry" Meyers               PRECINCT 2                                             01 
01100020003000191DEMCOTYLERJudge, Court of Criminal Appeals, Place 2               Lawrence "Larry" Meyers               PRECINCT 3                                             01 
01100020004000108DEMCOTYLERJudge, Court of Criminal Appeals, Place 2               Lawrence "Larry" Meyers               PRECINCT 4                                             01 
01100020005000058DEMCOTYLERJudge, Court of Criminal Appeals, Place 2               Lawrence "Larry" Meyers               PRECINCT 5                                             01 
01100020006000035DEMCOTYLERJudge, Court of Criminal Appeals, Place 2               Lawrence "Larry" Meyers               PRECINCT 6                                             01 
01100020007000035DEMCOTYLERJudge, Court of Criminal Appeals, Place 2               Lawrence "Larry" Meyers               PRECINCT 7                                             01 
01100020008000015DEMCOTYLERJudge, Court of Criminal Appeals, Place 2               Lawrence "Larry" Meyers               PRECINCT 8                                             01 
01100020009000026DEMCOTYLERJudge, Court of Criminal Appeals, Place 2               Lawrence "Larry" Meyers               PRECINCT 9                                             01 
01100020010000102DEMCOTYLERJudge, Court of Criminal Appeals, Place 2               Lawrence "Larry" Meyers               PRECINCT 10                                            01 
01100020011000004DEMCOTYLERJudge, Court of Criminal Appeals, Place 2               Lawrence "Larry" Meyers               PRECINCT 11                                            01 
01100020012000125DEMCOTYLERJudge, Court of Criminal Appeals, Place 2               Lawrence "Larry" Meyers               PRECINCT 18                                            01 
01100020013000068DEMCOTYLERJudge, Court of Criminal Appeals, Place 2               Lawrence "Larry" Meyers               PRECINCT 13                                            01 
01100020014000155DEMCOTYLERJudge, Court of Criminal Appeals, Place 2               Lawrence "Larry" Meyers               PRECINCT 14                                            01 
01100020015000095DEMCOTYLERJudge, Court of Criminal Appeals, Place 2               Lawrence "Larry" Meyers               PRECINCT 15                                            01 
01100020016000031DEMCOTYLERJudge, Court of Criminal Appeals, Place 2               Lawrence "Larry" Meyers               PRECINCT 16                                            01 
01100020017000085DEMCOTYLERJudge, Court of Criminal Appeals, Place 2               Lawrence "Larry" Meyers               PRECINCT 17                                            01 
01100030001000012LIBCOTYLERJudge, Court of Criminal Appeals, Place 2               Mark Ash                              PRECINCT 1                                             01 
01100030002000009LIBCOTYLERJudge, Court of Criminal Appeals, Place 2               Mark Ash                              PRECINCT 2                                             01 
01100030003000033LIBCOTYLERJudge, Court of Criminal Appeals, Place 2               Mark Ash                              PRECINCT 3                                             01 
01100030004000012LIBCOTYLERJudge, Court of Criminal Appeals, Place 2               Mark Ash                              PRECINCT 4                                             01 
01100030005000006LIBCOTYLERJudge, Court of Criminal Appeals, Place 2               Mark Ash                              PRECINCT 5                                             01 
01100030006000009LIBCOTYLERJudge, Court of Criminal Appeals, Place 2               Mark Ash                              PRECINCT 6                                             01 
01100030007000012LIBCOTYLERJudge, Court of Criminal Appeals, Place 2               Mark Ash                              PRECINCT 7                                             01 
01100030008000008LIBCOTYLERJudge, Court of Criminal Appeals, Place 2               Mark Ash                              PRECINCT 8                                             01 
01100030009000005LIBCOTYLERJudge, Court of Criminal Appeals, Place 2               Mark Ash                              PRECINCT 9                                             01 
01100030010000019LIBCOTYLERJudge, Court of Criminal Appeals, Place 2               Mark Ash                              PRECINCT 10                                            01 
01100030011000001LIBCOTYLERJudge, Court of Criminal Appeals, Place 2               Mark Ash                              PRECINCT 11                                            01 
01100030012000032LIBCOTYLERJudge, Court of Criminal Appeals, Place 2               Mark Ash                              PRECINCT 18                                            01 
01100030013000012LIBCOTYLERJudge, Court of Criminal Appeals, Place 2               Mark Ash                              PRECINCT 13                                            01 
01100030014000021LIBCOTYLERJudge, Court of Criminal Appeals, Place 2               Mark Ash                              PRECINCT 14                                            01 
01100030015000014LIBCOTYLERJudge, Court of Criminal Appeals, Place 2               Mark Ash                              PRECINCT 15                                            01 
01100030016000010LIBCOTYLERJudge, Court of Criminal Appeals, Place 2               Mark Ash                              PRECINCT 16                                            01 
01100030017000007LIBCOTYLERJudge, Court of Criminal Appeals, Place 2               Mark Ash                              PRECINCT 17                                            01 
01100040001000000GRNCOTYLERJudge, Court of Criminal Appeals, Place 2               Adam King Blackwell Reposa            PRECINCT 1                                             01 
01100040002000002GRNCOTYLERJudge, Court of Criminal Appeals, Place 2               Adam King Blackwell Reposa            PRECINCT 2                                             01 
01100040003000005GRNCOTYLERJudge, Court of Criminal Appeals, Place 2               Adam King Blackwell Reposa            PRECINCT 3                                             01 
01100040004000005GRNCOTYLERJudge, Court of Criminal Appeals, Place 2               Adam King Blackwell Reposa            PRECINCT 4                                             01 
01100040005000003GRNCOTYLERJudge, Court of Criminal Appeals, Place 2               Adam King Blackwell Reposa            PRECINCT 5                                             01 
01100040006000001GRNCOTYLERJudge, Court of Criminal Appeals, Place 2               Adam King Blackwell Reposa            PRECINCT 6                                             01 
01100040007000000GRNCOTYLERJudge, Court of Criminal Appeals, Place 2               Adam King Blackwell Reposa            PRECINCT 7                                             01 
01100040008000000GRNCOTYLERJudge, Court of Criminal Appeals, Place 2               Adam King Blackwell Reposa            PRECINCT 8                                             01 
01100040009000002GRNCOTYLERJudge, Court of Criminal Appeals, Place 2               Adam King Blackwell Reposa            PRECINCT 9                                             01 
01100040010000007GRNCOTYLERJudge, Court of Criminal Appeals, Place 2               Adam King Blackwell Reposa            PRECINCT 10                                            01 
01100040011000000GRNCOTYLERJudge, Court of Criminal Appeals, Place 2               Adam King Blackwell Reposa            PRECINCT 11                                            01 
01100040012000007GRNCOTYLERJudge, Court of Criminal Appeals, Place 2               Adam King Blackwell Reposa            PRECINCT 18                                            01 
01100040013000007GRNCOTYLERJudge, Court of Criminal Appeals, Place 2               Adam King Blackwell Reposa            PRECINCT 13                                            01 
01100040014000009GRNCOTYLERJudge, Court of Criminal Appeals, Place 2               Adam King Blackwell Reposa            PRECINCT 14                                            01 
01100040015000000GRNCOTYLERJudge, Court of Criminal Appeals, Place 2               Adam King Blackwell Reposa            PRECINCT 15                                            01 
01100040016000003GRNCOTYLERJudge, Court of Criminal Appeals, Place 2               Adam King Blackwell Reposa            PRECINCT 16                                            01 
01100040017000000GRNCOTYLERJudge, Court of Criminal Appeals, Place 2               Adam King Blackwell Reposa            PRECINCT 17                                            01 
01110010001000337REPCOTYLERJudge, Court of Criminal Appeals, Place 5               Scott Walker                          PRECINCT 1                                             01 
01110010002000302REPCOTYLERJudge, Court of Criminal Appeals, Place 5               Scott Walker                          PRECINCT 2                                             01 
01110010003000555REPCOTYLERJudge, Court of Criminal Appeals, Place 5               Scott Walker                          PRECINCT 3                                             01 
01110010004000602REPCOTYLERJudge, Court of Criminal Appeals, Place 5               Scott Walker                          PRECINCT 4                                             01 
