01010010001000000          REGISTERED VOTERS - TOTAL                               REGISTERED VOTERS - TOTAL             PRECINCT 1                                             00 
01010010002000000          REGISTERED VOTERS - TOTAL                               REGISTERED VOTERS - TOTAL             PRECINCT 2                                             00 
01010010003000000          REGISTERED VOTERS - TOTAL                               REGISTERED VOTERS - TOTAL             PRECINCT 3                                             00 
01010010004000000          REGISTERED VOTERS - TOTAL                               REGISTERED VOTERS - TOTAL             PRECINCT 4                                             00 
01010010005000000          REGISTERED VOTERS - TOTAL                               REGISTERED VOTERS - TOTAL             PRECINCT 5                                             00 
01010010006000000          REGISTERED VOTERS - TOTAL                               REGISTERED VOTERS - TOTAL             PRECINCT 6                                             00 
01010010007000000          REGISTERED VOTERS - TOTAL                               REGISTERED VOTERS - TOTAL             PRECINCT 7                                             00 
01010010008000000          REGISTERED VOTERS - TOTAL                               REGISTERED VOTERS - TOTAL             PRECINCT 8                                             00 
01010010009000000          REGISTERED VOTERS - TOTAL                               REGISTERED VOTERS - TOTAL             PRECINCT 9                                             00 
01010010010000000          REGISTERED VOTERS - TOTAL                               REGISTERED VOTERS - TOTAL             PRECINCT 10                                            00 
01010010011000000          REGISTERED VOTERS - TOTAL                               REGISTERED VOTERS - TOTAL             PRECINCT 11                                            00 
01010010012000000          REGISTERED VOTERS - TOTAL                               REGISTERED VOTERS - TOTAL             PRECINCT 18                                            00 
01010010013000000          REGISTERED VOTERS - TOTAL                               REGISTERED VOTERS - TOTAL             PRECINCT 13                                            00 
01010010014000000          REGISTERED VOTERS - TOTAL                               REGISTERED VOTERS - TOTAL             PRECINCT 14                                            00 
01010010015000000          REGISTERED VOTERS - TOTAL                               REGISTERED VOTERS - TOTAL             PRECINCT 15                                            00 
01010010016000000          REGISTERED VOTERS - TOTAL                               REGISTERED VOTERS - TOTAL             PRECINCT 16                                            00 
01010010017000000          REGISTERED VOTERS - TOTAL                               REGISTERED VOTERS - TOTAL             PRECINCT 17                                            00 
01020010001000274          BALLOTS CAST - TOTAL                                    BALLOTS CAST - TOTAL                  PRECINCT 1                                             00 
01020010002000279          BALLOTS CAST - TOTAL                                    BALLOTS CAST - TOTAL                  PRECINCT 2                                             00 
01020010003000469          BALLOTS CAST - TOTAL                                    BALLOTS CAST - TOTAL                  PRECINCT 3                                             00 
01020010004000405          BALLOTS CAST - TOTAL                                    BALLOTS CAST - TOTAL                  PRECINCT 4                                             00 
01020010005000060          BALLOTS CAST - TOTAL                                    BALLOTS CAST - TOTAL                  PRECINCT 5                                             00 
01020010006000209          BALLOTS CAST - TOTAL                                    BALLOTS CAST - TOTAL                  PRECINCT 6                                             00 
01020010007000282          BALLOTS CAST - TOTAL                                    BALLOTS CAST - TOTAL                  PRECINCT 7                                             00 
01020010008000099          BALLOTS CAST - TOTAL                                    BALLOTS CAST - TOTAL                  PRECINCT 8                                             00 
01020010009000156          BALLOTS CAST - TOTAL                                    BALLOTS CAST - TOTAL                  PRECINCT 9                                             00 
01020010010000608          BALLOTS CAST - TOTAL                                    BALLOTS CAST - TOTAL                  PRECINCT 10                                            00 
01020010011000060          BALLOTS CAST - TOTAL                                    BALLOTS CAST - TOTAL                  PRECINCT 11                                            00 
01020010012000547          BALLOTS CAST - TOTAL                                    BALLOTS CAST - TOTAL                  PRECINCT 18                                            00 
01020010013000230          BALLOTS CAST - TOTAL                                    BALLOTS CAST - TOTAL                  PRECINCT 13                                            00 
01020010014000605          BALLOTS CAST - TOTAL                                    BALLOTS CAST - TOTAL                  PRECINCT 14                                            00 
01020010015000316          BALLOTS CAST - TOTAL                                    BALLOTS CAST - TOTAL                  PRECINCT 15                                            00 
01020010016000183          BALLOTS CAST - TOTAL                                    BALLOTS CAST - TOTAL                  PRECINCT 16                                            00 
01020010017000166          BALLOTS CAST - TOTAL                                    BALLOTS CAST - TOTAL                  PRECINCT 17                                            00 
01030010001000240REP       BALLOTS CAST - REPUBLICAN PARTY                         BALLOTS CAST - REPUBLICAN PARTY       PRECINCT 1                                             00 
01030010002000208REP       BALLOTS CAST - REPUBLICAN PARTY                         BALLOTS CAST - REPUBLICAN PARTY       PRECINCT 2                                             00 
01030010003000371REP       BALLOTS CAST - REPUBLICAN PARTY                         BALLOTS CAST - REPUBLICAN PARTY       PRECINCT 3                                             00 
01030010004000359REP       BALLOTS CAST - REPUBLICAN PARTY                         BALLOTS CAST - REPUBLICAN PARTY       PRECINCT 4                                             00 
01030010005000040REP       BALLOTS CAST - REPUBLICAN PARTY                         BALLOTS CAST - REPUBLICAN PARTY       PRECINCT 5                                             00 
01030010006000188REP       BALLOTS CAST - REPUBLICAN PARTY                         BALLOTS CAST - REPUBLICAN PARTY       PRECINCT 6                                             00 
01030010007000268REP       BALLOTS CAST - REPUBLICAN PARTY                         BALLOTS CAST - REPUBLICAN PARTY       PRECINCT 7                                             00 
01030010008000093REP       BALLOTS CAST - REPUBLICAN PARTY                         BALLOTS CAST - REPUBLICAN PARTY       PRECINCT 8                                             00 
01030010009000137REP       BALLOTS CAST - REPUBLICAN PARTY                         BALLOTS CAST - REPUBLICAN PARTY       PRECINCT 9                                             00 
01030010010000556REP       BALLOTS CAST - REPUBLICAN PARTY                         BALLOTS CAST - REPUBLICAN PARTY       PRECINCT 10                                            00 
01030010011000058REP       BALLOTS CAST - REPUBLICAN PARTY                         BALLOTS CAST - REPUBLICAN PARTY       PRECINCT 11                                            00 
01030010012000487REP       BALLOTS CAST - REPUBLICAN PARTY                         BALLOTS CAST - REPUBLICAN PARTY       PRECINCT 18                                            00 
01030010013000196REP       BALLOTS CAST - REPUBLICAN PARTY                         BALLOTS CAST - REPUBLICAN PARTY       PRECINCT 13                                            00 
01030010014000553REP       BALLOTS CAST - REPUBLICAN PARTY                         BALLOTS CAST - REPUBLICAN PARTY       PRECINCT 14                                            00 
01030010015000278REP       BALLOTS CAST - REPUBLICAN PARTY                         BALLOTS CAST - REPUBLICAN PARTY       PRECINCT 15                                            00 
01030010016000168REP       BALLOTS CAST - REPUBLICAN PARTY                         BALLOTS CAST - REPUBLICAN PARTY       PRECINCT 16                                            00 
01030010017000136REP       BALLOTS CAST - REPUBLICAN PARTY                         BALLOTS CAST - REPUBLICAN PARTY       PRECINCT 17                                            00 
01040010001000035DEM       BALLOTS CAST - DEMOCRATIC PARTY                         BALLOTS CAST - DEMOCRATIC PARTY       PRECINCT 1                                             00 
01040010002000071DEM       BALLOTS CAST - DEMOCRATIC PARTY                         BALLOTS CAST - DEMOCRATIC PARTY       PRECINCT 2                                             00 
01040010003000098DEM       BALLOTS CAST - DEMOCRATIC PARTY                         BALLOTS CAST - DEMOCRATIC PARTY       PRECINCT 3                                             00 
01040010004000046DEM       BALLOTS CAST - DEMOCRATIC PARTY                         BALLOTS CAST - DEMOCRATIC PARTY       PRECINCT 4                                             00 
01040010005000020DEM       BALLOTS CAST - DEMOCRATIC PARTY                         BALLOTS CAST - DEMOCRATIC PARTY       PRECINCT 5                                             00 
01040010006000022DEM       BALLOTS CAST - DEMOCRATIC PARTY                         BALLOTS CAST - DEMOCRATIC PARTY       PRECINCT 6                                             00 
01040010007000016DEM       BALLOTS CAST - DEMOCRATIC PARTY                         BALLOTS CAST - DEMOCRATIC PARTY       PRECINCT 7                                             00 
01040010008000006DEM       BALLOTS CAST - DEMOCRATIC PARTY                         BALLOTS CAST - DEMOCRATIC PARTY       PRECINCT 8                                             00 
01040010009000020DEM       BALLOTS CAST - DEMOCRATIC PARTY                         BALLOTS CAST - DEMOCRATIC PARTY       PRECINCT 9                                             00 
01040010010000054DEM       BALLOTS CAST - DEMOCRATIC PARTY                         BALLOTS CAST - DEMOCRATIC PARTY       PRECINCT 10                                            00 
01040010011000003DEM       BALLOTS CAST - DEMOCRATIC PARTY                         BALLOTS CAST - DEMOCRATIC PARTY       PRECINCT 11                                            00 
01040010012000062DEM       BALLOTS CAST - DEMOCRATIC PARTY                         BALLOTS CAST - DEMOCRATIC PARTY       PRECINCT 18                                            00 
01040010013000035DEM       BALLOTS CAST - DEMOCRATIC PARTY                         BALLOTS CAST - DEMOCRATIC PARTY       PRECINCT 13                                            00 
01040010014000055DEM       BALLOTS CAST - DEMOCRATIC PARTY                         BALLOTS CAST - DEMOCRATIC PARTY       PRECINCT 14                                            00 
01040010015000038DEM       BALLOTS CAST - DEMOCRATIC PARTY                         BALLOTS CAST - DEMOCRATIC PARTY       PRECINCT 15                                            00 
01040010016000015DEM       BALLOTS CAST - DEMOCRATIC PARTY                         BALLOTS CAST - DEMOCRATIC PARTY       PRECINCT 16                                            00 
01040010017000030DEM       BALLOTS CAST - DEMOCRATIC PARTY                         BALLOTS CAST - DEMOCRATIC PARTY       PRECINCT 17                                            00 
01050010001000000REP       President                                               Rand Paul                             PRECINCT 1                                             01 
01050010002000000REP       President                                               Rand Paul                             PRECINCT 2                                             01 
01050010003000000REP       President                                               Rand Paul                             PRECINCT 3                                             01 
01050010004000002REP       President                                               Rand Paul                             PRECINCT 4                                             01 
01050010005000000REP       President                                               Rand Paul                             PRECINCT 5                                             01 
01050010006000000REP       President                                               Rand Paul                             PRECINCT 6                                             01 
01050010007000002REP       President                                               Rand Paul                             PRECINCT 7                                             01 
01050010008000000REP       President                                               Rand Paul                             PRECINCT 8                                             01 
01050010009000001REP       President                                               Rand Paul                             PRECINCT 9                                             01 
01050010010000001REP       President                                               Rand Paul                             PRECINCT 10                                            01 
01050010011000000REP       President                                               Rand Paul                             PRECINCT 11                                            01 
01050010012000003REP       President                                               Rand Paul                             PRECINCT 18                                            01 
01050010013000002REP       President                                               Rand Paul                             PRECINCT 13                                            01 
01050010014000001REP       President                                               Rand Paul                             PRECINCT 14                                            01 
01050010015000000REP       President                                               Rand Paul                             PRECINCT 15                                            01 
01050010016000000REP       President                                               Rand Paul                             PRECINCT 16                                            01 
01050010017000000REP       President                                               Rand Paul                             PRECINCT 17                                            01 
01050020001000116REP       President                                               Ted Cruz                              PRECINCT 1                                             01 
01050020002000096REP       President                                               Ted Cruz                              PRECINCT 2                                             01 
01050020003000156REP       President                                               Ted Cruz                              PRECINCT 3                                             01 
01050020004000189REP       President                                               Ted Cruz                              PRECINCT 4                                             01 
01050020005000014REP       President                                               Ted Cruz                              PRECINCT 5                                             01 
01050020006000094REP       President                                               Ted Cruz                              PRECINCT 6                                             01 
01050020007000133REP       President                                               Ted Cruz                              PRECINCT 7                                             01 
01050020008000045REP       President                                               Ted Cruz                              PRECINCT 8                                             01 
01050020009000071REP       President                                               Ted Cruz                              PRECINCT 9                                             01 
01050020010000259REP       President                                               Ted Cruz                              PRECINCT 10                                            01 
01050020011000030REP       President                                               Ted Cruz                              PRECINCT 11                                            01 
01050020012000214REP       President                                               Ted Cruz                              PRECINCT 18                                            01 
01050020013000078REP       President                                               Ted Cruz                              PRECINCT 13                                            01 
01050020014000255REP       President                                               Ted Cruz                              PRECINCT 14                                            01 
01050020015000124REP       President                                               Ted Cruz                              PRECINCT 15                                            01 
01050020016000095REP       President                                               Ted Cruz                              PRECINCT 16                                            01 
01050020017000068REP       President                                               Ted Cruz                              PRECINCT 17                                            01 
01050030001000000REP       President                                               Rick Santorum                         PRECINCT 1                                             01 
01050030002000000REP       President                                               Rick Santorum                         PRECINCT 2                                             01 
01050030003000000REP       President                                               Rick Santorum                         PRECINCT 3                                             01 
01050030004000000REP       President                                               Rick Santorum                         PRECINCT 4                                             01 
01050030005000000REP       President                                               Rick Santorum                         PRECINCT 5                                             01 
01050030006000000REP       President                                               Rick Santorum                         PRECINCT 6                                             01 
01050030007000000REP       President                                               Rick Santorum                         PRECINCT 7                                             01 
01050030008000000REP       President                                               Rick Santorum                         PRECINCT 8                                             01 
01050030009000000REP       President                                               Rick Santorum                         PRECINCT 9                                             01 
01050030010000001REP       President                                               Rick Santorum                         PRECINCT 10                                            01 
01050030011000000REP       President                                               Rick Santorum                         PRECINCT 11                                            01 
01050030012000000REP       President                                               Rick Santorum                         PRECINCT 18                                            01 
01050030013000000REP       President                                               Rick Santorum                         PRECINCT 13                                            01 
01050030014000000REP       President                                               Rick Santorum                         PRECINCT 14                                            01 
01050030015000000REP       President                                               Rick Santorum                         PRECINCT 15                                            01 
01050030016000000REP       President                                               Rick Santorum                         PRECINCT 16                                            01 
01050030017000000REP       President                                               Rick Santorum                         PRECINCT 17                                            01 
01050040001000003REP       President                                               John R. Kasich                        PRECINCT 1                                             01 
01050040002000002REP       President                                               John R. Kasich                        PRECINCT 2                                             01 
01050040003000012REP       President                                               John R. Kasich                        PRECINCT 3                                             01 
01050040004000008REP       President                                               John R. Kasich                        PRECINCT 4                                             01 
01050040005000002REP       President                                               John R. Kasich                        PRECINCT 5                                             01 
01050040006000007REP       President                                               John R. Kasich                        PRECINCT 6                                             01 
01050040007000002REP       President                                               John R. Kasich                        PRECINCT 7                                             01 
01050040008000005REP       President                                               John R. Kasich                        PRECINCT 8                                             01 
01050040009000001REP       President                                               John R. Kasich                        PRECINCT 9                                             01 
01050040010000011REP       President                                               John R. Kasich                        PRECINCT 10                                            01 
01050040011000000REP       President                                               John R. Kasich                        PRECINCT 11                                            01 
01050040012000011REP       President                                               John R. Kasich                        PRECINCT 18                                            01 
01050040013000005REP       President                                               John R. Kasich                        PRECINCT 13                                            01 
01050040014000014REP       President                                               John R. Kasich                        PRECINCT 14                                            01 
01050040015000000REP       President                                               John R. Kasich                        PRECINCT 15                                            01 
01050040016000003REP       President                                               John R. Kasich                        PRECINCT 16                                            01 
01050040017000005REP       President                                               John R. Kasich                        PRECINCT 17                                            01 
01050050001000002REP       President                                               Mike Huckabee                         PRECINCT 1                                             01 
01050050002000000REP       President                                               Mike Huckabee                         PRECINCT 2                                             01 
01050050003000002REP       President                                               Mike Huckabee                         PRECINCT 3                                             01 
01050050004000001REP       President                                               Mike Huckabee                         PRECINCT 4                                             01 
01050050005000000REP       President                                               Mike Huckabee                         PRECINCT 5                                             01 
01050050006000000REP       President                                               Mike Huckabee                         PRECINCT 6                                             01 
01050050007000002REP       President                                               Mike Huckabee                         PRECINCT 7                                             01 
01050050008000000REP       President                                               Mike Huckabee                         PRECINCT 8                                             01 
01050050009000000REP       President                                               Mike Huckabee                         PRECINCT 9                                             01 
01050050010000003REP       President                                               Mike Huckabee                         PRECINCT 10                                            01 
01050050011000000REP       President                                               Mike Huckabee                         PRECINCT 11                                            01 
01050050012000001REP       President                                               Mike Huckabee                         PRECINCT 18                                            01 
01050050013000000REP       President                                               Mike Huckabee                         PRECINCT 13                                            01 
01050050014000000REP       President                                               Mike Huckabee                         PRECINCT 14                                            01 
01050050015000000REP       President                                               Mike Huckabee                         PRECINCT 15                                            01 
01050050016000000REP       President                                               Mike Huckabee                         PRECINCT 16                                            01 
01050050017000002REP       President                                               Mike Huckabee                         PRECINCT 17                                            01 
01050060001000080REP       President                                               Donald J. Trump                       PRECINCT 1                                             01 
01050060002000079REP       President                                               Donald J. Trump                       PRECINCT 2                                             01 
01050060003000148REP       President                                               Donald J. Trump                       PRECINCT 3                                             01 
01050060004000117REP       President                                               Donald J. Trump                       PRECINCT 4                                             01 
01050060005000022REP       President                                               Donald J. Trump                       PRECINCT 5                                             01 
01050060006000061REP       President                                               Donald J. Trump                       PRECINCT 6                                             01 
01050060007000072REP       President                                               Donald J. Trump                       PRECINCT 7                                             01 
01050060008000030REP       President                                               Donald J. Trump                       PRECINCT 8                                             01 
01050060009000043REP       President                                               Donald J. Trump                       PRECINCT 9                                             01 
01050060010000213REP       President                                               Donald J. Trump                       PRECINCT 10                                            01 
01050060011000017REP       President                                               Donald J. Trump                       PRECINCT 11                                            01 
01050060012000148REP       President                                               Donald J. Trump                       PRECINCT 18                                            01 
01050060013000089REP       President                                               Donald J. Trump                       PRECINCT 13                                            01 
01050060014000219REP       President                                               Donald J. Trump                       PRECINCT 14                                            01 
01050060015000113REP       President                                               Donald J. Trump                       PRECINCT 15                                            01 
01050060016000063REP       President                                               Donald J. Trump                       PRECINCT 16                                            01 
01050060017000028REP       President                                               Donald J. Trump                       PRECINCT 17                                            01 
01050070001000000REP       President                                               Chris Christie                        PRECINCT 1                                             01 
01050070002000000REP       President                                               Chris Christie                        PRECINCT 2                                             01 
01050070003000000REP       President                                               Chris Christie                        PRECINCT 3                                             01 
01050070004000000REP       President                                               Chris Christie                        PRECINCT 4                                             01 
01050070005000000REP       President                                               Chris Christie                        PRECINCT 5                                             01 
01050070006000000REP       President                                               Chris Christie                        PRECINCT 6                                             01 
01050070007000000REP       President                                               Chris Christie                        PRECINCT 7                                             01 
01050070008000000REP       President                                               Chris Christie                        PRECINCT 8                                             01 
01050070009000000REP       President                                               Chris Christie                        PRECINCT 9                                             01 
01050070010000001REP       President                                               Chris Christie                        PRECINCT 10                                            01 
01050070011000000REP       President                                               Chris Christie                        PRECINCT 11                                            01 
01050070012000002REP       President                                               Chris Christie                        PRECINCT 18                                            01 
01050070013000000REP       President                                               Chris Christie                        PRECINCT 13                                            01 
01050070014000000REP       President                                               Chris Christie                        PRECINCT 14                                            01 
01050070015000000REP       President                                               Chris Christie                        PRECINCT 15                                            01 
01050070016000000REP       President                                               Chris Christie                        PRECINCT 16                                            01 
01050070017000000REP       President                                               Chris Christie                        PRECINCT 17                                            01 
01050080001000000REP       President                                               Lindsey Graham                        PRECINCT 1                                             01 
01050080002000000REP       President                                               Lindsey Graham                        PRECINCT 2                                             01 
01050080003000000REP       President                                               Lindsey Graham                        PRECINCT 3                                             01 
01050080004000000REP       President                                               Lindsey Graham                        PRECINCT 4                                             01 
01050080005000000REP       President                                               Lindsey Graham                        PRECINCT 5                                             01 
01050080006000000REP       President                                               Lindsey Graham                        PRECINCT 6                                             01 
01050080007000000REP       President                                               Lindsey Graham                        PRECINCT 7                                             01 
01050080008000000REP       President                                               Lindsey Graham                        PRECINCT 8                                             01 
01050080009000000REP       President                                               Lindsey Graham                        PRECINCT 9                                             01 
01050080010000000REP       President                                               Lindsey Graham                        PRECINCT 10                                            01 
01050080011000000REP       President                                               Lindsey Graham                        PRECINCT 11                                            01 
01050080012000000REP       President                                               Lindsey Graham                        PRECINCT 18                                            01 
01050080013000000REP       President                                               Lindsey Graham                        PRECINCT 13                                            01 
01050080014000000REP       President                                               Lindsey Graham                        PRECINCT 14                                            01 
01050080015000000REP       President                                               Lindsey Graham                        PRECINCT 15                                            01 
01050080016000000REP       President                                               Lindsey Graham                        PRECINCT 16                                            01 
01050080017000000REP       President                                               Lindsey Graham                        PRECINCT 17                                            01 
01050090001000019REP       President                                               Marco Rubio                           PRECINCT 1                                             01 
01050090002000013REP       President                                               Marco Rubio                           PRECINCT 2                                             01 
01050090003000025REP       President                                               Marco Rubio                           PRECINCT 3                                             01 
01050090004000022REP       President                                               Marco Rubio                           PRECINCT 4                                             01 
01050090005000001REP       President                                               Marco Rubio                           PRECINCT 5                                             01 
01050090006000023REP       President                                               Marco Rubio                           PRECINCT 6                                             01 
01050090007000028REP       President                                               Marco Rubio                           PRECINCT 7                                             01 
01050090008000004REP       President                                               Marco Rubio                           PRECINCT 8                                             01 
01050090009000014REP       President                                               Marco Rubio                           PRECINCT 9                                             01 
01050090010000028REP       President                                               Marco Rubio                           PRECINCT 10                                            01 
01050090011000007REP       President                                               Marco Rubio                           PRECINCT 11                                            01 
01050090012000075REP       President                                               Marco Rubio                           PRECINCT 18                                            01 
01050090013000010REP       President                                               Marco Rubio                           PRECINCT 13                                            01 
01050090014000028REP       President                                               Marco Rubio                           PRECINCT 14                                            01 
01050090015000026REP       President                                               Marco Rubio                           PRECINCT 15                                            01 
01050090016000003REP       President                                               Marco Rubio                           PRECINCT 16                                            01 
01050090017000021REP       President                                               Marco Rubio                           PRECINCT 17                                            01 
01050100001000003REP       President                                               Jeb Bush                              PRECINCT 1                                             01 
01050100002000006REP       President                                               Jeb Bush                              PRECINCT 2                                             01 
01050100003000004REP       President                                               Jeb Bush                              PRECINCT 3                                             01 
01050100004000000REP       President                                               Jeb Bush                              PRECINCT 4                                             01 
01050100005000000REP       President                                               Jeb Bush                              PRECINCT 5                                             01 
01050100006000001REP       President                                               Jeb Bush                              PRECINCT 6                                             01 
01050100007000002REP       President                                               Jeb Bush                              PRECINCT 7                                             01 
01050100008000001REP       President                                               Jeb Bush                              PRECINCT 8                                             01 
01050100009000001REP       President                                               Jeb Bush                              PRECINCT 9                                             01 
01050100010000009REP       President                                               Jeb Bush                              PRECINCT 10                                            01 
01050100011000000REP       President                                               Jeb Bush                              PRECINCT 11                                            01 
01050100012000011REP       President                                               Jeb Bush                              PRECINCT 18                                            01 
01050100013000002REP       President                                               Jeb Bush                              PRECINCT 13                                            01 
01050100014000005REP       President                                               Jeb Bush                              PRECINCT 14                                            01 
01050100015000000REP       President                                               Jeb Bush                              PRECINCT 15                                            01 
01050100016000001REP       President                                               Jeb Bush                              PRECINCT 16                                            01 
01050100017000002REP       President                                               Jeb Bush                              PRECINCT 17                                            01 
01050110001000000REP       President                                               Elizabeth Gray                        PRECINCT 1                                             01 
01050110002000000REP       President                                               Elizabeth Gray                        PRECINCT 2                                             01 
01050110003000000REP       President                                               Elizabeth Gray                        PRECINCT 3                                             01 
01050110004000000REP       President                                               Elizabeth Gray                        PRECINCT 4                                             01 
01050110005000000REP       President                                               Elizabeth Gray                        PRECINCT 5                                             01 
01050110006000000REP       President                                               Elizabeth Gray                        PRECINCT 6                                             01 
01050110007000000REP       President                                               Elizabeth Gray                        PRECINCT 7                                             01 
01050110008000000REP       President                                               Elizabeth Gray                        PRECINCT 8                                             01 
01050110009000000REP       President                                               Elizabeth Gray                        PRECINCT 9                                             01 
01050110010000000REP       President                                               Elizabeth Gray                        PRECINCT 10                                            01 
01050110011000000REP       President                                               Elizabeth Gray                        PRECINCT 11                                            01 
01050110012000000REP       President                                               Elizabeth Gray                        PRECINCT 18                                            01 
01050110013000000REP       President                                               Elizabeth Gray                        PRECINCT 13                                            01 
01050110014000000REP       President                                               Elizabeth Gray                        PRECINCT 14                                            01 
01050110015000000REP       President                                               Elizabeth Gray                        PRECINCT 15                                            01 
01050110016000000REP       President                                               Elizabeth Gray                        PRECINCT 16                                            01 
01050110017000000REP       President                                               Elizabeth Gray                        PRECINCT 17                                            01 
01050120001000012REP       President                                               Ben Carson                            PRECINCT 1                                             01 
01050120002000008REP       President                                               Ben Carson                            PRECINCT 2                                             01 
01050120003000016REP       President                                               Ben Carson                            PRECINCT 3                                             01 
01050120004000017REP       President                                               Ben Carson                            PRECINCT 4                                             01 
01050120005000000REP       President                                               Ben Carson                            PRECINCT 5                                             01 
01050120006000002REP       President                                               Ben Carson                            PRECINCT 6                                             01 
01050120007000018REP       President                                               Ben Carson                            PRECINCT 7                                             01 
01050120008000007REP       President                                               Ben Carson                            PRECINCT 8                                             01 
01050120009000004REP       President                                               Ben Carson                            PRECINCT 9                                             01 
01050120010000010REP       President                                               Ben Carson                            PRECINCT 10                                            01 
01050120011000001REP       President                                               Ben Carson                            PRECINCT 11                                            01 
01050120012000018REP       President                                               Ben Carson                            PRECINCT 18                                            01 
01050120013000005REP       President                                               Ben Carson                            PRECINCT 13                                            01 
01050120014000016REP       President                                               Ben Carson                            PRECINCT 14                                            01 
01050120015000005REP       President                                               Ben Carson                            PRECINCT 15                                            01 
01050120016000003REP       President                                               Ben Carson                            PRECINCT 16                                            01 
01050120017000004REP       President                                               Ben Carson                            PRECINCT 17                                            01 
01050130001000000REP       President                                               Carly Fiorina                         PRECINCT 1                                             01 
01050130002000000REP       President                                               Carly Fiorina                         PRECINCT 2                                             01 
01050130003000000REP       President                                               Carly Fiorina                         PRECINCT 3                                             01 
01050130004000000REP       President                                               Carly Fiorina                         PRECINCT 4                                             01 
01050130005000000REP       President                                               Carly Fiorina                         PRECINCT 5                                             01 
01050130006000000REP       President                                               Carly Fiorina                         PRECINCT 6                                             01 
01050130007000000REP       President                                               Carly Fiorina                         PRECINCT 7                                             01 
01050130008000000REP       President                                               Carly Fiorina                         PRECINCT 8                                             01 
01050130009000000REP       President                                               Carly Fiorina                         PRECINCT 9                                             01 
01050130010000000REP       President                                               Carly Fiorina                         PRECINCT 10                                            01 
01050130011000000REP       President                                               Carly Fiorina                         PRECINCT 11                                            01 
01050130012000001REP       President                                               Carly Fiorina                         PRECINCT 18                                            01 
01050130013000000REP       President                                               Carly Fiorina                         PRECINCT 13                                            01 
01050130014000000REP       President                                               Carly Fiorina                         PRECINCT 14                                            01 
01050130015000000REP       President                                               Carly Fiorina                         PRECINCT 15                                            01 
01050130016000000REP       President                                               Carly Fiorina                         PRECINCT 16                                            01 
01050130017000000REP       President                                               Carly Fiorina                         PRECINCT 17                                            01 
01050140001000004REP       President                                               Uncommitted                           PRECINCT 1                                             01 
01050140002000004REP       President                                               Uncommitted                           PRECINCT 2                                             01 
01050140003000005REP       President                                               Uncommitted                           PRECINCT 3                                             01 
01050140004000001REP       President                                               Uncommitted                           PRECINCT 4                                             01 
01050140005000000REP       President                                               Uncommitted                           PRECINCT 5                                             01 
01050140006000000REP       President                                               Uncommitted                           PRECINCT 6                                             01 
01050140007000005REP       President                                               Uncommitted                           PRECINCT 7                                             01 
01050140008000001REP       President                                               Uncommitted                           PRECINCT 8                                             01 
01050140009000001REP       President                                               Uncommitted                           PRECINCT 9                                             01 
01050140010000012REP       President                                               Uncommitted                           PRECINCT 10                                            01 
01050140011000002REP       President                                               Uncommitted                           PRECINCT 11                                            01 
01050140012000003REP       President                                               Uncommitted                           PRECINCT 18                                            01 
01050140013000001REP       President                                               Uncommitted                           PRECINCT 13                                            01 
01050140014000004REP       President                                               Uncommitted                           PRECINCT 14                                            01 
01050140015000005REP       President                                               Uncommitted                           PRECINCT 15                                            01 
01050140016000000REP       President                                               Uncommitted                           PRECINCT 16                                            01 
01050140017000004REP       President                                               Uncommitted                           PRECINCT 17                                            01 
01050150001000000REP       President                                               OVER VOTES                            PRECINCT 1                                             01 
01050150002000000REP       President                                               OVER VOTES                            PRECINCT 2                                             01 
01050150003000001REP       President                                               OVER VOTES                            PRECINCT 3                                             01 
01050150004000001REP       President                                               OVER VOTES                            PRECINCT 4                                             01 
01050150005000000REP       President                                               OVER VOTES                            PRECINCT 5                                             01 
01050150006000000REP       President                                               OVER VOTES                            PRECINCT 6                                             01 
01050150007000000REP       President                                               OVER VOTES                            PRECINCT 7                                             01 
01050150008000000REP       President                                               OVER VOTES                            PRECINCT 8                                             01 
01050150009000000REP       President                                               OVER VOTES                            PRECINCT 9                                             01 
01050150010000000REP       President                                               OVER VOTES                            PRECINCT 10                                            01 
01050150011000000REP       President                                               OVER VOTES                            PRECINCT 11                                            01 
01050150012000000REP       President                                               OVER VOTES                            PRECINCT 18                                            01 
01050150013000000REP       President                                               OVER VOTES                            PRECINCT 13                                            01 
01050150014000000REP       President                                               OVER VOTES                            PRECINCT 14                                            01 
01050150015000000REP       President                                               OVER VOTES                            PRECINCT 15                                            01 
01050150016000000REP       President                                               OVER VOTES                            PRECINCT 16                                            01 
01050150017000000REP       President                                               OVER VOTES                            PRECINCT 17                                            01 
01050160001000001REP       President                                               UNDER VOTES                           PRECINCT 1                                             01 
01050160002000000REP       President                                               UNDER VOTES                           PRECINCT 2                                             01 
01050160003000002REP       President                                               UNDER VOTES                           PRECINCT 3                                             01 
01050160004000001REP       President                                               UNDER VOTES                           PRECINCT 4                                             01 
01050160005000001REP       President                                               UNDER VOTES                           PRECINCT 5                                             01 
01050160006000000REP       President                                               UNDER VOTES                           PRECINCT 6                                             01 
01050160007000004REP       President                                               UNDER VOTES                           PRECINCT 7                                             01 
01050160008000000REP       President                                               UNDER VOTES                           PRECINCT 8                                             01 
01050160009000001REP       President                                               UNDER VOTES                           PRECINCT 9                                             01 
01050160010000008REP       President                                               UNDER VOTES                           PRECINCT 10                                            01 
01050160011000001REP       President                                               UNDER VOTES                           PRECINCT 11                                            01 
01050160012000000REP       President                                               UNDER VOTES                           PRECINCT 18                                            01 
01050160013000004REP       President                                               UNDER VOTES                           PRECINCT 13                                            01 
01050160014000011REP       President                                               UNDER VOTES                           PRECINCT 14                                            01 
01050160015000005REP       President                                               UNDER VOTES                           PRECINCT 15                                            01 
01050160016000000REP       President                                               UNDER VOTES                           PRECINCT 16                                            01 
01050160017000002REP       President                                               UNDER VOTES                           PRECINCT 17                                            01 
01060010001000220REP       United States Representative, Dist 36                   Brian Babin                           PRECINCT 1                                             01 
01060010002000182REP       United States Representative, Dist 36                   Brian Babin                           PRECINCT 2                                             01 
01060010003000334REP       United States Representative, Dist 36                   Brian Babin                           PRECINCT 3                                             01 
01060010004000320REP       United States Representative, Dist 36                   Brian Babin                           PRECINCT 4                                             01 
01060010005000031REP       United States Representative, Dist 36                   Brian Babin                           PRECINCT 5                                             01 
01060010006000158REP       United States Representative, Dist 36                   Brian Babin                           PRECINCT 6                                             01 
01060010007000244REP       United States Representative, Dist 36                   Brian Babin                           PRECINCT 7                                             01 
01060010008000087REP       United States Representative, Dist 36                   Brian Babin                           PRECINCT 8                                             01 
01060010009000120REP       United States Representative, Dist 36                   Brian Babin                           PRECINCT 9                                             01 
01060010010000493REP       United States Representative, Dist 36                   Brian Babin                           PRECINCT 10                                            01 
01060010011000053REP       United States Representative, Dist 36                   Brian Babin                           PRECINCT 11                                            01 
01060010012000448REP       United States Representative, Dist 36                   Brian Babin                           PRECINCT 18                                            01 
01060010013000166REP       United States Representative, Dist 36                   Brian Babin                           PRECINCT 13                                            01 
01060010014000487REP       United States Representative, Dist 36                   Brian Babin                           PRECINCT 14                                            01 
01060010015000241REP       United States Representative, Dist 36                   Brian Babin                           PRECINCT 15                                            01 
01060010016000145REP       United States Representative, Dist 36                   Brian Babin                           PRECINCT 16                                            01 
01060010017000128REP       United States Representative, Dist 36                   Brian Babin                           PRECINCT 17                                            01 
01060020001000000REP       United States Representative, Dist 36                   OVER VOTES                            PRECINCT 1                                             01 
01060020002000000REP       United States Representative, Dist 36                   OVER VOTES                            PRECINCT 2                                             01 
01060020003000000REP       United States Representative, Dist 36                   OVER VOTES                            PRECINCT 3                                             01 
01060020004000000REP       United States Representative, Dist 36                   OVER VOTES                            PRECINCT 4                                             01 
01060020005000000REP       United States Representative, Dist 36                   OVER VOTES                            PRECINCT 5                                             01 
01060020006000000REP       United States Representative, Dist 36                   OVER VOTES                            PRECINCT 6                                             01 
01060020007000000REP       United States Representative, Dist 36                   OVER VOTES                            PRECINCT 7                                             01 
01060020008000000REP       United States Representative, Dist 36                   OVER VOTES                            PRECINCT 8                                             01 
01060020009000000REP       United States Representative, Dist 36                   OVER VOTES                            PRECINCT 9                                             01 
01060020010000000REP       United States Representative, Dist 36                   OVER VOTES                            PRECINCT 10                                            01 
01060020011000000REP       United States Representative, Dist 36                   OVER VOTES                            PRECINCT 11                                            01 
01060020012000000REP       United States Representative, Dist 36                   OVER VOTES                            PRECINCT 18                                            01 
01060020013000000REP       United States Representative, Dist 36                   OVER VOTES                            PRECINCT 13                                            01 
01060020014000000REP       United States Representative, Dist 36                   OVER VOTES                            PRECINCT 14                                            01 
01060020015000000REP       United States Representative, Dist 36                   OVER VOTES                            PRECINCT 15                                            01 
01060020016000000REP       United States Representative, Dist 36                   OVER VOTES                            PRECINCT 16                                            01 
01060020017000000REP       United States Representative, Dist 36                   OVER VOTES                            PRECINCT 17                                            01 
01060030001000020REP       United States Representative, Dist 36                   UNDER VOTES                           PRECINCT 1                                             01 
01060030002000026REP       United States Representative, Dist 36                   UNDER VOTES                           PRECINCT 2                                             01 
01060030003000037REP       United States Representative, Dist 36                   UNDER VOTES                           PRECINCT 3                                             01 
01060030004000039REP       United States Representative, Dist 36                   UNDER VOTES                           PRECINCT 4                                             01 
01060030005000009REP       United States Representative, Dist 36                   UNDER VOTES                           PRECINCT 5                                             01 
01060030006000030REP       United States Representative, Dist 36                   UNDER VOTES                           PRECINCT 6                                             01 
01060030007000024REP       United States Representative, Dist 36                   UNDER VOTES                           PRECINCT 7                                             01 
01060030008000006REP       United States Representative, Dist 36                   UNDER VOTES                           PRECINCT 8                                             01 
01060030009000016REP       United States Representative, Dist 36                   UNDER VOTES                           PRECINCT 9                                             01 
01060030010000063REP       United States Representative, Dist 36                   UNDER VOTES                           PRECINCT 10                                            01 
01060030011000004REP       United States Representative, Dist 36                   UNDER VOTES                           PRECINCT 11                                            01 
01060030012000039REP       United States Representative, Dist 36                   UNDER VOTES                           PRECINCT 18                                            01 
01060030013000030REP       United States Representative, Dist 36                   UNDER VOTES                           PRECINCT 13                                            01 
01060030014000065REP       United States Representative, Dist 36                   UNDER VOTES                           PRECINCT 14                                            01 
01060030015000037REP       United States Representative, Dist 36                   UNDER VOTES                           PRECINCT 15                                            01 
01060030016000023REP       United States Representative, Dist 36                   UNDER VOTES                           PRECINCT 16                                            01 
01060030017000008REP       United States Representative, Dist 36                   UNDER VOTES                           PRECINCT 17                                            01 
01070010001000070REP       Railroad Commissioner                                   Wayne Christian                       PRECINCT 1                                             01 
01070010002000064REP       Railroad Commissioner                                   Wayne Christian                       PRECINCT 2                                             01 
01070010003000090REP       Railroad Commissioner                                   Wayne Christian                       PRECINCT 3                                             01 
01070010004000098REP       Railroad Commissioner                                   Wayne Christian                       PRECINCT 4                                             01 
01070010005000013REP       Railroad Commissioner                                   Wayne Christian                       PRECINCT 5                                             01 
01070010006000041REP       Railroad Commissioner                                   Wayne Christian                       PRECINCT 6                                             01 
01070010007000098REP       Railroad Commissioner                                   Wayne Christian                       PRECINCT 7                                             01 
01070010008000026REP       Railroad Commissioner                                   Wayne Christian                       PRECINCT 8                                             01 
01070010009000044REP       Railroad Commissioner                                   Wayne Christian                       PRECINCT 9                                             01 
01070010010000165REP       Railroad Commissioner                                   Wayne Christian                       PRECINCT 10                                            01 
01070010011000023REP       Railroad Commissioner                                   Wayne Christian                       PRECINCT 11                                            01 
01070010012000156REP       Railroad Commissioner                                   Wayne Christian                       PRECINCT 18                                            01 
01070010013000060REP       Railroad Commissioner                                   Wayne Christian                       PRECINCT 13                                            01 
01070010014000163REP       Railroad Commissioner                                   Wayne Christian                       PRECINCT 14                                            01 
01070010015000063REP       Railroad Commissioner                                   Wayne Christian                       PRECINCT 15                                            01 
01070010016000034REP       Railroad Commissioner                                   Wayne Christian                       PRECINCT 16                                            01 
01070010017000044REP       Railroad Commissioner                                   Wayne Christian                       PRECINCT 17                                            01 
01070020001000023REP       Railroad Commissioner                                   Lance N. Christian                    PRECINCT 1                                             01 
01070020002000019REP       Railroad Commissioner                                   Lance N. Christian                    PRECINCT 2                                             01 
01070020003000024REP       Railroad Commissioner                                   Lance N. Christian                    PRECINCT 3                                             01 
01070020004000018REP       Railroad Commissioner                                   Lance N. Christian                    PRECINCT 4                                             01 
01070020005000004REP       Railroad Commissioner                                   Lance N. Christian                    PRECINCT 5                                             01 
01070020006000016REP       Railroad Commissioner                                   Lance N. Christian                    PRECINCT 6                                             01 
01070020007000018REP       Railroad Commissioner                                   Lance N. Christian                    PRECINCT 7                                             01 
01070020008000009REP       Railroad Commissioner                                   Lance N. Christian                    PRECINCT 8                                             01 
01070020009000008REP       Railroad Commissioner                                   Lance N. Christian                    PRECINCT 9                                             01 
01070020010000040REP       Railroad Commissioner                                   Lance N. Christian                    PRECINCT 10                                            01 
01070020011000006REP       Railroad Commissioner                                   Lance N. Christian                    PRECINCT 11                                            01 
01070020012000028REP       Railroad Commissioner                                   Lance N. Christian                    PRECINCT 18                                            01 
01070020013000011REP       Railroad Commissioner                                   Lance N. Christian                    PRECINCT 13                                            01 
01070020014000049REP       Railroad Commissioner                                   Lance N. Christian                    PRECINCT 14                                            01 
01070020015000019REP       Railroad Commissioner                                   Lance N. Christian                    PRECINCT 15                                            01 
01070020016000011REP       Railroad Commissioner                                   Lance N. Christian                    PRECINCT 16                                            01 
01070020017000007REP       Railroad Commissioner                                   Lance N. Christian                    PRECINCT 17                                            01 
01070030001000008REP       Railroad Commissioner                                   Weston Martinez                       PRECINCT 1                                             01 
01070030002000008REP       Railroad Commissioner                                   Weston Martinez                       PRECINCT 2                                             01 
01070030003000010REP       Railroad Commissioner                                   Weston Martinez                       PRECINCT 3                                             01 
01070030004000019REP       Railroad Commissioner                                   Weston Martinez                       PRECINCT 4                                             01 
01070030005000000REP       Railroad Commissioner                                   Weston Martinez                       PRECINCT 5                                             01 
01070030006000012REP       Railroad Commissioner                                   Weston Martinez                       PRECINCT 6                                             01 
01070030007000002REP       Railroad Commissioner                                   Weston Martinez                       PRECINCT 7                                             01 
01070030008000005REP       Railroad Commissioner                                   Weston Martinez                       PRECINCT 8                                             01 
01070030009000005REP       Railroad Commissioner                                   Weston Martinez                       PRECINCT 9                                             01 
01070030010000023REP       Railroad Commissioner                                   Weston Martinez                       PRECINCT 10                                            01 
01070030011000002REP       Railroad Commissioner                                   Weston Martinez                       PRECINCT 11                                            01 
01070030012000016REP       Railroad Commissioner                                   Weston Martinez                       PRECINCT 18                                            01 
01070030013000012REP       Railroad Commissioner                                   Weston Martinez                       PRECINCT 13                                            01 
01070030014000021REP       Railroad Commissioner                                   Weston Martinez                       PRECINCT 14                                            01 
01070030015000015REP       Railroad Commissioner                                   Weston Martinez                       PRECINCT 15                                            01 
01070030016000006REP       Railroad Commissioner                                   Weston Martinez                       PRECINCT 16                                            01 
01070030017000003REP       Railroad Commissioner                                   Weston Martinez                       PRECINCT 17                                            01 
01070040001000026REP       Railroad Commissioner                                   Ron Hale                              PRECINCT 1                                             01 
01070040002000022REP       Railroad Commissioner                                   Ron Hale                              PRECINCT 2                                             01 
01070040003000062REP       Railroad Commissioner                                   Ron Hale                              PRECINCT 3                                             01 
01070040004000052REP       Railroad Commissioner                                   Ron Hale                              PRECINCT 4                                             01 
01070040005000009REP       Railroad Commissioner                                   Ron Hale                              PRECINCT 5                                             01 
01070040006000028REP       Railroad Commissioner                                   Ron Hale                              PRECINCT 6                                             01 
01070040007000020REP       Railroad Commissioner                                   Ron Hale                              PRECINCT 7                                             01 
01070040008000013REP       Railroad Commissioner                                   Ron Hale                              PRECINCT 8                                             01 
01070040009000019REP       Railroad Commissioner                                   Ron Hale                              PRECINCT 9                                             01 
01070040010000069REP       Railroad Commissioner                                   Ron Hale                              PRECINCT 10                                            01 
01070040011000005REP       Railroad Commissioner                                   Ron Hale                              PRECINCT 11                                            01 
01070040012000064REP       Railroad Commissioner                                   Ron Hale                              PRECINCT 18                                            01 
01070040013000034REP       Railroad Commissioner                                   Ron Hale                              PRECINCT 13                                            01 
01070040014000087REP       Railroad Commissioner                                   Ron Hale                              PRECINCT 14                                            01 
01070040015000046REP       Railroad Commissioner                                   Ron Hale                              PRECINCT 15                                            01 
01070040016000037REP       Railroad Commissioner                                   Ron Hale                              PRECINCT 16                                            01 
01070040017000019REP       Railroad Commissioner                                   Ron Hale                              PRECINCT 17                                            01 
01070050001000007REP       Railroad Commissioner                                   John Greytok                          PRECINCT 1                                             01 
01070050002000005REP       Railroad Commissioner                                   John Greytok                          PRECINCT 2                                             01 
01070050003000013REP       Railroad Commissioner                                   John Greytok                          PRECINCT 3                                             01 
01070050004000009REP       Railroad Commissioner                                   John Greytok                          PRECINCT 4                                             01 
01070050005000002REP       Railroad Commissioner                                   John Greytok                          PRECINCT 5                                             01 
01070050006000000REP       Railroad Commissioner                                   John Greytok                          PRECINCT 6                                             01 
01070050007000003REP       Railroad Commissioner                                   John Greytok                          PRECINCT 7                                             01 
01070050008000002REP       Railroad Commissioner                                   John Greytok                          PRECINCT 8                                             01 
01070050009000000REP       Railroad Commissioner                                   John Greytok                          PRECINCT 9                                             01 
01070050010000012REP       Railroad Commissioner                                   John Greytok                          PRECINCT 10                                            01 
01070050011000002REP       Railroad Commissioner                                   John Greytok                          PRECINCT 11                                            01 
01070050012000016REP       Railroad Commissioner                                   John Greytok                          PRECINCT 18                                            01 
01070050013000010REP       Railroad Commissioner                                   John Greytok                          PRECINCT 13                                            01 
01070050014000012REP       Railroad Commissioner                                   John Greytok                          PRECINCT 14                                            01 
01070050015000008REP       Railroad Commissioner                                   John Greytok                          PRECINCT 15                                            01 
01070050016000005REP       Railroad Commissioner                                   John Greytok                          PRECINCT 16                                            01 
01070050017000002REP       Railroad Commissioner                                   John Greytok                          PRECINCT 17                                            01 
01070060001000010REP       Railroad Commissioner                                   Doug Jeffrey                          PRECINCT 1                                             01 
01070060002000008REP       Railroad Commissioner                                   Doug Jeffrey                          PRECINCT 2                                             01 
01070060003000025REP       Railroad Commissioner                                   Doug Jeffrey                          PRECINCT 3                                             01 
01070060004000021REP       Railroad Commissioner                                   Doug Jeffrey                          PRECINCT 4                                             01 
01070060005000003REP       Railroad Commissioner                                   Doug Jeffrey                          PRECINCT 5                                             01 
01070060006000010REP       Railroad Commissioner                                   Doug Jeffrey                          PRECINCT 6                                             01 
01070060007000015REP       Railroad Commissioner                                   Doug Jeffrey                          PRECINCT 7                                             01 
01070060008000004REP       Railroad Commissioner                                   Doug Jeffrey                          PRECINCT 8                                             01 
01070060009000005REP       Railroad Commissioner                                   Doug Jeffrey                          PRECINCT 9                                             01 
01070060010000026REP       Railroad Commissioner                                   Doug Jeffrey                          PRECINCT 10                                            01 
01070060011000003REP       Railroad Commissioner                                   Doug Jeffrey                          PRECINCT 11                                            01 
01070060012000025REP       Railroad Commissioner                                   Doug Jeffrey                          PRECINCT 18                                            01 
01070060013000008REP       Railroad Commissioner                                   Doug Jeffrey                          PRECINCT 13                                            01 
01070060014000034REP       Railroad Commissioner                                   Doug Jeffrey                          PRECINCT 14                                            01 
01070060015000027REP       Railroad Commissioner                                   Doug Jeffrey                          PRECINCT 15                                            01 
01070060016000010REP       Railroad Commissioner                                   Doug Jeffrey                          PRECINCT 16                                            01 
01070060017000003REP       Railroad Commissioner                                   Doug Jeffrey                          PRECINCT 17                                            01 
01070070001000021REP       Railroad Commissioner                                   Gary Gates                            PRECINCT 1                                             01 
01070070002000022REP       Railroad Commissioner                                   Gary Gates                            PRECINCT 2                                             01 
01070070003000054REP       Railroad Commissioner                                   Gary Gates                            PRECINCT 3                                             01 
01070070004000042REP       Railroad Commissioner                                   Gary Gates                            PRECINCT 4                                             01 
01070070005000002REP       Railroad Commissioner                                   Gary Gates                            PRECINCT 5                                             01 
01070070006000023REP       Railroad Commissioner                                   Gary Gates                            PRECINCT 6                                             01 
01070070007000021REP       Railroad Commissioner                                   Gary Gates                            PRECINCT 7                                             01 
01070070008000012REP       Railroad Commissioner                                   Gary Gates                            PRECINCT 8                                             01 
01070070009000009REP       Railroad Commissioner                                   Gary Gates                            PRECINCT 9                                             01 
01070070010000061REP       Railroad Commissioner                                   Gary Gates                            PRECINCT 10                                            01 
01070070011000005REP       Railroad Commissioner                                   Gary Gates                            PRECINCT 11                                            01 
01070070012000043REP       Railroad Commissioner                                   Gary Gates                            PRECINCT 18                                            01 
01070070013000012REP       Railroad Commissioner                                   Gary Gates                            PRECINCT 13                                            01 
01070070014000056REP       Railroad Commissioner                                   Gary Gates                            PRECINCT 14                                            01 
01070070015000027REP       Railroad Commissioner                                   Gary Gates                            PRECINCT 15                                            01 
01070070016000019REP       Railroad Commissioner                                   Gary Gates                            PRECINCT 16                                            01 
01070070017000015REP       Railroad Commissioner                                   Gary Gates                            PRECINCT 17                                            01 
01070080001000000REP       Railroad Commissioner                                   OVER VOTES                            PRECINCT 1                                             01 
01070080002000000REP       Railroad Commissioner                                   OVER VOTES                            PRECINCT 2                                             01 
01070080003000000REP       Railroad Commissioner                                   OVER VOTES                            PRECINCT 3                                             01 
01070080004000001REP       Railroad Commissioner                                   OVER VOTES                            PRECINCT 4                                             01 
01070080005000000REP       Railroad Commissioner                                   OVER VOTES                            PRECINCT 5                                             01 
01070080006000000REP       Railroad Commissioner                                   OVER VOTES                            PRECINCT 6                                             01 
01070080007000000REP       Railroad Commissioner                                   OVER VOTES                            PRECINCT 7                                             01 
01070080008000000REP       Railroad Commissioner                                   OVER VOTES                            PRECINCT 8                                             01 
01070080009000000REP       Railroad Commissioner                                   OVER VOTES                            PRECINCT 9                                             01 
01070080010000000REP       Railroad Commissioner                                   OVER VOTES                            PRECINCT 10                                            01 
01070080011000000REP       Railroad Commissioner                                   OVER VOTES                            PRECINCT 11                                            01 
01070080012000000REP       Railroad Commissioner                                   OVER VOTES                            PRECINCT 18                                            01 
01070080013000000REP       Railroad Commissioner                                   OVER VOTES                            PRECINCT 13                                            01 
01070080014000000REP       Railroad Commissioner                                   OVER VOTES                            PRECINCT 14                                            01 
01070080015000000REP       Railroad Commissioner                                   OVER VOTES                            PRECINCT 15                                            01 
01070080016000000REP       Railroad Commissioner                                   OVER VOTES                            PRECINCT 16                                            01 
01070080017000000REP       Railroad Commissioner                                   OVER VOTES                            PRECINCT 17                                            01 
01070090001000075REP       Railroad Commissioner                                   UNDER VOTES                           PRECINCT 1                                             01 
01070090002000060REP       Railroad Commissioner                                   UNDER VOTES                           PRECINCT 2                                             01 
01070090003000093REP       Railroad Commissioner                                   UNDER VOTES                           PRECINCT 3                                             01 
01070090004000099REP       Railroad Commissioner                                   UNDER VOTES                           PRECINCT 4                                             01 
01070090005000007REP       Railroad Commissioner                                   UNDER VOTES                           PRECINCT 5                                             01 
01070090006000058REP       Railroad Commissioner                                   UNDER VOTES                           PRECINCT 6                                             01 
01070090007000091REP       Railroad Commissioner                                   UNDER VOTES                           PRECINCT 7                                             01 
01070090008000022REP       Railroad Commissioner                                   UNDER VOTES                           PRECINCT 8                                             01 
01070090009000046REP       Railroad Commissioner                                   UNDER VOTES                           PRECINCT 9                                             01 
01070090010000160REP       Railroad Commissioner                                   UNDER VOTES                           PRECINCT 10                                            01 
01070090011000012REP       Railroad Commissioner                                   UNDER VOTES                           PRECINCT 11                                            01 
01070090012000139REP       Railroad Commissioner                                   UNDER VOTES                           PRECINCT 18                                            01 
01070090013000049REP       Railroad Commissioner                                   UNDER VOTES                           PRECINCT 13                                            01 
01070090014000129REP       Railroad Commissioner                                   UNDER VOTES                           PRECINCT 14                                            01 
01070090015000073REP       Railroad Commissioner                                   UNDER VOTES                           PRECINCT 15                                            01 
01070090016000046REP       Railroad Commissioner                                   UNDER VOTES                           PRECINCT 16                                            01 
01070090017000043REP       Railroad Commissioner                                   UNDER VOTES                           PRECINCT 17                                            01 
01080010001000085REP       Justice, Supreme Court, Place 3                         Debra Lehrmann                        PRECINCT 1                                             01 
01080010002000075REP       Justice, Supreme Court, Place 3                         Debra Lehrmann                        PRECINCT 2                                             01 
01080010003000166REP       Justice, Supreme Court, Place 3                         Debra Lehrmann                        PRECINCT 3                                             01 
01080010004000114REP       Justice, Supreme Court, Place 3                         Debra Lehrmann                        PRECINCT 4                                             01 
01080010005000020REP       Justice, Supreme Court, Place 3                         Debra Lehrmann                        PRECINCT 5                                             01 
01080010006000064REP       Justice, Supreme Court, Place 3                         Debra Lehrmann                        PRECINCT 6                                             01 
01080010007000086REP       Justice, Supreme Court, Place 3                         Debra Lehrmann                        PRECINCT 7                                             01 
01080010008000029REP       Justice, Supreme Court, Place 3                         Debra Lehrmann                        PRECINCT 8                                             01 
