01010010119003519000000000000000000000000000000          REGISTERED VOTERS - TOTAL                               REGISTERED VOTERS - TOTAL             119                                                    00 
01010010122002449000000000000000000000000000000          REGISTERED VOTERS - TOTAL                               REGISTERED VOTERS - TOTAL             122                                                    00 
01010010135003072000000000000000000000000000000          REGISTERED VOTERS - TOTAL                               REGISTERED VOTERS - TOTAL             135                                                    00 
01010010138003938000000000000000000000000000000          REGISTERED VOTERS - TOTAL                               REGISTERED VOTERS - TOTAL             138                                                    00 
01010010140001878000000000000000000000000000000          REGISTERED VOTERS - TOTAL                               REGISTERED VOTERS - TOTAL             140                                                    00 
01010010145002833000000000000000000000000000000          REGISTERED VOTERS - TOTAL                               REGISTERED VOTERS - TOTAL             145                                                    00 
01010010146004545000000000000000000000000000000          REGISTERED VOTERS - TOTAL                               REGISTERED VOTERS - TOTAL             146                                                    00 
01010010147003046000000000000000000000000000000          REGISTERED VOTERS - TOTAL                               REGISTERED VOTERS - TOTAL             147                                                    00 
01010010149002142000000000000000000000000000000          REGISTERED VOTERS - TOTAL                               REGISTERED VOTERS - TOTAL             149                                                    00 
01010010150002523000000000000000000000000000000          REGISTERED VOTERS - TOTAL                               REGISTERED VOTERS - TOTAL             150                                                    00 
01010010151002430000000000000000000000000000000          REGISTERED VOTERS - TOTAL                               REGISTERED VOTERS - TOTAL             151                                                    00 
01010010152002652000000000000000000000000000000          REGISTERED VOTERS - TOTAL                               REGISTERED VOTERS - TOTAL             152                                                    00 
01010010160004360000000000000000000000000000000          REGISTERED VOTERS - TOTAL                               REGISTERED VOTERS - TOTAL             160                                                    00 
01010010162002763000000000000000000000000000000          REGISTERED VOTERS - TOTAL                               REGISTERED VOTERS - TOTAL             162                                                    00 
01010010172002101000000000000000000000000000000          REGISTERED VOTERS - TOTAL                               REGISTERED VOTERS - TOTAL             172                                                    00 
01010010182003701000000000000000000000000000000          REGISTERED VOTERS - TOTAL                               REGISTERED VOTERS - TOTAL             182                                                    00 
01010010185001598000000000000000000000000000000          REGISTERED VOTERS - TOTAL                               REGISTERED VOTERS - TOTAL             185                                                    00 
01010010186002521000000000000000000000000000000          REGISTERED VOTERS - TOTAL                               REGISTERED VOTERS - TOTAL             186                                                    00 
01010010189002627000000000000000000000000000000          REGISTERED VOTERS - TOTAL                               REGISTERED VOTERS - TOTAL             189                                                    00 
01010010190004509000000000000000000000000000000          REGISTERED VOTERS - TOTAL                               REGISTERED VOTERS - TOTAL             190                                                    00 
01010010197002557000000000000000000000000000000          REGISTERED VOTERS - TOTAL                               REGISTERED VOTERS - TOTAL             197                                                    00 
01010010198003863000000000000000000000000000000          REGISTERED VOTERS - TOTAL                               REGISTERED VOTERS - TOTAL             198                                                    00 
01010010201005161000000000000000000000000000000          REGISTERED VOTERS - TOTAL                               REGISTERED VOTERS - TOTAL             201                                                    00 
01010010204004796000000000000000000000000000000          REGISTERED VOTERS - TOTAL                               REGISTERED VOTERS - TOTAL             204                                                    00 
01010010206002754000000000000000000000000000000          REGISTERED VOTERS - TOTAL                               REGISTERED VOTERS - TOTAL             206                                                    00 
01010010207004514000000000000000000000000000000          REGISTERED VOTERS - TOTAL                               REGISTERED VOTERS - TOTAL             207                                                    00 
01010010216002419000000000000000000000000000000          REGISTERED VOTERS - TOTAL                               REGISTERED VOTERS - TOTAL             216                                                    00 
01010010218003034000000000000000000000000000000          REGISTERED VOTERS - TOTAL                               REGISTERED VOTERS - TOTAL             218                                                    00 
01010010253005442000000000000000000000000000000          REGISTERED VOTERS - TOTAL                               REGISTERED VOTERS - TOTAL             253                                                    00 
01010010254003292000000000000000000000000000000          REGISTERED VOTERS - TOTAL                               REGISTERED VOTERS - TOTAL             254                                                    00 
01010010259004843000000000000000000000000000000          REGISTERED VOTERS - TOTAL                               REGISTERED VOTERS - TOTAL             259                                                    00 
01010010264003929000000000000000000000000000000          REGISTERED VOTERS - TOTAL                               REGISTERED VOTERS - TOTAL             264                                                    00 
01010010266003503000000000000000000000000000000          REGISTERED VOTERS - TOTAL                               REGISTERED VOTERS - TOTAL             266                                                    00 
01010010267002216000000000000000000000000000000          REGISTERED VOTERS - TOTAL                               REGISTERED VOTERS - TOTAL             267                                                    00 
01010010273002442000000000000000000000000000000          REGISTERED VOTERS - TOTAL                               REGISTERED VOTERS - TOTAL             273                                                    00 
01010010274003565000000000000000000000000000000          REGISTERED VOTERS - TOTAL                               REGISTERED VOTERS - TOTAL             274                                                    00 
01010010275002904000000000000000000000000000000          REGISTERED VOTERS - TOTAL                               REGISTERED VOTERS - TOTAL             275                                                    00 
01010010277004811000000000000000000000000000000          REGISTERED VOTERS - TOTAL                               REGISTERED VOTERS - TOTAL             277                                                    00 
01010010278005330000000000000000000000000000000          REGISTERED VOTERS - TOTAL                               REGISTERED VOTERS - TOTAL             278                                                    00 
01010010283004518000000000000000000000000000000          REGISTERED VOTERS - TOTAL                               REGISTERED VOTERS - TOTAL             283                                                    00 
01010010287004672000000000000000000000000000000          REGISTERED VOTERS - TOTAL                               REGISTERED VOTERS - TOTAL             287                                                    00 
01010010305002604000000000000000000000000000000          REGISTERED VOTERS - TOTAL                               REGISTERED VOTERS - TOTAL             305                                                    00 
01010010309001222000000000000000000000000000000          REGISTERED VOTERS - TOTAL                               REGISTERED VOTERS - TOTAL             309                                                    00 
01010010310001668000000000000000000000000000000          REGISTERED VOTERS - TOTAL                               REGISTERED VOTERS - TOTAL             310                                                    00 
01010010311001798000000000000000000000000000000          REGISTERED VOTERS - TOTAL                               REGISTERED VOTERS - TOTAL             311                                                    00 
01010010312003389000000000000000000000000000000          REGISTERED VOTERS - TOTAL                               REGISTERED VOTERS - TOTAL             312                                                    00 
01010010314003079000000000000000000000000000000          REGISTERED VOTERS - TOTAL                               REGISTERED VOTERS - TOTAL             314                                                    00 
01010010330003896000000000000000000000000000000          REGISTERED VOTERS - TOTAL                               REGISTERED VOTERS - TOTAL             330                                                    00 
01010010331002852000000000000000000000000000000          REGISTERED VOTERS - TOTAL                               REGISTERED VOTERS - TOTAL             331                                                    00 
01010010332003109000000000000000000000000000000          REGISTERED VOTERS - TOTAL                               REGISTERED VOTERS - TOTAL             332                                                    00 
01010010333003537000000000000000000000000000000          REGISTERED VOTERS - TOTAL                               REGISTERED VOTERS - TOTAL             333                                                    00 
01010010337004124000000000000000000000000000000          REGISTERED VOTERS - TOTAL                               REGISTERED VOTERS - TOTAL             337                                                    00 
01010010339002426000000000000000000000000000000          REGISTERED VOTERS - TOTAL                               REGISTERED VOTERS - TOTAL             339                                                    00 
01010010341002072000000000000000000000000000000          REGISTERED VOTERS - TOTAL                               REGISTERED VOTERS - TOTAL             341                                                    00 
01010010342001086000000000000000000000000000000          REGISTERED VOTERS - TOTAL                               REGISTERED VOTERS - TOTAL             342                                                    00 
01010010343004461000000000000000000000000000000          REGISTERED VOTERS - TOTAL                               REGISTERED VOTERS - TOTAL             343                                                    00 
01010010344002448000000000000000000000000000000          REGISTERED VOTERS - TOTAL                               REGISTERED VOTERS - TOTAL             344                                                    00 
01010010368002279000000000000000000000000000000          REGISTERED VOTERS - TOTAL                               REGISTERED VOTERS - TOTAL             368                                                    00 
01010010369002955000000000000000000000000000000          REGISTERED VOTERS - TOTAL                               REGISTERED VOTERS - TOTAL             369                                                    00 
01010010370004417000000000000000000000000000000          REGISTERED VOTERS - TOTAL                               REGISTERED VOTERS - TOTAL             370                                                    00 
01010010371002430000000000000000000000000000000          REGISTERED VOTERS - TOTAL                               REGISTERED VOTERS - TOTAL             371                                                    00 
01010010379004445000000000000000000000000000000          REGISTERED VOTERS - TOTAL                               REGISTERED VOTERS - TOTAL             379                                                    00 
01010010381003361000000000000000000000000000000          REGISTERED VOTERS - TOTAL                               REGISTERED VOTERS - TOTAL             381                                                    00 
01010010392004140000000000000000000000000000000          REGISTERED VOTERS - TOTAL                               REGISTERED VOTERS - TOTAL             392                                                    00 
01010010394005684000000000000000000000000000000          REGISTERED VOTERS - TOTAL                               REGISTERED VOTERS - TOTAL             394                                                    00 
01010010395002569000000000000000000000000000000          REGISTERED VOTERS - TOTAL                               REGISTERED VOTERS - TOTAL             395                                                    00 
01010010396003481000000000000000000000000000000          REGISTERED VOTERS - TOTAL                               REGISTERED VOTERS - TOTAL             396                                                    00 
01010010402004482000000000000000000000000000000          REGISTERED VOTERS - TOTAL                               REGISTERED VOTERS - TOTAL             402                                                    00 
01010010403002164000000000000000000000000000000          REGISTERED VOTERS - TOTAL                               REGISTERED VOTERS - TOTAL             403                                                    00 
01010010413000542000000000000000000000000000000          REGISTERED VOTERS - TOTAL                               REGISTERED VOTERS - TOTAL             413                                                    00 
01010010415001715000000000000000000000000000000          REGISTERED VOTERS - TOTAL                               REGISTERED VOTERS - TOTAL             415                                                    00 
01010010420003870000000000000000000000000000000          REGISTERED VOTERS - TOTAL                               REGISTERED VOTERS - TOTAL             420                                                    00 
01010010423003703000000000000000000000000000000          REGISTERED VOTERS - TOTAL                               REGISTERED VOTERS - TOTAL             423                                                    00 
01010010424006232000000000000000000000000000000          REGISTERED VOTERS - TOTAL                               REGISTERED VOTERS - TOTAL             424                                                    00 
01010010425000658000000000000000000000000000000          REGISTERED VOTERS - TOTAL                               REGISTERED VOTERS - TOTAL             425                                                    00 
01010010426001801000000000000000000000000000000          REGISTERED VOTERS - TOTAL                               REGISTERED VOTERS - TOTAL             426                                                    00 
01010010427002518000000000000000000000000000000          REGISTERED VOTERS - TOTAL                               REGISTERED VOTERS - TOTAL             427                                                    00 
01010010428002559000000000000000000000000000000          REGISTERED VOTERS - TOTAL                               REGISTERED VOTERS - TOTAL             428                                                    00 
01010010429001473000000000000000000000000000000          REGISTERED VOTERS - TOTAL                               REGISTERED VOTERS - TOTAL             429                                                    00 
01010010434002704000000000000000000000000000000          REGISTERED VOTERS - TOTAL                               REGISTERED VOTERS - TOTAL             434                                                    00 
01010010436000773000000000000000000000000000000          REGISTERED VOTERS - TOTAL                               REGISTERED VOTERS - TOTAL             436                                                    00 
01010010455002519000000000000000000000000000000          REGISTERED VOTERS - TOTAL                               REGISTERED VOTERS - TOTAL             455                                                    00 
01010010456001795000000000000000000000000000000          REGISTERED VOTERS - TOTAL                               REGISTERED VOTERS - TOTAL             456                                                    00 
01010010463004603000000000000000000000000000000          REGISTERED VOTERS - TOTAL                               REGISTERED VOTERS - TOTAL             463                                                    00 
01010010480004578000000000000000000000000000000          REGISTERED VOTERS - TOTAL                               REGISTERED VOTERS - TOTAL             480                                                    00 
01010010484004110000000000000000000000000000000          REGISTERED VOTERS - TOTAL                               REGISTERED VOTERS - TOTAL             484                                                    00 
01010010488005096000000000000000000000000000000          REGISTERED VOTERS - TOTAL                               REGISTERED VOTERS - TOTAL             488                                                    00 
01010010491004829000000000000000000000000000000          REGISTERED VOTERS - TOTAL                               REGISTERED VOTERS - TOTAL             491                                                    00 
01020010119000000000000000000000000000000000000DEM       REGISTERED VOTERS - DEMOCRATIC PARTY                    REGISTERED VOTERS - DEMOCRATIC PARTY  119                                                    00 
01020010122000000000000000000000000000000000000DEM       REGISTERED VOTERS - DEMOCRATIC PARTY                    REGISTERED VOTERS - DEMOCRATIC PARTY  122                                                    00 
01020010135000000000000000000000000000000000000DEM       REGISTERED VOTERS - DEMOCRATIC PARTY                    REGISTERED VOTERS - DEMOCRATIC PARTY  135                                                    00 
01020010138000000000000000000000000000000000000DEM       REGISTERED VOTERS - DEMOCRATIC PARTY                    REGISTERED VOTERS - DEMOCRATIC PARTY  138                                                    00 
01020010140000000000000000000000000000000000000DEM       REGISTERED VOTERS - DEMOCRATIC PARTY                    REGISTERED VOTERS - DEMOCRATIC PARTY  140                                                    00 
01020010145000000000000000000000000000000000000DEM       REGISTERED VOTERS - DEMOCRATIC PARTY                    REGISTERED VOTERS - DEMOCRATIC PARTY  145                                                    00 
01020010146000000000000000000000000000000000000DEM       REGISTERED VOTERS - DEMOCRATIC PARTY                    REGISTERED VOTERS - DEMOCRATIC PARTY  146                                                    00 
01020010147000000000000000000000000000000000000DEM       REGISTERED VOTERS - DEMOCRATIC PARTY                    REGISTERED VOTERS - DEMOCRATIC PARTY  147                                                    00 
01020010149000000000000000000000000000000000000DEM       REGISTERED VOTERS - DEMOCRATIC PARTY                    REGISTERED VOTERS - DEMOCRATIC PARTY  149                                                    00 
01020010150000000000000000000000000000000000000DEM       REGISTERED VOTERS - DEMOCRATIC PARTY                    REGISTERED VOTERS - DEMOCRATIC PARTY  150                                                    00 
01020010151000000000000000000000000000000000000DEM       REGISTERED VOTERS - DEMOCRATIC PARTY                    REGISTERED VOTERS - DEMOCRATIC PARTY  151                                                    00 
01020010152000000000000000000000000000000000000DEM       REGISTERED VOTERS - DEMOCRATIC PARTY                    REGISTERED VOTERS - DEMOCRATIC PARTY  152                                                    00 
01020010160000000000000000000000000000000000000DEM       REGISTERED VOTERS - DEMOCRATIC PARTY                    REGISTERED VOTERS - DEMOCRATIC PARTY  160                                                    00 
01020010162000000000000000000000000000000000000DEM       REGISTERED VOTERS - DEMOCRATIC PARTY                    REGISTERED VOTERS - DEMOCRATIC PARTY  162                                                    00 
01020010172000000000000000000000000000000000000DEM       REGISTERED VOTERS - DEMOCRATIC PARTY                    REGISTERED VOTERS - DEMOCRATIC PARTY  172                                                    00 
01020010182000000000000000000000000000000000000DEM       REGISTERED VOTERS - DEMOCRATIC PARTY                    REGISTERED VOTERS - DEMOCRATIC PARTY  182                                                    00 
01020010185000000000000000000000000000000000000DEM       REGISTERED VOTERS - DEMOCRATIC PARTY                    REGISTERED VOTERS - DEMOCRATIC PARTY  185                                                    00 
01020010186000000000000000000000000000000000000DEM       REGISTERED VOTERS - DEMOCRATIC PARTY                    REGISTERED VOTERS - DEMOCRATIC PARTY  186                                                    00 
01020010189000000000000000000000000000000000000DEM       REGISTERED VOTERS - DEMOCRATIC PARTY                    REGISTERED VOTERS - DEMOCRATIC PARTY  189                                                    00 
01020010190000000000000000000000000000000000000DEM       REGISTERED VOTERS - DEMOCRATIC PARTY                    REGISTERED VOTERS - DEMOCRATIC PARTY  190                                                    00 
01020010197000000000000000000000000000000000000DEM       REGISTERED VOTERS - DEMOCRATIC PARTY                    REGISTERED VOTERS - DEMOCRATIC PARTY  197                                                    00 
01020010198000000000000000000000000000000000000DEM       REGISTERED VOTERS - DEMOCRATIC PARTY                    REGISTERED VOTERS - DEMOCRATIC PARTY  198                                                    00 
01020010201000000000000000000000000000000000000DEM       REGISTERED VOTERS - DEMOCRATIC PARTY                    REGISTERED VOTERS - DEMOCRATIC PARTY  201                                                    00 
01020010204000000000000000000000000000000000000DEM       REGISTERED VOTERS - DEMOCRATIC PARTY                    REGISTERED VOTERS - DEMOCRATIC PARTY  204                                                    00 
01020010206000000000000000000000000000000000000DEM       REGISTERED VOTERS - DEMOCRATIC PARTY                    REGISTERED VOTERS - DEMOCRATIC PARTY  206                                                    00 
01020010207000000000000000000000000000000000000DEM       REGISTERED VOTERS - DEMOCRATIC PARTY                    REGISTERED VOTERS - DEMOCRATIC PARTY  207                                                    00 
01020010216000000000000000000000000000000000000DEM       REGISTERED VOTERS - DEMOCRATIC PARTY                    REGISTERED VOTERS - DEMOCRATIC PARTY  216                                                    00 
01020010218000000000000000000000000000000000000DEM       REGISTERED VOTERS - DEMOCRATIC PARTY                    REGISTERED VOTERS - DEMOCRATIC PARTY  218                                                    00 
01020010253000000000000000000000000000000000000DEM       REGISTERED VOTERS - DEMOCRATIC PARTY                    REGISTERED VOTERS - DEMOCRATIC PARTY  253                                                    00 
01020010254000000000000000000000000000000000000DEM       REGISTERED VOTERS - DEMOCRATIC PARTY                    REGISTERED VOTERS - DEMOCRATIC PARTY  254                                                    00 
01020010259000000000000000000000000000000000000DEM       REGISTERED VOTERS - DEMOCRATIC PARTY                    REGISTERED VOTERS - DEMOCRATIC PARTY  259                                                    00 
01020010264000000000000000000000000000000000000DEM       REGISTERED VOTERS - DEMOCRATIC PARTY                    REGISTERED VOTERS - DEMOCRATIC PARTY  264                                                    00 
01020010266000000000000000000000000000000000000DEM       REGISTERED VOTERS - DEMOCRATIC PARTY                    REGISTERED VOTERS - DEMOCRATIC PARTY  266                                                    00 
01020010267000000000000000000000000000000000000DEM       REGISTERED VOTERS - DEMOCRATIC PARTY                    REGISTERED VOTERS - DEMOCRATIC PARTY  267                                                    00 
01020010273000000000000000000000000000000000000DEM       REGISTERED VOTERS - DEMOCRATIC PARTY                    REGISTERED VOTERS - DEMOCRATIC PARTY  273                                                    00 
01020010274000000000000000000000000000000000000DEM       REGISTERED VOTERS - DEMOCRATIC PARTY                    REGISTERED VOTERS - DEMOCRATIC PARTY  274                                                    00 
01020010275000000000000000000000000000000000000DEM       REGISTERED VOTERS - DEMOCRATIC PARTY                    REGISTERED VOTERS - DEMOCRATIC PARTY  275                                                    00 
01020010277000000000000000000000000000000000000DEM       REGISTERED VOTERS - DEMOCRATIC PARTY                    REGISTERED VOTERS - DEMOCRATIC PARTY  277                                                    00 
01020010278000000000000000000000000000000000000DEM       REGISTERED VOTERS - DEMOCRATIC PARTY                    REGISTERED VOTERS - DEMOCRATIC PARTY  278                                                    00 
01020010283000000000000000000000000000000000000DEM       REGISTERED VOTERS - DEMOCRATIC PARTY                    REGISTERED VOTERS - DEMOCRATIC PARTY  283                                                    00 
01020010287000000000000000000000000000000000000DEM       REGISTERED VOTERS - DEMOCRATIC PARTY                    REGISTERED VOTERS - DEMOCRATIC PARTY  287                                                    00 
01020010305000000000000000000000000000000000000DEM       REGISTERED VOTERS - DEMOCRATIC PARTY                    REGISTERED VOTERS - DEMOCRATIC PARTY  305                                                    00 
01020010309000000000000000000000000000000000000DEM       REGISTERED VOTERS - DEMOCRATIC PARTY                    REGISTERED VOTERS - DEMOCRATIC PARTY  309                                                    00 
01020010310000000000000000000000000000000000000DEM       REGISTERED VOTERS - DEMOCRATIC PARTY                    REGISTERED VOTERS - DEMOCRATIC PARTY  310                                                    00 
01020010311000000000000000000000000000000000000DEM       REGISTERED VOTERS - DEMOCRATIC PARTY                    REGISTERED VOTERS - DEMOCRATIC PARTY  311                                                    00 
01020010312000000000000000000000000000000000000DEM       REGISTERED VOTERS - DEMOCRATIC PARTY                    REGISTERED VOTERS - DEMOCRATIC PARTY  312                                                    00 
01020010314000000000000000000000000000000000000DEM       REGISTERED VOTERS - DEMOCRATIC PARTY                    REGISTERED VOTERS - DEMOCRATIC PARTY  314                                                    00 
01020010330000000000000000000000000000000000000DEM       REGISTERED VOTERS - DEMOCRATIC PARTY                    REGISTERED VOTERS - DEMOCRATIC PARTY  330                                                    00 
01020010331000000000000000000000000000000000000DEM       REGISTERED VOTERS - DEMOCRATIC PARTY                    REGISTERED VOTERS - DEMOCRATIC PARTY  331                                                    00 
01020010332000000000000000000000000000000000000DEM       REGISTERED VOTERS - DEMOCRATIC PARTY                    REGISTERED VOTERS - DEMOCRATIC PARTY  332                                                    00 
01020010333000000000000000000000000000000000000DEM       REGISTERED VOTERS - DEMOCRATIC PARTY                    REGISTERED VOTERS - DEMOCRATIC PARTY  333                                                    00 
01020010337000000000000000000000000000000000000DEM       REGISTERED VOTERS - DEMOCRATIC PARTY                    REGISTERED VOTERS - DEMOCRATIC PARTY  337                                                    00 
01020010339000000000000000000000000000000000000DEM       REGISTERED VOTERS - DEMOCRATIC PARTY                    REGISTERED VOTERS - DEMOCRATIC PARTY  339                                                    00 
01020010341000000000000000000000000000000000000DEM       REGISTERED VOTERS - DEMOCRATIC PARTY                    REGISTERED VOTERS - DEMOCRATIC PARTY  341                                                    00 
01020010342000000000000000000000000000000000000DEM       REGISTERED VOTERS - DEMOCRATIC PARTY                    REGISTERED VOTERS - DEMOCRATIC PARTY  342                                                    00 
01020010343000000000000000000000000000000000000DEM       REGISTERED VOTERS - DEMOCRATIC PARTY                    REGISTERED VOTERS - DEMOCRATIC PARTY  343                                                    00 
01020010344000000000000000000000000000000000000DEM       REGISTERED VOTERS - DEMOCRATIC PARTY                    REGISTERED VOTERS - DEMOCRATIC PARTY  344                                                    00 
01020010368000000000000000000000000000000000000DEM       REGISTERED VOTERS - DEMOCRATIC PARTY                    REGISTERED VOTERS - DEMOCRATIC PARTY  368                                                    00 
01020010369000000000000000000000000000000000000DEM       REGISTERED VOTERS - DEMOCRATIC PARTY                    REGISTERED VOTERS - DEMOCRATIC PARTY  369                                                    00 
01020010370000000000000000000000000000000000000DEM       REGISTERED VOTERS - DEMOCRATIC PARTY                    REGISTERED VOTERS - DEMOCRATIC PARTY  370                                                    00 
01020010371000000000000000000000000000000000000DEM       REGISTERED VOTERS - DEMOCRATIC PARTY                    REGISTERED VOTERS - DEMOCRATIC PARTY  371                                                    00 
01020010379000000000000000000000000000000000000DEM       REGISTERED VOTERS - DEMOCRATIC PARTY                    REGISTERED VOTERS - DEMOCRATIC PARTY  379                                                    00 
01020010381000000000000000000000000000000000000DEM       REGISTERED VOTERS - DEMOCRATIC PARTY                    REGISTERED VOTERS - DEMOCRATIC PARTY  381                                                    00 
01020010392000000000000000000000000000000000000DEM       REGISTERED VOTERS - DEMOCRATIC PARTY                    REGISTERED VOTERS - DEMOCRATIC PARTY  392                                                    00 
01020010394000000000000000000000000000000000000DEM       REGISTERED VOTERS - DEMOCRATIC PARTY                    REGISTERED VOTERS - DEMOCRATIC PARTY  394                                                    00 
01020010395000000000000000000000000000000000000DEM       REGISTERED VOTERS - DEMOCRATIC PARTY                    REGISTERED VOTERS - DEMOCRATIC PARTY  395                                                    00 
01020010396000000000000000000000000000000000000DEM       REGISTERED VOTERS - DEMOCRATIC PARTY                    REGISTERED VOTERS - DEMOCRATIC PARTY  396                                                    00 
01020010402000000000000000000000000000000000000DEM       REGISTERED VOTERS - DEMOCRATIC PARTY                    REGISTERED VOTERS - DEMOCRATIC PARTY  402                                                    00 
01020010403000000000000000000000000000000000000DEM       REGISTERED VOTERS - DEMOCRATIC PARTY                    REGISTERED VOTERS - DEMOCRATIC PARTY  403                                                    00 
01020010413000000000000000000000000000000000000DEM       REGISTERED VOTERS - DEMOCRATIC PARTY                    REGISTERED VOTERS - DEMOCRATIC PARTY  413                                                    00 
01020010415000000000000000000000000000000000000DEM       REGISTERED VOTERS - DEMOCRATIC PARTY                    REGISTERED VOTERS - DEMOCRATIC PARTY  415                                                    00 
01020010420000000000000000000000000000000000000DEM       REGISTERED VOTERS - DEMOCRATIC PARTY                    REGISTERED VOTERS - DEMOCRATIC PARTY  420                                                    00 
01020010423000000000000000000000000000000000000DEM       REGISTERED VOTERS - DEMOCRATIC PARTY                    REGISTERED VOTERS - DEMOCRATIC PARTY  423                                                    00 
01020010424000000000000000000000000000000000000DEM       REGISTERED VOTERS - DEMOCRATIC PARTY                    REGISTERED VOTERS - DEMOCRATIC PARTY  424                                                    00 
01020010425000000000000000000000000000000000000DEM       REGISTERED VOTERS - DEMOCRATIC PARTY                    REGISTERED VOTERS - DEMOCRATIC PARTY  425                                                    00 
01020010426000000000000000000000000000000000000DEM       REGISTERED VOTERS - DEMOCRATIC PARTY                    REGISTERED VOTERS - DEMOCRATIC PARTY  426                                                    00 
01020010427000000000000000000000000000000000000DEM       REGISTERED VOTERS - DEMOCRATIC PARTY                    REGISTERED VOTERS - DEMOCRATIC PARTY  427                                                    00 
01020010428000000000000000000000000000000000000DEM       REGISTERED VOTERS - DEMOCRATIC PARTY                    REGISTERED VOTERS - DEMOCRATIC PARTY  428                                                    00 
01020010429000000000000000000000000000000000000DEM       REGISTERED VOTERS - DEMOCRATIC PARTY                    REGISTERED VOTERS - DEMOCRATIC PARTY  429                                                    00 
01020010434000000000000000000000000000000000000DEM       REGISTERED VOTERS - DEMOCRATIC PARTY                    REGISTERED VOTERS - DEMOCRATIC PARTY  434                                                    00 
01020010436000000000000000000000000000000000000DEM       REGISTERED VOTERS - DEMOCRATIC PARTY                    REGISTERED VOTERS - DEMOCRATIC PARTY  436                                                    00 
01020010455000000000000000000000000000000000000DEM       REGISTERED VOTERS - DEMOCRATIC PARTY                    REGISTERED VOTERS - DEMOCRATIC PARTY  455                                                    00 
01020010456000000000000000000000000000000000000DEM       REGISTERED VOTERS - DEMOCRATIC PARTY                    REGISTERED VOTERS - DEMOCRATIC PARTY  456                                                    00 
01020010463000000000000000000000000000000000000DEM       REGISTERED VOTERS - DEMOCRATIC PARTY                    REGISTERED VOTERS - DEMOCRATIC PARTY  463                                                    00 
01020010480000000000000000000000000000000000000DEM       REGISTERED VOTERS - DEMOCRATIC PARTY                    REGISTERED VOTERS - DEMOCRATIC PARTY  480                                                    00 
01020010484000000000000000000000000000000000000DEM       REGISTERED VOTERS - DEMOCRATIC PARTY                    REGISTERED VOTERS - DEMOCRATIC PARTY  484                                                    00 
01020010488000000000000000000000000000000000000DEM       REGISTERED VOTERS - DEMOCRATIC PARTY                    REGISTERED VOTERS - DEMOCRATIC PARTY  488                                                    00 
01020010491000000000000000000000000000000000000DEM       REGISTERED VOTERS - DEMOCRATIC PARTY                    REGISTERED VOTERS - DEMOCRATIC PARTY  491                                                    00 
01030010119000000000000000000000000000000000000REP       REGISTERED VOTERS - REPUBLICAN PARTY                    REGISTERED VOTERS - REPUBLICAN PARTY  119                                                    00 
01030010122000000000000000000000000000000000000REP       REGISTERED VOTERS - REPUBLICAN PARTY                    REGISTERED VOTERS - REPUBLICAN PARTY  122                                                    00 
01030010135000000000000000000000000000000000000REP       REGISTERED VOTERS - REPUBLICAN PARTY                    REGISTERED VOTERS - REPUBLICAN PARTY  135                                                    00 
01030010138000000000000000000000000000000000000REP       REGISTERED VOTERS - REPUBLICAN PARTY                    REGISTERED VOTERS - REPUBLICAN PARTY  138                                                    00 
01030010140000000000000000000000000000000000000REP       REGISTERED VOTERS - REPUBLICAN PARTY                    REGISTERED VOTERS - REPUBLICAN PARTY  140                                                    00 
01030010145000000000000000000000000000000000000REP       REGISTERED VOTERS - REPUBLICAN PARTY                    REGISTERED VOTERS - REPUBLICAN PARTY  145                                                    00 
01030010146000000000000000000000000000000000000REP       REGISTERED VOTERS - REPUBLICAN PARTY                    REGISTERED VOTERS - REPUBLICAN PARTY  146                                                    00 
01030010147000000000000000000000000000000000000REP       REGISTERED VOTERS - REPUBLICAN PARTY                    REGISTERED VOTERS - REPUBLICAN PARTY  147                                                    00 
01030010149000000000000000000000000000000000000REP       REGISTERED VOTERS - REPUBLICAN PARTY                    REGISTERED VOTERS - REPUBLICAN PARTY  149                                                    00 
01030010150000000000000000000000000000000000000REP       REGISTERED VOTERS - REPUBLICAN PARTY                    REGISTERED VOTERS - REPUBLICAN PARTY  150                                                    00 
01030010151000000000000000000000000000000000000REP       REGISTERED VOTERS - REPUBLICAN PARTY                    REGISTERED VOTERS - REPUBLICAN PARTY  151                                                    00 
01030010152000000000000000000000000000000000000REP       REGISTERED VOTERS - REPUBLICAN PARTY                    REGISTERED VOTERS - REPUBLICAN PARTY  152                                                    00 
01030010160000000000000000000000000000000000000REP       REGISTERED VOTERS - REPUBLICAN PARTY                    REGISTERED VOTERS - REPUBLICAN PARTY  160                                                    00 
01030010162000000000000000000000000000000000000REP       REGISTERED VOTERS - REPUBLICAN PARTY                    REGISTERED VOTERS - REPUBLICAN PARTY  162                                                    00 
01030010172000000000000000000000000000000000000REP       REGISTERED VOTERS - REPUBLICAN PARTY                    REGISTERED VOTERS - REPUBLICAN PARTY  172                                                    00 
01030010182000000000000000000000000000000000000REP       REGISTERED VOTERS - REPUBLICAN PARTY                    REGISTERED VOTERS - REPUBLICAN PARTY  182                                                    00 
01030010185000000000000000000000000000000000000REP       REGISTERED VOTERS - REPUBLICAN PARTY                    REGISTERED VOTERS - REPUBLICAN PARTY  185                                                    00 
01030010186000000000000000000000000000000000000REP       REGISTERED VOTERS - REPUBLICAN PARTY                    REGISTERED VOTERS - REPUBLICAN PARTY  186                                                    00 
01030010189000000000000000000000000000000000000REP       REGISTERED VOTERS - REPUBLICAN PARTY                    REGISTERED VOTERS - REPUBLICAN PARTY  189                                                    00 
01030010190000000000000000000000000000000000000REP       REGISTERED VOTERS - REPUBLICAN PARTY                    REGISTERED VOTERS - REPUBLICAN PARTY  190                                                    00 
01030010197000000000000000000000000000000000000REP       REGISTERED VOTERS - REPUBLICAN PARTY                    REGISTERED VOTERS - REPUBLICAN PARTY  197                                                    00 
01030010198000000000000000000000000000000000000REP       REGISTERED VOTERS - REPUBLICAN PARTY                    REGISTERED VOTERS - REPUBLICAN PARTY  198                                                    00 
01030010201000000000000000000000000000000000000REP       REGISTERED VOTERS - REPUBLICAN PARTY                    REGISTERED VOTERS - REPUBLICAN PARTY  201                                                    00 
01030010204000000000000000000000000000000000000REP       REGISTERED VOTERS - REPUBLICAN PARTY                    REGISTERED VOTERS - REPUBLICAN PARTY  204                                                    00 
01030010206000000000000000000000000000000000000REP       REGISTERED VOTERS - REPUBLICAN PARTY                    REGISTERED VOTERS - REPUBLICAN PARTY  206                                                    00 
01030010207000000000000000000000000000000000000REP       REGISTERED VOTERS - REPUBLICAN PARTY                    REGISTERED VOTERS - REPUBLICAN PARTY  207                                                    00 
01030010216000000000000000000000000000000000000REP       REGISTERED VOTERS - REPUBLICAN PARTY                    REGISTERED VOTERS - REPUBLICAN PARTY  216                                                    00 
01030010218000000000000000000000000000000000000REP       REGISTERED VOTERS - REPUBLICAN PARTY                    REGISTERED VOTERS - REPUBLICAN PARTY  218                                                    00 
01030010253000000000000000000000000000000000000REP       REGISTERED VOTERS - REPUBLICAN PARTY                    REGISTERED VOTERS - REPUBLICAN PARTY  253                                                    00 
01030010254000000000000000000000000000000000000REP       REGISTERED VOTERS - REPUBLICAN PARTY                    REGISTERED VOTERS - REPUBLICAN PARTY  254                                                    00 
01030010259000000000000000000000000000000000000REP       REGISTERED VOTERS - REPUBLICAN PARTY                    REGISTERED VOTERS - REPUBLICAN PARTY  259                                                    00 
01030010264000000000000000000000000000000000000REP       REGISTERED VOTERS - REPUBLICAN PARTY                    REGISTERED VOTERS - REPUBLICAN PARTY  264                                                    00 
01030010266000000000000000000000000000000000000REP       REGISTERED VOTERS - REPUBLICAN PARTY                    REGISTERED VOTERS - REPUBLICAN PARTY  266                                                    00 
01030010267000000000000000000000000000000000000REP       REGISTERED VOTERS - REPUBLICAN PARTY                    REGISTERED VOTERS - REPUBLICAN PARTY  267                                                    00 
01030010273000000000000000000000000000000000000REP       REGISTERED VOTERS - REPUBLICAN PARTY                    REGISTERED VOTERS - REPUBLICAN PARTY  273                                                    00 
01030010274000000000000000000000000000000000000REP       REGISTERED VOTERS - REPUBLICAN PARTY                    REGISTERED VOTERS - REPUBLICAN PARTY  274                                                    00 
01030010275000000000000000000000000000000000000REP       REGISTERED VOTERS - REPUBLICAN PARTY                    REGISTERED VOTERS - REPUBLICAN PARTY  275                                                    00 
01030010277000000000000000000000000000000000000REP       REGISTERED VOTERS - REPUBLICAN PARTY                    REGISTERED VOTERS - REPUBLICAN PARTY  277                                                    00 
01030010278000000000000000000000000000000000000REP       REGISTERED VOTERS - REPUBLICAN PARTY                    REGISTERED VOTERS - REPUBLICAN PARTY  278                                                    00 
01030010283000000000000000000000000000000000000REP       REGISTERED VOTERS - REPUBLICAN PARTY                    REGISTERED VOTERS - REPUBLICAN PARTY  283                                                    00 
01030010287000000000000000000000000000000000000REP       REGISTERED VOTERS - REPUBLICAN PARTY                    REGISTERED VOTERS - REPUBLICAN PARTY  287                                                    00 
01030010305000000000000000000000000000000000000REP       REGISTERED VOTERS - REPUBLICAN PARTY                    REGISTERED VOTERS - REPUBLICAN PARTY  305                                                    00 
01030010309000000000000000000000000000000000000REP       REGISTERED VOTERS - REPUBLICAN PARTY                    REGISTERED VOTERS - REPUBLICAN PARTY  309                                                    00 
01030010310000000000000000000000000000000000000REP       REGISTERED VOTERS - REPUBLICAN PARTY                    REGISTERED VOTERS - REPUBLICAN PARTY  310                                                    00 
01030010311000000000000000000000000000000000000REP       REGISTERED VOTERS - REPUBLICAN PARTY                    REGISTERED VOTERS - REPUBLICAN PARTY  311                                                    00 
01030010312000000000000000000000000000000000000REP       REGISTERED VOTERS - REPUBLICAN PARTY                    REGISTERED VOTERS - REPUBLICAN PARTY  312                                                    00 
01030010314000000000000000000000000000000000000REP       REGISTERED VOTERS - REPUBLICAN PARTY                    REGISTERED VOTERS - REPUBLICAN PARTY  314                                                    00 
01030010330000000000000000000000000000000000000REP       REGISTERED VOTERS - REPUBLICAN PARTY                    REGISTERED VOTERS - REPUBLICAN PARTY  330                                                    00 
01030010331000000000000000000000000000000000000REP       REGISTERED VOTERS - REPUBLICAN PARTY                    REGISTERED VOTERS - REPUBLICAN PARTY  331                                                    00 
01030010332000000000000000000000000000000000000REP       REGISTERED VOTERS - REPUBLICAN PARTY                    REGISTERED VOTERS - REPUBLICAN PARTY  332                                                    00 
01030010333000000000000000000000000000000000000REP       REGISTERED VOTERS - REPUBLICAN PARTY                    REGISTERED VOTERS - REPUBLICAN PARTY  333                                                    00 
01030010337000000000000000000000000000000000000REP       REGISTERED VOTERS - REPUBLICAN PARTY                    REGISTERED VOTERS - REPUBLICAN PARTY  337                                                    00 
01030010339000000000000000000000000000000000000REP       REGISTERED VOTERS - REPUBLICAN PARTY                    REGISTERED VOTERS - REPUBLICAN PARTY  339                                                    00 
01030010341000000000000000000000000000000000000REP       REGISTERED VOTERS - REPUBLICAN PARTY                    REGISTERED VOTERS - REPUBLICAN PARTY  341                                                    00 
01030010342000000000000000000000000000000000000REP       REGISTERED VOTERS - REPUBLICAN PARTY                    REGISTERED VOTERS - REPUBLICAN PARTY  342                                                    00 
01030010343000000000000000000000000000000000000REP       REGISTERED VOTERS - REPUBLICAN PARTY                    REGISTERED VOTERS - REPUBLICAN PARTY  343                                                    00 
01030010344000000000000000000000000000000000000REP       REGISTERED VOTERS - REPUBLICAN PARTY                    REGISTERED VOTERS - REPUBLICAN PARTY  344                                                    00 
01030010368000000000000000000000000000000000000REP       REGISTERED VOTERS - REPUBLICAN PARTY                    REGISTERED VOTERS - REPUBLICAN PARTY  368                                                    00 
01030010369000000000000000000000000000000000000REP       REGISTERED VOTERS - REPUBLICAN PARTY                    REGISTERED VOTERS - REPUBLICAN PARTY  369                                                    00 
01030010370000000000000000000000000000000000000REP       REGISTERED VOTERS - REPUBLICAN PARTY                    REGISTERED VOTERS - REPUBLICAN PARTY  370                                                    00 
01030010371000000000000000000000000000000000000REP       REGISTERED VOTERS - REPUBLICAN PARTY                    REGISTERED VOTERS - REPUBLICAN PARTY  371                                                    00 
01030010379000000000000000000000000000000000000REP       REGISTERED VOTERS - REPUBLICAN PARTY                    REGISTERED VOTERS - REPUBLICAN PARTY  379                                                    00 
01030010381000000000000000000000000000000000000REP       REGISTERED VOTERS - REPUBLICAN PARTY                    REGISTERED VOTERS - REPUBLICAN PARTY  381                                                    00 
01030010392000000000000000000000000000000000000REP       REGISTERED VOTERS - REPUBLICAN PARTY                    REGISTERED VOTERS - REPUBLICAN PARTY  392                                                    00 
01030010394000000000000000000000000000000000000REP       REGISTERED VOTERS - REPUBLICAN PARTY                    REGISTERED VOTERS - REPUBLICAN PARTY  394                                                    00 
01030010395000000000000000000000000000000000000REP       REGISTERED VOTERS - REPUBLICAN PARTY                    REGISTERED VOTERS - REPUBLICAN PARTY  395                                                    00 
01030010396000000000000000000000000000000000000REP       REGISTERED VOTERS - REPUBLICAN PARTY                    REGISTERED VOTERS - REPUBLICAN PARTY  396                                                    00 
01030010402000000000000000000000000000000000000REP       REGISTERED VOTERS - REPUBLICAN PARTY                    REGISTERED VOTERS - REPUBLICAN PARTY  402                                                    00 
01030010403000000000000000000000000000000000000REP       REGISTERED VOTERS - REPUBLICAN PARTY                    REGISTERED VOTERS - REPUBLICAN PARTY  403                                                    00 
01030010413000000000000000000000000000000000000REP       REGISTERED VOTERS - REPUBLICAN PARTY                    REGISTERED VOTERS - REPUBLICAN PARTY  413                                                    00 
01030010415000000000000000000000000000000000000REP       REGISTERED VOTERS - REPUBLICAN PARTY                    REGISTERED VOTERS - REPUBLICAN PARTY  415                                                    00 
01030010420000000000000000000000000000000000000REP       REGISTERED VOTERS - REPUBLICAN PARTY                    REGISTERED VOTERS - REPUBLICAN PARTY  420                                                    00 
01030010423000000000000000000000000000000000000REP       REGISTERED VOTERS - REPUBLICAN PARTY                    REGISTERED VOTERS - REPUBLICAN PARTY  423                                                    00 
01030010424000000000000000000000000000000000000REP       REGISTERED VOTERS - REPUBLICAN PARTY                    REGISTERED VOTERS - REPUBLICAN PARTY  424                                                    00 
01030010425000000000000000000000000000000000000REP       REGISTERED VOTERS - REPUBLICAN PARTY                    REGISTERED VOTERS - REPUBLICAN PARTY  425                                                    00 
01030010426000000000000000000000000000000000000REP       REGISTERED VOTERS - REPUBLICAN PARTY                    REGISTERED VOTERS - REPUBLICAN PARTY  426                                                    00 
01030010427000000000000000000000000000000000000REP       REGISTERED VOTERS - REPUBLICAN PARTY                    REGISTERED VOTERS - REPUBLICAN PARTY  427                                                    00 
01030010428000000000000000000000000000000000000REP       REGISTERED VOTERS - REPUBLICAN PARTY                    REGISTERED VOTERS - REPUBLICAN PARTY  428                                                    00 
01030010429000000000000000000000000000000000000REP       REGISTERED VOTERS - REPUBLICAN PARTY                    REGISTERED VOTERS - REPUBLICAN PARTY  429                                                    00 
01030010434000000000000000000000000000000000000REP       REGISTERED VOTERS - REPUBLICAN PARTY                    REGISTERED VOTERS - REPUBLICAN PARTY  434                                                    00 
01030010436000000000000000000000000000000000000REP       REGISTERED VOTERS - REPUBLICAN PARTY                    REGISTERED VOTERS - REPUBLICAN PARTY  436                                                    00 
01030010455000000000000000000000000000000000000REP       REGISTERED VOTERS - REPUBLICAN PARTY                    REGISTERED VOTERS - REPUBLICAN PARTY  455                                                    00 
01030010456000000000000000000000000000000000000REP       REGISTERED VOTERS - REPUBLICAN PARTY                    REGISTERED VOTERS - REPUBLICAN PARTY  456                                                    00 
01030010463000000000000000000000000000000000000REP       REGISTERED VOTERS - REPUBLICAN PARTY                    REGISTERED VOTERS - REPUBLICAN PARTY  463                                                    00 
01030010480000000000000000000000000000000000000REP       REGISTERED VOTERS - REPUBLICAN PARTY                    REGISTERED VOTERS - REPUBLICAN PARTY  480                                                    00 
01030010484000000000000000000000000000000000000REP       REGISTERED VOTERS - REPUBLICAN PARTY                    REGISTERED VOTERS - REPUBLICAN PARTY  484                                                    00 
01030010488000000000000000000000000000000000000REP       REGISTERED VOTERS - REPUBLICAN PARTY                    REGISTERED VOTERS - REPUBLICAN PARTY  488                                                    00 
01030010491000000000000000000000000000000000000REP       REGISTERED VOTERS - REPUBLICAN PARTY                    REGISTERED VOTERS - REPUBLICAN PARTY  491                                                    00 
01040010119001192000505000047000638000000000002          BALLOTS CAST - TOTAL                                    BALLOTS CAST - TOTAL                  119                                                    00 
01040010122000959000431000054000473000000000001          BALLOTS CAST - TOTAL                                    BALLOTS CAST - TOTAL                  122                                                    00 
01040010135000689000237000031000419000000000002          BALLOTS CAST - TOTAL                                    BALLOTS CAST - TOTAL                  135                                                    00 
01040010138001589000656000073000853000000000007          BALLOTS CAST - TOTAL                                    BALLOTS CAST - TOTAL                  138                                                    00 
01040010140000707000309000022000376000000000000          BALLOTS CAST - TOTAL                                    BALLOTS CAST - TOTAL                  140                                                    00 
01040010145000586000200000025000361000000000000          BALLOTS CAST - TOTAL                                    BALLOTS CAST - TOTAL                  145                                                    00 
01040010146001513000503000032000976000000000002          BALLOTS CAST - TOTAL                                    BALLOTS CAST - TOTAL                  146                                                    00 
01040010147000909000283000043000581000000000002          BALLOTS CAST - TOTAL                                    BALLOTS CAST - TOTAL                  147                                                    00 
01040010149000541000211000031000297000000000002          BALLOTS CAST - TOTAL                                    BALLOTS CAST - TOTAL                  149                                                    00 
01040010150000582000213000031000337000000000001          BALLOTS CAST - TOTAL                                    BALLOTS CAST - TOTAL                  150                                                    00 
01040010151000768000242000035000486000000000005          BALLOTS CAST - TOTAL                                    BALLOTS CAST - TOTAL                  151                                                    00 
01040010152000674000203000031000438000000000002          BALLOTS CAST - TOTAL                                    BALLOTS CAST - TOTAL                  152                                                    00 
01040010160001396000641000036000719000000000000          BALLOTS CAST - TOTAL                                    BALLOTS CAST - TOTAL                  160                                                    00 
01040010162000840000263000047000527000000000003          BALLOTS CAST - TOTAL                                    BALLOTS CAST - TOTAL                  162                                                    00 
01040010172000829000305000054000470000000000000          BALLOTS CAST - TOTAL                                    BALLOTS CAST - TOTAL                  172                                                    00 
01040010182001550000632000041000877000000000000          BALLOTS CAST - TOTAL                                    BALLOTS CAST - TOTAL                  182                                                    00 
01040010185000597000143000028000426000000000000          BALLOTS CAST - TOTAL                                    BALLOTS CAST - TOTAL                  185                                                    00 
01040010186000784000273000024000486000000000001          BALLOTS CAST - TOTAL                                    BALLOTS CAST - TOTAL                  186                                                    00 
01040010189000861000348000023000487000000000003          BALLOTS CAST - TOTAL                                    BALLOTS CAST - TOTAL                  189                                                    00 
01040010190001850000724000079001043000000000004          BALLOTS CAST - TOTAL                                    BALLOTS CAST - TOTAL                  190                                                    00 
01040010197000843000370000028000441000000000004          BALLOTS CAST - TOTAL                                    BALLOTS CAST - TOTAL                  197                                                    00 
01040010198001405000672000042000690000000000001          BALLOTS CAST - TOTAL                                    BALLOTS CAST - TOTAL                  198                                                    00 
01040010201001739000641000052001042000000000004          BALLOTS CAST - TOTAL                                    BALLOTS CAST - TOTAL                  201                                                    00 
01040010204001658000673000037000947000000000001          BALLOTS CAST - TOTAL                                    BALLOTS CAST - TOTAL                  204                                                    00 
01040010206000924000299000052000573000000000000          BALLOTS CAST - TOTAL                                    BALLOTS CAST - TOTAL                  206                                                    00 
01040010207001587000501000083001001000000000002          BALLOTS CAST - TOTAL                                    BALLOTS CAST - TOTAL                  207                                                    00 
01040010216000857000365000035000457000000000000          BALLOTS CAST - TOTAL                                    BALLOTS CAST - TOTAL                  216                                                    00 
01040010218001097000475000057000564000000000001          BALLOTS CAST - TOTAL                                    BALLOTS CAST - TOTAL                  218                                                    00 
01040010253001804000590000050001161000000000003          BALLOTS CAST - TOTAL                                    BALLOTS CAST - TOTAL                  253                                                    00 
01040010254001039000485000046000508000000000000          BALLOTS CAST - TOTAL                                    BALLOTS CAST - TOTAL                  254                                                    00 
01040010259001489000514000063000903000000000009          BALLOTS CAST - TOTAL                                    BALLOTS CAST - TOTAL                  259                                                    00 
01040010264001206000407000029000769000000000001          BALLOTS CAST - TOTAL                                    BALLOTS CAST - TOTAL                  264                                                    00 
01040010266001103000430000070000600000000000003          BALLOTS CAST - TOTAL                                    BALLOTS CAST - TOTAL                  266                                                    00 
01040010267000750000256000045000449000000000000          BALLOTS CAST - TOTAL                                    BALLOTS CAST - TOTAL                  267                                                    00 
01040010273000823000328000032000461000000000002          BALLOTS CAST - TOTAL                                    BALLOTS CAST - TOTAL                  273                                                    00 
01040010274001078000379000043000650000000000006          BALLOTS CAST - TOTAL                                    BALLOTS CAST - TOTAL                  274                                                    00 
01040010275000911000352000054000504000000000001          BALLOTS CAST - TOTAL                                    BALLOTS CAST - TOTAL                  275                                                    00 
01040010277001879000867000048000963000000000001          BALLOTS CAST - TOTAL                                    BALLOTS CAST - TOTAL                  277                                                    00 
01040010278001883000847000061000973000000000002          BALLOTS CAST - TOTAL                                    BALLOTS CAST - TOTAL                  278                                                    00 
01040010283001353000476000050000827000000000000          BALLOTS CAST - TOTAL                                    BALLOTS CAST - TOTAL                  283                                                    00 
01040010287001592000588000091000913000000000000          BALLOTS CAST - TOTAL                                    BALLOTS CAST - TOTAL                  287                                                    00 
01040010305001188000526000080000582000000000000          BALLOTS CAST - TOTAL                                    BALLOTS CAST - TOTAL                  305                                                    00 
01040010309000499000122000018000359000000000000          BALLOTS CAST - TOTAL                                    BALLOTS CAST - TOTAL                  309                                                    00 
01040010310000605000114000036000454000000000001          BALLOTS CAST - TOTAL                                    BALLOTS CAST - TOTAL                  310                                                    00 
01040010311000703000203000032000468000000000000          BALLOTS CAST - TOTAL                                    BALLOTS CAST - TOTAL                  311                                                    00 
01040010312001131000336000056000736000000000003          BALLOTS CAST - TOTAL                                    BALLOTS CAST - TOTAL                  312                                                    00 
01040010314001063000449000066000545000000000003          BALLOTS CAST - TOTAL                                    BALLOTS CAST - TOTAL                  314                                                    00 
01040010330001307000485000034000784000000000004          BALLOTS CAST - TOTAL                                    BALLOTS CAST - TOTAL                  330                                                    00 
01040010331001002000344000039000616000000000003          BALLOTS CAST - TOTAL                                    BALLOTS CAST - TOTAL                  331                                                    00 
01040010332001157000410000044000702000000000001          BALLOTS CAST - TOTAL                                    BALLOTS CAST - TOTAL                  332                                                    00 
01040010333001113000392000044000674000000000003          BALLOTS CAST - TOTAL                                    BALLOTS CAST - TOTAL                  333                                                    00 
01040010337001458000516000051000889000000000002          BALLOTS CAST - TOTAL                                    BALLOTS CAST - TOTAL                  337                                                    00 
01040010339000639000211000022000401000000000005          BALLOTS CAST - TOTAL                                    BALLOTS CAST - TOTAL                  339                                                    00 
01040010341000837000437000085000312000000000003          BALLOTS CAST - TOTAL                                    BALLOTS CAST - TOTAL                  341                                                    00 
01040010342000220000075000028000117000000000000          BALLOTS CAST - TOTAL                                    BALLOTS CAST - TOTAL                  342                                                    00 
01040010343002012000863000141001008000000000000          BALLOTS CAST - TOTAL                                    BALLOTS CAST - TOTAL                  343                                                    00 
01040010344001207000555000067000581000000000004          BALLOTS CAST - TOTAL                                    BALLOTS CAST - TOTAL                  344                                                    00 
01040010368000748000297000036000414000000000001          BALLOTS CAST - TOTAL                                    BALLOTS CAST - TOTAL                  368                                                    00 
01040010369001070000451000043000574000000000002          BALLOTS CAST - TOTAL                                    BALLOTS CAST - TOTAL                  369                                                    00 
01040010370001454000594000072000786000000000002          BALLOTS CAST - TOTAL                                    BALLOTS CAST - TOTAL                  370                                                    00 
01040010371001022000493000123000406000000000000          BALLOTS CAST - TOTAL                                    BALLOTS CAST - TOTAL                  371                                                    00 
01040010379002083001056000129000897000000000001          BALLOTS CAST - TOTAL                                    BALLOTS CAST - TOTAL                  379                                                    00 
01040010381002174001440000292000442000000000000          BALLOTS CAST - TOTAL                                    BALLOTS CAST - TOTAL                  381                                                    00 
01040010392002050000941000219000881000000000009          BALLOTS CAST - TOTAL                                    BALLOTS CAST - TOTAL                  392                                                    00 
01040010394003751002533000408000810000000000000          BALLOTS CAST - TOTAL                                    BALLOTS CAST - TOTAL                  394                                                    00 
01040010395001123000500000053000570000000000000          BALLOTS CAST - TOTAL                                    BALLOTS CAST - TOTAL                  395                                                    00 
01040010396002165001305000339000521000000000000          BALLOTS CAST - TOTAL                                    BALLOTS CAST - TOTAL                  396                                                    00 
01040010402001098000396000032000667000000000003          BALLOTS CAST - TOTAL                                    BALLOTS CAST - TOTAL                  402                                                    00 
01040010403000536000187000022000327000000000000          BALLOTS CAST - TOTAL                                    BALLOTS CAST - TOTAL                  403                                                    00 
01040010413000172000051000009000112000000000000          BALLOTS CAST - TOTAL                                    BALLOTS CAST - TOTAL                  413                                                    00 
01040010415000635000154000025000455000000000001          BALLOTS CAST - TOTAL                                    BALLOTS CAST - TOTAL                  415                                                    00 
01040010420001081000348000031000700000000000002          BALLOTS CAST - TOTAL                                    BALLOTS CAST - TOTAL                  420                                                    00 
01040010423000930000356000042000529000000000003          BALLOTS CAST - TOTAL                                    BALLOTS CAST - TOTAL                  423                                                    00 
01040010424002275000925000071001278000000000001          BALLOTS CAST - TOTAL                                    BALLOTS CAST - TOTAL                  424                                                    00 
01040010425000162000026000011000123000000000002          BALLOTS CAST - TOTAL                                    BALLOTS CAST - TOTAL                  425                                                    00 
01040010426000525000202000018000305000000000000          BALLOTS CAST - TOTAL                                    BALLOTS CAST - TOTAL                  426                                                    00 
01040010427000807000339000047000418000000000003          BALLOTS CAST - TOTAL                                    BALLOTS CAST - TOTAL                  427                                                    00 
01040010428000899000376000041000480000000000002          BALLOTS CAST - TOTAL                                    BALLOTS CAST - TOTAL                  428                                                    00 
01040010429000342000133000014000194000000000001          BALLOTS CAST - TOTAL                                    BALLOTS CAST - TOTAL                  429                                                    00 
01040010434000977000345000073000559000000000000          BALLOTS CAST - TOTAL                                    BALLOTS CAST - TOTAL                  434                                                    00 
01040010436000252000095000008000149000000000000          BALLOTS CAST - TOTAL                                    BALLOTS CAST - TOTAL                  436                                                    00 
01040010455000663000271000043000349000000000000          BALLOTS CAST - TOTAL                                    BALLOTS CAST - TOTAL                  455                                                    00 
01040010456000396000147000032000217000000000000          BALLOTS CAST - TOTAL                                    BALLOTS CAST - TOTAL                  456                                                    00 
01040010463001125000408000044000667000000000006          BALLOTS CAST - TOTAL                                    BALLOTS CAST - TOTAL                  463                                                    00 
01040010480001406000608000047000748000000000003          BALLOTS CAST - TOTAL                                    BALLOTS CAST - TOTAL                  480                                                    00 
01040010484001316000538000061000714000000000003          BALLOTS CAST - TOTAL                                    BALLOTS CAST - TOTAL                  484                                                    00 
01040010488001755000712000073000964000000000006          BALLOTS CAST - TOTAL                                    BALLOTS CAST - TOTAL                  488                                                    00 
01040010491001311000486000054000766000000000005          BALLOTS CAST - TOTAL                                    BALLOTS CAST - TOTAL                  491                                                    00 
01050010119000423000162000019000241000000000001DEM       BALLOTS CAST - DEMOCRATIC PARTY                         BALLOTS CAST - DEMOCRATIC PARTY       119                                                    00 
01050010122000306000129000021000156000000000000DEM       BALLOTS CAST - DEMOCRATIC PARTY                         BALLOTS CAST - DEMOCRATIC PARTY       122                                                    00 
01050010135000365000121000019000223000000000002DEM       BALLOTS CAST - DEMOCRATIC PARTY                         BALLOTS CAST - DEMOCRATIC PARTY       135                                                    00 
01050010138000525000185000027000308000000000005DEM       BALLOTS CAST - DEMOCRATIC PARTY                         BALLOTS CAST - DEMOCRATIC PARTY       138                                                    00 
01050010140000277000112000008000157000000000000DEM       BALLOTS CAST - DEMOCRATIC PARTY                         BALLOTS CAST - DEMOCRATIC PARTY       140                                                    00 
01050010145000301000104000013000184000000000000DEM       BALLOTS CAST - DEMOCRATIC PARTY                         BALLOTS CAST - DEMOCRATIC PARTY       145                                                    00 
01050010146000848000308000011000527000000000002DEM       BALLOTS CAST - DEMOCRATIC PARTY                         BALLOTS CAST - DEMOCRATIC PARTY       146                                                    00 
01050010147000484000146000021000316000000000001DEM       BALLOTS CAST - DEMOCRATIC PARTY                         BALLOTS CAST - DEMOCRATIC PARTY       147                                                    00 
01050010149000228000090000014000122000000000002DEM       BALLOTS CAST - DEMOCRATIC PARTY                         BALLOTS CAST - DEMOCRATIC PARTY       149                                                    00 
01050010150000265000084000015000166000000000000DEM       BALLOTS CAST - DEMOCRATIC PARTY                         BALLOTS CAST - DEMOCRATIC PARTY       150                                                    00 
01050010151000384000126000012000246000000000000DEM       BALLOTS CAST - DEMOCRATIC PARTY                         BALLOTS CAST - DEMOCRATIC PARTY       151                                                    00 
01050010152000383000125000020000237000000000001DEM       BALLOTS CAST - DEMOCRATIC PARTY                         BALLOTS CAST - DEMOCRATIC PARTY       152                                                    00 
01050010160000566000243000020000303000000000000DEM       BALLOTS CAST - DEMOCRATIC PARTY                         BALLOTS CAST - DEMOCRATIC PARTY       160                                                    00 
01050010162000448000140000014000293000000000001DEM       BALLOTS CAST - DEMOCRATIC PARTY                         BALLOTS CAST - DEMOCRATIC PARTY       162                                                    00 
01050010172000237000072000022000143000000000000DEM       BALLOTS CAST - DEMOCRATIC PARTY                         BALLOTS CAST - DEMOCRATIC PARTY       172                                                    00 
01050010182000400000150000015000235000000000000DEM       BALLOTS CAST - DEMOCRATIC PARTY                         BALLOTS CAST - DEMOCRATIC PARTY       182                                                    00 
01050010185000311000062000019000230000000000000DEM       BALLOTS CAST - DEMOCRATIC PARTY                         BALLOTS CAST - DEMOCRATIC PARTY       185                                                    00 
01050010186000328000119000006000202000000000001DEM       BALLOTS CAST - DEMOCRATIC PARTY                         BALLOTS CAST - DEMOCRATIC PARTY       186                                                    00 
01050010189000357000159000006000190000000000002DEM       BALLOTS CAST - DEMOCRATIC PARTY                         BALLOTS CAST - DEMOCRATIC PARTY       189                                                    00 
01050010190000567000209000037000319000000000002DEM       BALLOTS CAST - DEMOCRATIC PARTY                         BALLOTS CAST - DEMOCRATIC PARTY       190                                                    00 
01050010197000293000110000008000172000000000003DEM       BALLOTS CAST - DEMOCRATIC PARTY                         BALLOTS CAST - DEMOCRATIC PARTY       197                                                    00 
01050010198000549000255000019000275000000000000DEM       BALLOTS CAST - DEMOCRATIC PARTY                         BALLOTS CAST - DEMOCRATIC PARTY       198                                                    00 
01050010201000574000202000021000347000000000004DEM       BALLOTS CAST - DEMOCRATIC PARTY                         BALLOTS CAST - DEMOCRATIC PARTY       201                                                    00 
01050010204000529000199000011000319000000000000DEM       BALLOTS CAST - DEMOCRATIC PARTY                         BALLOTS CAST - DEMOCRATIC PARTY       204                                                    00 
01050010206000178000064000011000103000000000000DEM       BALLOTS CAST - DEMOCRATIC PARTY                         BALLOTS CAST - DEMOCRATIC PARTY       206                                                    00 
01050010207000242000070000009000163000000000000DEM       BALLOTS CAST - DEMOCRATIC PARTY                         BALLOTS CAST - DEMOCRATIC PARTY       207                                                    00 
01050010216000310000122000017000171000000000000DEM       BALLOTS CAST - DEMOCRATIC PARTY                         BALLOTS CAST - DEMOCRATIC PARTY       216                                                    00 
01050010218000525000229000021000275000000000000DEM       BALLOTS CAST - DEMOCRATIC PARTY                         BALLOTS CAST - DEMOCRATIC PARTY       218                                                    00 
01050010253000516000152000021000342000000000001DEM       BALLOTS CAST - DEMOCRATIC PARTY                         BALLOTS CAST - DEMOCRATIC PARTY       253                                                    00 
01050010254000389000153000022000214000000000000DEM       BALLOTS CAST - DEMOCRATIC PARTY                         BALLOTS CAST - DEMOCRATIC PARTY       254                                                    00 
01050010259000476000160000023000288000000000005DEM       BALLOTS CAST - DEMOCRATIC PARTY                         BALLOTS CAST - DEMOCRATIC PARTY       259                                                    00 
01050010264000344000089000012000242000000000001DEM       BALLOTS CAST - DEMOCRATIC PARTY                         BALLOTS CAST - DEMOCRATIC PARTY       264                                                    00 
01050010266000414000151000025000237000000000001DEM       BALLOTS CAST - DEMOCRATIC PARTY                         BALLOTS CAST - DEMOCRATIC PARTY       266                                                    00 
01050010267000163000051000008000104000000000000DEM       BALLOTS CAST - DEMOCRATIC PARTY                         BALLOTS CAST - DEMOCRATIC PARTY       267                                                    00 
01050010273000341000123000016000202000000000000DEM       BALLOTS CAST - DEMOCRATIC PARTY                         BALLOTS CAST - DEMOCRATIC PARTY       273                                                    00 
01050010274000526000171000018000337000000000000DEM       BALLOTS CAST - DEMOCRATIC PARTY                         BALLOTS CAST - DEMOCRATIC PARTY       274                                                    00 
01050010275000483000190000024000268000000000001DEM       BALLOTS CAST - DEMOCRATIC PARTY                         BALLOTS CAST - DEMOCRATIC PARTY       275                                                    00 
01050010277000564000246000008000310000000000000DEM       BALLOTS CAST - DEMOCRATIC PARTY                         BALLOTS CAST - DEMOCRATIC PARTY       277                                                    00 
01050010278000724000341000019000362000000000002DEM       BALLOTS CAST - DEMOCRATIC PARTY                         BALLOTS CAST - DEMOCRATIC PARTY       278                                                    00 
01050010283000464000166000025000273000000000000DEM       BALLOTS CAST - DEMOCRATIC PARTY                         BALLOTS CAST - DEMOCRATIC PARTY       283                                                    00 
01050010287000531000194000046000291000000000000DEM       BALLOTS CAST - DEMOCRATIC PARTY                         BALLOTS CAST - DEMOCRATIC PARTY       287                                                    00 
01050010305000196000076000011000109000000000000DEM       BALLOTS CAST - DEMOCRATIC PARTY                         BALLOTS CAST - DEMOCRATIC PARTY       305                                                    00 
01050010309000085000021000005000059000000000000DEM       BALLOTS CAST - DEMOCRATIC PARTY                         BALLOTS CAST - DEMOCRATIC PARTY       309                                                    00 
01050010310000110000016000010000083000000000001DEM       BALLOTS CAST - DEMOCRATIC PARTY                         BALLOTS CAST - DEMOCRATIC PARTY       310                                                    00 
01050010311000107000028000008000071000000000000DEM       BALLOTS CAST - DEMOCRATIC PARTY                         BALLOTS CAST - DEMOCRATIC PARTY       311                                                    00 
01050010312000186000056000007000122000000000001DEM       BALLOTS CAST - DEMOCRATIC PARTY                         BALLOTS CAST - DEMOCRATIC PARTY       312                                                    00 
01050010314000424000157000035000230000000000002DEM       BALLOTS CAST - DEMOCRATIC PARTY                         BALLOTS CAST - DEMOCRATIC PARTY       314                                                    00 
01050010330000448000151000019000277000000000001DEM       BALLOTS CAST - DEMOCRATIC PARTY                         BALLOTS CAST - DEMOCRATIC PARTY       330                                                    00 
01050010331000266000093000013000158000000000002DEM       BALLOTS CAST - DEMOCRATIC PARTY                         BALLOTS CAST - DEMOCRATIC PARTY       331                                                    00 
01050010332000274000097000014000163000000000000DEM       BALLOTS CAST - DEMOCRATIC PARTY                         BALLOTS CAST - DEMOCRATIC PARTY       332                                                    00 
01050010333000351000110000012000228000000000001DEM       BALLOTS CAST - DEMOCRATIC PARTY                         BALLOTS CAST - DEMOCRATIC PARTY       333                                                    00 
01050010337000465000142000018000305000000000000DEM       BALLOTS CAST - DEMOCRATIC PARTY                         BALLOTS CAST - DEMOCRATIC PARTY       337                                                    00 
01050010339000239000073000009000156000000000001DEM       BALLOTS CAST - DEMOCRATIC PARTY                         BALLOTS CAST - DEMOCRATIC PARTY       339                                                    00 
01050010341000157000080000019000058000000000000DEM       BALLOTS CAST - DEMOCRATIC PARTY                         BALLOTS CAST - DEMOCRATIC PARTY       341                                                    00 
01050010342000106000029000012000065000000000000DEM       BALLOTS CAST - DEMOCRATIC PARTY                         BALLOTS CAST - DEMOCRATIC PARTY       342                                                    00 
01050010343000408000155000048000205000000000000DEM       BALLOTS CAST - DEMOCRATIC PARTY                         BALLOTS CAST - DEMOCRATIC PARTY       343                                                    00 
01050010344000190000080000014000093000000000003DEM       BALLOTS CAST - DEMOCRATIC PARTY                         BALLOTS CAST - DEMOCRATIC PARTY       344                                                    00 
01050010368000309000113000020000176000000000000DEM       BALLOTS CAST - DEMOCRATIC PARTY                         BALLOTS CAST - DEMOCRATIC PARTY       368                                                    00 
01050010369000332000114000019000198000000000001DEM       BALLOTS CAST - DEMOCRATIC PARTY                         BALLOTS CAST - DEMOCRATIC PARTY       369                                                    00 
01050010370000371000155000014000201000000000001DEM       BALLOTS CAST - DEMOCRATIC PARTY                         BALLOTS CAST - DEMOCRATIC PARTY       370                                                    00 
01050010371000213000087000035000091000000000000DEM       BALLOTS CAST - DEMOCRATIC PARTY                         BALLOTS CAST - DEMOCRATIC PARTY       371                                                    00 
01050010379000293000126000018000148000000000001DEM       BALLOTS CAST - DEMOCRATIC PARTY                         BALLOTS CAST - DEMOCRATIC PARTY       379                                                    00 
01050010381000447000263000099000085000000000000DEM       BALLOTS CAST - DEMOCRATIC PARTY                         BALLOTS CAST - DEMOCRATIC PARTY       381                                                    00 
01050010392000328000133000048000143000000000004DEM       BALLOTS CAST - DEMOCRATIC PARTY                         BALLOTS CAST - DEMOCRATIC PARTY       392                                                    00 
01050010394000744000431000119000194000000000000DEM       BALLOTS CAST - DEMOCRATIC PARTY                         BALLOTS CAST - DEMOCRATIC PARTY       394                                                    00 
01050010395000184000061000013000110000000000000DEM       BALLOTS CAST - DEMOCRATIC PARTY                         BALLOTS CAST - DEMOCRATIC PARTY       395                                                    00 
01050010396000453000216000112000125000000000000DEM       BALLOTS CAST - DEMOCRATIC PARTY                         BALLOTS CAST - DEMOCRATIC PARTY       396                                                    00 
01050010402000444000130000011000302000000000001DEM       BALLOTS CAST - DEMOCRATIC PARTY                         BALLOTS CAST - DEMOCRATIC PARTY       402                                                    00 
01050010403000196000055000011000130000000000000DEM       BALLOTS CAST - DEMOCRATIC PARTY                         BALLOTS CAST - DEMOCRATIC PARTY       403                                                    00 
01050010413000037000017000005000015000000000000DEM       BALLOTS CAST - DEMOCRATIC PARTY                         BALLOTS CAST - DEMOCRATIC PARTY       413                                                    00 
01050010415000122000022000010000090000000000000DEM       BALLOTS CAST - DEMOCRATIC PARTY                         BALLOTS CAST - DEMOCRATIC PARTY       415                                                    00 
01050010420000346000114000011000220000000000001DEM       BALLOTS CAST - DEMOCRATIC PARTY                         BALLOTS CAST - DEMOCRATIC PARTY       420                                                    00 
01050010423000373000127000013000232000000000001DEM       BALLOTS CAST - DEMOCRATIC PARTY                         BALLOTS CAST - DEMOCRATIC PARTY       423                                                    00 
01050010424000631000248000023000360000000000000DEM       BALLOTS CAST - DEMOCRATIC PARTY                         BALLOTS CAST - DEMOCRATIC PARTY       424                                                    00 
01050010425000041000005000004000032000000000000DEM       BALLOTS CAST - DEMOCRATIC PARTY                         BALLOTS CAST - DEMOCRATIC PARTY       425                                                    00 
01050010426000149000050000008000091000000000000DEM       BALLOTS CAST - DEMOCRATIC PARTY                         BALLOTS CAST - DEMOCRATIC PARTY       426                                                    00 
01050010427000237000091000021000124000000000001DEM       BALLOTS CAST - DEMOCRATIC PARTY                         BALLOTS CAST - DEMOCRATIC PARTY       427                                                    00 
01050010428000252000101000018000132000000000001DEM       BALLOTS CAST - DEMOCRATIC PARTY                         BALLOTS CAST - DEMOCRATIC PARTY       428                                                    00 
01050010429000157000050000006000100000000000001DEM       BALLOTS CAST - DEMOCRATIC PARTY                         BALLOTS CAST - DEMOCRATIC PARTY       429                                                    00 
01050010434000172000055000019000098000000000000DEM       BALLOTS CAST - DEMOCRATIC PARTY                         BALLOTS CAST - DEMOCRATIC PARTY       434                                                    00 
01050010436000041000011000002000028000000000000DEM       BALLOTS CAST - DEMOCRATIC PARTY                         BALLOTS CAST - DEMOCRATIC PARTY       436                                                    00 
01050010455000345000135000019000191000000000000DEM       BALLOTS CAST - DEMOCRATIC PARTY                         BALLOTS CAST - DEMOCRATIC PARTY       455                                                    00 
01050010456000157000055000021000081000000000000DEM       BALLOTS CAST - DEMOCRATIC PARTY                         BALLOTS CAST - DEMOCRATIC PARTY       456                                                    00 
01050010463000533000182000021000325000000000005DEM       BALLOTS CAST - DEMOCRATIC PARTY                         BALLOTS CAST - DEMOCRATIC PARTY       463                                                    00 
01050010480000615000254000023000336000000000002DEM       BALLOTS CAST - DEMOCRATIC PARTY                         BALLOTS CAST - DEMOCRATIC PARTY       480                                                    00 
01050010484000464000175000021000267000000000001DEM       BALLOTS CAST - DEMOCRATIC PARTY                         BALLOTS CAST - DEMOCRATIC PARTY       484                                                    00 
01050010488000558000220000027000308000000000003DEM       BALLOTS CAST - DEMOCRATIC PARTY                         BALLOTS CAST - DEMOCRATIC PARTY       488                                                    00 
01050010491000525000167000026000330000000000002DEM       BALLOTS CAST - DEMOCRATIC PARTY                         BALLOTS CAST - DEMOCRATIC PARTY       491                                                    00 
01060010119000769000343000028000397000000000001REP       BALLOTS CAST - REPUBLICAN PARTY                         BALLOTS CAST - REPUBLICAN PARTY       119                                                    00 
01060010122000653000302000033000317000000000001REP       BALLOTS CAST - REPUBLICAN PARTY                         BALLOTS CAST - REPUBLICAN PARTY       122                                                    00 
01060010135000324000116000012000196000000000000REP       BALLOTS CAST - REPUBLICAN PARTY                         BALLOTS CAST - REPUBLICAN PARTY       135                                                    00 
01060010138001064000471000046000545000000000002REP       BALLOTS CAST - REPUBLICAN PARTY                         BALLOTS CAST - REPUBLICAN PARTY       138                                                    00 
01060010140000430000197000014000219000000000000REP       BALLOTS CAST - REPUBLICAN PARTY                         BALLOTS CAST - REPUBLICAN PARTY       140                                                    00 
01060010145000285000096000012000177000000000000REP       BALLOTS CAST - REPUBLICAN PARTY                         BALLOTS CAST - REPUBLICAN PARTY       145                                                    00 
01060010146000665000195000021000449000000000000REP       BALLOTS CAST - REPUBLICAN PARTY                         BALLOTS CAST - REPUBLICAN PARTY       146                                                    00 
01060010147000425000137000022000265000000000001REP       BALLOTS CAST - REPUBLICAN PARTY                         BALLOTS CAST - REPUBLICAN PARTY       147                                                    00 
01060010149000313000121000017000175000000000000REP       BALLOTS CAST - REPUBLICAN PARTY                         BALLOTS CAST - REPUBLICAN PARTY       149                                                    00 
01060010150000317000129000016000171000000000001REP       BALLOTS CAST - REPUBLICAN PARTY                         BALLOTS CAST - REPUBLICAN PARTY       150                                                    00 
01060010151000384000116000023000240000000000005REP       BALLOTS CAST - REPUBLICAN PARTY                         BALLOTS CAST - REPUBLICAN PARTY       151                                                    00 
01060010152000291000078000011000201000000000001REP       BALLOTS CAST - REPUBLICAN PARTY                         BALLOTS CAST - REPUBLICAN PARTY       152                                                    00 
01060010160000830000398000016000416000000000000REP       BALLOTS CAST - REPUBLICAN PARTY                         BALLOTS CAST - REPUBLICAN PARTY       160                                                    00 
01060010162000392000123000033000234000000000002REP       BALLOTS CAST - REPUBLICAN PARTY                         BALLOTS CAST - REPUBLICAN PARTY       162                                                    00 
01060010172000592000233000032000327000000000000REP       BALLOTS CAST - REPUBLICAN PARTY                         BALLOTS CAST - REPUBLICAN PARTY       172                                                    00 
01060010182001150000482000026000642000000000000REP       BALLOTS CAST - REPUBLICAN PARTY                         BALLOTS CAST - REPUBLICAN PARTY       182                                                    00 
01060010185000286000081000009000196000000000000REP       BALLOTS CAST - REPUBLICAN PARTY                         BALLOTS CAST - REPUBLICAN PARTY       185                                                    00 
01060010186000456000154000018000284000000000000REP       BALLOTS CAST - REPUBLICAN PARTY                         BALLOTS CAST - REPUBLICAN PARTY       186                                                    00 
01060010189000504000189000017000297000000000001REP       BALLOTS CAST - REPUBLICAN PARTY                         BALLOTS CAST - REPUBLICAN PARTY       189                                                    00 
01060010190001283000515000042000724000000000002REP       BALLOTS CAST - REPUBLICAN PARTY                         BALLOTS CAST - REPUBLICAN PARTY       190                                                    00 
01060010197000550000260000020000269000000000001REP       BALLOTS CAST - REPUBLICAN PARTY                         BALLOTS CAST - REPUBLICAN PARTY       197                                                    00 
01060010198000856000417000023000415000000000001REP       BALLOTS CAST - REPUBLICAN PARTY                         BALLOTS CAST - REPUBLICAN PARTY       198                                                    00 
01060010201001165000439000031000695000000000000REP       BALLOTS CAST - REPUBLICAN PARTY                         BALLOTS CAST - REPUBLICAN PARTY       201                                                    00 
01060010204001129000474000026000628000000000001REP       BALLOTS CAST - REPUBLICAN PARTY                         BALLOTS CAST - REPUBLICAN PARTY       204                                                    00 
01060010206000746000235000041000470000000000000REP       BALLOTS CAST - REPUBLICAN PARTY                         BALLOTS CAST - REPUBLICAN PARTY       206                                                    00 
01060010207001345000431000074000838000000000002REP       BALLOTS CAST - REPUBLICAN PARTY                         BALLOTS CAST - REPUBLICAN PARTY       207                                                    00 
01060010216000547000243000018000286000000000000REP       BALLOTS CAST - REPUBLICAN PARTY                         BALLOTS CAST - REPUBLICAN PARTY       216                                                    00 
01060010218000572000246000036000289000000000001REP       BALLOTS CAST - REPUBLICAN PARTY                         BALLOTS CAST - REPUBLICAN PARTY       218                                                    00 
01060010253001288000438000029000819000000000002REP       BALLOTS CAST - REPUBLICAN PARTY                         BALLOTS CAST - REPUBLICAN PARTY       253                                                    00 
01060010254000650000332000024000294000000000000REP       BALLOTS CAST - REPUBLICAN PARTY                         BALLOTS CAST - REPUBLICAN PARTY       254                                                    00 
01060010259001013000354000040000615000000000004REP       BALLOTS CAST - REPUBLICAN PARTY                         BALLOTS CAST - REPUBLICAN PARTY       259                                                    00 
01060010264000862000318000017000527000000000000REP       BALLOTS CAST - REPUBLICAN PARTY                         BALLOTS CAST - REPUBLICAN PARTY       264                                                    00 
01060010266000689000279000045000363000000000002REP       BALLOTS CAST - REPUBLICAN PARTY                         BALLOTS CAST - REPUBLICAN PARTY       266                                                    00 
