01010010001001011000000000000000000000000000000          REGISTERED VOTERS - TOTAL                               REGISTERED VOTERS - TOTAL             PRECINCT 101                                           00 
01010010002001047000000000000000000000000000000          REGISTERED VOTERS - TOTAL                               REGISTERED VOTERS - TOTAL             PRECINCT 202                                           00 
01010010003000545000000000000000000000000000000          REGISTERED VOTERS - TOTAL                               REGISTERED VOTERS - TOTAL             PRECINCT 303                                           00 
01010010004000357000000000000000000000000000000          REGISTERED VOTERS - TOTAL                               REGISTERED VOTERS - TOTAL             PRECINCT 404                                           00 
01010010005000589000000000000000000000000000000          REGISTERED VOTERS - TOTAL                               REGISTERED VOTERS - TOTAL             PRECINCT 305                                           00 
01010010006000518000000000000000000000000000000          REGISTERED VOTERS - TOTAL                               REGISTERED VOTERS - TOTAL             PRECINCT 406                                           00 
01020010001000401000217000184000000000000000000          BALLOTS CAST - TOTAL                                    BALLOTS CAST - TOTAL                  PRECINCT 101                                           00 
01020010002000403000221000182000000000000000000          BALLOTS CAST - TOTAL                                    BALLOTS CAST - TOTAL                  PRECINCT 202                                           00 
01020010003000291000186000105000000000000000000          BALLOTS CAST - TOTAL                                    BALLOTS CAST - TOTAL                  PRECINCT 303                                           00 
01020010004000295000183000112000000000000000000          BALLOTS CAST - TOTAL                                    BALLOTS CAST - TOTAL                  PRECINCT 404                                           00 
01020010005000094000047000047000000000000000000          BALLOTS CAST - TOTAL                                    BALLOTS CAST - TOTAL                  PRECINCT 305                                           00 
01020010006000127000072000055000000000000000000          BALLOTS CAST - TOTAL                                    BALLOTS CAST - TOTAL                  PRECINCT 406                                           00 
01030010001000401000217000184000000000000000000REP       BALLOTS CAST - REPUBLICAN PARTY                         BALLOTS CAST - REPUBLICAN PARTY       PRECINCT 101                                           00 
01030010002000403000221000182000000000000000000REP       BALLOTS CAST - REPUBLICAN PARTY                         BALLOTS CAST - REPUBLICAN PARTY       PRECINCT 202                                           00 
01030010003000291000186000105000000000000000000REP       BALLOTS CAST - REPUBLICAN PARTY                         BALLOTS CAST - REPUBLICAN PARTY       PRECINCT 303                                           00 
01030010004000295000183000112000000000000000000REP       BALLOTS CAST - REPUBLICAN PARTY                         BALLOTS CAST - REPUBLICAN PARTY       PRECINCT 404                                           00 
01030010005000094000047000047000000000000000000REP       BALLOTS CAST - REPUBLICAN PARTY                         BALLOTS CAST - REPUBLICAN PARTY       PRECINCT 305                                           00 
01030010006000127000072000055000000000000000000REP       BALLOTS CAST - REPUBLICAN PARTY                         BALLOTS CAST - REPUBLICAN PARTY       PRECINCT 406                                           00 
01040010001000001000001000000000000000000000000REP       President                                               Elizabeth Gray                        PRECINCT 101                                           01 
01040010002000000000000000000000000000000000000REP       President                                               Elizabeth Gray                        PRECINCT 202                                           01 
01040010003000001000001000000000000000000000000REP       President                                               Elizabeth Gray                        PRECINCT 303                                           01 
01040010004000000000000000000000000000000000000REP       President                                               Elizabeth Gray                        PRECINCT 404                                           01 
01040010005000000000000000000000000000000000000REP       President                                               Elizabeth Gray                        PRECINCT 305                                           01 
01040010006000000000000000000000000000000000000REP       President                                               Elizabeth Gray                        PRECINCT 406                                           01 
01040020001000002000001000001000000000000000000REP       President                                               Lindsey Graham                        PRECINCT 101                                           01 
01040020002000000000000000000000000000000000000REP       President                                               Lindsey Graham                        PRECINCT 202                                           01 
01040020003000000000000000000000000000000000000REP       President                                               Lindsey Graham                        PRECINCT 303                                           01 
01040020004000000000000000000000000000000000000REP       President                                               Lindsey Graham                        PRECINCT 404                                           01 
01040020005000000000000000000000000000000000000REP       President                                               Lindsey Graham                        PRECINCT 305                                           01 
01040020006000001000001000000000000000000000000REP       President                                               Lindsey Graham                        PRECINCT 406                                           01 
01040030001000179000090000089000000000000000000REP       President                                               Ted Cruz                              PRECINCT 101                                           01 
01040030002000168000084000084000000000000000000REP       President                                               Ted Cruz                              PRECINCT 202                                           01 
01040030003000127000076000051000000000000000000REP       President                                               Ted Cruz                              PRECINCT 303                                           01 
01040030004000122000071000051000000000000000000REP       President                                               Ted Cruz                              PRECINCT 404                                           01 
01040030005000037000017000020000000000000000000REP       President                                               Ted Cruz                              PRECINCT 305                                           01 
01040030006000052000029000023000000000000000000REP       President                                               Ted Cruz                              PRECINCT 406                                           01 
01040040001000012000007000005000000000000000000REP       President                                               Jeb Bush                              PRECINCT 101                                           01 
01040040002000012000010000002000000000000000000REP       President                                               Jeb Bush                              PRECINCT 202                                           01 
01040040003000005000004000001000000000000000000REP       President                                               Jeb Bush                              PRECINCT 303                                           01 
01040040004000009000007000002000000000000000000REP       President                                               Jeb Bush                              PRECINCT 404                                           01 
01040040005000003000003000000000000000000000000REP       President                                               Jeb Bush                              PRECINCT 305                                           01 
01040040006000003000003000000000000000000000000REP       President                                               Jeb Bush                              PRECINCT 406                                           01 
01040050001000000000000000000000000000000000000REP       President                                               Chris Christie                        PRECINCT 101                                           01 
01040050002000000000000000000000000000000000000REP       President                                               Chris Christie                        PRECINCT 202                                           01 
01040050003000001000000000001000000000000000000REP       President                                               Chris Christie                        PRECINCT 303                                           01 
01040050004000000000000000000000000000000000000REP       President                                               Chris Christie                        PRECINCT 404                                           01 
01040050005000000000000000000000000000000000000REP       President                                               Chris Christie                        PRECINCT 305                                           01 
01040050006000000000000000000000000000000000000REP       President                                               Chris Christie                        PRECINCT 406                                           01 
01040060001000044000022000022000000000000000000REP       President                                               Marco Rubio                           PRECINCT 101                                           01 
01040060002000042000021000021000000000000000000REP       President                                               Marco Rubio                           PRECINCT 202                                           01 
01040060003000049000034000015000000000000000000REP       President                                               Marco Rubio                           PRECINCT 303                                           01 
01040060004000059000036000023000000000000000000REP       President                                               Marco Rubio                           PRECINCT 404                                           01 
01040060005000009000003000006000000000000000000REP       President                                               Marco Rubio                           PRECINCT 305                                           01 
01040060006000020000013000007000000000000000000REP       President                                               Marco Rubio                           PRECINCT 406                                           01 
01040070001000000000000000000000000000000000000REP       President                                               Carly Fiorina                         PRECINCT 101                                           01 
01040070002000000000000000000000000000000000000REP       President                                               Carly Fiorina                         PRECINCT 202                                           01 
01040070003000000000000000000000000000000000000REP       President                                               Carly Fiorina                         PRECINCT 303                                           01 
01040070004000000000000000000000000000000000000REP       President                                               Carly Fiorina                         PRECINCT 404                                           01 
01040070005000000000000000000000000000000000000REP       President                                               Carly Fiorina                         PRECINCT 305                                           01 
01040070006000000000000000000000000000000000000REP       President                                               Carly Fiorina                         PRECINCT 406                                           01 
01040080001000000000000000000000000000000000000REP       President                                               Rick Santorum                         PRECINCT 101                                           01 
01040080002000000000000000000000000000000000000REP       President                                               Rick Santorum                         PRECINCT 202                                           01 
01040080003000000000000000000000000000000000000REP       President                                               Rick Santorum                         PRECINCT 303                                           01 
01040080004000000000000000000000000000000000000REP       President                                               Rick Santorum                         PRECINCT 404                                           01 
01040080005000000000000000000000000000000000000REP       President                                               Rick Santorum                         PRECINCT 305                                           01 
01040080006000000000000000000000000000000000000REP       President                                               Rick Santorum                         PRECINCT 406                                           01 
01040090001000005000001000004000000000000000000REP       President                                               John R. Kasich                        PRECINCT 101                                           01 
01040090002000007000006000001000000000000000000REP       President                                               John R. Kasich                        PRECINCT 202                                           01 
01040090003000004000004000000000000000000000000REP       President                                               John R. Kasich                        PRECINCT 303                                           01 
01040090004000001000001000000000000000000000000REP       President                                               John R. Kasich                        PRECINCT 404                                           01 
01040090005000003000001000002000000000000000000REP       President                                               John R. Kasich                        PRECINCT 305                                           01 
01040090006000004000003000001000000000000000000REP       President                                               John R. Kasich                        PRECINCT 406                                           01 
01040100001000033000019000014000000000000000000REP       President                                               Ben Carson                            PRECINCT 101                                           01 
01040100002000035000021000014000000000000000000REP       President                                               Ben Carson                            PRECINCT 202                                           01 
01040100003000016000010000006000000000000000000REP       President                                               Ben Carson                            PRECINCT 303                                           01 
01040100004000019000012000007000000000000000000REP       President                                               Ben Carson                            PRECINCT 404                                           01 
01040100005000008000006000002000000000000000000REP       President                                               Ben Carson                            PRECINCT 305                                           01 
01040100006000010000004000006000000000000000000REP       President                                               Ben Carson                            PRECINCT 406                                           01 
01040110001000113000066000047000000000000000000REP       President                                               Donald J. Trump                       PRECINCT 101                                           01 
01040110002000122000071000051000000000000000000REP       President                                               Donald J. Trump                       PRECINCT 202                                           01 
01040110003000050000038000012000000000000000000REP       President                                               Donald J. Trump                       PRECINCT 303                                           01 
01040110004000062000039000023000000000000000000REP       President                                               Donald J. Trump                       PRECINCT 404                                           01 
01040110005000026000012000014000000000000000000REP       President                                               Donald J. Trump                       PRECINCT 305                                           01 
01040110006000029000014000015000000000000000000REP       President                                               Donald J. Trump                       PRECINCT 406                                           01 
01040120001000002000002000000000000000000000000REP       President                                               Mike Huckabee                         PRECINCT 101                                           01 
01040120002000001000001000000000000000000000000REP       President                                               Mike Huckabee                         PRECINCT 202                                           01 
01040120003000001000000000001000000000000000000REP       President                                               Mike Huckabee                         PRECINCT 303                                           01 
01040120004000000000000000000000000000000000000REP       President                                               Mike Huckabee                         PRECINCT 404                                           01 
01040120005000000000000000000000000000000000000REP       President                                               Mike Huckabee                         PRECINCT 305                                           01 
01040120006000000000000000000000000000000000000REP       President                                               Mike Huckabee                         PRECINCT 406                                           01 
01040130001000000000000000000000000000000000000REP       President                                               Rand Paul                             PRECINCT 101                                           01 
01040130002000000000000000000000000000000000000REP       President                                               Rand Paul                             PRECINCT 202                                           01 
01040130003000000000000000000000000000000000000REP       President                                               Rand Paul                             PRECINCT 303                                           01 
01040130004000000000000000000000000000000000000REP       President                                               Rand Paul                             PRECINCT 404                                           01 
01040130005000001000000000001000000000000000000REP       President                                               Rand Paul                             PRECINCT 305                                           01 
01040130006000000000000000000000000000000000000REP       President                                               Rand Paul                             PRECINCT 406                                           01 
01040140001000005000004000001000000000000000000REP       President                                               Uncommitted                           PRECINCT 101                                           01 
01040140002000013000006000007000000000000000000REP       President                                               Uncommitted                           PRECINCT 202                                           01 
01040140003000016000007000009000000000000000000REP       President                                               Uncommitted                           PRECINCT 303                                           01 
01040140004000011000007000004000000000000000000REP       President                                               Uncommitted                           PRECINCT 404                                           01 
01040140005000002000001000001000000000000000000REP       President                                               Uncommitted                           PRECINCT 305                                           01 
01040140006000005000003000002000000000000000000REP       President                                               Uncommitted                           PRECINCT 406                                           01 
01040150001000001000001000000000000000000000000REP       President                                               OVER VOTES                            PRECINCT 101                                           01 
01040150002000001000000000001000000000000000000REP       President                                               OVER VOTES                            PRECINCT 202                                           01 
01040150003000000000000000000000000000000000000REP       President                                               OVER VOTES                            PRECINCT 303                                           01 
01040150004000001000001000000000000000000000000REP       President                                               OVER VOTES                            PRECINCT 404                                           01 
01040150005000000000000000000000000000000000000REP       President                                               OVER VOTES                            PRECINCT 305                                           01 
01040150006000000000000000000000000000000000000REP       President                                               OVER VOTES                            PRECINCT 406                                           01 
01040160001000004000003000001000000000000000000REP       President                                               UNDER VOTES                           PRECINCT 101                                           01 
01040160002000002000001000001000000000000000000REP       President                                               UNDER VOTES                           PRECINCT 202                                           01 
01040160003000021000012000009000000000000000000REP       President                                               UNDER VOTES                           PRECINCT 303                                           01 
01040160004000011000009000002000000000000000000REP       President                                               UNDER VOTES                           PRECINCT 404                                           01 
01040160005000005000004000001000000000000000000REP       President                                               UNDER VOTES                           PRECINCT 305                                           01 
01040160006000003000002000001000000000000000000REP       President                                               UNDER VOTES                           PRECINCT 406                                           01 
01050010001000015000007000008000000000000000000REP       United States Representative District 19                Greg Garrett                          PRECINCT 101                                           01 
01050010002000016000007000009000000000000000000REP       United States Representative District 19                Greg Garrett                          PRECINCT 202                                           01 
01050010003000010000005000005000000000000000000REP       United States Representative District 19                Greg Garrett                          PRECINCT 303                                           01 
01050010004000012000006000006000000000000000000REP       United States Representative District 19                Greg Garrett                          PRECINCT 404                                           01 
01050010005000002000000000002000000000000000000REP       United States Representative District 19                Greg Garrett                          PRECINCT 305                                           01 
01050010006000007000004000003000000000000000000REP       United States Representative District 19                Greg Garrett                          PRECINCT 406                                           01 
01050020001000069000033000036000000000000000000REP       United States Representative District 19                Don Parrish                           PRECINCT 101                                           01 
01050020002000044000020000024000000000000000000REP       United States Representative District 19                Don Parrish                           PRECINCT 202                                           01 
01050020003000073000045000028000000000000000000REP       United States Representative District 19                Don Parrish                           PRECINCT 303                                           01 
01050020004000050000022000028000000000000000000REP       United States Representative District 19                Don Parrish                           PRECINCT 404                                           01 
01050020005000012000005000007000000000000000000REP       United States Representative District 19                Don Parrish                           PRECINCT 305                                           01 
01050020006000021000015000006000000000000000000REP       United States Representative District 19                Don Parrish                           PRECINCT 406                                           01 
01050030001000003000002000001000000000000000000REP       United States Representative District 19                Jason Corley                          PRECINCT 101                                           01 
01050030002000006000002000004000000000000000000REP       United States Representative District 19                Jason Corley                          PRECINCT 202                                           01 
01050030003000004000003000001000000000000000000REP       United States Representative District 19                Jason Corley                          PRECINCT 303                                           01 
01050030004000000000000000000000000000000000000REP       United States Representative District 19                Jason Corley                          PRECINCT 404                                           01 
01050030005000002000001000001000000000000000000REP       United States Representative District 19                Jason Corley                          PRECINCT 305                                           01 
01050030006000002000001000001000000000000000000REP       United States Representative District 19                Jason Corley                          PRECINCT 406                                           01 
01050040001000096000047000049000000000000000000REP       United States Representative District 19                Jodey Arrington                       PRECINCT 101                                           01 
01050040002000093000050000043000000000000000000REP       United States Representative District 19                Jodey Arrington                       PRECINCT 202                                           01 
01050040003000045000031000014000000000000000000REP       United States Representative District 19                Jodey Arrington                       PRECINCT 303                                           01 
01050040004000073000044000029000000000000000000REP       United States Representative District 19                Jodey Arrington                       PRECINCT 404                                           01 
01050040005000011000007000004000000000000000000REP       United States Representative District 19                Jodey Arrington                       PRECINCT 305                                           01 
01050040006000032000015000017000000000000000000REP       United States Representative District 19                Jodey Arrington                       PRECINCT 406                                           01 
01050050001000144000087000057000000000000000000REP       United States Representative District 19                Glen Robertson                        PRECINCT 101                                           01 
01050050002000144000088000056000000000000000000REP       United States Representative District 19                Glen Robertson                        PRECINCT 202                                           01 
01050050003000065000042000023000000000000000000REP       United States Representative District 19                Glen Robertson                        PRECINCT 303                                           01 
01050050004000058000031000027000000000000000000REP       United States Representative District 19                Glen Robertson                        PRECINCT 404                                           01 
01050050005000036000015000021000000000000000000REP       United States Representative District 19                Glen Robertson                        PRECINCT 305                                           01 
01050050006000040000023000017000000000000000000REP       United States Representative District 19                Glen Robertson                        PRECINCT 406                                           01 
01050060001000007000003000004000000000000000000REP       United States Representative District 19                DeRenda Warren                        PRECINCT 101                                           01 
01050060002000010000005000005000000000000000000REP       United States Representative District 19                DeRenda Warren                        PRECINCT 202                                           01 
01050060003000008000005000003000000000000000000REP       United States Representative District 19                DeRenda Warren                        PRECINCT 303                                           01 
01050060004000008000006000002000000000000000000REP       United States Representative District 19                DeRenda Warren                        PRECINCT 404                                           01 
01050060005000001000001000000000000000000000000REP       United States Representative District 19                DeRenda Warren                        PRECINCT 305                                           01 
01050060006000003000001000002000000000000000000REP       United States Representative District 19                DeRenda Warren                        PRECINCT 406                                           01 
01050070001000005000000000005000000000000000000REP       United States Representative District 19                John C. Key                           PRECINCT 101                                           01 
01050070002000006000001000005000000000000000000REP       United States Representative District 19                John C. Key                           PRECINCT 202                                           01 
01050070003000001000000000001000000000000000000REP       United States Representative District 19                John C. Key                           PRECINCT 303                                           01 
01050070004000001000001000000000000000000000000REP       United States Representative District 19                John C. Key                           PRECINCT 404                                           01 
01050070005000002000001000001000000000000000000REP       United States Representative District 19                John C. Key                           PRECINCT 305                                           01 
01050070006000000000000000000000000000000000000REP       United States Representative District 19                John C. Key                           PRECINCT 406                                           01 
01050080001000019000013000006000000000000000000REP       United States Representative District 19                Donald R. May                         PRECINCT 101                                           01 
01050080002000013000010000003000000000000000000REP       United States Representative District 19                Donald R. May                         PRECINCT 202                                           01 
01050080003000008000006000002000000000000000000REP       United States Representative District 19                Donald R. May                         PRECINCT 303                                           01 
01050080004000010000006000004000000000000000000REP       United States Representative District 19                Donald R. May                         PRECINCT 404                                           01 
01050080005000003000001000002000000000000000000REP       United States Representative District 19                Donald R. May                         PRECINCT 305                                           01 
01050080006000004000002000002000000000000000000REP       United States Representative District 19                Donald R. May                         PRECINCT 406                                           01 
01050090001000025000018000007000000000000000000REP       United States Representative District 19                Michael Bob Starr                     PRECINCT 101                                           01 
01050090002000040000024000016000000000000000000REP       United States Representative District 19                Michael Bob Starr                     PRECINCT 202                                           01 
01050090003000042000032000010000000000000000000REP       United States Representative District 19                Michael Bob Starr                     PRECINCT 303                                           01 
01050090004000067000054000013000000000000000000REP       United States Representative District 19                Michael Bob Starr                     PRECINCT 404                                           01 
01050090005000015000012000003000000000000000000REP       United States Representative District 19                Michael Bob Starr                     PRECINCT 305                                           01 
01050090006000009000006000003000000000000000000REP       United States Representative District 19                Michael Bob Starr                     PRECINCT 406                                           01 
01050100001000001000001000000000000000000000000REP       United States Representative District 19                OVER VOTES                            PRECINCT 101                                           01 
01050100002000000000000000000000000000000000000REP       United States Representative District 19                OVER VOTES                            PRECINCT 202                                           01 
01050100003000000000000000000000000000000000000REP       United States Representative District 19                OVER VOTES                            PRECINCT 303                                           01 
01050100004000001000001000000000000000000000000REP       United States Representative District 19                OVER VOTES                            PRECINCT 404                                           01 
01050100005000000000000000000000000000000000000REP       United States Representative District 19                OVER VOTES                            PRECINCT 305                                           01 
01050100006000000000000000000000000000000000000REP       United States Representative District 19                OVER VOTES                            PRECINCT 406                                           01 
01050110001000017000006000011000000000000000000REP       United States Representative District 19                UNDER VOTES                           PRECINCT 101                                           01 
01050110002000031000014000017000000000000000000REP       United States Representative District 19                UNDER VOTES                           PRECINCT 202                                           01 
01050110003000035000017000018000000000000000000REP       United States Representative District 19                UNDER VOTES                           PRECINCT 303                                           01 
01050110004000015000012000003000000000000000000REP       United States Representative District 19                UNDER VOTES                           PRECINCT 404                                           01 
01050110005000010000004000006000000000000000000REP       United States Representative District 19                UNDER VOTES                           PRECINCT 305                                           01 
01050110006000009000005000004000000000000000000REP       United States Representative District 19                UNDER VOTES                           PRECINCT 406                                           01 
01060010001000054000027000027000000000000000000REP       Railroad Commissioner                                   Ron Hale                              PRECINCT 101                                           01 
01060010002000052000026000026000000000000000000REP       Railroad Commissioner                                   Ron Hale                              PRECINCT 202                                           01 
01060010003000029000013000016000000000000000000REP       Railroad Commissioner                                   Ron Hale                              PRECINCT 303                                           01 
01060010004000030000019000011000000000000000000REP       Railroad Commissioner                                   Ron Hale                              PRECINCT 404                                           01 
01060010005000020000010000010000000000000000000REP       Railroad Commissioner                                   Ron Hale                              PRECINCT 305                                           01 
01060010006000014000007000007000000000000000000REP       Railroad Commissioner                                   Ron Hale                              PRECINCT 406                                           01 
01060020001000086000049000037000000000000000000REP       Railroad Commissioner                                   Wayne Christian                       PRECINCT 101                                           01 
01060020002000065000038000027000000000000000000REP       Railroad Commissioner                                   Wayne Christian                       PRECINCT 202                                           01 
01060020003000038000027000011000000000000000000REP       Railroad Commissioner                                   Wayne Christian                       PRECINCT 303                                           01 
01060020004000040000027000013000000000000000000REP       Railroad Commissioner                                   Wayne Christian                       PRECINCT 404                                           01 
01060020005000016000009000007000000000000000000REP       Railroad Commissioner                                   Wayne Christian                       PRECINCT 305                                           01 
01060020006000022000014000008000000000000000000REP       Railroad Commissioner                                   Wayne Christian                       PRECINCT 406                                           01 
01060030001000051000022000029000000000000000000REP       Railroad Commissioner                                   Weston Martinez                       PRECINCT 101                                           01 
01060030002000044000019000025000000000000000000REP       Railroad Commissioner                                   Weston Martinez                       PRECINCT 202                                           01 
01060030003000054000033000021000000000000000000REP       Railroad Commissioner                                   Weston Martinez                       PRECINCT 303                                           01 
01060030004000036000013000023000000000000000000REP       Railroad Commissioner                                   Weston Martinez                       PRECINCT 404                                           01 
01060030005000011000003000008000000000000000000REP       Railroad Commissioner                                   Weston Martinez                       PRECINCT 305                                           01 
01060030006000021000008000013000000000000000000REP       Railroad Commissioner                                   Weston Martinez                       PRECINCT 406                                           01 
01060040001000012000007000005000000000000000000REP       Railroad Commissioner                                   John Greytok                          PRECINCT 101                                           01 
01060040002000019000010000009000000000000000000REP       Railroad Commissioner                                   John Greytok                          PRECINCT 202                                           01 
01060040003000005000004000001000000000000000000REP       Railroad Commissioner                                   John Greytok                          PRECINCT 303                                           01 
01060040004000004000001000003000000000000000000REP       Railroad Commissioner                                   John Greytok                          PRECINCT 404                                           01 
01060040005000001000000000001000000000000000000REP       Railroad Commissioner                                   John Greytok                          PRECINCT 305                                           01 
01060040006000005000003000002000000000000000000REP       Railroad Commissioner                                   John Greytok                          PRECINCT 406                                           01 
01060050001000025000013000012000000000000000000REP       Railroad Commissioner                                   Doug Jeffrey                          PRECINCT 101                                           01 
01060050002000043000029000014000000000000000000REP       Railroad Commissioner                                   Doug Jeffrey                          PRECINCT 202                                           01 
01060050003000015000011000004000000000000000000REP       Railroad Commissioner                                   Doug Jeffrey                          PRECINCT 303                                           01 
01060050004000022000011000011000000000000000000REP       Railroad Commissioner                                   Doug Jeffrey                          PRECINCT 404                                           01 
01060050005000008000005000003000000000000000000REP       Railroad Commissioner                                   Doug Jeffrey                          PRECINCT 305                                           01 
01060050006000005000004000001000000000000000000REP       Railroad Commissioner                                   Doug Jeffrey                          PRECINCT 406                                           01 
01060060001000021000013000008000000000000000000REP       Railroad Commissioner                                   Lance N. Christian                    PRECINCT 101                                           01 
01060060002000025000012000013000000000000000000REP       Railroad Commissioner                                   Lance N. Christian                    PRECINCT 202                                           01 
01060060003000011000006000005000000000000000000REP       Railroad Commissioner                                   Lance N. Christian                    PRECINCT 303                                           01 
01060060004000018000013000005000000000000000000REP       Railroad Commissioner                                   Lance N. Christian                    PRECINCT 404                                           01 
01060060005000004000000000004000000000000000000REP       Railroad Commissioner                                   Lance N. Christian                    PRECINCT 305                                           01 
01060060006000010000006000004000000000000000000REP       Railroad Commissioner                                   Lance N. Christian                    PRECINCT 406                                           01 
01060070001000072000046000026000000000000000000REP       Railroad Commissioner                                   Gary Gates                            PRECINCT 101                                           01 
01060070002000071000041000030000000000000000000REP       Railroad Commissioner                                   Gary Gates                            PRECINCT 202                                           01 
01060070003000036000030000006000000000000000000REP       Railroad Commissioner                                   Gary Gates                            PRECINCT 303                                           01 
01060070004000050000035000015000000000000000000REP       Railroad Commissioner                                   Gary Gates                            PRECINCT 404                                           01 
01060070005000014000009000005000000000000000000REP       Railroad Commissioner                                   Gary Gates                            PRECINCT 305                                           01 
01060070006000019000012000007000000000000000000REP       Railroad Commissioner                                   Gary Gates                            PRECINCT 406                                           01 
01060080001000001000000000001000000000000000000REP       Railroad Commissioner                                   OVER VOTES                            PRECINCT 101                                           01 
01060080002000000000000000000000000000000000000REP       Railroad Commissioner                                   OVER VOTES                            PRECINCT 202                                           01 
01060080003000000000000000000000000000000000000REP       Railroad Commissioner                                   OVER VOTES                            PRECINCT 303                                           01 
01060080004000001000001000000000000000000000000REP       Railroad Commissioner                                   OVER VOTES                            PRECINCT 404                                           01 
01060080005000000000000000000000000000000000000REP       Railroad Commissioner                                   OVER VOTES                            PRECINCT 305                                           01 
01060080006000000000000000000000000000000000000REP       Railroad Commissioner                                   OVER VOTES                            PRECINCT 406                                           01 
01060090001000079000040000039000000000000000000REP       Railroad Commissioner                                   UNDER VOTES                           PRECINCT 101                                           01 
01060090002000084000046000038000000000000000000REP       Railroad Commissioner                                   UNDER VOTES                           PRECINCT 202                                           01 
01060090003000103000062000041000000000000000000REP       Railroad Commissioner                                   UNDER VOTES                           PRECINCT 303                                           01 
01060090004000094000063000031000000000000000000REP       Railroad Commissioner                                   UNDER VOTES                           PRECINCT 404                                           01 
01060090005000020000011000009000000000000000000REP       Railroad Commissioner                                   UNDER VOTES                           PRECINCT 305                                           01 
01060090006000031000018000013000000000000000000REP       Railroad Commissioner                                   UNDER VOTES                           PRECINCT 406                                           01 
01070010001000187000099000088000000000000000000REP       Justice, Supreme Court, Place 3                         Michael Massengale                    PRECINCT 101                                           01 
01070010002000167000097000070000000000000000000REP       Justice, Supreme Court, Place 3                         Michael Massengale                    PRECINCT 202                                           01 
01070010003000094000060000034000000000000000000REP       Justice, Supreme Court, Place 3                         Michael Massengale                    PRECINCT 303                                           01 
01070010004000105000062000043000000000000000000REP       Justice, Supreme Court, Place 3                         Michael Massengale                    PRECINCT 404                                           01 
01070010005000042000017000025000000000000000000REP       Justice, Supreme Court, Place 3                         Michael Massengale                    PRECINCT 305                                           01 
01070010006000043000023000020000000000000000000REP       Justice, Supreme Court, Place 3                         Michael Massengale                    PRECINCT 406                                           01 
01070020001000136000075000061000000000000000000REP       Justice, Supreme Court, Place 3                         Debra Lehrmann                        PRECINCT 101                                           01 
01070020002000149000077000072000000000000000000REP       Justice, Supreme Court, Place 3                         Debra Lehrmann                        PRECINCT 202                                           01 
01070020003000099000065000034000000000000000000REP       Justice, Supreme Court, Place 3                         Debra Lehrmann                        PRECINCT 303                                           01 
01070020004000101000060000041000000000000000000REP       Justice, Supreme Court, Place 3                         Debra Lehrmann                        PRECINCT 404                                           01 
01070020005000032000020000012000000000000000000REP       Justice, Supreme Court, Place 3                         Debra Lehrmann                        PRECINCT 305                                           01 
01070020006000049000031000018000000000000000000REP       Justice, Supreme Court, Place 3                         Debra Lehrmann                        PRECINCT 406                                           01 
01070030001000000000000000000000000000000000000REP       Justice, Supreme Court, Place 3                         OVER VOTES                            PRECINCT 101                                           01 
01070030002000000000000000000000000000000000000REP       Justice, Supreme Court, Place 3                         OVER VOTES                            PRECINCT 202                                           01 
01070030003000000000000000000000000000000000000REP       Justice, Supreme Court, Place 3                         OVER VOTES                            PRECINCT 303                                           01 
01070030004000000000000000000000000000000000000REP       Justice, Supreme Court, Place 3                         OVER VOTES                            PRECINCT 404                                           01 
01070030005000000000000000000000000000000000000REP       Justice, Supreme Court, Place 3                         OVER VOTES                            PRECINCT 305                                           01 
01070030006000000000000000000000000000000000000REP       Justice, Supreme Court, Place 3                         OVER VOTES                            PRECINCT 406                                           01 
01070040001000078000043000035000000000000000000REP       Justice, Supreme Court, Place 3                         UNDER VOTES                           PRECINCT 101                                           01 
01070040002000087000047000040000000000000000000REP       Justice, Supreme Court, Place 3                         UNDER VOTES                           PRECINCT 202                                           01 
01070040003000098000061000037000000000000000000REP       Justice, Supreme Court, Place 3                         UNDER VOTES                           PRECINCT 303                                           01 
01070040004000089000061000028000000000000000000REP       Justice, Supreme Court, Place 3                         UNDER VOTES                           PRECINCT 404                                           01 
01070040005000020000010000010000000000000000000REP       Justice, Supreme Court, Place 3                         UNDER VOTES                           PRECINCT 305                                           01 
01070040006000035000018000017000000000000000000REP       Justice, Supreme Court, Place 3                         UNDER VOTES                           PRECINCT 406                                           01 
01080010001000193000101000092000000000000000000REP       Justice, Supreme Court, Place 5                         Rick Green                            PRECINCT 101                                           01 
01080010002000183000096000087000000000000000000REP       Justice, Supreme Court, Place 5                         Rick Green                            PRECINCT 202                                           01 
01080010003000111000073000038000000000000000000REP       Justice, Supreme Court, Place 5                         Rick Green                            PRECINCT 303                                           01 
01080010004000102000053000049000000000000000000REP       Justice, Supreme Court, Place 5                         Rick Green                            PRECINCT 404                                           01 
01080010005000044000023000021000000000000000000REP       Justice, Supreme Court, Place 5                         Rick Green                            PRECINCT 305                                           01 
01080010006000056000032000024000000000000000000REP       Justice, Supreme Court, Place 5                         Rick Green                            PRECINCT 406                                           01 
01080020001000119000067000052000000000000000000REP       Justice, Supreme Court, Place 5                         Paul Green                            PRECINCT 101                                           01 
01080020002000126000073000053000000000000000000REP       Justice, Supreme Court, Place 5                         Paul Green                            PRECINCT 202                                           01 
01080020003000076000050000026000000000000000000REP       Justice, Supreme Court, Place 5                         Paul Green                            PRECINCT 303                                           01 
01080020004000087000056000031000000000000000000REP       Justice, Supreme Court, Place 5                         Paul Green                            PRECINCT 404                                           01 
01080020005000029000013000016000000000000000000REP       Justice, Supreme Court, Place 5                         Paul Green                            PRECINCT 305                                           01 
01080020006000038000022000016000000000000000000REP       Justice, Supreme Court, Place 5                         Paul Green                            PRECINCT 406                                           01 
01080030001000000000000000000000000000000000000REP       Justice, Supreme Court, Place 5                         OVER VOTES                            PRECINCT 101                                           01 
01080030002000000000000000000000000000000000000REP       Justice, Supreme Court, Place 5                         OVER VOTES                            PRECINCT 202                                           01 
01080030003000000000000000000000000000000000000REP       Justice, Supreme Court, Place 5                         OVER VOTES                            PRECINCT 303                                           01 
01080030004000000000000000000000000000000000000REP       Justice, Supreme Court, Place 5                         OVER VOTES                            PRECINCT 404                                           01 
01080030005000000000000000000000000000000000000REP       Justice, Supreme Court, Place 5                         OVER VOTES                            PRECINCT 305                                           01 
01080030006000000000000000000000000000000000000REP       Justice, Supreme Court, Place 5                         OVER VOTES                            PRECINCT 406                                           01 
01080040001000089000049000040000000000000000000REP       Justice, Supreme Court, Place 5                         UNDER VOTES                           PRECINCT 101                                           01 
01080040002000094000052000042000000000000000000REP       Justice, Supreme Court, Place 5                         UNDER VOTES                           PRECINCT 202                                           01 
01080040003000104000063000041000000000000000000REP       Justice, Supreme Court, Place 5                         UNDER VOTES                           PRECINCT 303                                           01 
01080040004000106000074000032000000000000000000REP       Justice, Supreme Court, Place 5                         UNDER VOTES                           PRECINCT 404                                           01 
01080040005000021000011000010000000000000000000REP       Justice, Supreme Court, Place 5                         UNDER VOTES                           PRECINCT 305                                           01 
01080040006000033000018000015000000000000000000REP       Justice, Supreme Court, Place 5                         UNDER VOTES                           PRECINCT 406                                           01 
01090010001000160000085000075000000000000000000REP       Justice, Supreme Court, Place 9                         Eva Guzman                            PRECINCT 101                                           01 
01090010002000145000086000059000000000000000000REP       Justice, Supreme Court, Place 9                         Eva Guzman                            PRECINCT 202                                           01 
01090010003000118000078000040000000000000000000REP       Justice, Supreme Court, Place 9                         Eva Guzman                            PRECINCT 303                                           01 
01090010004000106000050000056000000000000000000REP       Justice, Supreme Court, Place 9                         Eva Guzman                            PRECINCT 404                                           01 
01090010005000035000017000018000000000000000000REP       Justice, Supreme Court, Place 9                         Eva Guzman                            PRECINCT 305                                           01 
01090010006000053000027000026000000000000000000REP       Justice, Supreme Court, Place 9                         Eva Guzman                            PRECINCT 406                                           01 
01090020001000157000085000072000000000000000000REP       Justice, Supreme Court, Place 9                         Joe Pool                              PRECINCT 101                                           01 
01090020002000176000090000086000000000000000000REP       Justice, Supreme Court, Place 9                         Joe Pool                              PRECINCT 202                                           01 
01090020003000069000040000029000000000000000000REP       Justice, Supreme Court, Place 9                         Joe Pool                              PRECINCT 303                                           01 
01090020004000096000064000032000000000000000000REP       Justice, Supreme Court, Place 9                         Joe Pool                              PRECINCT 404                                           01 
01090020005000040000021000019000000000000000000REP       Justice, Supreme Court, Place 9                         Joe Pool                              PRECINCT 305                                           01 
01090020006000041000025000016000000000000000000REP       Justice, Supreme Court, Place 9                         Joe Pool                              PRECINCT 406                                           01 
01090030001000000000000000000000000000000000000REP       Justice, Supreme Court, Place 9                         OVER VOTES                            PRECINCT 101                                           01 
01090030002000000000000000000000000000000000000REP       Justice, Supreme Court, Place 9                         OVER VOTES                            PRECINCT 202                                           01 
01090030003000000000000000000000000000000000000REP       Justice, Supreme Court, Place 9                         OVER VOTES                            PRECINCT 303                                           01 
01090030004000000000000000000000000000000000000REP       Justice, Supreme Court, Place 9                         OVER VOTES                            PRECINCT 404                                           01 
01090030005000000000000000000000000000000000000REP       Justice, Supreme Court, Place 9                         OVER VOTES                            PRECINCT 305                                           01 
01090030006000000000000000000000000000000000000REP       Justice, Supreme Court, Place 9                         OVER VOTES                            PRECINCT 406                                           01 
01090040001000084000047000037000000000000000000REP       Justice, Supreme Court, Place 9                         UNDER VOTES                           PRECINCT 101                                           01 
01090040002000082000045000037000000000000000000REP       Justice, Supreme Court, Place 9                         UNDER VOTES                           PRECINCT 202                                           01 
01090040003000104000068000036000000000000000000REP       Justice, Supreme Court, Place 9                         UNDER VOTES                           PRECINCT 303                                           01 
01090040004000093000069000024000000000000000000REP       Justice, Supreme Court, Place 9                         UNDER VOTES                           PRECINCT 404                                           01 
01090040005000019000009000010000000000000000000REP       Justice, Supreme Court, Place 9                         UNDER VOTES                           PRECINCT 305                                           01 
01090040006000033000020000013000000000000000000REP       Justice, Supreme Court, Place 9                         UNDER VOTES                           PRECINCT 406                                           01 
01100010001000106000054000052000000000000000000REP       Judge, Court of Criminal Appeals, Pl 2                  Chris Oldner                          PRECINCT 101                                           01 
01100010002000098000053000045000000000000000000REP       Judge, Court of Criminal Appeals, Pl 2                  Chris Oldner                          PRECINCT 202                                           01 
01100010003000057000036000021000000000000000000REP       Judge, Court of Criminal Appeals, Pl 2                  Chris Oldner                          PRECINCT 303                                           01 
01100010004000052000031000021000000000000000000REP       Judge, Court of Criminal Appeals, Pl 2                  Chris Oldner                          PRECINCT 404                                           01 
01100010005000021000008000013000000000000000000REP       Judge, Court of Criminal Appeals, Pl 2                  Chris Oldner                          PRECINCT 305                                           01 
01100010006000026000017000009000000000000000000REP       Judge, Court of Criminal Appeals, Pl 2                  Chris Oldner                          PRECINCT 406                                           01 
01100020001000090000053000037000000000000000000REP       Judge, Court of Criminal Appeals, Pl 2                  Ray Wheless                           PRECINCT 101                                           01 
01100020002000103000065000038000000000000000000REP       Judge, Court of Criminal Appeals, Pl 2                  Ray Wheless                           PRECINCT 202                                           01 
01100020003000059000044000015000000000000000000REP       Judge, Court of Criminal Appeals, Pl 2                  Ray Wheless                           PRECINCT 303                                           01 
01100020004000076000048000028000000000000000000REP       Judge, Court of Criminal Appeals, Pl 2                  Ray Wheless                           PRECINCT 404                                           01 
01100020005000027000015000012000000000000000000REP       Judge, Court of Criminal Appeals, Pl 2                  Ray Wheless                           PRECINCT 305                                           01 
01100020006000030000016000014000000000000000000REP       Judge, Court of Criminal Appeals, Pl 2                  Ray Wheless                           PRECINCT 406                                           01 
01100030001000104000054000050000000000000000000REP       Judge, Court of Criminal Appeals, Pl 2                  Mary Lou Keel                         PRECINCT 101                                           01 
01100030002000090000039000051000000000000000000REP       Judge, Court of Criminal Appeals, Pl 2                  Mary Lou Keel                         PRECINCT 202                                           01 
01100030003000065000041000024000000000000000000REP       Judge, Court of Criminal Appeals, Pl 2                  Mary Lou Keel                         PRECINCT 303                                           01 
01100030004000052000025000027000000000000000000REP       Judge, Court of Criminal Appeals, Pl 2                  Mary Lou Keel                         PRECINCT 404                                           01 
01100030005000024000012000012000000000000000000REP       Judge, Court of Criminal Appeals, Pl 2                  Mary Lou Keel                         PRECINCT 305                                           01 
01100030006000027000013000014000000000000000000REP       Judge, Court of Criminal Appeals, Pl 2                  Mary Lou Keel                         PRECINCT 406                                           01 
01100040001000000000000000000000000000000000000REP       Judge, Court of Criminal Appeals, Pl 2                  OVER VOTES                            PRECINCT 101                                           01 
01100040002000000000000000000000000000000000000REP       Judge, Court of Criminal Appeals, Pl 2                  OVER VOTES                            PRECINCT 202                                           01 
01100040003000000000000000000000000000000000000REP       Judge, Court of Criminal Appeals, Pl 2                  OVER VOTES                            PRECINCT 303                                           01 
01100040004000000000000000000000000000000000000REP       Judge, Court of Criminal Appeals, Pl 2                  OVER VOTES                            PRECINCT 404                                           01 
01100040005000000000000000000000000000000000000REP       Judge, Court of Criminal Appeals, Pl 2                  OVER VOTES                            PRECINCT 305                                           01 
01100040006000000000000000000000000000000000000REP       Judge, Court of Criminal Appeals, Pl 2                  OVER VOTES                            PRECINCT 406                                           01 
01100050001000101000056000045000000000000000000REP       Judge, Court of Criminal Appeals, Pl 2                  UNDER VOTES                           PRECINCT 101                                           01 
01100050002000112000064000048000000000000000000REP       Judge, Court of Criminal Appeals, Pl 2                  UNDER VOTES                           PRECINCT 202                                           01 
01100050003000110000065000045000000000000000000REP       Judge, Court of Criminal Appeals, Pl 2                  UNDER VOTES                           PRECINCT 303                                           01 
01100050004000115000079000036000000000000000000REP       Judge, Court of Criminal Appeals, Pl 2                  UNDER VOTES                           PRECINCT 404                                           01 
01100050005000022000012000010000000000000000000REP       Judge, Court of Criminal Appeals, Pl 2                  UNDER VOTES                           PRECINCT 305                                           01 
01100050006000044000026000018000000000000000000REP       Judge, Court of Criminal Appeals, Pl 2                  UNDER VOTES                           PRECINCT 406                                           01 
01110010001000045000024000021000000000000000000REP       Judge, Court of Criminal Appeals, Pl 5                  Brent Webster                         PRECINCT 101                                           01 
01110010002000048000022000026000000000000000000REP       Judge, Court of Criminal Appeals, Pl 5                  Brent Webster                         PRECINCT 202                                           01 
01110010003000031000021000010000000000000000000REP       Judge, Court of Criminal Appeals, Pl 5                  Brent Webster                         PRECINCT 303                                           01 
01110010004000026000012000014000000000000000000REP       Judge, Court of Criminal Appeals, Pl 5                  Brent Webster                         PRECINCT 404                                           01 
01110010005000007000006000001000000000000000000REP       Judge, Court of Criminal Appeals, Pl 5                  Brent Webster                         PRECINCT 305                                           01 
01110010006000012000006000006000000000000000000REP       Judge, Court of Criminal Appeals, Pl 5                  Brent Webster                         PRECINCT 406                                           01 
01110020001000174000097000077000000000000000000REP       Judge, Court of Criminal Appeals, Pl 5                  Scott Walker                          PRECINCT 101                                           01 
01110020002000168000089000079000000000000000000REP       Judge, Court of Criminal Appeals, Pl 5                  Scott Walker                          PRECINCT 202                                           01 
01110020003000082000045000037000000000000000000REP       Judge, Court of Criminal Appeals, Pl 5                  Scott Walker                          PRECINCT 303                                           01 
01110020004000084000055000029000000000000000000REP       Judge, Court of Criminal Appeals, Pl 5                  Scott Walker                          PRECINCT 404                                           01 
01110020005000029000014000015000000000000000000REP       Judge, Court of Criminal Appeals, Pl 5                  Scott Walker                          PRECINCT 305                                           01 
01110020006000053000031000022000000000000000000REP       Judge, Court of Criminal Appeals, Pl 5                  Scott Walker                          PRECINCT 406                                           01 
01110030001000036000020000016000000000000000000REP       Judge, Court of Criminal Appeals, Pl 5                  Sid Harle                             PRECINCT 101                                           01 
01110030002000034000025000009000000000000000000REP       Judge, Court of Criminal Appeals, Pl 5                  Sid Harle                             PRECINCT 202                                           01 
01110030003000029000024000005000000000000000000REP       Judge, Court of Criminal Appeals, Pl 5                  Sid Harle                             PRECINCT 303                                           01 
01110030004000021000016000005000000000000000000REP       Judge, Court of Criminal Appeals, Pl 5                  Sid Harle                             PRECINCT 404                                           01 
01110030005000010000003000007000000000000000000REP       Judge, Court of Criminal Appeals, Pl 5                  Sid Harle                             PRECINCT 305                                           01 
01110030006000003000001000002000000000000000000REP       Judge, Court of Criminal Appeals, Pl 5                  Sid Harle                             PRECINCT 406                                           01 
01110040001000049000020000029000000000000000000REP       Judge, Court of Criminal Appeals, Pl 5                  Steve Smith                           PRECINCT 101                                           01 
01110040002000052000024000028000000000000000000REP       Judge, Court of Criminal Appeals, Pl 5                  Steve Smith                           PRECINCT 202                                           01 
01110040003000043000033000010000000000000000000REP       Judge, Court of Criminal Appeals, Pl 5                  Steve Smith                           PRECINCT 303                                           01 
01110040004000050000023000027000000000000000000REP       Judge, Court of Criminal Appeals, Pl 5                  Steve Smith                           PRECINCT 404                                           01 
01110040005000025000012000013000000000000000000REP       Judge, Court of Criminal Appeals, Pl 5                  Steve Smith                           PRECINCT 305                                           01 
01110040006000018000011000007000000000000000000REP       Judge, Court of Criminal Appeals, Pl 5                  Steve Smith                           PRECINCT 406                                           01 
01110050001000000000000000000000000000000000000REP       Judge, Court of Criminal Appeals, Pl 5                  OVER VOTES                            PRECINCT 101                                           01 
01110050002000000000000000000000000000000000000REP       Judge, Court of Criminal Appeals, Pl 5                  OVER VOTES                            PRECINCT 202                                           01 
01110050003000000000000000000000000000000000000REP       Judge, Court of Criminal Appeals, Pl 5                  OVER VOTES                            PRECINCT 303                                           01 
01110050004000000000000000000000000000000000000REP       Judge, Court of Criminal Appeals, Pl 5                  OVER VOTES                            PRECINCT 404                                           01 
01110050005000000000000000000000000000000000000REP       Judge, Court of Criminal Appeals, Pl 5                  OVER VOTES                            PRECINCT 305                                           01 
01110050006000000000000000000000000000000000000REP       Judge, Court of Criminal Appeals, Pl 5                  OVER VOTES                            PRECINCT 406                                           01 
01110060001000097000056000041000000000000000000REP       Judge, Court of Criminal Appeals, Pl 5                  UNDER VOTES                           PRECINCT 101                                           01 
01110060002000101000061000040000000000000000000REP       Judge, Court of Criminal Appeals, Pl 5                  UNDER VOTES                           PRECINCT 202                                           01 
01110060003000106000063000043000000000000000000REP       Judge, Court of Criminal Appeals, Pl 5                  UNDER VOTES                           PRECINCT 303                                           01 
01110060004000114000077000037000000000000000000REP       Judge, Court of Criminal Appeals, Pl 5                  UNDER VOTES                           PRECINCT 404                                           01 
01110060005000023000012000011000000000000000000REP       Judge, Court of Criminal Appeals, Pl 5                  UNDER VOTES                           PRECINCT 305                                           01 
01110060006000041000023000018000000000000000000REP       Judge, Court of Criminal Appeals, Pl 5                  UNDER VOTES                           PRECINCT 406                                           01 
01120010001000184000089000095000000000000000000REP       Judge, Court of Criminal Appeals, Pl 6                  Richard Davis                         PRECINCT 101                                           01 
01120010002000182000098000084000000000000000000REP       Judge, Court of Criminal Appeals, Pl 6                  Richard Davis                         PRECINCT 202                                           01 
01120010003000092000062000030000000000000000000REP       Judge, Court of Criminal Appeals, Pl 6                  Richard Davis                         PRECINCT 303                                           01 
01120010004000102000061000041000000000000000000REP       Judge, Court of Criminal Appeals, Pl 6                  Richard Davis                         PRECINCT 404                                           01 
01120010005000042000024000018000000000000000000REP       Judge, Court of Criminal Appeals, Pl 6                  Richard Davis                         PRECINCT 305                                           01 
01120010006000057000035000022000000000000000000REP       Judge, Court of Criminal Appeals, Pl 6                  Richard Davis                         PRECINCT 406                                           01 
01120020001000116000072000044000000000000000000REP       Judge, Court of Criminal Appeals, Pl 6                  Michael E. Keasler                    PRECINCT 101                                           01 
01120020002000114000062000052000000000000000000REP       Judge, Court of Criminal Appeals, Pl 6                  Michael E. Keasler                    PRECINCT 202                                           01 
01120020003000081000051000030000000000000000000REP       Judge, Court of Criminal Appeals, Pl 6                  Michael E. Keasler                    PRECINCT 303                                           01 
01120020004000070000039000031000000000000000000REP       Judge, Court of Criminal Appeals, Pl 6                  Michael E. Keasler                    PRECINCT 404                                           01 
01120020005000029000010000019000000000000000000REP       Judge, Court of Criminal Appeals, Pl 6                  Michael E. Keasler                    PRECINCT 305                                           01 
01120020006000026000011000015000000000000000000REP       Judge, Court of Criminal Appeals, Pl 6                  Michael E. Keasler                    PRECINCT 406                                           01 
01120030001000000000000000000000000000000000000REP       Judge, Court of Criminal Appeals, Pl 6                  OVER VOTES                            PRECINCT 101                                           01 
01120030002000000000000000000000000000000000000REP       Judge, Court of Criminal Appeals, Pl 6                  OVER VOTES                            PRECINCT 202                                           01 
01120030003000000000000000000000000000000000000REP       Judge, Court of Criminal Appeals, Pl 6                  OVER VOTES                            PRECINCT 303                                           01 
01120030004000000000000000000000000000000000000REP       Judge, Court of Criminal Appeals, Pl 6                  OVER VOTES                            PRECINCT 404                                           01 
01120030005000000000000000000000000000000000000REP       Judge, Court of Criminal Appeals, Pl 6                  OVER VOTES                            PRECINCT 305                                           01 
01120030006000000000000000000000000000000000000REP       Judge, Court of Criminal Appeals, Pl 6                  OVER VOTES                            PRECINCT 406                                           01 
01120040001000101000056000045000000000000000000REP       Judge, Court of Criminal Appeals, Pl 6                  UNDER VOTES                           PRECINCT 101                                           01 
01120040002000107000061000046000000000000000000REP       Judge, Court of Criminal Appeals, Pl 6                  UNDER VOTES                           PRECINCT 202                                           01 
01120040003000118000073000045000000000000000000REP       Judge, Court of Criminal Appeals, Pl 6                  UNDER VOTES                           PRECINCT 303                                           01 
01120040004000123000083000040000000000000000000REP       Judge, Court of Criminal Appeals, Pl 6                  UNDER VOTES                           PRECINCT 404                                           01 
01120040005000023000013000010000000000000000000REP       Judge, Court of Criminal Appeals, Pl 6                  UNDER VOTES                           PRECINCT 305                                           01 
01120040006000044000026000018000000000000000000REP       Judge, Court of Criminal Appeals, Pl 6                  UNDER VOTES                           PRECINCT 406                                           01 
01130010001000290000161000129000000000000000000REP       Member, State BoE, District 15                          Marty Rowley                          PRECINCT 101                                           01 
01130010002000285000162000123000000000000000000REP       Member, State BoE, District 15                          Marty Rowley                          PRECINCT 202                                           01 
01130010003000164000111000053000000000000000000REP       Member, State BoE, District 15                          Marty Rowley                          PRECINCT 303                                           01 
01130010004000174000108000066000000000000000000REP       Member, State BoE, District 15                          Marty Rowley                          PRECINCT 404                                           01 
01130010005000068000036000032000000000000000000REP       Member, State BoE, District 15                          Marty Rowley                          PRECINCT 305                                           01 
01130010006000088000048000040000000000000000000REP       Member, State BoE, District 15                          Marty Rowley                          PRECINCT 406                                           01 
01130020001000000000000000000000000000000000000REP       Member, State BoE, District 15                          OVER VOTES                            PRECINCT 101                                           01 
01130020002000000000000000000000000000000000000REP       Member, State BoE, District 15                          OVER VOTES                            PRECINCT 202                                           01 
01130020003000000000000000000000000000000000000REP       Member, State BoE, District 15                          OVER VOTES                            PRECINCT 303                                           01 
01130020004000000000000000000000000000000000000REP       Member, State BoE, District 15                          OVER VOTES                            PRECINCT 404                                           01 
01130020005000000000000000000000000000000000000REP       Member, State BoE, District 15                          OVER VOTES                            PRECINCT 305                                           01 
01130020006000000000000000000000000000000000000REP       Member, State BoE, District 15                          OVER VOTES                            PRECINCT 406                                           01 
01130030001000111000056000055000000000000000000REP       Member, State BoE, District 15                          UNDER VOTES                           PRECINCT 101                                           01 
01130030002000118000059000059000000000000000000REP       Member, State BoE, District 15                          UNDER VOTES                           PRECINCT 202                                           01 
01130030003000127000075000052000000000000000000REP       Member, State BoE, District 15                          UNDER VOTES                           PRECINCT 303                                           01 
01130030004000121000075000046000000000000000000REP       Member, State BoE, District 15                          UNDER VOTES                           PRECINCT 404                                           01 
01130030005000026000011000015000000000000000000REP       Member, State BoE, District 15                          UNDER VOTES                           PRECINCT 305                                           01 
01130030006000039000024000015000000000000000000REP       Member, State BoE, District 15                          UNDER VOTES                           PRECINCT 406                                           01 
01140010001000310000171000139000000000000000000REP       State Representative, District 88                       Ken King                              PRECINCT 101                                           01 
01140010002000296000167000129000000000000000000REP       State Representative, District 88                       Ken King                              PRECINCT 202                                           01 
01140010003000166000114000052000000000000000000REP       State Representative, District 88                       Ken King                              PRECINCT 303                                           01 
01140010004000192000119000073000000000000000000REP       State Representative, District 88                       Ken King                              PRECINCT 404                                           01 
01140010005000070000035000035000000000000000000REP       State Representative, District 88                       Ken King                              PRECINCT 305                                           01 
01140010006000094000055000039000000000000000000REP       State Representative, District 88                       Ken King                              PRECINCT 406                                           01 
01140020001000000000000000000000000000000000000REP       State Representative, District 88                       OVER VOTES                            PRECINCT 101                                           01 
01140020002000000000000000000000000000000000000REP       State Representative, District 88                       OVER VOTES                            PRECINCT 202                                           01 
01140020003000000000000000000000000000000000000REP       State Representative, District 88                       OVER VOTES                            PRECINCT 303                                           01 
01140020004000000000000000000000000000000000000REP       State Representative, District 88                       OVER VOTES                            PRECINCT 404                                           01 
01140020005000000000000000000000000000000000000REP       State Representative, District 88                       OVER VOTES                            PRECINCT 305                                           01 
01140020006000000000000000000000000000000000000REP       State Representative, District 88                       OVER VOTES                            PRECINCT 406                                           01 
01140030001000091000046000045000000000000000000REP       State Representative, District 88                       UNDER VOTES                           PRECINCT 101                                           01 
01140030002000107000054000053000000000000000000REP       State Representative, District 88                       UNDER VOTES                           PRECINCT 202                                           01 
01140030003000125000072000053000000000000000000REP       State Representative, District 88                       UNDER VOTES                           PRECINCT 303                                           01 
01140030004000103000064000039000000000000000000REP       State Representative, District 88                       UNDER VOTES                           PRECINCT 404                                           01 
01140030005000024000012000012000000000000000000REP       State Representative, District 88                       UNDER VOTES                           PRECINCT 305                                           01 
01140030006000033000017000016000000000000000000REP       State Representative, District 88                       UNDER VOTES                           PRECINCT 406                                           01 
01150010001000301000161000140000000000000000000REP       Justice, 7th Ct of Appeals Dist, Pl 4                   Jim Campbell                          PRECINCT 101                                           01 
01150010002000286000159000127000000000000000000REP       Justice, 7th Ct of Appeals Dist, Pl 4                   Jim Campbell                          PRECINCT 202                                           01 
01150010003000163000109000054000000000000000000REP       Justice, 7th Ct of Appeals Dist, Pl 4                   Jim Campbell                          PRECINCT 303                                           01 
01150010004000177000110000067000000000000000000REP       Justice, 7th Ct of Appeals Dist, Pl 4                   Jim Campbell                          PRECINCT 404                                           01 
01150010005000071000037000034000000000000000000REP       Justice, 7th Ct of Appeals Dist, Pl 4                   Jim Campbell                          PRECINCT 305                                           01 
01150010006000087000050000037000000000000000000REP       Justice, 7th Ct of Appeals Dist, Pl 4                   Jim Campbell                          PRECINCT 406                                           01 
01150020001000000000000000000000000000000000000REP       Justice, 7th Ct of Appeals Dist, Pl 4                   OVER VOTES                            PRECINCT 101                                           01 
01150020002000000000000000000000000000000000000REP       Justice, 7th Ct of Appeals Dist, Pl 4                   OVER VOTES                            PRECINCT 202                                           01 
01150020003000000000000000000000000000000000000REP       Justice, 7th Ct of Appeals Dist, Pl 4                   OVER VOTES                            PRECINCT 303                                           01 
01150020004000000000000000000000000000000000000REP       Justice, 7th Ct of Appeals Dist, Pl 4                   OVER VOTES                            PRECINCT 404                                           01 
01150020005000000000000000000000000000000000000REP       Justice, 7th Ct of Appeals Dist, Pl 4                   OVER VOTES                            PRECINCT 305                                           01 
01150020006000000000000000000000000000000000000REP       Justice, 7th Ct of Appeals Dist, Pl 4                   OVER VOTES                            PRECINCT 406                                           01 
01150030001000100000056000044000000000000000000REP       Justice, 7th Ct of Appeals Dist, Pl 4                   UNDER VOTES                           PRECINCT 101                                           01 
01150030002000117000062000055000000000000000000REP       Justice, 7th Ct of Appeals Dist, Pl 4                   UNDER VOTES                           PRECINCT 202                                           01 
01150030003000128000077000051000000000000000000REP       Justice, 7th Ct of Appeals Dist, Pl 4                   UNDER VOTES                           PRECINCT 303                                           01 
01150030004000118000073000045000000000000000000REP       Justice, 7th Ct of Appeals Dist, Pl 4                   UNDER VOTES                           PRECINCT 404                                           01 
01150030005000023000010000013000000000000000000REP       Justice, 7th Ct of Appeals Dist, Pl 4                   UNDER VOTES                           PRECINCT 305                                           01 
01150030006000040000022000018000000000000000000REP       Justice, 7th Ct of Appeals Dist, Pl 4                   UNDER VOTES                           PRECINCT 406                                           01 
01160010001000298000162000136000000000000000000REP       District Judge, 121st Judicial District                 J.A. Trey Didway                      PRECINCT 101                                           01 
01160010002000281000159000122000000000000000000REP       District Judge, 121st Judicial District                 J.A. Trey Didway                      PRECINCT 202                                           01 
01160010003000161000110000051000000000000000000REP       District Judge, 121st Judicial District                 J.A. Trey Didway                      PRECINCT 303                                           01 
01160010004000190000122000068000000000000000000REP       District Judge, 121st Judicial District                 J.A. Trey Didway                      PRECINCT 404                                           01 
01160010005000067000034000033000000000000000000REP       District Judge, 121st Judicial District                 J.A. Trey Didway                      PRECINCT 305                                           01 
01160010006000086000048000038000000000000000000REP       District Judge, 121st Judicial District                 J.A. Trey Didway                      PRECINCT 406                                           01 
01160020001000000000000000000000000000000000000REP       District Judge, 121st Judicial District                 OVER VOTES                            PRECINCT 101                                           01 
01160020002000000000000000000000000000000000000REP       District Judge, 121st Judicial District                 OVER VOTES                            PRECINCT 202                                           01 
01160020003000000000000000000000000000000000000REP       District Judge, 121st Judicial District                 OVER VOTES                            PRECINCT 303                                           01 
01160020004000000000000000000000000000000000000REP       District Judge, 121st Judicial District                 OVER VOTES                            PRECINCT 404                                           01 
01160020005000000000000000000000000000000000000REP       District Judge, 121st Judicial District                 OVER VOTES                            PRECINCT 305                                           01 
01160020006000000000000000000000000000000000000REP       District Judge, 121st Judicial District                 OVER VOTES                            PRECINCT 406                                           01 
01160030001000103000055000048000000000000000000REP       District Judge, 121st Judicial District                 UNDER VOTES                           PRECINCT 101                                           01 
01160030002000122000062000060000000000000000000REP       District Judge, 121st Judicial District                 UNDER VOTES                           PRECINCT 202                                           01 
01160030003000130000076000054000000000000000000REP       District Judge, 121st Judicial District                 UNDER VOTES                           PRECINCT 303                                           01 
01160030004000105000061000044000000000000000000REP       District Judge, 121st Judicial District                 UNDER VOTES                           PRECINCT 404                                           01 
01160030005000027000013000014000000000000000000REP       District Judge, 121st Judicial District                 UNDER VOTES                           PRECINCT 305                                           01 
01160030006000041000024000017000000000000000000REP       District Judge, 121st Judicial District                 UNDER VOTES                           PRECINCT 406                                           01 
01170010001000118000060000058000000000000000000REP       Sheriff                                                 Brad Taylor                           PRECINCT 101                                           01 
01170010002000131000074000057000000000000000000REP       Sheriff                                                 Brad Taylor                           PRECINCT 202                                           01 
01170010003000022000012000010000000000000000000REP       Sheriff                                                 Brad Taylor                           PRECINCT 303                                           01 
01170010004000017000009000008000000000000000000REP       Sheriff                                                 Brad Taylor                           PRECINCT 404                                           01 
01170010005000023000012000011000000000000000000REP       Sheriff                                                 Brad Taylor                           PRECINCT 305                                           01 
