01010010001001044000000000000000000000000000000          REGISTERED VOTERS - TOTAL                               REGISTERED VOTERS - TOTAL             PRECINCT 101                                           00 
01010010002001077000000000000000000000000000000          REGISTERED VOTERS - TOTAL                               REGISTERED VOTERS - TOTAL             PRECINCT 202                                           00 
01010010003000550000000000000000000000000000000          REGISTERED VOTERS - TOTAL                               REGISTERED VOTERS - TOTAL             PRECINCT 303                                           00 
01010010004000590000000000000000000000000000000          REGISTERED VOTERS - TOTAL                               REGISTERED VOTERS - TOTAL             PRECINCT 404                                           00 
01010010005000374000000000000000000000000000000          REGISTERED VOTERS - TOTAL                               REGISTERED VOTERS - TOTAL             PRECINCT 305                                           00 
01010010006000527000000000000000000000000000000          REGISTERED VOTERS - TOTAL                               REGISTERED VOTERS - TOTAL             PRECINCT 406                                           00 
01020010001000608000449000159000000000000000000          BALLOTS CAST - TOTAL                                    BALLOTS CAST - TOTAL                  PRECINCT 101                                           00 
01020010002000611000433000178000000000000000000          BALLOTS CAST - TOTAL                                    BALLOTS CAST - TOTAL                  PRECINCT 202                                           00 
01020010003000307000183000124000000000000000000          BALLOTS CAST - TOTAL                                    BALLOTS CAST - TOTAL                  PRECINCT 303                                           00 
01020010004000377000277000100000000000000000000          BALLOTS CAST - TOTAL                                    BALLOTS CAST - TOTAL                  PRECINCT 404                                           00 
01020010005000173000116000057000000000000000000          BALLOTS CAST - TOTAL                                    BALLOTS CAST - TOTAL                  PRECINCT 305                                           00 
01020010006000250000178000072000000000000000000          BALLOTS CAST - TOTAL                                    BALLOTS CAST - TOTAL                  PRECINCT 406                                           00 
01030010001000294000217000077000000000000000000REP       Straight Party                                          Republican Party                      PRECINCT 101                                           01 
01030010002000303000223000080000000000000000000REP       Straight Party                                          Republican Party                      PRECINCT 202                                           01 
01030010003000109000067000042000000000000000000REP       Straight Party                                          Republican Party                      PRECINCT 303                                           01 
01030010004000136000097000039000000000000000000REP       Straight Party                                          Republican Party                      PRECINCT 404                                           01 
01030010005000067000043000024000000000000000000REP       Straight Party                                          Republican Party                      PRECINCT 305                                           01 
01030010006000112000086000026000000000000000000REP       Straight Party                                          Republican Party                      PRECINCT 406                                           01 
01030020001000060000031000029000000000000000000DEM       Straight Party                                          Democratic Party                      PRECINCT 101                                           01 
01030020002000058000033000025000000000000000000DEM       Straight Party                                          Democratic Party                      PRECINCT 202                                           01 
01030020003000034000011000023000000000000000000DEM       Straight Party                                          Democratic Party                      PRECINCT 303                                           01 
01030020004000026000015000011000000000000000000DEM       Straight Party                                          Democratic Party                      PRECINCT 404                                           01 
01030020005000039000025000014000000000000000000DEM       Straight Party                                          Democratic Party                      PRECINCT 305                                           01 
01030020006000042000023000019000000000000000000DEM       Straight Party                                          Democratic Party                      PRECINCT 406                                           01 
01030030001000008000005000003000000000000000000LIB       Straight Party                                          Libertarian Party                     PRECINCT 101                                           01 
01030030002000009000004000005000000000000000000LIB       Straight Party                                          Libertarian Party                     PRECINCT 202                                           01 
01030030003000007000001000006000000000000000000LIB       Straight Party                                          Libertarian Party                     PRECINCT 303                                           01 
01030030004000001000000000001000000000000000000LIB       Straight Party                                          Libertarian Party                     PRECINCT 404                                           01 
01030030005000005000002000003000000000000000000LIB       Straight Party                                          Libertarian Party                     PRECINCT 305                                           01 
01030030006000006000006000000000000000000000000LIB       Straight Party                                          Libertarian Party                     PRECINCT 406                                           01 
01030040001000002000000000002000000000000000000GRN       Straight Party                                          Green Party                           PRECINCT 101                                           01 
01030040002000000000000000000000000000000000000GRN       Straight Party                                          Green Party                           PRECINCT 202                                           01 
01030040003000003000001000002000000000000000000GRN       Straight Party                                          Green Party                           PRECINCT 303                                           01 
01030040004000000000000000000000000000000000000GRN       Straight Party                                          Green Party                           PRECINCT 404                                           01 
01030040005000000000000000000000000000000000000GRN       Straight Party                                          Green Party                           PRECINCT 305                                           01 
01030040006000000000000000000000000000000000000GRN       Straight Party                                          Green Party                           PRECINCT 406                                           01 
01030050001000000000000000000000000000000000000          Straight Party                                          OVER VOTES                            PRECINCT 101                                           01 
01030050002000000000000000000000000000000000000          Straight Party                                          OVER VOTES                            PRECINCT 202                                           01 
01030050003000000000000000000000000000000000000          Straight Party                                          OVER VOTES                            PRECINCT 303                                           01 
01030050004000000000000000000000000000000000000          Straight Party                                          OVER VOTES                            PRECINCT 404                                           01 
01030050005000000000000000000000000000000000000          Straight Party                                          OVER VOTES                            PRECINCT 305                                           01 
01030050006000000000000000000000000000000000000          Straight Party                                          OVER VOTES                            PRECINCT 406                                           01 
01030060001000244000196000048000000000000000000          Straight Party                                          UNDER VOTES                           PRECINCT 101                                           01 
01030060002000241000173000068000000000000000000          Straight Party                                          UNDER VOTES                           PRECINCT 202                                           01 
01030060003000154000103000051000000000000000000          Straight Party                                          UNDER VOTES                           PRECINCT 303                                           01 
01030060004000214000165000049000000000000000000          Straight Party                                          UNDER VOTES                           PRECINCT 404                                           01 
01030060005000062000046000016000000000000000000          Straight Party                                          UNDER VOTES                           PRECINCT 305                                           01 
01030060006000090000063000027000000000000000000          Straight Party                                          UNDER VOTES                           PRECINCT 406                                           01 
01040010001000498000379000119000000000000000000REP       President and Vice President                            Donald J. Trump / Mike Pence          PRECINCT 101                                           01 
01040010002000503000372000131000000000000000000REP       President and Vice President                            Donald J. Trump / Mike Pence          PRECINCT 202                                           01 
01040010003000222000146000076000000000000000000REP       President and Vice President                            Donald J. Trump / Mike Pence          PRECINCT 303                                           01 
01040010004000296000223000073000000000000000000REP       President and Vice President                            Donald J. Trump / Mike Pence          PRECINCT 404                                           01 
01040010005000113000078000035000000000000000000REP       President and Vice President                            Donald J. Trump / Mike Pence          PRECINCT 305                                           01 
01040010006000165000122000043000000000000000000REP       President and Vice President                            Donald J. Trump / Mike Pence          PRECINCT 406                                           01 
01040020001000088000053000035000000000000000000DEM       President and Vice President                            Hillary Clinton / Tim Kaine           PRECINCT 101                                           01 
01040020002000090000052000038000000000000000000DEM       President and Vice President                            Hillary Clinton / Tim Kaine           PRECINCT 202                                           01 
01040020003000056000027000029000000000000000000DEM       President and Vice President                            Hillary Clinton / Tim Kaine           PRECINCT 303                                           01 
01040020004000063000042000021000000000000000000DEM       President and Vice President                            Hillary Clinton / Tim Kaine           PRECINCT 404                                           01 
01040020005000056000035000021000000000000000000DEM       President and Vice President                            Hillary Clinton / Tim Kaine           PRECINCT 305                                           01 
01040020006000073000048000025000000000000000000DEM       President and Vice President                            Hillary Clinton / Tim Kaine           PRECINCT 406                                           01 
01040030001000013000010000003000000000000000000LIB       President and Vice President                            Gary Johnson / William Weld           PRECINCT 101                                           01 
01040030002000016000009000007000000000000000000LIB       President and Vice President                            Gary Johnson / William Weld           PRECINCT 202                                           01 
01040030003000019000008000011000000000000000000LIB       President and Vice President                            Gary Johnson / William Weld           PRECINCT 303                                           01 
01040030004000013000008000005000000000000000000LIB       President and Vice President                            Gary Johnson / William Weld           PRECINCT 404                                           01 
01040030005000004000003000001000000000000000000LIB       President and Vice President                            Gary Johnson / William Weld           PRECINCT 305                                           01 
01040030006000008000006000002000000000000000000LIB       President and Vice President                            Gary Johnson / William Weld           PRECINCT 406                                           01 
01040040001000001000000000001000000000000000000GRN       President and Vice President                            Jill Stein / Ajamu Baraka             PRECINCT 101                                           01 
01040040002000000000000000000000000000000000000GRN       President and Vice President                            Jill Stein / Ajamu Baraka             PRECINCT 202                                           01 
01040040003000002000001000001000000000000000000GRN       President and Vice President                            Jill Stein / Ajamu Baraka             PRECINCT 303                                           01 
01040040004000000000000000000000000000000000000GRN       President and Vice President                            Jill Stein / Ajamu Baraka             PRECINCT 404                                           01 
01040040005000000000000000000000000000000000000GRN       President and Vice President                            Jill Stein / Ajamu Baraka             PRECINCT 305                                           01 
01040040006000000000000000000000000000000000000GRN       President and Vice President                            Jill Stein / Ajamu Baraka             PRECINCT 406                                           01 
01040050001000003000003000000000000000000000000NON       President and Vice President                            WRITE-IN                              PRECINCT 101                                           01 
01040050002000000000000000000000000000000000000NON       President and Vice President                            WRITE-IN                              PRECINCT 202                                           01 
01040050003000003000001000002000000000000000000NON       President and Vice President                            WRITE-IN                              PRECINCT 303                                           01 
01040050004000003000002000001000000000000000000NON       President and Vice President                            WRITE-IN                              PRECINCT 404                                           01 
01040050005000000000000000000000000000000000000NON       President and Vice President                            WRITE-IN                              PRECINCT 305                                           01 
01040050006000002000000000002000000000000000000NON       President and Vice President                            WRITE-IN                              PRECINCT 406                                           01 
01040060001000000000000000000000000000000000000          President and Vice President                            OVER VOTES                            PRECINCT 101                                           01 
01040060002000000000000000000000000000000000000          President and Vice President                            OVER VOTES                            PRECINCT 202                                           01 
01040060003000000000000000000000000000000000000          President and Vice President                            OVER VOTES                            PRECINCT 303                                           01 
01040060004000000000000000000000000000000000000          President and Vice President                            OVER VOTES                            PRECINCT 404                                           01 
01040060005000000000000000000000000000000000000          President and Vice President                            OVER VOTES                            PRECINCT 305                                           01 
01040060006000000000000000000000000000000000000          President and Vice President                            OVER VOTES                            PRECINCT 406                                           01 
01040070001000005000004000001000000000000000000          President and Vice President                            UNDER VOTES                           PRECINCT 101                                           01 
01040070002000002000000000002000000000000000000          President and Vice President                            UNDER VOTES                           PRECINCT 202                                           01 
01040070003000005000000000005000000000000000000          President and Vice President                            UNDER VOTES                           PRECINCT 303                                           01 
01040070004000002000002000000000000000000000000          President and Vice President                            UNDER VOTES                           PRECINCT 404                                           01 
01040070005000000000000000000000000000000000000          President and Vice President                            UNDER VOTES                           PRECINCT 305                                           01 
01040070006000002000002000000000000000000000000          President and Vice President                            UNDER VOTES                           PRECINCT 406                                           01 
01050010001000520000394000126000000000000000000REP       United States Representative, District 19               Jodey Arrington                       PRECINCT 101                                           01 
01050010002000520000381000139000000000000000000REP       United States Representative, District 19               Jodey Arrington                       PRECINCT 202                                           01 
01050010003000232000145000087000000000000000000REP       United States Representative, District 19               Jodey Arrington                       PRECINCT 303                                           01 
01050010004000321000239000082000000000000000000REP       United States Representative, District 19               Jodey Arrington                       PRECINCT 404                                           01 
01050010005000127000086000041000000000000000000REP       United States Representative, District 19               Jodey Arrington                       PRECINCT 305                                           01 
01050010006000184000132000052000000000000000000REP       United States Representative, District 19               Jodey Arrington                       PRECINCT 406                                           01 
01050020001000030000015000015000000000000000000LIB       United States Representative, District 19               Troy Bonar                            PRECINCT 101                                           01 
01050020002000024000011000013000000000000000000LIB       United States Representative, District 19               Troy Bonar                            PRECINCT 202                                           01 
01050020003000025000013000012000000000000000000LIB       United States Representative, District 19               Troy Bonar                            PRECINCT 303                                           01 
01050020004000015000009000006000000000000000000LIB       United States Representative, District 19               Troy Bonar                            PRECINCT 404                                           01 
01050020005000011000007000004000000000000000000LIB       United States Representative, District 19               Troy Bonar                            PRECINCT 305                                           01 
01050020006000021000013000008000000000000000000LIB       United States Representative, District 19               Troy Bonar                            PRECINCT 406                                           01 
01050030001000015000008000007000000000000000000GRN       United States Representative, District 19               Mark Lawson                           PRECINCT 101                                           01 
01050030002000017000009000008000000000000000000GRN       United States Representative, District 19               Mark Lawson                           PRECINCT 202                                           01 
01050030003000007000004000003000000000000000000GRN       United States Representative, District 19               Mark Lawson                           PRECINCT 303                                           01 
01050030004000007000004000003000000000000000000GRN       United States Representative, District 19               Mark Lawson                           PRECINCT 404                                           01 
01050030005000003000001000002000000000000000000GRN       United States Representative, District 19               Mark Lawson                           PRECINCT 305                                           01 
01050030006000009000007000002000000000000000000GRN       United States Representative, District 19               Mark Lawson                           PRECINCT 406                                           01 
01050040001000000000000000000000000000000000000          United States Representative, District 19               OVER VOTES                            PRECINCT 101                                           01 
01050040002000001000001000000000000000000000000          United States Representative, District 19               OVER VOTES                            PRECINCT 202                                           01 
01050040003000000000000000000000000000000000000          United States Representative, District 19               OVER VOTES                            PRECINCT 303                                           01 
01050040004000000000000000000000000000000000000          United States Representative, District 19               OVER VOTES                            PRECINCT 404                                           01 
01050040005000000000000000000000000000000000000          United States Representative, District 19               OVER VOTES                            PRECINCT 305                                           01 
01050040006000000000000000000000000000000000000          United States Representative, District 19               OVER VOTES                            PRECINCT 406                                           01 
01050050001000043000032000011000000000000000000          United States Representative, District 19               UNDER VOTES                           PRECINCT 101                                           01 
01050050002000049000031000018000000000000000000          United States Representative, District 19               UNDER VOTES                           PRECINCT 202                                           01 
01050050003000043000021000022000000000000000000          United States Representative, District 19               UNDER VOTES                           PRECINCT 303                                           01 
01050050004000034000025000009000000000000000000          United States Representative, District 19               UNDER VOTES                           PRECINCT 404                                           01 
01050050005000032000022000010000000000000000000          United States Representative, District 19               UNDER VOTES                           PRECINCT 305                                           01 
01050050006000036000026000010000000000000000000          United States Representative, District 19               UNDER VOTES                           PRECINCT 406                                           01 
01060010001000453000347000106000000000000000000REP       Railroad Commissioner                                   Wayne Christian                       PRECINCT 101                                           01 
01060010002000474000352000122000000000000000000REP       Railroad Commissioner                                   Wayne Christian                       PRECINCT 202                                           01 
01060010003000195000126000069000000000000000000REP       Railroad Commissioner                                   Wayne Christian                       PRECINCT 303                                           01 
01060010004000252000189000063000000000000000000REP       Railroad Commissioner                                   Wayne Christian                       PRECINCT 404                                           01 
01060010005000102000071000031000000000000000000REP       Railroad Commissioner                                   Wayne Christian                       PRECINCT 305                                           01 
01060010006000153000116000037000000000000000000REP       Railroad Commissioner                                   Wayne Christian                       PRECINCT 406                                           01 
01060020001000087000053000034000000000000000000DEM       Railroad Commissioner                                   Grady Yarbrough                       PRECINCT 101                                           01 
01060020002000087000054000033000000000000000000DEM       Railroad Commissioner                                   Grady Yarbrough                       PRECINCT 202                                           01 
01060020003000046000024000022000000000000000000DEM       Railroad Commissioner                                   Grady Yarbrough                       PRECINCT 303                                           01 
01060020004000067000049000018000000000000000000DEM       Railroad Commissioner                                   Grady Yarbrough                       PRECINCT 404                                           01 
01060020005000042000027000015000000000000000000DEM       Railroad Commissioner                                   Grady Yarbrough                       PRECINCT 305                                           01 
01060020006000054000031000023000000000000000000DEM       Railroad Commissioner                                   Grady Yarbrough                       PRECINCT 406                                           01 
01060030001000028000020000008000000000000000000LIB       Railroad Commissioner                                   Mark Miller                           PRECINCT 101                                           01 
01060030002000017000011000006000000000000000000LIB       Railroad Commissioner                                   Mark Miller                           PRECINCT 202                                           01 
01060030003000015000005000010000000000000000000LIB       Railroad Commissioner                                   Mark Miller                           PRECINCT 303                                           01 
01060030004000013000009000004000000000000000000LIB       Railroad Commissioner                                   Mark Miller                           PRECINCT 404                                           01 
01060030005000007000003000004000000000000000000LIB       Railroad Commissioner                                   Mark Miller                           PRECINCT 305                                           01 
01060030006000012000006000006000000000000000000LIB       Railroad Commissioner                                   Mark Miller                           PRECINCT 406                                           01 
01060040001000017000008000009000000000000000000GRN       Railroad Commissioner                                   Martina Salinas                       PRECINCT 101                                           01 
01060040002000020000006000014000000000000000000GRN       Railroad Commissioner                                   Martina Salinas                       PRECINCT 202                                           01 
01060040003000017000006000011000000000000000000GRN       Railroad Commissioner                                   Martina Salinas                       PRECINCT 303                                           01 
01060040004000014000006000008000000000000000000GRN       Railroad Commissioner                                   Martina Salinas                       PRECINCT 404                                           01 
01060040005000012000008000004000000000000000000GRN       Railroad Commissioner                                   Martina Salinas                       PRECINCT 305                                           01 
01060040006000010000007000003000000000000000000GRN       Railroad Commissioner                                   Martina Salinas                       PRECINCT 406                                           01 
01060050001000000000000000000000000000000000000          Railroad Commissioner                                   OVER VOTES                            PRECINCT 101                                           01 
01060050002000000000000000000000000000000000000          Railroad Commissioner                                   OVER VOTES                            PRECINCT 202                                           01 
01060050003000000000000000000000000000000000000          Railroad Commissioner                                   OVER VOTES                            PRECINCT 303                                           01 
01060050004000000000000000000000000000000000000          Railroad Commissioner                                   OVER VOTES                            PRECINCT 404                                           01 
01060050005000000000000000000000000000000000000          Railroad Commissioner                                   OVER VOTES                            PRECINCT 305                                           01 
01060050006000000000000000000000000000000000000          Railroad Commissioner                                   OVER VOTES                            PRECINCT 406                                           01 
01060060001000023000021000002000000000000000000          Railroad Commissioner                                   UNDER VOTES                           PRECINCT 101                                           01 
01060060002000013000010000003000000000000000000          Railroad Commissioner                                   UNDER VOTES                           PRECINCT 202                                           01 
01060060003000034000022000012000000000000000000          Railroad Commissioner                                   UNDER VOTES                           PRECINCT 303                                           01 
01060060004000031000024000007000000000000000000          Railroad Commissioner                                   UNDER VOTES                           PRECINCT 404                                           01 
01060060005000010000007000003000000000000000000          Railroad Commissioner                                   UNDER VOTES                           PRECINCT 305                                           01 
01060060006000021000018000003000000000000000000          Railroad Commissioner                                   UNDER VOTES                           PRECINCT 406                                           01 
01070010001000469000363000106000000000000000000REP       Justice, Supreme Court, Place 3                         Debra Lehrmann                        PRECINCT 101                                           01 
01070010002000478000358000120000000000000000000REP       Justice, Supreme Court, Place 3                         Debra Lehrmann                        PRECINCT 202                                           01 
01070010003000194000131000063000000000000000000REP       Justice, Supreme Court, Place 3                         Debra Lehrmann                        PRECINCT 303                                           01 
01070010004000257000192000065000000000000000000REP       Justice, Supreme Court, Place 3                         Debra Lehrmann                        PRECINCT 404                                           01 
01070010005000107000072000035000000000000000000REP       Justice, Supreme Court, Place 3                         Debra Lehrmann                        PRECINCT 305                                           01 
01070010006000157000113000044000000000000000000REP       Justice, Supreme Court, Place 3                         Debra Lehrmann                        PRECINCT 406                                           01 
01070020001000081000046000035000000000000000000DEM       Justice, Supreme Court, Place 3                         Mike Westergren                       PRECINCT 101                                           01 
01070020002000074000044000030000000000000000000DEM       Justice, Supreme Court, Place 3                         Mike Westergren                       PRECINCT 202                                           01 
01070020003000043000021000022000000000000000000DEM       Justice, Supreme Court, Place 3                         Mike Westergren                       PRECINCT 303                                           01 
01070020004000055000039000016000000000000000000DEM       Justice, Supreme Court, Place 3                         Mike Westergren                       PRECINCT 404                                           01 
01070020005000039000025000014000000000000000000DEM       Justice, Supreme Court, Place 3                         Mike Westergren                       PRECINCT 305                                           01 
01070020006000050000030000020000000000000000000DEM       Justice, Supreme Court, Place 3                         Mike Westergren                       PRECINCT 406                                           01 
01070030001000018000012000006000000000000000000LIB       Justice, Supreme Court, Place 3                         Kathie Glass                          PRECINCT 101                                           01 
01070030002000015000008000007000000000000000000LIB       Justice, Supreme Court, Place 3                         Kathie Glass                          PRECINCT 202                                           01 
01070030003000012000002000010000000000000000000LIB       Justice, Supreme Court, Place 3                         Kathie Glass                          PRECINCT 303                                           01 
01070030004000012000006000006000000000000000000LIB       Justice, Supreme Court, Place 3                         Kathie Glass                          PRECINCT 404                                           01 
01070030005000006000004000002000000000000000000LIB       Justice, Supreme Court, Place 3                         Kathie Glass                          PRECINCT 305                                           01 
01070030006000012000009000003000000000000000000LIB       Justice, Supreme Court, Place 3                         Kathie Glass                          PRECINCT 406                                           01 
01070040001000015000006000009000000000000000000GRN       Justice, Supreme Court, Place 3                         Rodolfo Rivera Munoz                  PRECINCT 101                                           01 
01070040002000029000011000018000000000000000000GRN       Justice, Supreme Court, Place 3                         Rodolfo Rivera Munoz                  PRECINCT 202                                           01 
01070040003000024000007000017000000000000000000GRN       Justice, Supreme Court, Place 3                         Rodolfo Rivera Munoz                  PRECINCT 303                                           01 
01070040004000015000008000007000000000000000000GRN       Justice, Supreme Court, Place 3                         Rodolfo Rivera Munoz                  PRECINCT 404                                           01 
01070040005000009000007000002000000000000000000GRN       Justice, Supreme Court, Place 3                         Rodolfo Rivera Munoz                  PRECINCT 305                                           01 
01070040006000010000007000003000000000000000000GRN       Justice, Supreme Court, Place 3                         Rodolfo Rivera Munoz                  PRECINCT 406                                           01 
01070050001000000000000000000000000000000000000          Justice, Supreme Court, Place 3                         OVER VOTES                            PRECINCT 101                                           01 
01070050002000000000000000000000000000000000000          Justice, Supreme Court, Place 3                         OVER VOTES                            PRECINCT 202                                           01 
01070050003000000000000000000000000000000000000          Justice, Supreme Court, Place 3                         OVER VOTES                            PRECINCT 303                                           01 
01070050004000000000000000000000000000000000000          Justice, Supreme Court, Place 3                         OVER VOTES                            PRECINCT 404                                           01 
01070050005000000000000000000000000000000000000          Justice, Supreme Court, Place 3                         OVER VOTES                            PRECINCT 305                                           01 
01070050006000000000000000000000000000000000000          Justice, Supreme Court, Place 3                         OVER VOTES                            PRECINCT 406                                           01 
01070060001000025000022000003000000000000000000          Justice, Supreme Court, Place 3                         UNDER VOTES                           PRECINCT 101                                           01 
01070060002000015000012000003000000000000000000          Justice, Supreme Court, Place 3                         UNDER VOTES                           PRECINCT 202                                           01 
01070060003000034000022000012000000000000000000          Justice, Supreme Court, Place 3                         UNDER VOTES                           PRECINCT 303                                           01 
01070060004000038000032000006000000000000000000          Justice, Supreme Court, Place 3                         UNDER VOTES                           PRECINCT 404                                           01 
01070060005000012000008000004000000000000000000          Justice, Supreme Court, Place 3                         UNDER VOTES                           PRECINCT 305                                           01 
01070060006000021000019000002000000000000000000          Justice, Supreme Court, Place 3                         UNDER VOTES                           PRECINCT 406                                           01 
01080010001000473000363000110000000000000000000REP       Justice, Supreme Court, Place 5                         Paul Green                            PRECINCT 101                                           01 
01080010002000479000356000123000000000000000000REP       Justice, Supreme Court, Place 5                         Paul Green                            PRECINCT 202                                           01 
01080010003000199000126000073000000000000000000REP       Justice, Supreme Court, Place 5                         Paul Green                            PRECINCT 303                                           01 
01080010004000263000196000067000000000000000000REP       Justice, Supreme Court, Place 5                         Paul Green                            PRECINCT 404                                           01 
01080010005000107000075000032000000000000000000REP       Justice, Supreme Court, Place 5                         Paul Green                            PRECINCT 305                                           01 
01080010006000156000116000040000000000000000000REP       Justice, Supreme Court, Place 5                         Paul Green                            PRECINCT 406                                           01 
01080020001000088000049000039000000000000000000DEM       Justice, Supreme Court, Place 5                         Dori Contreras Garza                  PRECINCT 101                                           01 
01080020002000101000057000044000000000000000000DEM       Justice, Supreme Court, Place 5                         Dori Contreras Garza                  PRECINCT 202                                           01 
01080020003000058000028000030000000000000000000DEM       Justice, Supreme Court, Place 5                         Dori Contreras Garza                  PRECINCT 303                                           01 
01080020004000062000039000023000000000000000000DEM       Justice, Supreme Court, Place 5                         Dori Contreras Garza                  PRECINCT 404                                           01 
01080020005000050000031000019000000000000000000DEM       Justice, Supreme Court, Place 5                         Dori Contreras Garza                  PRECINCT 305                                           01 
01080020006000061000035000026000000000000000000DEM       Justice, Supreme Court, Place 5                         Dori Contreras Garza                  PRECINCT 406                                           01 
01080030001000017000014000003000000000000000000LIB       Justice, Supreme Court, Place 5                         Tom Oxford                            PRECINCT 101                                           01 
01080030002000010000003000007000000000000000000LIB       Justice, Supreme Court, Place 5                         Tom Oxford                            PRECINCT 202                                           01 
01080030003000011000003000008000000000000000000LIB       Justice, Supreme Court, Place 5                         Tom Oxford                            PRECINCT 303                                           01 
01080030004000011000008000003000000000000000000LIB       Justice, Supreme Court, Place 5                         Tom Oxford                            PRECINCT 404                                           01 
01080030005000004000002000002000000000000000000LIB       Justice, Supreme Court, Place 5                         Tom Oxford                            PRECINCT 305                                           01 
01080030006000014000010000004000000000000000000LIB       Justice, Supreme Court, Place 5                         Tom Oxford                            PRECINCT 406                                           01 
01080040001000005000001000004000000000000000000GRN       Justice, Supreme Court, Place 5                         Charles E. Waterbury                  PRECINCT 101                                           01 
01080040002000004000004000000000000000000000000GRN       Justice, Supreme Court, Place 5                         Charles E. Waterbury                  PRECINCT 202                                           01 
01080040003000002000000000002000000000000000000GRN       Justice, Supreme Court, Place 5                         Charles E. Waterbury                  PRECINCT 303                                           01 
01080040004000002000002000000000000000000000000GRN       Justice, Supreme Court, Place 5                         Charles E. Waterbury                  PRECINCT 404                                           01 
01080040005000001000000000001000000000000000000GRN       Justice, Supreme Court, Place 5                         Charles E. Waterbury                  PRECINCT 305                                           01 
01080040006000002000001000001000000000000000000GRN       Justice, Supreme Court, Place 5                         Charles E. Waterbury                  PRECINCT 406                                           01 
01080050001000000000000000000000000000000000000          Justice, Supreme Court, Place 5                         OVER VOTES                            PRECINCT 101                                           01 
01080050002000000000000000000000000000000000000          Justice, Supreme Court, Place 5                         OVER VOTES                            PRECINCT 202                                           01 
01080050003000000000000000000000000000000000000          Justice, Supreme Court, Place 5                         OVER VOTES                            PRECINCT 303                                           01 
01080050004000000000000000000000000000000000000          Justice, Supreme Court, Place 5                         OVER VOTES                            PRECINCT 404                                           01 
01080050005000000000000000000000000000000000000          Justice, Supreme Court, Place 5                         OVER VOTES                            PRECINCT 305                                           01 
01080050006000000000000000000000000000000000000          Justice, Supreme Court, Place 5                         OVER VOTES                            PRECINCT 406                                           01 
01080060001000025000022000003000000000000000000          Justice, Supreme Court, Place 5                         UNDER VOTES                           PRECINCT 101                                           01 
01080060002000017000013000004000000000000000000          Justice, Supreme Court, Place 5                         UNDER VOTES                           PRECINCT 202                                           01 
01080060003000037000026000011000000000000000000          Justice, Supreme Court, Place 5                         UNDER VOTES                           PRECINCT 303                                           01 
01080060004000039000032000007000000000000000000          Justice, Supreme Court, Place 5                         UNDER VOTES                           PRECINCT 404                                           01 
01080060005000011000008000003000000000000000000          Justice, Supreme Court, Place 5                         UNDER VOTES                           PRECINCT 305                                           01 
01080060006000017000016000001000000000000000000          Justice, Supreme Court, Place 5                         UNDER VOTES                           PRECINCT 406                                           01 
01090010001000481000360000121000000000000000000REP       Justice, Supreme Court, Place 9                         Eva Guzman                            PRECINCT 101                                           01 
01090010002000490000354000136000000000000000000REP       Justice, Supreme Court, Place 9                         Eva Guzman                            PRECINCT 202                                           01 
01090010003000210000127000083000000000000000000REP       Justice, Supreme Court, Place 9                         Eva Guzman                            PRECINCT 303                                           01 
01090010004000264000192000072000000000000000000REP       Justice, Supreme Court, Place 9                         Eva Guzman                            PRECINCT 404                                           01 
01090010005000116000079000037000000000000000000REP       Justice, Supreme Court, Place 9                         Eva Guzman                            PRECINCT 305                                           01 
01090010006000166000121000045000000000000000000REP       Justice, Supreme Court, Place 9                         Eva Guzman                            PRECINCT 406                                           01 
01090020001000072000047000025000000000000000000DEM       Justice, Supreme Court, Place 9                         Savannah Robinson                     PRECINCT 101                                           01 
01090020002000082000050000032000000000000000000DEM       Justice, Supreme Court, Place 9                         Savannah Robinson                     PRECINCT 202                                           01 
01090020003000041000024000017000000000000000000DEM       Justice, Supreme Court, Place 9                         Savannah Robinson                     PRECINCT 303                                           01 
01090020004000058000042000016000000000000000000DEM       Justice, Supreme Court, Place 9                         Savannah Robinson                     PRECINCT 404                                           01 
01090020005000040000024000016000000000000000000DEM       Justice, Supreme Court, Place 9                         Savannah Robinson                     PRECINCT 305                                           01 
01090020006000050000030000020000000000000000000DEM       Justice, Supreme Court, Place 9                         Savannah Robinson                     PRECINCT 406                                           01 
01090030001000022000015000007000000000000000000LIB       Justice, Supreme Court, Place 9                         Don Fulton                            PRECINCT 101                                           01 
01090030002000017000010000007000000000000000000LIB       Justice, Supreme Court, Place 9                         Don Fulton                            PRECINCT 202                                           01 
01090030003000017000005000012000000000000000000LIB       Justice, Supreme Court, Place 9                         Don Fulton                            PRECINCT 303                                           01 
01090030004000010000008000002000000000000000000LIB       Justice, Supreme Court, Place 9                         Don Fulton                            PRECINCT 404                                           01 
01090030005000004000003000001000000000000000000LIB       Justice, Supreme Court, Place 9                         Don Fulton                            PRECINCT 305                                           01 
01090030006000007000004000003000000000000000000LIB       Justice, Supreme Court, Place 9                         Don Fulton                            PRECINCT 406                                           01 
01090040001000008000005000003000000000000000000GRN       Justice, Supreme Court, Place 9                         Jim Chisholm                          PRECINCT 101                                           01 
01090040002000007000006000001000000000000000000GRN       Justice, Supreme Court, Place 9                         Jim Chisholm                          PRECINCT 202                                           01 
01090040003000003000003000000000000000000000000GRN       Justice, Supreme Court, Place 9                         Jim Chisholm                          PRECINCT 303                                           01 
01090040004000007000002000005000000000000000000GRN       Justice, Supreme Court, Place 9                         Jim Chisholm                          PRECINCT 404                                           01 
01090040005000001000001000000000000000000000000GRN       Justice, Supreme Court, Place 9                         Jim Chisholm                          PRECINCT 305                                           01 
01090040006000007000005000002000000000000000000GRN       Justice, Supreme Court, Place 9                         Jim Chisholm                          PRECINCT 406                                           01 
01090050001000001000001000000000000000000000000          Justice, Supreme Court, Place 9                         OVER VOTES                            PRECINCT 101                                           01 
01090050002000000000000000000000000000000000000          Justice, Supreme Court, Place 9                         OVER VOTES                            PRECINCT 202                                           01 
01090050003000000000000000000000000000000000000          Justice, Supreme Court, Place 9                         OVER VOTES                            PRECINCT 303                                           01 
01090050004000001000001000000000000000000000000          Justice, Supreme Court, Place 9                         OVER VOTES                            PRECINCT 404                                           01 
01090050005000000000000000000000000000000000000          Justice, Supreme Court, Place 9                         OVER VOTES                            PRECINCT 305                                           01 
01090050006000001000000000001000000000000000000          Justice, Supreme Court, Place 9                         OVER VOTES                            PRECINCT 406                                           01 
01090060001000024000021000003000000000000000000          Justice, Supreme Court, Place 9                         UNDER VOTES                           PRECINCT 101                                           01 
01090060002000015000013000002000000000000000000          Justice, Supreme Court, Place 9                         UNDER VOTES                           PRECINCT 202                                           01 
01090060003000036000024000012000000000000000000          Justice, Supreme Court, Place 9                         UNDER VOTES                           PRECINCT 303                                           01 
01090060004000037000032000005000000000000000000          Justice, Supreme Court, Place 9                         UNDER VOTES                           PRECINCT 404                                           01 
01090060005000012000009000003000000000000000000          Justice, Supreme Court, Place 9                         UNDER VOTES                           PRECINCT 305                                           01 
01090060006000019000018000001000000000000000000          Justice, Supreme Court, Place 9                         UNDER VOTES                           PRECINCT 406                                           01 
01100010001000472000358000114000000000000000000REP       Judge, Court of Criminal Appeals, Place 2               Mary Lou Keel                         PRECINCT 101                                           01 
01100010002000491000362000129000000000000000000REP       Judge, Court of Criminal Appeals, Place 2               Mary Lou Keel                         PRECINCT 202                                           01 
01100010003000196000127000069000000000000000000REP       Judge, Court of Criminal Appeals, Place 2               Mary Lou Keel                         PRECINCT 303                                           01 
01100010004000252000186000066000000000000000000REP       Judge, Court of Criminal Appeals, Place 2               Mary Lou Keel                         PRECINCT 404                                           01 
01100010005000111000077000034000000000000000000REP       Judge, Court of Criminal Appeals, Place 2               Mary Lou Keel                         PRECINCT 305                                           01 
01100010006000161000119000042000000000000000000REP       Judge, Court of Criminal Appeals, Place 2               Mary Lou Keel                         PRECINCT 406                                           01 
01100020001000089000055000034000000000000000000DEM       Judge, Court of Criminal Appeals, Place 2               Lawrence "Larry" Meyers               PRECINCT 101                                           01 
01100020002000089000053000036000000000000000000DEM       Judge, Court of Criminal Appeals, Place 2               Lawrence "Larry" Meyers               PRECINCT 202                                           01 
01100020003000049000023000026000000000000000000DEM       Judge, Court of Criminal Appeals, Place 2               Lawrence "Larry" Meyers               PRECINCT 303                                           01 
01100020004000060000041000019000000000000000000DEM       Judge, Court of Criminal Appeals, Place 2               Lawrence "Larry" Meyers               PRECINCT 404                                           01 
01100020005000041000026000015000000000000000000DEM       Judge, Court of Criminal Appeals, Place 2               Lawrence "Larry" Meyers               PRECINCT 305                                           01 
01100020006000053000031000022000000000000000000DEM       Judge, Court of Criminal Appeals, Place 2               Lawrence "Larry" Meyers               PRECINCT 406                                           01 
01100030001000019000015000004000000000000000000LIB       Judge, Court of Criminal Appeals, Place 2               Mark Ash                              PRECINCT 101                                           01 
01100030002000013000005000008000000000000000000LIB       Judge, Court of Criminal Appeals, Place 2               Mark Ash                              PRECINCT 202                                           01 
01100030003000016000005000011000000000000000000LIB       Judge, Court of Criminal Appeals, Place 2               Mark Ash                              PRECINCT 303                                           01 
01100030004000015000009000006000000000000000000LIB       Judge, Court of Criminal Appeals, Place 2               Mark Ash                              PRECINCT 404                                           01 
01100030005000005000003000002000000000000000000LIB       Judge, Court of Criminal Appeals, Place 2               Mark Ash                              PRECINCT 305                                           01 
01100030006000014000010000004000000000000000000LIB       Judge, Court of Criminal Appeals, Place 2               Mark Ash                              PRECINCT 406                                           01 
01100040001000002000000000002000000000000000000GRN       Judge, Court of Criminal Appeals, Place 2               Adam King Blackwell Reposa            PRECINCT 101                                           01 
01100040002000002000000000002000000000000000000GRN       Judge, Court of Criminal Appeals, Place 2               Adam King Blackwell Reposa            PRECINCT 202                                           01 
01100040003000006000001000005000000000000000000GRN       Judge, Court of Criminal Appeals, Place 2               Adam King Blackwell Reposa            PRECINCT 303                                           01 
01100040004000005000003000002000000000000000000GRN       Judge, Court of Criminal Appeals, Place 2               Adam King Blackwell Reposa            PRECINCT 404                                           01 
01100040005000004000001000003000000000000000000GRN       Judge, Court of Criminal Appeals, Place 2               Adam King Blackwell Reposa            PRECINCT 305                                           01 
01100040006000001000000000001000000000000000000GRN       Judge, Court of Criminal Appeals, Place 2               Adam King Blackwell Reposa            PRECINCT 406                                           01 
01100050001000001000000000001000000000000000000          Judge, Court of Criminal Appeals, Place 2               OVER VOTES                            PRECINCT 101                                           01 
01100050002000000000000000000000000000000000000          Judge, Court of Criminal Appeals, Place 2               OVER VOTES                            PRECINCT 202                                           01 
01100050003000000000000000000000000000000000000          Judge, Court of Criminal Appeals, Place 2               OVER VOTES                            PRECINCT 303                                           01 
01100050004000000000000000000000000000000000000          Judge, Court of Criminal Appeals, Place 2               OVER VOTES                            PRECINCT 404                                           01 
01100050005000000000000000000000000000000000000          Judge, Court of Criminal Appeals, Place 2               OVER VOTES                            PRECINCT 305                                           01 
01100050006000001000000000001000000000000000000          Judge, Court of Criminal Appeals, Place 2               OVER VOTES                            PRECINCT 406                                           01 
01100060001000025000021000004000000000000000000          Judge, Court of Criminal Appeals, Place 2               UNDER VOTES                           PRECINCT 101                                           01 
01100060002000016000013000003000000000000000000          Judge, Court of Criminal Appeals, Place 2               UNDER VOTES                           PRECINCT 202                                           01 
01100060003000040000027000013000000000000000000          Judge, Court of Criminal Appeals, Place 2               UNDER VOTES                           PRECINCT 303                                           01 
01100060004000045000038000007000000000000000000          Judge, Court of Criminal Appeals, Place 2               UNDER VOTES                           PRECINCT 404                                           01 
01100060005000012000009000003000000000000000000          Judge, Court of Criminal Appeals, Place 2               UNDER VOTES                           PRECINCT 305                                           01 
01100060006000020000018000002000000000000000000          Judge, Court of Criminal Appeals, Place 2               UNDER VOTES                           PRECINCT 406                                           01 
01110010001000476000363000113000000000000000000REP       Judge, Court of Criminal Appeals, Place 5               Scott Walker                          PRECINCT 101                                           01 
01110010002000484000357000127000000000000000000REP       Judge, Court of Criminal Appeals, Place 5               Scott Walker                          PRECINCT 202                                           01 
01110010003000197000125000072000000000000000000REP       Judge, Court of Criminal Appeals, Place 5               Scott Walker                          PRECINCT 303                                           01 
01110010004000269000200000069000000000000000000REP       Judge, Court of Criminal Appeals, Place 5               Scott Walker                          PRECINCT 404                                           01 
01110010005000110000076000034000000000000000000REP       Judge, Court of Criminal Appeals, Place 5               Scott Walker                          PRECINCT 305                                           01 
01110010006000157000118000039000000000000000000REP       Judge, Court of Criminal Appeals, Place 5               Scott Walker                          PRECINCT 406                                           01 
01110020001000083000051000032000000000000000000DEM       Judge, Court of Criminal Appeals, Place 5               Betsy Johnson                         PRECINCT 101                                           01 
01110020002000084000052000032000000000000000000DEM       Judge, Court of Criminal Appeals, Place 5               Betsy Johnson                         PRECINCT 202                                           01 
01110020003000044000022000022000000000000000000DEM       Judge, Court of Criminal Appeals, Place 5               Betsy Johnson                         PRECINCT 303                                           01 
01110020004000051000029000022000000000000000000DEM       Judge, Court of Criminal Appeals, Place 5               Betsy Johnson                         PRECINCT 404                                           01 
01110020005000041000028000013000000000000000000DEM       Judge, Court of Criminal Appeals, Place 5               Betsy Johnson                         PRECINCT 305                                           01 
01110020006000064000035000029000000000000000000DEM       Judge, Court of Criminal Appeals, Place 5               Betsy Johnson                         PRECINCT 406                                           01 
01110030001000013000009000004000000000000000000LIB       Judge, Court of Criminal Appeals, Place 5               William Bryan Strange, III            PRECINCT 101                                           01 
01110030002000005000002000003000000000000000000LIB       Judge, Court of Criminal Appeals, Place 5               William Bryan Strange, III            PRECINCT 202                                           01 
01110030003000009000003000006000000000000000000LIB       Judge, Court of Criminal Appeals, Place 5               William Bryan Strange, III            PRECINCT 303                                           01 
01110030004000005000004000001000000000000000000LIB       Judge, Court of Criminal Appeals, Place 5               William Bryan Strange, III            PRECINCT 404                                           01 
01110030005000003000001000002000000000000000000LIB       Judge, Court of Criminal Appeals, Place 5               William Bryan Strange, III            PRECINCT 305                                           01 
01110030006000005000005000000000000000000000000LIB       Judge, Court of Criminal Appeals, Place 5               William Bryan Strange, III            PRECINCT 406                                           01 
01110040001000011000004000007000000000000000000GRN       Judge, Court of Criminal Appeals, Place 5               Judith Sanders-Castro                 PRECINCT 101                                           01 
01110040002000018000007000011000000000000000000GRN       Judge, Court of Criminal Appeals, Place 5               Judith Sanders-Castro                 PRECINCT 202                                           01 
01110040003000015000004000011000000000000000000GRN       Judge, Court of Criminal Appeals, Place 5               Judith Sanders-Castro                 PRECINCT 303                                           01 
01110040004000006000005000001000000000000000000GRN       Judge, Court of Criminal Appeals, Place 5               Judith Sanders-Castro                 PRECINCT 404                                           01 
01110040005000008000003000005000000000000000000GRN       Judge, Court of Criminal Appeals, Place 5               Judith Sanders-Castro                 PRECINCT 305                                           01 
01110040006000006000004000002000000000000000000GRN       Judge, Court of Criminal Appeals, Place 5               Judith Sanders-Castro                 PRECINCT 406                                           01 
01110050001000000000000000000000000000000000000          Judge, Court of Criminal Appeals, Place 5               OVER VOTES                            PRECINCT 101                                           01 
01110050002000000000000000000000000000000000000          Judge, Court of Criminal Appeals, Place 5               OVER VOTES                            PRECINCT 202                                           01 
01110050003000000000000000000000000000000000000          Judge, Court of Criminal Appeals, Place 5               OVER VOTES                            PRECINCT 303                                           01 
01110050004000001000001000000000000000000000000          Judge, Court of Criminal Appeals, Place 5               OVER VOTES                            PRECINCT 404                                           01 
01110050005000000000000000000000000000000000000          Judge, Court of Criminal Appeals, Place 5               OVER VOTES                            PRECINCT 305                                           01 
01110050006000000000000000000000000000000000000          Judge, Court of Criminal Appeals, Place 5               OVER VOTES                            PRECINCT 406                                           01 
01110060001000025000022000003000000000000000000          Judge, Court of Criminal Appeals, Place 5               UNDER VOTES                           PRECINCT 101                                           01 
01110060002000020000015000005000000000000000000          Judge, Court of Criminal Appeals, Place 5               UNDER VOTES                           PRECINCT 202                                           01 
01110060003000042000029000013000000000000000000          Judge, Court of Criminal Appeals, Place 5               UNDER VOTES                           PRECINCT 303                                           01 
01110060004000045000038000007000000000000000000          Judge, Court of Criminal Appeals, Place 5               UNDER VOTES                           PRECINCT 404                                           01 
01110060005000011000008000003000000000000000000          Judge, Court of Criminal Appeals, Place 5               UNDER VOTES                           PRECINCT 305                                           01 
01110060006000018000016000002000000000000000000          Judge, Court of Criminal Appeals, Place 5               UNDER VOTES                           PRECINCT 406                                           01 
01120010001000471000361000110000000000000000000REP       Judge, Court of Criminal Appeals, Place 6               Michael E. Keasler                    PRECINCT 101                                           01 
01120010002000489000358000131000000000000000000REP       Judge, Court of Criminal Appeals, Place 6               Michael E. Keasler                    PRECINCT 202                                           01 
01120010003000199000122000077000000000000000000REP       Judge, Court of Criminal Appeals, Place 6               Michael E. Keasler                    PRECINCT 303                                           01 
01120010004000260000191000069000000000000000000REP       Judge, Court of Criminal Appeals, Place 6               Michael E. Keasler                    PRECINCT 404                                           01 
01120010005000109000075000034000000000000000000REP       Judge, Court of Criminal Appeals, Place 6               Michael E. Keasler                    PRECINCT 305                                           01 
01120010006000155000114000041000000000000000000REP       Judge, Court of Criminal Appeals, Place 6               Michael E. Keasler                    PRECINCT 406                                           01 
01120020001000089000053000036000000000000000000DEM       Judge, Court of Criminal Appeals, Place 6               Robert Burns                          PRECINCT 101                                           01 
01120020002000089000054000035000000000000000000DEM       Judge, Court of Criminal Appeals, Place 6               Robert Burns                          PRECINCT 202                                           01 
01120020003000046000024000022000000000000000000DEM       Judge, Court of Criminal Appeals, Place 6               Robert Burns                          PRECINCT 303                                           01 
01120020004000059000040000019000000000000000000DEM       Judge, Court of Criminal Appeals, Place 6               Robert Burns                          PRECINCT 404                                           01 
01120020005000043000028000015000000000000000000DEM       Judge, Court of Criminal Appeals, Place 6               Robert Burns                          PRECINCT 305                                           01 
01120020006000058000033000025000000000000000000DEM       Judge, Court of Criminal Appeals, Place 6               Robert Burns                          PRECINCT 406                                           01 
01120030001000022000013000009000000000000000000LIB       Judge, Court of Criminal Appeals, Place 6               Mark W. Bennett                       PRECINCT 101                                           01 
01120030002000017000009000008000000000000000000LIB       Judge, Court of Criminal Appeals, Place 6               Mark W. Bennett                       PRECINCT 202                                           01 
01120030003000020000008000012000000000000000000LIB       Judge, Court of Criminal Appeals, Place 6               Mark W. Bennett                       PRECINCT 303                                           01 
01120030004000013000007000006000000000000000000LIB       Judge, Court of Criminal Appeals, Place 6               Mark W. Bennett                       PRECINCT 404                                           01 
01120030005000009000004000005000000000000000000LIB       Judge, Court of Criminal Appeals, Place 6               Mark W. Bennett                       PRECINCT 305                                           01 
01120030006000014000010000004000000000000000000LIB       Judge, Court of Criminal Appeals, Place 6               Mark W. Bennett                       PRECINCT 406                                           01 
01120040001000000000000000000000000000000000000          Judge, Court of Criminal Appeals, Place 6               OVER VOTES                            PRECINCT 101                                           01 
01120040002000000000000000000000000000000000000          Judge, Court of Criminal Appeals, Place 6               OVER VOTES                            PRECINCT 202                                           01 
01120040003000000000000000000000000000000000000          Judge, Court of Criminal Appeals, Place 6               OVER VOTES                            PRECINCT 303                                           01 
01120040004000000000000000000000000000000000000          Judge, Court of Criminal Appeals, Place 6               OVER VOTES                            PRECINCT 404                                           01 
01120040005000000000000000000000000000000000000          Judge, Court of Criminal Appeals, Place 6               OVER VOTES                            PRECINCT 305                                           01 
01120040006000000000000000000000000000000000000          Judge, Court of Criminal Appeals, Place 6               OVER VOTES                            PRECINCT 406                                           01 
01120050001000026000022000004000000000000000000          Judge, Court of Criminal Appeals, Place 6               UNDER VOTES                           PRECINCT 101                                           01 
01120050002000016000012000004000000000000000000          Judge, Court of Criminal Appeals, Place 6               UNDER VOTES                           PRECINCT 202                                           01 
01120050003000042000029000013000000000000000000          Judge, Court of Criminal Appeals, Place 6               UNDER VOTES                           PRECINCT 303                                           01 
01120050004000045000039000006000000000000000000          Judge, Court of Criminal Appeals, Place 6               UNDER VOTES                           PRECINCT 404                                           01 
01120050005000012000009000003000000000000000000          Judge, Court of Criminal Appeals, Place 6               UNDER VOTES                           PRECINCT 305                                           01 
01120050006000023000021000002000000000000000000          Judge, Court of Criminal Appeals, Place 6               UNDER VOTES                           PRECINCT 406                                           01 
01130010001000521000385000136000000000000000000REP       Member, State Board of Education, District 15           Marty Rowley                          PRECINCT 101                                           01 
01130010002000521000378000143000000000000000000REP       Member, State Board of Education, District 15           Marty Rowley                          PRECINCT 202                                           01 
01130010003000213000128000085000000000000000000REP       Member, State Board of Education, District 15           Marty Rowley                          PRECINCT 303                                           01 
01130010004000290000214000076000000000000000000REP       Member, State Board of Education, District 15           Marty Rowley                          PRECINCT 404                                           01 
01130010005000129000085000044000000000000000000REP       Member, State Board of Education, District 15           Marty Rowley                          PRECINCT 305                                           01 
01130010006000187000132000055000000000000000000REP       Member, State Board of Education, District 15           Marty Rowley                          PRECINCT 406                                           01 
01130020001000000000000000000000000000000000000          Member, State Board of Education, District 15           OVER VOTES                            PRECINCT 101                                           01 
01130020002000000000000000000000000000000000000          Member, State Board of Education, District 15           OVER VOTES                            PRECINCT 202                                           01 
01130020003000000000000000000000000000000000000          Member, State Board of Education, District 15           OVER VOTES                            PRECINCT 303                                           01 
01130020004000000000000000000000000000000000000          Member, State Board of Education, District 15           OVER VOTES                            PRECINCT 404                                           01 
01130020005000000000000000000000000000000000000          Member, State Board of Education, District 15           OVER VOTES                            PRECINCT 305                                           01 
01130020006000000000000000000000000000000000000          Member, State Board of Education, District 15           OVER VOTES                            PRECINCT 406                                           01 
01130030001000087000064000023000000000000000000          Member, State Board of Education, District 15           UNDER VOTES                           PRECINCT 101                                           01 
01130030002000090000055000035000000000000000000          Member, State Board of Education, District 15           UNDER VOTES                           PRECINCT 202                                           01 
01130030003000094000055000039000000000000000000          Member, State Board of Education, District 15           UNDER VOTES                           PRECINCT 303                                           01 
01130030004000087000063000024000000000000000000          Member, State Board of Education, District 15           UNDER VOTES                           PRECINCT 404                                           01 
01130030005000044000031000013000000000000000000          Member, State Board of Education, District 15           UNDER VOTES                           PRECINCT 305                                           01 
01130030006000063000046000017000000000000000000          Member, State Board of Education, District 15           UNDER VOTES                           PRECINCT 406                                           01 
01140010001000520000385000135000000000000000000REP       State Representative, District 88                       Ken King                              PRECINCT 101                                           01 
01140010002000526000377000149000000000000000000REP       State Representative, District 88                       Ken King                              PRECINCT 202                                           01 
01140010003000219000135000084000000000000000000REP       State Representative, District 88                       Ken King                              PRECINCT 303                                           01 
01140010004000308000231000077000000000000000000REP       State Representative, District 88                       Ken King                              PRECINCT 404                                           01 
01140010005000128000086000042000000000000000000REP       State Representative, District 88                       Ken King                              PRECINCT 305                                           01 
01140010006000196000137000059000000000000000000REP       State Representative, District 88                       Ken King                              PRECINCT 406                                           01 
01140020001000000000000000000000000000000000000          State Representative, District 88                       OVER VOTES                            PRECINCT 101                                           01 
01140020002000000000000000000000000000000000000          State Representative, District 88                       OVER VOTES                            PRECINCT 202                                           01 
01140020003000000000000000000000000000000000000          State Representative, District 88                       OVER VOTES                            PRECINCT 303                                           01 
01140020004000000000000000000000000000000000000          State Representative, District 88                       OVER VOTES                            PRECINCT 404                                           01 
01140020005000000000000000000000000000000000000          State Representative, District 88                       OVER VOTES                            PRECINCT 305                                           01 
01140020006000000000000000000000000000000000000          State Representative, District 88                       OVER VOTES                            PRECINCT 406                                           01 
01140030001000088000064000024000000000000000000          State Representative, District 88                       UNDER VOTES                           PRECINCT 101                                           01 
01140030002000085000056000029000000000000000000          State Representative, District 88                       UNDER VOTES                           PRECINCT 202                                           01 
01140030003000088000048000040000000000000000000          State Representative, District 88                       UNDER VOTES                           PRECINCT 303                                           01 
01140030004000069000046000023000000000000000000          State Representative, District 88                       UNDER VOTES                           PRECINCT 404                                           01 
01140030005000045000030000015000000000000000000          State Representative, District 88                       UNDER VOTES                           PRECINCT 305                                           01 
01140030006000054000041000013000000000000000000          State Representative, District 88                       UNDER VOTES                           PRECINCT 406                                           01 
01150010001000512000376000136000000000000000000REP       Justice, 7th Court of Appeals District, Place 4         Jim Campbell                          PRECINCT 101                                           01 
01150010002000522000376000146000000000000000000REP       Justice, 7th Court of Appeals District, Place 4         Jim Campbell                          PRECINCT 202                                           01 
01150010003000214000130000084000000000000000000REP       Justice, 7th Court of Appeals District, Place 4         Jim Campbell                          PRECINCT 303                                           01 
01150010004000300000222000078000000000000000000REP       Justice, 7th Court of Appeals District, Place 4         Jim Campbell                          PRECINCT 404                                           01 
01150010005000125000085000040000000000000000000REP       Justice, 7th Court of Appeals District, Place 4         Jim Campbell                          PRECINCT 305                                           01 
01150010006000198000139000059000000000000000000REP       Justice, 7th Court of Appeals District, Place 4         Jim Campbell                          PRECINCT 406                                           01 
01150020001000000000000000000000000000000000000          Justice, 7th Court of Appeals District, Place 4         OVER VOTES                            PRECINCT 101                                           01 
01150020002000000000000000000000000000000000000          Justice, 7th Court of Appeals District, Place 4         OVER VOTES                            PRECINCT 202                                           01 
01150020003000000000000000000000000000000000000          Justice, 7th Court of Appeals District, Place 4         OVER VOTES                            PRECINCT 303                                           01 
01150020004000000000000000000000000000000000000          Justice, 7th Court of Appeals District, Place 4         OVER VOTES                            PRECINCT 404                                           01 
01150020005000000000000000000000000000000000000          Justice, 7th Court of Appeals District, Place 4         OVER VOTES                            PRECINCT 305                                           01 
01150020006000000000000000000000000000000000000          Justice, 7th Court of Appeals District, Place 4         OVER VOTES                            PRECINCT 406                                           01 
01150030001000096000073000023000000000000000000          Justice, 7th Court of Appeals District, Place 4         UNDER VOTES                           PRECINCT 101                                           01 
01150030002000089000057000032000000000000000000          Justice, 7th Court of Appeals District, Place 4         UNDER VOTES                           PRECINCT 202                                           01 
01150030003000093000053000040000000000000000000          Justice, 7th Court of Appeals District, Place 4         UNDER VOTES                           PRECINCT 303                                           01 
01150030004000077000055000022000000000000000000          Justice, 7th Court of Appeals District, Place 4         UNDER VOTES                           PRECINCT 404                                           01 
01150030005000048000031000017000000000000000000          Justice, 7th Court of Appeals District, Place 4         UNDER VOTES                           PRECINCT 305                                           01 
01150030006000052000039000013000000000000000000          Justice, 7th Court of Appeals District, Place 4         UNDER VOTES                           PRECINCT 406                                           01 
01160010001000517000383000134000000000000000000REP       District Judge, 121st Judicial District                 J.A. Trey Didway                      PRECINCT 101                                           01 
01160010002000525000377000148000000000000000000REP       District Judge, 121st Judicial District                 J.A. Trey Didway                      PRECINCT 202                                           01 
01160010003000218000132000086000000000000000000REP       District Judge, 121st Judicial District                 J.A. Trey Didway                      PRECINCT 303                                           01 
01160010004000312000232000080000000000000000000REP       District Judge, 121st Judicial District                 J.A. Trey Didway                      PRECINCT 404                                           01 
01160010005000127000086000041000000000000000000REP       District Judge, 121st Judicial District                 J.A. Trey Didway                      PRECINCT 305                                           01 
01160010006000197000140000057000000000000000000REP       District Judge, 121st Judicial District                 J.A. Trey Didway                      PRECINCT 406                                           01 
01160020001000000000000000000000000000000000000          District Judge, 121st Judicial District                 OVER VOTES                            PRECINCT 101                                           01 
01160020002000000000000000000000000000000000000          District Judge, 121st Judicial District                 OVER VOTES                            PRECINCT 202                                           01 
01160020003000000000000000000000000000000000000          District Judge, 121st Judicial District                 OVER VOTES                            PRECINCT 303                                           01 
01160020004000000000000000000000000000000000000          District Judge, 121st Judicial District                 OVER VOTES                            PRECINCT 404                                           01 
01160020005000000000000000000000000000000000000          District Judge, 121st Judicial District                 OVER VOTES                            PRECINCT 305                                           01 
01160020006000000000000000000000000000000000000          District Judge, 121st Judicial District                 OVER VOTES                            PRECINCT 406                                           01 
01160030001000091000066000025000000000000000000          District Judge, 121st Judicial District                 UNDER VOTES                           PRECINCT 101                                           01 
01160030002000086000056000030000000000000000000          District Judge, 121st Judicial District                 UNDER VOTES                           PRECINCT 202                                           01 
01160030003000089000051000038000000000000000000          District Judge, 121st Judicial District                 UNDER VOTES                           PRECINCT 303                                           01 
01160030004000065000045000020000000000000000000          District Judge, 121st Judicial District                 UNDER VOTES                           PRECINCT 404                                           01 
01160030005000046000030000016000000000000000000          District Judge, 121st Judicial District                 UNDER VOTES                           PRECINCT 305                                           01 
01160030006000053000038000015000000000000000000          District Judge, 121st Judicial District                 UNDER VOTES                           PRECINCT 406                                           01 
01170010001000546000401000145000000000000000000REP       Sheriff                                                 David Bryant                          PRECINCT 101                                           01 
01170010002000548000394000154000000000000000000REP       Sheriff                                                 David Bryant                          PRECINCT 202                                           01 
01170010003000231000141000090000000000000000000REP       Sheriff                                                 David Bryant                          PRECINCT 303                                           01 
01170010004000305000224000081000000000000000000REP       Sheriff                                                 David Bryant                          PRECINCT 404                                           01 
01170010005000136000090000046000000000000000000REP       Sheriff                                                 David Bryant                          PRECINCT 305                                           01 
01170010006000209000146000063000000000000000000REP       Sheriff                                                 David Bryant                          PRECINCT 406                                           01 
01170020001000000000000000000000000000000000000          Sheriff                                                 OVER VOTES                            PRECINCT 101                                           01 
01170020002000000000000000000000000000000000000          Sheriff                                                 OVER VOTES                            PRECINCT 202                                           01 
01170020003000000000000000000000000000000000000          Sheriff                                                 OVER VOTES                            PRECINCT 303                                           01 
01170020004000000000000000000000000000000000000          Sheriff                                                 OVER VOTES                            PRECINCT 404                                           01 
01170020005000000000000000000000000000000000000          Sheriff                                                 OVER VOTES                            PRECINCT 305                                           01 
01170020006000000000000000000000000000000000000          Sheriff                                                 OVER VOTES                            PRECINCT 406                                           01 
01170030001000062000048000014000000000000000000          Sheriff                                                 UNDER VOTES                           PRECINCT 101                                           01 
01170030002000063000039000024000000000000000000          Sheriff                                                 UNDER VOTES                           PRECINCT 202                                           01 
01170030003000076000042000034000000000000000000          Sheriff                                                 UNDER VOTES                           PRECINCT 303                                           01 
01170030004000072000053000019000000000000000000          Sheriff                                                 UNDER VOTES                           PRECINCT 404                                           01 
01170030005000037000026000011000000000000000000          Sheriff                                                 UNDER VOTES                           PRECINCT 305                                           01 
01170030006000041000032000009000000000000000000          Sheriff                                                 UNDER VOTES                           PRECINCT 406                                           01 
01180010001000536000396000140000000000000000000REP       County Tax Assessor-Collector                           Jan Parrish                           PRECINCT 101                                           01 
01180010002000549000392000157000000000000000000REP       County Tax Assessor-Collector                           Jan Parrish                           PRECINCT 202                                           01 
01180010003000240000148000092000000000000000000REP       County Tax Assessor-Collector                           Jan Parrish                           PRECINCT 303                                           01 
01180010004000327000244000083000000000000000000REP       County Tax Assessor-Collector                           Jan Parrish                           PRECINCT 404                                           01 
01180010005000136000091000045000000000000000000REP       County Tax Assessor-Collector                           Jan Parrish                           PRECINCT 305                                           01 
01180010006000207000146000061000000000000000000REP       County Tax Assessor-Collector                           Jan Parrish                           PRECINCT 406                                           01 
01180020001000000000000000000000000000000000000          County Tax Assessor-Collector                           OVER VOTES                            PRECINCT 101                                           01 
01180020002000000000000000000000000000000000000          County Tax Assessor-Collector                           OVER VOTES                            PRECINCT 202                                           01 
01180020003000000000000000000000000000000000000          County Tax Assessor-Collector                           OVER VOTES                            PRECINCT 303                                           01 
01180020004000000000000000000000000000000000000          County Tax Assessor-Collector                           OVER VOTES                            PRECINCT 404                                           01 
01180020005000000000000000000000000000000000000          County Tax Assessor-Collector                           OVER VOTES                            PRECINCT 305                                           01 
01180020006000000000000000000000000000000000000          County Tax Assessor-Collector                           OVER VOTES                            PRECINCT 406                                           01 
01180030001000072000053000019000000000000000000          County Tax Assessor-Collector                           UNDER VOTES                           PRECINCT 101                                           01 
01180030002000062000041000021000000000000000000          County Tax Assessor-Collector                           UNDER VOTES                           PRECINCT 202                                           01 
01180030003000067000035000032000000000000000000          County Tax Assessor-Collector                           UNDER VOTES                           PRECINCT 303                                           01 
01180030004000050000033000017000000000000000000          County Tax Assessor-Collector                           UNDER VOTES                           PRECINCT 404                                           01 
01180030005000037000025000012000000000000000000          County Tax Assessor-Collector                           UNDER VOTES                           PRECINCT 305                                           01 
