03300010010000238NONLAREDO4LAREDO Councilman, DIST 4 LAREDO 4                      Juan Narvaez                          PCT 310                                                01 
03300010011000465NONLAREDO4LAREDO Councilman, DIST 4 LAREDO 4                      Juan Narvaez                          PCT 311                                                01 
03300010012000372NONLAREDO4LAREDO Councilman, DIST 4 LAREDO 4                      Juan Narvaez                          PCT 312                                                01 
03300010013000419NONLAREDO4LAREDO Councilman, DIST 4 LAREDO 4                      Juan Narvaez                          PCT 413                                                01 
03300010014000043NONLAREDO4LAREDO Councilman, DIST 4 LAREDO 4                      Juan Narvaez                          PCT 414                                                01 
03300010018000613NONLAREDO4LAREDO Councilman, DIST 4 LAREDO 4                      Juan Narvaez                          PCT 218                                                01 
03300010019000441NONLAREDO4LAREDO Councilman, DIST 4 LAREDO 4                      Juan Narvaez                          PCT 219                                                01 
03300010020000310NONLAREDO4LAREDO Councilman, DIST 4 LAREDO 4                      Juan Narvaez                          PCT 220                                                01 
03300010026000271NONLAREDO4LAREDO Councilman, DIST 4 LAREDO 4                      Juan Narvaez                          PCT 226                                                01 
03300010051000145NONLAREDO4LAREDO Councilman, DIST 4 LAREDO 4                      Juan Narvaez                          PCT 351                                                01 
03300010053000167NONLAREDO4LAREDO Councilman, DIST 4 LAREDO 4                      Juan Narvaez                          PCT 453                                                01 
03300020010000072NONLAREDO4LAREDO Councilman, DIST 4 LAREDO 4                      Armando Cisneros                      PCT 310                                                01 
03300020011000185NONLAREDO4LAREDO Councilman, DIST 4 LAREDO 4                      Armando Cisneros                      PCT 311                                                01 
03300020012000159NONLAREDO4LAREDO Councilman, DIST 4 LAREDO 4                      Armando Cisneros                      PCT 312                                                01 
03300020013000181NONLAREDO4LAREDO Councilman, DIST 4 LAREDO 4                      Armando Cisneros                      PCT 413                                                01 
03300020014000015NONLAREDO4LAREDO Councilman, DIST 4 LAREDO 4                      Armando Cisneros                      PCT 414                                                01 
03300020018000294NONLAREDO4LAREDO Councilman, DIST 4 LAREDO 4                      Armando Cisneros                      PCT 218                                                01 
03300020019000174NONLAREDO4LAREDO Councilman, DIST 4 LAREDO 4                      Armando Cisneros                      PCT 219                                                01 
03300020020000109NONLAREDO4LAREDO Councilman, DIST 4 LAREDO 4                      Armando Cisneros                      PCT 220                                                01 
03300020026000118NONLAREDO4LAREDO Councilman, DIST 4 LAREDO 4                      Armando Cisneros                      PCT 226                                                01 
03300020051000068NONLAREDO4LAREDO Councilman, DIST 4 LAREDO 4                      Armando Cisneros                      PCT 351                                                01 
03300020053000082NONLAREDO4LAREDO Councilman, DIST 4 LAREDO 4                      Armando Cisneros                      PCT 453                                                01 
03300030010000001   LAREDO4LAREDO Councilman, DIST 4 LAREDO 4                      OVER VOTES                            PCT 310                                                01 
03300030011000001   LAREDO4LAREDO Councilman, DIST 4 LAREDO 4                      OVER VOTES                            PCT 311                                                01 
03300030012000000   LAREDO4LAREDO Councilman, DIST 4 LAREDO 4                      OVER VOTES                            PCT 312                                                01 
03300030013000001   LAREDO4LAREDO Councilman, DIST 4 LAREDO 4                      OVER VOTES                            PCT 413                                                01 
03300030014000000   LAREDO4LAREDO Councilman, DIST 4 LAREDO 4                      OVER VOTES                            PCT 414                                                01 
03300030018000001   LAREDO4LAREDO Councilman, DIST 4 LAREDO 4                      OVER VOTES                            PCT 218                                                01 
03300030019000000   LAREDO4LAREDO Councilman, DIST 4 LAREDO 4                      OVER VOTES                            PCT 219                                                01 
03300030020000001   LAREDO4LAREDO Councilman, DIST 4 LAREDO 4                      OVER VOTES                            PCT 220                                                01 
03300030026000000   LAREDO4LAREDO Councilman, DIST 4 LAREDO 4                      OVER VOTES                            PCT 226                                                01 
03300030051000001   LAREDO4LAREDO Councilman, DIST 4 LAREDO 4                      OVER VOTES                            PCT 351                                                01 
03300030053000000   LAREDO4LAREDO Councilman, DIST 4 LAREDO 4                      OVER VOTES                            PCT 453                                                01 
03300040010000037   LAREDO4LAREDO Councilman, DIST 4 LAREDO 4                      UNDER VOTES                           PCT 310                                                01 
03300040011000069   LAREDO4LAREDO Councilman, DIST 4 LAREDO 4                      UNDER VOTES                           PCT 311                                                01 
03300040012000059   LAREDO4LAREDO Councilman, DIST 4 LAREDO 4                      UNDER VOTES                           PCT 312                                                01 
03300040013000076   LAREDO4LAREDO Councilman, DIST 4 LAREDO 4                      UNDER VOTES                           PCT 413                                                01 
03300040014000003   LAREDO4LAREDO Councilman, DIST 4 LAREDO 4                      UNDER VOTES                           PCT 414                                                01 
03300040018000087   LAREDO4LAREDO Councilman, DIST 4 LAREDO 4                      UNDER VOTES                           PCT 218                                                01 
03300040019000071   LAREDO4LAREDO Councilman, DIST 4 LAREDO 4                      UNDER VOTES                           PCT 219                                                01 
03300040020000050   LAREDO4LAREDO Councilman, DIST 4 LAREDO 4                      UNDER VOTES                           PCT 220                                                01 
03300040026000041   LAREDO4LAREDO Councilman, DIST 4 LAREDO 4                      UNDER VOTES                           PCT 226                                                01 
03300040051000023   LAREDO4LAREDO Councilman, DIST 4 LAREDO 4                      UNDER VOTES                           PCT 351                                                01 
03300040053000026   LAREDO4LAREDO Councilman, DIST 4 LAREDO 4                      UNDER VOTES                           PCT 453                                                01 
03350010008000411NONLAREDO5LAREDO Councilman, DIST 5 LAREDO 5                      Roque Vela Jr.                        PCT 308                                                01 
03350010009000768NONLAREDO5LAREDO Councilman, DIST 5 LAREDO 5                      Roque Vela Jr.                        PCT 309                                                01 
03350010010000209NONLAREDO5LAREDO Councilman, DIST 5 LAREDO 5                      Roque Vela Jr.                        PCT 310                                                01 
03350010027000264NONLAREDO5LAREDO Councilman, DIST 5 LAREDO 5                      Roque Vela Jr.                        PCT 227                                                01 
03350010039000832NONLAREDO5LAREDO Councilman, DIST 5 LAREDO 5                      Roque Vela Jr.                        PCT 239                                                01 
03350010040000738NONLAREDO5LAREDO Councilman, DIST 5 LAREDO 5                      Roque Vela Jr.                        PCT 340                                                01 
03350010041000329NONLAREDO5LAREDO Councilman, DIST 5 LAREDO 5                      Roque Vela Jr.                        PCT 341                                                01 
03350010055000340NONLAREDO5LAREDO Councilman, DIST 5 LAREDO 5                      Roque Vela Jr.                        PCT 255                                                01 
03350010060000177NONLAREDO5LAREDO Councilman, DIST 5 LAREDO 5                      Roque Vela Jr.                        PCT 360                                                01 
03350020008000366NONLAREDO5LAREDO Councilman, DIST 5 LAREDO 5                      Pat Campos                            PCT 308                                                01 
03350020009000635NONLAREDO5LAREDO Councilman, DIST 5 LAREDO 5                      Pat Campos                            PCT 309                                                01 
03350020010000145NONLAREDO5LAREDO Councilman, DIST 5 LAREDO 5                      Pat Campos                            PCT 310                                                01 
03350020027000191NONLAREDO5LAREDO Councilman, DIST 5 LAREDO 5                      Pat Campos                            PCT 227                                                01 
03350020039000831NONLAREDO5LAREDO Councilman, DIST 5 LAREDO 5                      Pat Campos                            PCT 239                                                01 
03350020040000621NONLAREDO5LAREDO Councilman, DIST 5 LAREDO 5                      Pat Campos                            PCT 340                                                01 
03350020041000292NONLAREDO5LAREDO Councilman, DIST 5 LAREDO 5                      Pat Campos                            PCT 341                                                01 
03350020055000354NONLAREDO5LAREDO Councilman, DIST 5 LAREDO 5                      Pat Campos                            PCT 255                                                01 
03350020060000106NONLAREDO5LAREDO Councilman, DIST 5 LAREDO 5                      Pat Campos                            PCT 360                                                01 
03350030008000000   LAREDO5LAREDO Councilman, DIST 5 LAREDO 5                      OVER VOTES                            PCT 308                                                01 
03350030009000001   LAREDO5LAREDO Councilman, DIST 5 LAREDO 5                      OVER VOTES                            PCT 309                                                01 
03350030010000000   LAREDO5LAREDO Councilman, DIST 5 LAREDO 5                      OVER VOTES                            PCT 310                                                01 
03350030027000000   LAREDO5LAREDO Councilman, DIST 5 LAREDO 5                      OVER VOTES                            PCT 227                                                01 
03350030039000001   LAREDO5LAREDO Councilman, DIST 5 LAREDO 5                      OVER VOTES                            PCT 239                                                01 
03350030040000000   LAREDO5LAREDO Councilman, DIST 5 LAREDO 5                      OVER VOTES                            PCT 340                                                01 
03350030041000000   LAREDO5LAREDO Councilman, DIST 5 LAREDO 5                      OVER VOTES                            PCT 341                                                01 
03350030055000000   LAREDO5LAREDO Councilman, DIST 5 LAREDO 5                      OVER VOTES                            PCT 255                                                01 
03350030060000000   LAREDO5LAREDO Councilman, DIST 5 LAREDO 5                      OVER VOTES                            PCT 360                                                01 
03350040008000070   LAREDO5LAREDO Councilman, DIST 5 LAREDO 5                      UNDER VOTES                           PCT 308                                                01 
03350040009000082   LAREDO5LAREDO Councilman, DIST 5 LAREDO 5                      UNDER VOTES                           PCT 309                                                01 
03350040010000033   LAREDO5LAREDO Councilman, DIST 5 LAREDO 5                      UNDER VOTES                           PCT 310                                                01 
03350040027000050   LAREDO5LAREDO Councilman, DIST 5 LAREDO 5                      UNDER VOTES                           PCT 227                                                01 
03350040039000141   LAREDO5LAREDO Councilman, DIST 5 LAREDO 5                      UNDER VOTES                           PCT 239                                                01 
03350040040000125   LAREDO5LAREDO Councilman, DIST 5 LAREDO 5                      UNDER VOTES                           PCT 340                                                01 
03350040041000069   LAREDO5LAREDO Councilman, DIST 5 LAREDO 5                      UNDER VOTES                           PCT 341                                                01 
03350040055000059   LAREDO5LAREDO Councilman, DIST 5 LAREDO 5                      UNDER VOTES                           PCT 255                                                01 
03350040060000021   LAREDO5LAREDO Councilman, DIST 5 LAREDO 5                      UNDER VOTES                           PCT 360                                                01 
03400010005000021NONLAREDO7LAREDO Councilman, DIST 7 LAREDO 7                      Sid Holden                            PCT 405                                                01 
03400010006000022NONLAREDO7LAREDO Councilman, DIST 7 LAREDO 7                      Sid Holden                            PCT 406                                                01 
03400010007000011NONLAREDO7LAREDO Councilman, DIST 7 LAREDO 7                      Sid Holden                            PCT 407                                                01 
03400010008000090NONLAREDO7LAREDO Councilman, DIST 7 LAREDO 7                      Sid Holden                            PCT 308                                                01 
03400010042000105NONLAREDO7LAREDO Councilman, DIST 7 LAREDO 7                      Sid Holden                            PCT 342                                                01 
03400010046000127NONLAREDO7LAREDO Councilman, DIST 7 LAREDO 7                      Sid Holden                            PCT 446                                                01 
03400010047000130NONLAREDO7LAREDO Councilman, DIST 7 LAREDO 7                      Sid Holden                            PCT 447                                                01 
03400010048000003NONLAREDO7LAREDO Councilman, DIST 7 LAREDO 7                      Sid Holden                            PCT 448                                                01 
03400010058000122NONLAREDO7LAREDO Councilman, DIST 7 LAREDO 7                      Sid Holden                            PCT 458                                                01 
03400020005000037NONLAREDO7LAREDO Councilman, DIST 7 LAREDO 7                      Yolanda Salinas                       PCT 405                                                01 
03400020006000035NONLAREDO7LAREDO Councilman, DIST 7 LAREDO 7                      Yolanda Salinas                       PCT 406                                                01 
03400020007000037NONLAREDO7LAREDO Councilman, DIST 7 LAREDO 7                      Yolanda Salinas                       PCT 407                                                01 
03400020008000043NONLAREDO7LAREDO Councilman, DIST 7 LAREDO 7                      Yolanda Salinas                       PCT 308                                                01 
03400020042000203NONLAREDO7LAREDO Councilman, DIST 7 LAREDO 7                      Yolanda Salinas                       PCT 342                                                01 
03400020046000300NONLAREDO7LAREDO Councilman, DIST 7 LAREDO 7                      Yolanda Salinas                       PCT 446                                                01 
03400020047000154NONLAREDO7LAREDO Councilman, DIST 7 LAREDO 7                      Yolanda Salinas                       PCT 447                                                01 
03400020048000006NONLAREDO7LAREDO Councilman, DIST 7 LAREDO 7                      Yolanda Salinas                       PCT 448                                                01 
03400020058000191NONLAREDO7LAREDO Councilman, DIST 7 LAREDO 7                      Yolanda Salinas                       PCT 458                                                01 
03400030005000061NONLAREDO7LAREDO Councilman, DIST 7 LAREDO 7                      Hector Lee Patino                     PCT 405                                                01 
03400030006000044NONLAREDO7LAREDO Councilman, DIST 7 LAREDO 7                      Hector Lee Patino                     PCT 406                                                01 
03400030007000047NONLAREDO7LAREDO Councilman, DIST 7 LAREDO 7                      Hector Lee Patino                     PCT 407                                                01 
03400030008000034NONLAREDO7LAREDO Councilman, DIST 7 LAREDO 7                      Hector Lee Patino                     PCT 308                                                01 
03400030042000200NONLAREDO7LAREDO Councilman, DIST 7 LAREDO 7                      Hector Lee Patino                     PCT 342                                                01 
03400030046000325NONLAREDO7LAREDO Councilman, DIST 7 LAREDO 7                      Hector Lee Patino                     PCT 446                                                01 
03400030047000205NONLAREDO7LAREDO Councilman, DIST 7 LAREDO 7                      Hector Lee Patino                     PCT 447                                                01 
03400030048000007NONLAREDO7LAREDO Councilman, DIST 7 LAREDO 7                      Hector Lee Patino                     PCT 448                                                01 
03400030058000204NONLAREDO7LAREDO Councilman, DIST 7 LAREDO 7                      Hector Lee Patino                     PCT 458                                                01 
03400040005000080NONLAREDO7LAREDO Councilman, DIST 7 LAREDO 7                      Jorge A. Vera                         PCT 405                                                01 
03400040006000067NONLAREDO7LAREDO Councilman, DIST 7 LAREDO 7                      Jorge A. Vera                         PCT 406                                                01 
03400040007000061NONLAREDO7LAREDO Councilman, DIST 7 LAREDO 7                      Jorge A. Vera                         PCT 407                                                01 
03400040008000104NONLAREDO7LAREDO Councilman, DIST 7 LAREDO 7                      Jorge A. Vera                         PCT 308                                                01 
03400040042000339NONLAREDO7LAREDO Councilman, DIST 7 LAREDO 7                      Jorge A. Vera                         PCT 342                                                01 
03400040046000688NONLAREDO7LAREDO Councilman, DIST 7 LAREDO 7                      Jorge A. Vera                         PCT 446                                                01 
03400040047000362NONLAREDO7LAREDO Councilman, DIST 7 LAREDO 7                      Jorge A. Vera                         PCT 447                                                01 
03400040048000012NONLAREDO7LAREDO Councilman, DIST 7 LAREDO 7                      Jorge A. Vera                         PCT 448                                                01 
03400040058000502NONLAREDO7LAREDO Councilman, DIST 7 LAREDO 7                      Jorge A. Vera                         PCT 458                                                01 
03400050005000002   LAREDO7LAREDO Councilman, DIST 7 LAREDO 7                      OVER VOTES                            PCT 405                                                01 
03400050006000000   LAREDO7LAREDO Councilman, DIST 7 LAREDO 7                      OVER VOTES                            PCT 406                                                01 
03400050007000000   LAREDO7LAREDO Councilman, DIST 7 LAREDO 7                      OVER VOTES                            PCT 407                                                01 
03400050008000000   LAREDO7LAREDO Councilman, DIST 7 LAREDO 7                      OVER VOTES                            PCT 308                                                01 
03400050042000000   LAREDO7LAREDO Councilman, DIST 7 LAREDO 7                      OVER VOTES                            PCT 342                                                01 
03400050046000003   LAREDO7LAREDO Councilman, DIST 7 LAREDO 7                      OVER VOTES                            PCT 446                                                01 
03400050047000003   LAREDO7LAREDO Councilman, DIST 7 LAREDO 7                      OVER VOTES                            PCT 447                                                01 
03400050048000000   LAREDO7LAREDO Councilman, DIST 7 LAREDO 7                      OVER VOTES                            PCT 448                                                01 
03400050058000001   LAREDO7LAREDO Councilman, DIST 7 LAREDO 7                      OVER VOTES                            PCT 458                                                01 
03400060005000017   LAREDO7LAREDO Councilman, DIST 7 LAREDO 7                      UNDER VOTES                           PCT 405                                                01 
03400060006000020   LAREDO7LAREDO Councilman, DIST 7 LAREDO 7                      UNDER VOTES                           PCT 406                                                01 
03400060007000022   LAREDO7LAREDO Councilman, DIST 7 LAREDO 7                      UNDER VOTES                           PCT 407                                                01 
03400060008000033   LAREDO7LAREDO Councilman, DIST 7 LAREDO 7                      UNDER VOTES                           PCT 308                                                01 
03400060042000075   LAREDO7LAREDO Councilman, DIST 7 LAREDO 7                      UNDER VOTES                           PCT 342                                                01 
03400060046000087   LAREDO7LAREDO Councilman, DIST 7 LAREDO 7                      UNDER VOTES                           PCT 446                                                01 
03400060047000085   LAREDO7LAREDO Councilman, DIST 7 LAREDO 7                      UNDER VOTES                           PCT 447                                                01 
03400060048000003   LAREDO7LAREDO Councilman, DIST 7 LAREDO 7                      UNDER VOTES                           PCT 448                                                01 
03400060058000075   LAREDO7LAREDO Councilman, DIST 7 LAREDO 7                      UNDER VOTES                           PCT 458                                                01 
03450010001000088NONLAREDO8LAREDO Councilman, DIST 8 LAREDO 8                      J.L. "Maddona" Maldonado              PCT 401                                                01 
03450010002000087NONLAREDO8LAREDO Councilman, DIST 8 LAREDO 8                      J.L. "Maddona" Maldonado              PCT 402                                                01 
03450010003000072NONLAREDO8LAREDO Councilman, DIST 8 LAREDO 8                      J.L. "Maddona" Maldonado              PCT 403                                                01 
03450010004000069NONLAREDO8LAREDO Councilman, DIST 8 LAREDO 8                      J.L. "Maddona" Maldonado              PCT 404                                                01 
03450010005000101NONLAREDO8LAREDO Councilman, DIST 8 LAREDO 8                      J.L. "Maddona" Maldonado              PCT 405                                                01 
03450010006000056NONLAREDO8LAREDO Councilman, DIST 8 LAREDO 8                      J.L. "Maddona" Maldonado              PCT 406                                                01 
03450010010000008NONLAREDO8LAREDO Councilman, DIST 8 LAREDO 8                      J.L. "Maddona" Maldonado              PCT 310                                                01 
03450010014000037NONLAREDO8LAREDO Councilman, DIST 8 LAREDO 8                      J.L. "Maddona" Maldonado              PCT 414                                                01 
03450010016000039NONLAREDO8LAREDO Councilman, DIST 8 LAREDO 8                      J.L. "Maddona" Maldonado              PCT 416                                                01 
03450010053000006NONLAREDO8LAREDO Councilman, DIST 8 LAREDO 8                      J.L. "Maddona" Maldonado              PCT 453                                                01 
03450020001000130NONLAREDO8LAREDO Councilman, DIST 8 LAREDO 8                      Hector M. Patiño Sr.                  PCT 401                                                01 
03450020002000087NONLAREDO8LAREDO Councilman, DIST 8 LAREDO 8                      Hector M. Patiño Sr.                  PCT 402                                                01 
03450020003000111NONLAREDO8LAREDO Councilman, DIST 8 LAREDO 8                      Hector M. Patiño Sr.                  PCT 403                                                01 
03450020004000129NONLAREDO8LAREDO Councilman, DIST 8 LAREDO 8                      Hector M. Patiño Sr.                  PCT 404                                                01 
03450020005000228NONLAREDO8LAREDO Councilman, DIST 8 LAREDO 8                      Hector M. Patiño Sr.                  PCT 405                                                01 
03450020006000094NONLAREDO8LAREDO Councilman, DIST 8 LAREDO 8                      Hector M. Patiño Sr.                  PCT 406                                                01 
03450020010000015NONLAREDO8LAREDO Councilman, DIST 8 LAREDO 8                      Hector M. Patiño Sr.                  PCT 310                                                01 
03450020014000089NONLAREDO8LAREDO Councilman, DIST 8 LAREDO 8                      Hector M. Patiño Sr.                  PCT 414                                                01 
03450020016000077NONLAREDO8LAREDO Councilman, DIST 8 LAREDO 8                      Hector M. Patiño Sr.                  PCT 416                                                01 
03450020053000019NONLAREDO8LAREDO Councilman, DIST 8 LAREDO 8                      Hector M. Patiño Sr.                  PCT 453                                                01 
03450030001000350NONLAREDO8LAREDO Councilman, DIST 8 LAREDO 8                      Cindy Liendo Espinoza                 PCT 401                                                01 
03450030002000406NONLAREDO8LAREDO Councilman, DIST 8 LAREDO 8                      Cindy Liendo Espinoza                 PCT 402                                                01 
03450030003000298NONLAREDO8LAREDO Councilman, DIST 8 LAREDO 8                      Cindy Liendo Espinoza                 PCT 403                                                01 
03450030004000405NONLAREDO8LAREDO Councilman, DIST 8 LAREDO 8                      Cindy Liendo Espinoza                 PCT 404                                                01 
03450030005000415NONLAREDO8LAREDO Councilman, DIST 8 LAREDO 8                      Cindy Liendo Espinoza                 PCT 405                                                01 
03450030006000190NONLAREDO8LAREDO Councilman, DIST 8 LAREDO 8                      Cindy Liendo Espinoza                 PCT 406                                                01 
03450030010000025NONLAREDO8LAREDO Councilman, DIST 8 LAREDO 8                      Cindy Liendo Espinoza                 PCT 310                                                01 
03450030014000255NONLAREDO8LAREDO Councilman, DIST 8 LAREDO 8                      Cindy Liendo Espinoza                 PCT 414                                                01 
03450030016000247NONLAREDO8LAREDO Councilman, DIST 8 LAREDO 8                      Cindy Liendo Espinoza                 PCT 416                                                01 
03450030053000062NONLAREDO8LAREDO Councilman, DIST 8 LAREDO 8                      Cindy Liendo Espinoza                 PCT 453                                                01 
03450040001000011   LAREDO8LAREDO Councilman, DIST 8 LAREDO 8                      OVER VOTES                            PCT 401                                                01 
03450040002000003   LAREDO8LAREDO Councilman, DIST 8 LAREDO 8                      OVER VOTES                            PCT 402                                                01 
03450040003000001   LAREDO8LAREDO Councilman, DIST 8 LAREDO 8                      OVER VOTES                            PCT 403                                                01 
03450040004000004   LAREDO8LAREDO Councilman, DIST 8 LAREDO 8                      OVER VOTES                            PCT 404                                                01 
03450040005000005   LAREDO8LAREDO Councilman, DIST 8 LAREDO 8                      OVER VOTES                            PCT 405                                                01 
03450040006000000   LAREDO8LAREDO Councilman, DIST 8 LAREDO 8                      OVER VOTES                            PCT 406                                                01 
03450040010000000   LAREDO8LAREDO Councilman, DIST 8 LAREDO 8                      OVER VOTES                            PCT 310                                                01 
03450040014000001   LAREDO8LAREDO Councilman, DIST 8 LAREDO 8                      OVER VOTES                            PCT 414                                                01 
03450040016000001   LAREDO8LAREDO Councilman, DIST 8 LAREDO 8                      OVER VOTES                            PCT 416                                                01 
03450040053000001   LAREDO8LAREDO Councilman, DIST 8 LAREDO 8                      OVER VOTES                            PCT 453                                                01 
03450050001000064   LAREDO8LAREDO Councilman, DIST 8 LAREDO 8                      UNDER VOTES                           PCT 401                                                01 
03450050002000028   LAREDO8LAREDO Councilman, DIST 8 LAREDO 8                      UNDER VOTES                           PCT 402                                                01 
03450050003000030   LAREDO8LAREDO Councilman, DIST 8 LAREDO 8                      UNDER VOTES                           PCT 403                                                01 
03450050004000035   LAREDO8LAREDO Councilman, DIST 8 LAREDO 8                      UNDER VOTES                           PCT 404                                                01 
03450050005000058   LAREDO8LAREDO Councilman, DIST 8 LAREDO 8                      UNDER VOTES                           PCT 405                                                01 
03450050006000034   LAREDO8LAREDO Councilman, DIST 8 LAREDO 8                      UNDER VOTES                           PCT 406                                                01 
03450050010000007   LAREDO8LAREDO Councilman, DIST 8 LAREDO 8                      UNDER VOTES                           PCT 310                                                01 
03450050014000048   LAREDO8LAREDO Councilman, DIST 8 LAREDO 8                      UNDER VOTES                           PCT 414                                                01 
03450050016000049   LAREDO8LAREDO Councilman, DIST 8 LAREDO 8                      UNDER VOTES                           PCT 416                                                01 
03450050053000006   LAREDO8LAREDO Councilman, DIST 8 LAREDO 8                      UNDER VOTES                           PCT 453                                                01 
