03750013020001364NONCTYALAMCITY OF ALAMO HEIGHTS Proposition                       FOR                                                                                          01Y
03750013025000884NONCTYALAMCITY OF ALAMO HEIGHTS Proposition                       FOR                                                                                          01Y
03750013026000866NONCTYALAMCITY OF ALAMO HEIGHTS Proposition                       FOR                                                                                          01Y
03750023020000335NONCTYALAMCITY OF ALAMO HEIGHTS Proposition                       AGAINST                                                                                      01Y
03750023025000256NONCTYALAMCITY OF ALAMO HEIGHTS Proposition                       AGAINST                                                                                      01Y
03750023026000193NONCTYALAMCITY OF ALAMO HEIGHTS Proposition                       AGAINST                                                                                      01Y
03750033020000000   CTYALAMCITY OF ALAMO HEIGHTS Proposition                       OVER VOTES                                                                                   01Y
03750033025000000   CTYALAMCITY OF ALAMO HEIGHTS Proposition                       OVER VOTES                                                                                   01Y
03750033026000000   CTYALAMCITY OF ALAMO HEIGHTS Proposition                       OVER VOTES                                                                                   01Y
03750043020000119   CTYALAMCITY OF ALAMO HEIGHTS Proposition                       UNDER VOTES                                                                                  01Y
03750043025000030   CTYALAMCITY OF ALAMO HEIGHTS Proposition                       UNDER VOTES                                                                                  01Y
03750043026000033   CTYALAMCITY OF ALAMO HEIGHTS Proposition                       UNDER VOTES                                                                                  01Y
