01030011002000001NONACCD5  Alamo Community College District                        Roberto Zarate                                                                               01 
01030011006000029NONACCD5  Alamo Community College District                        Roberto Zarate                                                                               01 
01030011007000020NONACCD5  Alamo Community College District                        Roberto Zarate                                                                               01 
01030011009000006NONACCD5  Alamo Community College District                        Roberto Zarate                                                                               01 
01030011024000020NONACCD5  Alamo Community College District                        Roberto Zarate                                                                               01 
01030011027000000NONACCD5  Alamo Community College District                        Roberto Zarate                                                                               01 
01030011029000011NONACCD5  Alamo Community College District                        Roberto Zarate                                                                               01 
01030011031000012NONACCD5  Alamo Community College District                        Roberto Zarate                                                                               01 
01030011032000010NONACCD5  Alamo Community College District                        Roberto Zarate                                                                               01 
01030011043000016NONACCD5  Alamo Community College District                        Roberto Zarate                                                                               01 
01030011055000017NONACCD5  Alamo Community College District                        Roberto Zarate                                                                               01 
01030011072000010NONACCD5  Alamo Community College District                        Roberto Zarate                                                                               01 
01030011074000001NONACCD5  Alamo Community College District                        Roberto Zarate                                                                               01 
01030011076000032NONACCD5  Alamo Community College District                        Roberto Zarate                                                                               01 
01030011077000039NONACCD5  Alamo Community College District                        Roberto Zarate                                                                               01 
01030011078000004NONACCD5  Alamo Community College District                        Roberto Zarate                                                                               01 
01030011079000019NONACCD5  Alamo Community College District                        Roberto Zarate                                                                               01 
01030011080000024NONACCD5  Alamo Community College District                        Roberto Zarate                                                                               01 
01030011083000025NONACCD5  Alamo Community College District                        Roberto Zarate                                                                               01 
01030011084000037NONACCD5  Alamo Community College District                        Roberto Zarate                                                                               01 
01030011085000025NONACCD5  Alamo Community College District                        Roberto Zarate                                                                               01 
01030011086000066NONACCD5  Alamo Community College District                        Roberto Zarate                                                                               01 
01030011087000019NONACCD5  Alamo Community College District                        Roberto Zarate                                                                               01 
01030011088000007NONACCD5  Alamo Community College District                        Roberto Zarate                                                                               01 
01030011093000017NONACCD5  Alamo Community College District                        Roberto Zarate                                                                               01 
01030011096000000NONACCD5  Alamo Community College District                        Roberto Zarate                                                                               01 
01030011098000008NONACCD5  Alamo Community College District                        Roberto Zarate                                                                               01 
01030011099000027NONACCD5  Alamo Community College District                        Roberto Zarate                                                                               01 
01030011100000013NONACCD5  Alamo Community College District                        Roberto Zarate                                                                               01 
01030011104000046NONACCD5  Alamo Community College District                        Roberto Zarate                                                                               01 
01030011109000000NONACCD5  Alamo Community College District                        Roberto Zarate                                                                               01 
01030011111000053NONACCD5  Alamo Community College District                        Roberto Zarate                                                                               01 
01030011113000017NONACCD5  Alamo Community College District                        Roberto Zarate                                                                               01 
01030012011000012NONACCD5  Alamo Community College District                        Roberto Zarate                                                                               01 
01030012012000006NONACCD5  Alamo Community College District                        Roberto Zarate                                                                               01 
01030012015000007NONACCD5  Alamo Community College District                        Roberto Zarate                                                                               01 
01030012016000005NONACCD5  Alamo Community College District                        Roberto Zarate                                                                               01 
01030012017000004NONACCD5  Alamo Community College District                        Roberto Zarate                                                                               01 
01030012018000021NONACCD5  Alamo Community College District                        Roberto Zarate                                                                               01 
01030012019000001NONACCD5  Alamo Community College District                        Roberto Zarate                                                                               01 
01030012020000018NONACCD5  Alamo Community College District                        Roberto Zarate                                                                               01 
01030012021000007NONACCD5  Alamo Community College District                        Roberto Zarate                                                                               01 
01030012022000006NONACCD5  Alamo Community College District                        Roberto Zarate                                                                               01 
01030012029000007NONACCD5  Alamo Community College District                        Roberto Zarate                                                                               01 
01030012030000008NONACCD5  Alamo Community College District                        Roberto Zarate                                                                               01 
01030012031000008NONACCD5  Alamo Community College District                        Roberto Zarate                                                                               01 
01030012032000007NONACCD5  Alamo Community College District                        Roberto Zarate                                                                               01 
01030012042000011NONACCD5  Alamo Community College District                        Roberto Zarate                                                                               01 
01030012043000011NONACCD5  Alamo Community College District                        Roberto Zarate                                                                               01 
01030012044000017NONACCD5  Alamo Community College District                        Roberto Zarate                                                                               01 
01030012070000004NONACCD5  Alamo Community College District                        Roberto Zarate                                                                               01 
01030012071000005NONACCD5  Alamo Community College District                        Roberto Zarate                                                                               01 
01030012074000000NONACCD5  Alamo Community College District                        Roberto Zarate                                                                               01 
01030012075000001NONACCD5  Alamo Community College District                        Roberto Zarate                                                                               01 
01030012079000002NONACCD5  Alamo Community College District                        Roberto Zarate                                                                               01 
01030012089000000NONACCD5  Alamo Community College District                        Roberto Zarate                                                                               01 
01030012103000000NONACCD5  Alamo Community College District                        Roberto Zarate                                                                               01 
01030012117000007NONACCD5  Alamo Community College District                        Roberto Zarate                                                                               01 
01030012118000002NONACCD5  Alamo Community College District                        Roberto Zarate                                                                               01 
01030012128000001NONACCD5  Alamo Community College District                        Roberto Zarate                                                                               01 
01030021002000005NONACCD5  Alamo Community College District                        Ramiro Nava                                                                                  01 
01030021006000019NONACCD5  Alamo Community College District                        Ramiro Nava                                                                                  01 
01030021007000018NONACCD5  Alamo Community College District                        Ramiro Nava                                                                                  01 
01030021009000004NONACCD5  Alamo Community College District                        Ramiro Nava                                                                                  01 
01030021024000022NONACCD5  Alamo Community College District                        Ramiro Nava                                                                                  01 
01030021027000003NONACCD5  Alamo Community College District                        Ramiro Nava                                                                                  01 
01030021029000020NONACCD5  Alamo Community College District                        Ramiro Nava                                                                                  01 
01030021031000012NONACCD5  Alamo Community College District                        Ramiro Nava                                                                                  01 
01030021032000030NONACCD5  Alamo Community College District                        Ramiro Nava                                                                                  01 
01030021043000005NONACCD5  Alamo Community College District                        Ramiro Nava                                                                                  01 
01030021055000012NONACCD5  Alamo Community College District                        Ramiro Nava                                                                                  01 
01030021072000009NONACCD5  Alamo Community College District                        Ramiro Nava                                                                                  01 
01030021074000000NONACCD5  Alamo Community College District                        Ramiro Nava                                                                                  01 
01030021076000021NONACCD5  Alamo Community College District                        Ramiro Nava                                                                                  01 
01030021077000021NONACCD5  Alamo Community College District                        Ramiro Nava                                                                                  01 
01030021078000005NONACCD5  Alamo Community College District                        Ramiro Nava                                                                                  01 
01030021079000020NONACCD5  Alamo Community College District                        Ramiro Nava                                                                                  01 
01030021080000015NONACCD5  Alamo Community College District                        Ramiro Nava                                                                                  01 
01030021083000008NONACCD5  Alamo Community College District                        Ramiro Nava                                                                                  01 
01030021084000020NONACCD5  Alamo Community College District                        Ramiro Nava                                                                                  01 
01030021085000011NONACCD5  Alamo Community College District                        Ramiro Nava                                                                                  01 
01030021086000041NONACCD5  Alamo Community College District                        Ramiro Nava                                                                                  01 
01030021087000010NONACCD5  Alamo Community College District                        Ramiro Nava                                                                                  01 
01030021088000006NONACCD5  Alamo Community College District                        Ramiro Nava                                                                                  01 
01030021093000008NONACCD5  Alamo Community College District                        Ramiro Nava                                                                                  01 
01030021096000000NONACCD5  Alamo Community College District                        Ramiro Nava                                                                                  01 
01030021098000003NONACCD5  Alamo Community College District                        Ramiro Nava                                                                                  01 
01030021099000021NONACCD5  Alamo Community College District                        Ramiro Nava                                                                                  01 
01030021100000013NONACCD5  Alamo Community College District                        Ramiro Nava                                                                                  01 
01030021104000023NONACCD5  Alamo Community College District                        Ramiro Nava                                                                                  01 
01030021109000000NONACCD5  Alamo Community College District                        Ramiro Nava                                                                                  01 
01030021111000025NONACCD5  Alamo Community College District                        Ramiro Nava                                                                                  01 
01030021113000013NONACCD5  Alamo Community College District                        Ramiro Nava                                                                                  01 
01030022011000022NONACCD5  Alamo Community College District                        Ramiro Nava                                                                                  01 
01030022012000002NONACCD5  Alamo Community College District                        Ramiro Nava                                                                                  01 
01030022015000006NONACCD5  Alamo Community College District                        Ramiro Nava                                                                                  01 
01030022016000001NONACCD5  Alamo Community College District                        Ramiro Nava                                                                                  01 
01030022017000007NONACCD5  Alamo Community College District                        Ramiro Nava                                                                                  01 
01030022018000014NONACCD5  Alamo Community College District                        Ramiro Nava                                                                                  01 
01030022019000004NONACCD5  Alamo Community College District                        Ramiro Nava                                                                                  01 
01030022020000016NONACCD5  Alamo Community College District                        Ramiro Nava                                                                                  01 
01030022021000011NONACCD5  Alamo Community College District                        Ramiro Nava                                                                                  01 
01030022022000004NONACCD5  Alamo Community College District                        Ramiro Nava                                                                                  01 
01030022029000003NONACCD5  Alamo Community College District                        Ramiro Nava                                                                                  01 
01030022030000017NONACCD5  Alamo Community College District                        Ramiro Nava                                                                                  01 
01030022031000008NONACCD5  Alamo Community College District                        Ramiro Nava                                                                                  01 
01030022032000007NONACCD5  Alamo Community College District                        Ramiro Nava                                                                                  01 
01030022042000006NONACCD5  Alamo Community College District                        Ramiro Nava                                                                                  01 
01030022043000006NONACCD5  Alamo Community College District                        Ramiro Nava                                                                                  01 
01030022044000005NONACCD5  Alamo Community College District                        Ramiro Nava                                                                                  01 
01030022070000005NONACCD5  Alamo Community College District                        Ramiro Nava                                                                                  01 
01030022071000001NONACCD5  Alamo Community College District                        Ramiro Nava                                                                                  01 
01030022074000002NONACCD5  Alamo Community College District                        Ramiro Nava                                                                                  01 
01030022075000003NONACCD5  Alamo Community College District                        Ramiro Nava                                                                                  01 
01030022079000001NONACCD5  Alamo Community College District                        Ramiro Nava                                                                                  01 
01030022089000000NONACCD5  Alamo Community College District                        Ramiro Nava                                                                                  01 
01030022103000001NONACCD5  Alamo Community College District                        Ramiro Nava                                                                                  01 
01030022117000009NONACCD5  Alamo Community College District                        Ramiro Nava                                                                                  01 
01030022118000000NONACCD5  Alamo Community College District                        Ramiro Nava                                                                                  01 
01030022128000002NONACCD5  Alamo Community College District                        Ramiro Nava                                                                                  01 
01030031002000000   ACCD5  Alamo Community College District                        OVER VOTES                                                                                   01 
01030031006000000   ACCD5  Alamo Community College District                        OVER VOTES                                                                                   01 
01030031007000000   ACCD5  Alamo Community College District                        OVER VOTES                                                                                   01 
01030031009000000   ACCD5  Alamo Community College District                        OVER VOTES                                                                                   01 
01030031024000000   ACCD5  Alamo Community College District                        OVER VOTES                                                                                   01 
01030031027000000   ACCD5  Alamo Community College District                        OVER VOTES                                                                                   01 
01030031029000000   ACCD5  Alamo Community College District                        OVER VOTES                                                                                   01 
01030031031000000   ACCD5  Alamo Community College District                        OVER VOTES                                                                                   01 
01030031032000000   ACCD5  Alamo Community College District                        OVER VOTES                                                                                   01 
01030031043000000   ACCD5  Alamo Community College District                        OVER VOTES                                                                                   01 
01030031055000000   ACCD5  Alamo Community College District                        OVER VOTES                                                                                   01 
01030031072000000   ACCD5  Alamo Community College District                        OVER VOTES                                                                                   01 
01030031074000000   ACCD5  Alamo Community College District                        OVER VOTES                                                                                   01 
01030031076000000   ACCD5  Alamo Community College District                        OVER VOTES                                                                                   01 
01030031077000000   ACCD5  Alamo Community College District                        OVER VOTES                                                                                   01 
01030031078000000   ACCD5  Alamo Community College District                        OVER VOTES                                                                                   01 
01030031079000000   ACCD5  Alamo Community College District                        OVER VOTES                                                                                   01 
01030031080000000   ACCD5  Alamo Community College District                        OVER VOTES                                                                                   01 
01030031083000000   ACCD5  Alamo Community College District                        OVER VOTES                                                                                   01 
01030031084000000   ACCD5  Alamo Community College District                        OVER VOTES                                                                                   01 
01030031085000000   ACCD5  Alamo Community College District                        OVER VOTES                                                                                   01 
01030031086000000   ACCD5  Alamo Community College District                        OVER VOTES                                                                                   01 
01030031087000000   ACCD5  Alamo Community College District                        OVER VOTES                                                                                   01 
01030031088000000   ACCD5  Alamo Community College District                        OVER VOTES                                                                                   01 
01030031093000000   ACCD5  Alamo Community College District                        OVER VOTES                                                                                   01 
01030031096000000   ACCD5  Alamo Community College District                        OVER VOTES                                                                                   01 
01030031098000000   ACCD5  Alamo Community College District                        OVER VOTES                                                                                   01 
01030031099000000   ACCD5  Alamo Community College District                        OVER VOTES                                                                                   01 
01030031100000000   ACCD5  Alamo Community College District                        OVER VOTES                                                                                   01 
01030031104000000   ACCD5  Alamo Community College District                        OVER VOTES                                                                                   01 
01030031109000000   ACCD5  Alamo Community College District                        OVER VOTES                                                                                   01 
01030031111000000   ACCD5  Alamo Community College District                        OVER VOTES                                                                                   01 
01030031113000000   ACCD5  Alamo Community College District                        OVER VOTES                                                                                   01 
01030032011000000   ACCD5  Alamo Community College District                        OVER VOTES                                                                                   01 
01030032012000000   ACCD5  Alamo Community College District                        OVER VOTES                                                                                   01 
01030032015000000   ACCD5  Alamo Community College District                        OVER VOTES                                                                                   01 
01030032016000000   ACCD5  Alamo Community College District                        OVER VOTES                                                                                   01 
01030032017000000   ACCD5  Alamo Community College District                        OVER VOTES                                                                                   01 
01030032018000000   ACCD5  Alamo Community College District                        OVER VOTES                                                                                   01 
01030032019000000   ACCD5  Alamo Community College District                        OVER VOTES                                                                                   01 
01030032020000000   ACCD5  Alamo Community College District                        OVER VOTES                                                                                   01 
01030032021000000   ACCD5  Alamo Community College District                        OVER VOTES                                                                                   01 
01030032022000000   ACCD5  Alamo Community College District                        OVER VOTES                                                                                   01 
01030032029000000   ACCD5  Alamo Community College District                        OVER VOTES                                                                                   01 
01030032030000000   ACCD5  Alamo Community College District                        OVER VOTES                                                                                   01 
01030032031000000   ACCD5  Alamo Community College District                        OVER VOTES                                                                                   01 
01030032032000000   ACCD5  Alamo Community College District                        OVER VOTES                                                                                   01 
01030032042000000   ACCD5  Alamo Community College District                        OVER VOTES                                                                                   01 
01030032043000000   ACCD5  Alamo Community College District                        OVER VOTES                                                                                   01 
01030032044000000   ACCD5  Alamo Community College District                        OVER VOTES                                                                                   01 
01030032070000000   ACCD5  Alamo Community College District                        OVER VOTES                                                                                   01 
01030032071000000   ACCD5  Alamo Community College District                        OVER VOTES                                                                                   01 
01030032074000000   ACCD5  Alamo Community College District                        OVER VOTES                                                                                   01 
01030032075000000   ACCD5  Alamo Community College District                        OVER VOTES                                                                                   01 
01030032079000000   ACCD5  Alamo Community College District                        OVER VOTES                                                                                   01 
01030032089000000   ACCD5  Alamo Community College District                        OVER VOTES                                                                                   01 
01030032103000000   ACCD5  Alamo Community College District                        OVER VOTES                                                                                   01 
01030032117000000   ACCD5  Alamo Community College District                        OVER VOTES                                                                                   01 
01030032118000000   ACCD5  Alamo Community College District                        OVER VOTES                                                                                   01 
01030032128000000   ACCD5  Alamo Community College District                        OVER VOTES                                                                                   01 
01030041002000001   ACCD5  Alamo Community College District                        UNDER VOTES                                                                                  01 
01030041006000005   ACCD5  Alamo Community College District                        UNDER VOTES                                                                                  01 
01030041007000010   ACCD5  Alamo Community College District                        UNDER VOTES                                                                                  01 
01030041009000000   ACCD5  Alamo Community College District                        UNDER VOTES                                                                                  01 
01030041024000004   ACCD5  Alamo Community College District                        UNDER VOTES                                                                                  01 
01030041027000000   ACCD5  Alamo Community College District                        UNDER VOTES                                                                                  01 
01030041029000004   ACCD5  Alamo Community College District                        UNDER VOTES                                                                                  01 
01030041031000000   ACCD5  Alamo Community College District                        UNDER VOTES                                                                                  01 
01030041032000005   ACCD5  Alamo Community College District                        UNDER VOTES                                                                                  01 
01030041043000007   ACCD5  Alamo Community College District                        UNDER VOTES                                                                                  01 
01030041055000003   ACCD5  Alamo Community College District                        UNDER VOTES                                                                                  01 
01030041072000004   ACCD5  Alamo Community College District                        UNDER VOTES                                                                                  01 
01030041074000000   ACCD5  Alamo Community College District                        UNDER VOTES                                                                                  01 
01030041076000009   ACCD5  Alamo Community College District                        UNDER VOTES                                                                                  01 
01030041077000008   ACCD5  Alamo Community College District                        UNDER VOTES                                                                                  01 
01030041078000000   ACCD5  Alamo Community College District                        UNDER VOTES                                                                                  01 
01030041079000007   ACCD5  Alamo Community College District                        UNDER VOTES                                                                                  01 
01030041080000005   ACCD5  Alamo Community College District                        UNDER VOTES                                                                                  01 
01030041083000012   ACCD5  Alamo Community College District                        UNDER VOTES                                                                                  01 
01030041084000007   ACCD5  Alamo Community College District                        UNDER VOTES                                                                                  01 
01030041085000006   ACCD5  Alamo Community College District                        UNDER VOTES                                                                                  01 
01030041086000022   ACCD5  Alamo Community College District                        UNDER VOTES                                                                                  01 
01030041087000001   ACCD5  Alamo Community College District                        UNDER VOTES                                                                                  01 
01030041088000003   ACCD5  Alamo Community College District                        UNDER VOTES                                                                                  01 
01030041093000004   ACCD5  Alamo Community College District                        UNDER VOTES                                                                                  01 
01030041096000000   ACCD5  Alamo Community College District                        UNDER VOTES                                                                                  01 
01030041098000003   ACCD5  Alamo Community College District                        UNDER VOTES                                                                                  01 
01030041099000012   ACCD5  Alamo Community College District                        UNDER VOTES                                                                                  01 
01030041100000004   ACCD5  Alamo Community College District                        UNDER VOTES                                                                                  01 
01030041104000016   ACCD5  Alamo Community College District                        UNDER VOTES                                                                                  01 
01030041109000000   ACCD5  Alamo Community College District                        UNDER VOTES                                                                                  01 
01030041111000011   ACCD5  Alamo Community College District                        UNDER VOTES                                                                                  01 
01030041113000009   ACCD5  Alamo Community College District                        UNDER VOTES                                                                                  01 
01030042011000010   ACCD5  Alamo Community College District                        UNDER VOTES                                                                                  01 
01030042012000002   ACCD5  Alamo Community College District                        UNDER VOTES                                                                                  01 
01030042015000002   ACCD5  Alamo Community College District                        UNDER VOTES                                                                                  01 
01030042016000002   ACCD5  Alamo Community College District                        UNDER VOTES                                                                                  01 
01030042017000000   ACCD5  Alamo Community College District                        UNDER VOTES                                                                                  01 
01030042018000005   ACCD5  Alamo Community College District                        UNDER VOTES                                                                                  01 
01030042019000001   ACCD5  Alamo Community College District                        UNDER VOTES                                                                                  01 
01030042020000004   ACCD5  Alamo Community College District                        UNDER VOTES                                                                                  01 
01030042021000001   ACCD5  Alamo Community College District                        UNDER VOTES                                                                                  01 
01030042022000000   ACCD5  Alamo Community College District                        UNDER VOTES                                                                                  01 
01030042029000002   ACCD5  Alamo Community College District                        UNDER VOTES                                                                                  01 
01030042030000003   ACCD5  Alamo Community College District                        UNDER VOTES                                                                                  01 
01030042031000003   ACCD5  Alamo Community College District                        UNDER VOTES                                                                                  01 
01030042032000000   ACCD5  Alamo Community College District                        UNDER VOTES                                                                                  01 
01030042042000003   ACCD5  Alamo Community College District                        UNDER VOTES                                                                                  01 
01030042043000003   ACCD5  Alamo Community College District                        UNDER VOTES                                                                                  01 
01030042044000002   ACCD5  Alamo Community College District                        UNDER VOTES                                                                                  01 
01030042070000002   ACCD5  Alamo Community College District                        UNDER VOTES                                                                                  01 
01030042071000003   ACCD5  Alamo Community College District                        UNDER VOTES                                                                                  01 
01030042074000000   ACCD5  Alamo Community College District                        UNDER VOTES                                                                                  01 
01030042075000000   ACCD5  Alamo Community College District                        UNDER VOTES                                                                                  01 
01030042079000000   ACCD5  Alamo Community College District                        UNDER VOTES                                                                                  01 
01030042089000002   ACCD5  Alamo Community College District                        UNDER VOTES                                                                                  01 
01030042103000001   ACCD5  Alamo Community College District                        UNDER VOTES                                                                                  01 
01030042117000002   ACCD5  Alamo Community College District                        UNDER VOTES                                                                                  01 
01030042118000000   ACCD5  Alamo Community College District                        UNDER VOTES                                                                                  01 
01030042128000000   ACCD5  Alamo Community College District                        UNDER VOTES                                                                                  01 
