01030011002000005NONACCD5  Alamo Community College District                        Roberto Zarate                                                                               01 
01030011006000047NONACCD5  Alamo Community College District                        Roberto Zarate                                                                               01 
01030011007000031NONACCD5  Alamo Community College District                        Roberto Zarate                                                                               01 
01030011009000010NONACCD5  Alamo Community College District                        Roberto Zarate                                                                               01 
01030011024000039NONACCD5  Alamo Community College District                        Roberto Zarate                                                                               01 
01030011027000000NONACCD5  Alamo Community College District                        Roberto Zarate                                                                               01 
01030011029000024NONACCD5  Alamo Community College District                        Roberto Zarate                                                                               01 
01030011031000018NONACCD5  Alamo Community College District                        Roberto Zarate                                                                               01 
01030011032000015NONACCD5  Alamo Community College District                        Roberto Zarate                                                                               01 
01030011043000025NONACCD5  Alamo Community College District                        Roberto Zarate                                                                               01 
01030011055000039NONACCD5  Alamo Community College District                        Roberto Zarate                                                                               01 
01030011072000021NONACCD5  Alamo Community College District                        Roberto Zarate                                                                               01 
01030011074000002NONACCD5  Alamo Community College District                        Roberto Zarate                                                                               01 
01030011076000044NONACCD5  Alamo Community College District                        Roberto Zarate                                                                               01 
01030011077000053NONACCD5  Alamo Community College District                        Roberto Zarate                                                                               01 
01030011078000008NONACCD5  Alamo Community College District                        Roberto Zarate                                                                               01 
01030011079000028NONACCD5  Alamo Community College District                        Roberto Zarate                                                                               01 
01030011080000029NONACCD5  Alamo Community College District                        Roberto Zarate                                                                               01 
01030011083000046NONACCD5  Alamo Community College District                        Roberto Zarate                                                                               01 
01030011084000068NONACCD5  Alamo Community College District                        Roberto Zarate                                                                               01 
01030011085000040NONACCD5  Alamo Community College District                        Roberto Zarate                                                                               01 
01030011086000095NONACCD5  Alamo Community College District                        Roberto Zarate                                                                               01 
01030011087000024NONACCD5  Alamo Community College District                        Roberto Zarate                                                                               01 
01030011088000008NONACCD5  Alamo Community College District                        Roberto Zarate                                                                               01 
01030011093000024NONACCD5  Alamo Community College District                        Roberto Zarate                                                                               01 
01030011096000000NONACCD5  Alamo Community College District                        Roberto Zarate                                                                               01 
01030011098000012NONACCD5  Alamo Community College District                        Roberto Zarate                                                                               01 
01030011099000059NONACCD5  Alamo Community College District                        Roberto Zarate                                                                               01 
01030011100000030NONACCD5  Alamo Community College District                        Roberto Zarate                                                                               01 
01030011104000072NONACCD5  Alamo Community College District                        Roberto Zarate                                                                               01 
01030011109000000NONACCD5  Alamo Community College District                        Roberto Zarate                                                                               01 
01030011111000102NONACCD5  Alamo Community College District                        Roberto Zarate                                                                               01 
01030011113000029NONACCD5  Alamo Community College District                        Roberto Zarate                                                                               01 
01030012011000021NONACCD5  Alamo Community College District                        Roberto Zarate                                                                               01 
01030012012000011NONACCD5  Alamo Community College District                        Roberto Zarate                                                                               01 
01030012015000011NONACCD5  Alamo Community College District                        Roberto Zarate                                                                               01 
01030012016000010NONACCD5  Alamo Community College District                        Roberto Zarate                                                                               01 
01030012017000005NONACCD5  Alamo Community College District                        Roberto Zarate                                                                               01 
01030012018000039NONACCD5  Alamo Community College District                        Roberto Zarate                                                                               01 
01030012019000011NONACCD5  Alamo Community College District                        Roberto Zarate                                                                               01 
01030012020000043NONACCD5  Alamo Community College District                        Roberto Zarate                                                                               01 
01030012021000020NONACCD5  Alamo Community College District                        Roberto Zarate                                                                               01 
01030012022000009NONACCD5  Alamo Community College District                        Roberto Zarate                                                                               01 
01030012029000021NONACCD5  Alamo Community College District                        Roberto Zarate                                                                               01 
01030012030000020NONACCD5  Alamo Community College District                        Roberto Zarate                                                                               01 
01030012031000012NONACCD5  Alamo Community College District                        Roberto Zarate                                                                               01 
01030012032000013NONACCD5  Alamo Community College District                        Roberto Zarate                                                                               01 
01030012042000030NONACCD5  Alamo Community College District                        Roberto Zarate                                                                               01 
01030012043000025NONACCD5  Alamo Community College District                        Roberto Zarate                                                                               01 
01030012044000031NONACCD5  Alamo Community College District                        Roberto Zarate                                                                               01 
01030012070000021NONACCD5  Alamo Community College District                        Roberto Zarate                                                                               01 
01030012071000010NONACCD5  Alamo Community College District                        Roberto Zarate                                                                               01 
01030012074000007NONACCD5  Alamo Community College District                        Roberto Zarate                                                                               01 
01030012075000008NONACCD5  Alamo Community College District                        Roberto Zarate                                                                               01 
01030012079000004NONACCD5  Alamo Community College District                        Roberto Zarate                                                                               01 
01030012089000001NONACCD5  Alamo Community College District                        Roberto Zarate                                                                               01 
01030012103000001NONACCD5  Alamo Community College District                        Roberto Zarate                                                                               01 
01030012117000012NONACCD5  Alamo Community College District                        Roberto Zarate                                                                               01 
01030012118000002NONACCD5  Alamo Community College District                        Roberto Zarate                                                                               01 
01030012128000007NONACCD5  Alamo Community College District                        Roberto Zarate                                                                               01 
01030021002000008NONACCD5  Alamo Community College District                        Ramiro Nava                                                                                  01 
01030021006000045NONACCD5  Alamo Community College District                        Ramiro Nava                                                                                  01 
01030021007000032NONACCD5  Alamo Community College District                        Ramiro Nava                                                                                  01 
01030021009000008NONACCD5  Alamo Community College District                        Ramiro Nava                                                                                  01 
01030021024000033NONACCD5  Alamo Community College District                        Ramiro Nava                                                                                  01 
01030021027000008NONACCD5  Alamo Community College District                        Ramiro Nava                                                                                  01 
01030021029000044NONACCD5  Alamo Community College District                        Ramiro Nava                                                                                  01 
01030021031000030NONACCD5  Alamo Community College District                        Ramiro Nava                                                                                  01 
01030021032000050NONACCD5  Alamo Community College District                        Ramiro Nava                                                                                  01 
01030021043000009NONACCD5  Alamo Community College District                        Ramiro Nava                                                                                  01 
01030021055000031NONACCD5  Alamo Community College District                        Ramiro Nava                                                                                  01 
01030021072000012NONACCD5  Alamo Community College District                        Ramiro Nava                                                                                  01 
01030021074000000NONACCD5  Alamo Community College District                        Ramiro Nava                                                                                  01 
01030021076000053NONACCD5  Alamo Community College District                        Ramiro Nava                                                                                  01 
01030021077000028NONACCD5  Alamo Community College District                        Ramiro Nava                                                                                  01 
01030021078000010NONACCD5  Alamo Community College District                        Ramiro Nava                                                                                  01 
01030021079000052NONACCD5  Alamo Community College District                        Ramiro Nava                                                                                  01 
01030021080000024NONACCD5  Alamo Community College District                        Ramiro Nava                                                                                  01 
01030021083000053NONACCD5  Alamo Community College District                        Ramiro Nava                                                                                  01 
01030021084000029NONACCD5  Alamo Community College District                        Ramiro Nava                                                                                  01 
01030021085000020NONACCD5  Alamo Community College District                        Ramiro Nava                                                                                  01 
01030021086000072NONACCD5  Alamo Community College District                        Ramiro Nava                                                                                  01 
01030021087000013NONACCD5  Alamo Community College District                        Ramiro Nava                                                                                  01 
01030021088000017NONACCD5  Alamo Community College District                        Ramiro Nava                                                                                  01 
01030021093000020NONACCD5  Alamo Community College District                        Ramiro Nava                                                                                  01 
01030021096000000NONACCD5  Alamo Community College District                        Ramiro Nava                                                                                  01 
01030021098000006NONACCD5  Alamo Community College District                        Ramiro Nava                                                                                  01 
01030021099000027NONACCD5  Alamo Community College District                        Ramiro Nava                                                                                  01 
01030021100000026NONACCD5  Alamo Community College District                        Ramiro Nava                                                                                  01 
01030021104000070NONACCD5  Alamo Community College District                        Ramiro Nava                                                                                  01 
01030021109000000NONACCD5  Alamo Community College District                        Ramiro Nava                                                                                  01 
01030021111000040NONACCD5  Alamo Community College District                        Ramiro Nava                                                                                  01 
01030021113000017NONACCD5  Alamo Community College District                        Ramiro Nava                                                                                  01 
01030022011000045NONACCD5  Alamo Community College District                        Ramiro Nava                                                                                  01 
01030022012000012NONACCD5  Alamo Community College District                        Ramiro Nava                                                                                  01 
01030022015000015NONACCD5  Alamo Community College District                        Ramiro Nava                                                                                  01 
01030022016000005NONACCD5  Alamo Community College District                        Ramiro Nava                                                                                  01 
01030022017000016NONACCD5  Alamo Community College District                        Ramiro Nava                                                                                  01 
01030022018000023NONACCD5  Alamo Community College District                        Ramiro Nava                                                                                  01 
01030022019000017NONACCD5  Alamo Community College District                        Ramiro Nava                                                                                  01 
01030022020000023NONACCD5  Alamo Community College District                        Ramiro Nava                                                                                  01 
01030022021000031NONACCD5  Alamo Community College District                        Ramiro Nava                                                                                  01 
01030022022000022NONACCD5  Alamo Community College District                        Ramiro Nava                                                                                  01 
01030022029000013NONACCD5  Alamo Community College District                        Ramiro Nava                                                                                  01 
01030022030000030NONACCD5  Alamo Community College District                        Ramiro Nava                                                                                  01 
01030022031000015NONACCD5  Alamo Community College District                        Ramiro Nava                                                                                  01 
01030022032000012NONACCD5  Alamo Community College District                        Ramiro Nava                                                                                  01 
01030022042000015NONACCD5  Alamo Community College District                        Ramiro Nava                                                                                  01 
01030022043000015NONACCD5  Alamo Community College District                        Ramiro Nava                                                                                  01 
01030022044000008NONACCD5  Alamo Community College District                        Ramiro Nava                                                                                  01 
01030022070000021NONACCD5  Alamo Community College District                        Ramiro Nava                                                                                  01 
01030022071000003NONACCD5  Alamo Community College District                        Ramiro Nava                                                                                  01 
01030022074000005NONACCD5  Alamo Community College District                        Ramiro Nava                                                                                  01 
01030022075000003NONACCD5  Alamo Community College District                        Ramiro Nava                                                                                  01 
01030022079000004NONACCD5  Alamo Community College District                        Ramiro Nava                                                                                  01 
01030022089000000NONACCD5  Alamo Community College District                        Ramiro Nava                                                                                  01 
01030022103000002NONACCD5  Alamo Community College District                        Ramiro Nava                                                                                  01 
01030022117000011NONACCD5  Alamo Community College District                        Ramiro Nava                                                                                  01 
01030022118000000NONACCD5  Alamo Community College District                        Ramiro Nava                                                                                  01 
01030022128000008NONACCD5  Alamo Community College District                        Ramiro Nava                                                                                  01 
01030031002000000   ACCD5  Alamo Community College District                        OVER VOTES                                                                                   01 
01030031006000000   ACCD5  Alamo Community College District                        OVER VOTES                                                                                   01 
01030031007000000   ACCD5  Alamo Community College District                        OVER VOTES                                                                                   01 
01030031009000000   ACCD5  Alamo Community College District                        OVER VOTES                                                                                   01 
01030031024000000   ACCD5  Alamo Community College District                        OVER VOTES                                                                                   01 
01030031027000000   ACCD5  Alamo Community College District                        OVER VOTES                                                                                   01 
01030031029000000   ACCD5  Alamo Community College District                        OVER VOTES                                                                                   01 
01030031031000000   ACCD5  Alamo Community College District                        OVER VOTES                                                                                   01 
01030031032000000   ACCD5  Alamo Community College District                        OVER VOTES                                                                                   01 
01030031043000000   ACCD5  Alamo Community College District                        OVER VOTES                                                                                   01 
01030031055000000   ACCD5  Alamo Community College District                        OVER VOTES                                                                                   01 
01030031072000000   ACCD5  Alamo Community College District                        OVER VOTES                                                                                   01 
01030031074000000   ACCD5  Alamo Community College District                        OVER VOTES                                                                                   01 
01030031076000000   ACCD5  Alamo Community College District                        OVER VOTES                                                                                   01 
01030031077000000   ACCD5  Alamo Community College District                        OVER VOTES                                                                                   01 
01030031078000000   ACCD5  Alamo Community College District                        OVER VOTES                                                                                   01 
01030031079000000   ACCD5  Alamo Community College District                        OVER VOTES                                                                                   01 
01030031080000000   ACCD5  Alamo Community College District                        OVER VOTES                                                                                   01 
01030031083000000   ACCD5  Alamo Community College District                        OVER VOTES                                                                                   01 
01030031084000000   ACCD5  Alamo Community College District                        OVER VOTES                                                                                   01 
01030031085000000   ACCD5  Alamo Community College District                        OVER VOTES                                                                                   01 
01030031086000000   ACCD5  Alamo Community College District                        OVER VOTES                                                                                   01 
01030031087000000   ACCD5  Alamo Community College District                        OVER VOTES                                                                                   01 
01030031088000000   ACCD5  Alamo Community College District                        OVER VOTES                                                                                   01 
01030031093000000   ACCD5  Alamo Community College District                        OVER VOTES                                                                                   01 
01030031096000000   ACCD5  Alamo Community College District                        OVER VOTES                                                                                   01 
01030031098000000   ACCD5  Alamo Community College District                        OVER VOTES                                                                                   01 
01030031099000000   ACCD5  Alamo Community College District                        OVER VOTES                                                                                   01 
01030031100000000   ACCD5  Alamo Community College District                        OVER VOTES                                                                                   01 
01030031104000000   ACCD5  Alamo Community College District                        OVER VOTES                                                                                   01 
01030031109000000   ACCD5  Alamo Community College District                        OVER VOTES                                                                                   01 
01030031111000000   ACCD5  Alamo Community College District                        OVER VOTES                                                                                   01 
01030031113000000   ACCD5  Alamo Community College District                        OVER VOTES                                                                                   01 
01030032011000000   ACCD5  Alamo Community College District                        OVER VOTES                                                                                   01 
01030032012000000   ACCD5  Alamo Community College District                        OVER VOTES                                                                                   01 
01030032015000000   ACCD5  Alamo Community College District                        OVER VOTES                                                                                   01 
01030032016000000   ACCD5  Alamo Community College District                        OVER VOTES                                                                                   01 
01030032017000000   ACCD5  Alamo Community College District                        OVER VOTES                                                                                   01 
01030032018000000   ACCD5  Alamo Community College District                        OVER VOTES                                                                                   01 
01030032019000000   ACCD5  Alamo Community College District                        OVER VOTES                                                                                   01 
01030032020000000   ACCD5  Alamo Community College District                        OVER VOTES                                                                                   01 
01030032021000000   ACCD5  Alamo Community College District                        OVER VOTES                                                                                   01 
01030032022000000   ACCD5  Alamo Community College District                        OVER VOTES                                                                                   01 
01030032029000000   ACCD5  Alamo Community College District                        OVER VOTES                                                                                   01 
01030032030000000   ACCD5  Alamo Community College District                        OVER VOTES                                                                                   01 
01030032031000000   ACCD5  Alamo Community College District                        OVER VOTES                                                                                   01 
01030032032000000   ACCD5  Alamo Community College District                        OVER VOTES                                                                                   01 
01030032042000000   ACCD5  Alamo Community College District                        OVER VOTES                                                                                   01 
01030032043000000   ACCD5  Alamo Community College District                        OVER VOTES                                                                                   01 
01030032044000000   ACCD5  Alamo Community College District                        OVER VOTES                                                                                   01 
01030032070000000   ACCD5  Alamo Community College District                        OVER VOTES                                                                                   01 
01030032071000000   ACCD5  Alamo Community College District                        OVER VOTES                                                                                   01 
01030032074000000   ACCD5  Alamo Community College District                        OVER VOTES                                                                                   01 
01030032075000000   ACCD5  Alamo Community College District                        OVER VOTES                                                                                   01 
01030032079000000   ACCD5  Alamo Community College District                        OVER VOTES                                                                                   01 
01030032089000000   ACCD5  Alamo Community College District                        OVER VOTES                                                                                   01 
01030032103000000   ACCD5  Alamo Community College District                        OVER VOTES                                                                                   01 
01030032117000000   ACCD5  Alamo Community College District                        OVER VOTES                                                                                   01 
01030032118000000   ACCD5  Alamo Community College District                        OVER VOTES                                                                                   01 
01030032128000000   ACCD5  Alamo Community College District                        OVER VOTES                                                                                   01 
01030041002000003   ACCD5  Alamo Community College District                        UNDER VOTES                                                                                  01 
01030041006000010   ACCD5  Alamo Community College District                        UNDER VOTES                                                                                  01 
01030041007000014   ACCD5  Alamo Community College District                        UNDER VOTES                                                                                  01 
01030041009000002   ACCD5  Alamo Community College District                        UNDER VOTES                                                                                  01 
01030041024000009   ACCD5  Alamo Community College District                        UNDER VOTES                                                                                  01 
01030041027000001   ACCD5  Alamo Community College District                        UNDER VOTES                                                                                  01 
01030041029000010   ACCD5  Alamo Community College District                        UNDER VOTES                                                                                  01 
01030041031000002   ACCD5  Alamo Community College District                        UNDER VOTES                                                                                  01 
01030041032000008   ACCD5  Alamo Community College District                        UNDER VOTES                                                                                  01 
01030041043000008   ACCD5  Alamo Community College District                        UNDER VOTES                                                                                  01 
01030041055000012   ACCD5  Alamo Community College District                        UNDER VOTES                                                                                  01 
01030041072000004   ACCD5  Alamo Community College District                        UNDER VOTES                                                                                  01 
01030041074000000   ACCD5  Alamo Community College District                        UNDER VOTES                                                                                  01 
01030041076000020   ACCD5  Alamo Community College District                        UNDER VOTES                                                                                  01 
01030041077000012   ACCD5  Alamo Community College District                        UNDER VOTES                                                                                  01 
01030041078000000   ACCD5  Alamo Community College District                        UNDER VOTES                                                                                  01 
01030041079000010   ACCD5  Alamo Community College District                        UNDER VOTES                                                                                  01 
01030041080000007   ACCD5  Alamo Community College District                        UNDER VOTES                                                                                  01 
01030041083000027   ACCD5  Alamo Community College District                        UNDER VOTES                                                                                  01 
01030041084000012   ACCD5  Alamo Community College District                        UNDER VOTES                                                                                  01 
01030041085000012   ACCD5  Alamo Community College District                        UNDER VOTES                                                                                  01 
01030041086000026   ACCD5  Alamo Community College District                        UNDER VOTES                                                                                  01 
01030041087000001   ACCD5  Alamo Community College District                        UNDER VOTES                                                                                  01 
01030041088000003   ACCD5  Alamo Community College District                        UNDER VOTES                                                                                  01 
01030041093000008   ACCD5  Alamo Community College District                        UNDER VOTES                                                                                  01 
01030041096000000   ACCD5  Alamo Community College District                        UNDER VOTES                                                                                  01 
01030041098000003   ACCD5  Alamo Community College District                        UNDER VOTES                                                                                  01 
01030041099000014   ACCD5  Alamo Community College District                        UNDER VOTES                                                                                  01 
01030041100000008   ACCD5  Alamo Community College District                        UNDER VOTES                                                                                  01 
01030041104000021   ACCD5  Alamo Community College District                        UNDER VOTES                                                                                  01 
01030041109000000   ACCD5  Alamo Community College District                        UNDER VOTES                                                                                  01 
01030041111000026   ACCD5  Alamo Community College District                        UNDER VOTES                                                                                  01 
01030041113000013   ACCD5  Alamo Community College District                        UNDER VOTES                                                                                  01 
01030042011000012   ACCD5  Alamo Community College District                        UNDER VOTES                                                                                  01 
01030042012000005   ACCD5  Alamo Community College District                        UNDER VOTES                                                                                  01 
01030042015000003   ACCD5  Alamo Community College District                        UNDER VOTES                                                                                  01 
01030042016000003   ACCD5  Alamo Community College District                        UNDER VOTES                                                                                  01 
01030042017000001   ACCD5  Alamo Community College District                        UNDER VOTES                                                                                  01 
01030042018000007   ACCD5  Alamo Community College District                        UNDER VOTES                                                                                  01 
01030042019000003   ACCD5  Alamo Community College District                        UNDER VOTES                                                                                  01 
01030042020000006   ACCD5  Alamo Community College District                        UNDER VOTES                                                                                  01 
01030042021000004   ACCD5  Alamo Community College District                        UNDER VOTES                                                                                  01 
01030042022000000   ACCD5  Alamo Community College District                        UNDER VOTES                                                                                  01 
01030042029000004   ACCD5  Alamo Community College District                        UNDER VOTES                                                                                  01 
01030042030000003   ACCD5  Alamo Community College District                        UNDER VOTES                                                                                  01 
01030042031000007   ACCD5  Alamo Community College District                        UNDER VOTES                                                                                  01 
01030042032000001   ACCD5  Alamo Community College District                        UNDER VOTES                                                                                  01 
01030042042000007   ACCD5  Alamo Community College District                        UNDER VOTES                                                                                  01 
01030042043000007   ACCD5  Alamo Community College District                        UNDER VOTES                                                                                  01 
01030042044000002   ACCD5  Alamo Community College District                        UNDER VOTES                                                                                  01 
01030042070000005   ACCD5  Alamo Community College District                        UNDER VOTES                                                                                  01 
01030042071000004   ACCD5  Alamo Community College District                        UNDER VOTES                                                                                  01 
01030042074000000   ACCD5  Alamo Community College District                        UNDER VOTES                                                                                  01 
01030042075000001   ACCD5  Alamo Community College District                        UNDER VOTES                                                                                  01 
01030042079000002   ACCD5  Alamo Community College District                        UNDER VOTES                                                                                  01 
01030042089000002   ACCD5  Alamo Community College District                        UNDER VOTES                                                                                  01 
01030042103000001   ACCD5  Alamo Community College District                        UNDER VOTES                                                                                  01 
01030042117000002   ACCD5  Alamo Community College District                        UNDER VOTES                                                                                  01 
01030042118000000   ACCD5  Alamo Community College District                        UNDER VOTES                                                                                  01 
01030042128000002   ACCD5  Alamo Community College District                        UNDER VOTES                                                                                  01 
