01020010001000000REP       REGISTERED VOTERS - REPUBLICAN PARTY                    REGISTERED VOTERS - REPUBLICAN PARTY  PRECINCT 1                                             00 
01020010002000000REP       REGISTERED VOTERS - REPUBLICAN PARTY                    REGISTERED VOTERS - REPUBLICAN PARTY  PRECINCT 2                                             00 
01020010003000000REP       REGISTERED VOTERS - REPUBLICAN PARTY                    REGISTERED VOTERS - REPUBLICAN PARTY  PRECINCT 3                                             00 
01020010004000000REP       REGISTERED VOTERS - REPUBLICAN PARTY                    REGISTERED VOTERS - REPUBLICAN PARTY  PRECINCT 4                                             00 
01020010005000000REP       REGISTERED VOTERS - REPUBLICAN PARTY                    REGISTERED VOTERS - REPUBLICAN PARTY  PRECINCT 5                                             00 
01020010006000000REP       REGISTERED VOTERS - REPUBLICAN PARTY                    REGISTERED VOTERS - REPUBLICAN PARTY  PRECINCT 6                                             00 
01020010007000000REP       REGISTERED VOTERS - REPUBLICAN PARTY                    REGISTERED VOTERS - REPUBLICAN PARTY  PRECINCT 7                                             00 
01020010008000000REP       REGISTERED VOTERS - REPUBLICAN PARTY                    REGISTERED VOTERS - REPUBLICAN PARTY  PRECINCT 8                                             00 
01020010009000000REP       REGISTERED VOTERS - REPUBLICAN PARTY                    REGISTERED VOTERS - REPUBLICAN PARTY  PRECINCT 9                                             00 
01020010010000000REP       REGISTERED VOTERS - REPUBLICAN PARTY                    REGISTERED VOTERS - REPUBLICAN PARTY  PRECINCT 10                                            00 
01020010011000000REP       REGISTERED VOTERS - REPUBLICAN PARTY                    REGISTERED VOTERS - REPUBLICAN PARTY  PRECINCT 11                                            00 
01020010012000000REP       REGISTERED VOTERS - REPUBLICAN PARTY                    REGISTERED VOTERS - REPUBLICAN PARTY  PRECINCT 11B                                           00 
01020010013000000REP       REGISTERED VOTERS - REPUBLICAN PARTY                    REGISTERED VOTERS - REPUBLICAN PARTY  PRECINCT 12                                            00 
01020010014000000REP       REGISTERED VOTERS - REPUBLICAN PARTY                    REGISTERED VOTERS - REPUBLICAN PARTY  PRECINCT 13                                            00 
01020010015000000REP       REGISTERED VOTERS - REPUBLICAN PARTY                    REGISTERED VOTERS - REPUBLICAN PARTY  PRECINCT 14                                            00 
01020010016000000REP       REGISTERED VOTERS - REPUBLICAN PARTY                    REGISTERED VOTERS - REPUBLICAN PARTY  PRECINCT 15                                            00 
01020010017000000REP       REGISTERED VOTERS - REPUBLICAN PARTY                    REGISTERED VOTERS - REPUBLICAN PARTY  PRECINCT 16                                            00 
01020010018000000REP       REGISTERED VOTERS - REPUBLICAN PARTY                    REGISTERED VOTERS - REPUBLICAN PARTY  PRECINCT 17                                            00 
01020010019000000REP       REGISTERED VOTERS - REPUBLICAN PARTY                    REGISTERED VOTERS - REPUBLICAN PARTY  PRECINCT 17B                                           00 
01020010020000000REP       REGISTERED VOTERS - REPUBLICAN PARTY                    REGISTERED VOTERS - REPUBLICAN PARTY  PRECINCT 18                                            00 
01020010021000000REP       REGISTERED VOTERS - REPUBLICAN PARTY                    REGISTERED VOTERS - REPUBLICAN PARTY  PRECINCT 19                                            00 
01020010022000000REP       REGISTERED VOTERS - REPUBLICAN PARTY                    REGISTERED VOTERS - REPUBLICAN PARTY  PRECINCT 20                                            00 
01020010023000000REP       REGISTERED VOTERS - REPUBLICAN PARTY                    REGISTERED VOTERS - REPUBLICAN PARTY  PRECINCT 21                                            00 
01020010024000000REP       REGISTERED VOTERS - REPUBLICAN PARTY                    REGISTERED VOTERS - REPUBLICAN PARTY  PRECINCT 22                                            00 
01020010025000000REP       REGISTERED VOTERS - REPUBLICAN PARTY                    REGISTERED VOTERS - REPUBLICAN PARTY  PRECINCT 23                                            00 
01020010026000000REP       REGISTERED VOTERS - REPUBLICAN PARTY                    REGISTERED VOTERS - REPUBLICAN PARTY  PRECINCT 24                                            00 
01020010027000000REP       REGISTERED VOTERS - REPUBLICAN PARTY                    REGISTERED VOTERS - REPUBLICAN PARTY  PRECINCT 25                                            00 
01020010028000000REP       REGISTERED VOTERS - REPUBLICAN PARTY                    REGISTERED VOTERS - REPUBLICAN PARTY  PRECINCT 26                                            00 
01020010029000000REP       REGISTERED VOTERS - REPUBLICAN PARTY                    REGISTERED VOTERS - REPUBLICAN PARTY  PRECINCT 27                                            00 
01020010030000000REP       REGISTERED VOTERS - REPUBLICAN PARTY                    REGISTERED VOTERS - REPUBLICAN PARTY  PRECINCT 28                                            00 
01020010031000000REP       REGISTERED VOTERS - REPUBLICAN PARTY                    REGISTERED VOTERS - REPUBLICAN PARTY  PRECINCT 29                                            00 
01020010032000000REP       REGISTERED VOTERS - REPUBLICAN PARTY                    REGISTERED VOTERS - REPUBLICAN PARTY  PRECINCT 30                                            00 
01020010033000000REP       REGISTERED VOTERS - REPUBLICAN PARTY                    REGISTERED VOTERS - REPUBLICAN PARTY  PRECINCT 31                                            00 
01020010034000000REP       REGISTERED VOTERS - REPUBLICAN PARTY                    REGISTERED VOTERS - REPUBLICAN PARTY  PRECINCT 32                                            00 
01020010035000000REP       REGISTERED VOTERS - REPUBLICAN PARTY                    REGISTERED VOTERS - REPUBLICAN PARTY  PRECINCT 33                                            00 
01020010036000000REP       REGISTERED VOTERS - REPUBLICAN PARTY                    REGISTERED VOTERS - REPUBLICAN PARTY  PRECINCT 34                                            00 
01020010037000000REP       REGISTERED VOTERS - REPUBLICAN PARTY                    REGISTERED VOTERS - REPUBLICAN PARTY  PRECINCT 35                                            00 
01020010038000000REP       REGISTERED VOTERS - REPUBLICAN PARTY                    REGISTERED VOTERS - REPUBLICAN PARTY  PRECINCT 36                                            00 
01020010039000000REP       REGISTERED VOTERS - REPUBLICAN PARTY                    REGISTERED VOTERS - REPUBLICAN PARTY  PRECINCT 37                                            00 
01020010040000000REP       REGISTERED VOTERS - REPUBLICAN PARTY                    REGISTERED VOTERS - REPUBLICAN PARTY  PRECINCT 38                                            00 
01020010041000000REP       REGISTERED VOTERS - REPUBLICAN PARTY                    REGISTERED VOTERS - REPUBLICAN PARTY  PRECINCT 39                                            00 
01020010042000000REP       REGISTERED VOTERS - REPUBLICAN PARTY                    REGISTERED VOTERS - REPUBLICAN PARTY  PRECINCT 40                                            00 
01030010001000000DEM       REGISTERED VOTERS - DEMOCRATIC PARTY                    REGISTERED VOTERS - DEMOCRATIC PARTY  PRECINCT 1                                             00 
01030010002000000DEM       REGISTERED VOTERS - DEMOCRATIC PARTY                    REGISTERED VOTERS - DEMOCRATIC PARTY  PRECINCT 2                                             00 
01030010003000000DEM       REGISTERED VOTERS - DEMOCRATIC PARTY                    REGISTERED VOTERS - DEMOCRATIC PARTY  PRECINCT 3                                             00 
01030010004000000DEM       REGISTERED VOTERS - DEMOCRATIC PARTY                    REGISTERED VOTERS - DEMOCRATIC PARTY  PRECINCT 4                                             00 
01030010005000000DEM       REGISTERED VOTERS - DEMOCRATIC PARTY                    REGISTERED VOTERS - DEMOCRATIC PARTY  PRECINCT 5                                             00 
01030010006000000DEM       REGISTERED VOTERS - DEMOCRATIC PARTY                    REGISTERED VOTERS - DEMOCRATIC PARTY  PRECINCT 6                                             00 
01030010007000000DEM       REGISTERED VOTERS - DEMOCRATIC PARTY                    REGISTERED VOTERS - DEMOCRATIC PARTY  PRECINCT 7                                             00 
01030010008000000DEM       REGISTERED VOTERS - DEMOCRATIC PARTY                    REGISTERED VOTERS - DEMOCRATIC PARTY  PRECINCT 8                                             00 
01030010009000000DEM       REGISTERED VOTERS - DEMOCRATIC PARTY                    REGISTERED VOTERS - DEMOCRATIC PARTY  PRECINCT 9                                             00 
01030010010000000DEM       REGISTERED VOTERS - DEMOCRATIC PARTY                    REGISTERED VOTERS - DEMOCRATIC PARTY  PRECINCT 10                                            00 
01030010011000000DEM       REGISTERED VOTERS - DEMOCRATIC PARTY                    REGISTERED VOTERS - DEMOCRATIC PARTY  PRECINCT 11                                            00 
01030010012000000DEM       REGISTERED VOTERS - DEMOCRATIC PARTY                    REGISTERED VOTERS - DEMOCRATIC PARTY  PRECINCT 11B                                           00 
01030010013000000DEM       REGISTERED VOTERS - DEMOCRATIC PARTY                    REGISTERED VOTERS - DEMOCRATIC PARTY  PRECINCT 12                                            00 
01030010014000000DEM       REGISTERED VOTERS - DEMOCRATIC PARTY                    REGISTERED VOTERS - DEMOCRATIC PARTY  PRECINCT 13                                            00 
01030010015000000DEM       REGISTERED VOTERS - DEMOCRATIC PARTY                    REGISTERED VOTERS - DEMOCRATIC PARTY  PRECINCT 14                                            00 
01030010016000000DEM       REGISTERED VOTERS - DEMOCRATIC PARTY                    REGISTERED VOTERS - DEMOCRATIC PARTY  PRECINCT 15                                            00 
01030010017000000DEM       REGISTERED VOTERS - DEMOCRATIC PARTY                    REGISTERED VOTERS - DEMOCRATIC PARTY  PRECINCT 16                                            00 
01030010018000000DEM       REGISTERED VOTERS - DEMOCRATIC PARTY                    REGISTERED VOTERS - DEMOCRATIC PARTY  PRECINCT 17                                            00 
01030010019000000DEM       REGISTERED VOTERS - DEMOCRATIC PARTY                    REGISTERED VOTERS - DEMOCRATIC PARTY  PRECINCT 17B                                           00 
01030010020000000DEM       REGISTERED VOTERS - DEMOCRATIC PARTY                    REGISTERED VOTERS - DEMOCRATIC PARTY  PRECINCT 18                                            00 
01030010021000000DEM       REGISTERED VOTERS - DEMOCRATIC PARTY                    REGISTERED VOTERS - DEMOCRATIC PARTY  PRECINCT 19                                            00 
01030010022000000DEM       REGISTERED VOTERS - DEMOCRATIC PARTY                    REGISTERED VOTERS - DEMOCRATIC PARTY  PRECINCT 20                                            00 
01030010023000000DEM       REGISTERED VOTERS - DEMOCRATIC PARTY                    REGISTERED VOTERS - DEMOCRATIC PARTY  PRECINCT 21                                            00 
01030010024000000DEM       REGISTERED VOTERS - DEMOCRATIC PARTY                    REGISTERED VOTERS - DEMOCRATIC PARTY  PRECINCT 22                                            00 
01030010025000000DEM       REGISTERED VOTERS - DEMOCRATIC PARTY                    REGISTERED VOTERS - DEMOCRATIC PARTY  PRECINCT 23                                            00 
01030010026000000DEM       REGISTERED VOTERS - DEMOCRATIC PARTY                    REGISTERED VOTERS - DEMOCRATIC PARTY  PRECINCT 24                                            00 
01030010027000000DEM       REGISTERED VOTERS - DEMOCRATIC PARTY                    REGISTERED VOTERS - DEMOCRATIC PARTY  PRECINCT 25                                            00 
01030010028000000DEM       REGISTERED VOTERS - DEMOCRATIC PARTY                    REGISTERED VOTERS - DEMOCRATIC PARTY  PRECINCT 26                                            00 
01030010029000000DEM       REGISTERED VOTERS - DEMOCRATIC PARTY                    REGISTERED VOTERS - DEMOCRATIC PARTY  PRECINCT 27                                            00 
01030010030000000DEM       REGISTERED VOTERS - DEMOCRATIC PARTY                    REGISTERED VOTERS - DEMOCRATIC PARTY  PRECINCT 28                                            00 
01030010031000000DEM       REGISTERED VOTERS - DEMOCRATIC PARTY                    REGISTERED VOTERS - DEMOCRATIC PARTY  PRECINCT 29                                            00 
01030010032000000DEM       REGISTERED VOTERS - DEMOCRATIC PARTY                    REGISTERED VOTERS - DEMOCRATIC PARTY  PRECINCT 30                                            00 
01030010033000000DEM       REGISTERED VOTERS - DEMOCRATIC PARTY                    REGISTERED VOTERS - DEMOCRATIC PARTY  PRECINCT 31                                            00 
01030010034000000DEM       REGISTERED VOTERS - DEMOCRATIC PARTY                    REGISTERED VOTERS - DEMOCRATIC PARTY  PRECINCT 32                                            00 
01030010035000000DEM       REGISTERED VOTERS - DEMOCRATIC PARTY                    REGISTERED VOTERS - DEMOCRATIC PARTY  PRECINCT 33                                            00 
01030010036000000DEM       REGISTERED VOTERS - DEMOCRATIC PARTY                    REGISTERED VOTERS - DEMOCRATIC PARTY  PRECINCT 34                                            00 
01030010037000000DEM       REGISTERED VOTERS - DEMOCRATIC PARTY                    REGISTERED VOTERS - DEMOCRATIC PARTY  PRECINCT 35                                            00 
01030010038000000DEM       REGISTERED VOTERS - DEMOCRATIC PARTY                    REGISTERED VOTERS - DEMOCRATIC PARTY  PRECINCT 36                                            00 
01030010039000000DEM       REGISTERED VOTERS - DEMOCRATIC PARTY                    REGISTERED VOTERS - DEMOCRATIC PARTY  PRECINCT 37                                            00 
01030010040000000DEM       REGISTERED VOTERS - DEMOCRATIC PARTY                    REGISTERED VOTERS - DEMOCRATIC PARTY  PRECINCT 38                                            00 
01030010041000000DEM       REGISTERED VOTERS - DEMOCRATIC PARTY                    REGISTERED VOTERS - DEMOCRATIC PARTY  PRECINCT 39                                            00 
01030010042000000DEM       REGISTERED VOTERS - DEMOCRATIC PARTY                    REGISTERED VOTERS - DEMOCRATIC PARTY  PRECINCT 40                                            00 
01040010001000098          BALLOTS CAST - TOTAL                                    BALLOTS CAST - TOTAL                  PRECINCT 1                                             00 
01040010002000306          BALLOTS CAST - TOTAL                                    BALLOTS CAST - TOTAL                  PRECINCT 2                                             00 
01040010003000459          BALLOTS CAST - TOTAL                                    BALLOTS CAST - TOTAL                  PRECINCT 3                                             00 
01040010004000225          BALLOTS CAST - TOTAL                                    BALLOTS CAST - TOTAL                  PRECINCT 4                                             00 
01040010005000353          BALLOTS CAST - TOTAL                                    BALLOTS CAST - TOTAL                  PRECINCT 5                                             00 
01040010006000123          BALLOTS CAST - TOTAL                                    BALLOTS CAST - TOTAL                  PRECINCT 6                                             00 
01040010007000273          BALLOTS CAST - TOTAL                                    BALLOTS CAST - TOTAL                  PRECINCT 7                                             00 
01040010008000394          BALLOTS CAST - TOTAL                                    BALLOTS CAST - TOTAL                  PRECINCT 8                                             00 
01040010009000072          BALLOTS CAST - TOTAL                                    BALLOTS CAST - TOTAL                  PRECINCT 9                                             00 
01040010010000253          BALLOTS CAST - TOTAL                                    BALLOTS CAST - TOTAL                  PRECINCT 10                                            00 
01040010011000586          BALLOTS CAST - TOTAL                                    BALLOTS CAST - TOTAL                  PRECINCT 11                                            00 
01040010012000280          BALLOTS CAST - TOTAL                                    BALLOTS CAST - TOTAL                  PRECINCT 11B                                           00 
01040010013000263          BALLOTS CAST - TOTAL                                    BALLOTS CAST - TOTAL                  PRECINCT 12                                            00 
01040010014000183          BALLOTS CAST - TOTAL                                    BALLOTS CAST - TOTAL                  PRECINCT 13                                            00 
01040010015000568          BALLOTS CAST - TOTAL                                    BALLOTS CAST - TOTAL                  PRECINCT 14                                            00 
01040010016000160          BALLOTS CAST - TOTAL                                    BALLOTS CAST - TOTAL                  PRECINCT 15                                            00 
01040010017000436          BALLOTS CAST - TOTAL                                    BALLOTS CAST - TOTAL                  PRECINCT 16                                            00 
01040010018000412          BALLOTS CAST - TOTAL                                    BALLOTS CAST - TOTAL                  PRECINCT 17                                            00 
01040010019000100          BALLOTS CAST - TOTAL                                    BALLOTS CAST - TOTAL                  PRECINCT 17B                                           00 
01040010020000154          BALLOTS CAST - TOTAL                                    BALLOTS CAST - TOTAL                  PRECINCT 18                                            00 
01040010021000543          BALLOTS CAST - TOTAL                                    BALLOTS CAST - TOTAL                  PRECINCT 19                                            00 
01040010022000284          BALLOTS CAST - TOTAL                                    BALLOTS CAST - TOTAL                  PRECINCT 20                                            00 
01040010023000346          BALLOTS CAST - TOTAL                                    BALLOTS CAST - TOTAL                  PRECINCT 21                                            00 
01040010024000318          BALLOTS CAST - TOTAL                                    BALLOTS CAST - TOTAL                  PRECINCT 22                                            00 
01040010025000150          BALLOTS CAST - TOTAL                                    BALLOTS CAST - TOTAL                  PRECINCT 23                                            00 
01040010026000685          BALLOTS CAST - TOTAL                                    BALLOTS CAST - TOTAL                  PRECINCT 24                                            00 
01040010027000606          BALLOTS CAST - TOTAL                                    BALLOTS CAST - TOTAL                  PRECINCT 25                                            00 
01040010028000555          BALLOTS CAST - TOTAL                                    BALLOTS CAST - TOTAL                  PRECINCT 26                                            00 
01040010029000140          BALLOTS CAST - TOTAL                                    BALLOTS CAST - TOTAL                  PRECINCT 27                                            00 
01040010030000368          BALLOTS CAST - TOTAL                                    BALLOTS CAST - TOTAL                  PRECINCT 28                                            00 
01040010031000392          BALLOTS CAST - TOTAL                                    BALLOTS CAST - TOTAL                  PRECINCT 29                                            00 
01040010032000232          BALLOTS CAST - TOTAL                                    BALLOTS CAST - TOTAL                  PRECINCT 30                                            00 
01040010033000098          BALLOTS CAST - TOTAL                                    BALLOTS CAST - TOTAL                  PRECINCT 31                                            00 
01040010034000049          BALLOTS CAST - TOTAL                                    BALLOTS CAST - TOTAL                  PRECINCT 32                                            00 
01040010035000334          BALLOTS CAST - TOTAL                                    BALLOTS CAST - TOTAL                  PRECINCT 33                                            00 
01040010036000635          BALLOTS CAST - TOTAL                                    BALLOTS CAST - TOTAL                  PRECINCT 34                                            00 
01040010037000579          BALLOTS CAST - TOTAL                                    BALLOTS CAST - TOTAL                  PRECINCT 35                                            00 
01040010038000003          BALLOTS CAST - TOTAL                                    BALLOTS CAST - TOTAL                  PRECINCT 36                                            00 
01040010039000133          BALLOTS CAST - TOTAL                                    BALLOTS CAST - TOTAL                  PRECINCT 37                                            00 
01040010040000121          BALLOTS CAST - TOTAL                                    BALLOTS CAST - TOTAL                  PRECINCT 38                                            00 
01040010041000150          BALLOTS CAST - TOTAL                                    BALLOTS CAST - TOTAL                  PRECINCT 39                                            00 
01040010042000205          BALLOTS CAST - TOTAL                                    BALLOTS CAST - TOTAL                  PRECINCT 40                                            00 
01050010001000091REP       BALLOTS CAST - REPUBLICAN PARTY                         BALLOTS CAST - REPUBLICAN PARTY       PRECINCT 1                                             00 
01050010002000182REP       BALLOTS CAST - REPUBLICAN PARTY                         BALLOTS CAST - REPUBLICAN PARTY       PRECINCT 2                                             00 
01050010003000402REP       BALLOTS CAST - REPUBLICAN PARTY                         BALLOTS CAST - REPUBLICAN PARTY       PRECINCT 3                                             00 
01050010004000183REP       BALLOTS CAST - REPUBLICAN PARTY                         BALLOTS CAST - REPUBLICAN PARTY       PRECINCT 4                                             00 
01050010005000310REP       BALLOTS CAST - REPUBLICAN PARTY                         BALLOTS CAST - REPUBLICAN PARTY       PRECINCT 5                                             00 
01050010006000112REP       BALLOTS CAST - REPUBLICAN PARTY                         BALLOTS CAST - REPUBLICAN PARTY       PRECINCT 6                                             00 
01050010007000263REP       BALLOTS CAST - REPUBLICAN PARTY                         BALLOTS CAST - REPUBLICAN PARTY       PRECINCT 7                                             00 
01050010008000376REP       BALLOTS CAST - REPUBLICAN PARTY                         BALLOTS CAST - REPUBLICAN PARTY       PRECINCT 8                                             00 
01050010009000068REP       BALLOTS CAST - REPUBLICAN PARTY                         BALLOTS CAST - REPUBLICAN PARTY       PRECINCT 9                                             00 
01050010010000207REP       BALLOTS CAST - REPUBLICAN PARTY                         BALLOTS CAST - REPUBLICAN PARTY       PRECINCT 10                                            00 
01050010011000559REP       BALLOTS CAST - REPUBLICAN PARTY                         BALLOTS CAST - REPUBLICAN PARTY       PRECINCT 11                                            00 
01050010012000250REP       BALLOTS CAST - REPUBLICAN PARTY                         BALLOTS CAST - REPUBLICAN PARTY       PRECINCT 11B                                           00 
01050010013000247REP       BALLOTS CAST - REPUBLICAN PARTY                         BALLOTS CAST - REPUBLICAN PARTY       PRECINCT 12                                            00 
01050010014000154REP       BALLOTS CAST - REPUBLICAN PARTY                         BALLOTS CAST - REPUBLICAN PARTY       PRECINCT 13                                            00 
01050010015000522REP       BALLOTS CAST - REPUBLICAN PARTY                         BALLOTS CAST - REPUBLICAN PARTY       PRECINCT 14                                            00 
01050010016000143REP       BALLOTS CAST - REPUBLICAN PARTY                         BALLOTS CAST - REPUBLICAN PARTY       PRECINCT 15                                            00 
01050010017000338REP       BALLOTS CAST - REPUBLICAN PARTY                         BALLOTS CAST - REPUBLICAN PARTY       PRECINCT 16                                            00 
01050010018000357REP       BALLOTS CAST - REPUBLICAN PARTY                         BALLOTS CAST - REPUBLICAN PARTY       PRECINCT 17                                            00 
01050010019000075REP       BALLOTS CAST - REPUBLICAN PARTY                         BALLOTS CAST - REPUBLICAN PARTY       PRECINCT 17B                                           00 
01050010020000144REP       BALLOTS CAST - REPUBLICAN PARTY                         BALLOTS CAST - REPUBLICAN PARTY       PRECINCT 18                                            00 
01050010021000516REP       BALLOTS CAST - REPUBLICAN PARTY                         BALLOTS CAST - REPUBLICAN PARTY       PRECINCT 19                                            00 
01050010022000081REP       BALLOTS CAST - REPUBLICAN PARTY                         BALLOTS CAST - REPUBLICAN PARTY       PRECINCT 20                                            00 
01050010023000314REP       BALLOTS CAST - REPUBLICAN PARTY                         BALLOTS CAST - REPUBLICAN PARTY       PRECINCT 21                                            00 
01050010024000272REP       BALLOTS CAST - REPUBLICAN PARTY                         BALLOTS CAST - REPUBLICAN PARTY       PRECINCT 22                                            00 
01050010025000134REP       BALLOTS CAST - REPUBLICAN PARTY                         BALLOTS CAST - REPUBLICAN PARTY       PRECINCT 23                                            00 
01050010026000649REP       BALLOTS CAST - REPUBLICAN PARTY                         BALLOTS CAST - REPUBLICAN PARTY       PRECINCT 24                                            00 
01050010027000566REP       BALLOTS CAST - REPUBLICAN PARTY                         BALLOTS CAST - REPUBLICAN PARTY       PRECINCT 25                                            00 
01050010028000507REP       BALLOTS CAST - REPUBLICAN PARTY                         BALLOTS CAST - REPUBLICAN PARTY       PRECINCT 26                                            00 
01050010029000121REP       BALLOTS CAST - REPUBLICAN PARTY                         BALLOTS CAST - REPUBLICAN PARTY       PRECINCT 27                                            00 
01050010030000328REP       BALLOTS CAST - REPUBLICAN PARTY                         BALLOTS CAST - REPUBLICAN PARTY       PRECINCT 28                                            00 
01050010031000367REP       BALLOTS CAST - REPUBLICAN PARTY                         BALLOTS CAST - REPUBLICAN PARTY       PRECINCT 29                                            00 
01050010032000212REP       BALLOTS CAST - REPUBLICAN PARTY                         BALLOTS CAST - REPUBLICAN PARTY       PRECINCT 30                                            00 
01050010033000087REP       BALLOTS CAST - REPUBLICAN PARTY                         BALLOTS CAST - REPUBLICAN PARTY       PRECINCT 31                                            00 
01050010034000043REP       BALLOTS CAST - REPUBLICAN PARTY                         BALLOTS CAST - REPUBLICAN PARTY       PRECINCT 32                                            00 
01050010035000322REP       BALLOTS CAST - REPUBLICAN PARTY                         BALLOTS CAST - REPUBLICAN PARTY       PRECINCT 33                                            00 
01050010036000602REP       BALLOTS CAST - REPUBLICAN PARTY                         BALLOTS CAST - REPUBLICAN PARTY       PRECINCT 34                                            00 
01050010037000531REP       BALLOTS CAST - REPUBLICAN PARTY                         BALLOTS CAST - REPUBLICAN PARTY       PRECINCT 35                                            00 
01050010038000003REP       BALLOTS CAST - REPUBLICAN PARTY                         BALLOTS CAST - REPUBLICAN PARTY       PRECINCT 36                                            00 
01050010039000119REP       BALLOTS CAST - REPUBLICAN PARTY                         BALLOTS CAST - REPUBLICAN PARTY       PRECINCT 37                                            00 
01050010040000114REP       BALLOTS CAST - REPUBLICAN PARTY                         BALLOTS CAST - REPUBLICAN PARTY       PRECINCT 38                                            00 
01050010041000143REP       BALLOTS CAST - REPUBLICAN PARTY                         BALLOTS CAST - REPUBLICAN PARTY       PRECINCT 39                                            00 
01050010042000179REP       BALLOTS CAST - REPUBLICAN PARTY                         BALLOTS CAST - REPUBLICAN PARTY       PRECINCT 40                                            00 
01060010001000007DEM       BALLOTS CAST - DEMOCRATIC PARTY                         BALLOTS CAST - DEMOCRATIC PARTY       PRECINCT 1                                             00 
01060010002000124DEM       BALLOTS CAST - DEMOCRATIC PARTY                         BALLOTS CAST - DEMOCRATIC PARTY       PRECINCT 2                                             00 
01060010003000057DEM       BALLOTS CAST - DEMOCRATIC PARTY                         BALLOTS CAST - DEMOCRATIC PARTY       PRECINCT 3                                             00 
01060010004000042DEM       BALLOTS CAST - DEMOCRATIC PARTY                         BALLOTS CAST - DEMOCRATIC PARTY       PRECINCT 4                                             00 
01060010005000043DEM       BALLOTS CAST - DEMOCRATIC PARTY                         BALLOTS CAST - DEMOCRATIC PARTY       PRECINCT 5                                             00 
01060010006000011DEM       BALLOTS CAST - DEMOCRATIC PARTY                         BALLOTS CAST - DEMOCRATIC PARTY       PRECINCT 6                                             00 
01060010007000010DEM       BALLOTS CAST - DEMOCRATIC PARTY                         BALLOTS CAST - DEMOCRATIC PARTY       PRECINCT 7                                             00 
01060010008000018DEM       BALLOTS CAST - DEMOCRATIC PARTY                         BALLOTS CAST - DEMOCRATIC PARTY       PRECINCT 8                                             00 
01060010009000004DEM       BALLOTS CAST - DEMOCRATIC PARTY                         BALLOTS CAST - DEMOCRATIC PARTY       PRECINCT 9                                             00 
01060010010000046DEM       BALLOTS CAST - DEMOCRATIC PARTY                         BALLOTS CAST - DEMOCRATIC PARTY       PRECINCT 10                                            00 
01060010011000027DEM       BALLOTS CAST - DEMOCRATIC PARTY                         BALLOTS CAST - DEMOCRATIC PARTY       PRECINCT 11                                            00 
01060010012000030DEM       BALLOTS CAST - DEMOCRATIC PARTY                         BALLOTS CAST - DEMOCRATIC PARTY       PRECINCT 11B                                           00 
01060010013000016DEM       BALLOTS CAST - DEMOCRATIC PARTY                         BALLOTS CAST - DEMOCRATIC PARTY       PRECINCT 12                                            00 
01060010014000029DEM       BALLOTS CAST - DEMOCRATIC PARTY                         BALLOTS CAST - DEMOCRATIC PARTY       PRECINCT 13                                            00 
01060010015000046DEM       BALLOTS CAST - DEMOCRATIC PARTY                         BALLOTS CAST - DEMOCRATIC PARTY       PRECINCT 14                                            00 
01060010016000017DEM       BALLOTS CAST - DEMOCRATIC PARTY                         BALLOTS CAST - DEMOCRATIC PARTY       PRECINCT 15                                            00 
01060010017000098DEM       BALLOTS CAST - DEMOCRATIC PARTY                         BALLOTS CAST - DEMOCRATIC PARTY       PRECINCT 16                                            00 
01060010018000055DEM       BALLOTS CAST - DEMOCRATIC PARTY                         BALLOTS CAST - DEMOCRATIC PARTY       PRECINCT 17                                            00 
01060010019000025DEM       BALLOTS CAST - DEMOCRATIC PARTY                         BALLOTS CAST - DEMOCRATIC PARTY       PRECINCT 17B                                           00 
01060010020000010DEM       BALLOTS CAST - DEMOCRATIC PARTY                         BALLOTS CAST - DEMOCRATIC PARTY       PRECINCT 18                                            00 
01060010021000027DEM       BALLOTS CAST - DEMOCRATIC PARTY                         BALLOTS CAST - DEMOCRATIC PARTY       PRECINCT 19                                            00 
01060010022000203DEM       BALLOTS CAST - DEMOCRATIC PARTY                         BALLOTS CAST - DEMOCRATIC PARTY       PRECINCT 20                                            00 
01060010023000032DEM       BALLOTS CAST - DEMOCRATIC PARTY                         BALLOTS CAST - DEMOCRATIC PARTY       PRECINCT 21                                            00 
01060010024000046DEM       BALLOTS CAST - DEMOCRATIC PARTY                         BALLOTS CAST - DEMOCRATIC PARTY       PRECINCT 22                                            00 
01060010025000016DEM       BALLOTS CAST - DEMOCRATIC PARTY                         BALLOTS CAST - DEMOCRATIC PARTY       PRECINCT 23                                            00 
01060010026000036DEM       BALLOTS CAST - DEMOCRATIC PARTY                         BALLOTS CAST - DEMOCRATIC PARTY       PRECINCT 24                                            00 
01060010027000040DEM       BALLOTS CAST - DEMOCRATIC PARTY                         BALLOTS CAST - DEMOCRATIC PARTY       PRECINCT 25                                            00 
01060010028000048DEM       BALLOTS CAST - DEMOCRATIC PARTY                         BALLOTS CAST - DEMOCRATIC PARTY       PRECINCT 26                                            00 
01060010029000019DEM       BALLOTS CAST - DEMOCRATIC PARTY                         BALLOTS CAST - DEMOCRATIC PARTY       PRECINCT 27                                            00 
01060010030000040DEM       BALLOTS CAST - DEMOCRATIC PARTY                         BALLOTS CAST - DEMOCRATIC PARTY       PRECINCT 28                                            00 
01060010031000025DEM       BALLOTS CAST - DEMOCRATIC PARTY                         BALLOTS CAST - DEMOCRATIC PARTY       PRECINCT 29                                            00 
01060010032000020DEM       BALLOTS CAST - DEMOCRATIC PARTY                         BALLOTS CAST - DEMOCRATIC PARTY       PRECINCT 30                                            00 
01060010033000011DEM       BALLOTS CAST - DEMOCRATIC PARTY                         BALLOTS CAST - DEMOCRATIC PARTY       PRECINCT 31                                            00 
01060010034000006DEM       BALLOTS CAST - DEMOCRATIC PARTY                         BALLOTS CAST - DEMOCRATIC PARTY       PRECINCT 32                                            00 
01060010035000012DEM       BALLOTS CAST - DEMOCRATIC PARTY                         BALLOTS CAST - DEMOCRATIC PARTY       PRECINCT 33                                            00 
01060010036000033DEM       BALLOTS CAST - DEMOCRATIC PARTY                         BALLOTS CAST - DEMOCRATIC PARTY       PRECINCT 34                                            00 
01060010037000048DEM       BALLOTS CAST - DEMOCRATIC PARTY                         BALLOTS CAST - DEMOCRATIC PARTY       PRECINCT 35                                            00 
01060010038000000DEM       BALLOTS CAST - DEMOCRATIC PARTY                         BALLOTS CAST - DEMOCRATIC PARTY       PRECINCT 36                                            00 
01060010039000014DEM       BALLOTS CAST - DEMOCRATIC PARTY                         BALLOTS CAST - DEMOCRATIC PARTY       PRECINCT 37                                            00 
01060010040000007DEM       BALLOTS CAST - DEMOCRATIC PARTY                         BALLOTS CAST - DEMOCRATIC PARTY       PRECINCT 38                                            00 
01060010041000007DEM       BALLOTS CAST - DEMOCRATIC PARTY                         BALLOTS CAST - DEMOCRATIC PARTY       PRECINCT 39                                            00 
01060010042000026DEM       BALLOTS CAST - DEMOCRATIC PARTY                         BALLOTS CAST - DEMOCRATIC PARTY       PRECINCT 40                                            00 
01070010001000001REP       President ANGELINA COUNTYWIDE                           Charles "Buddy" Roemer                PRECINCT 1                                             01 
01070010002000004REP       President ANGELINA COUNTYWIDE                           Charles "Buddy" Roemer                PRECINCT 2                                             01 
01070010003000006REP       President ANGELINA COUNTYWIDE                           Charles "Buddy" Roemer                PRECINCT 3                                             01 
01070010004000000REP       President ANGELINA COUNTYWIDE                           Charles "Buddy" Roemer                PRECINCT 4                                             01 
01070010005000001REP       President ANGELINA COUNTYWIDE                           Charles "Buddy" Roemer                PRECINCT 5                                             01 
01070010006000000REP       President ANGELINA COUNTYWIDE                           Charles "Buddy" Roemer                PRECINCT 6                                             01 
01070010007000001REP       President ANGELINA COUNTYWIDE                           Charles "Buddy" Roemer                PRECINCT 7                                             01 
01070010008000005REP       President ANGELINA COUNTYWIDE                           Charles "Buddy" Roemer                PRECINCT 8                                             01 
01070010009000000REP       President ANGELINA COUNTYWIDE                           Charles "Buddy" Roemer                PRECINCT 9                                             01 
01070010010000003REP       President ANGELINA COUNTYWIDE                           Charles "Buddy" Roemer                PRECINCT 10                                            01 
01070010011000004REP       President ANGELINA COUNTYWIDE                           Charles "Buddy" Roemer                PRECINCT 11                                            01 
01070010012000002REP       President ANGELINA COUNTYWIDE                           Charles "Buddy" Roemer                PRECINCT 11B                                           01 
01070010013000001REP       President ANGELINA COUNTYWIDE                           Charles "Buddy" Roemer                PRECINCT 12                                            01 
01070010014000000REP       President ANGELINA COUNTYWIDE                           Charles "Buddy" Roemer                PRECINCT 13                                            01 
01070010015000004REP       President ANGELINA COUNTYWIDE                           Charles "Buddy" Roemer                PRECINCT 14                                            01 
01070010016000002REP       President ANGELINA COUNTYWIDE                           Charles "Buddy" Roemer                PRECINCT 15                                            01 
01070010017000005REP       President ANGELINA COUNTYWIDE                           Charles "Buddy" Roemer                PRECINCT 16                                            01 
01070010018000006REP       President ANGELINA COUNTYWIDE                           Charles "Buddy" Roemer                PRECINCT 17                                            01 
01070010019000003REP       President ANGELINA COUNTYWIDE                           Charles "Buddy" Roemer                PRECINCT 17B                                           01 
01070010020000002REP       President ANGELINA COUNTYWIDE                           Charles "Buddy" Roemer                PRECINCT 18                                            01 
01070010021000001REP       President ANGELINA COUNTYWIDE                           Charles "Buddy" Roemer                PRECINCT 19                                            01 
01070010022000000REP       President ANGELINA COUNTYWIDE                           Charles "Buddy" Roemer                PRECINCT 20                                            01 
01070010023000001REP       President ANGELINA COUNTYWIDE                           Charles "Buddy" Roemer                PRECINCT 21                                            01 
01070010024000001REP       President ANGELINA COUNTYWIDE                           Charles "Buddy" Roemer                PRECINCT 22                                            01 
01070010025000000REP       President ANGELINA COUNTYWIDE                           Charles "Buddy" Roemer                PRECINCT 23                                            01 
01070010026000005REP       President ANGELINA COUNTYWIDE                           Charles "Buddy" Roemer                PRECINCT 24                                            01 
01070010027000006REP       President ANGELINA COUNTYWIDE                           Charles "Buddy" Roemer                PRECINCT 25                                            01 
01070010028000003REP       President ANGELINA COUNTYWIDE                           Charles "Buddy" Roemer                PRECINCT 26                                            01 
01070010029000001REP       President ANGELINA COUNTYWIDE                           Charles "Buddy" Roemer                PRECINCT 27                                            01 
01070010030000004REP       President ANGELINA COUNTYWIDE                           Charles "Buddy" Roemer                PRECINCT 28                                            01 
01070010031000004REP       President ANGELINA COUNTYWIDE                           Charles "Buddy" Roemer                PRECINCT 29                                            01 
01070010032000001REP       President ANGELINA COUNTYWIDE                           Charles "Buddy" Roemer                PRECINCT 30                                            01 
01070010033000004REP       President ANGELINA COUNTYWIDE                           Charles "Buddy" Roemer                PRECINCT 31                                            01 
01070010034000000REP       President ANGELINA COUNTYWIDE                           Charles "Buddy" Roemer                PRECINCT 32                                            01 
01070010035000003REP       President ANGELINA COUNTYWIDE                           Charles "Buddy" Roemer                PRECINCT 33                                            01 
01070010036000000REP       President ANGELINA COUNTYWIDE                           Charles "Buddy" Roemer                PRECINCT 34                                            01 
01070010037000002REP       President ANGELINA COUNTYWIDE                           Charles "Buddy" Roemer                PRECINCT 35                                            01 
01070010038000000REP       President ANGELINA COUNTYWIDE                           Charles "Buddy" Roemer                PRECINCT 36                                            01 
01070010039000002REP       President ANGELINA COUNTYWIDE                           Charles "Buddy" Roemer                PRECINCT 37                                            01 
01070010040000001REP       President ANGELINA COUNTYWIDE                           Charles "Buddy" Roemer                PRECINCT 38                                            01 
01070010041000002REP       President ANGELINA COUNTYWIDE                           Charles "Buddy" Roemer                PRECINCT 39                                            01 
01070010042000000REP       President ANGELINA COUNTYWIDE                           Charles "Buddy" Roemer                PRECINCT 40                                            01 
01070020001000000REP       President ANGELINA COUNTYWIDE                           Jon Huntsman                          PRECINCT 1                                             01 
01070020002000001REP       President ANGELINA COUNTYWIDE                           Jon Huntsman                          PRECINCT 2                                             01 
01070020003000004REP       President ANGELINA COUNTYWIDE                           Jon Huntsman                          PRECINCT 3                                             01 
01070020004000001REP       President ANGELINA COUNTYWIDE                           Jon Huntsman                          PRECINCT 4                                             01 
01070020005000001REP       President ANGELINA COUNTYWIDE                           Jon Huntsman                          PRECINCT 5                                             01 
01070020006000001REP       President ANGELINA COUNTYWIDE                           Jon Huntsman                          PRECINCT 6                                             01 
01070020007000002REP       President ANGELINA COUNTYWIDE                           Jon Huntsman                          PRECINCT 7                                             01 
01070020008000000REP       President ANGELINA COUNTYWIDE                           Jon Huntsman                          PRECINCT 8                                             01 
01070020009000000REP       President ANGELINA COUNTYWIDE                           Jon Huntsman                          PRECINCT 9                                             01 
01070020010000003REP       President ANGELINA COUNTYWIDE                           Jon Huntsman                          PRECINCT 10                                            01 
01070020011000003REP       President ANGELINA COUNTYWIDE                           Jon Huntsman                          PRECINCT 11                                            01 
01070020012000003REP       President ANGELINA COUNTYWIDE                           Jon Huntsman                          PRECINCT 11B                                           01 
01070020013000001REP       President ANGELINA COUNTYWIDE                           Jon Huntsman                          PRECINCT 12                                            01 
01070020014000001REP       President ANGELINA COUNTYWIDE                           Jon Huntsman                          PRECINCT 13                                            01 
01070020015000003REP       President ANGELINA COUNTYWIDE                           Jon Huntsman                          PRECINCT 14                                            01 
01070020016000001REP       President ANGELINA COUNTYWIDE                           Jon Huntsman                          PRECINCT 15                                            01 
01070020017000005REP       President ANGELINA COUNTYWIDE                           Jon Huntsman                          PRECINCT 16                                            01 
01070020018000002REP       President ANGELINA COUNTYWIDE                           Jon Huntsman                          PRECINCT 17                                            01 
01070020019000001REP       President ANGELINA COUNTYWIDE                           Jon Huntsman                          PRECINCT 17B                                           01 
01070020020000000REP       President ANGELINA COUNTYWIDE                           Jon Huntsman                          PRECINCT 18                                            01 
01070020021000004REP       President ANGELINA COUNTYWIDE                           Jon Huntsman                          PRECINCT 19                                            01 
01070020022000002REP       President ANGELINA COUNTYWIDE                           Jon Huntsman                          PRECINCT 20                                            01 
01070020023000001REP       President ANGELINA COUNTYWIDE                           Jon Huntsman                          PRECINCT 21                                            01 
01070020024000000REP       President ANGELINA COUNTYWIDE                           Jon Huntsman                          PRECINCT 22                                            01 
01070020025000000REP       President ANGELINA COUNTYWIDE                           Jon Huntsman                          PRECINCT 23                                            01 
01070020026000000REP       President ANGELINA COUNTYWIDE                           Jon Huntsman                          PRECINCT 24                                            01 
01070020027000002REP       President ANGELINA COUNTYWIDE                           Jon Huntsman                          PRECINCT 25                                            01 
01070020028000001REP       President ANGELINA COUNTYWIDE                           Jon Huntsman                          PRECINCT 26                                            01 
01070020029000000REP       President ANGELINA COUNTYWIDE                           Jon Huntsman                          PRECINCT 27                                            01 
01070020030000000REP       President ANGELINA COUNTYWIDE                           Jon Huntsman                          PRECINCT 28                                            01 
01070020031000002REP       President ANGELINA COUNTYWIDE                           Jon Huntsman                          PRECINCT 29                                            01 
01070020032000002REP       President ANGELINA COUNTYWIDE                           Jon Huntsman                          PRECINCT 30                                            01 
01070020033000001REP       President ANGELINA COUNTYWIDE                           Jon Huntsman                          PRECINCT 31                                            01 
01070020034000000REP       President ANGELINA COUNTYWIDE                           Jon Huntsman                          PRECINCT 32                                            01 
01070020035000002REP       President ANGELINA COUNTYWIDE                           Jon Huntsman                          PRECINCT 33                                            01 
01070020036000002REP       President ANGELINA COUNTYWIDE                           Jon Huntsman                          PRECINCT 34                                            01 
01070020037000001REP       President ANGELINA COUNTYWIDE                           Jon Huntsman                          PRECINCT 35                                            01 
01070020038000000REP       President ANGELINA COUNTYWIDE                           Jon Huntsman                          PRECINCT 36                                            01 
01070020039000001REP       President ANGELINA COUNTYWIDE                           Jon Huntsman                          PRECINCT 37                                            01 
01070020040000000REP       President ANGELINA COUNTYWIDE                           Jon Huntsman                          PRECINCT 38                                            01 
01070020041000000REP       President ANGELINA COUNTYWIDE                           Jon Huntsman                          PRECINCT 39                                            01 
01070020042000004REP       President ANGELINA COUNTYWIDE                           Jon Huntsman                          PRECINCT 40                                            01 
01070030001000000REP       President ANGELINA COUNTYWIDE                           John Davis                            PRECINCT 1                                             01 
01070030002000003REP       President ANGELINA COUNTYWIDE                           John Davis                            PRECINCT 2                                             01 
01070030003000002REP       President ANGELINA COUNTYWIDE                           John Davis                            PRECINCT 3                                             01 
01070030004000001REP       President ANGELINA COUNTYWIDE                           John Davis                            PRECINCT 4                                             01 
01070030005000004REP       President ANGELINA COUNTYWIDE                           John Davis                            PRECINCT 5                                             01 
01070030006000001REP       President ANGELINA COUNTYWIDE                           John Davis                            PRECINCT 6                                             01 
01070030007000001REP       President ANGELINA COUNTYWIDE                           John Davis                            PRECINCT 7                                             01 
01070030008000001REP       President ANGELINA COUNTYWIDE                           John Davis                            PRECINCT 8                                             01 
01070030009000000REP       President ANGELINA COUNTYWIDE                           John Davis                            PRECINCT 9                                             01 
01070030010000002REP       President ANGELINA COUNTYWIDE                           John Davis                            PRECINCT 10                                            01 
01070030011000003REP       President ANGELINA COUNTYWIDE                           John Davis                            PRECINCT 11                                            01 
01070030012000003REP       President ANGELINA COUNTYWIDE                           John Davis                            PRECINCT 11B                                           01 
01070030013000000REP       President ANGELINA COUNTYWIDE                           John Davis                            PRECINCT 12                                            01 
01070030014000000REP       President ANGELINA COUNTYWIDE                           John Davis                            PRECINCT 13                                            01 
01070030015000001REP       President ANGELINA COUNTYWIDE                           John Davis                            PRECINCT 14                                            01 
01070030016000001REP       President ANGELINA COUNTYWIDE                           John Davis                            PRECINCT 15                                            01 
01070030017000006REP       President ANGELINA COUNTYWIDE                           John Davis                            PRECINCT 16                                            01 
01070030018000000REP       President ANGELINA COUNTYWIDE                           John Davis                            PRECINCT 17                                            01 
01070030019000004REP       President ANGELINA COUNTYWIDE                           John Davis                            PRECINCT 17B                                           01 
01070030020000000REP       President ANGELINA COUNTYWIDE                           John Davis                            PRECINCT 18                                            01 
01070030021000000REP       President ANGELINA COUNTYWIDE                           John Davis                            PRECINCT 19                                            01 
01070030022000000REP       President ANGELINA COUNTYWIDE                           John Davis                            PRECINCT 20                                            01 
01070030023000001REP       President ANGELINA COUNTYWIDE                           John Davis                            PRECINCT 21                                            01 
01070030024000002REP       President ANGELINA COUNTYWIDE                           John Davis                            PRECINCT 22                                            01 
01070030025000002REP       President ANGELINA COUNTYWIDE                           John Davis                            PRECINCT 23                                            01 
01070030026000001REP       President ANGELINA COUNTYWIDE                           John Davis                            PRECINCT 24                                            01 
01070030027000009REP       President ANGELINA COUNTYWIDE                           John Davis                            PRECINCT 25                                            01 
01070030028000001REP       President ANGELINA COUNTYWIDE                           John Davis                            PRECINCT 26                                            01 
01070030029000000REP       President ANGELINA COUNTYWIDE                           John Davis                            PRECINCT 27                                            01 
01070030030000000REP       President ANGELINA COUNTYWIDE                           John Davis                            PRECINCT 28                                            01 
01070030031000001REP       President ANGELINA COUNTYWIDE                           John Davis                            PRECINCT 29                                            01 
01070030032000000REP       President ANGELINA COUNTYWIDE                           John Davis                            PRECINCT 30                                            01 
01070030033000001REP       President ANGELINA COUNTYWIDE                           John Davis                            PRECINCT 31                                            01 
01070030034000000REP       President ANGELINA COUNTYWIDE                           John Davis                            PRECINCT 32                                            01 
01070030035000002REP       President ANGELINA COUNTYWIDE                           John Davis                            PRECINCT 33                                            01 
01070030036000002REP       President ANGELINA COUNTYWIDE                           John Davis                            PRECINCT 34                                            01 
01070030037000000REP       President ANGELINA COUNTYWIDE                           John Davis                            PRECINCT 35                                            01 
01070030038000000REP       President ANGELINA COUNTYWIDE                           John Davis                            PRECINCT 36                                            01 
01070030039000000REP       President ANGELINA COUNTYWIDE                           John Davis                            PRECINCT 37                                            01 
01070030040000000REP       President ANGELINA COUNTYWIDE                           John Davis                            PRECINCT 38                                            01 
01070030041000000REP       President ANGELINA COUNTYWIDE                           John Davis                            PRECINCT 39                                            01 
01070030042000000REP       President ANGELINA COUNTYWIDE                           John Davis                            PRECINCT 40                                            01 
01070040001000003REP       President ANGELINA COUNTYWIDE                           Rick Santorum                         PRECINCT 1                                             01 
01070040002000012REP       President ANGELINA COUNTYWIDE                           Rick Santorum                         PRECINCT 2                                             01 
01070040003000027REP       President ANGELINA COUNTYWIDE                           Rick Santorum                         PRECINCT 3                                             01 
01070040004000015REP       President ANGELINA COUNTYWIDE                           Rick Santorum                         PRECINCT 4                                             01 
01070040005000026REP       President ANGELINA COUNTYWIDE                           Rick Santorum                         PRECINCT 5                                             01 
01070040006000005REP       President ANGELINA COUNTYWIDE                           Rick Santorum                         PRECINCT 6                                             01 
01070040007000025REP       President ANGELINA COUNTYWIDE                           Rick Santorum                         PRECINCT 7                                             01 
01070040008000025REP       President ANGELINA COUNTYWIDE                           Rick Santorum                         PRECINCT 8                                             01 
01070040009000002REP       President ANGELINA COUNTYWIDE                           Rick Santorum                         PRECINCT 9                                             01 
01070040010000012REP       President ANGELINA COUNTYWIDE                           Rick Santorum                         PRECINCT 10                                            01 
01070040011000052REP       President ANGELINA COUNTYWIDE                           Rick Santorum                         PRECINCT 11                                            01 
01070040012000014REP       President ANGELINA COUNTYWIDE                           Rick Santorum                         PRECINCT 11B                                           01 
01070040013000021REP       President ANGELINA COUNTYWIDE                           Rick Santorum                         PRECINCT 12                                            01 
01070040014000015REP       President ANGELINA COUNTYWIDE                           Rick Santorum                         PRECINCT 13                                            01 
01070040015000042REP       President ANGELINA COUNTYWIDE                           Rick Santorum                         PRECINCT 14                                            01 
01070040016000012REP       President ANGELINA COUNTYWIDE                           Rick Santorum                         PRECINCT 15                                            01 
01070040017000027REP       President ANGELINA COUNTYWIDE                           Rick Santorum                         PRECINCT 16                                            01 
01070040018000033REP       President ANGELINA COUNTYWIDE                           Rick Santorum                         PRECINCT 17                                            01 
01070040019000007REP       President ANGELINA COUNTYWIDE                           Rick Santorum                         PRECINCT 17B                                           01 
01070040020000010REP       President ANGELINA COUNTYWIDE                           Rick Santorum                         PRECINCT 18                                            01 
01070040021000028REP       President ANGELINA COUNTYWIDE                           Rick Santorum                         PRECINCT 19                                            01 
01070040022000010REP       President ANGELINA COUNTYWIDE                           Rick Santorum                         PRECINCT 20                                            01 
01070040023000034REP       President ANGELINA COUNTYWIDE                           Rick Santorum                         PRECINCT 21                                            01 
01070040024000029REP       President ANGELINA COUNTYWIDE                           Rick Santorum                         PRECINCT 22                                            01 
01070040025000010REP       President ANGELINA COUNTYWIDE                           Rick Santorum                         PRECINCT 23                                            01 
01070040026000066REP       President ANGELINA COUNTYWIDE                           Rick Santorum                         PRECINCT 24                                            01 
01070040027000047REP       President ANGELINA COUNTYWIDE                           Rick Santorum                         PRECINCT 25                                            01 
01070040028000033REP       President ANGELINA COUNTYWIDE                           Rick Santorum                         PRECINCT 26                                            01 
01070040029000013REP       President ANGELINA COUNTYWIDE                           Rick Santorum                         PRECINCT 27                                            01 
01070040030000039REP       President ANGELINA COUNTYWIDE                           Rick Santorum                         PRECINCT 28                                            01 
01070040031000023REP       President ANGELINA COUNTYWIDE                           Rick Santorum                         PRECINCT 29                                            01 
01070040032000021REP       President ANGELINA COUNTYWIDE                           Rick Santorum                         PRECINCT 30                                            01 
01070040033000011REP       President ANGELINA COUNTYWIDE                           Rick Santorum                         PRECINCT 31                                            01 
01070040034000003REP       President ANGELINA COUNTYWIDE                           Rick Santorum                         PRECINCT 32                                            01 
01070040035000020REP       President ANGELINA COUNTYWIDE                           Rick Santorum                         PRECINCT 33                                            01 
01070040036000024REP       President ANGELINA COUNTYWIDE                           Rick Santorum                         PRECINCT 34                                            01 
01070040037000050REP       President ANGELINA COUNTYWIDE                           Rick Santorum                         PRECINCT 35                                            01 
01070040038000000REP       President ANGELINA COUNTYWIDE                           Rick Santorum                         PRECINCT 36                                            01 
01070040039000007REP       President ANGELINA COUNTYWIDE                           Rick Santorum                         PRECINCT 37                                            01 
01070040040000008REP       President ANGELINA COUNTYWIDE                           Rick Santorum                         PRECINCT 38                                            01 
01070040041000010REP       President ANGELINA COUNTYWIDE                           Rick Santorum                         PRECINCT 39                                            01 
01070040042000013REP       President ANGELINA COUNTYWIDE                           Rick Santorum                         PRECINCT 40                                            01 
01070050001000063REP       President ANGELINA COUNTYWIDE                           Mitt Romney                           PRECINCT 1                                             01 
01070050002000109REP       President ANGELINA COUNTYWIDE                           Mitt Romney                           PRECINCT 2                                             01 
01070050003000240REP       President ANGELINA COUNTYWIDE                           Mitt Romney                           PRECINCT 3                                             01 
01070050004000114REP       President ANGELINA COUNTYWIDE                           Mitt Romney                           PRECINCT 4                                             01 
01070050005000207REP       President ANGELINA COUNTYWIDE                           Mitt Romney                           PRECINCT 5                                             01 
01070050006000074REP       President ANGELINA COUNTYWIDE                           Mitt Romney                           PRECINCT 6                                             01 
01070050007000176REP       President ANGELINA COUNTYWIDE                           Mitt Romney                           PRECINCT 7                                             01 
01070050008000270REP       President ANGELINA COUNTYWIDE                           Mitt Romney                           PRECINCT 8                                             01 
01070050009000054REP       President ANGELINA COUNTYWIDE                           Mitt Romney                           PRECINCT 9                                             01 
01070050010000135REP       President ANGELINA COUNTYWIDE                           Mitt Romney                           PRECINCT 10                                            01 
01070050011000343REP       President ANGELINA COUNTYWIDE                           Mitt Romney                           PRECINCT 11                                            01 
01070050012000141REP       President ANGELINA COUNTYWIDE                           Mitt Romney                           PRECINCT 11B                                           01 
01070050013000162REP       President ANGELINA COUNTYWIDE                           Mitt Romney                           PRECINCT 12                                            01 
01070050014000107REP       President ANGELINA COUNTYWIDE                           Mitt Romney                           PRECINCT 13                                            01 
01070050015000361REP       President ANGELINA COUNTYWIDE                           Mitt Romney                           PRECINCT 14                                            01 
01070050016000084REP       President ANGELINA COUNTYWIDE                           Mitt Romney                           PRECINCT 15                                            01 
01070050017000193REP       President ANGELINA COUNTYWIDE                           Mitt Romney                           PRECINCT 16                                            01 
01070050018000233REP       President ANGELINA COUNTYWIDE                           Mitt Romney                           PRECINCT 17                                            01 
01070050019000037REP       President ANGELINA COUNTYWIDE                           Mitt Romney                           PRECINCT 17B                                           01 
01070050020000094REP       President ANGELINA COUNTYWIDE                           Mitt Romney                           PRECINCT 18                                            01 
01070050021000380REP       President ANGELINA COUNTYWIDE                           Mitt Romney                           PRECINCT 19                                            01 
01070050022000036REP       President ANGELINA COUNTYWIDE                           Mitt Romney                           PRECINCT 20                                            01 
01070050023000191REP       President ANGELINA COUNTYWIDE                           Mitt Romney                           PRECINCT 21                                            01 
01070050024000169REP       President ANGELINA COUNTYWIDE                           Mitt Romney                           PRECINCT 22                                            01 
01070050025000090REP       President ANGELINA COUNTYWIDE                           Mitt Romney                           PRECINCT 23                                            01 
01070050026000419REP       President ANGELINA COUNTYWIDE                           Mitt Romney                           PRECINCT 24                                            01 
01070050027000372REP       President ANGELINA COUNTYWIDE                           Mitt Romney                           PRECINCT 25                                            01 
01070050028000367REP       President ANGELINA COUNTYWIDE                           Mitt Romney                           PRECINCT 26                                            01 
01070050029000079REP       President ANGELINA COUNTYWIDE                           Mitt Romney                           PRECINCT 27                                            01 
01070050030000187REP       President ANGELINA COUNTYWIDE                           Mitt Romney                           PRECINCT 28                                            01 
01070050031000233REP       President ANGELINA COUNTYWIDE                           Mitt Romney                           PRECINCT 29                                            01 
01070050032000141REP       President ANGELINA COUNTYWIDE                           Mitt Romney                           PRECINCT 30                                            01 
01070050033000052REP       President ANGELINA COUNTYWIDE                           Mitt Romney                           PRECINCT 31                                            01 
01070050034000030REP       President ANGELINA COUNTYWIDE                           Mitt Romney                           PRECINCT 32                                            01 
01070050035000194REP       President ANGELINA COUNTYWIDE                           Mitt Romney                           PRECINCT 33                                            01 
01070050036000449REP       President ANGELINA COUNTYWIDE                           Mitt Romney                           PRECINCT 34                                            01 
01070050037000356REP       President ANGELINA COUNTYWIDE                           Mitt Romney                           PRECINCT 35                                            01 
01070050038000001REP       President ANGELINA COUNTYWIDE                           Mitt Romney                           PRECINCT 36                                            01 
01070050039000076REP       President ANGELINA COUNTYWIDE                           Mitt Romney                           PRECINCT 37                                            01 
01070050040000072REP       President ANGELINA COUNTYWIDE                           Mitt Romney                           PRECINCT 38                                            01 
01070050041000107REP       President ANGELINA COUNTYWIDE                           Mitt Romney                           PRECINCT 39                                            01 
01070050042000119REP       President ANGELINA COUNTYWIDE                           Mitt Romney                           PRECINCT 40                                            01 
01070060001000001REP       President ANGELINA COUNTYWIDE                           Michele Bachmann                      PRECINCT 1                                             01 
01070060002000001REP       President ANGELINA COUNTYWIDE                           Michele Bachmann                      PRECINCT 2                                             01 
01070060003000006REP       President ANGELINA COUNTYWIDE                           Michele Bachmann                      PRECINCT 3                                             01 
01070060004000000REP       President ANGELINA COUNTYWIDE                           Michele Bachmann                      PRECINCT 4                                             01 
01070060005000003REP       President ANGELINA COUNTYWIDE                           Michele Bachmann                      PRECINCT 5                                             01 
01070060006000000REP       President ANGELINA COUNTYWIDE                           Michele Bachmann                      PRECINCT 6                                             01 
01070060007000003REP       President ANGELINA COUNTYWIDE                           Michele Bachmann                      PRECINCT 7                                             01 
01070060008000001REP       President ANGELINA COUNTYWIDE                           Michele Bachmann                      PRECINCT 8                                             01 
01070060009000001REP       President ANGELINA COUNTYWIDE                           Michele Bachmann                      PRECINCT 9                                             01 
01070060010000002REP       President ANGELINA COUNTYWIDE                           Michele Bachmann                      PRECINCT 10                                            01 
01070060011000003REP       President ANGELINA COUNTYWIDE                           Michele Bachmann                      PRECINCT 11                                            01 
01070060012000003REP       President ANGELINA COUNTYWIDE                           Michele Bachmann                      PRECINCT 11B                                           01 
01070060013000001REP       President ANGELINA COUNTYWIDE                           Michele Bachmann                      PRECINCT 12                                            01 
01070060014000001REP       President ANGELINA COUNTYWIDE                           Michele Bachmann                      PRECINCT 13                                            01 
01070060015000001REP       President ANGELINA COUNTYWIDE                           Michele Bachmann                      PRECINCT 14                                            01 
01070060016000001REP       President ANGELINA COUNTYWIDE                           Michele Bachmann                      PRECINCT 15                                            01 
01070060017000003REP       President ANGELINA COUNTYWIDE                           Michele Bachmann                      PRECINCT 16                                            01 
01070060018000003REP       President ANGELINA COUNTYWIDE                           Michele Bachmann                      PRECINCT 17                                            01 
01070060019000001REP       President ANGELINA COUNTYWIDE                           Michele Bachmann                      PRECINCT 17B                                           01 
01070060020000001REP       President ANGELINA COUNTYWIDE                           Michele Bachmann                      PRECINCT 18                                            01 
01070060021000001REP       President ANGELINA COUNTYWIDE                           Michele Bachmann                      PRECINCT 19                                            01 
01070060022000000REP       President ANGELINA COUNTYWIDE                           Michele Bachmann                      PRECINCT 20                                            01 
01070060023000004REP       President ANGELINA COUNTYWIDE                           Michele Bachmann                      PRECINCT 21                                            01 
01070060024000002REP       President ANGELINA COUNTYWIDE                           Michele Bachmann                      PRECINCT 22                                            01 
01070060025000002REP       President ANGELINA COUNTYWIDE                           Michele Bachmann                      PRECINCT 23                                            01 
01070060026000006REP       President ANGELINA COUNTYWIDE                           Michele Bachmann                      PRECINCT 24                                            01 
01070060027000005REP       President ANGELINA COUNTYWIDE                           Michele Bachmann                      PRECINCT 25                                            01 
01070060028000008REP       President ANGELINA COUNTYWIDE                           Michele Bachmann                      PRECINCT 26                                            01 
01070060029000002REP       President ANGELINA COUNTYWIDE                           Michele Bachmann                      PRECINCT 27                                            01 
01070060030000004REP       President ANGELINA COUNTYWIDE                           Michele Bachmann                      PRECINCT 28                                            01 
01070060031000006REP       President ANGELINA COUNTYWIDE                           Michele Bachmann                      PRECINCT 29                                            01 
01070060032000002REP       President ANGELINA COUNTYWIDE                           Michele Bachmann                      PRECINCT 30                                            01 
01070060033000000REP       President ANGELINA COUNTYWIDE                           Michele Bachmann                      PRECINCT 31                                            01 
01070060034000000REP       President ANGELINA COUNTYWIDE                           Michele Bachmann                      PRECINCT 32                                            01 
01070060035000008REP       President ANGELINA COUNTYWIDE                           Michele Bachmann                      PRECINCT 33                                            01 
01070060036000004REP       President ANGELINA COUNTYWIDE                           Michele Bachmann                      PRECINCT 34                                            01 
01070060037000002REP       President ANGELINA COUNTYWIDE                           Michele Bachmann                      PRECINCT 35                                            01 
01070060038000000REP       President ANGELINA COUNTYWIDE                           Michele Bachmann                      PRECINCT 36                                            01 
01070060039000002REP       President ANGELINA COUNTYWIDE                           Michele Bachmann                      PRECINCT 37                                            01 
01070060040000001REP       President ANGELINA COUNTYWIDE                           Michele Bachmann                      PRECINCT 38                                            01 
01070060041000000REP       President ANGELINA COUNTYWIDE                           Michele Bachmann                      PRECINCT 39                                            01 
01070060042000001REP       President ANGELINA COUNTYWIDE                           Michele Bachmann                      PRECINCT 40                                            01 
01070070001000007REP       President ANGELINA COUNTYWIDE                           Ron Paul                              PRECINCT 1                                             01 
01070070002000011REP       President ANGELINA COUNTYWIDE                           Ron Paul                              PRECINCT 2                                             01 
01070070003000041REP       President ANGELINA COUNTYWIDE                           Ron Paul                              PRECINCT 3                                             01 
01070070004000019REP       President ANGELINA COUNTYWIDE                           Ron Paul                              PRECINCT 4                                             01 
01070070005000025REP       President ANGELINA COUNTYWIDE                           Ron Paul                              PRECINCT 5                                             01 
01070070006000018REP       President ANGELINA COUNTYWIDE                           Ron Paul                              PRECINCT 6                                             01 
01070070007000025REP       President ANGELINA COUNTYWIDE                           Ron Paul                              PRECINCT 7                                             01 
01070070008000035REP       President ANGELINA COUNTYWIDE                           Ron Paul                              PRECINCT 8                                             01 
01070070009000002REP       President ANGELINA COUNTYWIDE                           Ron Paul                              PRECINCT 9                                             01 
01070070010000021REP       President ANGELINA COUNTYWIDE                           Ron Paul                              PRECINCT 10                                            01 
01070070011000053REP       President ANGELINA COUNTYWIDE                           Ron Paul                              PRECINCT 11                                            01 
01070070012000018REP       President ANGELINA COUNTYWIDE                           Ron Paul                              PRECINCT 11B                                           01 
01070070013000030REP       President ANGELINA COUNTYWIDE                           Ron Paul                              PRECINCT 12                                            01 
01070070014000019REP       President ANGELINA COUNTYWIDE                           Ron Paul                              PRECINCT 13                                            01 
01070070015000048REP       President ANGELINA COUNTYWIDE                           Ron Paul                              PRECINCT 14                                            01 
01070070016000010REP       President ANGELINA COUNTYWIDE                           Ron Paul                              PRECINCT 15                                            01 
01070070017000039REP       President ANGELINA COUNTYWIDE                           Ron Paul                              PRECINCT 16                                            01 
01070070018000030REP       President ANGELINA COUNTYWIDE                           Ron Paul                              PRECINCT 17                                            01 
01070070019000009REP       President ANGELINA COUNTYWIDE                           Ron Paul                              PRECINCT 17B                                           01 
01070070020000015REP       President ANGELINA COUNTYWIDE                           Ron Paul                              PRECINCT 18                                            01 
01070070021000043REP       President ANGELINA COUNTYWIDE                           Ron Paul                              PRECINCT 19                                            01 
01070070022000008REP       President ANGELINA COUNTYWIDE                           Ron Paul                              PRECINCT 20                                            01 
01070070023000032REP       President ANGELINA COUNTYWIDE                           Ron Paul                              PRECINCT 21                                            01 
01070070024000017REP       President ANGELINA COUNTYWIDE                           Ron Paul                              PRECINCT 22                                            01 
01070070025000012REP       President ANGELINA COUNTYWIDE                           Ron Paul                              PRECINCT 23                                            01 
01070070026000064REP       President ANGELINA COUNTYWIDE                           Ron Paul                              PRECINCT 24                                            01 
01070070027000047REP       President ANGELINA COUNTYWIDE                           Ron Paul                              PRECINCT 25                                            01 
01070070028000045REP       President ANGELINA COUNTYWIDE                           Ron Paul                              PRECINCT 26                                            01 
01070070029000008REP       President ANGELINA COUNTYWIDE                           Ron Paul                              PRECINCT 27                                            01 
01070070030000038REP       President ANGELINA COUNTYWIDE                           Ron Paul                              PRECINCT 28                                            01 
01070070031000030REP       President ANGELINA COUNTYWIDE                           Ron Paul                              PRECINCT 29                                            01 
01070070032000013REP       President ANGELINA COUNTYWIDE                           Ron Paul                              PRECINCT 30                                            01 
01070070033000004REP       President ANGELINA COUNTYWIDE                           Ron Paul                              PRECINCT 31                                            01 
01070070034000002REP       President ANGELINA COUNTYWIDE                           Ron Paul                              PRECINCT 32                                            01 
01070070035000038REP       President ANGELINA COUNTYWIDE                           Ron Paul                              PRECINCT 33                                            01 
01070070036000059REP       President ANGELINA COUNTYWIDE                           Ron Paul                              PRECINCT 34                                            01 
01070070037000045REP       President ANGELINA COUNTYWIDE                           Ron Paul                              PRECINCT 35                                            01 
01070070038000002REP       President ANGELINA COUNTYWIDE                           Ron Paul                              PRECINCT 36                                            01 
01070070039000018REP       President ANGELINA COUNTYWIDE                           Ron Paul                              PRECINCT 37                                            01 
01070070040000010REP       President ANGELINA COUNTYWIDE                           Ron Paul                              PRECINCT 38                                            01 
01070070041000011REP       President ANGELINA COUNTYWIDE                           Ron Paul                              PRECINCT 39                                            01 
01070070042000008REP       President ANGELINA COUNTYWIDE                           Ron Paul                              PRECINCT 40                                            01 
01070080001000005REP       President ANGELINA COUNTYWIDE                           Newt Gingrich                         PRECINCT 1                                             01 
01070080002000007REP       President ANGELINA COUNTYWIDE                           Newt Gingrich                         PRECINCT 2                                             01 
01070080003000023REP       President ANGELINA COUNTYWIDE                           Newt Gingrich                         PRECINCT 3                                             01 
01070080004000010REP       President ANGELINA COUNTYWIDE                           Newt Gingrich                         PRECINCT 4                                             01 
01070080005000014REP       President ANGELINA COUNTYWIDE                           Newt Gingrich                         PRECINCT 5                                             01 
01070080006000003REP       President ANGELINA COUNTYWIDE                           Newt Gingrich                         PRECINCT 6                                             01 
01070080007000009REP       President ANGELINA COUNTYWIDE                           Newt Gingrich                         PRECINCT 7                                             01 
01070080008000012REP       President ANGELINA COUNTYWIDE                           Newt Gingrich                         PRECINCT 8                                             01 
01070080009000001REP       President ANGELINA COUNTYWIDE                           Newt Gingrich                         PRECINCT 9                                             01 
01070080010000011REP       President ANGELINA COUNTYWIDE                           Newt Gingrich                         PRECINCT 10                                            01 
01070080011000023REP       President ANGELINA COUNTYWIDE                           Newt Gingrich                         PRECINCT 11                                            01 
01070080012000015REP       President ANGELINA COUNTYWIDE                           Newt Gingrich                         PRECINCT 11B                                           01 
01070080013000010REP       President ANGELINA COUNTYWIDE                           Newt Gingrich                         PRECINCT 12                                            01 
01070080014000005REP       President ANGELINA COUNTYWIDE                           Newt Gingrich                         PRECINCT 13                                            01 
01070080015000012REP       President ANGELINA COUNTYWIDE                           Newt Gingrich                         PRECINCT 14                                            01 
01070080016000008REP       President ANGELINA COUNTYWIDE                           Newt Gingrich                         PRECINCT 15                                            01 
01070080017000014REP       President ANGELINA COUNTYWIDE                           Newt Gingrich                         PRECINCT 16                                            01 
01070080018000007REP       President ANGELINA COUNTYWIDE                           Newt Gingrich                         PRECINCT 17                                            01 
01070080019000002REP       President ANGELINA COUNTYWIDE                           Newt Gingrich                         PRECINCT 17B                                           01 
01070080020000008REP       President ANGELINA COUNTYWIDE                           Newt Gingrich                         PRECINCT 18                                            01 
01070080021000009REP       President ANGELINA COUNTYWIDE                           Newt Gingrich                         PRECINCT 19                                            01 
01070080022000004REP       President ANGELINA COUNTYWIDE                           Newt Gingrich                         PRECINCT 20                                            01 
01070080023000016REP       President ANGELINA COUNTYWIDE                           Newt Gingrich                         PRECINCT 21                                            01 
01070080024000015REP       President ANGELINA COUNTYWIDE                           Newt Gingrich                         PRECINCT 22                                            01 
01070080025000002REP       President ANGELINA COUNTYWIDE                           Newt Gingrich                         PRECINCT 23                                            01 
01070080026000022REP       President ANGELINA COUNTYWIDE                           Newt Gingrich                         PRECINCT 24                                            01 
01070080027000017REP       President ANGELINA COUNTYWIDE                           Newt Gingrich                         PRECINCT 25                                            01 
01070080028000011REP       President ANGELINA COUNTYWIDE                           Newt Gingrich                         PRECINCT 26                                            01 
01070080029000005REP       President ANGELINA COUNTYWIDE                           Newt Gingrich                         PRECINCT 27                                            01 
01070080030000015REP       President ANGELINA COUNTYWIDE                           Newt Gingrich                         PRECINCT 28                                            01 
01070080031000018REP       President ANGELINA COUNTYWIDE                           Newt Gingrich                         PRECINCT 29                                            01 
01070080032000009REP       President ANGELINA COUNTYWIDE                           Newt Gingrich                         PRECINCT 30                                            01 
01070080033000002REP       President ANGELINA COUNTYWIDE                           Newt Gingrich                         PRECINCT 31                                            01 
01070080034000003REP       President ANGELINA COUNTYWIDE                           Newt Gingrich                         PRECINCT 32                                            01 
01070080035000012REP       President ANGELINA COUNTYWIDE                           Newt Gingrich                         PRECINCT 33                                            01 
01070080036000026REP       President ANGELINA COUNTYWIDE                           Newt Gingrich                         PRECINCT 34                                            01 
01070080037000020REP       President ANGELINA COUNTYWIDE                           Newt Gingrich                         PRECINCT 35                                            01 
01070080038000000REP       President ANGELINA COUNTYWIDE                           Newt Gingrich                         PRECINCT 36                                            01 
01070080039000006REP       President ANGELINA COUNTYWIDE                           Newt Gingrich                         PRECINCT 37                                            01 
01070080040000008REP       President ANGELINA COUNTYWIDE                           Newt Gingrich                         PRECINCT 38                                            01 
01070080041000007REP       President ANGELINA COUNTYWIDE                           Newt Gingrich                         PRECINCT 39                                            01 
01070080042000008REP       President ANGELINA COUNTYWIDE                           Newt Gingrich                         PRECINCT 40                                            01 
01070090001000006REP       President ANGELINA COUNTYWIDE                           Uncommitted                           PRECINCT 1                                             01 
01070090002000017REP       President ANGELINA COUNTYWIDE                           Uncommitted                           PRECINCT 2                                             01 
01070090003000036REP       President ANGELINA COUNTYWIDE                           Uncommitted                           PRECINCT 3                                             01 
01070090004000017REP       President ANGELINA COUNTYWIDE                           Uncommitted                           PRECINCT 4                                             01 
01070090005000018REP       President ANGELINA COUNTYWIDE                           Uncommitted                           PRECINCT 5                                             01 
01070090006000009REP       President ANGELINA COUNTYWIDE                           Uncommitted                           PRECINCT 6                                             01 
