01010010001000000000000000000000000000000000000          REGISTERED VOTERS - TOTAL                               REGISTERED VOTERS - TOTAL             POLL 1                                                 00 
01010010003000000000000000000000000000000000000          REGISTERED VOTERS - TOTAL                               REGISTERED VOTERS - TOTAL             POLL 2                                                 00 
01010010005000000000000000000000000000000000000          REGISTERED VOTERS - TOTAL                               REGISTERED VOTERS - TOTAL             POLL 3                                                 00 
01010010007000000000000000000000000000000000000          REGISTERED VOTERS - TOTAL                               REGISTERED VOTERS - TOTAL             POLL 4                                                 00 
01010010010000000000000000000000000000000000000          REGISTERED VOTERS - TOTAL                               REGISTERED VOTERS - TOTAL             POLL 5                                                 00 
01010010012000000000000000000000000000000000000          REGISTERED VOTERS - TOTAL                               REGISTERED VOTERS - TOTAL             POLL 6                                                 00 
01010010014000000000000000000000000000000000000          REGISTERED VOTERS - TOTAL                               REGISTERED VOTERS - TOTAL             POLL 7                                                 00 
01010010017000000000000000000000000000000000000          REGISTERED VOTERS - TOTAL                               REGISTERED VOTERS - TOTAL             POLL 8                                                 00 
01010010019000000000000000000000000000000000000          REGISTERED VOTERS - TOTAL                               REGISTERED VOTERS - TOTAL             POLL 9                                                 00 
01010010021000000000000000000000000000000000000          REGISTERED VOTERS - TOTAL                               REGISTERED VOTERS - TOTAL             POLL 10                                                00 
01020010001001004000558000446000000000000000000          BALLOTS CAST - TOTAL                                    BALLOTS CAST - TOTAL                  POLL 1                                                 00 
01020010003000523000270000253000000000000000000          BALLOTS CAST - TOTAL                                    BALLOTS CAST - TOTAL                  POLL 2                                                 00 
01020010005000600000286000314000000000000000000          BALLOTS CAST - TOTAL                                    BALLOTS CAST - TOTAL                  POLL 3                                                 00 
01020010007000290000092000198000000000000000000          BALLOTS CAST - TOTAL                                    BALLOTS CAST - TOTAL                  POLL 4                                                 00 
01020010010000122000030000092000000000000000000          BALLOTS CAST - TOTAL                                    BALLOTS CAST - TOTAL                  POLL 5                                                 00 
01020010012000267000076000191000000000000000000          BALLOTS CAST - TOTAL                                    BALLOTS CAST - TOTAL                  POLL 6                                                 00 
01020010014000573000190000383000000000000000000          BALLOTS CAST - TOTAL                                    BALLOTS CAST - TOTAL                  POLL 7                                                 00 
01020010017001351000938000412000001000000000000          BALLOTS CAST - TOTAL                                    BALLOTS CAST - TOTAL                  POLL 8                                                 00 
01020010019000436000204000231000001000000000000          BALLOTS CAST - TOTAL                                    BALLOTS CAST - TOTAL                  POLL 9                                                 00 
01020010021000216000071000145000000000000000000          BALLOTS CAST - TOTAL                                    BALLOTS CAST - TOTAL                  POLL 10                                                00 
01030010001000840000463000377000000000000000000REP       BALLOTS CAST - REPUBLICAN PARTY                         BALLOTS CAST - REPUBLICAN PARTY       POLL 1                                                 00 
01030010003000458000231000227000000000000000000REP       BALLOTS CAST - REPUBLICAN PARTY                         BALLOTS CAST - REPUBLICAN PARTY       POLL 2                                                 00 
01030010005000531000247000284000000000000000000REP       BALLOTS CAST - REPUBLICAN PARTY                         BALLOTS CAST - REPUBLICAN PARTY       POLL 3                                                 00 
01030010007000262000080000182000000000000000000REP       BALLOTS CAST - REPUBLICAN PARTY                         BALLOTS CAST - REPUBLICAN PARTY       POLL 4                                                 00 
01030010010000109000026000083000000000000000000REP       BALLOTS CAST - REPUBLICAN PARTY                         BALLOTS CAST - REPUBLICAN PARTY       POLL 5                                                 00 
01030010012000212000068000144000000000000000000REP       BALLOTS CAST - REPUBLICAN PARTY                         BALLOTS CAST - REPUBLICAN PARTY       POLL 6                                                 00 
01030010014000489000160000329000000000000000000REP       BALLOTS CAST - REPUBLICAN PARTY                         BALLOTS CAST - REPUBLICAN PARTY       POLL 7                                                 00 
01030010017000869000564000304000001000000000000REP       BALLOTS CAST - REPUBLICAN PARTY                         BALLOTS CAST - REPUBLICAN PARTY       POLL 8                                                 00 
01030010019000326000152000173000001000000000000REP       BALLOTS CAST - REPUBLICAN PARTY                         BALLOTS CAST - REPUBLICAN PARTY       POLL 9                                                 00 
01030010021000150000055000095000000000000000000REP       BALLOTS CAST - REPUBLICAN PARTY                         BALLOTS CAST - REPUBLICAN PARTY       POLL 10                                                00 
01040010001000164000095000069000000000000000000DEM       BALLOTS CAST - DEMOCRATIC PARTY                         BALLOTS CAST - DEMOCRATIC PARTY       POLL 1                                                 00 
01040010003000065000039000026000000000000000000DEM       BALLOTS CAST - DEMOCRATIC PARTY                         BALLOTS CAST - DEMOCRATIC PARTY       POLL 2                                                 00 
01040010005000069000039000030000000000000000000DEM       BALLOTS CAST - DEMOCRATIC PARTY                         BALLOTS CAST - DEMOCRATIC PARTY       POLL 3                                                 00 
01040010007000028000012000016000000000000000000DEM       BALLOTS CAST - DEMOCRATIC PARTY                         BALLOTS CAST - DEMOCRATIC PARTY       POLL 4                                                 00 
01040010010000013000004000009000000000000000000DEM       BALLOTS CAST - DEMOCRATIC PARTY                         BALLOTS CAST - DEMOCRATIC PARTY       POLL 5                                                 00 
01040010012000055000008000047000000000000000000DEM       BALLOTS CAST - DEMOCRATIC PARTY                         BALLOTS CAST - DEMOCRATIC PARTY       POLL 6                                                 00 
01040010014000084000030000054000000000000000000DEM       BALLOTS CAST - DEMOCRATIC PARTY                         BALLOTS CAST - DEMOCRATIC PARTY       POLL 7                                                 00 
01040010017000482000374000108000000000000000000DEM       BALLOTS CAST - DEMOCRATIC PARTY                         BALLOTS CAST - DEMOCRATIC PARTY       POLL 8                                                 00 
01040010019000110000052000058000000000000000000DEM       BALLOTS CAST - DEMOCRATIC PARTY                         BALLOTS CAST - DEMOCRATIC PARTY       POLL 9                                                 00 
01040010021000066000016000050000000000000000000DEM       BALLOTS CAST - DEMOCRATIC PARTY                         BALLOTS CAST - DEMOCRATIC PARTY       POLL 10                                                00 
01050010001000396000246000150000000000000000000REP       United States Senator                                   David Dewhurst                        POLL 1                                                 01 
01050010003000197000128000069000000000000000000REP       United States Senator                                   David Dewhurst                        POLL 2                                                 01 
01050010005000245000116000129000000000000000000REP       United States Senator                                   David Dewhurst                        POLL 3                                                 01 
01050010007000113000043000070000000000000000000REP       United States Senator                                   David Dewhurst                        POLL 4                                                 01 
01050010010000052000013000039000000000000000000REP       United States Senator                                   David Dewhurst                        POLL 5                                                 01 
01050010012000061000024000037000000000000000000REP       United States Senator                                   David Dewhurst                        POLL 6                                                 01 
01050010014000237000094000143000000000000000000REP       United States Senator                                   David Dewhurst                        POLL 7                                                 01 
01050010017000484000326000158000000000000000000REP       United States Senator                                   David Dewhurst                        POLL 8                                                 01 
01050010019000177000087000090000000000000000000REP       United States Senator                                   David Dewhurst                        POLL 9                                                 01 
01050010021000075000029000046000000000000000000REP       United States Senator                                   David Dewhurst                        POLL 10                                                01 
01050020001000435000211000224000000000000000000REP       United States Senator                                   Ted Cruz                              POLL 1                                                 01 
01050020003000255000099000156000000000000000000REP       United States Senator                                   Ted Cruz                              POLL 2                                                 01 
01050020005000280000129000151000000000000000000REP       United States Senator                                   Ted Cruz                              POLL 3                                                 01 
01050020007000148000036000112000000000000000000REP       United States Senator                                   Ted Cruz                              POLL 4                                                 01 
01050020010000057000013000044000000000000000000REP       United States Senator                                   Ted Cruz                              POLL 5                                                 01 
01050020012000150000044000106000000000000000000REP       United States Senator                                   Ted Cruz                              POLL 6                                                 01 
01050020014000248000065000183000000000000000000REP       United States Senator                                   Ted Cruz                              POLL 7                                                 01 
01050020017000338000201000136000001000000000000REP       United States Senator                                   Ted Cruz                              POLL 8                                                 01 
01050020019000141000059000081000001000000000000REP       United States Senator                                   Ted Cruz                              POLL 9                                                 01 
01050020021000071000023000048000000000000000000REP       United States Senator                                   Ted Cruz                              POLL 10                                                01 
01050030001000000000000000000000000000000000000REP       United States Senator                                   OVER VOTES                            POLL 1                                                 01 
01050030003000000000000000000000000000000000000REP       United States Senator                                   OVER VOTES                            POLL 2                                                 01 
01050030005000000000000000000000000000000000000REP       United States Senator                                   OVER VOTES                            POLL 3                                                 01 
01050030007000000000000000000000000000000000000REP       United States Senator                                   OVER VOTES                            POLL 4                                                 01 
01050030010000000000000000000000000000000000000REP       United States Senator                                   OVER VOTES                            POLL 5                                                 01 
01050030012000000000000000000000000000000000000REP       United States Senator                                   OVER VOTES                            POLL 6                                                 01 
01050030014000000000000000000000000000000000000REP       United States Senator                                   OVER VOTES                            POLL 7                                                 01 
01050030017000000000000000000000000000000000000REP       United States Senator                                   OVER VOTES                            POLL 8                                                 01 
01050030019000000000000000000000000000000000000REP       United States Senator                                   OVER VOTES                            POLL 9                                                 01 
01050030021000000000000000000000000000000000000REP       United States Senator                                   OVER VOTES                            POLL 10                                                01 
01050040001000009000006000003000000000000000000REP       United States Senator                                   UNDER VOTES                           POLL 1                                                 01 
01050040003000006000004000002000000000000000000REP       United States Senator                                   UNDER VOTES                           POLL 2                                                 01 
01050040005000006000002000004000000000000000000REP       United States Senator                                   UNDER VOTES                           POLL 3                                                 01 
01050040007000001000001000000000000000000000000REP       United States Senator                                   UNDER VOTES                           POLL 4                                                 01 
01050040010000000000000000000000000000000000000REP       United States Senator                                   UNDER VOTES                           POLL 5                                                 01 
01050040012000001000000000001000000000000000000REP       United States Senator                                   UNDER VOTES                           POLL 6                                                 01 
01050040014000004000001000003000000000000000000REP       United States Senator                                   UNDER VOTES                           POLL 7                                                 01 
01050040017000047000037000010000000000000000000REP       United States Senator                                   UNDER VOTES                           POLL 8                                                 01 
01050040019000008000006000002000000000000000000REP       United States Senator                                   UNDER VOTES                           POLL 9                                                 01 
01050040021000004000003000001000000000000000000REP       United States Senator                                   UNDER VOTES                           POLL 10                                                01 
01060010001000283000157000126000000000000000000REP       Railroad Commissioner                                   Warren Chisum                         POLL 1                                                 01 
01060010003000171000081000090000000000000000000REP       Railroad Commissioner                                   Warren Chisum                         POLL 2                                                 01 
01060010005000181000087000094000000000000000000REP       Railroad Commissioner                                   Warren Chisum                         POLL 3                                                 01 
01060010007000125000042000083000000000000000000REP       Railroad Commissioner                                   Warren Chisum                         POLL 4                                                 01 
01060010010000042000012000030000000000000000000REP       Railroad Commissioner                                   Warren Chisum                         POLL 5                                                 01 
01060010012000085000032000053000000000000000000REP       Railroad Commissioner                                   Warren Chisum                         POLL 6                                                 01 
01060010014000201000067000134000000000000000000REP       Railroad Commissioner                                   Warren Chisum                         POLL 7                                                 01 
01060010017000339000209000129000001000000000000REP       Railroad Commissioner                                   Warren Chisum                         POLL 8                                                 01 
01060010019000137000051000085000001000000000000REP       Railroad Commissioner                                   Warren Chisum                         POLL 9                                                 01 
01060010021000055000018000037000000000000000000REP       Railroad Commissioner                                   Warren Chisum                         POLL 10                                                01 
01060020001000450000253000197000000000000000000REP       Railroad Commissioner                                   Christi Craddick                      POLL 1                                                 01 
01060020003000251000134000117000000000000000000REP       Railroad Commissioner                                   Christi Craddick                      POLL 2                                                 01 
01060020005000285000133000152000000000000000000REP       Railroad Commissioner                                   Christi Craddick                      POLL 3                                                 01 
01060020007000108000030000078000000000000000000REP       Railroad Commissioner                                   Christi Craddick                      POLL 4                                                 01 
01060020010000056000013000043000000000000000000REP       Railroad Commissioner                                   Christi Craddick                      POLL 5                                                 01 
01060020012000091000027000064000000000000000000REP       Railroad Commissioner                                   Christi Craddick                      POLL 6                                                 01 
01060020014000245000083000162000000000000000000REP       Railroad Commissioner                                   Christi Craddick                      POLL 7                                                 01 
01060020017000393000260000133000000000000000000REP       Railroad Commissioner                                   Christi Craddick                      POLL 8                                                 01 
01060020019000151000086000065000000000000000000REP       Railroad Commissioner                                   Christi Craddick                      POLL 9                                                 01 
01060020021000077000030000047000000000000000000REP       Railroad Commissioner                                   Christi Craddick                      POLL 10                                                01 
01060030001000000000000000000000000000000000000REP       Railroad Commissioner                                   OVER VOTES                            POLL 1                                                 01 
01060030003000000000000000000000000000000000000REP       Railroad Commissioner                                   OVER VOTES                            POLL 2                                                 01 
01060030005000000000000000000000000000000000000REP       Railroad Commissioner                                   OVER VOTES                            POLL 3                                                 01 
01060030007000000000000000000000000000000000000REP       Railroad Commissioner                                   OVER VOTES                            POLL 4                                                 01 
01060030010000000000000000000000000000000000000REP       Railroad Commissioner                                   OVER VOTES                            POLL 5                                                 01 
01060030012000000000000000000000000000000000000REP       Railroad Commissioner                                   OVER VOTES                            POLL 6                                                 01 
01060030014000000000000000000000000000000000000REP       Railroad Commissioner                                   OVER VOTES                            POLL 7                                                 01 
01060030017000000000000000000000000000000000000REP       Railroad Commissioner                                   OVER VOTES                            POLL 8                                                 01 
01060030019000000000000000000000000000000000000REP       Railroad Commissioner                                   OVER VOTES                            POLL 9                                                 01 
01060030021000000000000000000000000000000000000REP       Railroad Commissioner                                   OVER VOTES                            POLL 10                                                01 
01060040001000107000053000054000000000000000000REP       Railroad Commissioner                                   UNDER VOTES                           POLL 1                                                 01 
01060040003000036000016000020000000000000000000REP       Railroad Commissioner                                   UNDER VOTES                           POLL 2                                                 01 
01060040005000065000027000038000000000000000000REP       Railroad Commissioner                                   UNDER VOTES                           POLL 3                                                 01 
01060040007000029000008000021000000000000000000REP       Railroad Commissioner                                   UNDER VOTES                           POLL 4                                                 01 
01060040010000011000001000010000000000000000000REP       Railroad Commissioner                                   UNDER VOTES                           POLL 5                                                 01 
01060040012000036000009000027000000000000000000REP       Railroad Commissioner                                   UNDER VOTES                           POLL 6                                                 01 
01060040014000043000010000033000000000000000000REP       Railroad Commissioner                                   UNDER VOTES                           POLL 7                                                 01 
01060040017000137000095000042000000000000000000REP       Railroad Commissioner                                   UNDER VOTES                           POLL 8                                                 01 
01060040019000038000015000023000000000000000000REP       Railroad Commissioner                                   UNDER VOTES                           POLL 9                                                 01 
01060040021000018000007000011000000000000000000REP       Railroad Commissioner                                   UNDER VOTES                           POLL 10                                                01 
01070010001000314000180000134000000000000000000REP       Railroad Commissioner, Unexpired Term                   Greg Parker                           POLL 1                                                 01 
01070010003000166000083000083000000000000000000REP       Railroad Commissioner, Unexpired Term                   Greg Parker                           POLL 2                                                 01 
01070010005000193000081000112000000000000000000REP       Railroad Commissioner, Unexpired Term                   Greg Parker                           POLL 3                                                 01 
01070010007000099000028000071000000000000000000REP       Railroad Commissioner, Unexpired Term                   Greg Parker                           POLL 4                                                 01 
01070010010000031000009000022000000000000000000REP       Railroad Commissioner, Unexpired Term                   Greg Parker                           POLL 5                                                 01 
01070010012000059000015000044000000000000000000REP       Railroad Commissioner, Unexpired Term                   Greg Parker                           POLL 6                                                 01 
01070010014000181000061000120000000000000000000REP       Railroad Commissioner, Unexpired Term                   Greg Parker                           POLL 7                                                 01 
01070010017000325000201000124000000000000000000REP       Railroad Commissioner, Unexpired Term                   Greg Parker                           POLL 8                                                 01 
01070010019000135000066000069000000000000000000REP       Railroad Commissioner, Unexpired Term                   Greg Parker                           POLL 9                                                 01 
01070010021000062000022000040000000000000000000REP       Railroad Commissioner, Unexpired Term                   Greg Parker                           POLL 10                                                01 
01070020001000386000213000173000000000000000000REP       Railroad Commissioner, Unexpired Term                   Barry Smitherman                      POLL 1                                                 01 
01070020003000238000123000115000000000000000000REP       Railroad Commissioner, Unexpired Term                   Barry Smitherman                      POLL 2                                                 01 
01070020005000252000129000123000000000000000000REP       Railroad Commissioner, Unexpired Term                   Barry Smitherman                      POLL 3                                                 01 
01070020007000131000042000089000000000000000000REP       Railroad Commissioner, Unexpired Term                   Barry Smitherman                      POLL 4                                                 01 
01070020010000067000015000052000000000000000000REP       Railroad Commissioner, Unexpired Term                   Barry Smitherman                      POLL 5                                                 01 
01070020012000117000043000074000000000000000000REP       Railroad Commissioner, Unexpired Term                   Barry Smitherman                      POLL 6                                                 01 
01070020014000254000085000169000000000000000000REP       Railroad Commissioner, Unexpired Term                   Barry Smitherman                      POLL 7                                                 01 
01070020017000352000234000118000000000000000000REP       Railroad Commissioner, Unexpired Term                   Barry Smitherman                      POLL 8                                                 01 
01070020019000141000063000077000001000000000000REP       Railroad Commissioner, Unexpired Term                   Barry Smitherman                      POLL 9                                                 01 
01070020021000068000026000042000000000000000000REP       Railroad Commissioner, Unexpired Term                   Barry Smitherman                      POLL 10                                                01 
01070030001000000000000000000000000000000000000REP       Railroad Commissioner, Unexpired Term                   OVER VOTES                            POLL 1                                                 01 
01070030003000000000000000000000000000000000000REP       Railroad Commissioner, Unexpired Term                   OVER VOTES                            POLL 2                                                 01 
01070030005000000000000000000000000000000000000REP       Railroad Commissioner, Unexpired Term                   OVER VOTES                            POLL 3                                                 01 
01070030007000000000000000000000000000000000000REP       Railroad Commissioner, Unexpired Term                   OVER VOTES                            POLL 4                                                 01 
01070030010000000000000000000000000000000000000REP       Railroad Commissioner, Unexpired Term                   OVER VOTES                            POLL 5                                                 01 
01070030012000000000000000000000000000000000000REP       Railroad Commissioner, Unexpired Term                   OVER VOTES                            POLL 6                                                 01 
01070030014000001000000000001000000000000000000REP       Railroad Commissioner, Unexpired Term                   OVER VOTES                            POLL 7                                                 01 
01070030017000000000000000000000000000000000000REP       Railroad Commissioner, Unexpired Term                   OVER VOTES                            POLL 8                                                 01 
01070030019000000000000000000000000000000000000REP       Railroad Commissioner, Unexpired Term                   OVER VOTES                            POLL 9                                                 01 
01070030021000000000000000000000000000000000000REP       Railroad Commissioner, Unexpired Term                   OVER VOTES                            POLL 10                                                01 
01070040001000140000070000070000000000000000000REP       Railroad Commissioner, Unexpired Term                   UNDER VOTES                           POLL 1                                                 01 
01070040003000054000025000029000000000000000000REP       Railroad Commissioner, Unexpired Term                   UNDER VOTES                           POLL 2                                                 01 
01070040005000086000037000049000000000000000000REP       Railroad Commissioner, Unexpired Term                   UNDER VOTES                           POLL 3                                                 01 
01070040007000032000010000022000000000000000000REP       Railroad Commissioner, Unexpired Term                   UNDER VOTES                           POLL 4                                                 01 
01070040010000011000002000009000000000000000000REP       Railroad Commissioner, Unexpired Term                   UNDER VOTES                           POLL 5                                                 01 
01070040012000036000010000026000000000000000000REP       Railroad Commissioner, Unexpired Term                   UNDER VOTES                           POLL 6                                                 01 
01070040014000053000014000039000000000000000000REP       Railroad Commissioner, Unexpired Term                   UNDER VOTES                           POLL 7                                                 01 
01070040017000191000129000062000000000000000000REP       Railroad Commissioner, Unexpired Term                   UNDER VOTES                           POLL 8                                                 01 
01070040019000050000023000027000000000000000000REP       Railroad Commissioner, Unexpired Term                   UNDER VOTES                           POLL 9                                                 01 
01070040021000020000007000013000000000000000000REP       Railroad Commissioner, Unexpired Term                   UNDER VOTES                           POLL 10                                                01 
01080010001000376000198000178000000000000000000REP       Justice, Supreme Court, Place 4                         David Medina                          POLL 1                                                 01 
01080010003000191000097000094000000000000000000REP       Justice, Supreme Court, Place 4                         David Medina                          POLL 2                                                 01 
01080010005000234000094000140000000000000000000REP       Justice, Supreme Court, Place 4                         David Medina                          POLL 3                                                 01 
01080010007000121000035000086000000000000000000REP       Justice, Supreme Court, Place 4                         David Medina                          POLL 4                                                 01 
01080010010000042000009000033000000000000000000REP       Justice, Supreme Court, Place 4                         David Medina                          POLL 5                                                 01 
01080010012000082000027000055000000000000000000REP       Justice, Supreme Court, Place 4                         David Medina                          POLL 6                                                 01 
01080010014000220000068000152000000000000000000REP       Justice, Supreme Court, Place 4                         David Medina                          POLL 7                                                 01 
01080010017000343000223000120000000000000000000REP       Justice, Supreme Court, Place 4                         David Medina                          POLL 8                                                 01 
01080010019000147000071000076000000000000000000REP       Justice, Supreme Court, Place 4                         David Medina                          POLL 9                                                 01 
01080010021000064000019000045000000000000000000REP       Justice, Supreme Court, Place 4                         David Medina                          POLL 10                                                01 
01080020001000335000197000138000000000000000000REP       Justice, Supreme Court, Place 4                         John Devine                           POLL 1                                                 01 
01080020003000213000106000107000000000000000000REP       Justice, Supreme Court, Place 4                         John Devine                           POLL 2                                                 01 
01080020005000224000117000107000000000000000000REP       Justice, Supreme Court, Place 4                         John Devine                           POLL 3                                                 01 
01080020007000106000034000072000000000000000000REP       Justice, Supreme Court, Place 4                         John Devine                           POLL 4                                                 01 
01080020010000057000016000041000000000000000000REP       Justice, Supreme Court, Place 4                         John Devine                           POLL 5                                                 01 
01080020012000095000032000063000000000000000000REP       Justice, Supreme Court, Place 4                         John Devine                           POLL 6                                                 01 
01080020014000213000074000139000000000000000000REP       Justice, Supreme Court, Place 4                         John Devine                           POLL 7                                                 01 
01080020017000351000218000133000000000000000000REP       Justice, Supreme Court, Place 4                         John Devine                           POLL 8                                                 01 
01080020019000122000053000068000001000000000000REP       Justice, Supreme Court, Place 4                         John Devine                           POLL 9                                                 01 
01080020021000066000028000038000000000000000000REP       Justice, Supreme Court, Place 4                         John Devine                           POLL 10                                                01 
01080030001000000000000000000000000000000000000REP       Justice, Supreme Court, Place 4                         OVER VOTES                            POLL 1                                                 01 
01080030003000000000000000000000000000000000000REP       Justice, Supreme Court, Place 4                         OVER VOTES                            POLL 2                                                 01 
01080030005000000000000000000000000000000000000REP       Justice, Supreme Court, Place 4                         OVER VOTES                            POLL 3                                                 01 
01080030007000000000000000000000000000000000000REP       Justice, Supreme Court, Place 4                         OVER VOTES                            POLL 4                                                 01 
01080030010000000000000000000000000000000000000REP       Justice, Supreme Court, Place 4                         OVER VOTES                            POLL 5                                                 01 
01080030012000000000000000000000000000000000000REP       Justice, Supreme Court, Place 4                         OVER VOTES                            POLL 6                                                 01 
01080030014000000000000000000000000000000000000REP       Justice, Supreme Court, Place 4                         OVER VOTES                            POLL 7                                                 01 
01080030017000000000000000000000000000000000000REP       Justice, Supreme Court, Place 4                         OVER VOTES                            POLL 8                                                 01 
01080030019000000000000000000000000000000000000REP       Justice, Supreme Court, Place 4                         OVER VOTES                            POLL 9                                                 01 
01080030021000000000000000000000000000000000000REP       Justice, Supreme Court, Place 4                         OVER VOTES                            POLL 10                                                01 
01080040001000129000068000061000000000000000000REP       Justice, Supreme Court, Place 4                         UNDER VOTES                           POLL 1                                                 01 
01080040003000054000028000026000000000000000000REP       Justice, Supreme Court, Place 4                         UNDER VOTES                           POLL 2                                                 01 
01080040005000073000036000037000000000000000000REP       Justice, Supreme Court, Place 4                         UNDER VOTES                           POLL 3                                                 01 
01080040007000035000011000024000000000000000000REP       Justice, Supreme Court, Place 4                         UNDER VOTES                           POLL 4                                                 01 
01080040010000010000001000009000000000000000000REP       Justice, Supreme Court, Place 4                         UNDER VOTES                           POLL 5                                                 01 
01080040012000035000009000026000000000000000000REP       Justice, Supreme Court, Place 4                         UNDER VOTES                           POLL 6                                                 01 
01080040014000056000018000038000000000000000000REP       Justice, Supreme Court, Place 4                         UNDER VOTES                           POLL 7                                                 01 
01080040017000174000123000051000000000000000000REP       Justice, Supreme Court, Place 4                         UNDER VOTES                           POLL 8                                                 01 
01080040019000057000028000029000000000000000000REP       Justice, Supreme Court, Place 4                         UNDER VOTES                           POLL 9                                                 01 
01080040021000020000008000012000000000000000000REP       Justice, Supreme Court, Place 4                         UNDER VOTES                           POLL 10                                                01 
01090010001000409000236000173000000000000000000REP       State Board of Education, District 10                   Tom Maynard                           POLL 1                                                 01 
01090010003000241000132000109000000000000000000REP       State Board of Education, District 10                   Tom Maynard                           POLL 2                                                 01 
01090010005000235000120000115000000000000000000REP       State Board of Education, District 10                   Tom Maynard                           POLL 3                                                 01 
01090010007000122000033000089000000000000000000REP       State Board of Education, District 10                   Tom Maynard                           POLL 4                                                 01 
01090010010000051000010000041000000000000000000REP       State Board of Education, District 10                   Tom Maynard                           POLL 5                                                 01 
01090010012000101000033000068000000000000000000REP       State Board of Education, District 10                   Tom Maynard                           POLL 6                                                 01 
01090010014000238000073000165000000000000000000REP       State Board of Education, District 10                   Tom Maynard                           POLL 7                                                 01 
01090010017000300000189000111000000000000000000REP       State Board of Education, District 10                   Tom Maynard                           POLL 8                                                 01 
01090010019000136000053000082000001000000000000REP       State Board of Education, District 10                   Tom Maynard                           POLL 9                                                 01 
01090010021000060000024000036000000000000000000REP       State Board of Education, District 10                   Tom Maynard                           POLL 10                                                01 
01090020001000325000176000149000000000000000000REP       State Board of Education, District 10                   Rebecca Osborne                       POLL 1                                                 01 
01090020003000170000079000091000000000000000000REP       State Board of Education, District 10                   Rebecca Osborne                       POLL 2                                                 01 
01090020005000231000101000130000000000000000000REP       State Board of Education, District 10                   Rebecca Osborne                       POLL 3                                                 01 
01090020007000109000039000070000000000000000000REP       State Board of Education, District 10                   Rebecca Osborne                       POLL 4                                                 01 
01090020010000049000015000034000000000000000000REP       State Board of Education, District 10                   Rebecca Osborne                       POLL 5                                                 01 
01090020012000080000025000055000000000000000000REP       State Board of Education, District 10                   Rebecca Osborne                       POLL 6                                                 01 
01090020014000199000073000126000000000000000000REP       State Board of Education, District 10                   Rebecca Osborne                       POLL 7                                                 01 
01090020017000424000281000143000000000000000000REP       State Board of Education, District 10                   Rebecca Osborne                       POLL 8                                                 01 
01090020019000145000079000066000000000000000000REP       State Board of Education, District 10                   Rebecca Osborne                       POLL 9                                                 01 
01090020021000071000024000047000000000000000000REP       State Board of Education, District 10                   Rebecca Osborne                       POLL 10                                                01 
01090030001000000000000000000000000000000000000REP       State Board of Education, District 10                   OVER VOTES                            POLL 1                                                 01 
01090030003000000000000000000000000000000000000REP       State Board of Education, District 10                   OVER VOTES                            POLL 2                                                 01 
01090030005000000000000000000000000000000000000REP       State Board of Education, District 10                   OVER VOTES                            POLL 3                                                 01 
01090030007000000000000000000000000000000000000REP       State Board of Education, District 10                   OVER VOTES                            POLL 4                                                 01 
01090030010000000000000000000000000000000000000REP       State Board of Education, District 10                   OVER VOTES                            POLL 5                                                 01 
01090030012000000000000000000000000000000000000REP       State Board of Education, District 10                   OVER VOTES                            POLL 6                                                 01 
01090030014000000000000000000000000000000000000REP       State Board of Education, District 10                   OVER VOTES                            POLL 7                                                 01 
01090030017000000000000000000000000000000000000REP       State Board of Education, District 10                   OVER VOTES                            POLL 8                                                 01 
01090030019000000000000000000000000000000000000REP       State Board of Education, District 10                   OVER VOTES                            POLL 9                                                 01 
01090030021000000000000000000000000000000000000REP       State Board of Education, District 10                   OVER VOTES                            POLL 10                                                01 
01090040001000106000051000055000000000000000000REP       State Board of Education, District 10                   UNDER VOTES                           POLL 1                                                 01 
01090040003000047000020000027000000000000000000REP       State Board of Education, District 10                   UNDER VOTES                           POLL 2                                                 01 
01090040005000065000026000039000000000000000000REP       State Board of Education, District 10                   UNDER VOTES                           POLL 3                                                 01 
01090040007000031000008000023000000000000000000REP       State Board of Education, District 10                   UNDER VOTES                           POLL 4                                                 01 
01090040010000009000001000008000000000000000000REP       State Board of Education, District 10                   UNDER VOTES                           POLL 5                                                 01 
01090040012000031000010000021000000000000000000REP       State Board of Education, District 10                   UNDER VOTES                           POLL 6                                                 01 
01090040014000052000014000038000000000000000000REP       State Board of Education, District 10                   UNDER VOTES                           POLL 7                                                 01 
01090040017000144000094000050000000000000000000REP       State Board of Education, District 10                   UNDER VOTES                           POLL 8                                                 01 
01090040019000045000020000025000000000000000000REP       State Board of Education, District 10                   UNDER VOTES                           POLL 9                                                 01 
01090040021000019000007000012000000000000000000REP       State Board of Education, District 10                   UNDER VOTES                           POLL 10                                                01 
01100010001000392000198000194000000000000000000REP       District Judge, 21st Judicial District                  Derek R. Van Gilder                   POLL 1                                                 01 
01100010003000239000124000115000000000000000000REP       District Judge, 21st Judicial District                  Derek R. Van Gilder                   POLL 2                                                 01 
01100010005000233000109000124000000000000000000REP       District Judge, 21st Judicial District                  Derek R. Van Gilder                   POLL 3                                                 01 
01100010007000123000038000085000000000000000000REP       District Judge, 21st Judicial District                  Derek R. Van Gilder                   POLL 4                                                 01 
01100010010000055000011000044000000000000000000REP       District Judge, 21st Judicial District                  Derek R. Van Gilder                   POLL 5                                                 01 
01100010012000087000025000062000000000000000000REP       District Judge, 21st Judicial District                  Derek R. Van Gilder                   POLL 6                                                 01 
01100010014000285000104000181000000000000000000REP       District Judge, 21st Judicial District                  Derek R. Van Gilder                   POLL 7                                                 01 
01100010017000456000282000174000000000000000000REP       District Judge, 21st Judicial District                  Derek R. Van Gilder                   POLL 8                                                 01 
01100010019000168000076000092000000000000000000REP       District Judge, 21st Judicial District                  Derek R. Van Gilder                   POLL 9                                                 01 
01100010021000090000027000063000000000000000000REP       District Judge, 21st Judicial District                  Derek R. Van Gilder                   POLL 10                                                01 
01100020001000422000256000166000000000000000000REP       District Judge, 21st Judicial District                  Carson Campbell                       POLL 1                                                 01 
01100020003000202000100000102000000000000000000REP       District Judge, 21st Judicial District                  Carson Campbell                       POLL 2                                                 01 
01100020005000270000126000144000000000000000000REP       District Judge, 21st Judicial District                  Carson Campbell                       POLL 3                                                 01 
01100020007000119000036000083000000000000000000REP       District Judge, 21st Judicial District                  Carson Campbell                       POLL 4                                                 01 
01100020010000050000015000035000000000000000000REP       District Judge, 21st Judicial District                  Carson Campbell                       POLL 5                                                 01 
01100020012000110000039000071000000000000000000REP       District Judge, 21st Judicial District                  Carson Campbell                       POLL 6                                                 01 
01100020014000180000052000128000000000000000000REP       District Judge, 21st Judicial District                  Carson Campbell                       POLL 7                                                 01 
01100020017000286000197000089000000000000000000REP       District Judge, 21st Judicial District                  Carson Campbell                       POLL 8                                                 01 
01100020019000119000061000057000001000000000000REP       District Judge, 21st Judicial District                  Carson Campbell                       POLL 9                                                 01 
01100020021000048000023000025000000000000000000REP       District Judge, 21st Judicial District                  Carson Campbell                       POLL 10                                                01 
01100030001000000000000000000000000000000000000REP       District Judge, 21st Judicial District                  OVER VOTES                            POLL 1                                                 01 
01100030003000000000000000000000000000000000000REP       District Judge, 21st Judicial District                  OVER VOTES                            POLL 2                                                 01 
01100030005000000000000000000000000000000000000REP       District Judge, 21st Judicial District                  OVER VOTES                            POLL 3                                                 01 
01100030007000000000000000000000000000000000000REP       District Judge, 21st Judicial District                  OVER VOTES                            POLL 4                                                 01 
01100030010000000000000000000000000000000000000REP       District Judge, 21st Judicial District                  OVER VOTES                            POLL 5                                                 01 
01100030012000000000000000000000000000000000000REP       District Judge, 21st Judicial District                  OVER VOTES                            POLL 6                                                 01 
01100030014000000000000000000000000000000000000REP       District Judge, 21st Judicial District                  OVER VOTES                            POLL 7                                                 01 
01100030017000000000000000000000000000000000000REP       District Judge, 21st Judicial District                  OVER VOTES                            POLL 8                                                 01 
01100030019000000000000000000000000000000000000REP       District Judge, 21st Judicial District                  OVER VOTES                            POLL 9                                                 01 
01100030021000000000000000000000000000000000000REP       District Judge, 21st Judicial District                  OVER VOTES                            POLL 10                                                01 
01100040001000026000009000017000000000000000000REP       District Judge, 21st Judicial District                  UNDER VOTES                           POLL 1                                                 01 
01100040003000017000007000010000000000000000000REP       District Judge, 21st Judicial District                  UNDER VOTES                           POLL 2                                                 01 
01100040005000028000012000016000000000000000000REP       District Judge, 21st Judicial District                  UNDER VOTES                           POLL 3                                                 01 
01100040007000020000006000014000000000000000000REP       District Judge, 21st Judicial District                  UNDER VOTES                           POLL 4                                                 01 
01100040010000004000000000004000000000000000000REP       District Judge, 21st Judicial District                  UNDER VOTES                           POLL 5                                                 01 
01100040012000015000004000011000000000000000000REP       District Judge, 21st Judicial District                  UNDER VOTES                           POLL 6                                                 01 
01100040014000024000004000020000000000000000000REP       District Judge, 21st Judicial District                  UNDER VOTES                           POLL 7                                                 01 
01100040017000126000085000041000000000000000000REP       District Judge, 21st Judicial District                  UNDER VOTES                           POLL 8                                                 01 
01100040019000039000015000024000000000000000000REP       District Judge, 21st Judicial District                  UNDER VOTES                           POLL 9                                                 01 
01100040021000012000005000007000000000000000000REP       District Judge, 21st Judicial District                  UNDER VOTES                           POLL 10                                                01 
01110010017000536000367000168000001000000000000REP       County Commissioner, Precinct No. 4                     Gary "Bubba" Snowden                  POLL 8                                                 01 
01110010019000180000078000101000001000000000000REP       County Commissioner, Precinct No. 4                     Gary "Bubba" Snowden                  POLL 9                                                 01 
01110010021000061000021000040000000000000000000REP       County Commissioner, Precinct No. 4                     Gary "Bubba" Snowden                  POLL 10                                                01 
01110020017000316000192000124000000000000000000REP       County Commissioner, Precinct No. 4                     Chris Cannon                          POLL 8                                                 01 
01110020019000131000069000062000000000000000000REP       County Commissioner, Precinct No. 4                     Chris Cannon                          POLL 9                                                 01 
01110020021000082000031000051000000000000000000REP       County Commissioner, Precinct No. 4                     Chris Cannon                          POLL 10                                                01 
01110030017000000000000000000000000000000000000REP       County Commissioner, Precinct No. 4                     OVER VOTES                            POLL 8                                                 01 
01110030019000001000001000000000000000000000000REP       County Commissioner, Precinct No. 4                     OVER VOTES                            POLL 9                                                 01 
01110030021000000000000000000000000000000000000REP       County Commissioner, Precinct No. 4                     OVER VOTES                            POLL 10                                                01 
01110040017000017000005000012000000000000000000REP       County Commissioner, Precinct No. 4                     UNDER VOTES                           POLL 8                                                 01 
01110040019000014000004000010000000000000000000REP       County Commissioner, Precinct No. 4                     UNDER VOTES                           POLL 9                                                 01 
01110040021000007000003000004000000000000000000REP       County Commissioner, Precinct No. 4                     UNDER VOTES                           POLL 10                                                01 
01120010017000425000311000114000000000000000000REP       Constable, Precinct No. 4 CONSTABLE, PCT 4              Salvador B. Abreo                     POLL 8                                                 01 
01120010019000141000081000060000000000000000000REP       Constable, Precinct No. 4 CONSTABLE, PCT 4              Salvador B. Abreo                     POLL 9                                                 01 
01120010021000031000014000017000000000000000000REP       Constable, Precinct No. 4 CONSTABLE, PCT 4              Salvador B. Abreo                     POLL 10                                                01 
01120020017000381000217000164000000000000000000REP       Constable, Precinct No. 4 CONSTABLE, PCT 4              Ron Lundrigan                         POLL 8                                                 01 
01120020019000161000062000098000001000000000000REP       Constable, Precinct No. 4 CONSTABLE, PCT 4              Ron Lundrigan                         POLL 9                                                 01 
01120020021000113000036000077000000000000000000REP       Constable, Precinct No. 4 CONSTABLE, PCT 4              Ron Lundrigan                         POLL 10                                                01 
01120030017000000000000000000000000000000000000REP       Constable, Precinct No. 4 CONSTABLE, PCT 4              OVER VOTES                            POLL 8                                                 01 
01120030019000000000000000000000000000000000000REP       Constable, Precinct No. 4 CONSTABLE, PCT 4              OVER VOTES                            POLL 9                                                 01 
01120030021000000000000000000000000000000000000REP       Constable, Precinct No. 4 CONSTABLE, PCT 4              OVER VOTES                            POLL 10                                                01 
01120040017000062000036000026000000000000000000REP       Constable, Precinct No. 4 CONSTABLE, PCT 4              UNDER VOTES                           POLL 8                                                 01 
01120040019000024000009000015000000000000000000REP       Constable, Precinct No. 4 CONSTABLE, PCT 4              UNDER VOTES                           POLL 9                                                 01 
01120040021000006000005000001000000000000000000REP       Constable, Precinct No. 4 CONSTABLE, PCT 4              UNDER VOTES                           POLL 10                                                01 
01130010017000168000121000047000000000000000000REP       Precinct Chair, Precinct 4017                           W.C. Estes                            POLL 8                                                 01 
01130020017000126000079000047000000000000000000REP       Precinct Chair, Precinct 4017                           Charles Wood                          POLL 8                                                 01 
01130030017000000000000000000000000000000000000REP       Precinct Chair, Precinct 4017                           OVER VOTES                            POLL 8                                                 01 
01130040017000041000026000015000000000000000000REP       Precinct Chair, Precinct 4017                           UNDER VOTES                           POLL 8                                                 01 
01140010001000123000071000052000000000000000000DEM       United States Senator                                   Paul Sadler                           POLL 1                                                 01 
01140010003000049000034000015000000000000000000DEM       United States Senator                                   Paul Sadler                           POLL 2                                                 01 
01140010005000054000029000025000000000000000000DEM       United States Senator                                   Paul Sadler                           POLL 3                                                 01 
01140010007000019000011000008000000000000000000DEM       United States Senator                                   Paul Sadler                           POLL 4                                                 01 
01140010010000008000003000005000000000000000000DEM       United States Senator                                   Paul Sadler                           POLL 5                                                 01 
01140010012000038000008000030000000000000000000DEM       United States Senator                                   Paul Sadler                           POLL 6                                                 01 
01140010014000058000025000033000000000000000000DEM       United States Senator                                   Paul Sadler                           POLL 7                                                 01 
01140010017000259000207000052000000000000000000DEM       United States Senator                                   Paul Sadler                           POLL 8                                                 01 
01140010019000069000035000034000000000000000000DEM       United States Senator                                   Paul Sadler                           POLL 9                                                 01 
01140010021000042000009000033000000000000000000DEM       United States Senator                                   Paul Sadler                           POLL 10                                                01 
01140020001000040000023000017000000000000000000DEM       United States Senator                                   Grady Yarbrough                       POLL 1                                                 01 
01140020003000014000003000011000000000000000000DEM       United States Senator                                   Grady Yarbrough                       POLL 2                                                 01 
01140020005000015000010000005000000000000000000DEM       United States Senator                                   Grady Yarbrough                       POLL 3                                                 01 
01140020007000008000001000007000000000000000000DEM       United States Senator                                   Grady Yarbrough                       POLL 4                                                 01 
01140020010000005000001000004000000000000000000DEM       United States Senator                                   Grady Yarbrough                       POLL 5                                                 01 
01140020012000016000000000016000000000000000000DEM       United States Senator                                   Grady Yarbrough                       POLL 6                                                 01 
01140020014000023000003000020000000000000000000DEM       United States Senator                                   Grady Yarbrough                       POLL 7                                                 01 
01140020017000145000106000039000000000000000000DEM       United States Senator                                   Grady Yarbrough                       POLL 8                                                 01 
01140020019000037000016000021000000000000000000DEM       United States Senator                                   Grady Yarbrough                       POLL 9                                                 01 
01140020021000021000005000016000000000000000000DEM       United States Senator                                   Grady Yarbrough                       POLL 10                                                01 
01140030001000000000000000000000000000000000000DEM       United States Senator                                   OVER VOTES                            POLL 1                                                 01 
01140030003000000000000000000000000000000000000DEM       United States Senator                                   OVER VOTES                            POLL 2                                                 01 
01140030005000000000000000000000000000000000000DEM       United States Senator                                   OVER VOTES                            POLL 3                                                 01 
01140030007000000000000000000000000000000000000DEM       United States Senator                                   OVER VOTES                            POLL 4                                                 01 
01140030010000000000000000000000000000000000000DEM       United States Senator                                   OVER VOTES                            POLL 5                                                 01 
01140030012000000000000000000000000000000000000DEM       United States Senator                                   OVER VOTES                            POLL 6                                                 01 
01140030014000000000000000000000000000000000000DEM       United States Senator                                   OVER VOTES                            POLL 7                                                 01 
01140030017000000000000000000000000000000000000DEM       United States Senator                                   OVER VOTES                            POLL 8                                                 01 
01140030019000000000000000000000000000000000000DEM       United States Senator                                   OVER VOTES                            POLL 9                                                 01 
01140030021000000000000000000000000000000000000DEM       United States Senator                                   OVER VOTES                            POLL 10                                                01 
01140040001000001000001000000000000000000000000DEM       United States Senator                                   UNDER VOTES                           POLL 1                                                 01 
01140040003000002000002000000000000000000000000DEM       United States Senator                                   UNDER VOTES                           POLL 2                                                 01 
01140040005000000000000000000000000000000000000DEM       United States Senator                                   UNDER VOTES                           POLL 3                                                 01 
01140040007000001000000000001000000000000000000DEM       United States Senator                                   UNDER VOTES                           POLL 4                                                 01 
01140040010000000000000000000000000000000000000DEM       United States Senator                                   UNDER VOTES                           POLL 5                                                 01 
01140040012000001000000000001000000000000000000DEM       United States Senator                                   UNDER VOTES                           POLL 6                                                 01 
01140040014000003000002000001000000000000000000DEM       United States Senator                                   UNDER VOTES                           POLL 7                                                 01 
01140040017000078000061000017000000000000000000DEM       United States Senator                                   UNDER VOTES                           POLL 8                                                 01 
01140040019000004000001000003000000000000000000DEM       United States Senator                                   UNDER VOTES                           POLL 9                                                 01 
01140040021000003000002000001000000000000000000DEM       United States Senator                                   UNDER VOTES                           POLL 10                                                01 
01150010003000018000010000008000000000000000000DEM       United States Representative, Dist 27 US REP DISTRICT 27Jerry J. Trevino                      POLL 2                                                 01 
01150010005000005000004000001000000000000000000DEM       United States Representative, Dist 27 US REP DISTRICT 27Jerry J. Trevino                      POLL 3                                                 01 
01150010007000009000003000006000000000000000000DEM       United States Representative, Dist 27 US REP DISTRICT 27Jerry J. Trevino                      POLL 4                                                 01 
01150010012000016000001000015000000000000000000DEM       United States Representative, Dist 27 US REP DISTRICT 27Jerry J. Trevino                      POLL 6                                                 01 
01150010014000024000011000013000000000000000000DEM       United States Representative, Dist 27 US REP DISTRICT 27Jerry J. Trevino                      POLL 7                                                 01 
01150020003000043000026000017000000000000000000DEM       United States Representative, Dist 27 US REP DISTRICT 27Rose Meza Harrison                    POLL 2                                                 01 
01150020005000011000004000007000000000000000000DEM       United States Representative, Dist 27 US REP DISTRICT 27Rose Meza Harrison                    POLL 3                                                 01 
01150020007000019000009000010000000000000000000DEM       United States Representative, Dist 27 US REP DISTRICT 27Rose Meza Harrison                    POLL 4                                                 01 
01150020012000036000007000029000000000000000000DEM       United States Representative, Dist 27 US REP DISTRICT 27Rose Meza Harrison                    POLL 6                                                 01 
01150020014000055000016000039000000000000000000DEM       United States Representative, Dist 27 US REP DISTRICT 27Rose Meza Harrison                    POLL 7                                                 01 
01150030003000000000000000000000000000000000000DEM       United States Representative, Dist 27 US REP DISTRICT 27OVER VOTES                            POLL 2                                                 01 
01150030005000000000000000000000000000000000000DEM       United States Representative, Dist 27 US REP DISTRICT 27OVER VOTES                            POLL 3                                                 01 
01150030007000000000000000000000000000000000000DEM       United States Representative, Dist 27 US REP DISTRICT 27OVER VOTES                            POLL 4                                                 01 
01150030012000000000000000000000000000000000000DEM       United States Representative, Dist 27 US REP DISTRICT 27OVER VOTES                            POLL 6                                                 01 
01150030014000000000000000000000000000000000000DEM       United States Representative, Dist 27 US REP DISTRICT 27OVER VOTES                            POLL 7                                                 01 
01150040003000004000003000001000000000000000000DEM       United States Representative, Dist 27 US REP DISTRICT 27UNDER VOTES                           POLL 2                                                 01 
01150040005000000000000000000000000000000000000DEM       United States Representative, Dist 27 US REP DISTRICT 27UNDER VOTES                           POLL 3                                                 01 
01150040007000000000000000000000000000000000000DEM       United States Representative, Dist 27 US REP DISTRICT 27UNDER VOTES                           POLL 4                                                 01 
01150040012000003000000000003000000000000000000DEM       United States Representative, Dist 27 US REP DISTRICT 27UNDER VOTES                           POLL 6                                                 01 
01150040014000005000003000002000000000000000000DEM       United States Representative, Dist 27 US REP DISTRICT 27UNDER VOTES                           POLL 7                                                 01 
01160010017000288000224000064000000000000000000DEM       County Commissioner, Precinct No. 4                     Michael Flowers                       POLL 8                                                 01 
01160010019000072000031000041000000000000000000DEM       County Commissioner, Precinct No. 4                     Michael Flowers                       POLL 9                                                 01 
01160010021000050000011000039000000000000000000DEM       County Commissioner, Precinct No. 4                     Michael Flowers                       POLL 10                                                01 
01160020017000193000149000044000000000000000000DEM       County Commissioner, Precinct No. 4                     Liston Crim                           POLL 8                                                 01 
01160020019000038000021000017000000000000000000DEM       County Commissioner, Precinct No. 4                     Liston Crim                           POLL 9                                                 01 
01160020021000016000005000011000000000000000000DEM       County Commissioner, Precinct No. 4                     Liston Crim                           POLL 10                                                01 
01160030017000000000000000000000000000000000000DEM       County Commissioner, Precinct No. 4                     OVER VOTES                            POLL 8                                                 01 
01160030019000000000000000000000000000000000000DEM       County Commissioner, Precinct No. 4                     OVER VOTES                            POLL 9                                                 01 
01160030021000000000000000000000000000000000000DEM       County Commissioner, Precinct No. 4                     OVER VOTES                            POLL 10                                                01 
01160040017000001000001000000000000000000000000DEM       County Commissioner, Precinct No. 4                     UNDER VOTES                           POLL 8                                                 01 
01160040019000000000000000000000000000000000000DEM       County Commissioner, Precinct No. 4                     UNDER VOTES                           POLL 9                                                 01 
01160040021000000000000000000000000000000000000DEM       County Commissioner, Precinct No. 4                     UNDER VOTES                           POLL 10                                                01 
