01380010001000046NONBDIST1 BOERNE Council Member, DIST 1 BOERNE DIST 1             Jeff L. Haberstroh                    PRECINCT 1011                                          01 
01380010021000414NONBDIST1 BOERNE Council Member, DIST 1 BOERNE DIST 1             Jeff L. Haberstroh                    PRECINCT 3041                                          01 
01380010029000078NONBDIST1 BOERNE Council Member, DIST 1 BOERNE DIST 1             Jeff L. Haberstroh                    PRECINCT 4101                                          01 
01380020001000000   BDIST1 BOERNE Council Member, DIST 1 BOERNE DIST 1             OVER VOTES                            PRECINCT 1011                                          01 
01380020021000000   BDIST1 BOERNE Council Member, DIST 1 BOERNE DIST 1             OVER VOTES                            PRECINCT 3041                                          01 
01380020029000000   BDIST1 BOERNE Council Member, DIST 1 BOERNE DIST 1             OVER VOTES                            PRECINCT 4101                                          01 
01380030001000070   BDIST1 BOERNE Council Member, DIST 1 BOERNE DIST 1             UNDER VOTES                           PRECINCT 1011                                          01 
01380030021000418   BDIST1 BOERNE Council Member, DIST 1 BOERNE DIST 1             UNDER VOTES                           PRECINCT 3041                                          01 
01380030029000066   BDIST1 BOERNE Council Member, DIST 1 BOERNE DIST 1             UNDER VOTES                           PRECINCT 4101                                          01 
01390010002000338NONBDIST3 BOERNE Council Member, DIST 3 BOERNE DIST 3             J. Kuper                              PRECINCT 1013                                          01 
01390010030000088NONBDIST3 BOERNE Council Member, DIST 3 BOERNE DIST 3             J. Kuper                              PRECINCT 4103                                          01 
01390020002000000   BDIST3 BOERNE Council Member, DIST 3 BOERNE DIST 3             OVER VOTES                            PRECINCT 1013                                          01 
01390020030000000   BDIST3 BOERNE Council Member, DIST 3 BOERNE DIST 3             OVER VOTES                            PRECINCT 4103                                          01 
01390030002000423   BDIST3 BOERNE Council Member, DIST 3 BOERNE DIST 3             UNDER VOTES                           PRECINCT 1013                                          01 
01390030030000097   BDIST3 BOERNE Council Member, DIST 3 BOERNE DIST 3             UNDER VOTES                           PRECINCT 4103                                          01 
01400010005000195NONBDIST5 BOERNE Council Member, DIST 5 BOERNE DIST 5             Jacques DuBose                        PRECINCT 1115                                          01 
01400010016000011NONBDIST5 BOERNE Council Member, DIST 5 BOERNE DIST 5             Jacques DuBose                        PRECINCT 2085                                          01 
01400020005000484NONBDIST5 BOERNE Council Member, DIST 5 BOERNE DIST 5             Christina Bergmann                    PRECINCT 1115                                          01 
01400020016000038NONBDIST5 BOERNE Council Member, DIST 5 BOERNE DIST 5             Christina Bergmann                    PRECINCT 2085                                          01 
01400030005000000   BDIST5 BOERNE Council Member, DIST 5 BOERNE DIST 5             OVER VOTES                            PRECINCT 1115                                          01 
01400030016000000   BDIST5 BOERNE Council Member, DIST 5 BOERNE DIST 5             OVER VOTES                            PRECINCT 2085                                          01 
01400040005000262   BDIST5 BOERNE Council Member, DIST 5 BOERNE DIST 5             UNDER VOTES                           PRECINCT 1115                                          01 
01400040016000027   BDIST5 BOERNE Council Member, DIST 5 BOERNE DIST 5             UNDER VOTES                           PRECINCT 2085                                          01 
