01010010001000164          REGISTERED VOTERS - TOTAL                               REGISTERED VOTERS - TOTAL             PRECINCT 1                                             00 
01010010002000295          REGISTERED VOTERS - TOTAL                               REGISTERED VOTERS - TOTAL             PRECINCT 2                                             00 
01010010003000285          REGISTERED VOTERS - TOTAL                               REGISTERED VOTERS - TOTAL             PRECINCT 3                                             00 
01010010004000306          REGISTERED VOTERS - TOTAL                               REGISTERED VOTERS - TOTAL             PRECINCT 4                                             00 
01010010005000091          REGISTERED VOTERS - TOTAL                               REGISTERED VOTERS - TOTAL             PRECINCT 6                                             00 
01020010001000091          BALLOTS CAST - TOTAL                                    BALLOTS CAST - TOTAL                  PRECINCT 1                                             00 
01020010002000179          BALLOTS CAST - TOTAL                                    BALLOTS CAST - TOTAL                  PRECINCT 2                                             00 
01020010003000181          BALLOTS CAST - TOTAL                                    BALLOTS CAST - TOTAL                  PRECINCT 3                                             00 
01020010004000216          BALLOTS CAST - TOTAL                                    BALLOTS CAST - TOTAL                  PRECINCT 4                                             00 
01020010005000046          BALLOTS CAST - TOTAL                                    BALLOTS CAST - TOTAL                  PRECINCT 6                                             00 
01030010001000032REP       STRAIGHT PARTY                                          REPUBLICAN PARTY                      PRECINCT 1                                             01 
01030010002000052REP       STRAIGHT PARTY                                          REPUBLICAN PARTY                      PRECINCT 2                                             01 
01030010003000048REP       STRAIGHT PARTY                                          REPUBLICAN PARTY                      PRECINCT 3                                             01 
01030010004000072REP       STRAIGHT PARTY                                          REPUBLICAN PARTY                      PRECINCT 4                                             01 
01030010005000014REP       STRAIGHT PARTY                                          REPUBLICAN PARTY                      PRECINCT 6                                             01 
01030020001000014DEM       STRAIGHT PARTY                                          DEMOCRATIC PARTY                      PRECINCT 1                                             01 
01030020002000018DEM       STRAIGHT PARTY                                          DEMOCRATIC PARTY                      PRECINCT 2                                             01 
01030020003000014DEM       STRAIGHT PARTY                                          DEMOCRATIC PARTY                      PRECINCT 3                                             01 
01030020004000024DEM       STRAIGHT PARTY                                          DEMOCRATIC PARTY                      PRECINCT 4                                             01 
01030020005000006DEM       STRAIGHT PARTY                                          DEMOCRATIC PARTY                      PRECINCT 6                                             01 
01030030001000000LIB       STRAIGHT PARTY                                          LIBERTARIAN PARTY                     PRECINCT 1                                             01 
01030030002000000LIB       STRAIGHT PARTY                                          LIBERTARIAN PARTY                     PRECINCT 2                                             01 
01030030003000001LIB       STRAIGHT PARTY                                          LIBERTARIAN PARTY                     PRECINCT 3                                             01 
01030030004000000LIB       STRAIGHT PARTY                                          LIBERTARIAN PARTY                     PRECINCT 4                                             01 
01030030005000000LIB       STRAIGHT PARTY                                          LIBERTARIAN PARTY                     PRECINCT 6                                             01 
01030040001000000GRN       STRAIGHT PARTY                                          GREEN PARTY                           PRECINCT 1                                             01 
01030040002000002GRN       STRAIGHT PARTY                                          GREEN PARTY                           PRECINCT 2                                             01 
01030040003000000GRN       STRAIGHT PARTY                                          GREEN PARTY                           PRECINCT 3                                             01 
01030040004000000GRN       STRAIGHT PARTY                                          GREEN PARTY                           PRECINCT 4                                             01 
01030040005000000GRN       STRAIGHT PARTY                                          GREEN PARTY                           PRECINCT 6                                             01 
01030050001000000          STRAIGHT PARTY                                          OVER VOTES                            PRECINCT 1                                             01 
01030050002000000          STRAIGHT PARTY                                          OVER VOTES                            PRECINCT 2                                             01 
01030050003000000          STRAIGHT PARTY                                          OVER VOTES                            PRECINCT 3                                             01 
01030050004000000          STRAIGHT PARTY                                          OVER VOTES                            PRECINCT 4                                             01 
01030050005000000          STRAIGHT PARTY                                          OVER VOTES                            PRECINCT 6                                             01 
01030060001000045          STRAIGHT PARTY                                          UNDER VOTES                           PRECINCT 1                                             01 
01030060002000106          STRAIGHT PARTY                                          UNDER VOTES                           PRECINCT 2                                             01 
01030060003000118          STRAIGHT PARTY                                          UNDER VOTES                           PRECINCT 3                                             01 
01030060004000120          STRAIGHT PARTY                                          UNDER VOTES                           PRECINCT 4                                             01 
01030060005000026          STRAIGHT PARTY                                          UNDER VOTES                           PRECINCT 6                                             01 
01040010001000069REP       President and Vice-President BRISCOE COUNTYWIDE         Mitt Romney / Paul Ryan               PRECINCT 1                                             01 
01040010002000149REP       President and Vice-President BRISCOE COUNTYWIDE         Mitt Romney / Paul Ryan               PRECINCT 2                                             01 
01040010003000149REP       President and Vice-President BRISCOE COUNTYWIDE         Mitt Romney / Paul Ryan               PRECINCT 3                                             01 
01040010004000178REP       President and Vice-President BRISCOE COUNTYWIDE         Mitt Romney / Paul Ryan               PRECINCT 4                                             01 
01040010005000033REP       President and Vice-President BRISCOE COUNTYWIDE         Mitt Romney / Paul Ryan               PRECINCT 6                                             01 
01040020001000020DEM       President and Vice-President BRISCOE COUNTYWIDE         Barack Obama / Joe Biden              PRECINCT 1                                             01 
01040020002000028DEM       President and Vice-President BRISCOE COUNTYWIDE         Barack Obama / Joe Biden              PRECINCT 2                                             01 
01040020003000027DEM       President and Vice-President BRISCOE COUNTYWIDE         Barack Obama / Joe Biden              PRECINCT 3                                             01 
01040020004000032DEM       President and Vice-President BRISCOE COUNTYWIDE         Barack Obama / Joe Biden              PRECINCT 4                                             01 
01040020005000010DEM       President and Vice-President BRISCOE COUNTYWIDE         Barack Obama / Joe Biden              PRECINCT 6                                             01 
01040030001000000LIB       President and Vice-President BRISCOE COUNTYWIDE         Gary Johnson / Jim Gray               PRECINCT 1                                             01 
01040030002000000LIB       President and Vice-President BRISCOE COUNTYWIDE         Gary Johnson / Jim Gray               PRECINCT 2                                             01 
01040030003000001LIB       President and Vice-President BRISCOE COUNTYWIDE         Gary Johnson / Jim Gray               PRECINCT 3                                             01 
01040030004000003LIB       President and Vice-President BRISCOE COUNTYWIDE         Gary Johnson / Jim Gray               PRECINCT 4                                             01 
01040030005000000LIB       President and Vice-President BRISCOE COUNTYWIDE         Gary Johnson / Jim Gray               PRECINCT 6                                             01 
01040040001000000GRN       President and Vice-President BRISCOE COUNTYWIDE         Jill Stein / Cheri Honkala            PRECINCT 1                                             01 
01040040002000002GRN       President and Vice-President BRISCOE COUNTYWIDE         Jill Stein / Cheri Honkala            PRECINCT 2                                             01 
01040040003000001GRN       President and Vice-President BRISCOE COUNTYWIDE         Jill Stein / Cheri Honkala            PRECINCT 3                                             01 
01040040004000000GRN       President and Vice-President BRISCOE COUNTYWIDE         Jill Stein / Cheri Honkala            PRECINCT 4                                             01 
01040040005000000GRN       President and Vice-President BRISCOE COUNTYWIDE         Jill Stein / Cheri Honkala            PRECINCT 6                                             01 
01040050001000000NON       President and Vice-President BRISCOE COUNTYWIDE         WRITE-IN                              PRECINCT 1                                             01 
01040050002000000NON       President and Vice-President BRISCOE COUNTYWIDE         WRITE-IN                              PRECINCT 2                                             01 
01040050003000000NON       President and Vice-President BRISCOE COUNTYWIDE         WRITE-IN                              PRECINCT 3                                             01 
01040050004000001NON       President and Vice-President BRISCOE COUNTYWIDE         WRITE-IN                              PRECINCT 4                                             01 
01040050005000000NON       President and Vice-President BRISCOE COUNTYWIDE         WRITE-IN                              PRECINCT 6                                             01 
01040060001000000          President and Vice-President BRISCOE COUNTYWIDE         OVER VOTES                            PRECINCT 1                                             01 
01040060002000000          President and Vice-President BRISCOE COUNTYWIDE         OVER VOTES                            PRECINCT 2                                             01 
01040060003000000          President and Vice-President BRISCOE COUNTYWIDE         OVER VOTES                            PRECINCT 3                                             01 
01040060004000000          President and Vice-President BRISCOE COUNTYWIDE         OVER VOTES                            PRECINCT 4                                             01 
01040060005000000          President and Vice-President BRISCOE COUNTYWIDE         OVER VOTES                            PRECINCT 6                                             01 
01040070001000002          President and Vice-President BRISCOE COUNTYWIDE         UNDER VOTES                           PRECINCT 1                                             01 
01040070002000000          President and Vice-President BRISCOE COUNTYWIDE         UNDER VOTES                           PRECINCT 2                                             01 
01040070003000003          President and Vice-President BRISCOE COUNTYWIDE         UNDER VOTES                           PRECINCT 3                                             01 
01040070004000002          President and Vice-President BRISCOE COUNTYWIDE         UNDER VOTES                           PRECINCT 4                                             01 
01040070005000003          President and Vice-President BRISCOE COUNTYWIDE         UNDER VOTES                           PRECINCT 6                                             01 
01050010001000063REP       United States Senator BRISCOE COUNTYWIDE                Ted Cruz                              PRECINCT 1                                             01 
01050010002000123REP       United States Senator BRISCOE COUNTYWIDE                Ted Cruz                              PRECINCT 2                                             01 
01050010003000139REP       United States Senator BRISCOE COUNTYWIDE                Ted Cruz                              PRECINCT 3                                             01 
01050010004000158REP       United States Senator BRISCOE COUNTYWIDE                Ted Cruz                              PRECINCT 4                                             01 
01050010005000030REP       United States Senator BRISCOE COUNTYWIDE                Ted Cruz                              PRECINCT 6                                             01 
01050020001000021DEM       United States Senator BRISCOE COUNTYWIDE                Paul Sadler                           PRECINCT 1                                             01 
01050020002000038DEM       United States Senator BRISCOE COUNTYWIDE                Paul Sadler                           PRECINCT 2                                             01 
01050020003000029DEM       United States Senator BRISCOE COUNTYWIDE                Paul Sadler                           PRECINCT 3                                             01 
01050020004000042DEM       United States Senator BRISCOE COUNTYWIDE                Paul Sadler                           PRECINCT 4                                             01 
01050020005000012DEM       United States Senator BRISCOE COUNTYWIDE                Paul Sadler                           PRECINCT 6                                             01 
01050030001000001LIB       United States Senator BRISCOE COUNTYWIDE                John Jay Myers                        PRECINCT 1                                             01 
01050030002000001LIB       United States Senator BRISCOE COUNTYWIDE                John Jay Myers                        PRECINCT 2                                             01 
01050030003000003LIB       United States Senator BRISCOE COUNTYWIDE                John Jay Myers                        PRECINCT 3                                             01 
01050030004000002LIB       United States Senator BRISCOE COUNTYWIDE                John Jay Myers                        PRECINCT 4                                             01 
01050030005000000LIB       United States Senator BRISCOE COUNTYWIDE                John Jay Myers                        PRECINCT 6                                             01 
01050040001000001GRN       United States Senator BRISCOE COUNTYWIDE                David B. Collins                      PRECINCT 1                                             01 
01050040002000001GRN       United States Senator BRISCOE COUNTYWIDE                David B. Collins                      PRECINCT 2                                             01 
01050040003000002GRN       United States Senator BRISCOE COUNTYWIDE                David B. Collins                      PRECINCT 3                                             01 
01050040004000003GRN       United States Senator BRISCOE COUNTYWIDE                David B. Collins                      PRECINCT 4                                             01 
01050040005000000GRN       United States Senator BRISCOE COUNTYWIDE                David B. Collins                      PRECINCT 6                                             01 
01050050001000000          United States Senator BRISCOE COUNTYWIDE                OVER VOTES                            PRECINCT 1                                             01 
01050050002000000          United States Senator BRISCOE COUNTYWIDE                OVER VOTES                            PRECINCT 2                                             01 
01050050003000000          United States Senator BRISCOE COUNTYWIDE                OVER VOTES                            PRECINCT 3                                             01 
01050050004000000          United States Senator BRISCOE COUNTYWIDE                OVER VOTES                            PRECINCT 4                                             01 
01050050005000000          United States Senator BRISCOE COUNTYWIDE                OVER VOTES                            PRECINCT 6                                             01 
01050060001000005          United States Senator BRISCOE COUNTYWIDE                UNDER VOTES                           PRECINCT 1                                             01 
01050060002000016          United States Senator BRISCOE COUNTYWIDE                UNDER VOTES                           PRECINCT 2                                             01 
01050060003000008          United States Senator BRISCOE COUNTYWIDE                UNDER VOTES                           PRECINCT 3                                             01 
01050060004000011          United States Senator BRISCOE COUNTYWIDE                UNDER VOTES                           PRECINCT 4                                             01 
01050060005000004          United States Senator BRISCOE COUNTYWIDE                UNDER VOTES                           PRECINCT 6                                             01 
01060010001000072REP       United States Rep, District 13 BRISCOE COUNTYWIDE       Mac Thornberry                        PRECINCT 1                                             01 
01060010002000140REP       United States Rep, District 13 BRISCOE COUNTYWIDE       Mac Thornberry                        PRECINCT 2                                             01 
01060010003000156REP       United States Rep, District 13 BRISCOE COUNTYWIDE       Mac Thornberry                        PRECINCT 3                                             01 
01060010004000174REP       United States Rep, District 13 BRISCOE COUNTYWIDE       Mac Thornberry                        PRECINCT 4                                             01 
01060010005000032REP       United States Rep, District 13 BRISCOE COUNTYWIDE       Mac Thornberry                        PRECINCT 6                                             01 
01060020001000004LIB       United States Rep, District 13 BRISCOE COUNTYWIDE       John Robert Deek                      PRECINCT 1                                             01 
01060020002000007LIB       United States Rep, District 13 BRISCOE COUNTYWIDE       John Robert Deek                      PRECINCT 2                                             01 
01060020003000006LIB       United States Rep, District 13 BRISCOE COUNTYWIDE       John Robert Deek                      PRECINCT 3                                             01 
01060020004000008LIB       United States Rep, District 13 BRISCOE COUNTYWIDE       John Robert Deek                      PRECINCT 4                                             01 
01060020005000001LIB       United States Rep, District 13 BRISCOE COUNTYWIDE       John Robert Deek                      PRECINCT 6                                             01 
01060030001000000GRN       United States Rep, District 13 BRISCOE COUNTYWIDE       Keith F. Houston                      PRECINCT 1                                             01 
01060030002000003GRN       United States Rep, District 13 BRISCOE COUNTYWIDE       Keith F. Houston                      PRECINCT 2                                             01 
01060030003000000GRN       United States Rep, District 13 BRISCOE COUNTYWIDE       Keith F. Houston                      PRECINCT 3                                             01 
01060030004000006GRN       United States Rep, District 13 BRISCOE COUNTYWIDE       Keith F. Houston                      PRECINCT 4                                             01 
01060030005000001GRN       United States Rep, District 13 BRISCOE COUNTYWIDE       Keith F. Houston                      PRECINCT 6                                             01 
01060040001000000          United States Rep, District 13 BRISCOE COUNTYWIDE       OVER VOTES                            PRECINCT 1                                             01 
01060040002000000          United States Rep, District 13 BRISCOE COUNTYWIDE       OVER VOTES                            PRECINCT 2                                             01 
01060040003000000          United States Rep, District 13 BRISCOE COUNTYWIDE       OVER VOTES                            PRECINCT 3                                             01 
01060040004000000          United States Rep, District 13 BRISCOE COUNTYWIDE       OVER VOTES                            PRECINCT 4                                             01 
01060040005000000          United States Rep, District 13 BRISCOE COUNTYWIDE       OVER VOTES                            PRECINCT 6                                             01 
01060050001000015          United States Rep, District 13 BRISCOE COUNTYWIDE       UNDER VOTES                           PRECINCT 1                                             01 
01060050002000029          United States Rep, District 13 BRISCOE COUNTYWIDE       UNDER VOTES                           PRECINCT 2                                             01 
01060050003000019          United States Rep, District 13 BRISCOE COUNTYWIDE       UNDER VOTES                           PRECINCT 3                                             01 
01060050004000028          United States Rep, District 13 BRISCOE COUNTYWIDE       UNDER VOTES                           PRECINCT 4                                             01 
01060050005000012          United States Rep, District 13 BRISCOE COUNTYWIDE       UNDER VOTES                           PRECINCT 6                                             01 
01070010001000061REP       Railroad Commissioner BRISCOE COUNTYWIDE                Christi Craddick                      PRECINCT 1                                             01 
01070010002000122REP       Railroad Commissioner BRISCOE COUNTYWIDE                Christi Craddick                      PRECINCT 2                                             01 
01070010003000137REP       Railroad Commissioner BRISCOE COUNTYWIDE                Christi Craddick                      PRECINCT 3                                             01 
01070010004000158REP       Railroad Commissioner BRISCOE COUNTYWIDE                Christi Craddick                      PRECINCT 4                                             01 
01070010005000028REP       Railroad Commissioner BRISCOE COUNTYWIDE                Christi Craddick                      PRECINCT 6                                             01 
01070020001000020DEM       Railroad Commissioner BRISCOE COUNTYWIDE                Dale Henry                            PRECINCT 1                                             01 
01070020002000034DEM       Railroad Commissioner BRISCOE COUNTYWIDE                Dale Henry                            PRECINCT 2                                             01 
01070020003000028DEM       Railroad Commissioner BRISCOE COUNTYWIDE                Dale Henry                            PRECINCT 3                                             01 
01070020004000041DEM       Railroad Commissioner BRISCOE COUNTYWIDE                Dale Henry                            PRECINCT 4                                             01 
01070020005000013DEM       Railroad Commissioner BRISCOE COUNTYWIDE                Dale Henry                            PRECINCT 6                                             01 
01070030001000000LIB       Railroad Commissioner BRISCOE COUNTYWIDE                Vivekananda (Vik) Wall                PRECINCT 1                                             01 
01070030002000000LIB       Railroad Commissioner BRISCOE COUNTYWIDE                Vivekananda (Vik) Wall                PRECINCT 2                                             01 
01070030003000002LIB       Railroad Commissioner BRISCOE COUNTYWIDE                Vivekananda (Vik) Wall                PRECINCT 3                                             01 
01070030004000001LIB       Railroad Commissioner BRISCOE COUNTYWIDE                Vivekananda (Vik) Wall                PRECINCT 4                                             01 
01070030005000000LIB       Railroad Commissioner BRISCOE COUNTYWIDE                Vivekananda (Vik) Wall                PRECINCT 6                                             01 
01070040001000000GRN       Railroad Commissioner BRISCOE COUNTYWIDE                Chris Kennedy                         PRECINCT 1                                             01 
01070040002000001GRN       Railroad Commissioner BRISCOE COUNTYWIDE                Chris Kennedy                         PRECINCT 2                                             01 
01070040003000004GRN       Railroad Commissioner BRISCOE COUNTYWIDE                Chris Kennedy                         PRECINCT 3                                             01 
01070040004000003GRN       Railroad Commissioner BRISCOE COUNTYWIDE                Chris Kennedy                         PRECINCT 4                                             01 
01070040005000001GRN       Railroad Commissioner BRISCOE COUNTYWIDE                Chris Kennedy                         PRECINCT 6                                             01 
01070050001000000          Railroad Commissioner BRISCOE COUNTYWIDE                OVER VOTES                            PRECINCT 1                                             01 
01070050002000000          Railroad Commissioner BRISCOE COUNTYWIDE                OVER VOTES                            PRECINCT 2                                             01 
01070050003000000          Railroad Commissioner BRISCOE COUNTYWIDE                OVER VOTES                            PRECINCT 3                                             01 
01070050004000000          Railroad Commissioner BRISCOE COUNTYWIDE                OVER VOTES                            PRECINCT 4                                             01 
01070050005000000          Railroad Commissioner BRISCOE COUNTYWIDE                OVER VOTES                            PRECINCT 6                                             01 
01070060001000010          Railroad Commissioner BRISCOE COUNTYWIDE                UNDER VOTES                           PRECINCT 1                                             01 
01070060002000022          Railroad Commissioner BRISCOE COUNTYWIDE                UNDER VOTES                           PRECINCT 2                                             01 
01070060003000010          Railroad Commissioner BRISCOE COUNTYWIDE                UNDER VOTES                           PRECINCT 3                                             01 
01070060004000013          Railroad Commissioner BRISCOE COUNTYWIDE                UNDER VOTES                           PRECINCT 4                                             01 
01070060005000004          Railroad Commissioner BRISCOE COUNTYWIDE                UNDER VOTES                           PRECINCT 6                                             01 
01080010001000064REP       Railroad Commissioner, UNEXP BRISCOE COUNTYWIDE         Barry Smitherman                      PRECINCT 1                                             01 
01080010002000128REP       Railroad Commissioner, UNEXP BRISCOE COUNTYWIDE         Barry Smitherman                      PRECINCT 2                                             01 
01080010003000142REP       Railroad Commissioner, UNEXP BRISCOE COUNTYWIDE         Barry Smitherman                      PRECINCT 3                                             01 
01080010004000166REP       Railroad Commissioner, UNEXP BRISCOE COUNTYWIDE         Barry Smitherman                      PRECINCT 4                                             01 
01080010005000030REP       Railroad Commissioner, UNEXP BRISCOE COUNTYWIDE         Barry Smitherman                      PRECINCT 6                                             01 
01080020001000001LIB       Railroad Commissioner, UNEXP BRISCOE COUNTYWIDE         Jaime O. Perez                        PRECINCT 1                                             01 
01080020002000006LIB       Railroad Commissioner, UNEXP BRISCOE COUNTYWIDE         Jaime O. Perez                        PRECINCT 2                                             01 
01080020003000008LIB       Railroad Commissioner, UNEXP BRISCOE COUNTYWIDE         Jaime O. Perez                        PRECINCT 3                                             01 
01080020004000006LIB       Railroad Commissioner, UNEXP BRISCOE COUNTYWIDE         Jaime O. Perez                        PRECINCT 4                                             01 
01080020005000002LIB       Railroad Commissioner, UNEXP BRISCOE COUNTYWIDE         Jaime O. Perez                        PRECINCT 6                                             01 
01080030001000002GRN       Railroad Commissioner, UNEXP BRISCOE COUNTYWIDE         Josh Wendel                           PRECINCT 1                                             01 
01080030002000003GRN       Railroad Commissioner, UNEXP BRISCOE COUNTYWIDE         Josh Wendel                           PRECINCT 2                                             01 
01080030003000002GRN       Railroad Commissioner, UNEXP BRISCOE COUNTYWIDE         Josh Wendel                           PRECINCT 3                                             01 
01080030004000005GRN       Railroad Commissioner, UNEXP BRISCOE COUNTYWIDE         Josh Wendel                           PRECINCT 4                                             01 
01080030005000000GRN       Railroad Commissioner, UNEXP BRISCOE COUNTYWIDE         Josh Wendel                           PRECINCT 6                                             01 
01080040001000000          Railroad Commissioner, UNEXP BRISCOE COUNTYWIDE         OVER VOTES                            PRECINCT 1                                             01 
01080040002000000          Railroad Commissioner, UNEXP BRISCOE COUNTYWIDE         OVER VOTES                            PRECINCT 2                                             01 
01080040003000000          Railroad Commissioner, UNEXP BRISCOE COUNTYWIDE         OVER VOTES                            PRECINCT 3                                             01 
01080040004000000          Railroad Commissioner, UNEXP BRISCOE COUNTYWIDE         OVER VOTES                            PRECINCT 4                                             01 
01080040005000000          Railroad Commissioner, UNEXP BRISCOE COUNTYWIDE         OVER VOTES                            PRECINCT 6                                             01 
01080050001000024          Railroad Commissioner, UNEXP BRISCOE COUNTYWIDE         UNDER VOTES                           PRECINCT 1                                             01 
01080050002000042          Railroad Commissioner, UNEXP BRISCOE COUNTYWIDE         UNDER VOTES                           PRECINCT 2                                             01 
01080050003000029          Railroad Commissioner, UNEXP BRISCOE COUNTYWIDE         UNDER VOTES                           PRECINCT 3                                             01 
01080050004000039          Railroad Commissioner, UNEXP BRISCOE COUNTYWIDE         UNDER VOTES                           PRECINCT 4                                             01 
01080050005000014          Railroad Commissioner, UNEXP BRISCOE COUNTYWIDE         UNDER VOTES                           PRECINCT 6                                             01 
01090010001000062REP       Justice, Supreme Court, Place 2 BRISCOE COUNTYWIDE      Don Willett                           PRECINCT 1                                             01 
01090010002000130REP       Justice, Supreme Court, Place 2 BRISCOE COUNTYWIDE      Don Willett                           PRECINCT 2                                             01 
01090010003000137REP       Justice, Supreme Court, Place 2 BRISCOE COUNTYWIDE      Don Willett                           PRECINCT 3                                             01 
01090010004000166REP       Justice, Supreme Court, Place 2 BRISCOE COUNTYWIDE      Don Willett                           PRECINCT 4                                             01 
01090010005000028REP       Justice, Supreme Court, Place 2 BRISCOE COUNTYWIDE      Don Willett                           PRECINCT 6                                             01 
01090020001000003LIB       Justice, Supreme Court, Place 2 BRISCOE COUNTYWIDE      RS Roberto Koelsch                    PRECINCT 1                                             01 
01090020002000005LIB       Justice, Supreme Court, Place 2 BRISCOE COUNTYWIDE      RS Roberto Koelsch                    PRECINCT 2                                             01 
01090020003000008LIB       Justice, Supreme Court, Place 2 BRISCOE COUNTYWIDE      RS Roberto Koelsch                    PRECINCT 3                                             01 
01090020004000010LIB       Justice, Supreme Court, Place 2 BRISCOE COUNTYWIDE      RS Roberto Koelsch                    PRECINCT 4                                             01 
01090020005000003LIB       Justice, Supreme Court, Place 2 BRISCOE COUNTYWIDE      RS Roberto Koelsch                    PRECINCT 6                                             01 
01090030001000000          Justice, Supreme Court, Place 2 BRISCOE COUNTYWIDE      OVER VOTES                            PRECINCT 1                                             01 
01090030002000000          Justice, Supreme Court, Place 2 BRISCOE COUNTYWIDE      OVER VOTES                            PRECINCT 2                                             01 
01090030003000000          Justice, Supreme Court, Place 2 BRISCOE COUNTYWIDE      OVER VOTES                            PRECINCT 3                                             01 
01090030004000000          Justice, Supreme Court, Place 2 BRISCOE COUNTYWIDE      OVER VOTES                            PRECINCT 4                                             01 
01090030005000000          Justice, Supreme Court, Place 2 BRISCOE COUNTYWIDE      OVER VOTES                            PRECINCT 6                                             01 
01090040001000026          Justice, Supreme Court, Place 2 BRISCOE COUNTYWIDE      UNDER VOTES                           PRECINCT 1                                             01 
01090040002000044          Justice, Supreme Court, Place 2 BRISCOE COUNTYWIDE      UNDER VOTES                           PRECINCT 2                                             01 
01090040003000036          Justice, Supreme Court, Place 2 BRISCOE COUNTYWIDE      UNDER VOTES                           PRECINCT 3                                             01 
01090040004000040          Justice, Supreme Court, Place 2 BRISCOE COUNTYWIDE      UNDER VOTES                           PRECINCT 4                                             01 
01090040005000015          Justice, Supreme Court, Place 2 BRISCOE COUNTYWIDE      UNDER VOTES                           PRECINCT 6                                             01 
01100010001000060REP       Justice, Supreme Court, Place 4 BRISCOE COUNTYWIDE      John Devine                           PRECINCT 1                                             01 
01100010002000125REP       Justice, Supreme Court, Place 4 BRISCOE COUNTYWIDE      John Devine                           PRECINCT 2                                             01 
01100010003000127REP       Justice, Supreme Court, Place 4 BRISCOE COUNTYWIDE      John Devine                           PRECINCT 3                                             01 
01100010004000164REP       Justice, Supreme Court, Place 4 BRISCOE COUNTYWIDE      John Devine                           PRECINCT 4                                             01 
01100010005000028REP       Justice, Supreme Court, Place 4 BRISCOE COUNTYWIDE      John Devine                           PRECINCT 6                                             01 
01100020001000003LIB       Justice, Supreme Court, Place 4 BRISCOE COUNTYWIDE      Tom Oxford                            PRECINCT 1                                             01 
01100020002000006LIB       Justice, Supreme Court, Place 4 BRISCOE COUNTYWIDE      Tom Oxford                            PRECINCT 2                                             01 
01100020003000013LIB       Justice, Supreme Court, Place 4 BRISCOE COUNTYWIDE      Tom Oxford                            PRECINCT 3                                             01 
01100020004000008LIB       Justice, Supreme Court, Place 4 BRISCOE COUNTYWIDE      Tom Oxford                            PRECINCT 4                                             01 
01100020005000002LIB       Justice, Supreme Court, Place 4 BRISCOE COUNTYWIDE      Tom Oxford                            PRECINCT 6                                             01 
01100030001000002GRN       Justice, Supreme Court, Place 4 BRISCOE COUNTYWIDE      Charles E. Waterbury                  PRECINCT 1                                             01 
01100030002000003GRN       Justice, Supreme Court, Place 4 BRISCOE COUNTYWIDE      Charles E. Waterbury                  PRECINCT 2                                             01 
01100030003000005GRN       Justice, Supreme Court, Place 4 BRISCOE COUNTYWIDE      Charles E. Waterbury                  PRECINCT 3                                             01 
01100030004000004GRN       Justice, Supreme Court, Place 4 BRISCOE COUNTYWIDE      Charles E. Waterbury                  PRECINCT 4                                             01 
01100030005000001GRN       Justice, Supreme Court, Place 4 BRISCOE COUNTYWIDE      Charles E. Waterbury                  PRECINCT 6                                             01 
01100040001000000          Justice, Supreme Court, Place 4 BRISCOE COUNTYWIDE      OVER VOTES                            PRECINCT 1                                             01 
01100040002000000          Justice, Supreme Court, Place 4 BRISCOE COUNTYWIDE      OVER VOTES                            PRECINCT 2                                             01 
01100040003000000          Justice, Supreme Court, Place 4 BRISCOE COUNTYWIDE      OVER VOTES                            PRECINCT 3                                             01 
01100040004000000          Justice, Supreme Court, Place 4 BRISCOE COUNTYWIDE      OVER VOTES                            PRECINCT 4                                             01 
01100040005000000          Justice, Supreme Court, Place 4 BRISCOE COUNTYWIDE      OVER VOTES                            PRECINCT 6                                             01 
01100050001000026          Justice, Supreme Court, Place 4 BRISCOE COUNTYWIDE      UNDER VOTES                           PRECINCT 1                                             01 
01100050002000045          Justice, Supreme Court, Place 4 BRISCOE COUNTYWIDE      UNDER VOTES                           PRECINCT 2                                             01 
01100050003000036          Justice, Supreme Court, Place 4 BRISCOE COUNTYWIDE      UNDER VOTES                           PRECINCT 3                                             01 
01100050004000040          Justice, Supreme Court, Place 4 BRISCOE COUNTYWIDE      UNDER VOTES                           PRECINCT 4                                             01 
01100050005000015          Justice, Supreme Court, Place 4 BRISCOE COUNTYWIDE      UNDER VOTES                           PRECINCT 6                                             01 
01110010001000056REP       Justice, Supreme Court, Place 6 BRISCOE COUNTYWIDE      Nathan Hecht                          PRECINCT 1                                             01 
01110010002000113REP       Justice, Supreme Court, Place 6 BRISCOE COUNTYWIDE      Nathan Hecht                          PRECINCT 2                                             01 
01110010003000121REP       Justice, Supreme Court, Place 6 BRISCOE COUNTYWIDE      Nathan Hecht                          PRECINCT 3                                             01 
01110010004000150REP       Justice, Supreme Court, Place 6 BRISCOE COUNTYWIDE      Nathan Hecht                          PRECINCT 4                                             01 
01110010005000029REP       Justice, Supreme Court, Place 6 BRISCOE COUNTYWIDE      Nathan Hecht                          PRECINCT 6                                             01 
01110020001000021DEM       Justice, Supreme Court, Place 6 BRISCOE COUNTYWIDE      Michele Petty                         PRECINCT 1                                             01 
01110020002000034DEM       Justice, Supreme Court, Place 6 BRISCOE COUNTYWIDE      Michele Petty                         PRECINCT 2                                             01 
01110020003000033DEM       Justice, Supreme Court, Place 6 BRISCOE COUNTYWIDE      Michele Petty                         PRECINCT 3                                             01 
01110020004000045DEM       Justice, Supreme Court, Place 6 BRISCOE COUNTYWIDE      Michele Petty                         PRECINCT 4                                             01 
01110020005000011DEM       Justice, Supreme Court, Place 6 BRISCOE COUNTYWIDE      Michele Petty                         PRECINCT 6                                             01 
01110030001000000LIB       Justice, Supreme Court, Place 6 BRISCOE COUNTYWIDE      Mark Ash                              PRECINCT 1                                             01 
01110030002000001LIB       Justice, Supreme Court, Place 6 BRISCOE COUNTYWIDE      Mark Ash                              PRECINCT 2                                             01 
01110030003000002LIB       Justice, Supreme Court, Place 6 BRISCOE COUNTYWIDE      Mark Ash                              PRECINCT 3                                             01 
01110030004000002LIB       Justice, Supreme Court, Place 6 BRISCOE COUNTYWIDE      Mark Ash                              PRECINCT 4                                             01 
01110030005000000LIB       Justice, Supreme Court, Place 6 BRISCOE COUNTYWIDE      Mark Ash                              PRECINCT 6                                             01 
01110040001000004GRN       Justice, Supreme Court, Place 6 BRISCOE COUNTYWIDE      Jim Chisholm                          PRECINCT 1                                             01 
01110040002000006GRN       Justice, Supreme Court, Place 6 BRISCOE COUNTYWIDE      Jim Chisholm                          PRECINCT 2                                             01 
01110040003000008GRN       Justice, Supreme Court, Place 6 BRISCOE COUNTYWIDE      Jim Chisholm                          PRECINCT 3                                             01 
01110040004000005GRN       Justice, Supreme Court, Place 6 BRISCOE COUNTYWIDE      Jim Chisholm                          PRECINCT 4                                             01 
01110040005000000GRN       Justice, Supreme Court, Place 6 BRISCOE COUNTYWIDE      Jim Chisholm                          PRECINCT 6                                             01 
01110050001000000          Justice, Supreme Court, Place 6 BRISCOE COUNTYWIDE      OVER VOTES                            PRECINCT 1                                             01 
01110050002000000          Justice, Supreme Court, Place 6 BRISCOE COUNTYWIDE      OVER VOTES                            PRECINCT 2                                             01 
01110050003000000          Justice, Supreme Court, Place 6 BRISCOE COUNTYWIDE      OVER VOTES                            PRECINCT 3                                             01 
01110050004000000          Justice, Supreme Court, Place 6 BRISCOE COUNTYWIDE      OVER VOTES                            PRECINCT 4                                             01 
01110050005000000          Justice, Supreme Court, Place 6 BRISCOE COUNTYWIDE      OVER VOTES                            PRECINCT 6                                             01 
01110060001000010          Justice, Supreme Court, Place 6 BRISCOE COUNTYWIDE      UNDER VOTES                           PRECINCT 1                                             01 
01110060002000025          Justice, Supreme Court, Place 6 BRISCOE COUNTYWIDE      UNDER VOTES                           PRECINCT 2                                             01 
01110060003000017          Justice, Supreme Court, Place 6 BRISCOE COUNTYWIDE      UNDER VOTES                           PRECINCT 3                                             01 
01110060004000014          Justice, Supreme Court, Place 6 BRISCOE COUNTYWIDE      UNDER VOTES                           PRECINCT 4                                             01 
01110060005000006          Justice, Supreme Court, Place 6 BRISCOE COUNTYWIDE      UNDER VOTES                           PRECINCT 6                                             01 
01120010001000056REP       Presiding Judge, Court of Crim Appeals                  Sharon  Keller                        PRECINCT 1                                             01 
01120010002000116REP       Presiding Judge, Court of Crim Appeals                  Sharon  Keller                        PRECINCT 2                                             01 
01120010003000129REP       Presiding Judge, Court of Crim Appeals                  Sharon  Keller                        PRECINCT 3                                             01 
01120010004000148REP       Presiding Judge, Court of Crim Appeals                  Sharon  Keller                        PRECINCT 4                                             01 
01120010005000026REP       Presiding Judge, Court of Crim Appeals                  Sharon  Keller                        PRECINCT 6                                             01 
01120020001000023DEM       Presiding Judge, Court of Crim Appeals                  Keith Hampton                         PRECINCT 1                                             01 
01120020002000036DEM       Presiding Judge, Court of Crim Appeals                  Keith Hampton                         PRECINCT 2                                             01 
01120020003000030DEM       Presiding Judge, Court of Crim Appeals                  Keith Hampton                         PRECINCT 3                                             01 
01120020004000049DEM       Presiding Judge, Court of Crim Appeals                  Keith Hampton                         PRECINCT 4                                             01 
01120020005000013DEM       Presiding Judge, Court of Crim Appeals                  Keith Hampton                         PRECINCT 6                                             01 
01120030001000001LIB       Presiding Judge, Court of Crim Appeals                  Lance Stott                           PRECINCT 1                                             01 
01120030002000002LIB       Presiding Judge, Court of Crim Appeals                  Lance Stott                           PRECINCT 2                                             01 
01120030003000004LIB       Presiding Judge, Court of Crim Appeals                  Lance Stott                           PRECINCT 3                                             01 
01120030004000004LIB       Presiding Judge, Court of Crim Appeals                  Lance Stott                           PRECINCT 4                                             01 
01120030005000001LIB       Presiding Judge, Court of Crim Appeals                  Lance Stott                           PRECINCT 6                                             01 
01120040001000000          Presiding Judge, Court of Crim Appeals                  OVER VOTES                            PRECINCT 1                                             01 
01120040002000000          Presiding Judge, Court of Crim Appeals                  OVER VOTES                            PRECINCT 2                                             01 
01120040003000000          Presiding Judge, Court of Crim Appeals                  OVER VOTES                            PRECINCT 3                                             01 
01120040004000000          Presiding Judge, Court of Crim Appeals                  OVER VOTES                            PRECINCT 4                                             01 
01120040005000000          Presiding Judge, Court of Crim Appeals                  OVER VOTES                            PRECINCT 6                                             01 
01120050001000011          Presiding Judge, Court of Crim Appeals                  UNDER VOTES                           PRECINCT 1                                             01 
01120050002000025          Presiding Judge, Court of Crim Appeals                  UNDER VOTES                           PRECINCT 2                                             01 
01120050003000018          Presiding Judge, Court of Crim Appeals                  UNDER VOTES                           PRECINCT 3                                             01 
01120050004000015          Presiding Judge, Court of Crim Appeals                  UNDER VOTES                           PRECINCT 4                                             01 
01120050005000006          Presiding Judge, Court of Crim Appeals                  UNDER VOTES                           PRECINCT 6                                             01 
01130010001000061REP       Judge, CT of Criminal AP, P7 BRISCOE COUNTYWIDE         Barbara Parker Hervey                 PRECINCT 1                                             01 
01130010002000120REP       Judge, CT of Criminal AP, P7 BRISCOE COUNTYWIDE         Barbara Parker Hervey                 PRECINCT 2                                             01 
01130010003000133REP       Judge, CT of Criminal AP, P7 BRISCOE COUNTYWIDE         Barbara Parker Hervey                 PRECINCT 3                                             01 
01130010004000160REP       Judge, CT of Criminal AP, P7 BRISCOE COUNTYWIDE         Barbara Parker Hervey                 PRECINCT 4                                             01 
01130010005000030REP       Judge, CT of Criminal AP, P7 BRISCOE COUNTYWIDE         Barbara Parker Hervey                 PRECINCT 6                                             01 
01130020001000004LIB       Judge, CT of Criminal AP, P7 BRISCOE COUNTYWIDE         Mark W. Bennett                       PRECINCT 1                                             01 
01130020002000013LIB       Judge, CT of Criminal AP, P7 BRISCOE COUNTYWIDE         Mark W. Bennett                       PRECINCT 2                                             01 
01130020003000013LIB       Judge, CT of Criminal AP, P7 BRISCOE COUNTYWIDE         Mark W. Bennett                       PRECINCT 3                                             01 
01130020004000017LIB       Judge, CT of Criminal AP, P7 BRISCOE COUNTYWIDE         Mark W. Bennett                       PRECINCT 4                                             01 
01130020005000001LIB       Judge, CT of Criminal AP, P7 BRISCOE COUNTYWIDE         Mark W. Bennett                       PRECINCT 6                                             01 
01130030001000000          Judge, CT of Criminal AP, P7 BRISCOE COUNTYWIDE         OVER VOTES                            PRECINCT 1                                             01 
01130030002000000          Judge, CT of Criminal AP, P7 BRISCOE COUNTYWIDE         OVER VOTES                            PRECINCT 2                                             01 
01130030003000000          Judge, CT of Criminal AP, P7 BRISCOE COUNTYWIDE         OVER VOTES                            PRECINCT 3                                             01 
01130030004000000          Judge, CT of Criminal AP, P7 BRISCOE COUNTYWIDE         OVER VOTES                            PRECINCT 4                                             01 
01130030005000000          Judge, CT of Criminal AP, P7 BRISCOE COUNTYWIDE         OVER VOTES                            PRECINCT 6                                             01 
01130040001000026          Judge, CT of Criminal AP, P7 BRISCOE COUNTYWIDE         UNDER VOTES                           PRECINCT 1                                             01 
01130040002000046          Judge, CT of Criminal AP, P7 BRISCOE COUNTYWIDE         UNDER VOTES                           PRECINCT 2                                             01 
01130040003000035          Judge, CT of Criminal AP, P7 BRISCOE COUNTYWIDE         UNDER VOTES                           PRECINCT 3                                             01 
01130040004000039          Judge, CT of Criminal AP, P7 BRISCOE COUNTYWIDE         UNDER VOTES                           PRECINCT 4                                             01 
01130040005000015          Judge, CT of Criminal AP, P7 BRISCOE COUNTYWIDE         UNDER VOTES                           PRECINCT 6                                             01 
01140010001000056REP       Judge, CT of Criminal AP, P8 BRISCOE COUNTYWIDE         Elsa Alcala                           PRECINCT 1                                             01 
01140010002000116REP       Judge, CT of Criminal AP, P8 BRISCOE COUNTYWIDE         Elsa Alcala                           PRECINCT 2                                             01 
01140010003000125REP       Judge, CT of Criminal AP, P8 BRISCOE COUNTYWIDE         Elsa Alcala                           PRECINCT 3                                             01 
01140010004000149REP       Judge, CT of Criminal AP, P8 BRISCOE COUNTYWIDE         Elsa Alcala                           PRECINCT 4                                             01 
01140010005000029REP       Judge, CT of Criminal AP, P8 BRISCOE COUNTYWIDE         Elsa Alcala                           PRECINCT 6                                             01 
01140020001000010LIB       Judge, CT of Criminal AP, P8 BRISCOE COUNTYWIDE         William Bryan Strange, III            PRECINCT 1                                             01 
01140020002000015LIB       Judge, CT of Criminal AP, P8 BRISCOE COUNTYWIDE         William Bryan Strange, III            PRECINCT 2                                             01 
01140020003000019LIB       Judge, CT of Criminal AP, P8 BRISCOE COUNTYWIDE         William Bryan Strange, III            PRECINCT 3                                             01 
01140020004000024LIB       Judge, CT of Criminal AP, P8 BRISCOE COUNTYWIDE         William Bryan Strange, III            PRECINCT 4                                             01 
01140020005000002LIB       Judge, CT of Criminal AP, P8 BRISCOE COUNTYWIDE         William Bryan Strange, III            PRECINCT 6                                             01 
01140030001000000          Judge, CT of Criminal AP, P8 BRISCOE COUNTYWIDE         OVER VOTES                            PRECINCT 1                                             01 
01140030002000000          Judge, CT of Criminal AP, P8 BRISCOE COUNTYWIDE         OVER VOTES                            PRECINCT 2                                             01 
01140030003000000          Judge, CT of Criminal AP, P8 BRISCOE COUNTYWIDE         OVER VOTES                            PRECINCT 3                                             01 
01140030004000000          Judge, CT of Criminal AP, P8 BRISCOE COUNTYWIDE         OVER VOTES                            PRECINCT 4                                             01 
01140030005000000          Judge, CT of Criminal AP, P8 BRISCOE COUNTYWIDE         OVER VOTES                            PRECINCT 6                                             01 
01140040001000025          Judge, CT of Criminal AP, P8 BRISCOE COUNTYWIDE         UNDER VOTES                           PRECINCT 1                                             01 
01140040002000048          Judge, CT of Criminal AP, P8 BRISCOE COUNTYWIDE         UNDER VOTES                           PRECINCT 2                                             01 
01140040003000037          Judge, CT of Criminal AP, P8 BRISCOE COUNTYWIDE         UNDER VOTES                           PRECINCT 3                                             01 
01140040004000043          Judge, CT of Criminal AP, P8 BRISCOE COUNTYWIDE         UNDER VOTES                           PRECINCT 4                                             01 
01140040005000015          Judge, CT of Criminal AP, P8 BRISCOE COUNTYWIDE         UNDER VOTES                           PRECINCT 6                                             01 
01150010001000057REP       Member, State Board of Education, Dist15                Marty Rowley                          PRECINCT 1                                             01 
01150010002000117REP       Member, State Board of Education, Dist15                Marty Rowley                          PRECINCT 2                                             01 
01150010003000129REP       Member, State Board of Education, Dist15                Marty Rowley                          PRECINCT 3                                             01 
01150010004000156REP       Member, State Board of Education, Dist15                Marty Rowley                          PRECINCT 4                                             01 
01150010005000028REP       Member, State Board of Education, Dist15                Marty Rowley                          PRECINCT 6                                             01 
01150020001000023DEM       Member, State Board of Education, Dist15                Steven D. Schafersman                 PRECINCT 1                                             01 
01150020002000034DEM       Member, State Board of Education, Dist15                Steven D. Schafersman                 PRECINCT 2                                             01 
01150020003000032DEM       Member, State Board of Education, Dist15                Steven D. Schafersman                 PRECINCT 3                                             01 
01150020004000043DEM       Member, State Board of Education, Dist15                Steven D. Schafersman                 PRECINCT 4                                             01 
01150020005000011DEM       Member, State Board of Education, Dist15                Steven D. Schafersman                 PRECINCT 6                                             01 
01150030001000000          Member, State Board of Education, Dist15                OVER VOTES                            PRECINCT 1                                             01 
01150030002000000          Member, State Board of Education, Dist15                OVER VOTES                            PRECINCT 2                                             01 
01150030003000000          Member, State Board of Education, Dist15                OVER VOTES                            PRECINCT 3                                             01 
01150030004000000          Member, State Board of Education, Dist15                OVER VOTES                            PRECINCT 4                                             01 
01150030005000000          Member, State Board of Education, Dist15                OVER VOTES                            PRECINCT 6                                             01 
01150040001000011          Member, State Board of Education, Dist15                UNDER VOTES                           PRECINCT 1                                             01 
01150040002000028          Member, State Board of Education, Dist15                UNDER VOTES                           PRECINCT 2                                             01 
01150040003000020          Member, State Board of Education, Dist15                UNDER VOTES                           PRECINCT 3                                             01 
01150040004000017          Member, State Board of Education, Dist15                UNDER VOTES                           PRECINCT 4                                             01 
01150040005000007          Member, State Board of Education, Dist15                UNDER VOTES                           PRECINCT 6                                             01 
01160010001000066REP       State Senator, District 31 BRISCOE COUNTYWIDE           Kel Seliger                           PRECINCT 1                                             01 
01160010002000132REP       State Senator, District 31 BRISCOE COUNTYWIDE           Kel Seliger                           PRECINCT 2                                             01 
01160010003000140REP       State Senator, District 31 BRISCOE COUNTYWIDE           Kel Seliger                           PRECINCT 3                                             01 
01160010004000171REP       State Senator, District 31 BRISCOE COUNTYWIDE           Kel Seliger                           PRECINCT 4                                             01 
01160010005000030REP       State Senator, District 31 BRISCOE COUNTYWIDE           Kel Seliger                           PRECINCT 6                                             01 
01160020001000000          State Senator, District 31 BRISCOE COUNTYWIDE           OVER VOTES                            PRECINCT 1                                             01 
01160020002000000          State Senator, District 31 BRISCOE COUNTYWIDE           OVER VOTES                            PRECINCT 2                                             01 
01160020003000000          State Senator, District 31 BRISCOE COUNTYWIDE           OVER VOTES                            PRECINCT 3                                             01 
01160020004000000          State Senator, District 31 BRISCOE COUNTYWIDE           OVER VOTES                            PRECINCT 4                                             01 
01160020005000000          State Senator, District 31 BRISCOE COUNTYWIDE           OVER VOTES                            PRECINCT 6                                             01 
01160030001000025          State Senator, District 31 BRISCOE COUNTYWIDE           UNDER VOTES                           PRECINCT 1                                             01 
01160030002000047          State Senator, District 31 BRISCOE COUNTYWIDE           UNDER VOTES                           PRECINCT 2                                             01 
01160030003000041          State Senator, District 31 BRISCOE COUNTYWIDE           UNDER VOTES                           PRECINCT 3                                             01 
01160030004000045          State Senator, District 31 BRISCOE COUNTYWIDE           UNDER VOTES                           PRECINCT 4                                             01 
01160030005000016          State Senator, District 31 BRISCOE COUNTYWIDE           UNDER VOTES                           PRECINCT 6                                             01 
01170010001000064REP       State Representative, District 88 BRISCOE COUNTYWIDE    Ken King                              PRECINCT 1                                             01 
01170010002000129REP       State Representative, District 88 BRISCOE COUNTYWIDE    Ken King                              PRECINCT 2                                             01 
01170010003000138REP       State Representative, District 88 BRISCOE COUNTYWIDE    Ken King                              PRECINCT 3                                             01 
01170010004000163REP       State Representative, District 88 BRISCOE COUNTYWIDE    Ken King                              PRECINCT 4                                             01 
01170010005000030REP       State Representative, District 88 BRISCOE COUNTYWIDE    Ken King                              PRECINCT 6                                             01 
01170020001000000          State Representative, District 88 BRISCOE COUNTYWIDE    OVER VOTES                            PRECINCT 1                                             01 
01170020002000000          State Representative, District 88 BRISCOE COUNTYWIDE    OVER VOTES                            PRECINCT 2                                             01 
01170020003000000          State Representative, District 88 BRISCOE COUNTYWIDE    OVER VOTES                            PRECINCT 3                                             01 
01170020004000000          State Representative, District 88 BRISCOE COUNTYWIDE    OVER VOTES                            PRECINCT 4                                             01 
01170020005000000          State Representative, District 88 BRISCOE COUNTYWIDE    OVER VOTES                            PRECINCT 6                                             01 
01170030001000027          State Representative, District 88 BRISCOE COUNTYWIDE    UNDER VOTES                           PRECINCT 1                                             01 
01170030002000050          State Representative, District 88 BRISCOE COUNTYWIDE    UNDER VOTES                           PRECINCT 2                                             01 
01170030003000043          State Representative, District 88 BRISCOE COUNTYWIDE    UNDER VOTES                           PRECINCT 3                                             01 
01170030004000053          State Representative, District 88 BRISCOE COUNTYWIDE    UNDER VOTES                           PRECINCT 4                                             01 
01170030005000016          State Representative, District 88 BRISCOE COUNTYWIDE    UNDER VOTES                           PRECINCT 6                                             01 
01180010001000064REP       Appeals Court Justice DIST 7, P2 BRISCOE COUNTYWIDE     Mackey K. Hancock                     PRECINCT 1                                             01 
01180010002000126REP       Appeals Court Justice DIST 7, P2 BRISCOE COUNTYWIDE     Mackey K. Hancock                     PRECINCT 2                                             01 
01180010003000131REP       Appeals Court Justice DIST 7, P2 BRISCOE COUNTYWIDE     Mackey K. Hancock                     PRECINCT 3                                             01 
01180010004000156REP       Appeals Court Justice DIST 7, P2 BRISCOE COUNTYWIDE     Mackey K. Hancock                     PRECINCT 4                                             01 
01180010005000029REP       Appeals Court Justice DIST 7, P2 BRISCOE COUNTYWIDE     Mackey K. Hancock                     PRECINCT 6                                             01 
01180020001000000          Appeals Court Justice DIST 7, P2 BRISCOE COUNTYWIDE     OVER VOTES                            PRECINCT 1                                             01 
01180020002000000          Appeals Court Justice DIST 7, P2 BRISCOE COUNTYWIDE     OVER VOTES                            PRECINCT 2                                             01 
01180020003000000          Appeals Court Justice DIST 7, P2 BRISCOE COUNTYWIDE     OVER VOTES                            PRECINCT 3                                             01 
01180020004000000          Appeals Court Justice DIST 7, P2 BRISCOE COUNTYWIDE     OVER VOTES                            PRECINCT 4                                             01 
01180020005000000          Appeals Court Justice DIST 7, P2 BRISCOE COUNTYWIDE     OVER VOTES                            PRECINCT 6                                             01 
01180030001000027          Appeals Court Justice DIST 7, P2 BRISCOE COUNTYWIDE     UNDER VOTES                           PRECINCT 1                                             01 
01180030002000053          Appeals Court Justice DIST 7, P2 BRISCOE COUNTYWIDE     UNDER VOTES                           PRECINCT 2                                             01 
01180030003000050          Appeals Court Justice DIST 7, P2 BRISCOE COUNTYWIDE     UNDER VOTES                           PRECINCT 3                                             01 
01180030004000060          Appeals Court Justice DIST 7, P2 BRISCOE COUNTYWIDE     UNDER VOTES                           PRECINCT 4                                             01 
01180030005000017          Appeals Court Justice DIST 7, P2 BRISCOE COUNTYWIDE     UNDER VOTES                           PRECINCT 6                                             01 
01190010001000062REP       Appeals Court Justice DIST 7, P3 BRISCOE COUNTYWIDE     Pat Pirtle                            PRECINCT 1                                             01 
01190010002000124REP       Appeals Court Justice DIST 7, P3 BRISCOE COUNTYWIDE     Pat Pirtle                            PRECINCT 2                                             01 
01190010003000129REP       Appeals Court Justice DIST 7, P3 BRISCOE COUNTYWIDE     Pat Pirtle                            PRECINCT 3                                             01 
01190010004000159REP       Appeals Court Justice DIST 7, P3 BRISCOE COUNTYWIDE     Pat Pirtle                            PRECINCT 4                                             01 
01190010005000030REP       Appeals Court Justice DIST 7, P3 BRISCOE COUNTYWIDE     Pat Pirtle                            PRECINCT 6                                             01 
01190020001000000          Appeals Court Justice DIST 7, P3 BRISCOE COUNTYWIDE     OVER VOTES                            PRECINCT 1                                             01 
01190020002000000          Appeals Court Justice DIST 7, P3 BRISCOE COUNTYWIDE     OVER VOTES                            PRECINCT 2                                             01 
01190020003000000          Appeals Court Justice DIST 7, P3 BRISCOE COUNTYWIDE     OVER VOTES                            PRECINCT 3                                             01 
01190020004000000          Appeals Court Justice DIST 7, P3 BRISCOE COUNTYWIDE     OVER VOTES                            PRECINCT 4                                             01 
01190020005000000          Appeals Court Justice DIST 7, P3 BRISCOE COUNTYWIDE     OVER VOTES                            PRECINCT 6                                             01 
01190030001000029          Appeals Court Justice DIST 7, P3 BRISCOE COUNTYWIDE     UNDER VOTES                           PRECINCT 1                                             01 
01190030002000055          Appeals Court Justice DIST 7, P3 BRISCOE COUNTYWIDE     UNDER VOTES                           PRECINCT 2                                             01 
01190030003000052          Appeals Court Justice DIST 7, P3 BRISCOE COUNTYWIDE     UNDER VOTES                           PRECINCT 3                                             01 
01190030004000057          Appeals Court Justice DIST 7, P3 BRISCOE COUNTYWIDE     UNDER VOTES                           PRECINCT 4                                             01 
01190030005000016          Appeals Court Justice DIST 7, P3 BRISCOE COUNTYWIDE     UNDER VOTES                           PRECINCT 6                                             01 
01200010001000045DEM       District Attorney, 110th Judicial DIST                  Becky Bybee McPherson                 PRECINCT 1                                             01 
01200010002000096DEM       District Attorney, 110th Judicial DIST                  Becky Bybee McPherson                 PRECINCT 2                                             01 
01200010003000105DEM       District Attorney, 110th Judicial DIST                  Becky Bybee McPherson                 PRECINCT 3                                             01 
01200010004000124DEM       District Attorney, 110th Judicial DIST                  Becky Bybee McPherson                 PRECINCT 4                                             01 
01200010005000027DEM       District Attorney, 110th Judicial DIST                  Becky Bybee McPherson                 PRECINCT 6                                             01 
01200020001000000          District Attorney, 110th Judicial DIST                  OVER VOTES                            PRECINCT 1                                             01 
01200020002000000          District Attorney, 110th Judicial DIST                  OVER VOTES                            PRECINCT 2                                             01 
01200020003000000          District Attorney, 110th Judicial DIST                  OVER VOTES                            PRECINCT 3                                             01 
01200020004000000          District Attorney, 110th Judicial DIST                  OVER VOTES                            PRECINCT 4                                             01 
01200020005000000          District Attorney, 110th Judicial DIST                  OVER VOTES                            PRECINCT 6                                             01 
01200030001000046          District Attorney, 110th Judicial DIST                  UNDER VOTES                           PRECINCT 1                                             01 
01200030002000082          District Attorney, 110th Judicial DIST                  UNDER VOTES                           PRECINCT 2                                             01 
01200030003000076          District Attorney, 110th Judicial DIST                  UNDER VOTES                           PRECINCT 3                                             01 
01200030004000092          District Attorney, 110th Judicial DIST                  UNDER VOTES                           PRECINCT 4                                             01 
01200030005000019          District Attorney, 110th Judicial DIST                  UNDER VOTES                           PRECINCT 6                                             01 
01210010001000068REP       County Attorney BRISCOE COUNTYWIDE                      Emily Roy Teegardin                   PRECINCT 1                                             01 
01210010002000137REP       County Attorney BRISCOE COUNTYWIDE                      Emily Roy Teegardin                   PRECINCT 2                                             01 
01210010003000146REP       County Attorney BRISCOE COUNTYWIDE                      Emily Roy Teegardin                   PRECINCT 3                                             01 
01210010004000163REP       County Attorney BRISCOE COUNTYWIDE                      Emily Roy Teegardin                   PRECINCT 4                                             01 
01210010005000034REP       County Attorney BRISCOE COUNTYWIDE                      Emily Roy Teegardin                   PRECINCT 6                                             01 
01210020001000000          County Attorney BRISCOE COUNTYWIDE                      OVER VOTES                            PRECINCT 1                                             01 
01210020002000000          County Attorney BRISCOE COUNTYWIDE                      OVER VOTES                            PRECINCT 2                                             01 
01210020003000000          County Attorney BRISCOE COUNTYWIDE                      OVER VOTES                            PRECINCT 3                                             01 
01210020004000000          County Attorney BRISCOE COUNTYWIDE                      OVER VOTES                            PRECINCT 4                                             01 
01210020005000000          County Attorney BRISCOE COUNTYWIDE                      OVER VOTES                            PRECINCT 6                                             01 
01210030001000023          County Attorney BRISCOE COUNTYWIDE                      UNDER VOTES                           PRECINCT 1                                             01 
01210030002000042          County Attorney BRISCOE COUNTYWIDE                      UNDER VOTES                           PRECINCT 2                                             01 
01210030003000035          County Attorney BRISCOE COUNTYWIDE                      UNDER VOTES                           PRECINCT 3                                             01 
01210030004000053          County Attorney BRISCOE COUNTYWIDE                      UNDER VOTES                           PRECINCT 4                                             01 
01210030005000012          County Attorney BRISCOE COUNTYWIDE                      UNDER VOTES                           PRECINCT 6                                             01 
01220010001000073REP       Sheriff BRISCOE COUNTYWIDE                              Garrett Davis                         PRECINCT 1                                             01 
01220010002000141REP       Sheriff BRISCOE COUNTYWIDE                              Garrett Davis                         PRECINCT 2                                             01 
01220010003000155REP       Sheriff BRISCOE COUNTYWIDE                              Garrett Davis                         PRECINCT 3                                             01 
01220010004000180REP       Sheriff BRISCOE COUNTYWIDE                              Garrett Davis                         PRECINCT 4                                             01 
01220010005000038REP       Sheriff BRISCOE COUNTYWIDE                              Garrett Davis                         PRECINCT 6                                             01 
01220020001000000          Sheriff BRISCOE COUNTYWIDE                              OVER VOTES                            PRECINCT 1                                             01 
01220020002000000          Sheriff BRISCOE COUNTYWIDE                              OVER VOTES                            PRECINCT 2                                             01 
01220020003000000          Sheriff BRISCOE COUNTYWIDE                              OVER VOTES                            PRECINCT 3                                             01 
01220020004000000          Sheriff BRISCOE COUNTYWIDE                              OVER VOTES                            PRECINCT 4                                             01 
01220020005000000          Sheriff BRISCOE COUNTYWIDE                              OVER VOTES                            PRECINCT 6                                             01 
01220030001000018          Sheriff BRISCOE COUNTYWIDE                              UNDER VOTES                           PRECINCT 1                                             01 
01220030002000038          Sheriff BRISCOE COUNTYWIDE                              UNDER VOTES                           PRECINCT 2                                             01 
01220030003000026          Sheriff BRISCOE COUNTYWIDE                              UNDER VOTES                           PRECINCT 3                                             01 
01220030004000036          Sheriff BRISCOE COUNTYWIDE                              UNDER VOTES                           PRECINCT 4                                             01 
01220030005000008          Sheriff BRISCOE COUNTYWIDE                              UNDER VOTES                           PRECINCT 6                                             01 
01230010001000054DEM       County Tax Assessor-Collector BRISCOE COUNTYWIDE        Jon Etta Ziegler                      PRECINCT 1                                             01 
01230010002000120DEM       County Tax Assessor-Collector BRISCOE COUNTYWIDE        Jon Etta Ziegler                      PRECINCT 2                                             01 
01230010003000130DEM       County Tax Assessor-Collector BRISCOE COUNTYWIDE        Jon Etta Ziegler                      PRECINCT 3                                             01 
01230010004000134DEM       County Tax Assessor-Collector BRISCOE COUNTYWIDE        Jon Etta Ziegler                      PRECINCT 4                                             01 
01230010005000031DEM       County Tax Assessor-Collector BRISCOE COUNTYWIDE        Jon Etta Ziegler                      PRECINCT 6                                             01 
01230020001000000          County Tax Assessor-Collector BRISCOE COUNTYWIDE        OVER VOTES                            PRECINCT 1                                             01 
01230020002000000          County Tax Assessor-Collector BRISCOE COUNTYWIDE        OVER VOTES                            PRECINCT 2                                             01 
01230020003000000          County Tax Assessor-Collector BRISCOE COUNTYWIDE        OVER VOTES                            PRECINCT 3                                             01 
01230020004000000          County Tax Assessor-Collector BRISCOE COUNTYWIDE        OVER VOTES                            PRECINCT 4                                             01 
01230020005000000          County Tax Assessor-Collector BRISCOE COUNTYWIDE        OVER VOTES                            PRECINCT 6                                             01 
01230030001000037          County Tax Assessor-Collector BRISCOE COUNTYWIDE        UNDER VOTES                           PRECINCT 1                                             01 
01230030002000059          County Tax Assessor-Collector BRISCOE COUNTYWIDE        UNDER VOTES                           PRECINCT 2                                             01 
01230030003000051          County Tax Assessor-Collector BRISCOE COUNTYWIDE        UNDER VOTES                           PRECINCT 3                                             01 
01230030004000082          County Tax Assessor-Collector BRISCOE COUNTYWIDE        UNDER VOTES                           PRECINCT 4                                             01 
01230030005000015          County Tax Assessor-Collector BRISCOE COUNTYWIDE        UNDER VOTES                           PRECINCT 6                                             01 
01240010001000064REPCOMM01 County Commissioner, PCT 1 COMMISSIONER PCT 1           Jimmy Burson                          PRECINCT 1                                             01 
01240010005000033REPCOMM01 County Commissioner, PCT 1 COMMISSIONER PCT 1           Jimmy Burson                          PRECINCT 6                                             01 
01240020001000000   COMM01 County Commissioner, PCT 1 COMMISSIONER PCT 1           OVER VOTES                            PRECINCT 1                                             01 
01240020005000000   COMM01 County Commissioner, PCT 1 COMMISSIONER PCT 1           OVER VOTES                            PRECINCT 6                                             01 
01240030001000027   COMM01 County Commissioner, PCT 1 COMMISSIONER PCT 1           UNDER VOTES                           PRECINCT 1                                             01 
01240030005000013   COMM01 County Commissioner, PCT 1 COMMISSIONER PCT 1           UNDER VOTES                           PRECINCT 6                                             01 
01250010002000075REPCOMM02 County Commissioner PCT 2                               Roland Hamilton                       PRECINCT 2                                             01 
01250020002000093DEMCOMM02 County Commissioner PCT 2                               Wade Proctor                          PRECINCT 2                                             01 
01250030002000000   COMM02 County Commissioner PCT 2                               OVER VOTES                            PRECINCT 2                                             01 
01250040002000009   COMM02 County Commissioner PCT 2                               UNDER VOTES                           PRECINCT 2                                             01 
01260010003000112REPCOMM03 County Commissioner, PCT 3 COMMISSIONER PCT 3           Dewey Estes                           PRECINCT 3                                             01 
01260020003000064DEMCOMM03 County Commissioner, PCT 3 COMMISSIONER PCT 3           Larry Comer                           PRECINCT 3                                             01 
01260030003000000   COMM03 County Commissioner, PCT 3 COMMISSIONER PCT 3           OVER VOTES                            PRECINCT 3                                             01 
01260040003000005   COMM03 County Commissioner, PCT 3 COMMISSIONER PCT 3           UNDER VOTES                           PRECINCT 3                                             01 
