01030010001000000NON       President                                               John Davis                            PRECINCT 1                                             01 
01030010002000000NON       President                                               John Davis                            PRECINCT 2                                             01 
01030010003000001NON       President                                               John Davis                            PRECINCT 3                                             01 
01030010004000002NON       President                                               John Davis                            PRECINCT 4                                             01 
01030010005000000NON       President                                               John Davis                            PRECINCT 5                                             01 
01030010006000000NON       President                                               John Davis                            PRECINCT 6                                             01 
01030010007000000NON       President                                               John Davis                            PRECINCT 7                                             01 
01030010008000000NON       President                                               John Davis                            PRECINCT 8                                             01 
01030010009000001NON       President                                               John Davis                            PRECINCT 9                                             01 
01030010010000001NON       President                                               John Davis                            PRECINCT 10                                            01 
01030010011000001NON       President                                               John Davis                            PRECINCT 11                                            01 
01030010012000005NON       President                                               John Davis                            PRECINCT 12                                            01 
01030010013000000NON       President                                               John Davis                            PRECINCT 13                                            01 
01030010014000002NON       President                                               John Davis                            PRECINCT 14                                            01 
01030010015000003NON       President                                               John Davis                            PRECINCT 15                                            01 
01030010016000000NON       President                                               John Davis                            PRECINCT 16                                            01 
01030010017000000NON       President                                               John Davis                            PRECINCT 17                                            01 
01030010018000001NON       President                                               John Davis                            PRECINCT 18                                            01 
01030010019000002NON       President                                               John Davis                            PRECINCT 19                                            01 
01030010020000001NON       President                                               John Davis                            PRECINCT 20                                            01 
01030010021000000NON       President                                               John Davis                            PRECINCT 21                                            01 
01030010022000000NON       President                                               John Davis                            PRECINCT 22                                            01 
01030010023000000NON       President                                               John Davis                            PRECINCT 23                                            01 
01030010024000000NON       President                                               John Davis                            PRECINCT 24                                            01 
01030010025000000NON       President                                               John Davis                            PRECINCT 25                                            01 
01030010026000002NON       President                                               John Davis                            PRECINCT 26                                            01 
01030010027000000NON       President                                               John Davis                            PRECINCT 27                                            01 
01030010028000000NON       President                                               John Davis                            PRECINCT 28                                            01 
01030010029000000NON       President                                               John Davis                            PRECINCT 29                                            01 
01030010030000000NON       President                                               John Davis                            PRECINCT 30                                            01 
01030010031000000NON       President                                               John Davis                            PRECINCT 31                                            01 
01030010032000001NON       President                                               John Davis                            PRECINCT 32                                            01 
01030010033000000NON       President                                               John Davis                            PRECINCT 33                                            01 
01030010034000000NON       President                                               John Davis                            PRECINCT 34                                            01 
01030010035000000NON       President                                               John Davis                            PRECINCT 35                                            01 
01030010036000001NON       President                                               John Davis                            PRECINCT 36                                            01 
01030010037000001NON       President                                               John Davis                            PRECINCT 37                                            01 
01030010038000001NON       President                                               John Davis                            PRECINCT 38                                            01 
01030010039000000NON       President                                               John Davis                            PRECINCT 39                                            01 
01030010040000002NON       President                                               John Davis                            PRECINCT 40                                            01 
01030010041000000NON       President                                               John Davis                            PRECINCT 41                                            01 
01030010042000000NON       President                                               John Davis                            PRECINCT 42                                            01 
01030010043000000NON       President                                               John Davis                            PRECINCT 43                                            01 
01030010044000001NON       President                                               John Davis                            PRECINCT 44                                            01 
01030010045000003NON       President                                               John Davis                            PRECINCT 45                                            01 
01030010046000002NON       President                                               John Davis                            PRECINCT 46                                            01 
01030010047000000NON       President                                               John Davis                            PRECINCT 47                                            01 
01030010048000001NON       President                                               John Davis                            PRECINCT 48                                            01 
01030010049000000NON       President                                               John Davis                            PRECINCT 49                                            01 
01030010050000000NON       President                                               John Davis                            PRECINCT 50                                            01 
01030010051000000NON       President                                               John Davis                            PRECINCT 51                                            01 
01030010052000001NON       President                                               John Davis                            PRECINCT 52                                            01 
01030010053000000NON       President                                               John Davis                            PRECINCT 53                                            01 
01030010054000001NON       President                                               John Davis                            PRECINCT 54                                            01 
01030010055000003NON       President                                               John Davis                            PRECINCT 55                                            01 
01030010056000000NON       President                                               John Davis                            PRECINCT 56                                            01 
01030010057000000NON       President                                               John Davis                            PRECINCT 57                                            01 
01030010058000000NON       President                                               John Davis                            PRECINCT 58                                            01 
01030010059000000NON       President                                               John Davis                            PRECINCT 59                                            01 
01030010060000001NON       President                                               John Davis                            PRECINCT 60                                            01 
01030010061000000NON       President                                               John Davis                            PRECINCT 61                                            01 
01030010062000002NON       President                                               John Davis                            PRECINCT 62                                            01 
01030010063000001NON       President                                               John Davis                            PRECINCT 63                                            01 
01030010064000000NON       President                                               John Davis                            PRECINCT 64                                            01 
01030010065000001NON       President                                               John Davis                            PRECINCT 65                                            01 
01030010066000003NON       President                                               John Davis                            PRECINCT 66                                            01 
01030010067000001NON       President                                               John Davis                            PRECINCT 67                                            01 
01030010068000001NON       President                                               John Davis                            PRECINCT 68                                            01 
01030010069000001NON       President                                               John Davis                            PRECINCT 69                                            01 
01030010070000002NON       President                                               John Davis                            PRECINCT 70                                            01 
01030010071000000NON       President                                               John Davis                            PRECINCT 71                                            01 
01030010072000001NON       President                                               John Davis                            PRECINCT 72                                            01 
01030010073000001NON       President                                               John Davis                            PRECINCT 73                                            01 
01030010074000008NON       President                                               John Davis                            PRECINCT 74                                            01 
01030010075000001NON       President                                               John Davis                            PRECINCT 75                                            01 
01030010076000000NON       President                                               John Davis                            PRECINCT 76                                            01 
01030010077000002NON       President                                               John Davis                            PRECINCT 77                                            01 
01030010078000000NON       President                                               John Davis                            PRECINCT 78                                            01 
01030010079000000NON       President                                               John Davis                            PRECINCT 79                                            01 
01030010080000001NON       President                                               John Davis                            PRECINCT 80                                            01 
01030010081000000NON       President                                               John Davis                            PRECINCT 81                                            01 
01030010082000003NON       President                                               John Davis                            PRECINCT 82                                            01 
01030010083000000NON       President                                               John Davis                            PRECINCT 83                                            01 
01030010084000000NON       President                                               John Davis                            PRECINCT 84                                            01 
01030010085000000NON       President                                               John Davis                            PRECINCT 85                                            01 
01030010086000000NON       President                                               John Davis                            PRECINCT 86                                            01 
01030010087000001NON       President                                               John Davis                            PRECINCT 87                                            01 
01030010088000000NON       President                                               John Davis                            PRECINCT 95                                            01 
01030010089000000NON       President                                               John Davis                            PRECINCT 96                                            01 
01030010090000001NON       President                                               John Davis                            PRECINCT 97                                            01 
01030010091000001NON       President                                               John Davis                            PRECINCT 98                                            01 
01030010092000000NON       President                                               John Davis                            PRECINCT 99                                            01 
01030010093000000NON       President                                               John Davis                            PRECINCT 100                                           01 
01030010094000000NON       President                                               John Davis                            PRECINCT 101                                           01 
01030010095000000NON       President                                               John Davis                            PRECINCT 102                                           01 
01030010096000000NON       President                                               John Davis                            PRECINCT 103                                           01 
01030010097000000NON       President                                               John Davis                            PRECINCT 104                                           01 
01030020001000001NON       President                                               Michele Bachmann                      PRECINCT 1                                             01 
01030020002000001NON       President                                               Michele Bachmann                      PRECINCT 2                                             01 
01030020003000001NON       President                                               Michele Bachmann                      PRECINCT 3                                             01 
01030020004000002NON       President                                               Michele Bachmann                      PRECINCT 4                                             01 
01030020005000000NON       President                                               Michele Bachmann                      PRECINCT 5                                             01 
01030020006000001NON       President                                               Michele Bachmann                      PRECINCT 6                                             01 
01030020007000000NON       President                                               Michele Bachmann                      PRECINCT 7                                             01 
01030020008000000NON       President                                               Michele Bachmann                      PRECINCT 8                                             01 
01030020009000001NON       President                                               Michele Bachmann                      PRECINCT 9                                             01 
01030020010000000NON       President                                               Michele Bachmann                      PRECINCT 10                                            01 
01030020011000000NON       President                                               Michele Bachmann                      PRECINCT 11                                            01 
01030020012000001NON       President                                               Michele Bachmann                      PRECINCT 12                                            01 
01030020013000000NON       President                                               Michele Bachmann                      PRECINCT 13                                            01 
01030020014000000NON       President                                               Michele Bachmann                      PRECINCT 14                                            01 
01030020015000000NON       President                                               Michele Bachmann                      PRECINCT 15                                            01 
01030020016000000NON       President                                               Michele Bachmann                      PRECINCT 16                                            01 
01030020017000001NON       President                                               Michele Bachmann                      PRECINCT 17                                            01 
01030020018000000NON       President                                               Michele Bachmann                      PRECINCT 18                                            01 
01030020019000002NON       President                                               Michele Bachmann                      PRECINCT 19                                            01 
01030020020000001NON       President                                               Michele Bachmann                      PRECINCT 20                                            01 
01030020021000000NON       President                                               Michele Bachmann                      PRECINCT 21                                            01 
01030020022000001NON       President                                               Michele Bachmann                      PRECINCT 22                                            01 
01030020023000000NON       President                                               Michele Bachmann                      PRECINCT 23                                            01 
01030020024000000NON       President                                               Michele Bachmann                      PRECINCT 24                                            01 
01030020025000000NON       President                                               Michele Bachmann                      PRECINCT 25                                            01 
01030020026000002NON       President                                               Michele Bachmann                      PRECINCT 26                                            01 
01030020027000000NON       President                                               Michele Bachmann                      PRECINCT 27                                            01 
01030020028000002NON       President                                               Michele Bachmann                      PRECINCT 28                                            01 
01030020029000000NON       President                                               Michele Bachmann                      PRECINCT 29                                            01 
01030020030000001NON       President                                               Michele Bachmann                      PRECINCT 30                                            01 
01030020031000000NON       President                                               Michele Bachmann                      PRECINCT 31                                            01 
01030020032000001NON       President                                               Michele Bachmann                      PRECINCT 32                                            01 
01030020033000000NON       President                                               Michele Bachmann                      PRECINCT 33                                            01 
01030020034000000NON       President                                               Michele Bachmann                      PRECINCT 34                                            01 
01030020035000001NON       President                                               Michele Bachmann                      PRECINCT 35                                            01 
01030020036000000NON       President                                               Michele Bachmann                      PRECINCT 36                                            01 
01030020037000001NON       President                                               Michele Bachmann                      PRECINCT 37                                            01 
01030020038000000NON       President                                               Michele Bachmann                      PRECINCT 38                                            01 
01030020039000000NON       President                                               Michele Bachmann                      PRECINCT 39                                            01 
01030020040000000NON       President                                               Michele Bachmann                      PRECINCT 40                                            01 
01030020041000000NON       President                                               Michele Bachmann                      PRECINCT 41                                            01 
01030020042000000NON       President                                               Michele Bachmann                      PRECINCT 42                                            01 
01030020043000000NON       President                                               Michele Bachmann                      PRECINCT 43                                            01 
01030020044000001NON       President                                               Michele Bachmann                      PRECINCT 44                                            01 
01030020045000002NON       President                                               Michele Bachmann                      PRECINCT 45                                            01 
01030020046000000NON       President                                               Michele Bachmann                      PRECINCT 46                                            01 
01030020047000001NON       President                                               Michele Bachmann                      PRECINCT 47                                            01 
01030020048000000NON       President                                               Michele Bachmann                      PRECINCT 48                                            01 
01030020049000000NON       President                                               Michele Bachmann                      PRECINCT 49                                            01 
01030020050000000NON       President                                               Michele Bachmann                      PRECINCT 50                                            01 
01030020051000000NON       President                                               Michele Bachmann                      PRECINCT 51                                            01 
01030020052000003NON       President                                               Michele Bachmann                      PRECINCT 52                                            01 
01030020053000001NON       President                                               Michele Bachmann                      PRECINCT 53                                            01 
01030020054000003NON       President                                               Michele Bachmann                      PRECINCT 54                                            01 
01030020055000002NON       President                                               Michele Bachmann                      PRECINCT 55                                            01 
01030020056000000NON       President                                               Michele Bachmann                      PRECINCT 56                                            01 
01030020057000000NON       President                                               Michele Bachmann                      PRECINCT 57                                            01 
01030020058000001NON       President                                               Michele Bachmann                      PRECINCT 58                                            01 
01030020059000001NON       President                                               Michele Bachmann                      PRECINCT 59                                            01 
01030020060000002NON       President                                               Michele Bachmann                      PRECINCT 60                                            01 
01030020061000001NON       President                                               Michele Bachmann                      PRECINCT 61                                            01 
01030020062000000NON       President                                               Michele Bachmann                      PRECINCT 62                                            01 
01030020063000000NON       President                                               Michele Bachmann                      PRECINCT 63                                            01 
01030020064000001NON       President                                               Michele Bachmann                      PRECINCT 64                                            01 
01030020065000002NON       President                                               Michele Bachmann                      PRECINCT 65                                            01 
01030020066000006NON       President                                               Michele Bachmann                      PRECINCT 66                                            01 
01030020067000000NON       President                                               Michele Bachmann                      PRECINCT 67                                            01 
01030020068000001NON       President                                               Michele Bachmann                      PRECINCT 68                                            01 
01030020069000000NON       President                                               Michele Bachmann                      PRECINCT 69                                            01 
01030020070000000NON       President                                               Michele Bachmann                      PRECINCT 70                                            01 
01030020071000000NON       President                                               Michele Bachmann                      PRECINCT 71                                            01 
01030020072000001NON       President                                               Michele Bachmann                      PRECINCT 72                                            01 
01030020073000005NON       President                                               Michele Bachmann                      PRECINCT 73                                            01 
01030020074000001NON       President                                               Michele Bachmann                      PRECINCT 74                                            01 
01030020075000000NON       President                                               Michele Bachmann                      PRECINCT 75                                            01 
01030020076000001NON       President                                               Michele Bachmann                      PRECINCT 76                                            01 
01030020077000001NON       President                                               Michele Bachmann                      PRECINCT 77                                            01 
01030020078000000NON       President                                               Michele Bachmann                      PRECINCT 78                                            01 
01030020079000003NON       President                                               Michele Bachmann                      PRECINCT 79                                            01 
01030020080000002NON       President                                               Michele Bachmann                      PRECINCT 80                                            01 
01030020081000001NON       President                                               Michele Bachmann                      PRECINCT 81                                            01 
01030020082000001NON       President                                               Michele Bachmann                      PRECINCT 82                                            01 
01030020083000000NON       President                                               Michele Bachmann                      PRECINCT 83                                            01 
01030020084000001NON       President                                               Michele Bachmann                      PRECINCT 84                                            01 
01030020085000001NON       President                                               Michele Bachmann                      PRECINCT 85                                            01 
01030020086000000NON       President                                               Michele Bachmann                      PRECINCT 86                                            01 
01030020087000001NON       President                                               Michele Bachmann                      PRECINCT 87                                            01 
01030020088000000NON       President                                               Michele Bachmann                      PRECINCT 95                                            01 
01030020089000000NON       President                                               Michele Bachmann                      PRECINCT 96                                            01 
01030020090000001NON       President                                               Michele Bachmann                      PRECINCT 97                                            01 
01030020091000002NON       President                                               Michele Bachmann                      PRECINCT 98                                            01 
01030020092000000NON       President                                               Michele Bachmann                      PRECINCT 99                                            01 
01030020093000003NON       President                                               Michele Bachmann                      PRECINCT 100                                           01 
01030020094000000NON       President                                               Michele Bachmann                      PRECINCT 101                                           01 
01030020095000002NON       President                                               Michele Bachmann                      PRECINCT 102                                           01 
01030020096000000NON       President                                               Michele Bachmann                      PRECINCT 103                                           01 
01030020097000000NON       President                                               Michele Bachmann                      PRECINCT 104                                           01 
01030030001000002NON       President                                               Newt Gingrich                         PRECINCT 1                                             01 
01030030002000000NON       President                                               Newt Gingrich                         PRECINCT 2                                             01 
01030030003000002NON       President                                               Newt Gingrich                         PRECINCT 3                                             01 
01030030004000005NON       President                                               Newt Gingrich                         PRECINCT 4                                             01 
01030030005000001NON       President                                               Newt Gingrich                         PRECINCT 5                                             01 
01030030006000000NON       President                                               Newt Gingrich                         PRECINCT 6                                             01 
01030030007000000NON       President                                               Newt Gingrich                         PRECINCT 7                                             01 
01030030008000000NON       President                                               Newt Gingrich                         PRECINCT 8                                             01 
01030030009000000NON       President                                               Newt Gingrich                         PRECINCT 9                                             01 
01030030010000000NON       President                                               Newt Gingrich                         PRECINCT 10                                            01 
01030030011000001NON       President                                               Newt Gingrich                         PRECINCT 11                                            01 
01030030012000001NON       President                                               Newt Gingrich                         PRECINCT 12                                            01 
01030030013000001NON       President                                               Newt Gingrich                         PRECINCT 13                                            01 
01030030014000003NON       President                                               Newt Gingrich                         PRECINCT 14                                            01 
01030030015000001NON       President                                               Newt Gingrich                         PRECINCT 15                                            01 
01030030016000001NON       President                                               Newt Gingrich                         PRECINCT 16                                            01 
01030030017000001NON       President                                               Newt Gingrich                         PRECINCT 17                                            01 
01030030018000000NON       President                                               Newt Gingrich                         PRECINCT 18                                            01 
01030030019000003NON       President                                               Newt Gingrich                         PRECINCT 19                                            01 
01030030020000003NON       President                                               Newt Gingrich                         PRECINCT 20                                            01 
01030030021000000NON       President                                               Newt Gingrich                         PRECINCT 21                                            01 
01030030022000004NON       President                                               Newt Gingrich                         PRECINCT 22                                            01 
01030030023000000NON       President                                               Newt Gingrich                         PRECINCT 23                                            01 
01030030024000000NON       President                                               Newt Gingrich                         PRECINCT 24                                            01 
01030030025000001NON       President                                               Newt Gingrich                         PRECINCT 25                                            01 
01030030026000003NON       President                                               Newt Gingrich                         PRECINCT 26                                            01 
01030030027000000NON       President                                               Newt Gingrich                         PRECINCT 27                                            01 
01030030028000003NON       President                                               Newt Gingrich                         PRECINCT 28                                            01 
01030030029000003NON       President                                               Newt Gingrich                         PRECINCT 29                                            01 
01030030030000001NON       President                                               Newt Gingrich                         PRECINCT 30                                            01 
01030030031000001NON       President                                               Newt Gingrich                         PRECINCT 31                                            01 
01030030032000002NON       President                                               Newt Gingrich                         PRECINCT 32                                            01 
01030030033000001NON       President                                               Newt Gingrich                         PRECINCT 33                                            01 
01030030034000000NON       President                                               Newt Gingrich                         PRECINCT 34                                            01 
01030030035000007NON       President                                               Newt Gingrich                         PRECINCT 35                                            01 
01030030036000000NON       President                                               Newt Gingrich                         PRECINCT 36                                            01 
01030030037000000NON       President                                               Newt Gingrich                         PRECINCT 37                                            01 
01030030038000004NON       President                                               Newt Gingrich                         PRECINCT 38                                            01 
01030030039000000NON       President                                               Newt Gingrich                         PRECINCT 39                                            01 
01030030040000008NON       President                                               Newt Gingrich                         PRECINCT 40                                            01 
01030030041000003NON       President                                               Newt Gingrich                         PRECINCT 41                                            01 
01030030042000001NON       President                                               Newt Gingrich                         PRECINCT 42                                            01 
01030030043000001NON       President                                               Newt Gingrich                         PRECINCT 43                                            01 
01030030044000011NON       President                                               Newt Gingrich                         PRECINCT 44                                            01 
01030030045000000NON       President                                               Newt Gingrich                         PRECINCT 45                                            01 
01030030046000004NON       President                                               Newt Gingrich                         PRECINCT 46                                            01 
01030030047000001NON       President                                               Newt Gingrich                         PRECINCT 47                                            01 
01030030048000002NON       President                                               Newt Gingrich                         PRECINCT 48                                            01 
01030030049000002NON       President                                               Newt Gingrich                         PRECINCT 49                                            01 
01030030050000003NON       President                                               Newt Gingrich                         PRECINCT 50                                            01 
01030030051000000NON       President                                               Newt Gingrich                         PRECINCT 51                                            01 
01030030052000009NON       President                                               Newt Gingrich                         PRECINCT 52                                            01 
01030030053000001NON       President                                               Newt Gingrich                         PRECINCT 53                                            01 
01030030054000002NON       President                                               Newt Gingrich                         PRECINCT 54                                            01 
01030030055000004NON       President                                               Newt Gingrich                         PRECINCT 55                                            01 
01030030056000004NON       President                                               Newt Gingrich                         PRECINCT 56                                            01 
01030030057000002NON       President                                               Newt Gingrich                         PRECINCT 57                                            01 
01030030058000006NON       President                                               Newt Gingrich                         PRECINCT 58                                            01 
01030030059000000NON       President                                               Newt Gingrich                         PRECINCT 59                                            01 
01030030060000002NON       President                                               Newt Gingrich                         PRECINCT 60                                            01 
01030030061000001NON       President                                               Newt Gingrich                         PRECINCT 61                                            01 
01030030062000003NON       President                                               Newt Gingrich                         PRECINCT 62                                            01 
01030030063000001NON       President                                               Newt Gingrich                         PRECINCT 63                                            01 
01030030064000001NON       President                                               Newt Gingrich                         PRECINCT 64                                            01 
01030030065000004NON       President                                               Newt Gingrich                         PRECINCT 65                                            01 
01030030066000009NON       President                                               Newt Gingrich                         PRECINCT 66                                            01 
01030030067000013NON       President                                               Newt Gingrich                         PRECINCT 67                                            01 
01030030068000000NON       President                                               Newt Gingrich                         PRECINCT 68                                            01 
01030030069000001NON       President                                               Newt Gingrich                         PRECINCT 69                                            01 
01030030070000000NON       President                                               Newt Gingrich                         PRECINCT 70                                            01 
01030030071000000NON       President                                               Newt Gingrich                         PRECINCT 71                                            01 
01030030072000009NON       President                                               Newt Gingrich                         PRECINCT 72                                            01 
01030030073000003NON       President                                               Newt Gingrich                         PRECINCT 73                                            01 
01030030074000002NON       President                                               Newt Gingrich                         PRECINCT 74                                            01 
01030030075000000NON       President                                               Newt Gingrich                         PRECINCT 75                                            01 
01030030076000002NON       President                                               Newt Gingrich                         PRECINCT 76                                            01 
01030030077000000NON       President                                               Newt Gingrich                         PRECINCT 77                                            01 
01030030078000003NON       President                                               Newt Gingrich                         PRECINCT 78                                            01 
01030030079000006NON       President                                               Newt Gingrich                         PRECINCT 79                                            01 
01030030080000015NON       President                                               Newt Gingrich                         PRECINCT 80                                            01 
01030030081000000NON       President                                               Newt Gingrich                         PRECINCT 81                                            01 
01030030082000000NON       President                                               Newt Gingrich                         PRECINCT 82                                            01 
01030030083000001NON       President                                               Newt Gingrich                         PRECINCT 83                                            01 
01030030084000004NON       President                                               Newt Gingrich                         PRECINCT 84                                            01 
01030030085000000NON       President                                               Newt Gingrich                         PRECINCT 85                                            01 
01030030086000001NON       President                                               Newt Gingrich                         PRECINCT 86                                            01 
01030030087000005NON       President                                               Newt Gingrich                         PRECINCT 87                                            01 
01030030088000001NON       President                                               Newt Gingrich                         PRECINCT 95                                            01 
01030030089000000NON       President                                               Newt Gingrich                         PRECINCT 96                                            01 
01030030090000001NON       President                                               Newt Gingrich                         PRECINCT 97                                            01 
01030030091000003NON       President                                               Newt Gingrich                         PRECINCT 98                                            01 
01030030092000000NON       President                                               Newt Gingrich                         PRECINCT 99                                            01 
01030030093000000NON       President                                               Newt Gingrich                         PRECINCT 100                                           01 
01030030094000002NON       President                                               Newt Gingrich                         PRECINCT 101                                           01 
01030030095000000NON       President                                               Newt Gingrich                         PRECINCT 102                                           01 
01030030096000000NON       President                                               Newt Gingrich                         PRECINCT 103                                           01 
01030030097000000NON       President                                               Newt Gingrich                         PRECINCT 104                                           01 
01030040001000000NON       President                                               Jon Huntsman                          PRECINCT 1                                             01 
01030040002000000NON       President                                               Jon Huntsman                          PRECINCT 2                                             01 
01030040003000000NON       President                                               Jon Huntsman                          PRECINCT 3                                             01 
01030040004000000NON       President                                               Jon Huntsman                          PRECINCT 4                                             01 
01030040005000000NON       President                                               Jon Huntsman                          PRECINCT 5                                             01 
01030040006000000NON       President                                               Jon Huntsman                          PRECINCT 6                                             01 
01030040007000000NON       President                                               Jon Huntsman                          PRECINCT 7                                             01 
01030040008000000NON       President                                               Jon Huntsman                          PRECINCT 8                                             01 
01030040009000000NON       President                                               Jon Huntsman                          PRECINCT 9                                             01 
01030040010000000NON       President                                               Jon Huntsman                          PRECINCT 10                                            01 
01030040011000000NON       President                                               Jon Huntsman                          PRECINCT 11                                            01 
01030040012000000NON       President                                               Jon Huntsman                          PRECINCT 12                                            01 
01030040013000000NON       President                                               Jon Huntsman                          PRECINCT 13                                            01 
01030040014000000NON       President                                               Jon Huntsman                          PRECINCT 14                                            01 
01030040015000000NON       President                                               Jon Huntsman                          PRECINCT 15                                            01 
01030040016000000NON       President                                               Jon Huntsman                          PRECINCT 16                                            01 
01030040017000001NON       President                                               Jon Huntsman                          PRECINCT 17                                            01 
01030040018000000NON       President                                               Jon Huntsman                          PRECINCT 18                                            01 
01030040019000000NON       President                                               Jon Huntsman                          PRECINCT 19                                            01 
01030040020000000NON       President                                               Jon Huntsman                          PRECINCT 20                                            01 
01030040021000000NON       President                                               Jon Huntsman                          PRECINCT 21                                            01 
01030040022000000NON       President                                               Jon Huntsman                          PRECINCT 22                                            01 
01030040023000000NON       President                                               Jon Huntsman                          PRECINCT 23                                            01 
01030040024000000NON       President                                               Jon Huntsman                          PRECINCT 24                                            01 
01030040025000000NON       President                                               Jon Huntsman                          PRECINCT 25                                            01 
01030040026000001NON       President                                               Jon Huntsman                          PRECINCT 26                                            01 
01030040027000000NON       President                                               Jon Huntsman                          PRECINCT 27                                            01 
01030040028000000NON       President                                               Jon Huntsman                          PRECINCT 28                                            01 
01030040029000001NON       President                                               Jon Huntsman                          PRECINCT 29                                            01 
01030040030000000NON       President                                               Jon Huntsman                          PRECINCT 30                                            01 
01030040031000000NON       President                                               Jon Huntsman                          PRECINCT 31                                            01 
01030040032000000NON       President                                               Jon Huntsman                          PRECINCT 32                                            01 
01030040033000000NON       President                                               Jon Huntsman                          PRECINCT 33                                            01 
01030040034000000NON       President                                               Jon Huntsman                          PRECINCT 34                                            01 
01030040035000000NON       President                                               Jon Huntsman                          PRECINCT 35                                            01 
01030040036000000NON       President                                               Jon Huntsman                          PRECINCT 36                                            01 
01030040037000001NON       President                                               Jon Huntsman                          PRECINCT 37                                            01 
01030040038000000NON       President                                               Jon Huntsman                          PRECINCT 38                                            01 
01030040039000000NON       President                                               Jon Huntsman                          PRECINCT 39                                            01 
01030040040000000NON       President                                               Jon Huntsman                          PRECINCT 40                                            01 
01030040041000000NON       President                                               Jon Huntsman                          PRECINCT 41                                            01 
01030040042000000NON       President                                               Jon Huntsman                          PRECINCT 42                                            01 
01030040043000000NON       President                                               Jon Huntsman                          PRECINCT 43                                            01 
01030040044000001NON       President                                               Jon Huntsman                          PRECINCT 44                                            01 
01030040045000000NON       President                                               Jon Huntsman                          PRECINCT 45                                            01 
01030040046000000NON       President                                               Jon Huntsman                          PRECINCT 46                                            01 
01030040047000000NON       President                                               Jon Huntsman                          PRECINCT 47                                            01 
01030040048000000NON       President                                               Jon Huntsman                          PRECINCT 48                                            01 
01030040049000000NON       President                                               Jon Huntsman                          PRECINCT 49                                            01 
01030040050000000NON       President                                               Jon Huntsman                          PRECINCT 50                                            01 
01030040051000000NON       President                                               Jon Huntsman                          PRECINCT 51                                            01 
01030040052000001NON       President                                               Jon Huntsman                          PRECINCT 52                                            01 
01030040053000000NON       President                                               Jon Huntsman                          PRECINCT 53                                            01 
01030040054000000NON       President                                               Jon Huntsman                          PRECINCT 54                                            01 
01030040055000000NON       President                                               Jon Huntsman                          PRECINCT 55                                            01 
01030040056000000NON       President                                               Jon Huntsman                          PRECINCT 56                                            01 
01030040057000000NON       President                                               Jon Huntsman                          PRECINCT 57                                            01 
01030040058000000NON       President                                               Jon Huntsman                          PRECINCT 58                                            01 
01030040059000001NON       President                                               Jon Huntsman                          PRECINCT 59                                            01 
01030040060000000NON       President                                               Jon Huntsman                          PRECINCT 60                                            01 
01030040061000000NON       President                                               Jon Huntsman                          PRECINCT 61                                            01 
01030040062000001NON       President                                               Jon Huntsman                          PRECINCT 62                                            01 
01030040063000000NON       President                                               Jon Huntsman                          PRECINCT 63                                            01 
01030040064000001NON       President                                               Jon Huntsman                          PRECINCT 64                                            01 
01030040065000003NON       President                                               Jon Huntsman                          PRECINCT 65                                            01 
01030040066000000NON       President                                               Jon Huntsman                          PRECINCT 66                                            01 
01030040067000000NON       President                                               Jon Huntsman                          PRECINCT 67                                            01 
01030040068000000NON       President                                               Jon Huntsman                          PRECINCT 68                                            01 
01030040069000000NON       President                                               Jon Huntsman                          PRECINCT 69                                            01 
01030040070000000NON       President                                               Jon Huntsman                          PRECINCT 70                                            01 
01030040071000002NON       President                                               Jon Huntsman                          PRECINCT 71                                            01 
01030040072000003NON       President                                               Jon Huntsman                          PRECINCT 72                                            01 
01030040073000000NON       President                                               Jon Huntsman                          PRECINCT 73                                            01 
01030040074000001NON       President                                               Jon Huntsman                          PRECINCT 74                                            01 
01030040075000000NON       President                                               Jon Huntsman                          PRECINCT 75                                            01 
01030040076000000NON       President                                               Jon Huntsman                          PRECINCT 76                                            01 
01030040077000001NON       President                                               Jon Huntsman                          PRECINCT 77                                            01 
01030040078000000NON       President                                               Jon Huntsman                          PRECINCT 78                                            01 
01030040079000000NON       President                                               Jon Huntsman                          PRECINCT 79                                            01 
01030040080000001NON       President                                               Jon Huntsman                          PRECINCT 80                                            01 
01030040081000000NON       President                                               Jon Huntsman                          PRECINCT 81                                            01 
01030040082000000NON       President                                               Jon Huntsman                          PRECINCT 82                                            01 
01030040083000000NON       President                                               Jon Huntsman                          PRECINCT 83                                            01 
01030040084000000NON       President                                               Jon Huntsman                          PRECINCT 84                                            01 
01030040085000000NON       President                                               Jon Huntsman                          PRECINCT 85                                            01 
01030040086000000NON       President                                               Jon Huntsman                          PRECINCT 86                                            01 
01030040087000000NON       President                                               Jon Huntsman                          PRECINCT 87                                            01 
01030040088000000NON       President                                               Jon Huntsman                          PRECINCT 95                                            01 
01030040089000000NON       President                                               Jon Huntsman                          PRECINCT 96                                            01 
01030040090000000NON       President                                               Jon Huntsman                          PRECINCT 97                                            01 
01030040091000000NON       President                                               Jon Huntsman                          PRECINCT 98                                            01 
01030040092000000NON       President                                               Jon Huntsman                          PRECINCT 99                                            01 
01030040093000000NON       President                                               Jon Huntsman                          PRECINCT 100                                           01 
01030040094000001NON       President                                               Jon Huntsman                          PRECINCT 101                                           01 
01030040095000000NON       President                                               Jon Huntsman                          PRECINCT 102                                           01 
01030040096000000NON       President                                               Jon Huntsman                          PRECINCT 103                                           01 
01030040097000000NON       President                                               Jon Huntsman                          PRECINCT 104                                           01 
01030050001000001NON       President                                               Charles "Buddy" Roemer                PRECINCT 1                                             01 
01030050002000000NON       President                                               Charles "Buddy" Roemer                PRECINCT 2                                             01 
01030050003000001NON       President                                               Charles "Buddy" Roemer                PRECINCT 3                                             01 
01030050004000000NON       President                                               Charles "Buddy" Roemer                PRECINCT 4                                             01 
01030050005000000NON       President                                               Charles "Buddy" Roemer                PRECINCT 5                                             01 
01030050006000000NON       President                                               Charles "Buddy" Roemer                PRECINCT 6                                             01 
01030050007000002NON       President                                               Charles "Buddy" Roemer                PRECINCT 7                                             01 
01030050008000000NON       President                                               Charles "Buddy" Roemer                PRECINCT 8                                             01 
01030050009000000NON       President                                               Charles "Buddy" Roemer                PRECINCT 9                                             01 
01030050010000000NON       President                                               Charles "Buddy" Roemer                PRECINCT 10                                            01 
01030050011000000NON       President                                               Charles "Buddy" Roemer                PRECINCT 11                                            01 
01030050012000001NON       President                                               Charles "Buddy" Roemer                PRECINCT 12                                            01 
01030050013000000NON       President                                               Charles "Buddy" Roemer                PRECINCT 13                                            01 
01030050014000000NON       President                                               Charles "Buddy" Roemer                PRECINCT 14                                            01 
01030050015000000NON       President                                               Charles "Buddy" Roemer                PRECINCT 15                                            01 
01030050016000000NON       President                                               Charles "Buddy" Roemer                PRECINCT 16                                            01 
01030050017000000NON       President                                               Charles "Buddy" Roemer                PRECINCT 17                                            01 
01030050018000001NON       President                                               Charles "Buddy" Roemer                PRECINCT 18                                            01 
01030050019000000NON       President                                               Charles "Buddy" Roemer                PRECINCT 19                                            01 
01030050020000000NON       President                                               Charles "Buddy" Roemer                PRECINCT 20                                            01 
01030050021000001NON       President                                               Charles "Buddy" Roemer                PRECINCT 21                                            01 
01030050022000000NON       President                                               Charles "Buddy" Roemer                PRECINCT 22                                            01 
01030050023000000NON       President                                               Charles "Buddy" Roemer                PRECINCT 23                                            01 
01030050024000000NON       President                                               Charles "Buddy" Roemer                PRECINCT 24                                            01 
01030050025000000NON       President                                               Charles "Buddy" Roemer                PRECINCT 25                                            01 
01030050026000001NON       President                                               Charles "Buddy" Roemer                PRECINCT 26                                            01 
01030050027000000NON       President                                               Charles "Buddy" Roemer                PRECINCT 27                                            01 
01030050028000000NON       President                                               Charles "Buddy" Roemer                PRECINCT 28                                            01 
01030050029000000NON       President                                               Charles "Buddy" Roemer                PRECINCT 29                                            01 
01030050030000000NON       President                                               Charles "Buddy" Roemer                PRECINCT 30                                            01 
01030050031000000NON       President                                               Charles "Buddy" Roemer                PRECINCT 31                                            01 
01030050032000000NON       President                                               Charles "Buddy" Roemer                PRECINCT 32                                            01 
01030050033000000NON       President                                               Charles "Buddy" Roemer                PRECINCT 33                                            01 
01030050034000000NON       President                                               Charles "Buddy" Roemer                PRECINCT 34                                            01 
01030050035000000NON       President                                               Charles "Buddy" Roemer                PRECINCT 35                                            01 
01030050036000000NON       President                                               Charles "Buddy" Roemer                PRECINCT 36                                            01 
01030050037000001NON       President                                               Charles "Buddy" Roemer                PRECINCT 37                                            01 
01030050038000000NON       President                                               Charles "Buddy" Roemer                PRECINCT 38                                            01 
01030050039000000NON       President                                               Charles "Buddy" Roemer                PRECINCT 39                                            01 
01030050040000000NON       President                                               Charles "Buddy" Roemer                PRECINCT 40                                            01 
01030050041000000NON       President                                               Charles "Buddy" Roemer                PRECINCT 41                                            01 
01030050042000000NON       President                                               Charles "Buddy" Roemer                PRECINCT 42                                            01 
01030050043000000NON       President                                               Charles "Buddy" Roemer                PRECINCT 43                                            01 
01030050044000000NON       President                                               Charles "Buddy" Roemer                PRECINCT 44                                            01 
01030050045000001NON       President                                               Charles "Buddy" Roemer                PRECINCT 45                                            01 
01030050046000000NON       President                                               Charles "Buddy" Roemer                PRECINCT 46                                            01 
01030050047000003NON       President                                               Charles "Buddy" Roemer                PRECINCT 47                                            01 
01030050048000000NON       President                                               Charles "Buddy" Roemer                PRECINCT 48                                            01 
01030050049000000NON       President                                               Charles "Buddy" Roemer                PRECINCT 49                                            01 
01030050050000000NON       President                                               Charles "Buddy" Roemer                PRECINCT 50                                            01 
01030050051000000NON       President                                               Charles "Buddy" Roemer                PRECINCT 51                                            01 
01030050052000001NON       President                                               Charles "Buddy" Roemer                PRECINCT 52                                            01 
01030050053000002NON       President                                               Charles "Buddy" Roemer                PRECINCT 53                                            01 
01030050054000002NON       President                                               Charles "Buddy" Roemer                PRECINCT 54                                            01 
01030050055000000NON       President                                               Charles "Buddy" Roemer                PRECINCT 55                                            01 
01030050056000000NON       President                                               Charles "Buddy" Roemer                PRECINCT 56                                            01 
01030050057000000NON       President                                               Charles "Buddy" Roemer                PRECINCT 57                                            01 
01030050058000000NON       President                                               Charles "Buddy" Roemer                PRECINCT 58                                            01 
01030050059000000NON       President                                               Charles "Buddy" Roemer                PRECINCT 59                                            01 
01030050060000000NON       President                                               Charles "Buddy" Roemer                PRECINCT 60                                            01 
01030050061000000NON       President                                               Charles "Buddy" Roemer                PRECINCT 61                                            01 
01030050062000000NON       President                                               Charles "Buddy" Roemer                PRECINCT 62                                            01 
01030050063000000NON       President                                               Charles "Buddy" Roemer                PRECINCT 63                                            01 
01030050064000000NON       President                                               Charles "Buddy" Roemer                PRECINCT 64                                            01 
01030050065000001NON       President                                               Charles "Buddy" Roemer                PRECINCT 65                                            01 
01030050066000002NON       President                                               Charles "Buddy" Roemer                PRECINCT 66                                            01 
01030050067000000NON       President                                               Charles "Buddy" Roemer                PRECINCT 67                                            01 
01030050068000002NON       President                                               Charles "Buddy" Roemer                PRECINCT 68                                            01 
01030050069000000NON       President                                               Charles "Buddy" Roemer                PRECINCT 69                                            01 
01030050070000000NON       President                                               Charles "Buddy" Roemer                PRECINCT 70                                            01 
01030050071000000NON       President                                               Charles "Buddy" Roemer                PRECINCT 71                                            01 
01030050072000001NON       President                                               Charles "Buddy" Roemer                PRECINCT 72                                            01 
01030050073000000NON       President                                               Charles "Buddy" Roemer                PRECINCT 73                                            01 
01030050074000001NON       President                                               Charles "Buddy" Roemer                PRECINCT 74                                            01 
01030050075000000NON       President                                               Charles "Buddy" Roemer                PRECINCT 75                                            01 
01030050076000000NON       President                                               Charles "Buddy" Roemer                PRECINCT 76                                            01 
01030050077000000NON       President                                               Charles "Buddy" Roemer                PRECINCT 77                                            01 
01030050078000000NON       President                                               Charles "Buddy" Roemer                PRECINCT 78                                            01 
01030050079000000NON       President                                               Charles "Buddy" Roemer                PRECINCT 79                                            01 
01030050080000001NON       President                                               Charles "Buddy" Roemer                PRECINCT 80                                            01 
01030050081000000NON       President                                               Charles "Buddy" Roemer                PRECINCT 81                                            01 
01030050082000000NON       President                                               Charles "Buddy" Roemer                PRECINCT 82                                            01 
01030050083000001NON       President                                               Charles "Buddy" Roemer                PRECINCT 83                                            01 
01030050084000001NON       President                                               Charles "Buddy" Roemer                PRECINCT 84                                            01 
01030050085000000NON       President                                               Charles "Buddy" Roemer                PRECINCT 85                                            01 
01030050086000000NON       President                                               Charles "Buddy" Roemer                PRECINCT 86                                            01 
01030050087000001NON       President                                               Charles "Buddy" Roemer                PRECINCT 87                                            01 
01030050088000000NON       President                                               Charles "Buddy" Roemer                PRECINCT 95                                            01 
01030050089000000NON       President                                               Charles "Buddy" Roemer                PRECINCT 96                                            01 
01030050090000000NON       President                                               Charles "Buddy" Roemer                PRECINCT 97                                            01 
01030050091000000NON       President                                               Charles "Buddy" Roemer                PRECINCT 98                                            01 
01030050092000000NON       President                                               Charles "Buddy" Roemer                PRECINCT 99                                            01 
01030050093000001NON       President                                               Charles "Buddy" Roemer                PRECINCT 100                                           01 
01030050094000000NON       President                                               Charles "Buddy" Roemer                PRECINCT 101                                           01 
01030050095000000NON       President                                               Charles "Buddy" Roemer                PRECINCT 102                                           01 
01030050096000000NON       President                                               Charles "Buddy" Roemer                PRECINCT 103                                           01 
01030050097000000NON       President                                               Charles "Buddy" Roemer                PRECINCT 104                                           01 
01030060001000084NON       President                                               Mitt Romney                           PRECINCT 1                                             01 
01030060002000035NON       President                                               Mitt Romney                           PRECINCT 2                                             01 
01030060003000034NON       President                                               Mitt Romney                           PRECINCT 3                                             01 
01030060004000130NON       President                                               Mitt Romney                           PRECINCT 4                                             01 
01030060005000004NON       President                                               Mitt Romney                           PRECINCT 5                                             01 
01030060006000006NON       President                                               Mitt Romney                           PRECINCT 6                                             01 
01030060007000006NON       President                                               Mitt Romney                           PRECINCT 7                                             01 
01030060008000002NON       President                                               Mitt Romney                           PRECINCT 8                                             01 
01030060009000012NON       President                                               Mitt Romney                           PRECINCT 9                                             01 
01030060010000007NON       President                                               Mitt Romney                           PRECINCT 10                                            01 
01030060011000007NON       President                                               Mitt Romney                           PRECINCT 11                                            01 
01030060012000040NON       President                                               Mitt Romney                           PRECINCT 12                                            01 
01030060013000005NON       President                                               Mitt Romney                           PRECINCT 13                                            01 
01030060014000014NON       President                                               Mitt Romney                           PRECINCT 14                                            01 
01030060015000026NON       President                                               Mitt Romney                           PRECINCT 15                                            01 
01030060016000021NON       President                                               Mitt Romney                           PRECINCT 16                                            01 
01030060017000013NON       President                                               Mitt Romney                           PRECINCT 17                                            01 
01030060018000019NON       President                                               Mitt Romney                           PRECINCT 18                                            01 
01030060019000033NON       President                                               Mitt Romney                           PRECINCT 19                                            01 
01030060020000031NON       President                                               Mitt Romney                           PRECINCT 20                                            01 
01030060021000014NON       President                                               Mitt Romney                           PRECINCT 21                                            01 
01030060022000013NON       President                                               Mitt Romney                           PRECINCT 22                                            01 
01030060023000007NON       President                                               Mitt Romney                           PRECINCT 23                                            01 
01030060024000001NON       President                                               Mitt Romney                           PRECINCT 24                                            01 
01030060025000002NON       President                                               Mitt Romney                           PRECINCT 25                                            01 
01030060026000094NON       President                                               Mitt Romney                           PRECINCT 26                                            01 
01030060027000025NON       President                                               Mitt Romney                           PRECINCT 27                                            01 
01030060028000026NON       President                                               Mitt Romney                           PRECINCT 28                                            01 
01030060029000099NON       President                                               Mitt Romney                           PRECINCT 29                                            01 
01030060030000062NON       President                                               Mitt Romney                           PRECINCT 30                                            01 
01030060031000007NON       President                                               Mitt Romney                           PRECINCT 31                                            01 
01030060032000074NON       President                                               Mitt Romney                           PRECINCT 32                                            01 
01030060033000004NON       President                                               Mitt Romney                           PRECINCT 33                                            01 
01030060034000005NON       President                                               Mitt Romney                           PRECINCT 34                                            01 
01030060035000052NON       President                                               Mitt Romney                           PRECINCT 35                                            01 
01030060036000030NON       President                                               Mitt Romney                           PRECINCT 36                                            01 
01030060037000007NON       President                                               Mitt Romney                           PRECINCT 37                                            01 
01030060038000039NON       President                                               Mitt Romney                           PRECINCT 38                                            01 
01030060039000003NON       President                                               Mitt Romney                           PRECINCT 39                                            01 
01030060040000032NON       President                                               Mitt Romney                           PRECINCT 40                                            01 
01030060041000042NON       President                                               Mitt Romney                           PRECINCT 41                                            01 
01030060042000007NON       President                                               Mitt Romney                           PRECINCT 42                                            01 
01030060043000006NON       President                                               Mitt Romney                           PRECINCT 43                                            01 
01030060044000190NON       President                                               Mitt Romney                           PRECINCT 44                                            01 
01030060045000005NON       President                                               Mitt Romney                           PRECINCT 45                                            01 
01030060046000040NON       President                                               Mitt Romney                           PRECINCT 46                                            01 
01030060047000027NON       President                                               Mitt Romney                           PRECINCT 47                                            01 
01030060048000029NON       President                                               Mitt Romney                           PRECINCT 48                                            01 
01030060049000029NON       President                                               Mitt Romney                           PRECINCT 49                                            01 
01030060050000105NON       President                                               Mitt Romney                           PRECINCT 50                                            01 
01030060051000006NON       President                                               Mitt Romney                           PRECINCT 51                                            01 
01030060052000175NON       President                                               Mitt Romney                           PRECINCT 52                                            01 
01030060053000009NON       President                                               Mitt Romney                           PRECINCT 53                                            01 
01030060054000061NON       President                                               Mitt Romney                           PRECINCT 54                                            01 
01030060055000054NON       President                                               Mitt Romney                           PRECINCT 55                                            01 
01030060056000056NON       President                                               Mitt Romney                           PRECINCT 56                                            01 
01030060057000013NON       President                                               Mitt Romney                           PRECINCT 57                                            01 
01030060058000092NON       President                                               Mitt Romney                           PRECINCT 58                                            01 
01030060059000000NON       President                                               Mitt Romney                           PRECINCT 59                                            01 
01030060060000019NON       President                                               Mitt Romney                           PRECINCT 60                                            01 
01030060061000024NON       President                                               Mitt Romney                           PRECINCT 61                                            01 
01030060062000038NON       President                                               Mitt Romney                           PRECINCT 62                                            01 
01030060063000033NON       President                                               Mitt Romney                           PRECINCT 63                                            01 
01030060064000065NON       President                                               Mitt Romney                           PRECINCT 64                                            01 
01030060065000066NON       President                                               Mitt Romney                           PRECINCT 65                                            01 
01030060066000142NON       President                                               Mitt Romney                           PRECINCT 66                                            01 
01030060067000156NON       President                                               Mitt Romney                           PRECINCT 67                                            01 
