01100013038000046NONCASTLEHCity of Castle Hills Alderman, Place No. 1              Mike Catalani                                                                                01 
01100013041000046NONCASTLEHCity of Castle Hills Alderman, Place No. 1              Mike Catalani                                                                                01 
01100013067000050NONCASTLEHCity of Castle Hills Alderman, Place No. 1              Mike Catalani                                                                                01 
01100013133000000NONCASTLEHCity of Castle Hills Alderman, Place No. 1              Mike Catalani                                                                                01 
01100013171000000NONCASTLEHCity of Castle Hills Alderman, Place No. 1              Mike Catalani                                                                                01 
01100023038000028NONCASTLEHCity of Castle Hills Alderman, Place No. 1              Marcella Huff                                                                                01 
01100023041000025NONCASTLEHCity of Castle Hills Alderman, Place No. 1              Marcella Huff                                                                                01 
01100023067000031NONCASTLEHCity of Castle Hills Alderman, Place No. 1              Marcella Huff                                                                                01 
01100023133000000NONCASTLEHCity of Castle Hills Alderman, Place No. 1              Marcella Huff                                                                                01 
01100023171000000NONCASTLEHCity of Castle Hills Alderman, Place No. 1              Marcella Huff                                                                                01 
01100033038000000   CASTLEHCity of Castle Hills Alderman, Place No. 1              OVER VOTES                                                                                   01 
01100033041000000   CASTLEHCity of Castle Hills Alderman, Place No. 1              OVER VOTES                                                                                   01 
01100033067000000   CASTLEHCity of Castle Hills Alderman, Place No. 1              OVER VOTES                                                                                   01 
01100033133000000   CASTLEHCity of Castle Hills Alderman, Place No. 1              OVER VOTES                                                                                   01 
01100033171000000   CASTLEHCity of Castle Hills Alderman, Place No. 1              OVER VOTES                                                                                   01 
01100043038000000   CASTLEHCity of Castle Hills Alderman, Place No. 1              UNDER VOTES                                                                                  01 
01100043041000001   CASTLEHCity of Castle Hills Alderman, Place No. 1              UNDER VOTES                                                                                  01 
01100043067000003   CASTLEHCity of Castle Hills Alderman, Place No. 1              UNDER VOTES                                                                                  01 
01100043133000000   CASTLEHCity of Castle Hills Alderman, Place No. 1              UNDER VOTES                                                                                  01 
01100043171000000   CASTLEHCity of Castle Hills Alderman, Place No. 1              UNDER VOTES                                                                                  01 
01110013038000056NONCASTLEHCity of Castle Hills Alderman, Place No. 4              Tim Howell                                                                                   01 
01110013041000050NONCASTLEHCity of Castle Hills Alderman, Place No. 4              Tim Howell                                                                                   01 
01110013067000061NONCASTLEHCity of Castle Hills Alderman, Place No. 4              Tim Howell                                                                                   01 
01110013133000000NONCASTLEHCity of Castle Hills Alderman, Place No. 4              Tim Howell                                                                                   01 
01110013171000000NONCASTLEHCity of Castle Hills Alderman, Place No. 4              Tim Howell                                                                                   01 
01110023038000000   CASTLEHCity of Castle Hills Alderman, Place No. 4              OVER VOTES                                                                                   01 
01110023041000000   CASTLEHCity of Castle Hills Alderman, Place No. 4              OVER VOTES                                                                                   01 
01110023067000000   CASTLEHCity of Castle Hills Alderman, Place No. 4              OVER VOTES                                                                                   01 
01110023133000000   CASTLEHCity of Castle Hills Alderman, Place No. 4              OVER VOTES                                                                                   01 
01110023171000000   CASTLEHCity of Castle Hills Alderman, Place No. 4              OVER VOTES                                                                                   01 
01110033038000018   CASTLEHCity of Castle Hills Alderman, Place No. 4              UNDER VOTES                                                                                  01 
01110033041000022   CASTLEHCity of Castle Hills Alderman, Place No. 4              UNDER VOTES                                                                                  01 
01110033067000023   CASTLEHCity of Castle Hills Alderman, Place No. 4              UNDER VOTES                                                                                  01 
01110033133000000   CASTLEHCity of Castle Hills Alderman, Place No. 4              UNDER VOTES                                                                                  01 
01110033171000000   CASTLEHCity of Castle Hills Alderman, Place No. 4              UNDER VOTES                                                                                  01 
01120013038000053NONCASTLEHCity of Castle Hills Alderman, Place No. 5              Tom Davis                                                                                    01 
01120013041000057NONCASTLEHCity of Castle Hills Alderman, Place No. 5              Tom Davis                                                                                    01 
01120013067000057NONCASTLEHCity of Castle Hills Alderman, Place No. 5              Tom Davis                                                                                    01 
01120013133000000NONCASTLEHCity of Castle Hills Alderman, Place No. 5              Tom Davis                                                                                    01 
01120013171000000NONCASTLEHCity of Castle Hills Alderman, Place No. 5              Tom Davis                                                                                    01 
01120023038000000   CASTLEHCity of Castle Hills Alderman, Place No. 5              OVER VOTES                                                                                   01 
01120023041000000   CASTLEHCity of Castle Hills Alderman, Place No. 5              OVER VOTES                                                                                   01 
01120023067000000   CASTLEHCity of Castle Hills Alderman, Place No. 5              OVER VOTES                                                                                   01 
01120023133000000   CASTLEHCity of Castle Hills Alderman, Place No. 5              OVER VOTES                                                                                   01 
01120023171000000   CASTLEHCity of Castle Hills Alderman, Place No. 5              OVER VOTES                                                                                   01 
01120033038000021   CASTLEHCity of Castle Hills Alderman, Place No. 5              UNDER VOTES                                                                                  01 
01120033041000015   CASTLEHCity of Castle Hills Alderman, Place No. 5              UNDER VOTES                                                                                  01 
01120033067000027   CASTLEHCity of Castle Hills Alderman, Place No. 5              UNDER VOTES                                                                                  01 
01120033133000000   CASTLEHCity of Castle Hills Alderman, Place No. 5              UNDER VOTES                                                                                  01 
01120033171000000   CASTLEHCity of Castle Hills Alderman, Place No. 5              UNDER VOTES                                                                                  01 
