01340010024000004NONCISD04 CISD Single Member DIST 4 CISD DIST 4                   Ron McPherson                         PRECINCT 3060                                          01 
01340010026000036NONCISD04 CISD Single Member DIST 4 CISD DIST 4                   Ron McPherson                         PRECINCT 4050                                          01 
01340010027000042NONCISD04 CISD Single Member DIST 4 CISD DIST 4                   Ron McPherson                         PRECINCT 4070                                          01 
01340010028000135NONCISD04 CISD Single Member DIST 4 CISD DIST 4                   Ron McPherson                         PRECINCT 4100                                          01 
01340020024000000NONCISD04 CISD Single Member DIST 4 CISD DIST 4                   Joe Paolilli                          PRECINCT 3060                                          01 
01340020026000025NONCISD04 CISD Single Member DIST 4 CISD DIST 4                   Joe Paolilli                          PRECINCT 4050                                          01 
01340020027000020NONCISD04 CISD Single Member DIST 4 CISD DIST 4                   Joe Paolilli                          PRECINCT 4070                                          01 
01340020028000127NONCISD04 CISD Single Member DIST 4 CISD DIST 4                   Joe Paolilli                          PRECINCT 4100                                          01 
01340030024000000   CISD04 CISD Single Member DIST 4 CISD DIST 4                   OVER VOTES                            PRECINCT 3060                                          01 
01340030026000000   CISD04 CISD Single Member DIST 4 CISD DIST 4                   OVER VOTES                            PRECINCT 4050                                          01 
01340030027000000   CISD04 CISD Single Member DIST 4 CISD DIST 4                   OVER VOTES                            PRECINCT 4070                                          01 
01340030028000000   CISD04 CISD Single Member DIST 4 CISD DIST 4                   OVER VOTES                            PRECINCT 4100                                          01 
01340040024000011   CISD04 CISD Single Member DIST 4 CISD DIST 4                   UNDER VOTES                           PRECINCT 3060                                          01 
01340040026000048   CISD04 CISD Single Member DIST 4 CISD DIST 4                   UNDER VOTES                           PRECINCT 4050                                          01 
01340040027000038   CISD04 CISD Single Member DIST 4 CISD DIST 4                   UNDER VOTES                           PRECINCT 4070                                          01 
01340040028000200   CISD04 CISD Single Member DIST 4 CISD DIST 4                   UNDER VOTES                           PRECINCT 4100                                          01 
01350010024000078NONCISD05 CISD Single Member DIST 5 CISD DIST 5                   Tillie Moldenhauer                    PRECINCT 3060                                          01 
01350010026000110NONCISD05 CISD Single Member DIST 5 CISD DIST 5                   Tillie Moldenhauer                    PRECINCT 4050                                          01 
01350010027000032NONCISD05 CISD Single Member DIST 5 CISD DIST 5                   Tillie Moldenhauer                    PRECINCT 4070                                          01 
01350010028000014NONCISD05 CISD Single Member DIST 5 CISD DIST 5                   Tillie Moldenhauer                    PRECINCT 4100                                          01 
01350020024000032NONCISD05 CISD Single Member DIST 5 CISD DIST 5                   Billy James                           PRECINCT 3060                                          01 
01350020026000045NONCISD05 CISD Single Member DIST 5 CISD DIST 5                   Billy James                           PRECINCT 4050                                          01 
01350020027000015NONCISD05 CISD Single Member DIST 5 CISD DIST 5                   Billy James                           PRECINCT 4070                                          01 
01350020028000005NONCISD05 CISD Single Member DIST 5 CISD DIST 5                   Billy James                           PRECINCT 4100                                          01 
01350030024000000   CISD05 CISD Single Member DIST 5 CISD DIST 5                   OVER VOTES                            PRECINCT 3060                                          01 
01350030026000000   CISD05 CISD Single Member DIST 5 CISD DIST 5                   OVER VOTES                            PRECINCT 4050                                          01 
01350030027000000   CISD05 CISD Single Member DIST 5 CISD DIST 5                   OVER VOTES                            PRECINCT 4070                                          01 
01350030028000000   CISD05 CISD Single Member DIST 5 CISD DIST 5                   OVER VOTES                            PRECINCT 4100                                          01 
01350040024000098   CISD05 CISD Single Member DIST 5 CISD DIST 5                   UNDER VOTES                           PRECINCT 3060                                          01 
01350040026000128   CISD05 CISD Single Member DIST 5 CISD DIST 5                   UNDER VOTES                           PRECINCT 4050                                          01 
01350040027000041   CISD05 CISD Single Member DIST 5 CISD DIST 5                   UNDER VOTES                           PRECINCT 4070                                          01 
01350040028000028   CISD05 CISD Single Member DIST 5 CISD DIST 5                   UNDER VOTES                           PRECINCT 4100                                          01 
01360010026000258NONCISD06 CISD Single Member DIST 6 CISD DIST 6                   Brad Spenrath                         PRECINCT 4050                                          01 
01360010027000022NONCISD06 CISD Single Member DIST 6 CISD DIST 6                   Brad Spenrath                         PRECINCT 4070                                          01 
01360020026000000   CISD06 CISD Single Member DIST 6 CISD DIST 6                   OVER VOTES                            PRECINCT 4050                                          01 
01360020027000000   CISD06 CISD Single Member DIST 6 CISD DIST 6                   OVER VOTES                            PRECINCT 4070                                          01 
01360030026000200   CISD06 CISD Single Member DIST 6 CISD DIST 6                   UNDER VOTES                           PRECINCT 4050                                          01 
01360030027000023   CISD06 CISD Single Member DIST 6 CISD DIST 6                   UNDER VOTES                           PRECINCT 4070                                          01 
