01000010001000021REP       President CRANE COUNTYWIDE                              Rick Santorum                         Precinct 1                                             01 
01000010002000010REP       President CRANE COUNTYWIDE                              Rick Santorum                         Precinct 2                                             01 
01000010003000004REP       President CRANE COUNTYWIDE                              Rick Santorum                         Precinct 3                                             01 
01000010004000008REP       President CRANE COUNTYWIDE                              Rick Santorum                         Precinct 4                                             01 
01000020001000000REP       President CRANE COUNTYWIDE                              Jon Huntsman                          Precinct 1                                             01 
01000020002000000REP       President CRANE COUNTYWIDE                              Jon Huntsman                          Precinct 2                                             01 
01000020003000001REP       President CRANE COUNTYWIDE                              Jon Huntsman                          Precinct 3                                             01 
01000020004000001REP       President CRANE COUNTYWIDE                              Jon Huntsman                          Precinct 4                                             01 
01000030001000001REP       President CRANE COUNTYWIDE                              John Davis                            Precinct 1                                             01 
01000030002000000REP       President CRANE COUNTYWIDE                              John Davis                            Precinct 2                                             01 
01000030003000001REP       President CRANE COUNTYWIDE                              John Davis                            Precinct 3                                             01 
01000030004000001REP       President CRANE COUNTYWIDE                              John Davis                            Precinct 4                                             01 
01000040001000128REP       President CRANE COUNTYWIDE                              Mitt Romney                           Precinct 1                                             01 
01000040002000094REP       President CRANE COUNTYWIDE                              Mitt Romney                           Precinct 2                                             01 
01000040003000027REP       President CRANE COUNTYWIDE                              Mitt Romney                           Precinct 3                                             01 
01000040004000056REP       President CRANE COUNTYWIDE                              Mitt Romney                           Precinct 4                                             01 
01000050001000014REP       President CRANE COUNTYWIDE                              Ron Paul                              Precinct 1                                             01 
01000050002000012REP       President CRANE COUNTYWIDE                              Ron Paul                              Precinct 2                                             01 
01000050003000001REP       President CRANE COUNTYWIDE                              Ron Paul                              Precinct 3                                             01 
01000050004000013REP       President CRANE COUNTYWIDE                              Ron Paul                              Precinct 4                                             01 
01000060001000002REP       President CRANE COUNTYWIDE                              Michele Bachmann                      Precinct 1                                             01 
01000060002000001REP       President CRANE COUNTYWIDE                              Michele Bachmann                      Precinct 2                                             01 
01000060003000001REP       President CRANE COUNTYWIDE                              Michele Bachmann                      Precinct 3                                             01 
01000060004000002REP       President CRANE COUNTYWIDE                              Michele Bachmann                      Precinct 4                                             01 
01000070001000025REP       President CRANE COUNTYWIDE                              Newt Gingrich                         Precinct 1                                             01 
01000070002000012REP       President CRANE COUNTYWIDE                              Newt Gingrich                         Precinct 2                                             01 
01000070003000003REP       President CRANE COUNTYWIDE                              Newt Gingrich                         Precinct 3                                             01 
01000070004000008REP       President CRANE COUNTYWIDE                              Newt Gingrich                         Precinct 4                                             01 
01000080001000000REP       President CRANE COUNTYWIDE                              Charles "Buddy" Roemer                Precinct 1                                             01 
01000080002000001REP       President CRANE COUNTYWIDE                              Charles "Buddy" Roemer                Precinct 2                                             01 
01000080003000001REP       President CRANE COUNTYWIDE                              Charles "Buddy" Roemer                Precinct 3                                             01 
01000080004000000REP       President CRANE COUNTYWIDE                              Charles "Buddy" Roemer                Precinct 4                                             01 
01000090001000017REP       President CRANE COUNTYWIDE                              Uncommitted (No Comprometido)         Precinct 1                                             01 
01000090002000004REP       President CRANE COUNTYWIDE                              Uncommitted (No Comprometido)         Precinct 2                                             01 
01000090003000003REP       President CRANE COUNTYWIDE                              Uncommitted (No Comprometido)         Precinct 3                                             01 
01000090004000001REP       President CRANE COUNTYWIDE                              Uncommitted (No Comprometido)         Precinct 4                                             01 
01000100001000000REP       President CRANE COUNTYWIDE                              OVER VOTES                            Precinct 1                                             01 
01000100002000000REP       President CRANE COUNTYWIDE                              OVER VOTES                            Precinct 2                                             01 
01000100003000000REP       President CRANE COUNTYWIDE                              OVER VOTES                            Precinct 3                                             01 
01000100004000000REP       President CRANE COUNTYWIDE                              OVER VOTES                            Precinct 4                                             01 
01000110001000009REP       President CRANE COUNTYWIDE                              UNDER VOTES                           Precinct 1                                             01 
01000110002000000REP       President CRANE COUNTYWIDE                              UNDER VOTES                           Precinct 2                                             01 
01000110003000001REP       President CRANE COUNTYWIDE                              UNDER VOTES                           Precinct 3                                             01 
01000110004000005REP       President CRANE COUNTYWIDE                              UNDER VOTES                           Precinct 4                                             01 
01010010001000003REP       United States Senator CRANE COUNTYWIDE                  Lela Pittenger                        Precinct 1                                             01 
01010010002000002REP       United States Senator CRANE COUNTYWIDE                  Lela Pittenger                        Precinct 2                                             01 
01010010003000001REP       United States Senator CRANE COUNTYWIDE                  Lela Pittenger                        Precinct 3                                             01 
01010010004000000REP       United States Senator CRANE COUNTYWIDE                  Lela Pittenger                        Precinct 4                                             01 
01010020001000108REP       United States Senator CRANE COUNTYWIDE                  David Dewhurst                        Precinct 1                                             01 
01010020002000069REP       United States Senator CRANE COUNTYWIDE                  David Dewhurst                        Precinct 2                                             01 
01010020003000016REP       United States Senator CRANE COUNTYWIDE                  David Dewhurst                        Precinct 3                                             01 
01010020004000048REP       United States Senator CRANE COUNTYWIDE                  David Dewhurst                        Precinct 4                                             01 
01010030001000000REP       United States Senator CRANE COUNTYWIDE                  Curt Cleaver                          Precinct 1                                             01 
01010030002000001REP       United States Senator CRANE COUNTYWIDE                  Curt Cleaver                          Precinct 2                                             01 
01010030003000000REP       United States Senator CRANE COUNTYWIDE                  Curt Cleaver                          Precinct 3                                             01 
01010030004000001REP       United States Senator CRANE COUNTYWIDE                  Curt Cleaver                          Precinct 4                                             01 
01010040001000064REP       United States Senator CRANE COUNTYWIDE                  Ted Cruz                              Precinct 1                                             01 
01010040002000036REP       United States Senator CRANE COUNTYWIDE                  Ted Cruz                              Precinct 2                                             01 
01010040003000013REP       United States Senator CRANE COUNTYWIDE                  Ted Cruz                              Precinct 3                                             01 
01010040004000024REP       United States Senator CRANE COUNTYWIDE                  Ted Cruz                              Precinct 4                                             01 
01010050001000000REP       United States Senator CRANE COUNTYWIDE                  Ben Gambini                           Precinct 1                                             01 
01010050002000002REP       United States Senator CRANE COUNTYWIDE                  Ben Gambini                           Precinct 2                                             01 
01010050003000001REP       United States Senator CRANE COUNTYWIDE                  Ben Gambini                           Precinct 3                                             01 
01010050004000002REP       United States Senator CRANE COUNTYWIDE                  Ben Gambini                           Precinct 4                                             01 
01010060001000015REP       United States Senator CRANE COUNTYWIDE                  Tom Leppert                           Precinct 1                                             01 
01010060002000011REP       United States Senator CRANE COUNTYWIDE                  Tom Leppert                           Precinct 2                                             01 
01010060003000003REP       United States Senator CRANE COUNTYWIDE                  Tom Leppert                           Precinct 3                                             01 
01010060004000007REP       United States Senator CRANE COUNTYWIDE                  Tom Leppert                           Precinct 4                                             01 
01010070001000000REP       United States Senator CRANE COUNTYWIDE                  Joe Agris                             Precinct 1                                             01 
01010070002000001REP       United States Senator CRANE COUNTYWIDE                  Joe Agris                             Precinct 2                                             01 
01010070003000000REP       United States Senator CRANE COUNTYWIDE                  Joe Agris                             Precinct 3                                             01 
01010070004000000REP       United States Senator CRANE COUNTYWIDE                  Joe Agris                             Precinct 4                                             01 
01010080001000007REP       United States Senator CRANE COUNTYWIDE                  Craig James                           Precinct 1                                             01 
01010080002000003REP       United States Senator CRANE COUNTYWIDE                  Craig James                           Precinct 2                                             01 
01010080003000001REP       United States Senator CRANE COUNTYWIDE                  Craig James                           Precinct 3                                             01 
01010080004000003REP       United States Senator CRANE COUNTYWIDE                  Craig James                           Precinct 4                                             01 
01010090001000003REP       United States Senator CRANE COUNTYWIDE                  Glenn Addison                         Precinct 1                                             01 
01010090002000001REP       United States Senator CRANE COUNTYWIDE                  Glenn Addison                         Precinct 2                                             01 
01010090003000000REP       United States Senator CRANE COUNTYWIDE                  Glenn Addison                         Precinct 3                                             01 
01010090004000001REP       United States Senator CRANE COUNTYWIDE                  Glenn Addison                         Precinct 4                                             01 
01010100001000000REP       United States Senator CRANE COUNTYWIDE                  OVER VOTES                            Precinct 1                                             01 
01010100002000000REP       United States Senator CRANE COUNTYWIDE                  OVER VOTES                            Precinct 2                                             01 
01010100003000000REP       United States Senator CRANE COUNTYWIDE                  OVER VOTES                            Precinct 3                                             01 
01010100004000000REP       United States Senator CRANE COUNTYWIDE                  OVER VOTES                            Precinct 4                                             01 
01010110001000017REP       United States Senator CRANE COUNTYWIDE                  UNDER VOTES                           Precinct 1                                             01 
01010110002000008REP       United States Senator CRANE COUNTYWIDE                  UNDER VOTES                           Precinct 2                                             01 
01010110003000008REP       United States Senator CRANE COUNTYWIDE                  UNDER VOTES                           Precinct 3                                             01 
01010110004000009REP       United States Senator CRANE COUNTYWIDE                  UNDER VOTES                           Precinct 4                                             01 
01020010001000103REP       United States Rep, District 23 CRANE COUNTYWIDE         Francisco "Quico" Canseco             Precinct 1                                             01 
01020010002000065REP       United States Rep, District 23 CRANE COUNTYWIDE         Francisco "Quico" Canseco             Precinct 2                                             01 
01020010003000025REP       United States Rep, District 23 CRANE COUNTYWIDE         Francisco "Quico" Canseco             Precinct 3                                             01 
01020010004000051REP       United States Rep, District 23 CRANE COUNTYWIDE         Francisco "Quico" Canseco             Precinct 4                                             01 
01020020001000000REP       United States Rep, District 23 CRANE COUNTYWIDE         OVER VOTES                            Precinct 1                                             01 
01020020002000000REP       United States Rep, District 23 CRANE COUNTYWIDE         OVER VOTES                            Precinct 2                                             01 
01020020003000000REP       United States Rep, District 23 CRANE COUNTYWIDE         OVER VOTES                            Precinct 3                                             01 
01020020004000000REP       United States Rep, District 23 CRANE COUNTYWIDE         OVER VOTES                            Precinct 4                                             01 
01020030001000114REP       United States Rep, District 23 CRANE COUNTYWIDE         UNDER VOTES                           Precinct 1                                             01 
01020030002000069REP       United States Rep, District 23 CRANE COUNTYWIDE         UNDER VOTES                           Precinct 2                                             01 
01020030003000018REP       United States Rep, District 23 CRANE COUNTYWIDE         UNDER VOTES                           Precinct 3                                             01 
01020030004000044REP       United States Rep, District 23 CRANE COUNTYWIDE         UNDER VOTES                           Precinct 4                                             01 
01030010001000021REP       Railroad Commissioner CRANE COUNTYWIDE                  Joe Cotten                            Precinct 1                                             01 
01030010002000016REP       Railroad Commissioner CRANE COUNTYWIDE                  Joe Cotten                            Precinct 2                                             01 
01030010003000002REP       Railroad Commissioner CRANE COUNTYWIDE                  Joe Cotten                            Precinct 3                                             01 
01030010004000006REP       Railroad Commissioner CRANE COUNTYWIDE                  Joe Cotten                            Precinct 4                                             01 
01030020001000040REP       Railroad Commissioner CRANE COUNTYWIDE                  Warren Chisum                         Precinct 1                                             01 
01030020002000028REP       Railroad Commissioner CRANE COUNTYWIDE                  Warren Chisum                         Precinct 2                                             01 
01030020003000009REP       Railroad Commissioner CRANE COUNTYWIDE                  Warren Chisum                         Precinct 3                                             01 
01030020004000027REP       Railroad Commissioner CRANE COUNTYWIDE                  Warren Chisum                         Precinct 4                                             01 
01030030001000076REP       Railroad Commissioner CRANE COUNTYWIDE                  Christi Craddick                      Precinct 1                                             01 
01030030002000046REP       Railroad Commissioner CRANE COUNTYWIDE                  Christi Craddick                      Precinct 2                                             01 
01030030003000012REP       Railroad Commissioner CRANE COUNTYWIDE                  Christi Craddick                      Precinct 3                                             01 
01030030004000039REP       Railroad Commissioner CRANE COUNTYWIDE                  Christi Craddick                      Precinct 4                                             01 
01030040001000004REP       Railroad Commissioner CRANE COUNTYWIDE                  Beryl Burgess                         Precinct 1                                             01 
01030040002000002REP       Railroad Commissioner CRANE COUNTYWIDE                  Beryl Burgess                         Precinct 2                                             01 
01030040003000003REP       Railroad Commissioner CRANE COUNTYWIDE                  Beryl Burgess                         Precinct 3                                             01 
01030040004000001REP       Railroad Commissioner CRANE COUNTYWIDE                  Beryl Burgess                         Precinct 4                                             01 
01030050001000017REP       Railroad Commissioner CRANE COUNTYWIDE                  Becky Berger                          Precinct 1                                             01 
01030050002000009REP       Railroad Commissioner CRANE COUNTYWIDE                  Becky Berger                          Precinct 2                                             01 
01030050003000002REP       Railroad Commissioner CRANE COUNTYWIDE                  Becky Berger                          Precinct 3                                             01 
01030050004000004REP       Railroad Commissioner CRANE COUNTYWIDE                  Becky Berger                          Precinct 4                                             01 
01030060001000010REP       Railroad Commissioner CRANE COUNTYWIDE                  Roland Sledge                         Precinct 1                                             01 
01030060002000006REP       Railroad Commissioner CRANE COUNTYWIDE                  Roland Sledge                         Precinct 2                                             01 
01030060003000001REP       Railroad Commissioner CRANE COUNTYWIDE                  Roland Sledge                         Precinct 3                                             01 
01030060004000002REP       Railroad Commissioner CRANE COUNTYWIDE                  Roland Sledge                         Precinct 4                                             01 
01030070001000000REP       Railroad Commissioner CRANE COUNTYWIDE                  OVER VOTES                            Precinct 1                                             01 
01030070002000000REP       Railroad Commissioner CRANE COUNTYWIDE                  OVER VOTES                            Precinct 2                                             01 
01030070003000000REP       Railroad Commissioner CRANE COUNTYWIDE                  OVER VOTES                            Precinct 3                                             01 
01030070004000000REP       Railroad Commissioner CRANE COUNTYWIDE                  OVER VOTES                            Precinct 4                                             01 
01030080001000049REP       Railroad Commissioner CRANE COUNTYWIDE                  UNDER VOTES                           Precinct 1                                             01 
01030080002000027REP       Railroad Commissioner CRANE COUNTYWIDE                  UNDER VOTES                           Precinct 2                                             01 
01030080003000014REP       Railroad Commissioner CRANE COUNTYWIDE                  UNDER VOTES                           Precinct 3                                             01 
01030080004000016REP       Railroad Commissioner CRANE COUNTYWIDE                  UNDER VOTES                           Precinct 4                                             01 
01040010001000066REP       Railroad Commissioner, UNEXP CRANE COUNTYWIDE           Greg Parker                           Precinct 1                                             01 
01040010002000042REP       Railroad Commissioner, UNEXP CRANE COUNTYWIDE           Greg Parker                           Precinct 2                                             01 
01040010003000012REP       Railroad Commissioner, UNEXP CRANE COUNTYWIDE           Greg Parker                           Precinct 3                                             01 
01040010004000027REP       Railroad Commissioner, UNEXP CRANE COUNTYWIDE           Greg Parker                           Precinct 4                                             01 
01040020001000062REP       Railroad Commissioner, UNEXP CRANE COUNTYWIDE           Barry Smitherman                      Precinct 1                                             01 
01040020002000043REP       Railroad Commissioner, UNEXP CRANE COUNTYWIDE           Barry Smitherman                      Precinct 2                                             01 
01040020003000009REP       Railroad Commissioner, UNEXP CRANE COUNTYWIDE           Barry Smitherman                      Precinct 3                                             01 
01040020004000036REP       Railroad Commissioner, UNEXP CRANE COUNTYWIDE           Barry Smitherman                      Precinct 4                                             01 
01040030001000004REP       Railroad Commissioner, UNEXP CRANE COUNTYWIDE           Al Lee                                Precinct 1                                             01 
01040030002000004REP       Railroad Commissioner, UNEXP CRANE COUNTYWIDE           Al Lee                                Precinct 2                                             01 
01040030003000003REP       Railroad Commissioner, UNEXP CRANE COUNTYWIDE           Al Lee                                Precinct 3                                             01 
01040030004000007REP       Railroad Commissioner, UNEXP CRANE COUNTYWIDE           Al Lee                                Precinct 4                                             01 
01040040001000021REP       Railroad Commissioner, UNEXP CRANE COUNTYWIDE           Elizabeth Murray-Kolb                 Precinct 1                                             01 
01040040002000010REP       Railroad Commissioner, UNEXP CRANE COUNTYWIDE           Elizabeth Murray-Kolb                 Precinct 2                                             01 
01040040003000004REP       Railroad Commissioner, UNEXP CRANE COUNTYWIDE           Elizabeth Murray-Kolb                 Precinct 3                                             01 
01040040004000007REP       Railroad Commissioner, UNEXP CRANE COUNTYWIDE           Elizabeth Murray-Kolb                 Precinct 4                                             01 
01040050001000000REP       Railroad Commissioner, UNEXP CRANE COUNTYWIDE           OVER VOTES                            Precinct 1                                             01 
01040050002000000REP       Railroad Commissioner, UNEXP CRANE COUNTYWIDE           OVER VOTES                            Precinct 2                                             01 
01040050003000000REP       Railroad Commissioner, UNEXP CRANE COUNTYWIDE           OVER VOTES                            Precinct 3                                             01 
01040050004000000REP       Railroad Commissioner, UNEXP CRANE COUNTYWIDE           OVER VOTES                            Precinct 4                                             01 
01040060001000064REP       Railroad Commissioner, UNEXP CRANE COUNTYWIDE           UNDER VOTES                           Precinct 1                                             01 
01040060002000035REP       Railroad Commissioner, UNEXP CRANE COUNTYWIDE           UNDER VOTES                           Precinct 2                                             01 
01040060003000015REP       Railroad Commissioner, UNEXP CRANE COUNTYWIDE           UNDER VOTES                           Precinct 3                                             01 
01040060004000018REP       Railroad Commissioner, UNEXP CRANE COUNTYWIDE           UNDER VOTES                           Precinct 4                                             01 
01050010001000076REP       Justice, Supreme Court, Place 2 CRANE COUNTYWIDE        Don Willett                           Precinct 1                                             01 
01050010002000054REP       Justice, Supreme Court, Place 2 CRANE COUNTYWIDE        Don Willett                           Precinct 2                                             01 
01050010003000015REP       Justice, Supreme Court, Place 2 CRANE COUNTYWIDE        Don Willett                           Precinct 3                                             01 
01050010004000036REP       Justice, Supreme Court, Place 2 CRANE COUNTYWIDE        Don Willett                           Precinct 4                                             01 
01050020001000071REP       Justice, Supreme Court, Place 2 CRANE COUNTYWIDE        Steve Smith                           Precinct 1                                             01 
01050020002000046REP       Justice, Supreme Court, Place 2 CRANE COUNTYWIDE        Steve Smith                           Precinct 2                                             01 
01050020003000012REP       Justice, Supreme Court, Place 2 CRANE COUNTYWIDE        Steve Smith                           Precinct 3                                             01 
01050020004000043REP       Justice, Supreme Court, Place 2 CRANE COUNTYWIDE        Steve Smith                           Precinct 4                                             01 
01050030001000000REP       Justice, Supreme Court, Place 2 CRANE COUNTYWIDE        OVER VOTES                            Precinct 1                                             01 
01050030002000000REP       Justice, Supreme Court, Place 2 CRANE COUNTYWIDE        OVER VOTES                            Precinct 2                                             01 
01050030003000000REP       Justice, Supreme Court, Place 2 CRANE COUNTYWIDE        OVER VOTES                            Precinct 3                                             01 
01050030004000000REP       Justice, Supreme Court, Place 2 CRANE COUNTYWIDE        OVER VOTES                            Precinct 4                                             01 
01050040001000070REP       Justice, Supreme Court, Place 2 CRANE COUNTYWIDE        UNDER VOTES                           Precinct 1                                             01 
01050040002000034REP       Justice, Supreme Court, Place 2 CRANE COUNTYWIDE        UNDER VOTES                           Precinct 2                                             01 
01050040003000016REP       Justice, Supreme Court, Place 2 CRANE COUNTYWIDE        UNDER VOTES                           Precinct 3                                             01 
01050040004000016REP       Justice, Supreme Court, Place 2 CRANE COUNTYWIDE        UNDER VOTES                           Precinct 4                                             01 
01060010001000053REP       Justice, Supreme Court, Place 4 CRANE COUNTYWIDE        Joe Pool, Jr.                         Precinct 1                                             01 
01060010002000038REP       Justice, Supreme Court, Place 4 CRANE COUNTYWIDE        Joe Pool, Jr.                         Precinct 2                                             01 
01060010003000009REP       Justice, Supreme Court, Place 4 CRANE COUNTYWIDE        Joe Pool, Jr.                         Precinct 3                                             01 
01060010004000025REP       Justice, Supreme Court, Place 4 CRANE COUNTYWIDE        Joe Pool, Jr.                         Precinct 4                                             01 
01060020001000051REP       Justice, Supreme Court, Place 4 CRANE COUNTYWIDE        David Medina                          Precinct 1                                             01 
01060020002000036REP       Justice, Supreme Court, Place 4 CRANE COUNTYWIDE        David Medina                          Precinct 2                                             01 
01060020003000012REP       Justice, Supreme Court, Place 4 CRANE COUNTYWIDE        David Medina                          Precinct 3                                             01 
01060020004000031REP       Justice, Supreme Court, Place 4 CRANE COUNTYWIDE        David Medina                          Precinct 4                                             01 
01060030001000042REP       Justice, Supreme Court, Place 4 CRANE COUNTYWIDE        John Devine                           Precinct 1                                             01 
01060030002000023REP       Justice, Supreme Court, Place 4 CRANE COUNTYWIDE        John Devine                           Precinct 2                                             01 
01060030003000007REP       Justice, Supreme Court, Place 4 CRANE COUNTYWIDE        John Devine                           Precinct 3                                             01 
01060030004000017REP       Justice, Supreme Court, Place 4 CRANE COUNTYWIDE        John Devine                           Precinct 4                                             01 
01060040001000000REP       Justice, Supreme Court, Place 4 CRANE COUNTYWIDE        OVER VOTES                            Precinct 1                                             01 
01060040002000000REP       Justice, Supreme Court, Place 4 CRANE COUNTYWIDE        OVER VOTES                            Precinct 2                                             01 
01060040003000000REP       Justice, Supreme Court, Place 4 CRANE COUNTYWIDE        OVER VOTES                            Precinct 3                                             01 
01060040004000000REP       Justice, Supreme Court, Place 4 CRANE COUNTYWIDE        OVER VOTES                            Precinct 4                                             01 
01060050001000071REP       Justice, Supreme Court, Place 4 CRANE COUNTYWIDE        UNDER VOTES                           Precinct 1                                             01 
01060050002000037REP       Justice, Supreme Court, Place 4 CRANE COUNTYWIDE        UNDER VOTES                           Precinct 2                                             01 
01060050003000015REP       Justice, Supreme Court, Place 4 CRANE COUNTYWIDE        UNDER VOTES                           Precinct 3                                             01 
01060050004000022REP       Justice, Supreme Court, Place 4 CRANE COUNTYWIDE        UNDER VOTES                           Precinct 4                                             01 
01070010001000125REP       Justice, Supreme Court, Place 6 CRANE COUNTYWIDE        Nathan Hecht                          Precinct 1                                             01 
01070010002000079REP       Justice, Supreme Court, Place 6 CRANE COUNTYWIDE        Nathan Hecht                          Precinct 2                                             01 
01070010003000026REP       Justice, Supreme Court, Place 6 CRANE COUNTYWIDE        Nathan Hecht                          Precinct 3                                             01 
01070010004000071REP       Justice, Supreme Court, Place 6 CRANE COUNTYWIDE        Nathan Hecht                          Precinct 4                                             01 
01070020001000000REP       Justice, Supreme Court, Place 6 CRANE COUNTYWIDE        OVER VOTES                            Precinct 1                                             01 
01070020002000000REP       Justice, Supreme Court, Place 6 CRANE COUNTYWIDE        OVER VOTES                            Precinct 2                                             01 
01070020003000000REP       Justice, Supreme Court, Place 6 CRANE COUNTYWIDE        OVER VOTES                            Precinct 3                                             01 
01070020004000000REP       Justice, Supreme Court, Place 6 CRANE COUNTYWIDE        OVER VOTES                            Precinct 4                                             01 
01070030001000092REP       Justice, Supreme Court, Place 6 CRANE COUNTYWIDE        UNDER VOTES                           Precinct 1                                             01 
01070030002000055REP       Justice, Supreme Court, Place 6 CRANE COUNTYWIDE        UNDER VOTES                           Precinct 2                                             01 
01070030003000017REP       Justice, Supreme Court, Place 6 CRANE COUNTYWIDE        UNDER VOTES                           Precinct 3                                             01 
01070030004000024REP       Justice, Supreme Court, Place 6 CRANE COUNTYWIDE        UNDER VOTES                           Precinct 4                                             01 
01080010001000124REP       Presiding Judge, Court of Crim Appeals CRANE COUNTYWIDE Sharon  Keller                        Precinct 1                                             01 
01080010002000078REP       Presiding Judge, Court of Crim Appeals CRANE COUNTYWIDE Sharon  Keller                        Precinct 2                                             01 
01080010003000026REP       Presiding Judge, Court of Crim Appeals CRANE COUNTYWIDE Sharon  Keller                        Precinct 3                                             01 
01080010004000069REP       Presiding Judge, Court of Crim Appeals CRANE COUNTYWIDE Sharon  Keller                        Precinct 4                                             01 
01080020001000000REP       Presiding Judge, Court of Crim Appeals CRANE COUNTYWIDE OVER VOTES                            Precinct 1                                             01 
01080020002000000REP       Presiding Judge, Court of Crim Appeals CRANE COUNTYWIDE OVER VOTES                            Precinct 2                                             01 
01080020003000000REP       Presiding Judge, Court of Crim Appeals CRANE COUNTYWIDE OVER VOTES                            Precinct 3                                             01 
01080020004000000REP       Presiding Judge, Court of Crim Appeals CRANE COUNTYWIDE OVER VOTES                            Precinct 4                                             01 
01080030001000093REP       Presiding Judge, Court of Crim Appeals CRANE COUNTYWIDE UNDER VOTES                           Precinct 1                                             01 
01080030002000056REP       Presiding Judge, Court of Crim Appeals CRANE COUNTYWIDE UNDER VOTES                           Precinct 2                                             01 
01080030003000017REP       Presiding Judge, Court of Crim Appeals CRANE COUNTYWIDE UNDER VOTES                           Precinct 3                                             01 
01080030004000026REP       Presiding Judge, Court of Crim Appeals CRANE COUNTYWIDE UNDER VOTES                           Precinct 4                                             01 
01090010001000123REP       Judge, CT of Criminal Appeals, P7 CRANE COUNTYWIDE      Barbara Parker Hervey                 Precinct 1                                             01 
01090010002000077REP       Judge, CT of Criminal Appeals, P7 CRANE COUNTYWIDE      Barbara Parker Hervey                 Precinct 2                                             01 
01090010003000025REP       Judge, CT of Criminal Appeals, P7 CRANE COUNTYWIDE      Barbara Parker Hervey                 Precinct 3                                             01 
01090010004000069REP       Judge, CT of Criminal Appeals, P7 CRANE COUNTYWIDE      Barbara Parker Hervey                 Precinct 4                                             01 
01090020001000000REP       Judge, CT of Criminal Appeals, P7 CRANE COUNTYWIDE      OVER VOTES                            Precinct 1                                             01 
01090020002000000REP       Judge, CT of Criminal Appeals, P7 CRANE COUNTYWIDE      OVER VOTES                            Precinct 2                                             01 
01090020003000000REP       Judge, CT of Criminal Appeals, P7 CRANE COUNTYWIDE      OVER VOTES                            Precinct 3                                             01 
01090020004000000REP       Judge, CT of Criminal Appeals, P7 CRANE COUNTYWIDE      OVER VOTES                            Precinct 4                                             01 
01090030001000094REP       Judge, CT of Criminal Appeals, P7 CRANE COUNTYWIDE      UNDER VOTES                           Precinct 1                                             01 
01090030002000057REP       Judge, CT of Criminal Appeals, P7 CRANE COUNTYWIDE      UNDER VOTES                           Precinct 2                                             01 
01090030003000018REP       Judge, CT of Criminal Appeals, P7 CRANE COUNTYWIDE      UNDER VOTES                           Precinct 3                                             01 
01090030004000026REP       Judge, CT of Criminal Appeals, P7 CRANE COUNTYWIDE      UNDER VOTES                           Precinct 4                                             01 
01100010001000118REP       Judge, Court of Criminal Appeals, P8 CRANE COUNTYWIDE   Elsa Alcala                           Precinct 1                                             01 
01100010002000068REP       Judge, Court of Criminal Appeals, P8 CRANE COUNTYWIDE   Elsa Alcala                           Precinct 2                                             01 
01100010003000027REP       Judge, Court of Criminal Appeals, P8 CRANE COUNTYWIDE   Elsa Alcala                           Precinct 3                                             01 
01100010004000067REP       Judge, Court of Criminal Appeals, P8 CRANE COUNTYWIDE   Elsa Alcala                           Precinct 4                                             01 
01100020001000000REP       Judge, Court of Criminal Appeals, P8 CRANE COUNTYWIDE   OVER VOTES                            Precinct 1                                             01 
01100020002000000REP       Judge, Court of Criminal Appeals, P8 CRANE COUNTYWIDE   OVER VOTES                            Precinct 2                                             01 
01100020003000000REP       Judge, Court of Criminal Appeals, P8 CRANE COUNTYWIDE   OVER VOTES                            Precinct 3                                             01 
01100020004000000REP       Judge, Court of Criminal Appeals, P8 CRANE COUNTYWIDE   OVER VOTES                            Precinct 4                                             01 
01100030001000099REP       Judge, Court of Criminal Appeals, P8 CRANE COUNTYWIDE   UNDER VOTES                           Precinct 1                                             01 
01100030002000066REP       Judge, Court of Criminal Appeals, P8 CRANE COUNTYWIDE   UNDER VOTES                           Precinct 2                                             01 
01100030003000016REP       Judge, Court of Criminal Appeals, P8 CRANE COUNTYWIDE   UNDER VOTES                           Precinct 3                                             01 
01100030004000028REP       Judge, Court of Criminal Appeals, P8 CRANE COUNTYWIDE   UNDER VOTES                           Precinct 4                                             01 
01110010001000107REP       Member, State Board of Education, Dist1 CRANE COUNTYWIDECarlos "Charlie" Garza                Precinct 1                                             01 
01110010002000070REP       Member, State Board of Education, Dist1 CRANE COUNTYWIDECarlos "Charlie" Garza                Precinct 2                                             01 
01110010003000026REP       Member, State Board of Education, Dist1 CRANE COUNTYWIDECarlos "Charlie" Garza                Precinct 3                                             01 
01110010004000063REP       Member, State Board of Education, Dist1 CRANE COUNTYWIDECarlos "Charlie" Garza                Precinct 4                                             01 
01110020001000000REP       Member, State Board of Education, Dist1 CRANE COUNTYWIDEOVER VOTES                            Precinct 1                                             01 
01110020002000000REP       Member, State Board of Education, Dist1 CRANE COUNTYWIDEOVER VOTES                            Precinct 2                                             01 
01110020003000000REP       Member, State Board of Education, Dist1 CRANE COUNTYWIDEOVER VOTES                            Precinct 3                                             01 
01110020004000000REP       Member, State Board of Education, Dist1 CRANE COUNTYWIDEOVER VOTES                            Precinct 4                                             01 
01110030001000110REP       Member, State Board of Education, Dist1 CRANE COUNTYWIDEUNDER VOTES                           Precinct 1                                             01 
01110030002000064REP       Member, State Board of Education, Dist1 CRANE COUNTYWIDEUNDER VOTES                           Precinct 2                                             01 
01110030003000017REP       Member, State Board of Education, Dist1 CRANE COUNTYWIDEUNDER VOTES                           Precinct 3                                             01 
01110030004000032REP       Member, State Board of Education, Dist1 CRANE COUNTYWIDEUNDER VOTES                           Precinct 4                                             01 
01120010001000140REP       State Senator, District 28 CRANE COUNTYWIDE             Robert Duncan                         Precinct 1                                             01 
01120010002000082REP       State Senator, District 28 CRANE COUNTYWIDE             Robert Duncan                         Precinct 2                                             01 
01120010003000018REP       State Senator, District 28 CRANE COUNTYWIDE             Robert Duncan                         Precinct 3                                             01 
01120010004000063REP       State Senator, District 28 CRANE COUNTYWIDE             Robert Duncan                         Precinct 4                                             01 
01120020001000020REP       State Senator, District 28 CRANE COUNTYWIDE             E.M. Garza                            Precinct 1                                             01 
01120020002000016REP       State Senator, District 28 CRANE COUNTYWIDE             E.M. Garza                            Precinct 2                                             01 
01120020003000012REP       State Senator, District 28 CRANE COUNTYWIDE             E.M. Garza                            Precinct 3                                             01 
01120020004000010REP       State Senator, District 28 CRANE COUNTYWIDE             E.M. Garza                            Precinct 4                                             01 
01120030001000000REP       State Senator, District 28 CRANE COUNTYWIDE             OVER VOTES                            Precinct 1                                             01 
01120030002000000REP       State Senator, District 28 CRANE COUNTYWIDE             OVER VOTES                            Precinct 2                                             01 
01120030003000000REP       State Senator, District 28 CRANE COUNTYWIDE             OVER VOTES                            Precinct 3                                             01 
01120030004000000REP       State Senator, District 28 CRANE COUNTYWIDE             OVER VOTES                            Precinct 4                                             01 
01120040001000057REP       State Senator, District 28 CRANE COUNTYWIDE             UNDER VOTES                           Precinct 1                                             01 
01120040002000036REP       State Senator, District 28 CRANE COUNTYWIDE             UNDER VOTES                           Precinct 2                                             01 
01120040003000013REP       State Senator, District 28 CRANE COUNTYWIDE             UNDER VOTES                           Precinct 3                                             01 
01120040004000022REP       State Senator, District 28 CRANE COUNTYWIDE             UNDER VOTES                           Precinct 4                                             01 
01130010001000168REP       State Representative, District 82 CRANE COUNTYWIDE      Tom Craddick                          Precinct 1                                             01 
01130010002000094REP       State Representative, District 82 CRANE COUNTYWIDE      Tom Craddick                          Precinct 2                                             01 
01130010003000034REP       State Representative, District 82 CRANE COUNTYWIDE      Tom Craddick                          Precinct 3                                             01 
01130010004000074REP       State Representative, District 82 CRANE COUNTYWIDE      Tom Craddick                          Precinct 4                                             01 
01130020001000000REP       State Representative, District 82 CRANE COUNTYWIDE      OVER VOTES                            Precinct 1                                             01 
01130020002000000REP       State Representative, District 82 CRANE COUNTYWIDE      OVER VOTES                            Precinct 2                                             01 
01130020003000000REP       State Representative, District 82 CRANE COUNTYWIDE      OVER VOTES                            Precinct 3                                             01 
01130020004000000REP       State Representative, District 82 CRANE COUNTYWIDE      OVER VOTES                            Precinct 4                                             01 
01130030001000049REP       State Representative, District 82 CRANE COUNTYWIDE      UNDER VOTES                           Precinct 1                                             01 
01130030002000040REP       State Representative, District 82 CRANE COUNTYWIDE      UNDER VOTES                           Precinct 2                                             01 
01130030003000009REP       State Representative, District 82 CRANE COUNTYWIDE      UNDER VOTES                           Precinct 3                                             01 
01130030004000021REP       State Representative, District 82 CRANE COUNTYWIDE      UNDER VOTES                           Precinct 4                                             01 
01140010001000115REP       Justice, 8th CT of Ap Dist, P2 CRANE COUNTYWIDE         Chris Antcliff                        Precinct 1                                             01 
01140010002000071REP       Justice, 8th CT of Ap Dist, P2 CRANE COUNTYWIDE         Chris Antcliff                        Precinct 2                                             01 
01140010003000026REP       Justice, 8th CT of Ap Dist, P2 CRANE COUNTYWIDE         Chris Antcliff                        Precinct 3                                             01 
01140010004000061REP       Justice, 8th CT of Ap Dist, P2 CRANE COUNTYWIDE         Chris Antcliff                        Precinct 4                                             01 
01140020001000000REP       Justice, 8th CT of Ap Dist, P2 CRANE COUNTYWIDE         OVER VOTES                            Precinct 1                                             01 
01140020002000000REP       Justice, 8th CT of Ap Dist, P2 CRANE COUNTYWIDE         OVER VOTES                            Precinct 2                                             01 
01140020003000000REP       Justice, 8th CT of Ap Dist, P2 CRANE COUNTYWIDE         OVER VOTES                            Precinct 3                                             01 
01140020004000000REP       Justice, 8th CT of Ap Dist, P2 CRANE COUNTYWIDE         OVER VOTES                            Precinct 4                                             01 
01140030001000102REP       Justice, 8th CT of Ap Dist, P2 CRANE COUNTYWIDE         UNDER VOTES                           Precinct 1                                             01 
01140030002000063REP       Justice, 8th CT of Ap Dist, P2 CRANE COUNTYWIDE         UNDER VOTES                           Precinct 2                                             01 
01140030003000017REP       Justice, 8th CT of Ap Dist, P2 CRANE COUNTYWIDE         UNDER VOTES                           Precinct 3                                             01 
01140030004000034REP       Justice, 8th CT of Ap Dist, P2 CRANE COUNTYWIDE         UNDER VOTES                           Precinct 4                                             01 
01150010001000133REP       District Attorney, 109th Judicial DIST CRANE COUNTYWIDE Dorothy A. Holguin                    Precinct 1                                             01 
01150010002000075REP       District Attorney, 109th Judicial DIST CRANE COUNTYWIDE Dorothy A. Holguin                    Precinct 2                                             01 
01150010003000027REP       District Attorney, 109th Judicial DIST CRANE COUNTYWIDE Dorothy A. Holguin                    Precinct 3                                             01 
01150010004000066REP       District Attorney, 109th Judicial DIST CRANE COUNTYWIDE Dorothy A. Holguin                    Precinct 4                                             01 
01150020001000000REP       District Attorney, 109th Judicial DIST CRANE COUNTYWIDE OVER VOTES                            Precinct 1                                             01 
01150020002000000REP       District Attorney, 109th Judicial DIST CRANE COUNTYWIDE OVER VOTES                            Precinct 2                                             01 
01150020003000000REP       District Attorney, 109th Judicial DIST CRANE COUNTYWIDE OVER VOTES                            Precinct 3                                             01 
01150020004000000REP       District Attorney, 109th Judicial DIST CRANE COUNTYWIDE OVER VOTES                            Precinct 4                                             01 
01150030001000084REP       District Attorney, 109th Judicial DIST CRANE COUNTYWIDE UNDER VOTES                           Precinct 1                                             01 
01150030002000059REP       District Attorney, 109th Judicial DIST CRANE COUNTYWIDE UNDER VOTES                           Precinct 2                                             01 
01150030003000016REP       District Attorney, 109th Judicial DIST CRANE COUNTYWIDE UNDER VOTES                           Precinct 3                                             01 
01150030004000029REP       District Attorney, 109th Judicial DIST CRANE COUNTYWIDE UNDER VOTES                           Precinct 4                                             01 
01210010001000003DEM       President CRANE COUNTYWIDE                              John Wolfe                            Precinct 1                                             01 
01210010002000002DEM       President CRANE COUNTYWIDE                              John Wolfe                            Precinct 2                                             01 
01210010003000001DEM       President CRANE COUNTYWIDE                              John Wolfe                            Precinct 3                                             01 
01210010004000002DEM       President CRANE COUNTYWIDE                              John Wolfe                            Precinct 4                                             01 
01210020001000003DEM       President CRANE COUNTYWIDE                              Darcy G. Richardson                   Precinct 1                                             01 
01210020002000002DEM       President CRANE COUNTYWIDE                              Darcy G. Richardson                   Precinct 2                                             01 
01210020003000002DEM       President CRANE COUNTYWIDE                              Darcy G. Richardson                   Precinct 3                                             01 
01210020004000001DEM       President CRANE COUNTYWIDE                              Darcy G. Richardson                   Precinct 4                                             01 
01210030001000015DEM       President CRANE COUNTYWIDE                              Barack Obama                          Precinct 1                                             01 
01210030002000018DEM       President CRANE COUNTYWIDE                              Barack Obama                          Precinct 2                                             01 
01210030003000020DEM       President CRANE COUNTYWIDE                              Barack Obama                          Precinct 3                                             01 
01210030004000006DEM       President CRANE COUNTYWIDE                              Barack Obama                          Precinct 4                                             01 
01210040001000002DEM       President CRANE COUNTYWIDE                              Bob Ely                               Precinct 1                                             01 
01210040002000003DEM       President CRANE COUNTYWIDE                              Bob Ely                               Precinct 2                                             01 
01210040003000001DEM       President CRANE COUNTYWIDE                              Bob Ely                               Precinct 3                                             01 
01210040004000001DEM       President CRANE COUNTYWIDE                              Bob Ely                               Precinct 4                                             01 
01210050001000000DEM       President CRANE COUNTYWIDE                              OVER VOTES                            Precinct 1                                             01 
01210050002000000DEM       President CRANE COUNTYWIDE                              OVER VOTES                            Precinct 2                                             01 
01210050003000000DEM       President CRANE COUNTYWIDE                              OVER VOTES                            Precinct 3                                             01 
01210050004000000DEM       President CRANE COUNTYWIDE                              OVER VOTES                            Precinct 4                                             01 
01210060001000017DEM       President CRANE COUNTYWIDE                              UNDER VOTES                           Precinct 1                                             01 
01210060002000007DEM       President CRANE COUNTYWIDE                              UNDER VOTES                           Precinct 2                                             01 
01210060003000006DEM       President CRANE COUNTYWIDE                              UNDER VOTES                           Precinct 3                                             01 
01210060004000001DEM       President CRANE COUNTYWIDE                              UNDER VOTES                           Precinct 4                                             01 
01220010001000007DEM       United States Senator CRANE COUNTYWIDE                  Sean Hubbard                          Precinct 1                                             01 
01220010002000004DEM       United States Senator CRANE COUNTYWIDE                  Sean Hubbard                          Precinct 2                                             01 
01220010003000005DEM       United States Senator CRANE COUNTYWIDE                  Sean Hubbard                          Precinct 3                                             01 
01220010004000004DEM       United States Senator CRANE COUNTYWIDE                  Sean Hubbard                          Precinct 4                                             01 
01220020001000008DEM       United States Senator CRANE COUNTYWIDE                  Paul Sadler                           Precinct 1                                             01 
01220020002000007DEM       United States Senator CRANE COUNTYWIDE                  Paul Sadler                           Precinct 2                                             01 
01220020003000009DEM       United States Senator CRANE COUNTYWIDE                  Paul Sadler                           Precinct 3                                             01 
01220020004000004DEM       United States Senator CRANE COUNTYWIDE                  Paul Sadler                           Precinct 4                                             01 
01220030001000002DEM       United States Senator CRANE COUNTYWIDE                  Addie Dainell Allen                   Precinct 1                                             01 
01220030002000005DEM       United States Senator CRANE COUNTYWIDE                  Addie Dainell Allen                   Precinct 2                                             01 
01220030003000003DEM       United States Senator CRANE COUNTYWIDE                  Addie Dainell Allen                   Precinct 3                                             01 
01220030004000000DEM       United States Senator CRANE COUNTYWIDE                  Addie Dainell Allen                   Precinct 4                                             01 
01220040001000006DEM       United States Senator CRANE COUNTYWIDE                  Grady Yarbrough                       Precinct 1                                             01 
01220040002000006DEM       United States Senator CRANE COUNTYWIDE                  Grady Yarbrough                       Precinct 2                                             01 
01220040003000004DEM       United States Senator CRANE COUNTYWIDE                  Grady Yarbrough                       Precinct 3                                             01 
01220040004000002DEM       United States Senator CRANE COUNTYWIDE                  Grady Yarbrough                       Precinct 4                                             01 
01220050001000000DEM       United States Senator CRANE COUNTYWIDE                  OVER VOTES                            Precinct 1                                             01 
01220050002000000DEM       United States Senator CRANE COUNTYWIDE                  OVER VOTES                            Precinct 2                                             01 
01220050003000000DEM       United States Senator CRANE COUNTYWIDE                  OVER VOTES                            Precinct 3                                             01 
01220050004000000DEM       United States Senator CRANE COUNTYWIDE                  OVER VOTES                            Precinct 4                                             01 
01220060001000017DEM       United States Senator CRANE COUNTYWIDE                  UNDER VOTES                           Precinct 1                                             01 
01220060002000010DEM       United States Senator CRANE COUNTYWIDE                  UNDER VOTES                           Precinct 2                                             01 
01220060003000009DEM       United States Senator CRANE COUNTYWIDE                  UNDER VOTES                           Precinct 3                                             01 
01220060004000001DEM       United States Senator CRANE COUNTYWIDE                  UNDER VOTES                           Precinct 4                                             01 
01230010001000011DEM       United States Rep, District 23 CRANE COUNTYWIDE         Ciro D. Rodriguez                     Precinct 1                                             01 
01230010002000005DEM       United States Rep, District 23 CRANE COUNTYWIDE         Ciro D. Rodriguez                     Precinct 2                                             01 
01230010003000003DEM       United States Rep, District 23 CRANE COUNTYWIDE         Ciro D. Rodriguez                     Precinct 3                                             01 
01230010004000001DEM       United States Rep, District 23 CRANE COUNTYWIDE         Ciro D. Rodriguez                     Precinct 4                                             01 
01230020001000004DEM       United States Rep, District 23 CRANE COUNTYWIDE         John M. Bustamante                    Precinct 1                                             01 
01230020002000009DEM       United States Rep, District 23 CRANE COUNTYWIDE         John M. Bustamante                    Precinct 2                                             01 
01230020003000009DEM       United States Rep, District 23 CRANE COUNTYWIDE         John M. Bustamante                    Precinct 3                                             01 
01230020004000002DEM       United States Rep, District 23 CRANE COUNTYWIDE         John M. Bustamante                    Precinct 4                                             01 
01230030001000016DEM       United States Rep, District 23 CRANE COUNTYWIDE         Pete P. Gallego                       Precinct 1                                             01 
01230030002000011DEM       United States Rep, District 23 CRANE COUNTYWIDE         Pete P. Gallego                       Precinct 2                                             01 
01230030003000014DEM       United States Rep, District 23 CRANE COUNTYWIDE         Pete P. Gallego                       Precinct 3                                             01 
01230030004000008DEM       United States Rep, District 23 CRANE COUNTYWIDE         Pete P. Gallego                       Precinct 4                                             01 
01230040001000000DEM       United States Rep, District 23 CRANE COUNTYWIDE         OVER VOTES                            Precinct 1                                             01 
01230040002000000DEM       United States Rep, District 23 CRANE COUNTYWIDE         OVER VOTES                            Precinct 2                                             01 
01230040003000000DEM       United States Rep, District 23 CRANE COUNTYWIDE         OVER VOTES                            Precinct 3                                             01 
01230040004000000DEM       United States Rep, District 23 CRANE COUNTYWIDE         OVER VOTES                            Precinct 4                                             01 
01230050001000009DEM       United States Rep, District 23 CRANE COUNTYWIDE         UNDER VOTES                           Precinct 1                                             01 
01230050002000007DEM       United States Rep, District 23 CRANE COUNTYWIDE         UNDER VOTES                           Precinct 2                                             01 
01230050003000004DEM       United States Rep, District 23 CRANE COUNTYWIDE         UNDER VOTES                           Precinct 3                                             01 
01230050004000000DEM       United States Rep, District 23 CRANE COUNTYWIDE         UNDER VOTES                           Precinct 4                                             01 
01240010001000028DEM       Railroad Commissioner CRANE COUNTYWIDE                  Dale Henry                            Precinct 1                                             01 
01240010002000017DEM       Railroad Commissioner CRANE COUNTYWIDE                  Dale Henry                            Precinct 2                                             01 
01240010003000020DEM       Railroad Commissioner CRANE COUNTYWIDE                  Dale Henry                            Precinct 3                                             01 
01240010004000010DEM       Railroad Commissioner CRANE COUNTYWIDE                  Dale Henry                            Precinct 4                                             01 
01240020001000000DEM       Railroad Commissioner CRANE COUNTYWIDE                  OVER VOTES                            Precinct 1                                             01 
01240020002000000DEM       Railroad Commissioner CRANE COUNTYWIDE                  OVER VOTES                            Precinct 2                                             01 
01240020003000000DEM       Railroad Commissioner CRANE COUNTYWIDE                  OVER VOTES                            Precinct 3                                             01 
01240020004000000DEM       Railroad Commissioner CRANE COUNTYWIDE                  OVER VOTES                            Precinct 4                                             01 
01240030001000012DEM       Railroad Commissioner CRANE COUNTYWIDE                  UNDER VOTES                           Precinct 1                                             01 
01240030002000015DEM       Railroad Commissioner CRANE COUNTYWIDE                  UNDER VOTES                           Precinct 2                                             01 
01240030003000010DEM       Railroad Commissioner CRANE COUNTYWIDE                  UNDER VOTES                           Precinct 3                                             01 
01240030004000001DEM       Railroad Commissioner CRANE COUNTYWIDE                  UNDER VOTES                           Precinct 4                                             01 
01250010001000027DEM       Justice, Supreme Court, Place 6 CRANE COUNTYWIDE        Michele Petty                         Precinct 1                                             01 
01250010002000018DEM       Justice, Supreme Court, Place 6 CRANE COUNTYWIDE        Michele Petty                         Precinct 2                                             01 
01250010003000019DEM       Justice, Supreme Court, Place 6 CRANE COUNTYWIDE        Michele Petty                         Precinct 3                                             01 
01250010004000010DEM       Justice, Supreme Court, Place 6 CRANE COUNTYWIDE        Michele Petty                         Precinct 4                                             01 
01250020001000000DEM       Justice, Supreme Court, Place 6 CRANE COUNTYWIDE        OVER VOTES                            Precinct 1                                             01 
01250020002000000DEM       Justice, Supreme Court, Place 6 CRANE COUNTYWIDE        OVER VOTES                            Precinct 2                                             01 
01250020003000000DEM       Justice, Supreme Court, Place 6 CRANE COUNTYWIDE        OVER VOTES                            Precinct 3                                             01 
01250020004000000DEM       Justice, Supreme Court, Place 6 CRANE COUNTYWIDE        OVER VOTES                            Precinct 4                                             01 
01250030001000013DEM       Justice, Supreme Court, Place 6 CRANE COUNTYWIDE        UNDER VOTES                           Precinct 1                                             01 
01250030002000014DEM       Justice, Supreme Court, Place 6 CRANE COUNTYWIDE        UNDER VOTES                           Precinct 2                                             01 
01250030003000011DEM       Justice, Supreme Court, Place 6 CRANE COUNTYWIDE        UNDER VOTES                           Precinct 3                                             01 
01250030004000001DEM       Justice, Supreme Court, Place 6 CRANE COUNTYWIDE        UNDER VOTES                           Precinct 4                                             01 
01260010001000026DEM       Presiding Judge, Court of Crim Appeals CRANE COUNTYWIDE Keith Hampton                         Precinct 1                                             01 
01260010002000016DEM       Presiding Judge, Court of Crim Appeals CRANE COUNTYWIDE Keith Hampton                         Precinct 2                                             01 
01260010003000021DEM       Presiding Judge, Court of Crim Appeals CRANE COUNTYWIDE Keith Hampton                         Precinct 3                                             01 
01260010004000010DEM       Presiding Judge, Court of Crim Appeals CRANE COUNTYWIDE Keith Hampton                         Precinct 4                                             01 
01260020001000000DEM       Presiding Judge, Court of Crim Appeals CRANE COUNTYWIDE OVER VOTES                            Precinct 1                                             01 
01260020002000000DEM       Presiding Judge, Court of Crim Appeals CRANE COUNTYWIDE OVER VOTES                            Precinct 2                                             01 
01260020003000000DEM       Presiding Judge, Court of Crim Appeals CRANE COUNTYWIDE OVER VOTES                            Precinct 3                                             01 
01260020004000000DEM       Presiding Judge, Court of Crim Appeals CRANE COUNTYWIDE OVER VOTES                            Precinct 4                                             01 
01260030001000014DEM       Presiding Judge, Court of Crim Appeals CRANE COUNTYWIDE UNDER VOTES                           Precinct 1                                             01 
01260030002000016DEM       Presiding Judge, Court of Crim Appeals CRANE COUNTYWIDE UNDER VOTES                           Precinct 2                                             01 
01260030003000009DEM       Presiding Judge, Court of Crim Appeals CRANE COUNTYWIDE UNDER VOTES                           Precinct 3                                             01 
01260030004000001DEM       Presiding Judge, Court of Crim Appeals CRANE COUNTYWIDE UNDER VOTES                           Precinct 4                                             01 
01270010001000003DEM       Member, State Board of Education, Dist1 CRANE COUNTYWIDESergio Mora                           Precinct 1                                             01 
01270010002000004DEM       Member, State Board of Education, Dist1 CRANE COUNTYWIDESergio Mora                           Precinct 2                                             01 
01270010003000003DEM       Member, State Board of Education, Dist1 CRANE COUNTYWIDESergio Mora                           Precinct 3                                             01 
01270010004000002DEM       Member, State Board of Education, Dist1 CRANE COUNTYWIDESergio Mora                           Precinct 4                                             01 
01270020001000021DEM       Member, State Board of Education, Dist1 CRANE COUNTYWIDEMartha M. Dominguez                   Precinct 1                                             01 
01270020002000014DEM       Member, State Board of Education, Dist1 CRANE COUNTYWIDEMartha M. Dominguez                   Precinct 2                                             01 
01270020003000019DEM       Member, State Board of Education, Dist1 CRANE COUNTYWIDEMartha M. Dominguez                   Precinct 3                                             01 
01270020004000007DEM       Member, State Board of Education, Dist1 CRANE COUNTYWIDEMartha M. Dominguez                   Precinct 4                                             01 
01270030001000002DEM       Member, State Board of Education, Dist1 CRANE COUNTYWIDEAndres Muro                           Precinct 1                                             01 
01270030002000002DEM       Member, State Board of Education, Dist1 CRANE COUNTYWIDEAndres Muro                           Precinct 2                                             01 
01270030003000003DEM       Member, State Board of Education, Dist1 CRANE COUNTYWIDEAndres Muro                           Precinct 3                                             01 
01270030004000002DEM       Member, State Board of Education, Dist1 CRANE COUNTYWIDEAndres Muro                           Precinct 4                                             01 
01270040001000000DEM       Member, State Board of Education, Dist1 CRANE COUNTYWIDEOVER VOTES                            Precinct 1                                             01 
01270040002000000DEM       Member, State Board of Education, Dist1 CRANE COUNTYWIDEOVER VOTES                            Precinct 2                                             01 
01270040003000000DEM       Member, State Board of Education, Dist1 CRANE COUNTYWIDEOVER VOTES                            Precinct 3                                             01 
01270040004000000DEM       Member, State Board of Education, Dist1 CRANE COUNTYWIDEOVER VOTES                            Precinct 4                                             01 
01270050001000014DEM       Member, State Board of Education, Dist1 CRANE COUNTYWIDEUNDER VOTES                           Precinct 1                                             01 
01270050002000012DEM       Member, State Board of Education, Dist1 CRANE COUNTYWIDEUNDER VOTES                           Precinct 2                                             01 
01270050003000005DEM       Member, State Board of Education, Dist1 CRANE COUNTYWIDEUNDER VOTES                           Precinct 3                                             01 
01270050004000000DEM       Member, State Board of Education, Dist1 CRANE COUNTYWIDEUNDER VOTES                           Precinct 4                                             01 
01280010001000010DEM       Chief Justice, 8 Ct of ApDist UNEXP CRANE COUNTYWIDE    Luis C. Labrado                       Precinct 1                                             01 
01280010002000009DEM       Chief Justice, 8 Ct of ApDist UNEXP CRANE COUNTYWIDE    Luis C. Labrado                       Precinct 2                                             01 
01280010003000016DEM       Chief Justice, 8 Ct of ApDist UNEXP CRANE COUNTYWIDE    Luis C. Labrado                       Precinct 3                                             01 
01280010004000004DEM       Chief Justice, 8 Ct of ApDist UNEXP CRANE COUNTYWIDE    Luis C. Labrado                       Precinct 4                                             01 
01280020001000021DEM       Chief Justice, 8 Ct of ApDist UNEXP CRANE COUNTYWIDE    Ann Crawford McClure                  Precinct 1                                             01 
01280020002000012DEM       Chief Justice, 8 Ct of ApDist UNEXP CRANE COUNTYWIDE    Ann Crawford McClure                  Precinct 2                                             01 
01280020003000008DEM       Chief Justice, 8 Ct of ApDist UNEXP CRANE COUNTYWIDE    Ann Crawford McClure                  Precinct 3                                             01 
01280020004000007DEM       Chief Justice, 8 Ct of ApDist UNEXP CRANE COUNTYWIDE    Ann Crawford McClure                  Precinct 4                                             01 
01280030001000000DEM       Chief Justice, 8 Ct of ApDist UNEXP CRANE COUNTYWIDE    OVER VOTES                            Precinct 1                                             01 
01280030002000000DEM       Chief Justice, 8 Ct of ApDist UNEXP CRANE COUNTYWIDE    OVER VOTES                            Precinct 2                                             01 
01280030003000000DEM       Chief Justice, 8 Ct of ApDist UNEXP CRANE COUNTYWIDE    OVER VOTES                            Precinct 3                                             01 
01280030004000000DEM       Chief Justice, 8 Ct of ApDist UNEXP CRANE COUNTYWIDE    OVER VOTES                            Precinct 4                                             01 
01280040001000009DEM       Chief Justice, 8 Ct of ApDist UNEXP CRANE COUNTYWIDE    UNDER VOTES                           Precinct 1                                             01 
01280040002000011DEM       Chief Justice, 8 Ct of ApDist UNEXP CRANE COUNTYWIDE    UNDER VOTES                           Precinct 2                                             01 
01280040003000006DEM       Chief Justice, 8 Ct of ApDist UNEXP CRANE COUNTYWIDE    UNDER VOTES                           Precinct 3                                             01 
01280040004000000DEM       Chief Justice, 8 Ct of ApDist UNEXP CRANE COUNTYWIDE    UNDER VOTES                           Precinct 4                                             01 
01290010001000010DEM       Justice, 8th CT of Ap Dist, P2 CRANE COUNTYWIDE         Yvonne Rodriguez                      Precinct 1                                             01 
01290010002000011DEM       Justice, 8th CT of Ap Dist, P2 CRANE COUNTYWIDE         Yvonne Rodriguez                      Precinct 2                                             01 
01290010003000015DEM       Justice, 8th CT of Ap Dist, P2 CRANE COUNTYWIDE         Yvonne Rodriguez                      Precinct 3                                             01 
01290010004000005DEM       Justice, 8th CT of Ap Dist, P2 CRANE COUNTYWIDE         Yvonne Rodriguez                      Precinct 4                                             01 
01290020001000016DEM       Justice, 8th CT of Ap Dist, P2 CRANE COUNTYWIDE         Tom Stanton                           Precinct 1                                             01 
01290020002000008DEM       Justice, 8th CT of Ap Dist, P2 CRANE COUNTYWIDE         Tom Stanton                           Precinct 2                                             01 
01290020003000004DEM       Justice, 8th CT of Ap Dist, P2 CRANE COUNTYWIDE         Tom Stanton                           Precinct 3                                             01 
01290020004000004DEM       Justice, 8th CT of Ap Dist, P2 CRANE COUNTYWIDE         Tom Stanton                           Precinct 4                                             01 
01290030001000001DEM       Justice, 8th CT of Ap Dist, P2 CRANE COUNTYWIDE         Marcos Lizarraga                      Precinct 1                                             01 
01290030002000003DEM       Justice, 8th CT of Ap Dist, P2 CRANE COUNTYWIDE         Marcos Lizarraga                      Precinct 2                                             01 
01290030003000007DEM       Justice, 8th CT of Ap Dist, P2 CRANE COUNTYWIDE         Marcos Lizarraga                      Precinct 3                                             01 
01290030004000002DEM       Justice, 8th CT of Ap Dist, P2 CRANE COUNTYWIDE         Marcos Lizarraga                      Precinct 4                                             01 
01290040001000000DEM       Justice, 8th CT of Ap Dist, P2 CRANE COUNTYWIDE         OVER VOTES                            Precinct 1                                             01 
01290040002000000DEM       Justice, 8th CT of Ap Dist, P2 CRANE COUNTYWIDE         OVER VOTES                            Precinct 2                                             01 
01290040003000000DEM       Justice, 8th CT of Ap Dist, P2 CRANE COUNTYWIDE         OVER VOTES                            Precinct 3                                             01 
01290040004000000DEM       Justice, 8th CT of Ap Dist, P2 CRANE COUNTYWIDE         OVER VOTES                            Precinct 4                                             01 
01290050001000013DEM       Justice, 8th CT of Ap Dist, P2 CRANE COUNTYWIDE         UNDER VOTES                           Precinct 1                                             01 
01290050002000010DEM       Justice, 8th CT of Ap Dist, P2 CRANE COUNTYWIDE         UNDER VOTES                           Precinct 2                                             01 
01290050003000004DEM       Justice, 8th CT of Ap Dist, P2 CRANE COUNTYWIDE         UNDER VOTES                           Precinct 3                                             01 
01290050004000000DEM       Justice, 8th CT of Ap Dist, P2 CRANE COUNTYWIDE         UNDER VOTES                           Precinct 4                                             01 
01300010001000024DEM       Justice, 8th CT of Ap Dist, P3 CRANE COUNTYWIDE         Guadalupe "Lupe" Rivera               Precinct 1                                             01 
01300010002000016DEM       Justice, 8th CT of Ap Dist, P3 CRANE COUNTYWIDE         Guadalupe "Lupe" Rivera               Precinct 2                                             01 
01300010003000024DEM       Justice, 8th CT of Ap Dist, P3 CRANE COUNTYWIDE         Guadalupe "Lupe" Rivera               Precinct 3                                             01 
01300010004000010DEM       Justice, 8th CT of Ap Dist, P3 CRANE COUNTYWIDE         Guadalupe "Lupe" Rivera               Precinct 4                                             01 
01300020001000000DEM       Justice, 8th CT of Ap Dist, P3 CRANE COUNTYWIDE         OVER VOTES                            Precinct 1                                             01 
01300020002000000DEM       Justice, 8th CT of Ap Dist, P3 CRANE COUNTYWIDE         OVER VOTES                            Precinct 2                                             01 
01300020003000000DEM       Justice, 8th CT of Ap Dist, P3 CRANE COUNTYWIDE         OVER VOTES                            Precinct 3                                             01 
01300020004000000DEM       Justice, 8th CT of Ap Dist, P3 CRANE COUNTYWIDE         OVER VOTES                            Precinct 4                                             01 
01300030001000016DEM       Justice, 8th CT of Ap Dist, P3 CRANE COUNTYWIDE         UNDER VOTES                           Precinct 1                                             01 
01300030002000016DEM       Justice, 8th CT of Ap Dist, P3 CRANE COUNTYWIDE         UNDER VOTES                           Precinct 2                                             01 
01300030003000006DEM       Justice, 8th CT of Ap Dist, P3 CRANE COUNTYWIDE         UNDER VOTES                           Precinct 3                                             01 
01300030004000001DEM       Justice, 8th CT of Ap Dist, P3 CRANE COUNTYWIDE         UNDER VOTES                           Precinct 4                                             01 
