03250014068000011NON       EAST CENTRAL ISD Trustee, District 3                    Randall Gearhart                                                                             01 
03250014069000208NON       EAST CENTRAL ISD Trustee, District 3                    Randall Gearhart                                                                             01 
03250014071000036NON       EAST CENTRAL ISD Trustee, District 3                    Randall Gearhart                                                                             01 
03250014072000173NON       EAST CENTRAL ISD Trustee, District 3                    Randall Gearhart                                                                             01 
03250014078000140NON       EAST CENTRAL ISD Trustee, District 3                    Randall Gearhart                                                                             01 
03250014085000022NON       EAST CENTRAL ISD Trustee, District 3                    Randall Gearhart                                                                             01 
03250014087000082NON       EAST CENTRAL ISD Trustee, District 3                    Randall Gearhart                                                                             01 
03250014101000179NON       EAST CENTRAL ISD Trustee, District 3                    Randall Gearhart                                                                             01 
03250014118000005NON       EAST CENTRAL ISD Trustee, District 3                    Randall Gearhart                                                                             01 
03250014127000000NON       EAST CENTRAL ISD Trustee, District 3                    Randall Gearhart                                                                             01 
03250014136000062NON       EAST CENTRAL ISD Trustee, District 3                    Randall Gearhart                                                                             01 
03250014137000017NON       EAST CENTRAL ISD Trustee, District 3                    Randall Gearhart                                                                             01 
03250014159000001NON       EAST CENTRAL ISD Trustee, District 3                    Randall Gearhart                                                                             01 
03250014180000000NON       EAST CENTRAL ISD Trustee, District 3                    Randall Gearhart                                                                             01 
03250014189000029NON       EAST CENTRAL ISD Trustee, District 3                    Randall Gearhart                                                                             01 
03250014190000000NON       EAST CENTRAL ISD Trustee, District 3                    Randall Gearhart                                                                             01 
03250024068000015NON       EAST CENTRAL ISD Trustee, District 3                    John Massengale                                                                              01 
03250024069000254NON       EAST CENTRAL ISD Trustee, District 3                    John Massengale                                                                              01 
03250024071000017NON       EAST CENTRAL ISD Trustee, District 3                    John Massengale                                                                              01 
03250024072000160NON       EAST CENTRAL ISD Trustee, District 3                    John Massengale                                                                              01 
03250024078000104NON       EAST CENTRAL ISD Trustee, District 3                    John Massengale                                                                              01 
03250024085000007NON       EAST CENTRAL ISD Trustee, District 3                    John Massengale                                                                              01 
03250024087000059NON       EAST CENTRAL ISD Trustee, District 3                    John Massengale                                                                              01 
03250024101000162NON       EAST CENTRAL ISD Trustee, District 3                    John Massengale                                                                              01 
03250024118000002NON       EAST CENTRAL ISD Trustee, District 3                    John Massengale                                                                              01 
03250024127000002NON       EAST CENTRAL ISD Trustee, District 3                    John Massengale                                                                              01 
03250024136000036NON       EAST CENTRAL ISD Trustee, District 3                    John Massengale                                                                              01 
03250024137000011NON       EAST CENTRAL ISD Trustee, District 3                    John Massengale                                                                              01 
03250024159000002NON       EAST CENTRAL ISD Trustee, District 3                    John Massengale                                                                              01 
03250024180000000NON       EAST CENTRAL ISD Trustee, District 3                    John Massengale                                                                              01 
03250024189000027NON       EAST CENTRAL ISD Trustee, District 3                    John Massengale                                                                              01 
03250024190000001NON       EAST CENTRAL ISD Trustee, District 3                    John Massengale                                                                              01 
03250034068000000          EAST CENTRAL ISD Trustee, District 3                    OVER VOTES                                                                                   01 
03250034069000000          EAST CENTRAL ISD Trustee, District 3                    OVER VOTES                                                                                   01 
03250034071000000          EAST CENTRAL ISD Trustee, District 3                    OVER VOTES                                                                                   01 
03250034072000000          EAST CENTRAL ISD Trustee, District 3                    OVER VOTES                                                                                   01 
03250034078000000          EAST CENTRAL ISD Trustee, District 3                    OVER VOTES                                                                                   01 
03250034085000000          EAST CENTRAL ISD Trustee, District 3                    OVER VOTES                                                                                   01 
03250034087000000          EAST CENTRAL ISD Trustee, District 3                    OVER VOTES                                                                                   01 
03250034101000000          EAST CENTRAL ISD Trustee, District 3                    OVER VOTES                                                                                   01 
03250034118000000          EAST CENTRAL ISD Trustee, District 3                    OVER VOTES                                                                                   01 
03250034127000000          EAST CENTRAL ISD Trustee, District 3                    OVER VOTES                                                                                   01 
03250034136000000          EAST CENTRAL ISD Trustee, District 3                    OVER VOTES                                                                                   01 
03250034137000000          EAST CENTRAL ISD Trustee, District 3                    OVER VOTES                                                                                   01 
03250034159000000          EAST CENTRAL ISD Trustee, District 3                    OVER VOTES                                                                                   01 
03250034180000000          EAST CENTRAL ISD Trustee, District 3                    OVER VOTES                                                                                   01 
03250034189000000          EAST CENTRAL ISD Trustee, District 3                    OVER VOTES                                                                                   01 
03250034190000000          EAST CENTRAL ISD Trustee, District 3                    OVER VOTES                                                                                   01 
03250044068000013          EAST CENTRAL ISD Trustee, District 3                    UNDER VOTES                                                                                  01 
03250044069000175          EAST CENTRAL ISD Trustee, District 3                    UNDER VOTES                                                                                  01 
03250044071000024          EAST CENTRAL ISD Trustee, District 3                    UNDER VOTES                                                                                  01 
03250044072000141          EAST CENTRAL ISD Trustee, District 3                    UNDER VOTES                                                                                  01 
03250044078000110          EAST CENTRAL ISD Trustee, District 3                    UNDER VOTES                                                                                  01 
03250044085000014          EAST CENTRAL ISD Trustee, District 3                    UNDER VOTES                                                                                  01 
03250044087000068          EAST CENTRAL ISD Trustee, District 3                    UNDER VOTES                                                                                  01 
03250044101000158          EAST CENTRAL ISD Trustee, District 3                    UNDER VOTES                                                                                  01 
03250044118000003          EAST CENTRAL ISD Trustee, District 3                    UNDER VOTES                                                                                  01 
03250044127000004          EAST CENTRAL ISD Trustee, District 3                    UNDER VOTES                                                                                  01 
03250044136000030          EAST CENTRAL ISD Trustee, District 3                    UNDER VOTES                                                                                  01 
03250044137000013          EAST CENTRAL ISD Trustee, District 3                    UNDER VOTES                                                                                  01 
03250044159000006          EAST CENTRAL ISD Trustee, District 3                    UNDER VOTES                                                                                  01 
03250044180000000          EAST CENTRAL ISD Trustee, District 3                    UNDER VOTES                                                                                  01 
03250044189000032          EAST CENTRAL ISD Trustee, District 3                    UNDER VOTES                                                                                  01 
03250044190000000          EAST CENTRAL ISD Trustee, District 3                    UNDER VOTES                                                                                  01 
