03300011013000050NON       EDGEWOOD ISD Position 4                                 Jesse R. Alcala                                                                              01 
03300011026000000NON       EDGEWOOD ISD Position 4                                 Jesse R. Alcala                                                                              01 
03300011027000010NON       EDGEWOOD ISD Position 4                                 Jesse R. Alcala                                                                              01 
03300011029000056NON       EDGEWOOD ISD Position 4                                 Jesse R. Alcala                                                                              01 
03300011030000003NON       EDGEWOOD ISD Position 4                                 Jesse R. Alcala                                                                              01 
03300011031000053NON       EDGEWOOD ISD Position 4                                 Jesse R. Alcala                                                                              01 
03300011032000077NON       EDGEWOOD ISD Position 4                                 Jesse R. Alcala                                                                              01 
03300011088000026NON       EDGEWOOD ISD Position 4                                 Jesse R. Alcala                                                                              01 
03300011090000000NON       EDGEWOOD ISD Position 4                                 Jesse R. Alcala                                                                              01 
03300011096000001NON       EDGEWOOD ISD Position 4                                 Jesse R. Alcala                                                                              01 
03300012011000082NON       EDGEWOOD ISD Position 4                                 Jesse R. Alcala                                                                              01 
03300012012000052NON       EDGEWOOD ISD Position 4                                 Jesse R. Alcala                                                                              01 
03300012015000077NON       EDGEWOOD ISD Position 4                                 Jesse R. Alcala                                                                              01 
03300012016000051NON       EDGEWOOD ISD Position 4                                 Jesse R. Alcala                                                                              01 
03300012017000043NON       EDGEWOOD ISD Position 4                                 Jesse R. Alcala                                                                              01 
03300012019000046NON       EDGEWOOD ISD Position 4                                 Jesse R. Alcala                                                                              01 
03300012020000079NON       EDGEWOOD ISD Position 4                                 Jesse R. Alcala                                                                              01 
03300012021000093NON       EDGEWOOD ISD Position 4                                 Jesse R. Alcala                                                                              01 
03300012022000066NON       EDGEWOOD ISD Position 4                                 Jesse R. Alcala                                                                              01 
03300012030000021NON       EDGEWOOD ISD Position 4                                 Jesse R. Alcala                                                                              01 
03300012043000067NON       EDGEWOOD ISD Position 4                                 Jesse R. Alcala                                                                              01 
03300012074000037NON       EDGEWOOD ISD Position 4                                 Jesse R. Alcala                                                                              01 
03300012075000003NON       EDGEWOOD ISD Position 4                                 Jesse R. Alcala                                                                              01 
03300012089000008NON       EDGEWOOD ISD Position 4                                 Jesse R. Alcala                                                                              01 
03300012128000020NON       EDGEWOOD ISD Position 4                                 Jesse R. Alcala                                                                              01 
03300021013000084NON       EDGEWOOD ISD Position 4                                 Johnny Perez                                                                                 01 
03300021026000000NON       EDGEWOOD ISD Position 4                                 Johnny Perez                                                                                 01 
03300021027000025NON       EDGEWOOD ISD Position 4                                 Johnny Perez                                                                                 01 
03300021029000127NON       EDGEWOOD ISD Position 4                                 Johnny Perez                                                                                 01 
03300021030000002NON       EDGEWOOD ISD Position 4                                 Johnny Perez                                                                                 01 
03300021031000106NON       EDGEWOOD ISD Position 4                                 Johnny Perez                                                                                 01 
03300021032000140NON       EDGEWOOD ISD Position 4                                 Johnny Perez                                                                                 01 
03300021088000056NON       EDGEWOOD ISD Position 4                                 Johnny Perez                                                                                 01 
03300021090000000NON       EDGEWOOD ISD Position 4                                 Johnny Perez                                                                                 01 
03300021096000001NON       EDGEWOOD ISD Position 4                                 Johnny Perez                                                                                 01 
03300022011000096NON       EDGEWOOD ISD Position 4                                 Johnny Perez                                                                                 01 
03300022012000051NON       EDGEWOOD ISD Position 4                                 Johnny Perez                                                                                 01 
03300022015000072NON       EDGEWOOD ISD Position 4                                 Johnny Perez                                                                                 01 
03300022016000052NON       EDGEWOOD ISD Position 4                                 Johnny Perez                                                                                 01 
03300022017000065NON       EDGEWOOD ISD Position 4                                 Johnny Perez                                                                                 01 
03300022019000085NON       EDGEWOOD ISD Position 4                                 Johnny Perez                                                                                 01 
03300022020000165NON       EDGEWOOD ISD Position 4                                 Johnny Perez                                                                                 01 
03300022021000141NON       EDGEWOOD ISD Position 4                                 Johnny Perez                                                                                 01 
03300022022000086NON       EDGEWOOD ISD Position 4                                 Johnny Perez                                                                                 01 
03300022030000031NON       EDGEWOOD ISD Position 4                                 Johnny Perez                                                                                 01 
03300022043000113NON       EDGEWOOD ISD Position 4                                 Johnny Perez                                                                                 01 
03300022074000056NON       EDGEWOOD ISD Position 4                                 Johnny Perez                                                                                 01 
03300022075000029NON       EDGEWOOD ISD Position 4                                 Johnny Perez                                                                                 01 
03300022089000008NON       EDGEWOOD ISD Position 4                                 Johnny Perez                                                                                 01 
03300022128000033NON       EDGEWOOD ISD Position 4                                 Johnny Perez                                                                                 01 
03300031013000032NON       EDGEWOOD ISD Position 4                                 Lorenzo R. Villarreal                                                                        01 
03300031026000000NON       EDGEWOOD ISD Position 4                                 Lorenzo R. Villarreal                                                                        01 
03300031027000015NON       EDGEWOOD ISD Position 4                                 Lorenzo R. Villarreal                                                                        01 
03300031029000062NON       EDGEWOOD ISD Position 4                                 Lorenzo R. Villarreal                                                                        01 
03300031030000005NON       EDGEWOOD ISD Position 4                                 Lorenzo R. Villarreal                                                                        01 
03300031031000084NON       EDGEWOOD ISD Position 4                                 Lorenzo R. Villarreal                                                                        01 
03300031032000085NON       EDGEWOOD ISD Position 4                                 Lorenzo R. Villarreal                                                                        01 
03300031088000048NON       EDGEWOOD ISD Position 4                                 Lorenzo R. Villarreal                                                                        01 
03300031090000000NON       EDGEWOOD ISD Position 4                                 Lorenzo R. Villarreal                                                                        01 
03300031096000000NON       EDGEWOOD ISD Position 4                                 Lorenzo R. Villarreal                                                                        01 
03300032011000104NON       EDGEWOOD ISD Position 4                                 Lorenzo R. Villarreal                                                                        01 
03300032012000054NON       EDGEWOOD ISD Position 4                                 Lorenzo R. Villarreal                                                                        01 
03300032015000104NON       EDGEWOOD ISD Position 4                                 Lorenzo R. Villarreal                                                                        01 
03300032016000051NON       EDGEWOOD ISD Position 4                                 Lorenzo R. Villarreal                                                                        01 
03300032017000040NON       EDGEWOOD ISD Position 4                                 Lorenzo R. Villarreal                                                                        01 
03300032019000044NON       EDGEWOOD ISD Position 4                                 Lorenzo R. Villarreal                                                                        01 
03300032020000103NON       EDGEWOOD ISD Position 4                                 Lorenzo R. Villarreal                                                                        01 
03300032021000151NON       EDGEWOOD ISD Position 4                                 Lorenzo R. Villarreal                                                                        01 
03300032022000085NON       EDGEWOOD ISD Position 4                                 Lorenzo R. Villarreal                                                                        01 
03300032030000022NON       EDGEWOOD ISD Position 4                                 Lorenzo R. Villarreal                                                                        01 
03300032043000051NON       EDGEWOOD ISD Position 4                                 Lorenzo R. Villarreal                                                                        01 
03300032074000053NON       EDGEWOOD ISD Position 4                                 Lorenzo R. Villarreal                                                                        01 
03300032075000012NON       EDGEWOOD ISD Position 4                                 Lorenzo R. Villarreal                                                                        01 
03300032089000012NON       EDGEWOOD ISD Position 4                                 Lorenzo R. Villarreal                                                                        01 
03300032128000035NON       EDGEWOOD ISD Position 4                                 Lorenzo R. Villarreal                                                                        01 
03300041013000000          EDGEWOOD ISD Position 4                                 OVER VOTES                                                                                   01 
03300041026000000          EDGEWOOD ISD Position 4                                 OVER VOTES                                                                                   01 
03300041027000000          EDGEWOOD ISD Position 4                                 OVER VOTES                                                                                   01 
03300041029000000          EDGEWOOD ISD Position 4                                 OVER VOTES                                                                                   01 
03300041030000000          EDGEWOOD ISD Position 4                                 OVER VOTES                                                                                   01 
03300041031000000          EDGEWOOD ISD Position 4                                 OVER VOTES                                                                                   01 
03300041032000000          EDGEWOOD ISD Position 4                                 OVER VOTES                                                                                   01 
03300041088000000          EDGEWOOD ISD Position 4                                 OVER VOTES                                                                                   01 
03300041090000000          EDGEWOOD ISD Position 4                                 OVER VOTES                                                                                   01 
03300041096000000          EDGEWOOD ISD Position 4                                 OVER VOTES                                                                                   01 
03300042011000000          EDGEWOOD ISD Position 4                                 OVER VOTES                                                                                   01 
03300042012000000          EDGEWOOD ISD Position 4                                 OVER VOTES                                                                                   01 
03300042015000000          EDGEWOOD ISD Position 4                                 OVER VOTES                                                                                   01 
03300042016000000          EDGEWOOD ISD Position 4                                 OVER VOTES                                                                                   01 
03300042017000000          EDGEWOOD ISD Position 4                                 OVER VOTES                                                                                   01 
03300042019000000          EDGEWOOD ISD Position 4                                 OVER VOTES                                                                                   01 
03300042020000000          EDGEWOOD ISD Position 4                                 OVER VOTES                                                                                   01 
03300042021000000          EDGEWOOD ISD Position 4                                 OVER VOTES                                                                                   01 
03300042022000000          EDGEWOOD ISD Position 4                                 OVER VOTES                                                                                   01 
03300042030000000          EDGEWOOD ISD Position 4                                 OVER VOTES                                                                                   01 
03300042043000000          EDGEWOOD ISD Position 4                                 OVER VOTES                                                                                   01 
03300042074000000          EDGEWOOD ISD Position 4                                 OVER VOTES                                                                                   01 
03300042075000000          EDGEWOOD ISD Position 4                                 OVER VOTES                                                                                   01 
03300042089000000          EDGEWOOD ISD Position 4                                 OVER VOTES                                                                                   01 
03300042128000000          EDGEWOOD ISD Position 4                                 OVER VOTES                                                                                   01 
03300051013000087          EDGEWOOD ISD Position 4                                 UNDER VOTES                                                                                  01 
03300051026000000          EDGEWOOD ISD Position 4                                 UNDER VOTES                                                                                  01 
03300051027000020          EDGEWOOD ISD Position 4                                 UNDER VOTES                                                                                  01 
03300051029000141          EDGEWOOD ISD Position 4                                 UNDER VOTES                                                                                  01 
03300051030000013          EDGEWOOD ISD Position 4                                 UNDER VOTES                                                                                  01 
03300051031000125          EDGEWOOD ISD Position 4                                 UNDER VOTES                                                                                  01 
03300051032000171          EDGEWOOD ISD Position 4                                 UNDER VOTES                                                                                  01 
03300051088000091          EDGEWOOD ISD Position 4                                 UNDER VOTES                                                                                  01 
03300051090000001          EDGEWOOD ISD Position 4                                 UNDER VOTES                                                                                  01 
03300051096000001          EDGEWOOD ISD Position 4                                 UNDER VOTES                                                                                  01 
03300052011000195          EDGEWOOD ISD Position 4                                 UNDER VOTES                                                                                  01 
03300052012000138          EDGEWOOD ISD Position 4                                 UNDER VOTES                                                                                  01 
03300052015000115          EDGEWOOD ISD Position 4                                 UNDER VOTES                                                                                  01 
03300052016000104          EDGEWOOD ISD Position 4                                 UNDER VOTES                                                                                  01 
03300052017000093          EDGEWOOD ISD Position 4                                 UNDER VOTES                                                                                  01 
03300052019000130          EDGEWOOD ISD Position 4                                 UNDER VOTES                                                                                  01 
03300052020000206          EDGEWOOD ISD Position 4                                 UNDER VOTES                                                                                  01 
03300052021000204          EDGEWOOD ISD Position 4                                 UNDER VOTES                                                                                  01 
03300052022000117          EDGEWOOD ISD Position 4                                 UNDER VOTES                                                                                  01 
03300052030000052          EDGEWOOD ISD Position 4                                 UNDER VOTES                                                                                  01 
03300052043000123          EDGEWOOD ISD Position 4                                 UNDER VOTES                                                                                  01 
03300052074000076          EDGEWOOD ISD Position 4                                 UNDER VOTES                                                                                  01 
03300052075000022          EDGEWOOD ISD Position 4                                 UNDER VOTES                                                                                  01 
03300052089000026          EDGEWOOD ISD Position 4                                 UNDER VOTES                                                                                  01 
03300052128000049          EDGEWOOD ISD Position 4                                 UNDER VOTES                                                                                  01 
03350011013000125NON       EDGEWOOD ISD Position 5                                 Tina Morales                                                                                 01 
03350011026000000NON       EDGEWOOD ISD Position 5                                 Tina Morales                                                                                 01 
03350011027000040NON       EDGEWOOD ISD Position 5                                 Tina Morales                                                                                 01 
03350011029000208NON       EDGEWOOD ISD Position 5                                 Tina Morales                                                                                 01 
03350011030000008NON       EDGEWOOD ISD Position 5                                 Tina Morales                                                                                 01 
03350011031000198NON       EDGEWOOD ISD Position 5                                 Tina Morales                                                                                 01 
03350011032000244NON       EDGEWOOD ISD Position 5                                 Tina Morales                                                                                 01 
03350011088000097NON       EDGEWOOD ISD Position 5                                 Tina Morales                                                                                 01 
03350011090000000NON       EDGEWOOD ISD Position 5                                 Tina Morales                                                                                 01 
03350011096000001NON       EDGEWOOD ISD Position 5                                 Tina Morales                                                                                 01 
03350012011000204NON       EDGEWOOD ISD Position 5                                 Tina Morales                                                                                 01 
03350012012000132NON       EDGEWOOD ISD Position 5                                 Tina Morales                                                                                 01 
03350012015000180NON       EDGEWOOD ISD Position 5                                 Tina Morales                                                                                 01 
03350012016000119NON       EDGEWOOD ISD Position 5                                 Tina Morales                                                                                 01 
03350012017000116NON       EDGEWOOD ISD Position 5                                 Tina Morales                                                                                 01 
03350012019000129NON       EDGEWOOD ISD Position 5                                 Tina Morales                                                                                 01 
03350012020000283NON       EDGEWOOD ISD Position 5                                 Tina Morales                                                                                 01 
03350012021000276NON       EDGEWOOD ISD Position 5                                 Tina Morales                                                                                 01 
03350012022000192NON       EDGEWOOD ISD Position 5                                 Tina Morales                                                                                 01 
03350012030000062NON       EDGEWOOD ISD Position 5                                 Tina Morales                                                                                 01 
03350012043000177NON       EDGEWOOD ISD Position 5                                 Tina Morales                                                                                 01 
03350012074000103NON       EDGEWOOD ISD Position 5                                 Tina Morales                                                                                 01 
03350012075000040NON       EDGEWOOD ISD Position 5                                 Tina Morales                                                                                 01 
03350012089000024NON       EDGEWOOD ISD Position 5                                 Tina Morales                                                                                 01 
03350012128000064NON       EDGEWOOD ISD Position 5                                 Tina Morales                                                                                 01 
03350021013000038NON       EDGEWOOD ISD Position 5                                 Moses G. Verbena                                                                             01 
03350021026000000NON       EDGEWOOD ISD Position 5                                 Moses G. Verbena                                                                             01 
03350021027000009NON       EDGEWOOD ISD Position 5                                 Moses G. Verbena                                                                             01 
03350021029000044NON       EDGEWOOD ISD Position 5                                 Moses G. Verbena                                                                             01 
03350021030000002NON       EDGEWOOD ISD Position 5                                 Moses G. Verbena                                                                             01 
03350021031000058NON       EDGEWOOD ISD Position 5                                 Moses G. Verbena                                                                             01 
03350021032000053NON       EDGEWOOD ISD Position 5                                 Moses G. Verbena                                                                             01 
03350021088000031NON       EDGEWOOD ISD Position 5                                 Moses G. Verbena                                                                             01 
03350021090000000NON       EDGEWOOD ISD Position 5                                 Moses G. Verbena                                                                             01 
03350021096000001NON       EDGEWOOD ISD Position 5                                 Moses G. Verbena                                                                             01 
03350022011000079NON       EDGEWOOD ISD Position 5                                 Moses G. Verbena                                                                             01 
03350022012000031NON       EDGEWOOD ISD Position 5                                 Moses G. Verbena                                                                             01 
03350022015000056NON       EDGEWOOD ISD Position 5                                 Moses G. Verbena                                                                             01 
03350022016000029NON       EDGEWOOD ISD Position 5                                 Moses G. Verbena                                                                             01 
03350022017000024NON       EDGEWOOD ISD Position 5                                 Moses G. Verbena                                                                             01 
03350022019000038NON       EDGEWOOD ISD Position 5                                 Moses G. Verbena                                                                             01 
03350022020000055NON       EDGEWOOD ISD Position 5                                 Moses G. Verbena                                                                             01 
03350022021000083NON       EDGEWOOD ISD Position 5                                 Moses G. Verbena                                                                             01 
03350022022000043NON       EDGEWOOD ISD Position 5                                 Moses G. Verbena                                                                             01 
03350022030000016NON       EDGEWOOD ISD Position 5                                 Moses G. Verbena                                                                             01 
03350022043000040NON       EDGEWOOD ISD Position 5                                 Moses G. Verbena                                                                             01 
03350022074000038NON       EDGEWOOD ISD Position 5                                 Moses G. Verbena                                                                             01 
03350022075000005NON       EDGEWOOD ISD Position 5                                 Moses G. Verbena                                                                             01 
03350022089000008NON       EDGEWOOD ISD Position 5                                 Moses G. Verbena                                                                             01 
03350022128000019NON       EDGEWOOD ISD Position 5                                 Moses G. Verbena                                                                             01 
03350031013000000          EDGEWOOD ISD Position 5                                 OVER VOTES                                                                                   01 
03350031026000000          EDGEWOOD ISD Position 5                                 OVER VOTES                                                                                   01 
03350031027000000          EDGEWOOD ISD Position 5                                 OVER VOTES                                                                                   01 
03350031029000000          EDGEWOOD ISD Position 5                                 OVER VOTES                                                                                   01 
03350031030000000          EDGEWOOD ISD Position 5                                 OVER VOTES                                                                                   01 
03350031031000000          EDGEWOOD ISD Position 5                                 OVER VOTES                                                                                   01 
03350031032000000          EDGEWOOD ISD Position 5                                 OVER VOTES                                                                                   01 
03350031088000000          EDGEWOOD ISD Position 5                                 OVER VOTES                                                                                   01 
03350031090000000          EDGEWOOD ISD Position 5                                 OVER VOTES                                                                                   01 
03350031096000000          EDGEWOOD ISD Position 5                                 OVER VOTES                                                                                   01 
03350032011000000          EDGEWOOD ISD Position 5                                 OVER VOTES                                                                                   01 
03350032012000000          EDGEWOOD ISD Position 5                                 OVER VOTES                                                                                   01 
03350032015000000          EDGEWOOD ISD Position 5                                 OVER VOTES                                                                                   01 
03350032016000000          EDGEWOOD ISD Position 5                                 OVER VOTES                                                                                   01 
03350032017000000          EDGEWOOD ISD Position 5                                 OVER VOTES                                                                                   01 
03350032019000000          EDGEWOOD ISD Position 5                                 OVER VOTES                                                                                   01 
03350032020000000          EDGEWOOD ISD Position 5                                 OVER VOTES                                                                                   01 
03350032021000000          EDGEWOOD ISD Position 5                                 OVER VOTES                                                                                   01 
03350032022000000          EDGEWOOD ISD Position 5                                 OVER VOTES                                                                                   01 
03350032030000000          EDGEWOOD ISD Position 5                                 OVER VOTES                                                                                   01 
03350032043000000          EDGEWOOD ISD Position 5                                 OVER VOTES                                                                                   01 
03350032074000000          EDGEWOOD ISD Position 5                                 OVER VOTES                                                                                   01 
03350032075000000          EDGEWOOD ISD Position 5                                 OVER VOTES                                                                                   01 
03350032089000000          EDGEWOOD ISD Position 5                                 OVER VOTES                                                                                   01 
03350032128000000          EDGEWOOD ISD Position 5                                 OVER VOTES                                                                                   01 
03350041013000090          EDGEWOOD ISD Position 5                                 UNDER VOTES                                                                                  01 
03350041026000000          EDGEWOOD ISD Position 5                                 UNDER VOTES                                                                                  01 
03350041027000021          EDGEWOOD ISD Position 5                                 UNDER VOTES                                                                                  01 
03350041029000134          EDGEWOOD ISD Position 5                                 UNDER VOTES                                                                                  01 
03350041030000013          EDGEWOOD ISD Position 5                                 UNDER VOTES                                                                                  01 
03350041031000112          EDGEWOOD ISD Position 5                                 UNDER VOTES                                                                                  01 
03350041032000176          EDGEWOOD ISD Position 5                                 UNDER VOTES                                                                                  01 
03350041088000093          EDGEWOOD ISD Position 5                                 UNDER VOTES                                                                                  01 
03350041090000001          EDGEWOOD ISD Position 5                                 UNDER VOTES                                                                                  01 
03350041096000001          EDGEWOOD ISD Position 5                                 UNDER VOTES                                                                                  01 
03350042011000194          EDGEWOOD ISD Position 5                                 UNDER VOTES                                                                                  01 
03350042012000132          EDGEWOOD ISD Position 5                                 UNDER VOTES                                                                                  01 
03350042015000132          EDGEWOOD ISD Position 5                                 UNDER VOTES                                                                                  01 
03350042016000110          EDGEWOOD ISD Position 5                                 UNDER VOTES                                                                                  01 
03350042017000101          EDGEWOOD ISD Position 5                                 UNDER VOTES                                                                                  01 
03350042019000138          EDGEWOOD ISD Position 5                                 UNDER VOTES                                                                                  01 
03350042020000215          EDGEWOOD ISD Position 5                                 UNDER VOTES                                                                                  01 
03350042021000230          EDGEWOOD ISD Position 5                                 UNDER VOTES                                                                                  01 
03350042022000119          EDGEWOOD ISD Position 5                                 UNDER VOTES                                                                                  01 
03350042030000048          EDGEWOOD ISD Position 5                                 UNDER VOTES                                                                                  01 
03350042043000137          EDGEWOOD ISD Position 5                                 UNDER VOTES                                                                                  01 
03350042074000081          EDGEWOOD ISD Position 5                                 UNDER VOTES                                                                                  01 
03350042075000021          EDGEWOOD ISD Position 5                                 UNDER VOTES                                                                                  01 
03350042089000022          EDGEWOOD ISD Position 5                                 UNDER VOTES                                                                                  01 
03350042128000054          EDGEWOOD ISD Position 5                                 UNDER VOTES                                                                                  01 
03400011013000040NON       EDGEWOOD ISD Position 6                                 Bernice Felan Garcia                                                                         01 
03400011026000000NON       EDGEWOOD ISD Position 6                                 Bernice Felan Garcia                                                                         01 
03400011027000016NON       EDGEWOOD ISD Position 6                                 Bernice Felan Garcia                                                                         01 
03400011029000061NON       EDGEWOOD ISD Position 6                                 Bernice Felan Garcia                                                                         01 
03400011030000003NON       EDGEWOOD ISD Position 6                                 Bernice Felan Garcia                                                                         01 
03400011031000063NON       EDGEWOOD ISD Position 6                                 Bernice Felan Garcia                                                                         01 
03400011032000071NON       EDGEWOOD ISD Position 6                                 Bernice Felan Garcia                                                                         01 
03400011088000031NON       EDGEWOOD ISD Position 6                                 Bernice Felan Garcia                                                                         01 
03400011090000000NON       EDGEWOOD ISD Position 6                                 Bernice Felan Garcia                                                                         01 
03400011096000001NON       EDGEWOOD ISD Position 6                                 Bernice Felan Garcia                                                                         01 
03400012011000090NON       EDGEWOOD ISD Position 6                                 Bernice Felan Garcia                                                                         01 
03400012012000049NON       EDGEWOOD ISD Position 6                                 Bernice Felan Garcia                                                                         01 
03400012015000060NON       EDGEWOOD ISD Position 6                                 Bernice Felan Garcia                                                                         01 
03400012016000028NON       EDGEWOOD ISD Position 6                                 Bernice Felan Garcia                                                                         01 
03400012017000033NON       EDGEWOOD ISD Position 6                                 Bernice Felan Garcia                                                                         01 
03400012019000028NON       EDGEWOOD ISD Position 6                                 Bernice Felan Garcia                                                                         01 
03400012020000071NON       EDGEWOOD ISD Position 6                                 Bernice Felan Garcia                                                                         01 
03400012021000095NON       EDGEWOOD ISD Position 6                                 Bernice Felan Garcia                                                                         01 
03400012022000060NON       EDGEWOOD ISD Position 6                                 Bernice Felan Garcia                                                                         01 
03400012030000016NON       EDGEWOOD ISD Position 6                                 Bernice Felan Garcia                                                                         01 
03400012043000045NON       EDGEWOOD ISD Position 6                                 Bernice Felan Garcia                                                                         01 
03400012074000035NON       EDGEWOOD ISD Position 6                                 Bernice Felan Garcia                                                                         01 
03400012075000006NON       EDGEWOOD ISD Position 6                                 Bernice Felan Garcia                                                                         01 
03400012089000013NON       EDGEWOOD ISD Position 6                                 Bernice Felan Garcia                                                                         01 
03400012128000023NON       EDGEWOOD ISD Position 6                                 Bernice Felan Garcia                                                                         01 
03400021013000082NON       EDGEWOOD ISD Position 6                                 Velma Pena                                                                                   01 
03400021026000000NON       EDGEWOOD ISD Position 6                                 Velma Pena                                                                                   01 
03400021027000018NON       EDGEWOOD ISD Position 6                                 Velma Pena                                                                                   01 
03400021029000119NON       EDGEWOOD ISD Position 6                                 Velma Pena                                                                                   01 
03400021030000006NON       EDGEWOOD ISD Position 6                                 Velma Pena                                                                                   01 
03400021031000106NON       EDGEWOOD ISD Position 6                                 Velma Pena                                                                                   01 
03400021032000154NON       EDGEWOOD ISD Position 6                                 Velma Pena                                                                                   01 
03400021088000056NON       EDGEWOOD ISD Position 6                                 Velma Pena                                                                                   01 
03400021090000000NON       EDGEWOOD ISD Position 6                                 Velma Pena                                                                                   01 
03400021096000001NON       EDGEWOOD ISD Position 6                                 Velma Pena                                                                                   01 
03400022011000120NON       EDGEWOOD ISD Position 6                                 Velma Pena                                                                                   01 
03400022012000063NON       EDGEWOOD ISD Position 6                                 Velma Pena                                                                                   01 
03400022015000098NON       EDGEWOOD ISD Position 6                                 Velma Pena                                                                                   01 
03400022016000067NON       EDGEWOOD ISD Position 6                                 Velma Pena                                                                                   01 
03400022017000063NON       EDGEWOOD ISD Position 6                                 Velma Pena                                                                                   01 
03400022019000071NON       EDGEWOOD ISD Position 6                                 Velma Pena                                                                                   01 
03400022020000157NON       EDGEWOOD ISD Position 6                                 Velma Pena                                                                                   01 
03400022021000174NON       EDGEWOOD ISD Position 6                                 Velma Pena                                                                                   01 
03400022022000101NON       EDGEWOOD ISD Position 6                                 Velma Pena                                                                                   01 
03400022030000035NON       EDGEWOOD ISD Position 6                                 Velma Pena                                                                                   01 
03400022043000093NON       EDGEWOOD ISD Position 6                                 Velma Pena                                                                                   01 
03400022074000057NON       EDGEWOOD ISD Position 6                                 Velma Pena                                                                                   01 
03400022075000024NON       EDGEWOOD ISD Position 6                                 Velma Pena                                                                                   01 
03400022089000012NON       EDGEWOOD ISD Position 6                                 Velma Pena                                                                                   01 
03400022128000035NON       EDGEWOOD ISD Position 6                                 Velma Pena                                                                                   01 
03400031013000037NON       EDGEWOOD ISD Position 6                                 Marcelo R. Montemayor                                                                        01 
03400031026000000NON       EDGEWOOD ISD Position 6                                 Marcelo R. Montemayor                                                                        01 
03400031027000014NON       EDGEWOOD ISD Position 6                                 Marcelo R. Montemayor                                                                        01 
03400031029000062NON       EDGEWOOD ISD Position 6                                 Marcelo R. Montemayor                                                                        01 
03400031030000001NON       EDGEWOOD ISD Position 6                                 Marcelo R. Montemayor                                                                        01 
03400031031000075NON       EDGEWOOD ISD Position 6                                 Marcelo R. Montemayor                                                                        01 
03400031032000068NON       EDGEWOOD ISD Position 6                                 Marcelo R. Montemayor                                                                        01 
03400031088000044NON       EDGEWOOD ISD Position 6                                 Marcelo R. Montemayor                                                                        01 
03400031090000000NON       EDGEWOOD ISD Position 6                                 Marcelo R. Montemayor                                                                        01 
03400031096000000NON       EDGEWOOD ISD Position 6                                 Marcelo R. Montemayor                                                                        01 
03400032011000076NON       EDGEWOOD ISD Position 6                                 Marcelo R. Montemayor                                                                        01 
03400032012000049NON       EDGEWOOD ISD Position 6                                 Marcelo R. Montemayor                                                                        01 
03400032015000080NON       EDGEWOOD ISD Position 6                                 Marcelo R. Montemayor                                                                        01 
03400032016000052NON       EDGEWOOD ISD Position 6                                 Marcelo R. Montemayor                                                                        01 
03400032017000048NON       EDGEWOOD ISD Position 6                                 Marcelo R. Montemayor                                                                        01 
03400032019000076NON       EDGEWOOD ISD Position 6                                 Marcelo R. Montemayor                                                                        01 
03400032020000106NON       EDGEWOOD ISD Position 6                                 Marcelo R. Montemayor                                                                        01 
03400032021000109NON       EDGEWOOD ISD Position 6                                 Marcelo R. Montemayor                                                                        01 
03400032022000069NON       EDGEWOOD ISD Position 6                                 Marcelo R. Montemayor                                                                        01 
03400032030000026NON       EDGEWOOD ISD Position 6                                 Marcelo R. Montemayor                                                                        01 
03400032043000089NON       EDGEWOOD ISD Position 6                                 Marcelo R. Montemayor                                                                        01 
03400032074000051NON       EDGEWOOD ISD Position 6                                 Marcelo R. Montemayor                                                                        01 
03400032075000017NON       EDGEWOOD ISD Position 6                                 Marcelo R. Montemayor                                                                        01 
03400032089000007NON       EDGEWOOD ISD Position 6                                 Marcelo R. Montemayor                                                                        01 
03400032128000025NON       EDGEWOOD ISD Position 6                                 Marcelo R. Montemayor                                                                        01 
03400041013000000          EDGEWOOD ISD Position 6                                 OVER VOTES                                                                                   01 
03400041026000000          EDGEWOOD ISD Position 6                                 OVER VOTES                                                                                   01 
03400041027000000          EDGEWOOD ISD Position 6                                 OVER VOTES                                                                                   01 
03400041029000000          EDGEWOOD ISD Position 6                                 OVER VOTES                                                                                   01 
03400041030000000          EDGEWOOD ISD Position 6                                 OVER VOTES                                                                                   01 
03400041031000000          EDGEWOOD ISD Position 6                                 OVER VOTES                                                                                   01 
03400041032000000          EDGEWOOD ISD Position 6                                 OVER VOTES                                                                                   01 
03400041088000000          EDGEWOOD ISD Position 6                                 OVER VOTES                                                                                   01 
03400041090000000          EDGEWOOD ISD Position 6                                 OVER VOTES                                                                                   01 
03400041096000000          EDGEWOOD ISD Position 6                                 OVER VOTES                                                                                   01 
03400042011000000          EDGEWOOD ISD Position 6                                 OVER VOTES                                                                                   01 
03400042012000000          EDGEWOOD ISD Position 6                                 OVER VOTES                                                                                   01 
03400042015000000          EDGEWOOD ISD Position 6                                 OVER VOTES                                                                                   01 
03400042016000000          EDGEWOOD ISD Position 6                                 OVER VOTES                                                                                   01 
03400042017000000          EDGEWOOD ISD Position 6                                 OVER VOTES                                                                                   01 
03400042019000000          EDGEWOOD ISD Position 6                                 OVER VOTES                                                                                   01 
03400042020000000          EDGEWOOD ISD Position 6                                 OVER VOTES                                                                                   01 
03400042021000000          EDGEWOOD ISD Position 6                                 OVER VOTES                                                                                   01 
03400042022000000          EDGEWOOD ISD Position 6                                 OVER VOTES                                                                                   01 
03400042030000000          EDGEWOOD ISD Position 6                                 OVER VOTES                                                                                   01 
03400042043000000          EDGEWOOD ISD Position 6                                 OVER VOTES                                                                                   01 
03400042074000000          EDGEWOOD ISD Position 6                                 OVER VOTES                                                                                   01 
03400042075000000          EDGEWOOD ISD Position 6                                 OVER VOTES                                                                                   01 
03400042089000000          EDGEWOOD ISD Position 6                                 OVER VOTES                                                                                   01 
03400042128000000          EDGEWOOD ISD Position 6                                 OVER VOTES                                                                                   01 
03400051013000094          EDGEWOOD ISD Position 6                                 UNDER VOTES                                                                                  01 
03400051026000000          EDGEWOOD ISD Position 6                                 UNDER VOTES                                                                                  01 
03400051027000022          EDGEWOOD ISD Position 6                                 UNDER VOTES                                                                                  01 
03400051029000144          EDGEWOOD ISD Position 6                                 UNDER VOTES                                                                                  01 
03400051030000013          EDGEWOOD ISD Position 6                                 UNDER VOTES                                                                                  01 
03400051031000124          EDGEWOOD ISD Position 6                                 UNDER VOTES                                                                                  01 
03400051032000180          EDGEWOOD ISD Position 6                                 UNDER VOTES                                                                                  01 
03400051088000090          EDGEWOOD ISD Position 6                                 UNDER VOTES                                                                                  01 
03400051090000001          EDGEWOOD ISD Position 6                                 UNDER VOTES                                                                                  01 
03400051096000001          EDGEWOOD ISD Position 6                                 UNDER VOTES                                                                                  01 
03400052011000191          EDGEWOOD ISD Position 6                                 UNDER VOTES                                                                                  01 
03400052012000134          EDGEWOOD ISD Position 6                                 UNDER VOTES                                                                                  01 
03400052015000130          EDGEWOOD ISD Position 6                                 UNDER VOTES                                                                                  01 
03400052016000111          EDGEWOOD ISD Position 6                                 UNDER VOTES                                                                                  01 
03400052017000097          EDGEWOOD ISD Position 6                                 UNDER VOTES                                                                                  01 
03400052019000130          EDGEWOOD ISD Position 6                                 UNDER VOTES                                                                                  01 
03400052020000219          EDGEWOOD ISD Position 6                                 UNDER VOTES                                                                                  01 
03400052021000211          EDGEWOOD ISD Position 6                                 UNDER VOTES                                                                                  01 
03400052022000124          EDGEWOOD ISD Position 6                                 UNDER VOTES                                                                                  01 
03400052030000049          EDGEWOOD ISD Position 6                                 UNDER VOTES                                                                                  01 
03400052043000127          EDGEWOOD ISD Position 6                                 UNDER VOTES                                                                                  01 
03400052074000079          EDGEWOOD ISD Position 6                                 UNDER VOTES                                                                                  01 
03400052075000019          EDGEWOOD ISD Position 6                                 UNDER VOTES                                                                                  01 
03400052089000022          EDGEWOOD ISD Position 6                                 UNDER VOTES                                                                                  01 
03400052128000054          EDGEWOOD ISD Position 6                                 UNDER VOTES                                                                                  01 
03450011013000018NON       EDGEWOOD ISD Position 7                                 Timothy Wayne Payne                                                                          01 
03450011026000000NON       EDGEWOOD ISD Position 7                                 Timothy Wayne Payne                                                                          01 
03450011027000005NON       EDGEWOOD ISD Position 7                                 Timothy Wayne Payne                                                                          01 
03450011029000024NON       EDGEWOOD ISD Position 7                                 Timothy Wayne Payne                                                                          01 
03450011030000006NON       EDGEWOOD ISD Position 7                                 Timothy Wayne Payne                                                                          01 
03450011031000027NON       EDGEWOOD ISD Position 7                                 Timothy Wayne Payne                                                                          01 
03450011032000022NON       EDGEWOOD ISD Position 7                                 Timothy Wayne Payne                                                                          01 
03450011088000009NON       EDGEWOOD ISD Position 7                                 Timothy Wayne Payne                                                                          01 
03450011090000000NON       EDGEWOOD ISD Position 7                                 Timothy Wayne Payne                                                                          01 
03450011096000001NON       EDGEWOOD ISD Position 7                                 Timothy Wayne Payne                                                                          01 
03450012011000020NON       EDGEWOOD ISD Position 7                                 Timothy Wayne Payne                                                                          01 
03450012012000013NON       EDGEWOOD ISD Position 7                                 Timothy Wayne Payne                                                                          01 
03450012015000033NON       EDGEWOOD ISD Position 7                                 Timothy Wayne Payne                                                                          01 
03450012016000016NON       EDGEWOOD ISD Position 7                                 Timothy Wayne Payne                                                                          01 
03450012017000018NON       EDGEWOOD ISD Position 7                                 Timothy Wayne Payne                                                                          01 
03450012019000025NON       EDGEWOOD ISD Position 7                                 Timothy Wayne Payne                                                                          01 
03450012020000095NON       EDGEWOOD ISD Position 7                                 Timothy Wayne Payne                                                                          01 
03450012021000040NON       EDGEWOOD ISD Position 7                                 Timothy Wayne Payne                                                                          01 
03450012022000025NON       EDGEWOOD ISD Position 7                                 Timothy Wayne Payne                                                                          01 
03450012030000006NON       EDGEWOOD ISD Position 7                                 Timothy Wayne Payne                                                                          01 
03450012043000032NON       EDGEWOOD ISD Position 7                                 Timothy Wayne Payne                                                                          01 
03450012074000016NON       EDGEWOOD ISD Position 7                                 Timothy Wayne Payne                                                                          01 
03450012075000003NON       EDGEWOOD ISD Position 7                                 Timothy Wayne Payne                                                                          01 
03450012089000003NON       EDGEWOOD ISD Position 7                                 Timothy Wayne Payne                                                                          01 
03450012128000008NON       EDGEWOOD ISD Position 7                                 Timothy Wayne Payne                                                                          01 
03450021013000099NON       EDGEWOOD ISD Position 7                                 Sonia Elizondo                                                                               01 
03450021026000000NON       EDGEWOOD ISD Position 7                                 Sonia Elizondo                                                                               01 
03450021027000033NON       EDGEWOOD ISD Position 7                                 Sonia Elizondo                                                                               01 
03450021029000164NON       EDGEWOOD ISD Position 7                                 Sonia Elizondo                                                                               01 
03450021030000004NON       EDGEWOOD ISD Position 7                                 Sonia Elizondo                                                                               01 
03450021031000164NON       EDGEWOOD ISD Position 7                                 Sonia Elizondo                                                                               01 
03450021032000207NON       EDGEWOOD ISD Position 7                                 Sonia Elizondo                                                                               01 
03450021088000080NON       EDGEWOOD ISD Position 7                                 Sonia Elizondo                                                                               01 
03450021090000000NON       EDGEWOOD ISD Position 7                                 Sonia Elizondo                                                                               01 
03450021096000001NON       EDGEWOOD ISD Position 7                                 Sonia Elizondo                                                                               01 
03450022011000191NON       EDGEWOOD ISD Position 7                                 Sonia Elizondo                                                                               01 
03450022012000113NON       EDGEWOOD ISD Position 7                                 Sonia Elizondo                                                                               01 
03450022015000144NON       EDGEWOOD ISD Position 7                                 Sonia Elizondo                                                                               01 
03450022016000087NON       EDGEWOOD ISD Position 7                                 Sonia Elizondo                                                                               01 
03450022017000094NON       EDGEWOOD ISD Position 7                                 Sonia Elizondo                                                                               01 
03450022019000103NON       EDGEWOOD ISD Position 7                                 Sonia Elizondo                                                                               01 
03450022020000185NON       EDGEWOOD ISD Position 7                                 Sonia Elizondo                                                                               01 
03450022021000234NON       EDGEWOOD ISD Position 7                                 Sonia Elizondo                                                                               01 
03450022022000139NON       EDGEWOOD ISD Position 7                                 Sonia Elizondo                                                                               01 
03450022030000058NON       EDGEWOOD ISD Position 7                                 Sonia Elizondo                                                                               01 
03450022043000152NON       EDGEWOOD ISD Position 7                                 Sonia Elizondo                                                                               01 
03450022074000089NON       EDGEWOOD ISD Position 7                                 Sonia Elizondo                                                                               01 
03450022075000034NON       EDGEWOOD ISD Position 7                                 Sonia Elizondo                                                                               01 
03450022089000024NON       EDGEWOOD ISD Position 7                                 Sonia Elizondo                                                                               01 
03450022128000050NON       EDGEWOOD ISD Position 7                                 Sonia Elizondo                                                                               01 
03450031013000036NON       EDGEWOOD ISD Position 7                                 Manuel Luna                                                                                  01 
03450031026000000NON       EDGEWOOD ISD Position 7                                 Manuel Luna                                                                                  01 
03450031027000012NON       EDGEWOOD ISD Position 7                                 Manuel Luna                                                                                  01 
03450031029000052NON       EDGEWOOD ISD Position 7                                 Manuel Luna                                                                                  01 
03450031030000001NON       EDGEWOOD ISD Position 7                                 Manuel Luna                                                                                  01 
03450031031000058NON       EDGEWOOD ISD Position 7                                 Manuel Luna                                                                                  01 
03450031032000065NON       EDGEWOOD ISD Position 7                                 Manuel Luna                                                                                  01 
03450031088000037NON       EDGEWOOD ISD Position 7                                 Manuel Luna                                                                                  01 
03450031090000000NON       EDGEWOOD ISD Position 7                                 Manuel Luna                                                                                  01 
03450031096000000NON       EDGEWOOD ISD Position 7                                 Manuel Luna                                                                                  01 
03450032011000071NON       EDGEWOOD ISD Position 7                                 Manuel Luna                                                                                  01 
03450032012000048NON       EDGEWOOD ISD Position 7                                 Manuel Luna                                                                                  01 
03450032015000072NON       EDGEWOOD ISD Position 7                                 Manuel Luna                                                                                  01 
03450032016000047NON       EDGEWOOD ISD Position 7                                 Manuel Luna                                                                                  01 
03450032017000033NON       EDGEWOOD ISD Position 7                                 Manuel Luna                                                                                  01 
03450032019000040NON       EDGEWOOD ISD Position 7                                 Manuel Luna                                                                                  01 
03450032020000063NON       EDGEWOOD ISD Position 7                                 Manuel Luna                                                                                  01 
03450032021000102NON       EDGEWOOD ISD Position 7                                 Manuel Luna                                                                                  01 
03450032022000066NON       EDGEWOOD ISD Position 7                                 Manuel Luna                                                                                  01 
03450032030000015NON       EDGEWOOD ISD Position 7                                 Manuel Luna                                                                                  01 
03450032043000042NON       EDGEWOOD ISD Position 7                                 Manuel Luna                                                                                  01 
03450032074000042NON       EDGEWOOD ISD Position 7                                 Manuel Luna                                                                                  01 
03450032075000009NON       EDGEWOOD ISD Position 7                                 Manuel Luna                                                                                  01 
03450032089000005NON       EDGEWOOD ISD Position 7                                 Manuel Luna                                                                                  01 
03450032128000027NON       EDGEWOOD ISD Position 7                                 Manuel Luna                                                                                  01 
03450041013000000          EDGEWOOD ISD Position 7                                 OVER VOTES                                                                                   01 
03450041026000000          EDGEWOOD ISD Position 7                                 OVER VOTES                                                                                   01 
03450041027000000          EDGEWOOD ISD Position 7                                 OVER VOTES                                                                                   01 
03450041029000000          EDGEWOOD ISD Position 7                                 OVER VOTES                                                                                   01 
03450041030000000          EDGEWOOD ISD Position 7                                 OVER VOTES                                                                                   01 
03450041031000000          EDGEWOOD ISD Position 7                                 OVER VOTES                                                                                   01 
03450041032000000          EDGEWOOD ISD Position 7                                 OVER VOTES                                                                                   01 
03450041088000000          EDGEWOOD ISD Position 7                                 OVER VOTES                                                                                   01 
03450041090000000          EDGEWOOD ISD Position 7                                 OVER VOTES                                                                                   01 
03450041096000000          EDGEWOOD ISD Position 7                                 OVER VOTES                                                                                   01 
03450042011000000          EDGEWOOD ISD Position 7                                 OVER VOTES                                                                                   01 
03450042012000000          EDGEWOOD ISD Position 7                                 OVER VOTES                                                                                   01 
03450042015000000          EDGEWOOD ISD Position 7                                 OVER VOTES                                                                                   01 
03450042016000000          EDGEWOOD ISD Position 7                                 OVER VOTES                                                                                   01 
03450042017000000          EDGEWOOD ISD Position 7                                 OVER VOTES                                                                                   01 
03450042019000000          EDGEWOOD ISD Position 7                                 OVER VOTES                                                                                   01 
03450042020000000          EDGEWOOD ISD Position 7                                 OVER VOTES                                                                                   01 
03450042021000000          EDGEWOOD ISD Position 7                                 OVER VOTES                                                                                   01 
03450042022000000          EDGEWOOD ISD Position 7                                 OVER VOTES                                                                                   01 
03450042030000000          EDGEWOOD ISD Position 7                                 OVER VOTES                                                                                   01 
03450042043000000          EDGEWOOD ISD Position 7                                 OVER VOTES                                                                                   01 
03450042074000000          EDGEWOOD ISD Position 7                                 OVER VOTES                                                                                   01 
03450042075000000          EDGEWOOD ISD Position 7                                 OVER VOTES                                                                                   01 
03450042089000000          EDGEWOOD ISD Position 7                                 OVER VOTES                                                                                   01 
03450042128000000          EDGEWOOD ISD Position 7                                 OVER VOTES                                                                                   01 
03450051013000100          EDGEWOOD ISD Position 7                                 UNDER VOTES                                                                                  01 
03450051026000000          EDGEWOOD ISD Position 7                                 UNDER VOTES                                                                                  01 
03450051027000020          EDGEWOOD ISD Position 7                                 UNDER VOTES                                                                                  01 
03450051029000146          EDGEWOOD ISD Position 7                                 UNDER VOTES                                                                                  01 
03450051030000012          EDGEWOOD ISD Position 7                                 UNDER VOTES                                                                                  01 
03450051031000119          EDGEWOOD ISD Position 7                                 UNDER VOTES                                                                                  01 
03450051032000179          EDGEWOOD ISD Position 7                                 UNDER VOTES                                                                                  01 
03450051088000095          EDGEWOOD ISD Position 7                                 UNDER VOTES                                                                                  01 
03450051090000001          EDGEWOOD ISD Position 7                                 UNDER VOTES                                                                                  01 
03450051096000001          EDGEWOOD ISD Position 7                                 UNDER VOTES                                                                                  01 
03450052011000195          EDGEWOOD ISD Position 7                                 UNDER VOTES                                                                                  01 
03450052012000121          EDGEWOOD ISD Position 7                                 UNDER VOTES                                                                                  01 
03450052015000119          EDGEWOOD ISD Position 7                                 UNDER VOTES                                                                                  01 
03450052016000108          EDGEWOOD ISD Position 7                                 UNDER VOTES                                                                                  01 
03450052017000096          EDGEWOOD ISD Position 7                                 UNDER VOTES                                                                                  01 
03450052019000137          EDGEWOOD ISD Position 7                                 UNDER VOTES                                                                                  01 
03450052020000210          EDGEWOOD ISD Position 7                                 UNDER VOTES                                                                                  01 
03450052021000213          EDGEWOOD ISD Position 7                                 UNDER VOTES                                                                                  01 
03450052022000124          EDGEWOOD ISD Position 7                                 UNDER VOTES                                                                                  01 
03450052030000047          EDGEWOOD ISD Position 7                                 UNDER VOTES                                                                                  01 
03450052043000128          EDGEWOOD ISD Position 7                                 UNDER VOTES                                                                                  01 
03450052074000075          EDGEWOOD ISD Position 7                                 UNDER VOTES                                                                                  01 
03450052075000020          EDGEWOOD ISD Position 7                                 UNDER VOTES                                                                                  01 
03450052089000022          EDGEWOOD ISD Position 7                                 UNDER VOTES                                                                                  01 
03450052128000052          EDGEWOOD ISD Position 7                                 UNDER VOTES                                                                                  01 
