03300011013000065NON       EDGEWOOD ISD Position 4                                 Jesse R. Alcala                                                                              01 
03300011026000000NON       EDGEWOOD ISD Position 4                                 Jesse R. Alcala                                                                              01 
03300011027000017NON       EDGEWOOD ISD Position 4                                 Jesse R. Alcala                                                                              01 
03300011029000110NON       EDGEWOOD ISD Position 4                                 Jesse R. Alcala                                                                              01 
03300011030000005NON       EDGEWOOD ISD Position 4                                 Jesse R. Alcala                                                                              01 
03300011031000094NON       EDGEWOOD ISD Position 4                                 Jesse R. Alcala                                                                              01 
03300011032000127NON       EDGEWOOD ISD Position 4                                 Jesse R. Alcala                                                                              01 
03300011088000065NON       EDGEWOOD ISD Position 4                                 Jesse R. Alcala                                                                              01 
03300011090000000NON       EDGEWOOD ISD Position 4                                 Jesse R. Alcala                                                                              01 
03300011096000003NON       EDGEWOOD ISD Position 4                                 Jesse R. Alcala                                                                              01 
03300012011000123NON       EDGEWOOD ISD Position 4                                 Jesse R. Alcala                                                                              01 
03300012012000093NON       EDGEWOOD ISD Position 4                                 Jesse R. Alcala                                                                              01 
03300012015000154NON       EDGEWOOD ISD Position 4                                 Jesse R. Alcala                                                                              01 
03300012016000080NON       EDGEWOOD ISD Position 4                                 Jesse R. Alcala                                                                              01 
03300012017000067NON       EDGEWOOD ISD Position 4                                 Jesse R. Alcala                                                                              01 
03300012019000104NON       EDGEWOOD ISD Position 4                                 Jesse R. Alcala                                                                              01 
03300012020000143NON       EDGEWOOD ISD Position 4                                 Jesse R. Alcala                                                                              01 
03300012021000164NON       EDGEWOOD ISD Position 4                                 Jesse R. Alcala                                                                              01 
03300012022000099NON       EDGEWOOD ISD Position 4                                 Jesse R. Alcala                                                                              01 
03300012030000034NON       EDGEWOOD ISD Position 4                                 Jesse R. Alcala                                                                              01 
03300012043000121NON       EDGEWOOD ISD Position 4                                 Jesse R. Alcala                                                                              01 
03300012074000054NON       EDGEWOOD ISD Position 4                                 Jesse R. Alcala                                                                              01 
03300012075000016NON       EDGEWOOD ISD Position 4                                 Jesse R. Alcala                                                                              01 
03300012089000018NON       EDGEWOOD ISD Position 4                                 Jesse R. Alcala                                                                              01 
03300012128000038NON       EDGEWOOD ISD Position 4                                 Jesse R. Alcala                                                                              01 
03300021013000120NON       EDGEWOOD ISD Position 4                                 Johnny Perez                                                                                 01 
03300021026000000NON       EDGEWOOD ISD Position 4                                 Johnny Perez                                                                                 01 
03300021027000032NON       EDGEWOOD ISD Position 4                                 Johnny Perez                                                                                 01 
03300021029000213NON       EDGEWOOD ISD Position 4                                 Johnny Perez                                                                                 01 
03300021030000002NON       EDGEWOOD ISD Position 4                                 Johnny Perez                                                                                 01 
03300021031000184NON       EDGEWOOD ISD Position 4                                 Johnny Perez                                                                                 01 
03300021032000329NON       EDGEWOOD ISD Position 4                                 Johnny Perez                                                                                 01 
03300021088000118NON       EDGEWOOD ISD Position 4                                 Johnny Perez                                                                                 01 
03300021090000000NON       EDGEWOOD ISD Position 4                                 Johnny Perez                                                                                 01 
03300021096000002NON       EDGEWOOD ISD Position 4                                 Johnny Perez                                                                                 01 
03300022011000159NON       EDGEWOOD ISD Position 4                                 Johnny Perez                                                                                 01 
03300022012000081NON       EDGEWOOD ISD Position 4                                 Johnny Perez                                                                                 01 
03300022015000113NON       EDGEWOOD ISD Position 4                                 Johnny Perez                                                                                 01 
03300022016000112NON       EDGEWOOD ISD Position 4                                 Johnny Perez                                                                                 01 
03300022017000108NON       EDGEWOOD ISD Position 4                                 Johnny Perez                                                                                 01 
03300022019000162NON       EDGEWOOD ISD Position 4                                 Johnny Perez                                                                                 01 
03300022020000314NON       EDGEWOOD ISD Position 4                                 Johnny Perez                                                                                 01 
03300022021000204NON       EDGEWOOD ISD Position 4                                 Johnny Perez                                                                                 01 
03300022022000134NON       EDGEWOOD ISD Position 4                                 Johnny Perez                                                                                 01 
03300022030000046NON       EDGEWOOD ISD Position 4                                 Johnny Perez                                                                                 01 
03300022043000209NON       EDGEWOOD ISD Position 4                                 Johnny Perez                                                                                 01 
03300022074000092NON       EDGEWOOD ISD Position 4                                 Johnny Perez                                                                                 01 
03300022075000055NON       EDGEWOOD ISD Position 4                                 Johnny Perez                                                                                 01 
03300022089000020NON       EDGEWOOD ISD Position 4                                 Johnny Perez                                                                                 01 
03300022128000044NON       EDGEWOOD ISD Position 4                                 Johnny Perez                                                                                 01 
03300031013000059NON       EDGEWOOD ISD Position 4                                 Lorenzo R. Villarreal                                                                        01 
03300031026000000NON       EDGEWOOD ISD Position 4                                 Lorenzo R. Villarreal                                                                        01 
03300031027000026NON       EDGEWOOD ISD Position 4                                 Lorenzo R. Villarreal                                                                        01 
03300031029000102NON       EDGEWOOD ISD Position 4                                 Lorenzo R. Villarreal                                                                        01 
03300031030000005NON       EDGEWOOD ISD Position 4                                 Lorenzo R. Villarreal                                                                        01 
03300031031000128NON       EDGEWOOD ISD Position 4                                 Lorenzo R. Villarreal                                                                        01 
03300031032000191NON       EDGEWOOD ISD Position 4                                 Lorenzo R. Villarreal                                                                        01 
03300031088000073NON       EDGEWOOD ISD Position 4                                 Lorenzo R. Villarreal                                                                        01 
03300031090000000NON       EDGEWOOD ISD Position 4                                 Lorenzo R. Villarreal                                                                        01 
03300031096000000NON       EDGEWOOD ISD Position 4                                 Lorenzo R. Villarreal                                                                        01 
03300032011000181NON       EDGEWOOD ISD Position 4                                 Lorenzo R. Villarreal                                                                        01 
03300032012000083NON       EDGEWOOD ISD Position 4                                 Lorenzo R. Villarreal                                                                        01 
03300032015000150NON       EDGEWOOD ISD Position 4                                 Lorenzo R. Villarreal                                                                        01 
03300032016000088NON       EDGEWOOD ISD Position 4                                 Lorenzo R. Villarreal                                                                        01 
03300032017000080NON       EDGEWOOD ISD Position 4                                 Lorenzo R. Villarreal                                                                        01 
03300032019000083NON       EDGEWOOD ISD Position 4                                 Lorenzo R. Villarreal                                                                        01 
03300032020000183NON       EDGEWOOD ISD Position 4                                 Lorenzo R. Villarreal                                                                        01 
03300032021000237NON       EDGEWOOD ISD Position 4                                 Lorenzo R. Villarreal                                                                        01 
03300032022000147NON       EDGEWOOD ISD Position 4                                 Lorenzo R. Villarreal                                                                        01 
03300032030000041NON       EDGEWOOD ISD Position 4                                 Lorenzo R. Villarreal                                                                        01 
03300032043000091NON       EDGEWOOD ISD Position 4                                 Lorenzo R. Villarreal                                                                        01 
03300032074000094NON       EDGEWOOD ISD Position 4                                 Lorenzo R. Villarreal                                                                        01 
03300032075000026NON       EDGEWOOD ISD Position 4                                 Lorenzo R. Villarreal                                                                        01 
03300032089000019NON       EDGEWOOD ISD Position 4                                 Lorenzo R. Villarreal                                                                        01 
03300032128000050NON       EDGEWOOD ISD Position 4                                 Lorenzo R. Villarreal                                                                        01 
03300041013000000          EDGEWOOD ISD Position 4                                 OVER VOTES                                                                                   01 
03300041026000000          EDGEWOOD ISD Position 4                                 OVER VOTES                                                                                   01 
03300041027000000          EDGEWOOD ISD Position 4                                 OVER VOTES                                                                                   01 
03300041029000000          EDGEWOOD ISD Position 4                                 OVER VOTES                                                                                   01 
03300041030000000          EDGEWOOD ISD Position 4                                 OVER VOTES                                                                                   01 
03300041031000000          EDGEWOOD ISD Position 4                                 OVER VOTES                                                                                   01 
03300041032000000          EDGEWOOD ISD Position 4                                 OVER VOTES                                                                                   01 
03300041088000000          EDGEWOOD ISD Position 4                                 OVER VOTES                                                                                   01 
03300041090000000          EDGEWOOD ISD Position 4                                 OVER VOTES                                                                                   01 
03300041096000000          EDGEWOOD ISD Position 4                                 OVER VOTES                                                                                   01 
03300042011000000          EDGEWOOD ISD Position 4                                 OVER VOTES                                                                                   01 
03300042012000000          EDGEWOOD ISD Position 4                                 OVER VOTES                                                                                   01 
03300042015000000          EDGEWOOD ISD Position 4                                 OVER VOTES                                                                                   01 
03300042016000000          EDGEWOOD ISD Position 4                                 OVER VOTES                                                                                   01 
03300042017000000          EDGEWOOD ISD Position 4                                 OVER VOTES                                                                                   01 
03300042019000000          EDGEWOOD ISD Position 4                                 OVER VOTES                                                                                   01 
03300042020000000          EDGEWOOD ISD Position 4                                 OVER VOTES                                                                                   01 
03300042021000000          EDGEWOOD ISD Position 4                                 OVER VOTES                                                                                   01 
03300042022000000          EDGEWOOD ISD Position 4                                 OVER VOTES                                                                                   01 
03300042030000000          EDGEWOOD ISD Position 4                                 OVER VOTES                                                                                   01 
03300042043000000          EDGEWOOD ISD Position 4                                 OVER VOTES                                                                                   01 
03300042074000000          EDGEWOOD ISD Position 4                                 OVER VOTES                                                                                   01 
03300042075000000          EDGEWOOD ISD Position 4                                 OVER VOTES                                                                                   01 
03300042089000000          EDGEWOOD ISD Position 4                                 OVER VOTES                                                                                   01 
03300042128000000          EDGEWOOD ISD Position 4                                 OVER VOTES                                                                                   01 
03300051013000120          EDGEWOOD ISD Position 4                                 UNDER VOTES                                                                                  01 
03300051026000000          EDGEWOOD ISD Position 4                                 UNDER VOTES                                                                                  01 
03300051027000028          EDGEWOOD ISD Position 4                                 UNDER VOTES                                                                                  01 
03300051029000201          EDGEWOOD ISD Position 4                                 UNDER VOTES                                                                                  01 
03300051030000015          EDGEWOOD ISD Position 4                                 UNDER VOTES                                                                                  01 
03300051031000165          EDGEWOOD ISD Position 4                                 UNDER VOTES                                                                                  01 
03300051032000293          EDGEWOOD ISD Position 4                                 UNDER VOTES                                                                                  01 
03300051088000127          EDGEWOOD ISD Position 4                                 UNDER VOTES                                                                                  01 
03300051090000001          EDGEWOOD ISD Position 4                                 UNDER VOTES                                                                                  01 
03300051096000001          EDGEWOOD ISD Position 4                                 UNDER VOTES                                                                                  01 
03300052011000282          EDGEWOOD ISD Position 4                                 UNDER VOTES                                                                                  01 
03300052012000189          EDGEWOOD ISD Position 4                                 UNDER VOTES                                                                                  01 
03300052015000168          EDGEWOOD ISD Position 4                                 UNDER VOTES                                                                                  01 
03300052016000131          EDGEWOOD ISD Position 4                                 UNDER VOTES                                                                                  01 
03300052017000142          EDGEWOOD ISD Position 4                                 UNDER VOTES                                                                                  01 
03300052019000223          EDGEWOOD ISD Position 4                                 UNDER VOTES                                                                                  01 
03300052020000304          EDGEWOOD ISD Position 4                                 UNDER VOTES                                                                                  01 
03300052021000305          EDGEWOOD ISD Position 4                                 UNDER VOTES                                                                                  01 
03300052022000175          EDGEWOOD ISD Position 4                                 UNDER VOTES                                                                                  01 
03300052030000083          EDGEWOOD ISD Position 4                                 UNDER VOTES                                                                                  01 
03300052043000202          EDGEWOOD ISD Position 4                                 UNDER VOTES                                                                                  01 
03300052074000119          EDGEWOOD ISD Position 4                                 UNDER VOTES                                                                                  01 
03300052075000039          EDGEWOOD ISD Position 4                                 UNDER VOTES                                                                                  01 
03300052089000035          EDGEWOOD ISD Position 4                                 UNDER VOTES                                                                                  01 
03300052128000068          EDGEWOOD ISD Position 4                                 UNDER VOTES                                                                                  01 
03350011013000181NON       EDGEWOOD ISD Position 5                                 Tina Morales                                                                                 01 
03350011026000000NON       EDGEWOOD ISD Position 5                                 Tina Morales                                                                                 01 
03350011027000061NON       EDGEWOOD ISD Position 5                                 Tina Morales                                                                                 01 
03350011029000364NON       EDGEWOOD ISD Position 5                                 Tina Morales                                                                                 01 
03350011030000009NON       EDGEWOOD ISD Position 5                                 Tina Morales                                                                                 01 
03350011031000334NON       EDGEWOOD ISD Position 5                                 Tina Morales                                                                                 01 
03350011032000514NON       EDGEWOOD ISD Position 5                                 Tina Morales                                                                                 01 
03350011088000193NON       EDGEWOOD ISD Position 5                                 Tina Morales                                                                                 01 
03350011090000000NON       EDGEWOOD ISD Position 5                                 Tina Morales                                                                                 01 
03350011096000002NON       EDGEWOOD ISD Position 5                                 Tina Morales                                                                                 01 
03350012011000337NON       EDGEWOOD ISD Position 5                                 Tina Morales                                                                                 01 
03350012012000212NON       EDGEWOOD ISD Position 5                                 Tina Morales                                                                                 01 
03350012015000299NON       EDGEWOOD ISD Position 5                                 Tina Morales                                                                                 01 
03350012016000203NON       EDGEWOOD ISD Position 5                                 Tina Morales                                                                                 01 
03350012017000182NON       EDGEWOOD ISD Position 5                                 Tina Morales                                                                                 01 
03350012019000273NON       EDGEWOOD ISD Position 5                                 Tina Morales                                                                                 01 
03350012020000508NON       EDGEWOOD ISD Position 5                                 Tina Morales                                                                                 01 
03350012021000443NON       EDGEWOOD ISD Position 5                                 Tina Morales                                                                                 01 
03350012022000301NON       EDGEWOOD ISD Position 5                                 Tina Morales                                                                                 01 
03350012030000096NON       EDGEWOOD ISD Position 5                                 Tina Morales                                                                                 01 
03350012043000331NON       EDGEWOOD ISD Position 5                                 Tina Morales                                                                                 01 
03350012074000178NON       EDGEWOOD ISD Position 5                                 Tina Morales                                                                                 01 
03350012075000088NON       EDGEWOOD ISD Position 5                                 Tina Morales                                                                                 01 
03350012089000050NON       EDGEWOOD ISD Position 5                                 Tina Morales                                                                                 01 
03350012128000096NON       EDGEWOOD ISD Position 5                                 Tina Morales                                                                                 01 
03350021013000059NON       EDGEWOOD ISD Position 5                                 Moses G. Verbena                                                                             01 
03350021026000000NON       EDGEWOOD ISD Position 5                                 Moses G. Verbena                                                                             01 
03350021027000013NON       EDGEWOOD ISD Position 5                                 Moses G. Verbena                                                                             01 
03350021029000076NON       EDGEWOOD ISD Position 5                                 Moses G. Verbena                                                                             01 
03350021030000003NON       EDGEWOOD ISD Position 5                                 Moses G. Verbena                                                                             01 
03350021031000086NON       EDGEWOOD ISD Position 5                                 Moses G. Verbena                                                                             01 
03350021032000120NON       EDGEWOOD ISD Position 5                                 Moses G. Verbena                                                                             01 
03350021088000054NON       EDGEWOOD ISD Position 5                                 Moses G. Verbena                                                                             01 
03350021090000000NON       EDGEWOOD ISD Position 5                                 Moses G. Verbena                                                                             01 
03350021096000003NON       EDGEWOOD ISD Position 5                                 Moses G. Verbena                                                                             01 
03350022011000132NON       EDGEWOOD ISD Position 5                                 Moses G. Verbena                                                                             01 
03350022012000049NON       EDGEWOOD ISD Position 5                                 Moses G. Verbena                                                                             01 
03350022015000094NON       EDGEWOOD ISD Position 5                                 Moses G. Verbena                                                                             01 
03350022016000060NON       EDGEWOOD ISD Position 5                                 Moses G. Verbena                                                                             01 
03350022017000063NON       EDGEWOOD ISD Position 5                                 Moses G. Verbena                                                                             01 
03350022019000063NON       EDGEWOOD ISD Position 5                                 Moses G. Verbena                                                                             01 
03350022020000109NON       EDGEWOOD ISD Position 5                                 Moses G. Verbena                                                                             01 
03350022021000125NON       EDGEWOOD ISD Position 5                                 Moses G. Verbena                                                                             01 
03350022022000075NON       EDGEWOOD ISD Position 5                                 Moses G. Verbena                                                                             01 
03350022030000025NON       EDGEWOOD ISD Position 5                                 Moses G. Verbena                                                                             01 
03350022043000070NON       EDGEWOOD ISD Position 5                                 Moses G. Verbena                                                                             01 
03350022074000056NON       EDGEWOOD ISD Position 5                                 Moses G. Verbena                                                                             01 
03350022075000010NON       EDGEWOOD ISD Position 5                                 Moses G. Verbena                                                                             01 
03350022089000013NON       EDGEWOOD ISD Position 5                                 Moses G. Verbena                                                                             01 
03350022128000028NON       EDGEWOOD ISD Position 5                                 Moses G. Verbena                                                                             01 
03350031013000000          EDGEWOOD ISD Position 5                                 OVER VOTES                                                                                   01 
03350031026000000          EDGEWOOD ISD Position 5                                 OVER VOTES                                                                                   01 
03350031027000000          EDGEWOOD ISD Position 5                                 OVER VOTES                                                                                   01 
03350031029000000          EDGEWOOD ISD Position 5                                 OVER VOTES                                                                                   01 
03350031030000000          EDGEWOOD ISD Position 5                                 OVER VOTES                                                                                   01 
03350031031000000          EDGEWOOD ISD Position 5                                 OVER VOTES                                                                                   01 
03350031032000000          EDGEWOOD ISD Position 5                                 OVER VOTES                                                                                   01 
03350031088000000          EDGEWOOD ISD Position 5                                 OVER VOTES                                                                                   01 
03350031090000000          EDGEWOOD ISD Position 5                                 OVER VOTES                                                                                   01 
03350031096000000          EDGEWOOD ISD Position 5                                 OVER VOTES                                                                                   01 
03350032011000000          EDGEWOOD ISD Position 5                                 OVER VOTES                                                                                   01 
03350032012000000          EDGEWOOD ISD Position 5                                 OVER VOTES                                                                                   01 
03350032015000000          EDGEWOOD ISD Position 5                                 OVER VOTES                                                                                   01 
03350032016000000          EDGEWOOD ISD Position 5                                 OVER VOTES                                                                                   01 
03350032017000000          EDGEWOOD ISD Position 5                                 OVER VOTES                                                                                   01 
03350032019000000          EDGEWOOD ISD Position 5                                 OVER VOTES                                                                                   01 
03350032020000000          EDGEWOOD ISD Position 5                                 OVER VOTES                                                                                   01 
03350032021000000          EDGEWOOD ISD Position 5                                 OVER VOTES                                                                                   01 
03350032022000000          EDGEWOOD ISD Position 5                                 OVER VOTES                                                                                   01 
03350032030000000          EDGEWOOD ISD Position 5                                 OVER VOTES                                                                                   01 
03350032043000000          EDGEWOOD ISD Position 5                                 OVER VOTES                                                                                   01 
03350032074000000          EDGEWOOD ISD Position 5                                 OVER VOTES                                                                                   01 
03350032075000000          EDGEWOOD ISD Position 5                                 OVER VOTES                                                                                   01 
03350032089000000          EDGEWOOD ISD Position 5                                 OVER VOTES                                                                                   01 
03350032128000000          EDGEWOOD ISD Position 5                                 OVER VOTES                                                                                   01 
03350041013000124          EDGEWOOD ISD Position 5                                 UNDER VOTES                                                                                  01 
03350041026000000          EDGEWOOD ISD Position 5                                 UNDER VOTES                                                                                  01 
03350041027000029          EDGEWOOD ISD Position 5                                 UNDER VOTES                                                                                  01 
03350041029000186          EDGEWOOD ISD Position 5                                 UNDER VOTES                                                                                  01 
03350041030000015          EDGEWOOD ISD Position 5                                 UNDER VOTES                                                                                  01 
03350041031000151          EDGEWOOD ISD Position 5                                 UNDER VOTES                                                                                  01 
03350041032000306          EDGEWOOD ISD Position 5                                 UNDER VOTES                                                                                  01 
03350041088000136          EDGEWOOD ISD Position 5                                 UNDER VOTES                                                                                  01 
03350041090000001          EDGEWOOD ISD Position 5                                 UNDER VOTES                                                                                  01 
03350041096000001          EDGEWOOD ISD Position 5                                 UNDER VOTES                                                                                  01 
03350042011000276          EDGEWOOD ISD Position 5                                 UNDER VOTES                                                                                  01 
03350042012000185          EDGEWOOD ISD Position 5                                 UNDER VOTES                                                                                  01 
03350042015000192          EDGEWOOD ISD Position 5                                 UNDER VOTES                                                                                  01 
03350042016000148          EDGEWOOD ISD Position 5                                 UNDER VOTES                                                                                  01 
03350042017000152          EDGEWOOD ISD Position 5                                 UNDER VOTES                                                                                  01 
03350042019000236          EDGEWOOD ISD Position 5                                 UNDER VOTES                                                                                  01 
03350042020000327          EDGEWOOD ISD Position 5                                 UNDER VOTES                                                                                  01 
03350042021000342          EDGEWOOD ISD Position 5                                 UNDER VOTES                                                                                  01 
03350042022000179          EDGEWOOD ISD Position 5                                 UNDER VOTES                                                                                  01 
03350042030000083          EDGEWOOD ISD Position 5                                 UNDER VOTES                                                                                  01 
03350042043000222          EDGEWOOD ISD Position 5                                 UNDER VOTES                                                                                  01 
03350042074000125          EDGEWOOD ISD Position 5                                 UNDER VOTES                                                                                  01 
03350042075000038          EDGEWOOD ISD Position 5                                 UNDER VOTES                                                                                  01 
03350042089000029          EDGEWOOD ISD Position 5                                 UNDER VOTES                                                                                  01 
03350042128000076          EDGEWOOD ISD Position 5                                 UNDER VOTES                                                                                  01 
03400011013000059NON       EDGEWOOD ISD Position 6                                 Bernice Felan Garcia                                                                         01 
03400011026000000NON       EDGEWOOD ISD Position 6                                 Bernice Felan Garcia                                                                         01 
03400011027000022NON       EDGEWOOD ISD Position 6                                 Bernice Felan Garcia                                                                         01 
03400011029000103NON       EDGEWOOD ISD Position 6                                 Bernice Felan Garcia                                                                         01 
03400011030000005NON       EDGEWOOD ISD Position 6                                 Bernice Felan Garcia                                                                         01 
03400011031000105NON       EDGEWOOD ISD Position 6                                 Bernice Felan Garcia                                                                         01 
03400011032000139NON       EDGEWOOD ISD Position 6                                 Bernice Felan Garcia                                                                         01 
03400011088000058NON       EDGEWOOD ISD Position 6                                 Bernice Felan Garcia                                                                         01 
03400011090000000NON       EDGEWOOD ISD Position 6                                 Bernice Felan Garcia                                                                         01 
03400011096000002NON       EDGEWOOD ISD Position 6                                 Bernice Felan Garcia                                                                         01 
03400012011000153NON       EDGEWOOD ISD Position 6                                 Bernice Felan Garcia                                                                         01 
03400012012000072NON       EDGEWOOD ISD Position 6                                 Bernice Felan Garcia                                                                         01 
03400012015000092NON       EDGEWOOD ISD Position 6                                 Bernice Felan Garcia                                                                         01 
03400012016000057NON       EDGEWOOD ISD Position 6                                 Bernice Felan Garcia                                                                         01 
03400012017000057NON       EDGEWOOD ISD Position 6                                 Bernice Felan Garcia                                                                         01 
03400012019000071NON       EDGEWOOD ISD Position 6                                 Bernice Felan Garcia                                                                         01 
03400012020000130NON       EDGEWOOD ISD Position 6                                 Bernice Felan Garcia                                                                         01 
03400012021000138NON       EDGEWOOD ISD Position 6                                 Bernice Felan Garcia                                                                         01 
03400012022000110NON       EDGEWOOD ISD Position 6                                 Bernice Felan Garcia                                                                         01 
03400012030000029NON       EDGEWOOD ISD Position 6                                 Bernice Felan Garcia                                                                         01 
03400012043000078NON       EDGEWOOD ISD Position 6                                 Bernice Felan Garcia                                                                         01 
03400012074000059NON       EDGEWOOD ISD Position 6                                 Bernice Felan Garcia                                                                         01 
03400012075000019NON       EDGEWOOD ISD Position 6                                 Bernice Felan Garcia                                                                         01 
03400012089000015NON       EDGEWOOD ISD Position 6                                 Bernice Felan Garcia                                                                         01 
03400012128000034NON       EDGEWOOD ISD Position 6                                 Bernice Felan Garcia                                                                         01 
03400021013000114NON       EDGEWOOD ISD Position 6                                 Velma Pena                                                                                   01 
03400021026000000NON       EDGEWOOD ISD Position 6                                 Velma Pena                                                                                   01 
03400021027000032NON       EDGEWOOD ISD Position 6                                 Velma Pena                                                                                   01 
03400021029000194NON       EDGEWOOD ISD Position 6                                 Velma Pena                                                                                   01 
03400021030000006NON       EDGEWOOD ISD Position 6                                 Velma Pena                                                                                   01 
03400021031000189NON       EDGEWOOD ISD Position 6                                 Velma Pena                                                                                   01 
03400021032000338NON       EDGEWOOD ISD Position 6                                 Velma Pena                                                                                   01 
03400021088000118NON       EDGEWOOD ISD Position 6                                 Velma Pena                                                                                   01 
03400021090000000NON       EDGEWOOD ISD Position 6                                 Velma Pena                                                                                   01 
03400021096000003NON       EDGEWOOD ISD Position 6                                 Velma Pena                                                                                   01 
03400022011000207NON       EDGEWOOD ISD Position 6                                 Velma Pena                                                                                   01 
03400022012000105NON       EDGEWOOD ISD Position 6                                 Velma Pena                                                                                   01 
03400022015000167NON       EDGEWOOD ISD Position 6                                 Velma Pena                                                                                   01 
03400022016000120NON       EDGEWOOD ISD Position 6                                 Velma Pena                                                                                   01 
03400022017000125NON       EDGEWOOD ISD Position 6                                 Velma Pena                                                                                   01 
03400022019000147NON       EDGEWOOD ISD Position 6                                 Velma Pena                                                                                   01 
03400022020000282NON       EDGEWOOD ISD Position 6                                 Velma Pena                                                                                   01 
03400022021000264NON       EDGEWOOD ISD Position 6                                 Velma Pena                                                                                   01 
03400022022000152NON       EDGEWOOD ISD Position 6                                 Velma Pena                                                                                   01 
03400022030000054NON       EDGEWOOD ISD Position 6                                 Velma Pena                                                                                   01 
03400022043000179NON       EDGEWOOD ISD Position 6                                 Velma Pena                                                                                   01 
03400022074000097NON       EDGEWOOD ISD Position 6                                 Velma Pena                                                                                   01 
03400022075000056NON       EDGEWOOD ISD Position 6                                 Velma Pena                                                                                   01 
03400022089000025NON       EDGEWOOD ISD Position 6                                 Velma Pena                                                                                   01 
03400022128000053NON       EDGEWOOD ISD Position 6                                 Velma Pena                                                                                   01 
03400031013000063NON       EDGEWOOD ISD Position 6                                 Marcelo R. Montemayor                                                                        01 
03400031026000000NON       EDGEWOOD ISD Position 6                                 Marcelo R. Montemayor                                                                        01 
03400031027000019NON       EDGEWOOD ISD Position 6                                 Marcelo R. Montemayor                                                                        01 
03400031029000112NON       EDGEWOOD ISD Position 6                                 Marcelo R. Montemayor                                                                        01 
03400031030000001NON       EDGEWOOD ISD Position 6                                 Marcelo R. Montemayor                                                                        01 
03400031031000114NON       EDGEWOOD ISD Position 6                                 Marcelo R. Montemayor                                                                        01 
03400031032000153NON       EDGEWOOD ISD Position 6                                 Marcelo R. Montemayor                                                                        01 
03400031088000078NON       EDGEWOOD ISD Position 6                                 Marcelo R. Montemayor                                                                        01 
03400031090000000NON       EDGEWOOD ISD Position 6                                 Marcelo R. Montemayor                                                                        01 
03400031096000000NON       EDGEWOOD ISD Position 6                                 Marcelo R. Montemayor                                                                        01 
03400032011000118NON       EDGEWOOD ISD Position 6                                 Marcelo R. Montemayor                                                                        01 
03400032012000084NON       EDGEWOOD ISD Position 6                                 Marcelo R. Montemayor                                                                        01 
03400032015000134NON       EDGEWOOD ISD Position 6                                 Marcelo R. Montemayor                                                                        01 
03400032016000090NON       EDGEWOOD ISD Position 6                                 Marcelo R. Montemayor                                                                        01 
03400032017000069NON       EDGEWOOD ISD Position 6                                 Marcelo R. Montemayor                                                                        01 
03400032019000131NON       EDGEWOOD ISD Position 6                                 Marcelo R. Montemayor                                                                        01 
03400032020000199NON       EDGEWOOD ISD Position 6                                 Marcelo R. Montemayor                                                                        01 
03400032021000188NON       EDGEWOOD ISD Position 6                                 Marcelo R. Montemayor                                                                        01 
03400032022000110NON       EDGEWOOD ISD Position 6                                 Marcelo R. Montemayor                                                                        01 
03400032030000042NON       EDGEWOOD ISD Position 6                                 Marcelo R. Montemayor                                                                        01 
03400032043000160NON       EDGEWOOD ISD Position 6                                 Marcelo R. Montemayor                                                                        01 
03400032074000080NON       EDGEWOOD ISD Position 6                                 Marcelo R. Montemayor                                                                        01 
03400032075000026NON       EDGEWOOD ISD Position 6                                 Marcelo R. Montemayor                                                                        01 
03400032089000021NON       EDGEWOOD ISD Position 6                                 Marcelo R. Montemayor                                                                        01 
03400032128000039NON       EDGEWOOD ISD Position 6                                 Marcelo R. Montemayor                                                                        01 
03400041013000000          EDGEWOOD ISD Position 6                                 OVER VOTES                                                                                   01 
03400041026000000          EDGEWOOD ISD Position 6                                 OVER VOTES                                                                                   01 
03400041027000000          EDGEWOOD ISD Position 6                                 OVER VOTES                                                                                   01 
03400041029000000          EDGEWOOD ISD Position 6                                 OVER VOTES                                                                                   01 
03400041030000000          EDGEWOOD ISD Position 6                                 OVER VOTES                                                                                   01 
03400041031000000          EDGEWOOD ISD Position 6                                 OVER VOTES                                                                                   01 
03400041032000000          EDGEWOOD ISD Position 6                                 OVER VOTES                                                                                   01 
03400041088000000          EDGEWOOD ISD Position 6                                 OVER VOTES                                                                                   01 
03400041090000000          EDGEWOOD ISD Position 6                                 OVER VOTES                                                                                   01 
03400041096000000          EDGEWOOD ISD Position 6                                 OVER VOTES                                                                                   01 
03400042011000000          EDGEWOOD ISD Position 6                                 OVER VOTES                                                                                   01 
03400042012000000          EDGEWOOD ISD Position 6                                 OVER VOTES                                                                                   01 
03400042015000000          EDGEWOOD ISD Position 6                                 OVER VOTES                                                                                   01 
03400042016000000          EDGEWOOD ISD Position 6                                 OVER VOTES                                                                                   01 
03400042017000000          EDGEWOOD ISD Position 6                                 OVER VOTES                                                                                   01 
03400042019000000          EDGEWOOD ISD Position 6                                 OVER VOTES                                                                                   01 
03400042020000000          EDGEWOOD ISD Position 6                                 OVER VOTES                                                                                   01 
03400042021000000          EDGEWOOD ISD Position 6                                 OVER VOTES                                                                                   01 
03400042022000000          EDGEWOOD ISD Position 6                                 OVER VOTES                                                                                   01 
03400042030000000          EDGEWOOD ISD Position 6                                 OVER VOTES                                                                                   01 
03400042043000000          EDGEWOOD ISD Position 6                                 OVER VOTES                                                                                   01 
03400042074000000          EDGEWOOD ISD Position 6                                 OVER VOTES                                                                                   01 
03400042075000000          EDGEWOOD ISD Position 6                                 OVER VOTES                                                                                   01 
03400042089000000          EDGEWOOD ISD Position 6                                 OVER VOTES                                                                                   01 
03400042128000000          EDGEWOOD ISD Position 6                                 OVER VOTES                                                                                   01 
03400051013000128          EDGEWOOD ISD Position 6                                 UNDER VOTES                                                                                  01 
03400051026000000          EDGEWOOD ISD Position 6                                 UNDER VOTES                                                                                  01 
03400051027000030          EDGEWOOD ISD Position 6                                 UNDER VOTES                                                                                  01 
03400051029000217          EDGEWOOD ISD Position 6                                 UNDER VOTES                                                                                  01 
03400051030000015          EDGEWOOD ISD Position 6                                 UNDER VOTES                                                                                  01 
03400051031000163          EDGEWOOD ISD Position 6                                 UNDER VOTES                                                                                  01 
03400051032000310          EDGEWOOD ISD Position 6                                 UNDER VOTES                                                                                  01 
03400051088000129          EDGEWOOD ISD Position 6                                 UNDER VOTES                                                                                  01 
03400051090000001          EDGEWOOD ISD Position 6                                 UNDER VOTES                                                                                  01 
03400051096000001          EDGEWOOD ISD Position 6                                 UNDER VOTES                                                                                  01 
03400052011000267          EDGEWOOD ISD Position 6                                 UNDER VOTES                                                                                  01 
03400052012000185          EDGEWOOD ISD Position 6                                 UNDER VOTES                                                                                  01 
03400052015000192          EDGEWOOD ISD Position 6                                 UNDER VOTES                                                                                  01 
03400052016000144          EDGEWOOD ISD Position 6                                 UNDER VOTES                                                                                  01 
03400052017000146          EDGEWOOD ISD Position 6                                 UNDER VOTES                                                                                  01 
03400052019000223          EDGEWOOD ISD Position 6                                 UNDER VOTES                                                                                  01 
03400052020000333          EDGEWOOD ISD Position 6                                 UNDER VOTES                                                                                  01 
03400052021000320          EDGEWOOD ISD Position 6                                 UNDER VOTES                                                                                  01 
03400052022000183          EDGEWOOD ISD Position 6                                 UNDER VOTES                                                                                  01 
03400052030000079          EDGEWOOD ISD Position 6                                 UNDER VOTES                                                                                  01 
03400052043000206          EDGEWOOD ISD Position 6                                 UNDER VOTES                                                                                  01 
03400052074000123          EDGEWOOD ISD Position 6                                 UNDER VOTES                                                                                  01 
03400052075000035          EDGEWOOD ISD Position 6                                 UNDER VOTES                                                                                  01 
03400052089000031          EDGEWOOD ISD Position 6                                 UNDER VOTES                                                                                  01 
03400052128000074          EDGEWOOD ISD Position 6                                 UNDER VOTES                                                                                  01 
03450011013000022NON       EDGEWOOD ISD Position 7                                 Timothy Wayne Payne                                                                          01 
03450011026000000NON       EDGEWOOD ISD Position 7                                 Timothy Wayne Payne                                                                          01 
03450011027000012NON       EDGEWOOD ISD Position 7                                 Timothy Wayne Payne                                                                          01 
03450011029000038NON       EDGEWOOD ISD Position 7                                 Timothy Wayne Payne                                                                          01 
03450011030000008NON       EDGEWOOD ISD Position 7                                 Timothy Wayne Payne                                                                          01 
03450011031000046NON       EDGEWOOD ISD Position 7                                 Timothy Wayne Payne                                                                          01 
03450011032000074NON       EDGEWOOD ISD Position 7                                 Timothy Wayne Payne                                                                          01 
03450011088000019NON       EDGEWOOD ISD Position 7                                 Timothy Wayne Payne                                                                          01 
03450011090000000NON       EDGEWOOD ISD Position 7                                 Timothy Wayne Payne                                                                          01 
03450011096000001NON       EDGEWOOD ISD Position 7                                 Timothy Wayne Payne                                                                          01 
03450012011000039NON       EDGEWOOD ISD Position 7                                 Timothy Wayne Payne                                                                          01 
03450012012000023NON       EDGEWOOD ISD Position 7                                 Timothy Wayne Payne                                                                          01 
03450012015000042NON       EDGEWOOD ISD Position 7                                 Timothy Wayne Payne                                                                          01 
03450012016000025NON       EDGEWOOD ISD Position 7                                 Timothy Wayne Payne                                                                          01 
03450012017000034NON       EDGEWOOD ISD Position 7                                 Timothy Wayne Payne                                                                          01 
03450012019000051NON       EDGEWOOD ISD Position 7                                 Timothy Wayne Payne                                                                          01 
03450012020000194NON       EDGEWOOD ISD Position 7                                 Timothy Wayne Payne                                                                          01 
03450012021000063NON       EDGEWOOD ISD Position 7                                 Timothy Wayne Payne                                                                          01 
03450012022000039NON       EDGEWOOD ISD Position 7                                 Timothy Wayne Payne                                                                          01 
03450012030000015NON       EDGEWOOD ISD Position 7                                 Timothy Wayne Payne                                                                          01 
03450012043000082NON       EDGEWOOD ISD Position 7                                 Timothy Wayne Payne                                                                          01 
03450012074000019NON       EDGEWOOD ISD Position 7                                 Timothy Wayne Payne                                                                          01 
03450012075000014NON       EDGEWOOD ISD Position 7                                 Timothy Wayne Payne                                                                          01 
03450012089000003NON       EDGEWOOD ISD Position 7                                 Timothy Wayne Payne                                                                          01 
03450012128000013NON       EDGEWOOD ISD Position 7                                 Timothy Wayne Payne                                                                          01 
03450021013000156NON       EDGEWOOD ISD Position 7                                 Sonia Elizondo                                                                               01 
03450021026000000NON       EDGEWOOD ISD Position 7                                 Sonia Elizondo                                                                               01 
03450021027000046NON       EDGEWOOD ISD Position 7                                 Sonia Elizondo                                                                               01 
03450021029000283NON       EDGEWOOD ISD Position 7                                 Sonia Elizondo                                                                               01 
03450021030000004NON       EDGEWOOD ISD Position 7                                 Sonia Elizondo                                                                               01 
03450021031000270NON       EDGEWOOD ISD Position 7                                 Sonia Elizondo                                                                               01 
03450021032000430NON       EDGEWOOD ISD Position 7                                 Sonia Elizondo                                                                               01 
03450021088000176NON       EDGEWOOD ISD Position 7                                 Sonia Elizondo                                                                               01 
03450021090000000NON       EDGEWOOD ISD Position 7                                 Sonia Elizondo                                                                               01 
03450021096000002NON       EDGEWOOD ISD Position 7                                 Sonia Elizondo                                                                               01 
03450022011000290NON       EDGEWOOD ISD Position 7                                 Sonia Elizondo                                                                               01 
03450022012000171NON       EDGEWOOD ISD Position 7                                 Sonia Elizondo                                                                               01 
03450022015000241NON       EDGEWOOD ISD Position 7                                 Sonia Elizondo                                                                               01 
03450022016000156NON       EDGEWOOD ISD Position 7                                 Sonia Elizondo                                                                               01 
03450022017000159NON       EDGEWOOD ISD Position 7                                 Sonia Elizondo                                                                               01 
03450022019000225NON       EDGEWOOD ISD Position 7                                 Sonia Elizondo                                                                               01 
03450022020000341NON       EDGEWOOD ISD Position 7                                 Sonia Elizondo                                                                               01 
03450022021000366NON       EDGEWOOD ISD Position 7                                 Sonia Elizondo                                                                               01 
03450022022000228NON       EDGEWOOD ISD Position 7                                 Sonia Elizondo                                                                               01 
03450022030000085NON       EDGEWOOD ISD Position 7                                 Sonia Elizondo                                                                               01 
03450022043000263NON       EDGEWOOD ISD Position 7                                 Sonia Elizondo                                                                               01 
03450022074000158NON       EDGEWOOD ISD Position 7                                 Sonia Elizondo                                                                               01 
03450022075000065NON       EDGEWOOD ISD Position 7                                 Sonia Elizondo                                                                               01 
03450022089000043NON       EDGEWOOD ISD Position 7                                 Sonia Elizondo                                                                               01 
03450022128000081NON       EDGEWOOD ISD Position 7                                 Sonia Elizondo                                                                               01 
03450031013000053NON       EDGEWOOD ISD Position 7                                 Manuel Luna                                                                                  01 
03450031026000000NON       EDGEWOOD ISD Position 7                                 Manuel Luna                                                                                  01 
03450031027000017NON       EDGEWOOD ISD Position 7                                 Manuel Luna                                                                                  01 
03450031029000084NON       EDGEWOOD ISD Position 7                                 Manuel Luna                                                                                  01 
03450031030000001NON       EDGEWOOD ISD Position 7                                 Manuel Luna                                                                                  01 
03450031031000092NON       EDGEWOOD ISD Position 7                                 Manuel Luna                                                                                  01 
03450031032000128NON       EDGEWOOD ISD Position 7                                 Manuel Luna                                                                                  01 
03450031088000056NON       EDGEWOOD ISD Position 7                                 Manuel Luna                                                                                  01 
03450031090000000NON       EDGEWOOD ISD Position 7                                 Manuel Luna                                                                                  01 
03450031096000002NON       EDGEWOOD ISD Position 7                                 Manuel Luna                                                                                  01 
03450032011000137NON       EDGEWOOD ISD Position 7                                 Manuel Luna                                                                                  01 
03450032012000086NON       EDGEWOOD ISD Position 7                                 Manuel Luna                                                                                  01 
03450032015000126NON       EDGEWOOD ISD Position 7                                 Manuel Luna                                                                                  01 
03450032016000086NON       EDGEWOOD ISD Position 7                                 Manuel Luna                                                                                  01 
03450032017000057NON       EDGEWOOD ISD Position 7                                 Manuel Luna                                                                                  01 
03450032019000067NON       EDGEWOOD ISD Position 7                                 Manuel Luna                                                                                  01 
03450032020000103NON       EDGEWOOD ISD Position 7                                 Manuel Luna                                                                                  01 
03450032021000157NON       EDGEWOOD ISD Position 7                                 Manuel Luna                                                                                  01 
03450032022000105NON       EDGEWOOD ISD Position 7                                 Manuel Luna                                                                                  01 
03450032030000026NON       EDGEWOOD ISD Position 7                                 Manuel Luna                                                                                  01 
03450032043000069NON       EDGEWOOD ISD Position 7                                 Manuel Luna                                                                                  01 
03450032074000068NON       EDGEWOOD ISD Position 7                                 Manuel Luna                                                                                  01 
03450032075000018NON       EDGEWOOD ISD Position 7                                 Manuel Luna                                                                                  01 
03450032089000019NON       EDGEWOOD ISD Position 7                                 Manuel Luna                                                                                  01 
03450032128000033NON       EDGEWOOD ISD Position 7                                 Manuel Luna                                                                                  01 
03450041013000000          EDGEWOOD ISD Position 7                                 OVER VOTES                                                                                   01 
03450041026000000          EDGEWOOD ISD Position 7                                 OVER VOTES                                                                                   01 
03450041027000000          EDGEWOOD ISD Position 7                                 OVER VOTES                                                                                   01 
03450041029000000          EDGEWOOD ISD Position 7                                 OVER VOTES                                                                                   01 
03450041030000000          EDGEWOOD ISD Position 7                                 OVER VOTES                                                                                   01 
03450041031000000          EDGEWOOD ISD Position 7                                 OVER VOTES                                                                                   01 
03450041032000000          EDGEWOOD ISD Position 7                                 OVER VOTES                                                                                   01 
03450041088000000          EDGEWOOD ISD Position 7                                 OVER VOTES                                                                                   01 
03450041090000000          EDGEWOOD ISD Position 7                                 OVER VOTES                                                                                   01 
03450041096000000          EDGEWOOD ISD Position 7                                 OVER VOTES                                                                                   01 
03450042011000000          EDGEWOOD ISD Position 7                                 OVER VOTES                                                                                   01 
03450042012000000          EDGEWOOD ISD Position 7                                 OVER VOTES                                                                                   01 
03450042015000000          EDGEWOOD ISD Position 7                                 OVER VOTES                                                                                   01 
03450042016000000          EDGEWOOD ISD Position 7                                 OVER VOTES                                                                                   01 
03450042017000000          EDGEWOOD ISD Position 7                                 OVER VOTES                                                                                   01 
03450042019000000          EDGEWOOD ISD Position 7                                 OVER VOTES                                                                                   01 
03450042020000000          EDGEWOOD ISD Position 7                                 OVER VOTES                                                                                   01 
03450042021000000          EDGEWOOD ISD Position 7                                 OVER VOTES                                                                                   01 
03450042022000000          EDGEWOOD ISD Position 7                                 OVER VOTES                                                                                   01 
03450042030000000          EDGEWOOD ISD Position 7                                 OVER VOTES                                                                                   01 
03450042043000000          EDGEWOOD ISD Position 7                                 OVER VOTES                                                                                   01 
03450042074000000          EDGEWOOD ISD Position 7                                 OVER VOTES                                                                                   01 
03450042075000000          EDGEWOOD ISD Position 7                                 OVER VOTES                                                                                   01 
03450042089000000          EDGEWOOD ISD Position 7                                 OVER VOTES                                                                                   01 
03450042128000000          EDGEWOOD ISD Position 7                                 OVER VOTES                                                                                   01 
03450051013000133          EDGEWOOD ISD Position 7                                 UNDER VOTES                                                                                  01 
03450051026000000          EDGEWOOD ISD Position 7                                 UNDER VOTES                                                                                  01 
03450051027000028          EDGEWOOD ISD Position 7                                 UNDER VOTES                                                                                  01 
03450051029000221          EDGEWOOD ISD Position 7                                 UNDER VOTES                                                                                  01 
03450051030000014          EDGEWOOD ISD Position 7                                 UNDER VOTES                                                                                  01 
03450051031000163          EDGEWOOD ISD Position 7                                 UNDER VOTES                                                                                  01 
03450051032000308          EDGEWOOD ISD Position 7                                 UNDER VOTES                                                                                  01 
03450051088000132          EDGEWOOD ISD Position 7                                 UNDER VOTES                                                                                  01 
03450051090000001          EDGEWOOD ISD Position 7                                 UNDER VOTES                                                                                  01 
03450051096000001          EDGEWOOD ISD Position 7                                 UNDER VOTES                                                                                  01 
03450052011000279          EDGEWOOD ISD Position 7                                 UNDER VOTES                                                                                  01 
03450052012000166          EDGEWOOD ISD Position 7                                 UNDER VOTES                                                                                  01 
03450052015000176          EDGEWOOD ISD Position 7                                 UNDER VOTES                                                                                  01 
03450052016000144          EDGEWOOD ISD Position 7                                 UNDER VOTES                                                                                  01 
03450052017000147          EDGEWOOD ISD Position 7                                 UNDER VOTES                                                                                  01 
03450052019000229          EDGEWOOD ISD Position 7                                 UNDER VOTES                                                                                  01 
03450052020000306          EDGEWOOD ISD Position 7                                 UNDER VOTES                                                                                  01 
03450052021000324          EDGEWOOD ISD Position 7                                 UNDER VOTES                                                                                  01 
03450052022000183          EDGEWOOD ISD Position 7                                 UNDER VOTES                                                                                  01 
03450052030000078          EDGEWOOD ISD Position 7                                 UNDER VOTES                                                                                  01 
03450052043000209          EDGEWOOD ISD Position 7                                 UNDER VOTES                                                                                  01 
03450052074000114          EDGEWOOD ISD Position 7                                 UNDER VOTES                                                                                  01 
03450052075000039          EDGEWOOD ISD Position 7                                 UNDER VOTES                                                                                  01 
03450052089000027          EDGEWOOD ISD Position 7                                 UNDER VOTES                                                                                  01 
03450052128000073          EDGEWOOD ISD Position 7                                 UNDER VOTES                                                                                  01 
