01010010001002444000000000000000000000000000000          REGISTERED VOTERS - TOTAL                               REGISTERED VOTERS - TOTAL             PRECINCT 101                                           00 
01010010002003411000000000000000000000000000000          REGISTERED VOTERS - TOTAL                               REGISTERED VOTERS - TOTAL             PRECINCT 102                                           00 
01010010003003434000000000000000000000000000000          REGISTERED VOTERS - TOTAL                               REGISTERED VOTERS - TOTAL             PRECINCT 103                                           00 
01010010004002212000000000000000000000000000000          REGISTERED VOTERS - TOTAL                               REGISTERED VOTERS - TOTAL             PRECINCT 104                                           00 
01010010005002526000000000000000000000000000000          REGISTERED VOTERS - TOTAL                               REGISTERED VOTERS - TOTAL             PRECINCT 105                                           00 
01010010006002497000000000000000000000000000000          REGISTERED VOTERS - TOTAL                               REGISTERED VOTERS - TOTAL             PRECINCT 106                                           00 
01010010007002299000000000000000000000000000000          REGISTERED VOTERS - TOTAL                               REGISTERED VOTERS - TOTAL             PRECINCT 107                                           00 
01010010008002119000000000000000000000000000000          REGISTERED VOTERS - TOTAL                               REGISTERED VOTERS - TOTAL             PRECINCT 108                                           00 
01010010009001867000000000000000000000000000000          REGISTERED VOTERS - TOTAL                               REGISTERED VOTERS - TOTAL             PRECINCT 109                                           00 
01010010010003239000000000000000000000000000000          REGISTERED VOTERS - TOTAL                               REGISTERED VOTERS - TOTAL             PRECINCT 110                                           00 
01010010011001075000000000000000000000000000000          REGISTERED VOTERS - TOTAL                               REGISTERED VOTERS - TOTAL             PRECINCT 111                                           00 
01010010012001409000000000000000000000000000000          REGISTERED VOTERS - TOTAL                               REGISTERED VOTERS - TOTAL             PRECINCT 112                                           00 
01010010013001589000000000000000000000000000000          REGISTERED VOTERS - TOTAL                               REGISTERED VOTERS - TOTAL             PRECINCT 113                                           00 
01010010014001499000000000000000000000000000000          REGISTERED VOTERS - TOTAL                               REGISTERED VOTERS - TOTAL             PRECINCT 114                                           00 
01010010015001470000000000000000000000000000000          REGISTERED VOTERS - TOTAL                               REGISTERED VOTERS - TOTAL             PRECINCT 115                                           00 
01010010016001836000000000000000000000000000000          REGISTERED VOTERS - TOTAL                               REGISTERED VOTERS - TOTAL             PRECINCT 116                                           00 
01010010017002586000000000000000000000000000000          REGISTERED VOTERS - TOTAL                               REGISTERED VOTERS - TOTAL             PRECINCT 117                                           00 
01010010018002402000000000000000000000000000000          REGISTERED VOTERS - TOTAL                               REGISTERED VOTERS - TOTAL             PRECINCT 118                                           00 
01010010019001296000000000000000000000000000000          REGISTERED VOTERS - TOTAL                               REGISTERED VOTERS - TOTAL             PRECINCT 119                                           00 
01010010020000530000000000000000000000000000000          REGISTERED VOTERS - TOTAL                               REGISTERED VOTERS - TOTAL             PRECINCT 120                                           00 
01010010021002053000000000000000000000000000000          REGISTERED VOTERS - TOTAL                               REGISTERED VOTERS - TOTAL             PRECINCT 121                                           00 
01010010022001132000000000000000000000000000000          REGISTERED VOTERS - TOTAL                               REGISTERED VOTERS - TOTAL             PRECINCT 122                                           00 
01010010023000983000000000000000000000000000000          REGISTERED VOTERS - TOTAL                               REGISTERED VOTERS - TOTAL             PRECINCT 123                                           00 
01010010024001518000000000000000000000000000000          REGISTERED VOTERS - TOTAL                               REGISTERED VOTERS - TOTAL             PRECINCT 124                                           00 
01010010025003301000000000000000000000000000000          REGISTERED VOTERS - TOTAL                               REGISTERED VOTERS - TOTAL             PRECINCT 125                                           00 
01010010026000949000000000000000000000000000000          REGISTERED VOTERS - TOTAL                               REGISTERED VOTERS - TOTAL             PRECINCT 126                                           00 
01010010027000435000000000000000000000000000000          REGISTERED VOTERS - TOTAL                               REGISTERED VOTERS - TOTAL             PRECINCT 127                                           00 
01010010028000207000000000000000000000000000000          REGISTERED VOTERS - TOTAL                               REGISTERED VOTERS - TOTAL             PRECINCT 128                                           00 
01010010029000747000000000000000000000000000000          REGISTERED VOTERS - TOTAL                               REGISTERED VOTERS - TOTAL             PRECINCT 129                                           00 
01010010030000641000000000000000000000000000000          REGISTERED VOTERS - TOTAL                               REGISTERED VOTERS - TOTAL             PRECINCT 130                                           00 
01010010031001702000000000000000000000000000000          REGISTERED VOTERS - TOTAL                               REGISTERED VOTERS - TOTAL             PRECINCT 131                                           00 
01010010032000553000000000000000000000000000000          REGISTERED VOTERS - TOTAL                               REGISTERED VOTERS - TOTAL             PRECINCT 132                                           00 
01010010033000492000000000000000000000000000000          REGISTERED VOTERS - TOTAL                               REGISTERED VOTERS - TOTAL             PRECINCT 133                                           00 
01010010034000565000000000000000000000000000000          REGISTERED VOTERS - TOTAL                               REGISTERED VOTERS - TOTAL             PRECINCT 134                                           00 
01010010035002916000000000000000000000000000000          REGISTERED VOTERS - TOTAL                               REGISTERED VOTERS - TOTAL             PRECINCT 135                                           00 
01010010036000462000000000000000000000000000000          REGISTERED VOTERS - TOTAL                               REGISTERED VOTERS - TOTAL             PRECINCT 136                                           00 
01010010037001055000000000000000000000000000000          REGISTERED VOTERS - TOTAL                               REGISTERED VOTERS - TOTAL             PRECINCT 137                                           00 
01010010038001673000000000000000000000000000000          REGISTERED VOTERS - TOTAL                               REGISTERED VOTERS - TOTAL             PRECINCT 138                                           00 
01010010039000920000000000000000000000000000000          REGISTERED VOTERS - TOTAL                               REGISTERED VOTERS - TOTAL             PRECINCT 139                                           00 
01010010040002525000000000000000000000000000000          REGISTERED VOTERS - TOTAL                               REGISTERED VOTERS - TOTAL             PRECINCT 140                                           00 
01010010041001390000000000000000000000000000000          REGISTERED VOTERS - TOTAL                               REGISTERED VOTERS - TOTAL             PRECINCT 141                                           00 
01010010042001939000000000000000000000000000000          REGISTERED VOTERS - TOTAL                               REGISTERED VOTERS - TOTAL             PRECINCT 142                                           00 
01010010043002476000000000000000000000000000000          REGISTERED VOTERS - TOTAL                               REGISTERED VOTERS - TOTAL             PRECINCT 143                                           00 
01010010044001391000000000000000000000000000000          REGISTERED VOTERS - TOTAL                               REGISTERED VOTERS - TOTAL             PRECINCT 144                                           00 
01010010045002845000000000000000000000000000000          REGISTERED VOTERS - TOTAL                               REGISTERED VOTERS - TOTAL             PRECINCT 145                                           00 
01010010046000000000000000000000000000000000000          REGISTERED VOTERS - TOTAL                               REGISTERED VOTERS - TOTAL             PRECINCT 146                                           00 
01010010047003449000000000000000000000000000000          REGISTERED VOTERS - TOTAL                               REGISTERED VOTERS - TOTAL             PRECINCT 147                                           00 
01010010048002442000000000000000000000000000000          REGISTERED VOTERS - TOTAL                               REGISTERED VOTERS - TOTAL             PRECINCT 148                                           00 
01010010049001283000000000000000000000000000000          REGISTERED VOTERS - TOTAL                               REGISTERED VOTERS - TOTAL             PRECINCT 149                                           00 
01020010001000000000000000000000000000000000000REP       REGISTERED VOTERS - REPUBLICAN PARTY                    REGISTERED VOTERS - REPUBLICAN PARTY  PRECINCT 101                                           00 
01020010002000000000000000000000000000000000000REP       REGISTERED VOTERS - REPUBLICAN PARTY                    REGISTERED VOTERS - REPUBLICAN PARTY  PRECINCT 102                                           00 
01020010003000000000000000000000000000000000000REP       REGISTERED VOTERS - REPUBLICAN PARTY                    REGISTERED VOTERS - REPUBLICAN PARTY  PRECINCT 103                                           00 
01020010004000000000000000000000000000000000000REP       REGISTERED VOTERS - REPUBLICAN PARTY                    REGISTERED VOTERS - REPUBLICAN PARTY  PRECINCT 104                                           00 
01020010005000000000000000000000000000000000000REP       REGISTERED VOTERS - REPUBLICAN PARTY                    REGISTERED VOTERS - REPUBLICAN PARTY  PRECINCT 105                                           00 
01020010006000000000000000000000000000000000000REP       REGISTERED VOTERS - REPUBLICAN PARTY                    REGISTERED VOTERS - REPUBLICAN PARTY  PRECINCT 106                                           00 
01020010007000000000000000000000000000000000000REP       REGISTERED VOTERS - REPUBLICAN PARTY                    REGISTERED VOTERS - REPUBLICAN PARTY  PRECINCT 107                                           00 
01020010008000000000000000000000000000000000000REP       REGISTERED VOTERS - REPUBLICAN PARTY                    REGISTERED VOTERS - REPUBLICAN PARTY  PRECINCT 108                                           00 
01020010009000000000000000000000000000000000000REP       REGISTERED VOTERS - REPUBLICAN PARTY                    REGISTERED VOTERS - REPUBLICAN PARTY  PRECINCT 109                                           00 
01020010010000000000000000000000000000000000000REP       REGISTERED VOTERS - REPUBLICAN PARTY                    REGISTERED VOTERS - REPUBLICAN PARTY  PRECINCT 110                                           00 
01020010011000000000000000000000000000000000000REP       REGISTERED VOTERS - REPUBLICAN PARTY                    REGISTERED VOTERS - REPUBLICAN PARTY  PRECINCT 111                                           00 
01020010012000000000000000000000000000000000000REP       REGISTERED VOTERS - REPUBLICAN PARTY                    REGISTERED VOTERS - REPUBLICAN PARTY  PRECINCT 112                                           00 
01020010013000000000000000000000000000000000000REP       REGISTERED VOTERS - REPUBLICAN PARTY                    REGISTERED VOTERS - REPUBLICAN PARTY  PRECINCT 113                                           00 
01020010014000000000000000000000000000000000000REP       REGISTERED VOTERS - REPUBLICAN PARTY                    REGISTERED VOTERS - REPUBLICAN PARTY  PRECINCT 114                                           00 
01020010015000000000000000000000000000000000000REP       REGISTERED VOTERS - REPUBLICAN PARTY                    REGISTERED VOTERS - REPUBLICAN PARTY  PRECINCT 115                                           00 
01020010016000000000000000000000000000000000000REP       REGISTERED VOTERS - REPUBLICAN PARTY                    REGISTERED VOTERS - REPUBLICAN PARTY  PRECINCT 116                                           00 
01020010017000000000000000000000000000000000000REP       REGISTERED VOTERS - REPUBLICAN PARTY                    REGISTERED VOTERS - REPUBLICAN PARTY  PRECINCT 117                                           00 
01020010018000000000000000000000000000000000000REP       REGISTERED VOTERS - REPUBLICAN PARTY                    REGISTERED VOTERS - REPUBLICAN PARTY  PRECINCT 118                                           00 
01020010019000000000000000000000000000000000000REP       REGISTERED VOTERS - REPUBLICAN PARTY                    REGISTERED VOTERS - REPUBLICAN PARTY  PRECINCT 119                                           00 
01020010020000000000000000000000000000000000000REP       REGISTERED VOTERS - REPUBLICAN PARTY                    REGISTERED VOTERS - REPUBLICAN PARTY  PRECINCT 120                                           00 
01020010021000000000000000000000000000000000000REP       REGISTERED VOTERS - REPUBLICAN PARTY                    REGISTERED VOTERS - REPUBLICAN PARTY  PRECINCT 121                                           00 
01020010022000000000000000000000000000000000000REP       REGISTERED VOTERS - REPUBLICAN PARTY                    REGISTERED VOTERS - REPUBLICAN PARTY  PRECINCT 122                                           00 
01020010023000000000000000000000000000000000000REP       REGISTERED VOTERS - REPUBLICAN PARTY                    REGISTERED VOTERS - REPUBLICAN PARTY  PRECINCT 123                                           00 
01020010024000000000000000000000000000000000000REP       REGISTERED VOTERS - REPUBLICAN PARTY                    REGISTERED VOTERS - REPUBLICAN PARTY  PRECINCT 124                                           00 
01020010025000000000000000000000000000000000000REP       REGISTERED VOTERS - REPUBLICAN PARTY                    REGISTERED VOTERS - REPUBLICAN PARTY  PRECINCT 125                                           00 
01020010026000000000000000000000000000000000000REP       REGISTERED VOTERS - REPUBLICAN PARTY                    REGISTERED VOTERS - REPUBLICAN PARTY  PRECINCT 126                                           00 
01020010027000000000000000000000000000000000000REP       REGISTERED VOTERS - REPUBLICAN PARTY                    REGISTERED VOTERS - REPUBLICAN PARTY  PRECINCT 127                                           00 
01020010028000000000000000000000000000000000000REP       REGISTERED VOTERS - REPUBLICAN PARTY                    REGISTERED VOTERS - REPUBLICAN PARTY  PRECINCT 128                                           00 
01020010029000000000000000000000000000000000000REP       REGISTERED VOTERS - REPUBLICAN PARTY                    REGISTERED VOTERS - REPUBLICAN PARTY  PRECINCT 129                                           00 
01020010030000000000000000000000000000000000000REP       REGISTERED VOTERS - REPUBLICAN PARTY                    REGISTERED VOTERS - REPUBLICAN PARTY  PRECINCT 130                                           00 
01020010031000000000000000000000000000000000000REP       REGISTERED VOTERS - REPUBLICAN PARTY                    REGISTERED VOTERS - REPUBLICAN PARTY  PRECINCT 131                                           00 
01020010032000000000000000000000000000000000000REP       REGISTERED VOTERS - REPUBLICAN PARTY                    REGISTERED VOTERS - REPUBLICAN PARTY  PRECINCT 132                                           00 
01020010033000000000000000000000000000000000000REP       REGISTERED VOTERS - REPUBLICAN PARTY                    REGISTERED VOTERS - REPUBLICAN PARTY  PRECINCT 133                                           00 
01020010034000000000000000000000000000000000000REP       REGISTERED VOTERS - REPUBLICAN PARTY                    REGISTERED VOTERS - REPUBLICAN PARTY  PRECINCT 134                                           00 
01020010035000000000000000000000000000000000000REP       REGISTERED VOTERS - REPUBLICAN PARTY                    REGISTERED VOTERS - REPUBLICAN PARTY  PRECINCT 135                                           00 
01020010036000000000000000000000000000000000000REP       REGISTERED VOTERS - REPUBLICAN PARTY                    REGISTERED VOTERS - REPUBLICAN PARTY  PRECINCT 136                                           00 
01020010037000000000000000000000000000000000000REP       REGISTERED VOTERS - REPUBLICAN PARTY                    REGISTERED VOTERS - REPUBLICAN PARTY  PRECINCT 137                                           00 
01020010038000000000000000000000000000000000000REP       REGISTERED VOTERS - REPUBLICAN PARTY                    REGISTERED VOTERS - REPUBLICAN PARTY  PRECINCT 138                                           00 
01020010039000000000000000000000000000000000000REP       REGISTERED VOTERS - REPUBLICAN PARTY                    REGISTERED VOTERS - REPUBLICAN PARTY  PRECINCT 139                                           00 
01020010040000000000000000000000000000000000000REP       REGISTERED VOTERS - REPUBLICAN PARTY                    REGISTERED VOTERS - REPUBLICAN PARTY  PRECINCT 140                                           00 
01020010041000000000000000000000000000000000000REP       REGISTERED VOTERS - REPUBLICAN PARTY                    REGISTERED VOTERS - REPUBLICAN PARTY  PRECINCT 141                                           00 
01020010042000000000000000000000000000000000000REP       REGISTERED VOTERS - REPUBLICAN PARTY                    REGISTERED VOTERS - REPUBLICAN PARTY  PRECINCT 142                                           00 
01020010043000000000000000000000000000000000000REP       REGISTERED VOTERS - REPUBLICAN PARTY                    REGISTERED VOTERS - REPUBLICAN PARTY  PRECINCT 143                                           00 
01020010044000000000000000000000000000000000000REP       REGISTERED VOTERS - REPUBLICAN PARTY                    REGISTERED VOTERS - REPUBLICAN PARTY  PRECINCT 144                                           00 
01020010045000000000000000000000000000000000000REP       REGISTERED VOTERS - REPUBLICAN PARTY                    REGISTERED VOTERS - REPUBLICAN PARTY  PRECINCT 145                                           00 
01020010046000000000000000000000000000000000000REP       REGISTERED VOTERS - REPUBLICAN PARTY                    REGISTERED VOTERS - REPUBLICAN PARTY  PRECINCT 146                                           00 
01020010047000000000000000000000000000000000000REP       REGISTERED VOTERS - REPUBLICAN PARTY                    REGISTERED VOTERS - REPUBLICAN PARTY  PRECINCT 147                                           00 
01020010048000000000000000000000000000000000000REP       REGISTERED VOTERS - REPUBLICAN PARTY                    REGISTERED VOTERS - REPUBLICAN PARTY  PRECINCT 148                                           00 
01020010049000000000000000000000000000000000000REP       REGISTERED VOTERS - REPUBLICAN PARTY                    REGISTERED VOTERS - REPUBLICAN PARTY  PRECINCT 149                                           00 
01030010001000000000000000000000000000000000000DEM       REGISTERED VOTERS - DEMOCRATIC PARTY                    REGISTERED VOTERS - DEMOCRATIC PARTY  PRECINCT 101                                           00 
01030010002000000000000000000000000000000000000DEM       REGISTERED VOTERS - DEMOCRATIC PARTY                    REGISTERED VOTERS - DEMOCRATIC PARTY  PRECINCT 102                                           00 
01030010003000000000000000000000000000000000000DEM       REGISTERED VOTERS - DEMOCRATIC PARTY                    REGISTERED VOTERS - DEMOCRATIC PARTY  PRECINCT 103                                           00 
01030010004000000000000000000000000000000000000DEM       REGISTERED VOTERS - DEMOCRATIC PARTY                    REGISTERED VOTERS - DEMOCRATIC PARTY  PRECINCT 104                                           00 
01030010005000000000000000000000000000000000000DEM       REGISTERED VOTERS - DEMOCRATIC PARTY                    REGISTERED VOTERS - DEMOCRATIC PARTY  PRECINCT 105                                           00 
01030010006000000000000000000000000000000000000DEM       REGISTERED VOTERS - DEMOCRATIC PARTY                    REGISTERED VOTERS - DEMOCRATIC PARTY  PRECINCT 106                                           00 
01030010007000000000000000000000000000000000000DEM       REGISTERED VOTERS - DEMOCRATIC PARTY                    REGISTERED VOTERS - DEMOCRATIC PARTY  PRECINCT 107                                           00 
01030010008000000000000000000000000000000000000DEM       REGISTERED VOTERS - DEMOCRATIC PARTY                    REGISTERED VOTERS - DEMOCRATIC PARTY  PRECINCT 108                                           00 
01030010009000000000000000000000000000000000000DEM       REGISTERED VOTERS - DEMOCRATIC PARTY                    REGISTERED VOTERS - DEMOCRATIC PARTY  PRECINCT 109                                           00 
01030010010000000000000000000000000000000000000DEM       REGISTERED VOTERS - DEMOCRATIC PARTY                    REGISTERED VOTERS - DEMOCRATIC PARTY  PRECINCT 110                                           00 
01030010011000000000000000000000000000000000000DEM       REGISTERED VOTERS - DEMOCRATIC PARTY                    REGISTERED VOTERS - DEMOCRATIC PARTY  PRECINCT 111                                           00 
01030010012000000000000000000000000000000000000DEM       REGISTERED VOTERS - DEMOCRATIC PARTY                    REGISTERED VOTERS - DEMOCRATIC PARTY  PRECINCT 112                                           00 
01030010013000000000000000000000000000000000000DEM       REGISTERED VOTERS - DEMOCRATIC PARTY                    REGISTERED VOTERS - DEMOCRATIC PARTY  PRECINCT 113                                           00 
01030010014000000000000000000000000000000000000DEM       REGISTERED VOTERS - DEMOCRATIC PARTY                    REGISTERED VOTERS - DEMOCRATIC PARTY  PRECINCT 114                                           00 
01030010015000000000000000000000000000000000000DEM       REGISTERED VOTERS - DEMOCRATIC PARTY                    REGISTERED VOTERS - DEMOCRATIC PARTY  PRECINCT 115                                           00 
01030010016000000000000000000000000000000000000DEM       REGISTERED VOTERS - DEMOCRATIC PARTY                    REGISTERED VOTERS - DEMOCRATIC PARTY  PRECINCT 116                                           00 
01030010017000000000000000000000000000000000000DEM       REGISTERED VOTERS - DEMOCRATIC PARTY                    REGISTERED VOTERS - DEMOCRATIC PARTY  PRECINCT 117                                           00 
01030010018000000000000000000000000000000000000DEM       REGISTERED VOTERS - DEMOCRATIC PARTY                    REGISTERED VOTERS - DEMOCRATIC PARTY  PRECINCT 118                                           00 
01030010019000000000000000000000000000000000000DEM       REGISTERED VOTERS - DEMOCRATIC PARTY                    REGISTERED VOTERS - DEMOCRATIC PARTY  PRECINCT 119                                           00 
01030010020000000000000000000000000000000000000DEM       REGISTERED VOTERS - DEMOCRATIC PARTY                    REGISTERED VOTERS - DEMOCRATIC PARTY  PRECINCT 120                                           00 
01030010021000000000000000000000000000000000000DEM       REGISTERED VOTERS - DEMOCRATIC PARTY                    REGISTERED VOTERS - DEMOCRATIC PARTY  PRECINCT 121                                           00 
01030010022000000000000000000000000000000000000DEM       REGISTERED VOTERS - DEMOCRATIC PARTY                    REGISTERED VOTERS - DEMOCRATIC PARTY  PRECINCT 122                                           00 
01030010023000000000000000000000000000000000000DEM       REGISTERED VOTERS - DEMOCRATIC PARTY                    REGISTERED VOTERS - DEMOCRATIC PARTY  PRECINCT 123                                           00 
01030010024000000000000000000000000000000000000DEM       REGISTERED VOTERS - DEMOCRATIC PARTY                    REGISTERED VOTERS - DEMOCRATIC PARTY  PRECINCT 124                                           00 
01030010025000000000000000000000000000000000000DEM       REGISTERED VOTERS - DEMOCRATIC PARTY                    REGISTERED VOTERS - DEMOCRATIC PARTY  PRECINCT 125                                           00 
01030010026000000000000000000000000000000000000DEM       REGISTERED VOTERS - DEMOCRATIC PARTY                    REGISTERED VOTERS - DEMOCRATIC PARTY  PRECINCT 126                                           00 
01030010027000000000000000000000000000000000000DEM       REGISTERED VOTERS - DEMOCRATIC PARTY                    REGISTERED VOTERS - DEMOCRATIC PARTY  PRECINCT 127                                           00 
01030010028000000000000000000000000000000000000DEM       REGISTERED VOTERS - DEMOCRATIC PARTY                    REGISTERED VOTERS - DEMOCRATIC PARTY  PRECINCT 128                                           00 
01030010029000000000000000000000000000000000000DEM       REGISTERED VOTERS - DEMOCRATIC PARTY                    REGISTERED VOTERS - DEMOCRATIC PARTY  PRECINCT 129                                           00 
01030010030000000000000000000000000000000000000DEM       REGISTERED VOTERS - DEMOCRATIC PARTY                    REGISTERED VOTERS - DEMOCRATIC PARTY  PRECINCT 130                                           00 
01030010031000000000000000000000000000000000000DEM       REGISTERED VOTERS - DEMOCRATIC PARTY                    REGISTERED VOTERS - DEMOCRATIC PARTY  PRECINCT 131                                           00 
01030010032000000000000000000000000000000000000DEM       REGISTERED VOTERS - DEMOCRATIC PARTY                    REGISTERED VOTERS - DEMOCRATIC PARTY  PRECINCT 132                                           00 
01030010033000000000000000000000000000000000000DEM       REGISTERED VOTERS - DEMOCRATIC PARTY                    REGISTERED VOTERS - DEMOCRATIC PARTY  PRECINCT 133                                           00 
01030010034000000000000000000000000000000000000DEM       REGISTERED VOTERS - DEMOCRATIC PARTY                    REGISTERED VOTERS - DEMOCRATIC PARTY  PRECINCT 134                                           00 
01030010035000000000000000000000000000000000000DEM       REGISTERED VOTERS - DEMOCRATIC PARTY                    REGISTERED VOTERS - DEMOCRATIC PARTY  PRECINCT 135                                           00 
01030010036000000000000000000000000000000000000DEM       REGISTERED VOTERS - DEMOCRATIC PARTY                    REGISTERED VOTERS - DEMOCRATIC PARTY  PRECINCT 136                                           00 
01030010037000000000000000000000000000000000000DEM       REGISTERED VOTERS - DEMOCRATIC PARTY                    REGISTERED VOTERS - DEMOCRATIC PARTY  PRECINCT 137                                           00 
01030010038000000000000000000000000000000000000DEM       REGISTERED VOTERS - DEMOCRATIC PARTY                    REGISTERED VOTERS - DEMOCRATIC PARTY  PRECINCT 138                                           00 
01030010039000000000000000000000000000000000000DEM       REGISTERED VOTERS - DEMOCRATIC PARTY                    REGISTERED VOTERS - DEMOCRATIC PARTY  PRECINCT 139                                           00 
01030010040000000000000000000000000000000000000DEM       REGISTERED VOTERS - DEMOCRATIC PARTY                    REGISTERED VOTERS - DEMOCRATIC PARTY  PRECINCT 140                                           00 
01030010041000000000000000000000000000000000000DEM       REGISTERED VOTERS - DEMOCRATIC PARTY                    REGISTERED VOTERS - DEMOCRATIC PARTY  PRECINCT 141                                           00 
01030010042000000000000000000000000000000000000DEM       REGISTERED VOTERS - DEMOCRATIC PARTY                    REGISTERED VOTERS - DEMOCRATIC PARTY  PRECINCT 142                                           00 
01030010043000000000000000000000000000000000000DEM       REGISTERED VOTERS - DEMOCRATIC PARTY                    REGISTERED VOTERS - DEMOCRATIC PARTY  PRECINCT 143                                           00 
01030010044000000000000000000000000000000000000DEM       REGISTERED VOTERS - DEMOCRATIC PARTY                    REGISTERED VOTERS - DEMOCRATIC PARTY  PRECINCT 144                                           00 
01030010045000000000000000000000000000000000000DEM       REGISTERED VOTERS - DEMOCRATIC PARTY                    REGISTERED VOTERS - DEMOCRATIC PARTY  PRECINCT 145                                           00 
01030010046000000000000000000000000000000000000DEM       REGISTERED VOTERS - DEMOCRATIC PARTY                    REGISTERED VOTERS - DEMOCRATIC PARTY  PRECINCT 146                                           00 
01030010047000000000000000000000000000000000000DEM       REGISTERED VOTERS - DEMOCRATIC PARTY                    REGISTERED VOTERS - DEMOCRATIC PARTY  PRECINCT 147                                           00 
01030010048000000000000000000000000000000000000DEM       REGISTERED VOTERS - DEMOCRATIC PARTY                    REGISTERED VOTERS - DEMOCRATIC PARTY  PRECINCT 148                                           00 
01030010049000000000000000000000000000000000000DEM       REGISTERED VOTERS - DEMOCRATIC PARTY                    REGISTERED VOTERS - DEMOCRATIC PARTY  PRECINCT 149                                           00 
01040010001000388000210000178000000000000000000          BALLOTS CAST - TOTAL                                    BALLOTS CAST - TOTAL                  PRECINCT 101                                           00 
01040010002000534000284000250000000000000000000          BALLOTS CAST - TOTAL                                    BALLOTS CAST - TOTAL                  PRECINCT 102                                           00 
01040010003000444000242000202000000000000000000          BALLOTS CAST - TOTAL                                    BALLOTS CAST - TOTAL                  PRECINCT 103                                           00 
01040010004000447000250000197000000000000000000          BALLOTS CAST - TOTAL                                    BALLOTS CAST - TOTAL                  PRECINCT 104                                           00 
01040010005000561000318000243000000000000000000          BALLOTS CAST - TOTAL                                    BALLOTS CAST - TOTAL                  PRECINCT 105                                           00 
01040010006000509000256000253000000000000000000          BALLOTS CAST - TOTAL                                    BALLOTS CAST - TOTAL                  PRECINCT 106                                           00 
01040010007000468000181000287000000000000000000          BALLOTS CAST - TOTAL                                    BALLOTS CAST - TOTAL                  PRECINCT 107                                           00 
01040010008000459000160000299000000000000000000          BALLOTS CAST - TOTAL                                    BALLOTS CAST - TOTAL                  PRECINCT 108                                           00 
01040010009000417000159000258000000000000000000          BALLOTS CAST - TOTAL                                    BALLOTS CAST - TOTAL                  PRECINCT 109                                           00 
01040010010000550000225000325000000000000000000          BALLOTS CAST - TOTAL                                    BALLOTS CAST - TOTAL                  PRECINCT 110                                           00 
01040010011000337000190000147000000000000000000          BALLOTS CAST - TOTAL                                    BALLOTS CAST - TOTAL                  PRECINCT 111                                           00 
01040010012000321000174000147000000000000000000          BALLOTS CAST - TOTAL                                    BALLOTS CAST - TOTAL                  PRECINCT 112                                           00 
01040010013000228000089000139000000000000000000          BALLOTS CAST - TOTAL                                    BALLOTS CAST - TOTAL                  PRECINCT 113                                           00 
01040010014000264000145000119000000000000000000          BALLOTS CAST - TOTAL                                    BALLOTS CAST - TOTAL                  PRECINCT 114                                           00 
01040010015000285000151000134000000000000000000          BALLOTS CAST - TOTAL                                    BALLOTS CAST - TOTAL                  PRECINCT 115                                           00 
01040010016000381000187000194000000000000000000          BALLOTS CAST - TOTAL                                    BALLOTS CAST - TOTAL                  PRECINCT 116                                           00 
01040010017000480000255000225000000000000000000          BALLOTS CAST - TOTAL                                    BALLOTS CAST - TOTAL                  PRECINCT 117                                           00 
01040010018000595000385000210000000000000000000          BALLOTS CAST - TOTAL                                    BALLOTS CAST - TOTAL                  PRECINCT 118                                           00 
01040010019000251000158000093000000000000000000          BALLOTS CAST - TOTAL                                    BALLOTS CAST - TOTAL                  PRECINCT 119                                           00 
01040010020000073000037000036000000000000000000          BALLOTS CAST - TOTAL                                    BALLOTS CAST - TOTAL                  PRECINCT 120                                           00 
01040010021000412000184000228000000000000000000          BALLOTS CAST - TOTAL                                    BALLOTS CAST - TOTAL                  PRECINCT 121                                           00 
01040010022000271000132000139000000000000000000          BALLOTS CAST - TOTAL                                    BALLOTS CAST - TOTAL                  PRECINCT 122                                           00 
01040010023000068000023000045000000000000000000          BALLOTS CAST - TOTAL                                    BALLOTS CAST - TOTAL                  PRECINCT 123                                           00 
01040010024000119000047000072000000000000000000          BALLOTS CAST - TOTAL                                    BALLOTS CAST - TOTAL                  PRECINCT 124                                           00 
01040010025000536000242000294000000000000000000          BALLOTS CAST - TOTAL                                    BALLOTS CAST - TOTAL                  PRECINCT 125                                           00 
01040010026000143000077000066000000000000000000          BALLOTS CAST - TOTAL                                    BALLOTS CAST - TOTAL                  PRECINCT 126                                           00 
01040010027000065000033000032000000000000000000          BALLOTS CAST - TOTAL                                    BALLOTS CAST - TOTAL                  PRECINCT 127                                           00 
01040010028000011000006000005000000000000000000          BALLOTS CAST - TOTAL                                    BALLOTS CAST - TOTAL                  PRECINCT 128                                           00 
01040010029000137000035000102000000000000000000          BALLOTS CAST - TOTAL                                    BALLOTS CAST - TOTAL                  PRECINCT 129                                           00 
01040010030000111000024000087000000000000000000          BALLOTS CAST - TOTAL                                    BALLOTS CAST - TOTAL                  PRECINCT 130                                           00 
01040010031000294000087000207000000000000000000          BALLOTS CAST - TOTAL                                    BALLOTS CAST - TOTAL                  PRECINCT 131                                           00 
01040010032000097000036000000000061000000000000          BALLOTS CAST - TOTAL                                    BALLOTS CAST - TOTAL                  PRECINCT 132                                           00 
01040010033000096000041000055000000000000000000          BALLOTS CAST - TOTAL                                    BALLOTS CAST - TOTAL                  PRECINCT 133                                           00 
01040010034000172000109000063000000000000000000          BALLOTS CAST - TOTAL                                    BALLOTS CAST - TOTAL                  PRECINCT 134                                           00 
01040010035000580000205000375000000000000000000          BALLOTS CAST - TOTAL                                    BALLOTS CAST - TOTAL                  PRECINCT 135                                           00 
01040010036000100000045000055000000000000000000          BALLOTS CAST - TOTAL                                    BALLOTS CAST - TOTAL                  PRECINCT 136                                           00 
01040010037000296000078000218000000000000000000          BALLOTS CAST - TOTAL                                    BALLOTS CAST - TOTAL                  PRECINCT 137                                           00 
01040010038000261000067000194000000000000000000          BALLOTS CAST - TOTAL                                    BALLOTS CAST - TOTAL                  PRECINCT 138                                           00 
01040010039000248000126000122000000000000000000          BALLOTS CAST - TOTAL                                    BALLOTS CAST - TOTAL                  PRECINCT 139                                           00 
01040010040000536000288000248000000000000000000          BALLOTS CAST - TOTAL                                    BALLOTS CAST - TOTAL                  PRECINCT 140                                           00 
01040010041000290000117000173000000000000000000          BALLOTS CAST - TOTAL                                    BALLOTS CAST - TOTAL                  PRECINCT 141                                           00 
01040010042000304000105000199000000000000000000          BALLOTS CAST - TOTAL                                    BALLOTS CAST - TOTAL                  PRECINCT 142                                           00 
01040010043000434000202000000000232000000000000          BALLOTS CAST - TOTAL                                    BALLOTS CAST - TOTAL                  PRECINCT 143                                           00 
01040010044000188000082000106000000000000000000          BALLOTS CAST - TOTAL                                    BALLOTS CAST - TOTAL                  PRECINCT 144                                           00 
01040010045000323000152000171000000000000000000          BALLOTS CAST - TOTAL                                    BALLOTS CAST - TOTAL                  PRECINCT 145                                           00 
01040010046000328000150000178000000000000000000          BALLOTS CAST - TOTAL                                    BALLOTS CAST - TOTAL                  PRECINCT 146                                           00 
01040010047000500000201000299000000000000000000          BALLOTS CAST - TOTAL                                    BALLOTS CAST - TOTAL                  PRECINCT 147                                           00 
01040010048000287000114000173000000000000000000          BALLOTS CAST - TOTAL                                    BALLOTS CAST - TOTAL                  PRECINCT 148                                           00 
01040010049000186000065000121000000000000000000          BALLOTS CAST - TOTAL                                    BALLOTS CAST - TOTAL                  PRECINCT 149                                           00 
01050010001000357000191000166000000000000000000REP       BALLOTS CAST - REPUBLICAN PARTY                         BALLOTS CAST - REPUBLICAN PARTY       PRECINCT 101                                           00 
01050010002000509000269000240000000000000000000REP       BALLOTS CAST - REPUBLICAN PARTY                         BALLOTS CAST - REPUBLICAN PARTY       PRECINCT 102                                           00 
01050010003000429000235000194000000000000000000REP       BALLOTS CAST - REPUBLICAN PARTY                         BALLOTS CAST - REPUBLICAN PARTY       PRECINCT 103                                           00 
01050010004000423000242000181000000000000000000REP       BALLOTS CAST - REPUBLICAN PARTY                         BALLOTS CAST - REPUBLICAN PARTY       PRECINCT 104                                           00 
01050010005000545000309000236000000000000000000REP       BALLOTS CAST - REPUBLICAN PARTY                         BALLOTS CAST - REPUBLICAN PARTY       PRECINCT 105                                           00 
01050010006000497000246000251000000000000000000REP       BALLOTS CAST - REPUBLICAN PARTY                         BALLOTS CAST - REPUBLICAN PARTY       PRECINCT 106                                           00 
01050010007000436000170000266000000000000000000REP       BALLOTS CAST - REPUBLICAN PARTY                         BALLOTS CAST - REPUBLICAN PARTY       PRECINCT 107                                           00 
01050010008000416000148000268000000000000000000REP       BALLOTS CAST - REPUBLICAN PARTY                         BALLOTS CAST - REPUBLICAN PARTY       PRECINCT 108                                           00 
01050010009000386000143000243000000000000000000REP       BALLOTS CAST - REPUBLICAN PARTY                         BALLOTS CAST - REPUBLICAN PARTY       PRECINCT 109                                           00 
01050010010000474000207000267000000000000000000REP       BALLOTS CAST - REPUBLICAN PARTY                         BALLOTS CAST - REPUBLICAN PARTY       PRECINCT 110                                           00 
01050010011000323000184000139000000000000000000REP       BALLOTS CAST - REPUBLICAN PARTY                         BALLOTS CAST - REPUBLICAN PARTY       PRECINCT 111                                           00 
01050010012000299000162000137000000000000000000REP       BALLOTS CAST - REPUBLICAN PARTY                         BALLOTS CAST - REPUBLICAN PARTY       PRECINCT 112                                           00 
01050010013000032000009000023000000000000000000REP       BALLOTS CAST - REPUBLICAN PARTY                         BALLOTS CAST - REPUBLICAN PARTY       PRECINCT 113                                           00 
01050010014000225000124000101000000000000000000REP       BALLOTS CAST - REPUBLICAN PARTY                         BALLOTS CAST - REPUBLICAN PARTY       PRECINCT 114                                           00 
01050010015000228000129000099000000000000000000REP       BALLOTS CAST - REPUBLICAN PARTY                         BALLOTS CAST - REPUBLICAN PARTY       PRECINCT 115                                           00 
01050010016000352000175000177000000000000000000REP       BALLOTS CAST - REPUBLICAN PARTY                         BALLOTS CAST - REPUBLICAN PARTY       PRECINCT 116                                           00 
01050010017000444000238000206000000000000000000REP       BALLOTS CAST - REPUBLICAN PARTY                         BALLOTS CAST - REPUBLICAN PARTY       PRECINCT 117                                           00 
01050010018000534000356000178000000000000000000REP       BALLOTS CAST - REPUBLICAN PARTY                         BALLOTS CAST - REPUBLICAN PARTY       PRECINCT 118                                           00 
01050010019000221000143000078000000000000000000REP       BALLOTS CAST - REPUBLICAN PARTY                         BALLOTS CAST - REPUBLICAN PARTY       PRECINCT 119                                           00 
01050010020000069000033000036000000000000000000REP       BALLOTS CAST - REPUBLICAN PARTY                         BALLOTS CAST - REPUBLICAN PARTY       PRECINCT 120                                           00 
01050010021000374000167000207000000000000000000REP       BALLOTS CAST - REPUBLICAN PARTY                         BALLOTS CAST - REPUBLICAN PARTY       PRECINCT 121                                           00 
01050010022000250000119000131000000000000000000REP       BALLOTS CAST - REPUBLICAN PARTY                         BALLOTS CAST - REPUBLICAN PARTY       PRECINCT 122                                           00 
01050010023000011000005000006000000000000000000REP       BALLOTS CAST - REPUBLICAN PARTY                         BALLOTS CAST - REPUBLICAN PARTY       PRECINCT 123                                           00 
01050010024000059000031000028000000000000000000REP       BALLOTS CAST - REPUBLICAN PARTY                         BALLOTS CAST - REPUBLICAN PARTY       PRECINCT 124                                           00 
01050010025000475000216000259000000000000000000REP       BALLOTS CAST - REPUBLICAN PARTY                         BALLOTS CAST - REPUBLICAN PARTY       PRECINCT 125                                           00 
01050010026000126000068000058000000000000000000REP       BALLOTS CAST - REPUBLICAN PARTY                         BALLOTS CAST - REPUBLICAN PARTY       PRECINCT 126                                           00 
01050010027000057000027000030000000000000000000REP       BALLOTS CAST - REPUBLICAN PARTY                         BALLOTS CAST - REPUBLICAN PARTY       PRECINCT 127                                           00 
01050010028000007000003000004000000000000000000REP       BALLOTS CAST - REPUBLICAN PARTY                         BALLOTS CAST - REPUBLICAN PARTY       PRECINCT 128                                           00 
01050010029000112000030000082000000000000000000REP       BALLOTS CAST - REPUBLICAN PARTY                         BALLOTS CAST - REPUBLICAN PARTY       PRECINCT 129                                           00 
01050010030000089000023000066000000000000000000REP       BALLOTS CAST - REPUBLICAN PARTY                         BALLOTS CAST - REPUBLICAN PARTY       PRECINCT 130                                           00 
01050010031000267000079000188000000000000000000REP       BALLOTS CAST - REPUBLICAN PARTY                         BALLOTS CAST - REPUBLICAN PARTY       PRECINCT 131                                           00 
01050010032000092000034000000000058000000000000REP       BALLOTS CAST - REPUBLICAN PARTY                         BALLOTS CAST - REPUBLICAN PARTY       PRECINCT 132                                           00 
01050010033000090000040000050000000000000000000REP       BALLOTS CAST - REPUBLICAN PARTY                         BALLOTS CAST - REPUBLICAN PARTY       PRECINCT 133                                           00 
01050010034000167000107000060000000000000000000REP       BALLOTS CAST - REPUBLICAN PARTY                         BALLOTS CAST - REPUBLICAN PARTY       PRECINCT 134                                           00 
01050010035000548000196000352000000000000000000REP       BALLOTS CAST - REPUBLICAN PARTY                         BALLOTS CAST - REPUBLICAN PARTY       PRECINCT 135                                           00 
01050010036000087000041000046000000000000000000REP       BALLOTS CAST - REPUBLICAN PARTY                         BALLOTS CAST - REPUBLICAN PARTY       PRECINCT 136                                           00 
01050010037000269000072000197000000000000000000REP       BALLOTS CAST - REPUBLICAN PARTY                         BALLOTS CAST - REPUBLICAN PARTY       PRECINCT 137                                           00 
01050010038000241000065000176000000000000000000REP       BALLOTS CAST - REPUBLICAN PARTY                         BALLOTS CAST - REPUBLICAN PARTY       PRECINCT 138                                           00 
01050010039000234000121000113000000000000000000REP       BALLOTS CAST - REPUBLICAN PARTY                         BALLOTS CAST - REPUBLICAN PARTY       PRECINCT 139                                           00 
01050010040000490000267000223000000000000000000REP       BALLOTS CAST - REPUBLICAN PARTY                         BALLOTS CAST - REPUBLICAN PARTY       PRECINCT 140                                           00 
01050010041000269000110000159000000000000000000REP       BALLOTS CAST - REPUBLICAN PARTY                         BALLOTS CAST - REPUBLICAN PARTY       PRECINCT 141                                           00 
01050010042000278000094000184000000000000000000REP       BALLOTS CAST - REPUBLICAN PARTY                         BALLOTS CAST - REPUBLICAN PARTY       PRECINCT 142                                           00 
01050010043000400000189000000000211000000000000REP       BALLOTS CAST - REPUBLICAN PARTY                         BALLOTS CAST - REPUBLICAN PARTY       PRECINCT 143                                           00 
01050010044000134000059000075000000000000000000REP       BALLOTS CAST - REPUBLICAN PARTY                         BALLOTS CAST - REPUBLICAN PARTY       PRECINCT 144                                           00 
01050010045000274000128000146000000000000000000REP       BALLOTS CAST - REPUBLICAN PARTY                         BALLOTS CAST - REPUBLICAN PARTY       PRECINCT 145                                           00 
01050010046000287000134000153000000000000000000REP       BALLOTS CAST - REPUBLICAN PARTY                         BALLOTS CAST - REPUBLICAN PARTY       PRECINCT 146                                           00 
01050010047000436000180000256000000000000000000REP       BALLOTS CAST - REPUBLICAN PARTY                         BALLOTS CAST - REPUBLICAN PARTY       PRECINCT 147                                           00 
01050010048000245000100000145000000000000000000REP       BALLOTS CAST - REPUBLICAN PARTY                         BALLOTS CAST - REPUBLICAN PARTY       PRECINCT 148                                           00 
01050010049000159000053000106000000000000000000REP       BALLOTS CAST - REPUBLICAN PARTY                         BALLOTS CAST - REPUBLICAN PARTY       PRECINCT 149                                           00 
01060010001000031000019000012000000000000000000DEM       BALLOTS CAST - DEMOCRATIC PARTY                         BALLOTS CAST - DEMOCRATIC PARTY       PRECINCT 101                                           00 
01060010002000025000015000010000000000000000000DEM       BALLOTS CAST - DEMOCRATIC PARTY                         BALLOTS CAST - DEMOCRATIC PARTY       PRECINCT 102                                           00 
01060010003000015000007000008000000000000000000DEM       BALLOTS CAST - DEMOCRATIC PARTY                         BALLOTS CAST - DEMOCRATIC PARTY       PRECINCT 103                                           00 
01060010004000024000008000016000000000000000000DEM       BALLOTS CAST - DEMOCRATIC PARTY                         BALLOTS CAST - DEMOCRATIC PARTY       PRECINCT 104                                           00 
01060010005000016000009000007000000000000000000DEM       BALLOTS CAST - DEMOCRATIC PARTY                         BALLOTS CAST - DEMOCRATIC PARTY       PRECINCT 105                                           00 
01060010006000012000010000002000000000000000000DEM       BALLOTS CAST - DEMOCRATIC PARTY                         BALLOTS CAST - DEMOCRATIC PARTY       PRECINCT 106                                           00 
01060010007000032000011000021000000000000000000DEM       BALLOTS CAST - DEMOCRATIC PARTY                         BALLOTS CAST - DEMOCRATIC PARTY       PRECINCT 107                                           00 
01060010008000043000012000031000000000000000000DEM       BALLOTS CAST - DEMOCRATIC PARTY                         BALLOTS CAST - DEMOCRATIC PARTY       PRECINCT 108                                           00 
01060010009000031000016000015000000000000000000DEM       BALLOTS CAST - DEMOCRATIC PARTY                         BALLOTS CAST - DEMOCRATIC PARTY       PRECINCT 109                                           00 
01060010010000076000018000058000000000000000000DEM       BALLOTS CAST - DEMOCRATIC PARTY                         BALLOTS CAST - DEMOCRATIC PARTY       PRECINCT 110                                           00 
01060010011000014000006000008000000000000000000DEM       BALLOTS CAST - DEMOCRATIC PARTY                         BALLOTS CAST - DEMOCRATIC PARTY       PRECINCT 111                                           00 
01060010012000022000012000010000000000000000000DEM       BALLOTS CAST - DEMOCRATIC PARTY                         BALLOTS CAST - DEMOCRATIC PARTY       PRECINCT 112                                           00 
01060010013000196000080000116000000000000000000DEM       BALLOTS CAST - DEMOCRATIC PARTY                         BALLOTS CAST - DEMOCRATIC PARTY       PRECINCT 113                                           00 
01060010014000039000021000018000000000000000000DEM       BALLOTS CAST - DEMOCRATIC PARTY                         BALLOTS CAST - DEMOCRATIC PARTY       PRECINCT 114                                           00 
01060010015000057000022000035000000000000000000DEM       BALLOTS CAST - DEMOCRATIC PARTY                         BALLOTS CAST - DEMOCRATIC PARTY       PRECINCT 115                                           00 
01060010016000029000012000017000000000000000000DEM       BALLOTS CAST - DEMOCRATIC PARTY                         BALLOTS CAST - DEMOCRATIC PARTY       PRECINCT 116                                           00 
01060010017000036000017000019000000000000000000DEM       BALLOTS CAST - DEMOCRATIC PARTY                         BALLOTS CAST - DEMOCRATIC PARTY       PRECINCT 117                                           00 
01060010018000061000029000032000000000000000000DEM       BALLOTS CAST - DEMOCRATIC PARTY                         BALLOTS CAST - DEMOCRATIC PARTY       PRECINCT 118                                           00 
01060010019000030000015000015000000000000000000DEM       BALLOTS CAST - DEMOCRATIC PARTY                         BALLOTS CAST - DEMOCRATIC PARTY       PRECINCT 119                                           00 
01060010020000004000004000000000000000000000000DEM       BALLOTS CAST - DEMOCRATIC PARTY                         BALLOTS CAST - DEMOCRATIC PARTY       PRECINCT 120                                           00 
01060010021000038000017000021000000000000000000DEM       BALLOTS CAST - DEMOCRATIC PARTY                         BALLOTS CAST - DEMOCRATIC PARTY       PRECINCT 121                                           00 
01060010022000021000013000008000000000000000000DEM       BALLOTS CAST - DEMOCRATIC PARTY                         BALLOTS CAST - DEMOCRATIC PARTY       PRECINCT 122                                           00 
01060010023000057000018000039000000000000000000DEM       BALLOTS CAST - DEMOCRATIC PARTY                         BALLOTS CAST - DEMOCRATIC PARTY       PRECINCT 123                                           00 
01060010024000060000016000044000000000000000000DEM       BALLOTS CAST - DEMOCRATIC PARTY                         BALLOTS CAST - DEMOCRATIC PARTY       PRECINCT 124                                           00 
01060010025000061000026000035000000000000000000DEM       BALLOTS CAST - DEMOCRATIC PARTY                         BALLOTS CAST - DEMOCRATIC PARTY       PRECINCT 125                                           00 
01060010026000017000009000008000000000000000000DEM       BALLOTS CAST - DEMOCRATIC PARTY                         BALLOTS CAST - DEMOCRATIC PARTY       PRECINCT 126                                           00 
01060010027000008000006000002000000000000000000DEM       BALLOTS CAST - DEMOCRATIC PARTY                         BALLOTS CAST - DEMOCRATIC PARTY       PRECINCT 127                                           00 
01060010028000004000003000001000000000000000000DEM       BALLOTS CAST - DEMOCRATIC PARTY                         BALLOTS CAST - DEMOCRATIC PARTY       PRECINCT 128                                           00 
01060010029000025000005000020000000000000000000DEM       BALLOTS CAST - DEMOCRATIC PARTY                         BALLOTS CAST - DEMOCRATIC PARTY       PRECINCT 129                                           00 
01060010030000022000001000021000000000000000000DEM       BALLOTS CAST - DEMOCRATIC PARTY                         BALLOTS CAST - DEMOCRATIC PARTY       PRECINCT 130                                           00 
01060010031000027000008000019000000000000000000DEM       BALLOTS CAST - DEMOCRATIC PARTY                         BALLOTS CAST - DEMOCRATIC PARTY       PRECINCT 131                                           00 
01060010032000005000002000000000003000000000000DEM       BALLOTS CAST - DEMOCRATIC PARTY                         BALLOTS CAST - DEMOCRATIC PARTY       PRECINCT 132                                           00 
01060010033000006000001000005000000000000000000DEM       BALLOTS CAST - DEMOCRATIC PARTY                         BALLOTS CAST - DEMOCRATIC PARTY       PRECINCT 133                                           00 
01060010034000005000002000003000000000000000000DEM       BALLOTS CAST - DEMOCRATIC PARTY                         BALLOTS CAST - DEMOCRATIC PARTY       PRECINCT 134                                           00 
01060010035000032000009000023000000000000000000DEM       BALLOTS CAST - DEMOCRATIC PARTY                         BALLOTS CAST - DEMOCRATIC PARTY       PRECINCT 135                                           00 
01060010036000013000004000009000000000000000000DEM       BALLOTS CAST - DEMOCRATIC PARTY                         BALLOTS CAST - DEMOCRATIC PARTY       PRECINCT 136                                           00 
01060010037000027000006000021000000000000000000DEM       BALLOTS CAST - DEMOCRATIC PARTY                         BALLOTS CAST - DEMOCRATIC PARTY       PRECINCT 137                                           00 
01060010038000020000002000018000000000000000000DEM       BALLOTS CAST - DEMOCRATIC PARTY                         BALLOTS CAST - DEMOCRATIC PARTY       PRECINCT 138                                           00 
01060010039000014000005000009000000000000000000DEM       BALLOTS CAST - DEMOCRATIC PARTY                         BALLOTS CAST - DEMOCRATIC PARTY       PRECINCT 139                                           00 
01060010040000046000021000025000000000000000000DEM       BALLOTS CAST - DEMOCRATIC PARTY                         BALLOTS CAST - DEMOCRATIC PARTY       PRECINCT 140                                           00 
01060010041000021000007000014000000000000000000DEM       BALLOTS CAST - DEMOCRATIC PARTY                         BALLOTS CAST - DEMOCRATIC PARTY       PRECINCT 141                                           00 
01060010042000026000011000015000000000000000000DEM       BALLOTS CAST - DEMOCRATIC PARTY                         BALLOTS CAST - DEMOCRATIC PARTY       PRECINCT 142                                           00 
01060010043000034000013000000000021000000000000DEM       BALLOTS CAST - DEMOCRATIC PARTY                         BALLOTS CAST - DEMOCRATIC PARTY       PRECINCT 143                                           00 
01060010044000054000023000031000000000000000000DEM       BALLOTS CAST - DEMOCRATIC PARTY                         BALLOTS CAST - DEMOCRATIC PARTY       PRECINCT 144                                           00 
01060010045000049000024000025000000000000000000DEM       BALLOTS CAST - DEMOCRATIC PARTY                         BALLOTS CAST - DEMOCRATIC PARTY       PRECINCT 145                                           00 
01060010046000041000016000025000000000000000000DEM       BALLOTS CAST - DEMOCRATIC PARTY                         BALLOTS CAST - DEMOCRATIC PARTY       PRECINCT 146                                           00 
01060010047000064000021000043000000000000000000DEM       BALLOTS CAST - DEMOCRATIC PARTY                         BALLOTS CAST - DEMOCRATIC PARTY       PRECINCT 147                                           00 
01060010048000042000014000028000000000000000000DEM       BALLOTS CAST - DEMOCRATIC PARTY                         BALLOTS CAST - DEMOCRATIC PARTY       PRECINCT 148                                           00 
01060010049000027000012000015000000000000000000DEM       BALLOTS CAST - DEMOCRATIC PARTY                         BALLOTS CAST - DEMOCRATIC PARTY       PRECINCT 149                                           00 
01070010001000241000136000105000000000000000000REP       President                                               Mitt Romney                           PRECINCT 101                                           01 
01070010002000341000195000146000000000000000000REP       President                                               Mitt Romney                           PRECINCT 102                                           01 
01070010003000270000166000104000000000000000000REP       President                                               Mitt Romney                           PRECINCT 103                                           01 
01070010004000294000169000125000000000000000000REP       President                                               Mitt Romney                           PRECINCT 104                                           01 
01070010005000382000222000160000000000000000000REP       President                                               Mitt Romney                           PRECINCT 105                                           01 
01070010006000346000173000173000000000000000000REP       President                                               Mitt Romney                           PRECINCT 106                                           01 
01070010007000306000117000189000000000000000000REP       President                                               Mitt Romney                           PRECINCT 107                                           01 
01070010008000271000102000169000000000000000000REP       President                                               Mitt Romney                           PRECINCT 108                                           01 
01070010009000287000107000180000000000000000000REP       President                                               Mitt Romney                           PRECINCT 109                                           01 
01070010010000305000143000162000000000000000000REP       President                                               Mitt Romney                           PRECINCT 110                                           01 
01070010011000208000128000080000000000000000000REP       President                                               Mitt Romney                           PRECINCT 111                                           01 
01070010012000183000101000082000000000000000000REP       President                                               Mitt Romney                           PRECINCT 112                                           01 
01070010013000018000004000014000000000000000000REP       President                                               Mitt Romney                           PRECINCT 113                                           01 
01070010014000144000074000070000000000000000000REP       President                                               Mitt Romney                           PRECINCT 114                                           01 
01070010015000153000089000064000000000000000000REP       President                                               Mitt Romney                           PRECINCT 115                                           01 
01070010016000224000110000114000000000000000000REP       President                                               Mitt Romney                           PRECINCT 116                                           01 
01070010017000289000159000130000000000000000000REP       President                                               Mitt Romney                           PRECINCT 117                                           01 
01070010018000369000264000105000000000000000000REP       President                                               Mitt Romney                           PRECINCT 118                                           01 
01070010019000160000105000055000000000000000000REP       President                                               Mitt Romney                           PRECINCT 119                                           01 
01070010020000042000024000018000000000000000000REP       President                                               Mitt Romney                           PRECINCT 120                                           01 
01070010021000249000122000127000000000000000000REP       President                                               Mitt Romney                           PRECINCT 121                                           01 
01070010022000174000093000081000000000000000000REP       President                                               Mitt Romney                           PRECINCT 122                                           01 
01070010023000008000004000004000000000000000000REP       President                                               Mitt Romney                           PRECINCT 123                                           01 
01070010024000035000020000015000000000000000000REP       President                                               Mitt Romney                           PRECINCT 124                                           01 
01070010025000283000138000145000000000000000000REP       President                                               Mitt Romney                           PRECINCT 125                                           01 
01070010026000078000043000035000000000000000000REP       President                                               Mitt Romney                           PRECINCT 126                                           01 
01070010027000038000020000018000000000000000000REP       President                                               Mitt Romney                           PRECINCT 127                                           01 
01070010028000005000003000002000000000000000000REP       President                                               Mitt Romney                           PRECINCT 128                                           01 
01070010029000079000019000060000000000000000000REP       President                                               Mitt Romney                           PRECINCT 129                                           01 
01070010030000054000011000043000000000000000000REP       President                                               Mitt Romney                           PRECINCT 130                                           01 
01070010031000195000053000142000000000000000000REP       President                                               Mitt Romney                           PRECINCT 131                                           01 
01070010032000058000026000000000032000000000000REP       President                                               Mitt Romney                           PRECINCT 132                                           01 
01070010033000049000022000027000000000000000000REP       President                                               Mitt Romney                           PRECINCT 133                                           01 
01070010034000104000073000031000000000000000000REP       President                                               Mitt Romney                           PRECINCT 134                                           01 
01070010035000340000134000206000000000000000000REP       President                                               Mitt Romney                           PRECINCT 135                                           01 
01070010036000057000026000031000000000000000000REP       President                                               Mitt Romney                           PRECINCT 136                                           01 
01070010037000184000051000133000000000000000000REP       President                                               Mitt Romney                           PRECINCT 137                                           01 
01070010038000147000048000099000000000000000000REP       President                                               Mitt Romney                           PRECINCT 138                                           01 
01070010039000166000088000078000000000000000000REP       President                                               Mitt Romney                           PRECINCT 139                                           01 
01070010040000327000180000147000000000000000000REP       President                                               Mitt Romney                           PRECINCT 140                                           01 
01070010041000179000075000104000000000000000000REP       President                                               Mitt Romney                           PRECINCT 141                                           01 
01070010042000190000067000123000000000000000000REP       President                                               Mitt Romney                           PRECINCT 142                                           01 
01070010043000279000135000000000144000000000000REP       President                                               Mitt Romney                           PRECINCT 143                                           01 
01070010044000089000039000050000000000000000000REP       President                                               Mitt Romney                           PRECINCT 144                                           01 
01070010045000174000086000088000000000000000000REP       President                                               Mitt Romney                           PRECINCT 145                                           01 
01070010046000191000101000090000000000000000000REP       President                                               Mitt Romney                           PRECINCT 146                                           01 
01070010047000272000123000149000000000000000000REP       President                                               Mitt Romney                           PRECINCT 147                                           01 
01070010048000151000067000084000000000000000000REP       President                                               Mitt Romney                           PRECINCT 148                                           01 
01070010049000104000037000067000000000000000000REP       President                                               Mitt Romney                           PRECINCT 149                                           01 
01070020001000033000017000016000000000000000000REP       President                                               Rick Santorum                         PRECINCT 101                                           01 
01070020002000056000022000034000000000000000000REP       President                                               Rick Santorum                         PRECINCT 102                                           01 
01070020003000056000020000036000000000000000000REP       President                                               Rick Santorum                         PRECINCT 103                                           01 
01070020004000044000025000019000000000000000000REP       President                                               Rick Santorum                         PRECINCT 104                                           01 
01070020005000055000033000022000000000000000000REP       President                                               Rick Santorum                         PRECINCT 105                                           01 
01070020006000048000020000028000000000000000000REP       President                                               Rick Santorum                         PRECINCT 106                                           01 
01070020007000055000027000028000000000000000000REP       President                                               Rick Santorum                         PRECINCT 107                                           01 
01070020008000055000017000038000000000000000000REP       President                                               Rick Santorum                         PRECINCT 108                                           01 
01070020009000041000012000029000000000000000000REP       President                                               Rick Santorum                         PRECINCT 109                                           01 
01070020010000057000018000039000000000000000000REP       President                                               Rick Santorum                         PRECINCT 110                                           01 
01070020011000042000018000024000000000000000000REP       President                                               Rick Santorum                         PRECINCT 111                                           01 
01070020012000030000016000014000000000000000000REP       President                                               Rick Santorum                         PRECINCT 112                                           01 
01070020013000005000001000004000000000000000000REP       President                                               Rick Santorum                         PRECINCT 113                                           01 
01070020014000021000012000009000000000000000000REP       President                                               Rick Santorum                         PRECINCT 114                                           01 
01070020015000022000008000014000000000000000000REP       President                                               Rick Santorum                         PRECINCT 115                                           01 
01070020016000036000016000020000000000000000000REP       President                                               Rick Santorum                         PRECINCT 116                                           01 
01070020017000036000013000023000000000000000000REP       President                                               Rick Santorum                         PRECINCT 117                                           01 
01070020018000040000022000018000000000000000000REP       President                                               Rick Santorum                         PRECINCT 118                                           01 
01070020019000024000013000011000000000000000000REP       President                                               Rick Santorum                         PRECINCT 119                                           01 
01070020020000008000003000005000000000000000000REP       President                                               Rick Santorum                         PRECINCT 120                                           01 
01070020021000028000007000021000000000000000000REP       President                                               Rick Santorum                         PRECINCT 121                                           01 
01070020022000018000004000014000000000000000000REP       President                                               Rick Santorum                         PRECINCT 122                                           01 
01070020023000001000001000000000000000000000000REP       President                                               Rick Santorum                         PRECINCT 123                                           01 
01070020024000006000003000003000000000000000000REP       President                                               Rick Santorum                         PRECINCT 124                                           01 
01070020025000055000027000028000000000000000000REP       President                                               Rick Santorum                         PRECINCT 125                                           01 
01070020026000008000006000002000000000000000000REP       President                                               Rick Santorum                         PRECINCT 126                                           01 
01070020027000003000001000002000000000000000000REP       President                                               Rick Santorum                         PRECINCT 127                                           01 
01070020028000000000000000000000000000000000000REP       President                                               Rick Santorum                         PRECINCT 128                                           01 
01070020029000005000001000004000000000000000000REP       President                                               Rick Santorum                         PRECINCT 129                                           01 
01070020030000006000002000004000000000000000000REP       President                                               Rick Santorum                         PRECINCT 130                                           01 
01070020031000016000007000009000000000000000000REP       President                                               Rick Santorum                         PRECINCT 131                                           01 
01070020032000007000003000000000004000000000000REP       President                                               Rick Santorum                         PRECINCT 132                                           01 
01070020033000007000004000003000000000000000000REP       President                                               Rick Santorum                         PRECINCT 133                                           01 
01070020034000022000009000013000000000000000000REP       President                                               Rick Santorum                         PRECINCT 134                                           01 
01070020035000047000011000036000000000000000000REP       President                                               Rick Santorum                         PRECINCT 135                                           01 
01070020036000014000010000004000000000000000000REP       President                                               Rick Santorum                         PRECINCT 136                                           01 
01070020037000022000005000017000000000000000000REP       President                                               Rick Santorum                         PRECINCT 137                                           01 
01070020038000021000004000017000000000000000000REP       President                                               Rick Santorum                         PRECINCT 138                                           01 
01070020039000024000012000012000000000000000000REP       President                                               Rick Santorum                         PRECINCT 139                                           01 
01070020040000054000025000029000000000000000000REP       President                                               Rick Santorum                         PRECINCT 140                                           01 
01070020041000023000008000015000000000000000000REP       President                                               Rick Santorum                         PRECINCT 141                                           01 
01070020042000016000004000012000000000000000000REP       President                                               Rick Santorum                         PRECINCT 142                                           01 
01070020043000042000020000000000022000000000000REP       President                                               Rick Santorum                         PRECINCT 143                                           01 
01070020044000018000010000008000000000000000000REP       President                                               Rick Santorum                         PRECINCT 144                                           01 
01070020045000025000013000012000000000000000000REP       President                                               Rick Santorum                         PRECINCT 145                                           01 
01070020046000027000011000016000000000000000000REP       President                                               Rick Santorum                         PRECINCT 146                                           01 
01070020047000050000013000037000000000000000000REP       President                                               Rick Santorum                         PRECINCT 147                                           01 
01070020048000031000009000022000000000000000000REP       President                                               Rick Santorum                         PRECINCT 148                                           01 
01070020049000018000002000016000000000000000000REP       President                                               Rick Santorum                         PRECINCT 149                                           01 
01070030001000004000001000003000000000000000000REP       President                                               Michele Bachmann                      PRECINCT 101                                           01 
01070030002000004000004000000000000000000000000REP       President                                               Michele Bachmann                      PRECINCT 102                                           01 
01070030003000002000001000001000000000000000000REP       President                                               Michele Bachmann                      PRECINCT 103                                           01 
01070030004000004000001000003000000000000000000REP       President                                               Michele Bachmann                      PRECINCT 104                                           01 
01070030005000005000002000003000000000000000000REP       President                                               Michele Bachmann                      PRECINCT 105                                           01 
01070030006000001000001000000000000000000000000REP       President                                               Michele Bachmann                      PRECINCT 106                                           01 
01070030007000006000000000006000000000000000000REP       President                                               Michele Bachmann                      PRECINCT 107                                           01 
01070030008000003000000000003000000000000000000REP       President                                               Michele Bachmann                      PRECINCT 108                                           01 
01070030009000004000002000002000000000000000000REP       President                                               Michele Bachmann                      PRECINCT 109                                           01 
01070030010000006000001000005000000000000000000REP       President                                               Michele Bachmann                      PRECINCT 110                                           01 
01070030011000001000001000000000000000000000000REP       President                                               Michele Bachmann                      PRECINCT 111                                           01 
01070030012000001000001000000000000000000000000REP       President                                               Michele Bachmann                      PRECINCT 112                                           01 
01070030013000000000000000000000000000000000000REP       President                                               Michele Bachmann                      PRECINCT 113                                           01 
01070030014000007000006000001000000000000000000REP       President                                               Michele Bachmann                      PRECINCT 114                                           01 
01070030015000004000002000002000000000000000000REP       President                                               Michele Bachmann                      PRECINCT 115                                           01 
01070030016000003000001000002000000000000000000REP       President                                               Michele Bachmann                      PRECINCT 116                                           01 
01070030017000003000002000001000000000000000000REP       President                                               Michele Bachmann                      PRECINCT 117                                           01 
01070030018000005000002000003000000000000000000REP       President                                               Michele Bachmann                      PRECINCT 118                                           01 
01070030019000002000002000000000000000000000000REP       President                                               Michele Bachmann                      PRECINCT 119                                           01 
01070030020000001000000000001000000000000000000REP       President                                               Michele Bachmann                      PRECINCT 120                                           01 
01070030021000001000000000001000000000000000000REP       President                                               Michele Bachmann                      PRECINCT 121                                           01 
01070030022000001000001000000000000000000000000REP       President                                               Michele Bachmann                      PRECINCT 122                                           01 
01070030023000000000000000000000000000000000000REP       President                                               Michele Bachmann                      PRECINCT 123                                           01 
01070030024000000000000000000000000000000000000REP       President                                               Michele Bachmann                      PRECINCT 124                                           01 
01070030025000003000003000000000000000000000000REP       President                                               Michele Bachmann                      PRECINCT 125                                           01 
01070030026000001000001000000000000000000000000REP       President                                               Michele Bachmann                      PRECINCT 126                                           01 
01070030027000001000001000000000000000000000000REP       President                                               Michele Bachmann                      PRECINCT 127                                           01 
01070030028000000000000000000000000000000000000REP       President                                               Michele Bachmann                      PRECINCT 128                                           01 
01070030029000000000000000000000000000000000000REP       President                                               Michele Bachmann                      PRECINCT 129                                           01 
01070030030000001000001000000000000000000000000REP       President                                               Michele Bachmann                      PRECINCT 130                                           01 
01070030031000008000003000005000000000000000000REP       President                                               Michele Bachmann                      PRECINCT 131                                           01 
01070030032000000000000000000000000000000000000REP       President                                               Michele Bachmann                      PRECINCT 132                                           01 
01070030033000000000000000000000000000000000000REP       President                                               Michele Bachmann                      PRECINCT 133                                           01 
01070030034000001000000000001000000000000000000REP       President                                               Michele Bachmann                      PRECINCT 134                                           01 
01070030035000007000001000006000000000000000000REP       President                                               Michele Bachmann                      PRECINCT 135                                           01 
01070030036000000000000000000000000000000000000REP       President                                               Michele Bachmann                      PRECINCT 136                                           01 
01070030037000004000000000004000000000000000000REP       President                                               Michele Bachmann                      PRECINCT 137                                           01 
01070030038000000000000000000000000000000000000REP       President                                               Michele Bachmann                      PRECINCT 138                                           01 
01070030039000003000001000002000000000000000000REP       President                                               Michele Bachmann                      PRECINCT 139                                           01 
01070030040000007000002000005000000000000000000REP       President                                               Michele Bachmann                      PRECINCT 140                                           01 
01070030041000003000001000002000000000000000000REP       President                                               Michele Bachmann                      PRECINCT 141                                           01 
01070030042000001000000000001000000000000000000REP       President                                               Michele Bachmann                      PRECINCT 142                                           01 
01070030043000002000001000000000001000000000000REP       President                                               Michele Bachmann                      PRECINCT 143                                           01 
01070030044000001000001000000000000000000000000REP       President                                               Michele Bachmann                      PRECINCT 144                                           01 
01070030045000001000000000001000000000000000000REP       President                                               Michele Bachmann                      PRECINCT 145                                           01 
01070030046000005000000000005000000000000000000REP       President                                               Michele Bachmann                      PRECINCT 146                                           01 
01070030047000002000001000001000000000000000000REP       President                                               Michele Bachmann                      PRECINCT 147                                           01 
01070030048000005000001000004000000000000000000REP       President                                               Michele Bachmann                      PRECINCT 148                                           01 
01070030049000000000000000000000000000000000000REP       President                                               Michele Bachmann                      PRECINCT 149                                           01 
01070040001000023000015000008000000000000000000REP       President                                               Newt Gingrich                         PRECINCT 101                                           01 
01070040002000019000008000011000000000000000000REP       President                                               Newt Gingrich                         PRECINCT 102                                           01 
01070040003000021000011000010000000000000000000REP       President                                               Newt Gingrich                         PRECINCT 103                                           01 
01070040004000011000008000003000000000000000000REP       President                                               Newt Gingrich                         PRECINCT 104                                           01 
01070040005000014000009000005000000000000000000REP       President                                               Newt Gingrich                         PRECINCT 105                                           01 
01070040006000017000009000008000000000000000000REP       President                                               Newt Gingrich                         PRECINCT 106                                           01 
01070040007000013000003000010000000000000000000REP       President                                               Newt Gingrich                         PRECINCT 107                                           01 
01070040008000022000004000018000000000000000000REP       President                                               Newt Gingrich                         PRECINCT 108                                           01 
01070040009000016000007000009000000000000000000REP       President                                               Newt Gingrich                         PRECINCT 109                                           01 
01070040010000011000006000005000000000000000000REP       President                                               Newt Gingrich                         PRECINCT 110                                           01 
01070040011000018000012000006000000000000000000REP       President                                               Newt Gingrich                         PRECINCT 111                                           01 
01070040012000013000008000005000000000000000000REP       President                                               Newt Gingrich                         PRECINCT 112                                           01 
01070040013000001000001000000000000000000000000REP       President                                               Newt Gingrich                         PRECINCT 113                                           01 
01070040014000004000003000001000000000000000000REP       President                                               Newt Gingrich                         PRECINCT 114                                           01 
01070040015000008000007000001000000000000000000REP       President                                               Newt Gingrich                         PRECINCT 115                                           01 
01070040016000014000008000006000000000000000000REP       President                                               Newt Gingrich                         PRECINCT 116                                           01 
01070040017000012000005000007000000000000000000REP       President                                               Newt Gingrich                         PRECINCT 117                                           01 
01070040018000019000010000009000000000000000000REP       President                                               Newt Gingrich                         PRECINCT 118                                           01 
01070040019000009000006000003000000000000000000REP       President                                               Newt Gingrich                         PRECINCT 119                                           01 
01070040020000005000004000001000000000000000000REP       President                                               Newt Gingrich                         PRECINCT 120                                           01 
01070040021000025000011000014000000000000000000REP       President                                               Newt Gingrich                         PRECINCT 121                                           01 
01070040022000009000005000004000000000000000000REP       President                                               Newt Gingrich                         PRECINCT 122                                           01 
01070040023000000000000000000000000000000000000REP       President                                               Newt Gingrich                         PRECINCT 123                                           01 
01070040024000000000000000000000000000000000000REP       President                                               Newt Gingrich                         PRECINCT 124                                           01 
01070040025000017000006000011000000000000000000REP       President                                               Newt Gingrich                         PRECINCT 125                                           01 
01070040026000003000002000001000000000000000000REP       President                                               Newt Gingrich                         PRECINCT 126                                           01 
01070040027000003000001000002000000000000000000REP       President                                               Newt Gingrich                         PRECINCT 127                                           01 
01070040028000000000000000000000000000000000000REP       President                                               Newt Gingrich                         PRECINCT 128                                           01 
01070040029000006000002000004000000000000000000REP       President                                               Newt Gingrich                         PRECINCT 129                                           01 
01070040030000004000001000003000000000000000000REP       President                                               Newt Gingrich                         PRECINCT 130                                           01 
01070040031000005000001000004000000000000000000REP       President                                               Newt Gingrich                         PRECINCT 131                                           01 
01070040032000003000001000000000002000000000000REP       President                                               Newt Gingrich                         PRECINCT 132                                           01 
