01040010001000003NON       United States Senator                                   GRADY YARBROUGH                       PCT 001                                                01 
01040010002000020NON       United States Senator                                   GRADY YARBROUGH                       PCT 002                                                01 
01040010003000062NON       United States Senator                                   GRADY YARBROUGH                       PCT 003                                                01 
01040010004000187NON       United States Senator                                   GRADY YARBROUGH                       PCT 004                                                01 
01040010005000023NON       United States Senator                                   GRADY YARBROUGH                       PCT 005                                                01 
01040010006000036NON       United States Senator                                   GRADY YARBROUGH                       PCT 006                                                01 
01040010007000054NON       United States Senator                                   GRADY YARBROUGH                       PCT 007                                                01 
01040010008000007NON       United States Senator                                   GRADY YARBROUGH                       PCT 008                                                01 
01040010009000023NON       United States Senator                                   GRADY YARBROUGH                       PCT 009                                                01 
01040010010000028NON       United States Senator                                   GRADY YARBROUGH                       PCT 010                                                01 
01040010011000047NON       United States Senator                                   GRADY YARBROUGH                       PCT 011                                                01 
01040010012000010NON       United States Senator                                   GRADY YARBROUGH                       PCT 012                                                01 
01040010013000100NON       United States Senator                                   GRADY YARBROUGH                       PCT 013                                                01 
01040010014000075NON       United States Senator                                   GRADY YARBROUGH                       PCT 014                                                01 
01040010015000011NON       United States Senator                                   GRADY YARBROUGH                       PCT 015                                                01 
01040010016000149NON       United States Senator                                   GRADY YARBROUGH                       PCT 016                                                01 
01040010017000064NON       United States Senator                                   GRADY YARBROUGH                       PCT 017                                                01 
01040010018000003NON       United States Senator                                   GRADY YARBROUGH                       PCT 018                                                01 
01040010019000006NON       United States Senator                                   GRADY YARBROUGH                       PCT 019                                                01 
01040010020000006NON       United States Senator                                   GRADY YARBROUGH                       PCT 020                                                01 
01040010021000004NON       United States Senator                                   GRADY YARBROUGH                       PCT 021                                                01 
01040010022000024NON       United States Senator                                   GRADY YARBROUGH                       PCT 022                                                01 
01040010023000047NON       United States Senator                                   GRADY YARBROUGH                       PCT 023                                                01 
01040010024000002NON       United States Senator                                   GRADY YARBROUGH                       PCT 024                                                01 
01040010025000080NON       United States Senator                                   GRADY YARBROUGH                       PCT 025                                                01 
01040010026000012NON       United States Senator                                   GRADY YARBROUGH                       PCT 026                                                01 
01040010027000012NON       United States Senator                                   GRADY YARBROUGH                       PCT 027                                                01 
01040010028000004NON       United States Senator                                   GRADY YARBROUGH                       PCT 028                                                01 
01040010029000003NON       United States Senator                                   GRADY YARBROUGH                       PCT 029                                                01 
01040010030000064NON       United States Senator                                   GRADY YARBROUGH                       PCT 030                                                01 
01040010031000046NON       United States Senator                                   GRADY YARBROUGH                       PCT 031                                                01 
01040010032000051NON       United States Senator                                   GRADY YARBROUGH                       PCT 032                                                01 
01040010033000029NON       United States Senator                                   GRADY YARBROUGH                       PCT 033                                                01 
01040010034000011NON       United States Senator                                   GRADY YARBROUGH                       PCT 034                                                01 
01040010035000119NON       United States Senator                                   GRADY YARBROUGH                       PCT 035                                                01 
01040010036000162NON       United States Senator                                   GRADY YARBROUGH                       PCT 036                                                01 
01040010037000008NON       United States Senator                                   GRADY YARBROUGH                       PCT 037                                                01 
01040010038000009NON       United States Senator                                   GRADY YARBROUGH                       PCT 038                                                01 
01040010039000066NON       United States Senator                                   GRADY YARBROUGH                       PCT 039                                                01 
01040010040000034NON       United States Senator                                   GRADY YARBROUGH                       PCT 040                                                01 
01040010041000020NON       United States Senator                                   GRADY YARBROUGH                       PCT 041                                                01 
01040010042000054NON       United States Senator                                   GRADY YARBROUGH                       PCT 042                                                01 
01040010043000081NON       United States Senator                                   GRADY YARBROUGH                       PCT 043                                                01 
01040010044000007NON       United States Senator                                   GRADY YARBROUGH                       PCT 044                                                01 
01040010045000035NON       United States Senator                                   GRADY YARBROUGH                       PCT 045                                                01 
01040010046000003NON       United States Senator                                   GRADY YARBROUGH                       PCT 046                                                01 
01040010047000021NON       United States Senator                                   GRADY YARBROUGH                       PCT 047                                                01 
01040010048000028NON       United States Senator                                   GRADY YARBROUGH                       PCT 048                                                01 
01040010049000032NON       United States Senator                                   GRADY YARBROUGH                       PCT 049                                                01 
01040010050000040NON       United States Senator                                   GRADY YARBROUGH                       PCT 050                                                01 
01040010051000014NON       United States Senator                                   GRADY YARBROUGH                       PCT 051                                                01 
01040010052000079NON       United States Senator                                   GRADY YARBROUGH                       PCT 052                                                01 
01040010053000146NON       United States Senator                                   GRADY YARBROUGH                       PCT 053                                                01 
01040010054000004NON       United States Senator                                   GRADY YARBROUGH                       PCT 054                                                01 
01040010055000079NON       United States Senator                                   GRADY YARBROUGH                       PCT 055                                                01 
01040010056000091NON       United States Senator                                   GRADY YARBROUGH                       PCT 056                                                01 
01040010057000030NON       United States Senator                                   GRADY YARBROUGH                       PCT 057                                                01 
01040010058000034NON       United States Senator                                   GRADY YARBROUGH                       PCT 058                                                01 
01040010059000069NON       United States Senator                                   GRADY YARBROUGH                       PCT 059                                                01 
01040010060000028NON       United States Senator                                   GRADY YARBROUGH                       PCT 060                                                01 
01040010061000051NON       United States Senator                                   GRADY YARBROUGH                       PCT 061                                                01 
01040010062000028NON       United States Senator                                   GRADY YARBROUGH                       PCT 062                                                01 
01040010063000002NON       United States Senator                                   GRADY YARBROUGH                       PCT 063                                                01 
01040010064000005NON       United States Senator                                   GRADY YARBROUGH                       PCT 064                                                01 
01040010065000005NON       United States Senator                                   GRADY YARBROUGH                       PCT 065                                                01 
01040010066000011NON       United States Senator                                   GRADY YARBROUGH                       PCT 066                                                01 
01040010067000026NON       United States Senator                                   GRADY YARBROUGH                       PCT 067                                                01 
01040010068000055NON       United States Senator                                   GRADY YARBROUGH                       PCT 068                                                01 
01040010069000047NON       United States Senator                                   GRADY YARBROUGH                       PCT 069                                                01 
01040010070000023NON       United States Senator                                   GRADY YARBROUGH                       PCT 070                                                01 
01040010071000034NON       United States Senator                                   GRADY YARBROUGH                       PCT 071                                                01 
01040010072000016NON       United States Senator                                   GRADY YARBROUGH                       PCT 072                                                01 
01040010073000021NON       United States Senator                                   GRADY YARBROUGH                       PCT 073                                                01 
01040010074000003NON       United States Senator                                   GRADY YARBROUGH                       PCT 074                                                01 
01040010075000000NON       United States Senator                                   GRADY YARBROUGH                       PCT 075                                                01 
01040010076000000NON       United States Senator                                   GRADY YARBROUGH                       PCT 076                                                01 
01040010077000069NON       United States Senator                                   GRADY YARBROUGH                       PCT 077                                                01 
01040010078000008NON       United States Senator                                   GRADY YARBROUGH                       PCT 078                                                01 
01040010079000052NON       United States Senator                                   GRADY YARBROUGH                       PCT 079                                                01 
01040010080000000NON       United States Senator                                   GRADY YARBROUGH                       PCT 080                                                01 
01040010081000023NON       United States Senator                                   GRADY YARBROUGH                       PCT 081                                                01 
01040010082000000NON       United States Senator                                   GRADY YARBROUGH                       PCT 082                                                01 
01040010083000017NON       United States Senator                                   GRADY YARBROUGH                       PCT 083                                                01 
01040010084000003NON       United States Senator                                   GRADY YARBROUGH                       PCT 084                                                01 
01040010085000045NON       United States Senator                                   GRADY YARBROUGH                       PCT 085                                                01 
01040010086000007NON       United States Senator                                   GRADY YARBROUGH                       PCT 086                                                01 
01040010087000023NON       United States Senator                                   GRADY YARBROUGH                       PCT 087                                                01 
01040010088000027NON       United States Senator                                   GRADY YARBROUGH                       PCT 088                                                01 
01040010089000000NON       United States Senator                                   GRADY YARBROUGH                       PCT 089                                                01 
01040010090000426NON       United States Senator                                   GRADY YARBROUGH                       PCT 090                                                01 
01040010091000021NON       United States Senator                                   GRADY YARBROUGH                       PCT 091                                                01 
01040010092000002NON       United States Senator                                   GRADY YARBROUGH                       PCT 092                                                01 
01040010093000000NON       United States Senator                                   GRADY YARBROUGH                       PCT 093                                                01 
01040010094000023NON       United States Senator                                   GRADY YARBROUGH                       PCT 094                                                01 
01040010095000021NON       United States Senator                                   GRADY YARBROUGH                       PCT 095                                                01 
01040010096000025NON       United States Senator                                   GRADY YARBROUGH                       PT 096                                                 01 
01040010097000014NON       United States Senator                                   GRADY YARBROUGH                       PCT 097                                                01 
01040010098000046NON       United States Senator                                   GRADY YARBROUGH                       PCT 098                                                01 
01040010099000011NON       United States Senator                                   GRADY YARBROUGH                       PCT 099                                                01 
01040010100000017NON       United States Senator                                   GRADY YARBROUGH                       PCT 100                                                01 
01040010101000008NON       United States Senator                                   GRADY YARBROUGH                       PCT 101                                                01 
01040010102000004NON       United States Senator                                   GRADY YARBROUGH                       PCT 102                                                01 
01040010103000033NON       United States Senator                                   GRADY YARBROUGH                       PCT 103                                                01 
01040010104000047NON       United States Senator                                   GRADY YARBROUGH                       PCT 104                                                01 
01040010105000054NON       United States Senator                                   GRADY YARBROUGH                       PCT 105                                                01 
01040010106000092NON       United States Senator                                   GRADY YARBROUGH                       PCT 106                                                01 
01040010107000125NON       United States Senator                                   GRADY YARBROUGH                       PCT 107                                                01 
01040010108000105NON       United States Senator                                   GRADY YARBROUGH                       PCT 108                                                01 
01040010109000077NON       United States Senator                                   GRADY YARBROUGH                       PCT 109                                                01 
01040010110000005NON       United States Senator                                   GRADY YARBROUGH                       PCT 110                                                01 
01040010111000064NON       United States Senator                                   GRADY YARBROUGH                       PCT 111                                                01 
01040010112000071NON       United States Senator                                   GRADY YARBROUGH                       PCT 112                                                01 
01040010113000035NON       United States Senator                                   GRADY YARBROUGH                       PCT 113                                                01 
01040010114000057NON       United States Senator                                   GRADY YARBROUGH                       PCT 114                                                01 
01040010115000101NON       United States Senator                                   GRADY YARBROUGH                       PCT 115                                                01 
01040010116000026NON       United States Senator                                   GRADY YARBROUGH                       PCT 116                                                01 
01040010117000075NON       United States Senator                                   GRADY YARBROUGH                       PCT 117                                                01 
01040010118000051NON       United States Senator                                   GRADY YARBROUGH                       PCT 118                                                01 
01040010119000049NON       United States Senator                                   GRADY YARBROUGH                       PCT 119                                                01 
01040010120000046NON       United States Senator                                   GRADY YARBROUGH                       PCT 120                                                01 
01040010121000002NON       United States Senator                                   GRADY YARBROUGH                       PCT 121                                                01 
01040010122000032NON       United States Senator                                   GRADY YARBROUGH                       PCT 122                                                01 
01040010123000053NON       United States Senator                                   GRADY YARBROUGH                       PCT 123                                                01 
01040010124000015NON       United States Senator                                   GRADY YARBROUGH                       PCT 124                                                01 
01040010125000003NON       United States Senator                                   GRADY YARBROUGH                       PCT 125                                                01 
01040010126000042NON       United States Senator                                   GRADY YARBROUGH                       PCT 126                                                01 
01040010127000061NON       United States Senator                                   GRADY YARBROUGH                       PCT 127                                                01 
01040010128000003NON       United States Senator                                   GRADY YARBROUGH                       PCT 128                                                01 
01040010129000001NON       United States Senator                                   GRADY YARBROUGH                       PCT 129                                                01 
01040010130000020NON       United States Senator                                   GRADY YARBROUGH                       PCT 130                                                01 
01040010131000000NON       United States Senator                                   GRADY YARBROUGH                       PCT 131                                                01 
01040010132000000NON       United States Senator                                   GRADY YARBROUGH                       PCT 132                                                01 
01040010133000000NON       United States Senator                                   GRADY YARBROUGH                       PCT 133                                                01 
01040010134000026NON       United States Senator                                   GRADY YARBROUGH                       PCT 134                                                01 
01040010135000020NON       United States Senator                                   GRADY YARBROUGH                       PCT 135                                                01 
01040010136000021NON       United States Senator                                   GRADY YARBROUGH                       PCT 136                                                01 
01040010137000002NON       United States Senator                                   GRADY YARBROUGH                       PCT 137                                                01 
01040010138000006NON       United States Senator                                   GRADY YARBROUGH                       PCT 138                                                01 
01040010139000003NON       United States Senator                                   GRADY YARBROUGH                       PCT 139                                                01 
01040010140000000NON       United States Senator                                   GRADY YARBROUGH                       PCT 140                                                01 
01040010141000000NON       United States Senator                                   GRADY YARBROUGH                       PCT 141                                                01 
01040010142000002NON       United States Senator                                   GRADY YARBROUGH                       PCT 142                                                01 
01040010143000000NON       United States Senator                                   GRADY YARBROUGH                       PCT 143                                                01 
01040010144000000NON       United States Senator                                   GRADY YARBROUGH                       PCT 144                                                01 
01040010145000019NON       United States Senator                                   GRADY YARBROUGH                       PCT 145                                                01 
01040010146000023NON       United States Senator                                   GRADY YARBROUGH                       PCT 146                                                01 
01040010147000002NON       United States Senator                                   GRADY YARBROUGH                       PCT 147                                                01 
01040010148000001NON       United States Senator                                   GRADY YARBROUGH                       PCT 148                                                01 
01040010149000003NON       United States Senator                                   GRADY YARBROUGH                       PCT 149                                                01 
01040010150000007NON       United States Senator                                   GRADY YARBROUGH                       PCT 150                                                01 
01040010151000008NON       United States Senator                                   GRADY YARBROUGH                       PCT 151                                                01 
01040010152000048NON       United States Senator                                   GRADY YARBROUGH                       PCT 152                                                01 
01040010153000007NON       United States Senator                                   GRADY YARBROUGH                       PCT 153                                                01 
01040010154000040NON       United States Senator                                   GRADY YARBROUGH                       PCT 154                                                01 
01040010155000007NON       United States Senator                                   GRADY YARBROUGH                       PCT 155                                                01 
01040010156000120NON       United States Senator                                   GRADY YARBROUGH                       PCT 156                                                01 
01040010157000008NON       United States Senator                                   GRADY YARBROUGH                       PCT 157                                                01 
01040010158000041NON       United States Senator                                   GRADY YARBROUGH                       PCT 158                                                01 
01040010159000013NON       United States Senator                                   GRADY YARBROUGH                       PCT 159                                                01 
01040010160000000NON       United States Senator                                   GRADY YARBROUGH                       PCT 160                                                01 
01040010161000006NON       United States Senator                                   GRADY YARBROUGH                       PCT 161                                                01 
01040010162000000NON       United States Senator                                   GRADY YARBROUGH                       PCT 162                                                01 
01040010163000001NON       United States Senator                                   GRADY YARBROUGH                       PCT 163                                                01 
01040010164000009NON       United States Senator                                   GRADY YARBROUGH                       PCT 164                                                01 
01040010165000005NON       United States Senator                                   GRADY YARBROUGH                       PCT 165                                                01 
01040010166000001NON       United States Senator                                   GRADY YARBROUGH                       PCT 166                                                01 
01040010167000007NON       United States Senator                                   GRADY YARBROUGH                       PCT 167                                                01 
01040010168000003NON       United States Senator                                   GRADY YARBROUGH                       PCT 168                                                01 
01040010169000016NON       United States Senator                                   GRADY YARBROUGH                       PCT 169                                                01 
01040010170000000NON       United States Senator                                   GRADY YARBROUGH                       PCT 170                                                01 
01040010171000001NON       United States Senator                                   GRADY YARBROUGH                       PCT 171                                                01 
01040010172000003NON       United States Senator                                   GRADY YARBROUGH                       PCT 172                                                01 
01040010173000019NON       United States Senator                                   GRADY YARBROUGH                       PCT 173                                                01 
01040010174000018NON       United States Senator                                   GRADY YARBROUGH                       PCT 174                                                01 
01040010175000020NON       United States Senator                                   GRADY YARBROUGH                       PCT 175                                                01 
01040010176000019NON       United States Senator                                   GRADY YARBROUGH                       PCT 176                                                01 
01040010177000005NON       United States Senator                                   GRADY YARBROUGH                       PCT 177                                                01 
01040010178000000NON       United States Senator                                   GRADY YARBROUGH                       PCT 178                                                01 
01040010179000003NON       United States Senator                                   GRADY YARBROUGH                       PCT 179                                                01 
01040010180000000NON       United States Senator                                   GRADY YARBROUGH                       PCT 180                                                01 
01040010181000005NON       United States Senator                                   GRADY YARBROUGH                       PCT 181                                                01 
01040010182000002NON       United States Senator                                   GRADY YARBROUGH                       PCT 182                                                01 
01040010183000001NON       United States Senator                                   GRADY YARBROUGH                       PCT 183                                                01 
01040010184000000NON       United States Senator                                   GRADY YARBROUGH                       PCT 184                                                01 
01040010185000000NON       United States Senator                                   GRADY YARBROUGH                       PCT 185                                                01 
01040010186000000NON       United States Senator                                   GRADY YARBROUGH                       PCT 186                                                01 
01040010187000013NON       United States Senator                                   GRADY YARBROUGH                       PCT 187                                                01 
01040010188000009NON       United States Senator                                   GRADY YARBROUGH                       PCT 188                                                01 
01040010189000015NON       United States Senator                                   GRADY YARBROUGH                       PCT 189                                                01 
01040010190000006NON       United States Senator                                   GRADY YARBROUGH                       PCT 190                                                01 
01040010191000002NON       United States Senator                                   GRADY YARBROUGH                       PCT 191                                                01 
01040010192000006NON       United States Senator                                   GRADY YARBROUGH                       PCT 192                                                01 
01040010193000003NON       United States Senator                                   GRADY YARBROUGH                       PCT 193                                                01 
01040010194000009NON       United States Senator                                   GRADY YARBROUGH                       PCT 194                                                01 
01040010195000004NON       United States Senator                                   GRADY YARBROUGH                       PCT 195                                                01 
01040010196000001NON       United States Senator                                   GRADY YARBROUGH                       PCT 196                                                01 
01040010197000001NON       United States Senator                                   GRADY YARBROUGH                       PCT 197                                                01 
01040010198000002NON       United States Senator                                   GRADY YARBROUGH                       PCT 198                                                01 
01040010199000008NON       United States Senator                                   GRADY YARBROUGH                       PCT 199                                                01 
01040010200000015NON       United States Senator                                   GRADY YARBROUGH                       PCT 200                                                01 
01040010201000009NON       United States Senator                                   GRADY YARBROUGH                       PCT 201                                                01 
01040010202000005NON       United States Senator                                   GRADY YARBROUGH                       PCT 202                                                01 
01040010203000018NON       United States Senator                                   GRADY YARBROUGH                       PCT 203                                                01 
01040010204000002NON       United States Senator                                   GRADY YARBROUGH                       PCT 204                                                01 
01040010205000002NON       United States Senator                                   GRADY YARBROUGH                       PCT 205                                                01 
01040010206000007NON       United States Senator                                   GRADY YARBROUGH                       PCT 206                                                01 
01040010207000017NON       United States Senator                                   GRADY YARBROUGH                       PCT 207                                                01 
01040010208000000NON       United States Senator                                   GRADY YARBROUGH                       PCT 208                                                01 
01040010209000003NON       United States Senator                                   GRADY YARBROUGH                       PCT 209                                                01 
01040010210000001NON       United States Senator                                   GRADY YARBROUGH                       PCT 210                                                01 
01040010211000002NON       United States Senator                                   GRADY YARBROUGH                       PCT 211                                                01 
01040010212000001NON       United States Senator                                   GRADY YARBROUGH                       PCT 212                                                01 
01040010213000002NON       United States Senator                                   GRADY YARBROUGH                       PCT 213                                                01 
01040010214000000NON       United States Senator                                   GRADY YARBROUGH                       PCT 214                                                01 
01040010215000005NON       United States Senator                                   GRADY YARBROUGH                       PCT 215                                                01 
01040010216000028NON       United States Senator                                   GRADY YARBROUGH                       PCT 216                                                01 
01040010217000000NON       United States Senator                                   GRADY YARBROUGH                       PCT 217                                                01 
01040010218000009NON       United States Senator                                   GRADY YARBROUGH                       PCT 218                                                01 
01040010219000003NON       United States Senator                                   GRADY YARBROUGH                       PCT 219                                                01 
01040010220000009NON       United States Senator                                   GRADY YARBROUGH                       PCT 220                                                01 
01040010221000017NON       United States Senator                                   GRADY YARBROUGH                       PCT 221                                                01 
01040010222000001NON       United States Senator                                   GRADY YARBROUGH                       PCT 222                                                01 
01040010223000000NON       United States Senator                                   GRADY YARBROUGH                       PCT 223                                                01 
01040010224000001NON       United States Senator                                   GRADY YARBROUGH                       PCT 224                                                01 
01040010225000006NON       United States Senator                                   GRADY YARBROUGH                       PCT 225                                                01 
01040010226000001NON       United States Senator                                   GRADY YARBROUGH                       PCT 226                                                01 
01040010227000036NON       United States Senator                                   GRADY YARBROUGH                       PCT 227                                                01 
01040010228000039NON       United States Senator                                   GRADY YARBROUGH                       PCT 228                                                01 
01040010229000010NON       United States Senator                                   GRADY YARBROUGH                       PCT 229                                                01 
01040010230000006NON       United States Senator                                   GRADY YARBROUGH                       PCT 230                                                01 
01040010231000000NON       United States Senator                                   GRADY YARBROUGH                       PCT 231                                                01 
01040010232000021NON       United States Senator                                   GRADY YARBROUGH                       PCT 232                                                01 
01040010233000000NON       United States Senator                                   GRADY YARBROUGH                       PCT 233                                                01 
01040010234000048NON       United States Senator                                   GRADY YARBROUGH                       PCT 234                                                01 
01040010235000007NON       United States Senator                                   GRADY YARBROUGH                       PCT 235                                                01 
01040010236000005NON       United States Senator                                   GRADY YARBROUGH                       PCT 236                                                01 
01040010237000007NON       United States Senator                                   GRADY YARBROUGH                       PCT 237                                                01 
01040010238000000NON       United States Senator                                   GRADY YARBROUGH                       PCT 238                                                01 
01040010239000018NON       United States Senator                                   GRADY YARBROUGH                       PCT 239                                                01 
01040010240000008NON       United States Senator                                   GRADY YARBROUGH                       PCT 240                                                01 
01040010241000000NON       United States Senator                                   GRADY YARBROUGH                       PCT 241                                                01 
01040010242000000NON       United States Senator                                   GRADY YARBROUGH                       PCT 242                                                01 
01040010243000000NON       United States Senator                                   GRADY YARBROUGH                       PCT 243                                                01 
01040010244000005NON       United States Senator                                   GRADY YARBROUGH                       PCT 244                                                01 
01040010245000002NON       United States Senator                                   GRADY YARBROUGH                       PCT 245                                                01 
01040010246000000NON       United States Senator                                   GRADY YARBROUGH                       PCT 246                                                01 
01040010247000001NON       United States Senator                                   GRADY YARBROUGH                       PCT 247                                                01 
01040010248000000NON       United States Senator                                   GRADY YARBROUGH                       PCT 248                                                01 
01040010249000003NON       United States Senator                                   GRADY YARBROUGH                       PCT 249                                                01 
01040010250000000NON       United States Senator                                   GRADY YARBROUGH                       PCT 250                                                01 
01040010251000000NON       United States Senator                                   GRADY YARBROUGH                       PCT 251                                                01 
01040010252000000NON       United States Senator                                   GRADY YARBROUGH                       PCT 252                                                01 
01040010253000015NON       United States Senator                                   GRADY YARBROUGH                       PCT 253                                                01 
01040010254000000NON       United States Senator                                   GRADY YARBROUGH                       PCT 254                                                01 
01040010255000008NON       United States Senator                                   GRADY YARBROUGH                       PCT 255                                                01 
01040010256000003NON       United States Senator                                   GRADY YARBROUGH                       PCT 256                                                01 
01040010257000004NON       United States Senator                                   GRADY YARBROUGH                       PCT 257                                                01 
01040020001000009NON       United States Senator                                   PAUL SADLER                           PCT 001                                                01 
01040020002000020NON       United States Senator                                   PAUL SADLER                           PCT 002                                                01 
01040020003000104NON       United States Senator                                   PAUL SADLER                           PCT 003                                                01 
01040020004000192NON       United States Senator                                   PAUL SADLER                           PCT 004                                                01 
01040020005000034NON       United States Senator                                   PAUL SADLER                           PCT 005                                                01 
01040020006000045NON       United States Senator                                   PAUL SADLER                           PCT 006                                                01 
01040020007000065NON       United States Senator                                   PAUL SADLER                           PCT 007                                                01 
01040020008000032NON       United States Senator                                   PAUL SADLER                           PCT 008                                                01 
01040020009000028NON       United States Senator                                   PAUL SADLER                           PCT 009                                                01 
01040020010000088NON       United States Senator                                   PAUL SADLER                           PCT 010                                                01 
01040020011000082NON       United States Senator                                   PAUL SADLER                           PCT 011                                                01 
01040020012000010NON       United States Senator                                   PAUL SADLER                           PCT 012                                                01 
01040020013000110NON       United States Senator                                   PAUL SADLER                           PCT 013                                                01 
01040020014000063NON       United States Senator                                   PAUL SADLER                           PCT 014                                                01 
01040020015000017NON       United States Senator                                   PAUL SADLER                           PCT 015                                                01 
01040020016000339NON       United States Senator                                   PAUL SADLER                           PCT 016                                                01 
01040020017000156NON       United States Senator                                   PAUL SADLER                           PCT 017                                                01 
01040020018000024NON       United States Senator                                   PAUL SADLER                           PCT 018                                                01 
01040020019000008NON       United States Senator                                   PAUL SADLER                           PCT 019                                                01 
01040020020000010NON       United States Senator                                   PAUL SADLER                           PCT 020                                                01 
01040020021000010NON       United States Senator                                   PAUL SADLER                           PCT 021                                                01 
01040020022000034NON       United States Senator                                   PAUL SADLER                           PCT 022                                                01 
01040020023000099NON       United States Senator                                   PAUL SADLER                           PCT 023                                                01 
01040020024000001NON       United States Senator                                   PAUL SADLER                           PCT 024                                                01 
01040020025000081NON       United States Senator                                   PAUL SADLER                           PCT 025                                                01 
01040020026000008NON       United States Senator                                   PAUL SADLER                           PCT 026                                                01 
01040020027000009NON       United States Senator                                   PAUL SADLER                           PCT 027                                                01 
01040020028000011NON       United States Senator                                   PAUL SADLER                           PCT 028                                                01 
01040020029000000NON       United States Senator                                   PAUL SADLER                           PCT 029                                                01 
01040020030000089NON       United States Senator                                   PAUL SADLER                           PCT 030                                                01 
01040020031000061NON       United States Senator                                   PAUL SADLER                           PCT 031                                                01 
01040020032000053NON       United States Senator                                   PAUL SADLER                           PCT 032                                                01 
01040020033000046NON       United States Senator                                   PAUL SADLER                           PCT 033                                                01 
01040020034000017NON       United States Senator                                   PAUL SADLER                           PCT 034                                                01 
01040020035000148NON       United States Senator                                   PAUL SADLER                           PCT 035                                                01 
01040020036000161NON       United States Senator                                   PAUL SADLER                           PCT 036                                                01 
01040020037000008NON       United States Senator                                   PAUL SADLER                           PCT 037                                                01 
01040020038000018NON       United States Senator                                   PAUL SADLER                           PCT 038                                                01 
01040020039000071NON       United States Senator                                   PAUL SADLER                           PCT 039                                                01 
01040020040000056NON       United States Senator                                   PAUL SADLER                           PCT 040                                                01 
01040020041000032NON       United States Senator                                   PAUL SADLER                           PCT 041                                                01 
01040020042000085NON       United States Senator                                   PAUL SADLER                           PCT 042                                                01 
01040020043000089NON       United States Senator                                   PAUL SADLER                           PCT 043                                                01 
01040020044000016NON       United States Senator                                   PAUL SADLER                           PCT 044                                                01 
01040020045000055NON       United States Senator                                   PAUL SADLER                           PCT 045                                                01 
01040020046000000NON       United States Senator                                   PAUL SADLER                           PCT 046                                                01 
01040020047000020NON       United States Senator                                   PAUL SADLER                           PCT 047                                                01 
01040020048000038NON       United States Senator                                   PAUL SADLER                           PCT 048                                                01 
01040020049000023NON       United States Senator                                   PAUL SADLER                           PCT 049                                                01 
01040020050000039NON       United States Senator                                   PAUL SADLER                           PCT 050                                                01 
01040020051000051NON       United States Senator                                   PAUL SADLER                           PCT 051                                                01 
01040020052000090NON       United States Senator                                   PAUL SADLER                           PCT 052                                                01 
01040020053000179NON       United States Senator                                   PAUL SADLER                           PCT 053                                                01 
01040020054000005NON       United States Senator                                   PAUL SADLER                           PCT 054                                                01 
01040020055000176NON       United States Senator                                   PAUL SADLER                           PCT 055                                                01 
01040020056000112NON       United States Senator                                   PAUL SADLER                           PCT 056                                                01 
01040020057000026NON       United States Senator                                   PAUL SADLER                           PCT 057                                                01 
01040020058000056NON       United States Senator                                   PAUL SADLER                           PCT 058                                                01 
01040020059000066NON       United States Senator                                   PAUL SADLER                           PCT 059                                                01 
01040020060000058NON       United States Senator                                   PAUL SADLER                           PCT 060                                                01 
01040020061000082NON       United States Senator                                   PAUL SADLER                           PCT 061                                                01 
01040020062000060NON       United States Senator                                   PAUL SADLER                           PCT 062                                                01 
01040020063000006NON       United States Senator                                   PAUL SADLER                           PCT 063                                                01 
01040020064000009NON       United States Senator                                   PAUL SADLER                           PCT 064                                                01 
01040020065000004NON       United States Senator                                   PAUL SADLER                           PCT 065                                                01 
01040020066000021NON       United States Senator                                   PAUL SADLER                           PCT 066                                                01 
01040020067000025NON       United States Senator                                   PAUL SADLER                           PCT 067                                                01 
01040020068000092NON       United States Senator                                   PAUL SADLER                           PCT 068                                                01 
01040020069000055NON       United States Senator                                   PAUL SADLER                           PCT 069                                                01 
01040020070000033NON       United States Senator                                   PAUL SADLER                           PCT 070                                                01 
01040020071000045NON       United States Senator                                   PAUL SADLER                           PCT 071                                                01 
01040020072000014NON       United States Senator                                   PAUL SADLER                           PCT 072                                                01 
01040020073000038NON       United States Senator                                   PAUL SADLER                           PCT 073                                                01 
01040020074000001NON       United States Senator                                   PAUL SADLER                           PCT 074                                                01 
01040020075000002NON       United States Senator                                   PAUL SADLER                           PCT 075                                                01 
01040020076000001NON       United States Senator                                   PAUL SADLER                           PCT 076                                                01 
01040020077000064NON       United States Senator                                   PAUL SADLER                           PCT 077                                                01 
01040020078000012NON       United States Senator                                   PAUL SADLER                           PCT 078                                                01 
01040020079000092NON       United States Senator                                   PAUL SADLER                           PCT 079                                                01 
01040020080000011NON       United States Senator                                   PAUL SADLER                           PCT 080                                                01 
01040020081000049NON       United States Senator                                   PAUL SADLER                           PCT 081                                                01 
01040020082000000NON       United States Senator                                   PAUL SADLER                           PCT 082                                                01 
01040020083000025NON       United States Senator                                   PAUL SADLER                           PCT 083                                                01 
01040020084000000NON       United States Senator                                   PAUL SADLER                           PCT 084                                                01 
01040020085000062NON       United States Senator                                   PAUL SADLER                           PCT 085                                                01 
01040020086000007NON       United States Senator                                   PAUL SADLER                           PCT 086                                                01 
01040020087000041NON       United States Senator                                   PAUL SADLER                           PCT 087                                                01 
01040020088000045NON       United States Senator                                   PAUL SADLER                           PCT 088                                                01 
01040020089000000NON       United States Senator                                   PAUL SADLER                           PCT 089                                                01 
01040020090000562NON       United States Senator                                   PAUL SADLER                           PCT 090                                                01 
01040020091000026NON       United States Senator                                   PAUL SADLER                           PCT 091                                                01 
01040020092000004NON       United States Senator                                   PAUL SADLER                           PCT 092                                                01 
01040020093000002NON       United States Senator                                   PAUL SADLER                           PCT 093                                                01 
01040020094000028NON       United States Senator                                   PAUL SADLER                           PCT 094                                                01 
01040020095000038NON       United States Senator                                   PAUL SADLER                           PCT 095                                                01 
01040020096000025NON       United States Senator                                   PAUL SADLER                           PT 096                                                 01 
01040020097000026NON       United States Senator                                   PAUL SADLER                           PCT 097                                                01 
01040020098000052NON       United States Senator                                   PAUL SADLER                           PCT 098                                                01 
01040020099000017NON       United States Senator                                   PAUL SADLER                           PCT 099                                                01 
01040020100000029NON       United States Senator                                   PAUL SADLER                           PCT 100                                                01 
01040020101000008NON       United States Senator                                   PAUL SADLER                           PCT 101                                                01 
01040020102000011NON       United States Senator                                   PAUL SADLER                           PCT 102                                                01 
01040020103000042NON       United States Senator                                   PAUL SADLER                           PCT 103                                                01 
01040020104000064NON       United States Senator                                   PAUL SADLER                           PCT 104                                                01 
01040020105000077NON       United States Senator                                   PAUL SADLER                           PCT 105                                                01 
01040020106000117NON       United States Senator                                   PAUL SADLER                           PCT 106                                                01 
01040020107000129NON       United States Senator                                   PAUL SADLER                           PCT 107                                                01 
01040020108000164NON       United States Senator                                   PAUL SADLER                           PCT 108                                                01 
01040020109000078NON       United States Senator                                   PAUL SADLER                           PCT 109                                                01 
01040020110000009NON       United States Senator                                   PAUL SADLER                           PCT 110                                                01 
01040020111000074NON       United States Senator                                   PAUL SADLER                           PCT 111                                                01 
01040020112000100NON       United States Senator                                   PAUL SADLER                           PCT 112                                                01 
01040020113000050NON       United States Senator                                   PAUL SADLER                           PCT 113                                                01 
01040020114000106NON       United States Senator                                   PAUL SADLER                           PCT 114                                                01 
01040020115000096NON       United States Senator                                   PAUL SADLER                           PCT 115                                                01 
01040020116000025NON       United States Senator                                   PAUL SADLER                           PCT 116                                                01 
01040020117000107NON       United States Senator                                   PAUL SADLER                           PCT 117                                                01 
01040020118000080NON       United States Senator                                   PAUL SADLER                           PCT 118                                                01 
01040020119000073NON       United States Senator                                   PAUL SADLER                           PCT 119                                                01 
01040020120000104NON       United States Senator                                   PAUL SADLER                           PCT 120                                                01 
01040020121000001NON       United States Senator                                   PAUL SADLER                           PCT 121                                                01 
01040020122000056NON       United States Senator                                   PAUL SADLER                           PCT 122                                                01 
01040020123000053NON       United States Senator                                   PAUL SADLER                           PCT 123                                                01 
01040020124000018NON       United States Senator                                   PAUL SADLER                           PCT 124                                                01 
01040020125000011NON       United States Senator                                   PAUL SADLER                           PCT 125                                                01 
01040020126000043NON       United States Senator                                   PAUL SADLER                           PCT 126                                                01 
01040020127000068NON       United States Senator                                   PAUL SADLER                           PCT 127                                                01 
01040020128000011NON       United States Senator                                   PAUL SADLER                           PCT 128                                                01 
01040020129000000NON       United States Senator                                   PAUL SADLER                           PCT 129                                                01 
01040020130000028NON       United States Senator                                   PAUL SADLER                           PCT 130                                                01 
01040020131000000NON       United States Senator                                   PAUL SADLER                           PCT 131                                                01 
01040020132000000NON       United States Senator                                   PAUL SADLER                           PCT 132                                                01 
01040020133000000NON       United States Senator                                   PAUL SADLER                           PCT 133                                                01 
01040020134000041NON       United States Senator                                   PAUL SADLER                           PCT 134                                                01 
01040020135000018NON       United States Senator                                   PAUL SADLER                           PCT 135                                                01 
01040020136000038NON       United States Senator                                   PAUL SADLER                           PCT 136                                                01 
01040020137000000NON       United States Senator                                   PAUL SADLER                           PCT 137                                                01 
01040020138000007NON       United States Senator                                   PAUL SADLER                           PCT 138                                                01 
01040020139000004NON       United States Senator                                   PAUL SADLER                           PCT 139                                                01 
01040020140000000NON       United States Senator                                   PAUL SADLER                           PCT 140                                                01 
01040020141000000NON       United States Senator                                   PAUL SADLER                           PCT 141                                                01 
01040020142000003NON       United States Senator                                   PAUL SADLER                           PCT 142                                                01 
01040020143000000NON       United States Senator                                   PAUL SADLER                           PCT 143                                                01 
01040020144000002NON       United States Senator                                   PAUL SADLER                           PCT 144                                                01 
01040020145000017NON       United States Senator                                   PAUL SADLER                           PCT 145                                                01 
01040020146000052NON       United States Senator                                   PAUL SADLER                           PCT 146                                                01 
01040020147000001NON       United States Senator                                   PAUL SADLER                           PCT 147                                                01 
01040020148000001NON       United States Senator                                   PAUL SADLER                           PCT 148                                                01 
01040020149000001NON       United States Senator                                   PAUL SADLER                           PCT 149                                                01 
01040020150000013NON       United States Senator                                   PAUL SADLER                           PCT 150                                                01 
01040020151000013NON       United States Senator                                   PAUL SADLER                           PCT 151                                                01 
01040020152000062NON       United States Senator                                   PAUL SADLER                           PCT 152                                                01 
01040020153000007NON       United States Senator                                   PAUL SADLER                           PCT 153                                                01 
01040020154000064NON       United States Senator                                   PAUL SADLER                           PCT 154                                                01 
01040020155000003NON       United States Senator                                   PAUL SADLER                           PCT 155                                                01 
01040020156000108NON       United States Senator                                   PAUL SADLER                           PCT 156                                                01 
01040020157000021NON       United States Senator                                   PAUL SADLER                           PCT 157                                                01 
01040020158000042NON       United States Senator                                   PAUL SADLER                           PCT 158                                                01 
01040020159000009NON       United States Senator                                   PAUL SADLER                           PCT 159                                                01 
01040020160000000NON       United States Senator                                   PAUL SADLER                           PCT 160                                                01 
01040020161000007NON       United States Senator                                   PAUL SADLER                           PCT 161                                                01 
01040020162000001NON       United States Senator                                   PAUL SADLER                           PCT 162                                                01 
01040020163000000NON       United States Senator                                   PAUL SADLER                           PCT 163                                                01 
01040020164000009NON       United States Senator                                   PAUL SADLER                           PCT 164                                                01 
01040020165000004NON       United States Senator                                   PAUL SADLER                           PCT 165                                                01 
01040020166000000NON       United States Senator                                   PAUL SADLER                           PCT 166                                                01 
01040020167000007NON       United States Senator                                   PAUL SADLER                           PCT 167                                                01 
01040020168000009NON       United States Senator                                   PAUL SADLER                           PCT 168                                                01 
01040020169000027NON       United States Senator                                   PAUL SADLER                           PCT 169                                                01 
01040020170000001NON       United States Senator                                   PAUL SADLER                           PCT 170                                                01 
01040020171000000NON       United States Senator                                   PAUL SADLER                           PCT 171                                                01 
01040020172000005NON       United States Senator                                   PAUL SADLER                           PCT 172                                                01 
01040020173000024NON       United States Senator                                   PAUL SADLER                           PCT 173                                                01 
01040020174000036NON       United States Senator                                   PAUL SADLER                           PCT 174                                                01 
01040020175000022NON       United States Senator                                   PAUL SADLER                           PCT 175                                                01 
01040020176000022NON       United States Senator                                   PAUL SADLER                           PCT 176                                                01 
01040020177000013NON       United States Senator                                   PAUL SADLER                           PCT 177                                                01 
01040020178000000NON       United States Senator                                   PAUL SADLER                           PCT 178                                                01 
01040020179000005NON       United States Senator                                   PAUL SADLER                           PCT 179                                                01 
01040020180000002NON       United States Senator                                   PAUL SADLER                           PCT 180                                                01 
01040020181000013NON       United States Senator                                   PAUL SADLER                           PCT 181                                                01 
01040020182000001NON       United States Senator                                   PAUL SADLER                           PCT 182                                                01 
01040020183000004NON       United States Senator                                   PAUL SADLER                           PCT 183                                                01 
01040020184000000NON       United States Senator                                   PAUL SADLER                           PCT 184                                                01 
01040020185000000NON       United States Senator                                   PAUL SADLER                           PCT 185                                                01 
01040020186000000NON       United States Senator                                   PAUL SADLER                           PCT 186                                                01 
01040020187000012NON       United States Senator                                   PAUL SADLER                           PCT 187                                                01 
01040020188000008NON       United States Senator                                   PAUL SADLER                           PCT 188                                                01 
01040020189000004NON       United States Senator                                   PAUL SADLER                           PCT 189                                                01 
01040020190000005NON       United States Senator                                   PAUL SADLER                           PCT 190                                                01 
01040020191000002NON       United States Senator                                   PAUL SADLER                           PCT 191                                                01 
01040020192000003NON       United States Senator                                   PAUL SADLER                           PCT 192                                                01 
01040020193000002NON       United States Senator                                   PAUL SADLER                           PCT 193                                                01 
01040020194000015NON       United States Senator                                   PAUL SADLER                           PCT 194                                                01 
01040020195000006NON       United States Senator                                   PAUL SADLER                           PCT 195                                                01 
01040020196000004NON       United States Senator                                   PAUL SADLER                           PCT 196                                                01 
01040020197000001NON       United States Senator                                   PAUL SADLER                           PCT 197                                                01 
01040020198000013NON       United States Senator                                   PAUL SADLER                           PCT 198                                                01 
01040020199000012NON       United States Senator                                   PAUL SADLER                           PCT 199                                                01 
01040020200000029NON       United States Senator                                   PAUL SADLER                           PCT 200                                                01 
01040020201000013NON       United States Senator                                   PAUL SADLER                           PCT 201                                                01 
01040020202000014NON       United States Senator                                   PAUL SADLER                           PCT 202                                                01 
01040020203000007NON       United States Senator                                   PAUL SADLER                           PCT 203                                                01 
01040020204000008NON       United States Senator                                   PAUL SADLER                           PCT 204                                                01 
01040020205000000NON       United States Senator                                   PAUL SADLER                           PCT 205                                                01 
01040020206000007NON       United States Senator                                   PAUL SADLER                           PCT 206                                                01 
01040020207000024NON       United States Senator                                   PAUL SADLER                           PCT 207                                                01 
01040020208000000NON       United States Senator                                   PAUL SADLER                           PCT 208                                                01 
01040020209000003NON       United States Senator                                   PAUL SADLER                           PCT 209                                                01 
01040020210000001NON       United States Senator                                   PAUL SADLER                           PCT 210                                                01 
01040020211000011NON       United States Senator                                   PAUL SADLER                           PCT 211                                                01 
01040020212000001NON       United States Senator                                   PAUL SADLER                           PCT 212                                                01 
01040020213000005NON       United States Senator                                   PAUL SADLER                           PCT 213                                                01 
01040020214000000NON       United States Senator                                   PAUL SADLER                           PCT 214                                                01 
01040020215000006NON       United States Senator                                   PAUL SADLER                           PCT 215                                                01 
01040020216000014NON       United States Senator                                   PAUL SADLER                           PCT 216                                                01 
01040020217000000NON       United States Senator                                   PAUL SADLER                           PCT 217                                                01 
01040020218000004NON       United States Senator                                   PAUL SADLER                           PCT 218                                                01 
01040020219000004NON       United States Senator                                   PAUL SADLER                           PCT 219                                                01 
01040020220000009NON       United States Senator                                   PAUL SADLER                           PCT 220                                                01 
01040020221000032NON       United States Senator                                   PAUL SADLER                           PCT 221                                                01 
01040020222000001NON       United States Senator                                   PAUL SADLER                           PCT 222                                                01 
01040020223000008NON       United States Senator                                   PAUL SADLER                           PCT 223                                                01 
01040020224000006NON       United States Senator                                   PAUL SADLER                           PCT 224                                                01 
01040020225000010NON       United States Senator                                   PAUL SADLER                           PCT 225                                                01 
01040020226000000NON       United States Senator                                   PAUL SADLER                           PCT 226                                                01 
01040020227000054NON       United States Senator                                   PAUL SADLER                           PCT 227                                                01 
01040020228000088NON       United States Senator                                   PAUL SADLER                           PCT 228                                                01 
01040020229000013NON       United States Senator                                   PAUL SADLER                           PCT 229                                                01 
01040020230000005NON       United States Senator                                   PAUL SADLER                           PCT 230                                                01 
01040020231000003NON       United States Senator                                   PAUL SADLER                           PCT 231                                                01 
01040020232000035NON       United States Senator                                   PAUL SADLER                           PCT 232                                                01 
01040020233000000NON       United States Senator                                   PAUL SADLER                           PCT 233                                                01 
01040020234000062NON       United States Senator                                   PAUL SADLER                           PCT 234                                                01 
01040020235000010NON       United States Senator                                   PAUL SADLER                           PCT 235                                                01 
01040020236000006NON       United States Senator                                   PAUL SADLER                           PCT 236                                                01 
01040020237000006NON       United States Senator                                   PAUL SADLER                           PCT 237                                                01 
01040020238000000NON       United States Senator                                   PAUL SADLER                           PCT 238                                                01 
01040020239000047NON       United States Senator                                   PAUL SADLER                           PCT 239                                                01 
01040020240000021NON       United States Senator                                   PAUL SADLER                           PCT 240                                                01 
01040020241000001NON       United States Senator                                   PAUL SADLER                           PCT 241                                                01 
01040020242000000NON       United States Senator                                   PAUL SADLER                           PCT 242                                                01 
01040020243000000NON       United States Senator                                   PAUL SADLER                           PCT 243                                                01 
01040020244000006NON       United States Senator                                   PAUL SADLER                           PCT 244                                                01 
01040020245000007NON       United States Senator                                   PAUL SADLER                           PCT 245                                                01 
01040020246000000NON       United States Senator                                   PAUL SADLER                           PCT 246                                                01 
01040020247000002NON       United States Senator                                   PAUL SADLER                           PCT 247                                                01 
01040020248000000NON       United States Senator                                   PAUL SADLER                           PCT 248                                                01 
01040020249000000NON       United States Senator                                   PAUL SADLER                           PCT 249                                                01 
01040020250000002NON       United States Senator                                   PAUL SADLER                           PCT 250                                                01 
01040020251000000NON       United States Senator                                   PAUL SADLER                           PCT 251                                                01 
01040020252000000NON       United States Senator                                   PAUL SADLER                           PCT 252                                                01 
01040020253000018NON       United States Senator                                   PAUL SADLER                           PCT 253                                                01 
01040020254000000NON       United States Senator                                   PAUL SADLER                           PCT 254                                                01 
01040020255000002NON       United States Senator                                   PAUL SADLER                           PCT 255                                                01 
01040020256000001NON       United States Senator                                   PAUL SADLER                           PCT 256                                                01 
01040020257000004NON       United States Senator                                   PAUL SADLER                           PCT 257                                                01 
01040030001000000          United States Senator                                   OVER VOTES                            PCT 001                                                01 
01040030002000000          United States Senator                                   OVER VOTES                            PCT 002                                                01 
01040030003000000          United States Senator                                   OVER VOTES                            PCT 003                                                01 
01040030004000000          United States Senator                                   OVER VOTES                            PCT 004                                                01 
01040030005000000          United States Senator                                   OVER VOTES                            PCT 005                                                01 
01040030006000000          United States Senator                                   OVER VOTES                            PCT 006                                                01 
01040030007000000          United States Senator                                   OVER VOTES                            PCT 007                                                01 
01040030008000000          United States Senator                                   OVER VOTES                            PCT 008                                                01 
01040030009000000          United States Senator                                   OVER VOTES                            PCT 009                                                01 
01040030010000000          United States Senator                                   OVER VOTES                            PCT 010                                                01 
01040030011000000          United States Senator                                   OVER VOTES                            PCT 011                                                01 
01040030012000000          United States Senator                                   OVER VOTES                            PCT 012                                                01 
01040030013000000          United States Senator                                   OVER VOTES                            PCT 013                                                01 
01040030014000000          United States Senator                                   OVER VOTES                            PCT 014                                                01 
01040030015000000          United States Senator                                   OVER VOTES                            PCT 015                                                01 
01040030016000000          United States Senator                                   OVER VOTES                            PCT 016                                                01 
01040030017000000          United States Senator                                   OVER VOTES                            PCT 017                                                01 
01040030018000000          United States Senator                                   OVER VOTES                            PCT 018                                                01 
01040030019000000          United States Senator                                   OVER VOTES                            PCT 019                                                01 
01040030020000000          United States Senator                                   OVER VOTES                            PCT 020                                                01 
01040030021000000          United States Senator                                   OVER VOTES                            PCT 021                                                01 
01040030022000000          United States Senator                                   OVER VOTES                            PCT 022                                                01 
01040030023000000          United States Senator                                   OVER VOTES                            PCT 023                                                01 
01040030024000000          United States Senator                                   OVER VOTES                            PCT 024                                                01 
01040030025000000          United States Senator                                   OVER VOTES                            PCT 025                                                01 
01040030026000000          United States Senator                                   OVER VOTES                            PCT 026                                                01 
01040030027000000          United States Senator                                   OVER VOTES                            PCT 027                                                01 
01040030028000000          United States Senator                                   OVER VOTES                            PCT 028                                                01 
01040030029000000          United States Senator                                   OVER VOTES                            PCT 029                                                01 
01040030030000000          United States Senator                                   OVER VOTES                            PCT 030                                                01 
01040030031000000          United States Senator                                   OVER VOTES                            PCT 031                                                01 
01040030032000000          United States Senator                                   OVER VOTES                            PCT 032                                                01 
01040030033000000          United States Senator                                   OVER VOTES                            PCT 033                                                01 
01040030034000000          United States Senator                                   OVER VOTES                            PCT 034                                                01 
01040030035000000          United States Senator                                   OVER VOTES                            PCT 035                                                01 
01040030036000000          United States Senator                                   OVER VOTES                            PCT 036                                                01 
01040030037000000          United States Senator                                   OVER VOTES                            PCT 037                                                01 
01040030038000000          United States Senator                                   OVER VOTES                            PCT 038                                                01 
