04500013091000531NONCTYHILLCITY OF HILL COUNTRY VILLAGE Proposition                FOR                                                                                          01Y
04500023091000068NONCTYHILLCITY OF HILL COUNTRY VILLAGE Proposition                AGAINST                                                                                      01Y
04500033091000000   CTYHILLCITY OF HILL COUNTRY VILLAGE Proposition                OVER VOTES                                                                                   01Y
04500043091000019   CTYHILLCITY OF HILL COUNTRY VILLAGE Proposition                UNDER VOTES                                                                                  01Y
