04500013091000329NONCTYHILLCITY OF HILL COUNTRY VILLAGE Proposition                FOR                                                                                          01Y
04500023091000048NONCTYHILLCITY OF HILL COUNTRY VILLAGE Proposition                AGAINST                                                                                      01Y
04500033091000000   CTYHILLCITY OF HILL COUNTRY VILLAGE Proposition                OVER VOTES                                                                                   01Y
04500043091000016   CTYHILLCITY OF HILL COUNTRY VILLAGE Proposition                UNDER VOTES                                                                                  01Y
