01030010001000000REP       President FEDERAL                                       Rick Santorum                         PCT 1                                                  01 
01030010002000002REP       President FEDERAL                                       Rick Santorum                         PCT 2                                                  01 
01030010003000001REP       President FEDERAL                                       Rick Santorum                         PCT 3                                                  01 
01030010004000014REP       President FEDERAL                                       Rick Santorum                         PCT 4                                                  01 
01030010005000008REP       President FEDERAL                                       Rick Santorum                         PCT 5                                                  01 
01030010006000002REP       President FEDERAL                                       Rick Santorum                         PCT 6                                                  01 
01030010007000011REP       President FEDERAL                                       Rick Santorum                         PCT 7                                                  01 
01030010008000000REP       President FEDERAL                                       Rick Santorum                         PCT 8                                                  01 
01030010009000035REP       President FEDERAL                                       Rick Santorum                         PCT 9                                                  01 
01030010010000001REP       President FEDERAL                                       Rick Santorum                         PCT 10                                                 01 
01030010011000000REP       President FEDERAL                                       Rick Santorum                         PCT 11                                                 01 
01030010012000000REP       President FEDERAL                                       Rick Santorum                         PCT 12                                                 01 
01030010013000000REP       President FEDERAL                                       Rick Santorum                         PCT 13                                                 01 
01030010014000000REP       President FEDERAL                                       Rick Santorum                         PCT 14                                                 01 
01030010015000000REP       President FEDERAL                                       Rick Santorum                         PCT 15                                                 01 
01030010016000001REP       President FEDERAL                                       Rick Santorum                         PCT 16                                                 01 
01030010017000010REP       President FEDERAL                                       Rick Santorum                         PCT 17                                                 01 
01030010018000000REP       President FEDERAL                                       Rick Santorum                         PCT 18                                                 01 
01030010019000002REP       President FEDERAL                                       Rick Santorum                         PCT 19                                                 01 
01030010020000000REP       President FEDERAL                                       Rick Santorum                         PCT 20                                                 01 
01030010021000001REP       President FEDERAL                                       Rick Santorum                         PCT 21                                                 01 
01030010022000034REP       President FEDERAL                                       Rick Santorum                         PCT 22                                                 01 
01030010023000005REP       President FEDERAL                                       Rick Santorum                         PCT 23                                                 01 
01030010024000004REP       President FEDERAL                                       Rick Santorum                         PCT 24                                                 01 
01030010025000013REP       President FEDERAL                                       Rick Santorum                         PCT 25                                                 01 
01030010026000017REP       President FEDERAL                                       Rick Santorum                         PCT 26                                                 01 
01030010027000007REP       President FEDERAL                                       Rick Santorum                         PCT 27                                                 01 
01030010028000002REP       President FEDERAL                                       Rick Santorum                         PCT 28                                                 01 
01030010029000013REP       President FEDERAL                                       Rick Santorum                         PCT 29                                                 01 
01030010030000009REP       President FEDERAL                                       Rick Santorum                         PCT 30                                                 01 
01030010031000010REP       President FEDERAL                                       Rick Santorum                         PCT 31                                                 01 
01030010032000002REP       President FEDERAL                                       Rick Santorum                         PCT 32                                                 01 
01030010033000007REP       President FEDERAL                                       Rick Santorum                         PCT 33                                                 01 
01030010034000002REP       President FEDERAL                                       Rick Santorum                         PCT 34                                                 01 
01030010035000005REP       President FEDERAL                                       Rick Santorum                         PCT 35                                                 01 
01030010036000010REP       President FEDERAL                                       Rick Santorum                         PCT 36                                                 01 
01030010037000020REP       President FEDERAL                                       Rick Santorum                         PCT 37                                                 01 
01030010038000018REP       President FEDERAL                                       Rick Santorum                         PCT 38                                                 01 
01030010039000000REP       President FEDERAL                                       Rick Santorum                         PCT 39                                                 01 
01030010040000027REP       President FEDERAL                                       Rick Santorum                         PCT 40                                                 01 
01030010041000000REP       President FEDERAL                                       Rick Santorum                         PCT 41                                                 01 
01030010042000033REP       President FEDERAL                                       Rick Santorum                         PCT 42                                                 01 
01030010043000023REP       President FEDERAL                                       Rick Santorum                         PCT 43                                                 01 
01030010044000005REP       President FEDERAL                                       Rick Santorum                         PCT 44                                                 01 
01030010045000006REP       President FEDERAL                                       Rick Santorum                         PCT 45                                                 01 
01030010046000002REP       President FEDERAL                                       Rick Santorum                         PCT 46                                                 01 
01030010047000010REP       President FEDERAL                                       Rick Santorum                         PCT 47                                                 01 
01030010048000001REP       President FEDERAL                                       Rick Santorum                         PCT 48                                                 01 
01030010049000000REP       President FEDERAL                                       Rick Santorum                         PCT 49                                                 01 
01030010050000006REP       President FEDERAL                                       Rick Santorum                         PCT 50                                                 01 
01030010051000000REP       President FEDERAL                                       Rick Santorum                         PCT 51                                                 01 
01030010052000001REP       President FEDERAL                                       Rick Santorum                         PCT 52                                                 01 
01030010053000000REP       President FEDERAL                                       Rick Santorum                         PCT 53                                                 01 
01030010054000000REP       President FEDERAL                                       Rick Santorum                         PCT 54                                                 01 
01030010055000000REP       President FEDERAL                                       Rick Santorum                         PCT 55                                                 01 
01030010056000025REP       President FEDERAL                                       Rick Santorum                         PCT 56                                                 01 
01030010057000001REP       President FEDERAL                                       Rick Santorum                         PCT 57                                                 01 
01030010058000000REP       President FEDERAL                                       Rick Santorum                         PCT 58                                                 01 
01030010059000001REP       President FEDERAL                                       Rick Santorum                         PCT 59                                                 01 
01030010060000033REP       President FEDERAL                                       Rick Santorum                         PCT 60                                                 01 
01030010061000008REP       President FEDERAL                                       Rick Santorum                         PCT 61                                                 01 
01030010062000034REP       President FEDERAL                                       Rick Santorum                         PCT 62                                                 01 
01030010063000000REP       President FEDERAL                                       Rick Santorum                         PCT 63                                                 01 
01030010064000007REP       President FEDERAL                                       Rick Santorum                         PCT 64                                                 01 
01030010065000028REP       President FEDERAL                                       Rick Santorum                         PCT 65                                                 01 
01030010066000020REP       President FEDERAL                                       Rick Santorum                         PCT 66                                                 01 
01030010067000002REP       President FEDERAL                                       Rick Santorum                         PCT 67                                                 01 
01030010068000024REP       President FEDERAL                                       Rick Santorum                         PCT 68                                                 01 
01030010069000037REP       President FEDERAL                                       Rick Santorum                         PCT 69                                                 01 
01030010070000007REP       President FEDERAL                                       Rick Santorum                         PCT 70                                                 01 
01030010071000000REP       President FEDERAL                                       Rick Santorum                         PCT 71                                                 01 
01030010072000012REP       President FEDERAL                                       Rick Santorum                         PCT 72                                                 01 
01030010073000051REP       President FEDERAL                                       Rick Santorum                         PCT 73                                                 01 
01030010074000030REP       President FEDERAL                                       Rick Santorum                         PCT 74                                                 01 
01030010075000000REP       President FEDERAL                                       Rick Santorum                         PCT 75                                                 01 
01030010076000000REP       President FEDERAL                                       Rick Santorum                         PCT 76                                                 01 
01030010077000001REP       President FEDERAL                                       Rick Santorum                         PCT 77                                                 01 
01030010078000015REP       President FEDERAL                                       Rick Santorum                         PCT 78                                                 01 
01030010079000022REP       President FEDERAL                                       Rick Santorum                         PCT 79                                                 01 
01030010080000002REP       President FEDERAL                                       Rick Santorum                         PCT 80                                                 01 
01030010081000000REP       President FEDERAL                                       Rick Santorum                         PCT 81                                                 01 
01030010082000009REP       President FEDERAL                                       Rick Santorum                         PCT 82                                                 01 
01030010083000012REP       President FEDERAL                                       Rick Santorum                         PCT 83                                                 01 
01030010084000000REP       President FEDERAL                                       Rick Santorum                         PCT 84                                                 01 
01030010085000004REP       President FEDERAL                                       Rick Santorum                         PCT 85                                                 01 
01030010086000009REP       President FEDERAL                                       Rick Santorum                         PCT 86                                                 01 
01030010087000003REP       President FEDERAL                                       Rick Santorum                         PCT 87                                                 01 
01030010088000002REP       President FEDERAL                                       Rick Santorum                         PCT 88                                                 01 
01030010089000001REP       President FEDERAL                                       Rick Santorum                         PCT 89                                                 01 
01030010090000001REP       President FEDERAL                                       Rick Santorum                         PCT 90                                                 01 
01030010091000012REP       President FEDERAL                                       Rick Santorum                         PCT 91                                                 01 
01030010092000012REP       President FEDERAL                                       Rick Santorum                         PCT 92                                                 01 
01030010093000000REP       President FEDERAL                                       Rick Santorum                         PCT 93                                                 01 
01030010094000031REP       President FEDERAL                                       Rick Santorum                         PCT 94                                                 01 
01030010095000004REP       President FEDERAL                                       Rick Santorum                         PCT 95                                                 01 
01030010096000000REP       President FEDERAL                                       Rick Santorum                         PCT 96                                                 01 
01030010097000000REP       President FEDERAL                                       Rick Santorum                         PCT 97                                                 01 
01030010098000000REP       President FEDERAL                                       Rick Santorum                         PCT 98                                                 01 
01030010099000000REP       President FEDERAL                                       Rick Santorum                         PCT 99                                                 01 
01030010100000026REP       President FEDERAL                                       Rick Santorum                         PCT 100                                                01 
01030010101000000REP       President FEDERAL                                       Rick Santorum                         PCT 101                                                01 
01030010102000001REP       President FEDERAL                                       Rick Santorum                         PCT 102                                                01 
01030010103000000REP       President FEDERAL                                       Rick Santorum                         PCT 103                                                01 
01030010104000001REP       President FEDERAL                                       Rick Santorum                         PCT 104                                                01 
01030010105000001REP       President FEDERAL                                       Rick Santorum                         PCT 105                                                01 
01030010106000000REP       President FEDERAL                                       Rick Santorum                         PCT 106                                                01 
01030010107000000REP       President FEDERAL                                       Rick Santorum                         PCT 107                                                01 
01030010108000007REP       President FEDERAL                                       Rick Santorum                         PCT 108                                                01 
01030010109000000REP       President FEDERAL                                       Rick Santorum                         PCT 109                                                01 
01030010110000000REP       President FEDERAL                                       Rick Santorum                         LIMITED BALLOT                                         01 
01030010111000000REP       President FEDERAL                                       Rick Santorum                         FEDERAL BALLOT                                         01 
01030020001000001REP       President FEDERAL                                       Jon Huntsman                          PCT 1                                                  01 
01030020002000000REP       President FEDERAL                                       Jon Huntsman                          PCT 2                                                  01 
01030020003000000REP       President FEDERAL                                       Jon Huntsman                          PCT 3                                                  01 
01030020004000002REP       President FEDERAL                                       Jon Huntsman                          PCT 4                                                  01 
01030020005000002REP       President FEDERAL                                       Jon Huntsman                          PCT 5                                                  01 
01030020006000001REP       President FEDERAL                                       Jon Huntsman                          PCT 6                                                  01 
01030020007000001REP       President FEDERAL                                       Jon Huntsman                          PCT 7                                                  01 
01030020008000001REP       President FEDERAL                                       Jon Huntsman                          PCT 8                                                  01 
01030020009000006REP       President FEDERAL                                       Jon Huntsman                          PCT 9                                                  01 
01030020010000000REP       President FEDERAL                                       Jon Huntsman                          PCT 10                                                 01 
01030020011000000REP       President FEDERAL                                       Jon Huntsman                          PCT 11                                                 01 
01030020012000000REP       President FEDERAL                                       Jon Huntsman                          PCT 12                                                 01 
01030020013000000REP       President FEDERAL                                       Jon Huntsman                          PCT 13                                                 01 
01030020014000000REP       President FEDERAL                                       Jon Huntsman                          PCT 14                                                 01 
01030020015000000REP       President FEDERAL                                       Jon Huntsman                          PCT 15                                                 01 
01030020016000000REP       President FEDERAL                                       Jon Huntsman                          PCT 16                                                 01 
01030020017000000REP       President FEDERAL                                       Jon Huntsman                          PCT 17                                                 01 
01030020018000000REP       President FEDERAL                                       Jon Huntsman                          PCT 18                                                 01 
01030020019000000REP       President FEDERAL                                       Jon Huntsman                          PCT 19                                                 01 
01030020020000001REP       President FEDERAL                                       Jon Huntsman                          PCT 20                                                 01 
01030020021000000REP       President FEDERAL                                       Jon Huntsman                          PCT 21                                                 01 
01030020022000001REP       President FEDERAL                                       Jon Huntsman                          PCT 22                                                 01 
01030020023000003REP       President FEDERAL                                       Jon Huntsman                          PCT 23                                                 01 
01030020024000000REP       President FEDERAL                                       Jon Huntsman                          PCT 24                                                 01 
01030020025000001REP       President FEDERAL                                       Jon Huntsman                          PCT 25                                                 01 
01030020026000001REP       President FEDERAL                                       Jon Huntsman                          PCT 26                                                 01 
01030020027000000REP       President FEDERAL                                       Jon Huntsman                          PCT 27                                                 01 
01030020028000000REP       President FEDERAL                                       Jon Huntsman                          PCT 28                                                 01 
01030020029000002REP       President FEDERAL                                       Jon Huntsman                          PCT 29                                                 01 
01030020030000002REP       President FEDERAL                                       Jon Huntsman                          PCT 30                                                 01 
01030020031000002REP       President FEDERAL                                       Jon Huntsman                          PCT 31                                                 01 
01030020032000000REP       President FEDERAL                                       Jon Huntsman                          PCT 32                                                 01 
01030020033000001REP       President FEDERAL                                       Jon Huntsman                          PCT 33                                                 01 
01030020034000000REP       President FEDERAL                                       Jon Huntsman                          PCT 34                                                 01 
01030020035000001REP       President FEDERAL                                       Jon Huntsman                          PCT 35                                                 01 
01030020036000001REP       President FEDERAL                                       Jon Huntsman                          PCT 36                                                 01 
01030020037000002REP       President FEDERAL                                       Jon Huntsman                          PCT 37                                                 01 
01030020038000000REP       President FEDERAL                                       Jon Huntsman                          PCT 38                                                 01 
01030020039000000REP       President FEDERAL                                       Jon Huntsman                          PCT 39                                                 01 
01030020040000002REP       President FEDERAL                                       Jon Huntsman                          PCT 40                                                 01 
01030020041000000REP       President FEDERAL                                       Jon Huntsman                          PCT 41                                                 01 
01030020042000003REP       President FEDERAL                                       Jon Huntsman                          PCT 42                                                 01 
01030020043000001REP       President FEDERAL                                       Jon Huntsman                          PCT 43                                                 01 
01030020044000000REP       President FEDERAL                                       Jon Huntsman                          PCT 44                                                 01 
01030020045000000REP       President FEDERAL                                       Jon Huntsman                          PCT 45                                                 01 
01030020046000000REP       President FEDERAL                                       Jon Huntsman                          PCT 46                                                 01 
01030020047000000REP       President FEDERAL                                       Jon Huntsman                          PCT 47                                                 01 
01030020048000000REP       President FEDERAL                                       Jon Huntsman                          PCT 48                                                 01 
01030020049000000REP       President FEDERAL                                       Jon Huntsman                          PCT 49                                                 01 
01030020050000001REP       President FEDERAL                                       Jon Huntsman                          PCT 50                                                 01 
01030020051000000REP       President FEDERAL                                       Jon Huntsman                          PCT 51                                                 01 
01030020052000000REP       President FEDERAL                                       Jon Huntsman                          PCT 52                                                 01 
01030020053000001REP       President FEDERAL                                       Jon Huntsman                          PCT 53                                                 01 
01030020054000000REP       President FEDERAL                                       Jon Huntsman                          PCT 54                                                 01 
01030020055000000REP       President FEDERAL                                       Jon Huntsman                          PCT 55                                                 01 
01030020056000002REP       President FEDERAL                                       Jon Huntsman                          PCT 56                                                 01 
01030020057000000REP       President FEDERAL                                       Jon Huntsman                          PCT 57                                                 01 
01030020058000000REP       President FEDERAL                                       Jon Huntsman                          PCT 58                                                 01 
01030020059000000REP       President FEDERAL                                       Jon Huntsman                          PCT 59                                                 01 
01030020060000002REP       President FEDERAL                                       Jon Huntsman                          PCT 60                                                 01 
01030020061000000REP       President FEDERAL                                       Jon Huntsman                          PCT 61                                                 01 
01030020062000005REP       President FEDERAL                                       Jon Huntsman                          PCT 62                                                 01 
01030020063000000REP       President FEDERAL                                       Jon Huntsman                          PCT 63                                                 01 
01030020064000000REP       President FEDERAL                                       Jon Huntsman                          PCT 64                                                 01 
01030020065000005REP       President FEDERAL                                       Jon Huntsman                          PCT 65                                                 01 
01030020066000002REP       President FEDERAL                                       Jon Huntsman                          PCT 66                                                 01 
01030020067000001REP       President FEDERAL                                       Jon Huntsman                          PCT 67                                                 01 
01030020068000003REP       President FEDERAL                                       Jon Huntsman                          PCT 68                                                 01 
01030020069000003REP       President FEDERAL                                       Jon Huntsman                          PCT 69                                                 01 
01030020070000002REP       President FEDERAL                                       Jon Huntsman                          PCT 70                                                 01 
01030020071000000REP       President FEDERAL                                       Jon Huntsman                          PCT 71                                                 01 
01030020072000001REP       President FEDERAL                                       Jon Huntsman                          PCT 72                                                 01 
01030020073000005REP       President FEDERAL                                       Jon Huntsman                          PCT 73                                                 01 
01030020074000002REP       President FEDERAL                                       Jon Huntsman                          PCT 74                                                 01 
01030020075000000REP       President FEDERAL                                       Jon Huntsman                          PCT 75                                                 01 
01030020076000000REP       President FEDERAL                                       Jon Huntsman                          PCT 76                                                 01 
01030020077000000REP       President FEDERAL                                       Jon Huntsman                          PCT 77                                                 01 
01030020078000003REP       President FEDERAL                                       Jon Huntsman                          PCT 78                                                 01 
01030020079000004REP       President FEDERAL                                       Jon Huntsman                          PCT 79                                                 01 
01030020080000001REP       President FEDERAL                                       Jon Huntsman                          PCT 80                                                 01 
01030020081000000REP       President FEDERAL                                       Jon Huntsman                          PCT 81                                                 01 
01030020082000001REP       President FEDERAL                                       Jon Huntsman                          PCT 82                                                 01 
01030020083000002REP       President FEDERAL                                       Jon Huntsman                          PCT 83                                                 01 
01030020084000000REP       President FEDERAL                                       Jon Huntsman                          PCT 84                                                 01 
01030020085000000REP       President FEDERAL                                       Jon Huntsman                          PCT 85                                                 01 
01030020086000001REP       President FEDERAL                                       Jon Huntsman                          PCT 86                                                 01 
01030020087000000REP       President FEDERAL                                       Jon Huntsman                          PCT 87                                                 01 
01030020088000001REP       President FEDERAL                                       Jon Huntsman                          PCT 88                                                 01 
01030020089000000REP       President FEDERAL                                       Jon Huntsman                          PCT 89                                                 01 
01030020090000000REP       President FEDERAL                                       Jon Huntsman                          PCT 90                                                 01 
01030020091000000REP       President FEDERAL                                       Jon Huntsman                          PCT 91                                                 01 
01030020092000001REP       President FEDERAL                                       Jon Huntsman                          PCT 92                                                 01 
01030020093000000REP       President FEDERAL                                       Jon Huntsman                          PCT 93                                                 01 
01030020094000009REP       President FEDERAL                                       Jon Huntsman                          PCT 94                                                 01 
01030020095000001REP       President FEDERAL                                       Jon Huntsman                          PCT 95                                                 01 
01030020096000000REP       President FEDERAL                                       Jon Huntsman                          PCT 96                                                 01 
01030020097000000REP       President FEDERAL                                       Jon Huntsman                          PCT 97                                                 01 
01030020098000000REP       President FEDERAL                                       Jon Huntsman                          PCT 98                                                 01 
01030020099000000REP       President FEDERAL                                       Jon Huntsman                          PCT 99                                                 01 
01030020100000002REP       President FEDERAL                                       Jon Huntsman                          PCT 100                                                01 
01030020101000000REP       President FEDERAL                                       Jon Huntsman                          PCT 101                                                01 
01030020102000000REP       President FEDERAL                                       Jon Huntsman                          PCT 102                                                01 
01030020103000000REP       President FEDERAL                                       Jon Huntsman                          PCT 103                                                01 
01030020104000000REP       President FEDERAL                                       Jon Huntsman                          PCT 104                                                01 
01030020105000000REP       President FEDERAL                                       Jon Huntsman                          PCT 105                                                01 
01030020106000000REP       President FEDERAL                                       Jon Huntsman                          PCT 106                                                01 
01030020107000000REP       President FEDERAL                                       Jon Huntsman                          PCT 107                                                01 
01030020108000000REP       President FEDERAL                                       Jon Huntsman                          PCT 108                                                01 
01030020109000000REP       President FEDERAL                                       Jon Huntsman                          PCT 109                                                01 
01030020110000000REP       President FEDERAL                                       Jon Huntsman                          LIMITED BALLOT                                         01 
01030020111000000REP       President FEDERAL                                       Jon Huntsman                          FEDERAL BALLOT                                         01 
01030030001000013REP       President FEDERAL                                       Mitt Romney                           PCT 1                                                  01 
01030030002000032REP       President FEDERAL                                       Mitt Romney                           PCT 2                                                  01 
01030030003000006REP       President FEDERAL                                       Mitt Romney                           PCT 3                                                  01 
01030030004000242REP       President FEDERAL                                       Mitt Romney                           PCT 4                                                  01 
01030030005000165REP       President FEDERAL                                       Mitt Romney                           PCT 5                                                  01 
01030030006000044REP       President FEDERAL                                       Mitt Romney                           PCT 6                                                  01 
01030030007000109REP       President FEDERAL                                       Mitt Romney                           PCT 7                                                  01 
01030030008000003REP       President FEDERAL                                       Mitt Romney                           PCT 8                                                  01 
01030030009000382REP       President FEDERAL                                       Mitt Romney                           PCT 9                                                  01 
01030030010000009REP       President FEDERAL                                       Mitt Romney                           PCT 10                                                 01 
01030030011000003REP       President FEDERAL                                       Mitt Romney                           PCT 11                                                 01 
01030030012000002REP       President FEDERAL                                       Mitt Romney                           PCT 12                                                 01 
01030030013000001REP       President FEDERAL                                       Mitt Romney                           PCT 13                                                 01 
01030030014000005REP       President FEDERAL                                       Mitt Romney                           PCT 14                                                 01 
01030030015000006REP       President FEDERAL                                       Mitt Romney                           PCT 15                                                 01 
01030030016000003REP       President FEDERAL                                       Mitt Romney                           PCT 16                                                 01 
01030030017000134REP       President FEDERAL                                       Mitt Romney                           PCT 17                                                 01 
01030030018000003REP       President FEDERAL                                       Mitt Romney                           PCT 18                                                 01 
01030030019000006REP       President FEDERAL                                       Mitt Romney                           PCT 19                                                 01 
01030030020000003REP       President FEDERAL                                       Mitt Romney                           PCT 20                                                 01 
01030030021000008REP       President FEDERAL                                       Mitt Romney                           PCT 21                                                 01 
01030030022000207REP       President FEDERAL                                       Mitt Romney                           PCT 22                                                 01 
01030030023000101REP       President FEDERAL                                       Mitt Romney                           PCT 23                                                 01 
01030030024000034REP       President FEDERAL                                       Mitt Romney                           PCT 24                                                 01 
01030030025000160REP       President FEDERAL                                       Mitt Romney                           PCT 25                                                 01 
01030030026000227REP       President FEDERAL                                       Mitt Romney                           PCT 26                                                 01 
01030030027000104REP       President FEDERAL                                       Mitt Romney                           PCT 27                                                 01 
01030030028000023REP       President FEDERAL                                       Mitt Romney                           PCT 28                                                 01 
01030030029000108REP       President FEDERAL                                       Mitt Romney                           PCT 29                                                 01 
01030030030000066REP       President FEDERAL                                       Mitt Romney                           PCT 30                                                 01 
01030030031000107REP       President FEDERAL                                       Mitt Romney                           PCT 31                                                 01 
01030030032000012REP       President FEDERAL                                       Mitt Romney                           PCT 32                                                 01 
01030030033000115REP       President FEDERAL                                       Mitt Romney                           PCT 33                                                 01 
01030030034000009REP       President FEDERAL                                       Mitt Romney                           PCT 34                                                 01 
01030030035000058REP       President FEDERAL                                       Mitt Romney                           PCT 35                                                 01 
01030030036000107REP       President FEDERAL                                       Mitt Romney                           PCT 36                                                 01 
01030030037000161REP       President FEDERAL                                       Mitt Romney                           PCT 37                                                 01 
01030030038000202REP       President FEDERAL                                       Mitt Romney                           PCT 38                                                 01 
01030030039000002REP       President FEDERAL                                       Mitt Romney                           PCT 39                                                 01 
01030030040000183REP       President FEDERAL                                       Mitt Romney                           PCT 40                                                 01 
01030030041000005REP       President FEDERAL                                       Mitt Romney                           PCT 41                                                 01 
01030030042000168REP       President FEDERAL                                       Mitt Romney                           PCT 42                                                 01 
01030030043000134REP       President FEDERAL                                       Mitt Romney                           PCT 43                                                 01 
01030030044000054REP       President FEDERAL                                       Mitt Romney                           PCT 44                                                 01 
01030030045000040REP       President FEDERAL                                       Mitt Romney                           PCT 45                                                 01 
01030030046000034REP       President FEDERAL                                       Mitt Romney                           PCT 46                                                 01 
01030030047000039REP       President FEDERAL                                       Mitt Romney                           PCT 47                                                 01 
01030030048000012REP       President FEDERAL                                       Mitt Romney                           PCT 48                                                 01 
01030030049000006REP       President FEDERAL                                       Mitt Romney                           PCT 49                                                 01 
01030030050000024REP       President FEDERAL                                       Mitt Romney                           PCT 50                                                 01 
01030030051000003REP       President FEDERAL                                       Mitt Romney                           PCT 51                                                 01 
01030030052000000REP       President FEDERAL                                       Mitt Romney                           PCT 52                                                 01 
01030030053000011REP       President FEDERAL                                       Mitt Romney                           PCT 53                                                 01 
01030030054000000REP       President FEDERAL                                       Mitt Romney                           PCT 54                                                 01 
01030030055000000REP       President FEDERAL                                       Mitt Romney                           PCT 55                                                 01 
01030030056000281REP       President FEDERAL                                       Mitt Romney                           PCT 56                                                 01 
01030030057000001REP       President FEDERAL                                       Mitt Romney                           PCT 57                                                 01 
01030030058000005REP       President FEDERAL                                       Mitt Romney                           PCT 58                                                 01 
01030030059000001REP       President FEDERAL                                       Mitt Romney                           PCT 59                                                 01 
01030030060000146REP       President FEDERAL                                       Mitt Romney                           PCT 60                                                 01 
01030030061000100REP       President FEDERAL                                       Mitt Romney                           PCT 61                                                 01 
01030030062000405REP       President FEDERAL                                       Mitt Romney                           PCT 62                                                 01 
01030030063000001REP       President FEDERAL                                       Mitt Romney                           PCT 63                                                 01 
01030030064000027REP       President FEDERAL                                       Mitt Romney                           PCT 64                                                 01 
01030030065000445REP       President FEDERAL                                       Mitt Romney                           PCT 65                                                 01 
01030030066000233REP       President FEDERAL                                       Mitt Romney                           PCT 66                                                 01 
01030030067000024REP       President FEDERAL                                       Mitt Romney                           PCT 67                                                 01 
01030030068000264REP       President FEDERAL                                       Mitt Romney                           PCT 68                                                 01 
01030030069000226REP       President FEDERAL                                       Mitt Romney                           PCT 69                                                 01 
01030030070000070REP       President FEDERAL                                       Mitt Romney                           PCT 70                                                 01 
01030030071000008REP       President FEDERAL                                       Mitt Romney                           PCT 71                                                 01 
01030030072000096REP       President FEDERAL                                       Mitt Romney                           PCT 72                                                 01 
01030030073000455REP       President FEDERAL                                       Mitt Romney                           PCT 73                                                 01 
01030030074000239REP       President FEDERAL                                       Mitt Romney                           PCT 74                                                 01 
01030030075000005REP       President FEDERAL                                       Mitt Romney                           PCT 75                                                 01 
01030030076000009REP       President FEDERAL                                       Mitt Romney                           PCT 76                                                 01 
01030030077000008REP       President FEDERAL                                       Mitt Romney                           PCT 77                                                 01 
01030030078000110REP       President FEDERAL                                       Mitt Romney                           PCT 78                                                 01 
01030030079000277REP       President FEDERAL                                       Mitt Romney                           PCT 79                                                 01 
01030030080000015REP       President FEDERAL                                       Mitt Romney                           PCT 80                                                 01 
01030030081000002REP       President FEDERAL                                       Mitt Romney                           PCT 81                                                 01 
01030030082000112REP       President FEDERAL                                       Mitt Romney                           PCT 82                                                 01 
01030030083000124REP       President FEDERAL                                       Mitt Romney                           PCT 83                                                 01 
01030030084000004REP       President FEDERAL                                       Mitt Romney                           PCT 84                                                 01 
01030030085000015REP       President FEDERAL                                       Mitt Romney                           PCT 85                                                 01 
01030030086000112REP       President FEDERAL                                       Mitt Romney                           PCT 86                                                 01 
01030030087000013REP       President FEDERAL                                       Mitt Romney                           PCT 87                                                 01 
01030030088000034REP       President FEDERAL                                       Mitt Romney                           PCT 88                                                 01 
01030030089000014REP       President FEDERAL                                       Mitt Romney                           PCT 89                                                 01 
01030030090000003REP       President FEDERAL                                       Mitt Romney                           PCT 90                                                 01 
01030030091000063REP       President FEDERAL                                       Mitt Romney                           PCT 91                                                 01 
01030030092000068REP       President FEDERAL                                       Mitt Romney                           PCT 92                                                 01 
01030030093000010REP       President FEDERAL                                       Mitt Romney                           PCT 93                                                 01 
01030030094000395REP       President FEDERAL                                       Mitt Romney                           PCT 94                                                 01 
01030030095000032REP       President FEDERAL                                       Mitt Romney                           PCT 95                                                 01 
01030030096000009REP       President FEDERAL                                       Mitt Romney                           PCT 96                                                 01 
01030030097000000REP       President FEDERAL                                       Mitt Romney                           PCT 97                                                 01 
01030030098000007REP       President FEDERAL                                       Mitt Romney                           PCT 98                                                 01 
01030030099000023REP       President FEDERAL                                       Mitt Romney                           PCT 99                                                 01 
01030030100000308REP       President FEDERAL                                       Mitt Romney                           PCT 100                                                01 
01030030101000000REP       President FEDERAL                                       Mitt Romney                           PCT 101                                                01 
01030030102000011REP       President FEDERAL                                       Mitt Romney                           PCT 102                                                01 
01030030103000000REP       President FEDERAL                                       Mitt Romney                           PCT 103                                                01 
01030030104000012REP       President FEDERAL                                       Mitt Romney                           PCT 104                                                01 
01030030105000001REP       President FEDERAL                                       Mitt Romney                           PCT 105                                                01 
01030030106000003REP       President FEDERAL                                       Mitt Romney                           PCT 106                                                01 
01030030107000000REP       President FEDERAL                                       Mitt Romney                           PCT 107                                                01 
01030030108000025REP       President FEDERAL                                       Mitt Romney                           PCT 108                                                01 
01030030109000011REP       President FEDERAL                                       Mitt Romney                           PCT 109                                                01 
01030030110000001REP       President FEDERAL                                       Mitt Romney                           LIMITED BALLOT                                         01 
01030030111000000REP       President FEDERAL                                       Mitt Romney                           FEDERAL BALLOT                                         01 
01030040001000000REP       President FEDERAL                                       Newt Gingrich                         PCT 1                                                  01 
01030040002000003REP       President FEDERAL                                       Newt Gingrich                         PCT 2                                                  01 
01030040003000001REP       President FEDERAL                                       Newt Gingrich                         PCT 3                                                  01 
01030040004000019REP       President FEDERAL                                       Newt Gingrich                         PCT 4                                                  01 
01030040005000014REP       President FEDERAL                                       Newt Gingrich                         PCT 5                                                  01 
01030040006000002REP       President FEDERAL                                       Newt Gingrich                         PCT 6                                                  01 
01030040007000010REP       President FEDERAL                                       Newt Gingrich                         PCT 7                                                  01 
01030040008000000REP       President FEDERAL                                       Newt Gingrich                         PCT 8                                                  01 
01030040009000028REP       President FEDERAL                                       Newt Gingrich                         PCT 9                                                  01 
01030040010000000REP       President FEDERAL                                       Newt Gingrich                         PCT 10                                                 01 
01030040011000000REP       President FEDERAL                                       Newt Gingrich                         PCT 11                                                 01 
01030040012000000REP       President FEDERAL                                       Newt Gingrich                         PCT 12                                                 01 
01030040013000001REP       President FEDERAL                                       Newt Gingrich                         PCT 13                                                 01 
01030040014000000REP       President FEDERAL                                       Newt Gingrich                         PCT 14                                                 01 
01030040015000000REP       President FEDERAL                                       Newt Gingrich                         PCT 15                                                 01 
01030040016000000REP       President FEDERAL                                       Newt Gingrich                         PCT 16                                                 01 
01030040017000007REP       President FEDERAL                                       Newt Gingrich                         PCT 17                                                 01 
01030040018000000REP       President FEDERAL                                       Newt Gingrich                         PCT 18                                                 01 
01030040019000003REP       President FEDERAL                                       Newt Gingrich                         PCT 19                                                 01 
01030040020000002REP       President FEDERAL                                       Newt Gingrich                         PCT 20                                                 01 
01030040021000001REP       President FEDERAL                                       Newt Gingrich                         PCT 21                                                 01 
01030040022000012REP       President FEDERAL                                       Newt Gingrich                         PCT 22                                                 01 
01030040023000008REP       President FEDERAL                                       Newt Gingrich                         PCT 23                                                 01 
01030040024000001REP       President FEDERAL                                       Newt Gingrich                         PCT 24                                                 01 
01030040025000013REP       President FEDERAL                                       Newt Gingrich                         PCT 25                                                 01 
01030040026000016REP       President FEDERAL                                       Newt Gingrich                         PCT 26                                                 01 
01030040027000004REP       President FEDERAL                                       Newt Gingrich                         PCT 27                                                 01 
01030040028000000REP       President FEDERAL                                       Newt Gingrich                         PCT 28                                                 01 
01030040029000015REP       President FEDERAL                                       Newt Gingrich                         PCT 29                                                 01 
01030040030000004REP       President FEDERAL                                       Newt Gingrich                         PCT 30                                                 01 
01030040031000006REP       President FEDERAL                                       Newt Gingrich                         PCT 31                                                 01 
01030040032000000REP       President FEDERAL                                       Newt Gingrich                         PCT 32                                                 01 
01030040033000004REP       President FEDERAL                                       Newt Gingrich                         PCT 33                                                 01 
01030040034000000REP       President FEDERAL                                       Newt Gingrich                         PCT 34                                                 01 
01030040035000002REP       President FEDERAL                                       Newt Gingrich                         PCT 35                                                 01 
01030040036000008REP       President FEDERAL                                       Newt Gingrich                         PCT 36                                                 01 
01030040037000019REP       President FEDERAL                                       Newt Gingrich                         PCT 37                                                 01 
01030040038000015REP       President FEDERAL                                       Newt Gingrich                         PCT 38                                                 01 
01030040039000000REP       President FEDERAL                                       Newt Gingrich                         PCT 39                                                 01 
01030040040000017REP       President FEDERAL                                       Newt Gingrich                         PCT 40                                                 01 
01030040041000002REP       President FEDERAL                                       Newt Gingrich                         PCT 41                                                 01 
01030040042000006REP       President FEDERAL                                       Newt Gingrich                         PCT 42                                                 01 
01030040043000013REP       President FEDERAL                                       Newt Gingrich                         PCT 43                                                 01 
01030040044000006REP       President FEDERAL                                       Newt Gingrich                         PCT 44                                                 01 
01030040045000003REP       President FEDERAL                                       Newt Gingrich                         PCT 45                                                 01 
01030040046000002REP       President FEDERAL                                       Newt Gingrich                         PCT 46                                                 01 
01030040047000005REP       President FEDERAL                                       Newt Gingrich                         PCT 47                                                 01 
01030040048000001REP       President FEDERAL                                       Newt Gingrich                         PCT 48                                                 01 
01030040049000000REP       President FEDERAL                                       Newt Gingrich                         PCT 49                                                 01 
01030040050000000REP       President FEDERAL                                       Newt Gingrich                         PCT 50                                                 01 
01030040051000000REP       President FEDERAL                                       Newt Gingrich                         PCT 51                                                 01 
01030040052000000REP       President FEDERAL                                       Newt Gingrich                         PCT 52                                                 01 
01030040053000000REP       President FEDERAL                                       Newt Gingrich                         PCT 53                                                 01 
01030040054000001REP       President FEDERAL                                       Newt Gingrich                         PCT 54                                                 01 
01030040055000000REP       President FEDERAL                                       Newt Gingrich                         PCT 55                                                 01 
01030040056000021REP       President FEDERAL                                       Newt Gingrich                         PCT 56                                                 01 
01030040057000000REP       President FEDERAL                                       Newt Gingrich                         PCT 57                                                 01 
01030040058000000REP       President FEDERAL                                       Newt Gingrich                         PCT 58                                                 01 
01030040059000000REP       President FEDERAL                                       Newt Gingrich                         PCT 59                                                 01 
01030040060000016REP       President FEDERAL                                       Newt Gingrich                         PCT 60                                                 01 
01030040061000004REP       President FEDERAL                                       Newt Gingrich                         PCT 61                                                 01 
01030040062000024REP       President FEDERAL                                       Newt Gingrich                         PCT 62                                                 01 
01030040063000000REP       President FEDERAL                                       Newt Gingrich                         PCT 63                                                 01 
01030040064000000REP       President FEDERAL                                       Newt Gingrich                         PCT 64                                                 01 
01030040065000017REP       President FEDERAL                                       Newt Gingrich                         PCT 65                                                 01 
01030040066000020REP       President FEDERAL                                       Newt Gingrich                         PCT 66                                                 01 
01030040067000001REP       President FEDERAL                                       Newt Gingrich                         PCT 67                                                 01 
01030040068000009REP       President FEDERAL                                       Newt Gingrich                         PCT 68                                                 01 
01030040069000014REP       President FEDERAL                                       Newt Gingrich                         PCT 69                                                 01 
01030040070000009REP       President FEDERAL                                       Newt Gingrich                         PCT 70                                                 01 
01030040071000002REP       President FEDERAL                                       Newt Gingrich                         PCT 71                                                 01 
01030040072000011REP       President FEDERAL                                       Newt Gingrich                         PCT 72                                                 01 
01030040073000035REP       President FEDERAL                                       Newt Gingrich                         PCT 73                                                 01 
01030040074000015REP       President FEDERAL                                       Newt Gingrich                         PCT 74                                                 01 
01030040075000002REP       President FEDERAL                                       Newt Gingrich                         PCT 75                                                 01 
01030040076000002REP       President FEDERAL                                       Newt Gingrich                         PCT 76                                                 01 
01030040077000000REP       President FEDERAL                                       Newt Gingrich                         PCT 77                                                 01 
01030040078000006REP       President FEDERAL                                       Newt Gingrich                         PCT 78                                                 01 
01030040079000015REP       President FEDERAL                                       Newt Gingrich                         PCT 79                                                 01 
01030040080000002REP       President FEDERAL                                       Newt Gingrich                         PCT 80                                                 01 
01030040081000000REP       President FEDERAL                                       Newt Gingrich                         PCT 81                                                 01 
01030040082000008REP       President FEDERAL                                       Newt Gingrich                         PCT 82                                                 01 
01030040083000009REP       President FEDERAL                                       Newt Gingrich                         PCT 83                                                 01 
01030040084000000REP       President FEDERAL                                       Newt Gingrich                         PCT 84                                                 01 
01030040085000001REP       President FEDERAL                                       Newt Gingrich                         PCT 85                                                 01 
01030040086000005REP       President FEDERAL                                       Newt Gingrich                         PCT 86                                                 01 
01030040087000001REP       President FEDERAL                                       Newt Gingrich                         PCT 87                                                 01 
01030040088000005REP       President FEDERAL                                       Newt Gingrich                         PCT 88                                                 01 
01030040089000001REP       President FEDERAL                                       Newt Gingrich                         PCT 89                                                 01 
01030040090000000REP       President FEDERAL                                       Newt Gingrich                         PCT 90                                                 01 
01030040091000006REP       President FEDERAL                                       Newt Gingrich                         PCT 91                                                 01 
01030040092000004REP       President FEDERAL                                       Newt Gingrich                         PCT 92                                                 01 
01030040093000001REP       President FEDERAL                                       Newt Gingrich                         PCT 93                                                 01 
01030040094000025REP       President FEDERAL                                       Newt Gingrich                         PCT 94                                                 01 
01030040095000001REP       President FEDERAL                                       Newt Gingrich                         PCT 95                                                 01 
01030040096000001REP       President FEDERAL                                       Newt Gingrich                         PCT 96                                                 01 
01030040097000000REP       President FEDERAL                                       Newt Gingrich                         PCT 97                                                 01 
01030040098000000REP       President FEDERAL                                       Newt Gingrich                         PCT 98                                                 01 
01030040099000003REP       President FEDERAL                                       Newt Gingrich                         PCT 99                                                 01 
01030040100000024REP       President FEDERAL                                       Newt Gingrich                         PCT 100                                                01 
01030040101000000REP       President FEDERAL                                       Newt Gingrich                         PCT 101                                                01 
01030040102000001REP       President FEDERAL                                       Newt Gingrich                         PCT 102                                                01 
01030040103000000REP       President FEDERAL                                       Newt Gingrich                         PCT 103                                                01 
01030040104000000REP       President FEDERAL                                       Newt Gingrich                         PCT 104                                                01 
01030040105000000REP       President FEDERAL                                       Newt Gingrich                         PCT 105                                                01 
01030040106000000REP       President FEDERAL                                       Newt Gingrich                         PCT 106                                                01 
01030040107000000REP       President FEDERAL                                       Newt Gingrich                         PCT 107                                                01 
01030040108000002REP       President FEDERAL                                       Newt Gingrich                         PCT 108                                                01 
01030040109000001REP       President FEDERAL                                       Newt Gingrich                         PCT 109                                                01 
01030040110000001REP       President FEDERAL                                       Newt Gingrich                         LIMITED BALLOT                                         01 
01030040111000000REP       President FEDERAL                                       Newt Gingrich                         FEDERAL BALLOT                                         01 
01030050001000000REP       President FEDERAL                                       John Davis                            PCT 1                                                  01 
01030050002000003REP       President FEDERAL                                       John Davis                            PCT 2                                                  01 
01030050003000001REP       President FEDERAL                                       John Davis                            PCT 3                                                  01 
01030050004000000REP       President FEDERAL                                       John Davis                            PCT 4                                                  01 
01030050005000000REP       President FEDERAL                                       John Davis                            PCT 5                                                  01 
01030050006000001REP       President FEDERAL                                       John Davis                            PCT 6                                                  01 
01030050007000001REP       President FEDERAL                                       John Davis                            PCT 7                                                  01 
01030050008000000REP       President FEDERAL                                       John Davis                            PCT 8                                                  01 
01030050009000000REP       President FEDERAL                                       John Davis                            PCT 9                                                  01 
01030050010000000REP       President FEDERAL                                       John Davis                            PCT 10                                                 01 
01030050011000000REP       President FEDERAL                                       John Davis                            PCT 11                                                 01 
01030050012000001REP       President FEDERAL                                       John Davis                            PCT 12                                                 01 
01030050013000000REP       President FEDERAL                                       John Davis                            PCT 13                                                 01 
01030050014000000REP       President FEDERAL                                       John Davis                            PCT 14                                                 01 
01030050015000000REP       President FEDERAL                                       John Davis                            PCT 15                                                 01 
01030050016000000REP       President FEDERAL                                       John Davis                            PCT 16                                                 01 
01030050017000000REP       President FEDERAL                                       John Davis                            PCT 17                                                 01 
01030050018000000REP       President FEDERAL                                       John Davis                            PCT 18                                                 01 
01030050019000001REP       President FEDERAL                                       John Davis                            PCT 19                                                 01 
01030050020000000REP       President FEDERAL                                       John Davis                            PCT 20                                                 01 
01030050021000000REP       President FEDERAL                                       John Davis                            PCT 21                                                 01 
01030050022000000REP       President FEDERAL                                       John Davis                            PCT 22                                                 01 
01030050023000001REP       President FEDERAL                                       John Davis                            PCT 23                                                 01 
01030050024000000REP       President FEDERAL                                       John Davis                            PCT 24                                                 01 
01030050025000002REP       President FEDERAL                                       John Davis                            PCT 25                                                 01 
01030050026000000REP       President FEDERAL                                       John Davis                            PCT 26                                                 01 
01030050027000000REP       President FEDERAL                                       John Davis                            PCT 27                                                 01 
01030050028000000REP       President FEDERAL                                       John Davis                            PCT 28                                                 01 
01030050029000000REP       President FEDERAL                                       John Davis                            PCT 29                                                 01 
01030050030000000REP       President FEDERAL                                       John Davis                            PCT 30                                                 01 
01030050031000000REP       President FEDERAL                                       John Davis                            PCT 31                                                 01 
01030050032000000REP       President FEDERAL                                       John Davis                            PCT 32                                                 01 
01030050033000000REP       President FEDERAL                                       John Davis                            PCT 33                                                 01 
01030050034000000REP       President FEDERAL                                       John Davis                            PCT 34                                                 01 
01030050035000001REP       President FEDERAL                                       John Davis                            PCT 35                                                 01 
01030050036000000REP       President FEDERAL                                       John Davis                            PCT 36                                                 01 
01030050037000000REP       President FEDERAL                                       John Davis                            PCT 37                                                 01 
01030050038000000REP       President FEDERAL                                       John Davis                            PCT 38                                                 01 
01030050039000000REP       President FEDERAL                                       John Davis                            PCT 39                                                 01 
01030050040000002REP       President FEDERAL                                       John Davis                            PCT 40                                                 01 
01030050041000000REP       President FEDERAL                                       John Davis                            PCT 41                                                 01 
01030050042000001REP       President FEDERAL                                       John Davis                            PCT 42                                                 01 
01030050043000000REP       President FEDERAL                                       John Davis                            PCT 43                                                 01 
01030050044000002REP       President FEDERAL                                       John Davis                            PCT 44                                                 01 
01030050045000000REP       President FEDERAL                                       John Davis                            PCT 45                                                 01 
01030050046000000REP       President FEDERAL                                       John Davis                            PCT 46                                                 01 
01030050047000001REP       President FEDERAL                                       John Davis                            PCT 47                                                 01 
01030050048000000REP       President FEDERAL                                       John Davis                            PCT 48                                                 01 
01030050049000001REP       President FEDERAL                                       John Davis                            PCT 49                                                 01 
01030050050000000REP       President FEDERAL                                       John Davis                            PCT 50                                                 01 
01030050051000000REP       President FEDERAL                                       John Davis                            PCT 51                                                 01 
01030050052000000REP       President FEDERAL                                       John Davis                            PCT 52                                                 01 
01030050053000000REP       President FEDERAL                                       John Davis                            PCT 53                                                 01 
01030050054000000REP       President FEDERAL                                       John Davis                            PCT 54                                                 01 
01030050055000000REP       President FEDERAL                                       John Davis                            PCT 55                                                 01 
01030050056000000REP       President FEDERAL                                       John Davis                            PCT 56                                                 01 
01030050057000000REP       President FEDERAL                                       John Davis                            PCT 57                                                 01 
01030050058000000REP       President FEDERAL                                       John Davis                            PCT 58                                                 01 
01030050059000001REP       President FEDERAL                                       John Davis                            PCT 59                                                 01 
01030050060000000REP       President FEDERAL                                       John Davis                            PCT 60                                                 01 
01030050061000000REP       President FEDERAL                                       John Davis                            PCT 61                                                 01 
01030050062000000REP       President FEDERAL                                       John Davis                            PCT 62                                                 01 
01030050063000000REP       President FEDERAL                                       John Davis                            PCT 63                                                 01 
01030050064000000REP       President FEDERAL                                       John Davis                            PCT 64                                                 01 
01030050065000000REP       President FEDERAL                                       John Davis                            PCT 65                                                 01 
01030050066000000REP       President FEDERAL                                       John Davis                            PCT 66                                                 01 
01030050067000000REP       President FEDERAL                                       John Davis                            PCT 67                                                 01 
01030050068000000REP       President FEDERAL                                       John Davis                            PCT 68                                                 01 
01030050069000000REP       President FEDERAL                                       John Davis                            PCT 69                                                 01 
01030050070000000REP       President FEDERAL                                       John Davis                            PCT 70                                                 01 
01030050071000000REP       President FEDERAL                                       John Davis                            PCT 71                                                 01 
01030050072000000REP       President FEDERAL                                       John Davis                            PCT 72                                                 01 
01030050073000000REP       President FEDERAL                                       John Davis                            PCT 73                                                 01 
01030050074000000REP       President FEDERAL                                       John Davis                            PCT 74                                                 01 
01030050075000000REP       President FEDERAL                                       John Davis                            PCT 75                                                 01 
01030050076000000REP       President FEDERAL                                       John Davis                            PCT 76                                                 01 
01030050077000000REP       President FEDERAL                                       John Davis                            PCT 77                                                 01 
01030050078000000REP       President FEDERAL                                       John Davis                            PCT 78                                                 01 
01030050079000002REP       President FEDERAL                                       John Davis                            PCT 79                                                 01 
01030050080000000REP       President FEDERAL                                       John Davis                            PCT 80                                                 01 
01030050081000000REP       President FEDERAL                                       John Davis                            PCT 81                                                 01 
01030050082000001REP       President FEDERAL                                       John Davis                            PCT 82                                                 01 
01030050083000000REP       President FEDERAL                                       John Davis                            PCT 83                                                 01 
01030050084000000REP       President FEDERAL                                       John Davis                            PCT 84                                                 01 
01030050085000000REP       President FEDERAL                                       John Davis                            PCT 85                                                 01 
01030050086000000REP       President FEDERAL                                       John Davis                            PCT 86                                                 01 
01030050087000000REP       President FEDERAL                                       John Davis                            PCT 87                                                 01 
01030050088000002REP       President FEDERAL                                       John Davis                            PCT 88                                                 01 
01030050089000000REP       President FEDERAL                                       John Davis                            PCT 89                                                 01 
01030050090000000REP       President FEDERAL                                       John Davis                            PCT 90                                                 01 
01030050091000000REP       President FEDERAL                                       John Davis                            PCT 91                                                 01 
01030050092000000REP       President FEDERAL                                       John Davis                            PCT 92                                                 01 
01030050093000000REP       President FEDERAL                                       John Davis                            PCT 93                                                 01 
01030050094000001REP       President FEDERAL                                       John Davis                            PCT 94                                                 01 
01030050095000000REP       President FEDERAL                                       John Davis                            PCT 95                                                 01 
01030050096000000REP       President FEDERAL                                       John Davis                            PCT 96                                                 01 
01030050097000000REP       President FEDERAL                                       John Davis                            PCT 97                                                 01 
01030050098000000REP       President FEDERAL                                       John Davis                            PCT 98                                                 01 
01030050099000000REP       President FEDERAL                                       John Davis                            PCT 99                                                 01 
01030050100000000REP       President FEDERAL                                       John Davis                            PCT 100                                                01 
01030050101000000REP       President FEDERAL                                       John Davis                            PCT 101                                                01 
01030050102000000REP       President FEDERAL                                       John Davis                            PCT 102                                                01 
01030050103000000REP       President FEDERAL                                       John Davis                            PCT 103                                                01 
01030050104000000REP       President FEDERAL                                       John Davis                            PCT 104                                                01 
01030050105000000REP       President FEDERAL                                       John Davis                            PCT 105                                                01 
01030050106000000REP       President FEDERAL                                       John Davis                            PCT 106                                                01 
01030050107000000REP       President FEDERAL                                       John Davis                            PCT 107                                                01 
01030050108000000REP       President FEDERAL                                       John Davis                            PCT 108                                                01 
