01250010001000004DEM       President FEDERAL                                       Darcy G. Richardson                   PCT 1                                                  01 
01250010002000002DEM       President FEDERAL                                       Darcy G. Richardson                   PCT 2                                                  01 
01250010003000002DEM       President FEDERAL                                       Darcy G. Richardson                   PCT 3                                                  01 
01250010004000005DEM       President FEDERAL                                       Darcy G. Richardson                   PCT 4                                                  01 
01250010005000004DEM       President FEDERAL                                       Darcy G. Richardson                   PCT 5                                                  01 
01250010006000004DEM       President FEDERAL                                       Darcy G. Richardson                   PCT 6                                                  01 
01250010007000004DEM       President FEDERAL                                       Darcy G. Richardson                   PCT 7                                                  01 
01250010008000001DEM       President FEDERAL                                       Darcy G. Richardson                   PCT 8                                                  01 
01250010009000046DEM       President FEDERAL                                       Darcy G. Richardson                   PCT 9                                                  01 
01250010010000001DEM       President FEDERAL                                       Darcy G. Richardson                   PCT 10                                                 01 
01250010011000002DEM       President FEDERAL                                       Darcy G. Richardson                   PCT 11                                                 01 
01250010012000001DEM       President FEDERAL                                       Darcy G. Richardson                   PCT 12                                                 01 
01250010013000001DEM       President FEDERAL                                       Darcy G. Richardson                   PCT 13                                                 01 
01250010014000001DEM       President FEDERAL                                       Darcy G. Richardson                   PCT 14                                                 01 
01250010015000000DEM       President FEDERAL                                       Darcy G. Richardson                   PCT 15                                                 01 
01250010016000001DEM       President FEDERAL                                       Darcy G. Richardson                   PCT 16                                                 01 
01250010017000007DEM       President FEDERAL                                       Darcy G. Richardson                   PCT 17                                                 01 
01250010018000001DEM       President FEDERAL                                       Darcy G. Richardson                   PCT 18                                                 01 
01250010019000003DEM       President FEDERAL                                       Darcy G. Richardson                   PCT 19                                                 01 
01250010020000002DEM       President FEDERAL                                       Darcy G. Richardson                   PCT 20                                                 01 
01250010021000000DEM       President FEDERAL                                       Darcy G. Richardson                   PCT 21                                                 01 
01250010022000008DEM       President FEDERAL                                       Darcy G. Richardson                   PCT 22                                                 01 
01250010023000008DEM       President FEDERAL                                       Darcy G. Richardson                   PCT 23                                                 01 
01250010024000005DEM       President FEDERAL                                       Darcy G. Richardson                   PCT 24                                                 01 
01250010025000015DEM       President FEDERAL                                       Darcy G. Richardson                   PCT 25                                                 01 
01250010026000010DEM       President FEDERAL                                       Darcy G. Richardson                   PCT 26                                                 01 
01250010027000004DEM       President FEDERAL                                       Darcy G. Richardson                   PCT 27                                                 01 
01250010028000005DEM       President FEDERAL                                       Darcy G. Richardson                   PCT 28                                                 01 
01250010029000027DEM       President FEDERAL                                       Darcy G. Richardson                   PCT 29                                                 01 
01250010030000022DEM       President FEDERAL                                       Darcy G. Richardson                   PCT 30                                                 01 
01250010031000015DEM       President FEDERAL                                       Darcy G. Richardson                   PCT 31                                                 01 
01250010032000005DEM       President FEDERAL                                       Darcy G. Richardson                   PCT 32                                                 01 
01250010033000018DEM       President FEDERAL                                       Darcy G. Richardson                   PCT 33                                                 01 
01250010034000001DEM       President FEDERAL                                       Darcy G. Richardson                   PCT 34                                                 01 
01250010035000006DEM       President FEDERAL                                       Darcy G. Richardson                   PCT 35                                                 01 
01250010036000005DEM       President FEDERAL                                       Darcy G. Richardson                   PCT 36                                                 01 
01250010037000020DEM       President FEDERAL                                       Darcy G. Richardson                   PCT 37                                                 01 
01250010038000021DEM       President FEDERAL                                       Darcy G. Richardson                   PCT 38                                                 01 
01250010039000006DEM       President FEDERAL                                       Darcy G. Richardson                   PCT 39                                                 01 
01250010040000030DEM       President FEDERAL                                       Darcy G. Richardson                   PCT 40                                                 01 
01250010041000002DEM       President FEDERAL                                       Darcy G. Richardson                   PCT 41                                                 01 
01250010042000022DEM       President FEDERAL                                       Darcy G. Richardson                   PCT 42                                                 01 
01250010043000024DEM       President FEDERAL                                       Darcy G. Richardson                   PCT 43                                                 01 
01250010044000005DEM       President FEDERAL                                       Darcy G. Richardson                   PCT 44                                                 01 
01250010045000007DEM       President FEDERAL                                       Darcy G. Richardson                   PCT 45                                                 01 
01250010046000011DEM       President FEDERAL                                       Darcy G. Richardson                   PCT 46                                                 01 
01250010047000006DEM       President FEDERAL                                       Darcy G. Richardson                   PCT 47                                                 01 
01250010048000003DEM       President FEDERAL                                       Darcy G. Richardson                   PCT 48                                                 01 
01250010049000001DEM       President FEDERAL                                       Darcy G. Richardson                   PCT 49                                                 01 
01250010050000006DEM       President FEDERAL                                       Darcy G. Richardson                   PCT 50                                                 01 
01250010051000000DEM       President FEDERAL                                       Darcy G. Richardson                   PCT 51                                                 01 
01250010052000000DEM       President FEDERAL                                       Darcy G. Richardson                   PCT 52                                                 01 
01250010053000002DEM       President FEDERAL                                       Darcy G. Richardson                   PCT 53                                                 01 
01250010054000000DEM       President FEDERAL                                       Darcy G. Richardson                   PCT 54                                                 01 
01250010055000000DEM       President FEDERAL                                       Darcy G. Richardson                   PCT 55                                                 01 
01250010056000025DEM       President FEDERAL                                       Darcy G. Richardson                   PCT 56                                                 01 
01250010057000001DEM       President FEDERAL                                       Darcy G. Richardson                   PCT 57                                                 01 
01250010058000000DEM       President FEDERAL                                       Darcy G. Richardson                   PCT 58                                                 01 
01250010059000001DEM       President FEDERAL                                       Darcy G. Richardson                   PCT 59                                                 01 
01250010060000020DEM       President FEDERAL                                       Darcy G. Richardson                   PCT 60                                                 01 
01250010061000014DEM       President FEDERAL                                       Darcy G. Richardson                   PCT 61                                                 01 
01250010062000008DEM       President FEDERAL                                       Darcy G. Richardson                   PCT 62                                                 01 
01250010063000003DEM       President FEDERAL                                       Darcy G. Richardson                   PCT 63                                                 01 
01250010064000004DEM       President FEDERAL                                       Darcy G. Richardson                   PCT 64                                                 01 
01250010065000004DEM       President FEDERAL                                       Darcy G. Richardson                   PCT 65                                                 01 
01250010066000016DEM       President FEDERAL                                       Darcy G. Richardson                   PCT 66                                                 01 
01250010067000006DEM       President FEDERAL                                       Darcy G. Richardson                   PCT 67                                                 01 
01250010068000003DEM       President FEDERAL                                       Darcy G. Richardson                   PCT 68                                                 01 
01250010069000029DEM       President FEDERAL                                       Darcy G. Richardson                   PCT 69                                                 01 
01250010070000007DEM       President FEDERAL                                       Darcy G. Richardson                   PCT 70                                                 01 
01250010071000001DEM       President FEDERAL                                       Darcy G. Richardson                   PCT 71                                                 01 
01250010072000005DEM       President FEDERAL                                       Darcy G. Richardson                   PCT 72                                                 01 
01250010073000010DEM       President FEDERAL                                       Darcy G. Richardson                   PCT 73                                                 01 
01250010074000046DEM       President FEDERAL                                       Darcy G. Richardson                   PCT 74                                                 01 
01250010075000001DEM       President FEDERAL                                       Darcy G. Richardson                   PCT 75                                                 01 
01250010076000001DEM       President FEDERAL                                       Darcy G. Richardson                   PCT 76                                                 01 
01250010077000001DEM       President FEDERAL                                       Darcy G. Richardson                   PCT 77                                                 01 
01250010078000008DEM       President FEDERAL                                       Darcy G. Richardson                   PCT 78                                                 01 
01250010079000010DEM       President FEDERAL                                       Darcy G. Richardson                   PCT 79                                                 01 
01250010080000002DEM       President FEDERAL                                       Darcy G. Richardson                   PCT 80                                                 01 
01250010081000001DEM       President FEDERAL                                       Darcy G. Richardson                   PCT 81                                                 01 
01250010082000010DEM       President FEDERAL                                       Darcy G. Richardson                   PCT 82                                                 01 
01250010083000008DEM       President FEDERAL                                       Darcy G. Richardson                   PCT 83                                                 01 
01250010084000001DEM       President FEDERAL                                       Darcy G. Richardson                   PCT 84                                                 01 
01250010085000005DEM       President FEDERAL                                       Darcy G. Richardson                   PCT 85                                                 01 
01250010086000005DEM       President FEDERAL                                       Darcy G. Richardson                   PCT 86                                                 01 
01250010087000002DEM       President FEDERAL                                       Darcy G. Richardson                   PCT 87                                                 01 
01250010088000000DEM       President FEDERAL                                       Darcy G. Richardson                   PCT 88                                                 01 
01250010089000001DEM       President FEDERAL                                       Darcy G. Richardson                   PCT 89                                                 01 
01250010090000001DEM       President FEDERAL                                       Darcy G. Richardson                   PCT 90                                                 01 
01250010091000003DEM       President FEDERAL                                       Darcy G. Richardson                   PCT 91                                                 01 
01250010092000008DEM       President FEDERAL                                       Darcy G. Richardson                   PCT 92                                                 01 
01250010093000006DEM       President FEDERAL                                       Darcy G. Richardson                   PCT 93                                                 01 
01250010094000010DEM       President FEDERAL                                       Darcy G. Richardson                   PCT 94                                                 01 
01250010095000005DEM       President FEDERAL                                       Darcy G. Richardson                   PCT 95                                                 01 
01250010096000003DEM       President FEDERAL                                       Darcy G. Richardson                   PCT 96                                                 01 
01250010097000000DEM       President FEDERAL                                       Darcy G. Richardson                   PCT 97                                                 01 
01250010098000002DEM       President FEDERAL                                       Darcy G. Richardson                   PCT 98                                                 01 
01250010099000000DEM       President FEDERAL                                       Darcy G. Richardson                   PCT 99                                                 01 
01250010100000006DEM       President FEDERAL                                       Darcy G. Richardson                   PCT 100                                                01 
01250010101000000DEM       President FEDERAL                                       Darcy G. Richardson                   PCT 101                                                01 
01250010102000002DEM       President FEDERAL                                       Darcy G. Richardson                   PCT 102                                                01 
01250010103000000DEM       President FEDERAL                                       Darcy G. Richardson                   PCT 103                                                01 
01250010104000000DEM       President FEDERAL                                       Darcy G. Richardson                   PCT 104                                                01 
01250010105000000DEM       President FEDERAL                                       Darcy G. Richardson                   PCT 105                                                01 
01250010106000000DEM       President FEDERAL                                       Darcy G. Richardson                   PCT 106                                                01 
01250010107000000DEM       President FEDERAL                                       Darcy G. Richardson                   PCT 107                                                01 
01250010108000005DEM       President FEDERAL                                       Darcy G. Richardson                   PCT 108                                                01 
01250010109000000DEM       President FEDERAL                                       Darcy G. Richardson                   PCT 109                                                01 
01250010110000000DEM       President FEDERAL                                       Darcy G. Richardson                   LIMITED BALLOT                                         01 
01250010111000000DEM       President FEDERAL                                       Darcy G. Richardson                   FEDERAL BALLOT                                         01 
01250020001000000DEM       President FEDERAL                                       Bob Ely                               PCT 1                                                  01 
01250020002000001DEM       President FEDERAL                                       Bob Ely                               PCT 2                                                  01 
01250020003000000DEM       President FEDERAL                                       Bob Ely                               PCT 3                                                  01 
01250020004000004DEM       President FEDERAL                                       Bob Ely                               PCT 4                                                  01 
01250020005000004DEM       President FEDERAL                                       Bob Ely                               PCT 5                                                  01 
01250020006000002DEM       President FEDERAL                                       Bob Ely                               PCT 6                                                  01 
01250020007000002DEM       President FEDERAL                                       Bob Ely                               PCT 7                                                  01 
01250020008000001DEM       President FEDERAL                                       Bob Ely                               PCT 8                                                  01 
01250020009000021DEM       President FEDERAL                                       Bob Ely                               PCT 9                                                  01 
01250020010000001DEM       President FEDERAL                                       Bob Ely                               PCT 10                                                 01 
01250020011000001DEM       President FEDERAL                                       Bob Ely                               PCT 11                                                 01 
01250020012000001DEM       President FEDERAL                                       Bob Ely                               PCT 12                                                 01 
01250020013000000DEM       President FEDERAL                                       Bob Ely                               PCT 13                                                 01 
01250020014000001DEM       President FEDERAL                                       Bob Ely                               PCT 14                                                 01 
01250020015000001DEM       President FEDERAL                                       Bob Ely                               PCT 15                                                 01 
01250020016000000DEM       President FEDERAL                                       Bob Ely                               PCT 16                                                 01 
01250020017000009DEM       President FEDERAL                                       Bob Ely                               PCT 17                                                 01 
01250020018000000DEM       President FEDERAL                                       Bob Ely                               PCT 18                                                 01 
01250020019000002DEM       President FEDERAL                                       Bob Ely                               PCT 19                                                 01 
01250020020000002DEM       President FEDERAL                                       Bob Ely                               PCT 20                                                 01 
01250020021000000DEM       President FEDERAL                                       Bob Ely                               PCT 21                                                 01 
01250020022000008DEM       President FEDERAL                                       Bob Ely                               PCT 22                                                 01 
01250020023000004DEM       President FEDERAL                                       Bob Ely                               PCT 23                                                 01 
01250020024000004DEM       President FEDERAL                                       Bob Ely                               PCT 24                                                 01 
01250020025000008DEM       President FEDERAL                                       Bob Ely                               PCT 25                                                 01 
01250020026000007DEM       President FEDERAL                                       Bob Ely                               PCT 26                                                 01 
01250020027000001DEM       President FEDERAL                                       Bob Ely                               PCT 27                                                 01 
01250020028000002DEM       President FEDERAL                                       Bob Ely                               PCT 28                                                 01 
01250020029000023DEM       President FEDERAL                                       Bob Ely                               PCT 29                                                 01 
01250020030000011DEM       President FEDERAL                                       Bob Ely                               PCT 30                                                 01 
01250020031000010DEM       President FEDERAL                                       Bob Ely                               PCT 31                                                 01 
01250020032000001DEM       President FEDERAL                                       Bob Ely                               PCT 32                                                 01 
01250020033000006DEM       President FEDERAL                                       Bob Ely                               PCT 33                                                 01 
01250020034000001DEM       President FEDERAL                                       Bob Ely                               PCT 34                                                 01 
01250020035000001DEM       President FEDERAL                                       Bob Ely                               PCT 35                                                 01 
01250020036000005DEM       President FEDERAL                                       Bob Ely                               PCT 36                                                 01 
01250020037000016DEM       President FEDERAL                                       Bob Ely                               PCT 37                                                 01 
01250020038000007DEM       President FEDERAL                                       Bob Ely                               PCT 38                                                 01 
01250020039000003DEM       President FEDERAL                                       Bob Ely                               PCT 39                                                 01 
01250020040000008DEM       President FEDERAL                                       Bob Ely                               PCT 40                                                 01 
01250020041000000DEM       President FEDERAL                                       Bob Ely                               PCT 41                                                 01 
01250020042000015DEM       President FEDERAL                                       Bob Ely                               PCT 42                                                 01 
01250020043000011DEM       President FEDERAL                                       Bob Ely                               PCT 43                                                 01 
01250020044000004DEM       President FEDERAL                                       Bob Ely                               PCT 44                                                 01 
01250020045000005DEM       President FEDERAL                                       Bob Ely                               PCT 45                                                 01 
01250020046000003DEM       President FEDERAL                                       Bob Ely                               PCT 46                                                 01 
01250020047000001DEM       President FEDERAL                                       Bob Ely                               PCT 47                                                 01 
01250020048000004DEM       President FEDERAL                                       Bob Ely                               PCT 48                                                 01 
01250020049000000DEM       President FEDERAL                                       Bob Ely                               PCT 49                                                 01 
01250020050000003DEM       President FEDERAL                                       Bob Ely                               PCT 50                                                 01 
01250020051000000DEM       President FEDERAL                                       Bob Ely                               PCT 51                                                 01 
01250020052000000DEM       President FEDERAL                                       Bob Ely                               PCT 52                                                 01 
01250020053000002DEM       President FEDERAL                                       Bob Ely                               PCT 53                                                 01 
01250020054000000DEM       President FEDERAL                                       Bob Ely                               PCT 54                                                 01 
01250020055000001DEM       President FEDERAL                                       Bob Ely                               PCT 55                                                 01 
01250020056000018DEM       President FEDERAL                                       Bob Ely                               PCT 56                                                 01 
01250020057000001DEM       President FEDERAL                                       Bob Ely                               PCT 57                                                 01 
01250020058000001DEM       President FEDERAL                                       Bob Ely                               PCT 58                                                 01 
01250020059000002DEM       President FEDERAL                                       Bob Ely                               PCT 59                                                 01 
01250020060000009DEM       President FEDERAL                                       Bob Ely                               PCT 60                                                 01 
01250020061000006DEM       President FEDERAL                                       Bob Ely                               PCT 61                                                 01 
01250020062000004DEM       President FEDERAL                                       Bob Ely                               PCT 62                                                 01 
01250020063000000DEM       President FEDERAL                                       Bob Ely                               PCT 63                                                 01 
01250020064000000DEM       President FEDERAL                                       Bob Ely                               PCT 64                                                 01 
01250020065000007DEM       President FEDERAL                                       Bob Ely                               PCT 65                                                 01 
01250020066000003DEM       President FEDERAL                                       Bob Ely                               PCT 66                                                 01 
01250020067000002DEM       President FEDERAL                                       Bob Ely                               PCT 67                                                 01 
01250020068000006DEM       President FEDERAL                                       Bob Ely                               PCT 68                                                 01 
01250020069000011DEM       President FEDERAL                                       Bob Ely                               PCT 69                                                 01 
01250020070000004DEM       President FEDERAL                                       Bob Ely                               PCT 70                                                 01 
01250020071000000DEM       President FEDERAL                                       Bob Ely                               PCT 71                                                 01 
01250020072000003DEM       President FEDERAL                                       Bob Ely                               PCT 72                                                 01 
01250020073000010DEM       President FEDERAL                                       Bob Ely                               PCT 73                                                 01 
01250020074000013DEM       President FEDERAL                                       Bob Ely                               PCT 74                                                 01 
01250020075000000DEM       President FEDERAL                                       Bob Ely                               PCT 75                                                 01 
01250020076000000DEM       President FEDERAL                                       Bob Ely                               PCT 76                                                 01 
01250020077000000DEM       President FEDERAL                                       Bob Ely                               PCT 77                                                 01 
01250020078000002DEM       President FEDERAL                                       Bob Ely                               PCT 78                                                 01 
01250020079000004DEM       President FEDERAL                                       Bob Ely                               PCT 79                                                 01 
01250020080000006DEM       President FEDERAL                                       Bob Ely                               PCT 80                                                 01 
01250020081000001DEM       President FEDERAL                                       Bob Ely                               PCT 81                                                 01 
01250020082000002DEM       President FEDERAL                                       Bob Ely                               PCT 82                                                 01 
01250020083000004DEM       President FEDERAL                                       Bob Ely                               PCT 83                                                 01 
01250020084000001DEM       President FEDERAL                                       Bob Ely                               PCT 84                                                 01 
01250020085000000DEM       President FEDERAL                                       Bob Ely                               PCT 85                                                 01 
01250020086000002DEM       President FEDERAL                                       Bob Ely                               PCT 86                                                 01 
01250020087000000DEM       President FEDERAL                                       Bob Ely                               PCT 87                                                 01 
01250020088000002DEM       President FEDERAL                                       Bob Ely                               PCT 88                                                 01 
01250020089000001DEM       President FEDERAL                                       Bob Ely                               PCT 89                                                 01 
01250020090000000DEM       President FEDERAL                                       Bob Ely                               PCT 90                                                 01 
01250020091000002DEM       President FEDERAL                                       Bob Ely                               PCT 91                                                 01 
01250020092000003DEM       President FEDERAL                                       Bob Ely                               PCT 92                                                 01 
01250020093000002DEM       President FEDERAL                                       Bob Ely                               PCT 93                                                 01 
01250020094000009DEM       President FEDERAL                                       Bob Ely                               PCT 94                                                 01 
01250020095000004DEM       President FEDERAL                                       Bob Ely                               PCT 95                                                 01 
01250020096000004DEM       President FEDERAL                                       Bob Ely                               PCT 96                                                 01 
01250020097000000DEM       President FEDERAL                                       Bob Ely                               PCT 97                                                 01 
01250020098000001DEM       President FEDERAL                                       Bob Ely                               PCT 98                                                 01 
01250020099000001DEM       President FEDERAL                                       Bob Ely                               PCT 99                                                 01 
01250020100000003DEM       President FEDERAL                                       Bob Ely                               PCT 100                                                01 
01250020101000000DEM       President FEDERAL                                       Bob Ely                               PCT 101                                                01 
01250020102000000DEM       President FEDERAL                                       Bob Ely                               PCT 102                                                01 
01250020103000000DEM       President FEDERAL                                       Bob Ely                               PCT 103                                                01 
01250020104000000DEM       President FEDERAL                                       Bob Ely                               PCT 104                                                01 
01250020105000000DEM       President FEDERAL                                       Bob Ely                               PCT 105                                                01 
01250020106000000DEM       President FEDERAL                                       Bob Ely                               PCT 106                                                01 
01250020107000000DEM       President FEDERAL                                       Bob Ely                               PCT 107                                                01 
01250020108000003DEM       President FEDERAL                                       Bob Ely                               PCT 108                                                01 
01250020109000000DEM       President FEDERAL                                       Bob Ely                               PCT 109                                                01 
01250020110000000DEM       President FEDERAL                                       Bob Ely                               LIMITED BALLOT                                         01 
01250020111000000DEM       President FEDERAL                                       Bob Ely                               FEDERAL BALLOT                                         01 
01250030001000241DEM       President FEDERAL                                       Barack Obama                          PCT 1                                                  01 
01250030002000101DEM       President FEDERAL                                       Barack Obama                          PCT 2                                                  01 
01250030003000270DEM       President FEDERAL                                       Barack Obama                          PCT 3                                                  01 
01250030004000083DEM       President FEDERAL                                       Barack Obama                          PCT 4                                                  01 
01250030005000150DEM       President FEDERAL                                       Barack Obama                          PCT 5                                                  01 
01250030006000100DEM       President FEDERAL                                       Barack Obama                          PCT 6                                                  01 
01250030007000076DEM       President FEDERAL                                       Barack Obama                          PCT 7                                                  01 
01250030008000083DEM       President FEDERAL                                       Barack Obama                          PCT 8                                                  01 
01250030009000144DEM       President FEDERAL                                       Barack Obama                          PCT 9                                                  01 
01250030010000072DEM       President FEDERAL                                       Barack Obama                          PCT 10                                                 01 
01250030011000056DEM       President FEDERAL                                       Barack Obama                          PCT 11                                                 01 
01250030012000120DEM       President FEDERAL                                       Barack Obama                          PCT 12                                                 01 
01250030013000063DEM       President FEDERAL                                       Barack Obama                          PCT 13                                                 01 
01250030014000214DEM       President FEDERAL                                       Barack Obama                          PCT 14                                                 01 
01250030015000179DEM       President FEDERAL                                       Barack Obama                          PCT 15                                                 01 
01250030016000037DEM       President FEDERAL                                       Barack Obama                          PCT 16                                                 01 
01250030017000244DEM       President FEDERAL                                       Barack Obama                          PCT 17                                                 01 
01250030018000289DEM       President FEDERAL                                       Barack Obama                          PCT 18                                                 01 
01250030019000234DEM       President FEDERAL                                       Barack Obama                          PCT 19                                                 01 
01250030020000124DEM       President FEDERAL                                       Barack Obama                          PCT 20                                                 01 
01250030021000012DEM       President FEDERAL                                       Barack Obama                          PCT 21                                                 01 
01250030022000332DEM       President FEDERAL                                       Barack Obama                          PCT 22                                                 01 
01250030023000337DEM       President FEDERAL                                       Barack Obama                          PCT 23                                                 01 
01250030024000014DEM       President FEDERAL                                       Barack Obama                          PCT 24                                                 01 
01250030025000088DEM       President FEDERAL                                       Barack Obama                          PCT 25                                                 01 
01250030026000132DEM       President FEDERAL                                       Barack Obama                          PCT 26                                                 01 
01250030027000081DEM       President FEDERAL                                       Barack Obama                          PCT 27                                                 01 
01250030028000116DEM       President FEDERAL                                       Barack Obama                          PCT 28                                                 01 
01250030029000048DEM       President FEDERAL                                       Barack Obama                          PCT 29                                                 01 
01250030030000042DEM       President FEDERAL                                       Barack Obama                          PCT 30                                                 01 
01250030031000038DEM       President FEDERAL                                       Barack Obama                          PCT 31                                                 01 
01250030032000009DEM       President FEDERAL                                       Barack Obama                          PCT 32                                                 01 
01250030033000110DEM       President FEDERAL                                       Barack Obama                          PCT 33                                                 01 
01250030034000429DEM       President FEDERAL                                       Barack Obama                          PCT 34                                                 01 
01250030035000020DEM       President FEDERAL                                       Barack Obama                          PCT 35                                                 01 
01250030036000047DEM       President FEDERAL                                       Barack Obama                          PCT 36                                                 01 
01250030037000091DEM       President FEDERAL                                       Barack Obama                          PCT 37                                                 01 
01250030038000083DEM       President FEDERAL                                       Barack Obama                          PCT 38                                                 01 
01250030039000544DEM       President FEDERAL                                       Barack Obama                          PCT 39                                                 01 
01250030040000107DEM       President FEDERAL                                       Barack Obama                          PCT 40                                                 01 
01250030041000010DEM       President FEDERAL                                       Barack Obama                          PCT 41                                                 01 
01250030042000079DEM       President FEDERAL                                       Barack Obama                          PCT 42                                                 01 
01250030043000074DEM       President FEDERAL                                       Barack Obama                          PCT 43                                                 01 
01250030044000058DEM       President FEDERAL                                       Barack Obama                          PCT 44                                                 01 
01250030045000111DEM       President FEDERAL                                       Barack Obama                          PCT 45                                                 01 
01250030046000138DEM       President FEDERAL                                       Barack Obama                          PCT 46                                                 01 
01250030047000134DEM       President FEDERAL                                       Barack Obama                          PCT 47                                                 01 
01250030048000085DEM       President FEDERAL                                       Barack Obama                          PCT 48                                                 01 
01250030049000037DEM       President FEDERAL                                       Barack Obama                          PCT 49                                                 01 
01250030050000322DEM       President FEDERAL                                       Barack Obama                          PCT 50                                                 01 
01250030051000041DEM       President FEDERAL                                       Barack Obama                          PCT 51                                                 01 
01250030052000066DEM       President FEDERAL                                       Barack Obama                          PCT 52                                                 01 
01250030053000207DEM       President FEDERAL                                       Barack Obama                          PCT 53                                                 01 
01250030054000075DEM       President FEDERAL                                       Barack Obama                          PCT 54                                                 01 
01250030055000074DEM       President FEDERAL                                       Barack Obama                          PCT 55                                                 01 
01250030056000080DEM       President FEDERAL                                       Barack Obama                          PCT 56                                                 01 
01250030057000143DEM       President FEDERAL                                       Barack Obama                          PCT 57                                                 01 
01250030058000006DEM       President FEDERAL                                       Barack Obama                          PCT 58                                                 01 
01250030059000222DEM       President FEDERAL                                       Barack Obama                          PCT 59                                                 01 
01250030060000082DEM       President FEDERAL                                       Barack Obama                          PCT 60                                                 01 
01250030061000071DEM       President FEDERAL                                       Barack Obama                          PCT 61                                                 01 
01250030062000129DEM       President FEDERAL                                       Barack Obama                          PCT 62                                                 01 
01250030063000237DEM       President FEDERAL                                       Barack Obama                          PCT 63                                                 01 
01250030064000169DEM       President FEDERAL                                       Barack Obama                          PCT 64                                                 01 
01250030065000095DEM       President FEDERAL                                       Barack Obama                          PCT 65                                                 01 
01250030066000080DEM       President FEDERAL                                       Barack Obama                          PCT 66                                                 01 
01250030067000443DEM       President FEDERAL                                       Barack Obama                          PCT 67                                                 01 
01250030068000125DEM       President FEDERAL                                       Barack Obama                          PCT 68                                                 01 
01250030069000109DEM       President FEDERAL                                       Barack Obama                          PCT 69                                                 01 
01250030070000201DEM       President FEDERAL                                       Barack Obama                          PCT 70                                                 01 
01250030071000003DEM       President FEDERAL                                       Barack Obama                          PCT 71                                                 01 
01250030072000158DEM       President FEDERAL                                       Barack Obama                          PCT 72                                                 01 
01250030073000133DEM       President FEDERAL                                       Barack Obama                          PCT 73                                                 01 
01250030074000099DEM       President FEDERAL                                       Barack Obama                          PCT 74                                                 01 
01250030075000041DEM       President FEDERAL                                       Barack Obama                          PCT 75                                                 01 
01250030076000078DEM       President FEDERAL                                       Barack Obama                          PCT 76                                                 01 
01250030077000196DEM       President FEDERAL                                       Barack Obama                          PCT 77                                                 01 
01250030078000186DEM       President FEDERAL                                       Barack Obama                          PCT 78                                                 01 
01250030079000132DEM       President FEDERAL                                       Barack Obama                          PCT 79                                                 01 
01250030080000011DEM       President FEDERAL                                       Barack Obama                          PCT 80                                                 01 
01250030081000149DEM       President FEDERAL                                       Barack Obama                          PCT 81                                                 01 
01250030082000191DEM       President FEDERAL                                       Barack Obama                          PCT 82                                                 01 
01250030083000032DEM       President FEDERAL                                       Barack Obama                          PCT 83                                                 01 
01250030084000246DEM       President FEDERAL                                       Barack Obama                          PCT 84                                                 01 
01250030085000325DEM       President FEDERAL                                       Barack Obama                          PCT 85                                                 01 
01250030086000083DEM       President FEDERAL                                       Barack Obama                          PCT 86                                                 01 
01250030087000125DEM       President FEDERAL                                       Barack Obama                          PCT 87                                                 01 
01250030088000062DEM       President FEDERAL                                       Barack Obama                          PCT 88                                                 01 
01250030089000040DEM       President FEDERAL                                       Barack Obama                          PCT 89                                                 01 
01250030090000014DEM       President FEDERAL                                       Barack Obama                          PCT 90                                                 01 
01250030091000011DEM       President FEDERAL                                       Barack Obama                          PCT 91                                                 01 
01250030092000064DEM       President FEDERAL                                       Barack Obama                          PCT 92                                                 01 
01250030093000109DEM       President FEDERAL                                       Barack Obama                          PCT 93                                                 01 
01250030094000096DEM       President FEDERAL                                       Barack Obama                          PCT 94                                                 01 
01250030095000032DEM       President FEDERAL                                       Barack Obama                          PCT 95                                                 01 
01250030096000062DEM       President FEDERAL                                       Barack Obama                          PCT 96                                                 01 
01250030097000000DEM       President FEDERAL                                       Barack Obama                          PCT 97                                                 01 
01250030098000001DEM       President FEDERAL                                       Barack Obama                          PCT 98                                                 01 
01250030099000041DEM       President FEDERAL                                       Barack Obama                          PCT 99                                                 01 
01250030100000137DEM       President FEDERAL                                       Barack Obama                          PCT 100                                                01 
01250030101000000DEM       President FEDERAL                                       Barack Obama                          PCT 101                                                01 
01250030102000009DEM       President FEDERAL                                       Barack Obama                          PCT 102                                                01 
01250030103000000DEM       President FEDERAL                                       Barack Obama                          PCT 103                                                01 
01250030104000003DEM       President FEDERAL                                       Barack Obama                          PCT 104                                                01 
01250030105000003DEM       President FEDERAL                                       Barack Obama                          PCT 105                                                01 
01250030106000002DEM       President FEDERAL                                       Barack Obama                          PCT 106                                                01 
01250030107000000DEM       President FEDERAL                                       Barack Obama                          PCT 107                                                01 
01250030108000021DEM       President FEDERAL                                       Barack Obama                          PCT 108                                                01 
01250030109000003DEM       President FEDERAL                                       Barack Obama                          PCT 109                                                01 
01250030110000002DEM       President FEDERAL                                       Barack Obama                          LIMITED BALLOT                                         01 
01250030111000000DEM       President FEDERAL                                       Barack Obama                          FEDERAL BALLOT                                         01 
01250040001000006DEM       President FEDERAL                                       John Wolfe                            PCT 1                                                  01 
01250040002000000DEM       President FEDERAL                                       John Wolfe                            PCT 2                                                  01 
01250040003000003DEM       President FEDERAL                                       John Wolfe                            PCT 3                                                  01 
01250040004000015DEM       President FEDERAL                                       John Wolfe                            PCT 4                                                  01 
01250040005000003DEM       President FEDERAL                                       John Wolfe                            PCT 5                                                  01 
01250040006000005DEM       President FEDERAL                                       John Wolfe                            PCT 6                                                  01 
01250040007000002DEM       President FEDERAL                                       John Wolfe                            PCT 7                                                  01 
01250040008000001DEM       President FEDERAL                                       John Wolfe                            PCT 8                                                  01 
01250040009000055DEM       President FEDERAL                                       John Wolfe                            PCT 9                                                  01 
01250040010000001DEM       President FEDERAL                                       John Wolfe                            PCT 10                                                 01 
01250040011000002DEM       President FEDERAL                                       John Wolfe                            PCT 11                                                 01 
01250040012000001DEM       President FEDERAL                                       John Wolfe                            PCT 12                                                 01 
01250040013000001DEM       President FEDERAL                                       John Wolfe                            PCT 13                                                 01 
01250040014000003DEM       President FEDERAL                                       John Wolfe                            PCT 14                                                 01 
01250040015000002DEM       President FEDERAL                                       John Wolfe                            PCT 15                                                 01 
01250040016000000DEM       President FEDERAL                                       John Wolfe                            PCT 16                                                 01 
01250040017000017DEM       President FEDERAL                                       John Wolfe                            PCT 17                                                 01 
01250040018000002DEM       President FEDERAL                                       John Wolfe                            PCT 18                                                 01 
01250040019000008DEM       President FEDERAL                                       John Wolfe                            PCT 19                                                 01 
01250040020000003DEM       President FEDERAL                                       John Wolfe                            PCT 20                                                 01 
01250040021000003DEM       President FEDERAL                                       John Wolfe                            PCT 21                                                 01 
01250040022000011DEM       President FEDERAL                                       John Wolfe                            PCT 22                                                 01 
01250040023000003DEM       President FEDERAL                                       John Wolfe                            PCT 23                                                 01 
01250040024000007DEM       President FEDERAL                                       John Wolfe                            PCT 24                                                 01 
01250040025000037DEM       President FEDERAL                                       John Wolfe                            PCT 25                                                 01 
01250040026000017DEM       President FEDERAL                                       John Wolfe                            PCT 26                                                 01 
01250040027000010DEM       President FEDERAL                                       John Wolfe                            PCT 27                                                 01 
01250040028000007DEM       President FEDERAL                                       John Wolfe                            PCT 28                                                 01 
01250040029000042DEM       President FEDERAL                                       John Wolfe                            PCT 29                                                 01 
01250040030000027DEM       President FEDERAL                                       John Wolfe                            PCT 30                                                 01 
01250040031000029DEM       President FEDERAL                                       John Wolfe                            PCT 31                                                 01 
01250040032000001DEM       President FEDERAL                                       John Wolfe                            PCT 32                                                 01 
01250040033000025DEM       President FEDERAL                                       John Wolfe                            PCT 33                                                 01 
01250040034000002DEM       President FEDERAL                                       John Wolfe                            PCT 34                                                 01 
01250040035000012DEM       President FEDERAL                                       John Wolfe                            PCT 35                                                 01 
01250040036000010DEM       President FEDERAL                                       John Wolfe                            PCT 36                                                 01 
01250040037000033DEM       President FEDERAL                                       John Wolfe                            PCT 37                                                 01 
01250040038000022DEM       President FEDERAL                                       John Wolfe                            PCT 38                                                 01 
01250040039000005DEM       President FEDERAL                                       John Wolfe                            PCT 39                                                 01 
01250040040000042DEM       President FEDERAL                                       John Wolfe                            PCT 40                                                 01 
01250040041000007DEM       President FEDERAL                                       John Wolfe                            PCT 41                                                 01 
01250040042000045DEM       President FEDERAL                                       John Wolfe                            PCT 42                                                 01 
01250040043000029DEM       President FEDERAL                                       John Wolfe                            PCT 43                                                 01 
01250040044000006DEM       President FEDERAL                                       John Wolfe                            PCT 44                                                 01 
01250040045000013DEM       President FEDERAL                                       John Wolfe                            PCT 45                                                 01 
01250040046000007DEM       President FEDERAL                                       John Wolfe                            PCT 46                                                 01 
01250040047000008DEM       President FEDERAL                                       John Wolfe                            PCT 47                                                 01 
01250040048000005DEM       President FEDERAL                                       John Wolfe                            PCT 48                                                 01 
01250040049000001DEM       President FEDERAL                                       John Wolfe                            PCT 49                                                 01 
01250040050000005DEM       President FEDERAL                                       John Wolfe                            PCT 50                                                 01 
01250040051000001DEM       President FEDERAL                                       John Wolfe                            PCT 51                                                 01 
01250040052000000DEM       President FEDERAL                                       John Wolfe                            PCT 52                                                 01 
01250040053000002DEM       President FEDERAL                                       John Wolfe                            PCT 53                                                 01 
01250040054000002DEM       President FEDERAL                                       John Wolfe                            PCT 54                                                 01 
01250040055000000DEM       President FEDERAL                                       John Wolfe                            PCT 55                                                 01 
01250040056000035DEM       President FEDERAL                                       John Wolfe                            PCT 56                                                 01 
01250040057000000DEM       President FEDERAL                                       John Wolfe                            PCT 57                                                 01 
01250040058000000DEM       President FEDERAL                                       John Wolfe                            PCT 58                                                 01 
01250040059000003DEM       President FEDERAL                                       John Wolfe                            PCT 59                                                 01 
01250040060000029DEM       President FEDERAL                                       John Wolfe                            PCT 60                                                 01 
01250040061000012DEM       President FEDERAL                                       John Wolfe                            PCT 61                                                 01 
01250040062000016DEM       President FEDERAL                                       John Wolfe                            PCT 62                                                 01 
01250040063000001DEM       President FEDERAL                                       John Wolfe                            PCT 63                                                 01 
01250040064000003DEM       President FEDERAL                                       John Wolfe                            PCT 64                                                 01 
01250040065000015DEM       President FEDERAL                                       John Wolfe                            PCT 65                                                 01 
01250040066000022DEM       President FEDERAL                                       John Wolfe                            PCT 66                                                 01 
01250040067000002DEM       President FEDERAL                                       John Wolfe                            PCT 67                                                 01 
01250040068000015DEM       President FEDERAL                                       John Wolfe                            PCT 68                                                 01 
01250040069000047DEM       President FEDERAL                                       John Wolfe                            PCT 69                                                 01 
01250040070000011DEM       President FEDERAL                                       John Wolfe                            PCT 70                                                 01 
01250040071000001DEM       President FEDERAL                                       John Wolfe                            PCT 71                                                 01 
01250040072000002DEM       President FEDERAL                                       John Wolfe                            PCT 72                                                 01 
01250040073000016DEM       President FEDERAL                                       John Wolfe                            PCT 73                                                 01 
01250040074000046DEM       President FEDERAL                                       John Wolfe                            PCT 74                                                 01 
01250040075000002DEM       President FEDERAL                                       John Wolfe                            PCT 75                                                 01 
01250040076000007DEM       President FEDERAL                                       John Wolfe                            PCT 76                                                 01 
01250040077000004DEM       President FEDERAL                                       John Wolfe                            PCT 77                                                 01 
01250040078000008DEM       President FEDERAL                                       John Wolfe                            PCT 78                                                 01 
01250040079000013DEM       President FEDERAL                                       John Wolfe                            PCT 79                                                 01 
01250040080000006DEM       President FEDERAL                                       John Wolfe                            PCT 80                                                 01 
01250040081000000DEM       President FEDERAL                                       John Wolfe                            PCT 81                                                 01 
01250040082000014DEM       President FEDERAL                                       John Wolfe                            PCT 82                                                 01 
01250040083000008DEM       President FEDERAL                                       John Wolfe                            PCT 83                                                 01 
01250040084000000DEM       President FEDERAL                                       John Wolfe                            PCT 84                                                 01 
01250040085000003DEM       President FEDERAL                                       John Wolfe                            PCT 85                                                 01 
01250040086000008DEM       President FEDERAL                                       John Wolfe                            PCT 86                                                 01 
01250040087000002DEM       President FEDERAL                                       John Wolfe                            PCT 87                                                 01 
01250040088000003DEM       President FEDERAL                                       John Wolfe                            PCT 88                                                 01 
01250040089000003DEM       President FEDERAL                                       John Wolfe                            PCT 89                                                 01 
01250040090000000DEM       President FEDERAL                                       John Wolfe                            PCT 90                                                 01 
01250040091000007DEM       President FEDERAL                                       John Wolfe                            PCT 91                                                 01 
01250040092000011DEM       President FEDERAL                                       John Wolfe                            PCT 92                                                 01 
01250040093000002DEM       President FEDERAL                                       John Wolfe                            PCT 93                                                 01 
01250040094000010DEM       President FEDERAL                                       John Wolfe                            PCT 94                                                 01 
01250040095000009DEM       President FEDERAL                                       John Wolfe                            PCT 95                                                 01 
01250040096000003DEM       President FEDERAL                                       John Wolfe                            PCT 96                                                 01 
01250040097000000DEM       President FEDERAL                                       John Wolfe                            PCT 97                                                 01 
01250040098000000DEM       President FEDERAL                                       John Wolfe                            PCT 98                                                 01 
01250040099000000DEM       President FEDERAL                                       John Wolfe                            PCT 99                                                 01 
01250040100000012DEM       President FEDERAL                                       John Wolfe                            PCT 100                                                01 
01250040101000000DEM       President FEDERAL                                       John Wolfe                            PCT 101                                                01 
01250040102000003DEM       President FEDERAL                                       John Wolfe                            PCT 102                                                01 
01250040103000000DEM       President FEDERAL                                       John Wolfe                            PCT 103                                                01 
01250040104000000DEM       President FEDERAL                                       John Wolfe                            PCT 104                                                01 
01250040105000000DEM       President FEDERAL                                       John Wolfe                            PCT 105                                                01 
01250040106000002DEM       President FEDERAL                                       John Wolfe                            PCT 106                                                01 
01250040107000000DEM       President FEDERAL                                       John Wolfe                            PCT 107                                                01 
01250040108000014DEM       President FEDERAL                                       John Wolfe                            PCT 108                                                01 
01250040109000005DEM       President FEDERAL                                       John Wolfe                            PCT 109                                                01 
01250040110000000DEM       President FEDERAL                                       John Wolfe                            LIMITED BALLOT                                         01 
01250040111000000DEM       President FEDERAL                                       John Wolfe                            FEDERAL BALLOT                                         01 
01250050001000000DEM       President FEDERAL                                       OVER VOTES                            PCT 1                                                  01 
01250050002000000DEM       President FEDERAL                                       OVER VOTES                            PCT 2                                                  01 
01250050003000000DEM       President FEDERAL                                       OVER VOTES                            PCT 3                                                  01 
01250050004000000DEM       President FEDERAL                                       OVER VOTES                            PCT 4                                                  01 
01250050005000000DEM       President FEDERAL                                       OVER VOTES                            PCT 5                                                  01 
01250050006000000DEM       President FEDERAL                                       OVER VOTES                            PCT 6                                                  01 
01250050007000000DEM       President FEDERAL                                       OVER VOTES                            PCT 7                                                  01 
01250050008000000DEM       President FEDERAL                                       OVER VOTES                            PCT 8                                                  01 
01250050009000000DEM       President FEDERAL                                       OVER VOTES                            PCT 9                                                  01 
01250050010000000DEM       President FEDERAL                                       OVER VOTES                            PCT 10                                                 01 
01250050011000000DEM       President FEDERAL                                       OVER VOTES                            PCT 11                                                 01 
01250050012000000DEM       President FEDERAL                                       OVER VOTES                            PCT 12                                                 01 
01250050013000000DEM       President FEDERAL                                       OVER VOTES                            PCT 13                                                 01 
01250050014000000DEM       President FEDERAL                                       OVER VOTES                            PCT 14                                                 01 
01250050015000000DEM       President FEDERAL                                       OVER VOTES                            PCT 15                                                 01 
01250050016000000DEM       President FEDERAL                                       OVER VOTES                            PCT 16                                                 01 
01250050017000000DEM       President FEDERAL                                       OVER VOTES                            PCT 17                                                 01 
01250050018000000DEM       President FEDERAL                                       OVER VOTES                            PCT 18                                                 01 
01250050019000000DEM       President FEDERAL                                       OVER VOTES                            PCT 19                                                 01 
01250050020000000DEM       President FEDERAL                                       OVER VOTES                            PCT 20                                                 01 
01250050021000000DEM       President FEDERAL                                       OVER VOTES                            PCT 21                                                 01 
01250050022000000DEM       President FEDERAL                                       OVER VOTES                            PCT 22                                                 01 
01250050023000000DEM       President FEDERAL                                       OVER VOTES                            PCT 23                                                 01 
01250050024000000DEM       President FEDERAL                                       OVER VOTES                            PCT 24                                                 01 
01250050025000000DEM       President FEDERAL                                       OVER VOTES                            PCT 25                                                 01 
01250050026000000DEM       President FEDERAL                                       OVER VOTES                            PCT 26                                                 01 
01250050027000000DEM       President FEDERAL                                       OVER VOTES                            PCT 27                                                 01 
01250050028000000DEM       President FEDERAL                                       OVER VOTES                            PCT 28                                                 01 
01250050029000000DEM       President FEDERAL                                       OVER VOTES                            PCT 29                                                 01 
01250050030000000DEM       President FEDERAL                                       OVER VOTES                            PCT 30                                                 01 
01250050031000000DEM       President FEDERAL                                       OVER VOTES                            PCT 31                                                 01 
01250050032000000DEM       President FEDERAL                                       OVER VOTES                            PCT 32                                                 01 
01250050033000000DEM       President FEDERAL                                       OVER VOTES                            PCT 33                                                 01 
01250050034000000DEM       President FEDERAL                                       OVER VOTES                            PCT 34                                                 01 
01250050035000000DEM       President FEDERAL                                       OVER VOTES                            PCT 35                                                 01 
01250050036000000DEM       President FEDERAL                                       OVER VOTES                            PCT 36                                                 01 
01250050037000000DEM       President FEDERAL                                       OVER VOTES                            PCT 37                                                 01 
01250050038000000DEM       President FEDERAL                                       OVER VOTES                            PCT 38                                                 01 
01250050039000000DEM       President FEDERAL                                       OVER VOTES                            PCT 39                                                 01 
01250050040000000DEM       President FEDERAL                                       OVER VOTES                            PCT 40                                                 01 
01250050041000000DEM       President FEDERAL                                       OVER VOTES                            PCT 41                                                 01 
01250050042000000DEM       President FEDERAL                                       OVER VOTES                            PCT 42                                                 01 
01250050043000000DEM       President FEDERAL                                       OVER VOTES                            PCT 43                                                 01 
01250050044000000DEM       President FEDERAL                                       OVER VOTES                            PCT 44                                                 01 
01250050045000000DEM       President FEDERAL                                       OVER VOTES                            PCT 45                                                 01 
01250050046000000DEM       President FEDERAL                                       OVER VOTES                            PCT 46                                                 01 
01250050047000000DEM       President FEDERAL                                       OVER VOTES                            PCT 47                                                 01 
01250050048000000DEM       President FEDERAL                                       OVER VOTES                            PCT 48                                                 01 
01250050049000000DEM       President FEDERAL                                       OVER VOTES                            PCT 49                                                 01 
01250050050000000DEM       President FEDERAL                                       OVER VOTES                            PCT 50                                                 01 
01250050051000000DEM       President FEDERAL                                       OVER VOTES                            PCT 51                                                 01 
01250050052000000DEM       President FEDERAL                                       OVER VOTES                            PCT 52                                                 01 
01250050053000000DEM       President FEDERAL                                       OVER VOTES                            PCT 53                                                 01 
01250050054000000DEM       President FEDERAL                                       OVER VOTES                            PCT 54                                                 01 
01250050055000000DEM       President FEDERAL                                       OVER VOTES                            PCT 55                                                 01 
01250050056000000DEM       President FEDERAL                                       OVER VOTES                            PCT 56                                                 01 
01250050057000000DEM       President FEDERAL                                       OVER VOTES                            PCT 57                                                 01 
01250050058000000DEM       President FEDERAL                                       OVER VOTES                            PCT 58                                                 01 
01250050059000000DEM       President FEDERAL                                       OVER VOTES                            PCT 59                                                 01 
01250050060000000DEM       President FEDERAL                                       OVER VOTES                            PCT 60                                                 01 
01250050061000000DEM       President FEDERAL                                       OVER VOTES                            PCT 61                                                 01 
01250050062000000DEM       President FEDERAL                                       OVER VOTES                            PCT 62                                                 01 
01250050063000000DEM       President FEDERAL                                       OVER VOTES                            PCT 63                                                 01 
01250050064000000DEM       President FEDERAL                                       OVER VOTES                            PCT 64                                                 01 
01250050065000000DEM       President FEDERAL                                       OVER VOTES                            PCT 65                                                 01 
01250050066000000DEM       President FEDERAL                                       OVER VOTES                            PCT 66                                                 01 
01250050067000000DEM       President FEDERAL                                       OVER VOTES                            PCT 67                                                 01 
01250050068000000DEM       President FEDERAL                                       OVER VOTES                            PCT 68                                                 01 
01250050069000000DEM       President FEDERAL                                       OVER VOTES                            PCT 69                                                 01 
01250050070000000DEM       President FEDERAL                                       OVER VOTES                            PCT 70                                                 01 
01250050071000000DEM       President FEDERAL                                       OVER VOTES                            PCT 71                                                 01 
01250050072000000DEM       President FEDERAL                                       OVER VOTES                            PCT 72                                                 01 
01250050073000000DEM       President FEDERAL                                       OVER VOTES                            PCT 73                                                 01 
01250050074000000DEM       President FEDERAL                                       OVER VOTES                            PCT 74                                                 01 
01250050075000000DEM       President FEDERAL                                       OVER VOTES                            PCT 75                                                 01 
01250050076000000DEM       President FEDERAL                                       OVER VOTES                            PCT 76                                                 01 
01250050077000000DEM       President FEDERAL                                       OVER VOTES                            PCT 77                                                 01 
01250050078000000DEM       President FEDERAL                                       OVER VOTES                            PCT 78                                                 01 
01250050079000000DEM       President FEDERAL                                       OVER VOTES                            PCT 79                                                 01 
01250050080000000DEM       President FEDERAL                                       OVER VOTES                            PCT 80                                                 01 
01250050081000000DEM       President FEDERAL                                       OVER VOTES                            PCT 81                                                 01 
01250050082000000DEM       President FEDERAL                                       OVER VOTES                            PCT 82                                                 01 
01250050083000000DEM       President FEDERAL                                       OVER VOTES                            PCT 83                                                 01 
01250050084000000DEM       President FEDERAL                                       OVER VOTES                            PCT 84                                                 01 
01250050085000000DEM       President FEDERAL                                       OVER VOTES                            PCT 85                                                 01 
01250050086000000DEM       President FEDERAL                                       OVER VOTES                            PCT 86                                                 01 
01250050087000000DEM       President FEDERAL                                       OVER VOTES                            PCT 87                                                 01 
01250050088000000DEM       President FEDERAL                                       OVER VOTES                            PCT 88                                                 01 
01250050089000000DEM       President FEDERAL                                       OVER VOTES                            PCT 89                                                 01 
01250050090000000DEM       President FEDERAL                                       OVER VOTES                            PCT 90                                                 01 
01250050091000000DEM       President FEDERAL                                       OVER VOTES                            PCT 91                                                 01 
01250050092000000DEM       President FEDERAL                                       OVER VOTES                            PCT 92                                                 01 
01250050093000000DEM       President FEDERAL                                       OVER VOTES                            PCT 93                                                 01 
01250050094000000DEM       President FEDERAL                                       OVER VOTES                            PCT 94                                                 01 
01250050095000000DEM       President FEDERAL                                       OVER VOTES                            PCT 95                                                 01 
01250050096000000DEM       President FEDERAL                                       OVER VOTES                            PCT 96                                                 01 
01250050097000000DEM       President FEDERAL                                       OVER VOTES                            PCT 97                                                 01 
01250050098000000DEM       President FEDERAL                                       OVER VOTES                            PCT 98                                                 01 
01250050099000000DEM       President FEDERAL                                       OVER VOTES                            PCT 99                                                 01 
01250050100000000DEM       President FEDERAL                                       OVER VOTES                            PCT 100                                                01 
01250050101000000DEM       President FEDERAL                                       OVER VOTES                            PCT 101                                                01 
01250050102000000DEM       President FEDERAL                                       OVER VOTES                            PCT 102                                                01 
01250050103000000DEM       President FEDERAL                                       OVER VOTES                            PCT 103                                                01 
01250050104000000DEM       President FEDERAL                                       OVER VOTES                            PCT 104                                                01 
01250050105000000DEM       President FEDERAL                                       OVER VOTES                            PCT 105                                                01 
01250050106000000DEM       President FEDERAL                                       OVER VOTES                            PCT 106                                                01 
01250050107000000DEM       President FEDERAL                                       OVER VOTES                            PCT 107                                                01 
01250050108000000DEM       President FEDERAL                                       OVER VOTES                            PCT 108                                                01 
