01380010001000000DEM       President KENDALL COUNTYWIDE                            Bob Ely                               PRECINCT 1011                                          01 
01380010002000000DEM       President KENDALL COUNTYWIDE                            Bob Ely                               PRECINCT 1013                                          01 
01380010003000000DEM       President KENDALL COUNTYWIDE                            Bob Ely                               PRECINCT 1014                                          01 
01380010004000001DEM       President KENDALL COUNTYWIDE                            Bob Ely                               PRECINCT 1110                                          01 
01380010005000002DEM       President KENDALL COUNTYWIDE                            Bob Ely                               PRECINCT 1115                                          01 
01380010006000000DEM       President KENDALL COUNTYWIDE                            Bob Ely                               PRECINCT 1130                                          01 
01380010007000000DEM       President KENDALL COUNTYWIDE                            Bob Ely                               PRECINCT 1140                                          01 
01380010008000000DEM       President KENDALL COUNTYWIDE                            Bob Ely                               PRECINCT 1170                                          01 
01380010009000000DEM       President KENDALL COUNTYWIDE                            Bob Ely                               PRECINCT 1180                                          01 
01380010010000000DEM       President KENDALL COUNTYWIDE                            Bob Ely                               PRECINCT 1190                                          01 
01380010011000000DEM       President KENDALL COUNTYWIDE                            Bob Ely                               PRECINCT 1200                                          01 
01380010012000000DEM       President KENDALL COUNTYWIDE                            Bob Ely                               PRECINCT 2020                                          01 
01380010013000000DEM       President KENDALL COUNTYWIDE                            Bob Ely                               PRECINCT 2080                                          01 
01380010014000000DEM       President KENDALL COUNTYWIDE                            Bob Ely                               PRECINCT 2082                                          01 
01380010015000000DEM       President KENDALL COUNTYWIDE                            Bob Ely                               PRECINCT 2084                                          01 
01380010016000000DEM       President KENDALL COUNTYWIDE                            Bob Ely                               PRECINCT 2085                                          01 
01380010017000000DEM       President KENDALL COUNTYWIDE                            Bob Ely                               PRECINCT 2120                                          01 
01380010018000000DEM       President KENDALL COUNTYWIDE                            Bob Ely                               PRECINCT 2210                                          01 
01380010019000000DEM       President KENDALL COUNTYWIDE                            Bob Ely                               PRECINCT 3030                                          01 
01380010020000001DEM       President KENDALL COUNTYWIDE                            Bob Ely                               PRECINCT 3040                                          01 
01380010021000001DEM       President KENDALL COUNTYWIDE                            Bob Ely                               PRECINCT 3041                                          01 
01380010022000000DEM       President KENDALL COUNTYWIDE                            Bob Ely                               PRECINCT 3042                                          01 
01380010023000000DEM       President KENDALL COUNTYWIDE                            Bob Ely                               PRECINCT 3044                                          01 
01380010024000000DEM       President KENDALL COUNTYWIDE                            Bob Ely                               PRECINCT 3060                                          01 
01380010025000000DEM       President KENDALL COUNTYWIDE                            Bob Ely                               PRECINCT 3220                                          01 
01380010026000000DEM       President KENDALL COUNTYWIDE                            Bob Ely                               PRECINCT 4050                                          01 
01380010027000000DEM       President KENDALL COUNTYWIDE                            Bob Ely                               PRECINCT 4070                                          01 
01380010028000000DEM       President KENDALL COUNTYWIDE                            Bob Ely                               PRECINCT 4100                                          01 
01380010029000000DEM       President KENDALL COUNTYWIDE                            Bob Ely                               PRECINCT 4101                                          01 
01380010030000000DEM       President KENDALL COUNTYWIDE                            Bob Ely                               PRECINCT 4103                                          01 
01380010031000000DEM       President KENDALL COUNTYWIDE                            Bob Ely                               PRECINCT 4230                                          01 
01380010032000000DEM       President KENDALL COUNTYWIDE                            Bob Ely                               PRECINCT 4240                                          01 
01380010033000000DEM       President KENDALL COUNTYWIDE                            Bob Ely                               PRECINCT 4250                                          01 
01380020001000001DEM       President KENDALL COUNTYWIDE                            Barack Obama                          PRECINCT 1011                                          01 
01380020002000014DEM       President KENDALL COUNTYWIDE                            Barack Obama                          PRECINCT 1013                                          01 
01380020003000012DEM       President KENDALL COUNTYWIDE                            Barack Obama                          PRECINCT 1014                                          01 
01380020004000036DEM       President KENDALL COUNTYWIDE                            Barack Obama                          PRECINCT 1110                                          01 
01380020005000012DEM       President KENDALL COUNTYWIDE                            Barack Obama                          PRECINCT 1115                                          01 
01380020006000000DEM       President KENDALL COUNTYWIDE                            Barack Obama                          PRECINCT 1130                                          01 
01380020007000000DEM       President KENDALL COUNTYWIDE                            Barack Obama                          PRECINCT 1140                                          01 
01380020008000000DEM       President KENDALL COUNTYWIDE                            Barack Obama                          PRECINCT 1170                                          01 
01380020009000000DEM       President KENDALL COUNTYWIDE                            Barack Obama                          PRECINCT 1180                                          01 
01380020010000002DEM       President KENDALL COUNTYWIDE                            Barack Obama                          PRECINCT 1190                                          01 
01380020011000000DEM       President KENDALL COUNTYWIDE                            Barack Obama                          PRECINCT 1200                                          01 
01380020012000017DEM       President KENDALL COUNTYWIDE                            Barack Obama                          PRECINCT 2020                                          01 
01380020013000025DEM       President KENDALL COUNTYWIDE                            Barack Obama                          PRECINCT 2080                                          01 
01380020014000016DEM       President KENDALL COUNTYWIDE                            Barack Obama                          PRECINCT 2082                                          01 
01380020015000003DEM       President KENDALL COUNTYWIDE                            Barack Obama                          PRECINCT 2084                                          01 
01380020016000001DEM       President KENDALL COUNTYWIDE                            Barack Obama                          PRECINCT 2085                                          01 
01380020017000013DEM       President KENDALL COUNTYWIDE                            Barack Obama                          PRECINCT 2120                                          01 
01380020018000001DEM       President KENDALL COUNTYWIDE                            Barack Obama                          PRECINCT 2210                                          01 
01380020019000015DEM       President KENDALL COUNTYWIDE                            Barack Obama                          PRECINCT 3030                                          01 
01380020020000014DEM       President KENDALL COUNTYWIDE                            Barack Obama                          PRECINCT 3040                                          01 
01380020021000010DEM       President KENDALL COUNTYWIDE                            Barack Obama                          PRECINCT 3041                                          01 
01380020022000003DEM       President KENDALL COUNTYWIDE                            Barack Obama                          PRECINCT 3042                                          01 
01380020023000012DEM       President KENDALL COUNTYWIDE                            Barack Obama                          PRECINCT 3044                                          01 
01380020024000001DEM       President KENDALL COUNTYWIDE                            Barack Obama                          PRECINCT 3060                                          01 
01380020025000000DEM       President KENDALL COUNTYWIDE                            Barack Obama                          PRECINCT 3220                                          01 
01380020026000028DEM       President KENDALL COUNTYWIDE                            Barack Obama                          PRECINCT 4050                                          01 
01380020027000006DEM       President KENDALL COUNTYWIDE                            Barack Obama                          PRECINCT 4070                                          01 
01380020028000032DEM       President KENDALL COUNTYWIDE                            Barack Obama                          PRECINCT 4100                                          01 
01380020029000001DEM       President KENDALL COUNTYWIDE                            Barack Obama                          PRECINCT 4101                                          01 
01380020030000004DEM       President KENDALL COUNTYWIDE                            Barack Obama                          PRECINCT 4103                                          01 
01380020031000000DEM       President KENDALL COUNTYWIDE                            Barack Obama                          PRECINCT 4230                                          01 
01380020032000000DEM       President KENDALL COUNTYWIDE                            Barack Obama                          PRECINCT 4240                                          01 
01380020033000000DEM       President KENDALL COUNTYWIDE                            Barack Obama                          PRECINCT 4250                                          01 
01380030001000000DEM       President KENDALL COUNTYWIDE                            Darcy G. Richardson                   PRECINCT 1011                                          01 
01380030002000000DEM       President KENDALL COUNTYWIDE                            Darcy G. Richardson                   PRECINCT 1013                                          01 
01380030003000000DEM       President KENDALL COUNTYWIDE                            Darcy G. Richardson                   PRECINCT 1014                                          01 
01380030004000000DEM       President KENDALL COUNTYWIDE                            Darcy G. Richardson                   PRECINCT 1110                                          01 
01380030005000000DEM       President KENDALL COUNTYWIDE                            Darcy G. Richardson                   PRECINCT 1115                                          01 
01380030006000000DEM       President KENDALL COUNTYWIDE                            Darcy G. Richardson                   PRECINCT 1130                                          01 
01380030007000000DEM       President KENDALL COUNTYWIDE                            Darcy G. Richardson                   PRECINCT 1140                                          01 
01380030008000000DEM       President KENDALL COUNTYWIDE                            Darcy G. Richardson                   PRECINCT 1170                                          01 
01380030009000000DEM       President KENDALL COUNTYWIDE                            Darcy G. Richardson                   PRECINCT 1180                                          01 
01380030010000000DEM       President KENDALL COUNTYWIDE                            Darcy G. Richardson                   PRECINCT 1190                                          01 
01380030011000000DEM       President KENDALL COUNTYWIDE                            Darcy G. Richardson                   PRECINCT 1200                                          01 
01380030012000000DEM       President KENDALL COUNTYWIDE                            Darcy G. Richardson                   PRECINCT 2020                                          01 
01380030013000000DEM       President KENDALL COUNTYWIDE                            Darcy G. Richardson                   PRECINCT 2080                                          01 
01380030014000001DEM       President KENDALL COUNTYWIDE                            Darcy G. Richardson                   PRECINCT 2082                                          01 
01380030015000000DEM       President KENDALL COUNTYWIDE                            Darcy G. Richardson                   PRECINCT 2084                                          01 
01380030016000001DEM       President KENDALL COUNTYWIDE                            Darcy G. Richardson                   PRECINCT 2085                                          01 
01380030017000002DEM       President KENDALL COUNTYWIDE                            Darcy G. Richardson                   PRECINCT 2120                                          01 
01380030018000000DEM       President KENDALL COUNTYWIDE                            Darcy G. Richardson                   PRECINCT 2210                                          01 
01380030019000000DEM       President KENDALL COUNTYWIDE                            Darcy G. Richardson                   PRECINCT 3030                                          01 
01380030020000001DEM       President KENDALL COUNTYWIDE                            Darcy G. Richardson                   PRECINCT 3040                                          01 
01380030021000000DEM       President KENDALL COUNTYWIDE                            Darcy G. Richardson                   PRECINCT 3041                                          01 
01380030022000000DEM       President KENDALL COUNTYWIDE                            Darcy G. Richardson                   PRECINCT 3042                                          01 
01380030023000001DEM       President KENDALL COUNTYWIDE                            Darcy G. Richardson                   PRECINCT 3044                                          01 
01380030024000000DEM       President KENDALL COUNTYWIDE                            Darcy G. Richardson                   PRECINCT 3060                                          01 
01380030025000000DEM       President KENDALL COUNTYWIDE                            Darcy G. Richardson                   PRECINCT 3220                                          01 
01380030026000002DEM       President KENDALL COUNTYWIDE                            Darcy G. Richardson                   PRECINCT 4050                                          01 
01380030027000000DEM       President KENDALL COUNTYWIDE                            Darcy G. Richardson                   PRECINCT 4070                                          01 
01380030028000000DEM       President KENDALL COUNTYWIDE                            Darcy G. Richardson                   PRECINCT 4100                                          01 
01380030029000000DEM       President KENDALL COUNTYWIDE                            Darcy G. Richardson                   PRECINCT 4101                                          01 
01380030030000000DEM       President KENDALL COUNTYWIDE                            Darcy G. Richardson                   PRECINCT 4103                                          01 
01380030031000000DEM       President KENDALL COUNTYWIDE                            Darcy G. Richardson                   PRECINCT 4230                                          01 
01380030032000000DEM       President KENDALL COUNTYWIDE                            Darcy G. Richardson                   PRECINCT 4240                                          01 
01380030033000000DEM       President KENDALL COUNTYWIDE                            Darcy G. Richardson                   PRECINCT 4250                                          01 
01380040001000000DEM       President KENDALL COUNTYWIDE                            John Wolfe                            PRECINCT 1011                                          01 
01380040002000000DEM       President KENDALL COUNTYWIDE                            John Wolfe                            PRECINCT 1013                                          01 
01380040003000001DEM       President KENDALL COUNTYWIDE                            John Wolfe                            PRECINCT 1014                                          01 
01380040004000000DEM       President KENDALL COUNTYWIDE                            John Wolfe                            PRECINCT 1110                                          01 
01380040005000002DEM       President KENDALL COUNTYWIDE                            John Wolfe                            PRECINCT 1115                                          01 
01380040006000000DEM       President KENDALL COUNTYWIDE                            John Wolfe                            PRECINCT 1130                                          01 
01380040007000000DEM       President KENDALL COUNTYWIDE                            John Wolfe                            PRECINCT 1140                                          01 
01380040008000000DEM       President KENDALL COUNTYWIDE                            John Wolfe                            PRECINCT 1170                                          01 
01380040009000000DEM       President KENDALL COUNTYWIDE                            John Wolfe                            PRECINCT 1180                                          01 
01380040010000000DEM       President KENDALL COUNTYWIDE                            John Wolfe                            PRECINCT 1190                                          01 
01380040011000000DEM       President KENDALL COUNTYWIDE                            John Wolfe                            PRECINCT 1200                                          01 
01380040012000000DEM       President KENDALL COUNTYWIDE                            John Wolfe                            PRECINCT 2020                                          01 
01380040013000000DEM       President KENDALL COUNTYWIDE                            John Wolfe                            PRECINCT 2080                                          01 
01380040014000003DEM       President KENDALL COUNTYWIDE                            John Wolfe                            PRECINCT 2082                                          01 
01380040015000000DEM       President KENDALL COUNTYWIDE                            John Wolfe                            PRECINCT 2084                                          01 
01380040016000000DEM       President KENDALL COUNTYWIDE                            John Wolfe                            PRECINCT 2085                                          01 
01380040017000000DEM       President KENDALL COUNTYWIDE                            John Wolfe                            PRECINCT 2120                                          01 
01380040018000000DEM       President KENDALL COUNTYWIDE                            John Wolfe                            PRECINCT 2210                                          01 
01380040019000001DEM       President KENDALL COUNTYWIDE                            John Wolfe                            PRECINCT 3030                                          01 
01380040020000000DEM       President KENDALL COUNTYWIDE                            John Wolfe                            PRECINCT 3040                                          01 
01380040021000001DEM       President KENDALL COUNTYWIDE                            John Wolfe                            PRECINCT 3041                                          01 
01380040022000000DEM       President KENDALL COUNTYWIDE                            John Wolfe                            PRECINCT 3042                                          01 
01380040023000001DEM       President KENDALL COUNTYWIDE                            John Wolfe                            PRECINCT 3044                                          01 
01380040024000000DEM       President KENDALL COUNTYWIDE                            John Wolfe                            PRECINCT 3060                                          01 
01380040025000000DEM       President KENDALL COUNTYWIDE                            John Wolfe                            PRECINCT 3220                                          01 
01380040026000000DEM       President KENDALL COUNTYWIDE                            John Wolfe                            PRECINCT 4050                                          01 
01380040027000000DEM       President KENDALL COUNTYWIDE                            John Wolfe                            PRECINCT 4070                                          01 
01380040028000001DEM       President KENDALL COUNTYWIDE                            John Wolfe                            PRECINCT 4100                                          01 
01380040029000000DEM       President KENDALL COUNTYWIDE                            John Wolfe                            PRECINCT 4101                                          01 
01380040030000000DEM       President KENDALL COUNTYWIDE                            John Wolfe                            PRECINCT 4103                                          01 
01380040031000000DEM       President KENDALL COUNTYWIDE                            John Wolfe                            PRECINCT 4230                                          01 
01380040032000000DEM       President KENDALL COUNTYWIDE                            John Wolfe                            PRECINCT 4240                                          01 
01380040033000000DEM       President KENDALL COUNTYWIDE                            John Wolfe                            PRECINCT 4250                                          01 
01380050001000000DEM       President KENDALL COUNTYWIDE                            OVER VOTES                            PRECINCT 1011                                          01 
01380050002000000DEM       President KENDALL COUNTYWIDE                            OVER VOTES                            PRECINCT 1013                                          01 
01380050003000000DEM       President KENDALL COUNTYWIDE                            OVER VOTES                            PRECINCT 1014                                          01 
01380050004000000DEM       President KENDALL COUNTYWIDE                            OVER VOTES                            PRECINCT 1110                                          01 
01380050005000000DEM       President KENDALL COUNTYWIDE                            OVER VOTES                            PRECINCT 1115                                          01 
01380050006000000DEM       President KENDALL COUNTYWIDE                            OVER VOTES                            PRECINCT 1130                                          01 
01380050007000000DEM       President KENDALL COUNTYWIDE                            OVER VOTES                            PRECINCT 1140                                          01 
01380050008000000DEM       President KENDALL COUNTYWIDE                            OVER VOTES                            PRECINCT 1170                                          01 
01380050009000000DEM       President KENDALL COUNTYWIDE                            OVER VOTES                            PRECINCT 1180                                          01 
01380050010000000DEM       President KENDALL COUNTYWIDE                            OVER VOTES                            PRECINCT 1190                                          01 
01380050011000000DEM       President KENDALL COUNTYWIDE                            OVER VOTES                            PRECINCT 1200                                          01 
01380050012000000DEM       President KENDALL COUNTYWIDE                            OVER VOTES                            PRECINCT 2020                                          01 
01380050013000000DEM       President KENDALL COUNTYWIDE                            OVER VOTES                            PRECINCT 2080                                          01 
01380050014000000DEM       President KENDALL COUNTYWIDE                            OVER VOTES                            PRECINCT 2082                                          01 
01380050015000000DEM       President KENDALL COUNTYWIDE                            OVER VOTES                            PRECINCT 2084                                          01 
01380050016000000DEM       President KENDALL COUNTYWIDE                            OVER VOTES                            PRECINCT 2085                                          01 
01380050017000000DEM       President KENDALL COUNTYWIDE                            OVER VOTES                            PRECINCT 2120                                          01 
01380050018000000DEM       President KENDALL COUNTYWIDE                            OVER VOTES                            PRECINCT 2210                                          01 
01380050019000000DEM       President KENDALL COUNTYWIDE                            OVER VOTES                            PRECINCT 3030                                          01 
01380050020000000DEM       President KENDALL COUNTYWIDE                            OVER VOTES                            PRECINCT 3040                                          01 
01380050021000000DEM       President KENDALL COUNTYWIDE                            OVER VOTES                            PRECINCT 3041                                          01 
01380050022000000DEM       President KENDALL COUNTYWIDE                            OVER VOTES                            PRECINCT 3042                                          01 
01380050023000000DEM       President KENDALL COUNTYWIDE                            OVER VOTES                            PRECINCT 3044                                          01 
01380050024000000DEM       President KENDALL COUNTYWIDE                            OVER VOTES                            PRECINCT 3060                                          01 
01380050025000000DEM       President KENDALL COUNTYWIDE                            OVER VOTES                            PRECINCT 3220                                          01 
01380050026000000DEM       President KENDALL COUNTYWIDE                            OVER VOTES                            PRECINCT 4050                                          01 
01380050027000000DEM       President KENDALL COUNTYWIDE                            OVER VOTES                            PRECINCT 4070                                          01 
01380050028000000DEM       President KENDALL COUNTYWIDE                            OVER VOTES                            PRECINCT 4100                                          01 
01380050029000000DEM       President KENDALL COUNTYWIDE                            OVER VOTES                            PRECINCT 4101                                          01 
01380050030000000DEM       President KENDALL COUNTYWIDE                            OVER VOTES                            PRECINCT 4103                                          01 
01380050031000000DEM       President KENDALL COUNTYWIDE                            OVER VOTES                            PRECINCT 4230                                          01 
01380050032000000DEM       President KENDALL COUNTYWIDE                            OVER VOTES                            PRECINCT 4240                                          01 
01380050033000000DEM       President KENDALL COUNTYWIDE                            OVER VOTES                            PRECINCT 4250                                          01 
01380060001000000DEM       President KENDALL COUNTYWIDE                            UNDER VOTES                           PRECINCT 1011                                          01 
01380060002000001DEM       President KENDALL COUNTYWIDE                            UNDER VOTES                           PRECINCT 1013                                          01 
01380060003000001DEM       President KENDALL COUNTYWIDE                            UNDER VOTES                           PRECINCT 1014                                          01 
01380060004000000DEM       President KENDALL COUNTYWIDE                            UNDER VOTES                           PRECINCT 1110                                          01 
01380060005000000DEM       President KENDALL COUNTYWIDE                            UNDER VOTES                           PRECINCT 1115                                          01 
01380060006000000DEM       President KENDALL COUNTYWIDE                            UNDER VOTES                           PRECINCT 1130                                          01 
01380060007000000DEM       President KENDALL COUNTYWIDE                            UNDER VOTES                           PRECINCT 1140                                          01 
01380060008000000DEM       President KENDALL COUNTYWIDE                            UNDER VOTES                           PRECINCT 1170                                          01 
01380060009000000DEM       President KENDALL COUNTYWIDE                            UNDER VOTES                           PRECINCT 1180                                          01 
01380060010000000DEM       President KENDALL COUNTYWIDE                            UNDER VOTES                           PRECINCT 1190                                          01 
01380060011000000DEM       President KENDALL COUNTYWIDE                            UNDER VOTES                           PRECINCT 1200                                          01 
01380060012000000DEM       President KENDALL COUNTYWIDE                            UNDER VOTES                           PRECINCT 2020                                          01 
01380060013000000DEM       President KENDALL COUNTYWIDE                            UNDER VOTES                           PRECINCT 2080                                          01 
01380060014000001DEM       President KENDALL COUNTYWIDE                            UNDER VOTES                           PRECINCT 2082                                          01 
01380060015000000DEM       President KENDALL COUNTYWIDE                            UNDER VOTES                           PRECINCT 2084                                          01 
01380060016000000DEM       President KENDALL COUNTYWIDE                            UNDER VOTES                           PRECINCT 2085                                          01 
01380060017000001DEM       President KENDALL COUNTYWIDE                            UNDER VOTES                           PRECINCT 2120                                          01 
01380060018000000DEM       President KENDALL COUNTYWIDE                            UNDER VOTES                           PRECINCT 2210                                          01 
01380060019000002DEM       President KENDALL COUNTYWIDE                            UNDER VOTES                           PRECINCT 3030                                          01 
01380060020000003DEM       President KENDALL COUNTYWIDE                            UNDER VOTES                           PRECINCT 3040                                          01 
01380060021000001DEM       President KENDALL COUNTYWIDE                            UNDER VOTES                           PRECINCT 3041                                          01 
01380060022000000DEM       President KENDALL COUNTYWIDE                            UNDER VOTES                           PRECINCT 3042                                          01 
01380060023000000DEM       President KENDALL COUNTYWIDE                            UNDER VOTES                           PRECINCT 3044                                          01 
01380060024000000DEM       President KENDALL COUNTYWIDE                            UNDER VOTES                           PRECINCT 3060                                          01 
01380060025000000DEM       President KENDALL COUNTYWIDE                            UNDER VOTES                           PRECINCT 3220                                          01 
01380060026000000DEM       President KENDALL COUNTYWIDE                            UNDER VOTES                           PRECINCT 4050                                          01 
01380060027000000DEM       President KENDALL COUNTYWIDE                            UNDER VOTES                           PRECINCT 4070                                          01 
01380060028000000DEM       President KENDALL COUNTYWIDE                            UNDER VOTES                           PRECINCT 4100                                          01 
01380060029000000DEM       President KENDALL COUNTYWIDE                            UNDER VOTES                           PRECINCT 4101                                          01 
01380060030000000DEM       President KENDALL COUNTYWIDE                            UNDER VOTES                           PRECINCT 4103                                          01 
01380060031000000DEM       President KENDALL COUNTYWIDE                            UNDER VOTES                           PRECINCT 4230                                          01 
01380060032000000DEM       President KENDALL COUNTYWIDE                            UNDER VOTES                           PRECINCT 4240                                          01 
01380060033000000DEM       President KENDALL COUNTYWIDE                            UNDER VOTES                           PRECINCT 4250                                          01 
01390010001000001DEM       United States Senator KENDALL COUNTYWIDE                Sean Hubbard                          PRECINCT 1011                                          01 
01390010002000003DEM       United States Senator KENDALL COUNTYWIDE                Sean Hubbard                          PRECINCT 1013                                          01 
01390010003000001DEM       United States Senator KENDALL COUNTYWIDE                Sean Hubbard                          PRECINCT 1014                                          01 
01390010004000001DEM       United States Senator KENDALL COUNTYWIDE                Sean Hubbard                          PRECINCT 1110                                          01 
01390010005000006DEM       United States Senator KENDALL COUNTYWIDE                Sean Hubbard                          PRECINCT 1115                                          01 
01390010006000000DEM       United States Senator KENDALL COUNTYWIDE                Sean Hubbard                          PRECINCT 1130                                          01 
01390010007000000DEM       United States Senator KENDALL COUNTYWIDE                Sean Hubbard                          PRECINCT 1140                                          01 
01390010008000000DEM       United States Senator KENDALL COUNTYWIDE                Sean Hubbard                          PRECINCT 1170                                          01 
01390010009000000DEM       United States Senator KENDALL COUNTYWIDE                Sean Hubbard                          PRECINCT 1180                                          01 
01390010010000000DEM       United States Senator KENDALL COUNTYWIDE                Sean Hubbard                          PRECINCT 1190                                          01 
01390010011000000DEM       United States Senator KENDALL COUNTYWIDE                Sean Hubbard                          PRECINCT 1200                                          01 
01390010012000002DEM       United States Senator KENDALL COUNTYWIDE                Sean Hubbard                          PRECINCT 2020                                          01 
01390010013000003DEM       United States Senator KENDALL COUNTYWIDE                Sean Hubbard                          PRECINCT 2080                                          01 
01390010014000005DEM       United States Senator KENDALL COUNTYWIDE                Sean Hubbard                          PRECINCT 2082                                          01 
01390010015000000DEM       United States Senator KENDALL COUNTYWIDE                Sean Hubbard                          PRECINCT 2084                                          01 
01390010016000000DEM       United States Senator KENDALL COUNTYWIDE                Sean Hubbard                          PRECINCT 2085                                          01 
01390010017000000DEM       United States Senator KENDALL COUNTYWIDE                Sean Hubbard                          PRECINCT 2120                                          01 
01390010018000001DEM       United States Senator KENDALL COUNTYWIDE                Sean Hubbard                          PRECINCT 2210                                          01 
01390010019000001DEM       United States Senator KENDALL COUNTYWIDE                Sean Hubbard                          PRECINCT 3030                                          01 
01390010020000004DEM       United States Senator KENDALL COUNTYWIDE                Sean Hubbard                          PRECINCT 3040                                          01 
01390010021000002DEM       United States Senator KENDALL COUNTYWIDE                Sean Hubbard                          PRECINCT 3041                                          01 
01390010022000001DEM       United States Senator KENDALL COUNTYWIDE                Sean Hubbard                          PRECINCT 3042                                          01 
01390010023000001DEM       United States Senator KENDALL COUNTYWIDE                Sean Hubbard                          PRECINCT 3044                                          01 
01390010024000001DEM       United States Senator KENDALL COUNTYWIDE                Sean Hubbard                          PRECINCT 3060                                          01 
01390010025000000DEM       United States Senator KENDALL COUNTYWIDE                Sean Hubbard                          PRECINCT 3220                                          01 
01390010026000005DEM       United States Senator KENDALL COUNTYWIDE                Sean Hubbard                          PRECINCT 4050                                          01 
01390010027000000DEM       United States Senator KENDALL COUNTYWIDE                Sean Hubbard                          PRECINCT 4070                                          01 
01390010028000004DEM       United States Senator KENDALL COUNTYWIDE                Sean Hubbard                          PRECINCT 4100                                          01 
01390010029000000DEM       United States Senator KENDALL COUNTYWIDE                Sean Hubbard                          PRECINCT 4101                                          01 
01390010030000001DEM       United States Senator KENDALL COUNTYWIDE                Sean Hubbard                          PRECINCT 4103                                          01 
01390010031000000DEM       United States Senator KENDALL COUNTYWIDE                Sean Hubbard                          PRECINCT 4230                                          01 
01390010032000000DEM       United States Senator KENDALL COUNTYWIDE                Sean Hubbard                          PRECINCT 4240                                          01 
01390010033000000DEM       United States Senator KENDALL COUNTYWIDE                Sean Hubbard                          PRECINCT 4250                                          01 
01390020001000000DEM       United States Senator KENDALL COUNTYWIDE                Addie Dainell Allen                   PRECINCT 1011                                          01 
01390020002000002DEM       United States Senator KENDALL COUNTYWIDE                Addie Dainell Allen                   PRECINCT 1013                                          01 
01390020003000004DEM       United States Senator KENDALL COUNTYWIDE                Addie Dainell Allen                   PRECINCT 1014                                          01 
01390020004000011DEM       United States Senator KENDALL COUNTYWIDE                Addie Dainell Allen                   PRECINCT 1110                                          01 
01390020005000002DEM       United States Senator KENDALL COUNTYWIDE                Addie Dainell Allen                   PRECINCT 1115                                          01 
01390020006000000DEM       United States Senator KENDALL COUNTYWIDE                Addie Dainell Allen                   PRECINCT 1130                                          01 
01390020007000000DEM       United States Senator KENDALL COUNTYWIDE                Addie Dainell Allen                   PRECINCT 1140                                          01 
01390020008000000DEM       United States Senator KENDALL COUNTYWIDE                Addie Dainell Allen                   PRECINCT 1170                                          01 
01390020009000000DEM       United States Senator KENDALL COUNTYWIDE                Addie Dainell Allen                   PRECINCT 1180                                          01 
01390020010000000DEM       United States Senator KENDALL COUNTYWIDE                Addie Dainell Allen                   PRECINCT 1190                                          01 
01390020011000000DEM       United States Senator KENDALL COUNTYWIDE                Addie Dainell Allen                   PRECINCT 1200                                          01 
01390020012000004DEM       United States Senator KENDALL COUNTYWIDE                Addie Dainell Allen                   PRECINCT 2020                                          01 
01390020013000006DEM       United States Senator KENDALL COUNTYWIDE                Addie Dainell Allen                   PRECINCT 2080                                          01 
01390020014000002DEM       United States Senator KENDALL COUNTYWIDE                Addie Dainell Allen                   PRECINCT 2082                                          01 
01390020015000000DEM       United States Senator KENDALL COUNTYWIDE                Addie Dainell Allen                   PRECINCT 2084                                          01 
01390020016000001DEM       United States Senator KENDALL COUNTYWIDE                Addie Dainell Allen                   PRECINCT 2085                                          01 
01390020017000003DEM       United States Senator KENDALL COUNTYWIDE                Addie Dainell Allen                   PRECINCT 2120                                          01 
01390020018000000DEM       United States Senator KENDALL COUNTYWIDE                Addie Dainell Allen                   PRECINCT 2210                                          01 
01390020019000002DEM       United States Senator KENDALL COUNTYWIDE                Addie Dainell Allen                   PRECINCT 3030                                          01 
01390020020000005DEM       United States Senator KENDALL COUNTYWIDE                Addie Dainell Allen                   PRECINCT 3040                                          01 
01390020021000003DEM       United States Senator KENDALL COUNTYWIDE                Addie Dainell Allen                   PRECINCT 3041                                          01 
01390020022000001DEM       United States Senator KENDALL COUNTYWIDE                Addie Dainell Allen                   PRECINCT 3042                                          01 
01390020023000003DEM       United States Senator KENDALL COUNTYWIDE                Addie Dainell Allen                   PRECINCT 3044                                          01 
01390020024000000DEM       United States Senator KENDALL COUNTYWIDE                Addie Dainell Allen                   PRECINCT 3060                                          01 
01390020025000000DEM       United States Senator KENDALL COUNTYWIDE                Addie Dainell Allen                   PRECINCT 3220                                          01 
01390020026000007DEM       United States Senator KENDALL COUNTYWIDE                Addie Dainell Allen                   PRECINCT 4050                                          01 
01390020027000000DEM       United States Senator KENDALL COUNTYWIDE                Addie Dainell Allen                   PRECINCT 4070                                          01 
01390020028000005DEM       United States Senator KENDALL COUNTYWIDE                Addie Dainell Allen                   PRECINCT 4100                                          01 
01390020029000000DEM       United States Senator KENDALL COUNTYWIDE                Addie Dainell Allen                   PRECINCT 4101                                          01 
01390020030000000DEM       United States Senator KENDALL COUNTYWIDE                Addie Dainell Allen                   PRECINCT 4103                                          01 
01390020031000000DEM       United States Senator KENDALL COUNTYWIDE                Addie Dainell Allen                   PRECINCT 4230                                          01 
01390020032000000DEM       United States Senator KENDALL COUNTYWIDE                Addie Dainell Allen                   PRECINCT 4240                                          01 
01390020033000000DEM       United States Senator KENDALL COUNTYWIDE                Addie Dainell Allen                   PRECINCT 4250                                          01 
01390030001000000DEM       United States Senator KENDALL COUNTYWIDE                Grady Yarbrough                       PRECINCT 1011                                          01 
01390030002000004DEM       United States Senator KENDALL COUNTYWIDE                Grady Yarbrough                       PRECINCT 1013                                          01 
01390030003000007DEM       United States Senator KENDALL COUNTYWIDE                Grady Yarbrough                       PRECINCT 1014                                          01 
01390030004000002DEM       United States Senator KENDALL COUNTYWIDE                Grady Yarbrough                       PRECINCT 1110                                          01 
01390030005000001DEM       United States Senator KENDALL COUNTYWIDE                Grady Yarbrough                       PRECINCT 1115                                          01 
01390030006000000DEM       United States Senator KENDALL COUNTYWIDE                Grady Yarbrough                       PRECINCT 1130                                          01 
01390030007000000DEM       United States Senator KENDALL COUNTYWIDE                Grady Yarbrough                       PRECINCT 1140                                          01 
01390030008000000DEM       United States Senator KENDALL COUNTYWIDE                Grady Yarbrough                       PRECINCT 1170                                          01 
01390030009000000DEM       United States Senator KENDALL COUNTYWIDE                Grady Yarbrough                       PRECINCT 1180                                          01 
01390030010000001DEM       United States Senator KENDALL COUNTYWIDE                Grady Yarbrough                       PRECINCT 1190                                          01 
01390030011000000DEM       United States Senator KENDALL COUNTYWIDE                Grady Yarbrough                       PRECINCT 1200                                          01 
01390030012000005DEM       United States Senator KENDALL COUNTYWIDE                Grady Yarbrough                       PRECINCT 2020                                          01 
01390030013000002DEM       United States Senator KENDALL COUNTYWIDE                Grady Yarbrough                       PRECINCT 2080                                          01 
01390030014000005DEM       United States Senator KENDALL COUNTYWIDE                Grady Yarbrough                       PRECINCT 2082                                          01 
01390030015000003DEM       United States Senator KENDALL COUNTYWIDE                Grady Yarbrough                       PRECINCT 2084                                          01 
01390030016000001DEM       United States Senator KENDALL COUNTYWIDE                Grady Yarbrough                       PRECINCT 2085                                          01 
01390030017000001DEM       United States Senator KENDALL COUNTYWIDE                Grady Yarbrough                       PRECINCT 2120                                          01 
01390030018000000DEM       United States Senator KENDALL COUNTYWIDE                Grady Yarbrough                       PRECINCT 2210                                          01 
01390030019000006DEM       United States Senator KENDALL COUNTYWIDE                Grady Yarbrough                       PRECINCT 3030                                          01 
01390030020000002DEM       United States Senator KENDALL COUNTYWIDE                Grady Yarbrough                       PRECINCT 3040                                          01 
01390030021000004DEM       United States Senator KENDALL COUNTYWIDE                Grady Yarbrough                       PRECINCT 3041                                          01 
01390030022000000DEM       United States Senator KENDALL COUNTYWIDE                Grady Yarbrough                       PRECINCT 3042                                          01 
01390030023000005DEM       United States Senator KENDALL COUNTYWIDE                Grady Yarbrough                       PRECINCT 3044                                          01 
01390030024000000DEM       United States Senator KENDALL COUNTYWIDE                Grady Yarbrough                       PRECINCT 3060                                          01 
01390030025000000DEM       United States Senator KENDALL COUNTYWIDE                Grady Yarbrough                       PRECINCT 3220                                          01 
01390030026000005DEM       United States Senator KENDALL COUNTYWIDE                Grady Yarbrough                       PRECINCT 4050                                          01 
01390030027000001DEM       United States Senator KENDALL COUNTYWIDE                Grady Yarbrough                       PRECINCT 4070                                          01 
01390030028000006DEM       United States Senator KENDALL COUNTYWIDE                Grady Yarbrough                       PRECINCT 4100                                          01 
01390030029000000DEM       United States Senator KENDALL COUNTYWIDE                Grady Yarbrough                       PRECINCT 4101                                          01 
01390030030000001DEM       United States Senator KENDALL COUNTYWIDE                Grady Yarbrough                       PRECINCT 4103                                          01 
01390030031000000DEM       United States Senator KENDALL COUNTYWIDE                Grady Yarbrough                       PRECINCT 4230                                          01 
01390030032000000DEM       United States Senator KENDALL COUNTYWIDE                Grady Yarbrough                       PRECINCT 4240                                          01 
01390030033000000DEM       United States Senator KENDALL COUNTYWIDE                Grady Yarbrough                       PRECINCT 4250                                          01 
01390040001000000DEM       United States Senator KENDALL COUNTYWIDE                Paul Sadler                           PRECINCT 1011                                          01 
01390040002000003DEM       United States Senator KENDALL COUNTYWIDE                Paul Sadler                           PRECINCT 1013                                          01 
01390040003000000DEM       United States Senator KENDALL COUNTYWIDE                Paul Sadler                           PRECINCT 1014                                          01 
01390040004000014DEM       United States Senator KENDALL COUNTYWIDE                Paul Sadler                           PRECINCT 1110                                          01 
01390040005000005DEM       United States Senator KENDALL COUNTYWIDE                Paul Sadler                           PRECINCT 1115                                          01 
01390040006000000DEM       United States Senator KENDALL COUNTYWIDE                Paul Sadler                           PRECINCT 1130                                          01 
01390040007000000DEM       United States Senator KENDALL COUNTYWIDE                Paul Sadler                           PRECINCT 1140                                          01 
01390040008000000DEM       United States Senator KENDALL COUNTYWIDE                Paul Sadler                           PRECINCT 1170                                          01 
01390040009000000DEM       United States Senator KENDALL COUNTYWIDE                Paul Sadler                           PRECINCT 1180                                          01 
01390040010000001DEM       United States Senator KENDALL COUNTYWIDE                Paul Sadler                           PRECINCT 1190                                          01 
01390040011000000DEM       United States Senator KENDALL COUNTYWIDE                Paul Sadler                           PRECINCT 1200                                          01 
01390040012000006DEM       United States Senator KENDALL COUNTYWIDE                Paul Sadler                           PRECINCT 2020                                          01 
01390040013000007DEM       United States Senator KENDALL COUNTYWIDE                Paul Sadler                           PRECINCT 2080                                          01 
01390040014000007DEM       United States Senator KENDALL COUNTYWIDE                Paul Sadler                           PRECINCT 2082                                          01 
01390040015000000DEM       United States Senator KENDALL COUNTYWIDE                Paul Sadler                           PRECINCT 2084                                          01 
01390040016000000DEM       United States Senator KENDALL COUNTYWIDE                Paul Sadler                           PRECINCT 2085                                          01 
01390040017000011DEM       United States Senator KENDALL COUNTYWIDE                Paul Sadler                           PRECINCT 2120                                          01 
01390040018000000DEM       United States Senator KENDALL COUNTYWIDE                Paul Sadler                           PRECINCT 2210                                          01 
01390040019000005DEM       United States Senator KENDALL COUNTYWIDE                Paul Sadler                           PRECINCT 3030                                          01 
01390040020000005DEM       United States Senator KENDALL COUNTYWIDE                Paul Sadler                           PRECINCT 3040                                          01 
01390040021000003DEM       United States Senator KENDALL COUNTYWIDE                Paul Sadler                           PRECINCT 3041                                          01 
01390040022000001DEM       United States Senator KENDALL COUNTYWIDE                Paul Sadler                           PRECINCT 3042                                          01 
01390040023000004DEM       United States Senator KENDALL COUNTYWIDE                Paul Sadler                           PRECINCT 3044                                          01 
01390040024000000DEM       United States Senator KENDALL COUNTYWIDE                Paul Sadler                           PRECINCT 3060                                          01 
01390040025000000DEM       United States Senator KENDALL COUNTYWIDE                Paul Sadler                           PRECINCT 3220                                          01 
01390040026000007DEM       United States Senator KENDALL COUNTYWIDE                Paul Sadler                           PRECINCT 4050                                          01 
01390040027000003DEM       United States Senator KENDALL COUNTYWIDE                Paul Sadler                           PRECINCT 4070                                          01 
01390040028000014DEM       United States Senator KENDALL COUNTYWIDE                Paul Sadler                           PRECINCT 4100                                          01 
01390040029000001DEM       United States Senator KENDALL COUNTYWIDE                Paul Sadler                           PRECINCT 4101                                          01 
01390040030000002DEM       United States Senator KENDALL COUNTYWIDE                Paul Sadler                           PRECINCT 4103                                          01 
01390040031000000DEM       United States Senator KENDALL COUNTYWIDE                Paul Sadler                           PRECINCT 4230                                          01 
01390040032000000DEM       United States Senator KENDALL COUNTYWIDE                Paul Sadler                           PRECINCT 4240                                          01 
01390040033000000DEM       United States Senator KENDALL COUNTYWIDE                Paul Sadler                           PRECINCT 4250                                          01 
01390050001000000DEM       United States Senator KENDALL COUNTYWIDE                OVER VOTES                            PRECINCT 1011                                          01 
01390050002000000DEM       United States Senator KENDALL COUNTYWIDE                OVER VOTES                            PRECINCT 1013                                          01 
01390050003000000DEM       United States Senator KENDALL COUNTYWIDE                OVER VOTES                            PRECINCT 1014                                          01 
01390050004000000DEM       United States Senator KENDALL COUNTYWIDE                OVER VOTES                            PRECINCT 1110                                          01 
01390050005000000DEM       United States Senator KENDALL COUNTYWIDE                OVER VOTES                            PRECINCT 1115                                          01 
01390050006000000DEM       United States Senator KENDALL COUNTYWIDE                OVER VOTES                            PRECINCT 1130                                          01 
01390050007000000DEM       United States Senator KENDALL COUNTYWIDE                OVER VOTES                            PRECINCT 1140                                          01 
01390050008000000DEM       United States Senator KENDALL COUNTYWIDE                OVER VOTES                            PRECINCT 1170                                          01 
01390050009000000DEM       United States Senator KENDALL COUNTYWIDE                OVER VOTES                            PRECINCT 1180                                          01 
01390050010000000DEM       United States Senator KENDALL COUNTYWIDE                OVER VOTES                            PRECINCT 1190                                          01 
01390050011000000DEM       United States Senator KENDALL COUNTYWIDE                OVER VOTES                            PRECINCT 1200                                          01 
01390050012000000DEM       United States Senator KENDALL COUNTYWIDE                OVER VOTES                            PRECINCT 2020                                          01 
01390050013000000DEM       United States Senator KENDALL COUNTYWIDE                OVER VOTES                            PRECINCT 2080                                          01 
01390050014000000DEM       United States Senator KENDALL COUNTYWIDE                OVER VOTES                            PRECINCT 2082                                          01 
01390050015000000DEM       United States Senator KENDALL COUNTYWIDE                OVER VOTES                            PRECINCT 2084                                          01 
01390050016000000DEM       United States Senator KENDALL COUNTYWIDE                OVER VOTES                            PRECINCT 2085                                          01 
01390050017000000DEM       United States Senator KENDALL COUNTYWIDE                OVER VOTES                            PRECINCT 2120                                          01 
01390050018000000DEM       United States Senator KENDALL COUNTYWIDE                OVER VOTES                            PRECINCT 2210                                          01 
01390050019000000DEM       United States Senator KENDALL COUNTYWIDE                OVER VOTES                            PRECINCT 3030                                          01 
01390050020000000DEM       United States Senator KENDALL COUNTYWIDE                OVER VOTES                            PRECINCT 3040                                          01 
01390050021000000DEM       United States Senator KENDALL COUNTYWIDE                OVER VOTES                            PRECINCT 3041                                          01 
01390050022000000DEM       United States Senator KENDALL COUNTYWIDE                OVER VOTES                            PRECINCT 3042                                          01 
01390050023000000DEM       United States Senator KENDALL COUNTYWIDE                OVER VOTES                            PRECINCT 3044                                          01 
01390050024000000DEM       United States Senator KENDALL COUNTYWIDE                OVER VOTES                            PRECINCT 3060                                          01 
01390050025000000DEM       United States Senator KENDALL COUNTYWIDE                OVER VOTES                            PRECINCT 3220                                          01 
01390050026000000DEM       United States Senator KENDALL COUNTYWIDE                OVER VOTES                            PRECINCT 4050                                          01 
01390050027000000DEM       United States Senator KENDALL COUNTYWIDE                OVER VOTES                            PRECINCT 4070                                          01 
01390050028000000DEM       United States Senator KENDALL COUNTYWIDE                OVER VOTES                            PRECINCT 4100                                          01 
01390050029000000DEM       United States Senator KENDALL COUNTYWIDE                OVER VOTES                            PRECINCT 4101                                          01 
01390050030000000DEM       United States Senator KENDALL COUNTYWIDE                OVER VOTES                            PRECINCT 4103                                          01 
01390050031000000DEM       United States Senator KENDALL COUNTYWIDE                OVER VOTES                            PRECINCT 4230                                          01 
01390050032000000DEM       United States Senator KENDALL COUNTYWIDE                OVER VOTES                            PRECINCT 4240                                          01 
01390050033000000DEM       United States Senator KENDALL COUNTYWIDE                OVER VOTES                            PRECINCT 4250                                          01 
01390060001000000DEM       United States Senator KENDALL COUNTYWIDE                UNDER VOTES                           PRECINCT 1011                                          01 
01390060002000003DEM       United States Senator KENDALL COUNTYWIDE                UNDER VOTES                           PRECINCT 1013                                          01 
01390060003000002DEM       United States Senator KENDALL COUNTYWIDE                UNDER VOTES                           PRECINCT 1014                                          01 
01390060004000009DEM       United States Senator KENDALL COUNTYWIDE                UNDER VOTES                           PRECINCT 1110                                          01 
01390060005000002DEM       United States Senator KENDALL COUNTYWIDE                UNDER VOTES                           PRECINCT 1115                                          01 
01390060006000000DEM       United States Senator KENDALL COUNTYWIDE                UNDER VOTES                           PRECINCT 1130                                          01 
01390060007000000DEM       United States Senator KENDALL COUNTYWIDE                UNDER VOTES                           PRECINCT 1140                                          01 
01390060008000000DEM       United States Senator KENDALL COUNTYWIDE                UNDER VOTES                           PRECINCT 1170                                          01 
01390060009000000DEM       United States Senator KENDALL COUNTYWIDE                UNDER VOTES                           PRECINCT 1180                                          01 
01390060010000000DEM       United States Senator KENDALL COUNTYWIDE                UNDER VOTES                           PRECINCT 1190                                          01 
01390060011000000DEM       United States Senator KENDALL COUNTYWIDE                UNDER VOTES                           PRECINCT 1200                                          01 
01390060012000000DEM       United States Senator KENDALL COUNTYWIDE                UNDER VOTES                           PRECINCT 2020                                          01 
01390060013000007DEM       United States Senator KENDALL COUNTYWIDE                UNDER VOTES                           PRECINCT 2080                                          01 
01390060014000002DEM       United States Senator KENDALL COUNTYWIDE                UNDER VOTES                           PRECINCT 2082                                          01 
01390060015000000DEM       United States Senator KENDALL COUNTYWIDE                UNDER VOTES                           PRECINCT 2084                                          01 
01390060016000000DEM       United States Senator KENDALL COUNTYWIDE                UNDER VOTES                           PRECINCT 2085                                          01 
01390060017000001DEM       United States Senator KENDALL COUNTYWIDE                UNDER VOTES                           PRECINCT 2120                                          01 
01390060018000000DEM       United States Senator KENDALL COUNTYWIDE                UNDER VOTES                           PRECINCT 2210                                          01 
01390060019000004DEM       United States Senator KENDALL COUNTYWIDE                UNDER VOTES                           PRECINCT 3030                                          01 
01390060020000003DEM       United States Senator KENDALL COUNTYWIDE                UNDER VOTES                           PRECINCT 3040                                          01 
01390060021000001DEM       United States Senator KENDALL COUNTYWIDE                UNDER VOTES                           PRECINCT 3041                                          01 
01390060022000000DEM       United States Senator KENDALL COUNTYWIDE                UNDER VOTES                           PRECINCT 3042                                          01 
01390060023000001DEM       United States Senator KENDALL COUNTYWIDE                UNDER VOTES                           PRECINCT 3044                                          01 
01390060024000000DEM       United States Senator KENDALL COUNTYWIDE                UNDER VOTES                           PRECINCT 3060                                          01 
01390060025000000DEM       United States Senator KENDALL COUNTYWIDE                UNDER VOTES                           PRECINCT 3220                                          01 
01390060026000006DEM       United States Senator KENDALL COUNTYWIDE                UNDER VOTES                           PRECINCT 4050                                          01 
01390060027000002DEM       United States Senator KENDALL COUNTYWIDE                UNDER VOTES                           PRECINCT 4070                                          01 
01390060028000004DEM       United States Senator KENDALL COUNTYWIDE                UNDER VOTES                           PRECINCT 4100                                          01 
01390060029000000DEM       United States Senator KENDALL COUNTYWIDE                UNDER VOTES                           PRECINCT 4101                                          01 
01390060030000000DEM       United States Senator KENDALL COUNTYWIDE                UNDER VOTES                           PRECINCT 4103                                          01 
01390060031000000DEM       United States Senator KENDALL COUNTYWIDE                UNDER VOTES                           PRECINCT 4230                                          01 
01390060032000000DEM       United States Senator KENDALL COUNTYWIDE                UNDER VOTES                           PRECINCT 4240                                          01 
01390060033000000DEM       United States Senator KENDALL COUNTYWIDE                UNDER VOTES                           PRECINCT 4250                                          01 
01400010001000001DEM       US Representative, District 21 KENDALL COUNTYWIDE       Daniel Boone                          PRECINCT 1011                                          01 
01400010002000007DEM       US Representative, District 21 KENDALL COUNTYWIDE       Daniel Boone                          PRECINCT 1013                                          01 
01400010003000007DEM       US Representative, District 21 KENDALL COUNTYWIDE       Daniel Boone                          PRECINCT 1014                                          01 
01400010004000013DEM       US Representative, District 21 KENDALL COUNTYWIDE       Daniel Boone                          PRECINCT 1110                                          01 
01400010005000005DEM       US Representative, District 21 KENDALL COUNTYWIDE       Daniel Boone                          PRECINCT 1115                                          01 
01400010006000000DEM       US Representative, District 21 KENDALL COUNTYWIDE       Daniel Boone                          PRECINCT 1130                                          01 
01400010007000000DEM       US Representative, District 21 KENDALL COUNTYWIDE       Daniel Boone                          PRECINCT 1140                                          01 
01400010008000000DEM       US Representative, District 21 KENDALL COUNTYWIDE       Daniel Boone                          PRECINCT 1170                                          01 
01400010009000000DEM       US Representative, District 21 KENDALL COUNTYWIDE       Daniel Boone                          PRECINCT 1180                                          01 
01400010010000002DEM       US Representative, District 21 KENDALL COUNTYWIDE       Daniel Boone                          PRECINCT 1190                                          01 
01400010011000000DEM       US Representative, District 21 KENDALL COUNTYWIDE       Daniel Boone                          PRECINCT 1200                                          01 
01400010012000008DEM       US Representative, District 21 KENDALL COUNTYWIDE       Daniel Boone                          PRECINCT 2020                                          01 
01400010013000011DEM       US Representative, District 21 KENDALL COUNTYWIDE       Daniel Boone                          PRECINCT 2080                                          01 
01400010014000013DEM       US Representative, District 21 KENDALL COUNTYWIDE       Daniel Boone                          PRECINCT 2082                                          01 
01400010015000002DEM       US Representative, District 21 KENDALL COUNTYWIDE       Daniel Boone                          PRECINCT 2084                                          01 
01400010016000001DEM       US Representative, District 21 KENDALL COUNTYWIDE       Daniel Boone                          PRECINCT 2085                                          01 
01400010017000007DEM       US Representative, District 21 KENDALL COUNTYWIDE       Daniel Boone                          PRECINCT 2120                                          01 
01400010018000000DEM       US Representative, District 21 KENDALL COUNTYWIDE       Daniel Boone                          PRECINCT 2210                                          01 
01400010019000005DEM       US Representative, District 21 KENDALL COUNTYWIDE       Daniel Boone                          PRECINCT 3030                                          01 
01400010020000012DEM       US Representative, District 21 KENDALL COUNTYWIDE       Daniel Boone                          PRECINCT 3040                                          01 
01400010021000006DEM       US Representative, District 21 KENDALL COUNTYWIDE       Daniel Boone                          PRECINCT 3041                                          01 
01400010022000001DEM       US Representative, District 21 KENDALL COUNTYWIDE       Daniel Boone                          PRECINCT 3042                                          01 
01400010023000008DEM       US Representative, District 21 KENDALL COUNTYWIDE       Daniel Boone                          PRECINCT 3044                                          01 
01400010024000001DEM       US Representative, District 21 KENDALL COUNTYWIDE       Daniel Boone                          PRECINCT 3060                                          01 
01400010025000000DEM       US Representative, District 21 KENDALL COUNTYWIDE       Daniel Boone                          PRECINCT 3220                                          01 
01400010026000012DEM       US Representative, District 21 KENDALL COUNTYWIDE       Daniel Boone                          PRECINCT 4050                                          01 
01400010027000004DEM       US Representative, District 21 KENDALL COUNTYWIDE       Daniel Boone                          PRECINCT 4070                                          01 
01400010028000014DEM       US Representative, District 21 KENDALL COUNTYWIDE       Daniel Boone                          PRECINCT 4100                                          01 
01400010029000000DEM       US Representative, District 21 KENDALL COUNTYWIDE       Daniel Boone                          PRECINCT 4101                                          01 
01400010030000001DEM       US Representative, District 21 KENDALL COUNTYWIDE       Daniel Boone                          PRECINCT 4103                                          01 
01400010031000000DEM       US Representative, District 21 KENDALL COUNTYWIDE       Daniel Boone                          PRECINCT 4230                                          01 
01400010032000000DEM       US Representative, District 21 KENDALL COUNTYWIDE       Daniel Boone                          PRECINCT 4240                                          01 
01400010033000000DEM       US Representative, District 21 KENDALL COUNTYWIDE       Daniel Boone                          PRECINCT 4250                                          01 
01400020001000000DEM       US Representative, District 21 KENDALL COUNTYWIDE       Candace E. Duval                      PRECINCT 1011                                          01 
01400020002000005DEM       US Representative, District 21 KENDALL COUNTYWIDE       Candace E. Duval                      PRECINCT 1013                                          01 
01400020003000005DEM       US Representative, District 21 KENDALL COUNTYWIDE       Candace E. Duval                      PRECINCT 1014                                          01 
01400020004000015DEM       US Representative, District 21 KENDALL COUNTYWIDE       Candace E. Duval                      PRECINCT 1110                                          01 
01400020005000009DEM       US Representative, District 21 KENDALL COUNTYWIDE       Candace E. Duval                      PRECINCT 1115                                          01 
01400020006000000DEM       US Representative, District 21 KENDALL COUNTYWIDE       Candace E. Duval                      PRECINCT 1130                                          01 
01400020007000000DEM       US Representative, District 21 KENDALL COUNTYWIDE       Candace E. Duval                      PRECINCT 1140                                          01 
01400020008000000DEM       US Representative, District 21 KENDALL COUNTYWIDE       Candace E. Duval                      PRECINCT 1170                                          01 
01400020009000000DEM       US Representative, District 21 KENDALL COUNTYWIDE       Candace E. Duval                      PRECINCT 1180                                          01 
01400020010000000DEM       US Representative, District 21 KENDALL COUNTYWIDE       Candace E. Duval                      PRECINCT 1190                                          01 
01400020011000000DEM       US Representative, District 21 KENDALL COUNTYWIDE       Candace E. Duval                      PRECINCT 1200                                          01 
01400020012000009DEM       US Representative, District 21 KENDALL COUNTYWIDE       Candace E. Duval                      PRECINCT 2020                                          01 
01400020013000011DEM       US Representative, District 21 KENDALL COUNTYWIDE       Candace E. Duval                      PRECINCT 2080                                          01 
01400020014000006DEM       US Representative, District 21 KENDALL COUNTYWIDE       Candace E. Duval                      PRECINCT 2082                                          01 
01400020015000001DEM       US Representative, District 21 KENDALL COUNTYWIDE       Candace E. Duval                      PRECINCT 2084                                          01 
01400020016000001DEM       US Representative, District 21 KENDALL COUNTYWIDE       Candace E. Duval                      PRECINCT 2085                                          01 
01400020017000006DEM       US Representative, District 21 KENDALL COUNTYWIDE       Candace E. Duval                      PRECINCT 2120                                          01 
01400020018000001DEM       US Representative, District 21 KENDALL COUNTYWIDE       Candace E. Duval                      PRECINCT 2210                                          01 
01400020019000010DEM       US Representative, District 21 KENDALL COUNTYWIDE       Candace E. Duval                      PRECINCT 3030                                          01 
01400020020000005DEM       US Representative, District 21 KENDALL COUNTYWIDE       Candace E. Duval                      PRECINCT 3040                                          01 
01400020021000007DEM       US Representative, District 21 KENDALL COUNTYWIDE       Candace E. Duval                      PRECINCT 3041                                          01 
01400020022000002DEM       US Representative, District 21 KENDALL COUNTYWIDE       Candace E. Duval                      PRECINCT 3042                                          01 
01400020023000005DEM       US Representative, District 21 KENDALL COUNTYWIDE       Candace E. Duval                      PRECINCT 3044                                          01 
01400020024000000DEM       US Representative, District 21 KENDALL COUNTYWIDE       Candace E. Duval                      PRECINCT 3060                                          01 
01400020025000000DEM       US Representative, District 21 KENDALL COUNTYWIDE       Candace E. Duval                      PRECINCT 3220                                          01 
01400020026000012DEM       US Representative, District 21 KENDALL COUNTYWIDE       Candace E. Duval                      PRECINCT 4050                                          01 
01400020027000000DEM       US Representative, District 21 KENDALL COUNTYWIDE       Candace E. Duval                      PRECINCT 4070                                          01 
01400020028000018DEM       US Representative, District 21 KENDALL COUNTYWIDE       Candace E. Duval                      PRECINCT 4100                                          01 
01400020029000001DEM       US Representative, District 21 KENDALL COUNTYWIDE       Candace E. Duval                      PRECINCT 4101                                          01 
01400020030000002DEM       US Representative, District 21 KENDALL COUNTYWIDE       Candace E. Duval                      PRECINCT 4103                                          01 
01400020031000000DEM       US Representative, District 21 KENDALL COUNTYWIDE       Candace E. Duval                      PRECINCT 4230                                          01 
01400020032000000DEM       US Representative, District 21 KENDALL COUNTYWIDE       Candace E. Duval                      PRECINCT 4240                                          01 
01400020033000000DEM       US Representative, District 21 KENDALL COUNTYWIDE       Candace E. Duval                      PRECINCT 4250                                          01 
01400030001000000DEM       US Representative, District 21 KENDALL COUNTYWIDE       OVER VOTES                            PRECINCT 1011                                          01 
01400030002000000DEM       US Representative, District 21 KENDALL COUNTYWIDE       OVER VOTES                            PRECINCT 1013                                          01 
01400030003000000DEM       US Representative, District 21 KENDALL COUNTYWIDE       OVER VOTES                            PRECINCT 1014                                          01 
01400030004000000DEM       US Representative, District 21 KENDALL COUNTYWIDE       OVER VOTES                            PRECINCT 1110                                          01 
01400030005000000DEM       US Representative, District 21 KENDALL COUNTYWIDE       OVER VOTES                            PRECINCT 1115                                          01 
01400030006000000DEM       US Representative, District 21 KENDALL COUNTYWIDE       OVER VOTES                            PRECINCT 1130                                          01 
01400030007000000DEM       US Representative, District 21 KENDALL COUNTYWIDE       OVER VOTES                            PRECINCT 1140                                          01 
01400030008000000DEM       US Representative, District 21 KENDALL COUNTYWIDE       OVER VOTES                            PRECINCT 1170                                          01 
01400030009000000DEM       US Representative, District 21 KENDALL COUNTYWIDE       OVER VOTES                            PRECINCT 1180                                          01 
01400030010000000DEM       US Representative, District 21 KENDALL COUNTYWIDE       OVER VOTES                            PRECINCT 1190                                          01 
01400030011000000DEM       US Representative, District 21 KENDALL COUNTYWIDE       OVER VOTES                            PRECINCT 1200                                          01 
01400030012000000DEM       US Representative, District 21 KENDALL COUNTYWIDE       OVER VOTES                            PRECINCT 2020                                          01 
01400030013000000DEM       US Representative, District 21 KENDALL COUNTYWIDE       OVER VOTES                            PRECINCT 2080                                          01 
01400030014000000DEM       US Representative, District 21 KENDALL COUNTYWIDE       OVER VOTES                            PRECINCT 2082                                          01 
01400030015000000DEM       US Representative, District 21 KENDALL COUNTYWIDE       OVER VOTES                            PRECINCT 2084                                          01 
01400030016000000DEM       US Representative, District 21 KENDALL COUNTYWIDE       OVER VOTES                            PRECINCT 2085                                          01 
01400030017000000DEM       US Representative, District 21 KENDALL COUNTYWIDE       OVER VOTES                            PRECINCT 2120                                          01 
01400030018000000DEM       US Representative, District 21 KENDALL COUNTYWIDE       OVER VOTES                            PRECINCT 2210                                          01 
01400030019000000DEM       US Representative, District 21 KENDALL COUNTYWIDE       OVER VOTES                            PRECINCT 3030                                          01 
01400030020000000DEM       US Representative, District 21 KENDALL COUNTYWIDE       OVER VOTES                            PRECINCT 3040                                          01 
01400030021000000DEM       US Representative, District 21 KENDALL COUNTYWIDE       OVER VOTES                            PRECINCT 3041                                          01 
01400030022000000DEM       US Representative, District 21 KENDALL COUNTYWIDE       OVER VOTES                            PRECINCT 3042                                          01 
01400030023000000DEM       US Representative, District 21 KENDALL COUNTYWIDE       OVER VOTES                            PRECINCT 3044                                          01 
01400030024000000DEM       US Representative, District 21 KENDALL COUNTYWIDE       OVER VOTES                            PRECINCT 3060                                          01 
01400030025000000DEM       US Representative, District 21 KENDALL COUNTYWIDE       OVER VOTES                            PRECINCT 3220                                          01 
01400030026000000DEM       US Representative, District 21 KENDALL COUNTYWIDE       OVER VOTES                            PRECINCT 4050                                          01 
01400030027000000DEM       US Representative, District 21 KENDALL COUNTYWIDE       OVER VOTES                            PRECINCT 4070                                          01 
01400030028000000DEM       US Representative, District 21 KENDALL COUNTYWIDE       OVER VOTES                            PRECINCT 4100                                          01 
01400030029000000DEM       US Representative, District 21 KENDALL COUNTYWIDE       OVER VOTES                            PRECINCT 4101                                          01 
01400030030000000DEM       US Representative, District 21 KENDALL COUNTYWIDE       OVER VOTES                            PRECINCT 4103                                          01 
01400030031000000DEM       US Representative, District 21 KENDALL COUNTYWIDE       OVER VOTES                            PRECINCT 4230                                          01 
01400030032000000DEM       US Representative, District 21 KENDALL COUNTYWIDE       OVER VOTES                            PRECINCT 4240                                          01 
01400030033000000DEM       US Representative, District 21 KENDALL COUNTYWIDE       OVER VOTES                            PRECINCT 4250                                          01 
01400040001000000DEM       US Representative, District 21 KENDALL COUNTYWIDE       UNDER VOTES                           PRECINCT 1011                                          01 
01400040002000003DEM       US Representative, District 21 KENDALL COUNTYWIDE       UNDER VOTES                           PRECINCT 1013                                          01 
01400040003000002DEM       US Representative, District 21 KENDALL COUNTYWIDE       UNDER VOTES                           PRECINCT 1014                                          01 
01400040004000009DEM       US Representative, District 21 KENDALL COUNTYWIDE       UNDER VOTES                           PRECINCT 1110                                          01 
01400040005000002DEM       US Representative, District 21 KENDALL COUNTYWIDE       UNDER VOTES                           PRECINCT 1115                                          01 
01400040006000000DEM       US Representative, District 21 KENDALL COUNTYWIDE       UNDER VOTES                           PRECINCT 1130                                          01 
01400040007000000DEM       US Representative, District 21 KENDALL COUNTYWIDE       UNDER VOTES                           PRECINCT 1140                                          01 
01400040008000000DEM       US Representative, District 21 KENDALL COUNTYWIDE       UNDER VOTES                           PRECINCT 1170                                          01 
01400040009000000DEM       US Representative, District 21 KENDALL COUNTYWIDE       UNDER VOTES                           PRECINCT 1180                                          01 
01400040010000000DEM       US Representative, District 21 KENDALL COUNTYWIDE       UNDER VOTES                           PRECINCT 1190                                          01 
01400040011000000DEM       US Representative, District 21 KENDALL COUNTYWIDE       UNDER VOTES                           PRECINCT 1200                                          01 
01400040012000000DEM       US Representative, District 21 KENDALL COUNTYWIDE       UNDER VOTES                           PRECINCT 2020                                          01 
01400040013000003DEM       US Representative, District 21 KENDALL COUNTYWIDE       UNDER VOTES                           PRECINCT 2080                                          01 
01400040014000002DEM       US Representative, District 21 KENDALL COUNTYWIDE       UNDER VOTES                           PRECINCT 2082                                          01 
01400040015000000DEM       US Representative, District 21 KENDALL COUNTYWIDE       UNDER VOTES                           PRECINCT 2084                                          01 
01400040016000000DEM       US Representative, District 21 KENDALL COUNTYWIDE       UNDER VOTES                           PRECINCT 2085                                          01 
01400040017000003DEM       US Representative, District 21 KENDALL COUNTYWIDE       UNDER VOTES                           PRECINCT 2120                                          01 
01400040018000000DEM       US Representative, District 21 KENDALL COUNTYWIDE       UNDER VOTES                           PRECINCT 2210                                          01 
01400040019000003DEM       US Representative, District 21 KENDALL COUNTYWIDE       UNDER VOTES                           PRECINCT 3030                                          01 
01400040020000002DEM       US Representative, District 21 KENDALL COUNTYWIDE       UNDER VOTES                           PRECINCT 3040                                          01 
01400040021000000DEM       US Representative, District 21 KENDALL COUNTYWIDE       UNDER VOTES                           PRECINCT 3041                                          01 
01400040022000000DEM       US Representative, District 21 KENDALL COUNTYWIDE       UNDER VOTES                           PRECINCT 3042                                          01 
01400040023000001DEM       US Representative, District 21 KENDALL COUNTYWIDE       UNDER VOTES                           PRECINCT 3044                                          01 
01400040024000000DEM       US Representative, District 21 KENDALL COUNTYWIDE       UNDER VOTES                           PRECINCT 3060                                          01 
01400040025000000DEM       US Representative, District 21 KENDALL COUNTYWIDE       UNDER VOTES                           PRECINCT 3220                                          01 
01400040026000006DEM       US Representative, District 21 KENDALL COUNTYWIDE       UNDER VOTES                           PRECINCT 4050                                          01 
01400040027000002DEM       US Representative, District 21 KENDALL COUNTYWIDE       UNDER VOTES                           PRECINCT 4070                                          01 
01400040028000001DEM       US Representative, District 21 KENDALL COUNTYWIDE       UNDER VOTES                           PRECINCT 4100                                          01 
01400040029000000DEM       US Representative, District 21 KENDALL COUNTYWIDE       UNDER VOTES                           PRECINCT 4101                                          01 
01400040030000001DEM       US Representative, District 21 KENDALL COUNTYWIDE       UNDER VOTES                           PRECINCT 4103                                          01 
01400040031000000DEM       US Representative, District 21 KENDALL COUNTYWIDE       UNDER VOTES                           PRECINCT 4230                                          01 
01400040032000000DEM       US Representative, District 21 KENDALL COUNTYWIDE       UNDER VOTES                           PRECINCT 4240                                          01 
01400040033000000DEM       US Representative, District 21 KENDALL COUNTYWIDE       UNDER VOTES                           PRECINCT 4250                                          01 
01410010001000001DEM       Railroad Commissioner KENDALL COUNTYWIDE                Dale Henry                            PRECINCT 1011                                          01 
01410010002000010DEM       Railroad Commissioner KENDALL COUNTYWIDE                Dale Henry                            PRECINCT 1013                                          01 
01410010003000010DEM       Railroad Commissioner KENDALL COUNTYWIDE                Dale Henry                            PRECINCT 1014                                          01 
01410010004000028DEM       Railroad Commissioner KENDALL COUNTYWIDE                Dale Henry                            PRECINCT 1110                                          01 
01410010005000011DEM       Railroad Commissioner KENDALL COUNTYWIDE                Dale Henry                            PRECINCT 1115                                          01 
01410010006000000DEM       Railroad Commissioner KENDALL COUNTYWIDE                Dale Henry                            PRECINCT 1130                                          01 
01410010007000000DEM       Railroad Commissioner KENDALL COUNTYWIDE                Dale Henry                            PRECINCT 1140                                          01 
01410010008000000DEM       Railroad Commissioner KENDALL COUNTYWIDE                Dale Henry                            PRECINCT 1170                                          01 
01410010009000000DEM       Railroad Commissioner KENDALL COUNTYWIDE                Dale Henry                            PRECINCT 1180                                          01 
01410010010000002DEM       Railroad Commissioner KENDALL COUNTYWIDE                Dale Henry                            PRECINCT 1190                                          01 
01410010011000000DEM       Railroad Commissioner KENDALL COUNTYWIDE                Dale Henry                            PRECINCT 1200                                          01 
01410010012000016DEM       Railroad Commissioner KENDALL COUNTYWIDE                Dale Henry                            PRECINCT 2020                                          01 
01410010013000018DEM       Railroad Commissioner KENDALL COUNTYWIDE                Dale Henry                            PRECINCT 2080                                          01 
01410010014000016DEM       Railroad Commissioner KENDALL COUNTYWIDE                Dale Henry                            PRECINCT 2082                                          01 
01410010015000003DEM       Railroad Commissioner KENDALL COUNTYWIDE                Dale Henry                            PRECINCT 2084                                          01 
01410010016000002DEM       Railroad Commissioner KENDALL COUNTYWIDE                Dale Henry                            PRECINCT 2085                                          01 
01410010017000012DEM       Railroad Commissioner KENDALL COUNTYWIDE                Dale Henry                            PRECINCT 2120                                          01 
01410010018000001DEM       Railroad Commissioner KENDALL COUNTYWIDE                Dale Henry                            PRECINCT 2210                                          01 
01410010019000016DEM       Railroad Commissioner KENDALL COUNTYWIDE                Dale Henry                            PRECINCT 3030                                          01 
01410010020000014DEM       Railroad Commissioner KENDALL COUNTYWIDE                Dale Henry                            PRECINCT 3040                                          01 
01410010021000011DEM       Railroad Commissioner KENDALL COUNTYWIDE                Dale Henry                            PRECINCT 3041                                          01 
01410010022000003DEM       Railroad Commissioner KENDALL COUNTYWIDE                Dale Henry                            PRECINCT 3042                                          01 
01410010023000008DEM       Railroad Commissioner KENDALL COUNTYWIDE                Dale Henry                            PRECINCT 3044                                          01 
01410010024000001DEM       Railroad Commissioner KENDALL COUNTYWIDE                Dale Henry                            PRECINCT 3060                                          01 
