01180014064000044NONKIRBY  City of Kirby Council Member                            Charlene A. Wyatt                                                                            03 
01180014080000013NONKIRBY  City of Kirby Council Member                            Charlene A. Wyatt                                                                            03 
01180014145000000NONKIRBY  City of Kirby Council Member                            Charlene A. Wyatt                                                                            03 
01180014146000000NONKIRBY  City of Kirby Council Member                            Charlene A. Wyatt                                                                            03 
01180014182000000NONKIRBY  City of Kirby Council Member                            Charlene A. Wyatt                                                                            03 
01180024064000050NONKIRBY  City of Kirby Council Member                            Jerry Lehman                                                                                 03 
01180024080000011NONKIRBY  City of Kirby Council Member                            Jerry Lehman                                                                                 03 
01180024145000000NONKIRBY  City of Kirby Council Member                            Jerry Lehman                                                                                 03 
01180024146000000NONKIRBY  City of Kirby Council Member                            Jerry Lehman                                                                                 03 
01180024182000000NONKIRBY  City of Kirby Council Member                            Jerry Lehman                                                                                 03 
01180034064000046NONKIRBY  City of Kirby Council Member                            John Houlton                                                                                 03 
01180034080000012NONKIRBY  City of Kirby Council Member                            John Houlton                                                                                 03 
01180034145000000NONKIRBY  City of Kirby Council Member                            John Houlton                                                                                 03 
01180034146000000NONKIRBY  City of Kirby Council Member                            John Houlton                                                                                 03 
01180034182000000NONKIRBY  City of Kirby Council Member                            John Houlton                                                                                 03 
01180044064000059NONKIRBY  City of Kirby Council Member                            Ernest Spradling                                                                             03 
01180044080000010NONKIRBY  City of Kirby Council Member                            Ernest Spradling                                                                             03 
01180044145000000NONKIRBY  City of Kirby Council Member                            Ernest Spradling                                                                             03 
01180044146000000NONKIRBY  City of Kirby Council Member                            Ernest Spradling                                                                             03 
01180044182000000NONKIRBY  City of Kirby Council Member                            Ernest Spradling                                                                             03 
01180054064000000   KIRBY  City of Kirby Council Member                            OVER VOTES                                                                                   03 
01180054080000000   KIRBY  City of Kirby Council Member                            OVER VOTES                                                                                   03 
01180054145000000   KIRBY  City of Kirby Council Member                            OVER VOTES                                                                                   03 
01180054146000000   KIRBY  City of Kirby Council Member                            OVER VOTES                                                                                   03 
01180054182000000   KIRBY  City of Kirby Council Member                            OVER VOTES                                                                                   03 
01180064064000059   KIRBY  City of Kirby Council Member                            UNDER VOTES                                                                                  03 
01180064080000026   KIRBY  City of Kirby Council Member                            UNDER VOTES                                                                                  03 
01180064145000000   KIRBY  City of Kirby Council Member                            UNDER VOTES                                                                                  03 
01180064146000000   KIRBY  City of Kirby Council Member                            UNDER VOTES                                                                                  03 
01180064182000000   KIRBY  City of Kirby Council Member                            UNDER VOTES                                                                                  03 
