01010010001000902000000000000000000000000000000          REGISTERED VOTERS - TOTAL                               REGISTERED VOTERS - TOTAL             PRECINCT 1A3B                                          00 
01010010002001706000000000000000000000000000000          REGISTERED VOTERS - TOTAL                               REGISTERED VOTERS - TOTAL             PRECINCT 1A5A                                          00 
01010010003000175000000000000000000000000000000          REGISTERED VOTERS - TOTAL                               REGISTERED VOTERS - TOTAL             PRECINCT 1B                                            00 
01010010004000247000000000000000000000000000000          REGISTERED VOTERS - TOTAL                               REGISTERED VOTERS - TOTAL             PRECINCT 1C                                            00 
01010010005000599000000000000000000000000000000          REGISTERED VOTERS - TOTAL                               REGISTERED VOTERS - TOTAL             PRECINCT 1D                                            00 
01010010006000615000000000000000000000000000000          REGISTERED VOTERS - TOTAL                               REGISTERED VOTERS - TOTAL             PRECINCT 1E                                            00 
01010010007000920000000000000000000000000000000          REGISTERED VOTERS - TOTAL                               REGISTERED VOTERS - TOTAL             PRECINCT 1E7C                                          00 
01010010008000694000000000000000000000000000000          REGISTERED VOTERS - TOTAL                               REGISTERED VOTERS - TOTAL             PRECINCT 1F                                            00 
01010010009000496000000000000000000000000000000          REGISTERED VOTERS - TOTAL                               REGISTERED VOTERS - TOTAL             PRECINCT 1G                                            00 
01010010010000426000000000000000000000000000000          REGISTERED VOTERS - TOTAL                               REGISTERED VOTERS - TOTAL             PRECINCT 1H                                            00 
01010010011000119000000000000000000000000000000          REGISTERED VOTERS - TOTAL                               REGISTERED VOTERS - TOTAL             PRECINCT 1I                                            00 
01010010012001318000000000000000000000000000000          REGISTERED VOTERS - TOTAL                               REGISTERED VOTERS - TOTAL             PRECINCT 2A1A                                          00 
01010010013001612000000000000000000000000000000          REGISTERED VOTERS - TOTAL                               REGISTERED VOTERS - TOTAL             PRECINCT 2B2A                                          00 
01010010014001517000000000000000000000000000000          REGISTERED VOTERS - TOTAL                               REGISTERED VOTERS - TOTAL             PRECINCT 2C3A                                          00 
01010010015000666000000000000000000000000000000          REGISTERED VOTERS - TOTAL                               REGISTERED VOTERS - TOTAL             PRECINCT 2D                                            00 
01010010016000514000000000000000000000000000000          REGISTERED VOTERS - TOTAL                               REGISTERED VOTERS - TOTAL             PRECINCT 2E                                            00 
01010010017000166000000000000000000000000000000          REGISTERED VOTERS - TOTAL                               REGISTERED VOTERS - TOTAL             PRECINCT 2F                                            00 
01010010018000271000000000000000000000000000000          REGISTERED VOTERS - TOTAL                               REGISTERED VOTERS - TOTAL             PRECINCT 2G                                            00 
01010010019000271000000000000000000000000000000          REGISTERED VOTERS - TOTAL                               REGISTERED VOTERS - TOTAL             PRECINCT 2H                                            00 
01010010020002737000000000000000000000000000000          REGISTERED VOTERS - TOTAL                               REGISTERED VOTERS - TOTAL             PRECINCT 3C7G                                          00 
01010010021000675000000000000000000000000000000          REGISTERED VOTERS - TOTAL                               REGISTERED VOTERS - TOTAL             PRECINCT 3D                                            00 
01010010022000931000000000000000000000000000000          REGISTERED VOTERS - TOTAL                               REGISTERED VOTERS - TOTAL             PRECINCT 3E                                            00 
01010010023000470000000000000000000000000000000          REGISTERED VOTERS - TOTAL                               REGISTERED VOTERS - TOTAL             PRECINCT 3F                                            00 
01010010024000506000000000000000000000000000000          REGISTERED VOTERS - TOTAL                               REGISTERED VOTERS - TOTAL             PRECINCT 3G                                            00 
01010010025000672000000000000000000000000000000          REGISTERED VOTERS - TOTAL                               REGISTERED VOTERS - TOTAL             PRECINCT 3H3C                                          00 
01010010026001020000000000000000000000000000000          REGISTERED VOTERS - TOTAL                               REGISTERED VOTERS - TOTAL             PRECINCT 3I                                            00 
01010010027001290000000000000000000000000000000          REGISTERED VOTERS - TOTAL                               REGISTERED VOTERS - TOTAL             PRECINCT 4A6E                                          00 
01010010028001559000000000000000000000000000000          REGISTERED VOTERS - TOTAL                               REGISTERED VOTERS - TOTAL             PRECINCT 4B                                            00 
01010010029000306000000000000000000000000000000          REGISTERED VOTERS - TOTAL                               REGISTERED VOTERS - TOTAL             PRECINCT 4C                                            00 
01010010030001207000000000000000000000000000000          REGISTERED VOTERS - TOTAL                               REGISTERED VOTERS - TOTAL             PRECINCT 4D                                            00 
01010010031000578000000000000000000000000000000          REGISTERED VOTERS - TOTAL                               REGISTERED VOTERS - TOTAL             PRECINCT 4E                                            00 
01010010032001430000000000000000000000000000000          REGISTERED VOTERS - TOTAL                               REGISTERED VOTERS - TOTAL             PRECINCT 4F                                            00 
01010010033001591000000000000000000000000000000          REGISTERED VOTERS - TOTAL                               REGISTERED VOTERS - TOTAL             PRECINCT 4G                                            00 
01020010001000000000000000000000000000000000000REP       REGISTERED VOTERS - REPUBLICAN PARTY                    REGISTERED VOTERS - REPUBLICAN PARTY  PRECINCT 1A3B                                          00 
01020010002000000000000000000000000000000000000REP       REGISTERED VOTERS - REPUBLICAN PARTY                    REGISTERED VOTERS - REPUBLICAN PARTY  PRECINCT 1A5A                                          00 
01020010003000000000000000000000000000000000000REP       REGISTERED VOTERS - REPUBLICAN PARTY                    REGISTERED VOTERS - REPUBLICAN PARTY  PRECINCT 1B                                            00 
01020010004000000000000000000000000000000000000REP       REGISTERED VOTERS - REPUBLICAN PARTY                    REGISTERED VOTERS - REPUBLICAN PARTY  PRECINCT 1C                                            00 
01020010005000000000000000000000000000000000000REP       REGISTERED VOTERS - REPUBLICAN PARTY                    REGISTERED VOTERS - REPUBLICAN PARTY  PRECINCT 1D                                            00 
01020010006000000000000000000000000000000000000REP       REGISTERED VOTERS - REPUBLICAN PARTY                    REGISTERED VOTERS - REPUBLICAN PARTY  PRECINCT 1E                                            00 
01020010007000000000000000000000000000000000000REP       REGISTERED VOTERS - REPUBLICAN PARTY                    REGISTERED VOTERS - REPUBLICAN PARTY  PRECINCT 1E7C                                          00 
01020010008000000000000000000000000000000000000REP       REGISTERED VOTERS - REPUBLICAN PARTY                    REGISTERED VOTERS - REPUBLICAN PARTY  PRECINCT 1F                                            00 
01020010009000000000000000000000000000000000000REP       REGISTERED VOTERS - REPUBLICAN PARTY                    REGISTERED VOTERS - REPUBLICAN PARTY  PRECINCT 1G                                            00 
01020010010000000000000000000000000000000000000REP       REGISTERED VOTERS - REPUBLICAN PARTY                    REGISTERED VOTERS - REPUBLICAN PARTY  PRECINCT 1H                                            00 
01020010011000000000000000000000000000000000000REP       REGISTERED VOTERS - REPUBLICAN PARTY                    REGISTERED VOTERS - REPUBLICAN PARTY  PRECINCT 1I                                            00 
01020010012000000000000000000000000000000000000REP       REGISTERED VOTERS - REPUBLICAN PARTY                    REGISTERED VOTERS - REPUBLICAN PARTY  PRECINCT 2A1A                                          00 
01020010013000000000000000000000000000000000000REP       REGISTERED VOTERS - REPUBLICAN PARTY                    REGISTERED VOTERS - REPUBLICAN PARTY  PRECINCT 2B2A                                          00 
01020010014000000000000000000000000000000000000REP       REGISTERED VOTERS - REPUBLICAN PARTY                    REGISTERED VOTERS - REPUBLICAN PARTY  PRECINCT 2C3A                                          00 
01020010015000000000000000000000000000000000000REP       REGISTERED VOTERS - REPUBLICAN PARTY                    REGISTERED VOTERS - REPUBLICAN PARTY  PRECINCT 2D                                            00 
01020010016000000000000000000000000000000000000REP       REGISTERED VOTERS - REPUBLICAN PARTY                    REGISTERED VOTERS - REPUBLICAN PARTY  PRECINCT 2E                                            00 
01020010017000000000000000000000000000000000000REP       REGISTERED VOTERS - REPUBLICAN PARTY                    REGISTERED VOTERS - REPUBLICAN PARTY  PRECINCT 2F                                            00 
01020010018000000000000000000000000000000000000REP       REGISTERED VOTERS - REPUBLICAN PARTY                    REGISTERED VOTERS - REPUBLICAN PARTY  PRECINCT 2G                                            00 
01020010019000000000000000000000000000000000000REP       REGISTERED VOTERS - REPUBLICAN PARTY                    REGISTERED VOTERS - REPUBLICAN PARTY  PRECINCT 2H                                            00 
01020010020000000000000000000000000000000000000REP       REGISTERED VOTERS - REPUBLICAN PARTY                    REGISTERED VOTERS - REPUBLICAN PARTY  PRECINCT 3C7G                                          00 
01020010021000000000000000000000000000000000000REP       REGISTERED VOTERS - REPUBLICAN PARTY                    REGISTERED VOTERS - REPUBLICAN PARTY  PRECINCT 3D                                            00 
01020010022000000000000000000000000000000000000REP       REGISTERED VOTERS - REPUBLICAN PARTY                    REGISTERED VOTERS - REPUBLICAN PARTY  PRECINCT 3E                                            00 
01020010023000000000000000000000000000000000000REP       REGISTERED VOTERS - REPUBLICAN PARTY                    REGISTERED VOTERS - REPUBLICAN PARTY  PRECINCT 3F                                            00 
01020010024000000000000000000000000000000000000REP       REGISTERED VOTERS - REPUBLICAN PARTY                    REGISTERED VOTERS - REPUBLICAN PARTY  PRECINCT 3G                                            00 
01020010025000000000000000000000000000000000000REP       REGISTERED VOTERS - REPUBLICAN PARTY                    REGISTERED VOTERS - REPUBLICAN PARTY  PRECINCT 3H3C                                          00 
01020010026000000000000000000000000000000000000REP       REGISTERED VOTERS - REPUBLICAN PARTY                    REGISTERED VOTERS - REPUBLICAN PARTY  PRECINCT 3I                                            00 
01020010027000000000000000000000000000000000000REP       REGISTERED VOTERS - REPUBLICAN PARTY                    REGISTERED VOTERS - REPUBLICAN PARTY  PRECINCT 4A6E                                          00 
01020010028000000000000000000000000000000000000REP       REGISTERED VOTERS - REPUBLICAN PARTY                    REGISTERED VOTERS - REPUBLICAN PARTY  PRECINCT 4B                                            00 
01020010029000000000000000000000000000000000000REP       REGISTERED VOTERS - REPUBLICAN PARTY                    REGISTERED VOTERS - REPUBLICAN PARTY  PRECINCT 4C                                            00 
01020010030000000000000000000000000000000000000REP       REGISTERED VOTERS - REPUBLICAN PARTY                    REGISTERED VOTERS - REPUBLICAN PARTY  PRECINCT 4D                                            00 
01020010031000000000000000000000000000000000000REP       REGISTERED VOTERS - REPUBLICAN PARTY                    REGISTERED VOTERS - REPUBLICAN PARTY  PRECINCT 4E                                            00 
01020010032000000000000000000000000000000000000REP       REGISTERED VOTERS - REPUBLICAN PARTY                    REGISTERED VOTERS - REPUBLICAN PARTY  PRECINCT 4F                                            00 
01020010033000000000000000000000000000000000000REP       REGISTERED VOTERS - REPUBLICAN PARTY                    REGISTERED VOTERS - REPUBLICAN PARTY  PRECINCT 4G                                            00 
01030010001000000000000000000000000000000000000DEM       REGISTERED VOTERS - DEMOCRATIC PARTY                    REGISTERED VOTERS - DEMOCRATIC PARTY  PRECINCT 1A3B                                          00 
01030010002000000000000000000000000000000000000DEM       REGISTERED VOTERS - DEMOCRATIC PARTY                    REGISTERED VOTERS - DEMOCRATIC PARTY  PRECINCT 1A5A                                          00 
01030010003000000000000000000000000000000000000DEM       REGISTERED VOTERS - DEMOCRATIC PARTY                    REGISTERED VOTERS - DEMOCRATIC PARTY  PRECINCT 1B                                            00 
01030010004000000000000000000000000000000000000DEM       REGISTERED VOTERS - DEMOCRATIC PARTY                    REGISTERED VOTERS - DEMOCRATIC PARTY  PRECINCT 1C                                            00 
01030010005000000000000000000000000000000000000DEM       REGISTERED VOTERS - DEMOCRATIC PARTY                    REGISTERED VOTERS - DEMOCRATIC PARTY  PRECINCT 1D                                            00 
01030010006000000000000000000000000000000000000DEM       REGISTERED VOTERS - DEMOCRATIC PARTY                    REGISTERED VOTERS - DEMOCRATIC PARTY  PRECINCT 1E                                            00 
01030010007000000000000000000000000000000000000DEM       REGISTERED VOTERS - DEMOCRATIC PARTY                    REGISTERED VOTERS - DEMOCRATIC PARTY  PRECINCT 1E7C                                          00 
01030010008000000000000000000000000000000000000DEM       REGISTERED VOTERS - DEMOCRATIC PARTY                    REGISTERED VOTERS - DEMOCRATIC PARTY  PRECINCT 1F                                            00 
01030010009000000000000000000000000000000000000DEM       REGISTERED VOTERS - DEMOCRATIC PARTY                    REGISTERED VOTERS - DEMOCRATIC PARTY  PRECINCT 1G                                            00 
01030010010000000000000000000000000000000000000DEM       REGISTERED VOTERS - DEMOCRATIC PARTY                    REGISTERED VOTERS - DEMOCRATIC PARTY  PRECINCT 1H                                            00 
01030010011000000000000000000000000000000000000DEM       REGISTERED VOTERS - DEMOCRATIC PARTY                    REGISTERED VOTERS - DEMOCRATIC PARTY  PRECINCT 1I                                            00 
01030010012000000000000000000000000000000000000DEM       REGISTERED VOTERS - DEMOCRATIC PARTY                    REGISTERED VOTERS - DEMOCRATIC PARTY  PRECINCT 2A1A                                          00 
01030010013000000000000000000000000000000000000DEM       REGISTERED VOTERS - DEMOCRATIC PARTY                    REGISTERED VOTERS - DEMOCRATIC PARTY  PRECINCT 2B2A                                          00 
01030010014000000000000000000000000000000000000DEM       REGISTERED VOTERS - DEMOCRATIC PARTY                    REGISTERED VOTERS - DEMOCRATIC PARTY  PRECINCT 2C3A                                          00 
01030010015000000000000000000000000000000000000DEM       REGISTERED VOTERS - DEMOCRATIC PARTY                    REGISTERED VOTERS - DEMOCRATIC PARTY  PRECINCT 2D                                            00 
01030010016000000000000000000000000000000000000DEM       REGISTERED VOTERS - DEMOCRATIC PARTY                    REGISTERED VOTERS - DEMOCRATIC PARTY  PRECINCT 2E                                            00 
01030010017000000000000000000000000000000000000DEM       REGISTERED VOTERS - DEMOCRATIC PARTY                    REGISTERED VOTERS - DEMOCRATIC PARTY  PRECINCT 2F                                            00 
01030010018000000000000000000000000000000000000DEM       REGISTERED VOTERS - DEMOCRATIC PARTY                    REGISTERED VOTERS - DEMOCRATIC PARTY  PRECINCT 2G                                            00 
01030010019000000000000000000000000000000000000DEM       REGISTERED VOTERS - DEMOCRATIC PARTY                    REGISTERED VOTERS - DEMOCRATIC PARTY  PRECINCT 2H                                            00 
01030010020000000000000000000000000000000000000DEM       REGISTERED VOTERS - DEMOCRATIC PARTY                    REGISTERED VOTERS - DEMOCRATIC PARTY  PRECINCT 3C7G                                          00 
01030010021000000000000000000000000000000000000DEM       REGISTERED VOTERS - DEMOCRATIC PARTY                    REGISTERED VOTERS - DEMOCRATIC PARTY  PRECINCT 3D                                            00 
01030010022000000000000000000000000000000000000DEM       REGISTERED VOTERS - DEMOCRATIC PARTY                    REGISTERED VOTERS - DEMOCRATIC PARTY  PRECINCT 3E                                            00 
01030010023000000000000000000000000000000000000DEM       REGISTERED VOTERS - DEMOCRATIC PARTY                    REGISTERED VOTERS - DEMOCRATIC PARTY  PRECINCT 3F                                            00 
01030010024000000000000000000000000000000000000DEM       REGISTERED VOTERS - DEMOCRATIC PARTY                    REGISTERED VOTERS - DEMOCRATIC PARTY  PRECINCT 3G                                            00 
01030010025000000000000000000000000000000000000DEM       REGISTERED VOTERS - DEMOCRATIC PARTY                    REGISTERED VOTERS - DEMOCRATIC PARTY  PRECINCT 3H3C                                          00 
01030010026000000000000000000000000000000000000DEM       REGISTERED VOTERS - DEMOCRATIC PARTY                    REGISTERED VOTERS - DEMOCRATIC PARTY  PRECINCT 3I                                            00 
01030010027000000000000000000000000000000000000DEM       REGISTERED VOTERS - DEMOCRATIC PARTY                    REGISTERED VOTERS - DEMOCRATIC PARTY  PRECINCT 4A6E                                          00 
01030010028000000000000000000000000000000000000DEM       REGISTERED VOTERS - DEMOCRATIC PARTY                    REGISTERED VOTERS - DEMOCRATIC PARTY  PRECINCT 4B                                            00 
01030010029000000000000000000000000000000000000DEM       REGISTERED VOTERS - DEMOCRATIC PARTY                    REGISTERED VOTERS - DEMOCRATIC PARTY  PRECINCT 4C                                            00 
01030010030000000000000000000000000000000000000DEM       REGISTERED VOTERS - DEMOCRATIC PARTY                    REGISTERED VOTERS - DEMOCRATIC PARTY  PRECINCT 4D                                            00 
01030010031000000000000000000000000000000000000DEM       REGISTERED VOTERS - DEMOCRATIC PARTY                    REGISTERED VOTERS - DEMOCRATIC PARTY  PRECINCT 4E                                            00 
01030010032000000000000000000000000000000000000DEM       REGISTERED VOTERS - DEMOCRATIC PARTY                    REGISTERED VOTERS - DEMOCRATIC PARTY  PRECINCT 4F                                            00 
01030010033000000000000000000000000000000000000DEM       REGISTERED VOTERS - DEMOCRATIC PARTY                    REGISTERED VOTERS - DEMOCRATIC PARTY  PRECINCT 4G                                            00 
01040010001000169000092000019000058000000000000          BALLOTS CAST - TOTAL                                    BALLOTS CAST - TOTAL                  PRECINCT 1A3B                                          00 
01040010002000249000163000009000077000000000000          BALLOTS CAST - TOTAL                                    BALLOTS CAST - TOTAL                  PRECINCT 1A5A                                          00 
01040010003000082000020000005000057000000000000          BALLOTS CAST - TOTAL                                    BALLOTS CAST - TOTAL                  PRECINCT 1B                                            00 
01040010004000115000054000006000055000000000000          BALLOTS CAST - TOTAL                                    BALLOTS CAST - TOTAL                  PRECINCT 1C                                            00 
01040010005000142000052000006000084000000000000          BALLOTS CAST - TOTAL                                    BALLOTS CAST - TOTAL                  PRECINCT 1D                                            00 
01040010006000193000036000000000157000000000000          BALLOTS CAST - TOTAL                                    BALLOTS CAST - TOTAL                  PRECINCT 1E                                            00 
01040010007000319000184000025000110000000000000          BALLOTS CAST - TOTAL                                    BALLOTS CAST - TOTAL                  PRECINCT 1E7C                                          00 
01040010008000275000073000010000192000000000000          BALLOTS CAST - TOTAL                                    BALLOTS CAST - TOTAL                  PRECINCT 1F                                            00 
01040010009000190000020000005000165000000000000          BALLOTS CAST - TOTAL                                    BALLOTS CAST - TOTAL                  PRECINCT 1G                                            00 
01040010010000156000041000003000112000000000000          BALLOTS CAST - TOTAL                                    BALLOTS CAST - TOTAL                  PRECINCT 1H                                            00 
01040010011000057000006000001000050000000000000          BALLOTS CAST - TOTAL                                    BALLOTS CAST - TOTAL                  PRECINCT 1I                                            00 
01040010012000155000053000015000087000000000000          BALLOTS CAST - TOTAL                                    BALLOTS CAST - TOTAL                  PRECINCT 2A1A                                          00 
01040010013000160000080000006000074000000000000          BALLOTS CAST - TOTAL                                    BALLOTS CAST - TOTAL                  PRECINCT 2B2A                                          00 
01040010014000288000113000024000151000000000000          BALLOTS CAST - TOTAL                                    BALLOTS CAST - TOTAL                  PRECINCT 2C3A                                          00 
01040010015000161000022000007000132000000000000          BALLOTS CAST - TOTAL                                    BALLOTS CAST - TOTAL                  PRECINCT 2D                                            00 
01040010016000174000058000003000113000000000000          BALLOTS CAST - TOTAL                                    BALLOTS CAST - TOTAL                  PRECINCT 2E                                            00 
01040010017000046000011000001000034000000000000          BALLOTS CAST - TOTAL                                    BALLOTS CAST - TOTAL                  PRECINCT 2F                                            00 
01040010018000069000029000002000038000000000000          BALLOTS CAST - TOTAL                                    BALLOTS CAST - TOTAL                  PRECINCT 2G                                            00 
01040010019000068000032000004000032000000000000          BALLOTS CAST - TOTAL                                    BALLOTS CAST - TOTAL                  PRECINCT 2H                                            00 
01040010020000840000474000071000295000000000000          BALLOTS CAST - TOTAL                                    BALLOTS CAST - TOTAL                  PRECINCT 3C7G                                          00 
01040010021000235000056000012000167000000000000          BALLOTS CAST - TOTAL                                    BALLOTS CAST - TOTAL                  PRECINCT 3D                                            00 
01040010022000402000118000014000270000000000000          BALLOTS CAST - TOTAL                                    BALLOTS CAST - TOTAL                  PRECINCT 3E                                            00 
01040010023000206000065000002000139000000000000          BALLOTS CAST - TOTAL                                    BALLOTS CAST - TOTAL                  PRECINCT 3F                                            00 
01040010024000229000067000005000157000000000000          BALLOTS CAST - TOTAL                                    BALLOTS CAST - TOTAL                  PRECINCT 3G                                            00 
01040010025000148000075000011000062000000000000          BALLOTS CAST - TOTAL                                    BALLOTS CAST - TOTAL                  PRECINCT 3H3C                                          00 
01040010026000341000186000019000136000000000000          BALLOTS CAST - TOTAL                                    BALLOTS CAST - TOTAL                  PRECINCT 3I                                            00 
01040010027000441000200000039000202000000000000          BALLOTS CAST - TOTAL                                    BALLOTS CAST - TOTAL                  PRECINCT 4A6E                                          00 
01040010028000484000127000018000339000000000000          BALLOTS CAST - TOTAL                                    BALLOTS CAST - TOTAL                  PRECINCT 4B                                            00 
01040010029000086000013000000000073000000000000          BALLOTS CAST - TOTAL                                    BALLOTS CAST - TOTAL                  PRECINCT 4C                                            00 
01040010030000306000064000008000234000000000000          BALLOTS CAST - TOTAL                                    BALLOTS CAST - TOTAL                  PRECINCT 4D                                            00 
01040010031000157000038000000000119000000000000          BALLOTS CAST - TOTAL                                    BALLOTS CAST - TOTAL                  PRECINCT 4E                                            00 
01040010032000399000179000009000211000000000000          BALLOTS CAST - TOTAL                                    BALLOTS CAST - TOTAL                  PRECINCT 4F                                            00 
01040010033000520000251000030000239000000000000          BALLOTS CAST - TOTAL                                    BALLOTS CAST - TOTAL                  PRECINCT 4G                                            00 
01050010001000142000083000014000045000000000000REP       BALLOTS CAST - REPUBLICAN PARTY                         BALLOTS CAST - REPUBLICAN PARTY       PRECINCT 1A3B                                          00 
01050010002000225000147000009000069000000000000REP       BALLOTS CAST - REPUBLICAN PARTY                         BALLOTS CAST - REPUBLICAN PARTY       PRECINCT 1A5A                                          00 
01050010003000075000018000005000052000000000000REP       BALLOTS CAST - REPUBLICAN PARTY                         BALLOTS CAST - REPUBLICAN PARTY       PRECINCT 1B                                            00 
01050010004000114000054000005000055000000000000REP       BALLOTS CAST - REPUBLICAN PARTY                         BALLOTS CAST - REPUBLICAN PARTY       PRECINCT 1C                                            00 
01050010005000133000050000004000079000000000000REP       BALLOTS CAST - REPUBLICAN PARTY                         BALLOTS CAST - REPUBLICAN PARTY       PRECINCT 1D                                            00 
01050010006000187000034000000000153000000000000REP       BALLOTS CAST - REPUBLICAN PARTY                         BALLOTS CAST - REPUBLICAN PARTY       PRECINCT 1E                                            00 
01050010007000295000173000021000101000000000000REP       BALLOTS CAST - REPUBLICAN PARTY                         BALLOTS CAST - REPUBLICAN PARTY       PRECINCT 1E7C                                          00 
01050010008000270000073000008000189000000000000REP       BALLOTS CAST - REPUBLICAN PARTY                         BALLOTS CAST - REPUBLICAN PARTY       PRECINCT 1F                                            00 
01050010009000182000020000005000157000000000000REP       BALLOTS CAST - REPUBLICAN PARTY                         BALLOTS CAST - REPUBLICAN PARTY       PRECINCT 1G                                            00 
01050010010000149000040000003000106000000000000REP       BALLOTS CAST - REPUBLICAN PARTY                         BALLOTS CAST - REPUBLICAN PARTY       PRECINCT 1H                                            00 
01050010011000054000006000001000047000000000000REP       BALLOTS CAST - REPUBLICAN PARTY                         BALLOTS CAST - REPUBLICAN PARTY       PRECINCT 1I                                            00 
01050010012000084000034000006000044000000000000REP       BALLOTS CAST - REPUBLICAN PARTY                         BALLOTS CAST - REPUBLICAN PARTY       PRECINCT 2A1A                                          00 
01050010013000094000044000004000046000000000000REP       BALLOTS CAST - REPUBLICAN PARTY                         BALLOTS CAST - REPUBLICAN PARTY       PRECINCT 2B2A                                          00 
01050010014000234000094000015000125000000000000REP       BALLOTS CAST - REPUBLICAN PARTY                         BALLOTS CAST - REPUBLICAN PARTY       PRECINCT 2C3A                                          00 
01050010015000129000019000005000105000000000000REP       BALLOTS CAST - REPUBLICAN PARTY                         BALLOTS CAST - REPUBLICAN PARTY       PRECINCT 2D                                            00 
01050010016000170000057000002000111000000000000REP       BALLOTS CAST - REPUBLICAN PARTY                         BALLOTS CAST - REPUBLICAN PARTY       PRECINCT 2E                                            00 
01050010017000045000011000001000033000000000000REP       BALLOTS CAST - REPUBLICAN PARTY                         BALLOTS CAST - REPUBLICAN PARTY       PRECINCT 2F                                            00 
01050010018000062000028000002000032000000000000REP       BALLOTS CAST - REPUBLICAN PARTY                         BALLOTS CAST - REPUBLICAN PARTY       PRECINCT 2G                                            00 
01050010019000057000028000003000026000000000000REP       BALLOTS CAST - REPUBLICAN PARTY                         BALLOTS CAST - REPUBLICAN PARTY       PRECINCT 2H                                            00 
01050010020000776000453000059000264000000000000REP       BALLOTS CAST - REPUBLICAN PARTY                         BALLOTS CAST - REPUBLICAN PARTY       PRECINCT 3C7G                                          00 
01050010021000232000054000012000166000000000000REP       BALLOTS CAST - REPUBLICAN PARTY                         BALLOTS CAST - REPUBLICAN PARTY       PRECINCT 3D                                            00 
01050010022000388000114000013000261000000000000REP       BALLOTS CAST - REPUBLICAN PARTY                         BALLOTS CAST - REPUBLICAN PARTY       PRECINCT 3E                                            00 
01050010023000196000061000002000133000000000000REP       BALLOTS CAST - REPUBLICAN PARTY                         BALLOTS CAST - REPUBLICAN PARTY       PRECINCT 3F                                            00 
01050010024000215000065000005000145000000000000REP       BALLOTS CAST - REPUBLICAN PARTY                         BALLOTS CAST - REPUBLICAN PARTY       PRECINCT 3G                                            00 
01050010025000135000072000008000055000000000000REP       BALLOTS CAST - REPUBLICAN PARTY                         BALLOTS CAST - REPUBLICAN PARTY       PRECINCT 3H3C                                          00 
01050010026000317000179000017000121000000000000REP       BALLOTS CAST - REPUBLICAN PARTY                         BALLOTS CAST - REPUBLICAN PARTY       PRECINCT 3I                                            00 
01050010027000405000192000036000177000000000000REP       BALLOTS CAST - REPUBLICAN PARTY                         BALLOTS CAST - REPUBLICAN PARTY       PRECINCT 4A6E                                          00 
01050010028000452000114000016000322000000000000REP       BALLOTS CAST - REPUBLICAN PARTY                         BALLOTS CAST - REPUBLICAN PARTY       PRECINCT 4B                                            00 
01050010029000073000011000000000062000000000000REP       BALLOTS CAST - REPUBLICAN PARTY                         BALLOTS CAST - REPUBLICAN PARTY       PRECINCT 4C                                            00 
01050010030000289000063000007000219000000000000REP       BALLOTS CAST - REPUBLICAN PARTY                         BALLOTS CAST - REPUBLICAN PARTY       PRECINCT 4D                                            00 
01050010031000153000037000000000116000000000000REP       BALLOTS CAST - REPUBLICAN PARTY                         BALLOTS CAST - REPUBLICAN PARTY       PRECINCT 4E                                            00 
01050010032000373000173000008000192000000000000REP       BALLOTS CAST - REPUBLICAN PARTY                         BALLOTS CAST - REPUBLICAN PARTY       PRECINCT 4F                                            00 
01050010033000504000243000026000235000000000000REP       BALLOTS CAST - REPUBLICAN PARTY                         BALLOTS CAST - REPUBLICAN PARTY       PRECINCT 4G                                            00 
01060010001000027000009000005000013000000000000DEM       BALLOTS CAST - DEMOCRATIC PARTY                         BALLOTS CAST - DEMOCRATIC PARTY       PRECINCT 1A3B                                          00 
01060010002000024000016000000000008000000000000DEM       BALLOTS CAST - DEMOCRATIC PARTY                         BALLOTS CAST - DEMOCRATIC PARTY       PRECINCT 1A5A                                          00 
01060010003000007000002000000000005000000000000DEM       BALLOTS CAST - DEMOCRATIC PARTY                         BALLOTS CAST - DEMOCRATIC PARTY       PRECINCT 1B                                            00 
01060010004000001000000000001000000000000000000DEM       BALLOTS CAST - DEMOCRATIC PARTY                         BALLOTS CAST - DEMOCRATIC PARTY       PRECINCT 1C                                            00 
01060010005000009000002000002000005000000000000DEM       BALLOTS CAST - DEMOCRATIC PARTY                         BALLOTS CAST - DEMOCRATIC PARTY       PRECINCT 1D                                            00 
01060010006000006000002000000000004000000000000DEM       BALLOTS CAST - DEMOCRATIC PARTY                         BALLOTS CAST - DEMOCRATIC PARTY       PRECINCT 1E                                            00 
01060010007000024000011000004000009000000000000DEM       BALLOTS CAST - DEMOCRATIC PARTY                         BALLOTS CAST - DEMOCRATIC PARTY       PRECINCT 1E7C                                          00 
01060010008000005000000000002000003000000000000DEM       BALLOTS CAST - DEMOCRATIC PARTY                         BALLOTS CAST - DEMOCRATIC PARTY       PRECINCT 1F                                            00 
01060010009000008000000000000000008000000000000DEM       BALLOTS CAST - DEMOCRATIC PARTY                         BALLOTS CAST - DEMOCRATIC PARTY       PRECINCT 1G                                            00 
01060010010000007000001000000000006000000000000DEM       BALLOTS CAST - DEMOCRATIC PARTY                         BALLOTS CAST - DEMOCRATIC PARTY       PRECINCT 1H                                            00 
01060010011000003000000000000000003000000000000DEM       BALLOTS CAST - DEMOCRATIC PARTY                         BALLOTS CAST - DEMOCRATIC PARTY       PRECINCT 1I                                            00 
01060010012000071000019000009000043000000000000DEM       BALLOTS CAST - DEMOCRATIC PARTY                         BALLOTS CAST - DEMOCRATIC PARTY       PRECINCT 2A1A                                          00 
01060010013000066000036000002000028000000000000DEM       BALLOTS CAST - DEMOCRATIC PARTY                         BALLOTS CAST - DEMOCRATIC PARTY       PRECINCT 2B2A                                          00 
01060010014000054000019000009000026000000000000DEM       BALLOTS CAST - DEMOCRATIC PARTY                         BALLOTS CAST - DEMOCRATIC PARTY       PRECINCT 2C3A                                          00 
01060010015000032000003000002000027000000000000DEM       BALLOTS CAST - DEMOCRATIC PARTY                         BALLOTS CAST - DEMOCRATIC PARTY       PRECINCT 2D                                            00 
01060010016000004000001000001000002000000000000DEM       BALLOTS CAST - DEMOCRATIC PARTY                         BALLOTS CAST - DEMOCRATIC PARTY       PRECINCT 2E                                            00 
01060010017000001000000000000000001000000000000DEM       BALLOTS CAST - DEMOCRATIC PARTY                         BALLOTS CAST - DEMOCRATIC PARTY       PRECINCT 2F                                            00 
01060010018000007000001000000000006000000000000DEM       BALLOTS CAST - DEMOCRATIC PARTY                         BALLOTS CAST - DEMOCRATIC PARTY       PRECINCT 2G                                            00 
01060010019000011000004000001000006000000000000DEM       BALLOTS CAST - DEMOCRATIC PARTY                         BALLOTS CAST - DEMOCRATIC PARTY       PRECINCT 2H                                            00 
01060010020000064000021000012000031000000000000DEM       BALLOTS CAST - DEMOCRATIC PARTY                         BALLOTS CAST - DEMOCRATIC PARTY       PRECINCT 3C7G                                          00 
01060010021000003000002000000000001000000000000DEM       BALLOTS CAST - DEMOCRATIC PARTY                         BALLOTS CAST - DEMOCRATIC PARTY       PRECINCT 3D                                            00 
01060010022000014000004000001000009000000000000DEM       BALLOTS CAST - DEMOCRATIC PARTY                         BALLOTS CAST - DEMOCRATIC PARTY       PRECINCT 3E                                            00 
01060010023000010000004000000000006000000000000DEM       BALLOTS CAST - DEMOCRATIC PARTY                         BALLOTS CAST - DEMOCRATIC PARTY       PRECINCT 3F                                            00 
01060010024000014000002000000000012000000000000DEM       BALLOTS CAST - DEMOCRATIC PARTY                         BALLOTS CAST - DEMOCRATIC PARTY       PRECINCT 3G                                            00 
01060010025000013000003000003000007000000000000DEM       BALLOTS CAST - DEMOCRATIC PARTY                         BALLOTS CAST - DEMOCRATIC PARTY       PRECINCT 3H3C                                          00 
01060010026000024000007000002000015000000000000DEM       BALLOTS CAST - DEMOCRATIC PARTY                         BALLOTS CAST - DEMOCRATIC PARTY       PRECINCT 3I                                            00 
01060010027000036000008000003000025000000000000DEM       BALLOTS CAST - DEMOCRATIC PARTY                         BALLOTS CAST - DEMOCRATIC PARTY       PRECINCT 4A6E                                          00 
01060010028000032000013000002000017000000000000DEM       BALLOTS CAST - DEMOCRATIC PARTY                         BALLOTS CAST - DEMOCRATIC PARTY       PRECINCT 4B                                            00 
01060010029000013000002000000000011000000000000DEM       BALLOTS CAST - DEMOCRATIC PARTY                         BALLOTS CAST - DEMOCRATIC PARTY       PRECINCT 4C                                            00 
01060010030000017000001000001000015000000000000DEM       BALLOTS CAST - DEMOCRATIC PARTY                         BALLOTS CAST - DEMOCRATIC PARTY       PRECINCT 4D                                            00 
01060010031000004000001000000000003000000000000DEM       BALLOTS CAST - DEMOCRATIC PARTY                         BALLOTS CAST - DEMOCRATIC PARTY       PRECINCT 4E                                            00 
01060010032000026000006000001000019000000000000DEM       BALLOTS CAST - DEMOCRATIC PARTY                         BALLOTS CAST - DEMOCRATIC PARTY       PRECINCT 4F                                            00 
01060010033000016000008000004000004000000000000DEM       BALLOTS CAST - DEMOCRATIC PARTY                         BALLOTS CAST - DEMOCRATIC PARTY       PRECINCT 4G                                            00 
01070010001000015000010000003000002000000000000REP       President                                               Rick Santorum                         PRECINCT 1A3B                                          01 
01070010002000015000011000000000004000000000000REP       President                                               Rick Santorum                         PRECINCT 1A5A                                          01 
01070010003000009000005000000000004000000000000REP       President                                               Rick Santorum                         PRECINCT 1B                                            01 
01070010004000008000003000002000003000000000000REP       President                                               Rick Santorum                         PRECINCT 1C                                            01 
01070010005000009000004000000000005000000000000REP       President                                               Rick Santorum                         PRECINCT 1D                                            01 
01070010006000014000001000000000013000000000000REP       President                                               Rick Santorum                         PRECINCT 1E                                            01 
01070010007000029000019000001000009000000000000REP       President                                               Rick Santorum                         PRECINCT 1E7C                                          01 
01070010008000012000006000002000004000000000000REP       President                                               Rick Santorum                         PRECINCT 1F                                            01 
01070010009000016000004000000000012000000000000REP       President                                               Rick Santorum                         PRECINCT 1G                                            01 
01070010010000014000004000000000010000000000000REP       President                                               Rick Santorum                         PRECINCT 1H                                            01 
01070010011000001000000000000000001000000000000REP       President                                               Rick Santorum                         PRECINCT 1I                                            01 
01070010012000011000002000000000009000000000000REP       President                                               Rick Santorum                         PRECINCT 2A1A                                          01 
01070010013000010000003000002000005000000000000REP       President                                               Rick Santorum                         PRECINCT 2B2A                                          01 
01070010014000025000013000001000011000000000000REP       President                                               Rick Santorum                         PRECINCT 2C3A                                          01 
01070010015000011000001000000000010000000000000REP       President                                               Rick Santorum                         PRECINCT 2D                                            01 
01070010016000023000009000000000014000000000000REP       President                                               Rick Santorum                         PRECINCT 2E                                            01 
01070010017000008000000000000000008000000000000REP       President                                               Rick Santorum                         PRECINCT 2F                                            01 
01070010018000001000000000000000001000000000000REP       President                                               Rick Santorum                         PRECINCT 2G                                            01 
01070010019000004000001000000000003000000000000REP       President                                               Rick Santorum                         PRECINCT 2H                                            01 
01070010020000053000032000004000017000000000000REP       President                                               Rick Santorum                         PRECINCT 3C7G                                          01 
01070010021000016000007000000000009000000000000REP       President                                               Rick Santorum                         PRECINCT 3D                                            01 
01070010022000040000014000001000025000000000000REP       President                                               Rick Santorum                         PRECINCT 3E                                            01 
01070010023000009000002000001000006000000000000REP       President                                               Rick Santorum                         PRECINCT 3F                                            01 
01070010024000021000007000000000014000000000000REP       President                                               Rick Santorum                         PRECINCT 3G                                            01 
01070010025000013000003000003000007000000000000REP       President                                               Rick Santorum                         PRECINCT 3H3C                                          01 
01070010026000035000021000001000013000000000000REP       President                                               Rick Santorum                         PRECINCT 3I                                            01 
01070010027000025000014000001000010000000000000REP       President                                               Rick Santorum                         PRECINCT 4A6E                                          01 
01070010028000040000011000000000029000000000000REP       President                                               Rick Santorum                         PRECINCT 4B                                            01 
01070010029000007000000000000000007000000000000REP       President                                               Rick Santorum                         PRECINCT 4C                                            01 
01070010030000024000006000000000018000000000000REP       President                                               Rick Santorum                         PRECINCT 4D                                            01 
01070010031000012000002000000000010000000000000REP       President                                               Rick Santorum                         PRECINCT 4E                                            01 
01070010032000023000010000000000013000000000000REP       President                                               Rick Santorum                         PRECINCT 4F                                            01 
01070010033000047000020000001000026000000000000REP       President                                               Rick Santorum                         PRECINCT 4G                                            01 
01070020001000012000008000001000003000000000000REP       President                                               Newt Gingrich                         PRECINCT 1A3B                                          01 
01070020002000010000007000001000002000000000000REP       President                                               Newt Gingrich                         PRECINCT 1A5A                                          01 
01070020003000002000000000000000002000000000000REP       President                                               Newt Gingrich                         PRECINCT 1B                                            01 
01070020004000006000001000000000005000000000000REP       President                                               Newt Gingrich                         PRECINCT 1C                                            01 
01070020005000002000001000000000001000000000000REP       President                                               Newt Gingrich                         PRECINCT 1D                                            01 
01070020006000009000001000000000008000000000000REP       President                                               Newt Gingrich                         PRECINCT 1E                                            01 
01070020007000016000006000000000010000000000000REP       President                                               Newt Gingrich                         PRECINCT 1E7C                                          01 
01070020008000013000005000000000008000000000000REP       President                                               Newt Gingrich                         PRECINCT 1F                                            01 
01070020009000009000002000000000007000000000000REP       President                                               Newt Gingrich                         PRECINCT 1G                                            01 
01070020010000009000002000000000007000000000000REP       President                                               Newt Gingrich                         PRECINCT 1H                                            01 
01070020011000004000001000000000003000000000000REP       President                                               Newt Gingrich                         PRECINCT 1I                                            01 
01070020012000002000001000001000000000000000000REP       President                                               Newt Gingrich                         PRECINCT 2A1A                                          01 
01070020013000006000003000000000003000000000000REP       President                                               Newt Gingrich                         PRECINCT 2B2A                                          01 
01070020014000011000003000000000008000000000000REP       President                                               Newt Gingrich                         PRECINCT 2C3A                                          01 
01070020015000005000001000000000004000000000000REP       President                                               Newt Gingrich                         PRECINCT 2D                                            01 
01070020016000016000003000000000013000000000000REP       President                                               Newt Gingrich                         PRECINCT 2E                                            01 
01070020017000004000000000001000003000000000000REP       President                                               Newt Gingrich                         PRECINCT 2F                                            01 
01070020018000003000003000000000000000000000000REP       President                                               Newt Gingrich                         PRECINCT 2G                                            01 
01070020019000001000000000000000001000000000000REP       President                                               Newt Gingrich                         PRECINCT 2H                                            01 
01070020020000044000027000003000014000000000000REP       President                                               Newt Gingrich                         PRECINCT 3C7G                                          01 
01070020021000008000002000000000006000000000000REP       President                                               Newt Gingrich                         PRECINCT 3D                                            01 
01070020022000022000005000002000015000000000000REP       President                                               Newt Gingrich                         PRECINCT 3E                                            01 
01070020023000014000003000001000010000000000000REP       President                                               Newt Gingrich                         PRECINCT 3F                                            01 
01070020024000006000001000000000005000000000000REP       President                                               Newt Gingrich                         PRECINCT 3G                                            01 
01070020025000004000003000000000001000000000000REP       President                                               Newt Gingrich                         PRECINCT 3H3C                                          01 
01070020026000015000010000001000004000000000000REP       President                                               Newt Gingrich                         PRECINCT 3I                                            01 
01070020027000017000007000002000008000000000000REP       President                                               Newt Gingrich                         PRECINCT 4A6E                                          01 
01070020028000022000006000001000015000000000000REP       President                                               Newt Gingrich                         PRECINCT 4B                                            01 
01070020029000001000000000000000001000000000000REP       President                                               Newt Gingrich                         PRECINCT 4C                                            01 
01070020030000010000003000000000007000000000000REP       President                                               Newt Gingrich                         PRECINCT 4D                                            01 
01070020031000005000000000000000005000000000000REP       President                                               Newt Gingrich                         PRECINCT 4E                                            01 
01070020032000018000006000001000011000000000000REP       President                                               Newt Gingrich                         PRECINCT 4F                                            01 
01070020033000038000018000004000016000000000000REP       President                                               Newt Gingrich                         PRECINCT 4G                                            01 
01070030001000000000000000000000000000000000000REP       President                                               Charles "Buddy" Roemer                PRECINCT 1A3B                                          01 
01070030002000000000000000000000000000000000000REP       President                                               Charles "Buddy" Roemer                PRECINCT 1A5A                                          01 
01070030003000000000000000000000000000000000000REP       President                                               Charles "Buddy" Roemer                PRECINCT 1B                                            01 
01070030004000000000000000000000000000000000000REP       President                                               Charles "Buddy" Roemer                PRECINCT 1C                                            01 
01070030005000000000000000000000000000000000000REP       President                                               Charles "Buddy" Roemer                PRECINCT 1D                                            01 
01070030006000001000000000000000001000000000000REP       President                                               Charles "Buddy" Roemer                PRECINCT 1E                                            01 
01070030007000001000000000001000000000000000000REP       President                                               Charles "Buddy" Roemer                PRECINCT 1E7C                                          01 
01070030008000001000000000000000001000000000000REP       President                                               Charles "Buddy" Roemer                PRECINCT 1F                                            01 
01070030009000000000000000000000000000000000000REP       President                                               Charles "Buddy" Roemer                PRECINCT 1G                                            01 
01070030010000001000001000000000000000000000000REP       President                                               Charles "Buddy" Roemer                PRECINCT 1H                                            01 
01070030011000000000000000000000000000000000000REP       President                                               Charles "Buddy" Roemer                PRECINCT 1I                                            01 
01070030012000000000000000000000000000000000000REP       President                                               Charles "Buddy" Roemer                PRECINCT 2A1A                                          01 
01070030013000001000001000000000000000000000000REP       President                                               Charles "Buddy" Roemer                PRECINCT 2B2A                                          01 
01070030014000001000000000000000001000000000000REP       President                                               Charles "Buddy" Roemer                PRECINCT 2C3A                                          01 
01070030015000001000000000000000001000000000000REP       President                                               Charles "Buddy" Roemer                PRECINCT 2D                                            01 
01070030016000001000000000000000001000000000000REP       President                                               Charles "Buddy" Roemer                PRECINCT 2E                                            01 
01070030017000000000000000000000000000000000000REP       President                                               Charles "Buddy" Roemer                PRECINCT 2F                                            01 
01070030018000000000000000000000000000000000000REP       President                                               Charles "Buddy" Roemer                PRECINCT 2G                                            01 
01070030019000001000001000000000000000000000000REP       President                                               Charles "Buddy" Roemer                PRECINCT 2H                                            01 
01070030020000000000000000000000000000000000000REP       President                                               Charles "Buddy" Roemer                PRECINCT 3C7G                                          01 
01070030021000002000000000000000002000000000000REP       President                                               Charles "Buddy" Roemer                PRECINCT 3D                                            01 
01070030022000005000001000001000003000000000000REP       President                                               Charles "Buddy" Roemer                PRECINCT 3E                                            01 
01070030023000000000000000000000000000000000000REP       President                                               Charles "Buddy" Roemer                PRECINCT 3F                                            01 
01070030024000001000001000000000000000000000000REP       President                                               Charles "Buddy" Roemer                PRECINCT 3G                                            01 
01070030025000000000000000000000000000000000000REP       President                                               Charles "Buddy" Roemer                PRECINCT 3H3C                                          01 
01070030026000002000002000000000000000000000000REP       President                                               Charles "Buddy" Roemer                PRECINCT 3I                                            01 
01070030027000003000003000000000000000000000000REP       President                                               Charles "Buddy" Roemer                PRECINCT 4A6E                                          01 
01070030028000003000000000000000003000000000000REP       President                                               Charles "Buddy" Roemer                PRECINCT 4B                                            01 
01070030029000000000000000000000000000000000000REP       President                                               Charles "Buddy" Roemer                PRECINCT 4C                                            01 
01070030030000001000000000000000001000000000000REP       President                                               Charles "Buddy" Roemer                PRECINCT 4D                                            01 
01070030031000000000000000000000000000000000000REP       President                                               Charles "Buddy" Roemer                PRECINCT 4E                                            01 
01070030032000002000000000000000002000000000000REP       President                                               Charles "Buddy" Roemer                PRECINCT 4F                                            01 
01070030033000002000002000000000000000000000000REP       President                                               Charles "Buddy" Roemer                PRECINCT 4G                                            01 
01070040001000010000005000001000004000000000000REP       President                                               Ron Paul                              PRECINCT 1A3B                                          01 
01070040002000018000013000000000005000000000000REP       President                                               Ron Paul                              PRECINCT 1A5A                                          01 
01070040003000010000000000000000010000000000000REP       President                                               Ron Paul                              PRECINCT 1B                                            01 
01070040004000011000007000000000004000000000000REP       President                                               Ron Paul                              PRECINCT 1C                                            01 
01070040005000016000007000000000009000000000000REP       President                                               Ron Paul                              PRECINCT 1D                                            01 
01070040006000026000004000000000022000000000000REP       President                                               Ron Paul                              PRECINCT 1E                                            01 
01070040007000013000005000000000008000000000000REP       President                                               Ron Paul                              PRECINCT 1E7C                                          01 
01070040008000022000003000000000019000000000000REP       President                                               Ron Paul                              PRECINCT 1F                                            01 
01070040009000017000001000000000016000000000000REP       President                                               Ron Paul                              PRECINCT 1G                                            01 
01070040010000027000007000001000019000000000000REP       President                                               Ron Paul                              PRECINCT 1H                                            01 
01070040011000005000000000001000004000000000000REP       President                                               Ron Paul                              PRECINCT 1I                                            01 
01070040012000002000001000000000001000000000000REP       President                                               Ron Paul                              PRECINCT 2A1A                                          01 
01070040013000010000002000000000008000000000000REP       President                                               Ron Paul                              PRECINCT 2B2A                                          01 
01070040014000014000007000000000007000000000000REP       President                                               Ron Paul                              PRECINCT 2C3A                                          01 
01070040015000014000003000001000010000000000000REP       President                                               Ron Paul                              PRECINCT 2D                                            01 
01070040016000021000005000000000016000000000000REP       President                                               Ron Paul                              PRECINCT 2E                                            01 
01070040017000002000001000000000001000000000000REP       President                                               Ron Paul                              PRECINCT 2F                                            01 
01070040018000005000002000000000003000000000000REP       President                                               Ron Paul                              PRECINCT 2G                                            01 
01070040019000009000005000000000004000000000000REP       President                                               Ron Paul                              PRECINCT 2H                                            01 
01070040020000076000039000004000033000000000000REP       President                                               Ron Paul                              PRECINCT 3C7G                                          01 
01070040021000015000002000000000013000000000000REP       President                                               Ron Paul                              PRECINCT 3D                                            01 
01070040022000040000017000000000023000000000000REP       President                                               Ron Paul                              PRECINCT 3E                                            01 
01070040023000025000009000000000016000000000000REP       President                                               Ron Paul                              PRECINCT 3F                                            01 
01070040024000019000006000000000013000000000000REP       President                                               Ron Paul                              PRECINCT 3G                                            01 
01070040025000012000006000001000005000000000000REP       President                                               Ron Paul                              PRECINCT 3H3C                                          01 
01070040026000022000010000002000010000000000000REP       President                                               Ron Paul                              PRECINCT 3I                                            01 
01070040027000045000023000001000021000000000000REP       President                                               Ron Paul                              PRECINCT 4A6E                                          01 
01070040028000039000009000000000030000000000000REP       President                                               Ron Paul                              PRECINCT 4B                                            01 
01070040029000006000001000000000005000000000000REP       President                                               Ron Paul                              PRECINCT 4C                                            01 
01070040030000028000004000001000023000000000000REP       President                                               Ron Paul                              PRECINCT 4D                                            01 
01070040031000022000009000000000013000000000000REP       President                                               Ron Paul                              PRECINCT 4E                                            01 
01070040032000023000009000000000014000000000000REP       President                                               Ron Paul                              PRECINCT 4F                                            01 
01070040033000038000010000003000025000000000000REP       President                                               Ron Paul                              PRECINCT 4G                                            01 
01070050001000000000000000000000000000000000000REP       President                                               Jon Huntsman                          PRECINCT 1A3B                                          01 
01070050002000001000001000000000000000000000000REP       President                                               Jon Huntsman                          PRECINCT 1A5A                                          01 
01070050003000000000000000000000000000000000000REP       President                                               Jon Huntsman                          PRECINCT 1B                                            01 
01070050004000000000000000000000000000000000000REP       President                                               Jon Huntsman                          PRECINCT 1C                                            01 
01070050005000000000000000000000000000000000000REP       President                                               Jon Huntsman                          PRECINCT 1D                                            01 
01070050006000001000001000000000000000000000000REP       President                                               Jon Huntsman                          PRECINCT 1E                                            01 
01070050007000000000000000000000000000000000000REP       President                                               Jon Huntsman                          PRECINCT 1E7C                                          01 
01070050008000002000000000000000002000000000000REP       President                                               Jon Huntsman                          PRECINCT 1F                                            01 
01070050009000001000000000000000001000000000000REP       President                                               Jon Huntsman                          PRECINCT 1G                                            01 
01070050010000000000000000000000000000000000000REP       President                                               Jon Huntsman                          PRECINCT 1H                                            01 
01070050011000000000000000000000000000000000000REP       President                                               Jon Huntsman                          PRECINCT 1I                                            01 
01070050012000000000000000000000000000000000000REP       President                                               Jon Huntsman                          PRECINCT 2A1A                                          01 
01070050013000000000000000000000000000000000000REP       President                                               Jon Huntsman                          PRECINCT 2B2A                                          01 
01070050014000002000002000000000000000000000000REP       President                                               Jon Huntsman                          PRECINCT 2C3A                                          01 
01070050015000000000000000000000000000000000000REP       President                                               Jon Huntsman                          PRECINCT 2D                                            01 
01070050016000002000000000000000002000000000000REP       President                                               Jon Huntsman                          PRECINCT 2E                                            01 
01070050017000000000000000000000000000000000000REP       President                                               Jon Huntsman                          PRECINCT 2F                                            01 
01070050018000000000000000000000000000000000000REP       President                                               Jon Huntsman                          PRECINCT 2G                                            01 
01070050019000000000000000000000000000000000000REP       President                                               Jon Huntsman                          PRECINCT 2H                                            01 
01070050020000006000004000000000002000000000000REP       President                                               Jon Huntsman                          PRECINCT 3C7G                                          01 
01070050021000002000000000000000002000000000000REP       President                                               Jon Huntsman                          PRECINCT 3D                                            01 
01070050022000001000000000000000001000000000000REP       President                                               Jon Huntsman                          PRECINCT 3E                                            01 
01070050023000003000001000000000002000000000000REP       President                                               Jon Huntsman                          PRECINCT 3F                                            01 
01070050024000000000000000000000000000000000000REP       President                                               Jon Huntsman                          PRECINCT 3G                                            01 
01070050025000000000000000000000000000000000000REP       President                                               Jon Huntsman                          PRECINCT 3H3C                                          01 
01070050026000000000000000000000000000000000000REP       President                                               Jon Huntsman                          PRECINCT 3I                                            01 
01070050027000001000000000000000001000000000000REP       President                                               Jon Huntsman                          PRECINCT 4A6E                                          01 
01070050028000000000000000000000000000000000000REP       President                                               Jon Huntsman                          PRECINCT 4B                                            01 
01070050029000001000000000000000001000000000000REP       President                                               Jon Huntsman                          PRECINCT 4C                                            01 
01070050030000000000000000000000000000000000000REP       President                                               Jon Huntsman                          PRECINCT 4D                                            01 
01070050031000000000000000000000000000000000000REP       President                                               Jon Huntsman                          PRECINCT 4E                                            01 
01070050032000000000000000000000000000000000000REP       President                                               Jon Huntsman                          PRECINCT 4F                                            01 
01070050033000002000001000000000001000000000000REP       President                                               Jon Huntsman                          PRECINCT 4G                                            01 
01070060001000000000000000000000000000000000000REP       President                                               Michele Bachmann                      PRECINCT 1A3B                                          01 
01070060002000002000001000000000001000000000000REP       President                                               Michele Bachmann                      PRECINCT 1A5A                                          01 
01070060003000000000000000000000000000000000000REP       President                                               Michele Bachmann                      PRECINCT 1B                                            01 
01070060004000000000000000000000000000000000000REP       President                                               Michele Bachmann                      PRECINCT 1C                                            01 
01070060005000000000000000000000000000000000000REP       President                                               Michele Bachmann                      PRECINCT 1D                                            01 
01070060006000001000000000000000001000000000000REP       President                                               Michele Bachmann                      PRECINCT 1E                                            01 
01070060007000001000000000000000001000000000000REP       President                                               Michele Bachmann                      PRECINCT 1E7C                                          01 
01070060008000001000000000000000001000000000000REP       President                                               Michele Bachmann                      PRECINCT 1F                                            01 
01070060009000001000000000000000001000000000000REP       President                                               Michele Bachmann                      PRECINCT 1G                                            01 
01070060010000003000000000000000003000000000000REP       President                                               Michele Bachmann                      PRECINCT 1H                                            01 
01070060011000000000000000000000000000000000000REP       President                                               Michele Bachmann                      PRECINCT 1I                                            01 
01070060012000003000000000000000003000000000000REP       President                                               Michele Bachmann                      PRECINCT 2A1A                                          01 
01070060013000001000000000000000001000000000000REP       President                                               Michele Bachmann                      PRECINCT 2B2A                                          01 
01070060014000002000000000000000002000000000000REP       President                                               Michele Bachmann                      PRECINCT 2C3A                                          01 
01070060015000003000000000000000003000000000000REP       President                                               Michele Bachmann                      PRECINCT 2D                                            01 
01070060016000001000001000000000000000000000000REP       President                                               Michele Bachmann                      PRECINCT 2E                                            01 
01070060017000000000000000000000000000000000000REP       President                                               Michele Bachmann                      PRECINCT 2F                                            01 
01070060018000000000000000000000000000000000000REP       President                                               Michele Bachmann                      PRECINCT 2G                                            01 
01070060019000001000000000000000001000000000000REP       President                                               Michele Bachmann                      PRECINCT 2H                                            01 
01070060020000003000001000001000001000000000000REP       President                                               Michele Bachmann                      PRECINCT 3C7G                                          01 
01070060021000001000000000000000001000000000000REP       President                                               Michele Bachmann                      PRECINCT 3D                                            01 
01070060022000005000001000002000002000000000000REP       President                                               Michele Bachmann                      PRECINCT 3E                                            01 
01070060023000001000001000000000000000000000000REP       President                                               Michele Bachmann                      PRECINCT 3F                                            01 
01070060024000000000000000000000000000000000000REP       President                                               Michele Bachmann                      PRECINCT 3G                                            01 
01070060025000001000000000000000001000000000000REP       President                                               Michele Bachmann                      PRECINCT 3H3C                                          01 
01070060026000001000001000000000000000000000000REP       President                                               Michele Bachmann                      PRECINCT 3I                                            01 
01070060027000005000003000000000002000000000000REP       President                                               Michele Bachmann                      PRECINCT 4A6E                                          01 
01070060028000005000001000000000004000000000000REP       President                                               Michele Bachmann                      PRECINCT 4B                                            01 
01070060029000000000000000000000000000000000000REP       President                                               Michele Bachmann                      PRECINCT 4C                                            01 
01070060030000001000000000000000001000000000000REP       President                                               Michele Bachmann                      PRECINCT 4D                                            01 
01070060031000002000000000000000002000000000000REP       President                                               Michele Bachmann                      PRECINCT 4E                                            01 
01070060032000001000001000000000000000000000000REP       President                                               Michele Bachmann                      PRECINCT 4F                                            01 
01070060033000002000001000000000001000000000000REP       President                                               Michele Bachmann                      PRECINCT 4G                                            01 
01070070001000092000054000008000030000000000000REP       President                                               Mitt Romney                           PRECINCT 1A3B                                          01 
01070070002000133000085000007000041000000000000REP       President                                               Mitt Romney                           PRECINCT 1A5A                                          01 
01070070003000045000011000004000030000000000000REP       President                                               Mitt Romney                           PRECINCT 1B                                            01 
01070070004000075000037000003000035000000000000REP       President                                               Mitt Romney                           PRECINCT 1C                                            01 
01070070005000095000034000004000057000000000000REP       President                                               Mitt Romney                           PRECINCT 1D                                            01 
01070070006000107000024000000000083000000000000REP       President                                               Mitt Romney                           PRECINCT 1E                                            01 
01070070007000206000132000014000060000000000000REP       President                                               Mitt Romney                           PRECINCT 1E7C                                          01 
01070070008000183000055000005000123000000000000REP       President                                               Mitt Romney                           PRECINCT 1F                                            01 
01070070009000105000012000004000089000000000000REP       President                                               Mitt Romney                           PRECINCT 1G                                            01 
01070070010000057000018000002000037000000000000REP       President                                               Mitt Romney                           PRECINCT 1H                                            01 
01070070011000030000004000000000026000000000000REP       President                                               Mitt Romney                           PRECINCT 1I                                            01 
01070070012000046000019000005000022000000000000REP       President                                               Mitt Romney                           PRECINCT 2A1A                                          01 
01070070013000046000023000002000021000000000000REP       President                                               Mitt Romney                           PRECINCT 2B2A                                          01 
01070070014000139000053000012000074000000000000REP       President                                               Mitt Romney                           PRECINCT 2C3A                                          01 
01070070015000071000009000004000058000000000000REP       President                                               Mitt Romney                           PRECINCT 2D                                            01 
01070070016000084000032000002000050000000000000REP       President                                               Mitt Romney                           PRECINCT 2E                                            01 
01070070017000024000008000000000016000000000000REP       President                                               Mitt Romney                           PRECINCT 2F                                            01 
01070070018000041000019000002000020000000000000REP       President                                               Mitt Romney                           PRECINCT 2G                                            01 
01070070019000032000015000003000014000000000000REP       President                                               Mitt Romney                           PRECINCT 2H                                            01 
01070070020000503000298000045000160000000000000REP       President                                               Mitt Romney                           PRECINCT 3C7G                                          01 
01070070021000145000037000011000097000000000000REP       President                                               Mitt Romney                           PRECINCT 3D                                            01 
01070070022000223000060000006000157000000000000REP       President                                               Mitt Romney                           PRECINCT 3E                                            01 
01070070023000116000037000000000079000000000000REP       President                                               Mitt Romney                           PRECINCT 3F                                            01 
01070070024000144000043000005000096000000000000REP       President                                               Mitt Romney                           PRECINCT 3G                                            01 
01070070025000089000051000004000034000000000000REP       President                                               Mitt Romney                           PRECINCT 3H3C                                          01 
01070070026000210000111000010000089000000000000REP       President                                               Mitt Romney                           PRECINCT 3I                                            01 
01070070027000276000122000030000124000000000000REP       President                                               Mitt Romney                           PRECINCT 4A6E                                          01 
01070070028000296000079000014000203000000000000REP       President                                               Mitt Romney                           PRECINCT 4B                                            01 
01070070029000049000006000000000043000000000000REP       President                                               Mitt Romney                           PRECINCT 4C                                            01 
01070070030000180000045000004000131000000000000REP       President                                               Mitt Romney                           PRECINCT 4D                                            01 
01070070031000098000024000000000074000000000000REP       President                                               Mitt Romney                           PRECINCT 4E                                            01 
01070070032000266000128000006000132000000000000REP       President                                               Mitt Romney                           PRECINCT 4F                                            01 
01070070033000323000164000016000143000000000000REP       President                                               Mitt Romney                           PRECINCT 4G                                            01 
01070080001000000000000000000000000000000000000REP       President                                               John Davis                            PRECINCT 1A3B                                          01 
01070080002000003000003000000000000000000000000REP       President                                               John Davis                            PRECINCT 1A5A                                          01 
01070080003000001000000000000000001000000000000REP       President                                               John Davis                            PRECINCT 1B                                            01 
01070080004000001000000000000000001000000000000REP       President                                               John Davis                            PRECINCT 1C                                            01 
01070080005000000000000000000000000000000000000REP       President                                               John Davis                            PRECINCT 1D                                            01 
01070080006000000000000000000000000000000000000REP       President                                               John Davis                            PRECINCT 1E                                            01 
01070080007000000000000000000000000000000000000REP       President                                               John Davis                            PRECINCT 1E7C                                          01 
01070080008000003000000000000000003000000000000REP       President                                               John Davis                            PRECINCT 1F                                            01 
01070080009000000000000000000000000000000000000REP       President                                               John Davis                            PRECINCT 1G                                            01 
01070080010000001000000000000000001000000000000REP       President                                               John Davis                            PRECINCT 1H                                            01 
01070080011000000000000000000000000000000000000REP       President                                               John Davis                            PRECINCT 1I                                            01 
01070080012000000000000000000000000000000000000REP       President                                               John Davis                            PRECINCT 2A1A                                          01 
01070080013000001000001000000000000000000000000REP       President                                               John Davis                            PRECINCT 2B2A                                          01 
01070080014000002000001000000000001000000000000REP       President                                               John Davis                            PRECINCT 2C3A                                          01 
01070080015000001000000000000000001000000000000REP       President                                               John Davis                            PRECINCT 2D                                            01 
01070080016000003000002000000000001000000000000REP       President                                               John Davis                            PRECINCT 2E                                            01 
01070080017000000000000000000000000000000000000REP       President                                               John Davis                            PRECINCT 2F                                            01 
01070080018000001000000000000000001000000000000REP       President                                               John Davis                            PRECINCT 2G                                            01 
01070080019000000000000000000000000000000000000REP       President                                               John Davis                            PRECINCT 2H                                            01 
01070080020000003000001000000000002000000000000REP       President                                               John Davis                            PRECINCT 3C7G                                          01 
01070080021000001000000000000000001000000000000REP       President                                               John Davis                            PRECINCT 3D                                            01 
01070080022000001000001000000000000000000000000REP       President                                               John Davis                            PRECINCT 3E                                            01 
01070080023000000000000000000000000000000000000REP       President                                               John Davis                            PRECINCT 3F                                            01 
01070080024000000000000000000000000000000000000REP       President                                               John Davis                            PRECINCT 3G                                            01 
01070080025000001000001000000000000000000000000REP       President                                               John Davis                            PRECINCT 3H3C                                          01 
01070080026000002000001000001000000000000000000REP       President                                               John Davis                            PRECINCT 3I                                            01 
01070080027000001000000000000000001000000000000REP       President                                               John Davis                            PRECINCT 4A6E                                          01 
01070080028000001000000000000000001000000000000REP       President                                               John Davis                            PRECINCT 4B                                            01 
01070080029000000000000000000000000000000000000REP       President                                               John Davis                            PRECINCT 4C                                            01 
01070080030000000000000000000000000000000000000REP       President                                               John Davis                            PRECINCT 4D                                            01 
01070080031000001000000000000000001000000000000REP       President                                               John Davis                            PRECINCT 4E                                            01 
01070080032000000000000000000000000000000000000REP       President                                               John Davis                            PRECINCT 4F                                            01 
01070080033000005000001000000000004000000000000REP       President                                               John Davis                            PRECINCT 4G                                            01 
01070090001000007000003000001000003000000000000REP       President                                               Uncommitted                           PRECINCT 1A3B                                          01 
01070090002000027000017000001000009000000000000REP       President                                               Uncommitted                           PRECINCT 1A5A                                          01 
01070090003000003000002000000000001000000000000REP       President                                               Uncommitted                           PRECINCT 1B                                            01 
01070090004000010000006000000000004000000000000REP       President                                               Uncommitted                           PRECINCT 1C                                            01 
01070090005000007000002000000000005000000000000REP       President                                               Uncommitted                           PRECINCT 1D                                            01 
01070090006000015000000000000000015000000000000REP       President                                               Uncommitted                           PRECINCT 1E                                            01 
01070090007000018000008000002000008000000000000REP       President                                               Uncommitted                           PRECINCT 1E7C                                          01 
01070090008000016000003000000000013000000000000REP       President                                               Uncommitted                           PRECINCT 1F                                            01 
01070090009000018000001000001000016000000000000REP       President                                               Uncommitted                           PRECINCT 1G                                            01 
01070090010000017000005000000000012000000000000REP       President                                               Uncommitted                           PRECINCT 1H                                            01 
01070090011000001000000000000000001000000000000REP       President                                               Uncommitted                           PRECINCT 1I                                            01 
