01010010002028247000000000000000000000000000000          REGISTERED VOTERS - TOTAL                               REGISTERED VOTERS - TOTAL             PRECINCT 1A5A                                          00 
01040010002002444000897000362001185000000000000          BALLOTS CAST - TOTAL                                    BALLOTS CAST - TOTAL                  PRECINCT 1A5A                                          00 
01050010002002237000825000299001113000000000000REP       BALLOTS CAST - REPUBLICAN PARTY                         BALLOTS CAST - REPUBLICAN PARTY       PRECINCT 1A5A                                          00 
01060010002000207000072000063000072000000000000DEM       BALLOTS CAST - DEMOCRATIC PARTY                         BALLOTS CAST - DEMOCRATIC PARTY       PRECINCT 1A5A                                          00 
01070010002001213000465000227000521000000000000REP       United States Senator                                   David Dewhurst                        PRECINCT 1A5A                                          01 
01070020002001018000357000071000590000000000000REP       United States Senator                                   Ted Cruz                              PRECINCT 1A5A                                          01 
01070030002000000000000000000000000000000000000REP       United States Senator                                   OVER VOTES                            PRECINCT 1A5A                                          01 
01070040002000006000003000001000002000000000000REP       United States Senator                                   UNDER VOTES                           PRECINCT 1A5A                                          01 
01080010002001370000521000171000678000000000000REP       Railroad Commissioner                                   Christi Craddick                      PRECINCT 1A5A                                          01 
01080020002000671000236000106000329000000000000REP       Railroad Commissioner                                   Warren Chisum                         PRECINCT 1A5A                                          01 
01080030002000001000000000000000001000000000000REP       Railroad Commissioner                                   OVER VOTES                            PRECINCT 1A5A                                          01 
01080040002000195000068000022000105000000000000REP       Railroad Commissioner                                   UNDER VOTES                           PRECINCT 1A5A                                          01 
01090010002000781000245000149000387000000000000REP       Railroad Commissioner, Unexpired Term                   Greg Parker                           PRECINCT 1A5A                                          01 
01090020002001188000496000118000574000000000000REP       Railroad Commissioner, Unexpired Term                   Barry Smitherman                      PRECINCT 1A5A                                          01 
01090030002000001000000000000000001000000000000REP       Railroad Commissioner, Unexpired Term                   OVER VOTES                            PRECINCT 1A5A                                          01 
01090040002000267000084000032000151000000000000REP       Railroad Commissioner, Unexpired Term                   UNDER VOTES                           PRECINCT 1A5A                                          01 
01100010002000980000381000113000486000000000000REP       Justice, Supreme Court, Place 4                         David Medina                          PRECINCT 1A5A                                          01 
01100020002000939000330000149000460000000000000REP       Justice, Supreme Court, Place 4                         John Devine                           PRECINCT 1A5A                                          01 
01100030002000001000000000000000001000000000000REP       Justice, Supreme Court, Place 4                         OVER VOTES                            PRECINCT 1A5A                                          01 
01100040002000317000114000037000166000000000000REP       Justice, Supreme Court, Place 4                         UNDER VOTES                           PRECINCT 1A5A                                          01 
01110010002000063000013000032000018000000000000DEM       United States Senator                                   Grady Yarbrough                       PRECINCT 1A5A                                          01 
01110020002000143000059000031000053000000000000DEM       United States Senator                                   Paul Sadler                           PRECINCT 1A5A                                          01 
01110030002000000000000000000000000000000000000DEM       United States Senator                                   OVER VOTES                            PRECINCT 1A5A                                          01 
01110040002000001000000000000000001000000000000DEM       United States Senator                                   UNDER VOTES                           PRECINCT 1A5A                                          01 
