01010010001000000          REGISTERED VOTERS - TOTAL                               REGISTERED VOTERS - TOTAL             1 - Olton Community Cente                              00 
01010010002000000          REGISTERED VOTERS - TOTAL                               REGISTERED VOTERS - TOTAL             2 - Littlefield Junior Hi                              00 
01010010003000000          REGISTERED VOTERS - TOTAL                               REGISTERED VOTERS - TOTAL             3 & 12 - Earth Community                               00 
01010010004000000          REGISTERED VOTERS - TOTAL                               REGISTERED VOTERS - TOTAL             4 & 11 - Sudan Community                               00 
01010010005000000          REGISTERED VOTERS - TOTAL                               REGISTERED VOTERS - TOTAL             5 - Olton Elementary                                   00 
01010010006000000          REGISTERED VOTERS - TOTAL                               REGISTERED VOTERS - TOTAL             6, 7, 8 & 9 - Lamb County                              00 
01010010009000000          REGISTERED VOTERS - TOTAL                               REGISTERED VOTERS - TOTAL             10 - Amherst City Hall                                 00 
01040010001000393          BALLOTS CAST - TOTAL                                    BALLOTS CAST - TOTAL                  1 - Olton Community Cente                              00 
01040010002000029          BALLOTS CAST - TOTAL                                    BALLOTS CAST - TOTAL                  2 - Littlefield Junior Hi                              00 
01040010003000131          BALLOTS CAST - TOTAL                                    BALLOTS CAST - TOTAL                  3 & 12 - Earth Community                               00 
01040010004000097          BALLOTS CAST - TOTAL                                    BALLOTS CAST - TOTAL                  4 & 11 - Sudan Community                               00 
01040010005000078          BALLOTS CAST - TOTAL                                    BALLOTS CAST - TOTAL                  5 - Olton Elementary                                   00 
01040010006000386          BALLOTS CAST - TOTAL                                    BALLOTS CAST - TOTAL                  6, 7, 8 & 9 - Lamb County                              00 
01040010009000071          BALLOTS CAST - TOTAL                                    BALLOTS CAST - TOTAL                  10 - Amherst City Hall                                 00 
01050010001000387REP       BALLOTS CAST - REPUBLICAN PARTY                         BALLOTS CAST - REPUBLICAN PARTY       1 - Olton Community Cente                              00 
01050010002000027REP       BALLOTS CAST - REPUBLICAN PARTY                         BALLOTS CAST - REPUBLICAN PARTY       2 - Littlefield Junior Hi                              00 
01050010003000127REP       BALLOTS CAST - REPUBLICAN PARTY                         BALLOTS CAST - REPUBLICAN PARTY       3 & 12 - Earth Community                               00 
01050010004000093REP       BALLOTS CAST - REPUBLICAN PARTY                         BALLOTS CAST - REPUBLICAN PARTY       4 & 11 - Sudan Community                               00 
01050010005000073REP       BALLOTS CAST - REPUBLICAN PARTY                         BALLOTS CAST - REPUBLICAN PARTY       5 - Olton Elementary                                   00 
01050010006000370REP       BALLOTS CAST - REPUBLICAN PARTY                         BALLOTS CAST - REPUBLICAN PARTY       6, 7, 8 & 9 - Lamb County                              00 
01050010009000057REP       BALLOTS CAST - REPUBLICAN PARTY                         BALLOTS CAST - REPUBLICAN PARTY       10 - Amherst City Hall                                 00 
01060010001000006DEM       BALLOTS CAST - DEMOCRATIC PARTY                         BALLOTS CAST - DEMOCRATIC PARTY       1 - Olton Community Cente                              00 
01060010002000002DEM       BALLOTS CAST - DEMOCRATIC PARTY                         BALLOTS CAST - DEMOCRATIC PARTY       2 - Littlefield Junior Hi                              00 
01060010003000004DEM       BALLOTS CAST - DEMOCRATIC PARTY                         BALLOTS CAST - DEMOCRATIC PARTY       3 & 12 - Earth Community                               00 
01060010004000004DEM       BALLOTS CAST - DEMOCRATIC PARTY                         BALLOTS CAST - DEMOCRATIC PARTY       4 & 11 - Sudan Community                               00 
01060010005000005DEM       BALLOTS CAST - DEMOCRATIC PARTY                         BALLOTS CAST - DEMOCRATIC PARTY       5 - Olton Elementary                                   00 
01060010006000016DEM       BALLOTS CAST - DEMOCRATIC PARTY                         BALLOTS CAST - DEMOCRATIC PARTY       6, 7, 8 & 9 - Lamb County                              00 
01060010009000014DEM       BALLOTS CAST - DEMOCRATIC PARTY                         BALLOTS CAST - DEMOCRATIC PARTY       10 - Amherst City Hall                                 00 
