01010010001000991          REGISTERED VOTERS - TOTAL                               REGISTERED VOTERS - TOTAL             Precinct 1                                             00 
01010010002001455          REGISTERED VOTERS - TOTAL                               REGISTERED VOTERS - TOTAL             Precinct 2                                             00 
01010010003000217          REGISTERED VOTERS - TOTAL                               REGISTERED VOTERS - TOTAL             Precinct 7                                             00 
01010010004000692          REGISTERED VOTERS - TOTAL                               REGISTERED VOTERS - TOTAL             Precinct 8                                             00 
01010010005001296          REGISTERED VOTERS - TOTAL                               REGISTERED VOTERS - TOTAL             Precinct 9                                             00 
01010010006000286          REGISTERED VOTERS - TOTAL                               REGISTERED VOTERS - TOTAL             Precinct 11                                            00 
01010010007000347          REGISTERED VOTERS - TOTAL                               REGISTERED VOTERS - TOTAL             Precinct 12                                            00 
01010010008000175          REGISTERED VOTERS - TOTAL                               REGISTERED VOTERS - TOTAL             Precinct 15                                            00 
01010010009000425          REGISTERED VOTERS - TOTAL                               REGISTERED VOTERS - TOTAL             Precinct 16                                            00 
01010010010000244          REGISTERED VOTERS - TOTAL                               REGISTERED VOTERS - TOTAL             Precinct 17                                            00 
01010010011000358          REGISTERED VOTERS - TOTAL                               REGISTERED VOTERS - TOTAL             Precinct 19                                            00 
01010010012000113          REGISTERED VOTERS - TOTAL                               REGISTERED VOTERS - TOTAL             Precinct 20                                            00 
01010010013001316          REGISTERED VOTERS - TOTAL                               REGISTERED VOTERS - TOTAL             Precinct 23                                            00 
01010010014000385          REGISTERED VOTERS - TOTAL                               REGISTERED VOTERS - TOTAL             Precinct 26                                            00 
01010010015000208          REGISTERED VOTERS - TOTAL                               REGISTERED VOTERS - TOTAL             Precinct 27                                            00 
01010010016001216          REGISTERED VOTERS - TOTAL                               REGISTERED VOTERS - TOTAL             Precinct 29                                            00 
01010010017001776          REGISTERED VOTERS - TOTAL                               REGISTERED VOTERS - TOTAL             Precinct 30                                            00 
01010010018001078          REGISTERED VOTERS - TOTAL                               REGISTERED VOTERS - TOTAL             Precinct 31                                            00 
01010010019000341          REGISTERED VOTERS - TOTAL                               REGISTERED VOTERS - TOTAL             Precinct 32                                            00 
01020010001000000REP       REGISTERED VOTERS - REPUBLICAN PARTY                    REGISTERED VOTERS - REPUBLICAN PARTY  Precinct 1                                             00 
01020010002000000REP       REGISTERED VOTERS - REPUBLICAN PARTY                    REGISTERED VOTERS - REPUBLICAN PARTY  Precinct 2                                             00 
01020010003000000REP       REGISTERED VOTERS - REPUBLICAN PARTY                    REGISTERED VOTERS - REPUBLICAN PARTY  Precinct 7                                             00 
01020010004000000REP       REGISTERED VOTERS - REPUBLICAN PARTY                    REGISTERED VOTERS - REPUBLICAN PARTY  Precinct 8                                             00 
01020010005000000REP       REGISTERED VOTERS - REPUBLICAN PARTY                    REGISTERED VOTERS - REPUBLICAN PARTY  Precinct 9                                             00 
01020010006000000REP       REGISTERED VOTERS - REPUBLICAN PARTY                    REGISTERED VOTERS - REPUBLICAN PARTY  Precinct 11                                            00 
01020010007000000REP       REGISTERED VOTERS - REPUBLICAN PARTY                    REGISTERED VOTERS - REPUBLICAN PARTY  Precinct 12                                            00 
01020010008000000REP       REGISTERED VOTERS - REPUBLICAN PARTY                    REGISTERED VOTERS - REPUBLICAN PARTY  Precinct 15                                            00 
01020010009000000REP       REGISTERED VOTERS - REPUBLICAN PARTY                    REGISTERED VOTERS - REPUBLICAN PARTY  Precinct 16                                            00 
01020010010000000REP       REGISTERED VOTERS - REPUBLICAN PARTY                    REGISTERED VOTERS - REPUBLICAN PARTY  Precinct 17                                            00 
01020010011000000REP       REGISTERED VOTERS - REPUBLICAN PARTY                    REGISTERED VOTERS - REPUBLICAN PARTY  Precinct 19                                            00 
01020010012000000REP       REGISTERED VOTERS - REPUBLICAN PARTY                    REGISTERED VOTERS - REPUBLICAN PARTY  Precinct 20                                            00 
01020010013000000REP       REGISTERED VOTERS - REPUBLICAN PARTY                    REGISTERED VOTERS - REPUBLICAN PARTY  Precinct 23                                            00 
01020010014000000REP       REGISTERED VOTERS - REPUBLICAN PARTY                    REGISTERED VOTERS - REPUBLICAN PARTY  Precinct 26                                            00 
01020010015000000REP       REGISTERED VOTERS - REPUBLICAN PARTY                    REGISTERED VOTERS - REPUBLICAN PARTY  Precinct 27                                            00 
01020010016000000REP       REGISTERED VOTERS - REPUBLICAN PARTY                    REGISTERED VOTERS - REPUBLICAN PARTY  Precinct 29                                            00 
01020010017000000REP       REGISTERED VOTERS - REPUBLICAN PARTY                    REGISTERED VOTERS - REPUBLICAN PARTY  Precinct 30                                            00 
01020010018000000REP       REGISTERED VOTERS - REPUBLICAN PARTY                    REGISTERED VOTERS - REPUBLICAN PARTY  Precinct 31                                            00 
01020010019000000REP       REGISTERED VOTERS - REPUBLICAN PARTY                    REGISTERED VOTERS - REPUBLICAN PARTY  Precinct 32                                            00 
01030010001000000DEM       REGISTERED VOTERS - DEMOCRATIC PARTY                    REGISTERED VOTERS - DEMOCRATIC PARTY  Precinct 1                                             00 
01030010002000000DEM       REGISTERED VOTERS - DEMOCRATIC PARTY                    REGISTERED VOTERS - DEMOCRATIC PARTY  Precinct 2                                             00 
01030010003000000DEM       REGISTERED VOTERS - DEMOCRATIC PARTY                    REGISTERED VOTERS - DEMOCRATIC PARTY  Precinct 7                                             00 
01030010004000000DEM       REGISTERED VOTERS - DEMOCRATIC PARTY                    REGISTERED VOTERS - DEMOCRATIC PARTY  Precinct 8                                             00 
01030010005000000DEM       REGISTERED VOTERS - DEMOCRATIC PARTY                    REGISTERED VOTERS - DEMOCRATIC PARTY  Precinct 9                                             00 
01030010006000000DEM       REGISTERED VOTERS - DEMOCRATIC PARTY                    REGISTERED VOTERS - DEMOCRATIC PARTY  Precinct 11                                            00 
01030010007000000DEM       REGISTERED VOTERS - DEMOCRATIC PARTY                    REGISTERED VOTERS - DEMOCRATIC PARTY  Precinct 12                                            00 
01030010008000000DEM       REGISTERED VOTERS - DEMOCRATIC PARTY                    REGISTERED VOTERS - DEMOCRATIC PARTY  Precinct 15                                            00 
01030010009000000DEM       REGISTERED VOTERS - DEMOCRATIC PARTY                    REGISTERED VOTERS - DEMOCRATIC PARTY  Precinct 16                                            00 
01030010010000000DEM       REGISTERED VOTERS - DEMOCRATIC PARTY                    REGISTERED VOTERS - DEMOCRATIC PARTY  Precinct 17                                            00 
01030010011000000DEM       REGISTERED VOTERS - DEMOCRATIC PARTY                    REGISTERED VOTERS - DEMOCRATIC PARTY  Precinct 19                                            00 
01030010012000000DEM       REGISTERED VOTERS - DEMOCRATIC PARTY                    REGISTERED VOTERS - DEMOCRATIC PARTY  Precinct 20                                            00 
01030010013000000DEM       REGISTERED VOTERS - DEMOCRATIC PARTY                    REGISTERED VOTERS - DEMOCRATIC PARTY  Precinct 23                                            00 
01030010014000000DEM       REGISTERED VOTERS - DEMOCRATIC PARTY                    REGISTERED VOTERS - DEMOCRATIC PARTY  Precinct 26                                            00 
01030010015000000DEM       REGISTERED VOTERS - DEMOCRATIC PARTY                    REGISTERED VOTERS - DEMOCRATIC PARTY  Precinct 27                                            00 
01030010016000000DEM       REGISTERED VOTERS - DEMOCRATIC PARTY                    REGISTERED VOTERS - DEMOCRATIC PARTY  Precinct 29                                            00 
01030010017000000DEM       REGISTERED VOTERS - DEMOCRATIC PARTY                    REGISTERED VOTERS - DEMOCRATIC PARTY  Precinct 30                                            00 
01030010018000000DEM       REGISTERED VOTERS - DEMOCRATIC PARTY                    REGISTERED VOTERS - DEMOCRATIC PARTY  Precinct 31                                            00 
01030010019000000DEM       REGISTERED VOTERS - DEMOCRATIC PARTY                    REGISTERED VOTERS - DEMOCRATIC PARTY  Precinct 32                                            00 
01040010001000204          BALLOTS CAST - TOTAL                                    BALLOTS CAST - TOTAL                  Precinct 1                                             00 
01040010002000262          BALLOTS CAST - TOTAL                                    BALLOTS CAST - TOTAL                  Precinct 2                                             00 
01040010003000052          BALLOTS CAST - TOTAL                                    BALLOTS CAST - TOTAL                  Precinct 7                                             00 
01040010004000182          BALLOTS CAST - TOTAL                                    BALLOTS CAST - TOTAL                  Precinct 8                                             00 
01040010005000204          BALLOTS CAST - TOTAL                                    BALLOTS CAST - TOTAL                  Precinct 9                                             00 
01040010006000076          BALLOTS CAST - TOTAL                                    BALLOTS CAST - TOTAL                  Precinct 11                                            00 
01040010007000082          BALLOTS CAST - TOTAL                                    BALLOTS CAST - TOTAL                  Precinct 12                                            00 
01040010008000051          BALLOTS CAST - TOTAL                                    BALLOTS CAST - TOTAL                  Precinct 15                                            00 
01040010009000073          BALLOTS CAST - TOTAL                                    BALLOTS CAST - TOTAL                  Precinct 16                                            00 
01040010010000076          BALLOTS CAST - TOTAL                                    BALLOTS CAST - TOTAL                  Precinct 17                                            00 
01040010011000079          BALLOTS CAST - TOTAL                                    BALLOTS CAST - TOTAL                  Precinct 19                                            00 
01040010012000032          BALLOTS CAST - TOTAL                                    BALLOTS CAST - TOTAL                  Precinct 20                                            00 
01040010013000315          BALLOTS CAST - TOTAL                                    BALLOTS CAST - TOTAL                  Precinct 23                                            00 
01040010014000022          BALLOTS CAST - TOTAL                                    BALLOTS CAST - TOTAL                  Precinct 26                                            00 
01040010015000052          BALLOTS CAST - TOTAL                                    BALLOTS CAST - TOTAL                  Precinct 27                                            00 
01040010016000194          BALLOTS CAST - TOTAL                                    BALLOTS CAST - TOTAL                  Precinct 29                                            00 
01040010017000296          BALLOTS CAST - TOTAL                                    BALLOTS CAST - TOTAL                  Precinct 30                                            00 
01040010018000304          BALLOTS CAST - TOTAL                                    BALLOTS CAST - TOTAL                  Precinct 31                                            00 
01040010019000066          BALLOTS CAST - TOTAL                                    BALLOTS CAST - TOTAL                  Precinct 32                                            00 
01050010001000171REP       BALLOTS CAST - REPUBLICAN PARTY                         BALLOTS CAST - REPUBLICAN PARTY       Precinct 1                                             00 
01050010002000209REP       BALLOTS CAST - REPUBLICAN PARTY                         BALLOTS CAST - REPUBLICAN PARTY       Precinct 2                                             00 
01050010003000044REP       BALLOTS CAST - REPUBLICAN PARTY                         BALLOTS CAST - REPUBLICAN PARTY       Precinct 7                                             00 
01050010004000159REP       BALLOTS CAST - REPUBLICAN PARTY                         BALLOTS CAST - REPUBLICAN PARTY       Precinct 8                                             00 
01050010005000157REP       BALLOTS CAST - REPUBLICAN PARTY                         BALLOTS CAST - REPUBLICAN PARTY       Precinct 9                                             00 
01050010006000057REP       BALLOTS CAST - REPUBLICAN PARTY                         BALLOTS CAST - REPUBLICAN PARTY       Precinct 11                                            00 
01050010007000060REP       BALLOTS CAST - REPUBLICAN PARTY                         BALLOTS CAST - REPUBLICAN PARTY       Precinct 12                                            00 
01050010008000031REP       BALLOTS CAST - REPUBLICAN PARTY                         BALLOTS CAST - REPUBLICAN PARTY       Precinct 15                                            00 
01050010009000062REP       BALLOTS CAST - REPUBLICAN PARTY                         BALLOTS CAST - REPUBLICAN PARTY       Precinct 16                                            00 
01050010010000064REP       BALLOTS CAST - REPUBLICAN PARTY                         BALLOTS CAST - REPUBLICAN PARTY       Precinct 17                                            00 
01050010011000067REP       BALLOTS CAST - REPUBLICAN PARTY                         BALLOTS CAST - REPUBLICAN PARTY       Precinct 19                                            00 
01050010012000021REP       BALLOTS CAST - REPUBLICAN PARTY                         BALLOTS CAST - REPUBLICAN PARTY       Precinct 20                                            00 
01050010013000283REP       BALLOTS CAST - REPUBLICAN PARTY                         BALLOTS CAST - REPUBLICAN PARTY       Precinct 23                                            00 
01050010014000017REP       BALLOTS CAST - REPUBLICAN PARTY                         BALLOTS CAST - REPUBLICAN PARTY       Precinct 26                                            00 
01050010015000042REP       BALLOTS CAST - REPUBLICAN PARTY                         BALLOTS CAST - REPUBLICAN PARTY       Precinct 27                                            00 
01050010016000148REP       BALLOTS CAST - REPUBLICAN PARTY                         BALLOTS CAST - REPUBLICAN PARTY       Precinct 29                                            00 
01050010017000248REP       BALLOTS CAST - REPUBLICAN PARTY                         BALLOTS CAST - REPUBLICAN PARTY       Precinct 30                                            00 
01050010018000246REP       BALLOTS CAST - REPUBLICAN PARTY                         BALLOTS CAST - REPUBLICAN PARTY       Precinct 31                                            00 
01050010019000058REP       BALLOTS CAST - REPUBLICAN PARTY                         BALLOTS CAST - REPUBLICAN PARTY       Precinct 32                                            00 
01060010001000033DEM       BALLOTS CAST - DEMOCRATIC PARTY                         BALLOTS CAST - DEMOCRATIC PARTY       Precinct 1                                             00 
01060010002000053DEM       BALLOTS CAST - DEMOCRATIC PARTY                         BALLOTS CAST - DEMOCRATIC PARTY       Precinct 2                                             00 
01060010003000008DEM       BALLOTS CAST - DEMOCRATIC PARTY                         BALLOTS CAST - DEMOCRATIC PARTY       Precinct 7                                             00 
01060010004000023DEM       BALLOTS CAST - DEMOCRATIC PARTY                         BALLOTS CAST - DEMOCRATIC PARTY       Precinct 8                                             00 
01060010005000047DEM       BALLOTS CAST - DEMOCRATIC PARTY                         BALLOTS CAST - DEMOCRATIC PARTY       Precinct 9                                             00 
01060010006000019DEM       BALLOTS CAST - DEMOCRATIC PARTY                         BALLOTS CAST - DEMOCRATIC PARTY       Precinct 11                                            00 
01060010007000022DEM       BALLOTS CAST - DEMOCRATIC PARTY                         BALLOTS CAST - DEMOCRATIC PARTY       Precinct 12                                            00 
01060010008000020DEM       BALLOTS CAST - DEMOCRATIC PARTY                         BALLOTS CAST - DEMOCRATIC PARTY       Precinct 15                                            00 
01060010009000011DEM       BALLOTS CAST - DEMOCRATIC PARTY                         BALLOTS CAST - DEMOCRATIC PARTY       Precinct 16                                            00 
01060010010000012DEM       BALLOTS CAST - DEMOCRATIC PARTY                         BALLOTS CAST - DEMOCRATIC PARTY       Precinct 17                                            00 
01060010011000012DEM       BALLOTS CAST - DEMOCRATIC PARTY                         BALLOTS CAST - DEMOCRATIC PARTY       Precinct 19                                            00 
01060010012000011DEM       BALLOTS CAST - DEMOCRATIC PARTY                         BALLOTS CAST - DEMOCRATIC PARTY       Precinct 20                                            00 
01060010013000032DEM       BALLOTS CAST - DEMOCRATIC PARTY                         BALLOTS CAST - DEMOCRATIC PARTY       Precinct 23                                            00 
01060010014000005DEM       BALLOTS CAST - DEMOCRATIC PARTY                         BALLOTS CAST - DEMOCRATIC PARTY       Precinct 26                                            00 
01060010015000010DEM       BALLOTS CAST - DEMOCRATIC PARTY                         BALLOTS CAST - DEMOCRATIC PARTY       Precinct 27                                            00 
01060010016000046DEM       BALLOTS CAST - DEMOCRATIC PARTY                         BALLOTS CAST - DEMOCRATIC PARTY       Precinct 29                                            00 
01060010017000048DEM       BALLOTS CAST - DEMOCRATIC PARTY                         BALLOTS CAST - DEMOCRATIC PARTY       Precinct 30                                            00 
01060010018000058DEM       BALLOTS CAST - DEMOCRATIC PARTY                         BALLOTS CAST - DEMOCRATIC PARTY       Precinct 31                                            00 
01060010019000008DEM       BALLOTS CAST - DEMOCRATIC PARTY                         BALLOTS CAST - DEMOCRATIC PARTY       Precinct 32                                            00 
01070010001000000REP       President LAVACA COUNTYWIDE                             John Davis                            Precinct 1                                             01 
01070010002000000REP       President LAVACA COUNTYWIDE                             John Davis                            Precinct 2                                             01 
01070010003000000REP       President LAVACA COUNTYWIDE                             John Davis                            Precinct 7                                             01 
01070010004000000REP       President LAVACA COUNTYWIDE                             John Davis                            Precinct 8                                             01 
01070010005000000REP       President LAVACA COUNTYWIDE                             John Davis                            Precinct 9                                             01 
01070010006000000REP       President LAVACA COUNTYWIDE                             John Davis                            Precinct 11                                            01 
01070010007000000REP       President LAVACA COUNTYWIDE                             John Davis                            Precinct 12                                            01 
01070010008000000REP       President LAVACA COUNTYWIDE                             John Davis                            Precinct 15                                            01 
01070010009000000REP       President LAVACA COUNTYWIDE                             John Davis                            Precinct 16                                            01 
01070010010000000REP       President LAVACA COUNTYWIDE                             John Davis                            Precinct 17                                            01 
01070010011000000REP       President LAVACA COUNTYWIDE                             John Davis                            Precinct 19                                            01 
01070010012000000REP       President LAVACA COUNTYWIDE                             John Davis                            Precinct 20                                            01 
01070010013000000REP       President LAVACA COUNTYWIDE                             John Davis                            Precinct 23                                            01 
01070010014000000REP       President LAVACA COUNTYWIDE                             John Davis                            Precinct 26                                            01 
01070010015000000REP       President LAVACA COUNTYWIDE                             John Davis                            Precinct 27                                            01 
01070010016000000REP       President LAVACA COUNTYWIDE                             John Davis                            Precinct 29                                            01 
01070010017000002REP       President LAVACA COUNTYWIDE                             John Davis                            Precinct 30                                            01 
01070010018000001REP       President LAVACA COUNTYWIDE                             John Davis                            Precinct 31                                            01 
01070010019000000REP       President LAVACA COUNTYWIDE                             John Davis                            Precinct 32                                            01 
01070020001000025REP       President LAVACA COUNTYWIDE                             Ron Paul                              Precinct 1                                             01 
01070020002000040REP       President LAVACA COUNTYWIDE                             Ron Paul                              Precinct 2                                             01 
01070020003000003REP       President LAVACA COUNTYWIDE                             Ron Paul                              Precinct 7                                             01 
01070020004000034REP       President LAVACA COUNTYWIDE                             Ron Paul                              Precinct 8                                             01 
01070020005000039REP       President LAVACA COUNTYWIDE                             Ron Paul                              Precinct 9                                             01 
01070020006000003REP       President LAVACA COUNTYWIDE                             Ron Paul                              Precinct 11                                            01 
01070020007000011REP       President LAVACA COUNTYWIDE                             Ron Paul                              Precinct 12                                            01 
01070020008000003REP       President LAVACA COUNTYWIDE                             Ron Paul                              Precinct 15                                            01 
01070020009000008REP       President LAVACA COUNTYWIDE                             Ron Paul                              Precinct 16                                            01 
01070020010000009REP       President LAVACA COUNTYWIDE                             Ron Paul                              Precinct 17                                            01 
01070020011000011REP       President LAVACA COUNTYWIDE                             Ron Paul                              Precinct 19                                            01 
01070020012000005REP       President LAVACA COUNTYWIDE                             Ron Paul                              Precinct 20                                            01 
01070020013000078REP       President LAVACA COUNTYWIDE                             Ron Paul                              Precinct 23                                            01 
01070020014000001REP       President LAVACA COUNTYWIDE                             Ron Paul                              Precinct 26                                            01 
01070020015000006REP       President LAVACA COUNTYWIDE                             Ron Paul                              Precinct 27                                            01 
01070020016000021REP       President LAVACA COUNTYWIDE                             Ron Paul                              Precinct 29                                            01 
01070020017000028REP       President LAVACA COUNTYWIDE                             Ron Paul                              Precinct 30                                            01 
01070020018000044REP       President LAVACA COUNTYWIDE                             Ron Paul                              Precinct 31                                            01 
01070020019000008REP       President LAVACA COUNTYWIDE                             Ron Paul                              Precinct 32                                            01 
01070030001000000REP       President LAVACA COUNTYWIDE                             Charles "Buddy" Roemer                Precinct 1                                             01 
01070030002000001REP       President LAVACA COUNTYWIDE                             Charles "Buddy" Roemer                Precinct 2                                             01 
01070030003000000REP       President LAVACA COUNTYWIDE                             Charles "Buddy" Roemer                Precinct 7                                             01 
01070030004000000REP       President LAVACA COUNTYWIDE                             Charles "Buddy" Roemer                Precinct 8                                             01 
01070030005000000REP       President LAVACA COUNTYWIDE                             Charles "Buddy" Roemer                Precinct 9                                             01 
01070030006000000REP       President LAVACA COUNTYWIDE                             Charles "Buddy" Roemer                Precinct 11                                            01 
01070030007000000REP       President LAVACA COUNTYWIDE                             Charles "Buddy" Roemer                Precinct 12                                            01 
01070030008000000REP       President LAVACA COUNTYWIDE                             Charles "Buddy" Roemer                Precinct 15                                            01 
01070030009000000REP       President LAVACA COUNTYWIDE                             Charles "Buddy" Roemer                Precinct 16                                            01 
01070030010000000REP       President LAVACA COUNTYWIDE                             Charles "Buddy" Roemer                Precinct 17                                            01 
01070030011000000REP       President LAVACA COUNTYWIDE                             Charles "Buddy" Roemer                Precinct 19                                            01 
01070030012000000REP       President LAVACA COUNTYWIDE                             Charles "Buddy" Roemer                Precinct 20                                            01 
01070030013000000REP       President LAVACA COUNTYWIDE                             Charles "Buddy" Roemer                Precinct 23                                            01 
01070030014000000REP       President LAVACA COUNTYWIDE                             Charles "Buddy" Roemer                Precinct 26                                            01 
01070030015000000REP       President LAVACA COUNTYWIDE                             Charles "Buddy" Roemer                Precinct 27                                            01 
01070030016000000REP       President LAVACA COUNTYWIDE                             Charles "Buddy" Roemer                Precinct 29                                            01 
01070030017000000REP       President LAVACA COUNTYWIDE                             Charles "Buddy" Roemer                Precinct 30                                            01 
01070030018000001REP       President LAVACA COUNTYWIDE                             Charles "Buddy" Roemer                Precinct 31                                            01 
01070030019000000REP       President LAVACA COUNTYWIDE                             Charles "Buddy" Roemer                Precinct 32                                            01 
01070040001000000REP       President LAVACA COUNTYWIDE                             Michele Bachmann                      Precinct 1                                             01 
01070040002000001REP       President LAVACA COUNTYWIDE                             Michele Bachmann                      Precinct 2                                             01 
01070040003000000REP       President LAVACA COUNTYWIDE                             Michele Bachmann                      Precinct 7                                             01 
01070040004000001REP       President LAVACA COUNTYWIDE                             Michele Bachmann                      Precinct 8                                             01 
01070040005000000REP       President LAVACA COUNTYWIDE                             Michele Bachmann                      Precinct 9                                             01 
01070040006000000REP       President LAVACA COUNTYWIDE                             Michele Bachmann                      Precinct 11                                            01 
01070040007000000REP       President LAVACA COUNTYWIDE                             Michele Bachmann                      Precinct 12                                            01 
01070040008000000REP       President LAVACA COUNTYWIDE                             Michele Bachmann                      Precinct 15                                            01 
01070040009000000REP       President LAVACA COUNTYWIDE                             Michele Bachmann                      Precinct 16                                            01 
01070040010000000REP       President LAVACA COUNTYWIDE                             Michele Bachmann                      Precinct 17                                            01 
01070040011000000REP       President LAVACA COUNTYWIDE                             Michele Bachmann                      Precinct 19                                            01 
01070040012000000REP       President LAVACA COUNTYWIDE                             Michele Bachmann                      Precinct 20                                            01 
01070040013000000REP       President LAVACA COUNTYWIDE                             Michele Bachmann                      Precinct 23                                            01 
01070040014000000REP       President LAVACA COUNTYWIDE                             Michele Bachmann                      Precinct 26                                            01 
01070040015000000REP       President LAVACA COUNTYWIDE                             Michele Bachmann                      Precinct 27                                            01 
01070040016000000REP       President LAVACA COUNTYWIDE                             Michele Bachmann                      Precinct 29                                            01 
01070040017000002REP       President LAVACA COUNTYWIDE                             Michele Bachmann                      Precinct 30                                            01 
01070040018000001REP       President LAVACA COUNTYWIDE                             Michele Bachmann                      Precinct 31                                            01 
01070040019000000REP       President LAVACA COUNTYWIDE                             Michele Bachmann                      Precinct 32                                            01 
01070050001000000REP       President LAVACA COUNTYWIDE                             Jon Huntsman                          Precinct 1                                             01 
01070050002000000REP       President LAVACA COUNTYWIDE                             Jon Huntsman                          Precinct 2                                             01 
01070050003000000REP       President LAVACA COUNTYWIDE                             Jon Huntsman                          Precinct 7                                             01 
01070050004000000REP       President LAVACA COUNTYWIDE                             Jon Huntsman                          Precinct 8                                             01 
01070050005000000REP       President LAVACA COUNTYWIDE                             Jon Huntsman                          Precinct 9                                             01 
01070050006000000REP       President LAVACA COUNTYWIDE                             Jon Huntsman                          Precinct 11                                            01 
01070050007000000REP       President LAVACA COUNTYWIDE                             Jon Huntsman                          Precinct 12                                            01 
01070050008000000REP       President LAVACA COUNTYWIDE                             Jon Huntsman                          Precinct 15                                            01 
01070050009000000REP       President LAVACA COUNTYWIDE                             Jon Huntsman                          Precinct 16                                            01 
01070050010000002REP       President LAVACA COUNTYWIDE                             Jon Huntsman                          Precinct 17                                            01 
01070050011000000REP       President LAVACA COUNTYWIDE                             Jon Huntsman                          Precinct 19                                            01 
01070050012000001REP       President LAVACA COUNTYWIDE                             Jon Huntsman                          Precinct 20                                            01 
01070050013000002REP       President LAVACA COUNTYWIDE                             Jon Huntsman                          Precinct 23                                            01 
01070050014000000REP       President LAVACA COUNTYWIDE                             Jon Huntsman                          Precinct 26                                            01 
01070050015000000REP       President LAVACA COUNTYWIDE                             Jon Huntsman                          Precinct 27                                            01 
01070050016000001REP       President LAVACA COUNTYWIDE                             Jon Huntsman                          Precinct 29                                            01 
01070050017000000REP       President LAVACA COUNTYWIDE                             Jon Huntsman                          Precinct 30                                            01 
01070050018000000REP       President LAVACA COUNTYWIDE                             Jon Huntsman                          Precinct 31                                            01 
01070050019000000REP       President LAVACA COUNTYWIDE                             Jon Huntsman                          Precinct 32                                            01 
01070060001000013REP       President LAVACA COUNTYWIDE                             Rick Santorum                         Precinct 1                                             01 
01070060002000014REP       President LAVACA COUNTYWIDE                             Rick Santorum                         Precinct 2                                             01 
01070060003000003REP       President LAVACA COUNTYWIDE                             Rick Santorum                         Precinct 7                                             01 
01070060004000008REP       President LAVACA COUNTYWIDE                             Rick Santorum                         Precinct 8                                             01 
01070060005000009REP       President LAVACA COUNTYWIDE                             Rick Santorum                         Precinct 9                                             01 
01070060006000004REP       President LAVACA COUNTYWIDE                             Rick Santorum                         Precinct 11                                            01 
01070060007000007REP       President LAVACA COUNTYWIDE                             Rick Santorum                         Precinct 12                                            01 
01070060008000001REP       President LAVACA COUNTYWIDE                             Rick Santorum                         Precinct 15                                            01 
01070060009000004REP       President LAVACA COUNTYWIDE                             Rick Santorum                         Precinct 16                                            01 
01070060010000001REP       President LAVACA COUNTYWIDE                             Rick Santorum                         Precinct 17                                            01 
01070060011000008REP       President LAVACA COUNTYWIDE                             Rick Santorum                         Precinct 19                                            01 
01070060012000004REP       President LAVACA COUNTYWIDE                             Rick Santorum                         Precinct 20                                            01 
01070060013000011REP       President LAVACA COUNTYWIDE                             Rick Santorum                         Precinct 23                                            01 
01070060014000003REP       President LAVACA COUNTYWIDE                             Rick Santorum                         Precinct 26                                            01 
01070060015000002REP       President LAVACA COUNTYWIDE                             Rick Santorum                         Precinct 27                                            01 
01070060016000008REP       President LAVACA COUNTYWIDE                             Rick Santorum                         Precinct 29                                            01 
01070060017000014REP       President LAVACA COUNTYWIDE                             Rick Santorum                         Precinct 30                                            01 
01070060018000026REP       President LAVACA COUNTYWIDE                             Rick Santorum                         Precinct 31                                            01 
01070060019000006REP       President LAVACA COUNTYWIDE                             Rick Santorum                         Precinct 32                                            01 
01070070001000111REP       President LAVACA COUNTYWIDE                             Mitt Romney                           Precinct 1                                             01 
01070070002000136REP       President LAVACA COUNTYWIDE                             Mitt Romney                           Precinct 2                                             01 
01070070003000035REP       President LAVACA COUNTYWIDE                             Mitt Romney                           Precinct 7                                             01 
01070070004000103REP       President LAVACA COUNTYWIDE                             Mitt Romney                           Precinct 8                                             01 
01070070005000096REP       President LAVACA COUNTYWIDE                             Mitt Romney                           Precinct 9                                             01 
01070070006000045REP       President LAVACA COUNTYWIDE                             Mitt Romney                           Precinct 11                                            01 
01070070007000036REP       President LAVACA COUNTYWIDE                             Mitt Romney                           Precinct 12                                            01 
01070070008000025REP       President LAVACA COUNTYWIDE                             Mitt Romney                           Precinct 15                                            01 
01070070009000047REP       President LAVACA COUNTYWIDE                             Mitt Romney                           Precinct 16                                            01 
01070070010000044REP       President LAVACA COUNTYWIDE                             Mitt Romney                           Precinct 17                                            01 
01070070011000042REP       President LAVACA COUNTYWIDE                             Mitt Romney                           Precinct 19                                            01 
01070070012000011REP       President LAVACA COUNTYWIDE                             Mitt Romney                           Precinct 20                                            01 
01070070013000151REP       President LAVACA COUNTYWIDE                             Mitt Romney                           Precinct 23                                            01 
01070070014000008REP       President LAVACA COUNTYWIDE                             Mitt Romney                           Precinct 26                                            01 
01070070015000030REP       President LAVACA COUNTYWIDE                             Mitt Romney                           Precinct 27                                            01 
01070070016000105REP       President LAVACA COUNTYWIDE                             Mitt Romney                           Precinct 29                                            01 
01070070017000187REP       President LAVACA COUNTYWIDE                             Mitt Romney                           Precinct 30                                            01 
01070070018000148REP       President LAVACA COUNTYWIDE                             Mitt Romney                           Precinct 31                                            01 
01070070019000043REP       President LAVACA COUNTYWIDE                             Mitt Romney                           Precinct 32                                            01 
01070080001000015REP       President LAVACA COUNTYWIDE                             Newt Gingrich                         Precinct 1                                             01 
01070080002000010REP       President LAVACA COUNTYWIDE                             Newt Gingrich                         Precinct 2                                             01 
01070080003000001REP       President LAVACA COUNTYWIDE                             Newt Gingrich                         Precinct 7                                             01 
01070080004000009REP       President LAVACA COUNTYWIDE                             Newt Gingrich                         Precinct 8                                             01 
01070080005000005REP       President LAVACA COUNTYWIDE                             Newt Gingrich                         Precinct 9                                             01 
01070080006000005REP       President LAVACA COUNTYWIDE                             Newt Gingrich                         Precinct 11                                            01 
01070080007000003REP       President LAVACA COUNTYWIDE                             Newt Gingrich                         Precinct 12                                            01 
01070080008000001REP       President LAVACA COUNTYWIDE                             Newt Gingrich                         Precinct 15                                            01 
01070080009000002REP       President LAVACA COUNTYWIDE                             Newt Gingrich                         Precinct 16                                            01 
01070080010000004REP       President LAVACA COUNTYWIDE                             Newt Gingrich                         Precinct 17                                            01 
01070080011000003REP       President LAVACA COUNTYWIDE                             Newt Gingrich                         Precinct 19                                            01 
01070080012000000REP       President LAVACA COUNTYWIDE                             Newt Gingrich                         Precinct 20                                            01 
01070080013000012REP       President LAVACA COUNTYWIDE                             Newt Gingrich                         Precinct 23                                            01 
01070080014000003REP       President LAVACA COUNTYWIDE                             Newt Gingrich                         Precinct 26                                            01 
01070080015000003REP       President LAVACA COUNTYWIDE                             Newt Gingrich                         Precinct 27                                            01 
01070080016000007REP       President LAVACA COUNTYWIDE                             Newt Gingrich                         Precinct 29                                            01 
01070080017000012REP       President LAVACA COUNTYWIDE                             Newt Gingrich                         Precinct 30                                            01 
01070080018000010REP       President LAVACA COUNTYWIDE                             Newt Gingrich                         Precinct 31                                            01 
01070080019000001REP       President LAVACA COUNTYWIDE                             Newt Gingrich                         Precinct 32                                            01 
01070090001000001REP       President LAVACA COUNTYWIDE                             Uncommitted (No Comprometido)         Precinct 1                                             01 
01070090002000003REP       President LAVACA COUNTYWIDE                             Uncommitted (No Comprometido)         Precinct 2                                             01 
01070090003000001REP       President LAVACA COUNTYWIDE                             Uncommitted (No Comprometido)         Precinct 7                                             01 
01070090004000003REP       President LAVACA COUNTYWIDE                             Uncommitted (No Comprometido)         Precinct 8                                             01 
01070090005000002REP       President LAVACA COUNTYWIDE                             Uncommitted (No Comprometido)         Precinct 9                                             01 
01070090006000000REP       President LAVACA COUNTYWIDE                             Uncommitted (No Comprometido)         Precinct 11                                            01 
01070090007000000REP       President LAVACA COUNTYWIDE                             Uncommitted (No Comprometido)         Precinct 12                                            01 
01070090008000000REP       President LAVACA COUNTYWIDE                             Uncommitted (No Comprometido)         Precinct 15                                            01 
01070090009000000REP       President LAVACA COUNTYWIDE                             Uncommitted (No Comprometido)         Precinct 16                                            01 
01070090010000002REP       President LAVACA COUNTYWIDE                             Uncommitted (No Comprometido)         Precinct 17                                            01 
01070090011000002REP       President LAVACA COUNTYWIDE                             Uncommitted (No Comprometido)         Precinct 19                                            01 
01070090012000000REP       President LAVACA COUNTYWIDE                             Uncommitted (No Comprometido)         Precinct 20                                            01 
01070090013000006REP       President LAVACA COUNTYWIDE                             Uncommitted (No Comprometido)         Precinct 23                                            01 
01070090014000001REP       President LAVACA COUNTYWIDE                             Uncommitted (No Comprometido)         Precinct 26                                            01 
01070090015000001REP       President LAVACA COUNTYWIDE                             Uncommitted (No Comprometido)         Precinct 27                                            01 
01070090016000004REP       President LAVACA COUNTYWIDE                             Uncommitted (No Comprometido)         Precinct 29                                            01 
01070090017000002REP       President LAVACA COUNTYWIDE                             Uncommitted (No Comprometido)         Precinct 30                                            01 
01070090018000006REP       President LAVACA COUNTYWIDE                             Uncommitted (No Comprometido)         Precinct 31                                            01 
01070090019000000REP       President LAVACA COUNTYWIDE                             Uncommitted (No Comprometido)         Precinct 32                                            01 
01070100001000000REP       President LAVACA COUNTYWIDE                             OVER VOTES                            Precinct 1                                             01 
01070100002000000REP       President LAVACA COUNTYWIDE                             OVER VOTES                            Precinct 2                                             01 
01070100003000000REP       President LAVACA COUNTYWIDE                             OVER VOTES                            Precinct 7                                             01 
01070100004000000REP       President LAVACA COUNTYWIDE                             OVER VOTES                            Precinct 8                                             01 
01070100005000000REP       President LAVACA COUNTYWIDE                             OVER VOTES                            Precinct 9                                             01 
01070100006000000REP       President LAVACA COUNTYWIDE                             OVER VOTES                            Precinct 11                                            01 
01070100007000000REP       President LAVACA COUNTYWIDE                             OVER VOTES                            Precinct 12                                            01 
01070100008000000REP       President LAVACA COUNTYWIDE                             OVER VOTES                            Precinct 15                                            01 
01070100009000000REP       President LAVACA COUNTYWIDE                             OVER VOTES                            Precinct 16                                            01 
01070100010000002REP       President LAVACA COUNTYWIDE                             OVER VOTES                            Precinct 17                                            01 
01070100011000000REP       President LAVACA COUNTYWIDE                             OVER VOTES                            Precinct 19                                            01 
01070100012000000REP       President LAVACA COUNTYWIDE                             OVER VOTES                            Precinct 20                                            01 
01070100013000000REP       President LAVACA COUNTYWIDE                             OVER VOTES                            Precinct 23                                            01 
01070100014000000REP       President LAVACA COUNTYWIDE                             OVER VOTES                            Precinct 26                                            01 
01070100015000000REP       President LAVACA COUNTYWIDE                             OVER VOTES                            Precinct 27                                            01 
01070100016000000REP       President LAVACA COUNTYWIDE                             OVER VOTES                            Precinct 29                                            01 
01070100017000000REP       President LAVACA COUNTYWIDE                             OVER VOTES                            Precinct 30                                            01 
01070100018000000REP       President LAVACA COUNTYWIDE                             OVER VOTES                            Precinct 31                                            01 
01070100019000000REP       President LAVACA COUNTYWIDE                             OVER VOTES                            Precinct 32                                            01 
01070110001000006REP       President LAVACA COUNTYWIDE                             UNDER VOTES                           Precinct 1                                             01 
01070110002000004REP       President LAVACA COUNTYWIDE                             UNDER VOTES                           Precinct 2                                             01 
01070110003000001REP       President LAVACA COUNTYWIDE                             UNDER VOTES                           Precinct 7                                             01 
01070110004000001REP       President LAVACA COUNTYWIDE                             UNDER VOTES                           Precinct 8                                             01 
01070110005000006REP       President LAVACA COUNTYWIDE                             UNDER VOTES                           Precinct 9                                             01 
01070110006000000REP       President LAVACA COUNTYWIDE                             UNDER VOTES                           Precinct 11                                            01 
01070110007000003REP       President LAVACA COUNTYWIDE                             UNDER VOTES                           Precinct 12                                            01 
01070110008000001REP       President LAVACA COUNTYWIDE                             UNDER VOTES                           Precinct 15                                            01 
01070110009000001REP       President LAVACA COUNTYWIDE                             UNDER VOTES                           Precinct 16                                            01 
01070110010000000REP       President LAVACA COUNTYWIDE                             UNDER VOTES                           Precinct 17                                            01 
01070110011000001REP       President LAVACA COUNTYWIDE                             UNDER VOTES                           Precinct 19                                            01 
01070110012000000REP       President LAVACA COUNTYWIDE                             UNDER VOTES                           Precinct 20                                            01 
01070110013000023REP       President LAVACA COUNTYWIDE                             UNDER VOTES                           Precinct 23                                            01 
01070110014000001REP       President LAVACA COUNTYWIDE                             UNDER VOTES                           Precinct 26                                            01 
01070110015000000REP       President LAVACA COUNTYWIDE                             UNDER VOTES                           Precinct 27                                            01 
01070110016000002REP       President LAVACA COUNTYWIDE                             UNDER VOTES                           Precinct 29                                            01 
01070110017000001REP       President LAVACA COUNTYWIDE                             UNDER VOTES                           Precinct 30                                            01 
01070110018000009REP       President LAVACA COUNTYWIDE                             UNDER VOTES                           Precinct 31                                            01 
01070110019000000REP       President LAVACA COUNTYWIDE                             UNDER VOTES                           Precinct 32                                            01 
01080010001000051REP       United States Senator LAVACA COUNTYWIDE                 Ted Cruz                              Precinct 1                                             01 
01080010002000072REP       United States Senator LAVACA COUNTYWIDE                 Ted Cruz                              Precinct 2                                             01 
01080010003000014REP       United States Senator LAVACA COUNTYWIDE                 Ted Cruz                              Precinct 7                                             01 
01080010004000055REP       United States Senator LAVACA COUNTYWIDE                 Ted Cruz                              Precinct 8                                             01 
01080010005000062REP       United States Senator LAVACA COUNTYWIDE                 Ted Cruz                              Precinct 9                                             01 
01080010006000025REP       United States Senator LAVACA COUNTYWIDE                 Ted Cruz                              Precinct 11                                            01 
01080010007000023REP       United States Senator LAVACA COUNTYWIDE                 Ted Cruz                              Precinct 12                                            01 
01080010008000012REP       United States Senator LAVACA COUNTYWIDE                 Ted Cruz                              Precinct 15                                            01 
01080010009000019REP       United States Senator LAVACA COUNTYWIDE                 Ted Cruz                              Precinct 16                                            01 
01080010010000027REP       United States Senator LAVACA COUNTYWIDE                 Ted Cruz                              Precinct 17                                            01 
01080010011000010REP       United States Senator LAVACA COUNTYWIDE                 Ted Cruz                              Precinct 19                                            01 
01080010012000010REP       United States Senator LAVACA COUNTYWIDE                 Ted Cruz                              Precinct 20                                            01 
01080010013000085REP       United States Senator LAVACA COUNTYWIDE                 Ted Cruz                              Precinct 23                                            01 
01080010014000010REP       United States Senator LAVACA COUNTYWIDE                 Ted Cruz                              Precinct 26                                            01 
01080010015000010REP       United States Senator LAVACA COUNTYWIDE                 Ted Cruz                              Precinct 27                                            01 
01080010016000049REP       United States Senator LAVACA COUNTYWIDE                 Ted Cruz                              Precinct 29                                            01 
01080010017000076REP       United States Senator LAVACA COUNTYWIDE                 Ted Cruz                              Precinct 30                                            01 
01080010018000061REP       United States Senator LAVACA COUNTYWIDE                 Ted Cruz                              Precinct 31                                            01 
01080010019000022REP       United States Senator LAVACA COUNTYWIDE                 Ted Cruz                              Precinct 32                                            01 
01080020001000000REP       United States Senator LAVACA COUNTYWIDE                 Joe Agris                             Precinct 1                                             01 
01080020002000000REP       United States Senator LAVACA COUNTYWIDE                 Joe Agris                             Precinct 2                                             01 
01080020003000000REP       United States Senator LAVACA COUNTYWIDE                 Joe Agris                             Precinct 7                                             01 
01080020004000001REP       United States Senator LAVACA COUNTYWIDE                 Joe Agris                             Precinct 8                                             01 
01080020005000001REP       United States Senator LAVACA COUNTYWIDE                 Joe Agris                             Precinct 9                                             01 
01080020006000000REP       United States Senator LAVACA COUNTYWIDE                 Joe Agris                             Precinct 11                                            01 
01080020007000000REP       United States Senator LAVACA COUNTYWIDE                 Joe Agris                             Precinct 12                                            01 
01080020008000000REP       United States Senator LAVACA COUNTYWIDE                 Joe Agris                             Precinct 15                                            01 
01080020009000000REP       United States Senator LAVACA COUNTYWIDE                 Joe Agris                             Precinct 16                                            01 
01080020010000000REP       United States Senator LAVACA COUNTYWIDE                 Joe Agris                             Precinct 17                                            01 
01080020011000000REP       United States Senator LAVACA COUNTYWIDE                 Joe Agris                             Precinct 19                                            01 
01080020012000000REP       United States Senator LAVACA COUNTYWIDE                 Joe Agris                             Precinct 20                                            01 
01080020013000002REP       United States Senator LAVACA COUNTYWIDE                 Joe Agris                             Precinct 23                                            01 
01080020014000000REP       United States Senator LAVACA COUNTYWIDE                 Joe Agris                             Precinct 26                                            01 
01080020015000000REP       United States Senator LAVACA COUNTYWIDE                 Joe Agris                             Precinct 27                                            01 
01080020016000001REP       United States Senator LAVACA COUNTYWIDE                 Joe Agris                             Precinct 29                                            01 
01080020017000001REP       United States Senator LAVACA COUNTYWIDE                 Joe Agris                             Precinct 30                                            01 
01080020018000000REP       United States Senator LAVACA COUNTYWIDE                 Joe Agris                             Precinct 31                                            01 
01080020019000000REP       United States Senator LAVACA COUNTYWIDE                 Joe Agris                             Precinct 32                                            01 
01080030001000001REP       United States Senator LAVACA COUNTYWIDE                 Curt Cleaver                          Precinct 1                                             01 
01080030002000001REP       United States Senator LAVACA COUNTYWIDE                 Curt Cleaver                          Precinct 2                                             01 
01080030003000000REP       United States Senator LAVACA COUNTYWIDE                 Curt Cleaver                          Precinct 7                                             01 
01080030004000000REP       United States Senator LAVACA COUNTYWIDE                 Curt Cleaver                          Precinct 8                                             01 
01080030005000001REP       United States Senator LAVACA COUNTYWIDE                 Curt Cleaver                          Precinct 9                                             01 
01080030006000000REP       United States Senator LAVACA COUNTYWIDE                 Curt Cleaver                          Precinct 11                                            01 
01080030007000000REP       United States Senator LAVACA COUNTYWIDE                 Curt Cleaver                          Precinct 12                                            01 
01080030008000000REP       United States Senator LAVACA COUNTYWIDE                 Curt Cleaver                          Precinct 15                                            01 
01080030009000000REP       United States Senator LAVACA COUNTYWIDE                 Curt Cleaver                          Precinct 16                                            01 
01080030010000000REP       United States Senator LAVACA COUNTYWIDE                 Curt Cleaver                          Precinct 17                                            01 
01080030011000000REP       United States Senator LAVACA COUNTYWIDE                 Curt Cleaver                          Precinct 19                                            01 
01080030012000000REP       United States Senator LAVACA COUNTYWIDE                 Curt Cleaver                          Precinct 20                                            01 
01080030013000002REP       United States Senator LAVACA COUNTYWIDE                 Curt Cleaver                          Precinct 23                                            01 
01080030014000000REP       United States Senator LAVACA COUNTYWIDE                 Curt Cleaver                          Precinct 26                                            01 
01080030015000001REP       United States Senator LAVACA COUNTYWIDE                 Curt Cleaver                          Precinct 27                                            01 
01080030016000002REP       United States Senator LAVACA COUNTYWIDE                 Curt Cleaver                          Precinct 29                                            01 
01080030017000002REP       United States Senator LAVACA COUNTYWIDE                 Curt Cleaver                          Precinct 30                                            01 
01080030018000001REP       United States Senator LAVACA COUNTYWIDE                 Curt Cleaver                          Precinct 31                                            01 
01080030019000000REP       United States Senator LAVACA COUNTYWIDE                 Curt Cleaver                          Precinct 32                                            01 
01080040001000002REP       United States Senator LAVACA COUNTYWIDE                 Lela Pittenger                        Precinct 1                                             01 
01080040002000002REP       United States Senator LAVACA COUNTYWIDE                 Lela Pittenger                        Precinct 2                                             01 
01080040003000000REP       United States Senator LAVACA COUNTYWIDE                 Lela Pittenger                        Precinct 7                                             01 
01080040004000000REP       United States Senator LAVACA COUNTYWIDE                 Lela Pittenger                        Precinct 8                                             01 
01080040005000004REP       United States Senator LAVACA COUNTYWIDE                 Lela Pittenger                        Precinct 9                                             01 
01080040006000001REP       United States Senator LAVACA COUNTYWIDE                 Lela Pittenger                        Precinct 11                                            01 
01080040007000000REP       United States Senator LAVACA COUNTYWIDE                 Lela Pittenger                        Precinct 12                                            01 
01080040008000000REP       United States Senator LAVACA COUNTYWIDE                 Lela Pittenger                        Precinct 15                                            01 
01080040009000002REP       United States Senator LAVACA COUNTYWIDE                 Lela Pittenger                        Precinct 16                                            01 
01080040010000000REP       United States Senator LAVACA COUNTYWIDE                 Lela Pittenger                        Precinct 17                                            01 
01080040011000001REP       United States Senator LAVACA COUNTYWIDE                 Lela Pittenger                        Precinct 19                                            01 
01080040012000002REP       United States Senator LAVACA COUNTYWIDE                 Lela Pittenger                        Precinct 20                                            01 
01080040013000002REP       United States Senator LAVACA COUNTYWIDE                 Lela Pittenger                        Precinct 23                                            01 
01080040014000000REP       United States Senator LAVACA COUNTYWIDE                 Lela Pittenger                        Precinct 26                                            01 
01080040015000001REP       United States Senator LAVACA COUNTYWIDE                 Lela Pittenger                        Precinct 27                                            01 
01080040016000011REP       United States Senator LAVACA COUNTYWIDE                 Lela Pittenger                        Precinct 29                                            01 
01080040017000004REP       United States Senator LAVACA COUNTYWIDE                 Lela Pittenger                        Precinct 30                                            01 
01080040018000007REP       United States Senator LAVACA COUNTYWIDE                 Lela Pittenger                        Precinct 31                                            01 
01080040019000001REP       United States Senator LAVACA COUNTYWIDE                 Lela Pittenger                        Precinct 32                                            01 
01080050001000005REP       United States Senator LAVACA COUNTYWIDE                 Craig James                           Precinct 1                                             01 
01080050002000003REP       United States Senator LAVACA COUNTYWIDE                 Craig James                           Precinct 2                                             01 
01080050003000002REP       United States Senator LAVACA COUNTYWIDE                 Craig James                           Precinct 7                                             01 
01080050004000001REP       United States Senator LAVACA COUNTYWIDE                 Craig James                           Precinct 8                                             01 
01080050005000003REP       United States Senator LAVACA COUNTYWIDE                 Craig James                           Precinct 9                                             01 
01080050006000000REP       United States Senator LAVACA COUNTYWIDE                 Craig James                           Precinct 11                                            01 
01080050007000005REP       United States Senator LAVACA COUNTYWIDE                 Craig James                           Precinct 12                                            01 
01080050008000001REP       United States Senator LAVACA COUNTYWIDE                 Craig James                           Precinct 15                                            01 
01080050009000001REP       United States Senator LAVACA COUNTYWIDE                 Craig James                           Precinct 16                                            01 
01080050010000002REP       United States Senator LAVACA COUNTYWIDE                 Craig James                           Precinct 17                                            01 
01080050011000002REP       United States Senator LAVACA COUNTYWIDE                 Craig James                           Precinct 19                                            01 
01080050012000002REP       United States Senator LAVACA COUNTYWIDE                 Craig James                           Precinct 20                                            01 
01080050013000006REP       United States Senator LAVACA COUNTYWIDE                 Craig James                           Precinct 23                                            01 
01080050014000000REP       United States Senator LAVACA COUNTYWIDE                 Craig James                           Precinct 26                                            01 
01080050015000001REP       United States Senator LAVACA COUNTYWIDE                 Craig James                           Precinct 27                                            01 
01080050016000003REP       United States Senator LAVACA COUNTYWIDE                 Craig James                           Precinct 29                                            01 
01080050017000005REP       United States Senator LAVACA COUNTYWIDE                 Craig James                           Precinct 30                                            01 
01080050018000005REP       United States Senator LAVACA COUNTYWIDE                 Craig James                           Precinct 31                                            01 
01080050019000001REP       United States Senator LAVACA COUNTYWIDE                 Craig James                           Precinct 32                                            01 
01080060001000084REP       United States Senator LAVACA COUNTYWIDE                 David Dewhurst                        Precinct 1                                             01 
01080060002000105REP       United States Senator LAVACA COUNTYWIDE                 David Dewhurst                        Precinct 2                                             01 
01080060003000023REP       United States Senator LAVACA COUNTYWIDE                 David Dewhurst                        Precinct 7                                             01 
01080060004000078REP       United States Senator LAVACA COUNTYWIDE                 David Dewhurst                        Precinct 8                                             01 
01080060005000068REP       United States Senator LAVACA COUNTYWIDE                 David Dewhurst                        Precinct 9                                             01 
01080060006000026REP       United States Senator LAVACA COUNTYWIDE                 David Dewhurst                        Precinct 11                                            01 
01080060007000022REP       United States Senator LAVACA COUNTYWIDE                 David Dewhurst                        Precinct 12                                            01 
01080060008000012REP       United States Senator LAVACA COUNTYWIDE                 David Dewhurst                        Precinct 15                                            01 
01080060009000032REP       United States Senator LAVACA COUNTYWIDE                 David Dewhurst                        Precinct 16                                            01 
01080060010000028REP       United States Senator LAVACA COUNTYWIDE                 David Dewhurst                        Precinct 17                                            01 
01080060011000036REP       United States Senator LAVACA COUNTYWIDE                 David Dewhurst                        Precinct 19                                            01 
01080060012000004REP       United States Senator LAVACA COUNTYWIDE                 David Dewhurst                        Precinct 20                                            01 
01080060013000127REP       United States Senator LAVACA COUNTYWIDE                 David Dewhurst                        Precinct 23                                            01 
01080060014000006REP       United States Senator LAVACA COUNTYWIDE                 David Dewhurst                        Precinct 26                                            01 
01080060015000026REP       United States Senator LAVACA COUNTYWIDE                 David Dewhurst                        Precinct 27                                            01 
01080060016000070REP       United States Senator LAVACA COUNTYWIDE                 David Dewhurst                        Precinct 29                                            01 
01080060017000133REP       United States Senator LAVACA COUNTYWIDE                 David Dewhurst                        Precinct 30                                            01 
01080060018000131REP       United States Senator LAVACA COUNTYWIDE                 David Dewhurst                        Precinct 31                                            01 
01080060019000031REP       United States Senator LAVACA COUNTYWIDE                 David Dewhurst                        Precinct 32                                            01 
01080070001000002REP       United States Senator LAVACA COUNTYWIDE                 Glenn Addison                         Precinct 1                                             01 
01080070002000001REP       United States Senator LAVACA COUNTYWIDE                 Glenn Addison                         Precinct 2                                             01 
01080070003000000REP       United States Senator LAVACA COUNTYWIDE                 Glenn Addison                         Precinct 7                                             01 
01080070004000000REP       United States Senator LAVACA COUNTYWIDE                 Glenn Addison                         Precinct 8                                             01 
01080070005000002REP       United States Senator LAVACA COUNTYWIDE                 Glenn Addison                         Precinct 9                                             01 
01080070006000001REP       United States Senator LAVACA COUNTYWIDE                 Glenn Addison                         Precinct 11                                            01 
01080070007000000REP       United States Senator LAVACA COUNTYWIDE                 Glenn Addison                         Precinct 12                                            01 
01080070008000000REP       United States Senator LAVACA COUNTYWIDE                 Glenn Addison                         Precinct 15                                            01 
01080070009000001REP       United States Senator LAVACA COUNTYWIDE                 Glenn Addison                         Precinct 16                                            01 
01080070010000000REP       United States Senator LAVACA COUNTYWIDE                 Glenn Addison                         Precinct 17                                            01 
01080070011000000REP       United States Senator LAVACA COUNTYWIDE                 Glenn Addison                         Precinct 19                                            01 
01080070012000000REP       United States Senator LAVACA COUNTYWIDE                 Glenn Addison                         Precinct 20                                            01 
01080070013000001REP       United States Senator LAVACA COUNTYWIDE                 Glenn Addison                         Precinct 23                                            01 
01080070014000000REP       United States Senator LAVACA COUNTYWIDE                 Glenn Addison                         Precinct 26                                            01 
01080070015000001REP       United States Senator LAVACA COUNTYWIDE                 Glenn Addison                         Precinct 27                                            01 
01080070016000001REP       United States Senator LAVACA COUNTYWIDE                 Glenn Addison                         Precinct 29                                            01 
01080070017000001REP       United States Senator LAVACA COUNTYWIDE                 Glenn Addison                         Precinct 30                                            01 
01080070018000003REP       United States Senator LAVACA COUNTYWIDE                 Glenn Addison                         Precinct 31                                            01 
01080070019000001REP       United States Senator LAVACA COUNTYWIDE                 Glenn Addison                         Precinct 32                                            01 
01080080001000001REP       United States Senator LAVACA COUNTYWIDE                 Ben Gambini                           Precinct 1                                             01 
01080080002000000REP       United States Senator LAVACA COUNTYWIDE                 Ben Gambini                           Precinct 2                                             01 
01080080003000000REP       United States Senator LAVACA COUNTYWIDE                 Ben Gambini                           Precinct 7                                             01 
01080080004000004REP       United States Senator LAVACA COUNTYWIDE                 Ben Gambini                           Precinct 8                                             01 
01080080005000000REP       United States Senator LAVACA COUNTYWIDE                 Ben Gambini                           Precinct 9                                             01 
01080080006000000REP       United States Senator LAVACA COUNTYWIDE                 Ben Gambini                           Precinct 11                                            01 
01080080007000002REP       United States Senator LAVACA COUNTYWIDE                 Ben Gambini                           Precinct 12                                            01 
01080080008000000REP       United States Senator LAVACA COUNTYWIDE                 Ben Gambini                           Precinct 15                                            01 
01080080009000000REP       United States Senator LAVACA COUNTYWIDE                 Ben Gambini                           Precinct 16                                            01 
01080080010000000REP       United States Senator LAVACA COUNTYWIDE                 Ben Gambini                           Precinct 17                                            01 
01080080011000000REP       United States Senator LAVACA COUNTYWIDE                 Ben Gambini                           Precinct 19                                            01 
01080080012000001REP       United States Senator LAVACA COUNTYWIDE                 Ben Gambini                           Precinct 20                                            01 
01080080013000001REP       United States Senator LAVACA COUNTYWIDE                 Ben Gambini                           Precinct 23                                            01 
01080080014000000REP       United States Senator LAVACA COUNTYWIDE                 Ben Gambini                           Precinct 26                                            01 
01080080015000001REP       United States Senator LAVACA COUNTYWIDE                 Ben Gambini                           Precinct 27                                            01 
01080080016000000REP       United States Senator LAVACA COUNTYWIDE                 Ben Gambini                           Precinct 29                                            01 
01080080017000001REP       United States Senator LAVACA COUNTYWIDE                 Ben Gambini                           Precinct 30                                            01 
01080080018000002REP       United States Senator LAVACA COUNTYWIDE                 Ben Gambini                           Precinct 31                                            01 
01080080019000000REP       United States Senator LAVACA COUNTYWIDE                 Ben Gambini                           Precinct 32                                            01 
01080090001000014REP       United States Senator LAVACA COUNTYWIDE                 Tom Leppert                           Precinct 1                                             01 
01080090002000016REP       United States Senator LAVACA COUNTYWIDE                 Tom Leppert                           Precinct 2                                             01 
01080090003000003REP       United States Senator LAVACA COUNTYWIDE                 Tom Leppert                           Precinct 7                                             01 
01080090004000009REP       United States Senator LAVACA COUNTYWIDE                 Tom Leppert                           Precinct 8                                             01 
01080090005000007REP       United States Senator LAVACA COUNTYWIDE                 Tom Leppert                           Precinct 9                                             01 
01080090006000003REP       United States Senator LAVACA COUNTYWIDE                 Tom Leppert                           Precinct 11                                            01 
01080090007000005REP       United States Senator LAVACA COUNTYWIDE                 Tom Leppert                           Precinct 12                                            01 
01080090008000005REP       United States Senator LAVACA COUNTYWIDE                 Tom Leppert                           Precinct 15                                            01 
01080090009000004REP       United States Senator LAVACA COUNTYWIDE                 Tom Leppert                           Precinct 16                                            01 
01080090010000003REP       United States Senator LAVACA COUNTYWIDE                 Tom Leppert                           Precinct 17                                            01 
01080090011000013REP       United States Senator LAVACA COUNTYWIDE                 Tom Leppert                           Precinct 19                                            01 
01080090012000002REP       United States Senator LAVACA COUNTYWIDE                 Tom Leppert                           Precinct 20                                            01 
01080090013000021REP       United States Senator LAVACA COUNTYWIDE                 Tom Leppert                           Precinct 23                                            01 
01080090014000001REP       United States Senator LAVACA COUNTYWIDE                 Tom Leppert                           Precinct 26                                            01 
01080090015000000REP       United States Senator LAVACA COUNTYWIDE                 Tom Leppert                           Precinct 27                                            01 
01080090016000008REP       United States Senator LAVACA COUNTYWIDE                 Tom Leppert                           Precinct 29                                            01 
01080090017000015REP       United States Senator LAVACA COUNTYWIDE                 Tom Leppert                           Precinct 30                                            01 
01080090018000016REP       United States Senator LAVACA COUNTYWIDE                 Tom Leppert                           Precinct 31                                            01 
01080090019000002REP       United States Senator LAVACA COUNTYWIDE                 Tom Leppert                           Precinct 32                                            01 
01080100001000000REP       United States Senator LAVACA COUNTYWIDE                 OVER VOTES                            Precinct 1                                             01 
01080100002000000REP       United States Senator LAVACA COUNTYWIDE                 OVER VOTES                            Precinct 2                                             01 
01080100003000000REP       United States Senator LAVACA COUNTYWIDE                 OVER VOTES                            Precinct 7                                             01 
01080100004000000REP       United States Senator LAVACA COUNTYWIDE                 OVER VOTES                            Precinct 8                                             01 
01080100005000000REP       United States Senator LAVACA COUNTYWIDE                 OVER VOTES                            Precinct 9                                             01 
01080100006000000REP       United States Senator LAVACA COUNTYWIDE                 OVER VOTES                            Precinct 11                                            01 
01080100007000000REP       United States Senator LAVACA COUNTYWIDE                 OVER VOTES                            Precinct 12                                            01 
01080100008000000REP       United States Senator LAVACA COUNTYWIDE                 OVER VOTES                            Precinct 15                                            01 
01080100009000000REP       United States Senator LAVACA COUNTYWIDE                 OVER VOTES                            Precinct 16                                            01 
01080100010000001REP       United States Senator LAVACA COUNTYWIDE                 OVER VOTES                            Precinct 17                                            01 
01080100011000000REP       United States Senator LAVACA COUNTYWIDE                 OVER VOTES                            Precinct 19                                            01 
01080100012000000REP       United States Senator LAVACA COUNTYWIDE                 OVER VOTES                            Precinct 20                                            01 
01080100013000000REP       United States Senator LAVACA COUNTYWIDE                 OVER VOTES                            Precinct 23                                            01 
01080100014000000REP       United States Senator LAVACA COUNTYWIDE                 OVER VOTES                            Precinct 26                                            01 
01080100015000000REP       United States Senator LAVACA COUNTYWIDE                 OVER VOTES                            Precinct 27                                            01 
01080100016000000REP       United States Senator LAVACA COUNTYWIDE                 OVER VOTES                            Precinct 29                                            01 
01080100017000000REP       United States Senator LAVACA COUNTYWIDE                 OVER VOTES                            Precinct 30                                            01 
01080100018000000REP       United States Senator LAVACA COUNTYWIDE                 OVER VOTES                            Precinct 31                                            01 
01080100019000000REP       United States Senator LAVACA COUNTYWIDE                 OVER VOTES                            Precinct 32                                            01 
01080110001000011REP       United States Senator LAVACA COUNTYWIDE                 UNDER VOTES                           Precinct 1                                             01 
01080110002000009REP       United States Senator LAVACA COUNTYWIDE                 UNDER VOTES                           Precinct 2                                             01 
01080110003000002REP       United States Senator LAVACA COUNTYWIDE                 UNDER VOTES                           Precinct 7                                             01 
01080110004000011REP       United States Senator LAVACA COUNTYWIDE                 UNDER VOTES                           Precinct 8                                             01 
01080110005000009REP       United States Senator LAVACA COUNTYWIDE                 UNDER VOTES                           Precinct 9                                             01 
01080110006000001REP       United States Senator LAVACA COUNTYWIDE                 UNDER VOTES                           Precinct 11                                            01 
01080110007000003REP       United States Senator LAVACA COUNTYWIDE                 UNDER VOTES                           Precinct 12                                            01 
01080110008000001REP       United States Senator LAVACA COUNTYWIDE                 UNDER VOTES                           Precinct 15                                            01 
01080110009000003REP       United States Senator LAVACA COUNTYWIDE                 UNDER VOTES                           Precinct 16                                            01 
01080110010000003REP       United States Senator LAVACA COUNTYWIDE                 UNDER VOTES                           Precinct 17                                            01 
01080110011000005REP       United States Senator LAVACA COUNTYWIDE                 UNDER VOTES                           Precinct 19                                            01 
01080110012000000REP       United States Senator LAVACA COUNTYWIDE                 UNDER VOTES                           Precinct 20                                            01 
01080110013000036REP       United States Senator LAVACA COUNTYWIDE                 UNDER VOTES                           Precinct 23                                            01 
01080110014000000REP       United States Senator LAVACA COUNTYWIDE                 UNDER VOTES                           Precinct 26                                            01 
01080110015000001REP       United States Senator LAVACA COUNTYWIDE                 UNDER VOTES                           Precinct 27                                            01 
01080110016000003REP       United States Senator LAVACA COUNTYWIDE                 UNDER VOTES                           Precinct 29                                            01 
01080110017000010REP       United States Senator LAVACA COUNTYWIDE                 UNDER VOTES                           Precinct 30                                            01 
01080110018000020REP       United States Senator LAVACA COUNTYWIDE                 UNDER VOTES                           Precinct 31                                            01 
01080110019000000REP       United States Senator LAVACA COUNTYWIDE                 UNDER VOTES                           Precinct 32                                            01 
01090010001000025REP       US Representative, District 27 LAVACA COUNTYWIDE        Trey Roberts                          Precinct 1                                             01 
01090010002000035REP       US Representative, District 27 LAVACA COUNTYWIDE        Trey Roberts                          Precinct 2                                             01 
01090010003000011REP       US Representative, District 27 LAVACA COUNTYWIDE        Trey Roberts                          Precinct 7                                             01 
01090010004000029REP       US Representative, District 27 LAVACA COUNTYWIDE        Trey Roberts                          Precinct 8                                             01 
01090010005000038REP       US Representative, District 27 LAVACA COUNTYWIDE        Trey Roberts                          Precinct 9                                             01 
01090010006000012REP       US Representative, District 27 LAVACA COUNTYWIDE        Trey Roberts                          Precinct 11                                            01 
01090010007000018REP       US Representative, District 27 LAVACA COUNTYWIDE        Trey Roberts                          Precinct 12                                            01 
01090010008000002REP       US Representative, District 27 LAVACA COUNTYWIDE        Trey Roberts                          Precinct 15                                            01 
01090010009000013REP       US Representative, District 27 LAVACA COUNTYWIDE        Trey Roberts                          Precinct 16                                            01 
01090010010000004REP       US Representative, District 27 LAVACA COUNTYWIDE        Trey Roberts                          Precinct 17                                            01 
01090010011000016REP       US Representative, District 27 LAVACA COUNTYWIDE        Trey Roberts                          Precinct 19                                            01 
01090010012000004REP       US Representative, District 27 LAVACA COUNTYWIDE        Trey Roberts                          Precinct 20                                            01 
01090010013000042REP       US Representative, District 27 LAVACA COUNTYWIDE        Trey Roberts                          Precinct 23                                            01 
01090010014000003REP       US Representative, District 27 LAVACA COUNTYWIDE        Trey Roberts                          Precinct 26                                            01 
01090010015000005REP       US Representative, District 27 LAVACA COUNTYWIDE        Trey Roberts                          Precinct 27                                            01 
01090010016000033REP       US Representative, District 27 LAVACA COUNTYWIDE        Trey Roberts                          Precinct 29                                            01 
01090010017000034REP       US Representative, District 27 LAVACA COUNTYWIDE        Trey Roberts                          Precinct 30                                            01 
01090010018000038REP       US Representative, District 27 LAVACA COUNTYWIDE        Trey Roberts                          Precinct 31                                            01 
01090010019000010REP       US Representative, District 27 LAVACA COUNTYWIDE        Trey Roberts                          Precinct 32                                            01 
01090020001000013REP       US Representative, District 27 LAVACA COUNTYWIDE        Don Al Middlebrook                    Precinct 1                                             01 
