01190012061000008NONLEONVALCity of Leon Valley Mayor                               Robert Stanley Litoff                                                                        01 
01190012112000043NONLEONVALCity of Leon Valley Mayor                               Robert Stanley Litoff                                                                        01 
01190012143000032NONLEONVALCity of Leon Valley Mayor                               Robert Stanley Litoff                                                                        01 
01190012151000000NONLEONVALCity of Leon Valley Mayor                               Robert Stanley Litoff                                                                        01 
01190013002000043NONLEONVALCity of Leon Valley Mayor                               Robert Stanley Litoff                                                                        01 
01190013003000005NONLEONVALCity of Leon Valley Mayor                               Robert Stanley Litoff                                                                        01 
01190022061000041NONLEONVALCity of Leon Valley Mayor                               Chris Riley                                                                                  01 
01190022112000046NONLEONVALCity of Leon Valley Mayor                               Chris Riley                                                                                  01 
01190022143000129NONLEONVALCity of Leon Valley Mayor                               Chris Riley                                                                                  01 
01190022151000000NONLEONVALCity of Leon Valley Mayor                               Chris Riley                                                                                  01 
01190023002000194NONLEONVALCity of Leon Valley Mayor                               Chris Riley                                                                                  01 
01190023003000002NONLEONVALCity of Leon Valley Mayor                               Chris Riley                                                                                  01 
01190032061000000   LEONVALCity of Leon Valley Mayor                               OVER VOTES                                                                                   01 
01190032112000000   LEONVALCity of Leon Valley Mayor                               OVER VOTES                                                                                   01 
01190032143000000   LEONVALCity of Leon Valley Mayor                               OVER VOTES                                                                                   01 
01190032151000000   LEONVALCity of Leon Valley Mayor                               OVER VOTES                                                                                   01 
01190033002000000   LEONVALCity of Leon Valley Mayor                               OVER VOTES                                                                                   01 
01190033003000000   LEONVALCity of Leon Valley Mayor                               OVER VOTES                                                                                   01 
01190042061000003   LEONVALCity of Leon Valley Mayor                               UNDER VOTES                                                                                  01 
01190042112000005   LEONVALCity of Leon Valley Mayor                               UNDER VOTES                                                                                  01 
01190042143000007   LEONVALCity of Leon Valley Mayor                               UNDER VOTES                                                                                  01 
01190042151000000   LEONVALCity of Leon Valley Mayor                               UNDER VOTES                                                                                  01 
01190043002000005   LEONVALCity of Leon Valley Mayor                               UNDER VOTES                                                                                  01 
01190043003000000   LEONVALCity of Leon Valley Mayor                               UNDER VOTES                                                                                  01 
01200012061000036NONLEONVALCity of Leon Valley Council, Place No. 2                Arthur "Art" Reyna, Jr.                                                                      01 
01200012112000053NONLEONVALCity of Leon Valley Council, Place No. 2                Arthur "Art" Reyna, Jr.                                                                      01 
01200012143000137NONLEONVALCity of Leon Valley Council, Place No. 2                Arthur "Art" Reyna, Jr.                                                                      01 
01200012151000000NONLEONVALCity of Leon Valley Council, Place No. 2                Arthur "Art" Reyna, Jr.                                                                      01 
01200013002000167NONLEONVALCity of Leon Valley Council, Place No. 2                Arthur "Art" Reyna, Jr.                                                                      01 
01200013003000003NONLEONVALCity of Leon Valley Council, Place No. 2                Arthur "Art" Reyna, Jr.                                                                      01 
01200022061000000   LEONVALCity of Leon Valley Council, Place No. 2                OVER VOTES                                                                                   01 
01200022112000000   LEONVALCity of Leon Valley Council, Place No. 2                OVER VOTES                                                                                   01 
01200022143000000   LEONVALCity of Leon Valley Council, Place No. 2                OVER VOTES                                                                                   01 
01200022151000000   LEONVALCity of Leon Valley Council, Place No. 2                OVER VOTES                                                                                   01 
01200023002000000   LEONVALCity of Leon Valley Council, Place No. 2                OVER VOTES                                                                                   01 
01200023003000000   LEONVALCity of Leon Valley Council, Place No. 2                OVER VOTES                                                                                   01 
01200032061000016   LEONVALCity of Leon Valley Council, Place No. 2                UNDER VOTES                                                                                  01 
01200032112000041   LEONVALCity of Leon Valley Council, Place No. 2                UNDER VOTES                                                                                  01 
01200032143000031   LEONVALCity of Leon Valley Council, Place No. 2                UNDER VOTES                                                                                  01 
01200032151000000   LEONVALCity of Leon Valley Council, Place No. 2                UNDER VOTES                                                                                  01 
01200033002000075   LEONVALCity of Leon Valley Council, Place No. 2                UNDER VOTES                                                                                  01 
01200033003000004   LEONVALCity of Leon Valley Council, Place No. 2                UNDER VOTES                                                                                  01 
01210012061000029NONLEONVALCity of Leon Valley JOINT-LEON VALLEY                   Jack Dean                                                                                    01 
01210012112000045NONLEONVALCity of Leon Valley JOINT-LEON VALLEY                   Jack Dean                                                                                    01 
01210012143000089NONLEONVALCity of Leon Valley JOINT-LEON VALLEY                   Jack Dean                                                                                    01 
01210012151000000NONLEONVALCity of Leon Valley JOINT-LEON VALLEY                   Jack Dean                                                                                    01 
01210013002000140NONLEONVALCity of Leon Valley JOINT-LEON VALLEY                   Jack Dean                                                                                    01 
01210013003000002NONLEONVALCity of Leon Valley JOINT-LEON VALLEY                   Jack Dean                                                                                    01 
01210022061000023NONLEONVALCity of Leon Valley JOINT-LEON VALLEY                   Al Baldridge                                                                                 01 
01210022112000044NONLEONVALCity of Leon Valley JOINT-LEON VALLEY                   Al Baldridge                                                                                 01 
01210022143000073NONLEONVALCity of Leon Valley JOINT-LEON VALLEY                   Al Baldridge                                                                                 01 
01210022151000000NONLEONVALCity of Leon Valley JOINT-LEON VALLEY                   Al Baldridge                                                                                 01 
01210023002000091NONLEONVALCity of Leon Valley JOINT-LEON VALLEY                   Al Baldridge                                                                                 01 
01210023003000005NONLEONVALCity of Leon Valley JOINT-LEON VALLEY                   Al Baldridge                                                                                 01 
01210032061000000   LEONVALCity of Leon Valley JOINT-LEON VALLEY                   OVER VOTES                                                                                   01 
01210032112000000   LEONVALCity of Leon Valley JOINT-LEON VALLEY                   OVER VOTES                                                                                   01 
01210032143000000   LEONVALCity of Leon Valley JOINT-LEON VALLEY                   OVER VOTES                                                                                   01 
01210032151000000   LEONVALCity of Leon Valley JOINT-LEON VALLEY                   OVER VOTES                                                                                   01 
01210033002000000   LEONVALCity of Leon Valley JOINT-LEON VALLEY                   OVER VOTES                                                                                   01 
01210033003000000   LEONVALCity of Leon Valley JOINT-LEON VALLEY                   OVER VOTES                                                                                   01 
01210042061000000   LEONVALCity of Leon Valley JOINT-LEON VALLEY                   UNDER VOTES                                                                                  01 
01210042112000005   LEONVALCity of Leon Valley JOINT-LEON VALLEY                   UNDER VOTES                                                                                  01 
01210042143000006   LEONVALCity of Leon Valley JOINT-LEON VALLEY                   UNDER VOTES                                                                                  01 
01210042151000000   LEONVALCity of Leon Valley JOINT-LEON VALLEY                   UNDER VOTES                                                                                  01 
01210043002000011   LEONVALCity of Leon Valley JOINT-LEON VALLEY                   UNDER VOTES                                                                                  01 
01210043003000000   LEONVALCity of Leon Valley JOINT-LEON VALLEY                   UNDER VOTES                                                                                  01 
01220012061000039NONLEONVALCity of Leon Valley Proposition                         FOR                                                                                          01Y
01220012112000042NONLEONVALCity of Leon Valley Proposition                         FOR                                                                                          01Y
01220012143000116NONLEONVALCity of Leon Valley Proposition                         FOR                                                                                          01Y
01220012151000000NONLEONVALCity of Leon Valley Proposition                         FOR                                                                                          01Y
01220013002000166NONLEONVALCity of Leon Valley Proposition                         FOR                                                                                          01Y
01220013003000003NONLEONVALCity of Leon Valley Proposition                         FOR                                                                                          01Y
01220022061000012NONLEONVALCity of Leon Valley Proposition                         AGAINST                                                                                      01Y
01220022112000047NONLEONVALCity of Leon Valley Proposition                         AGAINST                                                                                      01Y
01220022143000051NONLEONVALCity of Leon Valley Proposition                         AGAINST                                                                                      01Y
01220022151000000NONLEONVALCity of Leon Valley Proposition                         AGAINST                                                                                      01Y
01220023002000071NONLEONVALCity of Leon Valley Proposition                         AGAINST                                                                                      01Y
01220023003000004NONLEONVALCity of Leon Valley Proposition                         AGAINST                                                                                      01Y
01220032061000000   LEONVALCity of Leon Valley Proposition                         OVER VOTES                                                                                   01Y
01220032112000000   LEONVALCity of Leon Valley Proposition                         OVER VOTES                                                                                   01Y
01220032143000000   LEONVALCity of Leon Valley Proposition                         OVER VOTES                                                                                   01Y
01220032151000000   LEONVALCity of Leon Valley Proposition                         OVER VOTES                                                                                   01Y
01220033002000000   LEONVALCity of Leon Valley Proposition                         OVER VOTES                                                                                   01Y
01220033003000000   LEONVALCity of Leon Valley Proposition                         OVER VOTES                                                                                   01Y
01220042061000001   LEONVALCity of Leon Valley Proposition                         UNDER VOTES                                                                                  01Y
01220042112000005   LEONVALCity of Leon Valley Proposition                         UNDER VOTES                                                                                  01Y
01220042143000001   LEONVALCity of Leon Valley Proposition                         UNDER VOTES                                                                                  01Y
01220042151000000   LEONVALCity of Leon Valley Proposition                         UNDER VOTES                                                                                  01Y
01220043002000005   LEONVALCity of Leon Valley Proposition                         UNDER VOTES                                                                                  01Y
01220043003000000   LEONVALCity of Leon Valley Proposition                         UNDER VOTES                                                                                  01Y
