01190012061000014NONLEONVALCity of Leon Valley Mayor                               Robert Stanley Litoff                                                                        01 
01190012112000058NONLEONVALCity of Leon Valley Mayor                               Robert Stanley Litoff                                                                        01 
01190012143000052NONLEONVALCity of Leon Valley Mayor                               Robert Stanley Litoff                                                                        01 
01190012151000000NONLEONVALCity of Leon Valley Mayor                               Robert Stanley Litoff                                                                        01 
01190013002000058NONLEONVALCity of Leon Valley Mayor                               Robert Stanley Litoff                                                                        01 
01190013003000006NONLEONVALCity of Leon Valley Mayor                               Robert Stanley Litoff                                                                        01 
01190022061000071NONLEONVALCity of Leon Valley Mayor                               Chris Riley                                                                                  01 
01190022112000067NONLEONVALCity of Leon Valley Mayor                               Chris Riley                                                                                  01 
01190022143000172NONLEONVALCity of Leon Valley Mayor                               Chris Riley                                                                                  01 
01190022151000000NONLEONVALCity of Leon Valley Mayor                               Chris Riley                                                                                  01 
01190023002000252NONLEONVALCity of Leon Valley Mayor                               Chris Riley                                                                                  01 
01190023003000002NONLEONVALCity of Leon Valley Mayor                               Chris Riley                                                                                  01 
01190032061000000   LEONVALCity of Leon Valley Mayor                               OVER VOTES                                                                                   01 
01190032112000000   LEONVALCity of Leon Valley Mayor                               OVER VOTES                                                                                   01 
01190032143000000   LEONVALCity of Leon Valley Mayor                               OVER VOTES                                                                                   01 
01190032151000000   LEONVALCity of Leon Valley Mayor                               OVER VOTES                                                                                   01 
01190033002000000   LEONVALCity of Leon Valley Mayor                               OVER VOTES                                                                                   01 
01190033003000000   LEONVALCity of Leon Valley Mayor                               OVER VOTES                                                                                   01 
01190042061000004   LEONVALCity of Leon Valley Mayor                               UNDER VOTES                                                                                  01 
01190042112000010   LEONVALCity of Leon Valley Mayor                               UNDER VOTES                                                                                  01 
01190042143000008   LEONVALCity of Leon Valley Mayor                               UNDER VOTES                                                                                  01 
01190042151000000   LEONVALCity of Leon Valley Mayor                               UNDER VOTES                                                                                  01 
01190043002000007   LEONVALCity of Leon Valley Mayor                               UNDER VOTES                                                                                  01 
01190043003000002   LEONVALCity of Leon Valley Mayor                               UNDER VOTES                                                                                  01 
01200012061000057NONLEONVALCity of Leon Valley Council, Place No. 2                Arthur "Art" Reyna, Jr.                                                                      01 
01200012112000082NONLEONVALCity of Leon Valley Council, Place No. 2                Arthur "Art" Reyna, Jr.                                                                      01 
01200012143000186NONLEONVALCity of Leon Valley Council, Place No. 2                Arthur "Art" Reyna, Jr.                                                                      01 
01200012151000000NONLEONVALCity of Leon Valley Council, Place No. 2                Arthur "Art" Reyna, Jr.                                                                      01 
01200013002000221NONLEONVALCity of Leon Valley Council, Place No. 2                Arthur "Art" Reyna, Jr.                                                                      01 
01200013003000004NONLEONVALCity of Leon Valley Council, Place No. 2                Arthur "Art" Reyna, Jr.                                                                      01 
01200022061000000   LEONVALCity of Leon Valley Council, Place No. 2                OVER VOTES                                                                                   01 
01200022112000000   LEONVALCity of Leon Valley Council, Place No. 2                OVER VOTES                                                                                   01 
01200022143000000   LEONVALCity of Leon Valley Council, Place No. 2                OVER VOTES                                                                                   01 
01200022151000000   LEONVALCity of Leon Valley Council, Place No. 2                OVER VOTES                                                                                   01 
01200023002000000   LEONVALCity of Leon Valley Council, Place No. 2                OVER VOTES                                                                                   01 
01200023003000000   LEONVALCity of Leon Valley Council, Place No. 2                OVER VOTES                                                                                   01 
01200032061000032   LEONVALCity of Leon Valley Council, Place No. 2                UNDER VOTES                                                                                  01 
01200032112000053   LEONVALCity of Leon Valley Council, Place No. 2                UNDER VOTES                                                                                  01 
01200032143000046   LEONVALCity of Leon Valley Council, Place No. 2                UNDER VOTES                                                                                  01 
01200032151000000   LEONVALCity of Leon Valley Council, Place No. 2                UNDER VOTES                                                                                  01 
01200033002000096   LEONVALCity of Leon Valley Council, Place No. 2                UNDER VOTES                                                                                  01 
01200033003000006   LEONVALCity of Leon Valley Council, Place No. 2                UNDER VOTES                                                                                  01 
01210012061000048NONLEONVALCity of Leon Valley JOINT-LEON VALLEY                   Jack Dean                                                                                    01 
01210012112000062NONLEONVALCity of Leon Valley JOINT-LEON VALLEY                   Jack Dean                                                                                    01 
01210012143000126NONLEONVALCity of Leon Valley JOINT-LEON VALLEY                   Jack Dean                                                                                    01 
01210012151000000NONLEONVALCity of Leon Valley JOINT-LEON VALLEY                   Jack Dean                                                                                    01 
01210013002000188NONLEONVALCity of Leon Valley JOINT-LEON VALLEY                   Jack Dean                                                                                    01 
01210013003000003NONLEONVALCity of Leon Valley JOINT-LEON VALLEY                   Jack Dean                                                                                    01 
01210022061000040NONLEONVALCity of Leon Valley JOINT-LEON VALLEY                   Al Baldridge                                                                                 01 
01210022112000066NONLEONVALCity of Leon Valley JOINT-LEON VALLEY                   Al Baldridge                                                                                 01 
01210022143000098NONLEONVALCity of Leon Valley JOINT-LEON VALLEY                   Al Baldridge                                                                                 01 
01210022151000000NONLEONVALCity of Leon Valley JOINT-LEON VALLEY                   Al Baldridge                                                                                 01 
01210023002000115NONLEONVALCity of Leon Valley JOINT-LEON VALLEY                   Al Baldridge                                                                                 01 
01210023003000007NONLEONVALCity of Leon Valley JOINT-LEON VALLEY                   Al Baldridge                                                                                 01 
01210032061000000   LEONVALCity of Leon Valley JOINT-LEON VALLEY                   OVER VOTES                                                                                   01 
01210032112000000   LEONVALCity of Leon Valley JOINT-LEON VALLEY                   OVER VOTES                                                                                   01 
01210032143000000   LEONVALCity of Leon Valley JOINT-LEON VALLEY                   OVER VOTES                                                                                   01 
01210032151000000   LEONVALCity of Leon Valley JOINT-LEON VALLEY                   OVER VOTES                                                                                   01 
01210033002000000   LEONVALCity of Leon Valley JOINT-LEON VALLEY                   OVER VOTES                                                                                   01 
01210033003000000   LEONVALCity of Leon Valley JOINT-LEON VALLEY                   OVER VOTES                                                                                   01 
01210042061000001   LEONVALCity of Leon Valley JOINT-LEON VALLEY                   UNDER VOTES                                                                                  01 
01210042112000007   LEONVALCity of Leon Valley JOINT-LEON VALLEY                   UNDER VOTES                                                                                  01 
01210042143000008   LEONVALCity of Leon Valley JOINT-LEON VALLEY                   UNDER VOTES                                                                                  01 
01210042151000000   LEONVALCity of Leon Valley JOINT-LEON VALLEY                   UNDER VOTES                                                                                  01 
01210043002000014   LEONVALCity of Leon Valley JOINT-LEON VALLEY                   UNDER VOTES                                                                                  01 
01210043003000000   LEONVALCity of Leon Valley JOINT-LEON VALLEY                   UNDER VOTES                                                                                  01 
01220012061000064NONLEONVALCity of Leon Valley Proposition                         FOR                                                                                          01Y
01220012112000063NONLEONVALCity of Leon Valley Proposition                         FOR                                                                                          01Y
01220012143000165NONLEONVALCity of Leon Valley Proposition                         FOR                                                                                          01Y
01220012151000000NONLEONVALCity of Leon Valley Proposition                         FOR                                                                                          01Y
01220013002000219NONLEONVALCity of Leon Valley Proposition                         FOR                                                                                          01Y
01220013003000004NONLEONVALCity of Leon Valley Proposition                         FOR                                                                                          01Y
01220022061000024NONLEONVALCity of Leon Valley Proposition                         AGAINST                                                                                      01Y
01220022112000063NONLEONVALCity of Leon Valley Proposition                         AGAINST                                                                                      01Y
01220022143000066NONLEONVALCity of Leon Valley Proposition                         AGAINST                                                                                      01Y
01220022151000000NONLEONVALCity of Leon Valley Proposition                         AGAINST                                                                                      01Y
01220023002000093NONLEONVALCity of Leon Valley Proposition                         AGAINST                                                                                      01Y
01220023003000006NONLEONVALCity of Leon Valley Proposition                         AGAINST                                                                                      01Y
01220032061000000   LEONVALCity of Leon Valley Proposition                         OVER VOTES                                                                                   01Y
01220032112000000   LEONVALCity of Leon Valley Proposition                         OVER VOTES                                                                                   01Y
01220032143000000   LEONVALCity of Leon Valley Proposition                         OVER VOTES                                                                                   01Y
01220032151000000   LEONVALCity of Leon Valley Proposition                         OVER VOTES                                                                                   01Y
01220033002000000   LEONVALCity of Leon Valley Proposition                         OVER VOTES                                                                                   01Y
01220033003000000   LEONVALCity of Leon Valley Proposition                         OVER VOTES                                                                                   01Y
01220042061000001   LEONVALCity of Leon Valley Proposition                         UNDER VOTES                                                                                  01Y
01220042112000009   LEONVALCity of Leon Valley Proposition                         UNDER VOTES                                                                                  01Y
01220042143000001   LEONVALCity of Leon Valley Proposition                         UNDER VOTES                                                                                  01Y
01220042151000000   LEONVALCity of Leon Valley Proposition                         UNDER VOTES                                                                                  01Y
01220043002000005   LEONVALCity of Leon Valley Proposition                         UNDER VOTES                                                                                  01Y
01220043003000000   LEONVALCity of Leon Valley Proposition                         UNDER VOTES                                                                                  01Y
