01010010001000000000000000000000000000000000000          REGISTERED VOTERS - TOTAL                               REGISTERED VOTERS - TOTAL             Voting Box 1/5                                         00 
01010010002000000000000000000000000000000000000          REGISTERED VOTERS - TOTAL                               REGISTERED VOTERS - TOTAL             Voting Box 2/8                                         00 
01010010003000000000000000000000000000000000000          REGISTERED VOTERS - TOTAL                               REGISTERED VOTERS - TOTAL             Voting Box 3/10                                        00 
01010010004000000000000000000000000000000000000          REGISTERED VOTERS - TOTAL                               REGISTERED VOTERS - TOTAL             Voting Box 4/11                                        00 
01010010005000000000000000000000000000000000000          REGISTERED VOTERS - TOTAL                               REGISTERED VOTERS - TOTAL             Voting Box 6                                           00 
01010010006000000000000000000000000000000000000          REGISTERED VOTERS - TOTAL                               REGISTERED VOTERS - TOTAL             Voting Box 7                                           00 
01010010007000000000000000000000000000000000000          REGISTERED VOTERS - TOTAL                               REGISTERED VOTERS - TOTAL             Voting Box 9                                           00 
01010010008000000000000000000000000000000000000          REGISTERED VOTERS - TOTAL                               REGISTERED VOTERS - TOTAL             Voting Box 12                                          00 
01010010009000000000000000000000000000000000000          REGISTERED VOTERS - TOTAL                               REGISTERED VOTERS - TOTAL             Voting Box 13                                          00 
01010010010000000000000000000000000000000000000          REGISTERED VOTERS - TOTAL                               REGISTERED VOTERS - TOTAL             Voting Box 14                                          00 
01020010001000000000000000000000000000000000000REP       REGISTERED VOTERS - REPUBLICAN PARTY                    REGISTERED VOTERS - REPUBLICAN PARTY  Voting Box 1/5                                         00 
01020010002000000000000000000000000000000000000REP       REGISTERED VOTERS - REPUBLICAN PARTY                    REGISTERED VOTERS - REPUBLICAN PARTY  Voting Box 2/8                                         00 
01020010003000000000000000000000000000000000000REP       REGISTERED VOTERS - REPUBLICAN PARTY                    REGISTERED VOTERS - REPUBLICAN PARTY  Voting Box 3/10                                        00 
01020010004000000000000000000000000000000000000REP       REGISTERED VOTERS - REPUBLICAN PARTY                    REGISTERED VOTERS - REPUBLICAN PARTY  Voting Box 4/11                                        00 
01020010005000000000000000000000000000000000000REP       REGISTERED VOTERS - REPUBLICAN PARTY                    REGISTERED VOTERS - REPUBLICAN PARTY  Voting Box 6                                           00 
01020010006000000000000000000000000000000000000REP       REGISTERED VOTERS - REPUBLICAN PARTY                    REGISTERED VOTERS - REPUBLICAN PARTY  Voting Box 7                                           00 
01020010007000000000000000000000000000000000000REP       REGISTERED VOTERS - REPUBLICAN PARTY                    REGISTERED VOTERS - REPUBLICAN PARTY  Voting Box 9                                           00 
01020010008000000000000000000000000000000000000REP       REGISTERED VOTERS - REPUBLICAN PARTY                    REGISTERED VOTERS - REPUBLICAN PARTY  Voting Box 12                                          00 
01020010009000000000000000000000000000000000000REP       REGISTERED VOTERS - REPUBLICAN PARTY                    REGISTERED VOTERS - REPUBLICAN PARTY  Voting Box 13                                          00 
01020010010000000000000000000000000000000000000REP       REGISTERED VOTERS - REPUBLICAN PARTY                    REGISTERED VOTERS - REPUBLICAN PARTY  Voting Box 14                                          00 
01030010001000000000000000000000000000000000000DEM       REGISTERED VOTERS - DEMOCRATIC PARTY                    REGISTERED VOTERS - DEMOCRATIC PARTY  Voting Box 1/5                                         00 
01030010002000000000000000000000000000000000000DEM       REGISTERED VOTERS - DEMOCRATIC PARTY                    REGISTERED VOTERS - DEMOCRATIC PARTY  Voting Box 2/8                                         00 
01030010003000000000000000000000000000000000000DEM       REGISTERED VOTERS - DEMOCRATIC PARTY                    REGISTERED VOTERS - DEMOCRATIC PARTY  Voting Box 3/10                                        00 
01030010004000000000000000000000000000000000000DEM       REGISTERED VOTERS - DEMOCRATIC PARTY                    REGISTERED VOTERS - DEMOCRATIC PARTY  Voting Box 4/11                                        00 
01030010005000000000000000000000000000000000000DEM       REGISTERED VOTERS - DEMOCRATIC PARTY                    REGISTERED VOTERS - DEMOCRATIC PARTY  Voting Box 6                                           00 
01030010006000000000000000000000000000000000000DEM       REGISTERED VOTERS - DEMOCRATIC PARTY                    REGISTERED VOTERS - DEMOCRATIC PARTY  Voting Box 7                                           00 
01030010007000000000000000000000000000000000000DEM       REGISTERED VOTERS - DEMOCRATIC PARTY                    REGISTERED VOTERS - DEMOCRATIC PARTY  Voting Box 9                                           00 
01030010008000000000000000000000000000000000000DEM       REGISTERED VOTERS - DEMOCRATIC PARTY                    REGISTERED VOTERS - DEMOCRATIC PARTY  Voting Box 12                                          00 
01030010009000000000000000000000000000000000000DEM       REGISTERED VOTERS - DEMOCRATIC PARTY                    REGISTERED VOTERS - DEMOCRATIC PARTY  Voting Box 13                                          00 
01030010010000000000000000000000000000000000000DEM       REGISTERED VOTERS - DEMOCRATIC PARTY                    REGISTERED VOTERS - DEMOCRATIC PARTY  Voting Box 14                                          00 
01040010001000066000033000033000000000000000000          BALLOTS CAST - TOTAL                                    BALLOTS CAST - TOTAL                  Voting Box 1/5                                         00 
01040010002000085000029000056000000000000000000          BALLOTS CAST - TOTAL                                    BALLOTS CAST - TOTAL                  Voting Box 2/8                                         00 
01040010003000146000031000115000000000000000000          BALLOTS CAST - TOTAL                                    BALLOTS CAST - TOTAL                  Voting Box 3/10                                        00 
01040010004000091000013000078000000000000000000          BALLOTS CAST - TOTAL                                    BALLOTS CAST - TOTAL                  Voting Box 4/11                                        00 
01040010005000065000033000032000000000000000000          BALLOTS CAST - TOTAL                                    BALLOTS CAST - TOTAL                  Voting Box 6                                           00 
01040010006000015000008000007000000000000000000          BALLOTS CAST - TOTAL                                    BALLOTS CAST - TOTAL                  Voting Box 7                                           00 
01040010007000111000066000045000000000000000000          BALLOTS CAST - TOTAL                                    BALLOTS CAST - TOTAL                  Voting Box 9                                           00 
01040010008000034000021000013000000000000000000          BALLOTS CAST - TOTAL                                    BALLOTS CAST - TOTAL                  Voting Box 12                                          00 
01040010009000015000006000009000000000000000000          BALLOTS CAST - TOTAL                                    BALLOTS CAST - TOTAL                  Voting Box 13                                          00 
01040010010000033000015000018000000000000000000          BALLOTS CAST - TOTAL                                    BALLOTS CAST - TOTAL                  Voting Box 14                                          00 
01050010001000064000033000031000000000000000000REP       BALLOTS CAST - REPUBLICAN PARTY                         BALLOTS CAST - REPUBLICAN PARTY       Voting Box 1/5                                         00 
01050010002000079000027000052000000000000000000REP       BALLOTS CAST - REPUBLICAN PARTY                         BALLOTS CAST - REPUBLICAN PARTY       Voting Box 2/8                                         00 
01050010003000135000031000104000000000000000000REP       BALLOTS CAST - REPUBLICAN PARTY                         BALLOTS CAST - REPUBLICAN PARTY       Voting Box 3/10                                        00 
01050010004000089000013000076000000000000000000REP       BALLOTS CAST - REPUBLICAN PARTY                         BALLOTS CAST - REPUBLICAN PARTY       Voting Box 4/11                                        00 
01050010005000063000031000032000000000000000000REP       BALLOTS CAST - REPUBLICAN PARTY                         BALLOTS CAST - REPUBLICAN PARTY       Voting Box 6                                           00 
01050010006000014000008000006000000000000000000REP       BALLOTS CAST - REPUBLICAN PARTY                         BALLOTS CAST - REPUBLICAN PARTY       Voting Box 7                                           00 
01050010007000111000066000045000000000000000000REP       BALLOTS CAST - REPUBLICAN PARTY                         BALLOTS CAST - REPUBLICAN PARTY       Voting Box 9                                           00 
01050010008000031000019000012000000000000000000REP       BALLOTS CAST - REPUBLICAN PARTY                         BALLOTS CAST - REPUBLICAN PARTY       Voting Box 12                                          00 
01050010009000018000006000012000000000000000000REP       BALLOTS CAST - REPUBLICAN PARTY                         BALLOTS CAST - REPUBLICAN PARTY       Voting Box 13                                          00 
01050010010000030000014000016000000000000000000REP       BALLOTS CAST - REPUBLICAN PARTY                         BALLOTS CAST - REPUBLICAN PARTY       Voting Box 14                                          00 
01060010001000002000000000002000000000000000000DEM       BALLOTS CAST - DEMOCRATIC PARTY                         BALLOTS CAST - DEMOCRATIC PARTY       Voting Box 1/5                                         00 
01060010002000006000002000004000000000000000000DEM       BALLOTS CAST - DEMOCRATIC PARTY                         BALLOTS CAST - DEMOCRATIC PARTY       Voting Box 2/8                                         00 
01060010003000011000000000011000000000000000000DEM       BALLOTS CAST - DEMOCRATIC PARTY                         BALLOTS CAST - DEMOCRATIC PARTY       Voting Box 3/10                                        00 
01060010004000002000000000002000000000000000000DEM       BALLOTS CAST - DEMOCRATIC PARTY                         BALLOTS CAST - DEMOCRATIC PARTY       Voting Box 4/11                                        00 
01060010005000002000002000000000000000000000000DEM       BALLOTS CAST - DEMOCRATIC PARTY                         BALLOTS CAST - DEMOCRATIC PARTY       Voting Box 6                                           00 
01060010006000001000000000001000000000000000000DEM       BALLOTS CAST - DEMOCRATIC PARTY                         BALLOTS CAST - DEMOCRATIC PARTY       Voting Box 7                                           00 
01060010007000000000000000000000000000000000000DEM       BALLOTS CAST - DEMOCRATIC PARTY                         BALLOTS CAST - DEMOCRATIC PARTY       Voting Box 9                                           00 
01060010008000003000002000001000000000000000000DEM       BALLOTS CAST - DEMOCRATIC PARTY                         BALLOTS CAST - DEMOCRATIC PARTY       Voting Box 12                                          00 
01060010009000001000000000001000000000000000000DEM       BALLOTS CAST - DEMOCRATIC PARTY                         BALLOTS CAST - DEMOCRATIC PARTY       Voting Box 13                                          00 
01060010010000003000001000002000000000000000000DEM       BALLOTS CAST - DEMOCRATIC PARTY                         BALLOTS CAST - DEMOCRATIC PARTY       Voting Box 14                                          00 
01070010001000002000001000001000000000000000000REP       President                                               Newt Gingrich                         Voting Box 1/5                                         01 
01070010002000003000000000003000000000000000000REP       President                                               Newt Gingrich                         Voting Box 2/8                                         01 
01070010003000008000002000006000000000000000000REP       President                                               Newt Gingrich                         Voting Box 3/10                                        01 
01070010004000005000000000005000000000000000000REP       President                                               Newt Gingrich                         Voting Box 4/11                                        01 
01070010005000010000005000005000000000000000000REP       President                                               Newt Gingrich                         Voting Box 6                                           01 
01070010006000004000003000001000000000000000000REP       President                                               Newt Gingrich                         Voting Box 7                                           01 
01070010007000006000004000002000000000000000000REP       President                                               Newt Gingrich                         Voting Box 9                                           01 
01070010008000002000002000000000000000000000000REP       President                                               Newt Gingrich                         Voting Box 12                                          01 
01070010009000005000001000004000000000000000000REP       President                                               Newt Gingrich                         Voting Box 13                                          01 
01070010010000001000001000000000000000000000000REP       President                                               Newt Gingrich                         Voting Box 14                                          01 
01070020001000004000001000003000000000000000000REP       President                                               Ron Paul                              Voting Box 1/5                                         01 
01070020002000004000000000004000000000000000000REP       President                                               Ron Paul                              Voting Box 2/8                                         01 
01070020003000010000001000009000000000000000000REP       President                                               Ron Paul                              Voting Box 3/10                                        01 
01070020004000010000001000009000000000000000000REP       President                                               Ron Paul                              Voting Box 4/11                                        01 
01070020005000001000000000001000000000000000000REP       President                                               Ron Paul                              Voting Box 6                                           01 
01070020006000000000000000000000000000000000000REP       President                                               Ron Paul                              Voting Box 7                                           01 
01070020007000012000007000005000000000000000000REP       President                                               Ron Paul                              Voting Box 9                                           01 
01070020008000003000002000001000000000000000000REP       President                                               Ron Paul                              Voting Box 12                                          01 
01070020009000000000000000000000000000000000000REP       President                                               Ron Paul                              Voting Box 13                                          01 
01070020010000000000000000000000000000000000000REP       President                                               Ron Paul                              Voting Box 14                                          01 
01070030001000045000022000023000000000000000000REP       President                                               Mitt Romney                           Voting Box 1/5                                         01 
01070030002000050000020000030000000000000000000REP       President                                               Mitt Romney                           Voting Box 2/8                                         01 
01070030003000082000021000061000000000000000000REP       President                                               Mitt Romney                           Voting Box 3/10                                        01 
01070030004000061000010000051000000000000000000REP       President                                               Mitt Romney                           Voting Box 4/11                                        01 
01070030005000035000021000014000000000000000000REP       President                                               Mitt Romney                           Voting Box 6                                           01 
01070030006000009000005000004000000000000000000REP       President                                               Mitt Romney                           Voting Box 7                                           01 
01070030007000073000041000032000000000000000000REP       President                                               Mitt Romney                           Voting Box 9                                           01 
01070030008000016000011000005000000000000000000REP       President                                               Mitt Romney                           Voting Box 12                                          01 
01070030009000009000004000005000000000000000000REP       President                                               Mitt Romney                           Voting Box 13                                          01 
01070030010000015000006000009000000000000000000REP       President                                               Mitt Romney                           Voting Box 14                                          01 
01070040001000000000000000000000000000000000000REP       President                                               Charles "Buddy" Roemer                Voting Box 1/5                                         01 
01070040002000000000000000000000000000000000000REP       President                                               Charles "Buddy" Roemer                Voting Box 2/8                                         01 
01070040003000000000000000000000000000000000000REP       President                                               Charles "Buddy" Roemer                Voting Box 3/10                                        01 
01070040004000000000000000000000000000000000000REP       President                                               Charles "Buddy" Roemer                Voting Box 4/11                                        01 
01070040005000000000000000000000000000000000000REP       President                                               Charles "Buddy" Roemer                Voting Box 6                                           01 
01070040006000000000000000000000000000000000000REP       President                                               Charles "Buddy" Roemer                Voting Box 7                                           01 
01070040007000000000000000000000000000000000000REP       President                                               Charles "Buddy" Roemer                Voting Box 9                                           01 
01070040008000000000000000000000000000000000000REP       President                                               Charles "Buddy" Roemer                Voting Box 12                                          01 
01070040009000000000000000000000000000000000000REP       President                                               Charles "Buddy" Roemer                Voting Box 13                                          01 
01070040010000000000000000000000000000000000000REP       President                                               Charles "Buddy" Roemer                Voting Box 14                                          01 
01070050001000009000006000003000000000000000000REP       President                                               Rick Santorum                         Voting Box 1/5                                         01 
01070050002000008000003000005000000000000000000REP       President                                               Rick Santorum                         Voting Box 2/8                                         01 
01070050003000021000004000017000000000000000000REP       President                                               Rick Santorum                         Voting Box 3/10                                        01 
01070050004000010000002000008000000000000000000REP       President                                               Rick Santorum                         Voting Box 4/11                                        01 
01070050005000004000000000004000000000000000000REP       President                                               Rick Santorum                         Voting Box 6                                           01 
01070050006000001000000000001000000000000000000REP       President                                               Rick Santorum                         Voting Box 7                                           01 
01070050007000007000005000002000000000000000000REP       President                                               Rick Santorum                         Voting Box 9                                           01 
01070050008000006000003000003000000000000000000REP       President                                               Rick Santorum                         Voting Box 12                                          01 
01070050009000003000000000003000000000000000000REP       President                                               Rick Santorum                         Voting Box 13                                          01 
01070050010000004000002000002000000000000000000REP       President                                               Rick Santorum                         Voting Box 14                                          01 
01070060001000000000000000000000000000000000000REP       President                                               Jon Huntsman                          Voting Box 1/5                                         01 
01070060002000000000000000000000000000000000000REP       President                                               Jon Huntsman                          Voting Box 2/8                                         01 
01070060003000000000000000000000000000000000000REP       President                                               Jon Huntsman                          Voting Box 3/10                                        01 
01070060004000000000000000000000000000000000000REP       President                                               Jon Huntsman                          Voting Box 4/11                                        01 
01070060005000000000000000000000000000000000000REP       President                                               Jon Huntsman                          Voting Box 6                                           01 
01070060006000000000000000000000000000000000000REP       President                                               Jon Huntsman                          Voting Box 7                                           01 
01070060007000000000000000000000000000000000000REP       President                                               Jon Huntsman                          Voting Box 9                                           01 
01070060008000000000000000000000000000000000000REP       President                                               Jon Huntsman                          Voting Box 12                                          01 
01070060009000000000000000000000000000000000000REP       President                                               Jon Huntsman                          Voting Box 13                                          01 
01070060010000000000000000000000000000000000000REP       President                                               Jon Huntsman                          Voting Box 14                                          01 
01070070001000002000001000001000000000000000000REP       President                                               Michele Bachmann                      Voting Box 1/5                                         01 
01070070002000000000000000000000000000000000000REP       President                                               Michele Bachmann                      Voting Box 2/8                                         01 
01070070003000002000001000001000000000000000000REP       President                                               Michele Bachmann                      Voting Box 3/10                                        01 
01070070004000000000000000000000000000000000000REP       President                                               Michele Bachmann                      Voting Box 4/11                                        01 
01070070005000001000000000001000000000000000000REP       President                                               Michele Bachmann                      Voting Box 6                                           01 
01070070006000000000000000000000000000000000000REP       President                                               Michele Bachmann                      Voting Box 7                                           01 
01070070007000000000000000000000000000000000000REP       President                                               Michele Bachmann                      Voting Box 9                                           01 
01070070008000001000000000001000000000000000000REP       President                                               Michele Bachmann                      Voting Box 12                                          01 
01070070009000001000001000000000000000000000000REP       President                                               Michele Bachmann                      Voting Box 13                                          01 
01070070010000000000000000000000000000000000000REP       President                                               Michele Bachmann                      Voting Box 14                                          01 
01070080001000000000000000000000000000000000000REP       President                                               John Davis                            Voting Box 1/5                                         01 
01070080002000002000000000002000000000000000000REP       President                                               John Davis                            Voting Box 2/8                                         01 
01070080003000000000000000000000000000000000000REP       President                                               John Davis                            Voting Box 3/10                                        01 
01070080004000000000000000000000000000000000000REP       President                                               John Davis                            Voting Box 4/11                                        01 
01070080005000001000001000000000000000000000000REP       President                                               John Davis                            Voting Box 6                                           01 
01070080006000000000000000000000000000000000000REP       President                                               John Davis                            Voting Box 7                                           01 
01070080007000001000000000001000000000000000000REP       President                                               John Davis                            Voting Box 9                                           01 
01070080008000000000000000000000000000000000000REP       President                                               John Davis                            Voting Box 12                                          01 
01070080009000000000000000000000000000000000000REP       President                                               John Davis                            Voting Box 13                                          01 
01070080010000001000001000000000000000000000000REP       President                                               John Davis                            Voting Box 14                                          01 
01070090001000000000000000000000000000000000000REP       President                                               Uncommitted (No Comprometido)         Voting Box 1/5                                         01 
01070090002000008000002000006000000000000000000REP       President                                               Uncommitted (No Comprometido)         Voting Box 2/8                                         01 
01070090003000004000001000003000000000000000000REP       President                                               Uncommitted (No Comprometido)         Voting Box 3/10                                        01 
01070090004000002000000000002000000000000000000REP       President                                               Uncommitted (No Comprometido)         Voting Box 4/11                                        01 
01070090005000002000001000001000000000000000000REP       President                                               Uncommitted (No Comprometido)         Voting Box 6                                           01 
01070090006000000000000000000000000000000000000REP       President                                               Uncommitted (No Comprometido)         Voting Box 7                                           01 
01070090007000007000005000002000000000000000000REP       President                                               Uncommitted (No Comprometido)         Voting Box 9                                           01 
01070090008000001000000000001000000000000000000REP       President                                               Uncommitted (No Comprometido)         Voting Box 12                                          01 
01070090009000000000000000000000000000000000000REP       President                                               Uncommitted (No Comprometido)         Voting Box 13                                          01 
01070090010000002000001000001000000000000000000REP       President                                               Uncommitted (No Comprometido)         Voting Box 14                                          01 
01070100001000000000000000000000000000000000000REP       President                                               OVER VOTES                            Voting Box 1/5                                         01 
01070100002000000000000000000000000000000000000REP       President                                               OVER VOTES                            Voting Box 2/8                                         01 
01070100003000002000001000001000000000000000000REP       President                                               OVER VOTES                            Voting Box 3/10                                        01 
01070100004000000000000000000000000000000000000REP       President                                               OVER VOTES                            Voting Box 4/11                                        01 
01070100005000000000000000000000000000000000000REP       President                                               OVER VOTES                            Voting Box 6                                           01 
01070100006000000000000000000000000000000000000REP       President                                               OVER VOTES                            Voting Box 7                                           01 
01070100007000000000000000000000000000000000000REP       President                                               OVER VOTES                            Voting Box 9                                           01 
01070100008000001000001000000000000000000000000REP       President                                               OVER VOTES                            Voting Box 12                                          01 
01070100009000000000000000000000000000000000000REP       President                                               OVER VOTES                            Voting Box 13                                          01 
01070100010000001000000000001000000000000000000REP       President                                               OVER VOTES                            Voting Box 14                                          01 
01070110001000002000002000000000000000000000000REP       President                                               UNDER VOTES                           Voting Box 1/5                                         01 
01070110002000004000002000002000000000000000000REP       President                                               UNDER VOTES                           Voting Box 2/8                                         01 
01070110003000006000000000006000000000000000000REP       President                                               UNDER VOTES                           Voting Box 3/10                                        01 
01070110004000001000000000001000000000000000000REP       President                                               UNDER VOTES                           Voting Box 4/11                                        01 
01070110005000009000003000006000000000000000000REP       President                                               UNDER VOTES                           Voting Box 6                                           01 
01070110006000000000000000000000000000000000000REP       President                                               UNDER VOTES                           Voting Box 7                                           01 
01070110007000005000004000001000000000000000000REP       President                                               UNDER VOTES                           Voting Box 9                                           01 
01070110008000001000000000001000000000000000000REP       President                                               UNDER VOTES                           Voting Box 12                                          01 
01070110009000000000000000000000000000000000000REP       President                                               UNDER VOTES                           Voting Box 13                                          01 
01070110010000006000003000003000000000000000000REP       President                                               UNDER VOTES                           Voting Box 14                                          01 
01080010001000000000000000000000000000000000000REP       United States Senator                                   Joe Agris                             Voting Box 1/5                                         01 
01080010002000000000000000000000000000000000000REP       United States Senator                                   Joe Agris                             Voting Box 2/8                                         01 
01080010003000000000000000000000000000000000000REP       United States Senator                                   Joe Agris                             Voting Box 3/10                                        01 
01080010004000000000000000000000000000000000000REP       United States Senator                                   Joe Agris                             Voting Box 4/11                                        01 
01080010005000001000001000000000000000000000000REP       United States Senator                                   Joe Agris                             Voting Box 6                                           01 
01080010006000000000000000000000000000000000000REP       United States Senator                                   Joe Agris                             Voting Box 7                                           01 
01080010007000000000000000000000000000000000000REP       United States Senator                                   Joe Agris                             Voting Box 9                                           01 
01080010008000001000000000001000000000000000000REP       United States Senator                                   Joe Agris                             Voting Box 12                                          01 
01080010009000000000000000000000000000000000000REP       United States Senator                                   Joe Agris                             Voting Box 13                                          01 
01080010010000000000000000000000000000000000000REP       United States Senator                                   Joe Agris                             Voting Box 14                                          01 
01080020001000001000001000000000000000000000000REP       United States Senator                                   Craig James                           Voting Box 1/5                                         01 
01080020002000001000000000001000000000000000000REP       United States Senator                                   Craig James                           Voting Box 2/8                                         01 
01080020003000007000001000006000000000000000000REP       United States Senator                                   Craig James                           Voting Box 3/10                                        01 
01080020004000005000000000005000000000000000000REP       United States Senator                                   Craig James                           Voting Box 4/11                                        01 
01080020005000004000003000001000000000000000000REP       United States Senator                                   Craig James                           Voting Box 6                                           01 
01080020006000001000000000001000000000000000000REP       United States Senator                                   Craig James                           Voting Box 7                                           01 
01080020007000007000004000003000000000000000000REP       United States Senator                                   Craig James                           Voting Box 9                                           01 
01080020008000003000002000001000000000000000000REP       United States Senator                                   Craig James                           Voting Box 12                                          01 
01080020009000000000000000000000000000000000000REP       United States Senator                                   Craig James                           Voting Box 13                                          01 
01080020010000000000000000000000000000000000000REP       United States Senator                                   Craig James                           Voting Box 14                                          01 
01080030001000002000002000000000000000000000000REP       United States Senator                                   Lela Pittenger                        Voting Box 1/5                                         01 
01080030002000000000000000000000000000000000000REP       United States Senator                                   Lela Pittenger                        Voting Box 2/8                                         01 
01080030003000002000000000002000000000000000000REP       United States Senator                                   Lela Pittenger                        Voting Box 3/10                                        01 
01080030004000002000000000002000000000000000000REP       United States Senator                                   Lela Pittenger                        Voting Box 4/11                                        01 
01080030005000001000000000001000000000000000000REP       United States Senator                                   Lela Pittenger                        Voting Box 6                                           01 
01080030006000000000000000000000000000000000000REP       United States Senator                                   Lela Pittenger                        Voting Box 7                                           01 
01080030007000000000000000000000000000000000000REP       United States Senator                                   Lela Pittenger                        Voting Box 9                                           01 
01080030008000000000000000000000000000000000000REP       United States Senator                                   Lela Pittenger                        Voting Box 12                                          01 
01080030009000000000000000000000000000000000000REP       United States Senator                                   Lela Pittenger                        Voting Box 13                                          01 
01080030010000000000000000000000000000000000000REP       United States Senator                                   Lela Pittenger                        Voting Box 14                                          01 
01080040001000000000000000000000000000000000000REP       United States Senator                                   Glenn Addison                         Voting Box 1/5                                         01 
01080040002000001000000000001000000000000000000REP       United States Senator                                   Glenn Addison                         Voting Box 2/8                                         01 
01080040003000002000000000002000000000000000000REP       United States Senator                                   Glenn Addison                         Voting Box 3/10                                        01 
01080040004000000000000000000000000000000000000REP       United States Senator                                   Glenn Addison                         Voting Box 4/11                                        01 
01080040005000000000000000000000000000000000000REP       United States Senator                                   Glenn Addison                         Voting Box 6                                           01 
01080040006000000000000000000000000000000000000REP       United States Senator                                   Glenn Addison                         Voting Box 7                                           01 
01080040007000000000000000000000000000000000000REP       United States Senator                                   Glenn Addison                         Voting Box 9                                           01 
01080040008000000000000000000000000000000000000REP       United States Senator                                   Glenn Addison                         Voting Box 12                                          01 
01080040009000001000001000000000000000000000000REP       United States Senator                                   Glenn Addison                         Voting Box 13                                          01 
01080040010000000000000000000000000000000000000REP       United States Senator                                   Glenn Addison                         Voting Box 14                                          01 
01080050001000001000001000000000000000000000000REP       United States Senator                                   Curt Cleaver                          Voting Box 1/5                                         01 
01080050002000001000000000001000000000000000000REP       United States Senator                                   Curt Cleaver                          Voting Box 2/8                                         01 
01080050003000000000000000000000000000000000000REP       United States Senator                                   Curt Cleaver                          Voting Box 3/10                                        01 
01080050004000000000000000000000000000000000000REP       United States Senator                                   Curt Cleaver                          Voting Box 4/11                                        01 
01080050005000000000000000000000000000000000000REP       United States Senator                                   Curt Cleaver                          Voting Box 6                                           01 
01080050006000000000000000000000000000000000000REP       United States Senator                                   Curt Cleaver                          Voting Box 7                                           01 
01080050007000000000000000000000000000000000000REP       United States Senator                                   Curt Cleaver                          Voting Box 9                                           01 
01080050008000000000000000000000000000000000000REP       United States Senator                                   Curt Cleaver                          Voting Box 12                                          01 
01080050009000000000000000000000000000000000000REP       United States Senator                                   Curt Cleaver                          Voting Box 13                                          01 
01080050010000000000000000000000000000000000000REP       United States Senator                                   Curt Cleaver                          Voting Box 14                                          01 
01080060001000020000005000015000000000000000000REP       United States Senator                                   Ted Cruz                              Voting Box 1/5                                         01 
01080060002000032000009000023000000000000000000REP       United States Senator                                   Ted Cruz                              Voting Box 2/8                                         01 
01080060003000045000008000037000000000000000000REP       United States Senator                                   Ted Cruz                              Voting Box 3/10                                        01 
01080060004000046000007000039000000000000000000REP       United States Senator                                   Ted Cruz                              Voting Box 4/11                                        01 
01080060005000011000004000007000000000000000000REP       United States Senator                                   Ted Cruz                              Voting Box 6                                           01 
01080060006000003000001000002000000000000000000REP       United States Senator                                   Ted Cruz                              Voting Box 7                                           01 
01080060007000026000012000014000000000000000000REP       United States Senator                                   Ted Cruz                              Voting Box 9                                           01 
01080060008000008000005000003000000000000000000REP       United States Senator                                   Ted Cruz                              Voting Box 12                                          01 
01080060009000009000001000008000000000000000000REP       United States Senator                                   Ted Cruz                              Voting Box 13                                          01 
01080060010000011000006000005000000000000000000REP       United States Senator                                   Ted Cruz                              Voting Box 14                                          01 
01080070001000026000014000012000000000000000000REP       United States Senator                                   David Dewhurst                        Voting Box 1/5                                         01 
01080070002000038000015000023000000000000000000REP       United States Senator                                   David Dewhurst                        Voting Box 2/8                                         01 
01080070003000059000019000040000000000000000000REP       United States Senator                                   David Dewhurst                        Voting Box 3/10                                        01 
01080070004000030000006000024000000000000000000REP       United States Senator                                   David Dewhurst                        Voting Box 4/11                                        01 
01080070005000031000018000013000000000000000000REP       United States Senator                                   David Dewhurst                        Voting Box 6                                           01 
01080070006000008000006000002000000000000000000REP       United States Senator                                   David Dewhurst                        Voting Box 7                                           01 
01080070007000067000046000021000000000000000000REP       United States Senator                                   David Dewhurst                        Voting Box 9                                           01 
01080070008000013000010000003000000000000000000REP       United States Senator                                   David Dewhurst                        Voting Box 12                                          01 
01080070009000006000003000003000000000000000000REP       United States Senator                                   David Dewhurst                        Voting Box 13                                          01 
01080070010000014000005000009000000000000000000REP       United States Senator                                   David Dewhurst                        Voting Box 14                                          01 
01080080001000007000004000003000000000000000000REP       United States Senator                                   Tom Leppert                           Voting Box 1/5                                         01 
01080080002000004000001000003000000000000000000REP       United States Senator                                   Tom Leppert                           Voting Box 2/8                                         01 
01080080003000005000001000004000000000000000000REP       United States Senator                                   Tom Leppert                           Voting Box 3/10                                        01 
01080080004000006000000000006000000000000000000REP       United States Senator                                   Tom Leppert                           Voting Box 4/11                                        01 
01080080005000004000002000002000000000000000000REP       United States Senator                                   Tom Leppert                           Voting Box 6                                           01 
01080080006000002000001000001000000000000000000REP       United States Senator                                   Tom Leppert                           Voting Box 7                                           01 
01080080007000007000002000005000000000000000000REP       United States Senator                                   Tom Leppert                           Voting Box 9                                           01 
01080080008000003000000000003000000000000000000REP       United States Senator                                   Tom Leppert                           Voting Box 12                                          01 
01080080009000002000001000001000000000000000000REP       United States Senator                                   Tom Leppert                           Voting Box 13                                          01 
01080080010000001000001000000000000000000000000REP       United States Senator                                   Tom Leppert                           Voting Box 14                                          01 
01080090001000000000000000000000000000000000000REP       United States Senator                                   Ben Gambini                           Voting Box 1/5                                         01 
01080090002000000000000000000000000000000000000REP       United States Senator                                   Ben Gambini                           Voting Box 2/8                                         01 
01080090003000000000000000000000000000000000000REP       United States Senator                                   Ben Gambini                           Voting Box 3/10                                        01 
01080090004000000000000000000000000000000000000REP       United States Senator                                   Ben Gambini                           Voting Box 4/11                                        01 
01080090005000002000000000002000000000000000000REP       United States Senator                                   Ben Gambini                           Voting Box 6                                           01 
01080090006000000000000000000000000000000000000REP       United States Senator                                   Ben Gambini                           Voting Box 7                                           01 
01080090007000000000000000000000000000000000000REP       United States Senator                                   Ben Gambini                           Voting Box 9                                           01 
01080090008000000000000000000000000000000000000REP       United States Senator                                   Ben Gambini                           Voting Box 12                                          01 
01080090009000000000000000000000000000000000000REP       United States Senator                                   Ben Gambini                           Voting Box 13                                          01 
01080090010000000000000000000000000000000000000REP       United States Senator                                   Ben Gambini                           Voting Box 14                                          01 
01080100001000000000000000000000000000000000000REP       United States Senator                                   OVER VOTES                            Voting Box 1/5                                         01 
01080100002000000000000000000000000000000000000REP       United States Senator                                   OVER VOTES                            Voting Box 2/8                                         01 
01080100003000000000000000000000000000000000000REP       United States Senator                                   OVER VOTES                            Voting Box 3/10                                        01 
01080100004000000000000000000000000000000000000REP       United States Senator                                   OVER VOTES                            Voting Box 4/11                                        01 
01080100005000000000000000000000000000000000000REP       United States Senator                                   OVER VOTES                            Voting Box 6                                           01 
01080100006000000000000000000000000000000000000REP       United States Senator                                   OVER VOTES                            Voting Box 7                                           01 
01080100007000000000000000000000000000000000000REP       United States Senator                                   OVER VOTES                            Voting Box 9                                           01 
01080100008000000000000000000000000000000000000REP       United States Senator                                   OVER VOTES                            Voting Box 12                                          01 
01080100009000000000000000000000000000000000000REP       United States Senator                                   OVER VOTES                            Voting Box 13                                          01 
01080100010000000000000000000000000000000000000REP       United States Senator                                   OVER VOTES                            Voting Box 14                                          01 
01080110001000007000006000001000000000000000000REP       United States Senator                                   UNDER VOTES                           Voting Box 1/5                                         01 
01080110002000002000002000000000000000000000000REP       United States Senator                                   UNDER VOTES                           Voting Box 2/8                                         01 
01080110003000015000002000013000000000000000000REP       United States Senator                                   UNDER VOTES                           Voting Box 3/10                                        01 
01080110004000000000000000000000000000000000000REP       United States Senator                                   UNDER VOTES                           Voting Box 4/11                                        01 
01080110005000009000003000006000000000000000000REP       United States Senator                                   UNDER VOTES                           Voting Box 6                                           01 
01080110006000000000000000000000000000000000000REP       United States Senator                                   UNDER VOTES                           Voting Box 7                                           01 
01080110007000004000002000002000000000000000000REP       United States Senator                                   UNDER VOTES                           Voting Box 9                                           01 
01080110008000003000002000001000000000000000000REP       United States Senator                                   UNDER VOTES                           Voting Box 12                                          01 
01080110009000000000000000000000000000000000000REP       United States Senator                                   UNDER VOTES                           Voting Box 13                                          01 
01080110010000004000002000002000000000000000000REP       United States Senator                                   UNDER VOTES                           Voting Box 14                                          01 
01090010001000042000023000019000000000000000000REP       US Representative, District 19                          Randy Neugebauer                      Voting Box 1/5                                         01 
01090010002000053000020000033000000000000000000REP       US Representative, District 19                          Randy Neugebauer                      Voting Box 2/8                                         01 
01090010003000091000025000066000000000000000000REP       US Representative, District 19                          Randy Neugebauer                      Voting Box 3/10                                        01 
01090010004000062000012000050000000000000000000REP       US Representative, District 19                          Randy Neugebauer                      Voting Box 4/11                                        01 
01090010005000045000023000022000000000000000000REP       US Representative, District 19                          Randy Neugebauer                      Voting Box 6                                           01 
01090010006000009000006000003000000000000000000REP       US Representative, District 19                          Randy Neugebauer                      Voting Box 7                                           01 
01090010007000081000049000032000000000000000000REP       US Representative, District 19                          Randy Neugebauer                      Voting Box 9                                           01 
01090010008000021000014000007000000000000000000REP       US Representative, District 19                          Randy Neugebauer                      Voting Box 12                                          01 
01090010009000006000003000003000000000000000000REP       US Representative, District 19                          Randy Neugebauer                      Voting Box 13                                          01 
01090010010000018000007000011000000000000000000REP       US Representative, District 19                          Randy Neugebauer                      Voting Box 14                                          01 
01090020001000018000006000012000000000000000000REP       US Representative, District 19                          Chris Winn                            Voting Box 1/5                                         01 
01090020002000023000006000017000000000000000000REP       US Representative, District 19                          Chris Winn                            Voting Box 2/8                                         01 
01090020003000031000004000027000000000000000000REP       US Representative, District 19                          Chris Winn                            Voting Box 3/10                                        01 
01090020004000027000001000026000000000000000000REP       US Representative, District 19                          Chris Winn                            Voting Box 4/11                                        01 
01090020005000014000007000007000000000000000000REP       US Representative, District 19                          Chris Winn                            Voting Box 6                                           01 
01090020006000004000001000003000000000000000000REP       US Representative, District 19                          Chris Winn                            Voting Box 7                                           01 
01090020007000027000015000012000000000000000000REP       US Representative, District 19                          Chris Winn                            Voting Box 9                                           01 
01090020008000007000005000002000000000000000000REP       US Representative, District 19                          Chris Winn                            Voting Box 12                                          01 
01090020009000011000003000008000000000000000000REP       US Representative, District 19                          Chris Winn                            Voting Box 13                                          01 
01090020010000007000004000003000000000000000000REP       US Representative, District 19                          Chris Winn                            Voting Box 14                                          01 
01090030001000000000000000000000000000000000000REP       US Representative, District 19                          OVER VOTES                            Voting Box 1/5                                         01 
01090030002000000000000000000000000000000000000REP       US Representative, District 19                          OVER VOTES                            Voting Box 2/8                                         01 
01090030003000000000000000000000000000000000000REP       US Representative, District 19                          OVER VOTES                            Voting Box 3/10                                        01 
01090030004000000000000000000000000000000000000REP       US Representative, District 19                          OVER VOTES                            Voting Box 4/11                                        01 
01090030005000000000000000000000000000000000000REP       US Representative, District 19                          OVER VOTES                            Voting Box 6                                           01 
01090030006000000000000000000000000000000000000REP       US Representative, District 19                          OVER VOTES                            Voting Box 7                                           01 
01090030007000000000000000000000000000000000000REP       US Representative, District 19                          OVER VOTES                            Voting Box 9                                           01 
01090030008000000000000000000000000000000000000REP       US Representative, District 19                          OVER VOTES                            Voting Box 12                                          01 
01090030009000000000000000000000000000000000000REP       US Representative, District 19                          OVER VOTES                            Voting Box 13                                          01 
01090030010000000000000000000000000000000000000REP       US Representative, District 19                          OVER VOTES                            Voting Box 14                                          01 
01090040001000004000004000000000000000000000000REP       US Representative, District 19                          UNDER VOTES                           Voting Box 1/5                                         01 
01090040002000003000001000002000000000000000000REP       US Representative, District 19                          UNDER VOTES                           Voting Box 2/8                                         01 
01090040003000013000002000011000000000000000000REP       US Representative, District 19                          UNDER VOTES                           Voting Box 3/10                                        01 
01090040004000000000000000000000000000000000000REP       US Representative, District 19                          UNDER VOTES                           Voting Box 4/11                                        01 
01090040005000004000001000003000000000000000000REP       US Representative, District 19                          UNDER VOTES                           Voting Box 6                                           01 
01090040006000001000001000000000000000000000000REP       US Representative, District 19                          UNDER VOTES                           Voting Box 7                                           01 
01090040007000003000002000001000000000000000000REP       US Representative, District 19                          UNDER VOTES                           Voting Box 9                                           01 
01090040008000003000000000003000000000000000000REP       US Representative, District 19                          UNDER VOTES                           Voting Box 12                                          01 
01090040009000001000000000001000000000000000000REP       US Representative, District 19                          UNDER VOTES                           Voting Box 13                                          01 
01090040010000005000003000002000000000000000000REP       US Representative, District 19                          UNDER VOTES                           Voting Box 14                                          01 
01100010001000029000009000020000000000000000000REP       Railroad Commissioner                                   Christi Craddick                      Voting Box 1/5                                         01 
01100010002000038000013000025000000000000000000REP       Railroad Commissioner                                   Christi Craddick                      Voting Box 2/8                                         01 
01100010003000054000019000035000000000000000000REP       Railroad Commissioner                                   Christi Craddick                      Voting Box 3/10                                        01 
01100010004000031000006000025000000000000000000REP       Railroad Commissioner                                   Christi Craddick                      Voting Box 4/11                                        01 
01100010005000018000009000009000000000000000000REP       Railroad Commissioner                                   Christi Craddick                      Voting Box 6                                           01 
01100010006000009000005000004000000000000000000REP       Railroad Commissioner                                   Christi Craddick                      Voting Box 7                                           01 
01100010007000049000032000017000000000000000000REP       Railroad Commissioner                                   Christi Craddick                      Voting Box 9                                           01 
01100010008000014000009000005000000000000000000REP       Railroad Commissioner                                   Christi Craddick                      Voting Box 12                                          01 
01100010009000009000002000007000000000000000000REP       Railroad Commissioner                                   Christi Craddick                      Voting Box 13                                          01 
01100010010000008000003000005000000000000000000REP       Railroad Commissioner                                   Christi Craddick                      Voting Box 14                                          01 
01100020001000011000006000005000000000000000000REP       Railroad Commissioner                                   Warren Chisum                         Voting Box 1/5                                         01 
01100020002000020000006000014000000000000000000REP       Railroad Commissioner                                   Warren Chisum                         Voting Box 2/8                                         01 
01100020003000030000005000025000000000000000000REP       Railroad Commissioner                                   Warren Chisum                         Voting Box 3/10                                        01 
01100020004000033000004000029000000000000000000REP       Railroad Commissioner                                   Warren Chisum                         Voting Box 4/11                                        01 
01100020005000016000008000008000000000000000000REP       Railroad Commissioner                                   Warren Chisum                         Voting Box 6                                           01 
01100020006000002000001000001000000000000000000REP       Railroad Commissioner                                   Warren Chisum                         Voting Box 7                                           01 
01100020007000033000014000019000000000000000000REP       Railroad Commissioner                                   Warren Chisum                         Voting Box 9                                           01 
01100020008000004000002000002000000000000000000REP       Railroad Commissioner                                   Warren Chisum                         Voting Box 12                                          01 
01100020009000004000001000003000000000000000000REP       Railroad Commissioner                                   Warren Chisum                         Voting Box 13                                          01 
01100020010000005000002000003000000000000000000REP       Railroad Commissioner                                   Warren Chisum                         Voting Box 14                                          01 
01100030001000002000000000002000000000000000000REP       Railroad Commissioner                                   Roland Sledge                         Voting Box 1/5                                         01 
01100030002000001000000000001000000000000000000REP       Railroad Commissioner                                   Roland Sledge                         Voting Box 2/8                                         01 
01100030003000004000000000004000000000000000000REP       Railroad Commissioner                                   Roland Sledge                         Voting Box 3/10                                        01 
01100030004000006000000000006000000000000000000REP       Railroad Commissioner                                   Roland Sledge                         Voting Box 4/11                                        01 
01100030005000001000001000000000000000000000000REP       Railroad Commissioner                                   Roland Sledge                         Voting Box 6                                           01 
01100030006000000000000000000000000000000000000REP       Railroad Commissioner                                   Roland Sledge                         Voting Box 7                                           01 
01100030007000000000000000000000000000000000000REP       Railroad Commissioner                                   Roland Sledge                         Voting Box 9                                           01 
01100030008000000000000000000000000000000000000REP       Railroad Commissioner                                   Roland Sledge                         Voting Box 12                                          01 
01100030009000002000002000000000000000000000000REP       Railroad Commissioner                                   Roland Sledge                         Voting Box 13                                          01 
01100030010000001000001000000000000000000000000REP       Railroad Commissioner                                   Roland Sledge                         Voting Box 14                                          01 
01100040001000002000002000000000000000000000000REP       Railroad Commissioner                                   Beryl Burgess                         Voting Box 1/5                                         01 
01100040002000005000003000002000000000000000000REP       Railroad Commissioner                                   Beryl Burgess                         Voting Box 2/8                                         01 
01100040003000001000000000001000000000000000000REP       Railroad Commissioner                                   Beryl Burgess                         Voting Box 3/10                                        01 
01100040004000001000000000001000000000000000000REP       Railroad Commissioner                                   Beryl Burgess                         Voting Box 4/11                                        01 
01100040005000000000000000000000000000000000000REP       Railroad Commissioner                                   Beryl Burgess                         Voting Box 6                                           01 
01100040006000000000000000000000000000000000000REP       Railroad Commissioner                                   Beryl Burgess                         Voting Box 7                                           01 
01100040007000001000000000001000000000000000000REP       Railroad Commissioner                                   Beryl Burgess                         Voting Box 9                                           01 
01100040008000002000002000000000000000000000000REP       Railroad Commissioner                                   Beryl Burgess                         Voting Box 12                                          01 
01100040009000001000000000001000000000000000000REP       Railroad Commissioner                                   Beryl Burgess                         Voting Box 13                                          01 
01100040010000000000000000000000000000000000000REP       Railroad Commissioner                                   Beryl Burgess                         Voting Box 14                                          01 
01100050001000001000001000000000000000000000000REP       Railroad Commissioner                                   Becky Berger                          Voting Box 1/5                                         01 
01100050002000003000000000003000000000000000000REP       Railroad Commissioner                                   Becky Berger                          Voting Box 2/8                                         01 
01100050003000012000003000009000000000000000000REP       Railroad Commissioner                                   Becky Berger                          Voting Box 3/10                                        01 
01100050004000003000000000003000000000000000000REP       Railroad Commissioner                                   Becky Berger                          Voting Box 4/11                                        01 
01100050005000008000004000004000000000000000000REP       Railroad Commissioner                                   Becky Berger                          Voting Box 6                                           01 
01100050006000000000000000000000000000000000000REP       Railroad Commissioner                                   Becky Berger                          Voting Box 7                                           01 
01100050007000006000004000002000000000000000000REP       Railroad Commissioner                                   Becky Berger                          Voting Box 9                                           01 
01100050008000004000002000002000000000000000000REP       Railroad Commissioner                                   Becky Berger                          Voting Box 12                                          01 
01100050009000000000000000000000000000000000000REP       Railroad Commissioner                                   Becky Berger                          Voting Box 13                                          01 
01100050010000003000003000000000000000000000000REP       Railroad Commissioner                                   Becky Berger                          Voting Box 14                                          01 
01100060001000003000001000002000000000000000000REP       Railroad Commissioner                                   Joe Cotten                            Voting Box 1/5                                         01 
01100060002000001000000000001000000000000000000REP       Railroad Commissioner                                   Joe Cotten                            Voting Box 2/8                                         01 
01100060003000007000001000006000000000000000000REP       Railroad Commissioner                                   Joe Cotten                            Voting Box 3/10                                        01 
01100060004000003000001000002000000000000000000REP       Railroad Commissioner                                   Joe Cotten                            Voting Box 4/11                                        01 
01100060005000002000001000001000000000000000000REP       Railroad Commissioner                                   Joe Cotten                            Voting Box 6                                           01 
01100060006000001000001000000000000000000000000REP       Railroad Commissioner                                   Joe Cotten                            Voting Box 7                                           01 
01100060007000006000005000001000000000000000000REP       Railroad Commissioner                                   Joe Cotten                            Voting Box 9                                           01 
01100060008000001000000000001000000000000000000REP       Railroad Commissioner                                   Joe Cotten                            Voting Box 12                                          01 
01100060009000002000001000001000000000000000000REP       Railroad Commissioner                                   Joe Cotten                            Voting Box 13                                          01 
01100060010000003000002000001000000000000000000REP       Railroad Commissioner                                   Joe Cotten                            Voting Box 14                                          01 
01100070001000000000000000000000000000000000000REP       Railroad Commissioner                                   OVER VOTES                            Voting Box 1/5                                         01 
01100070002000000000000000000000000000000000000REP       Railroad Commissioner                                   OVER VOTES                            Voting Box 2/8                                         01 
01100070003000000000000000000000000000000000000REP       Railroad Commissioner                                   OVER VOTES                            Voting Box 3/10                                        01 
01100070004000000000000000000000000000000000000REP       Railroad Commissioner                                   OVER VOTES                            Voting Box 4/11                                        01 
01100070005000000000000000000000000000000000000REP       Railroad Commissioner                                   OVER VOTES                            Voting Box 6                                           01 
01100070006000000000000000000000000000000000000REP       Railroad Commissioner                                   OVER VOTES                            Voting Box 7                                           01 
01100070007000000000000000000000000000000000000REP       Railroad Commissioner                                   OVER VOTES                            Voting Box 9                                           01 
01100070008000000000000000000000000000000000000REP       Railroad Commissioner                                   OVER VOTES                            Voting Box 12                                          01 
01100070009000000000000000000000000000000000000REP       Railroad Commissioner                                   OVER VOTES                            Voting Box 13                                          01 
01100070010000000000000000000000000000000000000REP       Railroad Commissioner                                   OVER VOTES                            Voting Box 14                                          01 
01100080001000016000014000002000000000000000000REP       Railroad Commissioner                                   UNDER VOTES                           Voting Box 1/5                                         01 
01100080002000011000005000006000000000000000000REP       Railroad Commissioner                                   UNDER VOTES                           Voting Box 2/8                                         01 
01100080003000027000003000024000000000000000000REP       Railroad Commissioner                                   UNDER VOTES                           Voting Box 3/10                                        01 
01100080004000012000002000010000000000000000000REP       Railroad Commissioner                                   UNDER VOTES                           Voting Box 4/11                                        01 
01100080005000018000008000010000000000000000000REP       Railroad Commissioner                                   UNDER VOTES                           Voting Box 6                                           01 
01100080006000002000001000001000000000000000000REP       Railroad Commissioner                                   UNDER VOTES                           Voting Box 7                                           01 
01100080007000016000011000005000000000000000000REP       Railroad Commissioner                                   UNDER VOTES                           Voting Box 9                                           01 
01100080008000006000004000002000000000000000000REP       Railroad Commissioner                                   UNDER VOTES                           Voting Box 12                                          01 
01100080009000000000000000000000000000000000000REP       Railroad Commissioner                                   UNDER VOTES                           Voting Box 13                                          01 
01100080010000010000003000007000000000000000000REP       Railroad Commissioner                                   UNDER VOTES                           Voting Box 14                                          01 
01110010001000016000005000011000000000000000000REP       Railroad Commissioner, Unexpired Term                   Greg Parker                           Voting Box 1/5                                         01 
01110010002000017000005000012000000000000000000REP       Railroad Commissioner, Unexpired Term                   Greg Parker                           Voting Box 2/8                                         01 
01110010003000034000005000029000000000000000000REP       Railroad Commissioner, Unexpired Term                   Greg Parker                           Voting Box 3/10                                        01 
01110010004000022000003000019000000000000000000REP       Railroad Commissioner, Unexpired Term                   Greg Parker                           Voting Box 4/11                                        01 
01110010005000015000007000008000000000000000000REP       Railroad Commissioner, Unexpired Term                   Greg Parker                           Voting Box 6                                           01 
01110010006000004000003000001000000000000000000REP       Railroad Commissioner, Unexpired Term                   Greg Parker                           Voting Box 7                                           01 
01110010007000039000019000020000000000000000000REP       Railroad Commissioner, Unexpired Term                   Greg Parker                           Voting Box 9                                           01 
01110010008000010000006000004000000000000000000REP       Railroad Commissioner, Unexpired Term                   Greg Parker                           Voting Box 12                                          01 
01110010009000002000002000000000000000000000000REP       Railroad Commissioner, Unexpired Term                   Greg Parker                           Voting Box 13                                          01 
01110010010000009000003000006000000000000000000REP       Railroad Commissioner, Unexpired Term                   Greg Parker                           Voting Box 14                                          01 
01110020001000018000008000010000000000000000000REP       Railroad Commissioner, Unexpired Term                   Barry Smitherman                      Voting Box 1/5                                         01 
01110020002000035000012000023000000000000000000REP       Railroad Commissioner, Unexpired Term                   Barry Smitherman                      Voting Box 2/8                                         01 
01110020003000039000012000027000000000000000000REP       Railroad Commissioner, Unexpired Term                   Barry Smitherman                      Voting Box 3/10                                        01 
01110020004000044000006000038000000000000000000REP       Railroad Commissioner, Unexpired Term                   Barry Smitherman                      Voting Box 4/11                                        01 
01110020005000011000008000003000000000000000000REP       Railroad Commissioner, Unexpired Term                   Barry Smitherman                      Voting Box 6                                           01 
01110020006000007000004000003000000000000000000REP       Railroad Commissioner, Unexpired Term                   Barry Smitherman                      Voting Box 7                                           01 
01110020007000035000021000014000000000000000000REP       Railroad Commissioner, Unexpired Term                   Barry Smitherman                      Voting Box 9                                           01 
01110020008000007000004000003000000000000000000REP       Railroad Commissioner, Unexpired Term                   Barry Smitherman                      Voting Box 12                                          01 
01110020009000009000004000005000000000000000000REP       Railroad Commissioner, Unexpired Term                   Barry Smitherman                      Voting Box 13                                          01 
01110020010000005000004000001000000000000000000REP       Railroad Commissioner, Unexpired Term                   Barry Smitherman                      Voting Box 14                                          01 
01110030001000004000001000003000000000000000000REP       Railroad Commissioner, Unexpired Term                   Elizabeth Murray-Kolb                 Voting Box 1/5                                         01 
01110030002000011000004000007000000000000000000REP       Railroad Commissioner, Unexpired Term                   Elizabeth Murray-Kolb                 Voting Box 2/8                                         01 
01110030003000019000005000014000000000000000000REP       Railroad Commissioner, Unexpired Term                   Elizabeth Murray-Kolb                 Voting Box 3/10                                        01 
01110030004000004000000000004000000000000000000REP       Railroad Commissioner, Unexpired Term                   Elizabeth Murray-Kolb                 Voting Box 4/11                                        01 
01110030005000009000006000003000000000000000000REP       Railroad Commissioner, Unexpired Term                   Elizabeth Murray-Kolb                 Voting Box 6                                           01 
01110030006000002000001000001000000000000000000REP       Railroad Commissioner, Unexpired Term                   Elizabeth Murray-Kolb                 Voting Box 7                                           01 
01110030007000010000007000003000000000000000000REP       Railroad Commissioner, Unexpired Term                   Elizabeth Murray-Kolb                 Voting Box 9                                           01 
01110030008000006000003000003000000000000000000REP       Railroad Commissioner, Unexpired Term                   Elizabeth Murray-Kolb                 Voting Box 12                                          01 
01110030009000003000000000003000000000000000000REP       Railroad Commissioner, Unexpired Term                   Elizabeth Murray-Kolb                 Voting Box 13                                          01 
01110030010000005000004000001000000000000000000REP       Railroad Commissioner, Unexpired Term                   Elizabeth Murray-Kolb                 Voting Box 14                                          01 
01110040001000004000002000002000000000000000000REP       Railroad Commissioner, Unexpired Term                   Al Lee                                Voting Box 1/5                                         01 
01110040002000003000002000001000000000000000000REP       Railroad Commissioner, Unexpired Term                   Al Lee                                Voting Box 2/8                                         01 
01110040003000002000000000002000000000000000000REP       Railroad Commissioner, Unexpired Term                   Al Lee                                Voting Box 3/10                                        01 
01110040004000003000002000001000000000000000000REP       Railroad Commissioner, Unexpired Term                   Al Lee                                Voting Box 4/11                                        01 
01110040005000002000000000002000000000000000000REP       Railroad Commissioner, Unexpired Term                   Al Lee                                Voting Box 6                                           01 
01110040006000000000000000000000000000000000000REP       Railroad Commissioner, Unexpired Term                   Al Lee                                Voting Box 7                                           01 
01110040007000002000002000000000000000000000000REP       Railroad Commissioner, Unexpired Term                   Al Lee                                Voting Box 9                                           01 
01110040008000000000000000000000000000000000000REP       Railroad Commissioner, Unexpired Term                   Al Lee                                Voting Box 12                                          01 
01110040009000002000000000002000000000000000000REP       Railroad Commissioner, Unexpired Term                   Al Lee                                Voting Box 13                                          01 
01110040010000000000000000000000000000000000000REP       Railroad Commissioner, Unexpired Term                   Al Lee                                Voting Box 14                                          01 
01110050001000000000000000000000000000000000000REP       Railroad Commissioner, Unexpired Term                   OVER VOTES                            Voting Box 1/5                                         01 
01110050002000000000000000000000000000000000000REP       Railroad Commissioner, Unexpired Term                   OVER VOTES                            Voting Box 2/8                                         01 
01110050003000000000000000000000000000000000000REP       Railroad Commissioner, Unexpired Term                   OVER VOTES                            Voting Box 3/10                                        01 
01110050004000000000000000000000000000000000000REP       Railroad Commissioner, Unexpired Term                   OVER VOTES                            Voting Box 4/11                                        01 
01110050005000000000000000000000000000000000000REP       Railroad Commissioner, Unexpired Term                   OVER VOTES                            Voting Box 6                                           01 
01110050006000000000000000000000000000000000000REP       Railroad Commissioner, Unexpired Term                   OVER VOTES                            Voting Box 7                                           01 
01110050007000000000000000000000000000000000000REP       Railroad Commissioner, Unexpired Term                   OVER VOTES                            Voting Box 9                                           01 
01110050008000000000000000000000000000000000000REP       Railroad Commissioner, Unexpired Term                   OVER VOTES                            Voting Box 12                                          01 
01110050009000000000000000000000000000000000000REP       Railroad Commissioner, Unexpired Term                   OVER VOTES                            Voting Box 13                                          01 
01110050010000000000000000000000000000000000000REP       Railroad Commissioner, Unexpired Term                   OVER VOTES                            Voting Box 14                                          01 
01110060001000022000017000005000000000000000000REP       Railroad Commissioner, Unexpired Term                   UNDER VOTES                           Voting Box 1/5                                         01 
01110060002000013000004000009000000000000000000REP       Railroad Commissioner, Unexpired Term                   UNDER VOTES                           Voting Box 2/8                                         01 
01110060003000041000009000032000000000000000000REP       Railroad Commissioner, Unexpired Term                   UNDER VOTES                           Voting Box 3/10                                        01 
01110060004000016000002000014000000000000000000REP       Railroad Commissioner, Unexpired Term                   UNDER VOTES                           Voting Box 4/11                                        01 
01110060005000026000010000016000000000000000000REP       Railroad Commissioner, Unexpired Term                   UNDER VOTES                           Voting Box 6                                           01 
01110060006000001000000000001000000000000000000REP       Railroad Commissioner, Unexpired Term                   UNDER VOTES                           Voting Box 7                                           01 
01110060007000025000017000008000000000000000000REP       Railroad Commissioner, Unexpired Term                   UNDER VOTES                           Voting Box 9                                           01 
01110060008000008000006000002000000000000000000REP       Railroad Commissioner, Unexpired Term                   UNDER VOTES                           Voting Box 12                                          01 
01110060009000002000000000002000000000000000000REP       Railroad Commissioner, Unexpired Term                   UNDER VOTES                           Voting Box 13                                          01 
01110060010000011000003000008000000000000000000REP       Railroad Commissioner, Unexpired Term                   UNDER VOTES                           Voting Box 14                                          01 
01120010001000022000010000012000000000000000000REP       Justice, Supreme Court, Place 2                         Steve Smith                           Voting Box 1/5                                         01 
01120010002000028000008000020000000000000000000REP       Justice, Supreme Court, Place 2                         Steve Smith                           Voting Box 2/8                                         01 
01120010003000053000014000039000000000000000000REP       Justice, Supreme Court, Place 2                         Steve Smith                           Voting Box 3/10                                        01 
01120010004000043000005000038000000000000000000REP       Justice, Supreme Court, Place 2                         Steve Smith                           Voting Box 4/11                                        01 
01120010005000023000013000010000000000000000000REP       Justice, Supreme Court, Place 2                         Steve Smith                           Voting Box 6                                           01 
01120010006000005000003000002000000000000000000REP       Justice, Supreme Court, Place 2                         Steve Smith                           Voting Box 7                                           01 
01120010007000055000030000025000000000000000000REP       Justice, Supreme Court, Place 2                         Steve Smith                           Voting Box 9                                           01 
01120010008000012000005000007000000000000000000REP       Justice, Supreme Court, Place 2                         Steve Smith                           Voting Box 12                                          01 
01120010009000002000001000001000000000000000000REP       Justice, Supreme Court, Place 2                         Steve Smith                           Voting Box 13                                          01 
01120010010000015000008000007000000000000000000REP       Justice, Supreme Court, Place 2                         Steve Smith                           Voting Box 14                                          01 
01120020001000021000008000013000000000000000000REP       Justice, Supreme Court, Place 2                         Don Willett                           Voting Box 1/5                                         01 
01120020002000031000013000018000000000000000000REP       Justice, Supreme Court, Place 2                         Don Willett                           Voting Box 2/8                                         01 
01120020003000039000007000032000000000000000000REP       Justice, Supreme Court, Place 2                         Don Willett                           Voting Box 3/10                                        01 
