01040010001000467000312000155000000000000000000REP       President and Vice-President                            Mitt Romney / Paul Ryan               PRECINCT 1                                             01 
01040010002000154000040000113000001000000000000REP       President and Vice-President                            Mitt Romney / Paul Ryan               PRECINCT 2                                             01 
01040010003000223000139000084000000000000000000REP       President and Vice-President                            Mitt Romney / Paul Ryan               PRECINCT 025                                           01 
01040010004000415000270000145000000000000000000REP       President and Vice-President                            Mitt Romney / Paul Ryan               PRECINCT 3                                             01 
01040010005000270000118000151000001000000000000REP       President and Vice-President                            Mitt Romney / Paul Ryan               PRECINCT 4                                             01 
01040010006000227000154000073000000000000000000REP       President and Vice-President                            Mitt Romney / Paul Ryan               PRECINCT 046                                           01 
01040020001000116000071000045000000000000000000DEM       President and Vice-President                            Barack Obama / Joe Biden              PRECINCT 1                                             01 
01040020002000019000001000018000000000000000000DEM       President and Vice-President                            Barack Obama / Joe Biden              PRECINCT 2                                             01 
01040020003000102000057000045000000000000000000DEM       President and Vice-President                            Barack Obama / Joe Biden              PRECINCT 025                                           01 
01040020004000151000078000073000000000000000000DEM       President and Vice-President                            Barack Obama / Joe Biden              PRECINCT 3                                             01 
01040020005000089000022000067000000000000000000DEM       President and Vice-President                            Barack Obama / Joe Biden              PRECINCT 4                                             01 
01040020006000061000036000023000000000002000000DEM       President and Vice-President                            Barack Obama / Joe Biden              PRECINCT 046                                           01 
01040030001000005000005000000000000000000000000LIB       President and Vice-President                            Gary Johnson / Jim Gray               PRECINCT 1                                             01 
01040030002000000000000000000000000000000000000LIB       President and Vice-President                            Gary Johnson / Jim Gray               PRECINCT 2                                             01 
01040030003000002000001000001000000000000000000LIB       President and Vice-President                            Gary Johnson / Jim Gray               PRECINCT 025                                           01 
01040030004000006000004000002000000000000000000LIB       President and Vice-President                            Gary Johnson / Jim Gray               PRECINCT 3                                             01 
01040030005000003000001000002000000000000000000LIB       President and Vice-President                            Gary Johnson / Jim Gray               PRECINCT 4                                             01 
01040030006000002000001000001000000000000000000LIB       President and Vice-President                            Gary Johnson / Jim Gray               PRECINCT 046                                           01 
01040040001000001000001000000000000000000000000GRN       President and Vice-President                            Jill Stein / Cheri Honkala            PRECINCT 1                                             01 
01040040002000000000000000000000000000000000000GRN       President and Vice-President                            Jill Stein / Cheri Honkala            PRECINCT 2                                             01 
01040040003000000000000000000000000000000000000GRN       President and Vice-President                            Jill Stein / Cheri Honkala            PRECINCT 025                                           01 
01040040004000003000002000001000000000000000000GRN       President and Vice-President                            Jill Stein / Cheri Honkala            PRECINCT 3                                             01 
01040040005000000000000000000000000000000000000GRN       President and Vice-President                            Jill Stein / Cheri Honkala            PRECINCT 4                                             01 
01040040006000000000000000000000000000000000000GRN       President and Vice-President                            Jill Stein / Cheri Honkala            PRECINCT 046                                           01 
01040050001000004000002000002000000000000000000NON       President and Vice-President                            WRITE-IN                              PRECINCT 1                                             01 
01040050002000001000000000001000000000000000000NON       President and Vice-President                            WRITE-IN                              PRECINCT 2                                             01 
01040050003000000000000000000000000000000000000NON       President and Vice-President                            WRITE-IN                              PRECINCT 025                                           01 
01040050004000001000001000000000000000000000000NON       President and Vice-President                            WRITE-IN                              PRECINCT 3                                             01 
01040050005000001000000000001000000000000000000NON       President and Vice-President                            WRITE-IN                              PRECINCT 4                                             01 
01040050006000000000000000000000000000000000000NON       President and Vice-President                            WRITE-IN                              PRECINCT 046                                           01 
01040060001000001000001000000000000000000000000          President and Vice-President                            OVER VOTES                            PRECINCT 1                                             01 
01040060002000000000000000000000000000000000000          President and Vice-President                            OVER VOTES                            PRECINCT 2                                             01 
01040060003000001000000000001000000000000000000          President and Vice-President                            OVER VOTES                            PRECINCT 025                                           01 
01040060004000000000000000000000000000000000000          President and Vice-President                            OVER VOTES                            PRECINCT 3                                             01 
01040060005000001000000000001000000000000000000          President and Vice-President                            OVER VOTES                            PRECINCT 4                                             01 
01040060006000001000001000000000000000000000000          President and Vice-President                            OVER VOTES                            PRECINCT 046                                           01 
01040070001000003000002000001000000000000000000          President and Vice-President                            UNDER VOTES                           PRECINCT 1                                             01 
01040070002000000000000000000000000000000000000          President and Vice-President                            UNDER VOTES                           PRECINCT 2                                             01 
01040070003000002000000000002000000000000000000          President and Vice-President                            UNDER VOTES                           PRECINCT 025                                           01 
01040070004000005000004000001000000000000000000          President and Vice-President                            UNDER VOTES                           PRECINCT 3                                             01 
01040070005000001000000000001000000000000000000          President and Vice-President                            UNDER VOTES                           PRECINCT 4                                             01 
01040070006000008000006000002000000000000000000          President and Vice-President                            UNDER VOTES                           PRECINCT 046                                           01 
01050010001000419000282000137000000000000000000REP       United States Senator                                   Ted Cruz                              PRECINCT 1                                             01 
01050010002000139000035000103000001000000000000REP       United States Senator                                   Ted Cruz                              PRECINCT 2                                             01 
01050010003000211000131000080000000000000000000REP       United States Senator                                   Ted Cruz                              PRECINCT 025                                           01 
01050010004000387000254000133000000000000000000REP       United States Senator                                   Ted Cruz                              PRECINCT 3                                             01 
01050010005000234000106000127000001000000000000REP       United States Senator                                   Ted Cruz                              PRECINCT 4                                             01 
01050010006000208000141000067000000000000000000REP       United States Senator                                   Ted Cruz                              PRECINCT 046                                           01 
01050020001000134000083000051000000000000000000DEM       United States Senator                                   Paul Sadler                           PRECINCT 1                                             01 
01050020002000023000005000018000000000000000000DEM       United States Senator                                   Paul Sadler                           PRECINCT 2                                             01 
01050020003000098000059000039000000000000000000DEM       United States Senator                                   Paul Sadler                           PRECINCT 025                                           01 
01050020004000138000077000061000000000000000000DEM       United States Senator                                   Paul Sadler                           PRECINCT 3                                             01 
01050020005000103000026000077000000000000000000DEM       United States Senator                                   Paul Sadler                           PRECINCT 4                                             01 
01050020006000073000048000023000000000002000000DEM       United States Senator                                   Paul Sadler                           PRECINCT 046                                           01 
01050030001000013000009000004000000000000000000LIB       United States Senator                                   John Jay Myers                        PRECINCT 1                                             01 
01050030002000002000001000001000000000000000000LIB       United States Senator                                   John Jay Myers                        PRECINCT 2                                             01 
01050030003000004000002000002000000000000000000LIB       United States Senator                                   John Jay Myers                        PRECINCT 025                                           01 
01050030004000024000010000014000000000000000000LIB       United States Senator                                   John Jay Myers                        PRECINCT 3                                             01 
01050030005000005000002000003000000000000000000LIB       United States Senator                                   John Jay Myers                        PRECINCT 4                                             01 
01050030006000003000002000001000000000000000000LIB       United States Senator                                   John Jay Myers                        PRECINCT 046                                           01 
01050040001000009000005000004000000000000000000GRN       United States Senator                                   David B. Collins                      PRECINCT 1                                             01 
01050040002000000000000000000000000000000000000GRN       United States Senator                                   David B. Collins                      PRECINCT 2                                             01 
01050040003000001000000000001000000000000000000GRN       United States Senator                                   David B. Collins                      PRECINCT 025                                           01 
01050040004000003000003000000000000000000000000GRN       United States Senator                                   David B. Collins                      PRECINCT 3                                             01 
01050040005000001000000000001000000000000000000GRN       United States Senator                                   David B. Collins                      PRECINCT 4                                             01 
01050040006000003000001000002000000000000000000GRN       United States Senator                                   David B. Collins                      PRECINCT 046                                           01 
01050050001000000000000000000000000000000000000          United States Senator                                   OVER VOTES                            PRECINCT 1                                             01 
01050050002000000000000000000000000000000000000          United States Senator                                   OVER VOTES                            PRECINCT 2                                             01 
01050050003000000000000000000000000000000000000          United States Senator                                   OVER VOTES                            PRECINCT 025                                           01 
01050050004000000000000000000000000000000000000          United States Senator                                   OVER VOTES                            PRECINCT 3                                             01 
01050050005000000000000000000000000000000000000          United States Senator                                   OVER VOTES                            PRECINCT 4                                             01 
01050050006000000000000000000000000000000000000          United States Senator                                   OVER VOTES                            PRECINCT 046                                           01 
01050060001000022000015000007000000000000000000          United States Senator                                   UNDER VOTES                           PRECINCT 1                                             01 
01050060002000010000000000010000000000000000000          United States Senator                                   UNDER VOTES                           PRECINCT 2                                             01 
01050060003000016000005000011000000000000000000          United States Senator                                   UNDER VOTES                           PRECINCT 025                                           01 
01050060004000029000015000014000000000000000000          United States Senator                                   UNDER VOTES                           PRECINCT 3                                             01 
01050060005000022000007000015000000000000000000          United States Senator                                   UNDER VOTES                           PRECINCT 4                                             01 
01050060006000012000006000006000000000000000000          United States Senator                                   UNDER VOTES                           PRECINCT 046                                           01 
01060010001000453000307000146000000000000000000REP       United States Representative, Dist 11                   Mike Conaway                          PRECINCT 1                                             01 
01060010002000146000038000107000001000000000000REP       United States Representative, Dist 11                   Mike Conaway                          PRECINCT 2                                             01 
01060010003000206000128000078000000000000000000REP       United States Representative, Dist 11                   Mike Conaway                          PRECINCT 025                                           01 
01060010004000406000265000141000000000000000000REP       United States Representative, Dist 11                   Mike Conaway                          PRECINCT 3                                             01 
01060010005000245000104000140000001000000000000REP       United States Representative, Dist 11                   Mike Conaway                          PRECINCT 4                                             01 
01060010006000225000153000072000000000000000000REP       United States Representative, Dist 11                   Mike Conaway                          PRECINCT 046                                           01 
01060020001000105000061000044000000000000000000DEM       United States Representative, Dist 11                   Jim Riley                             PRECINCT 1                                             01 
01060020002000014000002000012000000000000000000DEM       United States Representative, Dist 11                   Jim Riley                             PRECINCT 2                                             01 
01060020003000093000057000036000000000000000000DEM       United States Representative, Dist 11                   Jim Riley                             PRECINCT 025                                           01 
01060020004000129000070000059000000000000000000DEM       United States Representative, Dist 11                   Jim Riley                             PRECINCT 3                                             01 
01060020005000088000024000064000000000000000000DEM       United States Representative, Dist 11                   Jim Riley                             PRECINCT 4                                             01 
01060020006000057000035000020000000000002000000DEM       United States Representative, Dist 11                   Jim Riley                             PRECINCT 046                                           01 
01060030001000015000009000006000000000000000000LIB       United States Representative, Dist 11                   Scott J. Ballard                      PRECINCT 1                                             01 
01060030002000002000001000001000000000000000000LIB       United States Representative, Dist 11                   Scott J. Ballard                      PRECINCT 2                                             01 
01060030003000011000005000006000000000000000000LIB       United States Representative, Dist 11                   Scott J. Ballard                      PRECINCT 025                                           01 
01060030004000017000007000010000000000000000000LIB       United States Representative, Dist 11                   Scott J. Ballard                      PRECINCT 3                                             01 
01060030005000011000005000006000000000000000000LIB       United States Representative, Dist 11                   Scott J. Ballard                      PRECINCT 4                                             01 
01060030006000005000002000003000000000000000000LIB       United States Representative, Dist 11                   Scott J. Ballard                      PRECINCT 046                                           01 
01060040001000000000000000000000000000000000000          United States Representative, Dist 11                   OVER VOTES                            PRECINCT 1                                             01 
01060040002000000000000000000000000000000000000          United States Representative, Dist 11                   OVER VOTES                            PRECINCT 2                                             01 
01060040003000000000000000000000000000000000000          United States Representative, Dist 11                   OVER VOTES                            PRECINCT 025                                           01 
01060040004000000000000000000000000000000000000          United States Representative, Dist 11                   OVER VOTES                            PRECINCT 3                                             01 
01060040005000000000000000000000000000000000000          United States Representative, Dist 11                   OVER VOTES                            PRECINCT 4                                             01 
01060040006000000000000000000000000000000000000          United States Representative, Dist 11                   OVER VOTES                            PRECINCT 046                                           01 
01060050001000024000017000007000000000000000000          United States Representative, Dist 11                   UNDER VOTES                           PRECINCT 1                                             01 
01060050002000012000000000012000000000000000000          United States Representative, Dist 11                   UNDER VOTES                           PRECINCT 2                                             01 
01060050003000020000007000013000000000000000000          United States Representative, Dist 11                   UNDER VOTES                           PRECINCT 025                                           01 
01060050004000029000017000012000000000000000000          United States Representative, Dist 11                   UNDER VOTES                           PRECINCT 3                                             01 
01060050005000021000008000013000000000000000000          United States Representative, Dist 11                   UNDER VOTES                           PRECINCT 4                                             01 
01060050006000012000008000004000000000000000000          United States Representative, Dist 11                   UNDER VOTES                           PRECINCT 046                                           01 
01070010001000401000265000136000000000000000000REP       Railroad Commissioner                                   Christi Craddick                      PRECINCT 1                                             01 
01070010002000137000037000099000001000000000000REP       Railroad Commissioner                                   Christi Craddick                      PRECINCT 2                                             01 
01070010003000190000122000068000000000000000000REP       Railroad Commissioner                                   Christi Craddick                      PRECINCT 025                                           01 
01070010004000358000238000120000000000000000000REP       Railroad Commissioner                                   Christi Craddick                      PRECINCT 3                                             01 
01070010005000221000097000123000001000000000000REP       Railroad Commissioner                                   Christi Craddick                      PRECINCT 4                                             01 
01070010006000191000134000057000000000000000000REP       Railroad Commissioner                                   Christi Craddick                      PRECINCT 046                                           01 
01070020001000129000080000049000000000000000000DEM       Railroad Commissioner                                   Dale Henry                            PRECINCT 1                                             01 
01070020002000020000002000018000000000000000000DEM       Railroad Commissioner                                   Dale Henry                            PRECINCT 2                                             01 
01070020003000101000061000040000000000000000000DEM       Railroad Commissioner                                   Dale Henry                            PRECINCT 025                                           01 
01070020004000145000076000069000000000000000000DEM       Railroad Commissioner                                   Dale Henry                            PRECINCT 3                                             01 
01070020005000096000024000072000000000000000000DEM       Railroad Commissioner                                   Dale Henry                            PRECINCT 4                                             01 
01070020006000074000046000026000000000002000000DEM       Railroad Commissioner                                   Dale Henry                            PRECINCT 046                                           01 
01070030001000006000004000002000000000000000000LIB       Railroad Commissioner                                   Vivekananda (Vik) Wall                PRECINCT 1                                             01 
01070030002000001000000000001000000000000000000LIB       Railroad Commissioner                                   Vivekananda (Vik) Wall                PRECINCT 2                                             01 
01070030003000008000003000005000000000000000000LIB       Railroad Commissioner                                   Vivekananda (Vik) Wall                PRECINCT 025                                           01 
01070030004000017000010000007000000000000000000LIB       Railroad Commissioner                                   Vivekananda (Vik) Wall                PRECINCT 3                                             01 
01070030005000006000002000004000000000000000000LIB       Railroad Commissioner                                   Vivekananda (Vik) Wall                PRECINCT 4                                             01 
01070030006000003000001000002000000000000000000LIB       Railroad Commissioner                                   Vivekananda (Vik) Wall                PRECINCT 046                                           01 
01070040001000013000007000006000000000000000000GRN       Railroad Commissioner                                   Chris Kennedy                         PRECINCT 1                                             01 
01070040002000003000002000001000000000000000000GRN       Railroad Commissioner                                   Chris Kennedy                         PRECINCT 2                                             01 
01070040003000002000000000002000000000000000000GRN       Railroad Commissioner                                   Chris Kennedy                         PRECINCT 025                                           01 
01070040004000015000009000006000000000000000000GRN       Railroad Commissioner                                   Chris Kennedy                         PRECINCT 3                                             01 
01070040005000010000004000006000000000000000000GRN       Railroad Commissioner                                   Chris Kennedy                         PRECINCT 4                                             01 
01070040006000009000004000005000000000000000000GRN       Railroad Commissioner                                   Chris Kennedy                         PRECINCT 046                                           01 
01070050001000000000000000000000000000000000000          Railroad Commissioner                                   OVER VOTES                            PRECINCT 1                                             01 
01070050002000000000000000000000000000000000000          Railroad Commissioner                                   OVER VOTES                            PRECINCT 2                                             01 
01070050003000000000000000000000000000000000000          Railroad Commissioner                                   OVER VOTES                            PRECINCT 025                                           01 
01070050004000001000001000000000000000000000000          Railroad Commissioner                                   OVER VOTES                            PRECINCT 3                                             01 
01070050005000000000000000000000000000000000000          Railroad Commissioner                                   OVER VOTES                            PRECINCT 4                                             01 
01070050006000000000000000000000000000000000000          Railroad Commissioner                                   OVER VOTES                            PRECINCT 046                                           01 
01070060001000048000038000010000000000000000000          Railroad Commissioner                                   UNDER VOTES                           PRECINCT 1                                             01 
01070060002000013000000000013000000000000000000          Railroad Commissioner                                   UNDER VOTES                           PRECINCT 2                                             01 
01070060003000029000011000018000000000000000000          Railroad Commissioner                                   UNDER VOTES                           PRECINCT 025                                           01 
01070060004000045000025000020000000000000000000          Railroad Commissioner                                   UNDER VOTES                           PRECINCT 3                                             01 
01070060005000032000014000018000000000000000000          Railroad Commissioner                                   UNDER VOTES                           PRECINCT 4                                             01 
01070060006000022000013000009000000000000000000          Railroad Commissioner                                   UNDER VOTES                           PRECINCT 046                                           01 
01080010001000412000273000139000000000000000000REP       Railroad Commissioner, Unexpired Term                   Barry Smitherman                      PRECINCT 1                                             01 
01080010002000143000039000103000001000000000000REP       Railroad Commissioner, Unexpired Term                   Barry Smitherman                      PRECINCT 2                                             01 
01080010003000197000129000068000000000000000000REP       Railroad Commissioner, Unexpired Term                   Barry Smitherman                      PRECINCT 025                                           01 
01080010004000375000247000128000000000000000000REP       Railroad Commissioner, Unexpired Term                   Barry Smitherman                      PRECINCT 3                                             01 
01080010005000214000098000115000001000000000000REP       Railroad Commissioner, Unexpired Term                   Barry Smitherman                      PRECINCT 4                                             01 
01080010006000201000142000059000000000000000000REP       Railroad Commissioner, Unexpired Term                   Barry Smitherman                      PRECINCT 046                                           01 
01080020001000072000041000031000000000000000000LIB       Railroad Commissioner, Unexpired Term                   Jaime O. Perez                        PRECINCT 1                                             01 
01080020002000009000001000008000000000000000000LIB       Railroad Commissioner, Unexpired Term                   Jaime O. Perez                        PRECINCT 2                                             01 
01080020003000046000031000015000000000000000000LIB       Railroad Commissioner, Unexpired Term                   Jaime O. Perez                        PRECINCT 025                                           01 
01080020004000077000039000038000000000000000000LIB       Railroad Commissioner, Unexpired Term                   Jaime O. Perez                        PRECINCT 3                                             01 
01080020005000062000017000045000000000000000000LIB       Railroad Commissioner, Unexpired Term                   Jaime O. Perez                        PRECINCT 4                                             01 
01080020006000031000017000014000000000000000000LIB       Railroad Commissioner, Unexpired Term                   Jaime O. Perez                        PRECINCT 046                                           01 
01080030001000027000018000009000000000000000000GRN       Railroad Commissioner, Unexpired Term                   Josh Wendel                           PRECINCT 1                                             01 
01080030002000002000000000002000000000000000000GRN       Railroad Commissioner, Unexpired Term                   Josh Wendel                           PRECINCT 2                                             01 
01080030003000009000005000004000000000000000000GRN       Railroad Commissioner, Unexpired Term                   Josh Wendel                           PRECINCT 025                                           01 
01080030004000020000013000007000000000000000000GRN       Railroad Commissioner, Unexpired Term                   Josh Wendel                           PRECINCT 3                                             01 
01080030005000017000000000017000000000000000000GRN       Railroad Commissioner, Unexpired Term                   Josh Wendel                           PRECINCT 4                                             01 
01080030006000013000005000007000000000001000000GRN       Railroad Commissioner, Unexpired Term                   Josh Wendel                           PRECINCT 046                                           01 
01080040001000000000000000000000000000000000000          Railroad Commissioner, Unexpired Term                   OVER VOTES                            PRECINCT 1                                             01 
01080040002000000000000000000000000000000000000          Railroad Commissioner, Unexpired Term                   OVER VOTES                            PRECINCT 2                                             01 
01080040003000000000000000000000000000000000000          Railroad Commissioner, Unexpired Term                   OVER VOTES                            PRECINCT 025                                           01 
01080040004000000000000000000000000000000000000          Railroad Commissioner, Unexpired Term                   OVER VOTES                            PRECINCT 3                                             01 
01080040005000000000000000000000000000000000000          Railroad Commissioner, Unexpired Term                   OVER VOTES                            PRECINCT 4                                             01 
01080040006000000000000000000000000000000000000          Railroad Commissioner, Unexpired Term                   OVER VOTES                            PRECINCT 046                                           01 
01080050001000086000062000024000000000000000000          Railroad Commissioner, Unexpired Term                   UNDER VOTES                           PRECINCT 1                                             01 
01080050002000020000001000019000000000000000000          Railroad Commissioner, Unexpired Term                   UNDER VOTES                           PRECINCT 2                                             01 
01080050003000078000032000046000000000000000000          Railroad Commissioner, Unexpired Term                   UNDER VOTES                           PRECINCT 025                                           01 
01080050004000109000060000049000000000000000000          Railroad Commissioner, Unexpired Term                   UNDER VOTES                           PRECINCT 3                                             01 
01080050005000072000026000046000000000000000000          Railroad Commissioner, Unexpired Term                   UNDER VOTES                           PRECINCT 4                                             01 
01080050006000054000034000019000000000001000000          Railroad Commissioner, Unexpired Term                   UNDER VOTES                           PRECINCT 046                                           01 
01090010001000442000291000151000000000000000000REP       Justice, Supreme Court, Place 2                         Don Willett                           PRECINCT 1                                             01 
01090010002000147000039000107000001000000000000REP       Justice, Supreme Court, Place 2                         Don Willett                           PRECINCT 2                                             01 
01090010003000210000137000073000000000000000000REP       Justice, Supreme Court, Place 2                         Don Willett                           PRECINCT 025                                           01 
01090010004000399000260000139000000000000000000REP       Justice, Supreme Court, Place 2                         Don Willett                           PRECINCT 3                                             01 
01090010005000244000103000140000001000000000000REP       Justice, Supreme Court, Place 2                         Don Willett                           PRECINCT 4                                             01 
01090010006000210000147000063000000000000000000REP       Justice, Supreme Court, Place 2                         Don Willett                           PRECINCT 046                                           01 
01090020001000058000032000026000000000000000000LIB       Justice, Supreme Court, Place 2                         RS Roberto Koelsch                    PRECINCT 1                                             01 
01090020002000005000000000005000000000000000000LIB       Justice, Supreme Court, Place 2                         RS Roberto Koelsch                    PRECINCT 2                                             01 
01090020003000042000028000014000000000000000000LIB       Justice, Supreme Court, Place 2                         RS Roberto Koelsch                    PRECINCT 025                                           01 
01090020004000071000038000033000000000000000000LIB       Justice, Supreme Court, Place 2                         RS Roberto Koelsch                    PRECINCT 3                                             01 
01090020005000047000012000035000000000000000000LIB       Justice, Supreme Court, Place 2                         RS Roberto Koelsch                    PRECINCT 4                                             01 
01090020006000029000016000013000000000000000000LIB       Justice, Supreme Court, Place 2                         RS Roberto Koelsch                    PRECINCT 046                                           01 
01090030001000000000000000000000000000000000000          Justice, Supreme Court, Place 2                         OVER VOTES                            PRECINCT 1                                             01 
01090030002000000000000000000000000000000000000          Justice, Supreme Court, Place 2                         OVER VOTES                            PRECINCT 2                                             01 
01090030003000000000000000000000000000000000000          Justice, Supreme Court, Place 2                         OVER VOTES                            PRECINCT 025                                           01 
01090030004000000000000000000000000000000000000          Justice, Supreme Court, Place 2                         OVER VOTES                            PRECINCT 3                                             01 
01090030005000000000000000000000000000000000000          Justice, Supreme Court, Place 2                         OVER VOTES                            PRECINCT 4                                             01 
01090030006000000000000000000000000000000000000          Justice, Supreme Court, Place 2                         OVER VOTES                            PRECINCT 046                                           01 
01090040001000097000071000026000000000000000000          Justice, Supreme Court, Place 2                         UNDER VOTES                           PRECINCT 1                                             01 
01090040002000022000002000020000000000000000000          Justice, Supreme Court, Place 2                         UNDER VOTES                           PRECINCT 2                                             01 
01090040003000078000032000046000000000000000000          Justice, Supreme Court, Place 2                         UNDER VOTES                           PRECINCT 025                                           01 
01090040004000111000061000050000000000000000000          Justice, Supreme Court, Place 2                         UNDER VOTES                           PRECINCT 3                                             01 
01090040005000074000026000048000000000000000000          Justice, Supreme Court, Place 2                         UNDER VOTES                           PRECINCT 4                                             01 
01090040006000060000035000023000000000002000000          Justice, Supreme Court, Place 2                         UNDER VOTES                           PRECINCT 046                                           01 
01100010001000424000281000143000000000000000000REP       Justice, Supreme Court, Place 4                         John Devine                           PRECINCT 1                                             01 
01100010002000143000039000103000001000000000000REP       Justice, Supreme Court, Place 4                         John Devine                           PRECINCT 2                                             01 
01100010003000207000137000070000000000000000000REP       Justice, Supreme Court, Place 4                         John Devine                           PRECINCT 025                                           01 
01100010004000376000244000132000000000000000000REP       Justice, Supreme Court, Place 4                         John Devine                           PRECINCT 3                                             01 
01100010005000227000097000129000001000000000000REP       Justice, Supreme Court, Place 4                         John Devine                           PRECINCT 4                                             01 
01100010006000208000146000062000000000000000000REP       Justice, Supreme Court, Place 4                         John Devine                           PRECINCT 046                                           01 
01100020001000060000034000026000000000000000000LIB       Justice, Supreme Court, Place 4                         Tom Oxford                            PRECINCT 1                                             01 
01100020002000008000000000008000000000000000000LIB       Justice, Supreme Court, Place 4                         Tom Oxford                            PRECINCT 2                                             01 
01100020003000041000026000015000000000000000000LIB       Justice, Supreme Court, Place 4                         Tom Oxford                            PRECINCT 025                                           01 
01100020004000072000039000033000000000000000000LIB       Justice, Supreme Court, Place 4                         Tom Oxford                            PRECINCT 3                                             01 
01100020005000045000014000031000000000000000000LIB       Justice, Supreme Court, Place 4                         Tom Oxford                            PRECINCT 4                                             01 
01100020006000027000014000013000000000000000000LIB       Justice, Supreme Court, Place 4                         Tom Oxford                            PRECINCT 046                                           01 
01100030001000015000009000006000000000000000000GRN       Justice, Supreme Court, Place 4                         Charles E. Waterbury                  PRECINCT 1                                             01 
01100030002000003000000000003000000000000000000GRN       Justice, Supreme Court, Place 4                         Charles E. Waterbury                  PRECINCT 2                                             01 
01100030003000007000003000004000000000000000000GRN       Justice, Supreme Court, Place 4                         Charles E. Waterbury                  PRECINCT 025                                           01 
01100030004000029000017000012000000000000000000GRN       Justice, Supreme Court, Place 4                         Charles E. Waterbury                  PRECINCT 3                                             01 
01100030005000019000005000014000000000000000000GRN       Justice, Supreme Court, Place 4                         Charles E. Waterbury                  PRECINCT 4                                             01 
01100030006000010000005000004000000000001000000GRN       Justice, Supreme Court, Place 4                         Charles E. Waterbury                  PRECINCT 046                                           01 
01100040001000000000000000000000000000000000000          Justice, Supreme Court, Place 4                         OVER VOTES                            PRECINCT 1                                             01 
01100040002000000000000000000000000000000000000          Justice, Supreme Court, Place 4                         OVER VOTES                            PRECINCT 2                                             01 
01100040003000000000000000000000000000000000000          Justice, Supreme Court, Place 4                         OVER VOTES                            PRECINCT 025                                           01 
01100040004000000000000000000000000000000000000          Justice, Supreme Court, Place 4                         OVER VOTES                            PRECINCT 3                                             01 
01100040005000000000000000000000000000000000000          Justice, Supreme Court, Place 4                         OVER VOTES                            PRECINCT 4                                             01 
01100040006000000000000000000000000000000000000          Justice, Supreme Court, Place 4                         OVER VOTES                            PRECINCT 046                                           01 
01100050001000098000070000028000000000000000000          Justice, Supreme Court, Place 4                         UNDER VOTES                           PRECINCT 1                                             01 
01100050002000020000002000018000000000000000000          Justice, Supreme Court, Place 4                         UNDER VOTES                           PRECINCT 2                                             01 
01100050003000075000031000044000000000000000000          Justice, Supreme Court, Place 4                         UNDER VOTES                           PRECINCT 025                                           01 
01100050004000104000059000045000000000000000000          Justice, Supreme Court, Place 4                         UNDER VOTES                           PRECINCT 3                                             01 
01100050005000074000025000049000000000000000000          Justice, Supreme Court, Place 4                         UNDER VOTES                           PRECINCT 4                                             01 
01100050006000054000033000020000000000001000000          Justice, Supreme Court, Place 4                         UNDER VOTES                           PRECINCT 046                                           01 
01110010001000357000241000116000000000000000000REP       Justice, Supreme Court, Place 6                         Nathan Hecht                          PRECINCT 1                                             01 
01110010002000130000036000093000001000000000000REP       Justice, Supreme Court, Place 6                         Nathan Hecht                          PRECINCT 2                                             01 
01110010003000174000113000061000000000000000000REP       Justice, Supreme Court, Place 6                         Nathan Hecht                          PRECINCT 025                                           01 
01110010004000334000221000113000000000000000000REP       Justice, Supreme Court, Place 6                         Nathan Hecht                          PRECINCT 3                                             01 
01110010005000194000088000105000001000000000000REP       Justice, Supreme Court, Place 6                         Nathan Hecht                          PRECINCT 4                                             01 
01110010006000181000130000051000000000000000000REP       Justice, Supreme Court, Place 6                         Nathan Hecht                          PRECINCT 046                                           01 
01110020001000148000089000059000000000000000000DEM       Justice, Supreme Court, Place 6                         Michele Petty                         PRECINCT 1                                             01 
01110020002000025000004000021000000000000000000DEM       Justice, Supreme Court, Place 6                         Michele Petty                         PRECINCT 2                                             01 
01110020003000111000065000046000000000000000000DEM       Justice, Supreme Court, Place 6                         Michele Petty                         PRECINCT 025                                           01 
01110020004000160000089000071000000000000000000DEM       Justice, Supreme Court, Place 6                         Michele Petty                         PRECINCT 3                                             01 
01110020005000099000027000072000000000000000000DEM       Justice, Supreme Court, Place 6                         Michele Petty                         PRECINCT 4                                             01 
01110020006000079000047000030000000000002000000DEM       Justice, Supreme Court, Place 6                         Michele Petty                         PRECINCT 046                                           01 
01110030001000016000012000004000000000000000000LIB       Justice, Supreme Court, Place 6                         Mark Ash                              PRECINCT 1                                             01 
01110030002000002000000000002000000000000000000LIB       Justice, Supreme Court, Place 6                         Mark Ash                              PRECINCT 2                                             01 
01110030003000012000006000006000000000000000000LIB       Justice, Supreme Court, Place 6                         Mark Ash                              PRECINCT 025                                           01 
01110030004000022000013000009000000000000000000LIB       Justice, Supreme Court, Place 6                         Mark Ash                              PRECINCT 3                                             01 
01110030005000013000004000009000000000000000000LIB       Justice, Supreme Court, Place 6                         Mark Ash                              PRECINCT 4                                             01 
01110030006000008000003000005000000000000000000LIB       Justice, Supreme Court, Place 6                         Mark Ash                              PRECINCT 046                                           01 
01110040001000013000007000006000000000000000000GRN       Justice, Supreme Court, Place 6                         Jim Chisholm                          PRECINCT 1                                             01 
01110040002000002000000000002000000000000000000GRN       Justice, Supreme Court, Place 6                         Jim Chisholm                          PRECINCT 2                                             01 
01110040003000003000001000002000000000000000000GRN       Justice, Supreme Court, Place 6                         Jim Chisholm                          PRECINCT 025                                           01 
01110040004000014000008000006000000000000000000GRN       Justice, Supreme Court, Place 6                         Jim Chisholm                          PRECINCT 3                                             01 
01110040005000016000005000011000000000000000000GRN       Justice, Supreme Court, Place 6                         Jim Chisholm                          PRECINCT 4                                             01 
01110040006000006000003000003000000000000000000GRN       Justice, Supreme Court, Place 6                         Jim Chisholm                          PRECINCT 046                                           01 
01110050001000000000000000000000000000000000000          Justice, Supreme Court, Place 6                         OVER VOTES                            PRECINCT 1                                             01 
01110050002000000000000000000000000000000000000          Justice, Supreme Court, Place 6                         OVER VOTES                            PRECINCT 2                                             01 
01110050003000000000000000000000000000000000000          Justice, Supreme Court, Place 6                         OVER VOTES                            PRECINCT 025                                           01 
01110050004000001000000000001000000000000000000          Justice, Supreme Court, Place 6                         OVER VOTES                            PRECINCT 3                                             01 
01110050005000000000000000000000000000000000000          Justice, Supreme Court, Place 6                         OVER VOTES                            PRECINCT 4                                             01 
01110050006000000000000000000000000000000000000          Justice, Supreme Court, Place 6                         OVER VOTES                            PRECINCT 046                                           01 
01110060001000063000045000018000000000000000000          Justice, Supreme Court, Place 6                         UNDER VOTES                           PRECINCT 1                                             01 
01110060002000015000001000014000000000000000000          Justice, Supreme Court, Place 6                         UNDER VOTES                           PRECINCT 2                                             01 
01110060003000030000012000018000000000000000000          Justice, Supreme Court, Place 6                         UNDER VOTES                           PRECINCT 025                                           01 
01110060004000050000028000022000000000000000000          Justice, Supreme Court, Place 6                         UNDER VOTES                           PRECINCT 3                                             01 
01110060005000043000017000026000000000000000000          Justice, Supreme Court, Place 6                         UNDER VOTES                           PRECINCT 4                                             01 
01110060006000025000015000010000000000000000000          Justice, Supreme Court, Place 6                         UNDER VOTES                           PRECINCT 046                                           01 
01120010001000379000254000125000000000000000000REP       Presiding Judge, CT of Criminal Appeals                 Sharon  Keller                        PRECINCT 1                                             01 
01120010002000139000038000100000001000000000000REP       Presiding Judge, CT of Criminal Appeals                 Sharon  Keller                        PRECINCT 2                                             01 
01120010003000177000111000066000000000000000000REP       Presiding Judge, CT of Criminal Appeals                 Sharon  Keller                        PRECINCT 025                                           01 
01120010004000342000227000115000000000000000000REP       Presiding Judge, CT of Criminal Appeals                 Sharon  Keller                        PRECINCT 3                                             01 
01120010005000199000088000110000001000000000000REP       Presiding Judge, CT of Criminal Appeals                 Sharon  Keller                        PRECINCT 4                                             01 
01120010006000174000125000049000000000000000000REP       Presiding Judge, CT of Criminal Appeals                 Sharon  Keller                        PRECINCT 046                                           01 
01120020001000140000084000056000000000000000000DEM       Presiding Judge, CT of Criminal Appeals                 Keith Hampton                         PRECINCT 1                                             01 
01120020002000016000002000014000000000000000000DEM       Presiding Judge, CT of Criminal Appeals                 Keith Hampton                         PRECINCT 2                                             01 
01120020003000109000066000043000000000000000000DEM       Presiding Judge, CT of Criminal Appeals                 Keith Hampton                         PRECINCT 025                                           01 
01120020004000160000091000069000000000000000000DEM       Presiding Judge, CT of Criminal Appeals                 Keith Hampton                         PRECINCT 3                                             01 
01120020005000101000028000073000000000000000000DEM       Presiding Judge, CT of Criminal Appeals                 Keith Hampton                         PRECINCT 4                                             01 
01120020006000084000050000032000000000002000000DEM       Presiding Judge, CT of Criminal Appeals                 Keith Hampton                         PRECINCT 046                                           01 
01120030001000014000010000004000000000000000000LIB       Presiding Judge, CT of Criminal Appeals                 Lance Stott                           PRECINCT 1                                             01 
01120030002000004000001000003000000000000000000LIB       Presiding Judge, CT of Criminal Appeals                 Lance Stott                           PRECINCT 2                                             01 
01120030003000010000007000003000000000000000000LIB       Presiding Judge, CT of Criminal Appeals                 Lance Stott                           PRECINCT 025                                           01 
01120030004000025000011000014000000000000000000LIB       Presiding Judge, CT of Criminal Appeals                 Lance Stott                           PRECINCT 3                                             01 
01120030005000021000005000016000000000000000000LIB       Presiding Judge, CT of Criminal Appeals                 Lance Stott                           PRECINCT 4                                             01 
01120030006000014000007000007000000000000000000LIB       Presiding Judge, CT of Criminal Appeals                 Lance Stott                           PRECINCT 046                                           01 
01120040001000000000000000000000000000000000000          Presiding Judge, CT of Criminal Appeals                 OVER VOTES                            PRECINCT 1                                             01 
01120040002000000000000000000000000000000000000          Presiding Judge, CT of Criminal Appeals                 OVER VOTES                            PRECINCT 2                                             01 
01120040003000000000000000000000000000000000000          Presiding Judge, CT of Criminal Appeals                 OVER VOTES                            PRECINCT 025                                           01 
01120040004000000000000000000000000000000000000          Presiding Judge, CT of Criminal Appeals                 OVER VOTES                            PRECINCT 3                                             01 
01120040005000000000000000000000000000000000000          Presiding Judge, CT of Criminal Appeals                 OVER VOTES                            PRECINCT 4                                             01 
01120040006000000000000000000000000000000000000          Presiding Judge, CT of Criminal Appeals                 OVER VOTES                            PRECINCT 046                                           01 
01120050001000064000046000018000000000000000000          Presiding Judge, CT of Criminal Appeals                 UNDER VOTES                           PRECINCT 1                                             01 
01120050002000015000000000015000000000000000000          Presiding Judge, CT of Criminal Appeals                 UNDER VOTES                           PRECINCT 2                                             01 
01120050003000034000013000021000000000000000000          Presiding Judge, CT of Criminal Appeals                 UNDER VOTES                           PRECINCT 025                                           01 
01120050004000054000030000024000000000000000000          Presiding Judge, CT of Criminal Appeals                 UNDER VOTES                           PRECINCT 3                                             01 
01120050005000044000020000024000000000000000000          Presiding Judge, CT of Criminal Appeals                 UNDER VOTES                           PRECINCT 4                                             01 
01120050006000027000016000011000000000000000000          Presiding Judge, CT of Criminal Appeals                 UNDER VOTES                           PRECINCT 046                                           01 
01130010001000403000271000132000000000000000000REP       Judge, Court of Criminal Appeals, Pl 7                  Barbara Parker Hervey                 PRECINCT 1                                             01 
01130010002000139000038000100000001000000000000REP       Judge, Court of Criminal Appeals, Pl 7                  Barbara Parker Hervey                 PRECINCT 2                                             01 
01130010003000203000131000072000000000000000000REP       Judge, Court of Criminal Appeals, Pl 7                  Barbara Parker Hervey                 PRECINCT 025                                           01 
01130010004000375000241000134000000000000000000REP       Judge, Court of Criminal Appeals, Pl 7                  Barbara Parker Hervey                 PRECINCT 3                                             01 
01130010005000232000098000133000001000000000000REP       Judge, Court of Criminal Appeals, Pl 7                  Barbara Parker Hervey                 PRECINCT 4                                             01 
01130010006000199000139000060000000000000000000REP       Judge, Court of Criminal Appeals, Pl 7                  Barbara Parker Hervey                 PRECINCT 046                                           01 
01130020001000092000050000042000000000000000000LIB       Judge, Court of Criminal Appeals, Pl 7                  Mark W. Bennett                       PRECINCT 1                                             01 
01130020002000013000001000012000000000000000000LIB       Judge, Court of Criminal Appeals, Pl 7                  Mark W. Bennett                       PRECINCT 2                                             01 
01130020003000045000031000014000000000000000000LIB       Judge, Court of Criminal Appeals, Pl 7                  Mark W. Bennett                       PRECINCT 025                                           01 
01130020004000091000055000036000000000000000000LIB       Judge, Court of Criminal Appeals, Pl 7                  Mark W. Bennett                       PRECINCT 3                                             01 
01130020005000057000016000041000000000000000000LIB       Judge, Court of Criminal Appeals, Pl 7                  Mark W. Bennett                       PRECINCT 4                                             01 
01130020006000041000022000019000000000000000000LIB       Judge, Court of Criminal Appeals, Pl 7                  Mark W. Bennett                       PRECINCT 046                                           01 
01130030001000000000000000000000000000000000000          Judge, Court of Criminal Appeals, Pl 7                  OVER VOTES                            PRECINCT 1                                             01 
01130030002000000000000000000000000000000000000          Judge, Court of Criminal Appeals, Pl 7                  OVER VOTES                            PRECINCT 2                                             01 
01130030003000000000000000000000000000000000000          Judge, Court of Criminal Appeals, Pl 7                  OVER VOTES                            PRECINCT 025                                           01 
01130030004000000000000000000000000000000000000          Judge, Court of Criminal Appeals, Pl 7                  OVER VOTES                            PRECINCT 3                                             01 
01130030005000000000000000000000000000000000000          Judge, Court of Criminal Appeals, Pl 7                  OVER VOTES                            PRECINCT 4                                             01 
01130030006000000000000000000000000000000000000          Judge, Court of Criminal Appeals, Pl 7                  OVER VOTES                            PRECINCT 046                                           01 
01130040001000102000073000029000000000000000000          Judge, Court of Criminal Appeals, Pl 7                  UNDER VOTES                           PRECINCT 1                                             01 
01130040002000022000002000020000000000000000000          Judge, Court of Criminal Appeals, Pl 7                  UNDER VOTES                           PRECINCT 2                                             01 
01130040003000082000035000047000000000000000000          Judge, Court of Criminal Appeals, Pl 7                  UNDER VOTES                           PRECINCT 025                                           01 
01130040004000115000063000052000000000000000000          Judge, Court of Criminal Appeals, Pl 7                  UNDER VOTES                           PRECINCT 3                                             01 
01130040005000076000027000049000000000000000000          Judge, Court of Criminal Appeals, Pl 7                  UNDER VOTES                           PRECINCT 4                                             01 
01130040006000059000037000020000000000002000000          Judge, Court of Criminal Appeals, Pl 7                  UNDER VOTES                           PRECINCT 046                                           01 
01140010001000398000258000140000000000000000000REP       Judge, Court of Criminal Appeals, Pl 8                  Elsa Alcala                           PRECINCT 1                                             01 
01140010002000133000035000097000001000000000000REP       Judge, Court of Criminal Appeals, Pl 8                  Elsa Alcala                           PRECINCT 2                                             01 
01140010003000194000127000067000000000000000000REP       Judge, Court of Criminal Appeals, Pl 8                  Elsa Alcala                           PRECINCT 025                                           01 
01140010004000356000236000120000000000000000000REP       Judge, Court of Criminal Appeals, Pl 8                  Elsa Alcala                           PRECINCT 3                                             01 
01140010005000225000090000134000001000000000000REP       Judge, Court of Criminal Appeals, Pl 8                  Elsa Alcala                           PRECINCT 4                                             01 
01140010006000194000136000058000000000000000000REP       Judge, Court of Criminal Appeals, Pl 8                  Elsa Alcala                           PRECINCT 046                                           01 
01140020001000103000065000038000000000000000000LIB       Judge, Court of Criminal Appeals, Pl 8                  William Bryan Strange, III            PRECINCT 1                                             01 
01140020002000021000004000017000000000000000000LIB       Judge, Court of Criminal Appeals, Pl 8                  William Bryan Strange, III            PRECINCT 2                                             01 
01140020003000055000035000020000000000000000000LIB       Judge, Court of Criminal Appeals, Pl 8                  William Bryan Strange, III            PRECINCT 025                                           01 
01140020004000111000063000048000000000000000000LIB       Judge, Court of Criminal Appeals, Pl 8                  William Bryan Strange, III            PRECINCT 3                                             01 
01140020005000065000024000041000000000000000000LIB       Judge, Court of Criminal Appeals, Pl 8                  William Bryan Strange, III            PRECINCT 4                                             01 
01140020006000050000030000020000000000000000000LIB       Judge, Court of Criminal Appeals, Pl 8                  William Bryan Strange, III            PRECINCT 046                                           01 
01140030001000000000000000000000000000000000000          Judge, Court of Criminal Appeals, Pl 8                  OVER VOTES                            PRECINCT 1                                             01 
01140030002000000000000000000000000000000000000          Judge, Court of Criminal Appeals, Pl 8                  OVER VOTES                            PRECINCT 2                                             01 
01140030003000000000000000000000000000000000000          Judge, Court of Criminal Appeals, Pl 8                  OVER VOTES                            PRECINCT 025                                           01 
01140030004000000000000000000000000000000000000          Judge, Court of Criminal Appeals, Pl 8                  OVER VOTES                            PRECINCT 3                                             01 
01140030005000000000000000000000000000000000000          Judge, Court of Criminal Appeals, Pl 8                  OVER VOTES                            PRECINCT 4                                             01 
01140030006000000000000000000000000000000000000          Judge, Court of Criminal Appeals, Pl 8                  OVER VOTES                            PRECINCT 046                                           01 
01140040001000096000071000025000000000000000000          Judge, Court of Criminal Appeals, Pl 8                  UNDER VOTES                           PRECINCT 1                                             01 
01140040002000020000002000018000000000000000000          Judge, Court of Criminal Appeals, Pl 8                  UNDER VOTES                           PRECINCT 2                                             01 
01140040003000081000035000046000000000000000000          Judge, Court of Criminal Appeals, Pl 8                  UNDER VOTES                           PRECINCT 025                                           01 
01140040004000114000060000054000000000000000000          Judge, Court of Criminal Appeals, Pl 8                  UNDER VOTES                           PRECINCT 3                                             01 
01140040005000075000027000048000000000000000000          Judge, Court of Criminal Appeals, Pl 8                  UNDER VOTES                           PRECINCT 4                                             01 
01140040006000055000032000021000000000002000000          Judge, Court of Criminal Appeals, Pl 8                  UNDER VOTES                           PRECINCT 046                                           01 
01150010001000401000263000138000000000000000000REP       Member, State BoE, District 15                          Marty Rowley                          PRECINCT 1                                             01 
01150010002000137000037000099000001000000000000REP       Member, State BoE, District 15                          Marty Rowley                          PRECINCT 2                                             01 
01150010003000189000119000070000000000000000000REP       Member, State BoE, District 15                          Marty Rowley                          PRECINCT 025                                           01 
01150010004000365000239000126000000000000000000REP       Member, State BoE, District 15                          Marty Rowley                          PRECINCT 3                                             01 
01150010005000221000100000120000001000000000000REP       Member, State BoE, District 15                          Marty Rowley                          PRECINCT 4                                             01 
01150010006000195000130000065000000000000000000REP       Member, State BoE, District 15                          Marty Rowley                          PRECINCT 046                                           01 
01150020001000139000087000052000000000000000000DEM       Member, State BoE, District 15                          Steven D. Schafersman                 PRECINCT 1                                             01 
01150020002000026000003000023000000000000000000DEM       Member, State BoE, District 15                          Steven D. Schafersman                 PRECINCT 2                                             01 
01150020003000106000065000041000000000000000000DEM       Member, State BoE, District 15                          Steven D. Schafersman                 PRECINCT 025                                           01 
01150020004000161000088000073000000000000000000DEM       Member, State BoE, District 15                          Steven D. Schafersman                 PRECINCT 3                                             01 
01150020005000103000024000079000000000000000000DEM       Member, State BoE, District 15                          Steven D. Schafersman                 PRECINCT 4                                             01 
01150020006000078000053000023000000000002000000DEM       Member, State BoE, District 15                          Steven D. Schafersman                 PRECINCT 046                                           01 
01150030001000000000000000000000000000000000000          Member, State BoE, District 15                          OVER VOTES                            PRECINCT 1                                             01 
01150030002000000000000000000000000000000000000          Member, State BoE, District 15                          OVER VOTES                            PRECINCT 2                                             01 
01150030003000000000000000000000000000000000000          Member, State BoE, District 15                          OVER VOTES                            PRECINCT 025                                           01 
01150030004000000000000000000000000000000000000          Member, State BoE, District 15                          OVER VOTES                            PRECINCT 3                                             01 
01150030005000000000000000000000000000000000000          Member, State BoE, District 15                          OVER VOTES                            PRECINCT 4                                             01 
01150030006000000000000000000000000000000000000          Member, State BoE, District 15                          OVER VOTES                            PRECINCT 046                                           01 
01150040001000057000044000013000000000000000000          Member, State BoE, District 15                          UNDER VOTES                           PRECINCT 1                                             01 
01150040002000011000001000010000000000000000000          Member, State BoE, District 15                          UNDER VOTES                           PRECINCT 2                                             01 
01150040003000035000013000022000000000000000000          Member, State BoE, District 15                          UNDER VOTES                           PRECINCT 025                                           01 
01150040004000055000032000023000000000000000000          Member, State BoE, District 15                          UNDER VOTES                           PRECINCT 3                                             01 
01150040005000041000017000024000000000000000000          Member, State BoE, District 15                          UNDER VOTES                           PRECINCT 4                                             01 
01150040006000026000015000011000000000000000000          Member, State BoE, District 15                          UNDER VOTES                           PRECINCT 046                                           01 
01160010001000446000294000152000000000000000000REP       State Senator, District 28                              Robert Duncan                         PRECINCT 1                                             01 
01160010002000146000039000106000001000000000000REP       State Senator, District 28                              Robert Duncan                         PRECINCT 2                                             01 
01160010003000213000139000074000000000000000000REP       State Senator, District 28                              Robert Duncan                         PRECINCT 025                                           01 
01160010004000394000258000136000000000000000000REP       State Senator, District 28                              Robert Duncan                         PRECINCT 3                                             01 
01160010005000242000104000137000001000000000000REP       State Senator, District 28                              Robert Duncan                         PRECINCT 4                                             01 
01160010006000218000153000065000000000000000000REP       State Senator, District 28                              Robert Duncan                         PRECINCT 046                                           01 
01160020001000071000044000027000000000000000000LIB       State Senator, District 28                              M.J. (Smitty) Smith                   PRECINCT 1                                             01 
01160020002000009000000000009000000000000000000LIB       State Senator, District 28                              M.J. (Smitty) Smith                   PRECINCT 2                                             01 
01160020003000043000027000016000000000000000000LIB       State Senator, District 28                              M.J. (Smitty) Smith                   PRECINCT 025                                           01 
01160020004000079000044000035000000000000000000LIB       State Senator, District 28                              M.J. (Smitty) Smith                   PRECINCT 3                                             01 
01160020005000055000014000041000000000000000000LIB       State Senator, District 28                              M.J. (Smitty) Smith                   PRECINCT 4                                             01 
01160020006000030000015000015000000000000000000LIB       State Senator, District 28                              M.J. (Smitty) Smith                   PRECINCT 046                                           01 
01160030001000000000000000000000000000000000000          State Senator, District 28                              OVER VOTES                            PRECINCT 1                                             01 
01160030002000000000000000000000000000000000000          State Senator, District 28                              OVER VOTES                            PRECINCT 2                                             01 
01160030003000000000000000000000000000000000000          State Senator, District 28                              OVER VOTES                            PRECINCT 025                                           01 
01160030004000000000000000000000000000000000000          State Senator, District 28                              OVER VOTES                            PRECINCT 3                                             01 
01160030005000000000000000000000000000000000000          State Senator, District 28                              OVER VOTES                            PRECINCT 4                                             01 
01160030006000000000000000000000000000000000000          State Senator, District 28                              OVER VOTES                            PRECINCT 046                                           01 
01160040001000080000056000024000000000000000000          State Senator, District 28                              UNDER VOTES                           PRECINCT 1                                             01 
01160040002000019000002000017000000000000000000          State Senator, District 28                              UNDER VOTES                           PRECINCT 2                                             01 
01160040003000074000031000043000000000000000000          State Senator, District 28                              UNDER VOTES                           PRECINCT 025                                           01 
01160040004000108000057000051000000000000000000          State Senator, District 28                              UNDER VOTES                           PRECINCT 3                                             01 
01160040005000068000023000045000000000000000000          State Senator, District 28                              UNDER VOTES                           PRECINCT 4                                             01 
01160040006000051000030000019000000000002000000          State Senator, District 28                              UNDER VOTES                           PRECINCT 046                                           01 
01170010001000480000316000164000000000000000000REP       State Representative, District 83                       Charles Perry                         PRECINCT 1                                             01 
01170010002000148000039000108000001000000000000REP       State Representative, District 83                       Charles Perry                         PRECINCT 2                                             01 
01170010003000235000154000081000000000000000000REP       State Representative, District 83                       Charles Perry                         PRECINCT 025                                           01 
01170010004000434000278000156000000000000000000REP       State Representative, District 83                       Charles Perry                         PRECINCT 3                                             01 
01170010005000267000112000154000001000000000000REP       State Representative, District 83                       Charles Perry                         PRECINCT 4                                             01 
01170010006000226000155000071000000000000000000REP       State Representative, District 83                       Charles Perry                         PRECINCT 046                                           01 
01170020001000000000000000000000000000000000000          State Representative, District 83                       OVER VOTES                            PRECINCT 1                                             01 
01170020002000000000000000000000000000000000000          State Representative, District 83                       OVER VOTES                            PRECINCT 2                                             01 
01170020003000000000000000000000000000000000000          State Representative, District 83                       OVER VOTES                            PRECINCT 025                                           01 
01170020004000000000000000000000000000000000000          State Representative, District 83                       OVER VOTES                            PRECINCT 3                                             01 
01170020005000000000000000000000000000000000000          State Representative, District 83                       OVER VOTES                            PRECINCT 4                                             01 
01170020006000000000000000000000000000000000000          State Representative, District 83                       OVER VOTES                            PRECINCT 046                                           01 
01170030001000117000078000039000000000000000000          State Representative, District 83                       UNDER VOTES                           PRECINCT 1                                             01 
01170030002000026000002000024000000000000000000          State Representative, District 83                       UNDER VOTES                           PRECINCT 2                                             01 
01170030003000095000043000052000000000000000000          State Representative, District 83                       UNDER VOTES                           PRECINCT 025                                           01 
01170030004000147000081000066000000000000000000          State Representative, District 83                       UNDER VOTES                           PRECINCT 3                                             01 
01170030005000098000029000069000000000000000000          State Representative, District 83                       UNDER VOTES                           PRECINCT 4                                             01 
01170030006000073000043000028000000000002000000          State Representative, District 83                       UNDER VOTES                           PRECINCT 046                                           01 
01180010001000471000310000161000000000000000000REP       Chief Justice, 11th Court of Appeals                    Jim R. Wright                         PRECINCT 1                                             01 
01180010002000150000039000110000001000000000000REP       Chief Justice, 11th Court of Appeals                    Jim R. Wright                         PRECINCT 2                                             01 
01180010003000230000152000078000000000000000000REP       Chief Justice, 11th Court of Appeals                    Jim R. Wright                         PRECINCT 025                                           01 
01180010004000429000274000155000000000000000000REP       Chief Justice, 11th Court of Appeals                    Jim R. Wright                         PRECINCT 3                                             01 
01180010005000265000110000154000001000000000000REP       Chief Justice, 11th Court of Appeals                    Jim R. Wright                         PRECINCT 4                                             01 
01180010006000216000150000066000000000000000000REP       Chief Justice, 11th Court of Appeals                    Jim R. Wright                         PRECINCT 046                                           01 
01180020001000000000000000000000000000000000000          Chief Justice, 11th Court of Appeals                    OVER VOTES                            PRECINCT 1                                             01 
01180020002000000000000000000000000000000000000          Chief Justice, 11th Court of Appeals                    OVER VOTES                            PRECINCT 2                                             01 
01180020003000000000000000000000000000000000000          Chief Justice, 11th Court of Appeals                    OVER VOTES                            PRECINCT 025                                           01 
01180020004000000000000000000000000000000000000          Chief Justice, 11th Court of Appeals                    OVER VOTES                            PRECINCT 3                                             01 
01180020005000000000000000000000000000000000000          Chief Justice, 11th Court of Appeals                    OVER VOTES                            PRECINCT 4                                             01 
01180020006000000000000000000000000000000000000          Chief Justice, 11th Court of Appeals                    OVER VOTES                            PRECINCT 046                                           01 
01180030001000126000084000042000000000000000000          Chief Justice, 11th Court of Appeals                    UNDER VOTES                           PRECINCT 1                                             01 
01180030002000024000002000022000000000000000000          Chief Justice, 11th Court of Appeals                    UNDER VOTES                           PRECINCT 2                                             01 
01180030003000100000045000055000000000000000000          Chief Justice, 11th Court of Appeals                    UNDER VOTES                           PRECINCT 025                                           01 
01180030004000152000085000067000000000000000000          Chief Justice, 11th Court of Appeals                    UNDER VOTES                           PRECINCT 3                                             01 
01180030005000100000031000069000000000000000000          Chief Justice, 11th Court of Appeals                    UNDER VOTES                           PRECINCT 4                                             01 
01180030006000083000048000033000000000002000000          Chief Justice, 11th Court of Appeals                    UNDER VOTES                           PRECINCT 046                                           01 
01190010001000468000305000163000000000000000000REP       Justice, 11th Court of Appeals Dist, P2                 Mike Willson                          PRECINCT 1                                             01 
01190010002000149000039000109000001000000000000REP       Justice, 11th Court of Appeals Dist, P2                 Mike Willson                          PRECINCT 2                                             01 
01190010003000229000152000077000000000000000000REP       Justice, 11th Court of Appeals Dist, P2                 Mike Willson                          PRECINCT 025                                           01 
01190010004000425000274000151000000000000000000REP       Justice, 11th Court of Appeals Dist, P2                 Mike Willson                          PRECINCT 3                                             01 
01190010005000261000109000152000000000000000000REP       Justice, 11th Court of Appeals Dist, P2                 Mike Willson                          PRECINCT 4                                             01 
01190010006000219000154000065000000000000000000REP       Justice, 11th Court of Appeals Dist, P2                 Mike Willson                          PRECINCT 046                                           01 
01190020001000000000000000000000000000000000000          Justice, 11th Court of Appeals Dist, P2                 OVER VOTES                            PRECINCT 1                                             01 
01190020002000000000000000000000000000000000000          Justice, 11th Court of Appeals Dist, P2                 OVER VOTES                            PRECINCT 2                                             01 
01190020003000000000000000000000000000000000000          Justice, 11th Court of Appeals Dist, P2                 OVER VOTES                            PRECINCT 025                                           01 
01190020004000000000000000000000000000000000000          Justice, 11th Court of Appeals Dist, P2                 OVER VOTES                            PRECINCT 3                                             01 
01190020005000000000000000000000000000000000000          Justice, 11th Court of Appeals Dist, P2                 OVER VOTES                            PRECINCT 4                                             01 
01190020006000000000000000000000000000000000000          Justice, 11th Court of Appeals Dist, P2                 OVER VOTES                            PRECINCT 046                                           01 
01190030001000129000089000040000000000000000000          Justice, 11th Court of Appeals Dist, P2                 UNDER VOTES                           PRECINCT 1                                             01 
01190030002000025000002000023000000000000000000          Justice, 11th Court of Appeals Dist, P2                 UNDER VOTES                           PRECINCT 2                                             01 
01190030003000101000045000056000000000000000000          Justice, 11th Court of Appeals Dist, P2                 UNDER VOTES                           PRECINCT 025                                           01 
01190030004000156000085000071000000000000000000          Justice, 11th Court of Appeals Dist, P2                 UNDER VOTES                           PRECINCT 3                                             01 
01190030005000104000032000071000001000000000000          Justice, 11th Court of Appeals Dist, P2                 UNDER VOTES                           PRECINCT 4                                             01 
01190030006000080000044000034000000000002000000          Justice, 11th Court of Appeals Dist, P2                 UNDER VOTES                           PRECINCT 046                                           01 
01200010001000494000325000169000000000000000000REP       District Judge, 32nd Judicial District                  Glen Harrison                         PRECINCT 1                                             01 
01200010002000148000037000110000001000000000000REP       District Judge, 32nd Judicial District                  Glen Harrison                         PRECINCT 2                                             01 
01200010003000235000156000079000000000000000000REP       District Judge, 32nd Judicial District                  Glen Harrison                         PRECINCT 025                                           01 
01200010004000446000286000160000000000000000000REP       District Judge, 32nd Judicial District                  Glen Harrison                         PRECINCT 3                                             01 
01200010005000268000111000156000001000000000000REP       District Judge, 32nd Judicial District                  Glen Harrison                         PRECINCT 4                                             01 
01200010006000225000157000068000000000000000000REP       District Judge, 32nd Judicial District                  Glen Harrison                         PRECINCT 046                                           01 
01200020001000000000000000000000000000000000000          District Judge, 32nd Judicial District                  OVER VOTES                            PRECINCT 1                                             01 
01200020002000000000000000000000000000000000000          District Judge, 32nd Judicial District                  OVER VOTES                            PRECINCT 2                                             01 
01200020003000000000000000000000000000000000000          District Judge, 32nd Judicial District                  OVER VOTES                            PRECINCT 025                                           01 
01200020004000000000000000000000000000000000000          District Judge, 32nd Judicial District                  OVER VOTES                            PRECINCT 3                                             01 
01200020005000000000000000000000000000000000000          District Judge, 32nd Judicial District                  OVER VOTES                            PRECINCT 4                                             01 
01200020006000000000000000000000000000000000000          District Judge, 32nd Judicial District                  OVER VOTES                            PRECINCT 046                                           01 
01200030001000103000069000034000000000000000000          District Judge, 32nd Judicial District                  UNDER VOTES                           PRECINCT 1                                             01 
01200030002000026000004000022000000000000000000          District Judge, 32nd Judicial District                  UNDER VOTES                           PRECINCT 2                                             01 
01200030003000095000041000054000000000000000000          District Judge, 32nd Judicial District                  UNDER VOTES                           PRECINCT 025                                           01 
01200030004000135000073000062000000000000000000          District Judge, 32nd Judicial District                  UNDER VOTES                           PRECINCT 3                                             01 
01200030005000097000030000067000000000000000000          District Judge, 32nd Judicial District                  UNDER VOTES                           PRECINCT 4                                             01 
01200030006000074000041000031000000000002000000          District Judge, 32nd Judicial District                  UNDER VOTES                           PRECINCT 046                                           01 
01210010001000499000331000168000000000000000000REP       District Attorney, 32nd Judicial Dist                   Ann Reed                              PRECINCT 1                                             01 
01210010002000151000038000112000001000000000000REP       District Attorney, 32nd Judicial Dist                   Ann Reed                              PRECINCT 2                                             01 
01210010003000235000154000081000000000000000000REP       District Attorney, 32nd Judicial Dist                   Ann Reed                              PRECINCT 025                                           01 
01210010004000446000287000159000000000000000000REP       District Attorney, 32nd Judicial Dist                   Ann Reed                              PRECINCT 3                                             01 
01210010005000281000115000165000001000000000000REP       District Attorney, 32nd Judicial Dist                   Ann Reed                              PRECINCT 4                                             01 
01210010006000237000164000073000000000000000000REP       District Attorney, 32nd Judicial Dist                   Ann Reed                              PRECINCT 046                                           01 
01210020001000000000000000000000000000000000000          District Attorney, 32nd Judicial Dist                   OVER VOTES                            PRECINCT 1                                             01 
01210020002000000000000000000000000000000000000          District Attorney, 32nd Judicial Dist                   OVER VOTES                            PRECINCT 2                                             01 
01210020003000000000000000000000000000000000000          District Attorney, 32nd Judicial Dist                   OVER VOTES                            PRECINCT 025                                           01 
01210020004000000000000000000000000000000000000          District Attorney, 32nd Judicial Dist                   OVER VOTES                            PRECINCT 3                                             01 
01210020005000000000000000000000000000000000000          District Attorney, 32nd Judicial Dist                   OVER VOTES                            PRECINCT 4                                             01 
