01030010001000580REP       STRAIGHT PARTY                                          REPUBLICAN PARTY                      Precinct 101                                           01 
01030010002000483REP       STRAIGHT PARTY                                          REPUBLICAN PARTY                      Precinct 201                                           01 
01030010003000511REP       STRAIGHT PARTY                                          REPUBLICAN PARTY                      Precinct 202                                           01 
01030010004000017REP       STRAIGHT PARTY                                          REPUBLICAN PARTY                      Precinct 203                                           01 
01030010005000301REP       STRAIGHT PARTY                                          REPUBLICAN PARTY                      Precinct 301                                           01 
01030010006000276REP       STRAIGHT PARTY                                          REPUBLICAN PARTY                      Precinct 401                                           01 
01030010007000026REP       STRAIGHT PARTY                                          REPUBLICAN PARTY                      Precinct 402                                           01 
01030020001000161DEM       STRAIGHT PARTY                                          DEMOCRATIC PARTY                      Precinct 101                                           01 
01030020002000072DEM       STRAIGHT PARTY                                          DEMOCRATIC PARTY                      Precinct 201                                           01 
01030020003000044DEM       STRAIGHT PARTY                                          DEMOCRATIC PARTY                      Precinct 202                                           01 
01030020004000003DEM       STRAIGHT PARTY                                          DEMOCRATIC PARTY                      Precinct 203                                           01 
01030020005000153DEM       STRAIGHT PARTY                                          DEMOCRATIC PARTY                      Precinct 301                                           01 
01030020006000044DEM       STRAIGHT PARTY                                          DEMOCRATIC PARTY                      Precinct 401                                           01 
01030020007000110DEM       STRAIGHT PARTY                                          DEMOCRATIC PARTY                      Precinct 402                                           01 
01030030001000006LIB       STRAIGHT PARTY                                          LIBERTARIAN PARTY                     Precinct 101                                           01 
01030030002000001LIB       STRAIGHT PARTY                                          LIBERTARIAN PARTY                     Precinct 201                                           01 
01030030003000004LIB       STRAIGHT PARTY                                          LIBERTARIAN PARTY                     Precinct 202                                           01 
01030030004000000LIB       STRAIGHT PARTY                                          LIBERTARIAN PARTY                     Precinct 203                                           01 
01030030005000003LIB       STRAIGHT PARTY                                          LIBERTARIAN PARTY                     Precinct 301                                           01 
01030030006000003LIB       STRAIGHT PARTY                                          LIBERTARIAN PARTY                     Precinct 401                                           01 
01030030007000000LIB       STRAIGHT PARTY                                          LIBERTARIAN PARTY                     Precinct 402                                           01 
01030040001000000GRN       STRAIGHT PARTY                                          GREEN PARTY                           Precinct 101                                           01 
01030040002000002GRN       STRAIGHT PARTY                                          GREEN PARTY                           Precinct 201                                           01 
01030040003000001GRN       STRAIGHT PARTY                                          GREEN PARTY                           Precinct 202                                           01 
01030040004000000GRN       STRAIGHT PARTY                                          GREEN PARTY                           Precinct 203                                           01 
01030040005000002GRN       STRAIGHT PARTY                                          GREEN PARTY                           Precinct 301                                           01 
01030040006000001GRN       STRAIGHT PARTY                                          GREEN PARTY                           Precinct 401                                           01 
01030040007000001GRN       STRAIGHT PARTY                                          GREEN PARTY                           Precinct 402                                           01 
01030050001000000          STRAIGHT PARTY                                          OVER VOTES                            Precinct 101                                           01 
01030050002000000          STRAIGHT PARTY                                          OVER VOTES                            Precinct 201                                           01 
01030050003000000          STRAIGHT PARTY                                          OVER VOTES                            Precinct 202                                           01 
01030050004000000          STRAIGHT PARTY                                          OVER VOTES                            Precinct 203                                           01 
01030050005000000          STRAIGHT PARTY                                          OVER VOTES                            Precinct 301                                           01 
01030050006000000          STRAIGHT PARTY                                          OVER VOTES                            Precinct 401                                           01 
01030050007000000          STRAIGHT PARTY                                          OVER VOTES                            Precinct 402                                           01 
01030060001000565          STRAIGHT PARTY                                          UNDER VOTES                           Precinct 101                                           01 
01030060002000516          STRAIGHT PARTY                                          UNDER VOTES                           Precinct 201                                           01 
01030060003000518          STRAIGHT PARTY                                          UNDER VOTES                           Precinct 202                                           01 
01030060004000021          STRAIGHT PARTY                                          UNDER VOTES                           Precinct 203                                           01 
01030060005000291          STRAIGHT PARTY                                          UNDER VOTES                           Precinct 301                                           01 
01030060006000256          STRAIGHT PARTY                                          UNDER VOTES                           Precinct 401                                           01 
01030060007000048          STRAIGHT PARTY                                          UNDER VOTES                           Precinct 402                                           01 
01040010001001019REP       President and Vice-President MOORE COUNTYWIDE           Mitt Romney / Paul Ryan               Precinct 101                                           01 
01040010002000929REP       President and Vice-President MOORE COUNTYWIDE           Mitt Romney / Paul Ryan               Precinct 201                                           01 
01040010003000956REP       President and Vice-President MOORE COUNTYWIDE           Mitt Romney / Paul Ryan               Precinct 202                                           01 
01040010004000030REP       President and Vice-President MOORE COUNTYWIDE           Mitt Romney / Paul Ryan               Precinct 203                                           01 
01040010005000501REP       President and Vice-President MOORE COUNTYWIDE           Mitt Romney / Paul Ryan               Precinct 301                                           01 
01040010006000488REP       President and Vice-President MOORE COUNTYWIDE           Mitt Romney / Paul Ryan               Precinct 401                                           01 
01040010007000045REP       President and Vice-President MOORE COUNTYWIDE           Mitt Romney / Paul Ryan               Precinct 402                                           01 
01040020001000269DEM       President and Vice-President MOORE COUNTYWIDE           Barack Obama / Joe Biden              Precinct 101                                           01 
01040020002000129DEM       President and Vice-President MOORE COUNTYWIDE           Barack Obama / Joe Biden              Precinct 201                                           01 
01040020003000109DEM       President and Vice-President MOORE COUNTYWIDE           Barack Obama / Joe Biden              Precinct 202                                           01 
01040020004000010DEM       President and Vice-President MOORE COUNTYWIDE           Barack Obama / Joe Biden              Precinct 203                                           01 
01040020005000231DEM       President and Vice-President MOORE COUNTYWIDE           Barack Obama / Joe Biden              Precinct 301                                           01 
01040020006000080DEM       President and Vice-President MOORE COUNTYWIDE           Barack Obama / Joe Biden              Precinct 401                                           01 
01040020007000136DEM       President and Vice-President MOORE COUNTYWIDE           Barack Obama / Joe Biden              Precinct 402                                           01 
01040030001000013LIB       President and Vice-President MOORE COUNTYWIDE           Gary Johnson / Jim Gray               Precinct 101                                           01 
01040030002000014LIB       President and Vice-President MOORE COUNTYWIDE           Gary Johnson / Jim Gray               Precinct 201                                           01 
01040030003000006LIB       President and Vice-President MOORE COUNTYWIDE           Gary Johnson / Jim Gray               Precinct 202                                           01 
01040030004000001LIB       President and Vice-President MOORE COUNTYWIDE           Gary Johnson / Jim Gray               Precinct 203                                           01 
01040030005000005LIB       President and Vice-President MOORE COUNTYWIDE           Gary Johnson / Jim Gray               Precinct 301                                           01 
01040030006000005LIB       President and Vice-President MOORE COUNTYWIDE           Gary Johnson / Jim Gray               Precinct 401                                           01 
01040030007000001LIB       President and Vice-President MOORE COUNTYWIDE           Gary Johnson / Jim Gray               Precinct 402                                           01 
01040040001000002GRN       President and Vice-President MOORE COUNTYWIDE           Jill Stein / Cheri Honkala            Precinct 101                                           01 
01040040002000000GRN       President and Vice-President MOORE COUNTYWIDE           Jill Stein / Cheri Honkala            Precinct 201                                           01 
01040040003000000GRN       President and Vice-President MOORE COUNTYWIDE           Jill Stein / Cheri Honkala            Precinct 202                                           01 
01040040004000000GRN       President and Vice-President MOORE COUNTYWIDE           Jill Stein / Cheri Honkala            Precinct 203                                           01 
01040040005000002GRN       President and Vice-President MOORE COUNTYWIDE           Jill Stein / Cheri Honkala            Precinct 301                                           01 
01040040006000003GRN       President and Vice-President MOORE COUNTYWIDE           Jill Stein / Cheri Honkala            Precinct 401                                           01 
01040040007000001GRN       President and Vice-President MOORE COUNTYWIDE           Jill Stein / Cheri Honkala            Precinct 402                                           01 
01040050001000000NON       President and Vice-President MOORE COUNTYWIDE           WRITE-IN                              Precinct 101                                           01 
01040050002000000NON       President and Vice-President MOORE COUNTYWIDE           WRITE-IN                              Precinct 201                                           01 
01040050003000002NON       President and Vice-President MOORE COUNTYWIDE           WRITE-IN                              Precinct 202                                           01 
01040050004000000NON       President and Vice-President MOORE COUNTYWIDE           WRITE-IN                              Precinct 203                                           01 
01040050005000000NON       President and Vice-President MOORE COUNTYWIDE           WRITE-IN                              Precinct 301                                           01 
01040050006000000NON       President and Vice-President MOORE COUNTYWIDE           WRITE-IN                              Precinct 401                                           01 
01040050007000000NON       President and Vice-President MOORE COUNTYWIDE           WRITE-IN                              Precinct 402                                           01 
01040060001000000          President and Vice-President MOORE COUNTYWIDE           OVER VOTES                            Precinct 101                                           01 
01040060002000000          President and Vice-President MOORE COUNTYWIDE           OVER VOTES                            Precinct 201                                           01 
01040060003000000          President and Vice-President MOORE COUNTYWIDE           OVER VOTES                            Precinct 202                                           01 
01040060004000000          President and Vice-President MOORE COUNTYWIDE           OVER VOTES                            Precinct 203                                           01 
01040060005000000          President and Vice-President MOORE COUNTYWIDE           OVER VOTES                            Precinct 301                                           01 
01040060006000000          President and Vice-President MOORE COUNTYWIDE           OVER VOTES                            Precinct 401                                           01 
01040060007000000          President and Vice-President MOORE COUNTYWIDE           OVER VOTES                            Precinct 402                                           01 
01040070001000009          President and Vice-President MOORE COUNTYWIDE           UNDER VOTES                           Precinct 101                                           01 
01040070002000002          President and Vice-President MOORE COUNTYWIDE           UNDER VOTES                           Precinct 201                                           01 
01040070003000005          President and Vice-President MOORE COUNTYWIDE           UNDER VOTES                           Precinct 202                                           01 
01040070004000000          President and Vice-President MOORE COUNTYWIDE           UNDER VOTES                           Precinct 203                                           01 
01040070005000012          President and Vice-President MOORE COUNTYWIDE           UNDER VOTES                           Precinct 301                                           01 
01040070006000005          President and Vice-President MOORE COUNTYWIDE           UNDER VOTES                           Precinct 401                                           01 
01040070007000002          President and Vice-President MOORE COUNTYWIDE           UNDER VOTES                           Precinct 402                                           01 
01050010001000991REP       United States Senator MOORE COUNTYWIDE                  Ted Cruz                              Precinct 101                                           01 
01050010002000916REP       United States Senator MOORE COUNTYWIDE                  Ted Cruz                              Precinct 201                                           01 
01050010003000926REP       United States Senator MOORE COUNTYWIDE                  Ted Cruz                              Precinct 202                                           01 
01050010004000032REP       United States Senator MOORE COUNTYWIDE                  Ted Cruz                              Precinct 203                                           01 
01050010005000495REP       United States Senator MOORE COUNTYWIDE                  Ted Cruz                              Precinct 301                                           01 
01050010006000463REP       United States Senator MOORE COUNTYWIDE                  Ted Cruz                              Precinct 401                                           01 
01050010007000049REP       United States Senator MOORE COUNTYWIDE                  Ted Cruz                              Precinct 402                                           01 
01050020001000252DEM       United States Senator MOORE COUNTYWIDE                  Paul Sadler                           Precinct 101                                           01 
01050020002000119DEM       United States Senator MOORE COUNTYWIDE                  Paul Sadler                           Precinct 201                                           01 
01050020003000103DEM       United States Senator MOORE COUNTYWIDE                  Paul Sadler                           Precinct 202                                           01 
01050020004000008DEM       United States Senator MOORE COUNTYWIDE                  Paul Sadler                           Precinct 203                                           01 
01050020005000195DEM       United States Senator MOORE COUNTYWIDE                  Paul Sadler                           Precinct 301                                           01 
01050020006000082DEM       United States Senator MOORE COUNTYWIDE                  Paul Sadler                           Precinct 401                                           01 
01050020007000113DEM       United States Senator MOORE COUNTYWIDE                  Paul Sadler                           Precinct 402                                           01 
01050030001000023LIB       United States Senator MOORE COUNTYWIDE                  John Jay Myers                        Precinct 101                                           01 
01050030002000016LIB       United States Senator MOORE COUNTYWIDE                  John Jay Myers                        Precinct 201                                           01 
01050030003000016LIB       United States Senator MOORE COUNTYWIDE                  John Jay Myers                        Precinct 202                                           01 
01050030004000001LIB       United States Senator MOORE COUNTYWIDE                  John Jay Myers                        Precinct 203                                           01 
01050030005000017LIB       United States Senator MOORE COUNTYWIDE                  John Jay Myers                        Precinct 301                                           01 
01050030006000014LIB       United States Senator MOORE COUNTYWIDE                  John Jay Myers                        Precinct 401                                           01 
01050030007000000LIB       United States Senator MOORE COUNTYWIDE                  John Jay Myers                        Precinct 402                                           01 
01050040001000004GRN       United States Senator MOORE COUNTYWIDE                  David B. Collins                      Precinct 101                                           01 
01050040002000006GRN       United States Senator MOORE COUNTYWIDE                  David B. Collins                      Precinct 201                                           01 
01050040003000010GRN       United States Senator MOORE COUNTYWIDE                  David B. Collins                      Precinct 202                                           01 
01050040004000000GRN       United States Senator MOORE COUNTYWIDE                  David B. Collins                      Precinct 203                                           01 
01050040005000006GRN       United States Senator MOORE COUNTYWIDE                  David B. Collins                      Precinct 301                                           01 
01050040006000006GRN       United States Senator MOORE COUNTYWIDE                  David B. Collins                      Precinct 401                                           01 
01050040007000004GRN       United States Senator MOORE COUNTYWIDE                  David B. Collins                      Precinct 402                                           01 
01050050001000000          United States Senator MOORE COUNTYWIDE                  OVER VOTES                            Precinct 101                                           01 
01050050002000000          United States Senator MOORE COUNTYWIDE                  OVER VOTES                            Precinct 201                                           01 
01050050003000000          United States Senator MOORE COUNTYWIDE                  OVER VOTES                            Precinct 202                                           01 
01050050004000000          United States Senator MOORE COUNTYWIDE                  OVER VOTES                            Precinct 203                                           01 
01050050005000000          United States Senator MOORE COUNTYWIDE                  OVER VOTES                            Precinct 301                                           01 
01050050006000000          United States Senator MOORE COUNTYWIDE                  OVER VOTES                            Precinct 401                                           01 
01050050007000000          United States Senator MOORE COUNTYWIDE                  OVER VOTES                            Precinct 402                                           01 
01050060001000042          United States Senator MOORE COUNTYWIDE                  UNDER VOTES                           Precinct 101                                           01 
01050060002000017          United States Senator MOORE COUNTYWIDE                  UNDER VOTES                           Precinct 201                                           01 
01050060003000023          United States Senator MOORE COUNTYWIDE                  UNDER VOTES                           Precinct 202                                           01 
01050060004000000          United States Senator MOORE COUNTYWIDE                  UNDER VOTES                           Precinct 203                                           01 
01050060005000038          United States Senator MOORE COUNTYWIDE                  UNDER VOTES                           Precinct 301                                           01 
01050060006000016          United States Senator MOORE COUNTYWIDE                  UNDER VOTES                           Precinct 401                                           01 
01050060007000019          United States Senator MOORE COUNTYWIDE                  UNDER VOTES                           Precinct 402                                           01 
01060010001001074REP       United States Rep, District 13 MOORE COUNTYWIDE         Mac Thornberry                        Precinct 101                                           01 
01060010002000945REP       United States Rep, District 13 MOORE COUNTYWIDE         Mac Thornberry                        Precinct 201                                           01 
01060010003000972REP       United States Rep, District 13 MOORE COUNTYWIDE         Mac Thornberry                        Precinct 202                                           01 
01060010004000034REP       United States Rep, District 13 MOORE COUNTYWIDE         Mac Thornberry                        Precinct 203                                           01 
01060010005000541REP       United States Rep, District 13 MOORE COUNTYWIDE         Mac Thornberry                        Precinct 301                                           01 
01060010006000499REP       United States Rep, District 13 MOORE COUNTYWIDE         Mac Thornberry                        Precinct 401                                           01 
01060010007000054REP       United States Rep, District 13 MOORE COUNTYWIDE         Mac Thornberry                        Precinct 402                                           01 
01060020001000055LIB       United States Rep, District 13 MOORE COUNTYWIDE         John Robert Deek                      Precinct 101                                           01 
01060020002000042LIB       United States Rep, District 13 MOORE COUNTYWIDE         John Robert Deek                      Precinct 201                                           01 
01060020003000033LIB       United States Rep, District 13 MOORE COUNTYWIDE         John Robert Deek                      Precinct 202                                           01 
01060020004000001LIB       United States Rep, District 13 MOORE COUNTYWIDE         John Robert Deek                      Precinct 203                                           01 
01060020005000036LIB       United States Rep, District 13 MOORE COUNTYWIDE         John Robert Deek                      Precinct 301                                           01 
01060020006000026LIB       United States Rep, District 13 MOORE COUNTYWIDE         John Robert Deek                      Precinct 401                                           01 
01060020007000013LIB       United States Rep, District 13 MOORE COUNTYWIDE         John Robert Deek                      Precinct 402                                           01 
01060030001000023GRN       United States Rep, District 13 MOORE COUNTYWIDE         Keith F. Houston                      Precinct 101                                           01 
01060030002000015GRN       United States Rep, District 13 MOORE COUNTYWIDE         Keith F. Houston                      Precinct 201                                           01 
01060030003000015GRN       United States Rep, District 13 MOORE COUNTYWIDE         Keith F. Houston                      Precinct 202                                           01 
01060030004000003GRN       United States Rep, District 13 MOORE COUNTYWIDE         Keith F. Houston                      Precinct 203                                           01 
01060030005000012GRN       United States Rep, District 13 MOORE COUNTYWIDE         Keith F. Houston                      Precinct 301                                           01 
01060030006000010GRN       United States Rep, District 13 MOORE COUNTYWIDE         Keith F. Houston                      Precinct 401                                           01 
01060030007000007GRN       United States Rep, District 13 MOORE COUNTYWIDE         Keith F. Houston                      Precinct 402                                           01 
01060040001000000          United States Rep, District 13 MOORE COUNTYWIDE         OVER VOTES                            Precinct 101                                           01 
01060040002000000          United States Rep, District 13 MOORE COUNTYWIDE         OVER VOTES                            Precinct 201                                           01 
01060040003000000          United States Rep, District 13 MOORE COUNTYWIDE         OVER VOTES                            Precinct 202                                           01 
01060040004000000          United States Rep, District 13 MOORE COUNTYWIDE         OVER VOTES                            Precinct 203                                           01 
01060040005000000          United States Rep, District 13 MOORE COUNTYWIDE         OVER VOTES                            Precinct 301                                           01 
01060040006000000          United States Rep, District 13 MOORE COUNTYWIDE         OVER VOTES                            Precinct 401                                           01 
01060040007000000          United States Rep, District 13 MOORE COUNTYWIDE         OVER VOTES                            Precinct 402                                           01 
01060050001000160          United States Rep, District 13 MOORE COUNTYWIDE         UNDER VOTES                           Precinct 101                                           01 
01060050002000072          United States Rep, District 13 MOORE COUNTYWIDE         UNDER VOTES                           Precinct 201                                           01 
01060050003000058          United States Rep, District 13 MOORE COUNTYWIDE         UNDER VOTES                           Precinct 202                                           01 
01060050004000003          United States Rep, District 13 MOORE COUNTYWIDE         UNDER VOTES                           Precinct 203                                           01 
01060050005000162          United States Rep, District 13 MOORE COUNTYWIDE         UNDER VOTES                           Precinct 301                                           01 
01060050006000046          United States Rep, District 13 MOORE COUNTYWIDE         UNDER VOTES                           Precinct 401                                           01 
01060050007000111          United States Rep, District 13 MOORE COUNTYWIDE         UNDER VOTES                           Precinct 402                                           01 
01070010001000971REP       Railroad Commissioner MOORE COUNTYWIDE                  Christi Craddick                      Precinct 101                                           01 
01070010002000884REP       Railroad Commissioner MOORE COUNTYWIDE                  Christi Craddick                      Precinct 201                                           01 
01070010003000913REP       Railroad Commissioner MOORE COUNTYWIDE                  Christi Craddick                      Precinct 202                                           01 
01070010004000030REP       Railroad Commissioner MOORE COUNTYWIDE                  Christi Craddick                      Precinct 203                                           01 
01070010005000472REP       Railroad Commissioner MOORE COUNTYWIDE                  Christi Craddick                      Precinct 301                                           01 
01070010006000458REP       Railroad Commissioner MOORE COUNTYWIDE                  Christi Craddick                      Precinct 401                                           01 
01070010007000038REP       Railroad Commissioner MOORE COUNTYWIDE                  Christi Craddick                      Precinct 402                                           01 
01070020001000259DEM       Railroad Commissioner MOORE COUNTYWIDE                  Dale Henry                            Precinct 101                                           01 
01070020002000125DEM       Railroad Commissioner MOORE COUNTYWIDE                  Dale Henry                            Precinct 201                                           01 
01070020003000099DEM       Railroad Commissioner MOORE COUNTYWIDE                  Dale Henry                            Precinct 202                                           01 
01070020004000007DEM       Railroad Commissioner MOORE COUNTYWIDE                  Dale Henry                            Precinct 203                                           01 
01070020005000211DEM       Railroad Commissioner MOORE COUNTYWIDE                  Dale Henry                            Precinct 301                                           01 
01070020006000080DEM       Railroad Commissioner MOORE COUNTYWIDE                  Dale Henry                            Precinct 401                                           01 
01070020007000121DEM       Railroad Commissioner MOORE COUNTYWIDE                  Dale Henry                            Precinct 402                                           01 
01070030001000011LIB       Railroad Commissioner MOORE COUNTYWIDE                  Vivekananda (Vik) Wall                Precinct 101                                           01 
01070030002000014LIB       Railroad Commissioner MOORE COUNTYWIDE                  Vivekananda (Vik) Wall                Precinct 201                                           01 
01070030003000012LIB       Railroad Commissioner MOORE COUNTYWIDE                  Vivekananda (Vik) Wall                Precinct 202                                           01 
01070030004000001LIB       Railroad Commissioner MOORE COUNTYWIDE                  Vivekananda (Vik) Wall                Precinct 203                                           01 
01070030005000007LIB       Railroad Commissioner MOORE COUNTYWIDE                  Vivekananda (Vik) Wall                Precinct 301                                           01 
01070030006000008LIB       Railroad Commissioner MOORE COUNTYWIDE                  Vivekananda (Vik) Wall                Precinct 401                                           01 
01070030007000002LIB       Railroad Commissioner MOORE COUNTYWIDE                  Vivekananda (Vik) Wall                Precinct 402                                           01 
01070040001000018GRN       Railroad Commissioner MOORE COUNTYWIDE                  Chris Kennedy                         Precinct 101                                           01 
01070040002000017GRN       Railroad Commissioner MOORE COUNTYWIDE                  Chris Kennedy                         Precinct 201                                           01 
01070040003000013GRN       Railroad Commissioner MOORE COUNTYWIDE                  Chris Kennedy                         Precinct 202                                           01 
01070040004000002GRN       Railroad Commissioner MOORE COUNTYWIDE                  Chris Kennedy                         Precinct 203                                           01 
01070040005000011GRN       Railroad Commissioner MOORE COUNTYWIDE                  Chris Kennedy                         Precinct 301                                           01 
01070040006000011GRN       Railroad Commissioner MOORE COUNTYWIDE                  Chris Kennedy                         Precinct 401                                           01 
01070040007000003GRN       Railroad Commissioner MOORE COUNTYWIDE                  Chris Kennedy                         Precinct 402                                           01 
01070050001000000          Railroad Commissioner MOORE COUNTYWIDE                  OVER VOTES                            Precinct 101                                           01 
01070050002000000          Railroad Commissioner MOORE COUNTYWIDE                  OVER VOTES                            Precinct 201                                           01 
01070050003000000          Railroad Commissioner MOORE COUNTYWIDE                  OVER VOTES                            Precinct 202                                           01 
01070050004000000          Railroad Commissioner MOORE COUNTYWIDE                  OVER VOTES                            Precinct 203                                           01 
01070050005000000          Railroad Commissioner MOORE COUNTYWIDE                  OVER VOTES                            Precinct 301                                           01 
01070050006000000          Railroad Commissioner MOORE COUNTYWIDE                  OVER VOTES                            Precinct 401                                           01 
01070050007000000          Railroad Commissioner MOORE COUNTYWIDE                  OVER VOTES                            Precinct 402                                           01 
01070060001000053          Railroad Commissioner MOORE COUNTYWIDE                  UNDER VOTES                           Precinct 101                                           01 
01070060002000034          Railroad Commissioner MOORE COUNTYWIDE                  UNDER VOTES                           Precinct 201                                           01 
01070060003000041          Railroad Commissioner MOORE COUNTYWIDE                  UNDER VOTES                           Precinct 202                                           01 
01070060004000001          Railroad Commissioner MOORE COUNTYWIDE                  UNDER VOTES                           Precinct 203                                           01 
01070060005000050          Railroad Commissioner MOORE COUNTYWIDE                  UNDER VOTES                           Precinct 301                                           01 
01070060006000024          Railroad Commissioner MOORE COUNTYWIDE                  UNDER VOTES                           Precinct 401                                           01 
01070060007000021          Railroad Commissioner MOORE COUNTYWIDE                  UNDER VOTES                           Precinct 402                                           01 
01080010001001001REP       Railroad Commissioner, UNEXP MOORE COUNTYWIDE           Barry Smitherman                      Precinct 101                                           01 
01080010002000888REP       Railroad Commissioner, UNEXP MOORE COUNTYWIDE           Barry Smitherman                      Precinct 201                                           01 
01080010003000926REP       Railroad Commissioner, UNEXP MOORE COUNTYWIDE           Barry Smitherman                      Precinct 202                                           01 
01080010004000031REP       Railroad Commissioner, UNEXP MOORE COUNTYWIDE           Barry Smitherman                      Precinct 203                                           01 
01080010005000481REP       Railroad Commissioner, UNEXP MOORE COUNTYWIDE           Barry Smitherman                      Precinct 301                                           01 
01080010006000466REP       Railroad Commissioner, UNEXP MOORE COUNTYWIDE           Barry Smitherman                      Precinct 401                                           01 
01080010007000042REP       Railroad Commissioner, UNEXP MOORE COUNTYWIDE           Barry Smitherman                      Precinct 402                                           01 
01080020001000111LIB       Railroad Commissioner, UNEXP MOORE COUNTYWIDE           Jaime O. Perez                        Precinct 101                                           01 
01080020002000070LIB       Railroad Commissioner, UNEXP MOORE COUNTYWIDE           Jaime O. Perez                        Precinct 201                                           01 
01080020003000047LIB       Railroad Commissioner, UNEXP MOORE COUNTYWIDE           Jaime O. Perez                        Precinct 202                                           01 
01080020004000003LIB       Railroad Commissioner, UNEXP MOORE COUNTYWIDE           Jaime O. Perez                        Precinct 203                                           01 
01080020005000085LIB       Railroad Commissioner, UNEXP MOORE COUNTYWIDE           Jaime O. Perez                        Precinct 301                                           01 
01080020006000030LIB       Railroad Commissioner, UNEXP MOORE COUNTYWIDE           Jaime O. Perez                        Precinct 401                                           01 
01080020007000039LIB       Railroad Commissioner, UNEXP MOORE COUNTYWIDE           Jaime O. Perez                        Precinct 402                                           01 
01080030001000025GRN       Railroad Commissioner, UNEXP MOORE COUNTYWIDE           Josh Wendel                           Precinct 101                                           01 
01080030002000028GRN       Railroad Commissioner, UNEXP MOORE COUNTYWIDE           Josh Wendel                           Precinct 201                                           01 
01080030003000021GRN       Railroad Commissioner, UNEXP MOORE COUNTYWIDE           Josh Wendel                           Precinct 202                                           01 
01080030004000004GRN       Railroad Commissioner, UNEXP MOORE COUNTYWIDE           Josh Wendel                           Precinct 203                                           01 
01080030005000019GRN       Railroad Commissioner, UNEXP MOORE COUNTYWIDE           Josh Wendel                           Precinct 301                                           01 
01080030006000020GRN       Railroad Commissioner, UNEXP MOORE COUNTYWIDE           Josh Wendel                           Precinct 401                                           01 
01080030007000003GRN       Railroad Commissioner, UNEXP MOORE COUNTYWIDE           Josh Wendel                           Precinct 402                                           01 
01080040001000000          Railroad Commissioner, UNEXP MOORE COUNTYWIDE           OVER VOTES                            Precinct 101                                           01 
01080040002000000          Railroad Commissioner, UNEXP MOORE COUNTYWIDE           OVER VOTES                            Precinct 201                                           01 
01080040003000000          Railroad Commissioner, UNEXP MOORE COUNTYWIDE           OVER VOTES                            Precinct 202                                           01 
01080040004000000          Railroad Commissioner, UNEXP MOORE COUNTYWIDE           OVER VOTES                            Precinct 203                                           01 
01080040005000000          Railroad Commissioner, UNEXP MOORE COUNTYWIDE           OVER VOTES                            Precinct 301                                           01 
01080040006000000          Railroad Commissioner, UNEXP MOORE COUNTYWIDE           OVER VOTES                            Precinct 401                                           01 
01080040007000000          Railroad Commissioner, UNEXP MOORE COUNTYWIDE           OVER VOTES                            Precinct 402                                           01 
01080050001000175          Railroad Commissioner, UNEXP MOORE COUNTYWIDE           UNDER VOTES                           Precinct 101                                           01 
01080050002000088          Railroad Commissioner, UNEXP MOORE COUNTYWIDE           UNDER VOTES                           Precinct 201                                           01 
01080050003000084          Railroad Commissioner, UNEXP MOORE COUNTYWIDE           UNDER VOTES                           Precinct 202                                           01 
01080050004000003          Railroad Commissioner, UNEXP MOORE COUNTYWIDE           UNDER VOTES                           Precinct 203                                           01 
01080050005000166          Railroad Commissioner, UNEXP MOORE COUNTYWIDE           UNDER VOTES                           Precinct 301                                           01 
01080050006000065          Railroad Commissioner, UNEXP MOORE COUNTYWIDE           UNDER VOTES                           Precinct 401                                           01 
01080050007000101          Railroad Commissioner, UNEXP MOORE COUNTYWIDE           UNDER VOTES                           Precinct 402                                           01 
01090010001001027REP       Justice, Supreme Court, Place 2 MOORE COUNTYWIDE        Don Willett                           Precinct 101                                           01 
01090010002000922REP       Justice, Supreme Court, Place 2 MOORE COUNTYWIDE        Don Willett                           Precinct 201                                           01 
01090010003000945REP       Justice, Supreme Court, Place 2 MOORE COUNTYWIDE        Don Willett                           Precinct 202                                           01 
01090010004000034REP       Justice, Supreme Court, Place 2 MOORE COUNTYWIDE        Don Willett                           Precinct 203                                           01 
01090010005000517REP       Justice, Supreme Court, Place 2 MOORE COUNTYWIDE        Don Willett                           Precinct 301                                           01 
01090010006000485REP       Justice, Supreme Court, Place 2 MOORE COUNTYWIDE        Don Willett                           Precinct 401                                           01 
01090010007000051REP       Justice, Supreme Court, Place 2 MOORE COUNTYWIDE        Don Willett                           Precinct 402                                           01 
01090020001000087LIB       Justice, Supreme Court, Place 2 MOORE COUNTYWIDE        RS Roberto Koelsch                    Precinct 101                                           01 
01090020002000053LIB       Justice, Supreme Court, Place 2 MOORE COUNTYWIDE        RS Roberto Koelsch                    Precinct 201                                           01 
01090020003000047LIB       Justice, Supreme Court, Place 2 MOORE COUNTYWIDE        RS Roberto Koelsch                    Precinct 202                                           01 
01090020004000003LIB       Justice, Supreme Court, Place 2 MOORE COUNTYWIDE        RS Roberto Koelsch                    Precinct 203                                           01 
01090020005000059LIB       Justice, Supreme Court, Place 2 MOORE COUNTYWIDE        RS Roberto Koelsch                    Precinct 301                                           01 
01090020006000026LIB       Justice, Supreme Court, Place 2 MOORE COUNTYWIDE        RS Roberto Koelsch                    Precinct 401                                           01 
01090020007000031LIB       Justice, Supreme Court, Place 2 MOORE COUNTYWIDE        RS Roberto Koelsch                    Precinct 402                                           01 
01090030001000000          Justice, Supreme Court, Place 2 MOORE COUNTYWIDE        OVER VOTES                            Precinct 101                                           01 
01090030002000000          Justice, Supreme Court, Place 2 MOORE COUNTYWIDE        OVER VOTES                            Precinct 201                                           01 
01090030003000000          Justice, Supreme Court, Place 2 MOORE COUNTYWIDE        OVER VOTES                            Precinct 202                                           01 
01090030004000000          Justice, Supreme Court, Place 2 MOORE COUNTYWIDE        OVER VOTES                            Precinct 203                                           01 
01090030005000000          Justice, Supreme Court, Place 2 MOORE COUNTYWIDE        OVER VOTES                            Precinct 301                                           01 
01090030006000000          Justice, Supreme Court, Place 2 MOORE COUNTYWIDE        OVER VOTES                            Precinct 401                                           01 
01090030007000000          Justice, Supreme Court, Place 2 MOORE COUNTYWIDE        OVER VOTES                            Precinct 402                                           01 
01090040001000198          Justice, Supreme Court, Place 2 MOORE COUNTYWIDE        UNDER VOTES                           Precinct 101                                           01 
01090040002000099          Justice, Supreme Court, Place 2 MOORE COUNTYWIDE        UNDER VOTES                           Precinct 201                                           01 
01090040003000086          Justice, Supreme Court, Place 2 MOORE COUNTYWIDE        UNDER VOTES                           Precinct 202                                           01 
01090040004000004          Justice, Supreme Court, Place 2 MOORE COUNTYWIDE        UNDER VOTES                           Precinct 203                                           01 
01090040005000175          Justice, Supreme Court, Place 2 MOORE COUNTYWIDE        UNDER VOTES                           Precinct 301                                           01 
01090040006000070          Justice, Supreme Court, Place 2 MOORE COUNTYWIDE        UNDER VOTES                           Precinct 401                                           01 
01090040007000103          Justice, Supreme Court, Place 2 MOORE COUNTYWIDE        UNDER VOTES                           Precinct 402                                           01 
01100010001000981REP       Justice, Supreme Court, Place 4 MOORE COUNTYWIDE        John Devine                           Precinct 101                                           01 
01100010002000900REP       Justice, Supreme Court, Place 4 MOORE COUNTYWIDE        John Devine                           Precinct 201                                           01 
01100010003000922REP       Justice, Supreme Court, Place 4 MOORE COUNTYWIDE        John Devine                           Precinct 202                                           01 
01100010004000032REP       Justice, Supreme Court, Place 4 MOORE COUNTYWIDE        John Devine                           Precinct 203                                           01 
01100010005000499REP       Justice, Supreme Court, Place 4 MOORE COUNTYWIDE        John Devine                           Precinct 301                                           01 
01100010006000464REP       Justice, Supreme Court, Place 4 MOORE COUNTYWIDE        John Devine                           Precinct 401                                           01 
01100010007000049REP       Justice, Supreme Court, Place 4 MOORE COUNTYWIDE        John Devine                           Precinct 402                                           01 
01100020001000098LIB       Justice, Supreme Court, Place 4 MOORE COUNTYWIDE        Tom Oxford                            Precinct 101                                           01 
01100020002000052LIB       Justice, Supreme Court, Place 4 MOORE COUNTYWIDE        Tom Oxford                            Precinct 201                                           01 
01100020003000047LIB       Justice, Supreme Court, Place 4 MOORE COUNTYWIDE        Tom Oxford                            Precinct 202                                           01 
01100020004000003LIB       Justice, Supreme Court, Place 4 MOORE COUNTYWIDE        Tom Oxford                            Precinct 203                                           01 
01100020005000056LIB       Justice, Supreme Court, Place 4 MOORE COUNTYWIDE        Tom Oxford                            Precinct 301                                           01 
01100020006000029LIB       Justice, Supreme Court, Place 4 MOORE COUNTYWIDE        Tom Oxford                            Precinct 401                                           01 
01100020007000029LIB       Justice, Supreme Court, Place 4 MOORE COUNTYWIDE        Tom Oxford                            Precinct 402                                           01 
01100030001000041GRN       Justice, Supreme Court, Place 4 MOORE COUNTYWIDE        Charles E. Waterbury                  Precinct 101                                           01 
01100030002000029GRN       Justice, Supreme Court, Place 4 MOORE COUNTYWIDE        Charles E. Waterbury                  Precinct 201                                           01 
01100030003000027GRN       Justice, Supreme Court, Place 4 MOORE COUNTYWIDE        Charles E. Waterbury                  Precinct 202                                           01 
01100030004000003GRN       Justice, Supreme Court, Place 4 MOORE COUNTYWIDE        Charles E. Waterbury                  Precinct 203                                           01 
01100030005000024GRN       Justice, Supreme Court, Place 4 MOORE COUNTYWIDE        Charles E. Waterbury                  Precinct 301                                           01 
01100030006000019GRN       Justice, Supreme Court, Place 4 MOORE COUNTYWIDE        Charles E. Waterbury                  Precinct 401                                           01 
01100030007000007GRN       Justice, Supreme Court, Place 4 MOORE COUNTYWIDE        Charles E. Waterbury                  Precinct 402                                           01 
01100040001000000          Justice, Supreme Court, Place 4 MOORE COUNTYWIDE        OVER VOTES                            Precinct 101                                           01 
01100040002000000          Justice, Supreme Court, Place 4 MOORE COUNTYWIDE        OVER VOTES                            Precinct 201                                           01 
01100040003000000          Justice, Supreme Court, Place 4 MOORE COUNTYWIDE        OVER VOTES                            Precinct 202                                           01 
01100040004000000          Justice, Supreme Court, Place 4 MOORE COUNTYWIDE        OVER VOTES                            Precinct 203                                           01 
01100040005000000          Justice, Supreme Court, Place 4 MOORE COUNTYWIDE        OVER VOTES                            Precinct 301                                           01 
01100040006000000          Justice, Supreme Court, Place 4 MOORE COUNTYWIDE        OVER VOTES                            Precinct 401                                           01 
01100040007000000          Justice, Supreme Court, Place 4 MOORE COUNTYWIDE        OVER VOTES                            Precinct 402                                           01 
01100050001000192          Justice, Supreme Court, Place 4 MOORE COUNTYWIDE        UNDER VOTES                           Precinct 101                                           01 
01100050002000093          Justice, Supreme Court, Place 4 MOORE COUNTYWIDE        UNDER VOTES                           Precinct 201                                           01 
01100050003000082          Justice, Supreme Court, Place 4 MOORE COUNTYWIDE        UNDER VOTES                           Precinct 202                                           01 
01100050004000003          Justice, Supreme Court, Place 4 MOORE COUNTYWIDE        UNDER VOTES                           Precinct 203                                           01 
01100050005000172          Justice, Supreme Court, Place 4 MOORE COUNTYWIDE        UNDER VOTES                           Precinct 301                                           01 
01100050006000069          Justice, Supreme Court, Place 4 MOORE COUNTYWIDE        UNDER VOTES                           Precinct 401                                           01 
01100050007000100          Justice, Supreme Court, Place 4 MOORE COUNTYWIDE        UNDER VOTES                           Precinct 402                                           01 
01110010001000917REP       Justice, Supreme Court, Place 6 MOORE COUNTYWIDE        Nathan Hecht                          Precinct 101                                           01 
01110010002000835REP       Justice, Supreme Court, Place 6 MOORE COUNTYWIDE        Nathan Hecht                          Precinct 201                                           01 
01110010003000861REP       Justice, Supreme Court, Place 6 MOORE COUNTYWIDE        Nathan Hecht                          Precinct 202                                           01 
01110010004000027REP       Justice, Supreme Court, Place 6 MOORE COUNTYWIDE        Nathan Hecht                          Precinct 203                                           01 
01110010005000444REP       Justice, Supreme Court, Place 6 MOORE COUNTYWIDE        Nathan Hecht                          Precinct 301                                           01 
01110010006000427REP       Justice, Supreme Court, Place 6 MOORE COUNTYWIDE        Nathan Hecht                          Precinct 401                                           01 
01110010007000037REP       Justice, Supreme Court, Place 6 MOORE COUNTYWIDE        Nathan Hecht                          Precinct 402                                           01 
01110020001000280DEM       Justice, Supreme Court, Place 6 MOORE COUNTYWIDE        Michele Petty                         Precinct 101                                           01 
01110020002000148DEM       Justice, Supreme Court, Place 6 MOORE COUNTYWIDE        Michele Petty                         Precinct 201                                           01 
01110020003000120DEM       Justice, Supreme Court, Place 6 MOORE COUNTYWIDE        Michele Petty                         Precinct 202                                           01 
01110020004000011DEM       Justice, Supreme Court, Place 6 MOORE COUNTYWIDE        Michele Petty                         Precinct 203                                           01 
01110020005000219DEM       Justice, Supreme Court, Place 6 MOORE COUNTYWIDE        Michele Petty                         Precinct 301                                           01 
01110020006000087DEM       Justice, Supreme Court, Place 6 MOORE COUNTYWIDE        Michele Petty                         Precinct 401                                           01 
01110020007000122DEM       Justice, Supreme Court, Place 6 MOORE COUNTYWIDE        Michele Petty                         Precinct 402                                           01 
01110030001000026LIB       Justice, Supreme Court, Place 6 MOORE COUNTYWIDE        Mark Ash                              Precinct 101                                           01 
01110030002000020LIB       Justice, Supreme Court, Place 6 MOORE COUNTYWIDE        Mark Ash                              Precinct 201                                           01 
01110030003000018LIB       Justice, Supreme Court, Place 6 MOORE COUNTYWIDE        Mark Ash                              Precinct 202                                           01 
01110030004000001LIB       Justice, Supreme Court, Place 6 MOORE COUNTYWIDE        Mark Ash                              Precinct 203                                           01 
01110030005000015LIB       Justice, Supreme Court, Place 6 MOORE COUNTYWIDE        Mark Ash                              Precinct 301                                           01 
01110030006000016LIB       Justice, Supreme Court, Place 6 MOORE COUNTYWIDE        Mark Ash                              Precinct 401                                           01 
01110030007000002LIB       Justice, Supreme Court, Place 6 MOORE COUNTYWIDE        Mark Ash                              Precinct 402                                           01 
01110040001000025GRN       Justice, Supreme Court, Place 6 MOORE COUNTYWIDE        Jim Chisholm                          Precinct 101                                           01 
01110040002000028GRN       Justice, Supreme Court, Place 6 MOORE COUNTYWIDE        Jim Chisholm                          Precinct 201                                           01 
01110040003000028GRN       Justice, Supreme Court, Place 6 MOORE COUNTYWIDE        Jim Chisholm                          Precinct 202                                           01 
01110040004000000GRN       Justice, Supreme Court, Place 6 MOORE COUNTYWIDE        Jim Chisholm                          Precinct 203                                           01 
01110040005000022GRN       Justice, Supreme Court, Place 6 MOORE COUNTYWIDE        Jim Chisholm                          Precinct 301                                           01 
01110040006000022GRN       Justice, Supreme Court, Place 6 MOORE COUNTYWIDE        Jim Chisholm                          Precinct 401                                           01 
01110040007000004GRN       Justice, Supreme Court, Place 6 MOORE COUNTYWIDE        Jim Chisholm                          Precinct 402                                           01 
01110050001000000          Justice, Supreme Court, Place 6 MOORE COUNTYWIDE        OVER VOTES                            Precinct 101                                           01 
01110050002000000          Justice, Supreme Court, Place 6 MOORE COUNTYWIDE        OVER VOTES                            Precinct 201                                           01 
01110050003000001          Justice, Supreme Court, Place 6 MOORE COUNTYWIDE        OVER VOTES                            Precinct 202                                           01 
01110050004000000          Justice, Supreme Court, Place 6 MOORE COUNTYWIDE        OVER VOTES                            Precinct 203                                           01 
01110050005000000          Justice, Supreme Court, Place 6 MOORE COUNTYWIDE        OVER VOTES                            Precinct 301                                           01 
01110050006000000          Justice, Supreme Court, Place 6 MOORE COUNTYWIDE        OVER VOTES                            Precinct 401                                           01 
01110050007000000          Justice, Supreme Court, Place 6 MOORE COUNTYWIDE        OVER VOTES                            Precinct 402                                           01 
01110060001000064          Justice, Supreme Court, Place 6 MOORE COUNTYWIDE        UNDER VOTES                           Precinct 101                                           01 
01110060002000043          Justice, Supreme Court, Place 6 MOORE COUNTYWIDE        UNDER VOTES                           Precinct 201                                           01 
01110060003000050          Justice, Supreme Court, Place 6 MOORE COUNTYWIDE        UNDER VOTES                           Precinct 202                                           01 
01110060004000002          Justice, Supreme Court, Place 6 MOORE COUNTYWIDE        UNDER VOTES                           Precinct 203                                           01 
01110060005000051          Justice, Supreme Court, Place 6 MOORE COUNTYWIDE        UNDER VOTES                           Precinct 301                                           01 
01110060006000029          Justice, Supreme Court, Place 6 MOORE COUNTYWIDE        UNDER VOTES                           Precinct 401                                           01 
01110060007000020          Justice, Supreme Court, Place 6 MOORE COUNTYWIDE        UNDER VOTES                           Precinct 402                                           01 
01120010001000944REP       Presiding Judge, Court of Crim Appeals MOORE COUNTYWIDE Sharon  Keller                        Precinct 101                                           01 
01120010002000870REP       Presiding Judge, Court of Crim Appeals MOORE COUNTYWIDE Sharon  Keller                        Precinct 201                                           01 
01120010003000881REP       Presiding Judge, Court of Crim Appeals MOORE COUNTYWIDE Sharon  Keller                        Precinct 202                                           01 
01120010004000029REP       Presiding Judge, Court of Crim Appeals MOORE COUNTYWIDE Sharon  Keller                        Precinct 203                                           01 
01120010005000461REP       Presiding Judge, Court of Crim Appeals MOORE COUNTYWIDE Sharon  Keller                        Precinct 301                                           01 
01120010006000451REP       Presiding Judge, Court of Crim Appeals MOORE COUNTYWIDE Sharon  Keller                        Precinct 401                                           01 
01120010007000037REP       Presiding Judge, Court of Crim Appeals MOORE COUNTYWIDE Sharon  Keller                        Precinct 402                                           01 
01120020001000265DEM       Presiding Judge, Court of Crim Appeals MOORE COUNTYWIDE Keith Hampton                         Precinct 101                                           01 
01120020002000140DEM       Presiding Judge, Court of Crim Appeals MOORE COUNTYWIDE Keith Hampton                         Precinct 201                                           01 
01120020003000116DEM       Presiding Judge, Court of Crim Appeals MOORE COUNTYWIDE Keith Hampton                         Precinct 202                                           01 
01120020004000008DEM       Presiding Judge, Court of Crim Appeals MOORE COUNTYWIDE Keith Hampton                         Precinct 203                                           01 
01120020005000221DEM       Presiding Judge, Court of Crim Appeals MOORE COUNTYWIDE Keith Hampton                         Precinct 301                                           01 
01120020006000084DEM       Presiding Judge, Court of Crim Appeals MOORE COUNTYWIDE Keith Hampton                         Precinct 401                                           01 
01120020007000123DEM       Presiding Judge, Court of Crim Appeals MOORE COUNTYWIDE Keith Hampton                         Precinct 402                                           01 
01120030001000034LIB       Presiding Judge, Court of Crim Appeals MOORE COUNTYWIDE Lance Stott                           Precinct 101                                           01 
01120030002000026LIB       Presiding Judge, Court of Crim Appeals MOORE COUNTYWIDE Lance Stott                           Precinct 201                                           01 
01120030003000030LIB       Presiding Judge, Court of Crim Appeals MOORE COUNTYWIDE Lance Stott                           Precinct 202                                           01 
01120030004000003LIB       Presiding Judge, Court of Crim Appeals MOORE COUNTYWIDE Lance Stott                           Precinct 203                                           01 
01120030005000017LIB       Presiding Judge, Court of Crim Appeals MOORE COUNTYWIDE Lance Stott                           Precinct 301                                           01 
01120030006000017LIB       Presiding Judge, Court of Crim Appeals MOORE COUNTYWIDE Lance Stott                           Precinct 401                                           01 
01120030007000003LIB       Presiding Judge, Court of Crim Appeals MOORE COUNTYWIDE Lance Stott                           Precinct 402                                           01 
01120040001000000          Presiding Judge, Court of Crim Appeals MOORE COUNTYWIDE OVER VOTES                            Precinct 101                                           01 
01120040002000000          Presiding Judge, Court of Crim Appeals MOORE COUNTYWIDE OVER VOTES                            Precinct 201                                           01 
01120040003000000          Presiding Judge, Court of Crim Appeals MOORE COUNTYWIDE OVER VOTES                            Precinct 202                                           01 
01120040004000000          Presiding Judge, Court of Crim Appeals MOORE COUNTYWIDE OVER VOTES                            Precinct 203                                           01 
01120040005000000          Presiding Judge, Court of Crim Appeals MOORE COUNTYWIDE OVER VOTES                            Precinct 301                                           01 
01120040006000000          Presiding Judge, Court of Crim Appeals MOORE COUNTYWIDE OVER VOTES                            Precinct 401                                           01 
01120040007000000          Presiding Judge, Court of Crim Appeals MOORE COUNTYWIDE OVER VOTES                            Precinct 402                                           01 
01120050001000069          Presiding Judge, Court of Crim Appeals MOORE COUNTYWIDE UNDER VOTES                           Precinct 101                                           01 
01120050002000038          Presiding Judge, Court of Crim Appeals MOORE COUNTYWIDE UNDER VOTES                           Precinct 201                                           01 
01120050003000051          Presiding Judge, Court of Crim Appeals MOORE COUNTYWIDE UNDER VOTES                           Precinct 202                                           01 
01120050004000001          Presiding Judge, Court of Crim Appeals MOORE COUNTYWIDE UNDER VOTES                           Precinct 203                                           01 
01120050005000052          Presiding Judge, Court of Crim Appeals MOORE COUNTYWIDE UNDER VOTES                           Precinct 301                                           01 
01120050006000029          Presiding Judge, Court of Crim Appeals MOORE COUNTYWIDE UNDER VOTES                           Precinct 401                                           01 
01120050007000022          Presiding Judge, Court of Crim Appeals MOORE COUNTYWIDE UNDER VOTES                           Precinct 402                                           01 
01130010001001000REP       Judge, Court of Criminal Appeals, Pl 7 MOORE COUNTYWIDE Barbara Parker Hervey                 Precinct 101                                           01 
01130010002000911REP       Judge, Court of Criminal Appeals, Pl 7 MOORE COUNTYWIDE Barbara Parker Hervey                 Precinct 201                                           01 
01130010003000923REP       Judge, Court of Criminal Appeals, Pl 7 MOORE COUNTYWIDE Barbara Parker Hervey                 Precinct 202                                           01 
01130010004000033REP       Judge, Court of Criminal Appeals, Pl 7 MOORE COUNTYWIDE Barbara Parker Hervey                 Precinct 203                                           01 
01130010005000503REP       Judge, Court of Criminal Appeals, Pl 7 MOORE COUNTYWIDE Barbara Parker Hervey                 Precinct 301                                           01 
01130010006000472REP       Judge, Court of Criminal Appeals, Pl 7 MOORE COUNTYWIDE Barbara Parker Hervey                 Precinct 401                                           01 
01130010007000053REP       Judge, Court of Criminal Appeals, Pl 7 MOORE COUNTYWIDE Barbara Parker Hervey                 Precinct 402                                           01 
01130020001000114LIB       Judge, Court of Criminal Appeals, Pl 7 MOORE COUNTYWIDE Mark W. Bennett                       Precinct 101                                           01 
01130020002000061LIB       Judge, Court of Criminal Appeals, Pl 7 MOORE COUNTYWIDE Mark W. Bennett                       Precinct 201                                           01 
01130020003000064LIB       Judge, Court of Criminal Appeals, Pl 7 MOORE COUNTYWIDE Mark W. Bennett                       Precinct 202                                           01 
01130020004000002LIB       Judge, Court of Criminal Appeals, Pl 7 MOORE COUNTYWIDE Mark W. Bennett                       Precinct 203                                           01 
01130020005000069LIB       Judge, Court of Criminal Appeals, Pl 7 MOORE COUNTYWIDE Mark W. Bennett                       Precinct 301                                           01 
01130020006000039LIB       Judge, Court of Criminal Appeals, Pl 7 MOORE COUNTYWIDE Mark W. Bennett                       Precinct 401                                           01 
01130020007000023LIB       Judge, Court of Criminal Appeals, Pl 7 MOORE COUNTYWIDE Mark W. Bennett                       Precinct 402                                           01 
01130030001000000          Judge, Court of Criminal Appeals, Pl 7 MOORE COUNTYWIDE OVER VOTES                            Precinct 101                                           01 
01130030002000000          Judge, Court of Criminal Appeals, Pl 7 MOORE COUNTYWIDE OVER VOTES                            Precinct 201                                           01 
01130030003000000          Judge, Court of Criminal Appeals, Pl 7 MOORE COUNTYWIDE OVER VOTES                            Precinct 202                                           01 
01130030004000000          Judge, Court of Criminal Appeals, Pl 7 MOORE COUNTYWIDE OVER VOTES                            Precinct 203                                           01 
01130030005000000          Judge, Court of Criminal Appeals, Pl 7 MOORE COUNTYWIDE OVER VOTES                            Precinct 301                                           01 
01130030006000000          Judge, Court of Criminal Appeals, Pl 7 MOORE COUNTYWIDE OVER VOTES                            Precinct 401                                           01 
01130030007000000          Judge, Court of Criminal Appeals, Pl 7 MOORE COUNTYWIDE OVER VOTES                            Precinct 402                                           01 
01130040001000198          Judge, Court of Criminal Appeals, Pl 7 MOORE COUNTYWIDE UNDER VOTES                           Precinct 101                                           01 
01130040002000102          Judge, Court of Criminal Appeals, Pl 7 MOORE COUNTYWIDE UNDER VOTES                           Precinct 201                                           01 
01130040003000091          Judge, Court of Criminal Appeals, Pl 7 MOORE COUNTYWIDE UNDER VOTES                           Precinct 202                                           01 
01130040004000006          Judge, Court of Criminal Appeals, Pl 7 MOORE COUNTYWIDE UNDER VOTES                           Precinct 203                                           01 
01130040005000179          Judge, Court of Criminal Appeals, Pl 7 MOORE COUNTYWIDE UNDER VOTES                           Precinct 301                                           01 
01130040006000070          Judge, Court of Criminal Appeals, Pl 7 MOORE COUNTYWIDE UNDER VOTES                           Precinct 401                                           01 
01130040007000109          Judge, Court of Criminal Appeals, Pl 7 MOORE COUNTYWIDE UNDER VOTES                           Precinct 402                                           01 
01140010001000998REP       Judge, Court of Criminal Appeals, Pl 8 MOORE COUNTYWIDE Elsa Alcala                           Precinct 101                                           01 
01140010002000902REP       Judge, Court of Criminal Appeals, Pl 8 MOORE COUNTYWIDE Elsa Alcala                           Precinct 201                                           01 
01140010003000893REP       Judge, Court of Criminal Appeals, Pl 8 MOORE COUNTYWIDE Elsa Alcala                           Precinct 202                                           01 
01140010004000030REP       Judge, Court of Criminal Appeals, Pl 8 MOORE COUNTYWIDE Elsa Alcala                           Precinct 203                                           01 
01140010005000511REP       Judge, Court of Criminal Appeals, Pl 8 MOORE COUNTYWIDE Elsa Alcala                           Precinct 301                                           01 
01140010006000456REP       Judge, Court of Criminal Appeals, Pl 8 MOORE COUNTYWIDE Elsa Alcala                           Precinct 401                                           01 
01140010007000060REP       Judge, Court of Criminal Appeals, Pl 8 MOORE COUNTYWIDE Elsa Alcala                           Precinct 402                                           01 
01140020001000117LIB       Judge, Court of Criminal Appeals, Pl 8 MOORE COUNTYWIDE William Bryan Strange, III            Precinct 101                                           01 
01140020002000073LIB       Judge, Court of Criminal Appeals, Pl 8 MOORE COUNTYWIDE William Bryan Strange, III            Precinct 201                                           01 
01140020003000093LIB       Judge, Court of Criminal Appeals, Pl 8 MOORE COUNTYWIDE William Bryan Strange, III            Precinct 202                                           01 
01140020004000005LIB       Judge, Court of Criminal Appeals, Pl 8 MOORE COUNTYWIDE William Bryan Strange, III            Precinct 203                                           01 
01140020005000065LIB       Judge, Court of Criminal Appeals, Pl 8 MOORE COUNTYWIDE William Bryan Strange, III            Precinct 301                                           01 
01140020006000049LIB       Judge, Court of Criminal Appeals, Pl 8 MOORE COUNTYWIDE William Bryan Strange, III            Precinct 401                                           01 
01140020007000021LIB       Judge, Court of Criminal Appeals, Pl 8 MOORE COUNTYWIDE William Bryan Strange, III            Precinct 402                                           01 
01140030001000000          Judge, Court of Criminal Appeals, Pl 8 MOORE COUNTYWIDE OVER VOTES                            Precinct 101                                           01 
01140030002000000          Judge, Court of Criminal Appeals, Pl 8 MOORE COUNTYWIDE OVER VOTES                            Precinct 201                                           01 
01140030003000000          Judge, Court of Criminal Appeals, Pl 8 MOORE COUNTYWIDE OVER VOTES                            Precinct 202                                           01 
01140030004000000          Judge, Court of Criminal Appeals, Pl 8 MOORE COUNTYWIDE OVER VOTES                            Precinct 203                                           01 
01140030005000000          Judge, Court of Criminal Appeals, Pl 8 MOORE COUNTYWIDE OVER VOTES                            Precinct 301                                           01 
01140030006000000          Judge, Court of Criminal Appeals, Pl 8 MOORE COUNTYWIDE OVER VOTES                            Precinct 401                                           01 
01140030007000000          Judge, Court of Criminal Appeals, Pl 8 MOORE COUNTYWIDE OVER VOTES                            Precinct 402                                           01 
01140040001000197          Judge, Court of Criminal Appeals, Pl 8 MOORE COUNTYWIDE UNDER VOTES                           Precinct 101                                           01 
01140040002000099          Judge, Court of Criminal Appeals, Pl 8 MOORE COUNTYWIDE UNDER VOTES                           Precinct 201                                           01 
01140040003000092          Judge, Court of Criminal Appeals, Pl 8 MOORE COUNTYWIDE UNDER VOTES                           Precinct 202                                           01 
01140040004000006          Judge, Court of Criminal Appeals, Pl 8 MOORE COUNTYWIDE UNDER VOTES                           Precinct 203                                           01 
01140040005000175          Judge, Court of Criminal Appeals, Pl 8 MOORE COUNTYWIDE UNDER VOTES                           Precinct 301                                           01 
01140040006000076          Judge, Court of Criminal Appeals, Pl 8 MOORE COUNTYWIDE UNDER VOTES                           Precinct 401                                           01 
01140040007000104          Judge, Court of Criminal Appeals, Pl 8 MOORE COUNTYWIDE UNDER VOTES                           Precinct 402                                           01 
01150010001000982REP       Member, State Board of Education, Dist15                Marty Rowley                          Precinct 101                                           01 
01150010002000894REP       Member, State Board of Education, Dist15                Marty Rowley                          Precinct 201                                           01 
01150010003000914REP       Member, State Board of Education, Dist15                Marty Rowley                          Precinct 202                                           01 
01150010004000031REP       Member, State Board of Education, Dist15                Marty Rowley                          Precinct 203                                           01 
01150010005000480REP       Member, State Board of Education, Dist15                Marty Rowley                          Precinct 301                                           01 
01150010006000465REP       Member, State Board of Education, Dist15                Marty Rowley                          Precinct 401                                           01 
01150010007000043REP       Member, State Board of Education, Dist15                Marty Rowley                          Precinct 402                                           01 
01150020001000265DEM       Member, State Board of Education, Dist15                Steven D. Schafersman                 Precinct 101                                           01 
01150020002000138DEM       Member, State Board of Education, Dist15                Steven D. Schafersman                 Precinct 201                                           01 
01150020003000112DEM       Member, State Board of Education, Dist15                Steven D. Schafersman                 Precinct 202                                           01 
01150020004000010DEM       Member, State Board of Education, Dist15                Steven D. Schafersman                 Precinct 203                                           01 
01150020005000221DEM       Member, State Board of Education, Dist15                Steven D. Schafersman                 Precinct 301                                           01 
01150020006000087DEM       Member, State Board of Education, Dist15                Steven D. Schafersman                 Precinct 401                                           01 
01150020007000121DEM       Member, State Board of Education, Dist15                Steven D. Schafersman                 Precinct 402                                           01 
01150030001000000          Member, State Board of Education, Dist15                OVER VOTES                            Precinct 101                                           01 
01150030002000000          Member, State Board of Education, Dist15                OVER VOTES                            Precinct 201                                           01 
01150030003000000          Member, State Board of Education, Dist15                OVER VOTES                            Precinct 202                                           01 
01150030004000000          Member, State Board of Education, Dist15                OVER VOTES                            Precinct 203                                           01 
01150030005000000          Member, State Board of Education, Dist15                OVER VOTES                            Precinct 301                                           01 
01150030006000000          Member, State Board of Education, Dist15                OVER VOTES                            Precinct 401                                           01 
01150030007000000          Member, State Board of Education, Dist15                OVER VOTES                            Precinct 402                                           01 
01150040001000065          Member, State Board of Education, Dist15                UNDER VOTES                           Precinct 101                                           01 
01150040002000042          Member, State Board of Education, Dist15                UNDER VOTES                           Precinct 201                                           01 
01150040003000052          Member, State Board of Education, Dist15                UNDER VOTES                           Precinct 202                                           01 
01150040004000000          Member, State Board of Education, Dist15                UNDER VOTES                           Precinct 203                                           01 
01150040005000050          Member, State Board of Education, Dist15                UNDER VOTES                           Precinct 301                                           01 
01150040006000029          Member, State Board of Education, Dist15                UNDER VOTES                           Precinct 401                                           01 
01150040007000021          Member, State Board of Education, Dist15                UNDER VOTES                           Precinct 402                                           01 
01160010001001083REP       State Senator, District 31 MOORE COUNTYWIDE             Kel Seliger                           Precinct 101                                           01 
01160010002000961REP       State Senator, District 31 MOORE COUNTYWIDE             Kel Seliger                           Precinct 201                                           01 
01160010003000977REP       State Senator, District 31 MOORE COUNTYWIDE             Kel Seliger                           Precinct 202                                           01 
01160010004000038REP       State Senator, District 31 MOORE COUNTYWIDE             Kel Seliger                           Precinct 203                                           01 
01160010005000554REP       State Senator, District 31 MOORE COUNTYWIDE             Kel Seliger                           Precinct 301                                           01 
01160010006000500REP       State Senator, District 31 MOORE COUNTYWIDE             Kel Seliger                           Precinct 401                                           01 
01160010007000064REP       State Senator, District 31 MOORE COUNTYWIDE             Kel Seliger                           Precinct 402                                           01 
01160020001000000          State Senator, District 31 MOORE COUNTYWIDE             OVER VOTES                            Precinct 101                                           01 
01160020002000000          State Senator, District 31 MOORE COUNTYWIDE             OVER VOTES                            Precinct 201                                           01 
01160020003000000          State Senator, District 31 MOORE COUNTYWIDE             OVER VOTES                            Precinct 202                                           01 
01160020004000000          State Senator, District 31 MOORE COUNTYWIDE             OVER VOTES                            Precinct 203                                           01 
01160020005000000          State Senator, District 31 MOORE COUNTYWIDE             OVER VOTES                            Precinct 301                                           01 
01160020006000000          State Senator, District 31 MOORE COUNTYWIDE             OVER VOTES                            Precinct 401                                           01 
01160020007000000          State Senator, District 31 MOORE COUNTYWIDE             OVER VOTES                            Precinct 402                                           01 
01160030001000229          State Senator, District 31 MOORE COUNTYWIDE             UNDER VOTES                           Precinct 101                                           01 
01160030002000113          State Senator, District 31 MOORE COUNTYWIDE             UNDER VOTES                           Precinct 201                                           01 
01160030003000101          State Senator, District 31 MOORE COUNTYWIDE             UNDER VOTES                           Precinct 202                                           01 
01160030004000003          State Senator, District 31 MOORE COUNTYWIDE             UNDER VOTES                           Precinct 203                                           01 
01160030005000197          State Senator, District 31 MOORE COUNTYWIDE             UNDER VOTES                           Precinct 301                                           01 
01160030006000081          State Senator, District 31 MOORE COUNTYWIDE             UNDER VOTES                           Precinct 401                                           01 
01160030007000121          State Senator, District 31 MOORE COUNTYWIDE             UNDER VOTES                           Precinct 402                                           01 
01170010001001001REP       State Representative, District 87 MOORE COUNTYWIDE      Four Price                            Precinct 101                                           01 
01170010002000926REP       State Representative, District 87 MOORE COUNTYWIDE      Four Price                            Precinct 201                                           01 
01170010003000948REP       State Representative, District 87 MOORE COUNTYWIDE      Four Price                            Precinct 202                                           01 
01170010004000035REP       State Representative, District 87 MOORE COUNTYWIDE      Four Price                            Precinct 203                                           01 
01170010005000487REP       State Representative, District 87 MOORE COUNTYWIDE      Four Price                            Precinct 301                                           01 
01170010006000482REP       State Representative, District 87 MOORE COUNTYWIDE      Four Price                            Precinct 401                                           01 
01170010007000038REP       State Representative, District 87 MOORE COUNTYWIDE      Four Price                            Precinct 402                                           01 
01170020001000263DEM       State Representative, District 87 MOORE COUNTYWIDE      Abel Bosquez                          Precinct 101                                           01 
01170020002000129DEM       State Representative, District 87 MOORE COUNTYWIDE      Abel Bosquez                          Precinct 201                                           01 
01170020003000108DEM       State Representative, District 87 MOORE COUNTYWIDE      Abel Bosquez                          Precinct 202                                           01 
01170020004000006DEM       State Representative, District 87 MOORE COUNTYWIDE      Abel Bosquez                          Precinct 203                                           01 
01170020005000219DEM       State Representative, District 87 MOORE COUNTYWIDE      Abel Bosquez                          Precinct 301                                           01 
01170020006000078DEM       State Representative, District 87 MOORE COUNTYWIDE      Abel Bosquez                          Precinct 401                                           01 
01170020007000125DEM       State Representative, District 87 MOORE COUNTYWIDE      Abel Bosquez                          Precinct 402                                           01 
01170030001000000          State Representative, District 87 MOORE COUNTYWIDE      OVER VOTES                            Precinct 101                                           01 
01170030002000000          State Representative, District 87 MOORE COUNTYWIDE      OVER VOTES                            Precinct 201                                           01 
01170030003000000          State Representative, District 87 MOORE COUNTYWIDE      OVER VOTES                            Precinct 202                                           01 
01170030004000000          State Representative, District 87 MOORE COUNTYWIDE      OVER VOTES                            Precinct 203                                           01 
01170030005000000          State Representative, District 87 MOORE COUNTYWIDE      OVER VOTES                            Precinct 301                                           01 
01170030006000000          State Representative, District 87 MOORE COUNTYWIDE      OVER VOTES                            Precinct 401                                           01 
01170030007000000          State Representative, District 87 MOORE COUNTYWIDE      OVER VOTES                            Precinct 402                                           01 
01170040001000048          State Representative, District 87 MOORE COUNTYWIDE      UNDER VOTES                           Precinct 101                                           01 
01170040002000019          State Representative, District 87 MOORE COUNTYWIDE      UNDER VOTES                           Precinct 201                                           01 
01170040003000022          State Representative, District 87 MOORE COUNTYWIDE      UNDER VOTES                           Precinct 202                                           01 
01170040004000000          State Representative, District 87 MOORE COUNTYWIDE      UNDER VOTES                           Precinct 203                                           01 
01170040005000045          State Representative, District 87 MOORE COUNTYWIDE      UNDER VOTES                           Precinct 301                                           01 
01170040006000021          State Representative, District 87 MOORE COUNTYWIDE      UNDER VOTES                           Precinct 401                                           01 
01170040007000022          State Representative, District 87 MOORE COUNTYWIDE      UNDER VOTES                           Precinct 402                                           01 
01180010001001053REP       Justice, 7th Ct of Appeals Dist, Place 2                Mackey K. Hancock                     Precinct 101                                           01 
01180010002000935REP       Justice, 7th Ct of Appeals Dist, Place 2                Mackey K. Hancock                     Precinct 201                                           01 
01180010003000953REP       Justice, 7th Ct of Appeals Dist, Place 2                Mackey K. Hancock                     Precinct 202                                           01 
01180010004000034REP       Justice, 7th Ct of Appeals Dist, Place 2                Mackey K. Hancock                     Precinct 203                                           01 
01180010005000540REP       Justice, 7th Ct of Appeals Dist, Place 2                Mackey K. Hancock                     Precinct 301                                           01 
01180010006000482REP       Justice, 7th Ct of Appeals Dist, Place 2                Mackey K. Hancock                     Precinct 401                                           01 
01180010007000060REP       Justice, 7th Ct of Appeals Dist, Place 2                Mackey K. Hancock                     Precinct 402                                           01 
01180020001000000          Justice, 7th Ct of Appeals Dist, Place 2                OVER VOTES                            Precinct 101                                           01 
01180020002000000          Justice, 7th Ct of Appeals Dist, Place 2                OVER VOTES                            Precinct 201                                           01 
01180020003000000          Justice, 7th Ct of Appeals Dist, Place 2                OVER VOTES                            Precinct 202                                           01 
01180020004000000          Justice, 7th Ct of Appeals Dist, Place 2                OVER VOTES                            Precinct 203                                           01 
01180020005000000          Justice, 7th Ct of Appeals Dist, Place 2                OVER VOTES                            Precinct 301                                           01 
01180020006000000          Justice, 7th Ct of Appeals Dist, Place 2                OVER VOTES                            Precinct 401                                           01 
01180020007000000          Justice, 7th Ct of Appeals Dist, Place 2                OVER VOTES                            Precinct 402                                           01 
01180030001000259          Justice, 7th Ct of Appeals Dist, Place 2                UNDER VOTES                           Precinct 101                                           01 
01180030002000139          Justice, 7th Ct of Appeals Dist, Place 2                UNDER VOTES                           Precinct 201                                           01 
01180030003000125          Justice, 7th Ct of Appeals Dist, Place 2                UNDER VOTES                           Precinct 202                                           01 
01180030004000007          Justice, 7th Ct of Appeals Dist, Place 2                UNDER VOTES                           Precinct 203                                           01 
01180030005000211          Justice, 7th Ct of Appeals Dist, Place 2                UNDER VOTES                           Precinct 301                                           01 
01180030006000099          Justice, 7th Ct of Appeals Dist, Place 2                UNDER VOTES                           Precinct 401                                           01 
01180030007000125          Justice, 7th Ct of Appeals Dist, Place 2                UNDER VOTES                           Precinct 402                                           01 
01190010001001046REP       Justice, 7th Ct of Appeals Dist, Place 3                Pat Pirtle                            Precinct 101                                           01 
01190010002000924REP       Justice, 7th Ct of Appeals Dist, Place 3                Pat Pirtle                            Precinct 201                                           01 
01190010003000945REP       Justice, 7th Ct of Appeals Dist, Place 3                Pat Pirtle                            Precinct 202                                           01 
01190010004000033REP       Justice, 7th Ct of Appeals Dist, Place 3                Pat Pirtle                            Precinct 203                                           01 
01190010005000531REP       Justice, 7th Ct of Appeals Dist, Place 3                Pat Pirtle                            Precinct 301                                           01 
01190010006000474REP       Justice, 7th Ct of Appeals Dist, Place 3                Pat Pirtle                            Precinct 401                                           01 
01190010007000059REP       Justice, 7th Ct of Appeals Dist, Place 3                Pat Pirtle                            Precinct 402                                           01 
01190020001000000          Justice, 7th Ct of Appeals Dist, Place 3                OVER VOTES                            Precinct 101                                           01 
01190020002000000          Justice, 7th Ct of Appeals Dist, Place 3                OVER VOTES                            Precinct 201                                           01 
01190020003000000          Justice, 7th Ct of Appeals Dist, Place 3                OVER VOTES                            Precinct 202                                           01 
01190020004000000          Justice, 7th Ct of Appeals Dist, Place 3                OVER VOTES                            Precinct 203                                           01 
01190020005000000          Justice, 7th Ct of Appeals Dist, Place 3                OVER VOTES                            Precinct 301                                           01 
01190020006000000          Justice, 7th Ct of Appeals Dist, Place 3                OVER VOTES                            Precinct 401                                           01 
