01010010001000730          REGISTERED VOTERS - TOTAL                               REGISTERED VOTERS - TOTAL             Precinct 101                                           00 
01010010002000453          REGISTERED VOTERS - TOTAL                               REGISTERED VOTERS - TOTAL             Precinct 102                                           00 
01010010003000603          REGISTERED VOTERS - TOTAL                               REGISTERED VOTERS - TOTAL             Precinct 103                                           00 
01010010004000972          REGISTERED VOTERS - TOTAL                               REGISTERED VOTERS - TOTAL             Precinct 202                                           00 
01010010005001124          REGISTERED VOTERS - TOTAL                               REGISTERED VOTERS - TOTAL             Precinct 203                                           00 
01010010007001150          REGISTERED VOTERS - TOTAL                               REGISTERED VOTERS - TOTAL             Precinct 302                                           00 
01010010008001107          REGISTERED VOTERS - TOTAL                               REGISTERED VOTERS - TOTAL             Precinct 303                                           00 
01010010009001992          REGISTERED VOTERS - TOTAL                               REGISTERED VOTERS - TOTAL             Precinct 401                                           00 
01020010001000000REP       REGISTERED VOTERS - REPUBLICAN PARTY                    REGISTERED VOTERS - REPUBLICAN PARTY  Precinct 101                                           00 
01020010002000000REP       REGISTERED VOTERS - REPUBLICAN PARTY                    REGISTERED VOTERS - REPUBLICAN PARTY  Precinct 102                                           00 
01020010003000000REP       REGISTERED VOTERS - REPUBLICAN PARTY                    REGISTERED VOTERS - REPUBLICAN PARTY  Precinct 103                                           00 
01020010004000000REP       REGISTERED VOTERS - REPUBLICAN PARTY                    REGISTERED VOTERS - REPUBLICAN PARTY  Precinct 202                                           00 
01020010005000000REP       REGISTERED VOTERS - REPUBLICAN PARTY                    REGISTERED VOTERS - REPUBLICAN PARTY  Precinct 203                                           00 
01020010007000000REP       REGISTERED VOTERS - REPUBLICAN PARTY                    REGISTERED VOTERS - REPUBLICAN PARTY  Precinct 302                                           00 
01020010008000000REP       REGISTERED VOTERS - REPUBLICAN PARTY                    REGISTERED VOTERS - REPUBLICAN PARTY  Precinct 303                                           00 
01020010009000000REP       REGISTERED VOTERS - REPUBLICAN PARTY                    REGISTERED VOTERS - REPUBLICAN PARTY  Precinct 401                                           00 
01030010001000000DEM       REGISTERED VOTERS - DEMOCRATIC PARTY                    REGISTERED VOTERS - DEMOCRATIC PARTY  Precinct 101                                           00 
01030010002000000DEM       REGISTERED VOTERS - DEMOCRATIC PARTY                    REGISTERED VOTERS - DEMOCRATIC PARTY  Precinct 102                                           00 
01030010003000000DEM       REGISTERED VOTERS - DEMOCRATIC PARTY                    REGISTERED VOTERS - DEMOCRATIC PARTY  Precinct 103                                           00 
01030010004000000DEM       REGISTERED VOTERS - DEMOCRATIC PARTY                    REGISTERED VOTERS - DEMOCRATIC PARTY  Precinct 202                                           00 
01030010005000000DEM       REGISTERED VOTERS - DEMOCRATIC PARTY                    REGISTERED VOTERS - DEMOCRATIC PARTY  Precinct 203                                           00 
01030010007000000DEM       REGISTERED VOTERS - DEMOCRATIC PARTY                    REGISTERED VOTERS - DEMOCRATIC PARTY  Precinct 302                                           00 
01030010008000000DEM       REGISTERED VOTERS - DEMOCRATIC PARTY                    REGISTERED VOTERS - DEMOCRATIC PARTY  Precinct 303                                           00 
01030010009000000DEM       REGISTERED VOTERS - DEMOCRATIC PARTY                    REGISTERED VOTERS - DEMOCRATIC PARTY  Precinct 401                                           00 
01040010001000051          BALLOTS CAST - TOTAL                                    BALLOTS CAST - TOTAL                  Precinct 101                                           00 
01040010002000055          BALLOTS CAST - TOTAL                                    BALLOTS CAST - TOTAL                  Precinct 102                                           00 
01040010003000075          BALLOTS CAST - TOTAL                                    BALLOTS CAST - TOTAL                  Precinct 103                                           00 
01040010004000170          BALLOTS CAST - TOTAL                                    BALLOTS CAST - TOTAL                  Precinct 202                                           00 
01040010005000151          BALLOTS CAST - TOTAL                                    BALLOTS CAST - TOTAL                  Precinct 203                                           00 
01040010007000257          BALLOTS CAST - TOTAL                                    BALLOTS CAST - TOTAL                  Precinct 302                                           00 
01040010008000296          BALLOTS CAST - TOTAL                                    BALLOTS CAST - TOTAL                  Precinct 303                                           00 
01040010009000260          BALLOTS CAST - TOTAL                                    BALLOTS CAST - TOTAL                  Precinct 401                                           00 
01050010001000014REP       BALLOTS CAST - REPUBLICAN PARTY                         BALLOTS CAST - REPUBLICAN PARTY       Precinct 101                                           00 
01050010002000013REP       BALLOTS CAST - REPUBLICAN PARTY                         BALLOTS CAST - REPUBLICAN PARTY       Precinct 102                                           00 
01050010003000029REP       BALLOTS CAST - REPUBLICAN PARTY                         BALLOTS CAST - REPUBLICAN PARTY       Precinct 103                                           00 
01050010004000083REP       BALLOTS CAST - REPUBLICAN PARTY                         BALLOTS CAST - REPUBLICAN PARTY       Precinct 202                                           00 
01050010005000094REP       BALLOTS CAST - REPUBLICAN PARTY                         BALLOTS CAST - REPUBLICAN PARTY       Precinct 203                                           00 
01050010007000030REP       BALLOTS CAST - REPUBLICAN PARTY                         BALLOTS CAST - REPUBLICAN PARTY       Precinct 302                                           00 
01050010008000040REP       BALLOTS CAST - REPUBLICAN PARTY                         BALLOTS CAST - REPUBLICAN PARTY       Precinct 303                                           00 
01050010009000162REP       BALLOTS CAST - REPUBLICAN PARTY                         BALLOTS CAST - REPUBLICAN PARTY       Precinct 401                                           00 
01060010001000037DEM       BALLOTS CAST - DEMOCRATIC PARTY                         BALLOTS CAST - DEMOCRATIC PARTY       Precinct 101                                           00 
01060010002000042DEM       BALLOTS CAST - DEMOCRATIC PARTY                         BALLOTS CAST - DEMOCRATIC PARTY       Precinct 102                                           00 
01060010003000046DEM       BALLOTS CAST - DEMOCRATIC PARTY                         BALLOTS CAST - DEMOCRATIC PARTY       Precinct 103                                           00 
01060010004000087DEM       BALLOTS CAST - DEMOCRATIC PARTY                         BALLOTS CAST - DEMOCRATIC PARTY       Precinct 202                                           00 
01060010005000057DEM       BALLOTS CAST - DEMOCRATIC PARTY                         BALLOTS CAST - DEMOCRATIC PARTY       Precinct 203                                           00 
01060010007000227DEM       BALLOTS CAST - DEMOCRATIC PARTY                         BALLOTS CAST - DEMOCRATIC PARTY       Precinct 302                                           00 
01060010008000256DEM       BALLOTS CAST - DEMOCRATIC PARTY                         BALLOTS CAST - DEMOCRATIC PARTY       Precinct 303                                           00 
01060010009000098DEM       BALLOTS CAST - DEMOCRATIC PARTY                         BALLOTS CAST - DEMOCRATIC PARTY       Precinct 401                                           00 
01070010001000000REP       President MORRIS COUNTYWIDE                             Ron Paul                              Precinct 101                                           01 
01070010002000001REP       President MORRIS COUNTYWIDE                             Ron Paul                              Precinct 102                                           01 
01070010003000003REP       President MORRIS COUNTYWIDE                             Ron Paul                              Precinct 103                                           01 
01070010004000005REP       President MORRIS COUNTYWIDE                             Ron Paul                              Precinct 202                                           01 
01070010005000011REP       President MORRIS COUNTYWIDE                             Ron Paul                              Precinct 203                                           01 
01070010007000010REP       President MORRIS COUNTYWIDE                             Ron Paul                              Precinct 302                                           01 
01070010008000007REP       President MORRIS COUNTYWIDE                             Ron Paul                              Precinct 303                                           01 
01070010009000014REP       President MORRIS COUNTYWIDE                             Ron Paul                              Precinct 401                                           01 
01070020001000000REP       President MORRIS COUNTYWIDE                             Charles "Buddy" Roemer                Precinct 101                                           01 
01070020002000000REP       President MORRIS COUNTYWIDE                             Charles "Buddy" Roemer                Precinct 102                                           01 
01070020003000000REP       President MORRIS COUNTYWIDE                             Charles "Buddy" Roemer                Precinct 103                                           01 
01070020004000000REP       President MORRIS COUNTYWIDE                             Charles "Buddy" Roemer                Precinct 202                                           01 
01070020005000002REP       President MORRIS COUNTYWIDE                             Charles "Buddy" Roemer                Precinct 203                                           01 
01070020007000000REP       President MORRIS COUNTYWIDE                             Charles "Buddy" Roemer                Precinct 302                                           01 
01070020008000000REP       President MORRIS COUNTYWIDE                             Charles "Buddy" Roemer                Precinct 303                                           01 
01070020009000003REP       President MORRIS COUNTYWIDE                             Charles "Buddy" Roemer                Precinct 401                                           01 
01070030001000000REP       President MORRIS COUNTYWIDE                             John Davis                            Precinct 101                                           01 
01070030002000000REP       President MORRIS COUNTYWIDE                             John Davis                            Precinct 102                                           01 
01070030003000000REP       President MORRIS COUNTYWIDE                             John Davis                            Precinct 103                                           01 
01070030004000001REP       President MORRIS COUNTYWIDE                             John Davis                            Precinct 202                                           01 
01070030005000000REP       President MORRIS COUNTYWIDE                             John Davis                            Precinct 203                                           01 
01070030007000000REP       President MORRIS COUNTYWIDE                             John Davis                            Precinct 302                                           01 
01070030008000000REP       President MORRIS COUNTYWIDE                             John Davis                            Precinct 303                                           01 
01070030009000000REP       President MORRIS COUNTYWIDE                             John Davis                            Precinct 401                                           01 
01070040001000008REP       President MORRIS COUNTYWIDE                             Mitt Romney                           Precinct 101                                           01 
01070040002000011REP       President MORRIS COUNTYWIDE                             Mitt Romney                           Precinct 102                                           01 
01070040003000023REP       President MORRIS COUNTYWIDE                             Mitt Romney                           Precinct 103                                           01 
01070040004000061REP       President MORRIS COUNTYWIDE                             Mitt Romney                           Precinct 202                                           01 
01070040005000065REP       President MORRIS COUNTYWIDE                             Mitt Romney                           Precinct 203                                           01 
01070040007000015REP       President MORRIS COUNTYWIDE                             Mitt Romney                           Precinct 302                                           01 
01070040008000026REP       President MORRIS COUNTYWIDE                             Mitt Romney                           Precinct 303                                           01 
01070040009000115REP       President MORRIS COUNTYWIDE                             Mitt Romney                           Precinct 401                                           01 
01070050001000000REP       President MORRIS COUNTYWIDE                             Jon Huntsman                          Precinct 101                                           01 
01070050002000000REP       President MORRIS COUNTYWIDE                             Jon Huntsman                          Precinct 102                                           01 
01070050003000001REP       President MORRIS COUNTYWIDE                             Jon Huntsman                          Precinct 103                                           01 
01070050004000000REP       President MORRIS COUNTYWIDE                             Jon Huntsman                          Precinct 202                                           01 
01070050005000002REP       President MORRIS COUNTYWIDE                             Jon Huntsman                          Precinct 203                                           01 
01070050007000000REP       President MORRIS COUNTYWIDE                             Jon Huntsman                          Precinct 302                                           01 
01070050008000000REP       President MORRIS COUNTYWIDE                             Jon Huntsman                          Precinct 303                                           01 
01070050009000002REP       President MORRIS COUNTYWIDE                             Jon Huntsman                          Precinct 401                                           01 
01070060001000006REP       President MORRIS COUNTYWIDE                             Newt Gingrich                         Precinct 101                                           01 
01070060002000001REP       President MORRIS COUNTYWIDE                             Newt Gingrich                         Precinct 102                                           01 
01070060003000000REP       President MORRIS COUNTYWIDE                             Newt Gingrich                         Precinct 103                                           01 
01070060004000003REP       President MORRIS COUNTYWIDE                             Newt Gingrich                         Precinct 202                                           01 
01070060005000002REP       President MORRIS COUNTYWIDE                             Newt Gingrich                         Precinct 203                                           01 
01070060007000003REP       President MORRIS COUNTYWIDE                             Newt Gingrich                         Precinct 302                                           01 
01070060008000003REP       President MORRIS COUNTYWIDE                             Newt Gingrich                         Precinct 303                                           01 
01070060009000007REP       President MORRIS COUNTYWIDE                             Newt Gingrich                         Precinct 401                                           01 
01070070001000000REP       President MORRIS COUNTYWIDE                             Michele Bachmann                      Precinct 101                                           01 
01070070002000000REP       President MORRIS COUNTYWIDE                             Michele Bachmann                      Precinct 102                                           01 
01070070003000001REP       President MORRIS COUNTYWIDE                             Michele Bachmann                      Precinct 103                                           01 
01070070004000000REP       President MORRIS COUNTYWIDE                             Michele Bachmann                      Precinct 202                                           01 
01070070005000000REP       President MORRIS COUNTYWIDE                             Michele Bachmann                      Precinct 203                                           01 
01070070007000000REP       President MORRIS COUNTYWIDE                             Michele Bachmann                      Precinct 302                                           01 
01070070008000000REP       President MORRIS COUNTYWIDE                             Michele Bachmann                      Precinct 303                                           01 
01070070009000002REP       President MORRIS COUNTYWIDE                             Michele Bachmann                      Precinct 401                                           01 
01070080001000000REP       President MORRIS COUNTYWIDE                             Rick Santorum                         Precinct 101                                           01 
01070080002000000REP       President MORRIS COUNTYWIDE                             Rick Santorum                         Precinct 102                                           01 
01070080003000001REP       President MORRIS COUNTYWIDE                             Rick Santorum                         Precinct 103                                           01 
01070080004000007REP       President MORRIS COUNTYWIDE                             Rick Santorum                         Precinct 202                                           01 
01070080005000006REP       President MORRIS COUNTYWIDE                             Rick Santorum                         Precinct 203                                           01 
01070080007000001REP       President MORRIS COUNTYWIDE                             Rick Santorum                         Precinct 302                                           01 
01070080008000004REP       President MORRIS COUNTYWIDE                             Rick Santorum                         Precinct 303                                           01 
01070080009000011REP       President MORRIS COUNTYWIDE                             Rick Santorum                         Precinct 401                                           01 
01070090001000000REP       President MORRIS COUNTYWIDE                             Uncommitted (No Comprometido)         Precinct 101                                           01 
01070090002000000REP       President MORRIS COUNTYWIDE                             Uncommitted (No Comprometido)         Precinct 102                                           01 
01070090003000000REP       President MORRIS COUNTYWIDE                             Uncommitted (No Comprometido)         Precinct 103                                           01 
01070090004000003REP       President MORRIS COUNTYWIDE                             Uncommitted (No Comprometido)         Precinct 202                                           01 
01070090005000002REP       President MORRIS COUNTYWIDE                             Uncommitted (No Comprometido)         Precinct 203                                           01 
01070090007000001REP       President MORRIS COUNTYWIDE                             Uncommitted (No Comprometido)         Precinct 302                                           01 
01070090008000000REP       President MORRIS COUNTYWIDE                             Uncommitted (No Comprometido)         Precinct 303                                           01 
01070090009000002REP       President MORRIS COUNTYWIDE                             Uncommitted (No Comprometido)         Precinct 401                                           01 
01070100001000000REP       President MORRIS COUNTYWIDE                             OVER VOTES                            Precinct 101                                           01 
01070100002000000REP       President MORRIS COUNTYWIDE                             OVER VOTES                            Precinct 102                                           01 
01070100003000000REP       President MORRIS COUNTYWIDE                             OVER VOTES                            Precinct 103                                           01 
01070100004000000REP       President MORRIS COUNTYWIDE                             OVER VOTES                            Precinct 202                                           01 
01070100005000000REP       President MORRIS COUNTYWIDE                             OVER VOTES                            Precinct 203                                           01 
01070100007000000REP       President MORRIS COUNTYWIDE                             OVER VOTES                            Precinct 302                                           01 
01070100008000000REP       President MORRIS COUNTYWIDE                             OVER VOTES                            Precinct 303                                           01 
01070100009000000REP       President MORRIS COUNTYWIDE                             OVER VOTES                            Precinct 401                                           01 
01070110001000000REP       President MORRIS COUNTYWIDE                             UNDER VOTES                           Precinct 101                                           01 
01070110002000000REP       President MORRIS COUNTYWIDE                             UNDER VOTES                           Precinct 102                                           01 
01070110003000000REP       President MORRIS COUNTYWIDE                             UNDER VOTES                           Precinct 103                                           01 
01070110004000003REP       President MORRIS COUNTYWIDE                             UNDER VOTES                           Precinct 202                                           01 
01070110005000004REP       President MORRIS COUNTYWIDE                             UNDER VOTES                           Precinct 203                                           01 
01070110007000000REP       President MORRIS COUNTYWIDE                             UNDER VOTES                           Precinct 302                                           01 
01070110008000000REP       President MORRIS COUNTYWIDE                             UNDER VOTES                           Precinct 303                                           01 
01070110009000006REP       President MORRIS COUNTYWIDE                             UNDER VOTES                           Precinct 401                                           01 
01080010001000002REP       United States Senator MORRIS COUNTYWIDE                 Craig James                           Precinct 101                                           01 
01080010002000001REP       United States Senator MORRIS COUNTYWIDE                 Craig James                           Precinct 102                                           01 
01080010003000005REP       United States Senator MORRIS COUNTYWIDE                 Craig James                           Precinct 103                                           01 
01080010004000004REP       United States Senator MORRIS COUNTYWIDE                 Craig James                           Precinct 202                                           01 
01080010005000006REP       United States Senator MORRIS COUNTYWIDE                 Craig James                           Precinct 203                                           01 
01080010007000001REP       United States Senator MORRIS COUNTYWIDE                 Craig James                           Precinct 302                                           01 
01080010008000006REP       United States Senator MORRIS COUNTYWIDE                 Craig James                           Precinct 303                                           01 
01080010009000017REP       United States Senator MORRIS COUNTYWIDE                 Craig James                           Precinct 401                                           01 
01080020001000000REP       United States Senator MORRIS COUNTYWIDE                 Lela Pittenger                        Precinct 101                                           01 
01080020002000001REP       United States Senator MORRIS COUNTYWIDE                 Lela Pittenger                        Precinct 102                                           01 
01080020003000000REP       United States Senator MORRIS COUNTYWIDE                 Lela Pittenger                        Precinct 103                                           01 
01080020004000001REP       United States Senator MORRIS COUNTYWIDE                 Lela Pittenger                        Precinct 202                                           01 
01080020005000001REP       United States Senator MORRIS COUNTYWIDE                 Lela Pittenger                        Precinct 203                                           01 
01080020007000000REP       United States Senator MORRIS COUNTYWIDE                 Lela Pittenger                        Precinct 302                                           01 
01080020008000001REP       United States Senator MORRIS COUNTYWIDE                 Lela Pittenger                        Precinct 303                                           01 
01080020009000004REP       United States Senator MORRIS COUNTYWIDE                 Lela Pittenger                        Precinct 401                                           01 
01080030001000000REP       United States Senator MORRIS COUNTYWIDE                 Joe Agris                             Precinct 101                                           01 
01080030002000000REP       United States Senator MORRIS COUNTYWIDE                 Joe Agris                             Precinct 102                                           01 
01080030003000000REP       United States Senator MORRIS COUNTYWIDE                 Joe Agris                             Precinct 103                                           01 
01080030004000002REP       United States Senator MORRIS COUNTYWIDE                 Joe Agris                             Precinct 202                                           01 
01080030005000000REP       United States Senator MORRIS COUNTYWIDE                 Joe Agris                             Precinct 203                                           01 
01080030007000000REP       United States Senator MORRIS COUNTYWIDE                 Joe Agris                             Precinct 302                                           01 
01080030008000000REP       United States Senator MORRIS COUNTYWIDE                 Joe Agris                             Precinct 303                                           01 
01080030009000000REP       United States Senator MORRIS COUNTYWIDE                 Joe Agris                             Precinct 401                                           01 
01080040001000000REP       United States Senator MORRIS COUNTYWIDE                 Ben Gambini                           Precinct 101                                           01 
01080040002000000REP       United States Senator MORRIS COUNTYWIDE                 Ben Gambini                           Precinct 102                                           01 
01080040003000000REP       United States Senator MORRIS COUNTYWIDE                 Ben Gambini                           Precinct 103                                           01 
01080040004000001REP       United States Senator MORRIS COUNTYWIDE                 Ben Gambini                           Precinct 202                                           01 
01080040005000001REP       United States Senator MORRIS COUNTYWIDE                 Ben Gambini                           Precinct 203                                           01 
01080040007000001REP       United States Senator MORRIS COUNTYWIDE                 Ben Gambini                           Precinct 302                                           01 
01080040008000001REP       United States Senator MORRIS COUNTYWIDE                 Ben Gambini                           Precinct 303                                           01 
01080040009000002REP       United States Senator MORRIS COUNTYWIDE                 Ben Gambini                           Precinct 401                                           01 
01080050001000000REP       United States Senator MORRIS COUNTYWIDE                 Curt Cleaver                          Precinct 101                                           01 
01080050002000000REP       United States Senator MORRIS COUNTYWIDE                 Curt Cleaver                          Precinct 102                                           01 
01080050003000000REP       United States Senator MORRIS COUNTYWIDE                 Curt Cleaver                          Precinct 103                                           01 
01080050004000001REP       United States Senator MORRIS COUNTYWIDE                 Curt Cleaver                          Precinct 202                                           01 
01080050005000001REP       United States Senator MORRIS COUNTYWIDE                 Curt Cleaver                          Precinct 203                                           01 
01080050007000000REP       United States Senator MORRIS COUNTYWIDE                 Curt Cleaver                          Precinct 302                                           01 
01080050008000000REP       United States Senator MORRIS COUNTYWIDE                 Curt Cleaver                          Precinct 303                                           01 
01080050009000003REP       United States Senator MORRIS COUNTYWIDE                 Curt Cleaver                          Precinct 401                                           01 
01080060001000000REP       United States Senator MORRIS COUNTYWIDE                 Tom Leppert                           Precinct 101                                           01 
01080060002000002REP       United States Senator MORRIS COUNTYWIDE                 Tom Leppert                           Precinct 102                                           01 
01080060003000001REP       United States Senator MORRIS COUNTYWIDE                 Tom Leppert                           Precinct 103                                           01 
01080060004000006REP       United States Senator MORRIS COUNTYWIDE                 Tom Leppert                           Precinct 202                                           01 
01080060005000007REP       United States Senator MORRIS COUNTYWIDE                 Tom Leppert                           Precinct 203                                           01 
01080060007000006REP       United States Senator MORRIS COUNTYWIDE                 Tom Leppert                           Precinct 302                                           01 
01080060008000001REP       United States Senator MORRIS COUNTYWIDE                 Tom Leppert                           Precinct 303                                           01 
01080060009000011REP       United States Senator MORRIS COUNTYWIDE                 Tom Leppert                           Precinct 401                                           01 
01080070001000000REP       United States Senator MORRIS COUNTYWIDE                 Glenn Addison                         Precinct 101                                           01 
01080070002000000REP       United States Senator MORRIS COUNTYWIDE                 Glenn Addison                         Precinct 102                                           01 
01080070003000000REP       United States Senator MORRIS COUNTYWIDE                 Glenn Addison                         Precinct 103                                           01 
01080070004000001REP       United States Senator MORRIS COUNTYWIDE                 Glenn Addison                         Precinct 202                                           01 
01080070005000006REP       United States Senator MORRIS COUNTYWIDE                 Glenn Addison                         Precinct 203                                           01 
01080070007000001REP       United States Senator MORRIS COUNTYWIDE                 Glenn Addison                         Precinct 302                                           01 
01080070008000000REP       United States Senator MORRIS COUNTYWIDE                 Glenn Addison                         Precinct 303                                           01 
01080070009000004REP       United States Senator MORRIS COUNTYWIDE                 Glenn Addison                         Precinct 401                                           01 
01080080001000004REP       United States Senator MORRIS COUNTYWIDE                 Ted Cruz                              Precinct 101                                           01 
01080080002000007REP       United States Senator MORRIS COUNTYWIDE                 Ted Cruz                              Precinct 102                                           01 
01080080003000005REP       United States Senator MORRIS COUNTYWIDE                 Ted Cruz                              Precinct 103                                           01 
01080080004000021REP       United States Senator MORRIS COUNTYWIDE                 Ted Cruz                              Precinct 202                                           01 
01080080005000022REP       United States Senator MORRIS COUNTYWIDE                 Ted Cruz                              Precinct 203                                           01 
01080080007000012REP       United States Senator MORRIS COUNTYWIDE                 Ted Cruz                              Precinct 302                                           01 
01080080008000006REP       United States Senator MORRIS COUNTYWIDE                 Ted Cruz                              Precinct 303                                           01 
01080080009000032REP       United States Senator MORRIS COUNTYWIDE                 Ted Cruz                              Precinct 401                                           01 
01080090001000007REP       United States Senator MORRIS COUNTYWIDE                 David Dewhurst                        Precinct 101                                           01 
01080090002000002REP       United States Senator MORRIS COUNTYWIDE                 David Dewhurst                        Precinct 102                                           01 
01080090003000014REP       United States Senator MORRIS COUNTYWIDE                 David Dewhurst                        Precinct 103                                           01 
01080090004000037REP       United States Senator MORRIS COUNTYWIDE                 David Dewhurst                        Precinct 202                                           01 
01080090005000045REP       United States Senator MORRIS COUNTYWIDE                 David Dewhurst                        Precinct 203                                           01 
01080090007000006REP       United States Senator MORRIS COUNTYWIDE                 David Dewhurst                        Precinct 302                                           01 
01080090008000023REP       United States Senator MORRIS COUNTYWIDE                 David Dewhurst                        Precinct 303                                           01 
01080090009000067REP       United States Senator MORRIS COUNTYWIDE                 David Dewhurst                        Precinct 401                                           01 
01080100001000000REP       United States Senator MORRIS COUNTYWIDE                 OVER VOTES                            Precinct 101                                           01 
01080100002000000REP       United States Senator MORRIS COUNTYWIDE                 OVER VOTES                            Precinct 102                                           01 
01080100003000000REP       United States Senator MORRIS COUNTYWIDE                 OVER VOTES                            Precinct 103                                           01 
01080100004000000REP       United States Senator MORRIS COUNTYWIDE                 OVER VOTES                            Precinct 202                                           01 
01080100005000000REP       United States Senator MORRIS COUNTYWIDE                 OVER VOTES                            Precinct 203                                           01 
01080100007000000REP       United States Senator MORRIS COUNTYWIDE                 OVER VOTES                            Precinct 302                                           01 
01080100008000000REP       United States Senator MORRIS COUNTYWIDE                 OVER VOTES                            Precinct 303                                           01 
01080100009000000REP       United States Senator MORRIS COUNTYWIDE                 OVER VOTES                            Precinct 401                                           01 
01080110001000001REP       United States Senator MORRIS COUNTYWIDE                 UNDER VOTES                           Precinct 101                                           01 
01080110002000000REP       United States Senator MORRIS COUNTYWIDE                 UNDER VOTES                           Precinct 102                                           01 
01080110003000004REP       United States Senator MORRIS COUNTYWIDE                 UNDER VOTES                           Precinct 103                                           01 
01080110004000009REP       United States Senator MORRIS COUNTYWIDE                 UNDER VOTES                           Precinct 202                                           01 
01080110005000005REP       United States Senator MORRIS COUNTYWIDE                 UNDER VOTES                           Precinct 203                                           01 
01080110007000003REP       United States Senator MORRIS COUNTYWIDE                 UNDER VOTES                           Precinct 302                                           01 
01080110008000002REP       United States Senator MORRIS COUNTYWIDE                 UNDER VOTES                           Precinct 303                                           01 
01080110009000022REP       United States Senator MORRIS COUNTYWIDE                 UNDER VOTES                           Precinct 401                                           01 
01090010001000002REP       US Representative, District 4 MORRIS COUNTYWIDE         Lou Gigliotti                         Precinct 101                                           01 
01090010002000005REP       US Representative, District 4 MORRIS COUNTYWIDE         Lou Gigliotti                         Precinct 102                                           01 
01090010003000010REP       US Representative, District 4 MORRIS COUNTYWIDE         Lou Gigliotti                         Precinct 103                                           01 
01090010004000011REP       US Representative, District 4 MORRIS COUNTYWIDE         Lou Gigliotti                         Precinct 202                                           01 
01090010005000020REP       US Representative, District 4 MORRIS COUNTYWIDE         Lou Gigliotti                         Precinct 203                                           01 
01090010007000005REP       US Representative, District 4 MORRIS COUNTYWIDE         Lou Gigliotti                         Precinct 302                                           01 
01090010008000007REP       US Representative, District 4 MORRIS COUNTYWIDE         Lou Gigliotti                         Precinct 303                                           01 
01090010009000026REP       US Representative, District 4 MORRIS COUNTYWIDE         Lou Gigliotti                         Precinct 401                                           01 
01090020001000003REP       US Representative, District 4 MORRIS COUNTYWIDE         Steve Clark                           Precinct 101                                           01 
01090020002000001REP       US Representative, District 4 MORRIS COUNTYWIDE         Steve Clark                           Precinct 102                                           01 
01090020003000004REP       US Representative, District 4 MORRIS COUNTYWIDE         Steve Clark                           Precinct 103                                           01 
01090020004000013REP       US Representative, District 4 MORRIS COUNTYWIDE         Steve Clark                           Precinct 202                                           01 
01090020005000014REP       US Representative, District 4 MORRIS COUNTYWIDE         Steve Clark                           Precinct 203                                           01 
01090020007000004REP       US Representative, District 4 MORRIS COUNTYWIDE         Steve Clark                           Precinct 302                                           01 
01090020008000010REP       US Representative, District 4 MORRIS COUNTYWIDE         Steve Clark                           Precinct 303                                           01 
01090020009000033REP       US Representative, District 4 MORRIS COUNTYWIDE         Steve Clark                           Precinct 401                                           01 
01090030001000009REP       US Representative, District 4 MORRIS COUNTYWIDE         Raplh M. Hall                         Precinct 101                                           01 
01090030002000006REP       US Representative, District 4 MORRIS COUNTYWIDE         Raplh M. Hall                         Precinct 102                                           01 
01090030003000012REP       US Representative, District 4 MORRIS COUNTYWIDE         Raplh M. Hall                         Precinct 103                                           01 
01090030004000052REP       US Representative, District 4 MORRIS COUNTYWIDE         Raplh M. Hall                         Precinct 202                                           01 
01090030005000057REP       US Representative, District 4 MORRIS COUNTYWIDE         Raplh M. Hall                         Precinct 203                                           01 
01090030007000017REP       US Representative, District 4 MORRIS COUNTYWIDE         Raplh M. Hall                         Precinct 302                                           01 
01090030008000020REP       US Representative, District 4 MORRIS COUNTYWIDE         Raplh M. Hall                         Precinct 303                                           01 
01090030009000082REP       US Representative, District 4 MORRIS COUNTYWIDE         Raplh M. Hall                         Precinct 401                                           01 
01090040001000000REP       US Representative, District 4 MORRIS COUNTYWIDE         OVER VOTES                            Precinct 101                                           01 
01090040002000000REP       US Representative, District 4 MORRIS COUNTYWIDE         OVER VOTES                            Precinct 102                                           01 
01090040003000000REP       US Representative, District 4 MORRIS COUNTYWIDE         OVER VOTES                            Precinct 103                                           01 
01090040004000000REP       US Representative, District 4 MORRIS COUNTYWIDE         OVER VOTES                            Precinct 202                                           01 
01090040005000000REP       US Representative, District 4 MORRIS COUNTYWIDE         OVER VOTES                            Precinct 203                                           01 
01090040007000000REP       US Representative, District 4 MORRIS COUNTYWIDE         OVER VOTES                            Precinct 302                                           01 
01090040008000000REP       US Representative, District 4 MORRIS COUNTYWIDE         OVER VOTES                            Precinct 303                                           01 
01090040009000000REP       US Representative, District 4 MORRIS COUNTYWIDE         OVER VOTES                            Precinct 401                                           01 
01090050001000000REP       US Representative, District 4 MORRIS COUNTYWIDE         UNDER VOTES                           Precinct 101                                           01 
01090050002000001REP       US Representative, District 4 MORRIS COUNTYWIDE         UNDER VOTES                           Precinct 102                                           01 
01090050003000003REP       US Representative, District 4 MORRIS COUNTYWIDE         UNDER VOTES                           Precinct 103                                           01 
01090050004000007REP       US Representative, District 4 MORRIS COUNTYWIDE         UNDER VOTES                           Precinct 202                                           01 
01090050005000003REP       US Representative, District 4 MORRIS COUNTYWIDE         UNDER VOTES                           Precinct 203                                           01 
01090050007000004REP       US Representative, District 4 MORRIS COUNTYWIDE         UNDER VOTES                           Precinct 302                                           01 
01090050008000003REP       US Representative, District 4 MORRIS COUNTYWIDE         UNDER VOTES                           Precinct 303                                           01 
01090050009000021REP       US Representative, District 4 MORRIS COUNTYWIDE         UNDER VOTES                           Precinct 401                                           01 
01100010001000003REP       Railroad Commissioner MORRIS COUNTYWIDE                 Becky Berger                          Precinct 101                                           01 
01100010002000002REP       Railroad Commissioner MORRIS COUNTYWIDE                 Becky Berger                          Precinct 102                                           01 
01100010003000003REP       Railroad Commissioner MORRIS COUNTYWIDE                 Becky Berger                          Precinct 103                                           01 
01100010004000010REP       Railroad Commissioner MORRIS COUNTYWIDE                 Becky Berger                          Precinct 202                                           01 
01100010005000024REP       Railroad Commissioner MORRIS COUNTYWIDE                 Becky Berger                          Precinct 203                                           01 
01100010007000005REP       Railroad Commissioner MORRIS COUNTYWIDE                 Becky Berger                          Precinct 302                                           01 
01100010008000008REP       Railroad Commissioner MORRIS COUNTYWIDE                 Becky Berger                          Precinct 303                                           01 
01100010009000021REP       Railroad Commissioner MORRIS COUNTYWIDE                 Becky Berger                          Precinct 401                                           01 
01100020001000000REP       Railroad Commissioner MORRIS COUNTYWIDE                 Roland Sledge                         Precinct 101                                           01 
01100020002000001REP       Railroad Commissioner MORRIS COUNTYWIDE                 Roland Sledge                         Precinct 102                                           01 
01100020003000002REP       Railroad Commissioner MORRIS COUNTYWIDE                 Roland Sledge                         Precinct 103                                           01 
01100020004000009REP       Railroad Commissioner MORRIS COUNTYWIDE                 Roland Sledge                         Precinct 202                                           01 
01100020005000006REP       Railroad Commissioner MORRIS COUNTYWIDE                 Roland Sledge                         Precinct 203                                           01 
01100020007000000REP       Railroad Commissioner MORRIS COUNTYWIDE                 Roland Sledge                         Precinct 302                                           01 
01100020008000006REP       Railroad Commissioner MORRIS COUNTYWIDE                 Roland Sledge                         Precinct 303                                           01 
01100020009000008REP       Railroad Commissioner MORRIS COUNTYWIDE                 Roland Sledge                         Precinct 401                                           01 
01100030001000003REP       Railroad Commissioner MORRIS COUNTYWIDE                 Christi Craddick                      Precinct 101                                           01 
01100030002000003REP       Railroad Commissioner MORRIS COUNTYWIDE                 Christi Craddick                      Precinct 102                                           01 
01100030003000003REP       Railroad Commissioner MORRIS COUNTYWIDE                 Christi Craddick                      Precinct 103                                           01 
01100030004000013REP       Railroad Commissioner MORRIS COUNTYWIDE                 Christi Craddick                      Precinct 202                                           01 
01100030005000023REP       Railroad Commissioner MORRIS COUNTYWIDE                 Christi Craddick                      Precinct 203                                           01 
01100030007000005REP       Railroad Commissioner MORRIS COUNTYWIDE                 Christi Craddick                      Precinct 302                                           01 
01100030008000002REP       Railroad Commissioner MORRIS COUNTYWIDE                 Christi Craddick                      Precinct 303                                           01 
01100030009000027REP       Railroad Commissioner MORRIS COUNTYWIDE                 Christi Craddick                      Precinct 401                                           01 
01100040001000001REP       Railroad Commissioner MORRIS COUNTYWIDE                 Beryl Burgess                         Precinct 101                                           01 
01100040002000000REP       Railroad Commissioner MORRIS COUNTYWIDE                 Beryl Burgess                         Precinct 102                                           01 
01100040003000001REP       Railroad Commissioner MORRIS COUNTYWIDE                 Beryl Burgess                         Precinct 103                                           01 
01100040004000001REP       Railroad Commissioner MORRIS COUNTYWIDE                 Beryl Burgess                         Precinct 202                                           01 
01100040005000003REP       Railroad Commissioner MORRIS COUNTYWIDE                 Beryl Burgess                         Precinct 203                                           01 
01100040007000000REP       Railroad Commissioner MORRIS COUNTYWIDE                 Beryl Burgess                         Precinct 302                                           01 
01100040008000002REP       Railroad Commissioner MORRIS COUNTYWIDE                 Beryl Burgess                         Precinct 303                                           01 
01100040009000008REP       Railroad Commissioner MORRIS COUNTYWIDE                 Beryl Burgess                         Precinct 401                                           01 
01100050001000001REP       Railroad Commissioner MORRIS COUNTYWIDE                 Joe Cotten                            Precinct 101                                           01 
01100050002000002REP       Railroad Commissioner MORRIS COUNTYWIDE                 Joe Cotten                            Precinct 102                                           01 
01100050003000009REP       Railroad Commissioner MORRIS COUNTYWIDE                 Joe Cotten                            Precinct 103                                           01 
01100050004000020REP       Railroad Commissioner MORRIS COUNTYWIDE                 Joe Cotten                            Precinct 202                                           01 
01100050005000011REP       Railroad Commissioner MORRIS COUNTYWIDE                 Joe Cotten                            Precinct 203                                           01 
01100050007000005REP       Railroad Commissioner MORRIS COUNTYWIDE                 Joe Cotten                            Precinct 302                                           01 
01100050008000005REP       Railroad Commissioner MORRIS COUNTYWIDE                 Joe Cotten                            Precinct 303                                           01 
01100050009000023REP       Railroad Commissioner MORRIS COUNTYWIDE                 Joe Cotten                            Precinct 401                                           01 
01100060001000003REP       Railroad Commissioner MORRIS COUNTYWIDE                 Warren Chisum                         Precinct 101                                           01 
01100060002000003REP       Railroad Commissioner MORRIS COUNTYWIDE                 Warren Chisum                         Precinct 102                                           01 
01100060003000004REP       Railroad Commissioner MORRIS COUNTYWIDE                 Warren Chisum                         Precinct 103                                           01 
01100060004000011REP       Railroad Commissioner MORRIS COUNTYWIDE                 Warren Chisum                         Precinct 202                                           01 
01100060005000008REP       Railroad Commissioner MORRIS COUNTYWIDE                 Warren Chisum                         Precinct 203                                           01 
01100060007000003REP       Railroad Commissioner MORRIS COUNTYWIDE                 Warren Chisum                         Precinct 302                                           01 
01100060008000008REP       Railroad Commissioner MORRIS COUNTYWIDE                 Warren Chisum                         Precinct 303                                           01 
01100060009000035REP       Railroad Commissioner MORRIS COUNTYWIDE                 Warren Chisum                         Precinct 401                                           01 
01100070001000000REP       Railroad Commissioner MORRIS COUNTYWIDE                 OVER VOTES                            Precinct 101                                           01 
01100070002000000REP       Railroad Commissioner MORRIS COUNTYWIDE                 OVER VOTES                            Precinct 102                                           01 
01100070003000000REP       Railroad Commissioner MORRIS COUNTYWIDE                 OVER VOTES                            Precinct 103                                           01 
01100070004000000REP       Railroad Commissioner MORRIS COUNTYWIDE                 OVER VOTES                            Precinct 202                                           01 
01100070005000000REP       Railroad Commissioner MORRIS COUNTYWIDE                 OVER VOTES                            Precinct 203                                           01 
01100070007000000REP       Railroad Commissioner MORRIS COUNTYWIDE                 OVER VOTES                            Precinct 302                                           01 
01100070008000000REP       Railroad Commissioner MORRIS COUNTYWIDE                 OVER VOTES                            Precinct 303                                           01 
01100070009000000REP       Railroad Commissioner MORRIS COUNTYWIDE                 OVER VOTES                            Precinct 401                                           01 
01100080001000003REP       Railroad Commissioner MORRIS COUNTYWIDE                 UNDER VOTES                           Precinct 101                                           01 
01100080002000002REP       Railroad Commissioner MORRIS COUNTYWIDE                 UNDER VOTES                           Precinct 102                                           01 
01100080003000007REP       Railroad Commissioner MORRIS COUNTYWIDE                 UNDER VOTES                           Precinct 103                                           01 
01100080004000019REP       Railroad Commissioner MORRIS COUNTYWIDE                 UNDER VOTES                           Precinct 202                                           01 
01100080005000019REP       Railroad Commissioner MORRIS COUNTYWIDE                 UNDER VOTES                           Precinct 203                                           01 
01100080007000012REP       Railroad Commissioner MORRIS COUNTYWIDE                 UNDER VOTES                           Precinct 302                                           01 
01100080008000009REP       Railroad Commissioner MORRIS COUNTYWIDE                 UNDER VOTES                           Precinct 303                                           01 
01100080009000040REP       Railroad Commissioner MORRIS COUNTYWIDE                 UNDER VOTES                           Precinct 401                                           01 
01110010001000000REP       Railroad Commissioner, UNEXP MORRIS COUNTYWIDE          Al Lee                                Precinct 101                                           01 
01110010002000001REP       Railroad Commissioner, UNEXP MORRIS COUNTYWIDE          Al Lee                                Precinct 102                                           01 
01110010003000000REP       Railroad Commissioner, UNEXP MORRIS COUNTYWIDE          Al Lee                                Precinct 103                                           01 
01110010004000006REP       Railroad Commissioner, UNEXP MORRIS COUNTYWIDE          Al Lee                                Precinct 202                                           01 
01110010005000004REP       Railroad Commissioner, UNEXP MORRIS COUNTYWIDE          Al Lee                                Precinct 203                                           01 
01110010007000000REP       Railroad Commissioner, UNEXP MORRIS COUNTYWIDE          Al Lee                                Precinct 302                                           01 
01110010008000002REP       Railroad Commissioner, UNEXP MORRIS COUNTYWIDE          Al Lee                                Precinct 303                                           01 
01110010009000011REP       Railroad Commissioner, UNEXP MORRIS COUNTYWIDE          Al Lee                                Precinct 401                                           01 
01110020001000004REP       Railroad Commissioner, UNEXP MORRIS COUNTYWIDE          Barry Smitherman                      Precinct 101                                           01 
01110020002000005REP       Railroad Commissioner, UNEXP MORRIS COUNTYWIDE          Barry Smitherman                      Precinct 102                                           01 
01110020003000007REP       Railroad Commissioner, UNEXP MORRIS COUNTYWIDE          Barry Smitherman                      Precinct 103                                           01 
01110020004000017REP       Railroad Commissioner, UNEXP MORRIS COUNTYWIDE          Barry Smitherman                      Precinct 202                                           01 
01110020005000025REP       Railroad Commissioner, UNEXP MORRIS COUNTYWIDE          Barry Smitherman                      Precinct 203                                           01 
01110020007000007REP       Railroad Commissioner, UNEXP MORRIS COUNTYWIDE          Barry Smitherman                      Precinct 302                                           01 
01110020008000005REP       Railroad Commissioner, UNEXP MORRIS COUNTYWIDE          Barry Smitherman                      Precinct 303                                           01 
01110020009000028REP       Railroad Commissioner, UNEXP MORRIS COUNTYWIDE          Barry Smitherman                      Precinct 401                                           01 
01110030001000005REP       Railroad Commissioner, UNEXP MORRIS COUNTYWIDE          Elizabeth Murray-Kolb                 Precinct 101                                           01 
01110030002000002REP       Railroad Commissioner, UNEXP MORRIS COUNTYWIDE          Elizabeth Murray-Kolb                 Precinct 102                                           01 
01110030003000001REP       Railroad Commissioner, UNEXP MORRIS COUNTYWIDE          Elizabeth Murray-Kolb                 Precinct 103                                           01 
01110030004000015REP       Railroad Commissioner, UNEXP MORRIS COUNTYWIDE          Elizabeth Murray-Kolb                 Precinct 202                                           01 
01110030005000019REP       Railroad Commissioner, UNEXP MORRIS COUNTYWIDE          Elizabeth Murray-Kolb                 Precinct 203                                           01 
01110030007000002REP       Railroad Commissioner, UNEXP MORRIS COUNTYWIDE          Elizabeth Murray-Kolb                 Precinct 302                                           01 
01110030008000006REP       Railroad Commissioner, UNEXP MORRIS COUNTYWIDE          Elizabeth Murray-Kolb                 Precinct 303                                           01 
01110030009000022REP       Railroad Commissioner, UNEXP MORRIS COUNTYWIDE          Elizabeth Murray-Kolb                 Precinct 401                                           01 
01110040001000002REP       Railroad Commissioner, UNEXP MORRIS COUNTYWIDE          Greg Parker                           Precinct 101                                           01 
01110040002000002REP       Railroad Commissioner, UNEXP MORRIS COUNTYWIDE          Greg Parker                           Precinct 102                                           01 
01110040003000014REP       Railroad Commissioner, UNEXP MORRIS COUNTYWIDE          Greg Parker                           Precinct 103                                           01 
01110040004000019REP       Railroad Commissioner, UNEXP MORRIS COUNTYWIDE          Greg Parker                           Precinct 202                                           01 
01110040005000024REP       Railroad Commissioner, UNEXP MORRIS COUNTYWIDE          Greg Parker                           Precinct 203                                           01 
01110040007000008REP       Railroad Commissioner, UNEXP MORRIS COUNTYWIDE          Greg Parker                           Precinct 302                                           01 
01110040008000018REP       Railroad Commissioner, UNEXP MORRIS COUNTYWIDE          Greg Parker                           Precinct 303                                           01 
01110040009000049REP       Railroad Commissioner, UNEXP MORRIS COUNTYWIDE          Greg Parker                           Precinct 401                                           01 
01110050001000000REP       Railroad Commissioner, UNEXP MORRIS COUNTYWIDE          OVER VOTES                            Precinct 101                                           01 
01110050002000000REP       Railroad Commissioner, UNEXP MORRIS COUNTYWIDE          OVER VOTES                            Precinct 102                                           01 
01110050003000000REP       Railroad Commissioner, UNEXP MORRIS COUNTYWIDE          OVER VOTES                            Precinct 103                                           01 
01110050004000000REP       Railroad Commissioner, UNEXP MORRIS COUNTYWIDE          OVER VOTES                            Precinct 202                                           01 
01110050005000000REP       Railroad Commissioner, UNEXP MORRIS COUNTYWIDE          OVER VOTES                            Precinct 203                                           01 
01110050007000000REP       Railroad Commissioner, UNEXP MORRIS COUNTYWIDE          OVER VOTES                            Precinct 302                                           01 
01110050008000000REP       Railroad Commissioner, UNEXP MORRIS COUNTYWIDE          OVER VOTES                            Precinct 303                                           01 
01110050009000000REP       Railroad Commissioner, UNEXP MORRIS COUNTYWIDE          OVER VOTES                            Precinct 401                                           01 
01110060001000003REP       Railroad Commissioner, UNEXP MORRIS COUNTYWIDE          UNDER VOTES                           Precinct 101                                           01 
01110060002000003REP       Railroad Commissioner, UNEXP MORRIS COUNTYWIDE          UNDER VOTES                           Precinct 102                                           01 
01110060003000007REP       Railroad Commissioner, UNEXP MORRIS COUNTYWIDE          UNDER VOTES                           Precinct 103                                           01 
01110060004000026REP       Railroad Commissioner, UNEXP MORRIS COUNTYWIDE          UNDER VOTES                           Precinct 202                                           01 
01110060005000022REP       Railroad Commissioner, UNEXP MORRIS COUNTYWIDE          UNDER VOTES                           Precinct 203                                           01 
01110060007000013REP       Railroad Commissioner, UNEXP MORRIS COUNTYWIDE          UNDER VOTES                           Precinct 302                                           01 
01110060008000009REP       Railroad Commissioner, UNEXP MORRIS COUNTYWIDE          UNDER VOTES                           Precinct 303                                           01 
01110060009000052REP       Railroad Commissioner, UNEXP MORRIS COUNTYWIDE          UNDER VOTES                           Precinct 401                                           01 
01120010001000005REP       Justice, Supreme Court, Place 2 MORRIS COUNTYWIDE       Don Willett                           Precinct 101                                           01 
01120010002000007REP       Justice, Supreme Court, Place 2 MORRIS COUNTYWIDE       Don Willett                           Precinct 102                                           01 
01120010003000008REP       Justice, Supreme Court, Place 2 MORRIS COUNTYWIDE       Don Willett                           Precinct 103                                           01 
01120010004000032REP       Justice, Supreme Court, Place 2 MORRIS COUNTYWIDE       Don Willett                           Precinct 202                                           01 
01120010005000041REP       Justice, Supreme Court, Place 2 MORRIS COUNTYWIDE       Don Willett                           Precinct 203                                           01 
01120010007000008REP       Justice, Supreme Court, Place 2 MORRIS COUNTYWIDE       Don Willett                           Precinct 302                                           01 
01120010008000015REP       Justice, Supreme Court, Place 2 MORRIS COUNTYWIDE       Don Willett                           Precinct 303                                           01 
01120010009000050REP       Justice, Supreme Court, Place 2 MORRIS COUNTYWIDE       Don Willett                           Precinct 401                                           01 
01120020001000006REP       Justice, Supreme Court, Place 2 MORRIS COUNTYWIDE       Steve Smith                           Precinct 101                                           01 
01120020002000004REP       Justice, Supreme Court, Place 2 MORRIS COUNTYWIDE       Steve Smith                           Precinct 102                                           01 
01120020003000012REP       Justice, Supreme Court, Place 2 MORRIS COUNTYWIDE       Steve Smith                           Precinct 103                                           01 
01120020004000027REP       Justice, Supreme Court, Place 2 MORRIS COUNTYWIDE       Steve Smith                           Precinct 202                                           01 
01120020005000031REP       Justice, Supreme Court, Place 2 MORRIS COUNTYWIDE       Steve Smith                           Precinct 203                                           01 
01120020007000011REP       Justice, Supreme Court, Place 2 MORRIS COUNTYWIDE       Steve Smith                           Precinct 302                                           01 
01120020008000016REP       Justice, Supreme Court, Place 2 MORRIS COUNTYWIDE       Steve Smith                           Precinct 303                                           01 
01120020009000064REP       Justice, Supreme Court, Place 2 MORRIS COUNTYWIDE       Steve Smith                           Precinct 401                                           01 
01120030001000000REP       Justice, Supreme Court, Place 2 MORRIS COUNTYWIDE       OVER VOTES                            Precinct 101                                           01 
01120030002000000REP       Justice, Supreme Court, Place 2 MORRIS COUNTYWIDE       OVER VOTES                            Precinct 102                                           01 
01120030003000000REP       Justice, Supreme Court, Place 2 MORRIS COUNTYWIDE       OVER VOTES                            Precinct 103                                           01 
01120030004000000REP       Justice, Supreme Court, Place 2 MORRIS COUNTYWIDE       OVER VOTES                            Precinct 202                                           01 
01120030005000000REP       Justice, Supreme Court, Place 2 MORRIS COUNTYWIDE       OVER VOTES                            Precinct 203                                           01 
01120030007000000REP       Justice, Supreme Court, Place 2 MORRIS COUNTYWIDE       OVER VOTES                            Precinct 302                                           01 
01120030008000000REP       Justice, Supreme Court, Place 2 MORRIS COUNTYWIDE       OVER VOTES                            Precinct 303                                           01 
01120030009000000REP       Justice, Supreme Court, Place 2 MORRIS COUNTYWIDE       OVER VOTES                            Precinct 401                                           01 
01120040001000003REP       Justice, Supreme Court, Place 2 MORRIS COUNTYWIDE       UNDER VOTES                           Precinct 101                                           01 
01120040002000002REP       Justice, Supreme Court, Place 2 MORRIS COUNTYWIDE       UNDER VOTES                           Precinct 102                                           01 
01120040003000009REP       Justice, Supreme Court, Place 2 MORRIS COUNTYWIDE       UNDER VOTES                           Precinct 103                                           01 
01120040004000024REP       Justice, Supreme Court, Place 2 MORRIS COUNTYWIDE       UNDER VOTES                           Precinct 202                                           01 
01120040005000022REP       Justice, Supreme Court, Place 2 MORRIS COUNTYWIDE       UNDER VOTES                           Precinct 203                                           01 
01120040007000011REP       Justice, Supreme Court, Place 2 MORRIS COUNTYWIDE       UNDER VOTES                           Precinct 302                                           01 
01120040008000009REP       Justice, Supreme Court, Place 2 MORRIS COUNTYWIDE       UNDER VOTES                           Precinct 303                                           01 
01120040009000048REP       Justice, Supreme Court, Place 2 MORRIS COUNTYWIDE       UNDER VOTES                           Precinct 401                                           01 
01130010001000002REP       Justice, Supreme Court, Place 4 MORRIS COUNTYWIDE       David Medina                          Precinct 101                                           01 
01130010002000000REP       Justice, Supreme Court, Place 4 MORRIS COUNTYWIDE       David Medina                          Precinct 102                                           01 
01130010003000011REP       Justice, Supreme Court, Place 4 MORRIS COUNTYWIDE       David Medina                          Precinct 103                                           01 
01130010004000019REP       Justice, Supreme Court, Place 4 MORRIS COUNTYWIDE       David Medina                          Precinct 202                                           01 
01130010005000021REP       Justice, Supreme Court, Place 4 MORRIS COUNTYWIDE       David Medina                          Precinct 203                                           01 
01130010007000007REP       Justice, Supreme Court, Place 4 MORRIS COUNTYWIDE       David Medina                          Precinct 302                                           01 
01130010008000013REP       Justice, Supreme Court, Place 4 MORRIS COUNTYWIDE       David Medina                          Precinct 303                                           01 
01130010009000043REP       Justice, Supreme Court, Place 4 MORRIS COUNTYWIDE       David Medina                          Precinct 401                                           01 
01130020001000002REP       Justice, Supreme Court, Place 4 MORRIS COUNTYWIDE       John Devine                           Precinct 101                                           01 
01130020002000002REP       Justice, Supreme Court, Place 4 MORRIS COUNTYWIDE       John Devine                           Precinct 102                                           01 
01130020003000004REP       Justice, Supreme Court, Place 4 MORRIS COUNTYWIDE       John Devine                           Precinct 103                                           01 
01130020004000018REP       Justice, Supreme Court, Place 4 MORRIS COUNTYWIDE       John Devine                           Precinct 202                                           01 
01130020005000023REP       Justice, Supreme Court, Place 4 MORRIS COUNTYWIDE       John Devine                           Precinct 203                                           01 
01130020007000005REP       Justice, Supreme Court, Place 4 MORRIS COUNTYWIDE       John Devine                           Precinct 302                                           01 
01130020008000009REP       Justice, Supreme Court, Place 4 MORRIS COUNTYWIDE       John Devine                           Precinct 303                                           01 
01130020009000030REP       Justice, Supreme Court, Place 4 MORRIS COUNTYWIDE       John Devine                           Precinct 401                                           01 
01130030001000005REP       Justice, Supreme Court, Place 4 MORRIS COUNTYWIDE       Joe Pool, Jr.                         Precinct 101                                           01 
01130030002000007REP       Justice, Supreme Court, Place 4 MORRIS COUNTYWIDE       Joe Pool, Jr.                         Precinct 102                                           01 
01130030003000007REP       Justice, Supreme Court, Place 4 MORRIS COUNTYWIDE       Joe Pool, Jr.                         Precinct 103                                           01 
01130030004000026REP       Justice, Supreme Court, Place 4 MORRIS COUNTYWIDE       Joe Pool, Jr.                         Precinct 202                                           01 
01130030005000028REP       Justice, Supreme Court, Place 4 MORRIS COUNTYWIDE       Joe Pool, Jr.                         Precinct 203                                           01 
01130030007000007REP       Justice, Supreme Court, Place 4 MORRIS COUNTYWIDE       Joe Pool, Jr.                         Precinct 302                                           01 
01130030008000010REP       Justice, Supreme Court, Place 4 MORRIS COUNTYWIDE       Joe Pool, Jr.                         Precinct 303                                           01 
01130030009000046REP       Justice, Supreme Court, Place 4 MORRIS COUNTYWIDE       Joe Pool, Jr.                         Precinct 401                                           01 
01130040001000000REP       Justice, Supreme Court, Place 4 MORRIS COUNTYWIDE       OVER VOTES                            Precinct 101                                           01 
01130040002000000REP       Justice, Supreme Court, Place 4 MORRIS COUNTYWIDE       OVER VOTES                            Precinct 102                                           01 
01130040003000000REP       Justice, Supreme Court, Place 4 MORRIS COUNTYWIDE       OVER VOTES                            Precinct 103                                           01 
01130040004000000REP       Justice, Supreme Court, Place 4 MORRIS COUNTYWIDE       OVER VOTES                            Precinct 202                                           01 
01130040005000000REP       Justice, Supreme Court, Place 4 MORRIS COUNTYWIDE       OVER VOTES                            Precinct 203                                           01 
01130040007000000REP       Justice, Supreme Court, Place 4 MORRIS COUNTYWIDE       OVER VOTES                            Precinct 302                                           01 
01130040008000000REP       Justice, Supreme Court, Place 4 MORRIS COUNTYWIDE       OVER VOTES                            Precinct 303                                           01 
01130040009000000REP       Justice, Supreme Court, Place 4 MORRIS COUNTYWIDE       OVER VOTES                            Precinct 401                                           01 
01130050001000005REP       Justice, Supreme Court, Place 4 MORRIS COUNTYWIDE       UNDER VOTES                           Precinct 101                                           01 
01130050002000004REP       Justice, Supreme Court, Place 4 MORRIS COUNTYWIDE       UNDER VOTES                           Precinct 102                                           01 
01130050003000007REP       Justice, Supreme Court, Place 4 MORRIS COUNTYWIDE       UNDER VOTES                           Precinct 103                                           01 
01130050004000020REP       Justice, Supreme Court, Place 4 MORRIS COUNTYWIDE       UNDER VOTES                           Precinct 202                                           01 
01130050005000022REP       Justice, Supreme Court, Place 4 MORRIS COUNTYWIDE       UNDER VOTES                           Precinct 203                                           01 
01130050007000011REP       Justice, Supreme Court, Place 4 MORRIS COUNTYWIDE       UNDER VOTES                           Precinct 302                                           01 
01130050008000008REP       Justice, Supreme Court, Place 4 MORRIS COUNTYWIDE       UNDER VOTES                           Precinct 303                                           01 
01130050009000043REP       Justice, Supreme Court, Place 4 MORRIS COUNTYWIDE       UNDER VOTES                           Precinct 401                                           01 
01140010001000010REP       Justice, Supreme Court, Place 6 MORRIS COUNTYWIDE       Nathan Hecht                          Precinct 101                                           01 
01140010002000006REP       Justice, Supreme Court, Place 6 MORRIS COUNTYWIDE       Nathan Hecht                          Precinct 102                                           01 
01140010003000019REP       Justice, Supreme Court, Place 6 MORRIS COUNTYWIDE       Nathan Hecht                          Precinct 103                                           01 
01140010004000048REP       Justice, Supreme Court, Place 6 MORRIS COUNTYWIDE       Nathan Hecht                          Precinct 202                                           01 
01140010005000063REP       Justice, Supreme Court, Place 6 MORRIS COUNTYWIDE       Nathan Hecht                          Precinct 203                                           01 
01140010007000018REP       Justice, Supreme Court, Place 6 MORRIS COUNTYWIDE       Nathan Hecht                          Precinct 302                                           01 
01140010008000028REP       Justice, Supreme Court, Place 6 MORRIS COUNTYWIDE       Nathan Hecht                          Precinct 303                                           01 
01140010009000103REP       Justice, Supreme Court, Place 6 MORRIS COUNTYWIDE       Nathan Hecht                          Precinct 401                                           01 
01140020001000000REP       Justice, Supreme Court, Place 6 MORRIS COUNTYWIDE       OVER VOTES                            Precinct 101                                           01 
01140020002000000REP       Justice, Supreme Court, Place 6 MORRIS COUNTYWIDE       OVER VOTES                            Precinct 102                                           01 
01140020003000000REP       Justice, Supreme Court, Place 6 MORRIS COUNTYWIDE       OVER VOTES                            Precinct 103                                           01 
01140020004000000REP       Justice, Supreme Court, Place 6 MORRIS COUNTYWIDE       OVER VOTES                            Precinct 202                                           01 
01140020005000000REP       Justice, Supreme Court, Place 6 MORRIS COUNTYWIDE       OVER VOTES                            Precinct 203                                           01 
01140020007000000REP       Justice, Supreme Court, Place 6 MORRIS COUNTYWIDE       OVER VOTES                            Precinct 302                                           01 
01140020008000000REP       Justice, Supreme Court, Place 6 MORRIS COUNTYWIDE       OVER VOTES                            Precinct 303                                           01 
01140020009000000REP       Justice, Supreme Court, Place 6 MORRIS COUNTYWIDE       OVER VOTES                            Precinct 401                                           01 
01140030001000004REP       Justice, Supreme Court, Place 6 MORRIS COUNTYWIDE       UNDER VOTES                           Precinct 101                                           01 
01140030002000007REP       Justice, Supreme Court, Place 6 MORRIS COUNTYWIDE       UNDER VOTES                           Precinct 102                                           01 
01140030003000010REP       Justice, Supreme Court, Place 6 MORRIS COUNTYWIDE       UNDER VOTES                           Precinct 103                                           01 
01140030004000035REP       Justice, Supreme Court, Place 6 MORRIS COUNTYWIDE       UNDER VOTES                           Precinct 202                                           01 
01140030005000031REP       Justice, Supreme Court, Place 6 MORRIS COUNTYWIDE       UNDER VOTES                           Precinct 203                                           01 
01140030007000012REP       Justice, Supreme Court, Place 6 MORRIS COUNTYWIDE       UNDER VOTES                           Precinct 302                                           01 
01140030008000012REP       Justice, Supreme Court, Place 6 MORRIS COUNTYWIDE       UNDER VOTES                           Precinct 303                                           01 
01140030009000059REP       Justice, Supreme Court, Place 6 MORRIS COUNTYWIDE       UNDER VOTES                           Precinct 401                                           01 
01150010001000010REP       Presiding Judge, CT of Criminal AP MORRIS COUNTYWIDE    Sharon  Keller                        Precinct 101                                           01 
01150010002000006REP       Presiding Judge, CT of Criminal AP MORRIS COUNTYWIDE    Sharon  Keller                        Precinct 102                                           01 
01150010003000018REP       Presiding Judge, CT of Criminal AP MORRIS COUNTYWIDE    Sharon  Keller                        Precinct 103                                           01 
01150010004000051REP       Presiding Judge, CT of Criminal AP MORRIS COUNTYWIDE    Sharon  Keller                        Precinct 202                                           01 
01150010005000064REP       Presiding Judge, CT of Criminal AP MORRIS COUNTYWIDE    Sharon  Keller                        Precinct 203                                           01 
01150010007000018REP       Presiding Judge, CT of Criminal AP MORRIS COUNTYWIDE    Sharon  Keller                        Precinct 302                                           01 
01150010008000028REP       Presiding Judge, CT of Criminal AP MORRIS COUNTYWIDE    Sharon  Keller                        Precinct 303                                           01 
01150010009000109REP       Presiding Judge, CT of Criminal AP MORRIS COUNTYWIDE    Sharon  Keller                        Precinct 401                                           01 
01150020001000000REP       Presiding Judge, CT of Criminal AP MORRIS COUNTYWIDE    OVER VOTES                            Precinct 101                                           01 
01150020002000000REP       Presiding Judge, CT of Criminal AP MORRIS COUNTYWIDE    OVER VOTES                            Precinct 102                                           01 
01150020003000000REP       Presiding Judge, CT of Criminal AP MORRIS COUNTYWIDE    OVER VOTES                            Precinct 103                                           01 
01150020004000000REP       Presiding Judge, CT of Criminal AP MORRIS COUNTYWIDE    OVER VOTES                            Precinct 202                                           01 
01150020005000000REP       Presiding Judge, CT of Criminal AP MORRIS COUNTYWIDE    OVER VOTES                            Precinct 203                                           01 
01150020007000000REP       Presiding Judge, CT of Criminal AP MORRIS COUNTYWIDE    OVER VOTES                            Precinct 302                                           01 
01150020008000000REP       Presiding Judge, CT of Criminal AP MORRIS COUNTYWIDE    OVER VOTES                            Precinct 303                                           01 
01150020009000000REP       Presiding Judge, CT of Criminal AP MORRIS COUNTYWIDE    OVER VOTES                            Precinct 401                                           01 
01150030001000004REP       Presiding Judge, CT of Criminal AP MORRIS COUNTYWIDE    UNDER VOTES                           Precinct 101                                           01 
01150030002000007REP       Presiding Judge, CT of Criminal AP MORRIS COUNTYWIDE    UNDER VOTES                           Precinct 102                                           01 
01150030003000011REP       Presiding Judge, CT of Criminal AP MORRIS COUNTYWIDE    UNDER VOTES                           Precinct 103                                           01 
01150030004000032REP       Presiding Judge, CT of Criminal AP MORRIS COUNTYWIDE    UNDER VOTES                           Precinct 202                                           01 
01150030005000030REP       Presiding Judge, CT of Criminal AP MORRIS COUNTYWIDE    UNDER VOTES                           Precinct 203                                           01 
01150030007000012REP       Presiding Judge, CT of Criminal AP MORRIS COUNTYWIDE    UNDER VOTES                           Precinct 302                                           01 
01150030008000012REP       Presiding Judge, CT of Criminal AP MORRIS COUNTYWIDE    UNDER VOTES                           Precinct 303                                           01 
01150030009000053REP       Presiding Judge, CT of Criminal AP MORRIS COUNTYWIDE    UNDER VOTES                           Precinct 401                                           01 
01160010001000010REP       Judge, CT of Criminal AP, P7 MORRIS COUNTYWIDE          Barbara Parker Hervey                 Precinct 101                                           01 
01160010002000007REP       Judge, CT of Criminal AP, P7 MORRIS COUNTYWIDE          Barbara Parker Hervey                 Precinct 102                                           01 
01160010003000017REP       Judge, CT of Criminal AP, P7 MORRIS COUNTYWIDE          Barbara Parker Hervey                 Precinct 103                                           01 
01160010004000049REP       Judge, CT of Criminal AP, P7 MORRIS COUNTYWIDE          Barbara Parker Hervey                 Precinct 202                                           01 
01160010005000060REP       Judge, CT of Criminal AP, P7 MORRIS COUNTYWIDE          Barbara Parker Hervey                 Precinct 203                                           01 
01160010007000018REP       Judge, CT of Criminal AP, P7 MORRIS COUNTYWIDE          Barbara Parker Hervey                 Precinct 302                                           01 
01160010008000028REP       Judge, CT of Criminal AP, P7 MORRIS COUNTYWIDE          Barbara Parker Hervey                 Precinct 303                                           01 
01160010009000109REP       Judge, CT of Criminal AP, P7 MORRIS COUNTYWIDE          Barbara Parker Hervey                 Precinct 401                                           01 
01160020001000000REP       Judge, CT of Criminal AP, P7 MORRIS COUNTYWIDE          OVER VOTES                            Precinct 101                                           01 
01160020002000000REP       Judge, CT of Criminal AP, P7 MORRIS COUNTYWIDE          OVER VOTES                            Precinct 102                                           01 
01160020003000000REP       Judge, CT of Criminal AP, P7 MORRIS COUNTYWIDE          OVER VOTES                            Precinct 103                                           01 
01160020004000000REP       Judge, CT of Criminal AP, P7 MORRIS COUNTYWIDE          OVER VOTES                            Precinct 202                                           01 
01160020005000000REP       Judge, CT of Criminal AP, P7 MORRIS COUNTYWIDE          OVER VOTES                            Precinct 203                                           01 
01160020007000000REP       Judge, CT of Criminal AP, P7 MORRIS COUNTYWIDE          OVER VOTES                            Precinct 302                                           01 
01160020008000000REP       Judge, CT of Criminal AP, P7 MORRIS COUNTYWIDE          OVER VOTES                            Precinct 303                                           01 
01160020009000000REP       Judge, CT of Criminal AP, P7 MORRIS COUNTYWIDE          OVER VOTES                            Precinct 401                                           01 
01160030001000004REP       Judge, CT of Criminal AP, P7 MORRIS COUNTYWIDE          UNDER VOTES                           Precinct 101                                           01 
01160030002000006REP       Judge, CT of Criminal AP, P7 MORRIS COUNTYWIDE          UNDER VOTES                           Precinct 102                                           01 
01160030003000012REP       Judge, CT of Criminal AP, P7 MORRIS COUNTYWIDE          UNDER VOTES                           Precinct 103                                           01 
01160030004000034REP       Judge, CT of Criminal AP, P7 MORRIS COUNTYWIDE          UNDER VOTES                           Precinct 202                                           01 
01160030005000034REP       Judge, CT of Criminal AP, P7 MORRIS COUNTYWIDE          UNDER VOTES                           Precinct 203                                           01 
01160030007000012REP       Judge, CT of Criminal AP, P7 MORRIS COUNTYWIDE          UNDER VOTES                           Precinct 302                                           01 
01160030008000012REP       Judge, CT of Criminal AP, P7 MORRIS COUNTYWIDE          UNDER VOTES                           Precinct 303                                           01 
01160030009000053REP       Judge, CT of Criminal AP, P7 MORRIS COUNTYWIDE          UNDER VOTES                           Precinct 401                                           01 
01170010001000010REP       Judge, CT of Criminal AP, P8 MORRIS COUNTYWIDE          Elsa Alcala                           Precinct 101                                           01 
01170010002000006REP       Judge, CT of Criminal AP, P8 MORRIS COUNTYWIDE          Elsa Alcala                           Precinct 102                                           01 
01170010003000017REP       Judge, CT of Criminal AP, P8 MORRIS COUNTYWIDE          Elsa Alcala                           Precinct 103                                           01 
01170010004000048REP       Judge, CT of Criminal AP, P8 MORRIS COUNTYWIDE          Elsa Alcala                           Precinct 202                                           01 
01170010005000058REP       Judge, CT of Criminal AP, P8 MORRIS COUNTYWIDE          Elsa Alcala                           Precinct 203                                           01 
01170010007000017REP       Judge, CT of Criminal AP, P8 MORRIS COUNTYWIDE          Elsa Alcala                           Precinct 302                                           01 
01170010008000027REP       Judge, CT of Criminal AP, P8 MORRIS COUNTYWIDE          Elsa Alcala                           Precinct 303                                           01 
01170010009000100REP       Judge, CT of Criminal AP, P8 MORRIS COUNTYWIDE          Elsa Alcala                           Precinct 401                                           01 
01170020001000000REP       Judge, CT of Criminal AP, P8 MORRIS COUNTYWIDE          OVER VOTES                            Precinct 101                                           01 
01170020002000000REP       Judge, CT of Criminal AP, P8 MORRIS COUNTYWIDE          OVER VOTES                            Precinct 102                                           01 
01170020003000000REP       Judge, CT of Criminal AP, P8 MORRIS COUNTYWIDE          OVER VOTES                            Precinct 103                                           01 
01170020004000000REP       Judge, CT of Criminal AP, P8 MORRIS COUNTYWIDE          OVER VOTES                            Precinct 202                                           01 
01170020005000000REP       Judge, CT of Criminal AP, P8 MORRIS COUNTYWIDE          OVER VOTES                            Precinct 203                                           01 
01170020007000000REP       Judge, CT of Criminal AP, P8 MORRIS COUNTYWIDE          OVER VOTES                            Precinct 302                                           01 
01170020008000000REP       Judge, CT of Criminal AP, P8 MORRIS COUNTYWIDE          OVER VOTES                            Precinct 303                                           01 
01170020009000000REP       Judge, CT of Criminal AP, P8 MORRIS COUNTYWIDE          OVER VOTES                            Precinct 401                                           01 
01170030001000004REP       Judge, CT of Criminal AP, P8 MORRIS COUNTYWIDE          UNDER VOTES                           Precinct 101                                           01 
01170030002000007REP       Judge, CT of Criminal AP, P8 MORRIS COUNTYWIDE          UNDER VOTES                           Precinct 102                                           01 
01170030003000012REP       Judge, CT of Criminal AP, P8 MORRIS COUNTYWIDE          UNDER VOTES                           Precinct 103                                           01 
01170030004000035REP       Judge, CT of Criminal AP, P8 MORRIS COUNTYWIDE          UNDER VOTES                           Precinct 202                                           01 
01170030005000036REP       Judge, CT of Criminal AP, P8 MORRIS COUNTYWIDE          UNDER VOTES                           Precinct 203                                           01 
01170030007000013REP       Judge, CT of Criminal AP, P8 MORRIS COUNTYWIDE          UNDER VOTES                           Precinct 302                                           01 
01170030008000013REP       Judge, CT of Criminal AP, P8 MORRIS COUNTYWIDE          UNDER VOTES                           Precinct 303                                           01 
01170030009000062REP       Judge, CT of Criminal AP, P8 MORRIS COUNTYWIDE          UNDER VOTES                           Precinct 401                                           01 
01180010001000007REP       Member, BoE, DIST 9 MORRIS COUNTYWIDE                   Thomas Ratliff                        Precinct 101                                           01 
01180010002000007REP       Member, BoE, DIST 9 MORRIS COUNTYWIDE                   Thomas Ratliff                        Precinct 102                                           01 
01180010003000011REP       Member, BoE, DIST 9 MORRIS COUNTYWIDE                   Thomas Ratliff                        Precinct 103                                           01 
01180010004000030REP       Member, BoE, DIST 9 MORRIS COUNTYWIDE                   Thomas Ratliff                        Precinct 202                                           01 
01180010005000038REP       Member, BoE, DIST 9 MORRIS COUNTYWIDE                   Thomas Ratliff                        Precinct 203                                           01 
01180010007000014REP       Member, BoE, DIST 9 MORRIS COUNTYWIDE                   Thomas Ratliff                        Precinct 302                                           01 
01180010008000015REP       Member, BoE, DIST 9 MORRIS COUNTYWIDE                   Thomas Ratliff                        Precinct 303                                           01 
01180010009000071REP       Member, BoE, DIST 9 MORRIS COUNTYWIDE                   Thomas Ratliff                        Precinct 401                                           01 
