01010010001000000          REGISTERED VOTERS - TOTAL                               REGISTERED VOTERS - TOTAL             ADMINISTRATION BUILDING                                00 
01010010002000000          REGISTERED VOTERS - TOTAL                               REGISTERED VOTERS - TOTAL             EVERETT ELEMENTARY                                     00 
01010010003000000          REGISTERED VOTERS - TOTAL                               REGISTERED VOTERS - TOTAL             POWDERLY VFD                                           00 
01020010001000247          BALLOTS CAST - TOTAL                                    BALLOTS CAST - TOTAL                  ADMINISTRATION BUILDING                                00 
01020010002000059          BALLOTS CAST - TOTAL                                    BALLOTS CAST - TOTAL                  EVERETT ELEMENTARY                                     00 
01020010003000031          BALLOTS CAST - TOTAL                                    BALLOTS CAST - TOTAL                  POWDERLY VFD                                           00 
01030010001000180NON       School Board Trustee                                    Amy Stephens                          ADMINISTRATION BUILDING                                02 
01030010002000035NON       School Board Trustee                                    Amy Stephens                          EVERETT ELEMENTARY                                     02 
01030010003000020NON       School Board Trustee                                    Amy Stephens                          POWDERLY VFD                                           02 
01030020001000078NON       School Board Trustee                                    Jimmy Womack                          ADMINISTRATION BUILDING                                02 
01030020002000026NON       School Board Trustee                                    Jimmy Womack                          EVERETT ELEMENTARY                                     02 
01030020003000015NON       School Board Trustee                                    Jimmy Womack                          POWDERLY VFD                                           02 
01030030001000170NON       School Board Trustee                                    Dave Osborne                          ADMINISTRATION BUILDING                                02 
01030030002000045NON       School Board Trustee                                    Dave Osborne                          EVERETT ELEMENTARY                                     02 
01030030003000018NON       School Board Trustee                                    Dave Osborne                          POWDERLY VFD                                           02 
