01010010001000000          REGISTERED VOTERS - TOTAL                               REGISTERED VOTERS - TOTAL             PRECINCT 1                                             00 
01010010002000000          REGISTERED VOTERS - TOTAL                               REGISTERED VOTERS - TOTAL             PRECINCT 2                                             00 
01010010003000000          REGISTERED VOTERS - TOTAL                               REGISTERED VOTERS - TOTAL             PRECINCT 3                                             00 
01010010004000000          REGISTERED VOTERS - TOTAL                               REGISTERED VOTERS - TOTAL             PRECINCT 4                                             00 
01010010005000000          REGISTERED VOTERS - TOTAL                               REGISTERED VOTERS - TOTAL             PRECINCT 5                                             00 
01010010006000000          REGISTERED VOTERS - TOTAL                               REGISTERED VOTERS - TOTAL             PRECINCT 6                                             00 
01010010007000000          REGISTERED VOTERS - TOTAL                               REGISTERED VOTERS - TOTAL             PRECINCT 7                                             00 
01010010008000000          REGISTERED VOTERS - TOTAL                               REGISTERED VOTERS - TOTAL             PRECINCT 8                                             00 
01010010009000000          REGISTERED VOTERS - TOTAL                               REGISTERED VOTERS - TOTAL             PRECINCT 9                                             00 
01010010010000000          REGISTERED VOTERS - TOTAL                               REGISTERED VOTERS - TOTAL             PRECINCT 10                                            00 
01010010011000000          REGISTERED VOTERS - TOTAL                               REGISTERED VOTERS - TOTAL             PRECINCT 11                                            00 
01010010012000000          REGISTERED VOTERS - TOTAL                               REGISTERED VOTERS - TOTAL             PRECINCT 12                                            00 
01010010013000000          REGISTERED VOTERS - TOTAL                               REGISTERED VOTERS - TOTAL             PRECINCT 13                                            00 
01010010014000000          REGISTERED VOTERS - TOTAL                               REGISTERED VOTERS - TOTAL             PRECINCT 14                                            00 
01010010015000000          REGISTERED VOTERS - TOTAL                               REGISTERED VOTERS - TOTAL             PRECINCT 15                                            00 
01010010016000000          REGISTERED VOTERS - TOTAL                               REGISTERED VOTERS - TOTAL             PRECINCT 16                                            00 
01010010017000000          REGISTERED VOTERS - TOTAL                               REGISTERED VOTERS - TOTAL             PRECINCT 17                                            00 
01010010018000000          REGISTERED VOTERS - TOTAL                               REGISTERED VOTERS - TOTAL             PRECINCT 18                                            00 
01010010019000000          REGISTERED VOTERS - TOTAL                               REGISTERED VOTERS - TOTAL             PRECINCT 19                                            00 
01010010020000000          REGISTERED VOTERS - TOTAL                               REGISTERED VOTERS - TOTAL             PRECINCT 20                                            00 
01010010021000000          REGISTERED VOTERS - TOTAL                               REGISTERED VOTERS - TOTAL             PRECINCT 21                                            00 
01010010022000000          REGISTERED VOTERS - TOTAL                               REGISTERED VOTERS - TOTAL             PRECINCT 22                                            00 
01010010023000000          REGISTERED VOTERS - TOTAL                               REGISTERED VOTERS - TOTAL             PRECINCT 23                                            00 
01010010024000000          REGISTERED VOTERS - TOTAL                               REGISTERED VOTERS - TOTAL             PRECINCT 24                                            00 
01010010025000000          REGISTERED VOTERS - TOTAL                               REGISTERED VOTERS - TOTAL             PRECINCT 25                                            00 
01010010026000000          REGISTERED VOTERS - TOTAL                               REGISTERED VOTERS - TOTAL             PRECINCT 26                                            00 
01010010027000000          REGISTERED VOTERS - TOTAL                               REGISTERED VOTERS - TOTAL             PRECINCT 27                                            00 
01010010028000000          REGISTERED VOTERS - TOTAL                               REGISTERED VOTERS - TOTAL             PRECINCT 28                                            00 
01010010029000000          REGISTERED VOTERS - TOTAL                               REGISTERED VOTERS - TOTAL             PRECINCT 29                                            00 
01010010030000000          REGISTERED VOTERS - TOTAL                               REGISTERED VOTERS - TOTAL             PRECINCT 30                                            00 
01010010031000000          REGISTERED VOTERS - TOTAL                               REGISTERED VOTERS - TOTAL             PRECINCT 31                                            00 
01010010032000000          REGISTERED VOTERS - TOTAL                               REGISTERED VOTERS - TOTAL             PRECINCT 32                                            00 
01010010033000000          REGISTERED VOTERS - TOTAL                               REGISTERED VOTERS - TOTAL             PRECINCT 33                                            00 
01010010034000000          REGISTERED VOTERS - TOTAL                               REGISTERED VOTERS - TOTAL             PRECINCT 34                                            00 
01020010001000000REP       REGISTERED VOTERS - REPUBLICAN PARTY                    REGISTERED VOTERS - REPUBLICAN PARTY  PRECINCT 1                                             00 
01020010002000000REP       REGISTERED VOTERS - REPUBLICAN PARTY                    REGISTERED VOTERS - REPUBLICAN PARTY  PRECINCT 2                                             00 
01020010003000000REP       REGISTERED VOTERS - REPUBLICAN PARTY                    REGISTERED VOTERS - REPUBLICAN PARTY  PRECINCT 3                                             00 
01020010004000000REP       REGISTERED VOTERS - REPUBLICAN PARTY                    REGISTERED VOTERS - REPUBLICAN PARTY  PRECINCT 4                                             00 
01020010005000000REP       REGISTERED VOTERS - REPUBLICAN PARTY                    REGISTERED VOTERS - REPUBLICAN PARTY  PRECINCT 5                                             00 
01020010006000000REP       REGISTERED VOTERS - REPUBLICAN PARTY                    REGISTERED VOTERS - REPUBLICAN PARTY  PRECINCT 6                                             00 
01020010007000000REP       REGISTERED VOTERS - REPUBLICAN PARTY                    REGISTERED VOTERS - REPUBLICAN PARTY  PRECINCT 7                                             00 
01020010008000000REP       REGISTERED VOTERS - REPUBLICAN PARTY                    REGISTERED VOTERS - REPUBLICAN PARTY  PRECINCT 8                                             00 
01020010009000000REP       REGISTERED VOTERS - REPUBLICAN PARTY                    REGISTERED VOTERS - REPUBLICAN PARTY  PRECINCT 9                                             00 
01020010010000000REP       REGISTERED VOTERS - REPUBLICAN PARTY                    REGISTERED VOTERS - REPUBLICAN PARTY  PRECINCT 10                                            00 
01020010011000000REP       REGISTERED VOTERS - REPUBLICAN PARTY                    REGISTERED VOTERS - REPUBLICAN PARTY  PRECINCT 11                                            00 
01020010012000000REP       REGISTERED VOTERS - REPUBLICAN PARTY                    REGISTERED VOTERS - REPUBLICAN PARTY  PRECINCT 12                                            00 
01020010013000000REP       REGISTERED VOTERS - REPUBLICAN PARTY                    REGISTERED VOTERS - REPUBLICAN PARTY  PRECINCT 13                                            00 
01020010014000000REP       REGISTERED VOTERS - REPUBLICAN PARTY                    REGISTERED VOTERS - REPUBLICAN PARTY  PRECINCT 14                                            00 
01020010015000000REP       REGISTERED VOTERS - REPUBLICAN PARTY                    REGISTERED VOTERS - REPUBLICAN PARTY  PRECINCT 15                                            00 
01020010016000000REP       REGISTERED VOTERS - REPUBLICAN PARTY                    REGISTERED VOTERS - REPUBLICAN PARTY  PRECINCT 16                                            00 
01020010017000000REP       REGISTERED VOTERS - REPUBLICAN PARTY                    REGISTERED VOTERS - REPUBLICAN PARTY  PRECINCT 17                                            00 
01020010018000000REP       REGISTERED VOTERS - REPUBLICAN PARTY                    REGISTERED VOTERS - REPUBLICAN PARTY  PRECINCT 18                                            00 
01020010019000000REP       REGISTERED VOTERS - REPUBLICAN PARTY                    REGISTERED VOTERS - REPUBLICAN PARTY  PRECINCT 19                                            00 
01020010020000000REP       REGISTERED VOTERS - REPUBLICAN PARTY                    REGISTERED VOTERS - REPUBLICAN PARTY  PRECINCT 20                                            00 
01020010021000000REP       REGISTERED VOTERS - REPUBLICAN PARTY                    REGISTERED VOTERS - REPUBLICAN PARTY  PRECINCT 21                                            00 
01020010022000000REP       REGISTERED VOTERS - REPUBLICAN PARTY                    REGISTERED VOTERS - REPUBLICAN PARTY  PRECINCT 22                                            00 
01020010023000000REP       REGISTERED VOTERS - REPUBLICAN PARTY                    REGISTERED VOTERS - REPUBLICAN PARTY  PRECINCT 23                                            00 
01020010024000000REP       REGISTERED VOTERS - REPUBLICAN PARTY                    REGISTERED VOTERS - REPUBLICAN PARTY  PRECINCT 24                                            00 
01020010025000000REP       REGISTERED VOTERS - REPUBLICAN PARTY                    REGISTERED VOTERS - REPUBLICAN PARTY  PRECINCT 25                                            00 
01020010026000000REP       REGISTERED VOTERS - REPUBLICAN PARTY                    REGISTERED VOTERS - REPUBLICAN PARTY  PRECINCT 26                                            00 
01020010027000000REP       REGISTERED VOTERS - REPUBLICAN PARTY                    REGISTERED VOTERS - REPUBLICAN PARTY  PRECINCT 27                                            00 
01020010028000000REP       REGISTERED VOTERS - REPUBLICAN PARTY                    REGISTERED VOTERS - REPUBLICAN PARTY  PRECINCT 28                                            00 
01020010029000000REP       REGISTERED VOTERS - REPUBLICAN PARTY                    REGISTERED VOTERS - REPUBLICAN PARTY  PRECINCT 29                                            00 
01020010030000000REP       REGISTERED VOTERS - REPUBLICAN PARTY                    REGISTERED VOTERS - REPUBLICAN PARTY  PRECINCT 30                                            00 
01020010031000000REP       REGISTERED VOTERS - REPUBLICAN PARTY                    REGISTERED VOTERS - REPUBLICAN PARTY  PRECINCT 31                                            00 
01020010032000000REP       REGISTERED VOTERS - REPUBLICAN PARTY                    REGISTERED VOTERS - REPUBLICAN PARTY  PRECINCT 32                                            00 
01020010033000000REP       REGISTERED VOTERS - REPUBLICAN PARTY                    REGISTERED VOTERS - REPUBLICAN PARTY  PRECINCT 33                                            00 
01020010034000000REP       REGISTERED VOTERS - REPUBLICAN PARTY                    REGISTERED VOTERS - REPUBLICAN PARTY  PRECINCT 34                                            00 
01030010001000000DEM       REGISTERED VOTERS - DEMOCRATIC PARTY                    REGISTERED VOTERS - DEMOCRATIC PARTY  PRECINCT 1                                             00 
01030010002000000DEM       REGISTERED VOTERS - DEMOCRATIC PARTY                    REGISTERED VOTERS - DEMOCRATIC PARTY  PRECINCT 2                                             00 
01030010003000000DEM       REGISTERED VOTERS - DEMOCRATIC PARTY                    REGISTERED VOTERS - DEMOCRATIC PARTY  PRECINCT 3                                             00 
01030010004000000DEM       REGISTERED VOTERS - DEMOCRATIC PARTY                    REGISTERED VOTERS - DEMOCRATIC PARTY  PRECINCT 4                                             00 
01030010005000000DEM       REGISTERED VOTERS - DEMOCRATIC PARTY                    REGISTERED VOTERS - DEMOCRATIC PARTY  PRECINCT 5                                             00 
01030010006000000DEM       REGISTERED VOTERS - DEMOCRATIC PARTY                    REGISTERED VOTERS - DEMOCRATIC PARTY  PRECINCT 6                                             00 
01030010007000000DEM       REGISTERED VOTERS - DEMOCRATIC PARTY                    REGISTERED VOTERS - DEMOCRATIC PARTY  PRECINCT 7                                             00 
01030010008000000DEM       REGISTERED VOTERS - DEMOCRATIC PARTY                    REGISTERED VOTERS - DEMOCRATIC PARTY  PRECINCT 8                                             00 
01030010009000000DEM       REGISTERED VOTERS - DEMOCRATIC PARTY                    REGISTERED VOTERS - DEMOCRATIC PARTY  PRECINCT 9                                             00 
01030010010000000DEM       REGISTERED VOTERS - DEMOCRATIC PARTY                    REGISTERED VOTERS - DEMOCRATIC PARTY  PRECINCT 10                                            00 
01030010011000000DEM       REGISTERED VOTERS - DEMOCRATIC PARTY                    REGISTERED VOTERS - DEMOCRATIC PARTY  PRECINCT 11                                            00 
01030010012000000DEM       REGISTERED VOTERS - DEMOCRATIC PARTY                    REGISTERED VOTERS - DEMOCRATIC PARTY  PRECINCT 12                                            00 
01030010013000000DEM       REGISTERED VOTERS - DEMOCRATIC PARTY                    REGISTERED VOTERS - DEMOCRATIC PARTY  PRECINCT 13                                            00 
01030010014000000DEM       REGISTERED VOTERS - DEMOCRATIC PARTY                    REGISTERED VOTERS - DEMOCRATIC PARTY  PRECINCT 14                                            00 
01030010015000000DEM       REGISTERED VOTERS - DEMOCRATIC PARTY                    REGISTERED VOTERS - DEMOCRATIC PARTY  PRECINCT 15                                            00 
01030010016000000DEM       REGISTERED VOTERS - DEMOCRATIC PARTY                    REGISTERED VOTERS - DEMOCRATIC PARTY  PRECINCT 16                                            00 
01030010017000000DEM       REGISTERED VOTERS - DEMOCRATIC PARTY                    REGISTERED VOTERS - DEMOCRATIC PARTY  PRECINCT 17                                            00 
01030010018000000DEM       REGISTERED VOTERS - DEMOCRATIC PARTY                    REGISTERED VOTERS - DEMOCRATIC PARTY  PRECINCT 18                                            00 
01030010019000000DEM       REGISTERED VOTERS - DEMOCRATIC PARTY                    REGISTERED VOTERS - DEMOCRATIC PARTY  PRECINCT 19                                            00 
01030010020000000DEM       REGISTERED VOTERS - DEMOCRATIC PARTY                    REGISTERED VOTERS - DEMOCRATIC PARTY  PRECINCT 20                                            00 
01030010021000000DEM       REGISTERED VOTERS - DEMOCRATIC PARTY                    REGISTERED VOTERS - DEMOCRATIC PARTY  PRECINCT 21                                            00 
01030010022000000DEM       REGISTERED VOTERS - DEMOCRATIC PARTY                    REGISTERED VOTERS - DEMOCRATIC PARTY  PRECINCT 22                                            00 
01030010023000000DEM       REGISTERED VOTERS - DEMOCRATIC PARTY                    REGISTERED VOTERS - DEMOCRATIC PARTY  PRECINCT 23                                            00 
01030010024000000DEM       REGISTERED VOTERS - DEMOCRATIC PARTY                    REGISTERED VOTERS - DEMOCRATIC PARTY  PRECINCT 24                                            00 
01030010025000000DEM       REGISTERED VOTERS - DEMOCRATIC PARTY                    REGISTERED VOTERS - DEMOCRATIC PARTY  PRECINCT 25                                            00 
01030010026000000DEM       REGISTERED VOTERS - DEMOCRATIC PARTY                    REGISTERED VOTERS - DEMOCRATIC PARTY  PRECINCT 26                                            00 
01030010027000000DEM       REGISTERED VOTERS - DEMOCRATIC PARTY                    REGISTERED VOTERS - DEMOCRATIC PARTY  PRECINCT 27                                            00 
01030010028000000DEM       REGISTERED VOTERS - DEMOCRATIC PARTY                    REGISTERED VOTERS - DEMOCRATIC PARTY  PRECINCT 28                                            00 
01030010029000000DEM       REGISTERED VOTERS - DEMOCRATIC PARTY                    REGISTERED VOTERS - DEMOCRATIC PARTY  PRECINCT 29                                            00 
01030010030000000DEM       REGISTERED VOTERS - DEMOCRATIC PARTY                    REGISTERED VOTERS - DEMOCRATIC PARTY  PRECINCT 30                                            00 
01030010031000000DEM       REGISTERED VOTERS - DEMOCRATIC PARTY                    REGISTERED VOTERS - DEMOCRATIC PARTY  PRECINCT 31                                            00 
01030010032000000DEM       REGISTERED VOTERS - DEMOCRATIC PARTY                    REGISTERED VOTERS - DEMOCRATIC PARTY  PRECINCT 32                                            00 
01030010033000000DEM       REGISTERED VOTERS - DEMOCRATIC PARTY                    REGISTERED VOTERS - DEMOCRATIC PARTY  PRECINCT 33                                            00 
01030010034000000DEM       REGISTERED VOTERS - DEMOCRATIC PARTY                    REGISTERED VOTERS - DEMOCRATIC PARTY  PRECINCT 34                                            00 
01040010001000063          BALLOTS CAST - TOTAL                                    BALLOTS CAST - TOTAL                  PRECINCT 1                                             00 
01040010002000249          BALLOTS CAST - TOTAL                                    BALLOTS CAST - TOTAL                  PRECINCT 2                                             00 
01040010003000195          BALLOTS CAST - TOTAL                                    BALLOTS CAST - TOTAL                  PRECINCT 3                                             00 
01040010004000055          BALLOTS CAST - TOTAL                                    BALLOTS CAST - TOTAL                  PRECINCT 4                                             00 
01040010005000361          BALLOTS CAST - TOTAL                                    BALLOTS CAST - TOTAL                  PRECINCT 5                                             00 
01040010006000399          BALLOTS CAST - TOTAL                                    BALLOTS CAST - TOTAL                  PRECINCT 6                                             00 
01040010007000463          BALLOTS CAST - TOTAL                                    BALLOTS CAST - TOTAL                  PRECINCT 7                                             00 
01040010008000635          BALLOTS CAST - TOTAL                                    BALLOTS CAST - TOTAL                  PRECINCT 8                                             00 
01040010009000424          BALLOTS CAST - TOTAL                                    BALLOTS CAST - TOTAL                  PRECINCT 9                                             00 
01040010010000142          BALLOTS CAST - TOTAL                                    BALLOTS CAST - TOTAL                  PRECINCT 10                                            00 
01040010011000078          BALLOTS CAST - TOTAL                                    BALLOTS CAST - TOTAL                  PRECINCT 11                                            00 
01040010012000224          BALLOTS CAST - TOTAL                                    BALLOTS CAST - TOTAL                  PRECINCT 12                                            00 
01040010013000253          BALLOTS CAST - TOTAL                                    BALLOTS CAST - TOTAL                  PRECINCT 13                                            00 
01040010014000416          BALLOTS CAST - TOTAL                                    BALLOTS CAST - TOTAL                  PRECINCT 14                                            00 
01040010015000373          BALLOTS CAST - TOTAL                                    BALLOTS CAST - TOTAL                  PRECINCT 15                                            00 
01040010016000439          BALLOTS CAST - TOTAL                                    BALLOTS CAST - TOTAL                  PRECINCT 16                                            00 
01040010017000442          BALLOTS CAST - TOTAL                                    BALLOTS CAST - TOTAL                  PRECINCT 17                                            00 
01040010018000399          BALLOTS CAST - TOTAL                                    BALLOTS CAST - TOTAL                  PRECINCT 18                                            00 
01040010019000320          BALLOTS CAST - TOTAL                                    BALLOTS CAST - TOTAL                  PRECINCT 19                                            00 
01040010020000239          BALLOTS CAST - TOTAL                                    BALLOTS CAST - TOTAL                  PRECINCT 20                                            00 
01040010021000045          BALLOTS CAST - TOTAL                                    BALLOTS CAST - TOTAL                  PRECINCT 21                                            00 
01040010022000226          BALLOTS CAST - TOTAL                                    BALLOTS CAST - TOTAL                  PRECINCT 22                                            00 
01040010023000428          BALLOTS CAST - TOTAL                                    BALLOTS CAST - TOTAL                  PRECINCT 23                                            00 
01040010024000269          BALLOTS CAST - TOTAL                                    BALLOTS CAST - TOTAL                  PRECINCT 24                                            00 
01040010025000218          BALLOTS CAST - TOTAL                                    BALLOTS CAST - TOTAL                  PRECINCT 25                                            00 
01040010026000390          BALLOTS CAST - TOTAL                                    BALLOTS CAST - TOTAL                  PRECINCT 26                                            00 
01040010027000496          BALLOTS CAST - TOTAL                                    BALLOTS CAST - TOTAL                  PRECINCT 27                                            00 
01040010028000497          BALLOTS CAST - TOTAL                                    BALLOTS CAST - TOTAL                  PRECINCT 28                                            00 
01040010029000176          BALLOTS CAST - TOTAL                                    BALLOTS CAST - TOTAL                  PRECINCT 29                                            00 
01040010030000192          BALLOTS CAST - TOTAL                                    BALLOTS CAST - TOTAL                  PRECINCT 30                                            00 
01040010031000473          BALLOTS CAST - TOTAL                                    BALLOTS CAST - TOTAL                  PRECINCT 31                                            00 
01040010032000322          BALLOTS CAST - TOTAL                                    BALLOTS CAST - TOTAL                  PRECINCT 32                                            00 
01040010033000330          BALLOTS CAST - TOTAL                                    BALLOTS CAST - TOTAL                  PRECINCT 33                                            00 
01040010034000366          BALLOTS CAST - TOTAL                                    BALLOTS CAST - TOTAL                  PRECINCT 34                                            00 
01050010001000040REP       BALLOTS CAST - REPUBLICAN PARTY                         BALLOTS CAST - REPUBLICAN PARTY       PRECINCT 1                                             00 
01050010002000098REP       BALLOTS CAST - REPUBLICAN PARTY                         BALLOTS CAST - REPUBLICAN PARTY       PRECINCT 2                                             00 
01050010003000030REP       BALLOTS CAST - REPUBLICAN PARTY                         BALLOTS CAST - REPUBLICAN PARTY       PRECINCT 3                                             00 
01050010004000001REP       BALLOTS CAST - REPUBLICAN PARTY                         BALLOTS CAST - REPUBLICAN PARTY       PRECINCT 4                                             00 
01050010005000240REP       BALLOTS CAST - REPUBLICAN PARTY                         BALLOTS CAST - REPUBLICAN PARTY       PRECINCT 5                                             00 
01050010006000341REP       BALLOTS CAST - REPUBLICAN PARTY                         BALLOTS CAST - REPUBLICAN PARTY       PRECINCT 6                                             00 
01050010007000366REP       BALLOTS CAST - REPUBLICAN PARTY                         BALLOTS CAST - REPUBLICAN PARTY       PRECINCT 7                                             00 
01050010008000538REP       BALLOTS CAST - REPUBLICAN PARTY                         BALLOTS CAST - REPUBLICAN PARTY       PRECINCT 8                                             00 
01050010009000363REP       BALLOTS CAST - REPUBLICAN PARTY                         BALLOTS CAST - REPUBLICAN PARTY       PRECINCT 9                                             00 
01050010010000133REP       BALLOTS CAST - REPUBLICAN PARTY                         BALLOTS CAST - REPUBLICAN PARTY       PRECINCT 10                                            00 
01050010011000050REP       BALLOTS CAST - REPUBLICAN PARTY                         BALLOTS CAST - REPUBLICAN PARTY       PRECINCT 11                                            00 
01050010012000162REP       BALLOTS CAST - REPUBLICAN PARTY                         BALLOTS CAST - REPUBLICAN PARTY       PRECINCT 12                                            00 
01050010013000169REP       BALLOTS CAST - REPUBLICAN PARTY                         BALLOTS CAST - REPUBLICAN PARTY       PRECINCT 13                                            00 
01050010014000285REP       BALLOTS CAST - REPUBLICAN PARTY                         BALLOTS CAST - REPUBLICAN PARTY       PRECINCT 14                                            00 
01050010015000300REP       BALLOTS CAST - REPUBLICAN PARTY                         BALLOTS CAST - REPUBLICAN PARTY       PRECINCT 15                                            00 
01050010016000388REP       BALLOTS CAST - REPUBLICAN PARTY                         BALLOTS CAST - REPUBLICAN PARTY       PRECINCT 16                                            00 
01050010017000409REP       BALLOTS CAST - REPUBLICAN PARTY                         BALLOTS CAST - REPUBLICAN PARTY       PRECINCT 17                                            00 
01050010018000336REP       BALLOTS CAST - REPUBLICAN PARTY                         BALLOTS CAST - REPUBLICAN PARTY       PRECINCT 18                                            00 
01050010019000276REP       BALLOTS CAST - REPUBLICAN PARTY                         BALLOTS CAST - REPUBLICAN PARTY       PRECINCT 19                                            00 
01050010020000208REP       BALLOTS CAST - REPUBLICAN PARTY                         BALLOTS CAST - REPUBLICAN PARTY       PRECINCT 20                                            00 
01050010021000037REP       BALLOTS CAST - REPUBLICAN PARTY                         BALLOTS CAST - REPUBLICAN PARTY       PRECINCT 21                                            00 
01050010022000178REP       BALLOTS CAST - REPUBLICAN PARTY                         BALLOTS CAST - REPUBLICAN PARTY       PRECINCT 22                                            00 
01050010023000365REP       BALLOTS CAST - REPUBLICAN PARTY                         BALLOTS CAST - REPUBLICAN PARTY       PRECINCT 23                                            00 
01050010024000230REP       BALLOTS CAST - REPUBLICAN PARTY                         BALLOTS CAST - REPUBLICAN PARTY       PRECINCT 24                                            00 
01050010025000172REP       BALLOTS CAST - REPUBLICAN PARTY                         BALLOTS CAST - REPUBLICAN PARTY       PRECINCT 25                                            00 
01050010026000339REP       BALLOTS CAST - REPUBLICAN PARTY                         BALLOTS CAST - REPUBLICAN PARTY       PRECINCT 26                                            00 
01050010027000460REP       BALLOTS CAST - REPUBLICAN PARTY                         BALLOTS CAST - REPUBLICAN PARTY       PRECINCT 27                                            00 
01050010028000434REP       BALLOTS CAST - REPUBLICAN PARTY                         BALLOTS CAST - REPUBLICAN PARTY       PRECINCT 28                                            00 
01050010029000155REP       BALLOTS CAST - REPUBLICAN PARTY                         BALLOTS CAST - REPUBLICAN PARTY       PRECINCT 29                                            00 
01050010030000164REP       BALLOTS CAST - REPUBLICAN PARTY                         BALLOTS CAST - REPUBLICAN PARTY       PRECINCT 30                                            00 
01050010031000394REP       BALLOTS CAST - REPUBLICAN PARTY                         BALLOTS CAST - REPUBLICAN PARTY       PRECINCT 31                                            00 
01050010032000280REP       BALLOTS CAST - REPUBLICAN PARTY                         BALLOTS CAST - REPUBLICAN PARTY       PRECINCT 32                                            00 
01050010033000304REP       BALLOTS CAST - REPUBLICAN PARTY                         BALLOTS CAST - REPUBLICAN PARTY       PRECINCT 33                                            00 
01050010034000335REP       BALLOTS CAST - REPUBLICAN PARTY                         BALLOTS CAST - REPUBLICAN PARTY       PRECINCT 34                                            00 
01060010001000023DEM       BALLOTS CAST - DEMOCRATIC PARTY                         BALLOTS CAST - DEMOCRATIC PARTY       PRECINCT 1                                             00 
01060010002000151DEM       BALLOTS CAST - DEMOCRATIC PARTY                         BALLOTS CAST - DEMOCRATIC PARTY       PRECINCT 2                                             00 
01060010003000165DEM       BALLOTS CAST - DEMOCRATIC PARTY                         BALLOTS CAST - DEMOCRATIC PARTY       PRECINCT 3                                             00 
01060010004000054DEM       BALLOTS CAST - DEMOCRATIC PARTY                         BALLOTS CAST - DEMOCRATIC PARTY       PRECINCT 4                                             00 
01060010005000121DEM       BALLOTS CAST - DEMOCRATIC PARTY                         BALLOTS CAST - DEMOCRATIC PARTY       PRECINCT 5                                             00 
01060010006000058DEM       BALLOTS CAST - DEMOCRATIC PARTY                         BALLOTS CAST - DEMOCRATIC PARTY       PRECINCT 6                                             00 
01060010007000097DEM       BALLOTS CAST - DEMOCRATIC PARTY                         BALLOTS CAST - DEMOCRATIC PARTY       PRECINCT 7                                             00 
01060010008000097DEM       BALLOTS CAST - DEMOCRATIC PARTY                         BALLOTS CAST - DEMOCRATIC PARTY       PRECINCT 8                                             00 
01060010009000061DEM       BALLOTS CAST - DEMOCRATIC PARTY                         BALLOTS CAST - DEMOCRATIC PARTY       PRECINCT 9                                             00 
01060010010000009DEM       BALLOTS CAST - DEMOCRATIC PARTY                         BALLOTS CAST - DEMOCRATIC PARTY       PRECINCT 10                                            00 
01060010011000028DEM       BALLOTS CAST - DEMOCRATIC PARTY                         BALLOTS CAST - DEMOCRATIC PARTY       PRECINCT 11                                            00 
01060010012000062DEM       BALLOTS CAST - DEMOCRATIC PARTY                         BALLOTS CAST - DEMOCRATIC PARTY       PRECINCT 12                                            00 
01060010013000084DEM       BALLOTS CAST - DEMOCRATIC PARTY                         BALLOTS CAST - DEMOCRATIC PARTY       PRECINCT 13                                            00 
01060010014000131DEM       BALLOTS CAST - DEMOCRATIC PARTY                         BALLOTS CAST - DEMOCRATIC PARTY       PRECINCT 14                                            00 
01060010015000073DEM       BALLOTS CAST - DEMOCRATIC PARTY                         BALLOTS CAST - DEMOCRATIC PARTY       PRECINCT 15                                            00 
01060010016000051DEM       BALLOTS CAST - DEMOCRATIC PARTY                         BALLOTS CAST - DEMOCRATIC PARTY       PRECINCT 16                                            00 
01060010017000033DEM       BALLOTS CAST - DEMOCRATIC PARTY                         BALLOTS CAST - DEMOCRATIC PARTY       PRECINCT 17                                            00 
01060010018000063DEM       BALLOTS CAST - DEMOCRATIC PARTY                         BALLOTS CAST - DEMOCRATIC PARTY       PRECINCT 18                                            00 
01060010019000044DEM       BALLOTS CAST - DEMOCRATIC PARTY                         BALLOTS CAST - DEMOCRATIC PARTY       PRECINCT 19                                            00 
01060010020000031DEM       BALLOTS CAST - DEMOCRATIC PARTY                         BALLOTS CAST - DEMOCRATIC PARTY       PRECINCT 20                                            00 
01060010021000008DEM       BALLOTS CAST - DEMOCRATIC PARTY                         BALLOTS CAST - DEMOCRATIC PARTY       PRECINCT 21                                            00 
01060010022000048DEM       BALLOTS CAST - DEMOCRATIC PARTY                         BALLOTS CAST - DEMOCRATIC PARTY       PRECINCT 22                                            00 
01060010023000063DEM       BALLOTS CAST - DEMOCRATIC PARTY                         BALLOTS CAST - DEMOCRATIC PARTY       PRECINCT 23                                            00 
01060010024000039DEM       BALLOTS CAST - DEMOCRATIC PARTY                         BALLOTS CAST - DEMOCRATIC PARTY       PRECINCT 24                                            00 
01060010025000046DEM       BALLOTS CAST - DEMOCRATIC PARTY                         BALLOTS CAST - DEMOCRATIC PARTY       PRECINCT 25                                            00 
01060010026000051DEM       BALLOTS CAST - DEMOCRATIC PARTY                         BALLOTS CAST - DEMOCRATIC PARTY       PRECINCT 26                                            00 
01060010027000036DEM       BALLOTS CAST - DEMOCRATIC PARTY                         BALLOTS CAST - DEMOCRATIC PARTY       PRECINCT 27                                            00 
01060010028000063DEM       BALLOTS CAST - DEMOCRATIC PARTY                         BALLOTS CAST - DEMOCRATIC PARTY       PRECINCT 28                                            00 
01060010029000021DEM       BALLOTS CAST - DEMOCRATIC PARTY                         BALLOTS CAST - DEMOCRATIC PARTY       PRECINCT 29                                            00 
01060010030000028DEM       BALLOTS CAST - DEMOCRATIC PARTY                         BALLOTS CAST - DEMOCRATIC PARTY       PRECINCT 30                                            00 
01060010031000079DEM       BALLOTS CAST - DEMOCRATIC PARTY                         BALLOTS CAST - DEMOCRATIC PARTY       PRECINCT 31                                            00 
01060010032000042DEM       BALLOTS CAST - DEMOCRATIC PARTY                         BALLOTS CAST - DEMOCRATIC PARTY       PRECINCT 32                                            00 
01060010033000026DEM       BALLOTS CAST - DEMOCRATIC PARTY                         BALLOTS CAST - DEMOCRATIC PARTY       PRECINCT 33                                            00 
01060010034000031DEM       BALLOTS CAST - DEMOCRATIC PARTY                         BALLOTS CAST - DEMOCRATIC PARTY       PRECINCT 34                                            00 
01070010001000028REP       President                                               Mitt Romney                           PRECINCT 1                                             01 
01070010002000066REP       President                                               Mitt Romney                           PRECINCT 2                                             01 
01070010003000021REP       President                                               Mitt Romney                           PRECINCT 3                                             01 
01070010004000000REP       President                                               Mitt Romney                           PRECINCT 4                                             01 
01070010005000189REP       President                                               Mitt Romney                           PRECINCT 5                                             01 
01070010006000224REP       President                                               Mitt Romney                           PRECINCT 6                                             01 
01070010007000255REP       President                                               Mitt Romney                           PRECINCT 7                                             01 
01070010008000393REP       President                                               Mitt Romney                           PRECINCT 8                                             01 
01070010009000251REP       President                                               Mitt Romney                           PRECINCT 9                                             01 
01070010010000100REP       President                                               Mitt Romney                           PRECINCT 10                                            01 
01070010011000034REP       President                                               Mitt Romney                           PRECINCT 11                                            01 
01070010012000112REP       President                                               Mitt Romney                           PRECINCT 12                                            01 
01070010013000116REP       President                                               Mitt Romney                           PRECINCT 13                                            01 
01070010014000230REP       President                                               Mitt Romney                           PRECINCT 14                                            01 
01070010015000226REP       President                                               Mitt Romney                           PRECINCT 15                                            01 
01070010016000257REP       President                                               Mitt Romney                           PRECINCT 16                                            01 
01070010017000282REP       President                                               Mitt Romney                           PRECINCT 17                                            01 
01070010018000248REP       President                                               Mitt Romney                           PRECINCT 18                                            01 
01070010019000201REP       President                                               Mitt Romney                           PRECINCT 19                                            01 
01070010020000155REP       President                                               Mitt Romney                           PRECINCT 20                                            01 
01070010021000022REP       President                                               Mitt Romney                           PRECINCT 21                                            01 
01070010022000124REP       President                                               Mitt Romney                           PRECINCT 22                                            01 
01070010023000244REP       President                                               Mitt Romney                           PRECINCT 23                                            01 
01070010024000161REP       President                                               Mitt Romney                           PRECINCT 24                                            01 
01070010025000129REP       President                                               Mitt Romney                           PRECINCT 25                                            01 
01070010026000236REP       President                                               Mitt Romney                           PRECINCT 26                                            01 
01070010027000305REP       President                                               Mitt Romney                           PRECINCT 27                                            01 
01070010028000319REP       President                                               Mitt Romney                           PRECINCT 28                                            01 
01070010029000109REP       President                                               Mitt Romney                           PRECINCT 29                                            01 
01070010030000124REP       President                                               Mitt Romney                           PRECINCT 30                                            01 
01070010031000247REP       President                                               Mitt Romney                           PRECINCT 31                                            01 
01070010032000182REP       President                                               Mitt Romney                           PRECINCT 32                                            01 
01070010033000211REP       President                                               Mitt Romney                           PRECINCT 33                                            01 
01070010034000242REP       President                                               Mitt Romney                           PRECINCT 34                                            01 
01070020001000005REP       President                                               Rick Santorum                         PRECINCT 1                                             01 
01070020002000007REP       President                                               Rick Santorum                         PRECINCT 2                                             01 
01070020003000002REP       President                                               Rick Santorum                         PRECINCT 3                                             01 
01070020004000000REP       President                                               Rick Santorum                         PRECINCT 4                                             01 
01070020005000013REP       President                                               Rick Santorum                         PRECINCT 5                                             01 
01070020006000034REP       President                                               Rick Santorum                         PRECINCT 6                                             01 
01070020007000031REP       President                                               Rick Santorum                         PRECINCT 7                                             01 
01070020008000039REP       President                                               Rick Santorum                         PRECINCT 8                                             01 
01070020009000037REP       President                                               Rick Santorum                         PRECINCT 9                                             01 
01070020010000004REP       President                                               Rick Santorum                         PRECINCT 10                                            01 
01070020011000001REP       President                                               Rick Santorum                         PRECINCT 11                                            01 
01070020012000010REP       President                                               Rick Santorum                         PRECINCT 12                                            01 
01070020013000017REP       President                                               Rick Santorum                         PRECINCT 13                                            01 
01070020014000015REP       President                                               Rick Santorum                         PRECINCT 14                                            01 
01070020015000022REP       President                                               Rick Santorum                         PRECINCT 15                                            01 
01070020016000040REP       President                                               Rick Santorum                         PRECINCT 16                                            01 
01070020017000024REP       President                                               Rick Santorum                         PRECINCT 17                                            01 
01070020018000019REP       President                                               Rick Santorum                         PRECINCT 18                                            01 
01070020019000016REP       President                                               Rick Santorum                         PRECINCT 19                                            01 
01070020020000022REP       President                                               Rick Santorum                         PRECINCT 20                                            01 
01070020021000007REP       President                                               Rick Santorum                         PRECINCT 21                                            01 
01070020022000017REP       President                                               Rick Santorum                         PRECINCT 22                                            01 
01070020023000039REP       President                                               Rick Santorum                         PRECINCT 23                                            01 
01070020024000021REP       President                                               Rick Santorum                         PRECINCT 24                                            01 
01070020025000010REP       President                                               Rick Santorum                         PRECINCT 25                                            01 
01070020026000038REP       President                                               Rick Santorum                         PRECINCT 26                                            01 
01070020027000030REP       President                                               Rick Santorum                         PRECINCT 27                                            01 
01070020028000033REP       President                                               Rick Santorum                         PRECINCT 28                                            01 
01070020029000015REP       President                                               Rick Santorum                         PRECINCT 29                                            01 
01070020030000010REP       President                                               Rick Santorum                         PRECINCT 30                                            01 
01070020031000035REP       President                                               Rick Santorum                         PRECINCT 31                                            01 
01070020032000022REP       President                                               Rick Santorum                         PRECINCT 32                                            01 
01070020033000024REP       President                                               Rick Santorum                         PRECINCT 33                                            01 
01070020034000021REP       President                                               Rick Santorum                         PRECINCT 34                                            01 
01070030001000000REP       President                                               Michele Bachmann                      PRECINCT 1                                             01 
01070030002000000REP       President                                               Michele Bachmann                      PRECINCT 2                                             01 
01070030003000000REP       President                                               Michele Bachmann                      PRECINCT 3                                             01 
01070030004000000REP       President                                               Michele Bachmann                      PRECINCT 4                                             01 
01070030005000000REP       President                                               Michele Bachmann                      PRECINCT 5                                             01 
01070030006000001REP       President                                               Michele Bachmann                      PRECINCT 6                                             01 
01070030007000004REP       President                                               Michele Bachmann                      PRECINCT 7                                             01 
01070030008000003REP       President                                               Michele Bachmann                      PRECINCT 8                                             01 
01070030009000002REP       President                                               Michele Bachmann                      PRECINCT 9                                             01 
01070030010000000REP       President                                               Michele Bachmann                      PRECINCT 10                                            01 
01070030011000000REP       President                                               Michele Bachmann                      PRECINCT 11                                            01 
01070030012000000REP       President                                               Michele Bachmann                      PRECINCT 12                                            01 
01070030013000000REP       President                                               Michele Bachmann                      PRECINCT 13                                            01 
01070030014000000REP       President                                               Michele Bachmann                      PRECINCT 14                                            01 
01070030015000005REP       President                                               Michele Bachmann                      PRECINCT 15                                            01 
01070030016000004REP       President                                               Michele Bachmann                      PRECINCT 16                                            01 
01070030017000003REP       President                                               Michele Bachmann                      PRECINCT 17                                            01 
01070030018000004REP       President                                               Michele Bachmann                      PRECINCT 18                                            01 
01070030019000006REP       President                                               Michele Bachmann                      PRECINCT 19                                            01 
01070030020000001REP       President                                               Michele Bachmann                      PRECINCT 20                                            01 
01070030021000000REP       President                                               Michele Bachmann                      PRECINCT 21                                            01 
01070030022000000REP       President                                               Michele Bachmann                      PRECINCT 22                                            01 
01070030023000004REP       President                                               Michele Bachmann                      PRECINCT 23                                            01 
01070030024000002REP       President                                               Michele Bachmann                      PRECINCT 24                                            01 
01070030025000000REP       President                                               Michele Bachmann                      PRECINCT 25                                            01 
01070030026000003REP       President                                               Michele Bachmann                      PRECINCT 26                                            01 
01070030027000003REP       President                                               Michele Bachmann                      PRECINCT 27                                            01 
01070030028000000REP       President                                               Michele Bachmann                      PRECINCT 28                                            01 
01070030029000001REP       President                                               Michele Bachmann                      PRECINCT 29                                            01 
01070030030000004REP       President                                               Michele Bachmann                      PRECINCT 30                                            01 
01070030031000003REP       President                                               Michele Bachmann                      PRECINCT 31                                            01 
01070030032000003REP       President                                               Michele Bachmann                      PRECINCT 32                                            01 
01070030033000002REP       President                                               Michele Bachmann                      PRECINCT 33                                            01 
01070030034000001REP       President                                               Michele Bachmann                      PRECINCT 34                                            01 
01070040001000001REP       President                                               Newt Gingrich                         PRECINCT 1                                             01 
01070040002000007REP       President                                               Newt Gingrich                         PRECINCT 2                                             01 
01070040003000002REP       President                                               Newt Gingrich                         PRECINCT 3                                             01 
01070040004000000REP       President                                               Newt Gingrich                         PRECINCT 4                                             01 
01070040005000011REP       President                                               Newt Gingrich                         PRECINCT 5                                             01 
01070040006000017REP       President                                               Newt Gingrich                         PRECINCT 6                                             01 
01070040007000012REP       President                                               Newt Gingrich                         PRECINCT 7                                             01 
01070040008000021REP       President                                               Newt Gingrich                         PRECINCT 8                                             01 
01070040009000023REP       President                                               Newt Gingrich                         PRECINCT 9                                             01 
01070040010000009REP       President                                               Newt Gingrich                         PRECINCT 10                                            01 
01070040011000006REP       President                                               Newt Gingrich                         PRECINCT 11                                            01 
01070040012000004REP       President                                               Newt Gingrich                         PRECINCT 12                                            01 
01070040013000005REP       President                                               Newt Gingrich                         PRECINCT 13                                            01 
01070040014000015REP       President                                               Newt Gingrich                         PRECINCT 14                                            01 
01070040015000014REP       President                                               Newt Gingrich                         PRECINCT 15                                            01 
01070040016000022REP       President                                               Newt Gingrich                         PRECINCT 16                                            01 
01070040017000014REP       President                                               Newt Gingrich                         PRECINCT 17                                            01 
01070040018000016REP       President                                               Newt Gingrich                         PRECINCT 18                                            01 
01070040019000011REP       President                                               Newt Gingrich                         PRECINCT 19                                            01 
01070040020000006REP       President                                               Newt Gingrich                         PRECINCT 20                                            01 
01070040021000001REP       President                                               Newt Gingrich                         PRECINCT 21                                            01 
01070040022000012REP       President                                               Newt Gingrich                         PRECINCT 22                                            01 
01070040023000013REP       President                                               Newt Gingrich                         PRECINCT 23                                            01 
01070040024000011REP       President                                               Newt Gingrich                         PRECINCT 24                                            01 
01070040025000005REP       President                                               Newt Gingrich                         PRECINCT 25                                            01 
01070040026000010REP       President                                               Newt Gingrich                         PRECINCT 26                                            01 
01070040027000016REP       President                                               Newt Gingrich                         PRECINCT 27                                            01 
01070040028000019REP       President                                               Newt Gingrich                         PRECINCT 28                                            01 
01070040029000009REP       President                                               Newt Gingrich                         PRECINCT 29                                            01 
01070040030000004REP       President                                               Newt Gingrich                         PRECINCT 30                                            01 
01070040031000022REP       President                                               Newt Gingrich                         PRECINCT 31                                            01 
01070040032000015REP       President                                               Newt Gingrich                         PRECINCT 32                                            01 
01070040033000020REP       President                                               Newt Gingrich                         PRECINCT 33                                            01 
01070040034000016REP       President                                               Newt Gingrich                         PRECINCT 34                                            01 
01070050001000000REP       President                                               Charles "Buddy" Roemer                PRECINCT 1                                             01 
01070050002000000REP       President                                               Charles "Buddy" Roemer                PRECINCT 2                                             01 
01070050003000000REP       President                                               Charles "Buddy" Roemer                PRECINCT 3                                             01 
01070050004000000REP       President                                               Charles "Buddy" Roemer                PRECINCT 4                                             01 
01070050005000000REP       President                                               Charles "Buddy" Roemer                PRECINCT 5                                             01 
01070050006000001REP       President                                               Charles "Buddy" Roemer                PRECINCT 6                                             01 
01070050007000001REP       President                                               Charles "Buddy" Roemer                PRECINCT 7                                             01 
01070050008000000REP       President                                               Charles "Buddy" Roemer                PRECINCT 8                                             01 
01070050009000001REP       President                                               Charles "Buddy" Roemer                PRECINCT 9                                             01 
01070050010000000REP       President                                               Charles "Buddy" Roemer                PRECINCT 10                                            01 
01070050011000000REP       President                                               Charles "Buddy" Roemer                PRECINCT 11                                            01 
01070050012000000REP       President                                               Charles "Buddy" Roemer                PRECINCT 12                                            01 
01070050013000001REP       President                                               Charles "Buddy" Roemer                PRECINCT 13                                            01 
01070050014000001REP       President                                               Charles "Buddy" Roemer                PRECINCT 14                                            01 
01070050015000000REP       President                                               Charles "Buddy" Roemer                PRECINCT 15                                            01 
01070050016000000REP       President                                               Charles "Buddy" Roemer                PRECINCT 16                                            01 
01070050017000003REP       President                                               Charles "Buddy" Roemer                PRECINCT 17                                            01 
01070050018000000REP       President                                               Charles "Buddy" Roemer                PRECINCT 18                                            01 
01070050019000000REP       President                                               Charles "Buddy" Roemer                PRECINCT 19                                            01 
01070050020000000REP       President                                               Charles "Buddy" Roemer                PRECINCT 20                                            01 
01070050021000000REP       President                                               Charles "Buddy" Roemer                PRECINCT 21                                            01 
01070050022000000REP       President                                               Charles "Buddy" Roemer                PRECINCT 22                                            01 
01070050023000001REP       President                                               Charles "Buddy" Roemer                PRECINCT 23                                            01 
01070050024000000REP       President                                               Charles "Buddy" Roemer                PRECINCT 24                                            01 
01070050025000000REP       President                                               Charles "Buddy" Roemer                PRECINCT 25                                            01 
01070050026000000REP       President                                               Charles "Buddy" Roemer                PRECINCT 26                                            01 
01070050027000003REP       President                                               Charles "Buddy" Roemer                PRECINCT 27                                            01 
01070050028000000REP       President                                               Charles "Buddy" Roemer                PRECINCT 28                                            01 
01070050029000000REP       President                                               Charles "Buddy" Roemer                PRECINCT 29                                            01 
01070050030000000REP       President                                               Charles "Buddy" Roemer                PRECINCT 30                                            01 
01070050031000000REP       President                                               Charles "Buddy" Roemer                PRECINCT 31                                            01 
01070050032000000REP       President                                               Charles "Buddy" Roemer                PRECINCT 32                                            01 
01070050033000001REP       President                                               Charles "Buddy" Roemer                PRECINCT 33                                            01 
01070050034000000REP       President                                               Charles "Buddy" Roemer                PRECINCT 34                                            01 
01070060001000002REP       President                                               Ron Paul                              PRECINCT 1                                             01 
01070060002000010REP       President                                               Ron Paul                              PRECINCT 2                                             01 
01070060003000001REP       President                                               Ron Paul                              PRECINCT 3                                             01 
01070060004000000REP       President                                               Ron Paul                              PRECINCT 4                                             01 
01070060005000011REP       President                                               Ron Paul                              PRECINCT 5                                             01 
01070060006000037REP       President                                               Ron Paul                              PRECINCT 6                                             01 
01070060007000040REP       President                                               Ron Paul                              PRECINCT 7                                             01 
01070060008000047REP       President                                               Ron Paul                              PRECINCT 8                                             01 
01070060009000023REP       President                                               Ron Paul                              PRECINCT 9                                             01 
01070060010000015REP       President                                               Ron Paul                              PRECINCT 10                                            01 
01070060011000005REP       President                                               Ron Paul                              PRECINCT 11                                            01 
01070060012000015REP       President                                               Ron Paul                              PRECINCT 12                                            01 
01070060013000016REP       President                                               Ron Paul                              PRECINCT 13                                            01 
01070060014000016REP       President                                               Ron Paul                              PRECINCT 14                                            01 
01070060015000015REP       President                                               Ron Paul                              PRECINCT 15                                            01 
01070060016000035REP       President                                               Ron Paul                              PRECINCT 16                                            01 
01070060017000042REP       President                                               Ron Paul                              PRECINCT 17                                            01 
01070060018000030REP       President                                               Ron Paul                              PRECINCT 18                                            01 
01070060019000014REP       President                                               Ron Paul                              PRECINCT 19                                            01 
01070060020000012REP       President                                               Ron Paul                              PRECINCT 20                                            01 
01070060021000006REP       President                                               Ron Paul                              PRECINCT 21                                            01 
01070060022000015REP       President                                               Ron Paul                              PRECINCT 22                                            01 
01070060023000040REP       President                                               Ron Paul                              PRECINCT 23                                            01 
01070060024000019REP       President                                               Ron Paul                              PRECINCT 24                                            01 
01070060025000014REP       President                                               Ron Paul                              PRECINCT 25                                            01 
01070060026000028REP       President                                               Ron Paul                              PRECINCT 26                                            01 
01070060027000044REP       President                                               Ron Paul                              PRECINCT 27                                            01 
01070060028000031REP       President                                               Ron Paul                              PRECINCT 28                                            01 
01070060029000014REP       President                                               Ron Paul                              PRECINCT 29                                            01 
01070060030000012REP       President                                               Ron Paul                              PRECINCT 30                                            01 
01070060031000050REP       President                                               Ron Paul                              PRECINCT 31                                            01 
01070060032000027REP       President                                               Ron Paul                              PRECINCT 32                                            01 
01070060033000022REP       President                                               Ron Paul                              PRECINCT 33                                            01 
01070060034000024REP       President                                               Ron Paul                              PRECINCT 34                                            01 
01070070001000000REP       President                                               John Davis                            PRECINCT 1                                             01 
01070070002000000REP       President                                               John Davis                            PRECINCT 2                                             01 
01070070003000000REP       President                                               John Davis                            PRECINCT 3                                             01 
01070070004000000REP       President                                               John Davis                            PRECINCT 4                                             01 
01070070005000000REP       President                                               John Davis                            PRECINCT 5                                             01 
01070070006000000REP       President                                               John Davis                            PRECINCT 6                                             01 
01070070007000001REP       President                                               John Davis                            PRECINCT 7                                             01 
01070070008000000REP       President                                               John Davis                            PRECINCT 8                                             01 
01070070009000000REP       President                                               John Davis                            PRECINCT 9                                             01 
01070070010000000REP       President                                               John Davis                            PRECINCT 10                                            01 
01070070011000000REP       President                                               John Davis                            PRECINCT 11                                            01 
01070070012000000REP       President                                               John Davis                            PRECINCT 12                                            01 
01070070013000000REP       President                                               John Davis                            PRECINCT 13                                            01 
01070070014000000REP       President                                               John Davis                            PRECINCT 14                                            01 
01070070015000000REP       President                                               John Davis                            PRECINCT 15                                            01 
01070070016000001REP       President                                               John Davis                            PRECINCT 16                                            01 
01070070017000001REP       President                                               John Davis                            PRECINCT 17                                            01 
01070070018000000REP       President                                               John Davis                            PRECINCT 18                                            01 
01070070019000001REP       President                                               John Davis                            PRECINCT 19                                            01 
01070070020000000REP       President                                               John Davis                            PRECINCT 20                                            01 
01070070021000000REP       President                                               John Davis                            PRECINCT 21                                            01 
01070070022000001REP       President                                               John Davis                            PRECINCT 22                                            01 
01070070023000001REP       President                                               John Davis                            PRECINCT 23                                            01 
01070070024000001REP       President                                               John Davis                            PRECINCT 24                                            01 
01070070025000000REP       President                                               John Davis                            PRECINCT 25                                            01 
01070070026000003REP       President                                               John Davis                            PRECINCT 26                                            01 
01070070027000002REP       President                                               John Davis                            PRECINCT 27                                            01 
01070070028000001REP       President                                               John Davis                            PRECINCT 28                                            01 
01070070029000001REP       President                                               John Davis                            PRECINCT 29                                            01 
01070070030000001REP       President                                               John Davis                            PRECINCT 30                                            01 
01070070031000001REP       President                                               John Davis                            PRECINCT 31                                            01 
01070070032000001REP       President                                               John Davis                            PRECINCT 32                                            01 
01070070033000000REP       President                                               John Davis                            PRECINCT 33                                            01 
01070070034000003REP       President                                               John Davis                            PRECINCT 34                                            01 
01070080001000000REP       President                                               Jon Huntsman                          PRECINCT 1                                             01 
01070080002000001REP       President                                               Jon Huntsman                          PRECINCT 2                                             01 
01070080003000000REP       President                                               Jon Huntsman                          PRECINCT 3                                             01 
01070080004000000REP       President                                               Jon Huntsman                          PRECINCT 4                                             01 
01070080005000000REP       President                                               Jon Huntsman                          PRECINCT 5                                             01 
01070080006000003REP       President                                               Jon Huntsman                          PRECINCT 6                                             01 
01070080007000000REP       President                                               Jon Huntsman                          PRECINCT 7                                             01 
01070080008000006REP       President                                               Jon Huntsman                          PRECINCT 8                                             01 
01070080009000003REP       President                                               Jon Huntsman                          PRECINCT 9                                             01 
01070080010000001REP       President                                               Jon Huntsman                          PRECINCT 10                                            01 
01070080011000000REP       President                                               Jon Huntsman                          PRECINCT 11                                            01 
01070080012000000REP       President                                               Jon Huntsman                          PRECINCT 12                                            01 
01070080013000003REP       President                                               Jon Huntsman                          PRECINCT 13                                            01 
01070080014000001REP       President                                               Jon Huntsman                          PRECINCT 14                                            01 
01070080015000001REP       President                                               Jon Huntsman                          PRECINCT 15                                            01 
01070080016000001REP       President                                               Jon Huntsman                          PRECINCT 16                                            01 
01070080017000001REP       President                                               Jon Huntsman                          PRECINCT 17                                            01 
01070080018000001REP       President                                               Jon Huntsman                          PRECINCT 18                                            01 
01070080019000002REP       President                                               Jon Huntsman                          PRECINCT 19                                            01 
01070080020000002REP       President                                               Jon Huntsman                          PRECINCT 20                                            01 
01070080021000000REP       President                                               Jon Huntsman                          PRECINCT 21                                            01 
01070080022000000REP       President                                               Jon Huntsman                          PRECINCT 22                                            01 
01070080023000005REP       President                                               Jon Huntsman                          PRECINCT 23                                            01 
01070080024000002REP       President                                               Jon Huntsman                          PRECINCT 24                                            01 
01070080025000001REP       President                                               Jon Huntsman                          PRECINCT 25                                            01 
01070080026000002REP       President                                               Jon Huntsman                          PRECINCT 26                                            01 
01070080027000006REP       President                                               Jon Huntsman                          PRECINCT 27                                            01 
01070080028000005REP       President                                               Jon Huntsman                          PRECINCT 28                                            01 
01070080029000000REP       President                                               Jon Huntsman                          PRECINCT 29                                            01 
01070080030000001REP       President                                               Jon Huntsman                          PRECINCT 30                                            01 
01070080031000002REP       President                                               Jon Huntsman                          PRECINCT 31                                            01 
01070080032000003REP       President                                               Jon Huntsman                          PRECINCT 32                                            01 
01070080033000001REP       President                                               Jon Huntsman                          PRECINCT 33                                            01 
01070080034000000REP       President                                               Jon Huntsman                          PRECINCT 34                                            01 
01070090001000002REP       President                                               Uncommitted                           PRECINCT 1                                             01 
01070090002000004REP       President                                               Uncommitted                           PRECINCT 2                                             01 
01070090003000003REP       President                                               Uncommitted                           PRECINCT 3                                             01 
01070090004000001REP       President                                               Uncommitted                           PRECINCT 4                                             01 
01070090005000007REP       President                                               Uncommitted                           PRECINCT 5                                             01 
01070090006000012REP       President                                               Uncommitted                           PRECINCT 6                                             01 
01070090007000012REP       President                                               Uncommitted                           PRECINCT 7                                             01 
01070090008000015REP       President                                               Uncommitted                           PRECINCT 8                                             01 
01070090009000014REP       President                                               Uncommitted                           PRECINCT 9                                             01 
01070090010000004REP       President                                               Uncommitted                           PRECINCT 10                                            01 
01070090011000002REP       President                                               Uncommitted                           PRECINCT 11                                            01 
01070090012000008REP       President                                               Uncommitted                           PRECINCT 12                                            01 
01070090013000005REP       President                                               Uncommitted                           PRECINCT 13                                            01 
01070090014000004REP       President                                               Uncommitted                           PRECINCT 14                                            01 
01070090015000010REP       President                                               Uncommitted                           PRECINCT 15                                            01 
01070090016000014REP       President                                               Uncommitted                           PRECINCT 16                                            01 
01070090017000022REP       President                                               Uncommitted                           PRECINCT 17                                            01 
01070090018000011REP       President                                               Uncommitted                           PRECINCT 18                                            01 
01070090019000015REP       President                                               Uncommitted                           PRECINCT 19                                            01 
01070090020000007REP       President                                               Uncommitted                           PRECINCT 20                                            01 
01070090021000001REP       President                                               Uncommitted                           PRECINCT 21                                            01 
01070090022000006REP       President                                               Uncommitted                           PRECINCT 22                                            01 
01070090023000009REP       President                                               Uncommitted                           PRECINCT 23                                            01 
01070090024000006REP       President                                               Uncommitted                           PRECINCT 24                                            01 
01070090025000004REP       President                                               Uncommitted                           PRECINCT 25                                            01 
01070090026000011REP       President                                               Uncommitted                           PRECINCT 26                                            01 
01070090027000018REP       President                                               Uncommitted                           PRECINCT 27                                            01 
01070090028000010REP       President                                               Uncommitted                           PRECINCT 28                                            01 
01070090029000001REP       President                                               Uncommitted                           PRECINCT 29                                            01 
01070090030000007REP       President                                               Uncommitted                           PRECINCT 30                                            01 
01070090031000022REP       President                                               Uncommitted                           PRECINCT 31                                            01 
01070090032000020REP       President                                               Uncommitted                           PRECINCT 32                                            01 
01070090033000011REP       President                                               Uncommitted                           PRECINCT 33                                            01 
01070090034000020REP       President                                               Uncommitted                           PRECINCT 34                                            01 
01070100001000000REP       President                                               OVER VOTES                            PRECINCT 1                                             01 
01070100002000000REP       President                                               OVER VOTES                            PRECINCT 2                                             01 
01070100003000000REP       President                                               OVER VOTES                            PRECINCT 3                                             01 
01070100004000000REP       President                                               OVER VOTES                            PRECINCT 4                                             01 
01070100005000000REP       President                                               OVER VOTES                            PRECINCT 5                                             01 
01070100006000000REP       President                                               OVER VOTES                            PRECINCT 6                                             01 
01070100007000000REP       President                                               OVER VOTES                            PRECINCT 7                                             01 
01070100008000000REP       President                                               OVER VOTES                            PRECINCT 8                                             01 
01070100009000000REP       President                                               OVER VOTES                            PRECINCT 9                                             01 
01070100010000000REP       President                                               OVER VOTES                            PRECINCT 10                                            01 
01070100011000000REP       President                                               OVER VOTES                            PRECINCT 11                                            01 
01070100012000001REP       President                                               OVER VOTES                            PRECINCT 12                                            01 
01070100013000000REP       President                                               OVER VOTES                            PRECINCT 13                                            01 
01070100014000000REP       President                                               OVER VOTES                            PRECINCT 14                                            01 
01070100015000001REP       President                                               OVER VOTES                            PRECINCT 15                                            01 
01070100016000000REP       President                                               OVER VOTES                            PRECINCT 16                                            01 
01070100017000000REP       President                                               OVER VOTES                            PRECINCT 17                                            01 
01070100018000000REP       President                                               OVER VOTES                            PRECINCT 18                                            01 
01070100019000000REP       President                                               OVER VOTES                            PRECINCT 19                                            01 
01070100020000000REP       President                                               OVER VOTES                            PRECINCT 20                                            01 
01070100021000000REP       President                                               OVER VOTES                            PRECINCT 21                                            01 
01070100022000000REP       President                                               OVER VOTES                            PRECINCT 22                                            01 
01070100023000001REP       President                                               OVER VOTES                            PRECINCT 23                                            01 
01070100024000000REP       President                                               OVER VOTES                            PRECINCT 24                                            01 
01070100025000000REP       President                                               OVER VOTES                            PRECINCT 25                                            01 
01070100026000000REP       President                                               OVER VOTES                            PRECINCT 26                                            01 
01070100027000001REP       President                                               OVER VOTES                            PRECINCT 27                                            01 
01070100028000000REP       President                                               OVER VOTES                            PRECINCT 28                                            01 
01070100029000001REP       President                                               OVER VOTES                            PRECINCT 29                                            01 
01070100030000000REP       President                                               OVER VOTES                            PRECINCT 30                                            01 
01070100031000000REP       President                                               OVER VOTES                            PRECINCT 31                                            01 
01070100032000000REP       President                                               OVER VOTES                            PRECINCT 32                                            01 
01070100033000000REP       President                                               OVER VOTES                            PRECINCT 33                                            01 
01070100034000000REP       President                                               OVER VOTES                            PRECINCT 34                                            01 
01070110001000002REP       President                                               UNDER VOTES                           PRECINCT 1                                             01 
01070110002000003REP       President                                               UNDER VOTES                           PRECINCT 2                                             01 
01070110003000001REP       President                                               UNDER VOTES                           PRECINCT 3                                             01 
01070110004000000REP       President                                               UNDER VOTES                           PRECINCT 4                                             01 
01070110005000009REP       President                                               UNDER VOTES                           PRECINCT 5                                             01 
01070110006000012REP       President                                               UNDER VOTES                           PRECINCT 6                                             01 
01070110007000010REP       President                                               UNDER VOTES                           PRECINCT 7                                             01 
01070110008000014REP       President                                               UNDER VOTES                           PRECINCT 8                                             01 
