01010010001000512          REGISTERED VOTERS - TOTAL                               REGISTERED VOTERS - TOTAL             PRECINCT 1                                             00 
01010010002000028          REGISTERED VOTERS - TOTAL                               REGISTERED VOTERS - TOTAL             PRECINCT 2                                             00 
01010010003000787          REGISTERED VOTERS - TOTAL                               REGISTERED VOTERS - TOTAL             PRECINCT 3                                             00 
01010010004000424          REGISTERED VOTERS - TOTAL                               REGISTERED VOTERS - TOTAL             PRECINCT 4                                             00 
01010010005000491          REGISTERED VOTERS - TOTAL                               REGISTERED VOTERS - TOTAL             PRECINCT 5                                             00 
01010010006000775          REGISTERED VOTERS - TOTAL                               REGISTERED VOTERS - TOTAL             PRECINCT 6                                             00 
01010010007000562          REGISTERED VOTERS - TOTAL                               REGISTERED VOTERS - TOTAL             PRECINCT 7                                             00 
01010010008001420          REGISTERED VOTERS - TOTAL                               REGISTERED VOTERS - TOTAL             PRECINCT 8                                             00 
01010010009000297          REGISTERED VOTERS - TOTAL                               REGISTERED VOTERS - TOTAL             PRECINCT 9                                             00 
01010010010000000          REGISTERED VOTERS - TOTAL                               REGISTERED VOTERS - TOTAL             PRECINCT 10                                            00 
01010010011000267          REGISTERED VOTERS - TOTAL                               REGISTERED VOTERS - TOTAL             PRECINCT 11                                            00 
01010010012000420          REGISTERED VOTERS - TOTAL                               REGISTERED VOTERS - TOTAL             PRECINCT 12                                            00 
01010010013000643          REGISTERED VOTERS - TOTAL                               REGISTERED VOTERS - TOTAL             PRECINCT 13                                            00 
01010010014000176          REGISTERED VOTERS - TOTAL                               REGISTERED VOTERS - TOTAL             PRECINCT 14                                            00 
01010010015000799          REGISTERED VOTERS - TOTAL                               REGISTERED VOTERS - TOTAL             PRECINCT 15                                            00 
01010010016000384          REGISTERED VOTERS - TOTAL                               REGISTERED VOTERS - TOTAL             PRECINCT 16                                            00 
01010010017000628          REGISTERED VOTERS - TOTAL                               REGISTERED VOTERS - TOTAL             PRECINCT 17                                            00 
01010010018000169          REGISTERED VOTERS - TOTAL                               REGISTERED VOTERS - TOTAL             PRECINCT 18                                            00 
01010010019000000          REGISTERED VOTERS - TOTAL                               REGISTERED VOTERS - TOTAL             PRECINCT 19                                            00 
01010010020000154          REGISTERED VOTERS - TOTAL                               REGISTERED VOTERS - TOTAL             PRECINCT 20                                            00 
01010010021000848          REGISTERED VOTERS - TOTAL                               REGISTERED VOTERS - TOTAL             PRECINCT 21                                            00 
01010010022000879          REGISTERED VOTERS - TOTAL                               REGISTERED VOTERS - TOTAL             PRECINCT 22                                            00 
01010010023001478          REGISTERED VOTERS - TOTAL                               REGISTERED VOTERS - TOTAL             PRECINCT 23                                            00 
01010010024000180          REGISTERED VOTERS - TOTAL                               REGISTERED VOTERS - TOTAL             PRECINCT 24                                            00 
01010010025000164          REGISTERED VOTERS - TOTAL                               REGISTERED VOTERS - TOTAL             PRECINCT 25                                            00 
01010010026000106          REGISTERED VOTERS - TOTAL                               REGISTERED VOTERS - TOTAL             PRECINCT 26                                            00 
01010010027001636          REGISTERED VOTERS - TOTAL                               REGISTERED VOTERS - TOTAL             PRECINCT 27                                            00 
01010010028001017          REGISTERED VOTERS - TOTAL                               REGISTERED VOTERS - TOTAL             PRECINCT 28                                            00 
01010010029001003          REGISTERED VOTERS - TOTAL                               REGISTERED VOTERS - TOTAL             PRECINCT 29                                            00 
01010010030000733          REGISTERED VOTERS - TOTAL                               REGISTERED VOTERS - TOTAL             PRECINCT 30                                            00 
01020010001000000REP       REGISTERED VOTERS - REPUBLICAN PARTY                    REGISTERED VOTERS - REPUBLICAN PARTY  PRECINCT 1                                             00 
01020010002000000REP       REGISTERED VOTERS - REPUBLICAN PARTY                    REGISTERED VOTERS - REPUBLICAN PARTY  PRECINCT 2                                             00 
01020010003000000REP       REGISTERED VOTERS - REPUBLICAN PARTY                    REGISTERED VOTERS - REPUBLICAN PARTY  PRECINCT 3                                             00 
01020010004000000REP       REGISTERED VOTERS - REPUBLICAN PARTY                    REGISTERED VOTERS - REPUBLICAN PARTY  PRECINCT 4                                             00 
01020010005000000REP       REGISTERED VOTERS - REPUBLICAN PARTY                    REGISTERED VOTERS - REPUBLICAN PARTY  PRECINCT 5                                             00 
01020010006000000REP       REGISTERED VOTERS - REPUBLICAN PARTY                    REGISTERED VOTERS - REPUBLICAN PARTY  PRECINCT 6                                             00 
01020010007000000REP       REGISTERED VOTERS - REPUBLICAN PARTY                    REGISTERED VOTERS - REPUBLICAN PARTY  PRECINCT 7                                             00 
01020010008000000REP       REGISTERED VOTERS - REPUBLICAN PARTY                    REGISTERED VOTERS - REPUBLICAN PARTY  PRECINCT 8                                             00 
01020010009000000REP       REGISTERED VOTERS - REPUBLICAN PARTY                    REGISTERED VOTERS - REPUBLICAN PARTY  PRECINCT 9                                             00 
01020010010000000REP       REGISTERED VOTERS - REPUBLICAN PARTY                    REGISTERED VOTERS - REPUBLICAN PARTY  PRECINCT 10                                            00 
01020010011000000REP       REGISTERED VOTERS - REPUBLICAN PARTY                    REGISTERED VOTERS - REPUBLICAN PARTY  PRECINCT 11                                            00 
01020010012000000REP       REGISTERED VOTERS - REPUBLICAN PARTY                    REGISTERED VOTERS - REPUBLICAN PARTY  PRECINCT 12                                            00 
01020010013000000REP       REGISTERED VOTERS - REPUBLICAN PARTY                    REGISTERED VOTERS - REPUBLICAN PARTY  PRECINCT 13                                            00 
01020010014000000REP       REGISTERED VOTERS - REPUBLICAN PARTY                    REGISTERED VOTERS - REPUBLICAN PARTY  PRECINCT 14                                            00 
01020010015000000REP       REGISTERED VOTERS - REPUBLICAN PARTY                    REGISTERED VOTERS - REPUBLICAN PARTY  PRECINCT 15                                            00 
01020010016000000REP       REGISTERED VOTERS - REPUBLICAN PARTY                    REGISTERED VOTERS - REPUBLICAN PARTY  PRECINCT 16                                            00 
01020010017000000REP       REGISTERED VOTERS - REPUBLICAN PARTY                    REGISTERED VOTERS - REPUBLICAN PARTY  PRECINCT 17                                            00 
01020010018000000REP       REGISTERED VOTERS - REPUBLICAN PARTY                    REGISTERED VOTERS - REPUBLICAN PARTY  PRECINCT 18                                            00 
01020010019000000REP       REGISTERED VOTERS - REPUBLICAN PARTY                    REGISTERED VOTERS - REPUBLICAN PARTY  PRECINCT 19                                            00 
01020010020000000REP       REGISTERED VOTERS - REPUBLICAN PARTY                    REGISTERED VOTERS - REPUBLICAN PARTY  PRECINCT 20                                            00 
01020010021000000REP       REGISTERED VOTERS - REPUBLICAN PARTY                    REGISTERED VOTERS - REPUBLICAN PARTY  PRECINCT 21                                            00 
01020010022000000REP       REGISTERED VOTERS - REPUBLICAN PARTY                    REGISTERED VOTERS - REPUBLICAN PARTY  PRECINCT 22                                            00 
01020010023000000REP       REGISTERED VOTERS - REPUBLICAN PARTY                    REGISTERED VOTERS - REPUBLICAN PARTY  PRECINCT 23                                            00 
01020010024000000REP       REGISTERED VOTERS - REPUBLICAN PARTY                    REGISTERED VOTERS - REPUBLICAN PARTY  PRECINCT 24                                            00 
01020010025000000REP       REGISTERED VOTERS - REPUBLICAN PARTY                    REGISTERED VOTERS - REPUBLICAN PARTY  PRECINCT 25                                            00 
01020010026000000REP       REGISTERED VOTERS - REPUBLICAN PARTY                    REGISTERED VOTERS - REPUBLICAN PARTY  PRECINCT 26                                            00 
01020010027000000REP       REGISTERED VOTERS - REPUBLICAN PARTY                    REGISTERED VOTERS - REPUBLICAN PARTY  PRECINCT 27                                            00 
01020010028000000REP       REGISTERED VOTERS - REPUBLICAN PARTY                    REGISTERED VOTERS - REPUBLICAN PARTY  PRECINCT 28                                            00 
01020010029000000REP       REGISTERED VOTERS - REPUBLICAN PARTY                    REGISTERED VOTERS - REPUBLICAN PARTY  PRECINCT 29                                            00 
01020010030000000REP       REGISTERED VOTERS - REPUBLICAN PARTY                    REGISTERED VOTERS - REPUBLICAN PARTY  PRECINCT 30                                            00 
01040010001000242          BALLOTS CAST - TOTAL                                    BALLOTS CAST - TOTAL                  PRECINCT 1                                             00 
01040010002000012          BALLOTS CAST - TOTAL                                    BALLOTS CAST - TOTAL                  PRECINCT 2                                             00 
01040010003000216          BALLOTS CAST - TOTAL                                    BALLOTS CAST - TOTAL                  PRECINCT 3                                             00 
01040010004000096          BALLOTS CAST - TOTAL                                    BALLOTS CAST - TOTAL                  PRECINCT 4                                             00 
01040010005000167          BALLOTS CAST - TOTAL                                    BALLOTS CAST - TOTAL                  PRECINCT 5                                             00 
01040010006000268          BALLOTS CAST - TOTAL                                    BALLOTS CAST - TOTAL                  PRECINCT 6                                             00 
01040010007000189          BALLOTS CAST - TOTAL                                    BALLOTS CAST - TOTAL                  PRECINCT 7                                             00 
01040010008000432          BALLOTS CAST - TOTAL                                    BALLOTS CAST - TOTAL                  PRECINCT 8                                             00 
01040010009000099          BALLOTS CAST - TOTAL                                    BALLOTS CAST - TOTAL                  PRECINCT 9                                             00 
01040010010000000          BALLOTS CAST - TOTAL                                    BALLOTS CAST - TOTAL                  PRECINCT 10                                            00 
01040010011000067          BALLOTS CAST - TOTAL                                    BALLOTS CAST - TOTAL                  PRECINCT 11                                            00 
01040010012000101          BALLOTS CAST - TOTAL                                    BALLOTS CAST - TOTAL                  PRECINCT 12                                            00 
01040010013000216          BALLOTS CAST - TOTAL                                    BALLOTS CAST - TOTAL                  PRECINCT 13                                            00 
01040010014000049          BALLOTS CAST - TOTAL                                    BALLOTS CAST - TOTAL                  PRECINCT 14                                            00 
01040010015000219          BALLOTS CAST - TOTAL                                    BALLOTS CAST - TOTAL                  PRECINCT 15                                            00 
01040010016000189          BALLOTS CAST - TOTAL                                    BALLOTS CAST - TOTAL                  PRECINCT 16                                            00 
01040010017000102          BALLOTS CAST - TOTAL                                    BALLOTS CAST - TOTAL                  PRECINCT 17                                            00 
01040010018000051          BALLOTS CAST - TOTAL                                    BALLOTS CAST - TOTAL                  PRECINCT 18                                            00 
01040010019000000          BALLOTS CAST - TOTAL                                    BALLOTS CAST - TOTAL                  PRECINCT 19                                            00 
01040010020000054          BALLOTS CAST - TOTAL                                    BALLOTS CAST - TOTAL                  PRECINCT 20                                            00 
01040010021000220          BALLOTS CAST - TOTAL                                    BALLOTS CAST - TOTAL                  PRECINCT 21                                            00 
01040010022000242          BALLOTS CAST - TOTAL                                    BALLOTS CAST - TOTAL                  PRECINCT 22                                            00 
01040010023000302          BALLOTS CAST - TOTAL                                    BALLOTS CAST - TOTAL                  PRECINCT 23                                            00 
01040010024000035          BALLOTS CAST - TOTAL                                    BALLOTS CAST - TOTAL                  PRECINCT 24                                            00 
01040010025000021          BALLOTS CAST - TOTAL                                    BALLOTS CAST - TOTAL                  PRECINCT 25                                            00 
01040010026000014          BALLOTS CAST - TOTAL                                    BALLOTS CAST - TOTAL                  PRECINCT 26                                            00 
01040010027000506          BALLOTS CAST - TOTAL                                    BALLOTS CAST - TOTAL                  PRECINCT 27                                            00 
01040010028000147          BALLOTS CAST - TOTAL                                    BALLOTS CAST - TOTAL                  PRECINCT 28                                            00 
01040010029000202          BALLOTS CAST - TOTAL                                    BALLOTS CAST - TOTAL                  PRECINCT 29                                            00 
01040010030000127          BALLOTS CAST - TOTAL                                    BALLOTS CAST - TOTAL                  PRECINCT 30                                            00 
01050010001000231REP       BALLOTS CAST - REPUBLICAN PARTY                         BALLOTS CAST - REPUBLICAN PARTY       PRECINCT 1                                             00 
01050010002000011REP       BALLOTS CAST - REPUBLICAN PARTY                         BALLOTS CAST - REPUBLICAN PARTY       PRECINCT 2                                             00 
01050010003000209REP       BALLOTS CAST - REPUBLICAN PARTY                         BALLOTS CAST - REPUBLICAN PARTY       PRECINCT 3                                             00 
01050010004000093REP       BALLOTS CAST - REPUBLICAN PARTY                         BALLOTS CAST - REPUBLICAN PARTY       PRECINCT 4                                             00 
01050010005000165REP       BALLOTS CAST - REPUBLICAN PARTY                         BALLOTS CAST - REPUBLICAN PARTY       PRECINCT 5                                             00 
01050010006000263REP       BALLOTS CAST - REPUBLICAN PARTY                         BALLOTS CAST - REPUBLICAN PARTY       PRECINCT 6                                             00 
01050010007000181REP       BALLOTS CAST - REPUBLICAN PARTY                         BALLOTS CAST - REPUBLICAN PARTY       PRECINCT 7                                             00 
01050010008000425REP       BALLOTS CAST - REPUBLICAN PARTY                         BALLOTS CAST - REPUBLICAN PARTY       PRECINCT 8                                             00 
01050010009000093REP       BALLOTS CAST - REPUBLICAN PARTY                         BALLOTS CAST - REPUBLICAN PARTY       PRECINCT 9                                             00 
01050010010000000REP       BALLOTS CAST - REPUBLICAN PARTY                         BALLOTS CAST - REPUBLICAN PARTY       PRECINCT 10                                            00 
01050010011000064REP       BALLOTS CAST - REPUBLICAN PARTY                         BALLOTS CAST - REPUBLICAN PARTY       PRECINCT 11                                            00 
01050010012000100REP       BALLOTS CAST - REPUBLICAN PARTY                         BALLOTS CAST - REPUBLICAN PARTY       PRECINCT 12                                            00 
01050010013000207REP       BALLOTS CAST - REPUBLICAN PARTY                         BALLOTS CAST - REPUBLICAN PARTY       PRECINCT 13                                            00 
01050010014000047REP       BALLOTS CAST - REPUBLICAN PARTY                         BALLOTS CAST - REPUBLICAN PARTY       PRECINCT 14                                            00 
01050010015000206REP       BALLOTS CAST - REPUBLICAN PARTY                         BALLOTS CAST - REPUBLICAN PARTY       PRECINCT 15                                            00 
01050010016000192REP       BALLOTS CAST - REPUBLICAN PARTY                         BALLOTS CAST - REPUBLICAN PARTY       PRECINCT 16                                            00 
01050010017000095REP       BALLOTS CAST - REPUBLICAN PARTY                         BALLOTS CAST - REPUBLICAN PARTY       PRECINCT 17                                            00 
01050010018000046REP       BALLOTS CAST - REPUBLICAN PARTY                         BALLOTS CAST - REPUBLICAN PARTY       PRECINCT 18                                            00 
01050010019000000REP       BALLOTS CAST - REPUBLICAN PARTY                         BALLOTS CAST - REPUBLICAN PARTY       PRECINCT 19                                            00 
01050010020000053REP       BALLOTS CAST - REPUBLICAN PARTY                         BALLOTS CAST - REPUBLICAN PARTY       PRECINCT 20                                            00 
01050010021000203REP       BALLOTS CAST - REPUBLICAN PARTY                         BALLOTS CAST - REPUBLICAN PARTY       PRECINCT 21                                            00 
01050010022000226REP       BALLOTS CAST - REPUBLICAN PARTY                         BALLOTS CAST - REPUBLICAN PARTY       PRECINCT 22                                            00 
01050010023000287REP       BALLOTS CAST - REPUBLICAN PARTY                         BALLOTS CAST - REPUBLICAN PARTY       PRECINCT 23                                            00 
01050010024000028REP       BALLOTS CAST - REPUBLICAN PARTY                         BALLOTS CAST - REPUBLICAN PARTY       PRECINCT 24                                            00 
01050010025000021REP       BALLOTS CAST - REPUBLICAN PARTY                         BALLOTS CAST - REPUBLICAN PARTY       PRECINCT 25                                            00 
01050010026000013REP       BALLOTS CAST - REPUBLICAN PARTY                         BALLOTS CAST - REPUBLICAN PARTY       PRECINCT 26                                            00 
01050010027000493REP       BALLOTS CAST - REPUBLICAN PARTY                         BALLOTS CAST - REPUBLICAN PARTY       PRECINCT 27                                            00 
01050010028000137REP       BALLOTS CAST - REPUBLICAN PARTY                         BALLOTS CAST - REPUBLICAN PARTY       PRECINCT 28                                            00 
01050010029000181REP       BALLOTS CAST - REPUBLICAN PARTY                         BALLOTS CAST - REPUBLICAN PARTY       PRECINCT 29                                            00 
01050010030000107REP       BALLOTS CAST - REPUBLICAN PARTY                         BALLOTS CAST - REPUBLICAN PARTY       PRECINCT 30                                            00 
01070010001000143REP       President PALO PINTO COUNTYWIDE                         Mitt Romney                           PRECINCT 1                                             01 
01070010002000003REP       President PALO PINTO COUNTYWIDE                         Mitt Romney                           PRECINCT 2                                             01 
01070010003000155REP       President PALO PINTO COUNTYWIDE                         Mitt Romney                           PRECINCT 3                                             01 
01070010004000055REP       President PALO PINTO COUNTYWIDE                         Mitt Romney                           PRECINCT 4                                             01 
01070010005000077REP       President PALO PINTO COUNTYWIDE                         Mitt Romney                           PRECINCT 5                                             01 
01070010006000172REP       President PALO PINTO COUNTYWIDE                         Mitt Romney                           PRECINCT 6                                             01 
01070010007000097REP       President PALO PINTO COUNTYWIDE                         Mitt Romney                           PRECINCT 7                                             01 
01070010008000276REP       President PALO PINTO COUNTYWIDE                         Mitt Romney                           PRECINCT 8                                             01 
01070010009000068REP       President PALO PINTO COUNTYWIDE                         Mitt Romney                           PRECINCT 9                                             01 
01070010010000000REP       President PALO PINTO COUNTYWIDE                         Mitt Romney                           PRECINCT 10                                            01 
01070010011000038REP       President PALO PINTO COUNTYWIDE                         Mitt Romney                           PRECINCT 11                                            01 
01070010012000063REP       President PALO PINTO COUNTYWIDE                         Mitt Romney                           PRECINCT 12                                            01 
01070010013000134REP       President PALO PINTO COUNTYWIDE                         Mitt Romney                           PRECINCT 13                                            01 
01070010014000032REP       President PALO PINTO COUNTYWIDE                         Mitt Romney                           PRECINCT 14                                            01 
01070010015000158REP       President PALO PINTO COUNTYWIDE                         Mitt Romney                           PRECINCT 15                                            01 
01070010016000126REP       President PALO PINTO COUNTYWIDE                         Mitt Romney                           PRECINCT 16                                            01 
01070010017000049REP       President PALO PINTO COUNTYWIDE                         Mitt Romney                           PRECINCT 17                                            01 
01070010018000027REP       President PALO PINTO COUNTYWIDE                         Mitt Romney                           PRECINCT 18                                            01 
01070010019000000REP       President PALO PINTO COUNTYWIDE                         Mitt Romney                           PRECINCT 19                                            01 
01070010020000042REP       President PALO PINTO COUNTYWIDE                         Mitt Romney                           PRECINCT 20                                            01 
01070010021000128REP       President PALO PINTO COUNTYWIDE                         Mitt Romney                           PRECINCT 21                                            01 
01070010022000140REP       President PALO PINTO COUNTYWIDE                         Mitt Romney                           PRECINCT 22                                            01 
01070010023000196REP       President PALO PINTO COUNTYWIDE                         Mitt Romney                           PRECINCT 23                                            01 
01070010024000015REP       President PALO PINTO COUNTYWIDE                         Mitt Romney                           PRECINCT 24                                            01 
01070010025000010REP       President PALO PINTO COUNTYWIDE                         Mitt Romney                           PRECINCT 25                                            01 
01070010026000010REP       President PALO PINTO COUNTYWIDE                         Mitt Romney                           PRECINCT 26                                            01 
01070010027000306REP       President PALO PINTO COUNTYWIDE                         Mitt Romney                           PRECINCT 27                                            01 
01070010028000072REP       President PALO PINTO COUNTYWIDE                         Mitt Romney                           PRECINCT 28                                            01 
01070010029000112REP       President PALO PINTO COUNTYWIDE                         Mitt Romney                           PRECINCT 29                                            01 
01070010030000057REP       President PALO PINTO COUNTYWIDE                         Mitt Romney                           PRECINCT 30                                            01 
01070020001000010REP       President PALO PINTO COUNTYWIDE                         Newt Gingrich                         PRECINCT 1                                             01 
01070020002000001REP       President PALO PINTO COUNTYWIDE                         Newt Gingrich                         PRECINCT 2                                             01 
01070020003000006REP       President PALO PINTO COUNTYWIDE                         Newt Gingrich                         PRECINCT 3                                             01 
01070020004000007REP       President PALO PINTO COUNTYWIDE                         Newt Gingrich                         PRECINCT 4                                             01 
01070020005000005REP       President PALO PINTO COUNTYWIDE                         Newt Gingrich                         PRECINCT 5                                             01 
01070020006000010REP       President PALO PINTO COUNTYWIDE                         Newt Gingrich                         PRECINCT 6                                             01 
01070020007000013REP       President PALO PINTO COUNTYWIDE                         Newt Gingrich                         PRECINCT 7                                             01 
01070020008000027REP       President PALO PINTO COUNTYWIDE                         Newt Gingrich                         PRECINCT 8                                             01 
01070020009000003REP       President PALO PINTO COUNTYWIDE                         Newt Gingrich                         PRECINCT 9                                             01 
01070020010000000REP       President PALO PINTO COUNTYWIDE                         Newt Gingrich                         PRECINCT 10                                            01 
01070020011000001REP       President PALO PINTO COUNTYWIDE                         Newt Gingrich                         PRECINCT 11                                            01 
01070020012000004REP       President PALO PINTO COUNTYWIDE                         Newt Gingrich                         PRECINCT 12                                            01 
01070020013000015REP       President PALO PINTO COUNTYWIDE                         Newt Gingrich                         PRECINCT 13                                            01 
01070020014000003REP       President PALO PINTO COUNTYWIDE                         Newt Gingrich                         PRECINCT 14                                            01 
01070020015000005REP       President PALO PINTO COUNTYWIDE                         Newt Gingrich                         PRECINCT 15                                            01 
01070020016000007REP       President PALO PINTO COUNTYWIDE                         Newt Gingrich                         PRECINCT 16                                            01 
01070020017000005REP       President PALO PINTO COUNTYWIDE                         Newt Gingrich                         PRECINCT 17                                            01 
01070020018000002REP       President PALO PINTO COUNTYWIDE                         Newt Gingrich                         PRECINCT 18                                            01 
01070020019000000REP       President PALO PINTO COUNTYWIDE                         Newt Gingrich                         PRECINCT 19                                            01 
01070020020000004REP       President PALO PINTO COUNTYWIDE                         Newt Gingrich                         PRECINCT 20                                            01 
01070020021000008REP       President PALO PINTO COUNTYWIDE                         Newt Gingrich                         PRECINCT 21                                            01 
01070020022000015REP       President PALO PINTO COUNTYWIDE                         Newt Gingrich                         PRECINCT 22                                            01 
01070020023000014REP       President PALO PINTO COUNTYWIDE                         Newt Gingrich                         PRECINCT 23                                            01 
01070020024000000REP       President PALO PINTO COUNTYWIDE                         Newt Gingrich                         PRECINCT 24                                            01 
01070020025000001REP       President PALO PINTO COUNTYWIDE                         Newt Gingrich                         PRECINCT 25                                            01 
01070020026000000REP       President PALO PINTO COUNTYWIDE                         Newt Gingrich                         PRECINCT 26                                            01 
01070020027000028REP       President PALO PINTO COUNTYWIDE                         Newt Gingrich                         PRECINCT 27                                            01 
01070020028000006REP       President PALO PINTO COUNTYWIDE                         Newt Gingrich                         PRECINCT 28                                            01 
01070020029000005REP       President PALO PINTO COUNTYWIDE                         Newt Gingrich                         PRECINCT 29                                            01 
01070020030000004REP       President PALO PINTO COUNTYWIDE                         Newt Gingrich                         PRECINCT 30                                            01 
01070030001000002REP       President PALO PINTO COUNTYWIDE                         Michele Bachmann                      PRECINCT 1                                             01 
01070030002000000REP       President PALO PINTO COUNTYWIDE                         Michele Bachmann                      PRECINCT 2                                             01 
01070030003000001REP       President PALO PINTO COUNTYWIDE                         Michele Bachmann                      PRECINCT 3                                             01 
01070030004000001REP       President PALO PINTO COUNTYWIDE                         Michele Bachmann                      PRECINCT 4                                             01 
01070030005000001REP       President PALO PINTO COUNTYWIDE                         Michele Bachmann                      PRECINCT 5                                             01 
01070030006000004REP       President PALO PINTO COUNTYWIDE                         Michele Bachmann                      PRECINCT 6                                             01 
01070030007000003REP       President PALO PINTO COUNTYWIDE                         Michele Bachmann                      PRECINCT 7                                             01 
01070030008000002REP       President PALO PINTO COUNTYWIDE                         Michele Bachmann                      PRECINCT 8                                             01 
01070030009000001REP       President PALO PINTO COUNTYWIDE                         Michele Bachmann                      PRECINCT 9                                             01 
01070030010000000REP       President PALO PINTO COUNTYWIDE                         Michele Bachmann                      PRECINCT 10                                            01 
01070030011000000REP       President PALO PINTO COUNTYWIDE                         Michele Bachmann                      PRECINCT 11                                            01 
01070030012000001REP       President PALO PINTO COUNTYWIDE                         Michele Bachmann                      PRECINCT 12                                            01 
01070030013000000REP       President PALO PINTO COUNTYWIDE                         Michele Bachmann                      PRECINCT 13                                            01 
01070030014000000REP       President PALO PINTO COUNTYWIDE                         Michele Bachmann                      PRECINCT 14                                            01 
01070030015000003REP       President PALO PINTO COUNTYWIDE                         Michele Bachmann                      PRECINCT 15                                            01 
01070030016000005REP       President PALO PINTO COUNTYWIDE                         Michele Bachmann                      PRECINCT 16                                            01 
01070030017000003REP       President PALO PINTO COUNTYWIDE                         Michele Bachmann                      PRECINCT 17                                            01 
01070030018000000REP       President PALO PINTO COUNTYWIDE                         Michele Bachmann                      PRECINCT 18                                            01 
01070030019000000REP       President PALO PINTO COUNTYWIDE                         Michele Bachmann                      PRECINCT 19                                            01 
01070030020000000REP       President PALO PINTO COUNTYWIDE                         Michele Bachmann                      PRECINCT 20                                            01 
01070030021000003REP       President PALO PINTO COUNTYWIDE                         Michele Bachmann                      PRECINCT 21                                            01 
01070030022000000REP       President PALO PINTO COUNTYWIDE                         Michele Bachmann                      PRECINCT 22                                            01 
01070030023000001REP       President PALO PINTO COUNTYWIDE                         Michele Bachmann                      PRECINCT 23                                            01 
01070030024000000REP       President PALO PINTO COUNTYWIDE                         Michele Bachmann                      PRECINCT 24                                            01 
01070030025000000REP       President PALO PINTO COUNTYWIDE                         Michele Bachmann                      PRECINCT 25                                            01 
01070030026000000REP       President PALO PINTO COUNTYWIDE                         Michele Bachmann                      PRECINCT 26                                            01 
01070030027000003REP       President PALO PINTO COUNTYWIDE                         Michele Bachmann                      PRECINCT 27                                            01 
01070030028000000REP       President PALO PINTO COUNTYWIDE                         Michele Bachmann                      PRECINCT 28                                            01 
01070030029000004REP       President PALO PINTO COUNTYWIDE                         Michele Bachmann                      PRECINCT 29                                            01 
01070030030000002REP       President PALO PINTO COUNTYWIDE                         Michele Bachmann                      PRECINCT 30                                            01 
01070040001000015REP       President PALO PINTO COUNTYWIDE                         Rick Santorum                         PRECINCT 1                                             01 
01070040002000001REP       President PALO PINTO COUNTYWIDE                         Rick Santorum                         PRECINCT 2                                             01 
01070040003000010REP       President PALO PINTO COUNTYWIDE                         Rick Santorum                         PRECINCT 3                                             01 
01070040004000008REP       President PALO PINTO COUNTYWIDE                         Rick Santorum                         PRECINCT 4                                             01 
01070040005000015REP       President PALO PINTO COUNTYWIDE                         Rick Santorum                         PRECINCT 5                                             01 
01070040006000015REP       President PALO PINTO COUNTYWIDE                         Rick Santorum                         PRECINCT 6                                             01 
01070040007000011REP       President PALO PINTO COUNTYWIDE                         Rick Santorum                         PRECINCT 7                                             01 
01070040008000029REP       President PALO PINTO COUNTYWIDE                         Rick Santorum                         PRECINCT 8                                             01 
01070040009000008REP       President PALO PINTO COUNTYWIDE                         Rick Santorum                         PRECINCT 9                                             01 
01070040010000000REP       President PALO PINTO COUNTYWIDE                         Rick Santorum                         PRECINCT 10                                            01 
01070040011000004REP       President PALO PINTO COUNTYWIDE                         Rick Santorum                         PRECINCT 11                                            01 
01070040012000007REP       President PALO PINTO COUNTYWIDE                         Rick Santorum                         PRECINCT 12                                            01 
01070040013000013REP       President PALO PINTO COUNTYWIDE                         Rick Santorum                         PRECINCT 13                                            01 
01070040014000004REP       President PALO PINTO COUNTYWIDE                         Rick Santorum                         PRECINCT 14                                            01 
01070040015000012REP       President PALO PINTO COUNTYWIDE                         Rick Santorum                         PRECINCT 15                                            01 
01070040016000011REP       President PALO PINTO COUNTYWIDE                         Rick Santorum                         PRECINCT 16                                            01 
01070040017000009REP       President PALO PINTO COUNTYWIDE                         Rick Santorum                         PRECINCT 17                                            01 
01070040018000002REP       President PALO PINTO COUNTYWIDE                         Rick Santorum                         PRECINCT 18                                            01 
01070040019000000REP       President PALO PINTO COUNTYWIDE                         Rick Santorum                         PRECINCT 19                                            01 
01070040020000002REP       President PALO PINTO COUNTYWIDE                         Rick Santorum                         PRECINCT 20                                            01 
01070040021000013REP       President PALO PINTO COUNTYWIDE                         Rick Santorum                         PRECINCT 21                                            01 
01070040022000012REP       President PALO PINTO COUNTYWIDE                         Rick Santorum                         PRECINCT 22                                            01 
01070040023000010REP       President PALO PINTO COUNTYWIDE                         Rick Santorum                         PRECINCT 23                                            01 
01070040024000002REP       President PALO PINTO COUNTYWIDE                         Rick Santorum                         PRECINCT 24                                            01 
01070040025000003REP       President PALO PINTO COUNTYWIDE                         Rick Santorum                         PRECINCT 25                                            01 
01070040026000001REP       President PALO PINTO COUNTYWIDE                         Rick Santorum                         PRECINCT 26                                            01 
01070040027000033REP       President PALO PINTO COUNTYWIDE                         Rick Santorum                         PRECINCT 27                                            01 
01070040028000013REP       President PALO PINTO COUNTYWIDE                         Rick Santorum                         PRECINCT 28                                            01 
01070040029000010REP       President PALO PINTO COUNTYWIDE                         Rick Santorum                         PRECINCT 29                                            01 
01070040030000007REP       President PALO PINTO COUNTYWIDE                         Rick Santorum                         PRECINCT 30                                            01 
01070050001000000REP       President PALO PINTO COUNTYWIDE                         Jon Huntsman                          PRECINCT 1                                             01 
01070050002000000REP       President PALO PINTO COUNTYWIDE                         Jon Huntsman                          PRECINCT 2                                             01 
01070050003000001REP       President PALO PINTO COUNTYWIDE                         Jon Huntsman                          PRECINCT 3                                             01 
01070050004000000REP       President PALO PINTO COUNTYWIDE                         Jon Huntsman                          PRECINCT 4                                             01 
01070050005000000REP       President PALO PINTO COUNTYWIDE                         Jon Huntsman                          PRECINCT 5                                             01 
01070050006000000REP       President PALO PINTO COUNTYWIDE                         Jon Huntsman                          PRECINCT 6                                             01 
01070050007000004REP       President PALO PINTO COUNTYWIDE                         Jon Huntsman                          PRECINCT 7                                             01 
01070050008000001REP       President PALO PINTO COUNTYWIDE                         Jon Huntsman                          PRECINCT 8                                             01 
01070050009000001REP       President PALO PINTO COUNTYWIDE                         Jon Huntsman                          PRECINCT 9                                             01 
01070050010000000REP       President PALO PINTO COUNTYWIDE                         Jon Huntsman                          PRECINCT 10                                            01 
01070050011000000REP       President PALO PINTO COUNTYWIDE                         Jon Huntsman                          PRECINCT 11                                            01 
01070050012000001REP       President PALO PINTO COUNTYWIDE                         Jon Huntsman                          PRECINCT 12                                            01 
01070050013000000REP       President PALO PINTO COUNTYWIDE                         Jon Huntsman                          PRECINCT 13                                            01 
01070050014000000REP       President PALO PINTO COUNTYWIDE                         Jon Huntsman                          PRECINCT 14                                            01 
01070050015000000REP       President PALO PINTO COUNTYWIDE                         Jon Huntsman                          PRECINCT 15                                            01 
01070050016000000REP       President PALO PINTO COUNTYWIDE                         Jon Huntsman                          PRECINCT 16                                            01 
01070050017000000REP       President PALO PINTO COUNTYWIDE                         Jon Huntsman                          PRECINCT 17                                            01 
01070050018000000REP       President PALO PINTO COUNTYWIDE                         Jon Huntsman                          PRECINCT 18                                            01 
01070050019000000REP       President PALO PINTO COUNTYWIDE                         Jon Huntsman                          PRECINCT 19                                            01 
01070050020000000REP       President PALO PINTO COUNTYWIDE                         Jon Huntsman                          PRECINCT 20                                            01 
01070050021000001REP       President PALO PINTO COUNTYWIDE                         Jon Huntsman                          PRECINCT 21                                            01 
01070050022000000REP       President PALO PINTO COUNTYWIDE                         Jon Huntsman                          PRECINCT 22                                            01 
01070050023000002REP       President PALO PINTO COUNTYWIDE                         Jon Huntsman                          PRECINCT 23                                            01 
01070050024000001REP       President PALO PINTO COUNTYWIDE                         Jon Huntsman                          PRECINCT 24                                            01 
01070050025000000REP       President PALO PINTO COUNTYWIDE                         Jon Huntsman                          PRECINCT 25                                            01 
01070050026000000REP       President PALO PINTO COUNTYWIDE                         Jon Huntsman                          PRECINCT 26                                            01 
01070050027000004REP       President PALO PINTO COUNTYWIDE                         Jon Huntsman                          PRECINCT 27                                            01 
01070050028000001REP       President PALO PINTO COUNTYWIDE                         Jon Huntsman                          PRECINCT 28                                            01 
01070050029000001REP       President PALO PINTO COUNTYWIDE                         Jon Huntsman                          PRECINCT 29                                            01 
01070050030000001REP       President PALO PINTO COUNTYWIDE                         Jon Huntsman                          PRECINCT 30                                            01 
01070060001000004REP       President PALO PINTO COUNTYWIDE                         John Davis                            PRECINCT 1                                             01 
01070060002000000REP       President PALO PINTO COUNTYWIDE                         John Davis                            PRECINCT 2                                             01 
01070060003000001REP       President PALO PINTO COUNTYWIDE                         John Davis                            PRECINCT 3                                             01 
01070060004000000REP       President PALO PINTO COUNTYWIDE                         John Davis                            PRECINCT 4                                             01 
01070060005000002REP       President PALO PINTO COUNTYWIDE                         John Davis                            PRECINCT 5                                             01 
01070060006000002REP       President PALO PINTO COUNTYWIDE                         John Davis                            PRECINCT 6                                             01 
01070060007000001REP       President PALO PINTO COUNTYWIDE                         John Davis                            PRECINCT 7                                             01 
01070060008000000REP       President PALO PINTO COUNTYWIDE                         John Davis                            PRECINCT 8                                             01 
01070060009000001REP       President PALO PINTO COUNTYWIDE                         John Davis                            PRECINCT 9                                             01 
01070060010000000REP       President PALO PINTO COUNTYWIDE                         John Davis                            PRECINCT 10                                            01 
01070060011000002REP       President PALO PINTO COUNTYWIDE                         John Davis                            PRECINCT 11                                            01 
01070060012000000REP       President PALO PINTO COUNTYWIDE                         John Davis                            PRECINCT 12                                            01 
01070060013000001REP       President PALO PINTO COUNTYWIDE                         John Davis                            PRECINCT 13                                            01 
01070060014000000REP       President PALO PINTO COUNTYWIDE                         John Davis                            PRECINCT 14                                            01 
01070060015000002REP       President PALO PINTO COUNTYWIDE                         John Davis                            PRECINCT 15                                            01 
01070060016000000REP       President PALO PINTO COUNTYWIDE                         John Davis                            PRECINCT 16                                            01 
01070060017000002REP       President PALO PINTO COUNTYWIDE                         John Davis                            PRECINCT 17                                            01 
01070060018000000REP       President PALO PINTO COUNTYWIDE                         John Davis                            PRECINCT 18                                            01 
01070060019000000REP       President PALO PINTO COUNTYWIDE                         John Davis                            PRECINCT 19                                            01 
01070060020000000REP       President PALO PINTO COUNTYWIDE                         John Davis                            PRECINCT 20                                            01 
01070060021000002REP       President PALO PINTO COUNTYWIDE                         John Davis                            PRECINCT 21                                            01 
01070060022000002REP       President PALO PINTO COUNTYWIDE                         John Davis                            PRECINCT 22                                            01 
01070060023000001REP       President PALO PINTO COUNTYWIDE                         John Davis                            PRECINCT 23                                            01 
01070060024000000REP       President PALO PINTO COUNTYWIDE                         John Davis                            PRECINCT 24                                            01 
01070060025000000REP       President PALO PINTO COUNTYWIDE                         John Davis                            PRECINCT 25                                            01 
01070060026000000REP       President PALO PINTO COUNTYWIDE                         John Davis                            PRECINCT 26                                            01 
01070060027000001REP       President PALO PINTO COUNTYWIDE                         John Davis                            PRECINCT 27                                            01 
01070060028000003REP       President PALO PINTO COUNTYWIDE                         John Davis                            PRECINCT 28                                            01 
01070060029000001REP       President PALO PINTO COUNTYWIDE                         John Davis                            PRECINCT 29                                            01 
01070060030000003REP       President PALO PINTO COUNTYWIDE                         John Davis                            PRECINCT 30                                            01 
01070070001000000REP       President PALO PINTO COUNTYWIDE                         Charles "Buddy" Roemer                PRECINCT 1                                             01 
01070070002000000REP       President PALO PINTO COUNTYWIDE                         Charles "Buddy" Roemer                PRECINCT 2                                             01 
01070070003000002REP       President PALO PINTO COUNTYWIDE                         Charles "Buddy" Roemer                PRECINCT 3                                             01 
01070070004000000REP       President PALO PINTO COUNTYWIDE                         Charles "Buddy" Roemer                PRECINCT 4                                             01 
01070070005000001REP       President PALO PINTO COUNTYWIDE                         Charles "Buddy" Roemer                PRECINCT 5                                             01 
01070070006000001REP       President PALO PINTO COUNTYWIDE                         Charles "Buddy" Roemer                PRECINCT 6                                             01 
01070070007000003REP       President PALO PINTO COUNTYWIDE                         Charles "Buddy" Roemer                PRECINCT 7                                             01 
01070070008000003REP       President PALO PINTO COUNTYWIDE                         Charles "Buddy" Roemer                PRECINCT 8                                             01 
01070070009000001REP       President PALO PINTO COUNTYWIDE                         Charles "Buddy" Roemer                PRECINCT 9                                             01 
01070070010000000REP       President PALO PINTO COUNTYWIDE                         Charles "Buddy" Roemer                PRECINCT 10                                            01 
01070070011000000REP       President PALO PINTO COUNTYWIDE                         Charles "Buddy" Roemer                PRECINCT 11                                            01 
01070070012000001REP       President PALO PINTO COUNTYWIDE                         Charles "Buddy" Roemer                PRECINCT 12                                            01 
01070070013000001REP       President PALO PINTO COUNTYWIDE                         Charles "Buddy" Roemer                PRECINCT 13                                            01 
01070070014000000REP       President PALO PINTO COUNTYWIDE                         Charles "Buddy" Roemer                PRECINCT 14                                            01 
01070070015000000REP       President PALO PINTO COUNTYWIDE                         Charles "Buddy" Roemer                PRECINCT 15                                            01 
01070070016000000REP       President PALO PINTO COUNTYWIDE                         Charles "Buddy" Roemer                PRECINCT 16                                            01 
01070070017000000REP       President PALO PINTO COUNTYWIDE                         Charles "Buddy" Roemer                PRECINCT 17                                            01 
01070070018000000REP       President PALO PINTO COUNTYWIDE                         Charles "Buddy" Roemer                PRECINCT 18                                            01 
01070070019000000REP       President PALO PINTO COUNTYWIDE                         Charles "Buddy" Roemer                PRECINCT 19                                            01 
01070070020000000REP       President PALO PINTO COUNTYWIDE                         Charles "Buddy" Roemer                PRECINCT 20                                            01 
01070070021000000REP       President PALO PINTO COUNTYWIDE                         Charles "Buddy" Roemer                PRECINCT 21                                            01 
01070070022000001REP       President PALO PINTO COUNTYWIDE                         Charles "Buddy" Roemer                PRECINCT 22                                            01 
01070070023000000REP       President PALO PINTO COUNTYWIDE                         Charles "Buddy" Roemer                PRECINCT 23                                            01 
01070070024000001REP       President PALO PINTO COUNTYWIDE                         Charles "Buddy" Roemer                PRECINCT 24                                            01 
01070070025000000REP       President PALO PINTO COUNTYWIDE                         Charles "Buddy" Roemer                PRECINCT 25                                            01 
01070070026000000REP       President PALO PINTO COUNTYWIDE                         Charles "Buddy" Roemer                PRECINCT 26                                            01 
01070070027000001REP       President PALO PINTO COUNTYWIDE                         Charles "Buddy" Roemer                PRECINCT 27                                            01 
01070070028000001REP       President PALO PINTO COUNTYWIDE                         Charles "Buddy" Roemer                PRECINCT 28                                            01 
01070070029000000REP       President PALO PINTO COUNTYWIDE                         Charles "Buddy" Roemer                PRECINCT 29                                            01 
01070070030000000REP       President PALO PINTO COUNTYWIDE                         Charles "Buddy" Roemer                PRECINCT 30                                            01 
01070080001000022REP       President PALO PINTO COUNTYWIDE                         Ron Paul                              PRECINCT 1                                             01 
01070080002000001REP       President PALO PINTO COUNTYWIDE                         Ron Paul                              PRECINCT 2                                             01 
01070080003000017REP       President PALO PINTO COUNTYWIDE                         Ron Paul                              PRECINCT 3                                             01 
01070080004000014REP       President PALO PINTO COUNTYWIDE                         Ron Paul                              PRECINCT 4                                             01 
01070080005000011REP       President PALO PINTO COUNTYWIDE                         Ron Paul                              PRECINCT 5                                             01 
01070080006000028REP       President PALO PINTO COUNTYWIDE                         Ron Paul                              PRECINCT 6                                             01 
01070080007000013REP       President PALO PINTO COUNTYWIDE                         Ron Paul                              PRECINCT 7                                             01 
01070080008000042REP       President PALO PINTO COUNTYWIDE                         Ron Paul                              PRECINCT 8                                             01 
01070080009000006REP       President PALO PINTO COUNTYWIDE                         Ron Paul                              PRECINCT 9                                             01 
01070080010000000REP       President PALO PINTO COUNTYWIDE                         Ron Paul                              PRECINCT 10                                            01 
01070080011000010REP       President PALO PINTO COUNTYWIDE                         Ron Paul                              PRECINCT 11                                            01 
01070080012000012REP       President PALO PINTO COUNTYWIDE                         Ron Paul                              PRECINCT 12                                            01 
01070080013000025REP       President PALO PINTO COUNTYWIDE                         Ron Paul                              PRECINCT 13                                            01 
01070080014000003REP       President PALO PINTO COUNTYWIDE                         Ron Paul                              PRECINCT 14                                            01 
01070080015000013REP       President PALO PINTO COUNTYWIDE                         Ron Paul                              PRECINCT 15                                            01 
01070080016000015REP       President PALO PINTO COUNTYWIDE                         Ron Paul                              PRECINCT 16                                            01 
01070080017000012REP       President PALO PINTO COUNTYWIDE                         Ron Paul                              PRECINCT 17                                            01 
01070080018000006REP       President PALO PINTO COUNTYWIDE                         Ron Paul                              PRECINCT 18                                            01 
01070080019000000REP       President PALO PINTO COUNTYWIDE                         Ron Paul                              PRECINCT 19                                            01 
01070080020000002REP       President PALO PINTO COUNTYWIDE                         Ron Paul                              PRECINCT 20                                            01 
01070080021000018REP       President PALO PINTO COUNTYWIDE                         Ron Paul                              PRECINCT 21                                            01 
01070080022000036REP       President PALO PINTO COUNTYWIDE                         Ron Paul                              PRECINCT 22                                            01 
01070080023000027REP       President PALO PINTO COUNTYWIDE                         Ron Paul                              PRECINCT 23                                            01 
01070080024000004REP       President PALO PINTO COUNTYWIDE                         Ron Paul                              PRECINCT 24                                            01 
01070080025000005REP       President PALO PINTO COUNTYWIDE                         Ron Paul                              PRECINCT 25                                            01 
01070080026000000REP       President PALO PINTO COUNTYWIDE                         Ron Paul                              PRECINCT 26                                            01 
01070080027000064REP       President PALO PINTO COUNTYWIDE                         Ron Paul                              PRECINCT 27                                            01 
01070080028000019REP       President PALO PINTO COUNTYWIDE                         Ron Paul                              PRECINCT 28                                            01 
01070080029000024REP       President PALO PINTO COUNTYWIDE                         Ron Paul                              PRECINCT 29                                            01 
01070080030000011REP       President PALO PINTO COUNTYWIDE                         Ron Paul                              PRECINCT 30                                            01 
01070090001000011REP       President PALO PINTO COUNTYWIDE                         Uncommitted (No Comprometido)         PRECINCT 1                                             01 
01070090002000005REP       President PALO PINTO COUNTYWIDE                         Uncommitted (No Comprometido)         PRECINCT 2                                             01 
01070090003000008REP       President PALO PINTO COUNTYWIDE                         Uncommitted (No Comprometido)         PRECINCT 3                                             01 
01070090004000006REP       President PALO PINTO COUNTYWIDE                         Uncommitted (No Comprometido)         PRECINCT 4                                             01 
01070090005000022REP       President PALO PINTO COUNTYWIDE                         Uncommitted (No Comprometido)         PRECINCT 5                                             01 
01070090006000016REP       President PALO PINTO COUNTYWIDE                         Uncommitted (No Comprometido)         PRECINCT 6                                             01 
01070090007000016REP       President PALO PINTO COUNTYWIDE                         Uncommitted (No Comprometido)         PRECINCT 7                                             01 
01070090008000024REP       President PALO PINTO COUNTYWIDE                         Uncommitted (No Comprometido)         PRECINCT 8                                             01 
01070090009000002REP       President PALO PINTO COUNTYWIDE                         Uncommitted (No Comprometido)         PRECINCT 9                                             01 
01070090010000000REP       President PALO PINTO COUNTYWIDE                         Uncommitted (No Comprometido)         PRECINCT 10                                            01 
01070090011000006REP       President PALO PINTO COUNTYWIDE                         Uncommitted (No Comprometido)         PRECINCT 11                                            01 
01070090012000007REP       President PALO PINTO COUNTYWIDE                         Uncommitted (No Comprometido)         PRECINCT 12                                            01 
01070090013000014REP       President PALO PINTO COUNTYWIDE                         Uncommitted (No Comprometido)         PRECINCT 13                                            01 
01070090014000003REP       President PALO PINTO COUNTYWIDE                         Uncommitted (No Comprometido)         PRECINCT 14                                            01 
01070090015000007REP       President PALO PINTO COUNTYWIDE                         Uncommitted (No Comprometido)         PRECINCT 15                                            01 
01070090016000011REP       President PALO PINTO COUNTYWIDE                         Uncommitted (No Comprometido)         PRECINCT 16                                            01 
01070090017000009REP       President PALO PINTO COUNTYWIDE                         Uncommitted (No Comprometido)         PRECINCT 17                                            01 
01070090018000005REP       President PALO PINTO COUNTYWIDE                         Uncommitted (No Comprometido)         PRECINCT 18                                            01 
01070090019000000REP       President PALO PINTO COUNTYWIDE                         Uncommitted (No Comprometido)         PRECINCT 19                                            01 
01070090020000002REP       President PALO PINTO COUNTYWIDE                         Uncommitted (No Comprometido)         PRECINCT 20                                            01 
01070090021000017REP       President PALO PINTO COUNTYWIDE                         Uncommitted (No Comprometido)         PRECINCT 21                                            01 
01070090022000006REP       President PALO PINTO COUNTYWIDE                         Uncommitted (No Comprometido)         PRECINCT 22                                            01 
01070090023000028REP       President PALO PINTO COUNTYWIDE                         Uncommitted (No Comprometido)         PRECINCT 23                                            01 
01070090024000002REP       President PALO PINTO COUNTYWIDE                         Uncommitted (No Comprometido)         PRECINCT 24                                            01 
01070090025000001REP       President PALO PINTO COUNTYWIDE                         Uncommitted (No Comprometido)         PRECINCT 25                                            01 
01070090026000001REP       President PALO PINTO COUNTYWIDE                         Uncommitted (No Comprometido)         PRECINCT 26                                            01 
01070090027000029REP       President PALO PINTO COUNTYWIDE                         Uncommitted (No Comprometido)         PRECINCT 27                                            01 
01070090028000010REP       President PALO PINTO COUNTYWIDE                         Uncommitted (No Comprometido)         PRECINCT 28                                            01 
01070090029000017REP       President PALO PINTO COUNTYWIDE                         Uncommitted (No Comprometido)         PRECINCT 29                                            01 
01070090030000013REP       President PALO PINTO COUNTYWIDE                         Uncommitted (No Comprometido)         PRECINCT 30                                            01 
01070100001000000REP       President PALO PINTO COUNTYWIDE                         OVER VOTES                            PRECINCT 1                                             01 
01070100002000000REP       President PALO PINTO COUNTYWIDE                         OVER VOTES                            PRECINCT 2                                             01 
01070100003000000REP       President PALO PINTO COUNTYWIDE                         OVER VOTES                            PRECINCT 3                                             01 
01070100004000000REP       President PALO PINTO COUNTYWIDE                         OVER VOTES                            PRECINCT 4                                             01 
01070100005000000REP       President PALO PINTO COUNTYWIDE                         OVER VOTES                            PRECINCT 5                                             01 
01070100006000000REP       President PALO PINTO COUNTYWIDE                         OVER VOTES                            PRECINCT 6                                             01 
01070100007000000REP       President PALO PINTO COUNTYWIDE                         OVER VOTES                            PRECINCT 7                                             01 
01070100008000000REP       President PALO PINTO COUNTYWIDE                         OVER VOTES                            PRECINCT 8                                             01 
01070100009000000REP       President PALO PINTO COUNTYWIDE                         OVER VOTES                            PRECINCT 9                                             01 
01070100010000000REP       President PALO PINTO COUNTYWIDE                         OVER VOTES                            PRECINCT 10                                            01 
01070100011000000REP       President PALO PINTO COUNTYWIDE                         OVER VOTES                            PRECINCT 11                                            01 
01070100012000000REP       President PALO PINTO COUNTYWIDE                         OVER VOTES                            PRECINCT 12                                            01 
01070100013000000REP       President PALO PINTO COUNTYWIDE                         OVER VOTES                            PRECINCT 13                                            01 
01070100014000000REP       President PALO PINTO COUNTYWIDE                         OVER VOTES                            PRECINCT 14                                            01 
01070100015000000REP       President PALO PINTO COUNTYWIDE                         OVER VOTES                            PRECINCT 15                                            01 
01070100016000000REP       President PALO PINTO COUNTYWIDE                         OVER VOTES                            PRECINCT 16                                            01 
01070100017000000REP       President PALO PINTO COUNTYWIDE                         OVER VOTES                            PRECINCT 17                                            01 
01070100018000000REP       President PALO PINTO COUNTYWIDE                         OVER VOTES                            PRECINCT 18                                            01 
01070100019000000REP       President PALO PINTO COUNTYWIDE                         OVER VOTES                            PRECINCT 19                                            01 
01070100020000000REP       President PALO PINTO COUNTYWIDE                         OVER VOTES                            PRECINCT 20                                            01 
01070100021000000REP       President PALO PINTO COUNTYWIDE                         OVER VOTES                            PRECINCT 21                                            01 
01070100022000000REP       President PALO PINTO COUNTYWIDE                         OVER VOTES                            PRECINCT 22                                            01 
01070100023000000REP       President PALO PINTO COUNTYWIDE                         OVER VOTES                            PRECINCT 23                                            01 
01070100024000000REP       President PALO PINTO COUNTYWIDE                         OVER VOTES                            PRECINCT 24                                            01 
01070100025000000REP       President PALO PINTO COUNTYWIDE                         OVER VOTES                            PRECINCT 25                                            01 
01070100026000000REP       President PALO PINTO COUNTYWIDE                         OVER VOTES                            PRECINCT 26                                            01 
01070100027000000REP       President PALO PINTO COUNTYWIDE                         OVER VOTES                            PRECINCT 27                                            01 
01070100028000000REP       President PALO PINTO COUNTYWIDE                         OVER VOTES                            PRECINCT 28                                            01 
01070100029000000REP       President PALO PINTO COUNTYWIDE                         OVER VOTES                            PRECINCT 29                                            01 
01070100030000000REP       President PALO PINTO COUNTYWIDE                         OVER VOTES                            PRECINCT 30                                            01 
01070110001000024REP       President PALO PINTO COUNTYWIDE                         UNDER VOTES                           PRECINCT 1                                             01 
01070110002000000REP       President PALO PINTO COUNTYWIDE                         UNDER VOTES                           PRECINCT 2                                             01 
01070110003000008REP       President PALO PINTO COUNTYWIDE                         UNDER VOTES                           PRECINCT 3                                             01 
01070110004000003REP       President PALO PINTO COUNTYWIDE                         UNDER VOTES                           PRECINCT 4                                             01 
01070110005000031REP       President PALO PINTO COUNTYWIDE                         UNDER VOTES                           PRECINCT 5                                             01 
01070110006000015REP       President PALO PINTO COUNTYWIDE                         UNDER VOTES                           PRECINCT 6                                             01 
01070110007000021REP       President PALO PINTO COUNTYWIDE                         UNDER VOTES                           PRECINCT 7                                             01 
01070110008000021REP       President PALO PINTO COUNTYWIDE                         UNDER VOTES                           PRECINCT 8                                             01 
01070110009000002REP       President PALO PINTO COUNTYWIDE                         UNDER VOTES                           PRECINCT 9                                             01 
01070110010000000REP       President PALO PINTO COUNTYWIDE                         UNDER VOTES                           PRECINCT 10                                            01 
01070110011000004REP       President PALO PINTO COUNTYWIDE                         UNDER VOTES                           PRECINCT 11                                            01 
01070110012000004REP       President PALO PINTO COUNTYWIDE                         UNDER VOTES                           PRECINCT 12                                            01 
01070110013000008REP       President PALO PINTO COUNTYWIDE                         UNDER VOTES                           PRECINCT 13                                            01 
01070110014000002REP       President PALO PINTO COUNTYWIDE                         UNDER VOTES                           PRECINCT 14                                            01 
01070110015000008REP       President PALO PINTO COUNTYWIDE                         UNDER VOTES                           PRECINCT 15                                            01 
01070110016000017REP       President PALO PINTO COUNTYWIDE                         UNDER VOTES                           PRECINCT 16                                            01 
01070110017000006REP       President PALO PINTO COUNTYWIDE                         UNDER VOTES                           PRECINCT 17                                            01 
01070110018000005REP       President PALO PINTO COUNTYWIDE                         UNDER VOTES                           PRECINCT 18                                            01 
01070110019000000REP       President PALO PINTO COUNTYWIDE                         UNDER VOTES                           PRECINCT 19                                            01 
01070110020000001REP       President PALO PINTO COUNTYWIDE                         UNDER VOTES                           PRECINCT 20                                            01 
01070110021000013REP       President PALO PINTO COUNTYWIDE                         UNDER VOTES                           PRECINCT 21                                            01 
01070110022000014REP       President PALO PINTO COUNTYWIDE                         UNDER VOTES                           PRECINCT 22                                            01 
01070110023000008REP       President PALO PINTO COUNTYWIDE                         UNDER VOTES                           PRECINCT 23                                            01 
01070110024000003REP       President PALO PINTO COUNTYWIDE                         UNDER VOTES                           PRECINCT 24                                            01 
01070110025000001REP       President PALO PINTO COUNTYWIDE                         UNDER VOTES                           PRECINCT 25                                            01 
01070110026000001REP       President PALO PINTO COUNTYWIDE                         UNDER VOTES                           PRECINCT 26                                            01 
01070110027000025REP       President PALO PINTO COUNTYWIDE                         UNDER VOTES                           PRECINCT 27                                            01 
01070110028000012REP       President PALO PINTO COUNTYWIDE                         UNDER VOTES                           PRECINCT 28                                            01 
01070110029000007REP       President PALO PINTO COUNTYWIDE                         UNDER VOTES                           PRECINCT 29                                            01 
01070110030000010REP       President PALO PINTO COUNTYWIDE                         UNDER VOTES                           PRECINCT 30                                            01 
01080010001000049REP       US Senator PALO PINTO COUNTYWIDE                        Ted Cruz                              PRECINCT 1                                             01 
01080010002000004REP       US Senator PALO PINTO COUNTYWIDE                        Ted Cruz                              PRECINCT 2                                             01 
01080010003000068REP       US Senator PALO PINTO COUNTYWIDE                        Ted Cruz                              PRECINCT 3                                             01 
01080010004000022REP       US Senator PALO PINTO COUNTYWIDE                        Ted Cruz                              PRECINCT 4                                             01 
01080010005000037REP       US Senator PALO PINTO COUNTYWIDE                        Ted Cruz                              PRECINCT 5                                             01 
01080010006000056REP       US Senator PALO PINTO COUNTYWIDE                        Ted Cruz                              PRECINCT 6                                             01 
01080010007000036REP       US Senator PALO PINTO COUNTYWIDE                        Ted Cruz                              PRECINCT 7                                             01 
01080010008000106REP       US Senator PALO PINTO COUNTYWIDE                        Ted Cruz                              PRECINCT 8                                             01 
01080010009000022REP       US Senator PALO PINTO COUNTYWIDE                        Ted Cruz                              PRECINCT 9                                             01 
01080010010000000REP       US Senator PALO PINTO COUNTYWIDE                        Ted Cruz                              PRECINCT 10                                            01 
01080010011000010REP       US Senator PALO PINTO COUNTYWIDE                        Ted Cruz                              PRECINCT 11                                            01 
01080010012000022REP       US Senator PALO PINTO COUNTYWIDE                        Ted Cruz                              PRECINCT 12                                            01 
01080010013000042REP       US Senator PALO PINTO COUNTYWIDE                        Ted Cruz                              PRECINCT 13                                            01 
01080010014000008REP       US Senator PALO PINTO COUNTYWIDE                        Ted Cruz                              PRECINCT 14                                            01 
01080010015000061REP       US Senator PALO PINTO COUNTYWIDE                        Ted Cruz                              PRECINCT 15                                            01 
01080010016000048REP       US Senator PALO PINTO COUNTYWIDE                        Ted Cruz                              PRECINCT 16                                            01 
01080010017000012REP       US Senator PALO PINTO COUNTYWIDE                        Ted Cruz                              PRECINCT 17                                            01 
01080010018000009REP       US Senator PALO PINTO COUNTYWIDE                        Ted Cruz                              PRECINCT 18                                            01 
01080010019000000REP       US Senator PALO PINTO COUNTYWIDE                        Ted Cruz                              PRECINCT 19                                            01 
01080010020000023REP       US Senator PALO PINTO COUNTYWIDE                        Ted Cruz                              PRECINCT 20                                            01 
01080010021000044REP       US Senator PALO PINTO COUNTYWIDE                        Ted Cruz                              PRECINCT 21                                            01 
01080010022000046REP       US Senator PALO PINTO COUNTYWIDE                        Ted Cruz                              PRECINCT 22                                            01 
01080010023000072REP       US Senator PALO PINTO COUNTYWIDE                        Ted Cruz                              PRECINCT 23                                            01 
01080010024000004REP       US Senator PALO PINTO COUNTYWIDE                        Ted Cruz                              PRECINCT 24                                            01 
01080010025000003REP       US Senator PALO PINTO COUNTYWIDE                        Ted Cruz                              PRECINCT 25                                            01 
01080010026000002REP       US Senator PALO PINTO COUNTYWIDE                        Ted Cruz                              PRECINCT 26                                            01 
01080010027000099REP       US Senator PALO PINTO COUNTYWIDE                        Ted Cruz                              PRECINCT 27                                            01 
01080010028000035REP       US Senator PALO PINTO COUNTYWIDE                        Ted Cruz                              PRECINCT 28                                            01 
01080010029000043REP       US Senator PALO PINTO COUNTYWIDE                        Ted Cruz                              PRECINCT 29                                            01 
01080010030000033REP       US Senator PALO PINTO COUNTYWIDE                        Ted Cruz                              PRECINCT 30                                            01 
01080020001000019REP       US Senator PALO PINTO COUNTYWIDE                        Craig James                           PRECINCT 1                                             01 
01080020002000001REP       US Senator PALO PINTO COUNTYWIDE                        Craig James                           PRECINCT 2                                             01 
01080020003000011REP       US Senator PALO PINTO COUNTYWIDE                        Craig James                           PRECINCT 3                                             01 
01080020004000008REP       US Senator PALO PINTO COUNTYWIDE                        Craig James                           PRECINCT 4                                             01 
01080020005000010REP       US Senator PALO PINTO COUNTYWIDE                        Craig James                           PRECINCT 5                                             01 
01080020006000019REP       US Senator PALO PINTO COUNTYWIDE                        Craig James                           PRECINCT 6                                             01 
01080020007000017REP       US Senator PALO PINTO COUNTYWIDE                        Craig James                           PRECINCT 7                                             01 
01080020008000027REP       US Senator PALO PINTO COUNTYWIDE                        Craig James                           PRECINCT 8                                             01 
01080020009000004REP       US Senator PALO PINTO COUNTYWIDE                        Craig James                           PRECINCT 9                                             01 
01080020010000000REP       US Senator PALO PINTO COUNTYWIDE                        Craig James                           PRECINCT 10                                            01 
01080020011000008REP       US Senator PALO PINTO COUNTYWIDE                        Craig James                           PRECINCT 11                                            01 
01080020012000005REP       US Senator PALO PINTO COUNTYWIDE                        Craig James                           PRECINCT 12                                            01 
01080020013000017REP       US Senator PALO PINTO COUNTYWIDE                        Craig James                           PRECINCT 13                                            01 
01080020014000005REP       US Senator PALO PINTO COUNTYWIDE                        Craig James                           PRECINCT 14                                            01 
01080020015000010REP       US Senator PALO PINTO COUNTYWIDE                        Craig James                           PRECINCT 15                                            01 
01080020016000011REP       US Senator PALO PINTO COUNTYWIDE                        Craig James                           PRECINCT 16                                            01 
01080020017000009REP       US Senator PALO PINTO COUNTYWIDE                        Craig James                           PRECINCT 17                                            01 
01080020018000002REP       US Senator PALO PINTO COUNTYWIDE                        Craig James                           PRECINCT 18                                            01 
01080020019000000REP       US Senator PALO PINTO COUNTYWIDE                        Craig James                           PRECINCT 19                                            01 
01080020020000001REP       US Senator PALO PINTO COUNTYWIDE                        Craig James                           PRECINCT 20                                            01 
01080020021000018REP       US Senator PALO PINTO COUNTYWIDE                        Craig James                           PRECINCT 21                                            01 
01080020022000019REP       US Senator PALO PINTO COUNTYWIDE                        Craig James                           PRECINCT 22                                            01 
01080020023000029REP       US Senator PALO PINTO COUNTYWIDE                        Craig James                           PRECINCT 23                                            01 
01080020024000004REP       US Senator PALO PINTO COUNTYWIDE                        Craig James                           PRECINCT 24                                            01 
01080020025000003REP       US Senator PALO PINTO COUNTYWIDE                        Craig James                           PRECINCT 25                                            01 
01080020026000002REP       US Senator PALO PINTO COUNTYWIDE                        Craig James                           PRECINCT 26                                            01 
01080020027000044REP       US Senator PALO PINTO COUNTYWIDE                        Craig James                           PRECINCT 27                                            01 
01080020028000006REP       US Senator PALO PINTO COUNTYWIDE                        Craig James                           PRECINCT 28                                            01 
01080020029000016REP       US Senator PALO PINTO COUNTYWIDE                        Craig James                           PRECINCT 29                                            01 
01080020030000010REP       US Senator PALO PINTO COUNTYWIDE                        Craig James                           PRECINCT 30                                            01 
01080030001000001REP       US Senator PALO PINTO COUNTYWIDE                        Curt Cleaver                          PRECINCT 1                                             01 
01080030002000001REP       US Senator PALO PINTO COUNTYWIDE                        Curt Cleaver                          PRECINCT 2                                             01 
01080030003000001REP       US Senator PALO PINTO COUNTYWIDE                        Curt Cleaver                          PRECINCT 3                                             01 
01080030004000000REP       US Senator PALO PINTO COUNTYWIDE                        Curt Cleaver                          PRECINCT 4                                             01 
01080030005000000REP       US Senator PALO PINTO COUNTYWIDE                        Curt Cleaver                          PRECINCT 5                                             01 
01080030006000000REP       US Senator PALO PINTO COUNTYWIDE                        Curt Cleaver                          PRECINCT 6                                             01 
01080030007000003REP       US Senator PALO PINTO COUNTYWIDE                        Curt Cleaver                          PRECINCT 7                                             01 
01080030008000002REP       US Senator PALO PINTO COUNTYWIDE                        Curt Cleaver                          PRECINCT 8                                             01 
01080030009000000REP       US Senator PALO PINTO COUNTYWIDE                        Curt Cleaver                          PRECINCT 9                                             01 
01080030010000000REP       US Senator PALO PINTO COUNTYWIDE                        Curt Cleaver                          PRECINCT 10                                            01 
01080030011000000REP       US Senator PALO PINTO COUNTYWIDE                        Curt Cleaver                          PRECINCT 11                                            01 
01080030012000000REP       US Senator PALO PINTO COUNTYWIDE                        Curt Cleaver                          PRECINCT 12                                            01 
01080030013000002REP       US Senator PALO PINTO COUNTYWIDE                        Curt Cleaver                          PRECINCT 13                                            01 
01080030014000000REP       US Senator PALO PINTO COUNTYWIDE                        Curt Cleaver                          PRECINCT 14                                            01 
01080030015000000REP       US Senator PALO PINTO COUNTYWIDE                        Curt Cleaver                          PRECINCT 15                                            01 
01080030016000001REP       US Senator PALO PINTO COUNTYWIDE                        Curt Cleaver                          PRECINCT 16                                            01 
01080030017000002REP       US Senator PALO PINTO COUNTYWIDE                        Curt Cleaver                          PRECINCT 17                                            01 
01080030018000000REP       US Senator PALO PINTO COUNTYWIDE                        Curt Cleaver                          PRECINCT 18                                            01 
01080030019000000REP       US Senator PALO PINTO COUNTYWIDE                        Curt Cleaver                          PRECINCT 19                                            01 
01080030020000000REP       US Senator PALO PINTO COUNTYWIDE                        Curt Cleaver                          PRECINCT 20                                            01 
01080030021000000REP       US Senator PALO PINTO COUNTYWIDE                        Curt Cleaver                          PRECINCT 21                                            01 
01080030022000002REP       US Senator PALO PINTO COUNTYWIDE                        Curt Cleaver                          PRECINCT 22                                            01 
01080030023000004REP       US Senator PALO PINTO COUNTYWIDE                        Curt Cleaver                          PRECINCT 23                                            01 
01080030024000001REP       US Senator PALO PINTO COUNTYWIDE                        Curt Cleaver                          PRECINCT 24                                            01 
01080030025000000REP       US Senator PALO PINTO COUNTYWIDE                        Curt Cleaver                          PRECINCT 25                                            01 
01080030026000000REP       US Senator PALO PINTO COUNTYWIDE                        Curt Cleaver                          PRECINCT 26                                            01 
01080030027000000REP       US Senator PALO PINTO COUNTYWIDE                        Curt Cleaver                          PRECINCT 27                                            01 
01080030028000000REP       US Senator PALO PINTO COUNTYWIDE                        Curt Cleaver                          PRECINCT 28                                            01 
01080030029000002REP       US Senator PALO PINTO COUNTYWIDE                        Curt Cleaver                          PRECINCT 29                                            01 
01080030030000000REP       US Senator PALO PINTO COUNTYWIDE                        Curt Cleaver                          PRECINCT 30                                            01 
01080040001000052REP       US Senator PALO PINTO COUNTYWIDE                        Tom Leppert                           PRECINCT 1                                             01 
01080040002000001REP       US Senator PALO PINTO COUNTYWIDE                        Tom Leppert                           PRECINCT 2                                             01 
01080040003000050REP       US Senator PALO PINTO COUNTYWIDE                        Tom Leppert                           PRECINCT 3                                             01 
01080040004000018REP       US Senator PALO PINTO COUNTYWIDE                        Tom Leppert                           PRECINCT 4                                             01 
01080040005000027REP       US Senator PALO PINTO COUNTYWIDE                        Tom Leppert                           PRECINCT 5                                             01 
01080040006000043REP       US Senator PALO PINTO COUNTYWIDE                        Tom Leppert                           PRECINCT 6                                             01 
01080040007000027REP       US Senator PALO PINTO COUNTYWIDE                        Tom Leppert                           PRECINCT 7                                             01 
01080040008000077REP       US Senator PALO PINTO COUNTYWIDE                        Tom Leppert                           PRECINCT 8                                             01 
01080040009000024REP       US Senator PALO PINTO COUNTYWIDE                        Tom Leppert                           PRECINCT 9                                             01 
01080040010000000REP       US Senator PALO PINTO COUNTYWIDE                        Tom Leppert                           PRECINCT 10                                            01 
01080040011000016REP       US Senator PALO PINTO COUNTYWIDE                        Tom Leppert                           PRECINCT 11                                            01 
01080040012000026REP       US Senator PALO PINTO COUNTYWIDE                        Tom Leppert                           PRECINCT 12                                            01 
