01010010001000512          REGISTERED VOTERS - TOTAL                               REGISTERED VOTERS - TOTAL             PRECINCT 1                                             00 
01010010002000028          REGISTERED VOTERS - TOTAL                               REGISTERED VOTERS - TOTAL             PRECINCT 2                                             00 
01010010003000787          REGISTERED VOTERS - TOTAL                               REGISTERED VOTERS - TOTAL             PRECINCT 3                                             00 
01010010004000424          REGISTERED VOTERS - TOTAL                               REGISTERED VOTERS - TOTAL             PRECINCT 4                                             00 
01010010005000491          REGISTERED VOTERS - TOTAL                               REGISTERED VOTERS - TOTAL             PRECINCT 5                                             00 
01010010006000775          REGISTERED VOTERS - TOTAL                               REGISTERED VOTERS - TOTAL             PRECINCT 6                                             00 
01010010007000562          REGISTERED VOTERS - TOTAL                               REGISTERED VOTERS - TOTAL             PRECINCT 7                                             00 
01010010008001420          REGISTERED VOTERS - TOTAL                               REGISTERED VOTERS - TOTAL             PRECINCT 8                                             00 
01010010009000297          REGISTERED VOTERS - TOTAL                               REGISTERED VOTERS - TOTAL             PRECINCT 9                                             00 
01010010010000000          REGISTERED VOTERS - TOTAL                               REGISTERED VOTERS - TOTAL             PRECINCT 10                                            00 
01010010011000267          REGISTERED VOTERS - TOTAL                               REGISTERED VOTERS - TOTAL             PRECINCT 11                                            00 
01010010012000420          REGISTERED VOTERS - TOTAL                               REGISTERED VOTERS - TOTAL             PRECINCT 12                                            00 
01010010013000643          REGISTERED VOTERS - TOTAL                               REGISTERED VOTERS - TOTAL             PRECINCT 13                                            00 
01010010014000176          REGISTERED VOTERS - TOTAL                               REGISTERED VOTERS - TOTAL             PRECINCT 14                                            00 
01010010015000799          REGISTERED VOTERS - TOTAL                               REGISTERED VOTERS - TOTAL             PRECINCT 15                                            00 
01010010016000384          REGISTERED VOTERS - TOTAL                               REGISTERED VOTERS - TOTAL             PRECINCT 16                                            00 
01010010017000628          REGISTERED VOTERS - TOTAL                               REGISTERED VOTERS - TOTAL             PRECINCT 17                                            00 
01010010018000169          REGISTERED VOTERS - TOTAL                               REGISTERED VOTERS - TOTAL             PRECINCT 18                                            00 
01010010019000000          REGISTERED VOTERS - TOTAL                               REGISTERED VOTERS - TOTAL             PRECINCT 19                                            00 
01010010020000154          REGISTERED VOTERS - TOTAL                               REGISTERED VOTERS - TOTAL             PRECINCT 20                                            00 
01010010021000848          REGISTERED VOTERS - TOTAL                               REGISTERED VOTERS - TOTAL             PRECINCT 21                                            00 
01010010022000879          REGISTERED VOTERS - TOTAL                               REGISTERED VOTERS - TOTAL             PRECINCT 22                                            00 
01010010023001478          REGISTERED VOTERS - TOTAL                               REGISTERED VOTERS - TOTAL             PRECINCT 23                                            00 
01010010024000180          REGISTERED VOTERS - TOTAL                               REGISTERED VOTERS - TOTAL             PRECINCT 24                                            00 
01010010025000164          REGISTERED VOTERS - TOTAL                               REGISTERED VOTERS - TOTAL             PRECINCT 25                                            00 
01010010026000106          REGISTERED VOTERS - TOTAL                               REGISTERED VOTERS - TOTAL             PRECINCT 26                                            00 
01010010027001636          REGISTERED VOTERS - TOTAL                               REGISTERED VOTERS - TOTAL             PRECINCT 27                                            00 
01010010028001017          REGISTERED VOTERS - TOTAL                               REGISTERED VOTERS - TOTAL             PRECINCT 28                                            00 
01010010029001003          REGISTERED VOTERS - TOTAL                               REGISTERED VOTERS - TOTAL             PRECINCT 29                                            00 
01010010030000733          REGISTERED VOTERS - TOTAL                               REGISTERED VOTERS - TOTAL             PRECINCT 30                                            00 
01030010001000000DEM       REGISTERED VOTERS - DEMOCRATIC PARTY                    REGISTERED VOTERS - DEMOCRATIC PARTY  PRECINCT 1                                             00 
01030010002000000DEM       REGISTERED VOTERS - DEMOCRATIC PARTY                    REGISTERED VOTERS - DEMOCRATIC PARTY  PRECINCT 2                                             00 
01030010003000000DEM       REGISTERED VOTERS - DEMOCRATIC PARTY                    REGISTERED VOTERS - DEMOCRATIC PARTY  PRECINCT 3                                             00 
01030010004000000DEM       REGISTERED VOTERS - DEMOCRATIC PARTY                    REGISTERED VOTERS - DEMOCRATIC PARTY  PRECINCT 4                                             00 
01030010005000000DEM       REGISTERED VOTERS - DEMOCRATIC PARTY                    REGISTERED VOTERS - DEMOCRATIC PARTY  PRECINCT 5                                             00 
01030010006000000DEM       REGISTERED VOTERS - DEMOCRATIC PARTY                    REGISTERED VOTERS - DEMOCRATIC PARTY  PRECINCT 6                                             00 
01030010007000000DEM       REGISTERED VOTERS - DEMOCRATIC PARTY                    REGISTERED VOTERS - DEMOCRATIC PARTY  PRECINCT 7                                             00 
01030010008000000DEM       REGISTERED VOTERS - DEMOCRATIC PARTY                    REGISTERED VOTERS - DEMOCRATIC PARTY  PRECINCT 8                                             00 
01030010009000000DEM       REGISTERED VOTERS - DEMOCRATIC PARTY                    REGISTERED VOTERS - DEMOCRATIC PARTY  PRECINCT 9                                             00 
01030010010000000DEM       REGISTERED VOTERS - DEMOCRATIC PARTY                    REGISTERED VOTERS - DEMOCRATIC PARTY  PRECINCT 10                                            00 
01030010011000000DEM       REGISTERED VOTERS - DEMOCRATIC PARTY                    REGISTERED VOTERS - DEMOCRATIC PARTY  PRECINCT 11                                            00 
01030010012000000DEM       REGISTERED VOTERS - DEMOCRATIC PARTY                    REGISTERED VOTERS - DEMOCRATIC PARTY  PRECINCT 12                                            00 
01030010013000000DEM       REGISTERED VOTERS - DEMOCRATIC PARTY                    REGISTERED VOTERS - DEMOCRATIC PARTY  PRECINCT 13                                            00 
01030010014000000DEM       REGISTERED VOTERS - DEMOCRATIC PARTY                    REGISTERED VOTERS - DEMOCRATIC PARTY  PRECINCT 14                                            00 
01030010015000000DEM       REGISTERED VOTERS - DEMOCRATIC PARTY                    REGISTERED VOTERS - DEMOCRATIC PARTY  PRECINCT 15                                            00 
01030010016000000DEM       REGISTERED VOTERS - DEMOCRATIC PARTY                    REGISTERED VOTERS - DEMOCRATIC PARTY  PRECINCT 16                                            00 
01030010017000000DEM       REGISTERED VOTERS - DEMOCRATIC PARTY                    REGISTERED VOTERS - DEMOCRATIC PARTY  PRECINCT 17                                            00 
01030010018000000DEM       REGISTERED VOTERS - DEMOCRATIC PARTY                    REGISTERED VOTERS - DEMOCRATIC PARTY  PRECINCT 18                                            00 
01030010019000000DEM       REGISTERED VOTERS - DEMOCRATIC PARTY                    REGISTERED VOTERS - DEMOCRATIC PARTY  PRECINCT 19                                            00 
01030010020000000DEM       REGISTERED VOTERS - DEMOCRATIC PARTY                    REGISTERED VOTERS - DEMOCRATIC PARTY  PRECINCT 20                                            00 
01030010021000000DEM       REGISTERED VOTERS - DEMOCRATIC PARTY                    REGISTERED VOTERS - DEMOCRATIC PARTY  PRECINCT 21                                            00 
01030010022000000DEM       REGISTERED VOTERS - DEMOCRATIC PARTY                    REGISTERED VOTERS - DEMOCRATIC PARTY  PRECINCT 22                                            00 
01030010023000000DEM       REGISTERED VOTERS - DEMOCRATIC PARTY                    REGISTERED VOTERS - DEMOCRATIC PARTY  PRECINCT 23                                            00 
01030010024000000DEM       REGISTERED VOTERS - DEMOCRATIC PARTY                    REGISTERED VOTERS - DEMOCRATIC PARTY  PRECINCT 24                                            00 
01030010025000000DEM       REGISTERED VOTERS - DEMOCRATIC PARTY                    REGISTERED VOTERS - DEMOCRATIC PARTY  PRECINCT 25                                            00 
01030010026000000DEM       REGISTERED VOTERS - DEMOCRATIC PARTY                    REGISTERED VOTERS - DEMOCRATIC PARTY  PRECINCT 26                                            00 
01030010027000000DEM       REGISTERED VOTERS - DEMOCRATIC PARTY                    REGISTERED VOTERS - DEMOCRATIC PARTY  PRECINCT 27                                            00 
01030010028000000DEM       REGISTERED VOTERS - DEMOCRATIC PARTY                    REGISTERED VOTERS - DEMOCRATIC PARTY  PRECINCT 28                                            00 
01030010029000000DEM       REGISTERED VOTERS - DEMOCRATIC PARTY                    REGISTERED VOTERS - DEMOCRATIC PARTY  PRECINCT 29                                            00 
01030010030000000DEM       REGISTERED VOTERS - DEMOCRATIC PARTY                    REGISTERED VOTERS - DEMOCRATIC PARTY  PRECINCT 30                                            00 
01040010001000242          BALLOTS CAST - TOTAL                                    BALLOTS CAST - TOTAL                  PRECINCT 1                                             00 
01040010002000012          BALLOTS CAST - TOTAL                                    BALLOTS CAST - TOTAL                  PRECINCT 2                                             00 
01040010003000216          BALLOTS CAST - TOTAL                                    BALLOTS CAST - TOTAL                  PRECINCT 3                                             00 
01040010004000096          BALLOTS CAST - TOTAL                                    BALLOTS CAST - TOTAL                  PRECINCT 4                                             00 
01040010005000167          BALLOTS CAST - TOTAL                                    BALLOTS CAST - TOTAL                  PRECINCT 5                                             00 
01040010006000268          BALLOTS CAST - TOTAL                                    BALLOTS CAST - TOTAL                  PRECINCT 6                                             00 
01040010007000189          BALLOTS CAST - TOTAL                                    BALLOTS CAST - TOTAL                  PRECINCT 7                                             00 
01040010008000432          BALLOTS CAST - TOTAL                                    BALLOTS CAST - TOTAL                  PRECINCT 8                                             00 
01040010009000099          BALLOTS CAST - TOTAL                                    BALLOTS CAST - TOTAL                  PRECINCT 9                                             00 
01040010010000000          BALLOTS CAST - TOTAL                                    BALLOTS CAST - TOTAL                  PRECINCT 10                                            00 
01040010011000067          BALLOTS CAST - TOTAL                                    BALLOTS CAST - TOTAL                  PRECINCT 11                                            00 
01040010012000101          BALLOTS CAST - TOTAL                                    BALLOTS CAST - TOTAL                  PRECINCT 12                                            00 
01040010013000216          BALLOTS CAST - TOTAL                                    BALLOTS CAST - TOTAL                  PRECINCT 13                                            00 
01040010014000049          BALLOTS CAST - TOTAL                                    BALLOTS CAST - TOTAL                  PRECINCT 14                                            00 
01040010015000219          BALLOTS CAST - TOTAL                                    BALLOTS CAST - TOTAL                  PRECINCT 15                                            00 
01040010016000189          BALLOTS CAST - TOTAL                                    BALLOTS CAST - TOTAL                  PRECINCT 16                                            00 
01040010017000102          BALLOTS CAST - TOTAL                                    BALLOTS CAST - TOTAL                  PRECINCT 17                                            00 
01040010018000051          BALLOTS CAST - TOTAL                                    BALLOTS CAST - TOTAL                  PRECINCT 18                                            00 
01040010019000000          BALLOTS CAST - TOTAL                                    BALLOTS CAST - TOTAL                  PRECINCT 19                                            00 
01040010020000054          BALLOTS CAST - TOTAL                                    BALLOTS CAST - TOTAL                  PRECINCT 20                                            00 
01040010021000220          BALLOTS CAST - TOTAL                                    BALLOTS CAST - TOTAL                  PRECINCT 21                                            00 
01040010022000242          BALLOTS CAST - TOTAL                                    BALLOTS CAST - TOTAL                  PRECINCT 22                                            00 
01040010023000302          BALLOTS CAST - TOTAL                                    BALLOTS CAST - TOTAL                  PRECINCT 23                                            00 
01040010024000035          BALLOTS CAST - TOTAL                                    BALLOTS CAST - TOTAL                  PRECINCT 24                                            00 
01040010025000021          BALLOTS CAST - TOTAL                                    BALLOTS CAST - TOTAL                  PRECINCT 25                                            00 
01040010026000014          BALLOTS CAST - TOTAL                                    BALLOTS CAST - TOTAL                  PRECINCT 26                                            00 
01040010027000506          BALLOTS CAST - TOTAL                                    BALLOTS CAST - TOTAL                  PRECINCT 27                                            00 
01040010028000147          BALLOTS CAST - TOTAL                                    BALLOTS CAST - TOTAL                  PRECINCT 28                                            00 
01040010029000202          BALLOTS CAST - TOTAL                                    BALLOTS CAST - TOTAL                  PRECINCT 29                                            00 
01040010030000127          BALLOTS CAST - TOTAL                                    BALLOTS CAST - TOTAL                  PRECINCT 30                                            00 
01060010001000011DEM       BALLOTS CAST - DEMOCRATIC PARTY                         BALLOTS CAST - DEMOCRATIC PARTY       PRECINCT 1                                             00 
01060010002000001DEM       BALLOTS CAST - DEMOCRATIC PARTY                         BALLOTS CAST - DEMOCRATIC PARTY       PRECINCT 2                                             00 
01060010003000007DEM       BALLOTS CAST - DEMOCRATIC PARTY                         BALLOTS CAST - DEMOCRATIC PARTY       PRECINCT 3                                             00 
01060010004000003DEM       BALLOTS CAST - DEMOCRATIC PARTY                         BALLOTS CAST - DEMOCRATIC PARTY       PRECINCT 4                                             00 
01060010005000002DEM       BALLOTS CAST - DEMOCRATIC PARTY                         BALLOTS CAST - DEMOCRATIC PARTY       PRECINCT 5                                             00 
01060010006000005DEM       BALLOTS CAST - DEMOCRATIC PARTY                         BALLOTS CAST - DEMOCRATIC PARTY       PRECINCT 6                                             00 
01060010007000008DEM       BALLOTS CAST - DEMOCRATIC PARTY                         BALLOTS CAST - DEMOCRATIC PARTY       PRECINCT 7                                             00 
01060010008000007DEM       BALLOTS CAST - DEMOCRATIC PARTY                         BALLOTS CAST - DEMOCRATIC PARTY       PRECINCT 8                                             00 
01060010009000006DEM       BALLOTS CAST - DEMOCRATIC PARTY                         BALLOTS CAST - DEMOCRATIC PARTY       PRECINCT 9                                             00 
01060010010000000DEM       BALLOTS CAST - DEMOCRATIC PARTY                         BALLOTS CAST - DEMOCRATIC PARTY       PRECINCT 10                                            00 
01060010011000003DEM       BALLOTS CAST - DEMOCRATIC PARTY                         BALLOTS CAST - DEMOCRATIC PARTY       PRECINCT 11                                            00 
01060010012000006DEM       BALLOTS CAST - DEMOCRATIC PARTY                         BALLOTS CAST - DEMOCRATIC PARTY       PRECINCT 12                                            00 
01060010013000009DEM       BALLOTS CAST - DEMOCRATIC PARTY                         BALLOTS CAST - DEMOCRATIC PARTY       PRECINCT 13                                            00 
01060010014000002DEM       BALLOTS CAST - DEMOCRATIC PARTY                         BALLOTS CAST - DEMOCRATIC PARTY       PRECINCT 14                                            00 
01060010015000013DEM       BALLOTS CAST - DEMOCRATIC PARTY                         BALLOTS CAST - DEMOCRATIC PARTY       PRECINCT 15                                            00 
01060010016000002DEM       BALLOTS CAST - DEMOCRATIC PARTY                         BALLOTS CAST - DEMOCRATIC PARTY       PRECINCT 16                                            00 
01060010017000007DEM       BALLOTS CAST - DEMOCRATIC PARTY                         BALLOTS CAST - DEMOCRATIC PARTY       PRECINCT 17                                            00 
01060010018000005DEM       BALLOTS CAST - DEMOCRATIC PARTY                         BALLOTS CAST - DEMOCRATIC PARTY       PRECINCT 18                                            00 
01060010019000000DEM       BALLOTS CAST - DEMOCRATIC PARTY                         BALLOTS CAST - DEMOCRATIC PARTY       PRECINCT 19                                            00 
01060010020000001DEM       BALLOTS CAST - DEMOCRATIC PARTY                         BALLOTS CAST - DEMOCRATIC PARTY       PRECINCT 20                                            00 
01060010021000017DEM       BALLOTS CAST - DEMOCRATIC PARTY                         BALLOTS CAST - DEMOCRATIC PARTY       PRECINCT 21                                            00 
01060010022000016DEM       BALLOTS CAST - DEMOCRATIC PARTY                         BALLOTS CAST - DEMOCRATIC PARTY       PRECINCT 22                                            00 
01060010023000015DEM       BALLOTS CAST - DEMOCRATIC PARTY                         BALLOTS CAST - DEMOCRATIC PARTY       PRECINCT 23                                            00 
01060010024000007DEM       BALLOTS CAST - DEMOCRATIC PARTY                         BALLOTS CAST - DEMOCRATIC PARTY       PRECINCT 24                                            00 
01060010025000000DEM       BALLOTS CAST - DEMOCRATIC PARTY                         BALLOTS CAST - DEMOCRATIC PARTY       PRECINCT 25                                            00 
01060010026000001DEM       BALLOTS CAST - DEMOCRATIC PARTY                         BALLOTS CAST - DEMOCRATIC PARTY       PRECINCT 26                                            00 
01060010027000013DEM       BALLOTS CAST - DEMOCRATIC PARTY                         BALLOTS CAST - DEMOCRATIC PARTY       PRECINCT 27                                            00 
01060010028000010DEM       BALLOTS CAST - DEMOCRATIC PARTY                         BALLOTS CAST - DEMOCRATIC PARTY       PRECINCT 28                                            00 
01060010029000022DEM       BALLOTS CAST - DEMOCRATIC PARTY                         BALLOTS CAST - DEMOCRATIC PARTY       PRECINCT 29                                            00 
01060010030000020DEM       BALLOTS CAST - DEMOCRATIC PARTY                         BALLOTS CAST - DEMOCRATIC PARTY       PRECINCT 30                                            00 
01350010001000001DEM       President PALO PINTO COUNTYWIDE                         Bob Ely                               PRECINCT 1                                             01 
01350010002000000DEM       President PALO PINTO COUNTYWIDE                         Bob Ely                               PRECINCT 2                                             01 
01350010003000000DEM       President PALO PINTO COUNTYWIDE                         Bob Ely                               PRECINCT 3                                             01 
01350010004000000DEM       President PALO PINTO COUNTYWIDE                         Bob Ely                               PRECINCT 4                                             01 
01350010005000000DEM       President PALO PINTO COUNTYWIDE                         Bob Ely                               PRECINCT 5                                             01 
01350010006000000DEM       President PALO PINTO COUNTYWIDE                         Bob Ely                               PRECINCT 6                                             01 
01350010007000001DEM       President PALO PINTO COUNTYWIDE                         Bob Ely                               PRECINCT 7                                             01 
01350010008000001DEM       President PALO PINTO COUNTYWIDE                         Bob Ely                               PRECINCT 8                                             01 
01350010009000000DEM       President PALO PINTO COUNTYWIDE                         Bob Ely                               PRECINCT 9                                             01 
01350010010000000DEM       President PALO PINTO COUNTYWIDE                         Bob Ely                               PRECINCT 10                                            01 
01350010011000000DEM       President PALO PINTO COUNTYWIDE                         Bob Ely                               PRECINCT 11                                            01 
01350010012000001DEM       President PALO PINTO COUNTYWIDE                         Bob Ely                               PRECINCT 12                                            01 
01350010013000000DEM       President PALO PINTO COUNTYWIDE                         Bob Ely                               PRECINCT 13                                            01 
01350010014000000DEM       President PALO PINTO COUNTYWIDE                         Bob Ely                               PRECINCT 14                                            01 
01350010015000001DEM       President PALO PINTO COUNTYWIDE                         Bob Ely                               PRECINCT 15                                            01 
01350010016000000DEM       President PALO PINTO COUNTYWIDE                         Bob Ely                               PRECINCT 16                                            01 
01350010017000002DEM       President PALO PINTO COUNTYWIDE                         Bob Ely                               PRECINCT 17                                            01 
01350010018000000DEM       President PALO PINTO COUNTYWIDE                         Bob Ely                               PRECINCT 18                                            01 
01350010019000000DEM       President PALO PINTO COUNTYWIDE                         Bob Ely                               PRECINCT 19                                            01 
01350010020000000DEM       President PALO PINTO COUNTYWIDE                         Bob Ely                               PRECINCT 20                                            01 
01350010021000001DEM       President PALO PINTO COUNTYWIDE                         Bob Ely                               PRECINCT 21                                            01 
01350010022000001DEM       President PALO PINTO COUNTYWIDE                         Bob Ely                               PRECINCT 22                                            01 
01350010023000000DEM       President PALO PINTO COUNTYWIDE                         Bob Ely                               PRECINCT 23                                            01 
01350010024000000DEM       President PALO PINTO COUNTYWIDE                         Bob Ely                               PRECINCT 24                                            01 
01350010025000000DEM       President PALO PINTO COUNTYWIDE                         Bob Ely                               PRECINCT 25                                            01 
01350010026000000DEM       President PALO PINTO COUNTYWIDE                         Bob Ely                               PRECINCT 26                                            01 
01350010027000002DEM       President PALO PINTO COUNTYWIDE                         Bob Ely                               PRECINCT 27                                            01 
01350010028000001DEM       President PALO PINTO COUNTYWIDE                         Bob Ely                               PRECINCT 28                                            01 
01350010029000000DEM       President PALO PINTO COUNTYWIDE                         Bob Ely                               PRECINCT 29                                            01 
01350010030000000DEM       President PALO PINTO COUNTYWIDE                         Bob Ely                               PRECINCT 30                                            01 
01350020001000008DEM       President PALO PINTO COUNTYWIDE                         Barack Obama                          PRECINCT 1                                             01 
01350020002000000DEM       President PALO PINTO COUNTYWIDE                         Barack Obama                          PRECINCT 2                                             01 
01350020003000005DEM       President PALO PINTO COUNTYWIDE                         Barack Obama                          PRECINCT 3                                             01 
01350020004000001DEM       President PALO PINTO COUNTYWIDE                         Barack Obama                          PRECINCT 4                                             01 
01350020005000001DEM       President PALO PINTO COUNTYWIDE                         Barack Obama                          PRECINCT 5                                             01 
01350020006000003DEM       President PALO PINTO COUNTYWIDE                         Barack Obama                          PRECINCT 6                                             01 
01350020007000003DEM       President PALO PINTO COUNTYWIDE                         Barack Obama                          PRECINCT 7                                             01 
01350020008000003DEM       President PALO PINTO COUNTYWIDE                         Barack Obama                          PRECINCT 8                                             01 
01350020009000005DEM       President PALO PINTO COUNTYWIDE                         Barack Obama                          PRECINCT 9                                             01 
01350020010000000DEM       President PALO PINTO COUNTYWIDE                         Barack Obama                          PRECINCT 10                                            01 
01350020011000002DEM       President PALO PINTO COUNTYWIDE                         Barack Obama                          PRECINCT 11                                            01 
01350020012000004DEM       President PALO PINTO COUNTYWIDE                         Barack Obama                          PRECINCT 12                                            01 
01350020013000006DEM       President PALO PINTO COUNTYWIDE                         Barack Obama                          PRECINCT 13                                            01 
01350020014000002DEM       President PALO PINTO COUNTYWIDE                         Barack Obama                          PRECINCT 14                                            01 
01350020015000011DEM       President PALO PINTO COUNTYWIDE                         Barack Obama                          PRECINCT 15                                            01 
01350020016000000DEM       President PALO PINTO COUNTYWIDE                         Barack Obama                          PRECINCT 16                                            01 
01350020017000003DEM       President PALO PINTO COUNTYWIDE                         Barack Obama                          PRECINCT 17                                            01 
01350020018000004DEM       President PALO PINTO COUNTYWIDE                         Barack Obama                          PRECINCT 18                                            01 
01350020019000000DEM       President PALO PINTO COUNTYWIDE                         Barack Obama                          PRECINCT 19                                            01 
01350020020000001DEM       President PALO PINTO COUNTYWIDE                         Barack Obama                          PRECINCT 20                                            01 
01350020021000014DEM       President PALO PINTO COUNTYWIDE                         Barack Obama                          PRECINCT 21                                            01 
01350020022000013DEM       President PALO PINTO COUNTYWIDE                         Barack Obama                          PRECINCT 22                                            01 
01350020023000012DEM       President PALO PINTO COUNTYWIDE                         Barack Obama                          PRECINCT 23                                            01 
01350020024000005DEM       President PALO PINTO COUNTYWIDE                         Barack Obama                          PRECINCT 24                                            01 
01350020025000000DEM       President PALO PINTO COUNTYWIDE                         Barack Obama                          PRECINCT 25                                            01 
01350020026000001DEM       President PALO PINTO COUNTYWIDE                         Barack Obama                          PRECINCT 26                                            01 
01350020027000008DEM       President PALO PINTO COUNTYWIDE                         Barack Obama                          PRECINCT 27                                            01 
01350020028000006DEM       President PALO PINTO COUNTYWIDE                         Barack Obama                          PRECINCT 28                                            01 
01350020029000018DEM       President PALO PINTO COUNTYWIDE                         Barack Obama                          PRECINCT 29                                            01 
01350020030000017DEM       President PALO PINTO COUNTYWIDE                         Barack Obama                          PRECINCT 30                                            01 
01350030001000001DEM       President PALO PINTO COUNTYWIDE                         Darcy G. Richardson                   PRECINCT 1                                             01 
01350030002000001DEM       President PALO PINTO COUNTYWIDE                         Darcy G. Richardson                   PRECINCT 2                                             01 
01350030003000001DEM       President PALO PINTO COUNTYWIDE                         Darcy G. Richardson                   PRECINCT 3                                             01 
01350030004000000DEM       President PALO PINTO COUNTYWIDE                         Darcy G. Richardson                   PRECINCT 4                                             01 
01350030005000000DEM       President PALO PINTO COUNTYWIDE                         Darcy G. Richardson                   PRECINCT 5                                             01 
01350030006000001DEM       President PALO PINTO COUNTYWIDE                         Darcy G. Richardson                   PRECINCT 6                                             01 
01350030007000000DEM       President PALO PINTO COUNTYWIDE                         Darcy G. Richardson                   PRECINCT 7                                             01 
01350030008000000DEM       President PALO PINTO COUNTYWIDE                         Darcy G. Richardson                   PRECINCT 8                                             01 
01350030009000000DEM       President PALO PINTO COUNTYWIDE                         Darcy G. Richardson                   PRECINCT 9                                             01 
01350030010000000DEM       President PALO PINTO COUNTYWIDE                         Darcy G. Richardson                   PRECINCT 10                                            01 
01350030011000001DEM       President PALO PINTO COUNTYWIDE                         Darcy G. Richardson                   PRECINCT 11                                            01 
01350030012000001DEM       President PALO PINTO COUNTYWIDE                         Darcy G. Richardson                   PRECINCT 12                                            01 
01350030013000001DEM       President PALO PINTO COUNTYWIDE                         Darcy G. Richardson                   PRECINCT 13                                            01 
01350030014000000DEM       President PALO PINTO COUNTYWIDE                         Darcy G. Richardson                   PRECINCT 14                                            01 
01350030015000001DEM       President PALO PINTO COUNTYWIDE                         Darcy G. Richardson                   PRECINCT 15                                            01 
01350030016000000DEM       President PALO PINTO COUNTYWIDE                         Darcy G. Richardson                   PRECINCT 16                                            01 
01350030017000000DEM       President PALO PINTO COUNTYWIDE                         Darcy G. Richardson                   PRECINCT 17                                            01 
01350030018000000DEM       President PALO PINTO COUNTYWIDE                         Darcy G. Richardson                   PRECINCT 18                                            01 
01350030019000000DEM       President PALO PINTO COUNTYWIDE                         Darcy G. Richardson                   PRECINCT 19                                            01 
01350030020000000DEM       President PALO PINTO COUNTYWIDE                         Darcy G. Richardson                   PRECINCT 20                                            01 
01350030021000000DEM       President PALO PINTO COUNTYWIDE                         Darcy G. Richardson                   PRECINCT 21                                            01 
01350030022000001DEM       President PALO PINTO COUNTYWIDE                         Darcy G. Richardson                   PRECINCT 22                                            01 
01350030023000001DEM       President PALO PINTO COUNTYWIDE                         Darcy G. Richardson                   PRECINCT 23                                            01 
01350030024000000DEM       President PALO PINTO COUNTYWIDE                         Darcy G. Richardson                   PRECINCT 24                                            01 
01350030025000000DEM       President PALO PINTO COUNTYWIDE                         Darcy G. Richardson                   PRECINCT 25                                            01 
01350030026000000DEM       President PALO PINTO COUNTYWIDE                         Darcy G. Richardson                   PRECINCT 26                                            01 
01350030027000000DEM       President PALO PINTO COUNTYWIDE                         Darcy G. Richardson                   PRECINCT 27                                            01 
01350030028000001DEM       President PALO PINTO COUNTYWIDE                         Darcy G. Richardson                   PRECINCT 28                                            01 
01350030029000001DEM       President PALO PINTO COUNTYWIDE                         Darcy G. Richardson                   PRECINCT 29                                            01 
01350030030000000DEM       President PALO PINTO COUNTYWIDE                         Darcy G. Richardson                   PRECINCT 30                                            01 
01350040001000000DEM       President PALO PINTO COUNTYWIDE                         John Wolfe                            PRECINCT 1                                             01 
01350040002000000DEM       President PALO PINTO COUNTYWIDE                         John Wolfe                            PRECINCT 2                                             01 
01350040003000000DEM       President PALO PINTO COUNTYWIDE                         John Wolfe                            PRECINCT 3                                             01 
01350040004000001DEM       President PALO PINTO COUNTYWIDE                         John Wolfe                            PRECINCT 4                                             01 
01350040005000000DEM       President PALO PINTO COUNTYWIDE                         John Wolfe                            PRECINCT 5                                             01 
01350040006000001DEM       President PALO PINTO COUNTYWIDE                         John Wolfe                            PRECINCT 6                                             01 
01350040007000002DEM       President PALO PINTO COUNTYWIDE                         John Wolfe                            PRECINCT 7                                             01 
01350040008000002DEM       President PALO PINTO COUNTYWIDE                         John Wolfe                            PRECINCT 8                                             01 
01350040009000001DEM       President PALO PINTO COUNTYWIDE                         John Wolfe                            PRECINCT 9                                             01 
01350040010000000DEM       President PALO PINTO COUNTYWIDE                         John Wolfe                            PRECINCT 10                                            01 
01350040011000000DEM       President PALO PINTO COUNTYWIDE                         John Wolfe                            PRECINCT 11                                            01 
01350040012000000DEM       President PALO PINTO COUNTYWIDE                         John Wolfe                            PRECINCT 12                                            01 
01350040013000001DEM       President PALO PINTO COUNTYWIDE                         John Wolfe                            PRECINCT 13                                            01 
01350040014000000DEM       President PALO PINTO COUNTYWIDE                         John Wolfe                            PRECINCT 14                                            01 
01350040015000001DEM       President PALO PINTO COUNTYWIDE                         John Wolfe                            PRECINCT 15                                            01 
01350040016000000DEM       President PALO PINTO COUNTYWIDE                         John Wolfe                            PRECINCT 16                                            01 
01350040017000000DEM       President PALO PINTO COUNTYWIDE                         John Wolfe                            PRECINCT 17                                            01 
01350040018000000DEM       President PALO PINTO COUNTYWIDE                         John Wolfe                            PRECINCT 18                                            01 
01350040019000000DEM       President PALO PINTO COUNTYWIDE                         John Wolfe                            PRECINCT 19                                            01 
01350040020000000DEM       President PALO PINTO COUNTYWIDE                         John Wolfe                            PRECINCT 20                                            01 
01350040021000001DEM       President PALO PINTO COUNTYWIDE                         John Wolfe                            PRECINCT 21                                            01 
01350040022000001DEM       President PALO PINTO COUNTYWIDE                         John Wolfe                            PRECINCT 22                                            01 
01350040023000002DEM       President PALO PINTO COUNTYWIDE                         John Wolfe                            PRECINCT 23                                            01 
01350040024000001DEM       President PALO PINTO COUNTYWIDE                         John Wolfe                            PRECINCT 24                                            01 
01350040025000000DEM       President PALO PINTO COUNTYWIDE                         John Wolfe                            PRECINCT 25                                            01 
01350040026000000DEM       President PALO PINTO COUNTYWIDE                         John Wolfe                            PRECINCT 26                                            01 
01350040027000002DEM       President PALO PINTO COUNTYWIDE                         John Wolfe                            PRECINCT 27                                            01 
01350040028000002DEM       President PALO PINTO COUNTYWIDE                         John Wolfe                            PRECINCT 28                                            01 
01350040029000001DEM       President PALO PINTO COUNTYWIDE                         John Wolfe                            PRECINCT 29                                            01 
01350040030000002DEM       President PALO PINTO COUNTYWIDE                         John Wolfe                            PRECINCT 30                                            01 
01350050001000000DEM       President PALO PINTO COUNTYWIDE                         OVER VOTES                            PRECINCT 1                                             01 
01350050002000000DEM       President PALO PINTO COUNTYWIDE                         OVER VOTES                            PRECINCT 2                                             01 
01350050003000000DEM       President PALO PINTO COUNTYWIDE                         OVER VOTES                            PRECINCT 3                                             01 
01350050004000000DEM       President PALO PINTO COUNTYWIDE                         OVER VOTES                            PRECINCT 4                                             01 
01350050005000000DEM       President PALO PINTO COUNTYWIDE                         OVER VOTES                            PRECINCT 5                                             01 
01350050006000000DEM       President PALO PINTO COUNTYWIDE                         OVER VOTES                            PRECINCT 6                                             01 
01350050007000000DEM       President PALO PINTO COUNTYWIDE                         OVER VOTES                            PRECINCT 7                                             01 
01350050008000000DEM       President PALO PINTO COUNTYWIDE                         OVER VOTES                            PRECINCT 8                                             01 
01350050009000000DEM       President PALO PINTO COUNTYWIDE                         OVER VOTES                            PRECINCT 9                                             01 
01350050010000000DEM       President PALO PINTO COUNTYWIDE                         OVER VOTES                            PRECINCT 10                                            01 
01350050011000000DEM       President PALO PINTO COUNTYWIDE                         OVER VOTES                            PRECINCT 11                                            01 
01350050012000000DEM       President PALO PINTO COUNTYWIDE                         OVER VOTES                            PRECINCT 12                                            01 
01350050013000000DEM       President PALO PINTO COUNTYWIDE                         OVER VOTES                            PRECINCT 13                                            01 
01350050014000000DEM       President PALO PINTO COUNTYWIDE                         OVER VOTES                            PRECINCT 14                                            01 
01350050015000000DEM       President PALO PINTO COUNTYWIDE                         OVER VOTES                            PRECINCT 15                                            01 
01350050016000000DEM       President PALO PINTO COUNTYWIDE                         OVER VOTES                            PRECINCT 16                                            01 
01350050017000000DEM       President PALO PINTO COUNTYWIDE                         OVER VOTES                            PRECINCT 17                                            01 
01350050018000000DEM       President PALO PINTO COUNTYWIDE                         OVER VOTES                            PRECINCT 18                                            01 
01350050019000000DEM       President PALO PINTO COUNTYWIDE                         OVER VOTES                            PRECINCT 19                                            01 
01350050020000000DEM       President PALO PINTO COUNTYWIDE                         OVER VOTES                            PRECINCT 20                                            01 
01350050021000000DEM       President PALO PINTO COUNTYWIDE                         OVER VOTES                            PRECINCT 21                                            01 
01350050022000000DEM       President PALO PINTO COUNTYWIDE                         OVER VOTES                            PRECINCT 22                                            01 
01350050023000000DEM       President PALO PINTO COUNTYWIDE                         OVER VOTES                            PRECINCT 23                                            01 
01350050024000000DEM       President PALO PINTO COUNTYWIDE                         OVER VOTES                            PRECINCT 24                                            01 
01350050025000000DEM       President PALO PINTO COUNTYWIDE                         OVER VOTES                            PRECINCT 25                                            01 
01350050026000000DEM       President PALO PINTO COUNTYWIDE                         OVER VOTES                            PRECINCT 26                                            01 
01350050027000000DEM       President PALO PINTO COUNTYWIDE                         OVER VOTES                            PRECINCT 27                                            01 
01350050028000000DEM       President PALO PINTO COUNTYWIDE                         OVER VOTES                            PRECINCT 28                                            01 
01350050029000000DEM       President PALO PINTO COUNTYWIDE                         OVER VOTES                            PRECINCT 29                                            01 
01350050030000000DEM       President PALO PINTO COUNTYWIDE                         OVER VOTES                            PRECINCT 30                                            01 
01350060001000001DEM       President PALO PINTO COUNTYWIDE                         UNDER VOTES                           PRECINCT 1                                             01 
01350060002000000DEM       President PALO PINTO COUNTYWIDE                         UNDER VOTES                           PRECINCT 2                                             01 
01350060003000001DEM       President PALO PINTO COUNTYWIDE                         UNDER VOTES                           PRECINCT 3                                             01 
01350060004000001DEM       President PALO PINTO COUNTYWIDE                         UNDER VOTES                           PRECINCT 4                                             01 
01350060005000001DEM       President PALO PINTO COUNTYWIDE                         UNDER VOTES                           PRECINCT 5                                             01 
01350060006000000DEM       President PALO PINTO COUNTYWIDE                         UNDER VOTES                           PRECINCT 6                                             01 
01350060007000002DEM       President PALO PINTO COUNTYWIDE                         UNDER VOTES                           PRECINCT 7                                             01 
01350060008000001DEM       President PALO PINTO COUNTYWIDE                         UNDER VOTES                           PRECINCT 8                                             01 
01350060009000000DEM       President PALO PINTO COUNTYWIDE                         UNDER VOTES                           PRECINCT 9                                             01 
01350060010000000DEM       President PALO PINTO COUNTYWIDE                         UNDER VOTES                           PRECINCT 10                                            01 
01350060011000000DEM       President PALO PINTO COUNTYWIDE                         UNDER VOTES                           PRECINCT 11                                            01 
01350060012000000DEM       President PALO PINTO COUNTYWIDE                         UNDER VOTES                           PRECINCT 12                                            01 
01350060013000001DEM       President PALO PINTO COUNTYWIDE                         UNDER VOTES                           PRECINCT 13                                            01 
01350060014000000DEM       President PALO PINTO COUNTYWIDE                         UNDER VOTES                           PRECINCT 14                                            01 
01350060015000000DEM       President PALO PINTO COUNTYWIDE                         UNDER VOTES                           PRECINCT 15                                            01 
01350060016000002DEM       President PALO PINTO COUNTYWIDE                         UNDER VOTES                           PRECINCT 16                                            01 
01350060017000002DEM       President PALO PINTO COUNTYWIDE                         UNDER VOTES                           PRECINCT 17                                            01 
01350060018000001DEM       President PALO PINTO COUNTYWIDE                         UNDER VOTES                           PRECINCT 18                                            01 
01350060019000000DEM       President PALO PINTO COUNTYWIDE                         UNDER VOTES                           PRECINCT 19                                            01 
01350060020000000DEM       President PALO PINTO COUNTYWIDE                         UNDER VOTES                           PRECINCT 20                                            01 
01350060021000001DEM       President PALO PINTO COUNTYWIDE                         UNDER VOTES                           PRECINCT 21                                            01 
01350060022000000DEM       President PALO PINTO COUNTYWIDE                         UNDER VOTES                           PRECINCT 22                                            01 
01350060023000001DEM       President PALO PINTO COUNTYWIDE                         UNDER VOTES                           PRECINCT 23                                            01 
01350060024000001DEM       President PALO PINTO COUNTYWIDE                         UNDER VOTES                           PRECINCT 24                                            01 
01350060025000000DEM       President PALO PINTO COUNTYWIDE                         UNDER VOTES                           PRECINCT 25                                            01 
01350060026000000DEM       President PALO PINTO COUNTYWIDE                         UNDER VOTES                           PRECINCT 26                                            01 
01350060027000001DEM       President PALO PINTO COUNTYWIDE                         UNDER VOTES                           PRECINCT 27                                            01 
01350060028000000DEM       President PALO PINTO COUNTYWIDE                         UNDER VOTES                           PRECINCT 28                                            01 
01350060029000002DEM       President PALO PINTO COUNTYWIDE                         UNDER VOTES                           PRECINCT 29                                            01 
01350060030000001DEM       President PALO PINTO COUNTYWIDE                         UNDER VOTES                           PRECINCT 30                                            01 
01360010001000002DEM       US Senator PALO PINTO COUNTYWIDE                        Addie Dainell Allen                   PRECINCT 1                                             01 
01360010002000001DEM       US Senator PALO PINTO COUNTYWIDE                        Addie Dainell Allen                   PRECINCT 2                                             01 
01360010003000000DEM       US Senator PALO PINTO COUNTYWIDE                        Addie Dainell Allen                   PRECINCT 3                                             01 
01360010004000002DEM       US Senator PALO PINTO COUNTYWIDE                        Addie Dainell Allen                   PRECINCT 4                                             01 
01360010005000000DEM       US Senator PALO PINTO COUNTYWIDE                        Addie Dainell Allen                   PRECINCT 5                                             01 
01360010006000001DEM       US Senator PALO PINTO COUNTYWIDE                        Addie Dainell Allen                   PRECINCT 6                                             01 
01360010007000001DEM       US Senator PALO PINTO COUNTYWIDE                        Addie Dainell Allen                   PRECINCT 7                                             01 
01360010008000000DEM       US Senator PALO PINTO COUNTYWIDE                        Addie Dainell Allen                   PRECINCT 8                                             01 
01360010009000001DEM       US Senator PALO PINTO COUNTYWIDE                        Addie Dainell Allen                   PRECINCT 9                                             01 
01360010010000000DEM       US Senator PALO PINTO COUNTYWIDE                        Addie Dainell Allen                   PRECINCT 10                                            01 
01360010011000000DEM       US Senator PALO PINTO COUNTYWIDE                        Addie Dainell Allen                   PRECINCT 11                                            01 
01360010012000003DEM       US Senator PALO PINTO COUNTYWIDE                        Addie Dainell Allen                   PRECINCT 12                                            01 
01360010013000001DEM       US Senator PALO PINTO COUNTYWIDE                        Addie Dainell Allen                   PRECINCT 13                                            01 
01360010014000001DEM       US Senator PALO PINTO COUNTYWIDE                        Addie Dainell Allen                   PRECINCT 14                                            01 
01360010015000004DEM       US Senator PALO PINTO COUNTYWIDE                        Addie Dainell Allen                   PRECINCT 15                                            01 
01360010016000000DEM       US Senator PALO PINTO COUNTYWIDE                        Addie Dainell Allen                   PRECINCT 16                                            01 
01360010017000002DEM       US Senator PALO PINTO COUNTYWIDE                        Addie Dainell Allen                   PRECINCT 17                                            01 
01360010018000000DEM       US Senator PALO PINTO COUNTYWIDE                        Addie Dainell Allen                   PRECINCT 18                                            01 
01360010019000000DEM       US Senator PALO PINTO COUNTYWIDE                        Addie Dainell Allen                   PRECINCT 19                                            01 
01360010020000000DEM       US Senator PALO PINTO COUNTYWIDE                        Addie Dainell Allen                   PRECINCT 20                                            01 
01360010021000005DEM       US Senator PALO PINTO COUNTYWIDE                        Addie Dainell Allen                   PRECINCT 21                                            01 
01360010022000004DEM       US Senator PALO PINTO COUNTYWIDE                        Addie Dainell Allen                   PRECINCT 22                                            01 
01360010023000001DEM       US Senator PALO PINTO COUNTYWIDE                        Addie Dainell Allen                   PRECINCT 23                                            01 
01360010024000003DEM       US Senator PALO PINTO COUNTYWIDE                        Addie Dainell Allen                   PRECINCT 24                                            01 
01360010025000000DEM       US Senator PALO PINTO COUNTYWIDE                        Addie Dainell Allen                   PRECINCT 25                                            01 
01360010026000000DEM       US Senator PALO PINTO COUNTYWIDE                        Addie Dainell Allen                   PRECINCT 26                                            01 
01360010027000003DEM       US Senator PALO PINTO COUNTYWIDE                        Addie Dainell Allen                   PRECINCT 27                                            01 
01360010028000003DEM       US Senator PALO PINTO COUNTYWIDE                        Addie Dainell Allen                   PRECINCT 28                                            01 
01360010029000004DEM       US Senator PALO PINTO COUNTYWIDE                        Addie Dainell Allen                   PRECINCT 29                                            01 
01360010030000006DEM       US Senator PALO PINTO COUNTYWIDE                        Addie Dainell Allen                   PRECINCT 30                                            01 
01360020001000002DEM       US Senator PALO PINTO COUNTYWIDE                        Sean Hubbard                          PRECINCT 1                                             01 
01360020002000000DEM       US Senator PALO PINTO COUNTYWIDE                        Sean Hubbard                          PRECINCT 2                                             01 
01360020003000001DEM       US Senator PALO PINTO COUNTYWIDE                        Sean Hubbard                          PRECINCT 3                                             01 
01360020004000000DEM       US Senator PALO PINTO COUNTYWIDE                        Sean Hubbard                          PRECINCT 4                                             01 
01360020005000000DEM       US Senator PALO PINTO COUNTYWIDE                        Sean Hubbard                          PRECINCT 5                                             01 
01360020006000000DEM       US Senator PALO PINTO COUNTYWIDE                        Sean Hubbard                          PRECINCT 6                                             01 
01360020007000000DEM       US Senator PALO PINTO COUNTYWIDE                        Sean Hubbard                          PRECINCT 7                                             01 
01360020008000000DEM       US Senator PALO PINTO COUNTYWIDE                        Sean Hubbard                          PRECINCT 8                                             01 
01360020009000000DEM       US Senator PALO PINTO COUNTYWIDE                        Sean Hubbard                          PRECINCT 9                                             01 
01360020010000000DEM       US Senator PALO PINTO COUNTYWIDE                        Sean Hubbard                          PRECINCT 10                                            01 
01360020011000001DEM       US Senator PALO PINTO COUNTYWIDE                        Sean Hubbard                          PRECINCT 11                                            01 
01360020012000000DEM       US Senator PALO PINTO COUNTYWIDE                        Sean Hubbard                          PRECINCT 12                                            01 
01360020013000000DEM       US Senator PALO PINTO COUNTYWIDE                        Sean Hubbard                          PRECINCT 13                                            01 
01360020014000000DEM       US Senator PALO PINTO COUNTYWIDE                        Sean Hubbard                          PRECINCT 14                                            01 
01360020015000000DEM       US Senator PALO PINTO COUNTYWIDE                        Sean Hubbard                          PRECINCT 15                                            01 
01360020016000000DEM       US Senator PALO PINTO COUNTYWIDE                        Sean Hubbard                          PRECINCT 16                                            01 
01360020017000002DEM       US Senator PALO PINTO COUNTYWIDE                        Sean Hubbard                          PRECINCT 17                                            01 
01360020018000002DEM       US Senator PALO PINTO COUNTYWIDE                        Sean Hubbard                          PRECINCT 18                                            01 
01360020019000000DEM       US Senator PALO PINTO COUNTYWIDE                        Sean Hubbard                          PRECINCT 19                                            01 
01360020020000000DEM       US Senator PALO PINTO COUNTYWIDE                        Sean Hubbard                          PRECINCT 20                                            01 
01360020021000002DEM       US Senator PALO PINTO COUNTYWIDE                        Sean Hubbard                          PRECINCT 21                                            01 
01360020022000003DEM       US Senator PALO PINTO COUNTYWIDE                        Sean Hubbard                          PRECINCT 22                                            01 
01360020023000002DEM       US Senator PALO PINTO COUNTYWIDE                        Sean Hubbard                          PRECINCT 23                                            01 
01360020024000000DEM       US Senator PALO PINTO COUNTYWIDE                        Sean Hubbard                          PRECINCT 24                                            01 
01360020025000000DEM       US Senator PALO PINTO COUNTYWIDE                        Sean Hubbard                          PRECINCT 25                                            01 
01360020026000000DEM       US Senator PALO PINTO COUNTYWIDE                        Sean Hubbard                          PRECINCT 26                                            01 
01360020027000003DEM       US Senator PALO PINTO COUNTYWIDE                        Sean Hubbard                          PRECINCT 27                                            01 
01360020028000001DEM       US Senator PALO PINTO COUNTYWIDE                        Sean Hubbard                          PRECINCT 28                                            01 
01360020029000005DEM       US Senator PALO PINTO COUNTYWIDE                        Sean Hubbard                          PRECINCT 29                                            01 
01360020030000006DEM       US Senator PALO PINTO COUNTYWIDE                        Sean Hubbard                          PRECINCT 30                                            01 
01360030001000001DEM       US Senator PALO PINTO COUNTYWIDE                        Paul Sadler                           PRECINCT 1                                             01 
01360030002000000DEM       US Senator PALO PINTO COUNTYWIDE                        Paul Sadler                           PRECINCT 2                                             01 
01360030003000003DEM       US Senator PALO PINTO COUNTYWIDE                        Paul Sadler                           PRECINCT 3                                             01 
01360030004000000DEM       US Senator PALO PINTO COUNTYWIDE                        Paul Sadler                           PRECINCT 4                                             01 
01360030005000001DEM       US Senator PALO PINTO COUNTYWIDE                        Paul Sadler                           PRECINCT 5                                             01 
01360030006000003DEM       US Senator PALO PINTO COUNTYWIDE                        Paul Sadler                           PRECINCT 6                                             01 
01360030007000002DEM       US Senator PALO PINTO COUNTYWIDE                        Paul Sadler                           PRECINCT 7                                             01 
01360030008000001DEM       US Senator PALO PINTO COUNTYWIDE                        Paul Sadler                           PRECINCT 8                                             01 
01360030009000004DEM       US Senator PALO PINTO COUNTYWIDE                        Paul Sadler                           PRECINCT 9                                             01 
01360030010000000DEM       US Senator PALO PINTO COUNTYWIDE                        Paul Sadler                           PRECINCT 10                                            01 
01360030011000002DEM       US Senator PALO PINTO COUNTYWIDE                        Paul Sadler                           PRECINCT 11                                            01 
01360030012000001DEM       US Senator PALO PINTO COUNTYWIDE                        Paul Sadler                           PRECINCT 12                                            01 
01360030013000002DEM       US Senator PALO PINTO COUNTYWIDE                        Paul Sadler                           PRECINCT 13                                            01 
01360030014000001DEM       US Senator PALO PINTO COUNTYWIDE                        Paul Sadler                           PRECINCT 14                                            01 
01360030015000005DEM       US Senator PALO PINTO COUNTYWIDE                        Paul Sadler                           PRECINCT 15                                            01 
01360030016000002DEM       US Senator PALO PINTO COUNTYWIDE                        Paul Sadler                           PRECINCT 16                                            01 
01360030017000001DEM       US Senator PALO PINTO COUNTYWIDE                        Paul Sadler                           PRECINCT 17                                            01 
01360030018000000DEM       US Senator PALO PINTO COUNTYWIDE                        Paul Sadler                           PRECINCT 18                                            01 
01360030019000000DEM       US Senator PALO PINTO COUNTYWIDE                        Paul Sadler                           PRECINCT 19                                            01 
01360030020000001DEM       US Senator PALO PINTO COUNTYWIDE                        Paul Sadler                           PRECINCT 20                                            01 
01360030021000002DEM       US Senator PALO PINTO COUNTYWIDE                        Paul Sadler                           PRECINCT 21                                            01 
01360030022000004DEM       US Senator PALO PINTO COUNTYWIDE                        Paul Sadler                           PRECINCT 22                                            01 
01360030023000005DEM       US Senator PALO PINTO COUNTYWIDE                        Paul Sadler                           PRECINCT 23                                            01 
01360030024000000DEM       US Senator PALO PINTO COUNTYWIDE                        Paul Sadler                           PRECINCT 24                                            01 
01360030025000000DEM       US Senator PALO PINTO COUNTYWIDE                        Paul Sadler                           PRECINCT 25                                            01 
01360030026000000DEM       US Senator PALO PINTO COUNTYWIDE                        Paul Sadler                           PRECINCT 26                                            01 
01360030027000001DEM       US Senator PALO PINTO COUNTYWIDE                        Paul Sadler                           PRECINCT 27                                            01 
01360030028000004DEM       US Senator PALO PINTO COUNTYWIDE                        Paul Sadler                           PRECINCT 28                                            01 
01360030029000006DEM       US Senator PALO PINTO COUNTYWIDE                        Paul Sadler                           PRECINCT 29                                            01 
01360030030000001DEM       US Senator PALO PINTO COUNTYWIDE                        Paul Sadler                           PRECINCT 30                                            01 
01360040001000004DEM       US Senator PALO PINTO COUNTYWIDE                        Grady Yarbrough                       PRECINCT 1                                             01 
01360040002000000DEM       US Senator PALO PINTO COUNTYWIDE                        Grady Yarbrough                       PRECINCT 2                                             01 
01360040003000002DEM       US Senator PALO PINTO COUNTYWIDE                        Grady Yarbrough                       PRECINCT 3                                             01 
01360040004000000DEM       US Senator PALO PINTO COUNTYWIDE                        Grady Yarbrough                       PRECINCT 4                                             01 
01360040005000000DEM       US Senator PALO PINTO COUNTYWIDE                        Grady Yarbrough                       PRECINCT 5                                             01 
01360040006000001DEM       US Senator PALO PINTO COUNTYWIDE                        Grady Yarbrough                       PRECINCT 6                                             01 
01360040007000002DEM       US Senator PALO PINTO COUNTYWIDE                        Grady Yarbrough                       PRECINCT 7                                             01 
01360040008000004DEM       US Senator PALO PINTO COUNTYWIDE                        Grady Yarbrough                       PRECINCT 8                                             01 
01360040009000000DEM       US Senator PALO PINTO COUNTYWIDE                        Grady Yarbrough                       PRECINCT 9                                             01 
01360040010000000DEM       US Senator PALO PINTO COUNTYWIDE                        Grady Yarbrough                       PRECINCT 10                                            01 
01360040011000000DEM       US Senator PALO PINTO COUNTYWIDE                        Grady Yarbrough                       PRECINCT 11                                            01 
01360040012000001DEM       US Senator PALO PINTO COUNTYWIDE                        Grady Yarbrough                       PRECINCT 12                                            01 
01360040013000004DEM       US Senator PALO PINTO COUNTYWIDE                        Grady Yarbrough                       PRECINCT 13                                            01 
01360040014000000DEM       US Senator PALO PINTO COUNTYWIDE                        Grady Yarbrough                       PRECINCT 14                                            01 
01360040015000002DEM       US Senator PALO PINTO COUNTYWIDE                        Grady Yarbrough                       PRECINCT 15                                            01 
01360040016000000DEM       US Senator PALO PINTO COUNTYWIDE                        Grady Yarbrough                       PRECINCT 16                                            01 
01360040017000002DEM       US Senator PALO PINTO COUNTYWIDE                        Grady Yarbrough                       PRECINCT 17                                            01 
01360040018000002DEM       US Senator PALO PINTO COUNTYWIDE                        Grady Yarbrough                       PRECINCT 18                                            01 
01360040019000000DEM       US Senator PALO PINTO COUNTYWIDE                        Grady Yarbrough                       PRECINCT 19                                            01 
01360040020000000DEM       US Senator PALO PINTO COUNTYWIDE                        Grady Yarbrough                       PRECINCT 20                                            01 
01360040021000005DEM       US Senator PALO PINTO COUNTYWIDE                        Grady Yarbrough                       PRECINCT 21                                            01 
01360040022000002DEM       US Senator PALO PINTO COUNTYWIDE                        Grady Yarbrough                       PRECINCT 22                                            01 
01360040023000003DEM       US Senator PALO PINTO COUNTYWIDE                        Grady Yarbrough                       PRECINCT 23                                            01 
01360040024000002DEM       US Senator PALO PINTO COUNTYWIDE                        Grady Yarbrough                       PRECINCT 24                                            01 
01360040025000000DEM       US Senator PALO PINTO COUNTYWIDE                        Grady Yarbrough                       PRECINCT 25                                            01 
01360040026000001DEM       US Senator PALO PINTO COUNTYWIDE                        Grady Yarbrough                       PRECINCT 26                                            01 
01360040027000001DEM       US Senator PALO PINTO COUNTYWIDE                        Grady Yarbrough                       PRECINCT 27                                            01 
01360040028000002DEM       US Senator PALO PINTO COUNTYWIDE                        Grady Yarbrough                       PRECINCT 28                                            01 
01360040029000005DEM       US Senator PALO PINTO COUNTYWIDE                        Grady Yarbrough                       PRECINCT 29                                            01 
01360040030000005DEM       US Senator PALO PINTO COUNTYWIDE                        Grady Yarbrough                       PRECINCT 30                                            01 
01360050001000000DEM       US Senator PALO PINTO COUNTYWIDE                        OVER VOTES                            PRECINCT 1                                             01 
01360050002000000DEM       US Senator PALO PINTO COUNTYWIDE                        OVER VOTES                            PRECINCT 2                                             01 
01360050003000000DEM       US Senator PALO PINTO COUNTYWIDE                        OVER VOTES                            PRECINCT 3                                             01 
01360050004000000DEM       US Senator PALO PINTO COUNTYWIDE                        OVER VOTES                            PRECINCT 4                                             01 
01360050005000000DEM       US Senator PALO PINTO COUNTYWIDE                        OVER VOTES                            PRECINCT 5                                             01 
01360050006000000DEM       US Senator PALO PINTO COUNTYWIDE                        OVER VOTES                            PRECINCT 6                                             01 
01360050007000000DEM       US Senator PALO PINTO COUNTYWIDE                        OVER VOTES                            PRECINCT 7                                             01 
01360050008000000DEM       US Senator PALO PINTO COUNTYWIDE                        OVER VOTES                            PRECINCT 8                                             01 
01360050009000000DEM       US Senator PALO PINTO COUNTYWIDE                        OVER VOTES                            PRECINCT 9                                             01 
01360050010000000DEM       US Senator PALO PINTO COUNTYWIDE                        OVER VOTES                            PRECINCT 10                                            01 
01360050011000000DEM       US Senator PALO PINTO COUNTYWIDE                        OVER VOTES                            PRECINCT 11                                            01 
01360050012000000DEM       US Senator PALO PINTO COUNTYWIDE                        OVER VOTES                            PRECINCT 12                                            01 
01360050013000000DEM       US Senator PALO PINTO COUNTYWIDE                        OVER VOTES                            PRECINCT 13                                            01 
01360050014000000DEM       US Senator PALO PINTO COUNTYWIDE                        OVER VOTES                            PRECINCT 14                                            01 
01360050015000000DEM       US Senator PALO PINTO COUNTYWIDE                        OVER VOTES                            PRECINCT 15                                            01 
01360050016000000DEM       US Senator PALO PINTO COUNTYWIDE                        OVER VOTES                            PRECINCT 16                                            01 
01360050017000000DEM       US Senator PALO PINTO COUNTYWIDE                        OVER VOTES                            PRECINCT 17                                            01 
01360050018000000DEM       US Senator PALO PINTO COUNTYWIDE                        OVER VOTES                            PRECINCT 18                                            01 
01360050019000000DEM       US Senator PALO PINTO COUNTYWIDE                        OVER VOTES                            PRECINCT 19                                            01 
01360050020000000DEM       US Senator PALO PINTO COUNTYWIDE                        OVER VOTES                            PRECINCT 20                                            01 
01360050021000000DEM       US Senator PALO PINTO COUNTYWIDE                        OVER VOTES                            PRECINCT 21                                            01 
01360050022000000DEM       US Senator PALO PINTO COUNTYWIDE                        OVER VOTES                            PRECINCT 22                                            01 
01360050023000000DEM       US Senator PALO PINTO COUNTYWIDE                        OVER VOTES                            PRECINCT 23                                            01 
01360050024000000DEM       US Senator PALO PINTO COUNTYWIDE                        OVER VOTES                            PRECINCT 24                                            01 
01360050025000000DEM       US Senator PALO PINTO COUNTYWIDE                        OVER VOTES                            PRECINCT 25                                            01 
01360050026000000DEM       US Senator PALO PINTO COUNTYWIDE                        OVER VOTES                            PRECINCT 26                                            01 
01360050027000000DEM       US Senator PALO PINTO COUNTYWIDE                        OVER VOTES                            PRECINCT 27                                            01 
01360050028000000DEM       US Senator PALO PINTO COUNTYWIDE                        OVER VOTES                            PRECINCT 28                                            01 
01360050029000000DEM       US Senator PALO PINTO COUNTYWIDE                        OVER VOTES                            PRECINCT 29                                            01 
01360050030000000DEM       US Senator PALO PINTO COUNTYWIDE                        OVER VOTES                            PRECINCT 30                                            01 
01360060001000002DEM       US Senator PALO PINTO COUNTYWIDE                        UNDER VOTES                           PRECINCT 1                                             01 
01360060002000000DEM       US Senator PALO PINTO COUNTYWIDE                        UNDER VOTES                           PRECINCT 2                                             01 
01360060003000001DEM       US Senator PALO PINTO COUNTYWIDE                        UNDER VOTES                           PRECINCT 3                                             01 
01360060004000001DEM       US Senator PALO PINTO COUNTYWIDE                        UNDER VOTES                           PRECINCT 4                                             01 
01360060005000001DEM       US Senator PALO PINTO COUNTYWIDE                        UNDER VOTES                           PRECINCT 5                                             01 
01360060006000000DEM       US Senator PALO PINTO COUNTYWIDE                        UNDER VOTES                           PRECINCT 6                                             01 
01360060007000003DEM       US Senator PALO PINTO COUNTYWIDE                        UNDER VOTES                           PRECINCT 7                                             01 
01360060008000002DEM       US Senator PALO PINTO COUNTYWIDE                        UNDER VOTES                           PRECINCT 8                                             01 
01360060009000001DEM       US Senator PALO PINTO COUNTYWIDE                        UNDER VOTES                           PRECINCT 9                                             01 
01360060010000000DEM       US Senator PALO PINTO COUNTYWIDE                        UNDER VOTES                           PRECINCT 10                                            01 
01360060011000000DEM       US Senator PALO PINTO COUNTYWIDE                        UNDER VOTES                           PRECINCT 11                                            01 
01360060012000001DEM       US Senator PALO PINTO COUNTYWIDE                        UNDER VOTES                           PRECINCT 12                                            01 
01360060013000002DEM       US Senator PALO PINTO COUNTYWIDE                        UNDER VOTES                           PRECINCT 13                                            01 
01360060014000000DEM       US Senator PALO PINTO COUNTYWIDE                        UNDER VOTES                           PRECINCT 14                                            01 
01360060015000003DEM       US Senator PALO PINTO COUNTYWIDE                        UNDER VOTES                           PRECINCT 15                                            01 
01360060016000000DEM       US Senator PALO PINTO COUNTYWIDE                        UNDER VOTES                           PRECINCT 16                                            01 
01360060017000000DEM       US Senator PALO PINTO COUNTYWIDE                        UNDER VOTES                           PRECINCT 17                                            01 
01360060018000001DEM       US Senator PALO PINTO COUNTYWIDE                        UNDER VOTES                           PRECINCT 18                                            01 
01360060019000000DEM       US Senator PALO PINTO COUNTYWIDE                        UNDER VOTES                           PRECINCT 19                                            01 
01360060020000000DEM       US Senator PALO PINTO COUNTYWIDE                        UNDER VOTES                           PRECINCT 20                                            01 
01360060021000003DEM       US Senator PALO PINTO COUNTYWIDE                        UNDER VOTES                           PRECINCT 21                                            01 
01360060022000003DEM       US Senator PALO PINTO COUNTYWIDE                        UNDER VOTES                           PRECINCT 22                                            01 
01360060023000005DEM       US Senator PALO PINTO COUNTYWIDE                        UNDER VOTES                           PRECINCT 23                                            01 
01360060024000002DEM       US Senator PALO PINTO COUNTYWIDE                        UNDER VOTES                           PRECINCT 24                                            01 
01360060025000000DEM       US Senator PALO PINTO COUNTYWIDE                        UNDER VOTES                           PRECINCT 25                                            01 
01360060026000000DEM       US Senator PALO PINTO COUNTYWIDE                        UNDER VOTES                           PRECINCT 26                                            01 
01360060027000005DEM       US Senator PALO PINTO COUNTYWIDE                        UNDER VOTES                           PRECINCT 27                                            01 
01360060028000000DEM       US Senator PALO PINTO COUNTYWIDE                        UNDER VOTES                           PRECINCT 28                                            01 
01360060029000002DEM       US Senator PALO PINTO COUNTYWIDE                        UNDER VOTES                           PRECINCT 29                                            01 
01360060030000002DEM       US Senator PALO PINTO COUNTYWIDE                        UNDER VOTES                           PRECINCT 30                                            01 
01370010001000009DEM       Railroad Commissioner PALO PINTO COUNTYWIDE             Dale Henry                            PRECINCT 1                                             01 
01370010002000001DEM       Railroad Commissioner PALO PINTO COUNTYWIDE             Dale Henry                            PRECINCT 2                                             01 
01370010003000006DEM       Railroad Commissioner PALO PINTO COUNTYWIDE             Dale Henry                            PRECINCT 3                                             01 
01370010004000002DEM       Railroad Commissioner PALO PINTO COUNTYWIDE             Dale Henry                            PRECINCT 4                                             01 
01370010005000001DEM       Railroad Commissioner PALO PINTO COUNTYWIDE             Dale Henry                            PRECINCT 5                                             01 
01370010006000005DEM       Railroad Commissioner PALO PINTO COUNTYWIDE             Dale Henry                            PRECINCT 6                                             01 
01370010007000004DEM       Railroad Commissioner PALO PINTO COUNTYWIDE             Dale Henry                            PRECINCT 7                                             01 
01370010008000005DEM       Railroad Commissioner PALO PINTO COUNTYWIDE             Dale Henry                            PRECINCT 8                                             01 
01370010009000005DEM       Railroad Commissioner PALO PINTO COUNTYWIDE             Dale Henry                            PRECINCT 9                                             01 
01370010010000000DEM       Railroad Commissioner PALO PINTO COUNTYWIDE             Dale Henry                            PRECINCT 10                                            01 
01370010011000003DEM       Railroad Commissioner PALO PINTO COUNTYWIDE             Dale Henry                            PRECINCT 11                                            01 
01370010012000004DEM       Railroad Commissioner PALO PINTO COUNTYWIDE             Dale Henry                            PRECINCT 12                                            01 
01370010013000006DEM       Railroad Commissioner PALO PINTO COUNTYWIDE             Dale Henry                            PRECINCT 13                                            01 
01370010014000001DEM       Railroad Commissioner PALO PINTO COUNTYWIDE             Dale Henry                            PRECINCT 14                                            01 
01370010015000010DEM       Railroad Commissioner PALO PINTO COUNTYWIDE             Dale Henry                            PRECINCT 15                                            01 
01370010016000000DEM       Railroad Commissioner PALO PINTO COUNTYWIDE             Dale Henry                            PRECINCT 16                                            01 
01370010017000006DEM       Railroad Commissioner PALO PINTO COUNTYWIDE             Dale Henry                            PRECINCT 17                                            01 
01370010018000005DEM       Railroad Commissioner PALO PINTO COUNTYWIDE             Dale Henry                            PRECINCT 18                                            01 
01370010019000000DEM       Railroad Commissioner PALO PINTO COUNTYWIDE             Dale Henry                            PRECINCT 19                                            01 
01370010020000001DEM       Railroad Commissioner PALO PINTO COUNTYWIDE             Dale Henry                            PRECINCT 20                                            01 
01370010021000013DEM       Railroad Commissioner PALO PINTO COUNTYWIDE             Dale Henry                            PRECINCT 21                                            01 
01370010022000013DEM       Railroad Commissioner PALO PINTO COUNTYWIDE             Dale Henry                            PRECINCT 22                                            01 
01370010023000010DEM       Railroad Commissioner PALO PINTO COUNTYWIDE             Dale Henry                            PRECINCT 23                                            01 
01370010024000005DEM       Railroad Commissioner PALO PINTO COUNTYWIDE             Dale Henry                            PRECINCT 24                                            01 
01370010025000000DEM       Railroad Commissioner PALO PINTO COUNTYWIDE             Dale Henry                            PRECINCT 25                                            01 
01370010026000001DEM       Railroad Commissioner PALO PINTO COUNTYWIDE             Dale Henry                            PRECINCT 26                                            01 
01370010027000010DEM       Railroad Commissioner PALO PINTO COUNTYWIDE             Dale Henry                            PRECINCT 27                                            01 
01370010028000009DEM       Railroad Commissioner PALO PINTO COUNTYWIDE             Dale Henry                            PRECINCT 28                                            01 
01370010029000020DEM       Railroad Commissioner PALO PINTO COUNTYWIDE             Dale Henry                            PRECINCT 29                                            01 
01370010030000018DEM       Railroad Commissioner PALO PINTO COUNTYWIDE             Dale Henry                            PRECINCT 30                                            01 
01370020001000000DEM       Railroad Commissioner PALO PINTO COUNTYWIDE             OVER VOTES                            PRECINCT 1                                             01 
01370020002000000DEM       Railroad Commissioner PALO PINTO COUNTYWIDE             OVER VOTES                            PRECINCT 2                                             01 
01370020003000000DEM       Railroad Commissioner PALO PINTO COUNTYWIDE             OVER VOTES                            PRECINCT 3                                             01 
01370020004000000DEM       Railroad Commissioner PALO PINTO COUNTYWIDE             OVER VOTES                            PRECINCT 4                                             01 
01370020005000000DEM       Railroad Commissioner PALO PINTO COUNTYWIDE             OVER VOTES                            PRECINCT 5                                             01 
01370020006000000DEM       Railroad Commissioner PALO PINTO COUNTYWIDE             OVER VOTES                            PRECINCT 6                                             01 
01370020007000000DEM       Railroad Commissioner PALO PINTO COUNTYWIDE             OVER VOTES                            PRECINCT 7                                             01 
01370020008000000DEM       Railroad Commissioner PALO PINTO COUNTYWIDE             OVER VOTES                            PRECINCT 8                                             01 
01370020009000000DEM       Railroad Commissioner PALO PINTO COUNTYWIDE             OVER VOTES                            PRECINCT 9                                             01 
01370020010000000DEM       Railroad Commissioner PALO PINTO COUNTYWIDE             OVER VOTES                            PRECINCT 10                                            01 
01370020011000000DEM       Railroad Commissioner PALO PINTO COUNTYWIDE             OVER VOTES                            PRECINCT 11                                            01 
01370020012000000DEM       Railroad Commissioner PALO PINTO COUNTYWIDE             OVER VOTES                            PRECINCT 12                                            01 
01370020013000000DEM       Railroad Commissioner PALO PINTO COUNTYWIDE             OVER VOTES                            PRECINCT 13                                            01 
01370020014000000DEM       Railroad Commissioner PALO PINTO COUNTYWIDE             OVER VOTES                            PRECINCT 14                                            01 
01370020015000000DEM       Railroad Commissioner PALO PINTO COUNTYWIDE             OVER VOTES                            PRECINCT 15                                            01 
01370020016000000DEM       Railroad Commissioner PALO PINTO COUNTYWIDE             OVER VOTES                            PRECINCT 16                                            01 
01370020017000000DEM       Railroad Commissioner PALO PINTO COUNTYWIDE             OVER VOTES                            PRECINCT 17                                            01 
01370020018000000DEM       Railroad Commissioner PALO PINTO COUNTYWIDE             OVER VOTES                            PRECINCT 18                                            01 
01370020019000000DEM       Railroad Commissioner PALO PINTO COUNTYWIDE             OVER VOTES                            PRECINCT 19                                            01 
01370020020000000DEM       Railroad Commissioner PALO PINTO COUNTYWIDE             OVER VOTES                            PRECINCT 20                                            01 
01370020021000000DEM       Railroad Commissioner PALO PINTO COUNTYWIDE             OVER VOTES                            PRECINCT 21                                            01 
01370020022000000DEM       Railroad Commissioner PALO PINTO COUNTYWIDE             OVER VOTES                            PRECINCT 22                                            01 
01370020023000000DEM       Railroad Commissioner PALO PINTO COUNTYWIDE             OVER VOTES                            PRECINCT 23                                            01 
01370020024000000DEM       Railroad Commissioner PALO PINTO COUNTYWIDE             OVER VOTES                            PRECINCT 24                                            01 
01370020025000000DEM       Railroad Commissioner PALO PINTO COUNTYWIDE             OVER VOTES                            PRECINCT 25                                            01 
01370020026000000DEM       Railroad Commissioner PALO PINTO COUNTYWIDE             OVER VOTES                            PRECINCT 26                                            01 
01370020027000000DEM       Railroad Commissioner PALO PINTO COUNTYWIDE             OVER VOTES                            PRECINCT 27                                            01 
01370020028000000DEM       Railroad Commissioner PALO PINTO COUNTYWIDE             OVER VOTES                            PRECINCT 28                                            01 
01370020029000000DEM       Railroad Commissioner PALO PINTO COUNTYWIDE             OVER VOTES                            PRECINCT 29                                            01 
01370020030000000DEM       Railroad Commissioner PALO PINTO COUNTYWIDE             OVER VOTES                            PRECINCT 30                                            01 
01370030001000002DEM       Railroad Commissioner PALO PINTO COUNTYWIDE             UNDER VOTES                           PRECINCT 1                                             01 
01370030002000000DEM       Railroad Commissioner PALO PINTO COUNTYWIDE             UNDER VOTES                           PRECINCT 2                                             01 
01370030003000001DEM       Railroad Commissioner PALO PINTO COUNTYWIDE             UNDER VOTES                           PRECINCT 3                                             01 
01370030004000001DEM       Railroad Commissioner PALO PINTO COUNTYWIDE             UNDER VOTES                           PRECINCT 4                                             01 
01370030005000001DEM       Railroad Commissioner PALO PINTO COUNTYWIDE             UNDER VOTES                           PRECINCT 5                                             01 
01370030006000000DEM       Railroad Commissioner PALO PINTO COUNTYWIDE             UNDER VOTES                           PRECINCT 6                                             01 
01370030007000004DEM       Railroad Commissioner PALO PINTO COUNTYWIDE             UNDER VOTES                           PRECINCT 7                                             01 
01370030008000002DEM       Railroad Commissioner PALO PINTO COUNTYWIDE             UNDER VOTES                           PRECINCT 8                                             01 
01370030009000001DEM       Railroad Commissioner PALO PINTO COUNTYWIDE             UNDER VOTES                           PRECINCT 9                                             01 
01370030010000000DEM       Railroad Commissioner PALO PINTO COUNTYWIDE             UNDER VOTES                           PRECINCT 10                                            01 
01370030011000000DEM       Railroad Commissioner PALO PINTO COUNTYWIDE             UNDER VOTES                           PRECINCT 11                                            01 
01370030012000002DEM       Railroad Commissioner PALO PINTO COUNTYWIDE             UNDER VOTES                           PRECINCT 12                                            01 
