01050010001000057REP       BALLOTS CAST - REPUBLICAN PARTY                         BALLOTS CAST - REPUBLICAN PARTY       Precinct 1                                             00 
01050010002000072REP       BALLOTS CAST - REPUBLICAN PARTY                         BALLOTS CAST - REPUBLICAN PARTY       Precinct 2                                             00 
01050010003000278REP       BALLOTS CAST - REPUBLICAN PARTY                         BALLOTS CAST - REPUBLICAN PARTY       Precinct 3                                             00 
01050010004000274REP       BALLOTS CAST - REPUBLICAN PARTY                         BALLOTS CAST - REPUBLICAN PARTY       Precinct 4                                             00 
01050010005000505REP       BALLOTS CAST - REPUBLICAN PARTY                         BALLOTS CAST - REPUBLICAN PARTY       Precinct 5                                             00 
01050010006000628REP       BALLOTS CAST - REPUBLICAN PARTY                         BALLOTS CAST - REPUBLICAN PARTY       Precinct 6                                             00 
01050010007000124REP       BALLOTS CAST - REPUBLICAN PARTY                         BALLOTS CAST - REPUBLICAN PARTY       Precinct 7                                             00 
01050010008000122REP       BALLOTS CAST - REPUBLICAN PARTY                         BALLOTS CAST - REPUBLICAN PARTY       Precinct 8                                             00 
01050010009000177REP       BALLOTS CAST - REPUBLICAN PARTY                         BALLOTS CAST - REPUBLICAN PARTY       Precinct 9                                             00 
01050010010000370REP       BALLOTS CAST - REPUBLICAN PARTY                         BALLOTS CAST - REPUBLICAN PARTY       Precinct 10                                            00 
01050010011000082REP       BALLOTS CAST - REPUBLICAN PARTY                         BALLOTS CAST - REPUBLICAN PARTY       Precinct 11                                            00 
01050010012000016REP       BALLOTS CAST - REPUBLICAN PARTY                         BALLOTS CAST - REPUBLICAN PARTY       Precinct 12                                            00 
01050010013000045REP       BALLOTS CAST - REPUBLICAN PARTY                         BALLOTS CAST - REPUBLICAN PARTY       Precinct 13                                            00 
01050010014000134REP       BALLOTS CAST - REPUBLICAN PARTY                         BALLOTS CAST - REPUBLICAN PARTY       Precinct 14                                            00 
01050010015000137REP       BALLOTS CAST - REPUBLICAN PARTY                         BALLOTS CAST - REPUBLICAN PARTY       Precinct 15                                            00 
01050010016000796REP       BALLOTS CAST - REPUBLICAN PARTY                         BALLOTS CAST - REPUBLICAN PARTY       Precinct 16                                            00 
01050010017000162REP       BALLOTS CAST - REPUBLICAN PARTY                         BALLOTS CAST - REPUBLICAN PARTY       Precinct 17                                            00 
01050010018000026REP       BALLOTS CAST - REPUBLICAN PARTY                         BALLOTS CAST - REPUBLICAN PARTY       Precinct 18                                            00 
01050010019000661REP       BALLOTS CAST - REPUBLICAN PARTY                         BALLOTS CAST - REPUBLICAN PARTY       Precinct 19                                            00 
01050010020000593REP       BALLOTS CAST - REPUBLICAN PARTY                         BALLOTS CAST - REPUBLICAN PARTY       Precinct 20                                            00 
01050010021000173REP       BALLOTS CAST - REPUBLICAN PARTY                         BALLOTS CAST - REPUBLICAN PARTY       Precinct 21                                            00 
01070010001000001REP       President POLK COUNTYWIDE                               Michele Bachmann                      Precinct 1                                             01 
01070010002000000REP       President POLK COUNTYWIDE                               Michele Bachmann                      Precinct 2                                             01 
01070010003000006REP       President POLK COUNTYWIDE                               Michele Bachmann                      Precinct 3                                             01 
01070010004000000REP       President POLK COUNTYWIDE                               Michele Bachmann                      Precinct 4                                             01 
01070010005000011REP       President POLK COUNTYWIDE                               Michele Bachmann                      Precinct 5                                             01 
01070010006000003REP       President POLK COUNTYWIDE                               Michele Bachmann                      Precinct 6                                             01 
01070010007000000REP       President POLK COUNTYWIDE                               Michele Bachmann                      Precinct 7                                             01 
01070010008000001REP       President POLK COUNTYWIDE                               Michele Bachmann                      Precinct 8                                             01 
01070010009000002REP       President POLK COUNTYWIDE                               Michele Bachmann                      Precinct 9                                             01 
01070010010000006REP       President POLK COUNTYWIDE                               Michele Bachmann                      Precinct 10                                            01 
01070010011000002REP       President POLK COUNTYWIDE                               Michele Bachmann                      Precinct 11                                            01 
01070010012000001REP       President POLK COUNTYWIDE                               Michele Bachmann                      Precinct 12                                            01 
01070010013000001REP       President POLK COUNTYWIDE                               Michele Bachmann                      Precinct 13                                            01 
01070010014000003REP       President POLK COUNTYWIDE                               Michele Bachmann                      Precinct 14                                            01 
01070010015000001REP       President POLK COUNTYWIDE                               Michele Bachmann                      Precinct 15                                            01 
01070010016000008REP       President POLK COUNTYWIDE                               Michele Bachmann                      Precinct 16                                            01 
01070010017000001REP       President POLK COUNTYWIDE                               Michele Bachmann                      Precinct 17                                            01 
01070010018000000REP       President POLK COUNTYWIDE                               Michele Bachmann                      Precinct 18                                            01 
01070010019000004REP       President POLK COUNTYWIDE                               Michele Bachmann                      Precinct 19                                            01 
01070010020000007REP       President POLK COUNTYWIDE                               Michele Bachmann                      Precinct 20                                            01 
01070010021000004REP       President POLK COUNTYWIDE                               Michele Bachmann                      Precinct 21                                            01 
01070020001000000REP       President POLK COUNTYWIDE                               Charles "Buddy" Roemer                Precinct 1                                             01 
01070020002000000REP       President POLK COUNTYWIDE                               Charles "Buddy" Roemer                Precinct 2                                             01 
01070020003000002REP       President POLK COUNTYWIDE                               Charles "Buddy" Roemer                Precinct 3                                             01 
01070020004000001REP       President POLK COUNTYWIDE                               Charles "Buddy" Roemer                Precinct 4                                             01 
01070020005000002REP       President POLK COUNTYWIDE                               Charles "Buddy" Roemer                Precinct 5                                             01 
01070020006000002REP       President POLK COUNTYWIDE                               Charles "Buddy" Roemer                Precinct 6                                             01 
01070020007000001REP       President POLK COUNTYWIDE                               Charles "Buddy" Roemer                Precinct 7                                             01 
01070020008000000REP       President POLK COUNTYWIDE                               Charles "Buddy" Roemer                Precinct 8                                             01 
01070020009000004REP       President POLK COUNTYWIDE                               Charles "Buddy" Roemer                Precinct 9                                             01 
01070020010000002REP       President POLK COUNTYWIDE                               Charles "Buddy" Roemer                Precinct 10                                            01 
01070020011000000REP       President POLK COUNTYWIDE                               Charles "Buddy" Roemer                Precinct 11                                            01 
01070020012000000REP       President POLK COUNTYWIDE                               Charles "Buddy" Roemer                Precinct 12                                            01 
01070020013000000REP       President POLK COUNTYWIDE                               Charles "Buddy" Roemer                Precinct 13                                            01 
01070020014000001REP       President POLK COUNTYWIDE                               Charles "Buddy" Roemer                Precinct 14                                            01 
01070020015000002REP       President POLK COUNTYWIDE                               Charles "Buddy" Roemer                Precinct 15                                            01 
01070020016000006REP       President POLK COUNTYWIDE                               Charles "Buddy" Roemer                Precinct 16                                            01 
01070020017000000REP       President POLK COUNTYWIDE                               Charles "Buddy" Roemer                Precinct 17                                            01 
01070020018000000REP       President POLK COUNTYWIDE                               Charles "Buddy" Roemer                Precinct 18                                            01 
01070020019000000REP       President POLK COUNTYWIDE                               Charles "Buddy" Roemer                Precinct 19                                            01 
01070020020000002REP       President POLK COUNTYWIDE                               Charles "Buddy" Roemer                Precinct 20                                            01 
01070020021000000REP       President POLK COUNTYWIDE                               Charles "Buddy" Roemer                Precinct 21                                            01 
01070030001000002REP       President POLK COUNTYWIDE                               Newt Gingrich                         Precinct 1                                             01 
01070030002000004REP       President POLK COUNTYWIDE                               Newt Gingrich                         Precinct 2                                             01 
01070030003000012REP       President POLK COUNTYWIDE                               Newt Gingrich                         Precinct 3                                             01 
01070030004000007REP       President POLK COUNTYWIDE                               Newt Gingrich                         Precinct 4                                             01 
01070030005000015REP       President POLK COUNTYWIDE                               Newt Gingrich                         Precinct 5                                             01 
01070030006000024REP       President POLK COUNTYWIDE                               Newt Gingrich                         Precinct 6                                             01 
01070030007000006REP       President POLK COUNTYWIDE                               Newt Gingrich                         Precinct 7                                             01 
01070030008000003REP       President POLK COUNTYWIDE                               Newt Gingrich                         Precinct 8                                             01 
01070030009000003REP       President POLK COUNTYWIDE                               Newt Gingrich                         Precinct 9                                             01 
01070030010000021REP       President POLK COUNTYWIDE                               Newt Gingrich                         Precinct 10                                            01 
01070030011000007REP       President POLK COUNTYWIDE                               Newt Gingrich                         Precinct 11                                            01 
01070030012000001REP       President POLK COUNTYWIDE                               Newt Gingrich                         Precinct 12                                            01 
01070030013000003REP       President POLK COUNTYWIDE                               Newt Gingrich                         Precinct 13                                            01 
01070030014000007REP       President POLK COUNTYWIDE                               Newt Gingrich                         Precinct 14                                            01 
01070030015000006REP       President POLK COUNTYWIDE                               Newt Gingrich                         Precinct 15                                            01 
01070030016000029REP       President POLK COUNTYWIDE                               Newt Gingrich                         Precinct 16                                            01 
01070030017000007REP       President POLK COUNTYWIDE                               Newt Gingrich                         Precinct 17                                            01 
01070030018000000REP       President POLK COUNTYWIDE                               Newt Gingrich                         Precinct 18                                            01 
01070030019000021REP       President POLK COUNTYWIDE                               Newt Gingrich                         Precinct 19                                            01 
01070030020000021REP       President POLK COUNTYWIDE                               Newt Gingrich                         Precinct 20                                            01 
01070030021000008REP       President POLK COUNTYWIDE                               Newt Gingrich                         Precinct 21                                            01 
01070040001000036REP       President POLK COUNTYWIDE                               Mitt Romney                           Precinct 1                                             01 
01070040002000050REP       President POLK COUNTYWIDE                               Mitt Romney                           Precinct 2                                             01 
01070040003000171REP       President POLK COUNTYWIDE                               Mitt Romney                           Precinct 3                                             01 
01070040004000204REP       President POLK COUNTYWIDE                               Mitt Romney                           Precinct 4                                             01 
01070040005000354REP       President POLK COUNTYWIDE                               Mitt Romney                           Precinct 5                                             01 
01070040006000436REP       President POLK COUNTYWIDE                               Mitt Romney                           Precinct 6                                             01 
01070040007000074REP       President POLK COUNTYWIDE                               Mitt Romney                           Precinct 7                                             01 
01070040008000072REP       President POLK COUNTYWIDE                               Mitt Romney                           Precinct 8                                             01 
01070040009000107REP       President POLK COUNTYWIDE                               Mitt Romney                           Precinct 9                                             01 
01070040010000228REP       President POLK COUNTYWIDE                               Mitt Romney                           Precinct 10                                            01 
01070040011000058REP       President POLK COUNTYWIDE                               Mitt Romney                           Precinct 11                                            01 
01070040012000006REP       President POLK COUNTYWIDE                               Mitt Romney                           Precinct 12                                            01 
01070040013000030REP       President POLK COUNTYWIDE                               Mitt Romney                           Precinct 13                                            01 
01070040014000084REP       President POLK COUNTYWIDE                               Mitt Romney                           Precinct 14                                            01 
01070040015000086REP       President POLK COUNTYWIDE                               Mitt Romney                           Precinct 15                                            01 
01070040016000520REP       President POLK COUNTYWIDE                               Mitt Romney                           Precinct 16                                            01 
01070040017000119REP       President POLK COUNTYWIDE                               Mitt Romney                           Precinct 17                                            01 
01070040018000016REP       President POLK COUNTYWIDE                               Mitt Romney                           Precinct 18                                            01 
01070040019000534REP       President POLK COUNTYWIDE                               Mitt Romney                           Precinct 19                                            01 
01070040020000452REP       President POLK COUNTYWIDE                               Mitt Romney                           Precinct 20                                            01 
01070040021000103REP       President POLK COUNTYWIDE                               Mitt Romney                           Precinct 21                                            01 
01070050001000004REP       President POLK COUNTYWIDE                               Rick Santorum                         Precinct 1                                             01 
01070050002000003REP       President POLK COUNTYWIDE                               Rick Santorum                         Precinct 2                                             01 
01070050003000023REP       President POLK COUNTYWIDE                               Rick Santorum                         Precinct 3                                             01 
01070050004000014REP       President POLK COUNTYWIDE                               Rick Santorum                         Precinct 4                                             01 
01070050005000027REP       President POLK COUNTYWIDE                               Rick Santorum                         Precinct 5                                             01 
01070050006000031REP       President POLK COUNTYWIDE                               Rick Santorum                         Precinct 6                                             01 
01070050007000006REP       President POLK COUNTYWIDE                               Rick Santorum                         Precinct 7                                             01 
01070050008000013REP       President POLK COUNTYWIDE                               Rick Santorum                         Precinct 8                                             01 
01070050009000010REP       President POLK COUNTYWIDE                               Rick Santorum                         Precinct 9                                             01 
01070050010000031REP       President POLK COUNTYWIDE                               Rick Santorum                         Precinct 10                                            01 
01070050011000001REP       President POLK COUNTYWIDE                               Rick Santorum                         Precinct 11                                            01 
01070050012000001REP       President POLK COUNTYWIDE                               Rick Santorum                         Precinct 12                                            01 
01070050013000003REP       President POLK COUNTYWIDE                               Rick Santorum                         Precinct 13                                            01 
01070050014000010REP       President POLK COUNTYWIDE                               Rick Santorum                         Precinct 14                                            01 
01070050015000009REP       President POLK COUNTYWIDE                               Rick Santorum                         Precinct 15                                            01 
01070050016000055REP       President POLK COUNTYWIDE                               Rick Santorum                         Precinct 16                                            01 
01070050017000010REP       President POLK COUNTYWIDE                               Rick Santorum                         Precinct 17                                            01 
01070050018000002REP       President POLK COUNTYWIDE                               Rick Santorum                         Precinct 18                                            01 
01070050019000026REP       President POLK COUNTYWIDE                               Rick Santorum                         Precinct 19                                            01 
01070050020000032REP       President POLK COUNTYWIDE                               Rick Santorum                         Precinct 20                                            01 
01070050021000007REP       President POLK COUNTYWIDE                               Rick Santorum                         Precinct 21                                            01 
01070060001000000REP       President POLK COUNTYWIDE                               John Davis                            Precinct 1                                             01 
01070060002000000REP       President POLK COUNTYWIDE                               John Davis                            Precinct 2                                             01 
01070060003000002REP       President POLK COUNTYWIDE                               John Davis                            Precinct 3                                             01 
01070060004000000REP       President POLK COUNTYWIDE                               John Davis                            Precinct 4                                             01 
01070060005000000REP       President POLK COUNTYWIDE                               John Davis                            Precinct 5                                             01 
01070060006000003REP       President POLK COUNTYWIDE                               John Davis                            Precinct 6                                             01 
01070060007000000REP       President POLK COUNTYWIDE                               John Davis                            Precinct 7                                             01 
01070060008000002REP       President POLK COUNTYWIDE                               John Davis                            Precinct 8                                             01 
01070060009000003REP       President POLK COUNTYWIDE                               John Davis                            Precinct 9                                             01 
01070060010000001REP       President POLK COUNTYWIDE                               John Davis                            Precinct 10                                            01 
01070060011000000REP       President POLK COUNTYWIDE                               John Davis                            Precinct 11                                            01 
01070060012000000REP       President POLK COUNTYWIDE                               John Davis                            Precinct 12                                            01 
01070060013000000REP       President POLK COUNTYWIDE                               John Davis                            Precinct 13                                            01 
01070060014000001REP       President POLK COUNTYWIDE                               John Davis                            Precinct 14                                            01 
01070060015000000REP       President POLK COUNTYWIDE                               John Davis                            Precinct 15                                            01 
01070060016000001REP       President POLK COUNTYWIDE                               John Davis                            Precinct 16                                            01 
01070060017000000REP       President POLK COUNTYWIDE                               John Davis                            Precinct 17                                            01 
01070060018000000REP       President POLK COUNTYWIDE                               John Davis                            Precinct 18                                            01 
01070060019000000REP       President POLK COUNTYWIDE                               John Davis                            Precinct 19                                            01 
01070060020000000REP       President POLK COUNTYWIDE                               John Davis                            Precinct 20                                            01 
01070060021000001REP       President POLK COUNTYWIDE                               John Davis                            Precinct 21                                            01 
01070070001000009REP       President POLK COUNTYWIDE                               Ron Paul                              Precinct 1                                             01 
01070070002000009REP       President POLK COUNTYWIDE                               Ron Paul                              Precinct 2                                             01 
01070070003000028REP       President POLK COUNTYWIDE                               Ron Paul                              Precinct 3                                             01 
01070070004000031REP       President POLK COUNTYWIDE                               Ron Paul                              Precinct 4                                             01 
01070070005000058REP       President POLK COUNTYWIDE                               Ron Paul                              Precinct 5                                             01 
01070070006000097REP       President POLK COUNTYWIDE                               Ron Paul                              Precinct 6                                             01 
01070070007000024REP       President POLK COUNTYWIDE                               Ron Paul                              Precinct 7                                             01 
01070070008000017REP       President POLK COUNTYWIDE                               Ron Paul                              Precinct 8                                             01 
01070070009000018REP       President POLK COUNTYWIDE                               Ron Paul                              Precinct 9                                             01 
01070070010000036REP       President POLK COUNTYWIDE                               Ron Paul                              Precinct 10                                            01 
01070070011000005REP       President POLK COUNTYWIDE                               Ron Paul                              Precinct 11                                            01 
01070070012000001REP       President POLK COUNTYWIDE                               Ron Paul                              Precinct 12                                            01 
01070070013000005REP       President POLK COUNTYWIDE                               Ron Paul                              Precinct 13                                            01 
01070070014000014REP       President POLK COUNTYWIDE                               Ron Paul                              Precinct 14                                            01 
01070070015000021REP       President POLK COUNTYWIDE                               Ron Paul                              Precinct 15                                            01 
01070070016000098REP       President POLK COUNTYWIDE                               Ron Paul                              Precinct 16                                            01 
01070070017000014REP       President POLK COUNTYWIDE                               Ron Paul                              Precinct 17                                            01 
01070070018000002REP       President POLK COUNTYWIDE                               Ron Paul                              Precinct 18                                            01 
01070070019000047REP       President POLK COUNTYWIDE                               Ron Paul                              Precinct 19                                            01 
01070070020000045REP       President POLK COUNTYWIDE                               Ron Paul                              Precinct 20                                            01 
01070070021000027REP       President POLK COUNTYWIDE                               Ron Paul                              Precinct 21                                            01 
01070080001000000REP       President POLK COUNTYWIDE                               Jon Huntsman                          Precinct 1                                             01 
01070080002000001REP       President POLK COUNTYWIDE                               Jon Huntsman                          Precinct 2                                             01 
01070080003000000REP       President POLK COUNTYWIDE                               Jon Huntsman                          Precinct 3                                             01 
01070080004000000REP       President POLK COUNTYWIDE                               Jon Huntsman                          Precinct 4                                             01 
01070080005000005REP       President POLK COUNTYWIDE                               Jon Huntsman                          Precinct 5                                             01 
01070080006000001REP       President POLK COUNTYWIDE                               Jon Huntsman                          Precinct 6                                             01 
01070080007000001REP       President POLK COUNTYWIDE                               Jon Huntsman                          Precinct 7                                             01 
01070080008000002REP       President POLK COUNTYWIDE                               Jon Huntsman                          Precinct 8                                             01 
01070080009000000REP       President POLK COUNTYWIDE                               Jon Huntsman                          Precinct 9                                             01 
01070080010000000REP       President POLK COUNTYWIDE                               Jon Huntsman                          Precinct 10                                            01 
01070080011000000REP       President POLK COUNTYWIDE                               Jon Huntsman                          Precinct 11                                            01 
01070080012000000REP       President POLK COUNTYWIDE                               Jon Huntsman                          Precinct 12                                            01 
01070080013000000REP       President POLK COUNTYWIDE                               Jon Huntsman                          Precinct 13                                            01 
01070080014000001REP       President POLK COUNTYWIDE                               Jon Huntsman                          Precinct 14                                            01 
01070080015000000REP       President POLK COUNTYWIDE                               Jon Huntsman                          Precinct 15                                            01 
01070080016000002REP       President POLK COUNTYWIDE                               Jon Huntsman                          Precinct 16                                            01 
01070080017000001REP       President POLK COUNTYWIDE                               Jon Huntsman                          Precinct 17                                            01 
01070080018000000REP       President POLK COUNTYWIDE                               Jon Huntsman                          Precinct 18                                            01 
01070080019000008REP       President POLK COUNTYWIDE                               Jon Huntsman                          Precinct 19                                            01 
01070080020000001REP       President POLK COUNTYWIDE                               Jon Huntsman                          Precinct 20                                            01 
01070080021000000REP       President POLK COUNTYWIDE                               Jon Huntsman                          Precinct 21                                            01 
01070090001000004REP       President POLK COUNTYWIDE                               Uncommitted                           Precinct 1                                             01 
01070090002000002REP       President POLK COUNTYWIDE                               Uncommitted                           Precinct 2                                             01 
01070090003000011REP       President POLK COUNTYWIDE                               Uncommitted                           Precinct 3                                             01 
01070090004000011REP       President POLK COUNTYWIDE                               Uncommitted                           Precinct 4                                             01 
01070090005000017REP       President POLK COUNTYWIDE                               Uncommitted                           Precinct 5                                             01 
01070090006000021REP       President POLK COUNTYWIDE                               Uncommitted                           Precinct 6                                             01 
01070090007000005REP       President POLK COUNTYWIDE                               Uncommitted                           Precinct 7                                             01 
01070090008000006REP       President POLK COUNTYWIDE                               Uncommitted                           Precinct 8                                             01 
01070090009000011REP       President POLK COUNTYWIDE                               Uncommitted                           Precinct 9                                             01 
01070090010000021REP       President POLK COUNTYWIDE                               Uncommitted                           Precinct 10                                            01 
01070090011000004REP       President POLK COUNTYWIDE                               Uncommitted                           Precinct 11                                            01 
01070090012000003REP       President POLK COUNTYWIDE                               Uncommitted                           Precinct 12                                            01 
01070090013000002REP       President POLK COUNTYWIDE                               Uncommitted                           Precinct 13                                            01 
01070090014000009REP       President POLK COUNTYWIDE                               Uncommitted                           Precinct 14                                            01 
01070090015000008REP       President POLK COUNTYWIDE                               Uncommitted                           Precinct 15                                            01 
01070090016000039REP       President POLK COUNTYWIDE                               Uncommitted                           Precinct 16                                            01 
01070090017000007REP       President POLK COUNTYWIDE                               Uncommitted                           Precinct 17                                            01 
01070090018000001REP       President POLK COUNTYWIDE                               Uncommitted                           Precinct 18                                            01 
01070090019000016REP       President POLK COUNTYWIDE                               Uncommitted                           Precinct 19                                            01 
01070090020000028REP       President POLK COUNTYWIDE                               Uncommitted                           Precinct 20                                            01 
01070090021000009REP       President POLK COUNTYWIDE                               Uncommitted                           Precinct 21                                            01 
01070100001000000REP       President POLK COUNTYWIDE                               OVER VOTES                            Precinct 1                                             01 
01070100002000000REP       President POLK COUNTYWIDE                               OVER VOTES                            Precinct 2                                             01 
01070100003000000REP       President POLK COUNTYWIDE                               OVER VOTES                            Precinct 3                                             01 
01070100004000000REP       President POLK COUNTYWIDE                               OVER VOTES                            Precinct 4                                             01 
01070100005000000REP       President POLK COUNTYWIDE                               OVER VOTES                            Precinct 5                                             01 
01070100006000000REP       President POLK COUNTYWIDE                               OVER VOTES                            Precinct 6                                             01 
01070100007000000REP       President POLK COUNTYWIDE                               OVER VOTES                            Precinct 7                                             01 
01070100008000000REP       President POLK COUNTYWIDE                               OVER VOTES                            Precinct 8                                             01 
01070100009000000REP       President POLK COUNTYWIDE                               OVER VOTES                            Precinct 9                                             01 
01070100010000000REP       President POLK COUNTYWIDE                               OVER VOTES                            Precinct 10                                            01 
01070100011000000REP       President POLK COUNTYWIDE                               OVER VOTES                            Precinct 11                                            01 
01070100012000000REP       President POLK COUNTYWIDE                               OVER VOTES                            Precinct 12                                            01 
01070100013000000REP       President POLK COUNTYWIDE                               OVER VOTES                            Precinct 13                                            01 
01070100014000000REP       President POLK COUNTYWIDE                               OVER VOTES                            Precinct 14                                            01 
01070100015000000REP       President POLK COUNTYWIDE                               OVER VOTES                            Precinct 15                                            01 
01070100016000000REP       President POLK COUNTYWIDE                               OVER VOTES                            Precinct 16                                            01 
01070100017000000REP       President POLK COUNTYWIDE                               OVER VOTES                            Precinct 17                                            01 
01070100018000000REP       President POLK COUNTYWIDE                               OVER VOTES                            Precinct 18                                            01 
01070100019000000REP       President POLK COUNTYWIDE                               OVER VOTES                            Precinct 19                                            01 
01070100020000000REP       President POLK COUNTYWIDE                               OVER VOTES                            Precinct 20                                            01 
01070100021000000REP       President POLK COUNTYWIDE                               OVER VOTES                            Precinct 21                                            01 
01070110001000001REP       President POLK COUNTYWIDE                               UNDER VOTES                           Precinct 1                                             01 
01070110002000003REP       President POLK COUNTYWIDE                               UNDER VOTES                           Precinct 2                                             01 
01070110003000023REP       President POLK COUNTYWIDE                               UNDER VOTES                           Precinct 3                                             01 
01070110004000006REP       President POLK COUNTYWIDE                               UNDER VOTES                           Precinct 4                                             01 
01070110005000016REP       President POLK COUNTYWIDE                               UNDER VOTES                           Precinct 5                                             01 
01070110006000010REP       President POLK COUNTYWIDE                               UNDER VOTES                           Precinct 6                                             01 
01070110007000007REP       President POLK COUNTYWIDE                               UNDER VOTES                           Precinct 7                                             01 
01070110008000006REP       President POLK COUNTYWIDE                               UNDER VOTES                           Precinct 8                                             01 
01070110009000016REP       President POLK COUNTYWIDE                               UNDER VOTES                           Precinct 9                                             01 
01070110010000024REP       President POLK COUNTYWIDE                               UNDER VOTES                           Precinct 10                                            01 
01070110011000005REP       President POLK COUNTYWIDE                               UNDER VOTES                           Precinct 11                                            01 
01070110012000003REP       President POLK COUNTYWIDE                               UNDER VOTES                           Precinct 12                                            01 
01070110013000001REP       President POLK COUNTYWIDE                               UNDER VOTES                           Precinct 13                                            01 
01070110014000004REP       President POLK COUNTYWIDE                               UNDER VOTES                           Precinct 14                                            01 
01070110015000004REP       President POLK COUNTYWIDE                               UNDER VOTES                           Precinct 15                                            01 
01070110016000038REP       President POLK COUNTYWIDE                               UNDER VOTES                           Precinct 16                                            01 
01070110017000003REP       President POLK COUNTYWIDE                               UNDER VOTES                           Precinct 17                                            01 
01070110018000005REP       President POLK COUNTYWIDE                               UNDER VOTES                           Precinct 18                                            01 
01070110019000005REP       President POLK COUNTYWIDE                               UNDER VOTES                           Precinct 19                                            01 
01070110020000005REP       President POLK COUNTYWIDE                               UNDER VOTES                           Precinct 20                                            01 
01070110021000014REP       President POLK COUNTYWIDE                               UNDER VOTES                           Precinct 21                                            01 
01080010001000001REP       United States Senator POLK COUNTYWIDE                   Ben Gambini                           Precinct 1                                             01 
01080010002000000REP       United States Senator POLK COUNTYWIDE                   Ben Gambini                           Precinct 2                                             01 
01080010003000001REP       United States Senator POLK COUNTYWIDE                   Ben Gambini                           Precinct 3                                             01 
01080010004000000REP       United States Senator POLK COUNTYWIDE                   Ben Gambini                           Precinct 4                                             01 
01080010005000006REP       United States Senator POLK COUNTYWIDE                   Ben Gambini                           Precinct 5                                             01 
01080010006000003REP       United States Senator POLK COUNTYWIDE                   Ben Gambini                           Precinct 6                                             01 
01080010007000002REP       United States Senator POLK COUNTYWIDE                   Ben Gambini                           Precinct 7                                             01 
01080010008000002REP       United States Senator POLK COUNTYWIDE                   Ben Gambini                           Precinct 8                                             01 
01080010009000002REP       United States Senator POLK COUNTYWIDE                   Ben Gambini                           Precinct 9                                             01 
01080010010000003REP       United States Senator POLK COUNTYWIDE                   Ben Gambini                           Precinct 10                                            01 
01080010011000000REP       United States Senator POLK COUNTYWIDE                   Ben Gambini                           Precinct 11                                            01 
01080010012000001REP       United States Senator POLK COUNTYWIDE                   Ben Gambini                           Precinct 12                                            01 
01080010013000000REP       United States Senator POLK COUNTYWIDE                   Ben Gambini                           Precinct 13                                            01 
01080010014000000REP       United States Senator POLK COUNTYWIDE                   Ben Gambini                           Precinct 14                                            01 
01080010015000002REP       United States Senator POLK COUNTYWIDE                   Ben Gambini                           Precinct 15                                            01 
01080010016000005REP       United States Senator POLK COUNTYWIDE                   Ben Gambini                           Precinct 16                                            01 
01080010017000001REP       United States Senator POLK COUNTYWIDE                   Ben Gambini                           Precinct 17                                            01 
01080010018000000REP       United States Senator POLK COUNTYWIDE                   Ben Gambini                           Precinct 18                                            01 
01080010019000013REP       United States Senator POLK COUNTYWIDE                   Ben Gambini                           Precinct 19                                            01 
01080010020000015REP       United States Senator POLK COUNTYWIDE                   Ben Gambini                           Precinct 20                                            01 
01080010021000000REP       United States Senator POLK COUNTYWIDE                   Ben Gambini                           Precinct 21                                            01 
01080020001000002REP       United States Senator POLK COUNTYWIDE                   Glenn Addison                         Precinct 1                                             01 
01080020002000000REP       United States Senator POLK COUNTYWIDE                   Glenn Addison                         Precinct 2                                             01 
01080020003000011REP       United States Senator POLK COUNTYWIDE                   Glenn Addison                         Precinct 3                                             01 
01080020004000002REP       United States Senator POLK COUNTYWIDE                   Glenn Addison                         Precinct 4                                             01 
01080020005000017REP       United States Senator POLK COUNTYWIDE                   Glenn Addison                         Precinct 5                                             01 
01080020006000029REP       United States Senator POLK COUNTYWIDE                   Glenn Addison                         Precinct 6                                             01 
01080020007000007REP       United States Senator POLK COUNTYWIDE                   Glenn Addison                         Precinct 7                                             01 
01080020008000000REP       United States Senator POLK COUNTYWIDE                   Glenn Addison                         Precinct 8                                             01 
01080020009000003REP       United States Senator POLK COUNTYWIDE                   Glenn Addison                         Precinct 9                                             01 
01080020010000007REP       United States Senator POLK COUNTYWIDE                   Glenn Addison                         Precinct 10                                            01 
01080020011000005REP       United States Senator POLK COUNTYWIDE                   Glenn Addison                         Precinct 11                                            01 
01080020012000000REP       United States Senator POLK COUNTYWIDE                   Glenn Addison                         Precinct 12                                            01 
01080020013000000REP       United States Senator POLK COUNTYWIDE                   Glenn Addison                         Precinct 13                                            01 
01080020014000005REP       United States Senator POLK COUNTYWIDE                   Glenn Addison                         Precinct 14                                            01 
01080020015000001REP       United States Senator POLK COUNTYWIDE                   Glenn Addison                         Precinct 15                                            01 
01080020016000016REP       United States Senator POLK COUNTYWIDE                   Glenn Addison                         Precinct 16                                            01 
01080020017000003REP       United States Senator POLK COUNTYWIDE                   Glenn Addison                         Precinct 17                                            01 
01080020018000003REP       United States Senator POLK COUNTYWIDE                   Glenn Addison                         Precinct 18                                            01 
01080020019000056REP       United States Senator POLK COUNTYWIDE                   Glenn Addison                         Precinct 19                                            01 
01080020020000050REP       United States Senator POLK COUNTYWIDE                   Glenn Addison                         Precinct 20                                            01 
01080020021000002REP       United States Senator POLK COUNTYWIDE                   Glenn Addison                         Precinct 21                                            01 
01080030001000016REP       United States Senator POLK COUNTYWIDE                   Ted Cruz                              Precinct 1                                             01 
01080030002000019REP       United States Senator POLK COUNTYWIDE                   Ted Cruz                              Precinct 2                                             01 
01080030003000067REP       United States Senator POLK COUNTYWIDE                   Ted Cruz                              Precinct 3                                             01 
01080030004000056REP       United States Senator POLK COUNTYWIDE                   Ted Cruz                              Precinct 4                                             01 
01080030005000120REP       United States Senator POLK COUNTYWIDE                   Ted Cruz                              Precinct 5                                             01 
01080030006000164REP       United States Senator POLK COUNTYWIDE                   Ted Cruz                              Precinct 6                                             01 
01080030007000018REP       United States Senator POLK COUNTYWIDE                   Ted Cruz                              Precinct 7                                             01 
01080030008000016REP       United States Senator POLK COUNTYWIDE                   Ted Cruz                              Precinct 8                                             01 
01080030009000019REP       United States Senator POLK COUNTYWIDE                   Ted Cruz                              Precinct 9                                             01 
01080030010000071REP       United States Senator POLK COUNTYWIDE                   Ted Cruz                              Precinct 10                                            01 
01080030011000015REP       United States Senator POLK COUNTYWIDE                   Ted Cruz                              Precinct 11                                            01 
01080030012000003REP       United States Senator POLK COUNTYWIDE                   Ted Cruz                              Precinct 12                                            01 
01080030013000009REP       United States Senator POLK COUNTYWIDE                   Ted Cruz                              Precinct 13                                            01 
01080030014000034REP       United States Senator POLK COUNTYWIDE                   Ted Cruz                              Precinct 14                                            01 
01080030015000039REP       United States Senator POLK COUNTYWIDE                   Ted Cruz                              Precinct 15                                            01 
01080030016000178REP       United States Senator POLK COUNTYWIDE                   Ted Cruz                              Precinct 16                                            01 
01080030017000033REP       United States Senator POLK COUNTYWIDE                   Ted Cruz                              Precinct 17                                            01 
01080030018000002REP       United States Senator POLK COUNTYWIDE                   Ted Cruz                              Precinct 18                                            01 
01080030019000122REP       United States Senator POLK COUNTYWIDE                   Ted Cruz                              Precinct 19                                            01 
01080030020000104REP       United States Senator POLK COUNTYWIDE                   Ted Cruz                              Precinct 20                                            01 
01080030021000043REP       United States Senator POLK COUNTYWIDE                   Ted Cruz                              Precinct 21                                            01 
01080040001000000REP       United States Senator POLK COUNTYWIDE                   Lela Pittenger                        Precinct 1                                             01 
01080040002000003REP       United States Senator POLK COUNTYWIDE                   Lela Pittenger                        Precinct 2                                             01 
01080040003000004REP       United States Senator POLK COUNTYWIDE                   Lela Pittenger                        Precinct 3                                             01 
01080040004000003REP       United States Senator POLK COUNTYWIDE                   Lela Pittenger                        Precinct 4                                             01 
01080040005000009REP       United States Senator POLK COUNTYWIDE                   Lela Pittenger                        Precinct 5                                             01 
01080040006000011REP       United States Senator POLK COUNTYWIDE                   Lela Pittenger                        Precinct 6                                             01 
01080040007000004REP       United States Senator POLK COUNTYWIDE                   Lela Pittenger                        Precinct 7                                             01 
01080040008000000REP       United States Senator POLK COUNTYWIDE                   Lela Pittenger                        Precinct 8                                             01 
01080040009000001REP       United States Senator POLK COUNTYWIDE                   Lela Pittenger                        Precinct 9                                             01 
01080040010000006REP       United States Senator POLK COUNTYWIDE                   Lela Pittenger                        Precinct 10                                            01 
01080040011000001REP       United States Senator POLK COUNTYWIDE                   Lela Pittenger                        Precinct 11                                            01 
01080040012000000REP       United States Senator POLK COUNTYWIDE                   Lela Pittenger                        Precinct 12                                            01 
01080040013000001REP       United States Senator POLK COUNTYWIDE                   Lela Pittenger                        Precinct 13                                            01 
01080040014000001REP       United States Senator POLK COUNTYWIDE                   Lela Pittenger                        Precinct 14                                            01 
01080040015000001REP       United States Senator POLK COUNTYWIDE                   Lela Pittenger                        Precinct 15                                            01 
01080040016000008REP       United States Senator POLK COUNTYWIDE                   Lela Pittenger                        Precinct 16                                            01 
01080040017000003REP       United States Senator POLK COUNTYWIDE                   Lela Pittenger                        Precinct 17                                            01 
01080040018000000REP       United States Senator POLK COUNTYWIDE                   Lela Pittenger                        Precinct 18                                            01 
01080040019000035REP       United States Senator POLK COUNTYWIDE                   Lela Pittenger                        Precinct 19                                            01 
01080040020000024REP       United States Senator POLK COUNTYWIDE                   Lela Pittenger                        Precinct 20                                            01 
01080040021000001REP       United States Senator POLK COUNTYWIDE                   Lela Pittenger                        Precinct 21                                            01 
01080050001000030REP       United States Senator POLK COUNTYWIDE                   David Dewhurst                        Precinct 1                                             01 
01080050002000038REP       United States Senator POLK COUNTYWIDE                   David Dewhurst                        Precinct 2                                             01 
01080050003000140REP       United States Senator POLK COUNTYWIDE                   David Dewhurst                        Precinct 3                                             01 
01080050004000159REP       United States Senator POLK COUNTYWIDE                   David Dewhurst                        Precinct 4                                             01 
01080050005000265REP       United States Senator POLK COUNTYWIDE                   David Dewhurst                        Precinct 5                                             01 
01080050006000301REP       United States Senator POLK COUNTYWIDE                   David Dewhurst                        Precinct 6                                             01 
01080050007000068REP       United States Senator POLK COUNTYWIDE                   David Dewhurst                        Precinct 7                                             01 
01080050008000075REP       United States Senator POLK COUNTYWIDE                   David Dewhurst                        Precinct 8                                             01 
01080050009000093REP       United States Senator POLK COUNTYWIDE                   David Dewhurst                        Precinct 9                                             01 
01080050010000195REP       United States Senator POLK COUNTYWIDE                   David Dewhurst                        Precinct 10                                            01 
01080050011000044REP       United States Senator POLK COUNTYWIDE                   David Dewhurst                        Precinct 11                                            01 
01080050012000004REP       United States Senator POLK COUNTYWIDE                   David Dewhurst                        Precinct 12                                            01 
01080050013000033REP       United States Senator POLK COUNTYWIDE                   David Dewhurst                        Precinct 13                                            01 
01080050014000070REP       United States Senator POLK COUNTYWIDE                   David Dewhurst                        Precinct 14                                            01 
01080050015000070REP       United States Senator POLK COUNTYWIDE                   David Dewhurst                        Precinct 15                                            01 
01080050016000436REP       United States Senator POLK COUNTYWIDE                   David Dewhurst                        Precinct 16                                            01 
01080050017000086REP       United States Senator POLK COUNTYWIDE                   David Dewhurst                        Precinct 17                                            01 
01080050018000015REP       United States Senator POLK COUNTYWIDE                   David Dewhurst                        Precinct 18                                            01 
01080050019000185REP       United States Senator POLK COUNTYWIDE                   David Dewhurst                        Precinct 19                                            01 
01080050020000179REP       United States Senator POLK COUNTYWIDE                   David Dewhurst                        Precinct 20                                            01 
01080050021000092REP       United States Senator POLK COUNTYWIDE                   David Dewhurst                        Precinct 21                                            01 
01080060001000000REP       United States Senator POLK COUNTYWIDE                   Joe Agris                             Precinct 1                                             01 
01080060002000001REP       United States Senator POLK COUNTYWIDE                   Joe Agris                             Precinct 2                                             01 
01080060003000002REP       United States Senator POLK COUNTYWIDE                   Joe Agris                             Precinct 3                                             01 
01080060004000001REP       United States Senator POLK COUNTYWIDE                   Joe Agris                             Precinct 4                                             01 
01080060005000004REP       United States Senator POLK COUNTYWIDE                   Joe Agris                             Precinct 5                                             01 
01080060006000002REP       United States Senator POLK COUNTYWIDE                   Joe Agris                             Precinct 6                                             01 
01080060007000000REP       United States Senator POLK COUNTYWIDE                   Joe Agris                             Precinct 7                                             01 
01080060008000002REP       United States Senator POLK COUNTYWIDE                   Joe Agris                             Precinct 8                                             01 
01080060009000001REP       United States Senator POLK COUNTYWIDE                   Joe Agris                             Precinct 9                                             01 
01080060010000001REP       United States Senator POLK COUNTYWIDE                   Joe Agris                             Precinct 10                                            01 
01080060011000000REP       United States Senator POLK COUNTYWIDE                   Joe Agris                             Precinct 11                                            01 
01080060012000000REP       United States Senator POLK COUNTYWIDE                   Joe Agris                             Precinct 12                                            01 
01080060013000000REP       United States Senator POLK COUNTYWIDE                   Joe Agris                             Precinct 13                                            01 
01080060014000000REP       United States Senator POLK COUNTYWIDE                   Joe Agris                             Precinct 14                                            01 
01080060015000002REP       United States Senator POLK COUNTYWIDE                   Joe Agris                             Precinct 15                                            01 
01080060016000002REP       United States Senator POLK COUNTYWIDE                   Joe Agris                             Precinct 16                                            01 
01080060017000000REP       United States Senator POLK COUNTYWIDE                   Joe Agris                             Precinct 17                                            01 
01080060018000000REP       United States Senator POLK COUNTYWIDE                   Joe Agris                             Precinct 18                                            01 
01080060019000001REP       United States Senator POLK COUNTYWIDE                   Joe Agris                             Precinct 19                                            01 
01080060020000001REP       United States Senator POLK COUNTYWIDE                   Joe Agris                             Precinct 20                                            01 
01080060021000000REP       United States Senator POLK COUNTYWIDE                   Joe Agris                             Precinct 21                                            01 
01080070001000000REP       United States Senator POLK COUNTYWIDE                   Curt Cleaver                          Precinct 1                                             01 
01080070002000000REP       United States Senator POLK COUNTYWIDE                   Curt Cleaver                          Precinct 2                                             01 
01080070003000000REP       United States Senator POLK COUNTYWIDE                   Curt Cleaver                          Precinct 3                                             01 
01080070004000001REP       United States Senator POLK COUNTYWIDE                   Curt Cleaver                          Precinct 4                                             01 
01080070005000001REP       United States Senator POLK COUNTYWIDE                   Curt Cleaver                          Precinct 5                                             01 
01080070006000001REP       United States Senator POLK COUNTYWIDE                   Curt Cleaver                          Precinct 6                                             01 
01080070007000000REP       United States Senator POLK COUNTYWIDE                   Curt Cleaver                          Precinct 7                                             01 
01080070008000001REP       United States Senator POLK COUNTYWIDE                   Curt Cleaver                          Precinct 8                                             01 
01080070009000002REP       United States Senator POLK COUNTYWIDE                   Curt Cleaver                          Precinct 9                                             01 
01080070010000002REP       United States Senator POLK COUNTYWIDE                   Curt Cleaver                          Precinct 10                                            01 
01080070011000000REP       United States Senator POLK COUNTYWIDE                   Curt Cleaver                          Precinct 11                                            01 
01080070012000000REP       United States Senator POLK COUNTYWIDE                   Curt Cleaver                          Precinct 12                                            01 
01080070013000000REP       United States Senator POLK COUNTYWIDE                   Curt Cleaver                          Precinct 13                                            01 
01080070014000000REP       United States Senator POLK COUNTYWIDE                   Curt Cleaver                          Precinct 14                                            01 
01080070015000002REP       United States Senator POLK COUNTYWIDE                   Curt Cleaver                          Precinct 15                                            01 
01080070016000001REP       United States Senator POLK COUNTYWIDE                   Curt Cleaver                          Precinct 16                                            01 
01080070017000001REP       United States Senator POLK COUNTYWIDE                   Curt Cleaver                          Precinct 17                                            01 
01080070018000000REP       United States Senator POLK COUNTYWIDE                   Curt Cleaver                          Precinct 18                                            01 
01080070019000009REP       United States Senator POLK COUNTYWIDE                   Curt Cleaver                          Precinct 19                                            01 
01080070020000004REP       United States Senator POLK COUNTYWIDE                   Curt Cleaver                          Precinct 20                                            01 
01080070021000001REP       United States Senator POLK COUNTYWIDE                   Curt Cleaver                          Precinct 21                                            01 
01080080001000004REP       United States Senator POLK COUNTYWIDE                   Tom Leppert                           Precinct 1                                             01 
01080080002000006REP       United States Senator POLK COUNTYWIDE                   Tom Leppert                           Precinct 2                                             01 
01080080003000013REP       United States Senator POLK COUNTYWIDE                   Tom Leppert                           Precinct 3                                             01 
01080080004000014REP       United States Senator POLK COUNTYWIDE                   Tom Leppert                           Precinct 4                                             01 
01080080005000035REP       United States Senator POLK COUNTYWIDE                   Tom Leppert                           Precinct 5                                             01 
01080080006000057REP       United States Senator POLK COUNTYWIDE                   Tom Leppert                           Precinct 6                                             01 
01080080007000006REP       United States Senator POLK COUNTYWIDE                   Tom Leppert                           Precinct 7                                             01 
01080080008000006REP       United States Senator POLK COUNTYWIDE                   Tom Leppert                           Precinct 8                                             01 
01080080009000008REP       United States Senator POLK COUNTYWIDE                   Tom Leppert                           Precinct 9                                             01 
01080080010000019REP       United States Senator POLK COUNTYWIDE                   Tom Leppert                           Precinct 10                                            01 
01080080011000004REP       United States Senator POLK COUNTYWIDE                   Tom Leppert                           Precinct 11                                            01 
01080080012000000REP       United States Senator POLK COUNTYWIDE                   Tom Leppert                           Precinct 12                                            01 
01080080013000000REP       United States Senator POLK COUNTYWIDE                   Tom Leppert                           Precinct 13                                            01 
01080080014000008REP       United States Senator POLK COUNTYWIDE                   Tom Leppert                           Precinct 14                                            01 
01080080015000001REP       United States Senator POLK COUNTYWIDE                   Tom Leppert                           Precinct 15                                            01 
01080080016000049REP       United States Senator POLK COUNTYWIDE                   Tom Leppert                           Precinct 16                                            01 
01080080017000012REP       United States Senator POLK COUNTYWIDE                   Tom Leppert                           Precinct 17                                            01 
01080080018000003REP       United States Senator POLK COUNTYWIDE                   Tom Leppert                           Precinct 18                                            01 
01080080019000044REP       United States Senator POLK COUNTYWIDE                   Tom Leppert                           Precinct 19                                            01 
01080080020000039REP       United States Senator POLK COUNTYWIDE                   Tom Leppert                           Precinct 20                                            01 
01080080021000010REP       United States Senator POLK COUNTYWIDE                   Tom Leppert                           Precinct 21                                            01 
01080090001000001REP       United States Senator POLK COUNTYWIDE                   Craig James                           Precinct 1                                             01 
01080090002000002REP       United States Senator POLK COUNTYWIDE                   Craig James                           Precinct 2                                             01 
01080090003000008REP       United States Senator POLK COUNTYWIDE                   Craig James                           Precinct 3                                             01 
01080090004000014REP       United States Senator POLK COUNTYWIDE                   Craig James                           Precinct 4                                             01 
01080090005000014REP       United States Senator POLK COUNTYWIDE                   Craig James                           Precinct 5                                             01 
01080090006000019REP       United States Senator POLK COUNTYWIDE                   Craig James                           Precinct 6                                             01 
01080090007000007REP       United States Senator POLK COUNTYWIDE                   Craig James                           Precinct 7                                             01 
01080090008000005REP       United States Senator POLK COUNTYWIDE                   Craig James                           Precinct 8                                             01 
01080090009000019REP       United States Senator POLK COUNTYWIDE                   Craig James                           Precinct 9                                             01 
01080090010000022REP       United States Senator POLK COUNTYWIDE                   Craig James                           Precinct 10                                            01 
01080090011000003REP       United States Senator POLK COUNTYWIDE                   Craig James                           Precinct 11                                            01 
01080090012000003REP       United States Senator POLK COUNTYWIDE                   Craig James                           Precinct 12                                            01 
01080090013000001REP       United States Senator POLK COUNTYWIDE                   Craig James                           Precinct 13                                            01 
01080090014000007REP       United States Senator POLK COUNTYWIDE                   Craig James                           Precinct 14                                            01 
01080090015000009REP       United States Senator POLK COUNTYWIDE                   Craig James                           Precinct 15                                            01 
01080090016000026REP       United States Senator POLK COUNTYWIDE                   Craig James                           Precinct 16                                            01 
01080090017000007REP       United States Senator POLK COUNTYWIDE                   Craig James                           Precinct 17                                            01 
01080090018000000REP       United States Senator POLK COUNTYWIDE                   Craig James                           Precinct 18                                            01 
01080090019000032REP       United States Senator POLK COUNTYWIDE                   Craig James                           Precinct 19                                            01 
01080090020000047REP       United States Senator POLK COUNTYWIDE                   Craig James                           Precinct 20                                            01 
01080090021000005REP       United States Senator POLK COUNTYWIDE                   Craig James                           Precinct 21                                            01 
01080100001000000REP       United States Senator POLK COUNTYWIDE                   OVER VOTES                            Precinct 1                                             01 
01080100002000000REP       United States Senator POLK COUNTYWIDE                   OVER VOTES                            Precinct 2                                             01 
01080100003000000REP       United States Senator POLK COUNTYWIDE                   OVER VOTES                            Precinct 3                                             01 
01080100004000000REP       United States Senator POLK COUNTYWIDE                   OVER VOTES                            Precinct 4                                             01 
01080100005000000REP       United States Senator POLK COUNTYWIDE                   OVER VOTES                            Precinct 5                                             01 
01080100006000000REP       United States Senator POLK COUNTYWIDE                   OVER VOTES                            Precinct 6                                             01 
01080100007000000REP       United States Senator POLK COUNTYWIDE                   OVER VOTES                            Precinct 7                                             01 
01080100008000000REP       United States Senator POLK COUNTYWIDE                   OVER VOTES                            Precinct 8                                             01 
01080100009000000REP       United States Senator POLK COUNTYWIDE                   OVER VOTES                            Precinct 9                                             01 
01080100010000000REP       United States Senator POLK COUNTYWIDE                   OVER VOTES                            Precinct 10                                            01 
01080100011000000REP       United States Senator POLK COUNTYWIDE                   OVER VOTES                            Precinct 11                                            01 
01080100012000000REP       United States Senator POLK COUNTYWIDE                   OVER VOTES                            Precinct 12                                            01 
01080100013000000REP       United States Senator POLK COUNTYWIDE                   OVER VOTES                            Precinct 13                                            01 
01080100014000000REP       United States Senator POLK COUNTYWIDE                   OVER VOTES                            Precinct 14                                            01 
01080100015000000REP       United States Senator POLK COUNTYWIDE                   OVER VOTES                            Precinct 15                                            01 
01080100016000000REP       United States Senator POLK COUNTYWIDE                   OVER VOTES                            Precinct 16                                            01 
01080100017000000REP       United States Senator POLK COUNTYWIDE                   OVER VOTES                            Precinct 17                                            01 
01080100018000000REP       United States Senator POLK COUNTYWIDE                   OVER VOTES                            Precinct 18                                            01 
01080100019000000REP       United States Senator POLK COUNTYWIDE                   OVER VOTES                            Precinct 19                                            01 
01080100020000000REP       United States Senator POLK COUNTYWIDE                   OVER VOTES                            Precinct 20                                            01 
01080100021000000REP       United States Senator POLK COUNTYWIDE                   OVER VOTES                            Precinct 21                                            01 
01080110001000003REP       United States Senator POLK COUNTYWIDE                   UNDER VOTES                           Precinct 1                                             01 
01080110002000003REP       United States Senator POLK COUNTYWIDE                   UNDER VOTES                           Precinct 2                                             01 
01080110003000032REP       United States Senator POLK COUNTYWIDE                   UNDER VOTES                           Precinct 3                                             01 
01080110004000024REP       United States Senator POLK COUNTYWIDE                   UNDER VOTES                           Precinct 4                                             01 
01080110005000034REP       United States Senator POLK COUNTYWIDE                   UNDER VOTES                           Precinct 5                                             01 
01080110006000040REP       United States Senator POLK COUNTYWIDE                   UNDER VOTES                           Precinct 6                                             01 
01080110007000012REP       United States Senator POLK COUNTYWIDE                   UNDER VOTES                           Precinct 7                                             01 
01080110008000015REP       United States Senator POLK COUNTYWIDE                   UNDER VOTES                           Precinct 8                                             01 
01080110009000026REP       United States Senator POLK COUNTYWIDE                   UNDER VOTES                           Precinct 9                                             01 
01080110010000044REP       United States Senator POLK COUNTYWIDE                   UNDER VOTES                           Precinct 10                                            01 
01080110011000010REP       United States Senator POLK COUNTYWIDE                   UNDER VOTES                           Precinct 11                                            01 
01080110012000005REP       United States Senator POLK COUNTYWIDE                   UNDER VOTES                           Precinct 12                                            01 
01080110013000001REP       United States Senator POLK COUNTYWIDE                   UNDER VOTES                           Precinct 13                                            01 
01080110014000009REP       United States Senator POLK COUNTYWIDE                   UNDER VOTES                           Precinct 14                                            01 
01080110015000010REP       United States Senator POLK COUNTYWIDE                   UNDER VOTES                           Precinct 15                                            01 
01080110016000075REP       United States Senator POLK COUNTYWIDE                   UNDER VOTES                           Precinct 16                                            01 
01080110017000016REP       United States Senator POLK COUNTYWIDE                   UNDER VOTES                           Precinct 17                                            01 
01080110018000003REP       United States Senator POLK COUNTYWIDE                   UNDER VOTES                           Precinct 18                                            01 
01080110019000164REP       United States Senator POLK COUNTYWIDE                   UNDER VOTES                           Precinct 19                                            01 
01080110020000130REP       United States Senator POLK COUNTYWIDE                   UNDER VOTES                           Precinct 20                                            01 
01080110021000019REP       United States Senator POLK COUNTYWIDE                   UNDER VOTES                           Precinct 21                                            01 
01090010001000013REP       United States Rep, District 36 POLK COUNTYWIDE          Steve Stockman                        Precinct 1                                             01 
01090010002000015REP       United States Rep, District 36 POLK COUNTYWIDE          Steve Stockman                        Precinct 2                                             01 
01090010003000037REP       United States Rep, District 36 POLK COUNTYWIDE          Steve Stockman                        Precinct 3                                             01 
01090010004000037REP       United States Rep, District 36 POLK COUNTYWIDE          Steve Stockman                        Precinct 4                                             01 
01090010005000075REP       United States Rep, District 36 POLK COUNTYWIDE          Steve Stockman                        Precinct 5                                             01 
01090010006000130REP       United States Rep, District 36 POLK COUNTYWIDE          Steve Stockman                        Precinct 6                                             01 
01090010007000015REP       United States Rep, District 36 POLK COUNTYWIDE          Steve Stockman                        Precinct 7                                             01 
01090010008000015REP       United States Rep, District 36 POLK COUNTYWIDE          Steve Stockman                        Precinct 8                                             01 
01090010009000026REP       United States Rep, District 36 POLK COUNTYWIDE          Steve Stockman                        Precinct 9                                             01 
01090010010000042REP       United States Rep, District 36 POLK COUNTYWIDE          Steve Stockman                        Precinct 10                                            01 
01090010011000015REP       United States Rep, District 36 POLK COUNTYWIDE          Steve Stockman                        Precinct 11                                            01 
01090010012000000REP       United States Rep, District 36 POLK COUNTYWIDE          Steve Stockman                        Precinct 12                                            01 
01090010013000014REP       United States Rep, District 36 POLK COUNTYWIDE          Steve Stockman                        Precinct 13                                            01 
01090010014000029REP       United States Rep, District 36 POLK COUNTYWIDE          Steve Stockman                        Precinct 14                                            01 
01090010015000028REP       United States Rep, District 36 POLK COUNTYWIDE          Steve Stockman                        Precinct 15                                            01 
01090010016000127REP       United States Rep, District 36 POLK COUNTYWIDE          Steve Stockman                        Precinct 16                                            01 
01090010017000019REP       United States Rep, District 36 POLK COUNTYWIDE          Steve Stockman                        Precinct 17                                            01 
01090010018000003REP       United States Rep, District 36 POLK COUNTYWIDE          Steve Stockman                        Precinct 18                                            01 
01090010019000123REP       United States Rep, District 36 POLK COUNTYWIDE          Steve Stockman                        Precinct 19                                            01 
01090010020000094REP       United States Rep, District 36 POLK COUNTYWIDE          Steve Stockman                        Precinct 20                                            01 
01090010021000023REP       United States Rep, District 36 POLK COUNTYWIDE          Steve Stockman                        Precinct 21                                            01 
01090020001000000REP       United States Rep, District 36 POLK COUNTYWIDE          Kim Morrell                           Precinct 1                                             01 
01090020002000002REP       United States Rep, District 36 POLK COUNTYWIDE          Kim Morrell                           Precinct 2                                             01 
01090020003000013REP       United States Rep, District 36 POLK COUNTYWIDE          Kim Morrell                           Precinct 3                                             01 
01090020004000005REP       United States Rep, District 36 POLK COUNTYWIDE          Kim Morrell                           Precinct 4                                             01 
01090020005000020REP       United States Rep, District 36 POLK COUNTYWIDE          Kim Morrell                           Precinct 5                                             01 
01090020006000018REP       United States Rep, District 36 POLK COUNTYWIDE          Kim Morrell                           Precinct 6                                             01 
01090020007000002REP       United States Rep, District 36 POLK COUNTYWIDE          Kim Morrell                           Precinct 7                                             01 
01090020008000003REP       United States Rep, District 36 POLK COUNTYWIDE          Kim Morrell                           Precinct 8                                             01 
01090020009000010REP       United States Rep, District 36 POLK COUNTYWIDE          Kim Morrell                           Precinct 9                                             01 
01090020010000016REP       United States Rep, District 36 POLK COUNTYWIDE          Kim Morrell                           Precinct 10                                            01 
01090020011000000REP       United States Rep, District 36 POLK COUNTYWIDE          Kim Morrell                           Precinct 11                                            01 
01090020012000000REP       United States Rep, District 36 POLK COUNTYWIDE          Kim Morrell                           Precinct 12                                            01 
01090020013000001REP       United States Rep, District 36 POLK COUNTYWIDE          Kim Morrell                           Precinct 13                                            01 
01090020014000002REP       United States Rep, District 36 POLK COUNTYWIDE          Kim Morrell                           Precinct 14                                            01 
01090020015000003REP       United States Rep, District 36 POLK COUNTYWIDE          Kim Morrell                           Precinct 15                                            01 
01090020016000028REP       United States Rep, District 36 POLK COUNTYWIDE          Kim Morrell                           Precinct 16                                            01 
01090020017000008REP       United States Rep, District 36 POLK COUNTYWIDE          Kim Morrell                           Precinct 17                                            01 
01090020018000001REP       United States Rep, District 36 POLK COUNTYWIDE          Kim Morrell                           Precinct 18                                            01 
01090020019000022REP       United States Rep, District 36 POLK COUNTYWIDE          Kim Morrell                           Precinct 19                                            01 
01090020020000025REP       United States Rep, District 36 POLK COUNTYWIDE          Kim Morrell                           Precinct 20                                            01 
01090020021000006REP       United States Rep, District 36 POLK COUNTYWIDE          Kim Morrell                           Precinct 21                                            01 
01090030001000010REP       United States Rep, District 36 POLK COUNTYWIDE          Steven Takach                         Precinct 1                                             01 
01090030002000026REP       United States Rep, District 36 POLK COUNTYWIDE          Steven Takach                         Precinct 2                                             01 
01090030003000046REP       United States Rep, District 36 POLK COUNTYWIDE          Steven Takach                         Precinct 3                                             01 
01090030004000044REP       United States Rep, District 36 POLK COUNTYWIDE          Steven Takach                         Precinct 4                                             01 
01090030005000119REP       United States Rep, District 36 POLK COUNTYWIDE          Steven Takach                         Precinct 5                                             01 
01090030006000115REP       United States Rep, District 36 POLK COUNTYWIDE          Steven Takach                         Precinct 6                                             01 
01090030007000027REP       United States Rep, District 36 POLK COUNTYWIDE          Steven Takach                         Precinct 7                                             01 
01090030008000019REP       United States Rep, District 36 POLK COUNTYWIDE          Steven Takach                         Precinct 8                                             01 
01090030009000014REP       United States Rep, District 36 POLK COUNTYWIDE          Steven Takach                         Precinct 9                                             01 
01090030010000047REP       United States Rep, District 36 POLK COUNTYWIDE          Steven Takach                         Precinct 10                                            01 
01090030011000010REP       United States Rep, District 36 POLK COUNTYWIDE          Steven Takach                         Precinct 11                                            01 
01090030012000001REP       United States Rep, District 36 POLK COUNTYWIDE          Steven Takach                         Precinct 12                                            01 
01090030013000012REP       United States Rep, District 36 POLK COUNTYWIDE          Steven Takach                         Precinct 13                                            01 
01090030014000043REP       United States Rep, District 36 POLK COUNTYWIDE          Steven Takach                         Precinct 14                                            01 
01090030015000038REP       United States Rep, District 36 POLK COUNTYWIDE          Steven Takach                         Precinct 15                                            01 
01090030016000157REP       United States Rep, District 36 POLK COUNTYWIDE          Steven Takach                         Precinct 16                                            01 
01090030017000037REP       United States Rep, District 36 POLK COUNTYWIDE          Steven Takach                         Precinct 17                                            01 
01090030018000005REP       United States Rep, District 36 POLK COUNTYWIDE          Steven Takach                         Precinct 18                                            01 
01090030019000031REP       United States Rep, District 36 POLK COUNTYWIDE          Steven Takach                         Precinct 19                                            01 
01090030020000050REP       United States Rep, District 36 POLK COUNTYWIDE          Steven Takach                         Precinct 20                                            01 
01090030021000023REP       United States Rep, District 36 POLK COUNTYWIDE          Steven Takach                         Precinct 21                                            01 
01090040001000002REP       United States Rep, District 36 POLK COUNTYWIDE          Keith Casey                           Precinct 1                                             01 
01090040002000002REP       United States Rep, District 36 POLK COUNTYWIDE          Keith Casey                           Precinct 2                                             01 
01090040003000011REP       United States Rep, District 36 POLK COUNTYWIDE          Keith Casey                           Precinct 3                                             01 
01090040004000012REP       United States Rep, District 36 POLK COUNTYWIDE          Keith Casey                           Precinct 4                                             01 
01090040005000015REP       United States Rep, District 36 POLK COUNTYWIDE          Keith Casey                           Precinct 5                                             01 
01090040006000021REP       United States Rep, District 36 POLK COUNTYWIDE          Keith Casey                           Precinct 6                                             01 
