01130010001000002DEM       United States Senator POLK COUNTYWIDE                   Paul Sadler                           Precinct 1                                             01 
01130010002000001DEM       United States Senator POLK COUNTYWIDE                   Paul Sadler                           Precinct 2                                             01 
01130010003000001DEM       United States Senator POLK COUNTYWIDE                   Paul Sadler                           Precinct 3                                             01 
01130010004000003DEM       United States Senator POLK COUNTYWIDE                   Paul Sadler                           Precinct 4                                             01 
01130010005000007DEM       United States Senator POLK COUNTYWIDE                   Paul Sadler                           Precinct 5                                             01 
01130010006000023DEM       United States Senator POLK COUNTYWIDE                   Paul Sadler                           Precinct 6                                             01 
01130010007000001DEM       United States Senator POLK COUNTYWIDE                   Paul Sadler                           Precinct 7                                             01 
01130010008000001DEM       United States Senator POLK COUNTYWIDE                   Paul Sadler                           Precinct 8                                             01 
01130010009000003DEM       United States Senator POLK COUNTYWIDE                   Paul Sadler                           Precinct 9                                             01 
01130010010000008DEM       United States Senator POLK COUNTYWIDE                   Paul Sadler                           Precinct 10                                            01 
01130010011000001DEM       United States Senator POLK COUNTYWIDE                   Paul Sadler                           Precinct 11                                            01 
01130010012000000DEM       United States Senator POLK COUNTYWIDE                   Paul Sadler                           Precinct 12                                            01 
01130010013000002DEM       United States Senator POLK COUNTYWIDE                   Paul Sadler                           Precinct 13                                            01 
01130010014000005DEM       United States Senator POLK COUNTYWIDE                   Paul Sadler                           Precinct 14                                            01 
01130010015000002DEM       United States Senator POLK COUNTYWIDE                   Paul Sadler                           Precinct 15                                            01 
01130010016000016DEM       United States Senator POLK COUNTYWIDE                   Paul Sadler                           Precinct 16                                            01 
01130010017000004DEM       United States Senator POLK COUNTYWIDE                   Paul Sadler                           Precinct 17                                            01 
01130010018000001DEM       United States Senator POLK COUNTYWIDE                   Paul Sadler                           Precinct 18                                            01 
01130010019000022DEM       United States Senator POLK COUNTYWIDE                   Paul Sadler                           Precinct 19                                            01 
01130010020000017DEM       United States Senator POLK COUNTYWIDE                   Paul Sadler                           Precinct 20                                            01 
01130010021000003DEM       United States Senator POLK COUNTYWIDE                   Paul Sadler                           Precinct 21                                            01 
01130020001000001DEM       United States Senator POLK COUNTYWIDE                   Grady Yarbrough                       Precinct 1                                             01 
01130020002000000DEM       United States Senator POLK COUNTYWIDE                   Grady Yarbrough                       Precinct 2                                             01 
01130020003000003DEM       United States Senator POLK COUNTYWIDE                   Grady Yarbrough                       Precinct 3                                             01 
01130020004000004DEM       United States Senator POLK COUNTYWIDE                   Grady Yarbrough                       Precinct 4                                             01 
01130020005000004DEM       United States Senator POLK COUNTYWIDE                   Grady Yarbrough                       Precinct 5                                             01 
01130020006000007DEM       United States Senator POLK COUNTYWIDE                   Grady Yarbrough                       Precinct 6                                             01 
01130020007000003DEM       United States Senator POLK COUNTYWIDE                   Grady Yarbrough                       Precinct 7                                             01 
01130020008000000DEM       United States Senator POLK COUNTYWIDE                   Grady Yarbrough                       Precinct 8                                             01 
01130020009000000DEM       United States Senator POLK COUNTYWIDE                   Grady Yarbrough                       Precinct 9                                             01 
01130020010000005DEM       United States Senator POLK COUNTYWIDE                   Grady Yarbrough                       Precinct 10                                            01 
01130020011000000DEM       United States Senator POLK COUNTYWIDE                   Grady Yarbrough                       Precinct 11                                            01 
01130020012000000DEM       United States Senator POLK COUNTYWIDE                   Grady Yarbrough                       Precinct 12                                            01 
01130020013000000DEM       United States Senator POLK COUNTYWIDE                   Grady Yarbrough                       Precinct 13                                            01 
01130020014000007DEM       United States Senator POLK COUNTYWIDE                   Grady Yarbrough                       Precinct 14                                            01 
01130020015000000DEM       United States Senator POLK COUNTYWIDE                   Grady Yarbrough                       Precinct 15                                            01 
01130020016000009DEM       United States Senator POLK COUNTYWIDE                   Grady Yarbrough                       Precinct 16                                            01 
01130020017000001DEM       United States Senator POLK COUNTYWIDE                   Grady Yarbrough                       Precinct 17                                            01 
01130020018000006DEM       United States Senator POLK COUNTYWIDE                   Grady Yarbrough                       Precinct 18                                            01 
01130020019000009DEM       United States Senator POLK COUNTYWIDE                   Grady Yarbrough                       Precinct 19                                            01 
01130020020000003DEM       United States Senator POLK COUNTYWIDE                   Grady Yarbrough                       Precinct 20                                            01 
01130020021000000DEM       United States Senator POLK COUNTYWIDE                   Grady Yarbrough                       Precinct 21                                            01 
01130030001000000DEM       United States Senator POLK COUNTYWIDE                   OVER VOTES                            Precinct 1                                             01 
01130030002000000DEM       United States Senator POLK COUNTYWIDE                   OVER VOTES                            Precinct 2                                             01 
01130030003000000DEM       United States Senator POLK COUNTYWIDE                   OVER VOTES                            Precinct 3                                             01 
01130030004000000DEM       United States Senator POLK COUNTYWIDE                   OVER VOTES                            Precinct 4                                             01 
01130030005000000DEM       United States Senator POLK COUNTYWIDE                   OVER VOTES                            Precinct 5                                             01 
01130030006000000DEM       United States Senator POLK COUNTYWIDE                   OVER VOTES                            Precinct 6                                             01 
01130030007000000DEM       United States Senator POLK COUNTYWIDE                   OVER VOTES                            Precinct 7                                             01 
01130030008000000DEM       United States Senator POLK COUNTYWIDE                   OVER VOTES                            Precinct 8                                             01 
01130030009000000DEM       United States Senator POLK COUNTYWIDE                   OVER VOTES                            Precinct 9                                             01 
01130030010000000DEM       United States Senator POLK COUNTYWIDE                   OVER VOTES                            Precinct 10                                            01 
01130030011000000DEM       United States Senator POLK COUNTYWIDE                   OVER VOTES                            Precinct 11                                            01 
01130030012000000DEM       United States Senator POLK COUNTYWIDE                   OVER VOTES                            Precinct 12                                            01 
01130030013000000DEM       United States Senator POLK COUNTYWIDE                   OVER VOTES                            Precinct 13                                            01 
01130030014000000DEM       United States Senator POLK COUNTYWIDE                   OVER VOTES                            Precinct 14                                            01 
01130030015000000DEM       United States Senator POLK COUNTYWIDE                   OVER VOTES                            Precinct 15                                            01 
01130030016000000DEM       United States Senator POLK COUNTYWIDE                   OVER VOTES                            Precinct 16                                            01 
01130030017000000DEM       United States Senator POLK COUNTYWIDE                   OVER VOTES                            Precinct 17                                            01 
01130030018000000DEM       United States Senator POLK COUNTYWIDE                   OVER VOTES                            Precinct 18                                            01 
01130030019000000DEM       United States Senator POLK COUNTYWIDE                   OVER VOTES                            Precinct 19                                            01 
01130030020000000DEM       United States Senator POLK COUNTYWIDE                   OVER VOTES                            Precinct 20                                            01 
01130030021000000DEM       United States Senator POLK COUNTYWIDE                   OVER VOTES                            Precinct 21                                            01 
01130040001000000DEM       United States Senator POLK COUNTYWIDE                   UNDER VOTES                           Precinct 1                                             01 
01130040002000000DEM       United States Senator POLK COUNTYWIDE                   UNDER VOTES                           Precinct 2                                             01 
01130040003000000DEM       United States Senator POLK COUNTYWIDE                   UNDER VOTES                           Precinct 3                                             01 
01130040004000000DEM       United States Senator POLK COUNTYWIDE                   UNDER VOTES                           Precinct 4                                             01 
01130040005000000DEM       United States Senator POLK COUNTYWIDE                   UNDER VOTES                           Precinct 5                                             01 
01130040006000000DEM       United States Senator POLK COUNTYWIDE                   UNDER VOTES                           Precinct 6                                             01 
01130040007000000DEM       United States Senator POLK COUNTYWIDE                   UNDER VOTES                           Precinct 7                                             01 
01130040008000000DEM       United States Senator POLK COUNTYWIDE                   UNDER VOTES                           Precinct 8                                             01 
01130040009000000DEM       United States Senator POLK COUNTYWIDE                   UNDER VOTES                           Precinct 9                                             01 
01130040010000002DEM       United States Senator POLK COUNTYWIDE                   UNDER VOTES                           Precinct 10                                            01 
01130040011000000DEM       United States Senator POLK COUNTYWIDE                   UNDER VOTES                           Precinct 11                                            01 
01130040012000000DEM       United States Senator POLK COUNTYWIDE                   UNDER VOTES                           Precinct 12                                            01 
01130040013000000DEM       United States Senator POLK COUNTYWIDE                   UNDER VOTES                           Precinct 13                                            01 
01130040014000000DEM       United States Senator POLK COUNTYWIDE                   UNDER VOTES                           Precinct 14                                            01 
01130040015000001DEM       United States Senator POLK COUNTYWIDE                   UNDER VOTES                           Precinct 15                                            01 
01130040016000000DEM       United States Senator POLK COUNTYWIDE                   UNDER VOTES                           Precinct 16                                            01 
01130040017000001DEM       United States Senator POLK COUNTYWIDE                   UNDER VOTES                           Precinct 17                                            01 
01130040018000001DEM       United States Senator POLK COUNTYWIDE                   UNDER VOTES                           Precinct 18                                            01 
01130040019000000DEM       United States Senator POLK COUNTYWIDE                   UNDER VOTES                           Precinct 19                                            01 
01130040020000000DEM       United States Senator POLK COUNTYWIDE                   UNDER VOTES                           Precinct 20                                            01 
01130040021000000DEM       United States Senator POLK COUNTYWIDE                   UNDER VOTES                           Precinct 21                                            01 
