01010010001001858000000000000000000000000000000          REGISTERED VOTERS - TOTAL                               REGISTERED VOTERS - TOTAL             PCT 121 - SAN JACINTO                                  00 
01010010002002654000000000000000000000000000000          REGISTERED VOTERS - TOTAL                               REGISTERED VOTERS - TOTAL             PCT 122 - BELMAR                                       00 
01010010003003392000000000000000000000000000000          REGISTERED VOTERS - TOTAL                               REGISTERED VOTERS - TOTAL             PCT 123 - AUSTIN                                       00 
01010010004002233000000000000000000000000000000          REGISTERED VOTERS - TOTAL                               REGISTERED VOTERS - TOTAL             PCT 124 - OLSEN PARK                                   00 
01010010005003542000000000000000000000000000000          REGISTERED VOTERS - TOTAL                               REGISTERED VOTERS - TOTAL             PCT 125 - BIVINS                                       00 
01010010006002610000000000000000000000000000000          REGISTERED VOTERS - TOTAL                               REGISTERED VOTERS - TOTAL             PCT 126 - TASCOSA                                      00 
01010010007001613000000000000000000000000000000          REGISTERED VOTERS - TOTAL                               REGISTERED VOTERS - TOTAL             PCT 221 - FOREST HILL                                  00 
01010010008001755000000000000000000000000000000          REGISTERED VOTERS - TOTAL                               REGISTERED VOTERS - TOTAL             PCT 222 - EASTRIDGE                                    00 
01010010009001972000000000000000000000000000000          REGISTERED VOTERS - TOTAL                               REGISTERED VOTERS - TOTAL             PCT 223 - BOWIE                                        00 
01010010010002756000000000000000000000000000000          REGISTERED VOTERS - TOTAL                               REGISTERED VOTERS - TOTAL             PCT 224 - LAWNDALE                                     00 
01010010011001708000000000000000000000000000000          REGISTERED VOTERS - TOTAL                               REGISTERED VOTERS - TOTAL             PCT 225 - HUMPHREY'S HIGHLAND                          00 
01010010012001698000000000000000000000000000000          REGISTERED VOTERS - TOTAL                               REGISTERED VOTERS - TOTAL             PCT 321 - BUSHLAND                                     00 
01010010013000192000000000000000000000000000000          REGISTERED VOTERS - TOTAL                               REGISTERED VOTERS - TOTAL             PCT 322 - VALLE DE ORO                                 00 
01010010014003927000000000000000000000000000000          REGISTERED VOTERS - TOTAL                               REGISTERED VOTERS - TOTAL             PCT 323 - RIVER ROAD MIDDLE                            00 
01010010015003809000000000000000000000000000000          REGISTERED VOTERS - TOTAL                               REGISTERED VOTERS - TOTAL             PCT 324 - DE ZAVALA                                    00 
01010010016002672000000000000000000000000000000          REGISTERED VOTERS - TOTAL                               REGISTERED VOTERS - TOTAL             PCT 325 - AVONDALE                                     00 
01010010017002609000000000000000000000000000000          REGISTERED VOTERS - TOTAL                               REGISTERED VOTERS - TOTAL             PCT 326 - PLEASANT VALLEY                              00 
01010010018001306000000000000000000000000000000          REGISTERED VOTERS - TOTAL                               REGISTERED VOTERS - TOTAL             PCT 327 - HIGHLAND PARK                                00 
01010010019001462000000000000000000000000000000          REGISTERED VOTERS - TOTAL                               REGISTERED VOTERS - TOTAL             PCT 421 - PALO DURO                                    00 
01010010020003927000000000000000000000000000000          REGISTERED VOTERS - TOTAL                               REGISTERED VOTERS - TOTAL             PCT 422 - N HEIGHTS                                    00 
01010010021001395000000000000000000000000000000          REGISTERED VOTERS - TOTAL                               REGISTERED VOTERS - TOTAL             PCT 424 - HAMLET                                       00 
01010010022001771000000000000000000000000000000          REGISTERED VOTERS - TOTAL                               REGISTERED VOTERS - TOTAL             PCT 425 - WHITTIER                                     00 
01010010023000722000000000000000000000000000000          REGISTERED VOTERS - TOTAL                               REGISTERED VOTERS - TOTAL             PCT 426 - MESA VERDE                                   00 
01010010024000743000000000000000000000000000000          REGISTERED VOTERS - TOTAL                               REGISTERED VOTERS - TOTAL             PCT 427 - WILL ROGERS                                  00 
01020010001001206000076000745000385000000000000          BALLOTS CAST - TOTAL                                    BALLOTS CAST - TOTAL                  PCT 121 - SAN JACINTO                                  00 
01020010002001393000138000705000549000001000000          BALLOTS CAST - TOTAL                                    BALLOTS CAST - TOTAL                  PCT 122 - BELMAR                                       00 
01020010003001975000109001045000820000001000000          BALLOTS CAST - TOTAL                                    BALLOTS CAST - TOTAL                  PCT 123 - AUSTIN                                       00 
01020010004001485000090000869000526000000000000          BALLOTS CAST - TOTAL                                    BALLOTS CAST - TOTAL                  PCT 124 - OLSEN PARK                                   00 
01020010005001877000248000889000730000010000000          BALLOTS CAST - TOTAL                                    BALLOTS CAST - TOTAL                  PCT 125 - BIVINS                                       00 
01020010006001390000075000813000502000000000000          BALLOTS CAST - TOTAL                                    BALLOTS CAST - TOTAL                  PCT 126 - TASCOSA                                      00 
01020010007000616000032000245000339000000000000          BALLOTS CAST - TOTAL                                    BALLOTS CAST - TOTAL                  PCT 221 - FOREST HILL                                  00 
01020010008000581000024000140000415000002000000          BALLOTS CAST - TOTAL                                    BALLOTS CAST - TOTAL                  PCT 222 - EASTRIDGE                                    00 
01020010009000628000033000224000371000000000000          BALLOTS CAST - TOTAL                                    BALLOTS CAST - TOTAL                  PCT 223 - BOWIE                                        00 
01020010010001156000057000505000594000000000000          BALLOTS CAST - TOTAL                                    BALLOTS CAST - TOTAL                  PCT 224 - LAWNDALE                                     00 
01020010011000614000039000216000359000000000000          BALLOTS CAST - TOTAL                                    BALLOTS CAST - TOTAL                  PCT 225 - HUMPHREY'S HIGHLAND                          00 
01020010012001232000058000587000586000001000000          BALLOTS CAST - TOTAL                                    BALLOTS CAST - TOTAL                  PCT 321 - BUSHLAND                                     00 
01020010013000131000002000033000096000000000000          BALLOTS CAST - TOTAL                                    BALLOTS CAST - TOTAL                  PCT 322 - VALLE DE ORO                                 00 
01020010014002359000126001372000858000003000000          BALLOTS CAST - TOTAL                                    BALLOTS CAST - TOTAL                  PCT 323 - RIVER ROAD MIDDLE                            00 
01020010015002632000185001588000858000001000000          BALLOTS CAST - TOTAL                                    BALLOTS CAST - TOTAL                  PCT 324 - DE ZAVALA                                    00 
01020010016001595000178000731000683000003000000          BALLOTS CAST - TOTAL                                    BALLOTS CAST - TOTAL                  PCT 325 - AVONDALE                                     00 
01020010017001476000075000689000712000000000000          BALLOTS CAST - TOTAL                                    BALLOTS CAST - TOTAL                  PCT 326 - PLEASANT VALLEY                              00 
01020010018000646000018000222000405000001000000          BALLOTS CAST - TOTAL                                    BALLOTS CAST - TOTAL                  PCT 327 - HIGHLAND PARK                                00 
01020010019000492000022000190000280000000000000          BALLOTS CAST - TOTAL                                    BALLOTS CAST - TOTAL                  PCT 421 - PALO DURO                                    00 
01020010020001376000093000690000592000001000000          BALLOTS CAST - TOTAL                                    BALLOTS CAST - TOTAL                  PCT 422 - N HEIGHTS                                    00 
01020010021000668000042000261000364000001000000          BALLOTS CAST - TOTAL                                    BALLOTS CAST - TOTAL                  PCT 424 - HAMLET                                       00 
01020010022000645000026000242000377000000000000          BALLOTS CAST - TOTAL                                    BALLOTS CAST - TOTAL                  PCT 425 - WHITTIER                                     00 
01020010023000306000020000125000161000000000000          BALLOTS CAST - TOTAL                                    BALLOTS CAST - TOTAL                  PCT 426 - MESA VERDE                                   00 
01020010024000222000009000074000139000000000000          BALLOTS CAST - TOTAL                                    BALLOTS CAST - TOTAL                  PCT 427 - WILL ROGERS                                  00 
01030010001000573000044000384000145000000000000REP       STRAIGHT PARTY                                          REPUBLICAN PARTY                      PCT 121 - SAN JACINTO                                  01 
01030010002000628000074000337000216000001000000REP       STRAIGHT PARTY                                          REPUBLICAN PARTY                      PCT 122 - BELMAR                                       01 
01030010003000814000050000474000289000001000000REP       STRAIGHT PARTY                                          REPUBLICAN PARTY                      PCT 123 - AUSTIN                                       01 
01030010004000703000062000441000200000000000000REP       STRAIGHT PARTY                                          REPUBLICAN PARTY                      PCT 124 - OLSEN PARK                                   01 
01030010005000794000166000365000263000000000000REP       STRAIGHT PARTY                                          REPUBLICAN PARTY                      PCT 125 - BIVINS                                       01 
01030010006000564000044000354000166000000000000REP       STRAIGHT PARTY                                          REPUBLICAN PARTY                      PCT 126 - TASCOSA                                      01 
01030010007000226000024000105000097000000000000REP       STRAIGHT PARTY                                          REPUBLICAN PARTY                      PCT 221 - FOREST HILL                                  01 
01030010008000232000014000055000163000000000000REP       STRAIGHT PARTY                                          REPUBLICAN PARTY                      PCT 222 - EASTRIDGE                                    01 
01030010009000192000016000086000090000000000000REP       STRAIGHT PARTY                                          REPUBLICAN PARTY                      PCT 223 - BOWIE                                        01 
01030010010000427000040000214000173000000000000REP       STRAIGHT PARTY                                          REPUBLICAN PARTY                      PCT 224 - LAWNDALE                                     01 
01030010011000209000021000084000104000000000000REP       STRAIGHT PARTY                                          REPUBLICAN PARTY                      PCT 225 - HUMPHREY'S HIGHLAND                          01 
01030010012000606000029000325000252000000000000REP       STRAIGHT PARTY                                          REPUBLICAN PARTY                      PCT 321 - BUSHLAND                                     01 
01030010013000056000000000016000040000000000000REP       STRAIGHT PARTY                                          REPUBLICAN PARTY                      PCT 322 - VALLE DE ORO                                 01 
01030010014001234000077000744000411000002000000REP       STRAIGHT PARTY                                          REPUBLICAN PARTY                      PCT 323 - RIVER ROAD MIDDLE                            01 
01030010015001279000116000769000394000000000000REP       STRAIGHT PARTY                                          REPUBLICAN PARTY                      PCT 324 - DE ZAVALA                                    01 
01030010016000764000111000357000295000001000000REP       STRAIGHT PARTY                                          REPUBLICAN PARTY                      PCT 325 - AVONDALE                                     01 
01030010017000688000042000353000293000000000000REP       STRAIGHT PARTY                                          REPUBLICAN PARTY                      PCT 326 - PLEASANT VALLEY                              01 
01030010018000296000010000112000174000000000000REP       STRAIGHT PARTY                                          REPUBLICAN PARTY                      PCT 327 - HIGHLAND PARK                                01 
01030010019000144000015000061000068000000000000REP       STRAIGHT PARTY                                          REPUBLICAN PARTY                      PCT 421 - PALO DURO                                    01 
01030010020000304000030000154000120000000000000REP       STRAIGHT PARTY                                          REPUBLICAN PARTY                      PCT 422 - N HEIGHTS                                    01 
01030010021000151000022000058000070000001000000REP       STRAIGHT PARTY                                          REPUBLICAN PARTY                      PCT 424 - HAMLET                                       01 
01030010022000182000013000065000104000000000000REP       STRAIGHT PARTY                                          REPUBLICAN PARTY                      PCT 425 - WHITTIER                                     01 
01030010023000098000011000046000041000000000000REP       STRAIGHT PARTY                                          REPUBLICAN PARTY                      PCT 426 - MESA VERDE                                   01 
01030010024000067000003000028000036000000000000REP       STRAIGHT PARTY                                          REPUBLICAN PARTY                      PCT 427 - WILL ROGERS                                  01 
01030020001000097000001000050000046000000000000DEM       STRAIGHT PARTY                                          DEMOCRATIC PARTY                      PCT 121 - SAN JACINTO                                  01 
01030020002000171000018000088000065000000000000DEM       STRAIGHT PARTY                                          DEMOCRATIC PARTY                      PCT 122 - BELMAR                                       01 
01030020003000201000008000113000080000000000000DEM       STRAIGHT PARTY                                          DEMOCRATIC PARTY                      PCT 123 - AUSTIN                                       01 
01030020004000104000003000064000037000000000000DEM       STRAIGHT PARTY                                          DEMOCRATIC PARTY                      PCT 124 - OLSEN PARK                                   01 
01030020005000201000016000105000080000000000000DEM       STRAIGHT PARTY                                          DEMOCRATIC PARTY                      PCT 125 - BIVINS                                       01 
01030020006000193000007000115000071000000000000DEM       STRAIGHT PARTY                                          DEMOCRATIC PARTY                      PCT 126 - TASCOSA                                      01 
01030020007000151000001000056000094000000000000DEM       STRAIGHT PARTY                                          DEMOCRATIC PARTY                      PCT 221 - FOREST HILL                                  01 
01030020008000148000002000032000112000002000000DEM       STRAIGHT PARTY                                          DEMOCRATIC PARTY                      PCT 222 - EASTRIDGE                                    01 
01030020009000218000004000063000151000000000000DEM       STRAIGHT PARTY                                          DEMOCRATIC PARTY                      PCT 223 - BOWIE                                        01 
01030020010000244000003000099000142000000000000DEM       STRAIGHT PARTY                                          DEMOCRATIC PARTY                      PCT 224 - LAWNDALE                                     01 
01030020011000178000004000057000117000000000000DEM       STRAIGHT PARTY                                          DEMOCRATIC PARTY                      PCT 225 - HUMPHREY'S HIGHLAND                          01 
01030020012000056000000000034000022000000000000DEM       STRAIGHT PARTY                                          DEMOCRATIC PARTY                      PCT 321 - BUSHLAND                                     01 
01030020013000014000000000003000011000000000000DEM       STRAIGHT PARTY                                          DEMOCRATIC PARTY                      PCT 322 - VALLE DE ORO                                 01 
01030020014000180000010000095000075000000000000DEM       STRAIGHT PARTY                                          DEMOCRATIC PARTY                      PCT 323 - RIVER ROAD MIDDLE                            01 
01030020015000192000012000106000074000000000000DEM       STRAIGHT PARTY                                          DEMOCRATIC PARTY                      PCT 324 - DE ZAVALA                                    01 
01030020016000155000010000076000069000000000000DEM       STRAIGHT PARTY                                          DEMOCRATIC PARTY                      PCT 325 - AVONDALE                                     01 
01030020017000148000008000048000092000000000000DEM       STRAIGHT PARTY                                          DEMOCRATIC PARTY                      PCT 326 - PLEASANT VALLEY                              01 
01030020018000062000000000024000038000000000000DEM       STRAIGHT PARTY                                          DEMOCRATIC PARTY                      PCT 327 - HIGHLAND PARK                                01 
01030020019000214000000000074000140000000000000DEM       STRAIGHT PARTY                                          DEMOCRATIC PARTY                      PCT 421 - PALO DURO                                    01 
01030020020000650000042000338000270000000000000DEM       STRAIGHT PARTY                                          DEMOCRATIC PARTY                      PCT 422 - N HEIGHTS                                    01 
01030020021000304000013000123000168000000000000DEM       STRAIGHT PARTY                                          DEMOCRATIC PARTY                      PCT 424 - HAMLET                                       01 
01030020022000245000008000095000142000000000000DEM       STRAIGHT PARTY                                          DEMOCRATIC PARTY                      PCT 425 - WHITTIER                                     01 
01030020023000075000005000031000039000000000000DEM       STRAIGHT PARTY                                          DEMOCRATIC PARTY                      PCT 426 - MESA VERDE                                   01 
01030020024000068000002000024000042000000000000DEM       STRAIGHT PARTY                                          DEMOCRATIC PARTY                      PCT 427 - WILL ROGERS                                  01 
01030030001000004000000000001000003000000000000LIB       STRAIGHT PARTY                                          LIBERTARIAN PARTY                     PCT 121 - SAN JACINTO                                  01 
01030030002000008000000000005000003000000000000LIB       STRAIGHT PARTY                                          LIBERTARIAN PARTY                     PCT 122 - BELMAR                                       01 
01030030003000015000000000005000010000000000000LIB       STRAIGHT PARTY                                          LIBERTARIAN PARTY                     PCT 123 - AUSTIN                                       01 
01030030004000004000000000002000002000000000000LIB       STRAIGHT PARTY                                          LIBERTARIAN PARTY                     PCT 124 - OLSEN PARK                                   01 
01030030005000017000002000009000006000000000000LIB       STRAIGHT PARTY                                          LIBERTARIAN PARTY                     PCT 125 - BIVINS                                       01 
01030030006000014000000000005000009000000000000LIB       STRAIGHT PARTY                                          LIBERTARIAN PARTY                     PCT 126 - TASCOSA                                      01 
01030030007000002000000000001000001000000000000LIB       STRAIGHT PARTY                                          LIBERTARIAN PARTY                     PCT 221 - FOREST HILL                                  01 
01030030008000006000000000001000005000000000000LIB       STRAIGHT PARTY                                          LIBERTARIAN PARTY                     PCT 222 - EASTRIDGE                                    01 
01030030009000004000000000000000004000000000000LIB       STRAIGHT PARTY                                          LIBERTARIAN PARTY                     PCT 223 - BOWIE                                        01 
01030030010000008000000000004000004000000000000LIB       STRAIGHT PARTY                                          LIBERTARIAN PARTY                     PCT 224 - LAWNDALE                                     01 
01030030011000009000000000005000004000000000000LIB       STRAIGHT PARTY                                          LIBERTARIAN PARTY                     PCT 225 - HUMPHREY'S HIGHLAND                          01 
01030030012000007000000000004000003000000000000LIB       STRAIGHT PARTY                                          LIBERTARIAN PARTY                     PCT 321 - BUSHLAND                                     01 
01030030013000000000000000000000000000000000000LIB       STRAIGHT PARTY                                          LIBERTARIAN PARTY                     PCT 322 - VALLE DE ORO                                 01 
01030030014000006000000000004000002000000000000LIB       STRAIGHT PARTY                                          LIBERTARIAN PARTY                     PCT 323 - RIVER ROAD MIDDLE                            01 
01030030015000007000001000003000003000000000000LIB       STRAIGHT PARTY                                          LIBERTARIAN PARTY                     PCT 324 - DE ZAVALA                                    01 
01030030016000005000000000000000005000000000000LIB       STRAIGHT PARTY                                          LIBERTARIAN PARTY                     PCT 325 - AVONDALE                                     01 
01030030017000006000000000000000006000000000000LIB       STRAIGHT PARTY                                          LIBERTARIAN PARTY                     PCT 326 - PLEASANT VALLEY                              01 
01030030018000002000000000001000001000000000000LIB       STRAIGHT PARTY                                          LIBERTARIAN PARTY                     PCT 327 - HIGHLAND PARK                                01 
01030030019000003000000000001000002000000000000LIB       STRAIGHT PARTY                                          LIBERTARIAN PARTY                     PCT 421 - PALO DURO                                    01 
01030030020000009000000000003000006000000000000LIB       STRAIGHT PARTY                                          LIBERTARIAN PARTY                     PCT 422 - N HEIGHTS                                    01 
01030030021000001000000000000000001000000000000LIB       STRAIGHT PARTY                                          LIBERTARIAN PARTY                     PCT 424 - HAMLET                                       01 
01030030022000003000000000000000003000000000000LIB       STRAIGHT PARTY                                          LIBERTARIAN PARTY                     PCT 425 - WHITTIER                                     01 
01030030023000001000000000000000001000000000000LIB       STRAIGHT PARTY                                          LIBERTARIAN PARTY                     PCT 426 - MESA VERDE                                   01 
01030030024000001000000000000000001000000000000LIB       STRAIGHT PARTY                                          LIBERTARIAN PARTY                     PCT 427 - WILL ROGERS                                  01 
01030040001000001000000000001000000000000000000GRN       STRAIGHT PARTY                                          GREEN PARTY                           PCT 121 - SAN JACINTO                                  01 
01030040002000000000000000000000000000000000000GRN       STRAIGHT PARTY                                          GREEN PARTY                           PCT 122 - BELMAR                                       01 
01030040003000003000000000002000001000000000000GRN       STRAIGHT PARTY                                          GREEN PARTY                           PCT 123 - AUSTIN                                       01 
01030040004000000000000000000000000000000000000GRN       STRAIGHT PARTY                                          GREEN PARTY                           PCT 124 - OLSEN PARK                                   01 
01030040005000003000001000002000000000000000000GRN       STRAIGHT PARTY                                          GREEN PARTY                           PCT 125 - BIVINS                                       01 
01030040006000002000000000000000002000000000000GRN       STRAIGHT PARTY                                          GREEN PARTY                           PCT 126 - TASCOSA                                      01 
01030040007000000000000000000000000000000000000GRN       STRAIGHT PARTY                                          GREEN PARTY                           PCT 221 - FOREST HILL                                  01 
01030040008000001000000000000000001000000000000GRN       STRAIGHT PARTY                                          GREEN PARTY                           PCT 222 - EASTRIDGE                                    01 
01030040009000006000000000001000005000000000000GRN       STRAIGHT PARTY                                          GREEN PARTY                           PCT 223 - BOWIE                                        01 
01030040010000001000000000000000001000000000000GRN       STRAIGHT PARTY                                          GREEN PARTY                           PCT 224 - LAWNDALE                                     01 
01030040011000001000000000000000001000000000000GRN       STRAIGHT PARTY                                          GREEN PARTY                           PCT 225 - HUMPHREY'S HIGHLAND                          01 
01030040012000003000000000002000001000000000000GRN       STRAIGHT PARTY                                          GREEN PARTY                           PCT 321 - BUSHLAND                                     01 
01030040013000000000000000000000000000000000000GRN       STRAIGHT PARTY                                          GREEN PARTY                           PCT 322 - VALLE DE ORO                                 01 
01030040014000000000000000000000000000000000000GRN       STRAIGHT PARTY                                          GREEN PARTY                           PCT 323 - RIVER ROAD MIDDLE                            01 
01030040015000000000000000000000000000000000000GRN       STRAIGHT PARTY                                          GREEN PARTY                           PCT 324 - DE ZAVALA                                    01 
01030040016000007000001000004000002000000000000GRN       STRAIGHT PARTY                                          GREEN PARTY                           PCT 325 - AVONDALE                                     01 
01030040017000005000000000001000004000000000000GRN       STRAIGHT PARTY                                          GREEN PARTY                           PCT 326 - PLEASANT VALLEY                              01 
01030040018000000000000000000000000000000000000GRN       STRAIGHT PARTY                                          GREEN PARTY                           PCT 327 - HIGHLAND PARK                                01 
01030040019000001000000000000000001000000000000GRN       STRAIGHT PARTY                                          GREEN PARTY                           PCT 421 - PALO DURO                                    01 
01030040020000003000000000000000003000000000000GRN       STRAIGHT PARTY                                          GREEN PARTY                           PCT 422 - N HEIGHTS                                    01 
01030040021000000000000000000000000000000000000GRN       STRAIGHT PARTY                                          GREEN PARTY                           PCT 424 - HAMLET                                       01 
01030040022000001000000000001000000000000000000GRN       STRAIGHT PARTY                                          GREEN PARTY                           PCT 425 - WHITTIER                                     01 
01030040023000001000000000000000001000000000000GRN       STRAIGHT PARTY                                          GREEN PARTY                           PCT 426 - MESA VERDE                                   01 
01030040024000000000000000000000000000000000000GRN       STRAIGHT PARTY                                          GREEN PARTY                           PCT 427 - WILL ROGERS                                  01 
01030050001000000000000000000000000000000000000          STRAIGHT PARTY                                          OVER VOTES                            PCT 121 - SAN JACINTO                                  01 
01030050002000000000000000000000000000000000000          STRAIGHT PARTY                                          OVER VOTES                            PCT 122 - BELMAR                                       01 
01030050003000000000000000000000000000000000000          STRAIGHT PARTY                                          OVER VOTES                            PCT 123 - AUSTIN                                       01 
01030050004000000000000000000000000000000000000          STRAIGHT PARTY                                          OVER VOTES                            PCT 124 - OLSEN PARK                                   01 
01030050005000000000000000000000000000000000000          STRAIGHT PARTY                                          OVER VOTES                            PCT 125 - BIVINS                                       01 
01030050006000000000000000000000000000000000000          STRAIGHT PARTY                                          OVER VOTES                            PCT 126 - TASCOSA                                      01 
01030050007000000000000000000000000000000000000          STRAIGHT PARTY                                          OVER VOTES                            PCT 221 - FOREST HILL                                  01 
01030050008000000000000000000000000000000000000          STRAIGHT PARTY                                          OVER VOTES                            PCT 222 - EASTRIDGE                                    01 
01030050009000000000000000000000000000000000000          STRAIGHT PARTY                                          OVER VOTES                            PCT 223 - BOWIE                                        01 
01030050010000000000000000000000000000000000000          STRAIGHT PARTY                                          OVER VOTES                            PCT 224 - LAWNDALE                                     01 
01030050011000000000000000000000000000000000000          STRAIGHT PARTY                                          OVER VOTES                            PCT 225 - HUMPHREY'S HIGHLAND                          01 
01030050012000000000000000000000000000000000000          STRAIGHT PARTY                                          OVER VOTES                            PCT 321 - BUSHLAND                                     01 
01030050013000000000000000000000000000000000000          STRAIGHT PARTY                                          OVER VOTES                            PCT 322 - VALLE DE ORO                                 01 
01030050014000000000000000000000000000000000000          STRAIGHT PARTY                                          OVER VOTES                            PCT 323 - RIVER ROAD MIDDLE                            01 
01030050015000000000000000000000000000000000000          STRAIGHT PARTY                                          OVER VOTES                            PCT 324 - DE ZAVALA                                    01 
01030050016000000000000000000000000000000000000          STRAIGHT PARTY                                          OVER VOTES                            PCT 325 - AVONDALE                                     01 
01030050017000000000000000000000000000000000000          STRAIGHT PARTY                                          OVER VOTES                            PCT 326 - PLEASANT VALLEY                              01 
01030050018000000000000000000000000000000000000          STRAIGHT PARTY                                          OVER VOTES                            PCT 327 - HIGHLAND PARK                                01 
01030050019000001000001000000000000000000000000          STRAIGHT PARTY                                          OVER VOTES                            PCT 421 - PALO DURO                                    01 
01030050020000000000000000000000000000000000000          STRAIGHT PARTY                                          OVER VOTES                            PCT 422 - N HEIGHTS                                    01 
01030050021000000000000000000000000000000000000          STRAIGHT PARTY                                          OVER VOTES                            PCT 424 - HAMLET                                       01 
01030050022000000000000000000000000000000000000          STRAIGHT PARTY                                          OVER VOTES                            PCT 425 - WHITTIER                                     01 
01030050023000000000000000000000000000000000000          STRAIGHT PARTY                                          OVER VOTES                            PCT 426 - MESA VERDE                                   01 
01030050024000000000000000000000000000000000000          STRAIGHT PARTY                                          OVER VOTES                            PCT 427 - WILL ROGERS                                  01 
01030060001000531000031000309000191000000000000          STRAIGHT PARTY                                          UNDER VOTES                           PCT 121 - SAN JACINTO                                  01 
01030060002000586000046000275000265000000000000          STRAIGHT PARTY                                          UNDER VOTES                           PCT 122 - BELMAR                                       01 
01030060003000942000051000451000440000000000000          STRAIGHT PARTY                                          UNDER VOTES                           PCT 123 - AUSTIN                                       01 
01030060004000674000025000362000287000000000000          STRAIGHT PARTY                                          UNDER VOTES                           PCT 124 - OLSEN PARK                                   01 
01030060005000852000063000408000381000000000000          STRAIGHT PARTY                                          UNDER VOTES                           PCT 125 - BIVINS                                       01 
01030060006000617000024000339000254000000000000          STRAIGHT PARTY                                          UNDER VOTES                           PCT 126 - TASCOSA                                      01 
01030060007000237000007000083000147000000000000          STRAIGHT PARTY                                          UNDER VOTES                           PCT 221 - FOREST HILL                                  01 
01030060008000194000008000052000134000000000000          STRAIGHT PARTY                                          UNDER VOTES                           PCT 222 - EASTRIDGE                                    01 
01030060009000208000013000074000121000000000000          STRAIGHT PARTY                                          UNDER VOTES                           PCT 223 - BOWIE                                        01 
01030060010000476000014000188000274000000000000          STRAIGHT PARTY                                          UNDER VOTES                           PCT 224 - LAWNDALE                                     01 
01030060011000217000014000070000133000000000000          STRAIGHT PARTY                                          UNDER VOTES                           PCT 225 - HUMPHREY'S HIGHLAND                          01 
01030060012000559000029000222000308000000000000          STRAIGHT PARTY                                          UNDER VOTES                           PCT 321 - BUSHLAND                                     01 
01030060013000061000002000014000045000000000000          STRAIGHT PARTY                                          UNDER VOTES                           PCT 322 - VALLE DE ORO                                 01 
01030060014000939000039000529000370000001000000          STRAIGHT PARTY                                          UNDER VOTES                           PCT 323 - RIVER ROAD MIDDLE                            01 
01030060015001154000056000710000387000001000000          STRAIGHT PARTY                                          UNDER VOTES                           PCT 324 - DE ZAVALA                                    01 
01030060016000664000056000294000312000002000000          STRAIGHT PARTY                                          UNDER VOTES                           PCT 325 - AVONDALE                                     01 
01030060017000629000025000287000317000000000000          STRAIGHT PARTY                                          UNDER VOTES                           PCT 326 - PLEASANT VALLEY                              01 
01030060018000286000008000085000192000001000000          STRAIGHT PARTY                                          UNDER VOTES                           PCT 327 - HIGHLAND PARK                                01 
01030060019000129000006000054000069000000000000          STRAIGHT PARTY                                          UNDER VOTES                           PCT 421 - PALO DURO                                    01 
01030060020000410000021000195000193000001000000          STRAIGHT PARTY                                          UNDER VOTES                           PCT 422 - N HEIGHTS                                    01 
01030060021000212000007000080000125000000000000          STRAIGHT PARTY                                          UNDER VOTES                           PCT 424 - HAMLET                                       01 
01030060022000214000005000081000128000000000000          STRAIGHT PARTY                                          UNDER VOTES                           PCT 425 - WHITTIER                                     01 
01030060023000131000004000048000079000000000000          STRAIGHT PARTY                                          UNDER VOTES                           PCT 426 - MESA VERDE                                   01 
01030060024000086000004000022000060000000000000          STRAIGHT PARTY                                          UNDER VOTES                           PCT 427 - WILL ROGERS                                  01 
01040010001000986000072000627000287000000000000REP       President and Vice President POTTER COUNTYWIDE          Mitt Romney / Paul Ryan               PCT 121 - SAN JACINTO                                  01 
01040010002001055000110000543000401000001000000REP       President and Vice President POTTER COUNTYWIDE          Mitt Romney / Paul Ryan               PCT 122 - BELMAR                                       01 
01040010003001463000086000794000582000001000000REP       President and Vice President POTTER COUNTYWIDE          Mitt Romney / Paul Ryan               PCT 123 - AUSTIN                                       01 
01040010004001229000080000738000411000000000000REP       President and Vice President POTTER COUNTYWIDE          Mitt Romney / Paul Ryan               PCT 124 - OLSEN PARK                                   01 
01040010005001386000215000654000511000006000000REP       President and Vice President POTTER COUNTYWIDE          Mitt Romney / Paul Ryan               PCT 125 - BIVINS                                       01 
01040010006000989000059000596000334000000000000REP       President and Vice President POTTER COUNTYWIDE          Mitt Romney / Paul Ryan               PCT 126 - TASCOSA                                      01 
01040010007000364000030000163000171000000000000REP       President and Vice President POTTER COUNTYWIDE          Mitt Romney / Paul Ryan               PCT 221 - FOREST HILL                                  01 
01040010008000354000020000088000246000000000000REP       President and Vice President POTTER COUNTYWIDE          Mitt Romney / Paul Ryan               PCT 222 - EASTRIDGE                                    01 
01040010009000309000027000134000148000000000000REP       President and Vice President POTTER COUNTYWIDE          Mitt Romney / Paul Ryan               PCT 223 - BOWIE                                        01 
01040010010000717000052000346000319000000000000REP       President and Vice President POTTER COUNTYWIDE          Mitt Romney / Paul Ryan               PCT 224 - LAWNDALE                                     01 
01040010011000331000027000136000168000000000000REP       President and Vice President POTTER COUNTYWIDE          Mitt Romney / Paul Ryan               PCT 225 - HUMPHREY'S HIGHLAND                          01 
01040010012001065000052000501000511000001000000REP       President and Vice President POTTER COUNTYWIDE          Mitt Romney / Paul Ryan               PCT 321 - BUSHLAND                                     01 
01040010013000103000001000027000075000000000000REP       President and Vice President POTTER COUNTYWIDE          Mitt Romney / Paul Ryan               PCT 322 - VALLE DE ORO                                 01 
01040010014001982000108001178000694000002000000REP       President and Vice President POTTER COUNTYWIDE          Mitt Romney / Paul Ryan               PCT 323 - RIVER ROAD MIDDLE                            01 
01040010015002165000161001322000682000000000000REP       President and Vice President POTTER COUNTYWIDE          Mitt Romney / Paul Ryan               PCT 324 - DE ZAVALA                                    01 
01040010016001228000157000573000497000001000000REP       President and Vice President POTTER COUNTYWIDE          Mitt Romney / Paul Ryan               PCT 325 - AVONDALE                                     01 
01040010017001167000058000577000532000000000000REP       President and Vice President POTTER COUNTYWIDE          Mitt Romney / Paul Ryan               PCT 326 - PLEASANT VALLEY                              01 
01040010018000519000018000182000319000000000000REP       President and Vice President POTTER COUNTYWIDE          Mitt Romney / Paul Ryan               PCT 327 - HIGHLAND PARK                                01 
01040010019000206000021000086000099000000000000REP       President and Vice President POTTER COUNTYWIDE          Mitt Romney / Paul Ryan               PCT 421 - PALO DURO                                    01 
01040010020000467000038000233000196000000000000REP       President and Vice President POTTER COUNTYWIDE          Mitt Romney / Paul Ryan               PCT 422 - N HEIGHTS                                    01 
01040010021000247000023000095000128000001000000REP       President and Vice President POTTER COUNTYWIDE          Mitt Romney / Paul Ryan               PCT 424 - HAMLET                                       01 
01040010022000292000015000104000173000000000000REP       President and Vice President POTTER COUNTYWIDE          Mitt Romney / Paul Ryan               PCT 425 - WHITTIER                                     01 
01040010023000172000013000076000083000000000000REP       President and Vice President POTTER COUNTYWIDE          Mitt Romney / Paul Ryan               PCT 426 - MESA VERDE                                   01 
01040010024000122000007000044000071000000000000REP       President and Vice President POTTER COUNTYWIDE          Mitt Romney / Paul Ryan               PCT 427 - WILL ROGERS                                  01 
01040020001000197000004000103000090000000000000DEM       President and Vice President POTTER COUNTYWIDE          Barack Obama / Joe Biden              PCT 121 - SAN JACINTO                                  01 
01040020002000292000027000142000123000000000000DEM       President and Vice President POTTER COUNTYWIDE          Barack Obama / Joe Biden              PCT 122 - BELMAR                                       01 
01040020003000455000022000234000199000000000000DEM       President and Vice President POTTER COUNTYWIDE          Barack Obama / Joe Biden              PCT 123 - AUSTIN                                       01 
01040020004000226000008000118000100000000000000DEM       President and Vice President POTTER COUNTYWIDE          Barack Obama / Joe Biden              PCT 124 - OLSEN PARK                                   01 
01040020005000433000031000209000189000004000000DEM       President and Vice President POTTER COUNTYWIDE          Barack Obama / Joe Biden              PCT 125 - BIVINS                                       01 
01040020006000357000013000199000145000000000000DEM       President and Vice President POTTER COUNTYWIDE          Barack Obama / Joe Biden              PCT 126 - TASCOSA                                      01 
01040020007000236000001000076000159000000000000DEM       President and Vice President POTTER COUNTYWIDE          Barack Obama / Joe Biden              PCT 221 - FOREST HILL                                  01 
01040020008000203000004000046000151000002000000DEM       President and Vice President POTTER COUNTYWIDE          Barack Obama / Joe Biden              PCT 222 - EASTRIDGE                                    01 
01040020009000301000006000087000208000000000000DEM       President and Vice President POTTER COUNTYWIDE          Barack Obama / Joe Biden              PCT 223 - BOWIE                                        01 
01040020010000410000004000148000258000000000000DEM       President and Vice President POTTER COUNTYWIDE          Barack Obama / Joe Biden              PCT 224 - LAWNDALE                                     01 
01040020011000266000012000076000178000000000000DEM       President and Vice President POTTER COUNTYWIDE          Barack Obama / Joe Biden              PCT 225 - HUMPHREY'S HIGHLAND                          01 
01040020012000141000006000075000060000000000000DEM       President and Vice President POTTER COUNTYWIDE          Barack Obama / Joe Biden              PCT 321 - BUSHLAND                                     01 
01040020013000027000001000006000020000000000000DEM       President and Vice President POTTER COUNTYWIDE          Barack Obama / Joe Biden              PCT 322 - VALLE DE ORO                                 01 
01040020014000334000014000172000147000001000000DEM       President and Vice President POTTER COUNTYWIDE          Barack Obama / Joe Biden              PCT 323 - RIVER ROAD MIDDLE                            01 
01040020015000427000023000244000159000001000000DEM       President and Vice President POTTER COUNTYWIDE          Barack Obama / Joe Biden              PCT 324 - DE ZAVALA                                    01 
01040020016000328000019000147000160000002000000DEM       President and Vice President POTTER COUNTYWIDE          Barack Obama / Joe Biden              PCT 325 - AVONDALE                                     01 
01040020017000267000012000098000157000000000000DEM       President and Vice President POTTER COUNTYWIDE          Barack Obama / Joe Biden              PCT 326 - PLEASANT VALLEY                              01 
01040020018000112000000000037000074000001000000DEM       President and Vice President POTTER COUNTYWIDE          Barack Obama / Joe Biden              PCT 327 - HIGHLAND PARK                                01 
01040020019000272000001000099000172000000000000DEM       President and Vice President POTTER COUNTYWIDE          Barack Obama / Joe Biden              PCT 421 - PALO DURO                                    01 
01040020020000868000054000440000373000001000000DEM       President and Vice President POTTER COUNTYWIDE          Barack Obama / Joe Biden              PCT 422 - N HEIGHTS                                    01 
01040020021000408000017000163000228000000000000DEM       President and Vice President POTTER COUNTYWIDE          Barack Obama / Joe Biden              PCT 424 - HAMLET                                       01 
01040020022000343000011000135000197000000000000DEM       President and Vice President POTTER COUNTYWIDE          Barack Obama / Joe Biden              PCT 425 - WHITTIER                                     01 
01040020023000130000007000048000075000000000000DEM       President and Vice President POTTER COUNTYWIDE          Barack Obama / Joe Biden              PCT 426 - MESA VERDE                                   01 
01040020024000093000002000030000061000000000000DEM       President and Vice President POTTER COUNTYWIDE          Barack Obama / Joe Biden              PCT 427 - WILL ROGERS                                  01 
01040030001000008000000000007000001000000000000LIB       President and Vice President POTTER COUNTYWIDE          Gary Johnson / Jim Gray               PCT 121 - SAN JACINTO                                  01 
01040030002000026000001000009000016000000000000LIB       President and Vice President POTTER COUNTYWIDE          Gary Johnson / Jim Gray               PCT 122 - BELMAR                                       01 
01040030003000033000000000009000024000000000000LIB       President and Vice President POTTER COUNTYWIDE          Gary Johnson / Jim Gray               PCT 123 - AUSTIN                                       01 
01040030004000016000000000005000011000000000000LIB       President and Vice President POTTER COUNTYWIDE          Gary Johnson / Jim Gray               PCT 124 - OLSEN PARK                                   01 
01040030005000034000001000014000019000000000000LIB       President and Vice President POTTER COUNTYWIDE          Gary Johnson / Jim Gray               PCT 125 - BIVINS                                       01 
01040030006000026000000000007000019000000000000LIB       President and Vice President POTTER COUNTYWIDE          Gary Johnson / Jim Gray               PCT 126 - TASCOSA                                      01 
01040030007000005000001000001000003000000000000LIB       President and Vice President POTTER COUNTYWIDE          Gary Johnson / Jim Gray               PCT 221 - FOREST HILL                                  01 
01040030008000010000000000004000006000000000000LIB       President and Vice President POTTER COUNTYWIDE          Gary Johnson / Jim Gray               PCT 222 - EASTRIDGE                                    01 
01040030009000009000000000001000008000000000000LIB       President and Vice President POTTER COUNTYWIDE          Gary Johnson / Jim Gray               PCT 223 - BOWIE                                        01 
01040030010000015000001000007000007000000000000LIB       President and Vice President POTTER COUNTYWIDE          Gary Johnson / Jim Gray               PCT 224 - LAWNDALE                                     01 
01040030011000006000000000001000005000000000000LIB       President and Vice President POTTER COUNTYWIDE          Gary Johnson / Jim Gray               PCT 225 - HUMPHREY'S HIGHLAND                          01 
01040030012000013000000000007000006000000000000LIB       President and Vice President POTTER COUNTYWIDE          Gary Johnson / Jim Gray               PCT 321 - BUSHLAND                                     01 
01040030013000001000000000000000001000000000000LIB       President and Vice President POTTER COUNTYWIDE          Gary Johnson / Jim Gray               PCT 322 - VALLE DE ORO                                 01 
01040030014000019000002000009000008000000000000LIB       President and Vice President POTTER COUNTYWIDE          Gary Johnson / Jim Gray               PCT 323 - RIVER ROAD MIDDLE                            01 
01040030015000026000001000011000014000000000000LIB       President and Vice President POTTER COUNTYWIDE          Gary Johnson / Jim Gray               PCT 324 - DE ZAVALA                                    01 
01040030016000021000001000004000016000000000000LIB       President and Vice President POTTER COUNTYWIDE          Gary Johnson / Jim Gray               PCT 325 - AVONDALE                                     01 
01040030017000021000003000004000014000000000000LIB       President and Vice President POTTER COUNTYWIDE          Gary Johnson / Jim Gray               PCT 326 - PLEASANT VALLEY                              01 
01040030018000004000000000002000002000000000000LIB       President and Vice President POTTER COUNTYWIDE          Gary Johnson / Jim Gray               PCT 327 - HIGHLAND PARK                                01 
01040030019000006000000000003000003000000000000LIB       President and Vice President POTTER COUNTYWIDE          Gary Johnson / Jim Gray               PCT 421 - PALO DURO                                    01 
01040030020000015000001000006000008000000000000LIB       President and Vice President POTTER COUNTYWIDE          Gary Johnson / Jim Gray               PCT 422 - N HEIGHTS                                    01 
01040030021000005000000000002000003000000000000LIB       President and Vice President POTTER COUNTYWIDE          Gary Johnson / Jim Gray               PCT 424 - HAMLET                                       01 
01040030022000003000000000000000003000000000000LIB       President and Vice President POTTER COUNTYWIDE          Gary Johnson / Jim Gray               PCT 425 - WHITTIER                                     01 
01040030023000002000000000001000001000000000000LIB       President and Vice President POTTER COUNTYWIDE          Gary Johnson / Jim Gray               PCT 426 - MESA VERDE                                   01 
01040030024000003000000000000000003000000000000LIB       President and Vice President POTTER COUNTYWIDE          Gary Johnson / Jim Gray               PCT 427 - WILL ROGERS                                  01 
01040040001000005000000000002000003000000000000GRN       President and Vice President POTTER COUNTYWIDE          Jill Stein / Cheri Honkala            PCT 121 - SAN JACINTO                                  01 
01040040002000004000000000003000001000000000000GRN       President and Vice President POTTER COUNTYWIDE          Jill Stein / Cheri Honkala            PCT 122 - BELMAR                                       01 
01040040003000005000000000002000003000000000000GRN       President and Vice President POTTER COUNTYWIDE          Jill Stein / Cheri Honkala            PCT 123 - AUSTIN                                       01 
01040040004000002000000000000000002000000000000GRN       President and Vice President POTTER COUNTYWIDE          Jill Stein / Cheri Honkala            PCT 124 - OLSEN PARK                                   01 
01040040005000008000001000004000003000000000000GRN       President and Vice President POTTER COUNTYWIDE          Jill Stein / Cheri Honkala            PCT 125 - BIVINS                                       01 
01040040006000003000000000001000002000000000000GRN       President and Vice President POTTER COUNTYWIDE          Jill Stein / Cheri Honkala            PCT 126 - TASCOSA                                      01 
01040040007000001000000000000000001000000000000GRN       President and Vice President POTTER COUNTYWIDE          Jill Stein / Cheri Honkala            PCT 221 - FOREST HILL                                  01 
01040040008000003000000000000000003000000000000GRN       President and Vice President POTTER COUNTYWIDE          Jill Stein / Cheri Honkala            PCT 222 - EASTRIDGE                                    01 
01040040009000004000000000000000004000000000000GRN       President and Vice President POTTER COUNTYWIDE          Jill Stein / Cheri Honkala            PCT 223 - BOWIE                                        01 
01040040010000003000000000001000002000000000000GRN       President and Vice President POTTER COUNTYWIDE          Jill Stein / Cheri Honkala            PCT 224 - LAWNDALE                                     01 
01040040011000002000000000000000002000000000000GRN       President and Vice President POTTER COUNTYWIDE          Jill Stein / Cheri Honkala            PCT 225 - HUMPHREY'S HIGHLAND                          01 
01040040012000002000000000000000002000000000000GRN       President and Vice President POTTER COUNTYWIDE          Jill Stein / Cheri Honkala            PCT 321 - BUSHLAND                                     01 
01040040013000000000000000000000000000000000000GRN       President and Vice President POTTER COUNTYWIDE          Jill Stein / Cheri Honkala            PCT 322 - VALLE DE ORO                                 01 
01040040014000004000000000002000002000000000000GRN       President and Vice President POTTER COUNTYWIDE          Jill Stein / Cheri Honkala            PCT 323 - RIVER ROAD MIDDLE                            01 
01040040015000002000000000001000001000000000000GRN       President and Vice President POTTER COUNTYWIDE          Jill Stein / Cheri Honkala            PCT 324 - DE ZAVALA                                    01 
01040040016000007000001000002000004000000000000GRN       President and Vice President POTTER COUNTYWIDE          Jill Stein / Cheri Honkala            PCT 325 - AVONDALE                                     01 
01040040017000006000000000003000003000000000000GRN       President and Vice President POTTER COUNTYWIDE          Jill Stein / Cheri Honkala            PCT 326 - PLEASANT VALLEY                              01 
01040040018000003000000000000000003000000000000GRN       President and Vice President POTTER COUNTYWIDE          Jill Stein / Cheri Honkala            PCT 327 - HIGHLAND PARK                                01 
01040040019000001000000000001000000000000000000GRN       President and Vice President POTTER COUNTYWIDE          Jill Stein / Cheri Honkala            PCT 421 - PALO DURO                                    01 
01040040020000005000000000001000004000000000000GRN       President and Vice President POTTER COUNTYWIDE          Jill Stein / Cheri Honkala            PCT 422 - N HEIGHTS                                    01 
01040040021000001000000000000000001000000000000GRN       President and Vice President POTTER COUNTYWIDE          Jill Stein / Cheri Honkala            PCT 424 - HAMLET                                       01 
01040040022000001000000000000000001000000000000GRN       President and Vice President POTTER COUNTYWIDE          Jill Stein / Cheri Honkala            PCT 425 - WHITTIER                                     01 
01040040023000000000000000000000000000000000000GRN       President and Vice President POTTER COUNTYWIDE          Jill Stein / Cheri Honkala            PCT 426 - MESA VERDE                                   01 
01040040024000000000000000000000000000000000000GRN       President and Vice President POTTER COUNTYWIDE          Jill Stein / Cheri Honkala            PCT 427 - WILL ROGERS                                  01 
01040050001000003000000000001000002000000000000NON       President and Vice President POTTER COUNTYWIDE          WRITE-IN                              PCT 121 - SAN JACINTO                                  01 
01040050002000003000000000000000003000000000000NON       President and Vice President POTTER COUNTYWIDE          WRITE-IN                              PCT 122 - BELMAR                                       01 
01040050003000006000000000002000004000000000000NON       President and Vice President POTTER COUNTYWIDE          WRITE-IN                              PCT 123 - AUSTIN                                       01 
01040050004000005000002000001000002000000000000NON       President and Vice President POTTER COUNTYWIDE          WRITE-IN                              PCT 124 - OLSEN PARK                                   01 
01040050005000004000000000001000003000000000000NON       President and Vice President POTTER COUNTYWIDE          WRITE-IN                              PCT 125 - BIVINS                                       01 
01040050006000006000002000003000001000000000000NON       President and Vice President POTTER COUNTYWIDE          WRITE-IN                              PCT 126 - TASCOSA                                      01 
01040050007000000000000000000000000000000000000NON       President and Vice President POTTER COUNTYWIDE          WRITE-IN                              PCT 221 - FOREST HILL                                  01 
01040050008000002000000000001000001000000000000NON       President and Vice President POTTER COUNTYWIDE          WRITE-IN                              PCT 222 - EASTRIDGE                                    01 
01040050009000000000000000000000000000000000000NON       President and Vice President POTTER COUNTYWIDE          WRITE-IN                              PCT 223 - BOWIE                                        01 
01040050010000005000000000001000004000000000000NON       President and Vice President POTTER COUNTYWIDE          WRITE-IN                              PCT 224 - LAWNDALE                                     01 
01040050011000002000000000000000002000000000000NON       President and Vice President POTTER COUNTYWIDE          WRITE-IN                              PCT 225 - HUMPHREY'S HIGHLAND                          01 
01040050012000004000000000000000004000000000000NON       President and Vice President POTTER COUNTYWIDE          WRITE-IN                              PCT 321 - BUSHLAND                                     01 
01040050013000000000000000000000000000000000000NON       President and Vice President POTTER COUNTYWIDE          WRITE-IN                              PCT 322 - VALLE DE ORO                                 01 
01040050014000002000000000001000001000000000000NON       President and Vice President POTTER COUNTYWIDE          WRITE-IN                              PCT 323 - RIVER ROAD MIDDLE                            01 
01040050015000001000000000000000001000000000000NON       President and Vice President POTTER COUNTYWIDE          WRITE-IN                              PCT 324 - DE ZAVALA                                    01 
01040050016000002000000000000000002000000000000NON       President and Vice President POTTER COUNTYWIDE          WRITE-IN                              PCT 325 - AVONDALE                                     01 
01040050017000005000002000002000001000000000000NON       President and Vice President POTTER COUNTYWIDE          WRITE-IN                              PCT 326 - PLEASANT VALLEY                              01 
01040050018000006000000000001000005000000000000NON       President and Vice President POTTER COUNTYWIDE          WRITE-IN                              PCT 327 - HIGHLAND PARK                                01 
01040050019000001000000000001000000000000000000NON       President and Vice President POTTER COUNTYWIDE          WRITE-IN                              PCT 421 - PALO DURO                                    01 
01040050020000004000000000001000003000000000000NON       President and Vice President POTTER COUNTYWIDE          WRITE-IN                              PCT 422 - N HEIGHTS                                    01 
01040050021000003000002000000000001000000000000NON       President and Vice President POTTER COUNTYWIDE          WRITE-IN                              PCT 424 - HAMLET                                       01 
01040050022000000000000000000000000000000000000NON       President and Vice President POTTER COUNTYWIDE          WRITE-IN                              PCT 425 - WHITTIER                                     01 
01040050023000000000000000000000000000000000000NON       President and Vice President POTTER COUNTYWIDE          WRITE-IN                              PCT 426 - MESA VERDE                                   01 
01040050024000001000000000000000001000000000000NON       President and Vice President POTTER COUNTYWIDE          WRITE-IN                              PCT 427 - WILL ROGERS                                  01 
01040060001000000000000000000000000000000000000          President and Vice President POTTER COUNTYWIDE          OVER VOTES                            PCT 121 - SAN JACINTO                                  01 
01040060002000000000000000000000000000000000000          President and Vice President POTTER COUNTYWIDE          OVER VOTES                            PCT 122 - BELMAR                                       01 
01040060003000000000000000000000000000000000000          President and Vice President POTTER COUNTYWIDE          OVER VOTES                            PCT 123 - AUSTIN                                       01 
01040060004000000000000000000000000000000000000          President and Vice President POTTER COUNTYWIDE          OVER VOTES                            PCT 124 - OLSEN PARK                                   01 
01040060005000000000000000000000000000000000000          President and Vice President POTTER COUNTYWIDE          OVER VOTES                            PCT 125 - BIVINS                                       01 
01040060006000000000000000000000000000000000000          President and Vice President POTTER COUNTYWIDE          OVER VOTES                            PCT 126 - TASCOSA                                      01 
01040060007000000000000000000000000000000000000          President and Vice President POTTER COUNTYWIDE          OVER VOTES                            PCT 221 - FOREST HILL                                  01 
01040060008000000000000000000000000000000000000          President and Vice President POTTER COUNTYWIDE          OVER VOTES                            PCT 222 - EASTRIDGE                                    01 
01040060009000000000000000000000000000000000000          President and Vice President POTTER COUNTYWIDE          OVER VOTES                            PCT 223 - BOWIE                                        01 
01040060010000000000000000000000000000000000000          President and Vice President POTTER COUNTYWIDE          OVER VOTES                            PCT 224 - LAWNDALE                                     01 
01040060011000000000000000000000000000000000000          President and Vice President POTTER COUNTYWIDE          OVER VOTES                            PCT 225 - HUMPHREY'S HIGHLAND                          01 
01040060012000000000000000000000000000000000000          President and Vice President POTTER COUNTYWIDE          OVER VOTES                            PCT 321 - BUSHLAND                                     01 
01040060013000000000000000000000000000000000000          President and Vice President POTTER COUNTYWIDE          OVER VOTES                            PCT 322 - VALLE DE ORO                                 01 
01040060014000000000000000000000000000000000000          President and Vice President POTTER COUNTYWIDE          OVER VOTES                            PCT 323 - RIVER ROAD MIDDLE                            01 
01040060015000000000000000000000000000000000000          President and Vice President POTTER COUNTYWIDE          OVER VOTES                            PCT 324 - DE ZAVALA                                    01 
01040060016000000000000000000000000000000000000          President and Vice President POTTER COUNTYWIDE          OVER VOTES                            PCT 325 - AVONDALE                                     01 
01040060017000000000000000000000000000000000000          President and Vice President POTTER COUNTYWIDE          OVER VOTES                            PCT 326 - PLEASANT VALLEY                              01 
01040060018000000000000000000000000000000000000          President and Vice President POTTER COUNTYWIDE          OVER VOTES                            PCT 327 - HIGHLAND PARK                                01 
01040060019000000000000000000000000000000000000          President and Vice President POTTER COUNTYWIDE          OVER VOTES                            PCT 421 - PALO DURO                                    01 
01040060020000000000000000000000000000000000000          President and Vice President POTTER COUNTYWIDE          OVER VOTES                            PCT 422 - N HEIGHTS                                    01 
01040060021000000000000000000000000000000000000          President and Vice President POTTER COUNTYWIDE          OVER VOTES                            PCT 424 - HAMLET                                       01 
01040060022000000000000000000000000000000000000          President and Vice President POTTER COUNTYWIDE          OVER VOTES                            PCT 425 - WHITTIER                                     01 
01040060023000000000000000000000000000000000000          President and Vice President POTTER COUNTYWIDE          OVER VOTES                            PCT 426 - MESA VERDE                                   01 
01040060024000000000000000000000000000000000000          President and Vice President POTTER COUNTYWIDE          OVER VOTES                            PCT 427 - WILL ROGERS                                  01 
01040070001000007000000000005000002000000000000          President and Vice President POTTER COUNTYWIDE          UNDER VOTES                           PCT 121 - SAN JACINTO                                  01 
01040070002000013000000000008000005000000000000          President and Vice President POTTER COUNTYWIDE          UNDER VOTES                           PCT 122 - BELMAR                                       01 
01040070003000013000001000004000008000000000000          President and Vice President POTTER COUNTYWIDE          UNDER VOTES                           PCT 123 - AUSTIN                                       01 
01040070004000007000000000007000000000000000000          President and Vice President POTTER COUNTYWIDE          UNDER VOTES                           PCT 124 - OLSEN PARK                                   01 
01040070005000012000000000007000005000000000000          President and Vice President POTTER COUNTYWIDE          UNDER VOTES                           PCT 125 - BIVINS                                       01 
01040070006000009000001000007000001000000000000          President and Vice President POTTER COUNTYWIDE          UNDER VOTES                           PCT 126 - TASCOSA                                      01 
01040070007000010000000000005000005000000000000          President and Vice President POTTER COUNTYWIDE          UNDER VOTES                           PCT 221 - FOREST HILL                                  01 
01040070008000009000000000001000008000000000000          President and Vice President POTTER COUNTYWIDE          UNDER VOTES                           PCT 222 - EASTRIDGE                                    01 
01040070009000005000000000002000003000000000000          President and Vice President POTTER COUNTYWIDE          UNDER VOTES                           PCT 223 - BOWIE                                        01 
01040070010000006000000000002000004000000000000          President and Vice President POTTER COUNTYWIDE          UNDER VOTES                           PCT 224 - LAWNDALE                                     01 
01040070011000007000000000003000004000000000000          President and Vice President POTTER COUNTYWIDE          UNDER VOTES                           PCT 225 - HUMPHREY'S HIGHLAND                          01 
01040070012000007000000000004000003000000000000          President and Vice President POTTER COUNTYWIDE          UNDER VOTES                           PCT 321 - BUSHLAND                                     01 
01040070013000000000000000000000000000000000000          President and Vice President POTTER COUNTYWIDE          UNDER VOTES                           PCT 322 - VALLE DE ORO                                 01 
01040070014000018000002000010000006000000000000          President and Vice President POTTER COUNTYWIDE          UNDER VOTES                           PCT 323 - RIVER ROAD MIDDLE                            01 
01040070015000011000000000010000001000000000000          President and Vice President POTTER COUNTYWIDE          UNDER VOTES                           PCT 324 - DE ZAVALA                                    01 
01040070016000009000000000005000004000000000000          President and Vice President POTTER COUNTYWIDE          UNDER VOTES                           PCT 325 - AVONDALE                                     01 
01040070017000010000000000005000005000000000000          President and Vice President POTTER COUNTYWIDE          UNDER VOTES                           PCT 326 - PLEASANT VALLEY                              01 
01040070018000002000000000000000002000000000000          President and Vice President POTTER COUNTYWIDE          UNDER VOTES                           PCT 327 - HIGHLAND PARK                                01 
01040070019000006000000000000000006000000000000          President and Vice President POTTER COUNTYWIDE          UNDER VOTES                           PCT 421 - PALO DURO                                    01 
01040070020000017000000000009000008000000000000          President and Vice President POTTER COUNTYWIDE          UNDER VOTES                           PCT 422 - N HEIGHTS                                    01 
01040070021000004000000000001000003000000000000          President and Vice President POTTER COUNTYWIDE          UNDER VOTES                           PCT 424 - HAMLET                                       01 
01040070022000006000000000003000003000000000000          President and Vice President POTTER COUNTYWIDE          UNDER VOTES                           PCT 425 - WHITTIER                                     01 
01040070023000002000000000000000002000000000000          President and Vice President POTTER COUNTYWIDE          UNDER VOTES                           PCT 426 - MESA VERDE                                   01 
01040070024000003000000000000000003000000000000          President and Vice President POTTER COUNTYWIDE          UNDER VOTES                           PCT 427 - WILL ROGERS                                  01 
01050010001000955000069000615000271000000000000REP       United States Senator POTTER COUNTYWIDE                 Ted Cruz                              PCT 121 - SAN JACINTO                                  01 
01050010002001045000112000537000396000000000000REP       United States Senator POTTER COUNTYWIDE                 Ted Cruz                              PCT 122 - BELMAR                                       01 
01050010003001428000083000779000565000001000000REP       United States Senator POTTER COUNTYWIDE                 Ted Cruz                              PCT 123 - AUSTIN                                       01 
01050010004001198000078000718000402000000000000REP       United States Senator POTTER COUNTYWIDE                 Ted Cruz                              PCT 124 - OLSEN PARK                                   01 
01050010005001340000201000639000495000005000000REP       United States Senator POTTER COUNTYWIDE                 Ted Cruz                              PCT 125 - BIVINS                                       01 
01050010006000951000057000576000318000000000000REP       United States Senator POTTER COUNTYWIDE                 Ted Cruz                              PCT 126 - TASCOSA                                      01 
01050010007000365000030000156000179000000000000REP       United States Senator POTTER COUNTYWIDE                 Ted Cruz                              PCT 221 - FOREST HILL                                  01 
01050010008000340000019000086000235000000000000REP       United States Senator POTTER COUNTYWIDE                 Ted Cruz                              PCT 222 - EASTRIDGE                                    01 
01050010009000311000028000132000151000000000000REP       United States Senator POTTER COUNTYWIDE                 Ted Cruz                              PCT 223 - BOWIE                                        01 
01050010010000723000052000343000328000000000000REP       United States Senator POTTER COUNTYWIDE                 Ted Cruz                              PCT 224 - LAWNDALE                                     01 
01050010011000345000026000137000182000000000000REP       United States Senator POTTER COUNTYWIDE                 Ted Cruz                              PCT 225 - HUMPHREY'S HIGHLAND                          01 
01050010012001039000051000493000494000001000000REP       United States Senator POTTER COUNTYWIDE                 Ted Cruz                              PCT 321 - BUSHLAND                                     01 
01050010013000102000001000027000074000000000000REP       United States Senator POTTER COUNTYWIDE                 Ted Cruz                              PCT 322 - VALLE DE ORO                                 01 
01050010014001921000097001143000679000002000000REP       United States Senator POTTER COUNTYWIDE                 Ted Cruz                              PCT 323 - RIVER ROAD MIDDLE                            01 
01050010015002152000155001314000682000001000000REP       United States Senator POTTER COUNTYWIDE                 Ted Cruz                              PCT 324 - DE ZAVALA                                    01 
01050010016001209000151000563000494000001000000REP       United States Senator POTTER COUNTYWIDE                 Ted Cruz                              PCT 325 - AVONDALE                                     01 
01050010017001119000059000555000505000000000000REP       United States Senator POTTER COUNTYWIDE                 Ted Cruz                              PCT 326 - PLEASANT VALLEY                              01 
01050010018000511000018000178000315000000000000REP       United States Senator POTTER COUNTYWIDE                 Ted Cruz                              PCT 327 - HIGHLAND PARK                                01 
01050010019000209000021000089000099000000000000REP       United States Senator POTTER COUNTYWIDE                 Ted Cruz                              PCT 421 - PALO DURO                                    01 
01050010020000459000037000224000198000000000000REP       United States Senator POTTER COUNTYWIDE                 Ted Cruz                              PCT 422 - N HEIGHTS                                    01 
01050010021000258000026000099000132000001000000REP       United States Senator POTTER COUNTYWIDE                 Ted Cruz                              PCT 424 - HAMLET                                       01 
01050010022000295000016000098000181000000000000REP       United States Senator POTTER COUNTYWIDE                 Ted Cruz                              PCT 425 - WHITTIER                                     01 
01050010023000173000012000078000083000000000000REP       United States Senator POTTER COUNTYWIDE                 Ted Cruz                              PCT 426 - MESA VERDE                                   01 
01050010024000109000006000039000064000000000000REP       United States Senator POTTER COUNTYWIDE                 Ted Cruz                              PCT 427 - WILL ROGERS                                  01 
01050020001000206000004000110000092000000000000DEM       United States Senator POTTER COUNTYWIDE                 Paul Sadler                           PCT 121 - SAN JACINTO                                  01 
01050020002000276000024000140000112000000000000DEM       United States Senator POTTER COUNTYWIDE                 Paul Sadler                           PCT 122 - BELMAR                                       01 
01050020003000432000020000220000192000000000000DEM       United States Senator POTTER COUNTYWIDE                 Paul Sadler                           PCT 123 - AUSTIN                                       01 
01050020004000221000011000119000091000000000000DEM       United States Senator POTTER COUNTYWIDE                 Paul Sadler                           PCT 124 - OLSEN PARK                                   01 
01050020005000430000036000209000182000003000000DEM       United States Senator POTTER COUNTYWIDE                 Paul Sadler                           PCT 125 - BIVINS                                       01 
01050020006000337000012000192000133000000000000DEM       United States Senator POTTER COUNTYWIDE                 Paul Sadler                           PCT 126 - TASCOSA                                      01 
01050020007000208000001000071000136000000000000DEM       United States Senator POTTER COUNTYWIDE                 Paul Sadler                           PCT 221 - FOREST HILL                                  01 
01050020008000191000003000046000141000001000000DEM       United States Senator POTTER COUNTYWIDE                 Paul Sadler                           PCT 222 - EASTRIDGE                                    01 
01050020009000279000004000085000190000000000000DEM       United States Senator POTTER COUNTYWIDE                 Paul Sadler                           PCT 223 - BOWIE                                        01 
01050020010000367000005000141000221000000000000DEM       United States Senator POTTER COUNTYWIDE                 Paul Sadler                           PCT 224 - LAWNDALE                                     01 
01050020011000229000012000065000152000000000000DEM       United States Senator POTTER COUNTYWIDE                 Paul Sadler                           PCT 225 - HUMPHREY'S HIGHLAND                          01 
01050020012000146000005000077000064000000000000DEM       United States Senator POTTER COUNTYWIDE                 Paul Sadler                           PCT 321 - BUSHLAND                                     01 
01050020013000022000001000005000016000000000000DEM       United States Senator POTTER COUNTYWIDE                 Paul Sadler                           PCT 322 - VALLE DE ORO                                 01 
01050020014000338000021000184000132000001000000DEM       United States Senator POTTER COUNTYWIDE                 Paul Sadler                           PCT 323 - RIVER ROAD MIDDLE                            01 
01050020015000396000022000232000142000000000000DEM       United States Senator POTTER COUNTYWIDE                 Paul Sadler                           PCT 324 - DE ZAVALA                                    01 
01050020016000304000022000148000133000001000000DEM       United States Senator POTTER COUNTYWIDE                 Paul Sadler                           PCT 325 - AVONDALE                                     01 
01050020017000272000010000099000163000000000000DEM       United States Senator POTTER COUNTYWIDE                 Paul Sadler                           PCT 326 - PLEASANT VALLEY                              01 
01050020018000105000000000039000066000000000000DEM       United States Senator POTTER COUNTYWIDE                 Paul Sadler                           PCT 327 - HIGHLAND PARK                                01 
01050020019000254000001000092000161000000000000DEM       United States Senator POTTER COUNTYWIDE                 Paul Sadler                           PCT 421 - PALO DURO                                    01 
01050020020000825000052000419000353000001000000DEM       United States Senator POTTER COUNTYWIDE                 Paul Sadler                           PCT 422 - N HEIGHTS                                    01 
01050020021000370000016000150000204000000000000DEM       United States Senator POTTER COUNTYWIDE                 Paul Sadler                           PCT 424 - HAMLET                                       01 
01050020022000315000009000127000179000000000000DEM       United States Senator POTTER COUNTYWIDE                 Paul Sadler                           PCT 425 - WHITTIER                                     01 
01050020023000110000007000039000064000000000000DEM       United States Senator POTTER COUNTYWIDE                 Paul Sadler                           PCT 426 - MESA VERDE                                   01 
01050020024000091000002000033000056000000000000DEM       United States Senator POTTER COUNTYWIDE                 Paul Sadler                           PCT 427 - WILL ROGERS                                  01 
01050030001000020000002000008000010000000000000LIB       United States Senator POTTER COUNTYWIDE                 John Jay Myers                        PCT 121 - SAN JACINTO                                  01 
01050030002000040000000000015000024000001000000LIB       United States Senator POTTER COUNTYWIDE                 John Jay Myers                        PCT 122 - BELMAR                                       01 
01050030003000060000001000025000034000000000000LIB       United States Senator POTTER COUNTYWIDE                 John Jay Myers                        PCT 123 - AUSTIN                                       01 
01050030004000027000001000014000012000000000000LIB       United States Senator POTTER COUNTYWIDE                 John Jay Myers                        PCT 124 - OLSEN PARK                                   01 
01050030005000043000002000014000027000000000000LIB       United States Senator POTTER COUNTYWIDE                 John Jay Myers                        PCT 125 - BIVINS                                       01 
01050030006000046000003000020000023000000000000LIB       United States Senator POTTER COUNTYWIDE                 John Jay Myers                        PCT 126 - TASCOSA                                      01 
01050030007000010000000000005000005000000000000LIB       United States Senator POTTER COUNTYWIDE                 John Jay Myers                        PCT 221 - FOREST HILL                                  01 
01050030008000012000000000003000009000000000000LIB       United States Senator POTTER COUNTYWIDE                 John Jay Myers                        PCT 222 - EASTRIDGE                                    01 
01050030009000016000000000002000014000000000000LIB       United States Senator POTTER COUNTYWIDE                 John Jay Myers                        PCT 223 - BOWIE                                        01 
01050030010000026000000000008000018000000000000LIB       United States Senator POTTER COUNTYWIDE                 John Jay Myers                        PCT 224 - LAWNDALE                                     01 
01050030011000013000001000007000005000000000000LIB       United States Senator POTTER COUNTYWIDE                 John Jay Myers                        PCT 225 - HUMPHREY'S HIGHLAND                          01 
01050030012000022000000000008000014000000000000LIB       United States Senator POTTER COUNTYWIDE                 John Jay Myers                        PCT 321 - BUSHLAND                                     01 
01050030013000002000000000000000002000000000000LIB       United States Senator POTTER COUNTYWIDE                 John Jay Myers                        PCT 322 - VALLE DE ORO                                 01 
01050030014000040000004000017000019000000000000LIB       United States Senator POTTER COUNTYWIDE                 John Jay Myers                        PCT 323 - RIVER ROAD MIDDLE                            01 
01050030015000036000003000018000015000000000000LIB       United States Senator POTTER COUNTYWIDE                 John Jay Myers                        PCT 324 - DE ZAVALA                                    01 
01050030016000031000001000003000027000000000000LIB       United States Senator POTTER COUNTYWIDE                 John Jay Myers                        PCT 325 - AVONDALE                                     01 
01050030017000033000005000013000015000000000000LIB       United States Senator POTTER COUNTYWIDE                 John Jay Myers                        PCT 326 - PLEASANT VALLEY                              01 
01050030018000014000000000003000011000000000000LIB       United States Senator POTTER COUNTYWIDE                 John Jay Myers                        PCT 327 - HIGHLAND PARK                                01 
01050030019000006000000000002000004000000000000LIB       United States Senator POTTER COUNTYWIDE                 John Jay Myers                        PCT 421 - PALO DURO                                    01 
01050030020000031000001000015000015000000000000LIB       United States Senator POTTER COUNTYWIDE                 John Jay Myers                        PCT 422 - N HEIGHTS                                    01 
01050030021000006000000000002000004000000000000LIB       United States Senator POTTER COUNTYWIDE                 John Jay Myers                        PCT 424 - HAMLET                                       01 
01050030022000009000000000002000007000000000000LIB       United States Senator POTTER COUNTYWIDE                 John Jay Myers                        PCT 425 - WHITTIER                                     01 
01050030023000003000000000002000001000000000000LIB       United States Senator POTTER COUNTYWIDE                 John Jay Myers                        PCT 426 - MESA VERDE                                   01 
01050030024000005000001000001000003000000000000LIB       United States Senator POTTER COUNTYWIDE                 John Jay Myers                        PCT 427 - WILL ROGERS                                  01 
01050040001000008000000000004000004000000000000GRN       United States Senator POTTER COUNTYWIDE                 David B. Collins                      PCT 121 - SAN JACINTO                                  01 
01050040002000007000000000004000003000000000000GRN       United States Senator POTTER COUNTYWIDE                 David B. Collins                      PCT 122 - BELMAR                                       01 
01050040003000019000001000011000007000000000000GRN       United States Senator POTTER COUNTYWIDE                 David B. Collins                      PCT 123 - AUSTIN                                       01 
01050040004000009000000000006000003000000000000GRN       United States Senator POTTER COUNTYWIDE                 David B. Collins                      PCT 124 - OLSEN PARK                                   01 
01050040005000021000000000011000010000000000000GRN       United States Senator POTTER COUNTYWIDE                 David B. Collins                      PCT 125 - BIVINS                                       01 
01050040006000018000002000007000009000000000000GRN       United States Senator POTTER COUNTYWIDE                 David B. Collins                      PCT 126 - TASCOSA                                      01 
01050040007000003000001000001000001000000000000GRN       United States Senator POTTER COUNTYWIDE                 David B. Collins                      PCT 221 - FOREST HILL                                  01 
01050040008000004000000000000000003000001000000GRN       United States Senator POTTER COUNTYWIDE                 David B. Collins                      PCT 222 - EASTRIDGE                                    01 
01050040009000009000000000002000007000000000000GRN       United States Senator POTTER COUNTYWIDE                 David B. Collins                      PCT 223 - BOWIE                                        01 
01050040010000010000000000004000006000000000000GRN       United States Senator POTTER COUNTYWIDE                 David B. Collins                      PCT 224 - LAWNDALE                                     01 
01050040011000008000000000002000006000000000000GRN       United States Senator POTTER COUNTYWIDE                 David B. Collins                      PCT 225 - HUMPHREY'S HIGHLAND                          01 
01050040012000009000000000004000005000000000000GRN       United States Senator POTTER COUNTYWIDE                 David B. Collins                      PCT 321 - BUSHLAND                                     01 
01050040013000003000000000000000003000000000000GRN       United States Senator POTTER COUNTYWIDE                 David B. Collins                      PCT 322 - VALLE DE ORO                                 01 
01050040014000026000003000012000011000000000000GRN       United States Senator POTTER COUNTYWIDE                 David B. Collins                      PCT 323 - RIVER ROAD MIDDLE                            01 
01050040015000008000000000004000004000000000000GRN       United States Senator POTTER COUNTYWIDE                 David B. Collins                      PCT 324 - DE ZAVALA                                    01 
01050040016000019000001000007000010000001000000GRN       United States Senator POTTER COUNTYWIDE                 David B. Collins                      PCT 325 - AVONDALE                                     01 
01050040017000016000000000004000012000000000000GRN       United States Senator POTTER COUNTYWIDE                 David B. Collins                      PCT 326 - PLEASANT VALLEY                              01 
01050040018000008000000000000000008000000000000GRN       United States Senator POTTER COUNTYWIDE                 David B. Collins                      PCT 327 - HIGHLAND PARK                                01 
01050040019000005000000000002000003000000000000GRN       United States Senator POTTER COUNTYWIDE                 David B. Collins                      PCT 421 - PALO DURO                                    01 
01050040020000013000000000003000010000000000000GRN       United States Senator POTTER COUNTYWIDE                 David B. Collins                      PCT 422 - N HEIGHTS                                    01 
01050040021000005000000000001000004000000000000GRN       United States Senator POTTER COUNTYWIDE                 David B. Collins                      PCT 424 - HAMLET                                       01 
01050040022000003000001000002000000000000000000GRN       United States Senator POTTER COUNTYWIDE                 David B. Collins                      PCT 425 - WHITTIER                                     01 
01050040023000004000001000002000001000000000000GRN       United States Senator POTTER COUNTYWIDE                 David B. Collins                      PCT 426 - MESA VERDE                                   01 
01050040024000003000000000001000002000000000000GRN       United States Senator POTTER COUNTYWIDE                 David B. Collins                      PCT 427 - WILL ROGERS                                  01 
01050050001000000000000000000000000000000000000          United States Senator POTTER COUNTYWIDE                 OVER VOTES                            PCT 121 - SAN JACINTO                                  01 
01050050002000000000000000000000000000000000000          United States Senator POTTER COUNTYWIDE                 OVER VOTES                            PCT 122 - BELMAR                                       01 
01050050003000000000000000000000000000000000000          United States Senator POTTER COUNTYWIDE                 OVER VOTES                            PCT 123 - AUSTIN                                       01 
01050050004000000000000000000000000000000000000          United States Senator POTTER COUNTYWIDE                 OVER VOTES                            PCT 124 - OLSEN PARK                                   01 
01050050005000000000000000000000000000000000000          United States Senator POTTER COUNTYWIDE                 OVER VOTES                            PCT 125 - BIVINS                                       01 
01050050006000000000000000000000000000000000000          United States Senator POTTER COUNTYWIDE                 OVER VOTES                            PCT 126 - TASCOSA                                      01 
01050050007000000000000000000000000000000000000          United States Senator POTTER COUNTYWIDE                 OVER VOTES                            PCT 221 - FOREST HILL                                  01 
01050050008000000000000000000000000000000000000          United States Senator POTTER COUNTYWIDE                 OVER VOTES                            PCT 222 - EASTRIDGE                                    01 
01050050009000000000000000000000000000000000000          United States Senator POTTER COUNTYWIDE                 OVER VOTES                            PCT 223 - BOWIE                                        01 
01050050010000000000000000000000000000000000000          United States Senator POTTER COUNTYWIDE                 OVER VOTES                            PCT 224 - LAWNDALE                                     01 
01050050011000000000000000000000000000000000000          United States Senator POTTER COUNTYWIDE                 OVER VOTES                            PCT 225 - HUMPHREY'S HIGHLAND                          01 
01050050012000000000000000000000000000000000000          United States Senator POTTER COUNTYWIDE                 OVER VOTES                            PCT 321 - BUSHLAND                                     01 
01050050013000000000000000000000000000000000000          United States Senator POTTER COUNTYWIDE                 OVER VOTES                            PCT 322 - VALLE DE ORO                                 01 
01050050014000000000000000000000000000000000000          United States Senator POTTER COUNTYWIDE                 OVER VOTES                            PCT 323 - RIVER ROAD MIDDLE                            01 
01050050015000000000000000000000000000000000000          United States Senator POTTER COUNTYWIDE                 OVER VOTES                            PCT 324 - DE ZAVALA                                    01 
01050050016000000000000000000000000000000000000          United States Senator POTTER COUNTYWIDE                 OVER VOTES                            PCT 325 - AVONDALE                                     01 
01050050017000000000000000000000000000000000000          United States Senator POTTER COUNTYWIDE                 OVER VOTES                            PCT 326 - PLEASANT VALLEY                              01 
