01010010001004320000000000000000000000000000000          REGISTERED VOTERS - TOTAL                               REGISTERED VOTERS - TOTAL             PRECINCT 1                                             00 
01010010002003332000000000000000000000000000000          REGISTERED VOTERS - TOTAL                               REGISTERED VOTERS - TOTAL             PRECINCT 1A                                            00 
01010010003003155000000000000000000000000000000          REGISTERED VOTERS - TOTAL                               REGISTERED VOTERS - TOTAL             PRECINCT 1B                                            00 
01010010004002806000000000000000000000000000000          REGISTERED VOTERS - TOTAL                               REGISTERED VOTERS - TOTAL             PRECINCT 1C                                            00 
01010010005003694000000000000000000000000000000          REGISTERED VOTERS - TOTAL                               REGISTERED VOTERS - TOTAL             PRECINCT 2                                             00 
01010010006004010000000000000000000000000000000          REGISTERED VOTERS - TOTAL                               REGISTERED VOTERS - TOTAL             PRECINCT 2A                                            00 
01010010007001798000000000000000000000000000000          REGISTERED VOTERS - TOTAL                               REGISTERED VOTERS - TOTAL             PRECINCT 2B                                            00 
01010010008004057000000000000000000000000000000          REGISTERED VOTERS - TOTAL                               REGISTERED VOTERS - TOTAL             PRECINCT 2C                                            00 
01010010009000764000000000000000000000000000000          REGISTERED VOTERS - TOTAL                               REGISTERED VOTERS - TOTAL             PRECINCT 3                                             00 
01010010010001273000000000000000000000000000000          REGISTERED VOTERS - TOTAL                               REGISTERED VOTERS - TOTAL             PRECINCT 3A                                            00 
01010010011002632000000000000000000000000000000          REGISTERED VOTERS - TOTAL                               REGISTERED VOTERS - TOTAL             PRECINCT 3B                                            00 
01010010012002095000000000000000000000000000000          REGISTERED VOTERS - TOTAL                               REGISTERED VOTERS - TOTAL             PRECINCT 3C                                            00 
01010010013003997000000000000000000000000000000          REGISTERED VOTERS - TOTAL                               REGISTERED VOTERS - TOTAL             PRECINCT 3D                                            00 
01010010014002090000000000000000000000000000000          REGISTERED VOTERS - TOTAL                               REGISTERED VOTERS - TOTAL             PRECINCT 4                                             00 
01010010015004451000000000000000000000000000000          REGISTERED VOTERS - TOTAL                               REGISTERED VOTERS - TOTAL             PRECINCT 4A                                            00 
01010010016001499000000000000000000000000000000          REGISTERED VOTERS - TOTAL                               REGISTERED VOTERS - TOTAL             PRECINCT 4B                                            00 
01010010017002577000000000000000000000000000000          REGISTERED VOTERS - TOTAL                               REGISTERED VOTERS - TOTAL             PRECINCT 4C                                            00 
01020010001003130001020001267000326000514000003          BALLOTS CAST - TOTAL                                    BALLOTS CAST - TOTAL                  PRECINCT 1                                             00 
01020010002002395000621000766000433000574000001          BALLOTS CAST - TOTAL                                    BALLOTS CAST - TOTAL                  PRECINCT 1A                                            00 
01020010003002719000790000721000328000878000002          BALLOTS CAST - TOTAL                                    BALLOTS CAST - TOTAL                  PRECINCT 1B                                            00 
01020010004002461000684000696000235000844000002          BALLOTS CAST - TOTAL                                    BALLOTS CAST - TOTAL                  PRECINCT 1C                                            00 
01020010005002987001032000850000284000820000001          BALLOTS CAST - TOTAL                                    BALLOTS CAST - TOTAL                  PRECINCT 2                                             00 
01020010006003169000986000967000444000770000002          BALLOTS CAST - TOTAL                                    BALLOTS CAST - TOTAL                  PRECINCT 2A                                            00 
01020010007001192000348000443000165000235000001          BALLOTS CAST - TOTAL                                    BALLOTS CAST - TOTAL                  PRECINCT 2B                                            00 
01020010008003046000993001224000787000038000004          BALLOTS CAST - TOTAL                                    BALLOTS CAST - TOTAL                  PRECINCT 2C                                            00 
01020010009000330000148000064000051000067000000          BALLOTS CAST - TOTAL                                    BALLOTS CAST - TOTAL                  PRECINCT 3                                             00 
01020010010000852000159000221000137000334000001          BALLOTS CAST - TOTAL                                    BALLOTS CAST - TOTAL                  PRECINCT 3A                                            00 
01020010011002052000404000573000366000708000001          BALLOTS CAST - TOTAL                                    BALLOTS CAST - TOTAL                  PRECINCT 3B                                            00 
01020010012001651000546000691000157000256000001          BALLOTS CAST - TOTAL                                    BALLOTS CAST - TOTAL                  PRECINCT 3C                                            00 
01020010013002790000759001026000573000431000001          BALLOTS CAST - TOTAL                                    BALLOTS CAST - TOTAL                  PRECINCT 3D                                            00 
01020010014001631000544000435000214000436000002          BALLOTS CAST - TOTAL                                    BALLOTS CAST - TOTAL                  PRECINCT 4                                             00 
01020010015002881000655000977000658000590000001          BALLOTS CAST - TOTAL                                    BALLOTS CAST - TOTAL                  PRECINCT 4A                                            00 
01020010016000889000264000292000143000190000000          BALLOTS CAST - TOTAL                                    BALLOTS CAST - TOTAL                  PRECINCT 4B                                            00 
01020010017001690000317000763000241000369000000          BALLOTS CAST - TOTAL                                    BALLOTS CAST - TOTAL                  PRECINCT 4C                                            00 
01030010001001539000508000663000140000227000001REP       STRAIGHT PARTY                                          REPUBLICAN PARTY                      PRECINCT 1                                             01 
01030010002001108000306000369000165000268000000REP       STRAIGHT PARTY                                          REPUBLICAN PARTY                      PRECINCT 1A                                            01 
01030010003001409000416000408000166000418000001REP       STRAIGHT PARTY                                          REPUBLICAN PARTY                      PRECINCT 1B                                            01 
01030010004001282000342000400000105000434000001REP       STRAIGHT PARTY                                          REPUBLICAN PARTY                      PRECINCT 1C                                            01 
01030010005001479000505000470000121000382000001REP       STRAIGHT PARTY                                          REPUBLICAN PARTY                      PRECINCT 2                                             01 
01030010006001589000507000548000194000338000002REP       STRAIGHT PARTY                                          REPUBLICAN PARTY                      PRECINCT 2A                                            01 
01030010007000603000189000230000081000103000000REP       STRAIGHT PARTY                                          REPUBLICAN PARTY                      PRECINCT 2B                                            01 
01030010008001586000502000716000347000020000001REP       STRAIGHT PARTY                                          REPUBLICAN PARTY                      PRECINCT 2C                                            01 
01030010009000115000053000034000007000021000000REP       STRAIGHT PARTY                                          REPUBLICAN PARTY                      PRECINCT 3                                             01 
01030010010000327000062000099000046000120000000REP       STRAIGHT PARTY                                          REPUBLICAN PARTY                      PRECINCT 3A                                            01 
01030010011000853000171000255000147000280000000REP       STRAIGHT PARTY                                          REPUBLICAN PARTY                      PRECINCT 3B                                            01 
01030010012000901000291000431000058000121000000REP       STRAIGHT PARTY                                          REPUBLICAN PARTY                      PRECINCT 3C                                            01 
01030010013001538000394000631000272000240000001REP       STRAIGHT PARTY                                          REPUBLICAN PARTY                      PRECINCT 3D                                            01 
01030010014000831000290000246000099000194000002REP       STRAIGHT PARTY                                          REPUBLICAN PARTY                      PRECINCT 4                                             01 
01030010015001441000353000504000289000294000001REP       STRAIGHT PARTY                                          REPUBLICAN PARTY                      PRECINCT 4A                                            01 
01030010016000404000113000157000053000081000000REP       STRAIGHT PARTY                                          REPUBLICAN PARTY                      PRECINCT 4B                                            01 
01030010017000801000145000384000099000173000000REP       STRAIGHT PARTY                                          REPUBLICAN PARTY                      PRECINCT 4C                                            01 
01030020001000296000091000122000026000056000001DEM       STRAIGHT PARTY                                          DEMOCRATIC PARTY                      PRECINCT 1                                             01 
01030020002000409000093000132000077000106000001DEM       STRAIGHT PARTY                                          DEMOCRATIC PARTY                      PRECINCT 1A                                            01 
01030020003000217000042000067000020000088000000DEM       STRAIGHT PARTY                                          DEMOCRATIC PARTY                      PRECINCT 1B                                            01 
01030020004000171000047000046000016000062000000DEM       STRAIGHT PARTY                                          DEMOCRATIC PARTY                      PRECINCT 1C                                            01 
01030020005000318000106000089000033000090000000DEM       STRAIGHT PARTY                                          DEMOCRATIC PARTY                      PRECINCT 2                                             01 
01030020006000392000112000110000048000122000000DEM       STRAIGHT PARTY                                          DEMOCRATIC PARTY                      PRECINCT 2A                                            01 
01030020007000190000040000089000026000034000001DEM       STRAIGHT PARTY                                          DEMOCRATIC PARTY                      PRECINCT 2B                                            01 
01030020008000217000065000098000052000002000000DEM       STRAIGHT PARTY                                          DEMOCRATIC PARTY                      PRECINCT 2C                                            01 
01030020009000115000049000015000026000025000000DEM       STRAIGHT PARTY                                          DEMOCRATIC PARTY                      PRECINCT 3                                             01 
01030020010000232000037000054000045000096000000DEM       STRAIGHT PARTY                                          DEMOCRATIC PARTY                      PRECINCT 3A                                            01 
01030020011000451000074000149000068000160000000DEM       STRAIGHT PARTY                                          DEMOCRATIC PARTY                      PRECINCT 3B                                            01 
01030020012000083000032000027000012000012000000DEM       STRAIGHT PARTY                                          DEMOCRATIC PARTY                      PRECINCT 3C                                            01 
01030020013000263000072000093000051000047000000DEM       STRAIGHT PARTY                                          DEMOCRATIC PARTY                      PRECINCT 3D                                            01 
01030020014000153000040000039000014000060000000DEM       STRAIGHT PARTY                                          DEMOCRATIC PARTY                      PRECINCT 4                                             01 
01030020015000423000083000163000083000094000000DEM       STRAIGHT PARTY                                          DEMOCRATIC PARTY                      PRECINCT 4A                                            01 
01030020016000132000031000048000014000039000000DEM       STRAIGHT PARTY                                          DEMOCRATIC PARTY                      PRECINCT 4B                                            01 
01030020017000273000054000119000038000062000000DEM       STRAIGHT PARTY                                          DEMOCRATIC PARTY                      PRECINCT 4C                                            01 
01030030001000017000009000001000003000004000000LIB       STRAIGHT PARTY                                          LIBERTARIAN PARTY                     PRECINCT 1                                             01 
01030030002000018000003000003000002000010000000LIB       STRAIGHT PARTY                                          LIBERTARIAN PARTY                     PRECINCT 1A                                            01 
01030030003000009000001000000000000000008000000LIB       STRAIGHT PARTY                                          LIBERTARIAN PARTY                     PRECINCT 1B                                            01 
01030030004000008000002000001000001000004000000LIB       STRAIGHT PARTY                                          LIBERTARIAN PARTY                     PRECINCT 1C                                            01 
01030030005000014000002000003000001000008000000LIB       STRAIGHT PARTY                                          LIBERTARIAN PARTY                     PRECINCT 2                                             01 
01030030006000009000004000001000002000002000000LIB       STRAIGHT PARTY                                          LIBERTARIAN PARTY                     PRECINCT 2A                                            01 
01030030007000007000002000003000001000001000000LIB       STRAIGHT PARTY                                          LIBERTARIAN PARTY                     PRECINCT 2B                                            01 
01030030008000012000003000002000007000000000000LIB       STRAIGHT PARTY                                          LIBERTARIAN PARTY                     PRECINCT 2C                                            01 
01030030009000000000000000000000000000000000000LIB       STRAIGHT PARTY                                          LIBERTARIAN PARTY                     PRECINCT 3                                             01 
01030030010000002000000000000000000000002000000LIB       STRAIGHT PARTY                                          LIBERTARIAN PARTY                     PRECINCT 3A                                            01 
01030030011000005000001000002000000000002000000LIB       STRAIGHT PARTY                                          LIBERTARIAN PARTY                     PRECINCT 3B                                            01 
01030030012000005000004000001000000000000000000LIB       STRAIGHT PARTY                                          LIBERTARIAN PARTY                     PRECINCT 3C                                            01 
01030030013000011000005000000000005000001000000LIB       STRAIGHT PARTY                                          LIBERTARIAN PARTY                     PRECINCT 3D                                            01 
01030030014000003000002000000000001000000000000LIB       STRAIGHT PARTY                                          LIBERTARIAN PARTY                     PRECINCT 4                                             01 
01030030015000017000000000003000009000005000000LIB       STRAIGHT PARTY                                          LIBERTARIAN PARTY                     PRECINCT 4A                                            01 
01030030016000009000003000001000002000003000000LIB       STRAIGHT PARTY                                          LIBERTARIAN PARTY                     PRECINCT 4B                                            01 
01030030017000007000001000003000001000002000000LIB       STRAIGHT PARTY                                          LIBERTARIAN PARTY                     PRECINCT 4C                                            01 
01030040001000001000000000001000000000000000000GRN       STRAIGHT PARTY                                          GREEN PARTY                           PRECINCT 1                                             01 
01030040002000003000000000001000000000002000000GRN       STRAIGHT PARTY                                          GREEN PARTY                           PRECINCT 1A                                            01 
01030040003000002000000000000000000000002000000GRN       STRAIGHT PARTY                                          GREEN PARTY                           PRECINCT 1B                                            01 
01030040004000003000000000001000000000002000000GRN       STRAIGHT PARTY                                          GREEN PARTY                           PRECINCT 1C                                            01 
01030040005000001000000000001000000000000000000GRN       STRAIGHT PARTY                                          GREEN PARTY                           PRECINCT 2                                             01 
01030040006000005000002000001000002000000000000GRN       STRAIGHT PARTY                                          GREEN PARTY                           PRECINCT 2A                                            01 
01030040007000000000000000000000000000000000000GRN       STRAIGHT PARTY                                          GREEN PARTY                           PRECINCT 2B                                            01 
01030040008000002000000000000000002000000000000GRN       STRAIGHT PARTY                                          GREEN PARTY                           PRECINCT 2C                                            01 
01030040009000000000000000000000000000000000000GRN       STRAIGHT PARTY                                          GREEN PARTY                           PRECINCT 3                                             01 
01030040010000001000000000000000001000000000000GRN       STRAIGHT PARTY                                          GREEN PARTY                           PRECINCT 3A                                            01 
01030040011000002000000000000000000000002000000GRN       STRAIGHT PARTY                                          GREEN PARTY                           PRECINCT 3B                                            01 
01030040012000001000001000000000000000000000000GRN       STRAIGHT PARTY                                          GREEN PARTY                           PRECINCT 3C                                            01 
01030040013000001000000000000000001000000000000GRN       STRAIGHT PARTY                                          GREEN PARTY                           PRECINCT 3D                                            01 
01030040014000003000000000000000001000002000000GRN       STRAIGHT PARTY                                          GREEN PARTY                           PRECINCT 4                                             01 
01030040015000001000001000000000000000000000000GRN       STRAIGHT PARTY                                          GREEN PARTY                           PRECINCT 4A                                            01 
01030040016000002000001000000000001000000000000GRN       STRAIGHT PARTY                                          GREEN PARTY                           PRECINCT 4B                                            01 
01030040017000002000000000000000001000001000000GRN       STRAIGHT PARTY                                          GREEN PARTY                           PRECINCT 4C                                            01 
01030050001000000000000000000000000000000000000          STRAIGHT PARTY                                          OVER VOTES                            PRECINCT 1                                             01 
01030050002000000000000000000000000000000000000          STRAIGHT PARTY                                          OVER VOTES                            PRECINCT 1A                                            01 
01030050003000000000000000000000000000000000000          STRAIGHT PARTY                                          OVER VOTES                            PRECINCT 1B                                            01 
01030050004000000000000000000000000000000000000          STRAIGHT PARTY                                          OVER VOTES                            PRECINCT 1C                                            01 
01030050005000001000000000000000001000000000000          STRAIGHT PARTY                                          OVER VOTES                            PRECINCT 2                                             01 
01030050006000000000000000000000000000000000000          STRAIGHT PARTY                                          OVER VOTES                            PRECINCT 2A                                            01 
01030050007000000000000000000000000000000000000          STRAIGHT PARTY                                          OVER VOTES                            PRECINCT 2B                                            01 
01030050008000002000000000000000002000000000000          STRAIGHT PARTY                                          OVER VOTES                            PRECINCT 2C                                            01 
01030050009000000000000000000000000000000000000          STRAIGHT PARTY                                          OVER VOTES                            PRECINCT 3                                             01 
01030050010000000000000000000000000000000000000          STRAIGHT PARTY                                          OVER VOTES                            PRECINCT 3A                                            01 
01030050011000000000000000000000000000000000000          STRAIGHT PARTY                                          OVER VOTES                            PRECINCT 3B                                            01 
01030050012000000000000000000000000000000000000          STRAIGHT PARTY                                          OVER VOTES                            PRECINCT 3C                                            01 
01030050013000001000000000000000001000000000000          STRAIGHT PARTY                                          OVER VOTES                            PRECINCT 3D                                            01 
01030050014000000000000000000000000000000000000          STRAIGHT PARTY                                          OVER VOTES                            PRECINCT 4                                             01 
01030050015000000000000000000000000000000000000          STRAIGHT PARTY                                          OVER VOTES                            PRECINCT 4A                                            01 
01030050016000000000000000000000000000000000000          STRAIGHT PARTY                                          OVER VOTES                            PRECINCT 4B                                            01 
01030050017000000000000000000000000000000000000          STRAIGHT PARTY                                          OVER VOTES                            PRECINCT 4C                                            01 
01030060001001274000409000480000157000227000001          STRAIGHT PARTY                                          UNDER VOTES                           PRECINCT 1                                             01 
01030060002000857000219000261000189000188000000          STRAIGHT PARTY                                          UNDER VOTES                           PRECINCT 1A                                            01 
01030060003001082000331000246000142000362000001          STRAIGHT PARTY                                          UNDER VOTES                           PRECINCT 1B                                            01 
01030060004000997000293000248000113000342000001          STRAIGHT PARTY                                          UNDER VOTES                           PRECINCT 1C                                            01 
01030060005001174000419000287000128000340000000          STRAIGHT PARTY                                          UNDER VOTES                           PRECINCT 2                                             01 
01030060006001172000360000307000197000308000000          STRAIGHT PARTY                                          UNDER VOTES                           PRECINCT 2A                                            01 
01030060007000392000117000121000057000097000000          STRAIGHT PARTY                                          UNDER VOTES                           PRECINCT 2B                                            01 
01030060008001226000423000408000376000016000003          STRAIGHT PARTY                                          UNDER VOTES                           PRECINCT 2C                                            01 
01030060009000100000046000015000018000021000000          STRAIGHT PARTY                                          UNDER VOTES                           PRECINCT 3                                             01 
01030060010000290000060000068000045000116000001          STRAIGHT PARTY                                          UNDER VOTES                           PRECINCT 3A                                            01 
01030060011000740000158000167000150000264000001          STRAIGHT PARTY                                          UNDER VOTES                           PRECINCT 3B                                            01 
01030060012000661000218000232000087000123000001          STRAIGHT PARTY                                          UNDER VOTES                           PRECINCT 3C                                            01 
01030060013000974000288000302000241000143000000          STRAIGHT PARTY                                          UNDER VOTES                           PRECINCT 3D                                            01 
01030060014000641000212000150000099000180000000          STRAIGHT PARTY                                          UNDER VOTES                           PRECINCT 4                                             01 
01030060015000997000218000307000275000197000000          STRAIGHT PARTY                                          UNDER VOTES                           PRECINCT 4A                                            01 
01030060016000342000116000086000073000067000000          STRAIGHT PARTY                                          UNDER VOTES                           PRECINCT 4B                                            01 
01030060017000607000117000257000102000131000000          STRAIGHT PARTY                                          UNDER VOTES                           PRECINCT 4C                                            01 
01040010001002426000784001009000251000380000002REP       President and Vice President ROCKWALL COUNTYWIDE        Mitt Romney / Paul Ryan               PRECINCT 1                                             01 
01040010002001659000460000533000290000376000000REP       President and Vice President ROCKWALL COUNTYWIDE        Mitt Romney / Paul Ryan               PRECINCT 1A                                            01 
01040010003002187000662000592000257000674000002REP       President and Vice President ROCKWALL COUNTYWIDE        Mitt Romney / Paul Ryan               PRECINCT 1B                                            01 
01040010004001979000551000582000182000662000002REP       President and Vice President ROCKWALL COUNTYWIDE        Mitt Romney / Paul Ryan               PRECINCT 1C                                            01 
01040010005002262000793000671000203000594000001REP       President and Vice President ROCKWALL COUNTYWIDE        Mitt Romney / Paul Ryan               PRECINCT 2                                             01 
01040010006002359000758000768000303000528000002REP       President and Vice President ROCKWALL COUNTYWIDE        Mitt Romney / Paul Ryan               PRECINCT 2A                                            01 
01040010007000844000261000307000110000166000000REP       President and Vice President ROCKWALL COUNTYWIDE        Mitt Romney / Paul Ryan               PRECINCT 2B                                            01 
01040010008002496000832001013000620000030000001REP       President and Vice President ROCKWALL COUNTYWIDE        Mitt Romney / Paul Ryan               PRECINCT 2C                                            01 
01040010009000162000073000040000018000031000000REP       President and Vice President ROCKWALL COUNTYWIDE        Mitt Romney / Paul Ryan               PRECINCT 3                                             01 
01040010010000486000097000135000069000184000001REP       President and Vice President ROCKWALL COUNTYWIDE        Mitt Romney / Paul Ryan               PRECINCT 3A                                            01 
01040010011001304000260000355000239000450000000REP       President and Vice President ROCKWALL COUNTYWIDE        Mitt Romney / Paul Ryan               PRECINCT 3B                                            01 
01040010012001425000466000620000123000216000000REP       President and Vice President ROCKWALL COUNTYWIDE        Mitt Romney / Paul Ryan               PRECINCT 3C                                            01 
01040010013002270000617000872000441000339000001REP       President and Vice President ROCKWALL COUNTYWIDE        Mitt Romney / Paul Ryan               PRECINCT 3D                                            01 
01040010014001266000444000353000161000306000002REP       President and Vice President ROCKWALL COUNTYWIDE        Mitt Romney / Paul Ryan               PRECINCT 4                                             01 
01040010015002126000510000725000475000415000001REP       President and Vice President ROCKWALL COUNTYWIDE        Mitt Romney / Paul Ryan               PRECINCT 4A                                            01 
01040010016000638000190000224000097000127000000REP       President and Vice President ROCKWALL COUNTYWIDE        Mitt Romney / Paul Ryan               PRECINCT 4B                                            01 
01040010017001224000223000574000165000262000000REP       President and Vice President ROCKWALL COUNTYWIDE        Mitt Romney / Paul Ryan               PRECINCT 4C                                            01 
01040020001000647000213000242000071000120000001DEM       President and Vice President ROCKWALL COUNTYWIDE        Barack Obama / Joe Biden              PRECINCT 1                                             01 
01040020002000670000150000222000129000168000001DEM       President and Vice President ROCKWALL COUNTYWIDE        Barack Obama / Joe Biden              PRECINCT 1A                                            01 
01040020003000498000120000122000062000194000000DEM       President and Vice President ROCKWALL COUNTYWIDE        Barack Obama / Joe Biden              PRECINCT 1B                                            01 
01040020004000442000123000104000049000166000000DEM       President and Vice President ROCKWALL COUNTYWIDE        Barack Obama / Joe Biden              PRECINCT 1C                                            01 
01040020005000660000224000167000077000192000000DEM       President and Vice President ROCKWALL COUNTYWIDE        Barack Obama / Joe Biden              PRECINCT 2                                             01 
01040020006000763000214000190000129000230000000DEM       President and Vice President ROCKWALL COUNTYWIDE        Barack Obama / Joe Biden              PRECINCT 2A                                            01 
01040020007000327000078000132000051000065000001DEM       President and Vice President ROCKWALL COUNTYWIDE        Barack Obama / Joe Biden              PRECINCT 2B                                            01 
01040020008000507000152000202000144000006000003DEM       President and Vice President ROCKWALL COUNTYWIDE        Barack Obama / Joe Biden              PRECINCT 2C                                            01 
01040020009000165000075000024000031000035000000DEM       President and Vice President ROCKWALL COUNTYWIDE        Barack Obama / Joe Biden              PRECINCT 3                                             01 
01040020010000347000057000082000062000146000000DEM       President and Vice President ROCKWALL COUNTYWIDE        Barack Obama / Joe Biden              PRECINCT 3A                                            01 
01040020011000710000139000208000118000244000001DEM       President and Vice President ROCKWALL COUNTYWIDE        Barack Obama / Joe Biden              PRECINCT 3B                                            01 
01040020012000208000073000066000034000034000001DEM       President and Vice President ROCKWALL COUNTYWIDE        Barack Obama / Joe Biden              PRECINCT 3C                                            01 
01040020013000485000130000147000119000089000000DEM       President and Vice President ROCKWALL COUNTYWIDE        Barack Obama / Joe Biden              PRECINCT 3D                                            01 
01040020014000325000088000073000046000118000000DEM       President and Vice President ROCKWALL COUNTYWIDE        Barack Obama / Joe Biden              PRECINCT 4                                             01 
01040020015000696000139000238000159000160000000DEM       President and Vice President ROCKWALL COUNTYWIDE        Barack Obama / Joe Biden              PRECINCT 4A                                            01 
01040020016000228000064000067000038000059000000DEM       President and Vice President ROCKWALL COUNTYWIDE        Barack Obama / Joe Biden              PRECINCT 4B                                            01 
01040020017000442000093000178000070000101000000DEM       President and Vice President ROCKWALL COUNTYWIDE        Barack Obama / Joe Biden              PRECINCT 4C                                            01 
01040030001000039000017000010000003000009000000LIB       President and Vice President ROCKWALL COUNTYWIDE        Gary Johnson / Jim Gray               PRECINCT 1                                             01 
01040030002000038000007000006000009000016000000LIB       President and Vice President ROCKWALL COUNTYWIDE        Gary Johnson / Jim Gray               PRECINCT 1A                                            01 
01040030003000017000004000004000003000006000000LIB       President and Vice President ROCKWALL COUNTYWIDE        Gary Johnson / Jim Gray               PRECINCT 1B                                            01 
01040030004000026000006000005000003000012000000LIB       President and Vice President ROCKWALL COUNTYWIDE        Gary Johnson / Jim Gray               PRECINCT 1C                                            01 
01040030005000044000010000006000002000026000000LIB       President and Vice President ROCKWALL COUNTYWIDE        Gary Johnson / Jim Gray               PRECINCT 2                                             01 
01040030006000024000007000004000009000004000000LIB       President and Vice President ROCKWALL COUNTYWIDE        Gary Johnson / Jim Gray               PRECINCT 2A                                            01 
01040030007000016000005000004000003000004000000LIB       President and Vice President ROCKWALL COUNTYWIDE        Gary Johnson / Jim Gray               PRECINCT 2B                                            01 
01040030008000029000005000007000017000000000000LIB       President and Vice President ROCKWALL COUNTYWIDE        Gary Johnson / Jim Gray               PRECINCT 2C                                            01 
01040030009000001000000000000000001000000000000LIB       President and Vice President ROCKWALL COUNTYWIDE        Gary Johnson / Jim Gray               PRECINCT 3                                             01 
01040030010000013000003000003000005000002000000LIB       President and Vice President ROCKWALL COUNTYWIDE        Gary Johnson / Jim Gray               PRECINCT 3A                                            01 
01040030011000011000003000004000004000000000000LIB       President and Vice President ROCKWALL COUNTYWIDE        Gary Johnson / Jim Gray               PRECINCT 3B                                            01 
01040030012000008000005000001000000000002000000LIB       President and Vice President ROCKWALL COUNTYWIDE        Gary Johnson / Jim Gray               PRECINCT 3C                                            01 
01040030013000025000009000005000008000003000000LIB       President and Vice President ROCKWALL COUNTYWIDE        Gary Johnson / Jim Gray               PRECINCT 3D                                            01 
01040030014000024000008000004000004000008000000LIB       President and Vice President ROCKWALL COUNTYWIDE        Gary Johnson / Jim Gray               PRECINCT 4                                             01 
01040030015000039000003000008000016000012000000LIB       President and Vice President ROCKWALL COUNTYWIDE        Gary Johnson / Jim Gray               PRECINCT 4A                                            01 
01040030016000016000006000001000006000003000000LIB       President and Vice President ROCKWALL COUNTYWIDE        Gary Johnson / Jim Gray               PRECINCT 4B                                            01 
01040030017000012000001000004000004000003000000LIB       President and Vice President ROCKWALL COUNTYWIDE        Gary Johnson / Jim Gray               PRECINCT 4C                                            01 
01040040001000001000000000001000000000000000000GRN       President and Vice President ROCKWALL COUNTYWIDE        Jill Stein / Cheri Honkala            PRECINCT 1                                             01 
01040040002000008000001000000000001000006000000GRN       President and Vice President ROCKWALL COUNTYWIDE        Jill Stein / Cheri Honkala            PRECINCT 1A                                            01 
01040040003000002000000000001000001000000000000GRN       President and Vice President ROCKWALL COUNTYWIDE        Jill Stein / Cheri Honkala            PRECINCT 1B                                            01 
01040040004000006000000000002000000000004000000GRN       President and Vice President ROCKWALL COUNTYWIDE        Jill Stein / Cheri Honkala            PRECINCT 1C                                            01 
01040040005000011000002000001000000000008000000GRN       President and Vice President ROCKWALL COUNTYWIDE        Jill Stein / Cheri Honkala            PRECINCT 2                                             01 
01040040006000002000001000001000000000000000000GRN       President and Vice President ROCKWALL COUNTYWIDE        Jill Stein / Cheri Honkala            PRECINCT 2A                                            01 
01040040007000000000000000000000000000000000000GRN       President and Vice President ROCKWALL COUNTYWIDE        Jill Stein / Cheri Honkala            PRECINCT 2B                                            01 
01040040008000002000000000000000002000000000000GRN       President and Vice President ROCKWALL COUNTYWIDE        Jill Stein / Cheri Honkala            PRECINCT 2C                                            01 
01040040009000001000000000000000001000000000000GRN       President and Vice President ROCKWALL COUNTYWIDE        Jill Stein / Cheri Honkala            PRECINCT 3                                             01 
01040040010000002000001000000000001000000000000GRN       President and Vice President ROCKWALL COUNTYWIDE        Jill Stein / Cheri Honkala            PRECINCT 3A                                            01 
01040040011000003000001000000000000000002000000GRN       President and Vice President ROCKWALL COUNTYWIDE        Jill Stein / Cheri Honkala            PRECINCT 3B                                            01 
01040040012000001000000000000000000000001000000GRN       President and Vice President ROCKWALL COUNTYWIDE        Jill Stein / Cheri Honkala            PRECINCT 3C                                            01 
01040040013000002000001000000000001000000000000GRN       President and Vice President ROCKWALL COUNTYWIDE        Jill Stein / Cheri Honkala            PRECINCT 3D                                            01 
01040040014000007000003000001000001000002000000GRN       President and Vice President ROCKWALL COUNTYWIDE        Jill Stein / Cheri Honkala            PRECINCT 4                                             01 
01040040015000005000002000001000002000000000000GRN       President and Vice President ROCKWALL COUNTYWIDE        Jill Stein / Cheri Honkala            PRECINCT 4A                                            01 
01040040016000002000002000000000000000000000000GRN       President and Vice President ROCKWALL COUNTYWIDE        Jill Stein / Cheri Honkala            PRECINCT 4B                                            01 
01040040017000004000000000002000001000001000000GRN       President and Vice President ROCKWALL COUNTYWIDE        Jill Stein / Cheri Honkala            PRECINCT 4C                                            01 
01040050001000008000004000000000001000003000000NON       President and Vice President ROCKWALL COUNTYWIDE        WRITE-IN                              PRECINCT 1                                             01 
01040050002000006000001000003000002000000000000NON       President and Vice President ROCKWALL COUNTYWIDE        WRITE-IN                              PRECINCT 1A                                            01 
01040050003000008000001000000000003000004000000NON       President and Vice President ROCKWALL COUNTYWIDE        WRITE-IN                              PRECINCT 1B                                            01 
01040050004000005000002000002000001000000000000NON       President and Vice President ROCKWALL COUNTYWIDE        WRITE-IN                              PRECINCT 1C                                            01 
01040050005000003000001000000000002000000000000NON       President and Vice President ROCKWALL COUNTYWIDE        WRITE-IN                              PRECINCT 2                                             01 
01040050006000008000003000001000002000002000000NON       President and Vice President ROCKWALL COUNTYWIDE        WRITE-IN                              PRECINCT 2A                                            01 
01040050007000004000003000000000001000000000000NON       President and Vice President ROCKWALL COUNTYWIDE        WRITE-IN                              PRECINCT 2B                                            01 
01040050008000007000002000000000003000002000000NON       President and Vice President ROCKWALL COUNTYWIDE        WRITE-IN                              PRECINCT 2C                                            01 
01040050009000000000000000000000000000000000000NON       President and Vice President ROCKWALL COUNTYWIDE        WRITE-IN                              PRECINCT 3                                             01 
01040050010000002000001000001000000000000000000NON       President and Vice President ROCKWALL COUNTYWIDE        WRITE-IN                              PRECINCT 3A                                            01 
01040050011000013000000000002000005000006000000NON       President and Vice President ROCKWALL COUNTYWIDE        WRITE-IN                              PRECINCT 3B                                            01 
01040050012000004000001000000000000000003000000NON       President and Vice President ROCKWALL COUNTYWIDE        WRITE-IN                              PRECINCT 3C                                            01 
01040050013000003000002000000000001000000000000NON       President and Vice President ROCKWALL COUNTYWIDE        WRITE-IN                              PRECINCT 3D                                            01 
01040050014000004000001000000000001000002000000NON       President and Vice President ROCKWALL COUNTYWIDE        WRITE-IN                              PRECINCT 4                                             01 
01040050015000009000001000000000005000003000000NON       President and Vice President ROCKWALL COUNTYWIDE        WRITE-IN                              PRECINCT 4A                                            01 
01040050016000002000000000000000002000000000000NON       President and Vice President ROCKWALL COUNTYWIDE        WRITE-IN                              PRECINCT 4B                                            01 
01040050017000004000000000001000001000002000000NON       President and Vice President ROCKWALL COUNTYWIDE        WRITE-IN                              PRECINCT 4C                                            01 
01040060001000000000000000000000000000000000000          President and Vice President ROCKWALL COUNTYWIDE        OVER VOTES                            PRECINCT 1                                             01 
01040060002000000000000000000000000000000000000          President and Vice President ROCKWALL COUNTYWIDE        OVER VOTES                            PRECINCT 1A                                            01 
01040060003000000000000000000000000000000000000          President and Vice President ROCKWALL COUNTYWIDE        OVER VOTES                            PRECINCT 1B                                            01 
01040060004000001000001000000000000000000000000          President and Vice President ROCKWALL COUNTYWIDE        OVER VOTES                            PRECINCT 1C                                            01 
01040060005000000000000000000000000000000000000          President and Vice President ROCKWALL COUNTYWIDE        OVER VOTES                            PRECINCT 2                                             01 
01040060006000000000000000000000000000000000000          President and Vice President ROCKWALL COUNTYWIDE        OVER VOTES                            PRECINCT 2A                                            01 
01040060007000000000000000000000000000000000000          President and Vice President ROCKWALL COUNTYWIDE        OVER VOTES                            PRECINCT 2B                                            01 
01040060008000001000000000000000001000000000000          President and Vice President ROCKWALL COUNTYWIDE        OVER VOTES                            PRECINCT 2C                                            01 
01040060009000000000000000000000000000000000000          President and Vice President ROCKWALL COUNTYWIDE        OVER VOTES                            PRECINCT 3                                             01 
01040060010000000000000000000000000000000000000          President and Vice President ROCKWALL COUNTYWIDE        OVER VOTES                            PRECINCT 3A                                            01 
01040060011000000000000000000000000000000000000          President and Vice President ROCKWALL COUNTYWIDE        OVER VOTES                            PRECINCT 3B                                            01 
01040060012000001000001000000000000000000000000          President and Vice President ROCKWALL COUNTYWIDE        OVER VOTES                            PRECINCT 3C                                            01 
01040060013000000000000000000000000000000000000          President and Vice President ROCKWALL COUNTYWIDE        OVER VOTES                            PRECINCT 3D                                            01 
01040060014000000000000000000000000000000000000          President and Vice President ROCKWALL COUNTYWIDE        OVER VOTES                            PRECINCT 4                                             01 
01040060015000000000000000000000000000000000000          President and Vice President ROCKWALL COUNTYWIDE        OVER VOTES                            PRECINCT 4A                                            01 
01040060016000000000000000000000000000000000000          President and Vice President ROCKWALL COUNTYWIDE        OVER VOTES                            PRECINCT 4B                                            01 
01040060017000000000000000000000000000000000000          President and Vice President ROCKWALL COUNTYWIDE        OVER VOTES                            PRECINCT 4C                                            01 
01040070001000008000001000005000000000002000000          President and Vice President ROCKWALL COUNTYWIDE        UNDER VOTES                           PRECINCT 1                                             01 
01040070002000014000002000002000002000008000000          President and Vice President ROCKWALL COUNTYWIDE        UNDER VOTES                           PRECINCT 1A                                            01 
01040070003000007000003000002000002000000000000          President and Vice President ROCKWALL COUNTYWIDE        UNDER VOTES                           PRECINCT 1B                                            01 
01040070004000002000001000001000000000000000000          President and Vice President ROCKWALL COUNTYWIDE        UNDER VOTES                           PRECINCT 1C                                            01 
01040070005000007000002000005000000000000000000          President and Vice President ROCKWALL COUNTYWIDE        UNDER VOTES                           PRECINCT 2                                             01 
01040070006000012000003000003000000000006000000          President and Vice President ROCKWALL COUNTYWIDE        UNDER VOTES                           PRECINCT 2A                                            01 
01040070007000001000001000000000000000000000000          President and Vice President ROCKWALL COUNTYWIDE        UNDER VOTES                           PRECINCT 2B                                            01 
01040070008000004000002000002000000000000000000          President and Vice President ROCKWALL COUNTYWIDE        UNDER VOTES                           PRECINCT 2C                                            01 
01040070009000001000000000000000000000001000000          President and Vice President ROCKWALL COUNTYWIDE        UNDER VOTES                           PRECINCT 3                                             01 
01040070010000002000000000000000000000002000000          President and Vice President ROCKWALL COUNTYWIDE        UNDER VOTES                           PRECINCT 3A                                            01 
01040070011000011000001000004000000000006000000          President and Vice President ROCKWALL COUNTYWIDE        UNDER VOTES                           PRECINCT 3B                                            01 
01040070012000004000000000004000000000000000000          President and Vice President ROCKWALL COUNTYWIDE        UNDER VOTES                           PRECINCT 3C                                            01 
01040070013000003000000000002000001000000000000          President and Vice President ROCKWALL COUNTYWIDE        UNDER VOTES                           PRECINCT 3D                                            01 
01040070014000005000000000004000001000000000000          President and Vice President ROCKWALL COUNTYWIDE        UNDER VOTES                           PRECINCT 4                                             01 
01040070015000006000000000005000001000000000000          President and Vice President ROCKWALL COUNTYWIDE        UNDER VOTES                           PRECINCT 4A                                            01 
01040070016000003000002000000000000000001000000          President and Vice President ROCKWALL COUNTYWIDE        UNDER VOTES                           PRECINCT 4B                                            01 
01040070017000004000000000004000000000000000000          President and Vice President ROCKWALL COUNTYWIDE        UNDER VOTES                           PRECINCT 4C                                            01 
01050010001002325000741000984000240000359000001REP       United States Senator ROCKWALL COUNTYWIDE               Ted Cruz                              PRECINCT 1                                             01 
01050010002001592000435000516000281000360000000REP       United States Senator ROCKWALL COUNTYWIDE               Ted Cruz                              PRECINCT 1A                                            01 
01050010003002109000636000580000247000644000002REP       United States Senator ROCKWALL COUNTYWIDE               Ted Cruz                              PRECINCT 1B                                            01 
01050010004001900000524000558000171000646000001REP       United States Senator ROCKWALL COUNTYWIDE               Ted Cruz                              PRECINCT 1C                                            01 
01050010005002184000753000659000183000588000001REP       United States Senator ROCKWALL COUNTYWIDE               Ted Cruz                              PRECINCT 2                                             01 
01050010006002282000725000752000301000502000002REP       United States Senator ROCKWALL COUNTYWIDE               Ted Cruz                              PRECINCT 2A                                            01 
01050010007000824000262000303000109000150000000REP       United States Senator ROCKWALL COUNTYWIDE               Ted Cruz                              PRECINCT 2B                                            01 
01050010008002388000802000969000588000028000001REP       United States Senator ROCKWALL COUNTYWIDE               Ted Cruz                              PRECINCT 2C                                            01 
01050010009000159000073000040000015000031000000REP       United States Senator ROCKWALL COUNTYWIDE               Ted Cruz                              PRECINCT 3                                             01 
01050010010000489000097000136000071000184000001REP       United States Senator ROCKWALL COUNTYWIDE               Ted Cruz                              PRECINCT 3A                                            01 
01050010011001283000252000350000237000444000000REP       United States Senator ROCKWALL COUNTYWIDE               Ted Cruz                              PRECINCT 3B                                            01 
01050010012001372000443000609000111000209000000REP       United States Senator ROCKWALL COUNTYWIDE               Ted Cruz                              PRECINCT 3C                                            01 
01050010013002201000596000856000424000324000001REP       United States Senator ROCKWALL COUNTYWIDE               Ted Cruz                              PRECINCT 3D                                            01 
01050010014001233000437000344000160000290000002REP       United States Senator ROCKWALL COUNTYWIDE               Ted Cruz                              PRECINCT 4                                             01 
01050010015002054000489000693000459000412000001REP       United States Senator ROCKWALL COUNTYWIDE               Ted Cruz                              PRECINCT 4A                                            01 
01050010016000606000179000217000090000120000000REP       United States Senator ROCKWALL COUNTYWIDE               Ted Cruz                              PRECINCT 4B                                            01 
01050010017001178000212000555000160000251000000REP       United States Senator ROCKWALL COUNTYWIDE               Ted Cruz                              PRECINCT 4C                                            01 
01050020001000657000228000243000066000119000001DEM       United States Senator ROCKWALL COUNTYWIDE               Paul Sadler                           PRECINCT 1                                             01 
01050020002000659000159000210000121000168000001DEM       United States Senator ROCKWALL COUNTYWIDE               Paul Sadler                           PRECINCT 1A                                            01 
01050020003000502000128000127000063000184000000DEM       United States Senator ROCKWALL COUNTYWIDE               Paul Sadler                           PRECINCT 1B                                            01 
01050020004000435000132000106000051000146000000DEM       United States Senator ROCKWALL COUNTYWIDE               Paul Sadler                           PRECINCT 1C                                            01 
01050020005000653000233000166000086000168000000DEM       United States Senator ROCKWALL COUNTYWIDE               Paul Sadler                           PRECINCT 2                                             01 
01050020006000740000224000188000116000212000000DEM       United States Senator ROCKWALL COUNTYWIDE               Paul Sadler                           PRECINCT 2A                                            01 
01050020007000320000074000129000047000069000001DEM       United States Senator ROCKWALL COUNTYWIDE               Paul Sadler                           PRECINCT 2B                                            01 
01050020008000534000165000213000148000006000002DEM       United States Senator ROCKWALL COUNTYWIDE               Paul Sadler                           PRECINCT 2C                                            01 
01050020009000157000072000021000030000034000000DEM       United States Senator ROCKWALL COUNTYWIDE               Paul Sadler                           PRECINCT 3                                             01 
01050020010000319000056000072000057000134000000DEM       United States Senator ROCKWALL COUNTYWIDE               Paul Sadler                           PRECINCT 3A                                            01 
01050020011000661000134000203000109000214000001DEM       United States Senator ROCKWALL COUNTYWIDE               Paul Sadler                           PRECINCT 3B                                            01 
01050020012000222000079000070000035000037000001DEM       United States Senator ROCKWALL COUNTYWIDE               Paul Sadler                           PRECINCT 3C                                            01 
01050020013000485000143000146000108000088000000DEM       United States Senator ROCKWALL COUNTYWIDE               Paul Sadler                           PRECINCT 3D                                            01 
01050020014000309000092000070000041000106000000DEM       United States Senator ROCKWALL COUNTYWIDE               Paul Sadler                           PRECINCT 4                                             01 
01050020015000683000143000245000152000143000000DEM       United States Senator ROCKWALL COUNTYWIDE               Paul Sadler                           PRECINCT 4A                                            01 
01050020016000238000074000068000037000059000000DEM       United States Senator ROCKWALL COUNTYWIDE               Paul Sadler                           PRECINCT 4B                                            01 
01050020017000432000095000175000065000097000000DEM       United States Senator ROCKWALL COUNTYWIDE               Paul Sadler                           PRECINCT 4C                                            01 
01050030001000067000027000016000009000015000000LIB       United States Senator ROCKWALL COUNTYWIDE               John Jay Myers                        PRECINCT 1                                             01 
01050030002000061000006000011000018000026000000LIB       United States Senator ROCKWALL COUNTYWIDE               John Jay Myers                        PRECINCT 1A                                            01 
01050030003000050000013000008000009000020000000LIB       United States Senator ROCKWALL COUNTYWIDE               John Jay Myers                        PRECINCT 1B                                            01 
01050030004000060000014000014000006000026000000LIB       United States Senator ROCKWALL COUNTYWIDE               John Jay Myers                        PRECINCT 1C                                            01 
01050030005000065000014000010000007000034000000LIB       United States Senator ROCKWALL COUNTYWIDE               John Jay Myers                        PRECINCT 2                                             01 
01050030006000066000014000013000011000028000000LIB       United States Senator ROCKWALL COUNTYWIDE               John Jay Myers                        PRECINCT 2A                                            01 
01050030007000026000007000008000005000006000000LIB       United States Senator ROCKWALL COUNTYWIDE               John Jay Myers                        PRECINCT 2B                                            01 
01050030008000062000015000016000030000000000001LIB       United States Senator ROCKWALL COUNTYWIDE               John Jay Myers                        PRECINCT 2C                                            01 
01050030009000006000000000003000003000000000000LIB       United States Senator ROCKWALL COUNTYWIDE               John Jay Myers                        PRECINCT 3                                             01 
01050030010000014000003000005000002000004000000LIB       United States Senator ROCKWALL COUNTYWIDE               John Jay Myers                        PRECINCT 3A                                            01 
01050030011000040000007000008000003000022000000LIB       United States Senator ROCKWALL COUNTYWIDE               John Jay Myers                        PRECINCT 3B                                            01 
01050030012000020000007000001000005000007000000LIB       United States Senator ROCKWALL COUNTYWIDE               John Jay Myers                        PRECINCT 3C                                            01 
01050030013000051000013000007000022000009000000LIB       United States Senator ROCKWALL COUNTYWIDE               John Jay Myers                        PRECINCT 3D                                            01 
01050030014000038000007000009000004000018000000LIB       United States Senator ROCKWALL COUNTYWIDE               John Jay Myers                        PRECINCT 4                                             01 
01050030015000066000011000016000021000018000000LIB       United States Senator ROCKWALL COUNTYWIDE               John Jay Myers                        PRECINCT 4A                                            01 
01050030016000019000001000004000011000003000000LIB       United States Senator ROCKWALL COUNTYWIDE               John Jay Myers                        PRECINCT 4B                                            01 
01050030017000031000003000012000005000011000000LIB       United States Senator ROCKWALL COUNTYWIDE               John Jay Myers                        PRECINCT 4C                                            01 
01050040001000019000005000006000001000007000000GRN       United States Senator ROCKWALL COUNTYWIDE               David B. Collins                      PRECINCT 1                                             01 
01050040002000024000007000004000005000008000000GRN       United States Senator ROCKWALL COUNTYWIDE               David B. Collins                      PRECINCT 1A                                            01 
01050040003000021000003000003000003000012000000GRN       United States Senator ROCKWALL COUNTYWIDE               David B. Collins                      PRECINCT 1B                                            01 
01050040004000023000002000007000002000012000000GRN       United States Senator ROCKWALL COUNTYWIDE               David B. Collins                      PRECINCT 1C                                            01 
01050040005000020000006000002000002000010000000GRN       United States Senator ROCKWALL COUNTYWIDE               David B. Collins                      PRECINCT 2                                             01 
01050040006000026000006000003000007000010000000GRN       United States Senator ROCKWALL COUNTYWIDE               David B. Collins                      PRECINCT 2A                                            01 
01050040007000007000002000002000000000003000000GRN       United States Senator ROCKWALL COUNTYWIDE               David B. Collins                      PRECINCT 2B                                            01 
01050040008000013000003000006000004000000000000GRN       United States Senator ROCKWALL COUNTYWIDE               David B. Collins                      PRECINCT 2C                                            01 
01050040009000003000000000000000003000000000000GRN       United States Senator ROCKWALL COUNTYWIDE               David B. Collins                      PRECINCT 3                                             01 
01050040010000005000001000000000002000002000000GRN       United States Senator ROCKWALL COUNTYWIDE               David B. Collins                      PRECINCT 3A                                            01 
01050040011000015000002000004000005000004000000GRN       United States Senator ROCKWALL COUNTYWIDE               David B. Collins                      PRECINCT 3B                                            01 
01050040012000007000005000000000000000002000000GRN       United States Senator ROCKWALL COUNTYWIDE               David B. Collins                      PRECINCT 3C                                            01 
01050040013000020000004000005000006000005000000GRN       United States Senator ROCKWALL COUNTYWIDE               David B. Collins                      PRECINCT 3D                                            01 
01050040014000016000002000005000003000006000000GRN       United States Senator ROCKWALL COUNTYWIDE               David B. Collins                      PRECINCT 4                                             01 
01050040015000024000005000006000009000004000000GRN       United States Senator ROCKWALL COUNTYWIDE               David B. Collins                      PRECINCT 4A                                            01 
01050040016000007000002000002000002000001000000GRN       United States Senator ROCKWALL COUNTYWIDE               David B. Collins                      PRECINCT 4B                                            01 
01050040017000011000001000002000004000004000000GRN       United States Senator ROCKWALL COUNTYWIDE               David B. Collins                      PRECINCT 4C                                            01 
01050050001000000000000000000000000000000000000          United States Senator ROCKWALL COUNTYWIDE               OVER VOTES                            PRECINCT 1                                             01 
01050050002000000000000000000000000000000000000          United States Senator ROCKWALL COUNTYWIDE               OVER VOTES                            PRECINCT 1A                                            01 
01050050003000000000000000000000000000000000000          United States Senator ROCKWALL COUNTYWIDE               OVER VOTES                            PRECINCT 1B                                            01 
01050050004000000000000000000000000000000000000          United States Senator ROCKWALL COUNTYWIDE               OVER VOTES                            PRECINCT 1C                                            01 
01050050005000000000000000000000000000000000000          United States Senator ROCKWALL COUNTYWIDE               OVER VOTES                            PRECINCT 2                                             01 
01050050006000001000001000000000000000000000000          United States Senator ROCKWALL COUNTYWIDE               OVER VOTES                            PRECINCT 2A                                            01 
01050050007000000000000000000000000000000000000          United States Senator ROCKWALL COUNTYWIDE               OVER VOTES                            PRECINCT 2B                                            01 
01050050008000000000000000000000000000000000000          United States Senator ROCKWALL COUNTYWIDE               OVER VOTES                            PRECINCT 2C                                            01 
01050050009000000000000000000000000000000000000          United States Senator ROCKWALL COUNTYWIDE               OVER VOTES                            PRECINCT 3                                             01 
01050050010000000000000000000000000000000000000          United States Senator ROCKWALL COUNTYWIDE               OVER VOTES                            PRECINCT 3A                                            01 
01050050011000000000000000000000000000000000000          United States Senator ROCKWALL COUNTYWIDE               OVER VOTES                            PRECINCT 3B                                            01 
01050050012000000000000000000000000000000000000          United States Senator ROCKWALL COUNTYWIDE               OVER VOTES                            PRECINCT 3C                                            01 
01050050013000000000000000000000000000000000000          United States Senator ROCKWALL COUNTYWIDE               OVER VOTES                            PRECINCT 3D                                            01 
01050050014000000000000000000000000000000000000          United States Senator ROCKWALL COUNTYWIDE               OVER VOTES                            PRECINCT 4                                             01 
01050050015000000000000000000000000000000000000          United States Senator ROCKWALL COUNTYWIDE               OVER VOTES                            PRECINCT 4A                                            01 
01050050016000000000000000000000000000000000000          United States Senator ROCKWALL COUNTYWIDE               OVER VOTES                            PRECINCT 4B                                            01 
01050050017000000000000000000000000000000000000          United States Senator ROCKWALL COUNTYWIDE               OVER VOTES                            PRECINCT 4C                                            01 
01050060001000059000016000018000010000014000001          United States Senator ROCKWALL COUNTYWIDE               UNDER VOTES                           PRECINCT 1                                             01 
01050060002000059000014000025000008000012000000          United States Senator ROCKWALL COUNTYWIDE               UNDER VOTES                           PRECINCT 1A                                            01 
01050060003000037000010000003000006000018000000          United States Senator ROCKWALL COUNTYWIDE               UNDER VOTES                           PRECINCT 1B                                            01 
01050060004000043000012000011000005000014000001          United States Senator ROCKWALL COUNTYWIDE               UNDER VOTES                           PRECINCT 1C                                            01 
01050060005000065000026000013000006000020000000          United States Senator ROCKWALL COUNTYWIDE               UNDER VOTES                           PRECINCT 2                                             01 
01050060006000053000016000011000008000018000000          United States Senator ROCKWALL COUNTYWIDE               UNDER VOTES                           PRECINCT 2A                                            01 
01050060007000015000003000001000004000007000000          United States Senator ROCKWALL COUNTYWIDE               UNDER VOTES                           PRECINCT 2B                                            01 
01050060008000048000008000020000016000004000000          United States Senator ROCKWALL COUNTYWIDE               UNDER VOTES                           PRECINCT 2C                                            01 
01050060009000005000003000000000000000002000000          United States Senator ROCKWALL COUNTYWIDE               UNDER VOTES                           PRECINCT 3                                             01 
01050060010000025000002000008000005000010000000          United States Senator ROCKWALL COUNTYWIDE               UNDER VOTES                           PRECINCT 3A                                            01 
01050060011000052000009000008000011000024000000          United States Senator ROCKWALL COUNTYWIDE               UNDER VOTES                           PRECINCT 3B                                            01 
01050060012000030000012000011000006000001000000          United States Senator ROCKWALL COUNTYWIDE               UNDER VOTES                           PRECINCT 3C                                            01 
01050060013000031000003000012000011000005000000          United States Senator ROCKWALL COUNTYWIDE               UNDER VOTES                           PRECINCT 3D                                            01 
01050060014000035000006000007000006000016000000          United States Senator ROCKWALL COUNTYWIDE               UNDER VOTES                           PRECINCT 4                                             01 
01050060015000052000007000017000015000013000000          United States Senator ROCKWALL COUNTYWIDE               UNDER VOTES                           PRECINCT 4A                                            01 
01050060016000019000008000001000003000007000000          United States Senator ROCKWALL COUNTYWIDE               UNDER VOTES                           PRECINCT 4B                                            01 
01050060017000038000006000019000007000006000000          United States Senator ROCKWALL COUNTYWIDE               UNDER VOTES                           PRECINCT 4C                                            01 
01060010001002434000781001006000259000386000002REP       US Representative, District 4 ROCKWALL COUNTYWIDE       Ralph Hall                            PRECINCT 1                                             01 
01060010002001671000446000539000292000394000000REP       US Representative, District 4 ROCKWALL COUNTYWIDE       Ralph Hall                            PRECINCT 1A                                            01 
01060010003002205000639000589000274000702000001REP       US Representative, District 4 ROCKWALL COUNTYWIDE       Ralph Hall                            PRECINCT 1B                                            01 
01060010004001990000543000574000191000682000000REP       US Representative, District 4 ROCKWALL COUNTYWIDE       Ralph Hall                            PRECINCT 1C                                            01 
01060010005002248000747000670000206000624000001REP       US Representative, District 4 ROCKWALL COUNTYWIDE       Ralph Hall                            PRECINCT 2                                             01 
01060010006002368000738000763000327000538000002REP       US Representative, District 4 ROCKWALL COUNTYWIDE       Ralph Hall                            PRECINCT 2A                                            01 
01060010007000837000252000307000112000166000000REP       US Representative, District 4 ROCKWALL COUNTYWIDE       Ralph Hall                            PRECINCT 2B                                            01 
01060010008002465000804001004000624000030000003REP       US Representative, District 4 ROCKWALL COUNTYWIDE       Ralph Hall                            PRECINCT 2C                                            01 
01060010009000176000076000043000023000034000000REP       US Representative, District 4 ROCKWALL COUNTYWIDE       Ralph Hall                            PRECINCT 3                                             01 
01060010010000512000096000140000083000192000001REP       US Representative, District 4 ROCKWALL COUNTYWIDE       Ralph Hall                            PRECINCT 3A                                            01 
01060010011001356000260000367000256000472000001REP       US Representative, District 4 ROCKWALL COUNTYWIDE       Ralph Hall                            PRECINCT 3B                                            01 
01060010012001363000424000598000130000211000000REP       US Representative, District 4 ROCKWALL COUNTYWIDE       Ralph Hall                            PRECINCT 3C                                            01 
01060010013002227000585000860000438000343000001REP       US Representative, District 4 ROCKWALL COUNTYWIDE       Ralph Hall                            PRECINCT 3D                                            01 
01060010014001244000416000352000171000304000001REP       US Representative, District 4 ROCKWALL COUNTYWIDE       Ralph Hall                            PRECINCT 4                                             01 
01060010015002101000487000711000481000421000001REP       US Representative, District 4 ROCKWALL COUNTYWIDE       Ralph Hall                            PRECINCT 4A                                            01 
01060010016000645000198000221000098000128000000REP       US Representative, District 4 ROCKWALL COUNTYWIDE       Ralph Hall                            PRECINCT 4B                                            01 
01060010017001211000214000561000172000264000000REP       US Representative, District 4 ROCKWALL COUNTYWIDE       Ralph Hall                            PRECINCT 4C                                            01 
01060020001000511000168000202000047000093000001DEM       US Representative, District 4 ROCKWALL COUNTYWIDE       VaLinda Hathcock                      PRECINCT 1                                             01 
01060020002000566000133000182000112000138000001DEM       US Representative, District 4 ROCKWALL COUNTYWIDE       VaLinda Hathcock                      PRECINCT 1A                                            01 
01060020003000375000092000113000036000134000000DEM       US Representative, District 4 ROCKWALL COUNTYWIDE       VaLinda Hathcock                      PRECINCT 1B                                            01 
01060020004000339000095000095000033000116000000DEM       US Representative, District 4 ROCKWALL COUNTYWIDE       VaLinda Hathcock                      PRECINCT 1C                                            01 
01060020005000521000178000145000060000138000000DEM       US Representative, District 4 ROCKWALL COUNTYWIDE       VaLinda Hathcock                      PRECINCT 2                                             01 
01060020006000608000175000159000094000180000000DEM       US Representative, District 4 ROCKWALL COUNTYWIDE       VaLinda Hathcock                      PRECINCT 2A                                            01 
01060020007000287000069000120000043000054000001DEM       US Representative, District 4 ROCKWALL COUNTYWIDE       VaLinda Hathcock                      PRECINCT 2B                                            01 
01060020008000400000126000161000106000006000001DEM       US Representative, District 4 ROCKWALL COUNTYWIDE       VaLinda Hathcock                      PRECINCT 2C                                            01 
01060020009000141000066000019000026000030000000DEM       US Representative, District 4 ROCKWALL COUNTYWIDE       VaLinda Hathcock                      PRECINCT 3                                             01 
01060020010000286000049000068000047000122000000DEM       US Representative, District 4 ROCKWALL COUNTYWIDE       VaLinda Hathcock                      PRECINCT 3A                                            01 
01060020011000588000112000188000090000198000000DEM       US Representative, District 4 ROCKWALL COUNTYWIDE       VaLinda Hathcock                      PRECINCT 3B                                            01 
01060020012000171000064000059000021000026000001DEM       US Representative, District 4 ROCKWALL COUNTYWIDE       VaLinda Hathcock                      PRECINCT 3C                                            01 
01060020013000421000120000139000095000067000000DEM       US Representative, District 4 ROCKWALL COUNTYWIDE       VaLinda Hathcock                      PRECINCT 3D                                            01 
01060020014000267000078000058000031000100000000DEM       US Representative, District 4 ROCKWALL COUNTYWIDE       VaLinda Hathcock                      PRECINCT 4                                             01 
01060020015000613000119000226000135000133000000DEM       US Representative, District 4 ROCKWALL COUNTYWIDE       VaLinda Hathcock                      PRECINCT 4A                                            01 
01060020016000186000049000059000026000052000000DEM       US Representative, District 4 ROCKWALL COUNTYWIDE       VaLinda Hathcock                      PRECINCT 4B                                            01 
01060020017000377000080000159000056000082000000DEM       US Representative, District 4 ROCKWALL COUNTYWIDE       VaLinda Hathcock                      PRECINCT 4C                                            01 
01060030001000124000040000043000014000027000000LIB       US Representative, District 4 ROCKWALL COUNTYWIDE       Thomas Griffing                       PRECINCT 1                                             01 
01060030002000083000014000022000019000028000000LIB       US Representative, District 4 ROCKWALL COUNTYWIDE       Thomas Griffing                       PRECINCT 1A                                            01 
01060030003000084000023000015000014000032000000LIB       US Representative, District 4 ROCKWALL COUNTYWIDE       Thomas Griffing                       PRECINCT 1B                                            01 
01060030004000080000021000019000006000034000000LIB       US Representative, District 4 ROCKWALL COUNTYWIDE       Thomas Griffing                       PRECINCT 1C                                            01 
01060030005000120000041000022000013000044000000LIB       US Representative, District 4 ROCKWALL COUNTYWIDE       Thomas Griffing                       PRECINCT 2                                             01 
01060030006000106000025000037000014000030000000LIB       US Representative, District 4 ROCKWALL COUNTYWIDE       Thomas Griffing                       PRECINCT 2A                                            01 
01060030007000036000009000012000007000008000000LIB       US Representative, District 4 ROCKWALL COUNTYWIDE       Thomas Griffing                       PRECINCT 2B                                            01 
01060030008000119000036000040000043000000000000LIB       US Representative, District 4 ROCKWALL COUNTYWIDE       Thomas Griffing                       PRECINCT 2C                                            01 
01060030009000006000001000002000002000001000000LIB       US Representative, District 4 ROCKWALL COUNTYWIDE       Thomas Griffing                       PRECINCT 3                                             01 
01060030010000026000006000005000005000010000000LIB       US Representative, District 4 ROCKWALL COUNTYWIDE       Thomas Griffing                       PRECINCT 3A                                            01 
01060030011000047000013000012000008000014000000LIB       US Representative, District 4 ROCKWALL COUNTYWIDE       Thomas Griffing                       PRECINCT 3B                                            01 
01060030012000076000033000024000002000017000000LIB       US Representative, District 4 ROCKWALL COUNTYWIDE       Thomas Griffing                       PRECINCT 3C                                            01 
01060030013000085000028000020000024000013000000LIB       US Representative, District 4 ROCKWALL COUNTYWIDE       Thomas Griffing                       PRECINCT 3D                                            01 
01060030014000056000018000017000005000016000000LIB       US Representative, District 4 ROCKWALL COUNTYWIDE       Thomas Griffing                       PRECINCT 4                                             01 
01060030015000087000011000024000028000024000000LIB       US Representative, District 4 ROCKWALL COUNTYWIDE       Thomas Griffing                       PRECINCT 4A                                            01 
01060030016000036000006000011000016000003000000LIB       US Representative, District 4 ROCKWALL COUNTYWIDE       Thomas Griffing                       PRECINCT 4B                                            01 
01060030017000052000010000023000005000014000000LIB       US Representative, District 4 ROCKWALL COUNTYWIDE       Thomas Griffing                       PRECINCT 4C                                            01 
01060040001000007000005000001000001000000000000NON       US Representative, District 4 ROCKWALL COUNTYWIDE       WRITE-IN                              PRECINCT 1                                             01 
01060040002000006000005000000000001000000000000NON       US Representative, District 4 ROCKWALL COUNTYWIDE       WRITE-IN                              PRECINCT 1A                                            01 
01060040003000004000003000000000000000000000001NON       US Representative, District 4 ROCKWALL COUNTYWIDE       WRITE-IN                              PRECINCT 1B                                            01 
01060040004000005000004000000000000000000000001NON       US Representative, District 4 ROCKWALL COUNTYWIDE       WRITE-IN                              PRECINCT 1C                                            01 
01060040005000016000015000001000000000000000000NON       US Representative, District 4 ROCKWALL COUNTYWIDE       WRITE-IN                              PRECINCT 2                                             01 
01060040006000015000012000000000003000000000000NON       US Representative, District 4 ROCKWALL COUNTYWIDE       WRITE-IN                              PRECINCT 2A                                            01 
01060040007000009000008000001000000000000000000NON       US Representative, District 4 ROCKWALL COUNTYWIDE       WRITE-IN                              PRECINCT 2B                                            01 
01060040008000009000006000001000002000000000000NON       US Representative, District 4 ROCKWALL COUNTYWIDE       WRITE-IN                              PRECINCT 2C                                            01 
01060040009000003000003000000000000000000000000NON       US Representative, District 4 ROCKWALL COUNTYWIDE       WRITE-IN                              PRECINCT 3                                             01 
01060040010000000000000000000000000000000000000NON       US Representative, District 4 ROCKWALL COUNTYWIDE       WRITE-IN                              PRECINCT 3A                                            01 
01060040011000005000002000000000001000002000000NON       US Representative, District 4 ROCKWALL COUNTYWIDE       WRITE-IN                              PRECINCT 3B                                            01 
01060040012000005000004000000000001000000000000NON       US Representative, District 4 ROCKWALL COUNTYWIDE       WRITE-IN                              PRECINCT 3C                                            01 
01060040013000010000006000000000004000000000000NON       US Representative, District 4 ROCKWALL COUNTYWIDE       WRITE-IN                              PRECINCT 3D                                            01 
01060040014000009000007000000000001000000000001NON       US Representative, District 4 ROCKWALL COUNTYWIDE       WRITE-IN                              PRECINCT 4                                             01 
01060040015000003000001000001000001000000000000NON       US Representative, District 4 ROCKWALL COUNTYWIDE       WRITE-IN                              PRECINCT 4A                                            01 
01060040016000002000002000000000000000000000000NON       US Representative, District 4 ROCKWALL COUNTYWIDE       WRITE-IN                              PRECINCT 4B                                            01 
01060040017000001000000000000000000000001000000NON       US Representative, District 4 ROCKWALL COUNTYWIDE       WRITE-IN                              PRECINCT 4C                                            01 
01060050001000000000000000000000000000000000000          US Representative, District 4 ROCKWALL COUNTYWIDE       OVER VOTES                            PRECINCT 1                                             01 
01060050002000000000000000000000000000000000000          US Representative, District 4 ROCKWALL COUNTYWIDE       OVER VOTES                            PRECINCT 1A                                            01 
01060050003000000000000000000000000000000000000          US Representative, District 4 ROCKWALL COUNTYWIDE       OVER VOTES                            PRECINCT 1B                                            01 
01060050004000000000000000000000000000000000000          US Representative, District 4 ROCKWALL COUNTYWIDE       OVER VOTES                            PRECINCT 1C                                            01 
01060050005000000000000000000000000000000000000          US Representative, District 4 ROCKWALL COUNTYWIDE       OVER VOTES                            PRECINCT 2                                             01 
01060050006000002000002000000000000000000000000          US Representative, District 4 ROCKWALL COUNTYWIDE       OVER VOTES                            PRECINCT 2A                                            01 
01060050007000000000000000000000000000000000000          US Representative, District 4 ROCKWALL COUNTYWIDE       OVER VOTES                            PRECINCT 2B                                            01 
01060050008000001000001000000000000000000000000          US Representative, District 4 ROCKWALL COUNTYWIDE       OVER VOTES                            PRECINCT 2C                                            01 
01060050009000000000000000000000000000000000000          US Representative, District 4 ROCKWALL COUNTYWIDE       OVER VOTES                            PRECINCT 3                                             01 
01060050010000000000000000000000000000000000000          US Representative, District 4 ROCKWALL COUNTYWIDE       OVER VOTES                            PRECINCT 3A                                            01 
01060050011000000000000000000000000000000000000          US Representative, District 4 ROCKWALL COUNTYWIDE       OVER VOTES                            PRECINCT 3B                                            01 
01060050012000001000001000000000000000000000000          US Representative, District 4 ROCKWALL COUNTYWIDE       OVER VOTES                            PRECINCT 3C                                            01 
01060050013000001000000000000000001000000000000          US Representative, District 4 ROCKWALL COUNTYWIDE       OVER VOTES                            PRECINCT 3D                                            01 
01060050014000000000000000000000000000000000000          US Representative, District 4 ROCKWALL COUNTYWIDE       OVER VOTES                            PRECINCT 4                                             01 
01060050015000000000000000000000000000000000000          US Representative, District 4 ROCKWALL COUNTYWIDE       OVER VOTES                            PRECINCT 4A                                            01 
01060050016000000000000000000000000000000000000          US Representative, District 4 ROCKWALL COUNTYWIDE       OVER VOTES                            PRECINCT 4B                                            01 
01060050017000000000000000000000000000000000000          US Representative, District 4 ROCKWALL COUNTYWIDE       OVER VOTES                            PRECINCT 4C                                            01 
01060060001000052000024000015000005000008000000          US Representative, District 4 ROCKWALL COUNTYWIDE       UNDER VOTES                           PRECINCT 1                                             01 
01060060002000069000023000023000009000014000000          US Representative, District 4 ROCKWALL COUNTYWIDE       UNDER VOTES                           PRECINCT 1A                                            01 
01060060003000051000033000004000004000010000000          US Representative, District 4 ROCKWALL COUNTYWIDE       UNDER VOTES                           PRECINCT 1B                                            01 
01060060004000047000021000008000005000012000001          US Representative, District 4 ROCKWALL COUNTYWIDE       UNDER VOTES                           PRECINCT 1C                                            01 
01060060005000082000051000012000005000014000000          US Representative, District 4 ROCKWALL COUNTYWIDE       UNDER VOTES                           PRECINCT 2                                             01 
01060060006000070000034000008000006000022000000          US Representative, District 4 ROCKWALL COUNTYWIDE       UNDER VOTES                           PRECINCT 2A                                            01 
01060060007000023000010000003000003000007000000          US Representative, District 4 ROCKWALL COUNTYWIDE       UNDER VOTES                           PRECINCT 2B                                            01 
01060060008000051000020000018000011000002000000          US Representative, District 4 ROCKWALL COUNTYWIDE       UNDER VOTES                           PRECINCT 2C                                            01 
01060060009000004000002000000000000000002000000          US Representative, District 4 ROCKWALL COUNTYWIDE       UNDER VOTES                           PRECINCT 3                                             01 
01060060010000028000008000008000002000010000000          US Representative, District 4 ROCKWALL COUNTYWIDE       UNDER VOTES                           PRECINCT 3A                                            01 
01060060011000055000017000006000010000022000000          US Representative, District 4 ROCKWALL COUNTYWIDE       UNDER VOTES                           PRECINCT 3B                                            01 
01060060012000035000020000010000003000002000000          US Representative, District 4 ROCKWALL COUNTYWIDE       UNDER VOTES                           PRECINCT 3C                                            01 
01060060013000046000020000007000011000008000000          US Representative, District 4 ROCKWALL COUNTYWIDE       UNDER VOTES                           PRECINCT 3D                                            01 
01060060014000055000025000008000006000016000000          US Representative, District 4 ROCKWALL COUNTYWIDE       UNDER VOTES                           PRECINCT 4                                             01 
01060060015000075000037000015000011000012000000          US Representative, District 4 ROCKWALL COUNTYWIDE       UNDER VOTES                           PRECINCT 4A                                            01 
01060060016000020000009000001000003000007000000          US Representative, District 4 ROCKWALL COUNTYWIDE       UNDER VOTES                           PRECINCT 4B                                            01 
01060060017000049000013000020000008000008000000          US Representative, District 4 ROCKWALL COUNTYWIDE       UNDER VOTES                           PRECINCT 4C                                            01 
01070010001002320000745000994000230000350000001REP       Railroad Commissioner ROCKWALL COUNTYWIDE               Christi Craddick                      PRECINCT 1                                             01 
01070010002001589000435000510000272000372000000REP       Railroad Commissioner ROCKWALL COUNTYWIDE               Christi Craddick                      PRECINCT 1A                                            01 
01070010003002089000630000585000246000626000002REP       Railroad Commissioner ROCKWALL COUNTYWIDE               Christi Craddick                      PRECINCT 1B                                            01 
01070010004001936000533000577000173000652000001REP       Railroad Commissioner ROCKWALL COUNTYWIDE               Christi Craddick                      PRECINCT 1C                                            01 
01070010005002153000737000661000190000564000001REP       Railroad Commissioner ROCKWALL COUNTYWIDE               Christi Craddick                      PRECINCT 2                                             01 
01070010006002261000700000748000303000508000002REP       Railroad Commissioner ROCKWALL COUNTYWIDE               Christi Craddick                      PRECINCT 2A                                            01 
01070010007000813000250000301000104000158000000REP       Railroad Commissioner ROCKWALL COUNTYWIDE               Christi Craddick                      PRECINCT 2B                                            01 
01070010008002386000783000987000585000030000001REP       Railroad Commissioner ROCKWALL COUNTYWIDE               Christi Craddick                      PRECINCT 2C                                            01 
01070010009000154000068000043000015000028000000REP       Railroad Commissioner ROCKWALL COUNTYWIDE               Christi Craddick                      PRECINCT 3                                             01 
01070010010000473000094000135000071000172000001REP       Railroad Commissioner ROCKWALL COUNTYWIDE               Christi Craddick                      PRECINCT 3A                                            01 
01070010011001275000258000348000236000432000001REP       Railroad Commissioner ROCKWALL COUNTYWIDE               Christi Craddick                      PRECINCT 3B                                            01 
01070010012001351000423000603000119000206000000REP       Railroad Commissioner ROCKWALL COUNTYWIDE               Christi Craddick                      PRECINCT 3C                                            01 
01070010013002180000590000841000415000333000001REP       Railroad Commissioner ROCKWALL COUNTYWIDE               Christi Craddick                      PRECINCT 3D                                            01 
01070010014001207000408000351000159000288000001REP       Railroad Commissioner ROCKWALL COUNTYWIDE               Christi Craddick                      PRECINCT 4                                             01 
