01070010001000000REP       President                                               Charles "Buddy" Roemer                PRECINCT 1                                             01 
01070010002000000REP       President                                               Charles "Buddy" Roemer                PRECINCT 2                                             01 
01070010003000001REP       President                                               Charles "Buddy" Roemer                PRECINCT 3                                             01 
01070010004000000REP       President                                               Charles "Buddy" Roemer                PRECINCT 4                                             01 
01070010005000000REP       President                                               Charles "Buddy" Roemer                PRECINCT 5                                             01 
01070010006000000REP       President                                               Charles "Buddy" Roemer                PRECINCT 6                                             01 
01070010007000000REP       President                                               Charles "Buddy" Roemer                PRECINCT 7                                             01 
01070010008000000REP       President                                               Charles "Buddy" Roemer                PRECINCT 8                                             01 
01070010009000001REP       President                                               Charles "Buddy" Roemer                PRECINCT 9                                             01 
01070010010000000REP       President                                               Charles "Buddy" Roemer                PRECINCT 10                                            01 
01070010011000000REP       President                                               Charles "Buddy" Roemer                PRECINCT 11                                            01 
01070020001000038REP       President                                               Mitt Romney                           PRECINCT 1                                             01 
01070020002000014REP       President                                               Mitt Romney                           PRECINCT 2                                             01 
01070020003000006REP       President                                               Mitt Romney                           PRECINCT 3                                             01 
01070020004000025REP       President                                               Mitt Romney                           PRECINCT 4                                             01 
01070020005000015REP       President                                               Mitt Romney                           PRECINCT 5                                             01 
01070020006000005REP       President                                               Mitt Romney                           PRECINCT 6                                             01 
01070020007000007REP       President                                               Mitt Romney                           PRECINCT 7                                             01 
01070020008000047REP       President                                               Mitt Romney                           PRECINCT 8                                             01 
01070020009000070REP       President                                               Mitt Romney                           PRECINCT 9                                             01 
01070020010000019REP       President                                               Mitt Romney                           PRECINCT 10                                            01 
01070020011000000REP       President                                               Mitt Romney                           PRECINCT 11                                            01 
01070030001000012REP       President                                               Ron Paul                              PRECINCT 1                                             01 
01070030002000002REP       President                                               Ron Paul                              PRECINCT 2                                             01 
01070030003000001REP       President                                               Ron Paul                              PRECINCT 3                                             01 
01070030004000005REP       President                                               Ron Paul                              PRECINCT 4                                             01 
01070030005000000REP       President                                               Ron Paul                              PRECINCT 5                                             01 
01070030006000002REP       President                                               Ron Paul                              PRECINCT 6                                             01 
01070030007000003REP       President                                               Ron Paul                              PRECINCT 7                                             01 
01070030008000004REP       President                                               Ron Paul                              PRECINCT 8                                             01 
01070030009000006REP       President                                               Ron Paul                              PRECINCT 9                                             01 
01070030010000008REP       President                                               Ron Paul                              PRECINCT 10                                            01 
01070030011000000REP       President                                               Ron Paul                              PRECINCT 11                                            01 
01070040001000000REP       President                                               Jon Huntsman                          PRECINCT 1                                             01 
01070040002000000REP       President                                               Jon Huntsman                          PRECINCT 2                                             01 
01070040003000000REP       President                                               Jon Huntsman                          PRECINCT 3                                             01 
01070040004000000REP       President                                               Jon Huntsman                          PRECINCT 4                                             01 
01070040005000000REP       President                                               Jon Huntsman                          PRECINCT 5                                             01 
01070040006000000REP       President                                               Jon Huntsman                          PRECINCT 6                                             01 
01070040007000000REP       President                                               Jon Huntsman                          PRECINCT 7                                             01 
01070040008000000REP       President                                               Jon Huntsman                          PRECINCT 8                                             01 
01070040009000000REP       President                                               Jon Huntsman                          PRECINCT 9                                             01 
01070040010000000REP       President                                               Jon Huntsman                          PRECINCT 10                                            01 
01070040011000000REP       President                                               Jon Huntsman                          PRECINCT 11                                            01 
01070050001000006REP       President                                               Rick Santorum                         PRECINCT 1                                             01 
01070050002000000REP       President                                               Rick Santorum                         PRECINCT 2                                             01 
01070050003000000REP       President                                               Rick Santorum                         PRECINCT 3                                             01 
01070050004000002REP       President                                               Rick Santorum                         PRECINCT 4                                             01 
01070050005000004REP       President                                               Rick Santorum                         PRECINCT 5                                             01 
01070050006000004REP       President                                               Rick Santorum                         PRECINCT 6                                             01 
01070050007000001REP       President                                               Rick Santorum                         PRECINCT 7                                             01 
01070050008000004REP       President                                               Rick Santorum                         PRECINCT 8                                             01 
01070050009000007REP       President                                               Rick Santorum                         PRECINCT 9                                             01 
01070050010000000REP       President                                               Rick Santorum                         PRECINCT 10                                            01 
01070050011000000REP       President                                               Rick Santorum                         PRECINCT 11                                            01 
01070060001000010REP       President                                               Newt Gingrich                         PRECINCT 1                                             01 
01070060002000000REP       President                                               Newt Gingrich                         PRECINCT 2                                             01 
01070060003000002REP       President                                               Newt Gingrich                         PRECINCT 3                                             01 
01070060004000002REP       President                                               Newt Gingrich                         PRECINCT 4                                             01 
01070060005000002REP       President                                               Newt Gingrich                         PRECINCT 5                                             01 
01070060006000001REP       President                                               Newt Gingrich                         PRECINCT 6                                             01 
01070060007000000REP       President                                               Newt Gingrich                         PRECINCT 7                                             01 
01070060008000000REP       President                                               Newt Gingrich                         PRECINCT 8                                             01 
01070060009000005REP       President                                               Newt Gingrich                         PRECINCT 9                                             01 
01070060010000001REP       President                                               Newt Gingrich                         PRECINCT 10                                            01 
01070060011000001REP       President                                               Newt Gingrich                         PRECINCT 11                                            01 
01070070001000001REP       President                                               John Davis                            PRECINCT 1                                             01 
01070070002000000REP       President                                               John Davis                            PRECINCT 2                                             01 
01070070003000000REP       President                                               John Davis                            PRECINCT 3                                             01 
01070070004000000REP       President                                               John Davis                            PRECINCT 4                                             01 
01070070005000000REP       President                                               John Davis                            PRECINCT 5                                             01 
01070070006000000REP       President                                               John Davis                            PRECINCT 6                                             01 
01070070007000000REP       President                                               John Davis                            PRECINCT 7                                             01 
01070070008000001REP       President                                               John Davis                            PRECINCT 8                                             01 
01070070009000000REP       President                                               John Davis                            PRECINCT 9                                             01 
01070070010000000REP       President                                               John Davis                            PRECINCT 10                                            01 
01070070011000000REP       President                                               John Davis                            PRECINCT 11                                            01 
01070080001000000REP       President                                               Michele Bachmann                      PRECINCT 1                                             01 
01070080002000000REP       President                                               Michele Bachmann                      PRECINCT 2                                             01 
01070080003000000REP       President                                               Michele Bachmann                      PRECINCT 3                                             01 
01070080004000002REP       President                                               Michele Bachmann                      PRECINCT 4                                             01 
01070080005000000REP       President                                               Michele Bachmann                      PRECINCT 5                                             01 
01070080006000002REP       President                                               Michele Bachmann                      PRECINCT 6                                             01 
01070080007000000REP       President                                               Michele Bachmann                      PRECINCT 7                                             01 
01070080008000000REP       President                                               Michele Bachmann                      PRECINCT 8                                             01 
01070080009000000REP       President                                               Michele Bachmann                      PRECINCT 9                                             01 
01070080010000000REP       President                                               Michele Bachmann                      PRECINCT 10                                            01 
01070080011000000REP       President                                               Michele Bachmann                      PRECINCT 11                                            01 
01070090001000001REP       President                                               Uncommitted                           PRECINCT 1                                             01 
01070090002000001REP       President                                               Uncommitted                           PRECINCT 2                                             01 
01070090003000002REP       President                                               Uncommitted                           PRECINCT 3                                             01 
01070090004000000REP       President                                               Uncommitted                           PRECINCT 4                                             01 
01070090005000000REP       President                                               Uncommitted                           PRECINCT 5                                             01 
01070090006000000REP       President                                               Uncommitted                           PRECINCT 6                                             01 
01070090007000000REP       President                                               Uncommitted                           PRECINCT 7                                             01 
01070090008000003REP       President                                               Uncommitted                           PRECINCT 8                                             01 
01070090009000001REP       President                                               Uncommitted                           PRECINCT 9                                             01 
01070090010000000REP       President                                               Uncommitted                           PRECINCT 10                                            01 
01070090011000000REP       President                                               Uncommitted                           PRECINCT 11                                            01 
01070100001000000REP       President                                               OVER VOTES                            PRECINCT 1                                             01 
01070100002000000REP       President                                               OVER VOTES                            PRECINCT 2                                             01 
01070100003000000REP       President                                               OVER VOTES                            PRECINCT 3                                             01 
01070100004000001REP       President                                               OVER VOTES                            PRECINCT 4                                             01 
01070100005000001REP       President                                               OVER VOTES                            PRECINCT 5                                             01 
01070100006000000REP       President                                               OVER VOTES                            PRECINCT 6                                             01 
01070100007000000REP       President                                               OVER VOTES                            PRECINCT 7                                             01 
01070100008000000REP       President                                               OVER VOTES                            PRECINCT 8                                             01 
01070100009000001REP       President                                               OVER VOTES                            PRECINCT 9                                             01 
01070100010000000REP       President                                               OVER VOTES                            PRECINCT 10                                            01 
01070100011000000REP       President                                               OVER VOTES                            PRECINCT 11                                            01 
01070110001000002REP       President                                               UNDER VOTES                           PRECINCT 1                                             01 
01070110002000000REP       President                                               UNDER VOTES                           PRECINCT 2                                             01 
01070110003000000REP       President                                               UNDER VOTES                           PRECINCT 3                                             01 
01070110004000001REP       President                                               UNDER VOTES                           PRECINCT 4                                             01 
01070110005000000REP       President                                               UNDER VOTES                           PRECINCT 5                                             01 
01070110006000001REP       President                                               UNDER VOTES                           PRECINCT 6                                             01 
01070110007000000REP       President                                               UNDER VOTES                           PRECINCT 7                                             01 
01070110008000003REP       President                                               UNDER VOTES                           PRECINCT 8                                             01 
01070110009000000REP       President                                               UNDER VOTES                           PRECINCT 9                                             01 
01070110010000000REP       President                                               UNDER VOTES                           PRECINCT 10                                            01 
01070110011000001REP       President                                               UNDER VOTES                           PRECINCT 11                                            01 
01080010001000004REP       United States Senator                                   Craig James                           PRECINCT 1                                             01 
01080010002000002REP       United States Senator                                   Craig James                           PRECINCT 2                                             01 
01080010003000003REP       United States Senator                                   Craig James                           PRECINCT 3                                             01 
01080010004000000REP       United States Senator                                   Craig James                           PRECINCT 4                                             01 
01080010005000001REP       United States Senator                                   Craig James                           PRECINCT 5                                             01 
01080010006000001REP       United States Senator                                   Craig James                           PRECINCT 6                                             01 
01080010007000001REP       United States Senator                                   Craig James                           PRECINCT 7                                             01 
01080010008000003REP       United States Senator                                   Craig James                           PRECINCT 8                                             01 
01080010009000008REP       United States Senator                                   Craig James                           PRECINCT 9                                             01 
01080010010000002REP       United States Senator                                   Craig James                           PRECINCT 10                                            01 
01080010011000000REP       United States Senator                                   Craig James                           PRECINCT 11                                            01 
01080020001000003REP       United States Senator                                   Tom Leppert                           PRECINCT 1                                             01 
01080020002000003REP       United States Senator                                   Tom Leppert                           PRECINCT 2                                             01 
01080020003000001REP       United States Senator                                   Tom Leppert                           PRECINCT 3                                             01 
01080020004000002REP       United States Senator                                   Tom Leppert                           PRECINCT 4                                             01 
01080020005000001REP       United States Senator                                   Tom Leppert                           PRECINCT 5                                             01 
01080020006000002REP       United States Senator                                   Tom Leppert                           PRECINCT 6                                             01 
01080020007000001REP       United States Senator                                   Tom Leppert                           PRECINCT 7                                             01 
01080020008000004REP       United States Senator                                   Tom Leppert                           PRECINCT 8                                             01 
01080020009000004REP       United States Senator                                   Tom Leppert                           PRECINCT 9                                             01 
01080020010000000REP       United States Senator                                   Tom Leppert                           PRECINCT 10                                            01 
01080020011000000REP       United States Senator                                   Tom Leppert                           PRECINCT 11                                            01 
01080030001000001REP       United States Senator                                   Ben Gambini                           PRECINCT 1                                             01 
01080030002000000REP       United States Senator                                   Ben Gambini                           PRECINCT 2                                             01 
01080030003000000REP       United States Senator                                   Ben Gambini                           PRECINCT 3                                             01 
01080030004000000REP       United States Senator                                   Ben Gambini                           PRECINCT 4                                             01 
01080030005000000REP       United States Senator                                   Ben Gambini                           PRECINCT 5                                             01 
01080030006000000REP       United States Senator                                   Ben Gambini                           PRECINCT 6                                             01 
01080030007000000REP       United States Senator                                   Ben Gambini                           PRECINCT 7                                             01 
01080030008000002REP       United States Senator                                   Ben Gambini                           PRECINCT 8                                             01 
01080030009000000REP       United States Senator                                   Ben Gambini                           PRECINCT 9                                             01 
01080030010000000REP       United States Senator                                   Ben Gambini                           PRECINCT 10                                            01 
01080030011000000REP       United States Senator                                   Ben Gambini                           PRECINCT 11                                            01 
01080040001000001REP       United States Senator                                   Glenn Addison                         PRECINCT 1                                             01 
01080040002000000REP       United States Senator                                   Glenn Addison                         PRECINCT 2                                             01 
01080040003000000REP       United States Senator                                   Glenn Addison                         PRECINCT 3                                             01 
01080040004000000REP       United States Senator                                   Glenn Addison                         PRECINCT 4                                             01 
01080040005000000REP       United States Senator                                   Glenn Addison                         PRECINCT 5                                             01 
01080040006000000REP       United States Senator                                   Glenn Addison                         PRECINCT 6                                             01 
01080040007000000REP       United States Senator                                   Glenn Addison                         PRECINCT 7                                             01 
01080040008000001REP       United States Senator                                   Glenn Addison                         PRECINCT 8                                             01 
01080040009000000REP       United States Senator                                   Glenn Addison                         PRECINCT 9                                             01 
01080040010000001REP       United States Senator                                   Glenn Addison                         PRECINCT 10                                            01 
01080040011000001REP       United States Senator                                   Glenn Addison                         PRECINCT 11                                            01 
01080050001000000REP       United States Senator                                   Lela Pittenger                        PRECINCT 1                                             01 
01080050002000000REP       United States Senator                                   Lela Pittenger                        PRECINCT 2                                             01 
01080050003000000REP       United States Senator                                   Lela Pittenger                        PRECINCT 3                                             01 
01080050004000000REP       United States Senator                                   Lela Pittenger                        PRECINCT 4                                             01 
01080050005000000REP       United States Senator                                   Lela Pittenger                        PRECINCT 5                                             01 
01080050006000000REP       United States Senator                                   Lela Pittenger                        PRECINCT 6                                             01 
01080050007000000REP       United States Senator                                   Lela Pittenger                        PRECINCT 7                                             01 
01080050008000001REP       United States Senator                                   Lela Pittenger                        PRECINCT 8                                             01 
01080050009000002REP       United States Senator                                   Lela Pittenger                        PRECINCT 9                                             01 
01080050010000001REP       United States Senator                                   Lela Pittenger                        PRECINCT 10                                            01 
01080050011000000REP       United States Senator                                   Lela Pittenger                        PRECINCT 11                                            01 
01080060001000022REP       United States Senator                                   David Dewhurst                        PRECINCT 1                                             01 
01080060002000003REP       United States Senator                                   David Dewhurst                        PRECINCT 2                                             01 
01080060003000005REP       United States Senator                                   David Dewhurst                        PRECINCT 3                                             01 
01080060004000010REP       United States Senator                                   David Dewhurst                        PRECINCT 4                                             01 
01080060005000010REP       United States Senator                                   David Dewhurst                        PRECINCT 5                                             01 
01080060006000005REP       United States Senator                                   David Dewhurst                        PRECINCT 6                                             01 
01080060007000008REP       United States Senator                                   David Dewhurst                        PRECINCT 7                                             01 
01080060008000019REP       United States Senator                                   David Dewhurst                        PRECINCT 8                                             01 
01080060009000046REP       United States Senator                                   David Dewhurst                        PRECINCT 9                                             01 
01080060010000011REP       United States Senator                                   David Dewhurst                        PRECINCT 10                                            01 
01080060011000000REP       United States Senator                                   David Dewhurst                        PRECINCT 11                                            01 
01080070001000036REP       United States Senator                                   Ted Cruz                              PRECINCT 1                                             01 
01080070002000009REP       United States Senator                                   Ted Cruz                              PRECINCT 2                                             01 
01080070003000002REP       United States Senator                                   Ted Cruz                              PRECINCT 3                                             01 
01080070004000024REP       United States Senator                                   Ted Cruz                              PRECINCT 4                                             01 
01080070005000010REP       United States Senator                                   Ted Cruz                              PRECINCT 5                                             01 
01080070006000003REP       United States Senator                                   Ted Cruz                              PRECINCT 6                                             01 
01080070007000000REP       United States Senator                                   Ted Cruz                              PRECINCT 7                                             01 
01080070008000023REP       United States Senator                                   Ted Cruz                              PRECINCT 8                                             01 
01080070009000029REP       United States Senator                                   Ted Cruz                              PRECINCT 9                                             01 
01080070010000008REP       United States Senator                                   Ted Cruz                              PRECINCT 10                                            01 
01080070011000000REP       United States Senator                                   Ted Cruz                              PRECINCT 11                                            01 
01080080001000000REP       United States Senator                                   Curt Cleaver                          PRECINCT 1                                             01 
01080080002000000REP       United States Senator                                   Curt Cleaver                          PRECINCT 2                                             01 
01080080003000001REP       United States Senator                                   Curt Cleaver                          PRECINCT 3                                             01 
01080080004000000REP       United States Senator                                   Curt Cleaver                          PRECINCT 4                                             01 
01080080005000000REP       United States Senator                                   Curt Cleaver                          PRECINCT 5                                             01 
01080080006000001REP       United States Senator                                   Curt Cleaver                          PRECINCT 6                                             01 
01080080007000000REP       United States Senator                                   Curt Cleaver                          PRECINCT 7                                             01 
01080080008000000REP       United States Senator                                   Curt Cleaver                          PRECINCT 8                                             01 
01080080009000000REP       United States Senator                                   Curt Cleaver                          PRECINCT 9                                             01 
01080080010000000REP       United States Senator                                   Curt Cleaver                          PRECINCT 10                                            01 
01080080011000000REP       United States Senator                                   Curt Cleaver                          PRECINCT 11                                            01 
01080090001000000REP       United States Senator                                   Joe Agris                             PRECINCT 1                                             01 
01080090002000000REP       United States Senator                                   Joe Agris                             PRECINCT 2                                             01 
01080090003000000REP       United States Senator                                   Joe Agris                             PRECINCT 3                                             01 
01080090004000000REP       United States Senator                                   Joe Agris                             PRECINCT 4                                             01 
01080090005000000REP       United States Senator                                   Joe Agris                             PRECINCT 5                                             01 
01080090006000000REP       United States Senator                                   Joe Agris                             PRECINCT 6                                             01 
01080090007000000REP       United States Senator                                   Joe Agris                             PRECINCT 7                                             01 
01080090008000000REP       United States Senator                                   Joe Agris                             PRECINCT 8                                             01 
01080090009000000REP       United States Senator                                   Joe Agris                             PRECINCT 9                                             01 
01080090010000000REP       United States Senator                                   Joe Agris                             PRECINCT 10                                            01 
01080090011000000REP       United States Senator                                   Joe Agris                             PRECINCT 11                                            01 
01080100001000000REP       United States Senator                                   OVER VOTES                            PRECINCT 1                                             01 
01080100002000000REP       United States Senator                                   OVER VOTES                            PRECINCT 2                                             01 
01080100003000000REP       United States Senator                                   OVER VOTES                            PRECINCT 3                                             01 
01080100004000000REP       United States Senator                                   OVER VOTES                            PRECINCT 4                                             01 
01080100005000000REP       United States Senator                                   OVER VOTES                            PRECINCT 5                                             01 
01080100006000000REP       United States Senator                                   OVER VOTES                            PRECINCT 6                                             01 
01080100007000000REP       United States Senator                                   OVER VOTES                            PRECINCT 7                                             01 
01080100008000000REP       United States Senator                                   OVER VOTES                            PRECINCT 8                                             01 
01080100009000000REP       United States Senator                                   OVER VOTES                            PRECINCT 9                                             01 
01080100010000000REP       United States Senator                                   OVER VOTES                            PRECINCT 10                                            01 
01080100011000000REP       United States Senator                                   OVER VOTES                            PRECINCT 11                                            01 
01080110001000003REP       United States Senator                                   UNDER VOTES                           PRECINCT 1                                             01 
01080110002000000REP       United States Senator                                   UNDER VOTES                           PRECINCT 2                                             01 
01080110003000000REP       United States Senator                                   UNDER VOTES                           PRECINCT 3                                             01 
01080110004000002REP       United States Senator                                   UNDER VOTES                           PRECINCT 4                                             01 
01080110005000000REP       United States Senator                                   UNDER VOTES                           PRECINCT 5                                             01 
01080110006000003REP       United States Senator                                   UNDER VOTES                           PRECINCT 6                                             01 
01080110007000001REP       United States Senator                                   UNDER VOTES                           PRECINCT 7                                             01 
01080110008000009REP       United States Senator                                   UNDER VOTES                           PRECINCT 8                                             01 
01080110009000002REP       United States Senator                                   UNDER VOTES                           PRECINCT 9                                             01 
01080110010000005REP       United States Senator                                   UNDER VOTES                           PRECINCT 10                                            01 
01080110011000001REP       United States Senator                                   UNDER VOTES                           PRECINCT 11                                            01 
01090010001000059REP       United States Representative, District 1                Louie Gohmert                         PRECINCT 1                                             01 
01090010002000016REP       United States Representative, District 1                Louie Gohmert                         PRECINCT 2                                             01 
01090010003000010REP       United States Representative, District 1                Louie Gohmert                         PRECINCT 3                                             01 
01090010004000032REP       United States Representative, District 1                Louie Gohmert                         PRECINCT 4                                             01 
01090010005000019REP       United States Representative, District 1                Louie Gohmert                         PRECINCT 5                                             01 
01090010006000011REP       United States Representative, District 1                Louie Gohmert                         PRECINCT 6                                             01 
01090010007000008REP       United States Representative, District 1                Louie Gohmert                         PRECINCT 7                                             01 
01090010008000045REP       United States Representative, District 1                Louie Gohmert                         PRECINCT 8                                             01 
01090010009000076REP       United States Representative, District 1                Louie Gohmert                         PRECINCT 9                                             01 
01090010010000024REP       United States Representative, District 1                Louie Gohmert                         PRECINCT 10                                            01 
01090010011000002REP       United States Representative, District 1                Louie Gohmert                         PRECINCT 11                                            01 
01090020001000000REP       United States Representative, District 1                OVER VOTES                            PRECINCT 1                                             01 
01090020002000000REP       United States Representative, District 1                OVER VOTES                            PRECINCT 2                                             01 
01090020003000000REP       United States Representative, District 1                OVER VOTES                            PRECINCT 3                                             01 
01090020004000000REP       United States Representative, District 1                OVER VOTES                            PRECINCT 4                                             01 
01090020005000000REP       United States Representative, District 1                OVER VOTES                            PRECINCT 5                                             01 
01090020006000000REP       United States Representative, District 1                OVER VOTES                            PRECINCT 6                                             01 
01090020007000000REP       United States Representative, District 1                OVER VOTES                            PRECINCT 7                                             01 
01090020008000000REP       United States Representative, District 1                OVER VOTES                            PRECINCT 8                                             01 
01090020009000000REP       United States Representative, District 1                OVER VOTES                            PRECINCT 9                                             01 
01090020010000000REP       United States Representative, District 1                OVER VOTES                            PRECINCT 10                                            01 
01090020011000000REP       United States Representative, District 1                OVER VOTES                            PRECINCT 11                                            01 
01090030001000011REP       United States Representative, District 1                UNDER VOTES                           PRECINCT 1                                             01 
01090030002000001REP       United States Representative, District 1                UNDER VOTES                           PRECINCT 2                                             01 
01090030003000002REP       United States Representative, District 1                UNDER VOTES                           PRECINCT 3                                             01 
01090030004000006REP       United States Representative, District 1                UNDER VOTES                           PRECINCT 4                                             01 
01090030005000003REP       United States Representative, District 1                UNDER VOTES                           PRECINCT 5                                             01 
01090030006000004REP       United States Representative, District 1                UNDER VOTES                           PRECINCT 6                                             01 
01090030007000003REP       United States Representative, District 1                UNDER VOTES                           PRECINCT 7                                             01 
01090030008000017REP       United States Representative, District 1                UNDER VOTES                           PRECINCT 8                                             01 
01090030009000015REP       United States Representative, District 1                UNDER VOTES                           PRECINCT 9                                             01 
01090030010000004REP       United States Representative, District 1                UNDER VOTES                           PRECINCT 10                                            01 
01090030011000000REP       United States Representative, District 1                UNDER VOTES                           PRECINCT 11                                            01 
01100010001000016REP       Railroad Commissioner                                   Christi Craddick                      PRECINCT 1                                             01 
01100010002000005REP       Railroad Commissioner                                   Christi Craddick                      PRECINCT 2                                             01 
01100010003000002REP       Railroad Commissioner                                   Christi Craddick                      PRECINCT 3                                             01 
01100010004000007REP       Railroad Commissioner                                   Christi Craddick                      PRECINCT 4                                             01 
01100010005000006REP       Railroad Commissioner                                   Christi Craddick                      PRECINCT 5                                             01 
01100010006000003REP       Railroad Commissioner                                   Christi Craddick                      PRECINCT 6                                             01 
01100010007000003REP       Railroad Commissioner                                   Christi Craddick                      PRECINCT 7                                             01 
01100010008000021REP       Railroad Commissioner                                   Christi Craddick                      PRECINCT 8                                             01 
01100010009000028REP       Railroad Commissioner                                   Christi Craddick                      PRECINCT 9                                             01 
01100010010000007REP       Railroad Commissioner                                   Christi Craddick                      PRECINCT 10                                            01 
01100010011000000REP       Railroad Commissioner                                   Christi Craddick                      PRECINCT 11                                            01 
01100020001000003REP       Railroad Commissioner                                   Beryl Burgess                         PRECINCT 1                                             01 
01100020002000002REP       Railroad Commissioner                                   Beryl Burgess                         PRECINCT 2                                             01 
01100020003000000REP       Railroad Commissioner                                   Beryl Burgess                         PRECINCT 3                                             01 
01100020004000001REP       Railroad Commissioner                                   Beryl Burgess                         PRECINCT 4                                             01 
01100020005000000REP       Railroad Commissioner                                   Beryl Burgess                         PRECINCT 5                                             01 
01100020006000000REP       Railroad Commissioner                                   Beryl Burgess                         PRECINCT 6                                             01 
01100020007000000REP       Railroad Commissioner                                   Beryl Burgess                         PRECINCT 7                                             01 
01100020008000003REP       Railroad Commissioner                                   Beryl Burgess                         PRECINCT 8                                             01 
01100020009000006REP       Railroad Commissioner                                   Beryl Burgess                         PRECINCT 9                                             01 
01100020010000003REP       Railroad Commissioner                                   Beryl Burgess                         PRECINCT 10                                            01 
01100020011000000REP       Railroad Commissioner                                   Beryl Burgess                         PRECINCT 11                                            01 
01100030001000006REP       Railroad Commissioner                                   Joe Cotten                            PRECINCT 1                                             01 
01100030002000001REP       Railroad Commissioner                                   Joe Cotten                            PRECINCT 2                                             01 
01100030003000002REP       Railroad Commissioner                                   Joe Cotten                            PRECINCT 3                                             01 
01100030004000003REP       Railroad Commissioner                                   Joe Cotten                            PRECINCT 4                                             01 
01100030005000000REP       Railroad Commissioner                                   Joe Cotten                            PRECINCT 5                                             01 
01100030006000002REP       Railroad Commissioner                                   Joe Cotten                            PRECINCT 6                                             01 
01100030007000000REP       Railroad Commissioner                                   Joe Cotten                            PRECINCT 7                                             01 
01100030008000005REP       Railroad Commissioner                                   Joe Cotten                            PRECINCT 8                                             01 
01100030009000008REP       Railroad Commissioner                                   Joe Cotten                            PRECINCT 9                                             01 
01100030010000002REP       Railroad Commissioner                                   Joe Cotten                            PRECINCT 10                                            01 
01100030011000000REP       Railroad Commissioner                                   Joe Cotten                            PRECINCT 11                                            01 
01100040001000008REP       Railroad Commissioner                                   Becky Berger                          PRECINCT 1                                             01 
01100040002000000REP       Railroad Commissioner                                   Becky Berger                          PRECINCT 2                                             01 
01100040003000005REP       Railroad Commissioner                                   Becky Berger                          PRECINCT 3                                             01 
01100040004000005REP       Railroad Commissioner                                   Becky Berger                          PRECINCT 4                                             01 
01100040005000005REP       Railroad Commissioner                                   Becky Berger                          PRECINCT 5                                             01 
01100040006000001REP       Railroad Commissioner                                   Becky Berger                          PRECINCT 6                                             01 
01100040007000001REP       Railroad Commissioner                                   Becky Berger                          PRECINCT 7                                             01 
01100040008000009REP       Railroad Commissioner                                   Becky Berger                          PRECINCT 8                                             01 
01100040009000008REP       Railroad Commissioner                                   Becky Berger                          PRECINCT 9                                             01 
01100040010000004REP       Railroad Commissioner                                   Becky Berger                          PRECINCT 10                                            01 
01100040011000000REP       Railroad Commissioner                                   Becky Berger                          PRECINCT 11                                            01 
01100050001000017REP       Railroad Commissioner                                   Warren Chisum                         PRECINCT 1                                             01 
01100050002000004REP       Railroad Commissioner                                   Warren Chisum                         PRECINCT 2                                             01 
01100050003000000REP       Railroad Commissioner                                   Warren Chisum                         PRECINCT 3                                             01 
01100050004000010REP       Railroad Commissioner                                   Warren Chisum                         PRECINCT 4                                             01 
01100050005000003REP       Railroad Commissioner                                   Warren Chisum                         PRECINCT 5                                             01 
01100050006000005REP       Railroad Commissioner                                   Warren Chisum                         PRECINCT 6                                             01 
01100050007000003REP       Railroad Commissioner                                   Warren Chisum                         PRECINCT 7                                             01 
01100050008000006REP       Railroad Commissioner                                   Warren Chisum                         PRECINCT 8                                             01 
01100050009000012REP       Railroad Commissioner                                   Warren Chisum                         PRECINCT 9                                             01 
01100050010000004REP       Railroad Commissioner                                   Warren Chisum                         PRECINCT 10                                            01 
01100050011000001REP       Railroad Commissioner                                   Warren Chisum                         PRECINCT 11                                            01 
01100060001000003REP       Railroad Commissioner                                   Roland Sledge                         PRECINCT 1                                             01 
01100060002000001REP       Railroad Commissioner                                   Roland Sledge                         PRECINCT 2                                             01 
01100060003000001REP       Railroad Commissioner                                   Roland Sledge                         PRECINCT 3                                             01 
01100060004000002REP       Railroad Commissioner                                   Roland Sledge                         PRECINCT 4                                             01 
01100060005000001REP       Railroad Commissioner                                   Roland Sledge                         PRECINCT 5                                             01 
01100060006000000REP       Railroad Commissioner                                   Roland Sledge                         PRECINCT 6                                             01 
01100060007000000REP       Railroad Commissioner                                   Roland Sledge                         PRECINCT 7                                             01 
01100060008000002REP       Railroad Commissioner                                   Roland Sledge                         PRECINCT 8                                             01 
01100060009000009REP       Railroad Commissioner                                   Roland Sledge                         PRECINCT 9                                             01 
01100060010000002REP       Railroad Commissioner                                   Roland Sledge                         PRECINCT 10                                            01 
01100060011000000REP       Railroad Commissioner                                   Roland Sledge                         PRECINCT 11                                            01 
01100070001000000REP       Railroad Commissioner                                   OVER VOTES                            PRECINCT 1                                             01 
01100070002000000REP       Railroad Commissioner                                   OVER VOTES                            PRECINCT 2                                             01 
01100070003000000REP       Railroad Commissioner                                   OVER VOTES                            PRECINCT 3                                             01 
01100070004000000REP       Railroad Commissioner                                   OVER VOTES                            PRECINCT 4                                             01 
01100070005000001REP       Railroad Commissioner                                   OVER VOTES                            PRECINCT 5                                             01 
01100070006000000REP       Railroad Commissioner                                   OVER VOTES                            PRECINCT 6                                             01 
01100070007000000REP       Railroad Commissioner                                   OVER VOTES                            PRECINCT 7                                             01 
01100070008000000REP       Railroad Commissioner                                   OVER VOTES                            PRECINCT 8                                             01 
01100070009000000REP       Railroad Commissioner                                   OVER VOTES                            PRECINCT 9                                             01 
01100070010000000REP       Railroad Commissioner                                   OVER VOTES                            PRECINCT 10                                            01 
01100070011000000REP       Railroad Commissioner                                   OVER VOTES                            PRECINCT 11                                            01 
01100080001000017REP       Railroad Commissioner                                   UNDER VOTES                           PRECINCT 1                                             01 
01100080002000004REP       Railroad Commissioner                                   UNDER VOTES                           PRECINCT 2                                             01 
01100080003000002REP       Railroad Commissioner                                   UNDER VOTES                           PRECINCT 3                                             01 
01100080004000010REP       Railroad Commissioner                                   UNDER VOTES                           PRECINCT 4                                             01 
01100080005000006REP       Railroad Commissioner                                   UNDER VOTES                           PRECINCT 5                                             01 
01100080006000004REP       Railroad Commissioner                                   UNDER VOTES                           PRECINCT 6                                             01 
01100080007000004REP       Railroad Commissioner                                   UNDER VOTES                           PRECINCT 7                                             01 
01100080008000016REP       Railroad Commissioner                                   UNDER VOTES                           PRECINCT 8                                             01 
01100080009000020REP       Railroad Commissioner                                   UNDER VOTES                           PRECINCT 9                                             01 
01100080010000006REP       Railroad Commissioner                                   UNDER VOTES                           PRECINCT 10                                            01 
01100080011000001REP       Railroad Commissioner                                   UNDER VOTES                           PRECINCT 11                                            01 
01110010001000020REP       Railroad Commissioner, Unexpired Term                   Greg Parker                           PRECINCT 1                                             01 
01110010002000008REP       Railroad Commissioner, Unexpired Term                   Greg Parker                           PRECINCT 2                                             01 
01110010003000003REP       Railroad Commissioner, Unexpired Term                   Greg Parker                           PRECINCT 3                                             01 
01110010004000009REP       Railroad Commissioner, Unexpired Term                   Greg Parker                           PRECINCT 4                                             01 
01110010005000003REP       Railroad Commissioner, Unexpired Term                   Greg Parker                           PRECINCT 5                                             01 
01110010006000001REP       Railroad Commissioner, Unexpired Term                   Greg Parker                           PRECINCT 6                                             01 
01110010007000002REP       Railroad Commissioner, Unexpired Term                   Greg Parker                           PRECINCT 7                                             01 
01110010008000019REP       Railroad Commissioner, Unexpired Term                   Greg Parker                           PRECINCT 8                                             01 
01110010009000028REP       Railroad Commissioner, Unexpired Term                   Greg Parker                           PRECINCT 9                                             01 
01110010010000008REP       Railroad Commissioner, Unexpired Term                   Greg Parker                           PRECINCT 10                                            01 
01110010011000000REP       Railroad Commissioner, Unexpired Term                   Greg Parker                           PRECINCT 11                                            01 
01110020001000022REP       Railroad Commissioner, Unexpired Term                   Barry Smitherman                      PRECINCT 1                                             01 
01110020002000004REP       Railroad Commissioner, Unexpired Term                   Barry Smitherman                      PRECINCT 2                                             01 
01110020003000001REP       Railroad Commissioner, Unexpired Term                   Barry Smitherman                      PRECINCT 3                                             01 
01110020004000010REP       Railroad Commissioner, Unexpired Term                   Barry Smitherman                      PRECINCT 4                                             01 
01110020005000007REP       Railroad Commissioner, Unexpired Term                   Barry Smitherman                      PRECINCT 5                                             01 
01110020006000005REP       Railroad Commissioner, Unexpired Term                   Barry Smitherman                      PRECINCT 6                                             01 
01110020007000003REP       Railroad Commissioner, Unexpired Term                   Barry Smitherman                      PRECINCT 7                                             01 
01110020008000012REP       Railroad Commissioner, Unexpired Term                   Barry Smitherman                      PRECINCT 8                                             01 
01110020009000026REP       Railroad Commissioner, Unexpired Term                   Barry Smitherman                      PRECINCT 9                                             01 
01110020010000005REP       Railroad Commissioner, Unexpired Term                   Barry Smitherman                      PRECINCT 10                                            01 
01110020011000000REP       Railroad Commissioner, Unexpired Term                   Barry Smitherman                      PRECINCT 11                                            01 
01110030001000003REP       Railroad Commissioner, Unexpired Term                   Al Lee                                PRECINCT 1                                             01 
01110030002000000REP       Railroad Commissioner, Unexpired Term                   Al Lee                                PRECINCT 2                                             01 
01110030003000001REP       Railroad Commissioner, Unexpired Term                   Al Lee                                PRECINCT 3                                             01 
01110030004000004REP       Railroad Commissioner, Unexpired Term                   Al Lee                                PRECINCT 4                                             01 
01110030005000001REP       Railroad Commissioner, Unexpired Term                   Al Lee                                PRECINCT 5                                             01 
01110030006000000REP       Railroad Commissioner, Unexpired Term                   Al Lee                                PRECINCT 6                                             01 
01110030007000000REP       Railroad Commissioner, Unexpired Term                   Al Lee                                PRECINCT 7                                             01 
01110030008000001REP       Railroad Commissioner, Unexpired Term                   Al Lee                                PRECINCT 8                                             01 
01110030009000008REP       Railroad Commissioner, Unexpired Term                   Al Lee                                PRECINCT 9                                             01 
01110030010000002REP       Railroad Commissioner, Unexpired Term                   Al Lee                                PRECINCT 10                                            01 
01110030011000001REP       Railroad Commissioner, Unexpired Term                   Al Lee                                PRECINCT 11                                            01 
01110040001000002REP       Railroad Commissioner, Unexpired Term                   Elizabeth Murray-Kolb                 PRECINCT 1                                             01 
01110040002000001REP       Railroad Commissioner, Unexpired Term                   Elizabeth Murray-Kolb                 PRECINCT 2                                             01 
01110040003000004REP       Railroad Commissioner, Unexpired Term                   Elizabeth Murray-Kolb                 PRECINCT 3                                             01 
01110040004000004REP       Railroad Commissioner, Unexpired Term                   Elizabeth Murray-Kolb                 PRECINCT 4                                             01 
01110040005000004REP       Railroad Commissioner, Unexpired Term                   Elizabeth Murray-Kolb                 PRECINCT 5                                             01 
01110040006000003REP       Railroad Commissioner, Unexpired Term                   Elizabeth Murray-Kolb                 PRECINCT 6                                             01 
01110040007000002REP       Railroad Commissioner, Unexpired Term                   Elizabeth Murray-Kolb                 PRECINCT 7                                             01 
01110040008000013REP       Railroad Commissioner, Unexpired Term                   Elizabeth Murray-Kolb                 PRECINCT 8                                             01 
01110040009000009REP       Railroad Commissioner, Unexpired Term                   Elizabeth Murray-Kolb                 PRECINCT 9                                             01 
01110040010000007REP       Railroad Commissioner, Unexpired Term                   Elizabeth Murray-Kolb                 PRECINCT 10                                            01 
01110040011000000REP       Railroad Commissioner, Unexpired Term                   Elizabeth Murray-Kolb                 PRECINCT 11                                            01 
01110050001000000REP       Railroad Commissioner, Unexpired Term                   OVER VOTES                            PRECINCT 1                                             01 
01110050002000000REP       Railroad Commissioner, Unexpired Term                   OVER VOTES                            PRECINCT 2                                             01 
01110050003000000REP       Railroad Commissioner, Unexpired Term                   OVER VOTES                            PRECINCT 3                                             01 
01110050004000000REP       Railroad Commissioner, Unexpired Term                   OVER VOTES                            PRECINCT 4                                             01 
01110050005000000REP       Railroad Commissioner, Unexpired Term                   OVER VOTES                            PRECINCT 5                                             01 
01110050006000000REP       Railroad Commissioner, Unexpired Term                   OVER VOTES                            PRECINCT 6                                             01 
01110050007000000REP       Railroad Commissioner, Unexpired Term                   OVER VOTES                            PRECINCT 7                                             01 
01110050008000000REP       Railroad Commissioner, Unexpired Term                   OVER VOTES                            PRECINCT 8                                             01 
01110050009000000REP       Railroad Commissioner, Unexpired Term                   OVER VOTES                            PRECINCT 9                                             01 
01110050010000000REP       Railroad Commissioner, Unexpired Term                   OVER VOTES                            PRECINCT 10                                            01 
01110050011000000REP       Railroad Commissioner, Unexpired Term                   OVER VOTES                            PRECINCT 11                                            01 
01110060001000023REP       Railroad Commissioner, Unexpired Term                   UNDER VOTES                           PRECINCT 1                                             01 
01110060002000004REP       Railroad Commissioner, Unexpired Term                   UNDER VOTES                           PRECINCT 2                                             01 
01110060003000003REP       Railroad Commissioner, Unexpired Term                   UNDER VOTES                           PRECINCT 3                                             01 
01110060004000011REP       Railroad Commissioner, Unexpired Term                   UNDER VOTES                           PRECINCT 4                                             01 
01110060005000007REP       Railroad Commissioner, Unexpired Term                   UNDER VOTES                           PRECINCT 5                                             01 
01110060006000006REP       Railroad Commissioner, Unexpired Term                   UNDER VOTES                           PRECINCT 6                                             01 
01110060007000004REP       Railroad Commissioner, Unexpired Term                   UNDER VOTES                           PRECINCT 7                                             01 
01110060008000017REP       Railroad Commissioner, Unexpired Term                   UNDER VOTES                           PRECINCT 8                                             01 
01110060009000020REP       Railroad Commissioner, Unexpired Term                   UNDER VOTES                           PRECINCT 9                                             01 
01110060010000006REP       Railroad Commissioner, Unexpired Term                   UNDER VOTES                           PRECINCT 10                                            01 
01110060011000001REP       Railroad Commissioner, Unexpired Term                   UNDER VOTES                           PRECINCT 11                                            01 
01120010001000025REP       Justice, Supreme Court, Place 2                         Steve Smith                           PRECINCT 1                                             01 
01120010002000006REP       Justice, Supreme Court, Place 2                         Steve Smith                           PRECINCT 2                                             01 
01120010003000003REP       Justice, Supreme Court, Place 2                         Steve Smith                           PRECINCT 3                                             01 
01120010004000014REP       Justice, Supreme Court, Place 2                         Steve Smith                           PRECINCT 4                                             01 
01120010005000008REP       Justice, Supreme Court, Place 2                         Steve Smith                           PRECINCT 5                                             01 
01120010006000004REP       Justice, Supreme Court, Place 2                         Steve Smith                           PRECINCT 6                                             01 
01120010007000003REP       Justice, Supreme Court, Place 2                         Steve Smith                           PRECINCT 7                                             01 
01120010008000025REP       Justice, Supreme Court, Place 2                         Steve Smith                           PRECINCT 8                                             01 
01120010009000039REP       Justice, Supreme Court, Place 2                         Steve Smith                           PRECINCT 9                                             01 
01120010010000018REP       Justice, Supreme Court, Place 2                         Steve Smith                           PRECINCT 10                                            01 
01120010011000000REP       Justice, Supreme Court, Place 2                         Steve Smith                           PRECINCT 11                                            01 
01120020001000024REP       Justice, Supreme Court, Place 2                         Don Willett                           PRECINCT 1                                             01 
01120020002000006REP       Justice, Supreme Court, Place 2                         Don Willett                           PRECINCT 2                                             01 
01120020003000006REP       Justice, Supreme Court, Place 2                         Don Willett                           PRECINCT 3                                             01 
01120020004000012REP       Justice, Supreme Court, Place 2                         Don Willett                           PRECINCT 4                                             01 
01120020005000008REP       Justice, Supreme Court, Place 2                         Don Willett                           PRECINCT 5                                             01 
01120020006000007REP       Justice, Supreme Court, Place 2                         Don Willett                           PRECINCT 6                                             01 
01120020007000003REP       Justice, Supreme Court, Place 2                         Don Willett                           PRECINCT 7                                             01 
01120020008000019REP       Justice, Supreme Court, Place 2                         Don Willett                           PRECINCT 8                                             01 
01120020009000034REP       Justice, Supreme Court, Place 2                         Don Willett                           PRECINCT 9                                             01 
01120020010000003REP       Justice, Supreme Court, Place 2                         Don Willett                           PRECINCT 10                                            01 
01120020011000001REP       Justice, Supreme Court, Place 2                         Don Willett                           PRECINCT 11                                            01 
01120030001000000REP       Justice, Supreme Court, Place 2                         OVER VOTES                            PRECINCT 1                                             01 
01120030002000000REP       Justice, Supreme Court, Place 2                         OVER VOTES                            PRECINCT 2                                             01 
01120030003000000REP       Justice, Supreme Court, Place 2                         OVER VOTES                            PRECINCT 3                                             01 
01120030004000000REP       Justice, Supreme Court, Place 2                         OVER VOTES                            PRECINCT 4                                             01 
01120030005000000REP       Justice, Supreme Court, Place 2                         OVER VOTES                            PRECINCT 5                                             01 
01120030006000000REP       Justice, Supreme Court, Place 2                         OVER VOTES                            PRECINCT 6                                             01 
01120030007000000REP       Justice, Supreme Court, Place 2                         OVER VOTES                            PRECINCT 7                                             01 
01120030008000001REP       Justice, Supreme Court, Place 2                         OVER VOTES                            PRECINCT 8                                             01 
01120030009000000REP       Justice, Supreme Court, Place 2                         OVER VOTES                            PRECINCT 9                                             01 
01120030010000000REP       Justice, Supreme Court, Place 2                         OVER VOTES                            PRECINCT 10                                            01 
01120030011000000REP       Justice, Supreme Court, Place 2                         OVER VOTES                            PRECINCT 11                                            01 
01120040001000021REP       Justice, Supreme Court, Place 2                         UNDER VOTES                           PRECINCT 1                                             01 
01120040002000005REP       Justice, Supreme Court, Place 2                         UNDER VOTES                           PRECINCT 2                                             01 
01120040003000003REP       Justice, Supreme Court, Place 2                         UNDER VOTES                           PRECINCT 3                                             01 
01120040004000012REP       Justice, Supreme Court, Place 2                         UNDER VOTES                           PRECINCT 4                                             01 
01120040005000006REP       Justice, Supreme Court, Place 2                         UNDER VOTES                           PRECINCT 5                                             01 
01120040006000004REP       Justice, Supreme Court, Place 2                         UNDER VOTES                           PRECINCT 6                                             01 
01120040007000005REP       Justice, Supreme Court, Place 2                         UNDER VOTES                           PRECINCT 7                                             01 
01120040008000017REP       Justice, Supreme Court, Place 2                         UNDER VOTES                           PRECINCT 8                                             01 
01120040009000018REP       Justice, Supreme Court, Place 2                         UNDER VOTES                           PRECINCT 9                                             01 
01120040010000007REP       Justice, Supreme Court, Place 2                         UNDER VOTES                           PRECINCT 10                                            01 
01120040011000001REP       Justice, Supreme Court, Place 2                         UNDER VOTES                           PRECINCT 11                                            01 
01130010001000022REP       Justice, Supreme Court, Place 4                         David Medina                          PRECINCT 1                                             01 
01130010002000004REP       Justice, Supreme Court, Place 4                         David Medina                          PRECINCT 2                                             01 
01130010003000005REP       Justice, Supreme Court, Place 4                         David Medina                          PRECINCT 3                                             01 
01130010004000007REP       Justice, Supreme Court, Place 4                         David Medina                          PRECINCT 4                                             01 
01130010005000009REP       Justice, Supreme Court, Place 4                         David Medina                          PRECINCT 5                                             01 
01130010006000006REP       Justice, Supreme Court, Place 4                         David Medina                          PRECINCT 6                                             01 
01130010007000002REP       Justice, Supreme Court, Place 4                         David Medina                          PRECINCT 7                                             01 
01130010008000021REP       Justice, Supreme Court, Place 4                         David Medina                          PRECINCT 8                                             01 
01130010009000031REP       Justice, Supreme Court, Place 4                         David Medina                          PRECINCT 9                                             01 
01130010010000008REP       Justice, Supreme Court, Place 4                         David Medina                          PRECINCT 10                                            01 
01130010011000001REP       Justice, Supreme Court, Place 4                         David Medina                          PRECINCT 11                                            01 
01130020001000021REP       Justice, Supreme Court, Place 4                         John Devine                           PRECINCT 1                                             01 
01130020002000005REP       Justice, Supreme Court, Place 4                         John Devine                           PRECINCT 2                                             01 
01130020003000004REP       Justice, Supreme Court, Place 4                         John Devine                           PRECINCT 3                                             01 
01130020004000008REP       Justice, Supreme Court, Place 4                         John Devine                           PRECINCT 4                                             01 
01130020005000002REP       Justice, Supreme Court, Place 4                         John Devine                           PRECINCT 5                                             01 
01130020006000000REP       Justice, Supreme Court, Place 4                         John Devine                           PRECINCT 6                                             01 
01130020007000001REP       Justice, Supreme Court, Place 4                         John Devine                           PRECINCT 7                                             01 
01130020008000013REP       Justice, Supreme Court, Place 4                         John Devine                           PRECINCT 8                                             01 
01130020009000022REP       Justice, Supreme Court, Place 4                         John Devine                           PRECINCT 9                                             01 
01130020010000007REP       Justice, Supreme Court, Place 4                         John Devine                           PRECINCT 10                                            01 
01130020011000000REP       Justice, Supreme Court, Place 4                         John Devine                           PRECINCT 11                                            01 
01130030001000008REP       Justice, Supreme Court, Place 4                         Joe Pool, Jr.                         PRECINCT 1                                             01 
01130030002000003REP       Justice, Supreme Court, Place 4                         Joe Pool, Jr.                         PRECINCT 2                                             01 
01130030003000001REP       Justice, Supreme Court, Place 4                         Joe Pool, Jr.                         PRECINCT 3                                             01 
01130030004000012REP       Justice, Supreme Court, Place 4                         Joe Pool, Jr.                         PRECINCT 4                                             01 
01130030005000005REP       Justice, Supreme Court, Place 4                         Joe Pool, Jr.                         PRECINCT 5                                             01 
01130030006000003REP       Justice, Supreme Court, Place 4                         Joe Pool, Jr.                         PRECINCT 6                                             01 
01130030007000004REP       Justice, Supreme Court, Place 4                         Joe Pool, Jr.                         PRECINCT 7                                             01 
01130030008000009REP       Justice, Supreme Court, Place 4                         Joe Pool, Jr.                         PRECINCT 8                                             01 
01130030009000015REP       Justice, Supreme Court, Place 4                         Joe Pool, Jr.                         PRECINCT 9                                             01 
01130030010000007REP       Justice, Supreme Court, Place 4                         Joe Pool, Jr.                         PRECINCT 10                                            01 
01130030011000000REP       Justice, Supreme Court, Place 4                         Joe Pool, Jr.                         PRECINCT 11                                            01 
01130040001000000REP       Justice, Supreme Court, Place 4                         OVER VOTES                            PRECINCT 1                                             01 
01130040002000000REP       Justice, Supreme Court, Place 4                         OVER VOTES                            PRECINCT 2                                             01 
01130040003000000REP       Justice, Supreme Court, Place 4                         OVER VOTES                            PRECINCT 3                                             01 
01130040004000000REP       Justice, Supreme Court, Place 4                         OVER VOTES                            PRECINCT 4                                             01 
01130040005000000REP       Justice, Supreme Court, Place 4                         OVER VOTES                            PRECINCT 5                                             01 
01130040006000000REP       Justice, Supreme Court, Place 4                         OVER VOTES                            PRECINCT 6                                             01 
01130040007000000REP       Justice, Supreme Court, Place 4                         OVER VOTES                            PRECINCT 7                                             01 
01130040008000000REP       Justice, Supreme Court, Place 4                         OVER VOTES                            PRECINCT 8                                             01 
01130040009000000REP       Justice, Supreme Court, Place 4                         OVER VOTES                            PRECINCT 9                                             01 
01130040010000000REP       Justice, Supreme Court, Place 4                         OVER VOTES                            PRECINCT 10                                            01 
01130040011000000REP       Justice, Supreme Court, Place 4                         OVER VOTES                            PRECINCT 11                                            01 
01130050001000019REP       Justice, Supreme Court, Place 4                         UNDER VOTES                           PRECINCT 1                                             01 
01130050002000005REP       Justice, Supreme Court, Place 4                         UNDER VOTES                           PRECINCT 2                                             01 
01130050003000002REP       Justice, Supreme Court, Place 4                         UNDER VOTES                           PRECINCT 3                                             01 
01130050004000011REP       Justice, Supreme Court, Place 4                         UNDER VOTES                           PRECINCT 4                                             01 
01130050005000006REP       Justice, Supreme Court, Place 4                         UNDER VOTES                           PRECINCT 5                                             01 
01130050006000006REP       Justice, Supreme Court, Place 4                         UNDER VOTES                           PRECINCT 6                                             01 
01130050007000004REP       Justice, Supreme Court, Place 4                         UNDER VOTES                           PRECINCT 7                                             01 
01130050008000019REP       Justice, Supreme Court, Place 4                         UNDER VOTES                           PRECINCT 8                                             01 
01130050009000023REP       Justice, Supreme Court, Place 4                         UNDER VOTES                           PRECINCT 9                                             01 
01130050010000006REP       Justice, Supreme Court, Place 4                         UNDER VOTES                           PRECINCT 10                                            01 
01130050011000001REP       Justice, Supreme Court, Place 4                         UNDER VOTES                           PRECINCT 11                                            01 
01140010001000043REP       Justice, Supreme Court, Place 6                         Nathan Hecht                          PRECINCT 1                                             01 
01140010002000012REP       Justice, Supreme Court, Place 6                         Nathan Hecht                          PRECINCT 2                                             01 
01140010003000009REP       Justice, Supreme Court, Place 6                         Nathan Hecht                          PRECINCT 3                                             01 
01140010004000027REP       Justice, Supreme Court, Place 6                         Nathan Hecht                          PRECINCT 4                                             01 
01140010005000013REP       Justice, Supreme Court, Place 6                         Nathan Hecht                          PRECINCT 5                                             01 
01140010006000009REP       Justice, Supreme Court, Place 6                         Nathan Hecht                          PRECINCT 6                                             01 
01140010007000006REP       Justice, Supreme Court, Place 6                         Nathan Hecht                          PRECINCT 7                                             01 
01140010008000033REP       Justice, Supreme Court, Place 6                         Nathan Hecht                          PRECINCT 8                                             01 
01140010009000064REP       Justice, Supreme Court, Place 6                         Nathan Hecht                          PRECINCT 9                                             01 
01140010010000018REP       Justice, Supreme Court, Place 6                         Nathan Hecht                          PRECINCT 10                                            01 
01140010011000002REP       Justice, Supreme Court, Place 6                         Nathan Hecht                          PRECINCT 11                                            01 
01140020001000000REP       Justice, Supreme Court, Place 6                         OVER VOTES                            PRECINCT 1                                             01 
01140020002000000REP       Justice, Supreme Court, Place 6                         OVER VOTES                            PRECINCT 2                                             01 
01140020003000000REP       Justice, Supreme Court, Place 6                         OVER VOTES                            PRECINCT 3                                             01 
01140020004000000REP       Justice, Supreme Court, Place 6                         OVER VOTES                            PRECINCT 4                                             01 
01140020005000000REP       Justice, Supreme Court, Place 6                         OVER VOTES                            PRECINCT 5                                             01 
01140020006000000REP       Justice, Supreme Court, Place 6                         OVER VOTES                            PRECINCT 6                                             01 
01140020007000000REP       Justice, Supreme Court, Place 6                         OVER VOTES                            PRECINCT 7                                             01 
01140020008000000REP       Justice, Supreme Court, Place 6                         OVER VOTES                            PRECINCT 8                                             01 
01140020009000000REP       Justice, Supreme Court, Place 6                         OVER VOTES                            PRECINCT 9                                             01 
01140020010000000REP       Justice, Supreme Court, Place 6                         OVER VOTES                            PRECINCT 10                                            01 
01140020011000000REP       Justice, Supreme Court, Place 6                         OVER VOTES                            PRECINCT 11                                            01 
01140030001000027REP       Justice, Supreme Court, Place 6                         UNDER VOTES                           PRECINCT 1                                             01 
01140030002000005REP       Justice, Supreme Court, Place 6                         UNDER VOTES                           PRECINCT 2                                             01 
