01070010001000040REP       President SAN JACINTO COUNTYWIDE                        Ron Paul                              Precinct #1                                            01 
01070010002000038REP       President SAN JACINTO COUNTYWIDE                        Ron Paul                              Precinct #2                                            01 
01070010003000020REP       President SAN JACINTO COUNTYWIDE                        Ron Paul                              Precinct #3                                            01 
01070010004000020REP       President SAN JACINTO COUNTYWIDE                        Ron Paul                              Precinct #4                                            01 
01070010005000053REP       President SAN JACINTO COUNTYWIDE                        Ron Paul                              Precinct #5                                            01 
01070010006000040REP       President SAN JACINTO COUNTYWIDE                        Ron Paul                              Precinct #6                                            01 
01070010007000029REP       President SAN JACINTO COUNTYWIDE                        Ron Paul                              Precinct #7                                            01 
01070010008000008REP       President SAN JACINTO COUNTYWIDE                        Ron Paul                              Precinct #8                                            01 
01070010009000015REP       President SAN JACINTO COUNTYWIDE                        Ron Paul                              Precinct #10                                           01 
01070010010000013REP       President SAN JACINTO COUNTYWIDE                        Ron Paul                              Precinct #13                                           01 
01070010011000013REP       President SAN JACINTO COUNTYWIDE                        Ron Paul                              Precinct #14                                           01 
01070020001000001REP       President SAN JACINTO COUNTYWIDE                        Charles "Buddy" Roemer                Precinct #1                                            01 
01070020002000000REP       President SAN JACINTO COUNTYWIDE                        Charles "Buddy" Roemer                Precinct #2                                            01 
01070020003000000REP       President SAN JACINTO COUNTYWIDE                        Charles "Buddy" Roemer                Precinct #3                                            01 
01070020004000000REP       President SAN JACINTO COUNTYWIDE                        Charles "Buddy" Roemer                Precinct #4                                            01 
01070020005000000REP       President SAN JACINTO COUNTYWIDE                        Charles "Buddy" Roemer                Precinct #5                                            01 
01070020006000002REP       President SAN JACINTO COUNTYWIDE                        Charles "Buddy" Roemer                Precinct #6                                            01 
01070020007000001REP       President SAN JACINTO COUNTYWIDE                        Charles "Buddy" Roemer                Precinct #7                                            01 
01070020008000000REP       President SAN JACINTO COUNTYWIDE                        Charles "Buddy" Roemer                Precinct #8                                            01 
01070020009000001REP       President SAN JACINTO COUNTYWIDE                        Charles "Buddy" Roemer                Precinct #10                                           01 
01070020010000000REP       President SAN JACINTO COUNTYWIDE                        Charles "Buddy" Roemer                Precinct #13                                           01 
01070020011000000REP       President SAN JACINTO COUNTYWIDE                        Charles "Buddy" Roemer                Precinct #14                                           01 
01070030001000003REP       President SAN JACINTO COUNTYWIDE                        Michele Bachmann                      Precinct #1                                            01 
01070030002000004REP       President SAN JACINTO COUNTYWIDE                        Michele Bachmann                      Precinct #2                                            01 
01070030003000001REP       President SAN JACINTO COUNTYWIDE                        Michele Bachmann                      Precinct #3                                            01 
01070030004000001REP       President SAN JACINTO COUNTYWIDE                        Michele Bachmann                      Precinct #4                                            01 
01070030005000002REP       President SAN JACINTO COUNTYWIDE                        Michele Bachmann                      Precinct #5                                            01 
01070030006000002REP       President SAN JACINTO COUNTYWIDE                        Michele Bachmann                      Precinct #6                                            01 
01070030007000001REP       President SAN JACINTO COUNTYWIDE                        Michele Bachmann                      Precinct #7                                            01 
01070030008000000REP       President SAN JACINTO COUNTYWIDE                        Michele Bachmann                      Precinct #8                                            01 
01070030009000000REP       President SAN JACINTO COUNTYWIDE                        Michele Bachmann                      Precinct #10                                           01 
01070030010000000REP       President SAN JACINTO COUNTYWIDE                        Michele Bachmann                      Precinct #13                                           01 
01070030011000000REP       President SAN JACINTO COUNTYWIDE                        Michele Bachmann                      Precinct #14                                           01 
01070040001000000REP       President SAN JACINTO COUNTYWIDE                        John Davis                            Precinct #1                                            01 
01070040002000002REP       President SAN JACINTO COUNTYWIDE                        John Davis                            Precinct #2                                            01 
01070040003000002REP       President SAN JACINTO COUNTYWIDE                        John Davis                            Precinct #3                                            01 
01070040004000000REP       President SAN JACINTO COUNTYWIDE                        John Davis                            Precinct #4                                            01 
01070040005000004REP       President SAN JACINTO COUNTYWIDE                        John Davis                            Precinct #5                                            01 
01070040006000006REP       President SAN JACINTO COUNTYWIDE                        John Davis                            Precinct #6                                            01 
01070040007000000REP       President SAN JACINTO COUNTYWIDE                        John Davis                            Precinct #7                                            01 
01070040008000001REP       President SAN JACINTO COUNTYWIDE                        John Davis                            Precinct #8                                            01 
01070040009000002REP       President SAN JACINTO COUNTYWIDE                        John Davis                            Precinct #10                                           01 
01070040010000002REP       President SAN JACINTO COUNTYWIDE                        John Davis                            Precinct #13                                           01 
01070040011000001REP       President SAN JACINTO COUNTYWIDE                        John Davis                            Precinct #14                                           01 
01070050001000216REP       President SAN JACINTO COUNTYWIDE                        Mitt Romney                           Precinct #1                                            01 
01070050002000158REP       President SAN JACINTO COUNTYWIDE                        Mitt Romney                           Precinct #2                                            01 
01070050003000088REP       President SAN JACINTO COUNTYWIDE                        Mitt Romney                           Precinct #3                                            01 
01070050004000073REP       President SAN JACINTO COUNTYWIDE                        Mitt Romney                           Precinct #4                                            01 
01070050005000148REP       President SAN JACINTO COUNTYWIDE                        Mitt Romney                           Precinct #5                                            01 
01070050006000235REP       President SAN JACINTO COUNTYWIDE                        Mitt Romney                           Precinct #6                                            01 
01070050007000181REP       President SAN JACINTO COUNTYWIDE                        Mitt Romney                           Precinct #7                                            01 
01070050008000074REP       President SAN JACINTO COUNTYWIDE                        Mitt Romney                           Precinct #8                                            01 
01070050009000067REP       President SAN JACINTO COUNTYWIDE                        Mitt Romney                           Precinct #10                                           01 
01070050010000059REP       President SAN JACINTO COUNTYWIDE                        Mitt Romney                           Precinct #13                                           01 
01070050011000045REP       President SAN JACINTO COUNTYWIDE                        Mitt Romney                           Precinct #14                                           01 
01070060001000000REP       President SAN JACINTO COUNTYWIDE                        Jon Huntsman                          Precinct #1                                            01 
01070060002000000REP       President SAN JACINTO COUNTYWIDE                        Jon Huntsman                          Precinct #2                                            01 
01070060003000001REP       President SAN JACINTO COUNTYWIDE                        Jon Huntsman                          Precinct #3                                            01 
01070060004000000REP       President SAN JACINTO COUNTYWIDE                        Jon Huntsman                          Precinct #4                                            01 
01070060005000001REP       President SAN JACINTO COUNTYWIDE                        Jon Huntsman                          Precinct #5                                            01 
01070060006000002REP       President SAN JACINTO COUNTYWIDE                        Jon Huntsman                          Precinct #6                                            01 
01070060007000001REP       President SAN JACINTO COUNTYWIDE                        Jon Huntsman                          Precinct #7                                            01 
01070060008000000REP       President SAN JACINTO COUNTYWIDE                        Jon Huntsman                          Precinct #8                                            01 
01070060009000002REP       President SAN JACINTO COUNTYWIDE                        Jon Huntsman                          Precinct #10                                           01 
01070060010000000REP       President SAN JACINTO COUNTYWIDE                        Jon Huntsman                          Precinct #13                                           01 
01070060011000001REP       President SAN JACINTO COUNTYWIDE                        Jon Huntsman                          Precinct #14                                           01 
01070070001000016REP       President SAN JACINTO COUNTYWIDE                        Newt Gingrich                         Precinct #1                                            01 
01070070002000013REP       President SAN JACINTO COUNTYWIDE                        Newt Gingrich                         Precinct #2                                            01 
01070070003000006REP       President SAN JACINTO COUNTYWIDE                        Newt Gingrich                         Precinct #3                                            01 
01070070004000006REP       President SAN JACINTO COUNTYWIDE                        Newt Gingrich                         Precinct #4                                            01 
01070070005000017REP       President SAN JACINTO COUNTYWIDE                        Newt Gingrich                         Precinct #5                                            01 
01070070006000009REP       President SAN JACINTO COUNTYWIDE                        Newt Gingrich                         Precinct #6                                            01 
01070070007000015REP       President SAN JACINTO COUNTYWIDE                        Newt Gingrich                         Precinct #7                                            01 
01070070008000006REP       President SAN JACINTO COUNTYWIDE                        Newt Gingrich                         Precinct #8                                            01 
01070070009000003REP       President SAN JACINTO COUNTYWIDE                        Newt Gingrich                         Precinct #10                                           01 
01070070010000002REP       President SAN JACINTO COUNTYWIDE                        Newt Gingrich                         Precinct #13                                           01 
01070070011000002REP       President SAN JACINTO COUNTYWIDE                        Newt Gingrich                         Precinct #14                                           01 
01070080001000025REP       President SAN JACINTO COUNTYWIDE                        Rick Santorum                         Precinct #1                                            01 
01070080002000024REP       President SAN JACINTO COUNTYWIDE                        Rick Santorum                         Precinct #2                                            01 
01070080003000006REP       President SAN JACINTO COUNTYWIDE                        Rick Santorum                         Precinct #3                                            01 
01070080004000014REP       President SAN JACINTO COUNTYWIDE                        Rick Santorum                         Precinct #4                                            01 
01070080005000016REP       President SAN JACINTO COUNTYWIDE                        Rick Santorum                         Precinct #5                                            01 
01070080006000016REP       President SAN JACINTO COUNTYWIDE                        Rick Santorum                         Precinct #6                                            01 
01070080007000017REP       President SAN JACINTO COUNTYWIDE                        Rick Santorum                         Precinct #7                                            01 
01070080008000006REP       President SAN JACINTO COUNTYWIDE                        Rick Santorum                         Precinct #8                                            01 
01070080009000007REP       President SAN JACINTO COUNTYWIDE                        Rick Santorum                         Precinct #10                                           01 
01070080010000007REP       President SAN JACINTO COUNTYWIDE                        Rick Santorum                         Precinct #13                                           01 
01070080011000009REP       President SAN JACINTO COUNTYWIDE                        Rick Santorum                         Precinct #14                                           01 
01070090001000008REP       President SAN JACINTO COUNTYWIDE                        Uncommitted                           Precinct #1                                            01 
01070090002000006REP       President SAN JACINTO COUNTYWIDE                        Uncommitted                           Precinct #2                                            01 
01070090003000005REP       President SAN JACINTO COUNTYWIDE                        Uncommitted                           Precinct #3                                            01 
01070090004000005REP       President SAN JACINTO COUNTYWIDE                        Uncommitted                           Precinct #4                                            01 
01070090005000006REP       President SAN JACINTO COUNTYWIDE                        Uncommitted                           Precinct #5                                            01 
01070090006000003REP       President SAN JACINTO COUNTYWIDE                        Uncommitted                           Precinct #6                                            01 
01070090007000009REP       President SAN JACINTO COUNTYWIDE                        Uncommitted                           Precinct #7                                            01 
01070090008000000REP       President SAN JACINTO COUNTYWIDE                        Uncommitted                           Precinct #8                                            01 
01070090009000008REP       President SAN JACINTO COUNTYWIDE                        Uncommitted                           Precinct #10                                           01 
01070090010000002REP       President SAN JACINTO COUNTYWIDE                        Uncommitted                           Precinct #13                                           01 
01070090011000003REP       President SAN JACINTO COUNTYWIDE                        Uncommitted                           Precinct #14                                           01 
01070100001000000REP       President SAN JACINTO COUNTYWIDE                        OVER VOTES                            Precinct #1                                            01 
01070100002000000REP       President SAN JACINTO COUNTYWIDE                        OVER VOTES                            Precinct #2                                            01 
01070100003000000REP       President SAN JACINTO COUNTYWIDE                        OVER VOTES                            Precinct #3                                            01 
01070100004000000REP       President SAN JACINTO COUNTYWIDE                        OVER VOTES                            Precinct #4                                            01 
01070100005000000REP       President SAN JACINTO COUNTYWIDE                        OVER VOTES                            Precinct #5                                            01 
01070100006000000REP       President SAN JACINTO COUNTYWIDE                        OVER VOTES                            Precinct #6                                            01 
01070100007000000REP       President SAN JACINTO COUNTYWIDE                        OVER VOTES                            Precinct #7                                            01 
01070100008000000REP       President SAN JACINTO COUNTYWIDE                        OVER VOTES                            Precinct #8                                            01 
01070100009000000REP       President SAN JACINTO COUNTYWIDE                        OVER VOTES                            Precinct #10                                           01 
01070100010000000REP       President SAN JACINTO COUNTYWIDE                        OVER VOTES                            Precinct #13                                           01 
01070100011000000REP       President SAN JACINTO COUNTYWIDE                        OVER VOTES                            Precinct #14                                           01 
01070110001000006REP       President SAN JACINTO COUNTYWIDE                        UNDER VOTES                           Precinct #1                                            01 
01070110002000004REP       President SAN JACINTO COUNTYWIDE                        UNDER VOTES                           Precinct #2                                            01 
01070110003000005REP       President SAN JACINTO COUNTYWIDE                        UNDER VOTES                           Precinct #3                                            01 
01070110004000001REP       President SAN JACINTO COUNTYWIDE                        UNDER VOTES                           Precinct #4                                            01 
01070110005000003REP       President SAN JACINTO COUNTYWIDE                        UNDER VOTES                           Precinct #5                                            01 
01070110006000002REP       President SAN JACINTO COUNTYWIDE                        UNDER VOTES                           Precinct #6                                            01 
01070110007000001REP       President SAN JACINTO COUNTYWIDE                        UNDER VOTES                           Precinct #7                                            01 
01070110008000001REP       President SAN JACINTO COUNTYWIDE                        UNDER VOTES                           Precinct #8                                            01 
01070110009000005REP       President SAN JACINTO COUNTYWIDE                        UNDER VOTES                           Precinct #10                                           01 
01070110010000000REP       President SAN JACINTO COUNTYWIDE                        UNDER VOTES                           Precinct #13                                           01 
01070110011000001REP       President SAN JACINTO COUNTYWIDE                        UNDER VOTES                           Precinct #14                                           01 
01080010001000132REP       United States Senator SAN JACINTO COUNTYWIDE            Ted Cruz                              Precinct #1                                            01 
01080010002000096REP       United States Senator SAN JACINTO COUNTYWIDE            Ted Cruz                              Precinct #2                                            01 
01080010003000046REP       United States Senator SAN JACINTO COUNTYWIDE            Ted Cruz                              Precinct #3                                            01 
01080010004000038REP       United States Senator SAN JACINTO COUNTYWIDE            Ted Cruz                              Precinct #4                                            01 
01080010005000103REP       United States Senator SAN JACINTO COUNTYWIDE            Ted Cruz                              Precinct #5                                            01 
01080010006000098REP       United States Senator SAN JACINTO COUNTYWIDE            Ted Cruz                              Precinct #6                                            01 
01080010007000071REP       United States Senator SAN JACINTO COUNTYWIDE            Ted Cruz                              Precinct #7                                            01 
01080010008000030REP       United States Senator SAN JACINTO COUNTYWIDE            Ted Cruz                              Precinct #8                                            01 
01080010009000038REP       United States Senator SAN JACINTO COUNTYWIDE            Ted Cruz                              Precinct #10                                           01 
01080010010000025REP       United States Senator SAN JACINTO COUNTYWIDE            Ted Cruz                              Precinct #13                                           01 
01080010011000026REP       United States Senator SAN JACINTO COUNTYWIDE            Ted Cruz                              Precinct #14                                           01 
01080020001000002REP       United States Senator SAN JACINTO COUNTYWIDE            Joe Agris                             Precinct #1                                            01 
01080020002000000REP       United States Senator SAN JACINTO COUNTYWIDE            Joe Agris                             Precinct #2                                            01 
01080020003000001REP       United States Senator SAN JACINTO COUNTYWIDE            Joe Agris                             Precinct #3                                            01 
01080020004000000REP       United States Senator SAN JACINTO COUNTYWIDE            Joe Agris                             Precinct #4                                            01 
01080020005000000REP       United States Senator SAN JACINTO COUNTYWIDE            Joe Agris                             Precinct #5                                            01 
01080020006000001REP       United States Senator SAN JACINTO COUNTYWIDE            Joe Agris                             Precinct #6                                            01 
01080020007000000REP       United States Senator SAN JACINTO COUNTYWIDE            Joe Agris                             Precinct #7                                            01 
01080020008000000REP       United States Senator SAN JACINTO COUNTYWIDE            Joe Agris                             Precinct #8                                            01 
01080020009000001REP       United States Senator SAN JACINTO COUNTYWIDE            Joe Agris                             Precinct #10                                           01 
01080020010000002REP       United States Senator SAN JACINTO COUNTYWIDE            Joe Agris                             Precinct #13                                           01 
01080020011000001REP       United States Senator SAN JACINTO COUNTYWIDE            Joe Agris                             Precinct #14                                           01 
01080030001000011REP       United States Senator SAN JACINTO COUNTYWIDE            Craig James                           Precinct #1                                            01 
01080030002000005REP       United States Senator SAN JACINTO COUNTYWIDE            Craig James                           Precinct #2                                            01 
01080030003000004REP       United States Senator SAN JACINTO COUNTYWIDE            Craig James                           Precinct #3                                            01 
01080030004000005REP       United States Senator SAN JACINTO COUNTYWIDE            Craig James                           Precinct #4                                            01 
01080030005000010REP       United States Senator SAN JACINTO COUNTYWIDE            Craig James                           Precinct #5                                            01 
01080030006000011REP       United States Senator SAN JACINTO COUNTYWIDE            Craig James                           Precinct #6                                            01 
01080030007000010REP       United States Senator SAN JACINTO COUNTYWIDE            Craig James                           Precinct #7                                            01 
01080030008000003REP       United States Senator SAN JACINTO COUNTYWIDE            Craig James                           Precinct #8                                            01 
01080030009000007REP       United States Senator SAN JACINTO COUNTYWIDE            Craig James                           Precinct #10                                           01 
01080030010000002REP       United States Senator SAN JACINTO COUNTYWIDE            Craig James                           Precinct #13                                           01 
01080030011000002REP       United States Senator SAN JACINTO COUNTYWIDE            Craig James                           Precinct #14                                           01 
01080040001000001REP       United States Senator SAN JACINTO COUNTYWIDE            Curt Cleaver                          Precinct #1                                            01 
01080040002000004REP       United States Senator SAN JACINTO COUNTYWIDE            Curt Cleaver                          Precinct #2                                            01 
01080040003000000REP       United States Senator SAN JACINTO COUNTYWIDE            Curt Cleaver                          Precinct #3                                            01 
01080040004000000REP       United States Senator SAN JACINTO COUNTYWIDE            Curt Cleaver                          Precinct #4                                            01 
01080040005000001REP       United States Senator SAN JACINTO COUNTYWIDE            Curt Cleaver                          Precinct #5                                            01 
01080040006000001REP       United States Senator SAN JACINTO COUNTYWIDE            Curt Cleaver                          Precinct #6                                            01 
01080040007000002REP       United States Senator SAN JACINTO COUNTYWIDE            Curt Cleaver                          Precinct #7                                            01 
01080040008000000REP       United States Senator SAN JACINTO COUNTYWIDE            Curt Cleaver                          Precinct #8                                            01 
01080040009000001REP       United States Senator SAN JACINTO COUNTYWIDE            Curt Cleaver                          Precinct #10                                           01 
01080040010000000REP       United States Senator SAN JACINTO COUNTYWIDE            Curt Cleaver                          Precinct #13                                           01 
01080040011000000REP       United States Senator SAN JACINTO COUNTYWIDE            Curt Cleaver                          Precinct #14                                           01 
01080050001000009REP       United States Senator SAN JACINTO COUNTYWIDE            Lela Pittenger                        Precinct #1                                            01 
01080050002000004REP       United States Senator SAN JACINTO COUNTYWIDE            Lela Pittenger                        Precinct #2                                            01 
01080050003000005REP       United States Senator SAN JACINTO COUNTYWIDE            Lela Pittenger                        Precinct #3                                            01 
01080050004000000REP       United States Senator SAN JACINTO COUNTYWIDE            Lela Pittenger                        Precinct #4                                            01 
01080050005000004REP       United States Senator SAN JACINTO COUNTYWIDE            Lela Pittenger                        Precinct #5                                            01 
01080050006000009REP       United States Senator SAN JACINTO COUNTYWIDE            Lela Pittenger                        Precinct #6                                            01 
01080050007000005REP       United States Senator SAN JACINTO COUNTYWIDE            Lela Pittenger                        Precinct #7                                            01 
01080050008000002REP       United States Senator SAN JACINTO COUNTYWIDE            Lela Pittenger                        Precinct #8                                            01 
01080050009000000REP       United States Senator SAN JACINTO COUNTYWIDE            Lela Pittenger                        Precinct #10                                           01 
01080050010000000REP       United States Senator SAN JACINTO COUNTYWIDE            Lela Pittenger                        Precinct #13                                           01 
01080050011000000REP       United States Senator SAN JACINTO COUNTYWIDE            Lela Pittenger                        Precinct #14                                           01 
01080060001000008REP       United States Senator SAN JACINTO COUNTYWIDE            Glenn Addison                         Precinct #1                                            01 
01080060002000009REP       United States Senator SAN JACINTO COUNTYWIDE            Glenn Addison                         Precinct #2                                            01 
01080060003000004REP       United States Senator SAN JACINTO COUNTYWIDE            Glenn Addison                         Precinct #3                                            01 
01080060004000005REP       United States Senator SAN JACINTO COUNTYWIDE            Glenn Addison                         Precinct #4                                            01 
01080060005000003REP       United States Senator SAN JACINTO COUNTYWIDE            Glenn Addison                         Precinct #5                                            01 
01080060006000002REP       United States Senator SAN JACINTO COUNTYWIDE            Glenn Addison                         Precinct #6                                            01 
01080060007000001REP       United States Senator SAN JACINTO COUNTYWIDE            Glenn Addison                         Precinct #7                                            01 
01080060008000001REP       United States Senator SAN JACINTO COUNTYWIDE            Glenn Addison                         Precinct #8                                            01 
01080060009000002REP       United States Senator SAN JACINTO COUNTYWIDE            Glenn Addison                         Precinct #10                                           01 
01080060010000002REP       United States Senator SAN JACINTO COUNTYWIDE            Glenn Addison                         Precinct #13                                           01 
01080060011000000REP       United States Senator SAN JACINTO COUNTYWIDE            Glenn Addison                         Precinct #14                                           01 
01080070001000123REP       United States Senator SAN JACINTO COUNTYWIDE            David Dewhurst                        Precinct #1                                            01 
01080070002000105REP       United States Senator SAN JACINTO COUNTYWIDE            David Dewhurst                        Precinct #2                                            01 
01080070003000058REP       United States Senator SAN JACINTO COUNTYWIDE            David Dewhurst                        Precinct #3                                            01 
01080070004000058REP       United States Senator SAN JACINTO COUNTYWIDE            David Dewhurst                        Precinct #4                                            01 
01080070005000108REP       United States Senator SAN JACINTO COUNTYWIDE            David Dewhurst                        Precinct #5                                            01 
01080070006000169REP       United States Senator SAN JACINTO COUNTYWIDE            David Dewhurst                        Precinct #6                                            01 
01080070007000132REP       United States Senator SAN JACINTO COUNTYWIDE            David Dewhurst                        Precinct #7                                            01 
01080070008000048REP       United States Senator SAN JACINTO COUNTYWIDE            David Dewhurst                        Precinct #8                                            01 
01080070009000048REP       United States Senator SAN JACINTO COUNTYWIDE            David Dewhurst                        Precinct #10                                           01 
01080070010000039REP       United States Senator SAN JACINTO COUNTYWIDE            David Dewhurst                        Precinct #13                                           01 
01080070011000032REP       United States Senator SAN JACINTO COUNTYWIDE            David Dewhurst                        Precinct #14                                           01 
01080080001000002REP       United States Senator SAN JACINTO COUNTYWIDE            Ben Gambini                           Precinct #1                                            01 
01080080002000002REP       United States Senator SAN JACINTO COUNTYWIDE            Ben Gambini                           Precinct #2                                            01 
01080080003000000REP       United States Senator SAN JACINTO COUNTYWIDE            Ben Gambini                           Precinct #3                                            01 
01080080004000002REP       United States Senator SAN JACINTO COUNTYWIDE            Ben Gambini                           Precinct #4                                            01 
01080080005000001REP       United States Senator SAN JACINTO COUNTYWIDE            Ben Gambini                           Precinct #5                                            01 
01080080006000000REP       United States Senator SAN JACINTO COUNTYWIDE            Ben Gambini                           Precinct #6                                            01 
01080080007000000REP       United States Senator SAN JACINTO COUNTYWIDE            Ben Gambini                           Precinct #7                                            01 
01080080008000001REP       United States Senator SAN JACINTO COUNTYWIDE            Ben Gambini                           Precinct #8                                            01 
01080080009000001REP       United States Senator SAN JACINTO COUNTYWIDE            Ben Gambini                           Precinct #10                                           01 
01080080010000000REP       United States Senator SAN JACINTO COUNTYWIDE            Ben Gambini                           Precinct #13                                           01 
01080080011000002REP       United States Senator SAN JACINTO COUNTYWIDE            Ben Gambini                           Precinct #14                                           01 
01080090001000017REP       United States Senator SAN JACINTO COUNTYWIDE            Tom Leppert                           Precinct #1                                            01 
01080090002000013REP       United States Senator SAN JACINTO COUNTYWIDE            Tom Leppert                           Precinct #2                                            01 
01080090003000010REP       United States Senator SAN JACINTO COUNTYWIDE            Tom Leppert                           Precinct #3                                            01 
01080090004000005REP       United States Senator SAN JACINTO COUNTYWIDE            Tom Leppert                           Precinct #4                                            01 
01080090005000013REP       United States Senator SAN JACINTO COUNTYWIDE            Tom Leppert                           Precinct #5                                            01 
01080090006000016REP       United States Senator SAN JACINTO COUNTYWIDE            Tom Leppert                           Precinct #6                                            01 
01080090007000026REP       United States Senator SAN JACINTO COUNTYWIDE            Tom Leppert                           Precinct #7                                            01 
01080090008000009REP       United States Senator SAN JACINTO COUNTYWIDE            Tom Leppert                           Precinct #8                                            01 
01080090009000001REP       United States Senator SAN JACINTO COUNTYWIDE            Tom Leppert                           Precinct #10                                           01 
01080090010000009REP       United States Senator SAN JACINTO COUNTYWIDE            Tom Leppert                           Precinct #13                                           01 
01080090011000008REP       United States Senator SAN JACINTO COUNTYWIDE            Tom Leppert                           Precinct #14                                           01 
01080100001000000REP       United States Senator SAN JACINTO COUNTYWIDE            OVER VOTES                            Precinct #1                                            01 
01080100002000000REP       United States Senator SAN JACINTO COUNTYWIDE            OVER VOTES                            Precinct #2                                            01 
01080100003000000REP       United States Senator SAN JACINTO COUNTYWIDE            OVER VOTES                            Precinct #3                                            01 
01080100004000000REP       United States Senator SAN JACINTO COUNTYWIDE            OVER VOTES                            Precinct #4                                            01 
01080100005000000REP       United States Senator SAN JACINTO COUNTYWIDE            OVER VOTES                            Precinct #5                                            01 
01080100006000000REP       United States Senator SAN JACINTO COUNTYWIDE            OVER VOTES                            Precinct #6                                            01 
01080100007000000REP       United States Senator SAN JACINTO COUNTYWIDE            OVER VOTES                            Precinct #7                                            01 
01080100008000000REP       United States Senator SAN JACINTO COUNTYWIDE            OVER VOTES                            Precinct #8                                            01 
01080100009000000REP       United States Senator SAN JACINTO COUNTYWIDE            OVER VOTES                            Precinct #10                                           01 
01080100010000000REP       United States Senator SAN JACINTO COUNTYWIDE            OVER VOTES                            Precinct #13                                           01 
01080100011000000REP       United States Senator SAN JACINTO COUNTYWIDE            OVER VOTES                            Precinct #14                                           01 
01080110001000010REP       United States Senator SAN JACINTO COUNTYWIDE            UNDER VOTES                           Precinct #1                                            01 
01080110002000011REP       United States Senator SAN JACINTO COUNTYWIDE            UNDER VOTES                           Precinct #2                                            01 
01080110003000006REP       United States Senator SAN JACINTO COUNTYWIDE            UNDER VOTES                           Precinct #3                                            01 
01080110004000007REP       United States Senator SAN JACINTO COUNTYWIDE            UNDER VOTES                           Precinct #4                                            01 
01080110005000007REP       United States Senator SAN JACINTO COUNTYWIDE            UNDER VOTES                           Precinct #5                                            01 
01080110006000010REP       United States Senator SAN JACINTO COUNTYWIDE            UNDER VOTES                           Precinct #6                                            01 
01080110007000008REP       United States Senator SAN JACINTO COUNTYWIDE            UNDER VOTES                           Precinct #7                                            01 
01080110008000002REP       United States Senator SAN JACINTO COUNTYWIDE            UNDER VOTES                           Precinct #8                                            01 
01080110009000011REP       United States Senator SAN JACINTO COUNTYWIDE            UNDER VOTES                           Precinct #10                                           01 
01080110010000006REP       United States Senator SAN JACINTO COUNTYWIDE            UNDER VOTES                           Precinct #13                                           01 
01080110011000004REP       United States Senator SAN JACINTO COUNTYWIDE            UNDER VOTES                           Precinct #14                                           01 
01090010001000222REP       US Representative, District 8 SAN JACINTO COUNTYWIDE    Kevin Brady                           Precinct #1                                            01 
01090010002000191REP       US Representative, District 8 SAN JACINTO COUNTYWIDE    Kevin Brady                           Precinct #2                                            01 
01090010003000104REP       US Representative, District 8 SAN JACINTO COUNTYWIDE    Kevin Brady                           Precinct #3                                            01 
01090010004000092REP       US Representative, District 8 SAN JACINTO COUNTYWIDE    Kevin Brady                           Precinct #4                                            01 
01090010005000168REP       US Representative, District 8 SAN JACINTO COUNTYWIDE    Kevin Brady                           Precinct #5                                            01 
01090010006000241REP       US Representative, District 8 SAN JACINTO COUNTYWIDE    Kevin Brady                           Precinct #6                                            01 
01090010007000193REP       US Representative, District 8 SAN JACINTO COUNTYWIDE    Kevin Brady                           Precinct #7                                            01 
01090010008000070REP       US Representative, District 8 SAN JACINTO COUNTYWIDE    Kevin Brady                           Precinct #8                                            01 
01090010009000066REP       US Representative, District 8 SAN JACINTO COUNTYWIDE    Kevin Brady                           Precinct #10                                           01 
01090010010000068REP       US Representative, District 8 SAN JACINTO COUNTYWIDE    Kevin Brady                           Precinct #13                                           01 
01090010011000051REP       US Representative, District 8 SAN JACINTO COUNTYWIDE    Kevin Brady                           Precinct #14                                           01 
01090020001000066REP       US Representative, District 8 SAN JACINTO COUNTYWIDE    Larry Youngblood                      Precinct #1                                            01 
01090020002000037REP       US Representative, District 8 SAN JACINTO COUNTYWIDE    Larry Youngblood                      Precinct #2                                            01 
01090020003000018REP       US Representative, District 8 SAN JACINTO COUNTYWIDE    Larry Youngblood                      Precinct #3                                            01 
01090020004000018REP       US Representative, District 8 SAN JACINTO COUNTYWIDE    Larry Youngblood                      Precinct #4                                            01 
01090020005000062REP       US Representative, District 8 SAN JACINTO COUNTYWIDE    Larry Youngblood                      Precinct #5                                            01 
01090020006000061REP       US Representative, District 8 SAN JACINTO COUNTYWIDE    Larry Youngblood                      Precinct #6                                            01 
01090020007000050REP       US Representative, District 8 SAN JACINTO COUNTYWIDE    Larry Youngblood                      Precinct #7                                            01 
01090020008000018REP       US Representative, District 8 SAN JACINTO COUNTYWIDE    Larry Youngblood                      Precinct #8                                            01 
01090020009000027REP       US Representative, District 8 SAN JACINTO COUNTYWIDE    Larry Youngblood                      Precinct #10                                           01 
01090020010000013REP       US Representative, District 8 SAN JACINTO COUNTYWIDE    Larry Youngblood                      Precinct #13                                           01 
01090020011000022REP       US Representative, District 8 SAN JACINTO COUNTYWIDE    Larry Youngblood                      Precinct #14                                           01 
01090030001000000REP       US Representative, District 8 SAN JACINTO COUNTYWIDE    OVER VOTES                            Precinct #1                                            01 
01090030002000000REP       US Representative, District 8 SAN JACINTO COUNTYWIDE    OVER VOTES                            Precinct #2                                            01 
01090030003000000REP       US Representative, District 8 SAN JACINTO COUNTYWIDE    OVER VOTES                            Precinct #3                                            01 
01090030004000000REP       US Representative, District 8 SAN JACINTO COUNTYWIDE    OVER VOTES                            Precinct #4                                            01 
01090030005000000REP       US Representative, District 8 SAN JACINTO COUNTYWIDE    OVER VOTES                            Precinct #5                                            01 
01090030006000000REP       US Representative, District 8 SAN JACINTO COUNTYWIDE    OVER VOTES                            Precinct #6                                            01 
01090030007000000REP       US Representative, District 8 SAN JACINTO COUNTYWIDE    OVER VOTES                            Precinct #7                                            01 
01090030008000000REP       US Representative, District 8 SAN JACINTO COUNTYWIDE    OVER VOTES                            Precinct #8                                            01 
01090030009000000REP       US Representative, District 8 SAN JACINTO COUNTYWIDE    OVER VOTES                            Precinct #10                                           01 
01090030010000000REP       US Representative, District 8 SAN JACINTO COUNTYWIDE    OVER VOTES                            Precinct #13                                           01 
01090030011000000REP       US Representative, District 8 SAN JACINTO COUNTYWIDE    OVER VOTES                            Precinct #14                                           01 
01090040001000027REP       US Representative, District 8 SAN JACINTO COUNTYWIDE    UNDER VOTES                           Precinct #1                                            01 
01090040002000021REP       US Representative, District 8 SAN JACINTO COUNTYWIDE    UNDER VOTES                           Precinct #2                                            01 
01090040003000012REP       US Representative, District 8 SAN JACINTO COUNTYWIDE    UNDER VOTES                           Precinct #3                                            01 
01090040004000010REP       US Representative, District 8 SAN JACINTO COUNTYWIDE    UNDER VOTES                           Precinct #4                                            01 
01090040005000020REP       US Representative, District 8 SAN JACINTO COUNTYWIDE    UNDER VOTES                           Precinct #5                                            01 
01090040006000015REP       US Representative, District 8 SAN JACINTO COUNTYWIDE    UNDER VOTES                           Precinct #6                                            01 
01090040007000012REP       US Representative, District 8 SAN JACINTO COUNTYWIDE    UNDER VOTES                           Precinct #7                                            01 
01090040008000008REP       US Representative, District 8 SAN JACINTO COUNTYWIDE    UNDER VOTES                           Precinct #8                                            01 
01090040009000017REP       US Representative, District 8 SAN JACINTO COUNTYWIDE    UNDER VOTES                           Precinct #10                                           01 
01090040010000004REP       US Representative, District 8 SAN JACINTO COUNTYWIDE    UNDER VOTES                           Precinct #13                                           01 
01090040011000002REP       US Representative, District 8 SAN JACINTO COUNTYWIDE    UNDER VOTES                           Precinct #14                                           01 
01100010001000041REP       Railroad Commissioner SAN JACINTO COUNTYWIDE            Becky Berger                          Precinct #1                                            01 
01100010002000038REP       Railroad Commissioner SAN JACINTO COUNTYWIDE            Becky Berger                          Precinct #2                                            01 
01100010003000013REP       Railroad Commissioner SAN JACINTO COUNTYWIDE            Becky Berger                          Precinct #3                                            01 
01100010004000011REP       Railroad Commissioner SAN JACINTO COUNTYWIDE            Becky Berger                          Precinct #4                                            01 
01100010005000029REP       Railroad Commissioner SAN JACINTO COUNTYWIDE            Becky Berger                          Precinct #5                                            01 
01100010006000033REP       Railroad Commissioner SAN JACINTO COUNTYWIDE            Becky Berger                          Precinct #6                                            01 
01100010007000026REP       Railroad Commissioner SAN JACINTO COUNTYWIDE            Becky Berger                          Precinct #7                                            01 
01100010008000015REP       Railroad Commissioner SAN JACINTO COUNTYWIDE            Becky Berger                          Precinct #8                                            01 
01100010009000016REP       Railroad Commissioner SAN JACINTO COUNTYWIDE            Becky Berger                          Precinct #10                                           01 
01100010010000012REP       Railroad Commissioner SAN JACINTO COUNTYWIDE            Becky Berger                          Precinct #13                                           01 
01100010011000009REP       Railroad Commissioner SAN JACINTO COUNTYWIDE            Becky Berger                          Precinct #14                                           01 
01100020001000099REP       Railroad Commissioner SAN JACINTO COUNTYWIDE            Christi Craddick                      Precinct #1                                            01 
01100020002000070REP       Railroad Commissioner SAN JACINTO COUNTYWIDE            Christi Craddick                      Precinct #2                                            01 
01100020003000037REP       Railroad Commissioner SAN JACINTO COUNTYWIDE            Christi Craddick                      Precinct #3                                            01 
01100020004000031REP       Railroad Commissioner SAN JACINTO COUNTYWIDE            Christi Craddick                      Precinct #4                                            01 
01100020005000076REP       Railroad Commissioner SAN JACINTO COUNTYWIDE            Christi Craddick                      Precinct #5                                            01 
01100020006000104REP       Railroad Commissioner SAN JACINTO COUNTYWIDE            Christi Craddick                      Precinct #6                                            01 
01100020007000102REP       Railroad Commissioner SAN JACINTO COUNTYWIDE            Christi Craddick                      Precinct #7                                            01 
01100020008000033REP       Railroad Commissioner SAN JACINTO COUNTYWIDE            Christi Craddick                      Precinct #8                                            01 
01100020009000028REP       Railroad Commissioner SAN JACINTO COUNTYWIDE            Christi Craddick                      Precinct #10                                           01 
01100020010000018REP       Railroad Commissioner SAN JACINTO COUNTYWIDE            Christi Craddick                      Precinct #13                                           01 
01100020011000031REP       Railroad Commissioner SAN JACINTO COUNTYWIDE            Christi Craddick                      Precinct #14                                           01 
01100030001000043REP       Railroad Commissioner SAN JACINTO COUNTYWIDE            Joe Cotten                            Precinct #1                                            01 
01100030002000031REP       Railroad Commissioner SAN JACINTO COUNTYWIDE            Joe Cotten                            Precinct #2                                            01 
01100030003000020REP       Railroad Commissioner SAN JACINTO COUNTYWIDE            Joe Cotten                            Precinct #3                                            01 
01100030004000019REP       Railroad Commissioner SAN JACINTO COUNTYWIDE            Joe Cotten                            Precinct #4                                            01 
01100030005000030REP       Railroad Commissioner SAN JACINTO COUNTYWIDE            Joe Cotten                            Precinct #5                                            01 
01100030006000029REP       Railroad Commissioner SAN JACINTO COUNTYWIDE            Joe Cotten                            Precinct #6                                            01 
01100030007000027REP       Railroad Commissioner SAN JACINTO COUNTYWIDE            Joe Cotten                            Precinct #7                                            01 
01100030008000010REP       Railroad Commissioner SAN JACINTO COUNTYWIDE            Joe Cotten                            Precinct #8                                            01 
01100030009000016REP       Railroad Commissioner SAN JACINTO COUNTYWIDE            Joe Cotten                            Precinct #10                                           01 
01100030010000006REP       Railroad Commissioner SAN JACINTO COUNTYWIDE            Joe Cotten                            Precinct #13                                           01 
01100030011000008REP       Railroad Commissioner SAN JACINTO COUNTYWIDE            Joe Cotten                            Precinct #14                                           01 
01100040001000036REP       Railroad Commissioner SAN JACINTO COUNTYWIDE            Warren Chisum                         Precinct #1                                            01 
01100040002000033REP       Railroad Commissioner SAN JACINTO COUNTYWIDE            Warren Chisum                         Precinct #2                                            01 
01100040003000020REP       Railroad Commissioner SAN JACINTO COUNTYWIDE            Warren Chisum                         Precinct #3                                            01 
01100040004000013REP       Railroad Commissioner SAN JACINTO COUNTYWIDE            Warren Chisum                         Precinct #4                                            01 
01100040005000042REP       Railroad Commissioner SAN JACINTO COUNTYWIDE            Warren Chisum                         Precinct #5                                            01 
01100040006000044REP       Railroad Commissioner SAN JACINTO COUNTYWIDE            Warren Chisum                         Precinct #6                                            01 
01100040007000026REP       Railroad Commissioner SAN JACINTO COUNTYWIDE            Warren Chisum                         Precinct #7                                            01 
01100040008000014REP       Railroad Commissioner SAN JACINTO COUNTYWIDE            Warren Chisum                         Precinct #8                                            01 
01100040009000010REP       Railroad Commissioner SAN JACINTO COUNTYWIDE            Warren Chisum                         Precinct #10                                           01 
01100040010000017REP       Railroad Commissioner SAN JACINTO COUNTYWIDE            Warren Chisum                         Precinct #13                                           01 
01100040011000007REP       Railroad Commissioner SAN JACINTO COUNTYWIDE            Warren Chisum                         Precinct #14                                           01 
01100050001000006REP       Railroad Commissioner SAN JACINTO COUNTYWIDE            Beryl Burgess                         Precinct #1                                            01 
01100050002000010REP       Railroad Commissioner SAN JACINTO COUNTYWIDE            Beryl Burgess                         Precinct #2                                            01 
01100050003000008REP       Railroad Commissioner SAN JACINTO COUNTYWIDE            Beryl Burgess                         Precinct #3                                            01 
01100050004000004REP       Railroad Commissioner SAN JACINTO COUNTYWIDE            Beryl Burgess                         Precinct #4                                            01 
01100050005000010REP       Railroad Commissioner SAN JACINTO COUNTYWIDE            Beryl Burgess                         Precinct #5                                            01 
01100050006000012REP       Railroad Commissioner SAN JACINTO COUNTYWIDE            Beryl Burgess                         Precinct #6                                            01 
01100050007000008REP       Railroad Commissioner SAN JACINTO COUNTYWIDE            Beryl Burgess                         Precinct #7                                            01 
01100050008000002REP       Railroad Commissioner SAN JACINTO COUNTYWIDE            Beryl Burgess                         Precinct #8                                            01 
01100050009000005REP       Railroad Commissioner SAN JACINTO COUNTYWIDE            Beryl Burgess                         Precinct #10                                           01 
01100050010000002REP       Railroad Commissioner SAN JACINTO COUNTYWIDE            Beryl Burgess                         Precinct #13                                           01 
01100050011000004REP       Railroad Commissioner SAN JACINTO COUNTYWIDE            Beryl Burgess                         Precinct #14                                           01 
01100060001000035REP       Railroad Commissioner SAN JACINTO COUNTYWIDE            Roland Sledge                         Precinct #1                                            01 
01100060002000028REP       Railroad Commissioner SAN JACINTO COUNTYWIDE            Roland Sledge                         Precinct #2                                            01 
01100060003000009REP       Railroad Commissioner SAN JACINTO COUNTYWIDE            Roland Sledge                         Precinct #3                                            01 
01100060004000012REP       Railroad Commissioner SAN JACINTO COUNTYWIDE            Roland Sledge                         Precinct #4                                            01 
01100060005000032REP       Railroad Commissioner SAN JACINTO COUNTYWIDE            Roland Sledge                         Precinct #5                                            01 
01100060006000030REP       Railroad Commissioner SAN JACINTO COUNTYWIDE            Roland Sledge                         Precinct #6                                            01 
01100060007000028REP       Railroad Commissioner SAN JACINTO COUNTYWIDE            Roland Sledge                         Precinct #7                                            01 
01100060008000008REP       Railroad Commissioner SAN JACINTO COUNTYWIDE            Roland Sledge                         Precinct #8                                            01 
01100060009000013REP       Railroad Commissioner SAN JACINTO COUNTYWIDE            Roland Sledge                         Precinct #10                                           01 
01100060010000005REP       Railroad Commissioner SAN JACINTO COUNTYWIDE            Roland Sledge                         Precinct #13                                           01 
01100060011000007REP       Railroad Commissioner SAN JACINTO COUNTYWIDE            Roland Sledge                         Precinct #14                                           01 
01100070001000000REP       Railroad Commissioner SAN JACINTO COUNTYWIDE            OVER VOTES                            Precinct #1                                            01 
01100070002000000REP       Railroad Commissioner SAN JACINTO COUNTYWIDE            OVER VOTES                            Precinct #2                                            01 
01100070003000000REP       Railroad Commissioner SAN JACINTO COUNTYWIDE            OVER VOTES                            Precinct #3                                            01 
01100070004000000REP       Railroad Commissioner SAN JACINTO COUNTYWIDE            OVER VOTES                            Precinct #4                                            01 
01100070005000000REP       Railroad Commissioner SAN JACINTO COUNTYWIDE            OVER VOTES                            Precinct #5                                            01 
01100070006000000REP       Railroad Commissioner SAN JACINTO COUNTYWIDE            OVER VOTES                            Precinct #6                                            01 
01100070007000000REP       Railroad Commissioner SAN JACINTO COUNTYWIDE            OVER VOTES                            Precinct #7                                            01 
01100070008000000REP       Railroad Commissioner SAN JACINTO COUNTYWIDE            OVER VOTES                            Precinct #8                                            01 
01100070009000000REP       Railroad Commissioner SAN JACINTO COUNTYWIDE            OVER VOTES                            Precinct #10                                           01 
01100070010000000REP       Railroad Commissioner SAN JACINTO COUNTYWIDE            OVER VOTES                            Precinct #13                                           01 
01100070011000000REP       Railroad Commissioner SAN JACINTO COUNTYWIDE            OVER VOTES                            Precinct #14                                           01 
01100080001000055REP       Railroad Commissioner SAN JACINTO COUNTYWIDE            UNDER VOTES                           Precinct #1                                            01 
01100080002000039REP       Railroad Commissioner SAN JACINTO COUNTYWIDE            UNDER VOTES                           Precinct #2                                            01 
01100080003000027REP       Railroad Commissioner SAN JACINTO COUNTYWIDE            UNDER VOTES                           Precinct #3                                            01 
01100080004000030REP       Railroad Commissioner SAN JACINTO COUNTYWIDE            UNDER VOTES                           Precinct #4                                            01 
01100080005000031REP       Railroad Commissioner SAN JACINTO COUNTYWIDE            UNDER VOTES                           Precinct #5                                            01 
01100080006000065REP       Railroad Commissioner SAN JACINTO COUNTYWIDE            UNDER VOTES                           Precinct #6                                            01 
01100080007000038REP       Railroad Commissioner SAN JACINTO COUNTYWIDE            UNDER VOTES                           Precinct #7                                            01 
01100080008000014REP       Railroad Commissioner SAN JACINTO COUNTYWIDE            UNDER VOTES                           Precinct #8                                            01 
01100080009000022REP       Railroad Commissioner SAN JACINTO COUNTYWIDE            UNDER VOTES                           Precinct #10                                           01 
01100080010000025REP       Railroad Commissioner SAN JACINTO COUNTYWIDE            UNDER VOTES                           Precinct #13                                           01 
01100080011000009REP       Railroad Commissioner SAN JACINTO COUNTYWIDE            UNDER VOTES                           Precinct #14                                           01 
01110010001000064REP       Railroad Commissioner, UNEXP SAN JACINTO COUNTYWIDE     Elizabeth Murray-Kolb                 Precinct #1                                            01 
01110010002000057REP       Railroad Commissioner, UNEXP SAN JACINTO COUNTYWIDE     Elizabeth Murray-Kolb                 Precinct #2                                            01 
01110010003000024REP       Railroad Commissioner, UNEXP SAN JACINTO COUNTYWIDE     Elizabeth Murray-Kolb                 Precinct #3                                            01 
01110010004000024REP       Railroad Commissioner, UNEXP SAN JACINTO COUNTYWIDE     Elizabeth Murray-Kolb                 Precinct #4                                            01 
01110010005000046REP       Railroad Commissioner, UNEXP SAN JACINTO COUNTYWIDE     Elizabeth Murray-Kolb                 Precinct #5                                            01 
01110010006000055REP       Railroad Commissioner, UNEXP SAN JACINTO COUNTYWIDE     Elizabeth Murray-Kolb                 Precinct #6                                            01 
01110010007000061REP       Railroad Commissioner, UNEXP SAN JACINTO COUNTYWIDE     Elizabeth Murray-Kolb                 Precinct #7                                            01 
01110010008000027REP       Railroad Commissioner, UNEXP SAN JACINTO COUNTYWIDE     Elizabeth Murray-Kolb                 Precinct #8                                            01 
01110010009000022REP       Railroad Commissioner, UNEXP SAN JACINTO COUNTYWIDE     Elizabeth Murray-Kolb                 Precinct #10                                           01 
01110010010000017REP       Railroad Commissioner, UNEXP SAN JACINTO COUNTYWIDE     Elizabeth Murray-Kolb                 Precinct #13                                           01 
01110010011000022REP       Railroad Commissioner, UNEXP SAN JACINTO COUNTYWIDE     Elizabeth Murray-Kolb                 Precinct #14                                           01 
01110020001000079REP       Railroad Commissioner, UNEXP SAN JACINTO COUNTYWIDE     Greg Parker                           Precinct #1                                            01 
01110020002000069REP       Railroad Commissioner, UNEXP SAN JACINTO COUNTYWIDE     Greg Parker                           Precinct #2                                            01 
01110020003000037REP       Railroad Commissioner, UNEXP SAN JACINTO COUNTYWIDE     Greg Parker                           Precinct #3                                            01 
01110020004000029REP       Railroad Commissioner, UNEXP SAN JACINTO COUNTYWIDE     Greg Parker                           Precinct #4                                            01 
01110020005000075REP       Railroad Commissioner, UNEXP SAN JACINTO COUNTYWIDE     Greg Parker                           Precinct #5                                            01 
01110020006000081REP       Railroad Commissioner, UNEXP SAN JACINTO COUNTYWIDE     Greg Parker                           Precinct #6                                            01 
01110020007000063REP       Railroad Commissioner, UNEXP SAN JACINTO COUNTYWIDE     Greg Parker                           Precinct #7                                            01 
01110020008000031REP       Railroad Commissioner, UNEXP SAN JACINTO COUNTYWIDE     Greg Parker                           Precinct #8                                            01 
01110020009000030REP       Railroad Commissioner, UNEXP SAN JACINTO COUNTYWIDE     Greg Parker                           Precinct #10                                           01 
01110020010000028REP       Railroad Commissioner, UNEXP SAN JACINTO COUNTYWIDE     Greg Parker                           Precinct #13                                           01 
01110020011000020REP       Railroad Commissioner, UNEXP SAN JACINTO COUNTYWIDE     Greg Parker                           Precinct #14                                           01 
01110030001000090REP       Railroad Commissioner, UNEXP SAN JACINTO COUNTYWIDE     Barry Smitherman                      Precinct #1                                            01 
01110030002000063REP       Railroad Commissioner, UNEXP SAN JACINTO COUNTYWIDE     Barry Smitherman                      Precinct #2                                            01 
01110030003000035REP       Railroad Commissioner, UNEXP SAN JACINTO COUNTYWIDE     Barry Smitherman                      Precinct #3                                            01 
01110030004000026REP       Railroad Commissioner, UNEXP SAN JACINTO COUNTYWIDE     Barry Smitherman                      Precinct #4                                            01 
01110030005000066REP       Railroad Commissioner, UNEXP SAN JACINTO COUNTYWIDE     Barry Smitherman                      Precinct #5                                            01 
01110030006000095REP       Railroad Commissioner, UNEXP SAN JACINTO COUNTYWIDE     Barry Smitherman                      Precinct #6                                            01 
01110030007000074REP       Railroad Commissioner, UNEXP SAN JACINTO COUNTYWIDE     Barry Smitherman                      Precinct #7                                            01 
01110030008000015REP       Railroad Commissioner, UNEXP SAN JACINTO COUNTYWIDE     Barry Smitherman                      Precinct #8                                            01 
01110030009000025REP       Railroad Commissioner, UNEXP SAN JACINTO COUNTYWIDE     Barry Smitherman                      Precinct #10                                           01 
01110030010000016REP       Railroad Commissioner, UNEXP SAN JACINTO COUNTYWIDE     Barry Smitherman                      Precinct #13                                           01 
01110030011000015REP       Railroad Commissioner, UNEXP SAN JACINTO COUNTYWIDE     Barry Smitherman                      Precinct #14                                           01 
01110040001000016REP       Railroad Commissioner, UNEXP SAN JACINTO COUNTYWIDE     Al Lee                                Precinct #1                                            01 
01110040002000018REP       Railroad Commissioner, UNEXP SAN JACINTO COUNTYWIDE     Al Lee                                Precinct #2                                            01 
01110040003000008REP       Railroad Commissioner, UNEXP SAN JACINTO COUNTYWIDE     Al Lee                                Precinct #3                                            01 
01110040004000004REP       Railroad Commissioner, UNEXP SAN JACINTO COUNTYWIDE     Al Lee                                Precinct #4                                            01 
01110040005000026REP       Railroad Commissioner, UNEXP SAN JACINTO COUNTYWIDE     Al Lee                                Precinct #5                                            01 
01110040006000012REP       Railroad Commissioner, UNEXP SAN JACINTO COUNTYWIDE     Al Lee                                Precinct #6                                            01 
01110040007000013REP       Railroad Commissioner, UNEXP SAN JACINTO COUNTYWIDE     Al Lee                                Precinct #7                                            01 
01110040008000002REP       Railroad Commissioner, UNEXP SAN JACINTO COUNTYWIDE     Al Lee                                Precinct #8                                            01 
01110040009000007REP       Railroad Commissioner, UNEXP SAN JACINTO COUNTYWIDE     Al Lee                                Precinct #10                                           01 
01110040010000002REP       Railroad Commissioner, UNEXP SAN JACINTO COUNTYWIDE     Al Lee                                Precinct #13                                           01 
01110040011000003REP       Railroad Commissioner, UNEXP SAN JACINTO COUNTYWIDE     Al Lee                                Precinct #14                                           01 
01110050001000000REP       Railroad Commissioner, UNEXP SAN JACINTO COUNTYWIDE     OVER VOTES                            Precinct #1                                            01 
01110050002000000REP       Railroad Commissioner, UNEXP SAN JACINTO COUNTYWIDE     OVER VOTES                            Precinct #2                                            01 
01110050003000000REP       Railroad Commissioner, UNEXP SAN JACINTO COUNTYWIDE     OVER VOTES                            Precinct #3                                            01 
01110050004000000REP       Railroad Commissioner, UNEXP SAN JACINTO COUNTYWIDE     OVER VOTES                            Precinct #4                                            01 
01110050005000000REP       Railroad Commissioner, UNEXP SAN JACINTO COUNTYWIDE     OVER VOTES                            Precinct #5                                            01 
01110050006000000REP       Railroad Commissioner, UNEXP SAN JACINTO COUNTYWIDE     OVER VOTES                            Precinct #6                                            01 
01110050007000000REP       Railroad Commissioner, UNEXP SAN JACINTO COUNTYWIDE     OVER VOTES                            Precinct #7                                            01 
01110050008000000REP       Railroad Commissioner, UNEXP SAN JACINTO COUNTYWIDE     OVER VOTES                            Precinct #8                                            01 
01110050009000000REP       Railroad Commissioner, UNEXP SAN JACINTO COUNTYWIDE     OVER VOTES                            Precinct #10                                           01 
01110050010000000REP       Railroad Commissioner, UNEXP SAN JACINTO COUNTYWIDE     OVER VOTES                            Precinct #13                                           01 
01110050011000000REP       Railroad Commissioner, UNEXP SAN JACINTO COUNTYWIDE     OVER VOTES                            Precinct #14                                           01 
01110060001000066REP       Railroad Commissioner, UNEXP SAN JACINTO COUNTYWIDE     UNDER VOTES                           Precinct #1                                            01 
01110060002000042REP       Railroad Commissioner, UNEXP SAN JACINTO COUNTYWIDE     UNDER VOTES                           Precinct #2                                            01 
01110060003000030REP       Railroad Commissioner, UNEXP SAN JACINTO COUNTYWIDE     UNDER VOTES                           Precinct #3                                            01 
01110060004000037REP       Railroad Commissioner, UNEXP SAN JACINTO COUNTYWIDE     UNDER VOTES                           Precinct #4                                            01 
01110060005000037REP       Railroad Commissioner, UNEXP SAN JACINTO COUNTYWIDE     UNDER VOTES                           Precinct #5                                            01 
01110060006000074REP       Railroad Commissioner, UNEXP SAN JACINTO COUNTYWIDE     UNDER VOTES                           Precinct #6                                            01 
01110060007000044REP       Railroad Commissioner, UNEXP SAN JACINTO COUNTYWIDE     UNDER VOTES                           Precinct #7                                            01 
01110060008000021REP       Railroad Commissioner, UNEXP SAN JACINTO COUNTYWIDE     UNDER VOTES                           Precinct #8                                            01 
01110060009000026REP       Railroad Commissioner, UNEXP SAN JACINTO COUNTYWIDE     UNDER VOTES                           Precinct #10                                           01 
01110060010000022REP       Railroad Commissioner, UNEXP SAN JACINTO COUNTYWIDE     UNDER VOTES                           Precinct #13                                           01 
01110060011000015REP       Railroad Commissioner, UNEXP SAN JACINTO COUNTYWIDE     UNDER VOTES                           Precinct #14                                           01 
01120010001000119REP       Justice, Supreme Court, Place 2 SAN JACINTO COUNTYWIDE  Steve Smith                           Precinct #1                                            01 
01120010002000119REP       Justice, Supreme Court, Place 2 SAN JACINTO COUNTYWIDE  Steve Smith                           Precinct #2                                            01 
01120010003000044REP       Justice, Supreme Court, Place 2 SAN JACINTO COUNTYWIDE  Steve Smith                           Precinct #3                                            01 
01120010004000039REP       Justice, Supreme Court, Place 2 SAN JACINTO COUNTYWIDE  Steve Smith                           Precinct #4                                            01 
01120010005000086REP       Justice, Supreme Court, Place 2 SAN JACINTO COUNTYWIDE  Steve Smith                           Precinct #5                                            01 
01120010006000121REP       Justice, Supreme Court, Place 2 SAN JACINTO COUNTYWIDE  Steve Smith                           Precinct #6                                            01 
01120010007000101REP       Justice, Supreme Court, Place 2 SAN JACINTO COUNTYWIDE  Steve Smith                           Precinct #7                                            01 
01120010008000037REP       Justice, Supreme Court, Place 2 SAN JACINTO COUNTYWIDE  Steve Smith                           Precinct #8                                            01 
01120010009000040REP       Justice, Supreme Court, Place 2 SAN JACINTO COUNTYWIDE  Steve Smith                           Precinct #10                                           01 
01120010010000023REP       Justice, Supreme Court, Place 2 SAN JACINTO COUNTYWIDE  Steve Smith                           Precinct #13                                           01 
01120010011000028REP       Justice, Supreme Court, Place 2 SAN JACINTO COUNTYWIDE  Steve Smith                           Precinct #14                                           01 
01120020001000142REP       Justice, Supreme Court, Place 2 SAN JACINTO COUNTYWIDE  Don Willett                           Precinct #1                                            01 
01120020002000099REP       Justice, Supreme Court, Place 2 SAN JACINTO COUNTYWIDE  Don Willett                           Precinct #2                                            01 
01120020003000062REP       Justice, Supreme Court, Place 2 SAN JACINTO COUNTYWIDE  Don Willett                           Precinct #3                                            01 
01120020004000052REP       Justice, Supreme Court, Place 2 SAN JACINTO COUNTYWIDE  Don Willett                           Precinct #4                                            01 
01120020005000129REP       Justice, Supreme Court, Place 2 SAN JACINTO COUNTYWIDE  Don Willett                           Precinct #5                                            01 
01120020006000129REP       Justice, Supreme Court, Place 2 SAN JACINTO COUNTYWIDE  Don Willett                           Precinct #6                                            01 
01120020007000111REP       Justice, Supreme Court, Place 2 SAN JACINTO COUNTYWIDE  Don Willett                           Precinct #7                                            01 
01120020008000046REP       Justice, Supreme Court, Place 2 SAN JACINTO COUNTYWIDE  Don Willett                           Precinct #8                                            01 
01120020009000046REP       Justice, Supreme Court, Place 2 SAN JACINTO COUNTYWIDE  Don Willett                           Precinct #10                                           01 
01120020010000041REP       Justice, Supreme Court, Place 2 SAN JACINTO COUNTYWIDE  Don Willett                           Precinct #13                                           01 
01120020011000035REP       Justice, Supreme Court, Place 2 SAN JACINTO COUNTYWIDE  Don Willett                           Precinct #14                                           01 
01120030001000000REP       Justice, Supreme Court, Place 2 SAN JACINTO COUNTYWIDE  OVER VOTES                            Precinct #1                                            01 
01120030002000000REP       Justice, Supreme Court, Place 2 SAN JACINTO COUNTYWIDE  OVER VOTES                            Precinct #2                                            01 
01120030003000000REP       Justice, Supreme Court, Place 2 SAN JACINTO COUNTYWIDE  OVER VOTES                            Precinct #3                                            01 
01120030004000000REP       Justice, Supreme Court, Place 2 SAN JACINTO COUNTYWIDE  OVER VOTES                            Precinct #4                                            01 
01120030005000000REP       Justice, Supreme Court, Place 2 SAN JACINTO COUNTYWIDE  OVER VOTES                            Precinct #5                                            01 
01120030006000000REP       Justice, Supreme Court, Place 2 SAN JACINTO COUNTYWIDE  OVER VOTES                            Precinct #6                                            01 
01120030007000000REP       Justice, Supreme Court, Place 2 SAN JACINTO COUNTYWIDE  OVER VOTES                            Precinct #7                                            01 
01120030008000000REP       Justice, Supreme Court, Place 2 SAN JACINTO COUNTYWIDE  OVER VOTES                            Precinct #8                                            01 
01120030009000000REP       Justice, Supreme Court, Place 2 SAN JACINTO COUNTYWIDE  OVER VOTES                            Precinct #10                                           01 
01120030010000000REP       Justice, Supreme Court, Place 2 SAN JACINTO COUNTYWIDE  OVER VOTES                            Precinct #13                                           01 
01120030011000000REP       Justice, Supreme Court, Place 2 SAN JACINTO COUNTYWIDE  OVER VOTES                            Precinct #14                                           01 
01120040001000054REP       Justice, Supreme Court, Place 2 SAN JACINTO COUNTYWIDE  UNDER VOTES                           Precinct #1                                            01 
01120040002000031REP       Justice, Supreme Court, Place 2 SAN JACINTO COUNTYWIDE  UNDER VOTES                           Precinct #2                                            01 
01120040003000028REP       Justice, Supreme Court, Place 2 SAN JACINTO COUNTYWIDE  UNDER VOTES                           Precinct #3                                            01 
01120040004000029REP       Justice, Supreme Court, Place 2 SAN JACINTO COUNTYWIDE  UNDER VOTES                           Precinct #4                                            01 
01120040005000035REP       Justice, Supreme Court, Place 2 SAN JACINTO COUNTYWIDE  UNDER VOTES                           Precinct #5                                            01 
01120040006000067REP       Justice, Supreme Court, Place 2 SAN JACINTO COUNTYWIDE  UNDER VOTES                           Precinct #6                                            01 
01120040007000043REP       Justice, Supreme Court, Place 2 SAN JACINTO COUNTYWIDE  UNDER VOTES                           Precinct #7                                            01 
01120040008000013REP       Justice, Supreme Court, Place 2 SAN JACINTO COUNTYWIDE  UNDER VOTES                           Precinct #8                                            01 
01120040009000024REP       Justice, Supreme Court, Place 2 SAN JACINTO COUNTYWIDE  UNDER VOTES                           Precinct #10                                           01 
01120040010000021REP       Justice, Supreme Court, Place 2 SAN JACINTO COUNTYWIDE  UNDER VOTES                           Precinct #13                                           01 
01120040011000012REP       Justice, Supreme Court, Place 2 SAN JACINTO COUNTYWIDE  UNDER VOTES                           Precinct #14                                           01 
01130010001000105REP       Justice, Supreme Court, Place 4 SAN JACINTO COUNTYWIDE  David Medina                          Precinct #1                                            01 
01130010002000079REP       Justice, Supreme Court, Place 4 SAN JACINTO COUNTYWIDE  David Medina                          Precinct #2                                            01 
01130010003000042REP       Justice, Supreme Court, Place 4 SAN JACINTO COUNTYWIDE  David Medina                          Precinct #3                                            01 
01130010004000027REP       Justice, Supreme Court, Place 4 SAN JACINTO COUNTYWIDE  David Medina                          Precinct #4                                            01 
01130010005000072REP       Justice, Supreme Court, Place 4 SAN JACINTO COUNTYWIDE  David Medina                          Precinct #5                                            01 
01130010006000099REP       Justice, Supreme Court, Place 4 SAN JACINTO COUNTYWIDE  David Medina                          Precinct #6                                            01 
01130010007000078REP       Justice, Supreme Court, Place 4 SAN JACINTO COUNTYWIDE  David Medina                          Precinct #7                                            01 
01130010008000023REP       Justice, Supreme Court, Place 4 SAN JACINTO COUNTYWIDE  David Medina                          Precinct #8                                            01 
01130010009000031REP       Justice, Supreme Court, Place 4 SAN JACINTO COUNTYWIDE  David Medina                          Precinct #10                                           01 
01130010010000020REP       Justice, Supreme Court, Place 4 SAN JACINTO COUNTYWIDE  David Medina                          Precinct #13                                           01 
01130010011000020REP       Justice, Supreme Court, Place 4 SAN JACINTO COUNTYWIDE  David Medina                          Precinct #14                                           01 
01130020001000076REP       Justice, Supreme Court, Place 4 SAN JACINTO COUNTYWIDE  John Devine                           Precinct #1                                            01 
01130020002000068REP       Justice, Supreme Court, Place 4 SAN JACINTO COUNTYWIDE  John Devine                           Precinct #2                                            01 
01130020003000041REP       Justice, Supreme Court, Place 4 SAN JACINTO COUNTYWIDE  John Devine                           Precinct #3                                            01 
01130020004000033REP       Justice, Supreme Court, Place 4 SAN JACINTO COUNTYWIDE  John Devine                           Precinct #4                                            01 
01130020005000071REP       Justice, Supreme Court, Place 4 SAN JACINTO COUNTYWIDE  John Devine                           Precinct #5                                            01 
01130020006000096REP       Justice, Supreme Court, Place 4 SAN JACINTO COUNTYWIDE  John Devine                           Precinct #6                                            01 
01130020007000072REP       Justice, Supreme Court, Place 4 SAN JACINTO COUNTYWIDE  John Devine                           Precinct #7                                            01 
01130020008000028REP       Justice, Supreme Court, Place 4 SAN JACINTO COUNTYWIDE  John Devine                           Precinct #8                                            01 
01130020009000033REP       Justice, Supreme Court, Place 4 SAN JACINTO COUNTYWIDE  John Devine                           Precinct #10                                           01 
01130020010000031REP       Justice, Supreme Court, Place 4 SAN JACINTO COUNTYWIDE  John Devine                           Precinct #13                                           01 
01130020011000035REP       Justice, Supreme Court, Place 4 SAN JACINTO COUNTYWIDE  John Devine                           Precinct #14                                           01 
01130030001000071REP       Justice, Supreme Court, Place 4 SAN JACINTO COUNTYWIDE  Joe Pool, Jr.                         Precinct #1                                            01 
01130030002000059REP       Justice, Supreme Court, Place 4 SAN JACINTO COUNTYWIDE  Joe Pool, Jr.                         Precinct #2                                            01 
01130030003000019REP       Justice, Supreme Court, Place 4 SAN JACINTO COUNTYWIDE  Joe Pool, Jr.                         Precinct #3                                            01 
01130030004000025REP       Justice, Supreme Court, Place 4 SAN JACINTO COUNTYWIDE  Joe Pool, Jr.                         Precinct #4                                            01 
01130030005000063REP       Justice, Supreme Court, Place 4 SAN JACINTO COUNTYWIDE  Joe Pool, Jr.                         Precinct #5                                            01 
01130030006000050REP       Justice, Supreme Court, Place 4 SAN JACINTO COUNTYWIDE  Joe Pool, Jr.                         Precinct #6                                            01 
01130030007000053REP       Justice, Supreme Court, Place 4 SAN JACINTO COUNTYWIDE  Joe Pool, Jr.                         Precinct #7                                            01 
01130030008000025REP       Justice, Supreme Court, Place 4 SAN JACINTO COUNTYWIDE  Joe Pool, Jr.                         Precinct #8                                            01 
01130030009000018REP       Justice, Supreme Court, Place 4 SAN JACINTO COUNTYWIDE  Joe Pool, Jr.                         Precinct #10                                           01 
01130030010000012REP       Justice, Supreme Court, Place 4 SAN JACINTO COUNTYWIDE  Joe Pool, Jr.                         Precinct #13                                           01 
01130030011000008REP       Justice, Supreme Court, Place 4 SAN JACINTO COUNTYWIDE  Joe Pool, Jr.                         Precinct #14                                           01 
01130040001000000REP       Justice, Supreme Court, Place 4 SAN JACINTO COUNTYWIDE  OVER VOTES                            Precinct #1                                            01 
01130040002000000REP       Justice, Supreme Court, Place 4 SAN JACINTO COUNTYWIDE  OVER VOTES                            Precinct #2                                            01 
01130040003000000REP       Justice, Supreme Court, Place 4 SAN JACINTO COUNTYWIDE  OVER VOTES                            Precinct #3                                            01 
01130040004000000REP       Justice, Supreme Court, Place 4 SAN JACINTO COUNTYWIDE  OVER VOTES                            Precinct #4                                            01 
01130040005000000REP       Justice, Supreme Court, Place 4 SAN JACINTO COUNTYWIDE  OVER VOTES                            Precinct #5                                            01 
01130040006000000REP       Justice, Supreme Court, Place 4 SAN JACINTO COUNTYWIDE  OVER VOTES                            Precinct #6                                            01 
01130040007000000REP       Justice, Supreme Court, Place 4 SAN JACINTO COUNTYWIDE  OVER VOTES                            Precinct #7                                            01 
01130040008000000REP       Justice, Supreme Court, Place 4 SAN JACINTO COUNTYWIDE  OVER VOTES                            Precinct #8                                            01 
01130040009000000REP       Justice, Supreme Court, Place 4 SAN JACINTO COUNTYWIDE  OVER VOTES                            Precinct #10                                           01 
01130040010000000REP       Justice, Supreme Court, Place 4 SAN JACINTO COUNTYWIDE  OVER VOTES                            Precinct #13                                           01 
01130040011000000REP       Justice, Supreme Court, Place 4 SAN JACINTO COUNTYWIDE  OVER VOTES                            Precinct #14                                           01 
01130050001000063REP       Justice, Supreme Court, Place 4 SAN JACINTO COUNTYWIDE  UNDER VOTES                           Precinct #1                                            01 
01130050002000043REP       Justice, Supreme Court, Place 4 SAN JACINTO COUNTYWIDE  UNDER VOTES                           Precinct #2                                            01 
01130050003000032REP       Justice, Supreme Court, Place 4 SAN JACINTO COUNTYWIDE  UNDER VOTES                           Precinct #3                                            01 
01130050004000035REP       Justice, Supreme Court, Place 4 SAN JACINTO COUNTYWIDE  UNDER VOTES                           Precinct #4                                            01 
01130050005000044REP       Justice, Supreme Court, Place 4 SAN JACINTO COUNTYWIDE  UNDER VOTES                           Precinct #5                                            01 
01130050006000072REP       Justice, Supreme Court, Place 4 SAN JACINTO COUNTYWIDE  UNDER VOTES                           Precinct #6                                            01 
01130050007000052REP       Justice, Supreme Court, Place 4 SAN JACINTO COUNTYWIDE  UNDER VOTES                           Precinct #7                                            01 
01130050008000020REP       Justice, Supreme Court, Place 4 SAN JACINTO COUNTYWIDE  UNDER VOTES                           Precinct #8                                            01 
01130050009000028REP       Justice, Supreme Court, Place 4 SAN JACINTO COUNTYWIDE  UNDER VOTES                           Precinct #10                                           01 
01130050010000022REP       Justice, Supreme Court, Place 4 SAN JACINTO COUNTYWIDE  UNDER VOTES                           Precinct #13                                           01 
01130050011000012REP       Justice, Supreme Court, Place 4 SAN JACINTO COUNTYWIDE  UNDER VOTES                           Precinct #14                                           01 
01140010001000215REP       Justice, Supreme Court, Place 6 SAN JACINTO COUNTYWIDE  Nathan Hecht                          Precinct #1                                            01 
01140010002000175REP       Justice, Supreme Court, Place 6 SAN JACINTO COUNTYWIDE  Nathan Hecht                          Precinct #2                                            01 
01140010003000084REP       Justice, Supreme Court, Place 6 SAN JACINTO COUNTYWIDE  Nathan Hecht                          Precinct #3                                            01 
01140010004000069REP       Justice, Supreme Court, Place 6 SAN JACINTO COUNTYWIDE  Nathan Hecht                          Precinct #4                                            01 
01140010005000181REP       Justice, Supreme Court, Place 6 SAN JACINTO COUNTYWIDE  Nathan Hecht                          Precinct #5                                            01 
01140010006000210REP       Justice, Supreme Court, Place 6 SAN JACINTO COUNTYWIDE  Nathan Hecht                          Precinct #6                                            01 
01140010007000182REP       Justice, Supreme Court, Place 6 SAN JACINTO COUNTYWIDE  Nathan Hecht                          Precinct #7                                            01 
01140010008000070REP       Justice, Supreme Court, Place 6 SAN JACINTO COUNTYWIDE  Nathan Hecht                          Precinct #8                                            01 
01140010009000061REP       Justice, Supreme Court, Place 6 SAN JACINTO COUNTYWIDE  Nathan Hecht                          Precinct #10                                           01 
01140010010000054REP       Justice, Supreme Court, Place 6 SAN JACINTO COUNTYWIDE  Nathan Hecht                          Precinct #13                                           01 
01140010011000055REP       Justice, Supreme Court, Place 6 SAN JACINTO COUNTYWIDE  Nathan Hecht                          Precinct #14                                           01 
01140020001000000REP       Justice, Supreme Court, Place 6 SAN JACINTO COUNTYWIDE  OVER VOTES                            Precinct #1                                            01 
01140020002000000REP       Justice, Supreme Court, Place 6 SAN JACINTO COUNTYWIDE  OVER VOTES                            Precinct #2                                            01 
