01080010001000257REP       United States Senator                                   David Dewhurst                        1N - Center                                            01 
01080010002000292REP       United States Senator                                   David Dewhurst                        1S - Center                                            01 
01080010003000135REP       United States Senator                                   David Dewhurst                        1SE - Center                                           01 
01080010004000257REP       United States Senator                                   David Dewhurst                        1SW - Center                                           01 
01080010005000055REP       United States Senator                                   David Dewhurst                        1W - Center                                            01 
01080010006000115REP       United States Senator                                   David Dewhurst                        2 - Excelsior                                          01 
01080010007000060REP       United States Senator                                   David Dewhurst                        3 - Sardis                                             01 
01080010008000090REP       United States Senator                                   David Dewhurst                        4 - Huxley                                             01 
01080010009000314REP       United States Senator                                   David Dewhurst                        5 - Joaquin                                            01 
01080010010000078REP       United States Senator                                   David Dewhurst                        6 - Dreka                                              01 
01080010011000070REP       United States Senator                                   David Dewhurst                        7 - Shelbyville                                        01 
01080010012000129REP       United States Senator                                   David Dewhurst                        8 - Tenaha                                             01 
01080010013000119REP       United States Senator                                   David Dewhurst                        9N - Timpson                                           01 
01080010014000123REP       United States Senator                                   David Dewhurst                        9S - Timpson                                           01 
01080020001000002REP       United States Senator                                   Ben Gambini                           1N - Center                                            01 
01080020002000007REP       United States Senator                                   Ben Gambini                           1S - Center                                            01 
01080020003000000REP       United States Senator                                   Ben Gambini                           1SE - Center                                           01 
01080020004000003REP       United States Senator                                   Ben Gambini                           1SW - Center                                           01 
01080020005000000REP       United States Senator                                   Ben Gambini                           1W - Center                                            01 
01080020006000002REP       United States Senator                                   Ben Gambini                           2 - Excelsior                                          01 
01080020007000001REP       United States Senator                                   Ben Gambini                           3 - Sardis                                             01 
01080020008000001REP       United States Senator                                   Ben Gambini                           4 - Huxley                                             01 
01080020009000008REP       United States Senator                                   Ben Gambini                           5 - Joaquin                                            01 
01080020010000002REP       United States Senator                                   Ben Gambini                           6 - Dreka                                              01 
01080020011000002REP       United States Senator                                   Ben Gambini                           7 - Shelbyville                                        01 
01080020012000002REP       United States Senator                                   Ben Gambini                           8 - Tenaha                                             01 
01080020013000002REP       United States Senator                                   Ben Gambini                           9N - Timpson                                           01 
01080020014000002REP       United States Senator                                   Ben Gambini                           9S - Timpson                                           01 
01080030001000002REP       United States Senator                                   Joe Agris                             1N - Center                                            01 
01080030002000001REP       United States Senator                                   Joe Agris                             1S - Center                                            01 
01080030003000000REP       United States Senator                                   Joe Agris                             1SE - Center                                           01 
01080030004000006REP       United States Senator                                   Joe Agris                             1SW - Center                                           01 
01080030005000000REP       United States Senator                                   Joe Agris                             1W - Center                                            01 
01080030006000000REP       United States Senator                                   Joe Agris                             2 - Excelsior                                          01 
01080030007000000REP       United States Senator                                   Joe Agris                             3 - Sardis                                             01 
01080030008000000REP       United States Senator                                   Joe Agris                             4 - Huxley                                             01 
01080030009000007REP       United States Senator                                   Joe Agris                             5 - Joaquin                                            01 
01080030010000001REP       United States Senator                                   Joe Agris                             6 - Dreka                                              01 
01080030011000000REP       United States Senator                                   Joe Agris                             7 - Shelbyville                                        01 
01080030012000001REP       United States Senator                                   Joe Agris                             8 - Tenaha                                             01 
01080030013000000REP       United States Senator                                   Joe Agris                             9N - Timpson                                           01 
01080030014000001REP       United States Senator                                   Joe Agris                             9S - Timpson                                           01 
01080040001000011REP       United States Senator                                   Lela Pittenger                        1N - Center                                            01 
01080040002000013REP       United States Senator                                   Lela Pittenger                        1S - Center                                            01 
01080040003000003REP       United States Senator                                   Lela Pittenger                        1SE - Center                                           01 
01080040004000008REP       United States Senator                                   Lela Pittenger                        1SW - Center                                           01 
01080040005000001REP       United States Senator                                   Lela Pittenger                        1W - Center                                            01 
01080040006000007REP       United States Senator                                   Lela Pittenger                        2 - Excelsior                                          01 
01080040007000002REP       United States Senator                                   Lela Pittenger                        3 - Sardis                                             01 
01080040008000000REP       United States Senator                                   Lela Pittenger                        4 - Huxley                                             01 
01080040009000010REP       United States Senator                                   Lela Pittenger                        5 - Joaquin                                            01 
01080040010000002REP       United States Senator                                   Lela Pittenger                        6 - Dreka                                              01 
01080040011000002REP       United States Senator                                   Lela Pittenger                        7 - Shelbyville                                        01 
01080040012000002REP       United States Senator                                   Lela Pittenger                        8 - Tenaha                                             01 
01080040013000004REP       United States Senator                                   Lela Pittenger                        9N - Timpson                                           01 
01080040014000001REP       United States Senator                                   Lela Pittenger                        9S - Timpson                                           01 
01080050001000006REP       United States Senator                                   Glenn Addison                         1N - Center                                            01 
01080050002000010REP       United States Senator                                   Glenn Addison                         1S - Center                                            01 
01080050003000004REP       United States Senator                                   Glenn Addison                         1SE - Center                                           01 
01080050004000007REP       United States Senator                                   Glenn Addison                         1SW - Center                                           01 
01080050005000003REP       United States Senator                                   Glenn Addison                         1W - Center                                            01 
01080050006000008REP       United States Senator                                   Glenn Addison                         2 - Excelsior                                          01 
01080050007000001REP       United States Senator                                   Glenn Addison                         3 - Sardis                                             01 
01080050008000008REP       United States Senator                                   Glenn Addison                         4 - Huxley                                             01 
01080050009000013REP       United States Senator                                   Glenn Addison                         5 - Joaquin                                            01 
01080050010000003REP       United States Senator                                   Glenn Addison                         6 - Dreka                                              01 
01080050011000002REP       United States Senator                                   Glenn Addison                         7 - Shelbyville                                        01 
01080050012000006REP       United States Senator                                   Glenn Addison                         8 - Tenaha                                             01 
01080050013000003REP       United States Senator                                   Glenn Addison                         9N - Timpson                                           01 
01080050014000003REP       United States Senator                                   Glenn Addison                         9S - Timpson                                           01 
01080060001000003REP       United States Senator                                   Curt Cleaver                          1N - Center                                            01 
01080060002000006REP       United States Senator                                   Curt Cleaver                          1S - Center                                            01 
01080060003000005REP       United States Senator                                   Curt Cleaver                          1SE - Center                                           01 
01080060004000006REP       United States Senator                                   Curt Cleaver                          1SW - Center                                           01 
01080060005000000REP       United States Senator                                   Curt Cleaver                          1W - Center                                            01 
01080060006000000REP       United States Senator                                   Curt Cleaver                          2 - Excelsior                                          01 
01080060007000001REP       United States Senator                                   Curt Cleaver                          3 - Sardis                                             01 
01080060008000000REP       United States Senator                                   Curt Cleaver                          4 - Huxley                                             01 
01080060009000007REP       United States Senator                                   Curt Cleaver                          5 - Joaquin                                            01 
01080060010000001REP       United States Senator                                   Curt Cleaver                          6 - Dreka                                              01 
01080060011000001REP       United States Senator                                   Curt Cleaver                          7 - Shelbyville                                        01 
01080060012000002REP       United States Senator                                   Curt Cleaver                          8 - Tenaha                                             01 
01080060013000001REP       United States Senator                                   Curt Cleaver                          9N - Timpson                                           01 
01080060014000000REP       United States Senator                                   Curt Cleaver                          9S - Timpson                                           01 
01080070001000016REP       United States Senator                                   Craig James                           1N - Center                                            01 
01080070002000029REP       United States Senator                                   Craig James                           1S - Center                                            01 
01080070003000009REP       United States Senator                                   Craig James                           1SE - Center                                           01 
01080070004000025REP       United States Senator                                   Craig James                           1SW - Center                                           01 
01080070005000002REP       United States Senator                                   Craig James                           1W - Center                                            01 
01080070006000011REP       United States Senator                                   Craig James                           2 - Excelsior                                          01 
01080070007000004REP       United States Senator                                   Craig James                           3 - Sardis                                             01 
01080070008000010REP       United States Senator                                   Craig James                           4 - Huxley                                             01 
01080070009000032REP       United States Senator                                   Craig James                           5 - Joaquin                                            01 
01080070010000012REP       United States Senator                                   Craig James                           6 - Dreka                                              01 
01080070011000011REP       United States Senator                                   Craig James                           7 - Shelbyville                                        01 
01080070012000008REP       United States Senator                                   Craig James                           8 - Tenaha                                             01 
01080070013000010REP       United States Senator                                   Craig James                           9N - Timpson                                           01 
01080070014000014REP       United States Senator                                   Craig James                           9S - Timpson                                           01 
01080080001000006REP       United States Senator                                   Tom Leppert                           1N - Center                                            01 
01080080002000007REP       United States Senator                                   Tom Leppert                           1S - Center                                            01 
01080080003000006REP       United States Senator                                   Tom Leppert                           1SE - Center                                           01 
01080080004000003REP       United States Senator                                   Tom Leppert                           1SW - Center                                           01 
01080080005000000REP       United States Senator                                   Tom Leppert                           1W - Center                                            01 
01080080006000002REP       United States Senator                                   Tom Leppert                           2 - Excelsior                                          01 
01080080007000002REP       United States Senator                                   Tom Leppert                           3 - Sardis                                             01 
01080080008000004REP       United States Senator                                   Tom Leppert                           4 - Huxley                                             01 
01080080009000004REP       United States Senator                                   Tom Leppert                           5 - Joaquin                                            01 
01080080010000002REP       United States Senator                                   Tom Leppert                           6 - Dreka                                              01 
01080080011000002REP       United States Senator                                   Tom Leppert                           7 - Shelbyville                                        01 
01080080012000006REP       United States Senator                                   Tom Leppert                           8 - Tenaha                                             01 
01080080013000007REP       United States Senator                                   Tom Leppert                           9N - Timpson                                           01 
01080080014000005REP       United States Senator                                   Tom Leppert                           9S - Timpson                                           01 
01080090001000056REP       United States Senator                                   Ted Cruz                              1N - Center                                            01 
01080090002000083REP       United States Senator                                   Ted Cruz                              1S - Center                                            01 
01080090003000032REP       United States Senator                                   Ted Cruz                              1SE - Center                                           01 
01080090004000076REP       United States Senator                                   Ted Cruz                              1SW - Center                                           01 
01080090005000012REP       United States Senator                                   Ted Cruz                              1W - Center                                            01 
01080090006000058REP       United States Senator                                   Ted Cruz                              2 - Excelsior                                          01 
01080090007000011REP       United States Senator                                   Ted Cruz                              3 - Sardis                                             01 
01080090008000043REP       United States Senator                                   Ted Cruz                              4 - Huxley                                             01 
01080090009000065REP       United States Senator                                   Ted Cruz                              5 - Joaquin                                            01 
01080090010000015REP       United States Senator                                   Ted Cruz                              6 - Dreka                                              01 
01080090011000016REP       United States Senator                                   Ted Cruz                              7 - Shelbyville                                        01 
01080090012000030REP       United States Senator                                   Ted Cruz                              8 - Tenaha                                             01 
01080090013000053REP       United States Senator                                   Ted Cruz                              9N - Timpson                                           01 
01080090014000044REP       United States Senator                                   Ted Cruz                              9S - Timpson                                           01 
01080100001000000REP       United States Senator                                   OVER VOTES                            1N - Center                                            01 
01080100002000000REP       United States Senator                                   OVER VOTES                            1S - Center                                            01 
01080100003000000REP       United States Senator                                   OVER VOTES                            1SE - Center                                           01 
01080100004000000REP       United States Senator                                   OVER VOTES                            1SW - Center                                           01 
01080100005000000REP       United States Senator                                   OVER VOTES                            1W - Center                                            01 
01080100006000000REP       United States Senator                                   OVER VOTES                            2 - Excelsior                                          01 
01080100007000000REP       United States Senator                                   OVER VOTES                            3 - Sardis                                             01 
01080100008000000REP       United States Senator                                   OVER VOTES                            4 - Huxley                                             01 
01080100009000000REP       United States Senator                                   OVER VOTES                            5 - Joaquin                                            01 
01080100010000000REP       United States Senator                                   OVER VOTES                            6 - Dreka                                              01 
01080100011000000REP       United States Senator                                   OVER VOTES                            7 - Shelbyville                                        01 
01080100012000000REP       United States Senator                                   OVER VOTES                            8 - Tenaha                                             01 
01080100013000000REP       United States Senator                                   OVER VOTES                            9N - Timpson                                           01 
01080100014000001REP       United States Senator                                   OVER VOTES                            9S - Timpson                                           01 
01080110001000038REP       United States Senator                                   UNDER VOTES                           1N - Center                                            01 
01080110002000069REP       United States Senator                                   UNDER VOTES                           1S - Center                                            01 
01080110003000032REP       United States Senator                                   UNDER VOTES                           1SE - Center                                           01 
01080110004000050REP       United States Senator                                   UNDER VOTES                           1SW - Center                                           01 
01080110005000014REP       United States Senator                                   UNDER VOTES                           1W - Center                                            01 
01080110006000043REP       United States Senator                                   UNDER VOTES                           2 - Excelsior                                          01 
01080110007000016REP       United States Senator                                   UNDER VOTES                           3 - Sardis                                             01 
01080110008000022REP       United States Senator                                   UNDER VOTES                           4 - Huxley                                             01 
01080110009000069REP       United States Senator                                   UNDER VOTES                           5 - Joaquin                                            01 
01080110010000018REP       United States Senator                                   UNDER VOTES                           6 - Dreka                                              01 
01080110011000014REP       United States Senator                                   UNDER VOTES                           7 - Shelbyville                                        01 
01080110012000024REP       United States Senator                                   UNDER VOTES                           8 - Tenaha                                             01 
01080110013000027REP       United States Senator                                   UNDER VOTES                           9N - Timpson                                           01 
01080110014000034REP       United States Senator                                   UNDER VOTES                           9S - Timpson                                           01 
01090010001000340REP       United States Representative, District 1                Louie Gohmert                         1N - Center                                            01 
01090010002000414REP       United States Representative, District 1                Louie Gohmert                         1S - Center                                            01 
01090010003000184REP       United States Representative, District 1                Louie Gohmert                         1SE - Center                                           01 
01090010004000365REP       United States Representative, District 1                Louie Gohmert                         1SW - Center                                           01 
01090010005000068REP       United States Representative, District 1                Louie Gohmert                         1W - Center                                            01 
01090010006000177REP       United States Representative, District 1                Louie Gohmert                         2 - Excelsior                                          01 
01090010007000073REP       United States Representative, District 1                Louie Gohmert                         3 - Sardis                                             01 
01090010008000151REP       United States Representative, District 1                Louie Gohmert                         4 - Huxley                                             01 
01090010009000411REP       United States Representative, District 1                Louie Gohmert                         5 - Joaquin                                            01 
01090010010000101REP       United States Representative, District 1                Louie Gohmert                         6 - Dreka                                              01 
01090010011000090REP       United States Representative, District 1                Louie Gohmert                         7 - Shelbyville                                        01 
01090010012000160REP       United States Representative, District 1                Louie Gohmert                         8 - Tenaha                                             01 
01090010013000184REP       United States Representative, District 1                Louie Gohmert                         9N - Timpson                                           01 
01090010014000176REP       United States Representative, District 1                Louie Gohmert                         9S - Timpson                                           01 
01090020001000000REP       United States Representative, District 1                OVER VOTES                            1N - Center                                            01 
01090020002000000REP       United States Representative, District 1                OVER VOTES                            1S - Center                                            01 
01090020003000000REP       United States Representative, District 1                OVER VOTES                            1SE - Center                                           01 
01090020004000000REP       United States Representative, District 1                OVER VOTES                            1SW - Center                                           01 
01090020005000000REP       United States Representative, District 1                OVER VOTES                            1W - Center                                            01 
01090020006000000REP       United States Representative, District 1                OVER VOTES                            2 - Excelsior                                          01 
01090020007000000REP       United States Representative, District 1                OVER VOTES                            3 - Sardis                                             01 
01090020008000000REP       United States Representative, District 1                OVER VOTES                            4 - Huxley                                             01 
01090020009000000REP       United States Representative, District 1                OVER VOTES                            5 - Joaquin                                            01 
01090020010000000REP       United States Representative, District 1                OVER VOTES                            6 - Dreka                                              01 
01090020011000000REP       United States Representative, District 1                OVER VOTES                            7 - Shelbyville                                        01 
01090020012000000REP       United States Representative, District 1                OVER VOTES                            8 - Tenaha                                             01 
01090020013000000REP       United States Representative, District 1                OVER VOTES                            9N - Timpson                                           01 
01090020014000000REP       United States Representative, District 1                OVER VOTES                            9S - Timpson                                           01 
01090030001000057REP       United States Representative, District 1                UNDER VOTES                           1N - Center                                            01 
01090030002000103REP       United States Representative, District 1                UNDER VOTES                           1S - Center                                            01 
01090030003000042REP       United States Representative, District 1                UNDER VOTES                           1SE - Center                                           01 
01090030004000076REP       United States Representative, District 1                UNDER VOTES                           1SW - Center                                           01 
01090030005000019REP       United States Representative, District 1                UNDER VOTES                           1W - Center                                            01 
01090030006000069REP       United States Representative, District 1                UNDER VOTES                           2 - Excelsior                                          01 
01090030007000025REP       United States Representative, District 1                UNDER VOTES                           3 - Sardis                                             01 
01090030008000027REP       United States Representative, District 1                UNDER VOTES                           4 - Huxley                                             01 
01090030009000118REP       United States Representative, District 1                UNDER VOTES                           5 - Joaquin                                            01 
01090030010000033REP       United States Representative, District 1                UNDER VOTES                           6 - Dreka                                              01 
01090030011000030REP       United States Representative, District 1                UNDER VOTES                           7 - Shelbyville                                        01 
01090030012000050REP       United States Representative, District 1                UNDER VOTES                           8 - Tenaha                                             01 
01090030013000042REP       United States Representative, District 1                UNDER VOTES                           9N - Timpson                                           01 
01090030014000052REP       United States Representative, District 1                UNDER VOTES                           9S - Timpson                                           01 
01100010001000048REP       Railroad Commissioner                                   Roland Sledge                         1N - Center                                            01 
01100010002000045REP       Railroad Commissioner                                   Roland Sledge                         1S - Center                                            01 
01100010003000023REP       Railroad Commissioner                                   Roland Sledge                         1SE - Center                                           01 
01100010004000063REP       Railroad Commissioner                                   Roland Sledge                         1SW - Center                                           01 
01100010005000008REP       Railroad Commissioner                                   Roland Sledge                         1W - Center                                            01 
01100010006000024REP       Railroad Commissioner                                   Roland Sledge                         2 - Excelsior                                          01 
01100010007000011REP       Railroad Commissioner                                   Roland Sledge                         3 - Sardis                                             01 
01100010008000023REP       Railroad Commissioner                                   Roland Sledge                         4 - Huxley                                             01 
01100010009000086REP       Railroad Commissioner                                   Roland Sledge                         5 - Joaquin                                            01 
01100010010000011REP       Railroad Commissioner                                   Roland Sledge                         6 - Dreka                                              01 
01100010011000010REP       Railroad Commissioner                                   Roland Sledge                         7 - Shelbyville                                        01 
01100010012000034REP       Railroad Commissioner                                   Roland Sledge                         8 - Tenaha                                             01 
01100010013000028REP       Railroad Commissioner                                   Roland Sledge                         9N - Timpson                                           01 
01100010014000013REP       Railroad Commissioner                                   Roland Sledge                         9S - Timpson                                           01 
01100020001000067REP       Railroad Commissioner                                   Christi Craddick                      1N - Center                                            01 
01100020002000081REP       Railroad Commissioner                                   Christi Craddick                      1S - Center                                            01 
01100020003000033REP       Railroad Commissioner                                   Christi Craddick                      1SE - Center                                           01 
01100020004000065REP       Railroad Commissioner                                   Christi Craddick                      1SW - Center                                           01 
01100020005000014REP       Railroad Commissioner                                   Christi Craddick                      1W - Center                                            01 
01100020006000037REP       Railroad Commissioner                                   Christi Craddick                      2 - Excelsior                                          01 
01100020007000010REP       Railroad Commissioner                                   Christi Craddick                      3 - Sardis                                             01 
01100020008000021REP       Railroad Commissioner                                   Christi Craddick                      4 - Huxley                                             01 
01100020009000072REP       Railroad Commissioner                                   Christi Craddick                      5 - Joaquin                                            01 
01100020010000019REP       Railroad Commissioner                                   Christi Craddick                      6 - Dreka                                              01 
01100020011000022REP       Railroad Commissioner                                   Christi Craddick                      7 - Shelbyville                                        01 
01100020012000030REP       Railroad Commissioner                                   Christi Craddick                      8 - Tenaha                                             01 
01100020013000049REP       Railroad Commissioner                                   Christi Craddick                      9N - Timpson                                           01 
01100020014000028REP       Railroad Commissioner                                   Christi Craddick                      9S - Timpson                                           01 
01100030001000036REP       Railroad Commissioner                                   Becky Berger                          1N - Center                                            01 
01100030002000055REP       Railroad Commissioner                                   Becky Berger                          1S - Center                                            01 
01100030003000012REP       Railroad Commissioner                                   Becky Berger                          1SE - Center                                           01 
01100030004000030REP       Railroad Commissioner                                   Becky Berger                          1SW - Center                                           01 
01100030005000008REP       Railroad Commissioner                                   Becky Berger                          1W - Center                                            01 
01100030006000026REP       Railroad Commissioner                                   Becky Berger                          2 - Excelsior                                          01 
01100030007000003REP       Railroad Commissioner                                   Becky Berger                          3 - Sardis                                             01 
01100030008000012REP       Railroad Commissioner                                   Becky Berger                          4 - Huxley                                             01 
01100030009000040REP       Railroad Commissioner                                   Becky Berger                          5 - Joaquin                                            01 
01100030010000011REP       Railroad Commissioner                                   Becky Berger                          6 - Dreka                                              01 
01100030011000012REP       Railroad Commissioner                                   Becky Berger                          7 - Shelbyville                                        01 
01100030012000018REP       Railroad Commissioner                                   Becky Berger                          8 - Tenaha                                             01 
01100030013000016REP       Railroad Commissioner                                   Becky Berger                          9N - Timpson                                           01 
01100030014000015REP       Railroad Commissioner                                   Becky Berger                          9S - Timpson                                           01 
01100040001000054REP       Railroad Commissioner                                   Joe Cotten                            1N - Center                                            01 
01100040002000087REP       Railroad Commissioner                                   Joe Cotten                            1S - Center                                            01 
01100040003000042REP       Railroad Commissioner                                   Joe Cotten                            1SE - Center                                           01 
01100040004000070REP       Railroad Commissioner                                   Joe Cotten                            1SW - Center                                           01 
01100040005000009REP       Railroad Commissioner                                   Joe Cotten                            1W - Center                                            01 
01100040006000033REP       Railroad Commissioner                                   Joe Cotten                            2 - Excelsior                                          01 
01100040007000018REP       Railroad Commissioner                                   Joe Cotten                            3 - Sardis                                             01 
01100040008000035REP       Railroad Commissioner                                   Joe Cotten                            4 - Huxley                                             01 
01100040009000086REP       Railroad Commissioner                                   Joe Cotten                            5 - Joaquin                                            01 
01100040010000018REP       Railroad Commissioner                                   Joe Cotten                            6 - Dreka                                              01 
01100040011000026REP       Railroad Commissioner                                   Joe Cotten                            7 - Shelbyville                                        01 
01100040012000030REP       Railroad Commissioner                                   Joe Cotten                            8 - Tenaha                                             01 
01100040013000028REP       Railroad Commissioner                                   Joe Cotten                            9N - Timpson                                           01 
01100040014000046REP       Railroad Commissioner                                   Joe Cotten                            9S - Timpson                                           01 
01100050001000012REP       Railroad Commissioner                                   Beryl Burgess                         1N - Center                                            01 
01100050002000010REP       Railroad Commissioner                                   Beryl Burgess                         1S - Center                                            01 
01100050003000008REP       Railroad Commissioner                                   Beryl Burgess                         1SE - Center                                           01 
01100050004000020REP       Railroad Commissioner                                   Beryl Burgess                         1SW - Center                                           01 
01100050005000002REP       Railroad Commissioner                                   Beryl Burgess                         1W - Center                                            01 
01100050006000007REP       Railroad Commissioner                                   Beryl Burgess                         2 - Excelsior                                          01 
01100050007000002REP       Railroad Commissioner                                   Beryl Burgess                         3 - Sardis                                             01 
01100050008000008REP       Railroad Commissioner                                   Beryl Burgess                         4 - Huxley                                             01 
01100050009000030REP       Railroad Commissioner                                   Beryl Burgess                         5 - Joaquin                                            01 
01100050010000005REP       Railroad Commissioner                                   Beryl Burgess                         6 - Dreka                                              01 
01100050011000008REP       Railroad Commissioner                                   Beryl Burgess                         7 - Shelbyville                                        01 
01100050012000003REP       Railroad Commissioner                                   Beryl Burgess                         8 - Tenaha                                             01 
01100050013000009REP       Railroad Commissioner                                   Beryl Burgess                         9N - Timpson                                           01 
01100050014000016REP       Railroad Commissioner                                   Beryl Burgess                         9S - Timpson                                           01 
01100060001000060REP       Railroad Commissioner                                   Warren Chisum                         1N - Center                                            01 
01100060002000066REP       Railroad Commissioner                                   Warren Chisum                         1S - Center                                            01 
01100060003000042REP       Railroad Commissioner                                   Warren Chisum                         1SE - Center                                           01 
01100060004000063REP       Railroad Commissioner                                   Warren Chisum                         1SW - Center                                           01 
01100060005000008REP       Railroad Commissioner                                   Warren Chisum                         1W - Center                                            01 
01100060006000028REP       Railroad Commissioner                                   Warren Chisum                         2 - Excelsior                                          01 
01100060007000024REP       Railroad Commissioner                                   Warren Chisum                         3 - Sardis                                             01 
01100060008000025REP       Railroad Commissioner                                   Warren Chisum                         4 - Huxley                                             01 
01100060009000071REP       Railroad Commissioner                                   Warren Chisum                         5 - Joaquin                                            01 
01100060010000023REP       Railroad Commissioner                                   Warren Chisum                         6 - Dreka                                              01 
01100060011000010REP       Railroad Commissioner                                   Warren Chisum                         7 - Shelbyville                                        01 
01100060012000040REP       Railroad Commissioner                                   Warren Chisum                         8 - Tenaha                                             01 
01100060013000044REP       Railroad Commissioner                                   Warren Chisum                         9N - Timpson                                           01 
01100060014000032REP       Railroad Commissioner                                   Warren Chisum                         9S - Timpson                                           01 
01100070001000001REP       Railroad Commissioner                                   OVER VOTES                            1N - Center                                            01 
01100070002000000REP       Railroad Commissioner                                   OVER VOTES                            1S - Center                                            01 
01100070003000000REP       Railroad Commissioner                                   OVER VOTES                            1SE - Center                                           01 
01100070004000000REP       Railroad Commissioner                                   OVER VOTES                            1SW - Center                                           01 
01100070005000000REP       Railroad Commissioner                                   OVER VOTES                            1W - Center                                            01 
01100070006000000REP       Railroad Commissioner                                   OVER VOTES                            2 - Excelsior                                          01 
01100070007000000REP       Railroad Commissioner                                   OVER VOTES                            3 - Sardis                                             01 
01100070008000000REP       Railroad Commissioner                                   OVER VOTES                            4 - Huxley                                             01 
01100070009000000REP       Railroad Commissioner                                   OVER VOTES                            5 - Joaquin                                            01 
01100070010000000REP       Railroad Commissioner                                   OVER VOTES                            6 - Dreka                                              01 
01100070011000000REP       Railroad Commissioner                                   OVER VOTES                            7 - Shelbyville                                        01 
01100070012000000REP       Railroad Commissioner                                   OVER VOTES                            8 - Tenaha                                             01 
01100070013000000REP       Railroad Commissioner                                   OVER VOTES                            9N - Timpson                                           01 
01100070014000000REP       Railroad Commissioner                                   OVER VOTES                            9S - Timpson                                           01 
01100080001000119REP       Railroad Commissioner                                   UNDER VOTES                           1N - Center                                            01 
01100080002000173REP       Railroad Commissioner                                   UNDER VOTES                           1S - Center                                            01 
01100080003000066REP       Railroad Commissioner                                   UNDER VOTES                           1SE - Center                                           01 
01100080004000130REP       Railroad Commissioner                                   UNDER VOTES                           1SW - Center                                           01 
01100080005000038REP       Railroad Commissioner                                   UNDER VOTES                           1W - Center                                            01 
01100080006000091REP       Railroad Commissioner                                   UNDER VOTES                           2 - Excelsior                                          01 
01100080007000030REP       Railroad Commissioner                                   UNDER VOTES                           3 - Sardis                                             01 
01100080008000054REP       Railroad Commissioner                                   UNDER VOTES                           4 - Huxley                                             01 
01100080009000144REP       Railroad Commissioner                                   UNDER VOTES                           5 - Joaquin                                            01 
01100080010000047REP       Railroad Commissioner                                   UNDER VOTES                           6 - Dreka                                              01 
01100080011000032REP       Railroad Commissioner                                   UNDER VOTES                           7 - Shelbyville                                        01 
01100080012000055REP       Railroad Commissioner                                   UNDER VOTES                           8 - Tenaha                                             01 
01100080013000052REP       Railroad Commissioner                                   UNDER VOTES                           9N - Timpson                                           01 
01100080014000078REP       Railroad Commissioner                                   UNDER VOTES                           9S - Timpson                                           01 
01110010001000036REP       Railroad Commissioner, Unexpired Term                   Al Lee                                1N - Center                                            01 
01110010002000044REP       Railroad Commissioner, Unexpired Term                   Al Lee                                1S - Center                                            01 
01110010003000037REP       Railroad Commissioner, Unexpired Term                   Al Lee                                1SE - Center                                           01 
01110010004000053REP       Railroad Commissioner, Unexpired Term                   Al Lee                                1SW - Center                                           01 
01110010005000012REP       Railroad Commissioner, Unexpired Term                   Al Lee                                1W - Center                                            01 
01110010006000023REP       Railroad Commissioner, Unexpired Term                   Al Lee                                2 - Excelsior                                          01 
01110010007000009REP       Railroad Commissioner, Unexpired Term                   Al Lee                                3 - Sardis                                             01 
01110010008000026REP       Railroad Commissioner, Unexpired Term                   Al Lee                                4 - Huxley                                             01 
01110010009000062REP       Railroad Commissioner, Unexpired Term                   Al Lee                                5 - Joaquin                                            01 
01110010010000019REP       Railroad Commissioner, Unexpired Term                   Al Lee                                6 - Dreka                                              01 
01110010011000020REP       Railroad Commissioner, Unexpired Term                   Al Lee                                7 - Shelbyville                                        01 
01110010012000023REP       Railroad Commissioner, Unexpired Term                   Al Lee                                8 - Tenaha                                             01 
01110010013000026REP       Railroad Commissioner, Unexpired Term                   Al Lee                                9N - Timpson                                           01 
01110010014000023REP       Railroad Commissioner, Unexpired Term                   Al Lee                                9S - Timpson                                           01 
01110020001000064REP       Railroad Commissioner, Unexpired Term                   Elizabeth Murray-Kolb                 1N - Center                                            01 
01110020002000091REP       Railroad Commissioner, Unexpired Term                   Elizabeth Murray-Kolb                 1S - Center                                            01 
01110020003000026REP       Railroad Commissioner, Unexpired Term                   Elizabeth Murray-Kolb                 1SE - Center                                           01 
01110020004000059REP       Railroad Commissioner, Unexpired Term                   Elizabeth Murray-Kolb                 1SW - Center                                           01 
01110020005000015REP       Railroad Commissioner, Unexpired Term                   Elizabeth Murray-Kolb                 1W - Center                                            01 
01110020006000042REP       Railroad Commissioner, Unexpired Term                   Elizabeth Murray-Kolb                 2 - Excelsior                                          01 
01110020007000012REP       Railroad Commissioner, Unexpired Term                   Elizabeth Murray-Kolb                 3 - Sardis                                             01 
01110020008000013REP       Railroad Commissioner, Unexpired Term                   Elizabeth Murray-Kolb                 4 - Huxley                                             01 
01110020009000076REP       Railroad Commissioner, Unexpired Term                   Elizabeth Murray-Kolb                 5 - Joaquin                                            01 
01110020010000015REP       Railroad Commissioner, Unexpired Term                   Elizabeth Murray-Kolb                 6 - Dreka                                              01 
01110020011000019REP       Railroad Commissioner, Unexpired Term                   Elizabeth Murray-Kolb                 7 - Shelbyville                                        01 
01110020012000023REP       Railroad Commissioner, Unexpired Term                   Elizabeth Murray-Kolb                 8 - Tenaha                                             01 
01110020013000038REP       Railroad Commissioner, Unexpired Term                   Elizabeth Murray-Kolb                 9N - Timpson                                           01 
01110020014000027REP       Railroad Commissioner, Unexpired Term                   Elizabeth Murray-Kolb                 9S - Timpson                                           01 
01110030001000107REP       Railroad Commissioner, Unexpired Term                   Greg Parker                           1N - Center                                            01 
01110030002000110REP       Railroad Commissioner, Unexpired Term                   Greg Parker                           1S - Center                                            01 
01110030003000058REP       Railroad Commissioner, Unexpired Term                   Greg Parker                           1SE - Center                                           01 
01110030004000121REP       Railroad Commissioner, Unexpired Term                   Greg Parker                           1SW - Center                                           01 
01110030005000015REP       Railroad Commissioner, Unexpired Term                   Greg Parker                           1W - Center                                            01 
01110030006000058REP       Railroad Commissioner, Unexpired Term                   Greg Parker                           2 - Excelsior                                          01 
01110030007000023REP       Railroad Commissioner, Unexpired Term                   Greg Parker                           3 - Sardis                                             01 
01110030008000047REP       Railroad Commissioner, Unexpired Term                   Greg Parker                           4 - Huxley                                             01 
01110030009000168REP       Railroad Commissioner, Unexpired Term                   Greg Parker                           5 - Joaquin                                            01 
01110030010000035REP       Railroad Commissioner, Unexpired Term                   Greg Parker                           6 - Dreka                                              01 
01110030011000031REP       Railroad Commissioner, Unexpired Term                   Greg Parker                           7 - Shelbyville                                        01 
01110030012000073REP       Railroad Commissioner, Unexpired Term                   Greg Parker                           8 - Tenaha                                             01 
01110030013000071REP       Railroad Commissioner, Unexpired Term                   Greg Parker                           9N - Timpson                                           01 
01110030014000062REP       Railroad Commissioner, Unexpired Term                   Greg Parker                           9S - Timpson                                           01 
01110040001000069REP       Railroad Commissioner, Unexpired Term                   Barry Smitherman                      1N - Center                                            01 
01110040002000083REP       Railroad Commissioner, Unexpired Term                   Barry Smitherman                      1S - Center                                            01 
01110040003000028REP       Railroad Commissioner, Unexpired Term                   Barry Smitherman                      1SE - Center                                           01 
01110040004000062REP       Railroad Commissioner, Unexpired Term                   Barry Smitherman                      1SW - Center                                           01 
01110040005000007REP       Railroad Commissioner, Unexpired Term                   Barry Smitherman                      1W - Center                                            01 
01110040006000024REP       Railroad Commissioner, Unexpired Term                   Barry Smitherman                      2 - Excelsior                                          01 
01110040007000017REP       Railroad Commissioner, Unexpired Term                   Barry Smitherman                      3 - Sardis                                             01 
01110040008000032REP       Railroad Commissioner, Unexpired Term                   Barry Smitherman                      4 - Huxley                                             01 
01110040009000067REP       Railroad Commissioner, Unexpired Term                   Barry Smitherman                      5 - Joaquin                                            01 
01110040010000014REP       Railroad Commissioner, Unexpired Term                   Barry Smitherman                      6 - Dreka                                              01 
01110040011000012REP       Railroad Commissioner, Unexpired Term                   Barry Smitherman                      7 - Shelbyville                                        01 
01110040012000029REP       Railroad Commissioner, Unexpired Term                   Barry Smitherman                      8 - Tenaha                                             01 
01110040013000037REP       Railroad Commissioner, Unexpired Term                   Barry Smitherman                      9N - Timpson                                           01 
01110040014000029REP       Railroad Commissioner, Unexpired Term                   Barry Smitherman                      9S - Timpson                                           01 
01110050001000000REP       Railroad Commissioner, Unexpired Term                   OVER VOTES                            1N - Center                                            01 
01110050002000000REP       Railroad Commissioner, Unexpired Term                   OVER VOTES                            1S - Center                                            01 
01110050003000000REP       Railroad Commissioner, Unexpired Term                   OVER VOTES                            1SE - Center                                           01 
01110050004000000REP       Railroad Commissioner, Unexpired Term                   OVER VOTES                            1SW - Center                                           01 
01110050005000000REP       Railroad Commissioner, Unexpired Term                   OVER VOTES                            1W - Center                                            01 
01110050006000000REP       Railroad Commissioner, Unexpired Term                   OVER VOTES                            2 - Excelsior                                          01 
01110050007000000REP       Railroad Commissioner, Unexpired Term                   OVER VOTES                            3 - Sardis                                             01 
01110050008000000REP       Railroad Commissioner, Unexpired Term                   OVER VOTES                            4 - Huxley                                             01 
01110050009000000REP       Railroad Commissioner, Unexpired Term                   OVER VOTES                            5 - Joaquin                                            01 
01110050010000000REP       Railroad Commissioner, Unexpired Term                   OVER VOTES                            6 - Dreka                                              01 
01110050011000000REP       Railroad Commissioner, Unexpired Term                   OVER VOTES                            7 - Shelbyville                                        01 
01110050012000000REP       Railroad Commissioner, Unexpired Term                   OVER VOTES                            8 - Tenaha                                             01 
01110050013000000REP       Railroad Commissioner, Unexpired Term                   OVER VOTES                            9N - Timpson                                           01 
01110050014000000REP       Railroad Commissioner, Unexpired Term                   OVER VOTES                            9S - Timpson                                           01 
01110060001000121REP       Railroad Commissioner, Unexpired Term                   UNDER VOTES                           1N - Center                                            01 
01110060002000189REP       Railroad Commissioner, Unexpired Term                   UNDER VOTES                           1S - Center                                            01 
01110060003000077REP       Railroad Commissioner, Unexpired Term                   UNDER VOTES                           1SE - Center                                           01 
01110060004000146REP       Railroad Commissioner, Unexpired Term                   UNDER VOTES                           1SW - Center                                           01 
01110060005000038REP       Railroad Commissioner, Unexpired Term                   UNDER VOTES                           1W - Center                                            01 
01110060006000099REP       Railroad Commissioner, Unexpired Term                   UNDER VOTES                           2 - Excelsior                                          01 
01110060007000037REP       Railroad Commissioner, Unexpired Term                   UNDER VOTES                           3 - Sardis                                             01 
01110060008000060REP       Railroad Commissioner, Unexpired Term                   UNDER VOTES                           4 - Huxley                                             01 
01110060009000156REP       Railroad Commissioner, Unexpired Term                   UNDER VOTES                           5 - Joaquin                                            01 
01110060010000051REP       Railroad Commissioner, Unexpired Term                   UNDER VOTES                           6 - Dreka                                              01 
01110060011000038REP       Railroad Commissioner, Unexpired Term                   UNDER VOTES                           7 - Shelbyville                                        01 
01110060012000062REP       Railroad Commissioner, Unexpired Term                   UNDER VOTES                           8 - Tenaha                                             01 
01110060013000054REP       Railroad Commissioner, Unexpired Term                   UNDER VOTES                           9N - Timpson                                           01 
01110060014000087REP       Railroad Commissioner, Unexpired Term                   UNDER VOTES                           9S - Timpson                                           01 
01120010001000172REP       Justice, Supreme Court, Place 2                         Steve Smith                           1N - Center                                            01 
01120010002000209REP       Justice, Supreme Court, Place 2                         Steve Smith                           1S - Center                                            01 
01120010003000091REP       Justice, Supreme Court, Place 2                         Steve Smith                           1SE - Center                                           01 
01120010004000194REP       Justice, Supreme Court, Place 2                         Steve Smith                           1SW - Center                                           01 
01120010005000032REP       Justice, Supreme Court, Place 2                         Steve Smith                           1W - Center                                            01 
01120010006000096REP       Justice, Supreme Court, Place 2                         Steve Smith                           2 - Excelsior                                          01 
01120010007000040REP       Justice, Supreme Court, Place 2                         Steve Smith                           3 - Sardis                                             01 
01120010008000081REP       Justice, Supreme Court, Place 2                         Steve Smith                           4 - Huxley                                             01 
01120010009000258REP       Justice, Supreme Court, Place 2                         Steve Smith                           5 - Joaquin                                            01 
01120010010000064REP       Justice, Supreme Court, Place 2                         Steve Smith                           6 - Dreka                                              01 
01120010011000069REP       Justice, Supreme Court, Place 2                         Steve Smith                           7 - Shelbyville                                        01 
01120010012000103REP       Justice, Supreme Court, Place 2                         Steve Smith                           8 - Tenaha                                             01 
01120010013000102REP       Justice, Supreme Court, Place 2                         Steve Smith                           9N - Timpson                                           01 
01120010014000095REP       Justice, Supreme Court, Place 2                         Steve Smith                           9S - Timpson                                           01 
01120020001000103REP       Justice, Supreme Court, Place 2                         Don Willett                           1N - Center                                            01 
01120020002000116REP       Justice, Supreme Court, Place 2                         Don Willett                           1S - Center                                            01 
01120020003000054REP       Justice, Supreme Court, Place 2                         Don Willett                           1SE - Center                                           01 
01120020004000116REP       Justice, Supreme Court, Place 2                         Don Willett                           1SW - Center                                           01 
01120020005000014REP       Justice, Supreme Court, Place 2                         Don Willett                           1W - Center                                            01 
01120020006000047REP       Justice, Supreme Court, Place 2                         Don Willett                           2 - Excelsior                                          01 
01120020007000023REP       Justice, Supreme Court, Place 2                         Don Willett                           3 - Sardis                                             01 
01120020008000037REP       Justice, Supreme Court, Place 2                         Don Willett                           4 - Huxley                                             01 
01120020009000118REP       Justice, Supreme Court, Place 2                         Don Willett                           5 - Joaquin                                            01 
01120020010000020REP       Justice, Supreme Court, Place 2                         Don Willett                           6 - Dreka                                              01 
01120020011000012REP       Justice, Supreme Court, Place 2                         Don Willett                           7 - Shelbyville                                        01 
01120020012000052REP       Justice, Supreme Court, Place 2                         Don Willett                           8 - Tenaha                                             01 
01120020013000063REP       Justice, Supreme Court, Place 2                         Don Willett                           9N - Timpson                                           01 
01120020014000048REP       Justice, Supreme Court, Place 2                         Don Willett                           9S - Timpson                                           01 
01120030001000000REP       Justice, Supreme Court, Place 2                         OVER VOTES                            1N - Center                                            01 
01120030002000000REP       Justice, Supreme Court, Place 2                         OVER VOTES                            1S - Center                                            01 
01120030003000000REP       Justice, Supreme Court, Place 2                         OVER VOTES                            1SE - Center                                           01 
01120030004000000REP       Justice, Supreme Court, Place 2                         OVER VOTES                            1SW - Center                                           01 
01120030005000000REP       Justice, Supreme Court, Place 2                         OVER VOTES                            1W - Center                                            01 
01120030006000000REP       Justice, Supreme Court, Place 2                         OVER VOTES                            2 - Excelsior                                          01 
01120030007000000REP       Justice, Supreme Court, Place 2                         OVER VOTES                            3 - Sardis                                             01 
01120030008000000REP       Justice, Supreme Court, Place 2                         OVER VOTES                            4 - Huxley                                             01 
01120030009000000REP       Justice, Supreme Court, Place 2                         OVER VOTES                            5 - Joaquin                                            01 
01120030010000000REP       Justice, Supreme Court, Place 2                         OVER VOTES                            6 - Dreka                                              01 
01120030011000000REP       Justice, Supreme Court, Place 2                         OVER VOTES                            7 - Shelbyville                                        01 
01120030012000000REP       Justice, Supreme Court, Place 2                         OVER VOTES                            8 - Tenaha                                             01 
01120030013000000REP       Justice, Supreme Court, Place 2                         OVER VOTES                            9N - Timpson                                           01 
01120030014000000REP       Justice, Supreme Court, Place 2                         OVER VOTES                            9S - Timpson                                           01 
01120040001000122REP       Justice, Supreme Court, Place 2                         UNDER VOTES                           1N - Center                                            01 
01120040002000192REP       Justice, Supreme Court, Place 2                         UNDER VOTES                           1S - Center                                            01 
01120040003000081REP       Justice, Supreme Court, Place 2                         UNDER VOTES                           1SE - Center                                           01 
01120040004000131REP       Justice, Supreme Court, Place 2                         UNDER VOTES                           1SW - Center                                           01 
01120040005000041REP       Justice, Supreme Court, Place 2                         UNDER VOTES                           1W - Center                                            01 
01120040006000103REP       Justice, Supreme Court, Place 2                         UNDER VOTES                           2 - Excelsior                                          01 
01120040007000035REP       Justice, Supreme Court, Place 2                         UNDER VOTES                           3 - Sardis                                             01 
01120040008000060REP       Justice, Supreme Court, Place 2                         UNDER VOTES                           4 - Huxley                                             01 
01120040009000153REP       Justice, Supreme Court, Place 2                         UNDER VOTES                           5 - Joaquin                                            01 
01120040010000050REP       Justice, Supreme Court, Place 2                         UNDER VOTES                           6 - Dreka                                              01 
01120040011000039REP       Justice, Supreme Court, Place 2                         UNDER VOTES                           7 - Shelbyville                                        01 
01120040012000055REP       Justice, Supreme Court, Place 2                         UNDER VOTES                           8 - Tenaha                                             01 
01120040013000061REP       Justice, Supreme Court, Place 2                         UNDER VOTES                           9N - Timpson                                           01 
01120040014000085REP       Justice, Supreme Court, Place 2                         UNDER VOTES                           9S - Timpson                                           01 
01130010001000109REP       Justice, Supreme Court, Place 4                         Joe Pool, Jr.                         1N - Center                                            01 
01130010002000150REP       Justice, Supreme Court, Place 4                         Joe Pool, Jr.                         1S - Center                                            01 
01130010003000065REP       Justice, Supreme Court, Place 4                         Joe Pool, Jr.                         1SE - Center                                           01 
01130010004000127REP       Justice, Supreme Court, Place 4                         Joe Pool, Jr.                         1SW - Center                                           01 
01130010005000023REP       Justice, Supreme Court, Place 4                         Joe Pool, Jr.                         1W - Center                                            01 
01130010006000065REP       Justice, Supreme Court, Place 4                         Joe Pool, Jr.                         2 - Excelsior                                          01 
01130010007000033REP       Justice, Supreme Court, Place 4                         Joe Pool, Jr.                         3 - Sardis                                             01 
01130010008000064REP       Justice, Supreme Court, Place 4                         Joe Pool, Jr.                         4 - Huxley                                             01 
01130010009000164REP       Justice, Supreme Court, Place 4                         Joe Pool, Jr.                         5 - Joaquin                                            01 
01130010010000049REP       Justice, Supreme Court, Place 4                         Joe Pool, Jr.                         6 - Dreka                                              01 
01130010011000047REP       Justice, Supreme Court, Place 4                         Joe Pool, Jr.                         7 - Shelbyville                                        01 
01130010012000084REP       Justice, Supreme Court, Place 4                         Joe Pool, Jr.                         8 - Tenaha                                             01 
01130010013000066REP       Justice, Supreme Court, Place 4                         Joe Pool, Jr.                         9N - Timpson                                           01 
01130010014000053REP       Justice, Supreme Court, Place 4                         Joe Pool, Jr.                         9S - Timpson                                           01 
01130020001000109REP       Justice, Supreme Court, Place 4                         David Medina                          1N - Center                                            01 
01130020002000104REP       Justice, Supreme Court, Place 4                         David Medina                          1S - Center                                            01 
01130020003000045REP       Justice, Supreme Court, Place 4                         David Medina                          1SE - Center                                           01 
01130020004000102REP       Justice, Supreme Court, Place 4                         David Medina                          1SW - Center                                           01 
01130020005000013REP       Justice, Supreme Court, Place 4                         David Medina                          1W - Center                                            01 
01130020006000056REP       Justice, Supreme Court, Place 4                         David Medina                          2 - Excelsior                                          01 
01130020007000010REP       Justice, Supreme Court, Place 4                         David Medina                          3 - Sardis                                             01 
01130020008000031REP       Justice, Supreme Court, Place 4                         David Medina                          4 - Huxley                                             01 
01130020009000110REP       Justice, Supreme Court, Place 4                         David Medina                          5 - Joaquin                                            01 
01130020010000020REP       Justice, Supreme Court, Place 4                         David Medina                          6 - Dreka                                              01 
01130020011000020REP       Justice, Supreme Court, Place 4                         David Medina                          7 - Shelbyville                                        01 
01130020012000033REP       Justice, Supreme Court, Place 4                         David Medina                          8 - Tenaha                                             01 
01130020013000075REP       Justice, Supreme Court, Place 4                         David Medina                          9N - Timpson                                           01 
01130020014000054REP       Justice, Supreme Court, Place 4                         David Medina                          9S - Timpson                                           01 
01130030001000059REP       Justice, Supreme Court, Place 4                         John Devine                           1N - Center                                            01 
01130030002000069REP       Justice, Supreme Court, Place 4                         John Devine                           1S - Center                                            01 
01130030003000034REP       Justice, Supreme Court, Place 4                         John Devine                           1SE - Center                                           01 
01130030004000058REP       Justice, Supreme Court, Place 4                         John Devine                           1SW - Center                                           01 
01130030005000011REP       Justice, Supreme Court, Place 4                         John Devine                           1W - Center                                            01 
01130030006000028REP       Justice, Supreme Court, Place 4                         John Devine                           2 - Excelsior                                          01 
01130030007000019REP       Justice, Supreme Court, Place 4                         John Devine                           3 - Sardis                                             01 
01130030008000019REP       Justice, Supreme Court, Place 4                         John Devine                           4 - Huxley                                             01 
01130030009000096REP       Justice, Supreme Court, Place 4                         John Devine                           5 - Joaquin                                            01 
01130030010000015REP       Justice, Supreme Court, Place 4                         John Devine                           6 - Dreka                                              01 
01130030011000014REP       Justice, Supreme Court, Place 4                         John Devine                           7 - Shelbyville                                        01 
01130030012000031REP       Justice, Supreme Court, Place 4                         John Devine                           8 - Tenaha                                             01 
01130030013000027REP       Justice, Supreme Court, Place 4                         John Devine                           9N - Timpson                                           01 
01130030014000035REP       Justice, Supreme Court, Place 4                         John Devine                           9S - Timpson                                           01 
01130040001000000REP       Justice, Supreme Court, Place 4                         OVER VOTES                            1N - Center                                            01 
01130040002000000REP       Justice, Supreme Court, Place 4                         OVER VOTES                            1S - Center                                            01 
01130040003000001REP       Justice, Supreme Court, Place 4                         OVER VOTES                            1SE - Center                                           01 
01130040004000001REP       Justice, Supreme Court, Place 4                         OVER VOTES                            1SW - Center                                           01 
01130040005000000REP       Justice, Supreme Court, Place 4                         OVER VOTES                            1W - Center                                            01 
01130040006000000REP       Justice, Supreme Court, Place 4                         OVER VOTES                            2 - Excelsior                                          01 
01130040007000000REP       Justice, Supreme Court, Place 4                         OVER VOTES                            3 - Sardis                                             01 
01130040008000000REP       Justice, Supreme Court, Place 4                         OVER VOTES                            4 - Huxley                                             01 
01130040009000000REP       Justice, Supreme Court, Place 4                         OVER VOTES                            5 - Joaquin                                            01 
01130040010000000REP       Justice, Supreme Court, Place 4                         OVER VOTES                            6 - Dreka                                              01 
01130040011000000REP       Justice, Supreme Court, Place 4                         OVER VOTES                            7 - Shelbyville                                        01 
01130040012000000REP       Justice, Supreme Court, Place 4                         OVER VOTES                            8 - Tenaha                                             01 
01130040013000000REP       Justice, Supreme Court, Place 4                         OVER VOTES                            9N - Timpson                                           01 
01130040014000000REP       Justice, Supreme Court, Place 4                         OVER VOTES                            9S - Timpson                                           01 
01130050001000120REP       Justice, Supreme Court, Place 4                         UNDER VOTES                           1N - Center                                            01 
01130050002000194REP       Justice, Supreme Court, Place 4                         UNDER VOTES                           1S - Center                                            01 
01130050003000081REP       Justice, Supreme Court, Place 4                         UNDER VOTES                           1SE - Center                                           01 
01130050004000153REP       Justice, Supreme Court, Place 4                         UNDER VOTES                           1SW - Center                                           01 
01130050005000040REP       Justice, Supreme Court, Place 4                         UNDER VOTES                           1W - Center                                            01 
01130050006000097REP       Justice, Supreme Court, Place 4                         UNDER VOTES                           2 - Excelsior                                          01 
01130050007000036REP       Justice, Supreme Court, Place 4                         UNDER VOTES                           3 - Sardis                                             01 
01130050008000064REP       Justice, Supreme Court, Place 4                         UNDER VOTES                           4 - Huxley                                             01 
01130050009000159REP       Justice, Supreme Court, Place 4                         UNDER VOTES                           5 - Joaquin                                            01 
01130050010000050REP       Justice, Supreme Court, Place 4                         UNDER VOTES                           6 - Dreka                                              01 
01130050011000039REP       Justice, Supreme Court, Place 4                         UNDER VOTES                           7 - Shelbyville                                        01 
01130050012000062REP       Justice, Supreme Court, Place 4                         UNDER VOTES                           8 - Tenaha                                             01 
01130050013000058REP       Justice, Supreme Court, Place 4                         UNDER VOTES                           9N - Timpson                                           01 
01130050014000086REP       Justice, Supreme Court, Place 4                         UNDER VOTES                           9S - Timpson                                           01 
01140010001000275REP       Justice, Supreme Court, Place 6                         Nathan Hecht                          1N - Center                                            01 
01140010002000318REP       Justice, Supreme Court, Place 6                         Nathan Hecht                          1S - Center                                            01 
01140010003000148REP       Justice, Supreme Court, Place 6                         Nathan Hecht                          1SE - Center                                           01 
01140010004000279REP       Justice, Supreme Court, Place 6                         Nathan Hecht                          1SW - Center                                           01 
01140010005000041REP       Justice, Supreme Court, Place 6                         Nathan Hecht                          1W - Center                                            01 
01140010006000135REP       Justice, Supreme Court, Place 6                         Nathan Hecht                          2 - Excelsior                                          01 
01140010007000055REP       Justice, Supreme Court, Place 6                         Nathan Hecht                          3 - Sardis                                             01 
01140010008000116REP       Justice, Supreme Court, Place 6                         Nathan Hecht                          4 - Huxley                                             01 
01140010009000347REP       Justice, Supreme Court, Place 6                         Nathan Hecht                          5 - Joaquin                                            01 
01140010010000076REP       Justice, Supreme Court, Place 6                         Nathan Hecht                          6 - Dreka                                              01 
01140010011000076REP       Justice, Supreme Court, Place 6                         Nathan Hecht                          7 - Shelbyville                                        01 
01140010012000133REP       Justice, Supreme Court, Place 6                         Nathan Hecht                          8 - Tenaha                                             01 
01140010013000151REP       Justice, Supreme Court, Place 6                         Nathan Hecht                          9N - Timpson                                           01 
01140010014000133REP       Justice, Supreme Court, Place 6                         Nathan Hecht                          9S - Timpson                                           01 
01140020001000000REP       Justice, Supreme Court, Place 6                         OVER VOTES                            1N - Center                                            01 
01140020002000000REP       Justice, Supreme Court, Place 6                         OVER VOTES                            1S - Center                                            01 
01140020003000000REP       Justice, Supreme Court, Place 6                         OVER VOTES                            1SE - Center                                           01 
01140020004000000REP       Justice, Supreme Court, Place 6                         OVER VOTES                            1SW - Center                                           01 
01140020005000000REP       Justice, Supreme Court, Place 6                         OVER VOTES                            1W - Center                                            01 
01140020006000000REP       Justice, Supreme Court, Place 6                         OVER VOTES                            2 - Excelsior                                          01 
01140020007000000REP       Justice, Supreme Court, Place 6                         OVER VOTES                            3 - Sardis                                             01 
01140020008000000REP       Justice, Supreme Court, Place 6                         OVER VOTES                            4 - Huxley                                             01 
01140020009000000REP       Justice, Supreme Court, Place 6                         OVER VOTES                            5 - Joaquin                                            01 
01140020010000000REP       Justice, Supreme Court, Place 6                         OVER VOTES                            6 - Dreka                                              01 
01140020011000000REP       Justice, Supreme Court, Place 6                         OVER VOTES                            7 - Shelbyville                                        01 
01140020012000000REP       Justice, Supreme Court, Place 6                         OVER VOTES                            8 - Tenaha                                             01 
01140020013000000REP       Justice, Supreme Court, Place 6                         OVER VOTES                            9N - Timpson                                           01 
01140020014000000REP       Justice, Supreme Court, Place 6                         OVER VOTES                            9S - Timpson                                           01 
01140030001000122REP       Justice, Supreme Court, Place 6                         UNDER VOTES                           1N - Center                                            01 
01140030002000199REP       Justice, Supreme Court, Place 6                         UNDER VOTES                           1S - Center                                            01 
01140030003000078REP       Justice, Supreme Court, Place 6                         UNDER VOTES                           1SE - Center                                           01 
01140030004000162REP       Justice, Supreme Court, Place 6                         UNDER VOTES                           1SW - Center                                           01 
01140030005000046REP       Justice, Supreme Court, Place 6                         UNDER VOTES                           1W - Center                                            01 
01140030006000111REP       Justice, Supreme Court, Place 6                         UNDER VOTES                           2 - Excelsior                                          01 
