01010010001000000          REGISTERED VOTERS - TOTAL                               REGISTERED VOTERS - TOTAL             PRECINCT #1                                            00 
01010010002000000          REGISTERED VOTERS - TOTAL                               REGISTERED VOTERS - TOTAL             PRECINCT #2                                            00 
01010010003000000          REGISTERED VOTERS - TOTAL                               REGISTERED VOTERS - TOTAL             PRECINCT #3                                            00 
01010010004000000          REGISTERED VOTERS - TOTAL                               REGISTERED VOTERS - TOTAL             PRECINCT #4                                            00 
01020010001000000REP       REGISTERED VOTERS - REPUBLICAN PARTY                    REGISTERED VOTERS - REPUBLICAN PARTY  PRECINCT #1                                            00 
01020010002000000REP       REGISTERED VOTERS - REPUBLICAN PARTY                    REGISTERED VOTERS - REPUBLICAN PARTY  PRECINCT #2                                            00 
01020010003000000REP       REGISTERED VOTERS - REPUBLICAN PARTY                    REGISTERED VOTERS - REPUBLICAN PARTY  PRECINCT #3                                            00 
01020010004000000REP       REGISTERED VOTERS - REPUBLICAN PARTY                    REGISTERED VOTERS - REPUBLICAN PARTY  PRECINCT #4                                            00 
01030010001000000DEM       REGISTERED VOTERS - DEMOCRATIC PARTY                    REGISTERED VOTERS - DEMOCRATIC PARTY  PRECINCT #1                                            00 
01030010002000000DEM       REGISTERED VOTERS - DEMOCRATIC PARTY                    REGISTERED VOTERS - DEMOCRATIC PARTY  PRECINCT #2                                            00 
01030010003000000DEM       REGISTERED VOTERS - DEMOCRATIC PARTY                    REGISTERED VOTERS - DEMOCRATIC PARTY  PRECINCT #3                                            00 
01030010004000000DEM       REGISTERED VOTERS - DEMOCRATIC PARTY                    REGISTERED VOTERS - DEMOCRATIC PARTY  PRECINCT #4                                            00 
01040010001000085          BALLOTS CAST - TOTAL                                    BALLOTS CAST - TOTAL                  PRECINCT #1                                            00 
01040010002000022          BALLOTS CAST - TOTAL                                    BALLOTS CAST - TOTAL                  PRECINCT #2                                            00 
01040010003000032          BALLOTS CAST - TOTAL                                    BALLOTS CAST - TOTAL                  PRECINCT #3                                            00 
01040010004000028          BALLOTS CAST - TOTAL                                    BALLOTS CAST - TOTAL                  PRECINCT #4                                            00 
01050010001000065REP       BALLOTS CAST - REPUBLICAN PARTY                         BALLOTS CAST - REPUBLICAN PARTY       PRECINCT #1                                            00 
01050010002000008REP       BALLOTS CAST - REPUBLICAN PARTY                         BALLOTS CAST - REPUBLICAN PARTY       PRECINCT #2                                            00 
01050010003000004REP       BALLOTS CAST - REPUBLICAN PARTY                         BALLOTS CAST - REPUBLICAN PARTY       PRECINCT #3                                            00 
01050010004000006REP       BALLOTS CAST - REPUBLICAN PARTY                         BALLOTS CAST - REPUBLICAN PARTY       PRECINCT #4                                            00 
01060010001000020DEM       BALLOTS CAST - DEMOCRATIC PARTY                         BALLOTS CAST - DEMOCRATIC PARTY       PRECINCT #1                                            00 
01060010002000014DEM       BALLOTS CAST - DEMOCRATIC PARTY                         BALLOTS CAST - DEMOCRATIC PARTY       PRECINCT #2                                            00 
01060010003000028DEM       BALLOTS CAST - DEMOCRATIC PARTY                         BALLOTS CAST - DEMOCRATIC PARTY       PRECINCT #3                                            00 
01060010004000022DEM       BALLOTS CAST - DEMOCRATIC PARTY                         BALLOTS CAST - DEMOCRATIC PARTY       PRECINCT #4                                            00 
01070010001000000REP       President                                               John Davis                            PRECINCT #1                                            01 
01070010002000000REP       President                                               John Davis                            PRECINCT #2                                            01 
01070010003000000REP       President                                               John Davis                            PRECINCT #3                                            01 
01070010004000000REP       President                                               John Davis                            PRECINCT #4                                            01 
01070020001000000REP       President                                               Jon Huntsman                          PRECINCT #1                                            01 
01070020002000000REP       President                                               Jon Huntsman                          PRECINCT #2                                            01 
01070020003000000REP       President                                               Jon Huntsman                          PRECINCT #3                                            01 
01070020004000000REP       President                                               Jon Huntsman                          PRECINCT #4                                            01 
01070030001000052REP       President                                               Mitt Romney                           PRECINCT #1                                            01 
01070030002000006REP       President                                               Mitt Romney                           PRECINCT #2                                            01 
01070030003000002REP       President                                               Mitt Romney                           PRECINCT #3                                            01 
01070030004000005REP       President                                               Mitt Romney                           PRECINCT #4                                            01 
01070040001000000REP       President                                               Charles "Buddy" Roemer                PRECINCT #1                                            01 
01070040002000000REP       President                                               Charles "Buddy" Roemer                PRECINCT #2                                            01 
01070040003000000REP       President                                               Charles "Buddy" Roemer                PRECINCT #3                                            01 
01070040004000000REP       President                                               Charles "Buddy" Roemer                PRECINCT #4                                            01 
01070050001000000REP       President                                               Michele Bachmann                      PRECINCT #1                                            01 
01070050002000000REP       President                                               Michele Bachmann                      PRECINCT #2                                            01 
01070050003000000REP       President                                               Michele Bachmann                      PRECINCT #3                                            01 
01070050004000000REP       President                                               Michele Bachmann                      PRECINCT #4                                            01 
01070060001000003REP       President                                               Newt Gingrich                         PRECINCT #1                                            01 
01070060002000000REP       President                                               Newt Gingrich                         PRECINCT #2                                            01 
01070060003000000REP       President                                               Newt Gingrich                         PRECINCT #3                                            01 
01070060004000000REP       President                                               Newt Gingrich                         PRECINCT #4                                            01 
01070070001000002REP       President                                               Ron Paul                              PRECINCT #1                                            01 
01070070002000002REP       President                                               Ron Paul                              PRECINCT #2                                            01 
01070070003000000REP       President                                               Ron Paul                              PRECINCT #3                                            01 
01070070004000001REP       President                                               Ron Paul                              PRECINCT #4                                            01 
01070080001000005REP       President                                               Rick Santorum                         PRECINCT #1                                            01 
01070080002000000REP       President                                               Rick Santorum                         PRECINCT #2                                            01 
01070080003000002REP       President                                               Rick Santorum                         PRECINCT #3                                            01 
01070080004000000REP       President                                               Rick Santorum                         PRECINCT #4                                            01 
01070090001000002REP       President                                               Uncommitted                           PRECINCT #1                                            01 
01070090002000000REP       President                                               Uncommitted                           PRECINCT #2                                            01 
01070090003000000REP       President                                               Uncommitted                           PRECINCT #3                                            01 
01070090004000000REP       President                                               Uncommitted                           PRECINCT #4                                            01 
01070100001000000REP       President                                               OVER VOTES                            PRECINCT #1                                            01 
01070100002000000REP       President                                               OVER VOTES                            PRECINCT #2                                            01 
01070100003000000REP       President                                               OVER VOTES                            PRECINCT #3                                            01 
01070100004000000REP       President                                               OVER VOTES                            PRECINCT #4                                            01 
01070110001000001REP       President                                               UNDER VOTES                           PRECINCT #1                                            01 
01070110002000000REP       President                                               UNDER VOTES                           PRECINCT #2                                            01 
01070110003000000REP       President                                               UNDER VOTES                           PRECINCT #3                                            01 
01070110004000000REP       President                                               UNDER VOTES                           PRECINCT #4                                            01 
01080010001000001REP       United States Senator                                   Lela Pittenger                        PRECINCT #1                                            01 
01080010002000000REP       United States Senator                                   Lela Pittenger                        PRECINCT #2                                            01 
01080010003000000REP       United States Senator                                   Lela Pittenger                        PRECINCT #3                                            01 
01080010004000000REP       United States Senator                                   Lela Pittenger                        PRECINCT #4                                            01 
01080020001000001REP       United States Senator                                   Ben Gambini                           PRECINCT #1                                            01 
01080020002000000REP       United States Senator                                   Ben Gambini                           PRECINCT #2                                            01 
01080020003000000REP       United States Senator                                   Ben Gambini                           PRECINCT #3                                            01 
01080020004000000REP       United States Senator                                   Ben Gambini                           PRECINCT #4                                            01 
01080030001000034REP       United States Senator                                   David Dewhurst                        PRECINCT #1                                            01 
01080030002000003REP       United States Senator                                   David Dewhurst                        PRECINCT #2                                            01 
01080030003000000REP       United States Senator                                   David Dewhurst                        PRECINCT #3                                            01 
01080030004000004REP       United States Senator                                   David Dewhurst                        PRECINCT #4                                            01 
01080040001000002REP       United States Senator                                   Tom Leppert                           PRECINCT #1                                            01 
01080040002000000REP       United States Senator                                   Tom Leppert                           PRECINCT #2                                            01 
01080040003000000REP       United States Senator                                   Tom Leppert                           PRECINCT #3                                            01 
01080040004000000REP       United States Senator                                   Tom Leppert                           PRECINCT #4                                            01 
01080050001000000REP       United States Senator                                   Glenn Addison                         PRECINCT #1                                            01 
01080050002000000REP       United States Senator                                   Glenn Addison                         PRECINCT #2                                            01 
01080050003000001REP       United States Senator                                   Glenn Addison                         PRECINCT #3                                            01 
01080050004000000REP       United States Senator                                   Glenn Addison                         PRECINCT #4                                            01 
01080060001000000REP       United States Senator                                   Joe Agris                             PRECINCT #1                                            01 
01080060002000000REP       United States Senator                                   Joe Agris                             PRECINCT #2                                            01 
01080060003000000REP       United States Senator                                   Joe Agris                             PRECINCT #3                                            01 
01080060004000000REP       United States Senator                                   Joe Agris                             PRECINCT #4                                            01 
01080070001000000REP       United States Senator                                   Craig James                           PRECINCT #1                                            01 
01080070002000000REP       United States Senator                                   Craig James                           PRECINCT #2                                            01 
01080070003000000REP       United States Senator                                   Craig James                           PRECINCT #3                                            01 
01080070004000000REP       United States Senator                                   Craig James                           PRECINCT #4                                            01 
01080080001000019REP       United States Senator                                   Ted Cruz                              PRECINCT #1                                            01 
01080080002000005REP       United States Senator                                   Ted Cruz                              PRECINCT #2                                            01 
01080080003000002REP       United States Senator                                   Ted Cruz                              PRECINCT #3                                            01 
01080080004000002REP       United States Senator                                   Ted Cruz                              PRECINCT #4                                            01 
01080090001000000REP       United States Senator                                   Curt Cleaver                          PRECINCT #1                                            01 
01080090002000000REP       United States Senator                                   Curt Cleaver                          PRECINCT #2                                            01 
01080090003000000REP       United States Senator                                   Curt Cleaver                          PRECINCT #3                                            01 
01080090004000000REP       United States Senator                                   Curt Cleaver                          PRECINCT #4                                            01 
01080100001000000REP       United States Senator                                   OVER VOTES                            PRECINCT #1                                            01 
01080100002000000REP       United States Senator                                   OVER VOTES                            PRECINCT #2                                            01 
01080100003000000REP       United States Senator                                   OVER VOTES                            PRECINCT #3                                            01 
01080100004000000REP       United States Senator                                   OVER VOTES                            PRECINCT #4                                            01 
01080110001000008REP       United States Senator                                   UNDER VOTES                           PRECINCT #1                                            01 
01080110002000000REP       United States Senator                                   UNDER VOTES                           PRECINCT #2                                            01 
01080110003000001REP       United States Senator                                   UNDER VOTES                           PRECINCT #3                                            01 
01080110004000000REP       United States Senator                                   UNDER VOTES                           PRECINCT #4                                            01 
01090010001000051REP       United States Representative, Dist 19                   Randy Neugebauer                      PRECINCT #1                                            01 
01090010002000005REP       United States Representative, Dist 19                   Randy Neugebauer                      PRECINCT #2                                            01 
01090010003000002REP       United States Representative, Dist 19                   Randy Neugebauer                      PRECINCT #3                                            01 
01090010004000005REP       United States Representative, Dist 19                   Randy Neugebauer                      PRECINCT #4                                            01 
01090020001000004REP       United States Representative, Dist 19                   Chris Winn                            PRECINCT #1                                            01 
01090020002000003REP       United States Representative, Dist 19                   Chris Winn                            PRECINCT #2                                            01 
01090020003000001REP       United States Representative, Dist 19                   Chris Winn                            PRECINCT #3                                            01 
01090020004000001REP       United States Representative, Dist 19                   Chris Winn                            PRECINCT #4                                            01 
01090030001000000REP       United States Representative, Dist 19                   OVER VOTES                            PRECINCT #1                                            01 
01090030002000000REP       United States Representative, Dist 19                   OVER VOTES                            PRECINCT #2                                            01 
01090030003000000REP       United States Representative, Dist 19                   OVER VOTES                            PRECINCT #3                                            01 
01090030004000000REP       United States Representative, Dist 19                   OVER VOTES                            PRECINCT #4                                            01 
01090040001000010REP       United States Representative, Dist 19                   UNDER VOTES                           PRECINCT #1                                            01 
01090040002000000REP       United States Representative, Dist 19                   UNDER VOTES                           PRECINCT #2                                            01 
01090040003000001REP       United States Representative, Dist 19                   UNDER VOTES                           PRECINCT #3                                            01 
01090040004000000REP       United States Representative, Dist 19                   UNDER VOTES                           PRECINCT #4                                            01 
01100010001000007REP       Railroad Commissioner                                   Beryl Burgess                         PRECINCT #1                                            01 
01100010002000001REP       Railroad Commissioner                                   Beryl Burgess                         PRECINCT #2                                            01 
01100010003000000REP       Railroad Commissioner                                   Beryl Burgess                         PRECINCT #3                                            01 
01100010004000000REP       Railroad Commissioner                                   Beryl Burgess                         PRECINCT #4                                            01 
01100020001000002REP       Railroad Commissioner                                   Roland Sledge                         PRECINCT #1                                            01 
01100020002000002REP       Railroad Commissioner                                   Roland Sledge                         PRECINCT #2                                            01 
01100020003000000REP       Railroad Commissioner                                   Roland Sledge                         PRECINCT #3                                            01 
01100020004000001REP       Railroad Commissioner                                   Roland Sledge                         PRECINCT #4                                            01 
01100030001000017REP       Railroad Commissioner                                   Christi Craddick                      PRECINCT #1                                            01 
01100030002000001REP       Railroad Commissioner                                   Christi Craddick                      PRECINCT #2                                            01 
01100030003000000REP       Railroad Commissioner                                   Christi Craddick                      PRECINCT #3                                            01 
01100030004000000REP       Railroad Commissioner                                   Christi Craddick                      PRECINCT #4                                            01 
01100040001000014REP       Railroad Commissioner                                   Warren Chisum                         PRECINCT #1                                            01 
01100040002000001REP       Railroad Commissioner                                   Warren Chisum                         PRECINCT #2                                            01 
01100040003000001REP       Railroad Commissioner                                   Warren Chisum                         PRECINCT #3                                            01 
01100040004000003REP       Railroad Commissioner                                   Warren Chisum                         PRECINCT #4                                            01 
01100050001000005REP       Railroad Commissioner                                   Becky Berger                          PRECINCT #1                                            01 
01100050002000002REP       Railroad Commissioner                                   Becky Berger                          PRECINCT #2                                            01 
01100050003000001REP       Railroad Commissioner                                   Becky Berger                          PRECINCT #3                                            01 
01100050004000002REP       Railroad Commissioner                                   Becky Berger                          PRECINCT #4                                            01 
01100060001000000REP       Railroad Commissioner                                   Joe Cotten                            PRECINCT #1                                            01 
01100060002000000REP       Railroad Commissioner                                   Joe Cotten                            PRECINCT #2                                            01 
01100060003000000REP       Railroad Commissioner                                   Joe Cotten                            PRECINCT #3                                            01 
01100060004000000REP       Railroad Commissioner                                   Joe Cotten                            PRECINCT #4                                            01 
01100070001000000REP       Railroad Commissioner                                   OVER VOTES                            PRECINCT #1                                            01 
01100070002000000REP       Railroad Commissioner                                   OVER VOTES                            PRECINCT #2                                            01 
01100070003000000REP       Railroad Commissioner                                   OVER VOTES                            PRECINCT #3                                            01 
01100070004000000REP       Railroad Commissioner                                   OVER VOTES                            PRECINCT #4                                            01 
01100080001000020REP       Railroad Commissioner                                   UNDER VOTES                           PRECINCT #1                                            01 
01100080002000001REP       Railroad Commissioner                                   UNDER VOTES                           PRECINCT #2                                            01 
01100080003000002REP       Railroad Commissioner                                   UNDER VOTES                           PRECINCT #3                                            01 
01100080004000000REP       Railroad Commissioner                                   UNDER VOTES                           PRECINCT #4                                            01 
01110010001000007REP       Railroad Commissioner, Unexpired Term                   Barry Smitherman                      PRECINCT #1                                            01 
01110010002000004REP       Railroad Commissioner, Unexpired Term                   Barry Smitherman                      PRECINCT #2                                            01 
01110010003000000REP       Railroad Commissioner, Unexpired Term                   Barry Smitherman                      PRECINCT #3                                            01 
01110010004000001REP       Railroad Commissioner, Unexpired Term                   Barry Smitherman                      PRECINCT #4                                            01 
01110020001000014REP       Railroad Commissioner, Unexpired Term                   Elizabeth Murray-Kolb                 PRECINCT #1                                            01 
01110020002000002REP       Railroad Commissioner, Unexpired Term                   Elizabeth Murray-Kolb                 PRECINCT #2                                            01 
01110020003000001REP       Railroad Commissioner, Unexpired Term                   Elizabeth Murray-Kolb                 PRECINCT #3                                            01 
01110020004000002REP       Railroad Commissioner, Unexpired Term                   Elizabeth Murray-Kolb                 PRECINCT #4                                            01 
01110030001000002REP       Railroad Commissioner, Unexpired Term                   Al Lee                                PRECINCT #1                                            01 
01110030002000000REP       Railroad Commissioner, Unexpired Term                   Al Lee                                PRECINCT #2                                            01 
01110030003000000REP       Railroad Commissioner, Unexpired Term                   Al Lee                                PRECINCT #3                                            01 
01110030004000000REP       Railroad Commissioner, Unexpired Term                   Al Lee                                PRECINCT #4                                            01 
01110040001000016REP       Railroad Commissioner, Unexpired Term                   Greg Parker                           PRECINCT #1                                            01 
01110040002000001REP       Railroad Commissioner, Unexpired Term                   Greg Parker                           PRECINCT #2                                            01 
01110040003000001REP       Railroad Commissioner, Unexpired Term                   Greg Parker                           PRECINCT #3                                            01 
01110040004000003REP       Railroad Commissioner, Unexpired Term                   Greg Parker                           PRECINCT #4                                            01 
01110050001000000REP       Railroad Commissioner, Unexpired Term                   OVER VOTES                            PRECINCT #1                                            01 
01110050002000000REP       Railroad Commissioner, Unexpired Term                   OVER VOTES                            PRECINCT #2                                            01 
01110050003000000REP       Railroad Commissioner, Unexpired Term                   OVER VOTES                            PRECINCT #3                                            01 
01110050004000000REP       Railroad Commissioner, Unexpired Term                   OVER VOTES                            PRECINCT #4                                            01 
01110060001000026REP       Railroad Commissioner, Unexpired Term                   UNDER VOTES                           PRECINCT #1                                            01 
01110060002000001REP       Railroad Commissioner, Unexpired Term                   UNDER VOTES                           PRECINCT #2                                            01 
01110060003000002REP       Railroad Commissioner, Unexpired Term                   UNDER VOTES                           PRECINCT #3                                            01 
01110060004000000REP       Railroad Commissioner, Unexpired Term                   UNDER VOTES                           PRECINCT #4                                            01 
01120010001000022REP       Justice, Supreme Court, Place 2                         Steve Smith                           PRECINCT #1                                            01 
01120010002000005REP       Justice, Supreme Court, Place 2                         Steve Smith                           PRECINCT #2                                            01 
01120010003000000REP       Justice, Supreme Court, Place 2                         Steve Smith                           PRECINCT #3                                            01 
01120010004000005REP       Justice, Supreme Court, Place 2                         Steve Smith                           PRECINCT #4                                            01 
01120020001000017REP       Justice, Supreme Court, Place 2                         Don Willett                           PRECINCT #1                                            01 
01120020002000001REP       Justice, Supreme Court, Place 2                         Don Willett                           PRECINCT #2                                            01 
01120020003000002REP       Justice, Supreme Court, Place 2                         Don Willett                           PRECINCT #3                                            01 
01120020004000001REP       Justice, Supreme Court, Place 2                         Don Willett                           PRECINCT #4                                            01 
01120030001000000REP       Justice, Supreme Court, Place 2                         OVER VOTES                            PRECINCT #1                                            01 
01120030002000000REP       Justice, Supreme Court, Place 2                         OVER VOTES                            PRECINCT #2                                            01 
01120030003000000REP       Justice, Supreme Court, Place 2                         OVER VOTES                            PRECINCT #3                                            01 
01120030004000000REP       Justice, Supreme Court, Place 2                         OVER VOTES                            PRECINCT #4                                            01 
01120040001000026REP       Justice, Supreme Court, Place 2                         UNDER VOTES                           PRECINCT #1                                            01 
01120040002000002REP       Justice, Supreme Court, Place 2                         UNDER VOTES                           PRECINCT #2                                            01 
01120040003000002REP       Justice, Supreme Court, Place 2                         UNDER VOTES                           PRECINCT #3                                            01 
01120040004000000REP       Justice, Supreme Court, Place 2                         UNDER VOTES                           PRECINCT #4                                            01 
01130010001000013REP       Justice, Supreme Court, Place 4                         John Devine                           PRECINCT #1                                            01 
01130010002000002REP       Justice, Supreme Court, Place 4                         John Devine                           PRECINCT #2                                            01 
01130010003000000REP       Justice, Supreme Court, Place 4                         John Devine                           PRECINCT #3                                            01 
01130010004000004REP       Justice, Supreme Court, Place 4                         John Devine                           PRECINCT #4                                            01 
01130020001000017REP       Justice, Supreme Court, Place 4                         Joe Pool, Jr.                         PRECINCT #1                                            01 
01130020002000005REP       Justice, Supreme Court, Place 4                         Joe Pool, Jr.                         PRECINCT #2                                            01 
01130020003000002REP       Justice, Supreme Court, Place 4                         Joe Pool, Jr.                         PRECINCT #3                                            01 
01130020004000002REP       Justice, Supreme Court, Place 4                         Joe Pool, Jr.                         PRECINCT #4                                            01 
01130030001000009REP       Justice, Supreme Court, Place 4                         David Medina                          PRECINCT #1                                            01 
01130030002000000REP       Justice, Supreme Court, Place 4                         David Medina                          PRECINCT #2                                            01 
01130030003000000REP       Justice, Supreme Court, Place 4                         David Medina                          PRECINCT #3                                            01 
01130030004000000REP       Justice, Supreme Court, Place 4                         David Medina                          PRECINCT #4                                            01 
01130040001000000REP       Justice, Supreme Court, Place 4                         OVER VOTES                            PRECINCT #1                                            01 
01130040002000000REP       Justice, Supreme Court, Place 4                         OVER VOTES                            PRECINCT #2                                            01 
01130040003000000REP       Justice, Supreme Court, Place 4                         OVER VOTES                            PRECINCT #3                                            01 
01130040004000000REP       Justice, Supreme Court, Place 4                         OVER VOTES                            PRECINCT #4                                            01 
01130050001000026REP       Justice, Supreme Court, Place 4                         UNDER VOTES                           PRECINCT #1                                            01 
01130050002000001REP       Justice, Supreme Court, Place 4                         UNDER VOTES                           PRECINCT #2                                            01 
01130050003000002REP       Justice, Supreme Court, Place 4                         UNDER VOTES                           PRECINCT #3                                            01 
01130050004000000REP       Justice, Supreme Court, Place 4                         UNDER VOTES                           PRECINCT #4                                            01 
01140010001000035REP       Justice, Supreme Court, Place 6                         Nathan Hecht                          PRECINCT #1                                            01 
01140010002000008REP       Justice, Supreme Court, Place 6                         Nathan Hecht                          PRECINCT #2                                            01 
01140010003000002REP       Justice, Supreme Court, Place 6                         Nathan Hecht                          PRECINCT #3                                            01 
01140010004000005REP       Justice, Supreme Court, Place 6                         Nathan Hecht                          PRECINCT #4                                            01 
01140020001000000REP       Justice, Supreme Court, Place 6                         OVER VOTES                            PRECINCT #1                                            01 
01140020002000000REP       Justice, Supreme Court, Place 6                         OVER VOTES                            PRECINCT #2                                            01 
01140020003000000REP       Justice, Supreme Court, Place 6                         OVER VOTES                            PRECINCT #3                                            01 
01140020004000000REP       Justice, Supreme Court, Place 6                         OVER VOTES                            PRECINCT #4                                            01 
01140030001000030REP       Justice, Supreme Court, Place 6                         UNDER VOTES                           PRECINCT #1                                            01 
01140030002000000REP       Justice, Supreme Court, Place 6                         UNDER VOTES                           PRECINCT #2                                            01 
01140030003000002REP       Justice, Supreme Court, Place 6                         UNDER VOTES                           PRECINCT #3                                            01 
01140030004000001REP       Justice, Supreme Court, Place 6                         UNDER VOTES                           PRECINCT #4                                            01 
01150010001000038REP       Presiding Judge, CT of Criminal Appeals                 Sharon  Keller                        PRECINCT #1                                            01 
01150010002000008REP       Presiding Judge, CT of Criminal Appeals                 Sharon  Keller                        PRECINCT #2                                            01 
01150010003000002REP       Presiding Judge, CT of Criminal Appeals                 Sharon  Keller                        PRECINCT #3                                            01 
01150010004000005REP       Presiding Judge, CT of Criminal Appeals                 Sharon  Keller                        PRECINCT #4                                            01 
01150020001000000REP       Presiding Judge, CT of Criminal Appeals                 OVER VOTES                            PRECINCT #1                                            01 
01150020002000000REP       Presiding Judge, CT of Criminal Appeals                 OVER VOTES                            PRECINCT #2                                            01 
01150020003000000REP       Presiding Judge, CT of Criminal Appeals                 OVER VOTES                            PRECINCT #3                                            01 
01150020004000000REP       Presiding Judge, CT of Criminal Appeals                 OVER VOTES                            PRECINCT #4                                            01 
01150030001000027REP       Presiding Judge, CT of Criminal Appeals                 UNDER VOTES                           PRECINCT #1                                            01 
01150030002000000REP       Presiding Judge, CT of Criminal Appeals                 UNDER VOTES                           PRECINCT #2                                            01 
01150030003000002REP       Presiding Judge, CT of Criminal Appeals                 UNDER VOTES                           PRECINCT #3                                            01 
01150030004000001REP       Presiding Judge, CT of Criminal Appeals                 UNDER VOTES                           PRECINCT #4                                            01 
01160010001000036REP       Judge, Court of Criminal Appeals, Pl 7                  Barbara Parker Hervey                 PRECINCT #1                                            01 
01160010002000008REP       Judge, Court of Criminal Appeals, Pl 7                  Barbara Parker Hervey                 PRECINCT #2                                            01 
01160010003000002REP       Judge, Court of Criminal Appeals, Pl 7                  Barbara Parker Hervey                 PRECINCT #3                                            01 
01160010004000005REP       Judge, Court of Criminal Appeals, Pl 7                  Barbara Parker Hervey                 PRECINCT #4                                            01 
01160020001000000REP       Judge, Court of Criminal Appeals, Pl 7                  OVER VOTES                            PRECINCT #1                                            01 
01160020002000000REP       Judge, Court of Criminal Appeals, Pl 7                  OVER VOTES                            PRECINCT #2                                            01 
01160020003000000REP       Judge, Court of Criminal Appeals, Pl 7                  OVER VOTES                            PRECINCT #3                                            01 
01160020004000000REP       Judge, Court of Criminal Appeals, Pl 7                  OVER VOTES                            PRECINCT #4                                            01 
01160030001000029REP       Judge, Court of Criminal Appeals, Pl 7                  UNDER VOTES                           PRECINCT #1                                            01 
01160030002000000REP       Judge, Court of Criminal Appeals, Pl 7                  UNDER VOTES                           PRECINCT #2                                            01 
01160030003000002REP       Judge, Court of Criminal Appeals, Pl 7                  UNDER VOTES                           PRECINCT #3                                            01 
01160030004000001REP       Judge, Court of Criminal Appeals, Pl 7                  UNDER VOTES                           PRECINCT #4                                            01 
01170010001000032REP       Judge, Court of Criminal Appeals, Pl 8                  Elsa Alcala                           PRECINCT #1                                            01 
01170010002000008REP       Judge, Court of Criminal Appeals, Pl 8                  Elsa Alcala                           PRECINCT #2                                            01 
01170010003000002REP       Judge, Court of Criminal Appeals, Pl 8                  Elsa Alcala                           PRECINCT #3                                            01 
01170010004000004REP       Judge, Court of Criminal Appeals, Pl 8                  Elsa Alcala                           PRECINCT #4                                            01 
01170020001000000REP       Judge, Court of Criminal Appeals, Pl 8                  OVER VOTES                            PRECINCT #1                                            01 
01170020002000000REP       Judge, Court of Criminal Appeals, Pl 8                  OVER VOTES                            PRECINCT #2                                            01 
01170020003000000REP       Judge, Court of Criminal Appeals, Pl 8                  OVER VOTES                            PRECINCT #3                                            01 
01170020004000000REP       Judge, Court of Criminal Appeals, Pl 8                  OVER VOTES                            PRECINCT #4                                            01 
01170030001000033REP       Judge, Court of Criminal Appeals, Pl 8                  UNDER VOTES                           PRECINCT #1                                            01 
01170030002000000REP       Judge, Court of Criminal Appeals, Pl 8                  UNDER VOTES                           PRECINCT #2                                            01 
01170030003000002REP       Judge, Court of Criminal Appeals, Pl 8                  UNDER VOTES                           PRECINCT #3                                            01 
01170030004000002REP       Judge, Court of Criminal Appeals, Pl 8                  UNDER VOTES                           PRECINCT #4                                            01 
01180010001000022REP       Member, State BoE, DIST 15                              Marty Rowley                          PRECINCT #1                                            01 
01180010002000004REP       Member, State BoE, DIST 15                              Marty Rowley                          PRECINCT #2                                            01 
01180010003000000REP       Member, State BoE, DIST 15                              Marty Rowley                          PRECINCT #3                                            01 
01180010004000002REP       Member, State BoE, DIST 15                              Marty Rowley                          PRECINCT #4                                            01 
01180020001000019REP       Member, State BoE, DIST 15                              Anette Carlisle                       PRECINCT #1                                            01 
01180020002000002REP       Member, State BoE, DIST 15                              Anette Carlisle                       PRECINCT #2                                            01 
01180020003000002REP       Member, State BoE, DIST 15                              Anette Carlisle                       PRECINCT #3                                            01 
01180020004000003REP       Member, State BoE, DIST 15                              Anette Carlisle                       PRECINCT #4                                            01 
01180030001000000REP       Member, State BoE, DIST 15                              OVER VOTES                            PRECINCT #1                                            01 
01180030002000000REP       Member, State BoE, DIST 15                              OVER VOTES                            PRECINCT #2                                            01 
01180030003000000REP       Member, State BoE, DIST 15                              OVER VOTES                            PRECINCT #3                                            01 
01180030004000000REP       Member, State BoE, DIST 15                              OVER VOTES                            PRECINCT #4                                            01 
01180040001000024REP       Member, State BoE, DIST 15                              UNDER VOTES                           PRECINCT #1                                            01 
01180040002000002REP       Member, State BoE, DIST 15                              UNDER VOTES                           PRECINCT #2                                            01 
01180040003000002REP       Member, State BoE, DIST 15                              UNDER VOTES                           PRECINCT #3                                            01 
01180040004000001REP       Member, State BoE, DIST 15                              UNDER VOTES                           PRECINCT #4                                            01 
01190010001000041REP       State Senator, District 28                              Robert Duncan                         PRECINCT #1                                            01 
01190010002000005REP       State Senator, District 28                              Robert Duncan                         PRECINCT #2                                            01 
01190010003000003REP       State Senator, District 28                              Robert Duncan                         PRECINCT #3                                            01 
01190010004000005REP       State Senator, District 28                              Robert Duncan                         PRECINCT #4                                            01 
01190020001000007REP       State Senator, District 28                              E.M. Garza                            PRECINCT #1                                            01 
01190020002000003REP       State Senator, District 28                              E.M. Garza                            PRECINCT #2                                            01 
01190020003000000REP       State Senator, District 28                              E.M. Garza                            PRECINCT #3                                            01 
01190020004000001REP       State Senator, District 28                              E.M. Garza                            PRECINCT #4                                            01 
01190030001000000REP       State Senator, District 28                              OVER VOTES                            PRECINCT #1                                            01 
01190030002000000REP       State Senator, District 28                              OVER VOTES                            PRECINCT #2                                            01 
01190030003000000REP       State Senator, District 28                              OVER VOTES                            PRECINCT #3                                            01 
01190030004000000REP       State Senator, District 28                              OVER VOTES                            PRECINCT #4                                            01 
01190040001000017REP       State Senator, District 28                              UNDER VOTES                           PRECINCT #1                                            01 
01190040002000000REP       State Senator, District 28                              UNDER VOTES                           PRECINCT #2                                            01 
01190040003000001REP       State Senator, District 28                              UNDER VOTES                           PRECINCT #3                                            01 
01190040004000000REP       State Senator, District 28                              UNDER VOTES                           PRECINCT #4                                            01 
01200010001000017REP       State Representative, District 68                       Drew Springer                         PRECINCT #1                                            01 
01200010002000000REP       State Representative, District 68                       Drew Springer                         PRECINCT #2                                            01 
01200010003000002REP       State Representative, District 68                       Drew Springer                         PRECINCT #3                                            01 
01200010004000000REP       State Representative, District 68                       Drew Springer                         PRECINCT #4                                            01 
01200020001000033REP       State Representative, District 68                       Trent McKnight                        PRECINCT #1                                            01 
01200020002000008REP       State Representative, District 68                       Trent McKnight                        PRECINCT #2                                            01 
01200020003000000REP       State Representative, District 68                       Trent McKnight                        PRECINCT #3                                            01 
01200020004000006REP       State Representative, District 68                       Trent McKnight                        PRECINCT #4                                            01 
01200030001000002REP       State Representative, District 68                       David Isbell                          PRECINCT #1                                            01 
01200030002000000REP       State Representative, District 68                       David Isbell                          PRECINCT #2                                            01 
01200030003000000REP       State Representative, District 68                       David Isbell                          PRECINCT #3                                            01 
01200030004000000REP       State Representative, District 68                       David Isbell                          PRECINCT #4                                            01 
01200040001000002REP       State Representative, District 68                       Paul Braswell                         PRECINCT #1                                            01 
01200040002000000REP       State Representative, District 68                       Paul Braswell                         PRECINCT #2                                            01 
01200040003000000REP       State Representative, District 68                       Paul Braswell                         PRECINCT #3                                            01 
01200040004000000REP       State Representative, District 68                       Paul Braswell                         PRECINCT #4                                            01 
01200050001000000REP       State Representative, District 68                       OVER VOTES                            PRECINCT #1                                            01 
01200050002000000REP       State Representative, District 68                       OVER VOTES                            PRECINCT #2                                            01 
01200050003000000REP       State Representative, District 68                       OVER VOTES                            PRECINCT #3                                            01 
01200050004000000REP       State Representative, District 68                       OVER VOTES                            PRECINCT #4                                            01 
01200060001000011REP       State Representative, District 68                       UNDER VOTES                           PRECINCT #1                                            01 
01200060002000000REP       State Representative, District 68                       UNDER VOTES                           PRECINCT #2                                            01 
01200060003000002REP       State Representative, District 68                       UNDER VOTES                           PRECINCT #3                                            01 
01200060004000000REP       State Representative, District 68                       UNDER VOTES                           PRECINCT #4                                            01 
01210010001000035REP       Chief Justice, 11th Court of Appeals                    JIm R. Wright                         PRECINCT #1                                            01 
01210010002000008REP       Chief Justice, 11th Court of Appeals                    JIm R. Wright                         PRECINCT #2                                            01 
01210010003000002REP       Chief Justice, 11th Court of Appeals                    JIm R. Wright                         PRECINCT #3                                            01 
01210010004000005REP       Chief Justice, 11th Court of Appeals                    JIm R. Wright                         PRECINCT #4                                            01 
01210020001000000REP       Chief Justice, 11th Court of Appeals                    OVER VOTES                            PRECINCT #1                                            01 
01210020002000000REP       Chief Justice, 11th Court of Appeals                    OVER VOTES                            PRECINCT #2                                            01 
01210020003000000REP       Chief Justice, 11th Court of Appeals                    OVER VOTES                            PRECINCT #3                                            01 
01210020004000000REP       Chief Justice, 11th Court of Appeals                    OVER VOTES                            PRECINCT #4                                            01 
01210030001000030REP       Chief Justice, 11th Court of Appeals                    UNDER VOTES                           PRECINCT #1                                            01 
01210030002000000REP       Chief Justice, 11th Court of Appeals                    UNDER VOTES                           PRECINCT #2                                            01 
01210030003000002REP       Chief Justice, 11th Court of Appeals                    UNDER VOTES                           PRECINCT #3                                            01 
01210030004000001REP       Chief Justice, 11th Court of Appeals                    UNDER VOTES                           PRECINCT #4                                            01 
01220010001000030REP       11th Court of Appeals District, Place 2                 Mike Willson                          PRECINCT #1                                            01 
01220010002000004REP       11th Court of Appeals District, Place 2                 Mike Willson                          PRECINCT #2                                            01 
01220010003000002REP       11th Court of Appeals District, Place 2                 Mike Willson                          PRECINCT #3                                            01 
01220010004000004REP       11th Court of Appeals District, Place 2                 Mike Willson                          PRECINCT #4                                            01 
01220020001000011REP       11th Court of Appeals District, Place 2                 Eric Kalenak                          PRECINCT #1                                            01 
01220020002000000REP       11th Court of Appeals District, Place 2                 Eric Kalenak                          PRECINCT #2                                            01 
01220020003000000REP       11th Court of Appeals District, Place 2                 Eric Kalenak                          PRECINCT #3                                            01 
01220020004000002REP       11th Court of Appeals District, Place 2                 Eric Kalenak                          PRECINCT #4                                            01 
01220030001000000REP       11th Court of Appeals District, Place 2                 OVER VOTES                            PRECINCT #1                                            01 
01220030002000000REP       11th Court of Appeals District, Place 2                 OVER VOTES                            PRECINCT #2                                            01 
01220030003000000REP       11th Court of Appeals District, Place 2                 OVER VOTES                            PRECINCT #3                                            01 
01220030004000000REP       11th Court of Appeals District, Place 2                 OVER VOTES                            PRECINCT #4                                            01 
01220040001000024REP       11th Court of Appeals District, Place 2                 UNDER VOTES                           PRECINCT #1                                            01 
01220040002000004REP       11th Court of Appeals District, Place 2                 UNDER VOTES                           PRECINCT #2                                            01 
01220040003000002REP       11th Court of Appeals District, Place 2                 UNDER VOTES                           PRECINCT #3                                            01 
01220040004000000REP       11th Court of Appeals District, Place 2                 UNDER VOTES                           PRECINCT #4                                            01 
01230010001000001DEM       President                                               Bob Ely                               PRECINCT #1                                            01 
01230010002000002DEM       President                                               Bob Ely                               PRECINCT #2                                            01 
01230010003000006DEM       President                                               Bob Ely                               PRECINCT #3                                            01 
01230010004000001DEM       President                                               Bob Ely                               PRECINCT #4                                            01 
01230020001000001DEM       President                                               John Wolfe                            PRECINCT #1                                            01 
01230020002000004DEM       President                                               John Wolfe                            PRECINCT #2                                            01 
01230020003000001DEM       President                                               John Wolfe                            PRECINCT #3                                            01 
01230020004000003DEM       President                                               John Wolfe                            PRECINCT #4                                            01 
01230030001000004DEM       President                                               Barack Obama                          PRECINCT #1                                            01 
01230030002000003DEM       President                                               Barack Obama                          PRECINCT #2                                            01 
01230030003000009DEM       President                                               Barack Obama                          PRECINCT #3                                            01 
01230030004000011DEM       President                                               Barack Obama                          PRECINCT #4                                            01 
01230040001000003DEM       President                                               Darcy G. Richardson                   PRECINCT #1                                            01 
01230040002000002DEM       President                                               Darcy G. Richardson                   PRECINCT #2                                            01 
01230040003000002DEM       President                                               Darcy G. Richardson                   PRECINCT #3                                            01 
01230040004000001DEM       President                                               Darcy G. Richardson                   PRECINCT #4                                            01 
01230050001000000DEM       President                                               OVER VOTES                            PRECINCT #1                                            01 
01230050002000000DEM       President                                               OVER VOTES                            PRECINCT #2                                            01 
01230050003000000DEM       President                                               OVER VOTES                            PRECINCT #3                                            01 
01230050004000000DEM       President                                               OVER VOTES                            PRECINCT #4                                            01 
01230060001000011DEM       President                                               UNDER VOTES                           PRECINCT #1                                            01 
01230060002000003DEM       President                                               UNDER VOTES                           PRECINCT #2                                            01 
01230060003000010DEM       President                                               UNDER VOTES                           PRECINCT #3                                            01 
01230060004000006DEM       President                                               UNDER VOTES                           PRECINCT #4                                            01 
01240010001000002DEM       United States Senator                                   Sean Hubbard                          PRECINCT #1                                            01 
01240010002000003DEM       United States Senator                                   Sean Hubbard                          PRECINCT #2                                            01 
01240010003000001DEM       United States Senator                                   Sean Hubbard                          PRECINCT #3                                            01 
01240010004000006DEM       United States Senator                                   Sean Hubbard                          PRECINCT #4                                            01 
01240020001000000DEM       United States Senator                                   Addie Dainell Allen                   PRECINCT #1                                            01 
01240020002000002DEM       United States Senator                                   Addie Dainell Allen                   PRECINCT #2                                            01 
01240020003000001DEM       United States Senator                                   Addie Dainell Allen                   PRECINCT #3                                            01 
01240020004000001DEM       United States Senator                                   Addie Dainell Allen                   PRECINCT #4                                            01 
01240030001000003DEM       United States Senator                                   Paul Sadler                           PRECINCT #1                                            01 
01240030002000002DEM       United States Senator                                   Paul Sadler                           PRECINCT #2                                            01 
01240030003000009DEM       United States Senator                                   Paul Sadler                           PRECINCT #3                                            01 
01240030004000007DEM       United States Senator                                   Paul Sadler                           PRECINCT #4                                            01 
01240040001000004DEM       United States Senator                                   Grady Yarbrough                       PRECINCT #1                                            01 
01240040002000004DEM       United States Senator                                   Grady Yarbrough                       PRECINCT #2                                            01 
01240040003000007DEM       United States Senator                                   Grady Yarbrough                       PRECINCT #3                                            01 
01240040004000005DEM       United States Senator                                   Grady Yarbrough                       PRECINCT #4                                            01 
01240050001000001DEM       United States Senator                                   OVER VOTES                            PRECINCT #1                                            01 
01240050002000000DEM       United States Senator                                   OVER VOTES                            PRECINCT #2                                            01 
01240050003000000DEM       United States Senator                                   OVER VOTES                            PRECINCT #3                                            01 
01240050004000000DEM       United States Senator                                   OVER VOTES                            PRECINCT #4                                            01 
01240060001000010DEM       United States Senator                                   UNDER VOTES                           PRECINCT #1                                            01 
01240060002000003DEM       United States Senator                                   UNDER VOTES                           PRECINCT #2                                            01 
01240060003000010DEM       United States Senator                                   UNDER VOTES                           PRECINCT #3                                            01 
01240060004000003DEM       United States Senator                                   UNDER VOTES                           PRECINCT #4                                            01 
01250010001000009DEM       Railroad Commissioner                                   Dale Henry                            PRECINCT #1                                            01 
01250010002000008DEM       Railroad Commissioner                                   Dale Henry                            PRECINCT #2                                            01 
01250010003000020DEM       Railroad Commissioner                                   Dale Henry                            PRECINCT #3                                            01 
01250010004000017DEM       Railroad Commissioner                                   Dale Henry                            PRECINCT #4                                            01 
01250020001000000DEM       Railroad Commissioner                                   OVER VOTES                            PRECINCT #1                                            01 
01250020002000000DEM       Railroad Commissioner                                   OVER VOTES                            PRECINCT #2                                            01 
01250020003000000DEM       Railroad Commissioner                                   OVER VOTES                            PRECINCT #3                                            01 
01250020004000000DEM       Railroad Commissioner                                   OVER VOTES                            PRECINCT #4                                            01 
01250030001000011DEM       Railroad Commissioner                                   UNDER VOTES                           PRECINCT #1                                            01 
01250030002000006DEM       Railroad Commissioner                                   UNDER VOTES                           PRECINCT #2                                            01 
01250030003000008DEM       Railroad Commissioner                                   UNDER VOTES                           PRECINCT #3                                            01 
01250030004000005DEM       Railroad Commissioner                                   UNDER VOTES                           PRECINCT #4                                            01 
01260010001000011DEM       Justice, Supreme Court, Place 6                         Michele Petty                         PRECINCT #1                                            01 
01260010002000007DEM       Justice, Supreme Court, Place 6                         Michele Petty                         PRECINCT #2                                            01 
01260010003000019DEM       Justice, Supreme Court, Place 6                         Michele Petty                         PRECINCT #3                                            01 
01260010004000017DEM       Justice, Supreme Court, Place 6                         Michele Petty                         PRECINCT #4                                            01 
01260020001000000DEM       Justice, Supreme Court, Place 6                         OVER VOTES                            PRECINCT #1                                            01 
01260020002000000DEM       Justice, Supreme Court, Place 6                         OVER VOTES                            PRECINCT #2                                            01 
01260020003000000DEM       Justice, Supreme Court, Place 6                         OVER VOTES                            PRECINCT #3                                            01 
01260020004000000DEM       Justice, Supreme Court, Place 6                         OVER VOTES                            PRECINCT #4                                            01 
01260030001000009DEM       Justice, Supreme Court, Place 6                         UNDER VOTES                           PRECINCT #1                                            01 
01260030002000007DEM       Justice, Supreme Court, Place 6                         UNDER VOTES                           PRECINCT #2                                            01 
01260030003000009DEM       Justice, Supreme Court, Place 6                         UNDER VOTES                           PRECINCT #3                                            01 
01260030004000005DEM       Justice, Supreme Court, Place 6                         UNDER VOTES                           PRECINCT #4                                            01 
01270010001000010DEM       Presiding Judge, CT of Criminal Appeals                 Keith Hampton                         PRECINCT #1                                            01 
01270010002000007DEM       Presiding Judge, CT of Criminal Appeals                 Keith Hampton                         PRECINCT #2                                            01 
01270010003000019DEM       Presiding Judge, CT of Criminal Appeals                 Keith Hampton                         PRECINCT #3                                            01 
01270010004000017DEM       Presiding Judge, CT of Criminal Appeals                 Keith Hampton                         PRECINCT #4                                            01 
01270020001000000DEM       Presiding Judge, CT of Criminal Appeals                 OVER VOTES                            PRECINCT #1                                            01 
01270020002000000DEM       Presiding Judge, CT of Criminal Appeals                 OVER VOTES                            PRECINCT #2                                            01 
01270020003000000DEM       Presiding Judge, CT of Criminal Appeals                 OVER VOTES                            PRECINCT #3                                            01 
01270020004000000DEM       Presiding Judge, CT of Criminal Appeals                 OVER VOTES                            PRECINCT #4                                            01 
01270030001000010DEM       Presiding Judge, CT of Criminal Appeals                 UNDER VOTES                           PRECINCT #1                                            01 
01270030002000007DEM       Presiding Judge, CT of Criminal Appeals                 UNDER VOTES                           PRECINCT #2                                            01 
01270030003000009DEM       Presiding Judge, CT of Criminal Appeals                 UNDER VOTES                           PRECINCT #3                                            01 
01270030004000005DEM       Presiding Judge, CT of Criminal Appeals                 UNDER VOTES                           PRECINCT #4                                            01 
01280010001000009DEM       Member, State BoE, DIST 15                              Steven D. Schafersman                 PRECINCT #1                                            01 
01280010002000007DEM       Member, State BoE, DIST 15                              Steven D. Schafersman                 PRECINCT #2                                            01 
01280010003000018DEM       Member, State BoE, DIST 15                              Steven D. Schafersman                 PRECINCT #3                                            01 
01280010004000017DEM       Member, State BoE, DIST 15                              Steven D. Schafersman                 PRECINCT #4                                            01 
01280020001000000DEM       Member, State BoE, DIST 15                              OVER VOTES                            PRECINCT #1                                            01 
01280020002000000DEM       Member, State BoE, DIST 15                              OVER VOTES                            PRECINCT #2                                            01 
01280020003000000DEM       Member, State BoE, DIST 15                              OVER VOTES                            PRECINCT #3                                            01 
01280020004000000DEM       Member, State BoE, DIST 15                              OVER VOTES                            PRECINCT #4                                            01 
01280030001000011DEM       Member, State BoE, DIST 15                              UNDER VOTES                           PRECINCT #1                                            01 
01280030002000007DEM       Member, State BoE, DIST 15                              UNDER VOTES                           PRECINCT #2                                            01 
01280030003000010DEM       Member, State BoE, DIST 15                              UNDER VOTES                           PRECINCT #3                                            01 
01280030004000005DEM       Member, State BoE, DIST 15                              UNDER VOTES                           PRECINCT #4                                            01 
01290010001000008DEM       State Representative, District 68                       Lanhon Odom                           PRECINCT #1                                            01 
01290010002000007DEM       State Representative, District 68                       Lanhon Odom                           PRECINCT #2                                            01 
01290010003000019DEM       State Representative, District 68                       Lanhon Odom                           PRECINCT #3                                            01 
01290010004000017DEM       State Representative, District 68                       Lanhon Odom                           PRECINCT #4                                            01 
01290020001000000DEM       State Representative, District 68                       OVER VOTES                            PRECINCT #1                                            01 
01290020002000000DEM       State Representative, District 68                       OVER VOTES                            PRECINCT #2                                            01 
01290020003000000DEM       State Representative, District 68                       OVER VOTES                            PRECINCT #3                                            01 
01290020004000000DEM       State Representative, District 68                       OVER VOTES                            PRECINCT #4                                            01 
01290030001000012DEM       State Representative, District 68                       UNDER VOTES                           PRECINCT #1                                            01 
01290030002000007DEM       State Representative, District 68                       UNDER VOTES                           PRECINCT #2                                            01 
01290030003000009DEM       State Representative, District 68                       UNDER VOTES                           PRECINCT #3                                            01 
01290030004000005DEM       State Representative, District 68                       UNDER VOTES                           PRECINCT #4                                            01 
01300010001000017DEM       District Attorney, 39th Judicial Dist                   Mike Fouts                            PRECINCT #1                                            01 
01300010002000011DEM       District Attorney, 39th Judicial Dist                   Mike Fouts                            PRECINCT #2                                            01 
01300010003000021DEM       District Attorney, 39th Judicial Dist                   Mike Fouts                            PRECINCT #3                                            01 
01300010004000017DEM       District Attorney, 39th Judicial Dist                   Mike Fouts                            PRECINCT #4                                            01 
01300020001000000DEM       District Attorney, 39th Judicial Dist                   OVER VOTES                            PRECINCT #1                                            01 
01300020002000000DEM       District Attorney, 39th Judicial Dist                   OVER VOTES                            PRECINCT #2                                            01 
01300020003000000DEM       District Attorney, 39th Judicial Dist                   OVER VOTES                            PRECINCT #3                                            01 
01300020004000000DEM       District Attorney, 39th Judicial Dist                   OVER VOTES                            PRECINCT #4                                            01 
01300030001000003DEM       District Attorney, 39th Judicial Dist                   UNDER VOTES                           PRECINCT #1                                            01 
01300030002000003DEM       District Attorney, 39th Judicial Dist                   UNDER VOTES                           PRECINCT #2                                            01 
01300030003000007DEM       District Attorney, 39th Judicial Dist                   UNDER VOTES                           PRECINCT #3                                            01 
01300030004000005DEM       District Attorney, 39th Judicial Dist                   UNDER VOTES                           PRECINCT #4                                            01 
01310010001000017DEM       Sheriff                                                 Bill Mullen                           PRECINCT #1                                            01 
01310010002000007DEM       Sheriff                                                 Bill Mullen                           PRECINCT #2                                            01 
01310010003000020DEM       Sheriff                                                 Bill Mullen                           PRECINCT #3                                            01 
01310010004000020DEM       Sheriff                                                 Bill Mullen                           PRECINCT #4                                            01 
01310020001000000DEM       Sheriff                                                 OVER VOTES                            PRECINCT #1                                            01 
01310020002000000DEM       Sheriff                                                 OVER VOTES                            PRECINCT #2                                            01 
01310020003000000DEM       Sheriff                                                 OVER VOTES                            PRECINCT #3                                            01 
01310020004000000DEM       Sheriff                                                 OVER VOTES                            PRECINCT #4                                            01 
01310030001000003DEM       Sheriff                                                 UNDER VOTES                           PRECINCT #1                                            01 
01310030002000007DEM       Sheriff                                                 UNDER VOTES                           PRECINCT #2                                            01 
01310030003000008DEM       Sheriff                                                 UNDER VOTES                           PRECINCT #3                                            01 
01310030004000002DEM       Sheriff                                                 UNDER VOTES                           PRECINCT #4                                            01 
01320010001000016DEM       County Tax Assessor-Collector                           Jim B. Ward                           PRECINCT #1                                            01 
01320010002000012DEM       County Tax Assessor-Collector                           Jim B. Ward                           PRECINCT #2                                            01 
01320010003000023DEM       County Tax Assessor-Collector                           Jim B. Ward                           PRECINCT #3                                            01 
01320010004000022DEM       County Tax Assessor-Collector                           Jim B. Ward                           PRECINCT #4                                            01 
01320020001000000DEM       County Tax Assessor-Collector                           OVER VOTES                            PRECINCT #1                                            01 
01320020002000000DEM       County Tax Assessor-Collector                           OVER VOTES                            PRECINCT #2                                            01 
01320020003000000DEM       County Tax Assessor-Collector                           OVER VOTES                            PRECINCT #3                                            01 
01320020004000000DEM       County Tax Assessor-Collector                           OVER VOTES                            PRECINCT #4                                            01 
01320030001000004DEM       County Tax Assessor-Collector                           UNDER VOTES                           PRECINCT #1                                            01 
01320030002000002DEM       County Tax Assessor-Collector                           UNDER VOTES                           PRECINCT #2                                            01 
01320030003000005DEM       County Tax Assessor-Collector                           UNDER VOTES                           PRECINCT #3                                            01 
01320030004000000DEM       County Tax Assessor-Collector                           UNDER VOTES                           PRECINCT #4                                            01 
01330010001000017DEM       County Commissioner, Precinct No. 1                     David Hoy                             PRECINCT #1                                            01 
01330020001000000DEM       County Commissioner, Precinct No. 1                     OVER VOTES                            PRECINCT #1                                            01 
01330030001000003DEM       County Commissioner, Precinct No. 1                     UNDER VOTES                           PRECINCT #1                                            01 
01340010003000019DEM       County Commissioner, Precinct No. 3                     Billy Kirk Meador                     PRECINCT #3                                            01 
01340020003000000DEM       County Commissioner, Precinct No. 3                     OVER VOTES                            PRECINCT #3                                            01 
01340030003000009DEM       County Commissioner, Precinct No. 3                     UNDER VOTES                           PRECINCT #3                                            01 
01350010001000048REP       SCHOOL CHOICE                                           YES                                   PRECINCT #1                                            01Y
01350010002000003REP       SCHOOL CHOICE                                           YES                                   PRECINCT #2                                            01Y
01350010003000001REP       SCHOOL CHOICE                                           YES                                   PRECINCT #3                                            01Y
01350010004000006REP       SCHOOL CHOICE                                           YES                                   PRECINCT #4                                            01Y
01350020001000005REP       SCHOOL CHOICE                                           NO                                    PRECINCT #1                                            01Y
01350020002000004REP       SCHOOL CHOICE                                           NO                                    PRECINCT #2                                            01Y
01350020003000001REP       SCHOOL CHOICE                                           NO                                    PRECINCT #3                                            01Y
01350020004000000REP       SCHOOL CHOICE                                           NO                                    PRECINCT #4                                            01Y
01350030001000000REP       SCHOOL CHOICE                                           OVER VOTES                            PRECINCT #1                                            01Y
01350030002000000REP       SCHOOL CHOICE                                           OVER VOTES                            PRECINCT #2                                            01Y
01350030003000000REP       SCHOOL CHOICE                                           OVER VOTES                            PRECINCT #3                                            01Y
01350030004000000REP       SCHOOL CHOICE                                           OVER VOTES                            PRECINCT #4                                            01Y
01350040001000012REP       SCHOOL CHOICE                                           UNDER VOTES                           PRECINCT #1                                            01Y
01350040002000001REP       SCHOOL CHOICE                                           UNDER VOTES                           PRECINCT #2                                            01Y
01350040003000002REP       SCHOOL CHOICE                                           UNDER VOTES                           PRECINCT #3                                            01Y
01350040004000000REP       SCHOOL CHOICE                                           UNDER VOTES                           PRECINCT #4                                            01Y
01360010001000056REP       REPEALING OBAMACARE                                     YES                                   PRECINCT #1                                            01Y
01360010002000007REP       REPEALING OBAMACARE                                     YES                                   PRECINCT #2                                            01Y
01360010003000002REP       REPEALING OBAMACARE                                     YES                                   PRECINCT #3                                            01Y
01360010004000006REP       REPEALING OBAMACARE                                     YES                                   PRECINCT #4                                            01Y
01360020001000000REP       REPEALING OBAMACARE                                     NO                                    PRECINCT #1                                            01Y
01360020002000000REP       REPEALING OBAMACARE                                     NO                                    PRECINCT #2                                            01Y
01360020003000000REP       REPEALING OBAMACARE                                     NO                                    PRECINCT #3                                            01Y
01360020004000000REP       REPEALING OBAMACARE                                     NO                                    PRECINCT #4                                            01Y
01360030001000000REP       REPEALING OBAMACARE                                     OVER VOTES                            PRECINCT #1                                            01Y
01360030002000000REP       REPEALING OBAMACARE                                     OVER VOTES                            PRECINCT #2                                            01Y
01360030003000000REP       REPEALING OBAMACARE                                     OVER VOTES                            PRECINCT #3                                            01Y
01360030004000000REP       REPEALING OBAMACARE                                     OVER VOTES                            PRECINCT #4                                            01Y
01360040001000009REP       REPEALING OBAMACARE                                     UNDER VOTES                           PRECINCT #1                                            01Y
01360040002000001REP       REPEALING OBAMACARE                                     UNDER VOTES                           PRECINCT #2                                            01Y
01360040003000002REP       REPEALING OBAMACARE                                     UNDER VOTES                           PRECINCT #3                                            01Y
01360040004000000REP       REPEALING OBAMACARE                                     UNDER VOTES                           PRECINCT #4                                            01Y
01370010001000052REP       PUBLIC PRAYER                                           YES                                   PRECINCT #1                                            01Y
01370010002000005REP       PUBLIC PRAYER                                           YES                                   PRECINCT #2                                            01Y
01370010003000002REP       PUBLIC PRAYER                                           YES                                   PRECINCT #3                                            01Y
01370010004000006REP       PUBLIC PRAYER                                           YES                                   PRECINCT #4                                            01Y
01370020001000004REP       PUBLIC PRAYER                                           NO                                    PRECINCT #1                                            01Y
01370020002000002REP       PUBLIC PRAYER                                           NO                                    PRECINCT #2                                            01Y
01370020003000000REP       PUBLIC PRAYER                                           NO                                    PRECINCT #3                                            01Y
01370020004000000REP       PUBLIC PRAYER                                           NO                                    PRECINCT #4                                            01Y
01370030001000000REP       PUBLIC PRAYER                                           OVER VOTES                            PRECINCT #1                                            01Y
01370030002000000REP       PUBLIC PRAYER                                           OVER VOTES                            PRECINCT #2                                            01Y
01370030003000000REP       PUBLIC PRAYER                                           OVER VOTES                            PRECINCT #3                                            01Y
01370030004000000REP       PUBLIC PRAYER                                           OVER VOTES                            PRECINCT #4                                            01Y
01370040001000009REP       PUBLIC PRAYER                                           UNDER VOTES                           PRECINCT #1                                            01Y
01370040002000001REP       PUBLIC PRAYER                                           UNDER VOTES                           PRECINCT #2                                            01Y
01370040003000002REP       PUBLIC PRAYER                                           UNDER VOTES                           PRECINCT #3                                            01Y
01370040004000000REP       PUBLIC PRAYER                                           UNDER VOTES                           PRECINCT #4                                            01Y
01380010001000051REP       BALANCED BUDGET                                         YES                                   PRECINCT #1                                            01Y
01380010002000005REP       BALANCED BUDGET                                         YES                                   PRECINCT #2                                            01Y
