01020010001000301          BALLOTS CAST - TOTAL                                    BALLOTS CAST - TOTAL                  PRECINCT 101                                           00 
01020010002000394          BALLOTS CAST - TOTAL                                    BALLOTS CAST - TOTAL                  PRECINCT 201                                           00 
01020010004000516          BALLOTS CAST - TOTAL                                    BALLOTS CAST - TOTAL                  PRECINCT 301                                           00 
01020010006000288          BALLOTS CAST - TOTAL                                    BALLOTS CAST - TOTAL                  PRECINCT 401                                           00 
01030010001000085REP       STRAIGHT PARTY                                          REPUBLICAN PARTY                      PRECINCT 101                                           01 
01030010002000142REP       STRAIGHT PARTY                                          REPUBLICAN PARTY                      PRECINCT 201                                           01 
01030010004000157REP       STRAIGHT PARTY                                          REPUBLICAN PARTY                      PRECINCT 301                                           01 
01030010006000087REP       STRAIGHT PARTY                                          REPUBLICAN PARTY                      PRECINCT 401                                           01 
01030020001000081DEM       STRAIGHT PARTY                                          DEMOCRATIC PARTY                      PRECINCT 101                                           01 
01030020002000028DEM       STRAIGHT PARTY                                          DEMOCRATIC PARTY                      PRECINCT 201                                           01 
01030020004000032DEM       STRAIGHT PARTY                                          DEMOCRATIC PARTY                      PRECINCT 301                                           01 
01030020006000070DEM       STRAIGHT PARTY                                          DEMOCRATIC PARTY                      PRECINCT 401                                           01 
01030030001000002LIB       STRAIGHT PARTY                                          LIBERTARIAN PARTY                     PRECINCT 101                                           01 
01030030002000003LIB       STRAIGHT PARTY                                          LIBERTARIAN PARTY                     PRECINCT 201                                           01 
01030030004000003LIB       STRAIGHT PARTY                                          LIBERTARIAN PARTY                     PRECINCT 301                                           01 
01030030006000000LIB       STRAIGHT PARTY                                          LIBERTARIAN PARTY                     PRECINCT 401                                           01 
01030040001000000GRN       STRAIGHT PARTY                                          GREEN PARTY                           PRECINCT 101                                           01 
01030040002000000GRN       STRAIGHT PARTY                                          GREEN PARTY                           PRECINCT 201                                           01 
01030040004000001GRN       STRAIGHT PARTY                                          GREEN PARTY                           PRECINCT 301                                           01 
01030040006000003GRN       STRAIGHT PARTY                                          GREEN PARTY                           PRECINCT 401                                           01 
01030050001000000          STRAIGHT PARTY                                          OVER VOTES                            PRECINCT 101                                           01 
01030050002000000          STRAIGHT PARTY                                          OVER VOTES                            PRECINCT 201                                           01 
01030050004000002          STRAIGHT PARTY                                          OVER VOTES                            PRECINCT 301                                           01 
01030050006000001          STRAIGHT PARTY                                          OVER VOTES                            PRECINCT 401                                           01 
01030060001000132          STRAIGHT PARTY                                          UNDER VOTES                           PRECINCT 101                                           01 
01030060002000221          STRAIGHT PARTY                                          UNDER VOTES                           PRECINCT 201                                           01 
01030060004000321          STRAIGHT PARTY                                          UNDER VOTES                           PRECINCT 301                                           01 
01030060006000127          STRAIGHT PARTY                                          UNDER VOTES                           PRECINCT 401                                           01 
01040010001000177REP       President and Vice-President                            Mitt Romney / Paul Ryan               PRECINCT 101                                           01 
01040010002000329REP       President and Vice-President                            Mitt Romney / Paul Ryan               PRECINCT 201                                           01 
01040010004000431REP       President and Vice-President                            Mitt Romney / Paul Ryan               PRECINCT 301                                           01 
01040010006000173REP       President and Vice-President                            Mitt Romney / Paul Ryan               PRECINCT 401                                           01 
01040020001000122DEM       President and Vice-President                            Barack Obama / Joe Biden              PRECINCT 101                                           01 
01040020002000060DEM       President and Vice-President                            Barack Obama / Joe Biden              PRECINCT 201                                           01 
01040020004000079DEM       President and Vice-President                            Barack Obama / Joe Biden              PRECINCT 301                                           01 
01040020006000108DEM       President and Vice-President                            Barack Obama / Joe Biden              PRECINCT 401                                           01 
01040030001000000LIB       President and Vice-President                            Gary Johnson / Jim Gray               PRECINCT 101                                           01 
01040030002000004LIB       President and Vice-President                            Gary Johnson / Jim Gray               PRECINCT 201                                           01 
01040030004000001LIB       President and Vice-President                            Gary Johnson / Jim Gray               PRECINCT 301                                           01 
01040030006000003LIB       President and Vice-President                            Gary Johnson / Jim Gray               PRECINCT 401                                           01 
01040040001000000GRN       President and Vice-President                            Jill Stein / Cheri Honkala            PRECINCT 101                                           01 
01040040002000000GRN       President and Vice-President                            Jill Stein / Cheri Honkala            PRECINCT 201                                           01 
01040040004000001GRN       President and Vice-President                            Jill Stein / Cheri Honkala            PRECINCT 301                                           01 
01040040006000001GRN       President and Vice-President                            Jill Stein / Cheri Honkala            PRECINCT 401                                           01 
01040050001000000NON       President and Vice-President                            WRITE-IN                              PRECINCT 101                                           01 
01040050002000000NON       President and Vice-President                            WRITE-IN                              PRECINCT 201                                           01 
01040050004000001NON       President and Vice-President                            WRITE-IN                              PRECINCT 301                                           01 
01040050006000001NON       President and Vice-President                            WRITE-IN                              PRECINCT 401                                           01 
01040060001000000          President and Vice-President                            OVER VOTES                            PRECINCT 101                                           01 
01040060002000000          President and Vice-President                            OVER VOTES                            PRECINCT 201                                           01 
01040060004000000          President and Vice-President                            OVER VOTES                            PRECINCT 301                                           01 
01040060006000000          President and Vice-President                            OVER VOTES                            PRECINCT 401                                           01 
01040070001000002          President and Vice-President                            UNDER VOTES                           PRECINCT 101                                           01 
01040070002000001          President and Vice-President                            UNDER VOTES                           PRECINCT 201                                           01 
01040070004000003          President and Vice-President                            UNDER VOTES                           PRECINCT 301                                           01 
01040070006000002          President and Vice-President                            UNDER VOTES                           PRECINCT 401                                           01 
01050010001000168REP       United States Senator                                   Ted Cruz                              PRECINCT 101                                           01 
01050010002000324REP       United States Senator                                   Ted Cruz                              PRECINCT 201                                           01 
01050010004000408REP       United States Senator                                   Ted Cruz                              PRECINCT 301                                           01 
01050010006000181REP       United States Senator                                   Ted Cruz                              PRECINCT 401                                           01 
01050020001000108DEM       United States Senator                                   Paul Sadler                           PRECINCT 101                                           01 
01050020002000059DEM       United States Senator                                   Paul Sadler                           PRECINCT 201                                           01 
01050020004000072DEM       United States Senator                                   Paul Sadler                           PRECINCT 301                                           01 
01050020006000090DEM       United States Senator                                   Paul Sadler                           PRECINCT 401                                           01 
01050030001000005LIB       United States Senator                                   John Jay Myers                        PRECINCT 101                                           01 
01050030002000001LIB       United States Senator                                   John Jay Myers                        PRECINCT 201                                           01 
01050030004000004LIB       United States Senator                                   John Jay Myers                        PRECINCT 301                                           01 
01050030006000000LIB       United States Senator                                   John Jay Myers                        PRECINCT 401                                           01 
01050040001000001GRN       United States Senator                                   David B. Collins                      PRECINCT 101                                           01 
01050040002000003GRN       United States Senator                                   David B. Collins                      PRECINCT 201                                           01 
01050040004000001GRN       United States Senator                                   David B. Collins                      PRECINCT 301                                           01 
01050040006000001GRN       United States Senator                                   David B. Collins                      PRECINCT 401                                           01 
01050050001000000          United States Senator                                   OVER VOTES                            PRECINCT 101                                           01 
01050050002000000          United States Senator                                   OVER VOTES                            PRECINCT 201                                           01 
01050050004000000          United States Senator                                   OVER VOTES                            PRECINCT 301                                           01 
01050050006000000          United States Senator                                   OVER VOTES                            PRECINCT 401                                           01 
01050060001000019          United States Senator                                   UNDER VOTES                           PRECINCT 101                                           01 
01050060002000007          United States Senator                                   UNDER VOTES                           PRECINCT 201                                           01 
01050060004000031          United States Senator                                   UNDER VOTES                           PRECINCT 301                                           01 
01050060006000016          United States Senator                                   UNDER VOTES                           PRECINCT 401                                           01 
01060010001000163REP       US Representative, District 23                          Francisco "Quico" Canseco             PRECINCT 101                                           01 
01060010002000294REP       US Representative, District 23                          Francisco "Quico" Canseco             PRECINCT 201                                           01 
01060010004000369REP       US Representative, District 23                          Francisco "Quico" Canseco             PRECINCT 301                                           01 
01060010006000162REP       US Representative, District 23                          Francisco "Quico" Canseco             PRECINCT 401                                           01 
01060020001000115DEM       US Representative, District 23                          Pete P. Gallego                       PRECINCT 101                                           01 
01060020002000081DEM       US Representative, District 23                          Pete P. Gallego                       PRECINCT 201                                           01 
01060020004000092DEM       US Representative, District 23                          Pete P. Gallego                       PRECINCT 301                                           01 
01060020006000110DEM       US Representative, District 23                          Pete P. Gallego                       PRECINCT 401                                           01 
01060030001000003LIB       US Representative, District 23                          Jeffrey C. Blunt                      PRECINCT 101                                           01 
01060030002000005LIB       US Representative, District 23                          Jeffrey C. Blunt                      PRECINCT 201                                           01 
01060030004000009LIB       US Representative, District 23                          Jeffrey C. Blunt                      PRECINCT 301                                           01 
01060030006000004LIB       US Representative, District 23                          Jeffrey C. Blunt                      PRECINCT 401                                           01 
01060040001000001GRN       US Representative, District 23                          Ed Scharf                             PRECINCT 101                                           01 
01060040002000001GRN       US Representative, District 23                          Ed Scharf                             PRECINCT 201                                           01 
01060040004000004GRN       US Representative, District 23                          Ed Scharf                             PRECINCT 301                                           01 
01060040006000001GRN       US Representative, District 23                          Ed Scharf                             PRECINCT 401                                           01 
01060050001000000          US Representative, District 23                          OVER VOTES                            PRECINCT 101                                           01 
01060050002000000          US Representative, District 23                          OVER VOTES                            PRECINCT 201                                           01 
01060050004000001          US Representative, District 23                          OVER VOTES                            PRECINCT 301                                           01 
01060050006000000          US Representative, District 23                          OVER VOTES                            PRECINCT 401                                           01 
01060060001000019          US Representative, District 23                          UNDER VOTES                           PRECINCT 101                                           01 
01060060002000013          US Representative, District 23                          UNDER VOTES                           PRECINCT 201                                           01 
01060060004000041          US Representative, District 23                          UNDER VOTES                           PRECINCT 301                                           01 
01060060006000011          US Representative, District 23                          UNDER VOTES                           PRECINCT 401                                           01 
01070010001000157REP       Railroad Commissioner                                   Christi Craddick                      PRECINCT 101                                           01 
01070010002000308REP       Railroad Commissioner                                   Christi Craddick                      PRECINCT 201                                           01 
01070010004000390REP       Railroad Commissioner                                   Christi Craddick                      PRECINCT 301                                           01 
01070010006000159REP       Railroad Commissioner                                   Christi Craddick                      PRECINCT 401                                           01 
01070020001000113DEM       Railroad Commissioner                                   Dale Henry                            PRECINCT 101                                           01 
01070020002000059DEM       Railroad Commissioner                                   Dale Henry                            PRECINCT 201                                           01 
01070020004000071DEM       Railroad Commissioner                                   Dale Henry                            PRECINCT 301                                           01 
01070020006000099DEM       Railroad Commissioner                                   Dale Henry                            PRECINCT 401                                           01 
01070030001000002LIB       Railroad Commissioner                                   Vivekananda (Vik) Wall                PRECINCT 101                                           01 
01070030002000003LIB       Railroad Commissioner                                   Vivekananda (Vik) Wall                PRECINCT 201                                           01 
01070030004000004LIB       Railroad Commissioner                                   Vivekananda (Vik) Wall                PRECINCT 301                                           01 
01070030006000002LIB       Railroad Commissioner                                   Vivekananda (Vik) Wall                PRECINCT 401                                           01 
01070040001000004GRN       Railroad Commissioner                                   Chris Kennedy                         PRECINCT 101                                           01 
01070040002000003GRN       Railroad Commissioner                                   Chris Kennedy                         PRECINCT 201                                           01 
01070040004000010GRN       Railroad Commissioner                                   Chris Kennedy                         PRECINCT 301                                           01 
01070040006000005GRN       Railroad Commissioner                                   Chris Kennedy                         PRECINCT 401                                           01 
01070050001000000          Railroad Commissioner                                   OVER VOTES                            PRECINCT 101                                           01 
01070050002000000          Railroad Commissioner                                   OVER VOTES                            PRECINCT 201                                           01 
01070050004000000          Railroad Commissioner                                   OVER VOTES                            PRECINCT 301                                           01 
01070050006000000          Railroad Commissioner                                   OVER VOTES                            PRECINCT 401                                           01 
01070060001000025          Railroad Commissioner                                   UNDER VOTES                           PRECINCT 101                                           01 
01070060002000021          Railroad Commissioner                                   UNDER VOTES                           PRECINCT 201                                           01 
01070060004000041          Railroad Commissioner                                   UNDER VOTES                           PRECINCT 301                                           01 
01070060006000023          Railroad Commissioner                                   UNDER VOTES                           PRECINCT 401                                           01 
01080010001000160REP       Railroad Commissioner, Unexpired Term                   Barry Smitherman                      PRECINCT 101                                           01 
01080010002000314REP       Railroad Commissioner, Unexpired Term                   Barry Smitherman                      PRECINCT 201                                           01 
01080010004000382REP       Railroad Commissioner, Unexpired Term                   Barry Smitherman                      PRECINCT 301                                           01 
01080010006000164REP       Railroad Commissioner, Unexpired Term                   Barry Smitherman                      PRECINCT 401                                           01 
01080020001000047LIB       Railroad Commissioner, Unexpired Term                   Jaime O. Perez                        PRECINCT 101                                           01 
01080020002000032LIB       Railroad Commissioner, Unexpired Term                   Jaime O. Perez                        PRECINCT 201                                           01 
01080020004000054LIB       Railroad Commissioner, Unexpired Term                   Jaime O. Perez                        PRECINCT 301                                           01 
01080020006000056LIB       Railroad Commissioner, Unexpired Term                   Jaime O. Perez                        PRECINCT 401                                           01 
01080030001000006GRN       Railroad Commissioner, Unexpired Term                   Josh Wendel                           PRECINCT 101                                           01 
01080030002000009GRN       Railroad Commissioner, Unexpired Term                   Josh Wendel                           PRECINCT 201                                           01 
01080030004000008GRN       Railroad Commissioner, Unexpired Term                   Josh Wendel                           PRECINCT 301                                           01 
01080030006000007GRN       Railroad Commissioner, Unexpired Term                   Josh Wendel                           PRECINCT 401                                           01 
01080040001000000          Railroad Commissioner, Unexpired Term                   OVER VOTES                            PRECINCT 101                                           01 
01080040002000000          Railroad Commissioner, Unexpired Term                   OVER VOTES                            PRECINCT 201                                           01 
01080040004000000          Railroad Commissioner, Unexpired Term                   OVER VOTES                            PRECINCT 301                                           01 
01080040006000000          Railroad Commissioner, Unexpired Term                   OVER VOTES                            PRECINCT 401                                           01 
01080050001000088          Railroad Commissioner, Unexpired Term                   UNDER VOTES                           PRECINCT 101                                           01 
01080050002000039          Railroad Commissioner, Unexpired Term                   UNDER VOTES                           PRECINCT 201                                           01 
01080050004000072          Railroad Commissioner, Unexpired Term                   UNDER VOTES                           PRECINCT 301                                           01 
01080050006000061          Railroad Commissioner, Unexpired Term                   UNDER VOTES                           PRECINCT 401                                           01 
01090010001000171REP       Justice, Supreme Court, Place 2                         Don Willett                           PRECINCT 101                                           01 
01090010002000326REP       Justice, Supreme Court, Place 2                         Don Willett                           PRECINCT 201                                           01 
01090010004000395REP       Justice, Supreme Court, Place 2                         Don Willett                           PRECINCT 301                                           01 
01090010006000182REP       Justice, Supreme Court, Place 2                         Don Willett                           PRECINCT 401                                           01 
01090020001000033LIB       Justice, Supreme Court, Place 2                         RS Roberto Koelsch                    PRECINCT 101                                           01 
01090020002000023LIB       Justice, Supreme Court, Place 2                         RS Roberto Koelsch                    PRECINCT 201                                           01 
01090020004000036LIB       Justice, Supreme Court, Place 2                         RS Roberto Koelsch                    PRECINCT 301                                           01 
01090020006000031LIB       Justice, Supreme Court, Place 2                         RS Roberto Koelsch                    PRECINCT 401                                           01 
01090030001000000          Justice, Supreme Court, Place 2                         OVER VOTES                            PRECINCT 101                                           01 
01090030002000000          Justice, Supreme Court, Place 2                         OVER VOTES                            PRECINCT 201                                           01 
01090030004000001          Justice, Supreme Court, Place 2                         OVER VOTES                            PRECINCT 301                                           01 
01090030006000001          Justice, Supreme Court, Place 2                         OVER VOTES                            PRECINCT 401                                           01 
01090040001000097          Justice, Supreme Court, Place 2                         UNDER VOTES                           PRECINCT 101                                           01 
01090040002000045          Justice, Supreme Court, Place 2                         UNDER VOTES                           PRECINCT 201                                           01 
01090040004000084          Justice, Supreme Court, Place 2                         UNDER VOTES                           PRECINCT 301                                           01 
01090040006000074          Justice, Supreme Court, Place 2                         UNDER VOTES                           PRECINCT 401                                           01 
01100010001000165REP       Justice, Supreme Court, Place 4                         John Devine                           PRECINCT 101                                           01 
01100010002000321REP       Justice, Supreme Court, Place 4                         John Devine                           PRECINCT 201                                           01 
01100010004000392REP       Justice, Supreme Court, Place 4                         John Devine                           PRECINCT 301                                           01 
01100010006000172REP       Justice, Supreme Court, Place 4                         John Devine                           PRECINCT 401                                           01 
01100020001000033LIB       Justice, Supreme Court, Place 4                         Tom Oxford                            PRECINCT 101                                           01 
01100020002000024LIB       Justice, Supreme Court, Place 4                         Tom Oxford                            PRECINCT 201                                           01 
01100020004000036LIB       Justice, Supreme Court, Place 4                         Tom Oxford                            PRECINCT 301                                           01 
01100020006000030LIB       Justice, Supreme Court, Place 4                         Tom Oxford                            PRECINCT 401                                           01 
01100030001000006GRN       Justice, Supreme Court, Place 4                         Charles E. Waterbury                  PRECINCT 101                                           01 
01100030002000008GRN       Justice, Supreme Court, Place 4                         Charles E. Waterbury                  PRECINCT 201                                           01 
01100030004000009GRN       Justice, Supreme Court, Place 4                         Charles E. Waterbury                  PRECINCT 301                                           01 
01100030006000014GRN       Justice, Supreme Court, Place 4                         Charles E. Waterbury                  PRECINCT 401                                           01 
01100040001000000          Justice, Supreme Court, Place 4                         OVER VOTES                            PRECINCT 101                                           01 
01100040002000000          Justice, Supreme Court, Place 4                         OVER VOTES                            PRECINCT 201                                           01 
01100040004000002          Justice, Supreme Court, Place 4                         OVER VOTES                            PRECINCT 301                                           01 
01100040006000001          Justice, Supreme Court, Place 4                         OVER VOTES                            PRECINCT 401                                           01 
01100050001000097          Justice, Supreme Court, Place 4                         UNDER VOTES                           PRECINCT 101                                           01 
01100050002000041          Justice, Supreme Court, Place 4                         UNDER VOTES                           PRECINCT 201                                           01 
01100050004000077          Justice, Supreme Court, Place 4                         UNDER VOTES                           PRECINCT 301                                           01 
01100050006000071          Justice, Supreme Court, Place 4                         UNDER VOTES                           PRECINCT 401                                           01 
01110010001000142REP       Justice, Supreme Court, Place 6                         Nathan Hecht                          PRECINCT 101                                           01 
01110010002000289REP       Justice, Supreme Court, Place 6                         Nathan Hecht                          PRECINCT 201                                           01 
01110010004000354REP       Justice, Supreme Court, Place 6                         Nathan Hecht                          PRECINCT 301                                           01 
01110010006000145REP       Justice, Supreme Court, Place 6                         Nathan Hecht                          PRECINCT 401                                           01 
01110020001000122DEM       Justice, Supreme Court, Place 6                         Michele Petty                         PRECINCT 101                                           01 
01110020002000067DEM       Justice, Supreme Court, Place 6                         Michele Petty                         PRECINCT 201                                           01 
01110020004000090DEM       Justice, Supreme Court, Place 6                         Michele Petty                         PRECINCT 301                                           01 
01110020006000105DEM       Justice, Supreme Court, Place 6                         Michele Petty                         PRECINCT 401                                           01 
01110030001000004LIB       Justice, Supreme Court, Place 6                         Mark Ash                              PRECINCT 101                                           01 
01110030002000008LIB       Justice, Supreme Court, Place 6                         Mark Ash                              PRECINCT 201                                           01 
01110030004000010LIB       Justice, Supreme Court, Place 6                         Mark Ash                              PRECINCT 301                                           01 
01110030006000005LIB       Justice, Supreme Court, Place 6                         Mark Ash                              PRECINCT 401                                           01 
01110040001000004GRN       Justice, Supreme Court, Place 6                         Jim Chisholm                          PRECINCT 101                                           01 
01110040002000006GRN       Justice, Supreme Court, Place 6                         Jim Chisholm                          PRECINCT 201                                           01 
01110040004000005GRN       Justice, Supreme Court, Place 6                         Jim Chisholm                          PRECINCT 301                                           01 
01110040006000004GRN       Justice, Supreme Court, Place 6                         Jim Chisholm                          PRECINCT 401                                           01 
01110050001000000          Justice, Supreme Court, Place 6                         OVER VOTES                            PRECINCT 101                                           01 
01110050002000000          Justice, Supreme Court, Place 6                         OVER VOTES                            PRECINCT 201                                           01 
01110050004000002          Justice, Supreme Court, Place 6                         OVER VOTES                            PRECINCT 301                                           01 
01110050006000001          Justice, Supreme Court, Place 6                         OVER VOTES                            PRECINCT 401                                           01 
01110060001000029          Justice, Supreme Court, Place 6                         UNDER VOTES                           PRECINCT 101                                           01 
01110060002000024          Justice, Supreme Court, Place 6                         UNDER VOTES                           PRECINCT 201                                           01 
01110060004000055          Justice, Supreme Court, Place 6                         UNDER VOTES                           PRECINCT 301                                           01 
01110060006000028          Justice, Supreme Court, Place 6                         UNDER VOTES                           PRECINCT 401                                           01 
01120010001000152REP       Presiding Judge Court of Criminal Appeal                Sharon  Keller                        PRECINCT 101                                           01 
01120010002000289REP       Presiding Judge Court of Criminal Appeal                Sharon  Keller                        PRECINCT 201                                           01 
01120010004000374REP       Presiding Judge Court of Criminal Appeal                Sharon  Keller                        PRECINCT 301                                           01 
01120010006000157REP       Presiding Judge Court of Criminal Appeal                Sharon  Keller                        PRECINCT 401                                           01 
01120020001000115DEM       Presiding Judge Court of Criminal Appeal                Keith Hampton                         PRECINCT 101                                           01 
01120020002000071DEM       Presiding Judge Court of Criminal Appeal                Keith Hampton                         PRECINCT 201                                           01 
01120020004000079DEM       Presiding Judge Court of Criminal Appeal                Keith Hampton                         PRECINCT 301                                           01 
01120020006000100DEM       Presiding Judge Court of Criminal Appeal                Keith Hampton                         PRECINCT 401                                           01 
01120030001000008LIB       Presiding Judge Court of Criminal Appeal                Lance Stott                           PRECINCT 101                                           01 
01120030002000012LIB       Presiding Judge Court of Criminal Appeal                Lance Stott                           PRECINCT 201                                           01 
01120030004000008LIB       Presiding Judge Court of Criminal Appeal                Lance Stott                           PRECINCT 301                                           01 
01120030006000006LIB       Presiding Judge Court of Criminal Appeal                Lance Stott                           PRECINCT 401                                           01 
01120040001000000          Presiding Judge Court of Criminal Appeal                OVER VOTES                            PRECINCT 101                                           01 
01120040002000000          Presiding Judge Court of Criminal Appeal                OVER VOTES                            PRECINCT 201                                           01 
01120040004000000          Presiding Judge Court of Criminal Appeal                OVER VOTES                            PRECINCT 301                                           01 
01120040006000000          Presiding Judge Court of Criminal Appeal                OVER VOTES                            PRECINCT 401                                           01 
01120050001000026          Presiding Judge Court of Criminal Appeal                UNDER VOTES                           PRECINCT 101                                           01 
01120050002000022          Presiding Judge Court of Criminal Appeal                UNDER VOTES                           PRECINCT 201                                           01 
01120050004000055          Presiding Judge Court of Criminal Appeal                UNDER VOTES                           PRECINCT 301                                           01 
01120050006000025          Presiding Judge Court of Criminal Appeal                UNDER VOTES                           PRECINCT 401                                           01 
01130010001000171REP       Judge, Court of Criminal Appeals, Pl 7                  Barbara Parker Hervey                 PRECINCT 101                                           01 
01130010002000311REP       Judge, Court of Criminal Appeals, Pl 7                  Barbara Parker Hervey                 PRECINCT 201                                           01 
01130010004000391REP       Judge, Court of Criminal Appeals, Pl 7                  Barbara Parker Hervey                 PRECINCT 301                                           01 
01130010006000184REP       Judge, Court of Criminal Appeals, Pl 7                  Barbara Parker Hervey                 PRECINCT 401                                           01 
01130020001000034LIB       Judge, Court of Criminal Appeals, Pl 7                  Mark W. Bennett                       PRECINCT 101                                           01 
01130020002000037LIB       Judge, Court of Criminal Appeals, Pl 7                  Mark W. Bennett                       PRECINCT 201                                           01 
01130020004000041LIB       Judge, Court of Criminal Appeals, Pl 7                  Mark W. Bennett                       PRECINCT 301                                           01 
01130020006000034LIB       Judge, Court of Criminal Appeals, Pl 7                  Mark W. Bennett                       PRECINCT 401                                           01 
01130030001000000          Judge, Court of Criminal Appeals, Pl 7                  OVER VOTES                            PRECINCT 101                                           01 
01130030002000000          Judge, Court of Criminal Appeals, Pl 7                  OVER VOTES                            PRECINCT 201                                           01 
01130030004000001          Judge, Court of Criminal Appeals, Pl 7                  OVER VOTES                            PRECINCT 301                                           01 
01130030006000001          Judge, Court of Criminal Appeals, Pl 7                  OVER VOTES                            PRECINCT 401                                           01 
01130040001000096          Judge, Court of Criminal Appeals, Pl 7                  UNDER VOTES                           PRECINCT 101                                           01 
01130040002000046          Judge, Court of Criminal Appeals, Pl 7                  UNDER VOTES                           PRECINCT 201                                           01 
01130040004000083          Judge, Court of Criminal Appeals, Pl 7                  UNDER VOTES                           PRECINCT 301                                           01 
01130040006000069          Judge, Court of Criminal Appeals, Pl 7                  UNDER VOTES                           PRECINCT 401                                           01 
01140010001000181REP       Judge, Court of Criminal Appeals, Pl 8                  Elsa Alcala                           PRECINCT 101                                           01 
01140010002000312REP       Judge, Court of Criminal Appeals, Pl 8                  Elsa Alcala                           PRECINCT 201                                           01 
01140010004000377REP       Judge, Court of Criminal Appeals, Pl 8                  Elsa Alcala                           PRECINCT 301                                           01 
01140010006000187REP       Judge, Court of Criminal Appeals, Pl 8                  Elsa Alcala                           PRECINCT 401                                           01 
01140020001000030LIB       Judge, Court of Criminal Appeals, Pl 8                  William Bryan Strange, III            PRECINCT 101                                           01 
01140020002000035LIB       Judge, Court of Criminal Appeals, Pl 8                  William Bryan Strange, III            PRECINCT 201                                           01 
01140020004000047LIB       Judge, Court of Criminal Appeals, Pl 8                  William Bryan Strange, III            PRECINCT 301                                           01 
01140020006000031LIB       Judge, Court of Criminal Appeals, Pl 8                  William Bryan Strange, III            PRECINCT 401                                           01 
01140030001000000          Judge, Court of Criminal Appeals, Pl 8                  OVER VOTES                            PRECINCT 101                                           01 
01140030002000000          Judge, Court of Criminal Appeals, Pl 8                  OVER VOTES                            PRECINCT 201                                           01 
01140030004000003          Judge, Court of Criminal Appeals, Pl 8                  OVER VOTES                            PRECINCT 301                                           01 
01140030006000001          Judge, Court of Criminal Appeals, Pl 8                  OVER VOTES                            PRECINCT 401                                           01 
01140040001000090          Judge, Court of Criminal Appeals, Pl 8                  UNDER VOTES                           PRECINCT 101                                           01 
01140040002000047          Judge, Court of Criminal Appeals, Pl 8                  UNDER VOTES                           PRECINCT 201                                           01 
01140040004000089          Judge, Court of Criminal Appeals, Pl 8                  UNDER VOTES                           PRECINCT 301                                           01 
01140040006000069          Judge, Court of Criminal Appeals, Pl 8                  UNDER VOTES                           PRECINCT 401                                           01 
01150010001000146REP       State Board of Education, District 1                    Carlos "Charlie" Garza                PRECINCT 101                                           01 
01150010002000294REP       State Board of Education, District 1                    Carlos "Charlie" Garza                PRECINCT 201                                           01 
01150010004000369REP       State Board of Education, District 1                    Carlos "Charlie" Garza                PRECINCT 301                                           01 
01150010006000159REP       State Board of Education, District 1                    Carlos "Charlie" Garza                PRECINCT 401                                           01 
01150020001000128DEM       State Board of Education, District 1                    Martha M. Dominguéz                   PRECINCT 101                                           01 
01150020002000069DEM       State Board of Education, District 1                    Martha M. Dominguéz                   PRECINCT 201                                           01 
01150020004000087DEM       State Board of Education, District 1                    Martha M. Dominguéz                   PRECINCT 301                                           01 
01150020006000105DEM       State Board of Education, District 1                    Martha M. Dominguéz                   PRECINCT 401                                           01 
01150030001000000          State Board of Education, District 1                    OVER VOTES                            PRECINCT 101                                           01 
01150030002000000          State Board of Education, District 1                    OVER VOTES                            PRECINCT 201                                           01 
01150030004000001          State Board of Education, District 1                    OVER VOTES                            PRECINCT 301                                           01 
01150030006000001          State Board of Education, District 1                    OVER VOTES                            PRECINCT 401                                           01 
01150040001000027          State Board of Education, District 1                    UNDER VOTES                           PRECINCT 101                                           01 
01150040002000031          State Board of Education, District 1                    UNDER VOTES                           PRECINCT 201                                           01 
01150040004000059          State Board of Education, District 1                    UNDER VOTES                           PRECINCT 301                                           01 
01150040006000023          State Board of Education, District 1                    UNDER VOTES                           PRECINCT 401                                           01 
01160010001000171REP       State Senator, District 28                              Robert Duncan                         PRECINCT 101                                           01 
01160010002000325REP       State Senator, District 28                              Robert Duncan                         PRECINCT 201                                           01 
01160010004000401REP       State Senator, District 28                              Robert Duncan                         PRECINCT 301                                           01 
01160010006000187REP       State Senator, District 28                              Robert Duncan                         PRECINCT 401                                           01 
01160020001000038LIB       State Senator, District 28                              M.J. (Smitty) Smith                   PRECINCT 101                                           01 
01160020002000024LIB       State Senator, District 28                              M.J. (Smitty) Smith                   PRECINCT 201                                           01 
01160020004000038LIB       State Senator, District 28                              M.J. (Smitty) Smith                   PRECINCT 301                                           01 
01160020006000030LIB       State Senator, District 28                              M.J. (Smitty) Smith                   PRECINCT 401                                           01 
01160030001000000          State Senator, District 28                              OVER VOTES                            PRECINCT 101                                           01 
01160030002000000          State Senator, District 28                              OVER VOTES                            PRECINCT 201                                           01 
01160030004000002          State Senator, District 28                              OVER VOTES                            PRECINCT 301                                           01 
01160030006000001          State Senator, District 28                              OVER VOTES                            PRECINCT 401                                           01 
01160040001000092          State Senator, District 28                              UNDER VOTES                           PRECINCT 101                                           01 
01160040002000045          State Senator, District 28                              UNDER VOTES                           PRECINCT 201                                           01 
01160040004000075          State Senator, District 28                              UNDER VOTES                           PRECINCT 301                                           01 
01160040006000070          State Senator, District 28                              UNDER VOTES                           PRECINCT 401                                           01 
01170010001000192REP       State Representative, District 53                       Harvey Hilderbran                     PRECINCT 101                                           01 
01170010002000328REP       State Representative, District 53                       Harvey Hilderbran                     PRECINCT 201                                           01 
01170010004000424REP       State Representative, District 53                       Harvey Hilderbran                     PRECINCT 301                                           01 
01170010006000197REP       State Representative, District 53                       Harvey Hilderbran                     PRECINCT 401                                           01 
01170020001000000          State Representative, District 53                       OVER VOTES                            PRECINCT 101                                           01 
01170020002000000          State Representative, District 53                       OVER VOTES                            PRECINCT 201                                           01 
01170020004000000          State Representative, District 53                       OVER VOTES                            PRECINCT 301                                           01 
01170020006000000          State Representative, District 53                       OVER VOTES                            PRECINCT 401                                           01 
01170030001000109          State Representative, District 53                       UNDER VOTES                           PRECINCT 101                                           01 
01170030002000066          State Representative, District 53                       UNDER VOTES                           PRECINCT 201                                           01 
01170030004000092          State Representative, District 53                       UNDER VOTES                           PRECINCT 301                                           01 
01170030006000091          State Representative, District 53                       UNDER VOTES                           PRECINCT 401                                           01 
01180010001000151REP       4th Court of Appeals District, Place 2                  Marialyn Barnard                      PRECINCT 101                                           01 
01180010002000300REP       4th Court of Appeals District, Place 2                  Marialyn Barnard                      PRECINCT 201                                           01 
01180010004000368REP       4th Court of Appeals District, Place 2                  Marialyn Barnard                      PRECINCT 301                                           01 
01180010006000150REP       4th Court of Appeals District, Place 2                  Marialyn Barnard                      PRECINCT 401                                           01 
01180020001000124DEM       4th Court of Appeals District, Place 2                  Baldemar Garza                        PRECINCT 101                                           01 
01180020002000062DEM       4th Court of Appeals District, Place 2                  Baldemar Garza                        PRECINCT 201                                           01 
01180020004000087DEM       4th Court of Appeals District, Place 2                  Baldemar Garza                        PRECINCT 301                                           01 
01180020006000111DEM       4th Court of Appeals District, Place 2                  Baldemar Garza                        PRECINCT 401                                           01 
01180030001000000          4th Court of Appeals District, Place 2                  OVER VOTES                            PRECINCT 101                                           01 
01180030002000000          4th Court of Appeals District, Place 2                  OVER VOTES                            PRECINCT 201                                           01 
01180030004000001          4th Court of Appeals District, Place 2                  OVER VOTES                            PRECINCT 301                                           01 
01180030006000001          4th Court of Appeals District, Place 2                  OVER VOTES                            PRECINCT 401                                           01 
01180040001000026          4th Court of Appeals District, Place 2                  UNDER VOTES                           PRECINCT 101                                           01 
01180040002000032          4th Court of Appeals District, Place 2                  UNDER VOTES                           PRECINCT 201                                           01 
01180040004000060          4th Court of Appeals District, Place 2                  UNDER VOTES                           PRECINCT 301                                           01 
01180040006000026          4th Court of Appeals District, Place 2                  UNDER VOTES                           PRECINCT 401                                           01 
01190010001000146REP       4th Court of Appeals District, Place 3                  Rebecca Simmons                       PRECINCT 101                                           01 
01190010002000298REP       4th Court of Appeals District, Place 3                  Rebecca Simmons                       PRECINCT 201                                           01 
01190010004000373REP       4th Court of Appeals District, Place 3                  Rebecca Simmons                       PRECINCT 301                                           01 
01190010006000147REP       4th Court of Appeals District, Place 3                  Rebecca Simmons                       PRECINCT 401                                           01 
01190020001000127DEM       4th Court of Appeals District, Place 3                  Patricia Alvarez                      PRECINCT 101                                           01 
01190020002000064DEM       4th Court of Appeals District, Place 3                  Patricia Alvarez                      PRECINCT 201                                           01 
01190020004000084DEM       4th Court of Appeals District, Place 3                  Patricia Alvarez                      PRECINCT 301                                           01 
01190020006000116DEM       4th Court of Appeals District, Place 3                  Patricia Alvarez                      PRECINCT 401                                           01 
01190030001000000          4th Court of Appeals District, Place 3                  OVER VOTES                            PRECINCT 101                                           01 
01190030002000000          4th Court of Appeals District, Place 3                  OVER VOTES                            PRECINCT 201                                           01 
01190030004000001          4th Court of Appeals District, Place 3                  OVER VOTES                            PRECINCT 301                                           01 
01190030006000000          4th Court of Appeals District, Place 3                  OVER VOTES                            PRECINCT 401                                           01 
01190040001000028          4th Court of Appeals District, Place 3                  UNDER VOTES                           PRECINCT 101                                           01 
01190040002000032          4th Court of Appeals District, Place 3                  UNDER VOTES                           PRECINCT 201                                           01 
01190040004000058          4th Court of Appeals District, Place 3                  UNDER VOTES                           PRECINCT 301                                           01 
01190040006000025          4th Court of Appeals District, Place 3                  UNDER VOTES                           PRECINCT 401                                           01 
01200010001000147REP       4th Court of Appeals District, Place 4                  Steve Hilbig                          PRECINCT 101                                           01 
01200010002000298REP       4th Court of Appeals District, Place 4                  Steve Hilbig                          PRECINCT 201                                           01 
01200010004000364REP       4th Court of Appeals District, Place 4                  Steve Hilbig                          PRECINCT 301                                           01 
01200010006000153REP       4th Court of Appeals District, Place 4                  Steve Hilbig                          PRECINCT 401                                           01 
01200020001000129DEM       4th Court of Appeals District, Place 4                  Luz Elena Chapa                       PRECINCT 101                                           01 
01200020002000064DEM       4th Court of Appeals District, Place 4                  Luz Elena Chapa                       PRECINCT 201                                           01 
01200020004000083DEM       4th Court of Appeals District, Place 4                  Luz Elena Chapa                       PRECINCT 301                                           01 
01200020006000110DEM       4th Court of Appeals District, Place 4                  Luz Elena Chapa                       PRECINCT 401                                           01 
01200030001000000          4th Court of Appeals District, Place 4                  OVER VOTES                            PRECINCT 101                                           01 
01200030002000000          4th Court of Appeals District, Place 4                  OVER VOTES                            PRECINCT 201                                           01 
01200030004000001          4th Court of Appeals District, Place 4                  OVER VOTES                            PRECINCT 301                                           01 
01200030006000001          4th Court of Appeals District, Place 4                  OVER VOTES                            PRECINCT 401                                           01 
01200040001000025          4th Court of Appeals District, Place 4                  UNDER VOTES                           PRECINCT 101                                           01 
01200040002000032          4th Court of Appeals District, Place 4                  UNDER VOTES                           PRECINCT 201                                           01 
01200040004000068          4th Court of Appeals District, Place 4                  UNDER VOTES                           PRECINCT 301                                           01 
01200040006000024          4th Court of Appeals District, Place 4                  UNDER VOTES                           PRECINCT 401                                           01 
01210010001000143REP       4th Court of Appeals District, Place 5                  Karen Angelini                        PRECINCT 101                                           01 
01210010002000291REP       4th Court of Appeals District, Place 5                  Karen Angelini                        PRECINCT 201                                           01 
01210010004000361REP       4th Court of Appeals District, Place 5                  Karen Angelini                        PRECINCT 301                                           01 
01210010006000155REP       4th Court of Appeals District, Place 5                  Karen Angelini                        PRECINCT 401                                           01 
01210020001000129DEM       4th Court of Appeals District, Place 5                  David  D. Towler                      PRECINCT 101                                           01 
01210020002000072DEM       4th Court of Appeals District, Place 5                  David  D. Towler                      PRECINCT 201                                           01 
01210020004000090DEM       4th Court of Appeals District, Place 5                  David  D. Towler                      PRECINCT 301                                           01 
01210020006000102DEM       4th Court of Appeals District, Place 5                  David  D. Towler                      PRECINCT 401                                           01 
01210030001000000          4th Court of Appeals District, Place 5                  OVER VOTES                            PRECINCT 101                                           01 
01210030002000000          4th Court of Appeals District, Place 5                  OVER VOTES                            PRECINCT 201                                           01 
01210030004000001          4th Court of Appeals District, Place 5                  OVER VOTES                            PRECINCT 301                                           01 
01210030006000001          4th Court of Appeals District, Place 5                  OVER VOTES                            PRECINCT 401                                           01 
01210040001000029          4th Court of Appeals District, Place 5                  UNDER VOTES                           PRECINCT 101                                           01 
01210040002000031          4th Court of Appeals District, Place 5                  UNDER VOTES                           PRECINCT 201                                           01 
01210040004000064          4th Court of Appeals District, Place 5                  UNDER VOTES                           PRECINCT 301                                           01 
01210040006000030          4th Court of Appeals District, Place 5                  UNDER VOTES                           PRECINCT 401                                           01 
01220010001000146REP       4th Court of Appeals District, Place 7                  Phylis J. Speedlin                    PRECINCT 101                                           01 
01220010002000299REP       4th Court of Appeals District, Place 7                  Phylis J. Speedlin                    PRECINCT 201                                           01 
01220010004000369REP       4th Court of Appeals District, Place 7                  Phylis J. Speedlin                    PRECINCT 301                                           01 
01220010006000152REP       4th Court of Appeals District, Place 7                  Phylis J. Speedlin                    PRECINCT 401                                           01 
01220020001000133DEM       4th Court of Appeals District, Place 7                  Rebeca C. Martinez                    PRECINCT 101                                           01 
01220020002000064DEM       4th Court of Appeals District, Place 7                  Rebeca C. Martinez                    PRECINCT 201                                           01 
01220020004000086DEM       4th Court of Appeals District, Place 7                  Rebeca C. Martinez                    PRECINCT 301                                           01 
01220020006000108DEM       4th Court of Appeals District, Place 7                  Rebeca C. Martinez                    PRECINCT 401                                           01 
01220030001000000          4th Court of Appeals District, Place 7                  OVER VOTES                            PRECINCT 101                                           01 
01220030002000000          4th Court of Appeals District, Place 7                  OVER VOTES                            PRECINCT 201                                           01 
01220030004000001          4th Court of Appeals District, Place 7                  OVER VOTES                            PRECINCT 301                                           01 
01220030006000001          4th Court of Appeals District, Place 7                  OVER VOTES                            PRECINCT 401                                           01 
01220040001000022          4th Court of Appeals District, Place 7                  UNDER VOTES                           PRECINCT 101                                           01 
01220040002000031          4th Court of Appeals District, Place 7                  UNDER VOTES                           PRECINCT 201                                           01 
01220040004000060          4th Court of Appeals District, Place 7                  UNDER VOTES                           PRECINCT 301                                           01 
01220040006000027          4th Court of Appeals District, Place 7                  UNDER VOTES                           PRECINCT 401                                           01 
01230010001000193DEM       District Attorney, 112th Judicial Dist                  Laurie K. English                     PRECINCT 101                                           01 
01230010002000238DEM       District Attorney, 112th Judicial Dist                  Laurie K. English                     PRECINCT 201                                           01 
01230010004000323DEM       District Attorney, 112th Judicial Dist                  Laurie K. English                     PRECINCT 301                                           01 
01230010006000179DEM       District Attorney, 112th Judicial Dist                  Laurie K. English                     PRECINCT 401                                           01 
01230020001000000          District Attorney, 112th Judicial Dist                  OVER VOTES                            PRECINCT 101                                           01 
01230020002000000          District Attorney, 112th Judicial Dist                  OVER VOTES                            PRECINCT 201                                           01 
01230020004000000          District Attorney, 112th Judicial Dist                  OVER VOTES                            PRECINCT 301                                           01 
01230020006000000          District Attorney, 112th Judicial Dist                  OVER VOTES                            PRECINCT 401                                           01 
01230030001000107          District Attorney, 112th Judicial Dist                  UNDER VOTES                           PRECINCT 101                                           01 
01230030002000156          District Attorney, 112th Judicial Dist                  UNDER VOTES                           PRECINCT 201                                           01 
01230030004000192          District Attorney, 112th Judicial Dist                  UNDER VOTES                           PRECINCT 301                                           01 
01230030006000109          District Attorney, 112th Judicial Dist                  UNDER VOTES                           PRECINCT 401                                           01 
01240010001000210REP       County Attorney                                         David Warren Wallace                  PRECINCT 101                                           01 
01240010002000344REP       County Attorney                                         David Warren Wallace                  PRECINCT 201                                           01 
01240010004000439REP       County Attorney                                         David Warren Wallace                  PRECINCT 301                                           01 
01240010006000209REP       County Attorney                                         David Warren Wallace                  PRECINCT 401                                           01 
01240020001000000          County Attorney                                         OVER VOTES                            PRECINCT 101                                           01 
01240020002000000          County Attorney                                         OVER VOTES                            PRECINCT 201                                           01 
01240020004000000          County Attorney                                         OVER VOTES                            PRECINCT 301                                           01 
01240020006000000          County Attorney                                         OVER VOTES                            PRECINCT 401                                           01 
01240030001000091          County Attorney                                         UNDER VOTES                           PRECINCT 101                                           01 
01240030002000050          County Attorney                                         UNDER VOTES                           PRECINCT 201                                           01 
01240030004000077          County Attorney                                         UNDER VOTES                           PRECINCT 301                                           01 
01240030006000079          County Attorney                                         UNDER VOTES                           PRECINCT 401                                           01 
01250010001000195REP       Sheriff                                                 Joe M. Fincher                        PRECINCT 101                                           01 
01250010002000347REP       Sheriff                                                 Joe M. Fincher                        PRECINCT 201                                           01 
01250010004000447REP       Sheriff                                                 Joe M. Fincher                        PRECINCT 301                                           01 
01250010006000177REP       Sheriff                                                 Joe M. Fincher                        PRECINCT 401                                           01 
01250020001000104DEM       Sheriff                                                 Earlie Williams IV                    PRECINCT 101                                           01 
01250020002000044DEM       Sheriff                                                 Earlie Williams IV                    PRECINCT 201                                           01 
01250020004000059DEM       Sheriff                                                 Earlie Williams IV                    PRECINCT 301                                           01 
01250020006000106DEM       Sheriff                                                 Earlie Williams IV                    PRECINCT 401                                           01 
01250030001000000          Sheriff                                                 OVER VOTES                            PRECINCT 101                                           01 
01250030002000000          Sheriff                                                 OVER VOTES                            PRECINCT 201                                           01 
01250030004000001          Sheriff                                                 OVER VOTES                            PRECINCT 301                                           01 
01250030006000001          Sheriff                                                 OVER VOTES                            PRECINCT 401                                           01 
01250040001000002          Sheriff                                                 UNDER VOTES                           PRECINCT 101                                           01 
01250040002000003          Sheriff                                                 UNDER VOTES                           PRECINCT 201                                           01 
01250040004000009          Sheriff                                                 UNDER VOTES                           PRECINCT 301                                           01 
01250040006000004          Sheriff                                                 UNDER VOTES                           PRECINCT 401                                           01 
01260010001000194REP       County Tax Assessor-Collector                           Erica Nicole Berry                    PRECINCT 101                                           01 
01260010002000335REP       County Tax Assessor-Collector                           Erica Nicole Berry                    PRECINCT 201                                           01 
01260010004000433REP       County Tax Assessor-Collector                           Erica Nicole Berry                    PRECINCT 301                                           01 
01260010006000210REP       County Tax Assessor-Collector                           Erica Nicole Berry                    PRECINCT 401                                           01 
01260020001000000          County Tax Assessor-Collector                           OVER VOTES                            PRECINCT 101                                           01 
01260020002000000          County Tax Assessor-Collector                           OVER VOTES                            PRECINCT 201                                           01 
01260020004000000          County Tax Assessor-Collector                           OVER VOTES                            PRECINCT 301                                           01 
01260020006000000          County Tax Assessor-Collector                           OVER VOTES                            PRECINCT 401                                           01 
01260030001000107          County Tax Assessor-Collector                           UNDER VOTES                           PRECINCT 101                                           01 
01260030002000059          County Tax Assessor-Collector                           UNDER VOTES                           PRECINCT 201                                           01 
01260030004000083          County Tax Assessor-Collector                           UNDER VOTES                           PRECINCT 301                                           01 
01260030006000078          County Tax Assessor-Collector                           UNDER VOTES                           PRECINCT 401                                           01 
01270010001000184DEMCCOM001County Commissioner, Precinct No. 1                     Miguel (Mike) Villanueva              PRECINCT 101                                           01 
01270020001000000   CCOM001County Commissioner, Precinct No. 1                     OVER VOTES                            PRECINCT 101                                           01 
01270030001000116   CCOM001County Commissioner, Precinct No. 1                     UNDER VOTES                           PRECINCT 101                                           01 
01280010004000357DEMCCOM003County Commissioner, Precinct No. 3                     Carl Teaff                            PRECINCT 301                                           01 
01280020004000000   CCOM003County Commissioner, Precinct No. 3                     OVER VOTES                            PRECINCT 301                                           01 
01280030004000158   CCOM003County Commissioner, Precinct No. 3                     UNDER VOTES                           PRECINCT 301                                           01 
