01030010001000100REP       STRAIGHT PARTY                                          REPUBLICAN PARTY                      PRECINCT 1                                             01 
01030010002000187REP       STRAIGHT PARTY                                          REPUBLICAN PARTY                      PRECINCT 2                                             01 
01030010003000137REP       STRAIGHT PARTY                                          REPUBLICAN PARTY                      PRECINCT 3                                             01 
01030010004000047REP       STRAIGHT PARTY                                          REPUBLICAN PARTY                      PRECINCT 4                                             01 
01030010006000078REP       STRAIGHT PARTY                                          REPUBLICAN PARTY                      PRECINCT 6                                             01 
01030010007000120REP       STRAIGHT PARTY                                          REPUBLICAN PARTY                      PRECINCT 7                                             01 
01030010009000009REP       STRAIGHT PARTY                                          REPUBLICAN PARTY                      PRECINCT 9                                             01 
01030010010000083REP       STRAIGHT PARTY                                          REPUBLICAN PARTY                      PRECINCT 11                                            01 
01030020001000058DEM       STRAIGHT PARTY                                          DEMOCRATIC PARTY                      PRECINCT 1                                             01 
01030020002000093DEM       STRAIGHT PARTY                                          DEMOCRATIC PARTY                      PRECINCT 2                                             01 
01030020003000078DEM       STRAIGHT PARTY                                          DEMOCRATIC PARTY                      PRECINCT 3                                             01 
01030020004000068DEM       STRAIGHT PARTY                                          DEMOCRATIC PARTY                      PRECINCT 4                                             01 
01030020006000044DEM       STRAIGHT PARTY                                          DEMOCRATIC PARTY                      PRECINCT 6                                             01 
01030020007000024DEM       STRAIGHT PARTY                                          DEMOCRATIC PARTY                      PRECINCT 7                                             01 
01030020009000008DEM       STRAIGHT PARTY                                          DEMOCRATIC PARTY                      PRECINCT 9                                             01 
01030020010000034DEM       STRAIGHT PARTY                                          DEMOCRATIC PARTY                      PRECINCT 11                                            01 
01030030001000000LIB       STRAIGHT PARTY                                          LIBERTARIAN PARTY                     PRECINCT 1                                             01 
01030030002000003LIB       STRAIGHT PARTY                                          LIBERTARIAN PARTY                     PRECINCT 2                                             01 
01030030003000004LIB       STRAIGHT PARTY                                          LIBERTARIAN PARTY                     PRECINCT 3                                             01 
01030030004000000LIB       STRAIGHT PARTY                                          LIBERTARIAN PARTY                     PRECINCT 4                                             01 
01030030006000000LIB       STRAIGHT PARTY                                          LIBERTARIAN PARTY                     PRECINCT 6                                             01 
01030030007000001LIB       STRAIGHT PARTY                                          LIBERTARIAN PARTY                     PRECINCT 7                                             01 
01030030009000000LIB       STRAIGHT PARTY                                          LIBERTARIAN PARTY                     PRECINCT 9                                             01 
01030030010000000LIB       STRAIGHT PARTY                                          LIBERTARIAN PARTY                     PRECINCT 11                                            01 
01030040001000000GRN       STRAIGHT PARTY                                          GREEN PARTY                           PRECINCT 1                                             01 
01030040002000001GRN       STRAIGHT PARTY                                          GREEN PARTY                           PRECINCT 2                                             01 
01030040003000000GRN       STRAIGHT PARTY                                          GREEN PARTY                           PRECINCT 3                                             01 
01030040004000002GRN       STRAIGHT PARTY                                          GREEN PARTY                           PRECINCT 4                                             01 
01030040006000002GRN       STRAIGHT PARTY                                          GREEN PARTY                           PRECINCT 6                                             01 
01030040007000001GRN       STRAIGHT PARTY                                          GREEN PARTY                           PRECINCT 7                                             01 
01030040009000001GRN       STRAIGHT PARTY                                          GREEN PARTY                           PRECINCT 9                                             01 
01030040010000000GRN       STRAIGHT PARTY                                          GREEN PARTY                           PRECINCT 11                                            01 
01030050001000000          STRAIGHT PARTY                                          OVER VOTES                            PRECINCT 1                                             01 
01030050002000000          STRAIGHT PARTY                                          OVER VOTES                            PRECINCT 2                                             01 
01030050003000000          STRAIGHT PARTY                                          OVER VOTES                            PRECINCT 3                                             01 
01030050004000000          STRAIGHT PARTY                                          OVER VOTES                            PRECINCT 4                                             01 
01030050006000000          STRAIGHT PARTY                                          OVER VOTES                            PRECINCT 6                                             01 
01030050007000000          STRAIGHT PARTY                                          OVER VOTES                            PRECINCT 7                                             01 
01030050009000000          STRAIGHT PARTY                                          OVER VOTES                            PRECINCT 9                                             01 
01030050010000000          STRAIGHT PARTY                                          OVER VOTES                            PRECINCT 11                                            01 
01030060001000165          STRAIGHT PARTY                                          UNDER VOTES                           PRECINCT 1                                             01 
01030060002000266          STRAIGHT PARTY                                          UNDER VOTES                           PRECINCT 2                                             01 
01030060003000243          STRAIGHT PARTY                                          UNDER VOTES                           PRECINCT 3                                             01 
01030060004000078          STRAIGHT PARTY                                          UNDER VOTES                           PRECINCT 4                                             01 
01030060006000085          STRAIGHT PARTY                                          UNDER VOTES                           PRECINCT 6                                             01 
01030060007000172          STRAIGHT PARTY                                          UNDER VOTES                           PRECINCT 7                                             01 
01030060009000018          STRAIGHT PARTY                                          UNDER VOTES                           PRECINCT 9                                             01 
01030060010000085          STRAIGHT PARTY                                          UNDER VOTES                           PRECINCT 11                                            01 
01040010001000222REP       President and Vice-President SWISHER COUNTYWIDE         Mitt Romney / Paul Ryan               PRECINCT 1                                             01 
01040010002000406REP       President and Vice-President SWISHER COUNTYWIDE         Mitt Romney / Paul Ryan               PRECINCT 2                                             01 
01040010003000337REP       President and Vice-President SWISHER COUNTYWIDE         Mitt Romney / Paul Ryan               PRECINCT 3                                             01 
01040010004000104REP       President and Vice-President SWISHER COUNTYWIDE         Mitt Romney / Paul Ryan               PRECINCT 4                                             01 
01040010006000141REP       President and Vice-President SWISHER COUNTYWIDE         Mitt Romney / Paul Ryan               PRECINCT 6                                             01 
01040010007000265REP       President and Vice-President SWISHER COUNTYWIDE         Mitt Romney / Paul Ryan               PRECINCT 7                                             01 
01040010009000022REP       President and Vice-President SWISHER COUNTYWIDE         Mitt Romney / Paul Ryan               PRECINCT 9                                             01 
01040010010000158REP       President and Vice-President SWISHER COUNTYWIDE         Mitt Romney / Paul Ryan               PRECINCT 11                                            01 
01040020001000095DEM       President and Vice-President SWISHER COUNTYWIDE         Barack Obama / Joe Biden              PRECINCT 1                                             01 
01040020002000130DEM       President and Vice-President SWISHER COUNTYWIDE         Barack Obama / Joe Biden              PRECINCT 2                                             01 
01040020003000114DEM       President and Vice-President SWISHER COUNTYWIDE         Barack Obama / Joe Biden              PRECINCT 3                                             01 
01040020004000085DEM       President and Vice-President SWISHER COUNTYWIDE         Barack Obama / Joe Biden              PRECINCT 4                                             01 
01040020006000058DEM       President and Vice-President SWISHER COUNTYWIDE         Barack Obama / Joe Biden              PRECINCT 6                                             01 
01040020007000041DEM       President and Vice-President SWISHER COUNTYWIDE         Barack Obama / Joe Biden              PRECINCT 7                                             01 
01040020009000012DEM       President and Vice-President SWISHER COUNTYWIDE         Barack Obama / Joe Biden              PRECINCT 9                                             01 
01040020010000044DEM       President and Vice-President SWISHER COUNTYWIDE         Barack Obama / Joe Biden              PRECINCT 11                                            01 
01040030001000001LIB       President and Vice-President SWISHER COUNTYWIDE         Gary Johnson / Jim Gray               PRECINCT 1                                             01 
01040030002000007LIB       President and Vice-President SWISHER COUNTYWIDE         Gary Johnson / Jim Gray               PRECINCT 2                                             01 
01040030003000002LIB       President and Vice-President SWISHER COUNTYWIDE         Gary Johnson / Jim Gray               PRECINCT 3                                             01 
01040030004000002LIB       President and Vice-President SWISHER COUNTYWIDE         Gary Johnson / Jim Gray               PRECINCT 4                                             01 
01040030006000006LIB       President and Vice-President SWISHER COUNTYWIDE         Gary Johnson / Jim Gray               PRECINCT 6                                             01 
01040030007000006LIB       President and Vice-President SWISHER COUNTYWIDE         Gary Johnson / Jim Gray               PRECINCT 7                                             01 
01040030009000000LIB       President and Vice-President SWISHER COUNTYWIDE         Gary Johnson / Jim Gray               PRECINCT 9                                             01 
01040030010000000LIB       President and Vice-President SWISHER COUNTYWIDE         Gary Johnson / Jim Gray               PRECINCT 11                                            01 
01040040001000002GRN       President and Vice-President SWISHER COUNTYWIDE         Jill Stein / Cheri Honkala            PRECINCT 1                                             01 
01040040002000002GRN       President and Vice-President SWISHER COUNTYWIDE         Jill Stein / Cheri Honkala            PRECINCT 2                                             01 
01040040003000001GRN       President and Vice-President SWISHER COUNTYWIDE         Jill Stein / Cheri Honkala            PRECINCT 3                                             01 
01040040004000000GRN       President and Vice-President SWISHER COUNTYWIDE         Jill Stein / Cheri Honkala            PRECINCT 4                                             01 
01040040006000001GRN       President and Vice-President SWISHER COUNTYWIDE         Jill Stein / Cheri Honkala            PRECINCT 6                                             01 
01040040007000001GRN       President and Vice-President SWISHER COUNTYWIDE         Jill Stein / Cheri Honkala            PRECINCT 7                                             01 
01040040009000001GRN       President and Vice-President SWISHER COUNTYWIDE         Jill Stein / Cheri Honkala            PRECINCT 9                                             01 
01040040010000000GRN       President and Vice-President SWISHER COUNTYWIDE         Jill Stein / Cheri Honkala            PRECINCT 11                                            01 
01040050001000001NON       President and Vice-President SWISHER COUNTYWIDE         WRITE-IN                              PRECINCT 1                                             01 
01040050002000002NON       President and Vice-President SWISHER COUNTYWIDE         WRITE-IN                              PRECINCT 2                                             01 
01040050003000000NON       President and Vice-President SWISHER COUNTYWIDE         WRITE-IN                              PRECINCT 3                                             01 
01040050004000000NON       President and Vice-President SWISHER COUNTYWIDE         WRITE-IN                              PRECINCT 4                                             01 
01040050006000001NON       President and Vice-President SWISHER COUNTYWIDE         WRITE-IN                              PRECINCT 6                                             01 
01040050007000004NON       President and Vice-President SWISHER COUNTYWIDE         WRITE-IN                              PRECINCT 7                                             01 
01040050009000000NON       President and Vice-President SWISHER COUNTYWIDE         WRITE-IN                              PRECINCT 9                                             01 
01040050010000000NON       President and Vice-President SWISHER COUNTYWIDE         WRITE-IN                              PRECINCT 11                                            01 
01040060001000000          President and Vice-President SWISHER COUNTYWIDE         OVER VOTES                            PRECINCT 1                                             01 
01040060002000000          President and Vice-President SWISHER COUNTYWIDE         OVER VOTES                            PRECINCT 2                                             01 
01040060003000000          President and Vice-President SWISHER COUNTYWIDE         OVER VOTES                            PRECINCT 3                                             01 
01040060004000000          President and Vice-President SWISHER COUNTYWIDE         OVER VOTES                            PRECINCT 4                                             01 
01040060006000000          President and Vice-President SWISHER COUNTYWIDE         OVER VOTES                            PRECINCT 6                                             01 
01040060007000000          President and Vice-President SWISHER COUNTYWIDE         OVER VOTES                            PRECINCT 7                                             01 
01040060009000000          President and Vice-President SWISHER COUNTYWIDE         OVER VOTES                            PRECINCT 9                                             01 
01040060010000000          President and Vice-President SWISHER COUNTYWIDE         OVER VOTES                            PRECINCT 11                                            01 
01040070001000002          President and Vice-President SWISHER COUNTYWIDE         UNDER VOTES                           PRECINCT 1                                             01 
01040070002000003          President and Vice-President SWISHER COUNTYWIDE         UNDER VOTES                           PRECINCT 2                                             01 
01040070003000008          President and Vice-President SWISHER COUNTYWIDE         UNDER VOTES                           PRECINCT 3                                             01 
01040070004000004          President and Vice-President SWISHER COUNTYWIDE         UNDER VOTES                           PRECINCT 4                                             01 
01040070006000002          President and Vice-President SWISHER COUNTYWIDE         UNDER VOTES                           PRECINCT 6                                             01 
01040070007000002          President and Vice-President SWISHER COUNTYWIDE         UNDER VOTES                           PRECINCT 7                                             01 
01040070009000001          President and Vice-President SWISHER COUNTYWIDE         UNDER VOTES                           PRECINCT 9                                             01 
01040070010000000          President and Vice-President SWISHER COUNTYWIDE         UNDER VOTES                           PRECINCT 11                                            01 
01050010001000216REP       United States Senator SWISHER COUNTYWIDE                Ted Cruz                              PRECINCT 1                                             01 
01050010002000372REP       United States Senator SWISHER COUNTYWIDE                Ted Cruz                              PRECINCT 2                                             01 
01050010003000313REP       United States Senator SWISHER COUNTYWIDE                Ted Cruz                              PRECINCT 3                                             01 
01050010004000096REP       United States Senator SWISHER COUNTYWIDE                Ted Cruz                              PRECINCT 4                                             01 
01050010006000128REP       United States Senator SWISHER COUNTYWIDE                Ted Cruz                              PRECINCT 6                                             01 
01050010007000253REP       United States Senator SWISHER COUNTYWIDE                Ted Cruz                              PRECINCT 7                                             01 
01050010009000018REP       United States Senator SWISHER COUNTYWIDE                Ted Cruz                              PRECINCT 9                                             01 
01050010010000143REP       United States Senator SWISHER COUNTYWIDE                Ted Cruz                              PRECINCT 11                                            01 
01050020001000087DEM       United States Senator SWISHER COUNTYWIDE                Paul Sadler                           PRECINCT 1                                             01 
01050020002000151DEM       United States Senator SWISHER COUNTYWIDE                Paul Sadler                           PRECINCT 2                                             01 
01050020003000126DEM       United States Senator SWISHER COUNTYWIDE                Paul Sadler                           PRECINCT 3                                             01 
01050020004000083DEM       United States Senator SWISHER COUNTYWIDE                Paul Sadler                           PRECINCT 4                                             01 
01050020006000059DEM       United States Senator SWISHER COUNTYWIDE                Paul Sadler                           PRECINCT 6                                             01 
01050020007000048DEM       United States Senator SWISHER COUNTYWIDE                Paul Sadler                           PRECINCT 7                                             01 
01050020009000017DEM       United States Senator SWISHER COUNTYWIDE                Paul Sadler                           PRECINCT 9                                             01 
01050020010000054DEM       United States Senator SWISHER COUNTYWIDE                Paul Sadler                           PRECINCT 11                                            01 
01050030001000003LIB       United States Senator SWISHER COUNTYWIDE                John Jay Myers                        PRECINCT 1                                             01 
01050030002000009LIB       United States Senator SWISHER COUNTYWIDE                John Jay Myers                        PRECINCT 2                                             01 
01050030003000009LIB       United States Senator SWISHER COUNTYWIDE                John Jay Myers                        PRECINCT 3                                             01 
01050030004000004LIB       United States Senator SWISHER COUNTYWIDE                John Jay Myers                        PRECINCT 4                                             01 
01050030006000005LIB       United States Senator SWISHER COUNTYWIDE                John Jay Myers                        PRECINCT 6                                             01 
01050030007000008LIB       United States Senator SWISHER COUNTYWIDE                John Jay Myers                        PRECINCT 7                                             01 
01050030009000000LIB       United States Senator SWISHER COUNTYWIDE                John Jay Myers                        PRECINCT 9                                             01 
01050030010000001LIB       United States Senator SWISHER COUNTYWIDE                John Jay Myers                        PRECINCT 11                                            01 
01050040001000002GRN       United States Senator SWISHER COUNTYWIDE                David B. Collins                      PRECINCT 1                                             01 
01050040002000004GRN       United States Senator SWISHER COUNTYWIDE                David B. Collins                      PRECINCT 2                                             01 
01050040003000003GRN       United States Senator SWISHER COUNTYWIDE                David B. Collins                      PRECINCT 3                                             01 
01050040004000003GRN       United States Senator SWISHER COUNTYWIDE                David B. Collins                      PRECINCT 4                                             01 
01050040006000003GRN       United States Senator SWISHER COUNTYWIDE                David B. Collins                      PRECINCT 6                                             01 
01050040007000004GRN       United States Senator SWISHER COUNTYWIDE                David B. Collins                      PRECINCT 7                                             01 
01050040009000001GRN       United States Senator SWISHER COUNTYWIDE                David B. Collins                      PRECINCT 9                                             01 
01050040010000000GRN       United States Senator SWISHER COUNTYWIDE                David B. Collins                      PRECINCT 11                                            01 
01050050001000000          United States Senator SWISHER COUNTYWIDE                OVER VOTES                            PRECINCT 1                                             01 
01050050002000000          United States Senator SWISHER COUNTYWIDE                OVER VOTES                            PRECINCT 2                                             01 
01050050003000000          United States Senator SWISHER COUNTYWIDE                OVER VOTES                            PRECINCT 3                                             01 
01050050004000000          United States Senator SWISHER COUNTYWIDE                OVER VOTES                            PRECINCT 4                                             01 
01050050006000000          United States Senator SWISHER COUNTYWIDE                OVER VOTES                            PRECINCT 6                                             01 
01050050007000000          United States Senator SWISHER COUNTYWIDE                OVER VOTES                            PRECINCT 7                                             01 
01050050009000000          United States Senator SWISHER COUNTYWIDE                OVER VOTES                            PRECINCT 9                                             01 
01050050010000000          United States Senator SWISHER COUNTYWIDE                OVER VOTES                            PRECINCT 11                                            01 
01050060001000015          United States Senator SWISHER COUNTYWIDE                UNDER VOTES                           PRECINCT 1                                             01 
01050060002000014          United States Senator SWISHER COUNTYWIDE                UNDER VOTES                           PRECINCT 2                                             01 
01050060003000011          United States Senator SWISHER COUNTYWIDE                UNDER VOTES                           PRECINCT 3                                             01 
01050060004000009          United States Senator SWISHER COUNTYWIDE                UNDER VOTES                           PRECINCT 4                                             01 
01050060006000014          United States Senator SWISHER COUNTYWIDE                UNDER VOTES                           PRECINCT 6                                             01 
01050060007000006          United States Senator SWISHER COUNTYWIDE                UNDER VOTES                           PRECINCT 7                                             01 
01050060009000000          United States Senator SWISHER COUNTYWIDE                UNDER VOTES                           PRECINCT 9                                             01 
01050060010000004          United States Senator SWISHER COUNTYWIDE                UNDER VOTES                           PRECINCT 11                                            01 
01060010001000233REP       United States Rep, District 13 SWISHER COUNTYWIDE       Mac Thornberry                        PRECINCT 1                                             01 
01060010002000435REP       United States Rep, District 13 SWISHER COUNTYWIDE       Mac Thornberry                        PRECINCT 2                                             01 
01060010003000353REP       United States Rep, District 13 SWISHER COUNTYWIDE       Mac Thornberry                        PRECINCT 3                                             01 
01060010004000111REP       United States Rep, District 13 SWISHER COUNTYWIDE       Mac Thornberry                        PRECINCT 4                                             01 
01060010006000150REP       United States Rep, District 13 SWISHER COUNTYWIDE       Mac Thornberry                        PRECINCT 6                                             01 
01060010007000271REP       United States Rep, District 13 SWISHER COUNTYWIDE       Mac Thornberry                        PRECINCT 7                                             01 
01060010009000022REP       United States Rep, District 13 SWISHER COUNTYWIDE       Mac Thornberry                        PRECINCT 9                                             01 
01060010010000155REP       United States Rep, District 13 SWISHER COUNTYWIDE       Mac Thornberry                        PRECINCT 11                                            01 
01060020001000013LIB       United States Rep, District 13 SWISHER COUNTYWIDE       John Robert Deek                      PRECINCT 1                                             01 
01060020002000020LIB       United States Rep, District 13 SWISHER COUNTYWIDE       John Robert Deek                      PRECINCT 2                                             01 
01060020003000024LIB       United States Rep, District 13 SWISHER COUNTYWIDE       John Robert Deek                      PRECINCT 3                                             01 
01060020004000009LIB       United States Rep, District 13 SWISHER COUNTYWIDE       John Robert Deek                      PRECINCT 4                                             01 
01060020006000009LIB       United States Rep, District 13 SWISHER COUNTYWIDE       John Robert Deek                      PRECINCT 6                                             01 
01060020007000009LIB       United States Rep, District 13 SWISHER COUNTYWIDE       John Robert Deek                      PRECINCT 7                                             01 
01060020009000004LIB       United States Rep, District 13 SWISHER COUNTYWIDE       John Robert Deek                      PRECINCT 9                                             01 
01060020010000008LIB       United States Rep, District 13 SWISHER COUNTYWIDE       John Robert Deek                      PRECINCT 11                                            01 
01060030001000011GRN       United States Rep, District 13 SWISHER COUNTYWIDE       Keith F. Houston                      PRECINCT 1                                             01 
01060030002000014GRN       United States Rep, District 13 SWISHER COUNTYWIDE       Keith F. Houston                      PRECINCT 2                                             01 
01060030003000007GRN       United States Rep, District 13 SWISHER COUNTYWIDE       Keith F. Houston                      PRECINCT 3                                             01 
01060030004000007GRN       United States Rep, District 13 SWISHER COUNTYWIDE       Keith F. Houston                      PRECINCT 4                                             01 
01060030006000006GRN       United States Rep, District 13 SWISHER COUNTYWIDE       Keith F. Houston                      PRECINCT 6                                             01 
01060030007000010GRN       United States Rep, District 13 SWISHER COUNTYWIDE       Keith F. Houston                      PRECINCT 7                                             01 
01060030009000001GRN       United States Rep, District 13 SWISHER COUNTYWIDE       Keith F. Houston                      PRECINCT 9                                             01 
01060030010000004GRN       United States Rep, District 13 SWISHER COUNTYWIDE       Keith F. Houston                      PRECINCT 11                                            01 
01060040001000000          United States Rep, District 13 SWISHER COUNTYWIDE       OVER VOTES                            PRECINCT 1                                             01 
01060040002000000          United States Rep, District 13 SWISHER COUNTYWIDE       OVER VOTES                            PRECINCT 2                                             01 
01060040003000000          United States Rep, District 13 SWISHER COUNTYWIDE       OVER VOTES                            PRECINCT 3                                             01 
01060040004000000          United States Rep, District 13 SWISHER COUNTYWIDE       OVER VOTES                            PRECINCT 4                                             01 
01060040006000000          United States Rep, District 13 SWISHER COUNTYWIDE       OVER VOTES                            PRECINCT 6                                             01 
01060040007000000          United States Rep, District 13 SWISHER COUNTYWIDE       OVER VOTES                            PRECINCT 7                                             01 
01060040009000000          United States Rep, District 13 SWISHER COUNTYWIDE       OVER VOTES                            PRECINCT 9                                             01 
01060040010000000          United States Rep, District 13 SWISHER COUNTYWIDE       OVER VOTES                            PRECINCT 11                                            01 
01060050001000066          United States Rep, District 13 SWISHER COUNTYWIDE       UNDER VOTES                           PRECINCT 1                                             01 
01060050002000081          United States Rep, District 13 SWISHER COUNTYWIDE       UNDER VOTES                           PRECINCT 2                                             01 
01060050003000078          United States Rep, District 13 SWISHER COUNTYWIDE       UNDER VOTES                           PRECINCT 3                                             01 
01060050004000068          United States Rep, District 13 SWISHER COUNTYWIDE       UNDER VOTES                           PRECINCT 4                                             01 
01060050006000044          United States Rep, District 13 SWISHER COUNTYWIDE       UNDER VOTES                           PRECINCT 6                                             01 
01060050007000029          United States Rep, District 13 SWISHER COUNTYWIDE       UNDER VOTES                           PRECINCT 7                                             01 
01060050009000009          United States Rep, District 13 SWISHER COUNTYWIDE       UNDER VOTES                           PRECINCT 9                                             01 
01060050010000035          United States Rep, District 13 SWISHER COUNTYWIDE       UNDER VOTES                           PRECINCT 11                                            01 
01070010001000195REP       Railroad Commissioner SWISHER COUNTYWIDE                Christi Craddick                      PRECINCT 1                                             01 
01070010002000350REP       Railroad Commissioner SWISHER COUNTYWIDE                Christi Craddick                      PRECINCT 2                                             01 
01070010003000289REP       Railroad Commissioner SWISHER COUNTYWIDE                Christi Craddick                      PRECINCT 3                                             01 
01070010004000087REP       Railroad Commissioner SWISHER COUNTYWIDE                Christi Craddick                      PRECINCT 4                                             01 
01070010006000126REP       Railroad Commissioner SWISHER COUNTYWIDE                Christi Craddick                      PRECINCT 6                                             01 
01070010007000236REP       Railroad Commissioner SWISHER COUNTYWIDE                Christi Craddick                      PRECINCT 7                                             01 
01070010009000020REP       Railroad Commissioner SWISHER COUNTYWIDE                Christi Craddick                      PRECINCT 9                                             01 
01070010010000141REP       Railroad Commissioner SWISHER COUNTYWIDE                Christi Craddick                      PRECINCT 11                                            01 
01070020001000099DEM       Railroad Commissioner SWISHER COUNTYWIDE                Dale Henry                            PRECINCT 1                                             01 
01070020002000159DEM       Railroad Commissioner SWISHER COUNTYWIDE                Dale Henry                            PRECINCT 2                                             01 
01070020003000147DEM       Railroad Commissioner SWISHER COUNTYWIDE                Dale Henry                            PRECINCT 3                                             01 
01070020004000089DEM       Railroad Commissioner SWISHER COUNTYWIDE                Dale Henry                            PRECINCT 4                                             01 
01070020006000064DEM       Railroad Commissioner SWISHER COUNTYWIDE                Dale Henry                            PRECINCT 6                                             01 
01070020007000057DEM       Railroad Commissioner SWISHER COUNTYWIDE                Dale Henry                            PRECINCT 7                                             01 
01070020009000013DEM       Railroad Commissioner SWISHER COUNTYWIDE                Dale Henry                            PRECINCT 9                                             01 
01070020010000050DEM       Railroad Commissioner SWISHER COUNTYWIDE                Dale Henry                            PRECINCT 11                                            01 
01070030001000003LIB       Railroad Commissioner SWISHER COUNTYWIDE                Vivekananda (Vik) Wall                PRECINCT 1                                             01 
01070030002000008LIB       Railroad Commissioner SWISHER COUNTYWIDE                Vivekananda (Vik) Wall                PRECINCT 2                                             01 
01070030003000004LIB       Railroad Commissioner SWISHER COUNTYWIDE                Vivekananda (Vik) Wall                PRECINCT 3                                             01 
01070030004000001LIB       Railroad Commissioner SWISHER COUNTYWIDE                Vivekananda (Vik) Wall                PRECINCT 4                                             01 
01070030006000001LIB       Railroad Commissioner SWISHER COUNTYWIDE                Vivekananda (Vik) Wall                PRECINCT 6                                             01 
01070030007000007LIB       Railroad Commissioner SWISHER COUNTYWIDE                Vivekananda (Vik) Wall                PRECINCT 7                                             01 
01070030009000001LIB       Railroad Commissioner SWISHER COUNTYWIDE                Vivekananda (Vik) Wall                PRECINCT 9                                             01 
01070030010000003LIB       Railroad Commissioner SWISHER COUNTYWIDE                Vivekananda (Vik) Wall                PRECINCT 11                                            01 
01070040001000003GRN       Railroad Commissioner SWISHER COUNTYWIDE                Chris Kennedy                         PRECINCT 1                                             01 
01070040002000015GRN       Railroad Commissioner SWISHER COUNTYWIDE                Chris Kennedy                         PRECINCT 2                                             01 
01070040003000005GRN       Railroad Commissioner SWISHER COUNTYWIDE                Chris Kennedy                         PRECINCT 3                                             01 
01070040004000003GRN       Railroad Commissioner SWISHER COUNTYWIDE                Chris Kennedy                         PRECINCT 4                                             01 
01070040006000005GRN       Railroad Commissioner SWISHER COUNTYWIDE                Chris Kennedy                         PRECINCT 6                                             01 
01070040007000007GRN       Railroad Commissioner SWISHER COUNTYWIDE                Chris Kennedy                         PRECINCT 7                                             01 
01070040009000001GRN       Railroad Commissioner SWISHER COUNTYWIDE                Chris Kennedy                         PRECINCT 9                                             01 
01070040010000000GRN       Railroad Commissioner SWISHER COUNTYWIDE                Chris Kennedy                         PRECINCT 11                                            01 
01070050001000000          Railroad Commissioner SWISHER COUNTYWIDE                OVER VOTES                            PRECINCT 1                                             01 
01070050002000000          Railroad Commissioner SWISHER COUNTYWIDE                OVER VOTES                            PRECINCT 2                                             01 
01070050003000000          Railroad Commissioner SWISHER COUNTYWIDE                OVER VOTES                            PRECINCT 3                                             01 
01070050004000000          Railroad Commissioner SWISHER COUNTYWIDE                OVER VOTES                            PRECINCT 4                                             01 
01070050006000000          Railroad Commissioner SWISHER COUNTYWIDE                OVER VOTES                            PRECINCT 6                                             01 
01070050007000000          Railroad Commissioner SWISHER COUNTYWIDE                OVER VOTES                            PRECINCT 7                                             01 
01070050009000000          Railroad Commissioner SWISHER COUNTYWIDE                OVER VOTES                            PRECINCT 9                                             01 
01070050010000000          Railroad Commissioner SWISHER COUNTYWIDE                OVER VOTES                            PRECINCT 11                                            01 
01070060001000023          Railroad Commissioner SWISHER COUNTYWIDE                UNDER VOTES                           PRECINCT 1                                             01 
01070060002000018          Railroad Commissioner SWISHER COUNTYWIDE                UNDER VOTES                           PRECINCT 2                                             01 
01070060003000017          Railroad Commissioner SWISHER COUNTYWIDE                UNDER VOTES                           PRECINCT 3                                             01 
01070060004000015          Railroad Commissioner SWISHER COUNTYWIDE                UNDER VOTES                           PRECINCT 4                                             01 
01070060006000013          Railroad Commissioner SWISHER COUNTYWIDE                UNDER VOTES                           PRECINCT 6                                             01 
01070060007000012          Railroad Commissioner SWISHER COUNTYWIDE                UNDER VOTES                           PRECINCT 7                                             01 
01070060009000001          Railroad Commissioner SWISHER COUNTYWIDE                UNDER VOTES                           PRECINCT 9                                             01 
01070060010000008          Railroad Commissioner SWISHER COUNTYWIDE                UNDER VOTES                           PRECINCT 11                                            01 
01080010001000214REP       Railroad Commissioner, UNEXP SWISHER COUNTYWIDE         Barry Smitherman                      PRECINCT 1                                             01 
01080010002000388REP       Railroad Commissioner, UNEXP SWISHER COUNTYWIDE         Barry Smitherman                      PRECINCT 2                                             01 
01080010003000331REP       Railroad Commissioner, UNEXP SWISHER COUNTYWIDE         Barry Smitherman                      PRECINCT 3                                             01 
01080010004000098REP       Railroad Commissioner, UNEXP SWISHER COUNTYWIDE         Barry Smitherman                      PRECINCT 4                                             01 
01080010006000132REP       Railroad Commissioner, UNEXP SWISHER COUNTYWIDE         Barry Smitherman                      PRECINCT 6                                             01 
01080010007000254REP       Railroad Commissioner, UNEXP SWISHER COUNTYWIDE         Barry Smitherman                      PRECINCT 7                                             01 
01080010009000022REP       Railroad Commissioner, UNEXP SWISHER COUNTYWIDE         Barry Smitherman                      PRECINCT 9                                             01 
01080010010000149REP       Railroad Commissioner, UNEXP SWISHER COUNTYWIDE         Barry Smitherman                      PRECINCT 11                                            01 
01080020001000022LIB       Railroad Commissioner, UNEXP SWISHER COUNTYWIDE         Jaime O. Perez                        PRECINCT 1                                             01 
01080020002000055LIB       Railroad Commissioner, UNEXP SWISHER COUNTYWIDE         Jaime O. Perez                        PRECINCT 2                                             01 
01080020003000032LIB       Railroad Commissioner, UNEXP SWISHER COUNTYWIDE         Jaime O. Perez                        PRECINCT 3                                             01 
01080020004000026LIB       Railroad Commissioner, UNEXP SWISHER COUNTYWIDE         Jaime O. Perez                        PRECINCT 4                                             01 
01080020006000024LIB       Railroad Commissioner, UNEXP SWISHER COUNTYWIDE         Jaime O. Perez                        PRECINCT 6                                             01 
01080020007000022LIB       Railroad Commissioner, UNEXP SWISHER COUNTYWIDE         Jaime O. Perez                        PRECINCT 7                                             01 
01080020009000002LIB       Railroad Commissioner, UNEXP SWISHER COUNTYWIDE         Jaime O. Perez                        PRECINCT 9                                             01 
01080020010000011LIB       Railroad Commissioner, UNEXP SWISHER COUNTYWIDE         Jaime O. Perez                        PRECINCT 11                                            01 
01080030001000015GRN       Railroad Commissioner, UNEXP SWISHER COUNTYWIDE         Josh Wendel                           PRECINCT 1                                             01 
01080030002000015GRN       Railroad Commissioner, UNEXP SWISHER COUNTYWIDE         Josh Wendel                           PRECINCT 2                                             01 
01080030003000015GRN       Railroad Commissioner, UNEXP SWISHER COUNTYWIDE         Josh Wendel                           PRECINCT 3                                             01 
01080030004000005GRN       Railroad Commissioner, UNEXP SWISHER COUNTYWIDE         Josh Wendel                           PRECINCT 4                                             01 
01080030006000004GRN       Railroad Commissioner, UNEXP SWISHER COUNTYWIDE         Josh Wendel                           PRECINCT 6                                             01 
01080030007000011GRN       Railroad Commissioner, UNEXP SWISHER COUNTYWIDE         Josh Wendel                           PRECINCT 7                                             01 
01080030009000004GRN       Railroad Commissioner, UNEXP SWISHER COUNTYWIDE         Josh Wendel                           PRECINCT 9                                             01 
01080030010000005GRN       Railroad Commissioner, UNEXP SWISHER COUNTYWIDE         Josh Wendel                           PRECINCT 11                                            01 
01080040001000000          Railroad Commissioner, UNEXP SWISHER COUNTYWIDE         OVER VOTES                            PRECINCT 1                                             01 
01080040002000000          Railroad Commissioner, UNEXP SWISHER COUNTYWIDE         OVER VOTES                            PRECINCT 2                                             01 
01080040003000000          Railroad Commissioner, UNEXP SWISHER COUNTYWIDE         OVER VOTES                            PRECINCT 3                                             01 
01080040004000000          Railroad Commissioner, UNEXP SWISHER COUNTYWIDE         OVER VOTES                            PRECINCT 4                                             01 
01080040006000000          Railroad Commissioner, UNEXP SWISHER COUNTYWIDE         OVER VOTES                            PRECINCT 6                                             01 
01080040007000000          Railroad Commissioner, UNEXP SWISHER COUNTYWIDE         OVER VOTES                            PRECINCT 7                                             01 
01080040009000000          Railroad Commissioner, UNEXP SWISHER COUNTYWIDE         OVER VOTES                            PRECINCT 9                                             01 
01080040010000000          Railroad Commissioner, UNEXP SWISHER COUNTYWIDE         OVER VOTES                            PRECINCT 11                                            01 
01080050001000072          Railroad Commissioner, UNEXP SWISHER COUNTYWIDE         UNDER VOTES                           PRECINCT 1                                             01 
01080050002000092          Railroad Commissioner, UNEXP SWISHER COUNTYWIDE         UNDER VOTES                           PRECINCT 2                                             01 
01080050003000084          Railroad Commissioner, UNEXP SWISHER COUNTYWIDE         UNDER VOTES                           PRECINCT 3                                             01 
01080050004000066          Railroad Commissioner, UNEXP SWISHER COUNTYWIDE         UNDER VOTES                           PRECINCT 4                                             01 
01080050006000049          Railroad Commissioner, UNEXP SWISHER COUNTYWIDE         UNDER VOTES                           PRECINCT 6                                             01 
01080050007000032          Railroad Commissioner, UNEXP SWISHER COUNTYWIDE         UNDER VOTES                           PRECINCT 7                                             01 
01080050009000008          Railroad Commissioner, UNEXP SWISHER COUNTYWIDE         UNDER VOTES                           PRECINCT 9                                             01 
01080050010000037          Railroad Commissioner, UNEXP SWISHER COUNTYWIDE         UNDER VOTES                           PRECINCT 11                                            01 
01090010001000227REP       Justice, Supreme Court, Place 2 SWISHER COUNTYWIDE      Don Willett                           PRECINCT 1                                             01 
01090010002000404REP       Justice, Supreme Court, Place 2 SWISHER COUNTYWIDE      Don Willett                           PRECINCT 2                                             01 
01090010003000341REP       Justice, Supreme Court, Place 2 SWISHER COUNTYWIDE      Don Willett                           PRECINCT 3                                             01 
01090010004000106REP       Justice, Supreme Court, Place 2 SWISHER COUNTYWIDE      Don Willett                           PRECINCT 4                                             01 
01090010006000136REP       Justice, Supreme Court, Place 2 SWISHER COUNTYWIDE      Don Willett                           PRECINCT 6                                             01 
01090010007000261REP       Justice, Supreme Court, Place 2 SWISHER COUNTYWIDE      Don Willett                           PRECINCT 7                                             01 
01090010009000021REP       Justice, Supreme Court, Place 2 SWISHER COUNTYWIDE      Don Willett                           PRECINCT 9                                             01 
01090010010000151REP       Justice, Supreme Court, Place 2 SWISHER COUNTYWIDE      Don Willett                           PRECINCT 11                                            01 
01090020001000022LIB       Justice, Supreme Court, Place 2 SWISHER COUNTYWIDE      RS Roberto Koelsch                    PRECINCT 1                                             01 
01090020002000048LIB       Justice, Supreme Court, Place 2 SWISHER COUNTYWIDE      RS Roberto Koelsch                    PRECINCT 2                                             01 
01090020003000036LIB       Justice, Supreme Court, Place 2 SWISHER COUNTYWIDE      RS Roberto Koelsch                    PRECINCT 3                                             01 
01090020004000017LIB       Justice, Supreme Court, Place 2 SWISHER COUNTYWIDE      RS Roberto Koelsch                    PRECINCT 4                                             01 
01090020006000020LIB       Justice, Supreme Court, Place 2 SWISHER COUNTYWIDE      RS Roberto Koelsch                    PRECINCT 6                                             01 
01090020007000023LIB       Justice, Supreme Court, Place 2 SWISHER COUNTYWIDE      RS Roberto Koelsch                    PRECINCT 7                                             01 
01090020009000004LIB       Justice, Supreme Court, Place 2 SWISHER COUNTYWIDE      RS Roberto Koelsch                    PRECINCT 9                                             01 
01090020010000014LIB       Justice, Supreme Court, Place 2 SWISHER COUNTYWIDE      RS Roberto Koelsch                    PRECINCT 11                                            01 
01090030001000000          Justice, Supreme Court, Place 2 SWISHER COUNTYWIDE      OVER VOTES                            PRECINCT 1                                             01 
01090030002000000          Justice, Supreme Court, Place 2 SWISHER COUNTYWIDE      OVER VOTES                            PRECINCT 2                                             01 
01090030003000000          Justice, Supreme Court, Place 2 SWISHER COUNTYWIDE      OVER VOTES                            PRECINCT 3                                             01 
01090030004000000          Justice, Supreme Court, Place 2 SWISHER COUNTYWIDE      OVER VOTES                            PRECINCT 4                                             01 
01090030006000000          Justice, Supreme Court, Place 2 SWISHER COUNTYWIDE      OVER VOTES                            PRECINCT 6                                             01 
01090030007000000          Justice, Supreme Court, Place 2 SWISHER COUNTYWIDE      OVER VOTES                            PRECINCT 7                                             01 
01090030009000000          Justice, Supreme Court, Place 2 SWISHER COUNTYWIDE      OVER VOTES                            PRECINCT 9                                             01 
01090030010000000          Justice, Supreme Court, Place 2 SWISHER COUNTYWIDE      OVER VOTES                            PRECINCT 11                                            01 
01090040001000074          Justice, Supreme Court, Place 2 SWISHER COUNTYWIDE      UNDER VOTES                           PRECINCT 1                                             01 
01090040002000098          Justice, Supreme Court, Place 2 SWISHER COUNTYWIDE      UNDER VOTES                           PRECINCT 2                                             01 
01090040003000085          Justice, Supreme Court, Place 2 SWISHER COUNTYWIDE      UNDER VOTES                           PRECINCT 3                                             01 
01090040004000072          Justice, Supreme Court, Place 2 SWISHER COUNTYWIDE      UNDER VOTES                           PRECINCT 4                                             01 
01090040006000053          Justice, Supreme Court, Place 2 SWISHER COUNTYWIDE      UNDER VOTES                           PRECINCT 6                                             01 
01090040007000035          Justice, Supreme Court, Place 2 SWISHER COUNTYWIDE      UNDER VOTES                           PRECINCT 7                                             01 
01090040009000011          Justice, Supreme Court, Place 2 SWISHER COUNTYWIDE      UNDER VOTES                           PRECINCT 9                                             01 
01090040010000037          Justice, Supreme Court, Place 2 SWISHER COUNTYWIDE      UNDER VOTES                           PRECINCT 11                                            01 
01100010001000217REP       Justice, Supreme Court, Place 4 SWISHER COUNTYWIDE      John Devine                           PRECINCT 1                                             01 
01100010002000380REP       Justice, Supreme Court, Place 4 SWISHER COUNTYWIDE      John Devine                           PRECINCT 2                                             01 
01100010003000323REP       Justice, Supreme Court, Place 4 SWISHER COUNTYWIDE      John Devine                           PRECINCT 3                                             01 
01100010004000098REP       Justice, Supreme Court, Place 4 SWISHER COUNTYWIDE      John Devine                           PRECINCT 4                                             01 
01100010006000132REP       Justice, Supreme Court, Place 4 SWISHER COUNTYWIDE      John Devine                           PRECINCT 6                                             01 
01100010007000253REP       Justice, Supreme Court, Place 4 SWISHER COUNTYWIDE      John Devine                           PRECINCT 7                                             01 
01100010009000020REP       Justice, Supreme Court, Place 4 SWISHER COUNTYWIDE      John Devine                           PRECINCT 9                                             01 
01100010010000150REP       Justice, Supreme Court, Place 4 SWISHER COUNTYWIDE      John Devine                           PRECINCT 11                                            01 
01100020001000023LIB       Justice, Supreme Court, Place 4 SWISHER COUNTYWIDE      Tom Oxford                            PRECINCT 1                                             01 
01100020002000051LIB       Justice, Supreme Court, Place 4 SWISHER COUNTYWIDE      Tom Oxford                            PRECINCT 2                                             01 
01100020003000035LIB       Justice, Supreme Court, Place 4 SWISHER COUNTYWIDE      Tom Oxford                            PRECINCT 3                                             01 
01100020004000020LIB       Justice, Supreme Court, Place 4 SWISHER COUNTYWIDE      Tom Oxford                            PRECINCT 4                                             01 
01100020006000022LIB       Justice, Supreme Court, Place 4 SWISHER COUNTYWIDE      Tom Oxford                            PRECINCT 6                                             01 
01100020007000024LIB       Justice, Supreme Court, Place 4 SWISHER COUNTYWIDE      Tom Oxford                            PRECINCT 7                                             01 
01100020009000004LIB       Justice, Supreme Court, Place 4 SWISHER COUNTYWIDE      Tom Oxford                            PRECINCT 9                                             01 
01100020010000011LIB       Justice, Supreme Court, Place 4 SWISHER COUNTYWIDE      Tom Oxford                            PRECINCT 11                                            01 
01100030001000011GRN       Justice, Supreme Court, Place 4 SWISHER COUNTYWIDE      Charles E. Waterbury                  PRECINCT 1                                             01 
01100030002000025GRN       Justice, Supreme Court, Place 4 SWISHER COUNTYWIDE      Charles E. Waterbury                  PRECINCT 2                                             01 
01100030003000020GRN       Justice, Supreme Court, Place 4 SWISHER COUNTYWIDE      Charles E. Waterbury                  PRECINCT 3                                             01 
01100030004000006GRN       Justice, Supreme Court, Place 4 SWISHER COUNTYWIDE      Charles E. Waterbury                  PRECINCT 4                                             01 
01100030006000004GRN       Justice, Supreme Court, Place 4 SWISHER COUNTYWIDE      Charles E. Waterbury                  PRECINCT 6                                             01 
01100030007000007GRN       Justice, Supreme Court, Place 4 SWISHER COUNTYWIDE      Charles E. Waterbury                  PRECINCT 7                                             01 
01100030009000002GRN       Justice, Supreme Court, Place 4 SWISHER COUNTYWIDE      Charles E. Waterbury                  PRECINCT 9                                             01 
01100030010000004GRN       Justice, Supreme Court, Place 4 SWISHER COUNTYWIDE      Charles E. Waterbury                  PRECINCT 11                                            01 
01100040001000000          Justice, Supreme Court, Place 4 SWISHER COUNTYWIDE      OVER VOTES                            PRECINCT 1                                             01 
01100040002000000          Justice, Supreme Court, Place 4 SWISHER COUNTYWIDE      OVER VOTES                            PRECINCT 2                                             01 
01100040003000000          Justice, Supreme Court, Place 4 SWISHER COUNTYWIDE      OVER VOTES                            PRECINCT 3                                             01 
01100040004000000          Justice, Supreme Court, Place 4 SWISHER COUNTYWIDE      OVER VOTES                            PRECINCT 4                                             01 
01100040006000000          Justice, Supreme Court, Place 4 SWISHER COUNTYWIDE      OVER VOTES                            PRECINCT 6                                             01 
01100040007000000          Justice, Supreme Court, Place 4 SWISHER COUNTYWIDE      OVER VOTES                            PRECINCT 7                                             01 
01100040009000000          Justice, Supreme Court, Place 4 SWISHER COUNTYWIDE      OVER VOTES                            PRECINCT 9                                             01 
01100040010000000          Justice, Supreme Court, Place 4 SWISHER COUNTYWIDE      OVER VOTES                            PRECINCT 11                                            01 
01100050001000072          Justice, Supreme Court, Place 4 SWISHER COUNTYWIDE      UNDER VOTES                           PRECINCT 1                                             01 
01100050002000094          Justice, Supreme Court, Place 4 SWISHER COUNTYWIDE      UNDER VOTES                           PRECINCT 2                                             01 
01100050003000084          Justice, Supreme Court, Place 4 SWISHER COUNTYWIDE      UNDER VOTES                           PRECINCT 3                                             01 
01100050004000071          Justice, Supreme Court, Place 4 SWISHER COUNTYWIDE      UNDER VOTES                           PRECINCT 4                                             01 
01100050006000051          Justice, Supreme Court, Place 4 SWISHER COUNTYWIDE      UNDER VOTES                           PRECINCT 6                                             01 
01100050007000035          Justice, Supreme Court, Place 4 SWISHER COUNTYWIDE      UNDER VOTES                           PRECINCT 7                                             01 
01100050009000010          Justice, Supreme Court, Place 4 SWISHER COUNTYWIDE      UNDER VOTES                           PRECINCT 9                                             01 
01100050010000037          Justice, Supreme Court, Place 4 SWISHER COUNTYWIDE      UNDER VOTES                           PRECINCT 11                                            01 
01110010001000186REP       Justice, Supreme Court, Place 6 SWISHER COUNTYWIDE      Nathan Hecht                          PRECINCT 1                                             01 
01110010002000323REP       Justice, Supreme Court, Place 6 SWISHER COUNTYWIDE      Nathan Hecht                          PRECINCT 2                                             01 
01110010003000271REP       Justice, Supreme Court, Place 6 SWISHER COUNTYWIDE      Nathan Hecht                          PRECINCT 3                                             01 
01110010004000076REP       Justice, Supreme Court, Place 6 SWISHER COUNTYWIDE      Nathan Hecht                          PRECINCT 4                                             01 
01110010006000119REP       Justice, Supreme Court, Place 6 SWISHER COUNTYWIDE      Nathan Hecht                          PRECINCT 6                                             01 
01110010007000220REP       Justice, Supreme Court, Place 6 SWISHER COUNTYWIDE      Nathan Hecht                          PRECINCT 7                                             01 
01110010009000020REP       Justice, Supreme Court, Place 6 SWISHER COUNTYWIDE      Nathan Hecht                          PRECINCT 9                                             01 
01110010010000134REP       Justice, Supreme Court, Place 6 SWISHER COUNTYWIDE      Nathan Hecht                          PRECINCT 11                                            01 
01110020001000102DEM       Justice, Supreme Court, Place 6 SWISHER COUNTYWIDE      Michele Petty                         PRECINCT 1                                             01 
01110020002000164DEM       Justice, Supreme Court, Place 6 SWISHER COUNTYWIDE      Michele Petty                         PRECINCT 2                                             01 
01110020003000151DEM       Justice, Supreme Court, Place 6 SWISHER COUNTYWIDE      Michele Petty                         PRECINCT 3                                             01 
01110020004000090DEM       Justice, Supreme Court, Place 6 SWISHER COUNTYWIDE      Michele Petty                         PRECINCT 4                                             01 
01110020006000062DEM       Justice, Supreme Court, Place 6 SWISHER COUNTYWIDE      Michele Petty                         PRECINCT 6                                             01 
01110020007000067DEM       Justice, Supreme Court, Place 6 SWISHER COUNTYWIDE      Michele Petty                         PRECINCT 7                                             01 
01110020009000012DEM       Justice, Supreme Court, Place 6 SWISHER COUNTYWIDE      Michele Petty                         PRECINCT 9                                             01 
01110020010000053DEM       Justice, Supreme Court, Place 6 SWISHER COUNTYWIDE      Michele Petty                         PRECINCT 11                                            01 
01110030001000003LIB       Justice, Supreme Court, Place 6 SWISHER COUNTYWIDE      Mark Ash                              PRECINCT 1                                             01 
01110030002000017LIB       Justice, Supreme Court, Place 6 SWISHER COUNTYWIDE      Mark Ash                              PRECINCT 2                                             01 
01110030003000008LIB       Justice, Supreme Court, Place 6 SWISHER COUNTYWIDE      Mark Ash                              PRECINCT 3                                             01 
01110030004000007LIB       Justice, Supreme Court, Place 6 SWISHER COUNTYWIDE      Mark Ash                              PRECINCT 4                                             01 
01110030006000005LIB       Justice, Supreme Court, Place 6 SWISHER COUNTYWIDE      Mark Ash                              PRECINCT 6                                             01 
01110030007000006LIB       Justice, Supreme Court, Place 6 SWISHER COUNTYWIDE      Mark Ash                              PRECINCT 7                                             01 
01110030009000000LIB       Justice, Supreme Court, Place 6 SWISHER COUNTYWIDE      Mark Ash                              PRECINCT 9                                             01 
01110030010000005LIB       Justice, Supreme Court, Place 6 SWISHER COUNTYWIDE      Mark Ash                              PRECINCT 11                                            01 
01110040001000009GRN       Justice, Supreme Court, Place 6 SWISHER COUNTYWIDE      Jim Chisholm                          PRECINCT 1                                             01 
01110040002000019GRN       Justice, Supreme Court, Place 6 SWISHER COUNTYWIDE      Jim Chisholm                          PRECINCT 2                                             01 
01110040003000009GRN       Justice, Supreme Court, Place 6 SWISHER COUNTYWIDE      Jim Chisholm                          PRECINCT 3                                             01 
01110040004000007GRN       Justice, Supreme Court, Place 6 SWISHER COUNTYWIDE      Jim Chisholm                          PRECINCT 4                                             01 
01110040006000005GRN       Justice, Supreme Court, Place 6 SWISHER COUNTYWIDE      Jim Chisholm                          PRECINCT 6                                             01 
01110040007000009GRN       Justice, Supreme Court, Place 6 SWISHER COUNTYWIDE      Jim Chisholm                          PRECINCT 7                                             01 
01110040009000002GRN       Justice, Supreme Court, Place 6 SWISHER COUNTYWIDE      Jim Chisholm                          PRECINCT 9                                             01 
01110040010000002GRN       Justice, Supreme Court, Place 6 SWISHER COUNTYWIDE      Jim Chisholm                          PRECINCT 11                                            01 
01110050001000000          Justice, Supreme Court, Place 6 SWISHER COUNTYWIDE      OVER VOTES                            PRECINCT 1                                             01 
01110050002000000          Justice, Supreme Court, Place 6 SWISHER COUNTYWIDE      OVER VOTES                            PRECINCT 2                                             01 
01110050003000000          Justice, Supreme Court, Place 6 SWISHER COUNTYWIDE      OVER VOTES                            PRECINCT 3                                             01 
01110050004000000          Justice, Supreme Court, Place 6 SWISHER COUNTYWIDE      OVER VOTES                            PRECINCT 4                                             01 
01110050006000000          Justice, Supreme Court, Place 6 SWISHER COUNTYWIDE      OVER VOTES                            PRECINCT 6                                             01 
01110050007000000          Justice, Supreme Court, Place 6 SWISHER COUNTYWIDE      OVER VOTES                            PRECINCT 7                                             01 
01110050009000000          Justice, Supreme Court, Place 6 SWISHER COUNTYWIDE      OVER VOTES                            PRECINCT 9                                             01 
01110050010000000          Justice, Supreme Court, Place 6 SWISHER COUNTYWIDE      OVER VOTES                            PRECINCT 11                                            01 
01110060001000023          Justice, Supreme Court, Place 6 SWISHER COUNTYWIDE      UNDER VOTES                           PRECINCT 1                                             01 
01110060002000027          Justice, Supreme Court, Place 6 SWISHER COUNTYWIDE      UNDER VOTES                           PRECINCT 2                                             01 
01110060003000023          Justice, Supreme Court, Place 6 SWISHER COUNTYWIDE      UNDER VOTES                           PRECINCT 3                                             01 
01110060004000015          Justice, Supreme Court, Place 6 SWISHER COUNTYWIDE      UNDER VOTES                           PRECINCT 4                                             01 
01110060006000018          Justice, Supreme Court, Place 6 SWISHER COUNTYWIDE      UNDER VOTES                           PRECINCT 6                                             01 
01110060007000017          Justice, Supreme Court, Place 6 SWISHER COUNTYWIDE      UNDER VOTES                           PRECINCT 7                                             01 
01110060009000002          Justice, Supreme Court, Place 6 SWISHER COUNTYWIDE      UNDER VOTES                           PRECINCT 9                                             01 
01110060010000008          Justice, Supreme Court, Place 6 SWISHER COUNTYWIDE      UNDER VOTES                           PRECINCT 11                                            01 
01120010001000195REP       Presiding Judge, Ct of Crim Ap SWISHER COUNTYWIDE       Sharon  Keller                        PRECINCT 1                                             01 
01120010002000345REP       Presiding Judge, Ct of Crim Ap SWISHER COUNTYWIDE       Sharon  Keller                        PRECINCT 2                                             01 
01120010003000286REP       Presiding Judge, Ct of Crim Ap SWISHER COUNTYWIDE       Sharon  Keller                        PRECINCT 3                                             01 
01120010004000089REP       Presiding Judge, Ct of Crim Ap SWISHER COUNTYWIDE       Sharon  Keller                        PRECINCT 4                                             01 
01120010006000116REP       Presiding Judge, Ct of Crim Ap SWISHER COUNTYWIDE       Sharon  Keller                        PRECINCT 6                                             01 
01120010007000230REP       Presiding Judge, Ct of Crim Ap SWISHER COUNTYWIDE       Sharon  Keller                        PRECINCT 7                                             01 
01120010009000018REP       Presiding Judge, Ct of Crim Ap SWISHER COUNTYWIDE       Sharon  Keller                        PRECINCT 9                                             01 
01120010010000135REP       Presiding Judge, Ct of Crim Ap SWISHER COUNTYWIDE       Sharon  Keller                        PRECINCT 11                                            01 
01120020001000104DEM       Presiding Judge, Ct of Crim Ap SWISHER COUNTYWIDE       Keith Hampton                         PRECINCT 1                                             01 
01120020002000155DEM       Presiding Judge, Ct of Crim Ap SWISHER COUNTYWIDE       Keith Hampton                         PRECINCT 2                                             01 
01120020003000142DEM       Presiding Judge, Ct of Crim Ap SWISHER COUNTYWIDE       Keith Hampton                         PRECINCT 3                                             01 
01120020004000082DEM       Presiding Judge, Ct of Crim Ap SWISHER COUNTYWIDE       Keith Hampton                         PRECINCT 4                                             01 
01120020006000066DEM       Presiding Judge, Ct of Crim Ap SWISHER COUNTYWIDE       Keith Hampton                         PRECINCT 6                                             01 
01120020007000063DEM       Presiding Judge, Ct of Crim Ap SWISHER COUNTYWIDE       Keith Hampton                         PRECINCT 7                                             01 
01120020009000013DEM       Presiding Judge, Ct of Crim Ap SWISHER COUNTYWIDE       Keith Hampton                         PRECINCT 9                                             01 
01120020010000055DEM       Presiding Judge, Ct of Crim Ap SWISHER COUNTYWIDE       Keith Hampton                         PRECINCT 11                                            01 
01120030001000003LIB       Presiding Judge, Ct of Crim Ap SWISHER COUNTYWIDE       Lance Stott                           PRECINCT 1                                             01 
01120030002000022LIB       Presiding Judge, Ct of Crim Ap SWISHER COUNTYWIDE       Lance Stott                           PRECINCT 2                                             01 
01120030003000016LIB       Presiding Judge, Ct of Crim Ap SWISHER COUNTYWIDE       Lance Stott                           PRECINCT 3                                             01 
01120030004000005LIB       Presiding Judge, Ct of Crim Ap SWISHER COUNTYWIDE       Lance Stott                           PRECINCT 4                                             01 
01120030006000008LIB       Presiding Judge, Ct of Crim Ap SWISHER COUNTYWIDE       Lance Stott                           PRECINCT 6                                             01 
01120030007000010LIB       Presiding Judge, Ct of Crim Ap SWISHER COUNTYWIDE       Lance Stott                           PRECINCT 7                                             01 
01120030009000001LIB       Presiding Judge, Ct of Crim Ap SWISHER COUNTYWIDE       Lance Stott                           PRECINCT 9                                             01 
01120030010000005LIB       Presiding Judge, Ct of Crim Ap SWISHER COUNTYWIDE       Lance Stott                           PRECINCT 11                                            01 
01120040001000000          Presiding Judge, Ct of Crim Ap SWISHER COUNTYWIDE       OVER VOTES                            PRECINCT 1                                             01 
01120040002000000          Presiding Judge, Ct of Crim Ap SWISHER COUNTYWIDE       OVER VOTES                            PRECINCT 2                                             01 
01120040003000000          Presiding Judge, Ct of Crim Ap SWISHER COUNTYWIDE       OVER VOTES                            PRECINCT 3                                             01 
01120040004000000          Presiding Judge, Ct of Crim Ap SWISHER COUNTYWIDE       OVER VOTES                            PRECINCT 4                                             01 
01120040006000000          Presiding Judge, Ct of Crim Ap SWISHER COUNTYWIDE       OVER VOTES                            PRECINCT 6                                             01 
01120040007000000          Presiding Judge, Ct of Crim Ap SWISHER COUNTYWIDE       OVER VOTES                            PRECINCT 7                                             01 
01120040009000000          Presiding Judge, Ct of Crim Ap SWISHER COUNTYWIDE       OVER VOTES                            PRECINCT 9                                             01 
01120040010000000          Presiding Judge, Ct of Crim Ap SWISHER COUNTYWIDE       OVER VOTES                            PRECINCT 11                                            01 
01120050001000021          Presiding Judge, Ct of Crim Ap SWISHER COUNTYWIDE       UNDER VOTES                           PRECINCT 1                                             01 
01120050002000028          Presiding Judge, Ct of Crim Ap SWISHER COUNTYWIDE       UNDER VOTES                           PRECINCT 2                                             01 
01120050003000018          Presiding Judge, Ct of Crim Ap SWISHER COUNTYWIDE       UNDER VOTES                           PRECINCT 3                                             01 
01120050004000019          Presiding Judge, Ct of Crim Ap SWISHER COUNTYWIDE       UNDER VOTES                           PRECINCT 4                                             01 
01120050006000019          Presiding Judge, Ct of Crim Ap SWISHER COUNTYWIDE       UNDER VOTES                           PRECINCT 6                                             01 
01120050007000016          Presiding Judge, Ct of Crim Ap SWISHER COUNTYWIDE       UNDER VOTES                           PRECINCT 7                                             01 
01120050009000004          Presiding Judge, Ct of Crim Ap SWISHER COUNTYWIDE       UNDER VOTES                           PRECINCT 9                                             01 
01120050010000007          Presiding Judge, Ct of Crim Ap SWISHER COUNTYWIDE       UNDER VOTES                           PRECINCT 11                                            01 
01130010001000222REP       Judge, CT of Criminal CT, P7 SWISHER COUNTYWIDE         Barbara Parker Hervey                 PRECINCT 1                                             01 
01130010002000386REP       Judge, CT of Criminal CT, P7 SWISHER COUNTYWIDE         Barbara Parker Hervey                 PRECINCT 2                                             01 
01130010003000331REP       Judge, CT of Criminal CT, P7 SWISHER COUNTYWIDE         Barbara Parker Hervey                 PRECINCT 3                                             01 
01130010004000102REP       Judge, CT of Criminal CT, P7 SWISHER COUNTYWIDE         Barbara Parker Hervey                 PRECINCT 4                                             01 
01130010006000131REP       Judge, CT of Criminal CT, P7 SWISHER COUNTYWIDE         Barbara Parker Hervey                 PRECINCT 6                                             01 
01130010007000252REP       Judge, CT of Criminal CT, P7 SWISHER COUNTYWIDE         Barbara Parker Hervey                 PRECINCT 7                                             01 
01130010009000020REP       Judge, CT of Criminal CT, P7 SWISHER COUNTYWIDE         Barbara Parker Hervey                 PRECINCT 9                                             01 
01130010010000151REP       Judge, CT of Criminal CT, P7 SWISHER COUNTYWIDE         Barbara Parker Hervey                 PRECINCT 11                                            01 
01130020001000024LIB       Judge, CT of Criminal CT, P7 SWISHER COUNTYWIDE         Mark W. Bennett                       PRECINCT 1                                             01 
01130020002000062LIB       Judge, CT of Criminal CT, P7 SWISHER COUNTYWIDE         Mark W. Bennett                       PRECINCT 2                                             01 
01130020003000047LIB       Judge, CT of Criminal CT, P7 SWISHER COUNTYWIDE         Mark W. Bennett                       PRECINCT 3                                             01 
01130020004000018LIB       Judge, CT of Criminal CT, P7 SWISHER COUNTYWIDE         Mark W. Bennett                       PRECINCT 4                                             01 
01130020006000024LIB       Judge, CT of Criminal CT, P7 SWISHER COUNTYWIDE         Mark W. Bennett                       PRECINCT 6                                             01 
01130020007000031LIB       Judge, CT of Criminal CT, P7 SWISHER COUNTYWIDE         Mark W. Bennett                       PRECINCT 7                                             01 
01130020009000004LIB       Judge, CT of Criminal CT, P7 SWISHER COUNTYWIDE         Mark W. Bennett                       PRECINCT 9                                             01 
01130020010000012LIB       Judge, CT of Criminal CT, P7 SWISHER COUNTYWIDE         Mark W. Bennett                       PRECINCT 11                                            01 
01130030001000000          Judge, CT of Criminal CT, P7 SWISHER COUNTYWIDE         OVER VOTES                            PRECINCT 1                                             01 
01130030002000000          Judge, CT of Criminal CT, P7 SWISHER COUNTYWIDE         OVER VOTES                            PRECINCT 2                                             01 
01130030003000000          Judge, CT of Criminal CT, P7 SWISHER COUNTYWIDE         OVER VOTES                            PRECINCT 3                                             01 
01130030004000000          Judge, CT of Criminal CT, P7 SWISHER COUNTYWIDE         OVER VOTES                            PRECINCT 4                                             01 
01130030006000000          Judge, CT of Criminal CT, P7 SWISHER COUNTYWIDE         OVER VOTES                            PRECINCT 6                                             01 
01130030007000000          Judge, CT of Criminal CT, P7 SWISHER COUNTYWIDE         OVER VOTES                            PRECINCT 7                                             01 
01130030009000000          Judge, CT of Criminal CT, P7 SWISHER COUNTYWIDE         OVER VOTES                            PRECINCT 9                                             01 
01130030010000000          Judge, CT of Criminal CT, P7 SWISHER COUNTYWIDE         OVER VOTES                            PRECINCT 11                                            01 
01130040001000077          Judge, CT of Criminal CT, P7 SWISHER COUNTYWIDE         UNDER VOTES                           PRECINCT 1                                             01 
01130040002000102          Judge, CT of Criminal CT, P7 SWISHER COUNTYWIDE         UNDER VOTES                           PRECINCT 2                                             01 
01130040003000084          Judge, CT of Criminal CT, P7 SWISHER COUNTYWIDE         UNDER VOTES                           PRECINCT 3                                             01 
01130040004000075          Judge, CT of Criminal CT, P7 SWISHER COUNTYWIDE         UNDER VOTES                           PRECINCT 4                                             01 
01130040006000054          Judge, CT of Criminal CT, P7 SWISHER COUNTYWIDE         UNDER VOTES                           PRECINCT 6                                             01 
01130040007000036          Judge, CT of Criminal CT, P7 SWISHER COUNTYWIDE         UNDER VOTES                           PRECINCT 7                                             01 
01130040009000012          Judge, CT of Criminal CT, P7 SWISHER COUNTYWIDE         UNDER VOTES                           PRECINCT 9                                             01 
01130040010000039          Judge, CT of Criminal CT, P7 SWISHER COUNTYWIDE         UNDER VOTES                           PRECINCT 11                                            01 
01140010001000207REP       Judge, CT of Criminal CT, P8 SWISHER COUNTYWIDE         Elsa Alcala                           PRECINCT 1                                             01 
01140010002000364REP       Judge, CT of Criminal CT, P8 SWISHER COUNTYWIDE         Elsa Alcala                           PRECINCT 2                                             01 
01140010003000307REP       Judge, CT of Criminal CT, P8 SWISHER COUNTYWIDE         Elsa Alcala                           PRECINCT 3                                             01 
01140010004000103REP       Judge, CT of Criminal CT, P8 SWISHER COUNTYWIDE         Elsa Alcala                           PRECINCT 4                                             01 
01140010006000125REP       Judge, CT of Criminal CT, P8 SWISHER COUNTYWIDE         Elsa Alcala                           PRECINCT 6                                             01 
01140010007000230REP       Judge, CT of Criminal CT, P8 SWISHER COUNTYWIDE         Elsa Alcala                           PRECINCT 7                                             01 
01140010009000018REP       Judge, CT of Criminal CT, P8 SWISHER COUNTYWIDE         Elsa Alcala                           PRECINCT 9                                             01 
01140010010000149REP       Judge, CT of Criminal CT, P8 SWISHER COUNTYWIDE         Elsa Alcala                           PRECINCT 11                                            01 
01140020001000042LIB       Judge, CT of Criminal CT, P8 SWISHER COUNTYWIDE         William Bryan Strange, III            PRECINCT 1                                             01 
01140020002000086LIB       Judge, CT of Criminal CT, P8 SWISHER COUNTYWIDE         William Bryan Strange, III            PRECINCT 2                                             01 
01140020003000067LIB       Judge, CT of Criminal CT, P8 SWISHER COUNTYWIDE         William Bryan Strange, III            PRECINCT 3                                             01 
01140020004000023LIB       Judge, CT of Criminal CT, P8 SWISHER COUNTYWIDE         William Bryan Strange, III            PRECINCT 4                                             01 
01140020006000030LIB       Judge, CT of Criminal CT, P8 SWISHER COUNTYWIDE         William Bryan Strange, III            PRECINCT 6                                             01 
01140020007000048LIB       Judge, CT of Criminal CT, P8 SWISHER COUNTYWIDE         William Bryan Strange, III            PRECINCT 7                                             01 
01140020009000007LIB       Judge, CT of Criminal CT, P8 SWISHER COUNTYWIDE         William Bryan Strange, III            PRECINCT 9                                             01 
01140020010000012LIB       Judge, CT of Criminal CT, P8 SWISHER COUNTYWIDE         William Bryan Strange, III            PRECINCT 11                                            01 
01140030001000000          Judge, CT of Criminal CT, P8 SWISHER COUNTYWIDE         OVER VOTES                            PRECINCT 1                                             01 
01140030002000000          Judge, CT of Criminal CT, P8 SWISHER COUNTYWIDE         OVER VOTES                            PRECINCT 2                                             01 
01140030003000000          Judge, CT of Criminal CT, P8 SWISHER COUNTYWIDE         OVER VOTES                            PRECINCT 3                                             01 
01140030004000000          Judge, CT of Criminal CT, P8 SWISHER COUNTYWIDE         OVER VOTES                            PRECINCT 4                                             01 
01140030006000000          Judge, CT of Criminal CT, P8 SWISHER COUNTYWIDE         OVER VOTES                            PRECINCT 6                                             01 
01140030007000000          Judge, CT of Criminal CT, P8 SWISHER COUNTYWIDE         OVER VOTES                            PRECINCT 7                                             01 
01140030009000000          Judge, CT of Criminal CT, P8 SWISHER COUNTYWIDE         OVER VOTES                            PRECINCT 9                                             01 
01140030010000000          Judge, CT of Criminal CT, P8 SWISHER COUNTYWIDE         OVER VOTES                            PRECINCT 11                                            01 
01140040001000074          Judge, CT of Criminal CT, P8 SWISHER COUNTYWIDE         UNDER VOTES                           PRECINCT 1                                             01 
01140040002000100          Judge, CT of Criminal CT, P8 SWISHER COUNTYWIDE         UNDER VOTES                           PRECINCT 2                                             01 
01140040003000088          Judge, CT of Criminal CT, P8 SWISHER COUNTYWIDE         UNDER VOTES                           PRECINCT 3                                             01 
01140040004000069          Judge, CT of Criminal CT, P8 SWISHER COUNTYWIDE         UNDER VOTES                           PRECINCT 4                                             01 
01140040006000054          Judge, CT of Criminal CT, P8 SWISHER COUNTYWIDE         UNDER VOTES                           PRECINCT 6                                             01 
01140040007000041          Judge, CT of Criminal CT, P8 SWISHER COUNTYWIDE         UNDER VOTES                           PRECINCT 7                                             01 
01140040009000011          Judge, CT of Criminal CT, P8 SWISHER COUNTYWIDE         UNDER VOTES                           PRECINCT 9                                             01 
01140040010000041          Judge, CT of Criminal CT, P8 SWISHER COUNTYWIDE         UNDER VOTES                           PRECINCT 11                                            01 
01150010001000195REP       State Board of Education Dist 15 SWISHER COUNTYWIDE     Marty Rowley                          PRECINCT 1                                             01 
01150010002000345REP       State Board of Education Dist 15 SWISHER COUNTYWIDE     Marty Rowley                          PRECINCT 2                                             01 
01150010003000294REP       State Board of Education Dist 15 SWISHER COUNTYWIDE     Marty Rowley                          PRECINCT 3                                             01 
01150010004000090REP       State Board of Education Dist 15 SWISHER COUNTYWIDE     Marty Rowley                          PRECINCT 4                                             01 
01150010006000127REP       State Board of Education Dist 15 SWISHER COUNTYWIDE     Marty Rowley                          PRECINCT 6                                             01 
01150010007000241REP       State Board of Education Dist 15 SWISHER COUNTYWIDE     Marty Rowley                          PRECINCT 7                                             01 
01150010009000019REP       State Board of Education Dist 15 SWISHER COUNTYWIDE     Marty Rowley                          PRECINCT 9                                             01 
01150010010000143REP       State Board of Education Dist 15 SWISHER COUNTYWIDE     Marty Rowley                          PRECINCT 11                                            01 
01150020001000105DEM       State Board of Education Dist 15 SWISHER COUNTYWIDE     Steven D. Schafersman                 PRECINCT 1                                             01 
01150020002000173DEM       State Board of Education Dist 15 SWISHER COUNTYWIDE     Steven D. Schafersman                 PRECINCT 2                                             01 
01150020003000143DEM       State Board of Education Dist 15 SWISHER COUNTYWIDE     Steven D. Schafersman                 PRECINCT 3                                             01 
01150020004000088DEM       State Board of Education Dist 15 SWISHER COUNTYWIDE     Steven D. Schafersman                 PRECINCT 4                                             01 
01150020006000062DEM       State Board of Education Dist 15 SWISHER COUNTYWIDE     Steven D. Schafersman                 PRECINCT 6                                             01 
01150020007000061DEM       State Board of Education Dist 15 SWISHER COUNTYWIDE     Steven D. Schafersman                 PRECINCT 7                                             01 
01150020009000011DEM       State Board of Education Dist 15 SWISHER COUNTYWIDE     Steven D. Schafersman                 PRECINCT 9                                             01 
01150020010000051DEM       State Board of Education Dist 15 SWISHER COUNTYWIDE     Steven D. Schafersman                 PRECINCT 11                                            01 
01150030001000000          State Board of Education Dist 15 SWISHER COUNTYWIDE     OVER VOTES                            PRECINCT 1                                             01 
01150030002000000          State Board of Education Dist 15 SWISHER COUNTYWIDE     OVER VOTES                            PRECINCT 2                                             01 
01150030003000000          State Board of Education Dist 15 SWISHER COUNTYWIDE     OVER VOTES                            PRECINCT 3                                             01 
01150030004000000          State Board of Education Dist 15 SWISHER COUNTYWIDE     OVER VOTES                            PRECINCT 4                                             01 
01150030006000000          State Board of Education Dist 15 SWISHER COUNTYWIDE     OVER VOTES                            PRECINCT 6                                             01 
01150030007000000          State Board of Education Dist 15 SWISHER COUNTYWIDE     OVER VOTES                            PRECINCT 7                                             01 
01150030009000000          State Board of Education Dist 15 SWISHER COUNTYWIDE     OVER VOTES                            PRECINCT 9                                             01 
01150030010000000          State Board of Education Dist 15 SWISHER COUNTYWIDE     OVER VOTES                            PRECINCT 11                                            01 
01150040001000023          State Board of Education Dist 15 SWISHER COUNTYWIDE     UNDER VOTES                           PRECINCT 1                                             01 
01150040002000032          State Board of Education Dist 15 SWISHER COUNTYWIDE     UNDER VOTES                           PRECINCT 2                                             01 
01150040003000025          State Board of Education Dist 15 SWISHER COUNTYWIDE     UNDER VOTES                           PRECINCT 3                                             01 
01150040004000017          State Board of Education Dist 15 SWISHER COUNTYWIDE     UNDER VOTES                           PRECINCT 4                                             01 
01150040006000020          State Board of Education Dist 15 SWISHER COUNTYWIDE     UNDER VOTES                           PRECINCT 6                                             01 
01150040007000017          State Board of Education Dist 15 SWISHER COUNTYWIDE     UNDER VOTES                           PRECINCT 7                                             01 
01150040009000006          State Board of Education Dist 15 SWISHER COUNTYWIDE     UNDER VOTES                           PRECINCT 9                                             01 
01150040010000008          State Board of Education Dist 15 SWISHER COUNTYWIDE     UNDER VOTES                           PRECINCT 11                                            01 
01160010001000240REP       State Senator, District 31 SWISHER COUNTYWIDE           Kel Seliger                           PRECINCT 1                                             01 
01160010002000422REP       State Senator, District 31 SWISHER COUNTYWIDE           Kel Seliger                           PRECINCT 2                                             01 
01160010003000355REP       State Senator, District 31 SWISHER COUNTYWIDE           Kel Seliger                           PRECINCT 3                                             01 
01160010004000106REP       State Senator, District 31 SWISHER COUNTYWIDE           Kel Seliger                           PRECINCT 4                                             01 
01160010006000149REP       State Senator, District 31 SWISHER COUNTYWIDE           Kel Seliger                           PRECINCT 6                                             01 
01160010007000273REP       State Senator, District 31 SWISHER COUNTYWIDE           Kel Seliger                           PRECINCT 7                                             01 
01160010009000025REP       State Senator, District 31 SWISHER COUNTYWIDE           Kel Seliger                           PRECINCT 9                                             01 
01160010010000157REP       State Senator, District 31 SWISHER COUNTYWIDE           Kel Seliger                           PRECINCT 11                                            01 
01160020001000000          State Senator, District 31 SWISHER COUNTYWIDE           OVER VOTES                            PRECINCT 1                                             01 
01160020002000000          State Senator, District 31 SWISHER COUNTYWIDE           OVER VOTES                            PRECINCT 2                                             01 
01160020003000000          State Senator, District 31 SWISHER COUNTYWIDE           OVER VOTES                            PRECINCT 3                                             01 
01160020004000000          State Senator, District 31 SWISHER COUNTYWIDE           OVER VOTES                            PRECINCT 4                                             01 
01160020006000000          State Senator, District 31 SWISHER COUNTYWIDE           OVER VOTES                            PRECINCT 6                                             01 
01160020007000000          State Senator, District 31 SWISHER COUNTYWIDE           OVER VOTES                            PRECINCT 7                                             01 
01160020009000000          State Senator, District 31 SWISHER COUNTYWIDE           OVER VOTES                            PRECINCT 9                                             01 
01160020010000000          State Senator, District 31 SWISHER COUNTYWIDE           OVER VOTES                            PRECINCT 11                                            01 
