01040010001000000000000000000000000000000000000          BALLOTS CAST - TOTAL                                    BALLOTS CAST - TOTAL                  VOTING PRECINCT 1                                      00 
01040010002000000000000000000000000000000000000          BALLOTS CAST - TOTAL                                    BALLOTS CAST - TOTAL                  VOTING PRECINCT 2                                      00 
01040010003000000000000000000000000000000000000          BALLOTS CAST - TOTAL                                    BALLOTS CAST - TOTAL                  VOTING PRECINCT 3                                      00 
01040010004000000000000000000000000000000000000          BALLOTS CAST - TOTAL                                    BALLOTS CAST - TOTAL                  VOTING PRECINCT 4                                      00 
01040010005000000000000000000000000000000000000          BALLOTS CAST - TOTAL                                    BALLOTS CAST - TOTAL                  VOTING PRECINCT 5                                      00 
01040010006000000000000000000000000000000000000          BALLOTS CAST - TOTAL                                    BALLOTS CAST - TOTAL                  VOTING PRECINCT 6                                      00 
01040010007000000000000000000000000000000000000          BALLOTS CAST - TOTAL                                    BALLOTS CAST - TOTAL                  VOTING PRECINCT 7                                      00 
01040010008000000000000000000000000000000000000          BALLOTS CAST - TOTAL                                    BALLOTS CAST - TOTAL                  VOTING PRECINCT 8                                      00 
01040010009000000000000000000000000000000000000          BALLOTS CAST - TOTAL                                    BALLOTS CAST - TOTAL                  VOTING PRECINCT 9                                      00 
01040010010000000000000000000000000000000000000          BALLOTS CAST - TOTAL                                    BALLOTS CAST - TOTAL                  VOTING PRECINCT 10                                     00 
01040010011000000000000000000000000000000000000          BALLOTS CAST - TOTAL                                    BALLOTS CAST - TOTAL                  VOTING PRECINCT 11                                     00 
01040010012000000000000000000000000000000000000          BALLOTS CAST - TOTAL                                    BALLOTS CAST - TOTAL                  VOTING PRECINCT 18                                     00 
01040010013000000000000000000000000000000000000          BALLOTS CAST - TOTAL                                    BALLOTS CAST - TOTAL                  VOTING PRECINCT 13                                     00 
01040010014000000000000000000000000000000000000          BALLOTS CAST - TOTAL                                    BALLOTS CAST - TOTAL                  VOTING PRECINCT 14                                     00 
01040010015000000000000000000000000000000000000          BALLOTS CAST - TOTAL                                    BALLOTS CAST - TOTAL                  VOTING PRECINCT 15                                     00 
01040010016000000000000000000000000000000000000          BALLOTS CAST - TOTAL                                    BALLOTS CAST - TOTAL                  VOTING PRECINCT 16                                     00 
01040010017000000000000000000000000000000000000          BALLOTS CAST - TOTAL                                    BALLOTS CAST - TOTAL                  VOTING PRECINCT 17                                     00 
01050010001000000000000000000000000000000000000REP       BALLOTS CAST - REPUBLICAN PARTY                         BALLOTS CAST - REPUBLICAN PARTY       VOTING PRECINCT 1                                      00 
01050010002000000000000000000000000000000000000REP       BALLOTS CAST - REPUBLICAN PARTY                         BALLOTS CAST - REPUBLICAN PARTY       VOTING PRECINCT 2                                      00 
01050010003000000000000000000000000000000000000REP       BALLOTS CAST - REPUBLICAN PARTY                         BALLOTS CAST - REPUBLICAN PARTY       VOTING PRECINCT 3                                      00 
01050010004000000000000000000000000000000000000REP       BALLOTS CAST - REPUBLICAN PARTY                         BALLOTS CAST - REPUBLICAN PARTY       VOTING PRECINCT 4                                      00 
01050010005000000000000000000000000000000000000REP       BALLOTS CAST - REPUBLICAN PARTY                         BALLOTS CAST - REPUBLICAN PARTY       VOTING PRECINCT 5                                      00 
01050010006000000000000000000000000000000000000REP       BALLOTS CAST - REPUBLICAN PARTY                         BALLOTS CAST - REPUBLICAN PARTY       VOTING PRECINCT 6                                      00 
01050010007000000000000000000000000000000000000REP       BALLOTS CAST - REPUBLICAN PARTY                         BALLOTS CAST - REPUBLICAN PARTY       VOTING PRECINCT 7                                      00 
01050010008000000000000000000000000000000000000REP       BALLOTS CAST - REPUBLICAN PARTY                         BALLOTS CAST - REPUBLICAN PARTY       VOTING PRECINCT 8                                      00 
01050010009000000000000000000000000000000000000REP       BALLOTS CAST - REPUBLICAN PARTY                         BALLOTS CAST - REPUBLICAN PARTY       VOTING PRECINCT 9                                      00 
01050010010000000000000000000000000000000000000REP       BALLOTS CAST - REPUBLICAN PARTY                         BALLOTS CAST - REPUBLICAN PARTY       VOTING PRECINCT 10                                     00 
01050010011000000000000000000000000000000000000REP       BALLOTS CAST - REPUBLICAN PARTY                         BALLOTS CAST - REPUBLICAN PARTY       VOTING PRECINCT 11                                     00 
01050010012000000000000000000000000000000000000REP       BALLOTS CAST - REPUBLICAN PARTY                         BALLOTS CAST - REPUBLICAN PARTY       VOTING PRECINCT 18                                     00 
01050010013000000000000000000000000000000000000REP       BALLOTS CAST - REPUBLICAN PARTY                         BALLOTS CAST - REPUBLICAN PARTY       VOTING PRECINCT 13                                     00 
01050010014000000000000000000000000000000000000REP       BALLOTS CAST - REPUBLICAN PARTY                         BALLOTS CAST - REPUBLICAN PARTY       VOTING PRECINCT 14                                     00 
01050010015000000000000000000000000000000000000REP       BALLOTS CAST - REPUBLICAN PARTY                         BALLOTS CAST - REPUBLICAN PARTY       VOTING PRECINCT 15                                     00 
01050010016000000000000000000000000000000000000REP       BALLOTS CAST - REPUBLICAN PARTY                         BALLOTS CAST - REPUBLICAN PARTY       VOTING PRECINCT 16                                     00 
01050010017000000000000000000000000000000000000REP       BALLOTS CAST - REPUBLICAN PARTY                         BALLOTS CAST - REPUBLICAN PARTY       VOTING PRECINCT 17                                     00 
01060010001000000000000000000000000000000000000DEM       BALLOTS CAST - DEMOCRATIC PARTY                         BALLOTS CAST - DEMOCRATIC PARTY       VOTING PRECINCT 1                                      00 
01060010002000000000000000000000000000000000000DEM       BALLOTS CAST - DEMOCRATIC PARTY                         BALLOTS CAST - DEMOCRATIC PARTY       VOTING PRECINCT 2                                      00 
01060010003000000000000000000000000000000000000DEM       BALLOTS CAST - DEMOCRATIC PARTY                         BALLOTS CAST - DEMOCRATIC PARTY       VOTING PRECINCT 3                                      00 
01060010004000000000000000000000000000000000000DEM       BALLOTS CAST - DEMOCRATIC PARTY                         BALLOTS CAST - DEMOCRATIC PARTY       VOTING PRECINCT 4                                      00 
01060010005000000000000000000000000000000000000DEM       BALLOTS CAST - DEMOCRATIC PARTY                         BALLOTS CAST - DEMOCRATIC PARTY       VOTING PRECINCT 5                                      00 
01060010006000000000000000000000000000000000000DEM       BALLOTS CAST - DEMOCRATIC PARTY                         BALLOTS CAST - DEMOCRATIC PARTY       VOTING PRECINCT 6                                      00 
01060010007000000000000000000000000000000000000DEM       BALLOTS CAST - DEMOCRATIC PARTY                         BALLOTS CAST - DEMOCRATIC PARTY       VOTING PRECINCT 7                                      00 
01060010008000000000000000000000000000000000000DEM       BALLOTS CAST - DEMOCRATIC PARTY                         BALLOTS CAST - DEMOCRATIC PARTY       VOTING PRECINCT 8                                      00 
01060010009000000000000000000000000000000000000DEM       BALLOTS CAST - DEMOCRATIC PARTY                         BALLOTS CAST - DEMOCRATIC PARTY       VOTING PRECINCT 9                                      00 
01060010010000000000000000000000000000000000000DEM       BALLOTS CAST - DEMOCRATIC PARTY                         BALLOTS CAST - DEMOCRATIC PARTY       VOTING PRECINCT 10                                     00 
01060010011000000000000000000000000000000000000DEM       BALLOTS CAST - DEMOCRATIC PARTY                         BALLOTS CAST - DEMOCRATIC PARTY       VOTING PRECINCT 11                                     00 
01060010012000000000000000000000000000000000000DEM       BALLOTS CAST - DEMOCRATIC PARTY                         BALLOTS CAST - DEMOCRATIC PARTY       VOTING PRECINCT 18                                     00 
01060010013000000000000000000000000000000000000DEM       BALLOTS CAST - DEMOCRATIC PARTY                         BALLOTS CAST - DEMOCRATIC PARTY       VOTING PRECINCT 13                                     00 
01060010014000000000000000000000000000000000000DEM       BALLOTS CAST - DEMOCRATIC PARTY                         BALLOTS CAST - DEMOCRATIC PARTY       VOTING PRECINCT 14                                     00 
01060010015000000000000000000000000000000000000DEM       BALLOTS CAST - DEMOCRATIC PARTY                         BALLOTS CAST - DEMOCRATIC PARTY       VOTING PRECINCT 15                                     00 
01060010016000000000000000000000000000000000000DEM       BALLOTS CAST - DEMOCRATIC PARTY                         BALLOTS CAST - DEMOCRATIC PARTY       VOTING PRECINCT 16                                     00 
01060010017000000000000000000000000000000000000DEM       BALLOTS CAST - DEMOCRATIC PARTY                         BALLOTS CAST - DEMOCRATIC PARTY       VOTING PRECINCT 17                                     00 
01070010001000000000000000000000000000000000000REP       President                                               Rick Santorum                         VOTING PRECINCT 1                                      01 
01070010002000000000000000000000000000000000000REP       President                                               Rick Santorum                         VOTING PRECINCT 2                                      01 
01070010003000000000000000000000000000000000000REP       President                                               Rick Santorum                         VOTING PRECINCT 3                                      01 
01070010004000000000000000000000000000000000000REP       President                                               Rick Santorum                         VOTING PRECINCT 4                                      01 
01070010005000000000000000000000000000000000000REP       President                                               Rick Santorum                         VOTING PRECINCT 5                                      01 
01070010006000000000000000000000000000000000000REP       President                                               Rick Santorum                         VOTING PRECINCT 6                                      01 
01070010007000000000000000000000000000000000000REP       President                                               Rick Santorum                         VOTING PRECINCT 7                                      01 
01070010008000000000000000000000000000000000000REP       President                                               Rick Santorum                         VOTING PRECINCT 8                                      01 
01070010009000000000000000000000000000000000000REP       President                                               Rick Santorum                         VOTING PRECINCT 9                                      01 
01070010010000000000000000000000000000000000000REP       President                                               Rick Santorum                         VOTING PRECINCT 10                                     01 
01070010011000000000000000000000000000000000000REP       President                                               Rick Santorum                         VOTING PRECINCT 11                                     01 
01070010012000000000000000000000000000000000000REP       President                                               Rick Santorum                         VOTING PRECINCT 18                                     01 
01070010013000000000000000000000000000000000000REP       President                                               Rick Santorum                         VOTING PRECINCT 13                                     01 
01070010014000000000000000000000000000000000000REP       President                                               Rick Santorum                         VOTING PRECINCT 14                                     01 
01070010015000000000000000000000000000000000000REP       President                                               Rick Santorum                         VOTING PRECINCT 15                                     01 
01070010016000000000000000000000000000000000000REP       President                                               Rick Santorum                         VOTING PRECINCT 16                                     01 
01070010017000000000000000000000000000000000000REP       President                                               Rick Santorum                         VOTING PRECINCT 17                                     01 
01070020001000000000000000000000000000000000000REP       President                                               Mitt Romney                           VOTING PRECINCT 1                                      01 
01070020002000000000000000000000000000000000000REP       President                                               Mitt Romney                           VOTING PRECINCT 2                                      01 
01070020003000000000000000000000000000000000000REP       President                                               Mitt Romney                           VOTING PRECINCT 3                                      01 
01070020004000000000000000000000000000000000000REP       President                                               Mitt Romney                           VOTING PRECINCT 4                                      01 
01070020005000000000000000000000000000000000000REP       President                                               Mitt Romney                           VOTING PRECINCT 5                                      01 
01070020006000000000000000000000000000000000000REP       President                                               Mitt Romney                           VOTING PRECINCT 6                                      01 
01070020007000000000000000000000000000000000000REP       President                                               Mitt Romney                           VOTING PRECINCT 7                                      01 
01070020008000000000000000000000000000000000000REP       President                                               Mitt Romney                           VOTING PRECINCT 8                                      01 
01070020009000000000000000000000000000000000000REP       President                                               Mitt Romney                           VOTING PRECINCT 9                                      01 
01070020010000000000000000000000000000000000000REP       President                                               Mitt Romney                           VOTING PRECINCT 10                                     01 
01070020011000000000000000000000000000000000000REP       President                                               Mitt Romney                           VOTING PRECINCT 11                                     01 
01070020012000000000000000000000000000000000000REP       President                                               Mitt Romney                           VOTING PRECINCT 18                                     01 
01070020013000000000000000000000000000000000000REP       President                                               Mitt Romney                           VOTING PRECINCT 13                                     01 
01070020014000000000000000000000000000000000000REP       President                                               Mitt Romney                           VOTING PRECINCT 14                                     01 
01070020015000000000000000000000000000000000000REP       President                                               Mitt Romney                           VOTING PRECINCT 15                                     01 
01070020016000000000000000000000000000000000000REP       President                                               Mitt Romney                           VOTING PRECINCT 16                                     01 
01070020017000000000000000000000000000000000000REP       President                                               Mitt Romney                           VOTING PRECINCT 17                                     01 
01070030001000000000000000000000000000000000000REP       President                                               Newt Gingrich                         VOTING PRECINCT 1                                      01 
01070030002000000000000000000000000000000000000REP       President                                               Newt Gingrich                         VOTING PRECINCT 2                                      01 
01070030003000000000000000000000000000000000000REP       President                                               Newt Gingrich                         VOTING PRECINCT 3                                      01 
01070030004000000000000000000000000000000000000REP       President                                               Newt Gingrich                         VOTING PRECINCT 4                                      01 
01070030005000000000000000000000000000000000000REP       President                                               Newt Gingrich                         VOTING PRECINCT 5                                      01 
01070030006000000000000000000000000000000000000REP       President                                               Newt Gingrich                         VOTING PRECINCT 6                                      01 
01070030007000000000000000000000000000000000000REP       President                                               Newt Gingrich                         VOTING PRECINCT 7                                      01 
01070030008000000000000000000000000000000000000REP       President                                               Newt Gingrich                         VOTING PRECINCT 8                                      01 
01070030009000000000000000000000000000000000000REP       President                                               Newt Gingrich                         VOTING PRECINCT 9                                      01 
01070030010000000000000000000000000000000000000REP       President                                               Newt Gingrich                         VOTING PRECINCT 10                                     01 
01070030011000000000000000000000000000000000000REP       President                                               Newt Gingrich                         VOTING PRECINCT 11                                     01 
01070030012000000000000000000000000000000000000REP       President                                               Newt Gingrich                         VOTING PRECINCT 18                                     01 
01070030013000000000000000000000000000000000000REP       President                                               Newt Gingrich                         VOTING PRECINCT 13                                     01 
01070030014000000000000000000000000000000000000REP       President                                               Newt Gingrich                         VOTING PRECINCT 14                                     01 
01070030015000000000000000000000000000000000000REP       President                                               Newt Gingrich                         VOTING PRECINCT 15                                     01 
01070030016000000000000000000000000000000000000REP       President                                               Newt Gingrich                         VOTING PRECINCT 16                                     01 
01070030017000000000000000000000000000000000000REP       President                                               Newt Gingrich                         VOTING PRECINCT 17                                     01 
01070040001000000000000000000000000000000000000REP       President                                               John Davis                            VOTING PRECINCT 1                                      01 
01070040002000000000000000000000000000000000000REP       President                                               John Davis                            VOTING PRECINCT 2                                      01 
01070040003000000000000000000000000000000000000REP       President                                               John Davis                            VOTING PRECINCT 3                                      01 
01070040004000000000000000000000000000000000000REP       President                                               John Davis                            VOTING PRECINCT 4                                      01 
01070040005000000000000000000000000000000000000REP       President                                               John Davis                            VOTING PRECINCT 5                                      01 
01070040006000000000000000000000000000000000000REP       President                                               John Davis                            VOTING PRECINCT 6                                      01 
01070040007000000000000000000000000000000000000REP       President                                               John Davis                            VOTING PRECINCT 7                                      01 
01070040008000000000000000000000000000000000000REP       President                                               John Davis                            VOTING PRECINCT 8                                      01 
01070040009000000000000000000000000000000000000REP       President                                               John Davis                            VOTING PRECINCT 9                                      01 
01070040010000000000000000000000000000000000000REP       President                                               John Davis                            VOTING PRECINCT 10                                     01 
01070040011000000000000000000000000000000000000REP       President                                               John Davis                            VOTING PRECINCT 11                                     01 
01070040012000000000000000000000000000000000000REP       President                                               John Davis                            VOTING PRECINCT 18                                     01 
01070040013000000000000000000000000000000000000REP       President                                               John Davis                            VOTING PRECINCT 13                                     01 
01070040014000000000000000000000000000000000000REP       President                                               John Davis                            VOTING PRECINCT 14                                     01 
01070040015000000000000000000000000000000000000REP       President                                               John Davis                            VOTING PRECINCT 15                                     01 
01070040016000000000000000000000000000000000000REP       President                                               John Davis                            VOTING PRECINCT 16                                     01 
01070040017000000000000000000000000000000000000REP       President                                               John Davis                            VOTING PRECINCT 17                                     01 
01070050001000000000000000000000000000000000000REP       President                                               Michele Bachmann                      VOTING PRECINCT 1                                      01 
01070050002000000000000000000000000000000000000REP       President                                               Michele Bachmann                      VOTING PRECINCT 2                                      01 
01070050003000000000000000000000000000000000000REP       President                                               Michele Bachmann                      VOTING PRECINCT 3                                      01 
01070050004000000000000000000000000000000000000REP       President                                               Michele Bachmann                      VOTING PRECINCT 4                                      01 
01070050005000000000000000000000000000000000000REP       President                                               Michele Bachmann                      VOTING PRECINCT 5                                      01 
01070050006000000000000000000000000000000000000REP       President                                               Michele Bachmann                      VOTING PRECINCT 6                                      01 
01070050007000000000000000000000000000000000000REP       President                                               Michele Bachmann                      VOTING PRECINCT 7                                      01 
01070050008000000000000000000000000000000000000REP       President                                               Michele Bachmann                      VOTING PRECINCT 8                                      01 
01070050009000000000000000000000000000000000000REP       President                                               Michele Bachmann                      VOTING PRECINCT 9                                      01 
01070050010000000000000000000000000000000000000REP       President                                               Michele Bachmann                      VOTING PRECINCT 10                                     01 
01070050011000000000000000000000000000000000000REP       President                                               Michele Bachmann                      VOTING PRECINCT 11                                     01 
01070050012000000000000000000000000000000000000REP       President                                               Michele Bachmann                      VOTING PRECINCT 18                                     01 
01070050013000000000000000000000000000000000000REP       President                                               Michele Bachmann                      VOTING PRECINCT 13                                     01 
01070050014000000000000000000000000000000000000REP       President                                               Michele Bachmann                      VOTING PRECINCT 14                                     01 
01070050015000000000000000000000000000000000000REP       President                                               Michele Bachmann                      VOTING PRECINCT 15                                     01 
01070050016000000000000000000000000000000000000REP       President                                               Michele Bachmann                      VOTING PRECINCT 16                                     01 
01070050017000000000000000000000000000000000000REP       President                                               Michele Bachmann                      VOTING PRECINCT 17                                     01 
01070060001000000000000000000000000000000000000REP       President                                               Charles "Buddy" Roemer                VOTING PRECINCT 1                                      01 
01070060002000000000000000000000000000000000000REP       President                                               Charles "Buddy" Roemer                VOTING PRECINCT 2                                      01 
01070060003000000000000000000000000000000000000REP       President                                               Charles "Buddy" Roemer                VOTING PRECINCT 3                                      01 
01070060004000000000000000000000000000000000000REP       President                                               Charles "Buddy" Roemer                VOTING PRECINCT 4                                      01 
01070060005000000000000000000000000000000000000REP       President                                               Charles "Buddy" Roemer                VOTING PRECINCT 5                                      01 
01070060006000000000000000000000000000000000000REP       President                                               Charles "Buddy" Roemer                VOTING PRECINCT 6                                      01 
01070060007000000000000000000000000000000000000REP       President                                               Charles "Buddy" Roemer                VOTING PRECINCT 7                                      01 
01070060008000000000000000000000000000000000000REP       President                                               Charles "Buddy" Roemer                VOTING PRECINCT 8                                      01 
01070060009000000000000000000000000000000000000REP       President                                               Charles "Buddy" Roemer                VOTING PRECINCT 9                                      01 
01070060010000000000000000000000000000000000000REP       President                                               Charles "Buddy" Roemer                VOTING PRECINCT 10                                     01 
01070060011000000000000000000000000000000000000REP       President                                               Charles "Buddy" Roemer                VOTING PRECINCT 11                                     01 
01070060012000000000000000000000000000000000000REP       President                                               Charles "Buddy" Roemer                VOTING PRECINCT 18                                     01 
01070060013000000000000000000000000000000000000REP       President                                               Charles "Buddy" Roemer                VOTING PRECINCT 13                                     01 
01070060014000000000000000000000000000000000000REP       President                                               Charles "Buddy" Roemer                VOTING PRECINCT 14                                     01 
01070060015000000000000000000000000000000000000REP       President                                               Charles "Buddy" Roemer                VOTING PRECINCT 15                                     01 
01070060016000000000000000000000000000000000000REP       President                                               Charles "Buddy" Roemer                VOTING PRECINCT 16                                     01 
01070060017000000000000000000000000000000000000REP       President                                               Charles "Buddy" Roemer                VOTING PRECINCT 17                                     01 
01070070001000000000000000000000000000000000000REP       President                                               Ron Paul                              VOTING PRECINCT 1                                      01 
01070070002000000000000000000000000000000000000REP       President                                               Ron Paul                              VOTING PRECINCT 2                                      01 
01070070003000000000000000000000000000000000000REP       President                                               Ron Paul                              VOTING PRECINCT 3                                      01 
01070070004000000000000000000000000000000000000REP       President                                               Ron Paul                              VOTING PRECINCT 4                                      01 
01070070005000000000000000000000000000000000000REP       President                                               Ron Paul                              VOTING PRECINCT 5                                      01 
01070070006000000000000000000000000000000000000REP       President                                               Ron Paul                              VOTING PRECINCT 6                                      01 
01070070007000000000000000000000000000000000000REP       President                                               Ron Paul                              VOTING PRECINCT 7                                      01 
01070070008000000000000000000000000000000000000REP       President                                               Ron Paul                              VOTING PRECINCT 8                                      01 
01070070009000000000000000000000000000000000000REP       President                                               Ron Paul                              VOTING PRECINCT 9                                      01 
01070070010000000000000000000000000000000000000REP       President                                               Ron Paul                              VOTING PRECINCT 10                                     01 
01070070011000000000000000000000000000000000000REP       President                                               Ron Paul                              VOTING PRECINCT 11                                     01 
01070070012000000000000000000000000000000000000REP       President                                               Ron Paul                              VOTING PRECINCT 18                                     01 
01070070013000000000000000000000000000000000000REP       President                                               Ron Paul                              VOTING PRECINCT 13                                     01 
01070070014000000000000000000000000000000000000REP       President                                               Ron Paul                              VOTING PRECINCT 14                                     01 
01070070015000000000000000000000000000000000000REP       President                                               Ron Paul                              VOTING PRECINCT 15                                     01 
01070070016000000000000000000000000000000000000REP       President                                               Ron Paul                              VOTING PRECINCT 16                                     01 
01070070017000000000000000000000000000000000000REP       President                                               Ron Paul                              VOTING PRECINCT 17                                     01 
01070080001000000000000000000000000000000000000REP       President                                               Jon Huntsman                          VOTING PRECINCT 1                                      01 
01070080002000000000000000000000000000000000000REP       President                                               Jon Huntsman                          VOTING PRECINCT 2                                      01 
01070080003000000000000000000000000000000000000REP       President                                               Jon Huntsman                          VOTING PRECINCT 3                                      01 
01070080004000000000000000000000000000000000000REP       President                                               Jon Huntsman                          VOTING PRECINCT 4                                      01 
01070080005000000000000000000000000000000000000REP       President                                               Jon Huntsman                          VOTING PRECINCT 5                                      01 
01070080006000000000000000000000000000000000000REP       President                                               Jon Huntsman                          VOTING PRECINCT 6                                      01 
01070080007000000000000000000000000000000000000REP       President                                               Jon Huntsman                          VOTING PRECINCT 7                                      01 
01070080008000000000000000000000000000000000000REP       President                                               Jon Huntsman                          VOTING PRECINCT 8                                      01 
01070080009000000000000000000000000000000000000REP       President                                               Jon Huntsman                          VOTING PRECINCT 9                                      01 
01070080010000000000000000000000000000000000000REP       President                                               Jon Huntsman                          VOTING PRECINCT 10                                     01 
01070080011000000000000000000000000000000000000REP       President                                               Jon Huntsman                          VOTING PRECINCT 11                                     01 
01070080012000000000000000000000000000000000000REP       President                                               Jon Huntsman                          VOTING PRECINCT 18                                     01 
01070080013000000000000000000000000000000000000REP       President                                               Jon Huntsman                          VOTING PRECINCT 13                                     01 
01070080014000000000000000000000000000000000000REP       President                                               Jon Huntsman                          VOTING PRECINCT 14                                     01 
01070080015000000000000000000000000000000000000REP       President                                               Jon Huntsman                          VOTING PRECINCT 15                                     01 
01070080016000000000000000000000000000000000000REP       President                                               Jon Huntsman                          VOTING PRECINCT 16                                     01 
01070080017000000000000000000000000000000000000REP       President                                               Jon Huntsman                          VOTING PRECINCT 17                                     01 
01070090001000000000000000000000000000000000000REP       President                                               Uncommitted                           VOTING PRECINCT 1                                      01 
01070090002000000000000000000000000000000000000REP       President                                               Uncommitted                           VOTING PRECINCT 2                                      01 
01070090003000000000000000000000000000000000000REP       President                                               Uncommitted                           VOTING PRECINCT 3                                      01 
01070090004000000000000000000000000000000000000REP       President                                               Uncommitted                           VOTING PRECINCT 4                                      01 
01070090005000000000000000000000000000000000000REP       President                                               Uncommitted                           VOTING PRECINCT 5                                      01 
01070090006000000000000000000000000000000000000REP       President                                               Uncommitted                           VOTING PRECINCT 6                                      01 
01070090007000000000000000000000000000000000000REP       President                                               Uncommitted                           VOTING PRECINCT 7                                      01 
01070090008000000000000000000000000000000000000REP       President                                               Uncommitted                           VOTING PRECINCT 8                                      01 
01070090009000000000000000000000000000000000000REP       President                                               Uncommitted                           VOTING PRECINCT 9                                      01 
01070090010000000000000000000000000000000000000REP       President                                               Uncommitted                           VOTING PRECINCT 10                                     01 
01070090011000000000000000000000000000000000000REP       President                                               Uncommitted                           VOTING PRECINCT 11                                     01 
01070090012000000000000000000000000000000000000REP       President                                               Uncommitted                           VOTING PRECINCT 18                                     01 
01070090013000000000000000000000000000000000000REP       President                                               Uncommitted                           VOTING PRECINCT 13                                     01 
01070090014000000000000000000000000000000000000REP       President                                               Uncommitted                           VOTING PRECINCT 14                                     01 
01070090015000000000000000000000000000000000000REP       President                                               Uncommitted                           VOTING PRECINCT 15                                     01 
01070090016000000000000000000000000000000000000REP       President                                               Uncommitted                           VOTING PRECINCT 16                                     01 
01070090017000000000000000000000000000000000000REP       President                                               Uncommitted                           VOTING PRECINCT 17                                     01 
01070100001000000000000000000000000000000000000REP       President                                               OVER VOTES                            VOTING PRECINCT 1                                      01 
01070100002000000000000000000000000000000000000REP       President                                               OVER VOTES                            VOTING PRECINCT 2                                      01 
01070100003000000000000000000000000000000000000REP       President                                               OVER VOTES                            VOTING PRECINCT 3                                      01 
01070100004000000000000000000000000000000000000REP       President                                               OVER VOTES                            VOTING PRECINCT 4                                      01 
01070100005000000000000000000000000000000000000REP       President                                               OVER VOTES                            VOTING PRECINCT 5                                      01 
01070100006000000000000000000000000000000000000REP       President                                               OVER VOTES                            VOTING PRECINCT 6                                      01 
01070100007000000000000000000000000000000000000REP       President                                               OVER VOTES                            VOTING PRECINCT 7                                      01 
01070100008000000000000000000000000000000000000REP       President                                               OVER VOTES                            VOTING PRECINCT 8                                      01 
01070100009000000000000000000000000000000000000REP       President                                               OVER VOTES                            VOTING PRECINCT 9                                      01 
01070100010000000000000000000000000000000000000REP       President                                               OVER VOTES                            VOTING PRECINCT 10                                     01 
01070100011000000000000000000000000000000000000REP       President                                               OVER VOTES                            VOTING PRECINCT 11                                     01 
01070100012000000000000000000000000000000000000REP       President                                               OVER VOTES                            VOTING PRECINCT 18                                     01 
01070100013000000000000000000000000000000000000REP       President                                               OVER VOTES                            VOTING PRECINCT 13                                     01 
01070100014000000000000000000000000000000000000REP       President                                               OVER VOTES                            VOTING PRECINCT 14                                     01 
01070100015000000000000000000000000000000000000REP       President                                               OVER VOTES                            VOTING PRECINCT 15                                     01 
01070100016000000000000000000000000000000000000REP       President                                               OVER VOTES                            VOTING PRECINCT 16                                     01 
01070100017000000000000000000000000000000000000REP       President                                               OVER VOTES                            VOTING PRECINCT 17                                     01 
01070110001000000000000000000000000000000000000REP       President                                               UNDER VOTES                           VOTING PRECINCT 1                                      01 
01070110002000000000000000000000000000000000000REP       President                                               UNDER VOTES                           VOTING PRECINCT 2                                      01 
01070110003000000000000000000000000000000000000REP       President                                               UNDER VOTES                           VOTING PRECINCT 3                                      01 
01070110004000000000000000000000000000000000000REP       President                                               UNDER VOTES                           VOTING PRECINCT 4                                      01 
01070110005000000000000000000000000000000000000REP       President                                               UNDER VOTES                           VOTING PRECINCT 5                                      01 
01070110006000000000000000000000000000000000000REP       President                                               UNDER VOTES                           VOTING PRECINCT 6                                      01 
01070110007000000000000000000000000000000000000REP       President                                               UNDER VOTES                           VOTING PRECINCT 7                                      01 
01070110008000000000000000000000000000000000000REP       President                                               UNDER VOTES                           VOTING PRECINCT 8                                      01 
01070110009000000000000000000000000000000000000REP       President                                               UNDER VOTES                           VOTING PRECINCT 9                                      01 
01070110010000000000000000000000000000000000000REP       President                                               UNDER VOTES                           VOTING PRECINCT 10                                     01 
01070110011000000000000000000000000000000000000REP       President                                               UNDER VOTES                           VOTING PRECINCT 11                                     01 
01070110012000000000000000000000000000000000000REP       President                                               UNDER VOTES                           VOTING PRECINCT 18                                     01 
01070110013000000000000000000000000000000000000REP       President                                               UNDER VOTES                           VOTING PRECINCT 13                                     01 
01070110014000000000000000000000000000000000000REP       President                                               UNDER VOTES                           VOTING PRECINCT 14                                     01 
01070110015000000000000000000000000000000000000REP       President                                               UNDER VOTES                           VOTING PRECINCT 15                                     01 
01070110016000000000000000000000000000000000000REP       President                                               UNDER VOTES                           VOTING PRECINCT 16                                     01 
01070110017000000000000000000000000000000000000REP       President                                               UNDER VOTES                           VOTING PRECINCT 17                                     01 
01080010001000000000000000000000000000000000000REP       United States Senator                                   Ted Cruz                              VOTING PRECINCT 1                                      01 
01080010002000000000000000000000000000000000000REP       United States Senator                                   Ted Cruz                              VOTING PRECINCT 2                                      01 
01080010003000000000000000000000000000000000000REP       United States Senator                                   Ted Cruz                              VOTING PRECINCT 3                                      01 
01080010004000000000000000000000000000000000000REP       United States Senator                                   Ted Cruz                              VOTING PRECINCT 4                                      01 
01080010005000000000000000000000000000000000000REP       United States Senator                                   Ted Cruz                              VOTING PRECINCT 5                                      01 
01080010006000000000000000000000000000000000000REP       United States Senator                                   Ted Cruz                              VOTING PRECINCT 6                                      01 
01080010007000000000000000000000000000000000000REP       United States Senator                                   Ted Cruz                              VOTING PRECINCT 7                                      01 
01080010008000000000000000000000000000000000000REP       United States Senator                                   Ted Cruz                              VOTING PRECINCT 8                                      01 
01080010009000000000000000000000000000000000000REP       United States Senator                                   Ted Cruz                              VOTING PRECINCT 9                                      01 
01080010010000000000000000000000000000000000000REP       United States Senator                                   Ted Cruz                              VOTING PRECINCT 10                                     01 
01080010011000000000000000000000000000000000000REP       United States Senator                                   Ted Cruz                              VOTING PRECINCT 11                                     01 
01080010012000000000000000000000000000000000000REP       United States Senator                                   Ted Cruz                              VOTING PRECINCT 18                                     01 
01080010013000000000000000000000000000000000000REP       United States Senator                                   Ted Cruz                              VOTING PRECINCT 13                                     01 
01080010014000000000000000000000000000000000000REP       United States Senator                                   Ted Cruz                              VOTING PRECINCT 14                                     01 
01080010015000000000000000000000000000000000000REP       United States Senator                                   Ted Cruz                              VOTING PRECINCT 15                                     01 
01080010016000000000000000000000000000000000000REP       United States Senator                                   Ted Cruz                              VOTING PRECINCT 16                                     01 
01080010017000000000000000000000000000000000000REP       United States Senator                                   Ted Cruz                              VOTING PRECINCT 17                                     01 
01080020001000000000000000000000000000000000000REP       United States Senator                                   Craig James                           VOTING PRECINCT 1                                      01 
01080020002000000000000000000000000000000000000REP       United States Senator                                   Craig James                           VOTING PRECINCT 2                                      01 
01080020003000000000000000000000000000000000000REP       United States Senator                                   Craig James                           VOTING PRECINCT 3                                      01 
01080020004000000000000000000000000000000000000REP       United States Senator                                   Craig James                           VOTING PRECINCT 4                                      01 
01080020005000000000000000000000000000000000000REP       United States Senator                                   Craig James                           VOTING PRECINCT 5                                      01 
01080020006000000000000000000000000000000000000REP       United States Senator                                   Craig James                           VOTING PRECINCT 6                                      01 
01080020007000000000000000000000000000000000000REP       United States Senator                                   Craig James                           VOTING PRECINCT 7                                      01 
01080020008000000000000000000000000000000000000REP       United States Senator                                   Craig James                           VOTING PRECINCT 8                                      01 
01080020009000000000000000000000000000000000000REP       United States Senator                                   Craig James                           VOTING PRECINCT 9                                      01 
01080020010000000000000000000000000000000000000REP       United States Senator                                   Craig James                           VOTING PRECINCT 10                                     01 
01080020011000000000000000000000000000000000000REP       United States Senator                                   Craig James                           VOTING PRECINCT 11                                     01 
01080020012000000000000000000000000000000000000REP       United States Senator                                   Craig James                           VOTING PRECINCT 18                                     01 
01080020013000000000000000000000000000000000000REP       United States Senator                                   Craig James                           VOTING PRECINCT 13                                     01 
01080020014000000000000000000000000000000000000REP       United States Senator                                   Craig James                           VOTING PRECINCT 14                                     01 
01080020015000000000000000000000000000000000000REP       United States Senator                                   Craig James                           VOTING PRECINCT 15                                     01 
01080020016000000000000000000000000000000000000REP       United States Senator                                   Craig James                           VOTING PRECINCT 16                                     01 
01080020017000000000000000000000000000000000000REP       United States Senator                                   Craig James                           VOTING PRECINCT 17                                     01 
01080030001000000000000000000000000000000000000REP       United States Senator                                   Ben Gambini                           VOTING PRECINCT 1                                      01 
01080030002000000000000000000000000000000000000REP       United States Senator                                   Ben Gambini                           VOTING PRECINCT 2                                      01 
01080030003000000000000000000000000000000000000REP       United States Senator                                   Ben Gambini                           VOTING PRECINCT 3                                      01 
01080030004000000000000000000000000000000000000REP       United States Senator                                   Ben Gambini                           VOTING PRECINCT 4                                      01 
01080030005000000000000000000000000000000000000REP       United States Senator                                   Ben Gambini                           VOTING PRECINCT 5                                      01 
01080030006000000000000000000000000000000000000REP       United States Senator                                   Ben Gambini                           VOTING PRECINCT 6                                      01 
01080030007000000000000000000000000000000000000REP       United States Senator                                   Ben Gambini                           VOTING PRECINCT 7                                      01 
01080030008000000000000000000000000000000000000REP       United States Senator                                   Ben Gambini                           VOTING PRECINCT 8                                      01 
01080030009000000000000000000000000000000000000REP       United States Senator                                   Ben Gambini                           VOTING PRECINCT 9                                      01 
01080030010000000000000000000000000000000000000REP       United States Senator                                   Ben Gambini                           VOTING PRECINCT 10                                     01 
01080030011000000000000000000000000000000000000REP       United States Senator                                   Ben Gambini                           VOTING PRECINCT 11                                     01 
01080030012000000000000000000000000000000000000REP       United States Senator                                   Ben Gambini                           VOTING PRECINCT 18                                     01 
01080030013000000000000000000000000000000000000REP       United States Senator                                   Ben Gambini                           VOTING PRECINCT 13                                     01 
01080030014000000000000000000000000000000000000REP       United States Senator                                   Ben Gambini                           VOTING PRECINCT 14                                     01 
01080030015000000000000000000000000000000000000REP       United States Senator                                   Ben Gambini                           VOTING PRECINCT 15                                     01 
01080030016000000000000000000000000000000000000REP       United States Senator                                   Ben Gambini                           VOTING PRECINCT 16                                     01 
01080030017000000000000000000000000000000000000REP       United States Senator                                   Ben Gambini                           VOTING PRECINCT 17                                     01 
01080040001000000000000000000000000000000000000REP       United States Senator                                   Lela Pittenger                        VOTING PRECINCT 1                                      01 
01080040002000000000000000000000000000000000000REP       United States Senator                                   Lela Pittenger                        VOTING PRECINCT 2                                      01 
01080040003000000000000000000000000000000000000REP       United States Senator                                   Lela Pittenger                        VOTING PRECINCT 3                                      01 
01080040004000000000000000000000000000000000000REP       United States Senator                                   Lela Pittenger                        VOTING PRECINCT 4                                      01 
01080040005000000000000000000000000000000000000REP       United States Senator                                   Lela Pittenger                        VOTING PRECINCT 5                                      01 
01080040006000000000000000000000000000000000000REP       United States Senator                                   Lela Pittenger                        VOTING PRECINCT 6                                      01 
01080040007000000000000000000000000000000000000REP       United States Senator                                   Lela Pittenger                        VOTING PRECINCT 7                                      01 
01080040008000000000000000000000000000000000000REP       United States Senator                                   Lela Pittenger                        VOTING PRECINCT 8                                      01 
01080040009000000000000000000000000000000000000REP       United States Senator                                   Lela Pittenger                        VOTING PRECINCT 9                                      01 
01080040010000000000000000000000000000000000000REP       United States Senator                                   Lela Pittenger                        VOTING PRECINCT 10                                     01 
01080040011000000000000000000000000000000000000REP       United States Senator                                   Lela Pittenger                        VOTING PRECINCT 11                                     01 
01080040012000000000000000000000000000000000000REP       United States Senator                                   Lela Pittenger                        VOTING PRECINCT 18                                     01 
01080040013000000000000000000000000000000000000REP       United States Senator                                   Lela Pittenger                        VOTING PRECINCT 13                                     01 
01080040014000000000000000000000000000000000000REP       United States Senator                                   Lela Pittenger                        VOTING PRECINCT 14                                     01 
01080040015000000000000000000000000000000000000REP       United States Senator                                   Lela Pittenger                        VOTING PRECINCT 15                                     01 
01080040016000000000000000000000000000000000000REP       United States Senator                                   Lela Pittenger                        VOTING PRECINCT 16                                     01 
01080040017000000000000000000000000000000000000REP       United States Senator                                   Lela Pittenger                        VOTING PRECINCT 17                                     01 
01080050001000000000000000000000000000000000000REP       United States Senator                                   Joe Agris                             VOTING PRECINCT 1                                      01 
01080050002000000000000000000000000000000000000REP       United States Senator                                   Joe Agris                             VOTING PRECINCT 2                                      01 
01080050003000000000000000000000000000000000000REP       United States Senator                                   Joe Agris                             VOTING PRECINCT 3                                      01 
01080050004000000000000000000000000000000000000REP       United States Senator                                   Joe Agris                             VOTING PRECINCT 4                                      01 
01080050005000000000000000000000000000000000000REP       United States Senator                                   Joe Agris                             VOTING PRECINCT 5                                      01 
01080050006000000000000000000000000000000000000REP       United States Senator                                   Joe Agris                             VOTING PRECINCT 6                                      01 
01080050007000000000000000000000000000000000000REP       United States Senator                                   Joe Agris                             VOTING PRECINCT 7                                      01 
01080050008000000000000000000000000000000000000REP       United States Senator                                   Joe Agris                             VOTING PRECINCT 8                                      01 
01080050009000000000000000000000000000000000000REP       United States Senator                                   Joe Agris                             VOTING PRECINCT 9                                      01 
01080050010000000000000000000000000000000000000REP       United States Senator                                   Joe Agris                             VOTING PRECINCT 10                                     01 
01080050011000000000000000000000000000000000000REP       United States Senator                                   Joe Agris                             VOTING PRECINCT 11                                     01 
01080050012000000000000000000000000000000000000REP       United States Senator                                   Joe Agris                             VOTING PRECINCT 18                                     01 
01080050013000000000000000000000000000000000000REP       United States Senator                                   Joe Agris                             VOTING PRECINCT 13                                     01 
01080050014000000000000000000000000000000000000REP       United States Senator                                   Joe Agris                             VOTING PRECINCT 14                                     01 
01080050015000000000000000000000000000000000000REP       United States Senator                                   Joe Agris                             VOTING PRECINCT 15                                     01 
01080050016000000000000000000000000000000000000REP       United States Senator                                   Joe Agris                             VOTING PRECINCT 16                                     01 
01080050017000000000000000000000000000000000000REP       United States Senator                                   Joe Agris                             VOTING PRECINCT 17                                     01 
01080060001000000000000000000000000000000000000REP       United States Senator                                   David Dewhurst                        VOTING PRECINCT 1                                      01 
01080060002000000000000000000000000000000000000REP       United States Senator                                   David Dewhurst                        VOTING PRECINCT 2                                      01 
01080060003000000000000000000000000000000000000REP       United States Senator                                   David Dewhurst                        VOTING PRECINCT 3                                      01 
01080060004000000000000000000000000000000000000REP       United States Senator                                   David Dewhurst                        VOTING PRECINCT 4                                      01 
01080060005000000000000000000000000000000000000REP       United States Senator                                   David Dewhurst                        VOTING PRECINCT 5                                      01 
01080060006000000000000000000000000000000000000REP       United States Senator                                   David Dewhurst                        VOTING PRECINCT 6                                      01 
01080060007000000000000000000000000000000000000REP       United States Senator                                   David Dewhurst                        VOTING PRECINCT 7                                      01 
01080060008000000000000000000000000000000000000REP       United States Senator                                   David Dewhurst                        VOTING PRECINCT 8                                      01 
01080060009000000000000000000000000000000000000REP       United States Senator                                   David Dewhurst                        VOTING PRECINCT 9                                      01 
01080060010000000000000000000000000000000000000REP       United States Senator                                   David Dewhurst                        VOTING PRECINCT 10                                     01 
01080060011000000000000000000000000000000000000REP       United States Senator                                   David Dewhurst                        VOTING PRECINCT 11                                     01 
01080060012000000000000000000000000000000000000REP       United States Senator                                   David Dewhurst                        VOTING PRECINCT 18                                     01 
01080060013000000000000000000000000000000000000REP       United States Senator                                   David Dewhurst                        VOTING PRECINCT 13                                     01 
01080060014000000000000000000000000000000000000REP       United States Senator                                   David Dewhurst                        VOTING PRECINCT 14                                     01 
01080060015000000000000000000000000000000000000REP       United States Senator                                   David Dewhurst                        VOTING PRECINCT 15                                     01 
01080060016000000000000000000000000000000000000REP       United States Senator                                   David Dewhurst                        VOTING PRECINCT 16                                     01 
01080060017000000000000000000000000000000000000REP       United States Senator                                   David Dewhurst                        VOTING PRECINCT 17                                     01 
01080070001000000000000000000000000000000000000REP       United States Senator                                   Glenn Addison                         VOTING PRECINCT 1                                      01 
01080070002000000000000000000000000000000000000REP       United States Senator                                   Glenn Addison                         VOTING PRECINCT 2                                      01 
01080070003000000000000000000000000000000000000REP       United States Senator                                   Glenn Addison                         VOTING PRECINCT 3                                      01 
01080070004000000000000000000000000000000000000REP       United States Senator                                   Glenn Addison                         VOTING PRECINCT 4                                      01 
01080070005000000000000000000000000000000000000REP       United States Senator                                   Glenn Addison                         VOTING PRECINCT 5                                      01 
01080070006000000000000000000000000000000000000REP       United States Senator                                   Glenn Addison                         VOTING PRECINCT 6                                      01 
01080070007000000000000000000000000000000000000REP       United States Senator                                   Glenn Addison                         VOTING PRECINCT 7                                      01 
01080070008000000000000000000000000000000000000REP       United States Senator                                   Glenn Addison                         VOTING PRECINCT 8                                      01 
01080070009000000000000000000000000000000000000REP       United States Senator                                   Glenn Addison                         VOTING PRECINCT 9                                      01 
01080070010000000000000000000000000000000000000REP       United States Senator                                   Glenn Addison                         VOTING PRECINCT 10                                     01 
01080070011000000000000000000000000000000000000REP       United States Senator                                   Glenn Addison                         VOTING PRECINCT 11                                     01 
01080070012000000000000000000000000000000000000REP       United States Senator                                   Glenn Addison                         VOTING PRECINCT 18                                     01 
01080070013000000000000000000000000000000000000REP       United States Senator                                   Glenn Addison                         VOTING PRECINCT 13                                     01 
01080070014000000000000000000000000000000000000REP       United States Senator                                   Glenn Addison                         VOTING PRECINCT 14                                     01 
01080070015000000000000000000000000000000000000REP       United States Senator                                   Glenn Addison                         VOTING PRECINCT 15                                     01 
01080070016000000000000000000000000000000000000REP       United States Senator                                   Glenn Addison                         VOTING PRECINCT 16                                     01 
01080070017000000000000000000000000000000000000REP       United States Senator                                   Glenn Addison                         VOTING PRECINCT 17                                     01 
01080080001000000000000000000000000000000000000REP       United States Senator                                   Curt Cleaver                          VOTING PRECINCT 1                                      01 
01080080002000000000000000000000000000000000000REP       United States Senator                                   Curt Cleaver                          VOTING PRECINCT 2                                      01 
01080080003000000000000000000000000000000000000REP       United States Senator                                   Curt Cleaver                          VOTING PRECINCT 3                                      01 
01080080004000000000000000000000000000000000000REP       United States Senator                                   Curt Cleaver                          VOTING PRECINCT 4                                      01 
01080080005000000000000000000000000000000000000REP       United States Senator                                   Curt Cleaver                          VOTING PRECINCT 5                                      01 
01080080006000000000000000000000000000000000000REP       United States Senator                                   Curt Cleaver                          VOTING PRECINCT 6                                      01 
01080080007000000000000000000000000000000000000REP       United States Senator                                   Curt Cleaver                          VOTING PRECINCT 7                                      01 
01080080008000000000000000000000000000000000000REP       United States Senator                                   Curt Cleaver                          VOTING PRECINCT 8                                      01 
01080080009000000000000000000000000000000000000REP       United States Senator                                   Curt Cleaver                          VOTING PRECINCT 9                                      01 
01080080010000000000000000000000000000000000000REP       United States Senator                                   Curt Cleaver                          VOTING PRECINCT 10                                     01 
01080080011000000000000000000000000000000000000REP       United States Senator                                   Curt Cleaver                          VOTING PRECINCT 11                                     01 
01080080012000000000000000000000000000000000000REP       United States Senator                                   Curt Cleaver                          VOTING PRECINCT 18                                     01 
01080080013000000000000000000000000000000000000REP       United States Senator                                   Curt Cleaver                          VOTING PRECINCT 13                                     01 
01080080014000000000000000000000000000000000000REP       United States Senator                                   Curt Cleaver                          VOTING PRECINCT 14                                     01 
01080080015000000000000000000000000000000000000REP       United States Senator                                   Curt Cleaver                          VOTING PRECINCT 15                                     01 
01080080016000000000000000000000000000000000000REP       United States Senator                                   Curt Cleaver                          VOTING PRECINCT 16                                     01 
01080080017000000000000000000000000000000000000REP       United States Senator                                   Curt Cleaver                          VOTING PRECINCT 17                                     01 
01080090001000000000000000000000000000000000000REP       United States Senator                                   Tom Leppert                           VOTING PRECINCT 1                                      01 
01080090002000000000000000000000000000000000000REP       United States Senator                                   Tom Leppert                           VOTING PRECINCT 2                                      01 
01080090003000000000000000000000000000000000000REP       United States Senator                                   Tom Leppert                           VOTING PRECINCT 3                                      01 
01080090004000000000000000000000000000000000000REP       United States Senator                                   Tom Leppert                           VOTING PRECINCT 4                                      01 
01080090005000000000000000000000000000000000000REP       United States Senator                                   Tom Leppert                           VOTING PRECINCT 5                                      01 
01080090006000000000000000000000000000000000000REP       United States Senator                                   Tom Leppert                           VOTING PRECINCT 6                                      01 
01080090007000000000000000000000000000000000000REP       United States Senator                                   Tom Leppert                           VOTING PRECINCT 7                                      01 
01080090008000000000000000000000000000000000000REP       United States Senator                                   Tom Leppert                           VOTING PRECINCT 8                                      01 
01080090009000000000000000000000000000000000000REP       United States Senator                                   Tom Leppert                           VOTING PRECINCT 9                                      01 
01080090010000000000000000000000000000000000000REP       United States Senator                                   Tom Leppert                           VOTING PRECINCT 10                                     01 
01080090011000000000000000000000000000000000000REP       United States Senator                                   Tom Leppert                           VOTING PRECINCT 11                                     01 
01080090012000000000000000000000000000000000000REP       United States Senator                                   Tom Leppert                           VOTING PRECINCT 18                                     01 
01080090013000000000000000000000000000000000000REP       United States Senator                                   Tom Leppert                           VOTING PRECINCT 13                                     01 
01080090014000000000000000000000000000000000000REP       United States Senator                                   Tom Leppert                           VOTING PRECINCT 14                                     01 
01080090015000000000000000000000000000000000000REP       United States Senator                                   Tom Leppert                           VOTING PRECINCT 15                                     01 
01080090016000000000000000000000000000000000000REP       United States Senator                                   Tom Leppert                           VOTING PRECINCT 16                                     01 
01080090017000000000000000000000000000000000000REP       United States Senator                                   Tom Leppert                           VOTING PRECINCT 17                                     01 
01080100001000000000000000000000000000000000000REP       United States Senator                                   OVER VOTES                            VOTING PRECINCT 1                                      01 
01080100002000000000000000000000000000000000000REP       United States Senator                                   OVER VOTES                            VOTING PRECINCT 2                                      01 
01080100003000000000000000000000000000000000000REP       United States Senator                                   OVER VOTES                            VOTING PRECINCT 3                                      01 
01080100004000000000000000000000000000000000000REP       United States Senator                                   OVER VOTES                            VOTING PRECINCT 4                                      01 
01080100005000000000000000000000000000000000000REP       United States Senator                                   OVER VOTES                            VOTING PRECINCT 5                                      01 
01080100006000000000000000000000000000000000000REP       United States Senator                                   OVER VOTES                            VOTING PRECINCT 6                                      01 
01080100007000000000000000000000000000000000000REP       United States Senator                                   OVER VOTES                            VOTING PRECINCT 7                                      01 
01080100008000000000000000000000000000000000000REP       United States Senator                                   OVER VOTES                            VOTING PRECINCT 8                                      01 
01080100009000000000000000000000000000000000000REP       United States Senator                                   OVER VOTES                            VOTING PRECINCT 9                                      01 
01080100010000000000000000000000000000000000000REP       United States Senator                                   OVER VOTES                            VOTING PRECINCT 10                                     01 
01080100011000000000000000000000000000000000000REP       United States Senator                                   OVER VOTES                            VOTING PRECINCT 11                                     01 
01080100012000000000000000000000000000000000000REP       United States Senator                                   OVER VOTES                            VOTING PRECINCT 18                                     01 
01080100013000000000000000000000000000000000000REP       United States Senator                                   OVER VOTES                            VOTING PRECINCT 13                                     01 
01080100014000000000000000000000000000000000000REP       United States Senator                                   OVER VOTES                            VOTING PRECINCT 14                                     01 
01080100015000000000000000000000000000000000000REP       United States Senator                                   OVER VOTES                            VOTING PRECINCT 15                                     01 
01080100016000000000000000000000000000000000000REP       United States Senator                                   OVER VOTES                            VOTING PRECINCT 16                                     01 
01080100017000000000000000000000000000000000000REP       United States Senator                                   OVER VOTES                            VOTING PRECINCT 17                                     01 
01080110001000000000000000000000000000000000000REP       United States Senator                                   UNDER VOTES                           VOTING PRECINCT 1                                      01 
01080110002000000000000000000000000000000000000REP       United States Senator                                   UNDER VOTES                           VOTING PRECINCT 2                                      01 
01080110003000000000000000000000000000000000000REP       United States Senator                                   UNDER VOTES                           VOTING PRECINCT 3                                      01 
01080110004000000000000000000000000000000000000REP       United States Senator                                   UNDER VOTES                           VOTING PRECINCT 4                                      01 
01080110005000000000000000000000000000000000000REP       United States Senator                                   UNDER VOTES                           VOTING PRECINCT 5                                      01 
01080110006000000000000000000000000000000000000REP       United States Senator                                   UNDER VOTES                           VOTING PRECINCT 6                                      01 
01080110007000000000000000000000000000000000000REP       United States Senator                                   UNDER VOTES                           VOTING PRECINCT 7                                      01 
01080110008000000000000000000000000000000000000REP       United States Senator                                   UNDER VOTES                           VOTING PRECINCT 8                                      01 
01080110009000000000000000000000000000000000000REP       United States Senator                                   UNDER VOTES                           VOTING PRECINCT 9                                      01 
01080110010000000000000000000000000000000000000REP       United States Senator                                   UNDER VOTES                           VOTING PRECINCT 10                                     01 
01080110011000000000000000000000000000000000000REP       United States Senator                                   UNDER VOTES                           VOTING PRECINCT 11                                     01 
01080110012000000000000000000000000000000000000REP       United States Senator                                   UNDER VOTES                           VOTING PRECINCT 18                                     01 
01080110013000000000000000000000000000000000000REP       United States Senator                                   UNDER VOTES                           VOTING PRECINCT 13                                     01 
01080110014000000000000000000000000000000000000REP       United States Senator                                   UNDER VOTES                           VOTING PRECINCT 14                                     01 
01080110015000000000000000000000000000000000000REP       United States Senator                                   UNDER VOTES                           VOTING PRECINCT 15                                     01 
01080110016000000000000000000000000000000000000REP       United States Senator                                   UNDER VOTES                           VOTING PRECINCT 16                                     01 
01080110017000000000000000000000000000000000000REP       United States Senator                                   UNDER VOTES                           VOTING PRECINCT 17                                     01 
01090010001000000000000000000000000000000000000REP       United States Representative, Dist 36                   Keith Casey                           VOTING PRECINCT 1                                      01 
01090010002000000000000000000000000000000000000REP       United States Representative, Dist 36                   Keith Casey                           VOTING PRECINCT 2                                      01 
01090010003000000000000000000000000000000000000REP       United States Representative, Dist 36                   Keith Casey                           VOTING PRECINCT 3                                      01 
01090010004000000000000000000000000000000000000REP       United States Representative, Dist 36                   Keith Casey                           VOTING PRECINCT 4                                      01 
01090010005000000000000000000000000000000000000REP       United States Representative, Dist 36                   Keith Casey                           VOTING PRECINCT 5                                      01 
01090010006000000000000000000000000000000000000REP       United States Representative, Dist 36                   Keith Casey                           VOTING PRECINCT 6                                      01 
01090010007000000000000000000000000000000000000REP       United States Representative, Dist 36                   Keith Casey                           VOTING PRECINCT 7                                      01 
01090010008000000000000000000000000000000000000REP       United States Representative, Dist 36                   Keith Casey                           VOTING PRECINCT 8                                      01 
01090010009000000000000000000000000000000000000REP       United States Representative, Dist 36                   Keith Casey                           VOTING PRECINCT 9                                      01 
01090010010000000000000000000000000000000000000REP       United States Representative, Dist 36                   Keith Casey                           VOTING PRECINCT 10                                     01 
01090010011000000000000000000000000000000000000REP       United States Representative, Dist 36                   Keith Casey                           VOTING PRECINCT 11                                     01 
01090010012000000000000000000000000000000000000REP       United States Representative, Dist 36                   Keith Casey                           VOTING PRECINCT 18                                     01 
01090010013000000000000000000000000000000000000REP       United States Representative, Dist 36                   Keith Casey                           VOTING PRECINCT 13                                     01 
01090010014000000000000000000000000000000000000REP       United States Representative, Dist 36                   Keith Casey                           VOTING PRECINCT 14                                     01 
01090010015000000000000000000000000000000000000REP       United States Representative, Dist 36                   Keith Casey                           VOTING PRECINCT 15                                     01 
01090010016000000000000000000000000000000000000REP       United States Representative, Dist 36                   Keith Casey                           VOTING PRECINCT 16                                     01 
01090010017000000000000000000000000000000000000REP       United States Representative, Dist 36                   Keith Casey                           VOTING PRECINCT 17                                     01 
01090020001000000000000000000000000000000000000REP       United States Representative, Dist 36                   Jerry L. Doyle                        VOTING PRECINCT 1                                      01 
01090020002000000000000000000000000000000000000REP       United States Representative, Dist 36                   Jerry L. Doyle                        VOTING PRECINCT 2                                      01 
01090020003000000000000000000000000000000000000REP       United States Representative, Dist 36                   Jerry L. Doyle                        VOTING PRECINCT 3                                      01 
01090020004000000000000000000000000000000000000REP       United States Representative, Dist 36                   Jerry L. Doyle                        VOTING PRECINCT 4                                      01 
01090020005000000000000000000000000000000000000REP       United States Representative, Dist 36                   Jerry L. Doyle                        VOTING PRECINCT 5                                      01 
01090020006000000000000000000000000000000000000REP       United States Representative, Dist 36                   Jerry L. Doyle                        VOTING PRECINCT 6                                      01 
01090020007000000000000000000000000000000000000REP       United States Representative, Dist 36                   Jerry L. Doyle                        VOTING PRECINCT 7                                      01 
01090020008000000000000000000000000000000000000REP       United States Representative, Dist 36                   Jerry L. Doyle                        VOTING PRECINCT 8                                      01 
01090020009000000000000000000000000000000000000REP       United States Representative, Dist 36                   Jerry L. Doyle                        VOTING PRECINCT 9                                      01 
01090020010000000000000000000000000000000000000REP       United States Representative, Dist 36                   Jerry L. Doyle                        VOTING PRECINCT 10                                     01 
01090020011000000000000000000000000000000000000REP       United States Representative, Dist 36                   Jerry L. Doyle                        VOTING PRECINCT 11                                     01 
01090020012000000000000000000000000000000000000REP       United States Representative, Dist 36                   Jerry L. Doyle                        VOTING PRECINCT 18                                     01 
01090020013000000000000000000000000000000000000REP       United States Representative, Dist 36                   Jerry L. Doyle                        VOTING PRECINCT 13                                     01 
01090020014000000000000000000000000000000000000REP       United States Representative, Dist 36                   Jerry L. Doyle                        VOTING PRECINCT 14                                     01 
01090020015000000000000000000000000000000000000REP       United States Representative, Dist 36                   Jerry L. Doyle                        VOTING PRECINCT 15                                     01 
01090020016000000000000000000000000000000000000REP       United States Representative, Dist 36                   Jerry L. Doyle                        VOTING PRECINCT 16                                     01 
01090020017000000000000000000000000000000000000REP       United States Representative, Dist 36                   Jerry L. Doyle                        VOTING PRECINCT 17                                     01 
01090030001000000000000000000000000000000000000REP       United States Representative, Dist 36                   Steve Stockman                        VOTING PRECINCT 1                                      01 
01090030002000000000000000000000000000000000000REP       United States Representative, Dist 36                   Steve Stockman                        VOTING PRECINCT 2                                      01 
01090030003000000000000000000000000000000000000REP       United States Representative, Dist 36                   Steve Stockman                        VOTING PRECINCT 3                                      01 
01090030004000000000000000000000000000000000000REP       United States Representative, Dist 36                   Steve Stockman                        VOTING PRECINCT 4                                      01 
01090030005000000000000000000000000000000000000REP       United States Representative, Dist 36                   Steve Stockman                        VOTING PRECINCT 5                                      01 
01090030006000000000000000000000000000000000000REP       United States Representative, Dist 36                   Steve Stockman                        VOTING PRECINCT 6                                      01 
01090030007000000000000000000000000000000000000REP       United States Representative, Dist 36                   Steve Stockman                        VOTING PRECINCT 7                                      01 
01090030008000000000000000000000000000000000000REP       United States Representative, Dist 36                   Steve Stockman                        VOTING PRECINCT 8                                      01 
01090030009000000000000000000000000000000000000REP       United States Representative, Dist 36                   Steve Stockman                        VOTING PRECINCT 9                                      01 
01090030010000000000000000000000000000000000000REP       United States Representative, Dist 36                   Steve Stockman                        VOTING PRECINCT 10                                     01 
01090030011000000000000000000000000000000000000REP       United States Representative, Dist 36                   Steve Stockman                        VOTING PRECINCT 11                                     01 
01090030012000000000000000000000000000000000000REP       United States Representative, Dist 36                   Steve Stockman                        VOTING PRECINCT 18                                     01 
01090030013000000000000000000000000000000000000REP       United States Representative, Dist 36                   Steve Stockman                        VOTING PRECINCT 13                                     01 
01090030014000000000000000000000000000000000000REP       United States Representative, Dist 36                   Steve Stockman                        VOTING PRECINCT 14                                     01 
