04550014057000893NONCTYUNIVCITY OF UNIVERSAL CITY Proposition                      FOR                                                                                          01Y
04550014058000801NONCTYUNIVCITY OF UNIVERSAL CITY Proposition                      FOR                                                                                          01Y
04550014079000588NONCTYUNIVCITY OF UNIVERSAL CITY Proposition                      FOR                                                                                          01Y
04550014089000979NONCTYUNIVCITY OF UNIVERSAL CITY Proposition                      FOR                                                                                          01Y
04550014144000204NONCTYUNIVCITY OF UNIVERSAL CITY Proposition                      FOR                                                                                          01Y
04550014164001063NONCTYUNIVCITY OF UNIVERSAL CITY Proposition                      FOR                                                                                          01Y
04550014194000228NONCTYUNIVCITY OF UNIVERSAL CITY Proposition                      FOR                                                                                          01Y
04550024057000229NONCTYUNIVCITY OF UNIVERSAL CITY Proposition                      AGAINST                                                                                      01Y
04550024058000259NONCTYUNIVCITY OF UNIVERSAL CITY Proposition                      AGAINST                                                                                      01Y
04550024079000238NONCTYUNIVCITY OF UNIVERSAL CITY Proposition                      AGAINST                                                                                      01Y
04550024089000445NONCTYUNIVCITY OF UNIVERSAL CITY Proposition                      AGAINST                                                                                      01Y
04550024144000083NONCTYUNIVCITY OF UNIVERSAL CITY Proposition                      AGAINST                                                                                      01Y
04550024164000345NONCTYUNIVCITY OF UNIVERSAL CITY Proposition                      AGAINST                                                                                      01Y
04550024194000101NONCTYUNIVCITY OF UNIVERSAL CITY Proposition                      AGAINST                                                                                      01Y
04550034057000000   CTYUNIVCITY OF UNIVERSAL CITY Proposition                      OVER VOTES                                                                                   01Y
04550034058000000   CTYUNIVCITY OF UNIVERSAL CITY Proposition                      OVER VOTES                                                                                   01Y
04550034079000000   CTYUNIVCITY OF UNIVERSAL CITY Proposition                      OVER VOTES                                                                                   01Y
04550034089000000   CTYUNIVCITY OF UNIVERSAL CITY Proposition                      OVER VOTES                                                                                   01Y
04550034144000000   CTYUNIVCITY OF UNIVERSAL CITY Proposition                      OVER VOTES                                                                                   01Y
04550034164000000   CTYUNIVCITY OF UNIVERSAL CITY Proposition                      OVER VOTES                                                                                   01Y
04550034194000000   CTYUNIVCITY OF UNIVERSAL CITY Proposition                      OVER VOTES                                                                                   01Y
04550044057000047   CTYUNIVCITY OF UNIVERSAL CITY Proposition                      UNDER VOTES                                                                                  01Y
04550044058000082   CTYUNIVCITY OF UNIVERSAL CITY Proposition                      UNDER VOTES                                                                                  01Y
04550044079000058   CTYUNIVCITY OF UNIVERSAL CITY Proposition                      UNDER VOTES                                                                                  01Y
04550044089000079   CTYUNIVCITY OF UNIVERSAL CITY Proposition                      UNDER VOTES                                                                                  01Y
04550044144000064   CTYUNIVCITY OF UNIVERSAL CITY Proposition                      UNDER VOTES                                                                                  01Y
04550044164000085   CTYUNIVCITY OF UNIVERSAL CITY Proposition                      UNDER VOTES                                                                                  01Y
04550044194000036   CTYUNIVCITY OF UNIVERSAL CITY Proposition                      UNDER VOTES                                                                                  01Y
