04550014057000804NONCTYUNIVCITY OF UNIVERSAL CITY Proposition                      FOR                                                                                          01Y
04550014058000650NONCTYUNIVCITY OF UNIVERSAL CITY Proposition                      FOR                                                                                          01Y
04550014079000454NONCTYUNIVCITY OF UNIVERSAL CITY Proposition                      FOR                                                                                          01Y
04550014089000720NONCTYUNIVCITY OF UNIVERSAL CITY Proposition                      FOR                                                                                          01Y
04550014144000179NONCTYUNIVCITY OF UNIVERSAL CITY Proposition                      FOR                                                                                          01Y
04550014164000864NONCTYUNIVCITY OF UNIVERSAL CITY Proposition                      FOR                                                                                          01Y
04550014194000148NONCTYUNIVCITY OF UNIVERSAL CITY Proposition                      FOR                                                                                          01Y
04550024057000187NONCTYUNIVCITY OF UNIVERSAL CITY Proposition                      AGAINST                                                                                      01Y
04550024058000198NONCTYUNIVCITY OF UNIVERSAL CITY Proposition                      AGAINST                                                                                      01Y
04550024079000174NONCTYUNIVCITY OF UNIVERSAL CITY Proposition                      AGAINST                                                                                      01Y
04550024089000314NONCTYUNIVCITY OF UNIVERSAL CITY Proposition                      AGAINST                                                                                      01Y
04550024144000067NONCTYUNIVCITY OF UNIVERSAL CITY Proposition                      AGAINST                                                                                      01Y
04550024164000259NONCTYUNIVCITY OF UNIVERSAL CITY Proposition                      AGAINST                                                                                      01Y
04550024194000063NONCTYUNIVCITY OF UNIVERSAL CITY Proposition                      AGAINST                                                                                      01Y
04550034057000000   CTYUNIVCITY OF UNIVERSAL CITY Proposition                      OVER VOTES                                                                                   01Y
04550034058000000   CTYUNIVCITY OF UNIVERSAL CITY Proposition                      OVER VOTES                                                                                   01Y
04550034079000000   CTYUNIVCITY OF UNIVERSAL CITY Proposition                      OVER VOTES                                                                                   01Y
04550034089000000   CTYUNIVCITY OF UNIVERSAL CITY Proposition                      OVER VOTES                                                                                   01Y
04550034144000000   CTYUNIVCITY OF UNIVERSAL CITY Proposition                      OVER VOTES                                                                                   01Y
04550034164000000   CTYUNIVCITY OF UNIVERSAL CITY Proposition                      OVER VOTES                                                                                   01Y
04550034194000000   CTYUNIVCITY OF UNIVERSAL CITY Proposition                      OVER VOTES                                                                                   01Y
04550044057000038   CTYUNIVCITY OF UNIVERSAL CITY Proposition                      UNDER VOTES                                                                                  01Y
04550044058000068   CTYUNIVCITY OF UNIVERSAL CITY Proposition                      UNDER VOTES                                                                                  01Y
04550044079000044   CTYUNIVCITY OF UNIVERSAL CITY Proposition                      UNDER VOTES                                                                                  01Y
04550044089000063   CTYUNIVCITY OF UNIVERSAL CITY Proposition                      UNDER VOTES                                                                                  01Y
04550044144000058   CTYUNIVCITY OF UNIVERSAL CITY Proposition                      UNDER VOTES                                                                                  01Y
04550044164000068   CTYUNIVCITY OF UNIVERSAL CITY Proposition                      UNDER VOTES                                                                                  01Y
04550044194000027   CTYUNIVCITY OF UNIVERSAL CITY Proposition                      UNDER VOTES                                                                                  01Y
