01010010001000000000000000000000000000000000000          REGISTERED VOTERS - TOTAL                               REGISTERED VOTERS - TOTAL             Precinct 1A                                            00 
01010010002000000000000000000000000000000000000          REGISTERED VOTERS - TOTAL                               REGISTERED VOTERS - TOTAL             Precinct 1B                                            00 
01010010003000000000000000000000000000000000000          REGISTERED VOTERS - TOTAL                               REGISTERED VOTERS - TOTAL             Precinct 1C                                            00 
01010010004000000000000000000000000000000000000          REGISTERED VOTERS - TOTAL                               REGISTERED VOTERS - TOTAL             Precinct 1D                                            00 
01010010005000000000000000000000000000000000000          REGISTERED VOTERS - TOTAL                               REGISTERED VOTERS - TOTAL             Precinct 1E                                            00 
01010010006000000000000000000000000000000000000          REGISTERED VOTERS - TOTAL                               REGISTERED VOTERS - TOTAL             Precinct 2A                                            00 
01010010007000000000000000000000000000000000000          REGISTERED VOTERS - TOTAL                               REGISTERED VOTERS - TOTAL             Precinct 2B                                            00 
01010010008000000000000000000000000000000000000          REGISTERED VOTERS - TOTAL                               REGISTERED VOTERS - TOTAL             Precinct 2C                                            00 
01010010009000000000000000000000000000000000000          REGISTERED VOTERS - TOTAL                               REGISTERED VOTERS - TOTAL             Precinct 2D                                            00 
01010010010000000000000000000000000000000000000          REGISTERED VOTERS - TOTAL                               REGISTERED VOTERS - TOTAL             Precinct 3A                                            00 
01010010011000000000000000000000000000000000000          REGISTERED VOTERS - TOTAL                               REGISTERED VOTERS - TOTAL             Precinct 3B                                            00 
01010010012000000000000000000000000000000000000          REGISTERED VOTERS - TOTAL                               REGISTERED VOTERS - TOTAL             Precinct 3C                                            00 
01010010013000000000000000000000000000000000000          REGISTERED VOTERS - TOTAL                               REGISTERED VOTERS - TOTAL             Precinct 3D                                            00 
01010010014000000000000000000000000000000000000          REGISTERED VOTERS - TOTAL                               REGISTERED VOTERS - TOTAL             Precinct 4A                                            00 
01010010015000000000000000000000000000000000000          REGISTERED VOTERS - TOTAL                               REGISTERED VOTERS - TOTAL             Precinct 4B                                            00 
01010010016000000000000000000000000000000000000          REGISTERED VOTERS - TOTAL                               REGISTERED VOTERS - TOTAL             Precinct 4C                                            00 
01010010017000000000000000000000000000000000000          REGISTERED VOTERS - TOTAL                               REGISTERED VOTERS - TOTAL             Precinct 4D                                            00 
01010010018000000000000000000000000000000000000          REGISTERED VOTERS - TOTAL                               REGISTERED VOTERS - TOTAL             Precinct 4E                                            00 
01020010001000000000000000000000000000000000000REP       REGISTERED VOTERS - REPUBLICAN PARTY                    REGISTERED VOTERS - REPUBLICAN PARTY  Precinct 1A                                            00 
01020010002000000000000000000000000000000000000REP       REGISTERED VOTERS - REPUBLICAN PARTY                    REGISTERED VOTERS - REPUBLICAN PARTY  Precinct 1B                                            00 
01020010003000000000000000000000000000000000000REP       REGISTERED VOTERS - REPUBLICAN PARTY                    REGISTERED VOTERS - REPUBLICAN PARTY  Precinct 1C                                            00 
01020010004000000000000000000000000000000000000REP       REGISTERED VOTERS - REPUBLICAN PARTY                    REGISTERED VOTERS - REPUBLICAN PARTY  Precinct 1D                                            00 
01020010005000000000000000000000000000000000000REP       REGISTERED VOTERS - REPUBLICAN PARTY                    REGISTERED VOTERS - REPUBLICAN PARTY  Precinct 1E                                            00 
01020010006000000000000000000000000000000000000REP       REGISTERED VOTERS - REPUBLICAN PARTY                    REGISTERED VOTERS - REPUBLICAN PARTY  Precinct 2A                                            00 
01020010007000000000000000000000000000000000000REP       REGISTERED VOTERS - REPUBLICAN PARTY                    REGISTERED VOTERS - REPUBLICAN PARTY  Precinct 2B                                            00 
01020010008000000000000000000000000000000000000REP       REGISTERED VOTERS - REPUBLICAN PARTY                    REGISTERED VOTERS - REPUBLICAN PARTY  Precinct 2C                                            00 
01020010009000000000000000000000000000000000000REP       REGISTERED VOTERS - REPUBLICAN PARTY                    REGISTERED VOTERS - REPUBLICAN PARTY  Precinct 2D                                            00 
01020010010000000000000000000000000000000000000REP       REGISTERED VOTERS - REPUBLICAN PARTY                    REGISTERED VOTERS - REPUBLICAN PARTY  Precinct 3A                                            00 
01020010011000000000000000000000000000000000000REP       REGISTERED VOTERS - REPUBLICAN PARTY                    REGISTERED VOTERS - REPUBLICAN PARTY  Precinct 3B                                            00 
01020010012000000000000000000000000000000000000REP       REGISTERED VOTERS - REPUBLICAN PARTY                    REGISTERED VOTERS - REPUBLICAN PARTY  Precinct 3C                                            00 
01020010013000000000000000000000000000000000000REP       REGISTERED VOTERS - REPUBLICAN PARTY                    REGISTERED VOTERS - REPUBLICAN PARTY  Precinct 3D                                            00 
01020010014000000000000000000000000000000000000REP       REGISTERED VOTERS - REPUBLICAN PARTY                    REGISTERED VOTERS - REPUBLICAN PARTY  Precinct 4A                                            00 
01020010015000000000000000000000000000000000000REP       REGISTERED VOTERS - REPUBLICAN PARTY                    REGISTERED VOTERS - REPUBLICAN PARTY  Precinct 4B                                            00 
01020010016000000000000000000000000000000000000REP       REGISTERED VOTERS - REPUBLICAN PARTY                    REGISTERED VOTERS - REPUBLICAN PARTY  Precinct 4C                                            00 
01020010017000000000000000000000000000000000000REP       REGISTERED VOTERS - REPUBLICAN PARTY                    REGISTERED VOTERS - REPUBLICAN PARTY  Precinct 4D                                            00 
01020010018000000000000000000000000000000000000REP       REGISTERED VOTERS - REPUBLICAN PARTY                    REGISTERED VOTERS - REPUBLICAN PARTY  Precinct 4E                                            00 
01030010001000000000000000000000000000000000000DEM       REGISTERED VOTERS - DEMOCRATIC PARTY                    REGISTERED VOTERS - DEMOCRATIC PARTY  Precinct 1A                                            00 
01030010002000000000000000000000000000000000000DEM       REGISTERED VOTERS - DEMOCRATIC PARTY                    REGISTERED VOTERS - DEMOCRATIC PARTY  Precinct 1B                                            00 
01030010003000000000000000000000000000000000000DEM       REGISTERED VOTERS - DEMOCRATIC PARTY                    REGISTERED VOTERS - DEMOCRATIC PARTY  Precinct 1C                                            00 
01030010004000000000000000000000000000000000000DEM       REGISTERED VOTERS - DEMOCRATIC PARTY                    REGISTERED VOTERS - DEMOCRATIC PARTY  Precinct 1D                                            00 
01030010005000000000000000000000000000000000000DEM       REGISTERED VOTERS - DEMOCRATIC PARTY                    REGISTERED VOTERS - DEMOCRATIC PARTY  Precinct 1E                                            00 
01030010006000000000000000000000000000000000000DEM       REGISTERED VOTERS - DEMOCRATIC PARTY                    REGISTERED VOTERS - DEMOCRATIC PARTY  Precinct 2A                                            00 
01030010007000000000000000000000000000000000000DEM       REGISTERED VOTERS - DEMOCRATIC PARTY                    REGISTERED VOTERS - DEMOCRATIC PARTY  Precinct 2B                                            00 
01030010008000000000000000000000000000000000000DEM       REGISTERED VOTERS - DEMOCRATIC PARTY                    REGISTERED VOTERS - DEMOCRATIC PARTY  Precinct 2C                                            00 
01030010009000000000000000000000000000000000000DEM       REGISTERED VOTERS - DEMOCRATIC PARTY                    REGISTERED VOTERS - DEMOCRATIC PARTY  Precinct 2D                                            00 
01030010010000000000000000000000000000000000000DEM       REGISTERED VOTERS - DEMOCRATIC PARTY                    REGISTERED VOTERS - DEMOCRATIC PARTY  Precinct 3A                                            00 
01030010011000000000000000000000000000000000000DEM       REGISTERED VOTERS - DEMOCRATIC PARTY                    REGISTERED VOTERS - DEMOCRATIC PARTY  Precinct 3B                                            00 
01030010012000000000000000000000000000000000000DEM       REGISTERED VOTERS - DEMOCRATIC PARTY                    REGISTERED VOTERS - DEMOCRATIC PARTY  Precinct 3C                                            00 
01030010013000000000000000000000000000000000000DEM       REGISTERED VOTERS - DEMOCRATIC PARTY                    REGISTERED VOTERS - DEMOCRATIC PARTY  Precinct 3D                                            00 
01030010014000000000000000000000000000000000000DEM       REGISTERED VOTERS - DEMOCRATIC PARTY                    REGISTERED VOTERS - DEMOCRATIC PARTY  Precinct 4A                                            00 
01030010015000000000000000000000000000000000000DEM       REGISTERED VOTERS - DEMOCRATIC PARTY                    REGISTERED VOTERS - DEMOCRATIC PARTY  Precinct 4B                                            00 
01030010016000000000000000000000000000000000000DEM       REGISTERED VOTERS - DEMOCRATIC PARTY                    REGISTERED VOTERS - DEMOCRATIC PARTY  Precinct 4C                                            00 
01030010017000000000000000000000000000000000000DEM       REGISTERED VOTERS - DEMOCRATIC PARTY                    REGISTERED VOTERS - DEMOCRATIC PARTY  Precinct 4D                                            00 
01030010018000000000000000000000000000000000000DEM       REGISTERED VOTERS - DEMOCRATIC PARTY                    REGISTERED VOTERS - DEMOCRATIC PARTY  Precinct 4E                                            00 
01040010001000388000026000199000163000000000000          BALLOTS CAST - TOTAL                                    BALLOTS CAST - TOTAL                  Precinct 1A                                            00 
01040010002000866000026000178000662000000000000          BALLOTS CAST - TOTAL                                    BALLOTS CAST - TOTAL                  Precinct 1B                                            00 
01040010003000391000008000094000000000289000000          BALLOTS CAST - TOTAL                                    BALLOTS CAST - TOTAL                  Precinct 1C                                            00 
01040010004000352000013000080000259000000000000          BALLOTS CAST - TOTAL                                    BALLOTS CAST - TOTAL                  Precinct 1D                                            00 
01040010005000187000003000046000138000000000000          BALLOTS CAST - TOTAL                                    BALLOTS CAST - TOTAL                  Precinct 1E                                            00 
01040010006000836000020000437000379000000000000          BALLOTS CAST - TOTAL                                    BALLOTS CAST - TOTAL                  Precinct 2A                                            00 
01040010007000302000018000106000178000000000000          BALLOTS CAST - TOTAL                                    BALLOTS CAST - TOTAL                  Precinct 2B                                            00 
01040010008000360000015000100000245000000000000          BALLOTS CAST - TOTAL                                    BALLOTS CAST - TOTAL                  Precinct 2C                                            00 
01040010009000383000014000180000000000000000189          BALLOTS CAST - TOTAL                                    BALLOTS CAST - TOTAL                  Precinct 2D                                            00 
01040010010000238000003000133000102000000000000          BALLOTS CAST - TOTAL                                    BALLOTS CAST - TOTAL                  Precinct 3A                                            00 
01040010011000323000015000080000228000000000000          BALLOTS CAST - TOTAL                                    BALLOTS CAST - TOTAL                  Precinct 3B                                            00 
01040010012000689000021000135000533000000000000          BALLOTS CAST - TOTAL                                    BALLOTS CAST - TOTAL                  Precinct 3C                                            00 
01040010013000613000018000219000000000000000376          BALLOTS CAST - TOTAL                                    BALLOTS CAST - TOTAL                  Precinct 3D                                            00 
01040010014000380000011000215000154000000000000          BALLOTS CAST - TOTAL                                    BALLOTS CAST - TOTAL                  Precinct 4A                                            00 
01040010015000419000016000067000336000000000000          BALLOTS CAST - TOTAL                                    BALLOTS CAST - TOTAL                  Precinct 4B                                            00 
01040010016000360000011000069000280000000000000          BALLOTS CAST - TOTAL                                    BALLOTS CAST - TOTAL                  Precinct 4C                                            00 
01040010017000813000027000170000616000000000000          BALLOTS CAST - TOTAL                                    BALLOTS CAST - TOTAL                  Precinct 4D                                            00 
01040010018000270000009000096000165000000000000          BALLOTS CAST - TOTAL                                    BALLOTS CAST - TOTAL                  Precinct 4E                                            00 
01050010001000366000025000192000149000000000000REP       BALLOTS CAST - REPUBLICAN PARTY                         BALLOTS CAST - REPUBLICAN PARTY       Precinct 1A                                            00 
01050010002000827000021000172000634000000000000REP       BALLOTS CAST - REPUBLICAN PARTY                         BALLOTS CAST - REPUBLICAN PARTY       Precinct 1B                                            00 
01050010003000385000008000090000000000287000000REP       BALLOTS CAST - REPUBLICAN PARTY                         BALLOTS CAST - REPUBLICAN PARTY       Precinct 1C                                            00 
01050010004000323000013000076000234000000000000REP       BALLOTS CAST - REPUBLICAN PARTY                         BALLOTS CAST - REPUBLICAN PARTY       Precinct 1D                                            00 
01050010005000163000003000045000115000000000000REP       BALLOTS CAST - REPUBLICAN PARTY                         BALLOTS CAST - REPUBLICAN PARTY       Precinct 1E                                            00 
01050010006000806000017000420000369000000000000REP       BALLOTS CAST - REPUBLICAN PARTY                         BALLOTS CAST - REPUBLICAN PARTY       Precinct 2A                                            00 
01050010007000282000018000105000159000000000000REP       BALLOTS CAST - REPUBLICAN PARTY                         BALLOTS CAST - REPUBLICAN PARTY       Precinct 2B                                            00 
01050010008000352000015000097000240000000000000REP       BALLOTS CAST - REPUBLICAN PARTY                         BALLOTS CAST - REPUBLICAN PARTY       Precinct 2C                                            00 
01050010009000358000014000168000000000000000176REP       BALLOTS CAST - REPUBLICAN PARTY                         BALLOTS CAST - REPUBLICAN PARTY       Precinct 2D                                            00 
01050010010000228000003000127000098000000000000REP       BALLOTS CAST - REPUBLICAN PARTY                         BALLOTS CAST - REPUBLICAN PARTY       Precinct 3A                                            00 
01050010011000260000014000073000173000000000000REP       BALLOTS CAST - REPUBLICAN PARTY                         BALLOTS CAST - REPUBLICAN PARTY       Precinct 3B                                            00 
01050010012000637000021000130000486000000000000REP       BALLOTS CAST - REPUBLICAN PARTY                         BALLOTS CAST - REPUBLICAN PARTY       Precinct 3C                                            00 
01050010013000567000015000207000000000000000345REP       BALLOTS CAST - REPUBLICAN PARTY                         BALLOTS CAST - REPUBLICAN PARTY       Precinct 3D                                            00 
01050010014000365000011000209000145000000000000REP       BALLOTS CAST - REPUBLICAN PARTY                         BALLOTS CAST - REPUBLICAN PARTY       Precinct 4A                                            00 
01050010015000404000016000065000323000000000000REP       BALLOTS CAST - REPUBLICAN PARTY                         BALLOTS CAST - REPUBLICAN PARTY       Precinct 4B                                            00 
01050010016000337000011000063000263000000000000REP       BALLOTS CAST - REPUBLICAN PARTY                         BALLOTS CAST - REPUBLICAN PARTY       Precinct 4C                                            00 
01050010017000751000026000167000558000000000000REP       BALLOTS CAST - REPUBLICAN PARTY                         BALLOTS CAST - REPUBLICAN PARTY       Precinct 4D                                            00 
01050010018000256000009000092000155000000000000REP       BALLOTS CAST - REPUBLICAN PARTY                         BALLOTS CAST - REPUBLICAN PARTY       Precinct 4E                                            00 
01060010001000022000001000007000014000000000000DEM       BALLOTS CAST - DEMOCRATIC PARTY                         BALLOTS CAST - DEMOCRATIC PARTY       Precinct 1A                                            00 
01060010002000039000005000006000028000000000000DEM       BALLOTS CAST - DEMOCRATIC PARTY                         BALLOTS CAST - DEMOCRATIC PARTY       Precinct 1B                                            00 
01060010003000006000000000004000000000002000000DEM       BALLOTS CAST - DEMOCRATIC PARTY                         BALLOTS CAST - DEMOCRATIC PARTY       Precinct 1C                                            00 
01060010004000029000000000004000025000000000000DEM       BALLOTS CAST - DEMOCRATIC PARTY                         BALLOTS CAST - DEMOCRATIC PARTY       Precinct 1D                                            00 
01060010005000024000000000001000023000000000000DEM       BALLOTS CAST - DEMOCRATIC PARTY                         BALLOTS CAST - DEMOCRATIC PARTY       Precinct 1E                                            00 
01060010006000030000003000017000010000000000000DEM       BALLOTS CAST - DEMOCRATIC PARTY                         BALLOTS CAST - DEMOCRATIC PARTY       Precinct 2A                                            00 
01060010007000020000000000001000019000000000000DEM       BALLOTS CAST - DEMOCRATIC PARTY                         BALLOTS CAST - DEMOCRATIC PARTY       Precinct 2B                                            00 
01060010008000008000000000003000005000000000000DEM       BALLOTS CAST - DEMOCRATIC PARTY                         BALLOTS CAST - DEMOCRATIC PARTY       Precinct 2C                                            00 
01060010009000025000000000012000000000000000013DEM       BALLOTS CAST - DEMOCRATIC PARTY                         BALLOTS CAST - DEMOCRATIC PARTY       Precinct 2D                                            00 
01060010010000010000000000006000004000000000000DEM       BALLOTS CAST - DEMOCRATIC PARTY                         BALLOTS CAST - DEMOCRATIC PARTY       Precinct 3A                                            00 
01060010011000063000001000007000055000000000000DEM       BALLOTS CAST - DEMOCRATIC PARTY                         BALLOTS CAST - DEMOCRATIC PARTY       Precinct 3B                                            00 
01060010012000052000000000005000047000000000000DEM       BALLOTS CAST - DEMOCRATIC PARTY                         BALLOTS CAST - DEMOCRATIC PARTY       Precinct 3C                                            00 
01060010013000046000003000012000000000000000031DEM       BALLOTS CAST - DEMOCRATIC PARTY                         BALLOTS CAST - DEMOCRATIC PARTY       Precinct 3D                                            00 
01060010014000015000000000006000009000000000000DEM       BALLOTS CAST - DEMOCRATIC PARTY                         BALLOTS CAST - DEMOCRATIC PARTY       Precinct 4A                                            00 
01060010015000015000000000002000013000000000000DEM       BALLOTS CAST - DEMOCRATIC PARTY                         BALLOTS CAST - DEMOCRATIC PARTY       Precinct 4B                                            00 
01060010016000023000000000006000017000000000000DEM       BALLOTS CAST - DEMOCRATIC PARTY                         BALLOTS CAST - DEMOCRATIC PARTY       Precinct 4C                                            00 
01060010017000062000001000003000058000000000000DEM       BALLOTS CAST - DEMOCRATIC PARTY                         BALLOTS CAST - DEMOCRATIC PARTY       Precinct 4D                                            00 
01060010018000014000000000004000010000000000000DEM       BALLOTS CAST - DEMOCRATIC PARTY                         BALLOTS CAST - DEMOCRATIC PARTY       Precinct 4E                                            00 
01070010001000003000000000003000000000000000000REP       President                                               Jon Huntsman                          Precinct 1A                                            01 
01070010002000005000000000001000004000000000000REP       President                                               Jon Huntsman                          Precinct 1B                                            01 
01070010003000001000001000000000000000000000000REP       President                                               Jon Huntsman                          Precinct 1C                                            01 
01070010004000001000000000000000001000000000000REP       President                                               Jon Huntsman                          Precinct 1D                                            01 
01070010005000001000000000000000001000000000000REP       President                                               Jon Huntsman                          Precinct 1E                                            01 
01070010006000003000000000003000000000000000000REP       President                                               Jon Huntsman                          Precinct 2A                                            01 
01070010007000002000000000002000000000000000000REP       President                                               Jon Huntsman                          Precinct 2B                                            01 
01070010008000003000000000001000002000000000000REP       President                                               Jon Huntsman                          Precinct 2C                                            01 
01070010009000001000000000000000000000000000001REP       President                                               Jon Huntsman                          Precinct 2D                                            01 
01070010010000000000000000000000000000000000000REP       President                                               Jon Huntsman                          Precinct 3A                                            01 
01070010011000000000000000000000000000000000000REP       President                                               Jon Huntsman                          Precinct 3B                                            01 
01070010012000002000000000001000001000000000000REP       President                                               Jon Huntsman                          Precinct 3C                                            01 
01070010013000004000000000001000000000000000003REP       President                                               Jon Huntsman                          Precinct 3D                                            01 
01070010014000001000000000000000001000000000000REP       President                                               Jon Huntsman                          Precinct 4A                                            01 
01070010015000001000000000000000001000000000000REP       President                                               Jon Huntsman                          Precinct 4B                                            01 
01070010016000001000000000001000000000000000000REP       President                                               Jon Huntsman                          Precinct 4C                                            01 
01070010017000001000000000000000001000000000000REP       President                                               Jon Huntsman                          Precinct 4D                                            01 
01070010018000000000000000000000000000000000000REP       President                                               Jon Huntsman                          Precinct 4E                                            01 
01070020001000032000000000017000015000000000000REP       President                                               Ron Paul                              Precinct 1A                                            01 
01070020002000134000004000025000105000000000000REP       President                                               Ron Paul                              Precinct 1B                                            01 
01070020003000055000000000012000000000043000000REP       President                                               Ron Paul                              Precinct 1C                                            01 
01070020004000051000001000008000042000000000000REP       President                                               Ron Paul                              Precinct 1D                                            01 
01070020005000014000000000004000010000000000000REP       President                                               Ron Paul                              Precinct 1E                                            01 
01070020006000086000000000043000043000000000000REP       President                                               Ron Paul                              Precinct 2A                                            01 
01070020007000028000001000008000019000000000000REP       President                                               Ron Paul                              Precinct 2B                                            01 
01070020008000036000001000011000024000000000000REP       President                                               Ron Paul                              Precinct 2C                                            01 
01070020009000035000002000016000000000000000017REP       President                                               Ron Paul                              Precinct 2D                                            01 
01070020010000025000000000010000015000000000000REP       President                                               Ron Paul                              Precinct 3A                                            01 
01070020011000026000000000005000021000000000000REP       President                                               Ron Paul                              Precinct 3B                                            01 
01070020012000080000002000011000067000000000000REP       President                                               Ron Paul                              Precinct 3C                                            01 
01070020013000068000000000017000000000000000051REP       President                                               Ron Paul                              Precinct 3D                                            01 
01070020014000029000000000014000015000000000000REP       President                                               Ron Paul                              Precinct 4A                                            01 
01070020015000059000002000013000044000000000000REP       President                                               Ron Paul                              Precinct 4B                                            01 
01070020016000043000000000009000034000000000000REP       President                                               Ron Paul                              Precinct 4C                                            01 
01070020017000082000000000011000071000000000000REP       President                                               Ron Paul                              Precinct 4D                                            01 
01070020018000026000000000005000021000000000000REP       President                                               Ron Paul                              Precinct 4E                                            01 
01070030001000002000000000001000001000000000000REP       President                                               Charles "Buddy" Roemer                Precinct 1A                                            01 
01070030002000003000000000000000003000000000000REP       President                                               Charles "Buddy" Roemer                Precinct 1B                                            01 
01070030003000002000000000000000000000002000000REP       President                                               Charles "Buddy" Roemer                Precinct 1C                                            01 
01070030004000000000000000000000000000000000000REP       President                                               Charles "Buddy" Roemer                Precinct 1D                                            01 
01070030005000000000000000000000000000000000000REP       President                                               Charles "Buddy" Roemer                Precinct 1E                                            01 
01070030006000003000000000000000003000000000000REP       President                                               Charles "Buddy" Roemer                Precinct 2A                                            01 
01070030007000002000000000001000001000000000000REP       President                                               Charles "Buddy" Roemer                Precinct 2B                                            01 
01070030008000000000000000000000000000000000000REP       President                                               Charles "Buddy" Roemer                Precinct 2C                                            01 
01070030009000000000000000000000000000000000000REP       President                                               Charles "Buddy" Roemer                Precinct 2D                                            01 
01070030010000001000000000001000000000000000000REP       President                                               Charles "Buddy" Roemer                Precinct 3A                                            01 
01070030011000000000000000000000000000000000000REP       President                                               Charles "Buddy" Roemer                Precinct 3B                                            01 
01070030012000001000000000000000001000000000000REP       President                                               Charles "Buddy" Roemer                Precinct 3C                                            01 
01070030013000001000000000000000000000000000001REP       President                                               Charles "Buddy" Roemer                Precinct 3D                                            01 
01070030014000000000000000000000000000000000000REP       President                                               Charles "Buddy" Roemer                Precinct 4A                                            01 
01070030015000003000000000000000003000000000000REP       President                                               Charles "Buddy" Roemer                Precinct 4B                                            01 
01070030016000002000000000001000001000000000000REP       President                                               Charles "Buddy" Roemer                Precinct 4C                                            01 
01070030017000004000001000001000002000000000000REP       President                                               Charles "Buddy" Roemer                Precinct 4D                                            01 
01070030018000000000000000000000000000000000000REP       President                                               Charles "Buddy" Roemer                Precinct 4E                                            01 
01070040001000240000021000124000095000000000000REP       President                                               Mitt Romney                           Precinct 1A                                            01 
01070040002000478000017000104000357000000000000REP       President                                               Mitt Romney                           Precinct 1B                                            01 
01070040003000242000004000056000000000182000000REP       President                                               Mitt Romney                           Precinct 1C                                            01 
01070040004000193000008000049000136000000000000REP       President                                               Mitt Romney                           Precinct 1D                                            01 
01070040005000114000003000033000078000000000000REP       President                                               Mitt Romney                           Precinct 1E                                            01 
01070040006000536000017000293000226000000000000REP       President                                               Mitt Romney                           Precinct 2A                                            01 
01070040007000175000012000067000096000000000000REP       President                                               Mitt Romney                           Precinct 2B                                            01 
01070040008000250000012000071000167000000000000REP       President                                               Mitt Romney                           Precinct 2C                                            01 
01070040009000240000010000108000000000000000122REP       President                                               Mitt Romney                           Precinct 2D                                            01 
01070040010000153000002000088000063000000000000REP       President                                               Mitt Romney                           Precinct 3A                                            01 
01070040011000175000010000050000115000000000000REP       President                                               Mitt Romney                           Precinct 3B                                            01 
01070040012000423000013000093000317000000000000REP       President                                               Mitt Romney                           Precinct 3C                                            01 
01070040013000374000010000151000000000000000213REP       President                                               Mitt Romney                           Precinct 3D                                            01 
01070040014000262000009000151000102000000000000REP       President                                               Mitt Romney                           Precinct 4A                                            01 
01070040015000255000010000046000199000000000000REP       President                                               Mitt Romney                           Precinct 4B                                            01 
01070040016000232000009000042000181000000000000REP       President                                               Mitt Romney                           Precinct 4C                                            01 
01070040017000519000020000131000368000000000000REP       President                                               Mitt Romney                           Precinct 4D                                            01 
01070040018000173000007000068000098000000000000REP       President                                               Mitt Romney                           Precinct 4E                                            01 
01070050001000039000002000023000014000000000000REP       President                                               Rick Santorum                         Precinct 1A                                            01 
01070050002000062000000000018000044000000000000REP       President                                               Rick Santorum                         Precinct 1B                                            01 
01070050003000045000001000011000000000033000000REP       President                                               Rick Santorum                         Precinct 1C                                            01 
01070050004000031000002000008000021000000000000REP       President                                               Rick Santorum                         Precinct 1D                                            01 
01070050005000011000000000004000007000000000000REP       President                                               Rick Santorum                         Precinct 1E                                            01 
01070050006000044000000000019000025000000000000REP       President                                               Rick Santorum                         Precinct 2A                                            01 
01070050007000037000003000015000019000000000000REP       President                                               Rick Santorum                         Precinct 2B                                            01 
01070050008000036000000000010000026000000000000REP       President                                               Rick Santorum                         Precinct 2C                                            01 
01070050009000031000002000019000000000000000010REP       President                                               Rick Santorum                         Precinct 2D                                            01 
01070050010000020000000000012000008000000000000REP       President                                               Rick Santorum                         Precinct 3A                                            01 
01070050011000012000000000006000006000000000000REP       President                                               Rick Santorum                         Precinct 3B                                            01 
01070050012000049000000000012000037000000000000REP       President                                               Rick Santorum                         Precinct 3C                                            01 
01070050013000053000002000018000000000000000033REP       President                                               Rick Santorum                         Precinct 3D                                            01 
01070050014000026000000000015000011000000000000REP       President                                               Rick Santorum                         Precinct 4A                                            01 
01070050015000048000003000004000041000000000000REP       President                                               Rick Santorum                         Precinct 4B                                            01 
01070050016000027000000000005000022000000000000REP       President                                               Rick Santorum                         Precinct 4C                                            01 
01070050017000053000001000010000042000000000000REP       President                                               Rick Santorum                         Precinct 4D                                            01 
01070050018000030000002000010000018000000000000REP       President                                               Rick Santorum                         Precinct 4E                                            01 
01070060001000001000000000000000001000000000000REP       President                                               John Davis                            Precinct 1A                                            01 
01070060002000010000000000000000010000000000000REP       President                                               John Davis                            Precinct 1B                                            01 
01070060003000001000000000000000000000001000000REP       President                                               John Davis                            Precinct 1C                                            01 
01070060004000002000000000000000002000000000000REP       President                                               John Davis                            Precinct 1D                                            01 
01070060005000002000000000000000002000000000000REP       President                                               John Davis                            Precinct 1E                                            01 
01070060006000002000000000001000001000000000000REP       President                                               John Davis                            Precinct 2A                                            01 
01070060007000001000000000001000000000000000000REP       President                                               John Davis                            Precinct 2B                                            01 
01070060008000000000000000000000000000000000000REP       President                                               John Davis                            Precinct 2C                                            01 
01070060009000001000000000001000000000000000000REP       President                                               John Davis                            Precinct 2D                                            01 
01070060010000000000000000000000000000000000000REP       President                                               John Davis                            Precinct 3A                                            01 
01070060011000001000000000000000001000000000000REP       President                                               John Davis                            Precinct 3B                                            01 
01070060012000001000000000000000001000000000000REP       President                                               John Davis                            Precinct 3C                                            01 
01070060013000000000000000000000000000000000000REP       President                                               John Davis                            Precinct 3D                                            01 
01070060014000000000000000000000000000000000000REP       President                                               John Davis                            Precinct 4A                                            01 
01070060015000000000000000000000000000000000000REP       President                                               John Davis                            Precinct 4B                                            01 
01070060016000000000000000000000000000000000000REP       President                                               John Davis                            Precinct 4C                                            01 
01070060017000003000000000000000003000000000000REP       President                                               John Davis                            Precinct 4D                                            01 
01070060018000001000000000000000001000000000000REP       President                                               John Davis                            Precinct 4E                                            01 
01070070001000016000002000007000007000000000000REP       President                                               Newt Gingrich                         Precinct 1A                                            01 
01070070002000035000000000010000025000000000000REP       President                                               Newt Gingrich                         Precinct 1B                                            01 
01070070003000011000001000005000000000005000000REP       President                                               Newt Gingrich                         Precinct 1C                                            01 
01070070004000012000000000001000011000000000000REP       President                                               Newt Gingrich                         Precinct 1D                                            01 
01070070005000004000000000001000003000000000000REP       President                                               Newt Gingrich                         Precinct 1E                                            01 
01070070006000046000000000026000020000000000000REP       President                                               Newt Gingrich                         Precinct 2A                                            01 
01070070007000017000003000006000008000000000000REP       President                                               Newt Gingrich                         Precinct 2B                                            01 
01070070008000011000002000001000008000000000000REP       President                                               Newt Gingrich                         Precinct 2C                                            01 
01070070009000019000000000010000000000000000009REP       President                                               Newt Gingrich                         Precinct 2D                                            01 
01070070010000011000000000007000004000000000000REP       President                                               Newt Gingrich                         Precinct 3A                                            01 
01070070011000011000004000002000005000000000000REP       President                                               Newt Gingrich                         Precinct 3B                                            01 
01070070012000020000005000002000013000000000000REP       President                                               Newt Gingrich                         Precinct 3C                                            01 
01070070013000018000002000005000000000000000011REP       President                                               Newt Gingrich                         Precinct 3D                                            01 
01070070014000027000002000019000006000000000000REP       President                                               Newt Gingrich                         Precinct 4A                                            01 
01070070015000018000000000002000016000000000000REP       President                                               Newt Gingrich                         Precinct 4B                                            01 
01070070016000011000000000001000010000000000000REP       President                                               Newt Gingrich                         Precinct 4C                                            01 
01070070017000030000003000004000023000000000000REP       President                                               Newt Gingrich                         Precinct 4D                                            01 
01070070018000004000000000002000002000000000000REP       President                                               Newt Gingrich                         Precinct 4E                                            01 
01070080001000001000000000000000001000000000000REP       President                                               Michele Bachmann                      Precinct 1A                                            01 
01070080002000007000000000002000005000000000000REP       President                                               Michele Bachmann                      Precinct 1B                                            01 
01070080003000003000001000000000000000002000000REP       President                                               Michele Bachmann                      Precinct 1C                                            01 
01070080004000001000000000001000000000000000000REP       President                                               Michele Bachmann                      Precinct 1D                                            01 
01070080005000000000000000000000000000000000000REP       President                                               Michele Bachmann                      Precinct 1E                                            01 
01070080006000006000000000003000003000000000000REP       President                                               Michele Bachmann                      Precinct 2A                                            01 
01070080007000001000000000000000001000000000000REP       President                                               Michele Bachmann                      Precinct 2B                                            01 
01070080008000002000000000000000002000000000000REP       President                                               Michele Bachmann                      Precinct 2C                                            01 
01070080009000004000000000004000000000000000000REP       President                                               Michele Bachmann                      Precinct 2D                                            01 
01070080010000002000000000002000000000000000000REP       President                                               Michele Bachmann                      Precinct 3A                                            01 
01070080011000002000000000000000002000000000000REP       President                                               Michele Bachmann                      Precinct 3B                                            01 
01070080012000002000001000000000001000000000000REP       President                                               Michele Bachmann                      Precinct 3C                                            01 
01070080013000005000000000001000000000000000004REP       President                                               Michele Bachmann                      Precinct 3D                                            01 
01070080014000002000000000001000001000000000000REP       President                                               Michele Bachmann                      Precinct 4A                                            01 
01070080015000002000000000000000002000000000000REP       President                                               Michele Bachmann                      Precinct 4B                                            01 
01070080016000001000000000001000000000000000000REP       President                                               Michele Bachmann                      Precinct 4C                                            01 
01070080017000006000000000002000004000000000000REP       President                                               Michele Bachmann                      Precinct 4D                                            01 
01070080018000003000000000001000002000000000000REP       President                                               Michele Bachmann                      Precinct 4E                                            01 
01070090001000017000000000008000009000000000000REP       President                                               Uncommitted                           Precinct 1A                                            01 
01070090002000039000002000005000032000000000000REP       President                                               Uncommitted                           Precinct 1B                                            01 
01070090003000011000000000004000000000007000000REP       President                                               Uncommitted                           Precinct 1C                                            01 
01070090004000018000001000006000011000000000000REP       President                                               Uncommitted                           Precinct 1D                                            01 
01070090005000008000000000002000006000000000000REP       President                                               Uncommitted                           Precinct 1E                                            01 
01070090006000037000000000016000021000000000000REP       President                                               Uncommitted                           Precinct 2A                                            01 
01070090007000012000001000002000009000000000000REP       President                                               Uncommitted                           Precinct 2B                                            01 
01070090008000008000000000002000006000000000000REP       President                                               Uncommitted                           Precinct 2C                                            01 
01070090009000013000000000007000000000000000006REP       President                                               Uncommitted                           Precinct 2D                                            01 
01070090010000005000001000001000003000000000000REP       President                                               Uncommitted                           Precinct 3A                                            01 
01070090011000014000000000004000010000000000000REP       President                                               Uncommitted                           Precinct 3B                                            01 
01070090012000034000001000006000027000000000000REP       President                                               Uncommitted                           Precinct 3C                                            01 
01070090013000022000001000008000000000000000013REP       President                                               Uncommitted                           Precinct 3D                                            01 
01070090014000008000000000005000003000000000000REP       President                                               Uncommitted                           Precinct 4A                                            01 
01070090015000011000000000000000011000000000000REP       President                                               Uncommitted                           Precinct 4B                                            01 
01070090016000012000002000003000007000000000000REP       President                                               Uncommitted                           Precinct 4C                                            01 
01070090017000028000000000004000024000000000000REP       President                                               Uncommitted                           Precinct 4D                                            01 
01070090018000011000000000004000007000000000000REP       President                                               Uncommitted                           Precinct 4E                                            01 
01070100001000000000000000000000000000000000000REP       President                                               OVER VOTES                            Precinct 1A                                            01 
01070100002000001000000000000000001000000000000REP       President                                               OVER VOTES                            Precinct 1B                                            01 
01070100003000000000000000000000000000000000000REP       President                                               OVER VOTES                            Precinct 1C                                            01 
01070100004000000000000000000000000000000000000REP       President                                               OVER VOTES                            Precinct 1D                                            01 
01070100005000000000000000000000000000000000000REP       President                                               OVER VOTES                            Precinct 1E                                            01 
01070100006000001000000000001000000000000000000REP       President                                               OVER VOTES                            Precinct 2A                                            01 
01070100007000000000000000000000000000000000000REP       President                                               OVER VOTES                            Precinct 2B                                            01 
01070100008000000000000000000000000000000000000REP       President                                               OVER VOTES                            Precinct 2C                                            01 
01070100009000000000000000000000000000000000000REP       President                                               OVER VOTES                            Precinct 2D                                            01 
01070100010000001000000000001000000000000000000REP       President                                               OVER VOTES                            Precinct 3A                                            01 
01070100011000000000000000000000000000000000000REP       President                                               OVER VOTES                            Precinct 3B                                            01 
01070100012000000000000000000000000000000000000REP       President                                               OVER VOTES                            Precinct 3C                                            01 
01070100013000001000000000000000000000000000001REP       President                                               OVER VOTES                            Precinct 3D                                            01 
01070100014000000000000000000000000000000000000REP       President                                               OVER VOTES                            Precinct 4A                                            01 
01070100015000000000000000000000000000000000000REP       President                                               OVER VOTES                            Precinct 4B                                            01 
01070100016000000000000000000000000000000000000REP       President                                               OVER VOTES                            Precinct 4C                                            01 
01070100017000000000000000000000000000000000000REP       President                                               OVER VOTES                            Precinct 4D                                            01 
01070100018000000000000000000000000000000000000REP       President                                               OVER VOTES                            Precinct 4E                                            01 
01070110001000015000000000009000006000000000000REP       President                                               UNDER VOTES                           Precinct 1A                                            01 
01070110002000057000000000007000050000000000000REP       President                                               UNDER VOTES                           Precinct 1B                                            01 
01070110003000014000000000002000000000012000000REP       President                                               UNDER VOTES                           Precinct 1C                                            01 
01070110004000015000001000003000011000000000000REP       President                                               UNDER VOTES                           Precinct 1D                                            01 
01070110005000009000000000001000008000000000000REP       President                                               UNDER VOTES                           Precinct 1E                                            01 
01070110006000042000000000015000027000000000000REP       President                                               UNDER VOTES                           Precinct 2A                                            01 
01070110007000009000000000003000006000000000000REP       President                                               UNDER VOTES                           Precinct 2B                                            01 
01070110008000006000000000001000005000000000000REP       President                                               UNDER VOTES                           Precinct 2C                                            01 
01070110009000014000000000003000000000000000011REP       President                                               UNDER VOTES                           Precinct 2D                                            01 
01070110010000010000000000005000005000000000000REP       President                                               UNDER VOTES                           Precinct 3A                                            01 
01070110011000019000000000006000013000000000000REP       President                                               UNDER VOTES                           Precinct 3B                                            01 
01070110012000026000000000005000021000000000000REP       President                                               UNDER VOTES                           Precinct 3C                                            01 
01070110013000021000000000006000000000000000015REP       President                                               UNDER VOTES                           Precinct 3D                                            01 
01070110014000010000000000004000006000000000000REP       President                                               UNDER VOTES                           Precinct 4A                                            01 
01070110015000007000001000000000006000000000000REP       President                                               UNDER VOTES                           Precinct 4B                                            01 
01070110016000008000000000000000008000000000000REP       President                                               UNDER VOTES                           Precinct 4C                                            01 
01070110017000026000001000004000021000000000000REP       President                                               UNDER VOTES                           Precinct 4D                                            01 
01070110018000008000000000002000006000000000000REP       President                                               UNDER VOTES                           Precinct 4E                                            01 
01080010001000000000000000000000000000000000000REP       United States Senator                                   Ben Gambini                           Precinct 1A                                            01 
01080010002000005000000000000000005000000000000REP       United States Senator                                   Ben Gambini                           Precinct 1B                                            01 
01080010003000002000000000002000000000000000000REP       United States Senator                                   Ben Gambini                           Precinct 1C                                            01 
01080010004000003000000000000000003000000000000REP       United States Senator                                   Ben Gambini                           Precinct 1D                                            01 
01080010005000000000000000000000000000000000000REP       United States Senator                                   Ben Gambini                           Precinct 1E                                            01 
01080010006000003000000000000000003000000000000REP       United States Senator                                   Ben Gambini                           Precinct 2A                                            01 
01080010007000000000000000000000000000000000000REP       United States Senator                                   Ben Gambini                           Precinct 2B                                            01 
01080010008000004000000000001000003000000000000REP       United States Senator                                   Ben Gambini                           Precinct 2C                                            01 
01080010009000000000000000000000000000000000000REP       United States Senator                                   Ben Gambini                           Precinct 2D                                            01 
01080010010000001000000000001000000000000000000REP       United States Senator                                   Ben Gambini                           Precinct 3A                                            01 
01080010011000002000000000000000002000000000000REP       United States Senator                                   Ben Gambini                           Precinct 3B                                            01 
01080010012000003000001000001000001000000000000REP       United States Senator                                   Ben Gambini                           Precinct 3C                                            01 
01080010013000002000000000002000000000000000000REP       United States Senator                                   Ben Gambini                           Precinct 3D                                            01 
01080010014000001000000000000000001000000000000REP       United States Senator                                   Ben Gambini                           Precinct 4A                                            01 
01080010015000002000000000000000002000000000000REP       United States Senator                                   Ben Gambini                           Precinct 4B                                            01 
01080010016000000000000000000000000000000000000REP       United States Senator                                   Ben Gambini                           Precinct 4C                                            01 
01080010017000004000001000000000003000000000000REP       United States Senator                                   Ben Gambini                           Precinct 4D                                            01 
01080010018000002000000000001000001000000000000REP       United States Senator                                   Ben Gambini                           Precinct 4E                                            01 
01080020001000022000003000010000009000000000000REP       United States Senator                                   Craig James                           Precinct 1A                                            01 
01080020002000059000001000005000053000000000000REP       United States Senator                                   Craig James                           Precinct 1B                                            01 
01080020003000013000000000003000000000010000000REP       United States Senator                                   Craig James                           Precinct 1C                                            01 
01080020004000020000000000003000017000000000000REP       United States Senator                                   Craig James                           Precinct 1D                                            01 
01080020005000005000000000002000003000000000000REP       United States Senator                                   Craig James                           Precinct 1E                                            01 
01080020006000037000001000025000011000000000000REP       United States Senator                                   Craig James                           Precinct 2A                                            01 
01080020007000019000001000008000010000000000000REP       United States Senator                                   Craig James                           Precinct 2B                                            01 
01080020008000018000000000005000013000000000000REP       United States Senator                                   Craig James                           Precinct 2C                                            01 
01080020009000017000003000009000000000000000005REP       United States Senator                                   Craig James                           Precinct 2D                                            01 
01080020010000012000000000012000000000000000000REP       United States Senator                                   Craig James                           Precinct 3A                                            01 
01080020011000015000000000001000014000000000000REP       United States Senator                                   Craig James                           Precinct 3B                                            01 
01080020012000028000000000002000026000000000000REP       United States Senator                                   Craig James                           Precinct 3C                                            01 
01080020013000043000004000012000000000000000027REP       United States Senator                                   Craig James                           Precinct 3D                                            01 
01080020014000016000001000011000004000000000000REP       United States Senator                                   Craig James                           Precinct 4A                                            01 
01080020015000018000000000006000012000000000000REP       United States Senator                                   Craig James                           Precinct 4B                                            01 
01080020016000014000000000006000008000000000000REP       United States Senator                                   Craig James                           Precinct 4C                                            01 
01080020017000027000000000004000023000000000000REP       United States Senator                                   Craig James                           Precinct 4D                                            01 
01080020018000009000000000004000005000000000000REP       United States Senator                                   Craig James                           Precinct 4E                                            01 
01080030001000091000005000055000031000000000000REP       United States Senator                                   Ted Cruz                              Precinct 1A                                            01 
01080030002000162000002000027000133000000000000REP       United States Senator                                   Ted Cruz                              Precinct 1B                                            01 
01080030003000099000000000024000000000075000000REP       United States Senator                                   Ted Cruz                              Precinct 1C                                            01 
01080030004000091000001000032000058000000000000REP       United States Senator                                   Ted Cruz                              Precinct 1D                                            01 
01080030005000047000002000015000030000000000000REP       United States Senator                                   Ted Cruz                              Precinct 1E                                            01 
01080030006000185000000000090000095000000000000REP       United States Senator                                   Ted Cruz                              Precinct 2A                                            01 
01080030007000072000003000022000047000000000000REP       United States Senator                                   Ted Cruz                              Precinct 2B                                            01 
01080030008000088000001000016000071000000000000REP       United States Senator                                   Ted Cruz                              Precinct 2C                                            01 
01080030009000096000002000040000000000000000054REP       United States Senator                                   Ted Cruz                              Precinct 2D                                            01 
01080030010000060000000000030000030000000000000REP       United States Senator                                   Ted Cruz                              Precinct 3A                                            01 
01080030011000061000005000012000044000000000000REP       United States Senator                                   Ted Cruz                              Precinct 3B                                            01 
01080030012000117000000000032000085000000000000REP       United States Senator                                   Ted Cruz                              Precinct 3C                                            01 
01080030013000125000000000038000000000000000087REP       United States Senator                                   Ted Cruz                              Precinct 3D                                            01 
01080030014000106000003000055000048000000000000REP       United States Senator                                   Ted Cruz                              Precinct 4A                                            01 
01080030015000116000004000015000097000000000000REP       United States Senator                                   Ted Cruz                              Precinct 4B                                            01 
01080030016000095000004000015000076000000000000REP       United States Senator                                   Ted Cruz                              Precinct 4C                                            01 
01080030017000230000001000043000186000000000000REP       United States Senator                                   Ted Cruz                              Precinct 4D                                            01 
01080030018000069000000000023000046000000000000REP       United States Senator                                   Ted Cruz                              Precinct 4E                                            01 
01080040001000076000006000038000032000000000000REP       United States Senator                                   Tom Leppert                           Precinct 1A                                            01 
01080040002000157000003000051000103000000000000REP       United States Senator                                   Tom Leppert                           Precinct 1B                                            01 
01080040003000072000001000024000000000047000000REP       United States Senator                                   Tom Leppert                           Precinct 1C                                            01 
01080040004000047000001000007000039000000000000REP       United States Senator                                   Tom Leppert                           Precinct 1D                                            01 
01080040005000030000000000010000020000000000000REP       United States Senator                                   Tom Leppert                           Precinct 1E                                            01 
01080040006000166000004000078000084000000000000REP       United States Senator                                   Tom Leppert                           Precinct 2A                                            01 
01080040007000066000009000023000034000000000000REP       United States Senator                                   Tom Leppert                           Precinct 2B                                            01 
01080040008000069000003000023000043000000000000REP       United States Senator                                   Tom Leppert                           Precinct 2C                                            01 
01080040009000077000004000040000000000000000033REP       United States Senator                                   Tom Leppert                           Precinct 2D                                            01 
01080040010000056000000000030000026000000000000REP       United States Senator                                   Tom Leppert                           Precinct 3A                                            01 
01080040011000069000002000028000039000000000000REP       United States Senator                                   Tom Leppert                           Precinct 3B                                            01 
01080040012000166000000000033000133000000000000REP       United States Senator                                   Tom Leppert                           Precinct 3C                                            01 
01080040013000120000004000043000000000000000073REP       United States Senator                                   Tom Leppert                           Precinct 3D                                            01 
01080040014000066000003000039000024000000000000REP       United States Senator                                   Tom Leppert                           Precinct 4A                                            01 
01080040015000056000002000005000049000000000000REP       United States Senator                                   Tom Leppert                           Precinct 4B                                            01 
01080040016000055000000000015000040000000000000REP       United States Senator                                   Tom Leppert                           Precinct 4C                                            01 
01080040017000096000004000025000067000000000000REP       United States Senator                                   Tom Leppert                           Precinct 4D                                            01 
01080040018000040000000000018000022000000000000REP       United States Senator                                   Tom Leppert                           Precinct 4E                                            01 
01080050001000145000010000072000063000000000000REP       United States Senator                                   David Dewhurst                        Precinct 1A                                            01 
01080050002000336000015000067000254000000000000REP       United States Senator                                   David Dewhurst                        Precinct 1B                                            01 
01080050003000162000007000033000000000122000000REP       United States Senator                                   David Dewhurst                        Precinct 1C                                            01 
01080050004000137000008000032000097000000000000REP       United States Senator                                   David Dewhurst                        Precinct 1D                                            01 
01080050005000066000001000016000049000000000000REP       United States Senator                                   David Dewhurst                        Precinct 1E                                            01 
01080050006000348000010000200000138000000000000REP       United States Senator                                   David Dewhurst                        Precinct 2A                                            01 
01080050007000102000004000048000050000000000000REP       United States Senator                                   David Dewhurst                        Precinct 2B                                            01 
01080050008000151000010000045000096000000000000REP       United States Senator                                   David Dewhurst                        Precinct 2C                                            01 
01080050009000138000004000066000000000000000068REP       United States Senator                                   David Dewhurst                        Precinct 2D                                            01 
01080050010000079000003000040000036000000000000REP       United States Senator                                   David Dewhurst                        Precinct 3A                                            01 
01080050011000091000004000027000060000000000000REP       United States Senator                                   David Dewhurst                        Precinct 3B                                            01 
01080050012000274000019000056000199000000000000REP       United States Senator                                   David Dewhurst                        Precinct 3C                                            01 
01080050013000236000006000096000000000000000134REP       United States Senator                                   David Dewhurst                        Precinct 3D                                            01 
01080050014000151000003000089000059000000000000REP       United States Senator                                   David Dewhurst                        Precinct 4A                                            01 
01080050015000174000008000037000129000000000000REP       United States Senator                                   David Dewhurst                        Precinct 4B                                            01 
01080050016000154000007000025000122000000000000REP       United States Senator                                   David Dewhurst                        Precinct 4C                                            01 
01080050017000343000019000080000244000000000000REP       United States Senator                                   David Dewhurst                        Precinct 4D                                            01 
01080050018000113000007000042000064000000000000REP       United States Senator                                   David Dewhurst                        Precinct 4E                                            01 
01080060001000003000000000002000001000000000000REP       United States Senator                                   Curt Cleaver                          Precinct 1A                                            01 
01080060002000003000000000000000003000000000000REP       United States Senator                                   Curt Cleaver                          Precinct 1B                                            01 
01080060003000000000000000000000000000000000000REP       United States Senator                                   Curt Cleaver                          Precinct 1C                                            01 
01080060004000000000000000000000000000000000000REP       United States Senator                                   Curt Cleaver                          Precinct 1D                                            01 
01080060005000000000000000000000000000000000000REP       United States Senator                                   Curt Cleaver                          Precinct 1E                                            01 
01080060006000001000000000001000000000000000000REP       United States Senator                                   Curt Cleaver                          Precinct 2A                                            01 
01080060007000000000000000000000000000000000000REP       United States Senator                                   Curt Cleaver                          Precinct 2B                                            01 
01080060008000001000001000000000000000000000000REP       United States Senator                                   Curt Cleaver                          Precinct 2C                                            01 
01080060009000004000000000001000000000000000003REP       United States Senator                                   Curt Cleaver                          Precinct 2D                                            01 
01080060010000003000000000003000000000000000000REP       United States Senator                                   Curt Cleaver                          Precinct 3A                                            01 
01080060011000001000001000000000000000000000000REP       United States Senator                                   Curt Cleaver                          Precinct 3B                                            01 
01080060012000001000000000001000000000000000000REP       United States Senator                                   Curt Cleaver                          Precinct 3C                                            01 
01080060013000002000001000001000000000000000000REP       United States Senator                                   Curt Cleaver                          Precinct 3D                                            01 
01080060014000000000000000000000000000000000000REP       United States Senator                                   Curt Cleaver                          Precinct 4A                                            01 
01080060015000000000000000000000000000000000000REP       United States Senator                                   Curt Cleaver                          Precinct 4B                                            01 
01080060016000000000000000000000000000000000000REP       United States Senator                                   Curt Cleaver                          Precinct 4C                                            01 
01080060017000002000000000001000001000000000000REP       United States Senator                                   Curt Cleaver                          Precinct 4D                                            01 
01080060018000002000002000000000000000000000000REP       United States Senator                                   Curt Cleaver                          Precinct 4E                                            01 
01080070001000004000000000001000003000000000000REP       United States Senator                                   Glenn Addison                         Precinct 1A                                            01 
01080070002000003000001000001000001000000000000REP       United States Senator                                   Glenn Addison                         Precinct 1B                                            01 
01080070003000004000000000000000000000004000000REP       United States Senator                                   Glenn Addison                         Precinct 1C                                            01 
01080070004000003000001000000000002000000000000REP       United States Senator                                   Glenn Addison                         Precinct 1D                                            01 
01080070005000003000000000000000003000000000000REP       United States Senator                                   Glenn Addison                         Precinct 1E                                            01 
01080070006000003000000000003000000000000000000REP       United States Senator                                   Glenn Addison                         Precinct 2A                                            01 
01080070007000006000001000002000003000000000000REP       United States Senator                                   Glenn Addison                         Precinct 2B                                            01 
01080070008000006000000000003000003000000000000REP       United States Senator                                   Glenn Addison                         Precinct 2C                                            01 
01080070009000004000001000002000000000000000001REP       United States Senator                                   Glenn Addison                         Precinct 2D                                            01 
01080070010000000000000000000000000000000000000REP       United States Senator                                   Glenn Addison                         Precinct 3A                                            01 
01080070011000004000002000001000001000000000000REP       United States Senator                                   Glenn Addison                         Precinct 3B                                            01 
01080070012000005000000000000000005000000000000REP       United States Senator                                   Glenn Addison                         Precinct 3C                                            01 
01080070013000002000000000002000000000000000000REP       United States Senator                                   Glenn Addison                         Precinct 3D                                            01 
01080070014000001000000000001000000000000000000REP       United States Senator                                   Glenn Addison                         Precinct 4A                                            01 
01080070015000006000001000000000005000000000000REP       United States Senator                                   Glenn Addison                         Precinct 4B                                            01 
01080070016000001000000000000000001000000000000REP       United States Senator                                   Glenn Addison                         Precinct 4C                                            01 
01080070017000009000001000002000006000000000000REP       United States Senator                                   Glenn Addison                         Precinct 4D                                            01 
01080070018000000000000000000000000000000000000REP       United States Senator                                   Glenn Addison                         Precinct 4E                                            01 
01080080001000005000000000004000001000000000000REP       United States Senator                                   Lela Pittenger                        Precinct 1A                                            01 
01080080002000005000000000004000001000000000000REP       United States Senator                                   Lela Pittenger                        Precinct 1B                                            01 
01080080003000003000000000000000000000003000000REP       United States Senator                                   Lela Pittenger                        Precinct 1C                                            01 
01080080004000005000000000001000004000000000000REP       United States Senator                                   Lela Pittenger                        Precinct 1D                                            01 
01080080005000000000000000000000000000000000000REP       United States Senator                                   Lela Pittenger                        Precinct 1E                                            01 
01080080006000004000000000003000001000000000000REP       United States Senator                                   Lela Pittenger                        Precinct 2A                                            01 
01080080007000002000000000000000002000000000000REP       United States Senator                                   Lela Pittenger                        Precinct 2B                                            01 
01080080008000002000000000000000002000000000000REP       United States Senator                                   Lela Pittenger                        Precinct 2C                                            01 
01080080009000001000000000001000000000000000000REP       United States Senator                                   Lela Pittenger                        Precinct 2D                                            01 
01080080010000001000000000000000001000000000000REP       United States Senator                                   Lela Pittenger                        Precinct 3A                                            01 
01080080011000002000000000001000001000000000000REP       United States Senator                                   Lela Pittenger                        Precinct 3B                                            01 
01080080012000004000001000001000002000000000000REP       United States Senator                                   Lela Pittenger                        Precinct 3C                                            01 
01080080013000001000000000000000000000000000001REP       United States Senator                                   Lela Pittenger                        Precinct 3D                                            01 
01080080014000000000000000000000000000000000000REP       United States Senator                                   Lela Pittenger                        Precinct 4A                                            01 
01080080015000006000000000000000006000000000000REP       United States Senator                                   Lela Pittenger                        Precinct 4B                                            01 
01080080016000001000000000001000000000000000000REP       United States Senator                                   Lela Pittenger                        Precinct 4C                                            01 
01080080017000010000000000004000006000000000000REP       United States Senator                                   Lela Pittenger                        Precinct 4D                                            01 
01080080018000004000000000000000004000000000000REP       United States Senator                                   Lela Pittenger                        Precinct 4E                                            01 
01080090001000000000000000000000000000000000000REP       United States Senator                                   Joe Agris                             Precinct 1A                                            01 
01080090002000004000000000001000003000000000000REP       United States Senator                                   Joe Agris                             Precinct 1B                                            01 
01080090003000003000000000002000000000001000000REP       United States Senator                                   Joe Agris                             Precinct 1C                                            01 
01080090004000000000000000000000000000000000000REP       United States Senator                                   Joe Agris                             Precinct 1D                                            01 
01080090005000001000000000000000001000000000000REP       United States Senator                                   Joe Agris                             Precinct 1E                                            01 
01080090006000004000000000003000001000000000000REP       United States Senator                                   Joe Agris                             Precinct 2A                                            01 
01080090007000001000000000000000001000000000000REP       United States Senator                                   Joe Agris                             Precinct 2B                                            01 
01080090008000000000000000000000000000000000000REP       United States Senator                                   Joe Agris                             Precinct 2C                                            01 
01080090009000001000000000000000000000000000001REP       United States Senator                                   Joe Agris                             Precinct 2D                                            01 
01080090010000000000000000000000000000000000000REP       United States Senator                                   Joe Agris                             Precinct 3A                                            01 
01080090011000000000000000000000000000000000000REP       United States Senator                                   Joe Agris                             Precinct 3B                                            01 
01080090012000001000000000000000001000000000000REP       United States Senator                                   Joe Agris                             Precinct 3C                                            01 
01080090013000002000000000000000000000000000002REP       United States Senator                                   Joe Agris                             Precinct 3D                                            01 
01080090014000000000000000000000000000000000000REP       United States Senator                                   Joe Agris                             Precinct 4A                                            01 
01080090015000003000000000000000003000000000000REP       United States Senator                                   Joe Agris                             Precinct 4B                                            01 
01080090016000000000000000000000000000000000000REP       United States Senator                                   Joe Agris                             Precinct 4C                                            01 
01080090017000002000000000001000001000000000000REP       United States Senator                                   Joe Agris                             Precinct 4D                                            01 
01080090018000000000000000000000000000000000000REP       United States Senator                                   Joe Agris                             Precinct 4E                                            01 
01080100001000000000000000000000000000000000000REP       United States Senator                                   OVER VOTES                            Precinct 1A                                            01 
01080100002000001000000000000000001000000000000REP       United States Senator                                   OVER VOTES                            Precinct 1B                                            01 
01080100003000000000000000000000000000000000000REP       United States Senator                                   OVER VOTES                            Precinct 1C                                            01 
01080100004000000000000000000000000000000000000REP       United States Senator                                   OVER VOTES                            Precinct 1D                                            01 
01080100005000000000000000000000000000000000000REP       United States Senator                                   OVER VOTES                            Precinct 1E                                            01 
