01040010001000051DEM       BALLOTS CAST - DEMOCRATIC                               BALLOTS CAST - DEMOCRATIC             PRECINCT 1                                             00 
01040010002000044DEM       BALLOTS CAST - DEMOCRATIC                               BALLOTS CAST - DEMOCRATIC             PRECINCT 2                                             00 
01040010003000028DEM       BALLOTS CAST - DEMOCRATIC                               BALLOTS CAST - DEMOCRATIC             PRECINCT 3                                             00 
01040010004000137DEM       BALLOTS CAST - DEMOCRATIC                               BALLOTS CAST - DEMOCRATIC             PRECINCT 4                                             00 
01040010005000049DEM       BALLOTS CAST - DEMOCRATIC                               BALLOTS CAST - DEMOCRATIC             PRECINCT 5                                             00 
01040010006000037DEM       BALLOTS CAST - DEMOCRATIC                               BALLOTS CAST - DEMOCRATIC             PRECINCT 6                                             00 
01040010007000241DEM       BALLOTS CAST - DEMOCRATIC                               BALLOTS CAST - DEMOCRATIC             PRECINCT 7                                             00 
01040010008000036DEM       BALLOTS CAST - DEMOCRATIC                               BALLOTS CAST - DEMOCRATIC             PRECINCT 8                                             00 
01040010009000019DEM       BALLOTS CAST - DEMOCRATIC                               BALLOTS CAST - DEMOCRATIC             PRECINCT 9                                             00 
01040010010000035DEM       BALLOTS CAST - DEMOCRATIC                               BALLOTS CAST - DEMOCRATIC             PRECINCT 10                                            00 
01040010011000004DEM       BALLOTS CAST - DEMOCRATIC                               BALLOTS CAST - DEMOCRATIC             PRECINCT 11                                            00 
01040010012000207DEM       BALLOTS CAST - DEMOCRATIC                               BALLOTS CAST - DEMOCRATIC             PRECINCT 12                                            00 
01040010013000390DEM       BALLOTS CAST - DEMOCRATIC                               BALLOTS CAST - DEMOCRATIC             PRECINCT 13                                            00 
01040010014000141DEM       BALLOTS CAST - DEMOCRATIC                               BALLOTS CAST - DEMOCRATIC             PRECINCT 14                                            00 
01040010015000000DEM       BALLOTS CAST - DEMOCRATIC                               BALLOTS CAST - DEMOCRATIC             PRECINCT 15                                            00 
01040010016000004DEM       BALLOTS CAST - DEMOCRATIC                               BALLOTS CAST - DEMOCRATIC             PRECINCT 16                                            00 
01040010017000010DEM       BALLOTS CAST - DEMOCRATIC                               BALLOTS CAST - DEMOCRATIC             PRECINCT 17                                            00 
01040010018000035DEM       BALLOTS CAST - DEMOCRATIC                               BALLOTS CAST - DEMOCRATIC             PRECINCT 18                                            00 
01040010019000051DEM       BALLOTS CAST - DEMOCRATIC                               BALLOTS CAST - DEMOCRATIC             PRECINCT 19                                            00 
01040010020000025DEM       BALLOTS CAST - DEMOCRATIC                               BALLOTS CAST - DEMOCRATIC             PRECINCT 20                                            00 
01040010021000042DEM       BALLOTS CAST - DEMOCRATIC                               BALLOTS CAST - DEMOCRATIC             PRECINCT 21                                            00 
01040010022000013DEM       BALLOTS CAST - DEMOCRATIC                               BALLOTS CAST - DEMOCRATIC             PRECINCT 22                                            00 
01040010023000013DEM       BALLOTS CAST - DEMOCRATIC                               BALLOTS CAST - DEMOCRATIC             PRECINCT 23                                            00 
01040010024000014DEM       BALLOTS CAST - DEMOCRATIC                               BALLOTS CAST - DEMOCRATIC             PRECINCT 24                                            00 
01040010025000050DEM       BALLOTS CAST - DEMOCRATIC                               BALLOTS CAST - DEMOCRATIC             PRECINCT 25                                            00 
01040010026000015DEM       BALLOTS CAST - DEMOCRATIC                               BALLOTS CAST - DEMOCRATIC             PRECINCT 26                                            00 
01040010027000006DEM       BALLOTS CAST - DEMOCRATIC                               BALLOTS CAST - DEMOCRATIC             PRECINCT 27                                            00 
01040010028000004DEM       BALLOTS CAST - DEMOCRATIC                               BALLOTS CAST - DEMOCRATIC             PRECINCT 28                                            00 
01040010029000024DEM       BALLOTS CAST - DEMOCRATIC                               BALLOTS CAST - DEMOCRATIC             PRECINCT 29                                            00 
01040010030000021DEM       BALLOTS CAST - DEMOCRATIC                               BALLOTS CAST - DEMOCRATIC             PRECINCT 30                                            00 
01040010031000033DEM       BALLOTS CAST - DEMOCRATIC                               BALLOTS CAST - DEMOCRATIC             PRECINCT 31                                            00 
01040010032000073DEM       BALLOTS CAST - DEMOCRATIC                               BALLOTS CAST - DEMOCRATIC             PRECINCT 32                                            00 
01040010033000050DEM       BALLOTS CAST - DEMOCRATIC                               BALLOTS CAST - DEMOCRATIC             PRECINCT 33                                            00 
01040010034000099DEM       BALLOTS CAST - DEMOCRATIC                               BALLOTS CAST - DEMOCRATIC             PRECINCT 34                                            00 
01040010035000016DEM       BALLOTS CAST - DEMOCRATIC                               BALLOTS CAST - DEMOCRATIC             PRECINCT 35                                            00 
01150010001000014DEM       United States Senator VICTORIA COUNTY                   Paul Sadler                           PRECINCT 1                                             01 
01150010002000027DEM       United States Senator VICTORIA COUNTY                   Paul Sadler                           PRECINCT 2                                             01 
01150010003000012DEM       United States Senator VICTORIA COUNTY                   Paul Sadler                           PRECINCT 3                                             01 
01150010004000045DEM       United States Senator VICTORIA COUNTY                   Paul Sadler                           PRECINCT 4                                             01 
01150010005000026DEM       United States Senator VICTORIA COUNTY                   Paul Sadler                           PRECINCT 5                                             01 
01150010006000017DEM       United States Senator VICTORIA COUNTY                   Paul Sadler                           PRECINCT 6                                             01 
01150010007000111DEM       United States Senator VICTORIA COUNTY                   Paul Sadler                           PRECINCT 7                                             01 
01150010008000019DEM       United States Senator VICTORIA COUNTY                   Paul Sadler                           PRECINCT 8                                             01 
01150010009000007DEM       United States Senator VICTORIA COUNTY                   Paul Sadler                           PRECINCT 9                                             01 
01150010010000018DEM       United States Senator VICTORIA COUNTY                   Paul Sadler                           PRECINCT 10                                            01 
01150010011000001DEM       United States Senator VICTORIA COUNTY                   Paul Sadler                           PRECINCT 11                                            01 
01150010012000056DEM       United States Senator VICTORIA COUNTY                   Paul Sadler                           PRECINCT 12                                            01 
01150010013000127DEM       United States Senator VICTORIA COUNTY                   Paul Sadler                           PRECINCT 13                                            01 
01150010014000050DEM       United States Senator VICTORIA COUNTY                   Paul Sadler                           PRECINCT 14                                            01 
01150010015000000DEM       United States Senator VICTORIA COUNTY                   Paul Sadler                           PRECINCT 15                                            01 
01150010016000003DEM       United States Senator VICTORIA COUNTY                   Paul Sadler                           PRECINCT 16                                            01 
01150010017000005DEM       United States Senator VICTORIA COUNTY                   Paul Sadler                           PRECINCT 17                                            01 
01150010018000016DEM       United States Senator VICTORIA COUNTY                   Paul Sadler                           PRECINCT 18                                            01 
01150010019000030DEM       United States Senator VICTORIA COUNTY                   Paul Sadler                           PRECINCT 19                                            01 
01150010020000016DEM       United States Senator VICTORIA COUNTY                   Paul Sadler                           PRECINCT 20                                            01 
01150010021000026DEM       United States Senator VICTORIA COUNTY                   Paul Sadler                           PRECINCT 21                                            01 
01150010022000008DEM       United States Senator VICTORIA COUNTY                   Paul Sadler                           PRECINCT 22                                            01 
01150010023000007DEM       United States Senator VICTORIA COUNTY                   Paul Sadler                           PRECINCT 23                                            01 
01150010024000006DEM       United States Senator VICTORIA COUNTY                   Paul Sadler                           PRECINCT 24                                            01 
01150010025000023DEM       United States Senator VICTORIA COUNTY                   Paul Sadler                           PRECINCT 25                                            01 
01150010026000009DEM       United States Senator VICTORIA COUNTY                   Paul Sadler                           PRECINCT 26                                            01 
01150010027000002DEM       United States Senator VICTORIA COUNTY                   Paul Sadler                           PRECINCT 27                                            01 
01150010028000003DEM       United States Senator VICTORIA COUNTY                   Paul Sadler                           PRECINCT 28                                            01 
01150010029000017DEM       United States Senator VICTORIA COUNTY                   Paul Sadler                           PRECINCT 29                                            01 
01150010030000013DEM       United States Senator VICTORIA COUNTY                   Paul Sadler                           PRECINCT 30                                            01 
01150010031000016DEM       United States Senator VICTORIA COUNTY                   Paul Sadler                           PRECINCT 31                                            01 
01150010032000020DEM       United States Senator VICTORIA COUNTY                   Paul Sadler                           PRECINCT 32                                            01 
01150010033000038DEM       United States Senator VICTORIA COUNTY                   Paul Sadler                           PRECINCT 33                                            01 
01150010034000031DEM       United States Senator VICTORIA COUNTY                   Paul Sadler                           PRECINCT 34                                            01 
01150010035000009DEM       United States Senator VICTORIA COUNTY                   Paul Sadler                           PRECINCT 35                                            01 
01150020001000027DEM       United States Senator VICTORIA COUNTY                   Grady Yarbrough                       PRECINCT 1                                             01 
01150020002000015DEM       United States Senator VICTORIA COUNTY                   Grady Yarbrough                       PRECINCT 2                                             01 
01150020003000016DEM       United States Senator VICTORIA COUNTY                   Grady Yarbrough                       PRECINCT 3                                             01 
01150020004000057DEM       United States Senator VICTORIA COUNTY                   Grady Yarbrough                       PRECINCT 4                                             01 
01150020005000022DEM       United States Senator VICTORIA COUNTY                   Grady Yarbrough                       PRECINCT 5                                             01 
01150020006000010DEM       United States Senator VICTORIA COUNTY                   Grady Yarbrough                       PRECINCT 6                                             01 
01150020007000099DEM       United States Senator VICTORIA COUNTY                   Grady Yarbrough                       PRECINCT 7                                             01 
01150020008000014DEM       United States Senator VICTORIA COUNTY                   Grady Yarbrough                       PRECINCT 8                                             01 
01150020009000012DEM       United States Senator VICTORIA COUNTY                   Grady Yarbrough                       PRECINCT 9                                             01 
01150020010000017DEM       United States Senator VICTORIA COUNTY                   Grady Yarbrough                       PRECINCT 10                                            01 
01150020011000002DEM       United States Senator VICTORIA COUNTY                   Grady Yarbrough                       PRECINCT 11                                            01 
01150020012000080DEM       United States Senator VICTORIA COUNTY                   Grady Yarbrough                       PRECINCT 12                                            01 
01150020013000138DEM       United States Senator VICTORIA COUNTY                   Grady Yarbrough                       PRECINCT 13                                            01 
01150020014000059DEM       United States Senator VICTORIA COUNTY                   Grady Yarbrough                       PRECINCT 14                                            01 
01150020015000000DEM       United States Senator VICTORIA COUNTY                   Grady Yarbrough                       PRECINCT 15                                            01 
01150020016000001DEM       United States Senator VICTORIA COUNTY                   Grady Yarbrough                       PRECINCT 16                                            01 
01150020017000004DEM       United States Senator VICTORIA COUNTY                   Grady Yarbrough                       PRECINCT 17                                            01 
01150020018000019DEM       United States Senator VICTORIA COUNTY                   Grady Yarbrough                       PRECINCT 18                                            01 
01150020019000020DEM       United States Senator VICTORIA COUNTY                   Grady Yarbrough                       PRECINCT 19                                            01 
01150020020000009DEM       United States Senator VICTORIA COUNTY                   Grady Yarbrough                       PRECINCT 20                                            01 
01150020021000015DEM       United States Senator VICTORIA COUNTY                   Grady Yarbrough                       PRECINCT 21                                            01 
01150020022000004DEM       United States Senator VICTORIA COUNTY                   Grady Yarbrough                       PRECINCT 22                                            01 
01150020023000006DEM       United States Senator VICTORIA COUNTY                   Grady Yarbrough                       PRECINCT 23                                            01 
01150020024000008DEM       United States Senator VICTORIA COUNTY                   Grady Yarbrough                       PRECINCT 24                                            01 
01150020025000025DEM       United States Senator VICTORIA COUNTY                   Grady Yarbrough                       PRECINCT 25                                            01 
01150020026000005DEM       United States Senator VICTORIA COUNTY                   Grady Yarbrough                       PRECINCT 26                                            01 
01150020027000004DEM       United States Senator VICTORIA COUNTY                   Grady Yarbrough                       PRECINCT 27                                            01 
01150020028000001DEM       United States Senator VICTORIA COUNTY                   Grady Yarbrough                       PRECINCT 28                                            01 
01150020029000007DEM       United States Senator VICTORIA COUNTY                   Grady Yarbrough                       PRECINCT 29                                            01 
01150020030000007DEM       United States Senator VICTORIA COUNTY                   Grady Yarbrough                       PRECINCT 30                                            01 
01150020031000013DEM       United States Senator VICTORIA COUNTY                   Grady Yarbrough                       PRECINCT 31                                            01 
01150020032000045DEM       United States Senator VICTORIA COUNTY                   Grady Yarbrough                       PRECINCT 32                                            01 
01150020033000012DEM       United States Senator VICTORIA COUNTY                   Grady Yarbrough                       PRECINCT 33                                            01 
01150020034000052DEM       United States Senator VICTORIA COUNTY                   Grady Yarbrough                       PRECINCT 34                                            01 
01150020035000007DEM       United States Senator VICTORIA COUNTY                   Grady Yarbrough                       PRECINCT 35                                            01 
01160010001000024DEM       United States Representative District 27 VICTORIA COUNTYRose Meza Harrison                    PRECINCT 1                                             01 
01160010002000031DEM       United States Representative District 27 VICTORIA COUNTYRose Meza Harrison                    PRECINCT 2                                             01 
01160010003000019DEM       United States Representative District 27 VICTORIA COUNTYRose Meza Harrison                    PRECINCT 3                                             01 
01160010004000069DEM       United States Representative District 27 VICTORIA COUNTYRose Meza Harrison                    PRECINCT 4                                             01 
01160010005000028DEM       United States Representative District 27 VICTORIA COUNTYRose Meza Harrison                    PRECINCT 5                                             01 
01160010006000012DEM       United States Representative District 27 VICTORIA COUNTYRose Meza Harrison                    PRECINCT 6                                             01 
01160010007000103DEM       United States Representative District 27 VICTORIA COUNTYRose Meza Harrison                    PRECINCT 7                                             01 
01160010008000021DEM       United States Representative District 27 VICTORIA COUNTYRose Meza Harrison                    PRECINCT 8                                             01 
01160010009000009DEM       United States Representative District 27 VICTORIA COUNTYRose Meza Harrison                    PRECINCT 9                                             01 
01160010010000022DEM       United States Representative District 27 VICTORIA COUNTYRose Meza Harrison                    PRECINCT 10                                            01 
01160010011000003DEM       United States Representative District 27 VICTORIA COUNTYRose Meza Harrison                    PRECINCT 11                                            01 
01160010012000062DEM       United States Representative District 27 VICTORIA COUNTYRose Meza Harrison                    PRECINCT 12                                            01 
01160010013000099DEM       United States Representative District 27 VICTORIA COUNTYRose Meza Harrison                    PRECINCT 13                                            01 
01160010014000059DEM       United States Representative District 27 VICTORIA COUNTYRose Meza Harrison                    PRECINCT 14                                            01 
01160010015000000DEM       United States Representative District 27 VICTORIA COUNTYRose Meza Harrison                    PRECINCT 15                                            01 
01160010016000002DEM       United States Representative District 27 VICTORIA COUNTYRose Meza Harrison                    PRECINCT 16                                            01 
01160010017000008DEM       United States Representative District 27 VICTORIA COUNTYRose Meza Harrison                    PRECINCT 17                                            01 
01160010018000024DEM       United States Representative District 27 VICTORIA COUNTYRose Meza Harrison                    PRECINCT 18                                            01 
01160010019000034DEM       United States Representative District 27 VICTORIA COUNTYRose Meza Harrison                    PRECINCT 19                                            01 
01160010020000014DEM       United States Representative District 27 VICTORIA COUNTYRose Meza Harrison                    PRECINCT 20                                            01 
01160010021000026DEM       United States Representative District 27 VICTORIA COUNTYRose Meza Harrison                    PRECINCT 21                                            01 
01160010022000007DEM       United States Representative District 27 VICTORIA COUNTYRose Meza Harrison                    PRECINCT 22                                            01 
01160010023000010DEM       United States Representative District 27 VICTORIA COUNTYRose Meza Harrison                    PRECINCT 23                                            01 
01160010024000011DEM       United States Representative District 27 VICTORIA COUNTYRose Meza Harrison                    PRECINCT 24                                            01 
01160010025000033DEM       United States Representative District 27 VICTORIA COUNTYRose Meza Harrison                    PRECINCT 25                                            01 
01160010026000009DEM       United States Representative District 27 VICTORIA COUNTYRose Meza Harrison                    PRECINCT 26                                            01 
01160010027000003DEM       United States Representative District 27 VICTORIA COUNTYRose Meza Harrison                    PRECINCT 27                                            01 
01160010028000002DEM       United States Representative District 27 VICTORIA COUNTYRose Meza Harrison                    PRECINCT 28                                            01 
01160010029000017DEM       United States Representative District 27 VICTORIA COUNTYRose Meza Harrison                    PRECINCT 29                                            01 
01160010030000013DEM       United States Representative District 27 VICTORIA COUNTYRose Meza Harrison                    PRECINCT 30                                            01 
01160010031000020DEM       United States Representative District 27 VICTORIA COUNTYRose Meza Harrison                    PRECINCT 31                                            01 
01160010032000031DEM       United States Representative District 27 VICTORIA COUNTYRose Meza Harrison                    PRECINCT 32                                            01 
01160010033000037DEM       United States Representative District 27 VICTORIA COUNTYRose Meza Harrison                    PRECINCT 33                                            01 
01160010034000045DEM       United States Representative District 27 VICTORIA COUNTYRose Meza Harrison                    PRECINCT 34                                            01 
01160010035000009DEM       United States Representative District 27 VICTORIA COUNTYRose Meza Harrison                    PRECINCT 35                                            01 
01160020001000024DEM       United States Representative District 27 VICTORIA COUNTYJerry J. Trevino                      PRECINCT 1                                             01 
01160020002000013DEM       United States Representative District 27 VICTORIA COUNTYJerry J. Trevino                      PRECINCT 2                                             01 
01160020003000009DEM       United States Representative District 27 VICTORIA COUNTYJerry J. Trevino                      PRECINCT 3                                             01 
01160020004000051DEM       United States Representative District 27 VICTORIA COUNTYJerry J. Trevino                      PRECINCT 4                                             01 
01160020005000018DEM       United States Representative District 27 VICTORIA COUNTYJerry J. Trevino                      PRECINCT 5                                             01 
01160020006000020DEM       United States Representative District 27 VICTORIA COUNTYJerry J. Trevino                      PRECINCT 6                                             01 
01160020007000123DEM       United States Representative District 27 VICTORIA COUNTYJerry J. Trevino                      PRECINCT 7                                             01 
01160020008000015DEM       United States Representative District 27 VICTORIA COUNTYJerry J. Trevino                      PRECINCT 8                                             01 
01160020009000009DEM       United States Representative District 27 VICTORIA COUNTYJerry J. Trevino                      PRECINCT 9                                             01 
01160020010000012DEM       United States Representative District 27 VICTORIA COUNTYJerry J. Trevino                      PRECINCT 10                                            01 
01160020011000001DEM       United States Representative District 27 VICTORIA COUNTYJerry J. Trevino                      PRECINCT 11                                            01 
01160020012000083DEM       United States Representative District 27 VICTORIA COUNTYJerry J. Trevino                      PRECINCT 12                                            01 
01160020013000192DEM       United States Representative District 27 VICTORIA COUNTYJerry J. Trevino                      PRECINCT 13                                            01 
01160020014000055DEM       United States Representative District 27 VICTORIA COUNTYJerry J. Trevino                      PRECINCT 14                                            01 
01160020015000000DEM       United States Representative District 27 VICTORIA COUNTYJerry J. Trevino                      PRECINCT 15                                            01 
01160020016000002DEM       United States Representative District 27 VICTORIA COUNTYJerry J. Trevino                      PRECINCT 16                                            01 
01160020017000001DEM       United States Representative District 27 VICTORIA COUNTYJerry J. Trevino                      PRECINCT 17                                            01 
01160020018000011DEM       United States Representative District 27 VICTORIA COUNTYJerry J. Trevino                      PRECINCT 18                                            01 
01160020019000016DEM       United States Representative District 27 VICTORIA COUNTYJerry J. Trevino                      PRECINCT 19                                            01 
01160020020000011DEM       United States Representative District 27 VICTORIA COUNTYJerry J. Trevino                      PRECINCT 20                                            01 
01160020021000016DEM       United States Representative District 27 VICTORIA COUNTYJerry J. Trevino                      PRECINCT 21                                            01 
01160020022000006DEM       United States Representative District 27 VICTORIA COUNTYJerry J. Trevino                      PRECINCT 22                                            01 
01160020023000003DEM       United States Representative District 27 VICTORIA COUNTYJerry J. Trevino                      PRECINCT 23                                            01 
01160020024000003DEM       United States Representative District 27 VICTORIA COUNTYJerry J. Trevino                      PRECINCT 24                                            01 
01160020025000016DEM       United States Representative District 27 VICTORIA COUNTYJerry J. Trevino                      PRECINCT 25                                            01 
01160020026000005DEM       United States Representative District 27 VICTORIA COUNTYJerry J. Trevino                      PRECINCT 26                                            01 
01160020027000003DEM       United States Representative District 27 VICTORIA COUNTYJerry J. Trevino                      PRECINCT 27                                            01 
01160020028000002DEM       United States Representative District 27 VICTORIA COUNTYJerry J. Trevino                      PRECINCT 28                                            01 
01160020029000007DEM       United States Representative District 27 VICTORIA COUNTYJerry J. Trevino                      PRECINCT 29                                            01 
01160020030000007DEM       United States Representative District 27 VICTORIA COUNTYJerry J. Trevino                      PRECINCT 30                                            01 
01160020031000011DEM       United States Representative District 27 VICTORIA COUNTYJerry J. Trevino                      PRECINCT 31                                            01 
01160020032000034DEM       United States Representative District 27 VICTORIA COUNTYJerry J. Trevino                      PRECINCT 32                                            01 
01160020033000012DEM       United States Representative District 27 VICTORIA COUNTYJerry J. Trevino                      PRECINCT 33                                            01 
01160020034000045DEM       United States Representative District 27 VICTORIA COUNTYJerry J. Trevino                      PRECINCT 34                                            01 
01160020035000007DEM       United States Representative District 27 VICTORIA COUNTYJerry J. Trevino                      PRECINCT 35                                            01 
01170010001000033DEM       Member, State Board of Education, Place VICTORIA COUNTY Ruben Cortez, Jr.                     PRECINCT 1                                             01 
01170010002000019DEM       Member, State Board of Education, Place VICTORIA COUNTY Ruben Cortez, Jr.                     PRECINCT 2                                             01 
01170010003000013DEM       Member, State Board of Education, Place VICTORIA COUNTY Ruben Cortez, Jr.                     PRECINCT 3                                             01 
01170010004000055DEM       Member, State Board of Education, Place VICTORIA COUNTY Ruben Cortez, Jr.                     PRECINCT 4                                             01 
01170010005000020DEM       Member, State Board of Education, Place VICTORIA COUNTY Ruben Cortez, Jr.                     PRECINCT 5                                             01 
01170010006000014DEM       Member, State Board of Education, Place VICTORIA COUNTY Ruben Cortez, Jr.                     PRECINCT 6                                             01 
01170010007000130DEM       Member, State Board of Education, Place VICTORIA COUNTY Ruben Cortez, Jr.                     PRECINCT 7                                             01 
01170010008000017DEM       Member, State Board of Education, Place VICTORIA COUNTY Ruben Cortez, Jr.                     PRECINCT 8                                             01 
01170010009000008DEM       Member, State Board of Education, Place VICTORIA COUNTY Ruben Cortez, Jr.                     PRECINCT 9                                             01 
01170010010000012DEM       Member, State Board of Education, Place VICTORIA COUNTY Ruben Cortez, Jr.                     PRECINCT 10                                            01 
01170010011000003DEM       Member, State Board of Education, Place VICTORIA COUNTY Ruben Cortez, Jr.                     PRECINCT 11                                            01 
01170010012000088DEM       Member, State Board of Education, Place VICTORIA COUNTY Ruben Cortez, Jr.                     PRECINCT 12                                            01 
01170010013000187DEM       Member, State Board of Education, Place VICTORIA COUNTY Ruben Cortez, Jr.                     PRECINCT 13                                            01 
01170010014000071DEM       Member, State Board of Education, Place VICTORIA COUNTY Ruben Cortez, Jr.                     PRECINCT 14                                            01 
01170010015000000DEM       Member, State Board of Education, Place VICTORIA COUNTY Ruben Cortez, Jr.                     PRECINCT 15                                            01 
01170010016000002DEM       Member, State Board of Education, Place VICTORIA COUNTY Ruben Cortez, Jr.                     PRECINCT 16                                            01 
01170010017000001DEM       Member, State Board of Education, Place VICTORIA COUNTY Ruben Cortez, Jr.                     PRECINCT 17                                            01 
01170010018000019DEM       Member, State Board of Education, Place VICTORIA COUNTY Ruben Cortez, Jr.                     PRECINCT 18                                            01 
01170010019000026DEM       Member, State Board of Education, Place VICTORIA COUNTY Ruben Cortez, Jr.                     PRECINCT 19                                            01 
01170010020000010DEM       Member, State Board of Education, Place VICTORIA COUNTY Ruben Cortez, Jr.                     PRECINCT 20                                            01 
01170010021000017DEM       Member, State Board of Education, Place VICTORIA COUNTY Ruben Cortez, Jr.                     PRECINCT 21                                            01 
01170010022000005DEM       Member, State Board of Education, Place VICTORIA COUNTY Ruben Cortez, Jr.                     PRECINCT 22                                            01 
01170010023000007DEM       Member, State Board of Education, Place VICTORIA COUNTY Ruben Cortez, Jr.                     PRECINCT 23                                            01 
01170010024000004DEM       Member, State Board of Education, Place VICTORIA COUNTY Ruben Cortez, Jr.                     PRECINCT 24                                            01 
01170010025000027DEM       Member, State Board of Education, Place VICTORIA COUNTY Ruben Cortez, Jr.                     PRECINCT 25                                            01 
01170010026000006DEM       Member, State Board of Education, Place VICTORIA COUNTY Ruben Cortez, Jr.                     PRECINCT 26                                            01 
01170010027000005DEM       Member, State Board of Education, Place VICTORIA COUNTY Ruben Cortez, Jr.                     PRECINCT 27                                            01 
01170010028000003DEM       Member, State Board of Education, Place VICTORIA COUNTY Ruben Cortez, Jr.                     PRECINCT 28                                            01 
01170010029000011DEM       Member, State Board of Education, Place VICTORIA COUNTY Ruben Cortez, Jr.                     PRECINCT 29                                            01 
01170010030000006DEM       Member, State Board of Education, Place VICTORIA COUNTY Ruben Cortez, Jr.                     PRECINCT 30                                            01 
01170010031000015DEM       Member, State Board of Education, Place VICTORIA COUNTY Ruben Cortez, Jr.                     PRECINCT 31                                            01 
01170010032000037DEM       Member, State Board of Education, Place VICTORIA COUNTY Ruben Cortez, Jr.                     PRECINCT 32                                            01 
01170010033000015DEM       Member, State Board of Education, Place VICTORIA COUNTY Ruben Cortez, Jr.                     PRECINCT 33                                            01 
01170010034000051DEM       Member, State Board of Education, Place VICTORIA COUNTY Ruben Cortez, Jr.                     PRECINCT 34                                            01 
01170010035000011DEM       Member, State Board of Education, Place VICTORIA COUNTY Ruben Cortez, Jr.                     PRECINCT 35                                            01 
01170020001000011DEM       Member, State Board of Education, Place VICTORIA COUNTY Celeste Zepeda Sanchez                PRECINCT 1                                             01 
01170020002000024DEM       Member, State Board of Education, Place VICTORIA COUNTY Celeste Zepeda Sanchez                PRECINCT 2                                             01 
01170020003000015DEM       Member, State Board of Education, Place VICTORIA COUNTY Celeste Zepeda Sanchez                PRECINCT 3                                             01 
01170020004000057DEM       Member, State Board of Education, Place VICTORIA COUNTY Celeste Zepeda Sanchez                PRECINCT 4                                             01 
01170020005000026DEM       Member, State Board of Education, Place VICTORIA COUNTY Celeste Zepeda Sanchez                PRECINCT 5                                             01 
01170020006000016DEM       Member, State Board of Education, Place VICTORIA COUNTY Celeste Zepeda Sanchez                PRECINCT 6                                             01 
01170020007000091DEM       Member, State Board of Education, Place VICTORIA COUNTY Celeste Zepeda Sanchez                PRECINCT 7                                             01 
01170020008000019DEM       Member, State Board of Education, Place VICTORIA COUNTY Celeste Zepeda Sanchez                PRECINCT 8                                             01 
01170020009000010DEM       Member, State Board of Education, Place VICTORIA COUNTY Celeste Zepeda Sanchez                PRECINCT 9                                             01 
01170020010000022DEM       Member, State Board of Education, Place VICTORIA COUNTY Celeste Zepeda Sanchez                PRECINCT 10                                            01 
01170020011000001DEM       Member, State Board of Education, Place VICTORIA COUNTY Celeste Zepeda Sanchez                PRECINCT 11                                            01 
01170020012000051DEM       Member, State Board of Education, Place VICTORIA COUNTY Celeste Zepeda Sanchez                PRECINCT 12                                            01 
01170020013000094DEM       Member, State Board of Education, Place VICTORIA COUNTY Celeste Zepeda Sanchez                PRECINCT 13                                            01 
01170020014000039DEM       Member, State Board of Education, Place VICTORIA COUNTY Celeste Zepeda Sanchez                PRECINCT 14                                            01 
01170020015000000DEM       Member, State Board of Education, Place VICTORIA COUNTY Celeste Zepeda Sanchez                PRECINCT 15                                            01 
01170020016000002DEM       Member, State Board of Education, Place VICTORIA COUNTY Celeste Zepeda Sanchez                PRECINCT 16                                            01 
01170020017000008DEM       Member, State Board of Education, Place VICTORIA COUNTY Celeste Zepeda Sanchez                PRECINCT 17                                            01 
01170020018000016DEM       Member, State Board of Education, Place VICTORIA COUNTY Celeste Zepeda Sanchez                PRECINCT 18                                            01 
01170020019000024DEM       Member, State Board of Education, Place VICTORIA COUNTY Celeste Zepeda Sanchez                PRECINCT 19                                            01 
01170020020000015DEM       Member, State Board of Education, Place VICTORIA COUNTY Celeste Zepeda Sanchez                PRECINCT 20                                            01 
01170020021000023DEM       Member, State Board of Education, Place VICTORIA COUNTY Celeste Zepeda Sanchez                PRECINCT 21                                            01 
01170020022000008DEM       Member, State Board of Education, Place VICTORIA COUNTY Celeste Zepeda Sanchez                PRECINCT 22                                            01 
01170020023000005DEM       Member, State Board of Education, Place VICTORIA COUNTY Celeste Zepeda Sanchez                PRECINCT 23                                            01 
01170020024000010DEM       Member, State Board of Education, Place VICTORIA COUNTY Celeste Zepeda Sanchez                PRECINCT 24                                            01 
01170020025000022DEM       Member, State Board of Education, Place VICTORIA COUNTY Celeste Zepeda Sanchez                PRECINCT 25                                            01 
01170020026000007DEM       Member, State Board of Education, Place VICTORIA COUNTY Celeste Zepeda Sanchez                PRECINCT 26                                            01 
01170020027000001DEM       Member, State Board of Education, Place VICTORIA COUNTY Celeste Zepeda Sanchez                PRECINCT 27                                            01 
01170020028000001DEM       Member, State Board of Education, Place VICTORIA COUNTY Celeste Zepeda Sanchez                PRECINCT 28                                            01 
01170020029000013DEM       Member, State Board of Education, Place VICTORIA COUNTY Celeste Zepeda Sanchez                PRECINCT 29                                            01 
01170020030000011DEM       Member, State Board of Education, Place VICTORIA COUNTY Celeste Zepeda Sanchez                PRECINCT 30                                            01 
01170020031000015DEM       Member, State Board of Education, Place VICTORIA COUNTY Celeste Zepeda Sanchez                PRECINCT 31                                            01 
01170020032000030DEM       Member, State Board of Education, Place VICTORIA COUNTY Celeste Zepeda Sanchez                PRECINCT 32                                            01 
01170020033000031DEM       Member, State Board of Education, Place VICTORIA COUNTY Celeste Zepeda Sanchez                PRECINCT 33                                            01 
01170020034000036DEM       Member, State Board of Education, Place VICTORIA COUNTY Celeste Zepeda Sanchez                PRECINCT 34                                            01 
01170020035000004DEM       Member, State Board of Education, Place VICTORIA COUNTY Celeste Zepeda Sanchez                PRECINCT 35                                            01 
