01010010001001245000000000000000000000000000000          REGISTERED VOTERS - TOTAL                               REGISTERED VOTERS - TOTAL             PRECINCT 101                                           00 
01010010002001941000000000000000000000000000000          REGISTERED VOTERS - TOTAL                               REGISTERED VOTERS - TOTAL             PRECINCT 104                                           00 
01010010003001024000000000000000000000000000000          REGISTERED VOTERS - TOTAL                               REGISTERED VOTERS - TOTAL             PRECINCT 109                                           00 
01010010004000876000000000000000000000000000000          REGISTERED VOTERS - TOTAL                               REGISTERED VOTERS - TOTAL             PRECINCT 115                                           00 
01010010005000102000000000000000000000000000000          REGISTERED VOTERS - TOTAL                               REGISTERED VOTERS - TOTAL             PRECINCT 117                                           00 
01010010006000116000000000000000000000000000000          REGISTERED VOTERS - TOTAL                               REGISTERED VOTERS - TOTAL             PRECINCT 121                                           00 
01010010007000232000000000000000000000000000000          REGISTERED VOTERS - TOTAL                               REGISTERED VOTERS - TOTAL             PRECINCT 202                                           00 
01010010008001841000000000000000000000000000000          REGISTERED VOTERS - TOTAL                               REGISTERED VOTERS - TOTAL             PRECINCT 203                                           00 
01010010009002263000000000000000000000000000000          REGISTERED VOTERS - TOTAL                               REGISTERED VOTERS - TOTAL             PRECINCT 205                                           00 
01010010010001461000000000000000000000000000000          REGISTERED VOTERS - TOTAL                               REGISTERED VOTERS - TOTAL             PRECINCT 208                                           00 
01010010011001532000000000000000000000000000000          REGISTERED VOTERS - TOTAL                               REGISTERED VOTERS - TOTAL             PRECINCT 307                                           00 
01010010012001158000000000000000000000000000000          REGISTERED VOTERS - TOTAL                               REGISTERED VOTERS - TOTAL             PRECINCT 311                                           00 
01010010013001163000000000000000000000000000000          REGISTERED VOTERS - TOTAL                               REGISTERED VOTERS - TOTAL             PRECINCT 312                                           00 
01010010014000220000000000000000000000000000000          REGISTERED VOTERS - TOTAL                               REGISTERED VOTERS - TOTAL             PRECINCT 316                                           00 
01010010015001790000000000000000000000000000000          REGISTERED VOTERS - TOTAL                               REGISTERED VOTERS - TOTAL             PRECINCT 320                                           00 
01010010016001663000000000000000000000000000000          REGISTERED VOTERS - TOTAL                               REGISTERED VOTERS - TOTAL             PRECINCT 406                                           00 
01010010017001109000000000000000000000000000000          REGISTERED VOTERS - TOTAL                               REGISTERED VOTERS - TOTAL             PRECINCT 410                                           00 
01010010018000751000000000000000000000000000000          REGISTERED VOTERS - TOTAL                               REGISTERED VOTERS - TOTAL             PRECINCT 413                                           00 
01010010019000815000000000000000000000000000000          REGISTERED VOTERS - TOTAL                               REGISTERED VOTERS - TOTAL             PRECINCT 414                                           00 
01010010020000655000000000000000000000000000000          REGISTERED VOTERS - TOTAL                               REGISTERED VOTERS - TOTAL             PRECINCT 418                                           00 
01010010021000575000000000000000000000000000000          REGISTERED VOTERS - TOTAL                               REGISTERED VOTERS - TOTAL             PRECINCT 419                                           00 
01020010001000818000432000386000000000000000000          BALLOTS CAST - TOTAL                                    BALLOTS CAST - TOTAL                  PRECINCT 101                                           00 
01020010002001006000649000357000000000000000000          BALLOTS CAST - TOTAL                                    BALLOTS CAST - TOTAL                  PRECINCT 104                                           00 
01020010003000697000385000312000000000000000000          BALLOTS CAST - TOTAL                                    BALLOTS CAST - TOTAL                  PRECINCT 109                                           00 
01020010004000564000392000172000000000000000000          BALLOTS CAST - TOTAL                                    BALLOTS CAST - TOTAL                  PRECINCT 115                                           00 
01020010005000078000029000049000000000000000000          BALLOTS CAST - TOTAL                                    BALLOTS CAST - TOTAL                  PRECINCT 117                                           00 
01020010006000053000053000000000000000000000000          BALLOTS CAST - TOTAL                                    BALLOTS CAST - TOTAL                  PRECINCT 121                                           00 
01020010007000122000076000046000000000000000000          BALLOTS CAST - TOTAL                                    BALLOTS CAST - TOTAL                  PRECINCT 202                                           00 
01020010008001241000756000485000000000000000000          BALLOTS CAST - TOTAL                                    BALLOTS CAST - TOTAL                  PRECINCT 203                                           00 
01020010009001463001070000393000000000000000000          BALLOTS CAST - TOTAL                                    BALLOTS CAST - TOTAL                  PRECINCT 205                                           00 
01020010010001009000660000349000000000000000000          BALLOTS CAST - TOTAL                                    BALLOTS CAST - TOTAL                  PRECINCT 208                                           00 
01020010011000953000636000317000000000000000000          BALLOTS CAST - TOTAL                                    BALLOTS CAST - TOTAL                  PRECINCT 307                                           00 
01020010012000776000423000353000000000000000000          BALLOTS CAST - TOTAL                                    BALLOTS CAST - TOTAL                  PRECINCT 311                                           00 
01020010013000762000443000319000000000000000000          BALLOTS CAST - TOTAL                                    BALLOTS CAST - TOTAL                  PRECINCT 312                                           00 
01020010014000137000098000039000000000000000000          BALLOTS CAST - TOTAL                                    BALLOTS CAST - TOTAL                  PRECINCT 316                                           00 
01020010015001263000909000354000000000000000000          BALLOTS CAST - TOTAL                                    BALLOTS CAST - TOTAL                  PRECINCT 320                                           00 
01020010016000967000694000273000000000000000000          BALLOTS CAST - TOTAL                                    BALLOTS CAST - TOTAL                  PRECINCT 406                                           00 
01020010017000729000358000371000000000000000000          BALLOTS CAST - TOTAL                                    BALLOTS CAST - TOTAL                  PRECINCT 410                                           00 
01020010018000516000280000236000000000000000000          BALLOTS CAST - TOTAL                                    BALLOTS CAST - TOTAL                  PRECINCT 413                                           00 
01020010019000570000404000166000000000000000000          BALLOTS CAST - TOTAL                                    BALLOTS CAST - TOTAL                  PRECINCT 414                                           00 
01020010020000347000231000116000000000000000000          BALLOTS CAST - TOTAL                                    BALLOTS CAST - TOTAL                  PRECINCT 418                                           00 
01020010021000401000307000094000000000000000000          BALLOTS CAST - TOTAL                                    BALLOTS CAST - TOTAL                  PRECINCT 419                                           00 
01030010001000268000170000098000000000000000000REP       STRAIGHT PARTY                                          REPUBLICAN PARTY                      PRECINCT 101                                           01 
01030010002000143000093000050000000000000000000REP       STRAIGHT PARTY                                          REPUBLICAN PARTY                      PRECINCT 104                                           01 
01030010003000333000189000144000000000000000000REP       STRAIGHT PARTY                                          REPUBLICAN PARTY                      PRECINCT 109                                           01 
01030010004000235000172000063000000000000000000REP       STRAIGHT PARTY                                          REPUBLICAN PARTY                      PRECINCT 115                                           01 
01030010005000007000001000006000000000000000000REP       STRAIGHT PARTY                                          REPUBLICAN PARTY                      PRECINCT 117                                           01 
01030010006000022000022000000000000000000000000REP       STRAIGHT PARTY                                          REPUBLICAN PARTY                      PRECINCT 121                                           01 
01030010007000057000036000021000000000000000000REP       STRAIGHT PARTY                                          REPUBLICAN PARTY                      PRECINCT 202                                           01 
01030010008000596000414000182000000000000000000REP       STRAIGHT PARTY                                          REPUBLICAN PARTY                      PRECINCT 203                                           01 
01030010009000668000517000151000000000000000000REP       STRAIGHT PARTY                                          REPUBLICAN PARTY                      PRECINCT 205                                           01 
01030010010000527000362000165000000000000000000REP       STRAIGHT PARTY                                          REPUBLICAN PARTY                      PRECINCT 208                                           01 
01030010011000434000317000117000000000000000000REP       STRAIGHT PARTY                                          REPUBLICAN PARTY                      PRECINCT 307                                           01 
01030010012000386000218000168000000000000000000REP       STRAIGHT PARTY                                          REPUBLICAN PARTY                      PRECINCT 311                                           01 
01030010013000368000235000133000000000000000000REP       STRAIGHT PARTY                                          REPUBLICAN PARTY                      PRECINCT 312                                           01 
01030010014000061000043000018000000000000000000REP       STRAIGHT PARTY                                          REPUBLICAN PARTY                      PRECINCT 316                                           01 
01030010015000628000469000159000000000000000000REP       STRAIGHT PARTY                                          REPUBLICAN PARTY                      PRECINCT 320                                           01 
01030010016000413000314000099000000000000000000REP       STRAIGHT PARTY                                          REPUBLICAN PARTY                      PRECINCT 406                                           01 
01030010017000303000153000150000000000000000000REP       STRAIGHT PARTY                                          REPUBLICAN PARTY                      PRECINCT 410                                           01 
01030010018000232000126000106000000000000000000REP       STRAIGHT PARTY                                          REPUBLICAN PARTY                      PRECINCT 413                                           01 
01030010019000261000183000078000000000000000000REP       STRAIGHT PARTY                                          REPUBLICAN PARTY                      PRECINCT 414                                           01 
01030010020000125000084000041000000000000000000REP       STRAIGHT PARTY                                          REPUBLICAN PARTY                      PRECINCT 418                                           01 
01030010021000165000137000028000000000000000000REP       STRAIGHT PARTY                                          REPUBLICAN PARTY                      PRECINCT 419                                           01 
01030020001000254000110000144000000000000000000DEM       STRAIGHT PARTY                                          DEMOCRATIC PARTY                      PRECINCT 101                                           01 
01030020002000594000391000203000000000000000000DEM       STRAIGHT PARTY                                          DEMOCRATIC PARTY                      PRECINCT 104                                           01 
01030020003000072000039000033000000000000000000DEM       STRAIGHT PARTY                                          DEMOCRATIC PARTY                      PRECINCT 109                                           01 
01030020004000094000059000035000000000000000000DEM       STRAIGHT PARTY                                          DEMOCRATIC PARTY                      PRECINCT 115                                           01 
01030020005000056000019000037000000000000000000DEM       STRAIGHT PARTY                                          DEMOCRATIC PARTY                      PRECINCT 117                                           01 
01030020006000010000010000000000000000000000000DEM       STRAIGHT PARTY                                          DEMOCRATIC PARTY                      PRECINCT 121                                           01 
01030020007000031000019000012000000000000000000DEM       STRAIGHT PARTY                                          DEMOCRATIC PARTY                      PRECINCT 202                                           01 
01030020008000161000065000096000000000000000000DEM       STRAIGHT PARTY                                          DEMOCRATIC PARTY                      PRECINCT 203                                           01 
01030020009000144000098000046000000000000000000DEM       STRAIGHT PARTY                                          DEMOCRATIC PARTY                      PRECINCT 205                                           01 
01030020010000073000046000027000000000000000000DEM       STRAIGHT PARTY                                          DEMOCRATIC PARTY                      PRECINCT 208                                           01 
01030020011000124000064000060000000000000000000DEM       STRAIGHT PARTY                                          DEMOCRATIC PARTY                      PRECINCT 307                                           01 
01030020012000072000038000034000000000000000000DEM       STRAIGHT PARTY                                          DEMOCRATIC PARTY                      PRECINCT 311                                           01 
01030020013000063000025000038000000000000000000DEM       STRAIGHT PARTY                                          DEMOCRATIC PARTY                      PRECINCT 312                                           01 
01030020014000015000014000001000000000000000000DEM       STRAIGHT PARTY                                          DEMOCRATIC PARTY                      PRECINCT 316                                           01 
01030020015000053000031000022000000000000000000DEM       STRAIGHT PARTY                                          DEMOCRATIC PARTY                      PRECINCT 320                                           01 
01030020016000073000044000029000000000000000000DEM       STRAIGHT PARTY                                          DEMOCRATIC PARTY                      PRECINCT 406                                           01 
01030020017000088000038000050000000000000000000DEM       STRAIGHT PARTY                                          DEMOCRATIC PARTY                      PRECINCT 410                                           01 
01030020018000023000020000003000000000000000000DEM       STRAIGHT PARTY                                          DEMOCRATIC PARTY                      PRECINCT 413                                           01 
01030020019000029000018000011000000000000000000DEM       STRAIGHT PARTY                                          DEMOCRATIC PARTY                      PRECINCT 414                                           01 
01030020020000054000038000016000000000000000000DEM       STRAIGHT PARTY                                          DEMOCRATIC PARTY                      PRECINCT 418                                           01 
01030020021000044000027000017000000000000000000DEM       STRAIGHT PARTY                                          DEMOCRATIC PARTY                      PRECINCT 419                                           01 
01030030001000001000001000000000000000000000000LIB       STRAIGHT PARTY                                          LIBERTARIAN PARTY                     PRECINCT 101                                           01 
01030030002000005000002000003000000000000000000LIB       STRAIGHT PARTY                                          LIBERTARIAN PARTY                     PRECINCT 104                                           01 
01030030003000003000001000002000000000000000000LIB       STRAIGHT PARTY                                          LIBERTARIAN PARTY                     PRECINCT 109                                           01 
01030030004000001000001000000000000000000000000LIB       STRAIGHT PARTY                                          LIBERTARIAN PARTY                     PRECINCT 115                                           01 
01030030005000000000000000000000000000000000000LIB       STRAIGHT PARTY                                          LIBERTARIAN PARTY                     PRECINCT 117                                           01 
01030030006000000000000000000000000000000000000LIB       STRAIGHT PARTY                                          LIBERTARIAN PARTY                     PRECINCT 121                                           01 
01030030007000000000000000000000000000000000000LIB       STRAIGHT PARTY                                          LIBERTARIAN PARTY                     PRECINCT 202                                           01 
01030030008000004000002000002000000000000000000LIB       STRAIGHT PARTY                                          LIBERTARIAN PARTY                     PRECINCT 203                                           01 
01030030009000008000004000004000000000000000000LIB       STRAIGHT PARTY                                          LIBERTARIAN PARTY                     PRECINCT 205                                           01 
01030030010000001000000000001000000000000000000LIB       STRAIGHT PARTY                                          LIBERTARIAN PARTY                     PRECINCT 208                                           01 
01030030011000003000001000002000000000000000000LIB       STRAIGHT PARTY                                          LIBERTARIAN PARTY                     PRECINCT 307                                           01 
01030030012000006000002000004000000000000000000LIB       STRAIGHT PARTY                                          LIBERTARIAN PARTY                     PRECINCT 311                                           01 
01030030013000003000000000003000000000000000000LIB       STRAIGHT PARTY                                          LIBERTARIAN PARTY                     PRECINCT 312                                           01 
01030030014000000000000000000000000000000000000LIB       STRAIGHT PARTY                                          LIBERTARIAN PARTY                     PRECINCT 316                                           01 
01030030015000002000001000001000000000000000000LIB       STRAIGHT PARTY                                          LIBERTARIAN PARTY                     PRECINCT 320                                           01 
01030030016000003000001000002000000000000000000LIB       STRAIGHT PARTY                                          LIBERTARIAN PARTY                     PRECINCT 406                                           01 
01030030017000000000000000000000000000000000000LIB       STRAIGHT PARTY                                          LIBERTARIAN PARTY                     PRECINCT 410                                           01 
01030030018000000000000000000000000000000000000LIB       STRAIGHT PARTY                                          LIBERTARIAN PARTY                     PRECINCT 413                                           01 
01030030019000004000002000002000000000000000000LIB       STRAIGHT PARTY                                          LIBERTARIAN PARTY                     PRECINCT 414                                           01 
01030030020000002000001000001000000000000000000LIB       STRAIGHT PARTY                                          LIBERTARIAN PARTY                     PRECINCT 418                                           01 
01030030021000001000000000001000000000000000000LIB       STRAIGHT PARTY                                          LIBERTARIAN PARTY                     PRECINCT 419                                           01 
01030040001000001000000000001000000000000000000GRN       STRAIGHT PARTY                                          GREEN PARTY                           PRECINCT 101                                           01 
01030040002000000000000000000000000000000000000GRN       STRAIGHT PARTY                                          GREEN PARTY                           PRECINCT 104                                           01 
01030040003000000000000000000000000000000000000GRN       STRAIGHT PARTY                                          GREEN PARTY                           PRECINCT 109                                           01 
01030040004000000000000000000000000000000000000GRN       STRAIGHT PARTY                                          GREEN PARTY                           PRECINCT 115                                           01 
01030040005000000000000000000000000000000000000GRN       STRAIGHT PARTY                                          GREEN PARTY                           PRECINCT 117                                           01 
01030040006000000000000000000000000000000000000GRN       STRAIGHT PARTY                                          GREEN PARTY                           PRECINCT 121                                           01 
01030040007000000000000000000000000000000000000GRN       STRAIGHT PARTY                                          GREEN PARTY                           PRECINCT 202                                           01 
01030040008000002000001000001000000000000000000GRN       STRAIGHT PARTY                                          GREEN PARTY                           PRECINCT 203                                           01 
01030040009000003000002000001000000000000000000GRN       STRAIGHT PARTY                                          GREEN PARTY                           PRECINCT 205                                           01 
01030040010000000000000000000000000000000000000GRN       STRAIGHT PARTY                                          GREEN PARTY                           PRECINCT 208                                           01 
01030040011000000000000000000000000000000000000GRN       STRAIGHT PARTY                                          GREEN PARTY                           PRECINCT 307                                           01 
01030040012000000000000000000000000000000000000GRN       STRAIGHT PARTY                                          GREEN PARTY                           PRECINCT 311                                           01 
01030040013000000000000000000000000000000000000GRN       STRAIGHT PARTY                                          GREEN PARTY                           PRECINCT 312                                           01 
01030040014000001000000000001000000000000000000GRN       STRAIGHT PARTY                                          GREEN PARTY                           PRECINCT 316                                           01 
01030040015000000000000000000000000000000000000GRN       STRAIGHT PARTY                                          GREEN PARTY                           PRECINCT 320                                           01 
01030040016000001000001000000000000000000000000GRN       STRAIGHT PARTY                                          GREEN PARTY                           PRECINCT 406                                           01 
01030040017000000000000000000000000000000000000GRN       STRAIGHT PARTY                                          GREEN PARTY                           PRECINCT 410                                           01 
01030040018000000000000000000000000000000000000GRN       STRAIGHT PARTY                                          GREEN PARTY                           PRECINCT 413                                           01 
01030040019000000000000000000000000000000000000GRN       STRAIGHT PARTY                                          GREEN PARTY                           PRECINCT 414                                           01 
01030040020000000000000000000000000000000000000GRN       STRAIGHT PARTY                                          GREEN PARTY                           PRECINCT 418                                           01 
01030040021000001000001000000000000000000000000GRN       STRAIGHT PARTY                                          GREEN PARTY                           PRECINCT 419                                           01 
01030050001000000000000000000000000000000000000          STRAIGHT PARTY                                          OVER VOTES                            PRECINCT 101                                           01 
01030050002000000000000000000000000000000000000          STRAIGHT PARTY                                          OVER VOTES                            PRECINCT 104                                           01 
01030050003000000000000000000000000000000000000          STRAIGHT PARTY                                          OVER VOTES                            PRECINCT 109                                           01 
01030050004000000000000000000000000000000000000          STRAIGHT PARTY                                          OVER VOTES                            PRECINCT 115                                           01 
01030050005000000000000000000000000000000000000          STRAIGHT PARTY                                          OVER VOTES                            PRECINCT 117                                           01 
01030050006000000000000000000000000000000000000          STRAIGHT PARTY                                          OVER VOTES                            PRECINCT 121                                           01 
01030050007000000000000000000000000000000000000          STRAIGHT PARTY                                          OVER VOTES                            PRECINCT 202                                           01 
01030050008000000000000000000000000000000000000          STRAIGHT PARTY                                          OVER VOTES                            PRECINCT 203                                           01 
01030050009000000000000000000000000000000000000          STRAIGHT PARTY                                          OVER VOTES                            PRECINCT 205                                           01 
01030050010000000000000000000000000000000000000          STRAIGHT PARTY                                          OVER VOTES                            PRECINCT 208                                           01 
01030050011000000000000000000000000000000000000          STRAIGHT PARTY                                          OVER VOTES                            PRECINCT 307                                           01 
01030050012000000000000000000000000000000000000          STRAIGHT PARTY                                          OVER VOTES                            PRECINCT 311                                           01 
01030050013000000000000000000000000000000000000          STRAIGHT PARTY                                          OVER VOTES                            PRECINCT 312                                           01 
01030050014000000000000000000000000000000000000          STRAIGHT PARTY                                          OVER VOTES                            PRECINCT 316                                           01 
01030050015000000000000000000000000000000000000          STRAIGHT PARTY                                          OVER VOTES                            PRECINCT 320                                           01 
01030050016000000000000000000000000000000000000          STRAIGHT PARTY                                          OVER VOTES                            PRECINCT 406                                           01 
01030050017000000000000000000000000000000000000          STRAIGHT PARTY                                          OVER VOTES                            PRECINCT 410                                           01 
01030050018000000000000000000000000000000000000          STRAIGHT PARTY                                          OVER VOTES                            PRECINCT 413                                           01 
01030050019000000000000000000000000000000000000          STRAIGHT PARTY                                          OVER VOTES                            PRECINCT 414                                           01 
01030050020000000000000000000000000000000000000          STRAIGHT PARTY                                          OVER VOTES                            PRECINCT 418                                           01 
01030050021000000000000000000000000000000000000          STRAIGHT PARTY                                          OVER VOTES                            PRECINCT 419                                           01 
01030060001000294000151000143000000000000000000          STRAIGHT PARTY                                          UNDER VOTES                           PRECINCT 101                                           01 
01030060002000261000163000098000000000000000000          STRAIGHT PARTY                                          UNDER VOTES                           PRECINCT 104                                           01 
01030060003000289000156000133000000000000000000          STRAIGHT PARTY                                          UNDER VOTES                           PRECINCT 109                                           01 
01030060004000234000160000074000000000000000000          STRAIGHT PARTY                                          UNDER VOTES                           PRECINCT 115                                           01 
01030060005000015000009000006000000000000000000          STRAIGHT PARTY                                          UNDER VOTES                           PRECINCT 117                                           01 
01030060006000021000021000000000000000000000000          STRAIGHT PARTY                                          UNDER VOTES                           PRECINCT 121                                           01 
01030060007000034000021000013000000000000000000          STRAIGHT PARTY                                          UNDER VOTES                           PRECINCT 202                                           01 
01030060008000478000274000204000000000000000000          STRAIGHT PARTY                                          UNDER VOTES                           PRECINCT 203                                           01 
01030060009000640000449000191000000000000000000          STRAIGHT PARTY                                          UNDER VOTES                           PRECINCT 205                                           01 
01030060010000408000252000156000000000000000000          STRAIGHT PARTY                                          UNDER VOTES                           PRECINCT 208                                           01 
01030060011000392000254000138000000000000000000          STRAIGHT PARTY                                          UNDER VOTES                           PRECINCT 307                                           01 
01030060012000312000165000147000000000000000000          STRAIGHT PARTY                                          UNDER VOTES                           PRECINCT 311                                           01 
01030060013000327000183000144000000000000000000          STRAIGHT PARTY                                          UNDER VOTES                           PRECINCT 312                                           01 
01030060014000059000040000019000000000000000000          STRAIGHT PARTY                                          UNDER VOTES                           PRECINCT 316                                           01 
01030060015000580000408000172000000000000000000          STRAIGHT PARTY                                          UNDER VOTES                           PRECINCT 320                                           01 
01030060016000476000334000142000000000000000000          STRAIGHT PARTY                                          UNDER VOTES                           PRECINCT 406                                           01 
01030060017000338000167000171000000000000000000          STRAIGHT PARTY                                          UNDER VOTES                           PRECINCT 410                                           01 
01030060018000261000134000127000000000000000000          STRAIGHT PARTY                                          UNDER VOTES                           PRECINCT 413                                           01 
01030060019000276000201000075000000000000000000          STRAIGHT PARTY                                          UNDER VOTES                           PRECINCT 414                                           01 
01030060020000166000108000058000000000000000000          STRAIGHT PARTY                                          UNDER VOTES                           PRECINCT 418                                           01 
01030060021000190000142000048000000000000000000          STRAIGHT PARTY                                          UNDER VOTES                           PRECINCT 419                                           01 
01040010001000458000257000201000000000000000000REP       President and Vice-President                            Mitt Romney / Paul Ryan               PRECINCT 101                                           01 
01040010002000228000144000084000000000000000000REP       President and Vice-President                            Mitt Romney / Paul Ryan               PRECINCT 104                                           01 
01040010003000570000322000248000000000000000000REP       President and Vice-President                            Mitt Romney / Paul Ryan               PRECINCT 109                                           01 
01040010004000415000298000117000000000000000000REP       President and Vice-President                            Mitt Romney / Paul Ryan               PRECINCT 115                                           01 
01040010005000008000001000007000000000000000000REP       President and Vice-President                            Mitt Romney / Paul Ryan               PRECINCT 117                                           01 
01040010006000033000033000000000000000000000000REP       President and Vice-President                            Mitt Romney / Paul Ryan               PRECINCT 121                                           01 
01040010007000080000050000030000000000000000000REP       President and Vice-President                            Mitt Romney / Paul Ryan               PRECINCT 202                                           01 
01040010008000984000639000345000000000000000000REP       President and Vice-President                            Mitt Romney / Paul Ryan               PRECINCT 203                                           01 
01040010009001164000866000298000000000000000000REP       President and Vice-President                            Mitt Romney / Paul Ryan               PRECINCT 205                                           01 
01040010010000875000581000294000000000000000000REP       President and Vice-President                            Mitt Romney / Paul Ryan               PRECINCT 208                                           01 
01040010011000726000508000218000000000000000000REP       President and Vice-President                            Mitt Romney / Paul Ryan               PRECINCT 307                                           01 
01040010012000630000343000287000000000000000000REP       President and Vice-President                            Mitt Romney / Paul Ryan               PRECINCT 311                                           01 
01040010013000635000393000242000000000000000000REP       President and Vice-President                            Mitt Romney / Paul Ryan               PRECINCT 312                                           01 
01040010014000109000078000031000000000000000000REP       President and Vice-President                            Mitt Romney / Paul Ryan               PRECINCT 316                                           01 
01040010015001106000808000298000000000000000000REP       President and Vice-President                            Mitt Romney / Paul Ryan               PRECINCT 320                                           01 
01040010016000760000563000197000000000000000000REP       President and Vice-President                            Mitt Romney / Paul Ryan               PRECINCT 406                                           01 
01040010017000571000285000286000000000000000000REP       President and Vice-President                            Mitt Romney / Paul Ryan               PRECINCT 410                                           01 
01040010018000462000246000216000000000000000000REP       President and Vice-President                            Mitt Romney / Paul Ryan               PRECINCT 413                                           01 
01040010019000510000368000142000000000000000000REP       President and Vice-President                            Mitt Romney / Paul Ryan               PRECINCT 414                                           01 
01040010020000238000161000077000000000000000000REP       President and Vice-President                            Mitt Romney / Paul Ryan               PRECINCT 418                                           01 
01040010021000295000237000058000000000000000000REP       President and Vice-President                            Mitt Romney / Paul Ryan               PRECINCT 419                                           01 
01040020001000343000167000176000000000000000000DEM       President and Vice-President                            Barack Obama / Joe Biden              PRECINCT 101                                           01 
01040020002000762000497000265000000000000000000DEM       President and Vice-President                            Barack Obama / Joe Biden              PRECINCT 104                                           01 
01040020003000120000061000059000000000000000000DEM       President and Vice-President                            Barack Obama / Joe Biden              PRECINCT 109                                           01 
01040020004000143000091000052000000000000000000DEM       President and Vice-President                            Barack Obama / Joe Biden              PRECINCT 115                                           01 
01040020005000070000028000042000000000000000000DEM       President and Vice-President                            Barack Obama / Joe Biden              PRECINCT 117                                           01 
01040020006000019000019000000000000000000000000DEM       President and Vice-President                            Barack Obama / Joe Biden              PRECINCT 121                                           01 
01040020007000040000025000015000000000000000000DEM       President and Vice-President                            Barack Obama / Joe Biden              PRECINCT 202                                           01 
01040020008000240000108000132000000000000000000DEM       President and Vice-President                            Barack Obama / Joe Biden              PRECINCT 203                                           01 
01040020009000271000188000083000000000000000000DEM       President and Vice-President                            Barack Obama / Joe Biden              PRECINCT 205                                           01 
01040020010000120000072000048000000000000000000DEM       President and Vice-President                            Barack Obama / Joe Biden              PRECINCT 208                                           01 
01040020011000214000125000089000000000000000000DEM       President and Vice-President                            Barack Obama / Joe Biden              PRECINCT 307                                           01 
01040020012000128000073000055000000000000000000DEM       President and Vice-President                            Barack Obama / Joe Biden              PRECINCT 311                                           01 
01040020013000116000048000068000000000000000000DEM       President and Vice-President                            Barack Obama / Joe Biden              PRECINCT 312                                           01 
01040020014000026000020000006000000000000000000DEM       President and Vice-President                            Barack Obama / Joe Biden              PRECINCT 316                                           01 
01040020015000138000089000049000000000000000000DEM       President and Vice-President                            Barack Obama / Joe Biden              PRECINCT 320                                           01 
01040020016000183000117000066000000000000000000DEM       President and Vice-President                            Barack Obama / Joe Biden              PRECINCT 406                                           01 
01040020017000150000070000080000000000000000000DEM       President and Vice-President                            Barack Obama / Joe Biden              PRECINCT 410                                           01 
01040020018000046000031000015000000000000000000DEM       President and Vice-President                            Barack Obama / Joe Biden              PRECINCT 413                                           01 
01040020019000053000032000021000000000000000000DEM       President and Vice-President                            Barack Obama / Joe Biden              PRECINCT 414                                           01 
01040020020000098000061000037000000000000000000DEM       President and Vice-President                            Barack Obama / Joe Biden              PRECINCT 418                                           01 
01040020021000101000067000034000000000000000000DEM       President and Vice-President                            Barack Obama / Joe Biden              PRECINCT 419                                           01 
01040030001000008000004000004000000000000000000LIB       President and Vice-President                            Gary Johnson / Jim Gray               PRECINCT 101                                           01 
01040030002000005000002000003000000000000000000LIB       President and Vice-President                            Gary Johnson / Jim Gray               PRECINCT 104                                           01 
01040030003000004000001000003000000000000000000LIB       President and Vice-President                            Gary Johnson / Jim Gray               PRECINCT 109                                           01 
01040030004000003000001000002000000000000000000LIB       President and Vice-President                            Gary Johnson / Jim Gray               PRECINCT 115                                           01 
01040030005000000000000000000000000000000000000LIB       President and Vice-President                            Gary Johnson / Jim Gray               PRECINCT 117                                           01 
01040030006000000000000000000000000000000000000LIB       President and Vice-President                            Gary Johnson / Jim Gray               PRECINCT 121                                           01 
01040030007000001000000000001000000000000000000LIB       President and Vice-President                            Gary Johnson / Jim Gray               PRECINCT 202                                           01 
01040030008000011000007000004000000000000000000LIB       President and Vice-President                            Gary Johnson / Jim Gray               PRECINCT 203                                           01 
01040030009000016000007000009000000000000000000LIB       President and Vice-President                            Gary Johnson / Jim Gray               PRECINCT 205                                           01 
01040030010000008000003000005000000000000000000LIB       President and Vice-President                            Gary Johnson / Jim Gray               PRECINCT 208                                           01 
01040030011000005000002000003000000000000000000LIB       President and Vice-President                            Gary Johnson / Jim Gray               PRECINCT 307                                           01 
01040030012000013000005000008000000000000000000LIB       President and Vice-President                            Gary Johnson / Jim Gray               PRECINCT 311                                           01 
01040030013000006000001000005000000000000000000LIB       President and Vice-President                            Gary Johnson / Jim Gray               PRECINCT 312                                           01 
01040030014000002000000000002000000000000000000LIB       President and Vice-President                            Gary Johnson / Jim Gray               PRECINCT 316                                           01 
01040030015000009000006000003000000000000000000LIB       President and Vice-President                            Gary Johnson / Jim Gray               PRECINCT 320                                           01 
01040030016000015000009000006000000000000000000LIB       President and Vice-President                            Gary Johnson / Jim Gray               PRECINCT 406                                           01 
01040030017000003000001000002000000000000000000LIB       President and Vice-President                            Gary Johnson / Jim Gray               PRECINCT 410                                           01 
01040030018000006000002000004000000000000000000LIB       President and Vice-President                            Gary Johnson / Jim Gray               PRECINCT 413                                           01 
01040030019000005000003000002000000000000000000LIB       President and Vice-President                            Gary Johnson / Jim Gray               PRECINCT 414                                           01 
01040030020000005000004000001000000000000000000LIB       President and Vice-President                            Gary Johnson / Jim Gray               PRECINCT 418                                           01 
01040030021000002000002000000000000000000000000LIB       President and Vice-President                            Gary Johnson / Jim Gray               PRECINCT 419                                           01 
01040040001000003000003000000000000000000000000GRN       President and Vice-President                            Jill Stein / Cheri Honkala            PRECINCT 101                                           01 
01040040002000000000000000000000000000000000000GRN       President and Vice-President                            Jill Stein / Cheri Honkala            PRECINCT 104                                           01 
01040040003000001000000000001000000000000000000GRN       President and Vice-President                            Jill Stein / Cheri Honkala            PRECINCT 109                                           01 
01040040004000000000000000000000000000000000000GRN       President and Vice-President                            Jill Stein / Cheri Honkala            PRECINCT 115                                           01 
01040040005000000000000000000000000000000000000GRN       President and Vice-President                            Jill Stein / Cheri Honkala            PRECINCT 117                                           01 
01040040006000000000000000000000000000000000000GRN       President and Vice-President                            Jill Stein / Cheri Honkala            PRECINCT 121                                           01 
01040040007000000000000000000000000000000000000GRN       President and Vice-President                            Jill Stein / Cheri Honkala            PRECINCT 202                                           01 
01040040008000000000000000000000000000000000000GRN       President and Vice-President                            Jill Stein / Cheri Honkala            PRECINCT 203                                           01 
01040040009000005000003000002000000000000000000GRN       President and Vice-President                            Jill Stein / Cheri Honkala            PRECINCT 205                                           01 
01040040010000000000000000000000000000000000000GRN       President and Vice-President                            Jill Stein / Cheri Honkala            PRECINCT 208                                           01 
01040040011000001000001000000000000000000000000GRN       President and Vice-President                            Jill Stein / Cheri Honkala            PRECINCT 307                                           01 
01040040012000001000001000000000000000000000000GRN       President and Vice-President                            Jill Stein / Cheri Honkala            PRECINCT 311                                           01 
01040040013000000000000000000000000000000000000GRN       President and Vice-President                            Jill Stein / Cheri Honkala            PRECINCT 312                                           01 
01040040014000000000000000000000000000000000000GRN       President and Vice-President                            Jill Stein / Cheri Honkala            PRECINCT 316                                           01 
01040040015000002000002000000000000000000000000GRN       President and Vice-President                            Jill Stein / Cheri Honkala            PRECINCT 320                                           01 
01040040016000002000002000000000000000000000000GRN       President and Vice-President                            Jill Stein / Cheri Honkala            PRECINCT 406                                           01 
01040040017000000000000000000000000000000000000GRN       President and Vice-President                            Jill Stein / Cheri Honkala            PRECINCT 410                                           01 
01040040018000001000000000001000000000000000000GRN       President and Vice-President                            Jill Stein / Cheri Honkala            PRECINCT 413                                           01 
01040040019000001000001000000000000000000000000GRN       President and Vice-President                            Jill Stein / Cheri Honkala            PRECINCT 414                                           01 
01040040020000000000000000000000000000000000000GRN       President and Vice-President                            Jill Stein / Cheri Honkala            PRECINCT 418                                           01 
01040040021000001000001000000000000000000000000GRN       President and Vice-President                            Jill Stein / Cheri Honkala            PRECINCT 419                                           01 
01040050001000000000000000000000000000000000000NON       President and Vice-President                            WRITE-IN                              PRECINCT 101                                           01 
01040050002000003000001000002000000000000000000NON       President and Vice-President                            WRITE-IN                              PRECINCT 104                                           01 
01040050003000001000001000000000000000000000000NON       President and Vice-President                            WRITE-IN                              PRECINCT 109                                           01 
01040050004000002000002000000000000000000000000NON       President and Vice-President                            WRITE-IN                              PRECINCT 115                                           01 
01040050005000000000000000000000000000000000000NON       President and Vice-President                            WRITE-IN                              PRECINCT 117                                           01 
01040050006000001000001000000000000000000000000NON       President and Vice-President                            WRITE-IN                              PRECINCT 121                                           01 
01040050007000001000001000000000000000000000000NON       President and Vice-President                            WRITE-IN                              PRECINCT 202                                           01 
01040050008000002000001000001000000000000000000NON       President and Vice-President                            WRITE-IN                              PRECINCT 203                                           01 
01040050009000004000004000000000000000000000000NON       President and Vice-President                            WRITE-IN                              PRECINCT 205                                           01 
01040050010000003000002000001000000000000000000NON       President and Vice-President                            WRITE-IN                              PRECINCT 208                                           01 
01040050011000002000000000002000000000000000000NON       President and Vice-President                            WRITE-IN                              PRECINCT 307                                           01 
01040050012000002000001000001000000000000000000NON       President and Vice-President                            WRITE-IN                              PRECINCT 311                                           01 
01040050013000002000001000001000000000000000000NON       President and Vice-President                            WRITE-IN                              PRECINCT 312                                           01 
01040050014000000000000000000000000000000000000NON       President and Vice-President                            WRITE-IN                              PRECINCT 316                                           01 
01040050015000003000002000001000000000000000000NON       President and Vice-President                            WRITE-IN                              PRECINCT 320                                           01 
01040050016000004000002000002000000000000000000NON       President and Vice-President                            WRITE-IN                              PRECINCT 406                                           01 
01040050017000004000001000003000000000000000000NON       President and Vice-President                            WRITE-IN                              PRECINCT 410                                           01 
01040050018000001000001000000000000000000000000NON       President and Vice-President                            WRITE-IN                              PRECINCT 413                                           01 
01040050019000001000000000001000000000000000000NON       President and Vice-President                            WRITE-IN                              PRECINCT 414                                           01 
01040050020000005000005000000000000000000000000NON       President and Vice-President                            WRITE-IN                              PRECINCT 418                                           01 
01040050021000002000000000002000000000000000000NON       President and Vice-President                            WRITE-IN                              PRECINCT 419                                           01 
01040060001000000000000000000000000000000000000          President and Vice-President                            OVER VOTES                            PRECINCT 101                                           01 
01040060002000000000000000000000000000000000000          President and Vice-President                            OVER VOTES                            PRECINCT 104                                           01 
01040060003000000000000000000000000000000000000          President and Vice-President                            OVER VOTES                            PRECINCT 109                                           01 
01040060004000000000000000000000000000000000000          President and Vice-President                            OVER VOTES                            PRECINCT 115                                           01 
01040060005000000000000000000000000000000000000          President and Vice-President                            OVER VOTES                            PRECINCT 117                                           01 
01040060006000000000000000000000000000000000000          President and Vice-President                            OVER VOTES                            PRECINCT 121                                           01 
01040060007000000000000000000000000000000000000          President and Vice-President                            OVER VOTES                            PRECINCT 202                                           01 
01040060008000000000000000000000000000000000000          President and Vice-President                            OVER VOTES                            PRECINCT 203                                           01 
01040060009000000000000000000000000000000000000          President and Vice-President                            OVER VOTES                            PRECINCT 205                                           01 
01040060010000000000000000000000000000000000000          President and Vice-President                            OVER VOTES                            PRECINCT 208                                           01 
01040060011000000000000000000000000000000000000          President and Vice-President                            OVER VOTES                            PRECINCT 307                                           01 
01040060012000000000000000000000000000000000000          President and Vice-President                            OVER VOTES                            PRECINCT 311                                           01 
01040060013000000000000000000000000000000000000          President and Vice-President                            OVER VOTES                            PRECINCT 312                                           01 
01040060014000000000000000000000000000000000000          President and Vice-President                            OVER VOTES                            PRECINCT 316                                           01 
01040060015000000000000000000000000000000000000          President and Vice-President                            OVER VOTES                            PRECINCT 320                                           01 
01040060016000000000000000000000000000000000000          President and Vice-President                            OVER VOTES                            PRECINCT 406                                           01 
01040060017000000000000000000000000000000000000          President and Vice-President                            OVER VOTES                            PRECINCT 410                                           01 
01040060018000000000000000000000000000000000000          President and Vice-President                            OVER VOTES                            PRECINCT 413                                           01 
01040060019000000000000000000000000000000000000          President and Vice-President                            OVER VOTES                            PRECINCT 414                                           01 
01040060020000000000000000000000000000000000000          President and Vice-President                            OVER VOTES                            PRECINCT 418                                           01 
01040060021000000000000000000000000000000000000          President and Vice-President                            OVER VOTES                            PRECINCT 419                                           01 
01040070001000006000001000005000000000000000000          President and Vice-President                            UNDER VOTES                           PRECINCT 101                                           01 
01040070002000007000005000002000000000000000000          President and Vice-President                            UNDER VOTES                           PRECINCT 104                                           01 
01040070003000001000000000001000000000000000000          President and Vice-President                            UNDER VOTES                           PRECINCT 109                                           01 
01040070004000001000000000001000000000000000000          President and Vice-President                            UNDER VOTES                           PRECINCT 115                                           01 
01040070005000000000000000000000000000000000000          President and Vice-President                            UNDER VOTES                           PRECINCT 117                                           01 
01040070006000000000000000000000000000000000000          President and Vice-President                            UNDER VOTES                           PRECINCT 121                                           01 
01040070007000000000000000000000000000000000000          President and Vice-President                            UNDER VOTES                           PRECINCT 202                                           01 
01040070008000004000001000003000000000000000000          President and Vice-President                            UNDER VOTES                           PRECINCT 203                                           01 
01040070009000003000002000001000000000000000000          President and Vice-President                            UNDER VOTES                           PRECINCT 205                                           01 
01040070010000003000002000001000000000000000000          President and Vice-President                            UNDER VOTES                           PRECINCT 208                                           01 
01040070011000005000000000005000000000000000000          President and Vice-President                            UNDER VOTES                           PRECINCT 307                                           01 
01040070012000002000000000002000000000000000000          President and Vice-President                            UNDER VOTES                           PRECINCT 311                                           01 
01040070013000003000000000003000000000000000000          President and Vice-President                            UNDER VOTES                           PRECINCT 312                                           01 
01040070014000000000000000000000000000000000000          President and Vice-President                            UNDER VOTES                           PRECINCT 316                                           01 
01040070015000005000002000003000000000000000000          President and Vice-President                            UNDER VOTES                           PRECINCT 320                                           01 
01040070016000003000001000002000000000000000000          President and Vice-President                            UNDER VOTES                           PRECINCT 406                                           01 
01040070017000001000001000000000000000000000000          President and Vice-President                            UNDER VOTES                           PRECINCT 410                                           01 
01040070018000000000000000000000000000000000000          President and Vice-President                            UNDER VOTES                           PRECINCT 413                                           01 
01040070019000000000000000000000000000000000000          President and Vice-President                            UNDER VOTES                           PRECINCT 414                                           01 
01040070020000001000000000001000000000000000000          President and Vice-President                            UNDER VOTES                           PRECINCT 418                                           01 
01040070021000000000000000000000000000000000000          President and Vice-President                            UNDER VOTES                           PRECINCT 419                                           01 
01050010001000444000248000196000000000000000000REP       United States Senator                                   Ted Cruz                              PRECINCT 101                                           01 
01050010002000237000145000092000000000000000000REP       United States Senator                                   Ted Cruz                              PRECINCT 104                                           01 
01050010003000542000305000237000000000000000000REP       United States Senator                                   Ted Cruz                              PRECINCT 109                                           01 
01050010004000402000288000114000000000000000000REP       United States Senator                                   Ted Cruz                              PRECINCT 115                                           01 
01050010005000012000001000011000000000000000000REP       United States Senator                                   Ted Cruz                              PRECINCT 117                                           01 
01050010006000034000034000000000000000000000000REP       United States Senator                                   Ted Cruz                              PRECINCT 121                                           01 
01050010007000078000049000029000000000000000000REP       United States Senator                                   Ted Cruz                              PRECINCT 202                                           01 
01050010008000957000629000328000000000000000000REP       United States Senator                                   Ted Cruz                              PRECINCT 203                                           01 
01050010009001128000838000290000000000000000000REP       United States Senator                                   Ted Cruz                              PRECINCT 205                                           01 
01050010010000847000569000278000000000000000000REP       United States Senator                                   Ted Cruz                              PRECINCT 208                                           01 
01050010011000701000492000209000000000000000000REP       United States Senator                                   Ted Cruz                              PRECINCT 307                                           01 
01050010012000624000339000285000000000000000000REP       United States Senator                                   Ted Cruz                              PRECINCT 311                                           01 
01050010013000620000384000236000000000000000000REP       United States Senator                                   Ted Cruz                              PRECINCT 312                                           01 
01050010014000101000071000030000000000000000000REP       United States Senator                                   Ted Cruz                              PRECINCT 316                                           01 
01050010015001074000779000295000000000000000000REP       United States Senator                                   Ted Cruz                              PRECINCT 320                                           01 
01050010016000725000535000190000000000000000000REP       United States Senator                                   Ted Cruz                              PRECINCT 406                                           01 
01050010017000537000273000264000000000000000000REP       United States Senator                                   Ted Cruz                              PRECINCT 410                                           01 
01050010018000443000237000206000000000000000000REP       United States Senator                                   Ted Cruz                              PRECINCT 413                                           01 
01050010019000494000361000133000000000000000000REP       United States Senator                                   Ted Cruz                              PRECINCT 414                                           01 
01050010020000232000157000075000000000000000000REP       United States Senator                                   Ted Cruz                              PRECINCT 418                                           01 
01050010021000281000224000057000000000000000000REP       United States Senator                                   Ted Cruz                              PRECINCT 419                                           01 
01050020001000356000176000180000000000000000000DEM       United States Senator                                   Paul Sadler                           PRECINCT 101                                           01 
01050020002000734000484000250000000000000000000DEM       United States Senator                                   Paul Sadler                           PRECINCT 104                                           01 
01050020003000130000069000061000000000000000000DEM       United States Senator                                   Paul Sadler                           PRECINCT 109                                           01 
01050020004000142000093000049000000000000000000DEM       United States Senator                                   Paul Sadler                           PRECINCT 115                                           01 
01050020005000064000028000036000000000000000000DEM       United States Senator                                   Paul Sadler                           PRECINCT 117                                           01 
01050020006000017000017000000000000000000000000DEM       United States Senator                                   Paul Sadler                           PRECINCT 121                                           01 
01050020007000040000024000016000000000000000000DEM       United States Senator                                   Paul Sadler                           PRECINCT 202                                           01 
01050020008000236000102000134000000000000000000DEM       United States Senator                                   Paul Sadler                           PRECINCT 203                                           01 
01050020009000262000178000084000000000000000000DEM       United States Senator                                   Paul Sadler                           PRECINCT 205                                           01 
01050020010000126000074000052000000000000000000DEM       United States Senator                                   Paul Sadler                           PRECINCT 208                                           01 
01050020011000209000123000086000000000000000000DEM       United States Senator                                   Paul Sadler                           PRECINCT 307                                           01 
01050020012000127000078000049000000000000000000DEM       United States Senator                                   Paul Sadler                           PRECINCT 311                                           01 
01050020013000116000046000070000000000000000000DEM       United States Senator                                   Paul Sadler                           PRECINCT 312                                           01 
01050020014000025000021000004000000000000000000DEM       United States Senator                                   Paul Sadler                           PRECINCT 316                                           01 
01050020015000155000109000046000000000000000000DEM       United States Senator                                   Paul Sadler                           PRECINCT 320                                           01 
01050020016000202000137000065000000000000000000DEM       United States Senator                                   Paul Sadler                           PRECINCT 406                                           01 
01050020017000158000075000083000000000000000000DEM       United States Senator                                   Paul Sadler                           PRECINCT 410                                           01 
01050020018000058000035000023000000000000000000DEM       United States Senator                                   Paul Sadler                           PRECINCT 413                                           01 
01050020019000054000030000024000000000000000000DEM       United States Senator                                   Paul Sadler                           PRECINCT 414                                           01 
01050020020000098000063000035000000000000000000DEM       United States Senator                                   Paul Sadler                           PRECINCT 418                                           01 
01050020021000101000071000030000000000000000000DEM       United States Senator                                   Paul Sadler                           PRECINCT 419                                           01 
01050030001000010000005000005000000000000000000LIB       United States Senator                                   John Jay Myers                        PRECINCT 101                                           01 
01050030002000011000005000006000000000000000000LIB       United States Senator                                   John Jay Myers                        PRECINCT 104                                           01 
01050030003000009000003000006000000000000000000LIB       United States Senator                                   John Jay Myers                        PRECINCT 109                                           01 
01050030004000005000002000003000000000000000000LIB       United States Senator                                   John Jay Myers                        PRECINCT 115                                           01 
01050030005000001000000000001000000000000000000LIB       United States Senator                                   John Jay Myers                        PRECINCT 117                                           01 
01050030006000002000002000000000000000000000000LIB       United States Senator                                   John Jay Myers                        PRECINCT 121                                           01 
01050030007000001000001000000000000000000000000LIB       United States Senator                                   John Jay Myers                        PRECINCT 202                                           01 
01050030008000020000011000009000000000000000000LIB       United States Senator                                   John Jay Myers                        PRECINCT 203                                           01 
01050030009000031000018000013000000000000000000LIB       United States Senator                                   John Jay Myers                        PRECINCT 205                                           01 
01050030010000013000007000006000000000000000000LIB       United States Senator                                   John Jay Myers                        PRECINCT 208                                           01 
01050030011000018000008000010000000000000000000LIB       United States Senator                                   John Jay Myers                        PRECINCT 307                                           01 
01050030012000011000002000009000000000000000000LIB       United States Senator                                   John Jay Myers                        PRECINCT 311                                           01 
01050030013000008000003000005000000000000000000LIB       United States Senator                                   John Jay Myers                        PRECINCT 312                                           01 
01050030014000002000000000002000000000000000000LIB       United States Senator                                   John Jay Myers                        PRECINCT 316                                           01 
01050030015000012000006000006000000000000000000LIB       United States Senator                                   John Jay Myers                        PRECINCT 320                                           01 
01050030016000019000010000009000000000000000000LIB       United States Senator                                   John Jay Myers                        PRECINCT 406                                           01 
01050030017000011000005000006000000000000000000LIB       United States Senator                                   John Jay Myers                        PRECINCT 410                                           01 
01050030018000008000004000004000000000000000000LIB       United States Senator                                   John Jay Myers                        PRECINCT 413                                           01 
01050030019000008000006000002000000000000000000LIB       United States Senator                                   John Jay Myers                        PRECINCT 414                                           01 
01050030020000010000009000001000000000000000000LIB       United States Senator                                   John Jay Myers                        PRECINCT 418                                           01 
01050030021000005000002000003000000000000000000LIB       United States Senator                                   John Jay Myers                        PRECINCT 419                                           01 
01050040001000002000000000002000000000000000000GRN       United States Senator                                   David B. Collins                      PRECINCT 101                                           01 
01050040002000004000002000002000000000000000000GRN       United States Senator                                   David B. Collins                      PRECINCT 104                                           01 
01050040003000002000001000001000000000000000000GRN       United States Senator                                   David B. Collins                      PRECINCT 109                                           01 
01050040004000002000001000001000000000000000000GRN       United States Senator                                   David B. Collins                      PRECINCT 115                                           01 
01050040005000000000000000000000000000000000000GRN       United States Senator                                   David B. Collins                      PRECINCT 117                                           01 
01050040006000000000000000000000000000000000000GRN       United States Senator                                   David B. Collins                      PRECINCT 121                                           01 
01050040007000001000001000000000000000000000000GRN       United States Senator                                   David B. Collins                      PRECINCT 202                                           01 
01050040008000004000002000002000000000000000000GRN       United States Senator                                   David B. Collins                      PRECINCT 203                                           01 
01050040009000009000008000001000000000000000000GRN       United States Senator                                   David B. Collins                      PRECINCT 205                                           01 
01050040010000005000001000004000000000000000000GRN       United States Senator                                   David B. Collins                      PRECINCT 208                                           01 
01050040011000007000004000003000000000000000000GRN       United States Senator                                   David B. Collins                      PRECINCT 307                                           01 
01050040012000004000002000002000000000000000000GRN       United States Senator                                   David B. Collins                      PRECINCT 311                                           01 
01050040013000000000000000000000000000000000000GRN       United States Senator                                   David B. Collins                      PRECINCT 312                                           01 
01050040014000001000001000000000000000000000000GRN       United States Senator                                   David B. Collins                      PRECINCT 316                                           01 
01050040015000006000003000003000000000000000000GRN       United States Senator                                   David B. Collins                      PRECINCT 320                                           01 
01050040016000007000005000002000000000000000000GRN       United States Senator                                   David B. Collins                      PRECINCT 406                                           01 
01050040017000001000001000000000000000000000000GRN       United States Senator                                   David B. Collins                      PRECINCT 410                                           01 
01050040018000000000000000000000000000000000000GRN       United States Senator                                   David B. Collins                      PRECINCT 413                                           01 
01050040019000003000002000001000000000000000000GRN       United States Senator                                   David B. Collins                      PRECINCT 414                                           01 
01050040020000002000001000001000000000000000000GRN       United States Senator                                   David B. Collins                      PRECINCT 418                                           01 
01050040021000003000002000001000000000000000000GRN       United States Senator                                   David B. Collins                      PRECINCT 419                                           01 
01050050001000000000000000000000000000000000000          United States Senator                                   OVER VOTES                            PRECINCT 101                                           01 
01050050002000000000000000000000000000000000000          United States Senator                                   OVER VOTES                            PRECINCT 104                                           01 
01050050003000000000000000000000000000000000000          United States Senator                                   OVER VOTES                            PRECINCT 109                                           01 
01050050004000000000000000000000000000000000000          United States Senator                                   OVER VOTES                            PRECINCT 115                                           01 
01050050005000000000000000000000000000000000000          United States Senator                                   OVER VOTES                            PRECINCT 117                                           01 
01050050006000000000000000000000000000000000000          United States Senator                                   OVER VOTES                            PRECINCT 121                                           01 
01050050007000000000000000000000000000000000000          United States Senator                                   OVER VOTES                            PRECINCT 202                                           01 
01050050008000000000000000000000000000000000000          United States Senator                                   OVER VOTES                            PRECINCT 203                                           01 
01050050009000000000000000000000000000000000000          United States Senator                                   OVER VOTES                            PRECINCT 205                                           01 
01050050010000000000000000000000000000000000000          United States Senator                                   OVER VOTES                            PRECINCT 208                                           01 
01050050011000000000000000000000000000000000000          United States Senator                                   OVER VOTES                            PRECINCT 307                                           01 
01050050012000000000000000000000000000000000000          United States Senator                                   OVER VOTES                            PRECINCT 311                                           01 
01050050013000000000000000000000000000000000000          United States Senator                                   OVER VOTES                            PRECINCT 312                                           01 
01050050014000000000000000000000000000000000000          United States Senator                                   OVER VOTES                            PRECINCT 316                                           01 
01050050015000000000000000000000000000000000000          United States Senator                                   OVER VOTES                            PRECINCT 320                                           01 
01050050016000000000000000000000000000000000000          United States Senator                                   OVER VOTES                            PRECINCT 406                                           01 
01050050017000000000000000000000000000000000000          United States Senator                                   OVER VOTES                            PRECINCT 410                                           01 
01050050018000000000000000000000000000000000000          United States Senator                                   OVER VOTES                            PRECINCT 413                                           01 
01050050019000000000000000000000000000000000000          United States Senator                                   OVER VOTES                            PRECINCT 414                                           01 
01050050020000000000000000000000000000000000000          United States Senator                                   OVER VOTES                            PRECINCT 418                                           01 
01050050021000000000000000000000000000000000000          United States Senator                                   OVER VOTES                            PRECINCT 419                                           01 
01050060001000006000003000003000000000000000000          United States Senator                                   UNDER VOTES                           PRECINCT 101                                           01 
01050060002000020000013000007000000000000000000          United States Senator                                   UNDER VOTES                           PRECINCT 104                                           01 
01050060003000014000007000007000000000000000000          United States Senator                                   UNDER VOTES                           PRECINCT 109                                           01 
01050060004000013000008000005000000000000000000          United States Senator                                   UNDER VOTES                           PRECINCT 115                                           01 
01050060005000001000000000001000000000000000000          United States Senator                                   UNDER VOTES                           PRECINCT 117                                           01 
01050060006000000000000000000000000000000000000          United States Senator                                   UNDER VOTES                           PRECINCT 121                                           01 
01050060007000002000001000001000000000000000000          United States Senator                                   UNDER VOTES                           PRECINCT 202                                           01 
01050060008000024000012000012000000000000000000          United States Senator                                   UNDER VOTES                           PRECINCT 203                                           01 
01050060009000033000028000005000000000000000000          United States Senator                                   UNDER VOTES                           PRECINCT 205                                           01 
01050060010000018000009000009000000000000000000          United States Senator                                   UNDER VOTES                           PRECINCT 208                                           01 
01050060011000018000009000009000000000000000000          United States Senator                                   UNDER VOTES                           PRECINCT 307                                           01 
01050060012000010000002000008000000000000000000          United States Senator                                   UNDER VOTES                           PRECINCT 311                                           01 
01050060013000018000010000008000000000000000000          United States Senator                                   UNDER VOTES                           PRECINCT 312                                           01 
01050060014000007000004000003000000000000000000          United States Senator                                   UNDER VOTES                           PRECINCT 316                                           01 
01050060015000016000012000004000000000000000000          United States Senator                                   UNDER VOTES                           PRECINCT 320                                           01 
01050060016000014000007000007000000000000000000          United States Senator                                   UNDER VOTES                           PRECINCT 406                                           01 
01050060017000022000004000018000000000000000000          United States Senator                                   UNDER VOTES                           PRECINCT 410                                           01 
01050060018000007000004000003000000000000000000          United States Senator                                   UNDER VOTES                           PRECINCT 413                                           01 
01050060019000011000005000006000000000000000000          United States Senator                                   UNDER VOTES                           PRECINCT 414                                           01 
01050060020000005000001000004000000000000000000          United States Senator                                   UNDER VOTES                           PRECINCT 418                                           01 
01050060021000011000008000003000000000000000000          United States Senator                                   UNDER VOTES                           PRECINCT 419                                           01 
01060010001000463000259000204000000000000000000REP       US Representative, District 10                          Michael McCaul                        PRECINCT 101                                           01 
01060010002000245000155000090000000000000000000REP       US Representative, District 10                          Michael McCaul                        PRECINCT 104                                           01 
01060010003000558000314000244000000000000000000REP       US Representative, District 10                          Michael McCaul                        PRECINCT 109                                           01 
01060010004000420000297000123000000000000000000REP       US Representative, District 10                          Michael McCaul                        PRECINCT 115                                           01 
01060010005000010000002000008000000000000000000REP       US Representative, District 10                          Michael McCaul                        PRECINCT 117                                           01 
01060010006000035000035000000000000000000000000REP       US Representative, District 10                          Michael McCaul                        PRECINCT 121                                           01 
01060010007000078000051000027000000000000000000REP       US Representative, District 10                          Michael McCaul                        PRECINCT 202                                           01 
01060010008000967000632000335000000000000000000REP       US Representative, District 10                          Michael McCaul                        PRECINCT 203                                           01 
01060010009001173000871000302000000000000000000REP       US Representative, District 10                          Michael McCaul                        PRECINCT 205                                           01 
01060010010000872000582000290000000000000000000REP       US Representative, District 10                          Michael McCaul                        PRECINCT 208                                           01 
01060010011000736000514000222000000000000000000REP       US Representative, District 10                          Michael McCaul                        PRECINCT 307                                           01 
01060010012000639000347000292000000000000000000REP       US Representative, District 10                          Michael McCaul                        PRECINCT 311                                           01 
01060010013000632000389000243000000000000000000REP       US Representative, District 10                          Michael McCaul                        PRECINCT 312                                           01 
01060010014000104000074000030000000000000000000REP       US Representative, District 10                          Michael McCaul                        PRECINCT 316                                           01 
01060010015001108000805000303000000000000000000REP       US Representative, District 10                          Michael McCaul                        PRECINCT 320                                           01 
01060010016000760000565000195000000000000000000REP       US Representative, District 10                          Michael McCaul                        PRECINCT 406                                           01 
01060010017000573000291000282000000000000000000REP       US Representative, District 10                          Michael McCaul                        PRECINCT 410                                           01 
01060010018000458000244000214000000000000000000REP       US Representative, District 10                          Michael McCaul                        PRECINCT 413                                           01 
01060010019000504000364000140000000000000000000REP       US Representative, District 10                          Michael McCaul                        PRECINCT 414                                           01 
01060010020000236000159000077000000000000000000REP       US Representative, District 10                          Michael McCaul                        PRECINCT 418                                           01 
01060010021000295000234000061000000000000000000REP       US Representative, District 10                          Michael McCaul                        PRECINCT 419                                           01 
01060020001000326000160000166000000000000000000DEM       US Representative, District 10                          Tawana W. Cadien                      PRECINCT 101                                           01 
01060020002000714000467000247000000000000000000DEM       US Representative, District 10                          Tawana W. Cadien                      PRECINCT 104                                           01 
01060020003000109000058000051000000000000000000DEM       US Representative, District 10                          Tawana W. Cadien                      PRECINCT 109                                           01 
01060020004000129000087000042000000000000000000DEM       US Representative, District 10                          Tawana W. Cadien                      PRECINCT 115                                           01 
01060020005000068000027000041000000000000000000DEM       US Representative, District 10                          Tawana W. Cadien                      PRECINCT 117                                           01 
01060020006000018000018000000000000000000000000DEM       US Representative, District 10                          Tawana W. Cadien                      PRECINCT 121                                           01 
01060020007000039000023000016000000000000000000DEM       US Representative, District 10                          Tawana W. Cadien                      PRECINCT 202                                           01 
01060020008000211000091000120000000000000000000DEM       US Representative, District 10                          Tawana W. Cadien                      PRECINCT 203                                           01 
01060020009000227000155000072000000000000000000DEM       US Representative, District 10                          Tawana W. Cadien                      PRECINCT 205                                           01 
01060020010000107000065000042000000000000000000DEM       US Representative, District 10                          Tawana W. Cadien                      PRECINCT 208                                           01 
01060020011000181000103000078000000000000000000DEM       US Representative, District 10                          Tawana W. Cadien                      PRECINCT 307                                           01 
