01010010001002249000000000000000000000000000000          REGISTERED VOTERS - TOTAL                               REGISTERED VOTERS - TOTAL             PRECINCT 1001                                          00 
01010010002002278000000000000000000000000000000          REGISTERED VOTERS - TOTAL                               REGISTERED VOTERS - TOTAL             PRECINCT 1002                                          00 
01010010003004523000000000000000000000000000000          REGISTERED VOTERS - TOTAL                               REGISTERED VOTERS - TOTAL             PRECINCT 1003                                          00 
01010010004002127000000000000000000000000000000          REGISTERED VOTERS - TOTAL                               REGISTERED VOTERS - TOTAL             PRECINCT 1004                                          00 
01010010005002536000000000000000000000000000000          REGISTERED VOTERS - TOTAL                               REGISTERED VOTERS - TOTAL             PRECINCT 2005                                          00 
01010010006001235000000000000000000000000000000          REGISTERED VOTERS - TOTAL                               REGISTERED VOTERS - TOTAL             PRECINCT 2006                                          00 
01010010007001797000000000000000000000000000000          REGISTERED VOTERS - TOTAL                               REGISTERED VOTERS - TOTAL             PRECINCT 2007                                          00 
01010010008000847000000000000000000000000000000          REGISTERED VOTERS - TOTAL                               REGISTERED VOTERS - TOTAL             PRECINCT 2008                                          00 
01010010009001129000000000000000000000000000000          REGISTERED VOTERS - TOTAL                               REGISTERED VOTERS - TOTAL             PRECINCT 2009                                          00 
01010010010001101000000000000000000000000000000          REGISTERED VOTERS - TOTAL                               REGISTERED VOTERS - TOTAL             PRECINCT 2010                                          00 
01010010011002114000000000000000000000000000000          REGISTERED VOTERS - TOTAL                               REGISTERED VOTERS - TOTAL             PRECINCT 2011                                          00 
01010010012000801000000000000000000000000000000          REGISTERED VOTERS - TOTAL                               REGISTERED VOTERS - TOTAL             PRECINCT 3012                                          00 
01010010013001303000000000000000000000000000000          REGISTERED VOTERS - TOTAL                               REGISTERED VOTERS - TOTAL             PRECINCT 3013                                          00 
01010010014002144000000000000000000000000000000          REGISTERED VOTERS - TOTAL                               REGISTERED VOTERS - TOTAL             PRECINCT 3014                                          00 
01010010015002065000000000000000000000000000000          REGISTERED VOTERS - TOTAL                               REGISTERED VOTERS - TOTAL             PRECINCT 3015                                          00 
01010010016002389000000000000000000000000000000          REGISTERED VOTERS - TOTAL                               REGISTERED VOTERS - TOTAL             PRECINCT 3016                                          00 
01010010017002323000000000000000000000000000000          REGISTERED VOTERS - TOTAL                               REGISTERED VOTERS - TOTAL             PRECINCT 4017                                          00 
01010010018000514000000000000000000000000000000          REGISTERED VOTERS - TOTAL                               REGISTERED VOTERS - TOTAL             PRECINCT 4018                                          00 
01010010019002155000000000000000000000000000000          REGISTERED VOTERS - TOTAL                               REGISTERED VOTERS - TOTAL             PRECINCT 4019                                          00 
01010010020003201000000000000000000000000000000          REGISTERED VOTERS - TOTAL                               REGISTERED VOTERS - TOTAL             PRECINCT 4020                                          00 
01010010021001147000000000000000000000000000000          REGISTERED VOTERS - TOTAL                               REGISTERED VOTERS - TOTAL             PRECINCT 4021                                          00 
01020010001001492000987000505000000000000000000          BALLOTS CAST - TOTAL                                    BALLOTS CAST - TOTAL                  PRECINCT 1001                                          00 
01020010002001344000941000402000001000000000000          BALLOTS CAST - TOTAL                                    BALLOTS CAST - TOTAL                  PRECINCT 1002                                          00 
01020010003003004002151000852000001000000000000          BALLOTS CAST - TOTAL                                    BALLOTS CAST - TOTAL                  PRECINCT 1003                                          00 
01020010004001109000634000473000002000000000000          BALLOTS CAST - TOTAL                                    BALLOTS CAST - TOTAL                  PRECINCT 1004                                          00 
01020010005001568001077000490000001000000000000          BALLOTS CAST - TOTAL                                    BALLOTS CAST - TOTAL                  PRECINCT 2005                                          00 
01020010006000782000442000338000002000000000000          BALLOTS CAST - TOTAL                                    BALLOTS CAST - TOTAL                  PRECINCT 2006                                          00 
01020010007001177000738000439000000000000000000          BALLOTS CAST - TOTAL                                    BALLOTS CAST - TOTAL                  PRECINCT 2007                                          00 
01020010008000554000380000174000000000000000000          BALLOTS CAST - TOTAL                                    BALLOTS CAST - TOTAL                  PRECINCT 2008                                          00 
01020010009000663000437000225000001000000000000          BALLOTS CAST - TOTAL                                    BALLOTS CAST - TOTAL                  PRECINCT 2009                                          00 
01020010010000701000302000399000000000000000000          BALLOTS CAST - TOTAL                                    BALLOTS CAST - TOTAL                  PRECINCT 2010                                          00 
01020010011001258000809000446000003000000000000          BALLOTS CAST - TOTAL                                    BALLOTS CAST - TOTAL                  PRECINCT 2011                                          00 
01020010012000524000295000229000000000000000000          BALLOTS CAST - TOTAL                                    BALLOTS CAST - TOTAL                  PRECINCT 3012                                          00 
01020010013000869000469000399000001000000000000          BALLOTS CAST - TOTAL                                    BALLOTS CAST - TOTAL                  PRECINCT 3013                                          00 
01020010014001199000690000508000001000000000000          BALLOTS CAST - TOTAL                                    BALLOTS CAST - TOTAL                  PRECINCT 3014                                          00 
01020010015001166000723000441000002000000000000          BALLOTS CAST - TOTAL                                    BALLOTS CAST - TOTAL                  PRECINCT 3015                                          00 
01020010016001449000905000544000000000000000000          BALLOTS CAST - TOTAL                                    BALLOTS CAST - TOTAL                  PRECINCT 3016                                          00 
01020010017001389000928000461000000000000000000          BALLOTS CAST - TOTAL                                    BALLOTS CAST - TOTAL                  PRECINCT 4017                                          00 
01020010018000380000268000112000000000000000000          BALLOTS CAST - TOTAL                                    BALLOTS CAST - TOTAL                  PRECINCT 4018                                          00 
01020010019001426000854000570000002000000000000          BALLOTS CAST - TOTAL                                    BALLOTS CAST - TOTAL                  PRECINCT 4019                                          00 
01020010020001900001408000491000001000000000000          BALLOTS CAST - TOTAL                                    BALLOTS CAST - TOTAL                  PRECINCT 4020                                          00 
01020010021000731000308000422000001000000000000          BALLOTS CAST - TOTAL                                    BALLOTS CAST - TOTAL                  PRECINCT 4021                                          00 
01030010001000389000268000121000000000000000000REP       STRAIGHT PARTY                                          REPUBLICAN PARTY                      PRECINCT 1001                                          01 
01030010002000204000131000073000000000000000000REP       STRAIGHT PARTY                                          REPUBLICAN PARTY                      PRECINCT 1002                                          01 
01030010003000815000597000218000000000000000000REP       STRAIGHT PARTY                                          REPUBLICAN PARTY                      PRECINCT 1003                                          01 
01030010004000259000150000109000000000000000000REP       STRAIGHT PARTY                                          REPUBLICAN PARTY                      PRECINCT 1004                                          01 
01030010005000423000303000119000001000000000000REP       STRAIGHT PARTY                                          REPUBLICAN PARTY                      PRECINCT 2005                                          01 
01030010006000235000146000089000000000000000000REP       STRAIGHT PARTY                                          REPUBLICAN PARTY                      PRECINCT 2006                                          01 
01030010007000363000249000114000000000000000000REP       STRAIGHT PARTY                                          REPUBLICAN PARTY                      PRECINCT 2007                                          01 
01030010008000154000105000049000000000000000000REP       STRAIGHT PARTY                                          REPUBLICAN PARTY                      PRECINCT 2008                                          01 
01030010009000177000114000063000000000000000000REP       STRAIGHT PARTY                                          REPUBLICAN PARTY                      PRECINCT 2009                                          01 
01030010010000200000089000111000000000000000000REP       STRAIGHT PARTY                                          REPUBLICAN PARTY                      PRECINCT 2010                                          01 
01030010011000332000212000119000001000000000000REP       STRAIGHT PARTY                                          REPUBLICAN PARTY                      PRECINCT 2011                                          01 
01030010012000119000087000032000000000000000000REP       STRAIGHT PARTY                                          REPUBLICAN PARTY                      PRECINCT 3012                                          01 
01030010013000144000081000063000000000000000000REP       STRAIGHT PARTY                                          REPUBLICAN PARTY                      PRECINCT 3013                                          01 
01030010014000248000145000103000000000000000000REP       STRAIGHT PARTY                                          REPUBLICAN PARTY                      PRECINCT 3014                                          01 
01030010015000228000148000080000000000000000000REP       STRAIGHT PARTY                                          REPUBLICAN PARTY                      PRECINCT 3015                                          01 
01030010016000323000194000129000000000000000000REP       STRAIGHT PARTY                                          REPUBLICAN PARTY                      PRECINCT 3016                                          01 
01030010017000217000139000078000000000000000000REP       STRAIGHT PARTY                                          REPUBLICAN PARTY                      PRECINCT 4017                                          01 
01030010018000081000063000018000000000000000000REP       STRAIGHT PARTY                                          REPUBLICAN PARTY                      PRECINCT 4018                                          01 
01030010019000306000193000113000000000000000000REP       STRAIGHT PARTY                                          REPUBLICAN PARTY                      PRECINCT 4019                                          01 
01030010020000345000261000084000000000000000000REP       STRAIGHT PARTY                                          REPUBLICAN PARTY                      PRECINCT 4020                                          01 
01030010021000160000079000081000000000000000000REP       STRAIGHT PARTY                                          REPUBLICAN PARTY                      PRECINCT 4021                                          01 
01030020001000219000139000080000000000000000000DEM       STRAIGHT PARTY                                          DEMOCRATIC PARTY                      PRECINCT 1001                                          01 
01030020002000447000333000114000000000000000000DEM       STRAIGHT PARTY                                          DEMOCRATIC PARTY                      PRECINCT 1002                                          01 
01030020003000546000386000160000000000000000000DEM       STRAIGHT PARTY                                          DEMOCRATIC PARTY                      PRECINCT 1003                                          01 
01030020004000254000158000095000001000000000000DEM       STRAIGHT PARTY                                          DEMOCRATIC PARTY                      PRECINCT 1004                                          01 
01030020005000374000252000122000000000000000000DEM       STRAIGHT PARTY                                          DEMOCRATIC PARTY                      PRECINCT 2005                                          01 
01030020006000121000078000043000000000000000000DEM       STRAIGHT PARTY                                          DEMOCRATIC PARTY                      PRECINCT 2006                                          01 
01030020007000149000097000052000000000000000000DEM       STRAIGHT PARTY                                          DEMOCRATIC PARTY                      PRECINCT 2007                                          01 
01030020008000070000048000022000000000000000000DEM       STRAIGHT PARTY                                          DEMOCRATIC PARTY                      PRECINCT 2008                                          01 
01030020009000123000086000037000000000000000000DEM       STRAIGHT PARTY                                          DEMOCRATIC PARTY                      PRECINCT 2009                                          01 
01030020010000098000050000048000000000000000000DEM       STRAIGHT PARTY                                          DEMOCRATIC PARTY                      PRECINCT 2010                                          01 
01030020011000212000147000064000001000000000000DEM       STRAIGHT PARTY                                          DEMOCRATIC PARTY                      PRECINCT 2011                                          01 
01030020012000060000033000027000000000000000000DEM       STRAIGHT PARTY                                          DEMOCRATIC PARTY                      PRECINCT 3012                                          01 
01030020013000127000078000049000000000000000000DEM       STRAIGHT PARTY                                          DEMOCRATIC PARTY                      PRECINCT 3013                                          01 
01030020014000302000175000126000001000000000000DEM       STRAIGHT PARTY                                          DEMOCRATIC PARTY                      PRECINCT 3014                                          01 
01030020015000312000189000121000002000000000000DEM       STRAIGHT PARTY                                          DEMOCRATIC PARTY                      PRECINCT 3015                                          01 
01030020016000295000201000094000000000000000000DEM       STRAIGHT PARTY                                          DEMOCRATIC PARTY                      PRECINCT 3016                                          01 
01030020017000368000251000117000000000000000000DEM       STRAIGHT PARTY                                          DEMOCRATIC PARTY                      PRECINCT 4017                                          01 
01030020018000045000030000015000000000000000000DEM       STRAIGHT PARTY                                          DEMOCRATIC PARTY                      PRECINCT 4018                                          01 
01030020019000211000137000074000000000000000000DEM       STRAIGHT PARTY                                          DEMOCRATIC PARTY                      PRECINCT 4019                                          01 
01030020020000561000385000175000001000000000000DEM       STRAIGHT PARTY                                          DEMOCRATIC PARTY                      PRECINCT 4020                                          01 
01030020021000112000051000060000001000000000000DEM       STRAIGHT PARTY                                          DEMOCRATIC PARTY                      PRECINCT 4021                                          01 
01030030001000008000004000004000000000000000000LIB       STRAIGHT PARTY                                          LIBERTARIAN PARTY                     PRECINCT 1001                                          01 
01030030002000005000000000005000000000000000000LIB       STRAIGHT PARTY                                          LIBERTARIAN PARTY                     PRECINCT 1002                                          01 
01030030003000011000004000007000000000000000000LIB       STRAIGHT PARTY                                          LIBERTARIAN PARTY                     PRECINCT 1003                                          01 
01030030004000009000004000005000000000000000000LIB       STRAIGHT PARTY                                          LIBERTARIAN PARTY                     PRECINCT 1004                                          01 
01030030005000006000002000004000000000000000000LIB       STRAIGHT PARTY                                          LIBERTARIAN PARTY                     PRECINCT 2005                                          01 
01030030006000006000004000002000000000000000000LIB       STRAIGHT PARTY                                          LIBERTARIAN PARTY                     PRECINCT 2006                                          01 
01030030007000006000000000006000000000000000000LIB       STRAIGHT PARTY                                          LIBERTARIAN PARTY                     PRECINCT 2007                                          01 
01030030008000002000001000001000000000000000000LIB       STRAIGHT PARTY                                          LIBERTARIAN PARTY                     PRECINCT 2008                                          01 
01030030009000003000000000003000000000000000000LIB       STRAIGHT PARTY                                          LIBERTARIAN PARTY                     PRECINCT 2009                                          01 
01030030010000008000001000007000000000000000000LIB       STRAIGHT PARTY                                          LIBERTARIAN PARTY                     PRECINCT 2010                                          01 
01030030011000004000003000001000000000000000000LIB       STRAIGHT PARTY                                          LIBERTARIAN PARTY                     PRECINCT 2011                                          01 
01030030012000001000001000000000000000000000000LIB       STRAIGHT PARTY                                          LIBERTARIAN PARTY                     PRECINCT 3012                                          01 
01030030013000002000002000000000000000000000000LIB       STRAIGHT PARTY                                          LIBERTARIAN PARTY                     PRECINCT 3013                                          01 
01030030014000016000006000010000000000000000000LIB       STRAIGHT PARTY                                          LIBERTARIAN PARTY                     PRECINCT 3014                                          01 
01030030015000008000006000002000000000000000000LIB       STRAIGHT PARTY                                          LIBERTARIAN PARTY                     PRECINCT 3015                                          01 
01030030016000010000005000005000000000000000000LIB       STRAIGHT PARTY                                          LIBERTARIAN PARTY                     PRECINCT 3016                                          01 
01030030017000005000003000002000000000000000000LIB       STRAIGHT PARTY                                          LIBERTARIAN PARTY                     PRECINCT 4017                                          01 
01030030018000004000003000001000000000000000000LIB       STRAIGHT PARTY                                          LIBERTARIAN PARTY                     PRECINCT 4018                                          01 
01030030019000010000001000009000000000000000000LIB       STRAIGHT PARTY                                          LIBERTARIAN PARTY                     PRECINCT 4019                                          01 
01030030020000010000006000004000000000000000000LIB       STRAIGHT PARTY                                          LIBERTARIAN PARTY                     PRECINCT 4020                                          01 
01030030021000005000001000004000000000000000000LIB       STRAIGHT PARTY                                          LIBERTARIAN PARTY                     PRECINCT 4021                                          01 
01030040001000003000002000001000000000000000000GRN       STRAIGHT PARTY                                          GREEN PARTY                           PRECINCT 1001                                          01 
01030040002000001000000000001000000000000000000GRN       STRAIGHT PARTY                                          GREEN PARTY                           PRECINCT 1002                                          01 
01030040003000006000003000003000000000000000000GRN       STRAIGHT PARTY                                          GREEN PARTY                           PRECINCT 1003                                          01 
01030040004000003000003000000000000000000000000GRN       STRAIGHT PARTY                                          GREEN PARTY                           PRECINCT 1004                                          01 
01030040005000002000001000001000000000000000000GRN       STRAIGHT PARTY                                          GREEN PARTY                           PRECINCT 2005                                          01 
01030040006000002000000000002000000000000000000GRN       STRAIGHT PARTY                                          GREEN PARTY                           PRECINCT 2006                                          01 
01030040007000001000000000001000000000000000000GRN       STRAIGHT PARTY                                          GREEN PARTY                           PRECINCT 2007                                          01 
01030040008000001000001000000000000000000000000GRN       STRAIGHT PARTY                                          GREEN PARTY                           PRECINCT 2008                                          01 
01030040009000007000006000001000000000000000000GRN       STRAIGHT PARTY                                          GREEN PARTY                           PRECINCT 2009                                          01 
01030040010000001000001000000000000000000000000GRN       STRAIGHT PARTY                                          GREEN PARTY                           PRECINCT 2010                                          01 
01030040011000001000000000001000000000000000000GRN       STRAIGHT PARTY                                          GREEN PARTY                           PRECINCT 2011                                          01 
01030040012000000000000000000000000000000000000GRN       STRAIGHT PARTY                                          GREEN PARTY                           PRECINCT 3012                                          01 
01030040013000002000000000002000000000000000000GRN       STRAIGHT PARTY                                          GREEN PARTY                           PRECINCT 3013                                          01 
01030040014000001000000000001000000000000000000GRN       STRAIGHT PARTY                                          GREEN PARTY                           PRECINCT 3014                                          01 
01030040015000003000000000003000000000000000000GRN       STRAIGHT PARTY                                          GREEN PARTY                           PRECINCT 3015                                          01 
01030040016000004000003000001000000000000000000GRN       STRAIGHT PARTY                                          GREEN PARTY                           PRECINCT 3016                                          01 
01030040017000001000001000000000000000000000000GRN       STRAIGHT PARTY                                          GREEN PARTY                           PRECINCT 4017                                          01 
01030040018000001000000000001000000000000000000GRN       STRAIGHT PARTY                                          GREEN PARTY                           PRECINCT 4018                                          01 
01030040019000001000000000001000000000000000000GRN       STRAIGHT PARTY                                          GREEN PARTY                           PRECINCT 4019                                          01 
01030040020000004000001000003000000000000000000GRN       STRAIGHT PARTY                                          GREEN PARTY                           PRECINCT 4020                                          01 
01030040021000002000001000001000000000000000000GRN       STRAIGHT PARTY                                          GREEN PARTY                           PRECINCT 4021                                          01 
01030050001000000000000000000000000000000000000          STRAIGHT PARTY                                          OVER VOTES                            PRECINCT 1001                                          01 
01030050002000000000000000000000000000000000000          STRAIGHT PARTY                                          OVER VOTES                            PRECINCT 1002                                          01 
01030050003000000000000000000000000000000000000          STRAIGHT PARTY                                          OVER VOTES                            PRECINCT 1003                                          01 
01030050004000000000000000000000000000000000000          STRAIGHT PARTY                                          OVER VOTES                            PRECINCT 1004                                          01 
01030050005000001000001000000000000000000000000          STRAIGHT PARTY                                          OVER VOTES                            PRECINCT 2005                                          01 
01030050006000000000000000000000000000000000000          STRAIGHT PARTY                                          OVER VOTES                            PRECINCT 2006                                          01 
01030050007000000000000000000000000000000000000          STRAIGHT PARTY                                          OVER VOTES                            PRECINCT 2007                                          01 
01030050008000000000000000000000000000000000000          STRAIGHT PARTY                                          OVER VOTES                            PRECINCT 2008                                          01 
01030050009000000000000000000000000000000000000          STRAIGHT PARTY                                          OVER VOTES                            PRECINCT 2009                                          01 
01030050010000000000000000000000000000000000000          STRAIGHT PARTY                                          OVER VOTES                            PRECINCT 2010                                          01 
01030050011000000000000000000000000000000000000          STRAIGHT PARTY                                          OVER VOTES                            PRECINCT 2011                                          01 
01030050012000000000000000000000000000000000000          STRAIGHT PARTY                                          OVER VOTES                            PRECINCT 3012                                          01 
01030050013000000000000000000000000000000000000          STRAIGHT PARTY                                          OVER VOTES                            PRECINCT 3013                                          01 
01030050014000000000000000000000000000000000000          STRAIGHT PARTY                                          OVER VOTES                            PRECINCT 3014                                          01 
01030050015000000000000000000000000000000000000          STRAIGHT PARTY                                          OVER VOTES                            PRECINCT 3015                                          01 
01030050016000000000000000000000000000000000000          STRAIGHT PARTY                                          OVER VOTES                            PRECINCT 3016                                          01 
01030050017000000000000000000000000000000000000          STRAIGHT PARTY                                          OVER VOTES                            PRECINCT 4017                                          01 
01030050018000000000000000000000000000000000000          STRAIGHT PARTY                                          OVER VOTES                            PRECINCT 4018                                          01 
01030050019000000000000000000000000000000000000          STRAIGHT PARTY                                          OVER VOTES                            PRECINCT 4019                                          01 
01030050020000000000000000000000000000000000000          STRAIGHT PARTY                                          OVER VOTES                            PRECINCT 4020                                          01 
01030050021000000000000000000000000000000000000          STRAIGHT PARTY                                          OVER VOTES                            PRECINCT 4021                                          01 
01030060001000873000574000299000000000000000000          STRAIGHT PARTY                                          UNDER VOTES                           PRECINCT 1001                                          01 
01030060002000686000477000209000000000000000000          STRAIGHT PARTY                                          UNDER VOTES                           PRECINCT 1002                                          01 
01030060003001625001161000464000000000000000000          STRAIGHT PARTY                                          UNDER VOTES                           PRECINCT 1003                                          01 
01030060004000583000319000264000000000000000000          STRAIGHT PARTY                                          UNDER VOTES                           PRECINCT 1004                                          01 
01030060005000761000517000244000000000000000000          STRAIGHT PARTY                                          UNDER VOTES                           PRECINCT 2005                                          01 
01030060006000416000214000202000000000000000000          STRAIGHT PARTY                                          UNDER VOTES                           PRECINCT 2006                                          01 
01030060007000658000392000266000000000000000000          STRAIGHT PARTY                                          UNDER VOTES                           PRECINCT 2007                                          01 
01030060008000327000225000102000000000000000000          STRAIGHT PARTY                                          UNDER VOTES                           PRECINCT 2008                                          01 
01030060009000352000231000121000000000000000000          STRAIGHT PARTY                                          UNDER VOTES                           PRECINCT 2009                                          01 
01030060010000394000161000233000000000000000000          STRAIGHT PARTY                                          UNDER VOTES                           PRECINCT 2010                                          01 
01030060011000705000444000261000000000000000000          STRAIGHT PARTY                                          UNDER VOTES                           PRECINCT 2011                                          01 
01030060012000344000174000170000000000000000000          STRAIGHT PARTY                                          UNDER VOTES                           PRECINCT 3012                                          01 
01030060013000592000307000285000000000000000000          STRAIGHT PARTY                                          UNDER VOTES                           PRECINCT 3013                                          01 
01030060014000632000364000268000000000000000000          STRAIGHT PARTY                                          UNDER VOTES                           PRECINCT 3014                                          01 
01030060015000615000380000235000000000000000000          STRAIGHT PARTY                                          UNDER VOTES                           PRECINCT 3015                                          01 
01030060016000814000499000315000000000000000000          STRAIGHT PARTY                                          UNDER VOTES                           PRECINCT 3016                                          01 
01030060017000798000534000264000000000000000000          STRAIGHT PARTY                                          UNDER VOTES                           PRECINCT 4017                                          01 
01030060018000249000172000077000000000000000000          STRAIGHT PARTY                                          UNDER VOTES                           PRECINCT 4018                                          01 
01030060019000896000523000373000000000000000000          STRAIGHT PARTY                                          UNDER VOTES                           PRECINCT 4019                                          01 
01030060020000980000755000225000000000000000000          STRAIGHT PARTY                                          UNDER VOTES                           PRECINCT 4020                                          01 
01030060021000452000176000276000000000000000000          STRAIGHT PARTY                                          UNDER VOTES                           PRECINCT 4021                                          01 
01040010001000928000629000299000000000000000000REP       President and Vice-President                            Mitt Romney / Paul Ryan               PRECINCT 1001                                          01 
01040010002000568000389000179000000000000000000REP       President and Vice-President                            Mitt Romney / Paul Ryan               PRECINCT 1002                                          01 
01040010003001792001291000500000001000000000000REP       President and Vice-President                            Mitt Romney / Paul Ryan               PRECINCT 1003                                          01 
01040010004000599000337000261000001000000000000REP       President and Vice-President                            Mitt Romney / Paul Ryan               PRECINCT 1004                                          01 
01040010005000913000636000277000000000000000000REP       President and Vice-President                            Mitt Romney / Paul Ryan               PRECINCT 2005                                          01 
01040010006000502000277000223000002000000000000REP       President and Vice-President                            Mitt Romney / Paul Ryan               PRECINCT 2006                                          01 
01040010007000819000528000291000000000000000000REP       President and Vice-President                            Mitt Romney / Paul Ryan               PRECINCT 2007                                          01 
01040010008000374000257000117000000000000000000REP       President and Vice-President                            Mitt Romney / Paul Ryan               PRECINCT 2008                                          01 
01040010009000391000249000141000001000000000000REP       President and Vice-President                            Mitt Romney / Paul Ryan               PRECINCT 2009                                          01 
01040010010000460000194000266000000000000000000REP       President and Vice-President                            Mitt Romney / Paul Ryan               PRECINCT 2010                                          01 
01040010011000735000479000256000000000000000000REP       President and Vice-President                            Mitt Romney / Paul Ryan               PRECINCT 2011                                          01 
01040010012000372000225000147000000000000000000REP       President and Vice-President                            Mitt Romney / Paul Ryan               PRECINCT 3012                                          01 
01040010013000545000277000267000001000000000000REP       President and Vice-President                            Mitt Romney / Paul Ryan               PRECINCT 3013                                          01 
01040010014000618000353000265000000000000000000REP       President and Vice-President                            Mitt Romney / Paul Ryan               PRECINCT 3014                                          01 
01040010015000538000349000189000000000000000000REP       President and Vice-President                            Mitt Romney / Paul Ryan               PRECINCT 3015                                          01 
01040010016000821000507000314000000000000000000REP       President and Vice-President                            Mitt Romney / Paul Ryan               PRECINCT 3016                                          01 
01040010017000654000433000221000000000000000000REP       President and Vice-President                            Mitt Romney / Paul Ryan               PRECINCT 4017                                          01 
01040010018000255000184000071000000000000000000REP       President and Vice-President                            Mitt Romney / Paul Ryan               PRECINCT 4018                                          01 
01040010019000819000485000332000002000000000000REP       President and Vice-President                            Mitt Romney / Paul Ryan               PRECINCT 4019                                          01 
01040010020000910000720000190000000000000000000REP       President and Vice-President                            Mitt Romney / Paul Ryan               PRECINCT 4020                                          01 
01040010021000420000180000240000000000000000000REP       President and Vice-President                            Mitt Romney / Paul Ryan               PRECINCT 4021                                          01 
01040020001000516000337000179000000000000000000DEM       President and Vice-President                            Barack Obama / Joe Biden              PRECINCT 1001                                          01 
01040020002000738000537000200000001000000000000DEM       President and Vice-President                            Barack Obama / Joe Biden              PRECINCT 1002                                          01 
01040020003001140000824000316000000000000000000DEM       President and Vice-President                            Barack Obama / Joe Biden              PRECINCT 1003                                          01 
01040020004000474000280000194000000000000000000DEM       President and Vice-President                            Barack Obama / Joe Biden              PRECINCT 1004                                          01 
01040020005000620000418000202000000000000000000DEM       President and Vice-President                            Barack Obama / Joe Biden              PRECINCT 2005                                          01 
01040020006000253000152000101000000000000000000DEM       President and Vice-President                            Barack Obama / Joe Biden              PRECINCT 2006                                          01 
01040020007000325000197000128000000000000000000DEM       President and Vice-President                            Barack Obama / Joe Biden              PRECINCT 2007                                          01 
01040020008000163000111000052000000000000000000DEM       President and Vice-President                            Barack Obama / Joe Biden              PRECINCT 2008                                          01 
01040020009000256000180000076000000000000000000DEM       President and Vice-President                            Barack Obama / Joe Biden              PRECINCT 2009                                          01 
01040020010000208000098000110000000000000000000DEM       President and Vice-President                            Barack Obama / Joe Biden              PRECINCT 2010                                          01 
01040020011000485000317000167000001000000000000DEM       President and Vice-President                            Barack Obama / Joe Biden              PRECINCT 2011                                          01 
01040020012000134000061000073000000000000000000DEM       President and Vice-President                            Barack Obama / Joe Biden              PRECINCT 3012                                          01 
01040020013000288000177000111000000000000000000DEM       President and Vice-President                            Barack Obama / Joe Biden              PRECINCT 3013                                          01 
01040020014000548000320000228000000000000000000DEM       President and Vice-President                            Barack Obama / Joe Biden              PRECINCT 3014                                          01 
01040020015000593000353000240000000000000000000DEM       President and Vice-President                            Barack Obama / Joe Biden              PRECINCT 3015                                          01 
01040020016000574000374000200000000000000000000DEM       President and Vice-President                            Barack Obama / Joe Biden              PRECINCT 3016                                          01 
01040020017000699000476000223000000000000000000DEM       President and Vice-President                            Barack Obama / Joe Biden              PRECINCT 4017                                          01 
01040020018000104000073000031000000000000000000DEM       President and Vice-President                            Barack Obama / Joe Biden              PRECINCT 4018                                          01 
01040020019000550000349000201000000000000000000DEM       President and Vice-President                            Barack Obama / Joe Biden              PRECINCT 4019                                          01 
01040020020000930000646000284000000000000000000DEM       President and Vice-President                            Barack Obama / Joe Biden              PRECINCT 4020                                          01 
01040020021000266000120000146000000000000000000DEM       President and Vice-President                            Barack Obama / Joe Biden              PRECINCT 4021                                          01 
01040030001000022000009000013000000000000000000LIB       President and Vice-President                            Gary Johnson / Jim Gray               PRECINCT 1001                                          01 
01040030002000021000006000015000000000000000000LIB       President and Vice-President                            Gary Johnson / Jim Gray               PRECINCT 1002                                          01 
01040030003000050000024000026000000000000000000LIB       President and Vice-President                            Gary Johnson / Jim Gray               PRECINCT 1003                                          01 
01040030004000017000005000012000000000000000000LIB       President and Vice-President                            Gary Johnson / Jim Gray               PRECINCT 1004                                          01 
01040030005000011000008000003000000000000000000LIB       President and Vice-President                            Gary Johnson / Jim Gray               PRECINCT 2005                                          01 
01040030006000018000009000009000000000000000000LIB       President and Vice-President                            Gary Johnson / Jim Gray               PRECINCT 2006                                          01 
01040030007000019000006000013000000000000000000LIB       President and Vice-President                            Gary Johnson / Jim Gray               PRECINCT 2007                                          01 
01040030008000009000006000003000000000000000000LIB       President and Vice-President                            Gary Johnson / Jim Gray               PRECINCT 2008                                          01 
01040030009000009000004000005000000000000000000LIB       President and Vice-President                            Gary Johnson / Jim Gray               PRECINCT 2009                                          01 
01040030010000027000007000020000000000000000000LIB       President and Vice-President                            Gary Johnson / Jim Gray               PRECINCT 2010                                          01 
01040030011000023000008000015000000000000000000LIB       President and Vice-President                            Gary Johnson / Jim Gray               PRECINCT 2011                                          01 
01040030012000011000006000005000000000000000000LIB       President and Vice-President                            Gary Johnson / Jim Gray               PRECINCT 3012                                          01 
01040030013000022000013000009000000000000000000LIB       President and Vice-President                            Gary Johnson / Jim Gray               PRECINCT 3013                                          01 
01040030014000025000012000013000000000000000000LIB       President and Vice-President                            Gary Johnson / Jim Gray               PRECINCT 3014                                          01 
01040030015000022000015000007000000000000000000LIB       President and Vice-President                            Gary Johnson / Jim Gray               PRECINCT 3015                                          01 
01040030016000028000010000018000000000000000000LIB       President and Vice-President                            Gary Johnson / Jim Gray               PRECINCT 3016                                          01 
01040030017000020000009000011000000000000000000LIB       President and Vice-President                            Gary Johnson / Jim Gray               PRECINCT 4017                                          01 
01040030018000014000009000005000000000000000000LIB       President and Vice-President                            Gary Johnson / Jim Gray               PRECINCT 4018                                          01 
01040030019000035000010000025000000000000000000LIB       President and Vice-President                            Gary Johnson / Jim Gray               PRECINCT 4019                                          01 
01040030020000034000025000009000000000000000000LIB       President and Vice-President                            Gary Johnson / Jim Gray               PRECINCT 4020                                          01 
01040030021000028000005000023000000000000000000LIB       President and Vice-President                            Gary Johnson / Jim Gray               PRECINCT 4021                                          01 
01040040001000011000004000007000000000000000000GRN       President and Vice-President                            Jill Stein / Cheri Honkala            PRECINCT 1001                                          01 
01040040002000006000005000001000000000000000000GRN       President and Vice-President                            Jill Stein / Cheri Honkala            PRECINCT 1002                                          01 
01040040003000008000003000005000000000000000000GRN       President and Vice-President                            Jill Stein / Cheri Honkala            PRECINCT 1003                                          01 
01040040004000011000008000003000000000000000000GRN       President and Vice-President                            Jill Stein / Cheri Honkala            PRECINCT 1004                                          01 
01040040005000010000005000005000000000000000000GRN       President and Vice-President                            Jill Stein / Cheri Honkala            PRECINCT 2005                                          01 
01040040006000002000002000000000000000000000000GRN       President and Vice-President                            Jill Stein / Cheri Honkala            PRECINCT 2006                                          01 
01040040007000004000002000002000000000000000000GRN       President and Vice-President                            Jill Stein / Cheri Honkala            PRECINCT 2007                                          01 
01040040008000002000002000000000000000000000000GRN       President and Vice-President                            Jill Stein / Cheri Honkala            PRECINCT 2008                                          01 
01040040009000004000003000001000000000000000000GRN       President and Vice-President                            Jill Stein / Cheri Honkala            PRECINCT 2009                                          01 
01040040010000003000002000001000000000000000000GRN       President and Vice-President                            Jill Stein / Cheri Honkala            PRECINCT 2010                                          01 
01040040011000003000000000003000000000000000000GRN       President and Vice-President                            Jill Stein / Cheri Honkala            PRECINCT 2011                                          01 
01040040012000003000001000002000000000000000000GRN       President and Vice-President                            Jill Stein / Cheri Honkala            PRECINCT 3012                                          01 
01040040013000008000000000008000000000000000000GRN       President and Vice-President                            Jill Stein / Cheri Honkala            PRECINCT 3013                                          01 
01040040014000003000002000001000000000000000000GRN       President and Vice-President                            Jill Stein / Cheri Honkala            PRECINCT 3014                                          01 
01040040015000003000001000002000000000000000000GRN       President and Vice-President                            Jill Stein / Cheri Honkala            PRECINCT 3015                                          01 
01040040016000009000002000007000000000000000000GRN       President and Vice-President                            Jill Stein / Cheri Honkala            PRECINCT 3016                                          01 
01040040017000001000001000000000000000000000000GRN       President and Vice-President                            Jill Stein / Cheri Honkala            PRECINCT 4017                                          01 
01040040018000001000000000001000000000000000000GRN       President and Vice-President                            Jill Stein / Cheri Honkala            PRECINCT 4018                                          01 
01040040019000005000004000001000000000000000000GRN       President and Vice-President                            Jill Stein / Cheri Honkala            PRECINCT 4019                                          01 
01040040020000009000004000005000000000000000000GRN       President and Vice-President                            Jill Stein / Cheri Honkala            PRECINCT 4020                                          01 
01040040021000007000003000004000000000000000000GRN       President and Vice-President                            Jill Stein / Cheri Honkala            PRECINCT 4021                                          01 
01040050001000013000006000007000000000000000000NON       President and Vice-President                            WRITE-IN                              PRECINCT 1001                                          01 
01040050002000005000003000002000000000000000000NON       President and Vice-President                            WRITE-IN                              PRECINCT 1002                                          01 
01040050003000009000006000003000000000000000000NON       President and Vice-President                            WRITE-IN                              PRECINCT 1003                                          01 
01040050004000004000003000001000000000000000000NON       President and Vice-President                            WRITE-IN                              PRECINCT 1004                                          01 
01040050005000009000007000002000000000000000000NON       President and Vice-President                            WRITE-IN                              PRECINCT 2005                                          01 
01040050006000004000001000003000000000000000000NON       President and Vice-President                            WRITE-IN                              PRECINCT 2006                                          01 
01040050007000006000003000003000000000000000000NON       President and Vice-President                            WRITE-IN                              PRECINCT 2007                                          01 
01040050008000003000002000001000000000000000000NON       President and Vice-President                            WRITE-IN                              PRECINCT 2008                                          01 
01040050009000002000001000001000000000000000000NON       President and Vice-President                            WRITE-IN                              PRECINCT 2009                                          01 
01040050010000002000001000001000000000000000000NON       President and Vice-President                            WRITE-IN                              PRECINCT 2010                                          01 
01040050011000004000001000003000000000000000000NON       President and Vice-President                            WRITE-IN                              PRECINCT 2011                                          01 
01040050012000001000000000001000000000000000000NON       President and Vice-President                            WRITE-IN                              PRECINCT 3012                                          01 
01040050013000005000001000004000000000000000000NON       President and Vice-President                            WRITE-IN                              PRECINCT 3013                                          01 
01040050014000004000003000001000000000000000000NON       President and Vice-President                            WRITE-IN                              PRECINCT 3014                                          01 
01040050015000004000003000001000000000000000000NON       President and Vice-President                            WRITE-IN                              PRECINCT 3015                                          01 
01040050016000011000008000003000000000000000000NON       President and Vice-President                            WRITE-IN                              PRECINCT 3016                                          01 
01040050017000006000004000002000000000000000000NON       President and Vice-President                            WRITE-IN                              PRECINCT 4017                                          01 
01040050018000004000001000003000000000000000000NON       President and Vice-President                            WRITE-IN                              PRECINCT 4018                                          01 
01040050019000010000002000008000000000000000000NON       President and Vice-President                            WRITE-IN                              PRECINCT 4019                                          01 
01040050020000010000008000002000000000000000000NON       President and Vice-President                            WRITE-IN                              PRECINCT 4020                                          01 
01040050021000005000000000005000000000000000000NON       President and Vice-President                            WRITE-IN                              PRECINCT 4021                                          01 
01040060001000000000000000000000000000000000000          President and Vice-President                            OVER VOTES                            PRECINCT 1001                                          01 
01040060002000000000000000000000000000000000000          President and Vice-President                            OVER VOTES                            PRECINCT 1002                                          01 
01040060003000000000000000000000000000000000000          President and Vice-President                            OVER VOTES                            PRECINCT 1003                                          01 
01040060004000000000000000000000000000000000000          President and Vice-President                            OVER VOTES                            PRECINCT 1004                                          01 
01040060005000000000000000000000000000000000000          President and Vice-President                            OVER VOTES                            PRECINCT 2005                                          01 
01040060006000000000000000000000000000000000000          President and Vice-President                            OVER VOTES                            PRECINCT 2006                                          01 
01040060007000000000000000000000000000000000000          President and Vice-President                            OVER VOTES                            PRECINCT 2007                                          01 
01040060008000000000000000000000000000000000000          President and Vice-President                            OVER VOTES                            PRECINCT 2008                                          01 
01040060009000000000000000000000000000000000000          President and Vice-President                            OVER VOTES                            PRECINCT 2009                                          01 
01040060010000000000000000000000000000000000000          President and Vice-President                            OVER VOTES                            PRECINCT 2010                                          01 
01040060011000000000000000000000000000000000000          President and Vice-President                            OVER VOTES                            PRECINCT 2011                                          01 
01040060012000000000000000000000000000000000000          President and Vice-President                            OVER VOTES                            PRECINCT 3012                                          01 
01040060013000000000000000000000000000000000000          President and Vice-President                            OVER VOTES                            PRECINCT 3013                                          01 
01040060014000000000000000000000000000000000000          President and Vice-President                            OVER VOTES                            PRECINCT 3014                                          01 
01040060015000000000000000000000000000000000000          President and Vice-President                            OVER VOTES                            PRECINCT 3015                                          01 
01040060016000000000000000000000000000000000000          President and Vice-President                            OVER VOTES                            PRECINCT 3016                                          01 
01040060017000000000000000000000000000000000000          President and Vice-President                            OVER VOTES                            PRECINCT 4017                                          01 
01040060018000000000000000000000000000000000000          President and Vice-President                            OVER VOTES                            PRECINCT 4018                                          01 
01040060019000000000000000000000000000000000000          President and Vice-President                            OVER VOTES                            PRECINCT 4019                                          01 
01040060020000000000000000000000000000000000000          President and Vice-President                            OVER VOTES                            PRECINCT 4020                                          01 
01040060021000000000000000000000000000000000000          President and Vice-President                            OVER VOTES                            PRECINCT 4021                                          01 
01040070001000002000002000000000000000000000000          President and Vice-President                            UNDER VOTES                           PRECINCT 1001                                          01 
01040070002000006000001000005000000000000000000          President and Vice-President                            UNDER VOTES                           PRECINCT 1002                                          01 
01040070003000004000002000002000000000000000000          President and Vice-President                            UNDER VOTES                           PRECINCT 1003                                          01 
01040070004000002000000000002000000000000000000          President and Vice-President                            UNDER VOTES                           PRECINCT 1004                                          01 
01040070005000004000003000001000000000000000000          President and Vice-President                            UNDER VOTES                           PRECINCT 2005                                          01 
01040070006000003000001000002000000000000000000          President and Vice-President                            UNDER VOTES                           PRECINCT 2006                                          01 
01040070007000004000002000002000000000000000000          President and Vice-President                            UNDER VOTES                           PRECINCT 2007                                          01 
01040070008000003000002000001000000000000000000          President and Vice-President                            UNDER VOTES                           PRECINCT 2008                                          01 
01040070009000001000000000001000000000000000000          President and Vice-President                            UNDER VOTES                           PRECINCT 2009                                          01 
01040070010000001000000000001000000000000000000          President and Vice-President                            UNDER VOTES                           PRECINCT 2010                                          01 
01040070011000005000003000002000000000000000000          President and Vice-President                            UNDER VOTES                           PRECINCT 2011                                          01 
01040070012000003000002000001000000000000000000          President and Vice-President                            UNDER VOTES                           PRECINCT 3012                                          01 
01040070013000001000001000000000000000000000000          President and Vice-President                            UNDER VOTES                           PRECINCT 3013                                          01 
01040070014000000000000000000000000000000000000          President and Vice-President                            UNDER VOTES                           PRECINCT 3014                                          01 
01040070015000004000002000002000000000000000000          President and Vice-President                            UNDER VOTES                           PRECINCT 3015                                          01 
01040070016000006000004000002000000000000000000          President and Vice-President                            UNDER VOTES                           PRECINCT 3016                                          01 
01040070017000007000003000004000000000000000000          President and Vice-President                            UNDER VOTES                           PRECINCT 4017                                          01 
01040070018000002000001000001000000000000000000          President and Vice-President                            UNDER VOTES                           PRECINCT 4018                                          01 
01040070019000005000002000003000000000000000000          President and Vice-President                            UNDER VOTES                           PRECINCT 4019                                          01 
01040070020000005000004000001000000000000000000          President and Vice-President                            UNDER VOTES                           PRECINCT 4020                                          01 
01040070021000004000000000004000000000000000000          President and Vice-President                            UNDER VOTES                           PRECINCT 4021                                          01 
01050010001000856000591000265000000000000000000REP       United States Senator                                   Ted Cruz                              PRECINCT 1001                                          01 
01050010002000522000357000165000000000000000000REP       United States Senator                                   Ted Cruz                              PRECINCT 1002                                          01 
01050010003001638001194000443000001000000000000REP       United States Senator                                   Ted Cruz                              PRECINCT 1003                                          01 
01050010004000547000318000228000001000000000000REP       United States Senator                                   Ted Cruz                              PRECINCT 1004                                          01 
01050010005000804000568000236000000000000000000REP       United States Senator                                   Ted Cruz                              PRECINCT 2005                                          01 
01050010006000462000257000203000002000000000000REP       United States Senator                                   Ted Cruz                              PRECINCT 2006                                          01 
01050010007000732000477000255000000000000000000REP       United States Senator                                   Ted Cruz                              PRECINCT 2007                                          01 
01050010008000336000238000098000000000000000000REP       United States Senator                                   Ted Cruz                              PRECINCT 2008                                          01 
01050010009000355000227000127000001000000000000REP       United States Senator                                   Ted Cruz                              PRECINCT 2009                                          01 
01050010010000425000181000244000000000000000000REP       United States Senator                                   Ted Cruz                              PRECINCT 2010                                          01 
01050010011000685000446000239000000000000000000REP       United States Senator                                   Ted Cruz                              PRECINCT 2011                                          01 
01050010012000316000207000109000000000000000000REP       United States Senator                                   Ted Cruz                              PRECINCT 3012                                          01 
01050010013000462000236000225000001000000000000REP       United States Senator                                   Ted Cruz                              PRECINCT 3013                                          01 
01050010014000566000320000246000000000000000000REP       United States Senator                                   Ted Cruz                              PRECINCT 3014                                          01 
01050010015000504000326000178000000000000000000REP       United States Senator                                   Ted Cruz                              PRECINCT 3015                                          01 
01050010016000749000466000283000000000000000000REP       United States Senator                                   Ted Cruz                              PRECINCT 3016                                          01 
01050010017000591000387000204000000000000000000REP       United States Senator                                   Ted Cruz                              PRECINCT 4017                                          01 
01050010018000222000164000058000000000000000000REP       United States Senator                                   Ted Cruz                              PRECINCT 4018                                          01 
01050010019000735000448000285000002000000000000REP       United States Senator                                   Ted Cruz                              PRECINCT 4019                                          01 
01050010020000844000669000175000000000000000000REP       United States Senator                                   Ted Cruz                              PRECINCT 4020                                          01 
01050010021000369000160000209000000000000000000REP       United States Senator                                   Ted Cruz                              PRECINCT 4021                                          01 
01050020001000532000340000192000000000000000000DEM       United States Senator                                   Paul Sadler                           PRECINCT 1001                                          01 
01050020002000751000541000209000001000000000000DEM       United States Senator                                   Paul Sadler                           PRECINCT 1002                                          01 
01050020003001194000856000338000000000000000000DEM       United States Senator                                   Paul Sadler                           PRECINCT 1003                                          01 
01050020004000480000277000202000001000000000000DEM       United States Senator                                   Paul Sadler                           PRECINCT 1004                                          01 
01050020005000667000446000221000000000000000000DEM       United States Senator                                   Paul Sadler                           PRECINCT 2005                                          01 
01050020006000272000162000110000000000000000000DEM       United States Senator                                   Paul Sadler                           PRECINCT 2006                                          01 
01050020007000352000207000145000000000000000000DEM       United States Senator                                   Paul Sadler                           PRECINCT 2007                                          01 
01050020008000189000126000063000000000000000000DEM       United States Senator                                   Paul Sadler                           PRECINCT 2008                                          01 
01050020009000251000177000074000000000000000000DEM       United States Senator                                   Paul Sadler                           PRECINCT 2009                                          01 
01050020010000221000103000118000000000000000000DEM       United States Senator                                   Paul Sadler                           PRECINCT 2010                                          01 
01050020011000489000322000166000001000000000000DEM       United States Senator                                   Paul Sadler                           PRECINCT 2011                                          01 
01050020012000165000072000093000000000000000000DEM       United States Senator                                   Paul Sadler                           PRECINCT 3012                                          01 
01050020013000327000192000135000000000000000000DEM       United States Senator                                   Paul Sadler                           PRECINCT 3013                                          01 
01050020014000550000329000221000000000000000000DEM       United States Senator                                   Paul Sadler                           PRECINCT 3014                                          01 
01050020015000578000357000221000000000000000000DEM       United States Senator                                   Paul Sadler                           PRECINCT 3015                                          01 
01050020016000595000385000210000000000000000000DEM       United States Senator                                   Paul Sadler                           PRECINCT 3016                                          01 
01050020017000711000488000223000000000000000000DEM       United States Senator                                   Paul Sadler                           PRECINCT 4017                                          01 
01050020018000122000084000038000000000000000000DEM       United States Senator                                   Paul Sadler                           PRECINCT 4018                                          01 
01050020019000562000355000207000000000000000000DEM       United States Senator                                   Paul Sadler                           PRECINCT 4019                                          01 
01050020020000942000665000277000000000000000000DEM       United States Senator                                   Paul Sadler                           PRECINCT 4020                                          01 
01050020021000294000127000167000000000000000000DEM       United States Senator                                   Paul Sadler                           PRECINCT 4021                                          01 
01050030001000045000021000024000000000000000000LIB       United States Senator                                   John Jay Myers                        PRECINCT 1001                                          01 
01050030002000029000015000014000000000000000000LIB       United States Senator                                   John Jay Myers                        PRECINCT 1002                                          01 
01050030003000090000047000043000000000000000000LIB       United States Senator                                   John Jay Myers                        PRECINCT 1003                                          01 
01050030004000046000023000023000000000000000000LIB       United States Senator                                   John Jay Myers                        PRECINCT 1004                                          01 
01050030005000041000026000015000000000000000000LIB       United States Senator                                   John Jay Myers                        PRECINCT 2005                                          01 
01050030006000028000015000013000000000000000000LIB       United States Senator                                   John Jay Myers                        PRECINCT 2006                                          01 
01050030007000039000019000020000000000000000000LIB       United States Senator                                   John Jay Myers                        PRECINCT 2007                                          01 
01050030008000018000010000008000000000000000000LIB       United States Senator                                   John Jay Myers                        PRECINCT 2008                                          01 
01050030009000028000016000012000000000000000000LIB       United States Senator                                   John Jay Myers                        PRECINCT 2009                                          01 
01050030010000038000013000025000000000000000000LIB       United States Senator                                   John Jay Myers                        PRECINCT 2010                                          01 
01050030011000045000020000025000000000000000000LIB       United States Senator                                   John Jay Myers                        PRECINCT 2011                                          01 
01050030012000015000006000009000000000000000000LIB       United States Senator                                   John Jay Myers                        PRECINCT 3012                                          01 
01050030013000026000013000013000000000000000000LIB       United States Senator                                   John Jay Myers                        PRECINCT 3013                                          01 
01050030014000046000023000023000000000000000000LIB       United States Senator                                   John Jay Myers                        PRECINCT 3014                                          01 
01050030015000045000021000024000000000000000000LIB       United States Senator                                   John Jay Myers                        PRECINCT 3015                                          01 
01050030016000053000028000025000000000000000000LIB       United States Senator                                   John Jay Myers                        PRECINCT 3016                                          01 
01050030017000042000024000018000000000000000000LIB       United States Senator                                   John Jay Myers                        PRECINCT 4017                                          01 
01050030018000021000011000010000000000000000000LIB       United States Senator                                   John Jay Myers                        PRECINCT 4018                                          01 
01050030019000070000025000045000000000000000000LIB       United States Senator                                   John Jay Myers                        PRECINCT 4019                                          01 
01050030020000048000035000013000000000000000000LIB       United States Senator                                   John Jay Myers                        PRECINCT 4020                                          01 
01050030021000038000011000027000000000000000000LIB       United States Senator                                   John Jay Myers                        PRECINCT 4021                                          01 
01050040001000026000018000008000000000000000000GRN       United States Senator                                   David B. Collins                      PRECINCT 1001                                          01 
01050040002000012000007000005000000000000000000GRN       United States Senator                                   David B. Collins                      PRECINCT 1002                                          01 
01050040003000024000017000007000000000000000000GRN       United States Senator                                   David B. Collins                      PRECINCT 1003                                          01 
01050040004000015000007000008000000000000000000GRN       United States Senator                                   David B. Collins                      PRECINCT 1004                                          01 
01050040005000016000011000005000000000000000000GRN       United States Senator                                   David B. Collins                      PRECINCT 2005                                          01 
01050040006000009000003000006000000000000000000GRN       United States Senator                                   David B. Collins                      PRECINCT 2006                                          01 
01050040007000026000015000011000000000000000000GRN       United States Senator                                   David B. Collins                      PRECINCT 2007                                          01 
01050040008000003000003000000000000000000000000GRN       United States Senator                                   David B. Collins                      PRECINCT 2008                                          01 
01050040009000011000006000005000000000000000000GRN       United States Senator                                   David B. Collins                      PRECINCT 2009                                          01 
01050040010000012000004000008000000000000000000GRN       United States Senator                                   David B. Collins                      PRECINCT 2010                                          01 
01050040011000014000006000008000000000000000000GRN       United States Senator                                   David B. Collins                      PRECINCT 2011                                          01 
01050040012000007000004000003000000000000000000GRN       United States Senator                                   David B. Collins                      PRECINCT 3012                                          01 
01050040013000015000007000008000000000000000000GRN       United States Senator                                   David B. Collins                      PRECINCT 3013                                          01 
01050040014000016000009000007000000000000000000GRN       United States Senator                                   David B. Collins                      PRECINCT 3014                                          01 
01050040015000014000006000008000000000000000000GRN       United States Senator                                   David B. Collins                      PRECINCT 3015                                          01 
01050040016000024000013000011000000000000000000GRN       United States Senator                                   David B. Collins                      PRECINCT 3016                                          01 
01050040017000010000005000005000000000000000000GRN       United States Senator                                   David B. Collins                      PRECINCT 4017                                          01 
01050040018000008000003000005000000000000000000GRN       United States Senator                                   David B. Collins                      PRECINCT 4018                                          01 
01050040019000021000006000015000000000000000000GRN       United States Senator                                   David B. Collins                      PRECINCT 4019                                          01 
01050040020000024000013000011000000000000000000GRN       United States Senator                                   David B. Collins                      PRECINCT 4020                                          01 
01050040021000014000006000008000000000000000000GRN       United States Senator                                   David B. Collins                      PRECINCT 4021                                          01 
01050050001000000000000000000000000000000000000          United States Senator                                   OVER VOTES                            PRECINCT 1001                                          01 
01050050002000000000000000000000000000000000000          United States Senator                                   OVER VOTES                            PRECINCT 1002                                          01 
01050050003000000000000000000000000000000000000          United States Senator                                   OVER VOTES                            PRECINCT 1003                                          01 
01050050004000000000000000000000000000000000000          United States Senator                                   OVER VOTES                            PRECINCT 1004                                          01 
01050050005000000000000000000000000000000000000          United States Senator                                   OVER VOTES                            PRECINCT 2005                                          01 
01050050006000000000000000000000000000000000000          United States Senator                                   OVER VOTES                            PRECINCT 2006                                          01 
01050050007000000000000000000000000000000000000          United States Senator                                   OVER VOTES                            PRECINCT 2007                                          01 
01050050008000000000000000000000000000000000000          United States Senator                                   OVER VOTES                            PRECINCT 2008                                          01 
01050050009000000000000000000000000000000000000          United States Senator                                   OVER VOTES                            PRECINCT 2009                                          01 
01050050010000000000000000000000000000000000000          United States Senator                                   OVER VOTES                            PRECINCT 2010                                          01 
01050050011000000000000000000000000000000000000          United States Senator                                   OVER VOTES                            PRECINCT 2011                                          01 
01050050012000000000000000000000000000000000000          United States Senator                                   OVER VOTES                            PRECINCT 3012                                          01 
01050050013000000000000000000000000000000000000          United States Senator                                   OVER VOTES                            PRECINCT 3013                                          01 
01050050014000000000000000000000000000000000000          United States Senator                                   OVER VOTES                            PRECINCT 3014                                          01 
01050050015000000000000000000000000000000000000          United States Senator                                   OVER VOTES                            PRECINCT 3015                                          01 
01050050016000000000000000000000000000000000000          United States Senator                                   OVER VOTES                            PRECINCT 3016                                          01 
01050050017000000000000000000000000000000000000          United States Senator                                   OVER VOTES                            PRECINCT 4017                                          01 
01050050018000000000000000000000000000000000000          United States Senator                                   OVER VOTES                            PRECINCT 4018                                          01 
01050050019000000000000000000000000000000000000          United States Senator                                   OVER VOTES                            PRECINCT 4019                                          01 
01050050020000000000000000000000000000000000000          United States Senator                                   OVER VOTES                            PRECINCT 4020                                          01 
01050050021000000000000000000000000000000000000          United States Senator                                   OVER VOTES                            PRECINCT 4021                                          01 
01050060001000033000017000016000000000000000000          United States Senator                                   UNDER VOTES                           PRECINCT 1001                                          01 
01050060002000030000021000009000000000000000000          United States Senator                                   UNDER VOTES                           PRECINCT 1002                                          01 
01050060003000057000036000021000000000000000000          United States Senator                                   UNDER VOTES                           PRECINCT 1003                                          01 
01050060004000020000008000012000000000000000000          United States Senator                                   UNDER VOTES                           PRECINCT 1004                                          01 
01050060005000039000026000013000000000000000000          United States Senator                                   UNDER VOTES                           PRECINCT 2005                                          01 
01050060006000011000005000006000000000000000000          United States Senator                                   UNDER VOTES                           PRECINCT 2006                                          01 
01050060007000028000020000008000000000000000000          United States Senator                                   UNDER VOTES                           PRECINCT 2007                                          01 
01050060008000008000003000005000000000000000000          United States Senator                                   UNDER VOTES                           PRECINCT 2008                                          01 
01050060009000018000011000007000000000000000000          United States Senator                                   UNDER VOTES                           PRECINCT 2009                                          01 
01050060010000005000001000004000000000000000000          United States Senator                                   UNDER VOTES                           PRECINCT 2010                                          01 
01050060011000021000013000008000000000000000000          United States Senator                                   UNDER VOTES                           PRECINCT 2011                                          01 
01050060012000021000006000015000000000000000000          United States Senator                                   UNDER VOTES                           PRECINCT 3012                                          01 
01050060013000038000020000018000000000000000000          United States Senator                                   UNDER VOTES                           PRECINCT 3013                                          01 
01050060014000020000009000011000000000000000000          United States Senator                                   UNDER VOTES                           PRECINCT 3014                                          01 
01050060015000023000013000010000000000000000000          United States Senator                                   UNDER VOTES                           PRECINCT 3015                                          01 
01050060016000027000012000015000000000000000000          United States Senator                                   UNDER VOTES                           PRECINCT 3016                                          01 
01050060017000033000022000011000000000000000000          United States Senator                                   UNDER VOTES                           PRECINCT 4017                                          01 
01050060018000007000006000001000000000000000000          United States Senator                                   UNDER VOTES                           PRECINCT 4018                                          01 
01050060019000036000018000018000000000000000000          United States Senator                                   UNDER VOTES                           PRECINCT 4019                                          01 
01050060020000040000025000015000000000000000000          United States Senator                                   UNDER VOTES                           PRECINCT 4020                                          01 
01050060021000015000004000011000000000000000000          United States Senator                                   UNDER VOTES                           PRECINCT 4021                                          01 
01060010001000906000621000285000000000000000000REPUSREP10United States Representative, Dist 10                   Michael McCaul                        PRECINCT 1001                                          01 
01060010002000558000381000177000000000000000000REPUSREP10United States Representative, Dist 10                   Michael McCaul                        PRECINCT 1002                                          01 
01060010004000592000345000246000001000000000000REPUSREP10United States Representative, Dist 10                   Michael McCaul                        PRECINCT 1004                                          01 
01060010005000854000599000255000000000000000000REPUSREP10United States Representative, Dist 10                   Michael McCaul                        PRECINCT 2005                                          01 
01060010006000483000262000220000001000000000000REPUSREP10United States Representative, Dist 10                   Michael McCaul                        PRECINCT 2006                                          01 
01060010009000378000242000135000001000000000000REPUSREP10United States Representative, Dist 10                   Michael McCaul                        PRECINCT 2009                                          01 
01060010010000465000192000273000000000000000000REPUSREP10United States Representative, Dist 10                   Michael McCaul                        PRECINCT 2010                                          01 
01060010011000735000488000247000000000000000000REPUSREP10United States Representative, Dist 10                   Michael McCaul                        PRECINCT 2011                                          01 
01060010017000675000446000229000000000000000000REPUSREP10United States Representative, Dist 10                   Michael McCaul                        PRECINCT 4017                                          01 
01060010019000816000488000326000002000000000000REPUSREP10United States Representative, Dist 10                   Michael McCaul                        PRECINCT 4019                                          01 
01060010020000915000725000190000000000000000000REPUSREP10United States Representative, Dist 10                   Michael McCaul                        PRECINCT 4020                                          01 
01060010021000424000181000243000000000000000000REPUSREP10United States Representative, Dist 10                   Michael McCaul                        PRECINCT 4021                                          01 
01060020001000451000298000153000000000000000000DEMUSREP10United States Representative, Dist 10                   Tawana W. Cadien                      PRECINCT 1001                                          01 
01060020002000694000505000188000001000000000000DEMUSREP10United States Representative, Dist 10                   Tawana W. Cadien                      PRECINCT 1002                                          01 
01060020004000418000245000173000000000000000000DEMUSREP10United States Representative, Dist 10                   Tawana W. Cadien                      PRECINCT 1004                                          01 
01060020005000599000405000194000000000000000000DEMUSREP10United States Representative, Dist 10                   Tawana W. Cadien                      PRECINCT 2005                                          01 
01060020006000238000147000091000000000000000000DEMUSREP10United States Representative, Dist 10                   Tawana W. Cadien                      PRECINCT 2006                                          01 
01060020009000226000164000062000000000000000000DEMUSREP10United States Representative, Dist 10                   Tawana W. Cadien                      PRECINCT 2009                                          01 
01060020010000178000091000087000000000000000000DEMUSREP10United States Representative, Dist 10                   Tawana W. Cadien                      PRECINCT 2010                                          01 
01060020011000424000271000152000001000000000000DEMUSREP10United States Representative, Dist 10                   Tawana W. Cadien                      PRECINCT 2011                                          01 
01060020017000630000429000201000000000000000000DEMUSREP10United States Representative, Dist 10                   Tawana W. Cadien                      PRECINCT 4017                                          01 
01060020019000486000312000174000000000000000000DEMUSREP10United States Representative, Dist 10                   Tawana W. Cadien                      PRECINCT 4019                                          01 
01060020020000871000608000263000000000000000000DEMUSREP10United States Representative, Dist 10                   Tawana W. Cadien                      PRECINCT 4020                                          01 
01060020021000233000108000125000000000000000000DEMUSREP10United States Representative, Dist 10                   Tawana W. Cadien                      PRECINCT 4021                                          01 
01060030001000077000037000040000000000000000000LIBUSREP10United States Representative, Dist 10                   Richard Priest                        PRECINCT 1001                                          01 
01060030002000050000026000024000000000000000000LIBUSREP10United States Representative, Dist 10                   Richard Priest                        PRECINCT 1002                                          01 
01060030004000072000034000038000000000000000000LIBUSREP10United States Representative, Dist 10                   Richard Priest                        PRECINCT 1004                                          01 
01060030005000055000034000021000000000000000000LIBUSREP10United States Representative, Dist 10                   Richard Priest                        PRECINCT 2005                                          01 
01060030006000041000023000017000001000000000000LIBUSREP10United States Representative, Dist 10                   Richard Priest                        PRECINCT 2006                                          01 
01060030009000034000014000020000000000000000000LIBUSREP10United States Representative, Dist 10                   Richard Priest                        PRECINCT 2009                                          01 
01060030010000052000018000034000000000000000000LIBUSREP10United States Representative, Dist 10                   Richard Priest                        PRECINCT 2010                                          01 
01060030011000059000023000036000000000000000000LIBUSREP10United States Representative, Dist 10                   Richard Priest                        PRECINCT 2011                                          01 
