01010010001003783000000000000000000000000000000          REGISTERED VOTERS - TOTAL                               REGISTERED VOTERS - TOTAL             PRECINCT 101                                           00 
01010010002003031000000000000000000000000000000          REGISTERED VOTERS - TOTAL                               REGISTERED VOTERS - TOTAL             PRECINCT 102                                           00 
01010010003002864000000000000000000000000000000          REGISTERED VOTERS - TOTAL                               REGISTERED VOTERS - TOTAL             PRECINCT 103                                           00 
01010010004001876000000000000000000000000000000          REGISTERED VOTERS - TOTAL                               REGISTERED VOTERS - TOTAL             PRECINCT 104                                           00 
01010010005004948000000000000000000000000000000          REGISTERED VOTERS - TOTAL                               REGISTERED VOTERS - TOTAL             PRECINCT 105                                           00 
01010010006004447000000000000000000000000000000          REGISTERED VOTERS - TOTAL                               REGISTERED VOTERS - TOTAL             PRECINCT 106                                           00 
01010010008003421000000000000000000000000000000          REGISTERED VOTERS - TOTAL                               REGISTERED VOTERS - TOTAL             PRECINCT 201                                           00 
01010010009000824000000000000000000000000000000          REGISTERED VOTERS - TOTAL                               REGISTERED VOTERS - TOTAL             PRECINCT 202                                           00 
01010010010003148000000000000000000000000000000          REGISTERED VOTERS - TOTAL                               REGISTERED VOTERS - TOTAL             PRECINCT 203                                           00 
01010010011004685000000000000000000000000000000          REGISTERED VOTERS - TOTAL                               REGISTERED VOTERS - TOTAL             PRECINCT 204                                           00 
01010010012005292000000000000000000000000000000          REGISTERED VOTERS - TOTAL                               REGISTERED VOTERS - TOTAL             PRECINCT 205                                           00 
01010010013003929000000000000000000000000000000          REGISTERED VOTERS - TOTAL                               REGISTERED VOTERS - TOTAL             PRECINCT 206                                           00 
01010010014004173000000000000000000000000000000          REGISTERED VOTERS - TOTAL                               REGISTERED VOTERS - TOTAL             PRECINCT 301                                           00 
01010010015005090000000000000000000000000000000          REGISTERED VOTERS - TOTAL                               REGISTERED VOTERS - TOTAL             PRECINCT 302                                           00 
01010010016001117000000000000000000000000000000          REGISTERED VOTERS - TOTAL                               REGISTERED VOTERS - TOTAL             PRECINCT 303                                           00 
01010010017004054000000000000000000000000000000          REGISTERED VOTERS - TOTAL                               REGISTERED VOTERS - TOTAL             PRECINCT 304                                           00 
01010010018001329000000000000000000000000000000          REGISTERED VOTERS - TOTAL                               REGISTERED VOTERS - TOTAL             PRECINCT 305                                           00 
01010010019001877000000000000000000000000000000          REGISTERED VOTERS - TOTAL                               REGISTERED VOTERS - TOTAL             PRECINCT 401                                           00 
01010010020003850000000000000000000000000000000          REGISTERED VOTERS - TOTAL                               REGISTERED VOTERS - TOTAL             PRECINCT 402                                           00 
01010010021003435000000000000000000000000000000          REGISTERED VOTERS - TOTAL                               REGISTERED VOTERS - TOTAL             PRECINCT 403                                           00 
01010010022004981000000000000000000000000000000          REGISTERED VOTERS - TOTAL                               REGISTERED VOTERS - TOTAL             PRECINCT 404                                           00 
01010010023003176000000000000000000000000000000          REGISTERED VOTERS - TOTAL                               REGISTERED VOTERS - TOTAL             PRECINCT 405                                           00 
01010010024003304000000000000000000000000000000          REGISTERED VOTERS - TOTAL                               REGISTERED VOTERS - TOTAL             PRECINCT 406                                           00 
01020010001002493000472001837000184000000000000          BALLOTS CAST - TOTAL                                    BALLOTS CAST - TOTAL                  PRECINCT 101                                           00 
01020010002002208000387001696000125000000000000          BALLOTS CAST - TOTAL                                    BALLOTS CAST - TOTAL                  PRECINCT 102                                           00 
01020010003002105000481001486000138000000000000          BALLOTS CAST - TOTAL                                    BALLOTS CAST - TOTAL                  PRECINCT 103                                           00 
01020010004001295000285000909000101000000000000          BALLOTS CAST - TOTAL                                    BALLOTS CAST - TOTAL                  PRECINCT 104                                           00 
01020010005002985000956001774000255000000000000          BALLOTS CAST - TOTAL                                    BALLOTS CAST - TOTAL                  PRECINCT 105                                           00 
01020010006003283000621002485000177000000000000          BALLOTS CAST - TOTAL                                    BALLOTS CAST - TOTAL                  PRECINCT 106                                           00 
01020010008002115000649001334000132000000000000          BALLOTS CAST - TOTAL                                    BALLOTS CAST - TOTAL                  PRECINCT 201                                           00 
01020010009000533000159000328000046000000000000          BALLOTS CAST - TOTAL                                    BALLOTS CAST - TOTAL                  PRECINCT 202                                           00 
01020010010002367000515001674000178000000000000          BALLOTS CAST - TOTAL                                    BALLOTS CAST - TOTAL                  PRECINCT 203                                           00 
01020010011003196000751002232000213000000000000          BALLOTS CAST - TOTAL                                    BALLOTS CAST - TOTAL                  PRECINCT 204                                           00 
01020010012003979000599003151000229000000000000          BALLOTS CAST - TOTAL                                    BALLOTS CAST - TOTAL                  PRECINCT 205                                           00 
01020010013002919000513002180000226000000000000          BALLOTS CAST - TOTAL                                    BALLOTS CAST - TOTAL                  PRECINCT 206                                           00 
01020010014001726000690000913000123000000000000          BALLOTS CAST - TOTAL                                    BALLOTS CAST - TOTAL                  PRECINCT 301                                           00 
01020010015003038000867001959000212000000000000          BALLOTS CAST - TOTAL                                    BALLOTS CAST - TOTAL                  PRECINCT 302                                           00 
01020010016000587000216000306000065000000000000          BALLOTS CAST - TOTAL                                    BALLOTS CAST - TOTAL                  PRECINCT 303                                           00 
01020010017001956000631001214000111000000000000          BALLOTS CAST - TOTAL                                    BALLOTS CAST - TOTAL                  PRECINCT 304                                           00 
01020010018000809000271000488000050000000000000          BALLOTS CAST - TOTAL                                    BALLOTS CAST - TOTAL                  PRECINCT 305                                           00 
01020010019001279000222000929000128000000000000          BALLOTS CAST - TOTAL                                    BALLOTS CAST - TOTAL                  PRECINCT 401                                           00 
01020010020002682000709001781000192000000000000          BALLOTS CAST - TOTAL                                    BALLOTS CAST - TOTAL                  PRECINCT 402                                           00 
01020010021002415000707001498000210000000000000          BALLOTS CAST - TOTAL                                    BALLOTS CAST - TOTAL                  PRECINCT 403                                           00 
01020010022003674000850002596000228000000000000          BALLOTS CAST - TOTAL                                    BALLOTS CAST - TOTAL                  PRECINCT 404                                           00 
01020010023001939000569001217000153000000000000          BALLOTS CAST - TOTAL                                    BALLOTS CAST - TOTAL                  PRECINCT 405                                           00 
01020010024002291000665001392000234000000000000          BALLOTS CAST - TOTAL                                    BALLOTS CAST - TOTAL                  PRECINCT 406                                           00 
01030010001001028000176000748000104000000000000REP       STRAIGHT PARTY                                          REPUBLICAN PARTY                      PRECINCT 101                                           01 
01030010002001217000179000973000065000000000000REP       STRAIGHT PARTY                                          REPUBLICAN PARTY                      PRECINCT 102                                           01 
01030010003000969000185000696000088000000000000REP       STRAIGHT PARTY                                          REPUBLICAN PARTY                      PRECINCT 103                                           01 
01030010004000599000102000443000054000000000000REP       STRAIGHT PARTY                                          REPUBLICAN PARTY                      PRECINCT 104                                           01 
01030010005001401000385000859000157000000000000REP       STRAIGHT PARTY                                          REPUBLICAN PARTY                      PRECINCT 105                                           01 
01030010006001741000288001339000114000000000000REP       STRAIGHT PARTY                                          REPUBLICAN PARTY                      PRECINCT 106                                           01 
01030010008000914000254000585000075000000000000REP       STRAIGHT PARTY                                          REPUBLICAN PARTY                      PRECINCT 201                                           01 
01030010009000261000071000162000028000000000000REP       STRAIGHT PARTY                                          REPUBLICAN PARTY                      PRECINCT 202                                           01 
01030010010001219000220000881000118000000000000REP       STRAIGHT PARTY                                          REPUBLICAN PARTY                      PRECINCT 203                                           01 
01030010011001634000319001177000138000000000000REP       STRAIGHT PARTY                                          REPUBLICAN PARTY                      PRECINCT 204                                           01 
01030010012001979000234001608000137000000000000REP       STRAIGHT PARTY                                          REPUBLICAN PARTY                      PRECINCT 205                                           01 
01030010013001531000245001180000106000000000000REP       STRAIGHT PARTY                                          REPUBLICAN PARTY                      PRECINCT 206                                           01 
01030010014000482000150000302000030000000000000REP       STRAIGHT PARTY                                          REPUBLICAN PARTY                      PRECINCT 301                                           01 
01030010015001097000238000779000080000000000000REP       STRAIGHT PARTY                                          REPUBLICAN PARTY                      PRECINCT 302                                           01 
01030010016000118000030000083000005000000000000REP       STRAIGHT PARTY                                          REPUBLICAN PARTY                      PRECINCT 303                                           01 
01030010017000747000199000487000061000000000000REP       STRAIGHT PARTY                                          REPUBLICAN PARTY                      PRECINCT 304                                           01 
01030010018000302000099000184000019000000000000REP       STRAIGHT PARTY                                          REPUBLICAN PARTY                      PRECINCT 305                                           01 
01030010019000583000083000425000075000000000000REP       STRAIGHT PARTY                                          REPUBLICAN PARTY                      PRECINCT 401                                           01 
01030010020001296000284000895000117000000000000REP       STRAIGHT PARTY                                          REPUBLICAN PARTY                      PRECINCT 402                                           01 
01030010021001211000280000794000137000000000000REP       STRAIGHT PARTY                                          REPUBLICAN PARTY                      PRECINCT 403                                           01 
01030010022001754000341001290000123000000000000REP       STRAIGHT PARTY                                          REPUBLICAN PARTY                      PRECINCT 404                                           01 
01030010023000945000265000594000086000000000000REP       STRAIGHT PARTY                                          REPUBLICAN PARTY                      PRECINCT 405                                           01 
01030010024001034000242000634000158000000000000REP       STRAIGHT PARTY                                          REPUBLICAN PARTY                      PRECINCT 406                                           01 
01030020001000278000066000202000010000000000000DEM       STRAIGHT PARTY                                          DEMOCRATIC PARTY                      PRECINCT 101                                           01 
01030020002000162000038000122000002000000000000DEM       STRAIGHT PARTY                                          DEMOCRATIC PARTY                      PRECINCT 102                                           01 
01030020003000153000031000113000009000000000000DEM       STRAIGHT PARTY                                          DEMOCRATIC PARTY                      PRECINCT 103                                           01 
01030020004000148000041000097000010000000000000DEM       STRAIGHT PARTY                                          DEMOCRATIC PARTY                      PRECINCT 104                                           01 
01030020005000319000115000182000022000000000000DEM       STRAIGHT PARTY                                          DEMOCRATIC PARTY                      PRECINCT 105                                           01 
01030020006000237000061000164000012000000000000DEM       STRAIGHT PARTY                                          DEMOCRATIC PARTY                      PRECINCT 106                                           01 
01030020008000247000086000149000012000000000000DEM       STRAIGHT PARTY                                          DEMOCRATIC PARTY                      PRECINCT 201                                           01 
01030020009000070000019000049000002000000000000DEM       STRAIGHT PARTY                                          DEMOCRATIC PARTY                      PRECINCT 202                                           01 
01030020010000159000041000109000009000000000000DEM       STRAIGHT PARTY                                          DEMOCRATIC PARTY                      PRECINCT 203                                           01 
01030020011000263000072000176000015000000000000DEM       STRAIGHT PARTY                                          DEMOCRATIC PARTY                      PRECINCT 204                                           01 
01030020012000352000069000271000012000000000000DEM       STRAIGHT PARTY                                          DEMOCRATIC PARTY                      PRECINCT 205                                           01 
01030020013000202000044000149000009000000000000DEM       STRAIGHT PARTY                                          DEMOCRATIC PARTY                      PRECINCT 206                                           01 
01030020014000436000225000202000009000000000000DEM       STRAIGHT PARTY                                          DEMOCRATIC PARTY                      PRECINCT 301                                           01 
01030020015000432000148000266000018000000000000DEM       STRAIGHT PARTY                                          DEMOCRATIC PARTY                      PRECINCT 302                                           01 
01030020016000155000083000067000005000000000000DEM       STRAIGHT PARTY                                          DEMOCRATIC PARTY                      PRECINCT 303                                           01 
01030020017000365000127000225000013000000000000DEM       STRAIGHT PARTY                                          DEMOCRATIC PARTY                      PRECINCT 304                                           01 
01030020018000099000025000070000004000000000000DEM       STRAIGHT PARTY                                          DEMOCRATIC PARTY                      PRECINCT 305                                           01 
01030020019000116000023000080000013000000000000DEM       STRAIGHT PARTY                                          DEMOCRATIC PARTY                      PRECINCT 401                                           01 
01030020020000272000079000185000008000000000000DEM       STRAIGHT PARTY                                          DEMOCRATIC PARTY                      PRECINCT 402                                           01 
01030020021000235000075000145000015000000000000DEM       STRAIGHT PARTY                                          DEMOCRATIC PARTY                      PRECINCT 403                                           01 
01030020022000289000085000190000014000000000000DEM       STRAIGHT PARTY                                          DEMOCRATIC PARTY                      PRECINCT 404                                           01 
01030020023000217000058000143000016000000000000DEM       STRAIGHT PARTY                                          DEMOCRATIC PARTY                      PRECINCT 405                                           01 
01030020024000253000078000155000020000000000000DEM       STRAIGHT PARTY                                          DEMOCRATIC PARTY                      PRECINCT 406                                           01 
01030030001000008000003000005000000000000000000LIB       STRAIGHT PARTY                                          LIBERTARIAN PARTY                     PRECINCT 101                                           01 
01030030002000005000000000003000002000000000000LIB       STRAIGHT PARTY                                          LIBERTARIAN PARTY                     PRECINCT 102                                           01 
01030030003000005000003000002000000000000000000LIB       STRAIGHT PARTY                                          LIBERTARIAN PARTY                     PRECINCT 103                                           01 
01030030004000011000005000006000000000000000000LIB       STRAIGHT PARTY                                          LIBERTARIAN PARTY                     PRECINCT 104                                           01 
01030030005000015000003000010000002000000000000LIB       STRAIGHT PARTY                                          LIBERTARIAN PARTY                     PRECINCT 105                                           01 
01030030006000007000004000002000001000000000000LIB       STRAIGHT PARTY                                          LIBERTARIAN PARTY                     PRECINCT 106                                           01 
01030030008000002000001000001000000000000000000LIB       STRAIGHT PARTY                                          LIBERTARIAN PARTY                     PRECINCT 201                                           01 
01030030009000001000001000000000000000000000000LIB       STRAIGHT PARTY                                          LIBERTARIAN PARTY                     PRECINCT 202                                           01 
01030030010000005000002000002000001000000000000LIB       STRAIGHT PARTY                                          LIBERTARIAN PARTY                     PRECINCT 203                                           01 
01030030011000006000002000004000000000000000000LIB       STRAIGHT PARTY                                          LIBERTARIAN PARTY                     PRECINCT 204                                           01 
01030030012000007000002000005000000000000000000LIB       STRAIGHT PARTY                                          LIBERTARIAN PARTY                     PRECINCT 205                                           01 
01030030013000010000004000006000000000000000000LIB       STRAIGHT PARTY                                          LIBERTARIAN PARTY                     PRECINCT 206                                           01 
01030030014000005000000000005000000000000000000LIB       STRAIGHT PARTY                                          LIBERTARIAN PARTY                     PRECINCT 301                                           01 
01030030015000008000002000004000002000000000000LIB       STRAIGHT PARTY                                          LIBERTARIAN PARTY                     PRECINCT 302                                           01 
01030030016000001000000000001000000000000000000LIB       STRAIGHT PARTY                                          LIBERTARIAN PARTY                     PRECINCT 303                                           01 
01030030017000009000004000005000000000000000000LIB       STRAIGHT PARTY                                          LIBERTARIAN PARTY                     PRECINCT 304                                           01 
01030030018000005000003000002000000000000000000LIB       STRAIGHT PARTY                                          LIBERTARIAN PARTY                     PRECINCT 305                                           01 
01030030019000001000001000000000000000000000000LIB       STRAIGHT PARTY                                          LIBERTARIAN PARTY                     PRECINCT 401                                           01 
01030030020000012000005000006000001000000000000LIB       STRAIGHT PARTY                                          LIBERTARIAN PARTY                     PRECINCT 402                                           01 
01030030021000006000004000001000001000000000000LIB       STRAIGHT PARTY                                          LIBERTARIAN PARTY                     PRECINCT 403                                           01 
01030030022000014000005000008000001000000000000LIB       STRAIGHT PARTY                                          LIBERTARIAN PARTY                     PRECINCT 404                                           01 
01030030023000008000004000003000001000000000000LIB       STRAIGHT PARTY                                          LIBERTARIAN PARTY                     PRECINCT 405                                           01 
01030030024000006000004000002000000000000000000LIB       STRAIGHT PARTY                                          LIBERTARIAN PARTY                     PRECINCT 406                                           01 
01030040001000004000002000002000000000000000000GRN       STRAIGHT PARTY                                          GREEN PARTY                           PRECINCT 101                                           01 
01030040002000000000000000000000000000000000000GRN       STRAIGHT PARTY                                          GREEN PARTY                           PRECINCT 102                                           01 
01030040003000000000000000000000000000000000000GRN       STRAIGHT PARTY                                          GREEN PARTY                           PRECINCT 103                                           01 
01030040004000002000000000002000000000000000000GRN       STRAIGHT PARTY                                          GREEN PARTY                           PRECINCT 104                                           01 
01030040005000006000003000003000000000000000000GRN       STRAIGHT PARTY                                          GREEN PARTY                           PRECINCT 105                                           01 
01030040006000002000000000002000000000000000000GRN       STRAIGHT PARTY                                          GREEN PARTY                           PRECINCT 106                                           01 
01030040008000004000003000001000000000000000000GRN       STRAIGHT PARTY                                          GREEN PARTY                           PRECINCT 201                                           01 
01030040009000000000000000000000000000000000000GRN       STRAIGHT PARTY                                          GREEN PARTY                           PRECINCT 202                                           01 
01030040010000001000000000000000001000000000000GRN       STRAIGHT PARTY                                          GREEN PARTY                           PRECINCT 203                                           01 
01030040011000001000000000001000000000000000000GRN       STRAIGHT PARTY                                          GREEN PARTY                           PRECINCT 204                                           01 
01030040012000007000000000006000001000000000000GRN       STRAIGHT PARTY                                          GREEN PARTY                           PRECINCT 205                                           01 
01030040013000001000000000001000000000000000000GRN       STRAIGHT PARTY                                          GREEN PARTY                           PRECINCT 206                                           01 
01030040014000001000001000000000000000000000000GRN       STRAIGHT PARTY                                          GREEN PARTY                           PRECINCT 301                                           01 
01030040015000002000000000002000000000000000000GRN       STRAIGHT PARTY                                          GREEN PARTY                           PRECINCT 302                                           01 
01030040016000001000000000001000000000000000000GRN       STRAIGHT PARTY                                          GREEN PARTY                           PRECINCT 303                                           01 
01030040017000001000001000000000000000000000000GRN       STRAIGHT PARTY                                          GREEN PARTY                           PRECINCT 304                                           01 
01030040018000000000000000000000000000000000000GRN       STRAIGHT PARTY                                          GREEN PARTY                           PRECINCT 305                                           01 
01030040019000001000001000000000000000000000000GRN       STRAIGHT PARTY                                          GREEN PARTY                           PRECINCT 401                                           01 
01030040020000002000000000002000000000000000000GRN       STRAIGHT PARTY                                          GREEN PARTY                           PRECINCT 402                                           01 
01030040021000002000002000000000000000000000000GRN       STRAIGHT PARTY                                          GREEN PARTY                           PRECINCT 403                                           01 
01030040022000003000001000000000002000000000000GRN       STRAIGHT PARTY                                          GREEN PARTY                           PRECINCT 404                                           01 
01030040023000002000001000001000000000000000000GRN       STRAIGHT PARTY                                          GREEN PARTY                           PRECINCT 405                                           01 
01030040024000003000001000002000000000000000000GRN       STRAIGHT PARTY                                          GREEN PARTY                           PRECINCT 406                                           01 
01030050001000000000000000000000000000000000000          STRAIGHT PARTY                                          OVER VOTES                            PRECINCT 101                                           01 
01030050002000000000000000000000000000000000000          STRAIGHT PARTY                                          OVER VOTES                            PRECINCT 102                                           01 
01030050003000000000000000000000000000000000000          STRAIGHT PARTY                                          OVER VOTES                            PRECINCT 103                                           01 
01030050004000000000000000000000000000000000000          STRAIGHT PARTY                                          OVER VOTES                            PRECINCT 104                                           01 
01030050005000000000000000000000000000000000000          STRAIGHT PARTY                                          OVER VOTES                            PRECINCT 105                                           01 
01030050006000000000000000000000000000000000000          STRAIGHT PARTY                                          OVER VOTES                            PRECINCT 106                                           01 
01030050008000001000000000000000001000000000000          STRAIGHT PARTY                                          OVER VOTES                            PRECINCT 201                                           01 
01030050009000000000000000000000000000000000000          STRAIGHT PARTY                                          OVER VOTES                            PRECINCT 202                                           01 
01030050010000000000000000000000000000000000000          STRAIGHT PARTY                                          OVER VOTES                            PRECINCT 203                                           01 
01030050011000001000000000000000001000000000000          STRAIGHT PARTY                                          OVER VOTES                            PRECINCT 204                                           01 
01030050012000000000000000000000000000000000000          STRAIGHT PARTY                                          OVER VOTES                            PRECINCT 205                                           01 
01030050013000000000000000000000000000000000000          STRAIGHT PARTY                                          OVER VOTES                            PRECINCT 206                                           01 
01030050014000000000000000000000000000000000000          STRAIGHT PARTY                                          OVER VOTES                            PRECINCT 301                                           01 
01030050015000000000000000000000000000000000000          STRAIGHT PARTY                                          OVER VOTES                            PRECINCT 302                                           01 
01030050016000000000000000000000000000000000000          STRAIGHT PARTY                                          OVER VOTES                            PRECINCT 303                                           01 
01030050017000000000000000000000000000000000000          STRAIGHT PARTY                                          OVER VOTES                            PRECINCT 304                                           01 
01030050018000000000000000000000000000000000000          STRAIGHT PARTY                                          OVER VOTES                            PRECINCT 305                                           01 
01030050019000000000000000000000000000000000000          STRAIGHT PARTY                                          OVER VOTES                            PRECINCT 401                                           01 
01030050020000000000000000000000000000000000000          STRAIGHT PARTY                                          OVER VOTES                            PRECINCT 402                                           01 
01030050021000000000000000000000000000000000000          STRAIGHT PARTY                                          OVER VOTES                            PRECINCT 403                                           01 
01030050022000000000000000000000000000000000000          STRAIGHT PARTY                                          OVER VOTES                            PRECINCT 404                                           01 
01030050023000002000000000000000002000000000000          STRAIGHT PARTY                                          OVER VOTES                            PRECINCT 405                                           01 
01030050024000000000000000000000000000000000000          STRAIGHT PARTY                                          OVER VOTES                            PRECINCT 406                                           01 
01030060001001175000225000880000070000000000000          STRAIGHT PARTY                                          UNDER VOTES                           PRECINCT 101                                           01 
01030060002000824000170000598000056000000000000          STRAIGHT PARTY                                          UNDER VOTES                           PRECINCT 102                                           01 
01030060003000978000262000675000041000000000000          STRAIGHT PARTY                                          UNDER VOTES                           PRECINCT 103                                           01 
01030060004000535000137000361000037000000000000          STRAIGHT PARTY                                          UNDER VOTES                           PRECINCT 104                                           01 
01030060005001243000450000720000073000000000000          STRAIGHT PARTY                                          UNDER VOTES                           PRECINCT 105                                           01 
01030060006001294000268000978000048000000000000          STRAIGHT PARTY                                          UNDER VOTES                           PRECINCT 106                                           01 
01030060008000947000305000598000044000000000000          STRAIGHT PARTY                                          UNDER VOTES                           PRECINCT 201                                           01 
01030060009000201000068000117000016000000000000          STRAIGHT PARTY                                          UNDER VOTES                           PRECINCT 202                                           01 
01030060010000983000252000682000049000000000000          STRAIGHT PARTY                                          UNDER VOTES                           PRECINCT 203                                           01 
01030060011001289000358000874000057000000000000          STRAIGHT PARTY                                          UNDER VOTES                           PRECINCT 204                                           01 
01030060012001634000294001261000079000000000000          STRAIGHT PARTY                                          UNDER VOTES                           PRECINCT 205                                           01 
01030060013001175000220000844000111000000000000          STRAIGHT PARTY                                          UNDER VOTES                           PRECINCT 206                                           01 
01030060014000802000314000404000084000000000000          STRAIGHT PARTY                                          UNDER VOTES                           PRECINCT 301                                           01 
01030060015001498000479000908000111000000000000          STRAIGHT PARTY                                          UNDER VOTES                           PRECINCT 302                                           01 
01030060016000312000103000154000055000000000000          STRAIGHT PARTY                                          UNDER VOTES                           PRECINCT 303                                           01 
01030060017000834000300000497000037000000000000          STRAIGHT PARTY                                          UNDER VOTES                           PRECINCT 304                                           01 
01030060018000403000144000232000027000000000000          STRAIGHT PARTY                                          UNDER VOTES                           PRECINCT 305                                           01 
01030060019000577000114000424000039000000000000          STRAIGHT PARTY                                          UNDER VOTES                           PRECINCT 401                                           01 
01030060020001100000341000693000066000000000000          STRAIGHT PARTY                                          UNDER VOTES                           PRECINCT 402                                           01 
01030060021000960000346000558000056000000000000          STRAIGHT PARTY                                          UNDER VOTES                           PRECINCT 403                                           01 
01030060022001614000418001108000088000000000000          STRAIGHT PARTY                                          UNDER VOTES                           PRECINCT 404                                           01 
01030060023000765000241000476000048000000000000          STRAIGHT PARTY                                          UNDER VOTES                           PRECINCT 405                                           01 
01030060024000995000340000599000056000000000000          STRAIGHT PARTY                                          UNDER VOTES                           PRECINCT 406                                           01 
01040010001001803000296001355000152000000000000REP       President and Vice President COMAL COUNTYWIDE           Mitt Romney / Paul Ryan               PRECINCT 101                                           01 
01040010002001832000300001426000106000000000000REP       President and Vice President COMAL COUNTYWIDE           Mitt Romney / Paul Ryan               PRECINCT 102                                           01 
01040010003001693000375001198000120000000000000REP       President and Vice President COMAL COUNTYWIDE           Mitt Romney / Paul Ryan               PRECINCT 103                                           01 
01040010004000980000196000707000077000000000000REP       President and Vice President COMAL COUNTYWIDE           Mitt Romney / Paul Ryan               PRECINCT 104                                           01 
01040010005002259000666001382000211000000000000REP       President and Vice President COMAL COUNTYWIDE           Mitt Romney / Paul Ryan               PRECINCT 105                                           01 
01040010006002739000496002087000156000000000000REP       President and Vice President COMAL COUNTYWIDE           Mitt Romney / Paul Ryan               PRECINCT 106                                           01 
01040010008001567000447001008000112000000000000REP       President and Vice President COMAL COUNTYWIDE           Mitt Romney / Paul Ryan               PRECINCT 201                                           01 
01040010009000387000108000239000040000000000000REP       President and Vice President COMAL COUNTYWIDE           Mitt Romney / Paul Ryan               PRECINCT 202                                           01 
01040010010001973000405001416000152000000000000REP       President and Vice President COMAL COUNTYWIDE           Mitt Romney / Paul Ryan               PRECINCT 203                                           01 
01040010011002569000570001819000180000000000000REP       President and Vice President COMAL COUNTYWIDE           Mitt Romney / Paul Ryan               PRECINCT 204                                           01 
01040010012003109000429002485000195000000000000REP       President and Vice President COMAL COUNTYWIDE           Mitt Romney / Paul Ryan               PRECINCT 205                                           01 
01040010013002413000388001839000186000000000000REP       President and Vice President COMAL COUNTYWIDE           Mitt Romney / Paul Ryan               PRECINCT 206                                           01 
01040010014000892000275000527000090000000000000REP       President and Vice President COMAL COUNTYWIDE           Mitt Romney / Paul Ryan               PRECINCT 301                                           01 
01040010015002004000497001345000162000000000000REP       President and Vice President COMAL COUNTYWIDE           Mitt Romney / Paul Ryan               PRECINCT 302                                           01 
01040010016000281000070000166000045000000000000REP       President and Vice President COMAL COUNTYWIDE           Mitt Romney / Paul Ryan               PRECINCT 303                                           01 
01040010017001239000352000803000084000000000000REP       President and Vice President COMAL COUNTYWIDE           Mitt Romney / Paul Ryan               PRECINCT 304                                           01 
01040010018000563000180000345000038000000000000REP       President and Vice President COMAL COUNTYWIDE           Mitt Romney / Paul Ryan               PRECINCT 305                                           01 
01040010019000975000155000717000103000000000000REP       President and Vice President COMAL COUNTYWIDE           Mitt Romney / Paul Ryan               PRECINCT 401                                           01 
01040010020002022000495001364000163000000000000REP       President and Vice President COMAL COUNTYWIDE           Mitt Romney / Paul Ryan               PRECINCT 402                                           01 
01040010021001901000527001193000181000000000000REP       President and Vice President COMAL COUNTYWIDE           Mitt Romney / Paul Ryan               PRECINCT 403                                           01 
01040010022002924000610002118000196000000000000REP       President and Vice President COMAL COUNTYWIDE           Mitt Romney / Paul Ryan               PRECINCT 404                                           01 
01040010023001476000430000927000119000000000000REP       President and Vice President COMAL COUNTYWIDE           Mitt Romney / Paul Ryan               PRECINCT 405                                           01 
01040010024001717000455001064000198000000000000REP       President and Vice President COMAL COUNTYWIDE           Mitt Romney / Paul Ryan               PRECINCT 406                                           01 
01040020001000639000158000452000029000000000000DEM       President and Vice President COMAL COUNTYWIDE           Barack Obama / Joe Biden              PRECINCT 101                                           01 
01040020002000335000077000243000015000000000000DEM       President and Vice President COMAL COUNTYWIDE           Barack Obama / Joe Biden              PRECINCT 102                                           01 
01040020003000374000088000270000016000000000000DEM       President and Vice President COMAL COUNTYWIDE           Barack Obama / Joe Biden              PRECINCT 103                                           01 
01040020004000282000077000184000021000000000000DEM       President and Vice President COMAL COUNTYWIDE           Barack Obama / Joe Biden              PRECINCT 104                                           01 
01040020005000639000249000350000040000000000000DEM       President and Vice President COMAL COUNTYWIDE           Barack Obama / Joe Biden              PRECINCT 105                                           01 
01040020006000497000115000365000017000000000000DEM       President and Vice President COMAL COUNTYWIDE           Barack Obama / Joe Biden              PRECINCT 106                                           01 
01040020008000492000175000298000019000000000000DEM       President and Vice President COMAL COUNTYWIDE           Barack Obama / Joe Biden              PRECINCT 201                                           01 
01040020009000131000040000085000006000000000000DEM       President and Vice President COMAL COUNTYWIDE           Barack Obama / Joe Biden              PRECINCT 202                                           01 
01040020010000348000094000231000023000000000000DEM       President and Vice President COMAL COUNTYWIDE           Barack Obama / Joe Biden              PRECINCT 203                                           01 
01040020011000576000160000385000031000000000000DEM       President and Vice President COMAL COUNTYWIDE           Barack Obama / Joe Biden              PRECINCT 204                                           01 
01040020012000812000151000629000032000000000000DEM       President and Vice President COMAL COUNTYWIDE           Barack Obama / Joe Biden              PRECINCT 205                                           01 
01040020013000462000110000313000039000000000000DEM       President and Vice President COMAL COUNTYWIDE           Barack Obama / Joe Biden              PRECINCT 206                                           01 
01040020014000779000392000356000031000000000000DEM       President and Vice President COMAL COUNTYWIDE           Barack Obama / Joe Biden              PRECINCT 301                                           01 
01040020015000935000332000556000047000000000000DEM       President and Vice President COMAL COUNTYWIDE           Barack Obama / Joe Biden              PRECINCT 302                                           01 
01040020016000294000140000135000019000000000000DEM       President and Vice President COMAL COUNTYWIDE           Barack Obama / Joe Biden              PRECINCT 303                                           01 
01040020017000671000253000391000027000000000000DEM       President and Vice President COMAL COUNTYWIDE           Barack Obama / Joe Biden              PRECINCT 304                                           01 
01040020018000223000081000130000012000000000000DEM       President and Vice President COMAL COUNTYWIDE           Barack Obama / Joe Biden              PRECINCT 305                                           01 
01040020019000285000062000199000024000000000000DEM       President and Vice President COMAL COUNTYWIDE           Barack Obama / Joe Biden              PRECINCT 401                                           01 
01040020020000598000184000389000025000000000000DEM       President and Vice President COMAL COUNTYWIDE           Barack Obama / Joe Biden              PRECINCT 402                                           01 
01040020021000464000156000280000028000000000000DEM       President and Vice President COMAL COUNTYWIDE           Barack Obama / Joe Biden              PRECINCT 403                                           01 
01040020022000671000204000438000029000000000000DEM       President and Vice President COMAL COUNTYWIDE           Barack Obama / Joe Biden              PRECINCT 404                                           01 
01040020023000417000122000266000029000000000000DEM       President and Vice President COMAL COUNTYWIDE           Barack Obama / Joe Biden              PRECINCT 405                                           01 
01040020024000526000185000305000036000000000000DEM       President and Vice President COMAL COUNTYWIDE           Barack Obama / Joe Biden              PRECINCT 406                                           01 
01040030001000022000008000013000001000000000000LIB       President and Vice President COMAL COUNTYWIDE           Gary Johnson / Jim Gray               PRECINCT 101                                           01 
01040030002000027000006000018000003000000000000LIB       President and Vice President COMAL COUNTYWIDE           Gary Johnson / Jim Gray               PRECINCT 102                                           01 
01040030003000022000010000010000002000000000000LIB       President and Vice President COMAL COUNTYWIDE           Gary Johnson / Jim Gray               PRECINCT 103                                           01 
01040030004000025000011000011000003000000000000LIB       President and Vice President COMAL COUNTYWIDE           Gary Johnson / Jim Gray               PRECINCT 104                                           01 
01040030005000046000018000027000001000000000000LIB       President and Vice President COMAL COUNTYWIDE           Gary Johnson / Jim Gray               PRECINCT 105                                           01 
01040030006000021000005000014000002000000000000LIB       President and Vice President COMAL COUNTYWIDE           Gary Johnson / Jim Gray               PRECINCT 106                                           01 
01040030008000021000009000012000000000000000000LIB       President and Vice President COMAL COUNTYWIDE           Gary Johnson / Jim Gray               PRECINCT 201                                           01 
01040030009000006000006000000000000000000000000LIB       President and Vice President COMAL COUNTYWIDE           Gary Johnson / Jim Gray               PRECINCT 202                                           01 
01040030010000026000009000014000003000000000000LIB       President and Vice President COMAL COUNTYWIDE           Gary Johnson / Jim Gray               PRECINCT 203                                           01 
01040030011000024000010000014000000000000000000LIB       President and Vice President COMAL COUNTYWIDE           Gary Johnson / Jim Gray               PRECINCT 204                                           01 
01040030012000029000010000019000000000000000000LIB       President and Vice President COMAL COUNTYWIDE           Gary Johnson / Jim Gray               PRECINCT 205                                           01 
01040030013000025000011000014000000000000000000LIB       President and Vice President COMAL COUNTYWIDE           Gary Johnson / Jim Gray               PRECINCT 206                                           01 
01040030014000030000010000019000001000000000000LIB       President and Vice President COMAL COUNTYWIDE           Gary Johnson / Jim Gray               PRECINCT 301                                           01 
01040030015000055000024000029000002000000000000LIB       President and Vice President COMAL COUNTYWIDE           Gary Johnson / Jim Gray               PRECINCT 302                                           01 
01040030016000006000002000003000001000000000000LIB       President and Vice President COMAL COUNTYWIDE           Gary Johnson / Jim Gray               PRECINCT 303                                           01 
01040030017000023000011000012000000000000000000LIB       President and Vice President COMAL COUNTYWIDE           Gary Johnson / Jim Gray               PRECINCT 304                                           01 
01040030018000017000007000010000000000000000000LIB       President and Vice President COMAL COUNTYWIDE           Gary Johnson / Jim Gray               PRECINCT 305                                           01 
01040030019000005000002000002000001000000000000LIB       President and Vice President COMAL COUNTYWIDE           Gary Johnson / Jim Gray               PRECINCT 401                                           01 
01040030020000032000019000012000001000000000000LIB       President and Vice President COMAL COUNTYWIDE           Gary Johnson / Jim Gray               PRECINCT 402                                           01 
01040030021000036000017000018000001000000000000LIB       President and Vice President COMAL COUNTYWIDE           Gary Johnson / Jim Gray               PRECINCT 403                                           01 
01040030022000050000024000024000002000000000000LIB       President and Vice President COMAL COUNTYWIDE           Gary Johnson / Jim Gray               PRECINCT 404                                           01 
01040030023000026000011000012000003000000000000LIB       President and Vice President COMAL COUNTYWIDE           Gary Johnson / Jim Gray               PRECINCT 405                                           01 
01040030024000027000015000012000000000000000000LIB       President and Vice President COMAL COUNTYWIDE           Gary Johnson / Jim Gray               PRECINCT 406                                           01 
01040040001000011000003000008000000000000000000GRN       President and Vice President COMAL COUNTYWIDE           Jill Stein / Cheri Honkala            PRECINCT 101                                           01 
01040040002000003000002000001000000000000000000GRN       President and Vice President COMAL COUNTYWIDE           Jill Stein / Cheri Honkala            PRECINCT 102                                           01 
01040040003000007000004000003000000000000000000GRN       President and Vice President COMAL COUNTYWIDE           Jill Stein / Cheri Honkala            PRECINCT 103                                           01 
01040040004000004000001000003000000000000000000GRN       President and Vice President COMAL COUNTYWIDE           Jill Stein / Cheri Honkala            PRECINCT 104                                           01 
01040040005000014000007000006000001000000000000GRN       President and Vice President COMAL COUNTYWIDE           Jill Stein / Cheri Honkala            PRECINCT 105                                           01 
01040040006000003000000000003000000000000000000GRN       President and Vice President COMAL COUNTYWIDE           Jill Stein / Cheri Honkala            PRECINCT 106                                           01 
01040040008000011000007000004000000000000000000GRN       President and Vice President COMAL COUNTYWIDE           Jill Stein / Cheri Honkala            PRECINCT 201                                           01 
01040040009000003000002000001000000000000000000GRN       President and Vice President COMAL COUNTYWIDE           Jill Stein / Cheri Honkala            PRECINCT 202                                           01 
01040040010000005000003000002000000000000000000GRN       President and Vice President COMAL COUNTYWIDE           Jill Stein / Cheri Honkala            PRECINCT 203                                           01 
01040040011000005000002000003000000000000000000GRN       President and Vice President COMAL COUNTYWIDE           Jill Stein / Cheri Honkala            PRECINCT 204                                           01 
01040040012000006000001000005000000000000000000GRN       President and Vice President COMAL COUNTYWIDE           Jill Stein / Cheri Honkala            PRECINCT 205                                           01 
01040040013000004000001000002000001000000000000GRN       President and Vice President COMAL COUNTYWIDE           Jill Stein / Cheri Honkala            PRECINCT 206                                           01 
01040040014000008000003000004000001000000000000GRN       President and Vice President COMAL COUNTYWIDE           Jill Stein / Cheri Honkala            PRECINCT 301                                           01 
01040040015000015000005000010000000000000000000GRN       President and Vice President COMAL COUNTYWIDE           Jill Stein / Cheri Honkala            PRECINCT 302                                           01 
01040040016000000000000000000000000000000000000GRN       President and Vice President COMAL COUNTYWIDE           Jill Stein / Cheri Honkala            PRECINCT 303                                           01 
01040040017000008000005000003000000000000000000GRN       President and Vice President COMAL COUNTYWIDE           Jill Stein / Cheri Honkala            PRECINCT 304                                           01 
01040040018000003000003000000000000000000000000GRN       President and Vice President COMAL COUNTYWIDE           Jill Stein / Cheri Honkala            PRECINCT 305                                           01 
01040040019000003000002000001000000000000000000GRN       President and Vice President COMAL COUNTYWIDE           Jill Stein / Cheri Honkala            PRECINCT 401                                           01 
01040040020000006000002000004000000000000000000GRN       President and Vice President COMAL COUNTYWIDE           Jill Stein / Cheri Honkala            PRECINCT 402                                           01 
01040040021000004000004000000000000000000000000GRN       President and Vice President COMAL COUNTYWIDE           Jill Stein / Cheri Honkala            PRECINCT 403                                           01 
01040040022000012000005000006000001000000000000GRN       President and Vice President COMAL COUNTYWIDE           Jill Stein / Cheri Honkala            PRECINCT 404                                           01 
01040040023000004000001000002000001000000000000GRN       President and Vice President COMAL COUNTYWIDE           Jill Stein / Cheri Honkala            PRECINCT 405                                           01 
01040040024000007000004000003000000000000000000GRN       President and Vice President COMAL COUNTYWIDE           Jill Stein / Cheri Honkala            PRECINCT 406                                           01 
01040050001000000000000000000000000000000000000NON       President and Vice President COMAL COUNTYWIDE           WRITE-IN                              PRECINCT 101                                           01 
01040050002000002000001000001000000000000000000NON       President and Vice President COMAL COUNTYWIDE           WRITE-IN                              PRECINCT 102                                           01 
01040050003000000000000000000000000000000000000NON       President and Vice President COMAL COUNTYWIDE           WRITE-IN                              PRECINCT 103                                           01 
01040050004000000000000000000000000000000000000NON       President and Vice President COMAL COUNTYWIDE           WRITE-IN                              PRECINCT 104                                           01 
01040050005000000000000000000000000000000000000NON       President and Vice President COMAL COUNTYWIDE           WRITE-IN                              PRECINCT 105                                           01 
01040050006000000000000000000000000000000000000NON       President and Vice President COMAL COUNTYWIDE           WRITE-IN                              PRECINCT 106                                           01 
01040050008000001000001000000000000000000000000NON       President and Vice President COMAL COUNTYWIDE           WRITE-IN                              PRECINCT 201                                           01 
01040050009000000000000000000000000000000000000NON       President and Vice President COMAL COUNTYWIDE           WRITE-IN                              PRECINCT 202                                           01 
01040050010000000000000000000000000000000000000NON       President and Vice President COMAL COUNTYWIDE           WRITE-IN                              PRECINCT 203                                           01 
01040050011000000000000000000000000000000000000NON       President and Vice President COMAL COUNTYWIDE           WRITE-IN                              PRECINCT 204                                           01 
01040050012000001000001000000000000000000000000NON       President and Vice President COMAL COUNTYWIDE           WRITE-IN                              PRECINCT 205                                           01 
01040050013000002000001000001000000000000000000NON       President and Vice President COMAL COUNTYWIDE           WRITE-IN                              PRECINCT 206                                           01 
01040050014000000000000000000000000000000000000NON       President and Vice President COMAL COUNTYWIDE           WRITE-IN                              PRECINCT 301                                           01 
01040050015000001000000000001000000000000000000NON       President and Vice President COMAL COUNTYWIDE           WRITE-IN                              PRECINCT 302                                           01 
01040050016000000000000000000000000000000000000NON       President and Vice President COMAL COUNTYWIDE           WRITE-IN                              PRECINCT 303                                           01 
01040050017000000000000000000000000000000000000NON       President and Vice President COMAL COUNTYWIDE           WRITE-IN                              PRECINCT 304                                           01 
01040050018000000000000000000000000000000000000NON       President and Vice President COMAL COUNTYWIDE           WRITE-IN                              PRECINCT 305                                           01 
01040050019000000000000000000000000000000000000NON       President and Vice President COMAL COUNTYWIDE           WRITE-IN                              PRECINCT 401                                           01 
01040050020000005000000000004000001000000000000NON       President and Vice President COMAL COUNTYWIDE           WRITE-IN                              PRECINCT 402                                           01 
01040050021000001000000000001000000000000000000NON       President and Vice President COMAL COUNTYWIDE           WRITE-IN                              PRECINCT 403                                           01 
01040050022000000000000000000000000000000000000NON       President and Vice President COMAL COUNTYWIDE           WRITE-IN                              PRECINCT 404                                           01 
01040050023000001000000000001000000000000000000NON       President and Vice President COMAL COUNTYWIDE           WRITE-IN                              PRECINCT 405                                           01 
01040050024000000000000000000000000000000000000NON       President and Vice President COMAL COUNTYWIDE           WRITE-IN                              PRECINCT 406                                           01 
01040060001000001000000000000000001000000000000          President and Vice President COMAL COUNTYWIDE           OVER VOTES                            PRECINCT 101                                           01 
01040060002000000000000000000000000000000000000          President and Vice President COMAL COUNTYWIDE           OVER VOTES                            PRECINCT 102                                           01 
01040060003000000000000000000000000000000000000          President and Vice President COMAL COUNTYWIDE           OVER VOTES                            PRECINCT 103                                           01 
01040060004000000000000000000000000000000000000          President and Vice President COMAL COUNTYWIDE           OVER VOTES                            PRECINCT 104                                           01 
01040060005000000000000000000000000000000000000          President and Vice President COMAL COUNTYWIDE           OVER VOTES                            PRECINCT 105                                           01 
01040060006000001000000000000000001000000000000          President and Vice President COMAL COUNTYWIDE           OVER VOTES                            PRECINCT 106                                           01 
01040060008000000000000000000000000000000000000          President and Vice President COMAL COUNTYWIDE           OVER VOTES                            PRECINCT 201                                           01 
01040060009000000000000000000000000000000000000          President and Vice President COMAL COUNTYWIDE           OVER VOTES                            PRECINCT 202                                           01 
01040060010000000000000000000000000000000000000          President and Vice President COMAL COUNTYWIDE           OVER VOTES                            PRECINCT 203                                           01 
01040060011000000000000000000000000000000000000          President and Vice President COMAL COUNTYWIDE           OVER VOTES                            PRECINCT 204                                           01 
01040060012000000000000000000000000000000000000          President and Vice President COMAL COUNTYWIDE           OVER VOTES                            PRECINCT 205                                           01 
01040060013000000000000000000000000000000000000          President and Vice President COMAL COUNTYWIDE           OVER VOTES                            PRECINCT 206                                           01 
01040060014000000000000000000000000000000000000          President and Vice President COMAL COUNTYWIDE           OVER VOTES                            PRECINCT 301                                           01 
01040060015000000000000000000000000000000000000          President and Vice President COMAL COUNTYWIDE           OVER VOTES                            PRECINCT 302                                           01 
01040060016000000000000000000000000000000000000          President and Vice President COMAL COUNTYWIDE           OVER VOTES                            PRECINCT 303                                           01 
01040060017000000000000000000000000000000000000          President and Vice President COMAL COUNTYWIDE           OVER VOTES                            PRECINCT 304                                           01 
01040060018000000000000000000000000000000000000          President and Vice President COMAL COUNTYWIDE           OVER VOTES                            PRECINCT 305                                           01 
01040060019000000000000000000000000000000000000          President and Vice President COMAL COUNTYWIDE           OVER VOTES                            PRECINCT 401                                           01 
01040060020000000000000000000000000000000000000          President and Vice President COMAL COUNTYWIDE           OVER VOTES                            PRECINCT 402                                           01 
01040060021000000000000000000000000000000000000          President and Vice President COMAL COUNTYWIDE           OVER VOTES                            PRECINCT 403                                           01 
01040060022000000000000000000000000000000000000          President and Vice President COMAL COUNTYWIDE           OVER VOTES                            PRECINCT 404                                           01 
01040060023000000000000000000000000000000000000          President and Vice President COMAL COUNTYWIDE           OVER VOTES                            PRECINCT 405                                           01 
01040060024000000000000000000000000000000000000          President and Vice President COMAL COUNTYWIDE           OVER VOTES                            PRECINCT 406                                           01 
01040070001000013000005000008000000000000000000          President and Vice President COMAL COUNTYWIDE           UNDER VOTES                           PRECINCT 101                                           01 
01040070002000008000001000006000001000000000000          President and Vice President COMAL COUNTYWIDE           UNDER VOTES                           PRECINCT 102                                           01 
01040070003000006000001000005000000000000000000          President and Vice President COMAL COUNTYWIDE           UNDER VOTES                           PRECINCT 103                                           01 
01040070004000004000000000004000000000000000000          President and Vice President COMAL COUNTYWIDE           UNDER VOTES                           PRECINCT 104                                           01 
01040070005000020000013000005000002000000000000          President and Vice President COMAL COUNTYWIDE           UNDER VOTES                           PRECINCT 105                                           01 
01040070006000013000004000008000001000000000000          President and Vice President COMAL COUNTYWIDE           UNDER VOTES                           PRECINCT 106                                           01 
01040070008000016000005000010000001000000000000          President and Vice President COMAL COUNTYWIDE           UNDER VOTES                           PRECINCT 201                                           01 
01040070009000005000002000003000000000000000000          President and Vice President COMAL COUNTYWIDE           UNDER VOTES                           PRECINCT 202                                           01 
01040070010000012000004000008000000000000000000          President and Vice President COMAL COUNTYWIDE           UNDER VOTES                           PRECINCT 203                                           01 
01040070011000012000005000006000001000000000000          President and Vice President COMAL COUNTYWIDE           UNDER VOTES                           PRECINCT 204                                           01 
01040070012000013000002000010000001000000000000          President and Vice President COMAL COUNTYWIDE           UNDER VOTES                           PRECINCT 205                                           01 
01040070013000008000001000007000000000000000000          President and Vice President COMAL COUNTYWIDE           UNDER VOTES                           PRECINCT 206                                           01 
01040070014000014000007000007000000000000000000          President and Vice President COMAL COUNTYWIDE           UNDER VOTES                           PRECINCT 301                                           01 
01040070015000018000003000014000001000000000000          President and Vice President COMAL COUNTYWIDE           UNDER VOTES                           PRECINCT 302                                           01 
01040070016000003000001000002000000000000000000          President and Vice President COMAL COUNTYWIDE           UNDER VOTES                           PRECINCT 303                                           01 
01040070017000007000004000003000000000000000000          President and Vice President COMAL COUNTYWIDE           UNDER VOTES                           PRECINCT 304                                           01 
01040070018000000000000000000000000000000000000          President and Vice President COMAL COUNTYWIDE           UNDER VOTES                           PRECINCT 305                                           01 
01040070019000010000001000009000000000000000000          President and Vice President COMAL COUNTYWIDE           UNDER VOTES                           PRECINCT 401                                           01 
01040070020000012000006000004000002000000000000          President and Vice President COMAL COUNTYWIDE           UNDER VOTES                           PRECINCT 402                                           01 
01040070021000007000002000005000000000000000000          President and Vice President COMAL COUNTYWIDE           UNDER VOTES                           PRECINCT 403                                           01 
01040070022000011000002000009000000000000000000          President and Vice President COMAL COUNTYWIDE           UNDER VOTES                           PRECINCT 404                                           01 
01040070023000008000002000006000000000000000000          President and Vice President COMAL COUNTYWIDE           UNDER VOTES                           PRECINCT 405                                           01 
01040070024000008000003000005000000000000000000          President and Vice President COMAL COUNTYWIDE           UNDER VOTES                           PRECINCT 406                                           01 
01050010001001719000275001297000147000000000000REP       US Senator COMAL COUNTYWIDE                             Ted Cruz                              PRECINCT 101                                           01 
01050010002001749000269001375000105000000000000REP       US Senator COMAL COUNTYWIDE                             Ted Cruz                              PRECINCT 102                                           01 
01050010003001620000356001148000116000000000000REP       US Senator COMAL COUNTYWIDE                             Ted Cruz                              PRECINCT 103                                           01 
01050010004000934000180000680000074000000000000REP       US Senator COMAL COUNTYWIDE                             Ted Cruz                              PRECINCT 104                                           01 
01050010005002157000631001320000206000000000000REP       US Senator COMAL COUNTYWIDE                             Ted Cruz                              PRECINCT 105                                           01 
01050010006002633000466002019000148000000000000REP       US Senator COMAL COUNTYWIDE                             Ted Cruz                              PRECINCT 106                                           01 
01050010008001465000422000938000105000000000000REP       US Senator COMAL COUNTYWIDE                             Ted Cruz                              PRECINCT 201                                           01 
01050010009000376000106000230000040000000000000REP       US Senator COMAL COUNTYWIDE                             Ted Cruz                              PRECINCT 202                                           01 
01050010010001892000385001357000150000000000000REP       US Senator COMAL COUNTYWIDE                             Ted Cruz                              PRECINCT 203                                           01 
01050010011002493000543001770000180000000000000REP       US Senator COMAL COUNTYWIDE                             Ted Cruz                              PRECINCT 204                                           01 
01050010012003035000419002429000187000000000000REP       US Senator COMAL COUNTYWIDE                             Ted Cruz                              PRECINCT 205                                           01 
01050010013002339000382001779000178000000000000REP       US Senator COMAL COUNTYWIDE                             Ted Cruz                              PRECINCT 206                                           01 
01050010014000862000272000506000084000000000000REP       US Senator COMAL COUNTYWIDE                             Ted Cruz                              PRECINCT 301                                           01 
01050010015001918000468001299000151000000000000REP       US Senator COMAL COUNTYWIDE                             Ted Cruz                              PRECINCT 302                                           01 
01050010016000258000069000150000039000000000000REP       US Senator COMAL COUNTYWIDE                             Ted Cruz                              PRECINCT 303                                           01 
01050010017001177000338000760000079000000000000REP       US Senator COMAL COUNTYWIDE                             Ted Cruz                              PRECINCT 304                                           01 
01050010018000537000166000334000037000000000000REP       US Senator COMAL COUNTYWIDE                             Ted Cruz                              PRECINCT 305                                           01 
01050010019000921000147000676000098000000000000REP       US Senator COMAL COUNTYWIDE                             Ted Cruz                              PRECINCT 401                                           01 
01050010020001925000466001299000160000000000000REP       US Senator COMAL COUNTYWIDE                             Ted Cruz                              PRECINCT 402                                           01 
01050010021001825000499001150000176000000000000REP       US Senator COMAL COUNTYWIDE                             Ted Cruz                              PRECINCT 403                                           01 
01050010022002812000588002036000188000000000000REP       US Senator COMAL COUNTYWIDE                             Ted Cruz                              PRECINCT 404                                           01 
01050010023001414000411000891000112000000000000REP       US Senator COMAL COUNTYWIDE                             Ted Cruz                              PRECINCT 405                                           01 
01050010024001635000414001031000190000000000000REP       US Senator COMAL COUNTYWIDE                             Ted Cruz                              PRECINCT 406                                           01 
01050020001000597000144000424000029000000000000DEM       US Senator COMAL COUNTYWIDE                             Paul Sadler                           PRECINCT 101                                           01 
01050020002000347000084000249000014000000000000DEM       US Senator COMAL COUNTYWIDE                             Paul Sadler                           PRECINCT 102                                           01 
01050020003000371000084000272000015000000000000DEM       US Senator COMAL COUNTYWIDE                             Paul Sadler                           PRECINCT 103                                           01 
01050020004000275000073000182000020000000000000DEM       US Senator COMAL COUNTYWIDE                             Paul Sadler                           PRECINCT 104                                           01 
01050020005000621000233000346000042000000000000DEM       US Senator COMAL COUNTYWIDE                             Paul Sadler                           PRECINCT 105                                           01 
01050020006000478000108000348000022000000000000DEM       US Senator COMAL COUNTYWIDE                             Paul Sadler                           PRECINCT 106                                           01 
01050020008000506000172000312000022000000000000DEM       US Senator COMAL COUNTYWIDE                             Paul Sadler                           PRECINCT 201                                           01 
01050020009000125000038000081000006000000000000DEM       US Senator COMAL COUNTYWIDE                             Paul Sadler                           PRECINCT 202                                           01 
01050020010000349000088000239000022000000000000DEM       US Senator COMAL COUNTYWIDE                             Paul Sadler                           PRECINCT 203                                           01 
01050020011000553000158000367000028000000000000DEM       US Senator COMAL COUNTYWIDE                             Paul Sadler                           PRECINCT 204                                           01 
01050020012000770000143000596000031000000000000DEM       US Senator COMAL COUNTYWIDE                             Paul Sadler                           PRECINCT 205                                           01 
01050020013000432000096000296000040000000000000DEM       US Senator COMAL COUNTYWIDE                             Paul Sadler                           PRECINCT 206                                           01 
01050020014000698000346000318000034000000000000DEM       US Senator COMAL COUNTYWIDE                             Paul Sadler                           PRECINCT 301                                           01 
01050020015000877000300000527000050000000000000DEM       US Senator COMAL COUNTYWIDE                             Paul Sadler                           PRECINCT 302                                           01 
01050020016000272000128000125000019000000000000DEM       US Senator COMAL COUNTYWIDE                             Paul Sadler                           PRECINCT 303                                           01 
01050020017000621000231000364000026000000000000DEM       US Senator COMAL COUNTYWIDE                             Paul Sadler                           PRECINCT 304                                           01 
01050020018000211000075000125000011000000000000DEM       US Senator COMAL COUNTYWIDE                             Paul Sadler                           PRECINCT 305                                           01 
01050020019000270000055000189000026000000000000DEM       US Senator COMAL COUNTYWIDE                             Paul Sadler                           PRECINCT 401                                           01 
01050020020000581000178000380000023000000000000DEM       US Senator COMAL COUNTYWIDE                             Paul Sadler                           PRECINCT 402                                           01 
01050020021000447000142000278000027000000000000DEM       US Senator COMAL COUNTYWIDE                             Paul Sadler                           PRECINCT 403                                           01 
01050020022000653000186000439000028000000000000DEM       US Senator COMAL COUNTYWIDE                             Paul Sadler                           PRECINCT 404                                           01 
01050020023000398000105000260000033000000000000DEM       US Senator COMAL COUNTYWIDE                             Paul Sadler                           PRECINCT 405                                           01 
01050020024000520000188000295000037000000000000DEM       US Senator COMAL COUNTYWIDE                             Paul Sadler                           PRECINCT 406                                           01 
01050030001000050000016000032000002000000000000LIB       US Senator COMAL COUNTYWIDE                             John Jay Myers                        PRECINCT 101                                           01 
01050030002000038000011000024000003000000000000LIB       US Senator COMAL COUNTYWIDE                             John Jay Myers                        PRECINCT 102                                           01 
01050030003000045000023000020000002000000000000LIB       US Senator COMAL COUNTYWIDE                             John Jay Myers                        PRECINCT 103                                           01 
01050030004000043000018000020000005000000000000LIB       US Senator COMAL COUNTYWIDE                             John Jay Myers                        PRECINCT 104                                           01 
01050030005000074000034000039000001000000000000LIB       US Senator COMAL COUNTYWIDE                             John Jay Myers                        PRECINCT 105                                           01 
01050030006000066000025000039000002000000000000LIB       US Senator COMAL COUNTYWIDE                             John Jay Myers                        PRECINCT 106                                           01 
01050030008000052000022000028000002000000000000LIB       US Senator COMAL COUNTYWIDE                             John Jay Myers                        PRECINCT 201                                           01 
01050030009000011000008000003000000000000000000LIB       US Senator COMAL COUNTYWIDE                             John Jay Myers                        PRECINCT 202                                           01 
01050030010000049000010000035000004000000000000LIB       US Senator COMAL COUNTYWIDE                             John Jay Myers                        PRECINCT 203                                           01 
01050030011000053000020000032000001000000000000LIB       US Senator COMAL COUNTYWIDE                             John Jay Myers                        PRECINCT 204                                           01 
01050030012000069000019000045000005000000000000LIB       US Senator COMAL COUNTYWIDE                             John Jay Myers                        PRECINCT 205                                           01 
01050030013000061000020000036000005000000000000LIB       US Senator COMAL COUNTYWIDE                             John Jay Myers                        PRECINCT 206                                           01 
01050030014000042000025000016000001000000000000LIB       US Senator COMAL COUNTYWIDE                             John Jay Myers                        PRECINCT 301                                           01 
01050030015000089000040000044000005000000000000LIB       US Senator COMAL COUNTYWIDE                             John Jay Myers                        PRECINCT 302                                           01 
01050030016000019000009000009000001000000000000LIB       US Senator COMAL COUNTYWIDE                             John Jay Myers                        PRECINCT 303                                           01 
01050030017000048000023000025000000000000000000LIB       US Senator COMAL COUNTYWIDE                             John Jay Myers                        PRECINCT 304                                           01 
01050030018000029000018000010000001000000000000LIB       US Senator COMAL COUNTYWIDE                             John Jay Myers                        PRECINCT 305                                           01 
01050030019000029000006000021000002000000000000LIB       US Senator COMAL COUNTYWIDE                             John Jay Myers                        PRECINCT 401                                           01 
01050030020000091000036000054000001000000000000LIB       US Senator COMAL COUNTYWIDE                             John Jay Myers                        PRECINCT 402                                           01 
01050030021000052000025000027000000000000000000LIB       US Senator COMAL COUNTYWIDE                             John Jay Myers                        PRECINCT 403                                           01 
01050030022000088000041000043000004000000000000LIB       US Senator COMAL COUNTYWIDE                             John Jay Myers                        PRECINCT 404                                           01 
01050030023000051000021000026000004000000000000LIB       US Senator COMAL COUNTYWIDE                             John Jay Myers                        PRECINCT 405                                           01 
01050030024000051000031000019000001000000000000LIB       US Senator COMAL COUNTYWIDE                             John Jay Myers                        PRECINCT 406                                           01 
01050040001000038000013000025000000000000000000GRN       US Senator COMAL COUNTYWIDE                             David B. Collins                      PRECINCT 101                                           01 
01050040002000017000009000008000000000000000000GRN       US Senator COMAL COUNTYWIDE                             David B. Collins                      PRECINCT 102                                           01 
01050040003000015000004000010000001000000000000GRN       US Senator COMAL COUNTYWIDE                             David B. Collins                      PRECINCT 103                                           01 
01050040004000011000005000005000001000000000000GRN       US Senator COMAL COUNTYWIDE                             David B. Collins                      PRECINCT 104                                           01 
01050040005000041000018000021000002000000000000GRN       US Senator COMAL COUNTYWIDE                             David B. Collins                      PRECINCT 105                                           01 
01050040006000025000005000019000001000000000000GRN       US Senator COMAL COUNTYWIDE                             David B. Collins                      PRECINCT 106                                           01 
01050040008000016000009000007000000000000000000GRN       US Senator COMAL COUNTYWIDE                             David B. Collins                      PRECINCT 201                                           01 
01050040009000006000001000005000000000000000000GRN       US Senator COMAL COUNTYWIDE                             David B. Collins                      PRECINCT 202                                           01 
01050040010000020000009000010000001000000000000GRN       US Senator COMAL COUNTYWIDE                             David B. Collins                      PRECINCT 203                                           01 
01050040011000022000005000017000000000000000000GRN       US Senator COMAL COUNTYWIDE                             David B. Collins                      PRECINCT 204                                           01 
01050040012000024000006000017000001000000000000GRN       US Senator COMAL COUNTYWIDE                             David B. Collins                      PRECINCT 205                                           01 
01050040013000019000004000014000001000000000000GRN       US Senator COMAL COUNTYWIDE                             David B. Collins                      PRECINCT 206                                           01 
01050040014000016000004000012000000000000000000GRN       US Senator COMAL COUNTYWIDE                             David B. Collins                      PRECINCT 301                                           01 
01050040015000024000010000014000000000000000000GRN       US Senator COMAL COUNTYWIDE                             David B. Collins                      PRECINCT 302                                           01 
01050040016000007000003000004000000000000000000GRN       US Senator COMAL COUNTYWIDE                             David B. Collins                      PRECINCT 303                                           01 
01050040017000019000008000009000002000000000000GRN       US Senator COMAL COUNTYWIDE                             David B. Collins                      PRECINCT 304                                           01 
01050040018000005000004000001000000000000000000GRN       US Senator COMAL COUNTYWIDE                             David B. Collins                      PRECINCT 305                                           01 
01050040019000013000005000008000000000000000000GRN       US Senator COMAL COUNTYWIDE                             David B. Collins                      PRECINCT 401                                           01 
01050040020000023000009000011000003000000000000GRN       US Senator COMAL COUNTYWIDE                             David B. Collins                      PRECINCT 402                                           01 
01050040021000025000012000010000003000000000000GRN       US Senator COMAL COUNTYWIDE                             David B. Collins                      PRECINCT 403                                           01 
01050040022000029000014000014000001000000000000GRN       US Senator COMAL COUNTYWIDE                             David B. Collins                      PRECINCT 404                                           01 
01050040023000023000011000011000001000000000000GRN       US Senator COMAL COUNTYWIDE                             David B. Collins                      PRECINCT 405                                           01 
01050040024000021000007000013000001000000000000GRN       US Senator COMAL COUNTYWIDE                             David B. Collins                      PRECINCT 406                                           01 
01050050001000000000000000000000000000000000000          US Senator COMAL COUNTYWIDE                             OVER VOTES                            PRECINCT 101                                           01 
01050050002000000000000000000000000000000000000          US Senator COMAL COUNTYWIDE                             OVER VOTES                            PRECINCT 102                                           01 
01050050003000000000000000000000000000000000000          US Senator COMAL COUNTYWIDE                             OVER VOTES                            PRECINCT 103                                           01 
01050050004000000000000000000000000000000000000          US Senator COMAL COUNTYWIDE                             OVER VOTES                            PRECINCT 104                                           01 
01050050005000000000000000000000000000000000000          US Senator COMAL COUNTYWIDE                             OVER VOTES                            PRECINCT 105                                           01 
01050050006000000000000000000000000000000000000          US Senator COMAL COUNTYWIDE                             OVER VOTES                            PRECINCT 106                                           01 
01050050008000000000000000000000000000000000000          US Senator COMAL COUNTYWIDE                             OVER VOTES                            PRECINCT 201                                           01 
01050050009000000000000000000000000000000000000          US Senator COMAL COUNTYWIDE                             OVER VOTES                            PRECINCT 202                                           01 
01050050010000000000000000000000000000000000000          US Senator COMAL COUNTYWIDE                             OVER VOTES                            PRECINCT 203                                           01 
01050050011000000000000000000000000000000000000          US Senator COMAL COUNTYWIDE                             OVER VOTES                            PRECINCT 204                                           01 
01050050012000000000000000000000000000000000000          US Senator COMAL COUNTYWIDE                             OVER VOTES                            PRECINCT 205                                           01 
01050050013000000000000000000000000000000000000          US Senator COMAL COUNTYWIDE                             OVER VOTES                            PRECINCT 206                                           01 
01050050014000000000000000000000000000000000000          US Senator COMAL COUNTYWIDE                             OVER VOTES                            PRECINCT 301                                           01 
01050050015000000000000000000000000000000000000          US Senator COMAL COUNTYWIDE                             OVER VOTES                            PRECINCT 302                                           01 
01050050016000000000000000000000000000000000000          US Senator COMAL COUNTYWIDE                             OVER VOTES                            PRECINCT 303                                           01 
01050050017000000000000000000000000000000000000          US Senator COMAL COUNTYWIDE                             OVER VOTES                            PRECINCT 304                                           01 
01050050018000000000000000000000000000000000000          US Senator COMAL COUNTYWIDE                             OVER VOTES                            PRECINCT 305                                           01 
01050050019000000000000000000000000000000000000          US Senator COMAL COUNTYWIDE                             OVER VOTES                            PRECINCT 401                                           01 
01050050020000000000000000000000000000000000000          US Senator COMAL COUNTYWIDE                             OVER VOTES                            PRECINCT 402                                           01 
01050050021000000000000000000000000000000000000          US Senator COMAL COUNTYWIDE                             OVER VOTES                            PRECINCT 403                                           01 
01050050022000000000000000000000000000000000000          US Senator COMAL COUNTYWIDE                             OVER VOTES                            PRECINCT 404                                           01 
01050050023000000000000000000000000000000000000          US Senator COMAL COUNTYWIDE                             OVER VOTES                            PRECINCT 405                                           01 
01050050024000000000000000000000000000000000000          US Senator COMAL COUNTYWIDE                             OVER VOTES                            PRECINCT 406                                           01 
01050060001000089000024000059000006000000000000          US Senator COMAL COUNTYWIDE                             UNDER VOTES                           PRECINCT 101                                           01 
01050060002000057000014000040000003000000000000          US Senator COMAL COUNTYWIDE                             UNDER VOTES                           PRECINCT 102                                           01 
01050060003000054000014000036000004000000000000          US Senator COMAL COUNTYWIDE                             UNDER VOTES                           PRECINCT 103                                           01 
01050060004000032000009000022000001000000000000          US Senator COMAL COUNTYWIDE                             UNDER VOTES                           PRECINCT 104                                           01 
01050060005000091000040000048000003000000000000          US Senator COMAL COUNTYWIDE                             UNDER VOTES                           PRECINCT 105                                           01 
01050060006000081000017000060000004000000000000          US Senator COMAL COUNTYWIDE                             UNDER VOTES                           PRECINCT 106                                           01 
01050060008000076000024000049000003000000000000          US Senator COMAL COUNTYWIDE                             UNDER VOTES                           PRECINCT 201                                           01 
01050060009000015000006000009000000000000000000          US Senator COMAL COUNTYWIDE                             UNDER VOTES                           PRECINCT 202                                           01 
01050060010000057000023000033000001000000000000          US Senator COMAL COUNTYWIDE                             UNDER VOTES                           PRECINCT 203                                           01 
01050060011000074000025000046000003000000000000          US Senator COMAL COUNTYWIDE                             UNDER VOTES                           PRECINCT 204                                           01 
01050060012000081000012000064000005000000000000          US Senator COMAL COUNTYWIDE                             UNDER VOTES                           PRECINCT 205                                           01 
01050060013000068000011000055000002000000000000          US Senator COMAL COUNTYWIDE                             UNDER VOTES                           PRECINCT 206                                           01 
01050060014000108000043000061000004000000000000          US Senator COMAL COUNTYWIDE                             UNDER VOTES                           PRECINCT 301                                           01 
