01040010001000384REP       President and Vice-President CRANE COUNTYWIDE           Mitt Romney / Paul Ryan               Precinct 1                                             01 
01040010002000285REP       President and Vice-President CRANE COUNTYWIDE           Mitt Romney / Paul Ryan               Precinct 2                                             01 
01040010003000144REP       President and Vice-President CRANE COUNTYWIDE           Mitt Romney / Paul Ryan               Precinct 3                                             01 
01040010004000172REP       President and Vice-President CRANE COUNTYWIDE           Mitt Romney / Paul Ryan               Precinct 4                                             01 
01040020001000051DEM       President and Vice-President CRANE COUNTYWIDE           Barack Obama / Joe Biden              Precinct 1                                             01 
01040020002000075DEM       President and Vice-President CRANE COUNTYWIDE           Barack Obama / Joe Biden              Precinct 2                                             01 
01040020003000103DEM       President and Vice-President CRANE COUNTYWIDE           Barack Obama / Joe Biden              Precinct 3                                             01 
01040020004000046DEM       President and Vice-President CRANE COUNTYWIDE           Barack Obama / Joe Biden              Precinct 4                                             01 
01040030001000005LIB       President and Vice-President CRANE COUNTYWIDE           Gary Johnson / Jim Gray               Precinct 1                                             01 
01040030002000003LIB       President and Vice-President CRANE COUNTYWIDE           Gary Johnson / Jim Gray               Precinct 2                                             01 
01040030003000004LIB       President and Vice-President CRANE COUNTYWIDE           Gary Johnson / Jim Gray               Precinct 3                                             01 
01040030004000006LIB       President and Vice-President CRANE COUNTYWIDE           Gary Johnson / Jim Gray               Precinct 4                                             01 
01040040001000000GRN       President and Vice-President CRANE COUNTYWIDE           Jill Stein / Cheri Honkala            Precinct 1                                             01 
01040040002000001GRN       President and Vice-President CRANE COUNTYWIDE           Jill Stein / Cheri Honkala            Precinct 2                                             01 
01040040003000002GRN       President and Vice-President CRANE COUNTYWIDE           Jill Stein / Cheri Honkala            Precinct 3                                             01 
01040040004000002GRN       President and Vice-President CRANE COUNTYWIDE           Jill Stein / Cheri Honkala            Precinct 4                                             01 
01040050001000000NON       President and Vice-President CRANE COUNTYWIDE           WRITE-IN                              Precinct 1                                             01 
01040050002000000NON       President and Vice-President CRANE COUNTYWIDE           WRITE-IN                              Precinct 2                                             01 
01040050003000000NON       President and Vice-President CRANE COUNTYWIDE           WRITE-IN                              Precinct 3                                             01 
01040050004000001NON       President and Vice-President CRANE COUNTYWIDE           WRITE-IN                              Precinct 4                                             01 
01040060001000000          President and Vice-President CRANE COUNTYWIDE           OVER VOTES                            Precinct 1                                             01 
01040060002000000          President and Vice-President CRANE COUNTYWIDE           OVER VOTES                            Precinct 2                                             01 
01040060003000000          President and Vice-President CRANE COUNTYWIDE           OVER VOTES                            Precinct 3                                             01 
01040060004000000          President and Vice-President CRANE COUNTYWIDE           OVER VOTES                            Precinct 4                                             01 
01040070001000003          President and Vice-President CRANE COUNTYWIDE           UNDER VOTES                           Precinct 1                                             01 
01040070002000003          President and Vice-President CRANE COUNTYWIDE           UNDER VOTES                           Precinct 2                                             01 
01040070003000004          President and Vice-President CRANE COUNTYWIDE           UNDER VOTES                           Precinct 3                                             01 
01040070004000006          President and Vice-President CRANE COUNTYWIDE           UNDER VOTES                           Precinct 4                                             01 
01050010001000350REP       United States Senator CRANE COUNTYWIDE                  Ted Cruz                              Precinct 1                                             01 
01050010002000278REP       United States Senator CRANE COUNTYWIDE                  Ted Cruz                              Precinct 2                                             01 
01050010003000144REP       United States Senator CRANE COUNTYWIDE                  Ted Cruz                              Precinct 3                                             01 
01050010004000168REP       United States Senator CRANE COUNTYWIDE                  Ted Cruz                              Precinct 4                                             01 
01050020001000055DEM       United States Senator CRANE COUNTYWIDE                  Paul Sadler                           Precinct 1                                             01 
01050020002000061DEM       United States Senator CRANE COUNTYWIDE                  Paul Sadler                           Precinct 2                                             01 
01050020003000094DEM       United States Senator CRANE COUNTYWIDE                  Paul Sadler                           Precinct 3                                             01 
01050020004000043DEM       United States Senator CRANE COUNTYWIDE                  Paul Sadler                           Precinct 4                                             01 
01050030001000007LIB       United States Senator CRANE COUNTYWIDE                  John Jay Myers                        Precinct 1                                             01 
01050030002000004LIB       United States Senator CRANE COUNTYWIDE                  John Jay Myers                        Precinct 2                                             01 
01050030003000005LIB       United States Senator CRANE COUNTYWIDE                  John Jay Myers                        Precinct 3                                             01 
01050030004000010LIB       United States Senator CRANE COUNTYWIDE                  John Jay Myers                        Precinct 4                                             01 
01050040001000003GRN       United States Senator CRANE COUNTYWIDE                  David B. Collins                      Precinct 1                                             01 
01050040002000003GRN       United States Senator CRANE COUNTYWIDE                  David B. Collins                      Precinct 2                                             01 
01050040003000001GRN       United States Senator CRANE COUNTYWIDE                  David B. Collins                      Precinct 3                                             01 
01050040004000001GRN       United States Senator CRANE COUNTYWIDE                  David B. Collins                      Precinct 4                                             01 
01050050001000000          United States Senator CRANE COUNTYWIDE                  OVER VOTES                            Precinct 1                                             01 
01050050002000000          United States Senator CRANE COUNTYWIDE                  OVER VOTES                            Precinct 2                                             01 
01050050003000000          United States Senator CRANE COUNTYWIDE                  OVER VOTES                            Precinct 3                                             01 
01050050004000000          United States Senator CRANE COUNTYWIDE                  OVER VOTES                            Precinct 4                                             01 
01050060001000028          United States Senator CRANE COUNTYWIDE                  UNDER VOTES                           Precinct 1                                             01 
01050060002000021          United States Senator CRANE COUNTYWIDE                  UNDER VOTES                           Precinct 2                                             01 
01050060003000013          United States Senator CRANE COUNTYWIDE                  UNDER VOTES                           Precinct 3                                             01 
01050060004000011          United States Senator CRANE COUNTYWIDE                  UNDER VOTES                           Precinct 4                                             01 
01060010001000343REP       United States Rep, District 23 CRANE COUNTYWIDE         Francisco "Quico" Canseco             Precinct 1                                             01 
01060010002000264REP       United States Rep, District 23 CRANE COUNTYWIDE         Francisco "Quico" Canseco             Precinct 2                                             01 
01060010003000141REP       United States Rep, District 23 CRANE COUNTYWIDE         Francisco "Quico" Canseco             Precinct 3                                             01 
01060010004000159REP       United States Rep, District 23 CRANE COUNTYWIDE         Francisco "Quico" Canseco             Precinct 4                                             01 
01060020001000064DEM       United States Rep, District 23 CRANE COUNTYWIDE         Pete P. Gallego                       Precinct 1                                             01 
01060020002000075DEM       United States Rep, District 23 CRANE COUNTYWIDE         Pete P. Gallego                       Precinct 2                                             01 
01060020003000093DEM       United States Rep, District 23 CRANE COUNTYWIDE         Pete P. Gallego                       Precinct 3                                             01 
01060020004000054DEM       United States Rep, District 23 CRANE COUNTYWIDE         Pete P. Gallego                       Precinct 4                                             01 
01060030001000006LIB       United States Rep, District 23 CRANE COUNTYWIDE         Jeffrey C. Blunt                      Precinct 1                                             01 
01060030002000008LIB       United States Rep, District 23 CRANE COUNTYWIDE         Jeffrey C. Blunt                      Precinct 2                                             01 
01060030003000007LIB       United States Rep, District 23 CRANE COUNTYWIDE         Jeffrey C. Blunt                      Precinct 3                                             01 
01060030004000008LIB       United States Rep, District 23 CRANE COUNTYWIDE         Jeffrey C. Blunt                      Precinct 4                                             01 
01060040001000003GRN       United States Rep, District 23 CRANE COUNTYWIDE         Ed Scharf                             Precinct 1                                             01 
01060040002000001GRN       United States Rep, District 23 CRANE COUNTYWIDE         Ed Scharf                             Precinct 2                                             01 
01060040003000002GRN       United States Rep, District 23 CRANE COUNTYWIDE         Ed Scharf                             Precinct 3                                             01 
01060040004000002GRN       United States Rep, District 23 CRANE COUNTYWIDE         Ed Scharf                             Precinct 4                                             01 
01060050001000002          United States Rep, District 23 CRANE COUNTYWIDE         OVER VOTES                            Precinct 1                                             01 
01060050002000002          United States Rep, District 23 CRANE COUNTYWIDE         OVER VOTES                            Precinct 2                                             01 
01060050003000002          United States Rep, District 23 CRANE COUNTYWIDE         OVER VOTES                            Precinct 3                                             01 
01060050004000000          United States Rep, District 23 CRANE COUNTYWIDE         OVER VOTES                            Precinct 4                                             01 
01060060001000026          United States Rep, District 23 CRANE COUNTYWIDE         UNDER VOTES                           Precinct 1                                             01 
01060060002000018          United States Rep, District 23 CRANE COUNTYWIDE         UNDER VOTES                           Precinct 2                                             01 
01060060003000013          United States Rep, District 23 CRANE COUNTYWIDE         UNDER VOTES                           Precinct 3                                             01 
01060060004000010          United States Rep, District 23 CRANE COUNTYWIDE         UNDER VOTES                           Precinct 4                                             01 
01070010001000346REP       Railroad Commissioner CRANE COUNTYWIDE                  Christi Craddick                      Precinct 1                                             01 
01070010002000280REP       Railroad Commissioner CRANE COUNTYWIDE                  Christi Craddick                      Precinct 2                                             01 
01070010003000132REP       Railroad Commissioner CRANE COUNTYWIDE                  Christi Craddick                      Precinct 3                                             01 
01070010004000167REP       Railroad Commissioner CRANE COUNTYWIDE                  Christi Craddick                      Precinct 4                                             01 
01070020001000053DEM       Railroad Commissioner CRANE COUNTYWIDE                  Dale Henry                            Precinct 1                                             01 
01070020002000058DEM       Railroad Commissioner CRANE COUNTYWIDE                  Dale Henry                            Precinct 2                                             01 
01070020003000100DEM       Railroad Commissioner CRANE COUNTYWIDE                  Dale Henry                            Precinct 3                                             01 
01070020004000042DEM       Railroad Commissioner CRANE COUNTYWIDE                  Dale Henry                            Precinct 4                                             01 
01070030001000006LIB       Railroad Commissioner CRANE COUNTYWIDE                  Vivekananda (Vik) Wall                Precinct 1                                             01 
01070030002000005LIB       Railroad Commissioner CRANE COUNTYWIDE                  Vivekananda (Vik) Wall                Precinct 2                                             01 
01070030003000003LIB       Railroad Commissioner CRANE COUNTYWIDE                  Vivekananda (Vik) Wall                Precinct 3                                             01 
01070030004000006LIB       Railroad Commissioner CRANE COUNTYWIDE                  Vivekananda (Vik) Wall                Precinct 4                                             01 
01070040001000005GRN       Railroad Commissioner CRANE COUNTYWIDE                  Chris Kennedy                         Precinct 1                                             01 
01070040002000006GRN       Railroad Commissioner CRANE COUNTYWIDE                  Chris Kennedy                         Precinct 2                                             01 
01070040003000005GRN       Railroad Commissioner CRANE COUNTYWIDE                  Chris Kennedy                         Precinct 3                                             01 
01070040004000003GRN       Railroad Commissioner CRANE COUNTYWIDE                  Chris Kennedy                         Precinct 4                                             01 
01070050001000000          Railroad Commissioner CRANE COUNTYWIDE                  OVER VOTES                            Precinct 1                                             01 
01070050002000002          Railroad Commissioner CRANE COUNTYWIDE                  OVER VOTES                            Precinct 2                                             01 
01070050003000002          Railroad Commissioner CRANE COUNTYWIDE                  OVER VOTES                            Precinct 3                                             01 
01070050004000000          Railroad Commissioner CRANE COUNTYWIDE                  OVER VOTES                            Precinct 4                                             01 
01070060001000033          Railroad Commissioner CRANE COUNTYWIDE                  UNDER VOTES                           Precinct 1                                             01 
01070060002000017          Railroad Commissioner CRANE COUNTYWIDE                  UNDER VOTES                           Precinct 2                                             01 
01070060003000016          Railroad Commissioner CRANE COUNTYWIDE                  UNDER VOTES                           Precinct 3                                             01 
01070060004000015          Railroad Commissioner CRANE COUNTYWIDE                  UNDER VOTES                           Precinct 4                                             01 
01080010001000349REP       Railroad Commissioner, UNEXP CRANE COUNTYWIDE           Barry Smitherman                      Precinct 1                                             01 
01080010002000275REP       Railroad Commissioner, UNEXP CRANE COUNTYWIDE           Barry Smitherman                      Precinct 2                                             01 
01080010003000136REP       Railroad Commissioner, UNEXP CRANE COUNTYWIDE           Barry Smitherman                      Precinct 3                                             01 
01080010004000169REP       Railroad Commissioner, UNEXP CRANE COUNTYWIDE           Barry Smitherman                      Precinct 4                                             01 
01080020001000029LIB       Railroad Commissioner, UNEXP CRANE COUNTYWIDE           Jaime O. Perez                        Precinct 1                                             01 
01080020002000032LIB       Railroad Commissioner, UNEXP CRANE COUNTYWIDE           Jaime O. Perez                        Precinct 2                                             01 
01080020003000044LIB       Railroad Commissioner, UNEXP CRANE COUNTYWIDE           Jaime O. Perez                        Precinct 3                                             01 
01080020004000020LIB       Railroad Commissioner, UNEXP CRANE COUNTYWIDE           Jaime O. Perez                        Precinct 4                                             01 
01080030001000008GRN       Railroad Commissioner, UNEXP CRANE COUNTYWIDE           Josh Wendel                           Precinct 1                                             01 
01080030002000007GRN       Railroad Commissioner, UNEXP CRANE COUNTYWIDE           Josh Wendel                           Precinct 2                                             01 
01080030003000011GRN       Railroad Commissioner, UNEXP CRANE COUNTYWIDE           Josh Wendel                           Precinct 3                                             01 
01080030004000004GRN       Railroad Commissioner, UNEXP CRANE COUNTYWIDE           Josh Wendel                           Precinct 4                                             01 
01080040001000000          Railroad Commissioner, UNEXP CRANE COUNTYWIDE           OVER VOTES                            Precinct 1                                             01 
01080040002000002          Railroad Commissioner, UNEXP CRANE COUNTYWIDE           OVER VOTES                            Precinct 2                                             01 
01080040003000002          Railroad Commissioner, UNEXP CRANE COUNTYWIDE           OVER VOTES                            Precinct 3                                             01 
01080040004000000          Railroad Commissioner, UNEXP CRANE COUNTYWIDE           OVER VOTES                            Precinct 4                                             01 
01080050001000057          Railroad Commissioner, UNEXP CRANE COUNTYWIDE           UNDER VOTES                           Precinct 1                                             01 
01080050002000052          Railroad Commissioner, UNEXP CRANE COUNTYWIDE           UNDER VOTES                           Precinct 2                                             01 
01080050003000065          Railroad Commissioner, UNEXP CRANE COUNTYWIDE           UNDER VOTES                           Precinct 3                                             01 
01080050004000040          Railroad Commissioner, UNEXP CRANE COUNTYWIDE           UNDER VOTES                           Precinct 4                                             01 
01090010001000354REP       Justice, Supreme Court, Place 2 CRANE COUNTYWIDE        Don Willett                           Precinct 1                                             01 
01090010002000284REP       Justice, Supreme Court, Place 2 CRANE COUNTYWIDE        Don Willett                           Precinct 2                                             01 
01090010003000155REP       Justice, Supreme Court, Place 2 CRANE COUNTYWIDE        Don Willett                           Precinct 3                                             01 
01090010004000171REP       Justice, Supreme Court, Place 2 CRANE COUNTYWIDE        Don Willett                           Precinct 4                                             01 
01090020001000029LIB       Justice, Supreme Court, Place 2 CRANE COUNTYWIDE        RS Roberto Koelsch                    Precinct 1                                             01 
01090020002000023LIB       Justice, Supreme Court, Place 2 CRANE COUNTYWIDE        RS Roberto Koelsch                    Precinct 2                                             01 
01090020003000030LIB       Justice, Supreme Court, Place 2 CRANE COUNTYWIDE        RS Roberto Koelsch                    Precinct 3                                             01 
01090020004000018LIB       Justice, Supreme Court, Place 2 CRANE COUNTYWIDE        RS Roberto Koelsch                    Precinct 4                                             01 
01090030001000000          Justice, Supreme Court, Place 2 CRANE COUNTYWIDE        OVER VOTES                            Precinct 1                                             01 
01090030002000002          Justice, Supreme Court, Place 2 CRANE COUNTYWIDE        OVER VOTES                            Precinct 2                                             01 
01090030003000002          Justice, Supreme Court, Place 2 CRANE COUNTYWIDE        OVER VOTES                            Precinct 3                                             01 
01090030004000000          Justice, Supreme Court, Place 2 CRANE COUNTYWIDE        OVER VOTES                            Precinct 4                                             01 
01090040001000060          Justice, Supreme Court, Place 2 CRANE COUNTYWIDE        UNDER VOTES                           Precinct 1                                             01 
01090040002000059          Justice, Supreme Court, Place 2 CRANE COUNTYWIDE        UNDER VOTES                           Precinct 2                                             01 
01090040003000071          Justice, Supreme Court, Place 2 CRANE COUNTYWIDE        UNDER VOTES                           Precinct 3                                             01 
01090040004000044          Justice, Supreme Court, Place 2 CRANE COUNTYWIDE        UNDER VOTES                           Precinct 4                                             01 
01100010001000347REP       Justice, Supreme Court, Place 4 CRANE COUNTYWIDE        John Devine                           Precinct 1                                             01 
01100010002000269REP       Justice, Supreme Court, Place 4 CRANE COUNTYWIDE        John Devine                           Precinct 2                                             01 
01100010003000147REP       Justice, Supreme Court, Place 4 CRANE COUNTYWIDE        John Devine                           Precinct 3                                             01 
01100010004000158REP       Justice, Supreme Court, Place 4 CRANE COUNTYWIDE        John Devine                           Precinct 4                                             01 
01100020001000025LIB       Justice, Supreme Court, Place 4 CRANE COUNTYWIDE        Tom Oxford                            Precinct 1                                             01 
01100020002000021LIB       Justice, Supreme Court, Place 4 CRANE COUNTYWIDE        Tom Oxford                            Precinct 2                                             01 
01100020003000025LIB       Justice, Supreme Court, Place 4 CRANE COUNTYWIDE        Tom Oxford                            Precinct 3                                             01 
01100020004000023LIB       Justice, Supreme Court, Place 4 CRANE COUNTYWIDE        Tom Oxford                            Precinct 4                                             01 
01100030001000008GRN       Justice, Supreme Court, Place 4 CRANE COUNTYWIDE        Charles E. Waterbury                  Precinct 1                                             01 
01100030002000018GRN       Justice, Supreme Court, Place 4 CRANE COUNTYWIDE        Charles E. Waterbury                  Precinct 2                                             01 
01100030003000013GRN       Justice, Supreme Court, Place 4 CRANE COUNTYWIDE        Charles E. Waterbury                  Precinct 3                                             01 
01100030004000006GRN       Justice, Supreme Court, Place 4 CRANE COUNTYWIDE        Charles E. Waterbury                  Precinct 4                                             01 
01100040001000000          Justice, Supreme Court, Place 4 CRANE COUNTYWIDE        OVER VOTES                            Precinct 1                                             01 
01100040002000002          Justice, Supreme Court, Place 4 CRANE COUNTYWIDE        OVER VOTES                            Precinct 2                                             01 
01100040003000002          Justice, Supreme Court, Place 4 CRANE COUNTYWIDE        OVER VOTES                            Precinct 3                                             01 
01100040004000000          Justice, Supreme Court, Place 4 CRANE COUNTYWIDE        OVER VOTES                            Precinct 4                                             01 
01100050001000063          Justice, Supreme Court, Place 4 CRANE COUNTYWIDE        UNDER VOTES                           Precinct 1                                             01 
01100050002000058          Justice, Supreme Court, Place 4 CRANE COUNTYWIDE        UNDER VOTES                           Precinct 2                                             01 
01100050003000071          Justice, Supreme Court, Place 4 CRANE COUNTYWIDE        UNDER VOTES                           Precinct 3                                             01 
01100050004000046          Justice, Supreme Court, Place 4 CRANE COUNTYWIDE        UNDER VOTES                           Precinct 4                                             01 
01110010001000314REP       Justice, Supreme Court, Place 6 CRANE COUNTYWIDE        Nathan Hecht                          Precinct 1                                             01 
01110010002000243REP       Justice, Supreme Court, Place 6 CRANE COUNTYWIDE        Nathan Hecht                          Precinct 2                                             01 
01110010003000126REP       Justice, Supreme Court, Place 6 CRANE COUNTYWIDE        Nathan Hecht                          Precinct 3                                             01 
01110010004000147REP       Justice, Supreme Court, Place 6 CRANE COUNTYWIDE        Nathan Hecht                          Precinct 4                                             01 
01110020001000068DEM       Justice, Supreme Court, Place 6 CRANE COUNTYWIDE        Michele Petty                         Precinct 1                                             01 
01110020002000081DEM       Justice, Supreme Court, Place 6 CRANE COUNTYWIDE        Michele Petty                         Precinct 2                                             01 
01110020003000105DEM       Justice, Supreme Court, Place 6 CRANE COUNTYWIDE        Michele Petty                         Precinct 3                                             01 
01110020004000048DEM       Justice, Supreme Court, Place 6 CRANE COUNTYWIDE        Michele Petty                         Precinct 4                                             01 
01110030001000015LIB       Justice, Supreme Court, Place 6 CRANE COUNTYWIDE        Mark Ash                              Precinct 1                                             01 
01110030002000009LIB       Justice, Supreme Court, Place 6 CRANE COUNTYWIDE        Mark Ash                              Precinct 2                                             01 
01110030003000004LIB       Justice, Supreme Court, Place 6 CRANE COUNTYWIDE        Mark Ash                              Precinct 3                                             01 
01110030004000013LIB       Justice, Supreme Court, Place 6 CRANE COUNTYWIDE        Mark Ash                              Precinct 4                                             01 
01110040001000005GRN       Justice, Supreme Court, Place 6 CRANE COUNTYWIDE        Jim Chisholm                          Precinct 1                                             01 
01110040002000007GRN       Justice, Supreme Court, Place 6 CRANE COUNTYWIDE        Jim Chisholm                          Precinct 2                                             01 
01110040003000006GRN       Justice, Supreme Court, Place 6 CRANE COUNTYWIDE        Jim Chisholm                          Precinct 3                                             01 
01110040004000005GRN       Justice, Supreme Court, Place 6 CRANE COUNTYWIDE        Jim Chisholm                          Precinct 4                                             01 
01110050001000000          Justice, Supreme Court, Place 6 CRANE COUNTYWIDE        OVER VOTES                            Precinct 1                                             01 
01110050002000002          Justice, Supreme Court, Place 6 CRANE COUNTYWIDE        OVER VOTES                            Precinct 2                                             01 
01110050003000002          Justice, Supreme Court, Place 6 CRANE COUNTYWIDE        OVER VOTES                            Precinct 3                                             01 
01110050004000000          Justice, Supreme Court, Place 6 CRANE COUNTYWIDE        OVER VOTES                            Precinct 4                                             01 
01110060001000041          Justice, Supreme Court, Place 6 CRANE COUNTYWIDE        UNDER VOTES                           Precinct 1                                             01 
01110060002000026          Justice, Supreme Court, Place 6 CRANE COUNTYWIDE        UNDER VOTES                           Precinct 2                                             01 
01110060003000015          Justice, Supreme Court, Place 6 CRANE COUNTYWIDE        UNDER VOTES                           Precinct 3                                             01 
01110060004000020          Justice, Supreme Court, Place 6 CRANE COUNTYWIDE        UNDER VOTES                           Precinct 4                                             01 
01120010001000321REP       Presiding Judge, Court of Crim Appeals CRANE COUNTYWIDE Sharon  Keller                        Precinct 1                                             01 
01120010002000258REP       Presiding Judge, Court of Crim Appeals CRANE COUNTYWIDE Sharon  Keller                        Precinct 2                                             01 
01120010003000134REP       Presiding Judge, Court of Crim Appeals CRANE COUNTYWIDE Sharon  Keller                        Precinct 3                                             01 
01120010004000160REP       Presiding Judge, Court of Crim Appeals CRANE COUNTYWIDE Sharon  Keller                        Precinct 4                                             01 
01120020001000063DEM       Presiding Judge, Court of Crim Appeals CRANE COUNTYWIDE Keith Hampton                         Precinct 1                                             01 
01120020002000076DEM       Presiding Judge, Court of Crim Appeals CRANE COUNTYWIDE Keith Hampton                         Precinct 2                                             01 
01120020003000102DEM       Presiding Judge, Court of Crim Appeals CRANE COUNTYWIDE Keith Hampton                         Precinct 3                                             01 
01120020004000047DEM       Presiding Judge, Court of Crim Appeals CRANE COUNTYWIDE Keith Hampton                         Precinct 4                                             01 
01120030001000016LIB       Presiding Judge, Court of Crim Appeals CRANE COUNTYWIDE Lance Stott                           Precinct 1                                             01 
01120030002000007LIB       Presiding Judge, Court of Crim Appeals CRANE COUNTYWIDE Lance Stott                           Precinct 2                                             01 
01120030003000006LIB       Presiding Judge, Court of Crim Appeals CRANE COUNTYWIDE Lance Stott                           Precinct 3                                             01 
01120030004000011LIB       Presiding Judge, Court of Crim Appeals CRANE COUNTYWIDE Lance Stott                           Precinct 4                                             01 
01120040001000000          Presiding Judge, Court of Crim Appeals CRANE COUNTYWIDE OVER VOTES                            Precinct 1                                             01 
01120040002000002          Presiding Judge, Court of Crim Appeals CRANE COUNTYWIDE OVER VOTES                            Precinct 2                                             01 
01120040003000002          Presiding Judge, Court of Crim Appeals CRANE COUNTYWIDE OVER VOTES                            Precinct 3                                             01 
01120040004000000          Presiding Judge, Court of Crim Appeals CRANE COUNTYWIDE OVER VOTES                            Precinct 4                                             01 
01120050001000043          Presiding Judge, Court of Crim Appeals CRANE COUNTYWIDE UNDER VOTES                           Precinct 1                                             01 
01120050002000025          Presiding Judge, Court of Crim Appeals CRANE COUNTYWIDE UNDER VOTES                           Precinct 2                                             01 
01120050003000014          Presiding Judge, Court of Crim Appeals CRANE COUNTYWIDE UNDER VOTES                           Precinct 3                                             01 
01120050004000015          Presiding Judge, Court of Crim Appeals CRANE COUNTYWIDE UNDER VOTES                           Precinct 4                                             01 
01130010001000338REP       Judge, CT of Criminal Appeals, P7 CRANE COUNTYWIDE      Barbara Parker Hervey                 Precinct 1                                             01 
01130010002000278REP       Judge, CT of Criminal Appeals, P7 CRANE COUNTYWIDE      Barbara Parker Hervey                 Precinct 2                                             01 
01130010003000146REP       Judge, CT of Criminal Appeals, P7 CRANE COUNTYWIDE      Barbara Parker Hervey                 Precinct 3                                             01 
01130010004000153REP       Judge, CT of Criminal Appeals, P7 CRANE COUNTYWIDE      Barbara Parker Hervey                 Precinct 4                                             01 
01130020001000037LIB       Judge, CT of Criminal Appeals, P7 CRANE COUNTYWIDE      Mark W. Bennett                       Precinct 1                                             01 
01130020002000031LIB       Judge, CT of Criminal Appeals, P7 CRANE COUNTYWIDE      Mark W. Bennett                       Precinct 2                                             01 
01130020003000036LIB       Judge, CT of Criminal Appeals, P7 CRANE COUNTYWIDE      Mark W. Bennett                       Precinct 3                                             01 
01130020004000033LIB       Judge, CT of Criminal Appeals, P7 CRANE COUNTYWIDE      Mark W. Bennett                       Precinct 4                                             01 
01130030001000000          Judge, CT of Criminal Appeals, P7 CRANE COUNTYWIDE      OVER VOTES                            Precinct 1                                             01 
01130030002000002          Judge, CT of Criminal Appeals, P7 CRANE COUNTYWIDE      OVER VOTES                            Precinct 2                                             01 
01130030003000002          Judge, CT of Criminal Appeals, P7 CRANE COUNTYWIDE      OVER VOTES                            Precinct 3                                             01 
01130030004000000          Judge, CT of Criminal Appeals, P7 CRANE COUNTYWIDE      OVER VOTES                            Precinct 4                                             01 
01130040001000068          Judge, CT of Criminal Appeals, P7 CRANE COUNTYWIDE      UNDER VOTES                           Precinct 1                                             01 
01130040002000057          Judge, CT of Criminal Appeals, P7 CRANE COUNTYWIDE      UNDER VOTES                           Precinct 2                                             01 
01130040003000074          Judge, CT of Criminal Appeals, P7 CRANE COUNTYWIDE      UNDER VOTES                           Precinct 3                                             01 
01130040004000047          Judge, CT of Criminal Appeals, P7 CRANE COUNTYWIDE      UNDER VOTES                           Precinct 4                                             01 
01140010001000329REP       Judge, Court of Criminal Appeals, P8 CRANE COUNTYWIDE   Elsa Alcala                           Precinct 1                                             01 
01140010002000262REP       Judge, Court of Criminal Appeals, P8 CRANE COUNTYWIDE   Elsa Alcala                           Precinct 2                                             01 
01140010003000150REP       Judge, Court of Criminal Appeals, P8 CRANE COUNTYWIDE   Elsa Alcala                           Precinct 3                                             01 
01140010004000160REP       Judge, Court of Criminal Appeals, P8 CRANE COUNTYWIDE   Elsa Alcala                           Precinct 4                                             01 
01140020001000045LIB       Judge, Court of Criminal Appeals, P8 CRANE COUNTYWIDE   William Bryan Strange, III            Precinct 1                                             01 
01140020002000047LIB       Judge, Court of Criminal Appeals, P8 CRANE COUNTYWIDE   William Bryan Strange, III            Precinct 2                                             01 
01140020003000028LIB       Judge, Court of Criminal Appeals, P8 CRANE COUNTYWIDE   William Bryan Strange, III            Precinct 3                                             01 
01140020004000025LIB       Judge, Court of Criminal Appeals, P8 CRANE COUNTYWIDE   William Bryan Strange, III            Precinct 4                                             01 
01140030001000000          Judge, Court of Criminal Appeals, P8 CRANE COUNTYWIDE   OVER VOTES                            Precinct 1                                             01 
01140030002000002          Judge, Court of Criminal Appeals, P8 CRANE COUNTYWIDE   OVER VOTES                            Precinct 2                                             01 
01140030003000002          Judge, Court of Criminal Appeals, P8 CRANE COUNTYWIDE   OVER VOTES                            Precinct 3                                             01 
01140030004000000          Judge, Court of Criminal Appeals, P8 CRANE COUNTYWIDE   OVER VOTES                            Precinct 4                                             01 
01140040001000069          Judge, Court of Criminal Appeals, P8 CRANE COUNTYWIDE   UNDER VOTES                           Precinct 1                                             01 
01140040002000057          Judge, Court of Criminal Appeals, P8 CRANE COUNTYWIDE   UNDER VOTES                           Precinct 2                                             01 
01140040003000078          Judge, Court of Criminal Appeals, P8 CRANE COUNTYWIDE   UNDER VOTES                           Precinct 3                                             01 
01140040004000048          Judge, Court of Criminal Appeals, P8 CRANE COUNTYWIDE   UNDER VOTES                           Precinct 4                                             01 
01150010001000328REP       Member, State Board of Education, Dist1 CRANE COUNTYWIDECarlos "Charlie" Garza                Precinct 1                                             01 
01150010002000261REP       Member, State Board of Education, Dist1 CRANE COUNTYWIDECarlos "Charlie" Garza                Precinct 2                                             01 
01150010003000129REP       Member, State Board of Education, Dist1 CRANE COUNTYWIDECarlos "Charlie" Garza                Precinct 3                                             01 
01150010004000160REP       Member, State Board of Education, Dist1 CRANE COUNTYWIDECarlos "Charlie" Garza                Precinct 4                                             01 
01150020001000068DEM       Member, State Board of Education, Dist1 CRANE COUNTYWIDEMartha M. Dominguéz                   Precinct 1                                             01 
01150020002000077DEM       Member, State Board of Education, Dist1 CRANE COUNTYWIDEMartha M. Dominguéz                   Precinct 2                                             01 
01150020003000114DEM       Member, State Board of Education, Dist1 CRANE COUNTYWIDEMartha M. Dominguéz                   Precinct 3                                             01 
01150020004000051DEM       Member, State Board of Education, Dist1 CRANE COUNTYWIDEMartha M. Dominguéz                   Precinct 4                                             01 
01150030001000002          Member, State Board of Education, Dist1 CRANE COUNTYWIDEOVER VOTES                            Precinct 1                                             01 
01150030002000002          Member, State Board of Education, Dist1 CRANE COUNTYWIDEOVER VOTES                            Precinct 2                                             01 
01150030003000002          Member, State Board of Education, Dist1 CRANE COUNTYWIDEOVER VOTES                            Precinct 3                                             01 
01150030004000002          Member, State Board of Education, Dist1 CRANE COUNTYWIDEOVER VOTES                            Precinct 4                                             01 
01150040001000046          Member, State Board of Education, Dist1 CRANE COUNTYWIDEUNDER VOTES                           Precinct 1                                             01 
01150040002000028          Member, State Board of Education, Dist1 CRANE COUNTYWIDEUNDER VOTES                           Precinct 2                                             01 
01150040003000013          Member, State Board of Education, Dist1 CRANE COUNTYWIDEUNDER VOTES                           Precinct 3                                             01 
01150040004000021          Member, State Board of Education, Dist1 CRANE COUNTYWIDEUNDER VOTES                           Precinct 4                                             01 
01160010001000351REP       State Senator, District 28 CRANE COUNTYWIDE             Robert Duncan                         Precinct 1                                             01 
01160010002000276REP       State Senator, District 28 CRANE COUNTYWIDE             Robert Duncan                         Precinct 2                                             01 
01160010003000147REP       State Senator, District 28 CRANE COUNTYWIDE             Robert Duncan                         Precinct 3                                             01 
01160010004000166REP       State Senator, District 28 CRANE COUNTYWIDE             Robert Duncan                         Precinct 4                                             01 
01160020001000032LIB       State Senator, District 28 CRANE COUNTYWIDE             M.J. "Smitty" Smith                   Precinct 1                                             01 
01160020002000030LIB       State Senator, District 28 CRANE COUNTYWIDE             M.J. "Smitty" Smith                   Precinct 2                                             01 
01160020003000032LIB       State Senator, District 28 CRANE COUNTYWIDE             M.J. "Smitty" Smith                   Precinct 3                                             01 
01160020004000018LIB       State Senator, District 28 CRANE COUNTYWIDE             M.J. "Smitty" Smith                   Precinct 4                                             01 
01160030001000002          State Senator, District 28 CRANE COUNTYWIDE             OVER VOTES                            Precinct 1                                             01 
01160030002000004          State Senator, District 28 CRANE COUNTYWIDE             OVER VOTES                            Precinct 2                                             01 
01160030003000000          State Senator, District 28 CRANE COUNTYWIDE             OVER VOTES                            Precinct 3                                             01 
01160030004000002          State Senator, District 28 CRANE COUNTYWIDE             OVER VOTES                            Precinct 4                                             01 
01160040001000059          State Senator, District 28 CRANE COUNTYWIDE             UNDER VOTES                           Precinct 1                                             01 
01160040002000059          State Senator, District 28 CRANE COUNTYWIDE             UNDER VOTES                           Precinct 2                                             01 
01160040003000078          State Senator, District 28 CRANE COUNTYWIDE             UNDER VOTES                           Precinct 3                                             01 
01160040004000048          State Senator, District 28 CRANE COUNTYWIDE             UNDER VOTES                           Precinct 4                                             01 
01170010001000384REP       State Representative, District 82 CRANE COUNTYWIDE      Tom Craddick                          Precinct 1                                             01 
01170010002000304REP       State Representative, District 82 CRANE COUNTYWIDE      Tom Craddick                          Precinct 2                                             01 
01170010003000171REP       State Representative, District 82 CRANE COUNTYWIDE      Tom Craddick                          Precinct 3                                             01 
01170010004000179REP       State Representative, District 82 CRANE COUNTYWIDE      Tom Craddick                          Precinct 4                                             01 
01170020001000000          State Representative, District 82 CRANE COUNTYWIDE      OVER VOTES                            Precinct 1                                             01 
01170020002000000          State Representative, District 82 CRANE COUNTYWIDE      OVER VOTES                            Precinct 2                                             01 
01170020003000000          State Representative, District 82 CRANE COUNTYWIDE      OVER VOTES                            Precinct 3                                             01 
01170020004000000          State Representative, District 82 CRANE COUNTYWIDE      OVER VOTES                            Precinct 4                                             01 
01170030001000059          State Representative, District 82 CRANE COUNTYWIDE      UNDER VOTES                           Precinct 1                                             01 
01170030002000063          State Representative, District 82 CRANE COUNTYWIDE      UNDER VOTES                           Precinct 2                                             01 
01170030003000086          State Representative, District 82 CRANE COUNTYWIDE      UNDER VOTES                           Precinct 3                                             01 
01170030004000054          State Representative, District 82 CRANE COUNTYWIDE      UNDER VOTES                           Precinct 4                                             01 
01180010001000185DEM       Chief Justice, 8 Ct of ApDist UNEXP CRANE COUNTYWIDE    Ann Crawford McClure                  Precinct 1                                             01 
01180010002000150DEM       Chief Justice, 8 Ct of ApDist UNEXP CRANE COUNTYWIDE    Ann Crawford McClure                  Precinct 2                                             01 
01180010003000156DEM       Chief Justice, 8 Ct of ApDist UNEXP CRANE COUNTYWIDE    Ann Crawford McClure                  Precinct 3                                             01 
01180010004000103DEM       Chief Justice, 8 Ct of ApDist UNEXP CRANE COUNTYWIDE    Ann Crawford McClure                  Precinct 4                                             01 
01180020001000000          Chief Justice, 8 Ct of ApDist UNEXP CRANE COUNTYWIDE    OVER VOTES                            Precinct 1                                             01 
01180020002000000          Chief Justice, 8 Ct of ApDist UNEXP CRANE COUNTYWIDE    OVER VOTES                            Precinct 2                                             01 
01180020003000000          Chief Justice, 8 Ct of ApDist UNEXP CRANE COUNTYWIDE    OVER VOTES                            Precinct 3                                             01 
01180020004000000          Chief Justice, 8 Ct of ApDist UNEXP CRANE COUNTYWIDE    OVER VOTES                            Precinct 4                                             01 
01180030001000258          Chief Justice, 8 Ct of ApDist UNEXP CRANE COUNTYWIDE    UNDER VOTES                           Precinct 1                                             01 
01180030002000217          Chief Justice, 8 Ct of ApDist UNEXP CRANE COUNTYWIDE    UNDER VOTES                           Precinct 2                                             01 
01180030003000101          Chief Justice, 8 Ct of ApDist UNEXP CRANE COUNTYWIDE    UNDER VOTES                           Precinct 3                                             01 
01180030004000130          Chief Justice, 8 Ct of ApDist UNEXP CRANE COUNTYWIDE    UNDER VOTES                           Precinct 4                                             01 
01190010001000325REP       Justice, 8th CT of Ap Dist, P2 CRANE COUNTYWIDE         Chris Antcliff                        Precinct 1                                             01 
01190010002000264REP       Justice, 8th CT of Ap Dist, P2 CRANE COUNTYWIDE         Chris Antcliff                        Precinct 2                                             01 
01190010003000128REP       Justice, 8th CT of Ap Dist, P2 CRANE COUNTYWIDE         Chris Antcliff                        Precinct 3                                             01 
01190010004000152REP       Justice, 8th CT of Ap Dist, P2 CRANE COUNTYWIDE         Chris Antcliff                        Precinct 4                                             01 
01190020001000064DEM       Justice, 8th CT of Ap Dist, P2 CRANE COUNTYWIDE         Yvonne Rodriguez                      Precinct 1                                             01 
01190020002000072DEM       Justice, 8th CT of Ap Dist, P2 CRANE COUNTYWIDE         Yvonne Rodriguez                      Precinct 2                                             01 
01190020003000112DEM       Justice, 8th CT of Ap Dist, P2 CRANE COUNTYWIDE         Yvonne Rodriguez                      Precinct 3                                             01 
01190020004000054DEM       Justice, 8th CT of Ap Dist, P2 CRANE COUNTYWIDE         Yvonne Rodriguez                      Precinct 4                                             01 
01190030001000002          Justice, 8th CT of Ap Dist, P2 CRANE COUNTYWIDE         OVER VOTES                            Precinct 1                                             01 
01190030002000002          Justice, 8th CT of Ap Dist, P2 CRANE COUNTYWIDE         OVER VOTES                            Precinct 2                                             01 
01190030003000002          Justice, 8th CT of Ap Dist, P2 CRANE COUNTYWIDE         OVER VOTES                            Precinct 3                                             01 
01190030004000002          Justice, 8th CT of Ap Dist, P2 CRANE COUNTYWIDE         OVER VOTES                            Precinct 4                                             01 
01190040001000053          Justice, 8th CT of Ap Dist, P2 CRANE COUNTYWIDE         UNDER VOTES                           Precinct 1                                             01 
01190040002000030          Justice, 8th CT of Ap Dist, P2 CRANE COUNTYWIDE         UNDER VOTES                           Precinct 2                                             01 
01190040003000016          Justice, 8th CT of Ap Dist, P2 CRANE COUNTYWIDE         UNDER VOTES                           Precinct 3                                             01 
01190040004000026          Justice, 8th CT of Ap Dist, P2 CRANE COUNTYWIDE         UNDER VOTES                           Precinct 4                                             01 
01200010001000361REP       District Attorney, 109th Judicial DIST CRANE COUNTYWIDE Dorothy A. Holguin                    Precinct 1                                             01 
01200010002000287REP       District Attorney, 109th Judicial DIST CRANE COUNTYWIDE Dorothy A. Holguin                    Precinct 2                                             01 
01200010003000162REP       District Attorney, 109th Judicial DIST CRANE COUNTYWIDE Dorothy A. Holguin                    Precinct 3                                             01 
01200010004000173REP       District Attorney, 109th Judicial DIST CRANE COUNTYWIDE Dorothy A. Holguin                    Precinct 4                                             01 
01200020001000000          District Attorney, 109th Judicial DIST CRANE COUNTYWIDE OVER VOTES                            Precinct 1                                             01 
01200020002000000          District Attorney, 109th Judicial DIST CRANE COUNTYWIDE OVER VOTES                            Precinct 2                                             01 
01200020003000000          District Attorney, 109th Judicial DIST CRANE COUNTYWIDE OVER VOTES                            Precinct 3                                             01 
01200020004000000          District Attorney, 109th Judicial DIST CRANE COUNTYWIDE OVER VOTES                            Precinct 4                                             01 
01200030001000082          District Attorney, 109th Judicial DIST CRANE COUNTYWIDE UNDER VOTES                           Precinct 1                                             01 
01200030002000080          District Attorney, 109th Judicial DIST CRANE COUNTYWIDE UNDER VOTES                           Precinct 2                                             01 
01200030003000095          District Attorney, 109th Judicial DIST CRANE COUNTYWIDE UNDER VOTES                           Precinct 3                                             01 
01200030004000060          District Attorney, 109th Judicial DIST CRANE COUNTYWIDE UNDER VOTES                           Precinct 4                                             01 
