01020010001000256          BALLOTS CAST - TOTAL                                    BALLOTS CAST - TOTAL                  PRECINCT 1                                             00 
01020010002000042          BALLOTS CAST - TOTAL                                    BALLOTS CAST - TOTAL                  PRECINCT 2                                             00 
01020010003000022          BALLOTS CAST - TOTAL                                    BALLOTS CAST - TOTAL                  PRECINCT 3                                             00 
01020010004000028          BALLOTS CAST - TOTAL                                    BALLOTS CAST - TOTAL                  PRECINCT 4                                             00 
01020010005000024          BALLOTS CAST - TOTAL                                    BALLOTS CAST - TOTAL                  PRECINCT 5                                             00 
01020010006000195          BALLOTS CAST - TOTAL                                    BALLOTS CAST - TOTAL                  PRECINCT 6                                             00 
01020010007000249          BALLOTS CAST - TOTAL                                    BALLOTS CAST - TOTAL                  PRECINCT 7                                             00 
01020010008000420          BALLOTS CAST - TOTAL                                    BALLOTS CAST - TOTAL                  PRECINCT 8                                             00 
01020010009000307          BALLOTS CAST - TOTAL                                    BALLOTS CAST - TOTAL                  PRECINCT 9                                             00 
01030010001000099REP       STRAIGHT PARTY                                          REPUBLICAN PARTY                      PRECINCT 1                                             01 
01030010002000025REP       STRAIGHT PARTY                                          REPUBLICAN PARTY                      PRECINCT 2                                             01 
01030010003000018REP       STRAIGHT PARTY                                          REPUBLICAN PARTY                      PRECINCT 3                                             01 
01030010004000017REP       STRAIGHT PARTY                                          REPUBLICAN PARTY                      PRECINCT 4                                             01 
01030010005000014REP       STRAIGHT PARTY                                          REPUBLICAN PARTY                      PRECINCT 5                                             01 
01030010006000069REP       STRAIGHT PARTY                                          REPUBLICAN PARTY                      PRECINCT 6                                             01 
01030010007000105REP       STRAIGHT PARTY                                          REPUBLICAN PARTY                      PRECINCT 7                                             01 
01030010008000161REP       STRAIGHT PARTY                                          REPUBLICAN PARTY                      PRECINCT 8                                             01 
01030010009000152REP       STRAIGHT PARTY                                          REPUBLICAN PARTY                      PRECINCT 9                                             01 
01030020001000016DEM       STRAIGHT PARTY                                          DEMOCRATIC PARTY                      PRECINCT 1                                             01 
01030020002000001DEM       STRAIGHT PARTY                                          DEMOCRATIC PARTY                      PRECINCT 2                                             01 
01030020003000000DEM       STRAIGHT PARTY                                          DEMOCRATIC PARTY                      PRECINCT 3                                             01 
01030020004000000DEM       STRAIGHT PARTY                                          DEMOCRATIC PARTY                      PRECINCT 4                                             01 
01030020005000002DEM       STRAIGHT PARTY                                          DEMOCRATIC PARTY                      PRECINCT 5                                             01 
01030020006000017DEM       STRAIGHT PARTY                                          DEMOCRATIC PARTY                      PRECINCT 6                                             01 
01030020007000041DEM       STRAIGHT PARTY                                          DEMOCRATIC PARTY                      PRECINCT 7                                             01 
01030020008000021DEM       STRAIGHT PARTY                                          DEMOCRATIC PARTY                      PRECINCT 8                                             01 
01030020009000026DEM       STRAIGHT PARTY                                          DEMOCRATIC PARTY                      PRECINCT 9                                             01 
01030030001000001LIB       STRAIGHT PARTY                                          LIBERTARIAN PARTY                     PRECINCT 1                                             01 
01030030002000001LIB       STRAIGHT PARTY                                          LIBERTARIAN PARTY                     PRECINCT 2                                             01 
01030030003000000LIB       STRAIGHT PARTY                                          LIBERTARIAN PARTY                     PRECINCT 3                                             01 
01030030004000000LIB       STRAIGHT PARTY                                          LIBERTARIAN PARTY                     PRECINCT 4                                             01 
01030030005000000LIB       STRAIGHT PARTY                                          LIBERTARIAN PARTY                     PRECINCT 5                                             01 
01030030006000000LIB       STRAIGHT PARTY                                          LIBERTARIAN PARTY                     PRECINCT 6                                             01 
01030030007000008LIB       STRAIGHT PARTY                                          LIBERTARIAN PARTY                     PRECINCT 7                                             01 
01030030008000001LIB       STRAIGHT PARTY                                          LIBERTARIAN PARTY                     PRECINCT 8                                             01 
01030030009000001LIB       STRAIGHT PARTY                                          LIBERTARIAN PARTY                     PRECINCT 9                                             01 
01030040001000001GRN       STRAIGHT PARTY                                          GREEN PARTY                           PRECINCT 1                                             01 
01030040002000000GRN       STRAIGHT PARTY                                          GREEN PARTY                           PRECINCT 2                                             01 
01030040003000000GRN       STRAIGHT PARTY                                          GREEN PARTY                           PRECINCT 3                                             01 
01030040004000000GRN       STRAIGHT PARTY                                          GREEN PARTY                           PRECINCT 4                                             01 
01030040005000000GRN       STRAIGHT PARTY                                          GREEN PARTY                           PRECINCT 5                                             01 
01030040006000000GRN       STRAIGHT PARTY                                          GREEN PARTY                           PRECINCT 6                                             01 
01030040007000002GRN       STRAIGHT PARTY                                          GREEN PARTY                           PRECINCT 7                                             01 
01030040008000000GRN       STRAIGHT PARTY                                          GREEN PARTY                           PRECINCT 8                                             01 
01030040009000001GRN       STRAIGHT PARTY                                          GREEN PARTY                           PRECINCT 9                                             01 
01030050001000000          STRAIGHT PARTY                                          OVER VOTES                            PRECINCT 1                                             01 
01030050002000000          STRAIGHT PARTY                                          OVER VOTES                            PRECINCT 2                                             01 
01030050003000000          STRAIGHT PARTY                                          OVER VOTES                            PRECINCT 3                                             01 
01030050004000000          STRAIGHT PARTY                                          OVER VOTES                            PRECINCT 4                                             01 
01030050005000000          STRAIGHT PARTY                                          OVER VOTES                            PRECINCT 5                                             01 
01030050006000000          STRAIGHT PARTY                                          OVER VOTES                            PRECINCT 6                                             01 
01030050007000000          STRAIGHT PARTY                                          OVER VOTES                            PRECINCT 7                                             01 
01030050008000000          STRAIGHT PARTY                                          OVER VOTES                            PRECINCT 8                                             01 
01030050009000000          STRAIGHT PARTY                                          OVER VOTES                            PRECINCT 9                                             01 
01030060001000139          STRAIGHT PARTY                                          UNDER VOTES                           PRECINCT 1                                             01 
01030060002000015          STRAIGHT PARTY                                          UNDER VOTES                           PRECINCT 2                                             01 
01030060003000004          STRAIGHT PARTY                                          UNDER VOTES                           PRECINCT 3                                             01 
01030060004000011          STRAIGHT PARTY                                          UNDER VOTES                           PRECINCT 4                                             01 
01030060005000008          STRAIGHT PARTY                                          UNDER VOTES                           PRECINCT 5                                             01 
01030060006000059          STRAIGHT PARTY                                          UNDER VOTES                           PRECINCT 6                                             01 
01030060007000072          STRAIGHT PARTY                                          UNDER VOTES                           PRECINCT 7                                             01 
01030060008000106          STRAIGHT PARTY                                          UNDER VOTES                           PRECINCT 8                                             01 
01030060009000103          STRAIGHT PARTY                                          UNDER VOTES                           PRECINCT 9                                             01 
01040010001000217REP       President and Vice-President                            Mitt Romney / Paul Ryan               PRECINCT 1                                             01 
01040010002000041REP       President and Vice-President                            Mitt Romney / Paul Ryan               PRECINCT 2                                             01 
01040010003000022REP       President and Vice-President                            Mitt Romney / Paul Ryan               PRECINCT 3                                             01 
01040010004000026REP       President and Vice-President                            Mitt Romney / Paul Ryan               PRECINCT 4                                             01 
01040010005000020REP       President and Vice-President                            Mitt Romney / Paul Ryan               PRECINCT 5                                             01 
01040010006000151REP       President and Vice-President                            Mitt Romney / Paul Ryan               PRECINCT 6                                             01 
01040010007000180REP       President and Vice-President                            Mitt Romney / Paul Ryan               PRECINCT 7                                             01 
01040010008000343REP       President and Vice-President                            Mitt Romney / Paul Ryan               PRECINCT 8                                             01 
01040010009000248REP       President and Vice-President                            Mitt Romney / Paul Ryan               PRECINCT 9                                             01 
01040020001000029DEM       President and Vice-President                            Barack Obama / Joe Biden              PRECINCT 1                                             01 
01040020002000000DEM       President and Vice-President                            Barack Obama / Joe Biden              PRECINCT 2                                             01 
01040020003000000DEM       President and Vice-President                            Barack Obama / Joe Biden              PRECINCT 3                                             01 
01040020004000001DEM       President and Vice-President                            Barack Obama / Joe Biden              PRECINCT 4                                             01 
01040020005000003DEM       President and Vice-President                            Barack Obama / Joe Biden              PRECINCT 5                                             01 
01040020006000039DEM       President and Vice-President                            Barack Obama / Joe Biden              PRECINCT 6                                             01 
01040020007000064DEM       President and Vice-President                            Barack Obama / Joe Biden              PRECINCT 7                                             01 
01040020008000064DEM       President and Vice-President                            Barack Obama / Joe Biden              PRECINCT 8                                             01 
01040020009000053DEM       President and Vice-President                            Barack Obama / Joe Biden              PRECINCT 9                                             01 
01040030001000004LIB       President and Vice-President                            Gary Johnson / Jim Gray               PRECINCT 1                                             01 
01040030002000001LIB       President and Vice-President                            Gary Johnson / Jim Gray               PRECINCT 2                                             01 
01040030003000000LIB       President and Vice-President                            Gary Johnson / Jim Gray               PRECINCT 3                                             01 
01040030004000001LIB       President and Vice-President                            Gary Johnson / Jim Gray               PRECINCT 4                                             01 
01040030005000000LIB       President and Vice-President                            Gary Johnson / Jim Gray               PRECINCT 5                                             01 
01040030006000005LIB       President and Vice-President                            Gary Johnson / Jim Gray               PRECINCT 6                                             01 
01040030007000001LIB       President and Vice-President                            Gary Johnson / Jim Gray               PRECINCT 7                                             01 
01040030008000006LIB       President and Vice-President                            Gary Johnson / Jim Gray               PRECINCT 8                                             01 
01040030009000003LIB       President and Vice-President                            Gary Johnson / Jim Gray               PRECINCT 9                                             01 
01040040001000002GRN       President and Vice-President                            Jill Stein / Cheri Honkala            PRECINCT 1                                             01 
01040040002000000GRN       President and Vice-President                            Jill Stein / Cheri Honkala            PRECINCT 2                                             01 
01040040003000000GRN       President and Vice-President                            Jill Stein / Cheri Honkala            PRECINCT 3                                             01 
01040040004000000GRN       President and Vice-President                            Jill Stein / Cheri Honkala            PRECINCT 4                                             01 
01040040005000001GRN       President and Vice-President                            Jill Stein / Cheri Honkala            PRECINCT 5                                             01 
01040040006000000GRN       President and Vice-President                            Jill Stein / Cheri Honkala            PRECINCT 6                                             01 
01040040007000000GRN       President and Vice-President                            Jill Stein / Cheri Honkala            PRECINCT 7                                             01 
01040040008000005GRN       President and Vice-President                            Jill Stein / Cheri Honkala            PRECINCT 8                                             01 
01040040009000002GRN       President and Vice-President                            Jill Stein / Cheri Honkala            PRECINCT 9                                             01 
01040050001000002NON       President and Vice-President                            WRITE-IN                              PRECINCT 1                                             01 
01040050002000000NON       President and Vice-President                            WRITE-IN                              PRECINCT 2                                             01 
01040050003000000NON       President and Vice-President                            WRITE-IN                              PRECINCT 3                                             01 
01040050004000000NON       President and Vice-President                            WRITE-IN                              PRECINCT 4                                             01 
01040050005000000NON       President and Vice-President                            WRITE-IN                              PRECINCT 5                                             01 
01040050006000000NON       President and Vice-President                            WRITE-IN                              PRECINCT 6                                             01 
01040050007000002NON       President and Vice-President                            WRITE-IN                              PRECINCT 7                                             01 
01040050008000002NON       President and Vice-President                            WRITE-IN                              PRECINCT 8                                             01 
01040050009000001NON       President and Vice-President                            WRITE-IN                              PRECINCT 9                                             01 
01040060001000000          President and Vice-President                            OVER VOTES                            PRECINCT 1                                             01 
01040060002000000          President and Vice-President                            OVER VOTES                            PRECINCT 2                                             01 
01040060003000000          President and Vice-President                            OVER VOTES                            PRECINCT 3                                             01 
01040060004000000          President and Vice-President                            OVER VOTES                            PRECINCT 4                                             01 
01040060005000000          President and Vice-President                            OVER VOTES                            PRECINCT 5                                             01 
01040060006000000          President and Vice-President                            OVER VOTES                            PRECINCT 6                                             01 
01040060007000000          President and Vice-President                            OVER VOTES                            PRECINCT 7                                             01 
01040060008000000          President and Vice-President                            OVER VOTES                            PRECINCT 8                                             01 
01040060009000000          President and Vice-President                            OVER VOTES                            PRECINCT 9                                             01 
01040070001000002          President and Vice-President                            UNDER VOTES                           PRECINCT 1                                             01 
01040070002000000          President and Vice-President                            UNDER VOTES                           PRECINCT 2                                             01 
01040070003000000          President and Vice-President                            UNDER VOTES                           PRECINCT 3                                             01 
01040070004000000          President and Vice-President                            UNDER VOTES                           PRECINCT 4                                             01 
01040070005000000          President and Vice-President                            UNDER VOTES                           PRECINCT 5                                             01 
01040070006000000          President and Vice-President                            UNDER VOTES                           PRECINCT 6                                             01 
01040070007000002          President and Vice-President                            UNDER VOTES                           PRECINCT 7                                             01 
01040070008000000          President and Vice-President                            UNDER VOTES                           PRECINCT 8                                             01 
01040070009000000          President and Vice-President                            UNDER VOTES                           PRECINCT 9                                             01 
01050010001000216REP       United States Senator                                   Ted Cruz                              PRECINCT 1                                             01 
01050010002000039REP       United States Senator                                   Ted Cruz                              PRECINCT 2                                             01 
01050010003000022REP       United States Senator                                   Ted Cruz                              PRECINCT 3                                             01 
01050010004000026REP       United States Senator                                   Ted Cruz                              PRECINCT 4                                             01 
01050010005000021REP       United States Senator                                   Ted Cruz                              PRECINCT 5                                             01 
01050010006000152REP       United States Senator                                   Ted Cruz                              PRECINCT 6                                             01 
01050010007000179REP       United States Senator                                   Ted Cruz                              PRECINCT 7                                             01 
01050010008000343REP       United States Senator                                   Ted Cruz                              PRECINCT 8                                             01 
01050010009000239REP       United States Senator                                   Ted Cruz                              PRECINCT 9                                             01 
01050020001000029DEM       United States Senator                                   Paul Sadler                           PRECINCT 1                                             01 
01050020002000001DEM       United States Senator                                   Paul Sadler                           PRECINCT 2                                             01 
01050020003000000DEM       United States Senator                                   Paul Sadler                           PRECINCT 3                                             01 
01050020004000000DEM       United States Senator                                   Paul Sadler                           PRECINCT 4                                             01 
01050020005000003DEM       United States Senator                                   Paul Sadler                           PRECINCT 5                                             01 
01050020006000036DEM       United States Senator                                   Paul Sadler                           PRECINCT 6                                             01 
01050020007000060DEM       United States Senator                                   Paul Sadler                           PRECINCT 7                                             01 
01050020008000058DEM       United States Senator                                   Paul Sadler                           PRECINCT 8                                             01 
01050020009000048DEM       United States Senator                                   Paul Sadler                           PRECINCT 9                                             01 
01050030001000004LIB       United States Senator                                   John Jay Myers                        PRECINCT 1                                             01 
01050030002000002LIB       United States Senator                                   John Jay Myers                        PRECINCT 2                                             01 
01050030003000000LIB       United States Senator                                   John Jay Myers                        PRECINCT 3                                             01 
01050030004000001LIB       United States Senator                                   John Jay Myers                        PRECINCT 4                                             01 
01050030005000000LIB       United States Senator                                   John Jay Myers                        PRECINCT 5                                             01 
01050030006000006LIB       United States Senator                                   John Jay Myers                        PRECINCT 6                                             01 
01050030007000006LIB       United States Senator                                   John Jay Myers                        PRECINCT 7                                             01 
01050030008000006LIB       United States Senator                                   John Jay Myers                        PRECINCT 8                                             01 
01050030009000009LIB       United States Senator                                   John Jay Myers                        PRECINCT 9                                             01 
01050040001000001GRN       United States Senator                                   David B. Collins                      PRECINCT 1                                             01 
01050040002000000GRN       United States Senator                                   David B. Collins                      PRECINCT 2                                             01 
01050040003000000GRN       United States Senator                                   David B. Collins                      PRECINCT 3                                             01 
01050040004000000GRN       United States Senator                                   David B. Collins                      PRECINCT 4                                             01 
01050040005000000GRN       United States Senator                                   David B. Collins                      PRECINCT 5                                             01 
01050040006000000GRN       United States Senator                                   David B. Collins                      PRECINCT 6                                             01 
01050040007000001GRN       United States Senator                                   David B. Collins                      PRECINCT 7                                             01 
01050040008000006GRN       United States Senator                                   David B. Collins                      PRECINCT 8                                             01 
01050040009000005GRN       United States Senator                                   David B. Collins                      PRECINCT 9                                             01 
01050050001000000          United States Senator                                   OVER VOTES                            PRECINCT 1                                             01 
01050050002000000          United States Senator                                   OVER VOTES                            PRECINCT 2                                             01 
01050050003000000          United States Senator                                   OVER VOTES                            PRECINCT 3                                             01 
01050050004000000          United States Senator                                   OVER VOTES                            PRECINCT 4                                             01 
01050050005000000          United States Senator                                   OVER VOTES                            PRECINCT 5                                             01 
01050050006000000          United States Senator                                   OVER VOTES                            PRECINCT 6                                             01 
01050050007000000          United States Senator                                   OVER VOTES                            PRECINCT 7                                             01 
01050050008000000          United States Senator                                   OVER VOTES                            PRECINCT 8                                             01 
01050050009000000          United States Senator                                   OVER VOTES                            PRECINCT 9                                             01 
01050060001000006          United States Senator                                   UNDER VOTES                           PRECINCT 1                                             01 
01050060002000000          United States Senator                                   UNDER VOTES                           PRECINCT 2                                             01 
01050060003000000          United States Senator                                   UNDER VOTES                           PRECINCT 3                                             01 
01050060004000001          United States Senator                                   UNDER VOTES                           PRECINCT 4                                             01 
01050060005000000          United States Senator                                   UNDER VOTES                           PRECINCT 5                                             01 
01050060006000001          United States Senator                                   UNDER VOTES                           PRECINCT 6                                             01 
01050060007000003          United States Senator                                   UNDER VOTES                           PRECINCT 7                                             01 
01050060008000006          United States Senator                                   UNDER VOTES                           PRECINCT 8                                             01 
01050060009000004          United States Senator                                   UNDER VOTES                           PRECINCT 9                                             01 
01060010001000230REP       United States Representative, Dist 13                   Mac Thornberry                        PRECINCT 1                                             01 
01060010002000040REP       United States Representative, Dist 13                   Mac Thornberry                        PRECINCT 2                                             01 
01060010003000022REP       United States Representative, Dist 13                   Mac Thornberry                        PRECINCT 3                                             01 
01060010004000026REP       United States Representative, Dist 13                   Mac Thornberry                        PRECINCT 4                                             01 
01060010005000023REP       United States Representative, Dist 13                   Mac Thornberry                        PRECINCT 5                                             01 
01060010006000168REP       United States Representative, Dist 13                   Mac Thornberry                        PRECINCT 6                                             01 
01060010007000193REP       United States Representative, Dist 13                   Mac Thornberry                        PRECINCT 7                                             01 
01060010008000357REP       United States Representative, Dist 13                   Mac Thornberry                        PRECINCT 8                                             01 
01060010009000262REP       United States Representative, Dist 13                   Mac Thornberry                        PRECINCT 9                                             01 
01060020001000010LIB       United States Representative, Dist 13                   John Robert Deek                      PRECINCT 1                                             01 
01060020002000002LIB       United States Representative, Dist 13                   John Robert Deek                      PRECINCT 2                                             01 
01060020003000000LIB       United States Representative, Dist 13                   John Robert Deek                      PRECINCT 3                                             01 
01060020004000001LIB       United States Representative, Dist 13                   John Robert Deek                      PRECINCT 4                                             01 
01060020005000000LIB       United States Representative, Dist 13                   John Robert Deek                      PRECINCT 5                                             01 
01060020006000015LIB       United States Representative, Dist 13                   John Robert Deek                      PRECINCT 6                                             01 
01060020007000019LIB       United States Representative, Dist 13                   John Robert Deek                      PRECINCT 7                                             01 
01060020008000024LIB       United States Representative, Dist 13                   John Robert Deek                      PRECINCT 8                                             01 
01060020009000022LIB       United States Representative, Dist 13                   John Robert Deek                      PRECINCT 9                                             01 
01060030001000005GRN       United States Representative, Dist 13                   Keith F. Houston                      PRECINCT 1                                             01 
01060030002000000GRN       United States Representative, Dist 13                   Keith F. Houston                      PRECINCT 2                                             01 
01060030003000000GRN       United States Representative, Dist 13                   Keith F. Houston                      PRECINCT 3                                             01 
01060030004000000GRN       United States Representative, Dist 13                   Keith F. Houston                      PRECINCT 4                                             01 
01060030005000000GRN       United States Representative, Dist 13                   Keith F. Houston                      PRECINCT 5                                             01 
01060030006000003GRN       United States Representative, Dist 13                   Keith F. Houston                      PRECINCT 6                                             01 
01060030007000005GRN       United States Representative, Dist 13                   Keith F. Houston                      PRECINCT 7                                             01 
01060030008000013GRN       United States Representative, Dist 13                   Keith F. Houston                      PRECINCT 8                                             01 
01060030009000008GRN       United States Representative, Dist 13                   Keith F. Houston                      PRECINCT 9                                             01 
01060040001000000          United States Representative, Dist 13                   OVER VOTES                            PRECINCT 1                                             01 
01060040002000000          United States Representative, Dist 13                   OVER VOTES                            PRECINCT 2                                             01 
01060040003000000          United States Representative, Dist 13                   OVER VOTES                            PRECINCT 3                                             01 
01060040004000000          United States Representative, Dist 13                   OVER VOTES                            PRECINCT 4                                             01 
01060040005000000          United States Representative, Dist 13                   OVER VOTES                            PRECINCT 5                                             01 
01060040006000000          United States Representative, Dist 13                   OVER VOTES                            PRECINCT 6                                             01 
01060040007000000          United States Representative, Dist 13                   OVER VOTES                            PRECINCT 7                                             01 
01060040008000000          United States Representative, Dist 13                   OVER VOTES                            PRECINCT 8                                             01 
01060040009000000          United States Representative, Dist 13                   OVER VOTES                            PRECINCT 9                                             01 
01060050001000011          United States Representative, Dist 13                   UNDER VOTES                           PRECINCT 1                                             01 
01060050002000000          United States Representative, Dist 13                   UNDER VOTES                           PRECINCT 2                                             01 
01060050003000000          United States Representative, Dist 13                   UNDER VOTES                           PRECINCT 3                                             01 
01060050004000001          United States Representative, Dist 13                   UNDER VOTES                           PRECINCT 4                                             01 
01060050005000001          United States Representative, Dist 13                   UNDER VOTES                           PRECINCT 5                                             01 
01060050006000007          United States Representative, Dist 13                   UNDER VOTES                           PRECINCT 6                                             01 
01060050007000029          United States Representative, Dist 13                   UNDER VOTES                           PRECINCT 7                                             01 
01060050008000023          United States Representative, Dist 13                   UNDER VOTES                           PRECINCT 8                                             01 
01060050009000013          United States Representative, Dist 13                   UNDER VOTES                           PRECINCT 9                                             01 
01070010001000204REP       Railroad Commissioner                                   Christi Craddick                      PRECINCT 1                                             01 
01070010002000036REP       Railroad Commissioner                                   Christi Craddick                      PRECINCT 2                                             01 
01070010003000021REP       Railroad Commissioner                                   Christi Craddick                      PRECINCT 3                                             01 
01070010004000025REP       Railroad Commissioner                                   Christi Craddick                      PRECINCT 4                                             01 
01070010005000020REP       Railroad Commissioner                                   Christi Craddick                      PRECINCT 5                                             01 
01070010006000141REP       Railroad Commissioner                                   Christi Craddick                      PRECINCT 6                                             01 
01070010007000165REP       Railroad Commissioner                                   Christi Craddick                      PRECINCT 7                                             01 
01070010008000323REP       Railroad Commissioner                                   Christi Craddick                      PRECINCT 8                                             01 
01070010009000228REP       Railroad Commissioner                                   Christi Craddick                      PRECINCT 9                                             01 
01070020001000029DEM       Railroad Commissioner                                   Dale Henry                            PRECINCT 1                                             01 
01070020002000002DEM       Railroad Commissioner                                   Dale Henry                            PRECINCT 2                                             01 
01070020003000000DEM       Railroad Commissioner                                   Dale Henry                            PRECINCT 3                                             01 
01070020004000000DEM       Railroad Commissioner                                   Dale Henry                            PRECINCT 4                                             01 
01070020005000004DEM       Railroad Commissioner                                   Dale Henry                            PRECINCT 5                                             01 
01070020006000041DEM       Railroad Commissioner                                   Dale Henry                            PRECINCT 6                                             01 
01070020007000063DEM       Railroad Commissioner                                   Dale Henry                            PRECINCT 7                                             01 
01070020008000066DEM       Railroad Commissioner                                   Dale Henry                            PRECINCT 8                                             01 
01070020009000050DEM       Railroad Commissioner                                   Dale Henry                            PRECINCT 9                                             01 
01070030001000003LIB       Railroad Commissioner                                   Vivekananda (Vik) Wall                PRECINCT 1                                             01 
01070030002000002LIB       Railroad Commissioner                                   Vivekananda (Vik) Wall                PRECINCT 2                                             01 
01070030003000000LIB       Railroad Commissioner                                   Vivekananda (Vik) Wall                PRECINCT 3                                             01 
01070030004000001LIB       Railroad Commissioner                                   Vivekananda (Vik) Wall                PRECINCT 4                                             01 
01070030005000000LIB       Railroad Commissioner                                   Vivekananda (Vik) Wall                PRECINCT 5                                             01 
01070030006000007LIB       Railroad Commissioner                                   Vivekananda (Vik) Wall                PRECINCT 6                                             01 
01070030007000008LIB       Railroad Commissioner                                   Vivekananda (Vik) Wall                PRECINCT 7                                             01 
01070030008000006LIB       Railroad Commissioner                                   Vivekananda (Vik) Wall                PRECINCT 8                                             01 
01070030009000005LIB       Railroad Commissioner                                   Vivekananda (Vik) Wall                PRECINCT 9                                             01 
01070040001000009GRN       Railroad Commissioner                                   Chris Kennedy                         PRECINCT 1                                             01 
01070040002000000GRN       Railroad Commissioner                                   Chris Kennedy                         PRECINCT 2                                             01 
01070040003000000GRN       Railroad Commissioner                                   Chris Kennedy                         PRECINCT 3                                             01 
01070040004000001GRN       Railroad Commissioner                                   Chris Kennedy                         PRECINCT 4                                             01 
01070040005000000GRN       Railroad Commissioner                                   Chris Kennedy                         PRECINCT 5                                             01 
01070040006000004GRN       Railroad Commissioner                                   Chris Kennedy                         PRECINCT 6                                             01 
01070040007000007GRN       Railroad Commissioner                                   Chris Kennedy                         PRECINCT 7                                             01 
01070040008000015GRN       Railroad Commissioner                                   Chris Kennedy                         PRECINCT 8                                             01 
01070040009000014GRN       Railroad Commissioner                                   Chris Kennedy                         PRECINCT 9                                             01 
01070050001000000          Railroad Commissioner                                   OVER VOTES                            PRECINCT 1                                             01 
01070050002000000          Railroad Commissioner                                   OVER VOTES                            PRECINCT 2                                             01 
01070050003000000          Railroad Commissioner                                   OVER VOTES                            PRECINCT 3                                             01 
01070050004000000          Railroad Commissioner                                   OVER VOTES                            PRECINCT 4                                             01 
01070050005000000          Railroad Commissioner                                   OVER VOTES                            PRECINCT 5                                             01 
01070050006000000          Railroad Commissioner                                   OVER VOTES                            PRECINCT 6                                             01 
01070050007000000          Railroad Commissioner                                   OVER VOTES                            PRECINCT 7                                             01 
01070050008000000          Railroad Commissioner                                   OVER VOTES                            PRECINCT 8                                             01 
01070050009000000          Railroad Commissioner                                   OVER VOTES                            PRECINCT 9                                             01 
01070060001000011          Railroad Commissioner                                   UNDER VOTES                           PRECINCT 1                                             01 
01070060002000002          Railroad Commissioner                                   UNDER VOTES                           PRECINCT 2                                             01 
01070060003000001          Railroad Commissioner                                   UNDER VOTES                           PRECINCT 3                                             01 
01070060004000001          Railroad Commissioner                                   UNDER VOTES                           PRECINCT 4                                             01 
01070060005000000          Railroad Commissioner                                   UNDER VOTES                           PRECINCT 5                                             01 
01070060006000000          Railroad Commissioner                                   UNDER VOTES                           PRECINCT 6                                             01 
01070060007000006          Railroad Commissioner                                   UNDER VOTES                           PRECINCT 7                                             01 
01070060008000008          Railroad Commissioner                                   UNDER VOTES                           PRECINCT 8                                             01 
01070060009000008          Railroad Commissioner                                   UNDER VOTES                           PRECINCT 9                                             01 
01080010001000207REP       Railroad Commissioner, Unexpired Term                   Barry Smitherman                      PRECINCT 1                                             01 
01080010002000036REP       Railroad Commissioner, Unexpired Term                   Barry Smitherman                      PRECINCT 2                                             01 
01080010003000021REP       Railroad Commissioner, Unexpired Term                   Barry Smitherman                      PRECINCT 3                                             01 
01080010004000026REP       Railroad Commissioner, Unexpired Term                   Barry Smitherman                      PRECINCT 4                                             01 
01080010005000021REP       Railroad Commissioner, Unexpired Term                   Barry Smitherman                      PRECINCT 5                                             01 
01080010006000143REP       Railroad Commissioner, Unexpired Term                   Barry Smitherman                      PRECINCT 6                                             01 
01080010007000170REP       Railroad Commissioner, Unexpired Term                   Barry Smitherman                      PRECINCT 7                                             01 
01080010008000329REP       Railroad Commissioner, Unexpired Term                   Barry Smitherman                      PRECINCT 8                                             01 
01080010009000227REP       Railroad Commissioner, Unexpired Term                   Barry Smitherman                      PRECINCT 9                                             01 
01080020001000015LIB       Railroad Commissioner, Unexpired Term                   Jaime O. Perez                        PRECINCT 1                                             01 
01080020002000004LIB       Railroad Commissioner, Unexpired Term                   Jaime O. Perez                        PRECINCT 2                                             01 
01080020003000000LIB       Railroad Commissioner, Unexpired Term                   Jaime O. Perez                        PRECINCT 3                                             01 
01080020004000000LIB       Railroad Commissioner, Unexpired Term                   Jaime O. Perez                        PRECINCT 4                                             01 
01080020005000002LIB       Railroad Commissioner, Unexpired Term                   Jaime O. Perez                        PRECINCT 5                                             01 
01080020006000025LIB       Railroad Commissioner, Unexpired Term                   Jaime O. Perez                        PRECINCT 6                                             01 
01080020007000031LIB       Railroad Commissioner, Unexpired Term                   Jaime O. Perez                        PRECINCT 7                                             01 
01080020008000039LIB       Railroad Commissioner, Unexpired Term                   Jaime O. Perez                        PRECINCT 8                                             01 
01080020009000046LIB       Railroad Commissioner, Unexpired Term                   Jaime O. Perez                        PRECINCT 9                                             01 
01080030001000011GRN       Railroad Commissioner, Unexpired Term                   Josh Wendel                           PRECINCT 1                                             01 
01080030002000000GRN       Railroad Commissioner, Unexpired Term                   Josh Wendel                           PRECINCT 2                                             01 
01080030003000000GRN       Railroad Commissioner, Unexpired Term                   Josh Wendel                           PRECINCT 3                                             01 
01080030004000001GRN       Railroad Commissioner, Unexpired Term                   Josh Wendel                           PRECINCT 4                                             01 
01080030005000000GRN       Railroad Commissioner, Unexpired Term                   Josh Wendel                           PRECINCT 5                                             01 
01080030006000010GRN       Railroad Commissioner, Unexpired Term                   Josh Wendel                           PRECINCT 6                                             01 
01080030007000008GRN       Railroad Commissioner, Unexpired Term                   Josh Wendel                           PRECINCT 7                                             01 
01080030008000015GRN       Railroad Commissioner, Unexpired Term                   Josh Wendel                           PRECINCT 8                                             01 
01080030009000008GRN       Railroad Commissioner, Unexpired Term                   Josh Wendel                           PRECINCT 9                                             01 
01080040001000000          Railroad Commissioner, Unexpired Term                   OVER VOTES                            PRECINCT 1                                             01 
01080040002000000          Railroad Commissioner, Unexpired Term                   OVER VOTES                            PRECINCT 2                                             01 
01080040003000000          Railroad Commissioner, Unexpired Term                   OVER VOTES                            PRECINCT 3                                             01 
01080040004000000          Railroad Commissioner, Unexpired Term                   OVER VOTES                            PRECINCT 4                                             01 
01080040005000000          Railroad Commissioner, Unexpired Term                   OVER VOTES                            PRECINCT 5                                             01 
01080040006000000          Railroad Commissioner, Unexpired Term                   OVER VOTES                            PRECINCT 6                                             01 
01080040007000000          Railroad Commissioner, Unexpired Term                   OVER VOTES                            PRECINCT 7                                             01 
01080040008000000          Railroad Commissioner, Unexpired Term                   OVER VOTES                            PRECINCT 8                                             01 
01080040009000000          Railroad Commissioner, Unexpired Term                   OVER VOTES                            PRECINCT 9                                             01 
01080050001000023          Railroad Commissioner, Unexpired Term                   UNDER VOTES                           PRECINCT 1                                             01 
01080050002000002          Railroad Commissioner, Unexpired Term                   UNDER VOTES                           PRECINCT 2                                             01 
01080050003000001          Railroad Commissioner, Unexpired Term                   UNDER VOTES                           PRECINCT 3                                             01 
01080050004000001          Railroad Commissioner, Unexpired Term                   UNDER VOTES                           PRECINCT 4                                             01 
01080050005000001          Railroad Commissioner, Unexpired Term                   UNDER VOTES                           PRECINCT 5                                             01 
01080050006000014          Railroad Commissioner, Unexpired Term                   UNDER VOTES                           PRECINCT 6                                             01 
01080050007000036          Railroad Commissioner, Unexpired Term                   UNDER VOTES                           PRECINCT 7                                             01 
01080050008000031          Railroad Commissioner, Unexpired Term                   UNDER VOTES                           PRECINCT 8                                             01 
01080050009000024          Railroad Commissioner, Unexpired Term                   UNDER VOTES                           PRECINCT 9                                             01 
01090010001000213REP       Justice, Supreme Court, Place 2                         Don Willett                           PRECINCT 1                                             01 
01090010002000037REP       Justice, Supreme Court, Place 2                         Don Willett                           PRECINCT 2                                             01 
01090010003000022REP       Justice, Supreme Court, Place 2                         Don Willett                           PRECINCT 3                                             01 
01090010004000026REP       Justice, Supreme Court, Place 2                         Don Willett                           PRECINCT 4                                             01 
01090010005000023REP       Justice, Supreme Court, Place 2                         Don Willett                           PRECINCT 5                                             01 
01090010006000152REP       Justice, Supreme Court, Place 2                         Don Willett                           PRECINCT 6                                             01 
01090010007000182REP       Justice, Supreme Court, Place 2                         Don Willett                           PRECINCT 7                                             01 
01090010008000346REP       Justice, Supreme Court, Place 2                         Don Willett                           PRECINCT 8                                             01 
01090010009000250REP       Justice, Supreme Court, Place 2                         Don Willett                           PRECINCT 9                                             01 
01090020001000020LIB       Justice, Supreme Court, Place 2                         RS Roberto Koelsch                    PRECINCT 1                                             01 
01090020002000003LIB       Justice, Supreme Court, Place 2                         RS Roberto Koelsch                    PRECINCT 2                                             01 
01090020003000000LIB       Justice, Supreme Court, Place 2                         RS Roberto Koelsch                    PRECINCT 3                                             01 
01090020004000001LIB       Justice, Supreme Court, Place 2                         RS Roberto Koelsch                    PRECINCT 4                                             01 
01090020005000000LIB       Justice, Supreme Court, Place 2                         RS Roberto Koelsch                    PRECINCT 5                                             01 
01090020006000025LIB       Justice, Supreme Court, Place 2                         RS Roberto Koelsch                    PRECINCT 6                                             01 
01090020007000024LIB       Justice, Supreme Court, Place 2                         RS Roberto Koelsch                    PRECINCT 7                                             01 
01090020008000037LIB       Justice, Supreme Court, Place 2                         RS Roberto Koelsch                    PRECINCT 8                                             01 
01090020009000037LIB       Justice, Supreme Court, Place 2                         RS Roberto Koelsch                    PRECINCT 9                                             01 
01090030001000000          Justice, Supreme Court, Place 2                         OVER VOTES                            PRECINCT 1                                             01 
01090030002000000          Justice, Supreme Court, Place 2                         OVER VOTES                            PRECINCT 2                                             01 
01090030003000000          Justice, Supreme Court, Place 2                         OVER VOTES                            PRECINCT 3                                             01 
01090030004000000          Justice, Supreme Court, Place 2                         OVER VOTES                            PRECINCT 4                                             01 
01090030005000000          Justice, Supreme Court, Place 2                         OVER VOTES                            PRECINCT 5                                             01 
01090030006000000          Justice, Supreme Court, Place 2                         OVER VOTES                            PRECINCT 6                                             01 
01090030007000000          Justice, Supreme Court, Place 2                         OVER VOTES                            PRECINCT 7                                             01 
01090030008000000          Justice, Supreme Court, Place 2                         OVER VOTES                            PRECINCT 8                                             01 
01090030009000000          Justice, Supreme Court, Place 2                         OVER VOTES                            PRECINCT 9                                             01 
01090040001000023          Justice, Supreme Court, Place 2                         UNDER VOTES                           PRECINCT 1                                             01 
01090040002000002          Justice, Supreme Court, Place 2                         UNDER VOTES                           PRECINCT 2                                             01 
01090040003000000          Justice, Supreme Court, Place 2                         UNDER VOTES                           PRECINCT 3                                             01 
01090040004000001          Justice, Supreme Court, Place 2                         UNDER VOTES                           PRECINCT 4                                             01 
01090040005000001          Justice, Supreme Court, Place 2                         UNDER VOTES                           PRECINCT 5                                             01 
01090040006000013          Justice, Supreme Court, Place 2                         UNDER VOTES                           PRECINCT 6                                             01 
01090040007000040          Justice, Supreme Court, Place 2                         UNDER VOTES                           PRECINCT 7                                             01 
01090040008000031          Justice, Supreme Court, Place 2                         UNDER VOTES                           PRECINCT 8                                             01 
01090040009000018          Justice, Supreme Court, Place 2                         UNDER VOTES                           PRECINCT 9                                             01 
01100010001000203REP       Justice, Supreme Court, Place 4                         John Devine                           PRECINCT 1                                             01 
01100010002000038REP       Justice, Supreme Court, Place 4                         John Devine                           PRECINCT 2                                             01 
01100010003000022REP       Justice, Supreme Court, Place 4                         John Devine                           PRECINCT 3                                             01 
01100010004000025REP       Justice, Supreme Court, Place 4                         John Devine                           PRECINCT 4                                             01 
01100010005000021REP       Justice, Supreme Court, Place 4                         John Devine                           PRECINCT 5                                             01 
01100010006000142REP       Justice, Supreme Court, Place 4                         John Devine                           PRECINCT 6                                             01 
01100010007000172REP       Justice, Supreme Court, Place 4                         John Devine                           PRECINCT 7                                             01 
01100010008000332REP       Justice, Supreme Court, Place 4                         John Devine                           PRECINCT 8                                             01 
01100010009000234REP       Justice, Supreme Court, Place 4                         John Devine                           PRECINCT 9                                             01 
01100020001000018LIB       Justice, Supreme Court, Place 4                         Tom Oxford                            PRECINCT 1                                             01 
01100020002000002LIB       Justice, Supreme Court, Place 4                         Tom Oxford                            PRECINCT 2                                             01 
01100020003000000LIB       Justice, Supreme Court, Place 4                         Tom Oxford                            PRECINCT 3                                             01 
01100020004000001LIB       Justice, Supreme Court, Place 4                         Tom Oxford                            PRECINCT 4                                             01 
01100020005000001LIB       Justice, Supreme Court, Place 4                         Tom Oxford                            PRECINCT 5                                             01 
01100020006000023LIB       Justice, Supreme Court, Place 4                         Tom Oxford                            PRECINCT 6                                             01 
01100020007000021LIB       Justice, Supreme Court, Place 4                         Tom Oxford                            PRECINCT 7                                             01 
01100020008000034LIB       Justice, Supreme Court, Place 4                         Tom Oxford                            PRECINCT 8                                             01 
01100020009000038LIB       Justice, Supreme Court, Place 4                         Tom Oxford                            PRECINCT 9                                             01 
01100030001000013GRN       Justice, Supreme Court, Place 4                         Charles E. Waterbury                  PRECINCT 1                                             01 
01100030002000000GRN       Justice, Supreme Court, Place 4                         Charles E. Waterbury                  PRECINCT 2                                             01 
01100030003000000GRN       Justice, Supreme Court, Place 4                         Charles E. Waterbury                  PRECINCT 3                                             01 
01100030004000001GRN       Justice, Supreme Court, Place 4                         Charles E. Waterbury                  PRECINCT 4                                             01 
01100030005000001GRN       Justice, Supreme Court, Place 4                         Charles E. Waterbury                  PRECINCT 5                                             01 
01100030006000011GRN       Justice, Supreme Court, Place 4                         Charles E. Waterbury                  PRECINCT 6                                             01 
01100030007000013GRN       Justice, Supreme Court, Place 4                         Charles E. Waterbury                  PRECINCT 7                                             01 
01100030008000018GRN       Justice, Supreme Court, Place 4                         Charles E. Waterbury                  PRECINCT 8                                             01 
01100030009000013GRN       Justice, Supreme Court, Place 4                         Charles E. Waterbury                  PRECINCT 9                                             01 
01100040001000000          Justice, Supreme Court, Place 4                         OVER VOTES                            PRECINCT 1                                             01 
01100040002000000          Justice, Supreme Court, Place 4                         OVER VOTES                            PRECINCT 2                                             01 
01100040003000000          Justice, Supreme Court, Place 4                         OVER VOTES                            PRECINCT 3                                             01 
01100040004000000          Justice, Supreme Court, Place 4                         OVER VOTES                            PRECINCT 4                                             01 
01100040005000000          Justice, Supreme Court, Place 4                         OVER VOTES                            PRECINCT 5                                             01 
01100040006000000          Justice, Supreme Court, Place 4                         OVER VOTES                            PRECINCT 6                                             01 
01100040007000000          Justice, Supreme Court, Place 4                         OVER VOTES                            PRECINCT 7                                             01 
01100040008000000          Justice, Supreme Court, Place 4                         OVER VOTES                            PRECINCT 8                                             01 
01100040009000000          Justice, Supreme Court, Place 4                         OVER VOTES                            PRECINCT 9                                             01 
01100050001000022          Justice, Supreme Court, Place 4                         UNDER VOTES                           PRECINCT 1                                             01 
01100050002000002          Justice, Supreme Court, Place 4                         UNDER VOTES                           PRECINCT 2                                             01 
01100050003000000          Justice, Supreme Court, Place 4                         UNDER VOTES                           PRECINCT 3                                             01 
01100050004000001          Justice, Supreme Court, Place 4                         UNDER VOTES                           PRECINCT 4                                             01 
01100050005000001          Justice, Supreme Court, Place 4                         UNDER VOTES                           PRECINCT 5                                             01 
01100050006000014          Justice, Supreme Court, Place 4                         UNDER VOTES                           PRECINCT 6                                             01 
01100050007000040          Justice, Supreme Court, Place 4                         UNDER VOTES                           PRECINCT 7                                             01 
01100050008000029          Justice, Supreme Court, Place 4                         UNDER VOTES                           PRECINCT 8                                             01 
01100050009000019          Justice, Supreme Court, Place 4                         UNDER VOTES                           PRECINCT 9                                             01 
01110010001000185REP       Justice, Supreme Court, Place 6                         Nathan Hecht                          PRECINCT 1                                             01 
01110010002000035REP       Justice, Supreme Court, Place 6                         Nathan Hecht                          PRECINCT 2                                             01 
01110010003000022REP       Justice, Supreme Court, Place 6                         Nathan Hecht                          PRECINCT 3                                             01 
01110010004000024REP       Justice, Supreme Court, Place 6                         Nathan Hecht                          PRECINCT 4                                             01 
01110010005000020REP       Justice, Supreme Court, Place 6                         Nathan Hecht                          PRECINCT 5                                             01 
01110010006000137REP       Justice, Supreme Court, Place 6                         Nathan Hecht                          PRECINCT 6                                             01 
01110010007000155REP       Justice, Supreme Court, Place 6                         Nathan Hecht                          PRECINCT 7                                             01 
01110010008000310REP       Justice, Supreme Court, Place 6                         Nathan Hecht                          PRECINCT 8                                             01 
01110010009000203REP       Justice, Supreme Court, Place 6                         Nathan Hecht                          PRECINCT 9                                             01 
01110020001000035DEM       Justice, Supreme Court, Place 6                         Michele Petty                         PRECINCT 1                                             01 
01110020002000001DEM       Justice, Supreme Court, Place 6                         Michele Petty                         PRECINCT 2                                             01 
01110020003000000DEM       Justice, Supreme Court, Place 6                         Michele Petty                         PRECINCT 3                                             01 
01110020004000002DEM       Justice, Supreme Court, Place 6                         Michele Petty                         PRECINCT 4                                             01 
01110020005000003DEM       Justice, Supreme Court, Place 6                         Michele Petty                         PRECINCT 5                                             01 
01110020006000039DEM       Justice, Supreme Court, Place 6                         Michele Petty                         PRECINCT 6                                             01 
01110020007000064DEM       Justice, Supreme Court, Place 6                         Michele Petty                         PRECINCT 7                                             01 
01110020008000076DEM       Justice, Supreme Court, Place 6                         Michele Petty                         PRECINCT 8                                             01 
01110020009000064DEM       Justice, Supreme Court, Place 6                         Michele Petty                         PRECINCT 9                                             01 
01110030001000006LIB       Justice, Supreme Court, Place 6                         Mark Ash                              PRECINCT 1                                             01 
01110030002000002LIB       Justice, Supreme Court, Place 6                         Mark Ash                              PRECINCT 2                                             01 
01110030003000000LIB       Justice, Supreme Court, Place 6                         Mark Ash                              PRECINCT 3                                             01 
01110030004000000LIB       Justice, Supreme Court, Place 6                         Mark Ash                              PRECINCT 4                                             01 
01110030005000000LIB       Justice, Supreme Court, Place 6                         Mark Ash                              PRECINCT 5                                             01 
01110030006000007LIB       Justice, Supreme Court, Place 6                         Mark Ash                              PRECINCT 6                                             01 
01110030007000008LIB       Justice, Supreme Court, Place 6                         Mark Ash                              PRECINCT 7                                             01 
01110030008000009LIB       Justice, Supreme Court, Place 6                         Mark Ash                              PRECINCT 8                                             01 
01110030009000011LIB       Justice, Supreme Court, Place 6                         Mark Ash                              PRECINCT 9                                             01 
01110040001000012GRN       Justice, Supreme Court, Place 6                         Jim Chisholm                          PRECINCT 1                                             01 
01110040002000002GRN       Justice, Supreme Court, Place 6                         Jim Chisholm                          PRECINCT 2                                             01 
01110040003000000GRN       Justice, Supreme Court, Place 6                         Jim Chisholm                          PRECINCT 3                                             01 
01110040004000001GRN       Justice, Supreme Court, Place 6                         Jim Chisholm                          PRECINCT 4                                             01 
01110040005000001GRN       Justice, Supreme Court, Place 6                         Jim Chisholm                          PRECINCT 5                                             01 
01110040006000007GRN       Justice, Supreme Court, Place 6                         Jim Chisholm                          PRECINCT 6                                             01 
01110040007000012GRN       Justice, Supreme Court, Place 6                         Jim Chisholm                          PRECINCT 7                                             01 
01110040008000011GRN       Justice, Supreme Court, Place 6                         Jim Chisholm                          PRECINCT 8                                             01 
01110040009000017GRN       Justice, Supreme Court, Place 6                         Jim Chisholm                          PRECINCT 9                                             01 
01110050001000000          Justice, Supreme Court, Place 6                         OVER VOTES                            PRECINCT 1                                             01 
01110050002000000          Justice, Supreme Court, Place 6                         OVER VOTES                            PRECINCT 2                                             01 
01110050003000000          Justice, Supreme Court, Place 6                         OVER VOTES                            PRECINCT 3                                             01 
01110050004000000          Justice, Supreme Court, Place 6                         OVER VOTES                            PRECINCT 4                                             01 
01110050005000000          Justice, Supreme Court, Place 6                         OVER VOTES                            PRECINCT 5                                             01 
01110050006000000          Justice, Supreme Court, Place 6                         OVER VOTES                            PRECINCT 6                                             01 
01110050007000000          Justice, Supreme Court, Place 6                         OVER VOTES                            PRECINCT 7                                             01 
01110050008000000          Justice, Supreme Court, Place 6                         OVER VOTES                            PRECINCT 8                                             01 
01110050009000000          Justice, Supreme Court, Place 6                         OVER VOTES                            PRECINCT 9                                             01 
01110060001000018          Justice, Supreme Court, Place 6                         UNDER VOTES                           PRECINCT 1                                             01 
01110060002000002          Justice, Supreme Court, Place 6                         UNDER VOTES                           PRECINCT 2                                             01 
01110060003000000          Justice, Supreme Court, Place 6                         UNDER VOTES                           PRECINCT 3                                             01 
01110060004000001          Justice, Supreme Court, Place 6                         UNDER VOTES                           PRECINCT 4                                             01 
01110060005000000          Justice, Supreme Court, Place 6                         UNDER VOTES                           PRECINCT 5                                             01 
01110060006000003          Justice, Supreme Court, Place 6                         UNDER VOTES                           PRECINCT 6                                             01 
01110060007000010          Justice, Supreme Court, Place 6                         UNDER VOTES                           PRECINCT 7                                             01 
01110060008000012          Justice, Supreme Court, Place 6                         UNDER VOTES                           PRECINCT 8                                             01 
01110060009000010          Justice, Supreme Court, Place 6                         UNDER VOTES                           PRECINCT 9                                             01 
01120010001000200REP       Presiding Judge, CT of Criminal Appeals                 Sharon  Keller                        PRECINCT 1                                             01 
01120010002000036REP       Presiding Judge, CT of Criminal Appeals                 Sharon  Keller                        PRECINCT 2                                             01 
01120010003000022REP       Presiding Judge, CT of Criminal Appeals                 Sharon  Keller                        PRECINCT 3                                             01 
01120010004000026REP       Presiding Judge, CT of Criminal Appeals                 Sharon  Keller                        PRECINCT 4                                             01 
01120010005000022REP       Presiding Judge, CT of Criminal Appeals                 Sharon  Keller                        PRECINCT 5                                             01 
01120010006000139REP       Presiding Judge, CT of Criminal Appeals                 Sharon  Keller                        PRECINCT 6                                             01 
01120010007000168REP       Presiding Judge, CT of Criminal Appeals                 Sharon  Keller                        PRECINCT 7                                             01 
01120010008000326REP       Presiding Judge, CT of Criminal Appeals                 Sharon  Keller                        PRECINCT 8                                             01 
01120010009000226REP       Presiding Judge, CT of Criminal Appeals                 Sharon  Keller                        PRECINCT 9                                             01 
01120020001000028DEM       Presiding Judge, CT of Criminal Appeals                 Keith Hampton                         PRECINCT 1                                             01 
01120020002000002DEM       Presiding Judge, CT of Criminal Appeals                 Keith Hampton                         PRECINCT 2                                             01 
01120020003000000DEM       Presiding Judge, CT of Criminal Appeals                 Keith Hampton                         PRECINCT 3                                             01 
01120020004000000DEM       Presiding Judge, CT of Criminal Appeals                 Keith Hampton                         PRECINCT 4                                             01 
01120020005000002DEM       Presiding Judge, CT of Criminal Appeals                 Keith Hampton                         PRECINCT 5                                             01 
01120020006000040DEM       Presiding Judge, CT of Criminal Appeals                 Keith Hampton                         PRECINCT 6                                             01 
01120020007000064DEM       Presiding Judge, CT of Criminal Appeals                 Keith Hampton                         PRECINCT 7                                             01 
01120020008000059DEM       Presiding Judge, CT of Criminal Appeals                 Keith Hampton                         PRECINCT 8                                             01 
01120020009000057DEM       Presiding Judge, CT of Criminal Appeals                 Keith Hampton                         PRECINCT 9                                             01 
01120030001000011LIB       Presiding Judge, CT of Criminal Appeals                 Lance Stott                           PRECINCT 1                                             01 
01120030002000002LIB       Presiding Judge, CT of Criminal Appeals                 Lance Stott                           PRECINCT 2                                             01 
01120030003000000LIB       Presiding Judge, CT of Criminal Appeals                 Lance Stott                           PRECINCT 3                                             01 
01120030004000001LIB       Presiding Judge, CT of Criminal Appeals                 Lance Stott                           PRECINCT 4                                             01 
01120030005000000LIB       Presiding Judge, CT of Criminal Appeals                 Lance Stott                           PRECINCT 5                                             01 
01120030006000010LIB       Presiding Judge, CT of Criminal Appeals                 Lance Stott                           PRECINCT 6                                             01 
01120030007000008LIB       Presiding Judge, CT of Criminal Appeals                 Lance Stott                           PRECINCT 7                                             01 
01120030008000024LIB       Presiding Judge, CT of Criminal Appeals                 Lance Stott                           PRECINCT 8                                             01 
01120030009000009LIB       Presiding Judge, CT of Criminal Appeals                 Lance Stott                           PRECINCT 9                                             01 
01120040001000000          Presiding Judge, CT of Criminal Appeals                 OVER VOTES                            PRECINCT 1                                             01 
01120040002000000          Presiding Judge, CT of Criminal Appeals                 OVER VOTES                            PRECINCT 2                                             01 
01120040003000000          Presiding Judge, CT of Criminal Appeals                 OVER VOTES                            PRECINCT 3                                             01 
01120040004000000          Presiding Judge, CT of Criminal Appeals                 OVER VOTES                            PRECINCT 4                                             01 
01120040005000000          Presiding Judge, CT of Criminal Appeals                 OVER VOTES                            PRECINCT 5                                             01 
01120040006000000          Presiding Judge, CT of Criminal Appeals                 OVER VOTES                            PRECINCT 6                                             01 
01120040007000000          Presiding Judge, CT of Criminal Appeals                 OVER VOTES                            PRECINCT 7                                             01 
01120040008000000          Presiding Judge, CT of Criminal Appeals                 OVER VOTES                            PRECINCT 8                                             01 
01120040009000000          Presiding Judge, CT of Criminal Appeals                 OVER VOTES                            PRECINCT 9                                             01 
01120050001000017          Presiding Judge, CT of Criminal Appeals                 UNDER VOTES                           PRECINCT 1                                             01 
01120050002000002          Presiding Judge, CT of Criminal Appeals                 UNDER VOTES                           PRECINCT 2                                             01 
01120050003000000          Presiding Judge, CT of Criminal Appeals                 UNDER VOTES                           PRECINCT 3                                             01 
01120050004000001          Presiding Judge, CT of Criminal Appeals                 UNDER VOTES                           PRECINCT 4                                             01 
01120050005000000          Presiding Judge, CT of Criminal Appeals                 UNDER VOTES                           PRECINCT 5                                             01 
01120050006000003          Presiding Judge, CT of Criminal Appeals                 UNDER VOTES                           PRECINCT 6                                             01 
01120050007000009          Presiding Judge, CT of Criminal Appeals                 UNDER VOTES                           PRECINCT 7                                             01 
01120050008000010          Presiding Judge, CT of Criminal Appeals                 UNDER VOTES                           PRECINCT 8                                             01 
01120050009000012          Presiding Judge, CT of Criminal Appeals                 UNDER VOTES                           PRECINCT 9                                             01 
01130010001000207REP       Judge, Court of Criminal Appeals, Pl 7                  Barbara Parker Hervey                 PRECINCT 1                                             01 
01130010002000038REP       Judge, Court of Criminal Appeals, Pl 7                  Barbara Parker Hervey                 PRECINCT 2                                             01 
01130010003000022REP       Judge, Court of Criminal Appeals, Pl 7                  Barbara Parker Hervey                 PRECINCT 3                                             01 
01130010004000026REP       Judge, Court of Criminal Appeals, Pl 7                  Barbara Parker Hervey                 PRECINCT 4                                             01 
01130010005000022REP       Judge, Court of Criminal Appeals, Pl 7                  Barbara Parker Hervey                 PRECINCT 5                                             01 
01130010006000149REP       Judge, Court of Criminal Appeals, Pl 7                  Barbara Parker Hervey                 PRECINCT 6                                             01 
01130010007000176REP       Judge, Court of Criminal Appeals, Pl 7                  Barbara Parker Hervey                 PRECINCT 7                                             01 
01130010008000339REP       Judge, Court of Criminal Appeals, Pl 7                  Barbara Parker Hervey                 PRECINCT 8                                             01 
01130010009000251REP       Judge, Court of Criminal Appeals, Pl 7                  Barbara Parker Hervey                 PRECINCT 9                                             01 
01130020001000029LIB       Judge, Court of Criminal Appeals, Pl 7                  Mark W. Bennett                       PRECINCT 1                                             01 
01130020002000002LIB       Judge, Court of Criminal Appeals, Pl 7                  Mark W. Bennett                       PRECINCT 2                                             01 
01130020003000000LIB       Judge, Court of Criminal Appeals, Pl 7                  Mark W. Bennett                       PRECINCT 3                                             01 
01130020004000001LIB       Judge, Court of Criminal Appeals, Pl 7                  Mark W. Bennett                       PRECINCT 4                                             01 
01130020005000001LIB       Judge, Court of Criminal Appeals, Pl 7                  Mark W. Bennett                       PRECINCT 5                                             01 
01130020006000026LIB       Judge, Court of Criminal Appeals, Pl 7                  Mark W. Bennett                       PRECINCT 6                                             01 
01130020007000029LIB       Judge, Court of Criminal Appeals, Pl 7                  Mark W. Bennett                       PRECINCT 7                                             01 
01130020008000046LIB       Judge, Court of Criminal Appeals, Pl 7                  Mark W. Bennett                       PRECINCT 8                                             01 
01130020009000035LIB       Judge, Court of Criminal Appeals, Pl 7                  Mark W. Bennett                       PRECINCT 9                                             01 
01130030001000000          Judge, Court of Criminal Appeals, Pl 7                  OVER VOTES                            PRECINCT 1                                             01 
01130030002000000          Judge, Court of Criminal Appeals, Pl 7                  OVER VOTES                            PRECINCT 2                                             01 
01130030003000000          Judge, Court of Criminal Appeals, Pl 7                  OVER VOTES                            PRECINCT 3                                             01 
01130030004000000          Judge, Court of Criminal Appeals, Pl 7                  OVER VOTES                            PRECINCT 4                                             01 
01130030005000000          Judge, Court of Criminal Appeals, Pl 7                  OVER VOTES                            PRECINCT 5                                             01 
01130030006000000          Judge, Court of Criminal Appeals, Pl 7                  OVER VOTES                            PRECINCT 6                                             01 
01130030007000000          Judge, Court of Criminal Appeals, Pl 7                  OVER VOTES                            PRECINCT 7                                             01 
01130030008000000          Judge, Court of Criminal Appeals, Pl 7                  OVER VOTES                            PRECINCT 8                                             01 
01130030009000000          Judge, Court of Criminal Appeals, Pl 7                  OVER VOTES                            PRECINCT 9                                             01 
01130040001000020          Judge, Court of Criminal Appeals, Pl 7                  UNDER VOTES                           PRECINCT 1                                             01 
01130040002000002          Judge, Court of Criminal Appeals, Pl 7                  UNDER VOTES                           PRECINCT 2                                             01 
01130040003000000          Judge, Court of Criminal Appeals, Pl 7                  UNDER VOTES                           PRECINCT 3                                             01 
01130040004000001          Judge, Court of Criminal Appeals, Pl 7                  UNDER VOTES                           PRECINCT 4                                             01 
01130040005000001          Judge, Court of Criminal Appeals, Pl 7                  UNDER VOTES                           PRECINCT 5                                             01 
01130040006000015          Judge, Court of Criminal Appeals, Pl 7                  UNDER VOTES                           PRECINCT 6                                             01 
01130040007000041          Judge, Court of Criminal Appeals, Pl 7                  UNDER VOTES                           PRECINCT 7                                             01 
01130040008000030          Judge, Court of Criminal Appeals, Pl 7                  UNDER VOTES                           PRECINCT 8                                             01 
01130040009000019          Judge, Court of Criminal Appeals, Pl 7                  UNDER VOTES                           PRECINCT 9                                             01 
01140010001000198REP       Judge, Court of Criminal Appeals, Pl 8                  Elsa Alcala                           PRECINCT 1                                             01 
01140010002000038REP       Judge, Court of Criminal Appeals, Pl 8                  Elsa Alcala                           PRECINCT 2                                             01 
01140010003000022REP       Judge, Court of Criminal Appeals, Pl 8                  Elsa Alcala                           PRECINCT 3                                             01 
01140010004000026REP       Judge, Court of Criminal Appeals, Pl 8                  Elsa Alcala                           PRECINCT 4                                             01 
01140010005000022REP       Judge, Court of Criminal Appeals, Pl 8                  Elsa Alcala                           PRECINCT 5                                             01 
01140010006000141REP       Judge, Court of Criminal Appeals, Pl 8                  Elsa Alcala                           PRECINCT 6                                             01 
01140010007000176REP       Judge, Court of Criminal Appeals, Pl 8                  Elsa Alcala                           PRECINCT 7                                             01 
01140010008000332REP       Judge, Court of Criminal Appeals, Pl 8                  Elsa Alcala                           PRECINCT 8                                             01 
01140010009000244REP       Judge, Court of Criminal Appeals, Pl 8                  Elsa Alcala                           PRECINCT 9                                             01 
01140020001000033LIB       Judge, Court of Criminal Appeals, Pl 8                  William Bryan Strange, III            PRECINCT 1                                             01 
01140020002000002LIB       Judge, Court of Criminal Appeals, Pl 8                  William Bryan Strange, III            PRECINCT 2                                             01 
01140020003000000LIB       Judge, Court of Criminal Appeals, Pl 8                  William Bryan Strange, III            PRECINCT 3                                             01 
