01010010001000303000000000000000000000000000000          REGISTERED VOTERS - TOTAL                               REGISTERED VOTERS - TOTAL             PRECINCT 1                                             00 
01010010002000495000000000000000000000000000000          REGISTERED VOTERS - TOTAL                               REGISTERED VOTERS - TOTAL             PRECINCT 2                                             00 
01010010003000405000000000000000000000000000000          REGISTERED VOTERS - TOTAL                               REGISTERED VOTERS - TOTAL             PRECINCT 3                                             00 
01010010004000375000000000000000000000000000000          REGISTERED VOTERS - TOTAL                               REGISTERED VOTERS - TOTAL             PRECINCT 4                                             00 
01020010001000153000063000077000013000000000000          BALLOTS CAST - TOTAL                                    BALLOTS CAST - TOTAL                  PRECINCT 1                                             00 
01020010002000312000167000119000025000000000001          BALLOTS CAST - TOTAL                                    BALLOTS CAST - TOTAL                  PRECINCT 2                                             00 
01020010003000249000087000149000013000000000000          BALLOTS CAST - TOTAL                                    BALLOTS CAST - TOTAL                  PRECINCT 3                                             00 
01020010004000171000066000088000016000000000001          BALLOTS CAST - TOTAL                                    BALLOTS CAST - TOTAL                  PRECINCT 4                                             00 
01030010001000019000008000010000001000000000000REP       STRAIGHT PARTY                                          REPUBLICAN PARTY                      PRECINCT 1                                             01 
01030010002000125000061000051000013000000000000REP       STRAIGHT PARTY                                          REPUBLICAN PARTY                      PRECINCT 2                                             01 
01030010003000071000017000046000008000000000000REP       STRAIGHT PARTY                                          REPUBLICAN PARTY                      PRECINCT 3                                             01 
01030010004000062000018000034000009000000000001REP       STRAIGHT PARTY                                          REPUBLICAN PARTY                      PRECINCT 4                                             01 
01030020001000027000015000008000004000000000000DEM       STRAIGHT PARTY                                          DEMOCRATIC PARTY                      PRECINCT 1                                             01 
01030020002000022000015000007000000000000000000DEM       STRAIGHT PARTY                                          DEMOCRATIC PARTY                      PRECINCT 2                                             01 
01030020003000012000008000004000000000000000000DEM       STRAIGHT PARTY                                          DEMOCRATIC PARTY                      PRECINCT 3                                             01 
01030020004000019000011000008000000000000000000DEM       STRAIGHT PARTY                                          DEMOCRATIC PARTY                      PRECINCT 4                                             01 
01030030001000001000000000001000000000000000000LIB       STRAIGHT PARTY                                          LIBERTARIAN PARTY                     PRECINCT 1                                             01 
01030030002000000000000000000000000000000000000LIB       STRAIGHT PARTY                                          LIBERTARIAN PARTY                     PRECINCT 2                                             01 
01030030003000003000002000001000000000000000000LIB       STRAIGHT PARTY                                          LIBERTARIAN PARTY                     PRECINCT 3                                             01 
01030030004000000000000000000000000000000000000LIB       STRAIGHT PARTY                                          LIBERTARIAN PARTY                     PRECINCT 4                                             01 
01030040001000000000000000000000000000000000000GRN       STRAIGHT PARTY                                          GREEN PARTY                           PRECINCT 1                                             01 
01030040002000001000000000001000000000000000000GRN       STRAIGHT PARTY                                          GREEN PARTY                           PRECINCT 2                                             01 
01030040003000000000000000000000000000000000000GRN       STRAIGHT PARTY                                          GREEN PARTY                           PRECINCT 3                                             01 
01030040004000000000000000000000000000000000000GRN       STRAIGHT PARTY                                          GREEN PARTY                           PRECINCT 4                                             01 
01030050001000000000000000000000000000000000000          STRAIGHT PARTY                                          OVER VOTES                            PRECINCT 1                                             01 
01030050002000000000000000000000000000000000000          STRAIGHT PARTY                                          OVER VOTES                            PRECINCT 2                                             01 
01030050003000000000000000000000000000000000000          STRAIGHT PARTY                                          OVER VOTES                            PRECINCT 3                                             01 
01030050004000000000000000000000000000000000000          STRAIGHT PARTY                                          OVER VOTES                            PRECINCT 4                                             01 
01030060001000106000040000058000008000000000000          STRAIGHT PARTY                                          UNDER VOTES                           PRECINCT 1                                             01 
01030060002000164000091000060000012000000000001          STRAIGHT PARTY                                          UNDER VOTES                           PRECINCT 2                                             01 
01030060003000163000060000098000005000000000000          STRAIGHT PARTY                                          UNDER VOTES                           PRECINCT 3                                             01 
01030060004000090000037000046000007000000000000          STRAIGHT PARTY                                          UNDER VOTES                           PRECINCT 4                                             01 
01040010001000079000021000055000003000000000000REP       President and Vice-President                            Mitt Romney / Paul Ryan               PRECINCT 1                                             01 
01040010002000262000133000104000024000000000001REP       President and Vice-President                            Mitt Romney / Paul Ryan               PRECINCT 2                                             01 
01040010003000190000061000118000011000000000000REP       President and Vice-President                            Mitt Romney / Paul Ryan               PRECINCT 3                                             01 
01040010004000111000034000065000011000000000001REP       President and Vice-President                            Mitt Romney / Paul Ryan               PRECINCT 4                                             01 
01040020001000072000041000021000010000000000000DEM       President and Vice-President                            Barack Obama / Joe Biden              PRECINCT 1                                             01 
01040020002000048000034000013000001000000000000DEM       President and Vice-President                            Barack Obama / Joe Biden              PRECINCT 2                                             01 
01040020003000052000025000026000001000000000000DEM       President and Vice-President                            Barack Obama / Joe Biden              PRECINCT 3                                             01 
01040020004000060000032000023000005000000000000DEM       President and Vice-President                            Barack Obama / Joe Biden              PRECINCT 4                                             01 
01040030001000000000000000000000000000000000000LIB       President and Vice-President                            Gary Johnson / Jim Gray               PRECINCT 1                                             01 
01040030002000002000000000002000000000000000000LIB       President and Vice-President                            Gary Johnson / Jim Gray               PRECINCT 2                                             01 
01040030003000005000001000003000001000000000000LIB       President and Vice-President                            Gary Johnson / Jim Gray               PRECINCT 3                                             01 
01040030004000000000000000000000000000000000000LIB       President and Vice-President                            Gary Johnson / Jim Gray               PRECINCT 4                                             01 
01040040001000001000001000000000000000000000000GRN       President and Vice-President                            Jill Stein / Cheri Honkala            PRECINCT 1                                             01 
01040040002000000000000000000000000000000000000GRN       President and Vice-President                            Jill Stein / Cheri Honkala            PRECINCT 2                                             01 
01040040003000002000000000002000000000000000000GRN       President and Vice-President                            Jill Stein / Cheri Honkala            PRECINCT 3                                             01 
01040040004000000000000000000000000000000000000GRN       President and Vice-President                            Jill Stein / Cheri Honkala            PRECINCT 4                                             01 
01040050001000000000000000000000000000000000000NON       President and Vice-President                            WRITE-IN                              PRECINCT 1                                             01 
01040050002000000000000000000000000000000000000NON       President and Vice-President                            WRITE-IN                              PRECINCT 2                                             01 
01040050003000000000000000000000000000000000000NON       President and Vice-President                            WRITE-IN                              PRECINCT 3                                             01 
01040050004000000000000000000000000000000000000NON       President and Vice-President                            WRITE-IN                              PRECINCT 4                                             01 
01040060001000000000000000000000000000000000000          President and Vice-President                            OVER VOTES                            PRECINCT 1                                             01 
01040060002000000000000000000000000000000000000          President and Vice-President                            OVER VOTES                            PRECINCT 2                                             01 
01040060003000000000000000000000000000000000000          President and Vice-President                            OVER VOTES                            PRECINCT 3                                             01 
01040060004000000000000000000000000000000000000          President and Vice-President                            OVER VOTES                            PRECINCT 4                                             01 
01040070001000001000000000001000000000000000000          President and Vice-President                            UNDER VOTES                           PRECINCT 1                                             01 
01040070002000000000000000000000000000000000000          President and Vice-President                            UNDER VOTES                           PRECINCT 2                                             01 
01040070003000000000000000000000000000000000000          President and Vice-President                            UNDER VOTES                           PRECINCT 3                                             01 
01040070004000000000000000000000000000000000000          President and Vice-President                            UNDER VOTES                           PRECINCT 4                                             01 
01050010001000086000024000056000006000000000000REP       United States Senator                                   Ted Cruz                              PRECINCT 1                                             01 
01050010002000251000127000101000022000000000001REP       United States Senator                                   Ted Cruz                              PRECINCT 2                                             01 
01050010003000178000056000112000010000000000000REP       United States Senator                                   Ted Cruz                              PRECINCT 3                                             01 
01050010004000109000035000059000014000000000001REP       United States Senator                                   Ted Cruz                              PRECINCT 4                                             01 
01050020001000045000029000012000004000000000000DEM       United States Senator                                   Paul Sadler                           PRECINCT 1                                             01 
01050020002000046000034000011000001000000000000DEM       United States Senator                                   Paul Sadler                           PRECINCT 2                                             01 
01050020003000041000017000023000001000000000000DEM       United States Senator                                   Paul Sadler                           PRECINCT 3                                             01 
01050020004000040000018000020000002000000000000DEM       United States Senator                                   Paul Sadler                           PRECINCT 4                                             01 
01050030001000002000001000001000000000000000000LIB       United States Senator                                   John Jay Myers                        PRECINCT 1                                             01 
01050030002000004000002000002000000000000000000LIB       United States Senator                                   John Jay Myers                        PRECINCT 2                                             01 
01050030003000010000004000005000001000000000000LIB       United States Senator                                   John Jay Myers                        PRECINCT 3                                             01 
01050030004000001000000000001000000000000000000LIB       United States Senator                                   John Jay Myers                        PRECINCT 4                                             01 
01050040001000001000001000000000000000000000000GRN       United States Senator                                   David B. Collins                      PRECINCT 1                                             01 
01050040002000002000000000001000001000000000000GRN       United States Senator                                   David B. Collins                      PRECINCT 2                                             01 
01050040003000003000000000003000000000000000000GRN       United States Senator                                   David B. Collins                      PRECINCT 3                                             01 
01050040004000001000001000000000000000000000000GRN       United States Senator                                   David B. Collins                      PRECINCT 4                                             01 
01050050001000000000000000000000000000000000000          United States Senator                                   OVER VOTES                            PRECINCT 1                                             01 
01050050002000000000000000000000000000000000000          United States Senator                                   OVER VOTES                            PRECINCT 2                                             01 
01050050003000000000000000000000000000000000000          United States Senator                                   OVER VOTES                            PRECINCT 3                                             01 
01050050004000000000000000000000000000000000000          United States Senator                                   OVER VOTES                            PRECINCT 4                                             01 
01050060001000019000008000008000003000000000000          United States Senator                                   UNDER VOTES                           PRECINCT 1                                             01 
01050060002000009000004000004000001000000000000          United States Senator                                   UNDER VOTES                           PRECINCT 2                                             01 
01050060003000017000010000006000001000000000000          United States Senator                                   UNDER VOTES                           PRECINCT 3                                             01 
01050060004000020000012000008000000000000000000          United States Senator                                   UNDER VOTES                           PRECINCT 4                                             01 
01060010001000081000023000055000003000000000000REP       United States Representative, Dist 23                   Francisco "Quico" Canseco             PRECINCT 1                                             01 
01060010002000225000113000091000020000000000001REP       United States Representative, Dist 23                   Francisco "Quico" Canseco             PRECINCT 2                                             01 
01060010003000158000044000106000008000000000000REP       United States Representative, Dist 23                   Francisco "Quico" Canseco             PRECINCT 3                                             01 
01060010004000094000028000055000011000000000000REP       United States Representative, Dist 23                   Francisco "Quico" Canseco             PRECINCT 4                                             01 
01060020001000063000034000019000010000000000000DEM       United States Representative, Dist 23                   Pete P. Gallego                       PRECINCT 1                                             01 
01060020002000054000038000015000001000000000000DEM       United States Representative, Dist 23                   Pete P. Gallego                       PRECINCT 2                                             01 
01060020003000060000030000027000003000000000000DEM       United States Representative, Dist 23                   Pete P. Gallego                       PRECINCT 3                                             01 
01060020004000053000027000022000004000000000000DEM       United States Representative, Dist 23                   Pete P. Gallego                       PRECINCT 4                                             01 
01060030001000002000001000001000000000000000000LIB       United States Representative, Dist 23                   Jeffrey C. Blunt                      PRECINCT 1                                             01 
01060030002000015000010000003000002000000000000LIB       United States Representative, Dist 23                   Jeffrey C. Blunt                      PRECINCT 2                                             01 
01060030003000015000005000009000001000000000000LIB       United States Representative, Dist 23                   Jeffrey C. Blunt                      PRECINCT 3                                             01 
01060030004000004000002000002000000000000000000LIB       United States Representative, Dist 23                   Jeffrey C. Blunt                      PRECINCT 4                                             01 
01060040001000001000001000000000000000000000000GRN       United States Representative, Dist 23                   Ed Scharf                             PRECINCT 1                                             01 
01060040002000001000000000001000000000000000000GRN       United States Representative, Dist 23                   Ed Scharf                             PRECINCT 2                                             01 
01060040003000002000000000002000000000000000000GRN       United States Representative, Dist 23                   Ed Scharf                             PRECINCT 3                                             01 
01060040004000001000001000000000000000000000000GRN       United States Representative, Dist 23                   Ed Scharf                             PRECINCT 4                                             01 
01060050001000001000000000001000000000000000000          United States Representative, Dist 23                   OVER VOTES                            PRECINCT 1                                             01 
01060050002000001000000000001000000000000000000          United States Representative, Dist 23                   OVER VOTES                            PRECINCT 2                                             01 
01060050003000000000000000000000000000000000000          United States Representative, Dist 23                   OVER VOTES                            PRECINCT 3                                             01 
01060050004000002000001000001000000000000000000          United States Representative, Dist 23                   OVER VOTES                            PRECINCT 4                                             01 
01060060001000005000004000001000000000000000000          United States Representative, Dist 23                   UNDER VOTES                           PRECINCT 1                                             01 
01060060002000016000006000008000002000000000000          United States Representative, Dist 23                   UNDER VOTES                           PRECINCT 2                                             01 
01060060003000014000008000005000001000000000000          United States Representative, Dist 23                   UNDER VOTES                           PRECINCT 3                                             01 
01060060004000016000007000008000001000000000000          United States Representative, Dist 23                   UNDER VOTES                           PRECINCT 4                                             01 
01070010001000077000023000051000003000000000000REP       Railroad Commissioner                                   Christi Craddick                      PRECINCT 1                                             01 
01070010002000235000113000099000022000000000001REP       Railroad Commissioner                                   Christi Craddick                      PRECINCT 2                                             01 
01070010003000174000052000111000011000000000000REP       Railroad Commissioner                                   Christi Craddick                      PRECINCT 3                                             01 
01070010004000090000026000054000009000000000001REP       Railroad Commissioner                                   Christi Craddick                      PRECINCT 4                                             01 
01070020001000047000027000013000007000000000000DEM       Railroad Commissioner                                   Dale Henry                            PRECINCT 1                                             01 
01070020002000041000030000010000001000000000000DEM       Railroad Commissioner                                   Dale Henry                            PRECINCT 2                                             01 
01070020003000029000014000015000000000000000000DEM       Railroad Commissioner                                   Dale Henry                            PRECINCT 3                                             01 
01070020004000046000021000020000005000000000000DEM       Railroad Commissioner                                   Dale Henry                            PRECINCT 4                                             01 
01070030001000001000000000001000000000000000000LIB       Railroad Commissioner                                   Vivekananda (Vik) Wall                PRECINCT 1                                             01 
01070030002000005000004000001000000000000000000LIB       Railroad Commissioner                                   Vivekananda (Vik) Wall                PRECINCT 2                                             01 
01070030003000007000003000003000001000000000000LIB       Railroad Commissioner                                   Vivekananda (Vik) Wall                PRECINCT 3                                             01 
01070030004000002000001000001000000000000000000LIB       Railroad Commissioner                                   Vivekananda (Vik) Wall                PRECINCT 4                                             01 
01070040001000001000001000000000000000000000000GRN       Railroad Commissioner                                   Chris Kennedy                         PRECINCT 1                                             01 
01070040002000007000006000001000000000000000000GRN       Railroad Commissioner                                   Chris Kennedy                         PRECINCT 2                                             01 
01070040003000004000004000000000000000000000000GRN       Railroad Commissioner                                   Chris Kennedy                         PRECINCT 3                                             01 
01070040004000001000001000000000000000000000000GRN       Railroad Commissioner                                   Chris Kennedy                         PRECINCT 4                                             01 
01070050001000000000000000000000000000000000000          Railroad Commissioner                                   OVER VOTES                            PRECINCT 1                                             01 
01070050002000000000000000000000000000000000000          Railroad Commissioner                                   OVER VOTES                            PRECINCT 2                                             01 
01070050003000000000000000000000000000000000000          Railroad Commissioner                                   OVER VOTES                            PRECINCT 3                                             01 
01070050004000000000000000000000000000000000000          Railroad Commissioner                                   OVER VOTES                            PRECINCT 4                                             01 
01070060001000027000012000012000003000000000000          Railroad Commissioner                                   UNDER VOTES                           PRECINCT 1                                             01 
01070060002000024000014000008000002000000000000          Railroad Commissioner                                   UNDER VOTES                           PRECINCT 2                                             01 
01070060003000035000014000020000001000000000000          Railroad Commissioner                                   UNDER VOTES                           PRECINCT 3                                             01 
01070060004000032000017000013000002000000000000          Railroad Commissioner                                   UNDER VOTES                           PRECINCT 4                                             01 
01080010001000075000022000050000003000000000000REP       Railroad Commissioner, Unexpired Term                   Barry Smitherman                      PRECINCT 1                                             01 
01080010002000231000113000096000021000000000001REP       Railroad Commissioner, Unexpired Term                   Barry Smitherman                      PRECINCT 2                                             01 
01080010003000169000052000106000011000000000000REP       Railroad Commissioner, Unexpired Term                   Barry Smitherman                      PRECINCT 3                                             01 
01080010004000094000029000055000009000000000001REP       Railroad Commissioner, Unexpired Term                   Barry Smitherman                      PRECINCT 4                                             01 
01080020001000018000010000006000002000000000000LIB       Railroad Commissioner, Unexpired Term                   Jaime O. Perez                        PRECINCT 1                                             01 
01080020002000027000021000005000001000000000000LIB       Railroad Commissioner, Unexpired Term                   Jaime O. Perez                        PRECINCT 2                                             01 
01080020003000024000012000011000001000000000000LIB       Railroad Commissioner, Unexpired Term                   Jaime O. Perez                        PRECINCT 3                                             01 
01080020004000023000014000006000003000000000000LIB       Railroad Commissioner, Unexpired Term                   Jaime O. Perez                        PRECINCT 4                                             01 
01080030001000002000001000001000000000000000000GRN       Railroad Commissioner, Unexpired Term                   Josh Wendel                           PRECINCT 1                                             01 
01080030002000008000004000003000001000000000000GRN       Railroad Commissioner, Unexpired Term                   Josh Wendel                           PRECINCT 2                                             01 
01080030003000007000001000006000000000000000000GRN       Railroad Commissioner, Unexpired Term                   Josh Wendel                           PRECINCT 3                                             01 
01080030004000006000002000004000000000000000000GRN       Railroad Commissioner, Unexpired Term                   Josh Wendel                           PRECINCT 4                                             01 
01080040001000000000000000000000000000000000000          Railroad Commissioner, Unexpired Term                   OVER VOTES                            PRECINCT 1                                             01 
01080040002000000000000000000000000000000000000          Railroad Commissioner, Unexpired Term                   OVER VOTES                            PRECINCT 2                                             01 
01080040003000000000000000000000000000000000000          Railroad Commissioner, Unexpired Term                   OVER VOTES                            PRECINCT 3                                             01 
01080040004000000000000000000000000000000000000          Railroad Commissioner, Unexpired Term                   OVER VOTES                            PRECINCT 4                                             01 
01080050001000058000030000020000008000000000000          Railroad Commissioner, Unexpired Term                   UNDER VOTES                           PRECINCT 1                                             01 
01080050002000046000029000015000002000000000000          Railroad Commissioner, Unexpired Term                   UNDER VOTES                           PRECINCT 2                                             01 
01080050003000049000022000026000001000000000000          Railroad Commissioner, Unexpired Term                   UNDER VOTES                           PRECINCT 3                                             01 
01080050004000048000021000023000004000000000000          Railroad Commissioner, Unexpired Term                   UNDER VOTES                           PRECINCT 4                                             01 
01090010001000080000024000053000003000000000000REP       Justice, Supreme Court, Place 2                         Don Willett                           PRECINCT 1                                             01 
01090010002000243000124000096000022000000000001REP       Justice, Supreme Court, Place 2                         Don Willett                           PRECINCT 2                                             01 
01090010003000172000055000106000011000000000000REP       Justice, Supreme Court, Place 2                         Don Willett                           PRECINCT 3                                             01 
01090010004000098000030000056000011000000000001REP       Justice, Supreme Court, Place 2                         Don Willett                           PRECINCT 4                                             01 
01090020001000010000005000003000002000000000000LIB       Justice, Supreme Court, Place 2                         RS Roberto Koelsch                    PRECINCT 1                                             01 
01090020002000019000011000007000001000000000000LIB       Justice, Supreme Court, Place 2                         RS Roberto Koelsch                    PRECINCT 2                                             01 
01090020003000022000008000013000001000000000000LIB       Justice, Supreme Court, Place 2                         RS Roberto Koelsch                    PRECINCT 3                                             01 
01090020004000021000010000010000001000000000000LIB       Justice, Supreme Court, Place 2                         RS Roberto Koelsch                    PRECINCT 4                                             01 
01090030001000000000000000000000000000000000000          Justice, Supreme Court, Place 2                         OVER VOTES                            PRECINCT 1                                             01 
01090030002000000000000000000000000000000000000          Justice, Supreme Court, Place 2                         OVER VOTES                            PRECINCT 2                                             01 
01090030003000000000000000000000000000000000000          Justice, Supreme Court, Place 2                         OVER VOTES                            PRECINCT 3                                             01 
01090030004000000000000000000000000000000000000          Justice, Supreme Court, Place 2                         OVER VOTES                            PRECINCT 4                                             01 
01090040001000063000034000021000008000000000000          Justice, Supreme Court, Place 2                         UNDER VOTES                           PRECINCT 1                                             01 
01090040002000050000032000016000002000000000000          Justice, Supreme Court, Place 2                         UNDER VOTES                           PRECINCT 2                                             01 
01090040003000055000024000030000001000000000000          Justice, Supreme Court, Place 2                         UNDER VOTES                           PRECINCT 3                                             01 
01090040004000052000026000022000004000000000000          Justice, Supreme Court, Place 2                         UNDER VOTES                           PRECINCT 4                                             01 
01100010001000079000024000052000003000000000000REP       Justice, Supreme Court, Place 4                         John Devine                           PRECINCT 1                                             01 
01100010002000230000115000093000021000000000001REP       Justice, Supreme Court, Place 4                         John Devine                           PRECINCT 2                                             01 
01100010003000162000050000102000010000000000000REP       Justice, Supreme Court, Place 4                         John Devine                           PRECINCT 3                                             01 
01100010004000096000031000053000011000000000001REP       Justice, Supreme Court, Place 4                         John Devine                           PRECINCT 4                                             01 
01100020001000010000005000003000002000000000000LIB       Justice, Supreme Court, Place 4                         Tom Oxford                            PRECINCT 1                                             01 
01100020002000023000018000004000001000000000000LIB       Justice, Supreme Court, Place 4                         Tom Oxford                            PRECINCT 2                                             01 
01100020003000021000009000011000001000000000000LIB       Justice, Supreme Court, Place 4                         Tom Oxford                            PRECINCT 3                                             01 
01100020004000012000006000006000000000000000000LIB       Justice, Supreme Court, Place 4                         Tom Oxford                            PRECINCT 4                                             01 
01100030001000004000002000002000000000000000000GRN       Justice, Supreme Court, Place 4                         Charles E. Waterbury                  PRECINCT 1                                             01 
01100030002000009000004000004000001000000000000GRN       Justice, Supreme Court, Place 4                         Charles E. Waterbury                  PRECINCT 2                                             01 
01100030003000011000005000005000001000000000000GRN       Justice, Supreme Court, Place 4                         Charles E. Waterbury                  PRECINCT 3                                             01 
01100030004000012000007000005000000000000000000GRN       Justice, Supreme Court, Place 4                         Charles E. Waterbury                  PRECINCT 4                                             01 
01100040001000000000000000000000000000000000000          Justice, Supreme Court, Place 4                         OVER VOTES                            PRECINCT 1                                             01 
01100040002000000000000000000000000000000000000          Justice, Supreme Court, Place 4                         OVER VOTES                            PRECINCT 2                                             01 
01100040003000000000000000000000000000000000000          Justice, Supreme Court, Place 4                         OVER VOTES                            PRECINCT 3                                             01 
01100040004000000000000000000000000000000000000          Justice, Supreme Court, Place 4                         OVER VOTES                            PRECINCT 4                                             01 
01100050001000060000032000020000008000000000000          Justice, Supreme Court, Place 4                         UNDER VOTES                           PRECINCT 1                                             01 
01100050002000050000030000018000002000000000000          Justice, Supreme Court, Place 4                         UNDER VOTES                           PRECINCT 2                                             01 
01100050003000055000023000031000001000000000000          Justice, Supreme Court, Place 4                         UNDER VOTES                           PRECINCT 3                                             01 
01100050004000051000022000024000005000000000000          Justice, Supreme Court, Place 4                         UNDER VOTES                           PRECINCT 4                                             01 
01110010001000069000020000046000003000000000000REP       Justice, Supreme Court, Place 6                         Nathan Hecht                          PRECINCT 1                                             01 
01110010002000222000110000090000021000000000001REP       Justice, Supreme Court, Place 6                         Nathan Hecht                          PRECINCT 2                                             01 
01110010003000147000038000100000009000000000000REP       Justice, Supreme Court, Place 6                         Nathan Hecht                          PRECINCT 3                                             01 
01110010004000085000023000052000009000000000001REP       Justice, Supreme Court, Place 6                         Nathan Hecht                          PRECINCT 4                                             01 
01110020001000046000025000014000007000000000000DEM       Justice, Supreme Court, Place 6                         Michele Petty                         PRECINCT 1                                             01 
01110020002000043000028000014000001000000000000DEM       Justice, Supreme Court, Place 6                         Michele Petty                         PRECINCT 2                                             01 
01110020003000040000023000016000001000000000000DEM       Justice, Supreme Court, Place 6                         Michele Petty                         PRECINCT 3                                             01 
01110020004000043000021000017000005000000000000DEM       Justice, Supreme Court, Place 6                         Michele Petty                         PRECINCT 4                                             01 
01110030001000002000000000002000000000000000000LIB       Justice, Supreme Court, Place 6                         Mark Ash                              PRECINCT 1                                             01 
01110030002000013000010000002000001000000000000LIB       Justice, Supreme Court, Place 6                         Mark Ash                              PRECINCT 2                                             01 
01110030003000011000005000005000001000000000000LIB       Justice, Supreme Court, Place 6                         Mark Ash                              PRECINCT 3                                             01 
01110030004000002000000000002000000000000000000LIB       Justice, Supreme Court, Place 6                         Mark Ash                              PRECINCT 4                                             01 
01110040001000003000002000001000000000000000000GRN       Justice, Supreme Court, Place 6                         Jim Chisholm                          PRECINCT 1                                             01 
01110040002000006000005000001000000000000000000GRN       Justice, Supreme Court, Place 6                         Jim Chisholm                          PRECINCT 2                                             01 
01110040003000008000004000003000001000000000000GRN       Justice, Supreme Court, Place 6                         Jim Chisholm                          PRECINCT 3                                             01 
01110040004000006000004000002000000000000000000GRN       Justice, Supreme Court, Place 6                         Jim Chisholm                          PRECINCT 4                                             01 
01110050001000000000000000000000000000000000000          Justice, Supreme Court, Place 6                         OVER VOTES                            PRECINCT 1                                             01 
01110050002000000000000000000000000000000000000          Justice, Supreme Court, Place 6                         OVER VOTES                            PRECINCT 2                                             01 
01110050003000000000000000000000000000000000000          Justice, Supreme Court, Place 6                         OVER VOTES                            PRECINCT 3                                             01 
01110050004000000000000000000000000000000000000          Justice, Supreme Court, Place 6                         OVER VOTES                            PRECINCT 4                                             01 
01110060001000033000016000014000003000000000000          Justice, Supreme Court, Place 6                         UNDER VOTES                           PRECINCT 1                                             01 
01110060002000028000014000012000002000000000000          Justice, Supreme Court, Place 6                         UNDER VOTES                           PRECINCT 2                                             01 
01110060003000043000017000025000001000000000000          Justice, Supreme Court, Place 6                         UNDER VOTES                           PRECINCT 3                                             01 
01110060004000035000018000015000002000000000000          Justice, Supreme Court, Place 6                         UNDER VOTES                           PRECINCT 4                                             01 
01120010001000069000020000046000003000000000000REP       Criminal Appeals Presiding Judge                        Sharon  Keller                        PRECINCT 1                                             01 
01120010002000223000111000091000020000000000001REP       Criminal Appeals Presiding Judge                        Sharon  Keller                        PRECINCT 2                                             01 
01120010003000165000049000105000011000000000000REP       Criminal Appeals Presiding Judge                        Sharon  Keller                        PRECINCT 3                                             01 
01120010004000089000026000053000009000000000001REP       Criminal Appeals Presiding Judge                        Sharon  Keller                        PRECINCT 4                                             01 
01120020001000046000026000013000007000000000000DEM       Criminal Appeals Presiding Judge                        Keith Hampton                         PRECINCT 1                                             01 
01120020002000042000030000011000001000000000000DEM       Criminal Appeals Presiding Judge                        Keith Hampton                         PRECINCT 2                                             01 
01120020003000031000016000015000000000000000000DEM       Criminal Appeals Presiding Judge                        Keith Hampton                         PRECINCT 3                                             01 
01120020004000040000019000016000005000000000000DEM       Criminal Appeals Presiding Judge                        Keith Hampton                         PRECINCT 4                                             01 
01120030001000004000001000003000000000000000000LIB       Criminal Appeals Presiding Judge                        Lance Stott                           PRECINCT 1                                             01 
01120030002000016000010000004000002000000000000LIB       Criminal Appeals Presiding Judge                        Lance Stott                           PRECINCT 2                                             01 
01120030003000010000005000004000001000000000000LIB       Criminal Appeals Presiding Judge                        Lance Stott                           PRECINCT 3                                             01 
01120030004000006000003000003000000000000000000LIB       Criminal Appeals Presiding Judge                        Lance Stott                           PRECINCT 4                                             01 
01120040001000000000000000000000000000000000000          Criminal Appeals Presiding Judge                        OVER VOTES                            PRECINCT 1                                             01 
01120040002000000000000000000000000000000000000          Criminal Appeals Presiding Judge                        OVER VOTES                            PRECINCT 2                                             01 
01120040003000000000000000000000000000000000000          Criminal Appeals Presiding Judge                        OVER VOTES                            PRECINCT 3                                             01 
01120040004000000000000000000000000000000000000          Criminal Appeals Presiding Judge                        OVER VOTES                            PRECINCT 4                                             01 
01120050001000034000016000015000003000000000000          Criminal Appeals Presiding Judge                        UNDER VOTES                           PRECINCT 1                                             01 
01120050002000031000016000013000002000000000000          Criminal Appeals Presiding Judge                        UNDER VOTES                           PRECINCT 2                                             01 
01120050003000043000017000025000001000000000000          Criminal Appeals Presiding Judge                        UNDER VOTES                           PRECINCT 3                                             01 
01120050004000036000018000016000002000000000000          Criminal Appeals Presiding Judge                        UNDER VOTES                           PRECINCT 4                                             01 
01130010001000080000026000051000003000000000000REP       Judge, Court of Criminal Appeals, Pl 7                  Barbara Parker Hervey                 PRECINCT 1                                             01 
01130010002000231000115000094000021000000000001REP       Judge, Court of Criminal Appeals, Pl 7                  Barbara Parker Hervey                 PRECINCT 2                                             01 
01130010003000166000050000106000010000000000000REP       Judge, Court of Criminal Appeals, Pl 7                  Barbara Parker Hervey                 PRECINCT 3                                             01 
01130010004000095000029000054000011000000000001REP       Judge, Court of Criminal Appeals, Pl 7                  Barbara Parker Hervey                 PRECINCT 4                                             01 
01130020001000012000005000005000002000000000000LIB       Judge, Court of Criminal Appeals, Pl 7                  Mark W. Bennett                       PRECINCT 1                                             01 
01130020002000029000021000006000002000000000000LIB       Judge, Court of Criminal Appeals, Pl 7                  Mark W. Bennett                       PRECINCT 2                                             01 
01130020003000028000014000012000002000000000000LIB       Judge, Court of Criminal Appeals, Pl 7                  Mark W. Bennett                       PRECINCT 3                                             01 
01130020004000019000011000008000000000000000000LIB       Judge, Court of Criminal Appeals, Pl 7                  Mark W. Bennett                       PRECINCT 4                                             01 
01130030001000000000000000000000000000000000000          Judge, Court of Criminal Appeals, Pl 7                  OVER VOTES                            PRECINCT 1                                             01 
01130030002000000000000000000000000000000000000          Judge, Court of Criminal Appeals, Pl 7                  OVER VOTES                            PRECINCT 2                                             01 
01130030003000000000000000000000000000000000000          Judge, Court of Criminal Appeals, Pl 7                  OVER VOTES                            PRECINCT 3                                             01 
01130030004000000000000000000000000000000000000          Judge, Court of Criminal Appeals, Pl 7                  OVER VOTES                            PRECINCT 4                                             01 
01130040001000061000032000021000008000000000000          Judge, Court of Criminal Appeals, Pl 7                  UNDER VOTES                           PRECINCT 1                                             01 
01130040002000052000031000019000002000000000000          Judge, Court of Criminal Appeals, Pl 7                  UNDER VOTES                           PRECINCT 2                                             01 
01130040003000055000023000031000001000000000000          Judge, Court of Criminal Appeals, Pl 7                  UNDER VOTES                           PRECINCT 3                                             01 
01130040004000057000026000026000005000000000000          Judge, Court of Criminal Appeals, Pl 7                  UNDER VOTES                           PRECINCT 4                                             01 
01140010001000078000027000048000003000000000000REP       Judge, Court of Criminal Appeals, Pl 8                  Elsa Alcala                           PRECINCT 1                                             01 
01140010002000225000113000092000019000000000001REP       Judge, Court of Criminal Appeals, Pl 8                  Elsa Alcala                           PRECINCT 2                                             01 
01140010003000165000051000104000010000000000000REP       Judge, Court of Criminal Appeals, Pl 8                  Elsa Alcala                           PRECINCT 3                                             01 
01140010004000091000030000049000011000000000001REP       Judge, Court of Criminal Appeals, Pl 8                  Elsa Alcala                           PRECINCT 4                                             01 
01140020001000013000004000007000002000000000000LIB       Judge, Court of Criminal Appeals, Pl 8                  William Bryan Strange, III            PRECINCT 1                                             01 
01140020002000032000023000005000004000000000000LIB       Judge, Court of Criminal Appeals, Pl 8                  William Bryan Strange, III            PRECINCT 2                                             01 
01140020003000029000014000013000002000000000000LIB       Judge, Court of Criminal Appeals, Pl 8                  William Bryan Strange, III            PRECINCT 3                                             01 
01140020004000023000011000012000000000000000000LIB       Judge, Court of Criminal Appeals, Pl 8                  William Bryan Strange, III            PRECINCT 4                                             01 
01140030001000000000000000000000000000000000000          Judge, Court of Criminal Appeals, Pl 8                  OVER VOTES                            PRECINCT 1                                             01 
01140030002000000000000000000000000000000000000          Judge, Court of Criminal Appeals, Pl 8                  OVER VOTES                            PRECINCT 2                                             01 
01140030003000000000000000000000000000000000000          Judge, Court of Criminal Appeals, Pl 8                  OVER VOTES                            PRECINCT 3                                             01 
01140030004000000000000000000000000000000000000          Judge, Court of Criminal Appeals, Pl 8                  OVER VOTES                            PRECINCT 4                                             01 
01140040001000062000032000022000008000000000000          Judge, Court of Criminal Appeals, Pl 8                  UNDER VOTES                           PRECINCT 1                                             01 
01140040002000055000031000022000002000000000000          Judge, Court of Criminal Appeals, Pl 8                  UNDER VOTES                           PRECINCT 2                                             01 
01140040003000055000022000032000001000000000000          Judge, Court of Criminal Appeals, Pl 8                  UNDER VOTES                           PRECINCT 3                                             01 
01140040004000057000025000027000005000000000000          Judge, Court of Criminal Appeals, Pl 8                  UNDER VOTES                           PRECINCT 4                                             01 
01150010001000070000021000046000003000000000000REP       Member, State BoE, District 1                           Carlos "Charlie" Garza                PRECINCT 1                                             01 
01150010002000224000113000088000023000000000000REP       Member, State BoE, District 1                           Carlos "Charlie" Garza                PRECINCT 2                                             01 
01150010003000159000043000105000011000000000000REP       Member, State BoE, District 1                           Carlos "Charlie" Garza                PRECINCT 3                                             01 
01150010004000090000025000056000009000000000000REP       Member, State BoE, District 1                           Carlos "Charlie" Garza                PRECINCT 4                                             01 
01150020001000049000028000015000006000000000000DEM       Member, State BoE, District 1                           Martha M. Dominguz                   PRECINCT 1                                             01 
01150020002000053000036000016000001000000000000DEM       Member, State BoE, District 1                           Martha M. Dominguz                   PRECINCT 2                                             01 
01150020003000044000023000020000001000000000000DEM       Member, State BoE, District 1                           Martha M. Dominguz                   PRECINCT 3                                             01 
01150020004000046000024000016000006000000000000DEM       Member, State BoE, District 1                           Martha M. Dominguz                   PRECINCT 4                                             01 
01150030001000000000000000000000000000000000000          Member, State BoE, District 1                           OVER VOTES                            PRECINCT 1                                             01 
01150030002000000000000000000000000000000000000          Member, State BoE, District 1                           OVER VOTES                            PRECINCT 2                                             01 
01150030003000000000000000000000000000000000000          Member, State BoE, District 1                           OVER VOTES                            PRECINCT 3                                             01 
01150030004000000000000000000000000000000000000          Member, State BoE, District 1                           OVER VOTES                            PRECINCT 4                                             01 
01150040001000034000014000016000004000000000000          Member, State BoE, District 1                           UNDER VOTES                           PRECINCT 1                                             01 
01150040002000035000018000015000001000000000001          Member, State BoE, District 1                           UNDER VOTES                           PRECINCT 2                                             01 
01150040003000046000021000024000001000000000000          Member, State BoE, District 1                           UNDER VOTES                           PRECINCT 3                                             01 
01150040004000034000017000016000001000000000000          Member, State BoE, District 1                           UNDER VOTES                           PRECINCT 4                                             01 
01160010001000067000019000045000003000000000000REP       State Senator, District 19                              Michael Berlanga                      PRECINCT 1                                             01 
01160010002000221000110000088000022000000000001REP       State Senator, District 19                              Michael Berlanga                      PRECINCT 2                                             01 
01160010003000161000047000104000010000000000000REP       State Senator, District 19                              Michael Berlanga                      PRECINCT 3                                             01 
01160010004000090000025000055000010000000000000REP       State Senator, District 19                              Michael Berlanga                      PRECINCT 4                                             01 
01160020001000056000030000019000007000000000000DEM       State Senator, District 19                              Carlos I. Uresti                      PRECINCT 1                                             01 
01160020002000063000041000021000001000000000000DEM       State Senator, District 19                              Carlos I. Uresti                      PRECINCT 2                                             01 
01160020003000053000024000027000002000000000000DEM       State Senator, District 19                              Carlos I. Uresti                      PRECINCT 3                                             01 
01160020004000048000023000020000005000000000000DEM       State Senator, District 19                              Carlos I. Uresti                      PRECINCT 4                                             01 
01160030001000000000000000000000000000000000000          State Senator, District 19                              OVER VOTES                            PRECINCT 1                                             01 
01160030002000000000000000000000000000000000000          State Senator, District 19                              OVER VOTES                            PRECINCT 2                                             01 
01160030003000000000000000000000000000000000000          State Senator, District 19                              OVER VOTES                            PRECINCT 3                                             01 
01160030004000000000000000000000000000000000000          State Senator, District 19                              OVER VOTES                            PRECINCT 4                                             01 
01160040001000030000014000013000003000000000000          State Senator, District 19                              UNDER VOTES                           PRECINCT 1                                             01 
01160040002000028000016000010000002000000000000          State Senator, District 19                              UNDER VOTES                           PRECINCT 2                                             01 
01160040003000035000016000018000001000000000000          State Senator, District 19                              UNDER VOTES                           PRECINCT 3                                             01 
01160040004000032000018000013000001000000000000          State Senator, District 19                              UNDER VOTES                           PRECINCT 4                                             01 
01170010001000079000022000054000003000000000000REP       State Representative, District 53                       Harvey Hilderbran                     PRECINCT 1                                             01 
01170010002000249000128000098000023000000000000REP       State Representative, District 53                       Harvey Hilderbran                     PRECINCT 2                                             01 
01170010003000178000052000115000011000000000000REP       State Representative, District 53                       Harvey Hilderbran                     PRECINCT 3                                             01 
01170010004000097000033000055000009000000000000REP       State Representative, District 53                       Harvey Hilderbran                     PRECINCT 4                                             01 
01170020001000000000000000000000000000000000000          State Representative, District 53                       OVER VOTES                            PRECINCT 1                                             01 
01170020002000000000000000000000000000000000000          State Representative, District 53                       OVER VOTES                            PRECINCT 2                                             01 
01170020003000000000000000000000000000000000000          State Representative, District 53                       OVER VOTES                            PRECINCT 3                                             01 
01170020004000000000000000000000000000000000000          State Representative, District 53                       OVER VOTES                            PRECINCT 4                                             01 
01170030001000074000041000023000010000000000000          State Representative, District 53                       UNDER VOTES                           PRECINCT 1                                             01 
01170030002000063000039000021000002000000000001          State Representative, District 53                       UNDER VOTES                           PRECINCT 2                                             01 
01170030003000071000035000034000002000000000000          State Representative, District 53                       UNDER VOTES                           PRECINCT 3                                             01 
01170030004000073000033000033000007000000000000          State Representative, District 53                       UNDER VOTES                           PRECINCT 4                                             01 
01180010001000074000021000050000003000000000000REP       4th Court of Appeals District, Place 2                  Marialyn Barnard                      PRECINCT 1                                             01 
01180010002000235000118000093000023000000000001REP       4th Court of Appeals District, Place 2                  Marialyn Barnard                      PRECINCT 2                                             01 
01180010003000168000051000107000010000000000000REP       4th Court of Appeals District, Place 2                  Marialyn Barnard                      PRECINCT 3                                             01 
01180010004000091000025000056000009000000000001REP       4th Court of Appeals District, Place 2                  Marialyn Barnard                      PRECINCT 4                                             01 
01180020001000049000028000014000007000000000000DEM       4th Court of Appeals District, Place 2                  Baldemar Garza                        PRECINCT 1                                             01 
01180020002000046000033000012000001000000000000DEM       4th Court of Appeals District, Place 2                  Baldemar Garza                        PRECINCT 2                                             01 
01180020003000038000020000016000002000000000000DEM       4th Court of Appeals District, Place 2                  Baldemar Garza                        PRECINCT 3                                             01 
01180020004000045000023000016000006000000000000DEM       4th Court of Appeals District, Place 2                  Baldemar Garza                        PRECINCT 4                                             01 
01180030001000000000000000000000000000000000000          4th Court of Appeals District, Place 2                  OVER VOTES                            PRECINCT 1                                             01 
01180030002000000000000000000000000000000000000          4th Court of Appeals District, Place 2                  OVER VOTES                            PRECINCT 2                                             01 
01180030003000000000000000000000000000000000000          4th Court of Appeals District, Place 2                  OVER VOTES                            PRECINCT 3                                             01 
01180030004000000000000000000000000000000000000          4th Court of Appeals District, Place 2                  OVER VOTES                            PRECINCT 4                                             01 
01180040001000030000014000013000003000000000000          4th Court of Appeals District, Place 2                  UNDER VOTES                           PRECINCT 1                                             01 
01180040002000031000016000014000001000000000000          4th Court of Appeals District, Place 2                  UNDER VOTES                           PRECINCT 2                                             01 
01180040003000043000016000026000001000000000000          4th Court of Appeals District, Place 2                  UNDER VOTES                           PRECINCT 3                                             01 
01180040004000035000018000016000001000000000000          4th Court of Appeals District, Place 2                  UNDER VOTES                           PRECINCT 4                                             01 
01190010001000074000022000049000003000000000000REP       4th Court of Appeals District, Place 3                  Rebecca Simmons                       PRECINCT 1                                             01 
01190010002000231000116000092000022000000000001REP       4th Court of Appeals District, Place 3                  Rebecca Simmons                       PRECINCT 2                                             01 
01190010003000166000047000109000010000000000000REP       4th Court of Appeals District, Place 3                  Rebecca Simmons                       PRECINCT 3                                             01 
01190010004000089000024000055000009000000000001REP       4th Court of Appeals District, Place 3                  Rebecca Simmons                       PRECINCT 4                                             01 
01190020001000050000028000015000007000000000000DEM       4th Court of Appeals District, Place 3                  Patricia Alvarez                      PRECINCT 1                                             01 
01190020002000047000033000013000001000000000000DEM       4th Court of Appeals District, Place 3                  Patricia Alvarez                      PRECINCT 2                                             01 
01190020003000042000023000017000002000000000000DEM       4th Court of Appeals District, Place 3                  Patricia Alvarez                      PRECINCT 3                                             01 
01190020004000046000025000016000005000000000000DEM       4th Court of Appeals District, Place 3                  Patricia Alvarez                      PRECINCT 4                                             01 
01190030001000000000000000000000000000000000000          4th Court of Appeals District, Place 3                  OVER VOTES                            PRECINCT 1                                             01 
01190030002000000000000000000000000000000000000          4th Court of Appeals District, Place 3                  OVER VOTES                            PRECINCT 2                                             01 
01190030003000000000000000000000000000000000000          4th Court of Appeals District, Place 3                  OVER VOTES                            PRECINCT 3                                             01 
01190030004000000000000000000000000000000000000          4th Court of Appeals District, Place 3                  OVER VOTES                            PRECINCT 4                                             01 
01190040001000029000013000013000003000000000000          4th Court of Appeals District, Place 3                  UNDER VOTES                           PRECINCT 1                                             01 
01190040002000034000018000014000002000000000000          4th Court of Appeals District, Place 3                  UNDER VOTES                           PRECINCT 2                                             01 
01190040003000041000017000023000001000000000000          4th Court of Appeals District, Place 3                  UNDER VOTES                           PRECINCT 3                                             01 
01190040004000036000017000017000002000000000000          4th Court of Appeals District, Place 3                  UNDER VOTES                           PRECINCT 4                                             01 
01200010001000072000021000048000003000000000000REP       4th Court of Appeals District, Place 4                  Steve Hilbig                          PRECINCT 1                                             01 
01200010002000225000114000090000021000000000000REP       4th Court of Appeals District, Place 4                  Steve Hilbig                          PRECINCT 2                                             01 
01200010003000168000046000111000011000000000000REP       4th Court of Appeals District, Place 4                  Steve Hilbig                          PRECINCT 3                                             01 
01200010004000086000025000051000009000000000001REP       4th Court of Appeals District, Place 4                  Steve Hilbig                          PRECINCT 4                                             01 
01200020001000050000029000014000007000000000000DEM       4th Court of Appeals District, Place 4                  Luz Elena Chapa                       PRECINCT 1                                             01 
01200020002000059000039000017000002000000000001DEM       4th Court of Appeals District, Place 4                  Luz Elena Chapa                       PRECINCT 2                                             01 
01200020003000041000022000018000001000000000000DEM       4th Court of Appeals District, Place 4                  Luz Elena Chapa                       PRECINCT 3                                             01 
01200020004000047000022000020000005000000000000DEM       4th Court of Appeals District, Place 4                  Luz Elena Chapa                       PRECINCT 4                                             01 
01200030001000000000000000000000000000000000000          4th Court of Appeals District, Place 4                  OVER VOTES                            PRECINCT 1                                             01 
01200030002000000000000000000000000000000000000          4th Court of Appeals District, Place 4                  OVER VOTES                            PRECINCT 2                                             01 
01200030003000000000000000000000000000000000000          4th Court of Appeals District, Place 4                  OVER VOTES                            PRECINCT 3                                             01 
01200030004000000000000000000000000000000000000          4th Court of Appeals District, Place 4                  OVER VOTES                            PRECINCT 4                                             01 
01200040001000031000013000015000003000000000000          4th Court of Appeals District, Place 4                  UNDER VOTES                           PRECINCT 1                                             01 
01200040002000028000014000012000002000000000000          4th Court of Appeals District, Place 4                  UNDER VOTES                           PRECINCT 2                                             01 
01200040003000040000019000020000001000000000000          4th Court of Appeals District, Place 4                  UNDER VOTES                           PRECINCT 3                                             01 
01200040004000038000019000017000002000000000000          4th Court of Appeals District, Place 4                  UNDER VOTES                           PRECINCT 4                                             01 
01210010001000067000019000045000003000000000000REP       4th Court of Appeals District, Place 5                  Karen Angelini                        PRECINCT 1                                             01 
01210010002000222000107000092000022000000000001REP       4th Court of Appeals District, Place 5                  Karen Angelini                        PRECINCT 2                                             01 
01210010003000162000043000108000011000000000000REP       4th Court of Appeals District, Place 5                  Karen Angelini                        PRECINCT 3                                             01 
01210010004000088000025000053000009000000000001REP       4th Court of Appeals District, Place 5                  Karen Angelini                        PRECINCT 4                                             01 
01210020001000053000030000016000007000000000000DEM       4th Court of Appeals District, Place 5                  David D. Towler                       PRECINCT 1                                             01 
01210020002000054000042000011000001000000000000DEM       4th Court of Appeals District, Place 5                  David D. Towler                       PRECINCT 2                                             01 
01210020003000042000025000016000001000000000000DEM       4th Court of Appeals District, Place 5                  David D. Towler                       PRECINCT 3                                             01 
01210020004000043000021000017000005000000000000DEM       4th Court of Appeals District, Place 5                  David D. Towler                       PRECINCT 4                                             01 
01210030001000000000000000000000000000000000000          4th Court of Appeals District, Place 5                  OVER VOTES                            PRECINCT 1                                             01 
01210030002000000000000000000000000000000000000          4th Court of Appeals District, Place 5                  OVER VOTES                            PRECINCT 2                                             01 
01210030003000000000000000000000000000000000000          4th Court of Appeals District, Place 5                  OVER VOTES                            PRECINCT 3                                             01 
01210030004000000000000000000000000000000000000          4th Court of Appeals District, Place 5                  OVER VOTES                            PRECINCT 4                                             01 
01210040001000033000014000016000003000000000000          4th Court of Appeals District, Place 5                  UNDER VOTES                           PRECINCT 1                                             01 
01210040002000036000018000016000002000000000000          4th Court of Appeals District, Place 5                  UNDER VOTES                           PRECINCT 2                                             01 
01210040003000045000019000025000001000000000000          4th Court of Appeals District, Place 5                  UNDER VOTES                           PRECINCT 3                                             01 
01210040004000040000020000018000002000000000000          4th Court of Appeals District, Place 5                  UNDER VOTES                           PRECINCT 4                                             01 
01220010001000071000020000048000003000000000000REP       4th Court of Appeals District, Place 7                  Phylis J. Speedlin                    PRECINCT 1                                             01 
01220010002000229000115000091000022000000000001REP       4th Court of Appeals District, Place 7                  Phylis J. Speedlin                    PRECINCT 2                                             01 
01220010003000165000045000109000011000000000000REP       4th Court of Appeals District, Place 7                  Phylis J. Speedlin                    PRECINCT 3                                             01 
01220010004000087000024000053000009000000000001REP       4th Court of Appeals District, Place 7                  Phylis J. Speedlin                    PRECINCT 4                                             01 
01220020001000049000028000014000007000000000000DEM       4th Court of Appeals District, Place 7                  Rebeca C. Martinez                    PRECINCT 1                                             01 
01220020002000046000033000012000001000000000000DEM       4th Court of Appeals District, Place 7                  Rebeca C. Martinez                    PRECINCT 2                                             01 
01220020003000042000024000017000001000000000000DEM       4th Court of Appeals District, Place 7                  Rebeca C. Martinez                    PRECINCT 3                                             01 
01220020004000045000024000015000006000000000000DEM       4th Court of Appeals District, Place 7                  Rebeca C. Martinez                    PRECINCT 4                                             01 
01220030001000000000000000000000000000000000000          4th Court of Appeals District, Place 7                  OVER VOTES                            PRECINCT 1                                             01 
01220030002000000000000000000000000000000000000          4th Court of Appeals District, Place 7                  OVER VOTES                            PRECINCT 2                                             01 
01220030003000000000000000000000000000000000000          4th Court of Appeals District, Place 7                  OVER VOTES                            PRECINCT 3                                             01 
01220030004000000000000000000000000000000000000          4th Court of Appeals District, Place 7                  OVER VOTES                            PRECINCT 4                                             01 
01220040001000033000015000015000003000000000000          4th Court of Appeals District, Place 7                  UNDER VOTES                           PRECINCT 1                                             01 
01220040002000037000019000016000002000000000000          4th Court of Appeals District, Place 7                  UNDER VOTES                           PRECINCT 2                                             01 
01220040003000042000018000023000001000000000000          4th Court of Appeals District, Place 7                  UNDER VOTES                           PRECINCT 3                                             01 
01220040004000039000018000020000001000000000000          4th Court of Appeals District, Place 7                  UNDER VOTES                           PRECINCT 4                                             01 
01230010001000077000023000051000003000000000000REP       District Attorney, 198th Judicial Dist                  Scott Monroe                          PRECINCT 1                                             01 
01230010002000245000127000097000021000000000000REP       District Attorney, 198th Judicial Dist                  Scott Monroe                          PRECINCT 2                                             01 
01230010003000176000052000113000011000000000000REP       District Attorney, 198th Judicial Dist                  Scott Monroe                          PRECINCT 3                                             01 
01230010004000103000035000057000011000000000000REP       District Attorney, 198th Judicial Dist                  Scott Monroe                          PRECINCT 4                                             01 
01230020001000000000000000000000000000000000000          District Attorney, 198th Judicial Dist                  OVER VOTES                            PRECINCT 1                                             01 
01230020002000000000000000000000000000000000000          District Attorney, 198th Judicial Dist                  OVER VOTES                            PRECINCT 2                                             01 
01230020003000000000000000000000000000000000000          District Attorney, 198th Judicial Dist                  OVER VOTES                            PRECINCT 3                                             01 
01230020004000000000000000000000000000000000000          District Attorney, 198th Judicial Dist                  OVER VOTES                            PRECINCT 4                                             01 
01230030001000076000040000026000010000000000000          District Attorney, 198th Judicial Dist                  UNDER VOTES                           PRECINCT 1                                             01 
01230030002000067000040000022000004000000000001          District Attorney, 198th Judicial Dist                  UNDER VOTES                           PRECINCT 2                                             01 
01230030003000073000035000036000002000000000000          District Attorney, 198th Judicial Dist                  UNDER VOTES                           PRECINCT 3                                             01 
01230030004000067000031000031000005000000000000          District Attorney, 198th Judicial Dist                  UNDER VOTES                           PRECINCT 4                                             01 
01240010001000096000037000052000007000000000000REP       County Attorney                                         Allen Ray Moody                       PRECINCT 1                                             01 
01240010002000252000129000103000020000000000000REP       County Attorney                                         Allen Ray Moody                       PRECINCT 2                                             01 
01240010003000188000060000116000012000000000000REP       County Attorney                                         Allen Ray Moody                       PRECINCT 3                                             01 
01240010004000123000049000063000011000000000000REP       County Attorney                                         Allen Ray Moody                       PRECINCT 4                                             01 
01240020001000000000000000000000000000000000000          County Attorney                                         OVER VOTES                            PRECINCT 1                                             01 
01240020002000000000000000000000000000000000000          County Attorney                                         OVER VOTES                            PRECINCT 2                                             01 
01240020003000000000000000000000000000000000000          County Attorney                                         OVER VOTES                            PRECINCT 3                                             01 
01240020004000000000000000000000000000000000000          County Attorney                                         OVER VOTES                            PRECINCT 4                                             01 
01240030001000057000026000025000006000000000000          County Attorney                                         UNDER VOTES                           PRECINCT 1                                             01 
01240030002000060000038000016000005000000000001          County Attorney                                         UNDER VOTES                           PRECINCT 2                                             01 
01240030003000061000027000033000001000000000000          County Attorney                                         UNDER VOTES                           PRECINCT 3                                             01 
01240030004000047000017000025000005000000000000          County Attorney                                         UNDER VOTES                           PRECINCT 4                                             01 
01250010001000099000040000054000005000000000000DEM       District and County Clerk,Unexpired Term                Olga Lydia Reyes                      PRECINCT 1                                             01 
01250010002000141000075000058000008000000000000DEM       District and County Clerk,Unexpired Term                Olga Lydia Reyes                      PRECINCT 2                                             01 
01250010003000120000040000075000005000000000000DEM       District and County Clerk,Unexpired Term                Olga Lydia Reyes                      PRECINCT 3                                             01 
01250010004000083000039000038000006000000000000DEM       District and County Clerk,Unexpired Term                Olga Lydia Reyes                      PRECINCT 4                                             01 
01250020001000000000000000000000000000000000000          District and County Clerk,Unexpired Term                OVER VOTES                            PRECINCT 1                                             01 
01250020002000000000000000000000000000000000000          District and County Clerk,Unexpired Term                OVER VOTES                            PRECINCT 2                                             01 
01250020003000000000000000000000000000000000000          District and County Clerk,Unexpired Term                OVER VOTES                            PRECINCT 3                                             01 
01250020004000000000000000000000000000000000000          District and County Clerk,Unexpired Term                OVER VOTES                            PRECINCT 4                                             01 
01250030001000054000023000023000008000000000000          District and County Clerk,Unexpired Term                UNDER VOTES                           PRECINCT 1                                             01 
01250030002000171000092000061000017000000000001          District and County Clerk,Unexpired Term                UNDER VOTES                           PRECINCT 2                                             01 
01250030003000128000046000074000008000000000000          District and County Clerk,Unexpired Term                UNDER VOTES                           PRECINCT 3                                             01 
01250030004000088000027000050000010000000000001          District and County Clerk,Unexpired Term                UNDER VOTES                           PRECINCT 4                                             01 
01260010001000094000033000058000003000000000000REP       Sheriff                                                 Pamela L. Elliott                     PRECINCT 1                                             01 
01260010002000265000140000102000023000000000000REP       Sheriff                                                 Pamela L. Elliott                     PRECINCT 2                                             01 
01260010003000196000064000119000013000000000000REP       Sheriff                                                 Pamela L. Elliott                     PRECINCT 3                                             01 
01260010004000122000046000064000012000000000000REP       Sheriff                                                 Pamela L. Elliott                     PRECINCT 4                                             01 
01260020001000000000000000000000000000000000000          Sheriff                                                 OVER VOTES                            PRECINCT 1                                             01 
01260020002000000000000000000000000000000000000          Sheriff                                                 OVER VOTES                            PRECINCT 2                                             01 
01260020003000000000000000000000000000000000000          Sheriff                                                 OVER VOTES                            PRECINCT 3                                             01 
01260020004000000000000000000000000000000000000          Sheriff                                                 OVER VOTES                            PRECINCT 4                                             01 
01260030001000059000030000019000010000000000000          Sheriff                                                 UNDER VOTES                           PRECINCT 1                                             01 
01260030002000047000027000017000002000000000001          Sheriff                                                 UNDER VOTES                           PRECINCT 2                                             01 
01260030003000053000023000030000000000000000000          Sheriff                                                 UNDER VOTES                           PRECINCT 3                                             01 
01260030004000048000020000024000004000000000000          Sheriff                                                 UNDER VOTES                           PRECINCT 4                                             01 
01270010001000090000036000052000002000000000000REP       County Tax Assessor-Collector                           Mark Bean                             PRECINCT 1                                             01 
01270010002000263000138000103000022000000000000REP       County Tax Assessor-Collector                           Mark Bean                             PRECINCT 2                                             01 
01270010003000193000066000114000013000000000000REP       County Tax Assessor-Collector                           Mark Bean                             PRECINCT 3                                             01 
01270010004000120000047000063000010000000000000REP       County Tax Assessor-Collector                           Mark Bean                             PRECINCT 4                                             01 
01270020001000000000000000000000000000000000000          County Tax Assessor-Collector                           OVER VOTES                            PRECINCT 1                                             01 
01270020002000000000000000000000000000000000000          County Tax Assessor-Collector                           OVER VOTES                            PRECINCT 2                                             01 
01270020003000000000000000000000000000000000000          County Tax Assessor-Collector                           OVER VOTES                            PRECINCT 3                                             01 
01270020004000000000000000000000000000000000000          County Tax Assessor-Collector                           OVER VOTES                            PRECINCT 4                                             01 
01270030001000063000027000025000011000000000000          County Tax Assessor-Collector                           UNDER VOTES                           PRECINCT 1                                             01 
01270030002000049000029000016000003000000000001          County Tax Assessor-Collector                           UNDER VOTES                           PRECINCT 2                                             01 
01270030003000056000021000035000000000000000000          County Tax Assessor-Collector                           UNDER VOTES                           PRECINCT 3                                             01 
01270030004000050000019000025000006000000000000          County Tax Assessor-Collector                           UNDER VOTES                           PRECINCT 4                                             01 
01280010001000089000036000042000011000000000000REPCOMM1  County Commissioner, Precinct No. 1                     William Epperson                      PRECINCT 1                                             01 
01280020001000063000026000035000002000000000000DEMCOMM1  County Commissioner, Precinct No. 1                     Terry Brooks                          PRECINCT 1                                             01 
01280030001000000000000000000000000000000000000   COMM1  County Commissioner, Precinct No. 1                     OVER VOTES                            PRECINCT 1                                             01 
01280040001000001000001000000000000000000000000   COMM1  County Commissioner, Precinct No. 1                     UNDER VOTES                           PRECINCT 1                                             01 
01290010003000185000058000114000013000000000000REPCOMM3  County Commissioner, Precinct No. 3                     Matt Fry                              PRECINCT 3                                             01 
01290020003000000000000000000000000000000000000   COMM3  County Commissioner, Precinct No. 3                     OVER VOTES                            PRECINCT 3                                             01 
01290030003000064000029000035000000000000000000   COMM3  County Commissioner, Precinct No. 3                     UNDER VOTES                           PRECINCT 3                                             01 
01300010001000083000027000053000003000000000000REP       County Constable                                        John Darrell Maxwell                  PRECINCT 1                                             01 
01300010002000258000136000099000023000000000000REP       County Constable                                        John Darrell Maxwell                  PRECINCT 2                                             01 
01300010003000179000055000112000012000000000000REP       County Constable                                        John Darrell Maxwell                  PRECINCT 3                                             01 
01300010004000104000040000055000009000000000000REP       County Constable                                        John Darrell Maxwell                  PRECINCT 4                                             01 
01300020001000000000000000000000000000000000000          County Constable                                        OVER VOTES                            PRECINCT 1                                             01 
01300020002000000000000000000000000000000000000          County Constable                                        OVER VOTES                            PRECINCT 2                                             01 
01300020003000000000000000000000000000000000000          County Constable                                        OVER VOTES                            PRECINCT 3                                             01 
01300020004000000000000000000000000000000000000          County Constable                                        OVER VOTES                            PRECINCT 4                                             01 
01300030001000070000036000024000010000000000000          County Constable                                        UNDER VOTES                           PRECINCT 1                                             01 
01300030002000054000031000020000002000000000001          County Constable                                        UNDER VOTES                           PRECINCT 2                                             01 
01300030003000070000032000037000001000000000000          County Constable                                        UNDER VOTES                           PRECINCT 3                                             01 
01300030004000066000026000033000007000000000000          County Constable                                        UNDER VOTES                           PRECINCT 4                                             01 
01310010001000045000012000031000002000000000000NON       Director, Position 1                                    Curry Campbell                        PRECINCT 1                                             01 
01310010002000080000052000027000001000000000000NON       Director, Position 1                                    Curry Campbell                        PRECINCT 2                                             01 
01310010003000084000029000053000002000000000000NON       Director, Position 1                                    Curry Campbell                        PRECINCT 3                                             01 
01310010004000032000016000014000002000000000000NON       Director, Position 1                                    Curry Campbell                        PRECINCT 4                                             01 
01310020001000073000032000032000009000000000000NON       Director, Position 1                                    Carl Hyde                             PRECINCT 1                                             01 
01310020002000154000086000059000009000000000000NON       Director, Position 1                                    Carl Hyde                             PRECINCT 2                                             01 
