01040010001000280REP       President and Vice-President                            Mitt Romney / Paul Ryan               PRECINCT 101                                           01 
01040010002000263REP       President and Vice-President                            Mitt Romney / Paul Ryan               PRECINCT 201                                           01 
01040010003000017REP       President and Vice-President                            Mitt Romney / Paul Ryan               PRECINCT 202                                           01 
01040010004000343REP       President and Vice-President                            Mitt Romney / Paul Ryan               PRECINCT 301                                           01 
01040010005000034REP       President and Vice-President                            Mitt Romney / Paul Ryan               PRECINCT 302                                           01 
01040010006000073REP       President and Vice-President                            Mitt Romney / Paul Ryan               PRECINCT 303                                           01 
01040010007000208REP       President and Vice-President                            Mitt Romney / Paul Ryan               PRECINCT 401                                           01 
01040010008000080REP       President and Vice-President                            Mitt Romney / Paul Ryan               PRECINCT 402                                           01 
01040020001000045DEM       President and Vice-President                            Barack Obama / Joe Biden              PRECINCT 101                                           01 
01040020002000054DEM       President and Vice-President                            Barack Obama / Joe Biden              PRECINCT 201                                           01 
01040020003000000DEM       President and Vice-President                            Barack Obama / Joe Biden              PRECINCT 202                                           01 
01040020004000033DEM       President and Vice-President                            Barack Obama / Joe Biden              PRECINCT 301                                           01 
01040020005000000DEM       President and Vice-President                            Barack Obama / Joe Biden              PRECINCT 302                                           01 
01040020006000013DEM       President and Vice-President                            Barack Obama / Joe Biden              PRECINCT 303                                           01 
01040020007000037DEM       President and Vice-President                            Barack Obama / Joe Biden              PRECINCT 401                                           01 
01040020008000010DEM       President and Vice-President                            Barack Obama / Joe Biden              PRECINCT 402                                           01 
01040030001000004LIB       President and Vice-President                            Gary Johnson / Jim Gray               PRECINCT 101                                           01 
01040030002000001LIB       President and Vice-President                            Gary Johnson / Jim Gray               PRECINCT 201                                           01 
01040030003000001LIB       President and Vice-President                            Gary Johnson / Jim Gray               PRECINCT 202                                           01 
01040030004000005LIB       President and Vice-President                            Gary Johnson / Jim Gray               PRECINCT 301                                           01 
01040030005000002LIB       President and Vice-President                            Gary Johnson / Jim Gray               PRECINCT 302                                           01 
01040030006000000LIB       President and Vice-President                            Gary Johnson / Jim Gray               PRECINCT 303                                           01 
01040030007000004LIB       President and Vice-President                            Gary Johnson / Jim Gray               PRECINCT 401                                           01 
01040030008000002LIB       President and Vice-President                            Gary Johnson / Jim Gray               PRECINCT 402                                           01 
01040040001000000GRN       President and Vice-President                            Jill Stein / Cheri Honkala            PRECINCT 101                                           01 
01040040002000000GRN       President and Vice-President                            Jill Stein / Cheri Honkala            PRECINCT 201                                           01 
01040040003000000GRN       President and Vice-President                            Jill Stein / Cheri Honkala            PRECINCT 202                                           01 
01040040004000000GRN       President and Vice-President                            Jill Stein / Cheri Honkala            PRECINCT 301                                           01 
01040040005000000GRN       President and Vice-President                            Jill Stein / Cheri Honkala            PRECINCT 302                                           01 
01040040006000000GRN       President and Vice-President                            Jill Stein / Cheri Honkala            PRECINCT 303                                           01 
01040040007000000GRN       President and Vice-President                            Jill Stein / Cheri Honkala            PRECINCT 401                                           01 
01040040008000000GRN       President and Vice-President                            Jill Stein / Cheri Honkala            PRECINCT 402                                           01 
01040050001000000NON       President and Vice-President                            WRITE-IN                              PRECINCT 101                                           01 
01040050002000000NON       President and Vice-President                            WRITE-IN                              PRECINCT 201                                           01 
01040050003000000NON       President and Vice-President                            WRITE-IN                              PRECINCT 202                                           01 
01040050004000000NON       President and Vice-President                            WRITE-IN                              PRECINCT 301                                           01 
01040050005000000NON       President and Vice-President                            WRITE-IN                              PRECINCT 302                                           01 
01040050006000000NON       President and Vice-President                            WRITE-IN                              PRECINCT 303                                           01 
01040050007000000NON       President and Vice-President                            WRITE-IN                              PRECINCT 401                                           01 
01040050008000000NON       President and Vice-President                            WRITE-IN                              PRECINCT 402                                           01 
01040060001000000          President and Vice-President                            OVER VOTES                            PRECINCT 101                                           01 
01040060002000001          President and Vice-President                            OVER VOTES                            PRECINCT 201                                           01 
01040060003000000          President and Vice-President                            OVER VOTES                            PRECINCT 202                                           01 
01040060004000000          President and Vice-President                            OVER VOTES                            PRECINCT 301                                           01 
01040060005000000          President and Vice-President                            OVER VOTES                            PRECINCT 302                                           01 
01040060006000000          President and Vice-President                            OVER VOTES                            PRECINCT 303                                           01 
01040060007000000          President and Vice-President                            OVER VOTES                            PRECINCT 401                                           01 
01040060008000000          President and Vice-President                            OVER VOTES                            PRECINCT 402                                           01 
01040070001000001          President and Vice-President                            UNDER VOTES                           PRECINCT 101                                           01 
01040070002000000          President and Vice-President                            UNDER VOTES                           PRECINCT 201                                           01 
01040070003000000          President and Vice-President                            UNDER VOTES                           PRECINCT 202                                           01 
01040070004000002          President and Vice-President                            UNDER VOTES                           PRECINCT 301                                           01 
01040070005000000          President and Vice-President                            UNDER VOTES                           PRECINCT 302                                           01 
01040070006000000          President and Vice-President                            UNDER VOTES                           PRECINCT 303                                           01 
01040070007000001          President and Vice-President                            UNDER VOTES                           PRECINCT 401                                           01 
01040070008000000          President and Vice-President                            UNDER VOTES                           PRECINCT 402                                           01 
01050010001000267REP       United States Senator                                   Ted Cruz                              PRECINCT 101                                           01 
01050010002000253REP       United States Senator                                   Ted Cruz                              PRECINCT 201                                           01 
01050010003000016REP       United States Senator                                   Ted Cruz                              PRECINCT 202                                           01 
01050010004000333REP       United States Senator                                   Ted Cruz                              PRECINCT 301                                           01 
01050010005000036REP       United States Senator                                   Ted Cruz                              PRECINCT 302                                           01 
01050010006000075REP       United States Senator                                   Ted Cruz                              PRECINCT 303                                           01 
01050010007000200REP       United States Senator                                   Ted Cruz                              PRECINCT 401                                           01 
01050010008000076REP       United States Senator                                   Ted Cruz                              PRECINCT 402                                           01 
01050020001000044DEM       United States Senator                                   Paul Sadler                           PRECINCT 101                                           01 
01050020002000047DEM       United States Senator                                   Paul Sadler                           PRECINCT 201                                           01 
01050020003000002DEM       United States Senator                                   Paul Sadler                           PRECINCT 202                                           01 
01050020004000033DEM       United States Senator                                   Paul Sadler                           PRECINCT 301                                           01 
01050020005000000DEM       United States Senator                                   Paul Sadler                           PRECINCT 302                                           01 
01050020006000011DEM       United States Senator                                   Paul Sadler                           PRECINCT 303                                           01 
01050020007000031DEM       United States Senator                                   Paul Sadler                           PRECINCT 401                                           01 
01050020008000011DEM       United States Senator                                   Paul Sadler                           PRECINCT 402                                           01 
01050030001000006LIB       United States Senator                                   John Jay Myers                        PRECINCT 101                                           01 
01050030002000003LIB       United States Senator                                   John Jay Myers                        PRECINCT 201                                           01 
01050030003000000LIB       United States Senator                                   John Jay Myers                        PRECINCT 202                                           01 
01050030004000006LIB       United States Senator                                   John Jay Myers                        PRECINCT 301                                           01 
01050030005000000LIB       United States Senator                                   John Jay Myers                        PRECINCT 302                                           01 
01050030006000000LIB       United States Senator                                   John Jay Myers                        PRECINCT 303                                           01 
01050030007000004LIB       United States Senator                                   John Jay Myers                        PRECINCT 401                                           01 
01050030008000002LIB       United States Senator                                   John Jay Myers                        PRECINCT 402                                           01 
01050040001000000GRN       United States Senator                                   David B. Collins                      PRECINCT 101                                           01 
01050040002000002GRN       United States Senator                                   David B. Collins                      PRECINCT 201                                           01 
01050040003000000GRN       United States Senator                                   David B. Collins                      PRECINCT 202                                           01 
01050040004000001GRN       United States Senator                                   David B. Collins                      PRECINCT 301                                           01 
01050040005000000GRN       United States Senator                                   David B. Collins                      PRECINCT 302                                           01 
01050040006000000GRN       United States Senator                                   David B. Collins                      PRECINCT 303                                           01 
01050040007000002GRN       United States Senator                                   David B. Collins                      PRECINCT 401                                           01 
01050040008000000GRN       United States Senator                                   David B. Collins                      PRECINCT 402                                           01 
01050050001000001          United States Senator                                   OVER VOTES                            PRECINCT 101                                           01 
01050050002000000          United States Senator                                   OVER VOTES                            PRECINCT 201                                           01 
01050050003000000          United States Senator                                   OVER VOTES                            PRECINCT 202                                           01 
01050050004000000          United States Senator                                   OVER VOTES                            PRECINCT 301                                           01 
01050050005000000          United States Senator                                   OVER VOTES                            PRECINCT 302                                           01 
01050050006000000          United States Senator                                   OVER VOTES                            PRECINCT 303                                           01 
01050050007000000          United States Senator                                   OVER VOTES                            PRECINCT 401                                           01 
01050050008000000          United States Senator                                   OVER VOTES                            PRECINCT 402                                           01 
01050060001000012          United States Senator                                   UNDER VOTES                           PRECINCT 101                                           01 
01050060002000014          United States Senator                                   UNDER VOTES                           PRECINCT 201                                           01 
01050060003000000          United States Senator                                   UNDER VOTES                           PRECINCT 202                                           01 
01050060004000010          United States Senator                                   UNDER VOTES                           PRECINCT 301                                           01 
01050060005000000          United States Senator                                   UNDER VOTES                           PRECINCT 302                                           01 
01050060006000000          United States Senator                                   UNDER VOTES                           PRECINCT 303                                           01 
01050060007000013          United States Senator                                   UNDER VOTES                           PRECINCT 401                                           01 
01050060008000003          United States Senator                                   UNDER VOTES                           PRECINCT 402                                           01 
01060010001000288REP       US Representative, District 13                          Mac Thornberry                        PRECINCT 101                                           01 
01060010002000278REP       US Representative, District 13                          Mac Thornberry                        PRECINCT 201                                           01 
01060010003000016REP       US Representative, District 13                          Mac Thornberry                        PRECINCT 202                                           01 
01060010004000352REP       US Representative, District 13                          Mac Thornberry                        PRECINCT 301                                           01 
01060010005000034REP       US Representative, District 13                          Mac Thornberry                        PRECINCT 302                                           01 
01060010006000077REP       US Representative, District 13                          Mac Thornberry                        PRECINCT 303                                           01 
01060010007000215REP       US Representative, District 13                          Mac Thornberry                        PRECINCT 401                                           01 
01060010008000084REP       US Representative, District 13                          Mac Thornberry                        PRECINCT 402                                           01 
01060020001000014LIB       US Representative, District 13                          John Robert Deek                      PRECINCT 101                                           01 
01060020002000014LIB       US Representative, District 13                          John Robert Deek                      PRECINCT 201                                           01 
01060020003000001LIB       US Representative, District 13                          John Robert Deek                      PRECINCT 202                                           01 
01060020004000013LIB       US Representative, District 13                          John Robert Deek                      PRECINCT 301                                           01 
01060020005000001LIB       US Representative, District 13                          John Robert Deek                      PRECINCT 302                                           01 
01060020006000000LIB       US Representative, District 13                          John Robert Deek                      PRECINCT 303                                           01 
01060020007000012LIB       US Representative, District 13                          John Robert Deek                      PRECINCT 401                                           01 
01060020008000002LIB       US Representative, District 13                          John Robert Deek                      PRECINCT 402                                           01 
01060030001000004GRN       US Representative, District 13                          Keith F. Houston                      PRECINCT 101                                           01 
01060030002000001GRN       US Representative, District 13                          Keith F. Houston                      PRECINCT 201                                           01 
01060030003000001GRN       US Representative, District 13                          Keith F. Houston                      PRECINCT 202                                           01 
01060030004000004GRN       US Representative, District 13                          Keith F. Houston                      PRECINCT 301                                           01 
01060030005000000GRN       US Representative, District 13                          Keith F. Houston                      PRECINCT 302                                           01 
01060030006000001GRN       US Representative, District 13                          Keith F. Houston                      PRECINCT 303                                           01 
01060030007000004GRN       US Representative, District 13                          Keith F. Houston                      PRECINCT 401                                           01 
01060030008000002GRN       US Representative, District 13                          Keith F. Houston                      PRECINCT 402                                           01 
01060040001000000          US Representative, District 13                          OVER VOTES                            PRECINCT 101                                           01 
01060040002000000          US Representative, District 13                          OVER VOTES                            PRECINCT 201                                           01 
01060040003000000          US Representative, District 13                          OVER VOTES                            PRECINCT 202                                           01 
01060040004000000          US Representative, District 13                          OVER VOTES                            PRECINCT 301                                           01 
01060040005000000          US Representative, District 13                          OVER VOTES                            PRECINCT 302                                           01 
01060040006000000          US Representative, District 13                          OVER VOTES                            PRECINCT 303                                           01 
01060040007000001          US Representative, District 13                          OVER VOTES                            PRECINCT 401                                           01 
01060040008000000          US Representative, District 13                          OVER VOTES                            PRECINCT 402                                           01 
01060050001000024          US Representative, District 13                          UNDER VOTES                           PRECINCT 101                                           01 
01060050002000026          US Representative, District 13                          UNDER VOTES                           PRECINCT 201                                           01 
01060050003000000          US Representative, District 13                          UNDER VOTES                           PRECINCT 202                                           01 
01060050004000014          US Representative, District 13                          UNDER VOTES                           PRECINCT 301                                           01 
01060050005000001          US Representative, District 13                          UNDER VOTES                           PRECINCT 302                                           01 
01060050006000008          US Representative, District 13                          UNDER VOTES                           PRECINCT 303                                           01 
01060050007000018          US Representative, District 13                          UNDER VOTES                           PRECINCT 401                                           01 
01060050008000004          US Representative, District 13                          UNDER VOTES                           PRECINCT 402                                           01 
01070010001000256REP       Railroad Commissioner                                   Christi Craddick                      PRECINCT 101                                           01 
01070010002000248REP       Railroad Commissioner                                   Christi Craddick                      PRECINCT 201                                           01 
01070010003000015REP       Railroad Commissioner                                   Christi Craddick                      PRECINCT 202                                           01 
01070010004000320REP       Railroad Commissioner                                   Christi Craddick                      PRECINCT 301                                           01 
01070010005000030REP       Railroad Commissioner                                   Christi Craddick                      PRECINCT 302                                           01 
01070010006000072REP       Railroad Commissioner                                   Christi Craddick                      PRECINCT 303                                           01 
01070010007000190REP       Railroad Commissioner                                   Christi Craddick                      PRECINCT 401                                           01 
01070010008000071REP       Railroad Commissioner                                   Christi Craddick                      PRECINCT 402                                           01 
01070020001000042DEM       Railroad Commissioner                                   Dale Henry                            PRECINCT 101                                           01 
01070020002000041DEM       Railroad Commissioner                                   Dale Henry                            PRECINCT 201                                           01 
01070020003000002DEM       Railroad Commissioner                                   Dale Henry                            PRECINCT 202                                           01 
01070020004000031DEM       Railroad Commissioner                                   Dale Henry                            PRECINCT 301                                           01 
01070020005000002DEM       Railroad Commissioner                                   Dale Henry                            PRECINCT 302                                           01 
01070020006000014DEM       Railroad Commissioner                                   Dale Henry                            PRECINCT 303                                           01 
01070020007000030DEM       Railroad Commissioner                                   Dale Henry                            PRECINCT 401                                           01 
01070020008000010DEM       Railroad Commissioner                                   Dale Henry                            PRECINCT 402                                           01 
01070030001000006LIB       Railroad Commissioner                                   Vivekananda (Vik) Wall                PRECINCT 101                                           01 
01070030002000001LIB       Railroad Commissioner                                   Vivekananda (Vik) Wall                PRECINCT 201                                           01 
01070030003000000LIB       Railroad Commissioner                                   Vivekananda (Vik) Wall                PRECINCT 202                                           01 
01070030004000007LIB       Railroad Commissioner                                   Vivekananda (Vik) Wall                PRECINCT 301                                           01 
01070030005000001LIB       Railroad Commissioner                                   Vivekananda (Vik) Wall                PRECINCT 302                                           01 
01070030006000000LIB       Railroad Commissioner                                   Vivekananda (Vik) Wall                PRECINCT 303                                           01 
01070030007000008LIB       Railroad Commissioner                                   Vivekananda (Vik) Wall                PRECINCT 401                                           01 
01070030008000001LIB       Railroad Commissioner                                   Vivekananda (Vik) Wall                PRECINCT 402                                           01 
01070040001000003GRN       Railroad Commissioner                                   Chris Kennedy                         PRECINCT 101                                           01 
01070040002000006GRN       Railroad Commissioner                                   Chris Kennedy                         PRECINCT 201                                           01 
01070040003000000GRN       Railroad Commissioner                                   Chris Kennedy                         PRECINCT 202                                           01 
01070040004000006GRN       Railroad Commissioner                                   Chris Kennedy                         PRECINCT 301                                           01 
01070040005000001GRN       Railroad Commissioner                                   Chris Kennedy                         PRECINCT 302                                           01 
01070040006000000GRN       Railroad Commissioner                                   Chris Kennedy                         PRECINCT 303                                           01 
01070040007000005GRN       Railroad Commissioner                                   Chris Kennedy                         PRECINCT 401                                           01 
01070040008000001GRN       Railroad Commissioner                                   Chris Kennedy                         PRECINCT 402                                           01 
01070050001000000          Railroad Commissioner                                   OVER VOTES                            PRECINCT 101                                           01 
01070050002000000          Railroad Commissioner                                   OVER VOTES                            PRECINCT 201                                           01 
01070050003000000          Railroad Commissioner                                   OVER VOTES                            PRECINCT 202                                           01 
01070050004000000          Railroad Commissioner                                   OVER VOTES                            PRECINCT 301                                           01 
01070050005000000          Railroad Commissioner                                   OVER VOTES                            PRECINCT 302                                           01 
01070050006000000          Railroad Commissioner                                   OVER VOTES                            PRECINCT 303                                           01 
01070050007000000          Railroad Commissioner                                   OVER VOTES                            PRECINCT 401                                           01 
01070050008000000          Railroad Commissioner                                   OVER VOTES                            PRECINCT 402                                           01 
01070060001000023          Railroad Commissioner                                   UNDER VOTES                           PRECINCT 101                                           01 
01070060002000023          Railroad Commissioner                                   UNDER VOTES                           PRECINCT 201                                           01 
01070060003000001          Railroad Commissioner                                   UNDER VOTES                           PRECINCT 202                                           01 
01070060004000019          Railroad Commissioner                                   UNDER VOTES                           PRECINCT 301                                           01 
01070060005000002          Railroad Commissioner                                   UNDER VOTES                           PRECINCT 302                                           01 
01070060006000000          Railroad Commissioner                                   UNDER VOTES                           PRECINCT 303                                           01 
01070060007000017          Railroad Commissioner                                   UNDER VOTES                           PRECINCT 401                                           01 
01070060008000009          Railroad Commissioner                                   UNDER VOTES                           PRECINCT 402                                           01 
01080010001000252REP       Railroad Commissioner, Unexpired Term                   Barry Smitherman                      PRECINCT 101                                           01 
01080010002000237REP       Railroad Commissioner, Unexpired Term                   Barry Smitherman                      PRECINCT 201                                           01 
01080010003000013REP       Railroad Commissioner, Unexpired Term                   Barry Smitherman                      PRECINCT 202                                           01 
01080010004000307REP       Railroad Commissioner, Unexpired Term                   Barry Smitherman                      PRECINCT 301                                           01 
01080010005000032REP       Railroad Commissioner, Unexpired Term                   Barry Smitherman                      PRECINCT 302                                           01 
01080010006000072REP       Railroad Commissioner, Unexpired Term                   Barry Smitherman                      PRECINCT 303                                           01 
01080010007000190REP       Railroad Commissioner, Unexpired Term                   Barry Smitherman                      PRECINCT 401                                           01 
01080010008000073REP       Railroad Commissioner, Unexpired Term                   Barry Smitherman                      PRECINCT 402                                           01 
01080020001000028LIB       Railroad Commissioner, Unexpired Term                   Jaime O. Perez                        PRECINCT 101                                           01 
01080020002000023LIB       Railroad Commissioner, Unexpired Term                   Jaime O. Perez                        PRECINCT 201                                           01 
01080020003000001LIB       Railroad Commissioner, Unexpired Term                   Jaime O. Perez                        PRECINCT 202                                           01 
01080020004000020LIB       Railroad Commissioner, Unexpired Term                   Jaime O. Perez                        PRECINCT 301                                           01 
01080020005000001LIB       Railroad Commissioner, Unexpired Term                   Jaime O. Perez                        PRECINCT 302                                           01 
01080020006000001LIB       Railroad Commissioner, Unexpired Term                   Jaime O. Perez                        PRECINCT 303                                           01 
01080020007000014LIB       Railroad Commissioner, Unexpired Term                   Jaime O. Perez                        PRECINCT 401                                           01 
01080020008000005LIB       Railroad Commissioner, Unexpired Term                   Jaime O. Perez                        PRECINCT 402                                           01 
01080030001000004GRN       Railroad Commissioner, Unexpired Term                   Josh Wendel                           PRECINCT 101                                           01 
01080030002000004GRN       Railroad Commissioner, Unexpired Term                   Josh Wendel                           PRECINCT 201                                           01 
01080030003000002GRN       Railroad Commissioner, Unexpired Term                   Josh Wendel                           PRECINCT 202                                           01 
01080030004000010GRN       Railroad Commissioner, Unexpired Term                   Josh Wendel                           PRECINCT 301                                           01 
01080030005000000GRN       Railroad Commissioner, Unexpired Term                   Josh Wendel                           PRECINCT 302                                           01 
01080030006000002GRN       Railroad Commissioner, Unexpired Term                   Josh Wendel                           PRECINCT 303                                           01 
01080030007000008GRN       Railroad Commissioner, Unexpired Term                   Josh Wendel                           PRECINCT 401                                           01 
01080030008000002GRN       Railroad Commissioner, Unexpired Term                   Josh Wendel                           PRECINCT 402                                           01 
01080040001000000          Railroad Commissioner, Unexpired Term                   OVER VOTES                            PRECINCT 101                                           01 
01080040002000000          Railroad Commissioner, Unexpired Term                   OVER VOTES                            PRECINCT 201                                           01 
01080040003000000          Railroad Commissioner, Unexpired Term                   OVER VOTES                            PRECINCT 202                                           01 
01080040004000000          Railroad Commissioner, Unexpired Term                   OVER VOTES                            PRECINCT 301                                           01 
01080040005000000          Railroad Commissioner, Unexpired Term                   OVER VOTES                            PRECINCT 302                                           01 
01080040006000000          Railroad Commissioner, Unexpired Term                   OVER VOTES                            PRECINCT 303                                           01 
01080040007000000          Railroad Commissioner, Unexpired Term                   OVER VOTES                            PRECINCT 401                                           01 
01080040008000000          Railroad Commissioner, Unexpired Term                   OVER VOTES                            PRECINCT 402                                           01 
01080050001000046          Railroad Commissioner, Unexpired Term                   UNDER VOTES                           PRECINCT 101                                           01 
01080050002000055          Railroad Commissioner, Unexpired Term                   UNDER VOTES                           PRECINCT 201                                           01 
01080050003000002          Railroad Commissioner, Unexpired Term                   UNDER VOTES                           PRECINCT 202                                           01 
01080050004000046          Railroad Commissioner, Unexpired Term                   UNDER VOTES                           PRECINCT 301                                           01 
01080050005000003          Railroad Commissioner, Unexpired Term                   UNDER VOTES                           PRECINCT 302                                           01 
01080050006000011          Railroad Commissioner, Unexpired Term                   UNDER VOTES                           PRECINCT 303                                           01 
01080050007000038          Railroad Commissioner, Unexpired Term                   UNDER VOTES                           PRECINCT 401                                           01 
01080050008000012          Railroad Commissioner, Unexpired Term                   UNDER VOTES                           PRECINCT 402                                           01 
01090010001000267REP       Justice, Supreme Court, Place 2                         Don Willett                           PRECINCT 101                                           01 
01090010002000246REP       Justice, Supreme Court, Place 2                         Don Willett                           PRECINCT 201                                           01 
01090010003000014REP       Justice, Supreme Court, Place 2                         Don Willett                           PRECINCT 202                                           01 
01090010004000309REP       Justice, Supreme Court, Place 2                         Don Willett                           PRECINCT 301                                           01 
01090010005000033REP       Justice, Supreme Court, Place 2                         Don Willett                           PRECINCT 302                                           01 
01090010006000074REP       Justice, Supreme Court, Place 2                         Don Willett                           PRECINCT 303                                           01 
01090010007000193REP       Justice, Supreme Court, Place 2                         Don Willett                           PRECINCT 401                                           01 
01090010008000073REP       Justice, Supreme Court, Place 2                         Don Willett                           PRECINCT 402                                           01 
01090020001000014LIB       Justice, Supreme Court, Place 2                         RS Roberto Koelsch                    PRECINCT 101                                           01 
01090020002000021LIB       Justice, Supreme Court, Place 2                         RS Roberto Koelsch                    PRECINCT 201                                           01 
01090020003000002LIB       Justice, Supreme Court, Place 2                         RS Roberto Koelsch                    PRECINCT 202                                           01 
01090020004000022LIB       Justice, Supreme Court, Place 2                         RS Roberto Koelsch                    PRECINCT 301                                           01 
01090020005000000LIB       Justice, Supreme Court, Place 2                         RS Roberto Koelsch                    PRECINCT 302                                           01 
01090020006000002LIB       Justice, Supreme Court, Place 2                         RS Roberto Koelsch                    PRECINCT 303                                           01 
01090020007000017LIB       Justice, Supreme Court, Place 2                         RS Roberto Koelsch                    PRECINCT 401                                           01 
01090020008000007LIB       Justice, Supreme Court, Place 2                         RS Roberto Koelsch                    PRECINCT 402                                           01 
01090030001000000          Justice, Supreme Court, Place 2                         OVER VOTES                            PRECINCT 101                                           01 
01090030002000000          Justice, Supreme Court, Place 2                         OVER VOTES                            PRECINCT 201                                           01 
01090030003000000          Justice, Supreme Court, Place 2                         OVER VOTES                            PRECINCT 202                                           01 
01090030004000000          Justice, Supreme Court, Place 2                         OVER VOTES                            PRECINCT 301                                           01 
01090030005000000          Justice, Supreme Court, Place 2                         OVER VOTES                            PRECINCT 302                                           01 
01090030006000000          Justice, Supreme Court, Place 2                         OVER VOTES                            PRECINCT 303                                           01 
01090030007000000          Justice, Supreme Court, Place 2                         OVER VOTES                            PRECINCT 401                                           01 
01090030008000000          Justice, Supreme Court, Place 2                         OVER VOTES                            PRECINCT 402                                           01 
01090040001000049          Justice, Supreme Court, Place 2                         UNDER VOTES                           PRECINCT 101                                           01 
01090040002000052          Justice, Supreme Court, Place 2                         UNDER VOTES                           PRECINCT 201                                           01 
01090040003000002          Justice, Supreme Court, Place 2                         UNDER VOTES                           PRECINCT 202                                           01 
01090040004000052          Justice, Supreme Court, Place 2                         UNDER VOTES                           PRECINCT 301                                           01 
01090040005000003          Justice, Supreme Court, Place 2                         UNDER VOTES                           PRECINCT 302                                           01 
01090040006000010          Justice, Supreme Court, Place 2                         UNDER VOTES                           PRECINCT 303                                           01 
01090040007000040          Justice, Supreme Court, Place 2                         UNDER VOTES                           PRECINCT 401                                           01 
01090040008000012          Justice, Supreme Court, Place 2                         UNDER VOTES                           PRECINCT 402                                           01 
01100010001000252REP       Justice, Supreme Court, Place 4                         John Devine                           PRECINCT 101                                           01 
01100010002000237REP       Justice, Supreme Court, Place 4                         John Devine                           PRECINCT 201                                           01 
01100010003000014REP       Justice, Supreme Court, Place 4                         John Devine                           PRECINCT 202                                           01 
01100010004000309REP       Justice, Supreme Court, Place 4                         John Devine                           PRECINCT 301                                           01 
01100010005000028REP       Justice, Supreme Court, Place 4                         John Devine                           PRECINCT 302                                           01 
01100010006000073REP       Justice, Supreme Court, Place 4                         John Devine                           PRECINCT 303                                           01 
01100010007000183REP       Justice, Supreme Court, Place 4                         John Devine                           PRECINCT 401                                           01 
01100010008000070REP       Justice, Supreme Court, Place 4                         John Devine                           PRECINCT 402                                           01 
01100020001000024LIB       Justice, Supreme Court, Place 4                         Tom Oxford                            PRECINCT 101                                           01 
01100020002000016LIB       Justice, Supreme Court, Place 4                         Tom Oxford                            PRECINCT 201                                           01 
01100020003000001LIB       Justice, Supreme Court, Place 4                         Tom Oxford                            PRECINCT 202                                           01 
01100020004000017LIB       Justice, Supreme Court, Place 4                         Tom Oxford                            PRECINCT 301                                           01 
01100020005000004LIB       Justice, Supreme Court, Place 4                         Tom Oxford                            PRECINCT 302                                           01 
01100020006000001LIB       Justice, Supreme Court, Place 4                         Tom Oxford                            PRECINCT 303                                           01 
01100020007000020LIB       Justice, Supreme Court, Place 4                         Tom Oxford                            PRECINCT 401                                           01 
01100020008000006LIB       Justice, Supreme Court, Place 4                         Tom Oxford                            PRECINCT 402                                           01 
01100030001000006GRN       Justice, Supreme Court, Place 4                         Charles E. Waterbury                  PRECINCT 101                                           01 
01100030002000011GRN       Justice, Supreme Court, Place 4                         Charles E. Waterbury                  PRECINCT 201                                           01 
01100030003000001GRN       Justice, Supreme Court, Place 4                         Charles E. Waterbury                  PRECINCT 202                                           01 
01100030004000011GRN       Justice, Supreme Court, Place 4                         Charles E. Waterbury                  PRECINCT 301                                           01 
01100030005000001GRN       Justice, Supreme Court, Place 4                         Charles E. Waterbury                  PRECINCT 302                                           01 
01100030006000001GRN       Justice, Supreme Court, Place 4                         Charles E. Waterbury                  PRECINCT 303                                           01 
01100030007000008GRN       Justice, Supreme Court, Place 4                         Charles E. Waterbury                  PRECINCT 401                                           01 
01100030008000003GRN       Justice, Supreme Court, Place 4                         Charles E. Waterbury                  PRECINCT 402                                           01 
01100040001000000          Justice, Supreme Court, Place 4                         OVER VOTES                            PRECINCT 101                                           01 
01100040002000000          Justice, Supreme Court, Place 4                         OVER VOTES                            PRECINCT 201                                           01 
01100040003000000          Justice, Supreme Court, Place 4                         OVER VOTES                            PRECINCT 202                                           01 
01100040004000000          Justice, Supreme Court, Place 4                         OVER VOTES                            PRECINCT 301                                           01 
01100040005000000          Justice, Supreme Court, Place 4                         OVER VOTES                            PRECINCT 302                                           01 
01100040006000000          Justice, Supreme Court, Place 4                         OVER VOTES                            PRECINCT 303                                           01 
01100040007000001          Justice, Supreme Court, Place 4                         OVER VOTES                            PRECINCT 401                                           01 
01100040008000000          Justice, Supreme Court, Place 4                         OVER VOTES                            PRECINCT 402                                           01 
01100050001000048          Justice, Supreme Court, Place 4                         UNDER VOTES                           PRECINCT 101                                           01 
01100050002000055          Justice, Supreme Court, Place 4                         UNDER VOTES                           PRECINCT 201                                           01 
01100050003000002          Justice, Supreme Court, Place 4                         UNDER VOTES                           PRECINCT 202                                           01 
01100050004000046          Justice, Supreme Court, Place 4                         UNDER VOTES                           PRECINCT 301                                           01 
01100050005000003          Justice, Supreme Court, Place 4                         UNDER VOTES                           PRECINCT 302                                           01 
01100050006000011          Justice, Supreme Court, Place 4                         UNDER VOTES                           PRECINCT 303                                           01 
01100050007000038          Justice, Supreme Court, Place 4                         UNDER VOTES                           PRECINCT 401                                           01 
01100050008000013          Justice, Supreme Court, Place 4                         UNDER VOTES                           PRECINCT 402                                           01 
01110010001000231REP       Justice, Supreme Court, Place 6                         Nathan Hecht                          PRECINCT 101                                           01 
01110010002000214REP       Justice, Supreme Court, Place 6                         Nathan Hecht                          PRECINCT 201                                           01 
01110010003000012REP       Justice, Supreme Court, Place 6                         Nathan Hecht                          PRECINCT 202                                           01 
01110010004000291REP       Justice, Supreme Court, Place 6                         Nathan Hecht                          PRECINCT 301                                           01 
01110010005000032REP       Justice, Supreme Court, Place 6                         Nathan Hecht                          PRECINCT 302                                           01 
01110010006000069REP       Justice, Supreme Court, Place 6                         Nathan Hecht                          PRECINCT 303                                           01 
01110010007000174REP       Justice, Supreme Court, Place 6                         Nathan Hecht                          PRECINCT 401                                           01 
01110010008000065REP       Justice, Supreme Court, Place 6                         Nathan Hecht                          PRECINCT 402                                           01 
01110020001000045DEM       Justice, Supreme Court, Place 6                         Michele Petty                         PRECINCT 101                                           01 
01110020002000049DEM       Justice, Supreme Court, Place 6                         Michele Petty                         PRECINCT 201                                           01 
01110020003000003DEM       Justice, Supreme Court, Place 6                         Michele Petty                         PRECINCT 202                                           01 
01110020004000032DEM       Justice, Supreme Court, Place 6                         Michele Petty                         PRECINCT 301                                           01 
01110020005000001DEM       Justice, Supreme Court, Place 6                         Michele Petty                         PRECINCT 302                                           01 
01110020006000011DEM       Justice, Supreme Court, Place 6                         Michele Petty                         PRECINCT 303                                           01 
01110020007000034DEM       Justice, Supreme Court, Place 6                         Michele Petty                         PRECINCT 401                                           01 
01110020008000009DEM       Justice, Supreme Court, Place 6                         Michele Petty                         PRECINCT 402                                           01 
01110030001000013LIB       Justice, Supreme Court, Place 6                         Mark Ash                              PRECINCT 101                                           01 
01110030002000008LIB       Justice, Supreme Court, Place 6                         Mark Ash                              PRECINCT 201                                           01 
01110030003000000LIB       Justice, Supreme Court, Place 6                         Mark Ash                              PRECINCT 202                                           01 
01110030004000011LIB       Justice, Supreme Court, Place 6                         Mark Ash                              PRECINCT 301                                           01 
01110030005000001LIB       Justice, Supreme Court, Place 6                         Mark Ash                              PRECINCT 302                                           01 
01110030006000000LIB       Justice, Supreme Court, Place 6                         Mark Ash                              PRECINCT 303                                           01 
01110030007000006LIB       Justice, Supreme Court, Place 6                         Mark Ash                              PRECINCT 401                                           01 
01110030008000004LIB       Justice, Supreme Court, Place 6                         Mark Ash                              PRECINCT 402                                           01 
01110040001000012GRN       Justice, Supreme Court, Place 6                         Jim Chisholm                          PRECINCT 101                                           01 
01110040002000014GRN       Justice, Supreme Court, Place 6                         Jim Chisholm                          PRECINCT 201                                           01 
01110040003000001GRN       Justice, Supreme Court, Place 6                         Jim Chisholm                          PRECINCT 202                                           01 
01110040004000012GRN       Justice, Supreme Court, Place 6                         Jim Chisholm                          PRECINCT 301                                           01 
01110040005000000GRN       Justice, Supreme Court, Place 6                         Jim Chisholm                          PRECINCT 302                                           01 
01110040006000002GRN       Justice, Supreme Court, Place 6                         Jim Chisholm                          PRECINCT 303                                           01 
01110040007000012GRN       Justice, Supreme Court, Place 6                         Jim Chisholm                          PRECINCT 401                                           01 
01110040008000003GRN       Justice, Supreme Court, Place 6                         Jim Chisholm                          PRECINCT 402                                           01 
01110050001000000          Justice, Supreme Court, Place 6                         OVER VOTES                            PRECINCT 101                                           01 
01110050002000000          Justice, Supreme Court, Place 6                         OVER VOTES                            PRECINCT 201                                           01 
01110050003000000          Justice, Supreme Court, Place 6                         OVER VOTES                            PRECINCT 202                                           01 
01110050004000000          Justice, Supreme Court, Place 6                         OVER VOTES                            PRECINCT 301                                           01 
01110050005000000          Justice, Supreme Court, Place 6                         OVER VOTES                            PRECINCT 302                                           01 
01110050006000000          Justice, Supreme Court, Place 6                         OVER VOTES                            PRECINCT 303                                           01 
01110050007000001          Justice, Supreme Court, Place 6                         OVER VOTES                            PRECINCT 401                                           01 
01110050008000000          Justice, Supreme Court, Place 6                         OVER VOTES                            PRECINCT 402                                           01 
01110060001000029          Justice, Supreme Court, Place 6                         UNDER VOTES                           PRECINCT 101                                           01 
01110060002000034          Justice, Supreme Court, Place 6                         UNDER VOTES                           PRECINCT 201                                           01 
01110060003000002          Justice, Supreme Court, Place 6                         UNDER VOTES                           PRECINCT 202                                           01 
01110060004000037          Justice, Supreme Court, Place 6                         UNDER VOTES                           PRECINCT 301                                           01 
01110060005000002          Justice, Supreme Court, Place 6                         UNDER VOTES                           PRECINCT 302                                           01 
01110060006000004          Justice, Supreme Court, Place 6                         UNDER VOTES                           PRECINCT 303                                           01 
01110060007000023          Justice, Supreme Court, Place 6                         UNDER VOTES                           PRECINCT 401                                           01 
01110060008000011          Justice, Supreme Court, Place 6                         UNDER VOTES                           PRECINCT 402                                           01 
01120010001000244REP       Presiding Judge, CT of Criminal Appeals                 Sharon  Keller                        PRECINCT 101                                           01 
01120010002000228REP       Presiding Judge, CT of Criminal Appeals                 Sharon  Keller                        PRECINCT 201                                           01 
01120010003000013REP       Presiding Judge, CT of Criminal Appeals                 Sharon  Keller                        PRECINCT 202                                           01 
01120010004000296REP       Presiding Judge, CT of Criminal Appeals                 Sharon  Keller                        PRECINCT 301                                           01 
01120010005000030REP       Presiding Judge, CT of Criminal Appeals                 Sharon  Keller                        PRECINCT 302                                           01 
01120010006000068REP       Presiding Judge, CT of Criminal Appeals                 Sharon  Keller                        PRECINCT 303                                           01 
01120010007000187REP       Presiding Judge, CT of Criminal Appeals                 Sharon  Keller                        PRECINCT 401                                           01 
01120010008000070REP       Presiding Judge, CT of Criminal Appeals                 Sharon  Keller                        PRECINCT 402                                           01 
01120020001000042DEM       Presiding Judge, CT of Criminal Appeals                 Keith Hampton                         PRECINCT 101                                           01 
01120020002000044DEM       Presiding Judge, CT of Criminal Appeals                 Keith Hampton                         PRECINCT 201                                           01 
01120020003000003DEM       Presiding Judge, CT of Criminal Appeals                 Keith Hampton                         PRECINCT 202                                           01 
01120020004000034DEM       Presiding Judge, CT of Criminal Appeals                 Keith Hampton                         PRECINCT 301                                           01 
01120020005000002DEM       Presiding Judge, CT of Criminal Appeals                 Keith Hampton                         PRECINCT 302                                           01 
01120020006000015DEM       Presiding Judge, CT of Criminal Appeals                 Keith Hampton                         PRECINCT 303                                           01 
01120020007000031DEM       Presiding Judge, CT of Criminal Appeals                 Keith Hampton                         PRECINCT 401                                           01 
01120020008000008DEM       Presiding Judge, CT of Criminal Appeals                 Keith Hampton                         PRECINCT 402                                           01 
01120030001000013LIB       Presiding Judge, CT of Criminal Appeals                 Lance Stott                           PRECINCT 101                                           01 
01120030002000010LIB       Presiding Judge, CT of Criminal Appeals                 Lance Stott                           PRECINCT 201                                           01 
01120030003000000LIB       Presiding Judge, CT of Criminal Appeals                 Lance Stott                           PRECINCT 202                                           01 
01120030004000011LIB       Presiding Judge, CT of Criminal Appeals                 Lance Stott                           PRECINCT 301                                           01 
01120030005000001LIB       Presiding Judge, CT of Criminal Appeals                 Lance Stott                           PRECINCT 302                                           01 
01120030006000000LIB       Presiding Judge, CT of Criminal Appeals                 Lance Stott                           PRECINCT 303                                           01 
01120030007000008LIB       Presiding Judge, CT of Criminal Appeals                 Lance Stott                           PRECINCT 401                                           01 
01120030008000003LIB       Presiding Judge, CT of Criminal Appeals                 Lance Stott                           PRECINCT 402                                           01 
01120040001000000          Presiding Judge, CT of Criminal Appeals                 OVER VOTES                            PRECINCT 101                                           01 
01120040002000000          Presiding Judge, CT of Criminal Appeals                 OVER VOTES                            PRECINCT 201                                           01 
01120040003000000          Presiding Judge, CT of Criminal Appeals                 OVER VOTES                            PRECINCT 202                                           01 
01120040004000000          Presiding Judge, CT of Criminal Appeals                 OVER VOTES                            PRECINCT 301                                           01 
01120040005000000          Presiding Judge, CT of Criminal Appeals                 OVER VOTES                            PRECINCT 302                                           01 
01120040006000000          Presiding Judge, CT of Criminal Appeals                 OVER VOTES                            PRECINCT 303                                           01 
01120040007000001          Presiding Judge, CT of Criminal Appeals                 OVER VOTES                            PRECINCT 401                                           01 
01120040008000000          Presiding Judge, CT of Criminal Appeals                 OVER VOTES                            PRECINCT 402                                           01 
01120050001000031          Presiding Judge, CT of Criminal Appeals                 UNDER VOTES                           PRECINCT 101                                           01 
01120050002000037          Presiding Judge, CT of Criminal Appeals                 UNDER VOTES                           PRECINCT 201                                           01 
01120050003000002          Presiding Judge, CT of Criminal Appeals                 UNDER VOTES                           PRECINCT 202                                           01 
01120050004000042          Presiding Judge, CT of Criminal Appeals                 UNDER VOTES                           PRECINCT 301                                           01 
01120050005000003          Presiding Judge, CT of Criminal Appeals                 UNDER VOTES                           PRECINCT 302                                           01 
01120050006000003          Presiding Judge, CT of Criminal Appeals                 UNDER VOTES                           PRECINCT 303                                           01 
01120050007000023          Presiding Judge, CT of Criminal Appeals                 UNDER VOTES                           PRECINCT 401                                           01 
01120050008000011          Presiding Judge, CT of Criminal Appeals                 UNDER VOTES                           PRECINCT 402                                           01 
01130010001000250REP       Judge, Court of Criminal Appeals, Pl 7                  Barbara Parker Hervey                 PRECINCT 101                                           01 
01130010002000237REP       Judge, Court of Criminal Appeals, Pl 7                  Barbara Parker Hervey                 PRECINCT 201                                           01 
01130010003000014REP       Judge, Court of Criminal Appeals, Pl 7                  Barbara Parker Hervey                 PRECINCT 202                                           01 
01130010004000301REP       Judge, Court of Criminal Appeals, Pl 7                  Barbara Parker Hervey                 PRECINCT 301                                           01 
01130010005000032REP       Judge, Court of Criminal Appeals, Pl 7                  Barbara Parker Hervey                 PRECINCT 302                                           01 
01130010006000073REP       Judge, Court of Criminal Appeals, Pl 7                  Barbara Parker Hervey                 PRECINCT 303                                           01 
01130010007000195REP       Judge, Court of Criminal Appeals, Pl 7                  Barbara Parker Hervey                 PRECINCT 401                                           01 
01130010008000073REP       Judge, Court of Criminal Appeals, Pl 7                  Barbara Parker Hervey                 PRECINCT 402                                           01 
01130020001000031LIB       Judge, Court of Criminal Appeals, Pl 7                  Mark W. Bennett                       PRECINCT 101                                           01 
01130020002000024LIB       Judge, Court of Criminal Appeals, Pl 7                  Mark W. Bennett                       PRECINCT 201                                           01 
01130020003000002LIB       Judge, Court of Criminal Appeals, Pl 7                  Mark W. Bennett                       PRECINCT 202                                           01 
01130020004000029LIB       Judge, Court of Criminal Appeals, Pl 7                  Mark W. Bennett                       PRECINCT 301                                           01 
01130020005000001LIB       Judge, Court of Criminal Appeals, Pl 7                  Mark W. Bennett                       PRECINCT 302                                           01 
01130020006000003LIB       Judge, Court of Criminal Appeals, Pl 7                  Mark W. Bennett                       PRECINCT 303                                           01 
01130020007000018LIB       Judge, Court of Criminal Appeals, Pl 7                  Mark W. Bennett                       PRECINCT 401                                           01 
01130020008000003LIB       Judge, Court of Criminal Appeals, Pl 7                  Mark W. Bennett                       PRECINCT 402                                           01 
01130030001000000          Judge, Court of Criminal Appeals, Pl 7                  OVER VOTES                            PRECINCT 101                                           01 
01130030002000000          Judge, Court of Criminal Appeals, Pl 7                  OVER VOTES                            PRECINCT 201                                           01 
01130030003000000          Judge, Court of Criminal Appeals, Pl 7                  OVER VOTES                            PRECINCT 202                                           01 
01130030004000000          Judge, Court of Criminal Appeals, Pl 7                  OVER VOTES                            PRECINCT 301                                           01 
01130030005000000          Judge, Court of Criminal Appeals, Pl 7                  OVER VOTES                            PRECINCT 302                                           01 
01130030006000000          Judge, Court of Criminal Appeals, Pl 7                  OVER VOTES                            PRECINCT 303                                           01 
01130030007000000          Judge, Court of Criminal Appeals, Pl 7                  OVER VOTES                            PRECINCT 401                                           01 
01130030008000000          Judge, Court of Criminal Appeals, Pl 7                  OVER VOTES                            PRECINCT 402                                           01 
01130040001000049          Judge, Court of Criminal Appeals, Pl 7                  UNDER VOTES                           PRECINCT 101                                           01 
01130040002000058          Judge, Court of Criminal Appeals, Pl 7                  UNDER VOTES                           PRECINCT 201                                           01 
01130040003000002          Judge, Court of Criminal Appeals, Pl 7                  UNDER VOTES                           PRECINCT 202                                           01 
01130040004000053          Judge, Court of Criminal Appeals, Pl 7                  UNDER VOTES                           PRECINCT 301                                           01 
01130040005000003          Judge, Court of Criminal Appeals, Pl 7                  UNDER VOTES                           PRECINCT 302                                           01 
01130040006000010          Judge, Court of Criminal Appeals, Pl 7                  UNDER VOTES                           PRECINCT 303                                           01 
01130040007000037          Judge, Court of Criminal Appeals, Pl 7                  UNDER VOTES                           PRECINCT 401                                           01 
01130040008000016          Judge, Court of Criminal Appeals, Pl 7                  UNDER VOTES                           PRECINCT 402                                           01 
01140010001000247REP       Judge, Court of Criminal Appeals, Pl 8                  Elsa Alcala                           PRECINCT 101                                           01 
01140010002000228REP       Judge, Court of Criminal Appeals, Pl 8                  Elsa Alcala                           PRECINCT 201                                           01 
01140010003000013REP       Judge, Court of Criminal Appeals, Pl 8                  Elsa Alcala                           PRECINCT 202                                           01 
01140010004000290REP       Judge, Court of Criminal Appeals, Pl 8                  Elsa Alcala                           PRECINCT 301                                           01 
01140010005000029REP       Judge, Court of Criminal Appeals, Pl 8                  Elsa Alcala                           PRECINCT 302                                           01 
01140010006000070REP       Judge, Court of Criminal Appeals, Pl 8                  Elsa Alcala                           PRECINCT 303                                           01 
01140010007000183REP       Judge, Court of Criminal Appeals, Pl 8                  Elsa Alcala                           PRECINCT 401                                           01 
01140010008000070REP       Judge, Court of Criminal Appeals, Pl 8                  Elsa Alcala                           PRECINCT 402                                           01 
01140020001000026LIB       Judge, Court of Criminal Appeals, Pl 8                  William Bryan Strange, III            PRECINCT 101                                           01 
01140020002000030LIB       Judge, Court of Criminal Appeals, Pl 8                  William Bryan Strange, III            PRECINCT 201                                           01 
01140020003000003LIB       Judge, Court of Criminal Appeals, Pl 8                  William Bryan Strange, III            PRECINCT 202                                           01 
01140020004000037LIB       Judge, Court of Criminal Appeals, Pl 8                  William Bryan Strange, III            PRECINCT 301                                           01 
01140020005000003LIB       Judge, Court of Criminal Appeals, Pl 8                  William Bryan Strange, III            PRECINCT 302                                           01 
01140020006000005LIB       Judge, Court of Criminal Appeals, Pl 8                  William Bryan Strange, III            PRECINCT 303                                           01 
01140020007000028LIB       Judge, Court of Criminal Appeals, Pl 8                  William Bryan Strange, III            PRECINCT 401                                           01 
01140020008000005LIB       Judge, Court of Criminal Appeals, Pl 8                  William Bryan Strange, III            PRECINCT 402                                           01 
01140030001000000          Judge, Court of Criminal Appeals, Pl 8                  OVER VOTES                            PRECINCT 101                                           01 
01140030002000000          Judge, Court of Criminal Appeals, Pl 8                  OVER VOTES                            PRECINCT 201                                           01 
01140030003000000          Judge, Court of Criminal Appeals, Pl 8                  OVER VOTES                            PRECINCT 202                                           01 
01140030004000000          Judge, Court of Criminal Appeals, Pl 8                  OVER VOTES                            PRECINCT 301                                           01 
01140030005000000          Judge, Court of Criminal Appeals, Pl 8                  OVER VOTES                            PRECINCT 302                                           01 
01140030006000000          Judge, Court of Criminal Appeals, Pl 8                  OVER VOTES                            PRECINCT 303                                           01 
01140030007000000          Judge, Court of Criminal Appeals, Pl 8                  OVER VOTES                            PRECINCT 401                                           01 
01140030008000000          Judge, Court of Criminal Appeals, Pl 8                  OVER VOTES                            PRECINCT 402                                           01 
01140040001000057          Judge, Court of Criminal Appeals, Pl 8                  UNDER VOTES                           PRECINCT 101                                           01 
01140040002000061          Judge, Court of Criminal Appeals, Pl 8                  UNDER VOTES                           PRECINCT 201                                           01 
01140040003000002          Judge, Court of Criminal Appeals, Pl 8                  UNDER VOTES                           PRECINCT 202                                           01 
01140040004000056          Judge, Court of Criminal Appeals, Pl 8                  UNDER VOTES                           PRECINCT 301                                           01 
01140040005000004          Judge, Court of Criminal Appeals, Pl 8                  UNDER VOTES                           PRECINCT 302                                           01 
01140040006000011          Judge, Court of Criminal Appeals, Pl 8                  UNDER VOTES                           PRECINCT 303                                           01 
01140040007000039          Judge, Court of Criminal Appeals, Pl 8                  UNDER VOTES                           PRECINCT 401                                           01 
01140040008000017          Judge, Court of Criminal Appeals, Pl 8                  UNDER VOTES                           PRECINCT 402                                           01 
01150010001000254REP       Member, State BoE, District 15                          Marty Rowley                          PRECINCT 101                                           01 
01150010002000237REP       Member, State BoE, District 15                          Marty Rowley                          PRECINCT 201                                           01 
01150010003000012REP       Member, State BoE, District 15                          Marty Rowley                          PRECINCT 202                                           01 
01150010004000306REP       Member, State BoE, District 15                          Marty Rowley                          PRECINCT 301                                           01 
01150010005000030REP       Member, State BoE, District 15                          Marty Rowley                          PRECINCT 302                                           01 
01150010006000072REP       Member, State BoE, District 15                          Marty Rowley                          PRECINCT 303                                           01 
01150010007000187REP       Member, State BoE, District 15                          Marty Rowley                          PRECINCT 401                                           01 
01150010008000070REP       Member, State BoE, District 15                          Marty Rowley                          PRECINCT 402                                           01 
01150020001000043DEM       Member, State BoE, District 15                          Steven D. Schafersman                 PRECINCT 101                                           01 
01150020002000049DEM       Member, State BoE, District 15                          Steven D. Schafersman                 PRECINCT 201                                           01 
01150020003000004DEM       Member, State BoE, District 15                          Steven D. Schafersman                 PRECINCT 202                                           01 
01150020004000037DEM       Member, State BoE, District 15                          Steven D. Schafersman                 PRECINCT 301                                           01 
01150020005000004DEM       Member, State BoE, District 15                          Steven D. Schafersman                 PRECINCT 302                                           01 
01150020006000012DEM       Member, State BoE, District 15                          Steven D. Schafersman                 PRECINCT 303                                           01 
01150020007000038DEM       Member, State BoE, District 15                          Steven D. Schafersman                 PRECINCT 401                                           01 
01150020008000010DEM       Member, State BoE, District 15                          Steven D. Schafersman                 PRECINCT 402                                           01 
01150030001000000          Member, State BoE, District 15                          OVER VOTES                            PRECINCT 101                                           01 
01150030002000000          Member, State BoE, District 15                          OVER VOTES                            PRECINCT 201                                           01 
01150030003000000          Member, State BoE, District 15                          OVER VOTES                            PRECINCT 202                                           01 
01150030004000000          Member, State BoE, District 15                          OVER VOTES                            PRECINCT 301                                           01 
01150030005000000          Member, State BoE, District 15                          OVER VOTES                            PRECINCT 302                                           01 
01150030006000000          Member, State BoE, District 15                          OVER VOTES                            PRECINCT 303                                           01 
01150030007000000          Member, State BoE, District 15                          OVER VOTES                            PRECINCT 401                                           01 
01150030008000000          Member, State BoE, District 15                          OVER VOTES                            PRECINCT 402                                           01 
01150040001000033          Member, State BoE, District 15                          UNDER VOTES                           PRECINCT 101                                           01 
01150040002000033          Member, State BoE, District 15                          UNDER VOTES                           PRECINCT 201                                           01 
01150040003000002          Member, State BoE, District 15                          UNDER VOTES                           PRECINCT 202                                           01 
01150040004000040          Member, State BoE, District 15                          UNDER VOTES                           PRECINCT 301                                           01 
01150040005000002          Member, State BoE, District 15                          UNDER VOTES                           PRECINCT 302                                           01 
01150040006000002          Member, State BoE, District 15                          UNDER VOTES                           PRECINCT 303                                           01 
01150040007000025          Member, State BoE, District 15                          UNDER VOTES                           PRECINCT 401                                           01 
01150040008000012          Member, State BoE, District 15                          UNDER VOTES                           PRECINCT 402                                           01 
